{
	"schemaVersion": "2.0.0",
	"contractName": "TestLibBytes",
	"compilerOutput": {
		"abi": [
			{
				"constant": true,
				"inputs": [
					{
						"name": "b",
						"type": "bytes"
					}
				],
				"name": "publicPopLastByte",
				"outputs": [
					{
						"name": "",
						"type": "bytes"
					},
					{
						"name": "result",
						"type": "bytes1"
					}
				],
				"payable": false,
				"stateMutability": "pure",
				"type": "function"
			},
			{
				"constant": true,
				"inputs": [
					{
						"name": "b",
						"type": "bytes"
					},
					{
						"name": "index",
						"type": "uint256"
					}
				],
				"name": "publicReadBytesWithLength",
				"outputs": [
					{
						"name": "result",
						"type": "bytes"
					}
				],
				"payable": false,
				"stateMutability": "pure",
				"type": "function"
			},
			{
				"constant": true,
				"inputs": [
					{
						"name": "dest",
						"type": "bytes"
					},
					{
						"name": "source",
						"type": "bytes"
					}
				],
				"name": "publicDeepCopyBytes",
				"outputs": [
					{
						"name": "",
						"type": "bytes"
					}
				],
				"payable": false,
				"stateMutability": "pure",
				"type": "function"
			},
			{
				"constant": true,
				"inputs": [
					{
						"name": "b",
						"type": "bytes"
					},
					{
						"name": "index",
						"type": "uint256"
					},
					{
						"name": "input",
						"type": "address"
					}
				],
				"name": "publicWriteAddress",
				"outputs": [
					{
						"name": "",
						"type": "bytes"
					}
				],
				"payable": false,
				"stateMutability": "pure",
				"type": "function"
			},
			{
				"constant": true,
				"inputs": [
					{
						"name": "b",
						"type": "bytes"
					},
					{
						"name": "index",
						"type": "uint256"
					},
					{
						"name": "input",
						"type": "bytes"
					}
				],
				"name": "publicWriteBytesWithLength",
				"outputs": [
					{
						"name": "",
						"type": "bytes"
					}
				],
				"payable": false,
				"stateMutability": "pure",
				"type": "function"
			},
			{
				"constant": true,
				"inputs": [
					{
						"name": "mem",
						"type": "bytes"
					},
					{
						"name": "dest",
						"type": "uint256"
					},
					{
						"name": "source",
						"type": "uint256"
					},
					{
						"name": "length",
						"type": "uint256"
					}
				],
				"name": "testMemcpy",
				"outputs": [
					{
						"name": "",
						"type": "bytes"
					}
				],
				"payable": false,
				"stateMutability": "pure",
				"type": "function"
			},
			{
				"constant": true,
				"inputs": [
					{
						"name": "b",
						"type": "bytes"
					},
					{
						"name": "index",
						"type": "uint256"
					}
				],
				"name": "publicReadAddress",
				"outputs": [
					{
						"name": "result",
						"type": "address"
					}
				],
				"payable": false,
				"stateMutability": "pure",
				"type": "function"
			},
			{
				"constant": true,
				"inputs": [
					{
						"name": "b",
						"type": "bytes"
					},
					{
						"name": "index",
						"type": "uint256"
					},
					{
						"name": "input",
						"type": "bytes32"
					}
				],
				"name": "publicWriteBytes32",
				"outputs": [
					{
						"name": "",
						"type": "bytes"
					}
				],
				"payable": false,
				"stateMutability": "pure",
				"type": "function"
			},
			{
				"constant": true,
				"inputs": [
					{
						"name": "b",
						"type": "bytes"
					}
				],
				"name": "publicPopLast20Bytes",
				"outputs": [
					{
						"name": "",
						"type": "bytes"
					},
					{
						"name": "result",
						"type": "address"
					}
				],
				"payable": false,
				"stateMutability": "pure",
				"type": "function"
			},
			{
				"constant": true,
				"inputs": [
					{
						"name": "lhs",
						"type": "bytes"
					},
					{
						"name": "rhs",
						"type": "bytes"
					}
				],
				"name": "publicEqualsPop1",
				"outputs": [
					{
						"name": "equal",
						"type": "bool"
					}
				],
				"payable": false,
				"stateMutability": "pure",
				"type": "function"
			},
			{
				"constant": true,
				"inputs": [
					{
						"name": "b",
						"type": "bytes"
					},
					{
						"name": "index",
						"type": "uint256"
					},
					{
						"name": "input",
						"type": "uint256"
					}
				],
				"name": "publicWriteUint256",
				"outputs": [
					{
						"name": "",
						"type": "bytes"
					}
				],
				"payable": false,
				"stateMutability": "pure",
				"type": "function"
			},
			{
				"constant": true,
				"inputs": [
					{
						"name": "b",
						"type": "bytes"
					},
					{
						"name": "index",
						"type": "uint256"
					}
				],
				"name": "publicReadBytes32",
				"outputs": [
					{
						"name": "result",
						"type": "bytes32"
					}
				],
				"payable": false,
				"stateMutability": "pure",
				"type": "function"
			},
			{
				"constant": true,
				"inputs": [
					{
						"name": "b",
						"type": "bytes"
					},
					{
						"name": "index",
						"type": "uint256"
					}
				],
				"name": "publicReadBytes4",
				"outputs": [
					{
						"name": "result",
						"type": "bytes4"
					}
				],
				"payable": false,
				"stateMutability": "pure",
				"type": "function"
			},
			{
				"constant": true,
				"inputs": [
					{
						"name": "b",
						"type": "bytes"
					},
					{
						"name": "index",
						"type": "uint256"
					}
				],
				"name": "publicReadUint256",
				"outputs": [
					{
						"name": "result",
						"type": "uint256"
					}
				],
				"payable": false,
				"stateMutability": "pure",
				"type": "function"
			},
			{
				"constant": true,
				"inputs": [
					{
						"name": "lhs",
						"type": "bytes"
					},
					{
						"name": "rhs",
						"type": "bytes"
					}
				],
				"name": "publicEquals",
				"outputs": [
					{
						"name": "equal",
						"type": "bool"
					}
				],
				"payable": false,
				"stateMutability": "pure",
				"type": "function"
			}
		],
		"evm": {
			"bytecode": {
				"linkReferences": {},
				"object": "0x608060405234801561001057600080fd5b50611ad1806100206000396000f3006080604052600436106100db576000357c0100000000000000000000000000000000000000000000000000000000900463ffffffff1680630301d5e1146100e0578063076eec081461020d57806318c535d9146102f95780633f2a25ec146104215780634b3687681461052d57806378bbae9b1461065f57806382e2fa241461075f57806384f8775814610812578063a4b196541461090c578063b1840e8d14610a21578063b79650a414610ae8578063be766f1b14610bde578063cc12cb2814610c6d578063e3a85ce414610d32578063f06f300d14610db9575b600080fd5b3480156100ec57600080fd5b50610147600480360381019080803590602001908201803590602001908080601f0160208091040260200160405190810160405280939291908181526020018383808284378201915050505050509192919290505050610e80565b6040518080602001837effffffffffffffffffffffffffffffffffffffffffffffffffffffffffffff19167effffffffffffffffffffffffffffffffffffffffffffffffffffffffffffff19168152602001828103825284818151815260200191508051906020019080838360005b838110156101d15780820151818401526020810190506101b6565b50505050905090810190601f1680156101fe5780820380516001836020036101000a031916815260200191505b50935050505060405180910390f35b34801561021957600080fd5b5061027e600480360381019080803590602001908201803590602001908080601f016020809104026020016040519081016040528093929190818152602001838380828437820191505050505050919291929080359060200190929190505050610e9a565b6040518080602001828103825283818151815260200191508051906020019080838360005b838110156102be5780820151818401526020810190506102a3565b50505050905090810190601f1680156102eb5780820380516001836020036101000a031916815260200191505b509250505060405180910390f35b34801561030557600080fd5b506103a6600480360381019080803590602001908201803590602001908080601f0160208091040260200160405190810160405280939291908181526020018383808284378201915050505050509192919290803590602001908201803590602001908080601f0160208091040260200160405190810160405280939291908181526020018383808284378201915050505050509192919290505050610eba565b6040518080602001828103825283818151815260200191508051906020019080838360005b838110156103e65780820151818401526020810190506103cb565b50505050905090810190601f1680156104135780820380516001836020036101000a031916815260200191505b509250505060405180910390f35b34801561042d57600080fd5b506104b2600480360381019080803590602001908201803590602001908080601f016020809104026020016040519081016040528093929190818152602001838380828437820191505050505050919291929080359060200190929190803573ffffffffffffffffffffffffffffffffffffffff169060200190929190505050610ecf565b6040518080602001828103825283818151815260200191508051906020019080838360005b838110156104f25780820151818401526020810190506104d7565b50505050905090810190601f16801561051f5780820380516001836020036101000a031916815260200191505b509250505060405180910390f35b34801561053957600080fd5b506105e4600480360381019080803590602001908201803590602001908080601f016020809104026020016040519081016040528093929190818152602001838380828437820191505050505050919291929080359060200190929190803590602001908201803590602001908080601f0160208091040260200160405190810160405280939291908181526020018383808284378201915050505050509192919290505050610ef0565b6040518080602001828103825283818151815260200191508051906020019080838360005b83811015610624578082015181840152602081019050610609565b50505050905090810190601f1680156106515780820380516001836020036101000a031916815260200191505b509250505060405180910390f35b34801561066b57600080fd5b506106e4600480360381019080803590602001908201803590602001908080601f0160208091040260200160405190810160405280939291908181526020018383808284378201915050505050509192919290803590602001909291908035906020019092919080359060200190929190505050610f11565b6040518080602001828103825283818151815260200191508051906020019080838360005b83811015610724578082015181840152602081019050610709565b50505050905090810190601f1680156107515780820380516001836020036101000a031916815260200191505b509250505060405180910390f35b34801561076b57600080fd5b506107d0600480360381019080803590602001908201803590602001908080601f016020809104026020016040519081016040528093929190818152602001838380828437820191505050505050919291929080359060200190929190505050610f5f565b604051808273ffffffffffffffffffffffffffffffffffffffff1673ffffffffffffffffffffffffffffffffffffffff16815260200191505060405180910390f35b34801561081e57600080fd5b50610891600480360381019080803590602001908201803590602001908080601f0160208091040260200160405190810160405280939291908181526020018383808284378201915050505050509192919290803590602001909291908035600019169060200190929190505050610f7f565b6040518080602001828103825283818151815260200191508051906020019080838360005b838110156108d15780820151818401526020810190506108b6565b50505050905090810190601f1680156108fe5780820380516001836020036101000a031916815260200191505b509250505060405180910390f35b34801561091857600080fd5b50610973600480360381019080803590602001908201803590602001908080601f0160208091040260200160405190810160405280939291908181526020018383808284378201915050505050509192919290505050610fa0565b60405180806020018373ffffffffffffffffffffffffffffffffffffffff1673ffffffffffffffffffffffffffffffffffffffff168152602001828103825284818151815260200191508051906020019080838360005b838110156109e55780820151818401526020810190506109ca565b50505050905090810190601f168015610a125780820380516001836020036101000a031916815260200191505b50935050505060405180910390f35b348015610a2d57600080fd5b50610ace600480360381019080803590602001908201803590602001908080601f0160208091040260200160405190810160405280939291908181526020018383808284378201915050505050509192919290803590602001908201803590602001908080601f0160208091040260200160405190810160405280939291908181526020018383808284378201915050505050509192919290505050610fba565b604051808215151515815260200191505060405180910390f35b348015610af457600080fd5b50610b63600480360381019080803590602001908201803590602001908080601f01602080910402602001604051908101604052809392919081815260200183838082843782019150505050505091929192908035906020019092919080359060200190929190505050610fee565b6040518080602001828103825283818151815260200191508051906020019080838360005b83811015610ba3578082015181840152602081019050610b88565b50505050905090810190601f168015610bd05780820380516001836020036101000a031916815260200191505b509250505060405180910390f35b348015610bea57600080fd5b50610c4f600480360381019080803590602001908201803590602001908080601f01602080910402602001604051908101604052809392919081815260200183838082843782019150505050505091929192908035906020019092919050505061100f565b60405180826000191660001916815260200191505060405180910390f35b348015610c7957600080fd5b50610cde600480360381019080803590602001908201803590602001908080601f01602080910402602001604051908101604052809392919081815260200183838082843782019150505050505091929192908035906020019092919050505061102f565b60405180827bffffffffffffffffffffffffffffffffffffffffffffffffffffffff19167bffffffffffffffffffffffffffffffffffffffffffffffffffffffff1916815260200191505060405180910390f35b348015610d3e57600080fd5b50610da3600480360381019080803590602001908201803590602001908080601f01602080910402602001604051908101604052809392919081815260200183838082843782019150505050505091929192908035906020019092919050505061104f565b6040518082815260200191505060405180910390f35b348015610dc557600080fd5b50610e66600480360381019080803590602001908201803590602001908080601f0160208091040260200160405190810160405280939291908181526020018383808284378201915050505050509192919290803590602001908201803590602001908080601f016020809104026020016040519081016040528093929190818152602001838380828437820191505050505050919291929050505061106f565b604051808215151515815260200191505060405180910390f35b60606000610e8d8361108f565b9050828191509150915091565b6060610eaf828461119f90919063ffffffff16565b905080905092915050565b6060610ec68383611265565b82905092915050565b6060610ee683838661132a9092919063ffffffff16565b8390509392505050565b6060610f0783838661141e9092919063ffffffff16565b8390509392505050565b60606000855183850111151515610f2757600080fd5b855183860111151515610f3957600080fd5b610f42866114e9565b9050610f53858201858301856114f9565b85915050949350505050565b6000610f7482846115a990919063ffffffff16565b905080905092915050565b6060610f968383866116789092919063ffffffff16565b8390509392505050565b60606000610fad8361172a565b9050828191509150915091565b6000610fc58361108f565b50610fcf8261108f565b50610fe382846117ed90919063ffffffff16565b905080905092915050565b60606110058383866118d39092919063ffffffff16565b8390509392505050565b600061102482846118e690919063ffffffff16565b905080905092915050565b6000611044828461199f90919063ffffffff16565b905080905092915050565b60006110648284611a7d90919063ffffffff16565b905080905092915050565b600061108482846117ed90919063ffffffff16565b905080905092915050565b600080825111151561112f576040517f08c379a00000000000000000000000000000000000000000000000000000000081526004018080602001828103825260218152602001807f475245415445525f5448414e5f5a45524f5f4c454e4754485f5245515549524581526020017f440000000000000000000000000000000000000000000000000000000000000081525060400191505060405180910390fd5b81600183510381518110151561114157fe5b9060200101517f010000000000000000000000000000000000000000000000000000000000000090047f0100000000000000000000000000000000000000000000000000000000000000029050600182510380835250809050919050565b606060006111ad8484611a7d565b9050602083019250808301845110151515611256576040517f08c379a00000000000000000000000000000000000000000000000000000000081526004018080602001828103825260308152602001807f475245415445525f4f525f455155414c5f544f5f4e45535445445f425954455381526020017f5f4c454e4754485f52455155495245440000000000000000000000000000000081525060400191505060405180910390fd5b82840191508191505092915050565b6000815190508083511015151561130a576040517f08c379a00000000000000000000000000000000000000000000000000000000081526004018080602001828103825260308152602001807f475245415445525f4f525f455155414c5f544f5f534f555243455f425954455381526020017f5f4c454e4754485f52455155495245440000000000000000000000000000000081525060400191505060405180910390fd5b611325611316846114e9565b61131f846114e9565b836114f9565b505050565b601482018351101515156113cc576040517f08c379a00000000000000000000000000000000000000000000000000000000081526004018080602001828103825260268152602001807f475245415445525f4f525f455155414c5f544f5f32305f4c454e4754485f524581526020017f515549524544000000000000000000000000000000000000000000000000000081525060400191505060405180910390fd5b6014820191507fffffffffffffffffffffffff0000000000000000000000000000000000000000828401511673ffffffffffffffffffffffffffffffffffffffff821691508082188385015250505050565b805160208301018351101515156114c3576040517f08c379a00000000000000000000000000000000000000000000000000000000081526004018080602001828103825260308152602001807f475245415445525f4f525f455155414c5f544f5f4e45535445445f425954455381526020017f5f4c454e4754485f52455155495245440000000000000000000000000000000081525060400191505060405180910390fd5b6114e4826114d0856114e9565b016114da83611a98565b60208451016114f9565b505050565b6000602082019050809050919050565b6020811015611523576001816020036101000a0380198351168185511680821786525050506115a3565b82821415611530576115a4565b8282111561156f5760208103905080820181840181515b828510156115645784518652602085019450602086019550611547565b8082525050506115a2565b60208103905080820181840183515b8186121561159b578251825260208303925060208203915061157e565b8086525050505b5b5b505050565b60006014820183511015151561164d576040517f08c379a00000000000000000000000000000000000000000000000000000000081526004018080602001828103825260268152602001807f475245415445525f4f525f455155414c5f544f5f32305f4c454e4754485f524581526020017f515549524544000000000000000000000000000000000000000000000000000081525060400191505060405180910390fd5b60148201915073ffffffffffffffffffffffffffffffffffffffff8284015116905080905092915050565b6020820183511015151561171a576040517f08c379a00000000000000000000000000000000000000000000000000000000081526004018080602001828103825260268152602001807f475245415445525f4f525f455155414c5f544f5f33325f4c454e4754485f524581526020017f515549524544000000000000000000000000000000000000000000000000000081525060400191505060405180910390fd5b6020820191508082840152505050565b600060148251101515156117cc576040517f08c379a00000000000000000000000000000000000000000000000000000000081526004018080602001828103825260268152602001807f475245415445525f4f525f455155414c5f544f5f32305f4c454e4754485f524581526020017f515549524544000000000000000000000000000000000000000000000000000081525060400191505060405180910390fd5b6117da8260148451036115a9565b9050601482510380835250809050919050565b6000815183511480156118cb5750816040518082805190602001908083835b602083101515611831578051825260208201915060208101905060208303925061180c565b6001836020036101000a038019825116818451168082178552505050505050905001915050604051809103902060001916836040518082805190602001908083835b6020831015156118985780518252602082019150602081019050602083039250611873565b6001836020036101000a038019825116818451168082178552505050505050905001915050604051809103902060001916145b905092915050565b6118e1838383600102611678565b505050565b60006020820183511015151561198a576040517f08c379a00000000000000000000000000000000000000000000000000000000081526004018080602001828103825260268152602001807f475245415445525f4f525f455155414c5f544f5f33325f4c454e4754485f524581526020017f515549524544000000000000000000000000000000000000000000000000000081525060400191505060405180910390fd5b60208201915081830151905080905092915050565b600060048201835110151515611a43576040517f08c379a00000000000000000000000000000000000000000000000000000000081526004018080602001828103825260258152602001807f475245415445525f4f525f455155414c5f544f5f345f4c454e4754485f52455181526020017f554952454400000000000000000000000000000000000000000000000000000081525060400191505060405180910390fd5b6020820191508183015190507fffffffff000000000000000000000000000000000000000000000000000000008116905080905092915050565b6000611a8983836118e6565b60019004905080905092915050565b60008190508090509190505600a165627a7a72305820d0bb0ee65a8f355d3aec47b7bc4235271ace727fb2a784dad96e321f318a3a5e0029",
				"opcodes": "PUSH1 0x80 PUSH1 0x40 MSTORE CALLVALUE DUP1 ISZERO PUSH2 0x10 JUMPI PUSH1 0x0 DUP1 REVERT JUMPDEST POP PUSH2 0x1AD1 DUP1 PUSH2 0x20 PUSH1 0x0 CODECOPY PUSH1 0x0 RETURN STOP PUSH1 0x80 PUSH1 0x40 MSTORE PUSH1 0x4 CALLDATASIZE LT PUSH2 0xDB JUMPI PUSH1 0x0 CALLDATALOAD PUSH29 0x100000000000000000000000000000000000000000000000000000000 SWAP1 DIV PUSH4 0xFFFFFFFF AND DUP1 PUSH4 0x301D5E1 EQ PUSH2 0xE0 JUMPI DUP1 PUSH4 0x76EEC08 EQ PUSH2 0x20D JUMPI DUP1 PUSH4 0x18C535D9 EQ PUSH2 0x2F9 JUMPI DUP1 PUSH4 0x3F2A25EC EQ PUSH2 0x421 JUMPI DUP1 PUSH4 0x4B368768 EQ PUSH2 0x52D JUMPI DUP1 PUSH4 0x78BBAE9B EQ PUSH2 0x65F JUMPI DUP1 PUSH4 0x82E2FA24 EQ PUSH2 0x75F JUMPI DUP1 PUSH4 0x84F87758 EQ PUSH2 0x812 JUMPI DUP1 PUSH4 0xA4B19654 EQ PUSH2 0x90C JUMPI DUP1 PUSH4 0xB1840E8D EQ PUSH2 0xA21 JUMPI DUP1 PUSH4 0xB79650A4 EQ PUSH2 0xAE8 JUMPI DUP1 PUSH4 0xBE766F1B EQ PUSH2 0xBDE JUMPI DUP1 PUSH4 0xCC12CB28 EQ PUSH2 0xC6D JUMPI DUP1 PUSH4 0xE3A85CE4 EQ PUSH2 0xD32 JUMPI DUP1 PUSH4 0xF06F300D EQ PUSH2 0xDB9 JUMPI JUMPDEST PUSH1 0x0 DUP1 REVERT JUMPDEST CALLVALUE DUP1 ISZERO PUSH2 0xEC JUMPI PUSH1 0x0 DUP1 REVERT JUMPDEST POP PUSH2 0x147 PUSH1 0x4 DUP1 CALLDATASIZE SUB DUP2 ADD SWAP1 DUP1 DUP1 CALLDATALOAD SWAP1 PUSH1 0x20 ADD SWAP1 DUP3 ADD DUP1 CALLDATALOAD SWAP1 PUSH1 0x20 ADD SWAP1 DUP1 DUP1 PUSH1 0x1F ADD PUSH1 0x20 DUP1 SWAP2 DIV MUL PUSH1 0x20 ADD PUSH1 0x40 MLOAD SWAP1 DUP2 ADD PUSH1 0x40 MSTORE DUP1 SWAP4 SWAP3 SWAP2 SWAP1 DUP2 DUP2 MSTORE PUSH1 0x20 ADD DUP4 DUP4 DUP1 DUP3 DUP5 CALLDATACOPY DUP3 ADD SWAP2 POP POP POP POP POP POP SWAP2 SWAP3 SWAP2 SWAP3 SWAP1 POP POP POP PUSH2 0xE80 JUMP JUMPDEST PUSH1 0x40 MLOAD DUP1 DUP1 PUSH1 0x20 ADD DUP4 PUSH31 0xFFFFFFFFFFFFFFFFFFFFFFFFFFFFFFFFFFFFFFFFFFFFFFFFFFFFFFFFFFFFFF NOT AND PUSH31 0xFFFFFFFFFFFFFFFFFFFFFFFFFFFFFFFFFFFFFFFFFFFFFFFFFFFFFFFFFFFFFF NOT AND DUP2 MSTORE PUSH1 0x20 ADD DUP3 DUP2 SUB DUP3 MSTORE DUP5 DUP2 DUP2 MLOAD DUP2 MSTORE PUSH1 0x20 ADD SWAP2 POP DUP1 MLOAD SWAP1 PUSH1 0x20 ADD SWAP1 DUP1 DUP4 DUP4 PUSH1 0x0 JUMPDEST DUP4 DUP2 LT ISZERO PUSH2 0x1D1 JUMPI DUP1 DUP3 ADD MLOAD DUP2 DUP5 ADD MSTORE PUSH1 0x20 DUP2 ADD SWAP1 POP PUSH2 0x1B6 JUMP JUMPDEST POP POP POP POP SWAP1 POP SWAP1 DUP2 ADD SWAP1 PUSH1 0x1F AND DUP1 ISZERO PUSH2 0x1FE JUMPI DUP1 DUP3 SUB DUP1 MLOAD PUSH1 0x1 DUP4 PUSH1 0x20 SUB PUSH2 0x100 EXP SUB NOT AND DUP2 MSTORE PUSH1 0x20 ADD SWAP2 POP JUMPDEST POP SWAP4 POP POP POP POP PUSH1 0x40 MLOAD DUP1 SWAP2 SUB SWAP1 RETURN JUMPDEST CALLVALUE DUP1 ISZERO PUSH2 0x219 JUMPI PUSH1 0x0 DUP1 REVERT JUMPDEST POP PUSH2 0x27E PUSH1 0x4 DUP1 CALLDATASIZE SUB DUP2 ADD SWAP1 DUP1 DUP1 CALLDATALOAD SWAP1 PUSH1 0x20 ADD SWAP1 DUP3 ADD DUP1 CALLDATALOAD SWAP1 PUSH1 0x20 ADD SWAP1 DUP1 DUP1 PUSH1 0x1F ADD PUSH1 0x20 DUP1 SWAP2 DIV MUL PUSH1 0x20 ADD PUSH1 0x40 MLOAD SWAP1 DUP2 ADD PUSH1 0x40 MSTORE DUP1 SWAP4 SWAP3 SWAP2 SWAP1 DUP2 DUP2 MSTORE PUSH1 0x20 ADD DUP4 DUP4 DUP1 DUP3 DUP5 CALLDATACOPY DUP3 ADD SWAP2 POP POP POP POP POP POP SWAP2 SWAP3 SWAP2 SWAP3 SWAP1 DUP1 CALLDATALOAD SWAP1 PUSH1 0x20 ADD SWAP1 SWAP3 SWAP2 SWAP1 POP POP POP PUSH2 0xE9A JUMP JUMPDEST PUSH1 0x40 MLOAD DUP1 DUP1 PUSH1 0x20 ADD DUP3 DUP2 SUB DUP3 MSTORE DUP4 DUP2 DUP2 MLOAD DUP2 MSTORE PUSH1 0x20 ADD SWAP2 POP DUP1 MLOAD SWAP1 PUSH1 0x20 ADD SWAP1 DUP1 DUP4 DUP4 PUSH1 0x0 JUMPDEST DUP4 DUP2 LT ISZERO PUSH2 0x2BE JUMPI DUP1 DUP3 ADD MLOAD DUP2 DUP5 ADD MSTORE PUSH1 0x20 DUP2 ADD SWAP1 POP PUSH2 0x2A3 JUMP JUMPDEST POP POP POP POP SWAP1 POP SWAP1 DUP2 ADD SWAP1 PUSH1 0x1F AND DUP1 ISZERO PUSH2 0x2EB JUMPI DUP1 DUP3 SUB DUP1 MLOAD PUSH1 0x1 DUP4 PUSH1 0x20 SUB PUSH2 0x100 EXP SUB NOT AND DUP2 MSTORE PUSH1 0x20 ADD SWAP2 POP JUMPDEST POP SWAP3 POP POP POP PUSH1 0x40 MLOAD DUP1 SWAP2 SUB SWAP1 RETURN JUMPDEST CALLVALUE DUP1 ISZERO PUSH2 0x305 JUMPI PUSH1 0x0 DUP1 REVERT JUMPDEST POP PUSH2 0x3A6 PUSH1 0x4 DUP1 CALLDATASIZE SUB DUP2 ADD SWAP1 DUP1 DUP1 CALLDATALOAD SWAP1 PUSH1 0x20 ADD SWAP1 DUP3 ADD DUP1 CALLDATALOAD SWAP1 PUSH1 0x20 ADD SWAP1 DUP1 DUP1 PUSH1 0x1F ADD PUSH1 0x20 DUP1 SWAP2 DIV MUL PUSH1 0x20 ADD PUSH1 0x40 MLOAD SWAP1 DUP2 ADD PUSH1 0x40 MSTORE DUP1 SWAP4 SWAP3 SWAP2 SWAP1 DUP2 DUP2 MSTORE PUSH1 0x20 ADD DUP4 DUP4 DUP1 DUP3 DUP5 CALLDATACOPY DUP3 ADD SWAP2 POP POP POP POP POP POP SWAP2 SWAP3 SWAP2 SWAP3 SWAP1 DUP1 CALLDATALOAD SWAP1 PUSH1 0x20 ADD SWAP1 DUP3 ADD DUP1 CALLDATALOAD SWAP1 PUSH1 0x20 ADD SWAP1 DUP1 DUP1 PUSH1 0x1F ADD PUSH1 0x20 DUP1 SWAP2 DIV MUL PUSH1 0x20 ADD PUSH1 0x40 MLOAD SWAP1 DUP2 ADD PUSH1 0x40 MSTORE DUP1 SWAP4 SWAP3 SWAP2 SWAP1 DUP2 DUP2 MSTORE PUSH1 0x20 ADD DUP4 DUP4 DUP1 DUP3 DUP5 CALLDATACOPY DUP3 ADD SWAP2 POP POP POP POP POP POP SWAP2 SWAP3 SWAP2 SWAP3 SWAP1 POP POP POP PUSH2 0xEBA JUMP JUMPDEST PUSH1 0x40 MLOAD DUP1 DUP1 PUSH1 0x20 ADD DUP3 DUP2 SUB DUP3 MSTORE DUP4 DUP2 DUP2 MLOAD DUP2 MSTORE PUSH1 0x20 ADD SWAP2 POP DUP1 MLOAD SWAP1 PUSH1 0x20 ADD SWAP1 DUP1 DUP4 DUP4 PUSH1 0x0 JUMPDEST DUP4 DUP2 LT ISZERO PUSH2 0x3E6 JUMPI DUP1 DUP3 ADD MLOAD DUP2 DUP5 ADD MSTORE PUSH1 0x20 DUP2 ADD SWAP1 POP PUSH2 0x3CB JUMP JUMPDEST POP POP POP POP SWAP1 POP SWAP1 DUP2 ADD SWAP1 PUSH1 0x1F AND DUP1 ISZERO PUSH2 0x413 JUMPI DUP1 DUP3 SUB DUP1 MLOAD PUSH1 0x1 DUP4 PUSH1 0x20 SUB PUSH2 0x100 EXP SUB NOT AND DUP2 MSTORE PUSH1 0x20 ADD SWAP2 POP JUMPDEST POP SWAP3 POP POP POP PUSH1 0x40 MLOAD DUP1 SWAP2 SUB SWAP1 RETURN JUMPDEST CALLVALUE DUP1 ISZERO PUSH2 0x42D JUMPI PUSH1 0x0 DUP1 REVERT JUMPDEST POP PUSH2 0x4B2 PUSH1 0x4 DUP1 CALLDATASIZE SUB DUP2 ADD SWAP1 DUP1 DUP1 CALLDATALOAD SWAP1 PUSH1 0x20 ADD SWAP1 DUP3 ADD DUP1 CALLDATALOAD SWAP1 PUSH1 0x20 ADD SWAP1 DUP1 DUP1 PUSH1 0x1F ADD PUSH1 0x20 DUP1 SWAP2 DIV MUL PUSH1 0x20 ADD PUSH1 0x40 MLOAD SWAP1 DUP2 ADD PUSH1 0x40 MSTORE DUP1 SWAP4 SWAP3 SWAP2 SWAP1 DUP2 DUP2 MSTORE PUSH1 0x20 ADD DUP4 DUP4 DUP1 DUP3 DUP5 CALLDATACOPY DUP3 ADD SWAP2 POP POP POP POP POP POP SWAP2 SWAP3 SWAP2 SWAP3 SWAP1 DUP1 CALLDATALOAD SWAP1 PUSH1 0x20 ADD SWAP1 SWAP3 SWAP2 SWAP1 DUP1 CALLDATALOAD PUSH20 0xFFFFFFFFFFFFFFFFFFFFFFFFFFFFFFFFFFFFFFFF AND SWAP1 PUSH1 0x20 ADD SWAP1 SWAP3 SWAP2 SWAP1 POP POP POP PUSH2 0xECF JUMP JUMPDEST PUSH1 0x40 MLOAD DUP1 DUP1 PUSH1 0x20 ADD DUP3 DUP2 SUB DUP3 MSTORE DUP4 DUP2 DUP2 MLOAD DUP2 MSTORE PUSH1 0x20 ADD SWAP2 POP DUP1 MLOAD SWAP1 PUSH1 0x20 ADD SWAP1 DUP1 DUP4 DUP4 PUSH1 0x0 JUMPDEST DUP4 DUP2 LT ISZERO PUSH2 0x4F2 JUMPI DUP1 DUP3 ADD MLOAD DUP2 DUP5 ADD MSTORE PUSH1 0x20 DUP2 ADD SWAP1 POP PUSH2 0x4D7 JUMP JUMPDEST POP POP POP POP SWAP1 POP SWAP1 DUP2 ADD SWAP1 PUSH1 0x1F AND DUP1 ISZERO PUSH2 0x51F JUMPI DUP1 DUP3 SUB DUP1 MLOAD PUSH1 0x1 DUP4 PUSH1 0x20 SUB PUSH2 0x100 EXP SUB NOT AND DUP2 MSTORE PUSH1 0x20 ADD SWAP2 POP JUMPDEST POP SWAP3 POP POP POP PUSH1 0x40 MLOAD DUP1 SWAP2 SUB SWAP1 RETURN JUMPDEST CALLVALUE DUP1 ISZERO PUSH2 0x539 JUMPI PUSH1 0x0 DUP1 REVERT JUMPDEST POP PUSH2 0x5E4 PUSH1 0x4 DUP1 CALLDATASIZE SUB DUP2 ADD SWAP1 DUP1 DUP1 CALLDATALOAD SWAP1 PUSH1 0x20 ADD SWAP1 DUP3 ADD DUP1 CALLDATALOAD SWAP1 PUSH1 0x20 ADD SWAP1 DUP1 DUP1 PUSH1 0x1F ADD PUSH1 0x20 DUP1 SWAP2 DIV MUL PUSH1 0x20 ADD PUSH1 0x40 MLOAD SWAP1 DUP2 ADD PUSH1 0x40 MSTORE DUP1 SWAP4 SWAP3 SWAP2 SWAP1 DUP2 DUP2 MSTORE PUSH1 0x20 ADD DUP4 DUP4 DUP1 DUP3 DUP5 CALLDATACOPY DUP3 ADD SWAP2 POP POP POP POP POP POP SWAP2 SWAP3 SWAP2 SWAP3 SWAP1 DUP1 CALLDATALOAD SWAP1 PUSH1 0x20 ADD SWAP1 SWAP3 SWAP2 SWAP1 DUP1 CALLDATALOAD SWAP1 PUSH1 0x20 ADD SWAP1 DUP3 ADD DUP1 CALLDATALOAD SWAP1 PUSH1 0x20 ADD SWAP1 DUP1 DUP1 PUSH1 0x1F ADD PUSH1 0x20 DUP1 SWAP2 DIV MUL PUSH1 0x20 ADD PUSH1 0x40 MLOAD SWAP1 DUP2 ADD PUSH1 0x40 MSTORE DUP1 SWAP4 SWAP3 SWAP2 SWAP1 DUP2 DUP2 MSTORE PUSH1 0x20 ADD DUP4 DUP4 DUP1 DUP3 DUP5 CALLDATACOPY DUP3 ADD SWAP2 POP POP POP POP POP POP SWAP2 SWAP3 SWAP2 SWAP3 SWAP1 POP POP POP PUSH2 0xEF0 JUMP JUMPDEST PUSH1 0x40 MLOAD DUP1 DUP1 PUSH1 0x20 ADD DUP3 DUP2 SUB DUP3 MSTORE DUP4 DUP2 DUP2 MLOAD DUP2 MSTORE PUSH1 0x20 ADD SWAP2 POP DUP1 MLOAD SWAP1 PUSH1 0x20 ADD SWAP1 DUP1 DUP4 DUP4 PUSH1 0x0 JUMPDEST DUP4 DUP2 LT ISZERO PUSH2 0x624 JUMPI DUP1 DUP3 ADD MLOAD DUP2 DUP5 ADD MSTORE PUSH1 0x20 DUP2 ADD SWAP1 POP PUSH2 0x609 JUMP JUMPDEST POP POP POP POP SWAP1 POP SWAP1 DUP2 ADD SWAP1 PUSH1 0x1F AND DUP1 ISZERO PUSH2 0x651 JUMPI DUP1 DUP3 SUB DUP1 MLOAD PUSH1 0x1 DUP4 PUSH1 0x20 SUB PUSH2 0x100 EXP SUB NOT AND DUP2 MSTORE PUSH1 0x20 ADD SWAP2 POP JUMPDEST POP SWAP3 POP POP POP PUSH1 0x40 MLOAD DUP1 SWAP2 SUB SWAP1 RETURN JUMPDEST CALLVALUE DUP1 ISZERO PUSH2 0x66B JUMPI PUSH1 0x0 DUP1 REVERT JUMPDEST POP PUSH2 0x6E4 PUSH1 0x4 DUP1 CALLDATASIZE SUB DUP2 ADD SWAP1 DUP1 DUP1 CALLDATALOAD SWAP1 PUSH1 0x20 ADD SWAP1 DUP3 ADD DUP1 CALLDATALOAD SWAP1 PUSH1 0x20 ADD SWAP1 DUP1 DUP1 PUSH1 0x1F ADD PUSH1 0x20 DUP1 SWAP2 DIV MUL PUSH1 0x20 ADD PUSH1 0x40 MLOAD SWAP1 DUP2 ADD PUSH1 0x40 MSTORE DUP1 SWAP4 SWAP3 SWAP2 SWAP1 DUP2 DUP2 MSTORE PUSH1 0x20 ADD DUP4 DUP4 DUP1 DUP3 DUP5 CALLDATACOPY DUP3 ADD SWAP2 POP POP POP POP POP POP SWAP2 SWAP3 SWAP2 SWAP3 SWAP1 DUP1 CALLDATALOAD SWAP1 PUSH1 0x20 ADD SWAP1 SWAP3 SWAP2 SWAP1 DUP1 CALLDATALOAD SWAP1 PUSH1 0x20 ADD SWAP1 SWAP3 SWAP2 SWAP1 DUP1 CALLDATALOAD SWAP1 PUSH1 0x20 ADD SWAP1 SWAP3 SWAP2 SWAP1 POP POP POP PUSH2 0xF11 JUMP JUMPDEST PUSH1 0x40 MLOAD DUP1 DUP1 PUSH1 0x20 ADD DUP3 DUP2 SUB DUP3 MSTORE DUP4 DUP2 DUP2 MLOAD DUP2 MSTORE PUSH1 0x20 ADD SWAP2 POP DUP1 MLOAD SWAP1 PUSH1 0x20 ADD SWAP1 DUP1 DUP4 DUP4 PUSH1 0x0 JUMPDEST DUP4 DUP2 LT ISZERO PUSH2 0x724 JUMPI DUP1 DUP3 ADD MLOAD DUP2 DUP5 ADD MSTORE PUSH1 0x20 DUP2 ADD SWAP1 POP PUSH2 0x709 JUMP JUMPDEST POP POP POP POP SWAP1 POP SWAP1 DUP2 ADD SWAP1 PUSH1 0x1F AND DUP1 ISZERO PUSH2 0x751 JUMPI DUP1 DUP3 SUB DUP1 MLOAD PUSH1 0x1 DUP4 PUSH1 0x20 SUB PUSH2 0x100 EXP SUB NOT AND DUP2 MSTORE PUSH1 0x20 ADD SWAP2 POP JUMPDEST POP SWAP3 POP POP POP PUSH1 0x40 MLOAD DUP1 SWAP2 SUB SWAP1 RETURN JUMPDEST CALLVALUE DUP1 ISZERO PUSH2 0x76B JUMPI PUSH1 0x0 DUP1 REVERT JUMPDEST POP PUSH2 0x7D0 PUSH1 0x4 DUP1 CALLDATASIZE SUB DUP2 ADD SWAP1 DUP1 DUP1 CALLDATALOAD SWAP1 PUSH1 0x20 ADD SWAP1 DUP3 ADD DUP1 CALLDATALOAD SWAP1 PUSH1 0x20 ADD SWAP1 DUP1 DUP1 PUSH1 0x1F ADD PUSH1 0x20 DUP1 SWAP2 DIV MUL PUSH1 0x20 ADD PUSH1 0x40 MLOAD SWAP1 DUP2 ADD PUSH1 0x40 MSTORE DUP1 SWAP4 SWAP3 SWAP2 SWAP1 DUP2 DUP2 MSTORE PUSH1 0x20 ADD DUP4 DUP4 DUP1 DUP3 DUP5 CALLDATACOPY DUP3 ADD SWAP2 POP POP POP POP POP POP SWAP2 SWAP3 SWAP2 SWAP3 SWAP1 DUP1 CALLDATALOAD SWAP1 PUSH1 0x20 ADD SWAP1 SWAP3 SWAP2 SWAP1 POP POP POP PUSH2 0xF5F JUMP JUMPDEST PUSH1 0x40 MLOAD DUP1 DUP3 PUSH20 0xFFFFFFFFFFFFFFFFFFFFFFFFFFFFFFFFFFFFFFFF AND PUSH20 0xFFFFFFFFFFFFFFFFFFFFFFFFFFFFFFFFFFFFFFFF AND DUP2 MSTORE PUSH1 0x20 ADD SWAP2 POP POP PUSH1 0x40 MLOAD DUP1 SWAP2 SUB SWAP1 RETURN JUMPDEST CALLVALUE DUP1 ISZERO PUSH2 0x81E JUMPI PUSH1 0x0 DUP1 REVERT JUMPDEST POP PUSH2 0x891 PUSH1 0x4 DUP1 CALLDATASIZE SUB DUP2 ADD SWAP1 DUP1 DUP1 CALLDATALOAD SWAP1 PUSH1 0x20 ADD SWAP1 DUP3 ADD DUP1 CALLDATALOAD SWAP1 PUSH1 0x20 ADD SWAP1 DUP1 DUP1 PUSH1 0x1F ADD PUSH1 0x20 DUP1 SWAP2 DIV MUL PUSH1 0x20 ADD PUSH1 0x40 MLOAD SWAP1 DUP2 ADD PUSH1 0x40 MSTORE DUP1 SWAP4 SWAP3 SWAP2 SWAP1 DUP2 DUP2 MSTORE PUSH1 0x20 ADD DUP4 DUP4 DUP1 DUP3 DUP5 CALLDATACOPY DUP3 ADD SWAP2 POP POP POP POP POP POP SWAP2 SWAP3 SWAP2 SWAP3 SWAP1 DUP1 CALLDATALOAD SWAP1 PUSH1 0x20 ADD SWAP1 SWAP3 SWAP2 SWAP1 DUP1 CALLDATALOAD PUSH1 0x0 NOT AND SWAP1 PUSH1 0x20 ADD SWAP1 SWAP3 SWAP2 SWAP1 POP POP POP PUSH2 0xF7F JUMP JUMPDEST PUSH1 0x40 MLOAD DUP1 DUP1 PUSH1 0x20 ADD DUP3 DUP2 SUB DUP3 MSTORE DUP4 DUP2 DUP2 MLOAD DUP2 MSTORE PUSH1 0x20 ADD SWAP2 POP DUP1 MLOAD SWAP1 PUSH1 0x20 ADD SWAP1 DUP1 DUP4 DUP4 PUSH1 0x0 JUMPDEST DUP4 DUP2 LT ISZERO PUSH2 0x8D1 JUMPI DUP1 DUP3 ADD MLOAD DUP2 DUP5 ADD MSTORE PUSH1 0x20 DUP2 ADD SWAP1 POP PUSH2 0x8B6 JUMP JUMPDEST POP POP POP POP SWAP1 POP SWAP1 DUP2 ADD SWAP1 PUSH1 0x1F AND DUP1 ISZERO PUSH2 0x8FE JUMPI DUP1 DUP3 SUB DUP1 MLOAD PUSH1 0x1 DUP4 PUSH1 0x20 SUB PUSH2 0x100 EXP SUB NOT AND DUP2 MSTORE PUSH1 0x20 ADD SWAP2 POP JUMPDEST POP SWAP3 POP POP POP PUSH1 0x40 MLOAD DUP1 SWAP2 SUB SWAP1 RETURN JUMPDEST CALLVALUE DUP1 ISZERO PUSH2 0x918 JUMPI PUSH1 0x0 DUP1 REVERT JUMPDEST POP PUSH2 0x973 PUSH1 0x4 DUP1 CALLDATASIZE SUB DUP2 ADD SWAP1 DUP1 DUP1 CALLDATALOAD SWAP1 PUSH1 0x20 ADD SWAP1 DUP3 ADD DUP1 CALLDATALOAD SWAP1 PUSH1 0x20 ADD SWAP1 DUP1 DUP1 PUSH1 0x1F ADD PUSH1 0x20 DUP1 SWAP2 DIV MUL PUSH1 0x20 ADD PUSH1 0x40 MLOAD SWAP1 DUP2 ADD PUSH1 0x40 MSTORE DUP1 SWAP4 SWAP3 SWAP2 SWAP1 DUP2 DUP2 MSTORE PUSH1 0x20 ADD DUP4 DUP4 DUP1 DUP3 DUP5 CALLDATACOPY DUP3 ADD SWAP2 POP POP POP POP POP POP SWAP2 SWAP3 SWAP2 SWAP3 SWAP1 POP POP POP PUSH2 0xFA0 JUMP JUMPDEST PUSH1 0x40 MLOAD DUP1 DUP1 PUSH1 0x20 ADD DUP4 PUSH20 0xFFFFFFFFFFFFFFFFFFFFFFFFFFFFFFFFFFFFFFFF AND PUSH20 0xFFFFFFFFFFFFFFFFFFFFFFFFFFFFFFFFFFFFFFFF AND DUP2 MSTORE PUSH1 0x20 ADD DUP3 DUP2 SUB DUP3 MSTORE DUP5 DUP2 DUP2 MLOAD DUP2 MSTORE PUSH1 0x20 ADD SWAP2 POP DUP1 MLOAD SWAP1 PUSH1 0x20 ADD SWAP1 DUP1 DUP4 DUP4 PUSH1 0x0 JUMPDEST DUP4 DUP2 LT ISZERO PUSH2 0x9E5 JUMPI DUP1 DUP3 ADD MLOAD DUP2 DUP5 ADD MSTORE PUSH1 0x20 DUP2 ADD SWAP1 POP PUSH2 0x9CA JUMP JUMPDEST POP POP POP POP SWAP1 POP SWAP1 DUP2 ADD SWAP1 PUSH1 0x1F AND DUP1 ISZERO PUSH2 0xA12 JUMPI DUP1 DUP3 SUB DUP1 MLOAD PUSH1 0x1 DUP4 PUSH1 0x20 SUB PUSH2 0x100 EXP SUB NOT AND DUP2 MSTORE PUSH1 0x20 ADD SWAP2 POP JUMPDEST POP SWAP4 POP POP POP POP PUSH1 0x40 MLOAD DUP1 SWAP2 SUB SWAP1 RETURN JUMPDEST CALLVALUE DUP1 ISZERO PUSH2 0xA2D JUMPI PUSH1 0x0 DUP1 REVERT JUMPDEST POP PUSH2 0xACE PUSH1 0x4 DUP1 CALLDATASIZE SUB DUP2 ADD SWAP1 DUP1 DUP1 CALLDATALOAD SWAP1 PUSH1 0x20 ADD SWAP1 DUP3 ADD DUP1 CALLDATALOAD SWAP1 PUSH1 0x20 ADD SWAP1 DUP1 DUP1 PUSH1 0x1F ADD PUSH1 0x20 DUP1 SWAP2 DIV MUL PUSH1 0x20 ADD PUSH1 0x40 MLOAD SWAP1 DUP2 ADD PUSH1 0x40 MSTORE DUP1 SWAP4 SWAP3 SWAP2 SWAP1 DUP2 DUP2 MSTORE PUSH1 0x20 ADD DUP4 DUP4 DUP1 DUP3 DUP5 CALLDATACOPY DUP3 ADD SWAP2 POP POP POP POP POP POP SWAP2 SWAP3 SWAP2 SWAP3 SWAP1 DUP1 CALLDATALOAD SWAP1 PUSH1 0x20 ADD SWAP1 DUP3 ADD DUP1 CALLDATALOAD SWAP1 PUSH1 0x20 ADD SWAP1 DUP1 DUP1 PUSH1 0x1F ADD PUSH1 0x20 DUP1 SWAP2 DIV MUL PUSH1 0x20 ADD PUSH1 0x40 MLOAD SWAP1 DUP2 ADD PUSH1 0x40 MSTORE DUP1 SWAP4 SWAP3 SWAP2 SWAP1 DUP2 DUP2 MSTORE PUSH1 0x20 ADD DUP4 DUP4 DUP1 DUP3 DUP5 CALLDATACOPY DUP3 ADD SWAP2 POP POP POP POP POP POP SWAP2 SWAP3 SWAP2 SWAP3 SWAP1 POP POP POP PUSH2 0xFBA JUMP JUMPDEST PUSH1 0x40 MLOAD DUP1 DUP3 ISZERO ISZERO ISZERO ISZERO DUP2 MSTORE PUSH1 0x20 ADD SWAP2 POP POP PUSH1 0x40 MLOAD DUP1 SWAP2 SUB SWAP1 RETURN JUMPDEST CALLVALUE DUP1 ISZERO PUSH2 0xAF4 JUMPI PUSH1 0x0 DUP1 REVERT JUMPDEST POP PUSH2 0xB63 PUSH1 0x4 DUP1 CALLDATASIZE SUB DUP2 ADD SWAP1 DUP1 DUP1 CALLDATALOAD SWAP1 PUSH1 0x20 ADD SWAP1 DUP3 ADD DUP1 CALLDATALOAD SWAP1 PUSH1 0x20 ADD SWAP1 DUP1 DUP1 PUSH1 0x1F ADD PUSH1 0x20 DUP1 SWAP2 DIV MUL PUSH1 0x20 ADD PUSH1 0x40 MLOAD SWAP1 DUP2 ADD PUSH1 0x40 MSTORE DUP1 SWAP4 SWAP3 SWAP2 SWAP1 DUP2 DUP2 MSTORE PUSH1 0x20 ADD DUP4 DUP4 DUP1 DUP3 DUP5 CALLDATACOPY DUP3 ADD SWAP2 POP POP POP POP POP POP SWAP2 SWAP3 SWAP2 SWAP3 SWAP1 DUP1 CALLDATALOAD SWAP1 PUSH1 0x20 ADD SWAP1 SWAP3 SWAP2 SWAP1 DUP1 CALLDATALOAD SWAP1 PUSH1 0x20 ADD SWAP1 SWAP3 SWAP2 SWAP1 POP POP POP PUSH2 0xFEE JUMP JUMPDEST PUSH1 0x40 MLOAD DUP1 DUP1 PUSH1 0x20 ADD DUP3 DUP2 SUB DUP3 MSTORE DUP4 DUP2 DUP2 MLOAD DUP2 MSTORE PUSH1 0x20 ADD SWAP2 POP DUP1 MLOAD SWAP1 PUSH1 0x20 ADD SWAP1 DUP1 DUP4 DUP4 PUSH1 0x0 JUMPDEST DUP4 DUP2 LT ISZERO PUSH2 0xBA3 JUMPI DUP1 DUP3 ADD MLOAD DUP2 DUP5 ADD MSTORE PUSH1 0x20 DUP2 ADD SWAP1 POP PUSH2 0xB88 JUMP JUMPDEST POP POP POP POP SWAP1 POP SWAP1 DUP2 ADD SWAP1 PUSH1 0x1F AND DUP1 ISZERO PUSH2 0xBD0 JUMPI DUP1 DUP3 SUB DUP1 MLOAD PUSH1 0x1 DUP4 PUSH1 0x20 SUB PUSH2 0x100 EXP SUB NOT AND DUP2 MSTORE PUSH1 0x20 ADD SWAP2 POP JUMPDEST POP SWAP3 POP POP POP PUSH1 0x40 MLOAD DUP1 SWAP2 SUB SWAP1 RETURN JUMPDEST CALLVALUE DUP1 ISZERO PUSH2 0xBEA JUMPI PUSH1 0x0 DUP1 REVERT JUMPDEST POP PUSH2 0xC4F PUSH1 0x4 DUP1 CALLDATASIZE SUB DUP2 ADD SWAP1 DUP1 DUP1 CALLDATALOAD SWAP1 PUSH1 0x20 ADD SWAP1 DUP3 ADD DUP1 CALLDATALOAD SWAP1 PUSH1 0x20 ADD SWAP1 DUP1 DUP1 PUSH1 0x1F ADD PUSH1 0x20 DUP1 SWAP2 DIV MUL PUSH1 0x20 ADD PUSH1 0x40 MLOAD SWAP1 DUP2 ADD PUSH1 0x40 MSTORE DUP1 SWAP4 SWAP3 SWAP2 SWAP1 DUP2 DUP2 MSTORE PUSH1 0x20 ADD DUP4 DUP4 DUP1 DUP3 DUP5 CALLDATACOPY DUP3 ADD SWAP2 POP POP POP POP POP POP SWAP2 SWAP3 SWAP2 SWAP3 SWAP1 DUP1 CALLDATALOAD SWAP1 PUSH1 0x20 ADD SWAP1 SWAP3 SWAP2 SWAP1 POP POP POP PUSH2 0x100F JUMP JUMPDEST PUSH1 0x40 MLOAD DUP1 DUP3 PUSH1 0x0 NOT AND PUSH1 0x0 NOT AND DUP2 MSTORE PUSH1 0x20 ADD SWAP2 POP POP PUSH1 0x40 MLOAD DUP1 SWAP2 SUB SWAP1 RETURN JUMPDEST CALLVALUE DUP1 ISZERO PUSH2 0xC79 JUMPI PUSH1 0x0 DUP1 REVERT JUMPDEST POP PUSH2 0xCDE PUSH1 0x4 DUP1 CALLDATASIZE SUB DUP2 ADD SWAP1 DUP1 DUP1 CALLDATALOAD SWAP1 PUSH1 0x20 ADD SWAP1 DUP3 ADD DUP1 CALLDATALOAD SWAP1 PUSH1 0x20 ADD SWAP1 DUP1 DUP1 PUSH1 0x1F ADD PUSH1 0x20 DUP1 SWAP2 DIV MUL PUSH1 0x20 ADD PUSH1 0x40 MLOAD SWAP1 DUP2 ADD PUSH1 0x40 MSTORE DUP1 SWAP4 SWAP3 SWAP2 SWAP1 DUP2 DUP2 MSTORE PUSH1 0x20 ADD DUP4 DUP4 DUP1 DUP3 DUP5 CALLDATACOPY DUP3 ADD SWAP2 POP POP POP POP POP POP SWAP2 SWAP3 SWAP2 SWAP3 SWAP1 DUP1 CALLDATALOAD SWAP1 PUSH1 0x20 ADD SWAP1 SWAP3 SWAP2 SWAP1 POP POP POP PUSH2 0x102F JUMP JUMPDEST PUSH1 0x40 MLOAD DUP1 DUP3 PUSH28 0xFFFFFFFFFFFFFFFFFFFFFFFFFFFFFFFFFFFFFFFFFFFFFFFFFFFFFFFF NOT AND PUSH28 0xFFFFFFFFFFFFFFFFFFFFFFFFFFFFFFFFFFFFFFFFFFFFFFFFFFFFFFFF NOT AND DUP2 MSTORE PUSH1 0x20 ADD SWAP2 POP POP PUSH1 0x40 MLOAD DUP1 SWAP2 SUB SWAP1 RETURN JUMPDEST CALLVALUE DUP1 ISZERO PUSH2 0xD3E JUMPI PUSH1 0x0 DUP1 REVERT JUMPDEST POP PUSH2 0xDA3 PUSH1 0x4 DUP1 CALLDATASIZE SUB DUP2 ADD SWAP1 DUP1 DUP1 CALLDATALOAD SWAP1 PUSH1 0x20 ADD SWAP1 DUP3 ADD DUP1 CALLDATALOAD SWAP1 PUSH1 0x20 ADD SWAP1 DUP1 DUP1 PUSH1 0x1F ADD PUSH1 0x20 DUP1 SWAP2 DIV MUL PUSH1 0x20 ADD PUSH1 0x40 MLOAD SWAP1 DUP2 ADD PUSH1 0x40 MSTORE DUP1 SWAP4 SWAP3 SWAP2 SWAP1 DUP2 DUP2 MSTORE PUSH1 0x20 ADD DUP4 DUP4 DUP1 DUP3 DUP5 CALLDATACOPY DUP3 ADD SWAP2 POP POP POP POP POP POP SWAP2 SWAP3 SWAP2 SWAP3 SWAP1 DUP1 CALLDATALOAD SWAP1 PUSH1 0x20 ADD SWAP1 SWAP3 SWAP2 SWAP1 POP POP POP PUSH2 0x104F JUMP JUMPDEST PUSH1 0x40 MLOAD DUP1 DUP3 DUP2 MSTORE PUSH1 0x20 ADD SWAP2 POP POP PUSH1 0x40 MLOAD DUP1 SWAP2 SUB SWAP1 RETURN JUMPDEST CALLVALUE DUP1 ISZERO PUSH2 0xDC5 JUMPI PUSH1 0x0 DUP1 REVERT JUMPDEST POP PUSH2 0xE66 PUSH1 0x4 DUP1 CALLDATASIZE SUB DUP2 ADD SWAP1 DUP1 DUP1 CALLDATALOAD SWAP1 PUSH1 0x20 ADD SWAP1 DUP3 ADD DUP1 CALLDATALOAD SWAP1 PUSH1 0x20 ADD SWAP1 DUP1 DUP1 PUSH1 0x1F ADD PUSH1 0x20 DUP1 SWAP2 DIV MUL PUSH1 0x20 ADD PUSH1 0x40 MLOAD SWAP1 DUP2 ADD PUSH1 0x40 MSTORE DUP1 SWAP4 SWAP3 SWAP2 SWAP1 DUP2 DUP2 MSTORE PUSH1 0x20 ADD DUP4 DUP4 DUP1 DUP3 DUP5 CALLDATACOPY DUP3 ADD SWAP2 POP POP POP POP POP POP SWAP2 SWAP3 SWAP2 SWAP3 SWAP1 DUP1 CALLDATALOAD SWAP1 PUSH1 0x20 ADD SWAP1 DUP3 ADD DUP1 CALLDATALOAD SWAP1 PUSH1 0x20 ADD SWAP1 DUP1 DUP1 PUSH1 0x1F ADD PUSH1 0x20 DUP1 SWAP2 DIV MUL PUSH1 0x20 ADD PUSH1 0x40 MLOAD SWAP1 DUP2 ADD PUSH1 0x40 MSTORE DUP1 SWAP4 SWAP3 SWAP2 SWAP1 DUP2 DUP2 MSTORE PUSH1 0x20 ADD DUP4 DUP4 DUP1 DUP3 DUP5 CALLDATACOPY DUP3 ADD SWAP2 POP POP POP POP POP POP SWAP2 SWAP3 SWAP2 SWAP3 SWAP1 POP POP POP PUSH2 0x106F JUMP JUMPDEST PUSH1 0x40 MLOAD DUP1 DUP3 ISZERO ISZERO ISZERO ISZERO DUP2 MSTORE PUSH1 0x20 ADD SWAP2 POP POP PUSH1 0x40 MLOAD DUP1 SWAP2 SUB SWAP1 RETURN JUMPDEST PUSH1 0x60 PUSH1 0x0 PUSH2 0xE8D DUP4 PUSH2 0x108F JUMP JUMPDEST SWAP1 POP DUP3 DUP2 SWAP2 POP SWAP2 POP SWAP2 POP SWAP2 JUMP JUMPDEST PUSH1 0x60 PUSH2 0xEAF DUP3 DUP5 PUSH2 0x119F SWAP1 SWAP2 SWAP1 PUSH4 0xFFFFFFFF AND JUMP JUMPDEST SWAP1 POP DUP1 SWAP1 POP SWAP3 SWAP2 POP POP JUMP JUMPDEST PUSH1 0x60 PUSH2 0xEC6 DUP4 DUP4 PUSH2 0x1265 JUMP JUMPDEST DUP3 SWAP1 POP SWAP3 SWAP2 POP POP JUMP JUMPDEST PUSH1 0x60 PUSH2 0xEE6 DUP4 DUP4 DUP7 PUSH2 0x132A SWAP1 SWAP3 SWAP2 SWAP1 PUSH4 0xFFFFFFFF AND JUMP JUMPDEST DUP4 SWAP1 POP SWAP4 SWAP3 POP POP POP JUMP JUMPDEST PUSH1 0x60 PUSH2 0xF07 DUP4 DUP4 DUP7 PUSH2 0x141E SWAP1 SWAP3 SWAP2 SWAP1 PUSH4 0xFFFFFFFF AND JUMP JUMPDEST DUP4 SWAP1 POP SWAP4 SWAP3 POP POP POP JUMP JUMPDEST PUSH1 0x60 PUSH1 0x0 DUP6 MLOAD DUP4 DUP6 ADD GT ISZERO ISZERO ISZERO PUSH2 0xF27 JUMPI PUSH1 0x0 DUP1 REVERT JUMPDEST DUP6 MLOAD DUP4 DUP7 ADD GT ISZERO ISZERO ISZERO PUSH2 0xF39 JUMPI PUSH1 0x0 DUP1 REVERT JUMPDEST PUSH2 0xF42 DUP7 PUSH2 0x14E9 JUMP JUMPDEST SWAP1 POP PUSH2 0xF53 DUP6 DUP3 ADD DUP6 DUP4 ADD DUP6 PUSH2 0x14F9 JUMP JUMPDEST DUP6 SWAP2 POP POP SWAP5 SWAP4 POP POP POP POP JUMP JUMPDEST PUSH1 0x0 PUSH2 0xF74 DUP3 DUP5 PUSH2 0x15A9 SWAP1 SWAP2 SWAP1 PUSH4 0xFFFFFFFF AND JUMP JUMPDEST SWAP1 POP DUP1 SWAP1 POP SWAP3 SWAP2 POP POP JUMP JUMPDEST PUSH1 0x60 PUSH2 0xF96 DUP4 DUP4 DUP7 PUSH2 0x1678 SWAP1 SWAP3 SWAP2 SWAP1 PUSH4 0xFFFFFFFF AND JUMP JUMPDEST DUP4 SWAP1 POP SWAP4 SWAP3 POP POP POP JUMP JUMPDEST PUSH1 0x60 PUSH1 0x0 PUSH2 0xFAD DUP4 PUSH2 0x172A JUMP JUMPDEST SWAP1 POP DUP3 DUP2 SWAP2 POP SWAP2 POP SWAP2 POP SWAP2 JUMP JUMPDEST PUSH1 0x0 PUSH2 0xFC5 DUP4 PUSH2 0x108F JUMP JUMPDEST POP PUSH2 0xFCF DUP3 PUSH2 0x108F JUMP JUMPDEST POP PUSH2 0xFE3 DUP3 DUP5 PUSH2 0x17ED SWAP1 SWAP2 SWAP1 PUSH4 0xFFFFFFFF AND JUMP JUMPDEST SWAP1 POP DUP1 SWAP1 POP SWAP3 SWAP2 POP POP JUMP JUMPDEST PUSH1 0x60 PUSH2 0x1005 DUP4 DUP4 DUP7 PUSH2 0x18D3 SWAP1 SWAP3 SWAP2 SWAP1 PUSH4 0xFFFFFFFF AND JUMP JUMPDEST DUP4 SWAP1 POP SWAP4 SWAP3 POP POP POP JUMP JUMPDEST PUSH1 0x0 PUSH2 0x1024 DUP3 DUP5 PUSH2 0x18E6 SWAP1 SWAP2 SWAP1 PUSH4 0xFFFFFFFF AND JUMP JUMPDEST SWAP1 POP DUP1 SWAP1 POP SWAP3 SWAP2 POP POP JUMP JUMPDEST PUSH1 0x0 PUSH2 0x1044 DUP3 DUP5 PUSH2 0x199F SWAP1 SWAP2 SWAP1 PUSH4 0xFFFFFFFF AND JUMP JUMPDEST SWAP1 POP DUP1 SWAP1 POP SWAP3 SWAP2 POP POP JUMP JUMPDEST PUSH1 0x0 PUSH2 0x1064 DUP3 DUP5 PUSH2 0x1A7D SWAP1 SWAP2 SWAP1 PUSH4 0xFFFFFFFF AND JUMP JUMPDEST SWAP1 POP DUP1 SWAP1 POP SWAP3 SWAP2 POP POP JUMP JUMPDEST PUSH1 0x0 PUSH2 0x1084 DUP3 DUP5 PUSH2 0x17ED SWAP1 SWAP2 SWAP1 PUSH4 0xFFFFFFFF AND JUMP JUMPDEST SWAP1 POP DUP1 SWAP1 POP SWAP3 SWAP2 POP POP JUMP JUMPDEST PUSH1 0x0 DUP1 DUP3 MLOAD GT ISZERO ISZERO PUSH2 0x112F JUMPI PUSH1 0x40 MLOAD PUSH32 0x8C379A000000000000000000000000000000000000000000000000000000000 DUP2 MSTORE PUSH1 0x4 ADD DUP1 DUP1 PUSH1 0x20 ADD DUP3 DUP2 SUB DUP3 MSTORE PUSH1 0x21 DUP2 MSTORE PUSH1 0x20 ADD DUP1 PUSH32 0x475245415445525F5448414E5F5A45524F5F4C454E4754485F52455155495245 DUP2 MSTORE PUSH1 0x20 ADD PUSH32 0x4400000000000000000000000000000000000000000000000000000000000000 DUP2 MSTORE POP PUSH1 0x40 ADD SWAP2 POP POP PUSH1 0x40 MLOAD DUP1 SWAP2 SUB SWAP1 REVERT JUMPDEST DUP2 PUSH1 0x1 DUP4 MLOAD SUB DUP2 MLOAD DUP2 LT ISZERO ISZERO PUSH2 0x1141 JUMPI INVALID JUMPDEST SWAP1 PUSH1 0x20 ADD ADD MLOAD PUSH32 0x100000000000000000000000000000000000000000000000000000000000000 SWAP1 DIV PUSH32 0x100000000000000000000000000000000000000000000000000000000000000 MUL SWAP1 POP PUSH1 0x1 DUP3 MLOAD SUB DUP1 DUP4 MSTORE POP DUP1 SWAP1 POP SWAP2 SWAP1 POP JUMP JUMPDEST PUSH1 0x60 PUSH1 0x0 PUSH2 0x11AD DUP5 DUP5 PUSH2 0x1A7D JUMP JUMPDEST SWAP1 POP PUSH1 0x20 DUP4 ADD SWAP3 POP DUP1 DUP4 ADD DUP5 MLOAD LT ISZERO ISZERO ISZERO PUSH2 0x1256 JUMPI PUSH1 0x40 MLOAD PUSH32 0x8C379A000000000000000000000000000000000000000000000000000000000 DUP2 MSTORE PUSH1 0x4 ADD DUP1 DUP1 PUSH1 0x20 ADD DUP3 DUP2 SUB DUP3 MSTORE PUSH1 0x30 DUP2 MSTORE PUSH1 0x20 ADD DUP1 PUSH32 0x475245415445525F4F525F455155414C5F544F5F4E45535445445F4259544553 DUP2 MSTORE PUSH1 0x20 ADD PUSH32 0x5F4C454E4754485F524551554952454400000000000000000000000000000000 DUP2 MSTORE POP PUSH1 0x40 ADD SWAP2 POP POP PUSH1 0x40 MLOAD DUP1 SWAP2 SUB SWAP1 REVERT JUMPDEST DUP3 DUP5 ADD SWAP2 POP DUP2 SWAP2 POP POP SWAP3 SWAP2 POP POP JUMP JUMPDEST PUSH1 0x0 DUP2 MLOAD SWAP1 POP DUP1 DUP4 MLOAD LT ISZERO ISZERO ISZERO PUSH2 0x130A JUMPI PUSH1 0x40 MLOAD PUSH32 0x8C379A000000000000000000000000000000000000000000000000000000000 DUP2 MSTORE PUSH1 0x4 ADD DUP1 DUP1 PUSH1 0x20 ADD DUP3 DUP2 SUB DUP3 MSTORE PUSH1 0x30 DUP2 MSTORE PUSH1 0x20 ADD DUP1 PUSH32 0x475245415445525F4F525F455155414C5F544F5F534F555243455F4259544553 DUP2 MSTORE PUSH1 0x20 ADD PUSH32 0x5F4C454E4754485F524551554952454400000000000000000000000000000000 DUP2 MSTORE POP PUSH1 0x40 ADD SWAP2 POP POP PUSH1 0x40 MLOAD DUP1 SWAP2 SUB SWAP1 REVERT JUMPDEST PUSH2 0x1325 PUSH2 0x1316 DUP5 PUSH2 0x14E9 JUMP JUMPDEST PUSH2 0x131F DUP5 PUSH2 0x14E9 JUMP JUMPDEST DUP4 PUSH2 0x14F9 JUMP JUMPDEST POP POP POP JUMP JUMPDEST PUSH1 0x14 DUP3 ADD DUP4 MLOAD LT ISZERO ISZERO ISZERO PUSH2 0x13CC JUMPI PUSH1 0x40 MLOAD PUSH32 0x8C379A000000000000000000000000000000000000000000000000000000000 DUP2 MSTORE PUSH1 0x4 ADD DUP1 DUP1 PUSH1 0x20 ADD DUP3 DUP2 SUB DUP3 MSTORE PUSH1 0x26 DUP2 MSTORE PUSH1 0x20 ADD DUP1 PUSH32 0x475245415445525F4F525F455155414C5F544F5F32305F4C454E4754485F5245 DUP2 MSTORE PUSH1 0x20 ADD PUSH32 0x5155495245440000000000000000000000000000000000000000000000000000 DUP2 MSTORE POP PUSH1 0x40 ADD SWAP2 POP POP PUSH1 0x40 MLOAD DUP1 SWAP2 SUB SWAP1 REVERT JUMPDEST PUSH1 0x14 DUP3 ADD SWAP2 POP PUSH32 0xFFFFFFFFFFFFFFFFFFFFFFFF0000000000000000000000000000000000000000 DUP3 DUP5 ADD MLOAD AND PUSH20 0xFFFFFFFFFFFFFFFFFFFFFFFFFFFFFFFFFFFFFFFF DUP3 AND SWAP2 POP DUP1 DUP3 XOR DUP4 DUP6 ADD MSTORE POP POP POP POP JUMP JUMPDEST DUP1 MLOAD PUSH1 0x20 DUP4 ADD ADD DUP4 MLOAD LT ISZERO ISZERO ISZERO PUSH2 0x14C3 JUMPI PUSH1 0x40 MLOAD PUSH32 0x8C379A000000000000000000000000000000000000000000000000000000000 DUP2 MSTORE PUSH1 0x4 ADD DUP1 DUP1 PUSH1 0x20 ADD DUP3 DUP2 SUB DUP3 MSTORE PUSH1 0x30 DUP2 MSTORE PUSH1 0x20 ADD DUP1 PUSH32 0x475245415445525F4F525F455155414C5F544F5F4E45535445445F4259544553 DUP2 MSTORE PUSH1 0x20 ADD PUSH32 0x5F4C454E4754485F524551554952454400000000000000000000000000000000 DUP2 MSTORE POP PUSH1 0x40 ADD SWAP2 POP POP PUSH1 0x40 MLOAD DUP1 SWAP2 SUB SWAP1 REVERT JUMPDEST PUSH2 0x14E4 DUP3 PUSH2 0x14D0 DUP6 PUSH2 0x14E9 JUMP JUMPDEST ADD PUSH2 0x14DA DUP4 PUSH2 0x1A98 JUMP JUMPDEST PUSH1 0x20 DUP5 MLOAD ADD PUSH2 0x14F9 JUMP JUMPDEST POP POP POP JUMP JUMPDEST PUSH1 0x0 PUSH1 0x20 DUP3 ADD SWAP1 POP DUP1 SWAP1 POP SWAP2 SWAP1 POP JUMP JUMPDEST PUSH1 0x20 DUP2 LT ISZERO PUSH2 0x1523 JUMPI PUSH1 0x1 DUP2 PUSH1 0x20 SUB PUSH2 0x100 EXP SUB DUP1 NOT DUP4 MLOAD AND DUP2 DUP6 MLOAD AND DUP1 DUP3 OR DUP7 MSTORE POP POP POP PUSH2 0x15A3 JUMP JUMPDEST DUP3 DUP3 EQ ISZERO PUSH2 0x1530 JUMPI PUSH2 0x15A4 JUMP JUMPDEST DUP3 DUP3 GT ISZERO PUSH2 0x156F JUMPI PUSH1 0x20 DUP2 SUB SWAP1 POP DUP1 DUP3 ADD DUP2 DUP5 ADD DUP2 MLOAD JUMPDEST DUP3 DUP6 LT ISZERO PUSH2 0x1564 JUMPI DUP5 MLOAD DUP7 MSTORE PUSH1 0x20 DUP6 ADD SWAP5 POP PUSH1 0x20 DUP7 ADD SWAP6 POP PUSH2 0x1547 JUMP JUMPDEST DUP1 DUP3 MSTORE POP POP POP PUSH2 0x15A2 JUMP JUMPDEST PUSH1 0x20 DUP2 SUB SWAP1 POP DUP1 DUP3 ADD DUP2 DUP5 ADD DUP4 MLOAD JUMPDEST DUP2 DUP7 SLT ISZERO PUSH2 0x159B JUMPI DUP3 MLOAD DUP3 MSTORE PUSH1 0x20 DUP4 SUB SWAP3 POP PUSH1 0x20 DUP3 SUB SWAP2 POP PUSH2 0x157E JUMP JUMPDEST DUP1 DUP7 MSTORE POP POP POP JUMPDEST JUMPDEST JUMPDEST POP POP POP JUMP JUMPDEST PUSH1 0x0 PUSH1 0x14 DUP3 ADD DUP4 MLOAD LT ISZERO ISZERO ISZERO PUSH2 0x164D JUMPI PUSH1 0x40 MLOAD PUSH32 0x8C379A000000000000000000000000000000000000000000000000000000000 DUP2 MSTORE PUSH1 0x4 ADD DUP1 DUP1 PUSH1 0x20 ADD DUP3 DUP2 SUB DUP3 MSTORE PUSH1 0x26 DUP2 MSTORE PUSH1 0x20 ADD DUP1 PUSH32 0x475245415445525F4F525F455155414C5F544F5F32305F4C454E4754485F5245 DUP2 MSTORE PUSH1 0x20 ADD PUSH32 0x5155495245440000000000000000000000000000000000000000000000000000 DUP2 MSTORE POP PUSH1 0x40 ADD SWAP2 POP POP PUSH1 0x40 MLOAD DUP1 SWAP2 SUB SWAP1 REVERT JUMPDEST PUSH1 0x14 DUP3 ADD SWAP2 POP PUSH20 0xFFFFFFFFFFFFFFFFFFFFFFFFFFFFFFFFFFFFFFFF DUP3 DUP5 ADD MLOAD AND SWAP1 POP DUP1 SWAP1 POP SWAP3 SWAP2 POP POP JUMP JUMPDEST PUSH1 0x20 DUP3 ADD DUP4 MLOAD LT ISZERO ISZERO ISZERO PUSH2 0x171A JUMPI PUSH1 0x40 MLOAD PUSH32 0x8C379A000000000000000000000000000000000000000000000000000000000 DUP2 MSTORE PUSH1 0x4 ADD DUP1 DUP1 PUSH1 0x20 ADD DUP3 DUP2 SUB DUP3 MSTORE PUSH1 0x26 DUP2 MSTORE PUSH1 0x20 ADD DUP1 PUSH32 0x475245415445525F4F525F455155414C5F544F5F33325F4C454E4754485F5245 DUP2 MSTORE PUSH1 0x20 ADD PUSH32 0x5155495245440000000000000000000000000000000000000000000000000000 DUP2 MSTORE POP PUSH1 0x40 ADD SWAP2 POP POP PUSH1 0x40 MLOAD DUP1 SWAP2 SUB SWAP1 REVERT JUMPDEST PUSH1 0x20 DUP3 ADD SWAP2 POP DUP1 DUP3 DUP5 ADD MSTORE POP POP POP JUMP JUMPDEST PUSH1 0x0 PUSH1 0x14 DUP3 MLOAD LT ISZERO ISZERO ISZERO PUSH2 0x17CC JUMPI PUSH1 0x40 MLOAD PUSH32 0x8C379A000000000000000000000000000000000000000000000000000000000 DUP2 MSTORE PUSH1 0x4 ADD DUP1 DUP1 PUSH1 0x20 ADD DUP3 DUP2 SUB DUP3 MSTORE PUSH1 0x26 DUP2 MSTORE PUSH1 0x20 ADD DUP1 PUSH32 0x475245415445525F4F525F455155414C5F544F5F32305F4C454E4754485F5245 DUP2 MSTORE PUSH1 0x20 ADD PUSH32 0x5155495245440000000000000000000000000000000000000000000000000000 DUP2 MSTORE POP PUSH1 0x40 ADD SWAP2 POP POP PUSH1 0x40 MLOAD DUP1 SWAP2 SUB SWAP1 REVERT JUMPDEST PUSH2 0x17DA DUP3 PUSH1 0x14 DUP5 MLOAD SUB PUSH2 0x15A9 JUMP JUMPDEST SWAP1 POP PUSH1 0x14 DUP3 MLOAD SUB DUP1 DUP4 MSTORE POP DUP1 SWAP1 POP SWAP2 SWAP1 POP JUMP JUMPDEST PUSH1 0x0 DUP2 MLOAD DUP4 MLOAD EQ DUP1 ISZERO PUSH2 0x18CB JUMPI POP DUP2 PUSH1 0x40 MLOAD DUP1 DUP3 DUP1 MLOAD SWAP1 PUSH1 0x20 ADD SWAP1 DUP1 DUP4 DUP4 JUMPDEST PUSH1 0x20 DUP4 LT ISZERO ISZERO PUSH2 0x1831 JUMPI DUP1 MLOAD DUP3 MSTORE PUSH1 0x20 DUP3 ADD SWAP2 POP PUSH1 0x20 DUP2 ADD SWAP1 POP PUSH1 0x20 DUP4 SUB SWAP3 POP PUSH2 0x180C JUMP JUMPDEST PUSH1 0x1 DUP4 PUSH1 0x20 SUB PUSH2 0x100 EXP SUB DUP1 NOT DUP3 MLOAD AND DUP2 DUP5 MLOAD AND DUP1 DUP3 OR DUP6 MSTORE POP POP POP POP POP POP SWAP1 POP ADD SWAP2 POP POP PUSH1 0x40 MLOAD DUP1 SWAP2 SUB SWAP1 KECCAK256 PUSH1 0x0 NOT AND DUP4 PUSH1 0x40 MLOAD DUP1 DUP3 DUP1 MLOAD SWAP1 PUSH1 0x20 ADD SWAP1 DUP1 DUP4 DUP4 JUMPDEST PUSH1 0x20 DUP4 LT ISZERO ISZERO PUSH2 0x1898 JUMPI DUP1 MLOAD DUP3 MSTORE PUSH1 0x20 DUP3 ADD SWAP2 POP PUSH1 0x20 DUP2 ADD SWAP1 POP PUSH1 0x20 DUP4 SUB SWAP3 POP PUSH2 0x1873 JUMP JUMPDEST PUSH1 0x1 DUP4 PUSH1 0x20 SUB PUSH2 0x100 EXP SUB DUP1 NOT DUP3 MLOAD AND DUP2 DUP5 MLOAD AND DUP1 DUP3 OR DUP6 MSTORE POP POP POP POP POP POP SWAP1 POP ADD SWAP2 POP POP PUSH1 0x40 MLOAD DUP1 SWAP2 SUB SWAP1 KECCAK256 PUSH1 0x0 NOT AND EQ JUMPDEST SWAP1 POP SWAP3 SWAP2 POP POP JUMP JUMPDEST PUSH2 0x18E1 DUP4 DUP4 DUP4 PUSH1 0x1 MUL PUSH2 0x1678 JUMP JUMPDEST POP POP POP JUMP JUMPDEST PUSH1 0x0 PUSH1 0x20 DUP3 ADD DUP4 MLOAD LT ISZERO ISZERO ISZERO PUSH2 0x198A JUMPI PUSH1 0x40 MLOAD PUSH32 0x8C379A000000000000000000000000000000000000000000000000000000000 DUP2 MSTORE PUSH1 0x4 ADD DUP1 DUP1 PUSH1 0x20 ADD DUP3 DUP2 SUB DUP3 MSTORE PUSH1 0x26 DUP2 MSTORE PUSH1 0x20 ADD DUP1 PUSH32 0x475245415445525F4F525F455155414C5F544F5F33325F4C454E4754485F5245 DUP2 MSTORE PUSH1 0x20 ADD PUSH32 0x5155495245440000000000000000000000000000000000000000000000000000 DUP2 MSTORE POP PUSH1 0x40 ADD SWAP2 POP POP PUSH1 0x40 MLOAD DUP1 SWAP2 SUB SWAP1 REVERT JUMPDEST PUSH1 0x20 DUP3 ADD SWAP2 POP DUP2 DUP4 ADD MLOAD SWAP1 POP DUP1 SWAP1 POP SWAP3 SWAP2 POP POP JUMP JUMPDEST PUSH1 0x0 PUSH1 0x4 DUP3 ADD DUP4 MLOAD LT ISZERO ISZERO ISZERO PUSH2 0x1A43 JUMPI PUSH1 0x40 MLOAD PUSH32 0x8C379A000000000000000000000000000000000000000000000000000000000 DUP2 MSTORE PUSH1 0x4 ADD DUP1 DUP1 PUSH1 0x20 ADD DUP3 DUP2 SUB DUP3 MSTORE PUSH1 0x25 DUP2 MSTORE PUSH1 0x20 ADD DUP1 PUSH32 0x475245415445525F4F525F455155414C5F544F5F345F4C454E4754485F524551 DUP2 MSTORE PUSH1 0x20 ADD PUSH32 0x5549524544000000000000000000000000000000000000000000000000000000 DUP2 MSTORE POP PUSH1 0x40 ADD SWAP2 POP POP PUSH1 0x40 MLOAD DUP1 SWAP2 SUB SWAP1 REVERT JUMPDEST PUSH1 0x20 DUP3 ADD SWAP2 POP DUP2 DUP4 ADD MLOAD SWAP1 POP PUSH32 0xFFFFFFFF00000000000000000000000000000000000000000000000000000000 DUP2 AND SWAP1 POP DUP1 SWAP1 POP SWAP3 SWAP2 POP POP JUMP JUMPDEST PUSH1 0x0 PUSH2 0x1A89 DUP4 DUP4 PUSH2 0x18E6 JUMP JUMPDEST PUSH1 0x1 SWAP1 DIV SWAP1 POP DUP1 SWAP1 POP SWAP3 SWAP2 POP POP JUMP JUMPDEST PUSH1 0x0 DUP2 SWAP1 POP DUP1 SWAP1 POP SWAP2 SWAP1 POP JUMP STOP LOG1 PUSH6 0x627A7A723058 KECCAK256 0xd0 0xbb 0xe 0xe6 GAS DUP16 CALLDATALOAD 0x5d GASPRICE 0xec 0x47 0xb7 0xbc TIMESTAMP CALLDATALOAD 0x27 BYTE 0xce PUSH19 0x7FB2A784DAD96E321F318A3A5E002900000000 "
			}
		}
	},
	"sourceTreeHashHex": "0x482ab7ac81df4db6d0c95c2cadec6e3926788fb0874c78f6197f51417cd93d18",
	"compiler": {
		"name": "solc",
		"version": "soljson-v0.4.24+commit.e67f0147.js",
		"settings": {
			"optimizer": {
				"enabled": false
			},
			"outputSelection": {
				"*": {
					"*": [
						"abi",
						"evm.bytecode.object"
					]
				}
			}
		}
	}
}