{
	"schemaVersion": "2.0.0",
	"contractName": "Forwarder",
	"compilerOutput": {
		"abi": [
			{
				"constant": false,
				"inputs": [
					{
						"components": [
							{
								"name": "makerAddress",
								"type": "address"
							},
							{
								"name": "takerAddress",
								"type": "address"
							},
							{
								"name": "feeRecipientAddress",
								"type": "address"
							},
							{
								"name": "senderAddress",
								"type": "address"
							},
							{
								"name": "makerAssetAmount",
								"type": "uint256"
							},
							{
								"name": "takerAssetAmount",
								"type": "uint256"
							},
							{
								"name": "makerFee",
								"type": "uint256"
							},
							{
								"name": "takerFee",
								"type": "uint256"
							},
							{
								"name": "expirationTimeSeconds",
								"type": "uint256"
							},
							{
								"name": "salt",
								"type": "uint256"
							},
							{
								"name": "makerAssetData",
								"type": "bytes"
							},
							{
								"name": "takerAssetData",
								"type": "bytes"
							}
						],
						"name": "orders",
						"type": "tuple[]"
					},
					{
						"name": "makerAssetFillAmount",
						"type": "uint256"
					},
					{
						"name": "signatures",
						"type": "bytes[]"
					},
					{
						"components": [
							{
								"name": "makerAddress",
								"type": "address"
							},
							{
								"name": "takerAddress",
								"type": "address"
							},
							{
								"name": "feeRecipientAddress",
								"type": "address"
							},
							{
								"name": "senderAddress",
								"type": "address"
							},
							{
								"name": "makerAssetAmount",
								"type": "uint256"
							},
							{
								"name": "takerAssetAmount",
								"type": "uint256"
							},
							{
								"name": "makerFee",
								"type": "uint256"
							},
							{
								"name": "takerFee",
								"type": "uint256"
							},
							{
								"name": "expirationTimeSeconds",
								"type": "uint256"
							},
							{
								"name": "salt",
								"type": "uint256"
							},
							{
								"name": "makerAssetData",
								"type": "bytes"
							},
							{
								"name": "takerAssetData",
								"type": "bytes"
							}
						],
						"name": "feeOrders",
						"type": "tuple[]"
					},
					{
						"name": "feeSignatures",
						"type": "bytes[]"
					},
					{
						"name": "feePercentage",
						"type": "uint256"
					},
					{
						"name": "feeRecipient",
						"type": "address"
					}
				],
				"name": "marketBuyOrdersWithEth",
				"outputs": [
					{
						"components": [
							{
								"name": "makerAssetFilledAmount",
								"type": "uint256"
							},
							{
								"name": "takerAssetFilledAmount",
								"type": "uint256"
							},
							{
								"name": "makerFeePaid",
								"type": "uint256"
							},
							{
								"name": "takerFeePaid",
								"type": "uint256"
							}
						],
						"name": "orderFillResults",
						"type": "tuple"
					},
					{
						"components": [
							{
								"name": "makerAssetFilledAmount",
								"type": "uint256"
							},
							{
								"name": "takerAssetFilledAmount",
								"type": "uint256"
							},
							{
								"name": "makerFeePaid",
								"type": "uint256"
							},
							{
								"name": "takerFeePaid",
								"type": "uint256"
							}
						],
						"name": "feeOrderFillResults",
						"type": "tuple"
					}
				],
				"payable": true,
				"stateMutability": "payable",
				"type": "function"
			},
			{
				"constant": false,
				"inputs": [
					{
						"name": "assetData",
						"type": "bytes"
					},
					{
						"name": "amount",
						"type": "uint256"
					}
				],
				"name": "withdrawAsset",
				"outputs": [],
				"payable": false,
				"stateMutability": "nonpayable",
				"type": "function"
			},
			{
				"constant": true,
				"inputs": [],
				"name": "owner",
				"outputs": [
					{
						"name": "",
						"type": "address"
					}
				],
				"payable": false,
				"stateMutability": "view",
				"type": "function"
			},
			{
				"constant": false,
				"inputs": [
					{
						"components": [
							{
								"name": "makerAddress",
								"type": "address"
							},
							{
								"name": "takerAddress",
								"type": "address"
							},
							{
								"name": "feeRecipientAddress",
								"type": "address"
							},
							{
								"name": "senderAddress",
								"type": "address"
							},
							{
								"name": "makerAssetAmount",
								"type": "uint256"
							},
							{
								"name": "takerAssetAmount",
								"type": "uint256"
							},
							{
								"name": "makerFee",
								"type": "uint256"
							},
							{
								"name": "takerFee",
								"type": "uint256"
							},
							{
								"name": "expirationTimeSeconds",
								"type": "uint256"
							},
							{
								"name": "salt",
								"type": "uint256"
							},
							{
								"name": "makerAssetData",
								"type": "bytes"
							},
							{
								"name": "takerAssetData",
								"type": "bytes"
							}
						],
						"name": "orders",
						"type": "tuple[]"
					},
					{
						"name": "signatures",
						"type": "bytes[]"
					},
					{
						"components": [
							{
								"name": "makerAddress",
								"type": "address"
							},
							{
								"name": "takerAddress",
								"type": "address"
							},
							{
								"name": "feeRecipientAddress",
								"type": "address"
							},
							{
								"name": "senderAddress",
								"type": "address"
							},
							{
								"name": "makerAssetAmount",
								"type": "uint256"
							},
							{
								"name": "takerAssetAmount",
								"type": "uint256"
							},
							{
								"name": "makerFee",
								"type": "uint256"
							},
							{
								"name": "takerFee",
								"type": "uint256"
							},
							{
								"name": "expirationTimeSeconds",
								"type": "uint256"
							},
							{
								"name": "salt",
								"type": "uint256"
							},
							{
								"name": "makerAssetData",
								"type": "bytes"
							},
							{
								"name": "takerAssetData",
								"type": "bytes"
							}
						],
						"name": "feeOrders",
						"type": "tuple[]"
					},
					{
						"name": "feeSignatures",
						"type": "bytes[]"
					},
					{
						"name": "feePercentage",
						"type": "uint256"
					},
					{
						"name": "feeRecipient",
						"type": "address"
					}
				],
				"name": "marketSellOrdersWithEth",
				"outputs": [
					{
						"components": [
							{
								"name": "makerAssetFilledAmount",
								"type": "uint256"
							},
							{
								"name": "takerAssetFilledAmount",
								"type": "uint256"
							},
							{
								"name": "makerFeePaid",
								"type": "uint256"
							},
							{
								"name": "takerFeePaid",
								"type": "uint256"
							}
						],
						"name": "orderFillResults",
						"type": "tuple"
					},
					{
						"components": [
							{
								"name": "makerAssetFilledAmount",
								"type": "uint256"
							},
							{
								"name": "takerAssetFilledAmount",
								"type": "uint256"
							},
							{
								"name": "makerFeePaid",
								"type": "uint256"
							},
							{
								"name": "takerFeePaid",
								"type": "uint256"
							}
						],
						"name": "feeOrderFillResults",
						"type": "tuple"
					}
				],
				"payable": true,
				"stateMutability": "payable",
				"type": "function"
			},
			{
				"constant": false,
				"inputs": [
					{
						"name": "newOwner",
						"type": "address"
					}
				],
				"name": "transferOwnership",
				"outputs": [],
				"payable": false,
				"stateMutability": "nonpayable",
				"type": "function"
			},
			{
				"inputs": [
					{
						"name": "_exchange",
						"type": "address"
					},
					{
						"name": "_zrxAssetData",
						"type": "bytes"
					},
					{
						"name": "_wethAssetData",
						"type": "bytes"
					}
				],
				"payable": false,
				"stateMutability": "nonpayable",
				"type": "constructor"
			},
			{
				"payable": true,
				"stateMutability": "payable",
				"type": "fallback"
			}
		],
		"evm": {
			"bytecode": {
				"linkReferences": {},
				"object": "0x60806040523480156200001157600080fd5b5060405162002cdb38038062002cdb83398101806040526200003791908101906200051d565b6000805433600160a060020a031991821617825560018054909116600160a060020a0386161790558251849084908490849081906200007e906004906020870190620003d0565b50825162000094906005906020860190620003d0565b50620000b0836010640100000000620018f66200036f82021704565b9150620000cd846010640100000000620018f66200036f82021704565b60028054600160a060020a03948516600160a060020a031991821617909155600380549285169290911691909117905550600154604080517f4552433230546f6b656e28616464726573732900000000000000000000000000815290519081900360130181207f6070410800000000000000000000000000000000000000000000000000000000825291909216945063607041089350620001739250906004016200068e565b602060405180830381600087803b1580156200018e57600080fd5b505af1158015620001a3573d6000803e3d6000fd5b505050506040513d601f19601f82011682018060405250620001c99190810190620004f4565b9050600160a060020a038116151562000219576040517f08c379a00000000000000000000000000000000000000000000000000000000081526004016200021090620006b0565b60405180910390fd5b6002546040517f095ea7b3000000000000000000000000000000000000000000000000000000008152600160a060020a039091169063095ea7b39062000268908490600019906004016200066f565b602060405180830381600087803b1580156200028357600080fd5b505af115801562000298573d6000803e3d6000fd5b505050506040513d601f19601f82011682018060405250620002be9190810190620005a1565b506003546040517f095ea7b3000000000000000000000000000000000000000000000000000000008152600160a060020a039091169063095ea7b3906200030e908490600019906004016200066f565b602060405180830381600087803b1580156200032957600080fd5b505af11580156200033e573d6000803e3d6000fd5b505050506040513d601f19601f82011682018060405250620003649190810190620005a1565b50505050506200077a565b600081601401835110151515620003b4576040517f08c379a000000000000000000000000000000000000000000000000000000000815260040162000210906200069e565b506014818301810151910190600160a060020a03165b92915050565b828054600181600116156101000203166002900490600052602060002090601f016020900481019282601f106200041357805160ff191683800117855562000443565b8280016001018555821562000443579182015b828111156200044357825182559160200191906001019062000426565b506200045192915062000455565b5090565b6200047291905b808211156200045157600081556001016200045c565b90565b600062000483825162000711565b9392505050565b600062000483825162000742565b6000601f82018313620004aa57600080fd5b8151620004c1620004bb82620006e9565b620006c2565b91508082526020830160208301858383011115620004de57600080fd5b620004eb83828462000747565b50505092915050565b6000602082840312156200050757600080fd5b600062000515848462000475565b949350505050565b6000806000606084860312156200053357600080fd5b600062000541868662000475565b93505060208401516001604060020a038111156200055e57600080fd5b6200056c8682870162000498565b92505060408401516001604060020a038111156200058957600080fd5b620005978682870162000498565b9150509250925092565b600060208284031215620005b457600080fd5b60006200051584846200048a565b620005cd8162000711565b82525050565b620005cd816200071d565b602681527f475245415445525f4f525f455155414c5f544f5f32305f4c454e4754485f524560208201527f5155495245440000000000000000000000000000000000000000000000000000604082015260600190565b601881527f554e524547495354455245445f41535345545f50524f58590000000000000000602082015260400190565b620005cd8162000472565b604081016200067f8285620005c2565b62000483602083018462000664565b60208101620003ca8284620005d3565b60208082528101620003ca81620005de565b60208082528101620003ca8162000634565b6040518181016001604060020a0381118282101715620006e157600080fd5b604052919050565b60006001604060020a038211156200070057600080fd5b506020601f91909101601f19160190565b600160a060020a031690565b7fffffffff000000000000000000000000000000000000000000000000000000001690565b151590565b60005b83811015620007645781810151838201526020016200074a565b8381111562000774576000848401525b50505050565b612551806200078a6000396000f30060806040526004361061006c5763ffffffff7c010000000000000000000000000000000000000000000000000000000060003504166318978e8281146100c8578063630f1e6c146100f25780638da5cb5b146101125780639395525c14610134578063f2fde38b14610147575b60025473ffffffffffffffffffffffffffffffffffffffff1633146100c6576040517f08c379a00000000000000000000000000000000000000000000000000000000081526004016100bd90612337565b60405180910390fd5b005b6100db6100d6366004611da0565b610167565b6040516100e9929190612437565b60405180910390f35b3480156100fe57600080fd5b506100c661010d366004611e9b565b6102f7565b34801561011e57600080fd5b50610127610388565b6040516100e991906122e6565b6100db610142366004611cba565b6103a4565b34801561015357600080fd5b506100c6610162366004611c94565b61050a565b61016f6119a9565b6101776119a9565b6000806101826105bb565b60048054604080516020601f60027fffffffffffffffffffffffffffffffffffffffffffffffffffffffffffffffff610100600188161502019095169490940493840181900481028201810190925282815261025c939092909183018282801561022d5780601f106102025761010080835404028352916020019161022d565b820191906000526020600020905b81548152906001019060200180831161021057829003601f168201915b50505050508c600081518110151561024157fe5b6020908102909101015161014001519063ffffffff61069616565b156102875761026c8b8b8b6107c3565b935061028084600001518560600151610acb565b90506102ae565b6102928b8b8b610b0d565b9350836060015191506102a68883896107c3565b845190935090505b6102c2846020015184602001518888610d1f565b6102e98b60008151811015156102d457fe5b90602001906020020151610140015182610f33565b505097509795505050505050565b60005473ffffffffffffffffffffffffffffffffffffffff163314610348576040517f08c379a00000000000000000000000000000000000000000000000000000000081526004016100bd906123e7565b61038383838080601f01602080910402602001604051908101604052809392919081815260200183838082843750879450610f339350505050565b505050565b60005473ffffffffffffffffffffffffffffffffffffffff1681565b6103ac6119a9565b6103b46119a9565b60008060006103c16105bb565b60048054604080516020601f60027fffffffffffffffffffffffffffffffffffffffffffffffffffffffffffffffff6101006001881615020190951694909404938401819004810282018101909252828152610441939092909183018282801561022d5780601f106102025761010080835404028352916020019161022d565b156104925761046a670de0b6b3a7640000610464670de0b6b3a76400008a61104f565b34611099565b92506104778b848c6110f1565b945061048b85600001518660600151610acb565b90506104d6565b6104ad670d2f13f7789f0000670de0b6b3a764000034611099565b92506104ba8b848c6110f1565b9450846060015191506104ce89838a6107c3565b855190945090505b6104ea856020015185602001518989610d1f565b6104fc8b60008151811015156102d457fe5b505050965096945050505050565b60005473ffffffffffffffffffffffffffffffffffffffff16331461055b576040517f08c379a00000000000000000000000000000000000000000000000000000000081526004016100bd906123e7565b73ffffffffffffffffffffffffffffffffffffffff8116156105b857600080547fffffffffffffffffffffffff00000000000000000000000000000000000000001673ffffffffffffffffffffffffffffffffffffffff83161790555b50565b600034116105f5576040517f08c379a00000000000000000000000000000000000000000000000000000000081526004016100bd90612347565b600260009054906101000a900473ffffffffffffffffffffffffffffffffffffffff1673ffffffffffffffffffffffffffffffffffffffff1663d0e30db0346040518263ffffffff167c01000000000000000000000000000000000000000000000000000000000281526004016000604051808303818588803b15801561067b57600080fd5b505af115801561068f573d6000803e3d6000fd5b5050505050565b6000815183511480156107ba5750816040518082805190602001908083835b602083106106f257805182527fffffffffffffffffffffffffffffffffffffffffffffffffffffffffffffffe090920191602091820191016106b5565b51815160209384036101000a7fffffffffffffffffffffffffffffffffffffffffffffffffffffffffffffffff0180199092169116179052604051919093018190038120885190955088945090928392508401908083835b6020831061078757805182527fffffffffffffffffffffffffffffffffffffffffffffffffffffffffffffffe0909201916020918201910161074a565b6001836020036101000a038019825116818451168082178552505050505050905001915050604051809103902060001916145b90505b92915050565b6107cb6119a9565b60608060008060008060006107de6119a9565b8a15156107ea57610abc565b6004805460408051602060026001851615610100027fffffffffffffffffffffffffffffffffffffffffffffffffffffffffffffffff0190941693909304601f8101849004840282018401909252818152929183018282801561088e5780601f106108635761010080835404028352916020019161088e565b820191906000526020600020905b81548152906001019060200180831161087157829003601f168201915b505060058054604080516020601f60027fffffffffffffffffffffffffffffffffffffffffffffffffffffffffffffffff6101006001881615020190951694909404938401819004810282018101909252828152969e509194509250840190508282801561093d5780601f106109125761010080835404028352916020019161093d565b820191906000526020600020905b81548152906001019060200180831161092057829003601f168201915b50505050509650600095508b519450600093505b838514610a8257878c8581518110151561096757fe5b6020908102909101015161014001528b5187908d908690811061098657fe5b60209081029091010151610160015261099f8b87610acb565b9250610a068c858151811015156109b257fe5b9060200190602002015160a00151610a008e878151811015156109d157fe5b90602001906020020151608001518f888151811015156109ed57fe5b9060200190602002015160e00151610acb565b85611099565b9150610a4b8c85815181101515610a1957fe5b90602001906020020151610a2e84600161104f565b8c87815181101515610a3c57fe5b90602001906020020151611295565b9050610a57898261130d565b610a6989600001518a60600151610acb565b95508a8610610a7757610a82565b600190930192610951565b8a861015610abc576040517f08c379a00000000000000000000000000000000000000000000000000000000081526004016100bd906123c7565b50505050505050509392505050565b600082821115610b07576040517f08c379a00000000000000000000000000000000000000000000000000000000081526004016100bd90612367565b50900390565b610b156119a9565b606080600080600080610b266119a9565b60008b6000815181101515610b3757fe5b6020908102919091018101516101400151600580546040805160026001841615610100027fffffffffffffffffffffffffffffffffffffffffffffffffffffffffffffffff0190931692909204601f8101869004860283018601909152808252929b5092909190830182828015610bef5780601f10610bc457610100808354040283529160200191610bef565b820191906000526020600020905b815481529060010190602001808311610bd257829003601f168201915b505050505096508b519550600094505b848614610ce557878c86815181101515610c1557fe5b6020908102909101015161014001528b5187908d9087908110610c3457fe5b6020908102909101015161016001528851610c50908c90610acb565b9350610c938c86815181101515610c6357fe5b9060200190602002015160a001518d87815181101515610c7f57fe5b906020019060200201516080015186611099565b9250610cbf8c86815181101515610ca657fe5b90602001906020020151848c88815181101515610a3c57fe5b9150610ccb898361130d565b5087518a8110610cda57610ce5565b600190940193610bff565b8a811015610abc576040517f08c379a00000000000000000000000000000000000000000000000000000000081526004016100bd906123c7565b600080808066b1a2bc2ec50000861115610d65576040517f08c379a00000000000000000000000000000000000000000000000000000000081526004016100bd906123f7565b610d6f888861104f565b935034841115610dab576040517f08c379a00000000000000000000000000000000000000000000000000000000081526004016100bd90612357565b610db53485610acb565b9250610dca86670de0b6b3a76400008a611099565b915082821115610e06576040517f08c379a00000000000000000000000000000000000000000000000000000000081526004016100bd906123d7565b6000831115610f29576002546040517f2e1a7d4d00000000000000000000000000000000000000000000000000000000815273ffffffffffffffffffffffffffffffffffffffff90911690632e1a7d4d90610e65908690600401612453565b600060405180830381600087803b158015610e7f57600080fd5b505af1158015610e93573d6000803e3d6000fd5b505050506000821115610ee55760405173ffffffffffffffffffffffffffffffffffffffff86169083156108fc029084906000818181858888f19350505050158015610ee3573d6000803e3d6000fd5b505b610eef8383610acb565b90506000811115610f2957604051339082156108fc029083906000818181858888f19350505050158015610f27573d6000803e3d6000fd5b505b5050505050505050565b6000610f45838263ffffffff61136f16565b604080517f4552433230546f6b656e28616464726573732900000000000000000000000000815290519081900360130190209091507fffffffff0000000000000000000000000000000000000000000000000000000080831691161415610fb557610fb083836113dc565b610383565b604080517f455243373231546f6b656e28616464726573732c75696e7432353629000000008152905190819003601c0190207fffffffff000000000000000000000000000000000000000000000000000000008281169116141561101d57610fb083836115ca565b6040517f08c379a00000000000000000000000000000000000000000000000000000000081526004016100bd906123a7565b60008282018381101561108e576040517f08c379a00000000000000000000000000000000000000000000000000000000081526004016100bd90612397565b8091505b5092915050565b60008083116110d4576040517f08c379a00000000000000000000000000000000000000000000000000000000081526004016100bd90612387565b6110e76110e185846116b2565b8461170d565b90505b9392505050565b6110f96119a9565b60608060008060006111096119a9565b89600081518110151561111857fe5b6020908102919091018101516101400151600580546040805160026001841615610100027fffffffffffffffffffffffffffffffffffffffffffffffffffffffffffffffff0190931692909204601f8101869004860283018601909152808252929950929091908301828280156111d05780601f106111a5576101008083540402835291602001916111d0565b820191906000526020600020905b8154815290600101906020018083116111b357829003601f168201915b5050505050945089519350600092505b82841461128857858a848151811015156111f657fe5b602090810290910101516101400152895185908b908590811061121557fe5b906020019060200201516101600181905250611235898860200151610acb565b91506112618a8481518110151561124857fe5b90602001906020020151838a86815181101515610a3c57fe5b905061126d878261130d565b6020870151891161127d57611288565b6001909201916111e0565b5050505050509392505050565b61129d6119a9565b606060006112ac868686611724565b600154815191935073ffffffffffffffffffffffffffffffffffffffff1691506080908390602082016000855af1801561130357825184526020830151602085015260408301516040850152606083015160608501525b5050509392505050565b8151815161131b919061104f565b825260208083015190820151611331919061104f565b60208301526040808301519082015161134a919061104f565b604083015260608083015190820151611363919061104f565b60609092019190915250565b6000816004018351101515156113b1576040517f08c379a00000000000000000000000000000000000000000000000000000000081526004016100bd90612417565b5001602001517fffffffff000000000000000000000000000000000000000000000000000000001690565b6000806113f084601063ffffffff6118f616565b604080517f7472616e7366657228616464726573732c75696e7432353629000000000000008152905190819003601901812091935073ffffffffffffffffffffffffffffffffffffffff8416919061144e903390879060240161231c565b604080517fffffffffffffffffffffffffffffffffffffffffffffffffffffffffffffffe08184030181529181526020820180517bffffffffffffffffffffffffffffffffffffffffffffffffffffffff167fffffffff000000000000000000000000000000000000000000000000000000009094169390931783525181519192909182919080838360005b838110156114f25781810151838201526020016114da565b50505050905090810190601f16801561151f5780820380516001836020036101000a031916815260200191505b509150506000604051808303816000865af19250505080151561156e576040517f08c379a00000000000000000000000000000000000000000000000000000000081526004016100bd906123b7565b3d1561158b575060003d6020141561158b5760206000803e506000515b8015156115c4576040517f08c379a00000000000000000000000000000000000000000000000000000000081526004016100bd906123b7565b50505050565b60008060018314611607576040517f08c379a00000000000000000000000000000000000000000000000000000000081526004016100bd90612427565b61161884601063ffffffff6118f616565b915061162b84602463ffffffff61195716565b6040517f23b872dd00000000000000000000000000000000000000000000000000000000815290915073ffffffffffffffffffffffffffffffffffffffff8316906323b872dd90611684903090339086906004016122f4565b600060405180830381600087803b15801561169e57600080fd5b505af1158015610f29573d6000803e3d6000fd5b6000808315156116c55760009150611092565b508282028284828115156116d557fe5b041461108e576040517f08c379a00000000000000000000000000000000000000000000000000000000081526004016100bd90612397565b600080828481151561171b57fe5b04949350505050565b604080517fb4be83d5000000000000000000000000000000000000000000000000000000006020808301919091526060602483018181528751608485019081528884015160a48601529488015160c48501529087015160e4840152608087015161010484015260a087015161012484015260c087015161014484015260e08701516101648401526101008701516101848401526101208701516101a4840152610140870180516101c485019081526101608901516101e4860152610180905251805161020485018190529394919384936044870192849261022489019291820191601f82010460005b8181101561182b57835185526020948501949093019260010161180d565b50505050818103610160808401919091528a0151805180835260209283019291820191601f82010460005b81811015611874578351855260209485019490930192600101611856565b50505089845250848103602093840190815288518083529093918201918981019190601f82010460005b818110156118bc57835185526020948501949093019260010161189e565b5050507fffffffffffffffffffffffffffffffffffffffffffffffffffffffffffffffe08883030188525060405250505050509392505050565b600081601401835110151515611938576040517f08c379a00000000000000000000000000000000000000000000000000000000081526004016100bd90612407565b50016014015173ffffffffffffffffffffffffffffffffffffffff1690565b60006107ba83836000816020018351101515156119a0576040517f08c379a00000000000000000000000000000000000000000000000000000000081526004016100bd90612377565b50016020015190565b608060405190810160405280600081526020016000815260200160008152602001600081525090565b60006107ba82356124ef565b6000601f820183136119ef57600080fd5b8135611a026119fd82612488565b612461565b81815260209384019390925082018360005b83811015611a405781358601611a2a8882611af0565b8452506020928301929190910190600101611a14565b5050505092915050565b6000601f82018313611a5b57600080fd5b8135611a696119fd82612488565b81815260209384019390925082018360005b83811015611a405781358601611a918882611b3f565b8452506020928301929190910190600101611a7b565b600080601f83018413611ab957600080fd5b50813567ffffffffffffffff811115611ad157600080fd5b602083019150836001820283011115611ae957600080fd5b9250929050565b6000601f82018313611b0157600080fd5b8135611b0f6119fd826124a9565b91508082526020830160208301858383011115611b2b57600080fd5b611b3683828461250b565b50505092915050565b60006101808284031215611b5257600080fd5b611b5d610180612461565b90506000611b6b84846119d2565b8252506020611b7c848483016119d2565b6020830152506040611b90848285016119d2565b6040830152506060611ba4848285016119d2565b6060830152506080611bb884828501611c88565b60808301525060a0611bcc84828501611c88565b60a08301525060c0611be084828501611c88565b60c08301525060e0611bf484828501611c88565b60e083015250610100611c0984828501611c88565b61010083015250610120611c1f84828501611c88565b6101208301525061014082013567ffffffffffffffff811115611c4157600080fd5b611c4d84828501611af0565b6101408301525061016082013567ffffffffffffffff811115611c6f57600080fd5b611c7b84828501611af0565b6101608301525092915050565b60006107ba8235612508565b600060208284031215611ca657600080fd5b6000611cb284846119d2565b949350505050565b60008060008060008060c08789031215611cd357600080fd5b863567ffffffffffffffff811115611cea57600080fd5b611cf689828a01611a4a565b965050602087013567ffffffffffffffff811115611d1357600080fd5b611d1f89828a016119de565b955050604087013567ffffffffffffffff811115611d3c57600080fd5b611d4889828a01611a4a565b945050606087013567ffffffffffffffff811115611d6557600080fd5b611d7189828a016119de565b9350506080611d8289828a01611c88565b92505060a0611d9389828a016119d2565b9150509295509295509295565b600080600080600080600060e0888a031215611dbb57600080fd5b873567ffffffffffffffff811115611dd257600080fd5b611dde8a828b01611a4a565b9750506020611def8a828b01611c88565b965050604088013567ffffffffffffffff811115611e0c57600080fd5b611e188a828b016119de565b955050606088013567ffffffffffffffff811115611e3557600080fd5b611e418a828b01611a4a565b945050608088013567ffffffffffffffff811115611e5e57600080fd5b611e6a8a828b016119de565b93505060a0611e7b8a828b01611c88565b92505060c0611e8c8a828b016119d2565b91505092959891949750929550565b600080600060408486031215611eb057600080fd5b833567ffffffffffffffff811115611ec757600080fd5b611ed386828701611aa7565b93509350506020611ee686828701611c88565b9150509250925092565b611ef9816124ef565b82525050565b602381527f44454641554c545f46554e4354494f4e5f574554485f434f4e54524143545f4f60208201527f4e4c590000000000000000000000000000000000000000000000000000000000604082015260600190565b601181527f494e56414c49445f4d53475f56414c5545000000000000000000000000000000602082015260400190565b600d81527f4f564552534f4c445f5745544800000000000000000000000000000000000000602082015260400190565b601181527f55494e543235365f554e444552464c4f57000000000000000000000000000000602082015260400190565b602681527f475245415445525f4f525f455155414c5f544f5f33325f4c454e4754485f524560208201527f5155495245440000000000000000000000000000000000000000000000000000604082015260600190565b601081527f4449564953494f4e5f42595f5a45524f00000000000000000000000000000000602082015260400190565b601081527f55494e543235365f4f564552464c4f5700000000000000000000000000000000602082015260400190565b601781527f554e535550504f525445445f41535345545f50524f5859000000000000000000602082015260400190565b600f81527f5452414e534645525f4641494c45440000000000000000000000000000000000602082015260400190565b601481527f434f4d504c4554455f46494c4c5f4641494c4544000000000000000000000000602082015260400190565b601a81527f494e53554646494349454e545f4554485f52454d41494e494e47000000000000602082015260400190565b601381527f4f4e4c595f434f4e54524143545f4f574e455200000000000000000000000000602082015260400190565b601881527f4645455f50455243454e544147455f544f4f5f4c415247450000000000000000602082015260400190565b602681527f475245415445525f4f525f455155414c5f544f5f32305f4c454e4754485f524560208201527f5155495245440000000000000000000000000000000000000000000000000000604082015260600190565b602581527f475245415445525f4f525f455155414c5f544f5f345f4c454e4754485f52455160208201527f5549524544000000000000000000000000000000000000000000000000000000604082015260600190565b600e81527f494e56414c49445f414d4f554e54000000000000000000000000000000000000602082015260400190565b805160808301906122a884826122dd565b5060208201516122bb60208501826122dd565b5060408201516122ce60408501826122dd565b5060608201516115c460608501825b611ef981612508565b602081016107bd8284611ef0565b606081016123028286611ef0565b61230f6020830185611ef0565b611cb260408301846122dd565b6040810161232a8285611ef0565b6110ea60208301846122dd565b602080825281016107bd81611eff565b602080825281016107bd81611f55565b602080825281016107bd81611f85565b602080825281016107bd81611fb5565b602080825281016107bd81611fe5565b602080825281016107bd8161203b565b602080825281016107bd8161206b565b602080825281016107bd8161209b565b602080825281016107bd816120cb565b602080825281016107bd816120fb565b602080825281016107bd8161212b565b602080825281016107bd8161215b565b602080825281016107bd8161218b565b602080825281016107bd816121bb565b602080825281016107bd81612211565b602080825281016107bd81612267565b61010081016124468285612297565b6110ea6080830184612297565b602081016107bd82846122dd565b60405181810167ffffffffffffffff8111828210171561248057600080fd5b604052919050565b600067ffffffffffffffff82111561249f57600080fd5b5060209081020190565b600067ffffffffffffffff8211156124c057600080fd5b506020601f919091017fffffffffffffffffffffffffffffffffffffffffffffffffffffffffffffffe0160190565b73ffffffffffffffffffffffffffffffffffffffff1690565b90565b828183375060009101525600a265627a7a7230582024928b81104b831c7bfabd41c4c16db0c117a490526197687dd2826c95a7d7736c6578706572696d656e74616cf50037",
				"opcodes": "PUSH1 0x80 PUSH1 0x40 MSTORE CALLVALUE DUP1 ISZERO PUSH3 0x11 JUMPI PUSH1 0x0 DUP1 REVERT JUMPDEST POP PUSH1 0x40 MLOAD PUSH3 0x2CDB CODESIZE SUB DUP1 PUSH3 0x2CDB DUP4 CODECOPY DUP2 ADD DUP1 PUSH1 0x40 MSTORE PUSH3 0x37 SWAP2 SWAP1 DUP2 ADD SWAP1 PUSH3 0x51D JUMP JUMPDEST PUSH1 0x0 DUP1 SLOAD CALLER PUSH1 0x1 PUSH1 0xA0 PUSH1 0x2 EXP SUB NOT SWAP2 DUP3 AND OR DUP3 SSTORE PUSH1 0x1 DUP1 SLOAD SWAP1 SWAP2 AND PUSH1 0x1 PUSH1 0xA0 PUSH1 0x2 EXP SUB DUP7 AND OR SWAP1 SSTORE DUP3 MLOAD DUP5 SWAP1 DUP5 SWAP1 DUP5 SWAP1 DUP5 SWAP1 DUP2 SWAP1 PUSH3 0x7E SWAP1 PUSH1 0x4 SWAP1 PUSH1 0x20 DUP8 ADD SWAP1 PUSH3 0x3D0 JUMP JUMPDEST POP DUP3 MLOAD PUSH3 0x94 SWAP1 PUSH1 0x5 SWAP1 PUSH1 0x20 DUP7 ADD SWAP1 PUSH3 0x3D0 JUMP JUMPDEST POP PUSH3 0xB0 DUP4 PUSH1 0x10 PUSH5 0x100000000 PUSH3 0x18F6 PUSH3 0x36F DUP3 MUL OR DIV JUMP JUMPDEST SWAP2 POP PUSH3 0xCD DUP5 PUSH1 0x10 PUSH5 0x100000000 PUSH3 0x18F6 PUSH3 0x36F DUP3 MUL OR DIV JUMP JUMPDEST PUSH1 0x2 DUP1 SLOAD PUSH1 0x1 PUSH1 0xA0 PUSH1 0x2 EXP SUB SWAP5 DUP6 AND PUSH1 0x1 PUSH1 0xA0 PUSH1 0x2 EXP SUB NOT SWAP2 DUP3 AND OR SWAP1 SWAP2 SSTORE PUSH1 0x3 DUP1 SLOAD SWAP3 DUP6 AND SWAP3 SWAP1 SWAP2 AND SWAP2 SWAP1 SWAP2 OR SWAP1 SSTORE POP PUSH1 0x1 SLOAD PUSH1 0x40 DUP1 MLOAD PUSH32 0x4552433230546F6B656E28616464726573732900000000000000000000000000 DUP2 MSTORE SWAP1 MLOAD SWAP1 DUP2 SWAP1 SUB PUSH1 0x13 ADD DUP2 KECCAK256 PUSH32 0x6070410800000000000000000000000000000000000000000000000000000000 DUP3 MSTORE SWAP2 SWAP1 SWAP3 AND SWAP5 POP PUSH4 0x60704108 SWAP4 POP PUSH3 0x173 SWAP3 POP SWAP1 PUSH1 0x4 ADD PUSH3 0x68E JUMP JUMPDEST PUSH1 0x20 PUSH1 0x40 MLOAD DUP1 DUP4 SUB DUP2 PUSH1 0x0 DUP8 DUP1 EXTCODESIZE ISZERO DUP1 ISZERO PUSH3 0x18E JUMPI PUSH1 0x0 DUP1 REVERT JUMPDEST POP GAS CALL ISZERO DUP1 ISZERO PUSH3 0x1A3 JUMPI RETURNDATASIZE PUSH1 0x0 DUP1 RETURNDATACOPY RETURNDATASIZE PUSH1 0x0 REVERT JUMPDEST POP POP POP POP PUSH1 0x40 MLOAD RETURNDATASIZE PUSH1 0x1F NOT PUSH1 0x1F DUP3 ADD AND DUP3 ADD DUP1 PUSH1 0x40 MSTORE POP PUSH3 0x1C9 SWAP2 SWAP1 DUP2 ADD SWAP1 PUSH3 0x4F4 JUMP JUMPDEST SWAP1 POP PUSH1 0x1 PUSH1 0xA0 PUSH1 0x2 EXP SUB DUP2 AND ISZERO ISZERO PUSH3 0x219 JUMPI PUSH1 0x40 MLOAD PUSH32 0x8C379A000000000000000000000000000000000000000000000000000000000 DUP2 MSTORE PUSH1 0x4 ADD PUSH3 0x210 SWAP1 PUSH3 0x6B0 JUMP JUMPDEST PUSH1 0x40 MLOAD DUP1 SWAP2 SUB SWAP1 REVERT JUMPDEST PUSH1 0x2 SLOAD PUSH1 0x40 MLOAD PUSH32 0x95EA7B300000000000000000000000000000000000000000000000000000000 DUP2 MSTORE PUSH1 0x1 PUSH1 0xA0 PUSH1 0x2 EXP SUB SWAP1 SWAP2 AND SWAP1 PUSH4 0x95EA7B3 SWAP1 PUSH3 0x268 SWAP1 DUP5 SWAP1 PUSH1 0x0 NOT SWAP1 PUSH1 0x4 ADD PUSH3 0x66F JUMP JUMPDEST PUSH1 0x20 PUSH1 0x40 MLOAD DUP1 DUP4 SUB DUP2 PUSH1 0x0 DUP8 DUP1 EXTCODESIZE ISZERO DUP1 ISZERO PUSH3 0x283 JUMPI PUSH1 0x0 DUP1 REVERT JUMPDEST POP GAS CALL ISZERO DUP1 ISZERO PUSH3 0x298 JUMPI RETURNDATASIZE PUSH1 0x0 DUP1 RETURNDATACOPY RETURNDATASIZE PUSH1 0x0 REVERT JUMPDEST POP POP POP POP PUSH1 0x40 MLOAD RETURNDATASIZE PUSH1 0x1F NOT PUSH1 0x1F DUP3 ADD AND DUP3 ADD DUP1 PUSH1 0x40 MSTORE POP PUSH3 0x2BE SWAP2 SWAP1 DUP2 ADD SWAP1 PUSH3 0x5A1 JUMP JUMPDEST POP PUSH1 0x3 SLOAD PUSH1 0x40 MLOAD PUSH32 0x95EA7B300000000000000000000000000000000000000000000000000000000 DUP2 MSTORE PUSH1 0x1 PUSH1 0xA0 PUSH1 0x2 EXP SUB SWAP1 SWAP2 AND SWAP1 PUSH4 0x95EA7B3 SWAP1 PUSH3 0x30E SWAP1 DUP5 SWAP1 PUSH1 0x0 NOT SWAP1 PUSH1 0x4 ADD PUSH3 0x66F JUMP JUMPDEST PUSH1 0x20 PUSH1 0x40 MLOAD DUP1 DUP4 SUB DUP2 PUSH1 0x0 DUP8 DUP1 EXTCODESIZE ISZERO DUP1 ISZERO PUSH3 0x329 JUMPI PUSH1 0x0 DUP1 REVERT JUMPDEST POP GAS CALL ISZERO DUP1 ISZERO PUSH3 0x33E JUMPI RETURNDATASIZE PUSH1 0x0 DUP1 RETURNDATACOPY RETURNDATASIZE PUSH1 0x0 REVERT JUMPDEST POP POP POP POP PUSH1 0x40 MLOAD RETURNDATASIZE PUSH1 0x1F NOT PUSH1 0x1F DUP3 ADD AND DUP3 ADD DUP1 PUSH1 0x40 MSTORE POP PUSH3 0x364 SWAP2 SWAP1 DUP2 ADD SWAP1 PUSH3 0x5A1 JUMP JUMPDEST POP POP POP POP POP PUSH3 0x77A JUMP JUMPDEST PUSH1 0x0 DUP2 PUSH1 0x14 ADD DUP4 MLOAD LT ISZERO ISZERO ISZERO PUSH3 0x3B4 JUMPI PUSH1 0x40 MLOAD PUSH32 0x8C379A000000000000000000000000000000000000000000000000000000000 DUP2 MSTORE PUSH1 0x4 ADD PUSH3 0x210 SWAP1 PUSH3 0x69E JUMP JUMPDEST POP PUSH1 0x14 DUP2 DUP4 ADD DUP2 ADD MLOAD SWAP2 ADD SWAP1 PUSH1 0x1 PUSH1 0xA0 PUSH1 0x2 EXP SUB AND JUMPDEST SWAP3 SWAP2 POP POP JUMP JUMPDEST DUP3 DUP1 SLOAD PUSH1 0x1 DUP2 PUSH1 0x1 AND ISZERO PUSH2 0x100 MUL SUB AND PUSH1 0x2 SWAP1 DIV SWAP1 PUSH1 0x0 MSTORE PUSH1 0x20 PUSH1 0x0 KECCAK256 SWAP1 PUSH1 0x1F ADD PUSH1 0x20 SWAP1 DIV DUP2 ADD SWAP3 DUP3 PUSH1 0x1F LT PUSH3 0x413 JUMPI DUP1 MLOAD PUSH1 0xFF NOT AND DUP4 DUP1 ADD OR DUP6 SSTORE PUSH3 0x443 JUMP JUMPDEST DUP3 DUP1 ADD PUSH1 0x1 ADD DUP6 SSTORE DUP3 ISZERO PUSH3 0x443 JUMPI SWAP2 DUP3 ADD JUMPDEST DUP3 DUP2 GT ISZERO PUSH3 0x443 JUMPI DUP3 MLOAD DUP3 SSTORE SWAP2 PUSH1 0x20 ADD SWAP2 SWAP1 PUSH1 0x1 ADD SWAP1 PUSH3 0x426 JUMP JUMPDEST POP PUSH3 0x451 SWAP3 SWAP2 POP PUSH3 0x455 JUMP JUMPDEST POP SWAP1 JUMP JUMPDEST PUSH3 0x472 SWAP2 SWAP1 JUMPDEST DUP1 DUP3 GT ISZERO PUSH3 0x451 JUMPI PUSH1 0x0 DUP2 SSTORE PUSH1 0x1 ADD PUSH3 0x45C JUMP JUMPDEST SWAP1 JUMP JUMPDEST PUSH1 0x0 PUSH3 0x483 DUP3 MLOAD PUSH3 0x711 JUMP JUMPDEST SWAP4 SWAP3 POP POP POP JUMP JUMPDEST PUSH1 0x0 PUSH3 0x483 DUP3 MLOAD PUSH3 0x742 JUMP JUMPDEST PUSH1 0x0 PUSH1 0x1F DUP3 ADD DUP4 SGT PUSH3 0x4AA JUMPI PUSH1 0x0 DUP1 REVERT JUMPDEST DUP2 MLOAD PUSH3 0x4C1 PUSH3 0x4BB DUP3 PUSH3 0x6E9 JUMP JUMPDEST PUSH3 0x6C2 JUMP JUMPDEST SWAP2 POP DUP1 DUP3 MSTORE PUSH1 0x20 DUP4 ADD PUSH1 0x20 DUP4 ADD DUP6 DUP4 DUP4 ADD GT ISZERO PUSH3 0x4DE JUMPI PUSH1 0x0 DUP1 REVERT JUMPDEST PUSH3 0x4EB DUP4 DUP3 DUP5 PUSH3 0x747 JUMP JUMPDEST POP POP POP SWAP3 SWAP2 POP POP JUMP JUMPDEST PUSH1 0x0 PUSH1 0x20 DUP3 DUP5 SUB SLT ISZERO PUSH3 0x507 JUMPI PUSH1 0x0 DUP1 REVERT JUMPDEST PUSH1 0x0 PUSH3 0x515 DUP5 DUP5 PUSH3 0x475 JUMP JUMPDEST SWAP5 SWAP4 POP POP POP POP JUMP JUMPDEST PUSH1 0x0 DUP1 PUSH1 0x0 PUSH1 0x60 DUP5 DUP7 SUB SLT ISZERO PUSH3 0x533 JUMPI PUSH1 0x0 DUP1 REVERT JUMPDEST PUSH1 0x0 PUSH3 0x541 DUP7 DUP7 PUSH3 0x475 JUMP JUMPDEST SWAP4 POP POP PUSH1 0x20 DUP5 ADD MLOAD PUSH1 0x1 PUSH1 0x40 PUSH1 0x2 EXP SUB DUP2 GT ISZERO PUSH3 0x55E JUMPI PUSH1 0x0 DUP1 REVERT JUMPDEST PUSH3 0x56C DUP7 DUP3 DUP8 ADD PUSH3 0x498 JUMP JUMPDEST SWAP3 POP POP PUSH1 0x40 DUP5 ADD MLOAD PUSH1 0x1 PUSH1 0x40 PUSH1 0x2 EXP SUB DUP2 GT ISZERO PUSH3 0x589 JUMPI PUSH1 0x0 DUP1 REVERT JUMPDEST PUSH3 0x597 DUP7 DUP3 DUP8 ADD PUSH3 0x498 JUMP JUMPDEST SWAP2 POP POP SWAP3 POP SWAP3 POP SWAP3 JUMP JUMPDEST PUSH1 0x0 PUSH1 0x20 DUP3 DUP5 SUB SLT ISZERO PUSH3 0x5B4 JUMPI PUSH1 0x0 DUP1 REVERT JUMPDEST PUSH1 0x0 PUSH3 0x515 DUP5 DUP5 PUSH3 0x48A JUMP JUMPDEST PUSH3 0x5CD DUP2 PUSH3 0x711 JUMP JUMPDEST DUP3 MSTORE POP POP JUMP JUMPDEST PUSH3 0x5CD DUP2 PUSH3 0x71D JUMP JUMPDEST PUSH1 0x26 DUP2 MSTORE PUSH32 0x475245415445525F4F525F455155414C5F544F5F32305F4C454E4754485F5245 PUSH1 0x20 DUP3 ADD MSTORE PUSH32 0x5155495245440000000000000000000000000000000000000000000000000000 PUSH1 0x40 DUP3 ADD MSTORE PUSH1 0x60 ADD SWAP1 JUMP JUMPDEST PUSH1 0x18 DUP2 MSTORE PUSH32 0x554E524547495354455245445F41535345545F50524F58590000000000000000 PUSH1 0x20 DUP3 ADD MSTORE PUSH1 0x40 ADD SWAP1 JUMP JUMPDEST PUSH3 0x5CD DUP2 PUSH3 0x472 JUMP JUMPDEST PUSH1 0x40 DUP2 ADD PUSH3 0x67F DUP3 DUP6 PUSH3 0x5C2 JUMP JUMPDEST PUSH3 0x483 PUSH1 0x20 DUP4 ADD DUP5 PUSH3 0x664 JUMP JUMPDEST PUSH1 0x20 DUP2 ADD PUSH3 0x3CA DUP3 DUP5 PUSH3 0x5D3 JUMP JUMPDEST PUSH1 0x20 DUP1 DUP3 MSTORE DUP2 ADD PUSH3 0x3CA DUP2 PUSH3 0x5DE JUMP JUMPDEST PUSH1 0x20 DUP1 DUP3 MSTORE DUP2 ADD PUSH3 0x3CA DUP2 PUSH3 0x634 JUMP JUMPDEST PUSH1 0x40 MLOAD DUP2 DUP2 ADD PUSH1 0x1 PUSH1 0x40 PUSH1 0x2 EXP SUB DUP2 GT DUP3 DUP3 LT OR ISZERO PUSH3 0x6E1 JUMPI PUSH1 0x0 DUP1 REVERT JUMPDEST PUSH1 0x40 MSTORE SWAP2 SWAP1 POP JUMP JUMPDEST PUSH1 0x0 PUSH1 0x1 PUSH1 0x40 PUSH1 0x2 EXP SUB DUP3 GT ISZERO PUSH3 0x700 JUMPI PUSH1 0x0 DUP1 REVERT JUMPDEST POP PUSH1 0x20 PUSH1 0x1F SWAP2 SWAP1 SWAP2 ADD PUSH1 0x1F NOT AND ADD SWAP1 JUMP JUMPDEST PUSH1 0x1 PUSH1 0xA0 PUSH1 0x2 EXP SUB AND SWAP1 JUMP JUMPDEST PUSH32 0xFFFFFFFF00000000000000000000000000000000000000000000000000000000 AND SWAP1 JUMP JUMPDEST ISZERO ISZERO SWAP1 JUMP JUMPDEST PUSH1 0x0 JUMPDEST DUP4 DUP2 LT ISZERO PUSH3 0x764 JUMPI DUP2 DUP2 ADD MLOAD DUP4 DUP3 ADD MSTORE PUSH1 0x20 ADD PUSH3 0x74A JUMP JUMPDEST DUP4 DUP2 GT ISZERO PUSH3 0x774 JUMPI PUSH1 0x0 DUP5 DUP5 ADD MSTORE JUMPDEST POP POP POP POP JUMP JUMPDEST PUSH2 0x2551 DUP1 PUSH3 0x78A PUSH1 0x0 CODECOPY PUSH1 0x0 RETURN STOP PUSH1 0x80 PUSH1 0x40 MSTORE PUSH1 0x4 CALLDATASIZE LT PUSH2 0x6C JUMPI PUSH4 0xFFFFFFFF PUSH29 0x100000000000000000000000000000000000000000000000000000000 PUSH1 0x0 CALLDATALOAD DIV AND PUSH4 0x18978E82 DUP2 EQ PUSH2 0xC8 JUMPI DUP1 PUSH4 0x630F1E6C EQ PUSH2 0xF2 JUMPI DUP1 PUSH4 0x8DA5CB5B EQ PUSH2 0x112 JUMPI DUP1 PUSH4 0x9395525C EQ PUSH2 0x134 JUMPI DUP1 PUSH4 0xF2FDE38B EQ PUSH2 0x147 JUMPI JUMPDEST PUSH1 0x2 SLOAD PUSH20 0xFFFFFFFFFFFFFFFFFFFFFFFFFFFFFFFFFFFFFFFF AND CALLER EQ PUSH2 0xC6 JUMPI PUSH1 0x40 MLOAD PUSH32 0x8C379A000000000000000000000000000000000000000000000000000000000 DUP2 MSTORE PUSH1 0x4 ADD PUSH2 0xBD SWAP1 PUSH2 0x2337 JUMP JUMPDEST PUSH1 0x40 MLOAD DUP1 SWAP2 SUB SWAP1 REVERT JUMPDEST STOP JUMPDEST PUSH2 0xDB PUSH2 0xD6 CALLDATASIZE PUSH1 0x4 PUSH2 0x1DA0 JUMP JUMPDEST PUSH2 0x167 JUMP JUMPDEST PUSH1 0x40 MLOAD PUSH2 0xE9 SWAP3 SWAP2 SWAP1 PUSH2 0x2437 JUMP JUMPDEST PUSH1 0x40 MLOAD DUP1 SWAP2 SUB SWAP1 RETURN JUMPDEST CALLVALUE DUP1 ISZERO PUSH2 0xFE JUMPI PUSH1 0x0 DUP1 REVERT JUMPDEST POP PUSH2 0xC6 PUSH2 0x10D CALLDATASIZE PUSH1 0x4 PUSH2 0x1E9B JUMP JUMPDEST PUSH2 0x2F7 JUMP JUMPDEST CALLVALUE DUP1 ISZERO PUSH2 0x11E JUMPI PUSH1 0x0 DUP1 REVERT JUMPDEST POP PUSH2 0x127 PUSH2 0x388 JUMP JUMPDEST PUSH1 0x40 MLOAD PUSH2 0xE9 SWAP2 SWAP1 PUSH2 0x22E6 JUMP JUMPDEST PUSH2 0xDB PUSH2 0x142 CALLDATASIZE PUSH1 0x4 PUSH2 0x1CBA JUMP JUMPDEST PUSH2 0x3A4 JUMP JUMPDEST CALLVALUE DUP1 ISZERO PUSH2 0x153 JUMPI PUSH1 0x0 DUP1 REVERT JUMPDEST POP PUSH2 0xC6 PUSH2 0x162 CALLDATASIZE PUSH1 0x4 PUSH2 0x1C94 JUMP JUMPDEST PUSH2 0x50A JUMP JUMPDEST PUSH2 0x16F PUSH2 0x19A9 JUMP JUMPDEST PUSH2 0x177 PUSH2 0x19A9 JUMP JUMPDEST PUSH1 0x0 DUP1 PUSH2 0x182 PUSH2 0x5BB JUMP JUMPDEST PUSH1 0x4 DUP1 SLOAD PUSH1 0x40 DUP1 MLOAD PUSH1 0x20 PUSH1 0x1F PUSH1 0x2 PUSH32 0xFFFFFFFFFFFFFFFFFFFFFFFFFFFFFFFFFFFFFFFFFFFFFFFFFFFFFFFFFFFFFFFF PUSH2 0x100 PUSH1 0x1 DUP9 AND ISZERO MUL ADD SWAP1 SWAP6 AND SWAP5 SWAP1 SWAP5 DIV SWAP4 DUP5 ADD DUP2 SWAP1 DIV DUP2 MUL DUP3 ADD DUP2 ADD SWAP1 SWAP3 MSTORE DUP3 DUP2 MSTORE PUSH2 0x25C SWAP4 SWAP1 SWAP3 SWAP1 SWAP2 DUP4 ADD DUP3 DUP3 DUP1 ISZERO PUSH2 0x22D JUMPI DUP1 PUSH1 0x1F LT PUSH2 0x202 JUMPI PUSH2 0x100 DUP1 DUP4 SLOAD DIV MUL DUP4 MSTORE SWAP2 PUSH1 0x20 ADD SWAP2 PUSH2 0x22D JUMP JUMPDEST DUP3 ADD SWAP2 SWAP1 PUSH1 0x0 MSTORE PUSH1 0x20 PUSH1 0x0 KECCAK256 SWAP1 JUMPDEST DUP2 SLOAD DUP2 MSTORE SWAP1 PUSH1 0x1 ADD SWAP1 PUSH1 0x20 ADD DUP1 DUP4 GT PUSH2 0x210 JUMPI DUP3 SWAP1 SUB PUSH1 0x1F AND DUP3 ADD SWAP2 JUMPDEST POP POP POP POP POP DUP13 PUSH1 0x0 DUP2 MLOAD DUP2 LT ISZERO ISZERO PUSH2 0x241 JUMPI INVALID JUMPDEST PUSH1 0x20 SWAP1 DUP2 MUL SWAP1 SWAP2 ADD ADD MLOAD PUSH2 0x140 ADD MLOAD SWAP1 PUSH4 0xFFFFFFFF PUSH2 0x696 AND JUMP JUMPDEST ISZERO PUSH2 0x287 JUMPI PUSH2 0x26C DUP12 DUP12 DUP12 PUSH2 0x7C3 JUMP JUMPDEST SWAP4 POP PUSH2 0x280 DUP5 PUSH1 0x0 ADD MLOAD DUP6 PUSH1 0x60 ADD MLOAD PUSH2 0xACB JUMP JUMPDEST SWAP1 POP PUSH2 0x2AE JUMP JUMPDEST PUSH2 0x292 DUP12 DUP12 DUP12 PUSH2 0xB0D JUMP JUMPDEST SWAP4 POP DUP4 PUSH1 0x60 ADD MLOAD SWAP2 POP PUSH2 0x2A6 DUP9 DUP4 DUP10 PUSH2 0x7C3 JUMP JUMPDEST DUP5 MLOAD SWAP1 SWAP4 POP SWAP1 POP JUMPDEST PUSH2 0x2C2 DUP5 PUSH1 0x20 ADD MLOAD DUP5 PUSH1 0x20 ADD MLOAD DUP9 DUP9 PUSH2 0xD1F JUMP JUMPDEST PUSH2 0x2E9 DUP12 PUSH1 0x0 DUP2 MLOAD DUP2 LT ISZERO ISZERO PUSH2 0x2D4 JUMPI INVALID JUMPDEST SWAP1 PUSH1 0x20 ADD SWAP1 PUSH1 0x20 MUL ADD MLOAD PUSH2 0x140 ADD MLOAD DUP3 PUSH2 0xF33 JUMP JUMPDEST POP POP SWAP8 POP SWAP8 SWAP6 POP POP POP POP POP POP JUMP JUMPDEST PUSH1 0x0 SLOAD PUSH20 0xFFFFFFFFFFFFFFFFFFFFFFFFFFFFFFFFFFFFFFFF AND CALLER EQ PUSH2 0x348 JUMPI PUSH1 0x40 MLOAD PUSH32 0x8C379A000000000000000000000000000000000000000000000000000000000 DUP2 MSTORE PUSH1 0x4 ADD PUSH2 0xBD SWAP1 PUSH2 0x23E7 JUMP JUMPDEST PUSH2 0x383 DUP4 DUP4 DUP1 DUP1 PUSH1 0x1F ADD PUSH1 0x20 DUP1 SWAP2 DIV MUL PUSH1 0x20 ADD PUSH1 0x40 MLOAD SWAP1 DUP2 ADD PUSH1 0x40 MSTORE DUP1 SWAP4 SWAP3 SWAP2 SWAP1 DUP2 DUP2 MSTORE PUSH1 0x20 ADD DUP4 DUP4 DUP1 DUP3 DUP5 CALLDATACOPY POP DUP8 SWAP5 POP PUSH2 0xF33 SWAP4 POP POP POP POP JUMP JUMPDEST POP POP POP JUMP JUMPDEST PUSH1 0x0 SLOAD PUSH20 0xFFFFFFFFFFFFFFFFFFFFFFFFFFFFFFFFFFFFFFFF AND DUP2 JUMP JUMPDEST PUSH2 0x3AC PUSH2 0x19A9 JUMP JUMPDEST PUSH2 0x3B4 PUSH2 0x19A9 JUMP JUMPDEST PUSH1 0x0 DUP1 PUSH1 0x0 PUSH2 0x3C1 PUSH2 0x5BB JUMP JUMPDEST PUSH1 0x4 DUP1 SLOAD PUSH1 0x40 DUP1 MLOAD PUSH1 0x20 PUSH1 0x1F PUSH1 0x2 PUSH32 0xFFFFFFFFFFFFFFFFFFFFFFFFFFFFFFFFFFFFFFFFFFFFFFFFFFFFFFFFFFFFFFFF PUSH2 0x100 PUSH1 0x1 DUP9 AND ISZERO MUL ADD SWAP1 SWAP6 AND SWAP5 SWAP1 SWAP5 DIV SWAP4 DUP5 ADD DUP2 SWAP1 DIV DUP2 MUL DUP3 ADD DUP2 ADD SWAP1 SWAP3 MSTORE DUP3 DUP2 MSTORE PUSH2 0x441 SWAP4 SWAP1 SWAP3 SWAP1 SWAP2 DUP4 ADD DUP3 DUP3 DUP1 ISZERO PUSH2 0x22D JUMPI DUP1 PUSH1 0x1F LT PUSH2 0x202 JUMPI PUSH2 0x100 DUP1 DUP4 SLOAD DIV MUL DUP4 MSTORE SWAP2 PUSH1 0x20 ADD SWAP2 PUSH2 0x22D JUMP JUMPDEST ISZERO PUSH2 0x492 JUMPI PUSH2 0x46A PUSH8 0xDE0B6B3A7640000 PUSH2 0x464 PUSH8 0xDE0B6B3A7640000 DUP11 PUSH2 0x104F JUMP JUMPDEST CALLVALUE PUSH2 0x1099 JUMP JUMPDEST SWAP3 POP PUSH2 0x477 DUP12 DUP5 DUP13 PUSH2 0x10F1 JUMP JUMPDEST SWAP5 POP PUSH2 0x48B DUP6 PUSH1 0x0 ADD MLOAD DUP7 PUSH1 0x60 ADD MLOAD PUSH2 0xACB JUMP JUMPDEST SWAP1 POP PUSH2 0x4D6 JUMP JUMPDEST PUSH2 0x4AD PUSH8 0xD2F13F7789F0000 PUSH8 0xDE0B6B3A7640000 CALLVALUE PUSH2 0x1099 JUMP JUMPDEST SWAP3 POP PUSH2 0x4BA DUP12 DUP5 DUP13 PUSH2 0x10F1 JUMP JUMPDEST SWAP5 POP DUP5 PUSH1 0x60 ADD MLOAD SWAP2 POP PUSH2 0x4CE DUP10 DUP4 DUP11 PUSH2 0x7C3 JUMP JUMPDEST DUP6 MLOAD SWAP1 SWAP5 POP SWAP1 POP JUMPDEST PUSH2 0x4EA DUP6 PUSH1 0x20 ADD MLOAD DUP6 PUSH1 0x20 ADD MLOAD DUP10 DUP10 PUSH2 0xD1F JUMP JUMPDEST PUSH2 0x4FC DUP12 PUSH1 0x0 DUP2 MLOAD DUP2 LT ISZERO ISZERO PUSH2 0x2D4 JUMPI INVALID JUMPDEST POP POP POP SWAP7 POP SWAP7 SWAP5 POP POP POP POP POP JUMP JUMPDEST PUSH1 0x0 SLOAD PUSH20 0xFFFFFFFFFFFFFFFFFFFFFFFFFFFFFFFFFFFFFFFF AND CALLER EQ PUSH2 0x55B JUMPI PUSH1 0x40 MLOAD PUSH32 0x8C379A000000000000000000000000000000000000000000000000000000000 DUP2 MSTORE PUSH1 0x4 ADD PUSH2 0xBD SWAP1 PUSH2 0x23E7 JUMP JUMPDEST PUSH20 0xFFFFFFFFFFFFFFFFFFFFFFFFFFFFFFFFFFFFFFFF DUP2 AND ISZERO PUSH2 0x5B8 JUMPI PUSH1 0x0 DUP1 SLOAD PUSH32 0xFFFFFFFFFFFFFFFFFFFFFFFF0000000000000000000000000000000000000000 AND PUSH20 0xFFFFFFFFFFFFFFFFFFFFFFFFFFFFFFFFFFFFFFFF DUP4 AND OR SWAP1 SSTORE JUMPDEST POP JUMP JUMPDEST PUSH1 0x0 CALLVALUE GT PUSH2 0x5F5 JUMPI PUSH1 0x40 MLOAD PUSH32 0x8C379A000000000000000000000000000000000000000000000000000000000 DUP2 MSTORE PUSH1 0x4 ADD PUSH2 0xBD SWAP1 PUSH2 0x2347 JUMP JUMPDEST PUSH1 0x2 PUSH1 0x0 SWAP1 SLOAD SWAP1 PUSH2 0x100 EXP SWAP1 DIV PUSH20 0xFFFFFFFFFFFFFFFFFFFFFFFFFFFFFFFFFFFFFFFF AND PUSH20 0xFFFFFFFFFFFFFFFFFFFFFFFFFFFFFFFFFFFFFFFF AND PUSH4 0xD0E30DB0 CALLVALUE PUSH1 0x40 MLOAD DUP3 PUSH4 0xFFFFFFFF AND PUSH29 0x100000000000000000000000000000000000000000000000000000000 MUL DUP2 MSTORE PUSH1 0x4 ADD PUSH1 0x0 PUSH1 0x40 MLOAD DUP1 DUP4 SUB DUP2 DUP6 DUP9 DUP1 EXTCODESIZE ISZERO DUP1 ISZERO PUSH2 0x67B JUMPI PUSH1 0x0 DUP1 REVERT JUMPDEST POP GAS CALL ISZERO DUP1 ISZERO PUSH2 0x68F JUMPI RETURNDATASIZE PUSH1 0x0 DUP1 RETURNDATACOPY RETURNDATASIZE PUSH1 0x0 REVERT JUMPDEST POP POP POP POP POP JUMP JUMPDEST PUSH1 0x0 DUP2 MLOAD DUP4 MLOAD EQ DUP1 ISZERO PUSH2 0x7BA JUMPI POP DUP2 PUSH1 0x40 MLOAD DUP1 DUP3 DUP1 MLOAD SWAP1 PUSH1 0x20 ADD SWAP1 DUP1 DUP4 DUP4 JUMPDEST PUSH1 0x20 DUP4 LT PUSH2 0x6F2 JUMPI DUP1 MLOAD DUP3 MSTORE PUSH32 0xFFFFFFFFFFFFFFFFFFFFFFFFFFFFFFFFFFFFFFFFFFFFFFFFFFFFFFFFFFFFFFE0 SWAP1 SWAP3 ADD SWAP2 PUSH1 0x20 SWAP2 DUP3 ADD SWAP2 ADD PUSH2 0x6B5 JUMP JUMPDEST MLOAD DUP2 MLOAD PUSH1 0x20 SWAP4 DUP5 SUB PUSH2 0x100 EXP PUSH32 0xFFFFFFFFFFFFFFFFFFFFFFFFFFFFFFFFFFFFFFFFFFFFFFFFFFFFFFFFFFFFFFFF ADD DUP1 NOT SWAP1 SWAP3 AND SWAP2 AND OR SWAP1 MSTORE PUSH1 0x40 MLOAD SWAP2 SWAP1 SWAP4 ADD DUP2 SWAP1 SUB DUP2 KECCAK256 DUP9 MLOAD SWAP1 SWAP6 POP DUP9 SWAP5 POP SWAP1 SWAP3 DUP4 SWAP3 POP DUP5 ADD SWAP1 DUP1 DUP4 DUP4 JUMPDEST PUSH1 0x20 DUP4 LT PUSH2 0x787 JUMPI DUP1 MLOAD DUP3 MSTORE PUSH32 0xFFFFFFFFFFFFFFFFFFFFFFFFFFFFFFFFFFFFFFFFFFFFFFFFFFFFFFFFFFFFFFE0 SWAP1 SWAP3 ADD SWAP2 PUSH1 0x20 SWAP2 DUP3 ADD SWAP2 ADD PUSH2 0x74A JUMP JUMPDEST PUSH1 0x1 DUP4 PUSH1 0x20 SUB PUSH2 0x100 EXP SUB DUP1 NOT DUP3 MLOAD AND DUP2 DUP5 MLOAD AND DUP1 DUP3 OR DUP6 MSTORE POP POP POP POP POP POP SWAP1 POP ADD SWAP2 POP POP PUSH1 0x40 MLOAD DUP1 SWAP2 SUB SWAP1 KECCAK256 PUSH1 0x0 NOT AND EQ JUMPDEST SWAP1 POP JUMPDEST SWAP3 SWAP2 POP POP JUMP JUMPDEST PUSH2 0x7CB PUSH2 0x19A9 JUMP JUMPDEST PUSH1 0x60 DUP1 PUSH1 0x0 DUP1 PUSH1 0x0 DUP1 PUSH1 0x0 PUSH2 0x7DE PUSH2 0x19A9 JUMP JUMPDEST DUP11 ISZERO ISZERO PUSH2 0x7EA JUMPI PUSH2 0xABC JUMP JUMPDEST PUSH1 0x4 DUP1 SLOAD PUSH1 0x40 DUP1 MLOAD PUSH1 0x20 PUSH1 0x2 PUSH1 0x1 DUP6 AND ISZERO PUSH2 0x100 MUL PUSH32 0xFFFFFFFFFFFFFFFFFFFFFFFFFFFFFFFFFFFFFFFFFFFFFFFFFFFFFFFFFFFFFFFF ADD SWAP1 SWAP5 AND SWAP4 SWAP1 SWAP4 DIV PUSH1 0x1F DUP2 ADD DUP5 SWAP1 DIV DUP5 MUL DUP3 ADD DUP5 ADD SWAP1 SWAP3 MSTORE DUP2 DUP2 MSTORE SWAP3 SWAP2 DUP4 ADD DUP3 DUP3 DUP1 ISZERO PUSH2 0x88E JUMPI DUP1 PUSH1 0x1F LT PUSH2 0x863 JUMPI PUSH2 0x100 DUP1 DUP4 SLOAD DIV MUL DUP4 MSTORE SWAP2 PUSH1 0x20 ADD SWAP2 PUSH2 0x88E JUMP JUMPDEST DUP3 ADD SWAP2 SWAP1 PUSH1 0x0 MSTORE PUSH1 0x20 PUSH1 0x0 KECCAK256 SWAP1 JUMPDEST DUP2 SLOAD DUP2 MSTORE SWAP1 PUSH1 0x1 ADD SWAP1 PUSH1 0x20 ADD DUP1 DUP4 GT PUSH2 0x871 JUMPI DUP3 SWAP1 SUB PUSH1 0x1F AND DUP3 ADD SWAP2 JUMPDEST POP POP PUSH1 0x5 DUP1 SLOAD PUSH1 0x40 DUP1 MLOAD PUSH1 0x20 PUSH1 0x1F PUSH1 0x2 PUSH32 0xFFFFFFFFFFFFFFFFFFFFFFFFFFFFFFFFFFFFFFFFFFFFFFFFFFFFFFFFFFFFFFFF PUSH2 0x100 PUSH1 0x1 DUP9 AND ISZERO MUL ADD SWAP1 SWAP6 AND SWAP5 SWAP1 SWAP5 DIV SWAP4 DUP5 ADD DUP2 SWAP1 DIV DUP2 MUL DUP3 ADD DUP2 ADD SWAP1 SWAP3 MSTORE DUP3 DUP2 MSTORE SWAP7 SWAP15 POP SWAP2 SWAP5 POP SWAP3 POP DUP5 ADD SWAP1 POP DUP3 DUP3 DUP1 ISZERO PUSH2 0x93D JUMPI DUP1 PUSH1 0x1F LT PUSH2 0x912 JUMPI PUSH2 0x100 DUP1 DUP4 SLOAD DIV MUL DUP4 MSTORE SWAP2 PUSH1 0x20 ADD SWAP2 PUSH2 0x93D JUMP JUMPDEST DUP3 ADD SWAP2 SWAP1 PUSH1 0x0 MSTORE PUSH1 0x20 PUSH1 0x0 KECCAK256 SWAP1 JUMPDEST DUP2 SLOAD DUP2 MSTORE SWAP1 PUSH1 0x1 ADD SWAP1 PUSH1 0x20 ADD DUP1 DUP4 GT PUSH2 0x920 JUMPI DUP3 SWAP1 SUB PUSH1 0x1F AND DUP3 ADD SWAP2 JUMPDEST POP POP POP POP POP SWAP7 POP PUSH1 0x0 SWAP6 POP DUP12 MLOAD SWAP5 POP PUSH1 0x0 SWAP4 POP JUMPDEST DUP4 DUP6 EQ PUSH2 0xA82 JUMPI DUP8 DUP13 DUP6 DUP2 MLOAD DUP2 LT ISZERO ISZERO PUSH2 0x967 JUMPI INVALID JUMPDEST PUSH1 0x20 SWAP1 DUP2 MUL SWAP1 SWAP2 ADD ADD MLOAD PUSH2 0x140 ADD MSTORE DUP12 MLOAD DUP8 SWAP1 DUP14 SWAP1 DUP7 SWAP1 DUP2 LT PUSH2 0x986 JUMPI INVALID JUMPDEST PUSH1 0x20 SWAP1 DUP2 MUL SWAP1 SWAP2 ADD ADD MLOAD PUSH2 0x160 ADD MSTORE PUSH2 0x99F DUP12 DUP8 PUSH2 0xACB JUMP JUMPDEST SWAP3 POP PUSH2 0xA06 DUP13 DUP6 DUP2 MLOAD DUP2 LT ISZERO ISZERO PUSH2 0x9B2 JUMPI INVALID JUMPDEST SWAP1 PUSH1 0x20 ADD SWAP1 PUSH1 0x20 MUL ADD MLOAD PUSH1 0xA0 ADD MLOAD PUSH2 0xA00 DUP15 DUP8 DUP2 MLOAD DUP2 LT ISZERO ISZERO PUSH2 0x9D1 JUMPI INVALID JUMPDEST SWAP1 PUSH1 0x20 ADD SWAP1 PUSH1 0x20 MUL ADD MLOAD PUSH1 0x80 ADD MLOAD DUP16 DUP9 DUP2 MLOAD DUP2 LT ISZERO ISZERO PUSH2 0x9ED JUMPI INVALID JUMPDEST SWAP1 PUSH1 0x20 ADD SWAP1 PUSH1 0x20 MUL ADD MLOAD PUSH1 0xE0 ADD MLOAD PUSH2 0xACB JUMP JUMPDEST DUP6 PUSH2 0x1099 JUMP JUMPDEST SWAP2 POP PUSH2 0xA4B DUP13 DUP6 DUP2 MLOAD DUP2 LT ISZERO ISZERO PUSH2 0xA19 JUMPI INVALID JUMPDEST SWAP1 PUSH1 0x20 ADD SWAP1 PUSH1 0x20 MUL ADD MLOAD PUSH2 0xA2E DUP5 PUSH1 0x1 PUSH2 0x104F JUMP JUMPDEST DUP13 DUP8 DUP2 MLOAD DUP2 LT ISZERO ISZERO PUSH2 0xA3C JUMPI INVALID JUMPDEST SWAP1 PUSH1 0x20 ADD SWAP1 PUSH1 0x20 MUL ADD MLOAD PUSH2 0x1295 JUMP JUMPDEST SWAP1 POP PUSH2 0xA57 DUP10 DUP3 PUSH2 0x130D JUMP JUMPDEST PUSH2 0xA69 DUP10 PUSH1 0x0 ADD MLOAD DUP11 PUSH1 0x60 ADD MLOAD PUSH2 0xACB JUMP JUMPDEST SWAP6 POP DUP11 DUP7 LT PUSH2 0xA77 JUMPI PUSH2 0xA82 JUMP JUMPDEST PUSH1 0x1 SWAP1 SWAP4 ADD SWAP3 PUSH2 0x951 JUMP JUMPDEST DUP11 DUP7 LT ISZERO PUSH2 0xABC JUMPI PUSH1 0x40 MLOAD PUSH32 0x8C379A000000000000000000000000000000000000000000000000000000000 DUP2 MSTORE PUSH1 0x4 ADD PUSH2 0xBD SWAP1 PUSH2 0x23C7 JUMP JUMPDEST POP POP POP POP POP POP POP POP SWAP4 SWAP3 POP POP POP JUMP JUMPDEST PUSH1 0x0 DUP3 DUP3 GT ISZERO PUSH2 0xB07 JUMPI PUSH1 0x40 MLOAD PUSH32 0x8C379A000000000000000000000000000000000000000000000000000000000 DUP2 MSTORE PUSH1 0x4 ADD PUSH2 0xBD SWAP1 PUSH2 0x2367 JUMP JUMPDEST POP SWAP1 SUB SWAP1 JUMP JUMPDEST PUSH2 0xB15 PUSH2 0x19A9 JUMP JUMPDEST PUSH1 0x60 DUP1 PUSH1 0x0 DUP1 PUSH1 0x0 DUP1 PUSH2 0xB26 PUSH2 0x19A9 JUMP JUMPDEST PUSH1 0x0 DUP12 PUSH1 0x0 DUP2 MLOAD DUP2 LT ISZERO ISZERO PUSH2 0xB37 JUMPI INVALID JUMPDEST PUSH1 0x20 SWAP1 DUP2 MUL SWAP2 SWAP1 SWAP2 ADD DUP2 ADD MLOAD PUSH2 0x140 ADD MLOAD PUSH1 0x5 DUP1 SLOAD PUSH1 0x40 DUP1 MLOAD PUSH1 0x2 PUSH1 0x1 DUP5 AND ISZERO PUSH2 0x100 MUL PUSH32 0xFFFFFFFFFFFFFFFFFFFFFFFFFFFFFFFFFFFFFFFFFFFFFFFFFFFFFFFFFFFFFFFF ADD SWAP1 SWAP4 AND SWAP3 SWAP1 SWAP3 DIV PUSH1 0x1F DUP2 ADD DUP7 SWAP1 DIV DUP7 MUL DUP4 ADD DUP7 ADD SWAP1 SWAP2 MSTORE DUP1 DUP3 MSTORE SWAP3 SWAP12 POP SWAP3 SWAP1 SWAP2 SWAP1 DUP4 ADD DUP3 DUP3 DUP1 ISZERO PUSH2 0xBEF JUMPI DUP1 PUSH1 0x1F LT PUSH2 0xBC4 JUMPI PUSH2 0x100 DUP1 DUP4 SLOAD DIV MUL DUP4 MSTORE SWAP2 PUSH1 0x20 ADD SWAP2 PUSH2 0xBEF JUMP JUMPDEST DUP3 ADD SWAP2 SWAP1 PUSH1 0x0 MSTORE PUSH1 0x20 PUSH1 0x0 KECCAK256 SWAP1 JUMPDEST DUP2 SLOAD DUP2 MSTORE SWAP1 PUSH1 0x1 ADD SWAP1 PUSH1 0x20 ADD DUP1 DUP4 GT PUSH2 0xBD2 JUMPI DUP3 SWAP1 SUB PUSH1 0x1F AND DUP3 ADD SWAP2 JUMPDEST POP POP POP POP POP SWAP7 POP DUP12 MLOAD SWAP6 POP PUSH1 0x0 SWAP5 POP JUMPDEST DUP5 DUP7 EQ PUSH2 0xCE5 JUMPI DUP8 DUP13 DUP7 DUP2 MLOAD DUP2 LT ISZERO ISZERO PUSH2 0xC15 JUMPI INVALID JUMPDEST PUSH1 0x20 SWAP1 DUP2 MUL SWAP1 SWAP2 ADD ADD MLOAD PUSH2 0x140 ADD MSTORE DUP12 MLOAD DUP8 SWAP1 DUP14 SWAP1 DUP8 SWAP1 DUP2 LT PUSH2 0xC34 JUMPI INVALID JUMPDEST PUSH1 0x20 SWAP1 DUP2 MUL SWAP1 SWAP2 ADD ADD MLOAD PUSH2 0x160 ADD MSTORE DUP9 MLOAD PUSH2 0xC50 SWAP1 DUP13 SWAP1 PUSH2 0xACB JUMP JUMPDEST SWAP4 POP PUSH2 0xC93 DUP13 DUP7 DUP2 MLOAD DUP2 LT ISZERO ISZERO PUSH2 0xC63 JUMPI INVALID JUMPDEST SWAP1 PUSH1 0x20 ADD SWAP1 PUSH1 0x20 MUL ADD MLOAD PUSH1 0xA0 ADD MLOAD DUP14 DUP8 DUP2 MLOAD DUP2 LT ISZERO ISZERO PUSH2 0xC7F JUMPI INVALID JUMPDEST SWAP1 PUSH1 0x20 ADD SWAP1 PUSH1 0x20 MUL ADD MLOAD PUSH1 0x80 ADD MLOAD DUP7 PUSH2 0x1099 JUMP JUMPDEST SWAP3 POP PUSH2 0xCBF DUP13 DUP7 DUP2 MLOAD DUP2 LT ISZERO ISZERO PUSH2 0xCA6 JUMPI INVALID JUMPDEST SWAP1 PUSH1 0x20 ADD SWAP1 PUSH1 0x20 MUL ADD MLOAD DUP5 DUP13 DUP9 DUP2 MLOAD DUP2 LT ISZERO ISZERO PUSH2 0xA3C JUMPI INVALID JUMPDEST SWAP2 POP PUSH2 0xCCB DUP10 DUP4 PUSH2 0x130D JUMP JUMPDEST POP DUP8 MLOAD DUP11 DUP2 LT PUSH2 0xCDA JUMPI PUSH2 0xCE5 JUMP JUMPDEST PUSH1 0x1 SWAP1 SWAP5 ADD SWAP4 PUSH2 0xBFF JUMP JUMPDEST DUP11 DUP2 LT ISZERO PUSH2 0xABC JUMPI PUSH1 0x40 MLOAD PUSH32 0x8C379A000000000000000000000000000000000000000000000000000000000 DUP2 MSTORE PUSH1 0x4 ADD PUSH2 0xBD SWAP1 PUSH2 0x23C7 JUMP JUMPDEST PUSH1 0x0 DUP1 DUP1 DUP1 PUSH7 0xB1A2BC2EC50000 DUP7 GT ISZERO PUSH2 0xD65 JUMPI PUSH1 0x40 MLOAD PUSH32 0x8C379A000000000000000000000000000000000000000000000000000000000 DUP2 MSTORE PUSH1 0x4 ADD PUSH2 0xBD SWAP1 PUSH2 0x23F7 JUMP JUMPDEST PUSH2 0xD6F DUP9 DUP9 PUSH2 0x104F JUMP JUMPDEST SWAP4 POP CALLVALUE DUP5 GT ISZERO PUSH2 0xDAB JUMPI PUSH1 0x40 MLOAD PUSH32 0x8C379A000000000000000000000000000000000000000000000000000000000 DUP2 MSTORE PUSH1 0x4 ADD PUSH2 0xBD SWAP1 PUSH2 0x2357 JUMP JUMPDEST PUSH2 0xDB5 CALLVALUE DUP6 PUSH2 0xACB JUMP JUMPDEST SWAP3 POP PUSH2 0xDCA DUP7 PUSH8 0xDE0B6B3A7640000 DUP11 PUSH2 0x1099 JUMP JUMPDEST SWAP2 POP DUP3 DUP3 GT ISZERO PUSH2 0xE06 JUMPI PUSH1 0x40 MLOAD PUSH32 0x8C379A000000000000000000000000000000000000000000000000000000000 DUP2 MSTORE PUSH1 0x4 ADD PUSH2 0xBD SWAP1 PUSH2 0x23D7 JUMP JUMPDEST PUSH1 0x0 DUP4 GT ISZERO PUSH2 0xF29 JUMPI PUSH1 0x2 SLOAD PUSH1 0x40 MLOAD PUSH32 0x2E1A7D4D00000000000000000000000000000000000000000000000000000000 DUP2 MSTORE PUSH20 0xFFFFFFFFFFFFFFFFFFFFFFFFFFFFFFFFFFFFFFFF SWAP1 SWAP2 AND SWAP1 PUSH4 0x2E1A7D4D SWAP1 PUSH2 0xE65 SWAP1 DUP7 SWAP1 PUSH1 0x4 ADD PUSH2 0x2453 JUMP JUMPDEST PUSH1 0x0 PUSH1 0x40 MLOAD DUP1 DUP4 SUB DUP2 PUSH1 0x0 DUP8 DUP1 EXTCODESIZE ISZERO DUP1 ISZERO PUSH2 0xE7F JUMPI PUSH1 0x0 DUP1 REVERT JUMPDEST POP GAS CALL ISZERO DUP1 ISZERO PUSH2 0xE93 JUMPI RETURNDATASIZE PUSH1 0x0 DUP1 RETURNDATACOPY RETURNDATASIZE PUSH1 0x0 REVERT JUMPDEST POP POP POP POP PUSH1 0x0 DUP3 GT ISZERO PUSH2 0xEE5 JUMPI PUSH1 0x40 MLOAD PUSH20 0xFFFFFFFFFFFFFFFFFFFFFFFFFFFFFFFFFFFFFFFF DUP7 AND SWAP1 DUP4 ISZERO PUSH2 0x8FC MUL SWAP1 DUP5 SWAP1 PUSH1 0x0 DUP2 DUP2 DUP2 DUP6 DUP9 DUP9 CALL SWAP4 POP POP POP POP ISZERO DUP1 ISZERO PUSH2 0xEE3 JUMPI RETURNDATASIZE PUSH1 0x0 DUP1 RETURNDATACOPY RETURNDATASIZE PUSH1 0x0 REVERT JUMPDEST POP JUMPDEST PUSH2 0xEEF DUP4 DUP4 PUSH2 0xACB JUMP JUMPDEST SWAP1 POP PUSH1 0x0 DUP2 GT ISZERO PUSH2 0xF29 JUMPI PUSH1 0x40 MLOAD CALLER SWAP1 DUP3 ISZERO PUSH2 0x8FC MUL SWAP1 DUP4 SWAP1 PUSH1 0x0 DUP2 DUP2 DUP2 DUP6 DUP9 DUP9 CALL SWAP4 POP POP POP POP ISZERO DUP1 ISZERO PUSH2 0xF27 JUMPI RETURNDATASIZE PUSH1 0x0 DUP1 RETURNDATACOPY RETURNDATASIZE PUSH1 0x0 REVERT JUMPDEST POP JUMPDEST POP POP POP POP POP POP POP POP JUMP JUMPDEST PUSH1 0x0 PUSH2 0xF45 DUP4 DUP3 PUSH4 0xFFFFFFFF PUSH2 0x136F AND JUMP JUMPDEST PUSH1 0x40 DUP1 MLOAD PUSH32 0x4552433230546F6B656E28616464726573732900000000000000000000000000 DUP2 MSTORE SWAP1 MLOAD SWAP1 DUP2 SWAP1 SUB PUSH1 0x13 ADD SWAP1 KECCAK256 SWAP1 SWAP2 POP PUSH32 0xFFFFFFFF00000000000000000000000000000000000000000000000000000000 DUP1 DUP4 AND SWAP2 AND EQ ISZERO PUSH2 0xFB5 JUMPI PUSH2 0xFB0 DUP4 DUP4 PUSH2 0x13DC JUMP JUMPDEST PUSH2 0x383 JUMP JUMPDEST PUSH1 0x40 DUP1 MLOAD PUSH32 0x455243373231546F6B656E28616464726573732C75696E743235362900000000 DUP2 MSTORE SWAP1 MLOAD SWAP1 DUP2 SWAP1 SUB PUSH1 0x1C ADD SWAP1 KECCAK256 PUSH32 0xFFFFFFFF00000000000000000000000000000000000000000000000000000000 DUP3 DUP2 AND SWAP2 AND EQ ISZERO PUSH2 0x101D JUMPI PUSH2 0xFB0 DUP4 DUP4 PUSH2 0x15CA JUMP JUMPDEST PUSH1 0x40 MLOAD PUSH32 0x8C379A000000000000000000000000000000000000000000000000000000000 DUP2 MSTORE PUSH1 0x4 ADD PUSH2 0xBD SWAP1 PUSH2 0x23A7 JUMP JUMPDEST PUSH1 0x0 DUP3 DUP3 ADD DUP4 DUP2 LT ISZERO PUSH2 0x108E JUMPI PUSH1 0x40 MLOAD PUSH32 0x8C379A000000000000000000000000000000000000000000000000000000000 DUP2 MSTORE PUSH1 0x4 ADD PUSH2 0xBD SWAP1 PUSH2 0x2397 JUMP JUMPDEST DUP1 SWAP2 POP JUMPDEST POP SWAP3 SWAP2 POP POP JUMP JUMPDEST PUSH1 0x0 DUP1 DUP4 GT PUSH2 0x10D4 JUMPI PUSH1 0x40 MLOAD PUSH32 0x8C379A000000000000000000000000000000000000000000000000000000000 DUP2 MSTORE PUSH1 0x4 ADD PUSH2 0xBD SWAP1 PUSH2 0x2387 JUMP JUMPDEST PUSH2 0x10E7 PUSH2 0x10E1 DUP6 DUP5 PUSH2 0x16B2 JUMP JUMPDEST DUP5 PUSH2 0x170D JUMP JUMPDEST SWAP1 POP JUMPDEST SWAP4 SWAP3 POP POP POP JUMP JUMPDEST PUSH2 0x10F9 PUSH2 0x19A9 JUMP JUMPDEST PUSH1 0x60 DUP1 PUSH1 0x0 DUP1 PUSH1 0x0 PUSH2 0x1109 PUSH2 0x19A9 JUMP JUMPDEST DUP10 PUSH1 0x0 DUP2 MLOAD DUP2 LT ISZERO ISZERO PUSH2 0x1118 JUMPI INVALID JUMPDEST PUSH1 0x20 SWAP1 DUP2 MUL SWAP2 SWAP1 SWAP2 ADD DUP2 ADD MLOAD PUSH2 0x140 ADD MLOAD PUSH1 0x5 DUP1 SLOAD PUSH1 0x40 DUP1 MLOAD PUSH1 0x2 PUSH1 0x1 DUP5 AND ISZERO PUSH2 0x100 MUL PUSH32 0xFFFFFFFFFFFFFFFFFFFFFFFFFFFFFFFFFFFFFFFFFFFFFFFFFFFFFFFFFFFFFFFF ADD SWAP1 SWAP4 AND SWAP3 SWAP1 SWAP3 DIV PUSH1 0x1F DUP2 ADD DUP7 SWAP1 DIV DUP7 MUL DUP4 ADD DUP7 ADD SWAP1 SWAP2 MSTORE DUP1 DUP3 MSTORE SWAP3 SWAP10 POP SWAP3 SWAP1 SWAP2 SWAP1 DUP4 ADD DUP3 DUP3 DUP1 ISZERO PUSH2 0x11D0 JUMPI DUP1 PUSH1 0x1F LT PUSH2 0x11A5 JUMPI PUSH2 0x100 DUP1 DUP4 SLOAD DIV MUL DUP4 MSTORE SWAP2 PUSH1 0x20 ADD SWAP2 PUSH2 0x11D0 JUMP JUMPDEST DUP3 ADD SWAP2 SWAP1 PUSH1 0x0 MSTORE PUSH1 0x20 PUSH1 0x0 KECCAK256 SWAP1 JUMPDEST DUP2 SLOAD DUP2 MSTORE SWAP1 PUSH1 0x1 ADD SWAP1 PUSH1 0x20 ADD DUP1 DUP4 GT PUSH2 0x11B3 JUMPI DUP3 SWAP1 SUB PUSH1 0x1F AND DUP3 ADD SWAP2 JUMPDEST POP POP POP POP POP SWAP5 POP DUP10 MLOAD SWAP4 POP PUSH1 0x0 SWAP3 POP JUMPDEST DUP3 DUP5 EQ PUSH2 0x1288 JUMPI DUP6 DUP11 DUP5 DUP2 MLOAD DUP2 LT ISZERO ISZERO PUSH2 0x11F6 JUMPI INVALID JUMPDEST PUSH1 0x20 SWAP1 DUP2 MUL SWAP1 SWAP2 ADD ADD MLOAD PUSH2 0x140 ADD MSTORE DUP10 MLOAD DUP6 SWAP1 DUP12 SWAP1 DUP6 SWAP1 DUP2 LT PUSH2 0x1215 JUMPI INVALID JUMPDEST SWAP1 PUSH1 0x20 ADD SWAP1 PUSH1 0x20 MUL ADD MLOAD PUSH2 0x160 ADD DUP2 SWAP1 MSTORE POP PUSH2 0x1235 DUP10 DUP9 PUSH1 0x20 ADD MLOAD PUSH2 0xACB JUMP JUMPDEST SWAP2 POP PUSH2 0x1261 DUP11 DUP5 DUP2 MLOAD DUP2 LT ISZERO ISZERO PUSH2 0x1248 JUMPI INVALID JUMPDEST SWAP1 PUSH1 0x20 ADD SWAP1 PUSH1 0x20 MUL ADD MLOAD DUP4 DUP11 DUP7 DUP2 MLOAD DUP2 LT ISZERO ISZERO PUSH2 0xA3C JUMPI INVALID JUMPDEST SWAP1 POP PUSH2 0x126D DUP8 DUP3 PUSH2 0x130D JUMP JUMPDEST PUSH1 0x20 DUP8 ADD MLOAD DUP10 GT PUSH2 0x127D JUMPI PUSH2 0x1288 JUMP JUMPDEST PUSH1 0x1 SWAP1 SWAP3 ADD SWAP2 PUSH2 0x11E0 JUMP JUMPDEST POP POP POP POP POP POP SWAP4 SWAP3 POP POP POP JUMP JUMPDEST PUSH2 0x129D PUSH2 0x19A9 JUMP JUMPDEST PUSH1 0x60 PUSH1 0x0 PUSH2 0x12AC DUP7 DUP7 DUP7 PUSH2 0x1724 JUMP JUMPDEST PUSH1 0x1 SLOAD DUP2 MLOAD SWAP2 SWAP4 POP PUSH20 0xFFFFFFFFFFFFFFFFFFFFFFFFFFFFFFFFFFFFFFFF AND SWAP2 POP PUSH1 0x80 SWAP1 DUP4 SWAP1 PUSH1 0x20 DUP3 ADD PUSH1 0x0 DUP6 GAS CALL DUP1 ISZERO PUSH2 0x1303 JUMPI DUP3 MLOAD DUP5 MSTORE PUSH1 0x20 DUP4 ADD MLOAD PUSH1 0x20 DUP6 ADD MSTORE PUSH1 0x40 DUP4 ADD MLOAD PUSH1 0x40 DUP6 ADD MSTORE PUSH1 0x60 DUP4 ADD MLOAD PUSH1 0x60 DUP6 ADD MSTORE JUMPDEST POP POP POP SWAP4 SWAP3 POP POP POP JUMP JUMPDEST DUP2 MLOAD DUP2 MLOAD PUSH2 0x131B SWAP2 SWAP1 PUSH2 0x104F JUMP JUMPDEST DUP3 MSTORE PUSH1 0x20 DUP1 DUP4 ADD MLOAD SWAP1 DUP3 ADD MLOAD PUSH2 0x1331 SWAP2 SWAP1 PUSH2 0x104F JUMP JUMPDEST PUSH1 0x20 DUP4 ADD MSTORE PUSH1 0x40 DUP1 DUP4 ADD MLOAD SWAP1 DUP3 ADD MLOAD PUSH2 0x134A SWAP2 SWAP1 PUSH2 0x104F JUMP JUMPDEST PUSH1 0x40 DUP4 ADD MSTORE PUSH1 0x60 DUP1 DUP4 ADD MLOAD SWAP1 DUP3 ADD MLOAD PUSH2 0x1363 SWAP2 SWAP1 PUSH2 0x104F JUMP JUMPDEST PUSH1 0x60 SWAP1 SWAP3 ADD SWAP2 SWAP1 SWAP2 MSTORE POP JUMP JUMPDEST PUSH1 0x0 DUP2 PUSH1 0x4 ADD DUP4 MLOAD LT ISZERO ISZERO ISZERO PUSH2 0x13B1 JUMPI PUSH1 0x40 MLOAD PUSH32 0x8C379A000000000000000000000000000000000000000000000000000000000 DUP2 MSTORE PUSH1 0x4 ADD PUSH2 0xBD SWAP1 PUSH2 0x2417 JUMP JUMPDEST POP ADD PUSH1 0x20 ADD MLOAD PUSH32 0xFFFFFFFF00000000000000000000000000000000000000000000000000000000 AND SWAP1 JUMP JUMPDEST PUSH1 0x0 DUP1 PUSH2 0x13F0 DUP5 PUSH1 0x10 PUSH4 0xFFFFFFFF PUSH2 0x18F6 AND JUMP JUMPDEST PUSH1 0x40 DUP1 MLOAD PUSH32 0x7472616E7366657228616464726573732C75696E743235362900000000000000 DUP2 MSTORE SWAP1 MLOAD SWAP1 DUP2 SWAP1 SUB PUSH1 0x19 ADD DUP2 KECCAK256 SWAP2 SWAP4 POP PUSH20 0xFFFFFFFFFFFFFFFFFFFFFFFFFFFFFFFFFFFFFFFF DUP5 AND SWAP2 SWAP1 PUSH2 0x144E SWAP1 CALLER SWAP1 DUP8 SWAP1 PUSH1 0x24 ADD PUSH2 0x231C JUMP JUMPDEST PUSH1 0x40 DUP1 MLOAD PUSH32 0xFFFFFFFFFFFFFFFFFFFFFFFFFFFFFFFFFFFFFFFFFFFFFFFFFFFFFFFFFFFFFFE0 DUP2 DUP5 SUB ADD DUP2 MSTORE SWAP2 DUP2 MSTORE PUSH1 0x20 DUP3 ADD DUP1 MLOAD PUSH28 0xFFFFFFFFFFFFFFFFFFFFFFFFFFFFFFFFFFFFFFFFFFFFFFFFFFFFFFFF AND PUSH32 0xFFFFFFFF00000000000000000000000000000000000000000000000000000000 SWAP1 SWAP5 AND SWAP4 SWAP1 SWAP4 OR DUP4 MSTORE MLOAD DUP2 MLOAD SWAP2 SWAP3 SWAP1 SWAP2 DUP3 SWAP2 SWAP1 DUP1 DUP4 DUP4 PUSH1 0x0 JUMPDEST DUP4 DUP2 LT ISZERO PUSH2 0x14F2 JUMPI DUP2 DUP2 ADD MLOAD DUP4 DUP3 ADD MSTORE PUSH1 0x20 ADD PUSH2 0x14DA JUMP JUMPDEST POP POP POP POP SWAP1 POP SWAP1 DUP2 ADD SWAP1 PUSH1 0x1F AND DUP1 ISZERO PUSH2 0x151F JUMPI DUP1 DUP3 SUB DUP1 MLOAD PUSH1 0x1 DUP4 PUSH1 0x20 SUB PUSH2 0x100 EXP SUB NOT AND DUP2 MSTORE PUSH1 0x20 ADD SWAP2 POP JUMPDEST POP SWAP2 POP POP PUSH1 0x0 PUSH1 0x40 MLOAD DUP1 DUP4 SUB DUP2 PUSH1 0x0 DUP7 GAS CALL SWAP3 POP POP POP DUP1 ISZERO ISZERO PUSH2 0x156E JUMPI PUSH1 0x40 MLOAD PUSH32 0x8C379A000000000000000000000000000000000000000000000000000000000 DUP2 MSTORE PUSH1 0x4 ADD PUSH2 0xBD SWAP1 PUSH2 0x23B7 JUMP JUMPDEST RETURNDATASIZE ISZERO PUSH2 0x158B JUMPI POP PUSH1 0x0 RETURNDATASIZE PUSH1 0x20 EQ ISZERO PUSH2 0x158B JUMPI PUSH1 0x20 PUSH1 0x0 DUP1 RETURNDATACOPY POP PUSH1 0x0 MLOAD JUMPDEST DUP1 ISZERO ISZERO PUSH2 0x15C4 JUMPI PUSH1 0x40 MLOAD PUSH32 0x8C379A000000000000000000000000000000000000000000000000000000000 DUP2 MSTORE PUSH1 0x4 ADD PUSH2 0xBD SWAP1 PUSH2 0x23B7 JUMP JUMPDEST POP POP POP POP JUMP JUMPDEST PUSH1 0x0 DUP1 PUSH1 0x1 DUP4 EQ PUSH2 0x1607 JUMPI PUSH1 0x40 MLOAD PUSH32 0x8C379A000000000000000000000000000000000000000000000000000000000 DUP2 MSTORE PUSH1 0x4 ADD PUSH2 0xBD SWAP1 PUSH2 0x2427 JUMP JUMPDEST PUSH2 0x1618 DUP5 PUSH1 0x10 PUSH4 0xFFFFFFFF PUSH2 0x18F6 AND JUMP JUMPDEST SWAP2 POP PUSH2 0x162B DUP5 PUSH1 0x24 PUSH4 0xFFFFFFFF PUSH2 0x1957 AND JUMP JUMPDEST PUSH1 0x40 MLOAD PUSH32 0x23B872DD00000000000000000000000000000000000000000000000000000000 DUP2 MSTORE SWAP1 SWAP2 POP PUSH20 0xFFFFFFFFFFFFFFFFFFFFFFFFFFFFFFFFFFFFFFFF DUP4 AND SWAP1 PUSH4 0x23B872DD SWAP1 PUSH2 0x1684 SWAP1 ADDRESS SWAP1 CALLER SWAP1 DUP7 SWAP1 PUSH1 0x4 ADD PUSH2 0x22F4 JUMP JUMPDEST PUSH1 0x0 PUSH1 0x40 MLOAD DUP1 DUP4 SUB DUP2 PUSH1 0x0 DUP8 DUP1 EXTCODESIZE ISZERO DUP1 ISZERO PUSH2 0x169E JUMPI PUSH1 0x0 DUP1 REVERT JUMPDEST POP GAS CALL ISZERO DUP1 ISZERO PUSH2 0xF29 JUMPI RETURNDATASIZE PUSH1 0x0 DUP1 RETURNDATACOPY RETURNDATASIZE PUSH1 0x0 REVERT JUMPDEST PUSH1 0x0 DUP1 DUP4 ISZERO ISZERO PUSH2 0x16C5 JUMPI PUSH1 0x0 SWAP2 POP PUSH2 0x1092 JUMP JUMPDEST POP DUP3 DUP3 MUL DUP3 DUP5 DUP3 DUP2 ISZERO ISZERO PUSH2 0x16D5 JUMPI INVALID JUMPDEST DIV EQ PUSH2 0x108E JUMPI PUSH1 0x40 MLOAD PUSH32 0x8C379A000000000000000000000000000000000000000000000000000000000 DUP2 MSTORE PUSH1 0x4 ADD PUSH2 0xBD SWAP1 PUSH2 0x2397 JUMP JUMPDEST PUSH1 0x0 DUP1 DUP3 DUP5 DUP2 ISZERO ISZERO PUSH2 0x171B JUMPI INVALID JUMPDEST DIV SWAP5 SWAP4 POP POP POP POP JUMP JUMPDEST PUSH1 0x40 DUP1 MLOAD PUSH32 0xB4BE83D500000000000000000000000000000000000000000000000000000000 PUSH1 0x20 DUP1 DUP4 ADD SWAP2 SWAP1 SWAP2 MSTORE PUSH1 0x60 PUSH1 0x24 DUP4 ADD DUP2 DUP2 MSTORE DUP8 MLOAD PUSH1 0x84 DUP6 ADD SWAP1 DUP2 MSTORE DUP9 DUP5 ADD MLOAD PUSH1 0xA4 DUP7 ADD MSTORE SWAP5 DUP9 ADD MLOAD PUSH1 0xC4 DUP6 ADD MSTORE SWAP1 DUP8 ADD MLOAD PUSH1 0xE4 DUP5 ADD MSTORE PUSH1 0x80 DUP8 ADD MLOAD PUSH2 0x104 DUP5 ADD MSTORE PUSH1 0xA0 DUP8 ADD MLOAD PUSH2 0x124 DUP5 ADD MSTORE PUSH1 0xC0 DUP8 ADD MLOAD PUSH2 0x144 DUP5 ADD MSTORE PUSH1 0xE0 DUP8 ADD MLOAD PUSH2 0x164 DUP5 ADD MSTORE PUSH2 0x100 DUP8 ADD MLOAD PUSH2 0x184 DUP5 ADD MSTORE PUSH2 0x120 DUP8 ADD MLOAD PUSH2 0x1A4 DUP5 ADD MSTORE PUSH2 0x140 DUP8 ADD DUP1 MLOAD PUSH2 0x1C4 DUP6 ADD SWAP1 DUP2 MSTORE PUSH2 0x160 DUP10 ADD MLOAD PUSH2 0x1E4 DUP7 ADD MSTORE PUSH2 0x180 SWAP1 MSTORE MLOAD DUP1 MLOAD PUSH2 0x204 DUP6 ADD DUP2 SWAP1 MSTORE SWAP4 SWAP5 SWAP2 SWAP4 DUP5 SWAP4 PUSH1 0x44 DUP8 ADD SWAP3 DUP5 SWAP3 PUSH2 0x224 DUP10 ADD SWAP3 SWAP2 DUP3 ADD SWAP2 PUSH1 0x1F DUP3 ADD DIV PUSH1 0x0 JUMPDEST DUP2 DUP2 LT ISZERO PUSH2 0x182B JUMPI DUP4 MLOAD DUP6 MSTORE PUSH1 0x20 SWAP5 DUP6 ADD SWAP5 SWAP1 SWAP4 ADD SWAP3 PUSH1 0x1 ADD PUSH2 0x180D JUMP JUMPDEST POP POP POP POP DUP2 DUP2 SUB PUSH2 0x160 DUP1 DUP5 ADD SWAP2 SWAP1 SWAP2 MSTORE DUP11 ADD MLOAD DUP1 MLOAD DUP1 DUP4 MSTORE PUSH1 0x20 SWAP3 DUP4 ADD SWAP3 SWAP2 DUP3 ADD SWAP2 PUSH1 0x1F DUP3 ADD DIV PUSH1 0x0 JUMPDEST DUP2 DUP2 LT ISZERO PUSH2 0x1874 JUMPI DUP4 MLOAD DUP6 MSTORE PUSH1 0x20 SWAP5 DUP6 ADD SWAP5 SWAP1 SWAP4 ADD SWAP3 PUSH1 0x1 ADD PUSH2 0x1856 JUMP JUMPDEST POP POP POP DUP10 DUP5 MSTORE POP DUP5 DUP2 SUB PUSH1 0x20 SWAP4 DUP5 ADD SWAP1 DUP2 MSTORE DUP9 MLOAD DUP1 DUP4 MSTORE SWAP1 SWAP4 SWAP2 DUP3 ADD SWAP2 DUP10 DUP2 ADD SWAP2 SWAP1 PUSH1 0x1F DUP3 ADD DIV PUSH1 0x0 JUMPDEST DUP2 DUP2 LT ISZERO PUSH2 0x18BC JUMPI DUP4 MLOAD DUP6 MSTORE PUSH1 0x20 SWAP5 DUP6 ADD SWAP5 SWAP1 SWAP4 ADD SWAP3 PUSH1 0x1 ADD PUSH2 0x189E JUMP JUMPDEST POP POP POP PUSH32 0xFFFFFFFFFFFFFFFFFFFFFFFFFFFFFFFFFFFFFFFFFFFFFFFFFFFFFFFFFFFFFFE0 DUP9 DUP4 SUB ADD DUP9 MSTORE POP PUSH1 0x40 MSTORE POP POP POP POP POP SWAP4 SWAP3 POP POP POP JUMP JUMPDEST PUSH1 0x0 DUP2 PUSH1 0x14 ADD DUP4 MLOAD LT ISZERO ISZERO ISZERO PUSH2 0x1938 JUMPI PUSH1 0x40 MLOAD PUSH32 0x8C379A000000000000000000000000000000000000000000000000000000000 DUP2 MSTORE PUSH1 0x4 ADD PUSH2 0xBD SWAP1 PUSH2 0x2407 JUMP JUMPDEST POP ADD PUSH1 0x14 ADD MLOAD PUSH20 0xFFFFFFFFFFFFFFFFFFFFFFFFFFFFFFFFFFFFFFFF AND SWAP1 JUMP JUMPDEST PUSH1 0x0 PUSH2 0x7BA DUP4 DUP4 PUSH1 0x0 DUP2 PUSH1 0x20 ADD DUP4 MLOAD LT ISZERO ISZERO ISZERO PUSH2 0x19A0 JUMPI PUSH1 0x40 MLOAD PUSH32 0x8C379A000000000000000000000000000000000000000000000000000000000 DUP2 MSTORE PUSH1 0x4 ADD PUSH2 0xBD SWAP1 PUSH2 0x2377 JUMP JUMPDEST POP ADD PUSH1 0x20 ADD MLOAD SWAP1 JUMP JUMPDEST PUSH1 0x80 PUSH1 0x40 MLOAD SWAP1 DUP2 ADD PUSH1 0x40 MSTORE DUP1 PUSH1 0x0 DUP2 MSTORE PUSH1 0x20 ADD PUSH1 0x0 DUP2 MSTORE PUSH1 0x20 ADD PUSH1 0x0 DUP2 MSTORE PUSH1 0x20 ADD PUSH1 0x0 DUP2 MSTORE POP SWAP1 JUMP JUMPDEST PUSH1 0x0 PUSH2 0x7BA DUP3 CALLDATALOAD PUSH2 0x24EF JUMP JUMPDEST PUSH1 0x0 PUSH1 0x1F DUP3 ADD DUP4 SGT PUSH2 0x19EF JUMPI PUSH1 0x0 DUP1 REVERT JUMPDEST DUP2 CALLDATALOAD PUSH2 0x1A02 PUSH2 0x19FD DUP3 PUSH2 0x2488 JUMP JUMPDEST PUSH2 0x2461 JUMP JUMPDEST DUP2 DUP2 MSTORE PUSH1 0x20 SWAP4 DUP5 ADD SWAP4 SWAP1 SWAP3 POP DUP3 ADD DUP4 PUSH1 0x0 JUMPDEST DUP4 DUP2 LT ISZERO PUSH2 0x1A40 JUMPI DUP2 CALLDATALOAD DUP7 ADD PUSH2 0x1A2A DUP9 DUP3 PUSH2 0x1AF0 JUMP JUMPDEST DUP5 MSTORE POP PUSH1 0x20 SWAP3 DUP4 ADD SWAP3 SWAP2 SWAP1 SWAP2 ADD SWAP1 PUSH1 0x1 ADD PUSH2 0x1A14 JUMP JUMPDEST POP POP POP POP SWAP3 SWAP2 POP POP JUMP JUMPDEST PUSH1 0x0 PUSH1 0x1F DUP3 ADD DUP4 SGT PUSH2 0x1A5B JUMPI PUSH1 0x0 DUP1 REVERT JUMPDEST DUP2 CALLDATALOAD PUSH2 0x1A69 PUSH2 0x19FD DUP3 PUSH2 0x2488 JUMP JUMPDEST DUP2 DUP2 MSTORE PUSH1 0x20 SWAP4 DUP5 ADD SWAP4 SWAP1 SWAP3 POP DUP3 ADD DUP4 PUSH1 0x0 JUMPDEST DUP4 DUP2 LT ISZERO PUSH2 0x1A40 JUMPI DUP2 CALLDATALOAD DUP7 ADD PUSH2 0x1A91 DUP9 DUP3 PUSH2 0x1B3F JUMP JUMPDEST DUP5 MSTORE POP PUSH1 0x20 SWAP3 DUP4 ADD SWAP3 SWAP2 SWAP1 SWAP2 ADD SWAP1 PUSH1 0x1 ADD PUSH2 0x1A7B JUMP JUMPDEST PUSH1 0x0 DUP1 PUSH1 0x1F DUP4 ADD DUP5 SGT PUSH2 0x1AB9 JUMPI PUSH1 0x0 DUP1 REVERT JUMPDEST POP DUP2 CALLDATALOAD PUSH8 0xFFFFFFFFFFFFFFFF DUP2 GT ISZERO PUSH2 0x1AD1 JUMPI PUSH1 0x0 DUP1 REVERT JUMPDEST PUSH1 0x20 DUP4 ADD SWAP2 POP DUP4 PUSH1 0x1 DUP3 MUL DUP4 ADD GT ISZERO PUSH2 0x1AE9 JUMPI PUSH1 0x0 DUP1 REVERT JUMPDEST SWAP3 POP SWAP3 SWAP1 POP JUMP JUMPDEST PUSH1 0x0 PUSH1 0x1F DUP3 ADD DUP4 SGT PUSH2 0x1B01 JUMPI PUSH1 0x0 DUP1 REVERT JUMPDEST DUP2 CALLDATALOAD PUSH2 0x1B0F PUSH2 0x19FD DUP3 PUSH2 0x24A9 JUMP JUMPDEST SWAP2 POP DUP1 DUP3 MSTORE PUSH1 0x20 DUP4 ADD PUSH1 0x20 DUP4 ADD DUP6 DUP4 DUP4 ADD GT ISZERO PUSH2 0x1B2B JUMPI PUSH1 0x0 DUP1 REVERT JUMPDEST PUSH2 0x1B36 DUP4 DUP3 DUP5 PUSH2 0x250B JUMP JUMPDEST POP POP POP SWAP3 SWAP2 POP POP JUMP JUMPDEST PUSH1 0x0 PUSH2 0x180 DUP3 DUP5 SUB SLT ISZERO PUSH2 0x1B52 JUMPI PUSH1 0x0 DUP1 REVERT JUMPDEST PUSH2 0x1B5D PUSH2 0x180 PUSH2 0x2461 JUMP JUMPDEST SWAP1 POP PUSH1 0x0 PUSH2 0x1B6B DUP5 DUP5 PUSH2 0x19D2 JUMP JUMPDEST DUP3 MSTORE POP PUSH1 0x20 PUSH2 0x1B7C DUP5 DUP5 DUP4 ADD PUSH2 0x19D2 JUMP JUMPDEST PUSH1 0x20 DUP4 ADD MSTORE POP PUSH1 0x40 PUSH2 0x1B90 DUP5 DUP3 DUP6 ADD PUSH2 0x19D2 JUMP JUMPDEST PUSH1 0x40 DUP4 ADD MSTORE POP PUSH1 0x60 PUSH2 0x1BA4 DUP5 DUP3 DUP6 ADD PUSH2 0x19D2 JUMP JUMPDEST PUSH1 0x60 DUP4 ADD MSTORE POP PUSH1 0x80 PUSH2 0x1BB8 DUP5 DUP3 DUP6 ADD PUSH2 0x1C88 JUMP JUMPDEST PUSH1 0x80 DUP4 ADD MSTORE POP PUSH1 0xA0 PUSH2 0x1BCC DUP5 DUP3 DUP6 ADD PUSH2 0x1C88 JUMP JUMPDEST PUSH1 0xA0 DUP4 ADD MSTORE POP PUSH1 0xC0 PUSH2 0x1BE0 DUP5 DUP3 DUP6 ADD PUSH2 0x1C88 JUMP JUMPDEST PUSH1 0xC0 DUP4 ADD MSTORE POP PUSH1 0xE0 PUSH2 0x1BF4 DUP5 DUP3 DUP6 ADD PUSH2 0x1C88 JUMP JUMPDEST PUSH1 0xE0 DUP4 ADD MSTORE POP PUSH2 0x100 PUSH2 0x1C09 DUP5 DUP3 DUP6 ADD PUSH2 0x1C88 JUMP JUMPDEST PUSH2 0x100 DUP4 ADD MSTORE POP PUSH2 0x120 PUSH2 0x1C1F DUP5 DUP3 DUP6 ADD PUSH2 0x1C88 JUMP JUMPDEST PUSH2 0x120 DUP4 ADD MSTORE POP PUSH2 0x140 DUP3 ADD CALLDATALOAD PUSH8 0xFFFFFFFFFFFFFFFF DUP2 GT ISZERO PUSH2 0x1C41 JUMPI PUSH1 0x0 DUP1 REVERT JUMPDEST PUSH2 0x1C4D DUP5 DUP3 DUP6 ADD PUSH2 0x1AF0 JUMP JUMPDEST PUSH2 0x140 DUP4 ADD MSTORE POP PUSH2 0x160 DUP3 ADD CALLDATALOAD PUSH8 0xFFFFFFFFFFFFFFFF DUP2 GT ISZERO PUSH2 0x1C6F JUMPI PUSH1 0x0 DUP1 REVERT JUMPDEST PUSH2 0x1C7B DUP5 DUP3 DUP6 ADD PUSH2 0x1AF0 JUMP JUMPDEST PUSH2 0x160 DUP4 ADD MSTORE POP SWAP3 SWAP2 POP POP JUMP JUMPDEST PUSH1 0x0 PUSH2 0x7BA DUP3 CALLDATALOAD PUSH2 0x2508 JUMP JUMPDEST PUSH1 0x0 PUSH1 0x20 DUP3 DUP5 SUB SLT ISZERO PUSH2 0x1CA6 JUMPI PUSH1 0x0 DUP1 REVERT JUMPDEST PUSH1 0x0 PUSH2 0x1CB2 DUP5 DUP5 PUSH2 0x19D2 JUMP JUMPDEST SWAP5 SWAP4 POP POP POP POP JUMP JUMPDEST PUSH1 0x0 DUP1 PUSH1 0x0 DUP1 PUSH1 0x0 DUP1 PUSH1 0xC0 DUP8 DUP10 SUB SLT ISZERO PUSH2 0x1CD3 JUMPI PUSH1 0x0 DUP1 REVERT JUMPDEST DUP7 CALLDATALOAD PUSH8 0xFFFFFFFFFFFFFFFF DUP2 GT ISZERO PUSH2 0x1CEA JUMPI PUSH1 0x0 DUP1 REVERT JUMPDEST PUSH2 0x1CF6 DUP10 DUP3 DUP11 ADD PUSH2 0x1A4A JUMP JUMPDEST SWAP7 POP POP PUSH1 0x20 DUP8 ADD CALLDATALOAD PUSH8 0xFFFFFFFFFFFFFFFF DUP2 GT ISZERO PUSH2 0x1D13 JUMPI PUSH1 0x0 DUP1 REVERT JUMPDEST PUSH2 0x1D1F DUP10 DUP3 DUP11 ADD PUSH2 0x19DE JUMP JUMPDEST SWAP6 POP POP PUSH1 0x40 DUP8 ADD CALLDATALOAD PUSH8 0xFFFFFFFFFFFFFFFF DUP2 GT ISZERO PUSH2 0x1D3C JUMPI PUSH1 0x0 DUP1 REVERT JUMPDEST PUSH2 0x1D48 DUP10 DUP3 DUP11 ADD PUSH2 0x1A4A JUMP JUMPDEST SWAP5 POP POP PUSH1 0x60 DUP8 ADD CALLDATALOAD PUSH8 0xFFFFFFFFFFFFFFFF DUP2 GT ISZERO PUSH2 0x1D65 JUMPI PUSH1 0x0 DUP1 REVERT JUMPDEST PUSH2 0x1D71 DUP10 DUP3 DUP11 ADD PUSH2 0x19DE JUMP JUMPDEST SWAP4 POP POP PUSH1 0x80 PUSH2 0x1D82 DUP10 DUP3 DUP11 ADD PUSH2 0x1C88 JUMP JUMPDEST SWAP3 POP POP PUSH1 0xA0 PUSH2 0x1D93 DUP10 DUP3 DUP11 ADD PUSH2 0x19D2 JUMP JUMPDEST SWAP2 POP POP SWAP3 SWAP6 POP SWAP3 SWAP6 POP SWAP3 SWAP6 JUMP JUMPDEST PUSH1 0x0 DUP1 PUSH1 0x0 DUP1 PUSH1 0x0 DUP1 PUSH1 0x0 PUSH1 0xE0 DUP9 DUP11 SUB SLT ISZERO PUSH2 0x1DBB JUMPI PUSH1 0x0 DUP1 REVERT JUMPDEST DUP8 CALLDATALOAD PUSH8 0xFFFFFFFFFFFFFFFF DUP2 GT ISZERO PUSH2 0x1DD2 JUMPI PUSH1 0x0 DUP1 REVERT JUMPDEST PUSH2 0x1DDE DUP11 DUP3 DUP12 ADD PUSH2 0x1A4A JUMP JUMPDEST SWAP8 POP POP PUSH1 0x20 PUSH2 0x1DEF DUP11 DUP3 DUP12 ADD PUSH2 0x1C88 JUMP JUMPDEST SWAP7 POP POP PUSH1 0x40 DUP9 ADD CALLDATALOAD PUSH8 0xFFFFFFFFFFFFFFFF DUP2 GT ISZERO PUSH2 0x1E0C JUMPI PUSH1 0x0 DUP1 REVERT JUMPDEST PUSH2 0x1E18 DUP11 DUP3 DUP12 ADD PUSH2 0x19DE JUMP JUMPDEST SWAP6 POP POP PUSH1 0x60 DUP9 ADD CALLDATALOAD PUSH8 0xFFFFFFFFFFFFFFFF DUP2 GT ISZERO PUSH2 0x1E35 JUMPI PUSH1 0x0 DUP1 REVERT JUMPDEST PUSH2 0x1E41 DUP11 DUP3 DUP12 ADD PUSH2 0x1A4A JUMP JUMPDEST SWAP5 POP POP PUSH1 0x80 DUP9 ADD CALLDATALOAD PUSH8 0xFFFFFFFFFFFFFFFF DUP2 GT ISZERO PUSH2 0x1E5E JUMPI PUSH1 0x0 DUP1 REVERT JUMPDEST PUSH2 0x1E6A DUP11 DUP3 DUP12 ADD PUSH2 0x19DE JUMP JUMPDEST SWAP4 POP POP PUSH1 0xA0 PUSH2 0x1E7B DUP11 DUP3 DUP12 ADD PUSH2 0x1C88 JUMP JUMPDEST SWAP3 POP POP PUSH1 0xC0 PUSH2 0x1E8C DUP11 DUP3 DUP12 ADD PUSH2 0x19D2 JUMP JUMPDEST SWAP2 POP POP SWAP3 SWAP6 SWAP9 SWAP2 SWAP5 SWAP8 POP SWAP3 SWAP6 POP JUMP JUMPDEST PUSH1 0x0 DUP1 PUSH1 0x0 PUSH1 0x40 DUP5 DUP7 SUB SLT ISZERO PUSH2 0x1EB0 JUMPI PUSH1 0x0 DUP1 REVERT JUMPDEST DUP4 CALLDATALOAD PUSH8 0xFFFFFFFFFFFFFFFF DUP2 GT ISZERO PUSH2 0x1EC7 JUMPI PUSH1 0x0 DUP1 REVERT JUMPDEST PUSH2 0x1ED3 DUP7 DUP3 DUP8 ADD PUSH2 0x1AA7 JUMP JUMPDEST SWAP4 POP SWAP4 POP POP PUSH1 0x20 PUSH2 0x1EE6 DUP7 DUP3 DUP8 ADD PUSH2 0x1C88 JUMP JUMPDEST SWAP2 POP POP SWAP3 POP SWAP3 POP SWAP3 JUMP JUMPDEST PUSH2 0x1EF9 DUP2 PUSH2 0x24EF JUMP JUMPDEST DUP3 MSTORE POP POP JUMP JUMPDEST PUSH1 0x23 DUP2 MSTORE PUSH32 0x44454641554C545F46554E4354494F4E5F574554485F434F4E54524143545F4F PUSH1 0x20 DUP3 ADD MSTORE PUSH32 0x4E4C590000000000000000000000000000000000000000000000000000000000 PUSH1 0x40 DUP3 ADD MSTORE PUSH1 0x60 ADD SWAP1 JUMP JUMPDEST PUSH1 0x11 DUP2 MSTORE PUSH32 0x494E56414C49445F4D53475F56414C5545000000000000000000000000000000 PUSH1 0x20 DUP3 ADD MSTORE PUSH1 0x40 ADD SWAP1 JUMP JUMPDEST PUSH1 0xD DUP2 MSTORE PUSH32 0x4F564552534F4C445F5745544800000000000000000000000000000000000000 PUSH1 0x20 DUP3 ADD MSTORE PUSH1 0x40 ADD SWAP1 JUMP JUMPDEST PUSH1 0x11 DUP2 MSTORE PUSH32 0x55494E543235365F554E444552464C4F57000000000000000000000000000000 PUSH1 0x20 DUP3 ADD MSTORE PUSH1 0x40 ADD SWAP1 JUMP JUMPDEST PUSH1 0x26 DUP2 MSTORE PUSH32 0x475245415445525F4F525F455155414C5F544F5F33325F4C454E4754485F5245 PUSH1 0x20 DUP3 ADD MSTORE PUSH32 0x5155495245440000000000000000000000000000000000000000000000000000 PUSH1 0x40 DUP3 ADD MSTORE PUSH1 0x60 ADD SWAP1 JUMP JUMPDEST PUSH1 0x10 DUP2 MSTORE PUSH32 0x4449564953494F4E5F42595F5A45524F00000000000000000000000000000000 PUSH1 0x20 DUP3 ADD MSTORE PUSH1 0x40 ADD SWAP1 JUMP JUMPDEST PUSH1 0x10 DUP2 MSTORE PUSH32 0x55494E543235365F4F564552464C4F5700000000000000000000000000000000 PUSH1 0x20 DUP3 ADD MSTORE PUSH1 0x40 ADD SWAP1 JUMP JUMPDEST PUSH1 0x17 DUP2 MSTORE PUSH32 0x554E535550504F525445445F41535345545F50524F5859000000000000000000 PUSH1 0x20 DUP3 ADD MSTORE PUSH1 0x40 ADD SWAP1 JUMP JUMPDEST PUSH1 0xF DUP2 MSTORE PUSH32 0x5452414E534645525F4641494C45440000000000000000000000000000000000 PUSH1 0x20 DUP3 ADD MSTORE PUSH1 0x40 ADD SWAP1 JUMP JUMPDEST PUSH1 0x14 DUP2 MSTORE PUSH32 0x434F4D504C4554455F46494C4C5F4641494C4544000000000000000000000000 PUSH1 0x20 DUP3 ADD MSTORE PUSH1 0x40 ADD SWAP1 JUMP JUMPDEST PUSH1 0x1A DUP2 MSTORE PUSH32 0x494E53554646494349454E545F4554485F52454D41494E494E47000000000000 PUSH1 0x20 DUP3 ADD MSTORE PUSH1 0x40 ADD SWAP1 JUMP JUMPDEST PUSH1 0x13 DUP2 MSTORE PUSH32 0x4F4E4C595F434F4E54524143545F4F574E455200000000000000000000000000 PUSH1 0x20 DUP3 ADD MSTORE PUSH1 0x40 ADD SWAP1 JUMP JUMPDEST PUSH1 0x18 DUP2 MSTORE PUSH32 0x4645455F50455243454E544147455F544F4F5F4C415247450000000000000000 PUSH1 0x20 DUP3 ADD MSTORE PUSH1 0x40 ADD SWAP1 JUMP JUMPDEST PUSH1 0x26 DUP2 MSTORE PUSH32 0x475245415445525F4F525F455155414C5F544F5F32305F4C454E4754485F5245 PUSH1 0x20 DUP3 ADD MSTORE PUSH32 0x5155495245440000000000000000000000000000000000000000000000000000 PUSH1 0x40 DUP3 ADD MSTORE PUSH1 0x60 ADD SWAP1 JUMP JUMPDEST PUSH1 0x25 DUP2 MSTORE PUSH32 0x475245415445525F4F525F455155414C5F544F5F345F4C454E4754485F524551 PUSH1 0x20 DUP3 ADD MSTORE PUSH32 0x5549524544000000000000000000000000000000000000000000000000000000 PUSH1 0x40 DUP3 ADD MSTORE PUSH1 0x60 ADD SWAP1 JUMP JUMPDEST PUSH1 0xE DUP2 MSTORE PUSH32 0x494E56414C49445F414D4F554E54000000000000000000000000000000000000 PUSH1 0x20 DUP3 ADD MSTORE PUSH1 0x40 ADD SWAP1 JUMP JUMPDEST DUP1 MLOAD PUSH1 0x80 DUP4 ADD SWAP1 PUSH2 0x22A8 DUP5 DUP3 PUSH2 0x22DD JUMP JUMPDEST POP PUSH1 0x20 DUP3 ADD MLOAD PUSH2 0x22BB PUSH1 0x20 DUP6 ADD DUP3 PUSH2 0x22DD JUMP JUMPDEST POP PUSH1 0x40 DUP3 ADD MLOAD PUSH2 0x22CE PUSH1 0x40 DUP6 ADD DUP3 PUSH2 0x22DD JUMP JUMPDEST POP PUSH1 0x60 DUP3 ADD MLOAD PUSH2 0x15C4 PUSH1 0x60 DUP6 ADD DUP3 JUMPDEST PUSH2 0x1EF9 DUP2 PUSH2 0x2508 JUMP JUMPDEST PUSH1 0x20 DUP2 ADD PUSH2 0x7BD DUP3 DUP5 PUSH2 0x1EF0 JUMP JUMPDEST PUSH1 0x60 DUP2 ADD PUSH2 0x2302 DUP3 DUP7 PUSH2 0x1EF0 JUMP JUMPDEST PUSH2 0x230F PUSH1 0x20 DUP4 ADD DUP6 PUSH2 0x1EF0 JUMP JUMPDEST PUSH2 0x1CB2 PUSH1 0x40 DUP4 ADD DUP5 PUSH2 0x22DD JUMP JUMPDEST PUSH1 0x40 DUP2 ADD PUSH2 0x232A DUP3 DUP6 PUSH2 0x1EF0 JUMP JUMPDEST PUSH2 0x10EA PUSH1 0x20 DUP4 ADD DUP5 PUSH2 0x22DD JUMP JUMPDEST PUSH1 0x20 DUP1 DUP3 MSTORE DUP2 ADD PUSH2 0x7BD DUP2 PUSH2 0x1EFF JUMP JUMPDEST PUSH1 0x20 DUP1 DUP3 MSTORE DUP2 ADD PUSH2 0x7BD DUP2 PUSH2 0x1F55 JUMP JUMPDEST PUSH1 0x20 DUP1 DUP3 MSTORE DUP2 ADD PUSH2 0x7BD DUP2 PUSH2 0x1F85 JUMP JUMPDEST PUSH1 0x20 DUP1 DUP3 MSTORE DUP2 ADD PUSH2 0x7BD DUP2 PUSH2 0x1FB5 JUMP JUMPDEST PUSH1 0x20 DUP1 DUP3 MSTORE DUP2 ADD PUSH2 0x7BD DUP2 PUSH2 0x1FE5 JUMP JUMPDEST PUSH1 0x20 DUP1 DUP3 MSTORE DUP2 ADD PUSH2 0x7BD DUP2 PUSH2 0x203B JUMP JUMPDEST PUSH1 0x20 DUP1 DUP3 MSTORE DUP2 ADD PUSH2 0x7BD DUP2 PUSH2 0x206B JUMP JUMPDEST PUSH1 0x20 DUP1 DUP3 MSTORE DUP2 ADD PUSH2 0x7BD DUP2 PUSH2 0x209B JUMP JUMPDEST PUSH1 0x20 DUP1 DUP3 MSTORE DUP2 ADD PUSH2 0x7BD DUP2 PUSH2 0x20CB JUMP JUMPDEST PUSH1 0x20 DUP1 DUP3 MSTORE DUP2 ADD PUSH2 0x7BD DUP2 PUSH2 0x20FB JUMP JUMPDEST PUSH1 0x20 DUP1 DUP3 MSTORE DUP2 ADD PUSH2 0x7BD DUP2 PUSH2 0x212B JUMP JUMPDEST PUSH1 0x20 DUP1 DUP3 MSTORE DUP2 ADD PUSH2 0x7BD DUP2 PUSH2 0x215B JUMP JUMPDEST PUSH1 0x20 DUP1 DUP3 MSTORE DUP2 ADD PUSH2 0x7BD DUP2 PUSH2 0x218B JUMP JUMPDEST PUSH1 0x20 DUP1 DUP3 MSTORE DUP2 ADD PUSH2 0x7BD DUP2 PUSH2 0x21BB JUMP JUMPDEST PUSH1 0x20 DUP1 DUP3 MSTORE DUP2 ADD PUSH2 0x7BD DUP2 PUSH2 0x2211 JUMP JUMPDEST PUSH1 0x20 DUP1 DUP3 MSTORE DUP2 ADD PUSH2 0x7BD DUP2 PUSH2 0x2267 JUMP JUMPDEST PUSH2 0x100 DUP2 ADD PUSH2 0x2446 DUP3 DUP6 PUSH2 0x2297 JUMP JUMPDEST PUSH2 0x10EA PUSH1 0x80 DUP4 ADD DUP5 PUSH2 0x2297 JUMP JUMPDEST PUSH1 0x20 DUP2 ADD PUSH2 0x7BD DUP3 DUP5 PUSH2 0x22DD JUMP JUMPDEST PUSH1 0x40 MLOAD DUP2 DUP2 ADD PUSH8 0xFFFFFFFFFFFFFFFF DUP2 GT DUP3 DUP3 LT OR ISZERO PUSH2 0x2480 JUMPI PUSH1 0x0 DUP1 REVERT JUMPDEST PUSH1 0x40 MSTORE SWAP2 SWAP1 POP JUMP JUMPDEST PUSH1 0x0 PUSH8 0xFFFFFFFFFFFFFFFF DUP3 GT ISZERO PUSH2 0x249F JUMPI PUSH1 0x0 DUP1 REVERT JUMPDEST POP PUSH1 0x20 SWAP1 DUP2 MUL ADD SWAP1 JUMP JUMPDEST PUSH1 0x0 PUSH8 0xFFFFFFFFFFFFFFFF DUP3 GT ISZERO PUSH2 0x24C0 JUMPI PUSH1 0x0 DUP1 REVERT JUMPDEST POP PUSH1 0x20 PUSH1 0x1F SWAP2 SWAP1 SWAP2 ADD PUSH32 0xFFFFFFFFFFFFFFFFFFFFFFFFFFFFFFFFFFFFFFFFFFFFFFFFFFFFFFFFFFFFFFE0 AND ADD SWAP1 JUMP JUMPDEST PUSH20 0xFFFFFFFFFFFFFFFFFFFFFFFFFFFFFFFFFFFFFFFF AND SWAP1 JUMP JUMPDEST SWAP1 JUMP JUMPDEST DUP3 DUP2 DUP4 CALLDATACOPY POP PUSH1 0x0 SWAP2 ADD MSTORE JUMP STOP LOG2 PUSH6 0x627A7A723058 KECCAK256 0x24 SWAP3 DUP12 DUP2 LT 0x4b DUP4 SHR PUSH28 0xFABD41C4C16DB0C117A490526197687DD2826C95A7D7736C65787065 PUSH19 0x696D656E74616CF50037000000000000000000 "
			}
		}
	},
	"sourceTreeHashHex": "0xb375308e9f71e2b537b4b9fe7d0dc45c38b7c936468e948958e6aa135dc204c1",
	"compiler": {
		"name": "solc",
		"version": "soljson-v0.4.24+commit.e67f0147.js",
		"settings": {
			"optimizer": {
				"enabled": true,
				"runs": 1000000
			},
			"outputSelection": {
				"*": {
					"*": [
						"abi",
						"evm.bytecode.object",
						"evm.bytecode.sourceMap",
						"evm.deployedBytecode.object",
						"evm.deployedBytecode.sourceMap"
					]
				}
			}
		}
	}
}