{
	"schemaVersion": "2.0.0",
	"contractName": "DevUtils",
	"compilerOutput": {
		"abi": [
			{
				"constant": true,
				"inputs": [
					{
						"name": "assetData",
						"type": "bytes"
					}
				],
				"name": "decodeERC721AssetData",
				"outputs": [
					{
						"name": "assetProxyId",
						"type": "bytes4"
					},
					{
						"name": "tokenAddress",
						"type": "address"
					},
					{
						"name": "tokenId",
						"type": "uint256"
					}
				],
				"payable": false,
				"stateMutability": "pure",
				"type": "function"
			},
			{
				"constant": true,
				"inputs": [
					{
						"name": "ownerAddress",
						"type": "address"
					},
					{
						"name": "assetData",
						"type": "bytes"
					}
				],
				"name": "getBalanceAndAssetProxyAllowance",
				"outputs": [
					{
						"name": "balance",
						"type": "uint256"
					},
					{
						"name": "allowance",
						"type": "uint256"
					}
				],
				"payable": false,
				"stateMutability": "view",
				"type": "function"
			},
			{
				"constant": true,
				"inputs": [],
				"name": "ERC1155_PROXY_ID",
				"outputs": [
					{
						"name": "",
						"type": "bytes4"
					}
				],
				"payable": false,
				"stateMutability": "view",
				"type": "function"
			},
			{
				"constant": true,
				"inputs": [
					{
						"name": "ownerAddress",
						"type": "address"
					},
					{
						"name": "assetData",
						"type": "bytes"
					}
				],
				"name": "getTransferableAssetAmount",
				"outputs": [
					{
						"name": "transferableAssetAmount",
						"type": "uint256"
					}
				],
				"payable": false,
				"stateMutability": "view",
				"type": "function"
			},
			{
				"constant": true,
				"inputs": [
					{
						"name": "ownerAddress",
						"type": "address"
					},
					{
						"name": "assetData",
						"type": "bytes[]"
					}
				],
				"name": "getBatchAssetProxyAllowances",
				"outputs": [
					{
						"name": "allowances",
						"type": "uint256[]"
					}
				],
				"payable": false,
				"stateMutability": "view",
				"type": "function"
			},
			{
				"constant": true,
				"inputs": [
					{
						"name": "tokenAddress",
						"type": "address"
					}
				],
				"name": "encodeERC20AssetData",
				"outputs": [
					{
						"name": "assetData",
						"type": "bytes"
					}
				],
				"payable": false,
				"stateMutability": "pure",
				"type": "function"
			},
			{
				"constant": true,
				"inputs": [
					{
						"name": "transactionData",
						"type": "bytes"
					}
				],
				"name": "decodeZeroExTransactionData",
				"outputs": [
					{
						"name": "functionName",
						"type": "string"
					},
					{
						"components": [
							{
								"name": "makerAddress",
								"type": "address"
							},
							{
								"name": "takerAddress",
								"type": "address"
							},
							{
								"name": "feeRecipientAddress",
								"type": "address"
							},
							{
								"name": "senderAddress",
								"type": "address"
							},
							{
								"name": "makerAssetAmount",
								"type": "uint256"
							},
							{
								"name": "takerAssetAmount",
								"type": "uint256"
							},
							{
								"name": "makerFee",
								"type": "uint256"
							},
							{
								"name": "takerFee",
								"type": "uint256"
							},
							{
								"name": "expirationTimeSeconds",
								"type": "uint256"
							},
							{
								"name": "salt",
								"type": "uint256"
							},
							{
								"name": "makerAssetData",
								"type": "bytes"
							},
							{
								"name": "takerAssetData",
								"type": "bytes"
							},
							{
								"name": "makerFeeAssetData",
								"type": "bytes"
							},
							{
								"name": "takerFeeAssetData",
								"type": "bytes"
							}
						],
						"name": "orders",
						"type": "tuple[]"
					},
					{
						"name": "takerAssetFillAmounts",
						"type": "uint256[]"
					},
					{
						"name": "signatures",
						"type": "bytes[]"
					}
				],
				"payable": false,
				"stateMutability": "pure",
				"type": "function"
			},
			{
				"constant": true,
				"inputs": [
					{
						"name": "ownerAddress",
						"type": "address"
					},
					{
						"name": "assetData",
						"type": "bytes"
					}
				],
				"name": "getBalance",
				"outputs": [
					{
						"name": "balance",
						"type": "uint256"
					}
				],
				"payable": false,
				"stateMutability": "view",
				"type": "function"
			},
			{
				"constant": true,
				"inputs": [],
				"name": "ERC20_PROXY_ID",
				"outputs": [
					{
						"name": "",
						"type": "bytes4"
					}
				],
				"payable": false,
				"stateMutability": "view",
				"type": "function"
			},
			{
				"constant": true,
				"inputs": [
					{
						"name": "assetData",
						"type": "bytes"
					}
				],
				"name": "decodeERC20AssetData",
				"outputs": [
					{
						"name": "assetProxyId",
						"type": "bytes4"
					},
					{
						"name": "tokenAddress",
						"type": "address"
					}
				],
				"payable": false,
				"stateMutability": "pure",
				"type": "function"
			},
			{
				"constant": true,
				"inputs": [
					{
						"name": "assetData",
						"type": "bytes"
					}
				],
				"name": "decodeERC1155AssetData",
				"outputs": [
					{
						"name": "assetProxyId",
						"type": "bytes4"
					},
					{
						"name": "tokenAddress",
						"type": "address"
					},
					{
						"name": "tokenIds",
						"type": "uint256[]"
					},
					{
						"name": "tokenValues",
						"type": "uint256[]"
					},
					{
						"name": "callbackData",
						"type": "bytes"
					}
				],
				"payable": false,
				"stateMutability": "pure",
				"type": "function"
			},
			{
				"constant": true,
				"inputs": [],
				"name": "ERC721_PROXY_ID",
				"outputs": [
					{
						"name": "",
						"type": "bytes4"
					}
				],
				"payable": false,
				"stateMutability": "view",
				"type": "function"
			},
			{
				"constant": true,
				"inputs": [
					{
						"name": "tokenAddress",
						"type": "address"
					},
					{
						"name": "tokenId",
						"type": "uint256"
					}
				],
				"name": "encodeERC721AssetData",
				"outputs": [
					{
						"name": "assetData",
						"type": "bytes"
					}
				],
				"payable": false,
				"stateMutability": "pure",
				"type": "function"
			},
			{
				"constant": true,
				"inputs": [],
				"name": "MULTI_ASSET_PROXY_ID",
				"outputs": [
					{
						"name": "",
						"type": "bytes4"
					}
				],
				"payable": false,
				"stateMutability": "view",
				"type": "function"
			},
			{
				"constant": true,
				"inputs": [
					{
						"name": "tokenAddress",
						"type": "address"
					},
					{
						"name": "tokenIds",
						"type": "uint256[]"
					},
					{
						"name": "tokenValues",
						"type": "uint256[]"
					},
					{
						"name": "callbackData",
						"type": "bytes"
					}
				],
				"name": "encodeERC1155AssetData",
				"outputs": [
					{
						"name": "assetData",
						"type": "bytes"
					}
				],
				"payable": false,
				"stateMutability": "pure",
				"type": "function"
			},
			{
				"constant": true,
				"inputs": [
					{
						"name": "tokenAddress",
						"type": "address"
					},
					{
						"name": "tokenId",
						"type": "uint256"
					}
				],
				"name": "getERC721TokenOwner",
				"outputs": [
					{
						"name": "ownerAddress",
						"type": "address"
					}
				],
				"payable": false,
				"stateMutability": "view",
				"type": "function"
			},
			{
				"constant": true,
				"inputs": [
					{
						"name": "assetData",
						"type": "bytes"
					}
				],
				"name": "decodeMultiAssetData",
				"outputs": [
					{
						"name": "assetProxyId",
						"type": "bytes4"
					},
					{
						"name": "amounts",
						"type": "uint256[]"
					},
					{
						"name": "nestedAssetData",
						"type": "bytes[]"
					}
				],
				"payable": false,
				"stateMutability": "pure",
				"type": "function"
			},
			{
				"constant": true,
				"inputs": [
					{
						"name": "ownerAddress",
						"type": "address"
					},
					{
						"name": "assetData",
						"type": "bytes[]"
					}
				],
				"name": "getBatchBalances",
				"outputs": [
					{
						"name": "balances",
						"type": "uint256[]"
					}
				],
				"payable": false,
				"stateMutability": "view",
				"type": "function"
			},
			{
				"constant": true,
				"inputs": [
					{
						"name": "ownerAddress",
						"type": "address"
					},
					{
						"name": "assetData",
						"type": "bytes"
					}
				],
				"name": "getAssetProxyAllowance",
				"outputs": [
					{
						"name": "allowance",
						"type": "uint256"
					}
				],
				"payable": false,
				"stateMutability": "view",
				"type": "function"
			},
			{
				"constant": true,
				"inputs": [
					{
						"name": "amounts",
						"type": "uint256[]"
					},
					{
						"name": "nestedAssetData",
						"type": "bytes[]"
					}
				],
				"name": "encodeMultiAssetData",
				"outputs": [
					{
						"name": "assetData",
						"type": "bytes"
					}
				],
				"payable": false,
				"stateMutability": "pure",
				"type": "function"
			},
			{
				"constant": true,
				"inputs": [
					{
						"components": [
							{
								"name": "makerAddress",
								"type": "address"
							},
							{
								"name": "takerAddress",
								"type": "address"
							},
							{
								"name": "feeRecipientAddress",
								"type": "address"
							},
							{
								"name": "senderAddress",
								"type": "address"
							},
							{
								"name": "makerAssetAmount",
								"type": "uint256"
							},
							{
								"name": "takerAssetAmount",
								"type": "uint256"
							},
							{
								"name": "makerFee",
								"type": "uint256"
							},
							{
								"name": "takerFee",
								"type": "uint256"
							},
							{
								"name": "expirationTimeSeconds",
								"type": "uint256"
							},
							{
								"name": "salt",
								"type": "uint256"
							},
							{
								"name": "makerAssetData",
								"type": "bytes"
							},
							{
								"name": "takerAssetData",
								"type": "bytes"
							},
							{
								"name": "makerFeeAssetData",
								"type": "bytes"
							},
							{
								"name": "takerFeeAssetData",
								"type": "bytes"
							}
						],
						"name": "orders",
						"type": "tuple[]"
					},
					{
						"name": "signatures",
						"type": "bytes[]"
					}
				],
				"name": "getOrderRelevantStates",
				"outputs": [
					{
						"components": [
							{
								"name": "orderStatus",
								"type": "uint8"
							},
							{
								"name": "orderHash",
								"type": "bytes32"
							},
							{
								"name": "orderTakerAssetFilledAmount",
								"type": "uint256"
							}
						],
						"name": "ordersInfo",
						"type": "tuple[]"
					},
					{
						"name": "fillableTakerAssetAmounts",
						"type": "uint256[]"
					},
					{
						"name": "isValidSignature",
						"type": "bool[]"
					}
				],
				"payable": false,
				"stateMutability": "view",
				"type": "function"
			},
			{
				"constant": true,
				"inputs": [
					{
						"name": "ownerAddress",
						"type": "address"
					},
					{
						"name": "assetData",
						"type": "bytes[]"
					}
				],
				"name": "getBatchBalancesAndAssetProxyAllowances",
				"outputs": [
					{
						"name": "balances",
						"type": "uint256[]"
					},
					{
						"name": "allowances",
						"type": "uint256[]"
					}
				],
				"payable": false,
				"stateMutability": "view",
				"type": "function"
			},
			{
				"constant": true,
				"inputs": [
					{
						"components": [
							{
								"name": "makerAddress",
								"type": "address"
							},
							{
								"name": "takerAddress",
								"type": "address"
							},
							{
								"name": "feeRecipientAddress",
								"type": "address"
							},
							{
								"name": "senderAddress",
								"type": "address"
							},
							{
								"name": "makerAssetAmount",
								"type": "uint256"
							},
							{
								"name": "takerAssetAmount",
								"type": "uint256"
							},
							{
								"name": "makerFee",
								"type": "uint256"
							},
							{
								"name": "takerFee",
								"type": "uint256"
							},
							{
								"name": "expirationTimeSeconds",
								"type": "uint256"
							},
							{
								"name": "salt",
								"type": "uint256"
							},
							{
								"name": "makerAssetData",
								"type": "bytes"
							},
							{
								"name": "takerAssetData",
								"type": "bytes"
							},
							{
								"name": "makerFeeAssetData",
								"type": "bytes"
							},
							{
								"name": "takerFeeAssetData",
								"type": "bytes"
							}
						],
						"name": "order",
						"type": "tuple"
					},
					{
						"name": "signature",
						"type": "bytes"
					}
				],
				"name": "getOrderRelevantState",
				"outputs": [
					{
						"components": [
							{
								"name": "orderStatus",
								"type": "uint8"
							},
							{
								"name": "orderHash",
								"type": "bytes32"
							},
							{
								"name": "orderTakerAssetFilledAmount",
								"type": "uint256"
							}
						],
						"name": "orderInfo",
						"type": "tuple"
					},
					{
						"name": "fillableTakerAssetAmount",
						"type": "uint256"
					},
					{
						"name": "isValidSignature",
						"type": "bool"
					}
				],
				"payable": false,
				"stateMutability": "view",
				"type": "function"
			},
			{
				"inputs": [
					{
						"name": "_exchange",
						"type": "address"
					}
				],
				"payable": false,
				"stateMutability": "nonpayable",
				"type": "constructor"
			}
		],
		"evm": {
			"bytecode": {
				"linkReferences": {},
				"object": "0x60806040523480156200001157600080fd5b5060405162004984380380620049848339810160408190526200003491620002d9565b600080546001600160a01b0319166001600160a01b0383811691909117918290556040517f60704108000000000000000000000000000000000000000000000000000000008152839283921690636070410890620000b7907ff47261b000000000000000000000000000000000000000000000000000000000906004016200030b565b60206040518083038186803b158015620000d057600080fd5b505afa158015620000e5573d6000803e3d6000fd5b505050506040513d601f19601f820116820180604052506200010b9190810190620002d9565b600180546001600160a01b0319166001600160a01b039283161790556000546040517f6070410800000000000000000000000000000000000000000000000000000000815291169063607041089062000189907f0257179200000000000000000000000000000000000000000000000000000000906004016200030b565b60206040518083038186803b158015620001a257600080fd5b505afa158015620001b7573d6000803e3d6000fd5b505050506040513d601f19601f82011682018060405250620001dd9190810190620002d9565b600280546001600160a01b0319166001600160a01b039283161790556000546040517f607041080000000000000000000000000000000000000000000000000000000081529116906360704108906200025b907fa7cb5fb700000000000000000000000000000000000000000000000000000000906004016200030b565b60206040518083038186803b1580156200027457600080fd5b505afa15801562000289573d6000803e3d6000fd5b505050506040513d601f19601f82011682018060405250620002af9190810190620002d9565b600380546001600160a01b0319166001600160a01b03929092169190911790555062000338915050565b600060208284031215620002ec57600080fd5b81516001600160a01b03811681146200030457600080fd5b9392505050565b7fffffffff0000000000000000000000000000000000000000000000000000000091909116815260200190565b61463c80620003486000396000f3fe608060405234801561001057600080fd5b506004361061018d5760003560e01c8063a28fe02e116100e3578063d001c5dc1161008c578063e25cabf711610066578063e25cabf714610387578063e4e6e7da146103a9578063e77286eb146103ca5761018d565b8063d001c5dc1461034e578063d186037f14610361578063d3d862d1146103745761018d565b8063b43cffe1116100bd578063b43cffe1146102f9578063b69884631461030c578063bbb2dcf61461032c5761018d565b8063a28fe02e146102d6578063a6627e9f146102de578063b37fda04146102f15761018d565b8063590aa875116101455780638ee1a6421161011f5780638ee1a642146102895780638f4ce479146102915780639eadc835146102b25761018d565b8063590aa875146102335780636f83188e146102535780637d727512146102765761018d565b80631bd0eb8f116101765780631bd0eb8f146101de5780632322cf76146101f35780634dfdac20146102135761018d565b806304a5618a146101925780630d7b7d76146101bd575b600080fd5b6101a56101a0366004613990565b6103ec565b6040516101b49392919061408b565b60405180910390f35b6101d06101cb3660046136a1565b6104b2565b6040516101b492919061450b565b6101e66104d4565b6040516101b49190613f8e565b6102066102013660046136a1565b6104f8565b6040516101b49190614502565b6102266102213660046135b9565b610520565b6040516101b49190613f28565b61024661024136600461359c565b6105a3565b6040516101b49190614128565b610266610261366004613990565b610642565b6040516101b4949392919061413b565b6102066102843660046136a1565b6114c6565b6101e66119c4565b6102a461029f366004613990565b6119e8565b6040516101b4929190613fbb565b6102c56102c0366004613990565b611a90565b6040516101b4959493929190614003565b6101e6611b53565b6102466102ec3660046136e7565b611b77565b6101e6611c19565b610246610307366004613609565b611c3d565b61031f61031a3660046136e7565b611ce5565b6040516101b49190613dcb565b61033f61033a366004613990565b611e03565b6040516101b4939291906140db565b61022661035c3660046135b9565b611ec8565b61020661036f3660046136a1565b611f36565b6102466103823660046138c7565b6125cd565b61039a610395366004613748565b6125ea565b6040516101b493929190613e8c565b6103bc6103b73660046135b9565b612722565b6040516101b4929190613f69565b6103dd6103d8366004613a50565b61273b565b6040516101b49392919061448a565b60008080610400848263ffffffff61298716565b92507fffffffff0000000000000000000000000000000000000000000000000000000083167f025717920000000000000000000000000000000000000000000000000000000014610486576040517f08c379a000000000000000000000000000000000000000000000000000000000815260040161047d90614453565b60405180910390fd5b61049784601063ffffffff6129f216565b91506104aa84602463ffffffff612a5116565b929491935050565b6000806104bf84846114c6565b91506104cb8484611f36565b90509250929050565b7fa7cb5fb70000000000000000000000000000000000000000000000000000000081565b600080600061050785856104b2565b915091506105158282612a64565b925050505b92915050565b606060008251905080604051908082528060200260200182016040528015610552578160200160208202803883390190505b50915060005b81811461059b5761057c8585838151811061056f57fe5b6020026020010151611f36565b83828151811061058857fe5b6020908102919091010152600101610558565b505092915050565b606063f47261b060e01b826040516024016105be9190613dcb565b604080517fffffffffffffffffffffffffffffffffffffffffffffffffffffffffffffffe08184030181529190526020810180517bffffffffffffffffffffffffffffffffffffffffffffffffffffffff167fffffffff00000000000000000000000000000000000000000000000000000000909316929092179091529050919050565b60608080806000610659868263ffffffff61298716565b90507fffffffff0000000000000000000000000000000000000000000000000000000081167fdedfc1f10000000000000000000000000000000000000000000000000000000014156106e2576040518060400160405280601181526020017f626174636843616e63656c4f72646572730000000000000000000000000000008152509450610e30565b7fffffffff0000000000000000000000000000000000000000000000000000000081167f9694a402000000000000000000000000000000000000000000000000000000001415610769576040518060400160405280600f81526020017f626174636846696c6c4f726465727300000000000000000000000000000000008152509450610e30565b7fffffffff0000000000000000000000000000000000000000000000000000000081167f8ea8dfe40000000000000000000000000000000000000000000000000000000014156107f0576040518060400160405280601681526020017f626174636846696c6c4f72646572734e6f5468726f77000000000000000000008152509450610e30565b7fffffffff0000000000000000000000000000000000000000000000000000000081167fbeee2e14000000000000000000000000000000000000000000000000000000001415610877576040518060400160405280601581526020017f626174636846696c6c4f724b696c6c4f726465727300000000000000000000008152509450610e30565b7fffffffff0000000000000000000000000000000000000000000000000000000081167f2da629870000000000000000000000000000000000000000000000000000000014156108fe576040518060400160405280600b81526020017f63616e63656c4f726465720000000000000000000000000000000000000000008152509450610e30565b7fffffffff0000000000000000000000000000000000000000000000000000000081167f9b44d556000000000000000000000000000000000000000000000000000000001415610985576040518060400160405280600981526020017f66696c6c4f7264657200000000000000000000000000000000000000000000008152509450610e30565b7fffffffff0000000000000000000000000000000000000000000000000000000081167f01da61ae000000000000000000000000000000000000000000000000000000001415610a0c576040518060400160405280601081526020017f66696c6c4f726465724e6f5468726f77000000000000000000000000000000008152509450610e30565b7fffffffff0000000000000000000000000000000000000000000000000000000081167fe14b58c4000000000000000000000000000000000000000000000000000000001415610a93576040518060400160405280600f81526020017f66696c6c4f724b696c6c4f7264657200000000000000000000000000000000008152509450610e30565b7fffffffff0000000000000000000000000000000000000000000000000000000081167fdb702a9c000000000000000000000000000000000000000000000000000000001415610b1a576040518060400160405280600f81526020017f6d61726b65744275794f726465727300000000000000000000000000000000008152509450610e30565b7fffffffff0000000000000000000000000000000000000000000000000000000081167f78d29ac1000000000000000000000000000000000000000000000000000000001415610ba1576040518060400160405280601681526020017f6d61726b65744275794f72646572734e6f5468726f77000000000000000000008152509450610e30565b7fffffffff0000000000000000000000000000000000000000000000000000000081167f52b3ca9e000000000000000000000000000000000000000000000000000000001415610c28576040518060400160405280601081526020017f6d61726b657453656c6c4f7264657273000000000000000000000000000000008152509450610e30565b7fffffffff0000000000000000000000000000000000000000000000000000000081167f369da099000000000000000000000000000000000000000000000000000000001415610caf576040518060400160405280601781526020017f6d61726b657453656c6c4f72646572734e6f5468726f770000000000000000008152509450610e30565b7fffffffff0000000000000000000000000000000000000000000000000000000081167f88ec79fb000000000000000000000000000000000000000000000000000000001415610d36576040518060400160405280600b81526020017f6d617463684f72646572730000000000000000000000000000000000000000008152509450610e30565b7fffffffff0000000000000000000000000000000000000000000000000000000081167f4f9559b1000000000000000000000000000000000000000000000000000000001480610dc757507fffffffff0000000000000000000000000000000000000000000000000000000081167f965504f700000000000000000000000000000000000000000000000000000000145b15610dfe576040517f08c379a000000000000000000000000000000000000000000000000000000000815260040161047d90614362565b6040517f08c379a000000000000000000000000000000000000000000000000000000000815260040161047d9061432b565b7fffffffff0000000000000000000000000000000000000000000000000000000081167fdedfc1f1000000000000000000000000000000000000000000000000000000001415610eed578551610e9090879060049063ffffffff612a7a16565b806020019051610ea39190810190613713565b604080516000808252602082019092529195505b5060408051600080825260208201909252919450610ee5565b6060815260200190600190039081610ed05790505b5091506114be565b7fffffffff0000000000000000000000000000000000000000000000000000000081167fbeee2e14000000000000000000000000000000000000000000000000000000001480610f7e57507fffffffff0000000000000000000000000000000000000000000000000000000081167f8ea8dfe400000000000000000000000000000000000000000000000000000000145b80610fca57507fffffffff0000000000000000000000000000000000000000000000000000000081167f9694a40200000000000000000000000000000000000000000000000000000000145b15610fe457610fd886612b3f565b919550935091506114be565b7fffffffff0000000000000000000000000000000000000000000000000000000081167f2da629870000000000000000000000000000000000000000000000000000000014156110e45760408051600180825281830190925290816020015b61104b612f9f565b815260200190600190039081611043575050865190945061107690879060049063ffffffff612a7a16565b8060200190516110899190810190613a1b565b8460008151811061109657fe5b60200260200101819052506000604051908082528060200260200182016040528015610eb7578160200160208202803883390190505060408051600080825260208201909252919450610ee5565b7fffffffff0000000000000000000000000000000000000000000000000000000081167fe14b58c400000000000000000000000000000000000000000000000000000000148061117557507fffffffff0000000000000000000000000000000000000000000000000000000081167f9b44d55600000000000000000000000000000000000000000000000000000000145b806111c157507fffffffff0000000000000000000000000000000000000000000000000000000081167f01da61ae00000000000000000000000000000000000000000000000000000000145b156111cf57610fd886612b7b565b7fffffffff0000000000000000000000000000000000000000000000000000000081167fdb702a9c00000000000000000000000000000000000000000000000000000000148061126057507fffffffff0000000000000000000000000000000000000000000000000000000081167f78d29ac100000000000000000000000000000000000000000000000000000000145b806112ac57507fffffffff0000000000000000000000000000000000000000000000000000000081167f52b3ca9e00000000000000000000000000000000000000000000000000000000145b806112f857507fffffffff0000000000000000000000000000000000000000000000000000000081167f369da09900000000000000000000000000000000000000000000000000000000145b1561130657610fd886612c75565b7fffffffff0000000000000000000000000000000000000000000000000000000081167f88ec79fb0000000000000000000000000000000000000000000000000000000014156114be57611358612f9f565b611360612f9f565b60608061137a60048b518c612a7a9092919063ffffffff16565b80602001905161138d9190810190613aaa565b604080516002808252606082019092529498509296509094509250816020015b6113b5612f9f565b8152602001906001900390816113ad57905050975083886000815181106113d857fe5b602002602001018190525082886001815181106113f157fe5b602090810291909101015260408051600280825260608201909252908160200160208202803883390190505096508360a001518760008151811061143157fe5b6020026020010181815250508260a001518760018151811061144f57fe5b60209081029190910101526040805160028082526060820190925290816020015b6060815260200190600190039081611470579050509550818660008151811061149557fe5b602002602001018190525080866001815181106114ae57fe5b6020026020010181905250505050505b509193509193565b6000806114d9838263ffffffff61298716565b90507fffffffff0000000000000000000000000000000000000000000000000000000081167ff47261b000000000000000000000000000000000000000000000000000000000141561165757600061153884601063ffffffff6129f216565b905060606370a0823160e01b866040516024016115559190613dcb565b604051602081830303815290604052907bffffffffffffffffffffffffffffffffffffffffffffffffffffffff19166020820180517bffffffffffffffffffffffffffffffffffffffffffffffffffffffff83818316178352505050509050600060608373ffffffffffffffffffffffffffffffffffffffff16836040516115dd9190613daf565b600060405180830381855afa9150503d8060008114611618576040519150601f19603f3d011682016040523d82523d6000602084013e61161d565b606091505b5091509150818015611630575080516020145b61163b57600061164c565b61164c81600063ffffffff612a5116565b9550505050506119bd565b7fffffffff0000000000000000000000000000000000000000000000000000000081167f02571792000000000000000000000000000000000000000000000000000000001415611704576000806116ad856103ec565b92509250508573ffffffffffffffffffffffffffffffffffffffff166116d38383611ce5565b73ffffffffffffffffffffffffffffffffffffffff16146116f55760006116f8565b60015b60ff16935050506119bd565b7fffffffff0000000000000000000000000000000000000000000000000000000081167fa7cb5fb70000000000000000000000000000000000000000000000000000000014156118ee57600060608061175c86611a90565b5081519296509094509250905060005b8181146118e457606062fdd58e60e01b8a86848151811061178957fe5b60200260200101516040516024016117a2929190613e66565b604051602081830303815290604052907bffffffffffffffffffffffffffffffffffffffffffffffffffffffff19166020820180517bffffffffffffffffffffffffffffffffffffffffffffffffffffffff83818316178352505050509050600060608773ffffffffffffffffffffffffffffffffffffffff168360405161182a9190613daf565b600060405180830381855afa9150503d8060008114611865576040519150601f19603f3d011682016040523d82523d6000602084013e61186a565b606091505b5091509150600082801561187f575081516020145b61188a57600061189b565b61189b82600063ffffffff612a5116565b905060008786815181106118ab57fe5b602002602001015182816118bb57fe5b0490508b8110806118ca57508b155b156118d357809b505b50506001909301925061176c915050565b50505050506119bd565b7fffffffff0000000000000000000000000000000000000000000000000000000081167f94cfcdd70000000000000000000000000000000000000000000000000000000014156119bd5760608061194485611e03565b80519194509250905060005b8181146119b85760006119768985848151811061196957fe5b60200260200101516114c6565b9050600085838151811061198657fe5b6020026020010151828161199657fe5b049050878110806119a5575087155b156119ae578097505b5050600101611950565b505050505b5092915050565b7ff47261b00000000000000000000000000000000000000000000000000000000081565b6000806119fb838263ffffffff61298716565b91507fffffffff0000000000000000000000000000000000000000000000000000000082167ff47261b00000000000000000000000000000000000000000000000000000000014611a78576040517f08c379a000000000000000000000000000000000000000000000000000000000815260040161047d90614453565b611a8983601063ffffffff6129f216565b9050915091565b60008060608080611aa7868563ffffffff61298716565b94507fffffffff0000000000000000000000000000000000000000000000000000000085167fa7cb5fb70000000000000000000000000000000000000000000000000000000014611b24576040517f08c379a000000000000000000000000000000000000000000000000000000000815260040161047d90614453565b505050506024828101516044840151606485015160848601519496929591820184019490820184019391010190565b7f025717920000000000000000000000000000000000000000000000000000000081565b6060630257179260e01b8383604051602401611b94929190613e66565b604080517fffffffffffffffffffffffffffffffffffffffffffffffffffffffffffffffe08184030181529190526020810180517bffffffffffffffffffffffffffffffffffffffffffffffffffffffff167fffffffff0000000000000000000000000000000000000000000000000000000090931692909217909152905092915050565b7f94cfcdd70000000000000000000000000000000000000000000000000000000081565b606063a7cb5fb760e01b85858585604051602401611c5e9493929190613e13565b604080517fffffffffffffffffffffffffffffffffffffffffffffffffffffffffffffffe08184030181529190526020810180517bffffffffffffffffffffffffffffffffffffffffffffffffffffffff167fffffffff00000000000000000000000000000000000000000000000000000000909316929092179091529050949350505050565b60006060636352211e60e01b83604051602401611d029190614502565b604051602081830303815290604052907bffffffffffffffffffffffffffffffffffffffffffffffffffffffff19166020820180517bffffffffffffffffffffffffffffffffffffffffffffffffffffffff83818316178352505050509050600060608573ffffffffffffffffffffffffffffffffffffffff1683604051611d8a9190613daf565b600060405180830381855afa9150503d8060008114611dc5576040519150601f19603f3d011682016040523d82523d6000602084013e611dca565b606091505b5091509150818015611ddd575080516020145b611de8576000611df9565b611df981600c63ffffffff6129f216565b9695505050505050565b6000606080611e18848463ffffffff61298716565b92507fffffffff0000000000000000000000000000000000000000000000000000000083167f94cfcdd70000000000000000000000000000000000000000000000000000000014611e95576040517f08c379a000000000000000000000000000000000000000000000000000000000815260040161047d90614453565b8351611eab90859060049063ffffffff612a7a16565b806020019051611ebe9190810190613914565b9395909450915050565b606060008251905080604051908082528060200260200182016040528015611efa578160200160208202803883390190505b50915060005b81811461059b57611f178585838151811061196957fe5b838281518110611f2357fe5b6020908102919091010152600101611f00565b600080611f49838263ffffffff61298716565b90507fffffffff0000000000000000000000000000000000000000000000000000000081167f94cfcdd700000000000000000000000000000000000000000000000000000000141561201357606080611fa185611e03565b80519194509250905060005b818114612008576000611fc68985848151811061056f57fe5b90506000858381518110611fd657fe5b60200260200101518281611fe657fe5b04905087811080611ff5575087155b15611ffe578097505b5050600101611fad565b5061051a9350505050565b7fffffffff0000000000000000000000000000000000000000000000000000000081167ff47261b00000000000000000000000000000000000000000000000000000000014156120c357600061207084601063ffffffff6129f216565b6001546040519192506060917fdd62ed3e000000000000000000000000000000000000000000000000000000009161155591899173ffffffffffffffffffffffffffffffffffffffff1690602401613dec565b7fffffffff0000000000000000000000000000000000000000000000000000000081167f025717920000000000000000000000000000000000000000000000000000000014156123f157600080612119856103ec565b600254604051929550909350606092507fe985e9c50000000000000000000000000000000000000000000000000000000091612172918a9173ffffffffffffffffffffffffffffffffffffffff90911690602401613dec565b604051602081830303815290604052907bffffffffffffffffffffffffffffffffffffffffffffffffffffffff19166020820180517bffffffffffffffffffffffffffffffffffffffffffffffffffffffff83818316178352505050509050600060608473ffffffffffffffffffffffffffffffffffffffff16836040516121fa9190613daf565b600060405180830381855afa9150503d8060008114612235576040519150601f19603f3d011682016040523d82523d6000602084013e61223a565b606091505b509150915081158061224e57508051602014155b8061226a575061226581600063ffffffff612a5116565b600114155b156123c457606063081812fc60e01b8560405160240161228a9190614502565b604051602081830303815290604052907bffffffffffffffffffffffffffffffffffffffffffffffffffffffff19166020820180517bffffffffffffffffffffffffffffffffffffffffffffffffffffffff838183161783525050505090508573ffffffffffffffffffffffffffffffffffffffff168160405161230e9190613daf565b600060405180830381855afa9150503d8060008114612349576040519150601f19603f3d011682016040523d82523d6000602084013e61234e565b606091505b509093509150828015612362575081516020145b80156123ab575060025473ffffffffffffffffffffffffffffffffffffffff1661239383600c63ffffffff6129f216565b73ffffffffffffffffffffffffffffffffffffffff16145b6123b65760006123b9565b60015b60ff169750506118e4565b7fffffffffffffffffffffffffffffffffffffffffffffffffffffffffffffffff965050505050506119bd565b7fffffffff0000000000000000000000000000000000000000000000000000000081167fa7cb5fb70000000000000000000000000000000000000000000000000000000014156119bd57600061244684611a90565b5050600354604051929450606093507fe985e9c5000000000000000000000000000000000000000000000000000000009261249d9250899173ffffffffffffffffffffffffffffffffffffffff1690602401613dec565b604051602081830303815290604052907bffffffffffffffffffffffffffffffffffffffffffffffffffffffff19166020820180517bffffffffffffffffffffffffffffffffffffffffffffffffffffffff83818316178352505050509050600060608373ffffffffffffffffffffffffffffffffffffffff16836040516125259190613daf565b600060405180830381855afa9150503d8060008114612560576040519150601f19603f3d011682016040523d82523d6000602084013e612565565b606091505b5091509150818015612578575080516020145b8015612594575061259081600063ffffffff612a5116565b6001145b61259f5760006125c1565b7fffffffffffffffffffffffffffffffffffffffffffffffffffffffffffffffff5b98975050505050505050565b60606394cfcdd760e01b8383604051602401611b94929190613f3b565b60608060606000855190508060405190808252806020026020018201604052801561262f57816020015b61261c613066565b8152602001906001900390816126145790505b5093508060405190808252806020026020018201604052801561265c578160200160208202803883390190505b50925080604051908082528060200260200182016040528015612689578160200160208202803883390190505b50915060005b818114612719576126c68782815181106126a557fe5b60200260200101518783815181106126b957fe5b602002602001015161273b565b87518890859081106126d457fe5b602002602001018785815181106126e757fe5b602002602001018786815181106126fa57fe5b931515602094850291909101909301929092529190525260010161268f565b50509250925092565b60608061272f8484611ec8565b91506104cb8484610520565b612743613066565b600080546040517f9d3fa4b9000000000000000000000000000000000000000000000000000000008152829173ffffffffffffffffffffffffffffffffffffffff1690639d3fa4b99061279a9088906004016144ae565b60606040518083038186803b1580156127b257600080fd5b505afa1580156127c6573d6000803e3d6000fd5b505050506040513d601f19601f820116820180604052506127ea91908101906139c5565b85516000546040517ff813e384000000000000000000000000000000000000000000000000000000008152929550909173ffffffffffffffffffffffffffffffffffffffff9091169063f813e3849061284b90899085908a906004016144c1565b60206040518083038186803b15801561286357600080fd5b505afa158015612877573d6000803e3d6000fd5b505050506040513d601f19601f8201168201806040525061289b919081019061396e565b915060006128ae828861014001516104f8565b60a088015160c08901516101808a01516101408b0151939450919290916000916128dd9163ffffffff612ce916565b15612901576128fa846128f48c6080015185612d0e565b85612d4d565b9050612962565b6000612912868c61018001516104f8565b90508261292f57612928858c6080015186612d4d565b9150612960565b6000612940868d6080015187612d4d565b9050600061294f838688612d4d565b905061295b8282612a64565b935050505b505b612979612973848a60400151612d7f565b82612a64565b965050505050509250925092565b600081600401835110156129c7576040517f08c379a000000000000000000000000000000000000000000000000000000000815260040161047d906143f6565b5001602001517fffffffff000000000000000000000000000000000000000000000000000000001690565b60008160140183511015612a32576040517f08c379a000000000000000000000000000000000000000000000000000000000815260040161047d90614399565b50016014015173ffffffffffffffffffffffffffffffffffffffff1690565b6000612a5d8383612dc1565b9392505050565b6000818310612a735781612a5d565b5090919050565b606081831115612ab6576040517f08c379a000000000000000000000000000000000000000000000000000000000815260040161047d906141f2565b8351821115612af1576040517f08c379a000000000000000000000000000000000000000000000000000000000815260040161047d90614229565b8282036040519080825280601f01601f191660200182016040528015612b1e576020820181803883390190505b509050612a5d612b2d82612e0a565b84612b3787612e0a565b018351612e10565b6060806060612b5b6004855186612a7a9092919063ffffffff16565b806020019051612b6e91908101906137f0565b9196909550909350915050565b60408051600180825281830190925260609182918291816020015b612b9e612f9f565b815260200190600190039081612b965750506040805160018082528183019092529194506020808301908038833901905050604080516001808252818301909252919350816020015b6060815260200190600190039081612be75750508451909150612c1490859060049063ffffffff612a7a16565b806020019051612c279190810190613b47565b85600081518110612c3457fe5b6020026020010185600081518110612c4857fe5b6020026020010185600081518110612c5c57fe5b6020908102919091010192909252919052529193909250565b604080516001808252818301909252606091829182916020808301908038833950508551919350612cb19186915060049063ffffffff612a7a16565b806020019051612cc49190810190613874565b84518590600090612cd157fe5b60209081029190910101919091529095929450925050565b600081518351148015612a5d5750508051602091820120825192909101919091201490565b600082820183811015612a5d576040517f08c379a000000000000000000000000000000000000000000000000000000000815260040161047d906142f4565b600082612d6457612d64612d5f612ed4565b612f2e565b612d77612d718584612f36565b84612f8a565b949350505050565b600082821115612dbb576040517f08c379a000000000000000000000000000000000000000000000000000000000815260040161047d90614260565b50900390565b60008160200183511015612e01576040517f08c379a000000000000000000000000000000000000000000000000000000000815260040161047d90614297565b50016020015190565b60200190565b6020811015612e3a576001816020036101000a038019835116818551168082178652505050612ecf565b82821415612e4757612ecf565b82821115612e815760208103905080820181840181515b82851015612e79578451865260209586019590940193612e5e565b905250612ecf565b60208103905080820181840183515b81861215612eca57825182527fffffffffffffffffffffffffffffffffffffffffffffffffffffffffffffffe09283019290910190612e90565b855250505b505050565b6040805160048152602481019091526020810180517bffffffffffffffffffffffffffffffffffffffffffffffffffffffff167fa791837c0000000000000000000000000000000000000000000000000000000017905290565b805160208201fd5b600082612f455750600061051a565b82820282848281612f5257fe5b0414612a5d576040517f08c379a000000000000000000000000000000000000000000000000000000000815260040161047d906142f4565b600080828481612f9657fe5b04949350505050565b604051806101c00160405280600073ffffffffffffffffffffffffffffffffffffffff168152602001600073ffffffffffffffffffffffffffffffffffffffff168152602001600073ffffffffffffffffffffffffffffffffffffffff168152602001600073ffffffffffffffffffffffffffffffffffffffff168152602001600081526020016000815260200160008152602001600081526020016000815260200160008152602001606081526020016060815260200160608152602001606081525090565b604080516060810182526000808252602082018190529181019190915290565b803561051a816145d4565b805161051a816145d4565b600082601f8301126130ac578081fd5b81516130bf6130ba82614540565b614519565b8181529150602080830190840160005b838110156130fc576130e787602084518901016132c6565b835260209283019291909101906001016130cf565b5050505092915050565b600082601f830112613116578081fd5b81356131246130ba82614540565b8181529150602080830190840160005b838110156130fc5761314c8760208435890101613278565b83526020928301929190910190600101613134565b600082601f830112613171578081fd5b815161317f6130ba82614540565b8181529150602080830190840160005b838110156130fc576131a7876020845189010161345b565b8352602092830192919091019060010161318f565b600082601f8301126131cc578081fd5b81516131da6130ba82614540565b8181529150602080830190848101818402860182018710156131fb57600080fd5b60005b848110156119b8578151845292820192908201906001016131fe565b600082601f83011261322a578081fd5b81356132386130ba82614540565b81815291506020808301908481018184028601820187101561325957600080fd5b60005b848110156119b85781358452928201929082019060010161325c565b600082601f830112613288578081fd5b81356132966130ba82614561565b91508082528360208285010111156132ad57600080fd5b8060208401602084013760009082016020015292915050565b600082601f8301126132d757600080fd5b81516132e56130ba82614561565b91508082528360208285010111156132fc57600080fd5b6119bd8160208401602086016145a4565b60006101c0808385031215613320578182fd5b61332981614519565b91505060006133388484613086565b82526133478460208501613086565b60208301526133598460408501613086565b604083015261336b8460608501613086565b60608301526080830135608083015260a083013560a083015260c083013560c083015260e083013560e08301526101008084013581840152506101208084013581840152506101408084013567ffffffffffffffff808211156133cc578384fd5b6133d887838801613278565b838601526101609250828601359150808211156133f3578384fd5b6133ff87838801613278565b8386015261018092508286013591508082111561341a578384fd5b61342687838801613278565b838601526101a0925082860135915080821115613441578384fd5b5061344e86828701613278565b8285015250505092915050565b60006101c080838503121561346e578182fd5b61347781614519565b91505060006134868484613091565b82526134958460208501613091565b60208301526134a78460408501613091565b60408301526134b98460608501613091565b60608301526080830151608083015260a083015160a083015260c083015160c083015260e083015160e08301526101008084015181840152506101208084015181840152506101408084015167ffffffffffffffff8082111561351a578384fd5b613526878388016132c6565b83860152610160925082860151915080821115613541578384fd5b61354d878388016132c6565b83860152610180925082860151915080821115613568578384fd5b613574878388016132c6565b838601526101a092508286015191508082111561358f578384fd5b5061344e868287016132c6565b6000602082840312156135ae57600080fd5b8135612a5d816145d4565b600080604083850312156135cc57600080fd5b82356135d7816145d4565b9150602083013567ffffffffffffffff8111156135f357600080fd5b6135ff85828601613106565b9150509250929050565b6000806000806080858703121561361e578182fd5b8435613629816145d4565b9350602085013567ffffffffffffffff80821115613645578384fd5b6136518883890161321a565b94506040870135915080821115613666578384fd5b6136728883890161321a565b9350606087013591508082111561368857600080fd5b5061369587828801613278565b91505092959194509250565b600080604083850312156136b457600080fd5b82356136bf816145d4565b9150602083013567ffffffffffffffff8111156136db57600080fd5b6135ff85828601613278565b600080604083850312156136fa57600080fd5b8235613705816145d4565b946020939093013593505050565b60006020828403121561372557600080fd5b815167ffffffffffffffff81111561373c57600080fd5b612d7784828501613161565b6000806040838503121561375a578182fd5b823567ffffffffffffffff80821115613771578384fd5b81850186601f820112613782578485fd5b803592506137926130ba84614540565b83815260208082019190838101885b878110156137ca576137b88c84843589010161330d565b855293820193908201906001016137a1565b509197508801359450505050808211156137e357600080fd5b506135ff85828601613106565b600080600060608486031215613804578081fd5b835167ffffffffffffffff8082111561381b578283fd5b61382787838801613161565b9450602086015191508082111561383c578283fd5b613848878388016131bc565b9350604086015191508082111561385d578283fd5b5061386a8682870161309c565b9150509250925092565b600080600060608486031215613888578081fd5b835167ffffffffffffffff8082111561389f578283fd5b6138ab87838801613161565b945060208601519350604086015191508082111561385d578283fd5b600080604083850312156138da57600080fd5b823567ffffffffffffffff808211156138f257600080fd5b6138fe8683870161321a565b935060208501359150808211156137e357600080fd5b6000806040838503121561392757600080fd5b825167ffffffffffffffff8082111561393f57600080fd5b61394b868387016131bc565b9350602085015191508082111561396157600080fd5b506135ff8582860161309c565b60006020828403121561398057600080fd5b81518015158114612a5d57600080fd5b6000602082840312156139a257600080fd5b813567ffffffffffffffff8111156139b957600080fd5b612d7784828501613278565b600060608284031280156139d7578182fd5b80156139e1578182fd5b506139ec6060614519565b825160ff811681146139fc578283fd5b8152602083810151908201526040928301519281019290925250919050565b600060208284031215613a2d57600080fd5b815167ffffffffffffffff811115613a4457600080fd5b612d778482850161345b565b60008060408385031215613a6357600080fd5b823567ffffffffffffffff80821115613a7b57600080fd5b613a878683870161330d565b93506020850135915080821115613a9d57600080fd5b506135ff85828601613278565b60008060008060808587031215613abf578182fd5b845167ffffffffffffffff80821115613ad6578384fd5b613ae28883890161345b565b95506020870151915080821115613af7578384fd5b613b038883890161345b565b94506040870151915080821115613b18578384fd5b613b24888389016132c6565b93506060870151915080821115613b3a57600080fd5b50613695878288016132c6565b600080600060608486031215613b5b578081fd5b835167ffffffffffffffff80821115613b72578283fd5b613b7e8783880161345b565b9450602086015193506040860151915080821115613b9a578283fd5b5061386a868287016132c6565b73ffffffffffffffffffffffffffffffffffffffff169052565b60008151808452602084019350836020820285016020850160005b84811015613c0a578383038852613bf4838351613c52565b6020988901989093509190910190600101613bdc565b50909695505050505050565b600081518084526020840193506020830160005b82811015613c48578151865260209586019590910190600101613c2a565b5093949350505050565b60008151808452613c6a8160208601602086016145a4565b601f017fffffffffffffffffffffffffffffffffffffffffffffffffffffffffffffffe0169290920160200192915050565b805160ff16825260208082015190830152604090810151910152565b60006101c0613cc8848451613ba7565b6020830151613cda6020860182613ba7565b506040830151613ced6040860182613ba7565b506060830151613d006060860182613ba7565b506080830151608085015260a083015160a085015260c083015160c085015260e083015160e0850152610100808401518186015250610120808401518186015250610140808401518282870152613d5983870182613c52565b91505061016091508184015185820383870152613d768282613c52565b925050506101808084015185830382870152613d928382613c52565b9150506101a091508184015185820383870152611df98282613c52565b60008251613dc18184602087016145a4565b9190910192915050565b73ffffffffffffffffffffffffffffffffffffffff91909116815260200190565b73ffffffffffffffffffffffffffffffffffffffff92831681529116602082015260400190565b600073ffffffffffffffffffffffffffffffffffffffff8616825260806020830152613e426080830186613c16565b8281036040840152613e548186613c16565b83810360608501526125c18186613c52565b73ffffffffffffffffffffffffffffffffffffffff929092168252602082015260400190565b606080825284519082018190526000906020906080840190828801845b82811015613ecf57613ebc848351613c9c565b6060939093019290840190600101613ea9565b50505083810382850152613ee38187613c16565b8481036040860152855180825290830191508286019060005b81811015613f1a578251151584529284019291840191600101613efc565b509198975050505050505050565b600060208252612a5d6020830184613c16565b600060408252613f4e6040830185613c16565b8281036020840152613f608185613bc1565b95945050505050565b600060408252613f7c6040830185613c16565b8281036020840152613f608185613c16565b7fffffffff0000000000000000000000000000000000000000000000000000000091909116815260200190565b7fffffffff0000000000000000000000000000000000000000000000000000000092909216825273ffffffffffffffffffffffffffffffffffffffff16602082015260400190565b60007fffffffff000000000000000000000000000000000000000000000000000000008716825273ffffffffffffffffffffffffffffffffffffffff8616602083015260a0604083015261405a60a0830186613c16565b828103606084015261406c8186613c16565b838103608085015261407e8186613c52565b9998505050505050505050565b7fffffffff0000000000000000000000000000000000000000000000000000000093909316835273ffffffffffffffffffffffffffffffffffffffff919091166020830152604082015260600190565b60007fffffffff0000000000000000000000000000000000000000000000000000000085168252606060208301526141166060830185613c16565b8281036040840152611df98185613bc1565b600060208252612a5d6020830184613c52565b60006080825261414e6080830187613c52565b602083820381850152818751808452828401915082838202850101838a0160005b838110156141bb577fffffffffffffffffffffffffffffffffffffffffffffffffffffffffffffffe08784030185526141a9838351613cb8565b9486019492509085019060010161416f565b505086810360408801526141cf818a613c16565b94505050505082810360608401526141e78185613bc1565b979650505050505050565b6020808252601a908201527f46524f4d5f4c4553535f5448414e5f544f5f5245515549524544000000000000604082015260600190565b6020808252601c908201527f544f5f4c4553535f5448414e5f4c454e4754485f524551554952454400000000604082015260600190565b60208082526011908201527f55494e543235365f554e444552464c4f57000000000000000000000000000000604082015260600190565b60208082526026908201527f475245415445525f4f525f455155414c5f544f5f33325f4c454e4754485f524560408201527f5155495245440000000000000000000000000000000000000000000000000000606082015260800190565b60208082526010908201527f55494e543235365f4f564552464c4f5700000000000000000000000000000000604082015260600190565b60208082526019908201527f554e4b4e4f574e5f46554e4354494f4e5f53454c4543544f5200000000000000604082015260600190565b6020808252600d908201527f554e494d504c454d454e54454400000000000000000000000000000000000000604082015260600190565b60208082526026908201527f475245415445525f4f525f455155414c5f544f5f32305f4c454e4754485f524560408201527f5155495245440000000000000000000000000000000000000000000000000000606082015260800190565b60208082526025908201527f475245415445525f4f525f455155414c5f544f5f345f4c454e4754485f52455160408201527f5549524544000000000000000000000000000000000000000000000000000000606082015260800190565b6020808252600e908201527f57524f4e475f50524f58595f4944000000000000000000000000000000000000604082015260600190565b60a081016144988286613c9c565b8360608301528215156080830152949350505050565b600060208252612a5d6020830184613cb8565b6000606082526144d46060830186613cb8565b73ffffffffffffffffffffffffffffffffffffffff851660208401528281036040840152611df98185613c52565b90815260200190565b918252602082015260400190565b60405181810167ffffffffffffffff8111828210171561453857600080fd5b604052919050565b600067ffffffffffffffff82111561455757600080fd5b5060209081020190565b600067ffffffffffffffff82111561457857600080fd5b50601f017fffffffffffffffffffffffffffffffffffffffffffffffffffffffffffffffe01660200190565b60005b838110156145bf5781810151838201526020016145a7565b838111156145ce576000848401525b50505050565b73ffffffffffffffffffffffffffffffffffffffff811681146145f657600080fd5b5056fea365627a7a723058204a9509fd5f71e0b596e77ee75a74b1e7ad031944d1b34ab8e8b944062b0c122d6c6578706572696d656e74616cf564736f6c63430005090040",
				"opcodes": "PUSH1 0x80 PUSH1 0x40 MSTORE CALLVALUE DUP1 ISZERO PUSH3 0x11 JUMPI PUSH1 0x0 DUP1 REVERT JUMPDEST POP PUSH1 0x40 MLOAD PUSH3 0x4984 CODESIZE SUB DUP1 PUSH3 0x4984 DUP4 CODECOPY DUP2 ADD PUSH1 0x40 DUP2 SWAP1 MSTORE PUSH3 0x34 SWAP2 PUSH3 0x2D9 JUMP JUMPDEST PUSH1 0x0 DUP1 SLOAD PUSH1 0x1 PUSH1 0x1 PUSH1 0xA0 SHL SUB NOT AND PUSH1 0x1 PUSH1 0x1 PUSH1 0xA0 SHL SUB DUP4 DUP2 AND SWAP2 SWAP1 SWAP2 OR SWAP2 DUP3 SWAP1 SSTORE PUSH1 0x40 MLOAD PUSH32 0x6070410800000000000000000000000000000000000000000000000000000000 DUP2 MSTORE DUP4 SWAP3 DUP4 SWAP3 AND SWAP1 PUSH4 0x60704108 SWAP1 PUSH3 0xB7 SWAP1 PUSH32 0xF47261B000000000000000000000000000000000000000000000000000000000 SWAP1 PUSH1 0x4 ADD PUSH3 0x30B JUMP JUMPDEST PUSH1 0x20 PUSH1 0x40 MLOAD DUP1 DUP4 SUB DUP2 DUP7 DUP1 EXTCODESIZE ISZERO DUP1 ISZERO PUSH3 0xD0 JUMPI PUSH1 0x0 DUP1 REVERT JUMPDEST POP GAS STATICCALL ISZERO DUP1 ISZERO PUSH3 0xE5 JUMPI RETURNDATASIZE PUSH1 0x0 DUP1 RETURNDATACOPY RETURNDATASIZE PUSH1 0x0 REVERT JUMPDEST POP POP POP POP PUSH1 0x40 MLOAD RETURNDATASIZE PUSH1 0x1F NOT PUSH1 0x1F DUP3 ADD AND DUP3 ADD DUP1 PUSH1 0x40 MSTORE POP PUSH3 0x10B SWAP2 SWAP1 DUP2 ADD SWAP1 PUSH3 0x2D9 JUMP JUMPDEST PUSH1 0x1 DUP1 SLOAD PUSH1 0x1 PUSH1 0x1 PUSH1 0xA0 SHL SUB NOT AND PUSH1 0x1 PUSH1 0x1 PUSH1 0xA0 SHL SUB SWAP3 DUP4 AND OR SWAP1 SSTORE PUSH1 0x0 SLOAD PUSH1 0x40 MLOAD PUSH32 0x6070410800000000000000000000000000000000000000000000000000000000 DUP2 MSTORE SWAP2 AND SWAP1 PUSH4 0x60704108 SWAP1 PUSH3 0x189 SWAP1 PUSH32 0x257179200000000000000000000000000000000000000000000000000000000 SWAP1 PUSH1 0x4 ADD PUSH3 0x30B JUMP JUMPDEST PUSH1 0x20 PUSH1 0x40 MLOAD DUP1 DUP4 SUB DUP2 DUP7 DUP1 EXTCODESIZE ISZERO DUP1 ISZERO PUSH3 0x1A2 JUMPI PUSH1 0x0 DUP1 REVERT JUMPDEST POP GAS STATICCALL ISZERO DUP1 ISZERO PUSH3 0x1B7 JUMPI RETURNDATASIZE PUSH1 0x0 DUP1 RETURNDATACOPY RETURNDATASIZE PUSH1 0x0 REVERT JUMPDEST POP POP POP POP PUSH1 0x40 MLOAD RETURNDATASIZE PUSH1 0x1F NOT PUSH1 0x1F DUP3 ADD AND DUP3 ADD DUP1 PUSH1 0x40 MSTORE POP PUSH3 0x1DD SWAP2 SWAP1 DUP2 ADD SWAP1 PUSH3 0x2D9 JUMP JUMPDEST PUSH1 0x2 DUP1 SLOAD PUSH1 0x1 PUSH1 0x1 PUSH1 0xA0 SHL SUB NOT AND PUSH1 0x1 PUSH1 0x1 PUSH1 0xA0 SHL SUB SWAP3 DUP4 AND OR SWAP1 SSTORE PUSH1 0x0 SLOAD PUSH1 0x40 MLOAD PUSH32 0x6070410800000000000000000000000000000000000000000000000000000000 DUP2 MSTORE SWAP2 AND SWAP1 PUSH4 0x60704108 SWAP1 PUSH3 0x25B SWAP1 PUSH32 0xA7CB5FB700000000000000000000000000000000000000000000000000000000 SWAP1 PUSH1 0x4 ADD PUSH3 0x30B JUMP JUMPDEST PUSH1 0x20 PUSH1 0x40 MLOAD DUP1 DUP4 SUB DUP2 DUP7 DUP1 EXTCODESIZE ISZERO DUP1 ISZERO PUSH3 0x274 JUMPI PUSH1 0x0 DUP1 REVERT JUMPDEST POP GAS STATICCALL ISZERO DUP1 ISZERO PUSH3 0x289 JUMPI RETURNDATASIZE PUSH1 0x0 DUP1 RETURNDATACOPY RETURNDATASIZE PUSH1 0x0 REVERT JUMPDEST POP POP POP POP PUSH1 0x40 MLOAD RETURNDATASIZE PUSH1 0x1F NOT PUSH1 0x1F DUP3 ADD AND DUP3 ADD DUP1 PUSH1 0x40 MSTORE POP PUSH3 0x2AF SWAP2 SWAP1 DUP2 ADD SWAP1 PUSH3 0x2D9 JUMP JUMPDEST PUSH1 0x3 DUP1 SLOAD PUSH1 0x1 PUSH1 0x1 PUSH1 0xA0 SHL SUB NOT AND PUSH1 0x1 PUSH1 0x1 PUSH1 0xA0 SHL SUB SWAP3 SWAP1 SWAP3 AND SWAP2 SWAP1 SWAP2 OR SWAP1 SSTORE POP PUSH3 0x338 SWAP2 POP POP JUMP JUMPDEST PUSH1 0x0 PUSH1 0x20 DUP3 DUP5 SUB SLT ISZERO PUSH3 0x2EC JUMPI PUSH1 0x0 DUP1 REVERT JUMPDEST DUP2 MLOAD PUSH1 0x1 PUSH1 0x1 PUSH1 0xA0 SHL SUB DUP2 AND DUP2 EQ PUSH3 0x304 JUMPI PUSH1 0x0 DUP1 REVERT JUMPDEST SWAP4 SWAP3 POP POP POP JUMP JUMPDEST PUSH32 0xFFFFFFFF00000000000000000000000000000000000000000000000000000000 SWAP2 SWAP1 SWAP2 AND DUP2 MSTORE PUSH1 0x20 ADD SWAP1 JUMP JUMPDEST PUSH2 0x463C DUP1 PUSH3 0x348 PUSH1 0x0 CODECOPY PUSH1 0x0 RETURN INVALID PUSH1 0x80 PUSH1 0x40 MSTORE CALLVALUE DUP1 ISZERO PUSH2 0x10 JUMPI PUSH1 0x0 DUP1 REVERT JUMPDEST POP PUSH1 0x4 CALLDATASIZE LT PUSH2 0x18D JUMPI PUSH1 0x0 CALLDATALOAD PUSH1 0xE0 SHR DUP1 PUSH4 0xA28FE02E GT PUSH2 0xE3 JUMPI DUP1 PUSH4 0xD001C5DC GT PUSH2 0x8C JUMPI DUP1 PUSH4 0xE25CABF7 GT PUSH2 0x66 JUMPI DUP1 PUSH4 0xE25CABF7 EQ PUSH2 0x387 JUMPI DUP1 PUSH4 0xE4E6E7DA EQ PUSH2 0x3A9 JUMPI DUP1 PUSH4 0xE77286EB EQ PUSH2 0x3CA JUMPI PUSH2 0x18D JUMP JUMPDEST DUP1 PUSH4 0xD001C5DC EQ PUSH2 0x34E JUMPI DUP1 PUSH4 0xD186037F EQ PUSH2 0x361 JUMPI DUP1 PUSH4 0xD3D862D1 EQ PUSH2 0x374 JUMPI PUSH2 0x18D JUMP JUMPDEST DUP1 PUSH4 0xB43CFFE1 GT PUSH2 0xBD JUMPI DUP1 PUSH4 0xB43CFFE1 EQ PUSH2 0x2F9 JUMPI DUP1 PUSH4 0xB6988463 EQ PUSH2 0x30C JUMPI DUP1 PUSH4 0xBBB2DCF6 EQ PUSH2 0x32C JUMPI PUSH2 0x18D JUMP JUMPDEST DUP1 PUSH4 0xA28FE02E EQ PUSH2 0x2D6 JUMPI DUP1 PUSH4 0xA6627E9F EQ PUSH2 0x2DE JUMPI DUP1 PUSH4 0xB37FDA04 EQ PUSH2 0x2F1 JUMPI PUSH2 0x18D JUMP JUMPDEST DUP1 PUSH4 0x590AA875 GT PUSH2 0x145 JUMPI DUP1 PUSH4 0x8EE1A642 GT PUSH2 0x11F JUMPI DUP1 PUSH4 0x8EE1A642 EQ PUSH2 0x289 JUMPI DUP1 PUSH4 0x8F4CE479 EQ PUSH2 0x291 JUMPI DUP1 PUSH4 0x9EADC835 EQ PUSH2 0x2B2 JUMPI PUSH2 0x18D JUMP JUMPDEST DUP1 PUSH4 0x590AA875 EQ PUSH2 0x233 JUMPI DUP1 PUSH4 0x6F83188E EQ PUSH2 0x253 JUMPI DUP1 PUSH4 0x7D727512 EQ PUSH2 0x276 JUMPI PUSH2 0x18D JUMP JUMPDEST DUP1 PUSH4 0x1BD0EB8F GT PUSH2 0x176 JUMPI DUP1 PUSH4 0x1BD0EB8F EQ PUSH2 0x1DE JUMPI DUP1 PUSH4 0x2322CF76 EQ PUSH2 0x1F3 JUMPI DUP1 PUSH4 0x4DFDAC20 EQ PUSH2 0x213 JUMPI PUSH2 0x18D JUMP JUMPDEST DUP1 PUSH4 0x4A5618A EQ PUSH2 0x192 JUMPI DUP1 PUSH4 0xD7B7D76 EQ PUSH2 0x1BD JUMPI JUMPDEST PUSH1 0x0 DUP1 REVERT JUMPDEST PUSH2 0x1A5 PUSH2 0x1A0 CALLDATASIZE PUSH1 0x4 PUSH2 0x3990 JUMP JUMPDEST PUSH2 0x3EC JUMP JUMPDEST PUSH1 0x40 MLOAD PUSH2 0x1B4 SWAP4 SWAP3 SWAP2 SWAP1 PUSH2 0x408B JUMP JUMPDEST PUSH1 0x40 MLOAD DUP1 SWAP2 SUB SWAP1 RETURN JUMPDEST PUSH2 0x1D0 PUSH2 0x1CB CALLDATASIZE PUSH1 0x4 PUSH2 0x36A1 JUMP JUMPDEST PUSH2 0x4B2 JUMP JUMPDEST PUSH1 0x40 MLOAD PUSH2 0x1B4 SWAP3 SWAP2 SWAP1 PUSH2 0x450B JUMP JUMPDEST PUSH2 0x1E6 PUSH2 0x4D4 JUMP JUMPDEST PUSH1 0x40 MLOAD PUSH2 0x1B4 SWAP2 SWAP1 PUSH2 0x3F8E JUMP JUMPDEST PUSH2 0x206 PUSH2 0x201 CALLDATASIZE PUSH1 0x4 PUSH2 0x36A1 JUMP JUMPDEST PUSH2 0x4F8 JUMP JUMPDEST PUSH1 0x40 MLOAD PUSH2 0x1B4 SWAP2 SWAP1 PUSH2 0x4502 JUMP JUMPDEST PUSH2 0x226 PUSH2 0x221 CALLDATASIZE PUSH1 0x4 PUSH2 0x35B9 JUMP JUMPDEST PUSH2 0x520 JUMP JUMPDEST PUSH1 0x40 MLOAD PUSH2 0x1B4 SWAP2 SWAP1 PUSH2 0x3F28 JUMP JUMPDEST PUSH2 0x246 PUSH2 0x241 CALLDATASIZE PUSH1 0x4 PUSH2 0x359C JUMP JUMPDEST PUSH2 0x5A3 JUMP JUMPDEST PUSH1 0x40 MLOAD PUSH2 0x1B4 SWAP2 SWAP1 PUSH2 0x4128 JUMP JUMPDEST PUSH2 0x266 PUSH2 0x261 CALLDATASIZE PUSH1 0x4 PUSH2 0x3990 JUMP JUMPDEST PUSH2 0x642 JUMP JUMPDEST PUSH1 0x40 MLOAD PUSH2 0x1B4 SWAP5 SWAP4 SWAP3 SWAP2 SWAP1 PUSH2 0x413B JUMP JUMPDEST PUSH2 0x206 PUSH2 0x284 CALLDATASIZE PUSH1 0x4 PUSH2 0x36A1 JUMP JUMPDEST PUSH2 0x14C6 JUMP JUMPDEST PUSH2 0x1E6 PUSH2 0x19C4 JUMP JUMPDEST PUSH2 0x2A4 PUSH2 0x29F CALLDATASIZE PUSH1 0x4 PUSH2 0x3990 JUMP JUMPDEST PUSH2 0x19E8 JUMP JUMPDEST PUSH1 0x40 MLOAD PUSH2 0x1B4 SWAP3 SWAP2 SWAP1 PUSH2 0x3FBB JUMP JUMPDEST PUSH2 0x2C5 PUSH2 0x2C0 CALLDATASIZE PUSH1 0x4 PUSH2 0x3990 JUMP JUMPDEST PUSH2 0x1A90 JUMP JUMPDEST PUSH1 0x40 MLOAD PUSH2 0x1B4 SWAP6 SWAP5 SWAP4 SWAP3 SWAP2 SWAP1 PUSH2 0x4003 JUMP JUMPDEST PUSH2 0x1E6 PUSH2 0x1B53 JUMP JUMPDEST PUSH2 0x246 PUSH2 0x2EC CALLDATASIZE PUSH1 0x4 PUSH2 0x36E7 JUMP JUMPDEST PUSH2 0x1B77 JUMP JUMPDEST PUSH2 0x1E6 PUSH2 0x1C19 JUMP JUMPDEST PUSH2 0x246 PUSH2 0x307 CALLDATASIZE PUSH1 0x4 PUSH2 0x3609 JUMP JUMPDEST PUSH2 0x1C3D JUMP JUMPDEST PUSH2 0x31F PUSH2 0x31A CALLDATASIZE PUSH1 0x4 PUSH2 0x36E7 JUMP JUMPDEST PUSH2 0x1CE5 JUMP JUMPDEST PUSH1 0x40 MLOAD PUSH2 0x1B4 SWAP2 SWAP1 PUSH2 0x3DCB JUMP JUMPDEST PUSH2 0x33F PUSH2 0x33A CALLDATASIZE PUSH1 0x4 PUSH2 0x3990 JUMP JUMPDEST PUSH2 0x1E03 JUMP JUMPDEST PUSH1 0x40 MLOAD PUSH2 0x1B4 SWAP4 SWAP3 SWAP2 SWAP1 PUSH2 0x40DB JUMP JUMPDEST PUSH2 0x226 PUSH2 0x35C CALLDATASIZE PUSH1 0x4 PUSH2 0x35B9 JUMP JUMPDEST PUSH2 0x1EC8 JUMP JUMPDEST PUSH2 0x206 PUSH2 0x36F CALLDATASIZE PUSH1 0x4 PUSH2 0x36A1 JUMP JUMPDEST PUSH2 0x1F36 JUMP JUMPDEST PUSH2 0x246 PUSH2 0x382 CALLDATASIZE PUSH1 0x4 PUSH2 0x38C7 JUMP JUMPDEST PUSH2 0x25CD JUMP JUMPDEST PUSH2 0x39A PUSH2 0x395 CALLDATASIZE PUSH1 0x4 PUSH2 0x3748 JUMP JUMPDEST PUSH2 0x25EA JUMP JUMPDEST PUSH1 0x40 MLOAD PUSH2 0x1B4 SWAP4 SWAP3 SWAP2 SWAP1 PUSH2 0x3E8C JUMP JUMPDEST PUSH2 0x3BC PUSH2 0x3B7 CALLDATASIZE PUSH1 0x4 PUSH2 0x35B9 JUMP JUMPDEST PUSH2 0x2722 JUMP JUMPDEST PUSH1 0x40 MLOAD PUSH2 0x1B4 SWAP3 SWAP2 SWAP1 PUSH2 0x3F69 JUMP JUMPDEST PUSH2 0x3DD PUSH2 0x3D8 CALLDATASIZE PUSH1 0x4 PUSH2 0x3A50 JUMP JUMPDEST PUSH2 0x273B JUMP JUMPDEST PUSH1 0x40 MLOAD PUSH2 0x1B4 SWAP4 SWAP3 SWAP2 SWAP1 PUSH2 0x448A JUMP JUMPDEST PUSH1 0x0 DUP1 DUP1 PUSH2 0x400 DUP5 DUP3 PUSH4 0xFFFFFFFF PUSH2 0x2987 AND JUMP JUMPDEST SWAP3 POP PUSH32 0xFFFFFFFF00000000000000000000000000000000000000000000000000000000 DUP4 AND PUSH32 0x257179200000000000000000000000000000000000000000000000000000000 EQ PUSH2 0x486 JUMPI PUSH1 0x40 MLOAD PUSH32 0x8C379A000000000000000000000000000000000000000000000000000000000 DUP2 MSTORE PUSH1 0x4 ADD PUSH2 0x47D SWAP1 PUSH2 0x4453 JUMP JUMPDEST PUSH1 0x40 MLOAD DUP1 SWAP2 SUB SWAP1 REVERT JUMPDEST PUSH2 0x497 DUP5 PUSH1 0x10 PUSH4 0xFFFFFFFF PUSH2 0x29F2 AND JUMP JUMPDEST SWAP2 POP PUSH2 0x4AA DUP5 PUSH1 0x24 PUSH4 0xFFFFFFFF PUSH2 0x2A51 AND JUMP JUMPDEST SWAP3 SWAP5 SWAP2 SWAP4 POP POP JUMP JUMPDEST PUSH1 0x0 DUP1 PUSH2 0x4BF DUP5 DUP5 PUSH2 0x14C6 JUMP JUMPDEST SWAP2 POP PUSH2 0x4CB DUP5 DUP5 PUSH2 0x1F36 JUMP JUMPDEST SWAP1 POP SWAP3 POP SWAP3 SWAP1 POP JUMP JUMPDEST PUSH32 0xA7CB5FB700000000000000000000000000000000000000000000000000000000 DUP2 JUMP JUMPDEST PUSH1 0x0 DUP1 PUSH1 0x0 PUSH2 0x507 DUP6 DUP6 PUSH2 0x4B2 JUMP JUMPDEST SWAP2 POP SWAP2 POP PUSH2 0x515 DUP3 DUP3 PUSH2 0x2A64 JUMP JUMPDEST SWAP3 POP POP POP JUMPDEST SWAP3 SWAP2 POP POP JUMP JUMPDEST PUSH1 0x60 PUSH1 0x0 DUP3 MLOAD SWAP1 POP DUP1 PUSH1 0x40 MLOAD SWAP1 DUP1 DUP3 MSTORE DUP1 PUSH1 0x20 MUL PUSH1 0x20 ADD DUP3 ADD PUSH1 0x40 MSTORE DUP1 ISZERO PUSH2 0x552 JUMPI DUP2 PUSH1 0x20 ADD PUSH1 0x20 DUP3 MUL DUP1 CODESIZE DUP4 CODECOPY ADD SWAP1 POP JUMPDEST POP SWAP2 POP PUSH1 0x0 JUMPDEST DUP2 DUP2 EQ PUSH2 0x59B JUMPI PUSH2 0x57C DUP6 DUP6 DUP4 DUP2 MLOAD DUP2 LT PUSH2 0x56F JUMPI INVALID JUMPDEST PUSH1 0x20 MUL PUSH1 0x20 ADD ADD MLOAD PUSH2 0x1F36 JUMP JUMPDEST DUP4 DUP3 DUP2 MLOAD DUP2 LT PUSH2 0x588 JUMPI INVALID JUMPDEST PUSH1 0x20 SWAP1 DUP2 MUL SWAP2 SWAP1 SWAP2 ADD ADD MSTORE PUSH1 0x1 ADD PUSH2 0x558 JUMP JUMPDEST POP POP SWAP3 SWAP2 POP POP JUMP JUMPDEST PUSH1 0x60 PUSH4 0xF47261B0 PUSH1 0xE0 SHL DUP3 PUSH1 0x40 MLOAD PUSH1 0x24 ADD PUSH2 0x5BE SWAP2 SWAP1 PUSH2 0x3DCB JUMP JUMPDEST PUSH1 0x40 DUP1 MLOAD PUSH32 0xFFFFFFFFFFFFFFFFFFFFFFFFFFFFFFFFFFFFFFFFFFFFFFFFFFFFFFFFFFFFFFE0 DUP2 DUP5 SUB ADD DUP2 MSTORE SWAP2 SWAP1 MSTORE PUSH1 0x20 DUP2 ADD DUP1 MLOAD PUSH28 0xFFFFFFFFFFFFFFFFFFFFFFFFFFFFFFFFFFFFFFFFFFFFFFFFFFFFFFFF AND PUSH32 0xFFFFFFFF00000000000000000000000000000000000000000000000000000000 SWAP1 SWAP4 AND SWAP3 SWAP1 SWAP3 OR SWAP1 SWAP2 MSTORE SWAP1 POP SWAP2 SWAP1 POP JUMP JUMPDEST PUSH1 0x60 DUP1 DUP1 DUP1 PUSH1 0x0 PUSH2 0x659 DUP7 DUP3 PUSH4 0xFFFFFFFF PUSH2 0x2987 AND JUMP JUMPDEST SWAP1 POP PUSH32 0xFFFFFFFF00000000000000000000000000000000000000000000000000000000 DUP2 AND PUSH32 0xDEDFC1F100000000000000000000000000000000000000000000000000000000 EQ ISZERO PUSH2 0x6E2 JUMPI PUSH1 0x40 MLOAD DUP1 PUSH1 0x40 ADD PUSH1 0x40 MSTORE DUP1 PUSH1 0x11 DUP2 MSTORE PUSH1 0x20 ADD PUSH32 0x626174636843616E63656C4F7264657273000000000000000000000000000000 DUP2 MSTORE POP SWAP5 POP PUSH2 0xE30 JUMP JUMPDEST PUSH32 0xFFFFFFFF00000000000000000000000000000000000000000000000000000000 DUP2 AND PUSH32 0x9694A40200000000000000000000000000000000000000000000000000000000 EQ ISZERO PUSH2 0x769 JUMPI PUSH1 0x40 MLOAD DUP1 PUSH1 0x40 ADD PUSH1 0x40 MSTORE DUP1 PUSH1 0xF DUP2 MSTORE PUSH1 0x20 ADD PUSH32 0x626174636846696C6C4F72646572730000000000000000000000000000000000 DUP2 MSTORE POP SWAP5 POP PUSH2 0xE30 JUMP JUMPDEST PUSH32 0xFFFFFFFF00000000000000000000000000000000000000000000000000000000 DUP2 AND PUSH32 0x8EA8DFE400000000000000000000000000000000000000000000000000000000 EQ ISZERO PUSH2 0x7F0 JUMPI PUSH1 0x40 MLOAD DUP1 PUSH1 0x40 ADD PUSH1 0x40 MSTORE DUP1 PUSH1 0x16 DUP2 MSTORE PUSH1 0x20 ADD PUSH32 0x626174636846696C6C4F72646572734E6F5468726F7700000000000000000000 DUP2 MSTORE POP SWAP5 POP PUSH2 0xE30 JUMP JUMPDEST PUSH32 0xFFFFFFFF00000000000000000000000000000000000000000000000000000000 DUP2 AND PUSH32 0xBEEE2E1400000000000000000000000000000000000000000000000000000000 EQ ISZERO PUSH2 0x877 JUMPI PUSH1 0x40 MLOAD DUP1 PUSH1 0x40 ADD PUSH1 0x40 MSTORE DUP1 PUSH1 0x15 DUP2 MSTORE PUSH1 0x20 ADD PUSH32 0x626174636846696C6C4F724B696C6C4F72646572730000000000000000000000 DUP2 MSTORE POP SWAP5 POP PUSH2 0xE30 JUMP JUMPDEST PUSH32 0xFFFFFFFF00000000000000000000000000000000000000000000000000000000 DUP2 AND PUSH32 0x2DA6298700000000000000000000000000000000000000000000000000000000 EQ ISZERO PUSH2 0x8FE JUMPI PUSH1 0x40 MLOAD DUP1 PUSH1 0x40 ADD PUSH1 0x40 MSTORE DUP1 PUSH1 0xB DUP2 MSTORE PUSH1 0x20 ADD PUSH32 0x63616E63656C4F72646572000000000000000000000000000000000000000000 DUP2 MSTORE POP SWAP5 POP PUSH2 0xE30 JUMP JUMPDEST PUSH32 0xFFFFFFFF00000000000000000000000000000000000000000000000000000000 DUP2 AND PUSH32 0x9B44D55600000000000000000000000000000000000000000000000000000000 EQ ISZERO PUSH2 0x985 JUMPI PUSH1 0x40 MLOAD DUP1 PUSH1 0x40 ADD PUSH1 0x40 MSTORE DUP1 PUSH1 0x9 DUP2 MSTORE PUSH1 0x20 ADD PUSH32 0x66696C6C4F726465720000000000000000000000000000000000000000000000 DUP2 MSTORE POP SWAP5 POP PUSH2 0xE30 JUMP JUMPDEST PUSH32 0xFFFFFFFF00000000000000000000000000000000000000000000000000000000 DUP2 AND PUSH32 0x1DA61AE00000000000000000000000000000000000000000000000000000000 EQ ISZERO PUSH2 0xA0C JUMPI PUSH1 0x40 MLOAD DUP1 PUSH1 0x40 ADD PUSH1 0x40 MSTORE DUP1 PUSH1 0x10 DUP2 MSTORE PUSH1 0x20 ADD PUSH32 0x66696C6C4F726465724E6F5468726F7700000000000000000000000000000000 DUP2 MSTORE POP SWAP5 POP PUSH2 0xE30 JUMP JUMPDEST PUSH32 0xFFFFFFFF00000000000000000000000000000000000000000000000000000000 DUP2 AND PUSH32 0xE14B58C400000000000000000000000000000000000000000000000000000000 EQ ISZERO PUSH2 0xA93 JUMPI PUSH1 0x40 MLOAD DUP1 PUSH1 0x40 ADD PUSH1 0x40 MSTORE DUP1 PUSH1 0xF DUP2 MSTORE PUSH1 0x20 ADD PUSH32 0x66696C6C4F724B696C6C4F726465720000000000000000000000000000000000 DUP2 MSTORE POP SWAP5 POP PUSH2 0xE30 JUMP JUMPDEST PUSH32 0xFFFFFFFF00000000000000000000000000000000000000000000000000000000 DUP2 AND PUSH32 0xDB702A9C00000000000000000000000000000000000000000000000000000000 EQ ISZERO PUSH2 0xB1A JUMPI PUSH1 0x40 MLOAD DUP1 PUSH1 0x40 ADD PUSH1 0x40 MSTORE DUP1 PUSH1 0xF DUP2 MSTORE PUSH1 0x20 ADD PUSH32 0x6D61726B65744275794F72646572730000000000000000000000000000000000 DUP2 MSTORE POP SWAP5 POP PUSH2 0xE30 JUMP JUMPDEST PUSH32 0xFFFFFFFF00000000000000000000000000000000000000000000000000000000 DUP2 AND PUSH32 0x78D29AC100000000000000000000000000000000000000000000000000000000 EQ ISZERO PUSH2 0xBA1 JUMPI PUSH1 0x40 MLOAD DUP1 PUSH1 0x40 ADD PUSH1 0x40 MSTORE DUP1 PUSH1 0x16 DUP2 MSTORE PUSH1 0x20 ADD PUSH32 0x6D61726B65744275794F72646572734E6F5468726F7700000000000000000000 DUP2 MSTORE POP SWAP5 POP PUSH2 0xE30 JUMP JUMPDEST PUSH32 0xFFFFFFFF00000000000000000000000000000000000000000000000000000000 DUP2 AND PUSH32 0x52B3CA9E00000000000000000000000000000000000000000000000000000000 EQ ISZERO PUSH2 0xC28 JUMPI PUSH1 0x40 MLOAD DUP1 PUSH1 0x40 ADD PUSH1 0x40 MSTORE DUP1 PUSH1 0x10 DUP2 MSTORE PUSH1 0x20 ADD PUSH32 0x6D61726B657453656C6C4F726465727300000000000000000000000000000000 DUP2 MSTORE POP SWAP5 POP PUSH2 0xE30 JUMP JUMPDEST PUSH32 0xFFFFFFFF00000000000000000000000000000000000000000000000000000000 DUP2 AND PUSH32 0x369DA09900000000000000000000000000000000000000000000000000000000 EQ ISZERO PUSH2 0xCAF JUMPI PUSH1 0x40 MLOAD DUP1 PUSH1 0x40 ADD PUSH1 0x40 MSTORE DUP1 PUSH1 0x17 DUP2 MSTORE PUSH1 0x20 ADD PUSH32 0x6D61726B657453656C6C4F72646572734E6F5468726F77000000000000000000 DUP2 MSTORE POP SWAP5 POP PUSH2 0xE30 JUMP JUMPDEST PUSH32 0xFFFFFFFF00000000000000000000000000000000000000000000000000000000 DUP2 AND PUSH32 0x88EC79FB00000000000000000000000000000000000000000000000000000000 EQ ISZERO PUSH2 0xD36 JUMPI PUSH1 0x40 MLOAD DUP1 PUSH1 0x40 ADD PUSH1 0x40 MSTORE DUP1 PUSH1 0xB DUP2 MSTORE PUSH1 0x20 ADD PUSH32 0x6D617463684F7264657273000000000000000000000000000000000000000000 DUP2 MSTORE POP SWAP5 POP PUSH2 0xE30 JUMP JUMPDEST PUSH32 0xFFFFFFFF00000000000000000000000000000000000000000000000000000000 DUP2 AND PUSH32 0x4F9559B100000000000000000000000000000000000000000000000000000000 EQ DUP1 PUSH2 0xDC7 JUMPI POP PUSH32 0xFFFFFFFF00000000000000000000000000000000000000000000000000000000 DUP2 AND PUSH32 0x965504F700000000000000000000000000000000000000000000000000000000 EQ JUMPDEST ISZERO PUSH2 0xDFE JUMPI PUSH1 0x40 MLOAD PUSH32 0x8C379A000000000000000000000000000000000000000000000000000000000 DUP2 MSTORE PUSH1 0x4 ADD PUSH2 0x47D SWAP1 PUSH2 0x4362 JUMP JUMPDEST PUSH1 0x40 MLOAD PUSH32 0x8C379A000000000000000000000000000000000000000000000000000000000 DUP2 MSTORE PUSH1 0x4 ADD PUSH2 0x47D SWAP1 PUSH2 0x432B JUMP JUMPDEST PUSH32 0xFFFFFFFF00000000000000000000000000000000000000000000000000000000 DUP2 AND PUSH32 0xDEDFC1F100000000000000000000000000000000000000000000000000000000 EQ ISZERO PUSH2 0xEED JUMPI DUP6 MLOAD PUSH2 0xE90 SWAP1 DUP8 SWAP1 PUSH1 0x4 SWAP1 PUSH4 0xFFFFFFFF PUSH2 0x2A7A AND JUMP JUMPDEST DUP1 PUSH1 0x20 ADD SWAP1 MLOAD PUSH2 0xEA3 SWAP2 SWAP1 DUP2 ADD SWAP1 PUSH2 0x3713 JUMP JUMPDEST PUSH1 0x40 DUP1 MLOAD PUSH1 0x0 DUP1 DUP3 MSTORE PUSH1 0x20 DUP3 ADD SWAP1 SWAP3 MSTORE SWAP2 SWAP6 POP JUMPDEST POP PUSH1 0x40 DUP1 MLOAD PUSH1 0x0 DUP1 DUP3 MSTORE PUSH1 0x20 DUP3 ADD SWAP1 SWAP3 MSTORE SWAP2 SWAP5 POP PUSH2 0xEE5 JUMP JUMPDEST PUSH1 0x60 DUP2 MSTORE PUSH1 0x20 ADD SWAP1 PUSH1 0x1 SWAP1 SUB SWAP1 DUP2 PUSH2 0xED0 JUMPI SWAP1 POP JUMPDEST POP SWAP2 POP PUSH2 0x14BE JUMP JUMPDEST PUSH32 0xFFFFFFFF00000000000000000000000000000000000000000000000000000000 DUP2 AND PUSH32 0xBEEE2E1400000000000000000000000000000000000000000000000000000000 EQ DUP1 PUSH2 0xF7E JUMPI POP PUSH32 0xFFFFFFFF00000000000000000000000000000000000000000000000000000000 DUP2 AND PUSH32 0x8EA8DFE400000000000000000000000000000000000000000000000000000000 EQ JUMPDEST DUP1 PUSH2 0xFCA JUMPI POP PUSH32 0xFFFFFFFF00000000000000000000000000000000000000000000000000000000 DUP2 AND PUSH32 0x9694A40200000000000000000000000000000000000000000000000000000000 EQ JUMPDEST ISZERO PUSH2 0xFE4 JUMPI PUSH2 0xFD8 DUP7 PUSH2 0x2B3F JUMP JUMPDEST SWAP2 SWAP6 POP SWAP4 POP SWAP2 POP PUSH2 0x14BE JUMP JUMPDEST PUSH32 0xFFFFFFFF00000000000000000000000000000000000000000000000000000000 DUP2 AND PUSH32 0x2DA6298700000000000000000000000000000000000000000000000000000000 EQ ISZERO PUSH2 0x10E4 JUMPI PUSH1 0x40 DUP1 MLOAD PUSH1 0x1 DUP1 DUP3 MSTORE DUP2 DUP4 ADD SWAP1 SWAP3 MSTORE SWAP1 DUP2 PUSH1 0x20 ADD JUMPDEST PUSH2 0x104B PUSH2 0x2F9F JUMP JUMPDEST DUP2 MSTORE PUSH1 0x20 ADD SWAP1 PUSH1 0x1 SWAP1 SUB SWAP1 DUP2 PUSH2 0x1043 JUMPI POP POP DUP7 MLOAD SWAP1 SWAP5 POP PUSH2 0x1076 SWAP1 DUP8 SWAP1 PUSH1 0x4 SWAP1 PUSH4 0xFFFFFFFF PUSH2 0x2A7A AND JUMP JUMPDEST DUP1 PUSH1 0x20 ADD SWAP1 MLOAD PUSH2 0x1089 SWAP2 SWAP1 DUP2 ADD SWAP1 PUSH2 0x3A1B JUMP JUMPDEST DUP5 PUSH1 0x0 DUP2 MLOAD DUP2 LT PUSH2 0x1096 JUMPI INVALID JUMPDEST PUSH1 0x20 MUL PUSH1 0x20 ADD ADD DUP2 SWAP1 MSTORE POP PUSH1 0x0 PUSH1 0x40 MLOAD SWAP1 DUP1 DUP3 MSTORE DUP1 PUSH1 0x20 MUL PUSH1 0x20 ADD DUP3 ADD PUSH1 0x40 MSTORE DUP1 ISZERO PUSH2 0xEB7 JUMPI DUP2 PUSH1 0x20 ADD PUSH1 0x20 DUP3 MUL DUP1 CODESIZE DUP4 CODECOPY ADD SWAP1 POP POP PUSH1 0x40 DUP1 MLOAD PUSH1 0x0 DUP1 DUP3 MSTORE PUSH1 0x20 DUP3 ADD SWAP1 SWAP3 MSTORE SWAP2 SWAP5 POP PUSH2 0xEE5 JUMP JUMPDEST PUSH32 0xFFFFFFFF00000000000000000000000000000000000000000000000000000000 DUP2 AND PUSH32 0xE14B58C400000000000000000000000000000000000000000000000000000000 EQ DUP1 PUSH2 0x1175 JUMPI POP PUSH32 0xFFFFFFFF00000000000000000000000000000000000000000000000000000000 DUP2 AND PUSH32 0x9B44D55600000000000000000000000000000000000000000000000000000000 EQ JUMPDEST DUP1 PUSH2 0x11C1 JUMPI POP PUSH32 0xFFFFFFFF00000000000000000000000000000000000000000000000000000000 DUP2 AND PUSH32 0x1DA61AE00000000000000000000000000000000000000000000000000000000 EQ JUMPDEST ISZERO PUSH2 0x11CF JUMPI PUSH2 0xFD8 DUP7 PUSH2 0x2B7B JUMP JUMPDEST PUSH32 0xFFFFFFFF00000000000000000000000000000000000000000000000000000000 DUP2 AND PUSH32 0xDB702A9C00000000000000000000000000000000000000000000000000000000 EQ DUP1 PUSH2 0x1260 JUMPI POP PUSH32 0xFFFFFFFF00000000000000000000000000000000000000000000000000000000 DUP2 AND PUSH32 0x78D29AC100000000000000000000000000000000000000000000000000000000 EQ JUMPDEST DUP1 PUSH2 0x12AC JUMPI POP PUSH32 0xFFFFFFFF00000000000000000000000000000000000000000000000000000000 DUP2 AND PUSH32 0x52B3CA9E00000000000000000000000000000000000000000000000000000000 EQ JUMPDEST DUP1 PUSH2 0x12F8 JUMPI POP PUSH32 0xFFFFFFFF00000000000000000000000000000000000000000000000000000000 DUP2 AND PUSH32 0x369DA09900000000000000000000000000000000000000000000000000000000 EQ JUMPDEST ISZERO PUSH2 0x1306 JUMPI PUSH2 0xFD8 DUP7 PUSH2 0x2C75 JUMP JUMPDEST PUSH32 0xFFFFFFFF00000000000000000000000000000000000000000000000000000000 DUP2 AND PUSH32 0x88EC79FB00000000000000000000000000000000000000000000000000000000 EQ ISZERO PUSH2 0x14BE JUMPI PUSH2 0x1358 PUSH2 0x2F9F JUMP JUMPDEST PUSH2 0x1360 PUSH2 0x2F9F JUMP JUMPDEST PUSH1 0x60 DUP1 PUSH2 0x137A PUSH1 0x4 DUP12 MLOAD DUP13 PUSH2 0x2A7A SWAP1 SWAP3 SWAP2 SWAP1 PUSH4 0xFFFFFFFF AND JUMP JUMPDEST DUP1 PUSH1 0x20 ADD SWAP1 MLOAD PUSH2 0x138D SWAP2 SWAP1 DUP2 ADD SWAP1 PUSH2 0x3AAA JUMP JUMPDEST PUSH1 0x40 DUP1 MLOAD PUSH1 0x2 DUP1 DUP3 MSTORE PUSH1 0x60 DUP3 ADD SWAP1 SWAP3 MSTORE SWAP5 SWAP9 POP SWAP3 SWAP7 POP SWAP1 SWAP5 POP SWAP3 POP DUP2 PUSH1 0x20 ADD JUMPDEST PUSH2 0x13B5 PUSH2 0x2F9F JUMP JUMPDEST DUP2 MSTORE PUSH1 0x20 ADD SWAP1 PUSH1 0x1 SWAP1 SUB SWAP1 DUP2 PUSH2 0x13AD JUMPI SWAP1 POP POP SWAP8 POP DUP4 DUP9 PUSH1 0x0 DUP2 MLOAD DUP2 LT PUSH2 0x13D8 JUMPI INVALID JUMPDEST PUSH1 0x20 MUL PUSH1 0x20 ADD ADD DUP2 SWAP1 MSTORE POP DUP3 DUP9 PUSH1 0x1 DUP2 MLOAD DUP2 LT PUSH2 0x13F1 JUMPI INVALID JUMPDEST PUSH1 0x20 SWAP1 DUP2 MUL SWAP2 SWAP1 SWAP2 ADD ADD MSTORE PUSH1 0x40 DUP1 MLOAD PUSH1 0x2 DUP1 DUP3 MSTORE PUSH1 0x60 DUP3 ADD SWAP1 SWAP3 MSTORE SWAP1 DUP2 PUSH1 0x20 ADD PUSH1 0x20 DUP3 MUL DUP1 CODESIZE DUP4 CODECOPY ADD SWAP1 POP POP SWAP7 POP DUP4 PUSH1 0xA0 ADD MLOAD DUP8 PUSH1 0x0 DUP2 MLOAD DUP2 LT PUSH2 0x1431 JUMPI INVALID JUMPDEST PUSH1 0x20 MUL PUSH1 0x20 ADD ADD DUP2 DUP2 MSTORE POP POP DUP3 PUSH1 0xA0 ADD MLOAD DUP8 PUSH1 0x1 DUP2 MLOAD DUP2 LT PUSH2 0x144F JUMPI INVALID JUMPDEST PUSH1 0x20 SWAP1 DUP2 MUL SWAP2 SWAP1 SWAP2 ADD ADD MSTORE PUSH1 0x40 DUP1 MLOAD PUSH1 0x2 DUP1 DUP3 MSTORE PUSH1 0x60 DUP3 ADD SWAP1 SWAP3 MSTORE SWAP1 DUP2 PUSH1 0x20 ADD JUMPDEST PUSH1 0x60 DUP2 MSTORE PUSH1 0x20 ADD SWAP1 PUSH1 0x1 SWAP1 SUB SWAP1 DUP2 PUSH2 0x1470 JUMPI SWAP1 POP POP SWAP6 POP DUP2 DUP7 PUSH1 0x0 DUP2 MLOAD DUP2 LT PUSH2 0x1495 JUMPI INVALID JUMPDEST PUSH1 0x20 MUL PUSH1 0x20 ADD ADD DUP2 SWAP1 MSTORE POP DUP1 DUP7 PUSH1 0x1 DUP2 MLOAD DUP2 LT PUSH2 0x14AE JUMPI INVALID JUMPDEST PUSH1 0x20 MUL PUSH1 0x20 ADD ADD DUP2 SWAP1 MSTORE POP POP POP POP POP JUMPDEST POP SWAP2 SWAP4 POP SWAP2 SWAP4 JUMP JUMPDEST PUSH1 0x0 DUP1 PUSH2 0x14D9 DUP4 DUP3 PUSH4 0xFFFFFFFF PUSH2 0x2987 AND JUMP JUMPDEST SWAP1 POP PUSH32 0xFFFFFFFF00000000000000000000000000000000000000000000000000000000 DUP2 AND PUSH32 0xF47261B000000000000000000000000000000000000000000000000000000000 EQ ISZERO PUSH2 0x1657 JUMPI PUSH1 0x0 PUSH2 0x1538 DUP5 PUSH1 0x10 PUSH4 0xFFFFFFFF PUSH2 0x29F2 AND JUMP JUMPDEST SWAP1 POP PUSH1 0x60 PUSH4 0x70A08231 PUSH1 0xE0 SHL DUP7 PUSH1 0x40 MLOAD PUSH1 0x24 ADD PUSH2 0x1555 SWAP2 SWAP1 PUSH2 0x3DCB JUMP JUMPDEST PUSH1 0x40 MLOAD PUSH1 0x20 DUP2 DUP4 SUB SUB DUP2 MSTORE SWAP1 PUSH1 0x40 MSTORE SWAP1 PUSH28 0xFFFFFFFFFFFFFFFFFFFFFFFFFFFFFFFFFFFFFFFFFFFFFFFFFFFFFFFF NOT AND PUSH1 0x20 DUP3 ADD DUP1 MLOAD PUSH28 0xFFFFFFFFFFFFFFFFFFFFFFFFFFFFFFFFFFFFFFFFFFFFFFFFFFFFFFFF DUP4 DUP2 DUP4 AND OR DUP4 MSTORE POP POP POP POP SWAP1 POP PUSH1 0x0 PUSH1 0x60 DUP4 PUSH20 0xFFFFFFFFFFFFFFFFFFFFFFFFFFFFFFFFFFFFFFFF AND DUP4 PUSH1 0x40 MLOAD PUSH2 0x15DD SWAP2 SWAP1 PUSH2 0x3DAF JUMP JUMPDEST PUSH1 0x0 PUSH1 0x40 MLOAD DUP1 DUP4 SUB DUP2 DUP6 GAS STATICCALL SWAP2 POP POP RETURNDATASIZE DUP1 PUSH1 0x0 DUP2 EQ PUSH2 0x1618 JUMPI PUSH1 0x40 MLOAD SWAP2 POP PUSH1 0x1F NOT PUSH1 0x3F RETURNDATASIZE ADD AND DUP3 ADD PUSH1 0x40 MSTORE RETURNDATASIZE DUP3 MSTORE RETURNDATASIZE PUSH1 0x0 PUSH1 0x20 DUP5 ADD RETURNDATACOPY PUSH2 0x161D JUMP JUMPDEST PUSH1 0x60 SWAP2 POP JUMPDEST POP SWAP2 POP SWAP2 POP DUP2 DUP1 ISZERO PUSH2 0x1630 JUMPI POP DUP1 MLOAD PUSH1 0x20 EQ JUMPDEST PUSH2 0x163B JUMPI PUSH1 0x0 PUSH2 0x164C JUMP JUMPDEST PUSH2 0x164C DUP2 PUSH1 0x0 PUSH4 0xFFFFFFFF PUSH2 0x2A51 AND JUMP JUMPDEST SWAP6 POP POP POP POP POP PUSH2 0x19BD JUMP JUMPDEST PUSH32 0xFFFFFFFF00000000000000000000000000000000000000000000000000000000 DUP2 AND PUSH32 0x257179200000000000000000000000000000000000000000000000000000000 EQ ISZERO PUSH2 0x1704 JUMPI PUSH1 0x0 DUP1 PUSH2 0x16AD DUP6 PUSH2 0x3EC JUMP JUMPDEST SWAP3 POP SWAP3 POP POP DUP6 PUSH20 0xFFFFFFFFFFFFFFFFFFFFFFFFFFFFFFFFFFFFFFFF AND PUSH2 0x16D3 DUP4 DUP4 PUSH2 0x1CE5 JUMP JUMPDEST PUSH20 0xFFFFFFFFFFFFFFFFFFFFFFFFFFFFFFFFFFFFFFFF AND EQ PUSH2 0x16F5 JUMPI PUSH1 0x0 PUSH2 0x16F8 JUMP JUMPDEST PUSH1 0x1 JUMPDEST PUSH1 0xFF AND SWAP4 POP POP POP PUSH2 0x19BD JUMP JUMPDEST PUSH32 0xFFFFFFFF00000000000000000000000000000000000000000000000000000000 DUP2 AND PUSH32 0xA7CB5FB700000000000000000000000000000000000000000000000000000000 EQ ISZERO PUSH2 0x18EE JUMPI PUSH1 0x0 PUSH1 0x60 DUP1 PUSH2 0x175C DUP7 PUSH2 0x1A90 JUMP JUMPDEST POP DUP2 MLOAD SWAP3 SWAP7 POP SWAP1 SWAP5 POP SWAP3 POP SWAP1 POP PUSH1 0x0 JUMPDEST DUP2 DUP2 EQ PUSH2 0x18E4 JUMPI PUSH1 0x60 PUSH3 0xFDD58E PUSH1 0xE0 SHL DUP11 DUP7 DUP5 DUP2 MLOAD DUP2 LT PUSH2 0x1789 JUMPI INVALID JUMPDEST PUSH1 0x20 MUL PUSH1 0x20 ADD ADD MLOAD PUSH1 0x40 MLOAD PUSH1 0x24 ADD PUSH2 0x17A2 SWAP3 SWAP2 SWAP1 PUSH2 0x3E66 JUMP JUMPDEST PUSH1 0x40 MLOAD PUSH1 0x20 DUP2 DUP4 SUB SUB DUP2 MSTORE SWAP1 PUSH1 0x40 MSTORE SWAP1 PUSH28 0xFFFFFFFFFFFFFFFFFFFFFFFFFFFFFFFFFFFFFFFFFFFFFFFFFFFFFFFF NOT AND PUSH1 0x20 DUP3 ADD DUP1 MLOAD PUSH28 0xFFFFFFFFFFFFFFFFFFFFFFFFFFFFFFFFFFFFFFFFFFFFFFFFFFFFFFFF DUP4 DUP2 DUP4 AND OR DUP4 MSTORE POP POP POP POP SWAP1 POP PUSH1 0x0 PUSH1 0x60 DUP8 PUSH20 0xFFFFFFFFFFFFFFFFFFFFFFFFFFFFFFFFFFFFFFFF AND DUP4 PUSH1 0x40 MLOAD PUSH2 0x182A SWAP2 SWAP1 PUSH2 0x3DAF JUMP JUMPDEST PUSH1 0x0 PUSH1 0x40 MLOAD DUP1 DUP4 SUB DUP2 DUP6 GAS STATICCALL SWAP2 POP POP RETURNDATASIZE DUP1 PUSH1 0x0 DUP2 EQ PUSH2 0x1865 JUMPI PUSH1 0x40 MLOAD SWAP2 POP PUSH1 0x1F NOT PUSH1 0x3F RETURNDATASIZE ADD AND DUP3 ADD PUSH1 0x40 MSTORE RETURNDATASIZE DUP3 MSTORE RETURNDATASIZE PUSH1 0x0 PUSH1 0x20 DUP5 ADD RETURNDATACOPY PUSH2 0x186A JUMP JUMPDEST PUSH1 0x60 SWAP2 POP JUMPDEST POP SWAP2 POP SWAP2 POP PUSH1 0x0 DUP3 DUP1 ISZERO PUSH2 0x187F JUMPI POP DUP2 MLOAD PUSH1 0x20 EQ JUMPDEST PUSH2 0x188A JUMPI PUSH1 0x0 PUSH2 0x189B JUMP JUMPDEST PUSH2 0x189B DUP3 PUSH1 0x0 PUSH4 0xFFFFFFFF PUSH2 0x2A51 AND JUMP JUMPDEST SWAP1 POP PUSH1 0x0 DUP8 DUP7 DUP2 MLOAD DUP2 LT PUSH2 0x18AB JUMPI INVALID JUMPDEST PUSH1 0x20 MUL PUSH1 0x20 ADD ADD MLOAD DUP3 DUP2 PUSH2 0x18BB JUMPI INVALID JUMPDEST DIV SWAP1 POP DUP12 DUP2 LT DUP1 PUSH2 0x18CA JUMPI POP DUP12 ISZERO JUMPDEST ISZERO PUSH2 0x18D3 JUMPI DUP1 SWAP12 POP JUMPDEST POP POP PUSH1 0x1 SWAP1 SWAP4 ADD SWAP3 POP PUSH2 0x176C SWAP2 POP POP JUMP JUMPDEST POP POP POP POP POP PUSH2 0x19BD JUMP JUMPDEST PUSH32 0xFFFFFFFF00000000000000000000000000000000000000000000000000000000 DUP2 AND PUSH32 0x94CFCDD700000000000000000000000000000000000000000000000000000000 EQ ISZERO PUSH2 0x19BD JUMPI PUSH1 0x60 DUP1 PUSH2 0x1944 DUP6 PUSH2 0x1E03 JUMP JUMPDEST DUP1 MLOAD SWAP2 SWAP5 POP SWAP3 POP SWAP1 POP PUSH1 0x0 JUMPDEST DUP2 DUP2 EQ PUSH2 0x19B8 JUMPI PUSH1 0x0 PUSH2 0x1976 DUP10 DUP6 DUP5 DUP2 MLOAD DUP2 LT PUSH2 0x1969 JUMPI INVALID JUMPDEST PUSH1 0x20 MUL PUSH1 0x20 ADD ADD MLOAD PUSH2 0x14C6 JUMP JUMPDEST SWAP1 POP PUSH1 0x0 DUP6 DUP4 DUP2 MLOAD DUP2 LT PUSH2 0x1986 JUMPI INVALID JUMPDEST PUSH1 0x20 MUL PUSH1 0x20 ADD ADD MLOAD DUP3 DUP2 PUSH2 0x1996 JUMPI INVALID JUMPDEST DIV SWAP1 POP DUP8 DUP2 LT DUP1 PUSH2 0x19A5 JUMPI POP DUP8 ISZERO JUMPDEST ISZERO PUSH2 0x19AE JUMPI DUP1 SWAP8 POP JUMPDEST POP POP PUSH1 0x1 ADD PUSH2 0x1950 JUMP JUMPDEST POP POP POP POP JUMPDEST POP SWAP3 SWAP2 POP POP JUMP JUMPDEST PUSH32 0xF47261B000000000000000000000000000000000000000000000000000000000 DUP2 JUMP JUMPDEST PUSH1 0x0 DUP1 PUSH2 0x19FB DUP4 DUP3 PUSH4 0xFFFFFFFF PUSH2 0x2987 AND JUMP JUMPDEST SWAP2 POP PUSH32 0xFFFFFFFF00000000000000000000000000000000000000000000000000000000 DUP3 AND PUSH32 0xF47261B000000000000000000000000000000000000000000000000000000000 EQ PUSH2 0x1A78 JUMPI PUSH1 0x40 MLOAD PUSH32 0x8C379A000000000000000000000000000000000000000000000000000000000 DUP2 MSTORE PUSH1 0x4 ADD PUSH2 0x47D SWAP1 PUSH2 0x4453 JUMP JUMPDEST PUSH2 0x1A89 DUP4 PUSH1 0x10 PUSH4 0xFFFFFFFF PUSH2 0x29F2 AND JUMP JUMPDEST SWAP1 POP SWAP2 POP SWAP2 JUMP JUMPDEST PUSH1 0x0 DUP1 PUSH1 0x60 DUP1 DUP1 PUSH2 0x1AA7 DUP7 DUP6 PUSH4 0xFFFFFFFF PUSH2 0x2987 AND JUMP JUMPDEST SWAP5 POP PUSH32 0xFFFFFFFF00000000000000000000000000000000000000000000000000000000 DUP6 AND PUSH32 0xA7CB5FB700000000000000000000000000000000000000000000000000000000 EQ PUSH2 0x1B24 JUMPI PUSH1 0x40 MLOAD PUSH32 0x8C379A000000000000000000000000000000000000000000000000000000000 DUP2 MSTORE PUSH1 0x4 ADD PUSH2 0x47D SWAP1 PUSH2 0x4453 JUMP JUMPDEST POP POP POP POP PUSH1 0x24 DUP3 DUP2 ADD MLOAD PUSH1 0x44 DUP5 ADD MLOAD PUSH1 0x64 DUP6 ADD MLOAD PUSH1 0x84 DUP7 ADD MLOAD SWAP5 SWAP7 SWAP3 SWAP6 SWAP2 DUP3 ADD DUP5 ADD SWAP5 SWAP1 DUP3 ADD DUP5 ADD SWAP4 SWAP2 ADD ADD SWAP1 JUMP JUMPDEST PUSH32 0x257179200000000000000000000000000000000000000000000000000000000 DUP2 JUMP JUMPDEST PUSH1 0x60 PUSH4 0x2571792 PUSH1 0xE0 SHL DUP4 DUP4 PUSH1 0x40 MLOAD PUSH1 0x24 ADD PUSH2 0x1B94 SWAP3 SWAP2 SWAP1 PUSH2 0x3E66 JUMP JUMPDEST PUSH1 0x40 DUP1 MLOAD PUSH32 0xFFFFFFFFFFFFFFFFFFFFFFFFFFFFFFFFFFFFFFFFFFFFFFFFFFFFFFFFFFFFFFE0 DUP2 DUP5 SUB ADD DUP2 MSTORE SWAP2 SWAP1 MSTORE PUSH1 0x20 DUP2 ADD DUP1 MLOAD PUSH28 0xFFFFFFFFFFFFFFFFFFFFFFFFFFFFFFFFFFFFFFFFFFFFFFFFFFFFFFFF AND PUSH32 0xFFFFFFFF00000000000000000000000000000000000000000000000000000000 SWAP1 SWAP4 AND SWAP3 SWAP1 SWAP3 OR SWAP1 SWAP2 MSTORE SWAP1 POP SWAP3 SWAP2 POP POP JUMP JUMPDEST PUSH32 0x94CFCDD700000000000000000000000000000000000000000000000000000000 DUP2 JUMP JUMPDEST PUSH1 0x60 PUSH4 0xA7CB5FB7 PUSH1 0xE0 SHL DUP6 DUP6 DUP6 DUP6 PUSH1 0x40 MLOAD PUSH1 0x24 ADD PUSH2 0x1C5E SWAP5 SWAP4 SWAP3 SWAP2 SWAP1 PUSH2 0x3E13 JUMP JUMPDEST PUSH1 0x40 DUP1 MLOAD PUSH32 0xFFFFFFFFFFFFFFFFFFFFFFFFFFFFFFFFFFFFFFFFFFFFFFFFFFFFFFFFFFFFFFE0 DUP2 DUP5 SUB ADD DUP2 MSTORE SWAP2 SWAP1 MSTORE PUSH1 0x20 DUP2 ADD DUP1 MLOAD PUSH28 0xFFFFFFFFFFFFFFFFFFFFFFFFFFFFFFFFFFFFFFFFFFFFFFFFFFFFFFFF AND PUSH32 0xFFFFFFFF00000000000000000000000000000000000000000000000000000000 SWAP1 SWAP4 AND SWAP3 SWAP1 SWAP3 OR SWAP1 SWAP2 MSTORE SWAP1 POP SWAP5 SWAP4 POP POP POP POP JUMP JUMPDEST PUSH1 0x0 PUSH1 0x60 PUSH4 0x6352211E PUSH1 0xE0 SHL DUP4 PUSH1 0x40 MLOAD PUSH1 0x24 ADD PUSH2 0x1D02 SWAP2 SWAP1 PUSH2 0x4502 JUMP JUMPDEST PUSH1 0x40 MLOAD PUSH1 0x20 DUP2 DUP4 SUB SUB DUP2 MSTORE SWAP1 PUSH1 0x40 MSTORE SWAP1 PUSH28 0xFFFFFFFFFFFFFFFFFFFFFFFFFFFFFFFFFFFFFFFFFFFFFFFFFFFFFFFF NOT AND PUSH1 0x20 DUP3 ADD DUP1 MLOAD PUSH28 0xFFFFFFFFFFFFFFFFFFFFFFFFFFFFFFFFFFFFFFFFFFFFFFFFFFFFFFFF DUP4 DUP2 DUP4 AND OR DUP4 MSTORE POP POP POP POP SWAP1 POP PUSH1 0x0 PUSH1 0x60 DUP6 PUSH20 0xFFFFFFFFFFFFFFFFFFFFFFFFFFFFFFFFFFFFFFFF AND DUP4 PUSH1 0x40 MLOAD PUSH2 0x1D8A SWAP2 SWAP1 PUSH2 0x3DAF JUMP JUMPDEST PUSH1 0x0 PUSH1 0x40 MLOAD DUP1 DUP4 SUB DUP2 DUP6 GAS STATICCALL SWAP2 POP POP RETURNDATASIZE DUP1 PUSH1 0x0 DUP2 EQ PUSH2 0x1DC5 JUMPI PUSH1 0x40 MLOAD SWAP2 POP PUSH1 0x1F NOT PUSH1 0x3F RETURNDATASIZE ADD AND DUP3 ADD PUSH1 0x40 MSTORE RETURNDATASIZE DUP3 MSTORE RETURNDATASIZE PUSH1 0x0 PUSH1 0x20 DUP5 ADD RETURNDATACOPY PUSH2 0x1DCA JUMP JUMPDEST PUSH1 0x60 SWAP2 POP JUMPDEST POP SWAP2 POP SWAP2 POP DUP2 DUP1 ISZERO PUSH2 0x1DDD JUMPI POP DUP1 MLOAD PUSH1 0x20 EQ JUMPDEST PUSH2 0x1DE8 JUMPI PUSH1 0x0 PUSH2 0x1DF9 JUMP JUMPDEST PUSH2 0x1DF9 DUP2 PUSH1 0xC PUSH4 0xFFFFFFFF PUSH2 0x29F2 AND JUMP JUMPDEST SWAP7 SWAP6 POP POP POP POP POP POP JUMP JUMPDEST PUSH1 0x0 PUSH1 0x60 DUP1 PUSH2 0x1E18 DUP5 DUP5 PUSH4 0xFFFFFFFF PUSH2 0x2987 AND JUMP JUMPDEST SWAP3 POP PUSH32 0xFFFFFFFF00000000000000000000000000000000000000000000000000000000 DUP4 AND PUSH32 0x94CFCDD700000000000000000000000000000000000000000000000000000000 EQ PUSH2 0x1E95 JUMPI PUSH1 0x40 MLOAD PUSH32 0x8C379A000000000000000000000000000000000000000000000000000000000 DUP2 MSTORE PUSH1 0x4 ADD PUSH2 0x47D SWAP1 PUSH2 0x4453 JUMP JUMPDEST DUP4 MLOAD PUSH2 0x1EAB SWAP1 DUP6 SWAP1 PUSH1 0x4 SWAP1 PUSH4 0xFFFFFFFF PUSH2 0x2A7A AND JUMP JUMPDEST DUP1 PUSH1 0x20 ADD SWAP1 MLOAD PUSH2 0x1EBE SWAP2 SWAP1 DUP2 ADD SWAP1 PUSH2 0x3914 JUMP JUMPDEST SWAP4 SWAP6 SWAP1 SWAP5 POP SWAP2 POP POP JUMP JUMPDEST PUSH1 0x60 PUSH1 0x0 DUP3 MLOAD SWAP1 POP DUP1 PUSH1 0x40 MLOAD SWAP1 DUP1 DUP3 MSTORE DUP1 PUSH1 0x20 MUL PUSH1 0x20 ADD DUP3 ADD PUSH1 0x40 MSTORE DUP1 ISZERO PUSH2 0x1EFA JUMPI DUP2 PUSH1 0x20 ADD PUSH1 0x20 DUP3 MUL DUP1 CODESIZE DUP4 CODECOPY ADD SWAP1 POP JUMPDEST POP SWAP2 POP PUSH1 0x0 JUMPDEST DUP2 DUP2 EQ PUSH2 0x59B JUMPI PUSH2 0x1F17 DUP6 DUP6 DUP4 DUP2 MLOAD DUP2 LT PUSH2 0x1969 JUMPI INVALID JUMPDEST DUP4 DUP3 DUP2 MLOAD DUP2 LT PUSH2 0x1F23 JUMPI INVALID JUMPDEST PUSH1 0x20 SWAP1 DUP2 MUL SWAP2 SWAP1 SWAP2 ADD ADD MSTORE PUSH1 0x1 ADD PUSH2 0x1F00 JUMP JUMPDEST PUSH1 0x0 DUP1 PUSH2 0x1F49 DUP4 DUP3 PUSH4 0xFFFFFFFF PUSH2 0x2987 AND JUMP JUMPDEST SWAP1 POP PUSH32 0xFFFFFFFF00000000000000000000000000000000000000000000000000000000 DUP2 AND PUSH32 0x94CFCDD700000000000000000000000000000000000000000000000000000000 EQ ISZERO PUSH2 0x2013 JUMPI PUSH1 0x60 DUP1 PUSH2 0x1FA1 DUP6 PUSH2 0x1E03 JUMP JUMPDEST DUP1 MLOAD SWAP2 SWAP5 POP SWAP3 POP SWAP1 POP PUSH1 0x0 JUMPDEST DUP2 DUP2 EQ PUSH2 0x2008 JUMPI PUSH1 0x0 PUSH2 0x1FC6 DUP10 DUP6 DUP5 DUP2 MLOAD DUP2 LT PUSH2 0x56F JUMPI INVALID JUMPDEST SWAP1 POP PUSH1 0x0 DUP6 DUP4 DUP2 MLOAD DUP2 LT PUSH2 0x1FD6 JUMPI INVALID JUMPDEST PUSH1 0x20 MUL PUSH1 0x20 ADD ADD MLOAD DUP3 DUP2 PUSH2 0x1FE6 JUMPI INVALID JUMPDEST DIV SWAP1 POP DUP8 DUP2 LT DUP1 PUSH2 0x1FF5 JUMPI POP DUP8 ISZERO JUMPDEST ISZERO PUSH2 0x1FFE JUMPI DUP1 SWAP8 POP JUMPDEST POP POP PUSH1 0x1 ADD PUSH2 0x1FAD JUMP JUMPDEST POP PUSH2 0x51A SWAP4 POP POP POP POP JUMP JUMPDEST PUSH32 0xFFFFFFFF00000000000000000000000000000000000000000000000000000000 DUP2 AND PUSH32 0xF47261B000000000000000000000000000000000000000000000000000000000 EQ ISZERO PUSH2 0x20C3 JUMPI PUSH1 0x0 PUSH2 0x2070 DUP5 PUSH1 0x10 PUSH4 0xFFFFFFFF PUSH2 0x29F2 AND JUMP JUMPDEST PUSH1 0x1 SLOAD PUSH1 0x40 MLOAD SWAP2 SWAP3 POP PUSH1 0x60 SWAP2 PUSH32 0xDD62ED3E00000000000000000000000000000000000000000000000000000000 SWAP2 PUSH2 0x1555 SWAP2 DUP10 SWAP2 PUSH20 0xFFFFFFFFFFFFFFFFFFFFFFFFFFFFFFFFFFFFFFFF AND SWAP1 PUSH1 0x24 ADD PUSH2 0x3DEC JUMP JUMPDEST PUSH32 0xFFFFFFFF00000000000000000000000000000000000000000000000000000000 DUP2 AND PUSH32 0x257179200000000000000000000000000000000000000000000000000000000 EQ ISZERO PUSH2 0x23F1 JUMPI PUSH1 0x0 DUP1 PUSH2 0x2119 DUP6 PUSH2 0x3EC JUMP JUMPDEST PUSH1 0x2 SLOAD PUSH1 0x40 MLOAD SWAP3 SWAP6 POP SWAP1 SWAP4 POP PUSH1 0x60 SWAP3 POP PUSH32 0xE985E9C500000000000000000000000000000000000000000000000000000000 SWAP2 PUSH2 0x2172 SWAP2 DUP11 SWAP2 PUSH20 0xFFFFFFFFFFFFFFFFFFFFFFFFFFFFFFFFFFFFFFFF SWAP1 SWAP2 AND SWAP1 PUSH1 0x24 ADD PUSH2 0x3DEC JUMP JUMPDEST PUSH1 0x40 MLOAD PUSH1 0x20 DUP2 DUP4 SUB SUB DUP2 MSTORE SWAP1 PUSH1 0x40 MSTORE SWAP1 PUSH28 0xFFFFFFFFFFFFFFFFFFFFFFFFFFFFFFFFFFFFFFFFFFFFFFFFFFFFFFFF NOT AND PUSH1 0x20 DUP3 ADD DUP1 MLOAD PUSH28 0xFFFFFFFFFFFFFFFFFFFFFFFFFFFFFFFFFFFFFFFFFFFFFFFFFFFFFFFF DUP4 DUP2 DUP4 AND OR DUP4 MSTORE POP POP POP POP SWAP1 POP PUSH1 0x0 PUSH1 0x60 DUP5 PUSH20 0xFFFFFFFFFFFFFFFFFFFFFFFFFFFFFFFFFFFFFFFF AND DUP4 PUSH1 0x40 MLOAD PUSH2 0x21FA SWAP2 SWAP1 PUSH2 0x3DAF JUMP JUMPDEST PUSH1 0x0 PUSH1 0x40 MLOAD DUP1 DUP4 SUB DUP2 DUP6 GAS STATICCALL SWAP2 POP POP RETURNDATASIZE DUP1 PUSH1 0x0 DUP2 EQ PUSH2 0x2235 JUMPI PUSH1 0x40 MLOAD SWAP2 POP PUSH1 0x1F NOT PUSH1 0x3F RETURNDATASIZE ADD AND DUP3 ADD PUSH1 0x40 MSTORE RETURNDATASIZE DUP3 MSTORE RETURNDATASIZE PUSH1 0x0 PUSH1 0x20 DUP5 ADD RETURNDATACOPY PUSH2 0x223A JUMP JUMPDEST PUSH1 0x60 SWAP2 POP JUMPDEST POP SWAP2 POP SWAP2 POP DUP2 ISZERO DUP1 PUSH2 0x224E JUMPI POP DUP1 MLOAD PUSH1 0x20 EQ ISZERO JUMPDEST DUP1 PUSH2 0x226A JUMPI POP PUSH2 0x2265 DUP2 PUSH1 0x0 PUSH4 0xFFFFFFFF PUSH2 0x2A51 AND JUMP JUMPDEST PUSH1 0x1 EQ ISZERO JUMPDEST ISZERO PUSH2 0x23C4 JUMPI PUSH1 0x60 PUSH4 0x81812FC PUSH1 0xE0 SHL DUP6 PUSH1 0x40 MLOAD PUSH1 0x24 ADD PUSH2 0x228A SWAP2 SWAP1 PUSH2 0x4502 JUMP JUMPDEST PUSH1 0x40 MLOAD PUSH1 0x20 DUP2 DUP4 SUB SUB DUP2 MSTORE SWAP1 PUSH1 0x40 MSTORE SWAP1 PUSH28 0xFFFFFFFFFFFFFFFFFFFFFFFFFFFFFFFFFFFFFFFFFFFFFFFFFFFFFFFF NOT AND PUSH1 0x20 DUP3 ADD DUP1 MLOAD PUSH28 0xFFFFFFFFFFFFFFFFFFFFFFFFFFFFFFFFFFFFFFFFFFFFFFFFFFFFFFFF DUP4 DUP2 DUP4 AND OR DUP4 MSTORE POP POP POP POP SWAP1 POP DUP6 PUSH20 0xFFFFFFFFFFFFFFFFFFFFFFFFFFFFFFFFFFFFFFFF AND DUP2 PUSH1 0x40 MLOAD PUSH2 0x230E SWAP2 SWAP1 PUSH2 0x3DAF JUMP JUMPDEST PUSH1 0x0 PUSH1 0x40 MLOAD DUP1 DUP4 SUB DUP2 DUP6 GAS STATICCALL SWAP2 POP POP RETURNDATASIZE DUP1 PUSH1 0x0 DUP2 EQ PUSH2 0x2349 JUMPI PUSH1 0x40 MLOAD SWAP2 POP PUSH1 0x1F NOT PUSH1 0x3F RETURNDATASIZE ADD AND DUP3 ADD PUSH1 0x40 MSTORE RETURNDATASIZE DUP3 MSTORE RETURNDATASIZE PUSH1 0x0 PUSH1 0x20 DUP5 ADD RETURNDATACOPY PUSH2 0x234E JUMP JUMPDEST PUSH1 0x60 SWAP2 POP JUMPDEST POP SWAP1 SWAP4 POP SWAP2 POP DUP3 DUP1 ISZERO PUSH2 0x2362 JUMPI POP DUP2 MLOAD PUSH1 0x20 EQ JUMPDEST DUP1 ISZERO PUSH2 0x23AB JUMPI POP PUSH1 0x2 SLOAD PUSH20 0xFFFFFFFFFFFFFFFFFFFFFFFFFFFFFFFFFFFFFFFF AND PUSH2 0x2393 DUP4 PUSH1 0xC PUSH4 0xFFFFFFFF PUSH2 0x29F2 AND JUMP JUMPDEST PUSH20 0xFFFFFFFFFFFFFFFFFFFFFFFFFFFFFFFFFFFFFFFF AND EQ JUMPDEST PUSH2 0x23B6 JUMPI PUSH1 0x0 PUSH2 0x23B9 JUMP JUMPDEST PUSH1 0x1 JUMPDEST PUSH1 0xFF AND SWAP8 POP POP PUSH2 0x18E4 JUMP JUMPDEST PUSH32 0xFFFFFFFFFFFFFFFFFFFFFFFFFFFFFFFFFFFFFFFFFFFFFFFFFFFFFFFFFFFFFFFF SWAP7 POP POP POP POP POP POP PUSH2 0x19BD JUMP JUMPDEST PUSH32 0xFFFFFFFF00000000000000000000000000000000000000000000000000000000 DUP2 AND PUSH32 0xA7CB5FB700000000000000000000000000000000000000000000000000000000 EQ ISZERO PUSH2 0x19BD JUMPI PUSH1 0x0 PUSH2 0x2446 DUP5 PUSH2 0x1A90 JUMP JUMPDEST POP POP PUSH1 0x3 SLOAD PUSH1 0x40 MLOAD SWAP3 SWAP5 POP PUSH1 0x60 SWAP4 POP PUSH32 0xE985E9C500000000000000000000000000000000000000000000000000000000 SWAP3 PUSH2 0x249D SWAP3 POP DUP10 SWAP2 PUSH20 0xFFFFFFFFFFFFFFFFFFFFFFFFFFFFFFFFFFFFFFFF AND SWAP1 PUSH1 0x24 ADD PUSH2 0x3DEC JUMP JUMPDEST PUSH1 0x40 MLOAD PUSH1 0x20 DUP2 DUP4 SUB SUB DUP2 MSTORE SWAP1 PUSH1 0x40 MSTORE SWAP1 PUSH28 0xFFFFFFFFFFFFFFFFFFFFFFFFFFFFFFFFFFFFFFFFFFFFFFFFFFFFFFFF NOT AND PUSH1 0x20 DUP3 ADD DUP1 MLOAD PUSH28 0xFFFFFFFFFFFFFFFFFFFFFFFFFFFFFFFFFFFFFFFFFFFFFFFFFFFFFFFF DUP4 DUP2 DUP4 AND OR DUP4 MSTORE POP POP POP POP SWAP1 POP PUSH1 0x0 PUSH1 0x60 DUP4 PUSH20 0xFFFFFFFFFFFFFFFFFFFFFFFFFFFFFFFFFFFFFFFF AND DUP4 PUSH1 0x40 MLOAD PUSH2 0x2525 SWAP2 SWAP1 PUSH2 0x3DAF JUMP JUMPDEST PUSH1 0x0 PUSH1 0x40 MLOAD DUP1 DUP4 SUB DUP2 DUP6 GAS STATICCALL SWAP2 POP POP RETURNDATASIZE DUP1 PUSH1 0x0 DUP2 EQ PUSH2 0x2560 JUMPI PUSH1 0x40 MLOAD SWAP2 POP PUSH1 0x1F NOT PUSH1 0x3F RETURNDATASIZE ADD AND DUP3 ADD PUSH1 0x40 MSTORE RETURNDATASIZE DUP3 MSTORE RETURNDATASIZE PUSH1 0x0 PUSH1 0x20 DUP5 ADD RETURNDATACOPY PUSH2 0x2565 JUMP JUMPDEST PUSH1 0x60 SWAP2 POP JUMPDEST POP SWAP2 POP SWAP2 POP DUP2 DUP1 ISZERO PUSH2 0x2578 JUMPI POP DUP1 MLOAD PUSH1 0x20 EQ JUMPDEST DUP1 ISZERO PUSH2 0x2594 JUMPI POP PUSH2 0x2590 DUP2 PUSH1 0x0 PUSH4 0xFFFFFFFF PUSH2 0x2A51 AND JUMP JUMPDEST PUSH1 0x1 EQ JUMPDEST PUSH2 0x259F JUMPI PUSH1 0x0 PUSH2 0x25C1 JUMP JUMPDEST PUSH32 0xFFFFFFFFFFFFFFFFFFFFFFFFFFFFFFFFFFFFFFFFFFFFFFFFFFFFFFFFFFFFFFFF JUMPDEST SWAP9 SWAP8 POP POP POP POP POP POP POP POP JUMP JUMPDEST PUSH1 0x60 PUSH4 0x94CFCDD7 PUSH1 0xE0 SHL DUP4 DUP4 PUSH1 0x40 MLOAD PUSH1 0x24 ADD PUSH2 0x1B94 SWAP3 SWAP2 SWAP1 PUSH2 0x3F3B JUMP JUMPDEST PUSH1 0x60 DUP1 PUSH1 0x60 PUSH1 0x0 DUP6 MLOAD SWAP1 POP DUP1 PUSH1 0x40 MLOAD SWAP1 DUP1 DUP3 MSTORE DUP1 PUSH1 0x20 MUL PUSH1 0x20 ADD DUP3 ADD PUSH1 0x40 MSTORE DUP1 ISZERO PUSH2 0x262F JUMPI DUP2 PUSH1 0x20 ADD JUMPDEST PUSH2 0x261C PUSH2 0x3066 JUMP JUMPDEST DUP2 MSTORE PUSH1 0x20 ADD SWAP1 PUSH1 0x1 SWAP1 SUB SWAP1 DUP2 PUSH2 0x2614 JUMPI SWAP1 POP JUMPDEST POP SWAP4 POP DUP1 PUSH1 0x40 MLOAD SWAP1 DUP1 DUP3 MSTORE DUP1 PUSH1 0x20 MUL PUSH1 0x20 ADD DUP3 ADD PUSH1 0x40 MSTORE DUP1 ISZERO PUSH2 0x265C JUMPI DUP2 PUSH1 0x20 ADD PUSH1 0x20 DUP3 MUL DUP1 CODESIZE DUP4 CODECOPY ADD SWAP1 POP JUMPDEST POP SWAP3 POP DUP1 PUSH1 0x40 MLOAD SWAP1 DUP1 DUP3 MSTORE DUP1 PUSH1 0x20 MUL PUSH1 0x20 ADD DUP3 ADD PUSH1 0x40 MSTORE DUP1 ISZERO PUSH2 0x2689 JUMPI DUP2 PUSH1 0x20 ADD PUSH1 0x20 DUP3 MUL DUP1 CODESIZE DUP4 CODECOPY ADD SWAP1 POP JUMPDEST POP SWAP2 POP PUSH1 0x0 JUMPDEST DUP2 DUP2 EQ PUSH2 0x2719 JUMPI PUSH2 0x26C6 DUP8 DUP3 DUP2 MLOAD DUP2 LT PUSH2 0x26A5 JUMPI INVALID JUMPDEST PUSH1 0x20 MUL PUSH1 0x20 ADD ADD MLOAD DUP8 DUP4 DUP2 MLOAD DUP2 LT PUSH2 0x26B9 JUMPI INVALID JUMPDEST PUSH1 0x20 MUL PUSH1 0x20 ADD ADD MLOAD PUSH2 0x273B JUMP JUMPDEST DUP8 MLOAD DUP9 SWAP1 DUP6 SWAP1 DUP2 LT PUSH2 0x26D4 JUMPI INVALID JUMPDEST PUSH1 0x20 MUL PUSH1 0x20 ADD ADD DUP8 DUP6 DUP2 MLOAD DUP2 LT PUSH2 0x26E7 JUMPI INVALID JUMPDEST PUSH1 0x20 MUL PUSH1 0x20 ADD ADD DUP8 DUP7 DUP2 MLOAD DUP2 LT PUSH2 0x26FA JUMPI INVALID JUMPDEST SWAP4 ISZERO ISZERO PUSH1 0x20 SWAP5 DUP6 MUL SWAP2 SWAP1 SWAP2 ADD SWAP1 SWAP4 ADD SWAP3 SWAP1 SWAP3 MSTORE SWAP2 SWAP1 MSTORE MSTORE PUSH1 0x1 ADD PUSH2 0x268F JUMP JUMPDEST POP POP SWAP3 POP SWAP3 POP SWAP3 JUMP JUMPDEST PUSH1 0x60 DUP1 PUSH2 0x272F DUP5 DUP5 PUSH2 0x1EC8 JUMP JUMPDEST SWAP2 POP PUSH2 0x4CB DUP5 DUP5 PUSH2 0x520 JUMP JUMPDEST PUSH2 0x2743 PUSH2 0x3066 JUMP JUMPDEST PUSH1 0x0 DUP1 SLOAD PUSH1 0x40 MLOAD PUSH32 0x9D3FA4B900000000000000000000000000000000000000000000000000000000 DUP2 MSTORE DUP3 SWAP2 PUSH20 0xFFFFFFFFFFFFFFFFFFFFFFFFFFFFFFFFFFFFFFFF AND SWAP1 PUSH4 0x9D3FA4B9 SWAP1 PUSH2 0x279A SWAP1 DUP9 SWAP1 PUSH1 0x4 ADD PUSH2 0x44AE JUMP JUMPDEST PUSH1 0x60 PUSH1 0x40 MLOAD DUP1 DUP4 SUB DUP2 DUP7 DUP1 EXTCODESIZE ISZERO DUP1 ISZERO PUSH2 0x27B2 JUMPI PUSH1 0x0 DUP1 REVERT JUMPDEST POP GAS STATICCALL ISZERO DUP1 ISZERO PUSH2 0x27C6 JUMPI RETURNDATASIZE PUSH1 0x0 DUP1 RETURNDATACOPY RETURNDATASIZE PUSH1 0x0 REVERT JUMPDEST POP POP POP POP PUSH1 0x40 MLOAD RETURNDATASIZE PUSH1 0x1F NOT PUSH1 0x1F DUP3 ADD AND DUP3 ADD DUP1 PUSH1 0x40 MSTORE POP PUSH2 0x27EA SWAP2 SWAP1 DUP2 ADD SWAP1 PUSH2 0x39C5 JUMP JUMPDEST DUP6 MLOAD PUSH1 0x0 SLOAD PUSH1 0x40 MLOAD PUSH32 0xF813E38400000000000000000000000000000000000000000000000000000000 DUP2 MSTORE SWAP3 SWAP6 POP SWAP1 SWAP2 PUSH20 0xFFFFFFFFFFFFFFFFFFFFFFFFFFFFFFFFFFFFFFFF SWAP1 SWAP2 AND SWAP1 PUSH4 0xF813E384 SWAP1 PUSH2 0x284B SWAP1 DUP10 SWAP1 DUP6 SWAP1 DUP11 SWAP1 PUSH1 0x4 ADD PUSH2 0x44C1 JUMP JUMPDEST PUSH1 0x20 PUSH1 0x40 MLOAD DUP1 DUP4 SUB DUP2 DUP7 DUP1 EXTCODESIZE ISZERO DUP1 ISZERO PUSH2 0x2863 JUMPI PUSH1 0x0 DUP1 REVERT JUMPDEST POP GAS STATICCALL ISZERO DUP1 ISZERO PUSH2 0x2877 JUMPI RETURNDATASIZE PUSH1 0x0 DUP1 RETURNDATACOPY RETURNDATASIZE PUSH1 0x0 REVERT JUMPDEST POP POP POP POP PUSH1 0x40 MLOAD RETURNDATASIZE PUSH1 0x1F NOT PUSH1 0x1F DUP3 ADD AND DUP3 ADD DUP1 PUSH1 0x40 MSTORE POP PUSH2 0x289B SWAP2 SWAP1 DUP2 ADD SWAP1 PUSH2 0x396E JUMP JUMPDEST SWAP2 POP PUSH1 0x0 PUSH2 0x28AE DUP3 DUP9 PUSH2 0x140 ADD MLOAD PUSH2 0x4F8 JUMP JUMPDEST PUSH1 0xA0 DUP9 ADD MLOAD PUSH1 0xC0 DUP10 ADD MLOAD PUSH2 0x180 DUP11 ADD MLOAD PUSH2 0x140 DUP12 ADD MLOAD SWAP4 SWAP5 POP SWAP2 SWAP3 SWAP1 SWAP2 PUSH1 0x0 SWAP2 PUSH2 0x28DD SWAP2 PUSH4 0xFFFFFFFF PUSH2 0x2CE9 AND JUMP JUMPDEST ISZERO PUSH2 0x2901 JUMPI PUSH2 0x28FA DUP5 PUSH2 0x28F4 DUP13 PUSH1 0x80 ADD MLOAD DUP6 PUSH2 0x2D0E JUMP JUMPDEST DUP6 PUSH2 0x2D4D JUMP JUMPDEST SWAP1 POP PUSH2 0x2962 JUMP JUMPDEST PUSH1 0x0 PUSH2 0x2912 DUP7 DUP13 PUSH2 0x180 ADD MLOAD PUSH2 0x4F8 JUMP JUMPDEST SWAP1 POP DUP3 PUSH2 0x292F JUMPI PUSH2 0x2928 DUP6 DUP13 PUSH1 0x80 ADD MLOAD DUP7 PUSH2 0x2D4D JUMP JUMPDEST SWAP2 POP PUSH2 0x2960 JUMP JUMPDEST PUSH1 0x0 PUSH2 0x2940 DUP7 DUP14 PUSH1 0x80 ADD MLOAD DUP8 PUSH2 0x2D4D JUMP JUMPDEST SWAP1 POP PUSH1 0x0 PUSH2 0x294F DUP4 DUP7 DUP9 PUSH2 0x2D4D JUMP JUMPDEST SWAP1 POP PUSH2 0x295B DUP3 DUP3 PUSH2 0x2A64 JUMP JUMPDEST SWAP4 POP POP POP JUMPDEST POP JUMPDEST PUSH2 0x2979 PUSH2 0x2973 DUP5 DUP11 PUSH1 0x40 ADD MLOAD PUSH2 0x2D7F JUMP JUMPDEST DUP3 PUSH2 0x2A64 JUMP JUMPDEST SWAP7 POP POP POP POP POP POP SWAP3 POP SWAP3 POP SWAP3 JUMP JUMPDEST PUSH1 0x0 DUP2 PUSH1 0x4 ADD DUP4 MLOAD LT ISZERO PUSH2 0x29C7 JUMPI PUSH1 0x40 MLOAD PUSH32 0x8C379A000000000000000000000000000000000000000000000000000000000 DUP2 MSTORE PUSH1 0x4 ADD PUSH2 0x47D SWAP1 PUSH2 0x43F6 JUMP JUMPDEST POP ADD PUSH1 0x20 ADD MLOAD PUSH32 0xFFFFFFFF00000000000000000000000000000000000000000000000000000000 AND SWAP1 JUMP JUMPDEST PUSH1 0x0 DUP2 PUSH1 0x14 ADD DUP4 MLOAD LT ISZERO PUSH2 0x2A32 JUMPI PUSH1 0x40 MLOAD PUSH32 0x8C379A000000000000000000000000000000000000000000000000000000000 DUP2 MSTORE PUSH1 0x4 ADD PUSH2 0x47D SWAP1 PUSH2 0x4399 JUMP JUMPDEST POP ADD PUSH1 0x14 ADD MLOAD PUSH20 0xFFFFFFFFFFFFFFFFFFFFFFFFFFFFFFFFFFFFFFFF AND SWAP1 JUMP JUMPDEST PUSH1 0x0 PUSH2 0x2A5D DUP4 DUP4 PUSH2 0x2DC1 JUMP JUMPDEST SWAP4 SWAP3 POP POP POP JUMP JUMPDEST PUSH1 0x0 DUP2 DUP4 LT PUSH2 0x2A73 JUMPI DUP2 PUSH2 0x2A5D JUMP JUMPDEST POP SWAP1 SWAP2 SWAP1 POP JUMP JUMPDEST PUSH1 0x60 DUP2 DUP4 GT ISZERO PUSH2 0x2AB6 JUMPI PUSH1 0x40 MLOAD PUSH32 0x8C379A000000000000000000000000000000000000000000000000000000000 DUP2 MSTORE PUSH1 0x4 ADD PUSH2 0x47D SWAP1 PUSH2 0x41F2 JUMP JUMPDEST DUP4 MLOAD DUP3 GT ISZERO PUSH2 0x2AF1 JUMPI PUSH1 0x40 MLOAD PUSH32 0x8C379A000000000000000000000000000000000000000000000000000000000 DUP2 MSTORE PUSH1 0x4 ADD PUSH2 0x47D SWAP1 PUSH2 0x4229 JUMP JUMPDEST DUP3 DUP3 SUB PUSH1 0x40 MLOAD SWAP1 DUP1 DUP3 MSTORE DUP1 PUSH1 0x1F ADD PUSH1 0x1F NOT AND PUSH1 0x20 ADD DUP3 ADD PUSH1 0x40 MSTORE DUP1 ISZERO PUSH2 0x2B1E JUMPI PUSH1 0x20 DUP3 ADD DUP2 DUP1 CODESIZE DUP4 CODECOPY ADD SWAP1 POP JUMPDEST POP SWAP1 POP PUSH2 0x2A5D PUSH2 0x2B2D DUP3 PUSH2 0x2E0A JUMP JUMPDEST DUP5 PUSH2 0x2B37 DUP8 PUSH2 0x2E0A JUMP JUMPDEST ADD DUP4 MLOAD PUSH2 0x2E10 JUMP JUMPDEST PUSH1 0x60 DUP1 PUSH1 0x60 PUSH2 0x2B5B PUSH1 0x4 DUP6 MLOAD DUP7 PUSH2 0x2A7A SWAP1 SWAP3 SWAP2 SWAP1 PUSH4 0xFFFFFFFF AND JUMP JUMPDEST DUP1 PUSH1 0x20 ADD SWAP1 MLOAD PUSH2 0x2B6E SWAP2 SWAP1 DUP2 ADD SWAP1 PUSH2 0x37F0 JUMP JUMPDEST SWAP2 SWAP7 SWAP1 SWAP6 POP SWAP1 SWAP4 POP SWAP2 POP POP JUMP JUMPDEST PUSH1 0x40 DUP1 MLOAD PUSH1 0x1 DUP1 DUP3 MSTORE DUP2 DUP4 ADD SWAP1 SWAP3 MSTORE PUSH1 0x60 SWAP2 DUP3 SWAP2 DUP3 SWAP2 DUP2 PUSH1 0x20 ADD JUMPDEST PUSH2 0x2B9E PUSH2 0x2F9F JUMP JUMPDEST DUP2 MSTORE PUSH1 0x20 ADD SWAP1 PUSH1 0x1 SWAP1 SUB SWAP1 DUP2 PUSH2 0x2B96 JUMPI POP POP PUSH1 0x40 DUP1 MLOAD PUSH1 0x1 DUP1 DUP3 MSTORE DUP2 DUP4 ADD SWAP1 SWAP3 MSTORE SWAP2 SWAP5 POP PUSH1 0x20 DUP1 DUP4 ADD SWAP1 DUP1 CODESIZE DUP4 CODECOPY ADD SWAP1 POP POP PUSH1 0x40 DUP1 MLOAD PUSH1 0x1 DUP1 DUP3 MSTORE DUP2 DUP4 ADD SWAP1 SWAP3 MSTORE SWAP2 SWAP4 POP DUP2 PUSH1 0x20 ADD JUMPDEST PUSH1 0x60 DUP2 MSTORE PUSH1 0x20 ADD SWAP1 PUSH1 0x1 SWAP1 SUB SWAP1 DUP2 PUSH2 0x2BE7 JUMPI POP POP DUP5 MLOAD SWAP1 SWAP2 POP PUSH2 0x2C14 SWAP1 DUP6 SWAP1 PUSH1 0x4 SWAP1 PUSH4 0xFFFFFFFF PUSH2 0x2A7A AND JUMP JUMPDEST DUP1 PUSH1 0x20 ADD SWAP1 MLOAD PUSH2 0x2C27 SWAP2 SWAP1 DUP2 ADD SWAP1 PUSH2 0x3B47 JUMP JUMPDEST DUP6 PUSH1 0x0 DUP2 MLOAD DUP2 LT PUSH2 0x2C34 JUMPI INVALID JUMPDEST PUSH1 0x20 MUL PUSH1 0x20 ADD ADD DUP6 PUSH1 0x0 DUP2 MLOAD DUP2 LT PUSH2 0x2C48 JUMPI INVALID JUMPDEST PUSH1 0x20 MUL PUSH1 0x20 ADD ADD DUP6 PUSH1 0x0 DUP2 MLOAD DUP2 LT PUSH2 0x2C5C JUMPI INVALID JUMPDEST PUSH1 0x20 SWAP1 DUP2 MUL SWAP2 SWAP1 SWAP2 ADD ADD SWAP3 SWAP1 SWAP3 MSTORE SWAP2 SWAP1 MSTORE MSTORE SWAP2 SWAP4 SWAP1 SWAP3 POP JUMP JUMPDEST PUSH1 0x40 DUP1 MLOAD PUSH1 0x1 DUP1 DUP3 MSTORE DUP2 DUP4 ADD SWAP1 SWAP3 MSTORE PUSH1 0x60 SWAP2 DUP3 SWAP2 DUP3 SWAP2 PUSH1 0x20 DUP1 DUP4 ADD SWAP1 DUP1 CODESIZE DUP4 CODECOPY POP POP DUP6 MLOAD SWAP2 SWAP4 POP PUSH2 0x2CB1 SWAP2 DUP7 SWAP2 POP PUSH1 0x4 SWAP1 PUSH4 0xFFFFFFFF PUSH2 0x2A7A AND JUMP JUMPDEST DUP1 PUSH1 0x20 ADD SWAP1 MLOAD PUSH2 0x2CC4 SWAP2 SWAP1 DUP2 ADD SWAP1 PUSH2 0x3874 JUMP JUMPDEST DUP5 MLOAD DUP6 SWAP1 PUSH1 0x0 SWAP1 PUSH2 0x2CD1 JUMPI INVALID JUMPDEST PUSH1 0x20 SWAP1 DUP2 MUL SWAP2 SWAP1 SWAP2 ADD ADD SWAP2 SWAP1 SWAP2 MSTORE SWAP1 SWAP6 SWAP3 SWAP5 POP SWAP3 POP POP JUMP JUMPDEST PUSH1 0x0 DUP2 MLOAD DUP4 MLOAD EQ DUP1 ISZERO PUSH2 0x2A5D JUMPI POP POP DUP1 MLOAD PUSH1 0x20 SWAP2 DUP3 ADD KECCAK256 DUP3 MLOAD SWAP3 SWAP1 SWAP2 ADD SWAP2 SWAP1 SWAP2 KECCAK256 EQ SWAP1 JUMP JUMPDEST PUSH1 0x0 DUP3 DUP3 ADD DUP4 DUP2 LT ISZERO PUSH2 0x2A5D JUMPI PUSH1 0x40 MLOAD PUSH32 0x8C379A000000000000000000000000000000000000000000000000000000000 DUP2 MSTORE PUSH1 0x4 ADD PUSH2 0x47D SWAP1 PUSH2 0x42F4 JUMP JUMPDEST PUSH1 0x0 DUP3 PUSH2 0x2D64 JUMPI PUSH2 0x2D64 PUSH2 0x2D5F PUSH2 0x2ED4 JUMP JUMPDEST PUSH2 0x2F2E JUMP JUMPDEST PUSH2 0x2D77 PUSH2 0x2D71 DUP6 DUP5 PUSH2 0x2F36 JUMP JUMPDEST DUP5 PUSH2 0x2F8A JUMP JUMPDEST SWAP5 SWAP4 POP POP POP POP JUMP JUMPDEST PUSH1 0x0 DUP3 DUP3 GT ISZERO PUSH2 0x2DBB JUMPI PUSH1 0x40 MLOAD PUSH32 0x8C379A000000000000000000000000000000000000000000000000000000000 DUP2 MSTORE PUSH1 0x4 ADD PUSH2 0x47D SWAP1 PUSH2 0x4260 JUMP JUMPDEST POP SWAP1 SUB SWAP1 JUMP JUMPDEST PUSH1 0x0 DUP2 PUSH1 0x20 ADD DUP4 MLOAD LT ISZERO PUSH2 0x2E01 JUMPI PUSH1 0x40 MLOAD PUSH32 0x8C379A000000000000000000000000000000000000000000000000000000000 DUP2 MSTORE PUSH1 0x4 ADD PUSH2 0x47D SWAP1 PUSH2 0x4297 JUMP JUMPDEST POP ADD PUSH1 0x20 ADD MLOAD SWAP1 JUMP JUMPDEST PUSH1 0x20 ADD SWAP1 JUMP JUMPDEST PUSH1 0x20 DUP2 LT ISZERO PUSH2 0x2E3A JUMPI PUSH1 0x1 DUP2 PUSH1 0x20 SUB PUSH2 0x100 EXP SUB DUP1 NOT DUP4 MLOAD AND DUP2 DUP6 MLOAD AND DUP1 DUP3 OR DUP7 MSTORE POP POP POP PUSH2 0x2ECF JUMP JUMPDEST DUP3 DUP3 EQ ISZERO PUSH2 0x2E47 JUMPI PUSH2 0x2ECF JUMP JUMPDEST DUP3 DUP3 GT ISZERO PUSH2 0x2E81 JUMPI PUSH1 0x20 DUP2 SUB SWAP1 POP DUP1 DUP3 ADD DUP2 DUP5 ADD DUP2 MLOAD JUMPDEST DUP3 DUP6 LT ISZERO PUSH2 0x2E79 JUMPI DUP5 MLOAD DUP7 MSTORE PUSH1 0x20 SWAP6 DUP7 ADD SWAP6 SWAP1 SWAP5 ADD SWAP4 PUSH2 0x2E5E JUMP JUMPDEST SWAP1 MSTORE POP PUSH2 0x2ECF JUMP JUMPDEST PUSH1 0x20 DUP2 SUB SWAP1 POP DUP1 DUP3 ADD DUP2 DUP5 ADD DUP4 MLOAD JUMPDEST DUP2 DUP7 SLT ISZERO PUSH2 0x2ECA JUMPI DUP3 MLOAD DUP3 MSTORE PUSH32 0xFFFFFFFFFFFFFFFFFFFFFFFFFFFFFFFFFFFFFFFFFFFFFFFFFFFFFFFFFFFFFFE0 SWAP3 DUP4 ADD SWAP3 SWAP1 SWAP2 ADD SWAP1 PUSH2 0x2E90 JUMP JUMPDEST DUP6 MSTORE POP POP JUMPDEST POP POP POP JUMP JUMPDEST PUSH1 0x40 DUP1 MLOAD PUSH1 0x4 DUP2 MSTORE PUSH1 0x24 DUP2 ADD SWAP1 SWAP2 MSTORE PUSH1 0x20 DUP2 ADD DUP1 MLOAD PUSH28 0xFFFFFFFFFFFFFFFFFFFFFFFFFFFFFFFFFFFFFFFFFFFFFFFFFFFFFFFF AND PUSH32 0xA791837C00000000000000000000000000000000000000000000000000000000 OR SWAP1 MSTORE SWAP1 JUMP JUMPDEST DUP1 MLOAD PUSH1 0x20 DUP3 ADD REVERT JUMPDEST PUSH1 0x0 DUP3 PUSH2 0x2F45 JUMPI POP PUSH1 0x0 PUSH2 0x51A JUMP JUMPDEST DUP3 DUP3 MUL DUP3 DUP5 DUP3 DUP2 PUSH2 0x2F52 JUMPI INVALID JUMPDEST DIV EQ PUSH2 0x2A5D JUMPI PUSH1 0x40 MLOAD PUSH32 0x8C379A000000000000000000000000000000000000000000000000000000000 DUP2 MSTORE PUSH1 0x4 ADD PUSH2 0x47D SWAP1 PUSH2 0x42F4 JUMP JUMPDEST PUSH1 0x0 DUP1 DUP3 DUP5 DUP2 PUSH2 0x2F96 JUMPI INVALID JUMPDEST DIV SWAP5 SWAP4 POP POP POP POP JUMP JUMPDEST PUSH1 0x40 MLOAD DUP1 PUSH2 0x1C0 ADD PUSH1 0x40 MSTORE DUP1 PUSH1 0x0 PUSH20 0xFFFFFFFFFFFFFFFFFFFFFFFFFFFFFFFFFFFFFFFF AND DUP2 MSTORE PUSH1 0x20 ADD PUSH1 0x0 PUSH20 0xFFFFFFFFFFFFFFFFFFFFFFFFFFFFFFFFFFFFFFFF AND DUP2 MSTORE PUSH1 0x20 ADD PUSH1 0x0 PUSH20 0xFFFFFFFFFFFFFFFFFFFFFFFFFFFFFFFFFFFFFFFF AND DUP2 MSTORE PUSH1 0x20 ADD PUSH1 0x0 PUSH20 0xFFFFFFFFFFFFFFFFFFFFFFFFFFFFFFFFFFFFFFFF AND DUP2 MSTORE PUSH1 0x20 ADD PUSH1 0x0 DUP2 MSTORE PUSH1 0x20 ADD PUSH1 0x0 DUP2 MSTORE PUSH1 0x20 ADD PUSH1 0x0 DUP2 MSTORE PUSH1 0x20 ADD PUSH1 0x0 DUP2 MSTORE PUSH1 0x20 ADD PUSH1 0x0 DUP2 MSTORE PUSH1 0x20 ADD PUSH1 0x0 DUP2 MSTORE PUSH1 0x20 ADD PUSH1 0x60 DUP2 MSTORE PUSH1 0x20 ADD PUSH1 0x60 DUP2 MSTORE PUSH1 0x20 ADD PUSH1 0x60 DUP2 MSTORE PUSH1 0x20 ADD PUSH1 0x60 DUP2 MSTORE POP SWAP1 JUMP JUMPDEST PUSH1 0x40 DUP1 MLOAD PUSH1 0x60 DUP2 ADD DUP3 MSTORE PUSH1 0x0 DUP1 DUP3 MSTORE PUSH1 0x20 DUP3 ADD DUP2 SWAP1 MSTORE SWAP2 DUP2 ADD SWAP2 SWAP1 SWAP2 MSTORE SWAP1 JUMP JUMPDEST DUP1 CALLDATALOAD PUSH2 0x51A DUP2 PUSH2 0x45D4 JUMP JUMPDEST DUP1 MLOAD PUSH2 0x51A DUP2 PUSH2 0x45D4 JUMP JUMPDEST PUSH1 0x0 DUP3 PUSH1 0x1F DUP4 ADD SLT PUSH2 0x30AC JUMPI DUP1 DUP2 REVERT JUMPDEST DUP2 MLOAD PUSH2 0x30BF PUSH2 0x30BA DUP3 PUSH2 0x4540 JUMP JUMPDEST PUSH2 0x4519 JUMP JUMPDEST DUP2 DUP2 MSTORE SWAP2 POP PUSH1 0x20 DUP1 DUP4 ADD SWAP1 DUP5 ADD PUSH1 0x0 JUMPDEST DUP4 DUP2 LT ISZERO PUSH2 0x30FC JUMPI PUSH2 0x30E7 DUP8 PUSH1 0x20 DUP5 MLOAD DUP10 ADD ADD PUSH2 0x32C6 JUMP JUMPDEST DUP4 MSTORE PUSH1 0x20 SWAP3 DUP4 ADD SWAP3 SWAP2 SWAP1 SWAP2 ADD SWAP1 PUSH1 0x1 ADD PUSH2 0x30CF JUMP JUMPDEST POP POP POP POP SWAP3 SWAP2 POP POP JUMP JUMPDEST PUSH1 0x0 DUP3 PUSH1 0x1F DUP4 ADD SLT PUSH2 0x3116 JUMPI DUP1 DUP2 REVERT JUMPDEST DUP2 CALLDATALOAD PUSH2 0x3124 PUSH2 0x30BA DUP3 PUSH2 0x4540 JUMP JUMPDEST DUP2 DUP2 MSTORE SWAP2 POP PUSH1 0x20 DUP1 DUP4 ADD SWAP1 DUP5 ADD PUSH1 0x0 JUMPDEST DUP4 DUP2 LT ISZERO PUSH2 0x30FC JUMPI PUSH2 0x314C DUP8 PUSH1 0x20 DUP5 CALLDATALOAD DUP10 ADD ADD PUSH2 0x3278 JUMP JUMPDEST DUP4 MSTORE PUSH1 0x20 SWAP3 DUP4 ADD SWAP3 SWAP2 SWAP1 SWAP2 ADD SWAP1 PUSH1 0x1 ADD PUSH2 0x3134 JUMP JUMPDEST PUSH1 0x0 DUP3 PUSH1 0x1F DUP4 ADD SLT PUSH2 0x3171 JUMPI DUP1 DUP2 REVERT JUMPDEST DUP2 MLOAD PUSH2 0x317F PUSH2 0x30BA DUP3 PUSH2 0x4540 JUMP JUMPDEST DUP2 DUP2 MSTORE SWAP2 POP PUSH1 0x20 DUP1 DUP4 ADD SWAP1 DUP5 ADD PUSH1 0x0 JUMPDEST DUP4 DUP2 LT ISZERO PUSH2 0x30FC JUMPI PUSH2 0x31A7 DUP8 PUSH1 0x20 DUP5 MLOAD DUP10 ADD ADD PUSH2 0x345B JUMP JUMPDEST DUP4 MSTORE PUSH1 0x20 SWAP3 DUP4 ADD SWAP3 SWAP2 SWAP1 SWAP2 ADD SWAP1 PUSH1 0x1 ADD PUSH2 0x318F JUMP JUMPDEST PUSH1 0x0 DUP3 PUSH1 0x1F DUP4 ADD SLT PUSH2 0x31CC JUMPI DUP1 DUP2 REVERT JUMPDEST DUP2 MLOAD PUSH2 0x31DA PUSH2 0x30BA DUP3 PUSH2 0x4540 JUMP JUMPDEST DUP2 DUP2 MSTORE SWAP2 POP PUSH1 0x20 DUP1 DUP4 ADD SWAP1 DUP5 DUP2 ADD DUP2 DUP5 MUL DUP7 ADD DUP3 ADD DUP8 LT ISZERO PUSH2 0x31FB JUMPI PUSH1 0x0 DUP1 REVERT JUMPDEST PUSH1 0x0 JUMPDEST DUP5 DUP2 LT ISZERO PUSH2 0x19B8 JUMPI DUP2 MLOAD DUP5 MSTORE SWAP3 DUP3 ADD SWAP3 SWAP1 DUP3 ADD SWAP1 PUSH1 0x1 ADD PUSH2 0x31FE JUMP JUMPDEST PUSH1 0x0 DUP3 PUSH1 0x1F DUP4 ADD SLT PUSH2 0x322A JUMPI DUP1 DUP2 REVERT JUMPDEST DUP2 CALLDATALOAD PUSH2 0x3238 PUSH2 0x30BA DUP3 PUSH2 0x4540 JUMP JUMPDEST DUP2 DUP2 MSTORE SWAP2 POP PUSH1 0x20 DUP1 DUP4 ADD SWAP1 DUP5 DUP2 ADD DUP2 DUP5 MUL DUP7 ADD DUP3 ADD DUP8 LT ISZERO PUSH2 0x3259 JUMPI PUSH1 0x0 DUP1 REVERT JUMPDEST PUSH1 0x0 JUMPDEST DUP5 DUP2 LT ISZERO PUSH2 0x19B8 JUMPI DUP2 CALLDATALOAD DUP5 MSTORE SWAP3 DUP3 ADD SWAP3 SWAP1 DUP3 ADD SWAP1 PUSH1 0x1 ADD PUSH2 0x325C JUMP JUMPDEST PUSH1 0x0 DUP3 PUSH1 0x1F DUP4 ADD SLT PUSH2 0x3288 JUMPI DUP1 DUP2 REVERT JUMPDEST DUP2 CALLDATALOAD PUSH2 0x3296 PUSH2 0x30BA DUP3 PUSH2 0x4561 JUMP JUMPDEST SWAP2 POP DUP1 DUP3 MSTORE DUP4 PUSH1 0x20 DUP3 DUP6 ADD ADD GT ISZERO PUSH2 0x32AD JUMPI PUSH1 0x0 DUP1 REVERT JUMPDEST DUP1 PUSH1 0x20 DUP5 ADD PUSH1 0x20 DUP5 ADD CALLDATACOPY PUSH1 0x0 SWAP1 DUP3 ADD PUSH1 0x20 ADD MSTORE SWAP3 SWAP2 POP POP JUMP JUMPDEST PUSH1 0x0 DUP3 PUSH1 0x1F DUP4 ADD SLT PUSH2 0x32D7 JUMPI PUSH1 0x0 DUP1 REVERT JUMPDEST DUP2 MLOAD PUSH2 0x32E5 PUSH2 0x30BA DUP3 PUSH2 0x4561 JUMP JUMPDEST SWAP2 POP DUP1 DUP3 MSTORE DUP4 PUSH1 0x20 DUP3 DUP6 ADD ADD GT ISZERO PUSH2 0x32FC JUMPI PUSH1 0x0 DUP1 REVERT JUMPDEST PUSH2 0x19BD DUP2 PUSH1 0x20 DUP5 ADD PUSH1 0x20 DUP7 ADD PUSH2 0x45A4 JUMP JUMPDEST PUSH1 0x0 PUSH2 0x1C0 DUP1 DUP4 DUP6 SUB SLT ISZERO PUSH2 0x3320 JUMPI DUP2 DUP3 REVERT JUMPDEST PUSH2 0x3329 DUP2 PUSH2 0x4519 JUMP JUMPDEST SWAP2 POP POP PUSH1 0x0 PUSH2 0x3338 DUP5 DUP5 PUSH2 0x3086 JUMP JUMPDEST DUP3 MSTORE PUSH2 0x3347 DUP5 PUSH1 0x20 DUP6 ADD PUSH2 0x3086 JUMP JUMPDEST PUSH1 0x20 DUP4 ADD MSTORE PUSH2 0x3359 DUP5 PUSH1 0x40 DUP6 ADD PUSH2 0x3086 JUMP JUMPDEST PUSH1 0x40 DUP4 ADD MSTORE PUSH2 0x336B DUP5 PUSH1 0x60 DUP6 ADD PUSH2 0x3086 JUMP JUMPDEST PUSH1 0x60 DUP4 ADD MSTORE PUSH1 0x80 DUP4 ADD CALLDATALOAD PUSH1 0x80 DUP4 ADD MSTORE PUSH1 0xA0 DUP4 ADD CALLDATALOAD PUSH1 0xA0 DUP4 ADD MSTORE PUSH1 0xC0 DUP4 ADD CALLDATALOAD PUSH1 0xC0 DUP4 ADD MSTORE PUSH1 0xE0 DUP4 ADD CALLDATALOAD PUSH1 0xE0 DUP4 ADD MSTORE PUSH2 0x100 DUP1 DUP5 ADD CALLDATALOAD DUP2 DUP5 ADD MSTORE POP PUSH2 0x120 DUP1 DUP5 ADD CALLDATALOAD DUP2 DUP5 ADD MSTORE POP PUSH2 0x140 DUP1 DUP5 ADD CALLDATALOAD PUSH8 0xFFFFFFFFFFFFFFFF DUP1 DUP3 GT ISZERO PUSH2 0x33CC JUMPI DUP4 DUP5 REVERT JUMPDEST PUSH2 0x33D8 DUP8 DUP4 DUP9 ADD PUSH2 0x3278 JUMP JUMPDEST DUP4 DUP7 ADD MSTORE PUSH2 0x160 SWAP3 POP DUP3 DUP7 ADD CALLDATALOAD SWAP2 POP DUP1 DUP3 GT ISZERO PUSH2 0x33F3 JUMPI DUP4 DUP5 REVERT JUMPDEST PUSH2 0x33FF DUP8 DUP4 DUP9 ADD PUSH2 0x3278 JUMP JUMPDEST DUP4 DUP7 ADD MSTORE PUSH2 0x180 SWAP3 POP DUP3 DUP7 ADD CALLDATALOAD SWAP2 POP DUP1 DUP3 GT ISZERO PUSH2 0x341A JUMPI DUP4 DUP5 REVERT JUMPDEST PUSH2 0x3426 DUP8 DUP4 DUP9 ADD PUSH2 0x3278 JUMP JUMPDEST DUP4 DUP7 ADD MSTORE PUSH2 0x1A0 SWAP3 POP DUP3 DUP7 ADD CALLDATALOAD SWAP2 POP DUP1 DUP3 GT ISZERO PUSH2 0x3441 JUMPI DUP4 DUP5 REVERT JUMPDEST POP PUSH2 0x344E DUP7 DUP3 DUP8 ADD PUSH2 0x3278 JUMP JUMPDEST DUP3 DUP6 ADD MSTORE POP POP POP SWAP3 SWAP2 POP POP JUMP JUMPDEST PUSH1 0x0 PUSH2 0x1C0 DUP1 DUP4 DUP6 SUB SLT ISZERO PUSH2 0x346E JUMPI DUP2 DUP3 REVERT JUMPDEST PUSH2 0x3477 DUP2 PUSH2 0x4519 JUMP JUMPDEST SWAP2 POP POP PUSH1 0x0 PUSH2 0x3486 DUP5 DUP5 PUSH2 0x3091 JUMP JUMPDEST DUP3 MSTORE PUSH2 0x3495 DUP5 PUSH1 0x20 DUP6 ADD PUSH2 0x3091 JUMP JUMPDEST PUSH1 0x20 DUP4 ADD MSTORE PUSH2 0x34A7 DUP5 PUSH1 0x40 DUP6 ADD PUSH2 0x3091 JUMP JUMPDEST PUSH1 0x40 DUP4 ADD MSTORE PUSH2 0x34B9 DUP5 PUSH1 0x60 DUP6 ADD PUSH2 0x3091 JUMP JUMPDEST PUSH1 0x60 DUP4 ADD MSTORE PUSH1 0x80 DUP4 ADD MLOAD PUSH1 0x80 DUP4 ADD MSTORE PUSH1 0xA0 DUP4 ADD MLOAD PUSH1 0xA0 DUP4 ADD MSTORE PUSH1 0xC0 DUP4 ADD MLOAD PUSH1 0xC0 DUP4 ADD MSTORE PUSH1 0xE0 DUP4 ADD MLOAD PUSH1 0xE0 DUP4 ADD MSTORE PUSH2 0x100 DUP1 DUP5 ADD MLOAD DUP2 DUP5 ADD MSTORE POP PUSH2 0x120 DUP1 DUP5 ADD MLOAD DUP2 DUP5 ADD MSTORE POP PUSH2 0x140 DUP1 DUP5 ADD MLOAD PUSH8 0xFFFFFFFFFFFFFFFF DUP1 DUP3 GT ISZERO PUSH2 0x351A JUMPI DUP4 DUP5 REVERT JUMPDEST PUSH2 0x3526 DUP8 DUP4 DUP9 ADD PUSH2 0x32C6 JUMP JUMPDEST DUP4 DUP7 ADD MSTORE PUSH2 0x160 SWAP3 POP DUP3 DUP7 ADD MLOAD SWAP2 POP DUP1 DUP3 GT ISZERO PUSH2 0x3541 JUMPI DUP4 DUP5 REVERT JUMPDEST PUSH2 0x354D DUP8 DUP4 DUP9 ADD PUSH2 0x32C6 JUMP JUMPDEST DUP4 DUP7 ADD MSTORE PUSH2 0x180 SWAP3 POP DUP3 DUP7 ADD MLOAD SWAP2 POP DUP1 DUP3 GT ISZERO PUSH2 0x3568 JUMPI DUP4 DUP5 REVERT JUMPDEST PUSH2 0x3574 DUP8 DUP4 DUP9 ADD PUSH2 0x32C6 JUMP JUMPDEST DUP4 DUP7 ADD MSTORE PUSH2 0x1A0 SWAP3 POP DUP3 DUP7 ADD MLOAD SWAP2 POP DUP1 DUP3 GT ISZERO PUSH2 0x358F JUMPI DUP4 DUP5 REVERT JUMPDEST POP PUSH2 0x344E DUP7 DUP3 DUP8 ADD PUSH2 0x32C6 JUMP JUMPDEST PUSH1 0x0 PUSH1 0x20 DUP3 DUP5 SUB SLT ISZERO PUSH2 0x35AE JUMPI PUSH1 0x0 DUP1 REVERT JUMPDEST DUP2 CALLDATALOAD PUSH2 0x2A5D DUP2 PUSH2 0x45D4 JUMP JUMPDEST PUSH1 0x0 DUP1 PUSH1 0x40 DUP4 DUP6 SUB SLT ISZERO PUSH2 0x35CC JUMPI PUSH1 0x0 DUP1 REVERT JUMPDEST DUP3 CALLDATALOAD PUSH2 0x35D7 DUP2 PUSH2 0x45D4 JUMP JUMPDEST SWAP2 POP PUSH1 0x20 DUP4 ADD CALLDATALOAD PUSH8 0xFFFFFFFFFFFFFFFF DUP2 GT ISZERO PUSH2 0x35F3 JUMPI PUSH1 0x0 DUP1 REVERT JUMPDEST PUSH2 0x35FF DUP6 DUP3 DUP7 ADD PUSH2 0x3106 JUMP JUMPDEST SWAP2 POP POP SWAP3 POP SWAP3 SWAP1 POP JUMP JUMPDEST PUSH1 0x0 DUP1 PUSH1 0x0 DUP1 PUSH1 0x80 DUP6 DUP8 SUB SLT ISZERO PUSH2 0x361E JUMPI DUP2 DUP3 REVERT JUMPDEST DUP5 CALLDATALOAD PUSH2 0x3629 DUP2 PUSH2 0x45D4 JUMP JUMPDEST SWAP4 POP PUSH1 0x20 DUP6 ADD CALLDATALOAD PUSH8 0xFFFFFFFFFFFFFFFF DUP1 DUP3 GT ISZERO PUSH2 0x3645 JUMPI DUP4 DUP5 REVERT JUMPDEST PUSH2 0x3651 DUP9 DUP4 DUP10 ADD PUSH2 0x321A JUMP JUMPDEST SWAP5 POP PUSH1 0x40 DUP8 ADD CALLDATALOAD SWAP2 POP DUP1 DUP3 GT ISZERO PUSH2 0x3666 JUMPI DUP4 DUP5 REVERT JUMPDEST PUSH2 0x3672 DUP9 DUP4 DUP10 ADD PUSH2 0x321A JUMP JUMPDEST SWAP4 POP PUSH1 0x60 DUP8 ADD CALLDATALOAD SWAP2 POP DUP1 DUP3 GT ISZERO PUSH2 0x3688 JUMPI PUSH1 0x0 DUP1 REVERT JUMPDEST POP PUSH2 0x3695 DUP8 DUP3 DUP9 ADD PUSH2 0x3278 JUMP JUMPDEST SWAP2 POP POP SWAP3 SWAP6 SWAP2 SWAP5 POP SWAP3 POP JUMP JUMPDEST PUSH1 0x0 DUP1 PUSH1 0x40 DUP4 DUP6 SUB SLT ISZERO PUSH2 0x36B4 JUMPI PUSH1 0x0 DUP1 REVERT JUMPDEST DUP3 CALLDATALOAD PUSH2 0x36BF DUP2 PUSH2 0x45D4 JUMP JUMPDEST SWAP2 POP PUSH1 0x20 DUP4 ADD CALLDATALOAD PUSH8 0xFFFFFFFFFFFFFFFF DUP2 GT ISZERO PUSH2 0x36DB JUMPI PUSH1 0x0 DUP1 REVERT JUMPDEST PUSH2 0x35FF DUP6 DUP3 DUP7 ADD PUSH2 0x3278 JUMP JUMPDEST PUSH1 0x0 DUP1 PUSH1 0x40 DUP4 DUP6 SUB SLT ISZERO PUSH2 0x36FA JUMPI PUSH1 0x0 DUP1 REVERT JUMPDEST DUP3 CALLDATALOAD PUSH2 0x3705 DUP2 PUSH2 0x45D4 JUMP JUMPDEST SWAP5 PUSH1 0x20 SWAP4 SWAP1 SWAP4 ADD CALLDATALOAD SWAP4 POP POP POP JUMP JUMPDEST PUSH1 0x0 PUSH1 0x20 DUP3 DUP5 SUB SLT ISZERO PUSH2 0x3725 JUMPI PUSH1 0x0 DUP1 REVERT JUMPDEST DUP2 MLOAD PUSH8 0xFFFFFFFFFFFFFFFF DUP2 GT ISZERO PUSH2 0x373C JUMPI PUSH1 0x0 DUP1 REVERT JUMPDEST PUSH2 0x2D77 DUP5 DUP3 DUP6 ADD PUSH2 0x3161 JUMP JUMPDEST PUSH1 0x0 DUP1 PUSH1 0x40 DUP4 DUP6 SUB SLT ISZERO PUSH2 0x375A JUMPI DUP2 DUP3 REVERT JUMPDEST DUP3 CALLDATALOAD PUSH8 0xFFFFFFFFFFFFFFFF DUP1 DUP3 GT ISZERO PUSH2 0x3771 JUMPI DUP4 DUP5 REVERT JUMPDEST DUP2 DUP6 ADD DUP7 PUSH1 0x1F DUP3 ADD SLT PUSH2 0x3782 JUMPI DUP5 DUP6 REVERT JUMPDEST DUP1 CALLDATALOAD SWAP3 POP PUSH2 0x3792 PUSH2 0x30BA DUP5 PUSH2 0x4540 JUMP JUMPDEST DUP4 DUP2 MSTORE PUSH1 0x20 DUP1 DUP3 ADD SWAP2 SWAP1 DUP4 DUP2 ADD DUP9 JUMPDEST DUP8 DUP2 LT ISZERO PUSH2 0x37CA JUMPI PUSH2 0x37B8 DUP13 DUP5 DUP5 CALLDATALOAD DUP10 ADD ADD PUSH2 0x330D JUMP JUMPDEST DUP6 MSTORE SWAP4 DUP3 ADD SWAP4 SWAP1 DUP3 ADD SWAP1 PUSH1 0x1 ADD PUSH2 0x37A1 JUMP JUMPDEST POP SWAP2 SWAP8 POP DUP9 ADD CALLDATALOAD SWAP5 POP POP POP POP DUP1 DUP3 GT ISZERO PUSH2 0x37E3 JUMPI PUSH1 0x0 DUP1 REVERT JUMPDEST POP PUSH2 0x35FF DUP6 DUP3 DUP7 ADD PUSH2 0x3106 JUMP JUMPDEST PUSH1 0x0 DUP1 PUSH1 0x0 PUSH1 0x60 DUP5 DUP7 SUB SLT ISZERO PUSH2 0x3804 JUMPI DUP1 DUP2 REVERT JUMPDEST DUP4 MLOAD PUSH8 0xFFFFFFFFFFFFFFFF DUP1 DUP3 GT ISZERO PUSH2 0x381B JUMPI DUP3 DUP4 REVERT JUMPDEST PUSH2 0x3827 DUP8 DUP4 DUP9 ADD PUSH2 0x3161 JUMP JUMPDEST SWAP5 POP PUSH1 0x20 DUP7 ADD MLOAD SWAP2 POP DUP1 DUP3 GT ISZERO PUSH2 0x383C JUMPI DUP3 DUP4 REVERT JUMPDEST PUSH2 0x3848 DUP8 DUP4 DUP9 ADD PUSH2 0x31BC JUMP JUMPDEST SWAP4 POP PUSH1 0x40 DUP7 ADD MLOAD SWAP2 POP DUP1 DUP3 GT ISZERO PUSH2 0x385D JUMPI DUP3 DUP4 REVERT JUMPDEST POP PUSH2 0x386A DUP7 DUP3 DUP8 ADD PUSH2 0x309C JUMP JUMPDEST SWAP2 POP POP SWAP3 POP SWAP3 POP SWAP3 JUMP JUMPDEST PUSH1 0x0 DUP1 PUSH1 0x0 PUSH1 0x60 DUP5 DUP7 SUB SLT ISZERO PUSH2 0x3888 JUMPI DUP1 DUP2 REVERT JUMPDEST DUP4 MLOAD PUSH8 0xFFFFFFFFFFFFFFFF DUP1 DUP3 GT ISZERO PUSH2 0x389F JUMPI DUP3 DUP4 REVERT JUMPDEST PUSH2 0x38AB DUP8 DUP4 DUP9 ADD PUSH2 0x3161 JUMP JUMPDEST SWAP5 POP PUSH1 0x20 DUP7 ADD MLOAD SWAP4 POP PUSH1 0x40 DUP7 ADD MLOAD SWAP2 POP DUP1 DUP3 GT ISZERO PUSH2 0x385D JUMPI DUP3 DUP4 REVERT JUMPDEST PUSH1 0x0 DUP1 PUSH1 0x40 DUP4 DUP6 SUB SLT ISZERO PUSH2 0x38DA JUMPI PUSH1 0x0 DUP1 REVERT JUMPDEST DUP3 CALLDATALOAD PUSH8 0xFFFFFFFFFFFFFFFF DUP1 DUP3 GT ISZERO PUSH2 0x38F2 JUMPI PUSH1 0x0 DUP1 REVERT JUMPDEST PUSH2 0x38FE DUP7 DUP4 DUP8 ADD PUSH2 0x321A JUMP JUMPDEST SWAP4 POP PUSH1 0x20 DUP6 ADD CALLDATALOAD SWAP2 POP DUP1 DUP3 GT ISZERO PUSH2 0x37E3 JUMPI PUSH1 0x0 DUP1 REVERT JUMPDEST PUSH1 0x0 DUP1 PUSH1 0x40 DUP4 DUP6 SUB SLT ISZERO PUSH2 0x3927 JUMPI PUSH1 0x0 DUP1 REVERT JUMPDEST DUP3 MLOAD PUSH8 0xFFFFFFFFFFFFFFFF DUP1 DUP3 GT ISZERO PUSH2 0x393F JUMPI PUSH1 0x0 DUP1 REVERT JUMPDEST PUSH2 0x394B DUP7 DUP4 DUP8 ADD PUSH2 0x31BC JUMP JUMPDEST SWAP4 POP PUSH1 0x20 DUP6 ADD MLOAD SWAP2 POP DUP1 DUP3 GT ISZERO PUSH2 0x3961 JUMPI PUSH1 0x0 DUP1 REVERT JUMPDEST POP PUSH2 0x35FF DUP6 DUP3 DUP7 ADD PUSH2 0x309C JUMP JUMPDEST PUSH1 0x0 PUSH1 0x20 DUP3 DUP5 SUB SLT ISZERO PUSH2 0x3980 JUMPI PUSH1 0x0 DUP1 REVERT JUMPDEST DUP2 MLOAD DUP1 ISZERO ISZERO DUP2 EQ PUSH2 0x2A5D JUMPI PUSH1 0x0 DUP1 REVERT JUMPDEST PUSH1 0x0 PUSH1 0x20 DUP3 DUP5 SUB SLT ISZERO PUSH2 0x39A2 JUMPI PUSH1 0x0 DUP1 REVERT JUMPDEST DUP2 CALLDATALOAD PUSH8 0xFFFFFFFFFFFFFFFF DUP2 GT ISZERO PUSH2 0x39B9 JUMPI PUSH1 0x0 DUP1 REVERT JUMPDEST PUSH2 0x2D77 DUP5 DUP3 DUP6 ADD PUSH2 0x3278 JUMP JUMPDEST PUSH1 0x0 PUSH1 0x60 DUP3 DUP5 SUB SLT DUP1 ISZERO PUSH2 0x39D7 JUMPI DUP2 DUP3 REVERT JUMPDEST DUP1 ISZERO PUSH2 0x39E1 JUMPI DUP2 DUP3 REVERT JUMPDEST POP PUSH2 0x39EC PUSH1 0x60 PUSH2 0x4519 JUMP JUMPDEST DUP3 MLOAD PUSH1 0xFF DUP2 AND DUP2 EQ PUSH2 0x39FC JUMPI DUP3 DUP4 REVERT JUMPDEST DUP2 MSTORE PUSH1 0x20 DUP4 DUP2 ADD MLOAD SWAP1 DUP3 ADD MSTORE PUSH1 0x40 SWAP3 DUP4 ADD MLOAD SWAP3 DUP2 ADD SWAP3 SWAP1 SWAP3 MSTORE POP SWAP2 SWAP1 POP JUMP JUMPDEST PUSH1 0x0 PUSH1 0x20 DUP3 DUP5 SUB SLT ISZERO PUSH2 0x3A2D JUMPI PUSH1 0x0 DUP1 REVERT JUMPDEST DUP2 MLOAD PUSH8 0xFFFFFFFFFFFFFFFF DUP2 GT ISZERO PUSH2 0x3A44 JUMPI PUSH1 0x0 DUP1 REVERT JUMPDEST PUSH2 0x2D77 DUP5 DUP3 DUP6 ADD PUSH2 0x345B JUMP JUMPDEST PUSH1 0x0 DUP1 PUSH1 0x40 DUP4 DUP6 SUB SLT ISZERO PUSH2 0x3A63 JUMPI PUSH1 0x0 DUP1 REVERT JUMPDEST DUP3 CALLDATALOAD PUSH8 0xFFFFFFFFFFFFFFFF DUP1 DUP3 GT ISZERO PUSH2 0x3A7B JUMPI PUSH1 0x0 DUP1 REVERT JUMPDEST PUSH2 0x3A87 DUP7 DUP4 DUP8 ADD PUSH2 0x330D JUMP JUMPDEST SWAP4 POP PUSH1 0x20 DUP6 ADD CALLDATALOAD SWAP2 POP DUP1 DUP3 GT ISZERO PUSH2 0x3A9D JUMPI PUSH1 0x0 DUP1 REVERT JUMPDEST POP PUSH2 0x35FF DUP6 DUP3 DUP7 ADD PUSH2 0x3278 JUMP JUMPDEST PUSH1 0x0 DUP1 PUSH1 0x0 DUP1 PUSH1 0x80 DUP6 DUP8 SUB SLT ISZERO PUSH2 0x3ABF JUMPI DUP2 DUP3 REVERT JUMPDEST DUP5 MLOAD PUSH8 0xFFFFFFFFFFFFFFFF DUP1 DUP3 GT ISZERO PUSH2 0x3AD6 JUMPI DUP4 DUP5 REVERT JUMPDEST PUSH2 0x3AE2 DUP9 DUP4 DUP10 ADD PUSH2 0x345B JUMP JUMPDEST SWAP6 POP PUSH1 0x20 DUP8 ADD MLOAD SWAP2 POP DUP1 DUP3 GT ISZERO PUSH2 0x3AF7 JUMPI DUP4 DUP5 REVERT JUMPDEST PUSH2 0x3B03 DUP9 DUP4 DUP10 ADD PUSH2 0x345B JUMP JUMPDEST SWAP5 POP PUSH1 0x40 DUP8 ADD MLOAD SWAP2 POP DUP1 DUP3 GT ISZERO PUSH2 0x3B18 JUMPI DUP4 DUP5 REVERT JUMPDEST PUSH2 0x3B24 DUP9 DUP4 DUP10 ADD PUSH2 0x32C6 JUMP JUMPDEST SWAP4 POP PUSH1 0x60 DUP8 ADD MLOAD SWAP2 POP DUP1 DUP3 GT ISZERO PUSH2 0x3B3A JUMPI PUSH1 0x0 DUP1 REVERT JUMPDEST POP PUSH2 0x3695 DUP8 DUP3 DUP9 ADD PUSH2 0x32C6 JUMP JUMPDEST PUSH1 0x0 DUP1 PUSH1 0x0 PUSH1 0x60 DUP5 DUP7 SUB SLT ISZERO PUSH2 0x3B5B JUMPI DUP1 DUP2 REVERT JUMPDEST DUP4 MLOAD PUSH8 0xFFFFFFFFFFFFFFFF DUP1 DUP3 GT ISZERO PUSH2 0x3B72 JUMPI DUP3 DUP4 REVERT JUMPDEST PUSH2 0x3B7E DUP8 DUP4 DUP9 ADD PUSH2 0x345B JUMP JUMPDEST SWAP5 POP PUSH1 0x20 DUP7 ADD MLOAD SWAP4 POP PUSH1 0x40 DUP7 ADD MLOAD SWAP2 POP DUP1 DUP3 GT ISZERO PUSH2 0x3B9A JUMPI DUP3 DUP4 REVERT JUMPDEST POP PUSH2 0x386A DUP7 DUP3 DUP8 ADD PUSH2 0x32C6 JUMP JUMPDEST PUSH20 0xFFFFFFFFFFFFFFFFFFFFFFFFFFFFFFFFFFFFFFFF AND SWAP1 MSTORE JUMP JUMPDEST PUSH1 0x0 DUP2 MLOAD DUP1 DUP5 MSTORE PUSH1 0x20 DUP5 ADD SWAP4 POP DUP4 PUSH1 0x20 DUP3 MUL DUP6 ADD PUSH1 0x20 DUP6 ADD PUSH1 0x0 JUMPDEST DUP5 DUP2 LT ISZERO PUSH2 0x3C0A JUMPI DUP4 DUP4 SUB DUP9 MSTORE PUSH2 0x3BF4 DUP4 DUP4 MLOAD PUSH2 0x3C52 JUMP JUMPDEST PUSH1 0x20 SWAP9 DUP10 ADD SWAP9 SWAP1 SWAP4 POP SWAP2 SWAP1 SWAP2 ADD SWAP1 PUSH1 0x1 ADD PUSH2 0x3BDC JUMP JUMPDEST POP SWAP1 SWAP7 SWAP6 POP POP POP POP POP POP JUMP JUMPDEST PUSH1 0x0 DUP2 MLOAD DUP1 DUP5 MSTORE PUSH1 0x20 DUP5 ADD SWAP4 POP PUSH1 0x20 DUP4 ADD PUSH1 0x0 JUMPDEST DUP3 DUP2 LT ISZERO PUSH2 0x3C48 JUMPI DUP2 MLOAD DUP7 MSTORE PUSH1 0x20 SWAP6 DUP7 ADD SWAP6 SWAP1 SWAP2 ADD SWAP1 PUSH1 0x1 ADD PUSH2 0x3C2A JUMP JUMPDEST POP SWAP4 SWAP5 SWAP4 POP POP POP POP JUMP JUMPDEST PUSH1 0x0 DUP2 MLOAD DUP1 DUP5 MSTORE PUSH2 0x3C6A DUP2 PUSH1 0x20 DUP7 ADD PUSH1 0x20 DUP7 ADD PUSH2 0x45A4 JUMP JUMPDEST PUSH1 0x1F ADD PUSH32 0xFFFFFFFFFFFFFFFFFFFFFFFFFFFFFFFFFFFFFFFFFFFFFFFFFFFFFFFFFFFFFFE0 AND SWAP3 SWAP1 SWAP3 ADD PUSH1 0x20 ADD SWAP3 SWAP2 POP POP JUMP JUMPDEST DUP1 MLOAD PUSH1 0xFF AND DUP3 MSTORE PUSH1 0x20 DUP1 DUP3 ADD MLOAD SWAP1 DUP4 ADD MSTORE PUSH1 0x40 SWAP1 DUP2 ADD MLOAD SWAP2 ADD MSTORE JUMP JUMPDEST PUSH1 0x0 PUSH2 0x1C0 PUSH2 0x3CC8 DUP5 DUP5 MLOAD PUSH2 0x3BA7 JUMP JUMPDEST PUSH1 0x20 DUP4 ADD MLOAD PUSH2 0x3CDA PUSH1 0x20 DUP7 ADD DUP3 PUSH2 0x3BA7 JUMP JUMPDEST POP PUSH1 0x40 DUP4 ADD MLOAD PUSH2 0x3CED PUSH1 0x40 DUP7 ADD DUP3 PUSH2 0x3BA7 JUMP JUMPDEST POP PUSH1 0x60 DUP4 ADD MLOAD PUSH2 0x3D00 PUSH1 0x60 DUP7 ADD DUP3 PUSH2 0x3BA7 JUMP JUMPDEST POP PUSH1 0x80 DUP4 ADD MLOAD PUSH1 0x80 DUP6 ADD MSTORE PUSH1 0xA0 DUP4 ADD MLOAD PUSH1 0xA0 DUP6 ADD MSTORE PUSH1 0xC0 DUP4 ADD MLOAD PUSH1 0xC0 DUP6 ADD MSTORE PUSH1 0xE0 DUP4 ADD MLOAD PUSH1 0xE0 DUP6 ADD MSTORE PUSH2 0x100 DUP1 DUP5 ADD MLOAD DUP2 DUP7 ADD MSTORE POP PUSH2 0x120 DUP1 DUP5 ADD MLOAD DUP2 DUP7 ADD MSTORE POP PUSH2 0x140 DUP1 DUP5 ADD MLOAD DUP3 DUP3 DUP8 ADD MSTORE PUSH2 0x3D59 DUP4 DUP8 ADD DUP3 PUSH2 0x3C52 JUMP JUMPDEST SWAP2 POP POP PUSH2 0x160 SWAP2 POP DUP2 DUP5 ADD MLOAD DUP6 DUP3 SUB DUP4 DUP8 ADD MSTORE PUSH2 0x3D76 DUP3 DUP3 PUSH2 0x3C52 JUMP JUMPDEST SWAP3 POP POP POP PUSH2 0x180 DUP1 DUP5 ADD MLOAD DUP6 DUP4 SUB DUP3 DUP8 ADD MSTORE PUSH2 0x3D92 DUP4 DUP3 PUSH2 0x3C52 JUMP JUMPDEST SWAP2 POP POP PUSH2 0x1A0 SWAP2 POP DUP2 DUP5 ADD MLOAD DUP6 DUP3 SUB DUP4 DUP8 ADD MSTORE PUSH2 0x1DF9 DUP3 DUP3 PUSH2 0x3C52 JUMP JUMPDEST PUSH1 0x0 DUP3 MLOAD PUSH2 0x3DC1 DUP2 DUP5 PUSH1 0x20 DUP8 ADD PUSH2 0x45A4 JUMP JUMPDEST SWAP2 SWAP1 SWAP2 ADD SWAP3 SWAP2 POP POP JUMP JUMPDEST PUSH20 0xFFFFFFFFFFFFFFFFFFFFFFFFFFFFFFFFFFFFFFFF SWAP2 SWAP1 SWAP2 AND DUP2 MSTORE PUSH1 0x20 ADD SWAP1 JUMP JUMPDEST PUSH20 0xFFFFFFFFFFFFFFFFFFFFFFFFFFFFFFFFFFFFFFFF SWAP3 DUP4 AND DUP2 MSTORE SWAP2 AND PUSH1 0x20 DUP3 ADD MSTORE PUSH1 0x40 ADD SWAP1 JUMP JUMPDEST PUSH1 0x0 PUSH20 0xFFFFFFFFFFFFFFFFFFFFFFFFFFFFFFFFFFFFFFFF DUP7 AND DUP3 MSTORE PUSH1 0x80 PUSH1 0x20 DUP4 ADD MSTORE PUSH2 0x3E42 PUSH1 0x80 DUP4 ADD DUP7 PUSH2 0x3C16 JUMP JUMPDEST DUP3 DUP2 SUB PUSH1 0x40 DUP5 ADD MSTORE PUSH2 0x3E54 DUP2 DUP7 PUSH2 0x3C16 JUMP JUMPDEST DUP4 DUP2 SUB PUSH1 0x60 DUP6 ADD MSTORE PUSH2 0x25C1 DUP2 DUP7 PUSH2 0x3C52 JUMP JUMPDEST PUSH20 0xFFFFFFFFFFFFFFFFFFFFFFFFFFFFFFFFFFFFFFFF SWAP3 SWAP1 SWAP3 AND DUP3 MSTORE PUSH1 0x20 DUP3 ADD MSTORE PUSH1 0x40 ADD SWAP1 JUMP JUMPDEST PUSH1 0x60 DUP1 DUP3 MSTORE DUP5 MLOAD SWAP1 DUP3 ADD DUP2 SWAP1 MSTORE PUSH1 0x0 SWAP1 PUSH1 0x20 SWAP1 PUSH1 0x80 DUP5 ADD SWAP1 DUP3 DUP9 ADD DUP5 JUMPDEST DUP3 DUP2 LT ISZERO PUSH2 0x3ECF JUMPI PUSH2 0x3EBC DUP5 DUP4 MLOAD PUSH2 0x3C9C JUMP JUMPDEST PUSH1 0x60 SWAP4 SWAP1 SWAP4 ADD SWAP3 SWAP1 DUP5 ADD SWAP1 PUSH1 0x1 ADD PUSH2 0x3EA9 JUMP JUMPDEST POP POP POP DUP4 DUP2 SUB DUP3 DUP6 ADD MSTORE PUSH2 0x3EE3 DUP2 DUP8 PUSH2 0x3C16 JUMP JUMPDEST DUP5 DUP2 SUB PUSH1 0x40 DUP7 ADD MSTORE DUP6 MLOAD DUP1 DUP3 MSTORE SWAP1 DUP4 ADD SWAP2 POP DUP3 DUP7 ADD SWAP1 PUSH1 0x0 JUMPDEST DUP2 DUP2 LT ISZERO PUSH2 0x3F1A JUMPI DUP3 MLOAD ISZERO ISZERO DUP5 MSTORE SWAP3 DUP5 ADD SWAP3 SWAP2 DUP5 ADD SWAP2 PUSH1 0x1 ADD PUSH2 0x3EFC JUMP JUMPDEST POP SWAP2 SWAP9 SWAP8 POP POP POP POP POP POP POP POP JUMP JUMPDEST PUSH1 0x0 PUSH1 0x20 DUP3 MSTORE PUSH2 0x2A5D PUSH1 0x20 DUP4 ADD DUP5 PUSH2 0x3C16 JUMP JUMPDEST PUSH1 0x0 PUSH1 0x40 DUP3 MSTORE PUSH2 0x3F4E PUSH1 0x40 DUP4 ADD DUP6 PUSH2 0x3C16 JUMP JUMPDEST DUP3 DUP2 SUB PUSH1 0x20 DUP5 ADD MSTORE PUSH2 0x3F60 DUP2 DUP6 PUSH2 0x3BC1 JUMP JUMPDEST SWAP6 SWAP5 POP POP POP POP POP JUMP JUMPDEST PUSH1 0x0 PUSH1 0x40 DUP3 MSTORE PUSH2 0x3F7C PUSH1 0x40 DUP4 ADD DUP6 PUSH2 0x3C16 JUMP JUMPDEST DUP3 DUP2 SUB PUSH1 0x20 DUP5 ADD MSTORE PUSH2 0x3F60 DUP2 DUP6 PUSH2 0x3C16 JUMP JUMPDEST PUSH32 0xFFFFFFFF00000000000000000000000000000000000000000000000000000000 SWAP2 SWAP1 SWAP2 AND DUP2 MSTORE PUSH1 0x20 ADD SWAP1 JUMP JUMPDEST PUSH32 0xFFFFFFFF00000000000000000000000000000000000000000000000000000000 SWAP3 SWAP1 SWAP3 AND DUP3 MSTORE PUSH20 0xFFFFFFFFFFFFFFFFFFFFFFFFFFFFFFFFFFFFFFFF AND PUSH1 0x20 DUP3 ADD MSTORE PUSH1 0x40 ADD SWAP1 JUMP JUMPDEST PUSH1 0x0 PUSH32 0xFFFFFFFF00000000000000000000000000000000000000000000000000000000 DUP8 AND DUP3 MSTORE PUSH20 0xFFFFFFFFFFFFFFFFFFFFFFFFFFFFFFFFFFFFFFFF DUP7 AND PUSH1 0x20 DUP4 ADD MSTORE PUSH1 0xA0 PUSH1 0x40 DUP4 ADD MSTORE PUSH2 0x405A PUSH1 0xA0 DUP4 ADD DUP7 PUSH2 0x3C16 JUMP JUMPDEST DUP3 DUP2 SUB PUSH1 0x60 DUP5 ADD MSTORE PUSH2 0x406C DUP2 DUP7 PUSH2 0x3C16 JUMP JUMPDEST DUP4 DUP2 SUB PUSH1 0x80 DUP6 ADD MSTORE PUSH2 0x407E DUP2 DUP7 PUSH2 0x3C52 JUMP JUMPDEST SWAP10 SWAP9 POP POP POP POP POP POP POP POP POP JUMP JUMPDEST PUSH32 0xFFFFFFFF00000000000000000000000000000000000000000000000000000000 SWAP4 SWAP1 SWAP4 AND DUP4 MSTORE PUSH20 0xFFFFFFFFFFFFFFFFFFFFFFFFFFFFFFFFFFFFFFFF SWAP2 SWAP1 SWAP2 AND PUSH1 0x20 DUP4 ADD MSTORE PUSH1 0x40 DUP3 ADD MSTORE PUSH1 0x60 ADD SWAP1 JUMP JUMPDEST PUSH1 0x0 PUSH32 0xFFFFFFFF00000000000000000000000000000000000000000000000000000000 DUP6 AND DUP3 MSTORE PUSH1 0x60 PUSH1 0x20 DUP4 ADD MSTORE PUSH2 0x4116 PUSH1 0x60 DUP4 ADD DUP6 PUSH2 0x3C16 JUMP JUMPDEST DUP3 DUP2 SUB PUSH1 0x40 DUP5 ADD MSTORE PUSH2 0x1DF9 DUP2 DUP6 PUSH2 0x3BC1 JUMP JUMPDEST PUSH1 0x0 PUSH1 0x20 DUP3 MSTORE PUSH2 0x2A5D PUSH1 0x20 DUP4 ADD DUP5 PUSH2 0x3C52 JUMP JUMPDEST PUSH1 0x0 PUSH1 0x80 DUP3 MSTORE PUSH2 0x414E PUSH1 0x80 DUP4 ADD DUP8 PUSH2 0x3C52 JUMP JUMPDEST PUSH1 0x20 DUP4 DUP3 SUB DUP2 DUP6 ADD MSTORE DUP2 DUP8 MLOAD DUP1 DUP5 MSTORE DUP3 DUP5 ADD SWAP2 POP DUP3 DUP4 DUP3 MUL DUP6 ADD ADD DUP4 DUP11 ADD PUSH1 0x0 JUMPDEST DUP4 DUP2 LT ISZERO PUSH2 0x41BB JUMPI PUSH32 0xFFFFFFFFFFFFFFFFFFFFFFFFFFFFFFFFFFFFFFFFFFFFFFFFFFFFFFFFFFFFFFE0 DUP8 DUP5 SUB ADD DUP6 MSTORE PUSH2 0x41A9 DUP4 DUP4 MLOAD PUSH2 0x3CB8 JUMP JUMPDEST SWAP5 DUP7 ADD SWAP5 SWAP3 POP SWAP1 DUP6 ADD SWAP1 PUSH1 0x1 ADD PUSH2 0x416F JUMP JUMPDEST POP POP DUP7 DUP2 SUB PUSH1 0x40 DUP9 ADD MSTORE PUSH2 0x41CF DUP2 DUP11 PUSH2 0x3C16 JUMP JUMPDEST SWAP5 POP POP POP POP POP DUP3 DUP2 SUB PUSH1 0x60 DUP5 ADD MSTORE PUSH2 0x41E7 DUP2 DUP6 PUSH2 0x3BC1 JUMP JUMPDEST SWAP8 SWAP7 POP POP POP POP POP POP POP JUMP JUMPDEST PUSH1 0x20 DUP1 DUP3 MSTORE PUSH1 0x1A SWAP1 DUP3 ADD MSTORE PUSH32 0x46524F4D5F4C4553535F5448414E5F544F5F5245515549524544000000000000 PUSH1 0x40 DUP3 ADD MSTORE PUSH1 0x60 ADD SWAP1 JUMP JUMPDEST PUSH1 0x20 DUP1 DUP3 MSTORE PUSH1 0x1C SWAP1 DUP3 ADD MSTORE PUSH32 0x544F5F4C4553535F5448414E5F4C454E4754485F524551554952454400000000 PUSH1 0x40 DUP3 ADD MSTORE PUSH1 0x60 ADD SWAP1 JUMP JUMPDEST PUSH1 0x20 DUP1 DUP3 MSTORE PUSH1 0x11 SWAP1 DUP3 ADD MSTORE PUSH32 0x55494E543235365F554E444552464C4F57000000000000000000000000000000 PUSH1 0x40 DUP3 ADD MSTORE PUSH1 0x60 ADD SWAP1 JUMP JUMPDEST PUSH1 0x20 DUP1 DUP3 MSTORE PUSH1 0x26 SWAP1 DUP3 ADD MSTORE PUSH32 0x475245415445525F4F525F455155414C5F544F5F33325F4C454E4754485F5245 PUSH1 0x40 DUP3 ADD MSTORE PUSH32 0x5155495245440000000000000000000000000000000000000000000000000000 PUSH1 0x60 DUP3 ADD MSTORE PUSH1 0x80 ADD SWAP1 JUMP JUMPDEST PUSH1 0x20 DUP1 DUP3 MSTORE PUSH1 0x10 SWAP1 DUP3 ADD MSTORE PUSH32 0x55494E543235365F4F564552464C4F5700000000000000000000000000000000 PUSH1 0x40 DUP3 ADD MSTORE PUSH1 0x60 ADD SWAP1 JUMP JUMPDEST PUSH1 0x20 DUP1 DUP3 MSTORE PUSH1 0x19 SWAP1 DUP3 ADD MSTORE PUSH32 0x554E4B4E4F574E5F46554E4354494F4E5F53454C4543544F5200000000000000 PUSH1 0x40 DUP3 ADD MSTORE PUSH1 0x60 ADD SWAP1 JUMP JUMPDEST PUSH1 0x20 DUP1 DUP3 MSTORE PUSH1 0xD SWAP1 DUP3 ADD MSTORE PUSH32 0x554E494D504C454D454E54454400000000000000000000000000000000000000 PUSH1 0x40 DUP3 ADD MSTORE PUSH1 0x60 ADD SWAP1 JUMP JUMPDEST PUSH1 0x20 DUP1 DUP3 MSTORE PUSH1 0x26 SWAP1 DUP3 ADD MSTORE PUSH32 0x475245415445525F4F525F455155414C5F544F5F32305F4C454E4754485F5245 PUSH1 0x40 DUP3 ADD MSTORE PUSH32 0x5155495245440000000000000000000000000000000000000000000000000000 PUSH1 0x60 DUP3 ADD MSTORE PUSH1 0x80 ADD SWAP1 JUMP JUMPDEST PUSH1 0x20 DUP1 DUP3 MSTORE PUSH1 0x25 SWAP1 DUP3 ADD MSTORE PUSH32 0x475245415445525F4F525F455155414C5F544F5F345F4C454E4754485F524551 PUSH1 0x40 DUP3 ADD MSTORE PUSH32 0x5549524544000000000000000000000000000000000000000000000000000000 PUSH1 0x60 DUP3 ADD MSTORE PUSH1 0x80 ADD SWAP1 JUMP JUMPDEST PUSH1 0x20 DUP1 DUP3 MSTORE PUSH1 0xE SWAP1 DUP3 ADD MSTORE PUSH32 0x57524F4E475F50524F58595F4944000000000000000000000000000000000000 PUSH1 0x40 DUP3 ADD MSTORE PUSH1 0x60 ADD SWAP1 JUMP JUMPDEST PUSH1 0xA0 DUP2 ADD PUSH2 0x4498 DUP3 DUP7 PUSH2 0x3C9C JUMP JUMPDEST DUP4 PUSH1 0x60 DUP4 ADD MSTORE DUP3 ISZERO ISZERO PUSH1 0x80 DUP4 ADD MSTORE SWAP5 SWAP4 POP POP POP POP JUMP JUMPDEST PUSH1 0x0 PUSH1 0x20 DUP3 MSTORE PUSH2 0x2A5D PUSH1 0x20 DUP4 ADD DUP5 PUSH2 0x3CB8 JUMP JUMPDEST PUSH1 0x0 PUSH1 0x60 DUP3 MSTORE PUSH2 0x44D4 PUSH1 0x60 DUP4 ADD DUP7 PUSH2 0x3CB8 JUMP JUMPDEST PUSH20 0xFFFFFFFFFFFFFFFFFFFFFFFFFFFFFFFFFFFFFFFF DUP6 AND PUSH1 0x20 DUP5 ADD MSTORE DUP3 DUP2 SUB PUSH1 0x40 DUP5 ADD MSTORE PUSH2 0x1DF9 DUP2 DUP6 PUSH2 0x3C52 JUMP JUMPDEST SWAP1 DUP2 MSTORE PUSH1 0x20 ADD SWAP1 JUMP JUMPDEST SWAP2 DUP3 MSTORE PUSH1 0x20 DUP3 ADD MSTORE PUSH1 0x40 ADD SWAP1 JUMP JUMPDEST PUSH1 0x40 MLOAD DUP2 DUP2 ADD PUSH8 0xFFFFFFFFFFFFFFFF DUP2 GT DUP3 DUP3 LT OR ISZERO PUSH2 0x4538 JUMPI PUSH1 0x0 DUP1 REVERT JUMPDEST PUSH1 0x40 MSTORE SWAP2 SWAP1 POP JUMP JUMPDEST PUSH1 0x0 PUSH8 0xFFFFFFFFFFFFFFFF DUP3 GT ISZERO PUSH2 0x4557 JUMPI PUSH1 0x0 DUP1 REVERT JUMPDEST POP PUSH1 0x20 SWAP1 DUP2 MUL ADD SWAP1 JUMP JUMPDEST PUSH1 0x0 PUSH8 0xFFFFFFFFFFFFFFFF DUP3 GT ISZERO PUSH2 0x4578 JUMPI PUSH1 0x0 DUP1 REVERT JUMPDEST POP PUSH1 0x1F ADD PUSH32 0xFFFFFFFFFFFFFFFFFFFFFFFFFFFFFFFFFFFFFFFFFFFFFFFFFFFFFFFFFFFFFFE0 AND PUSH1 0x20 ADD SWAP1 JUMP JUMPDEST PUSH1 0x0 JUMPDEST DUP4 DUP2 LT ISZERO PUSH2 0x45BF JUMPI DUP2 DUP2 ADD MLOAD DUP4 DUP3 ADD MSTORE PUSH1 0x20 ADD PUSH2 0x45A7 JUMP JUMPDEST DUP4 DUP2 GT ISZERO PUSH2 0x45CE JUMPI PUSH1 0x0 DUP5 DUP5 ADD MSTORE JUMPDEST POP POP POP POP JUMP JUMPDEST PUSH20 0xFFFFFFFFFFFFFFFFFFFFFFFFFFFFFFFFFFFFFFFF DUP2 AND DUP2 EQ PUSH2 0x45F6 JUMPI PUSH1 0x0 DUP1 REVERT JUMPDEST POP JUMP INVALID LOG3 PUSH6 0x627A7A723058 KECCAK256 0x4a SWAP6 MULMOD REVERT 0x5f PUSH18 0xE0B596E77EE75A74B1E7AD031944D1B34AB8 0xe8 0xb9 DIFFICULTY MOD 0x2b 0xc SLT 0x2d PUSH13 0x6578706572696D656E74616CF5 PUSH5 0x736F6C6343 STOP SDIV MULMOD STOP BLOCKHASH "
			}
		}
	},
	"sourceTreeHashHex": "0xf6a0e9fc3bdd0e8e6c57068380029656afaea8a0b1e1dc2e66fed5868e72a018",
	"compiler": {
		"name": "solc",
		"version": "soljson-v0.5.9+commit.e560f70d.js",
		"settings": {
			"optimizer": {
				"enabled": true,
				"runs": 1000000,
				"details": {
					"yul": true,
					"deduplicate": true,
					"cse": true,
					"constantOptimizer": true
				}
			},
			"outputSelection": {
				"*": {
					"*": [
						"abi",
						"evm.bytecode.object",
						"evm.bytecode.sourceMap",
						"evm.deployedBytecode.object",
						"evm.deployedBytecode.sourceMap"
					]
				}
			},
			"evmVersion": "constantinople",
			"remappings": [
				"@0x/contracts-exchange=/Users/alextowle/0x-monorepo/contracts/dev-utils/node_modules/@0x/contracts-exchange",
				"@0x/contracts-exchange-libs=/Users/alextowle/0x-monorepo/contracts/dev-utils/node_modules/@0x/contracts-exchange-libs",
				"@0x/contracts-utils=/Users/alextowle/0x-monorepo/contracts/dev-utils/node_modules/@0x/contracts-utils",
				"@0x/contracts-asset-proxy=/Users/alextowle/0x-monorepo/contracts/dev-utils/node_modules/@0x/contracts-asset-proxy"
			]
		}
	}
}