{
	"schemaVersion": "2.0.0",
	"contractName": "LibTransactionDecoder",
	"compilerOutput": {
		"abi": [
			{
				"constant": true,
				"inputs": [
					{
						"name": "transactionData",
						"type": "bytes"
					}
				],
				"name": "decodeZeroExTransactionData",
				"outputs": [
					{
						"name": "functionName",
						"type": "string"
					},
					{
						"components": [
							{
								"name": "makerAddress",
								"type": "address"
							},
							{
								"name": "takerAddress",
								"type": "address"
							},
							{
								"name": "feeRecipientAddress",
								"type": "address"
							},
							{
								"name": "senderAddress",
								"type": "address"
							},
							{
								"name": "makerAssetAmount",
								"type": "uint256"
							},
							{
								"name": "takerAssetAmount",
								"type": "uint256"
							},
							{
								"name": "makerFee",
								"type": "uint256"
							},
							{
								"name": "takerFee",
								"type": "uint256"
							},
							{
								"name": "expirationTimeSeconds",
								"type": "uint256"
							},
							{
								"name": "salt",
								"type": "uint256"
							},
							{
								"name": "makerAssetData",
								"type": "bytes"
							},
							{
								"name": "takerAssetData",
								"type": "bytes"
							},
							{
								"name": "makerFeeAssetData",
								"type": "bytes"
							},
							{
								"name": "takerFeeAssetData",
								"type": "bytes"
							}
						],
						"name": "orders",
						"type": "tuple[]"
					},
					{
						"name": "takerAssetFillAmounts",
						"type": "uint256[]"
					},
					{
						"name": "signatures",
						"type": "bytes[]"
					}
				],
				"payable": false,
				"stateMutability": "pure",
				"type": "function"
			}
		],
		"evm": {
			"bytecode": {
				"linkReferences": {},
				"object": "0x608060405234801561001057600080fd5b50611de3806100206000396000f3fe608060405234801561001057600080fd5b506004361061002b5760003560e01c80636f83188e14610030575b600080fd5b61004361003e36600461175b565b61005c565b6040516100539493929190611a07565b60405180910390f35b60608080806000610073868263ffffffff610ee916565b90507fffffffff0000000000000000000000000000000000000000000000000000000081167fdedfc1f10000000000000000000000000000000000000000000000000000000014156100fc576040518060400160405280601181526020017f626174636843616e63656c4f72646572730000000000000000000000000000008152509450610853565b7fffffffff0000000000000000000000000000000000000000000000000000000081167f9694a402000000000000000000000000000000000000000000000000000000001415610183576040518060400160405280600f81526020017f626174636846696c6c4f726465727300000000000000000000000000000000008152509450610853565b7fffffffff0000000000000000000000000000000000000000000000000000000081167f8ea8dfe400000000000000000000000000000000000000000000000000000000141561020a576040518060400160405280601681526020017f626174636846696c6c4f72646572734e6f5468726f77000000000000000000008152509450610853565b7fffffffff0000000000000000000000000000000000000000000000000000000081167fbeee2e14000000000000000000000000000000000000000000000000000000001415610291576040518060400160405280601581526020017f626174636846696c6c4f724b696c6c4f726465727300000000000000000000008152509450610853565b7fffffffff0000000000000000000000000000000000000000000000000000000081167f2da62987000000000000000000000000000000000000000000000000000000001415610318576040518060400160405280600b81526020017f63616e63656c4f726465720000000000000000000000000000000000000000008152509450610853565b7fffffffff0000000000000000000000000000000000000000000000000000000081167f9b44d55600000000000000000000000000000000000000000000000000000000141561039f576040518060400160405280600981526020017f66696c6c4f7264657200000000000000000000000000000000000000000000008152509450610853565b7fffffffff0000000000000000000000000000000000000000000000000000000081167f01da61ae000000000000000000000000000000000000000000000000000000001415610426576040518060400160405280601081526020017f66696c6c4f726465724e6f5468726f77000000000000000000000000000000008152509450610853565b7fffffffff0000000000000000000000000000000000000000000000000000000081167fe14b58c40000000000000000000000000000000000000000000000000000000014156104ad576040518060400160405280600f81526020017f66696c6c4f724b696c6c4f7264657200000000000000000000000000000000008152509450610853565b7fffffffff0000000000000000000000000000000000000000000000000000000081167fdb702a9c000000000000000000000000000000000000000000000000000000001415610534576040518060400160405280600f81526020017f6d61726b65744275794f726465727300000000000000000000000000000000008152509450610853565b7fffffffff0000000000000000000000000000000000000000000000000000000081167f78d29ac10000000000000000000000000000000000000000000000000000000014156105bb576040518060400160405280601681526020017f6d61726b65744275794f72646572734e6f5468726f77000000000000000000008152509450610853565b7fffffffff0000000000000000000000000000000000000000000000000000000081167f52b3ca9e000000000000000000000000000000000000000000000000000000001415610642576040518060400160405280601081526020017f6d61726b657453656c6c4f7264657273000000000000000000000000000000008152509450610853565b7fffffffff0000000000000000000000000000000000000000000000000000000081167f369da0990000000000000000000000000000000000000000000000000000000014156106c9576040518060400160405280601781526020017f6d61726b657453656c6c4f72646572734e6f5468726f770000000000000000008152509450610853565b7fffffffff0000000000000000000000000000000000000000000000000000000081167f88ec79fb000000000000000000000000000000000000000000000000000000001415610750576040518060400160405280600b81526020017f6d617463684f72646572730000000000000000000000000000000000000000008152509450610853565b7fffffffff0000000000000000000000000000000000000000000000000000000081167f4f9559b10000000000000000000000000000000000000000000000000000000014806107e157507fffffffff0000000000000000000000000000000000000000000000000000000081167f965504f700000000000000000000000000000000000000000000000000000000145b15610821576040517f08c379a000000000000000000000000000000000000000000000000000000000815260040161081890611c51565b60405180910390fd5b6040517f08c379a000000000000000000000000000000000000000000000000000000000815260040161081890611c1a565b7fffffffff0000000000000000000000000000000000000000000000000000000081167fdedfc1f10000000000000000000000000000000000000000000000000000000014156109105785516108b390879060049063ffffffff610f5e16565b8060200190516108c691908101906115ea565b604080516000808252602082019092529195505b5060408051600080825260208201909252919450610908565b60608152602001906001900390816108f35790505b509150610ee1565b7fffffffff0000000000000000000000000000000000000000000000000000000081167fbeee2e140000000000000000000000000000000000000000000000000000000014806109a157507fffffffff0000000000000000000000000000000000000000000000000000000081167f8ea8dfe400000000000000000000000000000000000000000000000000000000145b806109ed57507fffffffff0000000000000000000000000000000000000000000000000000000081167f9694a40200000000000000000000000000000000000000000000000000000000145b15610a07576109fb8661102a565b91955093509150610ee1565b7fffffffff0000000000000000000000000000000000000000000000000000000081167f2da62987000000000000000000000000000000000000000000000000000000001415610b075760408051600180825281830190925290816020015b610a6e61129e565b815260200190600190039081610a665750508651909450610a9990879060049063ffffffff610f5e16565b806020019051610aac91908101906117d2565b84600081518110610ab957fe5b602002602001018190525060006040519080825280602002602001820160405280156108da578160200160208202803883390190505060408051600080825260208201909252919450610908565b7fffffffff0000000000000000000000000000000000000000000000000000000081167fe14b58c4000000000000000000000000000000000000000000000000000000001480610b9857507fffffffff0000000000000000000000000000000000000000000000000000000081167f9b44d55600000000000000000000000000000000000000000000000000000000145b80610be457507fffffffff0000000000000000000000000000000000000000000000000000000081167f01da61ae00000000000000000000000000000000000000000000000000000000145b15610bf2576109fb86611066565b7fffffffff0000000000000000000000000000000000000000000000000000000081167fdb702a9c000000000000000000000000000000000000000000000000000000001480610c8357507fffffffff0000000000000000000000000000000000000000000000000000000081167f78d29ac100000000000000000000000000000000000000000000000000000000145b80610ccf57507fffffffff0000000000000000000000000000000000000000000000000000000081167f52b3ca9e00000000000000000000000000000000000000000000000000000000145b80610d1b57507fffffffff0000000000000000000000000000000000000000000000000000000081167f369da09900000000000000000000000000000000000000000000000000000000145b15610d29576109fb86611160565b7fffffffff0000000000000000000000000000000000000000000000000000000081167f88ec79fb000000000000000000000000000000000000000000000000000000001415610ee157610d7b61129e565b610d8361129e565b606080610d9d60048b518c610f5e9092919063ffffffff16565b806020019051610db09190810190611807565b604080516002808252606082019092529498509296509094509250816020015b610dd861129e565b815260200190600190039081610dd05790505097508388600081518110610dfb57fe5b60200260200101819052508288600181518110610e1457fe5b602090810291909101015260408051600280825260608201909252908160200160208202803883390190505096508360a0015187600081518110610e5457fe5b6020026020010181815250508260a0015187600181518110610e7257fe5b60209081029190910101526040805160028082526060820190925290816020015b6060815260200190600190039081610e935790505095508186600081518110610eb857fe5b60200260200101819052508086600181518110610ed157fe5b6020026020010181905250505050505b509193509193565b60008160040183511015610f29576040517f08c379a000000000000000000000000000000000000000000000000000000000815260040161081890611c88565b5060208183018101519101907fffffffff00000000000000000000000000000000000000000000000000000000165b92915050565b606081831115610f9a576040517f08c379a000000000000000000000000000000000000000000000000000000000815260040161081890611bac565b8351821115610fd5576040517f08c379a000000000000000000000000000000000000000000000000000000000815260040161081890611be3565b8282036040519080825280601f01601f191660200182016040528015611002576020820181803883390190505b509050611023611011826111d4565b8461101b876111d4565b0183516111da565b9392505050565b60608060606110466004855186610f5e9092919063ffffffff16565b8060200190516110599190810190611627565b9196909550909350915050565b60408051600180825281830190925260609182918291816020015b61108961129e565b8152602001906001900390816110815750506040805160018082528183019092529194506020808301908038833901905050604080516001808252818301909252919350816020015b60608152602001906001900390816110d257505084519091506110ff90859060049063ffffffff610f5e16565b80602001905161111291908101906118af565b8560008151811061111f57fe5b602002602001018560008151811061113357fe5b602002602001018560008151811061114757fe5b6020908102919091010192909252919052529193909250565b60408051600180825281830190925260609182918291602080830190803883395050855191935061119c9186915060049063ffffffff610f5e16565b8060200190516111af9190810190611705565b845185906000906111bc57fe5b60209081029190910101919091529095929450925050565b60200190565b6020811015611204576001816020036101000a038019835116818551168082178652505050611299565b8282141561121157611299565b8282111561124b5760208103905080820181840181515b82851015611243578451865260209586019590940193611228565b905250611299565b60208103905080820181840183515b8186121561129457825182527fffffffffffffffffffffffffffffffffffffffffffffffffffffffffffffffe0928301929091019061125a565b855250505b505050565b604051806101c00160405280600073ffffffffffffffffffffffffffffffffffffffff168152602001600073ffffffffffffffffffffffffffffffffffffffff168152602001600073ffffffffffffffffffffffffffffffffffffffff168152602001600073ffffffffffffffffffffffffffffffffffffffff168152602001600081526020016000815260200160008152602001600081526020016000815260200160008152602001606081526020016060815260200160608152602001606081525090565b805173ffffffffffffffffffffffffffffffffffffffff81168114610f5857600080fd5b600082601f830112611399578081fd5b81516113ac6113a782611d0c565b611ce5565b8181529150602080830190840160005b838110156113e9576113d4876020845189010161144e565b835260209283019291909101906001016113bc565b5050505092915050565b600082601f830112611403578081fd5b81516114116113a782611d0c565b8181529150602080830190840160005b838110156113e957611439876020845189010161149c565b83526020928301929190910190600101611421565b600082601f83011261145f57600080fd5b815161146d6113a782611d2d565b915080825283602082850101111561148457600080fd5b611495816020840160208601611d70565b5092915050565b60006101c08083850312156114af578182fd5b6114b881611ce5565b91505060006114c78484611365565b82526114d68460208501611365565b60208301526114e88460408501611365565b60408301526114fa8460608501611365565b60608301526080830151608083015260a083015160a083015260c083015160c083015260e083015160e08301526101008084015181840152506101208084015181840152506101408084015167ffffffffffffffff8082111561155b578384fd5b6115678783880161144e565b83860152610160925082860151915080821115611582578384fd5b61158e8783880161144e565b838601526101809250828601519150808211156115a9578384fd5b6115b58783880161144e565b838601526101a09250828601519150808211156115d0578384fd5b506115dd8682870161144e565b8285015250505092915050565b6000602082840312156115fc57600080fd5b815167ffffffffffffffff81111561161357600080fd5b61161f848285016113f3565b949350505050565b60008060006060848603121561163b578182fd5b835167ffffffffffffffff80821115611652578384fd5b61165e878388016113f3565b9450602091508186015181811115611674578485fd5b80870188601f820112611685578586fd5b805191506116956113a783611d0c565b82815284810190828601868502840187018c10156116b1578889fd5b8893505b848410156116d35780518352600193909301929186019186016116b5565b5060408a01519097509450505050808211156116ee57600080fd5b506116fb86828701611389565b9150509250925092565b60008060006060848603121561171a57600080fd5b835167ffffffffffffffff8082111561173257600080fd5b61173e878388016113f3565b94506020860151935060408601519150808211156116ee57600080fd5b60006020828403121561176c578081fd5b813567ffffffffffffffff811115611782578182fd5b80830184601f820112611793578283fd5b803591506117a36113a783611d2d565b8281528560208484010111156117b7578384fd5b82602083016020830137918201602001929092529392505050565b6000602082840312156117e457600080fd5b815167ffffffffffffffff8111156117fb57600080fd5b61161f8482850161149c565b6000806000806080858703121561181c578081fd5b845167ffffffffffffffff80821115611833578283fd5b61183f8883890161149c565b95506020870151915080821115611854578283fd5b6118608883890161149c565b94506040870151915080821115611875578283fd5b6118818883890161144e565b93506060870151915080821115611896578283fd5b506118a38782880161144e565b91505092959194509250565b6000806000606084860312156118c457600080fd5b835167ffffffffffffffff808211156118dc57600080fd5b6118e88783880161149c565b945060208601519350604086015191508082111561190557600080fd5b506116fb8682870161144e565b73ffffffffffffffffffffffffffffffffffffffff169052565b60008151808452602084019350836020820285016020850160005b8481101561197557838303885261195f8383516119bd565b6020988901989093509190910190600101611947565b50909695505050505050565b600081518084526020840193506020830160005b828110156119b3578151865260209586019590910190600101611995565b5093949350505050565b600081518084526119d5816020860160208601611d70565b601f017fffffffffffffffffffffffffffffffffffffffffffffffffffffffffffffffe0169290920160200192915050565b600060808252611a1a60808301876119bd565b602083820381850152818751808452828401915082838202850101838a0160005b83811015611b75577fffffffffffffffffffffffffffffffffffffffffffffffffffffffffffffffe087840301855281516101c0611a7a858351611912565b87820151611a8a89870182611912565b506040820151611a9d6040870182611912565b506060820151611ab06060870182611912565b506080820151608086015260a082015160a086015260c082015160c086015260e082015160e0860152610100808301518187015250610120808301518187015250610140808301518282880152611b09838801826119bd565b91505061016091508183015186820383880152611b2682826119bd565b925050506101808083015186830382880152611b4283826119bd565b9150506101a091508183015186820383880152611b5f82826119bd565b988a019896505050928701925050600101611a3b565b50508681036040880152611b89818a611981565b9450505050508281036060840152611ba1818561192c565b979650505050505050565b6020808252601a908201527f46524f4d5f4c4553535f5448414e5f544f5f5245515549524544000000000000604082015260600190565b6020808252601c908201527f544f5f4c4553535f5448414e5f4c454e4754485f524551554952454400000000604082015260600190565b60208082526019908201527f554e4b4e4f574e5f46554e4354494f4e5f53454c4543544f5200000000000000604082015260600190565b6020808252600d908201527f554e494d504c454d454e54454400000000000000000000000000000000000000604082015260600190565b60208082526025908201527f475245415445525f4f525f455155414c5f544f5f345f4c454e4754485f52455160408201527f5549524544000000000000000000000000000000000000000000000000000000606082015260800190565b60405181810167ffffffffffffffff81118282101715611d0457600080fd5b604052919050565b600067ffffffffffffffff821115611d2357600080fd5b5060209081020190565b600067ffffffffffffffff821115611d4457600080fd5b50601f017fffffffffffffffffffffffffffffffffffffffffffffffffffffffffffffffe01660200190565b60005b83811015611d8b578181015183820152602001611d73565b83811115611d9a576000848401525b5050505056fea365627a7a723058201e13de1c3e7abf5c2b31a1e9be6141fc00da7e28b0cba94c2badaf93df0cc0a96c6578706572696d656e74616cf564736f6c63430005090040",
				"opcodes": "PUSH1 0x80 PUSH1 0x40 MSTORE CALLVALUE DUP1 ISZERO PUSH2 0x10 JUMPI PUSH1 0x0 DUP1 REVERT JUMPDEST POP PUSH2 0x1DE3 DUP1 PUSH2 0x20 PUSH1 0x0 CODECOPY PUSH1 0x0 RETURN INVALID PUSH1 0x80 PUSH1 0x40 MSTORE CALLVALUE DUP1 ISZERO PUSH2 0x10 JUMPI PUSH1 0x0 DUP1 REVERT JUMPDEST POP PUSH1 0x4 CALLDATASIZE LT PUSH2 0x2B JUMPI PUSH1 0x0 CALLDATALOAD PUSH1 0xE0 SHR DUP1 PUSH4 0x6F83188E EQ PUSH2 0x30 JUMPI JUMPDEST PUSH1 0x0 DUP1 REVERT JUMPDEST PUSH2 0x43 PUSH2 0x3E CALLDATASIZE PUSH1 0x4 PUSH2 0x175B JUMP JUMPDEST PUSH2 0x5C JUMP JUMPDEST PUSH1 0x40 MLOAD PUSH2 0x53 SWAP5 SWAP4 SWAP3 SWAP2 SWAP1 PUSH2 0x1A07 JUMP JUMPDEST PUSH1 0x40 MLOAD DUP1 SWAP2 SUB SWAP1 RETURN JUMPDEST PUSH1 0x60 DUP1 DUP1 DUP1 PUSH1 0x0 PUSH2 0x73 DUP7 DUP3 PUSH4 0xFFFFFFFF PUSH2 0xEE9 AND JUMP JUMPDEST SWAP1 POP PUSH32 0xFFFFFFFF00000000000000000000000000000000000000000000000000000000 DUP2 AND PUSH32 0xDEDFC1F100000000000000000000000000000000000000000000000000000000 EQ ISZERO PUSH2 0xFC JUMPI PUSH1 0x40 MLOAD DUP1 PUSH1 0x40 ADD PUSH1 0x40 MSTORE DUP1 PUSH1 0x11 DUP2 MSTORE PUSH1 0x20 ADD PUSH32 0x626174636843616E63656C4F7264657273000000000000000000000000000000 DUP2 MSTORE POP SWAP5 POP PUSH2 0x853 JUMP JUMPDEST PUSH32 0xFFFFFFFF00000000000000000000000000000000000000000000000000000000 DUP2 AND PUSH32 0x9694A40200000000000000000000000000000000000000000000000000000000 EQ ISZERO PUSH2 0x183 JUMPI PUSH1 0x40 MLOAD DUP1 PUSH1 0x40 ADD PUSH1 0x40 MSTORE DUP1 PUSH1 0xF DUP2 MSTORE PUSH1 0x20 ADD PUSH32 0x626174636846696C6C4F72646572730000000000000000000000000000000000 DUP2 MSTORE POP SWAP5 POP PUSH2 0x853 JUMP JUMPDEST PUSH32 0xFFFFFFFF00000000000000000000000000000000000000000000000000000000 DUP2 AND PUSH32 0x8EA8DFE400000000000000000000000000000000000000000000000000000000 EQ ISZERO PUSH2 0x20A JUMPI PUSH1 0x40 MLOAD DUP1 PUSH1 0x40 ADD PUSH1 0x40 MSTORE DUP1 PUSH1 0x16 DUP2 MSTORE PUSH1 0x20 ADD PUSH32 0x626174636846696C6C4F72646572734E6F5468726F7700000000000000000000 DUP2 MSTORE POP SWAP5 POP PUSH2 0x853 JUMP JUMPDEST PUSH32 0xFFFFFFFF00000000000000000000000000000000000000000000000000000000 DUP2 AND PUSH32 0xBEEE2E1400000000000000000000000000000000000000000000000000000000 EQ ISZERO PUSH2 0x291 JUMPI PUSH1 0x40 MLOAD DUP1 PUSH1 0x40 ADD PUSH1 0x40 MSTORE DUP1 PUSH1 0x15 DUP2 MSTORE PUSH1 0x20 ADD PUSH32 0x626174636846696C6C4F724B696C6C4F72646572730000000000000000000000 DUP2 MSTORE POP SWAP5 POP PUSH2 0x853 JUMP JUMPDEST PUSH32 0xFFFFFFFF00000000000000000000000000000000000000000000000000000000 DUP2 AND PUSH32 0x2DA6298700000000000000000000000000000000000000000000000000000000 EQ ISZERO PUSH2 0x318 JUMPI PUSH1 0x40 MLOAD DUP1 PUSH1 0x40 ADD PUSH1 0x40 MSTORE DUP1 PUSH1 0xB DUP2 MSTORE PUSH1 0x20 ADD PUSH32 0x63616E63656C4F72646572000000000000000000000000000000000000000000 DUP2 MSTORE POP SWAP5 POP PUSH2 0x853 JUMP JUMPDEST PUSH32 0xFFFFFFFF00000000000000000000000000000000000000000000000000000000 DUP2 AND PUSH32 0x9B44D55600000000000000000000000000000000000000000000000000000000 EQ ISZERO PUSH2 0x39F JUMPI PUSH1 0x40 MLOAD DUP1 PUSH1 0x40 ADD PUSH1 0x40 MSTORE DUP1 PUSH1 0x9 DUP2 MSTORE PUSH1 0x20 ADD PUSH32 0x66696C6C4F726465720000000000000000000000000000000000000000000000 DUP2 MSTORE POP SWAP5 POP PUSH2 0x853 JUMP JUMPDEST PUSH32 0xFFFFFFFF00000000000000000000000000000000000000000000000000000000 DUP2 AND PUSH32 0x1DA61AE00000000000000000000000000000000000000000000000000000000 EQ ISZERO PUSH2 0x426 JUMPI PUSH1 0x40 MLOAD DUP1 PUSH1 0x40 ADD PUSH1 0x40 MSTORE DUP1 PUSH1 0x10 DUP2 MSTORE PUSH1 0x20 ADD PUSH32 0x66696C6C4F726465724E6F5468726F7700000000000000000000000000000000 DUP2 MSTORE POP SWAP5 POP PUSH2 0x853 JUMP JUMPDEST PUSH32 0xFFFFFFFF00000000000000000000000000000000000000000000000000000000 DUP2 AND PUSH32 0xE14B58C400000000000000000000000000000000000000000000000000000000 EQ ISZERO PUSH2 0x4AD JUMPI PUSH1 0x40 MLOAD DUP1 PUSH1 0x40 ADD PUSH1 0x40 MSTORE DUP1 PUSH1 0xF DUP2 MSTORE PUSH1 0x20 ADD PUSH32 0x66696C6C4F724B696C6C4F726465720000000000000000000000000000000000 DUP2 MSTORE POP SWAP5 POP PUSH2 0x853 JUMP JUMPDEST PUSH32 0xFFFFFFFF00000000000000000000000000000000000000000000000000000000 DUP2 AND PUSH32 0xDB702A9C00000000000000000000000000000000000000000000000000000000 EQ ISZERO PUSH2 0x534 JUMPI PUSH1 0x40 MLOAD DUP1 PUSH1 0x40 ADD PUSH1 0x40 MSTORE DUP1 PUSH1 0xF DUP2 MSTORE PUSH1 0x20 ADD PUSH32 0x6D61726B65744275794F72646572730000000000000000000000000000000000 DUP2 MSTORE POP SWAP5 POP PUSH2 0x853 JUMP JUMPDEST PUSH32 0xFFFFFFFF00000000000000000000000000000000000000000000000000000000 DUP2 AND PUSH32 0x78D29AC100000000000000000000000000000000000000000000000000000000 EQ ISZERO PUSH2 0x5BB JUMPI PUSH1 0x40 MLOAD DUP1 PUSH1 0x40 ADD PUSH1 0x40 MSTORE DUP1 PUSH1 0x16 DUP2 MSTORE PUSH1 0x20 ADD PUSH32 0x6D61726B65744275794F72646572734E6F5468726F7700000000000000000000 DUP2 MSTORE POP SWAP5 POP PUSH2 0x853 JUMP JUMPDEST PUSH32 0xFFFFFFFF00000000000000000000000000000000000000000000000000000000 DUP2 AND PUSH32 0x52B3CA9E00000000000000000000000000000000000000000000000000000000 EQ ISZERO PUSH2 0x642 JUMPI PUSH1 0x40 MLOAD DUP1 PUSH1 0x40 ADD PUSH1 0x40 MSTORE DUP1 PUSH1 0x10 DUP2 MSTORE PUSH1 0x20 ADD PUSH32 0x6D61726B657453656C6C4F726465727300000000000000000000000000000000 DUP2 MSTORE POP SWAP5 POP PUSH2 0x853 JUMP JUMPDEST PUSH32 0xFFFFFFFF00000000000000000000000000000000000000000000000000000000 DUP2 AND PUSH32 0x369DA09900000000000000000000000000000000000000000000000000000000 EQ ISZERO PUSH2 0x6C9 JUMPI PUSH1 0x40 MLOAD DUP1 PUSH1 0x40 ADD PUSH1 0x40 MSTORE DUP1 PUSH1 0x17 DUP2 MSTORE PUSH1 0x20 ADD PUSH32 0x6D61726B657453656C6C4F72646572734E6F5468726F77000000000000000000 DUP2 MSTORE POP SWAP5 POP PUSH2 0x853 JUMP JUMPDEST PUSH32 0xFFFFFFFF00000000000000000000000000000000000000000000000000000000 DUP2 AND PUSH32 0x88EC79FB00000000000000000000000000000000000000000000000000000000 EQ ISZERO PUSH2 0x750 JUMPI PUSH1 0x40 MLOAD DUP1 PUSH1 0x40 ADD PUSH1 0x40 MSTORE DUP1 PUSH1 0xB DUP2 MSTORE PUSH1 0x20 ADD PUSH32 0x6D617463684F7264657273000000000000000000000000000000000000000000 DUP2 MSTORE POP SWAP5 POP PUSH2 0x853 JUMP JUMPDEST PUSH32 0xFFFFFFFF00000000000000000000000000000000000000000000000000000000 DUP2 AND PUSH32 0x4F9559B100000000000000000000000000000000000000000000000000000000 EQ DUP1 PUSH2 0x7E1 JUMPI POP PUSH32 0xFFFFFFFF00000000000000000000000000000000000000000000000000000000 DUP2 AND PUSH32 0x965504F700000000000000000000000000000000000000000000000000000000 EQ JUMPDEST ISZERO PUSH2 0x821 JUMPI PUSH1 0x40 MLOAD PUSH32 0x8C379A000000000000000000000000000000000000000000000000000000000 DUP2 MSTORE PUSH1 0x4 ADD PUSH2 0x818 SWAP1 PUSH2 0x1C51 JUMP JUMPDEST PUSH1 0x40 MLOAD DUP1 SWAP2 SUB SWAP1 REVERT JUMPDEST PUSH1 0x40 MLOAD PUSH32 0x8C379A000000000000000000000000000000000000000000000000000000000 DUP2 MSTORE PUSH1 0x4 ADD PUSH2 0x818 SWAP1 PUSH2 0x1C1A JUMP JUMPDEST PUSH32 0xFFFFFFFF00000000000000000000000000000000000000000000000000000000 DUP2 AND PUSH32 0xDEDFC1F100000000000000000000000000000000000000000000000000000000 EQ ISZERO PUSH2 0x910 JUMPI DUP6 MLOAD PUSH2 0x8B3 SWAP1 DUP8 SWAP1 PUSH1 0x4 SWAP1 PUSH4 0xFFFFFFFF PUSH2 0xF5E AND JUMP JUMPDEST DUP1 PUSH1 0x20 ADD SWAP1 MLOAD PUSH2 0x8C6 SWAP2 SWAP1 DUP2 ADD SWAP1 PUSH2 0x15EA JUMP JUMPDEST PUSH1 0x40 DUP1 MLOAD PUSH1 0x0 DUP1 DUP3 MSTORE PUSH1 0x20 DUP3 ADD SWAP1 SWAP3 MSTORE SWAP2 SWAP6 POP JUMPDEST POP PUSH1 0x40 DUP1 MLOAD PUSH1 0x0 DUP1 DUP3 MSTORE PUSH1 0x20 DUP3 ADD SWAP1 SWAP3 MSTORE SWAP2 SWAP5 POP PUSH2 0x908 JUMP JUMPDEST PUSH1 0x60 DUP2 MSTORE PUSH1 0x20 ADD SWAP1 PUSH1 0x1 SWAP1 SUB SWAP1 DUP2 PUSH2 0x8F3 JUMPI SWAP1 POP JUMPDEST POP SWAP2 POP PUSH2 0xEE1 JUMP JUMPDEST PUSH32 0xFFFFFFFF00000000000000000000000000000000000000000000000000000000 DUP2 AND PUSH32 0xBEEE2E1400000000000000000000000000000000000000000000000000000000 EQ DUP1 PUSH2 0x9A1 JUMPI POP PUSH32 0xFFFFFFFF00000000000000000000000000000000000000000000000000000000 DUP2 AND PUSH32 0x8EA8DFE400000000000000000000000000000000000000000000000000000000 EQ JUMPDEST DUP1 PUSH2 0x9ED JUMPI POP PUSH32 0xFFFFFFFF00000000000000000000000000000000000000000000000000000000 DUP2 AND PUSH32 0x9694A40200000000000000000000000000000000000000000000000000000000 EQ JUMPDEST ISZERO PUSH2 0xA07 JUMPI PUSH2 0x9FB DUP7 PUSH2 0x102A JUMP JUMPDEST SWAP2 SWAP6 POP SWAP4 POP SWAP2 POP PUSH2 0xEE1 JUMP JUMPDEST PUSH32 0xFFFFFFFF00000000000000000000000000000000000000000000000000000000 DUP2 AND PUSH32 0x2DA6298700000000000000000000000000000000000000000000000000000000 EQ ISZERO PUSH2 0xB07 JUMPI PUSH1 0x40 DUP1 MLOAD PUSH1 0x1 DUP1 DUP3 MSTORE DUP2 DUP4 ADD SWAP1 SWAP3 MSTORE SWAP1 DUP2 PUSH1 0x20 ADD JUMPDEST PUSH2 0xA6E PUSH2 0x129E JUMP JUMPDEST DUP2 MSTORE PUSH1 0x20 ADD SWAP1 PUSH1 0x1 SWAP1 SUB SWAP1 DUP2 PUSH2 0xA66 JUMPI POP POP DUP7 MLOAD SWAP1 SWAP5 POP PUSH2 0xA99 SWAP1 DUP8 SWAP1 PUSH1 0x4 SWAP1 PUSH4 0xFFFFFFFF PUSH2 0xF5E AND JUMP JUMPDEST DUP1 PUSH1 0x20 ADD SWAP1 MLOAD PUSH2 0xAAC SWAP2 SWAP1 DUP2 ADD SWAP1 PUSH2 0x17D2 JUMP JUMPDEST DUP5 PUSH1 0x0 DUP2 MLOAD DUP2 LT PUSH2 0xAB9 JUMPI INVALID JUMPDEST PUSH1 0x20 MUL PUSH1 0x20 ADD ADD DUP2 SWAP1 MSTORE POP PUSH1 0x0 PUSH1 0x40 MLOAD SWAP1 DUP1 DUP3 MSTORE DUP1 PUSH1 0x20 MUL PUSH1 0x20 ADD DUP3 ADD PUSH1 0x40 MSTORE DUP1 ISZERO PUSH2 0x8DA JUMPI DUP2 PUSH1 0x20 ADD PUSH1 0x20 DUP3 MUL DUP1 CODESIZE DUP4 CODECOPY ADD SWAP1 POP POP PUSH1 0x40 DUP1 MLOAD PUSH1 0x0 DUP1 DUP3 MSTORE PUSH1 0x20 DUP3 ADD SWAP1 SWAP3 MSTORE SWAP2 SWAP5 POP PUSH2 0x908 JUMP JUMPDEST PUSH32 0xFFFFFFFF00000000000000000000000000000000000000000000000000000000 DUP2 AND PUSH32 0xE14B58C400000000000000000000000000000000000000000000000000000000 EQ DUP1 PUSH2 0xB98 JUMPI POP PUSH32 0xFFFFFFFF00000000000000000000000000000000000000000000000000000000 DUP2 AND PUSH32 0x9B44D55600000000000000000000000000000000000000000000000000000000 EQ JUMPDEST DUP1 PUSH2 0xBE4 JUMPI POP PUSH32 0xFFFFFFFF00000000000000000000000000000000000000000000000000000000 DUP2 AND PUSH32 0x1DA61AE00000000000000000000000000000000000000000000000000000000 EQ JUMPDEST ISZERO PUSH2 0xBF2 JUMPI PUSH2 0x9FB DUP7 PUSH2 0x1066 JUMP JUMPDEST PUSH32 0xFFFFFFFF00000000000000000000000000000000000000000000000000000000 DUP2 AND PUSH32 0xDB702A9C00000000000000000000000000000000000000000000000000000000 EQ DUP1 PUSH2 0xC83 JUMPI POP PUSH32 0xFFFFFFFF00000000000000000000000000000000000000000000000000000000 DUP2 AND PUSH32 0x78D29AC100000000000000000000000000000000000000000000000000000000 EQ JUMPDEST DUP1 PUSH2 0xCCF JUMPI POP PUSH32 0xFFFFFFFF00000000000000000000000000000000000000000000000000000000 DUP2 AND PUSH32 0x52B3CA9E00000000000000000000000000000000000000000000000000000000 EQ JUMPDEST DUP1 PUSH2 0xD1B JUMPI POP PUSH32 0xFFFFFFFF00000000000000000000000000000000000000000000000000000000 DUP2 AND PUSH32 0x369DA09900000000000000000000000000000000000000000000000000000000 EQ JUMPDEST ISZERO PUSH2 0xD29 JUMPI PUSH2 0x9FB DUP7 PUSH2 0x1160 JUMP JUMPDEST PUSH32 0xFFFFFFFF00000000000000000000000000000000000000000000000000000000 DUP2 AND PUSH32 0x88EC79FB00000000000000000000000000000000000000000000000000000000 EQ ISZERO PUSH2 0xEE1 JUMPI PUSH2 0xD7B PUSH2 0x129E JUMP JUMPDEST PUSH2 0xD83 PUSH2 0x129E JUMP JUMPDEST PUSH1 0x60 DUP1 PUSH2 0xD9D PUSH1 0x4 DUP12 MLOAD DUP13 PUSH2 0xF5E SWAP1 SWAP3 SWAP2 SWAP1 PUSH4 0xFFFFFFFF AND JUMP JUMPDEST DUP1 PUSH1 0x20 ADD SWAP1 MLOAD PUSH2 0xDB0 SWAP2 SWAP1 DUP2 ADD SWAP1 PUSH2 0x1807 JUMP JUMPDEST PUSH1 0x40 DUP1 MLOAD PUSH1 0x2 DUP1 DUP3 MSTORE PUSH1 0x60 DUP3 ADD SWAP1 SWAP3 MSTORE SWAP5 SWAP9 POP SWAP3 SWAP7 POP SWAP1 SWAP5 POP SWAP3 POP DUP2 PUSH1 0x20 ADD JUMPDEST PUSH2 0xDD8 PUSH2 0x129E JUMP JUMPDEST DUP2 MSTORE PUSH1 0x20 ADD SWAP1 PUSH1 0x1 SWAP1 SUB SWAP1 DUP2 PUSH2 0xDD0 JUMPI SWAP1 POP POP SWAP8 POP DUP4 DUP9 PUSH1 0x0 DUP2 MLOAD DUP2 LT PUSH2 0xDFB JUMPI INVALID JUMPDEST PUSH1 0x20 MUL PUSH1 0x20 ADD ADD DUP2 SWAP1 MSTORE POP DUP3 DUP9 PUSH1 0x1 DUP2 MLOAD DUP2 LT PUSH2 0xE14 JUMPI INVALID JUMPDEST PUSH1 0x20 SWAP1 DUP2 MUL SWAP2 SWAP1 SWAP2 ADD ADD MSTORE PUSH1 0x40 DUP1 MLOAD PUSH1 0x2 DUP1 DUP3 MSTORE PUSH1 0x60 DUP3 ADD SWAP1 SWAP3 MSTORE SWAP1 DUP2 PUSH1 0x20 ADD PUSH1 0x20 DUP3 MUL DUP1 CODESIZE DUP4 CODECOPY ADD SWAP1 POP POP SWAP7 POP DUP4 PUSH1 0xA0 ADD MLOAD DUP8 PUSH1 0x0 DUP2 MLOAD DUP2 LT PUSH2 0xE54 JUMPI INVALID JUMPDEST PUSH1 0x20 MUL PUSH1 0x20 ADD ADD DUP2 DUP2 MSTORE POP POP DUP3 PUSH1 0xA0 ADD MLOAD DUP8 PUSH1 0x1 DUP2 MLOAD DUP2 LT PUSH2 0xE72 JUMPI INVALID JUMPDEST PUSH1 0x20 SWAP1 DUP2 MUL SWAP2 SWAP1 SWAP2 ADD ADD MSTORE PUSH1 0x40 DUP1 MLOAD PUSH1 0x2 DUP1 DUP3 MSTORE PUSH1 0x60 DUP3 ADD SWAP1 SWAP3 MSTORE SWAP1 DUP2 PUSH1 0x20 ADD JUMPDEST PUSH1 0x60 DUP2 MSTORE PUSH1 0x20 ADD SWAP1 PUSH1 0x1 SWAP1 SUB SWAP1 DUP2 PUSH2 0xE93 JUMPI SWAP1 POP POP SWAP6 POP DUP2 DUP7 PUSH1 0x0 DUP2 MLOAD DUP2 LT PUSH2 0xEB8 JUMPI INVALID JUMPDEST PUSH1 0x20 MUL PUSH1 0x20 ADD ADD DUP2 SWAP1 MSTORE POP DUP1 DUP7 PUSH1 0x1 DUP2 MLOAD DUP2 LT PUSH2 0xED1 JUMPI INVALID JUMPDEST PUSH1 0x20 MUL PUSH1 0x20 ADD ADD DUP2 SWAP1 MSTORE POP POP POP POP POP JUMPDEST POP SWAP2 SWAP4 POP SWAP2 SWAP4 JUMP JUMPDEST PUSH1 0x0 DUP2 PUSH1 0x4 ADD DUP4 MLOAD LT ISZERO PUSH2 0xF29 JUMPI PUSH1 0x40 MLOAD PUSH32 0x8C379A000000000000000000000000000000000000000000000000000000000 DUP2 MSTORE PUSH1 0x4 ADD PUSH2 0x818 SWAP1 PUSH2 0x1C88 JUMP JUMPDEST POP PUSH1 0x20 DUP2 DUP4 ADD DUP2 ADD MLOAD SWAP2 ADD SWAP1 PUSH32 0xFFFFFFFF00000000000000000000000000000000000000000000000000000000 AND JUMPDEST SWAP3 SWAP2 POP POP JUMP JUMPDEST PUSH1 0x60 DUP2 DUP4 GT ISZERO PUSH2 0xF9A JUMPI PUSH1 0x40 MLOAD PUSH32 0x8C379A000000000000000000000000000000000000000000000000000000000 DUP2 MSTORE PUSH1 0x4 ADD PUSH2 0x818 SWAP1 PUSH2 0x1BAC JUMP JUMPDEST DUP4 MLOAD DUP3 GT ISZERO PUSH2 0xFD5 JUMPI PUSH1 0x40 MLOAD PUSH32 0x8C379A000000000000000000000000000000000000000000000000000000000 DUP2 MSTORE PUSH1 0x4 ADD PUSH2 0x818 SWAP1 PUSH2 0x1BE3 JUMP JUMPDEST DUP3 DUP3 SUB PUSH1 0x40 MLOAD SWAP1 DUP1 DUP3 MSTORE DUP1 PUSH1 0x1F ADD PUSH1 0x1F NOT AND PUSH1 0x20 ADD DUP3 ADD PUSH1 0x40 MSTORE DUP1 ISZERO PUSH2 0x1002 JUMPI PUSH1 0x20 DUP3 ADD DUP2 DUP1 CODESIZE DUP4 CODECOPY ADD SWAP1 POP JUMPDEST POP SWAP1 POP PUSH2 0x1023 PUSH2 0x1011 DUP3 PUSH2 0x11D4 JUMP JUMPDEST DUP5 PUSH2 0x101B DUP8 PUSH2 0x11D4 JUMP JUMPDEST ADD DUP4 MLOAD PUSH2 0x11DA JUMP JUMPDEST SWAP4 SWAP3 POP POP POP JUMP JUMPDEST PUSH1 0x60 DUP1 PUSH1 0x60 PUSH2 0x1046 PUSH1 0x4 DUP6 MLOAD DUP7 PUSH2 0xF5E SWAP1 SWAP3 SWAP2 SWAP1 PUSH4 0xFFFFFFFF AND JUMP JUMPDEST DUP1 PUSH1 0x20 ADD SWAP1 MLOAD PUSH2 0x1059 SWAP2 SWAP1 DUP2 ADD SWAP1 PUSH2 0x1627 JUMP JUMPDEST SWAP2 SWAP7 SWAP1 SWAP6 POP SWAP1 SWAP4 POP SWAP2 POP POP JUMP JUMPDEST PUSH1 0x40 DUP1 MLOAD PUSH1 0x1 DUP1 DUP3 MSTORE DUP2 DUP4 ADD SWAP1 SWAP3 MSTORE PUSH1 0x60 SWAP2 DUP3 SWAP2 DUP3 SWAP2 DUP2 PUSH1 0x20 ADD JUMPDEST PUSH2 0x1089 PUSH2 0x129E JUMP JUMPDEST DUP2 MSTORE PUSH1 0x20 ADD SWAP1 PUSH1 0x1 SWAP1 SUB SWAP1 DUP2 PUSH2 0x1081 JUMPI POP POP PUSH1 0x40 DUP1 MLOAD PUSH1 0x1 DUP1 DUP3 MSTORE DUP2 DUP4 ADD SWAP1 SWAP3 MSTORE SWAP2 SWAP5 POP PUSH1 0x20 DUP1 DUP4 ADD SWAP1 DUP1 CODESIZE DUP4 CODECOPY ADD SWAP1 POP POP PUSH1 0x40 DUP1 MLOAD PUSH1 0x1 DUP1 DUP3 MSTORE DUP2 DUP4 ADD SWAP1 SWAP3 MSTORE SWAP2 SWAP4 POP DUP2 PUSH1 0x20 ADD JUMPDEST PUSH1 0x60 DUP2 MSTORE PUSH1 0x20 ADD SWAP1 PUSH1 0x1 SWAP1 SUB SWAP1 DUP2 PUSH2 0x10D2 JUMPI POP POP DUP5 MLOAD SWAP1 SWAP2 POP PUSH2 0x10FF SWAP1 DUP6 SWAP1 PUSH1 0x4 SWAP1 PUSH4 0xFFFFFFFF PUSH2 0xF5E AND JUMP JUMPDEST DUP1 PUSH1 0x20 ADD SWAP1 MLOAD PUSH2 0x1112 SWAP2 SWAP1 DUP2 ADD SWAP1 PUSH2 0x18AF JUMP JUMPDEST DUP6 PUSH1 0x0 DUP2 MLOAD DUP2 LT PUSH2 0x111F JUMPI INVALID JUMPDEST PUSH1 0x20 MUL PUSH1 0x20 ADD ADD DUP6 PUSH1 0x0 DUP2 MLOAD DUP2 LT PUSH2 0x1133 JUMPI INVALID JUMPDEST PUSH1 0x20 MUL PUSH1 0x20 ADD ADD DUP6 PUSH1 0x0 DUP2 MLOAD DUP2 LT PUSH2 0x1147 JUMPI INVALID JUMPDEST PUSH1 0x20 SWAP1 DUP2 MUL SWAP2 SWAP1 SWAP2 ADD ADD SWAP3 SWAP1 SWAP3 MSTORE SWAP2 SWAP1 MSTORE MSTORE SWAP2 SWAP4 SWAP1 SWAP3 POP JUMP JUMPDEST PUSH1 0x40 DUP1 MLOAD PUSH1 0x1 DUP1 DUP3 MSTORE DUP2 DUP4 ADD SWAP1 SWAP3 MSTORE PUSH1 0x60 SWAP2 DUP3 SWAP2 DUP3 SWAP2 PUSH1 0x20 DUP1 DUP4 ADD SWAP1 DUP1 CODESIZE DUP4 CODECOPY POP POP DUP6 MLOAD SWAP2 SWAP4 POP PUSH2 0x119C SWAP2 DUP7 SWAP2 POP PUSH1 0x4 SWAP1 PUSH4 0xFFFFFFFF PUSH2 0xF5E AND JUMP JUMPDEST DUP1 PUSH1 0x20 ADD SWAP1 MLOAD PUSH2 0x11AF SWAP2 SWAP1 DUP2 ADD SWAP1 PUSH2 0x1705 JUMP JUMPDEST DUP5 MLOAD DUP6 SWAP1 PUSH1 0x0 SWAP1 PUSH2 0x11BC JUMPI INVALID JUMPDEST PUSH1 0x20 SWAP1 DUP2 MUL SWAP2 SWAP1 SWAP2 ADD ADD SWAP2 SWAP1 SWAP2 MSTORE SWAP1 SWAP6 SWAP3 SWAP5 POP SWAP3 POP POP JUMP JUMPDEST PUSH1 0x20 ADD SWAP1 JUMP JUMPDEST PUSH1 0x20 DUP2 LT ISZERO PUSH2 0x1204 JUMPI PUSH1 0x1 DUP2 PUSH1 0x20 SUB PUSH2 0x100 EXP SUB DUP1 NOT DUP4 MLOAD AND DUP2 DUP6 MLOAD AND DUP1 DUP3 OR DUP7 MSTORE POP POP POP PUSH2 0x1299 JUMP JUMPDEST DUP3 DUP3 EQ ISZERO PUSH2 0x1211 JUMPI PUSH2 0x1299 JUMP JUMPDEST DUP3 DUP3 GT ISZERO PUSH2 0x124B JUMPI PUSH1 0x20 DUP2 SUB SWAP1 POP DUP1 DUP3 ADD DUP2 DUP5 ADD DUP2 MLOAD JUMPDEST DUP3 DUP6 LT ISZERO PUSH2 0x1243 JUMPI DUP5 MLOAD DUP7 MSTORE PUSH1 0x20 SWAP6 DUP7 ADD SWAP6 SWAP1 SWAP5 ADD SWAP4 PUSH2 0x1228 JUMP JUMPDEST SWAP1 MSTORE POP PUSH2 0x1299 JUMP JUMPDEST PUSH1 0x20 DUP2 SUB SWAP1 POP DUP1 DUP3 ADD DUP2 DUP5 ADD DUP4 MLOAD JUMPDEST DUP2 DUP7 SLT ISZERO PUSH2 0x1294 JUMPI DUP3 MLOAD DUP3 MSTORE PUSH32 0xFFFFFFFFFFFFFFFFFFFFFFFFFFFFFFFFFFFFFFFFFFFFFFFFFFFFFFFFFFFFFFE0 SWAP3 DUP4 ADD SWAP3 SWAP1 SWAP2 ADD SWAP1 PUSH2 0x125A JUMP JUMPDEST DUP6 MSTORE POP POP JUMPDEST POP POP POP JUMP JUMPDEST PUSH1 0x40 MLOAD DUP1 PUSH2 0x1C0 ADD PUSH1 0x40 MSTORE DUP1 PUSH1 0x0 PUSH20 0xFFFFFFFFFFFFFFFFFFFFFFFFFFFFFFFFFFFFFFFF AND DUP2 MSTORE PUSH1 0x20 ADD PUSH1 0x0 PUSH20 0xFFFFFFFFFFFFFFFFFFFFFFFFFFFFFFFFFFFFFFFF AND DUP2 MSTORE PUSH1 0x20 ADD PUSH1 0x0 PUSH20 0xFFFFFFFFFFFFFFFFFFFFFFFFFFFFFFFFFFFFFFFF AND DUP2 MSTORE PUSH1 0x20 ADD PUSH1 0x0 PUSH20 0xFFFFFFFFFFFFFFFFFFFFFFFFFFFFFFFFFFFFFFFF AND DUP2 MSTORE PUSH1 0x20 ADD PUSH1 0x0 DUP2 MSTORE PUSH1 0x20 ADD PUSH1 0x0 DUP2 MSTORE PUSH1 0x20 ADD PUSH1 0x0 DUP2 MSTORE PUSH1 0x20 ADD PUSH1 0x0 DUP2 MSTORE PUSH1 0x20 ADD PUSH1 0x0 DUP2 MSTORE PUSH1 0x20 ADD PUSH1 0x0 DUP2 MSTORE PUSH1 0x20 ADD PUSH1 0x60 DUP2 MSTORE PUSH1 0x20 ADD PUSH1 0x60 DUP2 MSTORE PUSH1 0x20 ADD PUSH1 0x60 DUP2 MSTORE PUSH1 0x20 ADD PUSH1 0x60 DUP2 MSTORE POP SWAP1 JUMP JUMPDEST DUP1 MLOAD PUSH20 0xFFFFFFFFFFFFFFFFFFFFFFFFFFFFFFFFFFFFFFFF DUP2 AND DUP2 EQ PUSH2 0xF58 JUMPI PUSH1 0x0 DUP1 REVERT JUMPDEST PUSH1 0x0 DUP3 PUSH1 0x1F DUP4 ADD SLT PUSH2 0x1399 JUMPI DUP1 DUP2 REVERT JUMPDEST DUP2 MLOAD PUSH2 0x13AC PUSH2 0x13A7 DUP3 PUSH2 0x1D0C JUMP JUMPDEST PUSH2 0x1CE5 JUMP JUMPDEST DUP2 DUP2 MSTORE SWAP2 POP PUSH1 0x20 DUP1 DUP4 ADD SWAP1 DUP5 ADD PUSH1 0x0 JUMPDEST DUP4 DUP2 LT ISZERO PUSH2 0x13E9 JUMPI PUSH2 0x13D4 DUP8 PUSH1 0x20 DUP5 MLOAD DUP10 ADD ADD PUSH2 0x144E JUMP JUMPDEST DUP4 MSTORE PUSH1 0x20 SWAP3 DUP4 ADD SWAP3 SWAP2 SWAP1 SWAP2 ADD SWAP1 PUSH1 0x1 ADD PUSH2 0x13BC JUMP JUMPDEST POP POP POP POP SWAP3 SWAP2 POP POP JUMP JUMPDEST PUSH1 0x0 DUP3 PUSH1 0x1F DUP4 ADD SLT PUSH2 0x1403 JUMPI DUP1 DUP2 REVERT JUMPDEST DUP2 MLOAD PUSH2 0x1411 PUSH2 0x13A7 DUP3 PUSH2 0x1D0C JUMP JUMPDEST DUP2 DUP2 MSTORE SWAP2 POP PUSH1 0x20 DUP1 DUP4 ADD SWAP1 DUP5 ADD PUSH1 0x0 JUMPDEST DUP4 DUP2 LT ISZERO PUSH2 0x13E9 JUMPI PUSH2 0x1439 DUP8 PUSH1 0x20 DUP5 MLOAD DUP10 ADD ADD PUSH2 0x149C JUMP JUMPDEST DUP4 MSTORE PUSH1 0x20 SWAP3 DUP4 ADD SWAP3 SWAP2 SWAP1 SWAP2 ADD SWAP1 PUSH1 0x1 ADD PUSH2 0x1421 JUMP JUMPDEST PUSH1 0x0 DUP3 PUSH1 0x1F DUP4 ADD SLT PUSH2 0x145F JUMPI PUSH1 0x0 DUP1 REVERT JUMPDEST DUP2 MLOAD PUSH2 0x146D PUSH2 0x13A7 DUP3 PUSH2 0x1D2D JUMP JUMPDEST SWAP2 POP DUP1 DUP3 MSTORE DUP4 PUSH1 0x20 DUP3 DUP6 ADD ADD GT ISZERO PUSH2 0x1484 JUMPI PUSH1 0x0 DUP1 REVERT JUMPDEST PUSH2 0x1495 DUP2 PUSH1 0x20 DUP5 ADD PUSH1 0x20 DUP7 ADD PUSH2 0x1D70 JUMP JUMPDEST POP SWAP3 SWAP2 POP POP JUMP JUMPDEST PUSH1 0x0 PUSH2 0x1C0 DUP1 DUP4 DUP6 SUB SLT ISZERO PUSH2 0x14AF JUMPI DUP2 DUP3 REVERT JUMPDEST PUSH2 0x14B8 DUP2 PUSH2 0x1CE5 JUMP JUMPDEST SWAP2 POP POP PUSH1 0x0 PUSH2 0x14C7 DUP5 DUP5 PUSH2 0x1365 JUMP JUMPDEST DUP3 MSTORE PUSH2 0x14D6 DUP5 PUSH1 0x20 DUP6 ADD PUSH2 0x1365 JUMP JUMPDEST PUSH1 0x20 DUP4 ADD MSTORE PUSH2 0x14E8 DUP5 PUSH1 0x40 DUP6 ADD PUSH2 0x1365 JUMP JUMPDEST PUSH1 0x40 DUP4 ADD MSTORE PUSH2 0x14FA DUP5 PUSH1 0x60 DUP6 ADD PUSH2 0x1365 JUMP JUMPDEST PUSH1 0x60 DUP4 ADD MSTORE PUSH1 0x80 DUP4 ADD MLOAD PUSH1 0x80 DUP4 ADD MSTORE PUSH1 0xA0 DUP4 ADD MLOAD PUSH1 0xA0 DUP4 ADD MSTORE PUSH1 0xC0 DUP4 ADD MLOAD PUSH1 0xC0 DUP4 ADD MSTORE PUSH1 0xE0 DUP4 ADD MLOAD PUSH1 0xE0 DUP4 ADD MSTORE PUSH2 0x100 DUP1 DUP5 ADD MLOAD DUP2 DUP5 ADD MSTORE POP PUSH2 0x120 DUP1 DUP5 ADD MLOAD DUP2 DUP5 ADD MSTORE POP PUSH2 0x140 DUP1 DUP5 ADD MLOAD PUSH8 0xFFFFFFFFFFFFFFFF DUP1 DUP3 GT ISZERO PUSH2 0x155B JUMPI DUP4 DUP5 REVERT JUMPDEST PUSH2 0x1567 DUP8 DUP4 DUP9 ADD PUSH2 0x144E JUMP JUMPDEST DUP4 DUP7 ADD MSTORE PUSH2 0x160 SWAP3 POP DUP3 DUP7 ADD MLOAD SWAP2 POP DUP1 DUP3 GT ISZERO PUSH2 0x1582 JUMPI DUP4 DUP5 REVERT JUMPDEST PUSH2 0x158E DUP8 DUP4 DUP9 ADD PUSH2 0x144E JUMP JUMPDEST DUP4 DUP7 ADD MSTORE PUSH2 0x180 SWAP3 POP DUP3 DUP7 ADD MLOAD SWAP2 POP DUP1 DUP3 GT ISZERO PUSH2 0x15A9 JUMPI DUP4 DUP5 REVERT JUMPDEST PUSH2 0x15B5 DUP8 DUP4 DUP9 ADD PUSH2 0x144E JUMP JUMPDEST DUP4 DUP7 ADD MSTORE PUSH2 0x1A0 SWAP3 POP DUP3 DUP7 ADD MLOAD SWAP2 POP DUP1 DUP3 GT ISZERO PUSH2 0x15D0 JUMPI DUP4 DUP5 REVERT JUMPDEST POP PUSH2 0x15DD DUP7 DUP3 DUP8 ADD PUSH2 0x144E JUMP JUMPDEST DUP3 DUP6 ADD MSTORE POP POP POP SWAP3 SWAP2 POP POP JUMP JUMPDEST PUSH1 0x0 PUSH1 0x20 DUP3 DUP5 SUB SLT ISZERO PUSH2 0x15FC JUMPI PUSH1 0x0 DUP1 REVERT JUMPDEST DUP2 MLOAD PUSH8 0xFFFFFFFFFFFFFFFF DUP2 GT ISZERO PUSH2 0x1613 JUMPI PUSH1 0x0 DUP1 REVERT JUMPDEST PUSH2 0x161F DUP5 DUP3 DUP6 ADD PUSH2 0x13F3 JUMP JUMPDEST SWAP5 SWAP4 POP POP POP POP JUMP JUMPDEST PUSH1 0x0 DUP1 PUSH1 0x0 PUSH1 0x60 DUP5 DUP7 SUB SLT ISZERO PUSH2 0x163B JUMPI DUP2 DUP3 REVERT JUMPDEST DUP4 MLOAD PUSH8 0xFFFFFFFFFFFFFFFF DUP1 DUP3 GT ISZERO PUSH2 0x1652 JUMPI DUP4 DUP5 REVERT JUMPDEST PUSH2 0x165E DUP8 DUP4 DUP9 ADD PUSH2 0x13F3 JUMP JUMPDEST SWAP5 POP PUSH1 0x20 SWAP2 POP DUP2 DUP7 ADD MLOAD DUP2 DUP2 GT ISZERO PUSH2 0x1674 JUMPI DUP5 DUP6 REVERT JUMPDEST DUP1 DUP8 ADD DUP9 PUSH1 0x1F DUP3 ADD SLT PUSH2 0x1685 JUMPI DUP6 DUP7 REVERT JUMPDEST DUP1 MLOAD SWAP2 POP PUSH2 0x1695 PUSH2 0x13A7 DUP4 PUSH2 0x1D0C JUMP JUMPDEST DUP3 DUP2 MSTORE DUP5 DUP2 ADD SWAP1 DUP3 DUP7 ADD DUP7 DUP6 MUL DUP5 ADD DUP8 ADD DUP13 LT ISZERO PUSH2 0x16B1 JUMPI DUP9 DUP10 REVERT JUMPDEST DUP9 SWAP4 POP JUMPDEST DUP5 DUP5 LT ISZERO PUSH2 0x16D3 JUMPI DUP1 MLOAD DUP4 MSTORE PUSH1 0x1 SWAP4 SWAP1 SWAP4 ADD SWAP3 SWAP2 DUP7 ADD SWAP2 DUP7 ADD PUSH2 0x16B5 JUMP JUMPDEST POP PUSH1 0x40 DUP11 ADD MLOAD SWAP1 SWAP8 POP SWAP5 POP POP POP POP DUP1 DUP3 GT ISZERO PUSH2 0x16EE JUMPI PUSH1 0x0 DUP1 REVERT JUMPDEST POP PUSH2 0x16FB DUP7 DUP3 DUP8 ADD PUSH2 0x1389 JUMP JUMPDEST SWAP2 POP POP SWAP3 POP SWAP3 POP SWAP3 JUMP JUMPDEST PUSH1 0x0 DUP1 PUSH1 0x0 PUSH1 0x60 DUP5 DUP7 SUB SLT ISZERO PUSH2 0x171A JUMPI PUSH1 0x0 DUP1 REVERT JUMPDEST DUP4 MLOAD PUSH8 0xFFFFFFFFFFFFFFFF DUP1 DUP3 GT ISZERO PUSH2 0x1732 JUMPI PUSH1 0x0 DUP1 REVERT JUMPDEST PUSH2 0x173E DUP8 DUP4 DUP9 ADD PUSH2 0x13F3 JUMP JUMPDEST SWAP5 POP PUSH1 0x20 DUP7 ADD MLOAD SWAP4 POP PUSH1 0x40 DUP7 ADD MLOAD SWAP2 POP DUP1 DUP3 GT ISZERO PUSH2 0x16EE JUMPI PUSH1 0x0 DUP1 REVERT JUMPDEST PUSH1 0x0 PUSH1 0x20 DUP3 DUP5 SUB SLT ISZERO PUSH2 0x176C JUMPI DUP1 DUP2 REVERT JUMPDEST DUP2 CALLDATALOAD PUSH8 0xFFFFFFFFFFFFFFFF DUP2 GT ISZERO PUSH2 0x1782 JUMPI DUP2 DUP3 REVERT JUMPDEST DUP1 DUP4 ADD DUP5 PUSH1 0x1F DUP3 ADD SLT PUSH2 0x1793 JUMPI DUP3 DUP4 REVERT JUMPDEST DUP1 CALLDATALOAD SWAP2 POP PUSH2 0x17A3 PUSH2 0x13A7 DUP4 PUSH2 0x1D2D JUMP JUMPDEST DUP3 DUP2 MSTORE DUP6 PUSH1 0x20 DUP5 DUP5 ADD ADD GT ISZERO PUSH2 0x17B7 JUMPI DUP4 DUP5 REVERT JUMPDEST DUP3 PUSH1 0x20 DUP4 ADD PUSH1 0x20 DUP4 ADD CALLDATACOPY SWAP2 DUP3 ADD PUSH1 0x20 ADD SWAP3 SWAP1 SWAP3 MSTORE SWAP4 SWAP3 POP POP POP JUMP JUMPDEST PUSH1 0x0 PUSH1 0x20 DUP3 DUP5 SUB SLT ISZERO PUSH2 0x17E4 JUMPI PUSH1 0x0 DUP1 REVERT JUMPDEST DUP2 MLOAD PUSH8 0xFFFFFFFFFFFFFFFF DUP2 GT ISZERO PUSH2 0x17FB JUMPI PUSH1 0x0 DUP1 REVERT JUMPDEST PUSH2 0x161F DUP5 DUP3 DUP6 ADD PUSH2 0x149C JUMP JUMPDEST PUSH1 0x0 DUP1 PUSH1 0x0 DUP1 PUSH1 0x80 DUP6 DUP8 SUB SLT ISZERO PUSH2 0x181C JUMPI DUP1 DUP2 REVERT JUMPDEST DUP5 MLOAD PUSH8 0xFFFFFFFFFFFFFFFF DUP1 DUP3 GT ISZERO PUSH2 0x1833 JUMPI DUP3 DUP4 REVERT JUMPDEST PUSH2 0x183F DUP9 DUP4 DUP10 ADD PUSH2 0x149C JUMP JUMPDEST SWAP6 POP PUSH1 0x20 DUP8 ADD MLOAD SWAP2 POP DUP1 DUP3 GT ISZERO PUSH2 0x1854 JUMPI DUP3 DUP4 REVERT JUMPDEST PUSH2 0x1860 DUP9 DUP4 DUP10 ADD PUSH2 0x149C JUMP JUMPDEST SWAP5 POP PUSH1 0x40 DUP8 ADD MLOAD SWAP2 POP DUP1 DUP3 GT ISZERO PUSH2 0x1875 JUMPI DUP3 DUP4 REVERT JUMPDEST PUSH2 0x1881 DUP9 DUP4 DUP10 ADD PUSH2 0x144E JUMP JUMPDEST SWAP4 POP PUSH1 0x60 DUP8 ADD MLOAD SWAP2 POP DUP1 DUP3 GT ISZERO PUSH2 0x1896 JUMPI DUP3 DUP4 REVERT JUMPDEST POP PUSH2 0x18A3 DUP8 DUP3 DUP9 ADD PUSH2 0x144E JUMP JUMPDEST SWAP2 POP POP SWAP3 SWAP6 SWAP2 SWAP5 POP SWAP3 POP JUMP JUMPDEST PUSH1 0x0 DUP1 PUSH1 0x0 PUSH1 0x60 DUP5 DUP7 SUB SLT ISZERO PUSH2 0x18C4 JUMPI PUSH1 0x0 DUP1 REVERT JUMPDEST DUP4 MLOAD PUSH8 0xFFFFFFFFFFFFFFFF DUP1 DUP3 GT ISZERO PUSH2 0x18DC JUMPI PUSH1 0x0 DUP1 REVERT JUMPDEST PUSH2 0x18E8 DUP8 DUP4 DUP9 ADD PUSH2 0x149C JUMP JUMPDEST SWAP5 POP PUSH1 0x20 DUP7 ADD MLOAD SWAP4 POP PUSH1 0x40 DUP7 ADD MLOAD SWAP2 POP DUP1 DUP3 GT ISZERO PUSH2 0x1905 JUMPI PUSH1 0x0 DUP1 REVERT JUMPDEST POP PUSH2 0x16FB DUP7 DUP3 DUP8 ADD PUSH2 0x144E JUMP JUMPDEST PUSH20 0xFFFFFFFFFFFFFFFFFFFFFFFFFFFFFFFFFFFFFFFF AND SWAP1 MSTORE JUMP JUMPDEST PUSH1 0x0 DUP2 MLOAD DUP1 DUP5 MSTORE PUSH1 0x20 DUP5 ADD SWAP4 POP DUP4 PUSH1 0x20 DUP3 MUL DUP6 ADD PUSH1 0x20 DUP6 ADD PUSH1 0x0 JUMPDEST DUP5 DUP2 LT ISZERO PUSH2 0x1975 JUMPI DUP4 DUP4 SUB DUP9 MSTORE PUSH2 0x195F DUP4 DUP4 MLOAD PUSH2 0x19BD JUMP JUMPDEST PUSH1 0x20 SWAP9 DUP10 ADD SWAP9 SWAP1 SWAP4 POP SWAP2 SWAP1 SWAP2 ADD SWAP1 PUSH1 0x1 ADD PUSH2 0x1947 JUMP JUMPDEST POP SWAP1 SWAP7 SWAP6 POP POP POP POP POP POP JUMP JUMPDEST PUSH1 0x0 DUP2 MLOAD DUP1 DUP5 MSTORE PUSH1 0x20 DUP5 ADD SWAP4 POP PUSH1 0x20 DUP4 ADD PUSH1 0x0 JUMPDEST DUP3 DUP2 LT ISZERO PUSH2 0x19B3 JUMPI DUP2 MLOAD DUP7 MSTORE PUSH1 0x20 SWAP6 DUP7 ADD SWAP6 SWAP1 SWAP2 ADD SWAP1 PUSH1 0x1 ADD PUSH2 0x1995 JUMP JUMPDEST POP SWAP4 SWAP5 SWAP4 POP POP POP POP JUMP JUMPDEST PUSH1 0x0 DUP2 MLOAD DUP1 DUP5 MSTORE PUSH2 0x19D5 DUP2 PUSH1 0x20 DUP7 ADD PUSH1 0x20 DUP7 ADD PUSH2 0x1D70 JUMP JUMPDEST PUSH1 0x1F ADD PUSH32 0xFFFFFFFFFFFFFFFFFFFFFFFFFFFFFFFFFFFFFFFFFFFFFFFFFFFFFFFFFFFFFFE0 AND SWAP3 SWAP1 SWAP3 ADD PUSH1 0x20 ADD SWAP3 SWAP2 POP POP JUMP JUMPDEST PUSH1 0x0 PUSH1 0x80 DUP3 MSTORE PUSH2 0x1A1A PUSH1 0x80 DUP4 ADD DUP8 PUSH2 0x19BD JUMP JUMPDEST PUSH1 0x20 DUP4 DUP3 SUB DUP2 DUP6 ADD MSTORE DUP2 DUP8 MLOAD DUP1 DUP5 MSTORE DUP3 DUP5 ADD SWAP2 POP DUP3 DUP4 DUP3 MUL DUP6 ADD ADD DUP4 DUP11 ADD PUSH1 0x0 JUMPDEST DUP4 DUP2 LT ISZERO PUSH2 0x1B75 JUMPI PUSH32 0xFFFFFFFFFFFFFFFFFFFFFFFFFFFFFFFFFFFFFFFFFFFFFFFFFFFFFFFFFFFFFFE0 DUP8 DUP5 SUB ADD DUP6 MSTORE DUP2 MLOAD PUSH2 0x1C0 PUSH2 0x1A7A DUP6 DUP4 MLOAD PUSH2 0x1912 JUMP JUMPDEST DUP8 DUP3 ADD MLOAD PUSH2 0x1A8A DUP10 DUP8 ADD DUP3 PUSH2 0x1912 JUMP JUMPDEST POP PUSH1 0x40 DUP3 ADD MLOAD PUSH2 0x1A9D PUSH1 0x40 DUP8 ADD DUP3 PUSH2 0x1912 JUMP JUMPDEST POP PUSH1 0x60 DUP3 ADD MLOAD PUSH2 0x1AB0 PUSH1 0x60 DUP8 ADD DUP3 PUSH2 0x1912 JUMP JUMPDEST POP PUSH1 0x80 DUP3 ADD MLOAD PUSH1 0x80 DUP7 ADD MSTORE PUSH1 0xA0 DUP3 ADD MLOAD PUSH1 0xA0 DUP7 ADD MSTORE PUSH1 0xC0 DUP3 ADD MLOAD PUSH1 0xC0 DUP7 ADD MSTORE PUSH1 0xE0 DUP3 ADD MLOAD PUSH1 0xE0 DUP7 ADD MSTORE PUSH2 0x100 DUP1 DUP4 ADD MLOAD DUP2 DUP8 ADD MSTORE POP PUSH2 0x120 DUP1 DUP4 ADD MLOAD DUP2 DUP8 ADD MSTORE POP PUSH2 0x140 DUP1 DUP4 ADD MLOAD DUP3 DUP3 DUP9 ADD MSTORE PUSH2 0x1B09 DUP4 DUP9 ADD DUP3 PUSH2 0x19BD JUMP JUMPDEST SWAP2 POP POP PUSH2 0x160 SWAP2 POP DUP2 DUP4 ADD MLOAD DUP7 DUP3 SUB DUP4 DUP9 ADD MSTORE PUSH2 0x1B26 DUP3 DUP3 PUSH2 0x19BD JUMP JUMPDEST SWAP3 POP POP POP PUSH2 0x180 DUP1 DUP4 ADD MLOAD DUP7 DUP4 SUB DUP3 DUP9 ADD MSTORE PUSH2 0x1B42 DUP4 DUP3 PUSH2 0x19BD JUMP JUMPDEST SWAP2 POP POP PUSH2 0x1A0 SWAP2 POP DUP2 DUP4 ADD MLOAD DUP7 DUP3 SUB DUP4 DUP9 ADD MSTORE PUSH2 0x1B5F DUP3 DUP3 PUSH2 0x19BD JUMP JUMPDEST SWAP9 DUP11 ADD SWAP9 SWAP7 POP POP POP SWAP3 DUP8 ADD SWAP3 POP POP PUSH1 0x1 ADD PUSH2 0x1A3B JUMP JUMPDEST POP POP DUP7 DUP2 SUB PUSH1 0x40 DUP9 ADD MSTORE PUSH2 0x1B89 DUP2 DUP11 PUSH2 0x1981 JUMP JUMPDEST SWAP5 POP POP POP POP POP DUP3 DUP2 SUB PUSH1 0x60 DUP5 ADD MSTORE PUSH2 0x1BA1 DUP2 DUP6 PUSH2 0x192C JUMP JUMPDEST SWAP8 SWAP7 POP POP POP POP POP POP POP JUMP JUMPDEST PUSH1 0x20 DUP1 DUP3 MSTORE PUSH1 0x1A SWAP1 DUP3 ADD MSTORE PUSH32 0x46524F4D5F4C4553535F5448414E5F544F5F5245515549524544000000000000 PUSH1 0x40 DUP3 ADD MSTORE PUSH1 0x60 ADD SWAP1 JUMP JUMPDEST PUSH1 0x20 DUP1 DUP3 MSTORE PUSH1 0x1C SWAP1 DUP3 ADD MSTORE PUSH32 0x544F5F4C4553535F5448414E5F4C454E4754485F524551554952454400000000 PUSH1 0x40 DUP3 ADD MSTORE PUSH1 0x60 ADD SWAP1 JUMP JUMPDEST PUSH1 0x20 DUP1 DUP3 MSTORE PUSH1 0x19 SWAP1 DUP3 ADD MSTORE PUSH32 0x554E4B4E4F574E5F46554E4354494F4E5F53454C4543544F5200000000000000 PUSH1 0x40 DUP3 ADD MSTORE PUSH1 0x60 ADD SWAP1 JUMP JUMPDEST PUSH1 0x20 DUP1 DUP3 MSTORE PUSH1 0xD SWAP1 DUP3 ADD MSTORE PUSH32 0x554E494D504C454D454E54454400000000000000000000000000000000000000 PUSH1 0x40 DUP3 ADD MSTORE PUSH1 0x60 ADD SWAP1 JUMP JUMPDEST PUSH1 0x20 DUP1 DUP3 MSTORE PUSH1 0x25 SWAP1 DUP3 ADD MSTORE PUSH32 0x475245415445525F4F525F455155414C5F544F5F345F4C454E4754485F524551 PUSH1 0x40 DUP3 ADD MSTORE PUSH32 0x5549524544000000000000000000000000000000000000000000000000000000 PUSH1 0x60 DUP3 ADD MSTORE PUSH1 0x80 ADD SWAP1 JUMP JUMPDEST PUSH1 0x40 MLOAD DUP2 DUP2 ADD PUSH8 0xFFFFFFFFFFFFFFFF DUP2 GT DUP3 DUP3 LT OR ISZERO PUSH2 0x1D04 JUMPI PUSH1 0x0 DUP1 REVERT JUMPDEST PUSH1 0x40 MSTORE SWAP2 SWAP1 POP JUMP JUMPDEST PUSH1 0x0 PUSH8 0xFFFFFFFFFFFFFFFF DUP3 GT ISZERO PUSH2 0x1D23 JUMPI PUSH1 0x0 DUP1 REVERT JUMPDEST POP PUSH1 0x20 SWAP1 DUP2 MUL ADD SWAP1 JUMP JUMPDEST PUSH1 0x0 PUSH8 0xFFFFFFFFFFFFFFFF DUP3 GT ISZERO PUSH2 0x1D44 JUMPI PUSH1 0x0 DUP1 REVERT JUMPDEST POP PUSH1 0x1F ADD PUSH32 0xFFFFFFFFFFFFFFFFFFFFFFFFFFFFFFFFFFFFFFFFFFFFFFFFFFFFFFFFFFFFFFE0 AND PUSH1 0x20 ADD SWAP1 JUMP JUMPDEST PUSH1 0x0 JUMPDEST DUP4 DUP2 LT ISZERO PUSH2 0x1D8B JUMPI DUP2 DUP2 ADD MLOAD DUP4 DUP3 ADD MSTORE PUSH1 0x20 ADD PUSH2 0x1D73 JUMP JUMPDEST DUP4 DUP2 GT ISZERO PUSH2 0x1D9A JUMPI PUSH1 0x0 DUP5 DUP5 ADD MSTORE JUMPDEST POP POP POP POP JUMP INVALID LOG3 PUSH6 0x627A7A723058 KECCAK256 0x1e SGT 0xde SHR RETURNDATACOPY PUSH27 0xBF5C2B31A1E9BE6141FC00DA7E28B0CBA94C2BADAF93DF0CC0A96C PUSH6 0x78706572696D PUSH6 0x6E74616CF564 PUSH20 0x6F6C634300050900400000000000000000000000 "
			}
		}
	},
	"sourceTreeHashHex": "0x27695bb4a9752deb4afaf189b63f9deda80b0ad8a908bea4786224369dd67aa4",
	"compiler": {
		"name": "solc",
		"version": "soljson-v0.5.9+commit.e560f70d.js",
		"settings": {
			"optimizer": {
				"enabled": true,
				"runs": 1000000,
				"details": {
					"yul": true,
					"deduplicate": true,
					"cse": true,
					"constantOptimizer": true
				}
			},
			"outputSelection": {
				"*": {
					"*": [
						"abi",
						"evm.bytecode.object",
						"evm.bytecode.sourceMap",
						"evm.deployedBytecode.object",
						"evm.deployedBytecode.sourceMap"
					]
				}
			},
			"evmVersion": "constantinople",
			"remappings": [
				"@0x/contracts-exchange=/Users/alextowle/0x-monorepo/contracts/dev-utils/node_modules/@0x/contracts-exchange",
				"@0x/contracts-exchange-libs=/Users/alextowle/0x-monorepo/contracts/dev-utils/node_modules/@0x/contracts-exchange-libs",
				"@0x/contracts-utils=/Users/alextowle/0x-monorepo/contracts/dev-utils/node_modules/@0x/contracts-utils",
				"@0x/contracts-asset-proxy=/Users/alextowle/0x-monorepo/contracts/dev-utils/node_modules/@0x/contracts-asset-proxy"
			]
		}
	}
}