{
    "schemaVersion": "2.0.0",
    "contractName": "FillQuoteTransformer",
    "compilerOutput": {
        "abi": [
            {
                "inputs": [
                    {
                        "internalType": "contract IExchange",
                        "name": "exchange_",
                        "type": "address"
                    }
                ],
                "stateMutability": "nonpayable",
                "type": "constructor"
            },
            {
                "inputs": [],
                "name": "deployer",
                "outputs": [
                    {
                        "internalType": "address",
                        "name": "",
                        "type": "address"
                    }
                ],
                "stateMutability": "view",
                "type": "function"
            },
            {
                "inputs": [
                    {
                        "internalType": "address payable",
                        "name": "ethRecipient",
                        "type": "address"
                    }
                ],
                "name": "die",
                "outputs": [],
                "stateMutability": "nonpayable",
                "type": "function"
            },
            {
                "inputs": [],
                "name": "erc20Proxy",
                "outputs": [
                    {
                        "internalType": "address",
                        "name": "",
                        "type": "address"
                    }
                ],
                "stateMutability": "view",
                "type": "function"
            },
            {
                "inputs": [],
                "name": "exchange",
                "outputs": [
                    {
                        "internalType": "contract IExchange",
                        "name": "",
                        "type": "address"
                    }
                ],
                "stateMutability": "view",
                "type": "function"
            },
            {
                "inputs": [
                    {
                        "internalType": "bytes32",
                        "name": "",
                        "type": "bytes32"
                    },
                    {
                        "internalType": "address payable",
                        "name": "",
                        "type": "address"
                    },
                    {
                        "internalType": "bytes",
                        "name": "data_",
                        "type": "bytes"
                    }
                ],
                "name": "transform",
                "outputs": [
                    {
                        "internalType": "bytes4",
                        "name": "success",
                        "type": "bytes4"
                    }
                ],
                "stateMutability": "nonpayable",
                "type": "function"
            }
        ],
        "devdoc": {
            "details": "A transformer that fills an ERC20 market sell/buy quote.",
            "methods": {
                "constructor": {
                    "details": "Create this contract.",
                    "params": {
                        "exchange_": "The Exchange V3 instance."
                    }
                },
                "die(address)": {
                    "details": "Destruct this contract. Only callable by the deployer and will not      succeed in the context of a delegatecall (from another contract).",
                    "params": {
                        "ethRecipient": "The recipient of ETH held in this contract."
                    }
                },
                "transform(bytes32,address,bytes)": {
                    "details": "Sell this contract's entire balance of of `sellToken` in exchange      for `buyToken` by filling `orders`. Protocol fees should be attached      to this call. `buyToken` and excess ETH will be transferred back to the caller.",
                    "params": {
                        "data_": "ABI-encoded `TransformData`."
                    },
                    "returns": {
                        "success": "The success bytes (`LibERC20Transformer.TRANSFORMER_SUCCESS`)."
                    }
                }
            },
            "stateVariables": {
                "ERC20_ASSET_PROXY_ID": {
                    "details": "The Exchange ERC20Proxy ID."
                },
                "MAX_UINT256": {
                    "details": "Maximum uint256 value."
                },
                "erc20Proxy": {
                    "details": "The ERC20Proxy address."
                },
                "exchange": {
                    "details": "The Exchange contract."
                }
            }
        },
        "evm": {
            "bytecode": {
                "linkReferences": {},
                "object": "0x6101006040523480156200001257600080fd5b5060405162002306380380620023068339810160408190526200003591620000f4565b33606090811b60805230811b60a05281901b6001600160601b03191660c052604051630c0e082160e31b81526001600160a01b038216906360704108906200008990630f47261b60e41b906004016200011a565b60206040518083038186803b158015620000a257600080fd5b505afa158015620000b7573d6000803e3d6000fd5b505050506040513d601f19601f82011682018060405250810190620000dd9190620000f4565b60601b6001600160601b03191660e0525062000148565b60006020828403121562000106578081fd5b815162000113816200012f565b9392505050565b6001600160e01b031991909116815260200190565b6001600160a01b03811681146200014557600080fd5b50565b60805160601c60a05160601c60c05160601c60e05160601c612155620001b16000398060d152806103a95280610b495280610ce05250806101e752806103ff528061115552508061017a52806101a852508061010b5280610139528061020b52506121556000f3fe608060405234801561001057600080fd5b50600436106100675760003560e01c8063d2f7265a11610050578063d2f7265a1461009f578063d5f39488146100a7578063e063ed81146100af57610067565b80637f555b031461006c578063c9353cb51461008a575b600080fd5b6100746100cf565b6040516100819190611de9565b60405180910390f35b61009d6100983660046118f5565b6100f3565b005b6100746101e5565b610074610209565b6100c26100bd366004611911565b61022d565b6040516100819190611e85565b7f000000000000000000000000000000000000000000000000000000000000000081565b3373ffffffffffffffffffffffffffffffffffffffff7f000000000000000000000000000000000000000000000000000000000000000016146101625761016261015d337f0000000000000000000000000000000000000000000000000000000000000000610768565b610817565b3073ffffffffffffffffffffffffffffffffffffffff7f000000000000000000000000000000000000000000000000000000000000000016146101cc576101cc61015d307f000000000000000000000000000000000000000000000000000000000000000061081f565b8073ffffffffffffffffffffffffffffffffffffffff16ff5b7f000000000000000000000000000000000000000000000000000000000000000081565b7f000000000000000000000000000000000000000000000000000000000000000081565b600061023761153d565b610243838501856119e8565b9050610268816020015173ffffffffffffffffffffffffffffffffffffffff1661082d565b806102915750610291816040015173ffffffffffffffffffffffffffffffffffffffff1661082d565b156102da576102da61015d600086868080601f01602080910402602001604051908101604052809392919081815260200183838082843760009201919091525061086092505050565b8060800151518160600151511461032f5761032f61015d600186868080601f01602080910402602001604051908101604052809392919081815260200183838082843760009201919091525061086092505050565b60008151600181111561033e57fe5b14801561036e57507fffffffffffffffffffffffffffffffffffffffffffffffffffffffffffffffff8160c00151145b156103a457602081015161039e9073ffffffffffffffffffffffffffffffffffffffff163063ffffffff61088916565b60c08201525b6103f77f00000000000000000000000000000000000000000000000000000000000000008260c00151836020015173ffffffffffffffffffffffffffffffffffffffff166109609092919063ffffffff16565b60006104a73a7f000000000000000000000000000000000000000000000000000000000000000073ffffffffffffffffffffffffffffffffffffffff16631ce4c78b6040518163ffffffff1660e01b815260040160206040518083038186803b15801561046357600080fd5b505afa158015610477573d6000803e3d6000fd5b505050506040513d601f19601f8201168201806040525081019061049b9190611ad9565b9063ffffffff610a3c16565b905047600080805b8560600151518110156106da576000865160018111156104cb57fe5b14156104e6578560c0015182106104e1576106da565b6104f6565b8560c0015183106104f6576106da565b8484101561050b5761050b61015d8587610a6d565b6105136115a7565b60008751600181111561052257fe5b14156105e1576105da876040015188602001518960600151858151811061054557fe5b60200260200101518a60800151868151811061055d57fe5b60200260200101516105d4878d60a00151511161059a577fffffffffffffffffffffffffffffffffffffffffffffffffffffffffffffffff6105b3565b8c60a0015188815181106105aa57fe5b60200260200101515b60c08e01516105c8908b63ffffffff610a9616565b9063ffffffff610ab516565b8b610acb565b905061068a565b61068787604001518860200151896060015185815181106105fe57fe5b60200260200101518a60800151868151811061061657fe5b6020026020010151610681878d60a001515111610653577fffffffffffffffffffffffffffffffffffffffffffffffffffffffffffffffff61066c565b8c60a00151888151811061066357fe5b60200260200101515b60c08e01516105c8908c63ffffffff610a9616565b8b610c3f565b90505b805161069d90849063ffffffff610d7c16565b92506106b6816020015185610d7c90919063ffffffff16565b93506106cf816040015186610a9690919063ffffffff16565b9450506001016104af565b506000855160018111156106ea57fe5b1415610717578460c001518110156107125761071261015d8660200151838860c00151610d98565b610739565b8460c001518210156107395761073961015d8660400151848860c00151610e49565b507f13c9929e000000000000000000000000000000000000000000000000000000009998505050505050505050565b606060405161077690611c0f565b60405180910390208383604051602401610791929190611e0a565b604080517fffffffffffffffffffffffffffffffffffffffffffffffffffffffffffffffe08184030181529190526020810180517bffffffffffffffffffffffffffffffffffffffffffffffffffffffff167fffffffff000000000000000000000000000000000000000000000000000000009093169290921790915290505b92915050565b805160208201fd5b606060405161077690611cfc565b73ffffffffffffffffffffffffffffffffffffffff811673eeeeeeeeeeeeeeeeeeeeeeeeeeeeeeeeeeeeeeee145b919050565b606060405161086e90611bc0565b60405180910390208383604051602401610791929190611ef5565b60006108948361082d565b156108b7575073ffffffffffffffffffffffffffffffffffffffff811631610811565b6040517f70a0823100000000000000000000000000000000000000000000000000000000815273ffffffffffffffffffffffffffffffffffffffff8416906370a0823190610909908590600401611de9565b60206040518083038186803b15801561092157600080fd5b505afa158015610935573d6000803e3d6000fd5b505050506040513d601f19601f820116820180604052508101906109599190611ad9565b9392505050565b6040517fdd62ed3e000000000000000000000000000000000000000000000000000000008152819073ffffffffffffffffffffffffffffffffffffffff85169063dd62ed3e906109b69030908790600401611e0a565b60206040518083038186803b1580156109ce57600080fd5b505afa1580156109e2573d6000803e3d6000fd5b505050506040513d601f19601f82011682018060405250810190610a069190611ad9565b1015610a3757610a3783837fffffffffffffffffffffffffffffffffffffffffffffffffffffffffffffffff610e57565b505050565b600082610a4b57506000610811565b82820282848281610a5857fe5b04146109595761095961015d60018686610f03565b6060604051610a7b90611d4b565b60405180910390208383604051602401610791929190612079565b600082821115610aaf57610aaf61015d60028585610f03565b50900390565b6000818310610ac45781610959565b5090919050565b610ad36115a7565b6000610ae3866101a00151610f22565b60e0870151909150849015610be6578873ffffffffffffffffffffffffffffffffffffffff168273ffffffffffffffffffffffffffffffffffffffff161415610b795760e0870151610b749073ffffffffffffffffffffffffffffffffffffffff8416907f00000000000000000000000000000000000000000000000000000000000000009063ffffffff61096016565b610be6565b8773ffffffffffffffffffffffffffffffffffffffff168273ffffffffffffffffffffffffffffffffffffffff161415610bda5760a087015160e0880151610bd39190610bcd90829063ffffffff610d7c16565b87610faf565b9050610be6565b610be661015d83610ff9565b610bf4818860a00151610ab5565b9050610c32878783878d8d73ffffffffffffffffffffffffffffffffffffffff168873ffffffffffffffffffffffffffffffffffffffff16146110a4565b9998505050505050505050565b610c476115a7565b6000610c57866101a00151610f22565b90506000610c6e8588608001518960a00151610faf565b90508660e00151600014610d6e578873ffffffffffffffffffffffffffffffffffffffff168273ffffffffffffffffffffffffffffffffffffffff161415610d2f57610cd985610ccf8960e001518a60800151610a9690919063ffffffff16565b8960a00151610faf565b9050610d2a7f00000000000000000000000000000000000000000000000000000000000000008860e001518473ffffffffffffffffffffffffffffffffffffffff166109609092919063ffffffff16565b610d6e565b8773ffffffffffffffffffffffffffffffffffffffff168273ffffffffffffffffffffffffffffffffffffffff1614610d6e57610d6e61015d83610ff9565b610bf48760a0015182610ab5565b6000828201838110156109595761095961015d60008686610f03565b6060604051610da690611cad565b6040518091039020848484604051602401610dc393929190611e57565b604080517fffffffffffffffffffffffffffffffffffffffffffffffffffffffffffffffe08184030181529190526020810180517bffffffffffffffffffffffffffffffffffffffffffffffffffffffff167fffffffff000000000000000000000000000000000000000000000000000000009093169290921790915290509392505050565b6060604051610da690611b71565b606063095ea7b360e01b8383604051602401610e74929190611e31565b604080517fffffffffffffffffffffffffffffffffffffffffffffffffffffffffffffffe08184030181529190526020810180517bffffffffffffffffffffffffffffffffffffffffffffffffffffffff167fffffffff00000000000000000000000000000000000000000000000000000000909316929092179091529050610efd8482611330565b50505050565b606063e946c1bb60e01b848484604051602401610dc393929190611ec5565b6000815160001415610f365750600061085b565b81516024141580610f9357507ff47261b000000000000000000000000000000000000000000000000000000000610f6e8360006113ca565b7fffffffff000000000000000000000000000000000000000000000000000000001614155b15610fa457610fa461015d83611416565b61081182601061143d565b6000610ff183610fe5610fc982600163ffffffff610a9616565b610fd9888763ffffffff610a3c16565b9063ffffffff610d7c16565b9063ffffffff61147d16565b949350505050565b606060405161100790611c5e565b6040518091039020826040516024016110209190611de9565b604080517fffffffffffffffffffffffffffffffffffffffffffffffffffffffffffffffe08184030181529190526020810180517bffffffffffffffffffffffffffffffffffffffffffffffffffffffff167fffffffff00000000000000000000000000000000000000000000000000000000909316929092179091529050919050565b6110ac6115a7565b6040517f70a0823100000000000000000000000000000000000000000000000000000000815260009073ffffffffffffffffffffffffffffffffffffffff8516906370a0823190611101903090600401611de9565b60206040518083038186803b15801561111957600080fd5b505afa15801561112d573d6000803e3d6000fd5b505050506040513d601f19601f820116820180604052508101906111519190611ad9565b90507f000000000000000000000000000000000000000000000000000000000000000073ffffffffffffffffffffffffffffffffffffffff16639b44d556868a898b6040518563ffffffff1660e01b81526004016111b193929190611f18565b60a0604051808303818588803b1580156111ca57600080fd5b505af193505050508015611219575060408051601f3d9081017fffffffffffffffffffffffffffffffffffffffffffffffffffffffffffffffe016820190925261121691810190611997565b60015b611253573d808015611247576040519150601f19603f3d011682016040523d82523d6000602084013e61124c565b606091505b5050611325565b6112ec828673ffffffffffffffffffffffffffffffffffffffff166370a08231306040518263ffffffff1660e01b81526004016112909190611de9565b60206040518083038186803b1580156112a857600080fd5b505afa1580156112bc573d6000803e3d6000fd5b505050506040513d601f19601f820116820180604052508101906112e09190611ad9565b9063ffffffff610a9616565b602080850191909152608082015160408501528101518352831561132357606081015183516113209163ffffffff610d7c16565b83525b505b509695505050505050565b600060608373ffffffffffffffffffffffffffffffffffffffff16836040516113599190611b55565b6000604051808303816000865af19150503d8060008114611396576040519150601f19603f3d011682016040523d82523d6000602084013e61139b565b606091505b50915091508180156113b157506113b1816114a7565b156113bd5750506113c6565b610efd81610817565b5050565b600081600401835110156113eb576113eb61015d60038551856004016114ed565b5001602001517fffffffff000000000000000000000000000000000000000000000000000000001690565b606060405161142490611d9a565b6040518091039020826040516024016110209190611eb2565b6000816014018351101561145e5761145e61015d60048551856014016114ed565b50016014015173ffffffffffffffffffffffffffffffffffffffff1690565b6000816114935761149361015d60038585610f03565b600082848161149e57fe5b04949350505050565b60008151600014156114bb5750600161085b565b81516020141561085b5760006114d283600061150c565b905080600114156114e757600191505061085b565b50919050565b6060632800659560e01b848484604051602401610dc393929190611ee7565b60006109598383600081602001835110156115345761153461015d60058551856020016114ed565b50016020015190565b6040805160e081019091528060008152602001600073ffffffffffffffffffffffffffffffffffffffff168152602001600073ffffffffffffffffffffffffffffffffffffffff168152602001606081526020016060815260200160608152602001600081525090565b60405180606001604052806000815260200160008152602001600081525090565b8035610811816120fa565b600082601f8301126115e3578081fd5b81356115f66115f1826120ae565b612087565b818152915060208083019084810160005b848110156116305761161e888484358a010161185f565b84529282019290820190600101611607565b505050505092915050565b600082601f83011261164b578081fd5b81356116596115f1826120ae565b818152915060208083019084810160005b8481101561163057813587016101c0807fffffffffffffffffffffffffffffffffffffffffffffffffffffffffffffffe0838c030112156116aa57600080fd5b6116b381612087565b6116bf8b8785016115c8565b815260406116cf8c8286016115c8565b8783015260606116e18d8287016115c8565b82840152608091506116f58d8387016115c8565b818401525060a0808501358284015260c0915081850135818401525060e080850135828401526101009150818501358184015250610120808501358284015261014091508185013581840152506101608085013567ffffffffffffffff8082111561175f57600080fd5b61176d8f8b848a010161185f565b8486015261018093508387013591508082111561178957600080fd5b6117978f8b848a010161185f565b838601526101a09250828701359150808211156117b357600080fd5b6117c18f8b848a010161185f565b84860152858701359350808411156117d857600080fd5b50506117e88d898488010161185f565b908301525086525050928201929082019060010161166a565b600082601f830112611811578081fd5b813561181f6115f1826120ae565b81815291506020808301908481018184028601820187101561184057600080fd5b60005b8481101561163057813584529282019290820190600101611843565b600082601f83011261186f578081fd5b813567ffffffffffffffff811115611885578182fd5b6118b660207fffffffffffffffffffffffffffffffffffffffffffffffffffffffffffffffe0601f84011601612087565b91508082528360208285010111156118cd57600080fd5b8060208401602084013760009082016020015292915050565b80356002811061081157600080fd5b600060208284031215611906578081fd5b8135610959816120fa565b60008060008060608587031215611926578283fd5b843593506020850135611938816120fa565b9250604085013567ffffffffffffffff80821115611954578384fd5b81870188601f820112611965578485fd5b8035925081831115611975578485fd5b886020848301011115611986578485fd5b959894975050602090940194505050565b600060a082840312156119a8578081fd5b6119b260a0612087565b82518152602083015160208201526040830151604082015260608301516060820152608083015160808201528091505092915050565b6000602082840312156119f9578081fd5b813567ffffffffffffffff80821115611a10578283fd5b81840160e08187031215611a22578384fd5b611a2c60e0612087565b9250611a3886826118e6565b8352611a4786602083016115c8565b6020840152611a5986604083016115c8565b6040840152606081013582811115611a6f578485fd5b611a7b8782840161163b565b606085015250608081013582811115611a92578485fd5b611a9e878284016115d3565b60808501525060a081013582811115611ab5578485fd5b611ac187828401611801565b60a08501525060c09081013590830152509392505050565b600060208284031215611aea578081fd5b5051919050565b73ffffffffffffffffffffffffffffffffffffffff169052565b60008151808452611b238160208601602086016120ce565b601f017fffffffffffffffffffffffffffffffffffffffffffffffffffffffffffffffe0169290920160200192915050565b60008251611b678184602087016120ce565b9190910192915050565b7f496e636f6d706c65746546696c6c42757951756f74654572726f72286164647281527f6573732c75696e743235362c75696e7432353629000000000000000000000000602082015260340190565b7f496e76616c69645472616e73666f726d446174614572726f722875696e74382c81527f6279746573290000000000000000000000000000000000000000000000000000602082015260260190565b7f4f6e6c7943616c6c61626c6542794465706c6f7965724572726f72286164647281527f6573732c616464726573732900000000000000000000000000000000000000006020820152602c0190565b7f496e76616c696454616b6572466565546f6b656e4572726f722861646472657381527f7329000000000000000000000000000000000000000000000000000000000000602082015260220190565b7f496e636f6d706c65746546696c6c53656c6c51756f74654572726f722861646481527f726573732c75696e743235362c75696e74323536290000000000000000000000602082015260350190565b7f496e76616c6964457865637574696f6e436f6e746578744572726f722861646481527f726573732c6164647265737329000000000000000000000000000000000000006020820152602d0190565b7f496e73756666696369656e7450726f746f636f6c4665654572726f722875696e81527f743235362c75696e7432353629000000000000000000000000000000000000006020820152602d0190565b7f496e76616c696445524332304173736574446174614572726f7228627974657381527f2900000000000000000000000000000000000000000000000000000000000000602082015260210190565b73ffffffffffffffffffffffffffffffffffffffff91909116815260200190565b73ffffffffffffffffffffffffffffffffffffffff92831681529116602082015260400190565b73ffffffffffffffffffffffffffffffffffffffff929092168252602082015260400190565b73ffffffffffffffffffffffffffffffffffffffff9390931683526020830191909152604082015260600190565b7fffffffff0000000000000000000000000000000000000000000000000000000091909116815260200190565b6000602082526109596020830184611b0b565b6060810160048510611ed357fe5b938152602081019290925260409091015290565b6060810160088510611ed357fe5b600060028410611f0157fe5b83825260406020830152610ff16040830184611b0b565b600060608252611f2c606083018651611af1565b6020850151611f3e6080840182611af1565b506040850151611f5160a0840182611af1565b506060850151611f6460c0840182611af1565b50608085015160e083015260a0850151610100818185015260c08701519150610120828186015260e0880151925061014083818701528289015193506101609250838387015281890151935061018091508382870152808901519350506101c06101a08181880152611fda610220880186611b0b565b848b015195507fffffffffffffffffffffffffffffffffffffffffffffffffffffffffffffffa094508488820301838901526120168187611b0b565b925050828a0151945083878303016101e08801526120348286611b0b565b9250808a01519450505081858203016102008601526120538184611b0b565b915050856020850152838103604085015261206e8186611b0b565b979650505050505050565b918252602082015260400190565b60405181810167ffffffffffffffff811182821017156120a657600080fd5b604052919050565b600067ffffffffffffffff8211156120c4578081fd5b5060209081020190565b60005b838110156120e95781810151838201526020016120d1565b83811115610efd5750506000910152565b73ffffffffffffffffffffffffffffffffffffffff8116811461211c57600080fd5b5056fea2646970667358221220fa070931d1d12d8aa408168992a9ec8f39000452643ec82f885ea824c5b7080c64736f6c634300060a0033",
                "opcodes": "PUSH2 0x100 PUSH1 0x40 MSTORE CALLVALUE DUP1 ISZERO PUSH3 0x12 JUMPI PUSH1 0x0 DUP1 REVERT JUMPDEST POP PUSH1 0x40 MLOAD PUSH3 0x2306 CODESIZE SUB DUP1 PUSH3 0x2306 DUP4 CODECOPY DUP2 ADD PUSH1 0x40 DUP2 SWAP1 MSTORE PUSH3 0x35 SWAP2 PUSH3 0xF4 JUMP JUMPDEST CALLER PUSH1 0x60 SWAP1 DUP2 SHL PUSH1 0x80 MSTORE ADDRESS DUP2 SHL PUSH1 0xA0 MSTORE DUP2 SWAP1 SHL PUSH1 0x1 PUSH1 0x1 PUSH1 0x60 SHL SUB NOT AND PUSH1 0xC0 MSTORE PUSH1 0x40 MLOAD PUSH4 0xC0E0821 PUSH1 0xE3 SHL DUP2 MSTORE PUSH1 0x1 PUSH1 0x1 PUSH1 0xA0 SHL SUB DUP3 AND SWAP1 PUSH4 0x60704108 SWAP1 PUSH3 0x89 SWAP1 PUSH4 0xF47261B PUSH1 0xE4 SHL SWAP1 PUSH1 0x4 ADD PUSH3 0x11A JUMP JUMPDEST PUSH1 0x20 PUSH1 0x40 MLOAD DUP1 DUP4 SUB DUP2 DUP7 DUP1 EXTCODESIZE ISZERO DUP1 ISZERO PUSH3 0xA2 JUMPI PUSH1 0x0 DUP1 REVERT JUMPDEST POP GAS STATICCALL ISZERO DUP1 ISZERO PUSH3 0xB7 JUMPI RETURNDATASIZE PUSH1 0x0 DUP1 RETURNDATACOPY RETURNDATASIZE PUSH1 0x0 REVERT JUMPDEST POP POP POP POP PUSH1 0x40 MLOAD RETURNDATASIZE PUSH1 0x1F NOT PUSH1 0x1F DUP3 ADD AND DUP3 ADD DUP1 PUSH1 0x40 MSTORE POP DUP2 ADD SWAP1 PUSH3 0xDD SWAP2 SWAP1 PUSH3 0xF4 JUMP JUMPDEST PUSH1 0x60 SHL PUSH1 0x1 PUSH1 0x1 PUSH1 0x60 SHL SUB NOT AND PUSH1 0xE0 MSTORE POP PUSH3 0x148 JUMP JUMPDEST PUSH1 0x0 PUSH1 0x20 DUP3 DUP5 SUB SLT ISZERO PUSH3 0x106 JUMPI DUP1 DUP2 REVERT JUMPDEST DUP2 MLOAD PUSH3 0x113 DUP2 PUSH3 0x12F JUMP JUMPDEST SWAP4 SWAP3 POP POP POP JUMP JUMPDEST PUSH1 0x1 PUSH1 0x1 PUSH1 0xE0 SHL SUB NOT SWAP2 SWAP1 SWAP2 AND DUP2 MSTORE PUSH1 0x20 ADD SWAP1 JUMP JUMPDEST PUSH1 0x1 PUSH1 0x1 PUSH1 0xA0 SHL SUB DUP2 AND DUP2 EQ PUSH3 0x145 JUMPI PUSH1 0x0 DUP1 REVERT JUMPDEST POP JUMP JUMPDEST PUSH1 0x80 MLOAD PUSH1 0x60 SHR PUSH1 0xA0 MLOAD PUSH1 0x60 SHR PUSH1 0xC0 MLOAD PUSH1 0x60 SHR PUSH1 0xE0 MLOAD PUSH1 0x60 SHR PUSH2 0x2155 PUSH3 0x1B1 PUSH1 0x0 CODECOPY DUP1 PUSH1 0xD1 MSTORE DUP1 PUSH2 0x3A9 MSTORE DUP1 PUSH2 0xB49 MSTORE DUP1 PUSH2 0xCE0 MSTORE POP DUP1 PUSH2 0x1E7 MSTORE DUP1 PUSH2 0x3FF MSTORE DUP1 PUSH2 0x1155 MSTORE POP DUP1 PUSH2 0x17A MSTORE DUP1 PUSH2 0x1A8 MSTORE POP DUP1 PUSH2 0x10B MSTORE DUP1 PUSH2 0x139 MSTORE DUP1 PUSH2 0x20B MSTORE POP PUSH2 0x2155 PUSH1 0x0 RETURN INVALID PUSH1 0x80 PUSH1 0x40 MSTORE CALLVALUE DUP1 ISZERO PUSH2 0x10 JUMPI PUSH1 0x0 DUP1 REVERT JUMPDEST POP PUSH1 0x4 CALLDATASIZE LT PUSH2 0x67 JUMPI PUSH1 0x0 CALLDATALOAD PUSH1 0xE0 SHR DUP1 PUSH4 0xD2F7265A GT PUSH2 0x50 JUMPI DUP1 PUSH4 0xD2F7265A EQ PUSH2 0x9F JUMPI DUP1 PUSH4 0xD5F39488 EQ PUSH2 0xA7 JUMPI DUP1 PUSH4 0xE063ED81 EQ PUSH2 0xAF JUMPI PUSH2 0x67 JUMP JUMPDEST DUP1 PUSH4 0x7F555B03 EQ PUSH2 0x6C JUMPI DUP1 PUSH4 0xC9353CB5 EQ PUSH2 0x8A JUMPI JUMPDEST PUSH1 0x0 DUP1 REVERT JUMPDEST PUSH2 0x74 PUSH2 0xCF JUMP JUMPDEST PUSH1 0x40 MLOAD PUSH2 0x81 SWAP2 SWAP1 PUSH2 0x1DE9 JUMP JUMPDEST PUSH1 0x40 MLOAD DUP1 SWAP2 SUB SWAP1 RETURN JUMPDEST PUSH2 0x9D PUSH2 0x98 CALLDATASIZE PUSH1 0x4 PUSH2 0x18F5 JUMP JUMPDEST PUSH2 0xF3 JUMP JUMPDEST STOP JUMPDEST PUSH2 0x74 PUSH2 0x1E5 JUMP JUMPDEST PUSH2 0x74 PUSH2 0x209 JUMP JUMPDEST PUSH2 0xC2 PUSH2 0xBD CALLDATASIZE PUSH1 0x4 PUSH2 0x1911 JUMP JUMPDEST PUSH2 0x22D JUMP JUMPDEST PUSH1 0x40 MLOAD PUSH2 0x81 SWAP2 SWAP1 PUSH2 0x1E85 JUMP JUMPDEST PUSH32 0x0 DUP2 JUMP JUMPDEST CALLER PUSH20 0xFFFFFFFFFFFFFFFFFFFFFFFFFFFFFFFFFFFFFFFF PUSH32 0x0 AND EQ PUSH2 0x162 JUMPI PUSH2 0x162 PUSH2 0x15D CALLER PUSH32 0x0 PUSH2 0x768 JUMP JUMPDEST PUSH2 0x817 JUMP JUMPDEST ADDRESS PUSH20 0xFFFFFFFFFFFFFFFFFFFFFFFFFFFFFFFFFFFFFFFF PUSH32 0x0 AND EQ PUSH2 0x1CC JUMPI PUSH2 0x1CC PUSH2 0x15D ADDRESS PUSH32 0x0 PUSH2 0x81F JUMP JUMPDEST DUP1 PUSH20 0xFFFFFFFFFFFFFFFFFFFFFFFFFFFFFFFFFFFFFFFF AND SELFDESTRUCT JUMPDEST PUSH32 0x0 DUP2 JUMP JUMPDEST PUSH32 0x0 DUP2 JUMP JUMPDEST PUSH1 0x0 PUSH2 0x237 PUSH2 0x153D JUMP JUMPDEST PUSH2 0x243 DUP4 DUP6 ADD DUP6 PUSH2 0x19E8 JUMP JUMPDEST SWAP1 POP PUSH2 0x268 DUP2 PUSH1 0x20 ADD MLOAD PUSH20 0xFFFFFFFFFFFFFFFFFFFFFFFFFFFFFFFFFFFFFFFF AND PUSH2 0x82D JUMP JUMPDEST DUP1 PUSH2 0x291 JUMPI POP PUSH2 0x291 DUP2 PUSH1 0x40 ADD MLOAD PUSH20 0xFFFFFFFFFFFFFFFFFFFFFFFFFFFFFFFFFFFFFFFF AND PUSH2 0x82D JUMP JUMPDEST ISZERO PUSH2 0x2DA JUMPI PUSH2 0x2DA PUSH2 0x15D PUSH1 0x0 DUP7 DUP7 DUP1 DUP1 PUSH1 0x1F ADD PUSH1 0x20 DUP1 SWAP2 DIV MUL PUSH1 0x20 ADD PUSH1 0x40 MLOAD SWAP1 DUP2 ADD PUSH1 0x40 MSTORE DUP1 SWAP4 SWAP3 SWAP2 SWAP1 DUP2 DUP2 MSTORE PUSH1 0x20 ADD DUP4 DUP4 DUP1 DUP3 DUP5 CALLDATACOPY PUSH1 0x0 SWAP3 ADD SWAP2 SWAP1 SWAP2 MSTORE POP PUSH2 0x860 SWAP3 POP POP POP JUMP JUMPDEST DUP1 PUSH1 0x80 ADD MLOAD MLOAD DUP2 PUSH1 0x60 ADD MLOAD MLOAD EQ PUSH2 0x32F JUMPI PUSH2 0x32F PUSH2 0x15D PUSH1 0x1 DUP7 DUP7 DUP1 DUP1 PUSH1 0x1F ADD PUSH1 0x20 DUP1 SWAP2 DIV MUL PUSH1 0x20 ADD PUSH1 0x40 MLOAD SWAP1 DUP2 ADD PUSH1 0x40 MSTORE DUP1 SWAP4 SWAP3 SWAP2 SWAP1 DUP2 DUP2 MSTORE PUSH1 0x20 ADD DUP4 DUP4 DUP1 DUP3 DUP5 CALLDATACOPY PUSH1 0x0 SWAP3 ADD SWAP2 SWAP1 SWAP2 MSTORE POP PUSH2 0x860 SWAP3 POP POP POP JUMP JUMPDEST PUSH1 0x0 DUP2 MLOAD PUSH1 0x1 DUP2 GT ISZERO PUSH2 0x33E JUMPI INVALID JUMPDEST EQ DUP1 ISZERO PUSH2 0x36E JUMPI POP PUSH32 0xFFFFFFFFFFFFFFFFFFFFFFFFFFFFFFFFFFFFFFFFFFFFFFFFFFFFFFFFFFFFFFFF DUP2 PUSH1 0xC0 ADD MLOAD EQ JUMPDEST ISZERO PUSH2 0x3A4 JUMPI PUSH1 0x20 DUP2 ADD MLOAD PUSH2 0x39E SWAP1 PUSH20 0xFFFFFFFFFFFFFFFFFFFFFFFFFFFFFFFFFFFFFFFF AND ADDRESS PUSH4 0xFFFFFFFF PUSH2 0x889 AND JUMP JUMPDEST PUSH1 0xC0 DUP3 ADD MSTORE JUMPDEST PUSH2 0x3F7 PUSH32 0x0 DUP3 PUSH1 0xC0 ADD MLOAD DUP4 PUSH1 0x20 ADD MLOAD PUSH20 0xFFFFFFFFFFFFFFFFFFFFFFFFFFFFFFFFFFFFFFFF AND PUSH2 0x960 SWAP1 SWAP3 SWAP2 SWAP1 PUSH4 0xFFFFFFFF AND JUMP JUMPDEST PUSH1 0x0 PUSH2 0x4A7 GASPRICE PUSH32 0x0 PUSH20 0xFFFFFFFFFFFFFFFFFFFFFFFFFFFFFFFFFFFFFFFF AND PUSH4 0x1CE4C78B PUSH1 0x40 MLOAD DUP2 PUSH4 0xFFFFFFFF AND PUSH1 0xE0 SHL DUP2 MSTORE PUSH1 0x4 ADD PUSH1 0x20 PUSH1 0x40 MLOAD DUP1 DUP4 SUB DUP2 DUP7 DUP1 EXTCODESIZE ISZERO DUP1 ISZERO PUSH2 0x463 JUMPI PUSH1 0x0 DUP1 REVERT JUMPDEST POP GAS STATICCALL ISZERO DUP1 ISZERO PUSH2 0x477 JUMPI RETURNDATASIZE PUSH1 0x0 DUP1 RETURNDATACOPY RETURNDATASIZE PUSH1 0x0 REVERT JUMPDEST POP POP POP POP PUSH1 0x40 MLOAD RETURNDATASIZE PUSH1 0x1F NOT PUSH1 0x1F DUP3 ADD AND DUP3 ADD DUP1 PUSH1 0x40 MSTORE POP DUP2 ADD SWAP1 PUSH2 0x49B SWAP2 SWAP1 PUSH2 0x1AD9 JUMP JUMPDEST SWAP1 PUSH4 0xFFFFFFFF PUSH2 0xA3C AND JUMP JUMPDEST SWAP1 POP SELFBALANCE PUSH1 0x0 DUP1 DUP1 JUMPDEST DUP6 PUSH1 0x60 ADD MLOAD MLOAD DUP2 LT ISZERO PUSH2 0x6DA JUMPI PUSH1 0x0 DUP7 MLOAD PUSH1 0x1 DUP2 GT ISZERO PUSH2 0x4CB JUMPI INVALID JUMPDEST EQ ISZERO PUSH2 0x4E6 JUMPI DUP6 PUSH1 0xC0 ADD MLOAD DUP3 LT PUSH2 0x4E1 JUMPI PUSH2 0x6DA JUMP JUMPDEST PUSH2 0x4F6 JUMP JUMPDEST DUP6 PUSH1 0xC0 ADD MLOAD DUP4 LT PUSH2 0x4F6 JUMPI PUSH2 0x6DA JUMP JUMPDEST DUP5 DUP5 LT ISZERO PUSH2 0x50B JUMPI PUSH2 0x50B PUSH2 0x15D DUP6 DUP8 PUSH2 0xA6D JUMP JUMPDEST PUSH2 0x513 PUSH2 0x15A7 JUMP JUMPDEST PUSH1 0x0 DUP8 MLOAD PUSH1 0x1 DUP2 GT ISZERO PUSH2 0x522 JUMPI INVALID JUMPDEST EQ ISZERO PUSH2 0x5E1 JUMPI PUSH2 0x5DA DUP8 PUSH1 0x40 ADD MLOAD DUP9 PUSH1 0x20 ADD MLOAD DUP10 PUSH1 0x60 ADD MLOAD DUP6 DUP2 MLOAD DUP2 LT PUSH2 0x545 JUMPI INVALID JUMPDEST PUSH1 0x20 MUL PUSH1 0x20 ADD ADD MLOAD DUP11 PUSH1 0x80 ADD MLOAD DUP7 DUP2 MLOAD DUP2 LT PUSH2 0x55D JUMPI INVALID JUMPDEST PUSH1 0x20 MUL PUSH1 0x20 ADD ADD MLOAD PUSH2 0x5D4 DUP8 DUP14 PUSH1 0xA0 ADD MLOAD MLOAD GT PUSH2 0x59A JUMPI PUSH32 0xFFFFFFFFFFFFFFFFFFFFFFFFFFFFFFFFFFFFFFFFFFFFFFFFFFFFFFFFFFFFFFFF PUSH2 0x5B3 JUMP JUMPDEST DUP13 PUSH1 0xA0 ADD MLOAD DUP9 DUP2 MLOAD DUP2 LT PUSH2 0x5AA JUMPI INVALID JUMPDEST PUSH1 0x20 MUL PUSH1 0x20 ADD ADD MLOAD JUMPDEST PUSH1 0xC0 DUP15 ADD MLOAD PUSH2 0x5C8 SWAP1 DUP12 PUSH4 0xFFFFFFFF PUSH2 0xA96 AND JUMP JUMPDEST SWAP1 PUSH4 0xFFFFFFFF PUSH2 0xAB5 AND JUMP JUMPDEST DUP12 PUSH2 0xACB JUMP JUMPDEST SWAP1 POP PUSH2 0x68A JUMP JUMPDEST PUSH2 0x687 DUP8 PUSH1 0x40 ADD MLOAD DUP9 PUSH1 0x20 ADD MLOAD DUP10 PUSH1 0x60 ADD MLOAD DUP6 DUP2 MLOAD DUP2 LT PUSH2 0x5FE JUMPI INVALID JUMPDEST PUSH1 0x20 MUL PUSH1 0x20 ADD ADD MLOAD DUP11 PUSH1 0x80 ADD MLOAD DUP7 DUP2 MLOAD DUP2 LT PUSH2 0x616 JUMPI INVALID JUMPDEST PUSH1 0x20 MUL PUSH1 0x20 ADD ADD MLOAD PUSH2 0x681 DUP8 DUP14 PUSH1 0xA0 ADD MLOAD MLOAD GT PUSH2 0x653 JUMPI PUSH32 0xFFFFFFFFFFFFFFFFFFFFFFFFFFFFFFFFFFFFFFFFFFFFFFFFFFFFFFFFFFFFFFFF PUSH2 0x66C JUMP JUMPDEST DUP13 PUSH1 0xA0 ADD MLOAD DUP9 DUP2 MLOAD DUP2 LT PUSH2 0x663 JUMPI INVALID JUMPDEST PUSH1 0x20 MUL PUSH1 0x20 ADD ADD MLOAD JUMPDEST PUSH1 0xC0 DUP15 ADD MLOAD PUSH2 0x5C8 SWAP1 DUP13 PUSH4 0xFFFFFFFF PUSH2 0xA96 AND JUMP JUMPDEST DUP12 PUSH2 0xC3F JUMP JUMPDEST SWAP1 POP JUMPDEST DUP1 MLOAD PUSH2 0x69D SWAP1 DUP5 SWAP1 PUSH4 0xFFFFFFFF PUSH2 0xD7C AND JUMP JUMPDEST SWAP3 POP PUSH2 0x6B6 DUP2 PUSH1 0x20 ADD MLOAD DUP6 PUSH2 0xD7C SWAP1 SWAP2 SWAP1 PUSH4 0xFFFFFFFF AND JUMP JUMPDEST SWAP4 POP PUSH2 0x6CF DUP2 PUSH1 0x40 ADD MLOAD DUP7 PUSH2 0xA96 SWAP1 SWAP2 SWAP1 PUSH4 0xFFFFFFFF AND JUMP JUMPDEST SWAP5 POP POP PUSH1 0x1 ADD PUSH2 0x4AF JUMP JUMPDEST POP PUSH1 0x0 DUP6 MLOAD PUSH1 0x1 DUP2 GT ISZERO PUSH2 0x6EA JUMPI INVALID JUMPDEST EQ ISZERO PUSH2 0x717 JUMPI DUP5 PUSH1 0xC0 ADD MLOAD DUP2 LT ISZERO PUSH2 0x712 JUMPI PUSH2 0x712 PUSH2 0x15D DUP7 PUSH1 0x20 ADD MLOAD DUP4 DUP9 PUSH1 0xC0 ADD MLOAD PUSH2 0xD98 JUMP JUMPDEST PUSH2 0x739 JUMP JUMPDEST DUP5 PUSH1 0xC0 ADD MLOAD DUP3 LT ISZERO PUSH2 0x739 JUMPI PUSH2 0x739 PUSH2 0x15D DUP7 PUSH1 0x40 ADD MLOAD DUP5 DUP9 PUSH1 0xC0 ADD MLOAD PUSH2 0xE49 JUMP JUMPDEST POP PUSH32 0x13C9929E00000000000000000000000000000000000000000000000000000000 SWAP10 SWAP9 POP POP POP POP POP POP POP POP POP JUMP JUMPDEST PUSH1 0x60 PUSH1 0x40 MLOAD PUSH2 0x776 SWAP1 PUSH2 0x1C0F JUMP JUMPDEST PUSH1 0x40 MLOAD DUP1 SWAP2 SUB SWAP1 KECCAK256 DUP4 DUP4 PUSH1 0x40 MLOAD PUSH1 0x24 ADD PUSH2 0x791 SWAP3 SWAP2 SWAP1 PUSH2 0x1E0A JUMP JUMPDEST PUSH1 0x40 DUP1 MLOAD PUSH32 0xFFFFFFFFFFFFFFFFFFFFFFFFFFFFFFFFFFFFFFFFFFFFFFFFFFFFFFFFFFFFFFE0 DUP2 DUP5 SUB ADD DUP2 MSTORE SWAP2 SWAP1 MSTORE PUSH1 0x20 DUP2 ADD DUP1 MLOAD PUSH28 0xFFFFFFFFFFFFFFFFFFFFFFFFFFFFFFFFFFFFFFFFFFFFFFFFFFFFFFFF AND PUSH32 0xFFFFFFFF00000000000000000000000000000000000000000000000000000000 SWAP1 SWAP4 AND SWAP3 SWAP1 SWAP3 OR SWAP1 SWAP2 MSTORE SWAP1 POP JUMPDEST SWAP3 SWAP2 POP POP JUMP JUMPDEST DUP1 MLOAD PUSH1 0x20 DUP3 ADD REVERT JUMPDEST PUSH1 0x60 PUSH1 0x40 MLOAD PUSH2 0x776 SWAP1 PUSH2 0x1CFC JUMP JUMPDEST PUSH20 0xFFFFFFFFFFFFFFFFFFFFFFFFFFFFFFFFFFFFFFFF DUP2 AND PUSH20 0xEEEEEEEEEEEEEEEEEEEEEEEEEEEEEEEEEEEEEEEE EQ JUMPDEST SWAP2 SWAP1 POP JUMP JUMPDEST PUSH1 0x60 PUSH1 0x40 MLOAD PUSH2 0x86E SWAP1 PUSH2 0x1BC0 JUMP JUMPDEST PUSH1 0x40 MLOAD DUP1 SWAP2 SUB SWAP1 KECCAK256 DUP4 DUP4 PUSH1 0x40 MLOAD PUSH1 0x24 ADD PUSH2 0x791 SWAP3 SWAP2 SWAP1 PUSH2 0x1EF5 JUMP JUMPDEST PUSH1 0x0 PUSH2 0x894 DUP4 PUSH2 0x82D JUMP JUMPDEST ISZERO PUSH2 0x8B7 JUMPI POP PUSH20 0xFFFFFFFFFFFFFFFFFFFFFFFFFFFFFFFFFFFFFFFF DUP2 AND BALANCE PUSH2 0x811 JUMP JUMPDEST PUSH1 0x40 MLOAD PUSH32 0x70A0823100000000000000000000000000000000000000000000000000000000 DUP2 MSTORE PUSH20 0xFFFFFFFFFFFFFFFFFFFFFFFFFFFFFFFFFFFFFFFF DUP5 AND SWAP1 PUSH4 0x70A08231 SWAP1 PUSH2 0x909 SWAP1 DUP6 SWAP1 PUSH1 0x4 ADD PUSH2 0x1DE9 JUMP JUMPDEST PUSH1 0x20 PUSH1 0x40 MLOAD DUP1 DUP4 SUB DUP2 DUP7 DUP1 EXTCODESIZE ISZERO DUP1 ISZERO PUSH2 0x921 JUMPI PUSH1 0x0 DUP1 REVERT JUMPDEST POP GAS STATICCALL ISZERO DUP1 ISZERO PUSH2 0x935 JUMPI RETURNDATASIZE PUSH1 0x0 DUP1 RETURNDATACOPY RETURNDATASIZE PUSH1 0x0 REVERT JUMPDEST POP POP POP POP PUSH1 0x40 MLOAD RETURNDATASIZE PUSH1 0x1F NOT PUSH1 0x1F DUP3 ADD AND DUP3 ADD DUP1 PUSH1 0x40 MSTORE POP DUP2 ADD SWAP1 PUSH2 0x959 SWAP2 SWAP1 PUSH2 0x1AD9 JUMP JUMPDEST SWAP4 SWAP3 POP POP POP JUMP JUMPDEST PUSH1 0x40 MLOAD PUSH32 0xDD62ED3E00000000000000000000000000000000000000000000000000000000 DUP2 MSTORE DUP2 SWAP1 PUSH20 0xFFFFFFFFFFFFFFFFFFFFFFFFFFFFFFFFFFFFFFFF DUP6 AND SWAP1 PUSH4 0xDD62ED3E SWAP1 PUSH2 0x9B6 SWAP1 ADDRESS SWAP1 DUP8 SWAP1 PUSH1 0x4 ADD PUSH2 0x1E0A JUMP JUMPDEST PUSH1 0x20 PUSH1 0x40 MLOAD DUP1 DUP4 SUB DUP2 DUP7 DUP1 EXTCODESIZE ISZERO DUP1 ISZERO PUSH2 0x9CE JUMPI PUSH1 0x0 DUP1 REVERT JUMPDEST POP GAS STATICCALL ISZERO DUP1 ISZERO PUSH2 0x9E2 JUMPI RETURNDATASIZE PUSH1 0x0 DUP1 RETURNDATACOPY RETURNDATASIZE PUSH1 0x0 REVERT JUMPDEST POP POP POP POP PUSH1 0x40 MLOAD RETURNDATASIZE PUSH1 0x1F NOT PUSH1 0x1F DUP3 ADD AND DUP3 ADD DUP1 PUSH1 0x40 MSTORE POP DUP2 ADD SWAP1 PUSH2 0xA06 SWAP2 SWAP1 PUSH2 0x1AD9 JUMP JUMPDEST LT ISZERO PUSH2 0xA37 JUMPI PUSH2 0xA37 DUP4 DUP4 PUSH32 0xFFFFFFFFFFFFFFFFFFFFFFFFFFFFFFFFFFFFFFFFFFFFFFFFFFFFFFFFFFFFFFFF PUSH2 0xE57 JUMP JUMPDEST POP POP POP JUMP JUMPDEST PUSH1 0x0 DUP3 PUSH2 0xA4B JUMPI POP PUSH1 0x0 PUSH2 0x811 JUMP JUMPDEST DUP3 DUP3 MUL DUP3 DUP5 DUP3 DUP2 PUSH2 0xA58 JUMPI INVALID JUMPDEST DIV EQ PUSH2 0x959 JUMPI PUSH2 0x959 PUSH2 0x15D PUSH1 0x1 DUP7 DUP7 PUSH2 0xF03 JUMP JUMPDEST PUSH1 0x60 PUSH1 0x40 MLOAD PUSH2 0xA7B SWAP1 PUSH2 0x1D4B JUMP JUMPDEST PUSH1 0x40 MLOAD DUP1 SWAP2 SUB SWAP1 KECCAK256 DUP4 DUP4 PUSH1 0x40 MLOAD PUSH1 0x24 ADD PUSH2 0x791 SWAP3 SWAP2 SWAP1 PUSH2 0x2079 JUMP JUMPDEST PUSH1 0x0 DUP3 DUP3 GT ISZERO PUSH2 0xAAF JUMPI PUSH2 0xAAF PUSH2 0x15D PUSH1 0x2 DUP6 DUP6 PUSH2 0xF03 JUMP JUMPDEST POP SWAP1 SUB SWAP1 JUMP JUMPDEST PUSH1 0x0 DUP2 DUP4 LT PUSH2 0xAC4 JUMPI DUP2 PUSH2 0x959 JUMP JUMPDEST POP SWAP1 SWAP2 SWAP1 POP JUMP JUMPDEST PUSH2 0xAD3 PUSH2 0x15A7 JUMP JUMPDEST PUSH1 0x0 PUSH2 0xAE3 DUP7 PUSH2 0x1A0 ADD MLOAD PUSH2 0xF22 JUMP JUMPDEST PUSH1 0xE0 DUP8 ADD MLOAD SWAP1 SWAP2 POP DUP5 SWAP1 ISZERO PUSH2 0xBE6 JUMPI DUP9 PUSH20 0xFFFFFFFFFFFFFFFFFFFFFFFFFFFFFFFFFFFFFFFF AND DUP3 PUSH20 0xFFFFFFFFFFFFFFFFFFFFFFFFFFFFFFFFFFFFFFFF AND EQ ISZERO PUSH2 0xB79 JUMPI PUSH1 0xE0 DUP8 ADD MLOAD PUSH2 0xB74 SWAP1 PUSH20 0xFFFFFFFFFFFFFFFFFFFFFFFFFFFFFFFFFFFFFFFF DUP5 AND SWAP1 PUSH32 0x0 SWAP1 PUSH4 0xFFFFFFFF PUSH2 0x960 AND JUMP JUMPDEST PUSH2 0xBE6 JUMP JUMPDEST DUP8 PUSH20 0xFFFFFFFFFFFFFFFFFFFFFFFFFFFFFFFFFFFFFFFF AND DUP3 PUSH20 0xFFFFFFFFFFFFFFFFFFFFFFFFFFFFFFFFFFFFFFFF AND EQ ISZERO PUSH2 0xBDA JUMPI PUSH1 0xA0 DUP8 ADD MLOAD PUSH1 0xE0 DUP9 ADD MLOAD PUSH2 0xBD3 SWAP2 SWAP1 PUSH2 0xBCD SWAP1 DUP3 SWAP1 PUSH4 0xFFFFFFFF PUSH2 0xD7C AND JUMP JUMPDEST DUP8 PUSH2 0xFAF JUMP JUMPDEST SWAP1 POP PUSH2 0xBE6 JUMP JUMPDEST PUSH2 0xBE6 PUSH2 0x15D DUP4 PUSH2 0xFF9 JUMP JUMPDEST PUSH2 0xBF4 DUP2 DUP9 PUSH1 0xA0 ADD MLOAD PUSH2 0xAB5 JUMP JUMPDEST SWAP1 POP PUSH2 0xC32 DUP8 DUP8 DUP4 DUP8 DUP14 DUP14 PUSH20 0xFFFFFFFFFFFFFFFFFFFFFFFFFFFFFFFFFFFFFFFF AND DUP9 PUSH20 0xFFFFFFFFFFFFFFFFFFFFFFFFFFFFFFFFFFFFFFFF AND EQ PUSH2 0x10A4 JUMP JUMPDEST SWAP10 SWAP9 POP POP POP POP POP POP POP POP POP JUMP JUMPDEST PUSH2 0xC47 PUSH2 0x15A7 JUMP JUMPDEST PUSH1 0x0 PUSH2 0xC57 DUP7 PUSH2 0x1A0 ADD MLOAD PUSH2 0xF22 JUMP JUMPDEST SWAP1 POP PUSH1 0x0 PUSH2 0xC6E DUP6 DUP9 PUSH1 0x80 ADD MLOAD DUP10 PUSH1 0xA0 ADD MLOAD PUSH2 0xFAF JUMP JUMPDEST SWAP1 POP DUP7 PUSH1 0xE0 ADD MLOAD PUSH1 0x0 EQ PUSH2 0xD6E JUMPI DUP9 PUSH20 0xFFFFFFFFFFFFFFFFFFFFFFFFFFFFFFFFFFFFFFFF AND DUP3 PUSH20 0xFFFFFFFFFFFFFFFFFFFFFFFFFFFFFFFFFFFFFFFF AND EQ ISZERO PUSH2 0xD2F JUMPI PUSH2 0xCD9 DUP6 PUSH2 0xCCF DUP10 PUSH1 0xE0 ADD MLOAD DUP11 PUSH1 0x80 ADD MLOAD PUSH2 0xA96 SWAP1 SWAP2 SWAP1 PUSH4 0xFFFFFFFF AND JUMP JUMPDEST DUP10 PUSH1 0xA0 ADD MLOAD PUSH2 0xFAF JUMP JUMPDEST SWAP1 POP PUSH2 0xD2A PUSH32 0x0 DUP9 PUSH1 0xE0 ADD MLOAD DUP5 PUSH20 0xFFFFFFFFFFFFFFFFFFFFFFFFFFFFFFFFFFFFFFFF AND PUSH2 0x960 SWAP1 SWAP3 SWAP2 SWAP1 PUSH4 0xFFFFFFFF AND JUMP JUMPDEST PUSH2 0xD6E JUMP JUMPDEST DUP8 PUSH20 0xFFFFFFFFFFFFFFFFFFFFFFFFFFFFFFFFFFFFFFFF AND DUP3 PUSH20 0xFFFFFFFFFFFFFFFFFFFFFFFFFFFFFFFFFFFFFFFF AND EQ PUSH2 0xD6E JUMPI PUSH2 0xD6E PUSH2 0x15D DUP4 PUSH2 0xFF9 JUMP JUMPDEST PUSH2 0xBF4 DUP8 PUSH1 0xA0 ADD MLOAD DUP3 PUSH2 0xAB5 JUMP JUMPDEST PUSH1 0x0 DUP3 DUP3 ADD DUP4 DUP2 LT ISZERO PUSH2 0x959 JUMPI PUSH2 0x959 PUSH2 0x15D PUSH1 0x0 DUP7 DUP7 PUSH2 0xF03 JUMP JUMPDEST PUSH1 0x60 PUSH1 0x40 MLOAD PUSH2 0xDA6 SWAP1 PUSH2 0x1CAD JUMP JUMPDEST PUSH1 0x40 MLOAD DUP1 SWAP2 SUB SWAP1 KECCAK256 DUP5 DUP5 DUP5 PUSH1 0x40 MLOAD PUSH1 0x24 ADD PUSH2 0xDC3 SWAP4 SWAP3 SWAP2 SWAP1 PUSH2 0x1E57 JUMP JUMPDEST PUSH1 0x40 DUP1 MLOAD PUSH32 0xFFFFFFFFFFFFFFFFFFFFFFFFFFFFFFFFFFFFFFFFFFFFFFFFFFFFFFFFFFFFFFE0 DUP2 DUP5 SUB ADD DUP2 MSTORE SWAP2 SWAP1 MSTORE PUSH1 0x20 DUP2 ADD DUP1 MLOAD PUSH28 0xFFFFFFFFFFFFFFFFFFFFFFFFFFFFFFFFFFFFFFFFFFFFFFFFFFFFFFFF AND PUSH32 0xFFFFFFFF00000000000000000000000000000000000000000000000000000000 SWAP1 SWAP4 AND SWAP3 SWAP1 SWAP3 OR SWAP1 SWAP2 MSTORE SWAP1 POP SWAP4 SWAP3 POP POP POP JUMP JUMPDEST PUSH1 0x60 PUSH1 0x40 MLOAD PUSH2 0xDA6 SWAP1 PUSH2 0x1B71 JUMP JUMPDEST PUSH1 0x60 PUSH4 0x95EA7B3 PUSH1 0xE0 SHL DUP4 DUP4 PUSH1 0x40 MLOAD PUSH1 0x24 ADD PUSH2 0xE74 SWAP3 SWAP2 SWAP1 PUSH2 0x1E31 JUMP JUMPDEST PUSH1 0x40 DUP1 MLOAD PUSH32 0xFFFFFFFFFFFFFFFFFFFFFFFFFFFFFFFFFFFFFFFFFFFFFFFFFFFFFFFFFFFFFFE0 DUP2 DUP5 SUB ADD DUP2 MSTORE SWAP2 SWAP1 MSTORE PUSH1 0x20 DUP2 ADD DUP1 MLOAD PUSH28 0xFFFFFFFFFFFFFFFFFFFFFFFFFFFFFFFFFFFFFFFFFFFFFFFFFFFFFFFF AND PUSH32 0xFFFFFFFF00000000000000000000000000000000000000000000000000000000 SWAP1 SWAP4 AND SWAP3 SWAP1 SWAP3 OR SWAP1 SWAP2 MSTORE SWAP1 POP PUSH2 0xEFD DUP5 DUP3 PUSH2 0x1330 JUMP JUMPDEST POP POP POP POP JUMP JUMPDEST PUSH1 0x60 PUSH4 0xE946C1BB PUSH1 0xE0 SHL DUP5 DUP5 DUP5 PUSH1 0x40 MLOAD PUSH1 0x24 ADD PUSH2 0xDC3 SWAP4 SWAP3 SWAP2 SWAP1 PUSH2 0x1EC5 JUMP JUMPDEST PUSH1 0x0 DUP2 MLOAD PUSH1 0x0 EQ ISZERO PUSH2 0xF36 JUMPI POP PUSH1 0x0 PUSH2 0x85B JUMP JUMPDEST DUP2 MLOAD PUSH1 0x24 EQ ISZERO DUP1 PUSH2 0xF93 JUMPI POP PUSH32 0xF47261B000000000000000000000000000000000000000000000000000000000 PUSH2 0xF6E DUP4 PUSH1 0x0 PUSH2 0x13CA JUMP JUMPDEST PUSH32 0xFFFFFFFF00000000000000000000000000000000000000000000000000000000 AND EQ ISZERO JUMPDEST ISZERO PUSH2 0xFA4 JUMPI PUSH2 0xFA4 PUSH2 0x15D DUP4 PUSH2 0x1416 JUMP JUMPDEST PUSH2 0x811 DUP3 PUSH1 0x10 PUSH2 0x143D JUMP JUMPDEST PUSH1 0x0 PUSH2 0xFF1 DUP4 PUSH2 0xFE5 PUSH2 0xFC9 DUP3 PUSH1 0x1 PUSH4 0xFFFFFFFF PUSH2 0xA96 AND JUMP JUMPDEST PUSH2 0xFD9 DUP9 DUP8 PUSH4 0xFFFFFFFF PUSH2 0xA3C AND JUMP JUMPDEST SWAP1 PUSH4 0xFFFFFFFF PUSH2 0xD7C AND JUMP JUMPDEST SWAP1 PUSH4 0xFFFFFFFF PUSH2 0x147D AND JUMP JUMPDEST SWAP5 SWAP4 POP POP POP POP JUMP JUMPDEST PUSH1 0x60 PUSH1 0x40 MLOAD PUSH2 0x1007 SWAP1 PUSH2 0x1C5E JUMP JUMPDEST PUSH1 0x40 MLOAD DUP1 SWAP2 SUB SWAP1 KECCAK256 DUP3 PUSH1 0x40 MLOAD PUSH1 0x24 ADD PUSH2 0x1020 SWAP2 SWAP1 PUSH2 0x1DE9 JUMP JUMPDEST PUSH1 0x40 DUP1 MLOAD PUSH32 0xFFFFFFFFFFFFFFFFFFFFFFFFFFFFFFFFFFFFFFFFFFFFFFFFFFFFFFFFFFFFFFE0 DUP2 DUP5 SUB ADD DUP2 MSTORE SWAP2 SWAP1 MSTORE PUSH1 0x20 DUP2 ADD DUP1 MLOAD PUSH28 0xFFFFFFFFFFFFFFFFFFFFFFFFFFFFFFFFFFFFFFFFFFFFFFFFFFFFFFFF AND PUSH32 0xFFFFFFFF00000000000000000000000000000000000000000000000000000000 SWAP1 SWAP4 AND SWAP3 SWAP1 SWAP3 OR SWAP1 SWAP2 MSTORE SWAP1 POP SWAP2 SWAP1 POP JUMP JUMPDEST PUSH2 0x10AC PUSH2 0x15A7 JUMP JUMPDEST PUSH1 0x40 MLOAD PUSH32 0x70A0823100000000000000000000000000000000000000000000000000000000 DUP2 MSTORE PUSH1 0x0 SWAP1 PUSH20 0xFFFFFFFFFFFFFFFFFFFFFFFFFFFFFFFFFFFFFFFF DUP6 AND SWAP1 PUSH4 0x70A08231 SWAP1 PUSH2 0x1101 SWAP1 ADDRESS SWAP1 PUSH1 0x4 ADD PUSH2 0x1DE9 JUMP JUMPDEST PUSH1 0x20 PUSH1 0x40 MLOAD DUP1 DUP4 SUB DUP2 DUP7 DUP1 EXTCODESIZE ISZERO DUP1 ISZERO PUSH2 0x1119 JUMPI PUSH1 0x0 DUP1 REVERT JUMPDEST POP GAS STATICCALL ISZERO DUP1 ISZERO PUSH2 0x112D JUMPI RETURNDATASIZE PUSH1 0x0 DUP1 RETURNDATACOPY RETURNDATASIZE PUSH1 0x0 REVERT JUMPDEST POP POP POP POP PUSH1 0x40 MLOAD RETURNDATASIZE PUSH1 0x1F NOT PUSH1 0x1F DUP3 ADD AND DUP3 ADD DUP1 PUSH1 0x40 MSTORE POP DUP2 ADD SWAP1 PUSH2 0x1151 SWAP2 SWAP1 PUSH2 0x1AD9 JUMP JUMPDEST SWAP1 POP PUSH32 0x0 PUSH20 0xFFFFFFFFFFFFFFFFFFFFFFFFFFFFFFFFFFFFFFFF AND PUSH4 0x9B44D556 DUP7 DUP11 DUP10 DUP12 PUSH1 0x40 MLOAD DUP6 PUSH4 0xFFFFFFFF AND PUSH1 0xE0 SHL DUP2 MSTORE PUSH1 0x4 ADD PUSH2 0x11B1 SWAP4 SWAP3 SWAP2 SWAP1 PUSH2 0x1F18 JUMP JUMPDEST PUSH1 0xA0 PUSH1 0x40 MLOAD DUP1 DUP4 SUB DUP2 DUP6 DUP9 DUP1 EXTCODESIZE ISZERO DUP1 ISZERO PUSH2 0x11CA JUMPI PUSH1 0x0 DUP1 REVERT JUMPDEST POP GAS CALL SWAP4 POP POP POP POP DUP1 ISZERO PUSH2 0x1219 JUMPI POP PUSH1 0x40 DUP1 MLOAD PUSH1 0x1F RETURNDATASIZE SWAP1 DUP2 ADD PUSH32 0xFFFFFFFFFFFFFFFFFFFFFFFFFFFFFFFFFFFFFFFFFFFFFFFFFFFFFFFFFFFFFFE0 AND DUP3 ADD SWAP1 SWAP3 MSTORE PUSH2 0x1216 SWAP2 DUP2 ADD SWAP1 PUSH2 0x1997 JUMP JUMPDEST PUSH1 0x1 JUMPDEST PUSH2 0x1253 JUMPI RETURNDATASIZE DUP1 DUP1 ISZERO PUSH2 0x1247 JUMPI PUSH1 0x40 MLOAD SWAP2 POP PUSH1 0x1F NOT PUSH1 0x3F RETURNDATASIZE ADD AND DUP3 ADD PUSH1 0x40 MSTORE RETURNDATASIZE DUP3 MSTORE RETURNDATASIZE PUSH1 0x0 PUSH1 0x20 DUP5 ADD RETURNDATACOPY PUSH2 0x124C JUMP JUMPDEST PUSH1 0x60 SWAP2 POP JUMPDEST POP POP PUSH2 0x1325 JUMP JUMPDEST PUSH2 0x12EC DUP3 DUP7 PUSH20 0xFFFFFFFFFFFFFFFFFFFFFFFFFFFFFFFFFFFFFFFF AND PUSH4 0x70A08231 ADDRESS PUSH1 0x40 MLOAD DUP3 PUSH4 0xFFFFFFFF AND PUSH1 0xE0 SHL DUP2 MSTORE PUSH1 0x4 ADD PUSH2 0x1290 SWAP2 SWAP1 PUSH2 0x1DE9 JUMP JUMPDEST PUSH1 0x20 PUSH1 0x40 MLOAD DUP1 DUP4 SUB DUP2 DUP7 DUP1 EXTCODESIZE ISZERO DUP1 ISZERO PUSH2 0x12A8 JUMPI PUSH1 0x0 DUP1 REVERT JUMPDEST POP GAS STATICCALL ISZERO DUP1 ISZERO PUSH2 0x12BC JUMPI RETURNDATASIZE PUSH1 0x0 DUP1 RETURNDATACOPY RETURNDATASIZE PUSH1 0x0 REVERT JUMPDEST POP POP POP POP PUSH1 0x40 MLOAD RETURNDATASIZE PUSH1 0x1F NOT PUSH1 0x1F DUP3 ADD AND DUP3 ADD DUP1 PUSH1 0x40 MSTORE POP DUP2 ADD SWAP1 PUSH2 0x12E0 SWAP2 SWAP1 PUSH2 0x1AD9 JUMP JUMPDEST SWAP1 PUSH4 0xFFFFFFFF PUSH2 0xA96 AND JUMP JUMPDEST PUSH1 0x20 DUP1 DUP6 ADD SWAP2 SWAP1 SWAP2 MSTORE PUSH1 0x80 DUP3 ADD MLOAD PUSH1 0x40 DUP6 ADD MSTORE DUP2 ADD MLOAD DUP4 MSTORE DUP4 ISZERO PUSH2 0x1323 JUMPI PUSH1 0x60 DUP2 ADD MLOAD DUP4 MLOAD PUSH2 0x1320 SWAP2 PUSH4 0xFFFFFFFF PUSH2 0xD7C AND JUMP JUMPDEST DUP4 MSTORE JUMPDEST POP JUMPDEST POP SWAP7 SWAP6 POP POP POP POP POP POP JUMP JUMPDEST PUSH1 0x0 PUSH1 0x60 DUP4 PUSH20 0xFFFFFFFFFFFFFFFFFFFFFFFFFFFFFFFFFFFFFFFF AND DUP4 PUSH1 0x40 MLOAD PUSH2 0x1359 SWAP2 SWAP1 PUSH2 0x1B55 JUMP JUMPDEST PUSH1 0x0 PUSH1 0x40 MLOAD DUP1 DUP4 SUB DUP2 PUSH1 0x0 DUP7 GAS CALL SWAP2 POP POP RETURNDATASIZE DUP1 PUSH1 0x0 DUP2 EQ PUSH2 0x1396 JUMPI PUSH1 0x40 MLOAD SWAP2 POP PUSH1 0x1F NOT PUSH1 0x3F RETURNDATASIZE ADD AND DUP3 ADD PUSH1 0x40 MSTORE RETURNDATASIZE DUP3 MSTORE RETURNDATASIZE PUSH1 0x0 PUSH1 0x20 DUP5 ADD RETURNDATACOPY PUSH2 0x139B JUMP JUMPDEST PUSH1 0x60 SWAP2 POP JUMPDEST POP SWAP2 POP SWAP2 POP DUP2 DUP1 ISZERO PUSH2 0x13B1 JUMPI POP PUSH2 0x13B1 DUP2 PUSH2 0x14A7 JUMP JUMPDEST ISZERO PUSH2 0x13BD JUMPI POP POP PUSH2 0x13C6 JUMP JUMPDEST PUSH2 0xEFD DUP2 PUSH2 0x817 JUMP JUMPDEST POP POP JUMP JUMPDEST PUSH1 0x0 DUP2 PUSH1 0x4 ADD DUP4 MLOAD LT ISZERO PUSH2 0x13EB JUMPI PUSH2 0x13EB PUSH2 0x15D PUSH1 0x3 DUP6 MLOAD DUP6 PUSH1 0x4 ADD PUSH2 0x14ED JUMP JUMPDEST POP ADD PUSH1 0x20 ADD MLOAD PUSH32 0xFFFFFFFF00000000000000000000000000000000000000000000000000000000 AND SWAP1 JUMP JUMPDEST PUSH1 0x60 PUSH1 0x40 MLOAD PUSH2 0x1424 SWAP1 PUSH2 0x1D9A JUMP JUMPDEST PUSH1 0x40 MLOAD DUP1 SWAP2 SUB SWAP1 KECCAK256 DUP3 PUSH1 0x40 MLOAD PUSH1 0x24 ADD PUSH2 0x1020 SWAP2 SWAP1 PUSH2 0x1EB2 JUMP JUMPDEST PUSH1 0x0 DUP2 PUSH1 0x14 ADD DUP4 MLOAD LT ISZERO PUSH2 0x145E JUMPI PUSH2 0x145E PUSH2 0x15D PUSH1 0x4 DUP6 MLOAD DUP6 PUSH1 0x14 ADD PUSH2 0x14ED JUMP JUMPDEST POP ADD PUSH1 0x14 ADD MLOAD PUSH20 0xFFFFFFFFFFFFFFFFFFFFFFFFFFFFFFFFFFFFFFFF AND SWAP1 JUMP JUMPDEST PUSH1 0x0 DUP2 PUSH2 0x1493 JUMPI PUSH2 0x1493 PUSH2 0x15D PUSH1 0x3 DUP6 DUP6 PUSH2 0xF03 JUMP JUMPDEST PUSH1 0x0 DUP3 DUP5 DUP2 PUSH2 0x149E JUMPI INVALID JUMPDEST DIV SWAP5 SWAP4 POP POP POP POP JUMP JUMPDEST PUSH1 0x0 DUP2 MLOAD PUSH1 0x0 EQ ISZERO PUSH2 0x14BB JUMPI POP PUSH1 0x1 PUSH2 0x85B JUMP JUMPDEST DUP2 MLOAD PUSH1 0x20 EQ ISZERO PUSH2 0x85B JUMPI PUSH1 0x0 PUSH2 0x14D2 DUP4 PUSH1 0x0 PUSH2 0x150C JUMP JUMPDEST SWAP1 POP DUP1 PUSH1 0x1 EQ ISZERO PUSH2 0x14E7 JUMPI PUSH1 0x1 SWAP2 POP POP PUSH2 0x85B JUMP JUMPDEST POP SWAP2 SWAP1 POP JUMP JUMPDEST PUSH1 0x60 PUSH4 0x28006595 PUSH1 0xE0 SHL DUP5 DUP5 DUP5 PUSH1 0x40 MLOAD PUSH1 0x24 ADD PUSH2 0xDC3 SWAP4 SWAP3 SWAP2 SWAP1 PUSH2 0x1EE7 JUMP JUMPDEST PUSH1 0x0 PUSH2 0x959 DUP4 DUP4 PUSH1 0x0 DUP2 PUSH1 0x20 ADD DUP4 MLOAD LT ISZERO PUSH2 0x1534 JUMPI PUSH2 0x1534 PUSH2 0x15D PUSH1 0x5 DUP6 MLOAD DUP6 PUSH1 0x20 ADD PUSH2 0x14ED JUMP JUMPDEST POP ADD PUSH1 0x20 ADD MLOAD SWAP1 JUMP JUMPDEST PUSH1 0x40 DUP1 MLOAD PUSH1 0xE0 DUP2 ADD SWAP1 SWAP2 MSTORE DUP1 PUSH1 0x0 DUP2 MSTORE PUSH1 0x20 ADD PUSH1 0x0 PUSH20 0xFFFFFFFFFFFFFFFFFFFFFFFFFFFFFFFFFFFFFFFF AND DUP2 MSTORE PUSH1 0x20 ADD PUSH1 0x0 PUSH20 0xFFFFFFFFFFFFFFFFFFFFFFFFFFFFFFFFFFFFFFFF AND DUP2 MSTORE PUSH1 0x20 ADD PUSH1 0x60 DUP2 MSTORE PUSH1 0x20 ADD PUSH1 0x60 DUP2 MSTORE PUSH1 0x20 ADD PUSH1 0x60 DUP2 MSTORE PUSH1 0x20 ADD PUSH1 0x0 DUP2 MSTORE POP SWAP1 JUMP JUMPDEST PUSH1 0x40 MLOAD DUP1 PUSH1 0x60 ADD PUSH1 0x40 MSTORE DUP1 PUSH1 0x0 DUP2 MSTORE PUSH1 0x20 ADD PUSH1 0x0 DUP2 MSTORE PUSH1 0x20 ADD PUSH1 0x0 DUP2 MSTORE POP SWAP1 JUMP JUMPDEST DUP1 CALLDATALOAD PUSH2 0x811 DUP2 PUSH2 0x20FA JUMP JUMPDEST PUSH1 0x0 DUP3 PUSH1 0x1F DUP4 ADD SLT PUSH2 0x15E3 JUMPI DUP1 DUP2 REVERT JUMPDEST DUP2 CALLDATALOAD PUSH2 0x15F6 PUSH2 0x15F1 DUP3 PUSH2 0x20AE JUMP JUMPDEST PUSH2 0x2087 JUMP JUMPDEST DUP2 DUP2 MSTORE SWAP2 POP PUSH1 0x20 DUP1 DUP4 ADD SWAP1 DUP5 DUP2 ADD PUSH1 0x0 JUMPDEST DUP5 DUP2 LT ISZERO PUSH2 0x1630 JUMPI PUSH2 0x161E DUP9 DUP5 DUP5 CALLDATALOAD DUP11 ADD ADD PUSH2 0x185F JUMP JUMPDEST DUP5 MSTORE SWAP3 DUP3 ADD SWAP3 SWAP1 DUP3 ADD SWAP1 PUSH1 0x1 ADD PUSH2 0x1607 JUMP JUMPDEST POP POP POP POP POP SWAP3 SWAP2 POP POP JUMP JUMPDEST PUSH1 0x0 DUP3 PUSH1 0x1F DUP4 ADD SLT PUSH2 0x164B JUMPI DUP1 DUP2 REVERT JUMPDEST DUP2 CALLDATALOAD PUSH2 0x1659 PUSH2 0x15F1 DUP3 PUSH2 0x20AE JUMP JUMPDEST DUP2 DUP2 MSTORE SWAP2 POP PUSH1 0x20 DUP1 DUP4 ADD SWAP1 DUP5 DUP2 ADD PUSH1 0x0 JUMPDEST DUP5 DUP2 LT ISZERO PUSH2 0x1630 JUMPI DUP2 CALLDATALOAD DUP8 ADD PUSH2 0x1C0 DUP1 PUSH32 0xFFFFFFFFFFFFFFFFFFFFFFFFFFFFFFFFFFFFFFFFFFFFFFFFFFFFFFFFFFFFFFE0 DUP4 DUP13 SUB ADD SLT ISZERO PUSH2 0x16AA JUMPI PUSH1 0x0 DUP1 REVERT JUMPDEST PUSH2 0x16B3 DUP2 PUSH2 0x2087 JUMP JUMPDEST PUSH2 0x16BF DUP12 DUP8 DUP6 ADD PUSH2 0x15C8 JUMP JUMPDEST DUP2 MSTORE PUSH1 0x40 PUSH2 0x16CF DUP13 DUP3 DUP7 ADD PUSH2 0x15C8 JUMP JUMPDEST DUP8 DUP4 ADD MSTORE PUSH1 0x60 PUSH2 0x16E1 DUP14 DUP3 DUP8 ADD PUSH2 0x15C8 JUMP JUMPDEST DUP3 DUP5 ADD MSTORE PUSH1 0x80 SWAP2 POP PUSH2 0x16F5 DUP14 DUP4 DUP8 ADD PUSH2 0x15C8 JUMP JUMPDEST DUP2 DUP5 ADD MSTORE POP PUSH1 0xA0 DUP1 DUP6 ADD CALLDATALOAD DUP3 DUP5 ADD MSTORE PUSH1 0xC0 SWAP2 POP DUP2 DUP6 ADD CALLDATALOAD DUP2 DUP5 ADD MSTORE POP PUSH1 0xE0 DUP1 DUP6 ADD CALLDATALOAD DUP3 DUP5 ADD MSTORE PUSH2 0x100 SWAP2 POP DUP2 DUP6 ADD CALLDATALOAD DUP2 DUP5 ADD MSTORE POP PUSH2 0x120 DUP1 DUP6 ADD CALLDATALOAD DUP3 DUP5 ADD MSTORE PUSH2 0x140 SWAP2 POP DUP2 DUP6 ADD CALLDATALOAD DUP2 DUP5 ADD MSTORE POP PUSH2 0x160 DUP1 DUP6 ADD CALLDATALOAD PUSH8 0xFFFFFFFFFFFFFFFF DUP1 DUP3 GT ISZERO PUSH2 0x175F JUMPI PUSH1 0x0 DUP1 REVERT JUMPDEST PUSH2 0x176D DUP16 DUP12 DUP5 DUP11 ADD ADD PUSH2 0x185F JUMP JUMPDEST DUP5 DUP7 ADD MSTORE PUSH2 0x180 SWAP4 POP DUP4 DUP8 ADD CALLDATALOAD SWAP2 POP DUP1 DUP3 GT ISZERO PUSH2 0x1789 JUMPI PUSH1 0x0 DUP1 REVERT JUMPDEST PUSH2 0x1797 DUP16 DUP12 DUP5 DUP11 ADD ADD PUSH2 0x185F JUMP JUMPDEST DUP4 DUP7 ADD MSTORE PUSH2 0x1A0 SWAP3 POP DUP3 DUP8 ADD CALLDATALOAD SWAP2 POP DUP1 DUP3 GT ISZERO PUSH2 0x17B3 JUMPI PUSH1 0x0 DUP1 REVERT JUMPDEST PUSH2 0x17C1 DUP16 DUP12 DUP5 DUP11 ADD ADD PUSH2 0x185F JUMP JUMPDEST DUP5 DUP7 ADD MSTORE DUP6 DUP8 ADD CALLDATALOAD SWAP4 POP DUP1 DUP5 GT ISZERO PUSH2 0x17D8 JUMPI PUSH1 0x0 DUP1 REVERT JUMPDEST POP POP PUSH2 0x17E8 DUP14 DUP10 DUP5 DUP9 ADD ADD PUSH2 0x185F JUMP JUMPDEST SWAP1 DUP4 ADD MSTORE POP DUP7 MSTORE POP POP SWAP3 DUP3 ADD SWAP3 SWAP1 DUP3 ADD SWAP1 PUSH1 0x1 ADD PUSH2 0x166A JUMP JUMPDEST PUSH1 0x0 DUP3 PUSH1 0x1F DUP4 ADD SLT PUSH2 0x1811 JUMPI DUP1 DUP2 REVERT JUMPDEST DUP2 CALLDATALOAD PUSH2 0x181F PUSH2 0x15F1 DUP3 PUSH2 0x20AE JUMP JUMPDEST DUP2 DUP2 MSTORE SWAP2 POP PUSH1 0x20 DUP1 DUP4 ADD SWAP1 DUP5 DUP2 ADD DUP2 DUP5 MUL DUP7 ADD DUP3 ADD DUP8 LT ISZERO PUSH2 0x1840 JUMPI PUSH1 0x0 DUP1 REVERT JUMPDEST PUSH1 0x0 JUMPDEST DUP5 DUP2 LT ISZERO PUSH2 0x1630 JUMPI DUP2 CALLDATALOAD DUP5 MSTORE SWAP3 DUP3 ADD SWAP3 SWAP1 DUP3 ADD SWAP1 PUSH1 0x1 ADD PUSH2 0x1843 JUMP JUMPDEST PUSH1 0x0 DUP3 PUSH1 0x1F DUP4 ADD SLT PUSH2 0x186F JUMPI DUP1 DUP2 REVERT JUMPDEST DUP2 CALLDATALOAD PUSH8 0xFFFFFFFFFFFFFFFF DUP2 GT ISZERO PUSH2 0x1885 JUMPI DUP2 DUP3 REVERT JUMPDEST PUSH2 0x18B6 PUSH1 0x20 PUSH32 0xFFFFFFFFFFFFFFFFFFFFFFFFFFFFFFFFFFFFFFFFFFFFFFFFFFFFFFFFFFFFFFE0 PUSH1 0x1F DUP5 ADD AND ADD PUSH2 0x2087 JUMP JUMPDEST SWAP2 POP DUP1 DUP3 MSTORE DUP4 PUSH1 0x20 DUP3 DUP6 ADD ADD GT ISZERO PUSH2 0x18CD JUMPI PUSH1 0x0 DUP1 REVERT JUMPDEST DUP1 PUSH1 0x20 DUP5 ADD PUSH1 0x20 DUP5 ADD CALLDATACOPY PUSH1 0x0 SWAP1 DUP3 ADD PUSH1 0x20 ADD MSTORE SWAP3 SWAP2 POP POP JUMP JUMPDEST DUP1 CALLDATALOAD PUSH1 0x2 DUP2 LT PUSH2 0x811 JUMPI PUSH1 0x0 DUP1 REVERT JUMPDEST PUSH1 0x0 PUSH1 0x20 DUP3 DUP5 SUB SLT ISZERO PUSH2 0x1906 JUMPI DUP1 DUP2 REVERT JUMPDEST DUP2 CALLDATALOAD PUSH2 0x959 DUP2 PUSH2 0x20FA JUMP JUMPDEST PUSH1 0x0 DUP1 PUSH1 0x0 DUP1 PUSH1 0x60 DUP6 DUP8 SUB SLT ISZERO PUSH2 0x1926 JUMPI DUP3 DUP4 REVERT JUMPDEST DUP5 CALLDATALOAD SWAP4 POP PUSH1 0x20 DUP6 ADD CALLDATALOAD PUSH2 0x1938 DUP2 PUSH2 0x20FA JUMP JUMPDEST SWAP3 POP PUSH1 0x40 DUP6 ADD CALLDATALOAD PUSH8 0xFFFFFFFFFFFFFFFF DUP1 DUP3 GT ISZERO PUSH2 0x1954 JUMPI DUP4 DUP5 REVERT JUMPDEST DUP2 DUP8 ADD DUP9 PUSH1 0x1F DUP3 ADD SLT PUSH2 0x1965 JUMPI DUP5 DUP6 REVERT JUMPDEST DUP1 CALLDATALOAD SWAP3 POP DUP2 DUP4 GT ISZERO PUSH2 0x1975 JUMPI DUP5 DUP6 REVERT JUMPDEST DUP9 PUSH1 0x20 DUP5 DUP4 ADD ADD GT ISZERO PUSH2 0x1986 JUMPI DUP5 DUP6 REVERT JUMPDEST SWAP6 SWAP9 SWAP5 SWAP8 POP POP PUSH1 0x20 SWAP1 SWAP5 ADD SWAP5 POP POP POP JUMP JUMPDEST PUSH1 0x0 PUSH1 0xA0 DUP3 DUP5 SUB SLT ISZERO PUSH2 0x19A8 JUMPI DUP1 DUP2 REVERT JUMPDEST PUSH2 0x19B2 PUSH1 0xA0 PUSH2 0x2087 JUMP JUMPDEST DUP3 MLOAD DUP2 MSTORE PUSH1 0x20 DUP4 ADD MLOAD PUSH1 0x20 DUP3 ADD MSTORE PUSH1 0x40 DUP4 ADD MLOAD PUSH1 0x40 DUP3 ADD MSTORE PUSH1 0x60 DUP4 ADD MLOAD PUSH1 0x60 DUP3 ADD MSTORE PUSH1 0x80 DUP4 ADD MLOAD PUSH1 0x80 DUP3 ADD MSTORE DUP1 SWAP2 POP POP SWAP3 SWAP2 POP POP JUMP JUMPDEST PUSH1 0x0 PUSH1 0x20 DUP3 DUP5 SUB SLT ISZERO PUSH2 0x19F9 JUMPI DUP1 DUP2 REVERT JUMPDEST DUP2 CALLDATALOAD PUSH8 0xFFFFFFFFFFFFFFFF DUP1 DUP3 GT ISZERO PUSH2 0x1A10 JUMPI DUP3 DUP4 REVERT JUMPDEST DUP2 DUP5 ADD PUSH1 0xE0 DUP2 DUP8 SUB SLT ISZERO PUSH2 0x1A22 JUMPI DUP4 DUP5 REVERT JUMPDEST PUSH2 0x1A2C PUSH1 0xE0 PUSH2 0x2087 JUMP JUMPDEST SWAP3 POP PUSH2 0x1A38 DUP7 DUP3 PUSH2 0x18E6 JUMP JUMPDEST DUP4 MSTORE PUSH2 0x1A47 DUP7 PUSH1 0x20 DUP4 ADD PUSH2 0x15C8 JUMP JUMPDEST PUSH1 0x20 DUP5 ADD MSTORE PUSH2 0x1A59 DUP7 PUSH1 0x40 DUP4 ADD PUSH2 0x15C8 JUMP JUMPDEST PUSH1 0x40 DUP5 ADD MSTORE PUSH1 0x60 DUP2 ADD CALLDATALOAD DUP3 DUP2 GT ISZERO PUSH2 0x1A6F JUMPI DUP5 DUP6 REVERT JUMPDEST PUSH2 0x1A7B DUP8 DUP3 DUP5 ADD PUSH2 0x163B JUMP JUMPDEST PUSH1 0x60 DUP6 ADD MSTORE POP PUSH1 0x80 DUP2 ADD CALLDATALOAD DUP3 DUP2 GT ISZERO PUSH2 0x1A92 JUMPI DUP5 DUP6 REVERT JUMPDEST PUSH2 0x1A9E DUP8 DUP3 DUP5 ADD PUSH2 0x15D3 JUMP JUMPDEST PUSH1 0x80 DUP6 ADD MSTORE POP PUSH1 0xA0 DUP2 ADD CALLDATALOAD DUP3 DUP2 GT ISZERO PUSH2 0x1AB5 JUMPI DUP5 DUP6 REVERT JUMPDEST PUSH2 0x1AC1 DUP8 DUP3 DUP5 ADD PUSH2 0x1801 JUMP JUMPDEST PUSH1 0xA0 DUP6 ADD MSTORE POP PUSH1 0xC0 SWAP1 DUP2 ADD CALLDATALOAD SWAP1 DUP4 ADD MSTORE POP SWAP4 SWAP3 POP POP POP JUMP JUMPDEST PUSH1 0x0 PUSH1 0x20 DUP3 DUP5 SUB SLT ISZERO PUSH2 0x1AEA JUMPI DUP1 DUP2 REVERT JUMPDEST POP MLOAD SWAP2 SWAP1 POP JUMP JUMPDEST PUSH20 0xFFFFFFFFFFFFFFFFFFFFFFFFFFFFFFFFFFFFFFFF AND SWAP1 MSTORE JUMP JUMPDEST PUSH1 0x0 DUP2 MLOAD DUP1 DUP5 MSTORE PUSH2 0x1B23 DUP2 PUSH1 0x20 DUP7 ADD PUSH1 0x20 DUP7 ADD PUSH2 0x20CE JUMP JUMPDEST PUSH1 0x1F ADD PUSH32 0xFFFFFFFFFFFFFFFFFFFFFFFFFFFFFFFFFFFFFFFFFFFFFFFFFFFFFFFFFFFFFFE0 AND SWAP3 SWAP1 SWAP3 ADD PUSH1 0x20 ADD SWAP3 SWAP2 POP POP JUMP JUMPDEST PUSH1 0x0 DUP3 MLOAD PUSH2 0x1B67 DUP2 DUP5 PUSH1 0x20 DUP8 ADD PUSH2 0x20CE JUMP JUMPDEST SWAP2 SWAP1 SWAP2 ADD SWAP3 SWAP2 POP POP JUMP JUMPDEST PUSH32 0x496E636F6D706C65746546696C6C42757951756F74654572726F722861646472 DUP2 MSTORE PUSH32 0x6573732C75696E743235362C75696E7432353629000000000000000000000000 PUSH1 0x20 DUP3 ADD MSTORE PUSH1 0x34 ADD SWAP1 JUMP JUMPDEST PUSH32 0x496E76616C69645472616E73666F726D446174614572726F722875696E74382C DUP2 MSTORE PUSH32 0x6279746573290000000000000000000000000000000000000000000000000000 PUSH1 0x20 DUP3 ADD MSTORE PUSH1 0x26 ADD SWAP1 JUMP JUMPDEST PUSH32 0x4F6E6C7943616C6C61626C6542794465706C6F7965724572726F722861646472 DUP2 MSTORE PUSH32 0x6573732C61646472657373290000000000000000000000000000000000000000 PUSH1 0x20 DUP3 ADD MSTORE PUSH1 0x2C ADD SWAP1 JUMP JUMPDEST PUSH32 0x496E76616C696454616B6572466565546F6B656E4572726F7228616464726573 DUP2 MSTORE PUSH32 0x7329000000000000000000000000000000000000000000000000000000000000 PUSH1 0x20 DUP3 ADD MSTORE PUSH1 0x22 ADD SWAP1 JUMP JUMPDEST PUSH32 0x496E636F6D706C65746546696C6C53656C6C51756F74654572726F7228616464 DUP2 MSTORE PUSH32 0x726573732C75696E743235362C75696E74323536290000000000000000000000 PUSH1 0x20 DUP3 ADD MSTORE PUSH1 0x35 ADD SWAP1 JUMP JUMPDEST PUSH32 0x496E76616C6964457865637574696F6E436F6E746578744572726F7228616464 DUP2 MSTORE PUSH32 0x726573732C616464726573732900000000000000000000000000000000000000 PUSH1 0x20 DUP3 ADD MSTORE PUSH1 0x2D ADD SWAP1 JUMP JUMPDEST PUSH32 0x496E73756666696369656E7450726F746F636F6C4665654572726F722875696E DUP2 MSTORE PUSH32 0x743235362C75696E743235362900000000000000000000000000000000000000 PUSH1 0x20 DUP3 ADD MSTORE PUSH1 0x2D ADD SWAP1 JUMP JUMPDEST PUSH32 0x496E76616C696445524332304173736574446174614572726F72286279746573 DUP2 MSTORE PUSH32 0x2900000000000000000000000000000000000000000000000000000000000000 PUSH1 0x20 DUP3 ADD MSTORE PUSH1 0x21 ADD SWAP1 JUMP JUMPDEST PUSH20 0xFFFFFFFFFFFFFFFFFFFFFFFFFFFFFFFFFFFFFFFF SWAP2 SWAP1 SWAP2 AND DUP2 MSTORE PUSH1 0x20 ADD SWAP1 JUMP JUMPDEST PUSH20 0xFFFFFFFFFFFFFFFFFFFFFFFFFFFFFFFFFFFFFFFF SWAP3 DUP4 AND DUP2 MSTORE SWAP2 AND PUSH1 0x20 DUP3 ADD MSTORE PUSH1 0x40 ADD SWAP1 JUMP JUMPDEST PUSH20 0xFFFFFFFFFFFFFFFFFFFFFFFFFFFFFFFFFFFFFFFF SWAP3 SWAP1 SWAP3 AND DUP3 MSTORE PUSH1 0x20 DUP3 ADD MSTORE PUSH1 0x40 ADD SWAP1 JUMP JUMPDEST PUSH20 0xFFFFFFFFFFFFFFFFFFFFFFFFFFFFFFFFFFFFFFFF SWAP4 SWAP1 SWAP4 AND DUP4 MSTORE PUSH1 0x20 DUP4 ADD SWAP2 SWAP1 SWAP2 MSTORE PUSH1 0x40 DUP3 ADD MSTORE PUSH1 0x60 ADD SWAP1 JUMP JUMPDEST PUSH32 0xFFFFFFFF00000000000000000000000000000000000000000000000000000000 SWAP2 SWAP1 SWAP2 AND DUP2 MSTORE PUSH1 0x20 ADD SWAP1 JUMP JUMPDEST PUSH1 0x0 PUSH1 0x20 DUP3 MSTORE PUSH2 0x959 PUSH1 0x20 DUP4 ADD DUP5 PUSH2 0x1B0B JUMP JUMPDEST PUSH1 0x60 DUP2 ADD PUSH1 0x4 DUP6 LT PUSH2 0x1ED3 JUMPI INVALID JUMPDEST SWAP4 DUP2 MSTORE PUSH1 0x20 DUP2 ADD SWAP3 SWAP1 SWAP3 MSTORE PUSH1 0x40 SWAP1 SWAP2 ADD MSTORE SWAP1 JUMP JUMPDEST PUSH1 0x60 DUP2 ADD PUSH1 0x8 DUP6 LT PUSH2 0x1ED3 JUMPI INVALID JUMPDEST PUSH1 0x0 PUSH1 0x2 DUP5 LT PUSH2 0x1F01 JUMPI INVALID JUMPDEST DUP4 DUP3 MSTORE PUSH1 0x40 PUSH1 0x20 DUP4 ADD MSTORE PUSH2 0xFF1 PUSH1 0x40 DUP4 ADD DUP5 PUSH2 0x1B0B JUMP JUMPDEST PUSH1 0x0 PUSH1 0x60 DUP3 MSTORE PUSH2 0x1F2C PUSH1 0x60 DUP4 ADD DUP7 MLOAD PUSH2 0x1AF1 JUMP JUMPDEST PUSH1 0x20 DUP6 ADD MLOAD PUSH2 0x1F3E PUSH1 0x80 DUP5 ADD DUP3 PUSH2 0x1AF1 JUMP JUMPDEST POP PUSH1 0x40 DUP6 ADD MLOAD PUSH2 0x1F51 PUSH1 0xA0 DUP5 ADD DUP3 PUSH2 0x1AF1 JUMP JUMPDEST POP PUSH1 0x60 DUP6 ADD MLOAD PUSH2 0x1F64 PUSH1 0xC0 DUP5 ADD DUP3 PUSH2 0x1AF1 JUMP JUMPDEST POP PUSH1 0x80 DUP6 ADD MLOAD PUSH1 0xE0 DUP4 ADD MSTORE PUSH1 0xA0 DUP6 ADD MLOAD PUSH2 0x100 DUP2 DUP2 DUP6 ADD MSTORE PUSH1 0xC0 DUP8 ADD MLOAD SWAP2 POP PUSH2 0x120 DUP3 DUP2 DUP7 ADD MSTORE PUSH1 0xE0 DUP9 ADD MLOAD SWAP3 POP PUSH2 0x140 DUP4 DUP2 DUP8 ADD MSTORE DUP3 DUP10 ADD MLOAD SWAP4 POP PUSH2 0x160 SWAP3 POP DUP4 DUP4 DUP8 ADD MSTORE DUP2 DUP10 ADD MLOAD SWAP4 POP PUSH2 0x180 SWAP2 POP DUP4 DUP3 DUP8 ADD MSTORE DUP1 DUP10 ADD MLOAD SWAP4 POP POP PUSH2 0x1C0 PUSH2 0x1A0 DUP2 DUP2 DUP9 ADD MSTORE PUSH2 0x1FDA PUSH2 0x220 DUP9 ADD DUP7 PUSH2 0x1B0B JUMP JUMPDEST DUP5 DUP12 ADD MLOAD SWAP6 POP PUSH32 0xFFFFFFFFFFFFFFFFFFFFFFFFFFFFFFFFFFFFFFFFFFFFFFFFFFFFFFFFFFFFFFA0 SWAP5 POP DUP5 DUP9 DUP3 SUB ADD DUP4 DUP10 ADD MSTORE PUSH2 0x2016 DUP2 DUP8 PUSH2 0x1B0B JUMP JUMPDEST SWAP3 POP POP DUP3 DUP11 ADD MLOAD SWAP5 POP DUP4 DUP8 DUP4 SUB ADD PUSH2 0x1E0 DUP9 ADD MSTORE PUSH2 0x2034 DUP3 DUP7 PUSH2 0x1B0B JUMP JUMPDEST SWAP3 POP DUP1 DUP11 ADD MLOAD SWAP5 POP POP POP DUP2 DUP6 DUP3 SUB ADD PUSH2 0x200 DUP7 ADD MSTORE PUSH2 0x2053 DUP2 DUP5 PUSH2 0x1B0B JUMP JUMPDEST SWAP2 POP POP DUP6 PUSH1 0x20 DUP6 ADD MSTORE DUP4 DUP2 SUB PUSH1 0x40 DUP6 ADD MSTORE PUSH2 0x206E DUP2 DUP7 PUSH2 0x1B0B JUMP JUMPDEST SWAP8 SWAP7 POP POP POP POP POP POP POP JUMP JUMPDEST SWAP2 DUP3 MSTORE PUSH1 0x20 DUP3 ADD MSTORE PUSH1 0x40 ADD SWAP1 JUMP JUMPDEST PUSH1 0x40 MLOAD DUP2 DUP2 ADD PUSH8 0xFFFFFFFFFFFFFFFF DUP2 GT DUP3 DUP3 LT OR ISZERO PUSH2 0x20A6 JUMPI PUSH1 0x0 DUP1 REVERT JUMPDEST PUSH1 0x40 MSTORE SWAP2 SWAP1 POP JUMP JUMPDEST PUSH1 0x0 PUSH8 0xFFFFFFFFFFFFFFFF DUP3 GT ISZERO PUSH2 0x20C4 JUMPI DUP1 DUP2 REVERT JUMPDEST POP PUSH1 0x20 SWAP1 DUP2 MUL ADD SWAP1 JUMP JUMPDEST PUSH1 0x0 JUMPDEST DUP4 DUP2 LT ISZERO PUSH2 0x20E9 JUMPI DUP2 DUP2 ADD MLOAD DUP4 DUP3 ADD MSTORE PUSH1 0x20 ADD PUSH2 0x20D1 JUMP JUMPDEST DUP4 DUP2 GT ISZERO PUSH2 0xEFD JUMPI POP POP PUSH1 0x0 SWAP2 ADD MSTORE JUMP JUMPDEST PUSH20 0xFFFFFFFFFFFFFFFFFFFFFFFFFFFFFFFFFFFFFFFF DUP2 AND DUP2 EQ PUSH2 0x211C JUMPI PUSH1 0x0 DUP1 REVERT JUMPDEST POP JUMP INVALID LOG2 PUSH5 0x6970667358 0x22 SLT KECCAK256 STATICCALL SMOD MULMOD BALANCE 0xD1 0xD1 0x2D DUP11 LOG4 ADDMOD AND DUP10 SWAP3 0xA9 0xEC DUP16 CODECOPY STOP DIV MSTORE PUSH5 0x3EC82F885E 0xA8 0x24 0xC5 0xB7 ADDMOD 0xC PUSH5 0x736F6C6343 STOP MOD EXP STOP CALLER "
            }
        }
    },
    "sourceTreeHashHex": "0xd49fedc46de3c10d069c01f7d356e3e12dfd3b456e27dd36c51a0a60552f68b7",
    "compiler": {
        "name": "solc",
        "version": "0.6.10+commit.00c0fcaf",
        "settings": {
            "remappings": [
                "@0x/contracts-utils=/Users/jacob/projects/ethdev/0x/workspace-remote/workspace/0x-monorepo/node_modules/@0x/contracts-utils",
                "@0x/contracts-erc20=/Users/jacob/projects/ethdev/0x/workspace-remote/workspace/0x-monorepo/node_modules/@0x/contracts-erc20"
            ],
            "optimizer": {
                "enabled": true,
                "runs": 1000000,
                "details": {
                    "yul": true,
                    "deduplicate": true,
                    "cse": true,
                    "constantOptimizer": true
                }
            },
            "outputSelection": {
                "*": {
                    "*": [
                        "abi",
                        "devdoc",
                        "evm.bytecode.object",
                        "evm.bytecode.sourceMap",
                        "evm.deployedBytecode.object",
                        "evm.deployedBytecode.sourceMap"
                    ]
                }
            },
            "evmVersion": "istanbul"
        }
    },
    "chains": {}
}