{
    "schemaVersion": "2.0.0",
    "contractName": "FlashWallet",
    "compilerOutput": {
        "abi": [
            {
                "inputs": [],
                "stateMutability": "nonpayable",
                "type": "constructor"
            },
            {
                "inputs": [
                    {
                        "internalType": "address payable",
                        "name": "target",
                        "type": "address"
                    },
                    {
                        "internalType": "bytes",
                        "name": "callData",
                        "type": "bytes"
                    },
                    {
                        "internalType": "uint256",
                        "name": "value",
                        "type": "uint256"
                    }
                ],
                "name": "executeCall",
                "outputs": [
                    {
                        "internalType": "bytes",
                        "name": "resultData",
                        "type": "bytes"
                    }
                ],
                "stateMutability": "payable",
                "type": "function"
            },
            {
                "inputs": [
                    {
                        "internalType": "address payable",
                        "name": "target",
                        "type": "address"
                    },
                    {
                        "internalType": "bytes",
                        "name": "callData",
                        "type": "bytes"
                    }
                ],
                "name": "executeDelegateCall",
                "outputs": [
                    {
                        "internalType": "bytes",
                        "name": "resultData",
                        "type": "bytes"
                    }
                ],
                "stateMutability": "payable",
                "type": "function"
            },
            {
                "inputs": [
                    {
                        "internalType": "address",
                        "name": "",
                        "type": "address"
                    },
                    {
                        "internalType": "address",
                        "name": "",
                        "type": "address"
                    },
                    {
                        "internalType": "uint256[]",
                        "name": "",
                        "type": "uint256[]"
                    },
                    {
                        "internalType": "uint256[]",
                        "name": "",
                        "type": "uint256[]"
                    },
                    {
                        "internalType": "bytes",
                        "name": "",
                        "type": "bytes"
                    }
                ],
                "name": "onERC1155BatchReceived",
                "outputs": [
                    {
                        "internalType": "bytes4",
                        "name": "success",
                        "type": "bytes4"
                    }
                ],
                "stateMutability": "pure",
                "type": "function"
            },
            {
                "inputs": [
                    {
                        "internalType": "address",
                        "name": "",
                        "type": "address"
                    },
                    {
                        "internalType": "address",
                        "name": "",
                        "type": "address"
                    },
                    {
                        "internalType": "uint256",
                        "name": "",
                        "type": "uint256"
                    },
                    {
                        "internalType": "uint256",
                        "name": "",
                        "type": "uint256"
                    },
                    {
                        "internalType": "bytes",
                        "name": "",
                        "type": "bytes"
                    }
                ],
                "name": "onERC1155Received",
                "outputs": [
                    {
                        "internalType": "bytes4",
                        "name": "success",
                        "type": "bytes4"
                    }
                ],
                "stateMutability": "pure",
                "type": "function"
            },
            {
                "inputs": [],
                "name": "owner",
                "outputs": [
                    {
                        "internalType": "address",
                        "name": "",
                        "type": "address"
                    }
                ],
                "stateMutability": "view",
                "type": "function"
            },
            {
                "inputs": [
                    {
                        "internalType": "bytes4",
                        "name": "interfaceID",
                        "type": "bytes4"
                    }
                ],
                "name": "supportsInterface",
                "outputs": [
                    {
                        "internalType": "bool",
                        "name": "hasSupport",
                        "type": "bool"
                    }
                ],
                "stateMutability": "pure",
                "type": "function"
            },
            {
                "inputs": [
                    {
                        "internalType": "address",
                        "name": "",
                        "type": "address"
                    },
                    {
                        "internalType": "uint256",
                        "name": "",
                        "type": "uint256"
                    },
                    {
                        "internalType": "bytes",
                        "name": "",
                        "type": "bytes"
                    }
                ],
                "name": "tokenFallback",
                "outputs": [],
                "stateMutability": "pure",
                "type": "function"
            }
        ],
        "devdoc": {
            "details": "A contract that can execute arbitrary calls from its owner.",
            "kind": "dev",
            "methods": {
                "executeCall(address,bytes,uint256)": {
                    "details": "Execute an arbitrary call. Only an authority can call this.",
                    "params": {
                        "callData": "The call data.",
                        "target": "The call target.",
                        "value": "Ether to attach to the call."
                    },
                    "returns": {
                        "resultData": "The data returned by the call."
                    }
                },
                "executeDelegateCall(address,bytes)": {
                    "details": "Execute an arbitrary delegatecall, in the context of this puppet.      Only an authority can call this.",
                    "params": {
                        "callData": "The call data.",
                        "target": "The call target."
                    },
                    "returns": {
                        "resultData": "The data returned by the call."
                    }
                },
                "onERC1155BatchReceived(address,address,uint256[],uint256[],bytes)": {
                    "details": "Allow this contract to receive ERC1155 tokens.",
                    "returns": {
                        "success": " `bytes4(keccak256(\"onERC1155BatchReceived(address,address,uint256[],uint256[],bytes)\"))`"
                    }
                },
                "onERC1155Received(address,address,uint256,uint256,bytes)": {
                    "details": "Allow this contract to receive ERC1155 tokens.",
                    "returns": {
                        "success": " `bytes4(keccak256(\"onERC1155Received(address,address,uint256,uint256,bytes)\"))`"
                    }
                },
                "supportsInterface(bytes4)": {
                    "details": "Signal support for receiving ERC1155 tokens.",
                    "params": {
                        "interfaceID": "The interface ID, as per ERC-165 rules."
                    },
                    "returns": {
                        "hasSupport": "`true` if this contract supports an ERC-165 interface."
                    }
                },
                "tokenFallback(address,uint256,bytes)": {
                    "details": "Allows this contract to receive ERC223 tokens."
                }
            },
            "stateVariables": {
                "owner": {
                    "details": "Store the owner/deployer as an immutable to make this contract stateless."
                }
            },
            "version": 1
        },
        "evm": {
            "bytecode": {
                "linkReferences": {},
                "object": "0x60a060405234801561001057600080fd5b5033606081901b608052610c9b6100456000398061027952806102a7528061039952806103d552806104035250610c9b6000f3fe6080604052600436106100745760003560e01c8063b68df16d1161004e578063b68df16d146100f8578063bc197c811461010b578063c0ee0b8a14610138578063f23a6e611461015a5761007b565b806301ffc9a71461008057806354132d78146100b65780638da5cb5b146100d65761007b565b3661007b57005b600080fd5b34801561008c57600080fd5b506100a061009b366004610a3a565b61017a565b6040516100ad9190610bf5565b60405180910390f35b6100c96100c4366004610851565b61025f565b6040516100ad9190610c2d565b3480156100e257600080fd5b506100eb610397565b6040516100ad9190610afa565b6100c96101063660046107fe565b6103bb565b34801561011757600080fd5b5061012b6101263660046108ab565b6104e8565b6040516100ad9190610c00565b34801561014457600080fd5b506101586101533660046109e0565b610515565b005b34801561016657600080fd5b5061012b610175366004610966565b61051b565b60007fffffffff0000000000000000000000000000000000000000000000000000000082167f01ffc9a700000000000000000000000000000000000000000000000000000000148061020d57507fffffffff0000000000000000000000000000000000000000000000000000000082167f4e2312e000000000000000000000000000000000000000000000000000000000145b8061025957507fffffffff0000000000000000000000000000000000000000000000000000000082167fc0ee0b8a00000000000000000000000000000000000000000000000000000000145b92915050565b60603373ffffffffffffffffffffffffffffffffffffffff7f000000000000000000000000000000000000000000000000000000000000000016146102d0576102d06102cb337f0000000000000000000000000000000000000000000000000000000000000000610546565b6105e8565b60008573ffffffffffffffffffffffffffffffffffffffff168386866040516102fa929190610aea565b60006040518083038185875af1925050503d8060008114610337576040519150601f19603f3d011682016040523d82523d6000602084013e61033c565b606091505b50925090508061038e5761038e6102cb308888888080601f0160208091040260200160405190810160405280939291908181526020018383808284376000920191909152508a92508991506105f09050565b50949350505050565b7f000000000000000000000000000000000000000000000000000000000000000081565b60603373ffffffffffffffffffffffffffffffffffffffff7f00000000000000000000000000000000000000000000000000000000000000001614610427576104276102cb337f0000000000000000000000000000000000000000000000000000000000000000610546565b60008473ffffffffffffffffffffffffffffffffffffffff168484604051610450929190610aea565b600060405180830381855af49150503d806000811461048b576040519150601f19603f3d011682016040523d82523d6000602084013e610490565b606091505b5092509050806104e0576104e06102cb308787878080601f0160208091040260200160405190810160405280939291908181526020018383808284376000920191909152508992506106b4915050565b509392505050565b7fbc197c810000000000000000000000000000000000000000000000000000000098975050505050505050565b50505050565b7ff23a6e61000000000000000000000000000000000000000000000000000000009695505050505050565b6060631de45ad160e01b8383604051602401610563929190610b1b565b604080517fffffffffffffffffffffffffffffffffffffffffffffffffffffffffffffffe08184030181529190526020810180517bffffffffffffffffffffffffffffffffffffffffffffffffffffffff167fffffffff0000000000000000000000000000000000000000000000000000000090931692909217909152905092915050565b805160208201fd5b60607f86945816f737646db7f2d6df01602a2212e8c75829f6940913724c13a83a8178868686868660405160240161062c959493929190610b98565b604080517fffffffffffffffffffffffffffffffffffffffffffffffffffffffffffffffe08184030181529190526020810180517bffffffffffffffffffffffffffffffffffffffffffffffffffffffff167fffffffff0000000000000000000000000000000000000000000000000000000090931692909217909152905095945050505050565b60607f61e5a7320b4cf56a2980a427f39e3071c967bf2f77fffcaae20e4467e160afcc858585856040516024016106ee9493929190610b42565b604080517fffffffffffffffffffffffffffffffffffffffffffffffffffffffffffffffe08184030181529190526020810180517bffffffffffffffffffffffffffffffffffffffffffffffffffffffff167fffffffff00000000000000000000000000000000000000000000000000000000909316929092179091529050949350505050565b60008083601f840112610786578182fd5b50813567ffffffffffffffff81111561079d578182fd5b60208301915083602080830285010111156107b757600080fd5b9250929050565b60008083601f8401126107cf578182fd5b50813567ffffffffffffffff8111156107e6578182fd5b6020830191508360208285010111156107b757600080fd5b600080600060408486031215610812578283fd5b833561081d81610c40565b9250602084013567ffffffffffffffff811115610838578283fd5b610844868287016107be565b9497909650939450505050565b60008060008060608587031215610866578081fd5b843561087181610c40565b9350602085013567ffffffffffffffff81111561088c578182fd5b610898878288016107be565b9598909750949560400135949350505050565b60008060008060008060008060a0898b0312156108c6578384fd5b88356108d181610c40565b975060208901356108e181610c40565b9650604089013567ffffffffffffffff808211156108fd578586fd5b6109098c838d01610775565b909850965060608b0135915080821115610921578586fd5b61092d8c838d01610775565b909650945060808b0135915080821115610945578384fd5b506109528b828c016107be565b999c989b5096995094979396929594505050565b60008060008060008060a0878903121561097e578182fd5b863561098981610c40565b9550602087013561099981610c40565b94506040870135935060608701359250608087013567ffffffffffffffff8111156109c2578283fd5b6109ce89828a016107be565b979a9699509497509295939492505050565b600080600080606085870312156109f5578384fd5b8435610a0081610c40565b935060208501359250604085013567ffffffffffffffff811115610a22578283fd5b610a2e878288016107be565b95989497509550505050565b600060208284031215610a4b578081fd5b81357fffffffff0000000000000000000000000000000000000000000000000000000081168114610a7a578182fd5b9392505050565b60008151808452815b81811015610aa657602081850181015186830182015201610a8a565b81811115610ab75782602083870101525b50601f017fffffffffffffffffffffffffffffffffffffffffffffffffffffffffffffffe0169290920160200192915050565b6000828483379101908152919050565b73ffffffffffffffffffffffffffffffffffffffff91909116815260200190565b73ffffffffffffffffffffffffffffffffffffffff92831681529116602082015260400190565b600073ffffffffffffffffffffffffffffffffffffffff808716835280861660208401525060806040830152610b7b6080830185610a81565b8281036060840152610b8d8185610a81565b979650505050505050565b600073ffffffffffffffffffffffffffffffffffffffff808816835280871660208401525060a06040830152610bd160a0830186610a81565b8460608401528281036080840152610be98185610a81565b98975050505050505050565b901515815260200190565b7fffffffff0000000000000000000000000000000000000000000000000000000091909116815260200190565b600060208252610a7a6020830184610a81565b73ffffffffffffffffffffffffffffffffffffffff81168114610c6257600080fd5b5056fea26469706673582212202693caafd0beeadf9d6f42f9dedf3503687e8f05a3baee4ec4d8860b835633e864736f6c634300060c0033",
                "opcodes": "PUSH1 0xA0 PUSH1 0x40 MSTORE CALLVALUE DUP1 ISZERO PUSH2 0x10 JUMPI PUSH1 0x0 DUP1 REVERT JUMPDEST POP CALLER PUSH1 0x60 DUP2 SWAP1 SHL PUSH1 0x80 MSTORE PUSH2 0xC9B PUSH2 0x45 PUSH1 0x0 CODECOPY DUP1 PUSH2 0x279 MSTORE DUP1 PUSH2 0x2A7 MSTORE DUP1 PUSH2 0x399 MSTORE DUP1 PUSH2 0x3D5 MSTORE DUP1 PUSH2 0x403 MSTORE POP PUSH2 0xC9B PUSH1 0x0 RETURN INVALID PUSH1 0x80 PUSH1 0x40 MSTORE PUSH1 0x4 CALLDATASIZE LT PUSH2 0x74 JUMPI PUSH1 0x0 CALLDATALOAD PUSH1 0xE0 SHR DUP1 PUSH4 0xB68DF16D GT PUSH2 0x4E JUMPI DUP1 PUSH4 0xB68DF16D EQ PUSH2 0xF8 JUMPI DUP1 PUSH4 0xBC197C81 EQ PUSH2 0x10B JUMPI DUP1 PUSH4 0xC0EE0B8A EQ PUSH2 0x138 JUMPI DUP1 PUSH4 0xF23A6E61 EQ PUSH2 0x15A JUMPI PUSH2 0x7B JUMP JUMPDEST DUP1 PUSH4 0x1FFC9A7 EQ PUSH2 0x80 JUMPI DUP1 PUSH4 0x54132D78 EQ PUSH2 0xB6 JUMPI DUP1 PUSH4 0x8DA5CB5B EQ PUSH2 0xD6 JUMPI PUSH2 0x7B JUMP JUMPDEST CALLDATASIZE PUSH2 0x7B JUMPI STOP JUMPDEST PUSH1 0x0 DUP1 REVERT JUMPDEST CALLVALUE DUP1 ISZERO PUSH2 0x8C JUMPI PUSH1 0x0 DUP1 REVERT JUMPDEST POP PUSH2 0xA0 PUSH2 0x9B CALLDATASIZE PUSH1 0x4 PUSH2 0xA3A JUMP JUMPDEST PUSH2 0x17A JUMP JUMPDEST PUSH1 0x40 MLOAD PUSH2 0xAD SWAP2 SWAP1 PUSH2 0xBF5 JUMP JUMPDEST PUSH1 0x40 MLOAD DUP1 SWAP2 SUB SWAP1 RETURN JUMPDEST PUSH2 0xC9 PUSH2 0xC4 CALLDATASIZE PUSH1 0x4 PUSH2 0x851 JUMP JUMPDEST PUSH2 0x25F JUMP JUMPDEST PUSH1 0x40 MLOAD PUSH2 0xAD SWAP2 SWAP1 PUSH2 0xC2D JUMP JUMPDEST CALLVALUE DUP1 ISZERO PUSH2 0xE2 JUMPI PUSH1 0x0 DUP1 REVERT JUMPDEST POP PUSH2 0xEB PUSH2 0x397 JUMP JUMPDEST PUSH1 0x40 MLOAD PUSH2 0xAD SWAP2 SWAP1 PUSH2 0xAFA JUMP JUMPDEST PUSH2 0xC9 PUSH2 0x106 CALLDATASIZE PUSH1 0x4 PUSH2 0x7FE JUMP JUMPDEST PUSH2 0x3BB JUMP JUMPDEST CALLVALUE DUP1 ISZERO PUSH2 0x117 JUMPI PUSH1 0x0 DUP1 REVERT JUMPDEST POP PUSH2 0x12B PUSH2 0x126 CALLDATASIZE PUSH1 0x4 PUSH2 0x8AB JUMP JUMPDEST PUSH2 0x4E8 JUMP JUMPDEST PUSH1 0x40 MLOAD PUSH2 0xAD SWAP2 SWAP1 PUSH2 0xC00 JUMP JUMPDEST CALLVALUE DUP1 ISZERO PUSH2 0x144 JUMPI PUSH1 0x0 DUP1 REVERT JUMPDEST POP PUSH2 0x158 PUSH2 0x153 CALLDATASIZE PUSH1 0x4 PUSH2 0x9E0 JUMP JUMPDEST PUSH2 0x515 JUMP JUMPDEST STOP JUMPDEST CALLVALUE DUP1 ISZERO PUSH2 0x166 JUMPI PUSH1 0x0 DUP1 REVERT JUMPDEST POP PUSH2 0x12B PUSH2 0x175 CALLDATASIZE PUSH1 0x4 PUSH2 0x966 JUMP JUMPDEST PUSH2 0x51B JUMP JUMPDEST PUSH1 0x0 PUSH32 0xFFFFFFFF00000000000000000000000000000000000000000000000000000000 DUP3 AND PUSH32 0x1FFC9A700000000000000000000000000000000000000000000000000000000 EQ DUP1 PUSH2 0x20D JUMPI POP PUSH32 0xFFFFFFFF00000000000000000000000000000000000000000000000000000000 DUP3 AND PUSH32 0x4E2312E000000000000000000000000000000000000000000000000000000000 EQ JUMPDEST DUP1 PUSH2 0x259 JUMPI POP PUSH32 0xFFFFFFFF00000000000000000000000000000000000000000000000000000000 DUP3 AND PUSH32 0xC0EE0B8A00000000000000000000000000000000000000000000000000000000 EQ JUMPDEST SWAP3 SWAP2 POP POP JUMP JUMPDEST PUSH1 0x60 CALLER PUSH20 0xFFFFFFFFFFFFFFFFFFFFFFFFFFFFFFFFFFFFFFFF PUSH32 0x0 AND EQ PUSH2 0x2D0 JUMPI PUSH2 0x2D0 PUSH2 0x2CB CALLER PUSH32 0x0 PUSH2 0x546 JUMP JUMPDEST PUSH2 0x5E8 JUMP JUMPDEST PUSH1 0x0 DUP6 PUSH20 0xFFFFFFFFFFFFFFFFFFFFFFFFFFFFFFFFFFFFFFFF AND DUP4 DUP7 DUP7 PUSH1 0x40 MLOAD PUSH2 0x2FA SWAP3 SWAP2 SWAP1 PUSH2 0xAEA JUMP JUMPDEST PUSH1 0x0 PUSH1 0x40 MLOAD DUP1 DUP4 SUB DUP2 DUP6 DUP8 GAS CALL SWAP3 POP POP POP RETURNDATASIZE DUP1 PUSH1 0x0 DUP2 EQ PUSH2 0x337 JUMPI PUSH1 0x40 MLOAD SWAP2 POP PUSH1 0x1F NOT PUSH1 0x3F RETURNDATASIZE ADD AND DUP3 ADD PUSH1 0x40 MSTORE RETURNDATASIZE DUP3 MSTORE RETURNDATASIZE PUSH1 0x0 PUSH1 0x20 DUP5 ADD RETURNDATACOPY PUSH2 0x33C JUMP JUMPDEST PUSH1 0x60 SWAP2 POP JUMPDEST POP SWAP3 POP SWAP1 POP DUP1 PUSH2 0x38E JUMPI PUSH2 0x38E PUSH2 0x2CB ADDRESS DUP9 DUP9 DUP9 DUP1 DUP1 PUSH1 0x1F ADD PUSH1 0x20 DUP1 SWAP2 DIV MUL PUSH1 0x20 ADD PUSH1 0x40 MLOAD SWAP1 DUP2 ADD PUSH1 0x40 MSTORE DUP1 SWAP4 SWAP3 SWAP2 SWAP1 DUP2 DUP2 MSTORE PUSH1 0x20 ADD DUP4 DUP4 DUP1 DUP3 DUP5 CALLDATACOPY PUSH1 0x0 SWAP3 ADD SWAP2 SWAP1 SWAP2 MSTORE POP DUP11 SWAP3 POP DUP10 SWAP2 POP PUSH2 0x5F0 SWAP1 POP JUMP JUMPDEST POP SWAP5 SWAP4 POP POP POP POP JUMP JUMPDEST PUSH32 0x0 DUP2 JUMP JUMPDEST PUSH1 0x60 CALLER PUSH20 0xFFFFFFFFFFFFFFFFFFFFFFFFFFFFFFFFFFFFFFFF PUSH32 0x0 AND EQ PUSH2 0x427 JUMPI PUSH2 0x427 PUSH2 0x2CB CALLER PUSH32 0x0 PUSH2 0x546 JUMP JUMPDEST PUSH1 0x0 DUP5 PUSH20 0xFFFFFFFFFFFFFFFFFFFFFFFFFFFFFFFFFFFFFFFF AND DUP5 DUP5 PUSH1 0x40 MLOAD PUSH2 0x450 SWAP3 SWAP2 SWAP1 PUSH2 0xAEA JUMP JUMPDEST PUSH1 0x0 PUSH1 0x40 MLOAD DUP1 DUP4 SUB DUP2 DUP6 GAS DELEGATECALL SWAP2 POP POP RETURNDATASIZE DUP1 PUSH1 0x0 DUP2 EQ PUSH2 0x48B JUMPI PUSH1 0x40 MLOAD SWAP2 POP PUSH1 0x1F NOT PUSH1 0x3F RETURNDATASIZE ADD AND DUP3 ADD PUSH1 0x40 MSTORE RETURNDATASIZE DUP3 MSTORE RETURNDATASIZE PUSH1 0x0 PUSH1 0x20 DUP5 ADD RETURNDATACOPY PUSH2 0x490 JUMP JUMPDEST PUSH1 0x60 SWAP2 POP JUMPDEST POP SWAP3 POP SWAP1 POP DUP1 PUSH2 0x4E0 JUMPI PUSH2 0x4E0 PUSH2 0x2CB ADDRESS DUP8 DUP8 DUP8 DUP1 DUP1 PUSH1 0x1F ADD PUSH1 0x20 DUP1 SWAP2 DIV MUL PUSH1 0x20 ADD PUSH1 0x40 MLOAD SWAP1 DUP2 ADD PUSH1 0x40 MSTORE DUP1 SWAP4 SWAP3 SWAP2 SWAP1 DUP2 DUP2 MSTORE PUSH1 0x20 ADD DUP4 DUP4 DUP1 DUP3 DUP5 CALLDATACOPY PUSH1 0x0 SWAP3 ADD SWAP2 SWAP1 SWAP2 MSTORE POP DUP10 SWAP3 POP PUSH2 0x6B4 SWAP2 POP POP JUMP JUMPDEST POP SWAP4 SWAP3 POP POP POP JUMP JUMPDEST PUSH32 0xBC197C8100000000000000000000000000000000000000000000000000000000 SWAP9 SWAP8 POP POP POP POP POP POP POP POP JUMP JUMPDEST POP POP POP POP JUMP JUMPDEST PUSH32 0xF23A6E6100000000000000000000000000000000000000000000000000000000 SWAP7 SWAP6 POP POP POP POP POP POP JUMP JUMPDEST PUSH1 0x60 PUSH4 0x1DE45AD1 PUSH1 0xE0 SHL DUP4 DUP4 PUSH1 0x40 MLOAD PUSH1 0x24 ADD PUSH2 0x563 SWAP3 SWAP2 SWAP1 PUSH2 0xB1B JUMP JUMPDEST PUSH1 0x40 DUP1 MLOAD PUSH32 0xFFFFFFFFFFFFFFFFFFFFFFFFFFFFFFFFFFFFFFFFFFFFFFFFFFFFFFFFFFFFFFE0 DUP2 DUP5 SUB ADD DUP2 MSTORE SWAP2 SWAP1 MSTORE PUSH1 0x20 DUP2 ADD DUP1 MLOAD PUSH28 0xFFFFFFFFFFFFFFFFFFFFFFFFFFFFFFFFFFFFFFFFFFFFFFFFFFFFFFFF AND PUSH32 0xFFFFFFFF00000000000000000000000000000000000000000000000000000000 SWAP1 SWAP4 AND SWAP3 SWAP1 SWAP3 OR SWAP1 SWAP2 MSTORE SWAP1 POP SWAP3 SWAP2 POP POP JUMP JUMPDEST DUP1 MLOAD PUSH1 0x20 DUP3 ADD REVERT JUMPDEST PUSH1 0x60 PUSH32 0x86945816F737646DB7F2D6DF01602A2212E8C75829F6940913724C13A83A8178 DUP7 DUP7 DUP7 DUP7 DUP7 PUSH1 0x40 MLOAD PUSH1 0x24 ADD PUSH2 0x62C SWAP6 SWAP5 SWAP4 SWAP3 SWAP2 SWAP1 PUSH2 0xB98 JUMP JUMPDEST PUSH1 0x40 DUP1 MLOAD PUSH32 0xFFFFFFFFFFFFFFFFFFFFFFFFFFFFFFFFFFFFFFFFFFFFFFFFFFFFFFFFFFFFFFE0 DUP2 DUP5 SUB ADD DUP2 MSTORE SWAP2 SWAP1 MSTORE PUSH1 0x20 DUP2 ADD DUP1 MLOAD PUSH28 0xFFFFFFFFFFFFFFFFFFFFFFFFFFFFFFFFFFFFFFFFFFFFFFFFFFFFFFFF AND PUSH32 0xFFFFFFFF00000000000000000000000000000000000000000000000000000000 SWAP1 SWAP4 AND SWAP3 SWAP1 SWAP3 OR SWAP1 SWAP2 MSTORE SWAP1 POP SWAP6 SWAP5 POP POP POP POP POP JUMP JUMPDEST PUSH1 0x60 PUSH32 0x61E5A7320B4CF56A2980A427F39E3071C967BF2F77FFFCAAE20E4467E160AFCC DUP6 DUP6 DUP6 DUP6 PUSH1 0x40 MLOAD PUSH1 0x24 ADD PUSH2 0x6EE SWAP5 SWAP4 SWAP3 SWAP2 SWAP1 PUSH2 0xB42 JUMP JUMPDEST PUSH1 0x40 DUP1 MLOAD PUSH32 0xFFFFFFFFFFFFFFFFFFFFFFFFFFFFFFFFFFFFFFFFFFFFFFFFFFFFFFFFFFFFFFE0 DUP2 DUP5 SUB ADD DUP2 MSTORE SWAP2 SWAP1 MSTORE PUSH1 0x20 DUP2 ADD DUP1 MLOAD PUSH28 0xFFFFFFFFFFFFFFFFFFFFFFFFFFFFFFFFFFFFFFFFFFFFFFFFFFFFFFFF AND PUSH32 0xFFFFFFFF00000000000000000000000000000000000000000000000000000000 SWAP1 SWAP4 AND SWAP3 SWAP1 SWAP3 OR SWAP1 SWAP2 MSTORE SWAP1 POP SWAP5 SWAP4 POP POP POP POP JUMP JUMPDEST PUSH1 0x0 DUP1 DUP4 PUSH1 0x1F DUP5 ADD SLT PUSH2 0x786 JUMPI DUP2 DUP3 REVERT JUMPDEST POP DUP2 CALLDATALOAD PUSH8 0xFFFFFFFFFFFFFFFF DUP2 GT ISZERO PUSH2 0x79D JUMPI DUP2 DUP3 REVERT JUMPDEST PUSH1 0x20 DUP4 ADD SWAP2 POP DUP4 PUSH1 0x20 DUP1 DUP4 MUL DUP6 ADD ADD GT ISZERO PUSH2 0x7B7 JUMPI PUSH1 0x0 DUP1 REVERT JUMPDEST SWAP3 POP SWAP3 SWAP1 POP JUMP JUMPDEST PUSH1 0x0 DUP1 DUP4 PUSH1 0x1F DUP5 ADD SLT PUSH2 0x7CF JUMPI DUP2 DUP3 REVERT JUMPDEST POP DUP2 CALLDATALOAD PUSH8 0xFFFFFFFFFFFFFFFF DUP2 GT ISZERO PUSH2 0x7E6 JUMPI DUP2 DUP3 REVERT JUMPDEST PUSH1 0x20 DUP4 ADD SWAP2 POP DUP4 PUSH1 0x20 DUP3 DUP6 ADD ADD GT ISZERO PUSH2 0x7B7 JUMPI PUSH1 0x0 DUP1 REVERT JUMPDEST PUSH1 0x0 DUP1 PUSH1 0x0 PUSH1 0x40 DUP5 DUP7 SUB SLT ISZERO PUSH2 0x812 JUMPI DUP3 DUP4 REVERT JUMPDEST DUP4 CALLDATALOAD PUSH2 0x81D DUP2 PUSH2 0xC40 JUMP JUMPDEST SWAP3 POP PUSH1 0x20 DUP5 ADD CALLDATALOAD PUSH8 0xFFFFFFFFFFFFFFFF DUP2 GT ISZERO PUSH2 0x838 JUMPI DUP3 DUP4 REVERT JUMPDEST PUSH2 0x844 DUP7 DUP3 DUP8 ADD PUSH2 0x7BE JUMP JUMPDEST SWAP5 SWAP8 SWAP1 SWAP7 POP SWAP4 SWAP5 POP POP POP POP JUMP JUMPDEST PUSH1 0x0 DUP1 PUSH1 0x0 DUP1 PUSH1 0x60 DUP6 DUP8 SUB SLT ISZERO PUSH2 0x866 JUMPI DUP1 DUP2 REVERT JUMPDEST DUP5 CALLDATALOAD PUSH2 0x871 DUP2 PUSH2 0xC40 JUMP JUMPDEST SWAP4 POP PUSH1 0x20 DUP6 ADD CALLDATALOAD PUSH8 0xFFFFFFFFFFFFFFFF DUP2 GT ISZERO PUSH2 0x88C JUMPI DUP2 DUP3 REVERT JUMPDEST PUSH2 0x898 DUP8 DUP3 DUP9 ADD PUSH2 0x7BE JUMP JUMPDEST SWAP6 SWAP9 SWAP1 SWAP8 POP SWAP5 SWAP6 PUSH1 0x40 ADD CALLDATALOAD SWAP5 SWAP4 POP POP POP POP JUMP JUMPDEST PUSH1 0x0 DUP1 PUSH1 0x0 DUP1 PUSH1 0x0 DUP1 PUSH1 0x0 DUP1 PUSH1 0xA0 DUP10 DUP12 SUB SLT ISZERO PUSH2 0x8C6 JUMPI DUP4 DUP5 REVERT JUMPDEST DUP9 CALLDATALOAD PUSH2 0x8D1 DUP2 PUSH2 0xC40 JUMP JUMPDEST SWAP8 POP PUSH1 0x20 DUP10 ADD CALLDATALOAD PUSH2 0x8E1 DUP2 PUSH2 0xC40 JUMP JUMPDEST SWAP7 POP PUSH1 0x40 DUP10 ADD CALLDATALOAD PUSH8 0xFFFFFFFFFFFFFFFF DUP1 DUP3 GT ISZERO PUSH2 0x8FD JUMPI DUP6 DUP7 REVERT JUMPDEST PUSH2 0x909 DUP13 DUP4 DUP14 ADD PUSH2 0x775 JUMP JUMPDEST SWAP1 SWAP9 POP SWAP7 POP PUSH1 0x60 DUP12 ADD CALLDATALOAD SWAP2 POP DUP1 DUP3 GT ISZERO PUSH2 0x921 JUMPI DUP6 DUP7 REVERT JUMPDEST PUSH2 0x92D DUP13 DUP4 DUP14 ADD PUSH2 0x775 JUMP JUMPDEST SWAP1 SWAP7 POP SWAP5 POP PUSH1 0x80 DUP12 ADD CALLDATALOAD SWAP2 POP DUP1 DUP3 GT ISZERO PUSH2 0x945 JUMPI DUP4 DUP5 REVERT JUMPDEST POP PUSH2 0x952 DUP12 DUP3 DUP13 ADD PUSH2 0x7BE JUMP JUMPDEST SWAP10 SWAP13 SWAP9 SWAP12 POP SWAP7 SWAP10 POP SWAP5 SWAP8 SWAP4 SWAP7 SWAP3 SWAP6 SWAP5 POP POP POP JUMP JUMPDEST PUSH1 0x0 DUP1 PUSH1 0x0 DUP1 PUSH1 0x0 DUP1 PUSH1 0xA0 DUP8 DUP10 SUB SLT ISZERO PUSH2 0x97E JUMPI DUP2 DUP3 REVERT JUMPDEST DUP7 CALLDATALOAD PUSH2 0x989 DUP2 PUSH2 0xC40 JUMP JUMPDEST SWAP6 POP PUSH1 0x20 DUP8 ADD CALLDATALOAD PUSH2 0x999 DUP2 PUSH2 0xC40 JUMP JUMPDEST SWAP5 POP PUSH1 0x40 DUP8 ADD CALLDATALOAD SWAP4 POP PUSH1 0x60 DUP8 ADD CALLDATALOAD SWAP3 POP PUSH1 0x80 DUP8 ADD CALLDATALOAD PUSH8 0xFFFFFFFFFFFFFFFF DUP2 GT ISZERO PUSH2 0x9C2 JUMPI DUP3 DUP4 REVERT JUMPDEST PUSH2 0x9CE DUP10 DUP3 DUP11 ADD PUSH2 0x7BE JUMP JUMPDEST SWAP8 SWAP11 SWAP7 SWAP10 POP SWAP5 SWAP8 POP SWAP3 SWAP6 SWAP4 SWAP5 SWAP3 POP POP POP JUMP JUMPDEST PUSH1 0x0 DUP1 PUSH1 0x0 DUP1 PUSH1 0x60 DUP6 DUP8 SUB SLT ISZERO PUSH2 0x9F5 JUMPI DUP4 DUP5 REVERT JUMPDEST DUP5 CALLDATALOAD PUSH2 0xA00 DUP2 PUSH2 0xC40 JUMP JUMPDEST SWAP4 POP PUSH1 0x20 DUP6 ADD CALLDATALOAD SWAP3 POP PUSH1 0x40 DUP6 ADD CALLDATALOAD PUSH8 0xFFFFFFFFFFFFFFFF DUP2 GT ISZERO PUSH2 0xA22 JUMPI DUP3 DUP4 REVERT JUMPDEST PUSH2 0xA2E DUP8 DUP3 DUP9 ADD PUSH2 0x7BE JUMP JUMPDEST SWAP6 SWAP9 SWAP5 SWAP8 POP SWAP6 POP POP POP POP JUMP JUMPDEST PUSH1 0x0 PUSH1 0x20 DUP3 DUP5 SUB SLT ISZERO PUSH2 0xA4B JUMPI DUP1 DUP2 REVERT JUMPDEST DUP2 CALLDATALOAD PUSH32 0xFFFFFFFF00000000000000000000000000000000000000000000000000000000 DUP2 AND DUP2 EQ PUSH2 0xA7A JUMPI DUP2 DUP3 REVERT JUMPDEST SWAP4 SWAP3 POP POP POP JUMP JUMPDEST PUSH1 0x0 DUP2 MLOAD DUP1 DUP5 MSTORE DUP2 JUMPDEST DUP2 DUP2 LT ISZERO PUSH2 0xAA6 JUMPI PUSH1 0x20 DUP2 DUP6 ADD DUP2 ADD MLOAD DUP7 DUP4 ADD DUP3 ADD MSTORE ADD PUSH2 0xA8A JUMP JUMPDEST DUP2 DUP2 GT ISZERO PUSH2 0xAB7 JUMPI DUP3 PUSH1 0x20 DUP4 DUP8 ADD ADD MSTORE JUMPDEST POP PUSH1 0x1F ADD PUSH32 0xFFFFFFFFFFFFFFFFFFFFFFFFFFFFFFFFFFFFFFFFFFFFFFFFFFFFFFFFFFFFFFE0 AND SWAP3 SWAP1 SWAP3 ADD PUSH1 0x20 ADD SWAP3 SWAP2 POP POP JUMP JUMPDEST PUSH1 0x0 DUP3 DUP5 DUP4 CALLDATACOPY SWAP2 ADD SWAP1 DUP2 MSTORE SWAP2 SWAP1 POP JUMP JUMPDEST PUSH20 0xFFFFFFFFFFFFFFFFFFFFFFFFFFFFFFFFFFFFFFFF SWAP2 SWAP1 SWAP2 AND DUP2 MSTORE PUSH1 0x20 ADD SWAP1 JUMP JUMPDEST PUSH20 0xFFFFFFFFFFFFFFFFFFFFFFFFFFFFFFFFFFFFFFFF SWAP3 DUP4 AND DUP2 MSTORE SWAP2 AND PUSH1 0x20 DUP3 ADD MSTORE PUSH1 0x40 ADD SWAP1 JUMP JUMPDEST PUSH1 0x0 PUSH20 0xFFFFFFFFFFFFFFFFFFFFFFFFFFFFFFFFFFFFFFFF DUP1 DUP8 AND DUP4 MSTORE DUP1 DUP7 AND PUSH1 0x20 DUP5 ADD MSTORE POP PUSH1 0x80 PUSH1 0x40 DUP4 ADD MSTORE PUSH2 0xB7B PUSH1 0x80 DUP4 ADD DUP6 PUSH2 0xA81 JUMP JUMPDEST DUP3 DUP2 SUB PUSH1 0x60 DUP5 ADD MSTORE PUSH2 0xB8D DUP2 DUP6 PUSH2 0xA81 JUMP JUMPDEST SWAP8 SWAP7 POP POP POP POP POP POP POP JUMP JUMPDEST PUSH1 0x0 PUSH20 0xFFFFFFFFFFFFFFFFFFFFFFFFFFFFFFFFFFFFFFFF DUP1 DUP9 AND DUP4 MSTORE DUP1 DUP8 AND PUSH1 0x20 DUP5 ADD MSTORE POP PUSH1 0xA0 PUSH1 0x40 DUP4 ADD MSTORE PUSH2 0xBD1 PUSH1 0xA0 DUP4 ADD DUP7 PUSH2 0xA81 JUMP JUMPDEST DUP5 PUSH1 0x60 DUP5 ADD MSTORE DUP3 DUP2 SUB PUSH1 0x80 DUP5 ADD MSTORE PUSH2 0xBE9 DUP2 DUP6 PUSH2 0xA81 JUMP JUMPDEST SWAP9 SWAP8 POP POP POP POP POP POP POP POP JUMP JUMPDEST SWAP1 ISZERO ISZERO DUP2 MSTORE PUSH1 0x20 ADD SWAP1 JUMP JUMPDEST PUSH32 0xFFFFFFFF00000000000000000000000000000000000000000000000000000000 SWAP2 SWAP1 SWAP2 AND DUP2 MSTORE PUSH1 0x20 ADD SWAP1 JUMP JUMPDEST PUSH1 0x0 PUSH1 0x20 DUP3 MSTORE PUSH2 0xA7A PUSH1 0x20 DUP4 ADD DUP5 PUSH2 0xA81 JUMP JUMPDEST PUSH20 0xFFFFFFFFFFFFFFFFFFFFFFFFFFFFFFFFFFFFFFFF DUP2 AND DUP2 EQ PUSH2 0xC62 JUMPI PUSH1 0x0 DUP1 REVERT JUMPDEST POP JUMP INVALID LOG2 PUSH5 0x6970667358 0x22 SLT KECCAK256 0x26 SWAP4 0xCA 0xAF 0xD0 0xBE 0xEA 0xDF SWAP14 PUSH16 0x42F9DEDF3503687E8F05A3BAEE4EC4D8 DUP7 SIGNEXTEND DUP4 JUMP CALLER 0xE8 PUSH5 0x736F6C6343 STOP MOD 0xC STOP CALLER "
            }
        }
    },
    "sourceTreeHashHex": "0x2baa5c878d4c9c0cee35e12755b3cdc4f0ef5e5c17554bc5da42758df8a3d2de",
    "compiler": {
        "name": "solc",
        "version": "0.6.12+commit.27d51765",
        "settings": {
            "remappings": [
                "@0x/contracts-utils=/Users/jacob/projects/ethdev/0x/workspace-remote/workspace/0x-monorepo/node_modules/@0x/contracts-utils",
                "@0x/contracts-erc20=/Users/jacob/projects/ethdev/0x/workspace-remote/workspace/0x-monorepo/node_modules/@0x/contracts-erc20"
            ],
            "optimizer": {
                "enabled": true,
                "runs": 1000000,
                "details": {
                    "yul": true,
                    "deduplicate": true,
                    "cse": true,
                    "constantOptimizer": true
                }
            },
            "outputSelection": {
                "*": {
                    "*": [
                        "abi",
                        "devdoc",
                        "evm.bytecode.object",
                        "evm.bytecode.sourceMap",
                        "evm.deployedBytecode.object",
                        "evm.deployedBytecode.sourceMap"
                    ]
                }
            },
            "evmVersion": "istanbul"
        }
    },
    "chains": {}
}