{
    "schemaVersion": "2.0.0",
    "contractName": "InitialMigration",
    "compilerOutput": {
        "abi": [
            {
                "inputs": [
                    {
                        "internalType": "address",
                        "name": "deployer_",
                        "type": "address"
                    }
                ],
                "stateMutability": "nonpayable",
                "type": "constructor"
            },
            {
                "inputs": [
                    {
                        "internalType": "address",
                        "name": "owner",
                        "type": "address"
                    },
                    {
                        "components": [
                            {
                                "internalType": "contract SimpleFunctionRegistry",
                                "name": "registry",
                                "type": "address"
                            },
                            {
                                "internalType": "contract Ownable",
                                "name": "ownable",
                                "type": "address"
                            }
                        ],
                        "internalType": "struct InitialMigration.BootstrapFeatures",
                        "name": "features",
                        "type": "tuple"
                    }
                ],
                "name": "bootstrap",
                "outputs": [
                    {
                        "internalType": "bytes4",
                        "name": "success",
                        "type": "bytes4"
                    }
                ],
                "stateMutability": "nonpayable",
                "type": "function"
            },
            {
                "inputs": [
                    {
                        "internalType": "address payable",
                        "name": "owner",
                        "type": "address"
                    },
                    {
                        "components": [
                            {
                                "internalType": "contract SimpleFunctionRegistry",
                                "name": "registry",
                                "type": "address"
                            },
                            {
                                "internalType": "contract Ownable",
                                "name": "ownable",
                                "type": "address"
                            }
                        ],
                        "internalType": "struct InitialMigration.BootstrapFeatures",
                        "name": "features",
                        "type": "tuple"
                    }
                ],
                "name": "deploy",
                "outputs": [
                    {
                        "internalType": "contract ZeroEx",
                        "name": "zeroEx",
                        "type": "address"
                    }
                ],
                "stateMutability": "nonpayable",
                "type": "function"
            },
            {
                "inputs": [],
                "name": "deployer",
                "outputs": [
                    {
                        "internalType": "address",
                        "name": "",
                        "type": "address"
                    }
                ],
                "stateMutability": "view",
                "type": "function"
            },
            {
                "inputs": [
                    {
                        "internalType": "address payable",
                        "name": "ethRecipient",
                        "type": "address"
                    }
                ],
                "name": "die",
                "outputs": [],
                "stateMutability": "nonpayable",
                "type": "function"
            }
        ],
        "devdoc": {
            "details": "A contract for deploying and configuring a minimal ZeroEx contract.",
            "methods": {
                "bootstrap(address,(address,address))": {
                    "details": "Sets up the initial state of the `ZeroEx` contract.      The `ZeroEx` contract will delegatecall into this function.",
                    "params": {
                        "features": "Features to bootstrap into the proxy.",
                        "owner": "The new owner of the ZeroEx contract."
                    },
                    "returns": {
                        "success": "Magic bytes if successful."
                    }
                },
                "constructor": {
                    "details": "Instantiate this contract and set the allowed caller of `deploy()`      to `deployer_`.",
                    "params": {
                        "deployer_": "The allowed caller of `deploy()`."
                    }
                },
                "deploy(address,(address,address))": {
                    "details": "Deploy the `ZeroEx` contract with the minimum feature set,      transfers ownership to `owner`, then self-destructs.      Only callable by `deployer` set in the contstructor.",
                    "params": {
                        "features": "Features to bootstrap into the proxy.",
                        "owner": "The owner of the contract."
                    },
                    "returns": {
                        "zeroEx": "The deployed and configured `ZeroEx` contract."
                    }
                },
                "die(address)": {
                    "details": "Self-destructs this contract. Only callable by this contract.",
                    "params": {
                        "ethRecipient": "Who to transfer outstanding ETH to."
                    }
                }
            },
            "stateVariables": {
                "_implementation": {
                    "details": "The real address of this contract."
                },
                "deployer": {
                    "details": "The allowed caller of `deploy()`. In production, this would be      the governor."
                }
            }
        },
        "evm": {
            "bytecode": {
                "linkReferences": {},
                "object": "0x60c060405234801561001057600080fd5b5060405161192e38038061192e83398101604081905261002f9161004c565b6001600160601b0319606091821b1660805230901b60a05261007a565b60006020828403121561005d578081fd5b81516001600160a01b0381168114610073578182fd5b9392505050565b60805160601c60a05160601c6118866100a8600039806102c0525080610353528061054652506118866000f3fe608060405234801561001057600080fd5b506004361061004c5760003560e01c806308cf793414610051578063c9353cb51461007a578063ccadf4091461008f578063d5f39488146100af575b600080fd5b61006461005f3660046107dd565b6100b7565b6040516100719190610962565b60405180910390f35b61008d610088366004610785565b6102a8565b005b6100a261009d3660046107a8565b610339565b604051610071919061089a565b6100a2610544565b80516040805160048152602481019091526020810180517bffffffffffffffffffffffffffffffffffffffffffffffffffffffff167ffb969b0a0000000000000000000000000000000000000000000000000000000017905260009161011c91610568565b60208083015160408051600481526024810190915291820180517bffffffffffffffffffffffffffffffffffffffffffffffffffffffff167ffb969b0a0000000000000000000000000000000000000000000000000000000017905261018191610568565b6040517f9db64a400000000000000000000000000000000000000000000000000000000081523090639db64a40906101e0907f0ee8be1b000000000000000000000000000000000000000000000000000000009060009060040161098f565b600060405180830381600087803b1580156101fa57600080fd5b505af115801561020e573d6000803e3d6000fd5b50506040517ff2fde38b00000000000000000000000000000000000000000000000000000000815230925063f2fde38b915061024e90869060040161089a565b600060405180830381600087803b15801561026857600080fd5b505af115801561027c573d6000803e3d6000fd5b507fd150751b000000000000000000000000000000000000000000000000000000009695505050505050565b3373ffffffffffffffffffffffffffffffffffffffff7f00000000000000000000000000000000000000000000000000000000000000001614610320576040517f08c379a0000000000000000000000000000000000000000000000000000000008152600401610317906109d7565b60405180910390fd5b8073ffffffffffffffffffffffffffffffffffffffff16ff5b60003373ffffffffffffffffffffffffffffffffffffffff7f000000000000000000000000000000000000000000000000000000000000000016146103aa576040517f08c379a0000000000000000000000000000000000000000000000000000000008152600401610317906109d7565b6040516103b69061071a565b604051809103906000f0801580156103d2573d6000803e3d6000fd5b5090508073ffffffffffffffffffffffffffffffffffffffff166373f208d5306308cf793460e01b868660405160240161040d9291906108bb565b604080517fffffffffffffffffffffffffffffffffffffffffffffffffffffffffffffffe08184030181529181526020820180517bffffffffffffffffffffffffffffffffffffffffffffffffffffffff167fffffffff000000000000000000000000000000000000000000000000000000009485161790525160e085901b909216825261049e92916004016108f4565b600060405180830381600087803b1580156104b857600080fd5b505af11580156104cc573d6000803e3d6000fd5b50506040517fc9353cb500000000000000000000000000000000000000000000000000000000815230925063c9353cb5915061050c90869060040161089a565b600060405180830381600087803b15801561052657600080fd5b505af115801561053a573d6000803e3d6000fd5b5050505092915050565b7f000000000000000000000000000000000000000000000000000000000000000081565b600060608373ffffffffffffffffffffffffffffffffffffffff1683604051610591919061082f565b600060405180830381855af49150503d80600081146105cc576040519150601f19603f3d011682016040523d82523d6000602084013e6105d1565b606091505b50915091508115806105e557508051602014155b80610647575080517fd150751b000000000000000000000000000000000000000000000000000000009061062290830160209081019084016107ef565b7fffffffff000000000000000000000000000000000000000000000000000000001614155b1561065e5761065e6106598583610664565b610712565b50505050565b60606040516106729061084b565b6040518091039020838360405160240161068d9291906108f4565b604080517fffffffffffffffffffffffffffffffffffffffffffffffffffffffffffffffe08184030181529190526020810180517bffffffffffffffffffffffffffffffffffffffffffffffffffffffff167fffffffff0000000000000000000000000000000000000000000000000000000090931692909217909152905092915050565b805160208201fd5b610df180610a6083390190565b600060408284031215610738578081fd5b6040516040810181811067ffffffffffffffff82111715610757578283fd5b604052905080823561076881610a3a565b8152602083013561077881610a3a565b6020919091015292915050565b600060208284031215610796578081fd5b81356107a181610a3a565b9392505050565b600080606083850312156107ba578081fd5b82356107c581610a3a565b91506107d48460208501610727565b90509250929050565b600080606083850312156107ba578182fd5b600060208284031215610800578081fd5b81517fffffffff00000000000000000000000000000000000000000000000000000000811681146107a1578182fd5b60008251610841818460208701610a0e565b9190910192915050565b7f426f6f74737472617043616c6c4661696c65644572726f72286164647265737381527f2c62797465732900000000000000000000000000000000000000000000000000602082015260270190565b73ffffffffffffffffffffffffffffffffffffffff91909116815260200190565b73ffffffffffffffffffffffffffffffffffffffff92831681528151831660208083019190915290910151909116604082015260600190565b600073ffffffffffffffffffffffffffffffffffffffff8416825260406020830152825180604084015261092f816060850160208701610a0e565b601f017fffffffffffffffffffffffffffffffffffffffffffffffffffffffffffffffe016919091016060019392505050565b7fffffffff0000000000000000000000000000000000000000000000000000000091909116815260200190565b7fffffffff0000000000000000000000000000000000000000000000000000000092909216825273ffffffffffffffffffffffffffffffffffffffff16602082015260400190565b6020808252601f908201527f496e697469616c4d6967726174696f6e2f494e56414c49445f53454e44455200604082015260600190565b60005b83811015610a29578181015183820152602001610a11565b8381111561065e5750506000910152565b73ffffffffffffffffffffffffffffffffffffffff81168114610a5c57600080fd5b5056fe608060405234801561001057600080fd5b50600033604051610020906100cf565b61002a91906100dc565b604051809103906000f080158015610046573d6000803e3d6000fd5b5090508061005c61009760201b6102d41760201c565b6373f208d560e01b60009081526020919091526040902080546001600160a01b0319166001600160a01b0392909216919091179055506100f0565b6000806100ae60006100b460201b6102e71760201c565b92915050565b600060808260048111156100c457fe5b600101901b92915050565b610825806105cc83390190565b6001600160a01b0391909116815260200190565b6104cd806100ff6000396000f3fe6080604052600436106100225760003560e01c8063972fdd261461013e57610029565b3661002957005b6000610075600080368080601f016020809104026020016040519081016040528093929190818152602001838380828437600092019190915250929392505063ffffffff610174169050565b90506000610082826101c0565b905073ffffffffffffffffffffffffffffffffffffffff81166100b0576100b06100ab83610219565b6102c4565b600060608273ffffffffffffffffffffffffffffffffffffffff166000366040516100dc9291906103ee565b600060405180830381855af49150503d8060008114610117576040519150601f19603f3d011682016040523d82523d6000602084013e61011c565b606091505b50915091508161012f5761012f816102c4565b610138816102cc565b50505050005b34801561014a57600080fd5b5061015e6101593660046103a7565b6101c0565b60405161016b9190610427565b60405180910390f35b60008160040183511015610195576101956100ab6003855185600401610302565b5001602001517fffffffff000000000000000000000000000000000000000000000000000000001690565b60006101ca6102d4565b7fffffffff0000000000000000000000000000000000000000000000000000000092909216600090815260209290925250604090205473ffffffffffffffffffffffffffffffffffffffff1690565b6060604051610227906103fe565b6040518091039020826040516024016102409190610448565b604080517fffffffffffffffffffffffffffffffffffffffffffffffffffffffffffffffe08184030181529190526020810180517bffffffffffffffffffffffffffffffffffffffffffffffffffffffff167fffffffff00000000000000000000000000000000000000000000000000000000909316929092179091529050919050565b805160208201fd5b805160208201f35b6000806102e160006102e7565b92915050565b600060808260048111156102f757fe5b600101901b92915050565b6060632800659560e01b84848460405160240161032193929190610475565b604080517fffffffffffffffffffffffffffffffffffffffffffffffffffffffffffffffe08184030181529190526020810180517bffffffffffffffffffffffffffffffffffffffffffffffffffffffff167fffffffff000000000000000000000000000000000000000000000000000000009093169290921790915290509392505050565b6000602082840312156103b8578081fd5b81357fffffffff00000000000000000000000000000000000000000000000000000000811681146103e7578182fd5b9392505050565b6000828483379101908152919050565b7f4e6f74496d706c656d656e7465644572726f72286279746573342900000000008152601b0190565b73ffffffffffffffffffffffffffffffffffffffff91909116815260200190565b7fffffffff0000000000000000000000000000000000000000000000000000000091909116815260200190565b606081016008851061048357fe5b93815260208101929092526040909101529056fea26469706673582212201c6a33632aa53d272b4b5f85566445a4b77e2850500dcb9466842cca1b4d3d7364736f6c634300060a003360e060405234801561001057600080fd5b5060405161082538038061082583398101604081905261002f91610051565b33606090811b60805230811b60a0521b6001600160601b03191660c05261007f565b600060208284031215610062578081fd5b81516001600160a01b0381168114610078578182fd5b9392505050565b60805160601c60a05160601c60c05160601c61076a6100bb6000398060e252806101105250806101d752508060705280609e525061076a6000f3fe608060405234801561001057600080fd5b50600436106100365760003560e01c806335f469941461003b57806373f208d514610045575b600080fd5b610043610058565b005b61004361005336600461048d565b6100ca565b3373ffffffffffffffffffffffffffffffffffffffff7f000000000000000000000000000000000000000000000000000000000000000016146100c7576100c76100c2337f000000000000000000000000000000000000000000000000000000000000000061027b565b610329565b33ff5b3373ffffffffffffffffffffffffffffffffffffffff7f00000000000000000000000000000000000000000000000000000000000000001614610134576101346100c2337f0000000000000000000000000000000000000000000000000000000000000000610331565b600061013e61033f565b7f73f208d5000000000000000000000000000000000000000000000000000000006000908152602091909152604080822080547fffffffffffffffffffffffff00000000000000000000000000000000000000001673ffffffffffffffffffffffffffffffffffffffff94851617905580517f35f4699400000000000000000000000000000000000000000000000000000000815290517f0000000000000000000000000000000000000000000000000000000000000000909316926335f469949260048084019391929182900301818387803b15801561021e57600080fd5b505af1158015610232573d6000803e3d6000fd5b505050506102768383838080601f01602080910402602001604051908101604052809392919081815260200183838082843760009201919091525061035292505050565b505050565b606060405161028990610586565b604051809103902083836040516024016102a4929190610673565b604080517fffffffffffffffffffffffffffffffffffffffffffffffffffffffffffffffe08184030181529190526020810180517bffffffffffffffffffffffffffffffffffffffffffffffffffffffff167fffffffff0000000000000000000000000000000000000000000000000000000090931692909217909152905092915050565b805160208201fd5b6060604051610289906105d5565b60008061034c6000610449565b92915050565b600060608373ffffffffffffffffffffffffffffffffffffffff168360405161037b919061056a565b600060405180830381855af49150503d80600081146103b6576040519150601f19603f3d011682016040523d82523d6000602084013e6103bb565b606091505b50915091508115806103cf57508051602014155b80610431575080517fd150751b000000000000000000000000000000000000000000000000000000009061040c9083016020908101908401610523565b7fffffffff000000000000000000000000000000000000000000000000000000001614155b15610443576104436100c28583610464565b50505050565b6000608082600481111561045957fe5b600101901b92915050565b606060405161047290610624565b604051809103902083836040516024016102a492919061069a565b6000806000604084860312156104a1578283fd5b833573ffffffffffffffffffffffffffffffffffffffff811681146104c4578384fd5b9250602084013567ffffffffffffffff808211156104e0578384fd5b81860187601f8201126104f1578485fd5b8035925081831115610501578485fd5b876020848301011115610512578485fd5b949760209095019650909450505050565b600060208284031215610534578081fd5b81517fffffffff0000000000000000000000000000000000000000000000000000000081168114610563578182fd5b9392505050565b6000825161057c818460208701610708565b9190910192915050565b7f496e76616c696444696543616c6c65724572726f7228616464726573732c616481527f6472657373290000000000000000000000000000000000000000000000000000602082015260260190565b7f496e76616c6964426f6f74737472617043616c6c65724572726f72286164647281527f6573732c616464726573732900000000000000000000000000000000000000006020820152602c0190565b7f426f6f74737472617043616c6c4661696c65644572726f72286164647265737381527f2c62797465732900000000000000000000000000000000000000000000000000602082015260270190565b73ffffffffffffffffffffffffffffffffffffffff92831681529116602082015260400190565b600073ffffffffffffffffffffffffffffffffffffffff841682526040602083015282518060408401526106d5816060850160208701610708565b601f017fffffffffffffffffffffffffffffffffffffffffffffffffffffffffffffffe016919091016060019392505050565b60005b8381101561072357818101518382015260200161070b565b83811115610443575050600091015256fea26469706673582212201a61151226d6d9a933688cc4b3cb691c3dae899a5e985b7065b9ef15b7b22d8e64736f6c634300060a0033a264697066735822122000e3999b66f9ad5c613a3ac3f56a52a2eb8a487daa09ab0ef7a453ffe3eb368464736f6c634300060a0033",
                "opcodes": "PUSH1 0xC0 PUSH1 0x40 MSTORE CALLVALUE DUP1 ISZERO PUSH2 0x10 JUMPI PUSH1 0x0 DUP1 REVERT JUMPDEST POP PUSH1 0x40 MLOAD PUSH2 0x192E CODESIZE SUB DUP1 PUSH2 0x192E DUP4 CODECOPY DUP2 ADD PUSH1 0x40 DUP2 SWAP1 MSTORE PUSH2 0x2F SWAP2 PUSH2 0x4C JUMP JUMPDEST PUSH1 0x1 PUSH1 0x1 PUSH1 0x60 SHL SUB NOT PUSH1 0x60 SWAP2 DUP3 SHL AND PUSH1 0x80 MSTORE ADDRESS SWAP1 SHL PUSH1 0xA0 MSTORE PUSH2 0x7A JUMP JUMPDEST PUSH1 0x0 PUSH1 0x20 DUP3 DUP5 SUB SLT ISZERO PUSH2 0x5D JUMPI DUP1 DUP2 REVERT JUMPDEST DUP2 MLOAD PUSH1 0x1 PUSH1 0x1 PUSH1 0xA0 SHL SUB DUP2 AND DUP2 EQ PUSH2 0x73 JUMPI DUP2 DUP3 REVERT JUMPDEST SWAP4 SWAP3 POP POP POP JUMP JUMPDEST PUSH1 0x80 MLOAD PUSH1 0x60 SHR PUSH1 0xA0 MLOAD PUSH1 0x60 SHR PUSH2 0x1886 PUSH2 0xA8 PUSH1 0x0 CODECOPY DUP1 PUSH2 0x2C0 MSTORE POP DUP1 PUSH2 0x353 MSTORE DUP1 PUSH2 0x546 MSTORE POP PUSH2 0x1886 PUSH1 0x0 RETURN INVALID PUSH1 0x80 PUSH1 0x40 MSTORE CALLVALUE DUP1 ISZERO PUSH2 0x10 JUMPI PUSH1 0x0 DUP1 REVERT JUMPDEST POP PUSH1 0x4 CALLDATASIZE LT PUSH2 0x4C JUMPI PUSH1 0x0 CALLDATALOAD PUSH1 0xE0 SHR DUP1 PUSH4 0x8CF7934 EQ PUSH2 0x51 JUMPI DUP1 PUSH4 0xC9353CB5 EQ PUSH2 0x7A JUMPI DUP1 PUSH4 0xCCADF409 EQ PUSH2 0x8F JUMPI DUP1 PUSH4 0xD5F39488 EQ PUSH2 0xAF JUMPI JUMPDEST PUSH1 0x0 DUP1 REVERT JUMPDEST PUSH2 0x64 PUSH2 0x5F CALLDATASIZE PUSH1 0x4 PUSH2 0x7DD JUMP JUMPDEST PUSH2 0xB7 JUMP JUMPDEST PUSH1 0x40 MLOAD PUSH2 0x71 SWAP2 SWAP1 PUSH2 0x962 JUMP JUMPDEST PUSH1 0x40 MLOAD DUP1 SWAP2 SUB SWAP1 RETURN JUMPDEST PUSH2 0x8D PUSH2 0x88 CALLDATASIZE PUSH1 0x4 PUSH2 0x785 JUMP JUMPDEST PUSH2 0x2A8 JUMP JUMPDEST STOP JUMPDEST PUSH2 0xA2 PUSH2 0x9D CALLDATASIZE PUSH1 0x4 PUSH2 0x7A8 JUMP JUMPDEST PUSH2 0x339 JUMP JUMPDEST PUSH1 0x40 MLOAD PUSH2 0x71 SWAP2 SWAP1 PUSH2 0x89A JUMP JUMPDEST PUSH2 0xA2 PUSH2 0x544 JUMP JUMPDEST DUP1 MLOAD PUSH1 0x40 DUP1 MLOAD PUSH1 0x4 DUP2 MSTORE PUSH1 0x24 DUP2 ADD SWAP1 SWAP2 MSTORE PUSH1 0x20 DUP2 ADD DUP1 MLOAD PUSH28 0xFFFFFFFFFFFFFFFFFFFFFFFFFFFFFFFFFFFFFFFFFFFFFFFFFFFFFFFF AND PUSH32 0xFB969B0A00000000000000000000000000000000000000000000000000000000 OR SWAP1 MSTORE PUSH1 0x0 SWAP2 PUSH2 0x11C SWAP2 PUSH2 0x568 JUMP JUMPDEST PUSH1 0x20 DUP1 DUP4 ADD MLOAD PUSH1 0x40 DUP1 MLOAD PUSH1 0x4 DUP2 MSTORE PUSH1 0x24 DUP2 ADD SWAP1 SWAP2 MSTORE SWAP2 DUP3 ADD DUP1 MLOAD PUSH28 0xFFFFFFFFFFFFFFFFFFFFFFFFFFFFFFFFFFFFFFFFFFFFFFFFFFFFFFFF AND PUSH32 0xFB969B0A00000000000000000000000000000000000000000000000000000000 OR SWAP1 MSTORE PUSH2 0x181 SWAP2 PUSH2 0x568 JUMP JUMPDEST PUSH1 0x40 MLOAD PUSH32 0x9DB64A4000000000000000000000000000000000000000000000000000000000 DUP2 MSTORE ADDRESS SWAP1 PUSH4 0x9DB64A40 SWAP1 PUSH2 0x1E0 SWAP1 PUSH32 0xEE8BE1B00000000000000000000000000000000000000000000000000000000 SWAP1 PUSH1 0x0 SWAP1 PUSH1 0x4 ADD PUSH2 0x98F JUMP JUMPDEST PUSH1 0x0 PUSH1 0x40 MLOAD DUP1 DUP4 SUB DUP2 PUSH1 0x0 DUP8 DUP1 EXTCODESIZE ISZERO DUP1 ISZERO PUSH2 0x1FA JUMPI PUSH1 0x0 DUP1 REVERT JUMPDEST POP GAS CALL ISZERO DUP1 ISZERO PUSH2 0x20E JUMPI RETURNDATASIZE PUSH1 0x0 DUP1 RETURNDATACOPY RETURNDATASIZE PUSH1 0x0 REVERT JUMPDEST POP POP PUSH1 0x40 MLOAD PUSH32 0xF2FDE38B00000000000000000000000000000000000000000000000000000000 DUP2 MSTORE ADDRESS SWAP3 POP PUSH4 0xF2FDE38B SWAP2 POP PUSH2 0x24E SWAP1 DUP7 SWAP1 PUSH1 0x4 ADD PUSH2 0x89A JUMP JUMPDEST PUSH1 0x0 PUSH1 0x40 MLOAD DUP1 DUP4 SUB DUP2 PUSH1 0x0 DUP8 DUP1 EXTCODESIZE ISZERO DUP1 ISZERO PUSH2 0x268 JUMPI PUSH1 0x0 DUP1 REVERT JUMPDEST POP GAS CALL ISZERO DUP1 ISZERO PUSH2 0x27C JUMPI RETURNDATASIZE PUSH1 0x0 DUP1 RETURNDATACOPY RETURNDATASIZE PUSH1 0x0 REVERT JUMPDEST POP PUSH32 0xD150751B00000000000000000000000000000000000000000000000000000000 SWAP7 SWAP6 POP POP POP POP POP POP JUMP JUMPDEST CALLER PUSH20 0xFFFFFFFFFFFFFFFFFFFFFFFFFFFFFFFFFFFFFFFF PUSH32 0x0 AND EQ PUSH2 0x320 JUMPI PUSH1 0x40 MLOAD PUSH32 0x8C379A000000000000000000000000000000000000000000000000000000000 DUP2 MSTORE PUSH1 0x4 ADD PUSH2 0x317 SWAP1 PUSH2 0x9D7 JUMP JUMPDEST PUSH1 0x40 MLOAD DUP1 SWAP2 SUB SWAP1 REVERT JUMPDEST DUP1 PUSH20 0xFFFFFFFFFFFFFFFFFFFFFFFFFFFFFFFFFFFFFFFF AND SELFDESTRUCT JUMPDEST PUSH1 0x0 CALLER PUSH20 0xFFFFFFFFFFFFFFFFFFFFFFFFFFFFFFFFFFFFFFFF PUSH32 0x0 AND EQ PUSH2 0x3AA JUMPI PUSH1 0x40 MLOAD PUSH32 0x8C379A000000000000000000000000000000000000000000000000000000000 DUP2 MSTORE PUSH1 0x4 ADD PUSH2 0x317 SWAP1 PUSH2 0x9D7 JUMP JUMPDEST PUSH1 0x40 MLOAD PUSH2 0x3B6 SWAP1 PUSH2 0x71A JUMP JUMPDEST PUSH1 0x40 MLOAD DUP1 SWAP2 SUB SWAP1 PUSH1 0x0 CREATE DUP1 ISZERO DUP1 ISZERO PUSH2 0x3D2 JUMPI RETURNDATASIZE PUSH1 0x0 DUP1 RETURNDATACOPY RETURNDATASIZE PUSH1 0x0 REVERT JUMPDEST POP SWAP1 POP DUP1 PUSH20 0xFFFFFFFFFFFFFFFFFFFFFFFFFFFFFFFFFFFFFFFF AND PUSH4 0x73F208D5 ADDRESS PUSH4 0x8CF7934 PUSH1 0xE0 SHL DUP7 DUP7 PUSH1 0x40 MLOAD PUSH1 0x24 ADD PUSH2 0x40D SWAP3 SWAP2 SWAP1 PUSH2 0x8BB JUMP JUMPDEST PUSH1 0x40 DUP1 MLOAD PUSH32 0xFFFFFFFFFFFFFFFFFFFFFFFFFFFFFFFFFFFFFFFFFFFFFFFFFFFFFFFFFFFFFFE0 DUP2 DUP5 SUB ADD DUP2 MSTORE SWAP2 DUP2 MSTORE PUSH1 0x20 DUP3 ADD DUP1 MLOAD PUSH28 0xFFFFFFFFFFFFFFFFFFFFFFFFFFFFFFFFFFFFFFFFFFFFFFFFFFFFFFFF AND PUSH32 0xFFFFFFFF00000000000000000000000000000000000000000000000000000000 SWAP5 DUP6 AND OR SWAP1 MSTORE MLOAD PUSH1 0xE0 DUP6 SWAP1 SHL SWAP1 SWAP3 AND DUP3 MSTORE PUSH2 0x49E SWAP3 SWAP2 PUSH1 0x4 ADD PUSH2 0x8F4 JUMP JUMPDEST PUSH1 0x0 PUSH1 0x40 MLOAD DUP1 DUP4 SUB DUP2 PUSH1 0x0 DUP8 DUP1 EXTCODESIZE ISZERO DUP1 ISZERO PUSH2 0x4B8 JUMPI PUSH1 0x0 DUP1 REVERT JUMPDEST POP GAS CALL ISZERO DUP1 ISZERO PUSH2 0x4CC JUMPI RETURNDATASIZE PUSH1 0x0 DUP1 RETURNDATACOPY RETURNDATASIZE PUSH1 0x0 REVERT JUMPDEST POP POP PUSH1 0x40 MLOAD PUSH32 0xC9353CB500000000000000000000000000000000000000000000000000000000 DUP2 MSTORE ADDRESS SWAP3 POP PUSH4 0xC9353CB5 SWAP2 POP PUSH2 0x50C SWAP1 DUP7 SWAP1 PUSH1 0x4 ADD PUSH2 0x89A JUMP JUMPDEST PUSH1 0x0 PUSH1 0x40 MLOAD DUP1 DUP4 SUB DUP2 PUSH1 0x0 DUP8 DUP1 EXTCODESIZE ISZERO DUP1 ISZERO PUSH2 0x526 JUMPI PUSH1 0x0 DUP1 REVERT JUMPDEST POP GAS CALL ISZERO DUP1 ISZERO PUSH2 0x53A JUMPI RETURNDATASIZE PUSH1 0x0 DUP1 RETURNDATACOPY RETURNDATASIZE PUSH1 0x0 REVERT JUMPDEST POP POP POP POP SWAP3 SWAP2 POP POP JUMP JUMPDEST PUSH32 0x0 DUP2 JUMP JUMPDEST PUSH1 0x0 PUSH1 0x60 DUP4 PUSH20 0xFFFFFFFFFFFFFFFFFFFFFFFFFFFFFFFFFFFFFFFF AND DUP4 PUSH1 0x40 MLOAD PUSH2 0x591 SWAP2 SWAP1 PUSH2 0x82F JUMP JUMPDEST PUSH1 0x0 PUSH1 0x40 MLOAD DUP1 DUP4 SUB DUP2 DUP6 GAS DELEGATECALL SWAP2 POP POP RETURNDATASIZE DUP1 PUSH1 0x0 DUP2 EQ PUSH2 0x5CC JUMPI PUSH1 0x40 MLOAD SWAP2 POP PUSH1 0x1F NOT PUSH1 0x3F RETURNDATASIZE ADD AND DUP3 ADD PUSH1 0x40 MSTORE RETURNDATASIZE DUP3 MSTORE RETURNDATASIZE PUSH1 0x0 PUSH1 0x20 DUP5 ADD RETURNDATACOPY PUSH2 0x5D1 JUMP JUMPDEST PUSH1 0x60 SWAP2 POP JUMPDEST POP SWAP2 POP SWAP2 POP DUP2 ISZERO DUP1 PUSH2 0x5E5 JUMPI POP DUP1 MLOAD PUSH1 0x20 EQ ISZERO JUMPDEST DUP1 PUSH2 0x647 JUMPI POP DUP1 MLOAD PUSH32 0xD150751B00000000000000000000000000000000000000000000000000000000 SWAP1 PUSH2 0x622 SWAP1 DUP4 ADD PUSH1 0x20 SWAP1 DUP2 ADD SWAP1 DUP5 ADD PUSH2 0x7EF JUMP JUMPDEST PUSH32 0xFFFFFFFF00000000000000000000000000000000000000000000000000000000 AND EQ ISZERO JUMPDEST ISZERO PUSH2 0x65E JUMPI PUSH2 0x65E PUSH2 0x659 DUP6 DUP4 PUSH2 0x664 JUMP JUMPDEST PUSH2 0x712 JUMP JUMPDEST POP POP POP POP JUMP JUMPDEST PUSH1 0x60 PUSH1 0x40 MLOAD PUSH2 0x672 SWAP1 PUSH2 0x84B JUMP JUMPDEST PUSH1 0x40 MLOAD DUP1 SWAP2 SUB SWAP1 KECCAK256 DUP4 DUP4 PUSH1 0x40 MLOAD PUSH1 0x24 ADD PUSH2 0x68D SWAP3 SWAP2 SWAP1 PUSH2 0x8F4 JUMP JUMPDEST PUSH1 0x40 DUP1 MLOAD PUSH32 0xFFFFFFFFFFFFFFFFFFFFFFFFFFFFFFFFFFFFFFFFFFFFFFFFFFFFFFFFFFFFFFE0 DUP2 DUP5 SUB ADD DUP2 MSTORE SWAP2 SWAP1 MSTORE PUSH1 0x20 DUP2 ADD DUP1 MLOAD PUSH28 0xFFFFFFFFFFFFFFFFFFFFFFFFFFFFFFFFFFFFFFFFFFFFFFFFFFFFFFFF AND PUSH32 0xFFFFFFFF00000000000000000000000000000000000000000000000000000000 SWAP1 SWAP4 AND SWAP3 SWAP1 SWAP3 OR SWAP1 SWAP2 MSTORE SWAP1 POP SWAP3 SWAP2 POP POP JUMP JUMPDEST DUP1 MLOAD PUSH1 0x20 DUP3 ADD REVERT JUMPDEST PUSH2 0xDF1 DUP1 PUSH2 0xA60 DUP4 CODECOPY ADD SWAP1 JUMP JUMPDEST PUSH1 0x0 PUSH1 0x40 DUP3 DUP5 SUB SLT ISZERO PUSH2 0x738 JUMPI DUP1 DUP2 REVERT JUMPDEST PUSH1 0x40 MLOAD PUSH1 0x40 DUP2 ADD DUP2 DUP2 LT PUSH8 0xFFFFFFFFFFFFFFFF DUP3 GT OR ISZERO PUSH2 0x757 JUMPI DUP3 DUP4 REVERT JUMPDEST PUSH1 0x40 MSTORE SWAP1 POP DUP1 DUP3 CALLDATALOAD PUSH2 0x768 DUP2 PUSH2 0xA3A JUMP JUMPDEST DUP2 MSTORE PUSH1 0x20 DUP4 ADD CALLDATALOAD PUSH2 0x778 DUP2 PUSH2 0xA3A JUMP JUMPDEST PUSH1 0x20 SWAP2 SWAP1 SWAP2 ADD MSTORE SWAP3 SWAP2 POP POP JUMP JUMPDEST PUSH1 0x0 PUSH1 0x20 DUP3 DUP5 SUB SLT ISZERO PUSH2 0x796 JUMPI DUP1 DUP2 REVERT JUMPDEST DUP2 CALLDATALOAD PUSH2 0x7A1 DUP2 PUSH2 0xA3A JUMP JUMPDEST SWAP4 SWAP3 POP POP POP JUMP JUMPDEST PUSH1 0x0 DUP1 PUSH1 0x60 DUP4 DUP6 SUB SLT ISZERO PUSH2 0x7BA JUMPI DUP1 DUP2 REVERT JUMPDEST DUP3 CALLDATALOAD PUSH2 0x7C5 DUP2 PUSH2 0xA3A JUMP JUMPDEST SWAP2 POP PUSH2 0x7D4 DUP5 PUSH1 0x20 DUP6 ADD PUSH2 0x727 JUMP JUMPDEST SWAP1 POP SWAP3 POP SWAP3 SWAP1 POP JUMP JUMPDEST PUSH1 0x0 DUP1 PUSH1 0x60 DUP4 DUP6 SUB SLT ISZERO PUSH2 0x7BA JUMPI DUP2 DUP3 REVERT JUMPDEST PUSH1 0x0 PUSH1 0x20 DUP3 DUP5 SUB SLT ISZERO PUSH2 0x800 JUMPI DUP1 DUP2 REVERT JUMPDEST DUP2 MLOAD PUSH32 0xFFFFFFFF00000000000000000000000000000000000000000000000000000000 DUP2 AND DUP2 EQ PUSH2 0x7A1 JUMPI DUP2 DUP3 REVERT JUMPDEST PUSH1 0x0 DUP3 MLOAD PUSH2 0x841 DUP2 DUP5 PUSH1 0x20 DUP8 ADD PUSH2 0xA0E JUMP JUMPDEST SWAP2 SWAP1 SWAP2 ADD SWAP3 SWAP2 POP POP JUMP JUMPDEST PUSH32 0x426F6F74737472617043616C6C4661696C65644572726F722861646472657373 DUP2 MSTORE PUSH32 0x2C62797465732900000000000000000000000000000000000000000000000000 PUSH1 0x20 DUP3 ADD MSTORE PUSH1 0x27 ADD SWAP1 JUMP JUMPDEST PUSH20 0xFFFFFFFFFFFFFFFFFFFFFFFFFFFFFFFFFFFFFFFF SWAP2 SWAP1 SWAP2 AND DUP2 MSTORE PUSH1 0x20 ADD SWAP1 JUMP JUMPDEST PUSH20 0xFFFFFFFFFFFFFFFFFFFFFFFFFFFFFFFFFFFFFFFF SWAP3 DUP4 AND DUP2 MSTORE DUP2 MLOAD DUP4 AND PUSH1 0x20 DUP1 DUP4 ADD SWAP2 SWAP1 SWAP2 MSTORE SWAP1 SWAP2 ADD MLOAD SWAP1 SWAP2 AND PUSH1 0x40 DUP3 ADD MSTORE PUSH1 0x60 ADD SWAP1 JUMP JUMPDEST PUSH1 0x0 PUSH20 0xFFFFFFFFFFFFFFFFFFFFFFFFFFFFFFFFFFFFFFFF DUP5 AND DUP3 MSTORE PUSH1 0x40 PUSH1 0x20 DUP4 ADD MSTORE DUP3 MLOAD DUP1 PUSH1 0x40 DUP5 ADD MSTORE PUSH2 0x92F DUP2 PUSH1 0x60 DUP6 ADD PUSH1 0x20 DUP8 ADD PUSH2 0xA0E JUMP JUMPDEST PUSH1 0x1F ADD PUSH32 0xFFFFFFFFFFFFFFFFFFFFFFFFFFFFFFFFFFFFFFFFFFFFFFFFFFFFFFFFFFFFFFE0 AND SWAP2 SWAP1 SWAP2 ADD PUSH1 0x60 ADD SWAP4 SWAP3 POP POP POP JUMP JUMPDEST PUSH32 0xFFFFFFFF00000000000000000000000000000000000000000000000000000000 SWAP2 SWAP1 SWAP2 AND DUP2 MSTORE PUSH1 0x20 ADD SWAP1 JUMP JUMPDEST PUSH32 0xFFFFFFFF00000000000000000000000000000000000000000000000000000000 SWAP3 SWAP1 SWAP3 AND DUP3 MSTORE PUSH20 0xFFFFFFFFFFFFFFFFFFFFFFFFFFFFFFFFFFFFFFFF AND PUSH1 0x20 DUP3 ADD MSTORE PUSH1 0x40 ADD SWAP1 JUMP JUMPDEST PUSH1 0x20 DUP1 DUP3 MSTORE PUSH1 0x1F SWAP1 DUP3 ADD MSTORE PUSH32 0x496E697469616C4D6967726174696F6E2F494E56414C49445F53454E44455200 PUSH1 0x40 DUP3 ADD MSTORE PUSH1 0x60 ADD SWAP1 JUMP JUMPDEST PUSH1 0x0 JUMPDEST DUP4 DUP2 LT ISZERO PUSH2 0xA29 JUMPI DUP2 DUP2 ADD MLOAD DUP4 DUP3 ADD MSTORE PUSH1 0x20 ADD PUSH2 0xA11 JUMP JUMPDEST DUP4 DUP2 GT ISZERO PUSH2 0x65E JUMPI POP POP PUSH1 0x0 SWAP2 ADD MSTORE JUMP JUMPDEST PUSH20 0xFFFFFFFFFFFFFFFFFFFFFFFFFFFFFFFFFFFFFFFF DUP2 AND DUP2 EQ PUSH2 0xA5C JUMPI PUSH1 0x0 DUP1 REVERT JUMPDEST POP JUMP INVALID PUSH1 0x80 PUSH1 0x40 MSTORE CALLVALUE DUP1 ISZERO PUSH2 0x10 JUMPI PUSH1 0x0 DUP1 REVERT JUMPDEST POP PUSH1 0x0 CALLER PUSH1 0x40 MLOAD PUSH2 0x20 SWAP1 PUSH2 0xCF JUMP JUMPDEST PUSH2 0x2A SWAP2 SWAP1 PUSH2 0xDC JUMP JUMPDEST PUSH1 0x40 MLOAD DUP1 SWAP2 SUB SWAP1 PUSH1 0x0 CREATE DUP1 ISZERO DUP1 ISZERO PUSH2 0x46 JUMPI RETURNDATASIZE PUSH1 0x0 DUP1 RETURNDATACOPY RETURNDATASIZE PUSH1 0x0 REVERT JUMPDEST POP SWAP1 POP DUP1 PUSH2 0x5C PUSH2 0x97 PUSH1 0x20 SHL PUSH2 0x2D4 OR PUSH1 0x20 SHR JUMP JUMPDEST PUSH4 0x73F208D5 PUSH1 0xE0 SHL PUSH1 0x0 SWAP1 DUP2 MSTORE PUSH1 0x20 SWAP2 SWAP1 SWAP2 MSTORE PUSH1 0x40 SWAP1 KECCAK256 DUP1 SLOAD PUSH1 0x1 PUSH1 0x1 PUSH1 0xA0 SHL SUB NOT AND PUSH1 0x1 PUSH1 0x1 PUSH1 0xA0 SHL SUB SWAP3 SWAP1 SWAP3 AND SWAP2 SWAP1 SWAP2 OR SWAP1 SSTORE POP PUSH2 0xF0 JUMP JUMPDEST PUSH1 0x0 DUP1 PUSH2 0xAE PUSH1 0x0 PUSH2 0xB4 PUSH1 0x20 SHL PUSH2 0x2E7 OR PUSH1 0x20 SHR JUMP JUMPDEST SWAP3 SWAP2 POP POP JUMP JUMPDEST PUSH1 0x0 PUSH1 0x80 DUP3 PUSH1 0x4 DUP2 GT ISZERO PUSH2 0xC4 JUMPI INVALID JUMPDEST PUSH1 0x1 ADD SWAP1 SHL SWAP3 SWAP2 POP POP JUMP JUMPDEST PUSH2 0x825 DUP1 PUSH2 0x5CC DUP4 CODECOPY ADD SWAP1 JUMP JUMPDEST PUSH1 0x1 PUSH1 0x1 PUSH1 0xA0 SHL SUB SWAP2 SWAP1 SWAP2 AND DUP2 MSTORE PUSH1 0x20 ADD SWAP1 JUMP JUMPDEST PUSH2 0x4CD DUP1 PUSH2 0xFF PUSH1 0x0 CODECOPY PUSH1 0x0 RETURN INVALID PUSH1 0x80 PUSH1 0x40 MSTORE PUSH1 0x4 CALLDATASIZE LT PUSH2 0x22 JUMPI PUSH1 0x0 CALLDATALOAD PUSH1 0xE0 SHR DUP1 PUSH4 0x972FDD26 EQ PUSH2 0x13E JUMPI PUSH2 0x29 JUMP JUMPDEST CALLDATASIZE PUSH2 0x29 JUMPI STOP JUMPDEST PUSH1 0x0 PUSH2 0x75 PUSH1 0x0 DUP1 CALLDATASIZE DUP1 DUP1 PUSH1 0x1F ADD PUSH1 0x20 DUP1 SWAP2 DIV MUL PUSH1 0x20 ADD PUSH1 0x40 MLOAD SWAP1 DUP2 ADD PUSH1 0x40 MSTORE DUP1 SWAP4 SWAP3 SWAP2 SWAP1 DUP2 DUP2 MSTORE PUSH1 0x20 ADD DUP4 DUP4 DUP1 DUP3 DUP5 CALLDATACOPY PUSH1 0x0 SWAP3 ADD SWAP2 SWAP1 SWAP2 MSTORE POP SWAP3 SWAP4 SWAP3 POP POP PUSH4 0xFFFFFFFF PUSH2 0x174 AND SWAP1 POP JUMP JUMPDEST SWAP1 POP PUSH1 0x0 PUSH2 0x82 DUP3 PUSH2 0x1C0 JUMP JUMPDEST SWAP1 POP PUSH20 0xFFFFFFFFFFFFFFFFFFFFFFFFFFFFFFFFFFFFFFFF DUP2 AND PUSH2 0xB0 JUMPI PUSH2 0xB0 PUSH2 0xAB DUP4 PUSH2 0x219 JUMP JUMPDEST PUSH2 0x2C4 JUMP JUMPDEST PUSH1 0x0 PUSH1 0x60 DUP3 PUSH20 0xFFFFFFFFFFFFFFFFFFFFFFFFFFFFFFFFFFFFFFFF AND PUSH1 0x0 CALLDATASIZE PUSH1 0x40 MLOAD PUSH2 0xDC SWAP3 SWAP2 SWAP1 PUSH2 0x3EE JUMP JUMPDEST PUSH1 0x0 PUSH1 0x40 MLOAD DUP1 DUP4 SUB DUP2 DUP6 GAS DELEGATECALL SWAP2 POP POP RETURNDATASIZE DUP1 PUSH1 0x0 DUP2 EQ PUSH2 0x117 JUMPI PUSH1 0x40 MLOAD SWAP2 POP PUSH1 0x1F NOT PUSH1 0x3F RETURNDATASIZE ADD AND DUP3 ADD PUSH1 0x40 MSTORE RETURNDATASIZE DUP3 MSTORE RETURNDATASIZE PUSH1 0x0 PUSH1 0x20 DUP5 ADD RETURNDATACOPY PUSH2 0x11C JUMP JUMPDEST PUSH1 0x60 SWAP2 POP JUMPDEST POP SWAP2 POP SWAP2 POP DUP2 PUSH2 0x12F JUMPI PUSH2 0x12F DUP2 PUSH2 0x2C4 JUMP JUMPDEST PUSH2 0x138 DUP2 PUSH2 0x2CC JUMP JUMPDEST POP POP POP POP STOP JUMPDEST CALLVALUE DUP1 ISZERO PUSH2 0x14A JUMPI PUSH1 0x0 DUP1 REVERT JUMPDEST POP PUSH2 0x15E PUSH2 0x159 CALLDATASIZE PUSH1 0x4 PUSH2 0x3A7 JUMP JUMPDEST PUSH2 0x1C0 JUMP JUMPDEST PUSH1 0x40 MLOAD PUSH2 0x16B SWAP2 SWAP1 PUSH2 0x427 JUMP JUMPDEST PUSH1 0x40 MLOAD DUP1 SWAP2 SUB SWAP1 RETURN JUMPDEST PUSH1 0x0 DUP2 PUSH1 0x4 ADD DUP4 MLOAD LT ISZERO PUSH2 0x195 JUMPI PUSH2 0x195 PUSH2 0xAB PUSH1 0x3 DUP6 MLOAD DUP6 PUSH1 0x4 ADD PUSH2 0x302 JUMP JUMPDEST POP ADD PUSH1 0x20 ADD MLOAD PUSH32 0xFFFFFFFF00000000000000000000000000000000000000000000000000000000 AND SWAP1 JUMP JUMPDEST PUSH1 0x0 PUSH2 0x1CA PUSH2 0x2D4 JUMP JUMPDEST PUSH32 0xFFFFFFFF00000000000000000000000000000000000000000000000000000000 SWAP3 SWAP1 SWAP3 AND PUSH1 0x0 SWAP1 DUP2 MSTORE PUSH1 0x20 SWAP3 SWAP1 SWAP3 MSTORE POP PUSH1 0x40 SWAP1 KECCAK256 SLOAD PUSH20 0xFFFFFFFFFFFFFFFFFFFFFFFFFFFFFFFFFFFFFFFF AND SWAP1 JUMP JUMPDEST PUSH1 0x60 PUSH1 0x40 MLOAD PUSH2 0x227 SWAP1 PUSH2 0x3FE JUMP JUMPDEST PUSH1 0x40 MLOAD DUP1 SWAP2 SUB SWAP1 KECCAK256 DUP3 PUSH1 0x40 MLOAD PUSH1 0x24 ADD PUSH2 0x240 SWAP2 SWAP1 PUSH2 0x448 JUMP JUMPDEST PUSH1 0x40 DUP1 MLOAD PUSH32 0xFFFFFFFFFFFFFFFFFFFFFFFFFFFFFFFFFFFFFFFFFFFFFFFFFFFFFFFFFFFFFFE0 DUP2 DUP5 SUB ADD DUP2 MSTORE SWAP2 SWAP1 MSTORE PUSH1 0x20 DUP2 ADD DUP1 MLOAD PUSH28 0xFFFFFFFFFFFFFFFFFFFFFFFFFFFFFFFFFFFFFFFFFFFFFFFFFFFFFFFF AND PUSH32 0xFFFFFFFF00000000000000000000000000000000000000000000000000000000 SWAP1 SWAP4 AND SWAP3 SWAP1 SWAP3 OR SWAP1 SWAP2 MSTORE SWAP1 POP SWAP2 SWAP1 POP JUMP JUMPDEST DUP1 MLOAD PUSH1 0x20 DUP3 ADD REVERT JUMPDEST DUP1 MLOAD PUSH1 0x20 DUP3 ADD RETURN JUMPDEST PUSH1 0x0 DUP1 PUSH2 0x2E1 PUSH1 0x0 PUSH2 0x2E7 JUMP JUMPDEST SWAP3 SWAP2 POP POP JUMP JUMPDEST PUSH1 0x0 PUSH1 0x80 DUP3 PUSH1 0x4 DUP2 GT ISZERO PUSH2 0x2F7 JUMPI INVALID JUMPDEST PUSH1 0x1 ADD SWAP1 SHL SWAP3 SWAP2 POP POP JUMP JUMPDEST PUSH1 0x60 PUSH4 0x28006595 PUSH1 0xE0 SHL DUP5 DUP5 DUP5 PUSH1 0x40 MLOAD PUSH1 0x24 ADD PUSH2 0x321 SWAP4 SWAP3 SWAP2 SWAP1 PUSH2 0x475 JUMP JUMPDEST PUSH1 0x40 DUP1 MLOAD PUSH32 0xFFFFFFFFFFFFFFFFFFFFFFFFFFFFFFFFFFFFFFFFFFFFFFFFFFFFFFFFFFFFFFE0 DUP2 DUP5 SUB ADD DUP2 MSTORE SWAP2 SWAP1 MSTORE PUSH1 0x20 DUP2 ADD DUP1 MLOAD PUSH28 0xFFFFFFFFFFFFFFFFFFFFFFFFFFFFFFFFFFFFFFFFFFFFFFFFFFFFFFFF AND PUSH32 0xFFFFFFFF00000000000000000000000000000000000000000000000000000000 SWAP1 SWAP4 AND SWAP3 SWAP1 SWAP3 OR SWAP1 SWAP2 MSTORE SWAP1 POP SWAP4 SWAP3 POP POP POP JUMP JUMPDEST PUSH1 0x0 PUSH1 0x20 DUP3 DUP5 SUB SLT ISZERO PUSH2 0x3B8 JUMPI DUP1 DUP2 REVERT JUMPDEST DUP2 CALLDATALOAD PUSH32 0xFFFFFFFF00000000000000000000000000000000000000000000000000000000 DUP2 AND DUP2 EQ PUSH2 0x3E7 JUMPI DUP2 DUP3 REVERT JUMPDEST SWAP4 SWAP3 POP POP POP JUMP JUMPDEST PUSH1 0x0 DUP3 DUP5 DUP4 CALLDATACOPY SWAP2 ADD SWAP1 DUP2 MSTORE SWAP2 SWAP1 POP JUMP JUMPDEST PUSH32 0x4E6F74496D706C656D656E7465644572726F7228627974657334290000000000 DUP2 MSTORE PUSH1 0x1B ADD SWAP1 JUMP JUMPDEST PUSH20 0xFFFFFFFFFFFFFFFFFFFFFFFFFFFFFFFFFFFFFFFF SWAP2 SWAP1 SWAP2 AND DUP2 MSTORE PUSH1 0x20 ADD SWAP1 JUMP JUMPDEST PUSH32 0xFFFFFFFF00000000000000000000000000000000000000000000000000000000 SWAP2 SWAP1 SWAP2 AND DUP2 MSTORE PUSH1 0x20 ADD SWAP1 JUMP JUMPDEST PUSH1 0x60 DUP2 ADD PUSH1 0x8 DUP6 LT PUSH2 0x483 JUMPI INVALID JUMPDEST SWAP4 DUP2 MSTORE PUSH1 0x20 DUP2 ADD SWAP3 SWAP1 SWAP3 MSTORE PUSH1 0x40 SWAP1 SWAP2 ADD MSTORE SWAP1 JUMP INVALID LOG2 PUSH5 0x6970667358 0x22 SLT KECCAK256 SHR PUSH11 0x33632AA53D272B4B5F8556 PUSH5 0x45A4B77E28 POP POP 0xD 0xCB SWAP5 PUSH7 0x842CCA1B4D3D73 PUSH5 0x736F6C6343 STOP MOD EXP STOP CALLER PUSH1 0xE0 PUSH1 0x40 MSTORE CALLVALUE DUP1 ISZERO PUSH2 0x10 JUMPI PUSH1 0x0 DUP1 REVERT JUMPDEST POP PUSH1 0x40 MLOAD PUSH2 0x825 CODESIZE SUB DUP1 PUSH2 0x825 DUP4 CODECOPY DUP2 ADD PUSH1 0x40 DUP2 SWAP1 MSTORE PUSH2 0x2F SWAP2 PUSH2 0x51 JUMP JUMPDEST CALLER PUSH1 0x60 SWAP1 DUP2 SHL PUSH1 0x80 MSTORE ADDRESS DUP2 SHL PUSH1 0xA0 MSTORE SHL PUSH1 0x1 PUSH1 0x1 PUSH1 0x60 SHL SUB NOT AND PUSH1 0xC0 MSTORE PUSH2 0x7F JUMP JUMPDEST PUSH1 0x0 PUSH1 0x20 DUP3 DUP5 SUB SLT ISZERO PUSH2 0x62 JUMPI DUP1 DUP2 REVERT JUMPDEST DUP2 MLOAD PUSH1 0x1 PUSH1 0x1 PUSH1 0xA0 SHL SUB DUP2 AND DUP2 EQ PUSH2 0x78 JUMPI DUP2 DUP3 REVERT JUMPDEST SWAP4 SWAP3 POP POP POP JUMP JUMPDEST PUSH1 0x80 MLOAD PUSH1 0x60 SHR PUSH1 0xA0 MLOAD PUSH1 0x60 SHR PUSH1 0xC0 MLOAD PUSH1 0x60 SHR PUSH2 0x76A PUSH2 0xBB PUSH1 0x0 CODECOPY DUP1 PUSH1 0xE2 MSTORE DUP1 PUSH2 0x110 MSTORE POP DUP1 PUSH2 0x1D7 MSTORE POP DUP1 PUSH1 0x70 MSTORE DUP1 PUSH1 0x9E MSTORE POP PUSH2 0x76A PUSH1 0x0 RETURN INVALID PUSH1 0x80 PUSH1 0x40 MSTORE CALLVALUE DUP1 ISZERO PUSH2 0x10 JUMPI PUSH1 0x0 DUP1 REVERT JUMPDEST POP PUSH1 0x4 CALLDATASIZE LT PUSH2 0x36 JUMPI PUSH1 0x0 CALLDATALOAD PUSH1 0xE0 SHR DUP1 PUSH4 0x35F46994 EQ PUSH2 0x3B JUMPI DUP1 PUSH4 0x73F208D5 EQ PUSH2 0x45 JUMPI JUMPDEST PUSH1 0x0 DUP1 REVERT JUMPDEST PUSH2 0x43 PUSH2 0x58 JUMP JUMPDEST STOP JUMPDEST PUSH2 0x43 PUSH2 0x53 CALLDATASIZE PUSH1 0x4 PUSH2 0x48D JUMP JUMPDEST PUSH2 0xCA JUMP JUMPDEST CALLER PUSH20 0xFFFFFFFFFFFFFFFFFFFFFFFFFFFFFFFFFFFFFFFF PUSH32 0x0 AND EQ PUSH2 0xC7 JUMPI PUSH2 0xC7 PUSH2 0xC2 CALLER PUSH32 0x0 PUSH2 0x27B JUMP JUMPDEST PUSH2 0x329 JUMP JUMPDEST CALLER SELFDESTRUCT JUMPDEST CALLER PUSH20 0xFFFFFFFFFFFFFFFFFFFFFFFFFFFFFFFFFFFFFFFF PUSH32 0x0 AND EQ PUSH2 0x134 JUMPI PUSH2 0x134 PUSH2 0xC2 CALLER PUSH32 0x0 PUSH2 0x331 JUMP JUMPDEST PUSH1 0x0 PUSH2 0x13E PUSH2 0x33F JUMP JUMPDEST PUSH32 0x73F208D500000000000000000000000000000000000000000000000000000000 PUSH1 0x0 SWAP1 DUP2 MSTORE PUSH1 0x20 SWAP2 SWAP1 SWAP2 MSTORE PUSH1 0x40 DUP1 DUP3 KECCAK256 DUP1 SLOAD PUSH32 0xFFFFFFFFFFFFFFFFFFFFFFFF0000000000000000000000000000000000000000 AND PUSH20 0xFFFFFFFFFFFFFFFFFFFFFFFFFFFFFFFFFFFFFFFF SWAP5 DUP6 AND OR SWAP1 SSTORE DUP1 MLOAD PUSH32 0x35F4699400000000000000000000000000000000000000000000000000000000 DUP2 MSTORE SWAP1 MLOAD PUSH32 0x0 SWAP1 SWAP4 AND SWAP3 PUSH4 0x35F46994 SWAP3 PUSH1 0x4 DUP1 DUP5 ADD SWAP4 SWAP2 SWAP3 SWAP2 DUP3 SWAP1 SUB ADD DUP2 DUP4 DUP8 DUP1 EXTCODESIZE ISZERO DUP1 ISZERO PUSH2 0x21E JUMPI PUSH1 0x0 DUP1 REVERT JUMPDEST POP GAS CALL ISZERO DUP1 ISZERO PUSH2 0x232 JUMPI RETURNDATASIZE PUSH1 0x0 DUP1 RETURNDATACOPY RETURNDATASIZE PUSH1 0x0 REVERT JUMPDEST POP POP POP POP PUSH2 0x276 DUP4 DUP4 DUP4 DUP1 DUP1 PUSH1 0x1F ADD PUSH1 0x20 DUP1 SWAP2 DIV MUL PUSH1 0x20 ADD PUSH1 0x40 MLOAD SWAP1 DUP2 ADD PUSH1 0x40 MSTORE DUP1 SWAP4 SWAP3 SWAP2 SWAP1 DUP2 DUP2 MSTORE PUSH1 0x20 ADD DUP4 DUP4 DUP1 DUP3 DUP5 CALLDATACOPY PUSH1 0x0 SWAP3 ADD SWAP2 SWAP1 SWAP2 MSTORE POP PUSH2 0x352 SWAP3 POP POP POP JUMP JUMPDEST POP POP POP JUMP JUMPDEST PUSH1 0x60 PUSH1 0x40 MLOAD PUSH2 0x289 SWAP1 PUSH2 0x586 JUMP JUMPDEST PUSH1 0x40 MLOAD DUP1 SWAP2 SUB SWAP1 KECCAK256 DUP4 DUP4 PUSH1 0x40 MLOAD PUSH1 0x24 ADD PUSH2 0x2A4 SWAP3 SWAP2 SWAP1 PUSH2 0x673 JUMP JUMPDEST PUSH1 0x40 DUP1 MLOAD PUSH32 0xFFFFFFFFFFFFFFFFFFFFFFFFFFFFFFFFFFFFFFFFFFFFFFFFFFFFFFFFFFFFFFE0 DUP2 DUP5 SUB ADD DUP2 MSTORE SWAP2 SWAP1 MSTORE PUSH1 0x20 DUP2 ADD DUP1 MLOAD PUSH28 0xFFFFFFFFFFFFFFFFFFFFFFFFFFFFFFFFFFFFFFFFFFFFFFFFFFFFFFFF AND PUSH32 0xFFFFFFFF00000000000000000000000000000000000000000000000000000000 SWAP1 SWAP4 AND SWAP3 SWAP1 SWAP3 OR SWAP1 SWAP2 MSTORE SWAP1 POP SWAP3 SWAP2 POP POP JUMP JUMPDEST DUP1 MLOAD PUSH1 0x20 DUP3 ADD REVERT JUMPDEST PUSH1 0x60 PUSH1 0x40 MLOAD PUSH2 0x289 SWAP1 PUSH2 0x5D5 JUMP JUMPDEST PUSH1 0x0 DUP1 PUSH2 0x34C PUSH1 0x0 PUSH2 0x449 JUMP JUMPDEST SWAP3 SWAP2 POP POP JUMP JUMPDEST PUSH1 0x0 PUSH1 0x60 DUP4 PUSH20 0xFFFFFFFFFFFFFFFFFFFFFFFFFFFFFFFFFFFFFFFF AND DUP4 PUSH1 0x40 MLOAD PUSH2 0x37B SWAP2 SWAP1 PUSH2 0x56A JUMP JUMPDEST PUSH1 0x0 PUSH1 0x40 MLOAD DUP1 DUP4 SUB DUP2 DUP6 GAS DELEGATECALL SWAP2 POP POP RETURNDATASIZE DUP1 PUSH1 0x0 DUP2 EQ PUSH2 0x3B6 JUMPI PUSH1 0x40 MLOAD SWAP2 POP PUSH1 0x1F NOT PUSH1 0x3F RETURNDATASIZE ADD AND DUP3 ADD PUSH1 0x40 MSTORE RETURNDATASIZE DUP3 MSTORE RETURNDATASIZE PUSH1 0x0 PUSH1 0x20 DUP5 ADD RETURNDATACOPY PUSH2 0x3BB JUMP JUMPDEST PUSH1 0x60 SWAP2 POP JUMPDEST POP SWAP2 POP SWAP2 POP DUP2 ISZERO DUP1 PUSH2 0x3CF JUMPI POP DUP1 MLOAD PUSH1 0x20 EQ ISZERO JUMPDEST DUP1 PUSH2 0x431 JUMPI POP DUP1 MLOAD PUSH32 0xD150751B00000000000000000000000000000000000000000000000000000000 SWAP1 PUSH2 0x40C SWAP1 DUP4 ADD PUSH1 0x20 SWAP1 DUP2 ADD SWAP1 DUP5 ADD PUSH2 0x523 JUMP JUMPDEST PUSH32 0xFFFFFFFF00000000000000000000000000000000000000000000000000000000 AND EQ ISZERO JUMPDEST ISZERO PUSH2 0x443 JUMPI PUSH2 0x443 PUSH2 0xC2 DUP6 DUP4 PUSH2 0x464 JUMP JUMPDEST POP POP POP POP JUMP JUMPDEST PUSH1 0x0 PUSH1 0x80 DUP3 PUSH1 0x4 DUP2 GT ISZERO PUSH2 0x459 JUMPI INVALID JUMPDEST PUSH1 0x1 ADD SWAP1 SHL SWAP3 SWAP2 POP POP JUMP JUMPDEST PUSH1 0x60 PUSH1 0x40 MLOAD PUSH2 0x472 SWAP1 PUSH2 0x624 JUMP JUMPDEST PUSH1 0x40 MLOAD DUP1 SWAP2 SUB SWAP1 KECCAK256 DUP4 DUP4 PUSH1 0x40 MLOAD PUSH1 0x24 ADD PUSH2 0x2A4 SWAP3 SWAP2 SWAP1 PUSH2 0x69A JUMP JUMPDEST PUSH1 0x0 DUP1 PUSH1 0x0 PUSH1 0x40 DUP5 DUP7 SUB SLT ISZERO PUSH2 0x4A1 JUMPI DUP3 DUP4 REVERT JUMPDEST DUP4 CALLDATALOAD PUSH20 0xFFFFFFFFFFFFFFFFFFFFFFFFFFFFFFFFFFFFFFFF DUP2 AND DUP2 EQ PUSH2 0x4C4 JUMPI DUP4 DUP5 REVERT JUMPDEST SWAP3 POP PUSH1 0x20 DUP5 ADD CALLDATALOAD PUSH8 0xFFFFFFFFFFFFFFFF DUP1 DUP3 GT ISZERO PUSH2 0x4E0 JUMPI DUP4 DUP5 REVERT JUMPDEST DUP2 DUP7 ADD DUP8 PUSH1 0x1F DUP3 ADD SLT PUSH2 0x4F1 JUMPI DUP5 DUP6 REVERT JUMPDEST DUP1 CALLDATALOAD SWAP3 POP DUP2 DUP4 GT ISZERO PUSH2 0x501 JUMPI DUP5 DUP6 REVERT JUMPDEST DUP8 PUSH1 0x20 DUP5 DUP4 ADD ADD GT ISZERO PUSH2 0x512 JUMPI DUP5 DUP6 REVERT JUMPDEST SWAP5 SWAP8 PUSH1 0x20 SWAP1 SWAP6 ADD SWAP7 POP SWAP1 SWAP5 POP POP POP POP JUMP JUMPDEST PUSH1 0x0 PUSH1 0x20 DUP3 DUP5 SUB SLT ISZERO PUSH2 0x534 JUMPI DUP1 DUP2 REVERT JUMPDEST DUP2 MLOAD PUSH32 0xFFFFFFFF00000000000000000000000000000000000000000000000000000000 DUP2 AND DUP2 EQ PUSH2 0x563 JUMPI DUP2 DUP3 REVERT JUMPDEST SWAP4 SWAP3 POP POP POP JUMP JUMPDEST PUSH1 0x0 DUP3 MLOAD PUSH2 0x57C DUP2 DUP5 PUSH1 0x20 DUP8 ADD PUSH2 0x708 JUMP JUMPDEST SWAP2 SWAP1 SWAP2 ADD SWAP3 SWAP2 POP POP JUMP JUMPDEST PUSH32 0x496E76616C696444696543616C6C65724572726F7228616464726573732C6164 DUP2 MSTORE PUSH32 0x6472657373290000000000000000000000000000000000000000000000000000 PUSH1 0x20 DUP3 ADD MSTORE PUSH1 0x26 ADD SWAP1 JUMP JUMPDEST PUSH32 0x496E76616C6964426F6F74737472617043616C6C65724572726F722861646472 DUP2 MSTORE PUSH32 0x6573732C61646472657373290000000000000000000000000000000000000000 PUSH1 0x20 DUP3 ADD MSTORE PUSH1 0x2C ADD SWAP1 JUMP JUMPDEST PUSH32 0x426F6F74737472617043616C6C4661696C65644572726F722861646472657373 DUP2 MSTORE PUSH32 0x2C62797465732900000000000000000000000000000000000000000000000000 PUSH1 0x20 DUP3 ADD MSTORE PUSH1 0x27 ADD SWAP1 JUMP JUMPDEST PUSH20 0xFFFFFFFFFFFFFFFFFFFFFFFFFFFFFFFFFFFFFFFF SWAP3 DUP4 AND DUP2 MSTORE SWAP2 AND PUSH1 0x20 DUP3 ADD MSTORE PUSH1 0x40 ADD SWAP1 JUMP JUMPDEST PUSH1 0x0 PUSH20 0xFFFFFFFFFFFFFFFFFFFFFFFFFFFFFFFFFFFFFFFF DUP5 AND DUP3 MSTORE PUSH1 0x40 PUSH1 0x20 DUP4 ADD MSTORE DUP3 MLOAD DUP1 PUSH1 0x40 DUP5 ADD MSTORE PUSH2 0x6D5 DUP2 PUSH1 0x60 DUP6 ADD PUSH1 0x20 DUP8 ADD PUSH2 0x708 JUMP JUMPDEST PUSH1 0x1F ADD PUSH32 0xFFFFFFFFFFFFFFFFFFFFFFFFFFFFFFFFFFFFFFFFFFFFFFFFFFFFFFFFFFFFFFE0 AND SWAP2 SWAP1 SWAP2 ADD PUSH1 0x60 ADD SWAP4 SWAP3 POP POP POP JUMP JUMPDEST PUSH1 0x0 JUMPDEST DUP4 DUP2 LT ISZERO PUSH2 0x723 JUMPI DUP2 DUP2 ADD MLOAD DUP4 DUP3 ADD MSTORE PUSH1 0x20 ADD PUSH2 0x70B JUMP JUMPDEST DUP4 DUP2 GT ISZERO PUSH2 0x443 JUMPI POP POP PUSH1 0x0 SWAP2 ADD MSTORE JUMP INVALID LOG2 PUSH5 0x6970667358 0x22 SLT KECCAK256 BYTE PUSH2 0x1512 0x26 0xD6 0xD9 0xA9 CALLER PUSH9 0x8CC4B3CB691C3DAE89 SWAP11 0x5E SWAP9 JUMPDEST PUSH17 0x65B9EF15B7B22D8E64736F6C634300060A STOP CALLER LOG2 PUSH5 0x6970667358 0x22 SLT KECCAK256 STOP 0xE3 SWAP10 SWAP12 PUSH7 0xF9AD5C613A3AC3 CREATE2 PUSH11 0x52A2EB8A487DAA09AB0EF7 LOG4 MSTORE8 SELFDESTRUCT 0xE3 0xEB CALLDATASIZE DUP5 PUSH5 0x736F6C6343 STOP MOD EXP STOP CALLER "
            }
        }
    },
    "sourceTreeHashHex": "0x0a0572edd482da97db633662e10be457a2bd276159d99a0b8946e5f91d046397",
    "compiler": {
        "name": "solc",
        "version": "0.6.10+commit.00c0fcaf",
        "settings": {
            "remappings": [
                "@0x/contracts-utils=/home/gene/dev/0x-monorepo/node_modules/@0x/contracts-utils",
                "@0x/contracts-erc20=/home/gene/dev/0x-monorepo/node_modules/@0x/contracts-erc20"
            ],
            "optimizer": {
                "enabled": true,
                "runs": 1000000,
                "details": {
                    "yul": true,
                    "deduplicate": true,
                    "cse": true,
                    "constantOptimizer": true
                }
            },
            "outputSelection": {
                "*": {
                    "*": [
                        "abi",
                        "devdoc",
                        "evm.bytecode.object",
                        "evm.bytecode.sourceMap",
                        "evm.deployedBytecode.object",
                        "evm.deployedBytecode.sourceMap"
                    ]
                }
            },
            "evmVersion": "istanbul"
        }
    },
    "chains": {}
}