{
    "schemaVersion": "2.0.0",
    "contractName": "MetaTransactionsFeature",
    "compilerOutput": {
        "abi": [
            {
                "inputs": [
                    {
                        "internalType": "address",
                        "name": "zeroExAddress",
                        "type": "address"
                    }
                ],
                "stateMutability": "nonpayable",
                "type": "constructor"
            },
            {
                "anonymous": false,
                "inputs": [
                    {
                        "indexed": false,
                        "internalType": "bytes32",
                        "name": "hash",
                        "type": "bytes32"
                    },
                    {
                        "indexed": true,
                        "internalType": "bytes4",
                        "name": "selector",
                        "type": "bytes4"
                    },
                    {
                        "indexed": false,
                        "internalType": "address",
                        "name": "signer",
                        "type": "address"
                    },
                    {
                        "indexed": false,
                        "internalType": "address",
                        "name": "sender",
                        "type": "address"
                    }
                ],
                "name": "MetaTransactionExecuted",
                "type": "event"
            },
            {
                "inputs": [],
                "name": "EIP712_DOMAIN_SEPARATOR",
                "outputs": [
                    {
                        "internalType": "bytes32",
                        "name": "",
                        "type": "bytes32"
                    }
                ],
                "stateMutability": "view",
                "type": "function"
            },
            {
                "inputs": [],
                "name": "FEATURE_NAME",
                "outputs": [
                    {
                        "internalType": "string",
                        "name": "",
                        "type": "string"
                    }
                ],
                "stateMutability": "view",
                "type": "function"
            },
            {
                "inputs": [],
                "name": "FEATURE_VERSION",
                "outputs": [
                    {
                        "internalType": "uint256",
                        "name": "",
                        "type": "uint256"
                    }
                ],
                "stateMutability": "view",
                "type": "function"
            },
            {
                "inputs": [],
                "name": "MTX_EIP712_TYPEHASH",
                "outputs": [
                    {
                        "internalType": "bytes32",
                        "name": "",
                        "type": "bytes32"
                    }
                ],
                "stateMutability": "view",
                "type": "function"
            },
            {
                "inputs": [
                    {
                        "internalType": "address",
                        "name": "sender",
                        "type": "address"
                    },
                    {
                        "components": [
                            {
                                "internalType": "address payable",
                                "name": "signer",
                                "type": "address"
                            },
                            {
                                "internalType": "address",
                                "name": "sender",
                                "type": "address"
                            },
                            {
                                "internalType": "uint256",
                                "name": "minGasPrice",
                                "type": "uint256"
                            },
                            {
                                "internalType": "uint256",
                                "name": "maxGasPrice",
                                "type": "uint256"
                            },
                            {
                                "internalType": "uint256",
                                "name": "expirationTimeSeconds",
                                "type": "uint256"
                            },
                            {
                                "internalType": "uint256",
                                "name": "salt",
                                "type": "uint256"
                            },
                            {
                                "internalType": "bytes",
                                "name": "callData",
                                "type": "bytes"
                            },
                            {
                                "internalType": "uint256",
                                "name": "value",
                                "type": "uint256"
                            },
                            {
                                "internalType": "contract IERC20TokenV06",
                                "name": "feeToken",
                                "type": "address"
                            },
                            {
                                "internalType": "uint256",
                                "name": "feeAmount",
                                "type": "uint256"
                            }
                        ],
                        "internalType": "struct IMetaTransactionsFeature.MetaTransactionData",
                        "name": "mtx",
                        "type": "tuple"
                    },
                    {
                        "internalType": "bytes",
                        "name": "signature",
                        "type": "bytes"
                    }
                ],
                "name": "_executeMetaTransaction",
                "outputs": [
                    {
                        "internalType": "bytes",
                        "name": "returnResult",
                        "type": "bytes"
                    }
                ],
                "stateMutability": "payable",
                "type": "function"
            },
            {
                "inputs": [
                    {
                        "components": [
                            {
                                "internalType": "address payable",
                                "name": "signer",
                                "type": "address"
                            },
                            {
                                "internalType": "address",
                                "name": "sender",
                                "type": "address"
                            },
                            {
                                "internalType": "uint256",
                                "name": "minGasPrice",
                                "type": "uint256"
                            },
                            {
                                "internalType": "uint256",
                                "name": "maxGasPrice",
                                "type": "uint256"
                            },
                            {
                                "internalType": "uint256",
                                "name": "expirationTimeSeconds",
                                "type": "uint256"
                            },
                            {
                                "internalType": "uint256",
                                "name": "salt",
                                "type": "uint256"
                            },
                            {
                                "internalType": "bytes",
                                "name": "callData",
                                "type": "bytes"
                            },
                            {
                                "internalType": "uint256",
                                "name": "value",
                                "type": "uint256"
                            },
                            {
                                "internalType": "contract IERC20TokenV06",
                                "name": "feeToken",
                                "type": "address"
                            },
                            {
                                "internalType": "uint256",
                                "name": "feeAmount",
                                "type": "uint256"
                            }
                        ],
                        "internalType": "struct IMetaTransactionsFeature.MetaTransactionData[]",
                        "name": "mtxs",
                        "type": "tuple[]"
                    },
                    {
                        "internalType": "bytes[]",
                        "name": "signatures",
                        "type": "bytes[]"
                    }
                ],
                "name": "batchExecuteMetaTransactions",
                "outputs": [
                    {
                        "internalType": "bytes[]",
                        "name": "returnResults",
                        "type": "bytes[]"
                    }
                ],
                "stateMutability": "payable",
                "type": "function"
            },
            {
                "inputs": [
                    {
                        "components": [
                            {
                                "internalType": "address payable",
                                "name": "signer",
                                "type": "address"
                            },
                            {
                                "internalType": "address",
                                "name": "sender",
                                "type": "address"
                            },
                            {
                                "internalType": "uint256",
                                "name": "minGasPrice",
                                "type": "uint256"
                            },
                            {
                                "internalType": "uint256",
                                "name": "maxGasPrice",
                                "type": "uint256"
                            },
                            {
                                "internalType": "uint256",
                                "name": "expirationTimeSeconds",
                                "type": "uint256"
                            },
                            {
                                "internalType": "uint256",
                                "name": "salt",
                                "type": "uint256"
                            },
                            {
                                "internalType": "bytes",
                                "name": "callData",
                                "type": "bytes"
                            },
                            {
                                "internalType": "uint256",
                                "name": "value",
                                "type": "uint256"
                            },
                            {
                                "internalType": "contract IERC20TokenV06",
                                "name": "feeToken",
                                "type": "address"
                            },
                            {
                                "internalType": "uint256",
                                "name": "feeAmount",
                                "type": "uint256"
                            }
                        ],
                        "internalType": "struct IMetaTransactionsFeature.MetaTransactionData",
                        "name": "mtx",
                        "type": "tuple"
                    },
                    {
                        "internalType": "bytes",
                        "name": "signature",
                        "type": "bytes"
                    }
                ],
                "name": "executeMetaTransaction",
                "outputs": [
                    {
                        "internalType": "bytes",
                        "name": "returnResult",
                        "type": "bytes"
                    }
                ],
                "stateMutability": "payable",
                "type": "function"
            },
            {
                "inputs": [
                    {
                        "components": [
                            {
                                "internalType": "address payable",
                                "name": "signer",
                                "type": "address"
                            },
                            {
                                "internalType": "address",
                                "name": "sender",
                                "type": "address"
                            },
                            {
                                "internalType": "uint256",
                                "name": "minGasPrice",
                                "type": "uint256"
                            },
                            {
                                "internalType": "uint256",
                                "name": "maxGasPrice",
                                "type": "uint256"
                            },
                            {
                                "internalType": "uint256",
                                "name": "expirationTimeSeconds",
                                "type": "uint256"
                            },
                            {
                                "internalType": "uint256",
                                "name": "salt",
                                "type": "uint256"
                            },
                            {
                                "internalType": "bytes",
                                "name": "callData",
                                "type": "bytes"
                            },
                            {
                                "internalType": "uint256",
                                "name": "value",
                                "type": "uint256"
                            },
                            {
                                "internalType": "contract IERC20TokenV06",
                                "name": "feeToken",
                                "type": "address"
                            },
                            {
                                "internalType": "uint256",
                                "name": "feeAmount",
                                "type": "uint256"
                            }
                        ],
                        "internalType": "struct IMetaTransactionsFeature.MetaTransactionData",
                        "name": "mtx",
                        "type": "tuple"
                    }
                ],
                "name": "getMetaTransactionExecutedBlock",
                "outputs": [
                    {
                        "internalType": "uint256",
                        "name": "blockNumber",
                        "type": "uint256"
                    }
                ],
                "stateMutability": "view",
                "type": "function"
            },
            {
                "inputs": [
                    {
                        "components": [
                            {
                                "internalType": "address payable",
                                "name": "signer",
                                "type": "address"
                            },
                            {
                                "internalType": "address",
                                "name": "sender",
                                "type": "address"
                            },
                            {
                                "internalType": "uint256",
                                "name": "minGasPrice",
                                "type": "uint256"
                            },
                            {
                                "internalType": "uint256",
                                "name": "maxGasPrice",
                                "type": "uint256"
                            },
                            {
                                "internalType": "uint256",
                                "name": "expirationTimeSeconds",
                                "type": "uint256"
                            },
                            {
                                "internalType": "uint256",
                                "name": "salt",
                                "type": "uint256"
                            },
                            {
                                "internalType": "bytes",
                                "name": "callData",
                                "type": "bytes"
                            },
                            {
                                "internalType": "uint256",
                                "name": "value",
                                "type": "uint256"
                            },
                            {
                                "internalType": "contract IERC20TokenV06",
                                "name": "feeToken",
                                "type": "address"
                            },
                            {
                                "internalType": "uint256",
                                "name": "feeAmount",
                                "type": "uint256"
                            }
                        ],
                        "internalType": "struct IMetaTransactionsFeature.MetaTransactionData",
                        "name": "mtx",
                        "type": "tuple"
                    }
                ],
                "name": "getMetaTransactionHash",
                "outputs": [
                    {
                        "internalType": "bytes32",
                        "name": "mtxHash",
                        "type": "bytes32"
                    }
                ],
                "stateMutability": "view",
                "type": "function"
            },
            {
                "inputs": [
                    {
                        "internalType": "bytes32",
                        "name": "mtxHash",
                        "type": "bytes32"
                    }
                ],
                "name": "getMetaTransactionHashExecutedBlock",
                "outputs": [
                    {
                        "internalType": "uint256",
                        "name": "blockNumber",
                        "type": "uint256"
                    }
                ],
                "stateMutability": "view",
                "type": "function"
            },
            {
                "inputs": [],
                "name": "migrate",
                "outputs": [
                    {
                        "internalType": "bytes4",
                        "name": "success",
                        "type": "bytes4"
                    }
                ],
                "stateMutability": "nonpayable",
                "type": "function"
            }
        ],
        "devdoc": {
            "details": "MetaTransactions feature.",
            "kind": "dev",
            "methods": {
                "_executeMetaTransaction(address,(address,address,uint256,uint256,uint256,uint256,bytes,uint256,address,uint256),bytes)": {
                    "details": "Execute a meta-transaction via `sender`. Privileged variant.      Only callable from within.",
                    "params": {
                        "mtx": "The meta-transaction.",
                        "sender": "Who is executing the meta-transaction.",
                        "signature": "The signature by `mtx.signer`."
                    },
                    "returns": {
                        "returnResult": "The ABI-encoded result of the underlying call."
                    }
                },
                "batchExecuteMetaTransactions((address,address,uint256,uint256,uint256,uint256,bytes,uint256,address,uint256)[],bytes[])": {
                    "details": "Execute multiple meta-transactions.",
                    "params": {
                        "mtxs": "The meta-transactions.",
                        "signatures": "The signature by each respective `mtx.signer`."
                    },
                    "returns": {
                        "returnResults": "The ABI-encoded results of the underlying calls."
                    }
                },
                "executeMetaTransaction((address,address,uint256,uint256,uint256,uint256,bytes,uint256,address,uint256),bytes)": {
                    "details": "Execute a single meta-transaction.",
                    "params": {
                        "mtx": "The meta-transaction.",
                        "signature": "The signature by `mtx.signer`."
                    },
                    "returns": {
                        "returnResult": "The ABI-encoded result of the underlying call."
                    }
                },
                "getMetaTransactionExecutedBlock((address,address,uint256,uint256,uint256,uint256,bytes,uint256,address,uint256))": {
                    "details": "Get the block at which a meta-transaction has been executed.",
                    "params": {
                        "mtx": "The meta-transaction."
                    },
                    "returns": {
                        "blockNumber": "The block height when the meta-transactioin was executed."
                    }
                },
                "getMetaTransactionHash((address,address,uint256,uint256,uint256,uint256,bytes,uint256,address,uint256))": {
                    "details": "Get the EIP712 hash of a meta-transaction.",
                    "params": {
                        "mtx": "The meta-transaction."
                    },
                    "returns": {
                        "mtxHash": "The EIP712 hash of `mtx`."
                    }
                },
                "getMetaTransactionHashExecutedBlock(bytes32)": {
                    "details": "Get the block at which a meta-transaction hash has been executed.",
                    "params": {
                        "mtxHash": "The meta-transaction hash."
                    },
                    "returns": {
                        "blockNumber": "The block height when the meta-transactioin was executed."
                    }
                },
                "migrate()": {
                    "details": "Initialize and register this feature.      Should be delegatecalled by `Migrate.migrate()`.",
                    "returns": {
                        "success": "`LibMigrate.SUCCESS` on success."
                    }
                }
            },
            "stateVariables": {
                "FEATURE_NAME": {
                    "details": "Name of this feature."
                },
                "FEATURE_VERSION": {
                    "details": "Version of this feature."
                },
                "MTX_EIP712_TYPEHASH": {
                    "details": "EIP712 typehash of the `MetaTransactionData` struct."
                }
            },
            "version": 1
        },
        "evm": {
            "bytecode": {
                "linkReferences": {},
                "object": "0x61010060405262000014600160008062000116565b60c0527fe866282978e74dc892efa3621df30a058ca4d374a338824c0b89f1dfdcb0ea0460e0523480156200004857600080fd5b5060405162002444380380620024448339810160408190526200006b9162000148565b3060601b60805260405181904690620000f1907f8b73c3c69bb8fe3d512ecc4cf759cc79239f7b179b0ffacaa9a75d522b39400f907f9e5dae0addaf20578aeb5d70341d092b53b4e14480ac5726438fd436df7ba427907f06c015bd22b4c69690933c1058878ebdfef31f9aaae40bbe86d8a09fe1b2972c908590879060200162000178565b60408051601f19818403018152919052805160209091012060a05250620001a4915050565b6bffffffff0000000000000000604084901b1667ffffffff00000000602084901b161763ffffffff8216179392505050565b6000602082840312156200015a578081fd5b81516001600160a01b038116811462000171578182fd5b9392505050565b9485526020850193909352604084019190915260608301526001600160a01b0316608082015260a00190565b60805160601c60a05160c05160e05161225d620001e7600039806105bd528061064e5250806102025250806106725280610ab2525080610a51525061225d6000f3fe6080604052600436106100bc5760003560e01c80638fd3ab8011610074578063d036092d1161004e578063d036092d146101c3578063dab400f3146101d8578063e4263936146101ed576100bc565b80638fd3ab801461016e5780639b05181814610190578063ae550497146101a3576100bc565b80636ae4b4f7116100a55780636ae4b4f71461010c57806372d17d031461012e578063769250ea1461014e576100bc565b8063031b905c146100c15780633fb2da38146100ec575b600080fd5b3480156100cd57600080fd5b506100d6610200565b6040516100e39190611e17565b60405180910390f35b3480156100f857600080fd5b506100d6610107366004611bc6565b610224565b34801561011857600080fd5b50610121610238565b6040516100e39190612032565b34801561013a57600080fd5b506100d6610149366004611ab8565b610271565b61016161015c366004611a07565b61028c565b6040516100e39190611d99565b34801561017a57600080fd5b50610183610417565b6040516100e39190611f8b565b61012161019e366004611c01565b610534565b3480156101af57600080fd5b506100d66101be366004611bc6565b6105b6565b3480156101cf57600080fd5b506100d661064c565b3480156101e457600080fd5b506100d6610670565b6101216101fb366004611994565b610694565b7f000000000000000000000000000000000000000000000000000000000000000081565b6000610232610149836105b6565b92915050565b6040518060400160405280601081526020017f4d6574615472616e73616374696f6e730000000000000000000000000000000081525081565b600061027b6106be565b600092835260205250604090205490565b60606001600061029a6106cb565b8054909150828116156102fc576102fc6102f76102f1600080368080601f01602080910402602001604051908101604052809392919081815260200183838082843760009201919091525092939250506106d89050565b85610724565b6107df565b821781558351855114610318576103186102f7865186516107e7565b845167ffffffffffffffff8111801561033057600080fd5b5060405190808252806020026020018201604052801561036457816020015b606081526020019060019003908161034f5790505b50925060005b85518110156103c3576103a43387838151811061038357fe5b602002602001015187848151811061039757fe5b602002602001015161081d565b8482815181106103b057fe5b602090810291909101015260010161036a565b5060006103d03447610a05565b9050801561040757604051339082156108fc029083906000818181858888f19350505050158015610405573d6000803e3d6000fd5b505b5080549119909116905592915050565b60006104427f9b05181800000000000000000000000000000000000000000000000000000000610a1b565b61046b7f769250ea00000000000000000000000000000000000000000000000000000000610a1b565b6104947fe426393600000000000000000000000000000000000000000000000000000000610a1b565b6104bd7f3fb2da3800000000000000000000000000000000000000000000000000000000610a1b565b6104e67f72d17d0300000000000000000000000000000000000000000000000000000000610a1b565b61050f7fae55049700000000000000000000000000000000000000000000000000000000610a1b565b507f2c64c5ef0000000000000000000000000000000000000000000000000000000090565b6060600160006105426106cb565b805490915082811615610599576105996102f76102f1600080368080601f01602080910402602001604051908101604052809392919081815260200183838082843760009201919091525092939250506106d89050565b821781556105a833868661081d565b925060006103d03447610a05565b60006102327f0000000000000000000000000000000000000000000000000000000000000000836000015184602001518560400151866060015187608001518860a001518960c00151805190602001208a60e001518b61010001518c61012001516040516020016106319b9a99989796959493929190611e4c565b60405160208183030381529060405280519060200120610aae565b7f000000000000000000000000000000000000000000000000000000000000000081565b7f000000000000000000000000000000000000000000000000000000000000000081565b60603330146106a9576106a96102f733610b00565b6106b484848461081d565b90505b9392505050565b6000806102326005610bb8565b6000806102326006610bb8565b600081600401835110156106f9576106f96102f76003855185600401610bd3565b5001602001517fffffffff000000000000000000000000000000000000000000000000000000001690565b60607fc7a7103e21e41a5c3158b3028d34cb9bb9593b10b1892f49d7187efa71219d4e838360405160240161075a929190612000565b604080517fffffffffffffffffffffffffffffffffffffffffffffffffffffffffffffffe08184030181529190526020810180517bffffffffffffffffffffffffffffffffffffffffffffffffffffffff167fffffffff0000000000000000000000000000000000000000000000000000000090931692909217909152905092915050565b805160208201fd5b60607f52974c3a86e985173f72e2fb84ba2bfca8fb3b7c5031eb8077ebd59458abf2a4838360405160240161075a929190611f4c565b6060610827611622565b73ffffffffffffffffffffffffffffffffffffffff85168152610849846105b6565b6020820152604081018490526060810183905261086581610c78565b4361086e6106be565b602080840151600090815291905260409020556101208401511561090d5761010084015184516101208601516040517f89dd02e700000000000000000000000000000000000000000000000000000000815230936389dd02e7936108da93919290918b91600401612045565b600060405180830381600087803b1580156108f457600080fd5b505af1158015610908573d6000803e3d6000fd5b505050505b60c084015161091d9060006106d8565b7fffffffff0000000000000000000000000000000000000000000000000000000016608082018190527f415565b000000000000000000000000000000000000000000000000000000000141561097d5761097681610ea3565b9150610992565b6109926102f7826020015183608001516110d9565b80608001517bffffffffffffffffffffffffffffffffffffffffffffffffffffffff19167f7f4fe3ff8ae440e1570c558da08440b26f89fb1c1f2910cd91ca6452955f121a8260200151866000015187602001516040516109f593929190611e20565b60405180910390a2509392505050565b6000818310610a1457816106b7565b5090919050565b6040517f6eb224cb0000000000000000000000000000000000000000000000000000000081523090636eb224cb90610a799084907f000000000000000000000000000000000000000000000000000000000000000090600401611fb8565b600060405180830381600087803b158015610a9357600080fd5b505af1158015610aa7573d6000803e3d6000fd5b5050505050565b60007f000000000000000000000000000000000000000000000000000000000000000082604051602001610ae3929190611d42565b604051602081830303815290604052805190602001209050919050565b60607ff0ec779b0bcda6d84abf99ee2c67647d1100ebbb553a9c2d1c2ba1579592832c82604051602401610b349190611d78565b604080517fffffffffffffffffffffffffffffffffffffffffffffffffffffffffffffffe08184030181529190526020810180517bffffffffffffffffffffffffffffffffffffffffffffffffffffffff167fffffffff00000000000000000000000000000000000000000000000000000000909316929092179091529050919050565b60006080826007811115610bc857fe5b600101901b92915050565b6060632800659560e01b848484604051602401610bf29392919061207c565b604080517fffffffffffffffffffffffffffffffffffffffffffffffffffffffffffffffe08184030181529190526020810180517bffffffffffffffffffffffffffffffffffffffffffffffffffffffff167fffffffff000000000000000000000000000000000000000000000000000000009093169290921790915290509392505050565b60408101516020015173ffffffffffffffffffffffffffffffffffffffff1615801590610cdd5750806000015173ffffffffffffffffffffffffffffffffffffffff1681604001516020015173ffffffffffffffffffffffffffffffffffffffff1614155b15610d0057610d006102f78260200151836000015184604001516020015161110f565b4281604001516080015111610d2957610d296102f7826020015142846040015160800151611147565b3a8160400151604001511180610d4657503a816040015160600151105b15610d6e57610d6e6102f782602001513a84604001516040015185604001516060015161117f565b4760a08201819052604082015160e001511115610da357610da36102f782602001518360a00151846040015160e00151611240565b602081015160408083015151606084015191517ff68fd38d000000000000000000000000000000000000000000000000000000008152309363f68fd38d93610def939192600401611eb2565b60006040518083038186803b158015610e0757600080fd5b505afa925050508015610e18575060015b610e64573d808015610e46576040519150601f19603f3d011682016040523d82523d6000602084013e610e4b565b606091505b50610e626102f78360200151846060015184611278565b505b610e6c6106be565b6020808301516000908152919052604090205460c0820181905215610ea057610ea06102f782602001518360c001516112b0565b50565b6060610ead611682565b604083015160c0015151606090601c0167ffffffffffffffff81118015610ed357600080fd5b506040519080825280601f01601f191660200182016040528015610efe576020820181803683370190505b5090506060846040015160c00151905060a081511015610f1a57fe5b602082810152805160248201906040840190610f5b90829084907ffffffffffffffffffffffffffffffffffffffffffffffffffffffffffffffffc016112e6565b83806020019051810190610f6f9190611ad0565b94505050505060006060610f8a856040015160c001516113c7565b915091506110d0856020015163c853c96960e01b60405180610100016040528089604001516000015173ffffffffffffffffffffffffffffffffffffffff168152602001876000015173ffffffffffffffffffffffffffffffffffffffff168152602001876020015173ffffffffffffffffffffffffffffffffffffffff16815260200187604001518152602001876060015181526020018760800151815260200186815260200185815250604051602401611046919061209e565b604080517fffffffffffffffffffffffffffffffffffffffffffffffffffffffffffffffe08184030181529181526020820180517bffffffffffffffffffffffffffffffffffffffffffffffffffffffff167fffffffff00000000000000000000000000000000000000000000000000000000909416939093179092529088015160e001516114c1565b95945050505050565b60607f547a32a328d8a78dbe9bf090fa60ba3d4d1c6833a592a2c942666ce3249c1210838360405160240161075a929190611ee7565b60607fa78002a166fcae5236d89e3ff35c53dadb775f7818de4a020714cba4bf360822848484604051602401610bf293929190611e20565b60607fbea726efdf9868bbc5755dce9f13d585b3cf731177be75300d15bb8f5e286158848484604051602401610bf293929190611f5a565b60607f6fec11a99ebb0ff14b6648f609f57864dadeba8b29869c4df2b3b76894147849858585856040516024016111b99493929190611f70565b604080517fffffffffffffffffffffffffffffffffffffffffffffffffffffffffffffffe08184030181529190526020810180517bffffffffffffffffffffffffffffffffffffffffffffffffffffffff167fffffffff00000000000000000000000000000000000000000000000000000000909316929092179091529050949350505050565b60607f0a5ade45208123132815e1591a1c7e64045fd006152f5e85d100aee42ba02c75848484604051602401610bf293929190611f5a565b60607f06b99cf1d367dbdbc495802261a500bf6e1319cfa7ecaa23ae929f5cd4c70795848484604051602401610bf293929190611f17565b60607ffe251a07f3cbffd23c1c1db9ec776d259099c832333d99ef48cacfa93a4d7b32838360405160240161075a929190611f4c565b602081101561132d578151835160208390036101000a7fffffffffffffffffffffffffffffffffffffffffffffffffffffffffffffffff01801990921691161783526113c2565b8282141561133a576113c2565b828211156113745760208103905080820181840181515b8285101561136c578451865260209586019590940193611351565b9052506113c2565b60208103905080820181840183515b818612156113bd57825182527fffffffffffffffffffffffffffffffffffffffffffffffffffffffffffffffe09283019290910190611383565b855250505b505050565b6000606060468351108061144b575082516114059084907fffffffffffffffffffffffffffffffffffffffffffffffffffffffffffffffba016106d8565b7fffffffff00000000000000000000000000000000000000000000000000000000167ff86d1d920000000000000000000000000000000000000000000000000000000014155b1561145e578251602084012091506114bc565b82517fffffffffffffffffffffffffffffffffffffffffffffffffffffffffffffffba8101602085012092506114b99084907fffffffffffffffffffffffffffffffffffffffffffffffffffffffffffffffbe81019061154d565b90505b915091565b606060003073ffffffffffffffffffffffffffffffffffffffff1683856040516114eb9190611d26565b60006040518083038185875af1925050503d8060008114611528576040519150601f19603f3d011682016040523d82523d6000602084013e61152d565b606091505b509250905080611545576115456102f78686856115e4565b509392505050565b606081831115611566576115666102f760008585610bd3565b835182111561157f5761157f6102f76001848751610bd3565b82820367ffffffffffffffff8111801561159857600080fd5b506040519080825280601f01601f1916602001820160405280156115c3576020820181803683370190505b5090506106b76115d28261161c565b846115dc8761161c565b0183516112e6565b60607fa9f0c547643c02afed4cf2699e794bc383effca840eed62fddb64a15a4e55bc4848484604051602401610bf293929190611f17565b60200190565b6040805160e081018252600080825260208201529081016116416116dd565b81526020016060815260200160007bffffffffffffffffffffffffffffffffffffffffffffffffffffffff1916815260200160008152602001600081525090565b6040518060a00160405280600073ffffffffffffffffffffffffffffffffffffffff168152602001600073ffffffffffffffffffffffffffffffffffffffff1681526020016000815260200160008152602001606081525090565b604051806101400160405280600073ffffffffffffffffffffffffffffffffffffffff168152602001600073ffffffffffffffffffffffffffffffffffffffff168152602001600081526020016000815260200160008152602001600081526020016060815260200160008152602001600073ffffffffffffffffffffffffffffffffffffffff168152602001600081525090565b803561023281612205565b600082601f83011261178d578081fd5b81356117a061179b82612173565b61214c565b818152915060208083019084810160005b848110156117da576117c8888484358a01016117e5565b845292820192908201906001016117b1565b505050505092915050565b600082601f8301126117f5578081fd5b813561180361179b82612193565b915080825283602082850101111561181a57600080fd5b8060208401602084013760009082016020015292915050565b6000610140808385031215611846578182fd5b61184f8161214c565b91505061185c8383611772565b815261186b8360208401611772565b602082015260408201356040820152606082013560608201526080820135608082015260a082013560a082015260c082013567ffffffffffffffff8111156118b257600080fd5b6118be848285016117e5565b60c08301525060e082013560e08201526101006118dd84828501611772565b818301525061012080830135818301525092915050565b600060408284031215611905578081fd5b61190f604061214c565b9050815163ffffffff8116811461192557600080fd5b8152602082015167ffffffffffffffff81111561194157600080fd5b8201601f8101841361195257600080fd5b805161196061179b82612193565b81815285602083850101111561197557600080fd5b6119868260208301602086016121d5565b602084015250909392505050565b6000806000606084860312156119a8578283fd5b83356119b381612205565b9250602084013567ffffffffffffffff808211156119cf578384fd5b6119db87838801611833565b935060408601359150808211156119f0578283fd5b506119fd868287016117e5565b9150509250925092565b60008060408385031215611a19578182fd5b823567ffffffffffffffff80821115611a30578384fd5b818501915085601f830112611a43578384fd5b8135611a5161179b82612173565b81815260208082019190858101885b85811015611a8957611a778c8484358b0101611833565b85529382019390820190600101611a60565b50919750880135945050505080821115611aa1578283fd5b50611aae8582860161177d565b9150509250929050565b600060208284031215611ac9578081fd5b5035919050565b60006020808385031215611ae2578182fd5b825167ffffffffffffffff80821115611af9578384fd5b9084019060a08287031215611b0c578384fd5b611b1660a061214c565b8251611b2181612205565b815282840151611b3081612205565b8085830152506040830151604082015260608301516060820152608083015182811115611b5b578586fd5b80840193505086601f840112611b6f578485fd5b82519150611b7f61179b83612173565b82815284810190848601875b85811015611bb457611ba28b8984518a01016118f4565b84529287019290870190600101611b8b565b50506080830152509695505050505050565b600060208284031215611bd7578081fd5b813567ffffffffffffffff811115611bed578182fd5b611bf984828501611833565b949350505050565b60008060408385031215611c13578182fd5b823567ffffffffffffffff80821115611c2a578384fd5b611c3686838701611833565b93506020850135915080821115611c4b578283fd5b50611aae858286016117e5565b73ffffffffffffffffffffffffffffffffffffffff169052565b6000815180845260208085019450848183028601828601855b85811015611ccf5783830389528151805163ffffffff1684528501516040868501819052611cbb81860183611cdc565b9a87019a9450505090840190600101611c8b565b5090979650505050505050565b60008151808452611cf48160208601602086016121d5565b601f017fffffffffffffffffffffffffffffffffffffffffffffffffffffffffffffffe0169290920160200192915050565b60008251611d388184602087016121d5565b9190910192915050565b7f190100000000000000000000000000000000000000000000000000000000000081526002810192909252602282015260420190565b73ffffffffffffffffffffffffffffffffffffffff91909116815260200190565b6000602080830181845280855180835260408601915060408482028701019250838701855b82811015611e0a577fffffffffffffffffffffffffffffffffffffffffffffffffffffffffffffffc0888603018452611df8858351611cdc565b94509285019290850190600101611dbe565b5092979650505050505050565b90815260200190565b92835273ffffffffffffffffffffffffffffffffffffffff918216602084015216604082015260600190565b9a8b5273ffffffffffffffffffffffffffffffffffffffff998a1660208c015297891660408b015260608a0196909652608089019490945260a088019290925260c087015260e08601526101008501529091166101208301526101408201526101600190565b600084825273ffffffffffffffffffffffffffffffffffffffff84166020830152606060408301526110d06060830184611cdc565b9182527fffffffff0000000000000000000000000000000000000000000000000000000016602082015260400190565b600084825260606020830152611f306060830185611cdc565b8281036040840152611f428185611cdc565b9695505050505050565b918252602082015260400190565b9283526020830191909152604082015260600190565b93845260208401929092526040830152606082015260800190565b7fffffffff0000000000000000000000000000000000000000000000000000000091909116815260200190565b7fffffffff0000000000000000000000000000000000000000000000000000000092909216825273ffffffffffffffffffffffffffffffffffffffff16602082015260400190565b7fffffffff00000000000000000000000000000000000000000000000000000000929092168252602082015260400190565b6000602082526106b76020830184611cdc565b73ffffffffffffffffffffffffffffffffffffffff9485168152928416602084015292166040820152606081019190915260800190565b606081016008851061208a57fe5b938152602081019290925260409091015290565b6000602082526120b2602083018451611c58565b60208301516120c46040840182611c58565b5060408301516120d76060840182611c58565b5060608301516080830152608083015160a083015260a08301516101008060c0850152612108610120850183611c72565b915060c085015160e085015260e08501517fffffffffffffffffffffffffffffffffffffffffffffffffffffffffffffffe08584030182860152611f428382611cdc565b60405181810167ffffffffffffffff8111828210171561216b57600080fd5b604052919050565b600067ffffffffffffffff821115612189578081fd5b5060209081020190565b600067ffffffffffffffff8211156121a9578081fd5b50601f017fffffffffffffffffffffffffffffffffffffffffffffffffffffffffffffffe01660200190565b60005b838110156121f05781810151838201526020016121d8565b838111156121ff576000848401525b50505050565b73ffffffffffffffffffffffffffffffffffffffff81168114610ea057600080fdfea2646970667358221220df036675a23c35f5bf10eadb3212d6e74e46859ef0122b97414a3ad56b2aadc164736f6c634300060c0033",
                "opcodes": "PUSH2 0x100 PUSH1 0x40 MSTORE PUSH3 0x14 PUSH1 0x1 PUSH1 0x0 DUP1 PUSH3 0x116 JUMP JUMPDEST PUSH1 0xC0 MSTORE PUSH32 0xE866282978E74DC892EFA3621DF30A058CA4D374A338824C0B89F1DFDCB0EA04 PUSH1 0xE0 MSTORE CALLVALUE DUP1 ISZERO PUSH3 0x48 JUMPI PUSH1 0x0 DUP1 REVERT JUMPDEST POP PUSH1 0x40 MLOAD PUSH3 0x2444 CODESIZE SUB DUP1 PUSH3 0x2444 DUP4 CODECOPY DUP2 ADD PUSH1 0x40 DUP2 SWAP1 MSTORE PUSH3 0x6B SWAP2 PUSH3 0x148 JUMP JUMPDEST ADDRESS PUSH1 0x60 SHL PUSH1 0x80 MSTORE PUSH1 0x40 MLOAD DUP2 SWAP1 CHAINID SWAP1 PUSH3 0xF1 SWAP1 PUSH32 0x8B73C3C69BB8FE3D512ECC4CF759CC79239F7B179B0FFACAA9A75D522B39400F SWAP1 PUSH32 0x9E5DAE0ADDAF20578AEB5D70341D092B53B4E14480AC5726438FD436DF7BA427 SWAP1 PUSH32 0x6C015BD22B4C69690933C1058878EBDFEF31F9AAAE40BBE86D8A09FE1B2972C SWAP1 DUP6 SWAP1 DUP8 SWAP1 PUSH1 0x20 ADD PUSH3 0x178 JUMP JUMPDEST PUSH1 0x40 DUP1 MLOAD PUSH1 0x1F NOT DUP2 DUP5 SUB ADD DUP2 MSTORE SWAP2 SWAP1 MSTORE DUP1 MLOAD PUSH1 0x20 SWAP1 SWAP2 ADD KECCAK256 PUSH1 0xA0 MSTORE POP PUSH3 0x1A4 SWAP2 POP POP JUMP JUMPDEST PUSH12 0xFFFFFFFF0000000000000000 PUSH1 0x40 DUP5 SWAP1 SHL AND PUSH8 0xFFFFFFFF00000000 PUSH1 0x20 DUP5 SWAP1 SHL AND OR PUSH4 0xFFFFFFFF DUP3 AND OR SWAP4 SWAP3 POP POP POP JUMP JUMPDEST PUSH1 0x0 PUSH1 0x20 DUP3 DUP5 SUB SLT ISZERO PUSH3 0x15A JUMPI DUP1 DUP2 REVERT JUMPDEST DUP2 MLOAD PUSH1 0x1 PUSH1 0x1 PUSH1 0xA0 SHL SUB DUP2 AND DUP2 EQ PUSH3 0x171 JUMPI DUP2 DUP3 REVERT JUMPDEST SWAP4 SWAP3 POP POP POP JUMP JUMPDEST SWAP5 DUP6 MSTORE PUSH1 0x20 DUP6 ADD SWAP4 SWAP1 SWAP4 MSTORE PUSH1 0x40 DUP5 ADD SWAP2 SWAP1 SWAP2 MSTORE PUSH1 0x60 DUP4 ADD MSTORE PUSH1 0x1 PUSH1 0x1 PUSH1 0xA0 SHL SUB AND PUSH1 0x80 DUP3 ADD MSTORE PUSH1 0xA0 ADD SWAP1 JUMP JUMPDEST PUSH1 0x80 MLOAD PUSH1 0x60 SHR PUSH1 0xA0 MLOAD PUSH1 0xC0 MLOAD PUSH1 0xE0 MLOAD PUSH2 0x225D PUSH3 0x1E7 PUSH1 0x0 CODECOPY DUP1 PUSH2 0x5BD MSTORE DUP1 PUSH2 0x64E MSTORE POP DUP1 PUSH2 0x202 MSTORE POP DUP1 PUSH2 0x672 MSTORE DUP1 PUSH2 0xAB2 MSTORE POP DUP1 PUSH2 0xA51 MSTORE POP PUSH2 0x225D PUSH1 0x0 RETURN INVALID PUSH1 0x80 PUSH1 0x40 MSTORE PUSH1 0x4 CALLDATASIZE LT PUSH2 0xBC JUMPI PUSH1 0x0 CALLDATALOAD PUSH1 0xE0 SHR DUP1 PUSH4 0x8FD3AB80 GT PUSH2 0x74 JUMPI DUP1 PUSH4 0xD036092D GT PUSH2 0x4E JUMPI DUP1 PUSH4 0xD036092D EQ PUSH2 0x1C3 JUMPI DUP1 PUSH4 0xDAB400F3 EQ PUSH2 0x1D8 JUMPI DUP1 PUSH4 0xE4263936 EQ PUSH2 0x1ED JUMPI PUSH2 0xBC JUMP JUMPDEST DUP1 PUSH4 0x8FD3AB80 EQ PUSH2 0x16E JUMPI DUP1 PUSH4 0x9B051818 EQ PUSH2 0x190 JUMPI DUP1 PUSH4 0xAE550497 EQ PUSH2 0x1A3 JUMPI PUSH2 0xBC JUMP JUMPDEST DUP1 PUSH4 0x6AE4B4F7 GT PUSH2 0xA5 JUMPI DUP1 PUSH4 0x6AE4B4F7 EQ PUSH2 0x10C JUMPI DUP1 PUSH4 0x72D17D03 EQ PUSH2 0x12E JUMPI DUP1 PUSH4 0x769250EA EQ PUSH2 0x14E JUMPI PUSH2 0xBC JUMP JUMPDEST DUP1 PUSH4 0x31B905C EQ PUSH2 0xC1 JUMPI DUP1 PUSH4 0x3FB2DA38 EQ PUSH2 0xEC JUMPI JUMPDEST PUSH1 0x0 DUP1 REVERT JUMPDEST CALLVALUE DUP1 ISZERO PUSH2 0xCD JUMPI PUSH1 0x0 DUP1 REVERT JUMPDEST POP PUSH2 0xD6 PUSH2 0x200 JUMP JUMPDEST PUSH1 0x40 MLOAD PUSH2 0xE3 SWAP2 SWAP1 PUSH2 0x1E17 JUMP JUMPDEST PUSH1 0x40 MLOAD DUP1 SWAP2 SUB SWAP1 RETURN JUMPDEST CALLVALUE DUP1 ISZERO PUSH2 0xF8 JUMPI PUSH1 0x0 DUP1 REVERT JUMPDEST POP PUSH2 0xD6 PUSH2 0x107 CALLDATASIZE PUSH1 0x4 PUSH2 0x1BC6 JUMP JUMPDEST PUSH2 0x224 JUMP JUMPDEST CALLVALUE DUP1 ISZERO PUSH2 0x118 JUMPI PUSH1 0x0 DUP1 REVERT JUMPDEST POP PUSH2 0x121 PUSH2 0x238 JUMP JUMPDEST PUSH1 0x40 MLOAD PUSH2 0xE3 SWAP2 SWAP1 PUSH2 0x2032 JUMP JUMPDEST CALLVALUE DUP1 ISZERO PUSH2 0x13A JUMPI PUSH1 0x0 DUP1 REVERT JUMPDEST POP PUSH2 0xD6 PUSH2 0x149 CALLDATASIZE PUSH1 0x4 PUSH2 0x1AB8 JUMP JUMPDEST PUSH2 0x271 JUMP JUMPDEST PUSH2 0x161 PUSH2 0x15C CALLDATASIZE PUSH1 0x4 PUSH2 0x1A07 JUMP JUMPDEST PUSH2 0x28C JUMP JUMPDEST PUSH1 0x40 MLOAD PUSH2 0xE3 SWAP2 SWAP1 PUSH2 0x1D99 JUMP JUMPDEST CALLVALUE DUP1 ISZERO PUSH2 0x17A JUMPI PUSH1 0x0 DUP1 REVERT JUMPDEST POP PUSH2 0x183 PUSH2 0x417 JUMP JUMPDEST PUSH1 0x40 MLOAD PUSH2 0xE3 SWAP2 SWAP1 PUSH2 0x1F8B JUMP JUMPDEST PUSH2 0x121 PUSH2 0x19E CALLDATASIZE PUSH1 0x4 PUSH2 0x1C01 JUMP JUMPDEST PUSH2 0x534 JUMP JUMPDEST CALLVALUE DUP1 ISZERO PUSH2 0x1AF JUMPI PUSH1 0x0 DUP1 REVERT JUMPDEST POP PUSH2 0xD6 PUSH2 0x1BE CALLDATASIZE PUSH1 0x4 PUSH2 0x1BC6 JUMP JUMPDEST PUSH2 0x5B6 JUMP JUMPDEST CALLVALUE DUP1 ISZERO PUSH2 0x1CF JUMPI PUSH1 0x0 DUP1 REVERT JUMPDEST POP PUSH2 0xD6 PUSH2 0x64C JUMP JUMPDEST CALLVALUE DUP1 ISZERO PUSH2 0x1E4 JUMPI PUSH1 0x0 DUP1 REVERT JUMPDEST POP PUSH2 0xD6 PUSH2 0x670 JUMP JUMPDEST PUSH2 0x121 PUSH2 0x1FB CALLDATASIZE PUSH1 0x4 PUSH2 0x1994 JUMP JUMPDEST PUSH2 0x694 JUMP JUMPDEST PUSH32 0x0 DUP2 JUMP JUMPDEST PUSH1 0x0 PUSH2 0x232 PUSH2 0x149 DUP4 PUSH2 0x5B6 JUMP JUMPDEST SWAP3 SWAP2 POP POP JUMP JUMPDEST PUSH1 0x40 MLOAD DUP1 PUSH1 0x40 ADD PUSH1 0x40 MSTORE DUP1 PUSH1 0x10 DUP2 MSTORE PUSH1 0x20 ADD PUSH32 0x4D6574615472616E73616374696F6E7300000000000000000000000000000000 DUP2 MSTORE POP DUP2 JUMP JUMPDEST PUSH1 0x0 PUSH2 0x27B PUSH2 0x6BE JUMP JUMPDEST PUSH1 0x0 SWAP3 DUP4 MSTORE PUSH1 0x20 MSTORE POP PUSH1 0x40 SWAP1 KECCAK256 SLOAD SWAP1 JUMP JUMPDEST PUSH1 0x60 PUSH1 0x1 PUSH1 0x0 PUSH2 0x29A PUSH2 0x6CB JUMP JUMPDEST DUP1 SLOAD SWAP1 SWAP2 POP DUP3 DUP2 AND ISZERO PUSH2 0x2FC JUMPI PUSH2 0x2FC PUSH2 0x2F7 PUSH2 0x2F1 PUSH1 0x0 DUP1 CALLDATASIZE DUP1 DUP1 PUSH1 0x1F ADD PUSH1 0x20 DUP1 SWAP2 DIV MUL PUSH1 0x20 ADD PUSH1 0x40 MLOAD SWAP1 DUP2 ADD PUSH1 0x40 MSTORE DUP1 SWAP4 SWAP3 SWAP2 SWAP1 DUP2 DUP2 MSTORE PUSH1 0x20 ADD DUP4 DUP4 DUP1 DUP3 DUP5 CALLDATACOPY PUSH1 0x0 SWAP3 ADD SWAP2 SWAP1 SWAP2 MSTORE POP SWAP3 SWAP4 SWAP3 POP POP PUSH2 0x6D8 SWAP1 POP JUMP JUMPDEST DUP6 PUSH2 0x724 JUMP JUMPDEST PUSH2 0x7DF JUMP JUMPDEST DUP3 OR DUP2 SSTORE DUP4 MLOAD DUP6 MLOAD EQ PUSH2 0x318 JUMPI PUSH2 0x318 PUSH2 0x2F7 DUP7 MLOAD DUP7 MLOAD PUSH2 0x7E7 JUMP JUMPDEST DUP5 MLOAD PUSH8 0xFFFFFFFFFFFFFFFF DUP2 GT DUP1 ISZERO PUSH2 0x330 JUMPI PUSH1 0x0 DUP1 REVERT JUMPDEST POP PUSH1 0x40 MLOAD SWAP1 DUP1 DUP3 MSTORE DUP1 PUSH1 0x20 MUL PUSH1 0x20 ADD DUP3 ADD PUSH1 0x40 MSTORE DUP1 ISZERO PUSH2 0x364 JUMPI DUP2 PUSH1 0x20 ADD JUMPDEST PUSH1 0x60 DUP2 MSTORE PUSH1 0x20 ADD SWAP1 PUSH1 0x1 SWAP1 SUB SWAP1 DUP2 PUSH2 0x34F JUMPI SWAP1 POP JUMPDEST POP SWAP3 POP PUSH1 0x0 JUMPDEST DUP6 MLOAD DUP2 LT ISZERO PUSH2 0x3C3 JUMPI PUSH2 0x3A4 CALLER DUP8 DUP4 DUP2 MLOAD DUP2 LT PUSH2 0x383 JUMPI INVALID JUMPDEST PUSH1 0x20 MUL PUSH1 0x20 ADD ADD MLOAD DUP8 DUP5 DUP2 MLOAD DUP2 LT PUSH2 0x397 JUMPI INVALID JUMPDEST PUSH1 0x20 MUL PUSH1 0x20 ADD ADD MLOAD PUSH2 0x81D JUMP JUMPDEST DUP5 DUP3 DUP2 MLOAD DUP2 LT PUSH2 0x3B0 JUMPI INVALID JUMPDEST PUSH1 0x20 SWAP1 DUP2 MUL SWAP2 SWAP1 SWAP2 ADD ADD MSTORE PUSH1 0x1 ADD PUSH2 0x36A JUMP JUMPDEST POP PUSH1 0x0 PUSH2 0x3D0 CALLVALUE SELFBALANCE PUSH2 0xA05 JUMP JUMPDEST SWAP1 POP DUP1 ISZERO PUSH2 0x407 JUMPI PUSH1 0x40 MLOAD CALLER SWAP1 DUP3 ISZERO PUSH2 0x8FC MUL SWAP1 DUP4 SWAP1 PUSH1 0x0 DUP2 DUP2 DUP2 DUP6 DUP9 DUP9 CALL SWAP4 POP POP POP POP ISZERO DUP1 ISZERO PUSH2 0x405 JUMPI RETURNDATASIZE PUSH1 0x0 DUP1 RETURNDATACOPY RETURNDATASIZE PUSH1 0x0 REVERT JUMPDEST POP JUMPDEST POP DUP1 SLOAD SWAP2 NOT SWAP1 SWAP2 AND SWAP1 SSTORE SWAP3 SWAP2 POP POP JUMP JUMPDEST PUSH1 0x0 PUSH2 0x442 PUSH32 0x9B05181800000000000000000000000000000000000000000000000000000000 PUSH2 0xA1B JUMP JUMPDEST PUSH2 0x46B PUSH32 0x769250EA00000000000000000000000000000000000000000000000000000000 PUSH2 0xA1B JUMP JUMPDEST PUSH2 0x494 PUSH32 0xE426393600000000000000000000000000000000000000000000000000000000 PUSH2 0xA1B JUMP JUMPDEST PUSH2 0x4BD PUSH32 0x3FB2DA3800000000000000000000000000000000000000000000000000000000 PUSH2 0xA1B JUMP JUMPDEST PUSH2 0x4E6 PUSH32 0x72D17D0300000000000000000000000000000000000000000000000000000000 PUSH2 0xA1B JUMP JUMPDEST PUSH2 0x50F PUSH32 0xAE55049700000000000000000000000000000000000000000000000000000000 PUSH2 0xA1B JUMP JUMPDEST POP PUSH32 0x2C64C5EF00000000000000000000000000000000000000000000000000000000 SWAP1 JUMP JUMPDEST PUSH1 0x60 PUSH1 0x1 PUSH1 0x0 PUSH2 0x542 PUSH2 0x6CB JUMP JUMPDEST DUP1 SLOAD SWAP1 SWAP2 POP DUP3 DUP2 AND ISZERO PUSH2 0x599 JUMPI PUSH2 0x599 PUSH2 0x2F7 PUSH2 0x2F1 PUSH1 0x0 DUP1 CALLDATASIZE DUP1 DUP1 PUSH1 0x1F ADD PUSH1 0x20 DUP1 SWAP2 DIV MUL PUSH1 0x20 ADD PUSH1 0x40 MLOAD SWAP1 DUP2 ADD PUSH1 0x40 MSTORE DUP1 SWAP4 SWAP3 SWAP2 SWAP1 DUP2 DUP2 MSTORE PUSH1 0x20 ADD DUP4 DUP4 DUP1 DUP3 DUP5 CALLDATACOPY PUSH1 0x0 SWAP3 ADD SWAP2 SWAP1 SWAP2 MSTORE POP SWAP3 SWAP4 SWAP3 POP POP PUSH2 0x6D8 SWAP1 POP JUMP JUMPDEST DUP3 OR DUP2 SSTORE PUSH2 0x5A8 CALLER DUP7 DUP7 PUSH2 0x81D JUMP JUMPDEST SWAP3 POP PUSH1 0x0 PUSH2 0x3D0 CALLVALUE SELFBALANCE PUSH2 0xA05 JUMP JUMPDEST PUSH1 0x0 PUSH2 0x232 PUSH32 0x0 DUP4 PUSH1 0x0 ADD MLOAD DUP5 PUSH1 0x20 ADD MLOAD DUP6 PUSH1 0x40 ADD MLOAD DUP7 PUSH1 0x60 ADD MLOAD DUP8 PUSH1 0x80 ADD MLOAD DUP9 PUSH1 0xA0 ADD MLOAD DUP10 PUSH1 0xC0 ADD MLOAD DUP1 MLOAD SWAP1 PUSH1 0x20 ADD KECCAK256 DUP11 PUSH1 0xE0 ADD MLOAD DUP12 PUSH2 0x100 ADD MLOAD DUP13 PUSH2 0x120 ADD MLOAD PUSH1 0x40 MLOAD PUSH1 0x20 ADD PUSH2 0x631 SWAP12 SWAP11 SWAP10 SWAP9 SWAP8 SWAP7 SWAP6 SWAP5 SWAP4 SWAP3 SWAP2 SWAP1 PUSH2 0x1E4C JUMP JUMPDEST PUSH1 0x40 MLOAD PUSH1 0x20 DUP2 DUP4 SUB SUB DUP2 MSTORE SWAP1 PUSH1 0x40 MSTORE DUP1 MLOAD SWAP1 PUSH1 0x20 ADD KECCAK256 PUSH2 0xAAE JUMP JUMPDEST PUSH32 0x0 DUP2 JUMP JUMPDEST PUSH32 0x0 DUP2 JUMP JUMPDEST PUSH1 0x60 CALLER ADDRESS EQ PUSH2 0x6A9 JUMPI PUSH2 0x6A9 PUSH2 0x2F7 CALLER PUSH2 0xB00 JUMP JUMPDEST PUSH2 0x6B4 DUP5 DUP5 DUP5 PUSH2 0x81D JUMP JUMPDEST SWAP1 POP JUMPDEST SWAP4 SWAP3 POP POP POP JUMP JUMPDEST PUSH1 0x0 DUP1 PUSH2 0x232 PUSH1 0x5 PUSH2 0xBB8 JUMP JUMPDEST PUSH1 0x0 DUP1 PUSH2 0x232 PUSH1 0x6 PUSH2 0xBB8 JUMP JUMPDEST PUSH1 0x0 DUP2 PUSH1 0x4 ADD DUP4 MLOAD LT ISZERO PUSH2 0x6F9 JUMPI PUSH2 0x6F9 PUSH2 0x2F7 PUSH1 0x3 DUP6 MLOAD DUP6 PUSH1 0x4 ADD PUSH2 0xBD3 JUMP JUMPDEST POP ADD PUSH1 0x20 ADD MLOAD PUSH32 0xFFFFFFFF00000000000000000000000000000000000000000000000000000000 AND SWAP1 JUMP JUMPDEST PUSH1 0x60 PUSH32 0xC7A7103E21E41A5C3158B3028D34CB9BB9593B10B1892F49D7187EFA71219D4E DUP4 DUP4 PUSH1 0x40 MLOAD PUSH1 0x24 ADD PUSH2 0x75A SWAP3 SWAP2 SWAP1 PUSH2 0x2000 JUMP JUMPDEST PUSH1 0x40 DUP1 MLOAD PUSH32 0xFFFFFFFFFFFFFFFFFFFFFFFFFFFFFFFFFFFFFFFFFFFFFFFFFFFFFFFFFFFFFFE0 DUP2 DUP5 SUB ADD DUP2 MSTORE SWAP2 SWAP1 MSTORE PUSH1 0x20 DUP2 ADD DUP1 MLOAD PUSH28 0xFFFFFFFFFFFFFFFFFFFFFFFFFFFFFFFFFFFFFFFFFFFFFFFFFFFFFFFF AND PUSH32 0xFFFFFFFF00000000000000000000000000000000000000000000000000000000 SWAP1 SWAP4 AND SWAP3 SWAP1 SWAP3 OR SWAP1 SWAP2 MSTORE SWAP1 POP SWAP3 SWAP2 POP POP JUMP JUMPDEST DUP1 MLOAD PUSH1 0x20 DUP3 ADD REVERT JUMPDEST PUSH1 0x60 PUSH32 0x52974C3A86E985173F72E2FB84BA2BFCA8FB3B7C5031EB8077EBD59458ABF2A4 DUP4 DUP4 PUSH1 0x40 MLOAD PUSH1 0x24 ADD PUSH2 0x75A SWAP3 SWAP2 SWAP1 PUSH2 0x1F4C JUMP JUMPDEST PUSH1 0x60 PUSH2 0x827 PUSH2 0x1622 JUMP JUMPDEST PUSH20 0xFFFFFFFFFFFFFFFFFFFFFFFFFFFFFFFFFFFFFFFF DUP6 AND DUP2 MSTORE PUSH2 0x849 DUP5 PUSH2 0x5B6 JUMP JUMPDEST PUSH1 0x20 DUP3 ADD MSTORE PUSH1 0x40 DUP2 ADD DUP5 SWAP1 MSTORE PUSH1 0x60 DUP2 ADD DUP4 SWAP1 MSTORE PUSH2 0x865 DUP2 PUSH2 0xC78 JUMP JUMPDEST NUMBER PUSH2 0x86E PUSH2 0x6BE JUMP JUMPDEST PUSH1 0x20 DUP1 DUP5 ADD MLOAD PUSH1 0x0 SWAP1 DUP2 MSTORE SWAP2 SWAP1 MSTORE PUSH1 0x40 SWAP1 KECCAK256 SSTORE PUSH2 0x120 DUP5 ADD MLOAD ISZERO PUSH2 0x90D JUMPI PUSH2 0x100 DUP5 ADD MLOAD DUP5 MLOAD PUSH2 0x120 DUP7 ADD MLOAD PUSH1 0x40 MLOAD PUSH32 0x89DD02E700000000000000000000000000000000000000000000000000000000 DUP2 MSTORE ADDRESS SWAP4 PUSH4 0x89DD02E7 SWAP4 PUSH2 0x8DA SWAP4 SWAP2 SWAP3 SWAP1 SWAP2 DUP12 SWAP2 PUSH1 0x4 ADD PUSH2 0x2045 JUMP JUMPDEST PUSH1 0x0 PUSH1 0x40 MLOAD DUP1 DUP4 SUB DUP2 PUSH1 0x0 DUP8 DUP1 EXTCODESIZE ISZERO DUP1 ISZERO PUSH2 0x8F4 JUMPI PUSH1 0x0 DUP1 REVERT JUMPDEST POP GAS CALL ISZERO DUP1 ISZERO PUSH2 0x908 JUMPI RETURNDATASIZE PUSH1 0x0 DUP1 RETURNDATACOPY RETURNDATASIZE PUSH1 0x0 REVERT JUMPDEST POP POP POP POP JUMPDEST PUSH1 0xC0 DUP5 ADD MLOAD PUSH2 0x91D SWAP1 PUSH1 0x0 PUSH2 0x6D8 JUMP JUMPDEST PUSH32 0xFFFFFFFF00000000000000000000000000000000000000000000000000000000 AND PUSH1 0x80 DUP3 ADD DUP2 SWAP1 MSTORE PUSH32 0x415565B000000000000000000000000000000000000000000000000000000000 EQ ISZERO PUSH2 0x97D JUMPI PUSH2 0x976 DUP2 PUSH2 0xEA3 JUMP JUMPDEST SWAP2 POP PUSH2 0x992 JUMP JUMPDEST PUSH2 0x992 PUSH2 0x2F7 DUP3 PUSH1 0x20 ADD MLOAD DUP4 PUSH1 0x80 ADD MLOAD PUSH2 0x10D9 JUMP JUMPDEST DUP1 PUSH1 0x80 ADD MLOAD PUSH28 0xFFFFFFFFFFFFFFFFFFFFFFFFFFFFFFFFFFFFFFFFFFFFFFFFFFFFFFFF NOT AND PUSH32 0x7F4FE3FF8AE440E1570C558DA08440B26F89FB1C1F2910CD91CA6452955F121A DUP3 PUSH1 0x20 ADD MLOAD DUP7 PUSH1 0x0 ADD MLOAD DUP8 PUSH1 0x20 ADD MLOAD PUSH1 0x40 MLOAD PUSH2 0x9F5 SWAP4 SWAP3 SWAP2 SWAP1 PUSH2 0x1E20 JUMP JUMPDEST PUSH1 0x40 MLOAD DUP1 SWAP2 SUB SWAP1 LOG2 POP SWAP4 SWAP3 POP POP POP JUMP JUMPDEST PUSH1 0x0 DUP2 DUP4 LT PUSH2 0xA14 JUMPI DUP2 PUSH2 0x6B7 JUMP JUMPDEST POP SWAP1 SWAP2 SWAP1 POP JUMP JUMPDEST PUSH1 0x40 MLOAD PUSH32 0x6EB224CB00000000000000000000000000000000000000000000000000000000 DUP2 MSTORE ADDRESS SWAP1 PUSH4 0x6EB224CB SWAP1 PUSH2 0xA79 SWAP1 DUP5 SWAP1 PUSH32 0x0 SWAP1 PUSH1 0x4 ADD PUSH2 0x1FB8 JUMP JUMPDEST PUSH1 0x0 PUSH1 0x40 MLOAD DUP1 DUP4 SUB DUP2 PUSH1 0x0 DUP8 DUP1 EXTCODESIZE ISZERO DUP1 ISZERO PUSH2 0xA93 JUMPI PUSH1 0x0 DUP1 REVERT JUMPDEST POP GAS CALL ISZERO DUP1 ISZERO PUSH2 0xAA7 JUMPI RETURNDATASIZE PUSH1 0x0 DUP1 RETURNDATACOPY RETURNDATASIZE PUSH1 0x0 REVERT JUMPDEST POP POP POP POP POP JUMP JUMPDEST PUSH1 0x0 PUSH32 0x0 DUP3 PUSH1 0x40 MLOAD PUSH1 0x20 ADD PUSH2 0xAE3 SWAP3 SWAP2 SWAP1 PUSH2 0x1D42 JUMP JUMPDEST PUSH1 0x40 MLOAD PUSH1 0x20 DUP2 DUP4 SUB SUB DUP2 MSTORE SWAP1 PUSH1 0x40 MSTORE DUP1 MLOAD SWAP1 PUSH1 0x20 ADD KECCAK256 SWAP1 POP SWAP2 SWAP1 POP JUMP JUMPDEST PUSH1 0x60 PUSH32 0xF0EC779B0BCDA6D84ABF99EE2C67647D1100EBBB553A9C2D1C2BA1579592832C DUP3 PUSH1 0x40 MLOAD PUSH1 0x24 ADD PUSH2 0xB34 SWAP2 SWAP1 PUSH2 0x1D78 JUMP JUMPDEST PUSH1 0x40 DUP1 MLOAD PUSH32 0xFFFFFFFFFFFFFFFFFFFFFFFFFFFFFFFFFFFFFFFFFFFFFFFFFFFFFFFFFFFFFFE0 DUP2 DUP5 SUB ADD DUP2 MSTORE SWAP2 SWAP1 MSTORE PUSH1 0x20 DUP2 ADD DUP1 MLOAD PUSH28 0xFFFFFFFFFFFFFFFFFFFFFFFFFFFFFFFFFFFFFFFFFFFFFFFFFFFFFFFF AND PUSH32 0xFFFFFFFF00000000000000000000000000000000000000000000000000000000 SWAP1 SWAP4 AND SWAP3 SWAP1 SWAP3 OR SWAP1 SWAP2 MSTORE SWAP1 POP SWAP2 SWAP1 POP JUMP JUMPDEST PUSH1 0x0 PUSH1 0x80 DUP3 PUSH1 0x7 DUP2 GT ISZERO PUSH2 0xBC8 JUMPI INVALID JUMPDEST PUSH1 0x1 ADD SWAP1 SHL SWAP3 SWAP2 POP POP JUMP JUMPDEST PUSH1 0x60 PUSH4 0x28006595 PUSH1 0xE0 SHL DUP5 DUP5 DUP5 PUSH1 0x40 MLOAD PUSH1 0x24 ADD PUSH2 0xBF2 SWAP4 SWAP3 SWAP2 SWAP1 PUSH2 0x207C JUMP JUMPDEST PUSH1 0x40 DUP1 MLOAD PUSH32 0xFFFFFFFFFFFFFFFFFFFFFFFFFFFFFFFFFFFFFFFFFFFFFFFFFFFFFFFFFFFFFFE0 DUP2 DUP5 SUB ADD DUP2 MSTORE SWAP2 SWAP1 MSTORE PUSH1 0x20 DUP2 ADD DUP1 MLOAD PUSH28 0xFFFFFFFFFFFFFFFFFFFFFFFFFFFFFFFFFFFFFFFFFFFFFFFFFFFFFFFF AND PUSH32 0xFFFFFFFF00000000000000000000000000000000000000000000000000000000 SWAP1 SWAP4 AND SWAP3 SWAP1 SWAP3 OR SWAP1 SWAP2 MSTORE SWAP1 POP SWAP4 SWAP3 POP POP POP JUMP JUMPDEST PUSH1 0x40 DUP2 ADD MLOAD PUSH1 0x20 ADD MLOAD PUSH20 0xFFFFFFFFFFFFFFFFFFFFFFFFFFFFFFFFFFFFFFFF AND ISZERO DUP1 ISZERO SWAP1 PUSH2 0xCDD JUMPI POP DUP1 PUSH1 0x0 ADD MLOAD PUSH20 0xFFFFFFFFFFFFFFFFFFFFFFFFFFFFFFFFFFFFFFFF AND DUP2 PUSH1 0x40 ADD MLOAD PUSH1 0x20 ADD MLOAD PUSH20 0xFFFFFFFFFFFFFFFFFFFFFFFFFFFFFFFFFFFFFFFF AND EQ ISZERO JUMPDEST ISZERO PUSH2 0xD00 JUMPI PUSH2 0xD00 PUSH2 0x2F7 DUP3 PUSH1 0x20 ADD MLOAD DUP4 PUSH1 0x0 ADD MLOAD DUP5 PUSH1 0x40 ADD MLOAD PUSH1 0x20 ADD MLOAD PUSH2 0x110F JUMP JUMPDEST TIMESTAMP DUP2 PUSH1 0x40 ADD MLOAD PUSH1 0x80 ADD MLOAD GT PUSH2 0xD29 JUMPI PUSH2 0xD29 PUSH2 0x2F7 DUP3 PUSH1 0x20 ADD MLOAD TIMESTAMP DUP5 PUSH1 0x40 ADD MLOAD PUSH1 0x80 ADD MLOAD PUSH2 0x1147 JUMP JUMPDEST GASPRICE DUP2 PUSH1 0x40 ADD MLOAD PUSH1 0x40 ADD MLOAD GT DUP1 PUSH2 0xD46 JUMPI POP GASPRICE DUP2 PUSH1 0x40 ADD MLOAD PUSH1 0x60 ADD MLOAD LT JUMPDEST ISZERO PUSH2 0xD6E JUMPI PUSH2 0xD6E PUSH2 0x2F7 DUP3 PUSH1 0x20 ADD MLOAD GASPRICE DUP5 PUSH1 0x40 ADD MLOAD PUSH1 0x40 ADD MLOAD DUP6 PUSH1 0x40 ADD MLOAD PUSH1 0x60 ADD MLOAD PUSH2 0x117F JUMP JUMPDEST SELFBALANCE PUSH1 0xA0 DUP3 ADD DUP2 SWAP1 MSTORE PUSH1 0x40 DUP3 ADD MLOAD PUSH1 0xE0 ADD MLOAD GT ISZERO PUSH2 0xDA3 JUMPI PUSH2 0xDA3 PUSH2 0x2F7 DUP3 PUSH1 0x20 ADD MLOAD DUP4 PUSH1 0xA0 ADD MLOAD DUP5 PUSH1 0x40 ADD MLOAD PUSH1 0xE0 ADD MLOAD PUSH2 0x1240 JUMP JUMPDEST PUSH1 0x20 DUP2 ADD MLOAD PUSH1 0x40 DUP1 DUP4 ADD MLOAD MLOAD PUSH1 0x60 DUP5 ADD MLOAD SWAP2 MLOAD PUSH32 0xF68FD38D00000000000000000000000000000000000000000000000000000000 DUP2 MSTORE ADDRESS SWAP4 PUSH4 0xF68FD38D SWAP4 PUSH2 0xDEF SWAP4 SWAP2 SWAP3 PUSH1 0x4 ADD PUSH2 0x1EB2 JUMP JUMPDEST PUSH1 0x0 PUSH1 0x40 MLOAD DUP1 DUP4 SUB DUP2 DUP7 DUP1 EXTCODESIZE ISZERO DUP1 ISZERO PUSH2 0xE07 JUMPI PUSH1 0x0 DUP1 REVERT JUMPDEST POP GAS STATICCALL SWAP3 POP POP POP DUP1 ISZERO PUSH2 0xE18 JUMPI POP PUSH1 0x1 JUMPDEST PUSH2 0xE64 JUMPI RETURNDATASIZE DUP1 DUP1 ISZERO PUSH2 0xE46 JUMPI PUSH1 0x40 MLOAD SWAP2 POP PUSH1 0x1F NOT PUSH1 0x3F RETURNDATASIZE ADD AND DUP3 ADD PUSH1 0x40 MSTORE RETURNDATASIZE DUP3 MSTORE RETURNDATASIZE PUSH1 0x0 PUSH1 0x20 DUP5 ADD RETURNDATACOPY PUSH2 0xE4B JUMP JUMPDEST PUSH1 0x60 SWAP2 POP JUMPDEST POP PUSH2 0xE62 PUSH2 0x2F7 DUP4 PUSH1 0x20 ADD MLOAD DUP5 PUSH1 0x60 ADD MLOAD DUP5 PUSH2 0x1278 JUMP JUMPDEST POP JUMPDEST PUSH2 0xE6C PUSH2 0x6BE JUMP JUMPDEST PUSH1 0x20 DUP1 DUP4 ADD MLOAD PUSH1 0x0 SWAP1 DUP2 MSTORE SWAP2 SWAP1 MSTORE PUSH1 0x40 SWAP1 KECCAK256 SLOAD PUSH1 0xC0 DUP3 ADD DUP2 SWAP1 MSTORE ISZERO PUSH2 0xEA0 JUMPI PUSH2 0xEA0 PUSH2 0x2F7 DUP3 PUSH1 0x20 ADD MLOAD DUP4 PUSH1 0xC0 ADD MLOAD PUSH2 0x12B0 JUMP JUMPDEST POP JUMP JUMPDEST PUSH1 0x60 PUSH2 0xEAD PUSH2 0x1682 JUMP JUMPDEST PUSH1 0x40 DUP4 ADD MLOAD PUSH1 0xC0 ADD MLOAD MLOAD PUSH1 0x60 SWAP1 PUSH1 0x1C ADD PUSH8 0xFFFFFFFFFFFFFFFF DUP2 GT DUP1 ISZERO PUSH2 0xED3 JUMPI PUSH1 0x0 DUP1 REVERT JUMPDEST POP PUSH1 0x40 MLOAD SWAP1 DUP1 DUP3 MSTORE DUP1 PUSH1 0x1F ADD PUSH1 0x1F NOT AND PUSH1 0x20 ADD DUP3 ADD PUSH1 0x40 MSTORE DUP1 ISZERO PUSH2 0xEFE JUMPI PUSH1 0x20 DUP3 ADD DUP2 DUP1 CALLDATASIZE DUP4 CALLDATACOPY ADD SWAP1 POP JUMPDEST POP SWAP1 POP PUSH1 0x60 DUP5 PUSH1 0x40 ADD MLOAD PUSH1 0xC0 ADD MLOAD SWAP1 POP PUSH1 0xA0 DUP2 MLOAD LT ISZERO PUSH2 0xF1A JUMPI INVALID JUMPDEST PUSH1 0x20 DUP3 DUP2 ADD MSTORE DUP1 MLOAD PUSH1 0x24 DUP3 ADD SWAP1 PUSH1 0x40 DUP5 ADD SWAP1 PUSH2 0xF5B SWAP1 DUP3 SWAP1 DUP5 SWAP1 PUSH32 0xFFFFFFFFFFFFFFFFFFFFFFFFFFFFFFFFFFFFFFFFFFFFFFFFFFFFFFFFFFFFFFFC ADD PUSH2 0x12E6 JUMP JUMPDEST DUP4 DUP1 PUSH1 0x20 ADD SWAP1 MLOAD DUP2 ADD SWAP1 PUSH2 0xF6F SWAP2 SWAP1 PUSH2 0x1AD0 JUMP JUMPDEST SWAP5 POP POP POP POP POP PUSH1 0x0 PUSH1 0x60 PUSH2 0xF8A DUP6 PUSH1 0x40 ADD MLOAD PUSH1 0xC0 ADD MLOAD PUSH2 0x13C7 JUMP JUMPDEST SWAP2 POP SWAP2 POP PUSH2 0x10D0 DUP6 PUSH1 0x20 ADD MLOAD PUSH4 0xC853C969 PUSH1 0xE0 SHL PUSH1 0x40 MLOAD DUP1 PUSH2 0x100 ADD PUSH1 0x40 MSTORE DUP1 DUP10 PUSH1 0x40 ADD MLOAD PUSH1 0x0 ADD MLOAD PUSH20 0xFFFFFFFFFFFFFFFFFFFFFFFFFFFFFFFFFFFFFFFF AND DUP2 MSTORE PUSH1 0x20 ADD DUP8 PUSH1 0x0 ADD MLOAD PUSH20 0xFFFFFFFFFFFFFFFFFFFFFFFFFFFFFFFFFFFFFFFF AND DUP2 MSTORE PUSH1 0x20 ADD DUP8 PUSH1 0x20 ADD MLOAD PUSH20 0xFFFFFFFFFFFFFFFFFFFFFFFFFFFFFFFFFFFFFFFF AND DUP2 MSTORE PUSH1 0x20 ADD DUP8 PUSH1 0x40 ADD MLOAD DUP2 MSTORE PUSH1 0x20 ADD DUP8 PUSH1 0x60 ADD MLOAD DUP2 MSTORE PUSH1 0x20 ADD DUP8 PUSH1 0x80 ADD MLOAD DUP2 MSTORE PUSH1 0x20 ADD DUP7 DUP2 MSTORE PUSH1 0x20 ADD DUP6 DUP2 MSTORE POP PUSH1 0x40 MLOAD PUSH1 0x24 ADD PUSH2 0x1046 SWAP2 SWAP1 PUSH2 0x209E JUMP JUMPDEST PUSH1 0x40 DUP1 MLOAD PUSH32 0xFFFFFFFFFFFFFFFFFFFFFFFFFFFFFFFFFFFFFFFFFFFFFFFFFFFFFFFFFFFFFFE0 DUP2 DUP5 SUB ADD DUP2 MSTORE SWAP2 DUP2 MSTORE PUSH1 0x20 DUP3 ADD DUP1 MLOAD PUSH28 0xFFFFFFFFFFFFFFFFFFFFFFFFFFFFFFFFFFFFFFFFFFFFFFFFFFFFFFFF AND PUSH32 0xFFFFFFFF00000000000000000000000000000000000000000000000000000000 SWAP1 SWAP5 AND SWAP4 SWAP1 SWAP4 OR SWAP1 SWAP3 MSTORE SWAP1 DUP9 ADD MLOAD PUSH1 0xE0 ADD MLOAD PUSH2 0x14C1 JUMP JUMPDEST SWAP6 SWAP5 POP POP POP POP POP JUMP JUMPDEST PUSH1 0x60 PUSH32 0x547A32A328D8A78DBE9BF090FA60BA3D4D1C6833A592A2C942666CE3249C1210 DUP4 DUP4 PUSH1 0x40 MLOAD PUSH1 0x24 ADD PUSH2 0x75A SWAP3 SWAP2 SWAP1 PUSH2 0x1EE7 JUMP JUMPDEST PUSH1 0x60 PUSH32 0xA78002A166FCAE5236D89E3FF35C53DADB775F7818DE4A020714CBA4BF360822 DUP5 DUP5 DUP5 PUSH1 0x40 MLOAD PUSH1 0x24 ADD PUSH2 0xBF2 SWAP4 SWAP3 SWAP2 SWAP1 PUSH2 0x1E20 JUMP JUMPDEST PUSH1 0x60 PUSH32 0xBEA726EFDF9868BBC5755DCE9F13D585B3CF731177BE75300D15BB8F5E286158 DUP5 DUP5 DUP5 PUSH1 0x40 MLOAD PUSH1 0x24 ADD PUSH2 0xBF2 SWAP4 SWAP3 SWAP2 SWAP1 PUSH2 0x1F5A JUMP JUMPDEST PUSH1 0x60 PUSH32 0x6FEC11A99EBB0FF14B6648F609F57864DADEBA8B29869C4DF2B3B76894147849 DUP6 DUP6 DUP6 DUP6 PUSH1 0x40 MLOAD PUSH1 0x24 ADD PUSH2 0x11B9 SWAP5 SWAP4 SWAP3 SWAP2 SWAP1 PUSH2 0x1F70 JUMP JUMPDEST PUSH1 0x40 DUP1 MLOAD PUSH32 0xFFFFFFFFFFFFFFFFFFFFFFFFFFFFFFFFFFFFFFFFFFFFFFFFFFFFFFFFFFFFFFE0 DUP2 DUP5 SUB ADD DUP2 MSTORE SWAP2 SWAP1 MSTORE PUSH1 0x20 DUP2 ADD DUP1 MLOAD PUSH28 0xFFFFFFFFFFFFFFFFFFFFFFFFFFFFFFFFFFFFFFFFFFFFFFFFFFFFFFFF AND PUSH32 0xFFFFFFFF00000000000000000000000000000000000000000000000000000000 SWAP1 SWAP4 AND SWAP3 SWAP1 SWAP3 OR SWAP1 SWAP2 MSTORE SWAP1 POP SWAP5 SWAP4 POP POP POP POP JUMP JUMPDEST PUSH1 0x60 PUSH32 0xA5ADE45208123132815E1591A1C7E64045FD006152F5E85D100AEE42BA02C75 DUP5 DUP5 DUP5 PUSH1 0x40 MLOAD PUSH1 0x24 ADD PUSH2 0xBF2 SWAP4 SWAP3 SWAP2 SWAP1 PUSH2 0x1F5A JUMP JUMPDEST PUSH1 0x60 PUSH32 0x6B99CF1D367DBDBC495802261A500BF6E1319CFA7ECAA23AE929F5CD4C70795 DUP5 DUP5 DUP5 PUSH1 0x40 MLOAD PUSH1 0x24 ADD PUSH2 0xBF2 SWAP4 SWAP3 SWAP2 SWAP1 PUSH2 0x1F17 JUMP JUMPDEST PUSH1 0x60 PUSH32 0xFE251A07F3CBFFD23C1C1DB9EC776D259099C832333D99EF48CACFA93A4D7B32 DUP4 DUP4 PUSH1 0x40 MLOAD PUSH1 0x24 ADD PUSH2 0x75A SWAP3 SWAP2 SWAP1 PUSH2 0x1F4C JUMP JUMPDEST PUSH1 0x20 DUP2 LT ISZERO PUSH2 0x132D JUMPI DUP2 MLOAD DUP4 MLOAD PUSH1 0x20 DUP4 SWAP1 SUB PUSH2 0x100 EXP PUSH32 0xFFFFFFFFFFFFFFFFFFFFFFFFFFFFFFFFFFFFFFFFFFFFFFFFFFFFFFFFFFFFFFFF ADD DUP1 NOT SWAP1 SWAP3 AND SWAP2 AND OR DUP4 MSTORE PUSH2 0x13C2 JUMP JUMPDEST DUP3 DUP3 EQ ISZERO PUSH2 0x133A JUMPI PUSH2 0x13C2 JUMP JUMPDEST DUP3 DUP3 GT ISZERO PUSH2 0x1374 JUMPI PUSH1 0x20 DUP2 SUB SWAP1 POP DUP1 DUP3 ADD DUP2 DUP5 ADD DUP2 MLOAD JUMPDEST DUP3 DUP6 LT ISZERO PUSH2 0x136C JUMPI DUP5 MLOAD DUP7 MSTORE PUSH1 0x20 SWAP6 DUP7 ADD SWAP6 SWAP1 SWAP5 ADD SWAP4 PUSH2 0x1351 JUMP JUMPDEST SWAP1 MSTORE POP PUSH2 0x13C2 JUMP JUMPDEST PUSH1 0x20 DUP2 SUB SWAP1 POP DUP1 DUP3 ADD DUP2 DUP5 ADD DUP4 MLOAD JUMPDEST DUP2 DUP7 SLT ISZERO PUSH2 0x13BD JUMPI DUP3 MLOAD DUP3 MSTORE PUSH32 0xFFFFFFFFFFFFFFFFFFFFFFFFFFFFFFFFFFFFFFFFFFFFFFFFFFFFFFFFFFFFFFE0 SWAP3 DUP4 ADD SWAP3 SWAP1 SWAP2 ADD SWAP1 PUSH2 0x1383 JUMP JUMPDEST DUP6 MSTORE POP POP JUMPDEST POP POP POP JUMP JUMPDEST PUSH1 0x0 PUSH1 0x60 PUSH1 0x46 DUP4 MLOAD LT DUP1 PUSH2 0x144B JUMPI POP DUP3 MLOAD PUSH2 0x1405 SWAP1 DUP5 SWAP1 PUSH32 0xFFFFFFFFFFFFFFFFFFFFFFFFFFFFFFFFFFFFFFFFFFFFFFFFFFFFFFFFFFFFFFBA ADD PUSH2 0x6D8 JUMP JUMPDEST PUSH32 0xFFFFFFFF00000000000000000000000000000000000000000000000000000000 AND PUSH32 0xF86D1D9200000000000000000000000000000000000000000000000000000000 EQ ISZERO JUMPDEST ISZERO PUSH2 0x145E JUMPI DUP3 MLOAD PUSH1 0x20 DUP5 ADD KECCAK256 SWAP2 POP PUSH2 0x14BC JUMP JUMPDEST DUP3 MLOAD PUSH32 0xFFFFFFFFFFFFFFFFFFFFFFFFFFFFFFFFFFFFFFFFFFFFFFFFFFFFFFFFFFFFFFBA DUP2 ADD PUSH1 0x20 DUP6 ADD KECCAK256 SWAP3 POP PUSH2 0x14B9 SWAP1 DUP5 SWAP1 PUSH32 0xFFFFFFFFFFFFFFFFFFFFFFFFFFFFFFFFFFFFFFFFFFFFFFFFFFFFFFFFFFFFFFBE DUP2 ADD SWAP1 PUSH2 0x154D JUMP JUMPDEST SWAP1 POP JUMPDEST SWAP2 POP SWAP2 JUMP JUMPDEST PUSH1 0x60 PUSH1 0x0 ADDRESS PUSH20 0xFFFFFFFFFFFFFFFFFFFFFFFFFFFFFFFFFFFFFFFF AND DUP4 DUP6 PUSH1 0x40 MLOAD PUSH2 0x14EB SWAP2 SWAP1 PUSH2 0x1D26 JUMP JUMPDEST PUSH1 0x0 PUSH1 0x40 MLOAD DUP1 DUP4 SUB DUP2 DUP6 DUP8 GAS CALL SWAP3 POP POP POP RETURNDATASIZE DUP1 PUSH1 0x0 DUP2 EQ PUSH2 0x1528 JUMPI PUSH1 0x40 MLOAD SWAP2 POP PUSH1 0x1F NOT PUSH1 0x3F RETURNDATASIZE ADD AND DUP3 ADD PUSH1 0x40 MSTORE RETURNDATASIZE DUP3 MSTORE RETURNDATASIZE PUSH1 0x0 PUSH1 0x20 DUP5 ADD RETURNDATACOPY PUSH2 0x152D JUMP JUMPDEST PUSH1 0x60 SWAP2 POP JUMPDEST POP SWAP3 POP SWAP1 POP DUP1 PUSH2 0x1545 JUMPI PUSH2 0x1545 PUSH2 0x2F7 DUP7 DUP7 DUP6 PUSH2 0x15E4 JUMP JUMPDEST POP SWAP4 SWAP3 POP POP POP JUMP JUMPDEST PUSH1 0x60 DUP2 DUP4 GT ISZERO PUSH2 0x1566 JUMPI PUSH2 0x1566 PUSH2 0x2F7 PUSH1 0x0 DUP6 DUP6 PUSH2 0xBD3 JUMP JUMPDEST DUP4 MLOAD DUP3 GT ISZERO PUSH2 0x157F JUMPI PUSH2 0x157F PUSH2 0x2F7 PUSH1 0x1 DUP5 DUP8 MLOAD PUSH2 0xBD3 JUMP JUMPDEST DUP3 DUP3 SUB PUSH8 0xFFFFFFFFFFFFFFFF DUP2 GT DUP1 ISZERO PUSH2 0x1598 JUMPI PUSH1 0x0 DUP1 REVERT JUMPDEST POP PUSH1 0x40 MLOAD SWAP1 DUP1 DUP3 MSTORE DUP1 PUSH1 0x1F ADD PUSH1 0x1F NOT AND PUSH1 0x20 ADD DUP3 ADD PUSH1 0x40 MSTORE DUP1 ISZERO PUSH2 0x15C3 JUMPI PUSH1 0x20 DUP3 ADD DUP2 DUP1 CALLDATASIZE DUP4 CALLDATACOPY ADD SWAP1 POP JUMPDEST POP SWAP1 POP PUSH2 0x6B7 PUSH2 0x15D2 DUP3 PUSH2 0x161C JUMP JUMPDEST DUP5 PUSH2 0x15DC DUP8 PUSH2 0x161C JUMP JUMPDEST ADD DUP4 MLOAD PUSH2 0x12E6 JUMP JUMPDEST PUSH1 0x60 PUSH32 0xA9F0C547643C02AFED4CF2699E794BC383EFFCA840EED62FDDB64A15A4E55BC4 DUP5 DUP5 DUP5 PUSH1 0x40 MLOAD PUSH1 0x24 ADD PUSH2 0xBF2 SWAP4 SWAP3 SWAP2 SWAP1 PUSH2 0x1F17 JUMP JUMPDEST PUSH1 0x20 ADD SWAP1 JUMP JUMPDEST PUSH1 0x40 DUP1 MLOAD PUSH1 0xE0 DUP2 ADD DUP3 MSTORE PUSH1 0x0 DUP1 DUP3 MSTORE PUSH1 0x20 DUP3 ADD MSTORE SWAP1 DUP2 ADD PUSH2 0x1641 PUSH2 0x16DD JUMP JUMPDEST DUP2 MSTORE PUSH1 0x20 ADD PUSH1 0x60 DUP2 MSTORE PUSH1 0x20 ADD PUSH1 0x0 PUSH28 0xFFFFFFFFFFFFFFFFFFFFFFFFFFFFFFFFFFFFFFFFFFFFFFFFFFFFFFFF NOT AND DUP2 MSTORE PUSH1 0x20 ADD PUSH1 0x0 DUP2 MSTORE PUSH1 0x20 ADD PUSH1 0x0 DUP2 MSTORE POP SWAP1 JUMP JUMPDEST PUSH1 0x40 MLOAD DUP1 PUSH1 0xA0 ADD PUSH1 0x40 MSTORE DUP1 PUSH1 0x0 PUSH20 0xFFFFFFFFFFFFFFFFFFFFFFFFFFFFFFFFFFFFFFFF AND DUP2 MSTORE PUSH1 0x20 ADD PUSH1 0x0 PUSH20 0xFFFFFFFFFFFFFFFFFFFFFFFFFFFFFFFFFFFFFFFF AND DUP2 MSTORE PUSH1 0x20 ADD PUSH1 0x0 DUP2 MSTORE PUSH1 0x20 ADD PUSH1 0x0 DUP2 MSTORE PUSH1 0x20 ADD PUSH1 0x60 DUP2 MSTORE POP SWAP1 JUMP JUMPDEST PUSH1 0x40 MLOAD DUP1 PUSH2 0x140 ADD PUSH1 0x40 MSTORE DUP1 PUSH1 0x0 PUSH20 0xFFFFFFFFFFFFFFFFFFFFFFFFFFFFFFFFFFFFFFFF AND DUP2 MSTORE PUSH1 0x20 ADD PUSH1 0x0 PUSH20 0xFFFFFFFFFFFFFFFFFFFFFFFFFFFFFFFFFFFFFFFF AND DUP2 MSTORE PUSH1 0x20 ADD PUSH1 0x0 DUP2 MSTORE PUSH1 0x20 ADD PUSH1 0x0 DUP2 MSTORE PUSH1 0x20 ADD PUSH1 0x0 DUP2 MSTORE PUSH1 0x20 ADD PUSH1 0x0 DUP2 MSTORE PUSH1 0x20 ADD PUSH1 0x60 DUP2 MSTORE PUSH1 0x20 ADD PUSH1 0x0 DUP2 MSTORE PUSH1 0x20 ADD PUSH1 0x0 PUSH20 0xFFFFFFFFFFFFFFFFFFFFFFFFFFFFFFFFFFFFFFFF AND DUP2 MSTORE PUSH1 0x20 ADD PUSH1 0x0 DUP2 MSTORE POP SWAP1 JUMP JUMPDEST DUP1 CALLDATALOAD PUSH2 0x232 DUP2 PUSH2 0x2205 JUMP JUMPDEST PUSH1 0x0 DUP3 PUSH1 0x1F DUP4 ADD SLT PUSH2 0x178D JUMPI DUP1 DUP2 REVERT JUMPDEST DUP2 CALLDATALOAD PUSH2 0x17A0 PUSH2 0x179B DUP3 PUSH2 0x2173 JUMP JUMPDEST PUSH2 0x214C JUMP JUMPDEST DUP2 DUP2 MSTORE SWAP2 POP PUSH1 0x20 DUP1 DUP4 ADD SWAP1 DUP5 DUP2 ADD PUSH1 0x0 JUMPDEST DUP5 DUP2 LT ISZERO PUSH2 0x17DA JUMPI PUSH2 0x17C8 DUP9 DUP5 DUP5 CALLDATALOAD DUP11 ADD ADD PUSH2 0x17E5 JUMP JUMPDEST DUP5 MSTORE SWAP3 DUP3 ADD SWAP3 SWAP1 DUP3 ADD SWAP1 PUSH1 0x1 ADD PUSH2 0x17B1 JUMP JUMPDEST POP POP POP POP POP SWAP3 SWAP2 POP POP JUMP JUMPDEST PUSH1 0x0 DUP3 PUSH1 0x1F DUP4 ADD SLT PUSH2 0x17F5 JUMPI DUP1 DUP2 REVERT JUMPDEST DUP2 CALLDATALOAD PUSH2 0x1803 PUSH2 0x179B DUP3 PUSH2 0x2193 JUMP JUMPDEST SWAP2 POP DUP1 DUP3 MSTORE DUP4 PUSH1 0x20 DUP3 DUP6 ADD ADD GT ISZERO PUSH2 0x181A JUMPI PUSH1 0x0 DUP1 REVERT JUMPDEST DUP1 PUSH1 0x20 DUP5 ADD PUSH1 0x20 DUP5 ADD CALLDATACOPY PUSH1 0x0 SWAP1 DUP3 ADD PUSH1 0x20 ADD MSTORE SWAP3 SWAP2 POP POP JUMP JUMPDEST PUSH1 0x0 PUSH2 0x140 DUP1 DUP4 DUP6 SUB SLT ISZERO PUSH2 0x1846 JUMPI DUP2 DUP3 REVERT JUMPDEST PUSH2 0x184F DUP2 PUSH2 0x214C JUMP JUMPDEST SWAP2 POP POP PUSH2 0x185C DUP4 DUP4 PUSH2 0x1772 JUMP JUMPDEST DUP2 MSTORE PUSH2 0x186B DUP4 PUSH1 0x20 DUP5 ADD PUSH2 0x1772 JUMP JUMPDEST PUSH1 0x20 DUP3 ADD MSTORE PUSH1 0x40 DUP3 ADD CALLDATALOAD PUSH1 0x40 DUP3 ADD MSTORE PUSH1 0x60 DUP3 ADD CALLDATALOAD PUSH1 0x60 DUP3 ADD MSTORE PUSH1 0x80 DUP3 ADD CALLDATALOAD PUSH1 0x80 DUP3 ADD MSTORE PUSH1 0xA0 DUP3 ADD CALLDATALOAD PUSH1 0xA0 DUP3 ADD MSTORE PUSH1 0xC0 DUP3 ADD CALLDATALOAD PUSH8 0xFFFFFFFFFFFFFFFF DUP2 GT ISZERO PUSH2 0x18B2 JUMPI PUSH1 0x0 DUP1 REVERT JUMPDEST PUSH2 0x18BE DUP5 DUP3 DUP6 ADD PUSH2 0x17E5 JUMP JUMPDEST PUSH1 0xC0 DUP4 ADD MSTORE POP PUSH1 0xE0 DUP3 ADD CALLDATALOAD PUSH1 0xE0 DUP3 ADD MSTORE PUSH2 0x100 PUSH2 0x18DD DUP5 DUP3 DUP6 ADD PUSH2 0x1772 JUMP JUMPDEST DUP2 DUP4 ADD MSTORE POP PUSH2 0x120 DUP1 DUP4 ADD CALLDATALOAD DUP2 DUP4 ADD MSTORE POP SWAP3 SWAP2 POP POP JUMP JUMPDEST PUSH1 0x0 PUSH1 0x40 DUP3 DUP5 SUB SLT ISZERO PUSH2 0x1905 JUMPI DUP1 DUP2 REVERT JUMPDEST PUSH2 0x190F PUSH1 0x40 PUSH2 0x214C JUMP JUMPDEST SWAP1 POP DUP2 MLOAD PUSH4 0xFFFFFFFF DUP2 AND DUP2 EQ PUSH2 0x1925 JUMPI PUSH1 0x0 DUP1 REVERT JUMPDEST DUP2 MSTORE PUSH1 0x20 DUP3 ADD MLOAD PUSH8 0xFFFFFFFFFFFFFFFF DUP2 GT ISZERO PUSH2 0x1941 JUMPI PUSH1 0x0 DUP1 REVERT JUMPDEST DUP3 ADD PUSH1 0x1F DUP2 ADD DUP5 SGT PUSH2 0x1952 JUMPI PUSH1 0x0 DUP1 REVERT JUMPDEST DUP1 MLOAD PUSH2 0x1960 PUSH2 0x179B DUP3 PUSH2 0x2193 JUMP JUMPDEST DUP2 DUP2 MSTORE DUP6 PUSH1 0x20 DUP4 DUP6 ADD ADD GT ISZERO PUSH2 0x1975 JUMPI PUSH1 0x0 DUP1 REVERT JUMPDEST PUSH2 0x1986 DUP3 PUSH1 0x20 DUP4 ADD PUSH1 0x20 DUP7 ADD PUSH2 0x21D5 JUMP JUMPDEST PUSH1 0x20 DUP5 ADD MSTORE POP SWAP1 SWAP4 SWAP3 POP POP POP JUMP JUMPDEST PUSH1 0x0 DUP1 PUSH1 0x0 PUSH1 0x60 DUP5 DUP7 SUB SLT ISZERO PUSH2 0x19A8 JUMPI DUP3 DUP4 REVERT JUMPDEST DUP4 CALLDATALOAD PUSH2 0x19B3 DUP2 PUSH2 0x2205 JUMP JUMPDEST SWAP3 POP PUSH1 0x20 DUP5 ADD CALLDATALOAD PUSH8 0xFFFFFFFFFFFFFFFF DUP1 DUP3 GT ISZERO PUSH2 0x19CF JUMPI DUP4 DUP5 REVERT JUMPDEST PUSH2 0x19DB DUP8 DUP4 DUP9 ADD PUSH2 0x1833 JUMP JUMPDEST SWAP4 POP PUSH1 0x40 DUP7 ADD CALLDATALOAD SWAP2 POP DUP1 DUP3 GT ISZERO PUSH2 0x19F0 JUMPI DUP3 DUP4 REVERT JUMPDEST POP PUSH2 0x19FD DUP7 DUP3 DUP8 ADD PUSH2 0x17E5 JUMP JUMPDEST SWAP2 POP POP SWAP3 POP SWAP3 POP SWAP3 JUMP JUMPDEST PUSH1 0x0 DUP1 PUSH1 0x40 DUP4 DUP6 SUB SLT ISZERO PUSH2 0x1A19 JUMPI DUP2 DUP3 REVERT JUMPDEST DUP3 CALLDATALOAD PUSH8 0xFFFFFFFFFFFFFFFF DUP1 DUP3 GT ISZERO PUSH2 0x1A30 JUMPI DUP4 DUP5 REVERT JUMPDEST DUP2 DUP6 ADD SWAP2 POP DUP6 PUSH1 0x1F DUP4 ADD SLT PUSH2 0x1A43 JUMPI DUP4 DUP5 REVERT JUMPDEST DUP2 CALLDATALOAD PUSH2 0x1A51 PUSH2 0x179B DUP3 PUSH2 0x2173 JUMP JUMPDEST DUP2 DUP2 MSTORE PUSH1 0x20 DUP1 DUP3 ADD SWAP2 SWAP1 DUP6 DUP2 ADD DUP9 JUMPDEST DUP6 DUP2 LT ISZERO PUSH2 0x1A89 JUMPI PUSH2 0x1A77 DUP13 DUP5 DUP5 CALLDATALOAD DUP12 ADD ADD PUSH2 0x1833 JUMP JUMPDEST DUP6 MSTORE SWAP4 DUP3 ADD SWAP4 SWAP1 DUP3 ADD SWAP1 PUSH1 0x1 ADD PUSH2 0x1A60 JUMP JUMPDEST POP SWAP2 SWAP8 POP DUP9 ADD CALLDATALOAD SWAP5 POP POP POP POP DUP1 DUP3 GT ISZERO PUSH2 0x1AA1 JUMPI DUP3 DUP4 REVERT JUMPDEST POP PUSH2 0x1AAE DUP6 DUP3 DUP7 ADD PUSH2 0x177D JUMP JUMPDEST SWAP2 POP POP SWAP3 POP SWAP3 SWAP1 POP JUMP JUMPDEST PUSH1 0x0 PUSH1 0x20 DUP3 DUP5 SUB SLT ISZERO PUSH2 0x1AC9 JUMPI DUP1 DUP2 REVERT JUMPDEST POP CALLDATALOAD SWAP2 SWAP1 POP JUMP JUMPDEST PUSH1 0x0 PUSH1 0x20 DUP1 DUP4 DUP6 SUB SLT ISZERO PUSH2 0x1AE2 JUMPI DUP2 DUP3 REVERT JUMPDEST DUP3 MLOAD PUSH8 0xFFFFFFFFFFFFFFFF DUP1 DUP3 GT ISZERO PUSH2 0x1AF9 JUMPI DUP4 DUP5 REVERT JUMPDEST SWAP1 DUP5 ADD SWAP1 PUSH1 0xA0 DUP3 DUP8 SUB SLT ISZERO PUSH2 0x1B0C JUMPI DUP4 DUP5 REVERT JUMPDEST PUSH2 0x1B16 PUSH1 0xA0 PUSH2 0x214C JUMP JUMPDEST DUP3 MLOAD PUSH2 0x1B21 DUP2 PUSH2 0x2205 JUMP JUMPDEST DUP2 MSTORE DUP3 DUP5 ADD MLOAD PUSH2 0x1B30 DUP2 PUSH2 0x2205 JUMP JUMPDEST DUP1 DUP6 DUP4 ADD MSTORE POP PUSH1 0x40 DUP4 ADD MLOAD PUSH1 0x40 DUP3 ADD MSTORE PUSH1 0x60 DUP4 ADD MLOAD PUSH1 0x60 DUP3 ADD MSTORE PUSH1 0x80 DUP4 ADD MLOAD DUP3 DUP2 GT ISZERO PUSH2 0x1B5B JUMPI DUP6 DUP7 REVERT JUMPDEST DUP1 DUP5 ADD SWAP4 POP POP DUP7 PUSH1 0x1F DUP5 ADD SLT PUSH2 0x1B6F JUMPI DUP5 DUP6 REVERT JUMPDEST DUP3 MLOAD SWAP2 POP PUSH2 0x1B7F PUSH2 0x179B DUP4 PUSH2 0x2173 JUMP JUMPDEST DUP3 DUP2 MSTORE DUP5 DUP2 ADD SWAP1 DUP5 DUP7 ADD DUP8 JUMPDEST DUP6 DUP2 LT ISZERO PUSH2 0x1BB4 JUMPI PUSH2 0x1BA2 DUP12 DUP10 DUP5 MLOAD DUP11 ADD ADD PUSH2 0x18F4 JUMP JUMPDEST DUP5 MSTORE SWAP3 DUP8 ADD SWAP3 SWAP1 DUP8 ADD SWAP1 PUSH1 0x1 ADD PUSH2 0x1B8B JUMP JUMPDEST POP POP PUSH1 0x80 DUP4 ADD MSTORE POP SWAP7 SWAP6 POP POP POP POP POP POP JUMP JUMPDEST PUSH1 0x0 PUSH1 0x20 DUP3 DUP5 SUB SLT ISZERO PUSH2 0x1BD7 JUMPI DUP1 DUP2 REVERT JUMPDEST DUP2 CALLDATALOAD PUSH8 0xFFFFFFFFFFFFFFFF DUP2 GT ISZERO PUSH2 0x1BED JUMPI DUP2 DUP3 REVERT JUMPDEST PUSH2 0x1BF9 DUP5 DUP3 DUP6 ADD PUSH2 0x1833 JUMP JUMPDEST SWAP5 SWAP4 POP POP POP POP JUMP JUMPDEST PUSH1 0x0 DUP1 PUSH1 0x40 DUP4 DUP6 SUB SLT ISZERO PUSH2 0x1C13 JUMPI DUP2 DUP3 REVERT JUMPDEST DUP3 CALLDATALOAD PUSH8 0xFFFFFFFFFFFFFFFF DUP1 DUP3 GT ISZERO PUSH2 0x1C2A JUMPI DUP4 DUP5 REVERT JUMPDEST PUSH2 0x1C36 DUP7 DUP4 DUP8 ADD PUSH2 0x1833 JUMP JUMPDEST SWAP4 POP PUSH1 0x20 DUP6 ADD CALLDATALOAD SWAP2 POP DUP1 DUP3 GT ISZERO PUSH2 0x1C4B JUMPI DUP3 DUP4 REVERT JUMPDEST POP PUSH2 0x1AAE DUP6 DUP3 DUP7 ADD PUSH2 0x17E5 JUMP JUMPDEST PUSH20 0xFFFFFFFFFFFFFFFFFFFFFFFFFFFFFFFFFFFFFFFF AND SWAP1 MSTORE JUMP JUMPDEST PUSH1 0x0 DUP2 MLOAD DUP1 DUP5 MSTORE PUSH1 0x20 DUP1 DUP6 ADD SWAP5 POP DUP5 DUP2 DUP4 MUL DUP7 ADD DUP3 DUP7 ADD DUP6 JUMPDEST DUP6 DUP2 LT ISZERO PUSH2 0x1CCF JUMPI DUP4 DUP4 SUB DUP10 MSTORE DUP2 MLOAD DUP1 MLOAD PUSH4 0xFFFFFFFF AND DUP5 MSTORE DUP6 ADD MLOAD PUSH1 0x40 DUP7 DUP6 ADD DUP2 SWAP1 MSTORE PUSH2 0x1CBB DUP2 DUP7 ADD DUP4 PUSH2 0x1CDC JUMP JUMPDEST SWAP11 DUP8 ADD SWAP11 SWAP5 POP POP POP SWAP1 DUP5 ADD SWAP1 PUSH1 0x1 ADD PUSH2 0x1C8B JUMP JUMPDEST POP SWAP1 SWAP8 SWAP7 POP POP POP POP POP POP POP JUMP JUMPDEST PUSH1 0x0 DUP2 MLOAD DUP1 DUP5 MSTORE PUSH2 0x1CF4 DUP2 PUSH1 0x20 DUP7 ADD PUSH1 0x20 DUP7 ADD PUSH2 0x21D5 JUMP JUMPDEST PUSH1 0x1F ADD PUSH32 0xFFFFFFFFFFFFFFFFFFFFFFFFFFFFFFFFFFFFFFFFFFFFFFFFFFFFFFFFFFFFFFE0 AND SWAP3 SWAP1 SWAP3 ADD PUSH1 0x20 ADD SWAP3 SWAP2 POP POP JUMP JUMPDEST PUSH1 0x0 DUP3 MLOAD PUSH2 0x1D38 DUP2 DUP5 PUSH1 0x20 DUP8 ADD PUSH2 0x21D5 JUMP JUMPDEST SWAP2 SWAP1 SWAP2 ADD SWAP3 SWAP2 POP POP JUMP JUMPDEST PUSH32 0x1901000000000000000000000000000000000000000000000000000000000000 DUP2 MSTORE PUSH1 0x2 DUP2 ADD SWAP3 SWAP1 SWAP3 MSTORE PUSH1 0x22 DUP3 ADD MSTORE PUSH1 0x42 ADD SWAP1 JUMP JUMPDEST PUSH20 0xFFFFFFFFFFFFFFFFFFFFFFFFFFFFFFFFFFFFFFFF SWAP2 SWAP1 SWAP2 AND DUP2 MSTORE PUSH1 0x20 ADD SWAP1 JUMP JUMPDEST PUSH1 0x0 PUSH1 0x20 DUP1 DUP4 ADD DUP2 DUP5 MSTORE DUP1 DUP6 MLOAD DUP1 DUP4 MSTORE PUSH1 0x40 DUP7 ADD SWAP2 POP PUSH1 0x40 DUP5 DUP3 MUL DUP8 ADD ADD SWAP3 POP DUP4 DUP8 ADD DUP6 JUMPDEST DUP3 DUP2 LT ISZERO PUSH2 0x1E0A JUMPI PUSH32 0xFFFFFFFFFFFFFFFFFFFFFFFFFFFFFFFFFFFFFFFFFFFFFFFFFFFFFFFFFFFFFFC0 DUP9 DUP7 SUB ADD DUP5 MSTORE PUSH2 0x1DF8 DUP6 DUP4 MLOAD PUSH2 0x1CDC JUMP JUMPDEST SWAP5 POP SWAP3 DUP6 ADD SWAP3 SWAP1 DUP6 ADD SWAP1 PUSH1 0x1 ADD PUSH2 0x1DBE JUMP JUMPDEST POP SWAP3 SWAP8 SWAP7 POP POP POP POP POP POP POP JUMP JUMPDEST SWAP1 DUP2 MSTORE PUSH1 0x20 ADD SWAP1 JUMP JUMPDEST SWAP3 DUP4 MSTORE PUSH20 0xFFFFFFFFFFFFFFFFFFFFFFFFFFFFFFFFFFFFFFFF SWAP2 DUP3 AND PUSH1 0x20 DUP5 ADD MSTORE AND PUSH1 0x40 DUP3 ADD MSTORE PUSH1 0x60 ADD SWAP1 JUMP JUMPDEST SWAP11 DUP12 MSTORE PUSH20 0xFFFFFFFFFFFFFFFFFFFFFFFFFFFFFFFFFFFFFFFF SWAP10 DUP11 AND PUSH1 0x20 DUP13 ADD MSTORE SWAP8 DUP10 AND PUSH1 0x40 DUP12 ADD MSTORE PUSH1 0x60 DUP11 ADD SWAP7 SWAP1 SWAP7 MSTORE PUSH1 0x80 DUP10 ADD SWAP5 SWAP1 SWAP5 MSTORE PUSH1 0xA0 DUP9 ADD SWAP3 SWAP1 SWAP3 MSTORE PUSH1 0xC0 DUP8 ADD MSTORE PUSH1 0xE0 DUP7 ADD MSTORE PUSH2 0x100 DUP6 ADD MSTORE SWAP1 SWAP2 AND PUSH2 0x120 DUP4 ADD MSTORE PUSH2 0x140 DUP3 ADD MSTORE PUSH2 0x160 ADD SWAP1 JUMP JUMPDEST PUSH1 0x0 DUP5 DUP3 MSTORE PUSH20 0xFFFFFFFFFFFFFFFFFFFFFFFFFFFFFFFFFFFFFFFF DUP5 AND PUSH1 0x20 DUP4 ADD MSTORE PUSH1 0x60 PUSH1 0x40 DUP4 ADD MSTORE PUSH2 0x10D0 PUSH1 0x60 DUP4 ADD DUP5 PUSH2 0x1CDC JUMP JUMPDEST SWAP2 DUP3 MSTORE PUSH32 0xFFFFFFFF00000000000000000000000000000000000000000000000000000000 AND PUSH1 0x20 DUP3 ADD MSTORE PUSH1 0x40 ADD SWAP1 JUMP JUMPDEST PUSH1 0x0 DUP5 DUP3 MSTORE PUSH1 0x60 PUSH1 0x20 DUP4 ADD MSTORE PUSH2 0x1F30 PUSH1 0x60 DUP4 ADD DUP6 PUSH2 0x1CDC JUMP JUMPDEST DUP3 DUP2 SUB PUSH1 0x40 DUP5 ADD MSTORE PUSH2 0x1F42 DUP2 DUP6 PUSH2 0x1CDC JUMP JUMPDEST SWAP7 SWAP6 POP POP POP POP POP POP JUMP JUMPDEST SWAP2 DUP3 MSTORE PUSH1 0x20 DUP3 ADD MSTORE PUSH1 0x40 ADD SWAP1 JUMP JUMPDEST SWAP3 DUP4 MSTORE PUSH1 0x20 DUP4 ADD SWAP2 SWAP1 SWAP2 MSTORE PUSH1 0x40 DUP3 ADD MSTORE PUSH1 0x60 ADD SWAP1 JUMP JUMPDEST SWAP4 DUP5 MSTORE PUSH1 0x20 DUP5 ADD SWAP3 SWAP1 SWAP3 MSTORE PUSH1 0x40 DUP4 ADD MSTORE PUSH1 0x60 DUP3 ADD MSTORE PUSH1 0x80 ADD SWAP1 JUMP JUMPDEST PUSH32 0xFFFFFFFF00000000000000000000000000000000000000000000000000000000 SWAP2 SWAP1 SWAP2 AND DUP2 MSTORE PUSH1 0x20 ADD SWAP1 JUMP JUMPDEST PUSH32 0xFFFFFFFF00000000000000000000000000000000000000000000000000000000 SWAP3 SWAP1 SWAP3 AND DUP3 MSTORE PUSH20 0xFFFFFFFFFFFFFFFFFFFFFFFFFFFFFFFFFFFFFFFF AND PUSH1 0x20 DUP3 ADD MSTORE PUSH1 0x40 ADD SWAP1 JUMP JUMPDEST PUSH32 0xFFFFFFFF00000000000000000000000000000000000000000000000000000000 SWAP3 SWAP1 SWAP3 AND DUP3 MSTORE PUSH1 0x20 DUP3 ADD MSTORE PUSH1 0x40 ADD SWAP1 JUMP JUMPDEST PUSH1 0x0 PUSH1 0x20 DUP3 MSTORE PUSH2 0x6B7 PUSH1 0x20 DUP4 ADD DUP5 PUSH2 0x1CDC JUMP JUMPDEST PUSH20 0xFFFFFFFFFFFFFFFFFFFFFFFFFFFFFFFFFFFFFFFF SWAP5 DUP6 AND DUP2 MSTORE SWAP3 DUP5 AND PUSH1 0x20 DUP5 ADD MSTORE SWAP3 AND PUSH1 0x40 DUP3 ADD MSTORE PUSH1 0x60 DUP2 ADD SWAP2 SWAP1 SWAP2 MSTORE PUSH1 0x80 ADD SWAP1 JUMP JUMPDEST PUSH1 0x60 DUP2 ADD PUSH1 0x8 DUP6 LT PUSH2 0x208A JUMPI INVALID JUMPDEST SWAP4 DUP2 MSTORE PUSH1 0x20 DUP2 ADD SWAP3 SWAP1 SWAP3 MSTORE PUSH1 0x40 SWAP1 SWAP2 ADD MSTORE SWAP1 JUMP JUMPDEST PUSH1 0x0 PUSH1 0x20 DUP3 MSTORE PUSH2 0x20B2 PUSH1 0x20 DUP4 ADD DUP5 MLOAD PUSH2 0x1C58 JUMP JUMPDEST PUSH1 0x20 DUP4 ADD MLOAD PUSH2 0x20C4 PUSH1 0x40 DUP5 ADD DUP3 PUSH2 0x1C58 JUMP JUMPDEST POP PUSH1 0x40 DUP4 ADD MLOAD PUSH2 0x20D7 PUSH1 0x60 DUP5 ADD DUP3 PUSH2 0x1C58 JUMP JUMPDEST POP PUSH1 0x60 DUP4 ADD MLOAD PUSH1 0x80 DUP4 ADD MSTORE PUSH1 0x80 DUP4 ADD MLOAD PUSH1 0xA0 DUP4 ADD MSTORE PUSH1 0xA0 DUP4 ADD MLOAD PUSH2 0x100 DUP1 PUSH1 0xC0 DUP6 ADD MSTORE PUSH2 0x2108 PUSH2 0x120 DUP6 ADD DUP4 PUSH2 0x1C72 JUMP JUMPDEST SWAP2 POP PUSH1 0xC0 DUP6 ADD MLOAD PUSH1 0xE0 DUP6 ADD MSTORE PUSH1 0xE0 DUP6 ADD MLOAD PUSH32 0xFFFFFFFFFFFFFFFFFFFFFFFFFFFFFFFFFFFFFFFFFFFFFFFFFFFFFFFFFFFFFFE0 DUP6 DUP5 SUB ADD DUP3 DUP7 ADD MSTORE PUSH2 0x1F42 DUP4 DUP3 PUSH2 0x1CDC JUMP JUMPDEST PUSH1 0x40 MLOAD DUP2 DUP2 ADD PUSH8 0xFFFFFFFFFFFFFFFF DUP2 GT DUP3 DUP3 LT OR ISZERO PUSH2 0x216B JUMPI PUSH1 0x0 DUP1 REVERT JUMPDEST PUSH1 0x40 MSTORE SWAP2 SWAP1 POP JUMP JUMPDEST PUSH1 0x0 PUSH8 0xFFFFFFFFFFFFFFFF DUP3 GT ISZERO PUSH2 0x2189 JUMPI DUP1 DUP2 REVERT JUMPDEST POP PUSH1 0x20 SWAP1 DUP2 MUL ADD SWAP1 JUMP JUMPDEST PUSH1 0x0 PUSH8 0xFFFFFFFFFFFFFFFF DUP3 GT ISZERO PUSH2 0x21A9 JUMPI DUP1 DUP2 REVERT JUMPDEST POP PUSH1 0x1F ADD PUSH32 0xFFFFFFFFFFFFFFFFFFFFFFFFFFFFFFFFFFFFFFFFFFFFFFFFFFFFFFFFFFFFFFE0 AND PUSH1 0x20 ADD SWAP1 JUMP JUMPDEST PUSH1 0x0 JUMPDEST DUP4 DUP2 LT ISZERO PUSH2 0x21F0 JUMPI DUP2 DUP2 ADD MLOAD DUP4 DUP3 ADD MSTORE PUSH1 0x20 ADD PUSH2 0x21D8 JUMP JUMPDEST DUP4 DUP2 GT ISZERO PUSH2 0x21FF JUMPI PUSH1 0x0 DUP5 DUP5 ADD MSTORE JUMPDEST POP POP POP POP JUMP JUMPDEST PUSH20 0xFFFFFFFFFFFFFFFFFFFFFFFFFFFFFFFFFFFFFFFF DUP2 AND DUP2 EQ PUSH2 0xEA0 JUMPI PUSH1 0x0 DUP1 REVERT INVALID LOG2 PUSH5 0x6970667358 0x22 SLT KECCAK256 0xDF SUB PUSH7 0x75A23C35F5BF10 0xEA 0xDB ORIGIN SLT 0xD6 0xE7 0x4E CHAINID DUP6 SWAP15 CREATE SLT 0x2B SWAP8 COINBASE 0x4A GASPRICE 0xD5 PUSH12 0x2AADC164736F6C634300060C STOP CALLER "
            }
        }
    },
    "sourceTreeHashHex": "0x1f7c0484e3e1df9ca0640fc8211708cfa7915f2098516844f025660ca325f528",
    "compiler": {
        "name": "solc",
        "version": "0.6.12+commit.27d51765",
        "settings": {
            "remappings": [
                "@0x/contracts-utils=/Users/jacob/projects/ethdev/0x/workspace-remote/workspace/0x-monorepo/node_modules/@0x/contracts-utils",
                "@0x/contracts-erc20=/Users/jacob/projects/ethdev/0x/workspace-remote/workspace/0x-monorepo/node_modules/@0x/contracts-erc20"
            ],
            "optimizer": {
                "enabled": true,
                "runs": 1000000,
                "details": {
                    "yul": true,
                    "deduplicate": true,
                    "cse": true,
                    "constantOptimizer": true
                }
            },
            "outputSelection": {
                "*": {
                    "*": [
                        "abi",
                        "devdoc",
                        "evm.bytecode.object",
                        "evm.bytecode.sourceMap",
                        "evm.deployedBytecode.object",
                        "evm.deployedBytecode.sourceMap"
                    ]
                }
            },
            "evmVersion": "istanbul"
        }
    },
    "chains": {}
}