{
    "schemaVersion": "2.0.0",
    "contractName": "Ownable",
    "compilerOutput": {
        "abi": [
            {
                "inputs": [],
                "stateMutability": "nonpayable",
                "type": "constructor"
            },
            {
                "anonymous": false,
                "inputs": [
                    {
                        "indexed": false,
                        "internalType": "address",
                        "name": "caller",
                        "type": "address"
                    },
                    {
                        "indexed": false,
                        "internalType": "address",
                        "name": "migrator",
                        "type": "address"
                    },
                    {
                        "indexed": false,
                        "internalType": "address",
                        "name": "newOwner",
                        "type": "address"
                    }
                ],
                "name": "Migrated",
                "type": "event"
            },
            {
                "anonymous": false,
                "inputs": [
                    {
                        "indexed": true,
                        "internalType": "address",
                        "name": "previousOwner",
                        "type": "address"
                    },
                    {
                        "indexed": true,
                        "internalType": "address",
                        "name": "newOwner",
                        "type": "address"
                    }
                ],
                "name": "OwnershipTransferred",
                "type": "event"
            },
            {
                "inputs": [],
                "name": "FEATURE_NAME",
                "outputs": [
                    {
                        "internalType": "string",
                        "name": "",
                        "type": "string"
                    }
                ],
                "stateMutability": "view",
                "type": "function"
            },
            {
                "inputs": [],
                "name": "FEATURE_VERSION",
                "outputs": [
                    {
                        "internalType": "uint256",
                        "name": "",
                        "type": "uint256"
                    }
                ],
                "stateMutability": "view",
                "type": "function"
            },
            {
                "inputs": [],
                "name": "bootstrap",
                "outputs": [
                    {
                        "internalType": "bytes4",
                        "name": "success",
                        "type": "bytes4"
                    }
                ],
                "stateMutability": "nonpayable",
                "type": "function"
            },
            {
                "inputs": [
                    {
                        "internalType": "address",
                        "name": "target",
                        "type": "address"
                    },
                    {
                        "internalType": "bytes",
                        "name": "data",
                        "type": "bytes"
                    },
                    {
                        "internalType": "address",
                        "name": "newOwner",
                        "type": "address"
                    }
                ],
                "name": "migrate",
                "outputs": [],
                "stateMutability": "nonpayable",
                "type": "function"
            },
            {
                "inputs": [],
                "name": "owner",
                "outputs": [
                    {
                        "internalType": "address",
                        "name": "owner_",
                        "type": "address"
                    }
                ],
                "stateMutability": "view",
                "type": "function"
            },
            {
                "inputs": [
                    {
                        "internalType": "address",
                        "name": "newOwner",
                        "type": "address"
                    }
                ],
                "name": "transferOwnership",
                "outputs": [],
                "stateMutability": "nonpayable",
                "type": "function"
            }
        ],
        "devdoc": {
            "details": "Owner management features.",
            "methods": {
                "bootstrap()": {
                    "details": "Initializes this feature. The intial owner will be set to this (ZeroEx)      to allow the bootstrappers to call `extend()`. Ownership should be      transferred to the real owner by the bootstrapper after      bootstrapping is complete.",
                    "returns": {
                        "success": "Magic bytes if successful."
                    }
                },
                "migrate(address,bytes,address)": {
                    "details": "Execute a migration function in the context of the ZeroEx contract.      The result of the function being called should be the magic bytes      0x2c64c5ef (`keccack('MIGRATE_SUCCESS')`). Only callable by the owner.      Temporarily sets the owner to ourselves so we can perform admin functions.      Before returning, the owner will be set to `newOwner`.",
                    "params": {
                        "data": "The call data.",
                        "newOwner": "The address of the new owner.",
                        "target": "The migrator contract address."
                    }
                },
                "owner()": {
                    "details": "Get the owner of this contract.",
                    "returns": {
                        "owner_": "The owner of this contract."
                    }
                },
                "transferOwnership(address)": {
                    "details": "Change the owner of this contract.      Only directly callable by the owner.",
                    "params": {
                        "newOwner": "New owner address."
                    }
                }
            },
            "stateVariables": {
                "FEATURE_NAME": {
                    "details": "Name of this feature."
                },
                "FEATURE_VERSION": {
                    "details": "Version of this feature."
                },
                "_implementation": {
                    "details": "The deployed address of this contract."
                }
            }
        },
        "evm": {
            "bytecode": {
                "linkReferences": {},
                "object": "0x60c060405261001a60016000806001600160e01b0361003616565b60805234801561002957600080fd5b503060601b60a052610068565b6bffffffff0000000000000000604084901b1667ffffffff00000000602084901b1617811763ffffffff169392505050565b60805160a05160601c610d7b6100976000398061054452806105f452806106a452508060fe5250610d7b6000f3fe608060405234801561001057600080fd5b50600436106100725760003560e01c80638da5cb5b116100505780638da5cb5b146100bf578063f2fde38b146100d4578063fb969b0a146100e757610072565b8063031b905c14610077578063261fe679146100955780636ae4b4f7146100aa575b600080fd5b61007f6100fc565b60405161008c9190610ceb565b60405180910390f35b6100a86100a33660046109dd565b610120565b005b6100b26102ed565b60405161008c9190610cd8565b6100c7610326565b60405161008c9190610bb4565b6100a86100e236600461099e565b61034c565b6100ef6104a0565b60405161008c9190610c63565b7f000000000000000000000000000000000000000000000000000000000000000081565b60003073ffffffffffffffffffffffffffffffffffffffff16638da5cb5b6040518163ffffffff1660e01b815260040160206040518083038186803b15801561016857600080fd5b505afa15801561017c573d6000803e3d6000fd5b505050506040513d601f19601f820116820180604052508101906101a091906109c1565b90503373ffffffffffffffffffffffffffffffffffffffff8216146101d1576101d16101cc3383610724565b6107d2565b5073ffffffffffffffffffffffffffffffffffffffff81166101f8576101f86101cc6107da565b6000610202610850565b80547fffffffffffffffffffffffff00000000000000000000000000000000000000001630178155604080516020601f870181900481028201810190925285815291925061026c918791879087908190840183828082843760009201919091525061086392505050565b80547fffffffffffffffffffffffff00000000000000000000000000000000000000001673ffffffffffffffffffffffffffffffffffffffff83161781556040517fe1b831b0e6f3aa16b4b1a6bd526b5cdeab4940744ca6e0251f5fe5f8caf1c81a906102de90339088908690610bd5565b60405180910390a15050505050565b6040518060400160405280600781526020017f4f776e61626c650000000000000000000000000000000000000000000000000081525081565b6000610330610850565b5473ffffffffffffffffffffffffffffffffffffffff16905090565b60003073ffffffffffffffffffffffffffffffffffffffff16638da5cb5b6040518163ffffffff1660e01b815260040160206040518083038186803b15801561039457600080fd5b505afa1580156103a8573d6000803e3d6000fd5b505050506040513d601f19601f820116820180604052508101906103cc91906109c1565b90503373ffffffffffffffffffffffffffffffffffffffff8216146103f8576103f86101cc3383610724565b506000610403610850565b905073ffffffffffffffffffffffffffffffffffffffff82166104305761042b6101cc6107da565b61049c565b80547fffffffffffffffffffffffff00000000000000000000000000000000000000001673ffffffffffffffffffffffffffffffffffffffff8316908117825560405133907f8be0079c531659141344cd1fd0a4f28419497f9722a3daafe3b4186f6b6457e090600090a35b5050565b6000306104ab610850565b80547fffffffffffffffffffffffff00000000000000000000000000000000000000001673ffffffffffffffffffffffffffffffffffffffff929092169190911790556040517f0ee8be1b0000000000000000000000000000000000000000000000000000000081523090630ee8be1b9061056c907ff2fde38b00000000000000000000000000000000000000000000000000000000907f000000000000000000000000000000000000000000000000000000000000000090600401610c90565b600060405180830381600087803b15801561058657600080fd5b505af115801561059a573d6000803e3d6000fd5b50506040517f0ee8be1b000000000000000000000000000000000000000000000000000000008152309250630ee8be1b915061061c907f8da5cb5b00000000000000000000000000000000000000000000000000000000907f000000000000000000000000000000000000000000000000000000000000000090600401610c90565b600060405180830381600087803b15801561063657600080fd5b505af115801561064a573d6000803e3d6000fd5b50506040517f0ee8be1b000000000000000000000000000000000000000000000000000000008152309250630ee8be1b91506106cc907f261fe67900000000000000000000000000000000000000000000000000000000907f000000000000000000000000000000000000000000000000000000000000000090600401610c90565b600060405180830381600087803b1580156106e657600080fd5b505af11580156106fa573d6000803e3d6000fd5b507fd150751b00000000000000000000000000000000000000000000000000000000935050505090565b606060405161073290610b13565b6040518091039020838360405160240161074d929190610c05565b604080517fffffffffffffffffffffffffffffffffffffffffffffffffffffffffffffffe08184030181529190526020810180517bffffffffffffffffffffffffffffffffffffffffffffffffffffffff167fffffffff0000000000000000000000000000000000000000000000000000000090931692909217909152905092915050565b805160208201fd5b60606040516107e890610b3c565b6040805191829003822060048352602483019091526020820180517bffffffffffffffffffffffffffffffffffffffffffffffffffffffff167fffffffff00000000000000000000000000000000000000000000000000000000909216919091179052905090565b60008061085d600261095a565b92915050565b600060608373ffffffffffffffffffffffffffffffffffffffff168360405161088c9190610af7565b600060405180830381855af49150503d80600081146108c7576040519150601f19603f3d011682016040523d82523d6000602084013e6108cc565b606091505b50915091508115806108e057508051602014155b80610942575080517f2c64c5ef000000000000000000000000000000000000000000000000000000009061091d9083016020908101908401610a6d565b7fffffffff000000000000000000000000000000000000000000000000000000001614155b15610954576109546101cc8583610975565b50505050565b6000608082600481111561096a57fe5b600101901b92915050565b606060405161098390610b65565b6040518091039020838360405160240161074d929190610c2c565b6000602082840312156109af578081fd5b81356109ba81610d20565b9392505050565b6000602082840312156109d2578081fd5b81516109ba81610d20565b600080600080606085870312156109f2578283fd5b84356109fd81610d20565b9350602085013567ffffffffffffffff80821115610a19578485fd5b81870188601f820112610a2a578586fd5b8035925081831115610a3a578586fd5b886020848301011115610a4b578586fd5b6020019450909250506040850135610a6281610d20565b939692955090935050565b600060208284031215610a7e578081fd5b81517fffffffff00000000000000000000000000000000000000000000000000000000811681146109ba578182fd5b60008151808452610ac5816020860160208601610cf4565b601f017fffffffffffffffffffffffffffffffffffffffffffffffffffffffffffffffe0169290920160200192915050565b60008251610b09818460208701610cf4565b9190910192915050565b7f4f6e6c794f776e65724572726f7228616464726573732c6164647265737329008152601f0190565b7f5472616e736665724f776e6572546f5a65726f4572726f7228290000000000008152601a0190565b7f4d69677261746543616c6c4661696c65644572726f7228616464726573732c6281527f7974657329000000000000000000000000000000000000000000000000000000602082015260250190565b73ffffffffffffffffffffffffffffffffffffffff91909116815260200190565b73ffffffffffffffffffffffffffffffffffffffff93841681529183166020830152909116604082015260600190565b73ffffffffffffffffffffffffffffffffffffffff92831681529116602082015260400190565b600073ffffffffffffffffffffffffffffffffffffffff8416825260406020830152610c5b6040830184610aad565b949350505050565b7fffffffff0000000000000000000000000000000000000000000000000000000091909116815260200190565b7fffffffff0000000000000000000000000000000000000000000000000000000092909216825273ffffffffffffffffffffffffffffffffffffffff16602082015260400190565b6000602082526109ba6020830184610aad565b90815260200190565b60005b83811015610d0f578181015183820152602001610cf7565b838111156109545750506000910152565b73ffffffffffffffffffffffffffffffffffffffff81168114610d4257600080fd5b5056fea2646970667358221220b31d2c566479eba56250bf49fc790ec9db6754b290a43ddfd089cd3f636ec3d364736f6c634300060a0033",
                "opcodes": "PUSH1 0xC0 PUSH1 0x40 MSTORE PUSH2 0x1A PUSH1 0x1 PUSH1 0x0 DUP1 PUSH1 0x1 PUSH1 0x1 PUSH1 0xE0 SHL SUB PUSH2 0x36 AND JUMP JUMPDEST PUSH1 0x80 MSTORE CALLVALUE DUP1 ISZERO PUSH2 0x29 JUMPI PUSH1 0x0 DUP1 REVERT JUMPDEST POP ADDRESS PUSH1 0x60 SHL PUSH1 0xA0 MSTORE PUSH2 0x68 JUMP JUMPDEST PUSH12 0xFFFFFFFF0000000000000000 PUSH1 0x40 DUP5 SWAP1 SHL AND PUSH8 0xFFFFFFFF00000000 PUSH1 0x20 DUP5 SWAP1 SHL AND OR DUP2 OR PUSH4 0xFFFFFFFF AND SWAP4 SWAP3 POP POP POP JUMP JUMPDEST PUSH1 0x80 MLOAD PUSH1 0xA0 MLOAD PUSH1 0x60 SHR PUSH2 0xD7B PUSH2 0x97 PUSH1 0x0 CODECOPY DUP1 PUSH2 0x544 MSTORE DUP1 PUSH2 0x5F4 MSTORE DUP1 PUSH2 0x6A4 MSTORE POP DUP1 PUSH1 0xFE MSTORE POP PUSH2 0xD7B PUSH1 0x0 RETURN INVALID PUSH1 0x80 PUSH1 0x40 MSTORE CALLVALUE DUP1 ISZERO PUSH2 0x10 JUMPI PUSH1 0x0 DUP1 REVERT JUMPDEST POP PUSH1 0x4 CALLDATASIZE LT PUSH2 0x72 JUMPI PUSH1 0x0 CALLDATALOAD PUSH1 0xE0 SHR DUP1 PUSH4 0x8DA5CB5B GT PUSH2 0x50 JUMPI DUP1 PUSH4 0x8DA5CB5B EQ PUSH2 0xBF JUMPI DUP1 PUSH4 0xF2FDE38B EQ PUSH2 0xD4 JUMPI DUP1 PUSH4 0xFB969B0A EQ PUSH2 0xE7 JUMPI PUSH2 0x72 JUMP JUMPDEST DUP1 PUSH4 0x31B905C EQ PUSH2 0x77 JUMPI DUP1 PUSH4 0x261FE679 EQ PUSH2 0x95 JUMPI DUP1 PUSH4 0x6AE4B4F7 EQ PUSH2 0xAA JUMPI JUMPDEST PUSH1 0x0 DUP1 REVERT JUMPDEST PUSH2 0x7F PUSH2 0xFC JUMP JUMPDEST PUSH1 0x40 MLOAD PUSH2 0x8C SWAP2 SWAP1 PUSH2 0xCEB JUMP JUMPDEST PUSH1 0x40 MLOAD DUP1 SWAP2 SUB SWAP1 RETURN JUMPDEST PUSH2 0xA8 PUSH2 0xA3 CALLDATASIZE PUSH1 0x4 PUSH2 0x9DD JUMP JUMPDEST PUSH2 0x120 JUMP JUMPDEST STOP JUMPDEST PUSH2 0xB2 PUSH2 0x2ED JUMP JUMPDEST PUSH1 0x40 MLOAD PUSH2 0x8C SWAP2 SWAP1 PUSH2 0xCD8 JUMP JUMPDEST PUSH2 0xC7 PUSH2 0x326 JUMP JUMPDEST PUSH1 0x40 MLOAD PUSH2 0x8C SWAP2 SWAP1 PUSH2 0xBB4 JUMP JUMPDEST PUSH2 0xA8 PUSH2 0xE2 CALLDATASIZE PUSH1 0x4 PUSH2 0x99E JUMP JUMPDEST PUSH2 0x34C JUMP JUMPDEST PUSH2 0xEF PUSH2 0x4A0 JUMP JUMPDEST PUSH1 0x40 MLOAD PUSH2 0x8C SWAP2 SWAP1 PUSH2 0xC63 JUMP JUMPDEST PUSH32 0x0 DUP2 JUMP JUMPDEST PUSH1 0x0 ADDRESS PUSH20 0xFFFFFFFFFFFFFFFFFFFFFFFFFFFFFFFFFFFFFFFF AND PUSH4 0x8DA5CB5B PUSH1 0x40 MLOAD DUP2 PUSH4 0xFFFFFFFF AND PUSH1 0xE0 SHL DUP2 MSTORE PUSH1 0x4 ADD PUSH1 0x20 PUSH1 0x40 MLOAD DUP1 DUP4 SUB DUP2 DUP7 DUP1 EXTCODESIZE ISZERO DUP1 ISZERO PUSH2 0x168 JUMPI PUSH1 0x0 DUP1 REVERT JUMPDEST POP GAS STATICCALL ISZERO DUP1 ISZERO PUSH2 0x17C JUMPI RETURNDATASIZE PUSH1 0x0 DUP1 RETURNDATACOPY RETURNDATASIZE PUSH1 0x0 REVERT JUMPDEST POP POP POP POP PUSH1 0x40 MLOAD RETURNDATASIZE PUSH1 0x1F NOT PUSH1 0x1F DUP3 ADD AND DUP3 ADD DUP1 PUSH1 0x40 MSTORE POP DUP2 ADD SWAP1 PUSH2 0x1A0 SWAP2 SWAP1 PUSH2 0x9C1 JUMP JUMPDEST SWAP1 POP CALLER PUSH20 0xFFFFFFFFFFFFFFFFFFFFFFFFFFFFFFFFFFFFFFFF DUP3 AND EQ PUSH2 0x1D1 JUMPI PUSH2 0x1D1 PUSH2 0x1CC CALLER DUP4 PUSH2 0x724 JUMP JUMPDEST PUSH2 0x7D2 JUMP JUMPDEST POP PUSH20 0xFFFFFFFFFFFFFFFFFFFFFFFFFFFFFFFFFFFFFFFF DUP2 AND PUSH2 0x1F8 JUMPI PUSH2 0x1F8 PUSH2 0x1CC PUSH2 0x7DA JUMP JUMPDEST PUSH1 0x0 PUSH2 0x202 PUSH2 0x850 JUMP JUMPDEST DUP1 SLOAD PUSH32 0xFFFFFFFFFFFFFFFFFFFFFFFF0000000000000000000000000000000000000000 AND ADDRESS OR DUP2 SSTORE PUSH1 0x40 DUP1 MLOAD PUSH1 0x20 PUSH1 0x1F DUP8 ADD DUP2 SWAP1 DIV DUP2 MUL DUP3 ADD DUP2 ADD SWAP1 SWAP3 MSTORE DUP6 DUP2 MSTORE SWAP2 SWAP3 POP PUSH2 0x26C SWAP2 DUP8 SWAP2 DUP8 SWAP1 DUP8 SWAP1 DUP2 SWAP1 DUP5 ADD DUP4 DUP3 DUP1 DUP3 DUP5 CALLDATACOPY PUSH1 0x0 SWAP3 ADD SWAP2 SWAP1 SWAP2 MSTORE POP PUSH2 0x863 SWAP3 POP POP POP JUMP JUMPDEST DUP1 SLOAD PUSH32 0xFFFFFFFFFFFFFFFFFFFFFFFF0000000000000000000000000000000000000000 AND PUSH20 0xFFFFFFFFFFFFFFFFFFFFFFFFFFFFFFFFFFFFFFFF DUP4 AND OR DUP2 SSTORE PUSH1 0x40 MLOAD PUSH32 0xE1B831B0E6F3AA16B4B1A6BD526B5CDEAB4940744CA6E0251F5FE5F8CAF1C81A SWAP1 PUSH2 0x2DE SWAP1 CALLER SWAP1 DUP9 SWAP1 DUP7 SWAP1 PUSH2 0xBD5 JUMP JUMPDEST PUSH1 0x40 MLOAD DUP1 SWAP2 SUB SWAP1 LOG1 POP POP POP POP POP JUMP JUMPDEST PUSH1 0x40 MLOAD DUP1 PUSH1 0x40 ADD PUSH1 0x40 MSTORE DUP1 PUSH1 0x7 DUP2 MSTORE PUSH1 0x20 ADD PUSH32 0x4F776E61626C6500000000000000000000000000000000000000000000000000 DUP2 MSTORE POP DUP2 JUMP JUMPDEST PUSH1 0x0 PUSH2 0x330 PUSH2 0x850 JUMP JUMPDEST SLOAD PUSH20 0xFFFFFFFFFFFFFFFFFFFFFFFFFFFFFFFFFFFFFFFF AND SWAP1 POP SWAP1 JUMP JUMPDEST PUSH1 0x0 ADDRESS PUSH20 0xFFFFFFFFFFFFFFFFFFFFFFFFFFFFFFFFFFFFFFFF AND PUSH4 0x8DA5CB5B PUSH1 0x40 MLOAD DUP2 PUSH4 0xFFFFFFFF AND PUSH1 0xE0 SHL DUP2 MSTORE PUSH1 0x4 ADD PUSH1 0x20 PUSH1 0x40 MLOAD DUP1 DUP4 SUB DUP2 DUP7 DUP1 EXTCODESIZE ISZERO DUP1 ISZERO PUSH2 0x394 JUMPI PUSH1 0x0 DUP1 REVERT JUMPDEST POP GAS STATICCALL ISZERO DUP1 ISZERO PUSH2 0x3A8 JUMPI RETURNDATASIZE PUSH1 0x0 DUP1 RETURNDATACOPY RETURNDATASIZE PUSH1 0x0 REVERT JUMPDEST POP POP POP POP PUSH1 0x40 MLOAD RETURNDATASIZE PUSH1 0x1F NOT PUSH1 0x1F DUP3 ADD AND DUP3 ADD DUP1 PUSH1 0x40 MSTORE POP DUP2 ADD SWAP1 PUSH2 0x3CC SWAP2 SWAP1 PUSH2 0x9C1 JUMP JUMPDEST SWAP1 POP CALLER PUSH20 0xFFFFFFFFFFFFFFFFFFFFFFFFFFFFFFFFFFFFFFFF DUP3 AND EQ PUSH2 0x3F8 JUMPI PUSH2 0x3F8 PUSH2 0x1CC CALLER DUP4 PUSH2 0x724 JUMP JUMPDEST POP PUSH1 0x0 PUSH2 0x403 PUSH2 0x850 JUMP JUMPDEST SWAP1 POP PUSH20 0xFFFFFFFFFFFFFFFFFFFFFFFFFFFFFFFFFFFFFFFF DUP3 AND PUSH2 0x430 JUMPI PUSH2 0x42B PUSH2 0x1CC PUSH2 0x7DA JUMP JUMPDEST PUSH2 0x49C JUMP JUMPDEST DUP1 SLOAD PUSH32 0xFFFFFFFFFFFFFFFFFFFFFFFF0000000000000000000000000000000000000000 AND PUSH20 0xFFFFFFFFFFFFFFFFFFFFFFFFFFFFFFFFFFFFFFFF DUP4 AND SWAP1 DUP2 OR DUP3 SSTORE PUSH1 0x40 MLOAD CALLER SWAP1 PUSH32 0x8BE0079C531659141344CD1FD0A4F28419497F9722A3DAAFE3B4186F6B6457E0 SWAP1 PUSH1 0x0 SWAP1 LOG3 JUMPDEST POP POP JUMP JUMPDEST PUSH1 0x0 ADDRESS PUSH2 0x4AB PUSH2 0x850 JUMP JUMPDEST DUP1 SLOAD PUSH32 0xFFFFFFFFFFFFFFFFFFFFFFFF0000000000000000000000000000000000000000 AND PUSH20 0xFFFFFFFFFFFFFFFFFFFFFFFFFFFFFFFFFFFFFFFF SWAP3 SWAP1 SWAP3 AND SWAP2 SWAP1 SWAP2 OR SWAP1 SSTORE PUSH1 0x40 MLOAD PUSH32 0xEE8BE1B00000000000000000000000000000000000000000000000000000000 DUP2 MSTORE ADDRESS SWAP1 PUSH4 0xEE8BE1B SWAP1 PUSH2 0x56C SWAP1 PUSH32 0xF2FDE38B00000000000000000000000000000000000000000000000000000000 SWAP1 PUSH32 0x0 SWAP1 PUSH1 0x4 ADD PUSH2 0xC90 JUMP JUMPDEST PUSH1 0x0 PUSH1 0x40 MLOAD DUP1 DUP4 SUB DUP2 PUSH1 0x0 DUP8 DUP1 EXTCODESIZE ISZERO DUP1 ISZERO PUSH2 0x586 JUMPI PUSH1 0x0 DUP1 REVERT JUMPDEST POP GAS CALL ISZERO DUP1 ISZERO PUSH2 0x59A JUMPI RETURNDATASIZE PUSH1 0x0 DUP1 RETURNDATACOPY RETURNDATASIZE PUSH1 0x0 REVERT JUMPDEST POP POP PUSH1 0x40 MLOAD PUSH32 0xEE8BE1B00000000000000000000000000000000000000000000000000000000 DUP2 MSTORE ADDRESS SWAP3 POP PUSH4 0xEE8BE1B SWAP2 POP PUSH2 0x61C SWAP1 PUSH32 0x8DA5CB5B00000000000000000000000000000000000000000000000000000000 SWAP1 PUSH32 0x0 SWAP1 PUSH1 0x4 ADD PUSH2 0xC90 JUMP JUMPDEST PUSH1 0x0 PUSH1 0x40 MLOAD DUP1 DUP4 SUB DUP2 PUSH1 0x0 DUP8 DUP1 EXTCODESIZE ISZERO DUP1 ISZERO PUSH2 0x636 JUMPI PUSH1 0x0 DUP1 REVERT JUMPDEST POP GAS CALL ISZERO DUP1 ISZERO PUSH2 0x64A JUMPI RETURNDATASIZE PUSH1 0x0 DUP1 RETURNDATACOPY RETURNDATASIZE PUSH1 0x0 REVERT JUMPDEST POP POP PUSH1 0x40 MLOAD PUSH32 0xEE8BE1B00000000000000000000000000000000000000000000000000000000 DUP2 MSTORE ADDRESS SWAP3 POP PUSH4 0xEE8BE1B SWAP2 POP PUSH2 0x6CC SWAP1 PUSH32 0x261FE67900000000000000000000000000000000000000000000000000000000 SWAP1 PUSH32 0x0 SWAP1 PUSH1 0x4 ADD PUSH2 0xC90 JUMP JUMPDEST PUSH1 0x0 PUSH1 0x40 MLOAD DUP1 DUP4 SUB DUP2 PUSH1 0x0 DUP8 DUP1 EXTCODESIZE ISZERO DUP1 ISZERO PUSH2 0x6E6 JUMPI PUSH1 0x0 DUP1 REVERT JUMPDEST POP GAS CALL ISZERO DUP1 ISZERO PUSH2 0x6FA JUMPI RETURNDATASIZE PUSH1 0x0 DUP1 RETURNDATACOPY RETURNDATASIZE PUSH1 0x0 REVERT JUMPDEST POP PUSH32 0xD150751B00000000000000000000000000000000000000000000000000000000 SWAP4 POP POP POP POP SWAP1 JUMP JUMPDEST PUSH1 0x60 PUSH1 0x40 MLOAD PUSH2 0x732 SWAP1 PUSH2 0xB13 JUMP JUMPDEST PUSH1 0x40 MLOAD DUP1 SWAP2 SUB SWAP1 KECCAK256 DUP4 DUP4 PUSH1 0x40 MLOAD PUSH1 0x24 ADD PUSH2 0x74D SWAP3 SWAP2 SWAP1 PUSH2 0xC05 JUMP JUMPDEST PUSH1 0x40 DUP1 MLOAD PUSH32 0xFFFFFFFFFFFFFFFFFFFFFFFFFFFFFFFFFFFFFFFFFFFFFFFFFFFFFFFFFFFFFFE0 DUP2 DUP5 SUB ADD DUP2 MSTORE SWAP2 SWAP1 MSTORE PUSH1 0x20 DUP2 ADD DUP1 MLOAD PUSH28 0xFFFFFFFFFFFFFFFFFFFFFFFFFFFFFFFFFFFFFFFFFFFFFFFFFFFFFFFF AND PUSH32 0xFFFFFFFF00000000000000000000000000000000000000000000000000000000 SWAP1 SWAP4 AND SWAP3 SWAP1 SWAP3 OR SWAP1 SWAP2 MSTORE SWAP1 POP SWAP3 SWAP2 POP POP JUMP JUMPDEST DUP1 MLOAD PUSH1 0x20 DUP3 ADD REVERT JUMPDEST PUSH1 0x60 PUSH1 0x40 MLOAD PUSH2 0x7E8 SWAP1 PUSH2 0xB3C JUMP JUMPDEST PUSH1 0x40 DUP1 MLOAD SWAP2 DUP3 SWAP1 SUB DUP3 KECCAK256 PUSH1 0x4 DUP4 MSTORE PUSH1 0x24 DUP4 ADD SWAP1 SWAP2 MSTORE PUSH1 0x20 DUP3 ADD DUP1 MLOAD PUSH28 0xFFFFFFFFFFFFFFFFFFFFFFFFFFFFFFFFFFFFFFFFFFFFFFFFFFFFFFFF AND PUSH32 0xFFFFFFFF00000000000000000000000000000000000000000000000000000000 SWAP1 SWAP3 AND SWAP2 SWAP1 SWAP2 OR SWAP1 MSTORE SWAP1 POP SWAP1 JUMP JUMPDEST PUSH1 0x0 DUP1 PUSH2 0x85D PUSH1 0x2 PUSH2 0x95A JUMP JUMPDEST SWAP3 SWAP2 POP POP JUMP JUMPDEST PUSH1 0x0 PUSH1 0x60 DUP4 PUSH20 0xFFFFFFFFFFFFFFFFFFFFFFFFFFFFFFFFFFFFFFFF AND DUP4 PUSH1 0x40 MLOAD PUSH2 0x88C SWAP2 SWAP1 PUSH2 0xAF7 JUMP JUMPDEST PUSH1 0x0 PUSH1 0x40 MLOAD DUP1 DUP4 SUB DUP2 DUP6 GAS DELEGATECALL SWAP2 POP POP RETURNDATASIZE DUP1 PUSH1 0x0 DUP2 EQ PUSH2 0x8C7 JUMPI PUSH1 0x40 MLOAD SWAP2 POP PUSH1 0x1F NOT PUSH1 0x3F RETURNDATASIZE ADD AND DUP3 ADD PUSH1 0x40 MSTORE RETURNDATASIZE DUP3 MSTORE RETURNDATASIZE PUSH1 0x0 PUSH1 0x20 DUP5 ADD RETURNDATACOPY PUSH2 0x8CC JUMP JUMPDEST PUSH1 0x60 SWAP2 POP JUMPDEST POP SWAP2 POP SWAP2 POP DUP2 ISZERO DUP1 PUSH2 0x8E0 JUMPI POP DUP1 MLOAD PUSH1 0x20 EQ ISZERO JUMPDEST DUP1 PUSH2 0x942 JUMPI POP DUP1 MLOAD PUSH32 0x2C64C5EF00000000000000000000000000000000000000000000000000000000 SWAP1 PUSH2 0x91D SWAP1 DUP4 ADD PUSH1 0x20 SWAP1 DUP2 ADD SWAP1 DUP5 ADD PUSH2 0xA6D JUMP JUMPDEST PUSH32 0xFFFFFFFF00000000000000000000000000000000000000000000000000000000 AND EQ ISZERO JUMPDEST ISZERO PUSH2 0x954 JUMPI PUSH2 0x954 PUSH2 0x1CC DUP6 DUP4 PUSH2 0x975 JUMP JUMPDEST POP POP POP POP JUMP JUMPDEST PUSH1 0x0 PUSH1 0x80 DUP3 PUSH1 0x4 DUP2 GT ISZERO PUSH2 0x96A JUMPI INVALID JUMPDEST PUSH1 0x1 ADD SWAP1 SHL SWAP3 SWAP2 POP POP JUMP JUMPDEST PUSH1 0x60 PUSH1 0x40 MLOAD PUSH2 0x983 SWAP1 PUSH2 0xB65 JUMP JUMPDEST PUSH1 0x40 MLOAD DUP1 SWAP2 SUB SWAP1 KECCAK256 DUP4 DUP4 PUSH1 0x40 MLOAD PUSH1 0x24 ADD PUSH2 0x74D SWAP3 SWAP2 SWAP1 PUSH2 0xC2C JUMP JUMPDEST PUSH1 0x0 PUSH1 0x20 DUP3 DUP5 SUB SLT ISZERO PUSH2 0x9AF JUMPI DUP1 DUP2 REVERT JUMPDEST DUP2 CALLDATALOAD PUSH2 0x9BA DUP2 PUSH2 0xD20 JUMP JUMPDEST SWAP4 SWAP3 POP POP POP JUMP JUMPDEST PUSH1 0x0 PUSH1 0x20 DUP3 DUP5 SUB SLT ISZERO PUSH2 0x9D2 JUMPI DUP1 DUP2 REVERT JUMPDEST DUP2 MLOAD PUSH2 0x9BA DUP2 PUSH2 0xD20 JUMP JUMPDEST PUSH1 0x0 DUP1 PUSH1 0x0 DUP1 PUSH1 0x60 DUP6 DUP8 SUB SLT ISZERO PUSH2 0x9F2 JUMPI DUP3 DUP4 REVERT JUMPDEST DUP5 CALLDATALOAD PUSH2 0x9FD DUP2 PUSH2 0xD20 JUMP JUMPDEST SWAP4 POP PUSH1 0x20 DUP6 ADD CALLDATALOAD PUSH8 0xFFFFFFFFFFFFFFFF DUP1 DUP3 GT ISZERO PUSH2 0xA19 JUMPI DUP5 DUP6 REVERT JUMPDEST DUP2 DUP8 ADD DUP9 PUSH1 0x1F DUP3 ADD SLT PUSH2 0xA2A JUMPI DUP6 DUP7 REVERT JUMPDEST DUP1 CALLDATALOAD SWAP3 POP DUP2 DUP4 GT ISZERO PUSH2 0xA3A JUMPI DUP6 DUP7 REVERT JUMPDEST DUP9 PUSH1 0x20 DUP5 DUP4 ADD ADD GT ISZERO PUSH2 0xA4B JUMPI DUP6 DUP7 REVERT JUMPDEST PUSH1 0x20 ADD SWAP5 POP SWAP1 SWAP3 POP POP PUSH1 0x40 DUP6 ADD CALLDATALOAD PUSH2 0xA62 DUP2 PUSH2 0xD20 JUMP JUMPDEST SWAP4 SWAP7 SWAP3 SWAP6 POP SWAP1 SWAP4 POP POP JUMP JUMPDEST PUSH1 0x0 PUSH1 0x20 DUP3 DUP5 SUB SLT ISZERO PUSH2 0xA7E JUMPI DUP1 DUP2 REVERT JUMPDEST DUP2 MLOAD PUSH32 0xFFFFFFFF00000000000000000000000000000000000000000000000000000000 DUP2 AND DUP2 EQ PUSH2 0x9BA JUMPI DUP2 DUP3 REVERT JUMPDEST PUSH1 0x0 DUP2 MLOAD DUP1 DUP5 MSTORE PUSH2 0xAC5 DUP2 PUSH1 0x20 DUP7 ADD PUSH1 0x20 DUP7 ADD PUSH2 0xCF4 JUMP JUMPDEST PUSH1 0x1F ADD PUSH32 0xFFFFFFFFFFFFFFFFFFFFFFFFFFFFFFFFFFFFFFFFFFFFFFFFFFFFFFFFFFFFFFE0 AND SWAP3 SWAP1 SWAP3 ADD PUSH1 0x20 ADD SWAP3 SWAP2 POP POP JUMP JUMPDEST PUSH1 0x0 DUP3 MLOAD PUSH2 0xB09 DUP2 DUP5 PUSH1 0x20 DUP8 ADD PUSH2 0xCF4 JUMP JUMPDEST SWAP2 SWAP1 SWAP2 ADD SWAP3 SWAP2 POP POP JUMP JUMPDEST PUSH32 0x4F6E6C794F776E65724572726F7228616464726573732C616464726573732900 DUP2 MSTORE PUSH1 0x1F ADD SWAP1 JUMP JUMPDEST PUSH32 0x5472616E736665724F776E6572546F5A65726F4572726F722829000000000000 DUP2 MSTORE PUSH1 0x1A ADD SWAP1 JUMP JUMPDEST PUSH32 0x4D69677261746543616C6C4661696C65644572726F7228616464726573732C62 DUP2 MSTORE PUSH32 0x7974657329000000000000000000000000000000000000000000000000000000 PUSH1 0x20 DUP3 ADD MSTORE PUSH1 0x25 ADD SWAP1 JUMP JUMPDEST PUSH20 0xFFFFFFFFFFFFFFFFFFFFFFFFFFFFFFFFFFFFFFFF SWAP2 SWAP1 SWAP2 AND DUP2 MSTORE PUSH1 0x20 ADD SWAP1 JUMP JUMPDEST PUSH20 0xFFFFFFFFFFFFFFFFFFFFFFFFFFFFFFFFFFFFFFFF SWAP4 DUP5 AND DUP2 MSTORE SWAP2 DUP4 AND PUSH1 0x20 DUP4 ADD MSTORE SWAP1 SWAP2 AND PUSH1 0x40 DUP3 ADD MSTORE PUSH1 0x60 ADD SWAP1 JUMP JUMPDEST PUSH20 0xFFFFFFFFFFFFFFFFFFFFFFFFFFFFFFFFFFFFFFFF SWAP3 DUP4 AND DUP2 MSTORE SWAP2 AND PUSH1 0x20 DUP3 ADD MSTORE PUSH1 0x40 ADD SWAP1 JUMP JUMPDEST PUSH1 0x0 PUSH20 0xFFFFFFFFFFFFFFFFFFFFFFFFFFFFFFFFFFFFFFFF DUP5 AND DUP3 MSTORE PUSH1 0x40 PUSH1 0x20 DUP4 ADD MSTORE PUSH2 0xC5B PUSH1 0x40 DUP4 ADD DUP5 PUSH2 0xAAD JUMP JUMPDEST SWAP5 SWAP4 POP POP POP POP JUMP JUMPDEST PUSH32 0xFFFFFFFF00000000000000000000000000000000000000000000000000000000 SWAP2 SWAP1 SWAP2 AND DUP2 MSTORE PUSH1 0x20 ADD SWAP1 JUMP JUMPDEST PUSH32 0xFFFFFFFF00000000000000000000000000000000000000000000000000000000 SWAP3 SWAP1 SWAP3 AND DUP3 MSTORE PUSH20 0xFFFFFFFFFFFFFFFFFFFFFFFFFFFFFFFFFFFFFFFF AND PUSH1 0x20 DUP3 ADD MSTORE PUSH1 0x40 ADD SWAP1 JUMP JUMPDEST PUSH1 0x0 PUSH1 0x20 DUP3 MSTORE PUSH2 0x9BA PUSH1 0x20 DUP4 ADD DUP5 PUSH2 0xAAD JUMP JUMPDEST SWAP1 DUP2 MSTORE PUSH1 0x20 ADD SWAP1 JUMP JUMPDEST PUSH1 0x0 JUMPDEST DUP4 DUP2 LT ISZERO PUSH2 0xD0F JUMPI DUP2 DUP2 ADD MLOAD DUP4 DUP3 ADD MSTORE PUSH1 0x20 ADD PUSH2 0xCF7 JUMP JUMPDEST DUP4 DUP2 GT ISZERO PUSH2 0x954 JUMPI POP POP PUSH1 0x0 SWAP2 ADD MSTORE JUMP JUMPDEST PUSH20 0xFFFFFFFFFFFFFFFFFFFFFFFFFFFFFFFFFFFFFFFF DUP2 AND DUP2 EQ PUSH2 0xD42 JUMPI PUSH1 0x0 DUP1 REVERT JUMPDEST POP JUMP INVALID LOG2 PUSH5 0x6970667358 0x22 SLT KECCAK256 0xB3 SAR 0x2C JUMP PUSH5 0x79EBA56250 0xBF 0x49 0xFC PUSH26 0xEC9DB6754B290A43DDFD089CD3F636EC3D364736F6C63430006 EXP STOP CALLER "
            }
        }
    },
    "sourceTreeHashHex": "0xf409a13c8fe54e7c779f41e60d48d8eee5e34416b89c493964cc5b5a1ba14270",
    "compiler": {
        "name": "solc",
        "version": "0.6.10+commit.00c0fcaf",
        "settings": {
            "remappings": [
                "@0x/contracts-utils=/home/gene/dev/0x-monorepo/node_modules/@0x/contracts-utils",
                "@0x/contracts-erc20=/home/gene/dev/0x-monorepo/node_modules/@0x/contracts-erc20"
            ],
            "optimizer": {
                "enabled": true,
                "runs": 1000000,
                "details": {
                    "yul": true,
                    "deduplicate": true,
                    "cse": true,
                    "constantOptimizer": true
                }
            },
            "outputSelection": {
                "*": {
                    "*": [
                        "abi",
                        "devdoc",
                        "evm.bytecode.object",
                        "evm.bytecode.sourceMap",
                        "evm.deployedBytecode.object",
                        "evm.deployedBytecode.sourceMap"
                    ]
                }
            },
            "evmVersion": "istanbul"
        }
    },
    "chains": {}
}