{
    "schemaVersion": "2.0.0",
    "contractName": "PayTakerTransformer",
    "compilerOutput": {
        "abi": [
            {
                "inputs": [],
                "stateMutability": "nonpayable",
                "type": "constructor"
            },
            {
                "inputs": [],
                "name": "deployer",
                "outputs": [
                    {
                        "internalType": "address",
                        "name": "",
                        "type": "address"
                    }
                ],
                "stateMutability": "view",
                "type": "function"
            },
            {
                "inputs": [
                    {
                        "internalType": "address payable",
                        "name": "ethRecipient",
                        "type": "address"
                    }
                ],
                "name": "die",
                "outputs": [],
                "stateMutability": "nonpayable",
                "type": "function"
            },
            {
                "inputs": [
                    {
                        "components": [
                            {
                                "internalType": "bytes32",
                                "name": "callDataHash",
                                "type": "bytes32"
                            },
                            {
                                "internalType": "address payable",
                                "name": "sender",
                                "type": "address"
                            },
                            {
                                "internalType": "address payable",
                                "name": "taker",
                                "type": "address"
                            },
                            {
                                "internalType": "bytes",
                                "name": "data",
                                "type": "bytes"
                            }
                        ],
                        "internalType": "struct IERC20Transformer.TransformContext",
                        "name": "context",
                        "type": "tuple"
                    }
                ],
                "name": "transform",
                "outputs": [
                    {
                        "internalType": "bytes4",
                        "name": "success",
                        "type": "bytes4"
                    }
                ],
                "stateMutability": "nonpayable",
                "type": "function"
            }
        ],
        "devdoc": {
            "details": "A transformer that transfers tokens to the taker.",
            "kind": "dev",
            "methods": {
                "constructor": {
                    "details": "Create this contract."
                },
                "die(address)": {
                    "details": "Destruct this contract. Only callable by the deployer and will not      succeed in the context of a delegatecall (from another contract).",
                    "params": {
                        "ethRecipient": "The recipient of ETH held in this contract."
                    }
                },
                "transform((bytes32,address,address,bytes))": {
                    "details": "Forwards tokens to the taker.",
                    "params": {
                        "context": "Context information."
                    },
                    "returns": {
                        "success": "The success bytes (`LibERC20Transformer.TRANSFORMER_SUCCESS`)."
                    }
                }
            },
            "stateVariables": {
                "MAX_UINT256": {
                    "details": "Maximum uint256 value."
                }
            },
            "version": 1
        },
        "evm": {
            "bytecode": {
                "linkReferences": {},
                "object": "0x60c060405234801561001057600080fd5b5033606081811b608052309081901b60a052610bf561004c60003980610120528061014e52508060b1528060df528061018d5250610bf56000f3fe608060405234801561001057600080fd5b50600436106100415760003560e01c8063c9353cb514610046578063d5f394881461005b578063df9aa1ee14610079575b600080fd5b61005961005436600461089c565b610099565b005b61006361018b565b6040516100709190610a2c565b60405180910390f35b61008c6100873660046108b8565b6101af565b6040516100709190610a9a565b3373ffffffffffffffffffffffffffffffffffffffff7f0000000000000000000000000000000000000000000000000000000000000000161461010857610108610103337f0000000000000000000000000000000000000000000000000000000000000000610327565b6103e3565b3073ffffffffffffffffffffffffffffffffffffffff7f0000000000000000000000000000000000000000000000000000000000000000161461017257610172610103307f00000000000000000000000000000000000000000000000000000000000000006103eb565b8073ffffffffffffffffffffffffffffffffffffffff16ff5b7f000000000000000000000000000000000000000000000000000000000000000081565b60006101b9610809565b6101c66060840184610ae9565b8101906101d391906108f0565b905060005b8151518110156102fc5760008183602001515111610216577fffffffffffffffffffffffffffffffffffffffffffffffffffffffffffffffff61022f565b8260200151828151811061022657fe5b60200260200101515b90507fffffffffffffffffffffffffffffffffffffffffffffffffffffffffffffffff81141561029c57610299308460000151848151811061026d57fe5b602002602001015173ffffffffffffffffffffffffffffffffffffffff1661042190919063ffffffff16565b90505b80156102f3576102f36102b5606087016040880161089c565b82856000015185815181106102c657fe5b602002602001015173ffffffffffffffffffffffffffffffffffffffff166104f89092919063ffffffff16565b506001016101d8565b507f13c9929e000000000000000000000000000000000000000000000000000000009150505b919050565b60607f5cec653b364cca3880afa73ceff506d0651d11d26abbbe4a56460aa933b21b08838360405160240161035d929190610a4d565b604080517fffffffffffffffffffffffffffffffffffffffffffffffffffffffffffffffe08184030181529190526020810180517bffffffffffffffffffffffffffffffffffffffffffffffffffffffff167fffffffff000000000000000000000000000000000000000000000000000000009093169290921790915290505b92915050565b805160208201fd5b60607fb5cf2cd09307d6c717473134badbb9761c2c97d7565566c2a71eba6cd6fc514d838360405160240161035d929190610a4d565b600061042c83610575565b1561044f575073ffffffffffffffffffffffffffffffffffffffff8116316103dd565b6040517f70a0823100000000000000000000000000000000000000000000000000000000815273ffffffffffffffffffffffffffffffffffffffff8416906370a08231906104a1908590600401610a2c565b60206040518083038186803b1580156104b957600080fd5b505afa1580156104cd573d6000803e3d6000fd5b505050506040513d601f19601f820116820180604052508101906104f191906109db565b9392505050565b61050183610575565b1561054f5760405173ffffffffffffffffffffffffffffffffffffffff83169082156108fc029083906000818181858888f19350505050158015610549573d6000803e3d6000fd5b50610570565b61057073ffffffffffffffffffffffffffffffffffffffff841683836105a7565b505050565b73ffffffffffffffffffffffffffffffffffffffff811673eeeeeeeeeeeeeeeeeeeeeeeeeeeeeeeeeeeeeeee14919050565b606063a9059cbb60e01b83836040516024016105c4929190610a74565b604080517fffffffffffffffffffffffffffffffffffffffffffffffffffffffffffffffe08184030181529190526020810180517bffffffffffffffffffffffffffffffffffffffffffffffffffffffff167fffffffff0000000000000000000000000000000000000000000000000000000090931692909217909152905061064d8482610653565b50505050565b600060608373ffffffffffffffffffffffffffffffffffffffff168360405161067c91906109f3565b6000604051808303816000865af19150503d80600081146106b9576040519150601f19603f3d011682016040523d82523d6000602084013e6106be565b606091505b50915091508180156106d457506106d4816106ed565b156106e05750506106e9565b61064d816103e3565b5050565b600081516000141561070157506001610322565b815160201415610322576000610718836000610733565b9050806001141561072d576001915050610322565b50919050565b60006104f183836000816020018351101561075b5761075b6101036005855185602001610764565b50016020015190565b6060632800659560e01b84848460405160240161078393929190610ac7565b604080517fffffffffffffffffffffffffffffffffffffffffffffffffffffffffffffffe08184030181529190526020810180517bffffffffffffffffffffffffffffffffffffffffffffffffffffffff167fffffffff000000000000000000000000000000000000000000000000000000009093169290921790915290509392505050565b604051806040016040528060608152602001606081525090565b600082601f830112610833578081fd5b813561084661084182610b7a565b610b53565b81815291506020808301908481018184028601820187101561086757600080fd5b60005b848110156108865781358452928201929082019060010161086a565b505050505092915050565b80356103dd81610b9a565b6000602082840312156108ad578081fd5b81356104f181610b9a565b6000602082840312156108c9578081fd5b813567ffffffffffffffff8111156108df578182fd5b8201608081850312156104f1578182fd5b60006020808385031215610902578182fd5b823567ffffffffffffffff80821115610919578384fd5b908401906040828703121561092c578384fd5b6109366040610b53565b823582811115610944578586fd5b8301601f81018813610954578586fd5b803561096261084182610b7a565b81815286810190838801888402850189018c101561097e57898afd5b8994505b838510156109a8576109948c82610891565b835260019490940193918801918801610982565b50845250505082840135828111156109be578586fd5b6109ca88828601610823565b948201949094529695505050505050565b6000602082840312156109ec578081fd5b5051919050565b60008251815b81811015610a1357602081860181015185830152016109f9565b81811115610a215782828501525b509190910192915050565b73ffffffffffffffffffffffffffffffffffffffff91909116815260200190565b73ffffffffffffffffffffffffffffffffffffffff92831681529116602082015260400190565b73ffffffffffffffffffffffffffffffffffffffff929092168252602082015260400190565b7fffffffff0000000000000000000000000000000000000000000000000000000091909116815260200190565b6060810160088510610ad557fe5b938152602081019290925260409091015290565b60008083357fffffffffffffffffffffffffffffffffffffffffffffffffffffffffffffffe1843603018112610b1d578283fd5b83018035915067ffffffffffffffff821115610b37578283fd5b602001915036819003821315610b4c57600080fd5b9250929050565b60405181810167ffffffffffffffff81118282101715610b7257600080fd5b604052919050565b600067ffffffffffffffff821115610b90578081fd5b5060209081020190565b73ffffffffffffffffffffffffffffffffffffffff81168114610bbc57600080fd5b5056fea2646970667358221220c20116e71ef68520af0ec46bb476ae84b8bbee3527e6d0126e99ae513fd6622564736f6c634300060c0033",
                "opcodes": "PUSH1 0xC0 PUSH1 0x40 MSTORE CALLVALUE DUP1 ISZERO PUSH2 0x10 JUMPI PUSH1 0x0 DUP1 REVERT JUMPDEST POP CALLER PUSH1 0x60 DUP2 DUP2 SHL PUSH1 0x80 MSTORE ADDRESS SWAP1 DUP2 SWAP1 SHL PUSH1 0xA0 MSTORE PUSH2 0xBF5 PUSH2 0x4C PUSH1 0x0 CODECOPY DUP1 PUSH2 0x120 MSTORE DUP1 PUSH2 0x14E MSTORE POP DUP1 PUSH1 0xB1 MSTORE DUP1 PUSH1 0xDF MSTORE DUP1 PUSH2 0x18D MSTORE POP PUSH2 0xBF5 PUSH1 0x0 RETURN INVALID PUSH1 0x80 PUSH1 0x40 MSTORE CALLVALUE DUP1 ISZERO PUSH2 0x10 JUMPI PUSH1 0x0 DUP1 REVERT JUMPDEST POP PUSH1 0x4 CALLDATASIZE LT PUSH2 0x41 JUMPI PUSH1 0x0 CALLDATALOAD PUSH1 0xE0 SHR DUP1 PUSH4 0xC9353CB5 EQ PUSH2 0x46 JUMPI DUP1 PUSH4 0xD5F39488 EQ PUSH2 0x5B JUMPI DUP1 PUSH4 0xDF9AA1EE EQ PUSH2 0x79 JUMPI JUMPDEST PUSH1 0x0 DUP1 REVERT JUMPDEST PUSH2 0x59 PUSH2 0x54 CALLDATASIZE PUSH1 0x4 PUSH2 0x89C JUMP JUMPDEST PUSH2 0x99 JUMP JUMPDEST STOP JUMPDEST PUSH2 0x63 PUSH2 0x18B JUMP JUMPDEST PUSH1 0x40 MLOAD PUSH2 0x70 SWAP2 SWAP1 PUSH2 0xA2C JUMP JUMPDEST PUSH1 0x40 MLOAD DUP1 SWAP2 SUB SWAP1 RETURN JUMPDEST PUSH2 0x8C PUSH2 0x87 CALLDATASIZE PUSH1 0x4 PUSH2 0x8B8 JUMP JUMPDEST PUSH2 0x1AF JUMP JUMPDEST PUSH1 0x40 MLOAD PUSH2 0x70 SWAP2 SWAP1 PUSH2 0xA9A JUMP JUMPDEST CALLER PUSH20 0xFFFFFFFFFFFFFFFFFFFFFFFFFFFFFFFFFFFFFFFF PUSH32 0x0 AND EQ PUSH2 0x108 JUMPI PUSH2 0x108 PUSH2 0x103 CALLER PUSH32 0x0 PUSH2 0x327 JUMP JUMPDEST PUSH2 0x3E3 JUMP JUMPDEST ADDRESS PUSH20 0xFFFFFFFFFFFFFFFFFFFFFFFFFFFFFFFFFFFFFFFF PUSH32 0x0 AND EQ PUSH2 0x172 JUMPI PUSH2 0x172 PUSH2 0x103 ADDRESS PUSH32 0x0 PUSH2 0x3EB JUMP JUMPDEST DUP1 PUSH20 0xFFFFFFFFFFFFFFFFFFFFFFFFFFFFFFFFFFFFFFFF AND SELFDESTRUCT JUMPDEST PUSH32 0x0 DUP2 JUMP JUMPDEST PUSH1 0x0 PUSH2 0x1B9 PUSH2 0x809 JUMP JUMPDEST PUSH2 0x1C6 PUSH1 0x60 DUP5 ADD DUP5 PUSH2 0xAE9 JUMP JUMPDEST DUP2 ADD SWAP1 PUSH2 0x1D3 SWAP2 SWAP1 PUSH2 0x8F0 JUMP JUMPDEST SWAP1 POP PUSH1 0x0 JUMPDEST DUP2 MLOAD MLOAD DUP2 LT ISZERO PUSH2 0x2FC JUMPI PUSH1 0x0 DUP2 DUP4 PUSH1 0x20 ADD MLOAD MLOAD GT PUSH2 0x216 JUMPI PUSH32 0xFFFFFFFFFFFFFFFFFFFFFFFFFFFFFFFFFFFFFFFFFFFFFFFFFFFFFFFFFFFFFFFF PUSH2 0x22F JUMP JUMPDEST DUP3 PUSH1 0x20 ADD MLOAD DUP3 DUP2 MLOAD DUP2 LT PUSH2 0x226 JUMPI INVALID JUMPDEST PUSH1 0x20 MUL PUSH1 0x20 ADD ADD MLOAD JUMPDEST SWAP1 POP PUSH32 0xFFFFFFFFFFFFFFFFFFFFFFFFFFFFFFFFFFFFFFFFFFFFFFFFFFFFFFFFFFFFFFFF DUP2 EQ ISZERO PUSH2 0x29C JUMPI PUSH2 0x299 ADDRESS DUP5 PUSH1 0x0 ADD MLOAD DUP5 DUP2 MLOAD DUP2 LT PUSH2 0x26D JUMPI INVALID JUMPDEST PUSH1 0x20 MUL PUSH1 0x20 ADD ADD MLOAD PUSH20 0xFFFFFFFFFFFFFFFFFFFFFFFFFFFFFFFFFFFFFFFF AND PUSH2 0x421 SWAP1 SWAP2 SWAP1 PUSH4 0xFFFFFFFF AND JUMP JUMPDEST SWAP1 POP JUMPDEST DUP1 ISZERO PUSH2 0x2F3 JUMPI PUSH2 0x2F3 PUSH2 0x2B5 PUSH1 0x60 DUP8 ADD PUSH1 0x40 DUP9 ADD PUSH2 0x89C JUMP JUMPDEST DUP3 DUP6 PUSH1 0x0 ADD MLOAD DUP6 DUP2 MLOAD DUP2 LT PUSH2 0x2C6 JUMPI INVALID JUMPDEST PUSH1 0x20 MUL PUSH1 0x20 ADD ADD MLOAD PUSH20 0xFFFFFFFFFFFFFFFFFFFFFFFFFFFFFFFFFFFFFFFF AND PUSH2 0x4F8 SWAP1 SWAP3 SWAP2 SWAP1 PUSH4 0xFFFFFFFF AND JUMP JUMPDEST POP PUSH1 0x1 ADD PUSH2 0x1D8 JUMP JUMPDEST POP PUSH32 0x13C9929E00000000000000000000000000000000000000000000000000000000 SWAP2 POP POP JUMPDEST SWAP2 SWAP1 POP JUMP JUMPDEST PUSH1 0x60 PUSH32 0x5CEC653B364CCA3880AFA73CEFF506D0651D11D26ABBBE4A56460AA933B21B08 DUP4 DUP4 PUSH1 0x40 MLOAD PUSH1 0x24 ADD PUSH2 0x35D SWAP3 SWAP2 SWAP1 PUSH2 0xA4D JUMP JUMPDEST PUSH1 0x40 DUP1 MLOAD PUSH32 0xFFFFFFFFFFFFFFFFFFFFFFFFFFFFFFFFFFFFFFFFFFFFFFFFFFFFFFFFFFFFFFE0 DUP2 DUP5 SUB ADD DUP2 MSTORE SWAP2 SWAP1 MSTORE PUSH1 0x20 DUP2 ADD DUP1 MLOAD PUSH28 0xFFFFFFFFFFFFFFFFFFFFFFFFFFFFFFFFFFFFFFFFFFFFFFFFFFFFFFFF AND PUSH32 0xFFFFFFFF00000000000000000000000000000000000000000000000000000000 SWAP1 SWAP4 AND SWAP3 SWAP1 SWAP3 OR SWAP1 SWAP2 MSTORE SWAP1 POP JUMPDEST SWAP3 SWAP2 POP POP JUMP JUMPDEST DUP1 MLOAD PUSH1 0x20 DUP3 ADD REVERT JUMPDEST PUSH1 0x60 PUSH32 0xB5CF2CD09307D6C717473134BADBB9761C2C97D7565566C2A71EBA6CD6FC514D DUP4 DUP4 PUSH1 0x40 MLOAD PUSH1 0x24 ADD PUSH2 0x35D SWAP3 SWAP2 SWAP1 PUSH2 0xA4D JUMP JUMPDEST PUSH1 0x0 PUSH2 0x42C DUP4 PUSH2 0x575 JUMP JUMPDEST ISZERO PUSH2 0x44F JUMPI POP PUSH20 0xFFFFFFFFFFFFFFFFFFFFFFFFFFFFFFFFFFFFFFFF DUP2 AND BALANCE PUSH2 0x3DD JUMP JUMPDEST PUSH1 0x40 MLOAD PUSH32 0x70A0823100000000000000000000000000000000000000000000000000000000 DUP2 MSTORE PUSH20 0xFFFFFFFFFFFFFFFFFFFFFFFFFFFFFFFFFFFFFFFF DUP5 AND SWAP1 PUSH4 0x70A08231 SWAP1 PUSH2 0x4A1 SWAP1 DUP6 SWAP1 PUSH1 0x4 ADD PUSH2 0xA2C JUMP JUMPDEST PUSH1 0x20 PUSH1 0x40 MLOAD DUP1 DUP4 SUB DUP2 DUP7 DUP1 EXTCODESIZE ISZERO DUP1 ISZERO PUSH2 0x4B9 JUMPI PUSH1 0x0 DUP1 REVERT JUMPDEST POP GAS STATICCALL ISZERO DUP1 ISZERO PUSH2 0x4CD JUMPI RETURNDATASIZE PUSH1 0x0 DUP1 RETURNDATACOPY RETURNDATASIZE PUSH1 0x0 REVERT JUMPDEST POP POP POP POP PUSH1 0x40 MLOAD RETURNDATASIZE PUSH1 0x1F NOT PUSH1 0x1F DUP3 ADD AND DUP3 ADD DUP1 PUSH1 0x40 MSTORE POP DUP2 ADD SWAP1 PUSH2 0x4F1 SWAP2 SWAP1 PUSH2 0x9DB JUMP JUMPDEST SWAP4 SWAP3 POP POP POP JUMP JUMPDEST PUSH2 0x501 DUP4 PUSH2 0x575 JUMP JUMPDEST ISZERO PUSH2 0x54F JUMPI PUSH1 0x40 MLOAD PUSH20 0xFFFFFFFFFFFFFFFFFFFFFFFFFFFFFFFFFFFFFFFF DUP4 AND SWAP1 DUP3 ISZERO PUSH2 0x8FC MUL SWAP1 DUP4 SWAP1 PUSH1 0x0 DUP2 DUP2 DUP2 DUP6 DUP9 DUP9 CALL SWAP4 POP POP POP POP ISZERO DUP1 ISZERO PUSH2 0x549 JUMPI RETURNDATASIZE PUSH1 0x0 DUP1 RETURNDATACOPY RETURNDATASIZE PUSH1 0x0 REVERT JUMPDEST POP PUSH2 0x570 JUMP JUMPDEST PUSH2 0x570 PUSH20 0xFFFFFFFFFFFFFFFFFFFFFFFFFFFFFFFFFFFFFFFF DUP5 AND DUP4 DUP4 PUSH2 0x5A7 JUMP JUMPDEST POP POP POP JUMP JUMPDEST PUSH20 0xFFFFFFFFFFFFFFFFFFFFFFFFFFFFFFFFFFFFFFFF DUP2 AND PUSH20 0xEEEEEEEEEEEEEEEEEEEEEEEEEEEEEEEEEEEEEEEE EQ SWAP2 SWAP1 POP JUMP JUMPDEST PUSH1 0x60 PUSH4 0xA9059CBB PUSH1 0xE0 SHL DUP4 DUP4 PUSH1 0x40 MLOAD PUSH1 0x24 ADD PUSH2 0x5C4 SWAP3 SWAP2 SWAP1 PUSH2 0xA74 JUMP JUMPDEST PUSH1 0x40 DUP1 MLOAD PUSH32 0xFFFFFFFFFFFFFFFFFFFFFFFFFFFFFFFFFFFFFFFFFFFFFFFFFFFFFFFFFFFFFFE0 DUP2 DUP5 SUB ADD DUP2 MSTORE SWAP2 SWAP1 MSTORE PUSH1 0x20 DUP2 ADD DUP1 MLOAD PUSH28 0xFFFFFFFFFFFFFFFFFFFFFFFFFFFFFFFFFFFFFFFFFFFFFFFFFFFFFFFF AND PUSH32 0xFFFFFFFF00000000000000000000000000000000000000000000000000000000 SWAP1 SWAP4 AND SWAP3 SWAP1 SWAP3 OR SWAP1 SWAP2 MSTORE SWAP1 POP PUSH2 0x64D DUP5 DUP3 PUSH2 0x653 JUMP JUMPDEST POP POP POP POP JUMP JUMPDEST PUSH1 0x0 PUSH1 0x60 DUP4 PUSH20 0xFFFFFFFFFFFFFFFFFFFFFFFFFFFFFFFFFFFFFFFF AND DUP4 PUSH1 0x40 MLOAD PUSH2 0x67C SWAP2 SWAP1 PUSH2 0x9F3 JUMP JUMPDEST PUSH1 0x0 PUSH1 0x40 MLOAD DUP1 DUP4 SUB DUP2 PUSH1 0x0 DUP7 GAS CALL SWAP2 POP POP RETURNDATASIZE DUP1 PUSH1 0x0 DUP2 EQ PUSH2 0x6B9 JUMPI PUSH1 0x40 MLOAD SWAP2 POP PUSH1 0x1F NOT PUSH1 0x3F RETURNDATASIZE ADD AND DUP3 ADD PUSH1 0x40 MSTORE RETURNDATASIZE DUP3 MSTORE RETURNDATASIZE PUSH1 0x0 PUSH1 0x20 DUP5 ADD RETURNDATACOPY PUSH2 0x6BE JUMP JUMPDEST PUSH1 0x60 SWAP2 POP JUMPDEST POP SWAP2 POP SWAP2 POP DUP2 DUP1 ISZERO PUSH2 0x6D4 JUMPI POP PUSH2 0x6D4 DUP2 PUSH2 0x6ED JUMP JUMPDEST ISZERO PUSH2 0x6E0 JUMPI POP POP PUSH2 0x6E9 JUMP JUMPDEST PUSH2 0x64D DUP2 PUSH2 0x3E3 JUMP JUMPDEST POP POP JUMP JUMPDEST PUSH1 0x0 DUP2 MLOAD PUSH1 0x0 EQ ISZERO PUSH2 0x701 JUMPI POP PUSH1 0x1 PUSH2 0x322 JUMP JUMPDEST DUP2 MLOAD PUSH1 0x20 EQ ISZERO PUSH2 0x322 JUMPI PUSH1 0x0 PUSH2 0x718 DUP4 PUSH1 0x0 PUSH2 0x733 JUMP JUMPDEST SWAP1 POP DUP1 PUSH1 0x1 EQ ISZERO PUSH2 0x72D JUMPI PUSH1 0x1 SWAP2 POP POP PUSH2 0x322 JUMP JUMPDEST POP SWAP2 SWAP1 POP JUMP JUMPDEST PUSH1 0x0 PUSH2 0x4F1 DUP4 DUP4 PUSH1 0x0 DUP2 PUSH1 0x20 ADD DUP4 MLOAD LT ISZERO PUSH2 0x75B JUMPI PUSH2 0x75B PUSH2 0x103 PUSH1 0x5 DUP6 MLOAD DUP6 PUSH1 0x20 ADD PUSH2 0x764 JUMP JUMPDEST POP ADD PUSH1 0x20 ADD MLOAD SWAP1 JUMP JUMPDEST PUSH1 0x60 PUSH4 0x28006595 PUSH1 0xE0 SHL DUP5 DUP5 DUP5 PUSH1 0x40 MLOAD PUSH1 0x24 ADD PUSH2 0x783 SWAP4 SWAP3 SWAP2 SWAP1 PUSH2 0xAC7 JUMP JUMPDEST PUSH1 0x40 DUP1 MLOAD PUSH32 0xFFFFFFFFFFFFFFFFFFFFFFFFFFFFFFFFFFFFFFFFFFFFFFFFFFFFFFFFFFFFFFE0 DUP2 DUP5 SUB ADD DUP2 MSTORE SWAP2 SWAP1 MSTORE PUSH1 0x20 DUP2 ADD DUP1 MLOAD PUSH28 0xFFFFFFFFFFFFFFFFFFFFFFFFFFFFFFFFFFFFFFFFFFFFFFFFFFFFFFFF AND PUSH32 0xFFFFFFFF00000000000000000000000000000000000000000000000000000000 SWAP1 SWAP4 AND SWAP3 SWAP1 SWAP3 OR SWAP1 SWAP2 MSTORE SWAP1 POP SWAP4 SWAP3 POP POP POP JUMP JUMPDEST PUSH1 0x40 MLOAD DUP1 PUSH1 0x40 ADD PUSH1 0x40 MSTORE DUP1 PUSH1 0x60 DUP2 MSTORE PUSH1 0x20 ADD PUSH1 0x60 DUP2 MSTORE POP SWAP1 JUMP JUMPDEST PUSH1 0x0 DUP3 PUSH1 0x1F DUP4 ADD SLT PUSH2 0x833 JUMPI DUP1 DUP2 REVERT JUMPDEST DUP2 CALLDATALOAD PUSH2 0x846 PUSH2 0x841 DUP3 PUSH2 0xB7A JUMP JUMPDEST PUSH2 0xB53 JUMP JUMPDEST DUP2 DUP2 MSTORE SWAP2 POP PUSH1 0x20 DUP1 DUP4 ADD SWAP1 DUP5 DUP2 ADD DUP2 DUP5 MUL DUP7 ADD DUP3 ADD DUP8 LT ISZERO PUSH2 0x867 JUMPI PUSH1 0x0 DUP1 REVERT JUMPDEST PUSH1 0x0 JUMPDEST DUP5 DUP2 LT ISZERO PUSH2 0x886 JUMPI DUP2 CALLDATALOAD DUP5 MSTORE SWAP3 DUP3 ADD SWAP3 SWAP1 DUP3 ADD SWAP1 PUSH1 0x1 ADD PUSH2 0x86A JUMP JUMPDEST POP POP POP POP POP SWAP3 SWAP2 POP POP JUMP JUMPDEST DUP1 CALLDATALOAD PUSH2 0x3DD DUP2 PUSH2 0xB9A JUMP JUMPDEST PUSH1 0x0 PUSH1 0x20 DUP3 DUP5 SUB SLT ISZERO PUSH2 0x8AD JUMPI DUP1 DUP2 REVERT JUMPDEST DUP2 CALLDATALOAD PUSH2 0x4F1 DUP2 PUSH2 0xB9A JUMP JUMPDEST PUSH1 0x0 PUSH1 0x20 DUP3 DUP5 SUB SLT ISZERO PUSH2 0x8C9 JUMPI DUP1 DUP2 REVERT JUMPDEST DUP2 CALLDATALOAD PUSH8 0xFFFFFFFFFFFFFFFF DUP2 GT ISZERO PUSH2 0x8DF JUMPI DUP2 DUP3 REVERT JUMPDEST DUP3 ADD PUSH1 0x80 DUP2 DUP6 SUB SLT ISZERO PUSH2 0x4F1 JUMPI DUP2 DUP3 REVERT JUMPDEST PUSH1 0x0 PUSH1 0x20 DUP1 DUP4 DUP6 SUB SLT ISZERO PUSH2 0x902 JUMPI DUP2 DUP3 REVERT JUMPDEST DUP3 CALLDATALOAD PUSH8 0xFFFFFFFFFFFFFFFF DUP1 DUP3 GT ISZERO PUSH2 0x919 JUMPI DUP4 DUP5 REVERT JUMPDEST SWAP1 DUP5 ADD SWAP1 PUSH1 0x40 DUP3 DUP8 SUB SLT ISZERO PUSH2 0x92C JUMPI DUP4 DUP5 REVERT JUMPDEST PUSH2 0x936 PUSH1 0x40 PUSH2 0xB53 JUMP JUMPDEST DUP3 CALLDATALOAD DUP3 DUP2 GT ISZERO PUSH2 0x944 JUMPI DUP6 DUP7 REVERT JUMPDEST DUP4 ADD PUSH1 0x1F DUP2 ADD DUP9 SGT PUSH2 0x954 JUMPI DUP6 DUP7 REVERT JUMPDEST DUP1 CALLDATALOAD PUSH2 0x962 PUSH2 0x841 DUP3 PUSH2 0xB7A JUMP JUMPDEST DUP2 DUP2 MSTORE DUP7 DUP2 ADD SWAP1 DUP4 DUP9 ADD DUP9 DUP5 MUL DUP6 ADD DUP10 ADD DUP13 LT ISZERO PUSH2 0x97E JUMPI DUP10 DUP11 REVERT JUMPDEST DUP10 SWAP5 POP JUMPDEST DUP4 DUP6 LT ISZERO PUSH2 0x9A8 JUMPI PUSH2 0x994 DUP13 DUP3 PUSH2 0x891 JUMP JUMPDEST DUP4 MSTORE PUSH1 0x1 SWAP5 SWAP1 SWAP5 ADD SWAP4 SWAP2 DUP9 ADD SWAP2 DUP9 ADD PUSH2 0x982 JUMP JUMPDEST POP DUP5 MSTORE POP POP POP DUP3 DUP5 ADD CALLDATALOAD DUP3 DUP2 GT ISZERO PUSH2 0x9BE JUMPI DUP6 DUP7 REVERT JUMPDEST PUSH2 0x9CA DUP9 DUP3 DUP7 ADD PUSH2 0x823 JUMP JUMPDEST SWAP5 DUP3 ADD SWAP5 SWAP1 SWAP5 MSTORE SWAP7 SWAP6 POP POP POP POP POP POP JUMP JUMPDEST PUSH1 0x0 PUSH1 0x20 DUP3 DUP5 SUB SLT ISZERO PUSH2 0x9EC JUMPI DUP1 DUP2 REVERT JUMPDEST POP MLOAD SWAP2 SWAP1 POP JUMP JUMPDEST PUSH1 0x0 DUP3 MLOAD DUP2 JUMPDEST DUP2 DUP2 LT ISZERO PUSH2 0xA13 JUMPI PUSH1 0x20 DUP2 DUP7 ADD DUP2 ADD MLOAD DUP6 DUP4 ADD MSTORE ADD PUSH2 0x9F9 JUMP JUMPDEST DUP2 DUP2 GT ISZERO PUSH2 0xA21 JUMPI DUP3 DUP3 DUP6 ADD MSTORE JUMPDEST POP SWAP2 SWAP1 SWAP2 ADD SWAP3 SWAP2 POP POP JUMP JUMPDEST PUSH20 0xFFFFFFFFFFFFFFFFFFFFFFFFFFFFFFFFFFFFFFFF SWAP2 SWAP1 SWAP2 AND DUP2 MSTORE PUSH1 0x20 ADD SWAP1 JUMP JUMPDEST PUSH20 0xFFFFFFFFFFFFFFFFFFFFFFFFFFFFFFFFFFFFFFFF SWAP3 DUP4 AND DUP2 MSTORE SWAP2 AND PUSH1 0x20 DUP3 ADD MSTORE PUSH1 0x40 ADD SWAP1 JUMP JUMPDEST PUSH20 0xFFFFFFFFFFFFFFFFFFFFFFFFFFFFFFFFFFFFFFFF SWAP3 SWAP1 SWAP3 AND DUP3 MSTORE PUSH1 0x20 DUP3 ADD MSTORE PUSH1 0x40 ADD SWAP1 JUMP JUMPDEST PUSH32 0xFFFFFFFF00000000000000000000000000000000000000000000000000000000 SWAP2 SWAP1 SWAP2 AND DUP2 MSTORE PUSH1 0x20 ADD SWAP1 JUMP JUMPDEST PUSH1 0x60 DUP2 ADD PUSH1 0x8 DUP6 LT PUSH2 0xAD5 JUMPI INVALID JUMPDEST SWAP4 DUP2 MSTORE PUSH1 0x20 DUP2 ADD SWAP3 SWAP1 SWAP3 MSTORE PUSH1 0x40 SWAP1 SWAP2 ADD MSTORE SWAP1 JUMP JUMPDEST PUSH1 0x0 DUP1 DUP4 CALLDATALOAD PUSH32 0xFFFFFFFFFFFFFFFFFFFFFFFFFFFFFFFFFFFFFFFFFFFFFFFFFFFFFFFFFFFFFFE1 DUP5 CALLDATASIZE SUB ADD DUP2 SLT PUSH2 0xB1D JUMPI DUP3 DUP4 REVERT JUMPDEST DUP4 ADD DUP1 CALLDATALOAD SWAP2 POP PUSH8 0xFFFFFFFFFFFFFFFF DUP3 GT ISZERO PUSH2 0xB37 JUMPI DUP3 DUP4 REVERT JUMPDEST PUSH1 0x20 ADD SWAP2 POP CALLDATASIZE DUP2 SWAP1 SUB DUP3 SGT ISZERO PUSH2 0xB4C JUMPI PUSH1 0x0 DUP1 REVERT JUMPDEST SWAP3 POP SWAP3 SWAP1 POP JUMP JUMPDEST PUSH1 0x40 MLOAD DUP2 DUP2 ADD PUSH8 0xFFFFFFFFFFFFFFFF DUP2 GT DUP3 DUP3 LT OR ISZERO PUSH2 0xB72 JUMPI PUSH1 0x0 DUP1 REVERT JUMPDEST PUSH1 0x40 MSTORE SWAP2 SWAP1 POP JUMP JUMPDEST PUSH1 0x0 PUSH8 0xFFFFFFFFFFFFFFFF DUP3 GT ISZERO PUSH2 0xB90 JUMPI DUP1 DUP2 REVERT JUMPDEST POP PUSH1 0x20 SWAP1 DUP2 MUL ADD SWAP1 JUMP JUMPDEST PUSH20 0xFFFFFFFFFFFFFFFFFFFFFFFFFFFFFFFFFFFFFFFF DUP2 AND DUP2 EQ PUSH2 0xBBC JUMPI PUSH1 0x0 DUP1 REVERT JUMPDEST POP JUMP INVALID LOG2 PUSH5 0x6970667358 0x22 SLT KECCAK256 0xC2 ADD AND 0xE7 0x1E 0xF6 DUP6 KECCAK256 0xAF 0xE 0xC4 PUSH12 0xB476AE84B8BBEE3527E6D012 PUSH15 0x99AE513FD6622564736F6C63430006 0xC STOP CALLER "
            }
        }
    },
    "sourceTreeHashHex": "0x9ad78a9c65917de3a6bbc4f94b7f478955e75bafcf1b0398bb676c54cc670496",
    "compiler": {
        "name": "solc",
        "version": "0.6.12+commit.27d51765",
        "settings": {
            "remappings": [
                "@0x/contracts-utils=/Users/jacob/projects/ethdev/0x/workspace-remote/workspace/0x-monorepo/node_modules/@0x/contracts-utils",
                "@0x/contracts-erc20=/Users/jacob/projects/ethdev/0x/workspace-remote/workspace/0x-monorepo/node_modules/@0x/contracts-erc20"
            ],
            "optimizer": {
                "enabled": true,
                "runs": 1000000,
                "details": {
                    "yul": true,
                    "deduplicate": true,
                    "cse": true,
                    "constantOptimizer": true
                }
            },
            "outputSelection": {
                "*": {
                    "*": [
                        "abi",
                        "devdoc",
                        "evm.bytecode.object",
                        "evm.bytecode.sourceMap",
                        "evm.deployedBytecode.object",
                        "evm.deployedBytecode.sourceMap"
                    ]
                }
            },
            "evmVersion": "istanbul"
        }
    },
    "chains": {}
}