{
    "schemaVersion": "2.0.0",
    "contractName": "TestERC20BridgeSampler",
    "compilerOutput": {
        "abi": [
            {
                "inputs": [],
                "payable": false,
                "stateMutability": "nonpayable",
                "type": "constructor"
            },
            {
                "constant": true,
                "inputs": [],
                "name": "FAILURE_ADDRESS",
                "outputs": [
                    {
                        "internalType": "address payable",
                        "name": "",
                        "type": "address"
                    }
                ],
                "payable": false,
                "stateMutability": "view",
                "type": "function"
            },
            {
                "constant": true,
                "inputs": [
                    {
                        "internalType": "bytes[]",
                        "name": "callDatas",
                        "type": "bytes[]"
                    }
                ],
                "name": "batchCall",
                "outputs": [
                    {
                        "internalType": "bytes[]",
                        "name": "callResults",
                        "type": "bytes[]"
                    }
                ],
                "payable": false,
                "stateMutability": "view",
                "type": "function"
            },
            {
                "constant": false,
                "inputs": [
                    {
                        "internalType": "address[]",
                        "name": "tokenAddresses",
                        "type": "address[]"
                    }
                ],
                "name": "createTokenExchanges",
                "outputs": [],
                "payable": false,
                "stateMutability": "nonpayable",
                "type": "function"
            },
            {
                "constant": false,
                "inputs": [],
                "name": "enableFailTrigger",
                "outputs": [],
                "payable": true,
                "stateMutability": "payable",
                "type": "function"
            },
            {
                "constant": true,
                "inputs": [],
                "name": "eth2Dai",
                "outputs": [
                    {
                        "internalType": "contract TestERC20BridgeSamplerEth2Dai",
                        "name": "",
                        "type": "address"
                    }
                ],
                "payable": false,
                "stateMutability": "view",
                "type": "function"
            },
            {
                "constant": true,
                "inputs": [
                    {
                        "internalType": "address",
                        "name": "registryAddress",
                        "type": "address"
                    },
                    {
                        "internalType": "address",
                        "name": "takerToken",
                        "type": "address"
                    },
                    {
                        "internalType": "address",
                        "name": "makerToken",
                        "type": "address"
                    }
                ],
                "name": "getLiquidityProviderFromRegistry",
                "outputs": [
                    {
                        "internalType": "address",
                        "name": "providerAddress",
                        "type": "address"
                    }
                ],
                "payable": false,
                "stateMutability": "view",
                "type": "function"
            },
            {
                "constant": true,
                "inputs": [
                    {
                        "components": [
                            {
                                "internalType": "address",
                                "name": "makerAddress",
                                "type": "address"
                            },
                            {
                                "internalType": "address",
                                "name": "takerAddress",
                                "type": "address"
                            },
                            {
                                "internalType": "address",
                                "name": "feeRecipientAddress",
                                "type": "address"
                            },
                            {
                                "internalType": "address",
                                "name": "senderAddress",
                                "type": "address"
                            },
                            {
                                "internalType": "uint256",
                                "name": "makerAssetAmount",
                                "type": "uint256"
                            },
                            {
                                "internalType": "uint256",
                                "name": "takerAssetAmount",
                                "type": "uint256"
                            },
                            {
                                "internalType": "uint256",
                                "name": "makerFee",
                                "type": "uint256"
                            },
                            {
                                "internalType": "uint256",
                                "name": "takerFee",
                                "type": "uint256"
                            },
                            {
                                "internalType": "uint256",
                                "name": "expirationTimeSeconds",
                                "type": "uint256"
                            },
                            {
                                "internalType": "uint256",
                                "name": "salt",
                                "type": "uint256"
                            },
                            {
                                "internalType": "bytes",
                                "name": "makerAssetData",
                                "type": "bytes"
                            },
                            {
                                "internalType": "bytes",
                                "name": "takerAssetData",
                                "type": "bytes"
                            },
                            {
                                "internalType": "bytes",
                                "name": "makerFeeAssetData",
                                "type": "bytes"
                            },
                            {
                                "internalType": "bytes",
                                "name": "takerFeeAssetData",
                                "type": "bytes"
                            }
                        ],
                        "internalType": "struct LibOrder.Order[]",
                        "name": "orders",
                        "type": "tuple[]"
                    },
                    {
                        "internalType": "bytes[]",
                        "name": "orderSignatures",
                        "type": "bytes[]"
                    }
                ],
                "name": "getOrderFillableMakerAssetAmounts",
                "outputs": [
                    {
                        "internalType": "uint256[]",
                        "name": "orderFillableMakerAssetAmounts",
                        "type": "uint256[]"
                    }
                ],
                "payable": false,
                "stateMutability": "view",
                "type": "function"
            },
            {
                "constant": true,
                "inputs": [
                    {
                        "components": [
                            {
                                "internalType": "address",
                                "name": "makerAddress",
                                "type": "address"
                            },
                            {
                                "internalType": "address",
                                "name": "takerAddress",
                                "type": "address"
                            },
                            {
                                "internalType": "address",
                                "name": "feeRecipientAddress",
                                "type": "address"
                            },
                            {
                                "internalType": "address",
                                "name": "senderAddress",
                                "type": "address"
                            },
                            {
                                "internalType": "uint256",
                                "name": "makerAssetAmount",
                                "type": "uint256"
                            },
                            {
                                "internalType": "uint256",
                                "name": "takerAssetAmount",
                                "type": "uint256"
                            },
                            {
                                "internalType": "uint256",
                                "name": "makerFee",
                                "type": "uint256"
                            },
                            {
                                "internalType": "uint256",
                                "name": "takerFee",
                                "type": "uint256"
                            },
                            {
                                "internalType": "uint256",
                                "name": "expirationTimeSeconds",
                                "type": "uint256"
                            },
                            {
                                "internalType": "uint256",
                                "name": "salt",
                                "type": "uint256"
                            },
                            {
                                "internalType": "bytes",
                                "name": "makerAssetData",
                                "type": "bytes"
                            },
                            {
                                "internalType": "bytes",
                                "name": "takerAssetData",
                                "type": "bytes"
                            },
                            {
                                "internalType": "bytes",
                                "name": "makerFeeAssetData",
                                "type": "bytes"
                            },
                            {
                                "internalType": "bytes",
                                "name": "takerFeeAssetData",
                                "type": "bytes"
                            }
                        ],
                        "internalType": "struct LibOrder.Order[]",
                        "name": "orders",
                        "type": "tuple[]"
                    },
                    {
                        "internalType": "bytes[]",
                        "name": "orderSignatures",
                        "type": "bytes[]"
                    }
                ],
                "name": "getOrderFillableTakerAssetAmounts",
                "outputs": [
                    {
                        "internalType": "uint256[]",
                        "name": "orderFillableTakerAssetAmounts",
                        "type": "uint256[]"
                    }
                ],
                "payable": false,
                "stateMutability": "view",
                "type": "function"
            },
            {
                "constant": false,
                "inputs": [
                    {
                        "components": [
                            {
                                "internalType": "address",
                                "name": "makerAddress",
                                "type": "address"
                            },
                            {
                                "internalType": "address",
                                "name": "takerAddress",
                                "type": "address"
                            },
                            {
                                "internalType": "address",
                                "name": "feeRecipientAddress",
                                "type": "address"
                            },
                            {
                                "internalType": "address",
                                "name": "senderAddress",
                                "type": "address"
                            },
                            {
                                "internalType": "uint256",
                                "name": "makerAssetAmount",
                                "type": "uint256"
                            },
                            {
                                "internalType": "uint256",
                                "name": "takerAssetAmount",
                                "type": "uint256"
                            },
                            {
                                "internalType": "uint256",
                                "name": "makerFee",
                                "type": "uint256"
                            },
                            {
                                "internalType": "uint256",
                                "name": "takerFee",
                                "type": "uint256"
                            },
                            {
                                "internalType": "uint256",
                                "name": "expirationTimeSeconds",
                                "type": "uint256"
                            },
                            {
                                "internalType": "uint256",
                                "name": "salt",
                                "type": "uint256"
                            },
                            {
                                "internalType": "bytes",
                                "name": "makerAssetData",
                                "type": "bytes"
                            },
                            {
                                "internalType": "bytes",
                                "name": "takerAssetData",
                                "type": "bytes"
                            },
                            {
                                "internalType": "bytes",
                                "name": "makerFeeAssetData",
                                "type": "bytes"
                            },
                            {
                                "internalType": "bytes",
                                "name": "takerFeeAssetData",
                                "type": "bytes"
                            }
                        ],
                        "internalType": "struct LibOrder.Order",
                        "name": "order",
                        "type": "tuple"
                    },
                    {
                        "internalType": "bytes",
                        "name": "",
                        "type": "bytes"
                    }
                ],
                "name": "getOrderRelevantState",
                "outputs": [
                    {
                        "components": [
                            {
                                "internalType": "enum LibOrder.OrderStatus",
                                "name": "orderStatus",
                                "type": "uint8"
                            },
                            {
                                "internalType": "bytes32",
                                "name": "orderHash",
                                "type": "bytes32"
                            },
                            {
                                "internalType": "uint256",
                                "name": "orderTakerAssetFilledAmount",
                                "type": "uint256"
                            }
                        ],
                        "internalType": "struct LibOrder.OrderInfo",
                        "name": "orderInfo",
                        "type": "tuple"
                    },
                    {
                        "internalType": "uint256",
                        "name": "fillableTakerAssetAmount",
                        "type": "uint256"
                    },
                    {
                        "internalType": "bool",
                        "name": "isValidSignature",
                        "type": "bool"
                    }
                ],
                "payable": false,
                "stateMutability": "nonpayable",
                "type": "function"
            },
            {
                "constant": true,
                "inputs": [],
                "name": "kyber",
                "outputs": [
                    {
                        "internalType": "contract TestERC20BridgeSamplerKyberNetwork",
                        "name": "",
                        "type": "address"
                    }
                ],
                "payable": false,
                "stateMutability": "view",
                "type": "function"
            },
            {
                "constant": true,
                "inputs": [
                    {
                        "internalType": "address",
                        "name": "takerToken",
                        "type": "address"
                    },
                    {
                        "internalType": "address",
                        "name": "makerToken",
                        "type": "address"
                    },
                    {
                        "internalType": "uint256[]",
                        "name": "makerTokenAmounts",
                        "type": "uint256[]"
                    }
                ],
                "name": "sampleBuysFromEth2Dai",
                "outputs": [
                    {
                        "internalType": "uint256[]",
                        "name": "takerTokenAmounts",
                        "type": "uint256[]"
                    }
                ],
                "payable": false,
                "stateMutability": "view",
                "type": "function"
            },
            {
                "constant": true,
                "inputs": [
                    {
                        "internalType": "address",
                        "name": "registryAddress",
                        "type": "address"
                    },
                    {
                        "internalType": "address",
                        "name": "takerToken",
                        "type": "address"
                    },
                    {
                        "internalType": "address",
                        "name": "makerToken",
                        "type": "address"
                    },
                    {
                        "internalType": "uint256[]",
                        "name": "makerTokenAmounts",
                        "type": "uint256[]"
                    }
                ],
                "name": "sampleBuysFromLiquidityProviderRegistry",
                "outputs": [
                    {
                        "internalType": "uint256[]",
                        "name": "takerTokenAmounts",
                        "type": "uint256[]"
                    }
                ],
                "payable": false,
                "stateMutability": "view",
                "type": "function"
            },
            {
                "constant": true,
                "inputs": [
                    {
                        "internalType": "address",
                        "name": "takerToken",
                        "type": "address"
                    },
                    {
                        "internalType": "address",
                        "name": "makerToken",
                        "type": "address"
                    },
                    {
                        "internalType": "uint256[]",
                        "name": "makerTokenAmounts",
                        "type": "uint256[]"
                    }
                ],
                "name": "sampleBuysFromUniswap",
                "outputs": [
                    {
                        "internalType": "uint256[]",
                        "name": "takerTokenAmounts",
                        "type": "uint256[]"
                    }
                ],
                "payable": false,
                "stateMutability": "view",
                "type": "function"
            },
            {
                "constant": true,
                "inputs": [
                    {
                        "internalType": "address",
                        "name": "curveAddress",
                        "type": "address"
                    },
                    {
                        "internalType": "int128",
                        "name": "fromTokenIdx",
                        "type": "int128"
                    },
                    {
                        "internalType": "int128",
                        "name": "toTokenIdx",
                        "type": "int128"
                    },
                    {
                        "internalType": "uint256[]",
                        "name": "takerTokenAmounts",
                        "type": "uint256[]"
                    }
                ],
                "name": "sampleSellsFromCurve",
                "outputs": [
                    {
                        "internalType": "uint256[]",
                        "name": "makerTokenAmounts",
                        "type": "uint256[]"
                    }
                ],
                "payable": false,
                "stateMutability": "view",
                "type": "function"
            },
            {
                "constant": true,
                "inputs": [
                    {
                        "internalType": "address",
                        "name": "takerToken",
                        "type": "address"
                    },
                    {
                        "internalType": "address",
                        "name": "makerToken",
                        "type": "address"
                    },
                    {
                        "internalType": "uint256[]",
                        "name": "takerTokenAmounts",
                        "type": "uint256[]"
                    }
                ],
                "name": "sampleSellsFromEth2Dai",
                "outputs": [
                    {
                        "internalType": "uint256[]",
                        "name": "makerTokenAmounts",
                        "type": "uint256[]"
                    }
                ],
                "payable": false,
                "stateMutability": "view",
                "type": "function"
            },
            {
                "constant": true,
                "inputs": [
                    {
                        "internalType": "address",
                        "name": "takerToken",
                        "type": "address"
                    },
                    {
                        "internalType": "address",
                        "name": "makerToken",
                        "type": "address"
                    },
                    {
                        "internalType": "uint256[]",
                        "name": "takerTokenAmounts",
                        "type": "uint256[]"
                    }
                ],
                "name": "sampleSellsFromKyberNetwork",
                "outputs": [
                    {
                        "internalType": "uint256[]",
                        "name": "makerTokenAmounts",
                        "type": "uint256[]"
                    }
                ],
                "payable": false,
                "stateMutability": "view",
                "type": "function"
            },
            {
                "constant": true,
                "inputs": [
                    {
                        "internalType": "address",
                        "name": "registryAddress",
                        "type": "address"
                    },
                    {
                        "internalType": "address",
                        "name": "takerToken",
                        "type": "address"
                    },
                    {
                        "internalType": "address",
                        "name": "makerToken",
                        "type": "address"
                    },
                    {
                        "internalType": "uint256[]",
                        "name": "takerTokenAmounts",
                        "type": "uint256[]"
                    }
                ],
                "name": "sampleSellsFromLiquidityProviderRegistry",
                "outputs": [
                    {
                        "internalType": "uint256[]",
                        "name": "makerTokenAmounts",
                        "type": "uint256[]"
                    }
                ],
                "payable": false,
                "stateMutability": "view",
                "type": "function"
            },
            {
                "constant": true,
                "inputs": [
                    {
                        "internalType": "address",
                        "name": "takerToken",
                        "type": "address"
                    },
                    {
                        "internalType": "address",
                        "name": "makerToken",
                        "type": "address"
                    },
                    {
                        "internalType": "uint256[]",
                        "name": "takerTokenAmounts",
                        "type": "uint256[]"
                    }
                ],
                "name": "sampleSellsFromUniswap",
                "outputs": [
                    {
                        "internalType": "uint256[]",
                        "name": "makerTokenAmounts",
                        "type": "uint256[]"
                    }
                ],
                "payable": false,
                "stateMutability": "view",
                "type": "function"
            },
            {
                "constant": true,
                "inputs": [],
                "name": "uniswap",
                "outputs": [
                    {
                        "internalType": "contract TestERC20BridgeSamplerUniswapExchangeFactory",
                        "name": "",
                        "type": "address"
                    }
                ],
                "payable": false,
                "stateMutability": "view",
                "type": "function"
            }
        ],
        "devdoc": {
            "methods": {
                "batchCall(bytes[])": {
                    "details": "Call multiple public functions on this contract in a single transaction.",
                    "params": {
                        "callDatas": "ABI-encoded call data for each function call."
                    },
                    "return": "callResults ABI-encoded results data for each call."
                },
                "getLiquidityProviderFromRegistry(address,address,address)": {
                    "details": "Returns the address of a liquidity provider for the given market      (takerToken, makerToken), from a registry of liquidity providers.      Returns address(0) if no such provider exists in the registry.",
                    "params": {
                        "makerToken": "Maker asset managed by liquidity provider.",
                        "takerToken": "Taker asset managed by liquidity provider."
                    },
                    "return": "providerAddress Address of the liquidity provider."
                },
                "getOrderFillableMakerAssetAmounts((address,address,address,address,uint256,uint256,uint256,uint256,uint256,uint256,bytes,bytes,bytes,bytes)[],bytes[])": {
                    "details": "Queries the fillable taker asset amounts of native orders.      Effectively ignores orders that have empty signatures or",
                    "params": {
                        "orderSignatures": "Signatures for each respective order in `orders`.",
                        "orders": "Native orders to query."
                    },
                    "return": "orderFillableMakerAssetAmounts How much maker asset can be filled         by each order in `orders`."
                },
                "getOrderFillableTakerAssetAmounts((address,address,address,address,uint256,uint256,uint256,uint256,uint256,uint256,bytes,bytes,bytes,bytes)[],bytes[])": {
                    "details": "Queries the fillable taker asset amounts of native orders.      Effectively ignores orders that have empty signatures or      maker/taker asset amounts (returning 0).",
                    "params": {
                        "orderSignatures": "Signatures for each respective order in `orders`.",
                        "orders": "Native orders to query."
                    },
                    "return": "orderFillableTakerAssetAmounts How much taker asset can be filled         by each order in `orders`."
                },
                "sampleBuysFromEth2Dai(address,address,uint256[])": {
                    "details": "Sample buy quotes from Eth2Dai/Oasis.",
                    "params": {
                        "makerToken": "Address of the maker token (what to buy).",
                        "takerToken": "Address of the taker token (what to sell).",
                        "takerTokenAmounts": "Maker token sell amount for each sample."
                    },
                    "return": "takerTokenAmounts Taker amounts sold at each maker token         amount."
                },
                "sampleBuysFromLiquidityProviderRegistry(address,address,address,uint256[])": {
                    "details": "Sample buy quotes from an arbitrary on-chain liquidity provider.",
                    "params": {
                        "makerToken": "Address of the maker token (what to buy).",
                        "makerTokenAmounts": "Maker token buy amount for each sample.",
                        "registryAddress": "Address of the liquidity provider registry contract.",
                        "takerToken": "Address of the taker token (what to sell)."
                    },
                    "return": "takerTokenAmounts Taker amounts sold at each maker token         amount."
                },
                "sampleBuysFromUniswap(address,address,uint256[])": {
                    "details": "Sample buy quotes from Uniswap.",
                    "params": {
                        "makerToken": "Address of the maker token (what to buy).",
                        "makerTokenAmounts": "Maker token sell amount for each sample.",
                        "takerToken": "Address of the taker token (what to sell)."
                    },
                    "return": "takerTokenAmounts Taker amounts sold at each maker token         amount."
                },
                "sampleSellsFromCurve(address,int128,int128,uint256[])": {
                    "details": "Sample sell quotes from Curve.",
                    "params": {
                        "curveAddress": "Address of the Curve contract.",
                        "fromTokenIdx": "Index of the taker token (what to sell).",
                        "takerTokenAmounts": "Taker token sell amount for each sample.",
                        "toTokenIdx": "Index of the maker token (what to buy)."
                    },
                    "return": "makerTokenAmounts Maker amounts bought at each taker token         amount."
                },
                "sampleSellsFromEth2Dai(address,address,uint256[])": {
                    "details": "Sample sell quotes from Eth2Dai/Oasis.",
                    "params": {
                        "makerToken": "Address of the maker token (what to buy).",
                        "takerToken": "Address of the taker token (what to sell).",
                        "takerTokenAmounts": "Taker token sell amount for each sample."
                    },
                    "return": "makerTokenAmounts Maker amounts bought at each taker token         amount."
                },
                "sampleSellsFromKyberNetwork(address,address,uint256[])": {
                    "details": "Sample sell quotes from Kyber.",
                    "params": {
                        "makerToken": "Address of the maker token (what to buy).",
                        "takerToken": "Address of the taker token (what to sell).",
                        "takerTokenAmounts": "Taker token sell amount for each sample."
                    },
                    "return": "makerTokenAmounts Maker amounts bought at each taker token         amount."
                },
                "sampleSellsFromLiquidityProviderRegistry(address,address,address,uint256[])": {
                    "details": "Sample sell quotes from an arbitrary on-chain liquidity provider.",
                    "params": {
                        "makerToken": "Address of the maker token (what to buy).",
                        "registryAddress": "Address of the liquidity provider registry contract.",
                        "takerToken": "Address of the taker token (what to sell).",
                        "takerTokenAmounts": "Taker token sell amount for each sample."
                    },
                    "return": "makerTokenAmounts Maker amounts bought at each taker token         amount."
                },
                "sampleSellsFromUniswap(address,address,uint256[])": {
                    "details": "Sample sell quotes from Uniswap.",
                    "params": {
                        "makerToken": "Address of the maker token (what to buy).",
                        "takerToken": "Address of the taker token (what to sell).",
                        "takerTokenAmounts": "Taker token sell amount for each sample."
                    },
                    "return": "makerTokenAmounts Maker amounts bought at each taker token         amount."
                }
            }
        },
        "evm": {
            "bytecode": {
                "linkReferences": {},
                "object": "0x60806040523480156200001157600080fd5b506040516200002090620000fc565b604051809103906000f0801580156200003d573d6000803e3d6000fd5b50600080546001600160a01b0319166001600160a01b03929092169190911790556040516200006c906200010a565b604051809103906000f08015801562000089573d6000803e3d6000fd5b50600180546001600160a01b0319166001600160a01b0392909216919091179055604051620000b89062000118565b604051809103906000f080158015620000d5573d6000803e3d6000fd5b50600280546001600160a01b0319166001600160a01b039290921691909117905562000126565b6108e78062002fab83390190565b61051b806200389283390190565b6104238062003dad83390190565b612e7580620001366000396000f3fe6080604052600436106101445760003560e01c806368be3cf2116100c0578063a2d10ba511610074578063cd72d78911610059578063cd72d7891461034d578063e77286eb14610362578063fea12a031461039157610144565b8063a2d10ba514610318578063c7f7142e1461032d57610144565b80638b123a02116100a55780638b123a02146102b85780639f76ad35146102d8578063a2c28d4b146102f857610144565b806368be3cf21461026b5780636dd6b78d1461029857610144565b80634703a7e61161011757806359f515d0116100fc57806359f515d01461020b57806360ee052a1461022b57806364ee6ade1461024b57610144565b80634703a7e6146101cb5780634cb8e253146101eb57610144565b806311f2928b146101495780632681f7e414610153578063312686571461017e578063354152a31461019e575b600080fd5b6101516103a6565b005b34801561015f57600080fd5b506101686103e9565b60405161017591906129be565b60405180910390f35b34801561018a57600080fd5b50610151610199366004612731565b610405565b3480156101aa57600080fd5b506101be6101b93660046126f3565b610493565b6040516101759190612b0f565b3480156101d757600080fd5b506101be6101e6366004612693565b610664565b3480156101f757600080fd5b506101be610206366004612693565b610840565b34801561021757600080fd5b506101be610226366004612771565b610b30565b34801561023757600080fd5b506101be610246366004612693565b610bd9565b34801561025757600080fd5b506101be610266366004612693565b610e99565b34801561027757600080fd5b5061028b610286366004612731565b61105f565b6040516101759190612a91565b3480156102a457600080fd5b506101be6102b3366004612693565b61119e565b3480156102c457600080fd5b506101be6102d3366004612771565b611446565b3480156102e457600080fd5b506101be6102f3366004612620565b61170e565b34801561030457600080fd5b506101be610313366004612620565b611913565b34801561032457600080fd5b50610168611aff565b34801561033957600080fd5b506101686103483660046125d6565b611b1b565b34801561035957600080fd5b50610168611c56565b34801561036e57600080fd5b5061038261037d36600461288f565b611c6e565b60405161017593929190612bfd565b34801561039d57600080fd5b50610168611d17565b60405173e9db8717bc5dfb20aaf538b4a5a02b7791ff430c903480156108fc02916000818181858888f193505050501580156103e6573d6000803e3d6000fd5b50565b60005473ffffffffffffffffffffffffffffffffffffffff1681565b6000546040517f3126865700000000000000000000000000000000000000000000000000000000815273ffffffffffffffffffffffffffffffffffffffff9091169063312686579061045d9085908590600401612a37565b600060405180830381600087803b15801561047757600080fd5b505af115801561048b573d6000803e3d6000fd5b505050505050565b6060600082519050806040519080825280602002602001820160405280156104c5578160200160208202803883390190505b50915060005b8181101561065a57600060608873ffffffffffffffffffffffffffffffffffffffff16620927c0600073ffffffffffffffffffffffffffffffffffffffff166307211ef7905060e01b8a8a8a888151811061052257fe5b602002602001015160405160240161053c93929190612b82565b604080517fffffffffffffffffffffffffffffffffffffffffffffffffffffffffffffffe08184030181529181526020820180517bffffffffffffffffffffffffffffffffffffffffffffffffffffffff167fffffffff000000000000000000000000000000000000000000000000000000009094169390931790925290516105c591906129a2565b6000604051808303818686fa925050503d8060008114610601576040519150601f19603f3d011682016040523d82523d6000602084013e610606565b606091505b5090925090506000821561062f578180602001905161062891908101906128e6565b9050610637565b50505061065a565b8086858151811061064457fe5b60209081029190910101525050506001016104cb565b5050949350505050565b60606106708385611d33565b815160408051828152602080840282010190915281801561069b578160200160208202803883390190505b50915060005b8181101561083757600060606106b5611da6565b73ffffffffffffffffffffffffffffffffffffffff16620f4240600073ffffffffffffffffffffffffffffffffffffffff1663ff1fd974905060e01b8a8a8a88815181106106ff57fe5b602002602001015160405160240161071993929190612a06565b604080517fffffffffffffffffffffffffffffffffffffffffffffffffffffffffffffffe08184030181529181526020820180517bffffffffffffffffffffffffffffffffffffffffffffffffffffffff167fffffffff000000000000000000000000000000000000000000000000000000009094169390931790925290516107a291906129a2565b6000604051808303818686fa925050503d80600081146107de576040519150601f19603f3d011682016040523d82523d6000602084013e6107e3565b606091505b5090925090506000821561080c578180602001905161080591908101906128e6565b9050610814565b505050610837565b8086858151811061082157fe5b60209081029190910101525050506001016106a1565b50509392505050565b606061084c8385611d33565b6000610856611dc2565b73ffffffffffffffffffffffffffffffffffffffff168573ffffffffffffffffffffffffffffffffffffffff161461088e57846108a4565b73eeeeeeeeeeeeeeeeeeeeeeeeeeeeeeeeeeeeeeee5b905060006108b0611dc2565b73ffffffffffffffffffffffffffffffffffffffff168573ffffffffffffffffffffffffffffffffffffffff16146108e857846108fe565b73eeeeeeeeeeeeeeeeeeeeeeeeeeeeeeeeeeeeeeee5b9050600061090b87611dda565b60ff169050600061091b87611dda565b60ff16905060008651905080604051908082528060200260200182016040528015610950578160200160208202803883390190505b50955060005b81811015610b23576000606061096a611ded565b73ffffffffffffffffffffffffffffffffffffffff166216e360600073ffffffffffffffffffffffffffffffffffffffff1663809a9e55905060e01b8a8a8e88815181106109b457fe5b60200260200101516040516024016109ce93929190612a06565b604080517fffffffffffffffffffffffffffffffffffffffffffffffffffffffffffffffe08184030181529181526020820180517bffffffffffffffffffffffffffffffffffffffffffffffffffffffff167fffffffff00000000000000000000000000000000000000000000000000000000909416939093179092529051610a5791906129a2565b6000604051808303818686fa925050503d8060008114610a93576040519150601f19603f3d011682016040523d82523d6000602084013e610a98565b606091505b50909250905060008215610ac15781806020019051610aba91908101906128e6565b9050610ac9565b505050610b23565b670de0b6b3a764000087600a0a87600a0a8d8781518110610ae657fe5b602002602001015184020281610af857fe5b0481610b0057fe5b048a8581518110610b0d57fe5b6020908102919091010152505050600101610956565b5050505050509392505050565b6060610b3c8383611446565b905060005b8351811015610bd257818181518110610b5657fe5b6020026020010151600014610bca57610bb1828281518110610b7457fe5b6020026020010151858381518110610b8857fe5b602002602001015160a00151868481518110610ba057fe5b602002602001015160800151611e09565b828281518110610bbd57fe5b6020026020010181815250505b600101610b41565b5092915050565b6060610be58385611d33565b8151604080518281526020808402820101909152818015610c10578160200160208202803883390190505b5091506000610c1d611dc2565b73ffffffffffffffffffffffffffffffffffffffff168673ffffffffffffffffffffffffffffffffffffffff1614610c5d57610c5886611e4b565b610c60565b60005b90506000610c6c611dc2565b73ffffffffffffffffffffffffffffffffffffffff168673ffffffffffffffffffffffffffffffffffffffff1614610cac57610ca786611e4b565b610caf565b60005b905060005b83811015610e8e576001610cc6611dc2565b73ffffffffffffffffffffffffffffffffffffffff168873ffffffffffffffffffffffffffffffffffffffff161415610d5d578651610d3c9085907f2640f62c00000000000000000000000000000000000000000000000000000000908a9086908110610d2f57fe5b6020026020010151611edd565b878481518110610d4857fe5b60200260200101819350828152505050610e7a565b610d65611dc2565b73ffffffffffffffffffffffffffffffffffffffff168973ffffffffffffffffffffffffffffffffffffffff161415610dce578651610d3c9084907f59e9486200000000000000000000000000000000000000000000000000000000908a9086908110610d2f57fe5b8651600090610e079085907f59e9486200000000000000000000000000000000000000000000000000000000908b9087908110610d2f57fe5b925090508015610e5d57610e3c857f2640f62c0000000000000000000000000000000000000000000000000000000083611edd565b888581518110610e4857fe5b60200260200101819450828152505050610e78565b6000878481518110610e6b57fe5b6020026020010181815250505b505b80610e855750610e8e565b50600101610cb4565b505050509392505050565b6060610ea58385611d33565b8151604080518281526020808402820101909152818015610ed0578160200160208202803883390190505b50915060005b818110156108375760006060610eea611da6565b73ffffffffffffffffffffffffffffffffffffffff16620f4240600073ffffffffffffffffffffffffffffffffffffffff1663144a2752905060e01b898b8a8881518110610f3457fe5b6020026020010151604051602401610f4e93929190612a06565b604080517fffffffffffffffffffffffffffffffffffffffffffffffffffffffffffffffe08184030181529181526020820180517bffffffffffffffffffffffffffffffffffffffffffffffffffffffff167fffffffff00000000000000000000000000000000000000000000000000000000909416939093179092529051610fd791906129a2565b6000604051808303818686fa925050503d8060008114611013576040519150601f19603f3d011682016040523d82523d6000602084013e611018565b606091505b5090925090506000821561080c578180602001905161103a91908101906128e6565b90508086858151811061104957fe5b6020908102919091010152505050600101610ed6565b60408051828152602080840282010190915260609082801561109557816020015b60608152602001906001900390816110805790505b50905060005b808314610bd25760006060308686858181106110b357fe5b6020028201905080357fffffffffffffffffffffffffffffffffffffffffffffffffffffffffffffffe1368490030181126110ed57600080fd5b9091016020810191503567ffffffffffffffff81111561110c57600080fd5b3681900382131561111c57600080fd5b60405161112a929190612992565b600060405180830381855afa9150503d8060008114611165576040519150601f19603f3d011682016040523d82523d6000602084013e61116a565b606091505b50915091508161117c57805160208201fd5b8084848151811061118957fe5b6020908102919091010152505060010161109b565b60606111aa8385611d33565b81516040805182815260208084028201019091528180156111d5578160200160208202803883390190505b50915060006111e2611dc2565b73ffffffffffffffffffffffffffffffffffffffff168673ffffffffffffffffffffffffffffffffffffffff16146112225761121d86611e4b565b611225565b60005b90506000611231611dc2565b73ffffffffffffffffffffffffffffffffffffffff168673ffffffffffffffffffffffffffffffffffffffff16146112715761126c86611e4b565b611274565b60005b905060005b83811015610e8e57600161128b611dc2565b73ffffffffffffffffffffffffffffffffffffffff168873ffffffffffffffffffffffffffffffffffffffff1614156113155786516112f49085907f95b68fe700000000000000000000000000000000000000000000000000000000908a9086908110610d2f57fe5b87848151811061130057fe5b60200260200101819350828152505050611432565b61131d611dc2565b73ffffffffffffffffffffffffffffffffffffffff168973ffffffffffffffffffffffffffffffffffffffff1614156113865786516112f49084907fcd7724c300000000000000000000000000000000000000000000000000000000908a9086908110610d2f57fe5b86516000906113bf9086907f95b68fe700000000000000000000000000000000000000000000000000000000908b9087908110610d2f57fe5b925090508015611415576113f4847fcd7724c30000000000000000000000000000000000000000000000000000000083611edd565b88858151811061140057fe5b60200260200101819450828152505050611430565b600087848151811061142357fe5b6020026020010181815250505b505b8061143d5750610e8e565b50600101611279565b60608251604051908082528060200260200182016040528015611473578160200160208202803883390190505b50905060005b83518114610bd25782818151811061148d57fe5b602002602001015151600014806114bb57508381815181106114ab57fe5b6020026020010151608001516000145b806114dd57508381815181106114cd57fe5b602002602001015160a001516000145b156115015760008282815181106114f057fe5b602002602001018181525050611706565b6000606061150d612026565b73ffffffffffffffffffffffffffffffffffffffff166207a12061152f612026565b5087517fe77286eb000000000000000000000000000000000000000000000000000000009089908790811061156057fe5b602002602001015188878151811061157457fe5b602002602001015160405160240161158d929190612c3c565b604080517fffffffffffffffffffffffffffffffffffffffffffffffffffffffffffffffe08184030181529181526020820180517bffffffffffffffffffffffffffffffffffffffffffffffffffffffff167fffffffff0000000000000000000000000000000000000000000000000000000090941693909317909252905161161691906129a2565b6000604051808303818686fa925050503d8060008114611652576040519150601f19603f3d011682016040523d82523d6000602084013e611657565b606091505b50915091508161168257600084848151811061166f57fe5b6020026020010181815250505050611706565b61168a612289565b600080838060200190516116a19190810190612822565b919450925090506003835160068111156116b757fe5b1415806116c2575080155b156116e65760008787815181106116d557fe5b602002602001018181525050611700565b818787815181106116f357fe5b6020026020010181815250505b50505050505b600101611479565b606060008251905080604051908082528060200260200182016040528015611740578160200160208202803883390190505b5091506000611750878787611b1b565b905073ffffffffffffffffffffffffffffffffffffffff8116611775575061190b9050565b60005b8281101561190757600060608373ffffffffffffffffffffffffffffffffffffffff1662030d40600073ffffffffffffffffffffffffffffffffffffffff1663343fbcdd905060e01b8b8b8b88815181106117cf57fe5b60200260200101516040516024016117e993929190612a06565b604080517fffffffffffffffffffffffffffffffffffffffffffffffffffffffffffffffe08184030181529181526020820180517bffffffffffffffffffffffffffffffffffffffffffffffffffffffff167fffffffff0000000000000000000000000000000000000000000000000000000090941693909317909252905161187291906129a2565b6000604051808303818686fa925050503d80600081146118ae576040519150601f19603f3d011682016040523d82523d6000602084013e6118b3565b606091505b509092509050600082156118dc57818060200190516118d591908101906128e6565b90506118e4565b505050611907565b808785815181106118f157fe5b6020908102919091010152505050600101611778565b5050505b949350505050565b606060008251905080604051908082528060200260200182016040528015611945578160200160208202803883390190505b5091506000611955878787611b1b565b905073ffffffffffffffffffffffffffffffffffffffff811661197a575061190b9050565b60005b8281101561190757600060608373ffffffffffffffffffffffffffffffffffffffff1662030d40600073ffffffffffffffffffffffffffffffffffffffff166345060eb0905060e01b8b8b8b88815181106119d457fe5b60200260200101516040516024016119ee93929190612a06565b604080517fffffffffffffffffffffffffffffffffffffffffffffffffffffffffffffffe08184030181529181526020820180517bffffffffffffffffffffffffffffffffffffffffffffffffffffffff167fffffffff00000000000000000000000000000000000000000000000000000000909416939093179092529051611a7791906129a2565b6000604051808303818686fa925050503d8060008114611ab3576040519150601f19603f3d011682016040523d82523d6000602084013e611ab8565b606091505b509092509050600082156118dc5781806020019051611ada91908101906128e6565b905080878581518110611ae957fe5b602090810291909101015250505060010161197d565b60025473ffffffffffffffffffffffffffffffffffffffff1681565b6040516000906060907f153f59970000000000000000000000000000000000000000000000000000000090611b5690869086906024016129df565b604051602081830303815290604052907bffffffffffffffffffffffffffffffffffffffffffffffffffffffff19166020820180517bffffffffffffffffffffffffffffffffffffffffffffffffffffffff83818316178352505050509050600060608673ffffffffffffffffffffffffffffffffffffffff1683604051611bde91906129a2565b600060405180830381855afa9150503d8060008114611c19576040519150601f19603f3d011682016040523d82523d6000602084013e611c1e565b606091505b5091509150818015611c31575080516020145b15611c4b57611c4181600c61202a565b9350505050611c4f565b5050505b9392505050565b73e9db8717bc5dfb20aaf538b4a5a02b7791ff430c81565b611c76612289565b6000806000856101200151604051602001611c919190612d90565b604080517fffffffffffffffffffffffffffffffffffffffffffffffffffffffffffffffe081840301815291905280516020918201209085018190529050605a606482061115611ce45760058452611ce9565b600384525b60a08601518181611cf657fe5b066040850181905260a0870151039250600281066001149150509250925092565b60015473ffffffffffffffffffffffffffffffffffffffff1681565b8073ffffffffffffffffffffffffffffffffffffffff168273ffffffffffffffffffffffffffffffffffffffff161415611da2576040517f08c379a0000000000000000000000000000000000000000000000000000000008152600401611d9990612ba0565b60405180910390fd5b5050565b60015473ffffffffffffffffffffffffffffffffffffffff1690565b73c02aaa39b223fe8d0a0e5c4f27ead9083c756cc290565b6000611de582612079565b90505b919050565b60025473ffffffffffffffffffffffffffffffffffffffff1690565b600061190b83611e3f611e2382600163ffffffff61210b16565b611e33888763ffffffff61212a16565b9063ffffffff61215b16565b9063ffffffff61217716565b6000611e556121a1565b73ffffffffffffffffffffffffffffffffffffffff166306f2bf62836040518263ffffffff1660e01b8152600401611e8d91906129be565b60206040518083038186803b158015611ea557600080fd5b505afa158015611eb9573d6000803e3d6000fd5b505050506040513d601f19601f82011682018060405250611de591908101906125ba565b60008073ffffffffffffffffffffffffffffffffffffffff8516611f005761201e565b60608573ffffffffffffffffffffffffffffffffffffffff16620249f08686604051602401611f2f9190612d90565b604080517fffffffffffffffffffffffffffffffffffffffffffffffffffffffffffffffe08184030181529181526020820180517bffffffffffffffffffffffffffffffffffffffffffffffffffffffff167fffffffff00000000000000000000000000000000000000000000000000000000909416939093179092529051611fb891906129a2565b6000604051808303818686fa925050503d8060008114611ff4576040519150601f19603f3d011682016040523d82523d6000602084013e611ff9565b606091505b509092509050811561201c578080602001905161201991908101906128e6565b92505b505b935093915050565b3090565b600081601401835110156120505761205061204b60048551856014016121bd565b612262565b50601481830181015191019073ffffffffffffffffffffffffffffffffffffffff165b92915050565b600073ffffffffffffffffffffffffffffffffffffffff821673c02aaa39b223fe8d0a0e5c4f27ead9083c756cc214156120b557506012611de8565b6000826040516020016120c89190612962565b604080518083037fffffffffffffffffffffffffffffffffffffffffffffffffffffffffffffffe00181529190528051602090910120600f166004019392505050565b6000828211156121245761212461204b6002858561226a565b50900390565b60008261213957506000612073565b8282028284828161214657fe5b0414611c4f57611c4f61204b6001868661226a565b600082820183811015611c4f57611c4f61204b6000868661226a565b60008161218d5761218d61204b6003858561226a565b600082848161219857fe5b04949350505050565b60005473ffffffffffffffffffffffffffffffffffffffff1690565b6060632800659560e01b8484846040516024016121dc93929190612b74565b604080517fffffffffffffffffffffffffffffffffffffffffffffffffffffffffffffffe08184030181529190526020810180517bffffffffffffffffffffffffffffffffffffffffffffffffffffffff167fffffffff000000000000000000000000000000000000000000000000000000009093169290921790915290509392505050565b805160208201fd5b606063e946c1bb60e01b8484846040516024016121dc93929190612b52565b6040805160608101909152806000815260006020820181905260409091015290565b803561207381612e10565b60008083601f8401126122c7578182fd5b50813567ffffffffffffffff8111156122de578182fd5b60208301915083602080830285010111156122f857600080fd5b9250929050565b600082601f83011261230f578081fd5b813561232261231d82612dc0565b612d99565b8181529150602080830190840160005b8381101561235f5761234a87602084358901016123d2565b83526020928301929190910190600101612332565b5050505092915050565b600082601f830112612379578081fd5b813561238761231d82612dc0565b8181529150602080830190848101818402860182018710156123a857600080fd5b60005b848110156123c7578135845292820192908201906001016123ab565b505050505092915050565b600082601f8301126123e2578081fd5b813567ffffffffffffffff8111156123f8578182fd5b61242960207fffffffffffffffffffffffffffffffffffffffffffffffffffffffffffffffe0601f84011601612d99565b915080825283602082850101111561244057600080fd5b8060208401602084013760009082016020015292915050565b8035600f81900b811461207357600080fd5b60006101c080838503121561247e578182fd5b61248781612d99565b91505061249483836122ab565b81526124a383602084016122ab565b60208201526124b583604084016122ab565b60408201526124c783606084016122ab565b60608201526080820135608082015260a082013560a082015260c082013560c082015260e082013560e08201526101008083013581830152506101208083013581830152506101408083013567ffffffffffffffff8082111561252957600080fd5b612535868387016123d2565b8385015261016092508285013591508082111561255157600080fd5b61255d868387016123d2565b8385015261018092508285013591508082111561257957600080fd5b612585868387016123d2565b838501526101a09250828501359150808211156125a157600080fd5b506125ae858286016123d2565b82840152505092915050565b6000602082840312156125cb578081fd5b8151611c4f81612e10565b6000806000606084860312156125ea578182fd5b83356125f581612e10565b9250602084013561260581612e10565b9150604084013561261581612e10565b809150509250925092565b60008060008060808587031215612635578182fd5b843561264081612e10565b9350602085013561265081612e10565b9250604085013561266081612e10565b9150606085013567ffffffffffffffff81111561267b578182fd5b61268787828801612369565b91505092959194509250565b6000806000606084860312156126a7578081fd5b83356126b281612e10565b925060208401356126c281612e10565b9150604084013567ffffffffffffffff8111156126dd578182fd5b6126e986828701612369565b9150509250925092565b60008060008060808587031215612708578182fd5b843561271381612e10565b93506127228660208701612459565b92506126608660408701612459565b60008060208385031215612743578182fd5b823567ffffffffffffffff811115612759578283fd5b612765858286016122b6565b90969095509350505050565b60008060408385031215612783578182fd5b823567ffffffffffffffff8082111561279a578384fd5b81850186601f8201126127ab578485fd5b803592506127bb61231d84612dc0565b83815260208082019190838101885b878110156127f3576127e18c84843589010161246b565b855293820193908201906001016127ca565b5091975088013594505050508082111561280b578283fd5b50612818858286016122ff565b9150509250929050565b600080600083850360a0811215612837578182fd5b6060811215612844578182fd5b5061284f6060612d99565b84516007811061285d578283fd5b815260208581015190820152604080860151908201526060850151608086015191945092508015158114612615578182fd5b600080604083850312156128a1578182fd5b823567ffffffffffffffff808211156128b8578384fd5b6128c48683870161246b565b935060208501359150808211156128d9578283fd5b50612818858286016123d2565b6000602082840312156128f7578081fd5b5051919050565b73ffffffffffffffffffffffffffffffffffffffff169052565b60008151808452612930816020860160208601612de0565b601f017fffffffffffffffffffffffffffffffffffffffffffffffffffffffffffffffe0169290920160200192915050565b60609190911b7fffffffffffffffffffffffffffffffffffffffff00000000000000000000000016815260140190565b6000828483379101908152919050565b600082516129b4818460208701612de0565b9190910192915050565b73ffffffffffffffffffffffffffffffffffffffff91909116815260200190565b73ffffffffffffffffffffffffffffffffffffffff92831681529116602082015260400190565b73ffffffffffffffffffffffffffffffffffffffff9384168152919092166020820152604081019190915260600190565b6020808252810182905260008360408301825b85811015612a87578235612a5d81612e10565b73ffffffffffffffffffffffffffffffffffffffff16825260209283019290910190600101612a4a565b5095945050505050565b6000602080830181845280855180835260408601915060408482028701019250838701855b82811015612b02577fffffffffffffffffffffffffffffffffffffffffffffffffffffffffffffffc0888603018452612af0858351612918565b94509285019290850190600101612ab6565b5092979650505050505050565b602080825282518282018190526000918401906040840190835b81811015612b47578351835260209384019390920191600101612b29565b509095945050505050565b6060810160048510612b6057fe5b938152602081019290925260409091015290565b6060810160088510612b6057fe5b600f93840b81529190920b6020820152604081019190915260600190565b60208082526025908201527f455243323042726964676553616d706c65722f494e56414c49445f544f4b454e60408201527f5f50414952000000000000000000000000000000000000000000000000000000606082015260800190565b835160a082019060078110612c0e57fe5b8083525060208501516020830152604085015160408301528360608301528215156080830152949350505050565b600060408252612c506040830185516128fe565b6020840151612c6260608401826128fe565b506040840151612c7560808401826128fe565b506060840151612c8860a08401826128fe565b50608084015160c083015260a084015160e083015260c0840151610100818185015260e086015191506101208281860152818701519250610140915082828601528087015192505061016082818601528187015192506101c091506101808281870152612cf9610200870185612918565b8289015194507fffffffffffffffffffffffffffffffffffffffffffffffffffffffffffffffc092506101a0838883030181890152612d388287612918565b838b015196508489820301868a0152612d518188612918565b955050808a0151955050505080858303016101e086015250612d738183612918565b8481036020860152612d858187612918565b979650505050505050565b90815260200190565b60405181810167ffffffffffffffff81118282101715612db857600080fd5b604052919050565b600067ffffffffffffffff821115612dd6578081fd5b5060209081020190565b60005b83811015612dfb578181015183820152602001612de3565b83811115612e0a576000848401525b50505050565b73ffffffffffffffffffffffffffffffffffffffff811681146103e657600080fdfea365627a7a72315820920c1172ce6e67257a2459b5383485a7b465655c04c79dab46474115342a99386c6578706572696d656e74616cf564736f6c63430005100040608060405234801561001057600080fd5b506108c7806100206000396000f3fe608060405234801561001057600080fd5b50600436106100365760003560e01c806306f2bf621461003b5780633126865714610064575b600080fd5b61004e610049366004610173565b610079565b60405161005b919061021a565b60405180910390f35b6100776100723660046101ae565b6100a4565b005b73ffffffffffffffffffffffffffffffffffffffff9081166000908152602081905260409020541690565b60005b818110156101615760008383838181106100bd57fe5b90506020020160206100d29190810190610173565b9050806040516100e190610166565b6100eb919061021a565b604051809103906000f080158015610107573d6000803e3d6000fd5b5073ffffffffffffffffffffffffffffffffffffffff918216600090815260208190526040902080547fffffffffffffffffffffffff000000000000000000000000000000000000000016919092161790556001016100a7565b505050565b6106498061023c83390190565b600060208284031215610184578081fd5b813573ffffffffffffffffffffffffffffffffffffffff811681146101a7578182fd5b9392505050565b600080602083850312156101c0578081fd5b823567ffffffffffffffff808211156101d7578283fd5b81850186601f8201126101e8578384fd5b80359250818311156101f8578384fd5b866020808502830101111561020b578384fd5b60200196919550909350505050565b73ffffffffffffffffffffffffffffffffffffffff9190911681526020019056fe608060405234801561001057600080fd5b5060405161064938038061064983398101604081905261002f9161009e565b600080546001600160a01b0319166001600160a01b03831617905560405161007d907f1d6a6a0506b0b4a554b907a4c29d9f4674e461989d9c1921feb17b26716385ab9083906020016100cc565b60408051601f198184030181529190528051602090910120600155506100e7565b6000602082840312156100af578081fd5b81516001600160a01b03811681146100c5578182fd5b9392505050565b91825260601b6001600160601b031916602082015260340190565b610553806100f66000396000f3fe60806040526004361061007b5760003560e01c80639d76ea581161004e5780639d76ea58146100e0578063bfa0b13314610102578063cd72d78914610117578063cd7724c3146100c05761007b565b806311f2928b146100805780632640f62c1461008a57806359e948621461008a57806395b68fe7146100c0575b600080fd5b61008861012c565b005b34801561009657600080fd5b506100aa6100a5366004610429565b61016f565b6040516100b791906104d0565b60405180910390f35b3480156100cc57600080fd5b506100aa6100db366004610429565b6101ae565b3480156100ec57600080fd5b506100f56101e7565b6040516100b791906104af565b34801561010e57600080fd5b506100aa610203565b34801561012357600080fd5b506100f5610209565b60405173e9db8717bc5dfb20aaf538b4a5a02b7791ff430c903480156108fc02916000818181858888f1935050505015801561016c573d6000803e3d6000fd5b50565b6000610179610221565b6101a6600154610187610279565b60005473ffffffffffffffffffffffffffffffffffffffff1685610291565b90505b919050565b60006101b8610221565b6001546000546101a6919073ffffffffffffffffffffffffffffffffffffffff166101e1610279565b856102f2565b60005473ffffffffffffffffffffffffffffffffffffffff1681565b60015481565b73e9db8717bc5dfb20aaf538b4a5a02b7791ff430c81565b73e9db8717bc5dfb20aaf538b4a5a02b7791ff430c3115610277576040517f08c379a000000000000000000000000000000000000000000000000000000000815260040161026e906104d9565b60405180910390fd5b565b73c02aaa39b223fe8d0a0e5c4f27ead9083c756cc290565b60008061029d8561033e565b60ff16600a0a905060006102b08561033e565b60ff16600a0a905060006102c58888886103d0565b9050818184670de0b6b3a7640000880202816102dd57fe5b04816102e557fe5b0498975050505050505050565b6000806102fe8561033e565b60ff16600a0a905060006103118561033e565b60ff16600a0a905060006103268888886103d0565b9050670de0b6b3a7640000838383880202816102dd57fe5b600073ffffffffffffffffffffffffffffffffffffffff821673c02aaa39b223fe8d0a0e5c4f27ead9083c756cc2141561037a575060126101a9565b60008260405160200161038d9190610441565b604080518083037fffffffffffffffffffffffffffffffffffffffffffffffffffffffffffffffe00181529190528051602090910120600f166004019392505050565b6000808484846040516020016103e893929190610471565b6040516020818303038152906040528051906020012090506064670de0b6b3a76400008161041257fe5b0468056ba3d73af34f000082060195945050505050565b60006020828403121561043a578081fd5b5035919050565b60609190911b7fffffffffffffffffffffffffffffffffffffffff00000000000000000000000016815260140190565b9283527fffffffffffffffffffffffffffffffffffffffff000000000000000000000000606092831b81166020850152911b16603482015260480190565b73ffffffffffffffffffffffffffffffffffffffff91909116815260200190565b90815260200190565b6020808252600e908201527f4641494c5f54524947474552454400000000000000000000000000000000000060408201526060019056fea365627a7a723158202b51fc832689c476183bbb9914fe532c84ad04607427f878b6219980061ce04d6c6578706572696d656e74616cf564736f6c63430005100040a365627a7a72315820e642f6303003c7e2b5f87f2ee82cf2beefd4e7d06531e7449c6259603039c17f6c6578706572696d656e74616cf564736f6c63430005100040608060405234801561001057600080fd5b506104fb806100206000396000f3fe60806040526004361061003f5760003560e01c806311f2928b14610044578063144a27521461004e578063cd72d78914610084578063ff1fd974146100a6575b600080fd5b61004c6100c6565b005b34801561005a57600080fd5b5061006e610069366004610387565b610109565b60405161007b919061048d565b60405180910390f35b34801561009057600080fd5b50610099610147565b60405161007b9190610435565b3480156100b257600080fd5b5061006e6100c1366004610387565b61015f565b60405173e9db8717bc5dfb20aaf538b4a5a02b7791ff430c903480156108fc02916000818181858888f19350505050158015610106573d6000803e3d6000fd5b50565b6000610113610195565b61013f7fb713b61bb9bb2958a0f5d1534b21e94fc68c4c0c034b0902ed844f2f6cd1b4f78486856101ed565b949350505050565b73e9db8717bc5dfb20aaf538b4a5a02b7791ff430c81565b6000610169610195565b61013f7fb713b61bb9bb2958a0f5d1534b21e94fc68c4c0c034b0902ed844f2f6cd1b4f785858561024e565b73e9db8717bc5dfb20aaf538b4a5a02b7791ff430c31156101eb576040517f08c379a00000000000000000000000000000000000000000000000000000000081526004016101e290610456565b60405180910390fd5b565b6000806101f98561029a565b60ff16600a0a9050600061020c8561029a565b60ff16600a0a9050600061022188888861032e565b9050670de0b6b3a76400008383838802028161023957fe5b048161024157fe5b0498975050505050505050565b60008061025a8561029a565b60ff16600a0a9050600061026d8561029a565b60ff16600a0a9050600061028288888861032e565b9050818184670de0b6b3a76400008802028161023957fe5b600073ffffffffffffffffffffffffffffffffffffffff821673c02aaa39b223fe8d0a0e5c4f27ead9083c756cc214156102d657506012610329565b6000826040516020016102e991906103c7565b604080518083037fffffffffffffffffffffffffffffffffffffffffffffffffffffffffffffffe00181529190528051602090910120600f166004019150505b919050565b600080848484604051602001610346939291906103f7565b6040516020818303038152906040528051906020012090506064670de0b6b3a76400008161037057fe5b0468056ba3d73af34f000082060195945050505050565b60008060006060848603121561039b578283fd5b83356103a681610496565b925060208401356103b681610496565b929592945050506040919091013590565b60609190911b7fffffffffffffffffffffffffffffffffffffffff00000000000000000000000016815260140190565b9283527fffffffffffffffffffffffffffffffffffffffff000000000000000000000000606092831b81166020850152911b16603482015260480190565b73ffffffffffffffffffffffffffffffffffffffff91909116815260200190565b6020808252600e908201527f4641494c5f545249474745524544000000000000000000000000000000000000604082015260600190565b90815260200190565b73ffffffffffffffffffffffffffffffffffffffff8116811461010657600080fdfea365627a7a72315820127cefae3191a7dd768e753efffe3624723cd097663f65ad7cbcaf47b425c7f66c6578706572696d656e74616cf564736f6c63430005100040608060405234801561001057600080fd5b50610403806100206000396000f3fe60806040526004361061003f5760003560e01c806311f2928b14610044578063809a9e551461004e578063a734f06e14610085578063cd72d789146100a7575b600080fd5b61004c6100bc565b005b34801561005a57600080fd5b5061006e6100693660046102ba565b6100ff565b60405161007c929190610390565b60405180910390f35b34801561009157600080fd5b5061009a6101c1565b60405161007c9190610338565b3480156100b357600080fd5b5061009a6101d9565b60405173e9db8717bc5dfb20aaf538b4a5a02b7791ff430c903480156108fc02916000818181858888f193505050501580156100fc573d6000803e3d6000fd5b50565b60008061010a6101f1565b73ffffffffffffffffffffffffffffffffffffffff851673eeeeeeeeeeeeeeeeeeeeeeeeeeeeeeeeeeeeeeee146101415784610149565b610149610249565b945073ffffffffffffffffffffffffffffffffffffffff841673eeeeeeeeeeeeeeeeeeeeeeeeeeeeeeeeeeeeeeee14610182578361018a565b61018a610249565b93506101b77f0ff3ca9d46195c39f9a12afb74207b4970349fb3cfb1e459bbf170298d326bc78686610261565b9150935093915050565b73eeeeeeeeeeeeeeeeeeeeeeeeeeeeeeeeeeeeeeee81565b73e9db8717bc5dfb20aaf538b4a5a02b7791ff430c81565b73e9db8717bc5dfb20aaf538b4a5a02b7791ff430c3115610247576040517f08c379a000000000000000000000000000000000000000000000000000000000815260040161023e90610359565b60405180910390fd5b565b73c02aaa39b223fe8d0a0e5c4f27ead9083c756cc290565b600080848484604051602001610279939291906102fa565b6040516020818303038152906040528051906020012090506064670de0b6b3a7640000816102a357fe5b0468056ba3d73af34f000082060195945050505050565b6000806000606084860312156102ce578283fd5b83356102d98161039e565b925060208401356102e98161039e565b929592945050506040919091013590565b9283527fffffffffffffffffffffffffffffffffffffffff000000000000000000000000606092831b81166020850152911b16603482015260480190565b73ffffffffffffffffffffffffffffffffffffffff91909116815260200190565b6020808252600e908201527f4641494c5f545249474745524544000000000000000000000000000000000000604082015260600190565b918252602082015260400190565b73ffffffffffffffffffffffffffffffffffffffff811681146100fc57600080fdfea365627a7a72315820fcf2aa0163b0d74ce36046b9a4d0dfdf1070348492535455e686d495fb6d5eba6c6578706572696d656e74616cf564736f6c63430005100040",
                "opcodes": "PUSH1 0x80 PUSH1 0x40 MSTORE CALLVALUE DUP1 ISZERO PUSH3 0x11 JUMPI PUSH1 0x0 DUP1 REVERT JUMPDEST POP PUSH1 0x40 MLOAD PUSH3 0x20 SWAP1 PUSH3 0xFC JUMP JUMPDEST PUSH1 0x40 MLOAD DUP1 SWAP2 SUB SWAP1 PUSH1 0x0 CREATE DUP1 ISZERO DUP1 ISZERO PUSH3 0x3D JUMPI RETURNDATASIZE PUSH1 0x0 DUP1 RETURNDATACOPY RETURNDATASIZE PUSH1 0x0 REVERT JUMPDEST POP PUSH1 0x0 DUP1 SLOAD PUSH1 0x1 PUSH1 0x1 PUSH1 0xA0 SHL SUB NOT AND PUSH1 0x1 PUSH1 0x1 PUSH1 0xA0 SHL SUB SWAP3 SWAP1 SWAP3 AND SWAP2 SWAP1 SWAP2 OR SWAP1 SSTORE PUSH1 0x40 MLOAD PUSH3 0x6C SWAP1 PUSH3 0x10A JUMP JUMPDEST PUSH1 0x40 MLOAD DUP1 SWAP2 SUB SWAP1 PUSH1 0x0 CREATE DUP1 ISZERO DUP1 ISZERO PUSH3 0x89 JUMPI RETURNDATASIZE PUSH1 0x0 DUP1 RETURNDATACOPY RETURNDATASIZE PUSH1 0x0 REVERT JUMPDEST POP PUSH1 0x1 DUP1 SLOAD PUSH1 0x1 PUSH1 0x1 PUSH1 0xA0 SHL SUB NOT AND PUSH1 0x1 PUSH1 0x1 PUSH1 0xA0 SHL SUB SWAP3 SWAP1 SWAP3 AND SWAP2 SWAP1 SWAP2 OR SWAP1 SSTORE PUSH1 0x40 MLOAD PUSH3 0xB8 SWAP1 PUSH3 0x118 JUMP JUMPDEST PUSH1 0x40 MLOAD DUP1 SWAP2 SUB SWAP1 PUSH1 0x0 CREATE DUP1 ISZERO DUP1 ISZERO PUSH3 0xD5 JUMPI RETURNDATASIZE PUSH1 0x0 DUP1 RETURNDATACOPY RETURNDATASIZE PUSH1 0x0 REVERT JUMPDEST POP PUSH1 0x2 DUP1 SLOAD PUSH1 0x1 PUSH1 0x1 PUSH1 0xA0 SHL SUB NOT AND PUSH1 0x1 PUSH1 0x1 PUSH1 0xA0 SHL SUB SWAP3 SWAP1 SWAP3 AND SWAP2 SWAP1 SWAP2 OR SWAP1 SSTORE PUSH3 0x126 JUMP JUMPDEST PUSH2 0x8E7 DUP1 PUSH3 0x2FAB DUP4 CODECOPY ADD SWAP1 JUMP JUMPDEST PUSH2 0x51B DUP1 PUSH3 0x3892 DUP4 CODECOPY ADD SWAP1 JUMP JUMPDEST PUSH2 0x423 DUP1 PUSH3 0x3DAD DUP4 CODECOPY ADD SWAP1 JUMP JUMPDEST PUSH2 0x2E75 DUP1 PUSH3 0x136 PUSH1 0x0 CODECOPY PUSH1 0x0 RETURN INVALID PUSH1 0x80 PUSH1 0x40 MSTORE PUSH1 0x4 CALLDATASIZE LT PUSH2 0x144 JUMPI PUSH1 0x0 CALLDATALOAD PUSH1 0xE0 SHR DUP1 PUSH4 0x68BE3CF2 GT PUSH2 0xC0 JUMPI DUP1 PUSH4 0xA2D10BA5 GT PUSH2 0x74 JUMPI DUP1 PUSH4 0xCD72D789 GT PUSH2 0x59 JUMPI DUP1 PUSH4 0xCD72D789 EQ PUSH2 0x34D JUMPI DUP1 PUSH4 0xE77286EB EQ PUSH2 0x362 JUMPI DUP1 PUSH4 0xFEA12A03 EQ PUSH2 0x391 JUMPI PUSH2 0x144 JUMP JUMPDEST DUP1 PUSH4 0xA2D10BA5 EQ PUSH2 0x318 JUMPI DUP1 PUSH4 0xC7F7142E EQ PUSH2 0x32D JUMPI PUSH2 0x144 JUMP JUMPDEST DUP1 PUSH4 0x8B123A02 GT PUSH2 0xA5 JUMPI DUP1 PUSH4 0x8B123A02 EQ PUSH2 0x2B8 JUMPI DUP1 PUSH4 0x9F76AD35 EQ PUSH2 0x2D8 JUMPI DUP1 PUSH4 0xA2C28D4B EQ PUSH2 0x2F8 JUMPI PUSH2 0x144 JUMP JUMPDEST DUP1 PUSH4 0x68BE3CF2 EQ PUSH2 0x26B JUMPI DUP1 PUSH4 0x6DD6B78D EQ PUSH2 0x298 JUMPI PUSH2 0x144 JUMP JUMPDEST DUP1 PUSH4 0x4703A7E6 GT PUSH2 0x117 JUMPI DUP1 PUSH4 0x59F515D0 GT PUSH2 0xFC JUMPI DUP1 PUSH4 0x59F515D0 EQ PUSH2 0x20B JUMPI DUP1 PUSH4 0x60EE052A EQ PUSH2 0x22B JUMPI DUP1 PUSH4 0x64EE6ADE EQ PUSH2 0x24B JUMPI PUSH2 0x144 JUMP JUMPDEST DUP1 PUSH4 0x4703A7E6 EQ PUSH2 0x1CB JUMPI DUP1 PUSH4 0x4CB8E253 EQ PUSH2 0x1EB JUMPI PUSH2 0x144 JUMP JUMPDEST DUP1 PUSH4 0x11F2928B EQ PUSH2 0x149 JUMPI DUP1 PUSH4 0x2681F7E4 EQ PUSH2 0x153 JUMPI DUP1 PUSH4 0x31268657 EQ PUSH2 0x17E JUMPI DUP1 PUSH4 0x354152A3 EQ PUSH2 0x19E JUMPI JUMPDEST PUSH1 0x0 DUP1 REVERT JUMPDEST PUSH2 0x151 PUSH2 0x3A6 JUMP JUMPDEST STOP JUMPDEST CALLVALUE DUP1 ISZERO PUSH2 0x15F JUMPI PUSH1 0x0 DUP1 REVERT JUMPDEST POP PUSH2 0x168 PUSH2 0x3E9 JUMP JUMPDEST PUSH1 0x40 MLOAD PUSH2 0x175 SWAP2 SWAP1 PUSH2 0x29BE JUMP JUMPDEST PUSH1 0x40 MLOAD DUP1 SWAP2 SUB SWAP1 RETURN JUMPDEST CALLVALUE DUP1 ISZERO PUSH2 0x18A JUMPI PUSH1 0x0 DUP1 REVERT JUMPDEST POP PUSH2 0x151 PUSH2 0x199 CALLDATASIZE PUSH1 0x4 PUSH2 0x2731 JUMP JUMPDEST PUSH2 0x405 JUMP JUMPDEST CALLVALUE DUP1 ISZERO PUSH2 0x1AA JUMPI PUSH1 0x0 DUP1 REVERT JUMPDEST POP PUSH2 0x1BE PUSH2 0x1B9 CALLDATASIZE PUSH1 0x4 PUSH2 0x26F3 JUMP JUMPDEST PUSH2 0x493 JUMP JUMPDEST PUSH1 0x40 MLOAD PUSH2 0x175 SWAP2 SWAP1 PUSH2 0x2B0F JUMP JUMPDEST CALLVALUE DUP1 ISZERO PUSH2 0x1D7 JUMPI PUSH1 0x0 DUP1 REVERT JUMPDEST POP PUSH2 0x1BE PUSH2 0x1E6 CALLDATASIZE PUSH1 0x4 PUSH2 0x2693 JUMP JUMPDEST PUSH2 0x664 JUMP JUMPDEST CALLVALUE DUP1 ISZERO PUSH2 0x1F7 JUMPI PUSH1 0x0 DUP1 REVERT JUMPDEST POP PUSH2 0x1BE PUSH2 0x206 CALLDATASIZE PUSH1 0x4 PUSH2 0x2693 JUMP JUMPDEST PUSH2 0x840 JUMP JUMPDEST CALLVALUE DUP1 ISZERO PUSH2 0x217 JUMPI PUSH1 0x0 DUP1 REVERT JUMPDEST POP PUSH2 0x1BE PUSH2 0x226 CALLDATASIZE PUSH1 0x4 PUSH2 0x2771 JUMP JUMPDEST PUSH2 0xB30 JUMP JUMPDEST CALLVALUE DUP1 ISZERO PUSH2 0x237 JUMPI PUSH1 0x0 DUP1 REVERT JUMPDEST POP PUSH2 0x1BE PUSH2 0x246 CALLDATASIZE PUSH1 0x4 PUSH2 0x2693 JUMP JUMPDEST PUSH2 0xBD9 JUMP JUMPDEST CALLVALUE DUP1 ISZERO PUSH2 0x257 JUMPI PUSH1 0x0 DUP1 REVERT JUMPDEST POP PUSH2 0x1BE PUSH2 0x266 CALLDATASIZE PUSH1 0x4 PUSH2 0x2693 JUMP JUMPDEST PUSH2 0xE99 JUMP JUMPDEST CALLVALUE DUP1 ISZERO PUSH2 0x277 JUMPI PUSH1 0x0 DUP1 REVERT JUMPDEST POP PUSH2 0x28B PUSH2 0x286 CALLDATASIZE PUSH1 0x4 PUSH2 0x2731 JUMP JUMPDEST PUSH2 0x105F JUMP JUMPDEST PUSH1 0x40 MLOAD PUSH2 0x175 SWAP2 SWAP1 PUSH2 0x2A91 JUMP JUMPDEST CALLVALUE DUP1 ISZERO PUSH2 0x2A4 JUMPI PUSH1 0x0 DUP1 REVERT JUMPDEST POP PUSH2 0x1BE PUSH2 0x2B3 CALLDATASIZE PUSH1 0x4 PUSH2 0x2693 JUMP JUMPDEST PUSH2 0x119E JUMP JUMPDEST CALLVALUE DUP1 ISZERO PUSH2 0x2C4 JUMPI PUSH1 0x0 DUP1 REVERT JUMPDEST POP PUSH2 0x1BE PUSH2 0x2D3 CALLDATASIZE PUSH1 0x4 PUSH2 0x2771 JUMP JUMPDEST PUSH2 0x1446 JUMP JUMPDEST CALLVALUE DUP1 ISZERO PUSH2 0x2E4 JUMPI PUSH1 0x0 DUP1 REVERT JUMPDEST POP PUSH2 0x1BE PUSH2 0x2F3 CALLDATASIZE PUSH1 0x4 PUSH2 0x2620 JUMP JUMPDEST PUSH2 0x170E JUMP JUMPDEST CALLVALUE DUP1 ISZERO PUSH2 0x304 JUMPI PUSH1 0x0 DUP1 REVERT JUMPDEST POP PUSH2 0x1BE PUSH2 0x313 CALLDATASIZE PUSH1 0x4 PUSH2 0x2620 JUMP JUMPDEST PUSH2 0x1913 JUMP JUMPDEST CALLVALUE DUP1 ISZERO PUSH2 0x324 JUMPI PUSH1 0x0 DUP1 REVERT JUMPDEST POP PUSH2 0x168 PUSH2 0x1AFF JUMP JUMPDEST CALLVALUE DUP1 ISZERO PUSH2 0x339 JUMPI PUSH1 0x0 DUP1 REVERT JUMPDEST POP PUSH2 0x168 PUSH2 0x348 CALLDATASIZE PUSH1 0x4 PUSH2 0x25D6 JUMP JUMPDEST PUSH2 0x1B1B JUMP JUMPDEST CALLVALUE DUP1 ISZERO PUSH2 0x359 JUMPI PUSH1 0x0 DUP1 REVERT JUMPDEST POP PUSH2 0x168 PUSH2 0x1C56 JUMP JUMPDEST CALLVALUE DUP1 ISZERO PUSH2 0x36E JUMPI PUSH1 0x0 DUP1 REVERT JUMPDEST POP PUSH2 0x382 PUSH2 0x37D CALLDATASIZE PUSH1 0x4 PUSH2 0x288F JUMP JUMPDEST PUSH2 0x1C6E JUMP JUMPDEST PUSH1 0x40 MLOAD PUSH2 0x175 SWAP4 SWAP3 SWAP2 SWAP1 PUSH2 0x2BFD JUMP JUMPDEST CALLVALUE DUP1 ISZERO PUSH2 0x39D JUMPI PUSH1 0x0 DUP1 REVERT JUMPDEST POP PUSH2 0x168 PUSH2 0x1D17 JUMP JUMPDEST PUSH1 0x40 MLOAD PUSH20 0xE9DB8717BC5DFB20AAF538B4A5A02B7791FF430C SWAP1 CALLVALUE DUP1 ISZERO PUSH2 0x8FC MUL SWAP2 PUSH1 0x0 DUP2 DUP2 DUP2 DUP6 DUP9 DUP9 CALL SWAP4 POP POP POP POP ISZERO DUP1 ISZERO PUSH2 0x3E6 JUMPI RETURNDATASIZE PUSH1 0x0 DUP1 RETURNDATACOPY RETURNDATASIZE PUSH1 0x0 REVERT JUMPDEST POP JUMP JUMPDEST PUSH1 0x0 SLOAD PUSH20 0xFFFFFFFFFFFFFFFFFFFFFFFFFFFFFFFFFFFFFFFF AND DUP2 JUMP JUMPDEST PUSH1 0x0 SLOAD PUSH1 0x40 MLOAD PUSH32 0x3126865700000000000000000000000000000000000000000000000000000000 DUP2 MSTORE PUSH20 0xFFFFFFFFFFFFFFFFFFFFFFFFFFFFFFFFFFFFFFFF SWAP1 SWAP2 AND SWAP1 PUSH4 0x31268657 SWAP1 PUSH2 0x45D SWAP1 DUP6 SWAP1 DUP6 SWAP1 PUSH1 0x4 ADD PUSH2 0x2A37 JUMP JUMPDEST PUSH1 0x0 PUSH1 0x40 MLOAD DUP1 DUP4 SUB DUP2 PUSH1 0x0 DUP8 DUP1 EXTCODESIZE ISZERO DUP1 ISZERO PUSH2 0x477 JUMPI PUSH1 0x0 DUP1 REVERT JUMPDEST POP GAS CALL ISZERO DUP1 ISZERO PUSH2 0x48B JUMPI RETURNDATASIZE PUSH1 0x0 DUP1 RETURNDATACOPY RETURNDATASIZE PUSH1 0x0 REVERT JUMPDEST POP POP POP POP POP POP JUMP JUMPDEST PUSH1 0x60 PUSH1 0x0 DUP3 MLOAD SWAP1 POP DUP1 PUSH1 0x40 MLOAD SWAP1 DUP1 DUP3 MSTORE DUP1 PUSH1 0x20 MUL PUSH1 0x20 ADD DUP3 ADD PUSH1 0x40 MSTORE DUP1 ISZERO PUSH2 0x4C5 JUMPI DUP2 PUSH1 0x20 ADD PUSH1 0x20 DUP3 MUL DUP1 CODESIZE DUP4 CODECOPY ADD SWAP1 POP JUMPDEST POP SWAP2 POP PUSH1 0x0 JUMPDEST DUP2 DUP2 LT ISZERO PUSH2 0x65A JUMPI PUSH1 0x0 PUSH1 0x60 DUP9 PUSH20 0xFFFFFFFFFFFFFFFFFFFFFFFFFFFFFFFFFFFFFFFF AND PUSH3 0x927C0 PUSH1 0x0 PUSH20 0xFFFFFFFFFFFFFFFFFFFFFFFFFFFFFFFFFFFFFFFF AND PUSH4 0x7211EF7 SWAP1 POP PUSH1 0xE0 SHL DUP11 DUP11 DUP11 DUP9 DUP2 MLOAD DUP2 LT PUSH2 0x522 JUMPI INVALID JUMPDEST PUSH1 0x20 MUL PUSH1 0x20 ADD ADD MLOAD PUSH1 0x40 MLOAD PUSH1 0x24 ADD PUSH2 0x53C SWAP4 SWAP3 SWAP2 SWAP1 PUSH2 0x2B82 JUMP JUMPDEST PUSH1 0x40 DUP1 MLOAD PUSH32 0xFFFFFFFFFFFFFFFFFFFFFFFFFFFFFFFFFFFFFFFFFFFFFFFFFFFFFFFFFFFFFFE0 DUP2 DUP5 SUB ADD DUP2 MSTORE SWAP2 DUP2 MSTORE PUSH1 0x20 DUP3 ADD DUP1 MLOAD PUSH28 0xFFFFFFFFFFFFFFFFFFFFFFFFFFFFFFFFFFFFFFFFFFFFFFFFFFFFFFFF AND PUSH32 0xFFFFFFFF00000000000000000000000000000000000000000000000000000000 SWAP1 SWAP5 AND SWAP4 SWAP1 SWAP4 OR SWAP1 SWAP3 MSTORE SWAP1 MLOAD PUSH2 0x5C5 SWAP2 SWAP1 PUSH2 0x29A2 JUMP JUMPDEST PUSH1 0x0 PUSH1 0x40 MLOAD DUP1 DUP4 SUB DUP2 DUP7 DUP7 STATICCALL SWAP3 POP POP POP RETURNDATASIZE DUP1 PUSH1 0x0 DUP2 EQ PUSH2 0x601 JUMPI PUSH1 0x40 MLOAD SWAP2 POP PUSH1 0x1F NOT PUSH1 0x3F RETURNDATASIZE ADD AND DUP3 ADD PUSH1 0x40 MSTORE RETURNDATASIZE DUP3 MSTORE RETURNDATASIZE PUSH1 0x0 PUSH1 0x20 DUP5 ADD RETURNDATACOPY PUSH2 0x606 JUMP JUMPDEST PUSH1 0x60 SWAP2 POP JUMPDEST POP SWAP1 SWAP3 POP SWAP1 POP PUSH1 0x0 DUP3 ISZERO PUSH2 0x62F JUMPI DUP2 DUP1 PUSH1 0x20 ADD SWAP1 MLOAD PUSH2 0x628 SWAP2 SWAP1 DUP2 ADD SWAP1 PUSH2 0x28E6 JUMP JUMPDEST SWAP1 POP PUSH2 0x637 JUMP JUMPDEST POP POP POP PUSH2 0x65A JUMP JUMPDEST DUP1 DUP7 DUP6 DUP2 MLOAD DUP2 LT PUSH2 0x644 JUMPI INVALID JUMPDEST PUSH1 0x20 SWAP1 DUP2 MUL SWAP2 SWAP1 SWAP2 ADD ADD MSTORE POP POP POP PUSH1 0x1 ADD PUSH2 0x4CB JUMP JUMPDEST POP POP SWAP5 SWAP4 POP POP POP POP JUMP JUMPDEST PUSH1 0x60 PUSH2 0x670 DUP4 DUP6 PUSH2 0x1D33 JUMP JUMPDEST DUP2 MLOAD PUSH1 0x40 DUP1 MLOAD DUP3 DUP2 MSTORE PUSH1 0x20 DUP1 DUP5 MUL DUP3 ADD ADD SWAP1 SWAP2 MSTORE DUP2 DUP1 ISZERO PUSH2 0x69B JUMPI DUP2 PUSH1 0x20 ADD PUSH1 0x20 DUP3 MUL DUP1 CODESIZE DUP4 CODECOPY ADD SWAP1 POP JUMPDEST POP SWAP2 POP PUSH1 0x0 JUMPDEST DUP2 DUP2 LT ISZERO PUSH2 0x837 JUMPI PUSH1 0x0 PUSH1 0x60 PUSH2 0x6B5 PUSH2 0x1DA6 JUMP JUMPDEST PUSH20 0xFFFFFFFFFFFFFFFFFFFFFFFFFFFFFFFFFFFFFFFF AND PUSH3 0xF4240 PUSH1 0x0 PUSH20 0xFFFFFFFFFFFFFFFFFFFFFFFFFFFFFFFFFFFFFFFF AND PUSH4 0xFF1FD974 SWAP1 POP PUSH1 0xE0 SHL DUP11 DUP11 DUP11 DUP9 DUP2 MLOAD DUP2 LT PUSH2 0x6FF JUMPI INVALID JUMPDEST PUSH1 0x20 MUL PUSH1 0x20 ADD ADD MLOAD PUSH1 0x40 MLOAD PUSH1 0x24 ADD PUSH2 0x719 SWAP4 SWAP3 SWAP2 SWAP1 PUSH2 0x2A06 JUMP JUMPDEST PUSH1 0x40 DUP1 MLOAD PUSH32 0xFFFFFFFFFFFFFFFFFFFFFFFFFFFFFFFFFFFFFFFFFFFFFFFFFFFFFFFFFFFFFFE0 DUP2 DUP5 SUB ADD DUP2 MSTORE SWAP2 DUP2 MSTORE PUSH1 0x20 DUP3 ADD DUP1 MLOAD PUSH28 0xFFFFFFFFFFFFFFFFFFFFFFFFFFFFFFFFFFFFFFFFFFFFFFFFFFFFFFFF AND PUSH32 0xFFFFFFFF00000000000000000000000000000000000000000000000000000000 SWAP1 SWAP5 AND SWAP4 SWAP1 SWAP4 OR SWAP1 SWAP3 MSTORE SWAP1 MLOAD PUSH2 0x7A2 SWAP2 SWAP1 PUSH2 0x29A2 JUMP JUMPDEST PUSH1 0x0 PUSH1 0x40 MLOAD DUP1 DUP4 SUB DUP2 DUP7 DUP7 STATICCALL SWAP3 POP POP POP RETURNDATASIZE DUP1 PUSH1 0x0 DUP2 EQ PUSH2 0x7DE JUMPI PUSH1 0x40 MLOAD SWAP2 POP PUSH1 0x1F NOT PUSH1 0x3F RETURNDATASIZE ADD AND DUP3 ADD PUSH1 0x40 MSTORE RETURNDATASIZE DUP3 MSTORE RETURNDATASIZE PUSH1 0x0 PUSH1 0x20 DUP5 ADD RETURNDATACOPY PUSH2 0x7E3 JUMP JUMPDEST PUSH1 0x60 SWAP2 POP JUMPDEST POP SWAP1 SWAP3 POP SWAP1 POP PUSH1 0x0 DUP3 ISZERO PUSH2 0x80C JUMPI DUP2 DUP1 PUSH1 0x20 ADD SWAP1 MLOAD PUSH2 0x805 SWAP2 SWAP1 DUP2 ADD SWAP1 PUSH2 0x28E6 JUMP JUMPDEST SWAP1 POP PUSH2 0x814 JUMP JUMPDEST POP POP POP PUSH2 0x837 JUMP JUMPDEST DUP1 DUP7 DUP6 DUP2 MLOAD DUP2 LT PUSH2 0x821 JUMPI INVALID JUMPDEST PUSH1 0x20 SWAP1 DUP2 MUL SWAP2 SWAP1 SWAP2 ADD ADD MSTORE POP POP POP PUSH1 0x1 ADD PUSH2 0x6A1 JUMP JUMPDEST POP POP SWAP4 SWAP3 POP POP POP JUMP JUMPDEST PUSH1 0x60 PUSH2 0x84C DUP4 DUP6 PUSH2 0x1D33 JUMP JUMPDEST PUSH1 0x0 PUSH2 0x856 PUSH2 0x1DC2 JUMP JUMPDEST PUSH20 0xFFFFFFFFFFFFFFFFFFFFFFFFFFFFFFFFFFFFFFFF AND DUP6 PUSH20 0xFFFFFFFFFFFFFFFFFFFFFFFFFFFFFFFFFFFFFFFF AND EQ PUSH2 0x88E JUMPI DUP5 PUSH2 0x8A4 JUMP JUMPDEST PUSH20 0xEEEEEEEEEEEEEEEEEEEEEEEEEEEEEEEEEEEEEEEE JUMPDEST SWAP1 POP PUSH1 0x0 PUSH2 0x8B0 PUSH2 0x1DC2 JUMP JUMPDEST PUSH20 0xFFFFFFFFFFFFFFFFFFFFFFFFFFFFFFFFFFFFFFFF AND DUP6 PUSH20 0xFFFFFFFFFFFFFFFFFFFFFFFFFFFFFFFFFFFFFFFF AND EQ PUSH2 0x8E8 JUMPI DUP5 PUSH2 0x8FE JUMP JUMPDEST PUSH20 0xEEEEEEEEEEEEEEEEEEEEEEEEEEEEEEEEEEEEEEEE JUMPDEST SWAP1 POP PUSH1 0x0 PUSH2 0x90B DUP8 PUSH2 0x1DDA JUMP JUMPDEST PUSH1 0xFF AND SWAP1 POP PUSH1 0x0 PUSH2 0x91B DUP8 PUSH2 0x1DDA JUMP JUMPDEST PUSH1 0xFF AND SWAP1 POP PUSH1 0x0 DUP7 MLOAD SWAP1 POP DUP1 PUSH1 0x40 MLOAD SWAP1 DUP1 DUP3 MSTORE DUP1 PUSH1 0x20 MUL PUSH1 0x20 ADD DUP3 ADD PUSH1 0x40 MSTORE DUP1 ISZERO PUSH2 0x950 JUMPI DUP2 PUSH1 0x20 ADD PUSH1 0x20 DUP3 MUL DUP1 CODESIZE DUP4 CODECOPY ADD SWAP1 POP JUMPDEST POP SWAP6 POP PUSH1 0x0 JUMPDEST DUP2 DUP2 LT ISZERO PUSH2 0xB23 JUMPI PUSH1 0x0 PUSH1 0x60 PUSH2 0x96A PUSH2 0x1DED JUMP JUMPDEST PUSH20 0xFFFFFFFFFFFFFFFFFFFFFFFFFFFFFFFFFFFFFFFF AND PUSH3 0x16E360 PUSH1 0x0 PUSH20 0xFFFFFFFFFFFFFFFFFFFFFFFFFFFFFFFFFFFFFFFF AND PUSH4 0x809A9E55 SWAP1 POP PUSH1 0xE0 SHL DUP11 DUP11 DUP15 DUP9 DUP2 MLOAD DUP2 LT PUSH2 0x9B4 JUMPI INVALID JUMPDEST PUSH1 0x20 MUL PUSH1 0x20 ADD ADD MLOAD PUSH1 0x40 MLOAD PUSH1 0x24 ADD PUSH2 0x9CE SWAP4 SWAP3 SWAP2 SWAP1 PUSH2 0x2A06 JUMP JUMPDEST PUSH1 0x40 DUP1 MLOAD PUSH32 0xFFFFFFFFFFFFFFFFFFFFFFFFFFFFFFFFFFFFFFFFFFFFFFFFFFFFFFFFFFFFFFE0 DUP2 DUP5 SUB ADD DUP2 MSTORE SWAP2 DUP2 MSTORE PUSH1 0x20 DUP3 ADD DUP1 MLOAD PUSH28 0xFFFFFFFFFFFFFFFFFFFFFFFFFFFFFFFFFFFFFFFFFFFFFFFFFFFFFFFF AND PUSH32 0xFFFFFFFF00000000000000000000000000000000000000000000000000000000 SWAP1 SWAP5 AND SWAP4 SWAP1 SWAP4 OR SWAP1 SWAP3 MSTORE SWAP1 MLOAD PUSH2 0xA57 SWAP2 SWAP1 PUSH2 0x29A2 JUMP JUMPDEST PUSH1 0x0 PUSH1 0x40 MLOAD DUP1 DUP4 SUB DUP2 DUP7 DUP7 STATICCALL SWAP3 POP POP POP RETURNDATASIZE DUP1 PUSH1 0x0 DUP2 EQ PUSH2 0xA93 JUMPI PUSH1 0x40 MLOAD SWAP2 POP PUSH1 0x1F NOT PUSH1 0x3F RETURNDATASIZE ADD AND DUP3 ADD PUSH1 0x40 MSTORE RETURNDATASIZE DUP3 MSTORE RETURNDATASIZE PUSH1 0x0 PUSH1 0x20 DUP5 ADD RETURNDATACOPY PUSH2 0xA98 JUMP JUMPDEST PUSH1 0x60 SWAP2 POP JUMPDEST POP SWAP1 SWAP3 POP SWAP1 POP PUSH1 0x0 DUP3 ISZERO PUSH2 0xAC1 JUMPI DUP2 DUP1 PUSH1 0x20 ADD SWAP1 MLOAD PUSH2 0xABA SWAP2 SWAP1 DUP2 ADD SWAP1 PUSH2 0x28E6 JUMP JUMPDEST SWAP1 POP PUSH2 0xAC9 JUMP JUMPDEST POP POP POP PUSH2 0xB23 JUMP JUMPDEST PUSH8 0xDE0B6B3A7640000 DUP8 PUSH1 0xA EXP DUP8 PUSH1 0xA EXP DUP14 DUP8 DUP2 MLOAD DUP2 LT PUSH2 0xAE6 JUMPI INVALID JUMPDEST PUSH1 0x20 MUL PUSH1 0x20 ADD ADD MLOAD DUP5 MUL MUL DUP2 PUSH2 0xAF8 JUMPI INVALID JUMPDEST DIV DUP2 PUSH2 0xB00 JUMPI INVALID JUMPDEST DIV DUP11 DUP6 DUP2 MLOAD DUP2 LT PUSH2 0xB0D JUMPI INVALID JUMPDEST PUSH1 0x20 SWAP1 DUP2 MUL SWAP2 SWAP1 SWAP2 ADD ADD MSTORE POP POP POP PUSH1 0x1 ADD PUSH2 0x956 JUMP JUMPDEST POP POP POP POP POP POP SWAP4 SWAP3 POP POP POP JUMP JUMPDEST PUSH1 0x60 PUSH2 0xB3C DUP4 DUP4 PUSH2 0x1446 JUMP JUMPDEST SWAP1 POP PUSH1 0x0 JUMPDEST DUP4 MLOAD DUP2 LT ISZERO PUSH2 0xBD2 JUMPI DUP2 DUP2 DUP2 MLOAD DUP2 LT PUSH2 0xB56 JUMPI INVALID JUMPDEST PUSH1 0x20 MUL PUSH1 0x20 ADD ADD MLOAD PUSH1 0x0 EQ PUSH2 0xBCA JUMPI PUSH2 0xBB1 DUP3 DUP3 DUP2 MLOAD DUP2 LT PUSH2 0xB74 JUMPI INVALID JUMPDEST PUSH1 0x20 MUL PUSH1 0x20 ADD ADD MLOAD DUP6 DUP4 DUP2 MLOAD DUP2 LT PUSH2 0xB88 JUMPI INVALID JUMPDEST PUSH1 0x20 MUL PUSH1 0x20 ADD ADD MLOAD PUSH1 0xA0 ADD MLOAD DUP7 DUP5 DUP2 MLOAD DUP2 LT PUSH2 0xBA0 JUMPI INVALID JUMPDEST PUSH1 0x20 MUL PUSH1 0x20 ADD ADD MLOAD PUSH1 0x80 ADD MLOAD PUSH2 0x1E09 JUMP JUMPDEST DUP3 DUP3 DUP2 MLOAD DUP2 LT PUSH2 0xBBD JUMPI INVALID JUMPDEST PUSH1 0x20 MUL PUSH1 0x20 ADD ADD DUP2 DUP2 MSTORE POP POP JUMPDEST PUSH1 0x1 ADD PUSH2 0xB41 JUMP JUMPDEST POP SWAP3 SWAP2 POP POP JUMP JUMPDEST PUSH1 0x60 PUSH2 0xBE5 DUP4 DUP6 PUSH2 0x1D33 JUMP JUMPDEST DUP2 MLOAD PUSH1 0x40 DUP1 MLOAD DUP3 DUP2 MSTORE PUSH1 0x20 DUP1 DUP5 MUL DUP3 ADD ADD SWAP1 SWAP2 MSTORE DUP2 DUP1 ISZERO PUSH2 0xC10 JUMPI DUP2 PUSH1 0x20 ADD PUSH1 0x20 DUP3 MUL DUP1 CODESIZE DUP4 CODECOPY ADD SWAP1 POP JUMPDEST POP SWAP2 POP PUSH1 0x0 PUSH2 0xC1D PUSH2 0x1DC2 JUMP JUMPDEST PUSH20 0xFFFFFFFFFFFFFFFFFFFFFFFFFFFFFFFFFFFFFFFF AND DUP7 PUSH20 0xFFFFFFFFFFFFFFFFFFFFFFFFFFFFFFFFFFFFFFFF AND EQ PUSH2 0xC5D JUMPI PUSH2 0xC58 DUP7 PUSH2 0x1E4B JUMP JUMPDEST PUSH2 0xC60 JUMP JUMPDEST PUSH1 0x0 JUMPDEST SWAP1 POP PUSH1 0x0 PUSH2 0xC6C PUSH2 0x1DC2 JUMP JUMPDEST PUSH20 0xFFFFFFFFFFFFFFFFFFFFFFFFFFFFFFFFFFFFFFFF AND DUP7 PUSH20 0xFFFFFFFFFFFFFFFFFFFFFFFFFFFFFFFFFFFFFFFF AND EQ PUSH2 0xCAC JUMPI PUSH2 0xCA7 DUP7 PUSH2 0x1E4B JUMP JUMPDEST PUSH2 0xCAF JUMP JUMPDEST PUSH1 0x0 JUMPDEST SWAP1 POP PUSH1 0x0 JUMPDEST DUP4 DUP2 LT ISZERO PUSH2 0xE8E JUMPI PUSH1 0x1 PUSH2 0xCC6 PUSH2 0x1DC2 JUMP JUMPDEST PUSH20 0xFFFFFFFFFFFFFFFFFFFFFFFFFFFFFFFFFFFFFFFF AND DUP9 PUSH20 0xFFFFFFFFFFFFFFFFFFFFFFFFFFFFFFFFFFFFFFFF AND EQ ISZERO PUSH2 0xD5D JUMPI DUP7 MLOAD PUSH2 0xD3C SWAP1 DUP6 SWAP1 PUSH32 0x2640F62C00000000000000000000000000000000000000000000000000000000 SWAP1 DUP11 SWAP1 DUP7 SWAP1 DUP2 LT PUSH2 0xD2F JUMPI INVALID JUMPDEST PUSH1 0x20 MUL PUSH1 0x20 ADD ADD MLOAD PUSH2 0x1EDD JUMP JUMPDEST DUP8 DUP5 DUP2 MLOAD DUP2 LT PUSH2 0xD48 JUMPI INVALID JUMPDEST PUSH1 0x20 MUL PUSH1 0x20 ADD ADD DUP2 SWAP4 POP DUP3 DUP2 MSTORE POP POP POP PUSH2 0xE7A JUMP JUMPDEST PUSH2 0xD65 PUSH2 0x1DC2 JUMP JUMPDEST PUSH20 0xFFFFFFFFFFFFFFFFFFFFFFFFFFFFFFFFFFFFFFFF AND DUP10 PUSH20 0xFFFFFFFFFFFFFFFFFFFFFFFFFFFFFFFFFFFFFFFF AND EQ ISZERO PUSH2 0xDCE JUMPI DUP7 MLOAD PUSH2 0xD3C SWAP1 DUP5 SWAP1 PUSH32 0x59E9486200000000000000000000000000000000000000000000000000000000 SWAP1 DUP11 SWAP1 DUP7 SWAP1 DUP2 LT PUSH2 0xD2F JUMPI INVALID JUMPDEST DUP7 MLOAD PUSH1 0x0 SWAP1 PUSH2 0xE07 SWAP1 DUP6 SWAP1 PUSH32 0x59E9486200000000000000000000000000000000000000000000000000000000 SWAP1 DUP12 SWAP1 DUP8 SWAP1 DUP2 LT PUSH2 0xD2F JUMPI INVALID JUMPDEST SWAP3 POP SWAP1 POP DUP1 ISZERO PUSH2 0xE5D JUMPI PUSH2 0xE3C DUP6 PUSH32 0x2640F62C00000000000000000000000000000000000000000000000000000000 DUP4 PUSH2 0x1EDD JUMP JUMPDEST DUP9 DUP6 DUP2 MLOAD DUP2 LT PUSH2 0xE48 JUMPI INVALID JUMPDEST PUSH1 0x20 MUL PUSH1 0x20 ADD ADD DUP2 SWAP5 POP DUP3 DUP2 MSTORE POP POP POP PUSH2 0xE78 JUMP JUMPDEST PUSH1 0x0 DUP8 DUP5 DUP2 MLOAD DUP2 LT PUSH2 0xE6B JUMPI INVALID JUMPDEST PUSH1 0x20 MUL PUSH1 0x20 ADD ADD DUP2 DUP2 MSTORE POP POP JUMPDEST POP JUMPDEST DUP1 PUSH2 0xE85 JUMPI POP PUSH2 0xE8E JUMP JUMPDEST POP PUSH1 0x1 ADD PUSH2 0xCB4 JUMP JUMPDEST POP POP POP POP SWAP4 SWAP3 POP POP POP JUMP JUMPDEST PUSH1 0x60 PUSH2 0xEA5 DUP4 DUP6 PUSH2 0x1D33 JUMP JUMPDEST DUP2 MLOAD PUSH1 0x40 DUP1 MLOAD DUP3 DUP2 MSTORE PUSH1 0x20 DUP1 DUP5 MUL DUP3 ADD ADD SWAP1 SWAP2 MSTORE DUP2 DUP1 ISZERO PUSH2 0xED0 JUMPI DUP2 PUSH1 0x20 ADD PUSH1 0x20 DUP3 MUL DUP1 CODESIZE DUP4 CODECOPY ADD SWAP1 POP JUMPDEST POP SWAP2 POP PUSH1 0x0 JUMPDEST DUP2 DUP2 LT ISZERO PUSH2 0x837 JUMPI PUSH1 0x0 PUSH1 0x60 PUSH2 0xEEA PUSH2 0x1DA6 JUMP JUMPDEST PUSH20 0xFFFFFFFFFFFFFFFFFFFFFFFFFFFFFFFFFFFFFFFF AND PUSH3 0xF4240 PUSH1 0x0 PUSH20 0xFFFFFFFFFFFFFFFFFFFFFFFFFFFFFFFFFFFFFFFF AND PUSH4 0x144A2752 SWAP1 POP PUSH1 0xE0 SHL DUP10 DUP12 DUP11 DUP9 DUP2 MLOAD DUP2 LT PUSH2 0xF34 JUMPI INVALID JUMPDEST PUSH1 0x20 MUL PUSH1 0x20 ADD ADD MLOAD PUSH1 0x40 MLOAD PUSH1 0x24 ADD PUSH2 0xF4E SWAP4 SWAP3 SWAP2 SWAP1 PUSH2 0x2A06 JUMP JUMPDEST PUSH1 0x40 DUP1 MLOAD PUSH32 0xFFFFFFFFFFFFFFFFFFFFFFFFFFFFFFFFFFFFFFFFFFFFFFFFFFFFFFFFFFFFFFE0 DUP2 DUP5 SUB ADD DUP2 MSTORE SWAP2 DUP2 MSTORE PUSH1 0x20 DUP3 ADD DUP1 MLOAD PUSH28 0xFFFFFFFFFFFFFFFFFFFFFFFFFFFFFFFFFFFFFFFFFFFFFFFFFFFFFFFF AND PUSH32 0xFFFFFFFF00000000000000000000000000000000000000000000000000000000 SWAP1 SWAP5 AND SWAP4 SWAP1 SWAP4 OR SWAP1 SWAP3 MSTORE SWAP1 MLOAD PUSH2 0xFD7 SWAP2 SWAP1 PUSH2 0x29A2 JUMP JUMPDEST PUSH1 0x0 PUSH1 0x40 MLOAD DUP1 DUP4 SUB DUP2 DUP7 DUP7 STATICCALL SWAP3 POP POP POP RETURNDATASIZE DUP1 PUSH1 0x0 DUP2 EQ PUSH2 0x1013 JUMPI PUSH1 0x40 MLOAD SWAP2 POP PUSH1 0x1F NOT PUSH1 0x3F RETURNDATASIZE ADD AND DUP3 ADD PUSH1 0x40 MSTORE RETURNDATASIZE DUP3 MSTORE RETURNDATASIZE PUSH1 0x0 PUSH1 0x20 DUP5 ADD RETURNDATACOPY PUSH2 0x1018 JUMP JUMPDEST PUSH1 0x60 SWAP2 POP JUMPDEST POP SWAP1 SWAP3 POP SWAP1 POP PUSH1 0x0 DUP3 ISZERO PUSH2 0x80C JUMPI DUP2 DUP1 PUSH1 0x20 ADD SWAP1 MLOAD PUSH2 0x103A SWAP2 SWAP1 DUP2 ADD SWAP1 PUSH2 0x28E6 JUMP JUMPDEST SWAP1 POP DUP1 DUP7 DUP6 DUP2 MLOAD DUP2 LT PUSH2 0x1049 JUMPI INVALID JUMPDEST PUSH1 0x20 SWAP1 DUP2 MUL SWAP2 SWAP1 SWAP2 ADD ADD MSTORE POP POP POP PUSH1 0x1 ADD PUSH2 0xED6 JUMP JUMPDEST PUSH1 0x40 DUP1 MLOAD DUP3 DUP2 MSTORE PUSH1 0x20 DUP1 DUP5 MUL DUP3 ADD ADD SWAP1 SWAP2 MSTORE PUSH1 0x60 SWAP1 DUP3 DUP1 ISZERO PUSH2 0x1095 JUMPI DUP2 PUSH1 0x20 ADD JUMPDEST PUSH1 0x60 DUP2 MSTORE PUSH1 0x20 ADD SWAP1 PUSH1 0x1 SWAP1 SUB SWAP1 DUP2 PUSH2 0x1080 JUMPI SWAP1 POP JUMPDEST POP SWAP1 POP PUSH1 0x0 JUMPDEST DUP1 DUP4 EQ PUSH2 0xBD2 JUMPI PUSH1 0x0 PUSH1 0x60 ADDRESS DUP7 DUP7 DUP6 DUP2 DUP2 LT PUSH2 0x10B3 JUMPI INVALID JUMPDEST PUSH1 0x20 MUL DUP3 ADD SWAP1 POP DUP1 CALLDATALOAD PUSH32 0xFFFFFFFFFFFFFFFFFFFFFFFFFFFFFFFFFFFFFFFFFFFFFFFFFFFFFFFFFFFFFFE1 CALLDATASIZE DUP5 SWAP1 SUB ADD DUP2 SLT PUSH2 0x10ED JUMPI PUSH1 0x0 DUP1 REVERT JUMPDEST SWAP1 SWAP2 ADD PUSH1 0x20 DUP2 ADD SWAP2 POP CALLDATALOAD PUSH8 0xFFFFFFFFFFFFFFFF DUP2 GT ISZERO PUSH2 0x110C JUMPI PUSH1 0x0 DUP1 REVERT JUMPDEST CALLDATASIZE DUP2 SWAP1 SUB DUP3 SGT ISZERO PUSH2 0x111C JUMPI PUSH1 0x0 DUP1 REVERT JUMPDEST PUSH1 0x40 MLOAD PUSH2 0x112A SWAP3 SWAP2 SWAP1 PUSH2 0x2992 JUMP JUMPDEST PUSH1 0x0 PUSH1 0x40 MLOAD DUP1 DUP4 SUB DUP2 DUP6 GAS STATICCALL SWAP2 POP POP RETURNDATASIZE DUP1 PUSH1 0x0 DUP2 EQ PUSH2 0x1165 JUMPI PUSH1 0x40 MLOAD SWAP2 POP PUSH1 0x1F NOT PUSH1 0x3F RETURNDATASIZE ADD AND DUP3 ADD PUSH1 0x40 MSTORE RETURNDATASIZE DUP3 MSTORE RETURNDATASIZE PUSH1 0x0 PUSH1 0x20 DUP5 ADD RETURNDATACOPY PUSH2 0x116A JUMP JUMPDEST PUSH1 0x60 SWAP2 POP JUMPDEST POP SWAP2 POP SWAP2 POP DUP2 PUSH2 0x117C JUMPI DUP1 MLOAD PUSH1 0x20 DUP3 ADD REVERT JUMPDEST DUP1 DUP5 DUP5 DUP2 MLOAD DUP2 LT PUSH2 0x1189 JUMPI INVALID JUMPDEST PUSH1 0x20 SWAP1 DUP2 MUL SWAP2 SWAP1 SWAP2 ADD ADD MSTORE POP POP PUSH1 0x1 ADD PUSH2 0x109B JUMP JUMPDEST PUSH1 0x60 PUSH2 0x11AA DUP4 DUP6 PUSH2 0x1D33 JUMP JUMPDEST DUP2 MLOAD PUSH1 0x40 DUP1 MLOAD DUP3 DUP2 MSTORE PUSH1 0x20 DUP1 DUP5 MUL DUP3 ADD ADD SWAP1 SWAP2 MSTORE DUP2 DUP1 ISZERO PUSH2 0x11D5 JUMPI DUP2 PUSH1 0x20 ADD PUSH1 0x20 DUP3 MUL DUP1 CODESIZE DUP4 CODECOPY ADD SWAP1 POP JUMPDEST POP SWAP2 POP PUSH1 0x0 PUSH2 0x11E2 PUSH2 0x1DC2 JUMP JUMPDEST PUSH20 0xFFFFFFFFFFFFFFFFFFFFFFFFFFFFFFFFFFFFFFFF AND DUP7 PUSH20 0xFFFFFFFFFFFFFFFFFFFFFFFFFFFFFFFFFFFFFFFF AND EQ PUSH2 0x1222 JUMPI PUSH2 0x121D DUP7 PUSH2 0x1E4B JUMP JUMPDEST PUSH2 0x1225 JUMP JUMPDEST PUSH1 0x0 JUMPDEST SWAP1 POP PUSH1 0x0 PUSH2 0x1231 PUSH2 0x1DC2 JUMP JUMPDEST PUSH20 0xFFFFFFFFFFFFFFFFFFFFFFFFFFFFFFFFFFFFFFFF AND DUP7 PUSH20 0xFFFFFFFFFFFFFFFFFFFFFFFFFFFFFFFFFFFFFFFF AND EQ PUSH2 0x1271 JUMPI PUSH2 0x126C DUP7 PUSH2 0x1E4B JUMP JUMPDEST PUSH2 0x1274 JUMP JUMPDEST PUSH1 0x0 JUMPDEST SWAP1 POP PUSH1 0x0 JUMPDEST DUP4 DUP2 LT ISZERO PUSH2 0xE8E JUMPI PUSH1 0x1 PUSH2 0x128B PUSH2 0x1DC2 JUMP JUMPDEST PUSH20 0xFFFFFFFFFFFFFFFFFFFFFFFFFFFFFFFFFFFFFFFF AND DUP9 PUSH20 0xFFFFFFFFFFFFFFFFFFFFFFFFFFFFFFFFFFFFFFFF AND EQ ISZERO PUSH2 0x1315 JUMPI DUP7 MLOAD PUSH2 0x12F4 SWAP1 DUP6 SWAP1 PUSH32 0x95B68FE700000000000000000000000000000000000000000000000000000000 SWAP1 DUP11 SWAP1 DUP7 SWAP1 DUP2 LT PUSH2 0xD2F JUMPI INVALID JUMPDEST DUP8 DUP5 DUP2 MLOAD DUP2 LT PUSH2 0x1300 JUMPI INVALID JUMPDEST PUSH1 0x20 MUL PUSH1 0x20 ADD ADD DUP2 SWAP4 POP DUP3 DUP2 MSTORE POP POP POP PUSH2 0x1432 JUMP JUMPDEST PUSH2 0x131D PUSH2 0x1DC2 JUMP JUMPDEST PUSH20 0xFFFFFFFFFFFFFFFFFFFFFFFFFFFFFFFFFFFFFFFF AND DUP10 PUSH20 0xFFFFFFFFFFFFFFFFFFFFFFFFFFFFFFFFFFFFFFFF AND EQ ISZERO PUSH2 0x1386 JUMPI DUP7 MLOAD PUSH2 0x12F4 SWAP1 DUP5 SWAP1 PUSH32 0xCD7724C300000000000000000000000000000000000000000000000000000000 SWAP1 DUP11 SWAP1 DUP7 SWAP1 DUP2 LT PUSH2 0xD2F JUMPI INVALID JUMPDEST DUP7 MLOAD PUSH1 0x0 SWAP1 PUSH2 0x13BF SWAP1 DUP7 SWAP1 PUSH32 0x95B68FE700000000000000000000000000000000000000000000000000000000 SWAP1 DUP12 SWAP1 DUP8 SWAP1 DUP2 LT PUSH2 0xD2F JUMPI INVALID JUMPDEST SWAP3 POP SWAP1 POP DUP1 ISZERO PUSH2 0x1415 JUMPI PUSH2 0x13F4 DUP5 PUSH32 0xCD7724C300000000000000000000000000000000000000000000000000000000 DUP4 PUSH2 0x1EDD JUMP JUMPDEST DUP9 DUP6 DUP2 MLOAD DUP2 LT PUSH2 0x1400 JUMPI INVALID JUMPDEST PUSH1 0x20 MUL PUSH1 0x20 ADD ADD DUP2 SWAP5 POP DUP3 DUP2 MSTORE POP POP POP PUSH2 0x1430 JUMP JUMPDEST PUSH1 0x0 DUP8 DUP5 DUP2 MLOAD DUP2 LT PUSH2 0x1423 JUMPI INVALID JUMPDEST PUSH1 0x20 MUL PUSH1 0x20 ADD ADD DUP2 DUP2 MSTORE POP POP JUMPDEST POP JUMPDEST DUP1 PUSH2 0x143D JUMPI POP PUSH2 0xE8E JUMP JUMPDEST POP PUSH1 0x1 ADD PUSH2 0x1279 JUMP JUMPDEST PUSH1 0x60 DUP3 MLOAD PUSH1 0x40 MLOAD SWAP1 DUP1 DUP3 MSTORE DUP1 PUSH1 0x20 MUL PUSH1 0x20 ADD DUP3 ADD PUSH1 0x40 MSTORE DUP1 ISZERO PUSH2 0x1473 JUMPI DUP2 PUSH1 0x20 ADD PUSH1 0x20 DUP3 MUL DUP1 CODESIZE DUP4 CODECOPY ADD SWAP1 POP JUMPDEST POP SWAP1 POP PUSH1 0x0 JUMPDEST DUP4 MLOAD DUP2 EQ PUSH2 0xBD2 JUMPI DUP3 DUP2 DUP2 MLOAD DUP2 LT PUSH2 0x148D JUMPI INVALID JUMPDEST PUSH1 0x20 MUL PUSH1 0x20 ADD ADD MLOAD MLOAD PUSH1 0x0 EQ DUP1 PUSH2 0x14BB JUMPI POP DUP4 DUP2 DUP2 MLOAD DUP2 LT PUSH2 0x14AB JUMPI INVALID JUMPDEST PUSH1 0x20 MUL PUSH1 0x20 ADD ADD MLOAD PUSH1 0x80 ADD MLOAD PUSH1 0x0 EQ JUMPDEST DUP1 PUSH2 0x14DD JUMPI POP DUP4 DUP2 DUP2 MLOAD DUP2 LT PUSH2 0x14CD JUMPI INVALID JUMPDEST PUSH1 0x20 MUL PUSH1 0x20 ADD ADD MLOAD PUSH1 0xA0 ADD MLOAD PUSH1 0x0 EQ JUMPDEST ISZERO PUSH2 0x1501 JUMPI PUSH1 0x0 DUP3 DUP3 DUP2 MLOAD DUP2 LT PUSH2 0x14F0 JUMPI INVALID JUMPDEST PUSH1 0x20 MUL PUSH1 0x20 ADD ADD DUP2 DUP2 MSTORE POP POP PUSH2 0x1706 JUMP JUMPDEST PUSH1 0x0 PUSH1 0x60 PUSH2 0x150D PUSH2 0x2026 JUMP JUMPDEST PUSH20 0xFFFFFFFFFFFFFFFFFFFFFFFFFFFFFFFFFFFFFFFF AND PUSH3 0x7A120 PUSH2 0x152F PUSH2 0x2026 JUMP JUMPDEST POP DUP8 MLOAD PUSH32 0xE77286EB00000000000000000000000000000000000000000000000000000000 SWAP1 DUP10 SWAP1 DUP8 SWAP1 DUP2 LT PUSH2 0x1560 JUMPI INVALID JUMPDEST PUSH1 0x20 MUL PUSH1 0x20 ADD ADD MLOAD DUP9 DUP8 DUP2 MLOAD DUP2 LT PUSH2 0x1574 JUMPI INVALID JUMPDEST PUSH1 0x20 MUL PUSH1 0x20 ADD ADD MLOAD PUSH1 0x40 MLOAD PUSH1 0x24 ADD PUSH2 0x158D SWAP3 SWAP2 SWAP1 PUSH2 0x2C3C JUMP JUMPDEST PUSH1 0x40 DUP1 MLOAD PUSH32 0xFFFFFFFFFFFFFFFFFFFFFFFFFFFFFFFFFFFFFFFFFFFFFFFFFFFFFFFFFFFFFFE0 DUP2 DUP5 SUB ADD DUP2 MSTORE SWAP2 DUP2 MSTORE PUSH1 0x20 DUP3 ADD DUP1 MLOAD PUSH28 0xFFFFFFFFFFFFFFFFFFFFFFFFFFFFFFFFFFFFFFFFFFFFFFFFFFFFFFFF AND PUSH32 0xFFFFFFFF00000000000000000000000000000000000000000000000000000000 SWAP1 SWAP5 AND SWAP4 SWAP1 SWAP4 OR SWAP1 SWAP3 MSTORE SWAP1 MLOAD PUSH2 0x1616 SWAP2 SWAP1 PUSH2 0x29A2 JUMP JUMPDEST PUSH1 0x0 PUSH1 0x40 MLOAD DUP1 DUP4 SUB DUP2 DUP7 DUP7 STATICCALL SWAP3 POP POP POP RETURNDATASIZE DUP1 PUSH1 0x0 DUP2 EQ PUSH2 0x1652 JUMPI PUSH1 0x40 MLOAD SWAP2 POP PUSH1 0x1F NOT PUSH1 0x3F RETURNDATASIZE ADD AND DUP3 ADD PUSH1 0x40 MSTORE RETURNDATASIZE DUP3 MSTORE RETURNDATASIZE PUSH1 0x0 PUSH1 0x20 DUP5 ADD RETURNDATACOPY PUSH2 0x1657 JUMP JUMPDEST PUSH1 0x60 SWAP2 POP JUMPDEST POP SWAP2 POP SWAP2 POP DUP2 PUSH2 0x1682 JUMPI PUSH1 0x0 DUP5 DUP5 DUP2 MLOAD DUP2 LT PUSH2 0x166F JUMPI INVALID JUMPDEST PUSH1 0x20 MUL PUSH1 0x20 ADD ADD DUP2 DUP2 MSTORE POP POP POP POP PUSH2 0x1706 JUMP JUMPDEST PUSH2 0x168A PUSH2 0x2289 JUMP JUMPDEST PUSH1 0x0 DUP1 DUP4 DUP1 PUSH1 0x20 ADD SWAP1 MLOAD PUSH2 0x16A1 SWAP2 SWAP1 DUP2 ADD SWAP1 PUSH2 0x2822 JUMP JUMPDEST SWAP2 SWAP5 POP SWAP3 POP SWAP1 POP PUSH1 0x3 DUP4 MLOAD PUSH1 0x6 DUP2 GT ISZERO PUSH2 0x16B7 JUMPI INVALID JUMPDEST EQ ISZERO DUP1 PUSH2 0x16C2 JUMPI POP DUP1 ISZERO JUMPDEST ISZERO PUSH2 0x16E6 JUMPI PUSH1 0x0 DUP8 DUP8 DUP2 MLOAD DUP2 LT PUSH2 0x16D5 JUMPI INVALID JUMPDEST PUSH1 0x20 MUL PUSH1 0x20 ADD ADD DUP2 DUP2 MSTORE POP POP PUSH2 0x1700 JUMP JUMPDEST DUP2 DUP8 DUP8 DUP2 MLOAD DUP2 LT PUSH2 0x16F3 JUMPI INVALID JUMPDEST PUSH1 0x20 MUL PUSH1 0x20 ADD ADD DUP2 DUP2 MSTORE POP POP JUMPDEST POP POP POP POP POP JUMPDEST PUSH1 0x1 ADD PUSH2 0x1479 JUMP JUMPDEST PUSH1 0x60 PUSH1 0x0 DUP3 MLOAD SWAP1 POP DUP1 PUSH1 0x40 MLOAD SWAP1 DUP1 DUP3 MSTORE DUP1 PUSH1 0x20 MUL PUSH1 0x20 ADD DUP3 ADD PUSH1 0x40 MSTORE DUP1 ISZERO PUSH2 0x1740 JUMPI DUP2 PUSH1 0x20 ADD PUSH1 0x20 DUP3 MUL DUP1 CODESIZE DUP4 CODECOPY ADD SWAP1 POP JUMPDEST POP SWAP2 POP PUSH1 0x0 PUSH2 0x1750 DUP8 DUP8 DUP8 PUSH2 0x1B1B JUMP JUMPDEST SWAP1 POP PUSH20 0xFFFFFFFFFFFFFFFFFFFFFFFFFFFFFFFFFFFFFFFF DUP2 AND PUSH2 0x1775 JUMPI POP PUSH2 0x190B SWAP1 POP JUMP JUMPDEST PUSH1 0x0 JUMPDEST DUP3 DUP2 LT ISZERO PUSH2 0x1907 JUMPI PUSH1 0x0 PUSH1 0x60 DUP4 PUSH20 0xFFFFFFFFFFFFFFFFFFFFFFFFFFFFFFFFFFFFFFFF AND PUSH3 0x30D40 PUSH1 0x0 PUSH20 0xFFFFFFFFFFFFFFFFFFFFFFFFFFFFFFFFFFFFFFFF AND PUSH4 0x343FBCDD SWAP1 POP PUSH1 0xE0 SHL DUP12 DUP12 DUP12 DUP9 DUP2 MLOAD DUP2 LT PUSH2 0x17CF JUMPI INVALID JUMPDEST PUSH1 0x20 MUL PUSH1 0x20 ADD ADD MLOAD PUSH1 0x40 MLOAD PUSH1 0x24 ADD PUSH2 0x17E9 SWAP4 SWAP3 SWAP2 SWAP1 PUSH2 0x2A06 JUMP JUMPDEST PUSH1 0x40 DUP1 MLOAD PUSH32 0xFFFFFFFFFFFFFFFFFFFFFFFFFFFFFFFFFFFFFFFFFFFFFFFFFFFFFFFFFFFFFFE0 DUP2 DUP5 SUB ADD DUP2 MSTORE SWAP2 DUP2 MSTORE PUSH1 0x20 DUP3 ADD DUP1 MLOAD PUSH28 0xFFFFFFFFFFFFFFFFFFFFFFFFFFFFFFFFFFFFFFFFFFFFFFFFFFFFFFFF AND PUSH32 0xFFFFFFFF00000000000000000000000000000000000000000000000000000000 SWAP1 SWAP5 AND SWAP4 SWAP1 SWAP4 OR SWAP1 SWAP3 MSTORE SWAP1 MLOAD PUSH2 0x1872 SWAP2 SWAP1 PUSH2 0x29A2 JUMP JUMPDEST PUSH1 0x0 PUSH1 0x40 MLOAD DUP1 DUP4 SUB DUP2 DUP7 DUP7 STATICCALL SWAP3 POP POP POP RETURNDATASIZE DUP1 PUSH1 0x0 DUP2 EQ PUSH2 0x18AE JUMPI PUSH1 0x40 MLOAD SWAP2 POP PUSH1 0x1F NOT PUSH1 0x3F RETURNDATASIZE ADD AND DUP3 ADD PUSH1 0x40 MSTORE RETURNDATASIZE DUP3 MSTORE RETURNDATASIZE PUSH1 0x0 PUSH1 0x20 DUP5 ADD RETURNDATACOPY PUSH2 0x18B3 JUMP JUMPDEST PUSH1 0x60 SWAP2 POP JUMPDEST POP SWAP1 SWAP3 POP SWAP1 POP PUSH1 0x0 DUP3 ISZERO PUSH2 0x18DC JUMPI DUP2 DUP1 PUSH1 0x20 ADD SWAP1 MLOAD PUSH2 0x18D5 SWAP2 SWAP1 DUP2 ADD SWAP1 PUSH2 0x28E6 JUMP JUMPDEST SWAP1 POP PUSH2 0x18E4 JUMP JUMPDEST POP POP POP PUSH2 0x1907 JUMP JUMPDEST DUP1 DUP8 DUP6 DUP2 MLOAD DUP2 LT PUSH2 0x18F1 JUMPI INVALID JUMPDEST PUSH1 0x20 SWAP1 DUP2 MUL SWAP2 SWAP1 SWAP2 ADD ADD MSTORE POP POP POP PUSH1 0x1 ADD PUSH2 0x1778 JUMP JUMPDEST POP POP POP JUMPDEST SWAP5 SWAP4 POP POP POP POP JUMP JUMPDEST PUSH1 0x60 PUSH1 0x0 DUP3 MLOAD SWAP1 POP DUP1 PUSH1 0x40 MLOAD SWAP1 DUP1 DUP3 MSTORE DUP1 PUSH1 0x20 MUL PUSH1 0x20 ADD DUP3 ADD PUSH1 0x40 MSTORE DUP1 ISZERO PUSH2 0x1945 JUMPI DUP2 PUSH1 0x20 ADD PUSH1 0x20 DUP3 MUL DUP1 CODESIZE DUP4 CODECOPY ADD SWAP1 POP JUMPDEST POP SWAP2 POP PUSH1 0x0 PUSH2 0x1955 DUP8 DUP8 DUP8 PUSH2 0x1B1B JUMP JUMPDEST SWAP1 POP PUSH20 0xFFFFFFFFFFFFFFFFFFFFFFFFFFFFFFFFFFFFFFFF DUP2 AND PUSH2 0x197A JUMPI POP PUSH2 0x190B SWAP1 POP JUMP JUMPDEST PUSH1 0x0 JUMPDEST DUP3 DUP2 LT ISZERO PUSH2 0x1907 JUMPI PUSH1 0x0 PUSH1 0x60 DUP4 PUSH20 0xFFFFFFFFFFFFFFFFFFFFFFFFFFFFFFFFFFFFFFFF AND PUSH3 0x30D40 PUSH1 0x0 PUSH20 0xFFFFFFFFFFFFFFFFFFFFFFFFFFFFFFFFFFFFFFFF AND PUSH4 0x45060EB0 SWAP1 POP PUSH1 0xE0 SHL DUP12 DUP12 DUP12 DUP9 DUP2 MLOAD DUP2 LT PUSH2 0x19D4 JUMPI INVALID JUMPDEST PUSH1 0x20 MUL PUSH1 0x20 ADD ADD MLOAD PUSH1 0x40 MLOAD PUSH1 0x24 ADD PUSH2 0x19EE SWAP4 SWAP3 SWAP2 SWAP1 PUSH2 0x2A06 JUMP JUMPDEST PUSH1 0x40 DUP1 MLOAD PUSH32 0xFFFFFFFFFFFFFFFFFFFFFFFFFFFFFFFFFFFFFFFFFFFFFFFFFFFFFFFFFFFFFFE0 DUP2 DUP5 SUB ADD DUP2 MSTORE SWAP2 DUP2 MSTORE PUSH1 0x20 DUP3 ADD DUP1 MLOAD PUSH28 0xFFFFFFFFFFFFFFFFFFFFFFFFFFFFFFFFFFFFFFFFFFFFFFFFFFFFFFFF AND PUSH32 0xFFFFFFFF00000000000000000000000000000000000000000000000000000000 SWAP1 SWAP5 AND SWAP4 SWAP1 SWAP4 OR SWAP1 SWAP3 MSTORE SWAP1 MLOAD PUSH2 0x1A77 SWAP2 SWAP1 PUSH2 0x29A2 JUMP JUMPDEST PUSH1 0x0 PUSH1 0x40 MLOAD DUP1 DUP4 SUB DUP2 DUP7 DUP7 STATICCALL SWAP3 POP POP POP RETURNDATASIZE DUP1 PUSH1 0x0 DUP2 EQ PUSH2 0x1AB3 JUMPI PUSH1 0x40 MLOAD SWAP2 POP PUSH1 0x1F NOT PUSH1 0x3F RETURNDATASIZE ADD AND DUP3 ADD PUSH1 0x40 MSTORE RETURNDATASIZE DUP3 MSTORE RETURNDATASIZE PUSH1 0x0 PUSH1 0x20 DUP5 ADD RETURNDATACOPY PUSH2 0x1AB8 JUMP JUMPDEST PUSH1 0x60 SWAP2 POP JUMPDEST POP SWAP1 SWAP3 POP SWAP1 POP PUSH1 0x0 DUP3 ISZERO PUSH2 0x18DC JUMPI DUP2 DUP1 PUSH1 0x20 ADD SWAP1 MLOAD PUSH2 0x1ADA SWAP2 SWAP1 DUP2 ADD SWAP1 PUSH2 0x28E6 JUMP JUMPDEST SWAP1 POP DUP1 DUP8 DUP6 DUP2 MLOAD DUP2 LT PUSH2 0x1AE9 JUMPI INVALID JUMPDEST PUSH1 0x20 SWAP1 DUP2 MUL SWAP2 SWAP1 SWAP2 ADD ADD MSTORE POP POP POP PUSH1 0x1 ADD PUSH2 0x197D JUMP JUMPDEST PUSH1 0x2 SLOAD PUSH20 0xFFFFFFFFFFFFFFFFFFFFFFFFFFFFFFFFFFFFFFFF AND DUP2 JUMP JUMPDEST PUSH1 0x40 MLOAD PUSH1 0x0 SWAP1 PUSH1 0x60 SWAP1 PUSH32 0x153F599700000000000000000000000000000000000000000000000000000000 SWAP1 PUSH2 0x1B56 SWAP1 DUP7 SWAP1 DUP7 SWAP1 PUSH1 0x24 ADD PUSH2 0x29DF JUMP JUMPDEST PUSH1 0x40 MLOAD PUSH1 0x20 DUP2 DUP4 SUB SUB DUP2 MSTORE SWAP1 PUSH1 0x40 MSTORE SWAP1 PUSH28 0xFFFFFFFFFFFFFFFFFFFFFFFFFFFFFFFFFFFFFFFFFFFFFFFFFFFFFFFF NOT AND PUSH1 0x20 DUP3 ADD DUP1 MLOAD PUSH28 0xFFFFFFFFFFFFFFFFFFFFFFFFFFFFFFFFFFFFFFFFFFFFFFFFFFFFFFFF DUP4 DUP2 DUP4 AND OR DUP4 MSTORE POP POP POP POP SWAP1 POP PUSH1 0x0 PUSH1 0x60 DUP7 PUSH20 0xFFFFFFFFFFFFFFFFFFFFFFFFFFFFFFFFFFFFFFFF AND DUP4 PUSH1 0x40 MLOAD PUSH2 0x1BDE SWAP2 SWAP1 PUSH2 0x29A2 JUMP JUMPDEST PUSH1 0x0 PUSH1 0x40 MLOAD DUP1 DUP4 SUB DUP2 DUP6 GAS STATICCALL SWAP2 POP POP RETURNDATASIZE DUP1 PUSH1 0x0 DUP2 EQ PUSH2 0x1C19 JUMPI PUSH1 0x40 MLOAD SWAP2 POP PUSH1 0x1F NOT PUSH1 0x3F RETURNDATASIZE ADD AND DUP3 ADD PUSH1 0x40 MSTORE RETURNDATASIZE DUP3 MSTORE RETURNDATASIZE PUSH1 0x0 PUSH1 0x20 DUP5 ADD RETURNDATACOPY PUSH2 0x1C1E JUMP JUMPDEST PUSH1 0x60 SWAP2 POP JUMPDEST POP SWAP2 POP SWAP2 POP DUP2 DUP1 ISZERO PUSH2 0x1C31 JUMPI POP DUP1 MLOAD PUSH1 0x20 EQ JUMPDEST ISZERO PUSH2 0x1C4B JUMPI PUSH2 0x1C41 DUP2 PUSH1 0xC PUSH2 0x202A JUMP JUMPDEST SWAP4 POP POP POP POP PUSH2 0x1C4F JUMP JUMPDEST POP POP POP JUMPDEST SWAP4 SWAP3 POP POP POP JUMP JUMPDEST PUSH20 0xE9DB8717BC5DFB20AAF538B4A5A02B7791FF430C DUP2 JUMP JUMPDEST PUSH2 0x1C76 PUSH2 0x2289 JUMP JUMPDEST PUSH1 0x0 DUP1 PUSH1 0x0 DUP6 PUSH2 0x120 ADD MLOAD PUSH1 0x40 MLOAD PUSH1 0x20 ADD PUSH2 0x1C91 SWAP2 SWAP1 PUSH2 0x2D90 JUMP JUMPDEST PUSH1 0x40 DUP1 MLOAD PUSH32 0xFFFFFFFFFFFFFFFFFFFFFFFFFFFFFFFFFFFFFFFFFFFFFFFFFFFFFFFFFFFFFFE0 DUP2 DUP5 SUB ADD DUP2 MSTORE SWAP2 SWAP1 MSTORE DUP1 MLOAD PUSH1 0x20 SWAP2 DUP3 ADD KECCAK256 SWAP1 DUP6 ADD DUP2 SWAP1 MSTORE SWAP1 POP PUSH1 0x5A PUSH1 0x64 DUP3 MOD GT ISZERO PUSH2 0x1CE4 JUMPI PUSH1 0x5 DUP5 MSTORE PUSH2 0x1CE9 JUMP JUMPDEST PUSH1 0x3 DUP5 MSTORE JUMPDEST PUSH1 0xA0 DUP7 ADD MLOAD DUP2 DUP2 PUSH2 0x1CF6 JUMPI INVALID JUMPDEST MOD PUSH1 0x40 DUP6 ADD DUP2 SWAP1 MSTORE PUSH1 0xA0 DUP8 ADD MLOAD SUB SWAP3 POP PUSH1 0x2 DUP2 MOD PUSH1 0x1 EQ SWAP2 POP POP SWAP3 POP SWAP3 POP SWAP3 JUMP JUMPDEST PUSH1 0x1 SLOAD PUSH20 0xFFFFFFFFFFFFFFFFFFFFFFFFFFFFFFFFFFFFFFFF AND DUP2 JUMP JUMPDEST DUP1 PUSH20 0xFFFFFFFFFFFFFFFFFFFFFFFFFFFFFFFFFFFFFFFF AND DUP3 PUSH20 0xFFFFFFFFFFFFFFFFFFFFFFFFFFFFFFFFFFFFFFFF AND EQ ISZERO PUSH2 0x1DA2 JUMPI PUSH1 0x40 MLOAD PUSH32 0x8C379A000000000000000000000000000000000000000000000000000000000 DUP2 MSTORE PUSH1 0x4 ADD PUSH2 0x1D99 SWAP1 PUSH2 0x2BA0 JUMP JUMPDEST PUSH1 0x40 MLOAD DUP1 SWAP2 SUB SWAP1 REVERT JUMPDEST POP POP JUMP JUMPDEST PUSH1 0x1 SLOAD PUSH20 0xFFFFFFFFFFFFFFFFFFFFFFFFFFFFFFFFFFFFFFFF AND SWAP1 JUMP JUMPDEST PUSH20 0xC02AAA39B223FE8D0A0E5C4F27EAD9083C756CC2 SWAP1 JUMP JUMPDEST PUSH1 0x0 PUSH2 0x1DE5 DUP3 PUSH2 0x2079 JUMP JUMPDEST SWAP1 POP JUMPDEST SWAP2 SWAP1 POP JUMP JUMPDEST PUSH1 0x2 SLOAD PUSH20 0xFFFFFFFFFFFFFFFFFFFFFFFFFFFFFFFFFFFFFFFF AND SWAP1 JUMP JUMPDEST PUSH1 0x0 PUSH2 0x190B DUP4 PUSH2 0x1E3F PUSH2 0x1E23 DUP3 PUSH1 0x1 PUSH4 0xFFFFFFFF PUSH2 0x210B AND JUMP JUMPDEST PUSH2 0x1E33 DUP9 DUP8 PUSH4 0xFFFFFFFF PUSH2 0x212A AND JUMP JUMPDEST SWAP1 PUSH4 0xFFFFFFFF PUSH2 0x215B AND JUMP JUMPDEST SWAP1 PUSH4 0xFFFFFFFF PUSH2 0x2177 AND JUMP JUMPDEST PUSH1 0x0 PUSH2 0x1E55 PUSH2 0x21A1 JUMP JUMPDEST PUSH20 0xFFFFFFFFFFFFFFFFFFFFFFFFFFFFFFFFFFFFFFFF AND PUSH4 0x6F2BF62 DUP4 PUSH1 0x40 MLOAD DUP3 PUSH4 0xFFFFFFFF AND PUSH1 0xE0 SHL DUP2 MSTORE PUSH1 0x4 ADD PUSH2 0x1E8D SWAP2 SWAP1 PUSH2 0x29BE JUMP JUMPDEST PUSH1 0x20 PUSH1 0x40 MLOAD DUP1 DUP4 SUB DUP2 DUP7 DUP1 EXTCODESIZE ISZERO DUP1 ISZERO PUSH2 0x1EA5 JUMPI PUSH1 0x0 DUP1 REVERT JUMPDEST POP GAS STATICCALL ISZERO DUP1 ISZERO PUSH2 0x1EB9 JUMPI RETURNDATASIZE PUSH1 0x0 DUP1 RETURNDATACOPY RETURNDATASIZE PUSH1 0x0 REVERT JUMPDEST POP POP POP POP PUSH1 0x40 MLOAD RETURNDATASIZE PUSH1 0x1F NOT PUSH1 0x1F DUP3 ADD AND DUP3 ADD DUP1 PUSH1 0x40 MSTORE POP PUSH2 0x1DE5 SWAP2 SWAP1 DUP2 ADD SWAP1 PUSH2 0x25BA JUMP JUMPDEST PUSH1 0x0 DUP1 PUSH20 0xFFFFFFFFFFFFFFFFFFFFFFFFFFFFFFFFFFFFFFFF DUP6 AND PUSH2 0x1F00 JUMPI PUSH2 0x201E JUMP JUMPDEST PUSH1 0x60 DUP6 PUSH20 0xFFFFFFFFFFFFFFFFFFFFFFFFFFFFFFFFFFFFFFFF AND PUSH3 0x249F0 DUP7 DUP7 PUSH1 0x40 MLOAD PUSH1 0x24 ADD PUSH2 0x1F2F SWAP2 SWAP1 PUSH2 0x2D90 JUMP JUMPDEST PUSH1 0x40 DUP1 MLOAD PUSH32 0xFFFFFFFFFFFFFFFFFFFFFFFFFFFFFFFFFFFFFFFFFFFFFFFFFFFFFFFFFFFFFFE0 DUP2 DUP5 SUB ADD DUP2 MSTORE SWAP2 DUP2 MSTORE PUSH1 0x20 DUP3 ADD DUP1 MLOAD PUSH28 0xFFFFFFFFFFFFFFFFFFFFFFFFFFFFFFFFFFFFFFFFFFFFFFFFFFFFFFFF AND PUSH32 0xFFFFFFFF00000000000000000000000000000000000000000000000000000000 SWAP1 SWAP5 AND SWAP4 SWAP1 SWAP4 OR SWAP1 SWAP3 MSTORE SWAP1 MLOAD PUSH2 0x1FB8 SWAP2 SWAP1 PUSH2 0x29A2 JUMP JUMPDEST PUSH1 0x0 PUSH1 0x40 MLOAD DUP1 DUP4 SUB DUP2 DUP7 DUP7 STATICCALL SWAP3 POP POP POP RETURNDATASIZE DUP1 PUSH1 0x0 DUP2 EQ PUSH2 0x1FF4 JUMPI PUSH1 0x40 MLOAD SWAP2 POP PUSH1 0x1F NOT PUSH1 0x3F RETURNDATASIZE ADD AND DUP3 ADD PUSH1 0x40 MSTORE RETURNDATASIZE DUP3 MSTORE RETURNDATASIZE PUSH1 0x0 PUSH1 0x20 DUP5 ADD RETURNDATACOPY PUSH2 0x1FF9 JUMP JUMPDEST PUSH1 0x60 SWAP2 POP JUMPDEST POP SWAP1 SWAP3 POP SWAP1 POP DUP2 ISZERO PUSH2 0x201C JUMPI DUP1 DUP1 PUSH1 0x20 ADD SWAP1 MLOAD PUSH2 0x2019 SWAP2 SWAP1 DUP2 ADD SWAP1 PUSH2 0x28E6 JUMP JUMPDEST SWAP3 POP JUMPDEST POP JUMPDEST SWAP4 POP SWAP4 SWAP2 POP POP JUMP JUMPDEST ADDRESS SWAP1 JUMP JUMPDEST PUSH1 0x0 DUP2 PUSH1 0x14 ADD DUP4 MLOAD LT ISZERO PUSH2 0x2050 JUMPI PUSH2 0x2050 PUSH2 0x204B PUSH1 0x4 DUP6 MLOAD DUP6 PUSH1 0x14 ADD PUSH2 0x21BD JUMP JUMPDEST PUSH2 0x2262 JUMP JUMPDEST POP PUSH1 0x14 DUP2 DUP4 ADD DUP2 ADD MLOAD SWAP2 ADD SWAP1 PUSH20 0xFFFFFFFFFFFFFFFFFFFFFFFFFFFFFFFFFFFFFFFF AND JUMPDEST SWAP3 SWAP2 POP POP JUMP JUMPDEST PUSH1 0x0 PUSH20 0xFFFFFFFFFFFFFFFFFFFFFFFFFFFFFFFFFFFFFFFF DUP3 AND PUSH20 0xC02AAA39B223FE8D0A0E5C4F27EAD9083C756CC2 EQ ISZERO PUSH2 0x20B5 JUMPI POP PUSH1 0x12 PUSH2 0x1DE8 JUMP JUMPDEST PUSH1 0x0 DUP3 PUSH1 0x40 MLOAD PUSH1 0x20 ADD PUSH2 0x20C8 SWAP2 SWAP1 PUSH2 0x2962 JUMP JUMPDEST PUSH1 0x40 DUP1 MLOAD DUP1 DUP4 SUB PUSH32 0xFFFFFFFFFFFFFFFFFFFFFFFFFFFFFFFFFFFFFFFFFFFFFFFFFFFFFFFFFFFFFFE0 ADD DUP2 MSTORE SWAP2 SWAP1 MSTORE DUP1 MLOAD PUSH1 0x20 SWAP1 SWAP2 ADD KECCAK256 PUSH1 0xF AND PUSH1 0x4 ADD SWAP4 SWAP3 POP POP POP JUMP JUMPDEST PUSH1 0x0 DUP3 DUP3 GT ISZERO PUSH2 0x2124 JUMPI PUSH2 0x2124 PUSH2 0x204B PUSH1 0x2 DUP6 DUP6 PUSH2 0x226A JUMP JUMPDEST POP SWAP1 SUB SWAP1 JUMP JUMPDEST PUSH1 0x0 DUP3 PUSH2 0x2139 JUMPI POP PUSH1 0x0 PUSH2 0x2073 JUMP JUMPDEST DUP3 DUP3 MUL DUP3 DUP5 DUP3 DUP2 PUSH2 0x2146 JUMPI INVALID JUMPDEST DIV EQ PUSH2 0x1C4F JUMPI PUSH2 0x1C4F PUSH2 0x204B PUSH1 0x1 DUP7 DUP7 PUSH2 0x226A JUMP JUMPDEST PUSH1 0x0 DUP3 DUP3 ADD DUP4 DUP2 LT ISZERO PUSH2 0x1C4F JUMPI PUSH2 0x1C4F PUSH2 0x204B PUSH1 0x0 DUP7 DUP7 PUSH2 0x226A JUMP JUMPDEST PUSH1 0x0 DUP2 PUSH2 0x218D JUMPI PUSH2 0x218D PUSH2 0x204B PUSH1 0x3 DUP6 DUP6 PUSH2 0x226A JUMP JUMPDEST PUSH1 0x0 DUP3 DUP5 DUP2 PUSH2 0x2198 JUMPI INVALID JUMPDEST DIV SWAP5 SWAP4 POP POP POP POP JUMP JUMPDEST PUSH1 0x0 SLOAD PUSH20 0xFFFFFFFFFFFFFFFFFFFFFFFFFFFFFFFFFFFFFFFF AND SWAP1 JUMP JUMPDEST PUSH1 0x60 PUSH4 0x28006595 PUSH1 0xE0 SHL DUP5 DUP5 DUP5 PUSH1 0x40 MLOAD PUSH1 0x24 ADD PUSH2 0x21DC SWAP4 SWAP3 SWAP2 SWAP1 PUSH2 0x2B74 JUMP JUMPDEST PUSH1 0x40 DUP1 MLOAD PUSH32 0xFFFFFFFFFFFFFFFFFFFFFFFFFFFFFFFFFFFFFFFFFFFFFFFFFFFFFFFFFFFFFFE0 DUP2 DUP5 SUB ADD DUP2 MSTORE SWAP2 SWAP1 MSTORE PUSH1 0x20 DUP2 ADD DUP1 MLOAD PUSH28 0xFFFFFFFFFFFFFFFFFFFFFFFFFFFFFFFFFFFFFFFFFFFFFFFFFFFFFFFF AND PUSH32 0xFFFFFFFF00000000000000000000000000000000000000000000000000000000 SWAP1 SWAP4 AND SWAP3 SWAP1 SWAP3 OR SWAP1 SWAP2 MSTORE SWAP1 POP SWAP4 SWAP3 POP POP POP JUMP JUMPDEST DUP1 MLOAD PUSH1 0x20 DUP3 ADD REVERT JUMPDEST PUSH1 0x60 PUSH4 0xE946C1BB PUSH1 0xE0 SHL DUP5 DUP5 DUP5 PUSH1 0x40 MLOAD PUSH1 0x24 ADD PUSH2 0x21DC SWAP4 SWAP3 SWAP2 SWAP1 PUSH2 0x2B52 JUMP JUMPDEST PUSH1 0x40 DUP1 MLOAD PUSH1 0x60 DUP2 ADD SWAP1 SWAP2 MSTORE DUP1 PUSH1 0x0 DUP2 MSTORE PUSH1 0x0 PUSH1 0x20 DUP3 ADD DUP2 SWAP1 MSTORE PUSH1 0x40 SWAP1 SWAP2 ADD MSTORE SWAP1 JUMP JUMPDEST DUP1 CALLDATALOAD PUSH2 0x2073 DUP2 PUSH2 0x2E10 JUMP JUMPDEST PUSH1 0x0 DUP1 DUP4 PUSH1 0x1F DUP5 ADD SLT PUSH2 0x22C7 JUMPI DUP2 DUP3 REVERT JUMPDEST POP DUP2 CALLDATALOAD PUSH8 0xFFFFFFFFFFFFFFFF DUP2 GT ISZERO PUSH2 0x22DE JUMPI DUP2 DUP3 REVERT JUMPDEST PUSH1 0x20 DUP4 ADD SWAP2 POP DUP4 PUSH1 0x20 DUP1 DUP4 MUL DUP6 ADD ADD GT ISZERO PUSH2 0x22F8 JUMPI PUSH1 0x0 DUP1 REVERT JUMPDEST SWAP3 POP SWAP3 SWAP1 POP JUMP JUMPDEST PUSH1 0x0 DUP3 PUSH1 0x1F DUP4 ADD SLT PUSH2 0x230F JUMPI DUP1 DUP2 REVERT JUMPDEST DUP2 CALLDATALOAD PUSH2 0x2322 PUSH2 0x231D DUP3 PUSH2 0x2DC0 JUMP JUMPDEST PUSH2 0x2D99 JUMP JUMPDEST DUP2 DUP2 MSTORE SWAP2 POP PUSH1 0x20 DUP1 DUP4 ADD SWAP1 DUP5 ADD PUSH1 0x0 JUMPDEST DUP4 DUP2 LT ISZERO PUSH2 0x235F JUMPI PUSH2 0x234A DUP8 PUSH1 0x20 DUP5 CALLDATALOAD DUP10 ADD ADD PUSH2 0x23D2 JUMP JUMPDEST DUP4 MSTORE PUSH1 0x20 SWAP3 DUP4 ADD SWAP3 SWAP2 SWAP1 SWAP2 ADD SWAP1 PUSH1 0x1 ADD PUSH2 0x2332 JUMP JUMPDEST POP POP POP POP SWAP3 SWAP2 POP POP JUMP JUMPDEST PUSH1 0x0 DUP3 PUSH1 0x1F DUP4 ADD SLT PUSH2 0x2379 JUMPI DUP1 DUP2 REVERT JUMPDEST DUP2 CALLDATALOAD PUSH2 0x2387 PUSH2 0x231D DUP3 PUSH2 0x2DC0 JUMP JUMPDEST DUP2 DUP2 MSTORE SWAP2 POP PUSH1 0x20 DUP1 DUP4 ADD SWAP1 DUP5 DUP2 ADD DUP2 DUP5 MUL DUP7 ADD DUP3 ADD DUP8 LT ISZERO PUSH2 0x23A8 JUMPI PUSH1 0x0 DUP1 REVERT JUMPDEST PUSH1 0x0 JUMPDEST DUP5 DUP2 LT ISZERO PUSH2 0x23C7 JUMPI DUP2 CALLDATALOAD DUP5 MSTORE SWAP3 DUP3 ADD SWAP3 SWAP1 DUP3 ADD SWAP1 PUSH1 0x1 ADD PUSH2 0x23AB JUMP JUMPDEST POP POP POP POP POP SWAP3 SWAP2 POP POP JUMP JUMPDEST PUSH1 0x0 DUP3 PUSH1 0x1F DUP4 ADD SLT PUSH2 0x23E2 JUMPI DUP1 DUP2 REVERT JUMPDEST DUP2 CALLDATALOAD PUSH8 0xFFFFFFFFFFFFFFFF DUP2 GT ISZERO PUSH2 0x23F8 JUMPI DUP2 DUP3 REVERT JUMPDEST PUSH2 0x2429 PUSH1 0x20 PUSH32 0xFFFFFFFFFFFFFFFFFFFFFFFFFFFFFFFFFFFFFFFFFFFFFFFFFFFFFFFFFFFFFFE0 PUSH1 0x1F DUP5 ADD AND ADD PUSH2 0x2D99 JUMP JUMPDEST SWAP2 POP DUP1 DUP3 MSTORE DUP4 PUSH1 0x20 DUP3 DUP6 ADD ADD GT ISZERO PUSH2 0x2440 JUMPI PUSH1 0x0 DUP1 REVERT JUMPDEST DUP1 PUSH1 0x20 DUP5 ADD PUSH1 0x20 DUP5 ADD CALLDATACOPY PUSH1 0x0 SWAP1 DUP3 ADD PUSH1 0x20 ADD MSTORE SWAP3 SWAP2 POP POP JUMP JUMPDEST DUP1 CALLDATALOAD PUSH1 0xF DUP2 SWAP1 SIGNEXTEND DUP2 EQ PUSH2 0x2073 JUMPI PUSH1 0x0 DUP1 REVERT JUMPDEST PUSH1 0x0 PUSH2 0x1C0 DUP1 DUP4 DUP6 SUB SLT ISZERO PUSH2 0x247E JUMPI DUP2 DUP3 REVERT JUMPDEST PUSH2 0x2487 DUP2 PUSH2 0x2D99 JUMP JUMPDEST SWAP2 POP POP PUSH2 0x2494 DUP4 DUP4 PUSH2 0x22AB JUMP JUMPDEST DUP2 MSTORE PUSH2 0x24A3 DUP4 PUSH1 0x20 DUP5 ADD PUSH2 0x22AB JUMP JUMPDEST PUSH1 0x20 DUP3 ADD MSTORE PUSH2 0x24B5 DUP4 PUSH1 0x40 DUP5 ADD PUSH2 0x22AB JUMP JUMPDEST PUSH1 0x40 DUP3 ADD MSTORE PUSH2 0x24C7 DUP4 PUSH1 0x60 DUP5 ADD PUSH2 0x22AB JUMP JUMPDEST PUSH1 0x60 DUP3 ADD MSTORE PUSH1 0x80 DUP3 ADD CALLDATALOAD PUSH1 0x80 DUP3 ADD MSTORE PUSH1 0xA0 DUP3 ADD CALLDATALOAD PUSH1 0xA0 DUP3 ADD MSTORE PUSH1 0xC0 DUP3 ADD CALLDATALOAD PUSH1 0xC0 DUP3 ADD MSTORE PUSH1 0xE0 DUP3 ADD CALLDATALOAD PUSH1 0xE0 DUP3 ADD MSTORE PUSH2 0x100 DUP1 DUP4 ADD CALLDATALOAD DUP2 DUP4 ADD MSTORE POP PUSH2 0x120 DUP1 DUP4 ADD CALLDATALOAD DUP2 DUP4 ADD MSTORE POP PUSH2 0x140 DUP1 DUP4 ADD CALLDATALOAD PUSH8 0xFFFFFFFFFFFFFFFF DUP1 DUP3 GT ISZERO PUSH2 0x2529 JUMPI PUSH1 0x0 DUP1 REVERT JUMPDEST PUSH2 0x2535 DUP7 DUP4 DUP8 ADD PUSH2 0x23D2 JUMP JUMPDEST DUP4 DUP6 ADD MSTORE PUSH2 0x160 SWAP3 POP DUP3 DUP6 ADD CALLDATALOAD SWAP2 POP DUP1 DUP3 GT ISZERO PUSH2 0x2551 JUMPI PUSH1 0x0 DUP1 REVERT JUMPDEST PUSH2 0x255D DUP7 DUP4 DUP8 ADD PUSH2 0x23D2 JUMP JUMPDEST DUP4 DUP6 ADD MSTORE PUSH2 0x180 SWAP3 POP DUP3 DUP6 ADD CALLDATALOAD SWAP2 POP DUP1 DUP3 GT ISZERO PUSH2 0x2579 JUMPI PUSH1 0x0 DUP1 REVERT JUMPDEST PUSH2 0x2585 DUP7 DUP4 DUP8 ADD PUSH2 0x23D2 JUMP JUMPDEST DUP4 DUP6 ADD MSTORE PUSH2 0x1A0 SWAP3 POP DUP3 DUP6 ADD CALLDATALOAD SWAP2 POP DUP1 DUP3 GT ISZERO PUSH2 0x25A1 JUMPI PUSH1 0x0 DUP1 REVERT JUMPDEST POP PUSH2 0x25AE DUP6 DUP3 DUP7 ADD PUSH2 0x23D2 JUMP JUMPDEST DUP3 DUP5 ADD MSTORE POP POP SWAP3 SWAP2 POP POP JUMP JUMPDEST PUSH1 0x0 PUSH1 0x20 DUP3 DUP5 SUB SLT ISZERO PUSH2 0x25CB JUMPI DUP1 DUP2 REVERT JUMPDEST DUP2 MLOAD PUSH2 0x1C4F DUP2 PUSH2 0x2E10 JUMP JUMPDEST PUSH1 0x0 DUP1 PUSH1 0x0 PUSH1 0x60 DUP5 DUP7 SUB SLT ISZERO PUSH2 0x25EA JUMPI DUP2 DUP3 REVERT JUMPDEST DUP4 CALLDATALOAD PUSH2 0x25F5 DUP2 PUSH2 0x2E10 JUMP JUMPDEST SWAP3 POP PUSH1 0x20 DUP5 ADD CALLDATALOAD PUSH2 0x2605 DUP2 PUSH2 0x2E10 JUMP JUMPDEST SWAP2 POP PUSH1 0x40 DUP5 ADD CALLDATALOAD PUSH2 0x2615 DUP2 PUSH2 0x2E10 JUMP JUMPDEST DUP1 SWAP2 POP POP SWAP3 POP SWAP3 POP SWAP3 JUMP JUMPDEST PUSH1 0x0 DUP1 PUSH1 0x0 DUP1 PUSH1 0x80 DUP6 DUP8 SUB SLT ISZERO PUSH2 0x2635 JUMPI DUP2 DUP3 REVERT JUMPDEST DUP5 CALLDATALOAD PUSH2 0x2640 DUP2 PUSH2 0x2E10 JUMP JUMPDEST SWAP4 POP PUSH1 0x20 DUP6 ADD CALLDATALOAD PUSH2 0x2650 DUP2 PUSH2 0x2E10 JUMP JUMPDEST SWAP3 POP PUSH1 0x40 DUP6 ADD CALLDATALOAD PUSH2 0x2660 DUP2 PUSH2 0x2E10 JUMP JUMPDEST SWAP2 POP PUSH1 0x60 DUP6 ADD CALLDATALOAD PUSH8 0xFFFFFFFFFFFFFFFF DUP2 GT ISZERO PUSH2 0x267B JUMPI DUP2 DUP3 REVERT JUMPDEST PUSH2 0x2687 DUP8 DUP3 DUP9 ADD PUSH2 0x2369 JUMP JUMPDEST SWAP2 POP POP SWAP3 SWAP6 SWAP2 SWAP5 POP SWAP3 POP JUMP JUMPDEST PUSH1 0x0 DUP1 PUSH1 0x0 PUSH1 0x60 DUP5 DUP7 SUB SLT ISZERO PUSH2 0x26A7 JUMPI DUP1 DUP2 REVERT JUMPDEST DUP4 CALLDATALOAD PUSH2 0x26B2 DUP2 PUSH2 0x2E10 JUMP JUMPDEST SWAP3 POP PUSH1 0x20 DUP5 ADD CALLDATALOAD PUSH2 0x26C2 DUP2 PUSH2 0x2E10 JUMP JUMPDEST SWAP2 POP PUSH1 0x40 DUP5 ADD CALLDATALOAD PUSH8 0xFFFFFFFFFFFFFFFF DUP2 GT ISZERO PUSH2 0x26DD JUMPI DUP2 DUP3 REVERT JUMPDEST PUSH2 0x26E9 DUP7 DUP3 DUP8 ADD PUSH2 0x2369 JUMP JUMPDEST SWAP2 POP POP SWAP3 POP SWAP3 POP SWAP3 JUMP JUMPDEST PUSH1 0x0 DUP1 PUSH1 0x0 DUP1 PUSH1 0x80 DUP6 DUP8 SUB SLT ISZERO PUSH2 0x2708 JUMPI DUP2 DUP3 REVERT JUMPDEST DUP5 CALLDATALOAD PUSH2 0x2713 DUP2 PUSH2 0x2E10 JUMP JUMPDEST SWAP4 POP PUSH2 0x2722 DUP7 PUSH1 0x20 DUP8 ADD PUSH2 0x2459 JUMP JUMPDEST SWAP3 POP PUSH2 0x2660 DUP7 PUSH1 0x40 DUP8 ADD PUSH2 0x2459 JUMP JUMPDEST PUSH1 0x0 DUP1 PUSH1 0x20 DUP4 DUP6 SUB SLT ISZERO PUSH2 0x2743 JUMPI DUP2 DUP3 REVERT JUMPDEST DUP3 CALLDATALOAD PUSH8 0xFFFFFFFFFFFFFFFF DUP2 GT ISZERO PUSH2 0x2759 JUMPI DUP3 DUP4 REVERT JUMPDEST PUSH2 0x2765 DUP6 DUP3 DUP7 ADD PUSH2 0x22B6 JUMP JUMPDEST SWAP1 SWAP7 SWAP1 SWAP6 POP SWAP4 POP POP POP POP JUMP JUMPDEST PUSH1 0x0 DUP1 PUSH1 0x40 DUP4 DUP6 SUB SLT ISZERO PUSH2 0x2783 JUMPI DUP2 DUP3 REVERT JUMPDEST DUP3 CALLDATALOAD PUSH8 0xFFFFFFFFFFFFFFFF DUP1 DUP3 GT ISZERO PUSH2 0x279A JUMPI DUP4 DUP5 REVERT JUMPDEST DUP2 DUP6 ADD DUP7 PUSH1 0x1F DUP3 ADD SLT PUSH2 0x27AB JUMPI DUP5 DUP6 REVERT JUMPDEST DUP1 CALLDATALOAD SWAP3 POP PUSH2 0x27BB PUSH2 0x231D DUP5 PUSH2 0x2DC0 JUMP JUMPDEST DUP4 DUP2 MSTORE PUSH1 0x20 DUP1 DUP3 ADD SWAP2 SWAP1 DUP4 DUP2 ADD DUP9 JUMPDEST DUP8 DUP2 LT ISZERO PUSH2 0x27F3 JUMPI PUSH2 0x27E1 DUP13 DUP5 DUP5 CALLDATALOAD DUP10 ADD ADD PUSH2 0x246B JUMP JUMPDEST DUP6 MSTORE SWAP4 DUP3 ADD SWAP4 SWAP1 DUP3 ADD SWAP1 PUSH1 0x1 ADD PUSH2 0x27CA JUMP JUMPDEST POP SWAP2 SWAP8 POP DUP9 ADD CALLDATALOAD SWAP5 POP POP POP POP DUP1 DUP3 GT ISZERO PUSH2 0x280B JUMPI DUP3 DUP4 REVERT JUMPDEST POP PUSH2 0x2818 DUP6 DUP3 DUP7 ADD PUSH2 0x22FF JUMP JUMPDEST SWAP2 POP POP SWAP3 POP SWAP3 SWAP1 POP JUMP JUMPDEST PUSH1 0x0 DUP1 PUSH1 0x0 DUP4 DUP6 SUB PUSH1 0xA0 DUP2 SLT ISZERO PUSH2 0x2837 JUMPI DUP2 DUP3 REVERT JUMPDEST PUSH1 0x60 DUP2 SLT ISZERO PUSH2 0x2844 JUMPI DUP2 DUP3 REVERT JUMPDEST POP PUSH2 0x284F PUSH1 0x60 PUSH2 0x2D99 JUMP JUMPDEST DUP5 MLOAD PUSH1 0x7 DUP2 LT PUSH2 0x285D JUMPI DUP3 DUP4 REVERT JUMPDEST DUP2 MSTORE PUSH1 0x20 DUP6 DUP2 ADD MLOAD SWAP1 DUP3 ADD MSTORE PUSH1 0x40 DUP1 DUP7 ADD MLOAD SWAP1 DUP3 ADD MSTORE PUSH1 0x60 DUP6 ADD MLOAD PUSH1 0x80 DUP7 ADD MLOAD SWAP2 SWAP5 POP SWAP3 POP DUP1 ISZERO ISZERO DUP2 EQ PUSH2 0x2615 JUMPI DUP2 DUP3 REVERT JUMPDEST PUSH1 0x0 DUP1 PUSH1 0x40 DUP4 DUP6 SUB SLT ISZERO PUSH2 0x28A1 JUMPI DUP2 DUP3 REVERT JUMPDEST DUP3 CALLDATALOAD PUSH8 0xFFFFFFFFFFFFFFFF DUP1 DUP3 GT ISZERO PUSH2 0x28B8 JUMPI DUP4 DUP5 REVERT JUMPDEST PUSH2 0x28C4 DUP7 DUP4 DUP8 ADD PUSH2 0x246B JUMP JUMPDEST SWAP4 POP PUSH1 0x20 DUP6 ADD CALLDATALOAD SWAP2 POP DUP1 DUP3 GT ISZERO PUSH2 0x28D9 JUMPI DUP3 DUP4 REVERT JUMPDEST POP PUSH2 0x2818 DUP6 DUP3 DUP7 ADD PUSH2 0x23D2 JUMP JUMPDEST PUSH1 0x0 PUSH1 0x20 DUP3 DUP5 SUB SLT ISZERO PUSH2 0x28F7 JUMPI DUP1 DUP2 REVERT JUMPDEST POP MLOAD SWAP2 SWAP1 POP JUMP JUMPDEST PUSH20 0xFFFFFFFFFFFFFFFFFFFFFFFFFFFFFFFFFFFFFFFF AND SWAP1 MSTORE JUMP JUMPDEST PUSH1 0x0 DUP2 MLOAD DUP1 DUP5 MSTORE PUSH2 0x2930 DUP2 PUSH1 0x20 DUP7 ADD PUSH1 0x20 DUP7 ADD PUSH2 0x2DE0 JUMP JUMPDEST PUSH1 0x1F ADD PUSH32 0xFFFFFFFFFFFFFFFFFFFFFFFFFFFFFFFFFFFFFFFFFFFFFFFFFFFFFFFFFFFFFFE0 AND SWAP3 SWAP1 SWAP3 ADD PUSH1 0x20 ADD SWAP3 SWAP2 POP POP JUMP JUMPDEST PUSH1 0x60 SWAP2 SWAP1 SWAP2 SHL PUSH32 0xFFFFFFFFFFFFFFFFFFFFFFFFFFFFFFFFFFFFFFFF000000000000000000000000 AND DUP2 MSTORE PUSH1 0x14 ADD SWAP1 JUMP JUMPDEST PUSH1 0x0 DUP3 DUP5 DUP4 CALLDATACOPY SWAP2 ADD SWAP1 DUP2 MSTORE SWAP2 SWAP1 POP JUMP JUMPDEST PUSH1 0x0 DUP3 MLOAD PUSH2 0x29B4 DUP2 DUP5 PUSH1 0x20 DUP8 ADD PUSH2 0x2DE0 JUMP JUMPDEST SWAP2 SWAP1 SWAP2 ADD SWAP3 SWAP2 POP POP JUMP JUMPDEST PUSH20 0xFFFFFFFFFFFFFFFFFFFFFFFFFFFFFFFFFFFFFFFF SWAP2 SWAP1 SWAP2 AND DUP2 MSTORE PUSH1 0x20 ADD SWAP1 JUMP JUMPDEST PUSH20 0xFFFFFFFFFFFFFFFFFFFFFFFFFFFFFFFFFFFFFFFF SWAP3 DUP4 AND DUP2 MSTORE SWAP2 AND PUSH1 0x20 DUP3 ADD MSTORE PUSH1 0x40 ADD SWAP1 JUMP JUMPDEST PUSH20 0xFFFFFFFFFFFFFFFFFFFFFFFFFFFFFFFFFFFFFFFF SWAP4 DUP5 AND DUP2 MSTORE SWAP2 SWAP1 SWAP3 AND PUSH1 0x20 DUP3 ADD MSTORE PUSH1 0x40 DUP2 ADD SWAP2 SWAP1 SWAP2 MSTORE PUSH1 0x60 ADD SWAP1 JUMP JUMPDEST PUSH1 0x20 DUP1 DUP3 MSTORE DUP2 ADD DUP3 SWAP1 MSTORE PUSH1 0x0 DUP4 PUSH1 0x40 DUP4 ADD DUP3 JUMPDEST DUP6 DUP2 LT ISZERO PUSH2 0x2A87 JUMPI DUP3 CALLDATALOAD PUSH2 0x2A5D DUP2 PUSH2 0x2E10 JUMP JUMPDEST PUSH20 0xFFFFFFFFFFFFFFFFFFFFFFFFFFFFFFFFFFFFFFFF AND DUP3 MSTORE PUSH1 0x20 SWAP3 DUP4 ADD SWAP3 SWAP1 SWAP2 ADD SWAP1 PUSH1 0x1 ADD PUSH2 0x2A4A JUMP JUMPDEST POP SWAP6 SWAP5 POP POP POP POP POP JUMP JUMPDEST PUSH1 0x0 PUSH1 0x20 DUP1 DUP4 ADD DUP2 DUP5 MSTORE DUP1 DUP6 MLOAD DUP1 DUP4 MSTORE PUSH1 0x40 DUP7 ADD SWAP2 POP PUSH1 0x40 DUP5 DUP3 MUL DUP8 ADD ADD SWAP3 POP DUP4 DUP8 ADD DUP6 JUMPDEST DUP3 DUP2 LT ISZERO PUSH2 0x2B02 JUMPI PUSH32 0xFFFFFFFFFFFFFFFFFFFFFFFFFFFFFFFFFFFFFFFFFFFFFFFFFFFFFFFFFFFFFFC0 DUP9 DUP7 SUB ADD DUP5 MSTORE PUSH2 0x2AF0 DUP6 DUP4 MLOAD PUSH2 0x2918 JUMP JUMPDEST SWAP5 POP SWAP3 DUP6 ADD SWAP3 SWAP1 DUP6 ADD SWAP1 PUSH1 0x1 ADD PUSH2 0x2AB6 JUMP JUMPDEST POP SWAP3 SWAP8 SWAP7 POP POP POP POP POP POP POP JUMP JUMPDEST PUSH1 0x20 DUP1 DUP3 MSTORE DUP3 MLOAD DUP3 DUP3 ADD DUP2 SWAP1 MSTORE PUSH1 0x0 SWAP2 DUP5 ADD SWAP1 PUSH1 0x40 DUP5 ADD SWAP1 DUP4 JUMPDEST DUP2 DUP2 LT ISZERO PUSH2 0x2B47 JUMPI DUP4 MLOAD DUP4 MSTORE PUSH1 0x20 SWAP4 DUP5 ADD SWAP4 SWAP1 SWAP3 ADD SWAP2 PUSH1 0x1 ADD PUSH2 0x2B29 JUMP JUMPDEST POP SWAP1 SWAP6 SWAP5 POP POP POP POP POP JUMP JUMPDEST PUSH1 0x60 DUP2 ADD PUSH1 0x4 DUP6 LT PUSH2 0x2B60 JUMPI INVALID JUMPDEST SWAP4 DUP2 MSTORE PUSH1 0x20 DUP2 ADD SWAP3 SWAP1 SWAP3 MSTORE PUSH1 0x40 SWAP1 SWAP2 ADD MSTORE SWAP1 JUMP JUMPDEST PUSH1 0x60 DUP2 ADD PUSH1 0x8 DUP6 LT PUSH2 0x2B60 JUMPI INVALID JUMPDEST PUSH1 0xF SWAP4 DUP5 SIGNEXTEND DUP2 MSTORE SWAP2 SWAP1 SWAP3 SIGNEXTEND PUSH1 0x20 DUP3 ADD MSTORE PUSH1 0x40 DUP2 ADD SWAP2 SWAP1 SWAP2 MSTORE PUSH1 0x60 ADD SWAP1 JUMP JUMPDEST PUSH1 0x20 DUP1 DUP3 MSTORE PUSH1 0x25 SWAP1 DUP3 ADD MSTORE PUSH32 0x455243323042726964676553616D706C65722F494E56414C49445F544F4B454E PUSH1 0x40 DUP3 ADD MSTORE PUSH32 0x5F50414952000000000000000000000000000000000000000000000000000000 PUSH1 0x60 DUP3 ADD MSTORE PUSH1 0x80 ADD SWAP1 JUMP JUMPDEST DUP4 MLOAD PUSH1 0xA0 DUP3 ADD SWAP1 PUSH1 0x7 DUP2 LT PUSH2 0x2C0E JUMPI INVALID JUMPDEST DUP1 DUP4 MSTORE POP PUSH1 0x20 DUP6 ADD MLOAD PUSH1 0x20 DUP4 ADD MSTORE PUSH1 0x40 DUP6 ADD MLOAD PUSH1 0x40 DUP4 ADD MSTORE DUP4 PUSH1 0x60 DUP4 ADD MSTORE DUP3 ISZERO ISZERO PUSH1 0x80 DUP4 ADD MSTORE SWAP5 SWAP4 POP POP POP POP JUMP JUMPDEST PUSH1 0x0 PUSH1 0x40 DUP3 MSTORE PUSH2 0x2C50 PUSH1 0x40 DUP4 ADD DUP6 MLOAD PUSH2 0x28FE JUMP JUMPDEST PUSH1 0x20 DUP5 ADD MLOAD PUSH2 0x2C62 PUSH1 0x60 DUP5 ADD DUP3 PUSH2 0x28FE JUMP JUMPDEST POP PUSH1 0x40 DUP5 ADD MLOAD PUSH2 0x2C75 PUSH1 0x80 DUP5 ADD DUP3 PUSH2 0x28FE JUMP JUMPDEST POP PUSH1 0x60 DUP5 ADD MLOAD PUSH2 0x2C88 PUSH1 0xA0 DUP5 ADD DUP3 PUSH2 0x28FE JUMP JUMPDEST POP PUSH1 0x80 DUP5 ADD MLOAD PUSH1 0xC0 DUP4 ADD MSTORE PUSH1 0xA0 DUP5 ADD MLOAD PUSH1 0xE0 DUP4 ADD MSTORE PUSH1 0xC0 DUP5 ADD MLOAD PUSH2 0x100 DUP2 DUP2 DUP6 ADD MSTORE PUSH1 0xE0 DUP7 ADD MLOAD SWAP2 POP PUSH2 0x120 DUP3 DUP2 DUP7 ADD MSTORE DUP2 DUP8 ADD MLOAD SWAP3 POP PUSH2 0x140 SWAP2 POP DUP3 DUP3 DUP7 ADD MSTORE DUP1 DUP8 ADD MLOAD SWAP3 POP POP PUSH2 0x160 DUP3 DUP2 DUP7 ADD MSTORE DUP2 DUP8 ADD MLOAD SWAP3 POP PUSH2 0x1C0 SWAP2 POP PUSH2 0x180 DUP3 DUP2 DUP8 ADD MSTORE PUSH2 0x2CF9 PUSH2 0x200 DUP8 ADD DUP6 PUSH2 0x2918 JUMP JUMPDEST DUP3 DUP10 ADD MLOAD SWAP5 POP PUSH32 0xFFFFFFFFFFFFFFFFFFFFFFFFFFFFFFFFFFFFFFFFFFFFFFFFFFFFFFFFFFFFFFC0 SWAP3 POP PUSH2 0x1A0 DUP4 DUP9 DUP4 SUB ADD DUP2 DUP10 ADD MSTORE PUSH2 0x2D38 DUP3 DUP8 PUSH2 0x2918 JUMP JUMPDEST DUP4 DUP12 ADD MLOAD SWAP7 POP DUP5 DUP10 DUP3 SUB ADD DUP7 DUP11 ADD MSTORE PUSH2 0x2D51 DUP2 DUP9 PUSH2 0x2918 JUMP JUMPDEST SWAP6 POP POP DUP1 DUP11 ADD MLOAD SWAP6 POP POP POP POP DUP1 DUP6 DUP4 SUB ADD PUSH2 0x1E0 DUP7 ADD MSTORE POP PUSH2 0x2D73 DUP2 DUP4 PUSH2 0x2918 JUMP JUMPDEST DUP5 DUP2 SUB PUSH1 0x20 DUP7 ADD MSTORE PUSH2 0x2D85 DUP2 DUP8 PUSH2 0x2918 JUMP JUMPDEST SWAP8 SWAP7 POP POP POP POP POP POP POP JUMP JUMPDEST SWAP1 DUP2 MSTORE PUSH1 0x20 ADD SWAP1 JUMP JUMPDEST PUSH1 0x40 MLOAD DUP2 DUP2 ADD PUSH8 0xFFFFFFFFFFFFFFFF DUP2 GT DUP3 DUP3 LT OR ISZERO PUSH2 0x2DB8 JUMPI PUSH1 0x0 DUP1 REVERT JUMPDEST PUSH1 0x40 MSTORE SWAP2 SWAP1 POP JUMP JUMPDEST PUSH1 0x0 PUSH8 0xFFFFFFFFFFFFFFFF DUP3 GT ISZERO PUSH2 0x2DD6 JUMPI DUP1 DUP2 REVERT JUMPDEST POP PUSH1 0x20 SWAP1 DUP2 MUL ADD SWAP1 JUMP JUMPDEST PUSH1 0x0 JUMPDEST DUP4 DUP2 LT ISZERO PUSH2 0x2DFB JUMPI DUP2 DUP2 ADD MLOAD DUP4 DUP3 ADD MSTORE PUSH1 0x20 ADD PUSH2 0x2DE3 JUMP JUMPDEST DUP4 DUP2 GT ISZERO PUSH2 0x2E0A JUMPI PUSH1 0x0 DUP5 DUP5 ADD MSTORE JUMPDEST POP POP POP POP JUMP JUMPDEST PUSH20 0xFFFFFFFFFFFFFFFFFFFFFFFFFFFFFFFFFFFFFFFF DUP2 AND DUP2 EQ PUSH2 0x3E6 JUMPI PUSH1 0x0 DUP1 REVERT INVALID LOG3 PUSH6 0x627A7A723158 KECCAK256 SWAP3 0xC GT PUSH19 0xCE6E67257A2459B5383485A7B465655C04C79D 0xAB CHAINID SELFBALANCE COINBASE ISZERO CALLVALUE 0x2A SWAP10 CODESIZE PUSH13 0x6578706572696D656E74616CF5 PUSH5 0x736F6C6343 STOP SDIV LT STOP BLOCKHASH PUSH1 0x80 PUSH1 0x40 MSTORE CALLVALUE DUP1 ISZERO PUSH2 0x10 JUMPI PUSH1 0x0 DUP1 REVERT JUMPDEST POP PUSH2 0x8C7 DUP1 PUSH2 0x20 PUSH1 0x0 CODECOPY PUSH1 0x0 RETURN INVALID PUSH1 0x80 PUSH1 0x40 MSTORE CALLVALUE DUP1 ISZERO PUSH2 0x10 JUMPI PUSH1 0x0 DUP1 REVERT JUMPDEST POP PUSH1 0x4 CALLDATASIZE LT PUSH2 0x36 JUMPI PUSH1 0x0 CALLDATALOAD PUSH1 0xE0 SHR DUP1 PUSH4 0x6F2BF62 EQ PUSH2 0x3B JUMPI DUP1 PUSH4 0x31268657 EQ PUSH2 0x64 JUMPI JUMPDEST PUSH1 0x0 DUP1 REVERT JUMPDEST PUSH2 0x4E PUSH2 0x49 CALLDATASIZE PUSH1 0x4 PUSH2 0x173 JUMP JUMPDEST PUSH2 0x79 JUMP JUMPDEST PUSH1 0x40 MLOAD PUSH2 0x5B SWAP2 SWAP1 PUSH2 0x21A JUMP JUMPDEST PUSH1 0x40 MLOAD DUP1 SWAP2 SUB SWAP1 RETURN JUMPDEST PUSH2 0x77 PUSH2 0x72 CALLDATASIZE PUSH1 0x4 PUSH2 0x1AE JUMP JUMPDEST PUSH2 0xA4 JUMP JUMPDEST STOP JUMPDEST PUSH20 0xFFFFFFFFFFFFFFFFFFFFFFFFFFFFFFFFFFFFFFFF SWAP1 DUP2 AND PUSH1 0x0 SWAP1 DUP2 MSTORE PUSH1 0x20 DUP2 SWAP1 MSTORE PUSH1 0x40 SWAP1 KECCAK256 SLOAD AND SWAP1 JUMP JUMPDEST PUSH1 0x0 JUMPDEST DUP2 DUP2 LT ISZERO PUSH2 0x161 JUMPI PUSH1 0x0 DUP4 DUP4 DUP4 DUP2 DUP2 LT PUSH2 0xBD JUMPI INVALID JUMPDEST SWAP1 POP PUSH1 0x20 MUL ADD PUSH1 0x20 PUSH2 0xD2 SWAP2 SWAP1 DUP2 ADD SWAP1 PUSH2 0x173 JUMP JUMPDEST SWAP1 POP DUP1 PUSH1 0x40 MLOAD PUSH2 0xE1 SWAP1 PUSH2 0x166 JUMP JUMPDEST PUSH2 0xEB SWAP2 SWAP1 PUSH2 0x21A JUMP JUMPDEST PUSH1 0x40 MLOAD DUP1 SWAP2 SUB SWAP1 PUSH1 0x0 CREATE DUP1 ISZERO DUP1 ISZERO PUSH2 0x107 JUMPI RETURNDATASIZE PUSH1 0x0 DUP1 RETURNDATACOPY RETURNDATASIZE PUSH1 0x0 REVERT JUMPDEST POP PUSH20 0xFFFFFFFFFFFFFFFFFFFFFFFFFFFFFFFFFFFFFFFF SWAP2 DUP3 AND PUSH1 0x0 SWAP1 DUP2 MSTORE PUSH1 0x20 DUP2 SWAP1 MSTORE PUSH1 0x40 SWAP1 KECCAK256 DUP1 SLOAD PUSH32 0xFFFFFFFFFFFFFFFFFFFFFFFF0000000000000000000000000000000000000000 AND SWAP2 SWAP1 SWAP3 AND OR SWAP1 SSTORE PUSH1 0x1 ADD PUSH2 0xA7 JUMP JUMPDEST POP POP POP JUMP JUMPDEST PUSH2 0x649 DUP1 PUSH2 0x23C DUP4 CODECOPY ADD SWAP1 JUMP JUMPDEST PUSH1 0x0 PUSH1 0x20 DUP3 DUP5 SUB SLT ISZERO PUSH2 0x184 JUMPI DUP1 DUP2 REVERT JUMPDEST DUP2 CALLDATALOAD PUSH20 0xFFFFFFFFFFFFFFFFFFFFFFFFFFFFFFFFFFFFFFFF DUP2 AND DUP2 EQ PUSH2 0x1A7 JUMPI DUP2 DUP3 REVERT JUMPDEST SWAP4 SWAP3 POP POP POP JUMP JUMPDEST PUSH1 0x0 DUP1 PUSH1 0x20 DUP4 DUP6 SUB SLT ISZERO PUSH2 0x1C0 JUMPI DUP1 DUP2 REVERT JUMPDEST DUP3 CALLDATALOAD PUSH8 0xFFFFFFFFFFFFFFFF DUP1 DUP3 GT ISZERO PUSH2 0x1D7 JUMPI DUP3 DUP4 REVERT JUMPDEST DUP2 DUP6 ADD DUP7 PUSH1 0x1F DUP3 ADD SLT PUSH2 0x1E8 JUMPI DUP4 DUP5 REVERT JUMPDEST DUP1 CALLDATALOAD SWAP3 POP DUP2 DUP4 GT ISZERO PUSH2 0x1F8 JUMPI DUP4 DUP5 REVERT JUMPDEST DUP7 PUSH1 0x20 DUP1 DUP6 MUL DUP4 ADD ADD GT ISZERO PUSH2 0x20B JUMPI DUP4 DUP5 REVERT JUMPDEST PUSH1 0x20 ADD SWAP7 SWAP2 SWAP6 POP SWAP1 SWAP4 POP POP POP POP JUMP JUMPDEST PUSH20 0xFFFFFFFFFFFFFFFFFFFFFFFFFFFFFFFFFFFFFFFF SWAP2 SWAP1 SWAP2 AND DUP2 MSTORE PUSH1 0x20 ADD SWAP1 JUMP INVALID PUSH1 0x80 PUSH1 0x40 MSTORE CALLVALUE DUP1 ISZERO PUSH2 0x10 JUMPI PUSH1 0x0 DUP1 REVERT JUMPDEST POP PUSH1 0x40 MLOAD PUSH2 0x649 CODESIZE SUB DUP1 PUSH2 0x649 DUP4 CODECOPY DUP2 ADD PUSH1 0x40 DUP2 SWAP1 MSTORE PUSH2 0x2F SWAP2 PUSH2 0x9E JUMP JUMPDEST PUSH1 0x0 DUP1 SLOAD PUSH1 0x1 PUSH1 0x1 PUSH1 0xA0 SHL SUB NOT AND PUSH1 0x1 PUSH1 0x1 PUSH1 0xA0 SHL SUB DUP4 AND OR SWAP1 SSTORE PUSH1 0x40 MLOAD PUSH2 0x7D SWAP1 PUSH32 0x1D6A6A0506B0B4A554B907A4C29D9F4674E461989D9C1921FEB17B26716385AB SWAP1 DUP4 SWAP1 PUSH1 0x20 ADD PUSH2 0xCC JUMP JUMPDEST PUSH1 0x40 DUP1 MLOAD PUSH1 0x1F NOT DUP2 DUP5 SUB ADD DUP2 MSTORE SWAP2 SWAP1 MSTORE DUP1 MLOAD PUSH1 0x20 SWAP1 SWAP2 ADD KECCAK256 PUSH1 0x1 SSTORE POP PUSH2 0xE7 JUMP JUMPDEST PUSH1 0x0 PUSH1 0x20 DUP3 DUP5 SUB SLT ISZERO PUSH2 0xAF JUMPI DUP1 DUP2 REVERT JUMPDEST DUP2 MLOAD PUSH1 0x1 PUSH1 0x1 PUSH1 0xA0 SHL SUB DUP2 AND DUP2 EQ PUSH2 0xC5 JUMPI DUP2 DUP3 REVERT JUMPDEST SWAP4 SWAP3 POP POP POP JUMP JUMPDEST SWAP2 DUP3 MSTORE PUSH1 0x60 SHL PUSH1 0x1 PUSH1 0x1 PUSH1 0x60 SHL SUB NOT AND PUSH1 0x20 DUP3 ADD MSTORE PUSH1 0x34 ADD SWAP1 JUMP JUMPDEST PUSH2 0x553 DUP1 PUSH2 0xF6 PUSH1 0x0 CODECOPY PUSH1 0x0 RETURN INVALID PUSH1 0x80 PUSH1 0x40 MSTORE PUSH1 0x4 CALLDATASIZE LT PUSH2 0x7B JUMPI PUSH1 0x0 CALLDATALOAD PUSH1 0xE0 SHR DUP1 PUSH4 0x9D76EA58 GT PUSH2 0x4E JUMPI DUP1 PUSH4 0x9D76EA58 EQ PUSH2 0xE0 JUMPI DUP1 PUSH4 0xBFA0B133 EQ PUSH2 0x102 JUMPI DUP1 PUSH4 0xCD72D789 EQ PUSH2 0x117 JUMPI DUP1 PUSH4 0xCD7724C3 EQ PUSH2 0xC0 JUMPI PUSH2 0x7B JUMP JUMPDEST DUP1 PUSH4 0x11F2928B EQ PUSH2 0x80 JUMPI DUP1 PUSH4 0x2640F62C EQ PUSH2 0x8A JUMPI DUP1 PUSH4 0x59E94862 EQ PUSH2 0x8A JUMPI DUP1 PUSH4 0x95B68FE7 EQ PUSH2 0xC0 JUMPI JUMPDEST PUSH1 0x0 DUP1 REVERT JUMPDEST PUSH2 0x88 PUSH2 0x12C JUMP JUMPDEST STOP JUMPDEST CALLVALUE DUP1 ISZERO PUSH2 0x96 JUMPI PUSH1 0x0 DUP1 REVERT JUMPDEST POP PUSH2 0xAA PUSH2 0xA5 CALLDATASIZE PUSH1 0x4 PUSH2 0x429 JUMP JUMPDEST PUSH2 0x16F JUMP JUMPDEST PUSH1 0x40 MLOAD PUSH2 0xB7 SWAP2 SWAP1 PUSH2 0x4D0 JUMP JUMPDEST PUSH1 0x40 MLOAD DUP1 SWAP2 SUB SWAP1 RETURN JUMPDEST CALLVALUE DUP1 ISZERO PUSH2 0xCC JUMPI PUSH1 0x0 DUP1 REVERT JUMPDEST POP PUSH2 0xAA PUSH2 0xDB CALLDATASIZE PUSH1 0x4 PUSH2 0x429 JUMP JUMPDEST PUSH2 0x1AE JUMP JUMPDEST CALLVALUE DUP1 ISZERO PUSH2 0xEC JUMPI PUSH1 0x0 DUP1 REVERT JUMPDEST POP PUSH2 0xF5 PUSH2 0x1E7 JUMP JUMPDEST PUSH1 0x40 MLOAD PUSH2 0xB7 SWAP2 SWAP1 PUSH2 0x4AF JUMP JUMPDEST CALLVALUE DUP1 ISZERO PUSH2 0x10E JUMPI PUSH1 0x0 DUP1 REVERT JUMPDEST POP PUSH2 0xAA PUSH2 0x203 JUMP JUMPDEST CALLVALUE DUP1 ISZERO PUSH2 0x123 JUMPI PUSH1 0x0 DUP1 REVERT JUMPDEST POP PUSH2 0xF5 PUSH2 0x209 JUMP JUMPDEST PUSH1 0x40 MLOAD PUSH20 0xE9DB8717BC5DFB20AAF538B4A5A02B7791FF430C SWAP1 CALLVALUE DUP1 ISZERO PUSH2 0x8FC MUL SWAP2 PUSH1 0x0 DUP2 DUP2 DUP2 DUP6 DUP9 DUP9 CALL SWAP4 POP POP POP POP ISZERO DUP1 ISZERO PUSH2 0x16C JUMPI RETURNDATASIZE PUSH1 0x0 DUP1 RETURNDATACOPY RETURNDATASIZE PUSH1 0x0 REVERT JUMPDEST POP JUMP JUMPDEST PUSH1 0x0 PUSH2 0x179 PUSH2 0x221 JUMP JUMPDEST PUSH2 0x1A6 PUSH1 0x1 SLOAD PUSH2 0x187 PUSH2 0x279 JUMP JUMPDEST PUSH1 0x0 SLOAD PUSH20 0xFFFFFFFFFFFFFFFFFFFFFFFFFFFFFFFFFFFFFFFF AND DUP6 PUSH2 0x291 JUMP JUMPDEST SWAP1 POP JUMPDEST SWAP2 SWAP1 POP JUMP JUMPDEST PUSH1 0x0 PUSH2 0x1B8 PUSH2 0x221 JUMP JUMPDEST PUSH1 0x1 SLOAD PUSH1 0x0 SLOAD PUSH2 0x1A6 SWAP2 SWAP1 PUSH20 0xFFFFFFFFFFFFFFFFFFFFFFFFFFFFFFFFFFFFFFFF AND PUSH2 0x1E1 PUSH2 0x279 JUMP JUMPDEST DUP6 PUSH2 0x2F2 JUMP JUMPDEST PUSH1 0x0 SLOAD PUSH20 0xFFFFFFFFFFFFFFFFFFFFFFFFFFFFFFFFFFFFFFFF AND DUP2 JUMP JUMPDEST PUSH1 0x1 SLOAD DUP2 JUMP JUMPDEST PUSH20 0xE9DB8717BC5DFB20AAF538B4A5A02B7791FF430C DUP2 JUMP JUMPDEST PUSH20 0xE9DB8717BC5DFB20AAF538B4A5A02B7791FF430C BALANCE ISZERO PUSH2 0x277 JUMPI PUSH1 0x40 MLOAD PUSH32 0x8C379A000000000000000000000000000000000000000000000000000000000 DUP2 MSTORE PUSH1 0x4 ADD PUSH2 0x26E SWAP1 PUSH2 0x4D9 JUMP JUMPDEST PUSH1 0x40 MLOAD DUP1 SWAP2 SUB SWAP1 REVERT JUMPDEST JUMP JUMPDEST PUSH20 0xC02AAA39B223FE8D0A0E5C4F27EAD9083C756CC2 SWAP1 JUMP JUMPDEST PUSH1 0x0 DUP1 PUSH2 0x29D DUP6 PUSH2 0x33E JUMP JUMPDEST PUSH1 0xFF AND PUSH1 0xA EXP SWAP1 POP PUSH1 0x0 PUSH2 0x2B0 DUP6 PUSH2 0x33E JUMP JUMPDEST PUSH1 0xFF AND PUSH1 0xA EXP SWAP1 POP PUSH1 0x0 PUSH2 0x2C5 DUP9 DUP9 DUP9 PUSH2 0x3D0 JUMP JUMPDEST SWAP1 POP DUP2 DUP2 DUP5 PUSH8 0xDE0B6B3A7640000 DUP9 MUL MUL DUP2 PUSH2 0x2DD JUMPI INVALID JUMPDEST DIV DUP2 PUSH2 0x2E5 JUMPI INVALID JUMPDEST DIV SWAP9 SWAP8 POP POP POP POP POP POP POP POP JUMP JUMPDEST PUSH1 0x0 DUP1 PUSH2 0x2FE DUP6 PUSH2 0x33E JUMP JUMPDEST PUSH1 0xFF AND PUSH1 0xA EXP SWAP1 POP PUSH1 0x0 PUSH2 0x311 DUP6 PUSH2 0x33E JUMP JUMPDEST PUSH1 0xFF AND PUSH1 0xA EXP SWAP1 POP PUSH1 0x0 PUSH2 0x326 DUP9 DUP9 DUP9 PUSH2 0x3D0 JUMP JUMPDEST SWAP1 POP PUSH8 0xDE0B6B3A7640000 DUP4 DUP4 DUP4 DUP9 MUL MUL DUP2 PUSH2 0x2DD JUMPI INVALID JUMPDEST PUSH1 0x0 PUSH20 0xFFFFFFFFFFFFFFFFFFFFFFFFFFFFFFFFFFFFFFFF DUP3 AND PUSH20 0xC02AAA39B223FE8D0A0E5C4F27EAD9083C756CC2 EQ ISZERO PUSH2 0x37A JUMPI POP PUSH1 0x12 PUSH2 0x1A9 JUMP JUMPDEST PUSH1 0x0 DUP3 PUSH1 0x40 MLOAD PUSH1 0x20 ADD PUSH2 0x38D SWAP2 SWAP1 PUSH2 0x441 JUMP JUMPDEST PUSH1 0x40 DUP1 MLOAD DUP1 DUP4 SUB PUSH32 0xFFFFFFFFFFFFFFFFFFFFFFFFFFFFFFFFFFFFFFFFFFFFFFFFFFFFFFFFFFFFFFE0 ADD DUP2 MSTORE SWAP2 SWAP1 MSTORE DUP1 MLOAD PUSH1 0x20 SWAP1 SWAP2 ADD KECCAK256 PUSH1 0xF AND PUSH1 0x4 ADD SWAP4 SWAP3 POP POP POP JUMP JUMPDEST PUSH1 0x0 DUP1 DUP5 DUP5 DUP5 PUSH1 0x40 MLOAD PUSH1 0x20 ADD PUSH2 0x3E8 SWAP4 SWAP3 SWAP2 SWAP1 PUSH2 0x471 JUMP JUMPDEST PUSH1 0x40 MLOAD PUSH1 0x20 DUP2 DUP4 SUB SUB DUP2 MSTORE SWAP1 PUSH1 0x40 MSTORE DUP1 MLOAD SWAP1 PUSH1 0x20 ADD KECCAK256 SWAP1 POP PUSH1 0x64 PUSH8 0xDE0B6B3A7640000 DUP2 PUSH2 0x412 JUMPI INVALID JUMPDEST DIV PUSH9 0x56BA3D73AF34F0000 DUP3 MOD ADD SWAP6 SWAP5 POP POP POP POP POP JUMP JUMPDEST PUSH1 0x0 PUSH1 0x20 DUP3 DUP5 SUB SLT ISZERO PUSH2 0x43A JUMPI DUP1 DUP2 REVERT JUMPDEST POP CALLDATALOAD SWAP2 SWAP1 POP JUMP JUMPDEST PUSH1 0x60 SWAP2 SWAP1 SWAP2 SHL PUSH32 0xFFFFFFFFFFFFFFFFFFFFFFFFFFFFFFFFFFFFFFFF000000000000000000000000 AND DUP2 MSTORE PUSH1 0x14 ADD SWAP1 JUMP JUMPDEST SWAP3 DUP4 MSTORE PUSH32 0xFFFFFFFFFFFFFFFFFFFFFFFFFFFFFFFFFFFFFFFF000000000000000000000000 PUSH1 0x60 SWAP3 DUP4 SHL DUP2 AND PUSH1 0x20 DUP6 ADD MSTORE SWAP2 SHL AND PUSH1 0x34 DUP3 ADD MSTORE PUSH1 0x48 ADD SWAP1 JUMP JUMPDEST PUSH20 0xFFFFFFFFFFFFFFFFFFFFFFFFFFFFFFFFFFFFFFFF SWAP2 SWAP1 SWAP2 AND DUP2 MSTORE PUSH1 0x20 ADD SWAP1 JUMP JUMPDEST SWAP1 DUP2 MSTORE PUSH1 0x20 ADD SWAP1 JUMP JUMPDEST PUSH1 0x20 DUP1 DUP3 MSTORE PUSH1 0xE SWAP1 DUP3 ADD MSTORE PUSH32 0x4641494C5F545249474745524544000000000000000000000000000000000000 PUSH1 0x40 DUP3 ADD MSTORE PUSH1 0x60 ADD SWAP1 JUMP INVALID LOG3 PUSH6 0x627A7A723158 KECCAK256 0x2B MLOAD 0xFC DUP4 0x26 DUP10 0xC4 PUSH23 0x183BBB9914FE532C84AD04607427F878B6219980061CE0 0x4D PUSH13 0x6578706572696D656E74616CF5 PUSH5 0x736F6C6343 STOP SDIV LT STOP BLOCKHASH LOG3 PUSH6 0x627A7A723158 KECCAK256 0xE6 TIMESTAMP 0xF6 ADDRESS ADDRESS SUB 0xC7 0xE2 0xB5 0xF8 PUSH32 0x2EE82CF2BEEFD4E7D06531E7449C6259603039C17F6C6578706572696D656E74 PUSH2 0x6CF5 PUSH5 0x736F6C6343 STOP SDIV LT STOP BLOCKHASH PUSH1 0x80 PUSH1 0x40 MSTORE CALLVALUE DUP1 ISZERO PUSH2 0x10 JUMPI PUSH1 0x0 DUP1 REVERT JUMPDEST POP PUSH2 0x4FB DUP1 PUSH2 0x20 PUSH1 0x0 CODECOPY PUSH1 0x0 RETURN INVALID PUSH1 0x80 PUSH1 0x40 MSTORE PUSH1 0x4 CALLDATASIZE LT PUSH2 0x3F JUMPI PUSH1 0x0 CALLDATALOAD PUSH1 0xE0 SHR DUP1 PUSH4 0x11F2928B EQ PUSH2 0x44 JUMPI DUP1 PUSH4 0x144A2752 EQ PUSH2 0x4E JUMPI DUP1 PUSH4 0xCD72D789 EQ PUSH2 0x84 JUMPI DUP1 PUSH4 0xFF1FD974 EQ PUSH2 0xA6 JUMPI JUMPDEST PUSH1 0x0 DUP1 REVERT JUMPDEST PUSH2 0x4C PUSH2 0xC6 JUMP JUMPDEST STOP JUMPDEST CALLVALUE DUP1 ISZERO PUSH2 0x5A JUMPI PUSH1 0x0 DUP1 REVERT JUMPDEST POP PUSH2 0x6E PUSH2 0x69 CALLDATASIZE PUSH1 0x4 PUSH2 0x387 JUMP JUMPDEST PUSH2 0x109 JUMP JUMPDEST PUSH1 0x40 MLOAD PUSH2 0x7B SWAP2 SWAP1 PUSH2 0x48D JUMP JUMPDEST PUSH1 0x40 MLOAD DUP1 SWAP2 SUB SWAP1 RETURN JUMPDEST CALLVALUE DUP1 ISZERO PUSH2 0x90 JUMPI PUSH1 0x0 DUP1 REVERT JUMPDEST POP PUSH2 0x99 PUSH2 0x147 JUMP JUMPDEST PUSH1 0x40 MLOAD PUSH2 0x7B SWAP2 SWAP1 PUSH2 0x435 JUMP JUMPDEST CALLVALUE DUP1 ISZERO PUSH2 0xB2 JUMPI PUSH1 0x0 DUP1 REVERT JUMPDEST POP PUSH2 0x6E PUSH2 0xC1 CALLDATASIZE PUSH1 0x4 PUSH2 0x387 JUMP JUMPDEST PUSH2 0x15F JUMP JUMPDEST PUSH1 0x40 MLOAD PUSH20 0xE9DB8717BC5DFB20AAF538B4A5A02B7791FF430C SWAP1 CALLVALUE DUP1 ISZERO PUSH2 0x8FC MUL SWAP2 PUSH1 0x0 DUP2 DUP2 DUP2 DUP6 DUP9 DUP9 CALL SWAP4 POP POP POP POP ISZERO DUP1 ISZERO PUSH2 0x106 JUMPI RETURNDATASIZE PUSH1 0x0 DUP1 RETURNDATACOPY RETURNDATASIZE PUSH1 0x0 REVERT JUMPDEST POP JUMP JUMPDEST PUSH1 0x0 PUSH2 0x113 PUSH2 0x195 JUMP JUMPDEST PUSH2 0x13F PUSH32 0xB713B61BB9BB2958A0F5D1534B21E94FC68C4C0C034B0902ED844F2F6CD1B4F7 DUP5 DUP7 DUP6 PUSH2 0x1ED JUMP JUMPDEST SWAP5 SWAP4 POP POP POP POP JUMP JUMPDEST PUSH20 0xE9DB8717BC5DFB20AAF538B4A5A02B7791FF430C DUP2 JUMP JUMPDEST PUSH1 0x0 PUSH2 0x169 PUSH2 0x195 JUMP JUMPDEST PUSH2 0x13F PUSH32 0xB713B61BB9BB2958A0F5D1534B21E94FC68C4C0C034B0902ED844F2F6CD1B4F7 DUP6 DUP6 DUP6 PUSH2 0x24E JUMP JUMPDEST PUSH20 0xE9DB8717BC5DFB20AAF538B4A5A02B7791FF430C BALANCE ISZERO PUSH2 0x1EB JUMPI PUSH1 0x40 MLOAD PUSH32 0x8C379A000000000000000000000000000000000000000000000000000000000 DUP2 MSTORE PUSH1 0x4 ADD PUSH2 0x1E2 SWAP1 PUSH2 0x456 JUMP JUMPDEST PUSH1 0x40 MLOAD DUP1 SWAP2 SUB SWAP1 REVERT JUMPDEST JUMP JUMPDEST PUSH1 0x0 DUP1 PUSH2 0x1F9 DUP6 PUSH2 0x29A JUMP JUMPDEST PUSH1 0xFF AND PUSH1 0xA EXP SWAP1 POP PUSH1 0x0 PUSH2 0x20C DUP6 PUSH2 0x29A JUMP JUMPDEST PUSH1 0xFF AND PUSH1 0xA EXP SWAP1 POP PUSH1 0x0 PUSH2 0x221 DUP9 DUP9 DUP9 PUSH2 0x32E JUMP JUMPDEST SWAP1 POP PUSH8 0xDE0B6B3A7640000 DUP4 DUP4 DUP4 DUP9 MUL MUL DUP2 PUSH2 0x239 JUMPI INVALID JUMPDEST DIV DUP2 PUSH2 0x241 JUMPI INVALID JUMPDEST DIV SWAP9 SWAP8 POP POP POP POP POP POP POP POP JUMP JUMPDEST PUSH1 0x0 DUP1 PUSH2 0x25A DUP6 PUSH2 0x29A JUMP JUMPDEST PUSH1 0xFF AND PUSH1 0xA EXP SWAP1 POP PUSH1 0x0 PUSH2 0x26D DUP6 PUSH2 0x29A JUMP JUMPDEST PUSH1 0xFF AND PUSH1 0xA EXP SWAP1 POP PUSH1 0x0 PUSH2 0x282 DUP9 DUP9 DUP9 PUSH2 0x32E JUMP JUMPDEST SWAP1 POP DUP2 DUP2 DUP5 PUSH8 0xDE0B6B3A7640000 DUP9 MUL MUL DUP2 PUSH2 0x239 JUMPI INVALID JUMPDEST PUSH1 0x0 PUSH20 0xFFFFFFFFFFFFFFFFFFFFFFFFFFFFFFFFFFFFFFFF DUP3 AND PUSH20 0xC02AAA39B223FE8D0A0E5C4F27EAD9083C756CC2 EQ ISZERO PUSH2 0x2D6 JUMPI POP PUSH1 0x12 PUSH2 0x329 JUMP JUMPDEST PUSH1 0x0 DUP3 PUSH1 0x40 MLOAD PUSH1 0x20 ADD PUSH2 0x2E9 SWAP2 SWAP1 PUSH2 0x3C7 JUMP JUMPDEST PUSH1 0x40 DUP1 MLOAD DUP1 DUP4 SUB PUSH32 0xFFFFFFFFFFFFFFFFFFFFFFFFFFFFFFFFFFFFFFFFFFFFFFFFFFFFFFFFFFFFFFE0 ADD DUP2 MSTORE SWAP2 SWAP1 MSTORE DUP1 MLOAD PUSH1 0x20 SWAP1 SWAP2 ADD KECCAK256 PUSH1 0xF AND PUSH1 0x4 ADD SWAP2 POP POP JUMPDEST SWAP2 SWAP1 POP JUMP JUMPDEST PUSH1 0x0 DUP1 DUP5 DUP5 DUP5 PUSH1 0x40 MLOAD PUSH1 0x20 ADD PUSH2 0x346 SWAP4 SWAP3 SWAP2 SWAP1 PUSH2 0x3F7 JUMP JUMPDEST PUSH1 0x40 MLOAD PUSH1 0x20 DUP2 DUP4 SUB SUB DUP2 MSTORE SWAP1 PUSH1 0x40 MSTORE DUP1 MLOAD SWAP1 PUSH1 0x20 ADD KECCAK256 SWAP1 POP PUSH1 0x64 PUSH8 0xDE0B6B3A7640000 DUP2 PUSH2 0x370 JUMPI INVALID JUMPDEST DIV PUSH9 0x56BA3D73AF34F0000 DUP3 MOD ADD SWAP6 SWAP5 POP POP POP POP POP JUMP JUMPDEST PUSH1 0x0 DUP1 PUSH1 0x0 PUSH1 0x60 DUP5 DUP7 SUB SLT ISZERO PUSH2 0x39B JUMPI DUP3 DUP4 REVERT JUMPDEST DUP4 CALLDATALOAD PUSH2 0x3A6 DUP2 PUSH2 0x496 JUMP JUMPDEST SWAP3 POP PUSH1 0x20 DUP5 ADD CALLDATALOAD PUSH2 0x3B6 DUP2 PUSH2 0x496 JUMP JUMPDEST SWAP3 SWAP6 SWAP3 SWAP5 POP POP POP PUSH1 0x40 SWAP2 SWAP1 SWAP2 ADD CALLDATALOAD SWAP1 JUMP JUMPDEST PUSH1 0x60 SWAP2 SWAP1 SWAP2 SHL PUSH32 0xFFFFFFFFFFFFFFFFFFFFFFFFFFFFFFFFFFFFFFFF000000000000000000000000 AND DUP2 MSTORE PUSH1 0x14 ADD SWAP1 JUMP JUMPDEST SWAP3 DUP4 MSTORE PUSH32 0xFFFFFFFFFFFFFFFFFFFFFFFFFFFFFFFFFFFFFFFF000000000000000000000000 PUSH1 0x60 SWAP3 DUP4 SHL DUP2 AND PUSH1 0x20 DUP6 ADD MSTORE SWAP2 SHL AND PUSH1 0x34 DUP3 ADD MSTORE PUSH1 0x48 ADD SWAP1 JUMP JUMPDEST PUSH20 0xFFFFFFFFFFFFFFFFFFFFFFFFFFFFFFFFFFFFFFFF SWAP2 SWAP1 SWAP2 AND DUP2 MSTORE PUSH1 0x20 ADD SWAP1 JUMP JUMPDEST PUSH1 0x20 DUP1 DUP3 MSTORE PUSH1 0xE SWAP1 DUP3 ADD MSTORE PUSH32 0x4641494C5F545249474745524544000000000000000000000000000000000000 PUSH1 0x40 DUP3 ADD MSTORE PUSH1 0x60 ADD SWAP1 JUMP JUMPDEST SWAP1 DUP2 MSTORE PUSH1 0x20 ADD SWAP1 JUMP JUMPDEST PUSH20 0xFFFFFFFFFFFFFFFFFFFFFFFFFFFFFFFFFFFFFFFF DUP2 AND DUP2 EQ PUSH2 0x106 JUMPI PUSH1 0x0 DUP1 REVERT INVALID LOG3 PUSH6 0x627A7A723158 KECCAK256 SLT PUSH29 0xEFAE3191A7DD768E753EFFFE3624723CD097663F65AD7CBCAF47B425C7 0xF6 PUSH13 0x6578706572696D656E74616CF5 PUSH5 0x736F6C6343 STOP SDIV LT STOP BLOCKHASH PUSH1 0x80 PUSH1 0x40 MSTORE CALLVALUE DUP1 ISZERO PUSH2 0x10 JUMPI PUSH1 0x0 DUP1 REVERT JUMPDEST POP PUSH2 0x403 DUP1 PUSH2 0x20 PUSH1 0x0 CODECOPY PUSH1 0x0 RETURN INVALID PUSH1 0x80 PUSH1 0x40 MSTORE PUSH1 0x4 CALLDATASIZE LT PUSH2 0x3F JUMPI PUSH1 0x0 CALLDATALOAD PUSH1 0xE0 SHR DUP1 PUSH4 0x11F2928B EQ PUSH2 0x44 JUMPI DUP1 PUSH4 0x809A9E55 EQ PUSH2 0x4E JUMPI DUP1 PUSH4 0xA734F06E EQ PUSH2 0x85 JUMPI DUP1 PUSH4 0xCD72D789 EQ PUSH2 0xA7 JUMPI JUMPDEST PUSH1 0x0 DUP1 REVERT JUMPDEST PUSH2 0x4C PUSH2 0xBC JUMP JUMPDEST STOP JUMPDEST CALLVALUE DUP1 ISZERO PUSH2 0x5A JUMPI PUSH1 0x0 DUP1 REVERT JUMPDEST POP PUSH2 0x6E PUSH2 0x69 CALLDATASIZE PUSH1 0x4 PUSH2 0x2BA JUMP JUMPDEST PUSH2 0xFF JUMP JUMPDEST PUSH1 0x40 MLOAD PUSH2 0x7C SWAP3 SWAP2 SWAP1 PUSH2 0x390 JUMP JUMPDEST PUSH1 0x40 MLOAD DUP1 SWAP2 SUB SWAP1 RETURN JUMPDEST CALLVALUE DUP1 ISZERO PUSH2 0x91 JUMPI PUSH1 0x0 DUP1 REVERT JUMPDEST POP PUSH2 0x9A PUSH2 0x1C1 JUMP JUMPDEST PUSH1 0x40 MLOAD PUSH2 0x7C SWAP2 SWAP1 PUSH2 0x338 JUMP JUMPDEST CALLVALUE DUP1 ISZERO PUSH2 0xB3 JUMPI PUSH1 0x0 DUP1 REVERT JUMPDEST POP PUSH2 0x9A PUSH2 0x1D9 JUMP JUMPDEST PUSH1 0x40 MLOAD PUSH20 0xE9DB8717BC5DFB20AAF538B4A5A02B7791FF430C SWAP1 CALLVALUE DUP1 ISZERO PUSH2 0x8FC MUL SWAP2 PUSH1 0x0 DUP2 DUP2 DUP2 DUP6 DUP9 DUP9 CALL SWAP4 POP POP POP POP ISZERO DUP1 ISZERO PUSH2 0xFC JUMPI RETURNDATASIZE PUSH1 0x0 DUP1 RETURNDATACOPY RETURNDATASIZE PUSH1 0x0 REVERT JUMPDEST POP JUMP JUMPDEST PUSH1 0x0 DUP1 PUSH2 0x10A PUSH2 0x1F1 JUMP JUMPDEST PUSH20 0xFFFFFFFFFFFFFFFFFFFFFFFFFFFFFFFFFFFFFFFF DUP6 AND PUSH20 0xEEEEEEEEEEEEEEEEEEEEEEEEEEEEEEEEEEEEEEEE EQ PUSH2 0x141 JUMPI DUP5 PUSH2 0x149 JUMP JUMPDEST PUSH2 0x149 PUSH2 0x249 JUMP JUMPDEST SWAP5 POP PUSH20 0xFFFFFFFFFFFFFFFFFFFFFFFFFFFFFFFFFFFFFFFF DUP5 AND PUSH20 0xEEEEEEEEEEEEEEEEEEEEEEEEEEEEEEEEEEEEEEEE EQ PUSH2 0x182 JUMPI DUP4 PUSH2 0x18A JUMP JUMPDEST PUSH2 0x18A PUSH2 0x249 JUMP JUMPDEST SWAP4 POP PUSH2 0x1B7 PUSH32 0xFF3CA9D46195C39F9A12AFB74207B4970349FB3CFB1E459BBF170298D326BC7 DUP7 DUP7 PUSH2 0x261 JUMP JUMPDEST SWAP2 POP SWAP4 POP SWAP4 SWAP2 POP POP JUMP JUMPDEST PUSH20 0xEEEEEEEEEEEEEEEEEEEEEEEEEEEEEEEEEEEEEEEE DUP2 JUMP JUMPDEST PUSH20 0xE9DB8717BC5DFB20AAF538B4A5A02B7791FF430C DUP2 JUMP JUMPDEST PUSH20 0xE9DB8717BC5DFB20AAF538B4A5A02B7791FF430C BALANCE ISZERO PUSH2 0x247 JUMPI PUSH1 0x40 MLOAD PUSH32 0x8C379A000000000000000000000000000000000000000000000000000000000 DUP2 MSTORE PUSH1 0x4 ADD PUSH2 0x23E SWAP1 PUSH2 0x359 JUMP JUMPDEST PUSH1 0x40 MLOAD DUP1 SWAP2 SUB SWAP1 REVERT JUMPDEST JUMP JUMPDEST PUSH20 0xC02AAA39B223FE8D0A0E5C4F27EAD9083C756CC2 SWAP1 JUMP JUMPDEST PUSH1 0x0 DUP1 DUP5 DUP5 DUP5 PUSH1 0x40 MLOAD PUSH1 0x20 ADD PUSH2 0x279 SWAP4 SWAP3 SWAP2 SWAP1 PUSH2 0x2FA JUMP JUMPDEST PUSH1 0x40 MLOAD PUSH1 0x20 DUP2 DUP4 SUB SUB DUP2 MSTORE SWAP1 PUSH1 0x40 MSTORE DUP1 MLOAD SWAP1 PUSH1 0x20 ADD KECCAK256 SWAP1 POP PUSH1 0x64 PUSH8 0xDE0B6B3A7640000 DUP2 PUSH2 0x2A3 JUMPI INVALID JUMPDEST DIV PUSH9 0x56BA3D73AF34F0000 DUP3 MOD ADD SWAP6 SWAP5 POP POP POP POP POP JUMP JUMPDEST PUSH1 0x0 DUP1 PUSH1 0x0 PUSH1 0x60 DUP5 DUP7 SUB SLT ISZERO PUSH2 0x2CE JUMPI DUP3 DUP4 REVERT JUMPDEST DUP4 CALLDATALOAD PUSH2 0x2D9 DUP2 PUSH2 0x39E JUMP JUMPDEST SWAP3 POP PUSH1 0x20 DUP5 ADD CALLDATALOAD PUSH2 0x2E9 DUP2 PUSH2 0x39E JUMP JUMPDEST SWAP3 SWAP6 SWAP3 SWAP5 POP POP POP PUSH1 0x40 SWAP2 SWAP1 SWAP2 ADD CALLDATALOAD SWAP1 JUMP JUMPDEST SWAP3 DUP4 MSTORE PUSH32 0xFFFFFFFFFFFFFFFFFFFFFFFFFFFFFFFFFFFFFFFF000000000000000000000000 PUSH1 0x60 SWAP3 DUP4 SHL DUP2 AND PUSH1 0x20 DUP6 ADD MSTORE SWAP2 SHL AND PUSH1 0x34 DUP3 ADD MSTORE PUSH1 0x48 ADD SWAP1 JUMP JUMPDEST PUSH20 0xFFFFFFFFFFFFFFFFFFFFFFFFFFFFFFFFFFFFFFFF SWAP2 SWAP1 SWAP2 AND DUP2 MSTORE PUSH1 0x20 ADD SWAP1 JUMP JUMPDEST PUSH1 0x20 DUP1 DUP3 MSTORE PUSH1 0xE SWAP1 DUP3 ADD MSTORE PUSH32 0x4641494C5F545249474745524544000000000000000000000000000000000000 PUSH1 0x40 DUP3 ADD MSTORE PUSH1 0x60 ADD SWAP1 JUMP JUMPDEST SWAP2 DUP3 MSTORE PUSH1 0x20 DUP3 ADD MSTORE PUSH1 0x40 ADD SWAP1 JUMP JUMPDEST PUSH20 0xFFFFFFFFFFFFFFFFFFFFFFFFFFFFFFFFFFFFFFFF DUP2 AND DUP2 EQ PUSH2 0xFC JUMPI PUSH1 0x0 DUP1 REVERT INVALID LOG3 PUSH6 0x627A7A723158 KECCAK256 0xFC CALLCODE 0xAA ADD PUSH4 0xB0D74CE3 PUSH1 0x46 0xB9 LOG4 0xD0 0xDF 0xDF LT PUSH17 0x348492535455E686D495FB6D5EBA6C6578 PUSH17 0x6572696D656E74616CF564736F6C634300 SDIV LT STOP BLOCKHASH "
            }
        }
    },
    "sourceTreeHashHex": "0x3beee5c7ae7e518697be2b191127ff9915cfb8f31416e4395ddd3b49a7b36516",
    "compiler": {
        "name": "solc",
        "version": "soljson-v0.5.16+commit.9c3226ce.js",
        "settings": {
            "optimizer": {
                "enabled": true,
                "runs": 1000000,
                "details": {
                    "yul": true,
                    "deduplicate": true,
                    "cse": true,
                    "constantOptimizer": true
                }
            },
            "outputSelection": {
                "*": {
                    "*": [
                        "abi",
                        "devdoc",
                        "evm.bytecode.object",
                        "evm.bytecode.sourceMap",
                        "evm.deployedBytecode.object",
                        "evm.deployedBytecode.sourceMap"
                    ]
                }
            },
            "evmVersion": "istanbul",
            "remappings": [
                "@0x/contracts-asset-proxy=/Users/danielpyrathon/Desktop/Projects/0x-monorepo/node_modules/@0x/contracts-asset-proxy",
                "@0x/contracts-erc20=/Users/danielpyrathon/Desktop/Projects/0x-monorepo/node_modules/@0x/contracts-erc20",
                "@0x/contracts-utils=/Users/danielpyrathon/Desktop/Projects/0x-monorepo/node_modules/@0x/contracts-utils",
                "@0x/contracts-exchange-libs=/Users/danielpyrathon/Desktop/Projects/0x-monorepo/node_modules/@0x/contracts-exchange-libs",
                "@0x/contracts-exchange=/Users/danielpyrathon/Desktop/Projects/0x-monorepo/node_modules/@0x/contracts-exchange"
            ]
        }
    },
    "chains": {}
}