{
    "schemaVersion": "2.0.0",
    "contractName": "TestZeroExFeature",
    "compilerOutput": {
        "abi": [
            {
                "anonymous": false,
                "inputs": [],
                "name": "NotPayableFnCalled",
                "type": "event"
            },
            {
                "anonymous": false,
                "inputs": [
                    {
                        "indexed": false,
                        "internalType": "uint256",
                        "name": "value",
                        "type": "uint256"
                    }
                ],
                "name": "PayableFnCalled",
                "type": "event"
            },
            {
                "inputs": [],
                "name": "internalFn",
                "outputs": [],
                "stateMutability": "nonpayable",
                "type": "function"
            },
            {
                "inputs": [],
                "name": "notPayableFn",
                "outputs": [],
                "stateMutability": "nonpayable",
                "type": "function"
            },
            {
                "inputs": [],
                "name": "payableFn",
                "outputs": [],
                "stateMutability": "payable",
                "type": "function"
            },
            {
                "inputs": [],
                "name": "unimplmentedFn",
                "outputs": [],
                "stateMutability": "nonpayable",
                "type": "function"
            }
        ],
        "devdoc": {
            "methods": {}
        },
        "evm": {
            "bytecode": {
                "linkReferences": {},
                "object": "0x608060405234801561001057600080fd5b50610247806100206000396000f3fe60806040526004361061003f5760003560e01c8063055365c8146100445780630aa225f61461005b5780634ca9af38146100705780637ef135f514610085575b600080fd5b34801561005057600080fd5b5061005961008d565b005b34801561006757600080fd5b506100596100a5565b34801561007c57600080fd5b506100596100a7565b6100596100d2565b3330146100a5576100a56100a03361010b565b6101b6565b565b6040517f853944c89195a950bcc60453a9db3fa373f0fd94da7646ebe4ce2486019a8fce90600090a1565b7fffad500b2647b958d58303af2c5ccbde5b48b0035a9a4205669ce384faa3248d346040516101019190610208565b60405180910390a1565b6060604051610119906101be565b60405180910390208260405160240161013291906101e7565b604080517fffffffffffffffffffffffffffffffffffffffffffffffffffffffffffffffe08184030181529190526020810180517bffffffffffffffffffffffffffffffffffffffffffffffffffffffff167fffffffff00000000000000000000000000000000000000000000000000000000909316929092179091529050919050565b805160208201fd5b7f4f6e6c7943616c6c61626c65427953656c664572726f72286164647265737329815260200190565b73ffffffffffffffffffffffffffffffffffffffff91909116815260200190565b9081526020019056fea26469706673582212200761a0acc065083e54773091cef70ea68977ab39973ed71641a4afd14b4a7ffe64736f6c634300060a0033",
                "opcodes": "PUSH1 0x80 PUSH1 0x40 MSTORE CALLVALUE DUP1 ISZERO PUSH2 0x10 JUMPI PUSH1 0x0 DUP1 REVERT JUMPDEST POP PUSH2 0x247 DUP1 PUSH2 0x20 PUSH1 0x0 CODECOPY PUSH1 0x0 RETURN INVALID PUSH1 0x80 PUSH1 0x40 MSTORE PUSH1 0x4 CALLDATASIZE LT PUSH2 0x3F JUMPI PUSH1 0x0 CALLDATALOAD PUSH1 0xE0 SHR DUP1 PUSH4 0x55365C8 EQ PUSH2 0x44 JUMPI DUP1 PUSH4 0xAA225F6 EQ PUSH2 0x5B JUMPI DUP1 PUSH4 0x4CA9AF38 EQ PUSH2 0x70 JUMPI DUP1 PUSH4 0x7EF135F5 EQ PUSH2 0x85 JUMPI JUMPDEST PUSH1 0x0 DUP1 REVERT JUMPDEST CALLVALUE DUP1 ISZERO PUSH2 0x50 JUMPI PUSH1 0x0 DUP1 REVERT JUMPDEST POP PUSH2 0x59 PUSH2 0x8D JUMP JUMPDEST STOP JUMPDEST CALLVALUE DUP1 ISZERO PUSH2 0x67 JUMPI PUSH1 0x0 DUP1 REVERT JUMPDEST POP PUSH2 0x59 PUSH2 0xA5 JUMP JUMPDEST CALLVALUE DUP1 ISZERO PUSH2 0x7C JUMPI PUSH1 0x0 DUP1 REVERT JUMPDEST POP PUSH2 0x59 PUSH2 0xA7 JUMP JUMPDEST PUSH2 0x59 PUSH2 0xD2 JUMP JUMPDEST CALLER ADDRESS EQ PUSH2 0xA5 JUMPI PUSH2 0xA5 PUSH2 0xA0 CALLER PUSH2 0x10B JUMP JUMPDEST PUSH2 0x1B6 JUMP JUMPDEST JUMP JUMPDEST PUSH1 0x40 MLOAD PUSH32 0x853944C89195A950BCC60453A9DB3FA373F0FD94DA7646EBE4CE2486019A8FCE SWAP1 PUSH1 0x0 SWAP1 LOG1 JUMP JUMPDEST PUSH32 0xFFAD500B2647B958D58303AF2C5CCBDE5B48B0035A9A4205669CE384FAA3248D CALLVALUE PUSH1 0x40 MLOAD PUSH2 0x101 SWAP2 SWAP1 PUSH2 0x208 JUMP JUMPDEST PUSH1 0x40 MLOAD DUP1 SWAP2 SUB SWAP1 LOG1 JUMP JUMPDEST PUSH1 0x60 PUSH1 0x40 MLOAD PUSH2 0x119 SWAP1 PUSH2 0x1BE JUMP JUMPDEST PUSH1 0x40 MLOAD DUP1 SWAP2 SUB SWAP1 KECCAK256 DUP3 PUSH1 0x40 MLOAD PUSH1 0x24 ADD PUSH2 0x132 SWAP2 SWAP1 PUSH2 0x1E7 JUMP JUMPDEST PUSH1 0x40 DUP1 MLOAD PUSH32 0xFFFFFFFFFFFFFFFFFFFFFFFFFFFFFFFFFFFFFFFFFFFFFFFFFFFFFFFFFFFFFFE0 DUP2 DUP5 SUB ADD DUP2 MSTORE SWAP2 SWAP1 MSTORE PUSH1 0x20 DUP2 ADD DUP1 MLOAD PUSH28 0xFFFFFFFFFFFFFFFFFFFFFFFFFFFFFFFFFFFFFFFFFFFFFFFFFFFFFFFF AND PUSH32 0xFFFFFFFF00000000000000000000000000000000000000000000000000000000 SWAP1 SWAP4 AND SWAP3 SWAP1 SWAP3 OR SWAP1 SWAP2 MSTORE SWAP1 POP SWAP2 SWAP1 POP JUMP JUMPDEST DUP1 MLOAD PUSH1 0x20 DUP3 ADD REVERT JUMPDEST PUSH32 0x4F6E6C7943616C6C61626C65427953656C664572726F72286164647265737329 DUP2 MSTORE PUSH1 0x20 ADD SWAP1 JUMP JUMPDEST PUSH20 0xFFFFFFFFFFFFFFFFFFFFFFFFFFFFFFFFFFFFFFFF SWAP2 SWAP1 SWAP2 AND DUP2 MSTORE PUSH1 0x20 ADD SWAP1 JUMP JUMPDEST SWAP1 DUP2 MSTORE PUSH1 0x20 ADD SWAP1 JUMP INVALID LOG2 PUSH5 0x6970667358 0x22 SLT KECCAK256 SMOD PUSH2 0xA0AC 0xC0 PUSH6 0x83E54773091 0xCE 0xF7 0xE 0xA6 DUP10 PUSH24 0xAB39973ED71641A4AFD14B4A7FFE64736F6C634300060A00 CALLER "
            }
        }
    },
    "sourceTreeHashHex": "0x6a5947c40c64ed7840656f7c12142b579a5e9f3c69953be9dfba2de296b021d5",
    "compiler": {
        "name": "solc",
        "version": "0.6.10+commit.00c0fcaf",
        "settings": {
            "remappings": [
                "@0x/contracts-utils=/home/gene/dev/0x-monorepo/node_modules/@0x/contracts-utils",
                "@0x/contracts-erc20=/home/gene/dev/0x-monorepo/node_modules/@0x/contracts-erc20"
            ],
            "optimizer": {
                "enabled": true,
                "runs": 1000000,
                "details": {
                    "yul": true,
                    "deduplicate": true,
                    "cse": true,
                    "constantOptimizer": true
                }
            },
            "outputSelection": {
                "*": {
                    "*": [
                        "abi",
                        "devdoc",
                        "evm.bytecode.object",
                        "evm.bytecode.sourceMap",
                        "evm.deployedBytecode.object",
                        "evm.deployedBytecode.sourceMap"
                    ]
                }
            },
            "evmVersion": "istanbul"
        }
    },
    "chains": {}
}