{
    "schemaVersion": "2.0.0",
    "contractName": "TestDelegateCaller",
    "compilerOutput": {
        "abi": [
            {
                "inputs": [
                    {
                        "internalType": "address",
                        "name": "target",
                        "type": "address"
                    },
                    {
                        "internalType": "bytes",
                        "name": "callData",
                        "type": "bytes"
                    }
                ],
                "name": "executeDelegateCall",
                "outputs": [],
                "stateMutability": "nonpayable",
                "type": "function"
            }
        ],
        "devdoc": {
            "methods": {}
        },
        "evm": {
            "bytecode": {
                "linkReferences": {},
                "object": "0x608060405234801561001057600080fd5b506101a6806100206000396000f3fe608060405234801561001057600080fd5b506004361061002b5760003560e01c8063b68df16d14610030575b600080fd5b61004361003e3660046100ca565b610045565b005b600060608473ffffffffffffffffffffffffffffffffffffffff168484604051610070929190610160565b600060405180830381855af49150503d80600081146100ab576040519150601f19603f3d011682016040523d82523d6000602084013e6100b0565b606091505b5091509150816100c257805160208201fd5b805160208201f35b6000806000604084860312156100de578283fd5b833573ffffffffffffffffffffffffffffffffffffffff81168114610101578384fd5b9250602084013567ffffffffffffffff8082111561011d578384fd5b81860187601f82011261012e578485fd5b803592508183111561013e578485fd5b87602084830101111561014f578485fd5b949760209095019650909450505050565b600082848337910190815291905056fea2646970667358221220c85b4bd6eccf14a8a827acc6720f57c97f30cfc7abc5f544612ea9fb21187c3764736f6c634300060a0033",
                "opcodes": "PUSH1 0x80 PUSH1 0x40 MSTORE CALLVALUE DUP1 ISZERO PUSH2 0x10 JUMPI PUSH1 0x0 DUP1 REVERT JUMPDEST POP PUSH2 0x1A6 DUP1 PUSH2 0x20 PUSH1 0x0 CODECOPY PUSH1 0x0 RETURN INVALID PUSH1 0x80 PUSH1 0x40 MSTORE CALLVALUE DUP1 ISZERO PUSH2 0x10 JUMPI PUSH1 0x0 DUP1 REVERT JUMPDEST POP PUSH1 0x4 CALLDATASIZE LT PUSH2 0x2B JUMPI PUSH1 0x0 CALLDATALOAD PUSH1 0xE0 SHR DUP1 PUSH4 0xB68DF16D EQ PUSH2 0x30 JUMPI JUMPDEST PUSH1 0x0 DUP1 REVERT JUMPDEST PUSH2 0x43 PUSH2 0x3E CALLDATASIZE PUSH1 0x4 PUSH2 0xCA JUMP JUMPDEST PUSH2 0x45 JUMP JUMPDEST STOP JUMPDEST PUSH1 0x0 PUSH1 0x60 DUP5 PUSH20 0xFFFFFFFFFFFFFFFFFFFFFFFFFFFFFFFFFFFFFFFF AND DUP5 DUP5 PUSH1 0x40 MLOAD PUSH2 0x70 SWAP3 SWAP2 SWAP1 PUSH2 0x160 JUMP JUMPDEST PUSH1 0x0 PUSH1 0x40 MLOAD DUP1 DUP4 SUB DUP2 DUP6 GAS DELEGATECALL SWAP2 POP POP RETURNDATASIZE DUP1 PUSH1 0x0 DUP2 EQ PUSH2 0xAB JUMPI PUSH1 0x40 MLOAD SWAP2 POP PUSH1 0x1F NOT PUSH1 0x3F RETURNDATASIZE ADD AND DUP3 ADD PUSH1 0x40 MSTORE RETURNDATASIZE DUP3 MSTORE RETURNDATASIZE PUSH1 0x0 PUSH1 0x20 DUP5 ADD RETURNDATACOPY PUSH2 0xB0 JUMP JUMPDEST PUSH1 0x60 SWAP2 POP JUMPDEST POP SWAP2 POP SWAP2 POP DUP2 PUSH2 0xC2 JUMPI DUP1 MLOAD PUSH1 0x20 DUP3 ADD REVERT JUMPDEST DUP1 MLOAD PUSH1 0x20 DUP3 ADD RETURN JUMPDEST PUSH1 0x0 DUP1 PUSH1 0x0 PUSH1 0x40 DUP5 DUP7 SUB SLT ISZERO PUSH2 0xDE JUMPI DUP3 DUP4 REVERT JUMPDEST DUP4 CALLDATALOAD PUSH20 0xFFFFFFFFFFFFFFFFFFFFFFFFFFFFFFFFFFFFFFFF DUP2 AND DUP2 EQ PUSH2 0x101 JUMPI DUP4 DUP5 REVERT JUMPDEST SWAP3 POP PUSH1 0x20 DUP5 ADD CALLDATALOAD PUSH8 0xFFFFFFFFFFFFFFFF DUP1 DUP3 GT ISZERO PUSH2 0x11D JUMPI DUP4 DUP5 REVERT JUMPDEST DUP2 DUP7 ADD DUP8 PUSH1 0x1F DUP3 ADD SLT PUSH2 0x12E JUMPI DUP5 DUP6 REVERT JUMPDEST DUP1 CALLDATALOAD SWAP3 POP DUP2 DUP4 GT ISZERO PUSH2 0x13E JUMPI DUP5 DUP6 REVERT JUMPDEST DUP8 PUSH1 0x20 DUP5 DUP4 ADD ADD GT ISZERO PUSH2 0x14F JUMPI DUP5 DUP6 REVERT JUMPDEST SWAP5 SWAP8 PUSH1 0x20 SWAP1 SWAP6 ADD SWAP7 POP SWAP1 SWAP5 POP POP POP POP JUMP JUMPDEST PUSH1 0x0 DUP3 DUP5 DUP4 CALLDATACOPY SWAP2 ADD SWAP1 DUP2 MSTORE SWAP2 SWAP1 POP JUMP INVALID LOG2 PUSH5 0x6970667358 0x22 SLT KECCAK256 0xC8 JUMPDEST 0x4B 0xD6 0xEC 0xCF EQ 0xA8 0xA8 0x27 0xAC 0xC6 PUSH19 0xF57C97F30CFC7ABC5F544612EA9FB21187C37 PUSH5 0x736F6C6343 STOP MOD EXP STOP CALLER "
            }
        }
    },
    "sourceTreeHashHex": "0x26a787070ed3cf046ee25b1768442af4b4f9821c23307f98e9e84c9864d17268",
    "compiler": {
        "name": "solc",
        "version": "0.6.10+commit.00c0fcaf",
        "settings": {
            "remappings": [
                "@0x/contracts-utils=/Users/jacob/projects/ethdev/0x/workspace-remote/workspace/0x-monorepo/node_modules/@0x/contracts-utils",
                "@0x/contracts-erc20=/Users/jacob/projects/ethdev/0x/workspace-remote/workspace/0x-monorepo/node_modules/@0x/contracts-erc20"
            ],
            "optimizer": {
                "enabled": true,
                "runs": 1000000,
                "details": {
                    "yul": true,
                    "deduplicate": true,
                    "cse": true,
                    "constantOptimizer": true
                }
            },
            "outputSelection": {
                "*": {
                    "*": [
                        "abi",
                        "devdoc",
                        "evm.bytecode.object",
                        "evm.bytecode.sourceMap",
                        "evm.deployedBytecode.object",
                        "evm.deployedBytecode.sourceMap"
                    ]
                }
            },
            "evmVersion": "istanbul"
        }
    },
    "chains": {}
}