{
    "schemaVersion": "2.0.0",
    "contractName": "TestMetaTransactionsTransformERC20Feature",
    "compilerOutput": {
        "abi": [
            {
                "anonymous": false,
                "inputs": [
                    {
                        "indexed": false,
                        "internalType": "address",
                        "name": "quoteSigner",
                        "type": "address"
                    }
                ],
                "name": "QuoteSignerUpdated",
                "type": "event"
            },
            {
                "anonymous": false,
                "inputs": [
                    {
                        "indexed": false,
                        "internalType": "address",
                        "name": "sender",
                        "type": "address"
                    },
                    {
                        "indexed": false,
                        "internalType": "uint256",
                        "name": "value",
                        "type": "uint256"
                    },
                    {
                        "indexed": false,
                        "internalType": "address",
                        "name": "taker",
                        "type": "address"
                    },
                    {
                        "indexed": false,
                        "internalType": "contract IERC20TokenV06",
                        "name": "inputToken",
                        "type": "address"
                    },
                    {
                        "indexed": false,
                        "internalType": "contract IERC20TokenV06",
                        "name": "outputToken",
                        "type": "address"
                    },
                    {
                        "indexed": false,
                        "internalType": "uint256",
                        "name": "inputTokenAmount",
                        "type": "uint256"
                    },
                    {
                        "indexed": false,
                        "internalType": "uint256",
                        "name": "minOutputTokenAmount",
                        "type": "uint256"
                    },
                    {
                        "components": [
                            {
                                "internalType": "uint32",
                                "name": "deploymentNonce",
                                "type": "uint32"
                            },
                            {
                                "internalType": "bytes",
                                "name": "data",
                                "type": "bytes"
                            }
                        ],
                        "indexed": false,
                        "internalType": "struct ITransformERC20Feature.Transformation[]",
                        "name": "transformations",
                        "type": "tuple[]"
                    },
                    {
                        "indexed": false,
                        "internalType": "bytes32",
                        "name": "callDataHash",
                        "type": "bytes32"
                    },
                    {
                        "indexed": false,
                        "internalType": "bytes",
                        "name": "callDataSignature",
                        "type": "bytes"
                    }
                ],
                "name": "TransformERC20Called",
                "type": "event"
            },
            {
                "anonymous": false,
                "inputs": [
                    {
                        "indexed": true,
                        "internalType": "address",
                        "name": "taker",
                        "type": "address"
                    },
                    {
                        "indexed": false,
                        "internalType": "address",
                        "name": "inputToken",
                        "type": "address"
                    },
                    {
                        "indexed": false,
                        "internalType": "address",
                        "name": "outputToken",
                        "type": "address"
                    },
                    {
                        "indexed": false,
                        "internalType": "uint256",
                        "name": "inputTokenAmount",
                        "type": "uint256"
                    },
                    {
                        "indexed": false,
                        "internalType": "uint256",
                        "name": "outputTokenAmount",
                        "type": "uint256"
                    }
                ],
                "name": "TransformedERC20",
                "type": "event"
            },
            {
                "anonymous": false,
                "inputs": [
                    {
                        "indexed": false,
                        "internalType": "address",
                        "name": "transformerDeployer",
                        "type": "address"
                    }
                ],
                "name": "TransformerDeployerUpdated",
                "type": "event"
            },
            {
                "inputs": [],
                "name": "FEATURE_NAME",
                "outputs": [
                    {
                        "internalType": "string",
                        "name": "",
                        "type": "string"
                    }
                ],
                "stateMutability": "view",
                "type": "function"
            },
            {
                "inputs": [],
                "name": "FEATURE_VERSION",
                "outputs": [
                    {
                        "internalType": "uint256",
                        "name": "",
                        "type": "uint256"
                    }
                ],
                "stateMutability": "view",
                "type": "function"
            },
            {
                "inputs": [
                    {
                        "components": [
                            {
                                "internalType": "address payable",
                                "name": "taker",
                                "type": "address"
                            },
                            {
                                "internalType": "contract IERC20TokenV06",
                                "name": "inputToken",
                                "type": "address"
                            },
                            {
                                "internalType": "contract IERC20TokenV06",
                                "name": "outputToken",
                                "type": "address"
                            },
                            {
                                "internalType": "uint256",
                                "name": "inputTokenAmount",
                                "type": "uint256"
                            },
                            {
                                "internalType": "uint256",
                                "name": "minOutputTokenAmount",
                                "type": "uint256"
                            },
                            {
                                "components": [
                                    {
                                        "internalType": "uint32",
                                        "name": "deploymentNonce",
                                        "type": "uint32"
                                    },
                                    {
                                        "internalType": "bytes",
                                        "name": "data",
                                        "type": "bytes"
                                    }
                                ],
                                "internalType": "struct ITransformERC20Feature.Transformation[]",
                                "name": "transformations",
                                "type": "tuple[]"
                            },
                            {
                                "internalType": "bytes32",
                                "name": "callDataHash",
                                "type": "bytes32"
                            },
                            {
                                "internalType": "bytes",
                                "name": "callDataSignature",
                                "type": "bytes"
                            }
                        ],
                        "internalType": "struct ITransformERC20Feature.TransformERC20Args",
                        "name": "args",
                        "type": "tuple"
                    }
                ],
                "name": "_transformERC20",
                "outputs": [
                    {
                        "internalType": "uint256",
                        "name": "outputTokenAmount",
                        "type": "uint256"
                    }
                ],
                "stateMutability": "payable",
                "type": "function"
            },
            {
                "inputs": [],
                "name": "createTransformWallet",
                "outputs": [
                    {
                        "internalType": "contract IFlashWallet",
                        "name": "wallet",
                        "type": "address"
                    }
                ],
                "stateMutability": "nonpayable",
                "type": "function"
            },
            {
                "inputs": [],
                "name": "getQuoteSigner",
                "outputs": [
                    {
                        "internalType": "address",
                        "name": "signer",
                        "type": "address"
                    }
                ],
                "stateMutability": "view",
                "type": "function"
            },
            {
                "inputs": [],
                "name": "getTransformWallet",
                "outputs": [
                    {
                        "internalType": "contract IFlashWallet",
                        "name": "wallet",
                        "type": "address"
                    }
                ],
                "stateMutability": "view",
                "type": "function"
            },
            {
                "inputs": [],
                "name": "getTransformerDeployer",
                "outputs": [
                    {
                        "internalType": "address",
                        "name": "deployer",
                        "type": "address"
                    }
                ],
                "stateMutability": "view",
                "type": "function"
            },
            {
                "inputs": [
                    {
                        "internalType": "address",
                        "name": "transformerDeployer",
                        "type": "address"
                    }
                ],
                "name": "migrate",
                "outputs": [
                    {
                        "internalType": "bytes4",
                        "name": "success",
                        "type": "bytes4"
                    }
                ],
                "stateMutability": "nonpayable",
                "type": "function"
            },
            {
                "inputs": [
                    {
                        "internalType": "address",
                        "name": "quoteSigner",
                        "type": "address"
                    }
                ],
                "name": "setQuoteSigner",
                "outputs": [],
                "stateMutability": "nonpayable",
                "type": "function"
            },
            {
                "inputs": [
                    {
                        "internalType": "address",
                        "name": "transformerDeployer",
                        "type": "address"
                    }
                ],
                "name": "setTransformerDeployer",
                "outputs": [],
                "stateMutability": "nonpayable",
                "type": "function"
            },
            {
                "inputs": [
                    {
                        "internalType": "contract IERC20TokenV06",
                        "name": "inputToken",
                        "type": "address"
                    },
                    {
                        "internalType": "contract IERC20TokenV06",
                        "name": "outputToken",
                        "type": "address"
                    },
                    {
                        "internalType": "uint256",
                        "name": "inputTokenAmount",
                        "type": "uint256"
                    },
                    {
                        "internalType": "uint256",
                        "name": "minOutputTokenAmount",
                        "type": "uint256"
                    },
                    {
                        "components": [
                            {
                                "internalType": "uint32",
                                "name": "deploymentNonce",
                                "type": "uint32"
                            },
                            {
                                "internalType": "bytes",
                                "name": "data",
                                "type": "bytes"
                            }
                        ],
                        "internalType": "struct ITransformERC20Feature.Transformation[]",
                        "name": "transformations",
                        "type": "tuple[]"
                    }
                ],
                "name": "transformERC20",
                "outputs": [
                    {
                        "internalType": "uint256",
                        "name": "outputTokenAmount",
                        "type": "uint256"
                    }
                ],
                "stateMutability": "payable",
                "type": "function"
            }
        ],
        "devdoc": {
            "kind": "dev",
            "methods": {
                "_transformERC20((address,address,address,uint256,uint256,(uint32,bytes)[],bytes32,bytes))": {
                    "details": "Internal version of `transformERC20()`. Only callable from within.",
                    "params": {
                        "args": "A `TransformERC20Args` struct."
                    },
                    "returns": {
                        "outputTokenAmount": "The amount of `outputToken` received by the taker."
                    }
                },
                "createTransformWallet()": {
                    "details": "Deploy a new wallet instance and replace the current one with it.      Useful if we somehow break the current wallet instance.      Only callable by the owner.",
                    "returns": {
                        "wallet": "The new wallet instance."
                    }
                },
                "getQuoteSigner()": {
                    "details": "Return the optional signer for `transformERC20()` calldata.",
                    "returns": {
                        "signer": "The signer address."
                    }
                },
                "getTransformWallet()": {
                    "details": "Return the current wallet instance that will serve as the execution      context for transformations.",
                    "returns": {
                        "wallet": "The wallet instance."
                    }
                },
                "getTransformerDeployer()": {
                    "details": "Return the allowed deployer for transformers.",
                    "returns": {
                        "deployer": "The transform deployer address."
                    }
                },
                "migrate(address)": {
                    "details": "Initialize and register this feature.      Should be delegatecalled by `Migrate.migrate()`.",
                    "params": {
                        "transformerDeployer": "The trusted deployer for transformers."
                    },
                    "returns": {
                        "success": "`LibMigrate.SUCCESS` on success."
                    }
                },
                "setQuoteSigner(address)": {
                    "details": "Replace the optional signer for `transformERC20()` calldata.      Only callable by the owner.",
                    "params": {
                        "quoteSigner": "The address of the new calldata signer."
                    }
                },
                "setTransformerDeployer(address)": {
                    "details": "Replace the allowed deployer for transformers.      Only callable by the owner.",
                    "params": {
                        "transformerDeployer": "The address of the trusted deployer for transformers."
                    }
                },
                "transformERC20(address,address,uint256,uint256,(uint32,bytes)[])": {
                    "details": "Executes a series of transformations to convert an ERC20 `inputToken`      to an ERC20 `outputToken`.",
                    "params": {
                        "inputToken": "The token being provided by the sender.        If `0xeee...`, ETH is implied and should be provided with the call.`",
                        "inputTokenAmount": "The amount of `inputToken` to take from the sender.        If set to `uint256(-1)`, the entire spendable balance of the taker        will be solt.",
                        "minOutputTokenAmount": "The minimum amount of `outputToken` the sender        must receive for the entire transformation to succeed. If set to zero,        the minimum output token transfer will not be asserted.",
                        "outputToken": "The token to be acquired by the sender.        `0xeee...` implies ETH.",
                        "transformations": "The transformations to execute on the token balance(s)        in sequence."
                    },
                    "returns": {
                        "outputTokenAmount": "The amount of `outputToken` received by the sender."
                    }
                }
            },
            "version": 1
        },
        "evm": {
            "bytecode": {
                "linkReferences": {},
                "object": "0x60c060405261001260016002600061002e565b60a05234801561002157600080fd5b503060601b608052610060565b6bffffffff0000000000000000604084901b1667ffffffff00000000602084901b161763ffffffff8216179392505050565b60805160601c60a051613b0762000087600039806102065250806112855250613b076000f3fe6080604052600436106100bc5760003560e01c80636ae4b4f711610074578063c853c9691161004e578063c853c969146101af578063ce5494bb146101c2578063f028e9be146101ef576100bc565b80636ae4b4f71461015857806387c964191461017a5780639f1ec78b1461019a576100bc565b8063415565b0116100a5578063415565b01461010e5780634d54cdb61461012157806356ce180a14610136576100bc565b8063031b905c146100c1578063287b071b146100ec575b600080fd5b3480156100cd57600080fd5b506100d6610204565b6040516100e39190612cee565b60405180910390f35b3480156100f857600080fd5b50610101610228565b6040516100e391906127e6565b6100d661011c3660046124f9565b610355565b34801561012d57600080fd5b5061010161042e565b34801561014257600080fd5b5061015661015136600461239d565b610457565b005b34801561016457600080fd5b5061016d61058e565b6040516100e39190612c2a565b34801561018657600080fd5b5061015661019536600461239d565b6105c7565b3480156101a657600080fd5b506101016106f3565b6100d66101bd36600461256d565b61071c565b3480156101ce57600080fd5b506101e26101dd36600461239d565b610aea565b6040516100e39190612b4e565b3480156101fb57600080fd5b50610101610dde565b7f000000000000000000000000000000000000000000000000000000000000000081565b6000803073ffffffffffffffffffffffffffffffffffffffff16638da5cb5b6040518163ffffffff1660e01b815260040160206040518083038186803b15801561027157600080fd5b505afa158015610285573d6000803e3d6000fd5b505050506040513d601f19601f820116820180604052508101906102a991906123b9565b90503373ffffffffffffffffffffffffffffffffffffffff8216146102da576102da6102d53383610e04565b610ec0565b506040516102e790612132565b604051809103906000f080158015610303573d6000803e3d6000fd5b5090508061030f610ec8565b80547fffffffffffffffffffffffff00000000000000000000000000000000000000001673ffffffffffffffffffffffffffffffffffffffff9290921691909117905590565b600080606061039a6000368080601f016020809104026020016040519081016040528093929190818152602001838380828437600092019190915250610ed592505050565b915091506104226040518061010001604052803373ffffffffffffffffffffffffffffffffffffffff1681526020018a73ffffffffffffffffffffffffffffffffffffffff1681526020018973ffffffffffffffffffffffffffffffffffffffff16815260200188815260200187815260200186815260200184815260200183815250610fcf565b98975050505050505050565b6000610438610ec8565b6001015473ffffffffffffffffffffffffffffffffffffffff16905090565b60003073ffffffffffffffffffffffffffffffffffffffff16638da5cb5b6040518163ffffffff1660e01b815260040160206040518083038186803b15801561049f57600080fd5b505afa1580156104b3573d6000803e3d6000fd5b505050506040513d601f19601f820116820180604052508101906104d791906123b9565b90503373ffffffffffffffffffffffffffffffffffffffff821614610503576105036102d53383610e04565b508061050d610ec8565b60020180547fffffffffffffffffffffffff00000000000000000000000000000000000000001673ffffffffffffffffffffffffffffffffffffffff929092169190911790556040517ff5550c5eea19b48ac6eb5f03abdc4f59c0a60697abb3d973cd68669703b5c8b9906105839083906127e6565b60405180910390a150565b6040518060400160405280600e81526020017f5472616e73666f726d455243323000000000000000000000000000000000000081525081565b60003073ffffffffffffffffffffffffffffffffffffffff16638da5cb5b6040518163ffffffff1660e01b815260040160206040518083038186803b15801561060f57600080fd5b505afa158015610623573d6000803e3d6000fd5b505050506040513d601f19601f8201168201806040525081019061064791906123b9565b90503373ffffffffffffffffffffffffffffffffffffffff821614610673576106736102d53383610e04565b508061067d610ec8565b60010180547fffffffffffffffffffffffff00000000000000000000000000000000000000001673ffffffffffffffffffffffffffffffffffffffff929092169190911790556040517ffd45604abad79c16e23348a137ed8292661be1b8eba6e4806ebed6833b1c046a906105839083906127e6565b60006106fd610ec8565b6002015473ffffffffffffffffffffffffffffffffffffffff16905090565b60003461029a1415610763576040517f08c379a000000000000000000000000000000000000000000000000000000000815260040161075a90612c3d565b60405180910390fd5b34610309141561087457604080516101408101825260008082526020808301829052828401829052606083018290526080830182905260a083018290528351908101845281815260c083015260e08201819052610100820181905261012082015290517f9b0518180000000000000000000000000000000000000000000000000000000081523091639b051818916107fe9190600401612c74565b600060405180830381600087803b15801561081857600080fd5b505af115801561082c573d6000803e3d6000fd5b505050506040513d6000823e601f3d9081017fffffffffffffffffffffffffffffffffffffffffffffffffffffffffffffffe016820160405261087291908101906124be565b505b346103781415610a7757604080516001808252818301909252606091816020015b61089d61213f565b81526020019060019003908161089557505060408051600180825281830190925291925060609190602082015b60608152602001906001900390816108ca579050509050604051806101400160405280600073ffffffffffffffffffffffffffffffffffffffff168152602001600073ffffffffffffffffffffffffffffffffffffffff1681526020016000815260200160008152602001600081526020016000815260200160405180602001604052806000815250815260200160008152602001600073ffffffffffffffffffffffffffffffffffffffff16815260200160008152508260008151811061098e57fe5b602002602001018190525060405180602001604052806000815250816000815181106109b657fe5b60209081029190910101526040517f769250ea000000000000000000000000000000000000000000000000000000008152309063769250ea906109ff9085908590600401612a3c565b600060405180830381600087803b158015610a1957600080fd5b505af1158015610a2d573d6000803e3d6000fd5b505050506040513d6000823e601f3d9081017fffffffffffffffffffffffffffffffffffffffffffffffffffffffffffffffe0168201604052610a7391908101906123d5565b5050505b7fc21a8c994e961f7bb11bb948cda495299e92e615bbec18172088c5e1866dd5173334846000015185602001518660400151876060015188608001518960a001518a60c001518b60e00151604051610ad89a99989796959493929190612836565b60405180910390a1506105395b919050565b6000610b157f4d54cdb60000000000000000000000000000000000000000000000000000000061124f565b610b3e7f287b071b0000000000000000000000000000000000000000000000000000000061124f565b610b677ff028e9be0000000000000000000000000000000000000000000000000000000061124f565b610b907f87c964190000000000000000000000000000000000000000000000000000000061124f565b610bb97f56ce180a0000000000000000000000000000000000000000000000000000000061124f565b610be27f9f1ec78b0000000000000000000000000000000000000000000000000000000061124f565b610c0b7f415565b00000000000000000000000000000000000000000000000000000000061124f565b610c347fc853c9690000000000000000000000000000000000000000000000000000000061124f565b600073ffffffffffffffffffffffffffffffffffffffff163073ffffffffffffffffffffffffffffffffffffffff1663f028e9be6040518163ffffffff1660e01b815260040160206040518083038186803b158015610c9257600080fd5b505afa158015610ca6573d6000803e3d6000fd5b505050506040513d601f19601f82011682018060405250810190610cca91906123b9565b73ffffffffffffffffffffffffffffffffffffffff161415610d68573073ffffffffffffffffffffffffffffffffffffffff1663287b071b6040518163ffffffff1660e01b8152600401602060405180830381600087803b158015610d2e57600080fd5b505af1158015610d42573d6000803e3d6000fd5b505050506040513d601f19601f82011682018060405250810190610d6691906123b9565b505b81610d71610ec8565b60010180547fffffffffffffffffffffffff00000000000000000000000000000000000000001673ffffffffffffffffffffffffffffffffffffffff92909216919091179055507f2c64c5ef00000000000000000000000000000000000000000000000000000000919050565b6000610de8610ec8565b5473ffffffffffffffffffffffffffffffffffffffff16905090565b60607f1de45ad18e8a4484220a3ca14f4d977641addbaba5a344b1384dc2aa78a2e34d8383604051602401610e3a929190612940565b604080517fffffffffffffffffffffffffffffffffffffffffffffffffffffffffffffffe08184030181529190526020810180517bffffffffffffffffffffffffffffffffffffffffffffffffffffffff167fffffffff000000000000000000000000000000000000000000000000000000009093169290921790915290505b92915050565b805160208201fd5b600080610eba60046112e2565b60006060604683511080610f5957508251610f139084907fffffffffffffffffffffffffffffffffffffffffffffffffffffffffffffffba016112fd565b7fffffffff00000000000000000000000000000000000000000000000000000000167ff86d1d920000000000000000000000000000000000000000000000000000000014155b15610f6c57825160208401209150610fca565b82517fffffffffffffffffffffffffffffffffffffffffffffffffffffffffffffffba810160208501209250610fc79084907fffffffffffffffffffffffffffffffffffffffffffffffffffffffffffffffbe810190611349565b90505b915091565b60007fffffffffffffffffffffffffffffffffffffffffffffffffffffffffffffffff8260600151141561109457602082015182516040517f496f471e000000000000000000000000000000000000000000000000000000008152309263496f471e9261103e92600401612940565b60206040518083038186803b15801561105657600080fd5b505afa15801561106a573d6000803e3d6000fd5b505050506040513d601f19601f8201168201806040525081019061108e9190612653565b60608301525b61109c6121d4565b6110a4610dde565b73ffffffffffffffffffffffffffffffffffffffff1681526110c461042e565b73ffffffffffffffffffffffffffffffffffffffff166020820152604083015183516110f091906113e7565b6040820152602083015183518251606086015161110f939291906114b7565b60006111238460c001518560e001516115a2565b905060005b8460a001515181101561116d5761116583600001518660a00151838151811061114d57fe5b60200260200101518560200151886000015186611688565b600101611128565b5050611181836040015184600001516113e7565b60608201819052604082015111156111ae576111ae6102d5846040015183606001518460400151036118b1565b604081015160608201516111c1916118e7565b915082608001518210156111e5576111e56102d58460400151848660800151611906565b826000015173ffffffffffffffffffffffffffffffffffffffff167f0f6672f78a59ba8e5e5b5d38df3ebc67f3c792e2c9259b8d97d7f00dd78ba1b3846020015185604001518660600151866040516112419493929190612967565b60405180910390a250919050565b6040517f6eb224cb0000000000000000000000000000000000000000000000000000000081523090636eb224cb906112ad9084907f000000000000000000000000000000000000000000000000000000000000000090600401612b7b565b600060405180830381600087803b1580156112c757600080fd5b505af11580156112db573d6000803e3d6000fd5b5050505050565b600060808260078111156112f257fe5b600101901b92915050565b6000816004018351101561131e5761131e6102d560038551856004016119c4565b5001602001517fffffffff000000000000000000000000000000000000000000000000000000001690565b606081831115611362576113626102d5600085856119c4565b835182111561137b5761137b6102d560018487516119c4565b82820367ffffffffffffffff8111801561139457600080fd5b506040519080825280601f01601f1916602001820160405280156113bf576020820181803683370190505b5090506113e06113ce826119e3565b846113d8876119e3565b0183516119e9565b9392505050565b60006113f283611aca565b15611415575073ffffffffffffffffffffffffffffffffffffffff811631610eba565b6040517f70a0823100000000000000000000000000000000000000000000000000000000815273ffffffffffffffffffffffffffffffffffffffff8416906370a08231906114679085906004016127e6565b60206040518083038186803b15801561147f57600080fd5b505afa158015611493573d6000803e3d6000fd5b505050506040513d601f19601f820116820180604052508101906113e09190612653565b34156115015760405173ffffffffffffffffffffffffffffffffffffffff8316903480156108fc02916000818181858888f193505050501580156114ff573d6000803e3d6000fd5b505b61150a84611aca565b611587576040517f89dd02e700000000000000000000000000000000000000000000000000000000815230906389dd02e790611550908790879087908790600401612bc3565b600060405180830381600087803b15801561156a57600080fd5b505af115801561157e573d6000803e3d6000fd5b5050505061159c565b8034101561159c5761159c6102d53483611afc565b50505050565b6000806115ad6106f3565b905073ffffffffffffffffffffffffffffffffffffffff81166115d35783915050610eba565b82516115e3575060009050610eba565b6040517f8171c4070000000000000000000000000000000000000000000000000000000081523090638171c4079061162390879085908890600401612b10565b60206040518083038186803b15801561163b57600080fd5b505afa15801561164f573d6000803e3d6000fd5b505050506040513d601f19601f82011682018060405250810190611673919061245e565b156116815783915050610eba565b5092915050565b6000611698848660000151611b32565b905060608673ffffffffffffffffffffffffffffffffffffffff1663b68df16d8363df9aa1ee60e01b60405180608001604052808881526020013373ffffffffffffffffffffffffffffffffffffffff1681526020018973ffffffffffffffffffffffffffffffffffffffff1681526020018b602001518152506040516024016117229190612c99565b604080517fffffffffffffffffffffffffffffffffffffffffffffffffffffffffffffffe08184030181529181526020820180517bffffffffffffffffffffffffffffffffffffffffffffffffffffffff167fffffffff000000000000000000000000000000000000000000000000000000009485161790525160e085901b90921682526117b39291600401612807565b600060405180830381600087803b1580156117cd57600080fd5b505af11580156117e1573d6000803e3d6000fd5b505050506040513d6000823e601f3d9081017fffffffffffffffffffffffffffffffffffffffffffffffffffffffffffffffe016820160405261182791908101906124be565b905080516020141580611891575080517f13c9929e000000000000000000000000000000000000000000000000000000009061186c908301602090810190840161247e565b7fffffffff000000000000000000000000000000000000000000000000000000001614155b156118a8576118a86102d583886020015184611ba1565b50505050505050565b60607f3ea25a3cae94e681748e39876b75ce362a9159c4618787bc1250e3d9f9c439108383604051602401610e3a9291906129e8565b600082821115611900576119006102d560028585611bd9565b50900390565b60607f990174d2378c7614a3e4722867cea0a803c0cc16ef92c4f5466ed5bc1d3496da84848460405160240161193e93929190612a0e565b604080517fffffffffffffffffffffffffffffffffffffffffffffffffffffffffffffffe08184030181529190526020810180517bffffffffffffffffffffffffffffffffffffffffffffffffffffffff167fffffffff000000000000000000000000000000000000000000000000000000009093169290921790915290509392505050565b6060632800659560e01b84848460405160240161193e93929190612c1c565b60200190565b6020811015611a30578151835160208390036101000a7fffffffffffffffffffffffffffffffffffffffffffffffffffffffffffffffff0180199092169116178352611ac5565b82821415611a3d57611ac5565b82821115611a775760208103905080820181840181515b82851015611a6f578451865260209586019590940193611a54565b905250611ac5565b60208103905080820181840183515b81861215611ac057825182527fffffffffffffffffffffffffffffffffffffffffffffffffffffffffffffffe09283019290910190611a86565b855250505b505050565b73ffffffffffffffffffffffffffffffffffffffff811673eeeeeeeeeeeeeeeeeeeeeeeeeeeeeeeeeeeeeeee14919050565b60607f96660ab143a5c6a946233c268494b1026bfca53373c9715e0fe96b3c59c850448383604051602401610e3a929190612cf7565b60006060611b3f83611bf8565b9050805160d50160f81b609460f81b8583604051602001611b639493929190612767565b604080517fffffffffffffffffffffffffffffffffffffffffffffffffffffffffffffffe08184030181529190528051602090910120949350505050565b60607ff21e5cb42b911ca6b3898f8618760aa7d84fe5d43a7a5ad89aa791c66cafe41384848460405160240161193e9392919061299d565b606063e946c1bb60e01b84848460405160240161193e93929190612bfa565b606063ffffffff8216611c6a5760408051600180825281830190925290602082018180368337019050509050608060f81b81600081518110611c3657fe5b60200101907effffffffffffffffffffffffffffffffffffffffffffffffffffffffffffff1916908160001a905350610ae5565b60808263ffffffff161015611ca957604080516001808252818301909252906020820181803683370190505090508160f81b81600081518110611c3657fe5b60ff8263ffffffff1611611d285760408051600280825281830190925290602082018180368337019050509050608160f81b81600081518110611ce857fe5b60200101907effffffffffffffffffffffffffffffffffffffffffffffffffffffffffffff1916908160001a9053508160f81b81600181518110611c3657fe5b61ffff8263ffffffff1611611e0e5760408051600380825281830190925290602082018180368337019050509050608260f81b81600081518110611d6857fe5b60200101907effffffffffffffffffffffffffffffffffffffffffffffffffffffffffffff1916908160001a90535080517fff0000000000000000000000000000000000000000000000000000000000000060f084901b169082906001908110611dce57fe5b60200101907effffffffffffffffffffffffffffffffffffffffffffffffffffffffffffff1916908160001a9053508160f81b81600281518110611c3657fe5b62ffffff8263ffffffff1611611f5b5760408051600480825281830190925290602082018180368337019050509050608360f81b81600081518110611e4f57fe5b60200101907effffffffffffffffffffffffffffffffffffffffffffffffffffffffffffff1916908160001a90535080517fff0000000000000000000000000000000000000000000000000000000000000060e884901b169082906001908110611eb557fe5b60200101907effffffffffffffffffffffffffffffffffffffffffffffffffffffffffffff1916908160001a90535080517fff0000000000000000000000000000000000000000000000000000000000000060f084901b169082906002908110611f1b57fe5b60200101907effffffffffffffffffffffffffffffffffffffffffffffffffffffffffffff1916908160001a9053508160f81b81600381518110611c3657fe5b60408051600580825281830190925290602082018180368337019050509050608460f81b81600081518110611f8c57fe5b60200101907effffffffffffffffffffffffffffffffffffffffffffffffffffffffffffff1916908160001a90535080517fff0000000000000000000000000000000000000000000000000000000000000060e084901b169082906001908110611ff257fe5b60200101907effffffffffffffffffffffffffffffffffffffffffffffffffffffffffffff1916908160001a90535080517fff0000000000000000000000000000000000000000000000000000000000000060e884901b16908290600290811061205857fe5b60200101907effffffffffffffffffffffffffffffffffffffffffffffffffffffffffffff1916908160001a90535080517fff0000000000000000000000000000000000000000000000000000000000000060f084901b1690829060039081106120be57fe5b60200101907effffffffffffffffffffffffffffffffffffffffffffffffffffffffffffff1916908160001a9053508160f81b816004815181106120fe57fe5b60200101907effffffffffffffffffffffffffffffffffffffffffffffffffffffffffffff1916908160001a905350919050565b610ce080612df283390190565b604051806101400160405280600073ffffffffffffffffffffffffffffffffffffffff168152602001600073ffffffffffffffffffffffffffffffffffffffff168152602001600081526020016000815260200160008152602001600081526020016060815260200160008152602001600073ffffffffffffffffffffffffffffffffffffffff168152602001600081525090565b6040518060800160405280600073ffffffffffffffffffffffffffffffffffffffff168152602001600073ffffffffffffffffffffffffffffffffffffffff16815260200160008152602001600081525090565b8035610eba81612dba565b600082601f830112612243578081fd5b813561225661225182612d2c565b612d05565b818152915060208083019084810160005b848110156122fe57813587016040807fffffffffffffffffffffffffffffffffffffffffffffffffffffffffffffffe0838c030112156122a657600080fd5b6122af81612d05565b858301356122bc81612ddf565b8152908201359067ffffffffffffffff8211156122d857600080fd5b6122e68b8784860101612309565b81870152865250509282019290820190600101612267565b505050505092915050565b600082601f830112612319578081fd5b813561232761225182612d4c565b915080825283602082850101111561233e57600080fd5b8060208401602084013760009082016020015292915050565b600082601f830112612367578081fd5b815161237561225182612d4c565b915080825283602082850101111561238c57600080fd5b611681816020840160208601612d8e565b6000602082840312156123ae578081fd5b81356113e081612dba565b6000602082840312156123ca578081fd5b81516113e081612dba565b600060208083850312156123e7578182fd5b825167ffffffffffffffff8111156123fd578283fd5b8301601f8101851361240d578283fd5b805161241b61225182612d2c565b81815283810190838501865b848110156124505761243e8a888451890101612357565b84529286019290860190600101612427565b509098975050505050505050565b60006020828403121561246f578081fd5b815180151581146113e0578182fd5b60006020828403121561248f578081fd5b81517fffffffff00000000000000000000000000000000000000000000000000000000811681146113e0578182fd5b6000602082840312156124cf578081fd5b815167ffffffffffffffff8111156124e5578182fd5b6124f184828501612357565b949350505050565b600080600080600060a08688031215612510578081fd5b853561251b81612dba565b9450602086013561252b81612dba565b93506040860135925060608601359150608086013567ffffffffffffffff811115612554578182fd5b61256088828901612233565b9150509295509295909350565b60006020828403121561257e578081fd5b813567ffffffffffffffff80821115612595578283fd5b81840191506101008083870312156125ab578384fd5b6125b481612d05565b90506125c08684612228565b81526125cf8660208501612228565b60208201526125e18660408501612228565b6040820152606083013560608201526080830135608082015260a08301358281111561260b578485fd5b61261787828601612233565b60a08301525060c083013560c082015260e083013582811115612638578485fd5b61264487828601612309565b60e08301525095945050505050565b600060208284031215612664578081fd5b5051919050565b73ffffffffffffffffffffffffffffffffffffffff169052565b6000815180845261269d816020860160208601612d8e565b601f017fffffffffffffffffffffffffffffffffffffffffffffffffffffffffffffffe0169290920160200192915050565b60006101406126df84845161266b565b60208301516126f1602086018261266b565b5060408301516040850152606083015160608501526080830151608085015260a083015160a085015260c08301518160c086015261273182860182612685565b91505060e083015160e0850152610100808401516127518287018261266b565b5050610120928301519390920192909252919050565b60007fff0000000000000000000000000000000000000000000000000000000000000080871683528086166001840152507fffffffffffffffffffffffffffffffffffffffff0000000000000000000000008460601b16600283015282516127d6816016850160208701612d8e565b9190910160160195945050505050565b73ffffffffffffffffffffffffffffffffffffffff91909116815260200190565b600073ffffffffffffffffffffffffffffffffffffffff84168252604060208301526124f16040830184612685565b600061014080830173ffffffffffffffffffffffffffffffffffffffff808f16855260208e818701526040828f1681880152828e166060880152828d1660808801528b60a08801528a60c08801528460e08801528394508951925082845261016093508387019450838284028801019350818a01865b8481101561290f578886037ffffffffffffffffffffffffffffffffffffffffffffffffffffffffffffffea00187528151805163ffffffff1687528401518487018490526128fc84880182612685565b97850197965050908301906001016128ac565b50505050508561010085015283810361012085015261292e8186612685565b9e9d5050505050505050505050505050565b73ffffffffffffffffffffffffffffffffffffffff92831681529116602082015260400190565b73ffffffffffffffffffffffffffffffffffffffff94851681529290931660208301526040820152606081019190915260800190565b600073ffffffffffffffffffffffffffffffffffffffff85168252606060208301526129cc6060830185612685565b82810360408401526129de8185612685565b9695505050505050565b73ffffffffffffffffffffffffffffffffffffffff929092168252602082015260400190565b73ffffffffffffffffffffffffffffffffffffffff9390931683526020830191909152604082015260600190565b60006040820160408352808551808352606085019150602092506060838202860101838801855b83811015612aaf577fffffffffffffffffffffffffffffffffffffffffffffffffffffffffffffffa0888403018552612a9d8383516126cf565b94860194925090850190600101612a63565b50508581038487015280925086519150612ac98282612cee565b925050818382028301848801865b84811015612b01578383038652612aef838351612685565b95870195925090860190600101612ad7565b50909998505050505050505050565b600084825273ffffffffffffffffffffffffffffffffffffffff8416602083015260606040830152612b456060830184612685565b95945050505050565b7fffffffff0000000000000000000000000000000000000000000000000000000091909116815260200190565b7fffffffff0000000000000000000000000000000000000000000000000000000092909216825273ffffffffffffffffffffffffffffffffffffffff16602082015260400190565b73ffffffffffffffffffffffffffffffffffffffff9485168152928416602084015292166040820152606081019190915260800190565b6060810160048510612c0857fe5b938152602081019290925260409091015290565b6060810160088510612c0857fe5b6000602082526113e06020830184612685565b60208082526004908201527f4641494c00000000000000000000000000000000000000000000000000000000604082015260600190565b600060408252612c8760408301846126cf565b82810360209384015290815201919050565b60006020825282516020830152602083015173ffffffffffffffffffffffffffffffffffffffff8082166040850152806040860151166060850152505060608301516080808401526124f160a0840182612685565b90815260200190565b918252602082015260400190565b60405181810167ffffffffffffffff81118282101715612d2457600080fd5b604052919050565b600067ffffffffffffffff821115612d42578081fd5b5060209081020190565b600067ffffffffffffffff821115612d62578081fd5b50601f017fffffffffffffffffffffffffffffffffffffffffffffffffffffffffffffffe01660200190565b60005b83811015612da9578181015183820152602001612d91565b8381111561159c5750506000910152565b73ffffffffffffffffffffffffffffffffffffffff81168114612ddc57600080fd5b50565b63ffffffff81168114612ddc57600080fdfe60a060405234801561001057600080fd5b5033606081901b608052610c9b6100456000398061027952806102a7528061039952806103d552806104035250610c9b6000f3fe6080604052600436106100745760003560e01c8063b68df16d1161004e578063b68df16d146100f8578063bc197c811461010b578063c0ee0b8a14610138578063f23a6e611461015a5761007b565b806301ffc9a71461008057806354132d78146100b65780638da5cb5b146100d65761007b565b3661007b57005b600080fd5b34801561008c57600080fd5b506100a061009b366004610a3a565b61017a565b6040516100ad9190610bf5565b60405180910390f35b6100c96100c4366004610851565b61025f565b6040516100ad9190610c2d565b3480156100e257600080fd5b506100eb610397565b6040516100ad9190610afa565b6100c96101063660046107fe565b6103bb565b34801561011757600080fd5b5061012b6101263660046108ab565b6104e8565b6040516100ad9190610c00565b34801561014457600080fd5b506101586101533660046109e0565b610515565b005b34801561016657600080fd5b5061012b610175366004610966565b61051b565b60007fffffffff0000000000000000000000000000000000000000000000000000000082167f01ffc9a700000000000000000000000000000000000000000000000000000000148061020d57507fffffffff0000000000000000000000000000000000000000000000000000000082167f4e2312e000000000000000000000000000000000000000000000000000000000145b8061025957507fffffffff0000000000000000000000000000000000000000000000000000000082167fc0ee0b8a00000000000000000000000000000000000000000000000000000000145b92915050565b60603373ffffffffffffffffffffffffffffffffffffffff7f000000000000000000000000000000000000000000000000000000000000000016146102d0576102d06102cb337f0000000000000000000000000000000000000000000000000000000000000000610546565b6105e8565b60008573ffffffffffffffffffffffffffffffffffffffff168386866040516102fa929190610aea565b60006040518083038185875af1925050503d8060008114610337576040519150601f19603f3d011682016040523d82523d6000602084013e61033c565b606091505b50925090508061038e5761038e6102cb308888888080601f0160208091040260200160405190810160405280939291908181526020018383808284376000920191909152508a92508991506105f09050565b50949350505050565b7f000000000000000000000000000000000000000000000000000000000000000081565b60603373ffffffffffffffffffffffffffffffffffffffff7f00000000000000000000000000000000000000000000000000000000000000001614610427576104276102cb337f0000000000000000000000000000000000000000000000000000000000000000610546565b60008473ffffffffffffffffffffffffffffffffffffffff168484604051610450929190610aea565b600060405180830381855af49150503d806000811461048b576040519150601f19603f3d011682016040523d82523d6000602084013e610490565b606091505b5092509050806104e0576104e06102cb308787878080601f0160208091040260200160405190810160405280939291908181526020018383808284376000920191909152508992506106b4915050565b509392505050565b7fbc197c810000000000000000000000000000000000000000000000000000000098975050505050505050565b50505050565b7ff23a6e61000000000000000000000000000000000000000000000000000000009695505050505050565b6060631de45ad160e01b8383604051602401610563929190610b1b565b604080517fffffffffffffffffffffffffffffffffffffffffffffffffffffffffffffffe08184030181529190526020810180517bffffffffffffffffffffffffffffffffffffffffffffffffffffffff167fffffffff0000000000000000000000000000000000000000000000000000000090931692909217909152905092915050565b805160208201fd5b60607f86945816f737646db7f2d6df01602a2212e8c75829f6940913724c13a83a8178868686868660405160240161062c959493929190610b98565b604080517fffffffffffffffffffffffffffffffffffffffffffffffffffffffffffffffe08184030181529190526020810180517bffffffffffffffffffffffffffffffffffffffffffffffffffffffff167fffffffff0000000000000000000000000000000000000000000000000000000090931692909217909152905095945050505050565b60607f61e5a7320b4cf56a2980a427f39e3071c967bf2f77fffcaae20e4467e160afcc858585856040516024016106ee9493929190610b42565b604080517fffffffffffffffffffffffffffffffffffffffffffffffffffffffffffffffe08184030181529190526020810180517bffffffffffffffffffffffffffffffffffffffffffffffffffffffff167fffffffff00000000000000000000000000000000000000000000000000000000909316929092179091529050949350505050565b60008083601f840112610786578182fd5b50813567ffffffffffffffff81111561079d578182fd5b60208301915083602080830285010111156107b757600080fd5b9250929050565b60008083601f8401126107cf578182fd5b50813567ffffffffffffffff8111156107e6578182fd5b6020830191508360208285010111156107b757600080fd5b600080600060408486031215610812578283fd5b833561081d81610c40565b9250602084013567ffffffffffffffff811115610838578283fd5b610844868287016107be565b9497909650939450505050565b60008060008060608587031215610866578081fd5b843561087181610c40565b9350602085013567ffffffffffffffff81111561088c578182fd5b610898878288016107be565b9598909750949560400135949350505050565b60008060008060008060008060a0898b0312156108c6578384fd5b88356108d181610c40565b975060208901356108e181610c40565b9650604089013567ffffffffffffffff808211156108fd578586fd5b6109098c838d01610775565b909850965060608b0135915080821115610921578586fd5b61092d8c838d01610775565b909650945060808b0135915080821115610945578384fd5b506109528b828c016107be565b999c989b5096995094979396929594505050565b60008060008060008060a0878903121561097e578182fd5b863561098981610c40565b9550602087013561099981610c40565b94506040870135935060608701359250608087013567ffffffffffffffff8111156109c2578283fd5b6109ce89828a016107be565b979a9699509497509295939492505050565b600080600080606085870312156109f5578384fd5b8435610a0081610c40565b935060208501359250604085013567ffffffffffffffff811115610a22578283fd5b610a2e878288016107be565b95989497509550505050565b600060208284031215610a4b578081fd5b81357fffffffff0000000000000000000000000000000000000000000000000000000081168114610a7a578182fd5b9392505050565b60008151808452815b81811015610aa657602081850181015186830182015201610a8a565b81811115610ab75782602083870101525b50601f017fffffffffffffffffffffffffffffffffffffffffffffffffffffffffffffffe0169290920160200192915050565b6000828483379101908152919050565b73ffffffffffffffffffffffffffffffffffffffff91909116815260200190565b73ffffffffffffffffffffffffffffffffffffffff92831681529116602082015260400190565b600073ffffffffffffffffffffffffffffffffffffffff808716835280861660208401525060806040830152610b7b6080830185610a81565b8281036060840152610b8d8185610a81565b979650505050505050565b600073ffffffffffffffffffffffffffffffffffffffff808816835280871660208401525060a06040830152610bd160a0830186610a81565b8460608401528281036080840152610be98185610a81565b98975050505050505050565b901515815260200190565b7fffffffff0000000000000000000000000000000000000000000000000000000091909116815260200190565b600060208252610a7a6020830184610a81565b73ffffffffffffffffffffffffffffffffffffffff81168114610c6257600080fd5b5056fea26469706673582212202693caafd0beeadf9d6f42f9dedf3503687e8f05a3baee4ec4d8860b835633e864736f6c634300060c0033a2646970667358221220c9a0bb7159e33f66d5428a727f38939ec0c2dd45cbba3e7bffcd06b17c7d67b064736f6c634300060c0033",
                "opcodes": "PUSH1 0xC0 PUSH1 0x40 MSTORE PUSH2 0x12 PUSH1 0x1 PUSH1 0x2 PUSH1 0x0 PUSH2 0x2E JUMP JUMPDEST PUSH1 0xA0 MSTORE CALLVALUE DUP1 ISZERO PUSH2 0x21 JUMPI PUSH1 0x0 DUP1 REVERT JUMPDEST POP ADDRESS PUSH1 0x60 SHL PUSH1 0x80 MSTORE PUSH2 0x60 JUMP JUMPDEST PUSH12 0xFFFFFFFF0000000000000000 PUSH1 0x40 DUP5 SWAP1 SHL AND PUSH8 0xFFFFFFFF00000000 PUSH1 0x20 DUP5 SWAP1 SHL AND OR PUSH4 0xFFFFFFFF DUP3 AND OR SWAP4 SWAP3 POP POP POP JUMP JUMPDEST PUSH1 0x80 MLOAD PUSH1 0x60 SHR PUSH1 0xA0 MLOAD PUSH2 0x3B07 PUSH3 0x87 PUSH1 0x0 CODECOPY DUP1 PUSH2 0x206 MSTORE POP DUP1 PUSH2 0x1285 MSTORE POP PUSH2 0x3B07 PUSH1 0x0 RETURN INVALID PUSH1 0x80 PUSH1 0x40 MSTORE PUSH1 0x4 CALLDATASIZE LT PUSH2 0xBC JUMPI PUSH1 0x0 CALLDATALOAD PUSH1 0xE0 SHR DUP1 PUSH4 0x6AE4B4F7 GT PUSH2 0x74 JUMPI DUP1 PUSH4 0xC853C969 GT PUSH2 0x4E JUMPI DUP1 PUSH4 0xC853C969 EQ PUSH2 0x1AF JUMPI DUP1 PUSH4 0xCE5494BB EQ PUSH2 0x1C2 JUMPI DUP1 PUSH4 0xF028E9BE EQ PUSH2 0x1EF JUMPI PUSH2 0xBC JUMP JUMPDEST DUP1 PUSH4 0x6AE4B4F7 EQ PUSH2 0x158 JUMPI DUP1 PUSH4 0x87C96419 EQ PUSH2 0x17A JUMPI DUP1 PUSH4 0x9F1EC78B EQ PUSH2 0x19A JUMPI PUSH2 0xBC JUMP JUMPDEST DUP1 PUSH4 0x415565B0 GT PUSH2 0xA5 JUMPI DUP1 PUSH4 0x415565B0 EQ PUSH2 0x10E JUMPI DUP1 PUSH4 0x4D54CDB6 EQ PUSH2 0x121 JUMPI DUP1 PUSH4 0x56CE180A EQ PUSH2 0x136 JUMPI PUSH2 0xBC JUMP JUMPDEST DUP1 PUSH4 0x31B905C EQ PUSH2 0xC1 JUMPI DUP1 PUSH4 0x287B071B EQ PUSH2 0xEC JUMPI JUMPDEST PUSH1 0x0 DUP1 REVERT JUMPDEST CALLVALUE DUP1 ISZERO PUSH2 0xCD JUMPI PUSH1 0x0 DUP1 REVERT JUMPDEST POP PUSH2 0xD6 PUSH2 0x204 JUMP JUMPDEST PUSH1 0x40 MLOAD PUSH2 0xE3 SWAP2 SWAP1 PUSH2 0x2CEE JUMP JUMPDEST PUSH1 0x40 MLOAD DUP1 SWAP2 SUB SWAP1 RETURN JUMPDEST CALLVALUE DUP1 ISZERO PUSH2 0xF8 JUMPI PUSH1 0x0 DUP1 REVERT JUMPDEST POP PUSH2 0x101 PUSH2 0x228 JUMP JUMPDEST PUSH1 0x40 MLOAD PUSH2 0xE3 SWAP2 SWAP1 PUSH2 0x27E6 JUMP JUMPDEST PUSH2 0xD6 PUSH2 0x11C CALLDATASIZE PUSH1 0x4 PUSH2 0x24F9 JUMP JUMPDEST PUSH2 0x355 JUMP JUMPDEST CALLVALUE DUP1 ISZERO PUSH2 0x12D JUMPI PUSH1 0x0 DUP1 REVERT JUMPDEST POP PUSH2 0x101 PUSH2 0x42E JUMP JUMPDEST CALLVALUE DUP1 ISZERO PUSH2 0x142 JUMPI PUSH1 0x0 DUP1 REVERT JUMPDEST POP PUSH2 0x156 PUSH2 0x151 CALLDATASIZE PUSH1 0x4 PUSH2 0x239D JUMP JUMPDEST PUSH2 0x457 JUMP JUMPDEST STOP JUMPDEST CALLVALUE DUP1 ISZERO PUSH2 0x164 JUMPI PUSH1 0x0 DUP1 REVERT JUMPDEST POP PUSH2 0x16D PUSH2 0x58E JUMP JUMPDEST PUSH1 0x40 MLOAD PUSH2 0xE3 SWAP2 SWAP1 PUSH2 0x2C2A JUMP JUMPDEST CALLVALUE DUP1 ISZERO PUSH2 0x186 JUMPI PUSH1 0x0 DUP1 REVERT JUMPDEST POP PUSH2 0x156 PUSH2 0x195 CALLDATASIZE PUSH1 0x4 PUSH2 0x239D JUMP JUMPDEST PUSH2 0x5C7 JUMP JUMPDEST CALLVALUE DUP1 ISZERO PUSH2 0x1A6 JUMPI PUSH1 0x0 DUP1 REVERT JUMPDEST POP PUSH2 0x101 PUSH2 0x6F3 JUMP JUMPDEST PUSH2 0xD6 PUSH2 0x1BD CALLDATASIZE PUSH1 0x4 PUSH2 0x256D JUMP JUMPDEST PUSH2 0x71C JUMP JUMPDEST CALLVALUE DUP1 ISZERO PUSH2 0x1CE JUMPI PUSH1 0x0 DUP1 REVERT JUMPDEST POP PUSH2 0x1E2 PUSH2 0x1DD CALLDATASIZE PUSH1 0x4 PUSH2 0x239D JUMP JUMPDEST PUSH2 0xAEA JUMP JUMPDEST PUSH1 0x40 MLOAD PUSH2 0xE3 SWAP2 SWAP1 PUSH2 0x2B4E JUMP JUMPDEST CALLVALUE DUP1 ISZERO PUSH2 0x1FB JUMPI PUSH1 0x0 DUP1 REVERT JUMPDEST POP PUSH2 0x101 PUSH2 0xDDE JUMP JUMPDEST PUSH32 0x0 DUP2 JUMP JUMPDEST PUSH1 0x0 DUP1 ADDRESS PUSH20 0xFFFFFFFFFFFFFFFFFFFFFFFFFFFFFFFFFFFFFFFF AND PUSH4 0x8DA5CB5B PUSH1 0x40 MLOAD DUP2 PUSH4 0xFFFFFFFF AND PUSH1 0xE0 SHL DUP2 MSTORE PUSH1 0x4 ADD PUSH1 0x20 PUSH1 0x40 MLOAD DUP1 DUP4 SUB DUP2 DUP7 DUP1 EXTCODESIZE ISZERO DUP1 ISZERO PUSH2 0x271 JUMPI PUSH1 0x0 DUP1 REVERT JUMPDEST POP GAS STATICCALL ISZERO DUP1 ISZERO PUSH2 0x285 JUMPI RETURNDATASIZE PUSH1 0x0 DUP1 RETURNDATACOPY RETURNDATASIZE PUSH1 0x0 REVERT JUMPDEST POP POP POP POP PUSH1 0x40 MLOAD RETURNDATASIZE PUSH1 0x1F NOT PUSH1 0x1F DUP3 ADD AND DUP3 ADD DUP1 PUSH1 0x40 MSTORE POP DUP2 ADD SWAP1 PUSH2 0x2A9 SWAP2 SWAP1 PUSH2 0x23B9 JUMP JUMPDEST SWAP1 POP CALLER PUSH20 0xFFFFFFFFFFFFFFFFFFFFFFFFFFFFFFFFFFFFFFFF DUP3 AND EQ PUSH2 0x2DA JUMPI PUSH2 0x2DA PUSH2 0x2D5 CALLER DUP4 PUSH2 0xE04 JUMP JUMPDEST PUSH2 0xEC0 JUMP JUMPDEST POP PUSH1 0x40 MLOAD PUSH2 0x2E7 SWAP1 PUSH2 0x2132 JUMP JUMPDEST PUSH1 0x40 MLOAD DUP1 SWAP2 SUB SWAP1 PUSH1 0x0 CREATE DUP1 ISZERO DUP1 ISZERO PUSH2 0x303 JUMPI RETURNDATASIZE PUSH1 0x0 DUP1 RETURNDATACOPY RETURNDATASIZE PUSH1 0x0 REVERT JUMPDEST POP SWAP1 POP DUP1 PUSH2 0x30F PUSH2 0xEC8 JUMP JUMPDEST DUP1 SLOAD PUSH32 0xFFFFFFFFFFFFFFFFFFFFFFFF0000000000000000000000000000000000000000 AND PUSH20 0xFFFFFFFFFFFFFFFFFFFFFFFFFFFFFFFFFFFFFFFF SWAP3 SWAP1 SWAP3 AND SWAP2 SWAP1 SWAP2 OR SWAP1 SSTORE SWAP1 JUMP JUMPDEST PUSH1 0x0 DUP1 PUSH1 0x60 PUSH2 0x39A PUSH1 0x0 CALLDATASIZE DUP1 DUP1 PUSH1 0x1F ADD PUSH1 0x20 DUP1 SWAP2 DIV MUL PUSH1 0x20 ADD PUSH1 0x40 MLOAD SWAP1 DUP2 ADD PUSH1 0x40 MSTORE DUP1 SWAP4 SWAP3 SWAP2 SWAP1 DUP2 DUP2 MSTORE PUSH1 0x20 ADD DUP4 DUP4 DUP1 DUP3 DUP5 CALLDATACOPY PUSH1 0x0 SWAP3 ADD SWAP2 SWAP1 SWAP2 MSTORE POP PUSH2 0xED5 SWAP3 POP POP POP JUMP JUMPDEST SWAP2 POP SWAP2 POP PUSH2 0x422 PUSH1 0x40 MLOAD DUP1 PUSH2 0x100 ADD PUSH1 0x40 MSTORE DUP1 CALLER PUSH20 0xFFFFFFFFFFFFFFFFFFFFFFFFFFFFFFFFFFFFFFFF AND DUP2 MSTORE PUSH1 0x20 ADD DUP11 PUSH20 0xFFFFFFFFFFFFFFFFFFFFFFFFFFFFFFFFFFFFFFFF AND DUP2 MSTORE PUSH1 0x20 ADD DUP10 PUSH20 0xFFFFFFFFFFFFFFFFFFFFFFFFFFFFFFFFFFFFFFFF AND DUP2 MSTORE PUSH1 0x20 ADD DUP9 DUP2 MSTORE PUSH1 0x20 ADD DUP8 DUP2 MSTORE PUSH1 0x20 ADD DUP7 DUP2 MSTORE PUSH1 0x20 ADD DUP5 DUP2 MSTORE PUSH1 0x20 ADD DUP4 DUP2 MSTORE POP PUSH2 0xFCF JUMP JUMPDEST SWAP9 SWAP8 POP POP POP POP POP POP POP POP JUMP JUMPDEST PUSH1 0x0 PUSH2 0x438 PUSH2 0xEC8 JUMP JUMPDEST PUSH1 0x1 ADD SLOAD PUSH20 0xFFFFFFFFFFFFFFFFFFFFFFFFFFFFFFFFFFFFFFFF AND SWAP1 POP SWAP1 JUMP JUMPDEST PUSH1 0x0 ADDRESS PUSH20 0xFFFFFFFFFFFFFFFFFFFFFFFFFFFFFFFFFFFFFFFF AND PUSH4 0x8DA5CB5B PUSH1 0x40 MLOAD DUP2 PUSH4 0xFFFFFFFF AND PUSH1 0xE0 SHL DUP2 MSTORE PUSH1 0x4 ADD PUSH1 0x20 PUSH1 0x40 MLOAD DUP1 DUP4 SUB DUP2 DUP7 DUP1 EXTCODESIZE ISZERO DUP1 ISZERO PUSH2 0x49F JUMPI PUSH1 0x0 DUP1 REVERT JUMPDEST POP GAS STATICCALL ISZERO DUP1 ISZERO PUSH2 0x4B3 JUMPI RETURNDATASIZE PUSH1 0x0 DUP1 RETURNDATACOPY RETURNDATASIZE PUSH1 0x0 REVERT JUMPDEST POP POP POP POP PUSH1 0x40 MLOAD RETURNDATASIZE PUSH1 0x1F NOT PUSH1 0x1F DUP3 ADD AND DUP3 ADD DUP1 PUSH1 0x40 MSTORE POP DUP2 ADD SWAP1 PUSH2 0x4D7 SWAP2 SWAP1 PUSH2 0x23B9 JUMP JUMPDEST SWAP1 POP CALLER PUSH20 0xFFFFFFFFFFFFFFFFFFFFFFFFFFFFFFFFFFFFFFFF DUP3 AND EQ PUSH2 0x503 JUMPI PUSH2 0x503 PUSH2 0x2D5 CALLER DUP4 PUSH2 0xE04 JUMP JUMPDEST POP DUP1 PUSH2 0x50D PUSH2 0xEC8 JUMP JUMPDEST PUSH1 0x2 ADD DUP1 SLOAD PUSH32 0xFFFFFFFFFFFFFFFFFFFFFFFF0000000000000000000000000000000000000000 AND PUSH20 0xFFFFFFFFFFFFFFFFFFFFFFFFFFFFFFFFFFFFFFFF SWAP3 SWAP1 SWAP3 AND SWAP2 SWAP1 SWAP2 OR SWAP1 SSTORE PUSH1 0x40 MLOAD PUSH32 0xF5550C5EEA19B48AC6EB5F03ABDC4F59C0A60697ABB3D973CD68669703B5C8B9 SWAP1 PUSH2 0x583 SWAP1 DUP4 SWAP1 PUSH2 0x27E6 JUMP JUMPDEST PUSH1 0x40 MLOAD DUP1 SWAP2 SUB SWAP1 LOG1 POP JUMP JUMPDEST PUSH1 0x40 MLOAD DUP1 PUSH1 0x40 ADD PUSH1 0x40 MSTORE DUP1 PUSH1 0xE DUP2 MSTORE PUSH1 0x20 ADD PUSH32 0x5472616E73666F726D4552433230000000000000000000000000000000000000 DUP2 MSTORE POP DUP2 JUMP JUMPDEST PUSH1 0x0 ADDRESS PUSH20 0xFFFFFFFFFFFFFFFFFFFFFFFFFFFFFFFFFFFFFFFF AND PUSH4 0x8DA5CB5B PUSH1 0x40 MLOAD DUP2 PUSH4 0xFFFFFFFF AND PUSH1 0xE0 SHL DUP2 MSTORE PUSH1 0x4 ADD PUSH1 0x20 PUSH1 0x40 MLOAD DUP1 DUP4 SUB DUP2 DUP7 DUP1 EXTCODESIZE ISZERO DUP1 ISZERO PUSH2 0x60F JUMPI PUSH1 0x0 DUP1 REVERT JUMPDEST POP GAS STATICCALL ISZERO DUP1 ISZERO PUSH2 0x623 JUMPI RETURNDATASIZE PUSH1 0x0 DUP1 RETURNDATACOPY RETURNDATASIZE PUSH1 0x0 REVERT JUMPDEST POP POP POP POP PUSH1 0x40 MLOAD RETURNDATASIZE PUSH1 0x1F NOT PUSH1 0x1F DUP3 ADD AND DUP3 ADD DUP1 PUSH1 0x40 MSTORE POP DUP2 ADD SWAP1 PUSH2 0x647 SWAP2 SWAP1 PUSH2 0x23B9 JUMP JUMPDEST SWAP1 POP CALLER PUSH20 0xFFFFFFFFFFFFFFFFFFFFFFFFFFFFFFFFFFFFFFFF DUP3 AND EQ PUSH2 0x673 JUMPI PUSH2 0x673 PUSH2 0x2D5 CALLER DUP4 PUSH2 0xE04 JUMP JUMPDEST POP DUP1 PUSH2 0x67D PUSH2 0xEC8 JUMP JUMPDEST PUSH1 0x1 ADD DUP1 SLOAD PUSH32 0xFFFFFFFFFFFFFFFFFFFFFFFF0000000000000000000000000000000000000000 AND PUSH20 0xFFFFFFFFFFFFFFFFFFFFFFFFFFFFFFFFFFFFFFFF SWAP3 SWAP1 SWAP3 AND SWAP2 SWAP1 SWAP2 OR SWAP1 SSTORE PUSH1 0x40 MLOAD PUSH32 0xFD45604ABAD79C16E23348A137ED8292661BE1B8EBA6E4806EBED6833B1C046A SWAP1 PUSH2 0x583 SWAP1 DUP4 SWAP1 PUSH2 0x27E6 JUMP JUMPDEST PUSH1 0x0 PUSH2 0x6FD PUSH2 0xEC8 JUMP JUMPDEST PUSH1 0x2 ADD SLOAD PUSH20 0xFFFFFFFFFFFFFFFFFFFFFFFFFFFFFFFFFFFFFFFF AND SWAP1 POP SWAP1 JUMP JUMPDEST PUSH1 0x0 CALLVALUE PUSH2 0x29A EQ ISZERO PUSH2 0x763 JUMPI PUSH1 0x40 MLOAD PUSH32 0x8C379A000000000000000000000000000000000000000000000000000000000 DUP2 MSTORE PUSH1 0x4 ADD PUSH2 0x75A SWAP1 PUSH2 0x2C3D JUMP JUMPDEST PUSH1 0x40 MLOAD DUP1 SWAP2 SUB SWAP1 REVERT JUMPDEST CALLVALUE PUSH2 0x309 EQ ISZERO PUSH2 0x874 JUMPI PUSH1 0x40 DUP1 MLOAD PUSH2 0x140 DUP2 ADD DUP3 MSTORE PUSH1 0x0 DUP1 DUP3 MSTORE PUSH1 0x20 DUP1 DUP4 ADD DUP3 SWAP1 MSTORE DUP3 DUP5 ADD DUP3 SWAP1 MSTORE PUSH1 0x60 DUP4 ADD DUP3 SWAP1 MSTORE PUSH1 0x80 DUP4 ADD DUP3 SWAP1 MSTORE PUSH1 0xA0 DUP4 ADD DUP3 SWAP1 MSTORE DUP4 MLOAD SWAP1 DUP2 ADD DUP5 MSTORE DUP2 DUP2 MSTORE PUSH1 0xC0 DUP4 ADD MSTORE PUSH1 0xE0 DUP3 ADD DUP2 SWAP1 MSTORE PUSH2 0x100 DUP3 ADD DUP2 SWAP1 MSTORE PUSH2 0x120 DUP3 ADD MSTORE SWAP1 MLOAD PUSH32 0x9B05181800000000000000000000000000000000000000000000000000000000 DUP2 MSTORE ADDRESS SWAP2 PUSH4 0x9B051818 SWAP2 PUSH2 0x7FE SWAP2 SWAP1 PUSH1 0x4 ADD PUSH2 0x2C74 JUMP JUMPDEST PUSH1 0x0 PUSH1 0x40 MLOAD DUP1 DUP4 SUB DUP2 PUSH1 0x0 DUP8 DUP1 EXTCODESIZE ISZERO DUP1 ISZERO PUSH2 0x818 JUMPI PUSH1 0x0 DUP1 REVERT JUMPDEST POP GAS CALL ISZERO DUP1 ISZERO PUSH2 0x82C JUMPI RETURNDATASIZE PUSH1 0x0 DUP1 RETURNDATACOPY RETURNDATASIZE PUSH1 0x0 REVERT JUMPDEST POP POP POP POP PUSH1 0x40 MLOAD RETURNDATASIZE PUSH1 0x0 DUP3 RETURNDATACOPY PUSH1 0x1F RETURNDATASIZE SWAP1 DUP2 ADD PUSH32 0xFFFFFFFFFFFFFFFFFFFFFFFFFFFFFFFFFFFFFFFFFFFFFFFFFFFFFFFFFFFFFFE0 AND DUP3 ADD PUSH1 0x40 MSTORE PUSH2 0x872 SWAP2 SWAP1 DUP2 ADD SWAP1 PUSH2 0x24BE JUMP JUMPDEST POP JUMPDEST CALLVALUE PUSH2 0x378 EQ ISZERO PUSH2 0xA77 JUMPI PUSH1 0x40 DUP1 MLOAD PUSH1 0x1 DUP1 DUP3 MSTORE DUP2 DUP4 ADD SWAP1 SWAP3 MSTORE PUSH1 0x60 SWAP2 DUP2 PUSH1 0x20 ADD JUMPDEST PUSH2 0x89D PUSH2 0x213F JUMP JUMPDEST DUP2 MSTORE PUSH1 0x20 ADD SWAP1 PUSH1 0x1 SWAP1 SUB SWAP1 DUP2 PUSH2 0x895 JUMPI POP POP PUSH1 0x40 DUP1 MLOAD PUSH1 0x1 DUP1 DUP3 MSTORE DUP2 DUP4 ADD SWAP1 SWAP3 MSTORE SWAP2 SWAP3 POP PUSH1 0x60 SWAP2 SWAP1 PUSH1 0x20 DUP3 ADD JUMPDEST PUSH1 0x60 DUP2 MSTORE PUSH1 0x20 ADD SWAP1 PUSH1 0x1 SWAP1 SUB SWAP1 DUP2 PUSH2 0x8CA JUMPI SWAP1 POP POP SWAP1 POP PUSH1 0x40 MLOAD DUP1 PUSH2 0x140 ADD PUSH1 0x40 MSTORE DUP1 PUSH1 0x0 PUSH20 0xFFFFFFFFFFFFFFFFFFFFFFFFFFFFFFFFFFFFFFFF AND DUP2 MSTORE PUSH1 0x20 ADD PUSH1 0x0 PUSH20 0xFFFFFFFFFFFFFFFFFFFFFFFFFFFFFFFFFFFFFFFF AND DUP2 MSTORE PUSH1 0x20 ADD PUSH1 0x0 DUP2 MSTORE PUSH1 0x20 ADD PUSH1 0x0 DUP2 MSTORE PUSH1 0x20 ADD PUSH1 0x0 DUP2 MSTORE PUSH1 0x20 ADD PUSH1 0x0 DUP2 MSTORE PUSH1 0x20 ADD PUSH1 0x40 MLOAD DUP1 PUSH1 0x20 ADD PUSH1 0x40 MSTORE DUP1 PUSH1 0x0 DUP2 MSTORE POP DUP2 MSTORE PUSH1 0x20 ADD PUSH1 0x0 DUP2 MSTORE PUSH1 0x20 ADD PUSH1 0x0 PUSH20 0xFFFFFFFFFFFFFFFFFFFFFFFFFFFFFFFFFFFFFFFF AND DUP2 MSTORE PUSH1 0x20 ADD PUSH1 0x0 DUP2 MSTORE POP DUP3 PUSH1 0x0 DUP2 MLOAD DUP2 LT PUSH2 0x98E JUMPI INVALID JUMPDEST PUSH1 0x20 MUL PUSH1 0x20 ADD ADD DUP2 SWAP1 MSTORE POP PUSH1 0x40 MLOAD DUP1 PUSH1 0x20 ADD PUSH1 0x40 MSTORE DUP1 PUSH1 0x0 DUP2 MSTORE POP DUP2 PUSH1 0x0 DUP2 MLOAD DUP2 LT PUSH2 0x9B6 JUMPI INVALID JUMPDEST PUSH1 0x20 SWAP1 DUP2 MUL SWAP2 SWAP1 SWAP2 ADD ADD MSTORE PUSH1 0x40 MLOAD PUSH32 0x769250EA00000000000000000000000000000000000000000000000000000000 DUP2 MSTORE ADDRESS SWAP1 PUSH4 0x769250EA SWAP1 PUSH2 0x9FF SWAP1 DUP6 SWAP1 DUP6 SWAP1 PUSH1 0x4 ADD PUSH2 0x2A3C JUMP JUMPDEST PUSH1 0x0 PUSH1 0x40 MLOAD DUP1 DUP4 SUB DUP2 PUSH1 0x0 DUP8 DUP1 EXTCODESIZE ISZERO DUP1 ISZERO PUSH2 0xA19 JUMPI PUSH1 0x0 DUP1 REVERT JUMPDEST POP GAS CALL ISZERO DUP1 ISZERO PUSH2 0xA2D JUMPI RETURNDATASIZE PUSH1 0x0 DUP1 RETURNDATACOPY RETURNDATASIZE PUSH1 0x0 REVERT JUMPDEST POP POP POP POP PUSH1 0x40 MLOAD RETURNDATASIZE PUSH1 0x0 DUP3 RETURNDATACOPY PUSH1 0x1F RETURNDATASIZE SWAP1 DUP2 ADD PUSH32 0xFFFFFFFFFFFFFFFFFFFFFFFFFFFFFFFFFFFFFFFFFFFFFFFFFFFFFFFFFFFFFFE0 AND DUP3 ADD PUSH1 0x40 MSTORE PUSH2 0xA73 SWAP2 SWAP1 DUP2 ADD SWAP1 PUSH2 0x23D5 JUMP JUMPDEST POP POP POP JUMPDEST PUSH32 0xC21A8C994E961F7BB11BB948CDA495299E92E615BBEC18172088C5E1866DD517 CALLER CALLVALUE DUP5 PUSH1 0x0 ADD MLOAD DUP6 PUSH1 0x20 ADD MLOAD DUP7 PUSH1 0x40 ADD MLOAD DUP8 PUSH1 0x60 ADD MLOAD DUP9 PUSH1 0x80 ADD MLOAD DUP10 PUSH1 0xA0 ADD MLOAD DUP11 PUSH1 0xC0 ADD MLOAD DUP12 PUSH1 0xE0 ADD MLOAD PUSH1 0x40 MLOAD PUSH2 0xAD8 SWAP11 SWAP10 SWAP9 SWAP8 SWAP7 SWAP6 SWAP5 SWAP4 SWAP3 SWAP2 SWAP1 PUSH2 0x2836 JUMP JUMPDEST PUSH1 0x40 MLOAD DUP1 SWAP2 SUB SWAP1 LOG1 POP PUSH2 0x539 JUMPDEST SWAP2 SWAP1 POP JUMP JUMPDEST PUSH1 0x0 PUSH2 0xB15 PUSH32 0x4D54CDB600000000000000000000000000000000000000000000000000000000 PUSH2 0x124F JUMP JUMPDEST PUSH2 0xB3E PUSH32 0x287B071B00000000000000000000000000000000000000000000000000000000 PUSH2 0x124F JUMP JUMPDEST PUSH2 0xB67 PUSH32 0xF028E9BE00000000000000000000000000000000000000000000000000000000 PUSH2 0x124F JUMP JUMPDEST PUSH2 0xB90 PUSH32 0x87C9641900000000000000000000000000000000000000000000000000000000 PUSH2 0x124F JUMP JUMPDEST PUSH2 0xBB9 PUSH32 0x56CE180A00000000000000000000000000000000000000000000000000000000 PUSH2 0x124F JUMP JUMPDEST PUSH2 0xBE2 PUSH32 0x9F1EC78B00000000000000000000000000000000000000000000000000000000 PUSH2 0x124F JUMP JUMPDEST PUSH2 0xC0B PUSH32 0x415565B000000000000000000000000000000000000000000000000000000000 PUSH2 0x124F JUMP JUMPDEST PUSH2 0xC34 PUSH32 0xC853C96900000000000000000000000000000000000000000000000000000000 PUSH2 0x124F JUMP JUMPDEST PUSH1 0x0 PUSH20 0xFFFFFFFFFFFFFFFFFFFFFFFFFFFFFFFFFFFFFFFF AND ADDRESS PUSH20 0xFFFFFFFFFFFFFFFFFFFFFFFFFFFFFFFFFFFFFFFF AND PUSH4 0xF028E9BE PUSH1 0x40 MLOAD DUP2 PUSH4 0xFFFFFFFF AND PUSH1 0xE0 SHL DUP2 MSTORE PUSH1 0x4 ADD PUSH1 0x20 PUSH1 0x40 MLOAD DUP1 DUP4 SUB DUP2 DUP7 DUP1 EXTCODESIZE ISZERO DUP1 ISZERO PUSH2 0xC92 JUMPI PUSH1 0x0 DUP1 REVERT JUMPDEST POP GAS STATICCALL ISZERO DUP1 ISZERO PUSH2 0xCA6 JUMPI RETURNDATASIZE PUSH1 0x0 DUP1 RETURNDATACOPY RETURNDATASIZE PUSH1 0x0 REVERT JUMPDEST POP POP POP POP PUSH1 0x40 MLOAD RETURNDATASIZE PUSH1 0x1F NOT PUSH1 0x1F DUP3 ADD AND DUP3 ADD DUP1 PUSH1 0x40 MSTORE POP DUP2 ADD SWAP1 PUSH2 0xCCA SWAP2 SWAP1 PUSH2 0x23B9 JUMP JUMPDEST PUSH20 0xFFFFFFFFFFFFFFFFFFFFFFFFFFFFFFFFFFFFFFFF AND EQ ISZERO PUSH2 0xD68 JUMPI ADDRESS PUSH20 0xFFFFFFFFFFFFFFFFFFFFFFFFFFFFFFFFFFFFFFFF AND PUSH4 0x287B071B PUSH1 0x40 MLOAD DUP2 PUSH4 0xFFFFFFFF AND PUSH1 0xE0 SHL DUP2 MSTORE PUSH1 0x4 ADD PUSH1 0x20 PUSH1 0x40 MLOAD DUP1 DUP4 SUB DUP2 PUSH1 0x0 DUP8 DUP1 EXTCODESIZE ISZERO DUP1 ISZERO PUSH2 0xD2E JUMPI PUSH1 0x0 DUP1 REVERT JUMPDEST POP GAS CALL ISZERO DUP1 ISZERO PUSH2 0xD42 JUMPI RETURNDATASIZE PUSH1 0x0 DUP1 RETURNDATACOPY RETURNDATASIZE PUSH1 0x0 REVERT JUMPDEST POP POP POP POP PUSH1 0x40 MLOAD RETURNDATASIZE PUSH1 0x1F NOT PUSH1 0x1F DUP3 ADD AND DUP3 ADD DUP1 PUSH1 0x40 MSTORE POP DUP2 ADD SWAP1 PUSH2 0xD66 SWAP2 SWAP1 PUSH2 0x23B9 JUMP JUMPDEST POP JUMPDEST DUP2 PUSH2 0xD71 PUSH2 0xEC8 JUMP JUMPDEST PUSH1 0x1 ADD DUP1 SLOAD PUSH32 0xFFFFFFFFFFFFFFFFFFFFFFFF0000000000000000000000000000000000000000 AND PUSH20 0xFFFFFFFFFFFFFFFFFFFFFFFFFFFFFFFFFFFFFFFF SWAP3 SWAP1 SWAP3 AND SWAP2 SWAP1 SWAP2 OR SWAP1 SSTORE POP PUSH32 0x2C64C5EF00000000000000000000000000000000000000000000000000000000 SWAP2 SWAP1 POP JUMP JUMPDEST PUSH1 0x0 PUSH2 0xDE8 PUSH2 0xEC8 JUMP JUMPDEST SLOAD PUSH20 0xFFFFFFFFFFFFFFFFFFFFFFFFFFFFFFFFFFFFFFFF AND SWAP1 POP SWAP1 JUMP JUMPDEST PUSH1 0x60 PUSH32 0x1DE45AD18E8A4484220A3CA14F4D977641ADDBABA5A344B1384DC2AA78A2E34D DUP4 DUP4 PUSH1 0x40 MLOAD PUSH1 0x24 ADD PUSH2 0xE3A SWAP3 SWAP2 SWAP1 PUSH2 0x2940 JUMP JUMPDEST PUSH1 0x40 DUP1 MLOAD PUSH32 0xFFFFFFFFFFFFFFFFFFFFFFFFFFFFFFFFFFFFFFFFFFFFFFFFFFFFFFFFFFFFFFE0 DUP2 DUP5 SUB ADD DUP2 MSTORE SWAP2 SWAP1 MSTORE PUSH1 0x20 DUP2 ADD DUP1 MLOAD PUSH28 0xFFFFFFFFFFFFFFFFFFFFFFFFFFFFFFFFFFFFFFFFFFFFFFFFFFFFFFFF AND PUSH32 0xFFFFFFFF00000000000000000000000000000000000000000000000000000000 SWAP1 SWAP4 AND SWAP3 SWAP1 SWAP3 OR SWAP1 SWAP2 MSTORE SWAP1 POP JUMPDEST SWAP3 SWAP2 POP POP JUMP JUMPDEST DUP1 MLOAD PUSH1 0x20 DUP3 ADD REVERT JUMPDEST PUSH1 0x0 DUP1 PUSH2 0xEBA PUSH1 0x4 PUSH2 0x12E2 JUMP JUMPDEST PUSH1 0x0 PUSH1 0x60 PUSH1 0x46 DUP4 MLOAD LT DUP1 PUSH2 0xF59 JUMPI POP DUP3 MLOAD PUSH2 0xF13 SWAP1 DUP5 SWAP1 PUSH32 0xFFFFFFFFFFFFFFFFFFFFFFFFFFFFFFFFFFFFFFFFFFFFFFFFFFFFFFFFFFFFFFBA ADD PUSH2 0x12FD JUMP JUMPDEST PUSH32 0xFFFFFFFF00000000000000000000000000000000000000000000000000000000 AND PUSH32 0xF86D1D9200000000000000000000000000000000000000000000000000000000 EQ ISZERO JUMPDEST ISZERO PUSH2 0xF6C JUMPI DUP3 MLOAD PUSH1 0x20 DUP5 ADD KECCAK256 SWAP2 POP PUSH2 0xFCA JUMP JUMPDEST DUP3 MLOAD PUSH32 0xFFFFFFFFFFFFFFFFFFFFFFFFFFFFFFFFFFFFFFFFFFFFFFFFFFFFFFFFFFFFFFBA DUP2 ADD PUSH1 0x20 DUP6 ADD KECCAK256 SWAP3 POP PUSH2 0xFC7 SWAP1 DUP5 SWAP1 PUSH32 0xFFFFFFFFFFFFFFFFFFFFFFFFFFFFFFFFFFFFFFFFFFFFFFFFFFFFFFFFFFFFFFBE DUP2 ADD SWAP1 PUSH2 0x1349 JUMP JUMPDEST SWAP1 POP JUMPDEST SWAP2 POP SWAP2 JUMP JUMPDEST PUSH1 0x0 PUSH32 0xFFFFFFFFFFFFFFFFFFFFFFFFFFFFFFFFFFFFFFFFFFFFFFFFFFFFFFFFFFFFFFFF DUP3 PUSH1 0x60 ADD MLOAD EQ ISZERO PUSH2 0x1094 JUMPI PUSH1 0x20 DUP3 ADD MLOAD DUP3 MLOAD PUSH1 0x40 MLOAD PUSH32 0x496F471E00000000000000000000000000000000000000000000000000000000 DUP2 MSTORE ADDRESS SWAP3 PUSH4 0x496F471E SWAP3 PUSH2 0x103E SWAP3 PUSH1 0x4 ADD PUSH2 0x2940 JUMP JUMPDEST PUSH1 0x20 PUSH1 0x40 MLOAD DUP1 DUP4 SUB DUP2 DUP7 DUP1 EXTCODESIZE ISZERO DUP1 ISZERO PUSH2 0x1056 JUMPI PUSH1 0x0 DUP1 REVERT JUMPDEST POP GAS STATICCALL ISZERO DUP1 ISZERO PUSH2 0x106A JUMPI RETURNDATASIZE PUSH1 0x0 DUP1 RETURNDATACOPY RETURNDATASIZE PUSH1 0x0 REVERT JUMPDEST POP POP POP POP PUSH1 0x40 MLOAD RETURNDATASIZE PUSH1 0x1F NOT PUSH1 0x1F DUP3 ADD AND DUP3 ADD DUP1 PUSH1 0x40 MSTORE POP DUP2 ADD SWAP1 PUSH2 0x108E SWAP2 SWAP1 PUSH2 0x2653 JUMP JUMPDEST PUSH1 0x60 DUP4 ADD MSTORE JUMPDEST PUSH2 0x109C PUSH2 0x21D4 JUMP JUMPDEST PUSH2 0x10A4 PUSH2 0xDDE JUMP JUMPDEST PUSH20 0xFFFFFFFFFFFFFFFFFFFFFFFFFFFFFFFFFFFFFFFF AND DUP2 MSTORE PUSH2 0x10C4 PUSH2 0x42E JUMP JUMPDEST PUSH20 0xFFFFFFFFFFFFFFFFFFFFFFFFFFFFFFFFFFFFFFFF AND PUSH1 0x20 DUP3 ADD MSTORE PUSH1 0x40 DUP4 ADD MLOAD DUP4 MLOAD PUSH2 0x10F0 SWAP2 SWAP1 PUSH2 0x13E7 JUMP JUMPDEST PUSH1 0x40 DUP3 ADD MSTORE PUSH1 0x20 DUP4 ADD MLOAD DUP4 MLOAD DUP3 MLOAD PUSH1 0x60 DUP7 ADD MLOAD PUSH2 0x110F SWAP4 SWAP3 SWAP2 SWAP1 PUSH2 0x14B7 JUMP JUMPDEST PUSH1 0x0 PUSH2 0x1123 DUP5 PUSH1 0xC0 ADD MLOAD DUP6 PUSH1 0xE0 ADD MLOAD PUSH2 0x15A2 JUMP JUMPDEST SWAP1 POP PUSH1 0x0 JUMPDEST DUP5 PUSH1 0xA0 ADD MLOAD MLOAD DUP2 LT ISZERO PUSH2 0x116D JUMPI PUSH2 0x1165 DUP4 PUSH1 0x0 ADD MLOAD DUP7 PUSH1 0xA0 ADD MLOAD DUP4 DUP2 MLOAD DUP2 LT PUSH2 0x114D JUMPI INVALID JUMPDEST PUSH1 0x20 MUL PUSH1 0x20 ADD ADD MLOAD DUP6 PUSH1 0x20 ADD MLOAD DUP9 PUSH1 0x0 ADD MLOAD DUP7 PUSH2 0x1688 JUMP JUMPDEST PUSH1 0x1 ADD PUSH2 0x1128 JUMP JUMPDEST POP POP PUSH2 0x1181 DUP4 PUSH1 0x40 ADD MLOAD DUP5 PUSH1 0x0 ADD MLOAD PUSH2 0x13E7 JUMP JUMPDEST PUSH1 0x60 DUP3 ADD DUP2 SWAP1 MSTORE PUSH1 0x40 DUP3 ADD MLOAD GT ISZERO PUSH2 0x11AE JUMPI PUSH2 0x11AE PUSH2 0x2D5 DUP5 PUSH1 0x40 ADD MLOAD DUP4 PUSH1 0x60 ADD MLOAD DUP5 PUSH1 0x40 ADD MLOAD SUB PUSH2 0x18B1 JUMP JUMPDEST PUSH1 0x40 DUP2 ADD MLOAD PUSH1 0x60 DUP3 ADD MLOAD PUSH2 0x11C1 SWAP2 PUSH2 0x18E7 JUMP JUMPDEST SWAP2 POP DUP3 PUSH1 0x80 ADD MLOAD DUP3 LT ISZERO PUSH2 0x11E5 JUMPI PUSH2 0x11E5 PUSH2 0x2D5 DUP5 PUSH1 0x40 ADD MLOAD DUP5 DUP7 PUSH1 0x80 ADD MLOAD PUSH2 0x1906 JUMP JUMPDEST DUP3 PUSH1 0x0 ADD MLOAD PUSH20 0xFFFFFFFFFFFFFFFFFFFFFFFFFFFFFFFFFFFFFFFF AND PUSH32 0xF6672F78A59BA8E5E5B5D38DF3EBC67F3C792E2C9259B8D97D7F00DD78BA1B3 DUP5 PUSH1 0x20 ADD MLOAD DUP6 PUSH1 0x40 ADD MLOAD DUP7 PUSH1 0x60 ADD MLOAD DUP7 PUSH1 0x40 MLOAD PUSH2 0x1241 SWAP5 SWAP4 SWAP3 SWAP2 SWAP1 PUSH2 0x2967 JUMP JUMPDEST PUSH1 0x40 MLOAD DUP1 SWAP2 SUB SWAP1 LOG2 POP SWAP2 SWAP1 POP JUMP JUMPDEST PUSH1 0x40 MLOAD PUSH32 0x6EB224CB00000000000000000000000000000000000000000000000000000000 DUP2 MSTORE ADDRESS SWAP1 PUSH4 0x6EB224CB SWAP1 PUSH2 0x12AD SWAP1 DUP5 SWAP1 PUSH32 0x0 SWAP1 PUSH1 0x4 ADD PUSH2 0x2B7B JUMP JUMPDEST PUSH1 0x0 PUSH1 0x40 MLOAD DUP1 DUP4 SUB DUP2 PUSH1 0x0 DUP8 DUP1 EXTCODESIZE ISZERO DUP1 ISZERO PUSH2 0x12C7 JUMPI PUSH1 0x0 DUP1 REVERT JUMPDEST POP GAS CALL ISZERO DUP1 ISZERO PUSH2 0x12DB JUMPI RETURNDATASIZE PUSH1 0x0 DUP1 RETURNDATACOPY RETURNDATASIZE PUSH1 0x0 REVERT JUMPDEST POP POP POP POP POP JUMP JUMPDEST PUSH1 0x0 PUSH1 0x80 DUP3 PUSH1 0x7 DUP2 GT ISZERO PUSH2 0x12F2 JUMPI INVALID JUMPDEST PUSH1 0x1 ADD SWAP1 SHL SWAP3 SWAP2 POP POP JUMP JUMPDEST PUSH1 0x0 DUP2 PUSH1 0x4 ADD DUP4 MLOAD LT ISZERO PUSH2 0x131E JUMPI PUSH2 0x131E PUSH2 0x2D5 PUSH1 0x3 DUP6 MLOAD DUP6 PUSH1 0x4 ADD PUSH2 0x19C4 JUMP JUMPDEST POP ADD PUSH1 0x20 ADD MLOAD PUSH32 0xFFFFFFFF00000000000000000000000000000000000000000000000000000000 AND SWAP1 JUMP JUMPDEST PUSH1 0x60 DUP2 DUP4 GT ISZERO PUSH2 0x1362 JUMPI PUSH2 0x1362 PUSH2 0x2D5 PUSH1 0x0 DUP6 DUP6 PUSH2 0x19C4 JUMP JUMPDEST DUP4 MLOAD DUP3 GT ISZERO PUSH2 0x137B JUMPI PUSH2 0x137B PUSH2 0x2D5 PUSH1 0x1 DUP5 DUP8 MLOAD PUSH2 0x19C4 JUMP JUMPDEST DUP3 DUP3 SUB PUSH8 0xFFFFFFFFFFFFFFFF DUP2 GT DUP1 ISZERO PUSH2 0x1394 JUMPI PUSH1 0x0 DUP1 REVERT JUMPDEST POP PUSH1 0x40 MLOAD SWAP1 DUP1 DUP3 MSTORE DUP1 PUSH1 0x1F ADD PUSH1 0x1F NOT AND PUSH1 0x20 ADD DUP3 ADD PUSH1 0x40 MSTORE DUP1 ISZERO PUSH2 0x13BF JUMPI PUSH1 0x20 DUP3 ADD DUP2 DUP1 CALLDATASIZE DUP4 CALLDATACOPY ADD SWAP1 POP JUMPDEST POP SWAP1 POP PUSH2 0x13E0 PUSH2 0x13CE DUP3 PUSH2 0x19E3 JUMP JUMPDEST DUP5 PUSH2 0x13D8 DUP8 PUSH2 0x19E3 JUMP JUMPDEST ADD DUP4 MLOAD PUSH2 0x19E9 JUMP JUMPDEST SWAP4 SWAP3 POP POP POP JUMP JUMPDEST PUSH1 0x0 PUSH2 0x13F2 DUP4 PUSH2 0x1ACA JUMP JUMPDEST ISZERO PUSH2 0x1415 JUMPI POP PUSH20 0xFFFFFFFFFFFFFFFFFFFFFFFFFFFFFFFFFFFFFFFF DUP2 AND BALANCE PUSH2 0xEBA JUMP JUMPDEST PUSH1 0x40 MLOAD PUSH32 0x70A0823100000000000000000000000000000000000000000000000000000000 DUP2 MSTORE PUSH20 0xFFFFFFFFFFFFFFFFFFFFFFFFFFFFFFFFFFFFFFFF DUP5 AND SWAP1 PUSH4 0x70A08231 SWAP1 PUSH2 0x1467 SWAP1 DUP6 SWAP1 PUSH1 0x4 ADD PUSH2 0x27E6 JUMP JUMPDEST PUSH1 0x20 PUSH1 0x40 MLOAD DUP1 DUP4 SUB DUP2 DUP7 DUP1 EXTCODESIZE ISZERO DUP1 ISZERO PUSH2 0x147F JUMPI PUSH1 0x0 DUP1 REVERT JUMPDEST POP GAS STATICCALL ISZERO DUP1 ISZERO PUSH2 0x1493 JUMPI RETURNDATASIZE PUSH1 0x0 DUP1 RETURNDATACOPY RETURNDATASIZE PUSH1 0x0 REVERT JUMPDEST POP POP POP POP PUSH1 0x40 MLOAD RETURNDATASIZE PUSH1 0x1F NOT PUSH1 0x1F DUP3 ADD AND DUP3 ADD DUP1 PUSH1 0x40 MSTORE POP DUP2 ADD SWAP1 PUSH2 0x13E0 SWAP2 SWAP1 PUSH2 0x2653 JUMP JUMPDEST CALLVALUE ISZERO PUSH2 0x1501 JUMPI PUSH1 0x40 MLOAD PUSH20 0xFFFFFFFFFFFFFFFFFFFFFFFFFFFFFFFFFFFFFFFF DUP4 AND SWAP1 CALLVALUE DUP1 ISZERO PUSH2 0x8FC MUL SWAP2 PUSH1 0x0 DUP2 DUP2 DUP2 DUP6 DUP9 DUP9 CALL SWAP4 POP POP POP POP ISZERO DUP1 ISZERO PUSH2 0x14FF JUMPI RETURNDATASIZE PUSH1 0x0 DUP1 RETURNDATACOPY RETURNDATASIZE PUSH1 0x0 REVERT JUMPDEST POP JUMPDEST PUSH2 0x150A DUP5 PUSH2 0x1ACA JUMP JUMPDEST PUSH2 0x1587 JUMPI PUSH1 0x40 MLOAD PUSH32 0x89DD02E700000000000000000000000000000000000000000000000000000000 DUP2 MSTORE ADDRESS SWAP1 PUSH4 0x89DD02E7 SWAP1 PUSH2 0x1550 SWAP1 DUP8 SWAP1 DUP8 SWAP1 DUP8 SWAP1 DUP8 SWAP1 PUSH1 0x4 ADD PUSH2 0x2BC3 JUMP JUMPDEST PUSH1 0x0 PUSH1 0x40 MLOAD DUP1 DUP4 SUB DUP2 PUSH1 0x0 DUP8 DUP1 EXTCODESIZE ISZERO DUP1 ISZERO PUSH2 0x156A JUMPI PUSH1 0x0 DUP1 REVERT JUMPDEST POP GAS CALL ISZERO DUP1 ISZERO PUSH2 0x157E JUMPI RETURNDATASIZE PUSH1 0x0 DUP1 RETURNDATACOPY RETURNDATASIZE PUSH1 0x0 REVERT JUMPDEST POP POP POP POP PUSH2 0x159C JUMP JUMPDEST DUP1 CALLVALUE LT ISZERO PUSH2 0x159C JUMPI PUSH2 0x159C PUSH2 0x2D5 CALLVALUE DUP4 PUSH2 0x1AFC JUMP JUMPDEST POP POP POP POP JUMP JUMPDEST PUSH1 0x0 DUP1 PUSH2 0x15AD PUSH2 0x6F3 JUMP JUMPDEST SWAP1 POP PUSH20 0xFFFFFFFFFFFFFFFFFFFFFFFFFFFFFFFFFFFFFFFF DUP2 AND PUSH2 0x15D3 JUMPI DUP4 SWAP2 POP POP PUSH2 0xEBA JUMP JUMPDEST DUP3 MLOAD PUSH2 0x15E3 JUMPI POP PUSH1 0x0 SWAP1 POP PUSH2 0xEBA JUMP JUMPDEST PUSH1 0x40 MLOAD PUSH32 0x8171C40700000000000000000000000000000000000000000000000000000000 DUP2 MSTORE ADDRESS SWAP1 PUSH4 0x8171C407 SWAP1 PUSH2 0x1623 SWAP1 DUP8 SWAP1 DUP6 SWAP1 DUP9 SWAP1 PUSH1 0x4 ADD PUSH2 0x2B10 JUMP JUMPDEST PUSH1 0x20 PUSH1 0x40 MLOAD DUP1 DUP4 SUB DUP2 DUP7 DUP1 EXTCODESIZE ISZERO DUP1 ISZERO PUSH2 0x163B JUMPI PUSH1 0x0 DUP1 REVERT JUMPDEST POP GAS STATICCALL ISZERO DUP1 ISZERO PUSH2 0x164F JUMPI RETURNDATASIZE PUSH1 0x0 DUP1 RETURNDATACOPY RETURNDATASIZE PUSH1 0x0 REVERT JUMPDEST POP POP POP POP PUSH1 0x40 MLOAD RETURNDATASIZE PUSH1 0x1F NOT PUSH1 0x1F DUP3 ADD AND DUP3 ADD DUP1 PUSH1 0x40 MSTORE POP DUP2 ADD SWAP1 PUSH2 0x1673 SWAP2 SWAP1 PUSH2 0x245E JUMP JUMPDEST ISZERO PUSH2 0x1681 JUMPI DUP4 SWAP2 POP POP PUSH2 0xEBA JUMP JUMPDEST POP SWAP3 SWAP2 POP POP JUMP JUMPDEST PUSH1 0x0 PUSH2 0x1698 DUP5 DUP7 PUSH1 0x0 ADD MLOAD PUSH2 0x1B32 JUMP JUMPDEST SWAP1 POP PUSH1 0x60 DUP7 PUSH20 0xFFFFFFFFFFFFFFFFFFFFFFFFFFFFFFFFFFFFFFFF AND PUSH4 0xB68DF16D DUP4 PUSH4 0xDF9AA1EE PUSH1 0xE0 SHL PUSH1 0x40 MLOAD DUP1 PUSH1 0x80 ADD PUSH1 0x40 MSTORE DUP1 DUP9 DUP2 MSTORE PUSH1 0x20 ADD CALLER PUSH20 0xFFFFFFFFFFFFFFFFFFFFFFFFFFFFFFFFFFFFFFFF AND DUP2 MSTORE PUSH1 0x20 ADD DUP10 PUSH20 0xFFFFFFFFFFFFFFFFFFFFFFFFFFFFFFFFFFFFFFFF AND DUP2 MSTORE PUSH1 0x20 ADD DUP12 PUSH1 0x20 ADD MLOAD DUP2 MSTORE POP PUSH1 0x40 MLOAD PUSH1 0x24 ADD PUSH2 0x1722 SWAP2 SWAP1 PUSH2 0x2C99 JUMP JUMPDEST PUSH1 0x40 DUP1 MLOAD PUSH32 0xFFFFFFFFFFFFFFFFFFFFFFFFFFFFFFFFFFFFFFFFFFFFFFFFFFFFFFFFFFFFFFE0 DUP2 DUP5 SUB ADD DUP2 MSTORE SWAP2 DUP2 MSTORE PUSH1 0x20 DUP3 ADD DUP1 MLOAD PUSH28 0xFFFFFFFFFFFFFFFFFFFFFFFFFFFFFFFFFFFFFFFFFFFFFFFFFFFFFFFF AND PUSH32 0xFFFFFFFF00000000000000000000000000000000000000000000000000000000 SWAP5 DUP6 AND OR SWAP1 MSTORE MLOAD PUSH1 0xE0 DUP6 SWAP1 SHL SWAP1 SWAP3 AND DUP3 MSTORE PUSH2 0x17B3 SWAP3 SWAP2 PUSH1 0x4 ADD PUSH2 0x2807 JUMP JUMPDEST PUSH1 0x0 PUSH1 0x40 MLOAD DUP1 DUP4 SUB DUP2 PUSH1 0x0 DUP8 DUP1 EXTCODESIZE ISZERO DUP1 ISZERO PUSH2 0x17CD JUMPI PUSH1 0x0 DUP1 REVERT JUMPDEST POP GAS CALL ISZERO DUP1 ISZERO PUSH2 0x17E1 JUMPI RETURNDATASIZE PUSH1 0x0 DUP1 RETURNDATACOPY RETURNDATASIZE PUSH1 0x0 REVERT JUMPDEST POP POP POP POP PUSH1 0x40 MLOAD RETURNDATASIZE PUSH1 0x0 DUP3 RETURNDATACOPY PUSH1 0x1F RETURNDATASIZE SWAP1 DUP2 ADD PUSH32 0xFFFFFFFFFFFFFFFFFFFFFFFFFFFFFFFFFFFFFFFFFFFFFFFFFFFFFFFFFFFFFFE0 AND DUP3 ADD PUSH1 0x40 MSTORE PUSH2 0x1827 SWAP2 SWAP1 DUP2 ADD SWAP1 PUSH2 0x24BE JUMP JUMPDEST SWAP1 POP DUP1 MLOAD PUSH1 0x20 EQ ISZERO DUP1 PUSH2 0x1891 JUMPI POP DUP1 MLOAD PUSH32 0x13C9929E00000000000000000000000000000000000000000000000000000000 SWAP1 PUSH2 0x186C SWAP1 DUP4 ADD PUSH1 0x20 SWAP1 DUP2 ADD SWAP1 DUP5 ADD PUSH2 0x247E JUMP JUMPDEST PUSH32 0xFFFFFFFF00000000000000000000000000000000000000000000000000000000 AND EQ ISZERO JUMPDEST ISZERO PUSH2 0x18A8 JUMPI PUSH2 0x18A8 PUSH2 0x2D5 DUP4 DUP9 PUSH1 0x20 ADD MLOAD DUP5 PUSH2 0x1BA1 JUMP JUMPDEST POP POP POP POP POP POP POP JUMP JUMPDEST PUSH1 0x60 PUSH32 0x3EA25A3CAE94E681748E39876B75CE362A9159C4618787BC1250E3D9F9C43910 DUP4 DUP4 PUSH1 0x40 MLOAD PUSH1 0x24 ADD PUSH2 0xE3A SWAP3 SWAP2 SWAP1 PUSH2 0x29E8 JUMP JUMPDEST PUSH1 0x0 DUP3 DUP3 GT ISZERO PUSH2 0x1900 JUMPI PUSH2 0x1900 PUSH2 0x2D5 PUSH1 0x2 DUP6 DUP6 PUSH2 0x1BD9 JUMP JUMPDEST POP SWAP1 SUB SWAP1 JUMP JUMPDEST PUSH1 0x60 PUSH32 0x990174D2378C7614A3E4722867CEA0A803C0CC16EF92C4F5466ED5BC1D3496DA DUP5 DUP5 DUP5 PUSH1 0x40 MLOAD PUSH1 0x24 ADD PUSH2 0x193E SWAP4 SWAP3 SWAP2 SWAP1 PUSH2 0x2A0E JUMP JUMPDEST PUSH1 0x40 DUP1 MLOAD PUSH32 0xFFFFFFFFFFFFFFFFFFFFFFFFFFFFFFFFFFFFFFFFFFFFFFFFFFFFFFFFFFFFFFE0 DUP2 DUP5 SUB ADD DUP2 MSTORE SWAP2 SWAP1 MSTORE PUSH1 0x20 DUP2 ADD DUP1 MLOAD PUSH28 0xFFFFFFFFFFFFFFFFFFFFFFFFFFFFFFFFFFFFFFFFFFFFFFFFFFFFFFFF AND PUSH32 0xFFFFFFFF00000000000000000000000000000000000000000000000000000000 SWAP1 SWAP4 AND SWAP3 SWAP1 SWAP3 OR SWAP1 SWAP2 MSTORE SWAP1 POP SWAP4 SWAP3 POP POP POP JUMP JUMPDEST PUSH1 0x60 PUSH4 0x28006595 PUSH1 0xE0 SHL DUP5 DUP5 DUP5 PUSH1 0x40 MLOAD PUSH1 0x24 ADD PUSH2 0x193E SWAP4 SWAP3 SWAP2 SWAP1 PUSH2 0x2C1C JUMP JUMPDEST PUSH1 0x20 ADD SWAP1 JUMP JUMPDEST PUSH1 0x20 DUP2 LT ISZERO PUSH2 0x1A30 JUMPI DUP2 MLOAD DUP4 MLOAD PUSH1 0x20 DUP4 SWAP1 SUB PUSH2 0x100 EXP PUSH32 0xFFFFFFFFFFFFFFFFFFFFFFFFFFFFFFFFFFFFFFFFFFFFFFFFFFFFFFFFFFFFFFFF ADD DUP1 NOT SWAP1 SWAP3 AND SWAP2 AND OR DUP4 MSTORE PUSH2 0x1AC5 JUMP JUMPDEST DUP3 DUP3 EQ ISZERO PUSH2 0x1A3D JUMPI PUSH2 0x1AC5 JUMP JUMPDEST DUP3 DUP3 GT ISZERO PUSH2 0x1A77 JUMPI PUSH1 0x20 DUP2 SUB SWAP1 POP DUP1 DUP3 ADD DUP2 DUP5 ADD DUP2 MLOAD JUMPDEST DUP3 DUP6 LT ISZERO PUSH2 0x1A6F JUMPI DUP5 MLOAD DUP7 MSTORE PUSH1 0x20 SWAP6 DUP7 ADD SWAP6 SWAP1 SWAP5 ADD SWAP4 PUSH2 0x1A54 JUMP JUMPDEST SWAP1 MSTORE POP PUSH2 0x1AC5 JUMP JUMPDEST PUSH1 0x20 DUP2 SUB SWAP1 POP DUP1 DUP3 ADD DUP2 DUP5 ADD DUP4 MLOAD JUMPDEST DUP2 DUP7 SLT ISZERO PUSH2 0x1AC0 JUMPI DUP3 MLOAD DUP3 MSTORE PUSH32 0xFFFFFFFFFFFFFFFFFFFFFFFFFFFFFFFFFFFFFFFFFFFFFFFFFFFFFFFFFFFFFFE0 SWAP3 DUP4 ADD SWAP3 SWAP1 SWAP2 ADD SWAP1 PUSH2 0x1A86 JUMP JUMPDEST DUP6 MSTORE POP POP JUMPDEST POP POP POP JUMP JUMPDEST PUSH20 0xFFFFFFFFFFFFFFFFFFFFFFFFFFFFFFFFFFFFFFFF DUP2 AND PUSH20 0xEEEEEEEEEEEEEEEEEEEEEEEEEEEEEEEEEEEEEEEE EQ SWAP2 SWAP1 POP JUMP JUMPDEST PUSH1 0x60 PUSH32 0x96660AB143A5C6A946233C268494B1026BFCA53373C9715E0FE96B3C59C85044 DUP4 DUP4 PUSH1 0x40 MLOAD PUSH1 0x24 ADD PUSH2 0xE3A SWAP3 SWAP2 SWAP1 PUSH2 0x2CF7 JUMP JUMPDEST PUSH1 0x0 PUSH1 0x60 PUSH2 0x1B3F DUP4 PUSH2 0x1BF8 JUMP JUMPDEST SWAP1 POP DUP1 MLOAD PUSH1 0xD5 ADD PUSH1 0xF8 SHL PUSH1 0x94 PUSH1 0xF8 SHL DUP6 DUP4 PUSH1 0x40 MLOAD PUSH1 0x20 ADD PUSH2 0x1B63 SWAP5 SWAP4 SWAP3 SWAP2 SWAP1 PUSH2 0x2767 JUMP JUMPDEST PUSH1 0x40 DUP1 MLOAD PUSH32 0xFFFFFFFFFFFFFFFFFFFFFFFFFFFFFFFFFFFFFFFFFFFFFFFFFFFFFFFFFFFFFFE0 DUP2 DUP5 SUB ADD DUP2 MSTORE SWAP2 SWAP1 MSTORE DUP1 MLOAD PUSH1 0x20 SWAP1 SWAP2 ADD KECCAK256 SWAP5 SWAP4 POP POP POP POP JUMP JUMPDEST PUSH1 0x60 PUSH32 0xF21E5CB42B911CA6B3898F8618760AA7D84FE5D43A7A5AD89AA791C66CAFE413 DUP5 DUP5 DUP5 PUSH1 0x40 MLOAD PUSH1 0x24 ADD PUSH2 0x193E SWAP4 SWAP3 SWAP2 SWAP1 PUSH2 0x299D JUMP JUMPDEST PUSH1 0x60 PUSH4 0xE946C1BB PUSH1 0xE0 SHL DUP5 DUP5 DUP5 PUSH1 0x40 MLOAD PUSH1 0x24 ADD PUSH2 0x193E SWAP4 SWAP3 SWAP2 SWAP1 PUSH2 0x2BFA JUMP JUMPDEST PUSH1 0x60 PUSH4 0xFFFFFFFF DUP3 AND PUSH2 0x1C6A JUMPI PUSH1 0x40 DUP1 MLOAD PUSH1 0x1 DUP1 DUP3 MSTORE DUP2 DUP4 ADD SWAP1 SWAP3 MSTORE SWAP1 PUSH1 0x20 DUP3 ADD DUP2 DUP1 CALLDATASIZE DUP4 CALLDATACOPY ADD SWAP1 POP POP SWAP1 POP PUSH1 0x80 PUSH1 0xF8 SHL DUP2 PUSH1 0x0 DUP2 MLOAD DUP2 LT PUSH2 0x1C36 JUMPI INVALID JUMPDEST PUSH1 0x20 ADD ADD SWAP1 PUSH31 0xFFFFFFFFFFFFFFFFFFFFFFFFFFFFFFFFFFFFFFFFFFFFFFFFFFFFFFFFFFFFFF NOT AND SWAP1 DUP2 PUSH1 0x0 BYTE SWAP1 MSTORE8 POP PUSH2 0xAE5 JUMP JUMPDEST PUSH1 0x80 DUP3 PUSH4 0xFFFFFFFF AND LT ISZERO PUSH2 0x1CA9 JUMPI PUSH1 0x40 DUP1 MLOAD PUSH1 0x1 DUP1 DUP3 MSTORE DUP2 DUP4 ADD SWAP1 SWAP3 MSTORE SWAP1 PUSH1 0x20 DUP3 ADD DUP2 DUP1 CALLDATASIZE DUP4 CALLDATACOPY ADD SWAP1 POP POP SWAP1 POP DUP2 PUSH1 0xF8 SHL DUP2 PUSH1 0x0 DUP2 MLOAD DUP2 LT PUSH2 0x1C36 JUMPI INVALID JUMPDEST PUSH1 0xFF DUP3 PUSH4 0xFFFFFFFF AND GT PUSH2 0x1D28 JUMPI PUSH1 0x40 DUP1 MLOAD PUSH1 0x2 DUP1 DUP3 MSTORE DUP2 DUP4 ADD SWAP1 SWAP3 MSTORE SWAP1 PUSH1 0x20 DUP3 ADD DUP2 DUP1 CALLDATASIZE DUP4 CALLDATACOPY ADD SWAP1 POP POP SWAP1 POP PUSH1 0x81 PUSH1 0xF8 SHL DUP2 PUSH1 0x0 DUP2 MLOAD DUP2 LT PUSH2 0x1CE8 JUMPI INVALID JUMPDEST PUSH1 0x20 ADD ADD SWAP1 PUSH31 0xFFFFFFFFFFFFFFFFFFFFFFFFFFFFFFFFFFFFFFFFFFFFFFFFFFFFFFFFFFFFFF NOT AND SWAP1 DUP2 PUSH1 0x0 BYTE SWAP1 MSTORE8 POP DUP2 PUSH1 0xF8 SHL DUP2 PUSH1 0x1 DUP2 MLOAD DUP2 LT PUSH2 0x1C36 JUMPI INVALID JUMPDEST PUSH2 0xFFFF DUP3 PUSH4 0xFFFFFFFF AND GT PUSH2 0x1E0E JUMPI PUSH1 0x40 DUP1 MLOAD PUSH1 0x3 DUP1 DUP3 MSTORE DUP2 DUP4 ADD SWAP1 SWAP3 MSTORE SWAP1 PUSH1 0x20 DUP3 ADD DUP2 DUP1 CALLDATASIZE DUP4 CALLDATACOPY ADD SWAP1 POP POP SWAP1 POP PUSH1 0x82 PUSH1 0xF8 SHL DUP2 PUSH1 0x0 DUP2 MLOAD DUP2 LT PUSH2 0x1D68 JUMPI INVALID JUMPDEST PUSH1 0x20 ADD ADD SWAP1 PUSH31 0xFFFFFFFFFFFFFFFFFFFFFFFFFFFFFFFFFFFFFFFFFFFFFFFFFFFFFFFFFFFFFF NOT AND SWAP1 DUP2 PUSH1 0x0 BYTE SWAP1 MSTORE8 POP DUP1 MLOAD PUSH32 0xFF00000000000000000000000000000000000000000000000000000000000000 PUSH1 0xF0 DUP5 SWAP1 SHL AND SWAP1 DUP3 SWAP1 PUSH1 0x1 SWAP1 DUP2 LT PUSH2 0x1DCE JUMPI INVALID JUMPDEST PUSH1 0x20 ADD ADD SWAP1 PUSH31 0xFFFFFFFFFFFFFFFFFFFFFFFFFFFFFFFFFFFFFFFFFFFFFFFFFFFFFFFFFFFFFF NOT AND SWAP1 DUP2 PUSH1 0x0 BYTE SWAP1 MSTORE8 POP DUP2 PUSH1 0xF8 SHL DUP2 PUSH1 0x2 DUP2 MLOAD DUP2 LT PUSH2 0x1C36 JUMPI INVALID JUMPDEST PUSH3 0xFFFFFF DUP3 PUSH4 0xFFFFFFFF AND GT PUSH2 0x1F5B JUMPI PUSH1 0x40 DUP1 MLOAD PUSH1 0x4 DUP1 DUP3 MSTORE DUP2 DUP4 ADD SWAP1 SWAP3 MSTORE SWAP1 PUSH1 0x20 DUP3 ADD DUP2 DUP1 CALLDATASIZE DUP4 CALLDATACOPY ADD SWAP1 POP POP SWAP1 POP PUSH1 0x83 PUSH1 0xF8 SHL DUP2 PUSH1 0x0 DUP2 MLOAD DUP2 LT PUSH2 0x1E4F JUMPI INVALID JUMPDEST PUSH1 0x20 ADD ADD SWAP1 PUSH31 0xFFFFFFFFFFFFFFFFFFFFFFFFFFFFFFFFFFFFFFFFFFFFFFFFFFFFFFFFFFFFFF NOT AND SWAP1 DUP2 PUSH1 0x0 BYTE SWAP1 MSTORE8 POP DUP1 MLOAD PUSH32 0xFF00000000000000000000000000000000000000000000000000000000000000 PUSH1 0xE8 DUP5 SWAP1 SHL AND SWAP1 DUP3 SWAP1 PUSH1 0x1 SWAP1 DUP2 LT PUSH2 0x1EB5 JUMPI INVALID JUMPDEST PUSH1 0x20 ADD ADD SWAP1 PUSH31 0xFFFFFFFFFFFFFFFFFFFFFFFFFFFFFFFFFFFFFFFFFFFFFFFFFFFFFFFFFFFFFF NOT AND SWAP1 DUP2 PUSH1 0x0 BYTE SWAP1 MSTORE8 POP DUP1 MLOAD PUSH32 0xFF00000000000000000000000000000000000000000000000000000000000000 PUSH1 0xF0 DUP5 SWAP1 SHL AND SWAP1 DUP3 SWAP1 PUSH1 0x2 SWAP1 DUP2 LT PUSH2 0x1F1B JUMPI INVALID JUMPDEST PUSH1 0x20 ADD ADD SWAP1 PUSH31 0xFFFFFFFFFFFFFFFFFFFFFFFFFFFFFFFFFFFFFFFFFFFFFFFFFFFFFFFFFFFFFF NOT AND SWAP1 DUP2 PUSH1 0x0 BYTE SWAP1 MSTORE8 POP DUP2 PUSH1 0xF8 SHL DUP2 PUSH1 0x3 DUP2 MLOAD DUP2 LT PUSH2 0x1C36 JUMPI INVALID JUMPDEST PUSH1 0x40 DUP1 MLOAD PUSH1 0x5 DUP1 DUP3 MSTORE DUP2 DUP4 ADD SWAP1 SWAP3 MSTORE SWAP1 PUSH1 0x20 DUP3 ADD DUP2 DUP1 CALLDATASIZE DUP4 CALLDATACOPY ADD SWAP1 POP POP SWAP1 POP PUSH1 0x84 PUSH1 0xF8 SHL DUP2 PUSH1 0x0 DUP2 MLOAD DUP2 LT PUSH2 0x1F8C JUMPI INVALID JUMPDEST PUSH1 0x20 ADD ADD SWAP1 PUSH31 0xFFFFFFFFFFFFFFFFFFFFFFFFFFFFFFFFFFFFFFFFFFFFFFFFFFFFFFFFFFFFFF NOT AND SWAP1 DUP2 PUSH1 0x0 BYTE SWAP1 MSTORE8 POP DUP1 MLOAD PUSH32 0xFF00000000000000000000000000000000000000000000000000000000000000 PUSH1 0xE0 DUP5 SWAP1 SHL AND SWAP1 DUP3 SWAP1 PUSH1 0x1 SWAP1 DUP2 LT PUSH2 0x1FF2 JUMPI INVALID JUMPDEST PUSH1 0x20 ADD ADD SWAP1 PUSH31 0xFFFFFFFFFFFFFFFFFFFFFFFFFFFFFFFFFFFFFFFFFFFFFFFFFFFFFFFFFFFFFF NOT AND SWAP1 DUP2 PUSH1 0x0 BYTE SWAP1 MSTORE8 POP DUP1 MLOAD PUSH32 0xFF00000000000000000000000000000000000000000000000000000000000000 PUSH1 0xE8 DUP5 SWAP1 SHL AND SWAP1 DUP3 SWAP1 PUSH1 0x2 SWAP1 DUP2 LT PUSH2 0x2058 JUMPI INVALID JUMPDEST PUSH1 0x20 ADD ADD SWAP1 PUSH31 0xFFFFFFFFFFFFFFFFFFFFFFFFFFFFFFFFFFFFFFFFFFFFFFFFFFFFFFFFFFFFFF NOT AND SWAP1 DUP2 PUSH1 0x0 BYTE SWAP1 MSTORE8 POP DUP1 MLOAD PUSH32 0xFF00000000000000000000000000000000000000000000000000000000000000 PUSH1 0xF0 DUP5 SWAP1 SHL AND SWAP1 DUP3 SWAP1 PUSH1 0x3 SWAP1 DUP2 LT PUSH2 0x20BE JUMPI INVALID JUMPDEST PUSH1 0x20 ADD ADD SWAP1 PUSH31 0xFFFFFFFFFFFFFFFFFFFFFFFFFFFFFFFFFFFFFFFFFFFFFFFFFFFFFFFFFFFFFF NOT AND SWAP1 DUP2 PUSH1 0x0 BYTE SWAP1 MSTORE8 POP DUP2 PUSH1 0xF8 SHL DUP2 PUSH1 0x4 DUP2 MLOAD DUP2 LT PUSH2 0x20FE JUMPI INVALID JUMPDEST PUSH1 0x20 ADD ADD SWAP1 PUSH31 0xFFFFFFFFFFFFFFFFFFFFFFFFFFFFFFFFFFFFFFFFFFFFFFFFFFFFFFFFFFFFFF NOT AND SWAP1 DUP2 PUSH1 0x0 BYTE SWAP1 MSTORE8 POP SWAP2 SWAP1 POP JUMP JUMPDEST PUSH2 0xCE0 DUP1 PUSH2 0x2DF2 DUP4 CODECOPY ADD SWAP1 JUMP JUMPDEST PUSH1 0x40 MLOAD DUP1 PUSH2 0x140 ADD PUSH1 0x40 MSTORE DUP1 PUSH1 0x0 PUSH20 0xFFFFFFFFFFFFFFFFFFFFFFFFFFFFFFFFFFFFFFFF AND DUP2 MSTORE PUSH1 0x20 ADD PUSH1 0x0 PUSH20 0xFFFFFFFFFFFFFFFFFFFFFFFFFFFFFFFFFFFFFFFF AND DUP2 MSTORE PUSH1 0x20 ADD PUSH1 0x0 DUP2 MSTORE PUSH1 0x20 ADD PUSH1 0x0 DUP2 MSTORE PUSH1 0x20 ADD PUSH1 0x0 DUP2 MSTORE PUSH1 0x20 ADD PUSH1 0x0 DUP2 MSTORE PUSH1 0x20 ADD PUSH1 0x60 DUP2 MSTORE PUSH1 0x20 ADD PUSH1 0x0 DUP2 MSTORE PUSH1 0x20 ADD PUSH1 0x0 PUSH20 0xFFFFFFFFFFFFFFFFFFFFFFFFFFFFFFFFFFFFFFFF AND DUP2 MSTORE PUSH1 0x20 ADD PUSH1 0x0 DUP2 MSTORE POP SWAP1 JUMP JUMPDEST PUSH1 0x40 MLOAD DUP1 PUSH1 0x80 ADD PUSH1 0x40 MSTORE DUP1 PUSH1 0x0 PUSH20 0xFFFFFFFFFFFFFFFFFFFFFFFFFFFFFFFFFFFFFFFF AND DUP2 MSTORE PUSH1 0x20 ADD PUSH1 0x0 PUSH20 0xFFFFFFFFFFFFFFFFFFFFFFFFFFFFFFFFFFFFFFFF AND DUP2 MSTORE PUSH1 0x20 ADD PUSH1 0x0 DUP2 MSTORE PUSH1 0x20 ADD PUSH1 0x0 DUP2 MSTORE POP SWAP1 JUMP JUMPDEST DUP1 CALLDATALOAD PUSH2 0xEBA DUP2 PUSH2 0x2DBA JUMP JUMPDEST PUSH1 0x0 DUP3 PUSH1 0x1F DUP4 ADD SLT PUSH2 0x2243 JUMPI DUP1 DUP2 REVERT JUMPDEST DUP2 CALLDATALOAD PUSH2 0x2256 PUSH2 0x2251 DUP3 PUSH2 0x2D2C JUMP JUMPDEST PUSH2 0x2D05 JUMP JUMPDEST DUP2 DUP2 MSTORE SWAP2 POP PUSH1 0x20 DUP1 DUP4 ADD SWAP1 DUP5 DUP2 ADD PUSH1 0x0 JUMPDEST DUP5 DUP2 LT ISZERO PUSH2 0x22FE JUMPI DUP2 CALLDATALOAD DUP8 ADD PUSH1 0x40 DUP1 PUSH32 0xFFFFFFFFFFFFFFFFFFFFFFFFFFFFFFFFFFFFFFFFFFFFFFFFFFFFFFFFFFFFFFE0 DUP4 DUP13 SUB ADD SLT ISZERO PUSH2 0x22A6 JUMPI PUSH1 0x0 DUP1 REVERT JUMPDEST PUSH2 0x22AF DUP2 PUSH2 0x2D05 JUMP JUMPDEST DUP6 DUP4 ADD CALLDATALOAD PUSH2 0x22BC DUP2 PUSH2 0x2DDF JUMP JUMPDEST DUP2 MSTORE SWAP1 DUP3 ADD CALLDATALOAD SWAP1 PUSH8 0xFFFFFFFFFFFFFFFF DUP3 GT ISZERO PUSH2 0x22D8 JUMPI PUSH1 0x0 DUP1 REVERT JUMPDEST PUSH2 0x22E6 DUP12 DUP8 DUP5 DUP7 ADD ADD PUSH2 0x2309 JUMP JUMPDEST DUP2 DUP8 ADD MSTORE DUP7 MSTORE POP POP SWAP3 DUP3 ADD SWAP3 SWAP1 DUP3 ADD SWAP1 PUSH1 0x1 ADD PUSH2 0x2267 JUMP JUMPDEST POP POP POP POP POP SWAP3 SWAP2 POP POP JUMP JUMPDEST PUSH1 0x0 DUP3 PUSH1 0x1F DUP4 ADD SLT PUSH2 0x2319 JUMPI DUP1 DUP2 REVERT JUMPDEST DUP2 CALLDATALOAD PUSH2 0x2327 PUSH2 0x2251 DUP3 PUSH2 0x2D4C JUMP JUMPDEST SWAP2 POP DUP1 DUP3 MSTORE DUP4 PUSH1 0x20 DUP3 DUP6 ADD ADD GT ISZERO PUSH2 0x233E JUMPI PUSH1 0x0 DUP1 REVERT JUMPDEST DUP1 PUSH1 0x20 DUP5 ADD PUSH1 0x20 DUP5 ADD CALLDATACOPY PUSH1 0x0 SWAP1 DUP3 ADD PUSH1 0x20 ADD MSTORE SWAP3 SWAP2 POP POP JUMP JUMPDEST PUSH1 0x0 DUP3 PUSH1 0x1F DUP4 ADD SLT PUSH2 0x2367 JUMPI DUP1 DUP2 REVERT JUMPDEST DUP2 MLOAD PUSH2 0x2375 PUSH2 0x2251 DUP3 PUSH2 0x2D4C JUMP JUMPDEST SWAP2 POP DUP1 DUP3 MSTORE DUP4 PUSH1 0x20 DUP3 DUP6 ADD ADD GT ISZERO PUSH2 0x238C JUMPI PUSH1 0x0 DUP1 REVERT JUMPDEST PUSH2 0x1681 DUP2 PUSH1 0x20 DUP5 ADD PUSH1 0x20 DUP7 ADD PUSH2 0x2D8E JUMP JUMPDEST PUSH1 0x0 PUSH1 0x20 DUP3 DUP5 SUB SLT ISZERO PUSH2 0x23AE JUMPI DUP1 DUP2 REVERT JUMPDEST DUP2 CALLDATALOAD PUSH2 0x13E0 DUP2 PUSH2 0x2DBA JUMP JUMPDEST PUSH1 0x0 PUSH1 0x20 DUP3 DUP5 SUB SLT ISZERO PUSH2 0x23CA JUMPI DUP1 DUP2 REVERT JUMPDEST DUP2 MLOAD PUSH2 0x13E0 DUP2 PUSH2 0x2DBA JUMP JUMPDEST PUSH1 0x0 PUSH1 0x20 DUP1 DUP4 DUP6 SUB SLT ISZERO PUSH2 0x23E7 JUMPI DUP2 DUP3 REVERT JUMPDEST DUP3 MLOAD PUSH8 0xFFFFFFFFFFFFFFFF DUP2 GT ISZERO PUSH2 0x23FD JUMPI DUP3 DUP4 REVERT JUMPDEST DUP4 ADD PUSH1 0x1F DUP2 ADD DUP6 SGT PUSH2 0x240D JUMPI DUP3 DUP4 REVERT JUMPDEST DUP1 MLOAD PUSH2 0x241B PUSH2 0x2251 DUP3 PUSH2 0x2D2C JUMP JUMPDEST DUP2 DUP2 MSTORE DUP4 DUP2 ADD SWAP1 DUP4 DUP6 ADD DUP7 JUMPDEST DUP5 DUP2 LT ISZERO PUSH2 0x2450 JUMPI PUSH2 0x243E DUP11 DUP9 DUP5 MLOAD DUP10 ADD ADD PUSH2 0x2357 JUMP JUMPDEST DUP5 MSTORE SWAP3 DUP7 ADD SWAP3 SWAP1 DUP7 ADD SWAP1 PUSH1 0x1 ADD PUSH2 0x2427 JUMP JUMPDEST POP SWAP1 SWAP9 SWAP8 POP POP POP POP POP POP POP POP JUMP JUMPDEST PUSH1 0x0 PUSH1 0x20 DUP3 DUP5 SUB SLT ISZERO PUSH2 0x246F JUMPI DUP1 DUP2 REVERT JUMPDEST DUP2 MLOAD DUP1 ISZERO ISZERO DUP2 EQ PUSH2 0x13E0 JUMPI DUP2 DUP3 REVERT JUMPDEST PUSH1 0x0 PUSH1 0x20 DUP3 DUP5 SUB SLT ISZERO PUSH2 0x248F JUMPI DUP1 DUP2 REVERT JUMPDEST DUP2 MLOAD PUSH32 0xFFFFFFFF00000000000000000000000000000000000000000000000000000000 DUP2 AND DUP2 EQ PUSH2 0x13E0 JUMPI DUP2 DUP3 REVERT JUMPDEST PUSH1 0x0 PUSH1 0x20 DUP3 DUP5 SUB SLT ISZERO PUSH2 0x24CF JUMPI DUP1 DUP2 REVERT JUMPDEST DUP2 MLOAD PUSH8 0xFFFFFFFFFFFFFFFF DUP2 GT ISZERO PUSH2 0x24E5 JUMPI DUP2 DUP3 REVERT JUMPDEST PUSH2 0x24F1 DUP5 DUP3 DUP6 ADD PUSH2 0x2357 JUMP JUMPDEST SWAP5 SWAP4 POP POP POP POP JUMP JUMPDEST PUSH1 0x0 DUP1 PUSH1 0x0 DUP1 PUSH1 0x0 PUSH1 0xA0 DUP7 DUP9 SUB SLT ISZERO PUSH2 0x2510 JUMPI DUP1 DUP2 REVERT JUMPDEST DUP6 CALLDATALOAD PUSH2 0x251B DUP2 PUSH2 0x2DBA JUMP JUMPDEST SWAP5 POP PUSH1 0x20 DUP7 ADD CALLDATALOAD PUSH2 0x252B DUP2 PUSH2 0x2DBA JUMP JUMPDEST SWAP4 POP PUSH1 0x40 DUP7 ADD CALLDATALOAD SWAP3 POP PUSH1 0x60 DUP7 ADD CALLDATALOAD SWAP2 POP PUSH1 0x80 DUP7 ADD CALLDATALOAD PUSH8 0xFFFFFFFFFFFFFFFF DUP2 GT ISZERO PUSH2 0x2554 JUMPI DUP2 DUP3 REVERT JUMPDEST PUSH2 0x2560 DUP9 DUP3 DUP10 ADD PUSH2 0x2233 JUMP JUMPDEST SWAP2 POP POP SWAP3 SWAP6 POP SWAP3 SWAP6 SWAP1 SWAP4 POP JUMP JUMPDEST PUSH1 0x0 PUSH1 0x20 DUP3 DUP5 SUB SLT ISZERO PUSH2 0x257E JUMPI DUP1 DUP2 REVERT JUMPDEST DUP2 CALLDATALOAD PUSH8 0xFFFFFFFFFFFFFFFF DUP1 DUP3 GT ISZERO PUSH2 0x2595 JUMPI DUP3 DUP4 REVERT JUMPDEST DUP2 DUP5 ADD SWAP2 POP PUSH2 0x100 DUP1 DUP4 DUP8 SUB SLT ISZERO PUSH2 0x25AB JUMPI DUP4 DUP5 REVERT JUMPDEST PUSH2 0x25B4 DUP2 PUSH2 0x2D05 JUMP JUMPDEST SWAP1 POP PUSH2 0x25C0 DUP7 DUP5 PUSH2 0x2228 JUMP JUMPDEST DUP2 MSTORE PUSH2 0x25CF DUP7 PUSH1 0x20 DUP6 ADD PUSH2 0x2228 JUMP JUMPDEST PUSH1 0x20 DUP3 ADD MSTORE PUSH2 0x25E1 DUP7 PUSH1 0x40 DUP6 ADD PUSH2 0x2228 JUMP JUMPDEST PUSH1 0x40 DUP3 ADD MSTORE PUSH1 0x60 DUP4 ADD CALLDATALOAD PUSH1 0x60 DUP3 ADD MSTORE PUSH1 0x80 DUP4 ADD CALLDATALOAD PUSH1 0x80 DUP3 ADD MSTORE PUSH1 0xA0 DUP4 ADD CALLDATALOAD DUP3 DUP2 GT ISZERO PUSH2 0x260B JUMPI DUP5 DUP6 REVERT JUMPDEST PUSH2 0x2617 DUP8 DUP3 DUP7 ADD PUSH2 0x2233 JUMP JUMPDEST PUSH1 0xA0 DUP4 ADD MSTORE POP PUSH1 0xC0 DUP4 ADD CALLDATALOAD PUSH1 0xC0 DUP3 ADD MSTORE PUSH1 0xE0 DUP4 ADD CALLDATALOAD DUP3 DUP2 GT ISZERO PUSH2 0x2638 JUMPI DUP5 DUP6 REVERT JUMPDEST PUSH2 0x2644 DUP8 DUP3 DUP7 ADD PUSH2 0x2309 JUMP JUMPDEST PUSH1 0xE0 DUP4 ADD MSTORE POP SWAP6 SWAP5 POP POP POP POP POP JUMP JUMPDEST PUSH1 0x0 PUSH1 0x20 DUP3 DUP5 SUB SLT ISZERO PUSH2 0x2664 JUMPI DUP1 DUP2 REVERT JUMPDEST POP MLOAD SWAP2 SWAP1 POP JUMP JUMPDEST PUSH20 0xFFFFFFFFFFFFFFFFFFFFFFFFFFFFFFFFFFFFFFFF AND SWAP1 MSTORE JUMP JUMPDEST PUSH1 0x0 DUP2 MLOAD DUP1 DUP5 MSTORE PUSH2 0x269D DUP2 PUSH1 0x20 DUP7 ADD PUSH1 0x20 DUP7 ADD PUSH2 0x2D8E JUMP JUMPDEST PUSH1 0x1F ADD PUSH32 0xFFFFFFFFFFFFFFFFFFFFFFFFFFFFFFFFFFFFFFFFFFFFFFFFFFFFFFFFFFFFFFE0 AND SWAP3 SWAP1 SWAP3 ADD PUSH1 0x20 ADD SWAP3 SWAP2 POP POP JUMP JUMPDEST PUSH1 0x0 PUSH2 0x140 PUSH2 0x26DF DUP5 DUP5 MLOAD PUSH2 0x266B JUMP JUMPDEST PUSH1 0x20 DUP4 ADD MLOAD PUSH2 0x26F1 PUSH1 0x20 DUP7 ADD DUP3 PUSH2 0x266B JUMP JUMPDEST POP PUSH1 0x40 DUP4 ADD MLOAD PUSH1 0x40 DUP6 ADD MSTORE PUSH1 0x60 DUP4 ADD MLOAD PUSH1 0x60 DUP6 ADD MSTORE PUSH1 0x80 DUP4 ADD MLOAD PUSH1 0x80 DUP6 ADD MSTORE PUSH1 0xA0 DUP4 ADD MLOAD PUSH1 0xA0 DUP6 ADD MSTORE PUSH1 0xC0 DUP4 ADD MLOAD DUP2 PUSH1 0xC0 DUP7 ADD MSTORE PUSH2 0x2731 DUP3 DUP7 ADD DUP3 PUSH2 0x2685 JUMP JUMPDEST SWAP2 POP POP PUSH1 0xE0 DUP4 ADD MLOAD PUSH1 0xE0 DUP6 ADD MSTORE PUSH2 0x100 DUP1 DUP5 ADD MLOAD PUSH2 0x2751 DUP3 DUP8 ADD DUP3 PUSH2 0x266B JUMP JUMPDEST POP POP PUSH2 0x120 SWAP3 DUP4 ADD MLOAD SWAP4 SWAP1 SWAP3 ADD SWAP3 SWAP1 SWAP3 MSTORE SWAP2 SWAP1 POP JUMP JUMPDEST PUSH1 0x0 PUSH32 0xFF00000000000000000000000000000000000000000000000000000000000000 DUP1 DUP8 AND DUP4 MSTORE DUP1 DUP7 AND PUSH1 0x1 DUP5 ADD MSTORE POP PUSH32 0xFFFFFFFFFFFFFFFFFFFFFFFFFFFFFFFFFFFFFFFF000000000000000000000000 DUP5 PUSH1 0x60 SHL AND PUSH1 0x2 DUP4 ADD MSTORE DUP3 MLOAD PUSH2 0x27D6 DUP2 PUSH1 0x16 DUP6 ADD PUSH1 0x20 DUP8 ADD PUSH2 0x2D8E JUMP JUMPDEST SWAP2 SWAP1 SWAP2 ADD PUSH1 0x16 ADD SWAP6 SWAP5 POP POP POP POP POP JUMP JUMPDEST PUSH20 0xFFFFFFFFFFFFFFFFFFFFFFFFFFFFFFFFFFFFFFFF SWAP2 SWAP1 SWAP2 AND DUP2 MSTORE PUSH1 0x20 ADD SWAP1 JUMP JUMPDEST PUSH1 0x0 PUSH20 0xFFFFFFFFFFFFFFFFFFFFFFFFFFFFFFFFFFFFFFFF DUP5 AND DUP3 MSTORE PUSH1 0x40 PUSH1 0x20 DUP4 ADD MSTORE PUSH2 0x24F1 PUSH1 0x40 DUP4 ADD DUP5 PUSH2 0x2685 JUMP JUMPDEST PUSH1 0x0 PUSH2 0x140 DUP1 DUP4 ADD PUSH20 0xFFFFFFFFFFFFFFFFFFFFFFFFFFFFFFFFFFFFFFFF DUP1 DUP16 AND DUP6 MSTORE PUSH1 0x20 DUP15 DUP2 DUP8 ADD MSTORE PUSH1 0x40 DUP3 DUP16 AND DUP2 DUP9 ADD MSTORE DUP3 DUP15 AND PUSH1 0x60 DUP9 ADD MSTORE DUP3 DUP14 AND PUSH1 0x80 DUP9 ADD MSTORE DUP12 PUSH1 0xA0 DUP9 ADD MSTORE DUP11 PUSH1 0xC0 DUP9 ADD MSTORE DUP5 PUSH1 0xE0 DUP9 ADD MSTORE DUP4 SWAP5 POP DUP10 MLOAD SWAP3 POP DUP3 DUP5 MSTORE PUSH2 0x160 SWAP4 POP DUP4 DUP8 ADD SWAP5 POP DUP4 DUP3 DUP5 MUL DUP9 ADD ADD SWAP4 POP DUP2 DUP11 ADD DUP7 JUMPDEST DUP5 DUP2 LT ISZERO PUSH2 0x290F JUMPI DUP9 DUP7 SUB PUSH32 0xFFFFFFFFFFFFFFFFFFFFFFFFFFFFFFFFFFFFFFFFFFFFFFFFFFFFFFFFFFFFFEA0 ADD DUP8 MSTORE DUP2 MLOAD DUP1 MLOAD PUSH4 0xFFFFFFFF AND DUP8 MSTORE DUP5 ADD MLOAD DUP5 DUP8 ADD DUP5 SWAP1 MSTORE PUSH2 0x28FC DUP5 DUP9 ADD DUP3 PUSH2 0x2685 JUMP JUMPDEST SWAP8 DUP6 ADD SWAP8 SWAP7 POP POP SWAP1 DUP4 ADD SWAP1 PUSH1 0x1 ADD PUSH2 0x28AC JUMP JUMPDEST POP POP POP POP POP DUP6 PUSH2 0x100 DUP6 ADD MSTORE DUP4 DUP2 SUB PUSH2 0x120 DUP6 ADD MSTORE PUSH2 0x292E DUP2 DUP7 PUSH2 0x2685 JUMP JUMPDEST SWAP15 SWAP14 POP POP POP POP POP POP POP POP POP POP POP POP POP POP JUMP JUMPDEST PUSH20 0xFFFFFFFFFFFFFFFFFFFFFFFFFFFFFFFFFFFFFFFF SWAP3 DUP4 AND DUP2 MSTORE SWAP2 AND PUSH1 0x20 DUP3 ADD MSTORE PUSH1 0x40 ADD SWAP1 JUMP JUMPDEST PUSH20 0xFFFFFFFFFFFFFFFFFFFFFFFFFFFFFFFFFFFFFFFF SWAP5 DUP6 AND DUP2 MSTORE SWAP3 SWAP1 SWAP4 AND PUSH1 0x20 DUP4 ADD MSTORE PUSH1 0x40 DUP3 ADD MSTORE PUSH1 0x60 DUP2 ADD SWAP2 SWAP1 SWAP2 MSTORE PUSH1 0x80 ADD SWAP1 JUMP JUMPDEST PUSH1 0x0 PUSH20 0xFFFFFFFFFFFFFFFFFFFFFFFFFFFFFFFFFFFFFFFF DUP6 AND DUP3 MSTORE PUSH1 0x60 PUSH1 0x20 DUP4 ADD MSTORE PUSH2 0x29CC PUSH1 0x60 DUP4 ADD DUP6 PUSH2 0x2685 JUMP JUMPDEST DUP3 DUP2 SUB PUSH1 0x40 DUP5 ADD MSTORE PUSH2 0x29DE DUP2 DUP6 PUSH2 0x2685 JUMP JUMPDEST SWAP7 SWAP6 POP POP POP POP POP POP JUMP JUMPDEST PUSH20 0xFFFFFFFFFFFFFFFFFFFFFFFFFFFFFFFFFFFFFFFF SWAP3 SWAP1 SWAP3 AND DUP3 MSTORE PUSH1 0x20 DUP3 ADD MSTORE PUSH1 0x40 ADD SWAP1 JUMP JUMPDEST PUSH20 0xFFFFFFFFFFFFFFFFFFFFFFFFFFFFFFFFFFFFFFFF SWAP4 SWAP1 SWAP4 AND DUP4 MSTORE PUSH1 0x20 DUP4 ADD SWAP2 SWAP1 SWAP2 MSTORE PUSH1 0x40 DUP3 ADD MSTORE PUSH1 0x60 ADD SWAP1 JUMP JUMPDEST PUSH1 0x0 PUSH1 0x40 DUP3 ADD PUSH1 0x40 DUP4 MSTORE DUP1 DUP6 MLOAD DUP1 DUP4 MSTORE PUSH1 0x60 DUP6 ADD SWAP2 POP PUSH1 0x20 SWAP3 POP PUSH1 0x60 DUP4 DUP3 MUL DUP7 ADD ADD DUP4 DUP9 ADD DUP6 JUMPDEST DUP4 DUP2 LT ISZERO PUSH2 0x2AAF JUMPI PUSH32 0xFFFFFFFFFFFFFFFFFFFFFFFFFFFFFFFFFFFFFFFFFFFFFFFFFFFFFFFFFFFFFFA0 DUP9 DUP5 SUB ADD DUP6 MSTORE PUSH2 0x2A9D DUP4 DUP4 MLOAD PUSH2 0x26CF JUMP JUMPDEST SWAP5 DUP7 ADD SWAP5 SWAP3 POP SWAP1 DUP6 ADD SWAP1 PUSH1 0x1 ADD PUSH2 0x2A63 JUMP JUMPDEST POP POP DUP6 DUP2 SUB DUP5 DUP8 ADD MSTORE DUP1 SWAP3 POP DUP7 MLOAD SWAP2 POP PUSH2 0x2AC9 DUP3 DUP3 PUSH2 0x2CEE JUMP JUMPDEST SWAP3 POP POP DUP2 DUP4 DUP3 MUL DUP4 ADD DUP5 DUP9 ADD DUP7 JUMPDEST DUP5 DUP2 LT ISZERO PUSH2 0x2B01 JUMPI DUP4 DUP4 SUB DUP7 MSTORE PUSH2 0x2AEF DUP4 DUP4 MLOAD PUSH2 0x2685 JUMP JUMPDEST SWAP6 DUP8 ADD SWAP6 SWAP3 POP SWAP1 DUP7 ADD SWAP1 PUSH1 0x1 ADD PUSH2 0x2AD7 JUMP JUMPDEST POP SWAP1 SWAP10 SWAP9 POP POP POP POP POP POP POP POP POP JUMP JUMPDEST PUSH1 0x0 DUP5 DUP3 MSTORE PUSH20 0xFFFFFFFFFFFFFFFFFFFFFFFFFFFFFFFFFFFFFFFF DUP5 AND PUSH1 0x20 DUP4 ADD MSTORE PUSH1 0x60 PUSH1 0x40 DUP4 ADD MSTORE PUSH2 0x2B45 PUSH1 0x60 DUP4 ADD DUP5 PUSH2 0x2685 JUMP JUMPDEST SWAP6 SWAP5 POP POP POP POP POP JUMP JUMPDEST PUSH32 0xFFFFFFFF00000000000000000000000000000000000000000000000000000000 SWAP2 SWAP1 SWAP2 AND DUP2 MSTORE PUSH1 0x20 ADD SWAP1 JUMP JUMPDEST PUSH32 0xFFFFFFFF00000000000000000000000000000000000000000000000000000000 SWAP3 SWAP1 SWAP3 AND DUP3 MSTORE PUSH20 0xFFFFFFFFFFFFFFFFFFFFFFFFFFFFFFFFFFFFFFFF AND PUSH1 0x20 DUP3 ADD MSTORE PUSH1 0x40 ADD SWAP1 JUMP JUMPDEST PUSH20 0xFFFFFFFFFFFFFFFFFFFFFFFFFFFFFFFFFFFFFFFF SWAP5 DUP6 AND DUP2 MSTORE SWAP3 DUP5 AND PUSH1 0x20 DUP5 ADD MSTORE SWAP3 AND PUSH1 0x40 DUP3 ADD MSTORE PUSH1 0x60 DUP2 ADD SWAP2 SWAP1 SWAP2 MSTORE PUSH1 0x80 ADD SWAP1 JUMP JUMPDEST PUSH1 0x60 DUP2 ADD PUSH1 0x4 DUP6 LT PUSH2 0x2C08 JUMPI INVALID JUMPDEST SWAP4 DUP2 MSTORE PUSH1 0x20 DUP2 ADD SWAP3 SWAP1 SWAP3 MSTORE PUSH1 0x40 SWAP1 SWAP2 ADD MSTORE SWAP1 JUMP JUMPDEST PUSH1 0x60 DUP2 ADD PUSH1 0x8 DUP6 LT PUSH2 0x2C08 JUMPI INVALID JUMPDEST PUSH1 0x0 PUSH1 0x20 DUP3 MSTORE PUSH2 0x13E0 PUSH1 0x20 DUP4 ADD DUP5 PUSH2 0x2685 JUMP JUMPDEST PUSH1 0x20 DUP1 DUP3 MSTORE PUSH1 0x4 SWAP1 DUP3 ADD MSTORE PUSH32 0x4641494C00000000000000000000000000000000000000000000000000000000 PUSH1 0x40 DUP3 ADD MSTORE PUSH1 0x60 ADD SWAP1 JUMP JUMPDEST PUSH1 0x0 PUSH1 0x40 DUP3 MSTORE PUSH2 0x2C87 PUSH1 0x40 DUP4 ADD DUP5 PUSH2 0x26CF JUMP JUMPDEST DUP3 DUP2 SUB PUSH1 0x20 SWAP4 DUP5 ADD MSTORE SWAP1 DUP2 MSTORE ADD SWAP2 SWAP1 POP JUMP JUMPDEST PUSH1 0x0 PUSH1 0x20 DUP3 MSTORE DUP3 MLOAD PUSH1 0x20 DUP4 ADD MSTORE PUSH1 0x20 DUP4 ADD MLOAD PUSH20 0xFFFFFFFFFFFFFFFFFFFFFFFFFFFFFFFFFFFFFFFF DUP1 DUP3 AND PUSH1 0x40 DUP6 ADD MSTORE DUP1 PUSH1 0x40 DUP7 ADD MLOAD AND PUSH1 0x60 DUP6 ADD MSTORE POP POP PUSH1 0x60 DUP4 ADD MLOAD PUSH1 0x80 DUP1 DUP5 ADD MSTORE PUSH2 0x24F1 PUSH1 0xA0 DUP5 ADD DUP3 PUSH2 0x2685 JUMP JUMPDEST SWAP1 DUP2 MSTORE PUSH1 0x20 ADD SWAP1 JUMP JUMPDEST SWAP2 DUP3 MSTORE PUSH1 0x20 DUP3 ADD MSTORE PUSH1 0x40 ADD SWAP1 JUMP JUMPDEST PUSH1 0x40 MLOAD DUP2 DUP2 ADD PUSH8 0xFFFFFFFFFFFFFFFF DUP2 GT DUP3 DUP3 LT OR ISZERO PUSH2 0x2D24 JUMPI PUSH1 0x0 DUP1 REVERT JUMPDEST PUSH1 0x40 MSTORE SWAP2 SWAP1 POP JUMP JUMPDEST PUSH1 0x0 PUSH8 0xFFFFFFFFFFFFFFFF DUP3 GT ISZERO PUSH2 0x2D42 JUMPI DUP1 DUP2 REVERT JUMPDEST POP PUSH1 0x20 SWAP1 DUP2 MUL ADD SWAP1 JUMP JUMPDEST PUSH1 0x0 PUSH8 0xFFFFFFFFFFFFFFFF DUP3 GT ISZERO PUSH2 0x2D62 JUMPI DUP1 DUP2 REVERT JUMPDEST POP PUSH1 0x1F ADD PUSH32 0xFFFFFFFFFFFFFFFFFFFFFFFFFFFFFFFFFFFFFFFFFFFFFFFFFFFFFFFFFFFFFFE0 AND PUSH1 0x20 ADD SWAP1 JUMP JUMPDEST PUSH1 0x0 JUMPDEST DUP4 DUP2 LT ISZERO PUSH2 0x2DA9 JUMPI DUP2 DUP2 ADD MLOAD DUP4 DUP3 ADD MSTORE PUSH1 0x20 ADD PUSH2 0x2D91 JUMP JUMPDEST DUP4 DUP2 GT ISZERO PUSH2 0x159C JUMPI POP POP PUSH1 0x0 SWAP2 ADD MSTORE JUMP JUMPDEST PUSH20 0xFFFFFFFFFFFFFFFFFFFFFFFFFFFFFFFFFFFFFFFF DUP2 AND DUP2 EQ PUSH2 0x2DDC JUMPI PUSH1 0x0 DUP1 REVERT JUMPDEST POP JUMP JUMPDEST PUSH4 0xFFFFFFFF DUP2 AND DUP2 EQ PUSH2 0x2DDC JUMPI PUSH1 0x0 DUP1 REVERT INVALID PUSH1 0xA0 PUSH1 0x40 MSTORE CALLVALUE DUP1 ISZERO PUSH2 0x10 JUMPI PUSH1 0x0 DUP1 REVERT JUMPDEST POP CALLER PUSH1 0x60 DUP2 SWAP1 SHL PUSH1 0x80 MSTORE PUSH2 0xC9B PUSH2 0x45 PUSH1 0x0 CODECOPY DUP1 PUSH2 0x279 MSTORE DUP1 PUSH2 0x2A7 MSTORE DUP1 PUSH2 0x399 MSTORE DUP1 PUSH2 0x3D5 MSTORE DUP1 PUSH2 0x403 MSTORE POP PUSH2 0xC9B PUSH1 0x0 RETURN INVALID PUSH1 0x80 PUSH1 0x40 MSTORE PUSH1 0x4 CALLDATASIZE LT PUSH2 0x74 JUMPI PUSH1 0x0 CALLDATALOAD PUSH1 0xE0 SHR DUP1 PUSH4 0xB68DF16D GT PUSH2 0x4E JUMPI DUP1 PUSH4 0xB68DF16D EQ PUSH2 0xF8 JUMPI DUP1 PUSH4 0xBC197C81 EQ PUSH2 0x10B JUMPI DUP1 PUSH4 0xC0EE0B8A EQ PUSH2 0x138 JUMPI DUP1 PUSH4 0xF23A6E61 EQ PUSH2 0x15A JUMPI PUSH2 0x7B JUMP JUMPDEST DUP1 PUSH4 0x1FFC9A7 EQ PUSH2 0x80 JUMPI DUP1 PUSH4 0x54132D78 EQ PUSH2 0xB6 JUMPI DUP1 PUSH4 0x8DA5CB5B EQ PUSH2 0xD6 JUMPI PUSH2 0x7B JUMP JUMPDEST CALLDATASIZE PUSH2 0x7B JUMPI STOP JUMPDEST PUSH1 0x0 DUP1 REVERT JUMPDEST CALLVALUE DUP1 ISZERO PUSH2 0x8C JUMPI PUSH1 0x0 DUP1 REVERT JUMPDEST POP PUSH2 0xA0 PUSH2 0x9B CALLDATASIZE PUSH1 0x4 PUSH2 0xA3A JUMP JUMPDEST PUSH2 0x17A JUMP JUMPDEST PUSH1 0x40 MLOAD PUSH2 0xAD SWAP2 SWAP1 PUSH2 0xBF5 JUMP JUMPDEST PUSH1 0x40 MLOAD DUP1 SWAP2 SUB SWAP1 RETURN JUMPDEST PUSH2 0xC9 PUSH2 0xC4 CALLDATASIZE PUSH1 0x4 PUSH2 0x851 JUMP JUMPDEST PUSH2 0x25F JUMP JUMPDEST PUSH1 0x40 MLOAD PUSH2 0xAD SWAP2 SWAP1 PUSH2 0xC2D JUMP JUMPDEST CALLVALUE DUP1 ISZERO PUSH2 0xE2 JUMPI PUSH1 0x0 DUP1 REVERT JUMPDEST POP PUSH2 0xEB PUSH2 0x397 JUMP JUMPDEST PUSH1 0x40 MLOAD PUSH2 0xAD SWAP2 SWAP1 PUSH2 0xAFA JUMP JUMPDEST PUSH2 0xC9 PUSH2 0x106 CALLDATASIZE PUSH1 0x4 PUSH2 0x7FE JUMP JUMPDEST PUSH2 0x3BB JUMP JUMPDEST CALLVALUE DUP1 ISZERO PUSH2 0x117 JUMPI PUSH1 0x0 DUP1 REVERT JUMPDEST POP PUSH2 0x12B PUSH2 0x126 CALLDATASIZE PUSH1 0x4 PUSH2 0x8AB JUMP JUMPDEST PUSH2 0x4E8 JUMP JUMPDEST PUSH1 0x40 MLOAD PUSH2 0xAD SWAP2 SWAP1 PUSH2 0xC00 JUMP JUMPDEST CALLVALUE DUP1 ISZERO PUSH2 0x144 JUMPI PUSH1 0x0 DUP1 REVERT JUMPDEST POP PUSH2 0x158 PUSH2 0x153 CALLDATASIZE PUSH1 0x4 PUSH2 0x9E0 JUMP JUMPDEST PUSH2 0x515 JUMP JUMPDEST STOP JUMPDEST CALLVALUE DUP1 ISZERO PUSH2 0x166 JUMPI PUSH1 0x0 DUP1 REVERT JUMPDEST POP PUSH2 0x12B PUSH2 0x175 CALLDATASIZE PUSH1 0x4 PUSH2 0x966 JUMP JUMPDEST PUSH2 0x51B JUMP JUMPDEST PUSH1 0x0 PUSH32 0xFFFFFFFF00000000000000000000000000000000000000000000000000000000 DUP3 AND PUSH32 0x1FFC9A700000000000000000000000000000000000000000000000000000000 EQ DUP1 PUSH2 0x20D JUMPI POP PUSH32 0xFFFFFFFF00000000000000000000000000000000000000000000000000000000 DUP3 AND PUSH32 0x4E2312E000000000000000000000000000000000000000000000000000000000 EQ JUMPDEST DUP1 PUSH2 0x259 JUMPI POP PUSH32 0xFFFFFFFF00000000000000000000000000000000000000000000000000000000 DUP3 AND PUSH32 0xC0EE0B8A00000000000000000000000000000000000000000000000000000000 EQ JUMPDEST SWAP3 SWAP2 POP POP JUMP JUMPDEST PUSH1 0x60 CALLER PUSH20 0xFFFFFFFFFFFFFFFFFFFFFFFFFFFFFFFFFFFFFFFF PUSH32 0x0 AND EQ PUSH2 0x2D0 JUMPI PUSH2 0x2D0 PUSH2 0x2CB CALLER PUSH32 0x0 PUSH2 0x546 JUMP JUMPDEST PUSH2 0x5E8 JUMP JUMPDEST PUSH1 0x0 DUP6 PUSH20 0xFFFFFFFFFFFFFFFFFFFFFFFFFFFFFFFFFFFFFFFF AND DUP4 DUP7 DUP7 PUSH1 0x40 MLOAD PUSH2 0x2FA SWAP3 SWAP2 SWAP1 PUSH2 0xAEA JUMP JUMPDEST PUSH1 0x0 PUSH1 0x40 MLOAD DUP1 DUP4 SUB DUP2 DUP6 DUP8 GAS CALL SWAP3 POP POP POP RETURNDATASIZE DUP1 PUSH1 0x0 DUP2 EQ PUSH2 0x337 JUMPI PUSH1 0x40 MLOAD SWAP2 POP PUSH1 0x1F NOT PUSH1 0x3F RETURNDATASIZE ADD AND DUP3 ADD PUSH1 0x40 MSTORE RETURNDATASIZE DUP3 MSTORE RETURNDATASIZE PUSH1 0x0 PUSH1 0x20 DUP5 ADD RETURNDATACOPY PUSH2 0x33C JUMP JUMPDEST PUSH1 0x60 SWAP2 POP JUMPDEST POP SWAP3 POP SWAP1 POP DUP1 PUSH2 0x38E JUMPI PUSH2 0x38E PUSH2 0x2CB ADDRESS DUP9 DUP9 DUP9 DUP1 DUP1 PUSH1 0x1F ADD PUSH1 0x20 DUP1 SWAP2 DIV MUL PUSH1 0x20 ADD PUSH1 0x40 MLOAD SWAP1 DUP2 ADD PUSH1 0x40 MSTORE DUP1 SWAP4 SWAP3 SWAP2 SWAP1 DUP2 DUP2 MSTORE PUSH1 0x20 ADD DUP4 DUP4 DUP1 DUP3 DUP5 CALLDATACOPY PUSH1 0x0 SWAP3 ADD SWAP2 SWAP1 SWAP2 MSTORE POP DUP11 SWAP3 POP DUP10 SWAP2 POP PUSH2 0x5F0 SWAP1 POP JUMP JUMPDEST POP SWAP5 SWAP4 POP POP POP POP JUMP JUMPDEST PUSH32 0x0 DUP2 JUMP JUMPDEST PUSH1 0x60 CALLER PUSH20 0xFFFFFFFFFFFFFFFFFFFFFFFFFFFFFFFFFFFFFFFF PUSH32 0x0 AND EQ PUSH2 0x427 JUMPI PUSH2 0x427 PUSH2 0x2CB CALLER PUSH32 0x0 PUSH2 0x546 JUMP JUMPDEST PUSH1 0x0 DUP5 PUSH20 0xFFFFFFFFFFFFFFFFFFFFFFFFFFFFFFFFFFFFFFFF AND DUP5 DUP5 PUSH1 0x40 MLOAD PUSH2 0x450 SWAP3 SWAP2 SWAP1 PUSH2 0xAEA JUMP JUMPDEST PUSH1 0x0 PUSH1 0x40 MLOAD DUP1 DUP4 SUB DUP2 DUP6 GAS DELEGATECALL SWAP2 POP POP RETURNDATASIZE DUP1 PUSH1 0x0 DUP2 EQ PUSH2 0x48B JUMPI PUSH1 0x40 MLOAD SWAP2 POP PUSH1 0x1F NOT PUSH1 0x3F RETURNDATASIZE ADD AND DUP3 ADD PUSH1 0x40 MSTORE RETURNDATASIZE DUP3 MSTORE RETURNDATASIZE PUSH1 0x0 PUSH1 0x20 DUP5 ADD RETURNDATACOPY PUSH2 0x490 JUMP JUMPDEST PUSH1 0x60 SWAP2 POP JUMPDEST POP SWAP3 POP SWAP1 POP DUP1 PUSH2 0x4E0 JUMPI PUSH2 0x4E0 PUSH2 0x2CB ADDRESS DUP8 DUP8 DUP8 DUP1 DUP1 PUSH1 0x1F ADD PUSH1 0x20 DUP1 SWAP2 DIV MUL PUSH1 0x20 ADD PUSH1 0x40 MLOAD SWAP1 DUP2 ADD PUSH1 0x40 MSTORE DUP1 SWAP4 SWAP3 SWAP2 SWAP1 DUP2 DUP2 MSTORE PUSH1 0x20 ADD DUP4 DUP4 DUP1 DUP3 DUP5 CALLDATACOPY PUSH1 0x0 SWAP3 ADD SWAP2 SWAP1 SWAP2 MSTORE POP DUP10 SWAP3 POP PUSH2 0x6B4 SWAP2 POP POP JUMP JUMPDEST POP SWAP4 SWAP3 POP POP POP JUMP JUMPDEST PUSH32 0xBC197C8100000000000000000000000000000000000000000000000000000000 SWAP9 SWAP8 POP POP POP POP POP POP POP POP JUMP JUMPDEST POP POP POP POP JUMP JUMPDEST PUSH32 0xF23A6E6100000000000000000000000000000000000000000000000000000000 SWAP7 SWAP6 POP POP POP POP POP POP JUMP JUMPDEST PUSH1 0x60 PUSH4 0x1DE45AD1 PUSH1 0xE0 SHL DUP4 DUP4 PUSH1 0x40 MLOAD PUSH1 0x24 ADD PUSH2 0x563 SWAP3 SWAP2 SWAP1 PUSH2 0xB1B JUMP JUMPDEST PUSH1 0x40 DUP1 MLOAD PUSH32 0xFFFFFFFFFFFFFFFFFFFFFFFFFFFFFFFFFFFFFFFFFFFFFFFFFFFFFFFFFFFFFFE0 DUP2 DUP5 SUB ADD DUP2 MSTORE SWAP2 SWAP1 MSTORE PUSH1 0x20 DUP2 ADD DUP1 MLOAD PUSH28 0xFFFFFFFFFFFFFFFFFFFFFFFFFFFFFFFFFFFFFFFFFFFFFFFFFFFFFFFF AND PUSH32 0xFFFFFFFF00000000000000000000000000000000000000000000000000000000 SWAP1 SWAP4 AND SWAP3 SWAP1 SWAP3 OR SWAP1 SWAP2 MSTORE SWAP1 POP SWAP3 SWAP2 POP POP JUMP JUMPDEST DUP1 MLOAD PUSH1 0x20 DUP3 ADD REVERT JUMPDEST PUSH1 0x60 PUSH32 0x86945816F737646DB7F2D6DF01602A2212E8C75829F6940913724C13A83A8178 DUP7 DUP7 DUP7 DUP7 DUP7 PUSH1 0x40 MLOAD PUSH1 0x24 ADD PUSH2 0x62C SWAP6 SWAP5 SWAP4 SWAP3 SWAP2 SWAP1 PUSH2 0xB98 JUMP JUMPDEST PUSH1 0x40 DUP1 MLOAD PUSH32 0xFFFFFFFFFFFFFFFFFFFFFFFFFFFFFFFFFFFFFFFFFFFFFFFFFFFFFFFFFFFFFFE0 DUP2 DUP5 SUB ADD DUP2 MSTORE SWAP2 SWAP1 MSTORE PUSH1 0x20 DUP2 ADD DUP1 MLOAD PUSH28 0xFFFFFFFFFFFFFFFFFFFFFFFFFFFFFFFFFFFFFFFFFFFFFFFFFFFFFFFF AND PUSH32 0xFFFFFFFF00000000000000000000000000000000000000000000000000000000 SWAP1 SWAP4 AND SWAP3 SWAP1 SWAP3 OR SWAP1 SWAP2 MSTORE SWAP1 POP SWAP6 SWAP5 POP POP POP POP POP JUMP JUMPDEST PUSH1 0x60 PUSH32 0x61E5A7320B4CF56A2980A427F39E3071C967BF2F77FFFCAAE20E4467E160AFCC DUP6 DUP6 DUP6 DUP6 PUSH1 0x40 MLOAD PUSH1 0x24 ADD PUSH2 0x6EE SWAP5 SWAP4 SWAP3 SWAP2 SWAP1 PUSH2 0xB42 JUMP JUMPDEST PUSH1 0x40 DUP1 MLOAD PUSH32 0xFFFFFFFFFFFFFFFFFFFFFFFFFFFFFFFFFFFFFFFFFFFFFFFFFFFFFFFFFFFFFFE0 DUP2 DUP5 SUB ADD DUP2 MSTORE SWAP2 SWAP1 MSTORE PUSH1 0x20 DUP2 ADD DUP1 MLOAD PUSH28 0xFFFFFFFFFFFFFFFFFFFFFFFFFFFFFFFFFFFFFFFFFFFFFFFFFFFFFFFF AND PUSH32 0xFFFFFFFF00000000000000000000000000000000000000000000000000000000 SWAP1 SWAP4 AND SWAP3 SWAP1 SWAP3 OR SWAP1 SWAP2 MSTORE SWAP1 POP SWAP5 SWAP4 POP POP POP POP JUMP JUMPDEST PUSH1 0x0 DUP1 DUP4 PUSH1 0x1F DUP5 ADD SLT PUSH2 0x786 JUMPI DUP2 DUP3 REVERT JUMPDEST POP DUP2 CALLDATALOAD PUSH8 0xFFFFFFFFFFFFFFFF DUP2 GT ISZERO PUSH2 0x79D JUMPI DUP2 DUP3 REVERT JUMPDEST PUSH1 0x20 DUP4 ADD SWAP2 POP DUP4 PUSH1 0x20 DUP1 DUP4 MUL DUP6 ADD ADD GT ISZERO PUSH2 0x7B7 JUMPI PUSH1 0x0 DUP1 REVERT JUMPDEST SWAP3 POP SWAP3 SWAP1 POP JUMP JUMPDEST PUSH1 0x0 DUP1 DUP4 PUSH1 0x1F DUP5 ADD SLT PUSH2 0x7CF JUMPI DUP2 DUP3 REVERT JUMPDEST POP DUP2 CALLDATALOAD PUSH8 0xFFFFFFFFFFFFFFFF DUP2 GT ISZERO PUSH2 0x7E6 JUMPI DUP2 DUP3 REVERT JUMPDEST PUSH1 0x20 DUP4 ADD SWAP2 POP DUP4 PUSH1 0x20 DUP3 DUP6 ADD ADD GT ISZERO PUSH2 0x7B7 JUMPI PUSH1 0x0 DUP1 REVERT JUMPDEST PUSH1 0x0 DUP1 PUSH1 0x0 PUSH1 0x40 DUP5 DUP7 SUB SLT ISZERO PUSH2 0x812 JUMPI DUP3 DUP4 REVERT JUMPDEST DUP4 CALLDATALOAD PUSH2 0x81D DUP2 PUSH2 0xC40 JUMP JUMPDEST SWAP3 POP PUSH1 0x20 DUP5 ADD CALLDATALOAD PUSH8 0xFFFFFFFFFFFFFFFF DUP2 GT ISZERO PUSH2 0x838 JUMPI DUP3 DUP4 REVERT JUMPDEST PUSH2 0x844 DUP7 DUP3 DUP8 ADD PUSH2 0x7BE JUMP JUMPDEST SWAP5 SWAP8 SWAP1 SWAP7 POP SWAP4 SWAP5 POP POP POP POP JUMP JUMPDEST PUSH1 0x0 DUP1 PUSH1 0x0 DUP1 PUSH1 0x60 DUP6 DUP8 SUB SLT ISZERO PUSH2 0x866 JUMPI DUP1 DUP2 REVERT JUMPDEST DUP5 CALLDATALOAD PUSH2 0x871 DUP2 PUSH2 0xC40 JUMP JUMPDEST SWAP4 POP PUSH1 0x20 DUP6 ADD CALLDATALOAD PUSH8 0xFFFFFFFFFFFFFFFF DUP2 GT ISZERO PUSH2 0x88C JUMPI DUP2 DUP3 REVERT JUMPDEST PUSH2 0x898 DUP8 DUP3 DUP9 ADD PUSH2 0x7BE JUMP JUMPDEST SWAP6 SWAP9 SWAP1 SWAP8 POP SWAP5 SWAP6 PUSH1 0x40 ADD CALLDATALOAD SWAP5 SWAP4 POP POP POP POP JUMP JUMPDEST PUSH1 0x0 DUP1 PUSH1 0x0 DUP1 PUSH1 0x0 DUP1 PUSH1 0x0 DUP1 PUSH1 0xA0 DUP10 DUP12 SUB SLT ISZERO PUSH2 0x8C6 JUMPI DUP4 DUP5 REVERT JUMPDEST DUP9 CALLDATALOAD PUSH2 0x8D1 DUP2 PUSH2 0xC40 JUMP JUMPDEST SWAP8 POP PUSH1 0x20 DUP10 ADD CALLDATALOAD PUSH2 0x8E1 DUP2 PUSH2 0xC40 JUMP JUMPDEST SWAP7 POP PUSH1 0x40 DUP10 ADD CALLDATALOAD PUSH8 0xFFFFFFFFFFFFFFFF DUP1 DUP3 GT ISZERO PUSH2 0x8FD JUMPI DUP6 DUP7 REVERT JUMPDEST PUSH2 0x909 DUP13 DUP4 DUP14 ADD PUSH2 0x775 JUMP JUMPDEST SWAP1 SWAP9 POP SWAP7 POP PUSH1 0x60 DUP12 ADD CALLDATALOAD SWAP2 POP DUP1 DUP3 GT ISZERO PUSH2 0x921 JUMPI DUP6 DUP7 REVERT JUMPDEST PUSH2 0x92D DUP13 DUP4 DUP14 ADD PUSH2 0x775 JUMP JUMPDEST SWAP1 SWAP7 POP SWAP5 POP PUSH1 0x80 DUP12 ADD CALLDATALOAD SWAP2 POP DUP1 DUP3 GT ISZERO PUSH2 0x945 JUMPI DUP4 DUP5 REVERT JUMPDEST POP PUSH2 0x952 DUP12 DUP3 DUP13 ADD PUSH2 0x7BE JUMP JUMPDEST SWAP10 SWAP13 SWAP9 SWAP12 POP SWAP7 SWAP10 POP SWAP5 SWAP8 SWAP4 SWAP7 SWAP3 SWAP6 SWAP5 POP POP POP JUMP JUMPDEST PUSH1 0x0 DUP1 PUSH1 0x0 DUP1 PUSH1 0x0 DUP1 PUSH1 0xA0 DUP8 DUP10 SUB SLT ISZERO PUSH2 0x97E JUMPI DUP2 DUP3 REVERT JUMPDEST DUP7 CALLDATALOAD PUSH2 0x989 DUP2 PUSH2 0xC40 JUMP JUMPDEST SWAP6 POP PUSH1 0x20 DUP8 ADD CALLDATALOAD PUSH2 0x999 DUP2 PUSH2 0xC40 JUMP JUMPDEST SWAP5 POP PUSH1 0x40 DUP8 ADD CALLDATALOAD SWAP4 POP PUSH1 0x60 DUP8 ADD CALLDATALOAD SWAP3 POP PUSH1 0x80 DUP8 ADD CALLDATALOAD PUSH8 0xFFFFFFFFFFFFFFFF DUP2 GT ISZERO PUSH2 0x9C2 JUMPI DUP3 DUP4 REVERT JUMPDEST PUSH2 0x9CE DUP10 DUP3 DUP11 ADD PUSH2 0x7BE JUMP JUMPDEST SWAP8 SWAP11 SWAP7 SWAP10 POP SWAP5 SWAP8 POP SWAP3 SWAP6 SWAP4 SWAP5 SWAP3 POP POP POP JUMP JUMPDEST PUSH1 0x0 DUP1 PUSH1 0x0 DUP1 PUSH1 0x60 DUP6 DUP8 SUB SLT ISZERO PUSH2 0x9F5 JUMPI DUP4 DUP5 REVERT JUMPDEST DUP5 CALLDATALOAD PUSH2 0xA00 DUP2 PUSH2 0xC40 JUMP JUMPDEST SWAP4 POP PUSH1 0x20 DUP6 ADD CALLDATALOAD SWAP3 POP PUSH1 0x40 DUP6 ADD CALLDATALOAD PUSH8 0xFFFFFFFFFFFFFFFF DUP2 GT ISZERO PUSH2 0xA22 JUMPI DUP3 DUP4 REVERT JUMPDEST PUSH2 0xA2E DUP8 DUP3 DUP9 ADD PUSH2 0x7BE JUMP JUMPDEST SWAP6 SWAP9 SWAP5 SWAP8 POP SWAP6 POP POP POP POP JUMP JUMPDEST PUSH1 0x0 PUSH1 0x20 DUP3 DUP5 SUB SLT ISZERO PUSH2 0xA4B JUMPI DUP1 DUP2 REVERT JUMPDEST DUP2 CALLDATALOAD PUSH32 0xFFFFFFFF00000000000000000000000000000000000000000000000000000000 DUP2 AND DUP2 EQ PUSH2 0xA7A JUMPI DUP2 DUP3 REVERT JUMPDEST SWAP4 SWAP3 POP POP POP JUMP JUMPDEST PUSH1 0x0 DUP2 MLOAD DUP1 DUP5 MSTORE DUP2 JUMPDEST DUP2 DUP2 LT ISZERO PUSH2 0xAA6 JUMPI PUSH1 0x20 DUP2 DUP6 ADD DUP2 ADD MLOAD DUP7 DUP4 ADD DUP3 ADD MSTORE ADD PUSH2 0xA8A JUMP JUMPDEST DUP2 DUP2 GT ISZERO PUSH2 0xAB7 JUMPI DUP3 PUSH1 0x20 DUP4 DUP8 ADD ADD MSTORE JUMPDEST POP PUSH1 0x1F ADD PUSH32 0xFFFFFFFFFFFFFFFFFFFFFFFFFFFFFFFFFFFFFFFFFFFFFFFFFFFFFFFFFFFFFFE0 AND SWAP3 SWAP1 SWAP3 ADD PUSH1 0x20 ADD SWAP3 SWAP2 POP POP JUMP JUMPDEST PUSH1 0x0 DUP3 DUP5 DUP4 CALLDATACOPY SWAP2 ADD SWAP1 DUP2 MSTORE SWAP2 SWAP1 POP JUMP JUMPDEST PUSH20 0xFFFFFFFFFFFFFFFFFFFFFFFFFFFFFFFFFFFFFFFF SWAP2 SWAP1 SWAP2 AND DUP2 MSTORE PUSH1 0x20 ADD SWAP1 JUMP JUMPDEST PUSH20 0xFFFFFFFFFFFFFFFFFFFFFFFFFFFFFFFFFFFFFFFF SWAP3 DUP4 AND DUP2 MSTORE SWAP2 AND PUSH1 0x20 DUP3 ADD MSTORE PUSH1 0x40 ADD SWAP1 JUMP JUMPDEST PUSH1 0x0 PUSH20 0xFFFFFFFFFFFFFFFFFFFFFFFFFFFFFFFFFFFFFFFF DUP1 DUP8 AND DUP4 MSTORE DUP1 DUP7 AND PUSH1 0x20 DUP5 ADD MSTORE POP PUSH1 0x80 PUSH1 0x40 DUP4 ADD MSTORE PUSH2 0xB7B PUSH1 0x80 DUP4 ADD DUP6 PUSH2 0xA81 JUMP JUMPDEST DUP3 DUP2 SUB PUSH1 0x60 DUP5 ADD MSTORE PUSH2 0xB8D DUP2 DUP6 PUSH2 0xA81 JUMP JUMPDEST SWAP8 SWAP7 POP POP POP POP POP POP POP JUMP JUMPDEST PUSH1 0x0 PUSH20 0xFFFFFFFFFFFFFFFFFFFFFFFFFFFFFFFFFFFFFFFF DUP1 DUP9 AND DUP4 MSTORE DUP1 DUP8 AND PUSH1 0x20 DUP5 ADD MSTORE POP PUSH1 0xA0 PUSH1 0x40 DUP4 ADD MSTORE PUSH2 0xBD1 PUSH1 0xA0 DUP4 ADD DUP7 PUSH2 0xA81 JUMP JUMPDEST DUP5 PUSH1 0x60 DUP5 ADD MSTORE DUP3 DUP2 SUB PUSH1 0x80 DUP5 ADD MSTORE PUSH2 0xBE9 DUP2 DUP6 PUSH2 0xA81 JUMP JUMPDEST SWAP9 SWAP8 POP POP POP POP POP POP POP POP JUMP JUMPDEST SWAP1 ISZERO ISZERO DUP2 MSTORE PUSH1 0x20 ADD SWAP1 JUMP JUMPDEST PUSH32 0xFFFFFFFF00000000000000000000000000000000000000000000000000000000 SWAP2 SWAP1 SWAP2 AND DUP2 MSTORE PUSH1 0x20 ADD SWAP1 JUMP JUMPDEST PUSH1 0x0 PUSH1 0x20 DUP3 MSTORE PUSH2 0xA7A PUSH1 0x20 DUP4 ADD DUP5 PUSH2 0xA81 JUMP JUMPDEST PUSH20 0xFFFFFFFFFFFFFFFFFFFFFFFFFFFFFFFFFFFFFFFF DUP2 AND DUP2 EQ PUSH2 0xC62 JUMPI PUSH1 0x0 DUP1 REVERT JUMPDEST POP JUMP INVALID LOG2 PUSH5 0x6970667358 0x22 SLT KECCAK256 0x26 SWAP4 0xCA 0xAF 0xD0 0xBE 0xEA 0xDF SWAP14 PUSH16 0x42F9DEDF3503687E8F05A3BAEE4EC4D8 DUP7 SIGNEXTEND DUP4 JUMP CALLER 0xE8 PUSH5 0x736F6C6343 STOP MOD 0xC STOP CALLER LOG2 PUSH5 0x6970667358 0x22 SLT KECCAK256 0xC9 LOG0 0xBB PUSH18 0x59E33F66D5428A727F38939EC0C2DD45CBBA RETURNDATACOPY PUSH28 0xFFCD06B17C7D67B064736F6C634300060C0033000000000000000000 "
            }
        }
    },
    "sourceTreeHashHex": "0xeedbde1475a1240c1113e92bca2bdec9e004dfbf0d6fba066e4790eeda0a07ea",
    "compiler": {
        "name": "solc",
        "version": "0.6.12+commit.27d51765",
        "settings": {
            "remappings": [
                "@0x/contracts-utils=/Users/jacob/projects/ethdev/0x/workspace-remote/workspace/0x-monorepo/node_modules/@0x/contracts-utils",
                "@0x/contracts-erc20=/Users/jacob/projects/ethdev/0x/workspace-remote/workspace/0x-monorepo/node_modules/@0x/contracts-erc20"
            ],
            "optimizer": {
                "enabled": true,
                "runs": 1000000,
                "details": {
                    "yul": true,
                    "deduplicate": true,
                    "cse": true,
                    "constantOptimizer": true
                }
            },
            "outputSelection": {
                "*": {
                    "*": [
                        "abi",
                        "devdoc",
                        "evm.bytecode.object",
                        "evm.bytecode.sourceMap",
                        "evm.deployedBytecode.object",
                        "evm.deployedBytecode.sourceMap"
                    ]
                }
            },
            "evmVersion": "istanbul"
        }
    },
    "chains": {}
}