{
    "schemaVersion": "2.0.0",
    "contractName": "TestMintTokenERC20Transformer",
    "compilerOutput": {
        "abi": [
            {
                "anonymous": false,
                "inputs": [
                    {
                        "indexed": false,
                        "internalType": "address",
                        "name": "context",
                        "type": "address"
                    },
                    {
                        "indexed": false,
                        "internalType": "address",
                        "name": "caller",
                        "type": "address"
                    },
                    {
                        "indexed": false,
                        "internalType": "bytes32",
                        "name": "callDataHash",
                        "type": "bytes32"
                    },
                    {
                        "indexed": false,
                        "internalType": "address",
                        "name": "taker",
                        "type": "address"
                    },
                    {
                        "indexed": false,
                        "internalType": "bytes",
                        "name": "data",
                        "type": "bytes"
                    },
                    {
                        "indexed": false,
                        "internalType": "uint256",
                        "name": "inputTokenBalance",
                        "type": "uint256"
                    },
                    {
                        "indexed": false,
                        "internalType": "uint256",
                        "name": "ethBalance",
                        "type": "uint256"
                    }
                ],
                "name": "MintTransform",
                "type": "event"
            },
            {
                "inputs": [
                    {
                        "internalType": "bytes32",
                        "name": "callDataHash",
                        "type": "bytes32"
                    },
                    {
                        "internalType": "address payable",
                        "name": "taker",
                        "type": "address"
                    },
                    {
                        "internalType": "bytes",
                        "name": "data_",
                        "type": "bytes"
                    }
                ],
                "name": "transform",
                "outputs": [
                    {
                        "internalType": "bytes4",
                        "name": "success",
                        "type": "bytes4"
                    }
                ],
                "stateMutability": "nonpayable",
                "type": "function"
            }
        ],
        "devdoc": {
            "methods": {}
        },
        "evm": {
            "bytecode": {
                "linkReferences": {},
                "object": "0x608060405234801561001057600080fd5b506106b3806100206000396000f3fe608060405234801561001057600080fd5b506004361061002b5760003560e01c8063e063ed8114610030575b600080fd5b61004361003e366004610433565b610059565b604051610050919061062b565b60405180910390f35b60006100636103b1565b61006f838501856104b9565b90507ff88727773e47887bbe034b06de74a1b4cfbc764236bb91dd67ce4e1221d1e301303388888888876000015173ffffffffffffffffffffffffffffffffffffffff166370a08231306040518263ffffffff1660e01b81526004016100d5919061054e565b60206040518083038186803b1580156100ed57600080fd5b505afa158015610101573d6000803e3d6000fd5b505050506040513d601f19601f820116820180604052508101906101259190610536565b4760405161013a989796959493929190610595565b60405180910390a1805160408083015190517fa9059cbb00000000000000000000000000000000000000000000000000000000815273ffffffffffffffffffffffffffffffffffffffff9092169163a9059cbb9161019e916000919060040161056f565b602060405180830381600087803b1580156101b857600080fd5b505af11580156101cc573d6000803e3d6000fd5b505050506040513d601f19601f820116820180604052508101906101f0919061040c565b506101fe816020015161037f565b1561024f57606081015160405173ffffffffffffffffffffffffffffffffffffffff87169180156108fc02916000818181858888f19350505050158015610249573d6000803e3d6000fd5b50610354565b806020015173ffffffffffffffffffffffffffffffffffffffff166340c10f198683606001516040518363ffffffff1660e01b815260040161029292919061056f565b600060405180830381600087803b1580156102ac57600080fd5b505af11580156102c0573d6000803e3d6000fd5b505050602082015160808301516040517f9dc29fac00000000000000000000000000000000000000000000000000000000815273ffffffffffffffffffffffffffffffffffffffff9092169250639dc29fac9161032191899160040161056f565b600060405180830381600087803b15801561033b57600080fd5b505af115801561034f573d6000803e3d6000fd5b505050505b507f13c9929e0000000000000000000000000000000000000000000000000000000095945050505050565b73ffffffffffffffffffffffffffffffffffffffff811673eeeeeeeeeeeeeeeeeeeeeeeeeeeeeeeeeeeeeeee14919050565b6040518060a00160405280600073ffffffffffffffffffffffffffffffffffffffff168152602001600073ffffffffffffffffffffffffffffffffffffffff1681526020016000815260200160008152602001600081525090565b60006020828403121561041d578081fd5b8151801515811461042c578182fd5b9392505050565b60008060008060608587031215610448578283fd5b84359350602085013561045a81610658565b9250604085013567ffffffffffffffff80821115610476578384fd5b81870188601f820112610487578485fd5b8035925081831115610497578485fd5b8860208483010111156104a8578485fd5b959894975050602090940194505050565b600060a082840312156104ca578081fd5b60405160a0810181811067ffffffffffffffff821117156104e9578283fd5b60405282356104f781610658565b8152602083013561050781610658565b806020830152506040830135604082015260608301356060820152608083013560808201528091505092915050565b600060208284031215610547578081fd5b5051919050565b73ffffffffffffffffffffffffffffffffffffffff91909116815260200190565b73ffffffffffffffffffffffffffffffffffffffff929092168252602082015260400190565b600073ffffffffffffffffffffffffffffffffffffffff808b168352808a16602084015288604084015280881660608401525060e060808301528460e083015261010085878285013781818785010152807fffffffffffffffffffffffffffffffffffffffffffffffffffffffffffffffe0601f8801168401019150508360a08301528260c08301529998505050505050505050565b7fffffffff0000000000000000000000000000000000000000000000000000000091909116815260200190565b73ffffffffffffffffffffffffffffffffffffffff8116811461067a57600080fd5b5056fea26469706673582212201fba1e47383ea7577a97452fe57edfe096424c48da3113dab7e6acff36ab93f364736f6c634300060a0033",
                "opcodes": "PUSH1 0x80 PUSH1 0x40 MSTORE CALLVALUE DUP1 ISZERO PUSH2 0x10 JUMPI PUSH1 0x0 DUP1 REVERT JUMPDEST POP PUSH2 0x6B3 DUP1 PUSH2 0x20 PUSH1 0x0 CODECOPY PUSH1 0x0 RETURN INVALID PUSH1 0x80 PUSH1 0x40 MSTORE CALLVALUE DUP1 ISZERO PUSH2 0x10 JUMPI PUSH1 0x0 DUP1 REVERT JUMPDEST POP PUSH1 0x4 CALLDATASIZE LT PUSH2 0x2B JUMPI PUSH1 0x0 CALLDATALOAD PUSH1 0xE0 SHR DUP1 PUSH4 0xE063ED81 EQ PUSH2 0x30 JUMPI JUMPDEST PUSH1 0x0 DUP1 REVERT JUMPDEST PUSH2 0x43 PUSH2 0x3E CALLDATASIZE PUSH1 0x4 PUSH2 0x433 JUMP JUMPDEST PUSH2 0x59 JUMP JUMPDEST PUSH1 0x40 MLOAD PUSH2 0x50 SWAP2 SWAP1 PUSH2 0x62B JUMP JUMPDEST PUSH1 0x40 MLOAD DUP1 SWAP2 SUB SWAP1 RETURN JUMPDEST PUSH1 0x0 PUSH2 0x63 PUSH2 0x3B1 JUMP JUMPDEST PUSH2 0x6F DUP4 DUP6 ADD DUP6 PUSH2 0x4B9 JUMP JUMPDEST SWAP1 POP PUSH32 0xF88727773E47887BBE034B06DE74A1B4CFBC764236BB91DD67CE4E1221D1E301 ADDRESS CALLER DUP9 DUP9 DUP9 DUP9 DUP8 PUSH1 0x0 ADD MLOAD PUSH20 0xFFFFFFFFFFFFFFFFFFFFFFFFFFFFFFFFFFFFFFFF AND PUSH4 0x70A08231 ADDRESS PUSH1 0x40 MLOAD DUP3 PUSH4 0xFFFFFFFF AND PUSH1 0xE0 SHL DUP2 MSTORE PUSH1 0x4 ADD PUSH2 0xD5 SWAP2 SWAP1 PUSH2 0x54E JUMP JUMPDEST PUSH1 0x20 PUSH1 0x40 MLOAD DUP1 DUP4 SUB DUP2 DUP7 DUP1 EXTCODESIZE ISZERO DUP1 ISZERO PUSH2 0xED JUMPI PUSH1 0x0 DUP1 REVERT JUMPDEST POP GAS STATICCALL ISZERO DUP1 ISZERO PUSH2 0x101 JUMPI RETURNDATASIZE PUSH1 0x0 DUP1 RETURNDATACOPY RETURNDATASIZE PUSH1 0x0 REVERT JUMPDEST POP POP POP POP PUSH1 0x40 MLOAD RETURNDATASIZE PUSH1 0x1F NOT PUSH1 0x1F DUP3 ADD AND DUP3 ADD DUP1 PUSH1 0x40 MSTORE POP DUP2 ADD SWAP1 PUSH2 0x125 SWAP2 SWAP1 PUSH2 0x536 JUMP JUMPDEST SELFBALANCE PUSH1 0x40 MLOAD PUSH2 0x13A SWAP9 SWAP8 SWAP7 SWAP6 SWAP5 SWAP4 SWAP3 SWAP2 SWAP1 PUSH2 0x595 JUMP JUMPDEST PUSH1 0x40 MLOAD DUP1 SWAP2 SUB SWAP1 LOG1 DUP1 MLOAD PUSH1 0x40 DUP1 DUP4 ADD MLOAD SWAP1 MLOAD PUSH32 0xA9059CBB00000000000000000000000000000000000000000000000000000000 DUP2 MSTORE PUSH20 0xFFFFFFFFFFFFFFFFFFFFFFFFFFFFFFFFFFFFFFFF SWAP1 SWAP3 AND SWAP2 PUSH4 0xA9059CBB SWAP2 PUSH2 0x19E SWAP2 PUSH1 0x0 SWAP2 SWAP1 PUSH1 0x4 ADD PUSH2 0x56F JUMP JUMPDEST PUSH1 0x20 PUSH1 0x40 MLOAD DUP1 DUP4 SUB DUP2 PUSH1 0x0 DUP8 DUP1 EXTCODESIZE ISZERO DUP1 ISZERO PUSH2 0x1B8 JUMPI PUSH1 0x0 DUP1 REVERT JUMPDEST POP GAS CALL ISZERO DUP1 ISZERO PUSH2 0x1CC JUMPI RETURNDATASIZE PUSH1 0x0 DUP1 RETURNDATACOPY RETURNDATASIZE PUSH1 0x0 REVERT JUMPDEST POP POP POP POP PUSH1 0x40 MLOAD RETURNDATASIZE PUSH1 0x1F NOT PUSH1 0x1F DUP3 ADD AND DUP3 ADD DUP1 PUSH1 0x40 MSTORE POP DUP2 ADD SWAP1 PUSH2 0x1F0 SWAP2 SWAP1 PUSH2 0x40C JUMP JUMPDEST POP PUSH2 0x1FE DUP2 PUSH1 0x20 ADD MLOAD PUSH2 0x37F JUMP JUMPDEST ISZERO PUSH2 0x24F JUMPI PUSH1 0x60 DUP2 ADD MLOAD PUSH1 0x40 MLOAD PUSH20 0xFFFFFFFFFFFFFFFFFFFFFFFFFFFFFFFFFFFFFFFF DUP8 AND SWAP2 DUP1 ISZERO PUSH2 0x8FC MUL SWAP2 PUSH1 0x0 DUP2 DUP2 DUP2 DUP6 DUP9 DUP9 CALL SWAP4 POP POP POP POP ISZERO DUP1 ISZERO PUSH2 0x249 JUMPI RETURNDATASIZE PUSH1 0x0 DUP1 RETURNDATACOPY RETURNDATASIZE PUSH1 0x0 REVERT JUMPDEST POP PUSH2 0x354 JUMP JUMPDEST DUP1 PUSH1 0x20 ADD MLOAD PUSH20 0xFFFFFFFFFFFFFFFFFFFFFFFFFFFFFFFFFFFFFFFF AND PUSH4 0x40C10F19 DUP7 DUP4 PUSH1 0x60 ADD MLOAD PUSH1 0x40 MLOAD DUP4 PUSH4 0xFFFFFFFF AND PUSH1 0xE0 SHL DUP2 MSTORE PUSH1 0x4 ADD PUSH2 0x292 SWAP3 SWAP2 SWAP1 PUSH2 0x56F JUMP JUMPDEST PUSH1 0x0 PUSH1 0x40 MLOAD DUP1 DUP4 SUB DUP2 PUSH1 0x0 DUP8 DUP1 EXTCODESIZE ISZERO DUP1 ISZERO PUSH2 0x2AC JUMPI PUSH1 0x0 DUP1 REVERT JUMPDEST POP GAS CALL ISZERO DUP1 ISZERO PUSH2 0x2C0 JUMPI RETURNDATASIZE PUSH1 0x0 DUP1 RETURNDATACOPY RETURNDATASIZE PUSH1 0x0 REVERT JUMPDEST POP POP POP PUSH1 0x20 DUP3 ADD MLOAD PUSH1 0x80 DUP4 ADD MLOAD PUSH1 0x40 MLOAD PUSH32 0x9DC29FAC00000000000000000000000000000000000000000000000000000000 DUP2 MSTORE PUSH20 0xFFFFFFFFFFFFFFFFFFFFFFFFFFFFFFFFFFFFFFFF SWAP1 SWAP3 AND SWAP3 POP PUSH4 0x9DC29FAC SWAP2 PUSH2 0x321 SWAP2 DUP10 SWAP2 PUSH1 0x4 ADD PUSH2 0x56F JUMP JUMPDEST PUSH1 0x0 PUSH1 0x40 MLOAD DUP1 DUP4 SUB DUP2 PUSH1 0x0 DUP8 DUP1 EXTCODESIZE ISZERO DUP1 ISZERO PUSH2 0x33B JUMPI PUSH1 0x0 DUP1 REVERT JUMPDEST POP GAS CALL ISZERO DUP1 ISZERO PUSH2 0x34F JUMPI RETURNDATASIZE PUSH1 0x0 DUP1 RETURNDATACOPY RETURNDATASIZE PUSH1 0x0 REVERT JUMPDEST POP POP POP POP JUMPDEST POP PUSH32 0x13C9929E00000000000000000000000000000000000000000000000000000000 SWAP6 SWAP5 POP POP POP POP POP JUMP JUMPDEST PUSH20 0xFFFFFFFFFFFFFFFFFFFFFFFFFFFFFFFFFFFFFFFF DUP2 AND PUSH20 0xEEEEEEEEEEEEEEEEEEEEEEEEEEEEEEEEEEEEEEEE EQ SWAP2 SWAP1 POP JUMP JUMPDEST PUSH1 0x40 MLOAD DUP1 PUSH1 0xA0 ADD PUSH1 0x40 MSTORE DUP1 PUSH1 0x0 PUSH20 0xFFFFFFFFFFFFFFFFFFFFFFFFFFFFFFFFFFFFFFFF AND DUP2 MSTORE PUSH1 0x20 ADD PUSH1 0x0 PUSH20 0xFFFFFFFFFFFFFFFFFFFFFFFFFFFFFFFFFFFFFFFF AND DUP2 MSTORE PUSH1 0x20 ADD PUSH1 0x0 DUP2 MSTORE PUSH1 0x20 ADD PUSH1 0x0 DUP2 MSTORE PUSH1 0x20 ADD PUSH1 0x0 DUP2 MSTORE POP SWAP1 JUMP JUMPDEST PUSH1 0x0 PUSH1 0x20 DUP3 DUP5 SUB SLT ISZERO PUSH2 0x41D JUMPI DUP1 DUP2 REVERT JUMPDEST DUP2 MLOAD DUP1 ISZERO ISZERO DUP2 EQ PUSH2 0x42C JUMPI DUP2 DUP3 REVERT JUMPDEST SWAP4 SWAP3 POP POP POP JUMP JUMPDEST PUSH1 0x0 DUP1 PUSH1 0x0 DUP1 PUSH1 0x60 DUP6 DUP8 SUB SLT ISZERO PUSH2 0x448 JUMPI DUP3 DUP4 REVERT JUMPDEST DUP5 CALLDATALOAD SWAP4 POP PUSH1 0x20 DUP6 ADD CALLDATALOAD PUSH2 0x45A DUP2 PUSH2 0x658 JUMP JUMPDEST SWAP3 POP PUSH1 0x40 DUP6 ADD CALLDATALOAD PUSH8 0xFFFFFFFFFFFFFFFF DUP1 DUP3 GT ISZERO PUSH2 0x476 JUMPI DUP4 DUP5 REVERT JUMPDEST DUP2 DUP8 ADD DUP9 PUSH1 0x1F DUP3 ADD SLT PUSH2 0x487 JUMPI DUP5 DUP6 REVERT JUMPDEST DUP1 CALLDATALOAD SWAP3 POP DUP2 DUP4 GT ISZERO PUSH2 0x497 JUMPI DUP5 DUP6 REVERT JUMPDEST DUP9 PUSH1 0x20 DUP5 DUP4 ADD ADD GT ISZERO PUSH2 0x4A8 JUMPI DUP5 DUP6 REVERT JUMPDEST SWAP6 SWAP9 SWAP5 SWAP8 POP POP PUSH1 0x20 SWAP1 SWAP5 ADD SWAP5 POP POP POP JUMP JUMPDEST PUSH1 0x0 PUSH1 0xA0 DUP3 DUP5 SUB SLT ISZERO PUSH2 0x4CA JUMPI DUP1 DUP2 REVERT JUMPDEST PUSH1 0x40 MLOAD PUSH1 0xA0 DUP2 ADD DUP2 DUP2 LT PUSH8 0xFFFFFFFFFFFFFFFF DUP3 GT OR ISZERO PUSH2 0x4E9 JUMPI DUP3 DUP4 REVERT JUMPDEST PUSH1 0x40 MSTORE DUP3 CALLDATALOAD PUSH2 0x4F7 DUP2 PUSH2 0x658 JUMP JUMPDEST DUP2 MSTORE PUSH1 0x20 DUP4 ADD CALLDATALOAD PUSH2 0x507 DUP2 PUSH2 0x658 JUMP JUMPDEST DUP1 PUSH1 0x20 DUP4 ADD MSTORE POP PUSH1 0x40 DUP4 ADD CALLDATALOAD PUSH1 0x40 DUP3 ADD MSTORE PUSH1 0x60 DUP4 ADD CALLDATALOAD PUSH1 0x60 DUP3 ADD MSTORE PUSH1 0x80 DUP4 ADD CALLDATALOAD PUSH1 0x80 DUP3 ADD MSTORE DUP1 SWAP2 POP POP SWAP3 SWAP2 POP POP JUMP JUMPDEST PUSH1 0x0 PUSH1 0x20 DUP3 DUP5 SUB SLT ISZERO PUSH2 0x547 JUMPI DUP1 DUP2 REVERT JUMPDEST POP MLOAD SWAP2 SWAP1 POP JUMP JUMPDEST PUSH20 0xFFFFFFFFFFFFFFFFFFFFFFFFFFFFFFFFFFFFFFFF SWAP2 SWAP1 SWAP2 AND DUP2 MSTORE PUSH1 0x20 ADD SWAP1 JUMP JUMPDEST PUSH20 0xFFFFFFFFFFFFFFFFFFFFFFFFFFFFFFFFFFFFFFFF SWAP3 SWAP1 SWAP3 AND DUP3 MSTORE PUSH1 0x20 DUP3 ADD MSTORE PUSH1 0x40 ADD SWAP1 JUMP JUMPDEST PUSH1 0x0 PUSH20 0xFFFFFFFFFFFFFFFFFFFFFFFFFFFFFFFFFFFFFFFF DUP1 DUP12 AND DUP4 MSTORE DUP1 DUP11 AND PUSH1 0x20 DUP5 ADD MSTORE DUP9 PUSH1 0x40 DUP5 ADD MSTORE DUP1 DUP9 AND PUSH1 0x60 DUP5 ADD MSTORE POP PUSH1 0xE0 PUSH1 0x80 DUP4 ADD MSTORE DUP5 PUSH1 0xE0 DUP4 ADD MSTORE PUSH2 0x100 DUP6 DUP8 DUP3 DUP6 ADD CALLDATACOPY DUP2 DUP2 DUP8 DUP6 ADD ADD MSTORE DUP1 PUSH32 0xFFFFFFFFFFFFFFFFFFFFFFFFFFFFFFFFFFFFFFFFFFFFFFFFFFFFFFFFFFFFFFE0 PUSH1 0x1F DUP9 ADD AND DUP5 ADD ADD SWAP2 POP POP DUP4 PUSH1 0xA0 DUP4 ADD MSTORE DUP3 PUSH1 0xC0 DUP4 ADD MSTORE SWAP10 SWAP9 POP POP POP POP POP POP POP POP POP JUMP JUMPDEST PUSH32 0xFFFFFFFF00000000000000000000000000000000000000000000000000000000 SWAP2 SWAP1 SWAP2 AND DUP2 MSTORE PUSH1 0x20 ADD SWAP1 JUMP JUMPDEST PUSH20 0xFFFFFFFFFFFFFFFFFFFFFFFFFFFFFFFFFFFFFFFF DUP2 AND DUP2 EQ PUSH2 0x67A JUMPI PUSH1 0x0 DUP1 REVERT JUMPDEST POP JUMP INVALID LOG2 PUSH5 0x6970667358 0x22 SLT KECCAK256 0x1F 0xBA 0x1E SELFBALANCE CODESIZE RETURNDATACOPY 0xA7 JUMPI PUSH27 0x97452FE57EDFE096424C48DA3113DAB7E6ACFF36AB93F364736F6C PUSH4 0x4300060A STOP CALLER "
            }
        }
    },
    "sourceTreeHashHex": "0xcc9bdf2eaa98615dae6760e92a062c992c419a9114359d687852a297a1be4669",
    "compiler": {
        "name": "solc",
        "version": "0.6.10+commit.00c0fcaf",
        "settings": {
            "remappings": [
                "@0x/contracts-utils=/Users/jacob/projects/ethdev/0x/workspace-remote/workspace/0x-monorepo/node_modules/@0x/contracts-utils",
                "@0x/contracts-erc20=/Users/jacob/projects/ethdev/0x/workspace-remote/workspace/0x-monorepo/node_modules/@0x/contracts-erc20"
            ],
            "optimizer": {
                "enabled": true,
                "runs": 1000000,
                "details": {
                    "yul": true,
                    "deduplicate": true,
                    "cse": true,
                    "constantOptimizer": true
                }
            },
            "outputSelection": {
                "*": {
                    "*": [
                        "abi",
                        "devdoc",
                        "evm.bytecode.object",
                        "evm.bytecode.sourceMap",
                        "evm.deployedBytecode.object",
                        "evm.deployedBytecode.sourceMap"
                    ]
                }
            },
            "evmVersion": "istanbul"
        }
    },
    "chains": {}
}