{
    "schemaVersion": "2.0.0",
    "contractName": "TestMintableERC20Token",
    "compilerOutput": {
        "abi": [
            {
                "inputs": [
                    {
                        "internalType": "address",
                        "name": "",
                        "type": "address"
                    },
                    {
                        "internalType": "address",
                        "name": "",
                        "type": "address"
                    }
                ],
                "name": "allowance",
                "outputs": [
                    {
                        "internalType": "uint256",
                        "name": "",
                        "type": "uint256"
                    }
                ],
                "stateMutability": "view",
                "type": "function"
            },
            {
                "inputs": [
                    {
                        "internalType": "address",
                        "name": "spender",
                        "type": "address"
                    },
                    {
                        "internalType": "uint256",
                        "name": "amount",
                        "type": "uint256"
                    }
                ],
                "name": "approve",
                "outputs": [
                    {
                        "internalType": "bool",
                        "name": "",
                        "type": "bool"
                    }
                ],
                "stateMutability": "nonpayable",
                "type": "function"
            },
            {
                "inputs": [
                    {
                        "internalType": "address",
                        "name": "",
                        "type": "address"
                    }
                ],
                "name": "balanceOf",
                "outputs": [
                    {
                        "internalType": "uint256",
                        "name": "",
                        "type": "uint256"
                    }
                ],
                "stateMutability": "view",
                "type": "function"
            },
            {
                "inputs": [
                    {
                        "internalType": "address",
                        "name": "owner",
                        "type": "address"
                    },
                    {
                        "internalType": "uint256",
                        "name": "amount",
                        "type": "uint256"
                    }
                ],
                "name": "burn",
                "outputs": [],
                "stateMutability": "nonpayable",
                "type": "function"
            },
            {
                "inputs": [
                    {
                        "internalType": "address",
                        "name": "owner",
                        "type": "address"
                    },
                    {
                        "internalType": "address",
                        "name": "spender",
                        "type": "address"
                    }
                ],
                "name": "getSpendableAmount",
                "outputs": [
                    {
                        "internalType": "uint256",
                        "name": "",
                        "type": "uint256"
                    }
                ],
                "stateMutability": "view",
                "type": "function"
            },
            {
                "inputs": [
                    {
                        "internalType": "address",
                        "name": "owner",
                        "type": "address"
                    },
                    {
                        "internalType": "uint256",
                        "name": "amount",
                        "type": "uint256"
                    }
                ],
                "name": "mint",
                "outputs": [],
                "stateMutability": "nonpayable",
                "type": "function"
            },
            {
                "inputs": [
                    {
                        "internalType": "address",
                        "name": "to",
                        "type": "address"
                    },
                    {
                        "internalType": "uint256",
                        "name": "amount",
                        "type": "uint256"
                    }
                ],
                "name": "transfer",
                "outputs": [
                    {
                        "internalType": "bool",
                        "name": "",
                        "type": "bool"
                    }
                ],
                "stateMutability": "nonpayable",
                "type": "function"
            },
            {
                "inputs": [
                    {
                        "internalType": "address",
                        "name": "from",
                        "type": "address"
                    },
                    {
                        "internalType": "address",
                        "name": "to",
                        "type": "address"
                    },
                    {
                        "internalType": "uint256",
                        "name": "amount",
                        "type": "uint256"
                    }
                ],
                "name": "transferFrom",
                "outputs": [
                    {
                        "internalType": "bool",
                        "name": "",
                        "type": "bool"
                    }
                ],
                "stateMutability": "nonpayable",
                "type": "function"
            }
        ],
        "devdoc": {
            "kind": "dev",
            "methods": {},
            "version": 1
        },
        "evm": {
            "bytecode": {
                "linkReferences": {},
                "object": "0x608060405234801561001057600080fd5b5061069b806100206000396000f3fe608060405234801561001057600080fd5b50600436106100885760003560e01c806370a082311161005b57806370a08231146100fe5780639dc29fac14610111578063a9059cbb14610124578063dd62ed3e1461013757610088565b8063095ea7b31461008d57806323b872dd146100b65780632724ed4b146100c957806340c10f19146100e9575b600080fd5b6100a061009b366004610548565b61014a565b6040516100ad9190610572565b60405180910390f35b6100a06100c4366004610508565b610185565b6100dc6100d73660046104d4565b6102f1565b6040516100ad9190610637565b6100fc6100f7366004610548565b61039b565b005b6100dc61010c3660046104b9565b6103ca565b6100fc61011f366004610548565b6103dc565b6100a0610132366004610548565b61046b565b6100dc6101453660046104d4565b610478565b33600090815260016020818152604080842073ffffffffffffffffffffffffffffffffffffffff871685529091529091208290555b92915050565b600073ffffffffffffffffffffffffffffffffffffffff8416331461024f5773ffffffffffffffffffffffffffffffffffffffff84166000908152600160209081526040808320338452909152902054821115610217576040517f08c379a000000000000000000000000000000000000000000000000000000000815260040161020e906105da565b60405180910390fd5b73ffffffffffffffffffffffffffffffffffffffff841660009081526001602090815260408083203384529091529020805483900390555b73ffffffffffffffffffffffffffffffffffffffff84166000908152602081905260409020548211156102ae576040517f08c379a000000000000000000000000000000000000000000000000000000000815260040161020e9061057d565b5073ffffffffffffffffffffffffffffffffffffffff92831660009081526020819052604080822080548490039055929093168352912080549091019055600190565b73ffffffffffffffffffffffffffffffffffffffff8083166000818152600160209081526040808320948616835293815283822054928252819052918220541061036d5773ffffffffffffffffffffffffffffffffffffffff808416600090815260016020908152604080832093861683529290522054610394565b73ffffffffffffffffffffffffffffffffffffffff83166000908152602081905260409020545b9392505050565b73ffffffffffffffffffffffffffffffffffffffff909116600090815260208190526040902080549091019055565b60006020819052908152604090205481565b73ffffffffffffffffffffffffffffffffffffffff821660009081526020819052604090205481111561043b576040517f08c379a000000000000000000000000000000000000000000000000000000000815260040161020e9061057d565b73ffffffffffffffffffffffffffffffffffffffff90911660009081526020819052604090208054919091039055565b6000610394338484610185565b600160209081526000928352604080842090915290825290205481565b803573ffffffffffffffffffffffffffffffffffffffff8116811461017f57600080fd5b6000602082840312156104ca578081fd5b6103948383610495565b600080604083850312156104e6578081fd5b6104f08484610495565b91506104ff8460208501610495565b90509250929050565b60008060006060848603121561051c578081fd5b833561052781610640565b9250602084013561053781610640565b929592945050506040919091013590565b6000806040838503121561055a578182fd5b6105648484610495565b946020939093013593505050565b901515815260200190565b60208082526029908201527f546573744d696e7461626c654552433230546f6b656e2f494e5355464649434960408201527f454e545f46554e44530000000000000000000000000000000000000000000000606082015260800190565b6020808252602d908201527f546573744d696e7461626c654552433230546f6b656e2f494e5355464649434960408201527f454e545f414c4c4f57414e434500000000000000000000000000000000000000606082015260800190565b90815260200190565b73ffffffffffffffffffffffffffffffffffffffff8116811461066257600080fd5b5056fea2646970667358221220c3265c97bbb8d31b447e0569490703abaa20ee51b1fc111be59c19a546dea18b64736f6c634300060b0033",
                "opcodes": "PUSH1 0x80 PUSH1 0x40 MSTORE CALLVALUE DUP1 ISZERO PUSH2 0x10 JUMPI PUSH1 0x0 DUP1 REVERT JUMPDEST POP PUSH2 0x69B DUP1 PUSH2 0x20 PUSH1 0x0 CODECOPY PUSH1 0x0 RETURN INVALID PUSH1 0x80 PUSH1 0x40 MSTORE CALLVALUE DUP1 ISZERO PUSH2 0x10 JUMPI PUSH1 0x0 DUP1 REVERT JUMPDEST POP PUSH1 0x4 CALLDATASIZE LT PUSH2 0x88 JUMPI PUSH1 0x0 CALLDATALOAD PUSH1 0xE0 SHR DUP1 PUSH4 0x70A08231 GT PUSH2 0x5B JUMPI DUP1 PUSH4 0x70A08231 EQ PUSH2 0xFE JUMPI DUP1 PUSH4 0x9DC29FAC EQ PUSH2 0x111 JUMPI DUP1 PUSH4 0xA9059CBB EQ PUSH2 0x124 JUMPI DUP1 PUSH4 0xDD62ED3E EQ PUSH2 0x137 JUMPI PUSH2 0x88 JUMP JUMPDEST DUP1 PUSH4 0x95EA7B3 EQ PUSH2 0x8D JUMPI DUP1 PUSH4 0x23B872DD EQ PUSH2 0xB6 JUMPI DUP1 PUSH4 0x2724ED4B EQ PUSH2 0xC9 JUMPI DUP1 PUSH4 0x40C10F19 EQ PUSH2 0xE9 JUMPI JUMPDEST PUSH1 0x0 DUP1 REVERT JUMPDEST PUSH2 0xA0 PUSH2 0x9B CALLDATASIZE PUSH1 0x4 PUSH2 0x548 JUMP JUMPDEST PUSH2 0x14A JUMP JUMPDEST PUSH1 0x40 MLOAD PUSH2 0xAD SWAP2 SWAP1 PUSH2 0x572 JUMP JUMPDEST PUSH1 0x40 MLOAD DUP1 SWAP2 SUB SWAP1 RETURN JUMPDEST PUSH2 0xA0 PUSH2 0xC4 CALLDATASIZE PUSH1 0x4 PUSH2 0x508 JUMP JUMPDEST PUSH2 0x185 JUMP JUMPDEST PUSH2 0xDC PUSH2 0xD7 CALLDATASIZE PUSH1 0x4 PUSH2 0x4D4 JUMP JUMPDEST PUSH2 0x2F1 JUMP JUMPDEST PUSH1 0x40 MLOAD PUSH2 0xAD SWAP2 SWAP1 PUSH2 0x637 JUMP JUMPDEST PUSH2 0xFC PUSH2 0xF7 CALLDATASIZE PUSH1 0x4 PUSH2 0x548 JUMP JUMPDEST PUSH2 0x39B JUMP JUMPDEST STOP JUMPDEST PUSH2 0xDC PUSH2 0x10C CALLDATASIZE PUSH1 0x4 PUSH2 0x4B9 JUMP JUMPDEST PUSH2 0x3CA JUMP JUMPDEST PUSH2 0xFC PUSH2 0x11F CALLDATASIZE PUSH1 0x4 PUSH2 0x548 JUMP JUMPDEST PUSH2 0x3DC JUMP JUMPDEST PUSH2 0xA0 PUSH2 0x132 CALLDATASIZE PUSH1 0x4 PUSH2 0x548 JUMP JUMPDEST PUSH2 0x46B JUMP JUMPDEST PUSH2 0xDC PUSH2 0x145 CALLDATASIZE PUSH1 0x4 PUSH2 0x4D4 JUMP JUMPDEST PUSH2 0x478 JUMP JUMPDEST CALLER PUSH1 0x0 SWAP1 DUP2 MSTORE PUSH1 0x1 PUSH1 0x20 DUP2 DUP2 MSTORE PUSH1 0x40 DUP1 DUP5 KECCAK256 PUSH20 0xFFFFFFFFFFFFFFFFFFFFFFFFFFFFFFFFFFFFFFFF DUP8 AND DUP6 MSTORE SWAP1 SWAP2 MSTORE SWAP1 SWAP2 KECCAK256 DUP3 SWAP1 SSTORE JUMPDEST SWAP3 SWAP2 POP POP JUMP JUMPDEST PUSH1 0x0 PUSH20 0xFFFFFFFFFFFFFFFFFFFFFFFFFFFFFFFFFFFFFFFF DUP5 AND CALLER EQ PUSH2 0x24F JUMPI PUSH20 0xFFFFFFFFFFFFFFFFFFFFFFFFFFFFFFFFFFFFFFFF DUP5 AND PUSH1 0x0 SWAP1 DUP2 MSTORE PUSH1 0x1 PUSH1 0x20 SWAP1 DUP2 MSTORE PUSH1 0x40 DUP1 DUP4 KECCAK256 CALLER DUP5 MSTORE SWAP1 SWAP2 MSTORE SWAP1 KECCAK256 SLOAD DUP3 GT ISZERO PUSH2 0x217 JUMPI PUSH1 0x40 MLOAD PUSH32 0x8C379A000000000000000000000000000000000000000000000000000000000 DUP2 MSTORE PUSH1 0x4 ADD PUSH2 0x20E SWAP1 PUSH2 0x5DA JUMP JUMPDEST PUSH1 0x40 MLOAD DUP1 SWAP2 SUB SWAP1 REVERT JUMPDEST PUSH20 0xFFFFFFFFFFFFFFFFFFFFFFFFFFFFFFFFFFFFFFFF DUP5 AND PUSH1 0x0 SWAP1 DUP2 MSTORE PUSH1 0x1 PUSH1 0x20 SWAP1 DUP2 MSTORE PUSH1 0x40 DUP1 DUP4 KECCAK256 CALLER DUP5 MSTORE SWAP1 SWAP2 MSTORE SWAP1 KECCAK256 DUP1 SLOAD DUP4 SWAP1 SUB SWAP1 SSTORE JUMPDEST PUSH20 0xFFFFFFFFFFFFFFFFFFFFFFFFFFFFFFFFFFFFFFFF DUP5 AND PUSH1 0x0 SWAP1 DUP2 MSTORE PUSH1 0x20 DUP2 SWAP1 MSTORE PUSH1 0x40 SWAP1 KECCAK256 SLOAD DUP3 GT ISZERO PUSH2 0x2AE JUMPI PUSH1 0x40 MLOAD PUSH32 0x8C379A000000000000000000000000000000000000000000000000000000000 DUP2 MSTORE PUSH1 0x4 ADD PUSH2 0x20E SWAP1 PUSH2 0x57D JUMP JUMPDEST POP PUSH20 0xFFFFFFFFFFFFFFFFFFFFFFFFFFFFFFFFFFFFFFFF SWAP3 DUP4 AND PUSH1 0x0 SWAP1 DUP2 MSTORE PUSH1 0x20 DUP2 SWAP1 MSTORE PUSH1 0x40 DUP1 DUP3 KECCAK256 DUP1 SLOAD DUP5 SWAP1 SUB SWAP1 SSTORE SWAP3 SWAP1 SWAP4 AND DUP4 MSTORE SWAP2 KECCAK256 DUP1 SLOAD SWAP1 SWAP2 ADD SWAP1 SSTORE PUSH1 0x1 SWAP1 JUMP JUMPDEST PUSH20 0xFFFFFFFFFFFFFFFFFFFFFFFFFFFFFFFFFFFFFFFF DUP1 DUP4 AND PUSH1 0x0 DUP2 DUP2 MSTORE PUSH1 0x1 PUSH1 0x20 SWAP1 DUP2 MSTORE PUSH1 0x40 DUP1 DUP4 KECCAK256 SWAP5 DUP7 AND DUP4 MSTORE SWAP4 DUP2 MSTORE DUP4 DUP3 KECCAK256 SLOAD SWAP3 DUP3 MSTORE DUP2 SWAP1 MSTORE SWAP2 DUP3 KECCAK256 SLOAD LT PUSH2 0x36D JUMPI PUSH20 0xFFFFFFFFFFFFFFFFFFFFFFFFFFFFFFFFFFFFFFFF DUP1 DUP5 AND PUSH1 0x0 SWAP1 DUP2 MSTORE PUSH1 0x1 PUSH1 0x20 SWAP1 DUP2 MSTORE PUSH1 0x40 DUP1 DUP4 KECCAK256 SWAP4 DUP7 AND DUP4 MSTORE SWAP3 SWAP1 MSTORE KECCAK256 SLOAD PUSH2 0x394 JUMP JUMPDEST PUSH20 0xFFFFFFFFFFFFFFFFFFFFFFFFFFFFFFFFFFFFFFFF DUP4 AND PUSH1 0x0 SWAP1 DUP2 MSTORE PUSH1 0x20 DUP2 SWAP1 MSTORE PUSH1 0x40 SWAP1 KECCAK256 SLOAD JUMPDEST SWAP4 SWAP3 POP POP POP JUMP JUMPDEST PUSH20 0xFFFFFFFFFFFFFFFFFFFFFFFFFFFFFFFFFFFFFFFF SWAP1 SWAP2 AND PUSH1 0x0 SWAP1 DUP2 MSTORE PUSH1 0x20 DUP2 SWAP1 MSTORE PUSH1 0x40 SWAP1 KECCAK256 DUP1 SLOAD SWAP1 SWAP2 ADD SWAP1 SSTORE JUMP JUMPDEST PUSH1 0x0 PUSH1 0x20 DUP2 SWAP1 MSTORE SWAP1 DUP2 MSTORE PUSH1 0x40 SWAP1 KECCAK256 SLOAD DUP2 JUMP JUMPDEST PUSH20 0xFFFFFFFFFFFFFFFFFFFFFFFFFFFFFFFFFFFFFFFF DUP3 AND PUSH1 0x0 SWAP1 DUP2 MSTORE PUSH1 0x20 DUP2 SWAP1 MSTORE PUSH1 0x40 SWAP1 KECCAK256 SLOAD DUP2 GT ISZERO PUSH2 0x43B JUMPI PUSH1 0x40 MLOAD PUSH32 0x8C379A000000000000000000000000000000000000000000000000000000000 DUP2 MSTORE PUSH1 0x4 ADD PUSH2 0x20E SWAP1 PUSH2 0x57D JUMP JUMPDEST PUSH20 0xFFFFFFFFFFFFFFFFFFFFFFFFFFFFFFFFFFFFFFFF SWAP1 SWAP2 AND PUSH1 0x0 SWAP1 DUP2 MSTORE PUSH1 0x20 DUP2 SWAP1 MSTORE PUSH1 0x40 SWAP1 KECCAK256 DUP1 SLOAD SWAP2 SWAP1 SWAP2 SUB SWAP1 SSTORE JUMP JUMPDEST PUSH1 0x0 PUSH2 0x394 CALLER DUP5 DUP5 PUSH2 0x185 JUMP JUMPDEST PUSH1 0x1 PUSH1 0x20 SWAP1 DUP2 MSTORE PUSH1 0x0 SWAP3 DUP4 MSTORE PUSH1 0x40 DUP1 DUP5 KECCAK256 SWAP1 SWAP2 MSTORE SWAP1 DUP3 MSTORE SWAP1 KECCAK256 SLOAD DUP2 JUMP JUMPDEST DUP1 CALLDATALOAD PUSH20 0xFFFFFFFFFFFFFFFFFFFFFFFFFFFFFFFFFFFFFFFF DUP2 AND DUP2 EQ PUSH2 0x17F JUMPI PUSH1 0x0 DUP1 REVERT JUMPDEST PUSH1 0x0 PUSH1 0x20 DUP3 DUP5 SUB SLT ISZERO PUSH2 0x4CA JUMPI DUP1 DUP2 REVERT JUMPDEST PUSH2 0x394 DUP4 DUP4 PUSH2 0x495 JUMP JUMPDEST PUSH1 0x0 DUP1 PUSH1 0x40 DUP4 DUP6 SUB SLT ISZERO PUSH2 0x4E6 JUMPI DUP1 DUP2 REVERT JUMPDEST PUSH2 0x4F0 DUP5 DUP5 PUSH2 0x495 JUMP JUMPDEST SWAP2 POP PUSH2 0x4FF DUP5 PUSH1 0x20 DUP6 ADD PUSH2 0x495 JUMP JUMPDEST SWAP1 POP SWAP3 POP SWAP3 SWAP1 POP JUMP JUMPDEST PUSH1 0x0 DUP1 PUSH1 0x0 PUSH1 0x60 DUP5 DUP7 SUB SLT ISZERO PUSH2 0x51C JUMPI DUP1 DUP2 REVERT JUMPDEST DUP4 CALLDATALOAD PUSH2 0x527 DUP2 PUSH2 0x640 JUMP JUMPDEST SWAP3 POP PUSH1 0x20 DUP5 ADD CALLDATALOAD PUSH2 0x537 DUP2 PUSH2 0x640 JUMP JUMPDEST SWAP3 SWAP6 SWAP3 SWAP5 POP POP POP PUSH1 0x40 SWAP2 SWAP1 SWAP2 ADD CALLDATALOAD SWAP1 JUMP JUMPDEST PUSH1 0x0 DUP1 PUSH1 0x40 DUP4 DUP6 SUB SLT ISZERO PUSH2 0x55A JUMPI DUP2 DUP3 REVERT JUMPDEST PUSH2 0x564 DUP5 DUP5 PUSH2 0x495 JUMP JUMPDEST SWAP5 PUSH1 0x20 SWAP4 SWAP1 SWAP4 ADD CALLDATALOAD SWAP4 POP POP POP JUMP JUMPDEST SWAP1 ISZERO ISZERO DUP2 MSTORE PUSH1 0x20 ADD SWAP1 JUMP JUMPDEST PUSH1 0x20 DUP1 DUP3 MSTORE PUSH1 0x29 SWAP1 DUP3 ADD MSTORE PUSH32 0x546573744D696E7461626C654552433230546F6B656E2F494E53554646494349 PUSH1 0x40 DUP3 ADD MSTORE PUSH32 0x454E545F46554E44530000000000000000000000000000000000000000000000 PUSH1 0x60 DUP3 ADD MSTORE PUSH1 0x80 ADD SWAP1 JUMP JUMPDEST PUSH1 0x20 DUP1 DUP3 MSTORE PUSH1 0x2D SWAP1 DUP3 ADD MSTORE PUSH32 0x546573744D696E7461626C654552433230546F6B656E2F494E53554646494349 PUSH1 0x40 DUP3 ADD MSTORE PUSH32 0x454E545F414C4C4F57414E434500000000000000000000000000000000000000 PUSH1 0x60 DUP3 ADD MSTORE PUSH1 0x80 ADD SWAP1 JUMP JUMPDEST SWAP1 DUP2 MSTORE PUSH1 0x20 ADD SWAP1 JUMP JUMPDEST PUSH20 0xFFFFFFFFFFFFFFFFFFFFFFFFFFFFFFFFFFFFFFFF DUP2 AND DUP2 EQ PUSH2 0x662 JUMPI PUSH1 0x0 DUP1 REVERT JUMPDEST POP JUMP INVALID LOG2 PUSH5 0x6970667358 0x22 SLT KECCAK256 0xC3 0x26 0x5C SWAP8 0xBB 0xB8 0xD3 SHL DIFFICULTY PUSH31 0x569490703ABAA20EE51B1FC111BE59C19A546DEA18B64736F6C634300060B STOP CALLER "
            }
        }
    },
    "sourceTreeHashHex": "0x5971c4409a34199d6ca4fe6155869bfa93f0c3c74fb83aa4dc2753ac43d84221",
    "compiler": {
        "name": "solc",
        "version": "0.6.11+commit.5ef660b1",
        "settings": {
            "remappings": [
                "@0x/contracts-utils=/Users/jacob/projects/ethdev/0x/workspace-remote/workspace/0x-monorepo/node_modules/@0x/contracts-utils",
                "@0x/contracts-erc20=/Users/jacob/projects/ethdev/0x/workspace-remote/workspace/0x-monorepo/node_modules/@0x/contracts-erc20"
            ],
            "optimizer": {
                "enabled": true,
                "runs": 1000000,
                "details": {
                    "yul": true,
                    "deduplicate": true,
                    "cse": true,
                    "constantOptimizer": true
                }
            },
            "outputSelection": {
                "*": {
                    "*": [
                        "abi",
                        "devdoc",
                        "evm.bytecode.object",
                        "evm.bytecode.sourceMap",
                        "evm.deployedBytecode.object",
                        "evm.deployedBytecode.sourceMap"
                    ]
                }
            },
            "evmVersion": "istanbul"
        }
    },
    "chains": {}
}