{
    "schemaVersion": "2.0.0",
    "contractName": "TestWeth",
    "compilerOutput": {
        "abi": [
            {
                "inputs": [
                    {
                        "internalType": "address",
                        "name": "",
                        "type": "address"
                    },
                    {
                        "internalType": "address",
                        "name": "",
                        "type": "address"
                    }
                ],
                "name": "allowance",
                "outputs": [
                    {
                        "internalType": "uint256",
                        "name": "",
                        "type": "uint256"
                    }
                ],
                "stateMutability": "view",
                "type": "function"
            },
            {
                "inputs": [
                    {
                        "internalType": "address",
                        "name": "spender",
                        "type": "address"
                    },
                    {
                        "internalType": "uint256",
                        "name": "amount",
                        "type": "uint256"
                    }
                ],
                "name": "approve",
                "outputs": [
                    {
                        "internalType": "bool",
                        "name": "",
                        "type": "bool"
                    }
                ],
                "stateMutability": "nonpayable",
                "type": "function"
            },
            {
                "inputs": [
                    {
                        "internalType": "address",
                        "name": "",
                        "type": "address"
                    }
                ],
                "name": "balanceOf",
                "outputs": [
                    {
                        "internalType": "uint256",
                        "name": "",
                        "type": "uint256"
                    }
                ],
                "stateMutability": "view",
                "type": "function"
            },
            {
                "inputs": [
                    {
                        "internalType": "address",
                        "name": "owner",
                        "type": "address"
                    },
                    {
                        "internalType": "uint256",
                        "name": "amount",
                        "type": "uint256"
                    }
                ],
                "name": "burn",
                "outputs": [],
                "stateMutability": "nonpayable",
                "type": "function"
            },
            {
                "inputs": [],
                "name": "deposit",
                "outputs": [],
                "stateMutability": "payable",
                "type": "function"
            },
            {
                "inputs": [
                    {
                        "internalType": "address",
                        "name": "owner",
                        "type": "address"
                    },
                    {
                        "internalType": "address",
                        "name": "spender",
                        "type": "address"
                    }
                ],
                "name": "getSpendableAmount",
                "outputs": [
                    {
                        "internalType": "uint256",
                        "name": "",
                        "type": "uint256"
                    }
                ],
                "stateMutability": "view",
                "type": "function"
            },
            {
                "inputs": [
                    {
                        "internalType": "address",
                        "name": "owner",
                        "type": "address"
                    },
                    {
                        "internalType": "uint256",
                        "name": "amount",
                        "type": "uint256"
                    }
                ],
                "name": "mint",
                "outputs": [],
                "stateMutability": "nonpayable",
                "type": "function"
            },
            {
                "inputs": [
                    {
                        "internalType": "address",
                        "name": "to",
                        "type": "address"
                    },
                    {
                        "internalType": "uint256",
                        "name": "amount",
                        "type": "uint256"
                    }
                ],
                "name": "transfer",
                "outputs": [
                    {
                        "internalType": "bool",
                        "name": "",
                        "type": "bool"
                    }
                ],
                "stateMutability": "nonpayable",
                "type": "function"
            },
            {
                "inputs": [
                    {
                        "internalType": "address",
                        "name": "from",
                        "type": "address"
                    },
                    {
                        "internalType": "address",
                        "name": "to",
                        "type": "address"
                    },
                    {
                        "internalType": "uint256",
                        "name": "amount",
                        "type": "uint256"
                    }
                ],
                "name": "transferFrom",
                "outputs": [
                    {
                        "internalType": "bool",
                        "name": "",
                        "type": "bool"
                    }
                ],
                "stateMutability": "nonpayable",
                "type": "function"
            },
            {
                "inputs": [
                    {
                        "internalType": "uint256",
                        "name": "amount",
                        "type": "uint256"
                    }
                ],
                "name": "withdraw",
                "outputs": [],
                "stateMutability": "nonpayable",
                "type": "function"
            }
        ],
        "devdoc": {
            "methods": {}
        },
        "evm": {
            "bytecode": {
                "linkReferences": {},
                "object": "0x608060405234801561001057600080fd5b506108c7806100206000396000f3fe6080604052600436106100b15760003560e01c806370a0823111610069578063a9059cbb1161004e578063a9059cbb146101bb578063d0e30db0146101db578063dd62ed3e146101e3576100b1565b806370a082311461017b5780639dc29fac1461019b576100b1565b80632724ed4b1161009a5780632724ed4b1461010c5780632e1a7d4d1461013957806340c10f191461015b576100b1565b8063095ea7b3146100b657806323b872dd146100ec575b600080fd5b3480156100c257600080fd5b506100d66100d13660046106ff565b610203565b6040516100e39190610767565b60405180910390f35b3480156100f857600080fd5b506100d66101073660046106bf565b61023e565b34801561011857600080fd5b5061012c61012736600461068b565b6103aa565b6040516100e39190610863565b34801561014557600080fd5b50610159610154366004610729565b610454565b005b34801561016757600080fd5b506101596101763660046106ff565b6104e0565b34801561018757600080fd5b5061012c610196366004610670565b61050f565b3480156101a757600080fd5b506101596101b63660046106ff565b610521565b3480156101c757600080fd5b506100d66101d63660046106ff565b6105b0565b6101596105bd565b3480156101ef57600080fd5b5061012c6101fe36600461068b565b61062f565b33600090815260016020818152604080842073ffffffffffffffffffffffffffffffffffffffff871685529091529091208290555b92915050565b600073ffffffffffffffffffffffffffffffffffffffff841633146103085773ffffffffffffffffffffffffffffffffffffffff841660009081526001602090815260408083203384529091529020548211156102d0576040517f08c379a00000000000000000000000000000000000000000000000000000000081526004016102c790610806565b60405180910390fd5b73ffffffffffffffffffffffffffffffffffffffff841660009081526001602090815260408083203384529091529020805483900390555b73ffffffffffffffffffffffffffffffffffffffff8416600090815260208190526040902054821115610367576040517f08c379a00000000000000000000000000000000000000000000000000000000081526004016102c790610772565b5073ffffffffffffffffffffffffffffffffffffffff92831660009081526020819052604080822080548490039055929093168352912080549091019055600190565b73ffffffffffffffffffffffffffffffffffffffff808316600081815260016020908152604080832094861683529381528382205492825281905291822054106104265773ffffffffffffffffffffffffffffffffffffffff80841660009081526001602090815260408083209386168352929052205461044d565b73ffffffffffffffffffffffffffffffffffffffff83166000908152602081905260409020545b9392505050565b3360009081526020819052604090205481111561049d576040517f08c379a00000000000000000000000000000000000000000000000000000000081526004016102c7906107cf565b33600081815260208190526040808220805485900390555183156108fc0291849190818181858888f193505050501580156104dc573d6000803e3d6000fd5b5050565b73ffffffffffffffffffffffffffffffffffffffff909116600090815260208190526040902080549091019055565b60006020819052908152604090205481565b73ffffffffffffffffffffffffffffffffffffffff8216600090815260208190526040902054811115610580576040517f08c379a00000000000000000000000000000000000000000000000000000000081526004016102c790610772565b73ffffffffffffffffffffffffffffffffffffffff90911660009081526020819052604090208054919091039055565b600061044d33848461023e565b6040517f40c10f1900000000000000000000000000000000000000000000000000000000815230906340c10f19906105fb9033903490600401610741565b600060405180830381600087803b15801561061557600080fd5b505af1158015610629573d6000803e3d6000fd5b50505050565b600160209081526000928352604080842090915290825290205481565b803573ffffffffffffffffffffffffffffffffffffffff8116811461023857600080fd5b600060208284031215610681578081fd5b61044d838361064c565b6000806040838503121561069d578081fd5b6106a7848461064c565b91506106b6846020850161064c565b90509250929050565b6000806000606084860312156106d3578081fd5b83356106de8161086c565b925060208401356106ee8161086c565b929592945050506040919091013590565b60008060408385031215610711578182fd5b61071b848461064c565b946020939093013593505050565b60006020828403121561073a578081fd5b5035919050565b73ffffffffffffffffffffffffffffffffffffffff929092168252602082015260400190565b901515815260200190565b60208082526029908201527f546573744d696e7461626c654552433230546f6b656e2f494e5355464649434960408201527f454e545f46554e44530000000000000000000000000000000000000000000000606082015260800190565b6020808252601b908201527f54657374576574682f494e53554646494349454e545f46554e44530000000000604082015260600190565b6020808252602d908201527f546573744d696e7461626c654552433230546f6b656e2f494e5355464649434960408201527f454e545f414c4c4f57414e434500000000000000000000000000000000000000606082015260800190565b90815260200190565b73ffffffffffffffffffffffffffffffffffffffff8116811461088e57600080fd5b5056fea2646970667358221220862ecefdfe1efcff120de69026cd1f3e2506175a4cf37d6008446d6d90d0ca9d64736f6c634300060a0033",
                "opcodes": "PUSH1 0x80 PUSH1 0x40 MSTORE CALLVALUE DUP1 ISZERO PUSH2 0x10 JUMPI PUSH1 0x0 DUP1 REVERT JUMPDEST POP PUSH2 0x8C7 DUP1 PUSH2 0x20 PUSH1 0x0 CODECOPY PUSH1 0x0 RETURN INVALID PUSH1 0x80 PUSH1 0x40 MSTORE PUSH1 0x4 CALLDATASIZE LT PUSH2 0xB1 JUMPI PUSH1 0x0 CALLDATALOAD PUSH1 0xE0 SHR DUP1 PUSH4 0x70A08231 GT PUSH2 0x69 JUMPI DUP1 PUSH4 0xA9059CBB GT PUSH2 0x4E JUMPI DUP1 PUSH4 0xA9059CBB EQ PUSH2 0x1BB JUMPI DUP1 PUSH4 0xD0E30DB0 EQ PUSH2 0x1DB JUMPI DUP1 PUSH4 0xDD62ED3E EQ PUSH2 0x1E3 JUMPI PUSH2 0xB1 JUMP JUMPDEST DUP1 PUSH4 0x70A08231 EQ PUSH2 0x17B JUMPI DUP1 PUSH4 0x9DC29FAC EQ PUSH2 0x19B JUMPI PUSH2 0xB1 JUMP JUMPDEST DUP1 PUSH4 0x2724ED4B GT PUSH2 0x9A JUMPI DUP1 PUSH4 0x2724ED4B EQ PUSH2 0x10C JUMPI DUP1 PUSH4 0x2E1A7D4D EQ PUSH2 0x139 JUMPI DUP1 PUSH4 0x40C10F19 EQ PUSH2 0x15B JUMPI PUSH2 0xB1 JUMP JUMPDEST DUP1 PUSH4 0x95EA7B3 EQ PUSH2 0xB6 JUMPI DUP1 PUSH4 0x23B872DD EQ PUSH2 0xEC JUMPI JUMPDEST PUSH1 0x0 DUP1 REVERT JUMPDEST CALLVALUE DUP1 ISZERO PUSH2 0xC2 JUMPI PUSH1 0x0 DUP1 REVERT JUMPDEST POP PUSH2 0xD6 PUSH2 0xD1 CALLDATASIZE PUSH1 0x4 PUSH2 0x6FF JUMP JUMPDEST PUSH2 0x203 JUMP JUMPDEST PUSH1 0x40 MLOAD PUSH2 0xE3 SWAP2 SWAP1 PUSH2 0x767 JUMP JUMPDEST PUSH1 0x40 MLOAD DUP1 SWAP2 SUB SWAP1 RETURN JUMPDEST CALLVALUE DUP1 ISZERO PUSH2 0xF8 JUMPI PUSH1 0x0 DUP1 REVERT JUMPDEST POP PUSH2 0xD6 PUSH2 0x107 CALLDATASIZE PUSH1 0x4 PUSH2 0x6BF JUMP JUMPDEST PUSH2 0x23E JUMP JUMPDEST CALLVALUE DUP1 ISZERO PUSH2 0x118 JUMPI PUSH1 0x0 DUP1 REVERT JUMPDEST POP PUSH2 0x12C PUSH2 0x127 CALLDATASIZE PUSH1 0x4 PUSH2 0x68B JUMP JUMPDEST PUSH2 0x3AA JUMP JUMPDEST PUSH1 0x40 MLOAD PUSH2 0xE3 SWAP2 SWAP1 PUSH2 0x863 JUMP JUMPDEST CALLVALUE DUP1 ISZERO PUSH2 0x145 JUMPI PUSH1 0x0 DUP1 REVERT JUMPDEST POP PUSH2 0x159 PUSH2 0x154 CALLDATASIZE PUSH1 0x4 PUSH2 0x729 JUMP JUMPDEST PUSH2 0x454 JUMP JUMPDEST STOP JUMPDEST CALLVALUE DUP1 ISZERO PUSH2 0x167 JUMPI PUSH1 0x0 DUP1 REVERT JUMPDEST POP PUSH2 0x159 PUSH2 0x176 CALLDATASIZE PUSH1 0x4 PUSH2 0x6FF JUMP JUMPDEST PUSH2 0x4E0 JUMP JUMPDEST CALLVALUE DUP1 ISZERO PUSH2 0x187 JUMPI PUSH1 0x0 DUP1 REVERT JUMPDEST POP PUSH2 0x12C PUSH2 0x196 CALLDATASIZE PUSH1 0x4 PUSH2 0x670 JUMP JUMPDEST PUSH2 0x50F JUMP JUMPDEST CALLVALUE DUP1 ISZERO PUSH2 0x1A7 JUMPI PUSH1 0x0 DUP1 REVERT JUMPDEST POP PUSH2 0x159 PUSH2 0x1B6 CALLDATASIZE PUSH1 0x4 PUSH2 0x6FF JUMP JUMPDEST PUSH2 0x521 JUMP JUMPDEST CALLVALUE DUP1 ISZERO PUSH2 0x1C7 JUMPI PUSH1 0x0 DUP1 REVERT JUMPDEST POP PUSH2 0xD6 PUSH2 0x1D6 CALLDATASIZE PUSH1 0x4 PUSH2 0x6FF JUMP JUMPDEST PUSH2 0x5B0 JUMP JUMPDEST PUSH2 0x159 PUSH2 0x5BD JUMP JUMPDEST CALLVALUE DUP1 ISZERO PUSH2 0x1EF JUMPI PUSH1 0x0 DUP1 REVERT JUMPDEST POP PUSH2 0x12C PUSH2 0x1FE CALLDATASIZE PUSH1 0x4 PUSH2 0x68B JUMP JUMPDEST PUSH2 0x62F JUMP JUMPDEST CALLER PUSH1 0x0 SWAP1 DUP2 MSTORE PUSH1 0x1 PUSH1 0x20 DUP2 DUP2 MSTORE PUSH1 0x40 DUP1 DUP5 KECCAK256 PUSH20 0xFFFFFFFFFFFFFFFFFFFFFFFFFFFFFFFFFFFFFFFF DUP8 AND DUP6 MSTORE SWAP1 SWAP2 MSTORE SWAP1 SWAP2 KECCAK256 DUP3 SWAP1 SSTORE JUMPDEST SWAP3 SWAP2 POP POP JUMP JUMPDEST PUSH1 0x0 PUSH20 0xFFFFFFFFFFFFFFFFFFFFFFFFFFFFFFFFFFFFFFFF DUP5 AND CALLER EQ PUSH2 0x308 JUMPI PUSH20 0xFFFFFFFFFFFFFFFFFFFFFFFFFFFFFFFFFFFFFFFF DUP5 AND PUSH1 0x0 SWAP1 DUP2 MSTORE PUSH1 0x1 PUSH1 0x20 SWAP1 DUP2 MSTORE PUSH1 0x40 DUP1 DUP4 KECCAK256 CALLER DUP5 MSTORE SWAP1 SWAP2 MSTORE SWAP1 KECCAK256 SLOAD DUP3 GT ISZERO PUSH2 0x2D0 JUMPI PUSH1 0x40 MLOAD PUSH32 0x8C379A000000000000000000000000000000000000000000000000000000000 DUP2 MSTORE PUSH1 0x4 ADD PUSH2 0x2C7 SWAP1 PUSH2 0x806 JUMP JUMPDEST PUSH1 0x40 MLOAD DUP1 SWAP2 SUB SWAP1 REVERT JUMPDEST PUSH20 0xFFFFFFFFFFFFFFFFFFFFFFFFFFFFFFFFFFFFFFFF DUP5 AND PUSH1 0x0 SWAP1 DUP2 MSTORE PUSH1 0x1 PUSH1 0x20 SWAP1 DUP2 MSTORE PUSH1 0x40 DUP1 DUP4 KECCAK256 CALLER DUP5 MSTORE SWAP1 SWAP2 MSTORE SWAP1 KECCAK256 DUP1 SLOAD DUP4 SWAP1 SUB SWAP1 SSTORE JUMPDEST PUSH20 0xFFFFFFFFFFFFFFFFFFFFFFFFFFFFFFFFFFFFFFFF DUP5 AND PUSH1 0x0 SWAP1 DUP2 MSTORE PUSH1 0x20 DUP2 SWAP1 MSTORE PUSH1 0x40 SWAP1 KECCAK256 SLOAD DUP3 GT ISZERO PUSH2 0x367 JUMPI PUSH1 0x40 MLOAD PUSH32 0x8C379A000000000000000000000000000000000000000000000000000000000 DUP2 MSTORE PUSH1 0x4 ADD PUSH2 0x2C7 SWAP1 PUSH2 0x772 JUMP JUMPDEST POP PUSH20 0xFFFFFFFFFFFFFFFFFFFFFFFFFFFFFFFFFFFFFFFF SWAP3 DUP4 AND PUSH1 0x0 SWAP1 DUP2 MSTORE PUSH1 0x20 DUP2 SWAP1 MSTORE PUSH1 0x40 DUP1 DUP3 KECCAK256 DUP1 SLOAD DUP5 SWAP1 SUB SWAP1 SSTORE SWAP3 SWAP1 SWAP4 AND DUP4 MSTORE SWAP2 KECCAK256 DUP1 SLOAD SWAP1 SWAP2 ADD SWAP1 SSTORE PUSH1 0x1 SWAP1 JUMP JUMPDEST PUSH20 0xFFFFFFFFFFFFFFFFFFFFFFFFFFFFFFFFFFFFFFFF DUP1 DUP4 AND PUSH1 0x0 DUP2 DUP2 MSTORE PUSH1 0x1 PUSH1 0x20 SWAP1 DUP2 MSTORE PUSH1 0x40 DUP1 DUP4 KECCAK256 SWAP5 DUP7 AND DUP4 MSTORE SWAP4 DUP2 MSTORE DUP4 DUP3 KECCAK256 SLOAD SWAP3 DUP3 MSTORE DUP2 SWAP1 MSTORE SWAP2 DUP3 KECCAK256 SLOAD LT PUSH2 0x426 JUMPI PUSH20 0xFFFFFFFFFFFFFFFFFFFFFFFFFFFFFFFFFFFFFFFF DUP1 DUP5 AND PUSH1 0x0 SWAP1 DUP2 MSTORE PUSH1 0x1 PUSH1 0x20 SWAP1 DUP2 MSTORE PUSH1 0x40 DUP1 DUP4 KECCAK256 SWAP4 DUP7 AND DUP4 MSTORE SWAP3 SWAP1 MSTORE KECCAK256 SLOAD PUSH2 0x44D JUMP JUMPDEST PUSH20 0xFFFFFFFFFFFFFFFFFFFFFFFFFFFFFFFFFFFFFFFF DUP4 AND PUSH1 0x0 SWAP1 DUP2 MSTORE PUSH1 0x20 DUP2 SWAP1 MSTORE PUSH1 0x40 SWAP1 KECCAK256 SLOAD JUMPDEST SWAP4 SWAP3 POP POP POP JUMP JUMPDEST CALLER PUSH1 0x0 SWAP1 DUP2 MSTORE PUSH1 0x20 DUP2 SWAP1 MSTORE PUSH1 0x40 SWAP1 KECCAK256 SLOAD DUP2 GT ISZERO PUSH2 0x49D JUMPI PUSH1 0x40 MLOAD PUSH32 0x8C379A000000000000000000000000000000000000000000000000000000000 DUP2 MSTORE PUSH1 0x4 ADD PUSH2 0x2C7 SWAP1 PUSH2 0x7CF JUMP JUMPDEST CALLER PUSH1 0x0 DUP2 DUP2 MSTORE PUSH1 0x20 DUP2 SWAP1 MSTORE PUSH1 0x40 DUP1 DUP3 KECCAK256 DUP1 SLOAD DUP6 SWAP1 SUB SWAP1 SSTORE MLOAD DUP4 ISZERO PUSH2 0x8FC MUL SWAP2 DUP5 SWAP2 SWAP1 DUP2 DUP2 DUP2 DUP6 DUP9 DUP9 CALL SWAP4 POP POP POP POP ISZERO DUP1 ISZERO PUSH2 0x4DC JUMPI RETURNDATASIZE PUSH1 0x0 DUP1 RETURNDATACOPY RETURNDATASIZE PUSH1 0x0 REVERT JUMPDEST POP POP JUMP JUMPDEST PUSH20 0xFFFFFFFFFFFFFFFFFFFFFFFFFFFFFFFFFFFFFFFF SWAP1 SWAP2 AND PUSH1 0x0 SWAP1 DUP2 MSTORE PUSH1 0x20 DUP2 SWAP1 MSTORE PUSH1 0x40 SWAP1 KECCAK256 DUP1 SLOAD SWAP1 SWAP2 ADD SWAP1 SSTORE JUMP JUMPDEST PUSH1 0x0 PUSH1 0x20 DUP2 SWAP1 MSTORE SWAP1 DUP2 MSTORE PUSH1 0x40 SWAP1 KECCAK256 SLOAD DUP2 JUMP JUMPDEST PUSH20 0xFFFFFFFFFFFFFFFFFFFFFFFFFFFFFFFFFFFFFFFF DUP3 AND PUSH1 0x0 SWAP1 DUP2 MSTORE PUSH1 0x20 DUP2 SWAP1 MSTORE PUSH1 0x40 SWAP1 KECCAK256 SLOAD DUP2 GT ISZERO PUSH2 0x580 JUMPI PUSH1 0x40 MLOAD PUSH32 0x8C379A000000000000000000000000000000000000000000000000000000000 DUP2 MSTORE PUSH1 0x4 ADD PUSH2 0x2C7 SWAP1 PUSH2 0x772 JUMP JUMPDEST PUSH20 0xFFFFFFFFFFFFFFFFFFFFFFFFFFFFFFFFFFFFFFFF SWAP1 SWAP2 AND PUSH1 0x0 SWAP1 DUP2 MSTORE PUSH1 0x20 DUP2 SWAP1 MSTORE PUSH1 0x40 SWAP1 KECCAK256 DUP1 SLOAD SWAP2 SWAP1 SWAP2 SUB SWAP1 SSTORE JUMP JUMPDEST PUSH1 0x0 PUSH2 0x44D CALLER DUP5 DUP5 PUSH2 0x23E JUMP JUMPDEST PUSH1 0x40 MLOAD PUSH32 0x40C10F1900000000000000000000000000000000000000000000000000000000 DUP2 MSTORE ADDRESS SWAP1 PUSH4 0x40C10F19 SWAP1 PUSH2 0x5FB SWAP1 CALLER SWAP1 CALLVALUE SWAP1 PUSH1 0x4 ADD PUSH2 0x741 JUMP JUMPDEST PUSH1 0x0 PUSH1 0x40 MLOAD DUP1 DUP4 SUB DUP2 PUSH1 0x0 DUP8 DUP1 EXTCODESIZE ISZERO DUP1 ISZERO PUSH2 0x615 JUMPI PUSH1 0x0 DUP1 REVERT JUMPDEST POP GAS CALL ISZERO DUP1 ISZERO PUSH2 0x629 JUMPI RETURNDATASIZE PUSH1 0x0 DUP1 RETURNDATACOPY RETURNDATASIZE PUSH1 0x0 REVERT JUMPDEST POP POP POP POP JUMP JUMPDEST PUSH1 0x1 PUSH1 0x20 SWAP1 DUP2 MSTORE PUSH1 0x0 SWAP3 DUP4 MSTORE PUSH1 0x40 DUP1 DUP5 KECCAK256 SWAP1 SWAP2 MSTORE SWAP1 DUP3 MSTORE SWAP1 KECCAK256 SLOAD DUP2 JUMP JUMPDEST DUP1 CALLDATALOAD PUSH20 0xFFFFFFFFFFFFFFFFFFFFFFFFFFFFFFFFFFFFFFFF DUP2 AND DUP2 EQ PUSH2 0x238 JUMPI PUSH1 0x0 DUP1 REVERT JUMPDEST PUSH1 0x0 PUSH1 0x20 DUP3 DUP5 SUB SLT ISZERO PUSH2 0x681 JUMPI DUP1 DUP2 REVERT JUMPDEST PUSH2 0x44D DUP4 DUP4 PUSH2 0x64C JUMP JUMPDEST PUSH1 0x0 DUP1 PUSH1 0x40 DUP4 DUP6 SUB SLT ISZERO PUSH2 0x69D JUMPI DUP1 DUP2 REVERT JUMPDEST PUSH2 0x6A7 DUP5 DUP5 PUSH2 0x64C JUMP JUMPDEST SWAP2 POP PUSH2 0x6B6 DUP5 PUSH1 0x20 DUP6 ADD PUSH2 0x64C JUMP JUMPDEST SWAP1 POP SWAP3 POP SWAP3 SWAP1 POP JUMP JUMPDEST PUSH1 0x0 DUP1 PUSH1 0x0 PUSH1 0x60 DUP5 DUP7 SUB SLT ISZERO PUSH2 0x6D3 JUMPI DUP1 DUP2 REVERT JUMPDEST DUP4 CALLDATALOAD PUSH2 0x6DE DUP2 PUSH2 0x86C JUMP JUMPDEST SWAP3 POP PUSH1 0x20 DUP5 ADD CALLDATALOAD PUSH2 0x6EE DUP2 PUSH2 0x86C JUMP JUMPDEST SWAP3 SWAP6 SWAP3 SWAP5 POP POP POP PUSH1 0x40 SWAP2 SWAP1 SWAP2 ADD CALLDATALOAD SWAP1 JUMP JUMPDEST PUSH1 0x0 DUP1 PUSH1 0x40 DUP4 DUP6 SUB SLT ISZERO PUSH2 0x711 JUMPI DUP2 DUP3 REVERT JUMPDEST PUSH2 0x71B DUP5 DUP5 PUSH2 0x64C JUMP JUMPDEST SWAP5 PUSH1 0x20 SWAP4 SWAP1 SWAP4 ADD CALLDATALOAD SWAP4 POP POP POP JUMP JUMPDEST PUSH1 0x0 PUSH1 0x20 DUP3 DUP5 SUB SLT ISZERO PUSH2 0x73A JUMPI DUP1 DUP2 REVERT JUMPDEST POP CALLDATALOAD SWAP2 SWAP1 POP JUMP JUMPDEST PUSH20 0xFFFFFFFFFFFFFFFFFFFFFFFFFFFFFFFFFFFFFFFF SWAP3 SWAP1 SWAP3 AND DUP3 MSTORE PUSH1 0x20 DUP3 ADD MSTORE PUSH1 0x40 ADD SWAP1 JUMP JUMPDEST SWAP1 ISZERO ISZERO DUP2 MSTORE PUSH1 0x20 ADD SWAP1 JUMP JUMPDEST PUSH1 0x20 DUP1 DUP3 MSTORE PUSH1 0x29 SWAP1 DUP3 ADD MSTORE PUSH32 0x546573744D696E7461626C654552433230546F6B656E2F494E53554646494349 PUSH1 0x40 DUP3 ADD MSTORE PUSH32 0x454E545F46554E44530000000000000000000000000000000000000000000000 PUSH1 0x60 DUP3 ADD MSTORE PUSH1 0x80 ADD SWAP1 JUMP JUMPDEST PUSH1 0x20 DUP1 DUP3 MSTORE PUSH1 0x1B SWAP1 DUP3 ADD MSTORE PUSH32 0x54657374576574682F494E53554646494349454E545F46554E44530000000000 PUSH1 0x40 DUP3 ADD MSTORE PUSH1 0x60 ADD SWAP1 JUMP JUMPDEST PUSH1 0x20 DUP1 DUP3 MSTORE PUSH1 0x2D SWAP1 DUP3 ADD MSTORE PUSH32 0x546573744D696E7461626C654552433230546F6B656E2F494E53554646494349 PUSH1 0x40 DUP3 ADD MSTORE PUSH32 0x454E545F414C4C4F57414E434500000000000000000000000000000000000000 PUSH1 0x60 DUP3 ADD MSTORE PUSH1 0x80 ADD SWAP1 JUMP JUMPDEST SWAP1 DUP2 MSTORE PUSH1 0x20 ADD SWAP1 JUMP JUMPDEST PUSH20 0xFFFFFFFFFFFFFFFFFFFFFFFFFFFFFFFFFFFFFFFF DUP2 AND DUP2 EQ PUSH2 0x88E JUMPI PUSH1 0x0 DUP1 REVERT JUMPDEST POP JUMP INVALID LOG2 PUSH5 0x6970667358 0x22 SLT KECCAK256 DUP7 0x2E 0xCE REVERT INVALID 0x1E 0xFC SELFDESTRUCT SLT 0xD 0xE6 SWAP1 0x26 0xCD 0x1F RETURNDATACOPY 0x25 MOD OR GAS 0x4C RETURN PUSH30 0x6008446D6D90D0CA9D64736F6C634300060A003300000000000000000000 "
            }
        }
    },
    "sourceTreeHashHex": "0x7cb84ba6668f651d45dd70cec23321e2e88c1482fe6eba606d013c8c4ef310d1",
    "compiler": {
        "name": "solc",
        "version": "0.6.10+commit.00c0fcaf",
        "settings": {
            "remappings": [
                "@0x/contracts-utils=/home/gene/dev/0x-monorepo/node_modules/@0x/contracts-utils",
                "@0x/contracts-erc20=/home/gene/dev/0x-monorepo/node_modules/@0x/contracts-erc20"
            ],
            "optimizer": {
                "enabled": true,
                "runs": 1000000,
                "details": {
                    "yul": true,
                    "deduplicate": true,
                    "cse": true,
                    "constantOptimizer": true
                }
            },
            "outputSelection": {
                "*": {
                    "*": [
                        "abi",
                        "devdoc",
                        "evm.bytecode.object",
                        "evm.bytecode.sourceMap",
                        "evm.deployedBytecode.object",
                        "evm.deployedBytecode.sourceMap"
                    ]
                }
            },
            "evmVersion": "istanbul"
        }
    },
    "chains": {}
}