{
    "schemaVersion": "2.0.0",
    "contractName": "TestWethTransformerHost",
    "compilerOutput": {
        "abi": [
            {
                "inputs": [
                    {
                        "internalType": "contract TestWeth",
                        "name": "weth",
                        "type": "address"
                    }
                ],
                "stateMutability": "nonpayable",
                "type": "constructor"
            },
            {
                "inputs": [
                    {
                        "internalType": "uint256",
                        "name": "wethAmount",
                        "type": "uint256"
                    },
                    {
                        "internalType": "contract IERC20Transformer",
                        "name": "transformer",
                        "type": "address"
                    },
                    {
                        "internalType": "bytes",
                        "name": "data",
                        "type": "bytes"
                    }
                ],
                "name": "executeTransform",
                "outputs": [],
                "stateMutability": "payable",
                "type": "function"
            },
            {
                "inputs": [
                    {
                        "internalType": "contract IERC20Transformer",
                        "name": "transformer",
                        "type": "address"
                    },
                    {
                        "internalType": "bytes32",
                        "name": "callDataHash",
                        "type": "bytes32"
                    },
                    {
                        "internalType": "address",
                        "name": "taker",
                        "type": "address"
                    },
                    {
                        "internalType": "bytes",
                        "name": "data",
                        "type": "bytes"
                    }
                ],
                "name": "rawExecuteTransform",
                "outputs": [],
                "stateMutability": "nonpayable",
                "type": "function"
            }
        ],
        "devdoc": {
            "methods": {}
        },
        "evm": {
            "bytecode": {
                "linkReferences": {},
                "object": "0x60a060405234801561001057600080fd5b506040516106de3803806106de83398101604081905261002f91610044565b60601b6001600160601b031916608052610072565b600060208284031215610055578081fd5b81516001600160a01b038116811461006b578182fd5b9392505050565b60805160601c61065061008e60003980607652506106506000f3fe60806040526004361061002d5760003560e01c8063b294020f14610039578063c87c24a21461004e57610034565b3661003457005b600080fd5b61004c610047366004610432565b61006e565b005b34801561005a57600080fd5b5061004c6100693660046103c1565b610173565b83156100f6577f000000000000000000000000000000000000000000000000000000000000000073ffffffffffffffffffffffffffffffffffffffff1663d0e30db0856040518263ffffffff1660e01b81526004016000604051808303818588803b1580156100dc57600080fd5b505af11580156100f0573d6000803e3d6000fd5b50505050505b6040517fc87c24a2000000000000000000000000000000000000000000000000000000008152309063c87c24a29061013b90869060009033908890889060040161054d565b600060405180830381600087803b15801561015557600080fd5b505af1158015610169573d6000803e3d6000fd5b5050505050505050565b600060608673ffffffffffffffffffffffffffffffffffffffff1663e063ed8160e01b878787876040516024016101ad949392919061050d565b604080517fffffffffffffffffffffffffffffffffffffffffffffffffffffffffffffffe08184030181529181526020820180517bffffffffffffffffffffffffffffffffffffffffffffffffffffffff167fffffffff0000000000000000000000000000000000000000000000000000000090941693909317909252905161023691906104d4565b600060405180830381855af49150503d8060008114610271576040519150601f19603f3d011682016040523d82523d6000602084013e610276565b606091505b509150915081610289576102898161032b565b80517f13c9929e00000000000000000000000000000000000000000000000000000000906102c0908301602090810190840161037a565b7fffffffff000000000000000000000000000000000000000000000000000000001614610322576040517f08c379a000000000000000000000000000000000000000000000000000000000815260040161031990610598565b60405180910390fd5b50505050505050565b805160208201fd5b60008083601f840112610344578182fd5b50813567ffffffffffffffff81111561035b578182fd5b60208301915083602082850101111561037357600080fd5b9250929050565b60006020828403121561038b578081fd5b81517fffffffff00000000000000000000000000000000000000000000000000000000811681146103ba578182fd5b9392505050565b6000806000806000608086880312156103d8578081fd5b85356103e3816105f5565b94506020860135935060408601356103fa816105f5565b9250606086013567ffffffffffffffff811115610415578182fd5b61042188828901610333565b969995985093965092949392505050565b60008060008060608587031215610447578384fd5b843593506020850135610459816105f5565b9250604085013567ffffffffffffffff811115610474578283fd5b61048087828801610333565b95989497509550505050565b600082845282826020860137806020848601015260207fffffffffffffffffffffffffffffffffffffffffffffffffffffffffffffffe0601f85011685010190509392505050565b60008251815b818110156104f457602081860181015185830152016104da565b818111156105025782828501525b509190910192915050565b600085825273ffffffffffffffffffffffffffffffffffffffff851660208301526060604083015261054360608301848661048c565b9695505050505050565b600073ffffffffffffffffffffffffffffffffffffffff80881683528660208401528086166040840152506080606083015261058d60808301848661048c565b979650505050505050565b6020808252602e908201527f546573745472616e73666f726d6572486f73742f494e56414c49445f5452414e60408201527f53464f524d45525f524553554c54000000000000000000000000000000000000606082015260800190565b73ffffffffffffffffffffffffffffffffffffffff8116811461061757600080fd5b5056fea2646970667358221220c261e065f1c4c9e21860f5fddc6f2dcd5cbae057ac9c814fb020f6c54775872d64736f6c634300060a0033",
                "opcodes": "PUSH1 0xA0 PUSH1 0x40 MSTORE CALLVALUE DUP1 ISZERO PUSH2 0x10 JUMPI PUSH1 0x0 DUP1 REVERT JUMPDEST POP PUSH1 0x40 MLOAD PUSH2 0x6DE CODESIZE SUB DUP1 PUSH2 0x6DE DUP4 CODECOPY DUP2 ADD PUSH1 0x40 DUP2 SWAP1 MSTORE PUSH2 0x2F SWAP2 PUSH2 0x44 JUMP JUMPDEST PUSH1 0x60 SHL PUSH1 0x1 PUSH1 0x1 PUSH1 0x60 SHL SUB NOT AND PUSH1 0x80 MSTORE PUSH2 0x72 JUMP JUMPDEST PUSH1 0x0 PUSH1 0x20 DUP3 DUP5 SUB SLT ISZERO PUSH2 0x55 JUMPI DUP1 DUP2 REVERT JUMPDEST DUP2 MLOAD PUSH1 0x1 PUSH1 0x1 PUSH1 0xA0 SHL SUB DUP2 AND DUP2 EQ PUSH2 0x6B JUMPI DUP2 DUP3 REVERT JUMPDEST SWAP4 SWAP3 POP POP POP JUMP JUMPDEST PUSH1 0x80 MLOAD PUSH1 0x60 SHR PUSH2 0x650 PUSH2 0x8E PUSH1 0x0 CODECOPY DUP1 PUSH1 0x76 MSTORE POP PUSH2 0x650 PUSH1 0x0 RETURN INVALID PUSH1 0x80 PUSH1 0x40 MSTORE PUSH1 0x4 CALLDATASIZE LT PUSH2 0x2D JUMPI PUSH1 0x0 CALLDATALOAD PUSH1 0xE0 SHR DUP1 PUSH4 0xB294020F EQ PUSH2 0x39 JUMPI DUP1 PUSH4 0xC87C24A2 EQ PUSH2 0x4E JUMPI PUSH2 0x34 JUMP JUMPDEST CALLDATASIZE PUSH2 0x34 JUMPI STOP JUMPDEST PUSH1 0x0 DUP1 REVERT JUMPDEST PUSH2 0x4C PUSH2 0x47 CALLDATASIZE PUSH1 0x4 PUSH2 0x432 JUMP JUMPDEST PUSH2 0x6E JUMP JUMPDEST STOP JUMPDEST CALLVALUE DUP1 ISZERO PUSH2 0x5A JUMPI PUSH1 0x0 DUP1 REVERT JUMPDEST POP PUSH2 0x4C PUSH2 0x69 CALLDATASIZE PUSH1 0x4 PUSH2 0x3C1 JUMP JUMPDEST PUSH2 0x173 JUMP JUMPDEST DUP4 ISZERO PUSH2 0xF6 JUMPI PUSH32 0x0 PUSH20 0xFFFFFFFFFFFFFFFFFFFFFFFFFFFFFFFFFFFFFFFF AND PUSH4 0xD0E30DB0 DUP6 PUSH1 0x40 MLOAD DUP3 PUSH4 0xFFFFFFFF AND PUSH1 0xE0 SHL DUP2 MSTORE PUSH1 0x4 ADD PUSH1 0x0 PUSH1 0x40 MLOAD DUP1 DUP4 SUB DUP2 DUP6 DUP9 DUP1 EXTCODESIZE ISZERO DUP1 ISZERO PUSH2 0xDC JUMPI PUSH1 0x0 DUP1 REVERT JUMPDEST POP GAS CALL ISZERO DUP1 ISZERO PUSH2 0xF0 JUMPI RETURNDATASIZE PUSH1 0x0 DUP1 RETURNDATACOPY RETURNDATASIZE PUSH1 0x0 REVERT JUMPDEST POP POP POP POP POP JUMPDEST PUSH1 0x40 MLOAD PUSH32 0xC87C24A200000000000000000000000000000000000000000000000000000000 DUP2 MSTORE ADDRESS SWAP1 PUSH4 0xC87C24A2 SWAP1 PUSH2 0x13B SWAP1 DUP7 SWAP1 PUSH1 0x0 SWAP1 CALLER SWAP1 DUP9 SWAP1 DUP9 SWAP1 PUSH1 0x4 ADD PUSH2 0x54D JUMP JUMPDEST PUSH1 0x0 PUSH1 0x40 MLOAD DUP1 DUP4 SUB DUP2 PUSH1 0x0 DUP8 DUP1 EXTCODESIZE ISZERO DUP1 ISZERO PUSH2 0x155 JUMPI PUSH1 0x0 DUP1 REVERT JUMPDEST POP GAS CALL ISZERO DUP1 ISZERO PUSH2 0x169 JUMPI RETURNDATASIZE PUSH1 0x0 DUP1 RETURNDATACOPY RETURNDATASIZE PUSH1 0x0 REVERT JUMPDEST POP POP POP POP POP POP POP POP JUMP JUMPDEST PUSH1 0x0 PUSH1 0x60 DUP7 PUSH20 0xFFFFFFFFFFFFFFFFFFFFFFFFFFFFFFFFFFFFFFFF AND PUSH4 0xE063ED81 PUSH1 0xE0 SHL DUP8 DUP8 DUP8 DUP8 PUSH1 0x40 MLOAD PUSH1 0x24 ADD PUSH2 0x1AD SWAP5 SWAP4 SWAP3 SWAP2 SWAP1 PUSH2 0x50D JUMP JUMPDEST PUSH1 0x40 DUP1 MLOAD PUSH32 0xFFFFFFFFFFFFFFFFFFFFFFFFFFFFFFFFFFFFFFFFFFFFFFFFFFFFFFFFFFFFFFE0 DUP2 DUP5 SUB ADD DUP2 MSTORE SWAP2 DUP2 MSTORE PUSH1 0x20 DUP3 ADD DUP1 MLOAD PUSH28 0xFFFFFFFFFFFFFFFFFFFFFFFFFFFFFFFFFFFFFFFFFFFFFFFFFFFFFFFF AND PUSH32 0xFFFFFFFF00000000000000000000000000000000000000000000000000000000 SWAP1 SWAP5 AND SWAP4 SWAP1 SWAP4 OR SWAP1 SWAP3 MSTORE SWAP1 MLOAD PUSH2 0x236 SWAP2 SWAP1 PUSH2 0x4D4 JUMP JUMPDEST PUSH1 0x0 PUSH1 0x40 MLOAD DUP1 DUP4 SUB DUP2 DUP6 GAS DELEGATECALL SWAP2 POP POP RETURNDATASIZE DUP1 PUSH1 0x0 DUP2 EQ PUSH2 0x271 JUMPI PUSH1 0x40 MLOAD SWAP2 POP PUSH1 0x1F NOT PUSH1 0x3F RETURNDATASIZE ADD AND DUP3 ADD PUSH1 0x40 MSTORE RETURNDATASIZE DUP3 MSTORE RETURNDATASIZE PUSH1 0x0 PUSH1 0x20 DUP5 ADD RETURNDATACOPY PUSH2 0x276 JUMP JUMPDEST PUSH1 0x60 SWAP2 POP JUMPDEST POP SWAP2 POP SWAP2 POP DUP2 PUSH2 0x289 JUMPI PUSH2 0x289 DUP2 PUSH2 0x32B JUMP JUMPDEST DUP1 MLOAD PUSH32 0x13C9929E00000000000000000000000000000000000000000000000000000000 SWAP1 PUSH2 0x2C0 SWAP1 DUP4 ADD PUSH1 0x20 SWAP1 DUP2 ADD SWAP1 DUP5 ADD PUSH2 0x37A JUMP JUMPDEST PUSH32 0xFFFFFFFF00000000000000000000000000000000000000000000000000000000 AND EQ PUSH2 0x322 JUMPI PUSH1 0x40 MLOAD PUSH32 0x8C379A000000000000000000000000000000000000000000000000000000000 DUP2 MSTORE PUSH1 0x4 ADD PUSH2 0x319 SWAP1 PUSH2 0x598 JUMP JUMPDEST PUSH1 0x40 MLOAD DUP1 SWAP2 SUB SWAP1 REVERT JUMPDEST POP POP POP POP POP POP POP JUMP JUMPDEST DUP1 MLOAD PUSH1 0x20 DUP3 ADD REVERT JUMPDEST PUSH1 0x0 DUP1 DUP4 PUSH1 0x1F DUP5 ADD SLT PUSH2 0x344 JUMPI DUP2 DUP3 REVERT JUMPDEST POP DUP2 CALLDATALOAD PUSH8 0xFFFFFFFFFFFFFFFF DUP2 GT ISZERO PUSH2 0x35B JUMPI DUP2 DUP3 REVERT JUMPDEST PUSH1 0x20 DUP4 ADD SWAP2 POP DUP4 PUSH1 0x20 DUP3 DUP6 ADD ADD GT ISZERO PUSH2 0x373 JUMPI PUSH1 0x0 DUP1 REVERT JUMPDEST SWAP3 POP SWAP3 SWAP1 POP JUMP JUMPDEST PUSH1 0x0 PUSH1 0x20 DUP3 DUP5 SUB SLT ISZERO PUSH2 0x38B JUMPI DUP1 DUP2 REVERT JUMPDEST DUP2 MLOAD PUSH32 0xFFFFFFFF00000000000000000000000000000000000000000000000000000000 DUP2 AND DUP2 EQ PUSH2 0x3BA JUMPI DUP2 DUP3 REVERT JUMPDEST SWAP4 SWAP3 POP POP POP JUMP JUMPDEST PUSH1 0x0 DUP1 PUSH1 0x0 DUP1 PUSH1 0x0 PUSH1 0x80 DUP7 DUP9 SUB SLT ISZERO PUSH2 0x3D8 JUMPI DUP1 DUP2 REVERT JUMPDEST DUP6 CALLDATALOAD PUSH2 0x3E3 DUP2 PUSH2 0x5F5 JUMP JUMPDEST SWAP5 POP PUSH1 0x20 DUP7 ADD CALLDATALOAD SWAP4 POP PUSH1 0x40 DUP7 ADD CALLDATALOAD PUSH2 0x3FA DUP2 PUSH2 0x5F5 JUMP JUMPDEST SWAP3 POP PUSH1 0x60 DUP7 ADD CALLDATALOAD PUSH8 0xFFFFFFFFFFFFFFFF DUP2 GT ISZERO PUSH2 0x415 JUMPI DUP2 DUP3 REVERT JUMPDEST PUSH2 0x421 DUP9 DUP3 DUP10 ADD PUSH2 0x333 JUMP JUMPDEST SWAP7 SWAP10 SWAP6 SWAP9 POP SWAP4 SWAP7 POP SWAP3 SWAP5 SWAP4 SWAP3 POP POP POP JUMP JUMPDEST PUSH1 0x0 DUP1 PUSH1 0x0 DUP1 PUSH1 0x60 DUP6 DUP8 SUB SLT ISZERO PUSH2 0x447 JUMPI DUP4 DUP5 REVERT JUMPDEST DUP5 CALLDATALOAD SWAP4 POP PUSH1 0x20 DUP6 ADD CALLDATALOAD PUSH2 0x459 DUP2 PUSH2 0x5F5 JUMP JUMPDEST SWAP3 POP PUSH1 0x40 DUP6 ADD CALLDATALOAD PUSH8 0xFFFFFFFFFFFFFFFF DUP2 GT ISZERO PUSH2 0x474 JUMPI DUP3 DUP4 REVERT JUMPDEST PUSH2 0x480 DUP8 DUP3 DUP9 ADD PUSH2 0x333 JUMP JUMPDEST SWAP6 SWAP9 SWAP5 SWAP8 POP SWAP6 POP POP POP POP JUMP JUMPDEST PUSH1 0x0 DUP3 DUP5 MSTORE DUP3 DUP3 PUSH1 0x20 DUP7 ADD CALLDATACOPY DUP1 PUSH1 0x20 DUP5 DUP7 ADD ADD MSTORE PUSH1 0x20 PUSH32 0xFFFFFFFFFFFFFFFFFFFFFFFFFFFFFFFFFFFFFFFFFFFFFFFFFFFFFFFFFFFFFFE0 PUSH1 0x1F DUP6 ADD AND DUP6 ADD ADD SWAP1 POP SWAP4 SWAP3 POP POP POP JUMP JUMPDEST PUSH1 0x0 DUP3 MLOAD DUP2 JUMPDEST DUP2 DUP2 LT ISZERO PUSH2 0x4F4 JUMPI PUSH1 0x20 DUP2 DUP7 ADD DUP2 ADD MLOAD DUP6 DUP4 ADD MSTORE ADD PUSH2 0x4DA JUMP JUMPDEST DUP2 DUP2 GT ISZERO PUSH2 0x502 JUMPI DUP3 DUP3 DUP6 ADD MSTORE JUMPDEST POP SWAP2 SWAP1 SWAP2 ADD SWAP3 SWAP2 POP POP JUMP JUMPDEST PUSH1 0x0 DUP6 DUP3 MSTORE PUSH20 0xFFFFFFFFFFFFFFFFFFFFFFFFFFFFFFFFFFFFFFFF DUP6 AND PUSH1 0x20 DUP4 ADD MSTORE PUSH1 0x60 PUSH1 0x40 DUP4 ADD MSTORE PUSH2 0x543 PUSH1 0x60 DUP4 ADD DUP5 DUP7 PUSH2 0x48C JUMP JUMPDEST SWAP7 SWAP6 POP POP POP POP POP POP JUMP JUMPDEST PUSH1 0x0 PUSH20 0xFFFFFFFFFFFFFFFFFFFFFFFFFFFFFFFFFFFFFFFF DUP1 DUP9 AND DUP4 MSTORE DUP7 PUSH1 0x20 DUP5 ADD MSTORE DUP1 DUP7 AND PUSH1 0x40 DUP5 ADD MSTORE POP PUSH1 0x80 PUSH1 0x60 DUP4 ADD MSTORE PUSH2 0x58D PUSH1 0x80 DUP4 ADD DUP5 DUP7 PUSH2 0x48C JUMP JUMPDEST SWAP8 SWAP7 POP POP POP POP POP POP POP JUMP JUMPDEST PUSH1 0x20 DUP1 DUP3 MSTORE PUSH1 0x2E SWAP1 DUP3 ADD MSTORE PUSH32 0x546573745472616E73666F726D6572486F73742F494E56414C49445F5452414E PUSH1 0x40 DUP3 ADD MSTORE PUSH32 0x53464F524D45525F524553554C54000000000000000000000000000000000000 PUSH1 0x60 DUP3 ADD MSTORE PUSH1 0x80 ADD SWAP1 JUMP JUMPDEST PUSH20 0xFFFFFFFFFFFFFFFFFFFFFFFFFFFFFFFFFFFFFFFF DUP2 AND DUP2 EQ PUSH2 0x617 JUMPI PUSH1 0x0 DUP1 REVERT JUMPDEST POP JUMP INVALID LOG2 PUSH5 0x6970667358 0x22 SLT KECCAK256 0xC2 PUSH2 0xE065 CALL 0xC4 0xC9 0xE2 XOR PUSH1 0xF5 REVERT 0xDC PUSH16 0x2DCD5CBAE057AC9C814FB020F6C54775 DUP8 0x2D PUSH5 0x736F6C6343 STOP MOD EXP STOP CALLER "
            }
        }
    },
    "sourceTreeHashHex": "0xbd1c1a2b9df3aab6199647049ec03e5c1d3e3f5b0e750ebc34efc2e26b716b1c",
    "compiler": {
        "name": "solc",
        "version": "0.6.10+commit.00c0fcaf",
        "settings": {
            "remappings": [
                "@0x/contracts-utils=/Users/jacob/projects/ethdev/0x/workspace-remote/workspace/0x-monorepo/node_modules/@0x/contracts-utils",
                "@0x/contracts-erc20=/Users/jacob/projects/ethdev/0x/workspace-remote/workspace/0x-monorepo/node_modules/@0x/contracts-erc20"
            ],
            "optimizer": {
                "enabled": true,
                "runs": 1000000,
                "details": {
                    "yul": true,
                    "deduplicate": true,
                    "cse": true,
                    "constantOptimizer": true
                }
            },
            "outputSelection": {
                "*": {
                    "*": [
                        "abi",
                        "devdoc",
                        "evm.bytecode.object",
                        "evm.bytecode.sourceMap",
                        "evm.deployedBytecode.object",
                        "evm.deployedBytecode.sourceMap"
                    ]
                }
            },
            "evmVersion": "istanbul"
        }
    },
    "chains": {}
}