{
    "schemaVersion": "2.0.0",
    "contractName": "TestBridgeAdapter",
    "compilerOutput": {
        "abi": [
            {
                "inputs": [
                    {
                        "internalType": "bytes",
                        "name": "makerAssetData",
                        "type": "bytes"
                    },
                    {
                        "internalType": "address",
                        "name": "fromTokenAddress",
                        "type": "address"
                    },
                    {
                        "internalType": "uint256",
                        "name": "sellAmount",
                        "type": "uint256"
                    }
                ],
                "name": "trade",
                "outputs": [
                    {
                        "internalType": "uint256",
                        "name": "boughtAmount",
                        "type": "uint256"
                    }
                ],
                "stateMutability": "nonpayable",
                "type": "function"
            }
        ],
        "devdoc": {
            "kind": "dev",
            "methods": {},
            "version": 1
        },
        "evm": {
            "bytecode": {
                "linkReferences": {},
                "object": "0x608060405234801561001057600080fd5b5061016d806100206000396000f3fe608060405234801561001057600080fd5b506004361061002b5760003560e01c80630e158d4814610030575b600080fd5b6100bc6004803603606081101561004657600080fd5b81019060208101813564010000000081111561006157600080fd5b82018360208201111561007357600080fd5b8035906020019184600183028401116401000000008311171561009557600080fd5b919350915073ffffffffffffffffffffffffffffffffffffffff81351690602001356100ce565b60408051918252519081900360200190f35b6000604080517f08c379a000000000000000000000000000000000000000000000000000000000815260206004820152600560248201527f4841454845000000000000000000000000000000000000000000000000000000604482015290519081900360640190fdfea26469706673582212205f8226e2e4f54934294764f87a0bd85b3c97d965868faa880d395bd0caff453764736f6c634300060c0033",
                "opcodes": "PUSH1 0x80 PUSH1 0x40 MSTORE CALLVALUE DUP1 ISZERO PUSH2 0x10 JUMPI PUSH1 0x0 DUP1 REVERT JUMPDEST POP PUSH2 0x16D DUP1 PUSH2 0x20 PUSH1 0x0 CODECOPY PUSH1 0x0 RETURN INVALID PUSH1 0x80 PUSH1 0x40 MSTORE CALLVALUE DUP1 ISZERO PUSH2 0x10 JUMPI PUSH1 0x0 DUP1 REVERT JUMPDEST POP PUSH1 0x4 CALLDATASIZE LT PUSH2 0x2B JUMPI PUSH1 0x0 CALLDATALOAD PUSH1 0xE0 SHR DUP1 PUSH4 0xE158D48 EQ PUSH2 0x30 JUMPI JUMPDEST PUSH1 0x0 DUP1 REVERT JUMPDEST PUSH2 0xBC PUSH1 0x4 DUP1 CALLDATASIZE SUB PUSH1 0x60 DUP2 LT ISZERO PUSH2 0x46 JUMPI PUSH1 0x0 DUP1 REVERT JUMPDEST DUP2 ADD SWAP1 PUSH1 0x20 DUP2 ADD DUP2 CALLDATALOAD PUSH5 0x100000000 DUP2 GT ISZERO PUSH2 0x61 JUMPI PUSH1 0x0 DUP1 REVERT JUMPDEST DUP3 ADD DUP4 PUSH1 0x20 DUP3 ADD GT ISZERO PUSH2 0x73 JUMPI PUSH1 0x0 DUP1 REVERT JUMPDEST DUP1 CALLDATALOAD SWAP1 PUSH1 0x20 ADD SWAP2 DUP5 PUSH1 0x1 DUP4 MUL DUP5 ADD GT PUSH5 0x100000000 DUP4 GT OR ISZERO PUSH2 0x95 JUMPI PUSH1 0x0 DUP1 REVERT JUMPDEST SWAP2 SWAP4 POP SWAP2 POP PUSH20 0xFFFFFFFFFFFFFFFFFFFFFFFFFFFFFFFFFFFFFFFF DUP2 CALLDATALOAD AND SWAP1 PUSH1 0x20 ADD CALLDATALOAD PUSH2 0xCE JUMP JUMPDEST PUSH1 0x40 DUP1 MLOAD SWAP2 DUP3 MSTORE MLOAD SWAP1 DUP2 SWAP1 SUB PUSH1 0x20 ADD SWAP1 RETURN JUMPDEST PUSH1 0x0 PUSH1 0x40 DUP1 MLOAD PUSH32 0x8C379A000000000000000000000000000000000000000000000000000000000 DUP2 MSTORE PUSH1 0x20 PUSH1 0x4 DUP3 ADD MSTORE PUSH1 0x5 PUSH1 0x24 DUP3 ADD MSTORE PUSH32 0x4841454845000000000000000000000000000000000000000000000000000000 PUSH1 0x44 DUP3 ADD MSTORE SWAP1 MLOAD SWAP1 DUP2 SWAP1 SUB PUSH1 0x64 ADD SWAP1 REVERT INVALID LOG2 PUSH5 0x6970667358 0x22 SLT KECCAK256 0x5F DUP3 0x26 0xE2 0xE4 CREATE2 0x49 CALLVALUE 0x29 SELFBALANCE PUSH5 0xF87A0BD85B EXTCODECOPY SWAP8 0xD9 PUSH6 0x868FAA880D39 JUMPDEST 0xD0 0xCA SELFDESTRUCT GASLIMIT CALLDATACOPY PUSH5 0x736F6C6343 STOP MOD 0xC STOP CALLER "
            }
        }
    },
    "sourceTreeHashHex": "0x1a1003f5cf61883bcb7da55c8b707cb4ba681c5d38128e6d98331b51870c4957",
    "compiler": {
        "name": "solc",
        "version": "0.6.12+commit.27d51765",
        "settings": {
            "remappings": [],
            "optimizer": {
                "enabled": true,
                "runs": 1000000,
                "details": {
                    "yul": true,
                    "deduplicate": true,
                    "cse": true,
                    "constantOptimizer": true
                }
            },
            "outputSelection": {
                "*": {
                    "*": [
                        "abi",
                        "devdoc",
                        "evm.bytecode.object",
                        "evm.bytecode.sourceMap",
                        "evm.deployedBytecode.object",
                        "evm.deployedBytecode.sourceMap"
                    ]
                }
            },
            "evmVersion": "istanbul"
        }
    },
    "chains": {}
}