{
    "schemaVersion": "2.0.0",
    "contractName": "TestTransformerHost",
    "compilerOutput": {
        "abi": [
            {
                "inputs": [
                    {
                        "internalType": "contract IERC20Transformer",
                        "name": "transformer",
                        "type": "address"
                    },
                    {
                        "components": [
                            {
                                "internalType": "bytes32",
                                "name": "callDataHash",
                                "type": "bytes32"
                            },
                            {
                                "internalType": "address payable",
                                "name": "sender",
                                "type": "address"
                            },
                            {
                                "internalType": "address payable",
                                "name": "taker",
                                "type": "address"
                            },
                            {
                                "internalType": "bytes",
                                "name": "data",
                                "type": "bytes"
                            }
                        ],
                        "internalType": "struct IERC20Transformer.TransformContext",
                        "name": "context",
                        "type": "tuple"
                    }
                ],
                "name": "rawExecuteTransform",
                "outputs": [],
                "stateMutability": "nonpayable",
                "type": "function"
            }
        ],
        "devdoc": {
            "kind": "dev",
            "methods": {},
            "version": 1
        },
        "evm": {
            "bytecode": {
                "linkReferences": {},
                "object": "0x608060405234801561001057600080fd5b506104a7806100206000396000f3fe6080604052600436106100225760003560e01c8063786f1b7e1461002e57610029565b3661002957005b600080fd5b34801561003a57600080fd5b5061004e61004936600461024e565b610050565b005b600060608373ffffffffffffffffffffffffffffffffffffffff1663df9aa1ee60e01b846040516024016100849190610380565b604080517fffffffffffffffffffffffffffffffffffffffffffffffffffffffffffffffe08184030181529181526020820180517bffffffffffffffffffffffffffffffffffffffffffffffffffffffff167fffffffff0000000000000000000000000000000000000000000000000000000090941693909317909252905161010d91906102ea565b600060405180830381855af49150503d8060008114610148576040519150601f19603f3d011682016040523d82523d6000602084013e61014d565b606091505b50915091508161016057610160816101ff565b80517f13c9929e00000000000000000000000000000000000000000000000000000000906101979083016020908101908401610207565b7fffffffff0000000000000000000000000000000000000000000000000000000016146101f9576040517f08c379a00000000000000000000000000000000000000000000000000000000081526004016101f090610323565b60405180910390fd5b50505050565b805160208201fd5b600060208284031215610218578081fd5b81517fffffffff0000000000000000000000000000000000000000000000000000000081168114610247578182fd5b9392505050565b60008060408385031215610260578081fd5b823561026b8161044c565b9150602083013567ffffffffffffffff811115610286578182fd5b830160808186031215610297578182fd5b809150509250929050565b600082845282826020860137806020848601015260207fffffffffffffffffffffffffffffffffffffffffffffffffffffffffffffffe0601f85011685010190509392505050565b60008251815b8181101561030a57602081860181015185830152016102f0565b818111156103185782828501525b509190910192915050565b6020808252602e908201527f546573745472616e73666f726d6572486f73742f494e56414c49445f5452414e60408201527f53464f524d45525f524553554c54000000000000000000000000000000000000606082015260800190565b60006020825282356020830152602083013561039b8161044c565b73ffffffffffffffffffffffffffffffffffffffff8082166040850152604085013591506103c88261044c565b8082166060850152505060608301357fffffffffffffffffffffffffffffffffffffffffffffffffffffffffffffffe1843603018112610406578182fd5b8301803567ffffffffffffffff81111561041e578283fd5b80360385131561042c578283fd5b60808085015261044360a0850182602085016102a2565b95945050505050565b73ffffffffffffffffffffffffffffffffffffffff8116811461046e57600080fd5b5056fea264697066735822122028831b67f518ced2542a8c668651a3734f387a776cd707e77f608c604e504f1864736f6c634300060c0033",
                "opcodes": "PUSH1 0x80 PUSH1 0x40 MSTORE CALLVALUE DUP1 ISZERO PUSH2 0x10 JUMPI PUSH1 0x0 DUP1 REVERT JUMPDEST POP PUSH2 0x4A7 DUP1 PUSH2 0x20 PUSH1 0x0 CODECOPY PUSH1 0x0 RETURN INVALID PUSH1 0x80 PUSH1 0x40 MSTORE PUSH1 0x4 CALLDATASIZE LT PUSH2 0x22 JUMPI PUSH1 0x0 CALLDATALOAD PUSH1 0xE0 SHR DUP1 PUSH4 0x786F1B7E EQ PUSH2 0x2E JUMPI PUSH2 0x29 JUMP JUMPDEST CALLDATASIZE PUSH2 0x29 JUMPI STOP JUMPDEST PUSH1 0x0 DUP1 REVERT JUMPDEST CALLVALUE DUP1 ISZERO PUSH2 0x3A JUMPI PUSH1 0x0 DUP1 REVERT JUMPDEST POP PUSH2 0x4E PUSH2 0x49 CALLDATASIZE PUSH1 0x4 PUSH2 0x24E JUMP JUMPDEST PUSH2 0x50 JUMP JUMPDEST STOP JUMPDEST PUSH1 0x0 PUSH1 0x60 DUP4 PUSH20 0xFFFFFFFFFFFFFFFFFFFFFFFFFFFFFFFFFFFFFFFF AND PUSH4 0xDF9AA1EE PUSH1 0xE0 SHL DUP5 PUSH1 0x40 MLOAD PUSH1 0x24 ADD PUSH2 0x84 SWAP2 SWAP1 PUSH2 0x380 JUMP JUMPDEST PUSH1 0x40 DUP1 MLOAD PUSH32 0xFFFFFFFFFFFFFFFFFFFFFFFFFFFFFFFFFFFFFFFFFFFFFFFFFFFFFFFFFFFFFFE0 DUP2 DUP5 SUB ADD DUP2 MSTORE SWAP2 DUP2 MSTORE PUSH1 0x20 DUP3 ADD DUP1 MLOAD PUSH28 0xFFFFFFFFFFFFFFFFFFFFFFFFFFFFFFFFFFFFFFFFFFFFFFFFFFFFFFFF AND PUSH32 0xFFFFFFFF00000000000000000000000000000000000000000000000000000000 SWAP1 SWAP5 AND SWAP4 SWAP1 SWAP4 OR SWAP1 SWAP3 MSTORE SWAP1 MLOAD PUSH2 0x10D SWAP2 SWAP1 PUSH2 0x2EA JUMP JUMPDEST PUSH1 0x0 PUSH1 0x40 MLOAD DUP1 DUP4 SUB DUP2 DUP6 GAS DELEGATECALL SWAP2 POP POP RETURNDATASIZE DUP1 PUSH1 0x0 DUP2 EQ PUSH2 0x148 JUMPI PUSH1 0x40 MLOAD SWAP2 POP PUSH1 0x1F NOT PUSH1 0x3F RETURNDATASIZE ADD AND DUP3 ADD PUSH1 0x40 MSTORE RETURNDATASIZE DUP3 MSTORE RETURNDATASIZE PUSH1 0x0 PUSH1 0x20 DUP5 ADD RETURNDATACOPY PUSH2 0x14D JUMP JUMPDEST PUSH1 0x60 SWAP2 POP JUMPDEST POP SWAP2 POP SWAP2 POP DUP2 PUSH2 0x160 JUMPI PUSH2 0x160 DUP2 PUSH2 0x1FF JUMP JUMPDEST DUP1 MLOAD PUSH32 0x13C9929E00000000000000000000000000000000000000000000000000000000 SWAP1 PUSH2 0x197 SWAP1 DUP4 ADD PUSH1 0x20 SWAP1 DUP2 ADD SWAP1 DUP5 ADD PUSH2 0x207 JUMP JUMPDEST PUSH32 0xFFFFFFFF00000000000000000000000000000000000000000000000000000000 AND EQ PUSH2 0x1F9 JUMPI PUSH1 0x40 MLOAD PUSH32 0x8C379A000000000000000000000000000000000000000000000000000000000 DUP2 MSTORE PUSH1 0x4 ADD PUSH2 0x1F0 SWAP1 PUSH2 0x323 JUMP JUMPDEST PUSH1 0x40 MLOAD DUP1 SWAP2 SUB SWAP1 REVERT JUMPDEST POP POP POP POP JUMP JUMPDEST DUP1 MLOAD PUSH1 0x20 DUP3 ADD REVERT JUMPDEST PUSH1 0x0 PUSH1 0x20 DUP3 DUP5 SUB SLT ISZERO PUSH2 0x218 JUMPI DUP1 DUP2 REVERT JUMPDEST DUP2 MLOAD PUSH32 0xFFFFFFFF00000000000000000000000000000000000000000000000000000000 DUP2 AND DUP2 EQ PUSH2 0x247 JUMPI DUP2 DUP3 REVERT JUMPDEST SWAP4 SWAP3 POP POP POP JUMP JUMPDEST PUSH1 0x0 DUP1 PUSH1 0x40 DUP4 DUP6 SUB SLT ISZERO PUSH2 0x260 JUMPI DUP1 DUP2 REVERT JUMPDEST DUP3 CALLDATALOAD PUSH2 0x26B DUP2 PUSH2 0x44C JUMP JUMPDEST SWAP2 POP PUSH1 0x20 DUP4 ADD CALLDATALOAD PUSH8 0xFFFFFFFFFFFFFFFF DUP2 GT ISZERO PUSH2 0x286 JUMPI DUP2 DUP3 REVERT JUMPDEST DUP4 ADD PUSH1 0x80 DUP2 DUP7 SUB SLT ISZERO PUSH2 0x297 JUMPI DUP2 DUP3 REVERT JUMPDEST DUP1 SWAP2 POP POP SWAP3 POP SWAP3 SWAP1 POP JUMP JUMPDEST PUSH1 0x0 DUP3 DUP5 MSTORE DUP3 DUP3 PUSH1 0x20 DUP7 ADD CALLDATACOPY DUP1 PUSH1 0x20 DUP5 DUP7 ADD ADD MSTORE PUSH1 0x20 PUSH32 0xFFFFFFFFFFFFFFFFFFFFFFFFFFFFFFFFFFFFFFFFFFFFFFFFFFFFFFFFFFFFFFE0 PUSH1 0x1F DUP6 ADD AND DUP6 ADD ADD SWAP1 POP SWAP4 SWAP3 POP POP POP JUMP JUMPDEST PUSH1 0x0 DUP3 MLOAD DUP2 JUMPDEST DUP2 DUP2 LT ISZERO PUSH2 0x30A JUMPI PUSH1 0x20 DUP2 DUP7 ADD DUP2 ADD MLOAD DUP6 DUP4 ADD MSTORE ADD PUSH2 0x2F0 JUMP JUMPDEST DUP2 DUP2 GT ISZERO PUSH2 0x318 JUMPI DUP3 DUP3 DUP6 ADD MSTORE JUMPDEST POP SWAP2 SWAP1 SWAP2 ADD SWAP3 SWAP2 POP POP JUMP JUMPDEST PUSH1 0x20 DUP1 DUP3 MSTORE PUSH1 0x2E SWAP1 DUP3 ADD MSTORE PUSH32 0x546573745472616E73666F726D6572486F73742F494E56414C49445F5452414E PUSH1 0x40 DUP3 ADD MSTORE PUSH32 0x53464F524D45525F524553554C54000000000000000000000000000000000000 PUSH1 0x60 DUP3 ADD MSTORE PUSH1 0x80 ADD SWAP1 JUMP JUMPDEST PUSH1 0x0 PUSH1 0x20 DUP3 MSTORE DUP3 CALLDATALOAD PUSH1 0x20 DUP4 ADD MSTORE PUSH1 0x20 DUP4 ADD CALLDATALOAD PUSH2 0x39B DUP2 PUSH2 0x44C JUMP JUMPDEST PUSH20 0xFFFFFFFFFFFFFFFFFFFFFFFFFFFFFFFFFFFFFFFF DUP1 DUP3 AND PUSH1 0x40 DUP6 ADD MSTORE PUSH1 0x40 DUP6 ADD CALLDATALOAD SWAP2 POP PUSH2 0x3C8 DUP3 PUSH2 0x44C JUMP JUMPDEST DUP1 DUP3 AND PUSH1 0x60 DUP6 ADD MSTORE POP POP PUSH1 0x60 DUP4 ADD CALLDATALOAD PUSH32 0xFFFFFFFFFFFFFFFFFFFFFFFFFFFFFFFFFFFFFFFFFFFFFFFFFFFFFFFFFFFFFFE1 DUP5 CALLDATASIZE SUB ADD DUP2 SLT PUSH2 0x406 JUMPI DUP2 DUP3 REVERT JUMPDEST DUP4 ADD DUP1 CALLDATALOAD PUSH8 0xFFFFFFFFFFFFFFFF DUP2 GT ISZERO PUSH2 0x41E JUMPI DUP3 DUP4 REVERT JUMPDEST DUP1 CALLDATASIZE SUB DUP6 SGT ISZERO PUSH2 0x42C JUMPI DUP3 DUP4 REVERT JUMPDEST PUSH1 0x80 DUP1 DUP6 ADD MSTORE PUSH2 0x443 PUSH1 0xA0 DUP6 ADD DUP3 PUSH1 0x20 DUP6 ADD PUSH2 0x2A2 JUMP JUMPDEST SWAP6 SWAP5 POP POP POP POP POP JUMP JUMPDEST PUSH20 0xFFFFFFFFFFFFFFFFFFFFFFFFFFFFFFFFFFFFFFFF DUP2 AND DUP2 EQ PUSH2 0x46E JUMPI PUSH1 0x0 DUP1 REVERT JUMPDEST POP JUMP INVALID LOG2 PUSH5 0x6970667358 0x22 SLT KECCAK256 0x28 DUP4 SHL PUSH8 0xF518CED2542A8C66 DUP7 MLOAD LOG3 PUSH20 0x4F387A776CD707E77F608C604E504F1864736F6C PUSH4 0x4300060C STOP CALLER "
            }
        }
    },
    "sourceTreeHashHex": "0x4476f29e90b46887f44d971ccd68fe6c8c1bbe25b846e3bbb1ee254713c7607b",
    "compiler": {
        "name": "solc",
        "version": "0.6.12+commit.27d51765",
        "settings": {
            "remappings": [
                "@0x/contracts-utils=/Users/jacob/projects/ethdev/0x/workspace-remote/workspace/0x-monorepo/node_modules/@0x/contracts-utils",
                "@0x/contracts-erc20=/Users/jacob/projects/ethdev/0x/workspace-remote/workspace/0x-monorepo/node_modules/@0x/contracts-erc20"
            ],
            "optimizer": {
                "enabled": true,
                "runs": 1000000,
                "details": {
                    "yul": true,
                    "deduplicate": true,
                    "cse": true,
                    "constantOptimizer": true
                }
            },
            "outputSelection": {
                "*": {
                    "*": [
                        "abi",
                        "devdoc",
                        "evm.bytecode.object",
                        "evm.bytecode.sourceMap",
                        "evm.deployedBytecode.object",
                        "evm.deployedBytecode.sourceMap"
                    ]
                }
            },
            "evmVersion": "istanbul"
        }
    },
    "chains": {}
}