{
    "schemaVersion": "2.0.0",
    "contractName": "TestFillQuoteTransformerHost",
    "compilerOutput": {
        "abi": [
            {
                "inputs": [
                    {
                        "internalType": "contract IERC20Transformer",
                        "name": "transformer",
                        "type": "address"
                    },
                    {
                        "internalType": "contract TestMintableERC20Token",
                        "name": "inputToken",
                        "type": "address"
                    },
                    {
                        "internalType": "uint256",
                        "name": "inputTokenAmount",
                        "type": "uint256"
                    },
                    {
                        "internalType": "address payable",
                        "name": "sender",
                        "type": "address"
                    },
                    {
                        "internalType": "address payable",
                        "name": "taker",
                        "type": "address"
                    },
                    {
                        "internalType": "bytes",
                        "name": "data",
                        "type": "bytes"
                    }
                ],
                "name": "executeTransform",
                "outputs": [],
                "stateMutability": "payable",
                "type": "function"
            },
            {
                "inputs": [
                    {
                        "internalType": "contract IERC20Transformer",
                        "name": "transformer",
                        "type": "address"
                    },
                    {
                        "components": [
                            {
                                "internalType": "bytes32",
                                "name": "callDataHash",
                                "type": "bytes32"
                            },
                            {
                                "internalType": "address payable",
                                "name": "sender",
                                "type": "address"
                            },
                            {
                                "internalType": "address payable",
                                "name": "taker",
                                "type": "address"
                            },
                            {
                                "internalType": "bytes",
                                "name": "data",
                                "type": "bytes"
                            }
                        ],
                        "internalType": "struct IERC20Transformer.TransformContext",
                        "name": "context",
                        "type": "tuple"
                    }
                ],
                "name": "rawExecuteTransform",
                "outputs": [],
                "stateMutability": "nonpayable",
                "type": "function"
            }
        ],
        "devdoc": {
            "kind": "dev",
            "methods": {},
            "version": 1
        },
        "evm": {
            "bytecode": {
                "linkReferences": {},
                "object": "0x608060405234801561001057600080fd5b506107fb806100206000396000f3fe60806040526004361061002d5760003560e01c8063786f1b7e14610039578063a22ad39e1461005b57610034565b3661003457005b600080fd5b34801561004557600080fd5b506100596100543660046104d1565b61006e565b005b61005961006936600461040f565b61021d565b600060608373ffffffffffffffffffffffffffffffffffffffff1663df9aa1ee60e01b846040516024016100a291906106a8565b604080517fffffffffffffffffffffffffffffffffffffffffffffffffffffffffffffffe08184030181529181526020820180517bffffffffffffffffffffffffffffffffffffffffffffffffffffffff167fffffffff0000000000000000000000000000000000000000000000000000000090941693909317909252905161012b919061056d565b600060405180830381855af49150503d8060008114610166576040519150601f19603f3d011682016040523d82523d6000602084013e61016b565b606091505b50915091508161017e5761017e816103c0565b80517f13c9929e00000000000000000000000000000000000000000000000000000000906101b590830160209081019084016103c8565b7fffffffff000000000000000000000000000000000000000000000000000000001614610217576040517f08c379a000000000000000000000000000000000000000000000000000000000815260040161020e9061064b565b60405180910390fd5b50505050565b84156102aa576040517f40c10f1900000000000000000000000000000000000000000000000000000000815273ffffffffffffffffffffffffffffffffffffffff8716906340c10f19906102779030908990600401610589565b600060405180830381600087803b15801561029157600080fd5b505af11580156102a5573d6000803e3d6000fd5b505050505b3073ffffffffffffffffffffffffffffffffffffffff1663786f1b7e8860405180608001604052806000801b81526020018873ffffffffffffffffffffffffffffffffffffffff1681526020018773ffffffffffffffffffffffffffffffffffffffff16815260200186868080601f01602080910402602001604051908101604052809392919081815260200183838082843760009201919091525050509152506040517fffffffff0000000000000000000000000000000000000000000000000000000060e085901b1681526103859291906004016105af565b600060405180830381600087803b15801561039f57600080fd5b505af11580156103b3573d6000803e3d6000fd5b5050505050505050505050565b805160208201fd5b6000602082840312156103d9578081fd5b81517fffffffff0000000000000000000000000000000000000000000000000000000081168114610408578182fd5b9392505050565b600080600080600080600060c0888a031215610429578283fd5b8735610434816107a0565b96506020880135610444816107a0565b955060408801359450606088013561045b816107a0565b9350608088013561046b816107a0565b925060a088013567ffffffffffffffff80821115610487578384fd5b818a0191508a601f83011261049a578384fd5b8135818111156104a8578485fd5b8b60208285010111156104b9578485fd5b60208301945080935050505092959891949750929550565b600080604083850312156104e3578182fd5b82356104ee816107a0565b9150602083013567ffffffffffffffff811115610509578182fd5b83016080818603121561051a578182fd5b809150509250929050565b600082845282826020860137806020848601015260207fffffffffffffffffffffffffffffffffffffffffffffffffffffffffffffffe0601f85011685010190509392505050565b6000825161057f818460208701610774565b9190910192915050565b73ffffffffffffffffffffffffffffffffffffffff929092168252602082015260400190565b600073ffffffffffffffffffffffffffffffffffffffff80851683526040602084015283516040840152806020850151166060840152806040850151166080840152506060830151608060a084015280518060c08501526106178160e0860160208501610774565b601f017fffffffffffffffffffffffffffffffffffffffffffffffffffffffffffffffe0169290920160e001949350505050565b6020808252602e908201527f546573745472616e73666f726d6572486f73742f494e56414c49445f5452414e60408201527f53464f524d45525f524553554c54000000000000000000000000000000000000606082015260800190565b6000602082528235602083015260208301356106c3816107a0565b73ffffffffffffffffffffffffffffffffffffffff8082166040850152604085013591506106f0826107a0565b8082166060850152505060608301357fffffffffffffffffffffffffffffffffffffffffffffffffffffffffffffffe184360301811261072e578182fd5b8301803567ffffffffffffffff811115610746578283fd5b803603851315610754578283fd5b60808085015261076b60a085018260208501610525565b95945050505050565b60005b8381101561078f578181015183820152602001610777565b838111156102175750506000910152565b73ffffffffffffffffffffffffffffffffffffffff811681146107c257600080fd5b5056fea264697066735822122055728b36fa29f41d3523baf2cc1380d74b69e4ee4894f8c5151a0ffcbf0d107a64736f6c634300060c0033",
                "opcodes": "PUSH1 0x80 PUSH1 0x40 MSTORE CALLVALUE DUP1 ISZERO PUSH2 0x10 JUMPI PUSH1 0x0 DUP1 REVERT JUMPDEST POP PUSH2 0x7FB DUP1 PUSH2 0x20 PUSH1 0x0 CODECOPY PUSH1 0x0 RETURN INVALID PUSH1 0x80 PUSH1 0x40 MSTORE PUSH1 0x4 CALLDATASIZE LT PUSH2 0x2D JUMPI PUSH1 0x0 CALLDATALOAD PUSH1 0xE0 SHR DUP1 PUSH4 0x786F1B7E EQ PUSH2 0x39 JUMPI DUP1 PUSH4 0xA22AD39E EQ PUSH2 0x5B JUMPI PUSH2 0x34 JUMP JUMPDEST CALLDATASIZE PUSH2 0x34 JUMPI STOP JUMPDEST PUSH1 0x0 DUP1 REVERT JUMPDEST CALLVALUE DUP1 ISZERO PUSH2 0x45 JUMPI PUSH1 0x0 DUP1 REVERT JUMPDEST POP PUSH2 0x59 PUSH2 0x54 CALLDATASIZE PUSH1 0x4 PUSH2 0x4D1 JUMP JUMPDEST PUSH2 0x6E JUMP JUMPDEST STOP JUMPDEST PUSH2 0x59 PUSH2 0x69 CALLDATASIZE PUSH1 0x4 PUSH2 0x40F JUMP JUMPDEST PUSH2 0x21D JUMP JUMPDEST PUSH1 0x0 PUSH1 0x60 DUP4 PUSH20 0xFFFFFFFFFFFFFFFFFFFFFFFFFFFFFFFFFFFFFFFF AND PUSH4 0xDF9AA1EE PUSH1 0xE0 SHL DUP5 PUSH1 0x40 MLOAD PUSH1 0x24 ADD PUSH2 0xA2 SWAP2 SWAP1 PUSH2 0x6A8 JUMP JUMPDEST PUSH1 0x40 DUP1 MLOAD PUSH32 0xFFFFFFFFFFFFFFFFFFFFFFFFFFFFFFFFFFFFFFFFFFFFFFFFFFFFFFFFFFFFFFE0 DUP2 DUP5 SUB ADD DUP2 MSTORE SWAP2 DUP2 MSTORE PUSH1 0x20 DUP3 ADD DUP1 MLOAD PUSH28 0xFFFFFFFFFFFFFFFFFFFFFFFFFFFFFFFFFFFFFFFFFFFFFFFFFFFFFFFF AND PUSH32 0xFFFFFFFF00000000000000000000000000000000000000000000000000000000 SWAP1 SWAP5 AND SWAP4 SWAP1 SWAP4 OR SWAP1 SWAP3 MSTORE SWAP1 MLOAD PUSH2 0x12B SWAP2 SWAP1 PUSH2 0x56D JUMP JUMPDEST PUSH1 0x0 PUSH1 0x40 MLOAD DUP1 DUP4 SUB DUP2 DUP6 GAS DELEGATECALL SWAP2 POP POP RETURNDATASIZE DUP1 PUSH1 0x0 DUP2 EQ PUSH2 0x166 JUMPI PUSH1 0x40 MLOAD SWAP2 POP PUSH1 0x1F NOT PUSH1 0x3F RETURNDATASIZE ADD AND DUP3 ADD PUSH1 0x40 MSTORE RETURNDATASIZE DUP3 MSTORE RETURNDATASIZE PUSH1 0x0 PUSH1 0x20 DUP5 ADD RETURNDATACOPY PUSH2 0x16B JUMP JUMPDEST PUSH1 0x60 SWAP2 POP JUMPDEST POP SWAP2 POP SWAP2 POP DUP2 PUSH2 0x17E JUMPI PUSH2 0x17E DUP2 PUSH2 0x3C0 JUMP JUMPDEST DUP1 MLOAD PUSH32 0x13C9929E00000000000000000000000000000000000000000000000000000000 SWAP1 PUSH2 0x1B5 SWAP1 DUP4 ADD PUSH1 0x20 SWAP1 DUP2 ADD SWAP1 DUP5 ADD PUSH2 0x3C8 JUMP JUMPDEST PUSH32 0xFFFFFFFF00000000000000000000000000000000000000000000000000000000 AND EQ PUSH2 0x217 JUMPI PUSH1 0x40 MLOAD PUSH32 0x8C379A000000000000000000000000000000000000000000000000000000000 DUP2 MSTORE PUSH1 0x4 ADD PUSH2 0x20E SWAP1 PUSH2 0x64B JUMP JUMPDEST PUSH1 0x40 MLOAD DUP1 SWAP2 SUB SWAP1 REVERT JUMPDEST POP POP POP POP JUMP JUMPDEST DUP5 ISZERO PUSH2 0x2AA JUMPI PUSH1 0x40 MLOAD PUSH32 0x40C10F1900000000000000000000000000000000000000000000000000000000 DUP2 MSTORE PUSH20 0xFFFFFFFFFFFFFFFFFFFFFFFFFFFFFFFFFFFFFFFF DUP8 AND SWAP1 PUSH4 0x40C10F19 SWAP1 PUSH2 0x277 SWAP1 ADDRESS SWAP1 DUP10 SWAP1 PUSH1 0x4 ADD PUSH2 0x589 JUMP JUMPDEST PUSH1 0x0 PUSH1 0x40 MLOAD DUP1 DUP4 SUB DUP2 PUSH1 0x0 DUP8 DUP1 EXTCODESIZE ISZERO DUP1 ISZERO PUSH2 0x291 JUMPI PUSH1 0x0 DUP1 REVERT JUMPDEST POP GAS CALL ISZERO DUP1 ISZERO PUSH2 0x2A5 JUMPI RETURNDATASIZE PUSH1 0x0 DUP1 RETURNDATACOPY RETURNDATASIZE PUSH1 0x0 REVERT JUMPDEST POP POP POP POP JUMPDEST ADDRESS PUSH20 0xFFFFFFFFFFFFFFFFFFFFFFFFFFFFFFFFFFFFFFFF AND PUSH4 0x786F1B7E DUP9 PUSH1 0x40 MLOAD DUP1 PUSH1 0x80 ADD PUSH1 0x40 MSTORE DUP1 PUSH1 0x0 DUP1 SHL DUP2 MSTORE PUSH1 0x20 ADD DUP9 PUSH20 0xFFFFFFFFFFFFFFFFFFFFFFFFFFFFFFFFFFFFFFFF AND DUP2 MSTORE PUSH1 0x20 ADD DUP8 PUSH20 0xFFFFFFFFFFFFFFFFFFFFFFFFFFFFFFFFFFFFFFFF AND DUP2 MSTORE PUSH1 0x20 ADD DUP7 DUP7 DUP1 DUP1 PUSH1 0x1F ADD PUSH1 0x20 DUP1 SWAP2 DIV MUL PUSH1 0x20 ADD PUSH1 0x40 MLOAD SWAP1 DUP2 ADD PUSH1 0x40 MSTORE DUP1 SWAP4 SWAP3 SWAP2 SWAP1 DUP2 DUP2 MSTORE PUSH1 0x20 ADD DUP4 DUP4 DUP1 DUP3 DUP5 CALLDATACOPY PUSH1 0x0 SWAP3 ADD SWAP2 SWAP1 SWAP2 MSTORE POP POP POP SWAP2 MSTORE POP PUSH1 0x40 MLOAD PUSH32 0xFFFFFFFF00000000000000000000000000000000000000000000000000000000 PUSH1 0xE0 DUP6 SWAP1 SHL AND DUP2 MSTORE PUSH2 0x385 SWAP3 SWAP2 SWAP1 PUSH1 0x4 ADD PUSH2 0x5AF JUMP JUMPDEST PUSH1 0x0 PUSH1 0x40 MLOAD DUP1 DUP4 SUB DUP2 PUSH1 0x0 DUP8 DUP1 EXTCODESIZE ISZERO DUP1 ISZERO PUSH2 0x39F JUMPI PUSH1 0x0 DUP1 REVERT JUMPDEST POP GAS CALL ISZERO DUP1 ISZERO PUSH2 0x3B3 JUMPI RETURNDATASIZE PUSH1 0x0 DUP1 RETURNDATACOPY RETURNDATASIZE PUSH1 0x0 REVERT JUMPDEST POP POP POP POP POP POP POP POP POP POP POP JUMP JUMPDEST DUP1 MLOAD PUSH1 0x20 DUP3 ADD REVERT JUMPDEST PUSH1 0x0 PUSH1 0x20 DUP3 DUP5 SUB SLT ISZERO PUSH2 0x3D9 JUMPI DUP1 DUP2 REVERT JUMPDEST DUP2 MLOAD PUSH32 0xFFFFFFFF00000000000000000000000000000000000000000000000000000000 DUP2 AND DUP2 EQ PUSH2 0x408 JUMPI DUP2 DUP3 REVERT JUMPDEST SWAP4 SWAP3 POP POP POP JUMP JUMPDEST PUSH1 0x0 DUP1 PUSH1 0x0 DUP1 PUSH1 0x0 DUP1 PUSH1 0x0 PUSH1 0xC0 DUP9 DUP11 SUB SLT ISZERO PUSH2 0x429 JUMPI DUP3 DUP4 REVERT JUMPDEST DUP8 CALLDATALOAD PUSH2 0x434 DUP2 PUSH2 0x7A0 JUMP JUMPDEST SWAP7 POP PUSH1 0x20 DUP9 ADD CALLDATALOAD PUSH2 0x444 DUP2 PUSH2 0x7A0 JUMP JUMPDEST SWAP6 POP PUSH1 0x40 DUP9 ADD CALLDATALOAD SWAP5 POP PUSH1 0x60 DUP9 ADD CALLDATALOAD PUSH2 0x45B DUP2 PUSH2 0x7A0 JUMP JUMPDEST SWAP4 POP PUSH1 0x80 DUP9 ADD CALLDATALOAD PUSH2 0x46B DUP2 PUSH2 0x7A0 JUMP JUMPDEST SWAP3 POP PUSH1 0xA0 DUP9 ADD CALLDATALOAD PUSH8 0xFFFFFFFFFFFFFFFF DUP1 DUP3 GT ISZERO PUSH2 0x487 JUMPI DUP4 DUP5 REVERT JUMPDEST DUP2 DUP11 ADD SWAP2 POP DUP11 PUSH1 0x1F DUP4 ADD SLT PUSH2 0x49A JUMPI DUP4 DUP5 REVERT JUMPDEST DUP2 CALLDATALOAD DUP2 DUP2 GT ISZERO PUSH2 0x4A8 JUMPI DUP5 DUP6 REVERT JUMPDEST DUP12 PUSH1 0x20 DUP3 DUP6 ADD ADD GT ISZERO PUSH2 0x4B9 JUMPI DUP5 DUP6 REVERT JUMPDEST PUSH1 0x20 DUP4 ADD SWAP5 POP DUP1 SWAP4 POP POP POP POP SWAP3 SWAP6 SWAP9 SWAP2 SWAP5 SWAP8 POP SWAP3 SWAP6 POP JUMP JUMPDEST PUSH1 0x0 DUP1 PUSH1 0x40 DUP4 DUP6 SUB SLT ISZERO PUSH2 0x4E3 JUMPI DUP2 DUP3 REVERT JUMPDEST DUP3 CALLDATALOAD PUSH2 0x4EE DUP2 PUSH2 0x7A0 JUMP JUMPDEST SWAP2 POP PUSH1 0x20 DUP4 ADD CALLDATALOAD PUSH8 0xFFFFFFFFFFFFFFFF DUP2 GT ISZERO PUSH2 0x509 JUMPI DUP2 DUP3 REVERT JUMPDEST DUP4 ADD PUSH1 0x80 DUP2 DUP7 SUB SLT ISZERO PUSH2 0x51A JUMPI DUP2 DUP3 REVERT JUMPDEST DUP1 SWAP2 POP POP SWAP3 POP SWAP3 SWAP1 POP JUMP JUMPDEST PUSH1 0x0 DUP3 DUP5 MSTORE DUP3 DUP3 PUSH1 0x20 DUP7 ADD CALLDATACOPY DUP1 PUSH1 0x20 DUP5 DUP7 ADD ADD MSTORE PUSH1 0x20 PUSH32 0xFFFFFFFFFFFFFFFFFFFFFFFFFFFFFFFFFFFFFFFFFFFFFFFFFFFFFFFFFFFFFFE0 PUSH1 0x1F DUP6 ADD AND DUP6 ADD ADD SWAP1 POP SWAP4 SWAP3 POP POP POP JUMP JUMPDEST PUSH1 0x0 DUP3 MLOAD PUSH2 0x57F DUP2 DUP5 PUSH1 0x20 DUP8 ADD PUSH2 0x774 JUMP JUMPDEST SWAP2 SWAP1 SWAP2 ADD SWAP3 SWAP2 POP POP JUMP JUMPDEST PUSH20 0xFFFFFFFFFFFFFFFFFFFFFFFFFFFFFFFFFFFFFFFF SWAP3 SWAP1 SWAP3 AND DUP3 MSTORE PUSH1 0x20 DUP3 ADD MSTORE PUSH1 0x40 ADD SWAP1 JUMP JUMPDEST PUSH1 0x0 PUSH20 0xFFFFFFFFFFFFFFFFFFFFFFFFFFFFFFFFFFFFFFFF DUP1 DUP6 AND DUP4 MSTORE PUSH1 0x40 PUSH1 0x20 DUP5 ADD MSTORE DUP4 MLOAD PUSH1 0x40 DUP5 ADD MSTORE DUP1 PUSH1 0x20 DUP6 ADD MLOAD AND PUSH1 0x60 DUP5 ADD MSTORE DUP1 PUSH1 0x40 DUP6 ADD MLOAD AND PUSH1 0x80 DUP5 ADD MSTORE POP PUSH1 0x60 DUP4 ADD MLOAD PUSH1 0x80 PUSH1 0xA0 DUP5 ADD MSTORE DUP1 MLOAD DUP1 PUSH1 0xC0 DUP6 ADD MSTORE PUSH2 0x617 DUP2 PUSH1 0xE0 DUP7 ADD PUSH1 0x20 DUP6 ADD PUSH2 0x774 JUMP JUMPDEST PUSH1 0x1F ADD PUSH32 0xFFFFFFFFFFFFFFFFFFFFFFFFFFFFFFFFFFFFFFFFFFFFFFFFFFFFFFFFFFFFFFE0 AND SWAP3 SWAP1 SWAP3 ADD PUSH1 0xE0 ADD SWAP5 SWAP4 POP POP POP POP JUMP JUMPDEST PUSH1 0x20 DUP1 DUP3 MSTORE PUSH1 0x2E SWAP1 DUP3 ADD MSTORE PUSH32 0x546573745472616E73666F726D6572486F73742F494E56414C49445F5452414E PUSH1 0x40 DUP3 ADD MSTORE PUSH32 0x53464F524D45525F524553554C54000000000000000000000000000000000000 PUSH1 0x60 DUP3 ADD MSTORE PUSH1 0x80 ADD SWAP1 JUMP JUMPDEST PUSH1 0x0 PUSH1 0x20 DUP3 MSTORE DUP3 CALLDATALOAD PUSH1 0x20 DUP4 ADD MSTORE PUSH1 0x20 DUP4 ADD CALLDATALOAD PUSH2 0x6C3 DUP2 PUSH2 0x7A0 JUMP JUMPDEST PUSH20 0xFFFFFFFFFFFFFFFFFFFFFFFFFFFFFFFFFFFFFFFF DUP1 DUP3 AND PUSH1 0x40 DUP6 ADD MSTORE PUSH1 0x40 DUP6 ADD CALLDATALOAD SWAP2 POP PUSH2 0x6F0 DUP3 PUSH2 0x7A0 JUMP JUMPDEST DUP1 DUP3 AND PUSH1 0x60 DUP6 ADD MSTORE POP POP PUSH1 0x60 DUP4 ADD CALLDATALOAD PUSH32 0xFFFFFFFFFFFFFFFFFFFFFFFFFFFFFFFFFFFFFFFFFFFFFFFFFFFFFFFFFFFFFFE1 DUP5 CALLDATASIZE SUB ADD DUP2 SLT PUSH2 0x72E JUMPI DUP2 DUP3 REVERT JUMPDEST DUP4 ADD DUP1 CALLDATALOAD PUSH8 0xFFFFFFFFFFFFFFFF DUP2 GT ISZERO PUSH2 0x746 JUMPI DUP3 DUP4 REVERT JUMPDEST DUP1 CALLDATASIZE SUB DUP6 SGT ISZERO PUSH2 0x754 JUMPI DUP3 DUP4 REVERT JUMPDEST PUSH1 0x80 DUP1 DUP6 ADD MSTORE PUSH2 0x76B PUSH1 0xA0 DUP6 ADD DUP3 PUSH1 0x20 DUP6 ADD PUSH2 0x525 JUMP JUMPDEST SWAP6 SWAP5 POP POP POP POP POP JUMP JUMPDEST PUSH1 0x0 JUMPDEST DUP4 DUP2 LT ISZERO PUSH2 0x78F JUMPI DUP2 DUP2 ADD MLOAD DUP4 DUP3 ADD MSTORE PUSH1 0x20 ADD PUSH2 0x777 JUMP JUMPDEST DUP4 DUP2 GT ISZERO PUSH2 0x217 JUMPI POP POP PUSH1 0x0 SWAP2 ADD MSTORE JUMP JUMPDEST PUSH20 0xFFFFFFFFFFFFFFFFFFFFFFFFFFFFFFFFFFFFFFFF DUP2 AND DUP2 EQ PUSH2 0x7C2 JUMPI PUSH1 0x0 DUP1 REVERT JUMPDEST POP JUMP INVALID LOG2 PUSH5 0x6970667358 0x22 SLT KECCAK256 SSTORE PUSH19 0x8B36FA29F41D3523BAF2CC1380D74B69E4EE48 SWAP5 0xF8 0xC5 ISZERO BYTE 0xF 0xFC 0xBF 0xD LT PUSH27 0x64736F6C634300060C003300000000000000000000000000000000 "
            }
        }
    },
    "sourceTreeHashHex": "0xb5306929315e1d64eb445010e8f4f4f2f457f974ce9e595326944a723e0876a0",
    "compiler": {
        "name": "solc",
        "version": "0.6.12+commit.27d51765",
        "settings": {
            "remappings": [
                "@0x/contracts-utils=/Users/jacob/projects/ethdev/0x/workspace-remote/workspace/0x-monorepo/node_modules/@0x/contracts-utils",
                "@0x/contracts-erc20=/Users/jacob/projects/ethdev/0x/workspace-remote/workspace/0x-monorepo/node_modules/@0x/contracts-erc20"
            ],
            "optimizer": {
                "enabled": true,
                "runs": 1000000,
                "details": {
                    "yul": true,
                    "deduplicate": true,
                    "cse": true,
                    "constantOptimizer": true
                }
            },
            "outputSelection": {
                "*": {
                    "*": [
                        "abi",
                        "devdoc",
                        "evm.bytecode.object",
                        "evm.bytecode.sourceMap",
                        "evm.deployedBytecode.object",
                        "evm.deployedBytecode.sourceMap"
                    ]
                }
            },
            "evmVersion": "istanbul"
        }
    },
    "chains": {}
}