{
    "schemaVersion": "2.0.0",
    "contractName": "TestFillQuoteTransformerExchange",
    "compilerOutput": {
        "abi": [
            {
                "inputs": [
                    {
                        "components": [
                            {
                                "internalType": "uint256",
                                "name": "filledTakerAssetAmount",
                                "type": "uint256"
                            },
                            {
                                "internalType": "uint256",
                                "name": "makerAssetMintRatio",
                                "type": "uint256"
                            }
                        ],
                        "internalType": "struct TestFillQuoteTransformerExchange.FillBehavior",
                        "name": "behavior",
                        "type": "tuple"
                    }
                ],
                "name": "encodeBehaviorData",
                "outputs": [
                    {
                        "internalType": "bytes",
                        "name": "encoded",
                        "type": "bytes"
                    }
                ],
                "stateMutability": "pure",
                "type": "function"
            },
            {
                "inputs": [
                    {
                        "components": [
                            {
                                "internalType": "address",
                                "name": "makerAddress",
                                "type": "address"
                            },
                            {
                                "internalType": "address",
                                "name": "takerAddress",
                                "type": "address"
                            },
                            {
                                "internalType": "address",
                                "name": "feeRecipientAddress",
                                "type": "address"
                            },
                            {
                                "internalType": "address",
                                "name": "senderAddress",
                                "type": "address"
                            },
                            {
                                "internalType": "uint256",
                                "name": "makerAssetAmount",
                                "type": "uint256"
                            },
                            {
                                "internalType": "uint256",
                                "name": "takerAssetAmount",
                                "type": "uint256"
                            },
                            {
                                "internalType": "uint256",
                                "name": "makerFee",
                                "type": "uint256"
                            },
                            {
                                "internalType": "uint256",
                                "name": "takerFee",
                                "type": "uint256"
                            },
                            {
                                "internalType": "uint256",
                                "name": "expirationTimeSeconds",
                                "type": "uint256"
                            },
                            {
                                "internalType": "uint256",
                                "name": "salt",
                                "type": "uint256"
                            },
                            {
                                "internalType": "bytes",
                                "name": "makerAssetData",
                                "type": "bytes"
                            },
                            {
                                "internalType": "bytes",
                                "name": "takerAssetData",
                                "type": "bytes"
                            },
                            {
                                "internalType": "bytes",
                                "name": "makerFeeAssetData",
                                "type": "bytes"
                            },
                            {
                                "internalType": "bytes",
                                "name": "takerFeeAssetData",
                                "type": "bytes"
                            }
                        ],
                        "internalType": "struct IExchange.Order",
                        "name": "order",
                        "type": "tuple"
                    },
                    {
                        "internalType": "uint256",
                        "name": "takerAssetFillAmount",
                        "type": "uint256"
                    },
                    {
                        "internalType": "bytes",
                        "name": "signature",
                        "type": "bytes"
                    }
                ],
                "name": "fillOrder",
                "outputs": [
                    {
                        "components": [
                            {
                                "internalType": "uint256",
                                "name": "makerAssetFilledAmount",
                                "type": "uint256"
                            },
                            {
                                "internalType": "uint256",
                                "name": "takerAssetFilledAmount",
                                "type": "uint256"
                            },
                            {
                                "internalType": "uint256",
                                "name": "makerFeePaid",
                                "type": "uint256"
                            },
                            {
                                "internalType": "uint256",
                                "name": "takerFeePaid",
                                "type": "uint256"
                            },
                            {
                                "internalType": "uint256",
                                "name": "protocolFeePaid",
                                "type": "uint256"
                            }
                        ],
                        "internalType": "struct IExchange.FillResults",
                        "name": "fillResults",
                        "type": "tuple"
                    }
                ],
                "stateMutability": "payable",
                "type": "function"
            },
            {
                "inputs": [
                    {
                        "internalType": "bytes4",
                        "name": "",
                        "type": "bytes4"
                    }
                ],
                "name": "getAssetProxy",
                "outputs": [
                    {
                        "internalType": "address",
                        "name": "",
                        "type": "address"
                    }
                ],
                "stateMutability": "view",
                "type": "function"
            },
            {
                "inputs": [],
                "name": "protocolFeeMultiplier",
                "outputs": [
                    {
                        "internalType": "uint256",
                        "name": "",
                        "type": "uint256"
                    }
                ],
                "stateMutability": "pure",
                "type": "function"
            }
        ],
        "devdoc": {
            "kind": "dev",
            "methods": {},
            "version": 1
        },
        "evm": {
            "bytecode": {
                "linkReferences": {},
                "object": "0x608060405234801561001057600080fd5b50610dd1806100206000396000f3fe60806040526004361061003f5760003560e01c80631ce4c78b1461004457806348d8ce2e1461006f578063607041081461009c5780639b44d556146100c9575b600080fd5b34801561005057600080fd5b506100596100e9565b6040516100669190610d26565b60405180910390f35b34801561007b57600080fd5b5061008f61008a36600461090a565b6100ef565b6040516100669190610ac0565b3480156100a857600080fd5b506100bc6100b73660046108ca565b610118565b6040516100669190610a21565b6100dc6100d736600461096b565b61011d565b6040516100669190610cec565b61053990565b6060816040516020016101029190610cd5565b6040516020818303038152906040529050919050565b503090565b61012561082d565b81610165576040517f08c379a000000000000000000000000000000000000000000000000000000000815260040161015c90610bbe565b60405180910390fd5b61016d61085c565b61017983850185610921565b90506105393a023481146101b9576040517f08c379a000000000000000000000000000000000000000000000000000000000815260040161015c90610b61565b60405133903483900380156108fc02916000818181858888f193505050501580156101e8573d6000803e3d6000fd5b5060006102366101fc6101608a018a610d2f565b8080601f01602080910402602001604051908101604052809392919081815260200183838082843760009201919091525061064d92505050565b835190915061025a906102549060a08b01359063ffffffff61066016565b88610684565b9650868173ffffffffffffffffffffffffffffffffffffffff16632724ed4b33306040518363ffffffff1660e01b8152600401610298929190610a42565b60206040518083038186803b1580156102b057600080fd5b505afa1580156102c4573d6000803e3d6000fd5b505050506040513d601f19601f820116820180604052508101906102e89190610a09565b1015610320576040517f08c379a000000000000000000000000000000000000000000000000000000000815260040161015c90610c78565b73ffffffffffffffffffffffffffffffffffffffff81166323b872dd3361034a60208c018c610876565b8a6040518463ffffffff1660e01b815260040161036993929190610a69565b602060405180830381600087803b15801561038357600080fd5b505af1158015610397573d6000803e3d6000fd5b505050506040513d601f19601f820116820180604052508101906103bb91906108aa565b5060006103d1888a60a001358b6080013561069c565b905060006103e66101fc6101408c018c610d2f565b90508073ffffffffffffffffffffffffffffffffffffffff166340c10f193361041c8860200151670de0b6b3a76400008761069c565b6040518363ffffffff1660e01b8152600401610439929190610a9a565b600060405180830381600087803b15801561045357600080fd5b505af1158015610467573d6000803e3d6000fd5b5050505060006104818b806101a001906101fc9190610d2f565b905060006104988b8d60a001358e60e0013561069c565b9050808273ffffffffffffffffffffffffffffffffffffffff16632724ed4b33306040518363ffffffff1660e01b81526004016104d6929190610a42565b60206040518083038186803b1580156104ee57600080fd5b505afa158015610502573d6000803e3d6000fd5b505050506040513d601f19601f820116820180604052508101906105269190610a09565b101561055e576040517f08c379a000000000000000000000000000000000000000000000000000000000815260040161015c90610c1b565b8173ffffffffffffffffffffffffffffffffffffffff166323b872dd338e604001602081019061058e9190610876565b846040518463ffffffff1660e01b81526004016105ad93929190610a69565b602060405180830381600087803b1580156105c757600080fd5b505af11580156105db573d6000803e3d6000fd5b505050506040513d601f19601f820116820180604052508101906105ff91906108aa565b5092875250506020850197909752507fffffffffffffffffffffffffffffffffffffffffffffffffffffffffffffffff60408401526060830195909552506080810193909352509092915050565b600061065a8260106106c6565b92915050565b60008282111561067e5761067e61067960028585610706565b6107ab565b50900390565b60008183106106935781610695565b825b9392505050565b60006106be836106b2868563ffffffff6107b316565b9063ffffffff6107e416565b949350505050565b600081601401835110156106e7576106e7610679600485518560140161080e565b50016014015173ffffffffffffffffffffffffffffffffffffffff1690565b606063e946c1bb60e01b84848460405160240161072593929190610b31565b604080517fffffffffffffffffffffffffffffffffffffffffffffffffffffffffffffffe08184030181529190526020810180517bffffffffffffffffffffffffffffffffffffffffffffffffffffffff167fffffffff000000000000000000000000000000000000000000000000000000009093169290921790915290509392505050565b805160208201fd5b6000826107c25750600061065a565b828202828482816107cf57fe5b04146106955761069561067960018686610706565b6000816107fa576107fa61067960038585610706565b600082848161080557fe5b04949350505050565b6060632800659560e01b84848460405160240161072593929190610b53565b6040518060a0016040528060008152602001600081526020016000815260200160008152602001600081525090565b604051806040016040528060008152602001600081525090565b600060208284031215610887578081fd5b813573ffffffffffffffffffffffffffffffffffffffff81168114610695578182fd5b6000602082840312156108bb578081fd5b81518015158114610695578182fd5b6000602082840312156108db578081fd5b81357fffffffff0000000000000000000000000000000000000000000000000000000081168114610695578182fd5b60006040828403121561091b578081fd5b50919050565b600060408284031215610932578081fd5b6040516040810181811067ffffffffffffffff82111715610951578283fd5b604052823581526020928301359281019290925250919050565b60008060008060608587031215610980578283fd5b843567ffffffffffffffff80821115610997578485fd5b8187016101c0818a0312156109aa578586fd5b95506020870135945060408701359150808211156109c6578384fd5b81870188601f8201126109d7578485fd5b80359250818311156109e7578485fd5b8860208483010111156109f8578485fd5b959894975050602090940194505050565b600060208284031215610a1a578081fd5b5051919050565b73ffffffffffffffffffffffffffffffffffffffff91909116815260200190565b73ffffffffffffffffffffffffffffffffffffffff92831681529116602082015260400190565b73ffffffffffffffffffffffffffffffffffffffff9384168152919092166020820152604081019190915260600190565b73ffffffffffffffffffffffffffffffffffffffff929092168252602082015260400190565b6000602080835283518082850152825b81811015610aec57858101830151858201604001528201610ad0565b81811115610afd5783604083870101525b50601f017fffffffffffffffffffffffffffffffffffffffffffffffffffffffffffffffe016929092016040019392505050565b6060810160048510610b3f57fe5b938152602081019290925260409091015290565b6060810160088510610b3f57fe5b6020808252603a908201527f5465737446696c6c51756f74655472616e73666f726d657245786368616e676560408201527f2f494e53554646494349454e545f50524f544f434f4c5f464545000000000000606082015260800190565b60208082526032908201527f5465737446696c6c51756f74655472616e73666f726d657245786368616e676560408201527f2f494e56414c49445f5349474e41545552450000000000000000000000000000606082015260800190565b6020808252603d908201527f5465737446696c6c51756f74655472616e73666f726d657245786368616e676560408201527f2f494e53554646494349454e545f54414b45525f4645455f46554e4453000000606082015260800190565b60208082526039908201527f5465737446696c6c51756f74655472616e73666f726d657245786368616e676560408201527f2f494e53554646494349454e545f54414b45525f46554e445300000000000000606082015260800190565b813581526020918201359181019190915260400190565b600060a082019050825182526020830151602083015260408301516040830152606083015160608301526080830151608083015292915050565b90815260200190565b60008083357fffffffffffffffffffffffffffffffffffffffffffffffffffffffffffffffe1843603018112610d63578283fd5b8084018035925067ffffffffffffffff831115610d7e578384fd5b60200192505036819003821315610d9457600080fd5b925092905056fea264697066735822122028416588437470c09d95d30e61dfe4278db30a328592fcb28aa981565673851464736f6c634300060b0033",
                "opcodes": "PUSH1 0x80 PUSH1 0x40 MSTORE CALLVALUE DUP1 ISZERO PUSH2 0x10 JUMPI PUSH1 0x0 DUP1 REVERT JUMPDEST POP PUSH2 0xDD1 DUP1 PUSH2 0x20 PUSH1 0x0 CODECOPY PUSH1 0x0 RETURN INVALID PUSH1 0x80 PUSH1 0x40 MSTORE PUSH1 0x4 CALLDATASIZE LT PUSH2 0x3F JUMPI PUSH1 0x0 CALLDATALOAD PUSH1 0xE0 SHR DUP1 PUSH4 0x1CE4C78B EQ PUSH2 0x44 JUMPI DUP1 PUSH4 0x48D8CE2E EQ PUSH2 0x6F JUMPI DUP1 PUSH4 0x60704108 EQ PUSH2 0x9C JUMPI DUP1 PUSH4 0x9B44D556 EQ PUSH2 0xC9 JUMPI JUMPDEST PUSH1 0x0 DUP1 REVERT JUMPDEST CALLVALUE DUP1 ISZERO PUSH2 0x50 JUMPI PUSH1 0x0 DUP1 REVERT JUMPDEST POP PUSH2 0x59 PUSH2 0xE9 JUMP JUMPDEST PUSH1 0x40 MLOAD PUSH2 0x66 SWAP2 SWAP1 PUSH2 0xD26 JUMP JUMPDEST PUSH1 0x40 MLOAD DUP1 SWAP2 SUB SWAP1 RETURN JUMPDEST CALLVALUE DUP1 ISZERO PUSH2 0x7B JUMPI PUSH1 0x0 DUP1 REVERT JUMPDEST POP PUSH2 0x8F PUSH2 0x8A CALLDATASIZE PUSH1 0x4 PUSH2 0x90A JUMP JUMPDEST PUSH2 0xEF JUMP JUMPDEST PUSH1 0x40 MLOAD PUSH2 0x66 SWAP2 SWAP1 PUSH2 0xAC0 JUMP JUMPDEST CALLVALUE DUP1 ISZERO PUSH2 0xA8 JUMPI PUSH1 0x0 DUP1 REVERT JUMPDEST POP PUSH2 0xBC PUSH2 0xB7 CALLDATASIZE PUSH1 0x4 PUSH2 0x8CA JUMP JUMPDEST PUSH2 0x118 JUMP JUMPDEST PUSH1 0x40 MLOAD PUSH2 0x66 SWAP2 SWAP1 PUSH2 0xA21 JUMP JUMPDEST PUSH2 0xDC PUSH2 0xD7 CALLDATASIZE PUSH1 0x4 PUSH2 0x96B JUMP JUMPDEST PUSH2 0x11D JUMP JUMPDEST PUSH1 0x40 MLOAD PUSH2 0x66 SWAP2 SWAP1 PUSH2 0xCEC JUMP JUMPDEST PUSH2 0x539 SWAP1 JUMP JUMPDEST PUSH1 0x60 DUP2 PUSH1 0x40 MLOAD PUSH1 0x20 ADD PUSH2 0x102 SWAP2 SWAP1 PUSH2 0xCD5 JUMP JUMPDEST PUSH1 0x40 MLOAD PUSH1 0x20 DUP2 DUP4 SUB SUB DUP2 MSTORE SWAP1 PUSH1 0x40 MSTORE SWAP1 POP SWAP2 SWAP1 POP JUMP JUMPDEST POP ADDRESS SWAP1 JUMP JUMPDEST PUSH2 0x125 PUSH2 0x82D JUMP JUMPDEST DUP2 PUSH2 0x165 JUMPI PUSH1 0x40 MLOAD PUSH32 0x8C379A000000000000000000000000000000000000000000000000000000000 DUP2 MSTORE PUSH1 0x4 ADD PUSH2 0x15C SWAP1 PUSH2 0xBBE JUMP JUMPDEST PUSH1 0x40 MLOAD DUP1 SWAP2 SUB SWAP1 REVERT JUMPDEST PUSH2 0x16D PUSH2 0x85C JUMP JUMPDEST PUSH2 0x179 DUP4 DUP6 ADD DUP6 PUSH2 0x921 JUMP JUMPDEST SWAP1 POP PUSH2 0x539 GASPRICE MUL CALLVALUE DUP2 EQ PUSH2 0x1B9 JUMPI PUSH1 0x40 MLOAD PUSH32 0x8C379A000000000000000000000000000000000000000000000000000000000 DUP2 MSTORE PUSH1 0x4 ADD PUSH2 0x15C SWAP1 PUSH2 0xB61 JUMP JUMPDEST PUSH1 0x40 MLOAD CALLER SWAP1 CALLVALUE DUP4 SWAP1 SUB DUP1 ISZERO PUSH2 0x8FC MUL SWAP2 PUSH1 0x0 DUP2 DUP2 DUP2 DUP6 DUP9 DUP9 CALL SWAP4 POP POP POP POP ISZERO DUP1 ISZERO PUSH2 0x1E8 JUMPI RETURNDATASIZE PUSH1 0x0 DUP1 RETURNDATACOPY RETURNDATASIZE PUSH1 0x0 REVERT JUMPDEST POP PUSH1 0x0 PUSH2 0x236 PUSH2 0x1FC PUSH2 0x160 DUP11 ADD DUP11 PUSH2 0xD2F JUMP JUMPDEST DUP1 DUP1 PUSH1 0x1F ADD PUSH1 0x20 DUP1 SWAP2 DIV MUL PUSH1 0x20 ADD PUSH1 0x40 MLOAD SWAP1 DUP2 ADD PUSH1 0x40 MSTORE DUP1 SWAP4 SWAP3 SWAP2 SWAP1 DUP2 DUP2 MSTORE PUSH1 0x20 ADD DUP4 DUP4 DUP1 DUP3 DUP5 CALLDATACOPY PUSH1 0x0 SWAP3 ADD SWAP2 SWAP1 SWAP2 MSTORE POP PUSH2 0x64D SWAP3 POP POP POP JUMP JUMPDEST DUP4 MLOAD SWAP1 SWAP2 POP PUSH2 0x25A SWAP1 PUSH2 0x254 SWAP1 PUSH1 0xA0 DUP12 ADD CALLDATALOAD SWAP1 PUSH4 0xFFFFFFFF PUSH2 0x660 AND JUMP JUMPDEST DUP9 PUSH2 0x684 JUMP JUMPDEST SWAP7 POP DUP7 DUP2 PUSH20 0xFFFFFFFFFFFFFFFFFFFFFFFFFFFFFFFFFFFFFFFF AND PUSH4 0x2724ED4B CALLER ADDRESS PUSH1 0x40 MLOAD DUP4 PUSH4 0xFFFFFFFF AND PUSH1 0xE0 SHL DUP2 MSTORE PUSH1 0x4 ADD PUSH2 0x298 SWAP3 SWAP2 SWAP1 PUSH2 0xA42 JUMP JUMPDEST PUSH1 0x20 PUSH1 0x40 MLOAD DUP1 DUP4 SUB DUP2 DUP7 DUP1 EXTCODESIZE ISZERO DUP1 ISZERO PUSH2 0x2B0 JUMPI PUSH1 0x0 DUP1 REVERT JUMPDEST POP GAS STATICCALL ISZERO DUP1 ISZERO PUSH2 0x2C4 JUMPI RETURNDATASIZE PUSH1 0x0 DUP1 RETURNDATACOPY RETURNDATASIZE PUSH1 0x0 REVERT JUMPDEST POP POP POP POP PUSH1 0x40 MLOAD RETURNDATASIZE PUSH1 0x1F NOT PUSH1 0x1F DUP3 ADD AND DUP3 ADD DUP1 PUSH1 0x40 MSTORE POP DUP2 ADD SWAP1 PUSH2 0x2E8 SWAP2 SWAP1 PUSH2 0xA09 JUMP JUMPDEST LT ISZERO PUSH2 0x320 JUMPI PUSH1 0x40 MLOAD PUSH32 0x8C379A000000000000000000000000000000000000000000000000000000000 DUP2 MSTORE PUSH1 0x4 ADD PUSH2 0x15C SWAP1 PUSH2 0xC78 JUMP JUMPDEST PUSH20 0xFFFFFFFFFFFFFFFFFFFFFFFFFFFFFFFFFFFFFFFF DUP2 AND PUSH4 0x23B872DD CALLER PUSH2 0x34A PUSH1 0x20 DUP13 ADD DUP13 PUSH2 0x876 JUMP JUMPDEST DUP11 PUSH1 0x40 MLOAD DUP5 PUSH4 0xFFFFFFFF AND PUSH1 0xE0 SHL DUP2 MSTORE PUSH1 0x4 ADD PUSH2 0x369 SWAP4 SWAP3 SWAP2 SWAP1 PUSH2 0xA69 JUMP JUMPDEST PUSH1 0x20 PUSH1 0x40 MLOAD DUP1 DUP4 SUB DUP2 PUSH1 0x0 DUP8 DUP1 EXTCODESIZE ISZERO DUP1 ISZERO PUSH2 0x383 JUMPI PUSH1 0x0 DUP1 REVERT JUMPDEST POP GAS CALL ISZERO DUP1 ISZERO PUSH2 0x397 JUMPI RETURNDATASIZE PUSH1 0x0 DUP1 RETURNDATACOPY RETURNDATASIZE PUSH1 0x0 REVERT JUMPDEST POP POP POP POP PUSH1 0x40 MLOAD RETURNDATASIZE PUSH1 0x1F NOT PUSH1 0x1F DUP3 ADD AND DUP3 ADD DUP1 PUSH1 0x40 MSTORE POP DUP2 ADD SWAP1 PUSH2 0x3BB SWAP2 SWAP1 PUSH2 0x8AA JUMP JUMPDEST POP PUSH1 0x0 PUSH2 0x3D1 DUP9 DUP11 PUSH1 0xA0 ADD CALLDATALOAD DUP12 PUSH1 0x80 ADD CALLDATALOAD PUSH2 0x69C JUMP JUMPDEST SWAP1 POP PUSH1 0x0 PUSH2 0x3E6 PUSH2 0x1FC PUSH2 0x140 DUP13 ADD DUP13 PUSH2 0xD2F JUMP JUMPDEST SWAP1 POP DUP1 PUSH20 0xFFFFFFFFFFFFFFFFFFFFFFFFFFFFFFFFFFFFFFFF AND PUSH4 0x40C10F19 CALLER PUSH2 0x41C DUP9 PUSH1 0x20 ADD MLOAD PUSH8 0xDE0B6B3A7640000 DUP8 PUSH2 0x69C JUMP JUMPDEST PUSH1 0x40 MLOAD DUP4 PUSH4 0xFFFFFFFF AND PUSH1 0xE0 SHL DUP2 MSTORE PUSH1 0x4 ADD PUSH2 0x439 SWAP3 SWAP2 SWAP1 PUSH2 0xA9A JUMP JUMPDEST PUSH1 0x0 PUSH1 0x40 MLOAD DUP1 DUP4 SUB DUP2 PUSH1 0x0 DUP8 DUP1 EXTCODESIZE ISZERO DUP1 ISZERO PUSH2 0x453 JUMPI PUSH1 0x0 DUP1 REVERT JUMPDEST POP GAS CALL ISZERO DUP1 ISZERO PUSH2 0x467 JUMPI RETURNDATASIZE PUSH1 0x0 DUP1 RETURNDATACOPY RETURNDATASIZE PUSH1 0x0 REVERT JUMPDEST POP POP POP POP PUSH1 0x0 PUSH2 0x481 DUP12 DUP1 PUSH2 0x1A0 ADD SWAP1 PUSH2 0x1FC SWAP2 SWAP1 PUSH2 0xD2F JUMP JUMPDEST SWAP1 POP PUSH1 0x0 PUSH2 0x498 DUP12 DUP14 PUSH1 0xA0 ADD CALLDATALOAD DUP15 PUSH1 0xE0 ADD CALLDATALOAD PUSH2 0x69C JUMP JUMPDEST SWAP1 POP DUP1 DUP3 PUSH20 0xFFFFFFFFFFFFFFFFFFFFFFFFFFFFFFFFFFFFFFFF AND PUSH4 0x2724ED4B CALLER ADDRESS PUSH1 0x40 MLOAD DUP4 PUSH4 0xFFFFFFFF AND PUSH1 0xE0 SHL DUP2 MSTORE PUSH1 0x4 ADD PUSH2 0x4D6 SWAP3 SWAP2 SWAP1 PUSH2 0xA42 JUMP JUMPDEST PUSH1 0x20 PUSH1 0x40 MLOAD DUP1 DUP4 SUB DUP2 DUP7 DUP1 EXTCODESIZE ISZERO DUP1 ISZERO PUSH2 0x4EE JUMPI PUSH1 0x0 DUP1 REVERT JUMPDEST POP GAS STATICCALL ISZERO DUP1 ISZERO PUSH2 0x502 JUMPI RETURNDATASIZE PUSH1 0x0 DUP1 RETURNDATACOPY RETURNDATASIZE PUSH1 0x0 REVERT JUMPDEST POP POP POP POP PUSH1 0x40 MLOAD RETURNDATASIZE PUSH1 0x1F NOT PUSH1 0x1F DUP3 ADD AND DUP3 ADD DUP1 PUSH1 0x40 MSTORE POP DUP2 ADD SWAP1 PUSH2 0x526 SWAP2 SWAP1 PUSH2 0xA09 JUMP JUMPDEST LT ISZERO PUSH2 0x55E JUMPI PUSH1 0x40 MLOAD PUSH32 0x8C379A000000000000000000000000000000000000000000000000000000000 DUP2 MSTORE PUSH1 0x4 ADD PUSH2 0x15C SWAP1 PUSH2 0xC1B JUMP JUMPDEST DUP2 PUSH20 0xFFFFFFFFFFFFFFFFFFFFFFFFFFFFFFFFFFFFFFFF AND PUSH4 0x23B872DD CALLER DUP15 PUSH1 0x40 ADD PUSH1 0x20 DUP2 ADD SWAP1 PUSH2 0x58E SWAP2 SWAP1 PUSH2 0x876 JUMP JUMPDEST DUP5 PUSH1 0x40 MLOAD DUP5 PUSH4 0xFFFFFFFF AND PUSH1 0xE0 SHL DUP2 MSTORE PUSH1 0x4 ADD PUSH2 0x5AD SWAP4 SWAP3 SWAP2 SWAP1 PUSH2 0xA69 JUMP JUMPDEST PUSH1 0x20 PUSH1 0x40 MLOAD DUP1 DUP4 SUB DUP2 PUSH1 0x0 DUP8 DUP1 EXTCODESIZE ISZERO DUP1 ISZERO PUSH2 0x5C7 JUMPI PUSH1 0x0 DUP1 REVERT JUMPDEST POP GAS CALL ISZERO DUP1 ISZERO PUSH2 0x5DB JUMPI RETURNDATASIZE PUSH1 0x0 DUP1 RETURNDATACOPY RETURNDATASIZE PUSH1 0x0 REVERT JUMPDEST POP POP POP POP PUSH1 0x40 MLOAD RETURNDATASIZE PUSH1 0x1F NOT PUSH1 0x1F DUP3 ADD AND DUP3 ADD DUP1 PUSH1 0x40 MSTORE POP DUP2 ADD SWAP1 PUSH2 0x5FF SWAP2 SWAP1 PUSH2 0x8AA JUMP JUMPDEST POP SWAP3 DUP8 MSTORE POP POP PUSH1 0x20 DUP6 ADD SWAP8 SWAP1 SWAP8 MSTORE POP PUSH32 0xFFFFFFFFFFFFFFFFFFFFFFFFFFFFFFFFFFFFFFFFFFFFFFFFFFFFFFFFFFFFFFFF PUSH1 0x40 DUP5 ADD MSTORE PUSH1 0x60 DUP4 ADD SWAP6 SWAP1 SWAP6 MSTORE POP PUSH1 0x80 DUP2 ADD SWAP4 SWAP1 SWAP4 MSTORE POP SWAP1 SWAP3 SWAP2 POP POP JUMP JUMPDEST PUSH1 0x0 PUSH2 0x65A DUP3 PUSH1 0x10 PUSH2 0x6C6 JUMP JUMPDEST SWAP3 SWAP2 POP POP JUMP JUMPDEST PUSH1 0x0 DUP3 DUP3 GT ISZERO PUSH2 0x67E JUMPI PUSH2 0x67E PUSH2 0x679 PUSH1 0x2 DUP6 DUP6 PUSH2 0x706 JUMP JUMPDEST PUSH2 0x7AB JUMP JUMPDEST POP SWAP1 SUB SWAP1 JUMP JUMPDEST PUSH1 0x0 DUP2 DUP4 LT PUSH2 0x693 JUMPI DUP2 PUSH2 0x695 JUMP JUMPDEST DUP3 JUMPDEST SWAP4 SWAP3 POP POP POP JUMP JUMPDEST PUSH1 0x0 PUSH2 0x6BE DUP4 PUSH2 0x6B2 DUP7 DUP6 PUSH4 0xFFFFFFFF PUSH2 0x7B3 AND JUMP JUMPDEST SWAP1 PUSH4 0xFFFFFFFF PUSH2 0x7E4 AND JUMP JUMPDEST SWAP5 SWAP4 POP POP POP POP JUMP JUMPDEST PUSH1 0x0 DUP2 PUSH1 0x14 ADD DUP4 MLOAD LT ISZERO PUSH2 0x6E7 JUMPI PUSH2 0x6E7 PUSH2 0x679 PUSH1 0x4 DUP6 MLOAD DUP6 PUSH1 0x14 ADD PUSH2 0x80E JUMP JUMPDEST POP ADD PUSH1 0x14 ADD MLOAD PUSH20 0xFFFFFFFFFFFFFFFFFFFFFFFFFFFFFFFFFFFFFFFF AND SWAP1 JUMP JUMPDEST PUSH1 0x60 PUSH4 0xE946C1BB PUSH1 0xE0 SHL DUP5 DUP5 DUP5 PUSH1 0x40 MLOAD PUSH1 0x24 ADD PUSH2 0x725 SWAP4 SWAP3 SWAP2 SWAP1 PUSH2 0xB31 JUMP JUMPDEST PUSH1 0x40 DUP1 MLOAD PUSH32 0xFFFFFFFFFFFFFFFFFFFFFFFFFFFFFFFFFFFFFFFFFFFFFFFFFFFFFFFFFFFFFFE0 DUP2 DUP5 SUB ADD DUP2 MSTORE SWAP2 SWAP1 MSTORE PUSH1 0x20 DUP2 ADD DUP1 MLOAD PUSH28 0xFFFFFFFFFFFFFFFFFFFFFFFFFFFFFFFFFFFFFFFFFFFFFFFFFFFFFFFF AND PUSH32 0xFFFFFFFF00000000000000000000000000000000000000000000000000000000 SWAP1 SWAP4 AND SWAP3 SWAP1 SWAP3 OR SWAP1 SWAP2 MSTORE SWAP1 POP SWAP4 SWAP3 POP POP POP JUMP JUMPDEST DUP1 MLOAD PUSH1 0x20 DUP3 ADD REVERT JUMPDEST PUSH1 0x0 DUP3 PUSH2 0x7C2 JUMPI POP PUSH1 0x0 PUSH2 0x65A JUMP JUMPDEST DUP3 DUP3 MUL DUP3 DUP5 DUP3 DUP2 PUSH2 0x7CF JUMPI INVALID JUMPDEST DIV EQ PUSH2 0x695 JUMPI PUSH2 0x695 PUSH2 0x679 PUSH1 0x1 DUP7 DUP7 PUSH2 0x706 JUMP JUMPDEST PUSH1 0x0 DUP2 PUSH2 0x7FA JUMPI PUSH2 0x7FA PUSH2 0x679 PUSH1 0x3 DUP6 DUP6 PUSH2 0x706 JUMP JUMPDEST PUSH1 0x0 DUP3 DUP5 DUP2 PUSH2 0x805 JUMPI INVALID JUMPDEST DIV SWAP5 SWAP4 POP POP POP POP JUMP JUMPDEST PUSH1 0x60 PUSH4 0x28006595 PUSH1 0xE0 SHL DUP5 DUP5 DUP5 PUSH1 0x40 MLOAD PUSH1 0x24 ADD PUSH2 0x725 SWAP4 SWAP3 SWAP2 SWAP1 PUSH2 0xB53 JUMP JUMPDEST PUSH1 0x40 MLOAD DUP1 PUSH1 0xA0 ADD PUSH1 0x40 MSTORE DUP1 PUSH1 0x0 DUP2 MSTORE PUSH1 0x20 ADD PUSH1 0x0 DUP2 MSTORE PUSH1 0x20 ADD PUSH1 0x0 DUP2 MSTORE PUSH1 0x20 ADD PUSH1 0x0 DUP2 MSTORE PUSH1 0x20 ADD PUSH1 0x0 DUP2 MSTORE POP SWAP1 JUMP JUMPDEST PUSH1 0x40 MLOAD DUP1 PUSH1 0x40 ADD PUSH1 0x40 MSTORE DUP1 PUSH1 0x0 DUP2 MSTORE PUSH1 0x20 ADD PUSH1 0x0 DUP2 MSTORE POP SWAP1 JUMP JUMPDEST PUSH1 0x0 PUSH1 0x20 DUP3 DUP5 SUB SLT ISZERO PUSH2 0x887 JUMPI DUP1 DUP2 REVERT JUMPDEST DUP2 CALLDATALOAD PUSH20 0xFFFFFFFFFFFFFFFFFFFFFFFFFFFFFFFFFFFFFFFF DUP2 AND DUP2 EQ PUSH2 0x695 JUMPI DUP2 DUP3 REVERT JUMPDEST PUSH1 0x0 PUSH1 0x20 DUP3 DUP5 SUB SLT ISZERO PUSH2 0x8BB JUMPI DUP1 DUP2 REVERT JUMPDEST DUP2 MLOAD DUP1 ISZERO ISZERO DUP2 EQ PUSH2 0x695 JUMPI DUP2 DUP3 REVERT JUMPDEST PUSH1 0x0 PUSH1 0x20 DUP3 DUP5 SUB SLT ISZERO PUSH2 0x8DB JUMPI DUP1 DUP2 REVERT JUMPDEST DUP2 CALLDATALOAD PUSH32 0xFFFFFFFF00000000000000000000000000000000000000000000000000000000 DUP2 AND DUP2 EQ PUSH2 0x695 JUMPI DUP2 DUP3 REVERT JUMPDEST PUSH1 0x0 PUSH1 0x40 DUP3 DUP5 SUB SLT ISZERO PUSH2 0x91B JUMPI DUP1 DUP2 REVERT JUMPDEST POP SWAP2 SWAP1 POP JUMP JUMPDEST PUSH1 0x0 PUSH1 0x40 DUP3 DUP5 SUB SLT ISZERO PUSH2 0x932 JUMPI DUP1 DUP2 REVERT JUMPDEST PUSH1 0x40 MLOAD PUSH1 0x40 DUP2 ADD DUP2 DUP2 LT PUSH8 0xFFFFFFFFFFFFFFFF DUP3 GT OR ISZERO PUSH2 0x951 JUMPI DUP3 DUP4 REVERT JUMPDEST PUSH1 0x40 MSTORE DUP3 CALLDATALOAD DUP2 MSTORE PUSH1 0x20 SWAP3 DUP4 ADD CALLDATALOAD SWAP3 DUP2 ADD SWAP3 SWAP1 SWAP3 MSTORE POP SWAP2 SWAP1 POP JUMP JUMPDEST PUSH1 0x0 DUP1 PUSH1 0x0 DUP1 PUSH1 0x60 DUP6 DUP8 SUB SLT ISZERO PUSH2 0x980 JUMPI DUP3 DUP4 REVERT JUMPDEST DUP5 CALLDATALOAD PUSH8 0xFFFFFFFFFFFFFFFF DUP1 DUP3 GT ISZERO PUSH2 0x997 JUMPI DUP5 DUP6 REVERT JUMPDEST DUP2 DUP8 ADD PUSH2 0x1C0 DUP2 DUP11 SUB SLT ISZERO PUSH2 0x9AA JUMPI DUP6 DUP7 REVERT JUMPDEST SWAP6 POP PUSH1 0x20 DUP8 ADD CALLDATALOAD SWAP5 POP PUSH1 0x40 DUP8 ADD CALLDATALOAD SWAP2 POP DUP1 DUP3 GT ISZERO PUSH2 0x9C6 JUMPI DUP4 DUP5 REVERT JUMPDEST DUP2 DUP8 ADD DUP9 PUSH1 0x1F DUP3 ADD SLT PUSH2 0x9D7 JUMPI DUP5 DUP6 REVERT JUMPDEST DUP1 CALLDATALOAD SWAP3 POP DUP2 DUP4 GT ISZERO PUSH2 0x9E7 JUMPI DUP5 DUP6 REVERT JUMPDEST DUP9 PUSH1 0x20 DUP5 DUP4 ADD ADD GT ISZERO PUSH2 0x9F8 JUMPI DUP5 DUP6 REVERT JUMPDEST SWAP6 SWAP9 SWAP5 SWAP8 POP POP PUSH1 0x20 SWAP1 SWAP5 ADD SWAP5 POP POP POP JUMP JUMPDEST PUSH1 0x0 PUSH1 0x20 DUP3 DUP5 SUB SLT ISZERO PUSH2 0xA1A JUMPI DUP1 DUP2 REVERT JUMPDEST POP MLOAD SWAP2 SWAP1 POP JUMP JUMPDEST PUSH20 0xFFFFFFFFFFFFFFFFFFFFFFFFFFFFFFFFFFFFFFFF SWAP2 SWAP1 SWAP2 AND DUP2 MSTORE PUSH1 0x20 ADD SWAP1 JUMP JUMPDEST PUSH20 0xFFFFFFFFFFFFFFFFFFFFFFFFFFFFFFFFFFFFFFFF SWAP3 DUP4 AND DUP2 MSTORE SWAP2 AND PUSH1 0x20 DUP3 ADD MSTORE PUSH1 0x40 ADD SWAP1 JUMP JUMPDEST PUSH20 0xFFFFFFFFFFFFFFFFFFFFFFFFFFFFFFFFFFFFFFFF SWAP4 DUP5 AND DUP2 MSTORE SWAP2 SWAP1 SWAP3 AND PUSH1 0x20 DUP3 ADD MSTORE PUSH1 0x40 DUP2 ADD SWAP2 SWAP1 SWAP2 MSTORE PUSH1 0x60 ADD SWAP1 JUMP JUMPDEST PUSH20 0xFFFFFFFFFFFFFFFFFFFFFFFFFFFFFFFFFFFFFFFF SWAP3 SWAP1 SWAP3 AND DUP3 MSTORE PUSH1 0x20 DUP3 ADD MSTORE PUSH1 0x40 ADD SWAP1 JUMP JUMPDEST PUSH1 0x0 PUSH1 0x20 DUP1 DUP4 MSTORE DUP4 MLOAD DUP1 DUP3 DUP6 ADD MSTORE DUP3 JUMPDEST DUP2 DUP2 LT ISZERO PUSH2 0xAEC JUMPI DUP6 DUP2 ADD DUP4 ADD MLOAD DUP6 DUP3 ADD PUSH1 0x40 ADD MSTORE DUP3 ADD PUSH2 0xAD0 JUMP JUMPDEST DUP2 DUP2 GT ISZERO PUSH2 0xAFD JUMPI DUP4 PUSH1 0x40 DUP4 DUP8 ADD ADD MSTORE JUMPDEST POP PUSH1 0x1F ADD PUSH32 0xFFFFFFFFFFFFFFFFFFFFFFFFFFFFFFFFFFFFFFFFFFFFFFFFFFFFFFFFFFFFFFE0 AND SWAP3 SWAP1 SWAP3 ADD PUSH1 0x40 ADD SWAP4 SWAP3 POP POP POP JUMP JUMPDEST PUSH1 0x60 DUP2 ADD PUSH1 0x4 DUP6 LT PUSH2 0xB3F JUMPI INVALID JUMPDEST SWAP4 DUP2 MSTORE PUSH1 0x20 DUP2 ADD SWAP3 SWAP1 SWAP3 MSTORE PUSH1 0x40 SWAP1 SWAP2 ADD MSTORE SWAP1 JUMP JUMPDEST PUSH1 0x60 DUP2 ADD PUSH1 0x8 DUP6 LT PUSH2 0xB3F JUMPI INVALID JUMPDEST PUSH1 0x20 DUP1 DUP3 MSTORE PUSH1 0x3A SWAP1 DUP3 ADD MSTORE PUSH32 0x5465737446696C6C51756F74655472616E73666F726D657245786368616E6765 PUSH1 0x40 DUP3 ADD MSTORE PUSH32 0x2F494E53554646494349454E545F50524F544F434F4C5F464545000000000000 PUSH1 0x60 DUP3 ADD MSTORE PUSH1 0x80 ADD SWAP1 JUMP JUMPDEST PUSH1 0x20 DUP1 DUP3 MSTORE PUSH1 0x32 SWAP1 DUP3 ADD MSTORE PUSH32 0x5465737446696C6C51756F74655472616E73666F726D657245786368616E6765 PUSH1 0x40 DUP3 ADD MSTORE PUSH32 0x2F494E56414C49445F5349474E41545552450000000000000000000000000000 PUSH1 0x60 DUP3 ADD MSTORE PUSH1 0x80 ADD SWAP1 JUMP JUMPDEST PUSH1 0x20 DUP1 DUP3 MSTORE PUSH1 0x3D SWAP1 DUP3 ADD MSTORE PUSH32 0x5465737446696C6C51756F74655472616E73666F726D657245786368616E6765 PUSH1 0x40 DUP3 ADD MSTORE PUSH32 0x2F494E53554646494349454E545F54414B45525F4645455F46554E4453000000 PUSH1 0x60 DUP3 ADD MSTORE PUSH1 0x80 ADD SWAP1 JUMP JUMPDEST PUSH1 0x20 DUP1 DUP3 MSTORE PUSH1 0x39 SWAP1 DUP3 ADD MSTORE PUSH32 0x5465737446696C6C51756F74655472616E73666F726D657245786368616E6765 PUSH1 0x40 DUP3 ADD MSTORE PUSH32 0x2F494E53554646494349454E545F54414B45525F46554E445300000000000000 PUSH1 0x60 DUP3 ADD MSTORE PUSH1 0x80 ADD SWAP1 JUMP JUMPDEST DUP2 CALLDATALOAD DUP2 MSTORE PUSH1 0x20 SWAP2 DUP3 ADD CALLDATALOAD SWAP2 DUP2 ADD SWAP2 SWAP1 SWAP2 MSTORE PUSH1 0x40 ADD SWAP1 JUMP JUMPDEST PUSH1 0x0 PUSH1 0xA0 DUP3 ADD SWAP1 POP DUP3 MLOAD DUP3 MSTORE PUSH1 0x20 DUP4 ADD MLOAD PUSH1 0x20 DUP4 ADD MSTORE PUSH1 0x40 DUP4 ADD MLOAD PUSH1 0x40 DUP4 ADD MSTORE PUSH1 0x60 DUP4 ADD MLOAD PUSH1 0x60 DUP4 ADD MSTORE PUSH1 0x80 DUP4 ADD MLOAD PUSH1 0x80 DUP4 ADD MSTORE SWAP3 SWAP2 POP POP JUMP JUMPDEST SWAP1 DUP2 MSTORE PUSH1 0x20 ADD SWAP1 JUMP JUMPDEST PUSH1 0x0 DUP1 DUP4 CALLDATALOAD PUSH32 0xFFFFFFFFFFFFFFFFFFFFFFFFFFFFFFFFFFFFFFFFFFFFFFFFFFFFFFFFFFFFFFE1 DUP5 CALLDATASIZE SUB ADD DUP2 SLT PUSH2 0xD63 JUMPI DUP3 DUP4 REVERT JUMPDEST DUP1 DUP5 ADD DUP1 CALLDATALOAD SWAP3 POP PUSH8 0xFFFFFFFFFFFFFFFF DUP4 GT ISZERO PUSH2 0xD7E JUMPI DUP4 DUP5 REVERT JUMPDEST PUSH1 0x20 ADD SWAP3 POP POP CALLDATASIZE DUP2 SWAP1 SUB DUP3 SGT ISZERO PUSH2 0xD94 JUMPI PUSH1 0x0 DUP1 REVERT JUMPDEST SWAP3 POP SWAP3 SWAP1 POP JUMP INVALID LOG2 PUSH5 0x6970667358 0x22 SLT KECCAK256 0x28 COINBASE PUSH6 0x88437470C09D SWAP6 0xD3 0xE PUSH2 0xDFE4 0x27 DUP14 0xB3 EXP ORIGIN DUP6 SWAP3 0xFC 0xB2 DUP11 0xA9 DUP2 JUMP JUMP PUSH20 0x851464736F6C634300060B003300000000000000 "
            }
        }
    },
    "sourceTreeHashHex": "0xdc5771703d9f113e0654789872b4c89091066109666a60dbbd6b2802a87f26f6",
    "compiler": {
        "name": "solc",
        "version": "0.6.11+commit.5ef660b1",
        "settings": {
            "remappings": [
                "@0x/contracts-utils=/Users/jacob/projects/ethdev/0x/workspace-remote/workspace/0x-monorepo/node_modules/@0x/contracts-utils",
                "@0x/contracts-erc20=/Users/jacob/projects/ethdev/0x/workspace-remote/workspace/0x-monorepo/node_modules/@0x/contracts-erc20"
            ],
            "optimizer": {
                "enabled": true,
                "runs": 1000000,
                "details": {
                    "yul": true,
                    "deduplicate": true,
                    "cse": true,
                    "constantOptimizer": true
                }
            },
            "outputSelection": {
                "*": {
                    "*": [
                        "abi",
                        "devdoc",
                        "evm.bytecode.object",
                        "evm.bytecode.sourceMap",
                        "evm.deployedBytecode.object",
                        "evm.deployedBytecode.sourceMap"
                    ]
                }
            },
            "evmVersion": "istanbul"
        }
    },
    "chains": {}
}