{
    "schemaVersion": "2.0.0",
    "contractName": "TestTokenSpenderERC20Token",
    "compilerOutput": {
        "abi": [
            {
                "anonymous": false,
                "inputs": [
                    {
                        "indexed": false,
                        "internalType": "address",
                        "name": "sender",
                        "type": "address"
                    },
                    {
                        "indexed": false,
                        "internalType": "address",
                        "name": "from",
                        "type": "address"
                    },
                    {
                        "indexed": false,
                        "internalType": "address",
                        "name": "to",
                        "type": "address"
                    },
                    {
                        "indexed": false,
                        "internalType": "uint256",
                        "name": "amount",
                        "type": "uint256"
                    }
                ],
                "name": "TransferFromCalled",
                "type": "event"
            },
            {
                "inputs": [
                    {
                        "internalType": "address",
                        "name": "",
                        "type": "address"
                    },
                    {
                        "internalType": "address",
                        "name": "",
                        "type": "address"
                    }
                ],
                "name": "allowance",
                "outputs": [
                    {
                        "internalType": "uint256",
                        "name": "",
                        "type": "uint256"
                    }
                ],
                "stateMutability": "view",
                "type": "function"
            },
            {
                "inputs": [
                    {
                        "internalType": "address",
                        "name": "spender",
                        "type": "address"
                    },
                    {
                        "internalType": "uint256",
                        "name": "amount",
                        "type": "uint256"
                    }
                ],
                "name": "approve",
                "outputs": [
                    {
                        "internalType": "bool",
                        "name": "",
                        "type": "bool"
                    }
                ],
                "stateMutability": "nonpayable",
                "type": "function"
            },
            {
                "inputs": [
                    {
                        "internalType": "address",
                        "name": "",
                        "type": "address"
                    }
                ],
                "name": "balanceOf",
                "outputs": [
                    {
                        "internalType": "uint256",
                        "name": "",
                        "type": "uint256"
                    }
                ],
                "stateMutability": "view",
                "type": "function"
            },
            {
                "inputs": [
                    {
                        "internalType": "address",
                        "name": "owner",
                        "type": "address"
                    },
                    {
                        "internalType": "uint256",
                        "name": "amount",
                        "type": "uint256"
                    }
                ],
                "name": "burn",
                "outputs": [],
                "stateMutability": "nonpayable",
                "type": "function"
            },
            {
                "inputs": [
                    {
                        "internalType": "address",
                        "name": "owner",
                        "type": "address"
                    },
                    {
                        "internalType": "address",
                        "name": "spender",
                        "type": "address"
                    }
                ],
                "name": "getSpendableAmount",
                "outputs": [
                    {
                        "internalType": "uint256",
                        "name": "",
                        "type": "uint256"
                    }
                ],
                "stateMutability": "view",
                "type": "function"
            },
            {
                "inputs": [
                    {
                        "internalType": "address",
                        "name": "owner",
                        "type": "address"
                    },
                    {
                        "internalType": "uint256",
                        "name": "amount",
                        "type": "uint256"
                    }
                ],
                "name": "mint",
                "outputs": [],
                "stateMutability": "nonpayable",
                "type": "function"
            },
            {
                "inputs": [
                    {
                        "internalType": "address",
                        "name": "owner",
                        "type": "address"
                    },
                    {
                        "internalType": "uint256",
                        "name": "balance",
                        "type": "uint256"
                    },
                    {
                        "internalType": "address",
                        "name": "spender",
                        "type": "address"
                    },
                    {
                        "internalType": "uint256",
                        "name": "allowance_",
                        "type": "uint256"
                    }
                ],
                "name": "setBalanceAndAllowanceOf",
                "outputs": [],
                "stateMutability": "nonpayable",
                "type": "function"
            },
            {
                "inputs": [
                    {
                        "internalType": "address",
                        "name": "to",
                        "type": "address"
                    },
                    {
                        "internalType": "uint256",
                        "name": "amount",
                        "type": "uint256"
                    }
                ],
                "name": "transfer",
                "outputs": [
                    {
                        "internalType": "bool",
                        "name": "",
                        "type": "bool"
                    }
                ],
                "stateMutability": "nonpayable",
                "type": "function"
            },
            {
                "inputs": [
                    {
                        "internalType": "address",
                        "name": "from",
                        "type": "address"
                    },
                    {
                        "internalType": "address",
                        "name": "to",
                        "type": "address"
                    },
                    {
                        "internalType": "uint256",
                        "name": "amount",
                        "type": "uint256"
                    }
                ],
                "name": "transferFrom",
                "outputs": [
                    {
                        "internalType": "bool",
                        "name": "",
                        "type": "bool"
                    }
                ],
                "stateMutability": "nonpayable",
                "type": "function"
            }
        ],
        "devdoc": {
            "kind": "dev",
            "methods": {},
            "version": 1
        },
        "evm": {
            "bytecode": {
                "linkReferences": {},
                "object": "0x608060405234801561001057600080fd5b506106c2806100206000396000f3fe608060405234801561001057600080fd5b50600436106100a35760003560e01c806340c10f19116100765780639dc29fac1161005b5780639dc29fac1461013f578063a9059cbb14610152578063dd62ed3e14610165576100a3565b806340c10f191461011957806370a082311461012c576100a3565b8063095ea7b3146100a857806323b872dd146100d15780632724ed4b146100e45780633a73bf2714610104575b600080fd5b6100bb6100b63660046104f3565b610178565b6040516100c89190610599565b60405180910390f35b6100bb6100df3660046104b3565b6101b3565b6100f76100f236600461047f565b610260565b6040516100c8919061065e565b61011761011236600461051d565b610306565b005b6101176101273660046104f3565b610346565b6100f761013a366004610464565b610375565b61011761014d3660046104f3565b610387565b6100bb6101603660046104f3565b610416565b6100f761017336600461047f565b610423565b33600090815260016020818152604080842073ffffffffffffffffffffffffffffffffffffffff871685529091529091208290555b92915050565b60007ff50c935f8b94f9688106353b0b0d3e83df3859504445a159e212dfbf936aa433338585856040516101ea9493929190610562565b60405180910390a16105398214156101fe57005b61053a82141561021057506000610259565b61053b821415610255576040517f08c379a000000000000000000000000000000000000000000000000000000000815260040161024c90610601565b60405180910390fd5b5060015b9392505050565b73ffffffffffffffffffffffffffffffffffffffff808316600081815260016020908152604080832094861683529381528382205492825281905291822054106102dc5773ffffffffffffffffffffffffffffffffffffffff808416600090815260016020908152604080832093861683529290522054610259565b505073ffffffffffffffffffffffffffffffffffffffff1660009081526020819052604090205490565b73ffffffffffffffffffffffffffffffffffffffff9384166000908152602081815260408083209590955560018152848220939095168152919093522055565b73ffffffffffffffffffffffffffffffffffffffff909116600090815260208190526040902080549091019055565b60006020819052908152604090205481565b73ffffffffffffffffffffffffffffffffffffffff82166000908152602081905260409020548111156103e6576040517f08c379a000000000000000000000000000000000000000000000000000000000815260040161024c906105a4565b73ffffffffffffffffffffffffffffffffffffffff90911660009081526020819052604090208054919091039055565b60006102593384846101b3565b600160209081526000928352604080842090915290825290205481565b803573ffffffffffffffffffffffffffffffffffffffff811681146101ad57600080fd5b600060208284031215610475578081fd5b6102598383610440565b60008060408385031215610491578081fd5b61049b8484610440565b91506104aa8460208501610440565b90509250929050565b6000806000606084860312156104c7578081fd5b83356104d281610667565b925060208401356104e281610667565b929592945050506040919091013590565b60008060408385031215610505578182fd5b61050f8484610440565b946020939093013593505050565b60008060008060808587031215610532578081fd5b61053c8686610440565b9350602085013592506105528660408701610440565b9396929550929360600135925050565b73ffffffffffffffffffffffffffffffffffffffff9485168152928416602084015292166040820152606081019190915260800190565b901515815260200190565b60208082526029908201527f546573744d696e7461626c654552433230546f6b656e2f494e5355464649434960408201527f454e545f46554e44530000000000000000000000000000000000000000000000606082015260800190565b60208082526021908201527f54657374546f6b656e5370656e6465724552433230546f6b656e2f526576657260408201527f7400000000000000000000000000000000000000000000000000000000000000606082015260800190565b90815260200190565b73ffffffffffffffffffffffffffffffffffffffff8116811461068957600080fd5b5056fea2646970667358221220e96c2f7a6626f8e5a2e0551be062063b32503d86ea26336b9e544ddf7fe275f464736f6c634300060b0033",
                "opcodes": "PUSH1 0x80 PUSH1 0x40 MSTORE CALLVALUE DUP1 ISZERO PUSH2 0x10 JUMPI PUSH1 0x0 DUP1 REVERT JUMPDEST POP PUSH2 0x6C2 DUP1 PUSH2 0x20 PUSH1 0x0 CODECOPY PUSH1 0x0 RETURN INVALID PUSH1 0x80 PUSH1 0x40 MSTORE CALLVALUE DUP1 ISZERO PUSH2 0x10 JUMPI PUSH1 0x0 DUP1 REVERT JUMPDEST POP PUSH1 0x4 CALLDATASIZE LT PUSH2 0xA3 JUMPI PUSH1 0x0 CALLDATALOAD PUSH1 0xE0 SHR DUP1 PUSH4 0x40C10F19 GT PUSH2 0x76 JUMPI DUP1 PUSH4 0x9DC29FAC GT PUSH2 0x5B JUMPI DUP1 PUSH4 0x9DC29FAC EQ PUSH2 0x13F JUMPI DUP1 PUSH4 0xA9059CBB EQ PUSH2 0x152 JUMPI DUP1 PUSH4 0xDD62ED3E EQ PUSH2 0x165 JUMPI PUSH2 0xA3 JUMP JUMPDEST DUP1 PUSH4 0x40C10F19 EQ PUSH2 0x119 JUMPI DUP1 PUSH4 0x70A08231 EQ PUSH2 0x12C JUMPI PUSH2 0xA3 JUMP JUMPDEST DUP1 PUSH4 0x95EA7B3 EQ PUSH2 0xA8 JUMPI DUP1 PUSH4 0x23B872DD EQ PUSH2 0xD1 JUMPI DUP1 PUSH4 0x2724ED4B EQ PUSH2 0xE4 JUMPI DUP1 PUSH4 0x3A73BF27 EQ PUSH2 0x104 JUMPI JUMPDEST PUSH1 0x0 DUP1 REVERT JUMPDEST PUSH2 0xBB PUSH2 0xB6 CALLDATASIZE PUSH1 0x4 PUSH2 0x4F3 JUMP JUMPDEST PUSH2 0x178 JUMP JUMPDEST PUSH1 0x40 MLOAD PUSH2 0xC8 SWAP2 SWAP1 PUSH2 0x599 JUMP JUMPDEST PUSH1 0x40 MLOAD DUP1 SWAP2 SUB SWAP1 RETURN JUMPDEST PUSH2 0xBB PUSH2 0xDF CALLDATASIZE PUSH1 0x4 PUSH2 0x4B3 JUMP JUMPDEST PUSH2 0x1B3 JUMP JUMPDEST PUSH2 0xF7 PUSH2 0xF2 CALLDATASIZE PUSH1 0x4 PUSH2 0x47F JUMP JUMPDEST PUSH2 0x260 JUMP JUMPDEST PUSH1 0x40 MLOAD PUSH2 0xC8 SWAP2 SWAP1 PUSH2 0x65E JUMP JUMPDEST PUSH2 0x117 PUSH2 0x112 CALLDATASIZE PUSH1 0x4 PUSH2 0x51D JUMP JUMPDEST PUSH2 0x306 JUMP JUMPDEST STOP JUMPDEST PUSH2 0x117 PUSH2 0x127 CALLDATASIZE PUSH1 0x4 PUSH2 0x4F3 JUMP JUMPDEST PUSH2 0x346 JUMP JUMPDEST PUSH2 0xF7 PUSH2 0x13A CALLDATASIZE PUSH1 0x4 PUSH2 0x464 JUMP JUMPDEST PUSH2 0x375 JUMP JUMPDEST PUSH2 0x117 PUSH2 0x14D CALLDATASIZE PUSH1 0x4 PUSH2 0x4F3 JUMP JUMPDEST PUSH2 0x387 JUMP JUMPDEST PUSH2 0xBB PUSH2 0x160 CALLDATASIZE PUSH1 0x4 PUSH2 0x4F3 JUMP JUMPDEST PUSH2 0x416 JUMP JUMPDEST PUSH2 0xF7 PUSH2 0x173 CALLDATASIZE PUSH1 0x4 PUSH2 0x47F JUMP JUMPDEST PUSH2 0x423 JUMP JUMPDEST CALLER PUSH1 0x0 SWAP1 DUP2 MSTORE PUSH1 0x1 PUSH1 0x20 DUP2 DUP2 MSTORE PUSH1 0x40 DUP1 DUP5 KECCAK256 PUSH20 0xFFFFFFFFFFFFFFFFFFFFFFFFFFFFFFFFFFFFFFFF DUP8 AND DUP6 MSTORE SWAP1 SWAP2 MSTORE SWAP1 SWAP2 KECCAK256 DUP3 SWAP1 SSTORE JUMPDEST SWAP3 SWAP2 POP POP JUMP JUMPDEST PUSH1 0x0 PUSH32 0xF50C935F8B94F9688106353B0B0D3E83DF3859504445A159E212DFBF936AA433 CALLER DUP6 DUP6 DUP6 PUSH1 0x40 MLOAD PUSH2 0x1EA SWAP5 SWAP4 SWAP3 SWAP2 SWAP1 PUSH2 0x562 JUMP JUMPDEST PUSH1 0x40 MLOAD DUP1 SWAP2 SUB SWAP1 LOG1 PUSH2 0x539 DUP3 EQ ISZERO PUSH2 0x1FE JUMPI STOP JUMPDEST PUSH2 0x53A DUP3 EQ ISZERO PUSH2 0x210 JUMPI POP PUSH1 0x0 PUSH2 0x259 JUMP JUMPDEST PUSH2 0x53B DUP3 EQ ISZERO PUSH2 0x255 JUMPI PUSH1 0x40 MLOAD PUSH32 0x8C379A000000000000000000000000000000000000000000000000000000000 DUP2 MSTORE PUSH1 0x4 ADD PUSH2 0x24C SWAP1 PUSH2 0x601 JUMP JUMPDEST PUSH1 0x40 MLOAD DUP1 SWAP2 SUB SWAP1 REVERT JUMPDEST POP PUSH1 0x1 JUMPDEST SWAP4 SWAP3 POP POP POP JUMP JUMPDEST PUSH20 0xFFFFFFFFFFFFFFFFFFFFFFFFFFFFFFFFFFFFFFFF DUP1 DUP4 AND PUSH1 0x0 DUP2 DUP2 MSTORE PUSH1 0x1 PUSH1 0x20 SWAP1 DUP2 MSTORE PUSH1 0x40 DUP1 DUP4 KECCAK256 SWAP5 DUP7 AND DUP4 MSTORE SWAP4 DUP2 MSTORE DUP4 DUP3 KECCAK256 SLOAD SWAP3 DUP3 MSTORE DUP2 SWAP1 MSTORE SWAP2 DUP3 KECCAK256 SLOAD LT PUSH2 0x2DC JUMPI PUSH20 0xFFFFFFFFFFFFFFFFFFFFFFFFFFFFFFFFFFFFFFFF DUP1 DUP5 AND PUSH1 0x0 SWAP1 DUP2 MSTORE PUSH1 0x1 PUSH1 0x20 SWAP1 DUP2 MSTORE PUSH1 0x40 DUP1 DUP4 KECCAK256 SWAP4 DUP7 AND DUP4 MSTORE SWAP3 SWAP1 MSTORE KECCAK256 SLOAD PUSH2 0x259 JUMP JUMPDEST POP POP PUSH20 0xFFFFFFFFFFFFFFFFFFFFFFFFFFFFFFFFFFFFFFFF AND PUSH1 0x0 SWAP1 DUP2 MSTORE PUSH1 0x20 DUP2 SWAP1 MSTORE PUSH1 0x40 SWAP1 KECCAK256 SLOAD SWAP1 JUMP JUMPDEST PUSH20 0xFFFFFFFFFFFFFFFFFFFFFFFFFFFFFFFFFFFFFFFF SWAP4 DUP5 AND PUSH1 0x0 SWAP1 DUP2 MSTORE PUSH1 0x20 DUP2 DUP2 MSTORE PUSH1 0x40 DUP1 DUP4 KECCAK256 SWAP6 SWAP1 SWAP6 SSTORE PUSH1 0x1 DUP2 MSTORE DUP5 DUP3 KECCAK256 SWAP4 SWAP1 SWAP6 AND DUP2 MSTORE SWAP2 SWAP1 SWAP4 MSTORE KECCAK256 SSTORE JUMP JUMPDEST PUSH20 0xFFFFFFFFFFFFFFFFFFFFFFFFFFFFFFFFFFFFFFFF SWAP1 SWAP2 AND PUSH1 0x0 SWAP1 DUP2 MSTORE PUSH1 0x20 DUP2 SWAP1 MSTORE PUSH1 0x40 SWAP1 KECCAK256 DUP1 SLOAD SWAP1 SWAP2 ADD SWAP1 SSTORE JUMP JUMPDEST PUSH1 0x0 PUSH1 0x20 DUP2 SWAP1 MSTORE SWAP1 DUP2 MSTORE PUSH1 0x40 SWAP1 KECCAK256 SLOAD DUP2 JUMP JUMPDEST PUSH20 0xFFFFFFFFFFFFFFFFFFFFFFFFFFFFFFFFFFFFFFFF DUP3 AND PUSH1 0x0 SWAP1 DUP2 MSTORE PUSH1 0x20 DUP2 SWAP1 MSTORE PUSH1 0x40 SWAP1 KECCAK256 SLOAD DUP2 GT ISZERO PUSH2 0x3E6 JUMPI PUSH1 0x40 MLOAD PUSH32 0x8C379A000000000000000000000000000000000000000000000000000000000 DUP2 MSTORE PUSH1 0x4 ADD PUSH2 0x24C SWAP1 PUSH2 0x5A4 JUMP JUMPDEST PUSH20 0xFFFFFFFFFFFFFFFFFFFFFFFFFFFFFFFFFFFFFFFF SWAP1 SWAP2 AND PUSH1 0x0 SWAP1 DUP2 MSTORE PUSH1 0x20 DUP2 SWAP1 MSTORE PUSH1 0x40 SWAP1 KECCAK256 DUP1 SLOAD SWAP2 SWAP1 SWAP2 SUB SWAP1 SSTORE JUMP JUMPDEST PUSH1 0x0 PUSH2 0x259 CALLER DUP5 DUP5 PUSH2 0x1B3 JUMP JUMPDEST PUSH1 0x1 PUSH1 0x20 SWAP1 DUP2 MSTORE PUSH1 0x0 SWAP3 DUP4 MSTORE PUSH1 0x40 DUP1 DUP5 KECCAK256 SWAP1 SWAP2 MSTORE SWAP1 DUP3 MSTORE SWAP1 KECCAK256 SLOAD DUP2 JUMP JUMPDEST DUP1 CALLDATALOAD PUSH20 0xFFFFFFFFFFFFFFFFFFFFFFFFFFFFFFFFFFFFFFFF DUP2 AND DUP2 EQ PUSH2 0x1AD JUMPI PUSH1 0x0 DUP1 REVERT JUMPDEST PUSH1 0x0 PUSH1 0x20 DUP3 DUP5 SUB SLT ISZERO PUSH2 0x475 JUMPI DUP1 DUP2 REVERT JUMPDEST PUSH2 0x259 DUP4 DUP4 PUSH2 0x440 JUMP JUMPDEST PUSH1 0x0 DUP1 PUSH1 0x40 DUP4 DUP6 SUB SLT ISZERO PUSH2 0x491 JUMPI DUP1 DUP2 REVERT JUMPDEST PUSH2 0x49B DUP5 DUP5 PUSH2 0x440 JUMP JUMPDEST SWAP2 POP PUSH2 0x4AA DUP5 PUSH1 0x20 DUP6 ADD PUSH2 0x440 JUMP JUMPDEST SWAP1 POP SWAP3 POP SWAP3 SWAP1 POP JUMP JUMPDEST PUSH1 0x0 DUP1 PUSH1 0x0 PUSH1 0x60 DUP5 DUP7 SUB SLT ISZERO PUSH2 0x4C7 JUMPI DUP1 DUP2 REVERT JUMPDEST DUP4 CALLDATALOAD PUSH2 0x4D2 DUP2 PUSH2 0x667 JUMP JUMPDEST SWAP3 POP PUSH1 0x20 DUP5 ADD CALLDATALOAD PUSH2 0x4E2 DUP2 PUSH2 0x667 JUMP JUMPDEST SWAP3 SWAP6 SWAP3 SWAP5 POP POP POP PUSH1 0x40 SWAP2 SWAP1 SWAP2 ADD CALLDATALOAD SWAP1 JUMP JUMPDEST PUSH1 0x0 DUP1 PUSH1 0x40 DUP4 DUP6 SUB SLT ISZERO PUSH2 0x505 JUMPI DUP2 DUP3 REVERT JUMPDEST PUSH2 0x50F DUP5 DUP5 PUSH2 0x440 JUMP JUMPDEST SWAP5 PUSH1 0x20 SWAP4 SWAP1 SWAP4 ADD CALLDATALOAD SWAP4 POP POP POP JUMP JUMPDEST PUSH1 0x0 DUP1 PUSH1 0x0 DUP1 PUSH1 0x80 DUP6 DUP8 SUB SLT ISZERO PUSH2 0x532 JUMPI DUP1 DUP2 REVERT JUMPDEST PUSH2 0x53C DUP7 DUP7 PUSH2 0x440 JUMP JUMPDEST SWAP4 POP PUSH1 0x20 DUP6 ADD CALLDATALOAD SWAP3 POP PUSH2 0x552 DUP7 PUSH1 0x40 DUP8 ADD PUSH2 0x440 JUMP JUMPDEST SWAP4 SWAP7 SWAP3 SWAP6 POP SWAP3 SWAP4 PUSH1 0x60 ADD CALLDATALOAD SWAP3 POP POP JUMP JUMPDEST PUSH20 0xFFFFFFFFFFFFFFFFFFFFFFFFFFFFFFFFFFFFFFFF SWAP5 DUP6 AND DUP2 MSTORE SWAP3 DUP5 AND PUSH1 0x20 DUP5 ADD MSTORE SWAP3 AND PUSH1 0x40 DUP3 ADD MSTORE PUSH1 0x60 DUP2 ADD SWAP2 SWAP1 SWAP2 MSTORE PUSH1 0x80 ADD SWAP1 JUMP JUMPDEST SWAP1 ISZERO ISZERO DUP2 MSTORE PUSH1 0x20 ADD SWAP1 JUMP JUMPDEST PUSH1 0x20 DUP1 DUP3 MSTORE PUSH1 0x29 SWAP1 DUP3 ADD MSTORE PUSH32 0x546573744D696E7461626C654552433230546F6B656E2F494E53554646494349 PUSH1 0x40 DUP3 ADD MSTORE PUSH32 0x454E545F46554E44530000000000000000000000000000000000000000000000 PUSH1 0x60 DUP3 ADD MSTORE PUSH1 0x80 ADD SWAP1 JUMP JUMPDEST PUSH1 0x20 DUP1 DUP3 MSTORE PUSH1 0x21 SWAP1 DUP3 ADD MSTORE PUSH32 0x54657374546F6B656E5370656E6465724552433230546F6B656E2F5265766572 PUSH1 0x40 DUP3 ADD MSTORE PUSH32 0x7400000000000000000000000000000000000000000000000000000000000000 PUSH1 0x60 DUP3 ADD MSTORE PUSH1 0x80 ADD SWAP1 JUMP JUMPDEST SWAP1 DUP2 MSTORE PUSH1 0x20 ADD SWAP1 JUMP JUMPDEST PUSH20 0xFFFFFFFFFFFFFFFFFFFFFFFFFFFFFFFFFFFFFFFF DUP2 AND DUP2 EQ PUSH2 0x689 JUMPI PUSH1 0x0 DUP1 REVERT JUMPDEST POP JUMP INVALID LOG2 PUSH5 0x6970667358 0x22 SLT KECCAK256 0xE9 PUSH13 0x2F7A6626F8E5A2E0551BE06206 EXTCODESIZE ORIGIN POP RETURNDATASIZE DUP7 0xEA 0x26 CALLER PUSH12 0x9E544DDF7FE275F464736F6C PUSH4 0x4300060B STOP CALLER "
            }
        }
    },
    "sourceTreeHashHex": "0x8095a009d67c3168ead25ef20585653a2296db32bcb52efa42bbb2ea7a842a32",
    "compiler": {
        "name": "solc",
        "version": "0.6.11+commit.5ef660b1",
        "settings": {
            "remappings": [
                "@0x/contracts-utils=/Users/jacob/projects/ethdev/0x/workspace-remote/workspace/0x-monorepo/node_modules/@0x/contracts-utils",
                "@0x/contracts-erc20=/Users/jacob/projects/ethdev/0x/workspace-remote/workspace/0x-monorepo/node_modules/@0x/contracts-erc20"
            ],
            "optimizer": {
                "enabled": true,
                "runs": 1000000,
                "details": {
                    "yul": true,
                    "deduplicate": true,
                    "cse": true,
                    "constantOptimizer": true
                }
            },
            "outputSelection": {
                "*": {
                    "*": [
                        "abi",
                        "devdoc",
                        "evm.bytecode.object",
                        "evm.bytecode.sourceMap",
                        "evm.deployedBytecode.object",
                        "evm.deployedBytecode.sourceMap"
                    ]
                }
            },
            "evmVersion": "istanbul"
        }
    },
    "chains": {}
}