{
    "schemaVersion": "2.0.0",
    "contractName": "UniswapFeature",
    "compilerOutput": {
        "abi": [
            {
                "inputs": [
                    {
                        "internalType": "contract IEtherTokenV06",
                        "name": "weth",
                        "type": "address"
                    },
                    {
                        "internalType": "contract IAllowanceTarget",
                        "name": "allowanceTarget",
                        "type": "address"
                    }
                ],
                "stateMutability": "nonpayable",
                "type": "constructor"
            },
            {
                "inputs": [],
                "name": "FEATURE_NAME",
                "outputs": [
                    {
                        "internalType": "string",
                        "name": "",
                        "type": "string"
                    }
                ],
                "stateMutability": "view",
                "type": "function"
            },
            {
                "inputs": [],
                "name": "FEATURE_VERSION",
                "outputs": [
                    {
                        "internalType": "uint256",
                        "name": "",
                        "type": "uint256"
                    }
                ],
                "stateMutability": "view",
                "type": "function"
            },
            {
                "inputs": [],
                "name": "migrate",
                "outputs": [
                    {
                        "internalType": "bytes4",
                        "name": "success",
                        "type": "bytes4"
                    }
                ],
                "stateMutability": "nonpayable",
                "type": "function"
            },
            {
                "inputs": [
                    {
                        "internalType": "contract IERC20TokenV06[]",
                        "name": "tokens",
                        "type": "address[]"
                    },
                    {
                        "internalType": "uint256",
                        "name": "sellAmount",
                        "type": "uint256"
                    },
                    {
                        "internalType": "uint256",
                        "name": "minBuyAmount",
                        "type": "uint256"
                    },
                    {
                        "internalType": "bool",
                        "name": "isSushi",
                        "type": "bool"
                    }
                ],
                "name": "sellToUniswap",
                "outputs": [
                    {
                        "internalType": "uint256",
                        "name": "buyAmount",
                        "type": "uint256"
                    }
                ],
                "stateMutability": "payable",
                "type": "function"
            }
        ],
        "devdoc": {
            "details": "VIP uniswap fill functions.",
            "kind": "dev",
            "methods": {
                "constructor": {
                    "details": "Construct this contract.",
                    "params": {
                        "allowanceTarget": "The AllowanceTarget contract.",
                        "weth": "The WETH contract."
                    }
                },
                "migrate()": {
                    "details": "Initialize and register this feature.      Should be delegatecalled by `Migrate.migrate()`.",
                    "returns": {
                        "success": "`LibMigrate.SUCCESS` on success."
                    }
                },
                "sellToUniswap(address[],uint256,uint256,bool)": {
                    "details": "Efficiently sell directly to uniswap/sushiswap.",
                    "params": {
                        "isSushi": "Use sushiswap if true.",
                        "minBuyAmount": "Minimum amount of `tokens[-1]` to buy.",
                        "sellAmount": "of `tokens[0]` Amount to sell.",
                        "tokens": "Sell path."
                    },
                    "returns": {
                        "buyAmount": "Amount of `tokens[-1]` bought."
                    }
                }
            },
            "stateVariables": {
                "ALLOWANCE_TARGET": {
                    "details": "AllowanceTarget instance."
                },
                "FEATURE_NAME": {
                    "details": "Name of this feature."
                },
                "FEATURE_VERSION": {
                    "details": "Version of this feature."
                },
                "WETH": {
                    "details": "WETH contract."
                }
            },
            "version": 1
        },
        "evm": {
            "bytecode": {
                "linkReferences": {},
                "object": "0x6101006040526100126001600080610064565b60a05234801561002157600080fd5b50604051610b81380380610b8183398101604081905261004091610096565b30606090811b6080526001600160601b031992811b831660c0521b1660e0526100e7565b6bffffffff0000000000000000604084901b1667ffffffff00000000602084901b161763ffffffff8216179392505050565b600080604083850312156100a8578182fd5b82516100b3816100cf565b60208401519092506100c4816100cf565b809150509250929050565b6001600160a01b03811681146100e457600080fd5b50565b60805160601c60a05160c05160601c60e05160601c610a5d610124600039806101f25250806101cd52508060c85250806107af5250610a5d6000f3fe60806040526004361061003f5760003560e01c8063031b905c146100445780636ae4b4f71461006f5780638fd3ab8014610091578063d9627aa4146100b3575b600080fd5b34801561005057600080fd5b506100596100c6565b6040516100669190610a1e565b60405180910390f35b34801561007b57600080fd5b506100846100ea565b6040516100669190610919565b34801561009d57600080fd5b506100a6610123565b60405161006691906108a4565b6100596100c136600461080c565b610173565b7f000000000000000000000000000000000000000000000000000000000000000081565b6040518060400160405280600e81526020017f556e69737761704665617475726500000000000000000000000000000000000081525081565b600061014e7fd9627aa400000000000000000000000000000000000000000000000000000000610779565b507f2c64c5ef0000000000000000000000000000000000000000000000000000000090565b6000600185116101b8576040517f08c379a00000000000000000000000000000000000000000000000000000000081526004016101af9061098a565b60405180910390fd5b506004803560248101610a0052610a208390527f0000000000000000000000000000000000000000000000000000000000000000610a40527f0000000000000000000000000000000000000000000000000000000000000000610a605284917fffffffffffffffffffffffffffffffffffffffffffffffffffffffffffffffff91013501600080805b8381101561054757610252816105ca565b61025e600183016105ca565b9350610269846105ef565b610272826105ef565b10838061028a576102838684610617565b9050600094505b836103d05773eeeeeeeeeeeeeeeeeeeeeeeeeeeeeeeeeeeeeeee83148015610348578b34146102b857600080fd5b610a405193507fd0e30db000000000000000000000000000000000000000000000000000000000610b00526000806004610b008f885af16102fb576102fb61072c565b7fa9059cbb00000000000000000000000000000000000000000000000000000000610b005281610b04528b610b24526000806044610b006000885af16103435761034361072c565b6103ce565b7fbca8c7b500000000000000000000000000000000000000000000000000000000610b005283610b04526040610b24526064610b44527f23b872dd00000000000000000000000000000000000000000000000000000000610b645233610b685281610b88528b610ba85260008060c8610b006000610a60515af16103ce576103ce61072c565b505b7f0902f1ac00000000000000000000000000000000000000000000000000000000610b00526040610c006004610b00845afa61040e5761040e61072c565b8792506000808315801561042d57610c20519250610c0051915061043a565b610c00519250610c205191505b506e01000000000000000000000000000085111561045757600080fd5b6103e585026103e883028101828202049a5050505060009250866001850114600081146104ad5773eeeeeeeeeeeeeeeeeeeeeeeeeeeeeeeeeeeeeeee871480156104a3573094506104a7565b3394505b506104c8565b6104c26104bc600287016105ca565b88610617565b95508593505b507f022c0d9f00000000000000000000000000000000000000000000000000000000610b0052818015610505576000610b045288610b2452610511565b88610b04526000610b24525b5082610b44526080610b64526000610b845260008060a4610b006000855af161053c5761053c61072c565b505050600101610241565b505073eeeeeeeeeeeeeeeeeeeeeeeeeeeeeeeeeeeeeeee8114156105c3577f2e1a7d4d00000000000000000000000000000000000000000000000000000000610b005282610b04526000806024610b006000610a40515af16105ab576105ab61072c565b6000806000610b0086335af16105c3576105c361072c565b5050610736565b610a005173ffffffffffffffffffffffffffffffffffffffff60209290920201351690565b8073eeeeeeeeeeeeeeeeeeeeeeeeeeeeeeeeeeeeeeee8114156106125750610a40515b919050565b6000610622826105ef565b915061062d836105ef565b925082821080156106475783610b145282610b0052610652565b82610b145283610b00525b506028610b0c20610a205180156106b7577fffc0aee478e3658e2610c5f7a4a2e1777ce9e4f2ac0000000000000000000000610b005281610b15527fe18a34eb0e04b04f7a0ac29a6e80748dca96319b42c54d679cb821dca90c6303610b3552610707565b7fff5c69bee701ef814a2b6a3edd4b1652cb9cc5aa6f0000000000000000000000610b005281610b15527f96e8ac4277198ff8b6f785478aa9a39f403cb768dd02cbee326c3e7da348845f610b35525b50506055610b002073ffffffffffffffffffffffffffffffffffffffff169392505050565b3d6000803e3d6000fd5b82811015610770576040517f08c379a00000000000000000000000000000000000000000000000000000000081526004016101af906109e7565b95945050505050565b6040517f6eb224cb0000000000000000000000000000000000000000000000000000000081523090636eb224cb906107d79084907f0000000000000000000000000000000000000000000000000000000000000000906004016108d1565b600060405180830381600087803b1580156107f157600080fd5b505af1158015610805573d6000803e3d6000fd5b5050505050565b600080600080600060808688031215610823578081fd5b853567ffffffffffffffff8082111561083a578283fd5b818801915088601f83011261084d578283fd5b81358181111561085b578384fd5b896020808302850101111561086e578384fd5b6020928301975095505086013592506040860135915060608601358015158114610896578182fd5b809150509295509295909350565b7fffffffff0000000000000000000000000000000000000000000000000000000091909116815260200190565b7fffffffff0000000000000000000000000000000000000000000000000000000092909216825273ffffffffffffffffffffffffffffffffffffffff16602082015260400190565b6000602080835283518082850152825b8181101561094557858101830151858201604001528201610929565b818111156109565783604083870101525b50601f017fffffffffffffffffffffffffffffffffffffffffffffffffffffffffffffffe016929092016040019392505050565b60208082526022908201527f556e6973776170466561747572652f496e76616c6964546f6b656e734c656e6760408201527f7468000000000000000000000000000000000000000000000000000000000000606082015260800190565b6020808252601a908201527f556e6973776170466561747572652f556e646572426f75676874000000000000604082015260600190565b9081526020019056fea26469706673582212202331fb13a3e64cce734b52a5521ba6f690cd9547306a701e14ffb7756c6f998f64736f6c634300060c0033",
                "opcodes": "PUSH2 0x100 PUSH1 0x40 MSTORE PUSH2 0x12 PUSH1 0x1 PUSH1 0x0 DUP1 PUSH2 0x64 JUMP JUMPDEST PUSH1 0xA0 MSTORE CALLVALUE DUP1 ISZERO PUSH2 0x21 JUMPI PUSH1 0x0 DUP1 REVERT JUMPDEST POP PUSH1 0x40 MLOAD PUSH2 0xB81 CODESIZE SUB DUP1 PUSH2 0xB81 DUP4 CODECOPY DUP2 ADD PUSH1 0x40 DUP2 SWAP1 MSTORE PUSH2 0x40 SWAP2 PUSH2 0x96 JUMP JUMPDEST ADDRESS PUSH1 0x60 SWAP1 DUP2 SHL PUSH1 0x80 MSTORE PUSH1 0x1 PUSH1 0x1 PUSH1 0x60 SHL SUB NOT SWAP3 DUP2 SHL DUP4 AND PUSH1 0xC0 MSTORE SHL AND PUSH1 0xE0 MSTORE PUSH2 0xE7 JUMP JUMPDEST PUSH12 0xFFFFFFFF0000000000000000 PUSH1 0x40 DUP5 SWAP1 SHL AND PUSH8 0xFFFFFFFF00000000 PUSH1 0x20 DUP5 SWAP1 SHL AND OR PUSH4 0xFFFFFFFF DUP3 AND OR SWAP4 SWAP3 POP POP POP JUMP JUMPDEST PUSH1 0x0 DUP1 PUSH1 0x40 DUP4 DUP6 SUB SLT ISZERO PUSH2 0xA8 JUMPI DUP2 DUP3 REVERT JUMPDEST DUP3 MLOAD PUSH2 0xB3 DUP2 PUSH2 0xCF JUMP JUMPDEST PUSH1 0x20 DUP5 ADD MLOAD SWAP1 SWAP3 POP PUSH2 0xC4 DUP2 PUSH2 0xCF JUMP JUMPDEST DUP1 SWAP2 POP POP SWAP3 POP SWAP3 SWAP1 POP JUMP JUMPDEST PUSH1 0x1 PUSH1 0x1 PUSH1 0xA0 SHL SUB DUP2 AND DUP2 EQ PUSH2 0xE4 JUMPI PUSH1 0x0 DUP1 REVERT JUMPDEST POP JUMP JUMPDEST PUSH1 0x80 MLOAD PUSH1 0x60 SHR PUSH1 0xA0 MLOAD PUSH1 0xC0 MLOAD PUSH1 0x60 SHR PUSH1 0xE0 MLOAD PUSH1 0x60 SHR PUSH2 0xA5D PUSH2 0x124 PUSH1 0x0 CODECOPY DUP1 PUSH2 0x1F2 MSTORE POP DUP1 PUSH2 0x1CD MSTORE POP DUP1 PUSH1 0xC8 MSTORE POP DUP1 PUSH2 0x7AF MSTORE POP PUSH2 0xA5D PUSH1 0x0 RETURN INVALID PUSH1 0x80 PUSH1 0x40 MSTORE PUSH1 0x4 CALLDATASIZE LT PUSH2 0x3F JUMPI PUSH1 0x0 CALLDATALOAD PUSH1 0xE0 SHR DUP1 PUSH4 0x31B905C EQ PUSH2 0x44 JUMPI DUP1 PUSH4 0x6AE4B4F7 EQ PUSH2 0x6F JUMPI DUP1 PUSH4 0x8FD3AB80 EQ PUSH2 0x91 JUMPI DUP1 PUSH4 0xD9627AA4 EQ PUSH2 0xB3 JUMPI JUMPDEST PUSH1 0x0 DUP1 REVERT JUMPDEST CALLVALUE DUP1 ISZERO PUSH2 0x50 JUMPI PUSH1 0x0 DUP1 REVERT JUMPDEST POP PUSH2 0x59 PUSH2 0xC6 JUMP JUMPDEST PUSH1 0x40 MLOAD PUSH2 0x66 SWAP2 SWAP1 PUSH2 0xA1E JUMP JUMPDEST PUSH1 0x40 MLOAD DUP1 SWAP2 SUB SWAP1 RETURN JUMPDEST CALLVALUE DUP1 ISZERO PUSH2 0x7B JUMPI PUSH1 0x0 DUP1 REVERT JUMPDEST POP PUSH2 0x84 PUSH2 0xEA JUMP JUMPDEST PUSH1 0x40 MLOAD PUSH2 0x66 SWAP2 SWAP1 PUSH2 0x919 JUMP JUMPDEST CALLVALUE DUP1 ISZERO PUSH2 0x9D JUMPI PUSH1 0x0 DUP1 REVERT JUMPDEST POP PUSH2 0xA6 PUSH2 0x123 JUMP JUMPDEST PUSH1 0x40 MLOAD PUSH2 0x66 SWAP2 SWAP1 PUSH2 0x8A4 JUMP JUMPDEST PUSH2 0x59 PUSH2 0xC1 CALLDATASIZE PUSH1 0x4 PUSH2 0x80C JUMP JUMPDEST PUSH2 0x173 JUMP JUMPDEST PUSH32 0x0 DUP2 JUMP JUMPDEST PUSH1 0x40 MLOAD DUP1 PUSH1 0x40 ADD PUSH1 0x40 MSTORE DUP1 PUSH1 0xE DUP2 MSTORE PUSH1 0x20 ADD PUSH32 0x556E697377617046656174757265000000000000000000000000000000000000 DUP2 MSTORE POP DUP2 JUMP JUMPDEST PUSH1 0x0 PUSH2 0x14E PUSH32 0xD9627AA400000000000000000000000000000000000000000000000000000000 PUSH2 0x779 JUMP JUMPDEST POP PUSH32 0x2C64C5EF00000000000000000000000000000000000000000000000000000000 SWAP1 JUMP JUMPDEST PUSH1 0x0 PUSH1 0x1 DUP6 GT PUSH2 0x1B8 JUMPI PUSH1 0x40 MLOAD PUSH32 0x8C379A000000000000000000000000000000000000000000000000000000000 DUP2 MSTORE PUSH1 0x4 ADD PUSH2 0x1AF SWAP1 PUSH2 0x98A JUMP JUMPDEST PUSH1 0x40 MLOAD DUP1 SWAP2 SUB SWAP1 REVERT JUMPDEST POP PUSH1 0x4 DUP1 CALLDATALOAD PUSH1 0x24 DUP2 ADD PUSH2 0xA00 MSTORE PUSH2 0xA20 DUP4 SWAP1 MSTORE PUSH32 0x0 PUSH2 0xA40 MSTORE PUSH32 0x0 PUSH2 0xA60 MSTORE DUP5 SWAP2 PUSH32 0xFFFFFFFFFFFFFFFFFFFFFFFFFFFFFFFFFFFFFFFFFFFFFFFFFFFFFFFFFFFFFFFF SWAP2 ADD CALLDATALOAD ADD PUSH1 0x0 DUP1 DUP1 JUMPDEST DUP4 DUP2 LT ISZERO PUSH2 0x547 JUMPI PUSH2 0x252 DUP2 PUSH2 0x5CA JUMP JUMPDEST PUSH2 0x25E PUSH1 0x1 DUP4 ADD PUSH2 0x5CA JUMP JUMPDEST SWAP4 POP PUSH2 0x269 DUP5 PUSH2 0x5EF JUMP JUMPDEST PUSH2 0x272 DUP3 PUSH2 0x5EF JUMP JUMPDEST LT DUP4 DUP1 PUSH2 0x28A JUMPI PUSH2 0x283 DUP7 DUP5 PUSH2 0x617 JUMP JUMPDEST SWAP1 POP PUSH1 0x0 SWAP5 POP JUMPDEST DUP4 PUSH2 0x3D0 JUMPI PUSH20 0xEEEEEEEEEEEEEEEEEEEEEEEEEEEEEEEEEEEEEEEE DUP4 EQ DUP1 ISZERO PUSH2 0x348 JUMPI DUP12 CALLVALUE EQ PUSH2 0x2B8 JUMPI PUSH1 0x0 DUP1 REVERT JUMPDEST PUSH2 0xA40 MLOAD SWAP4 POP PUSH32 0xD0E30DB000000000000000000000000000000000000000000000000000000000 PUSH2 0xB00 MSTORE PUSH1 0x0 DUP1 PUSH1 0x4 PUSH2 0xB00 DUP16 DUP9 GAS CALL PUSH2 0x2FB JUMPI PUSH2 0x2FB PUSH2 0x72C JUMP JUMPDEST PUSH32 0xA9059CBB00000000000000000000000000000000000000000000000000000000 PUSH2 0xB00 MSTORE DUP2 PUSH2 0xB04 MSTORE DUP12 PUSH2 0xB24 MSTORE PUSH1 0x0 DUP1 PUSH1 0x44 PUSH2 0xB00 PUSH1 0x0 DUP9 GAS CALL PUSH2 0x343 JUMPI PUSH2 0x343 PUSH2 0x72C JUMP JUMPDEST PUSH2 0x3CE JUMP JUMPDEST PUSH32 0xBCA8C7B500000000000000000000000000000000000000000000000000000000 PUSH2 0xB00 MSTORE DUP4 PUSH2 0xB04 MSTORE PUSH1 0x40 PUSH2 0xB24 MSTORE PUSH1 0x64 PUSH2 0xB44 MSTORE PUSH32 0x23B872DD00000000000000000000000000000000000000000000000000000000 PUSH2 0xB64 MSTORE CALLER PUSH2 0xB68 MSTORE DUP2 PUSH2 0xB88 MSTORE DUP12 PUSH2 0xBA8 MSTORE PUSH1 0x0 DUP1 PUSH1 0xC8 PUSH2 0xB00 PUSH1 0x0 PUSH2 0xA60 MLOAD GAS CALL PUSH2 0x3CE JUMPI PUSH2 0x3CE PUSH2 0x72C JUMP JUMPDEST POP JUMPDEST PUSH32 0x902F1AC00000000000000000000000000000000000000000000000000000000 PUSH2 0xB00 MSTORE PUSH1 0x40 PUSH2 0xC00 PUSH1 0x4 PUSH2 0xB00 DUP5 GAS STATICCALL PUSH2 0x40E JUMPI PUSH2 0x40E PUSH2 0x72C JUMP JUMPDEST DUP8 SWAP3 POP PUSH1 0x0 DUP1 DUP4 ISZERO DUP1 ISZERO PUSH2 0x42D JUMPI PUSH2 0xC20 MLOAD SWAP3 POP PUSH2 0xC00 MLOAD SWAP2 POP PUSH2 0x43A JUMP JUMPDEST PUSH2 0xC00 MLOAD SWAP3 POP PUSH2 0xC20 MLOAD SWAP2 POP JUMPDEST POP PUSH15 0x10000000000000000000000000000 DUP6 GT ISZERO PUSH2 0x457 JUMPI PUSH1 0x0 DUP1 REVERT JUMPDEST PUSH2 0x3E5 DUP6 MUL PUSH2 0x3E8 DUP4 MUL DUP2 ADD DUP3 DUP3 MUL DIV SWAP11 POP POP POP POP PUSH1 0x0 SWAP3 POP DUP7 PUSH1 0x1 DUP6 ADD EQ PUSH1 0x0 DUP2 EQ PUSH2 0x4AD JUMPI PUSH20 0xEEEEEEEEEEEEEEEEEEEEEEEEEEEEEEEEEEEEEEEE DUP8 EQ DUP1 ISZERO PUSH2 0x4A3 JUMPI ADDRESS SWAP5 POP PUSH2 0x4A7 JUMP JUMPDEST CALLER SWAP5 POP JUMPDEST POP PUSH2 0x4C8 JUMP JUMPDEST PUSH2 0x4C2 PUSH2 0x4BC PUSH1 0x2 DUP8 ADD PUSH2 0x5CA JUMP JUMPDEST DUP9 PUSH2 0x617 JUMP JUMPDEST SWAP6 POP DUP6 SWAP4 POP JUMPDEST POP PUSH32 0x22C0D9F00000000000000000000000000000000000000000000000000000000 PUSH2 0xB00 MSTORE DUP2 DUP1 ISZERO PUSH2 0x505 JUMPI PUSH1 0x0 PUSH2 0xB04 MSTORE DUP9 PUSH2 0xB24 MSTORE PUSH2 0x511 JUMP JUMPDEST DUP9 PUSH2 0xB04 MSTORE PUSH1 0x0 PUSH2 0xB24 MSTORE JUMPDEST POP DUP3 PUSH2 0xB44 MSTORE PUSH1 0x80 PUSH2 0xB64 MSTORE PUSH1 0x0 PUSH2 0xB84 MSTORE PUSH1 0x0 DUP1 PUSH1 0xA4 PUSH2 0xB00 PUSH1 0x0 DUP6 GAS CALL PUSH2 0x53C JUMPI PUSH2 0x53C PUSH2 0x72C JUMP JUMPDEST POP POP POP PUSH1 0x1 ADD PUSH2 0x241 JUMP JUMPDEST POP POP PUSH20 0xEEEEEEEEEEEEEEEEEEEEEEEEEEEEEEEEEEEEEEEE DUP2 EQ ISZERO PUSH2 0x5C3 JUMPI PUSH32 0x2E1A7D4D00000000000000000000000000000000000000000000000000000000 PUSH2 0xB00 MSTORE DUP3 PUSH2 0xB04 MSTORE PUSH1 0x0 DUP1 PUSH1 0x24 PUSH2 0xB00 PUSH1 0x0 PUSH2 0xA40 MLOAD GAS CALL PUSH2 0x5AB JUMPI PUSH2 0x5AB PUSH2 0x72C JUMP JUMPDEST PUSH1 0x0 DUP1 PUSH1 0x0 PUSH2 0xB00 DUP7 CALLER GAS CALL PUSH2 0x5C3 JUMPI PUSH2 0x5C3 PUSH2 0x72C JUMP JUMPDEST POP POP PUSH2 0x736 JUMP JUMPDEST PUSH2 0xA00 MLOAD PUSH20 0xFFFFFFFFFFFFFFFFFFFFFFFFFFFFFFFFFFFFFFFF PUSH1 0x20 SWAP3 SWAP1 SWAP3 MUL ADD CALLDATALOAD AND SWAP1 JUMP JUMPDEST DUP1 PUSH20 0xEEEEEEEEEEEEEEEEEEEEEEEEEEEEEEEEEEEEEEEE DUP2 EQ ISZERO PUSH2 0x612 JUMPI POP PUSH2 0xA40 MLOAD JUMPDEST SWAP2 SWAP1 POP JUMP JUMPDEST PUSH1 0x0 PUSH2 0x622 DUP3 PUSH2 0x5EF JUMP JUMPDEST SWAP2 POP PUSH2 0x62D DUP4 PUSH2 0x5EF JUMP JUMPDEST SWAP3 POP DUP3 DUP3 LT DUP1 ISZERO PUSH2 0x647 JUMPI DUP4 PUSH2 0xB14 MSTORE DUP3 PUSH2 0xB00 MSTORE PUSH2 0x652 JUMP JUMPDEST DUP3 PUSH2 0xB14 MSTORE DUP4 PUSH2 0xB00 MSTORE JUMPDEST POP PUSH1 0x28 PUSH2 0xB0C KECCAK256 PUSH2 0xA20 MLOAD DUP1 ISZERO PUSH2 0x6B7 JUMPI PUSH32 0xFFC0AEE478E3658E2610C5F7A4A2E1777CE9E4F2AC0000000000000000000000 PUSH2 0xB00 MSTORE DUP2 PUSH2 0xB15 MSTORE PUSH32 0xE18A34EB0E04B04F7A0AC29A6E80748DCA96319B42C54D679CB821DCA90C6303 PUSH2 0xB35 MSTORE PUSH2 0x707 JUMP JUMPDEST PUSH32 0xFF5C69BEE701EF814A2B6A3EDD4B1652CB9CC5AA6F0000000000000000000000 PUSH2 0xB00 MSTORE DUP2 PUSH2 0xB15 MSTORE PUSH32 0x96E8AC4277198FF8B6F785478AA9A39F403CB768DD02CBEE326C3E7DA348845F PUSH2 0xB35 MSTORE JUMPDEST POP POP PUSH1 0x55 PUSH2 0xB00 KECCAK256 PUSH20 0xFFFFFFFFFFFFFFFFFFFFFFFFFFFFFFFFFFFFFFFF AND SWAP4 SWAP3 POP POP POP JUMP JUMPDEST RETURNDATASIZE PUSH1 0x0 DUP1 RETURNDATACOPY RETURNDATASIZE PUSH1 0x0 REVERT JUMPDEST DUP3 DUP2 LT ISZERO PUSH2 0x770 JUMPI PUSH1 0x40 MLOAD PUSH32 0x8C379A000000000000000000000000000000000000000000000000000000000 DUP2 MSTORE PUSH1 0x4 ADD PUSH2 0x1AF SWAP1 PUSH2 0x9E7 JUMP JUMPDEST SWAP6 SWAP5 POP POP POP POP POP JUMP JUMPDEST PUSH1 0x40 MLOAD PUSH32 0x6EB224CB00000000000000000000000000000000000000000000000000000000 DUP2 MSTORE ADDRESS SWAP1 PUSH4 0x6EB224CB SWAP1 PUSH2 0x7D7 SWAP1 DUP5 SWAP1 PUSH32 0x0 SWAP1 PUSH1 0x4 ADD PUSH2 0x8D1 JUMP JUMPDEST PUSH1 0x0 PUSH1 0x40 MLOAD DUP1 DUP4 SUB DUP2 PUSH1 0x0 DUP8 DUP1 EXTCODESIZE ISZERO DUP1 ISZERO PUSH2 0x7F1 JUMPI PUSH1 0x0 DUP1 REVERT JUMPDEST POP GAS CALL ISZERO DUP1 ISZERO PUSH2 0x805 JUMPI RETURNDATASIZE PUSH1 0x0 DUP1 RETURNDATACOPY RETURNDATASIZE PUSH1 0x0 REVERT JUMPDEST POP POP POP POP POP JUMP JUMPDEST PUSH1 0x0 DUP1 PUSH1 0x0 DUP1 PUSH1 0x0 PUSH1 0x80 DUP7 DUP9 SUB SLT ISZERO PUSH2 0x823 JUMPI DUP1 DUP2 REVERT JUMPDEST DUP6 CALLDATALOAD PUSH8 0xFFFFFFFFFFFFFFFF DUP1 DUP3 GT ISZERO PUSH2 0x83A JUMPI DUP3 DUP4 REVERT JUMPDEST DUP2 DUP9 ADD SWAP2 POP DUP9 PUSH1 0x1F DUP4 ADD SLT PUSH2 0x84D JUMPI DUP3 DUP4 REVERT JUMPDEST DUP2 CALLDATALOAD DUP2 DUP2 GT ISZERO PUSH2 0x85B JUMPI DUP4 DUP5 REVERT JUMPDEST DUP10 PUSH1 0x20 DUP1 DUP4 MUL DUP6 ADD ADD GT ISZERO PUSH2 0x86E JUMPI DUP4 DUP5 REVERT JUMPDEST PUSH1 0x20 SWAP3 DUP4 ADD SWAP8 POP SWAP6 POP POP DUP7 ADD CALLDATALOAD SWAP3 POP PUSH1 0x40 DUP7 ADD CALLDATALOAD SWAP2 POP PUSH1 0x60 DUP7 ADD CALLDATALOAD DUP1 ISZERO ISZERO DUP2 EQ PUSH2 0x896 JUMPI DUP2 DUP3 REVERT JUMPDEST DUP1 SWAP2 POP POP SWAP3 SWAP6 POP SWAP3 SWAP6 SWAP1 SWAP4 POP JUMP JUMPDEST PUSH32 0xFFFFFFFF00000000000000000000000000000000000000000000000000000000 SWAP2 SWAP1 SWAP2 AND DUP2 MSTORE PUSH1 0x20 ADD SWAP1 JUMP JUMPDEST PUSH32 0xFFFFFFFF00000000000000000000000000000000000000000000000000000000 SWAP3 SWAP1 SWAP3 AND DUP3 MSTORE PUSH20 0xFFFFFFFFFFFFFFFFFFFFFFFFFFFFFFFFFFFFFFFF AND PUSH1 0x20 DUP3 ADD MSTORE PUSH1 0x40 ADD SWAP1 JUMP JUMPDEST PUSH1 0x0 PUSH1 0x20 DUP1 DUP4 MSTORE DUP4 MLOAD DUP1 DUP3 DUP6 ADD MSTORE DUP3 JUMPDEST DUP2 DUP2 LT ISZERO PUSH2 0x945 JUMPI DUP6 DUP2 ADD DUP4 ADD MLOAD DUP6 DUP3 ADD PUSH1 0x40 ADD MSTORE DUP3 ADD PUSH2 0x929 JUMP JUMPDEST DUP2 DUP2 GT ISZERO PUSH2 0x956 JUMPI DUP4 PUSH1 0x40 DUP4 DUP8 ADD ADD MSTORE JUMPDEST POP PUSH1 0x1F ADD PUSH32 0xFFFFFFFFFFFFFFFFFFFFFFFFFFFFFFFFFFFFFFFFFFFFFFFFFFFFFFFFFFFFFFE0 AND SWAP3 SWAP1 SWAP3 ADD PUSH1 0x40 ADD SWAP4 SWAP3 POP POP POP JUMP JUMPDEST PUSH1 0x20 DUP1 DUP3 MSTORE PUSH1 0x22 SWAP1 DUP3 ADD MSTORE PUSH32 0x556E6973776170466561747572652F496E76616C6964546F6B656E734C656E67 PUSH1 0x40 DUP3 ADD MSTORE PUSH32 0x7468000000000000000000000000000000000000000000000000000000000000 PUSH1 0x60 DUP3 ADD MSTORE PUSH1 0x80 ADD SWAP1 JUMP JUMPDEST PUSH1 0x20 DUP1 DUP3 MSTORE PUSH1 0x1A SWAP1 DUP3 ADD MSTORE PUSH32 0x556E6973776170466561747572652F556E646572426F75676874000000000000 PUSH1 0x40 DUP3 ADD MSTORE PUSH1 0x60 ADD SWAP1 JUMP JUMPDEST SWAP1 DUP2 MSTORE PUSH1 0x20 ADD SWAP1 JUMP INVALID LOG2 PUSH5 0x6970667358 0x22 SLT KECCAK256 0x23 BALANCE 0xFB SGT LOG3 0xE6 0x4C 0xCE PUSH20 0x4B52A5521BA6F690CD9547306A701E14FFB7756C PUSH16 0x998F64736F6C634300060C0033000000 "
            }
        }
    },
    "sourceTreeHashHex": "0x458864086311119d9c1cb1265a28213c92e8ebe3b9fd28be504a0cd5d2a77020",
    "compiler": {
        "name": "solc",
        "version": "0.6.12+commit.27d51765",
        "settings": {
            "remappings": [
                "@0x/contracts-utils=/Users/jacob/projects/ethdev/0x/workspace-remote/workspace/0x-monorepo/node_modules/@0x/contracts-utils",
                "@0x/contracts-erc20=/Users/jacob/projects/ethdev/0x/workspace-remote/workspace/0x-monorepo/node_modules/@0x/contracts-erc20"
            ],
            "optimizer": {
                "enabled": true,
                "runs": 1000000,
                "details": {
                    "yul": true,
                    "deduplicate": true,
                    "cse": true,
                    "constantOptimizer": true
                }
            },
            "outputSelection": {
                "*": {
                    "*": [
                        "abi",
                        "devdoc",
                        "evm.bytecode.object",
                        "evm.bytecode.sourceMap",
                        "evm.deployedBytecode.object",
                        "evm.deployedBytecode.sourceMap"
                    ]
                }
            },
            "evmVersion": "istanbul"
        }
    },
    "chains": {}
}