{
    "schemaVersion": "2.0.0",
    "contractName": "WethTransformer",
    "compilerOutput": {
        "abi": [
            {
                "inputs": [
                    {
                        "internalType": "contract IEtherTokenV06",
                        "name": "weth_",
                        "type": "address"
                    }
                ],
                "stateMutability": "nonpayable",
                "type": "constructor"
            },
            {
                "inputs": [],
                "name": "deployer",
                "outputs": [
                    {
                        "internalType": "address",
                        "name": "",
                        "type": "address"
                    }
                ],
                "stateMutability": "view",
                "type": "function"
            },
            {
                "inputs": [
                    {
                        "internalType": "address payable",
                        "name": "ethRecipient",
                        "type": "address"
                    }
                ],
                "name": "die",
                "outputs": [],
                "stateMutability": "nonpayable",
                "type": "function"
            },
            {
                "inputs": [
                    {
                        "components": [
                            {
                                "internalType": "bytes32",
                                "name": "callDataHash",
                                "type": "bytes32"
                            },
                            {
                                "internalType": "address payable",
                                "name": "sender",
                                "type": "address"
                            },
                            {
                                "internalType": "address payable",
                                "name": "taker",
                                "type": "address"
                            },
                            {
                                "internalType": "bytes",
                                "name": "data",
                                "type": "bytes"
                            }
                        ],
                        "internalType": "struct IERC20Transformer.TransformContext",
                        "name": "context",
                        "type": "tuple"
                    }
                ],
                "name": "transform",
                "outputs": [
                    {
                        "internalType": "bytes4",
                        "name": "success",
                        "type": "bytes4"
                    }
                ],
                "stateMutability": "nonpayable",
                "type": "function"
            },
            {
                "inputs": [],
                "name": "weth",
                "outputs": [
                    {
                        "internalType": "contract IEtherTokenV06",
                        "name": "",
                        "type": "address"
                    }
                ],
                "stateMutability": "view",
                "type": "function"
            }
        ],
        "devdoc": {
            "details": "A transformer that wraps or unwraps WETH.",
            "kind": "dev",
            "methods": {
                "constructor": {
                    "details": "Construct the transformer and store the WETH address in an immutable.",
                    "params": {
                        "weth_": "The weth token."
                    }
                },
                "die(address)": {
                    "details": "Destruct this contract. Only callable by the deployer and will not      succeed in the context of a delegatecall (from another contract).",
                    "params": {
                        "ethRecipient": "The recipient of ETH held in this contract."
                    }
                },
                "transform((bytes32,address,address,bytes))": {
                    "details": "Wraps and unwraps WETH.",
                    "params": {
                        "context": "Context information."
                    },
                    "returns": {
                        "success": "The success bytes (`LibERC20Transformer.TRANSFORMER_SUCCESS`)."
                    }
                }
            },
            "stateVariables": {
                "MAX_UINT256": {
                    "details": "Maximum uint256 value."
                },
                "weth": {
                    "details": "The WETH contract address."
                }
            },
            "version": 1
        },
        "evm": {
            "bytecode": {
                "linkReferences": {},
                "object": "0x60e060405234801561001057600080fd5b50604051610a57380380610a5783398101604081905261002f91610051565b33606090811b60805230811b60a0521b6001600160601b03191660c05261007f565b600060208284031215610062578081fd5b81516001600160a01b0381168114610078578182fd5b9392505050565b60805160601c60a05160601c60c05160601c6109876100d06000398060ae528061023952806103605280610421525080610157528061018552508060e8528061011652806101c452506109876000f3fe608060405234801561001057600080fd5b506004361061004c5760003560e01c80633fc8cef314610051578063c9353cb51461006f578063d5f3948814610084578063df9aa1ee1461008c575b600080fd5b6100596100ac565b60405161006691906107c1565b60405180910390f35b61008261007d366004610702565b6100d0565b005b6100596101c2565b61009f61009a36600461071e565b6101e6565b6040516100669190610809565b7f000000000000000000000000000000000000000000000000000000000000000081565b3373ffffffffffffffffffffffffffffffffffffffff7f0000000000000000000000000000000000000000000000000000000000000000161461013f5761013f61013a337f00000000000000000000000000000000000000000000000000000000000000006104b2565b61056e565b3073ffffffffffffffffffffffffffffffffffffffff7f000000000000000000000000000000000000000000000000000000000000000016146101a9576101a961013a307f0000000000000000000000000000000000000000000000000000000000000000610576565b8073ffffffffffffffffffffffffffffffffffffffff16ff5b7f000000000000000000000000000000000000000000000000000000000000000081565b60006101f06106eb565b6101fd60608401846108c2565b81019061020a9190610756565b905061022f816000015173ffffffffffffffffffffffffffffffffffffffff166105ac565b15801561028c57507f000000000000000000000000000000000000000000000000000000000000000073ffffffffffffffffffffffffffffffffffffffff16816000015173ffffffffffffffffffffffffffffffffffffffff1614155b156102e0576102e061013a60006102a660608701876108c2565b8080601f0160208091040260200160405190810160405280939291908181526020018383808284376000920191909152506105de92505050565b60208101517fffffffffffffffffffffffffffffffffffffffffffffffffffffffffffffffff81141561033257815161032f9073ffffffffffffffffffffffffffffffffffffffff1630610614565b90505b80156104895781516103599073ffffffffffffffffffffffffffffffffffffffff166105ac565b156103e4577f000000000000000000000000000000000000000000000000000000000000000073ffffffffffffffffffffffffffffffffffffffff1663d0e30db0826040518263ffffffff1660e01b81526004016000604051808303818588803b1580156103c657600080fd5b505af11580156103da573d6000803e3d6000fd5b5050505050610489565b6040517f2e1a7d4d00000000000000000000000000000000000000000000000000000000815273ffffffffffffffffffffffffffffffffffffffff7f00000000000000000000000000000000000000000000000000000000000000001690632e1a7d4d906104569084906004016108b9565b600060405180830381600087803b15801561047057600080fd5b505af1158015610484573d6000803e3d6000fd5b505050505b507f13c9929e000000000000000000000000000000000000000000000000000000009392505050565b60607f5cec653b364cca3880afa73ceff506d0651d11d26abbbe4a56460aa933b21b0883836040516024016104e89291906107e2565b604080517fffffffffffffffffffffffffffffffffffffffffffffffffffffffffffffffe08184030181529190526020810180517bffffffffffffffffffffffffffffffffffffffffffffffffffffffff167fffffffff000000000000000000000000000000000000000000000000000000009093169290921790915290505b92915050565b805160208201fd5b60607fb5cf2cd09307d6c717473134badbb9761c2c97d7565566c2a71eba6cd6fc514d83836040516024016104e89291906107e2565b73ffffffffffffffffffffffffffffffffffffffff811673eeeeeeeeeeeeeeeeeeeeeeeeeeeeeeeeeeeeeeee14919050565b60607f505ff6a4f24a0aa989a95ffe4c8d435d76fb30dea162a3e3022e749867722deb83836040516024016104e8929190610836565b600061061f836105ac565b15610642575073ffffffffffffffffffffffffffffffffffffffff811631610568565b6040517f70a0823100000000000000000000000000000000000000000000000000000000815273ffffffffffffffffffffffffffffffffffffffff8416906370a08231906106949085906004016107c1565b60206040518083038186803b1580156106ac57600080fd5b505afa1580156106c0573d6000803e3d6000fd5b505050506040513d601f19601f820116820180604052508101906106e491906107a9565b9392505050565b604080518082019091526000808252602082015290565b600060208284031215610713578081fd5b81356106e48161092c565b60006020828403121561072f578081fd5b813567ffffffffffffffff811115610745578182fd5b8201608081850312156106e4578182fd5b600060408284031215610767578081fd5b6040516040810181811067ffffffffffffffff82111715610786578283fd5b60405282356107948161092c565b81526020928301359281019290925250919050565b6000602082840312156107ba578081fd5b5051919050565b73ffffffffffffffffffffffffffffffffffffffff91909116815260200190565b73ffffffffffffffffffffffffffffffffffffffff92831681529116602082015260400190565b7fffffffff0000000000000000000000000000000000000000000000000000000091909116815260200190565b60006002841061084257fe5b83825260206040818401528351806040850152825b8181101561087357858101830151858201606001528201610857565b818111156108845783606083870101525b50601f017fffffffffffffffffffffffffffffffffffffffffffffffffffffffffffffffe01692909201606001949350505050565b90815260200190565b60008083357fffffffffffffffffffffffffffffffffffffffffffffffffffffffffffffffe18436030181126108f6578283fd5b83018035915067ffffffffffffffff821115610910578283fd5b60200191503681900382131561092557600080fd5b9250929050565b73ffffffffffffffffffffffffffffffffffffffff8116811461094e57600080fd5b5056fea2646970667358221220fd20c51810d1ad03eaf1a602af16f12095db5d26c9e17fd1413c4a066a5c651364736f6c634300060c0033",
                "opcodes": "PUSH1 0xE0 PUSH1 0x40 MSTORE CALLVALUE DUP1 ISZERO PUSH2 0x10 JUMPI PUSH1 0x0 DUP1 REVERT JUMPDEST POP PUSH1 0x40 MLOAD PUSH2 0xA57 CODESIZE SUB DUP1 PUSH2 0xA57 DUP4 CODECOPY DUP2 ADD PUSH1 0x40 DUP2 SWAP1 MSTORE PUSH2 0x2F SWAP2 PUSH2 0x51 JUMP JUMPDEST CALLER PUSH1 0x60 SWAP1 DUP2 SHL PUSH1 0x80 MSTORE ADDRESS DUP2 SHL PUSH1 0xA0 MSTORE SHL PUSH1 0x1 PUSH1 0x1 PUSH1 0x60 SHL SUB NOT AND PUSH1 0xC0 MSTORE PUSH2 0x7F JUMP JUMPDEST PUSH1 0x0 PUSH1 0x20 DUP3 DUP5 SUB SLT ISZERO PUSH2 0x62 JUMPI DUP1 DUP2 REVERT JUMPDEST DUP2 MLOAD PUSH1 0x1 PUSH1 0x1 PUSH1 0xA0 SHL SUB DUP2 AND DUP2 EQ PUSH2 0x78 JUMPI DUP2 DUP3 REVERT JUMPDEST SWAP4 SWAP3 POP POP POP JUMP JUMPDEST PUSH1 0x80 MLOAD PUSH1 0x60 SHR PUSH1 0xA0 MLOAD PUSH1 0x60 SHR PUSH1 0xC0 MLOAD PUSH1 0x60 SHR PUSH2 0x987 PUSH2 0xD0 PUSH1 0x0 CODECOPY DUP1 PUSH1 0xAE MSTORE DUP1 PUSH2 0x239 MSTORE DUP1 PUSH2 0x360 MSTORE DUP1 PUSH2 0x421 MSTORE POP DUP1 PUSH2 0x157 MSTORE DUP1 PUSH2 0x185 MSTORE POP DUP1 PUSH1 0xE8 MSTORE DUP1 PUSH2 0x116 MSTORE DUP1 PUSH2 0x1C4 MSTORE POP PUSH2 0x987 PUSH1 0x0 RETURN INVALID PUSH1 0x80 PUSH1 0x40 MSTORE CALLVALUE DUP1 ISZERO PUSH2 0x10 JUMPI PUSH1 0x0 DUP1 REVERT JUMPDEST POP PUSH1 0x4 CALLDATASIZE LT PUSH2 0x4C JUMPI PUSH1 0x0 CALLDATALOAD PUSH1 0xE0 SHR DUP1 PUSH4 0x3FC8CEF3 EQ PUSH2 0x51 JUMPI DUP1 PUSH4 0xC9353CB5 EQ PUSH2 0x6F JUMPI DUP1 PUSH4 0xD5F39488 EQ PUSH2 0x84 JUMPI DUP1 PUSH4 0xDF9AA1EE EQ PUSH2 0x8C JUMPI JUMPDEST PUSH1 0x0 DUP1 REVERT JUMPDEST PUSH2 0x59 PUSH2 0xAC JUMP JUMPDEST PUSH1 0x40 MLOAD PUSH2 0x66 SWAP2 SWAP1 PUSH2 0x7C1 JUMP JUMPDEST PUSH1 0x40 MLOAD DUP1 SWAP2 SUB SWAP1 RETURN JUMPDEST PUSH2 0x82 PUSH2 0x7D CALLDATASIZE PUSH1 0x4 PUSH2 0x702 JUMP JUMPDEST PUSH2 0xD0 JUMP JUMPDEST STOP JUMPDEST PUSH2 0x59 PUSH2 0x1C2 JUMP JUMPDEST PUSH2 0x9F PUSH2 0x9A CALLDATASIZE PUSH1 0x4 PUSH2 0x71E JUMP JUMPDEST PUSH2 0x1E6 JUMP JUMPDEST PUSH1 0x40 MLOAD PUSH2 0x66 SWAP2 SWAP1 PUSH2 0x809 JUMP JUMPDEST PUSH32 0x0 DUP2 JUMP JUMPDEST CALLER PUSH20 0xFFFFFFFFFFFFFFFFFFFFFFFFFFFFFFFFFFFFFFFF PUSH32 0x0 AND EQ PUSH2 0x13F JUMPI PUSH2 0x13F PUSH2 0x13A CALLER PUSH32 0x0 PUSH2 0x4B2 JUMP JUMPDEST PUSH2 0x56E JUMP JUMPDEST ADDRESS PUSH20 0xFFFFFFFFFFFFFFFFFFFFFFFFFFFFFFFFFFFFFFFF PUSH32 0x0 AND EQ PUSH2 0x1A9 JUMPI PUSH2 0x1A9 PUSH2 0x13A ADDRESS PUSH32 0x0 PUSH2 0x576 JUMP JUMPDEST DUP1 PUSH20 0xFFFFFFFFFFFFFFFFFFFFFFFFFFFFFFFFFFFFFFFF AND SELFDESTRUCT JUMPDEST PUSH32 0x0 DUP2 JUMP JUMPDEST PUSH1 0x0 PUSH2 0x1F0 PUSH2 0x6EB JUMP JUMPDEST PUSH2 0x1FD PUSH1 0x60 DUP5 ADD DUP5 PUSH2 0x8C2 JUMP JUMPDEST DUP2 ADD SWAP1 PUSH2 0x20A SWAP2 SWAP1 PUSH2 0x756 JUMP JUMPDEST SWAP1 POP PUSH2 0x22F DUP2 PUSH1 0x0 ADD MLOAD PUSH20 0xFFFFFFFFFFFFFFFFFFFFFFFFFFFFFFFFFFFFFFFF AND PUSH2 0x5AC JUMP JUMPDEST ISZERO DUP1 ISZERO PUSH2 0x28C JUMPI POP PUSH32 0x0 PUSH20 0xFFFFFFFFFFFFFFFFFFFFFFFFFFFFFFFFFFFFFFFF AND DUP2 PUSH1 0x0 ADD MLOAD PUSH20 0xFFFFFFFFFFFFFFFFFFFFFFFFFFFFFFFFFFFFFFFF AND EQ ISZERO JUMPDEST ISZERO PUSH2 0x2E0 JUMPI PUSH2 0x2E0 PUSH2 0x13A PUSH1 0x0 PUSH2 0x2A6 PUSH1 0x60 DUP8 ADD DUP8 PUSH2 0x8C2 JUMP JUMPDEST DUP1 DUP1 PUSH1 0x1F ADD PUSH1 0x20 DUP1 SWAP2 DIV MUL PUSH1 0x20 ADD PUSH1 0x40 MLOAD SWAP1 DUP2 ADD PUSH1 0x40 MSTORE DUP1 SWAP4 SWAP3 SWAP2 SWAP1 DUP2 DUP2 MSTORE PUSH1 0x20 ADD DUP4 DUP4 DUP1 DUP3 DUP5 CALLDATACOPY PUSH1 0x0 SWAP3 ADD SWAP2 SWAP1 SWAP2 MSTORE POP PUSH2 0x5DE SWAP3 POP POP POP JUMP JUMPDEST PUSH1 0x20 DUP2 ADD MLOAD PUSH32 0xFFFFFFFFFFFFFFFFFFFFFFFFFFFFFFFFFFFFFFFFFFFFFFFFFFFFFFFFFFFFFFFF DUP2 EQ ISZERO PUSH2 0x332 JUMPI DUP2 MLOAD PUSH2 0x32F SWAP1 PUSH20 0xFFFFFFFFFFFFFFFFFFFFFFFFFFFFFFFFFFFFFFFF AND ADDRESS PUSH2 0x614 JUMP JUMPDEST SWAP1 POP JUMPDEST DUP1 ISZERO PUSH2 0x489 JUMPI DUP2 MLOAD PUSH2 0x359 SWAP1 PUSH20 0xFFFFFFFFFFFFFFFFFFFFFFFFFFFFFFFFFFFFFFFF AND PUSH2 0x5AC JUMP JUMPDEST ISZERO PUSH2 0x3E4 JUMPI PUSH32 0x0 PUSH20 0xFFFFFFFFFFFFFFFFFFFFFFFFFFFFFFFFFFFFFFFF AND PUSH4 0xD0E30DB0 DUP3 PUSH1 0x40 MLOAD DUP3 PUSH4 0xFFFFFFFF AND PUSH1 0xE0 SHL DUP2 MSTORE PUSH1 0x4 ADD PUSH1 0x0 PUSH1 0x40 MLOAD DUP1 DUP4 SUB DUP2 DUP6 DUP9 DUP1 EXTCODESIZE ISZERO DUP1 ISZERO PUSH2 0x3C6 JUMPI PUSH1 0x0 DUP1 REVERT JUMPDEST POP GAS CALL ISZERO DUP1 ISZERO PUSH2 0x3DA JUMPI RETURNDATASIZE PUSH1 0x0 DUP1 RETURNDATACOPY RETURNDATASIZE PUSH1 0x0 REVERT JUMPDEST POP POP POP POP POP PUSH2 0x489 JUMP JUMPDEST PUSH1 0x40 MLOAD PUSH32 0x2E1A7D4D00000000000000000000000000000000000000000000000000000000 DUP2 MSTORE PUSH20 0xFFFFFFFFFFFFFFFFFFFFFFFFFFFFFFFFFFFFFFFF PUSH32 0x0 AND SWAP1 PUSH4 0x2E1A7D4D SWAP1 PUSH2 0x456 SWAP1 DUP5 SWAP1 PUSH1 0x4 ADD PUSH2 0x8B9 JUMP JUMPDEST PUSH1 0x0 PUSH1 0x40 MLOAD DUP1 DUP4 SUB DUP2 PUSH1 0x0 DUP8 DUP1 EXTCODESIZE ISZERO DUP1 ISZERO PUSH2 0x470 JUMPI PUSH1 0x0 DUP1 REVERT JUMPDEST POP GAS CALL ISZERO DUP1 ISZERO PUSH2 0x484 JUMPI RETURNDATASIZE PUSH1 0x0 DUP1 RETURNDATACOPY RETURNDATASIZE PUSH1 0x0 REVERT JUMPDEST POP POP POP POP JUMPDEST POP PUSH32 0x13C9929E00000000000000000000000000000000000000000000000000000000 SWAP4 SWAP3 POP POP POP JUMP JUMPDEST PUSH1 0x60 PUSH32 0x5CEC653B364CCA3880AFA73CEFF506D0651D11D26ABBBE4A56460AA933B21B08 DUP4 DUP4 PUSH1 0x40 MLOAD PUSH1 0x24 ADD PUSH2 0x4E8 SWAP3 SWAP2 SWAP1 PUSH2 0x7E2 JUMP JUMPDEST PUSH1 0x40 DUP1 MLOAD PUSH32 0xFFFFFFFFFFFFFFFFFFFFFFFFFFFFFFFFFFFFFFFFFFFFFFFFFFFFFFFFFFFFFFE0 DUP2 DUP5 SUB ADD DUP2 MSTORE SWAP2 SWAP1 MSTORE PUSH1 0x20 DUP2 ADD DUP1 MLOAD PUSH28 0xFFFFFFFFFFFFFFFFFFFFFFFFFFFFFFFFFFFFFFFFFFFFFFFFFFFFFFFF AND PUSH32 0xFFFFFFFF00000000000000000000000000000000000000000000000000000000 SWAP1 SWAP4 AND SWAP3 SWAP1 SWAP3 OR SWAP1 SWAP2 MSTORE SWAP1 POP JUMPDEST SWAP3 SWAP2 POP POP JUMP JUMPDEST DUP1 MLOAD PUSH1 0x20 DUP3 ADD REVERT JUMPDEST PUSH1 0x60 PUSH32 0xB5CF2CD09307D6C717473134BADBB9761C2C97D7565566C2A71EBA6CD6FC514D DUP4 DUP4 PUSH1 0x40 MLOAD PUSH1 0x24 ADD PUSH2 0x4E8 SWAP3 SWAP2 SWAP1 PUSH2 0x7E2 JUMP JUMPDEST PUSH20 0xFFFFFFFFFFFFFFFFFFFFFFFFFFFFFFFFFFFFFFFF DUP2 AND PUSH20 0xEEEEEEEEEEEEEEEEEEEEEEEEEEEEEEEEEEEEEEEE EQ SWAP2 SWAP1 POP JUMP JUMPDEST PUSH1 0x60 PUSH32 0x505FF6A4F24A0AA989A95FFE4C8D435D76FB30DEA162A3E3022E749867722DEB DUP4 DUP4 PUSH1 0x40 MLOAD PUSH1 0x24 ADD PUSH2 0x4E8 SWAP3 SWAP2 SWAP1 PUSH2 0x836 JUMP JUMPDEST PUSH1 0x0 PUSH2 0x61F DUP4 PUSH2 0x5AC JUMP JUMPDEST ISZERO PUSH2 0x642 JUMPI POP PUSH20 0xFFFFFFFFFFFFFFFFFFFFFFFFFFFFFFFFFFFFFFFF DUP2 AND BALANCE PUSH2 0x568 JUMP JUMPDEST PUSH1 0x40 MLOAD PUSH32 0x70A0823100000000000000000000000000000000000000000000000000000000 DUP2 MSTORE PUSH20 0xFFFFFFFFFFFFFFFFFFFFFFFFFFFFFFFFFFFFFFFF DUP5 AND SWAP1 PUSH4 0x70A08231 SWAP1 PUSH2 0x694 SWAP1 DUP6 SWAP1 PUSH1 0x4 ADD PUSH2 0x7C1 JUMP JUMPDEST PUSH1 0x20 PUSH1 0x40 MLOAD DUP1 DUP4 SUB DUP2 DUP7 DUP1 EXTCODESIZE ISZERO DUP1 ISZERO PUSH2 0x6AC JUMPI PUSH1 0x0 DUP1 REVERT JUMPDEST POP GAS STATICCALL ISZERO DUP1 ISZERO PUSH2 0x6C0 JUMPI RETURNDATASIZE PUSH1 0x0 DUP1 RETURNDATACOPY RETURNDATASIZE PUSH1 0x0 REVERT JUMPDEST POP POP POP POP PUSH1 0x40 MLOAD RETURNDATASIZE PUSH1 0x1F NOT PUSH1 0x1F DUP3 ADD AND DUP3 ADD DUP1 PUSH1 0x40 MSTORE POP DUP2 ADD SWAP1 PUSH2 0x6E4 SWAP2 SWAP1 PUSH2 0x7A9 JUMP JUMPDEST SWAP4 SWAP3 POP POP POP JUMP JUMPDEST PUSH1 0x40 DUP1 MLOAD DUP1 DUP3 ADD SWAP1 SWAP2 MSTORE PUSH1 0x0 DUP1 DUP3 MSTORE PUSH1 0x20 DUP3 ADD MSTORE SWAP1 JUMP JUMPDEST PUSH1 0x0 PUSH1 0x20 DUP3 DUP5 SUB SLT ISZERO PUSH2 0x713 JUMPI DUP1 DUP2 REVERT JUMPDEST DUP2 CALLDATALOAD PUSH2 0x6E4 DUP2 PUSH2 0x92C JUMP JUMPDEST PUSH1 0x0 PUSH1 0x20 DUP3 DUP5 SUB SLT ISZERO PUSH2 0x72F JUMPI DUP1 DUP2 REVERT JUMPDEST DUP2 CALLDATALOAD PUSH8 0xFFFFFFFFFFFFFFFF DUP2 GT ISZERO PUSH2 0x745 JUMPI DUP2 DUP3 REVERT JUMPDEST DUP3 ADD PUSH1 0x80 DUP2 DUP6 SUB SLT ISZERO PUSH2 0x6E4 JUMPI DUP2 DUP3 REVERT JUMPDEST PUSH1 0x0 PUSH1 0x40 DUP3 DUP5 SUB SLT ISZERO PUSH2 0x767 JUMPI DUP1 DUP2 REVERT JUMPDEST PUSH1 0x40 MLOAD PUSH1 0x40 DUP2 ADD DUP2 DUP2 LT PUSH8 0xFFFFFFFFFFFFFFFF DUP3 GT OR ISZERO PUSH2 0x786 JUMPI DUP3 DUP4 REVERT JUMPDEST PUSH1 0x40 MSTORE DUP3 CALLDATALOAD PUSH2 0x794 DUP2 PUSH2 0x92C JUMP JUMPDEST DUP2 MSTORE PUSH1 0x20 SWAP3 DUP4 ADD CALLDATALOAD SWAP3 DUP2 ADD SWAP3 SWAP1 SWAP3 MSTORE POP SWAP2 SWAP1 POP JUMP JUMPDEST PUSH1 0x0 PUSH1 0x20 DUP3 DUP5 SUB SLT ISZERO PUSH2 0x7BA JUMPI DUP1 DUP2 REVERT JUMPDEST POP MLOAD SWAP2 SWAP1 POP JUMP JUMPDEST PUSH20 0xFFFFFFFFFFFFFFFFFFFFFFFFFFFFFFFFFFFFFFFF SWAP2 SWAP1 SWAP2 AND DUP2 MSTORE PUSH1 0x20 ADD SWAP1 JUMP JUMPDEST PUSH20 0xFFFFFFFFFFFFFFFFFFFFFFFFFFFFFFFFFFFFFFFF SWAP3 DUP4 AND DUP2 MSTORE SWAP2 AND PUSH1 0x20 DUP3 ADD MSTORE PUSH1 0x40 ADD SWAP1 JUMP JUMPDEST PUSH32 0xFFFFFFFF00000000000000000000000000000000000000000000000000000000 SWAP2 SWAP1 SWAP2 AND DUP2 MSTORE PUSH1 0x20 ADD SWAP1 JUMP JUMPDEST PUSH1 0x0 PUSH1 0x2 DUP5 LT PUSH2 0x842 JUMPI INVALID JUMPDEST DUP4 DUP3 MSTORE PUSH1 0x20 PUSH1 0x40 DUP2 DUP5 ADD MSTORE DUP4 MLOAD DUP1 PUSH1 0x40 DUP6 ADD MSTORE DUP3 JUMPDEST DUP2 DUP2 LT ISZERO PUSH2 0x873 JUMPI DUP6 DUP2 ADD DUP4 ADD MLOAD DUP6 DUP3 ADD PUSH1 0x60 ADD MSTORE DUP3 ADD PUSH2 0x857 JUMP JUMPDEST DUP2 DUP2 GT ISZERO PUSH2 0x884 JUMPI DUP4 PUSH1 0x60 DUP4 DUP8 ADD ADD MSTORE JUMPDEST POP PUSH1 0x1F ADD PUSH32 0xFFFFFFFFFFFFFFFFFFFFFFFFFFFFFFFFFFFFFFFFFFFFFFFFFFFFFFFFFFFFFFE0 AND SWAP3 SWAP1 SWAP3 ADD PUSH1 0x60 ADD SWAP5 SWAP4 POP POP POP POP JUMP JUMPDEST SWAP1 DUP2 MSTORE PUSH1 0x20 ADD SWAP1 JUMP JUMPDEST PUSH1 0x0 DUP1 DUP4 CALLDATALOAD PUSH32 0xFFFFFFFFFFFFFFFFFFFFFFFFFFFFFFFFFFFFFFFFFFFFFFFFFFFFFFFFFFFFFFE1 DUP5 CALLDATASIZE SUB ADD DUP2 SLT PUSH2 0x8F6 JUMPI DUP3 DUP4 REVERT JUMPDEST DUP4 ADD DUP1 CALLDATALOAD SWAP2 POP PUSH8 0xFFFFFFFFFFFFFFFF DUP3 GT ISZERO PUSH2 0x910 JUMPI DUP3 DUP4 REVERT JUMPDEST PUSH1 0x20 ADD SWAP2 POP CALLDATASIZE DUP2 SWAP1 SUB DUP3 SGT ISZERO PUSH2 0x925 JUMPI PUSH1 0x0 DUP1 REVERT JUMPDEST SWAP3 POP SWAP3 SWAP1 POP JUMP JUMPDEST PUSH20 0xFFFFFFFFFFFFFFFFFFFFFFFFFFFFFFFFFFFFFFFF DUP2 AND DUP2 EQ PUSH2 0x94E JUMPI PUSH1 0x0 DUP1 REVERT JUMPDEST POP JUMP INVALID LOG2 PUSH5 0x6970667358 0x22 SLT KECCAK256 REVERT KECCAK256 0xC5 XOR LT 0xD1 0xAD SUB 0xEA CALL 0xA6 MUL 0xAF AND CALL KECCAK256 SWAP6 0xDB 0x5D 0x26 0xC9 0xE1 PUSH32 0xD1413C4A066A5C651364736F6C634300060C0033000000000000000000000000 "
            }
        }
    },
    "sourceTreeHashHex": "0xcdf8ab8ecc256c23a2bc0c73cf676308a011f32f4b3aa2a05d8bd3f34d02df95",
    "compiler": {
        "name": "solc",
        "version": "0.6.12+commit.27d51765",
        "settings": {
            "remappings": [
                "@0x/contracts-utils=/Users/jacob/projects/ethdev/0x/workspace-remote/workspace/0x-monorepo/node_modules/@0x/contracts-utils",
                "@0x/contracts-erc20=/Users/jacob/projects/ethdev/0x/workspace-remote/workspace/0x-monorepo/node_modules/@0x/contracts-erc20"
            ],
            "optimizer": {
                "enabled": true,
                "runs": 1000000,
                "details": {
                    "yul": true,
                    "deduplicate": true,
                    "cse": true,
                    "constantOptimizer": true
                }
            },
            "outputSelection": {
                "*": {
                    "*": [
                        "abi",
                        "devdoc",
                        "evm.bytecode.object",
                        "evm.bytecode.sourceMap",
                        "evm.deployedBytecode.object",
                        "evm.deployedBytecode.sourceMap"
                    ]
                }
            },
            "evmVersion": "istanbul"
        }
    },
    "chains": {}
}