{
	"schemaVersion": "2.0.0",
	"contractName": "AbiGenDummy",
	"compilerOutput": {
		"abi": [
			{
				"constant": true,
				"inputs": [],
				"name": "simpleRequire",
				"outputs": [],
				"payable": false,
				"stateMutability": "pure",
				"type": "function"
			},
			{
				"constant": true,
				"inputs": [
					{
						"name": "a",
						"type": "bytes[]"
					}
				],
				"name": "acceptsAnArrayOfBytes",
				"outputs": [],
				"payable": false,
				"stateMutability": "pure",
				"type": "function"
			},
			{
				"constant": true,
				"inputs": [],
				"name": "simpleStructOutput",
				"outputs": [
					{
						"components": [
							{
								"name": "anInteger",
								"type": "uint256"
							},
							{
								"name": "aString",
								"type": "string"
							}
						],
						"name": "",
						"type": "tuple"
					}
				],
				"payable": false,
				"stateMutability": "pure",
				"type": "function"
			},
			{
				"constant": true,
				"inputs": [
					{
						"name": "",
						"type": "uint256"
					}
				],
				"name": "simpleInputSimpleOutput",
				"outputs": [
					{
						"name": "",
						"type": "uint256"
					}
				],
				"payable": false,
				"stateMutability": "pure",
				"type": "function"
			},
			{
				"constant": false,
				"inputs": [
					{
						"name": "wad",
						"type": "uint256"
					}
				],
				"name": "withdraw",
				"outputs": [],
				"payable": false,
				"stateMutability": "nonpayable",
				"type": "function"
			},
			{
				"constant": true,
				"inputs": [
					{
						"name": "",
						"type": "uint256"
					},
					{
						"name": "",
						"type": "bytes"
					},
					{
						"name": "",
						"type": "string"
					}
				],
				"name": "multiInputMultiOutput",
				"outputs": [
					{
						"name": "",
						"type": "bytes"
					},
					{
						"name": "",
						"type": "bytes"
					},
					{
						"name": "",
						"type": "string"
					}
				],
				"payable": false,
				"stateMutability": "pure",
				"type": "function"
			},
			{
				"constant": true,
				"inputs": [
					{
						"name": "hash",
						"type": "bytes32"
					},
					{
						"name": "v",
						"type": "uint8"
					},
					{
						"name": "r",
						"type": "bytes32"
					},
					{
						"name": "s",
						"type": "bytes32"
					}
				],
				"name": "ecrecoverFn",
				"outputs": [
					{
						"name": "signerAddress",
						"type": "address"
					}
				],
				"payable": false,
				"stateMutability": "pure",
				"type": "function"
			},
			{
				"constant": true,
				"inputs": [
					{
						"name": "a",
						"type": "bytes"
					}
				],
				"name": "acceptsBytes",
				"outputs": [],
				"payable": false,
				"stateMutability": "pure",
				"type": "function"
			},
			{
				"constant": true,
				"inputs": [],
				"name": "noInputSimpleOutput",
				"outputs": [
					{
						"name": "",
						"type": "uint256"
					}
				],
				"payable": false,
				"stateMutability": "pure",
				"type": "function"
			},
			{
				"constant": true,
				"inputs": [],
				"name": "revertWithConstant",
				"outputs": [],
				"payable": false,
				"stateMutability": "pure",
				"type": "function"
			},
			{
				"constant": true,
				"inputs": [],
				"name": "simpleRevert",
				"outputs": [],
				"payable": false,
				"stateMutability": "pure",
				"type": "function"
			},
			{
				"constant": true,
				"inputs": [],
				"name": "nestedStructOutput",
				"outputs": [
					{
						"components": [
							{
								"components": [
									{
										"name": "someBytes",
										"type": "bytes"
									},
									{
										"name": "anInteger",
										"type": "uint32"
									},
									{
										"name": "aDynamicArrayOfBytes",
										"type": "bytes[]"
									},
									{
										"name": "aString",
										"type": "string"
									}
								],
								"name": "innerStruct",
								"type": "tuple"
							},
							{
								"name": "description",
								"type": "string"
							}
						],
						"name": "",
						"type": "tuple"
					}
				],
				"payable": false,
				"stateMutability": "pure",
				"type": "function"
			},
			{
				"constant": true,
				"inputs": [],
				"name": "requireWithConstant",
				"outputs": [],
				"payable": false,
				"stateMutability": "pure",
				"type": "function"
			},
			{
				"constant": true,
				"inputs": [
					{
						"name": "x",
						"type": "address"
					},
					{
						"name": "a",
						"type": "uint256"
					},
					{
						"name": "b",
						"type": "uint256"
					},
					{
						"name": "y",
						"type": "address"
					},
					{
						"name": "c",
						"type": "uint256"
					}
				],
				"name": "withAddressInput",
				"outputs": [
					{
						"name": "z",
						"type": "address"
					}
				],
				"payable": false,
				"stateMutability": "pure",
				"type": "function"
			},
			{
				"constant": true,
				"inputs": [
					{
						"components": [
							{
								"name": "someBytes",
								"type": "bytes"
							},
							{
								"name": "anInteger",
								"type": "uint32"
							},
							{
								"name": "aDynamicArrayOfBytes",
								"type": "bytes[]"
							},
							{
								"name": "aString",
								"type": "string"
							}
						],
						"name": "s",
						"type": "tuple"
					}
				],
				"name": "structInput",
				"outputs": [],
				"payable": false,
				"stateMutability": "pure",
				"type": "function"
			},
			{
				"constant": false,
				"inputs": [],
				"name": "nonPureMethod",
				"outputs": [
					{
						"name": "",
						"type": "uint256"
					}
				],
				"payable": false,
				"stateMutability": "nonpayable",
				"type": "function"
			},
			{
				"constant": true,
				"inputs": [
					{
						"components": [
							{
								"name": "foo",
								"type": "uint256"
							},
							{
								"name": "bar",
								"type": "bytes"
							},
							{
								"name": "car",
								"type": "string"
							}
						],
						"name": "complexInput",
						"type": "tuple"
					}
				],
				"name": "complexInputComplexOutput",
				"outputs": [
					{
						"components": [
							{
								"components": [
									{
										"name": "foo",
										"type": "uint256"
									},
									{
										"name": "bar",
										"type": "bytes"
									},
									{
										"name": "car",
										"type": "string"
									}
								],
								"name": "input",
								"type": "tuple"
							},
							{
								"name": "lorem",
								"type": "bytes"
							},
							{
								"name": "ipsum",
								"type": "bytes"
							},
							{
								"name": "dolor",
								"type": "string"
							}
						],
						"name": "",
						"type": "tuple"
					}
				],
				"payable": false,
				"stateMutability": "pure",
				"type": "function"
			},
			{
				"constant": true,
				"inputs": [],
				"name": "noInputNoOutput",
				"outputs": [],
				"payable": false,
				"stateMutability": "pure",
				"type": "function"
			},
			{
				"constant": true,
				"inputs": [
					{
						"name": "x",
						"type": "uint256"
					}
				],
				"name": "simplePureFunctionWithInput",
				"outputs": [
					{
						"name": "sum",
						"type": "uint256"
					}
				],
				"payable": false,
				"stateMutability": "pure",
				"type": "function"
			},
			{
				"constant": false,
				"inputs": [],
				"name": "nonPureMethodThatReturnsNothing",
				"outputs": [],
				"payable": false,
				"stateMutability": "nonpayable",
				"type": "function"
			},
			{
				"constant": true,
				"inputs": [],
				"name": "simplePureFunction",
				"outputs": [
					{
						"name": "result",
						"type": "uint256"
					}
				],
				"payable": false,
				"stateMutability": "pure",
				"type": "function"
			},
			{
				"constant": true,
				"inputs": [
					{
						"components": [
							{
								"components": [
									{
										"name": "someBytes",
										"type": "bytes"
									},
									{
										"name": "anInteger",
										"type": "uint32"
									},
									{
										"name": "aDynamicArrayOfBytes",
										"type": "bytes[]"
									},
									{
										"name": "aString",
										"type": "string"
									}
								],
								"name": "innerStruct",
								"type": "tuple"
							},
							{
								"name": "description",
								"type": "string"
							}
						],
						"name": "n",
						"type": "tuple"
					}
				],
				"name": "nestedStructInput",
				"outputs": [],
				"payable": false,
				"stateMutability": "pure",
				"type": "function"
			},
			{
				"constant": true,
				"inputs": [],
				"name": "structOutput",
				"outputs": [
					{
						"components": [
							{
								"name": "someBytes",
								"type": "bytes"
							},
							{
								"name": "anInteger",
								"type": "uint32"
							},
							{
								"name": "aDynamicArrayOfBytes",
								"type": "bytes[]"
							},
							{
								"name": "aString",
								"type": "string"
							}
						],
						"name": "s",
						"type": "tuple"
					}
				],
				"payable": false,
				"stateMutability": "pure",
				"type": "function"
			},
			{
				"constant": true,
				"inputs": [],
				"name": "pureFunctionWithConstant",
				"outputs": [
					{
						"name": "someConstant",
						"type": "uint256"
					}
				],
				"payable": false,
				"stateMutability": "pure",
				"type": "function"
			},
			{
				"constant": true,
				"inputs": [
					{
						"name": "",
						"type": "uint256"
					}
				],
				"name": "simpleInputNoOutput",
				"outputs": [],
				"payable": false,
				"stateMutability": "pure",
				"type": "function"
			},
			{
				"anonymous": false,
				"inputs": [
					{
						"indexed": true,
						"name": "_owner",
						"type": "address"
					},
					{
						"indexed": false,
						"name": "_value",
						"type": "uint256"
					}
				],
				"name": "Withdrawal",
				"type": "event"
			},
			{
				"anonymous": false,
				"inputs": [
					{
						"indexed": false,
						"name": "param",
						"type": "uint8"
					}
				],
				"name": "AnEvent",
				"type": "event"
			}
		],
		"devdoc": {
			"methods": {
				"acceptsAnArrayOfBytes(bytes[])": {
					"details": "a method that accepts an array of bytes",
					"params": {
						"a": "the array of bytes being accepted"
					}
				},
				"complexInputComplexOutput((uint256,bytes,string))": {
					"details": "Tests decoding when the input and output are complex."
				},
				"multiInputMultiOutput(uint256,bytes,string)": {
					"details": "Tests decoding when the input and output are complex and have more than one argument."
				},
				"noInputNoOutput()": {
					"details": "Tests decoding when both input and output are empty."
				},
				"noInputSimpleOutput()": {
					"details": "Tests decoding when input is empty and output is non-empty."
				},
				"simpleInputNoOutput(uint256)": {
					"details": "Tests decoding when input is not empty but output is empty."
				},
				"simpleInputSimpleOutput(uint256)": {
					"details": "Tests decoding when both input and output are non-empty."
				},
				"structOutput()": {
					"details": "a method that returns a struct",
					"return": "a Struct struct"
				}
			}
		},
		"evm": {
			"bytecode": {
				"linkReferences": {},
				"object": "0x608060405234801561001057600080fd5b5061118f806100206000396000f3fe608060405234801561001057600080fd5b50600436106101a25760003560e01c80635ba3c7c0116100ee5780638ee52b4e11610097578063ae2dae1711610071578063ae2dae171461030e578063d6d7618c1461031c578063d88be12f14610331578063ee8b86fb14610339576101a2565b80638ee52b4e146102eb5780639a3b6185146102fe578063a3c2f6b614610306576101a2565b806376f15d5b116100c857806376f15d5b146102bb5780637833bec0146102c35780637a791e6e146102e3576101a2565b80635ba3c7c01461029257806363d69c881461029a578063647341eb146102ad576101a2565b806336b32396116101505780634582eab21161012a5780634582eab21461026d57806345fdbdb71461027557806359c28add1461027d576101a2565b806336b32396146102375780633e9ef66a146102575780634303a54214610265576101a2565b80631310e444116101815780631310e444146101e25780632e1a7d4d146102025780633687617d14610215576101a2565b806209e437146101a75780630527c28f146101b15780630d46add7146101c4575b600080fd5b6101af61034c565b005b6101af6101bf366004610a80565b610389565b6101cc61038c565b6040516101d99190611092565b60405180910390f35b6101f56101f0366004610c94565b6103e5565b6040516101d991906110ca565b6101af610210366004610c94565b6103ec565b610228610223366004610cad565b61043d565b6040516101d993929190610e85565b61024a610245366004610abd565b6104dd565b6040516101d99190610e46565b6101af6101bf366004610b00565b6101f56105bf565b6101af6105c5565b6101af61062a565b61028561065c565b6040516101d9919061103b565b6101af610664565b61024a6102a8366004610a2e565b6106c9565b6101af6101bf366004610c5f565b6101f56106d2565b6102d66102d1366004610b35565b6106e0565b6040516101d99190610f4f565b6101af61079d565b6101f56102f9366004610c94565b6107a2565b6101af6107a8565b6101f56107b3565b6101af6101bf366004610bcf565b6103246107b8565b6040516101d991906110b7565b6101f56107c0565b6101af610347366004610c94565b6101bf565b6040517f08c379a000000000000000000000000000000000000000000000000000000000815260040161037e90610f18565b60405180910390fd5b565b50565b6103946107c6565b6040518060400160405280600581526020016040518060400160405280600381526020017f616263000000000000000000000000000000000000000000000000000000000081525081525090505b90565b506107c790565b3373ffffffffffffffffffffffffffffffffffffffff167f7fcf532c15f0a6db0bd6d0e038bea71d30d808c7d98cb3bf7268a95bf5081b658260405161043291906110ca565b60405180910390a250565b505060408051808201825260048082527f1234567800000000000000000000000000000000000000000000000000000000602080840191909152835180850185528281527f87654321000000000000000000000000000000000000000000000000000000008183015284518086019095529184527f616d657400000000000000000000000000000000000000000000000000000000908401529093909250565b600060606040518060400160405280601c81526020017f19457468657265756d205369676e6564204d6573736167653a0a33320000000081525090506000818760405160200161052e929190610e24565b604051602081830303815290604052805190602001209050600181878787604051600081526020016040526040516105699493929190610e67565b6020604051602081039080840390855afa15801561058b573d6000803e3d6000fd5b50506040517fffffffffffffffffffffffffffffffffffffffffffffffffffffffffffffffe0015198975050505050505050565b6107c790565b604080518082018252601481527f5245564552545f574954485f434f4e5354414e54000000000000000000000000602082015290517f08c379a000000000000000000000000000000000000000000000000000000000815261037e9190600401610ec7565b6040517f08c379a000000000000000000000000000000000000000000000000000000000815260040161037e90610ee1565b6103e26107e0565b604080518082018252601581527f524551554952455f574954485f434f4e5354414e540000000000000000000000602082015290517f08c379a000000000000000000000000000000000000000000000000000000000815261037e9190600401610ec7565b50929392505050565b600080546001019081905590565b6106e8610800565b50604080516080810182529182528051808201825260048082527f123456780000000000000000000000000000000000000000000000000000000060208381019190915280850192909252825180840184528181527f87654321000000000000000000000000000000000000000000000000000000008184015284840152825180840190935282527f616d65740000000000000000000000000000000000000000000000000000000090820152606082015290565b610387565b60010190565b600080546001019055565b600190565b6103e261082e565b6104d290565b604051806040016040528060008152602001606081525090565b6040518060a001604052806107f361082e565b8152602001606081525090565b6040518060c0016040528061081361085c565b81526020016060815260200160608152602001606081525090565b604051806080016040528060608152602001600063ffffffff16815260200160608152602001606081525090565b60405180606001604052806000815260200160608152602001606081525090565b600082601f83011261088d578081fd5b813567ffffffffffffffff8111156108a3578182fd5b60206108b281828402016110d3565b828152925080830184820160005b848110156108e9576108d7888584358a01016108f4565b835291830191908301906001016108c0565b505050505092915050565b600082601f830112610904578081fd5b813567ffffffffffffffff81111561091a578182fd5b61094b60207fffffffffffffffffffffffffffffffffffffffffffffffffffffffffffffffe0601f840116016110d3565b915080825283602082850101111561096257600080fd5b8060208401602084013760009082016020015292915050565b60006080828403121561098c578081fd5b61099660806110d3565b90506000823567ffffffffffffffff808211156109b1578283fd5b6109bd868387016108f4565b84526020850135915063ffffffff821682146109d7578283fd5b81602085015260408501359150808211156109f0578283fd5b6109fc8683870161087d565b60408501526060850135915080821115610a14578283fd5b50610a21858286016108f4565b6060840152505092915050565b600080600080600060a08688031215610a4657600080fd5b8535610a518161112a565b945060208601359350604086013592506060860135610a6f8161112a565b949793965091946080013592915050565b600060208284031215610a9257600080fd5b813567ffffffffffffffff811115610aa957600080fd5b610ab58482850161087d565b949350505050565b60008060008060808587031215610ad357600080fd5b84359350602085013560ff81168114610aeb57600080fd5b93969395505050506040820135916060013590565b600060208284031215610b1257600080fd5b813567ffffffffffffffff811115610b2957600080fd5b610ab5848285016108f4565b600060208284031215610b46578081fd5b813567ffffffffffffffff80821115610b5d578283fd5b81840160608187031215610b6f578384fd5b610b7960606110d3565b925080358352602081013582811115610b90578485fd5b610b9c878284016108f4565b602085015250604081013582811115610bb3578485fd5b610bbf878284016108f4565b6040850152509195945050505050565b600060208284031215610be0578081fd5b813567ffffffffffffffff80821115610bf7578283fd5b81840160408187031215610c09578384fd5b610c1360406110d3565b9250803582811115610c23578485fd5b610c2f8782840161097b565b845250602081013582811115610c43578485fd5b610c4f878284016108f4565b6020850152509195945050505050565b600060208284031215610c7157600080fd5b813567ffffffffffffffff811115610c8857600080fd5b610ab58482850161097b565b600060208284031215610ca657600080fd5b5035919050565b600080600060608486031215610cc1578081fd5b83359250602084013567ffffffffffffffff80821115610cdf578283fd5b610ceb878388016108f4565b93506040860135915080821115610d00578283fd5b50610d0d868287016108f4565b9150509250925092565b60008151808452610d2f8160208601602086016110fa565b601f017fffffffffffffffffffffffffffffffffffffffffffffffffffffffffffffffe0169290920160200192915050565b6000815160808452610d766080850182610d17565b6020915063ffffffff82850151168286015260408401518582036040870152818151808452848401915084858202850101858401600094505b82851015610dfd577fffffffffffffffffffffffffffffffffffffffffffffffffffffffffffffffe0868303018452610de9828251610d17565b600195909501949387019391508601610daf565b506060880151955088810360608a0152610e178187610d17565b9998505050505050505050565b60008351610e368184602088016110fa565b9190910191825250602001919050565b73ffffffffffffffffffffffffffffffffffffffff91909116815260200190565b93845260ff9290921660208401526040830152606082015260800190565b600060608252610e986060830186610d17565b8281036020840152610eaa8186610d17565b8381036040850152610ebc8186610d17565b979650505050505050565b600060208252610eda6020830184610d17565b9392505050565b6020808252600d908201527f53494d504c455f52455645525400000000000000000000000000000000000000604082015260600190565b6020808252600e908201527f53494d504c455f52455155495245000000000000000000000000000000000000604082015260600190565b600060208252825160806020840152805160a08401526020810151606060c0850152610f7f610100850182610d17565b604083015191507fffffffffffffffffffffffffffffffffffffffffffffffffffffffffffffff608582030160e0860152610fba8183610d17565b9250505060208401517fffffffffffffffffffffffffffffffffffffffffffffffffffffffffffffffe080858403016040860152610ff88383610d17565b60408701519350818682030160608701526110138185610d17565b9250506060860151925080858303016080860152506110328183610d17565b95945050505050565b6000602082528251604060208401526110576060840182610d61565b602085015191507fffffffffffffffffffffffffffffffffffffffffffffffffffffffffffffffe08482030160408501526110328183610d17565b600060208252825160208301526020830151604080840152610ab56060840182610d17565b600060208252610eda6020830184610d61565b90815260200190565b60405181810167ffffffffffffffff811182821017156110f257600080fd5b604052919050565b60005b838110156111155781810151838201526020016110fd565b83811115611124576000848401525b50505050565b73ffffffffffffffffffffffffffffffffffffffff8116811461038957600080fdfea365627a7a72305820a85f886851d673f07efc3f329b48a377e22c8806e5d5345b121e641bad96d2106c6578706572696d656e74616cf564736f6c634300050a0040",
				"opcodes": "PUSH1 0x80 PUSH1 0x40 MSTORE CALLVALUE DUP1 ISZERO PUSH2 0x10 JUMPI PUSH1 0x0 DUP1 REVERT JUMPDEST POP PUSH2 0x118F DUP1 PUSH2 0x20 PUSH1 0x0 CODECOPY PUSH1 0x0 RETURN INVALID PUSH1 0x80 PUSH1 0x40 MSTORE CALLVALUE DUP1 ISZERO PUSH2 0x10 JUMPI PUSH1 0x0 DUP1 REVERT JUMPDEST POP PUSH1 0x4 CALLDATASIZE LT PUSH2 0x1A2 JUMPI PUSH1 0x0 CALLDATALOAD PUSH1 0xE0 SHR DUP1 PUSH4 0x5BA3C7C0 GT PUSH2 0xEE JUMPI DUP1 PUSH4 0x8EE52B4E GT PUSH2 0x97 JUMPI DUP1 PUSH4 0xAE2DAE17 GT PUSH2 0x71 JUMPI DUP1 PUSH4 0xAE2DAE17 EQ PUSH2 0x30E JUMPI DUP1 PUSH4 0xD6D7618C EQ PUSH2 0x31C JUMPI DUP1 PUSH4 0xD88BE12F EQ PUSH2 0x331 JUMPI DUP1 PUSH4 0xEE8B86FB EQ PUSH2 0x339 JUMPI PUSH2 0x1A2 JUMP JUMPDEST DUP1 PUSH4 0x8EE52B4E EQ PUSH2 0x2EB JUMPI DUP1 PUSH4 0x9A3B6185 EQ PUSH2 0x2FE JUMPI DUP1 PUSH4 0xA3C2F6B6 EQ PUSH2 0x306 JUMPI PUSH2 0x1A2 JUMP JUMPDEST DUP1 PUSH4 0x76F15D5B GT PUSH2 0xC8 JUMPI DUP1 PUSH4 0x76F15D5B EQ PUSH2 0x2BB JUMPI DUP1 PUSH4 0x7833BEC0 EQ PUSH2 0x2C3 JUMPI DUP1 PUSH4 0x7A791E6E EQ PUSH2 0x2E3 JUMPI PUSH2 0x1A2 JUMP JUMPDEST DUP1 PUSH4 0x5BA3C7C0 EQ PUSH2 0x292 JUMPI DUP1 PUSH4 0x63D69C88 EQ PUSH2 0x29A JUMPI DUP1 PUSH4 0x647341EB EQ PUSH2 0x2AD JUMPI PUSH2 0x1A2 JUMP JUMPDEST DUP1 PUSH4 0x36B32396 GT PUSH2 0x150 JUMPI DUP1 PUSH4 0x4582EAB2 GT PUSH2 0x12A JUMPI DUP1 PUSH4 0x4582EAB2 EQ PUSH2 0x26D JUMPI DUP1 PUSH4 0x45FDBDB7 EQ PUSH2 0x275 JUMPI DUP1 PUSH4 0x59C28ADD EQ PUSH2 0x27D JUMPI PUSH2 0x1A2 JUMP JUMPDEST DUP1 PUSH4 0x36B32396 EQ PUSH2 0x237 JUMPI DUP1 PUSH4 0x3E9EF66A EQ PUSH2 0x257 JUMPI DUP1 PUSH4 0x4303A542 EQ PUSH2 0x265 JUMPI PUSH2 0x1A2 JUMP JUMPDEST DUP1 PUSH4 0x1310E444 GT PUSH2 0x181 JUMPI DUP1 PUSH4 0x1310E444 EQ PUSH2 0x1E2 JUMPI DUP1 PUSH4 0x2E1A7D4D EQ PUSH2 0x202 JUMPI DUP1 PUSH4 0x3687617D EQ PUSH2 0x215 JUMPI PUSH2 0x1A2 JUMP JUMPDEST DUP1 PUSH3 0x9E437 EQ PUSH2 0x1A7 JUMPI DUP1 PUSH4 0x527C28F EQ PUSH2 0x1B1 JUMPI DUP1 PUSH4 0xD46ADD7 EQ PUSH2 0x1C4 JUMPI JUMPDEST PUSH1 0x0 DUP1 REVERT JUMPDEST PUSH2 0x1AF PUSH2 0x34C JUMP JUMPDEST STOP JUMPDEST PUSH2 0x1AF PUSH2 0x1BF CALLDATASIZE PUSH1 0x4 PUSH2 0xA80 JUMP JUMPDEST PUSH2 0x389 JUMP JUMPDEST PUSH2 0x1CC PUSH2 0x38C JUMP JUMPDEST PUSH1 0x40 MLOAD PUSH2 0x1D9 SWAP2 SWAP1 PUSH2 0x1092 JUMP JUMPDEST PUSH1 0x40 MLOAD DUP1 SWAP2 SUB SWAP1 RETURN JUMPDEST PUSH2 0x1F5 PUSH2 0x1F0 CALLDATASIZE PUSH1 0x4 PUSH2 0xC94 JUMP JUMPDEST PUSH2 0x3E5 JUMP JUMPDEST PUSH1 0x40 MLOAD PUSH2 0x1D9 SWAP2 SWAP1 PUSH2 0x10CA JUMP JUMPDEST PUSH2 0x1AF PUSH2 0x210 CALLDATASIZE PUSH1 0x4 PUSH2 0xC94 JUMP JUMPDEST PUSH2 0x3EC JUMP JUMPDEST PUSH2 0x228 PUSH2 0x223 CALLDATASIZE PUSH1 0x4 PUSH2 0xCAD JUMP JUMPDEST PUSH2 0x43D JUMP JUMPDEST PUSH1 0x40 MLOAD PUSH2 0x1D9 SWAP4 SWAP3 SWAP2 SWAP1 PUSH2 0xE85 JUMP JUMPDEST PUSH2 0x24A PUSH2 0x245 CALLDATASIZE PUSH1 0x4 PUSH2 0xABD JUMP JUMPDEST PUSH2 0x4DD JUMP JUMPDEST PUSH1 0x40 MLOAD PUSH2 0x1D9 SWAP2 SWAP1 PUSH2 0xE46 JUMP JUMPDEST PUSH2 0x1AF PUSH2 0x1BF CALLDATASIZE PUSH1 0x4 PUSH2 0xB00 JUMP JUMPDEST PUSH2 0x1F5 PUSH2 0x5BF JUMP JUMPDEST PUSH2 0x1AF PUSH2 0x5C5 JUMP JUMPDEST PUSH2 0x1AF PUSH2 0x62A JUMP JUMPDEST PUSH2 0x285 PUSH2 0x65C JUMP JUMPDEST PUSH1 0x40 MLOAD PUSH2 0x1D9 SWAP2 SWAP1 PUSH2 0x103B JUMP JUMPDEST PUSH2 0x1AF PUSH2 0x664 JUMP JUMPDEST PUSH2 0x24A PUSH2 0x2A8 CALLDATASIZE PUSH1 0x4 PUSH2 0xA2E JUMP JUMPDEST PUSH2 0x6C9 JUMP JUMPDEST PUSH2 0x1AF PUSH2 0x1BF CALLDATASIZE PUSH1 0x4 PUSH2 0xC5F JUMP JUMPDEST PUSH2 0x1F5 PUSH2 0x6D2 JUMP JUMPDEST PUSH2 0x2D6 PUSH2 0x2D1 CALLDATASIZE PUSH1 0x4 PUSH2 0xB35 JUMP JUMPDEST PUSH2 0x6E0 JUMP JUMPDEST PUSH1 0x40 MLOAD PUSH2 0x1D9 SWAP2 SWAP1 PUSH2 0xF4F JUMP JUMPDEST PUSH2 0x1AF PUSH2 0x79D JUMP JUMPDEST PUSH2 0x1F5 PUSH2 0x2F9 CALLDATASIZE PUSH1 0x4 PUSH2 0xC94 JUMP JUMPDEST PUSH2 0x7A2 JUMP JUMPDEST PUSH2 0x1AF PUSH2 0x7A8 JUMP JUMPDEST PUSH2 0x1F5 PUSH2 0x7B3 JUMP JUMPDEST PUSH2 0x1AF PUSH2 0x1BF CALLDATASIZE PUSH1 0x4 PUSH2 0xBCF JUMP JUMPDEST PUSH2 0x324 PUSH2 0x7B8 JUMP JUMPDEST PUSH1 0x40 MLOAD PUSH2 0x1D9 SWAP2 SWAP1 PUSH2 0x10B7 JUMP JUMPDEST PUSH2 0x1F5 PUSH2 0x7C0 JUMP JUMPDEST PUSH2 0x1AF PUSH2 0x347 CALLDATASIZE PUSH1 0x4 PUSH2 0xC94 JUMP JUMPDEST PUSH2 0x1BF JUMP JUMPDEST PUSH1 0x40 MLOAD PUSH32 0x8C379A000000000000000000000000000000000000000000000000000000000 DUP2 MSTORE PUSH1 0x4 ADD PUSH2 0x37E SWAP1 PUSH2 0xF18 JUMP JUMPDEST PUSH1 0x40 MLOAD DUP1 SWAP2 SUB SWAP1 REVERT JUMPDEST JUMP JUMPDEST POP JUMP JUMPDEST PUSH2 0x394 PUSH2 0x7C6 JUMP JUMPDEST PUSH1 0x40 MLOAD DUP1 PUSH1 0x40 ADD PUSH1 0x40 MSTORE DUP1 PUSH1 0x5 DUP2 MSTORE PUSH1 0x20 ADD PUSH1 0x40 MLOAD DUP1 PUSH1 0x40 ADD PUSH1 0x40 MSTORE DUP1 PUSH1 0x3 DUP2 MSTORE PUSH1 0x20 ADD PUSH32 0x6162630000000000000000000000000000000000000000000000000000000000 DUP2 MSTORE POP DUP2 MSTORE POP SWAP1 POP JUMPDEST SWAP1 JUMP JUMPDEST POP PUSH2 0x7C7 SWAP1 JUMP JUMPDEST CALLER PUSH20 0xFFFFFFFFFFFFFFFFFFFFFFFFFFFFFFFFFFFFFFFF AND PUSH32 0x7FCF532C15F0A6DB0BD6D0E038BEA71D30D808C7D98CB3BF7268A95BF5081B65 DUP3 PUSH1 0x40 MLOAD PUSH2 0x432 SWAP2 SWAP1 PUSH2 0x10CA JUMP JUMPDEST PUSH1 0x40 MLOAD DUP1 SWAP2 SUB SWAP1 LOG2 POP JUMP JUMPDEST POP POP PUSH1 0x40 DUP1 MLOAD DUP1 DUP3 ADD DUP3 MSTORE PUSH1 0x4 DUP1 DUP3 MSTORE PUSH32 0x1234567800000000000000000000000000000000000000000000000000000000 PUSH1 0x20 DUP1 DUP5 ADD SWAP2 SWAP1 SWAP2 MSTORE DUP4 MLOAD DUP1 DUP6 ADD DUP6 MSTORE DUP3 DUP2 MSTORE PUSH32 0x8765432100000000000000000000000000000000000000000000000000000000 DUP2 DUP4 ADD MSTORE DUP5 MLOAD DUP1 DUP7 ADD SWAP1 SWAP6 MSTORE SWAP2 DUP5 MSTORE PUSH32 0x616D657400000000000000000000000000000000000000000000000000000000 SWAP1 DUP5 ADD MSTORE SWAP1 SWAP4 SWAP1 SWAP3 POP JUMP JUMPDEST PUSH1 0x0 PUSH1 0x60 PUSH1 0x40 MLOAD DUP1 PUSH1 0x40 ADD PUSH1 0x40 MSTORE DUP1 PUSH1 0x1C DUP2 MSTORE PUSH1 0x20 ADD PUSH32 0x19457468657265756D205369676E6564204D6573736167653A0A333200000000 DUP2 MSTORE POP SWAP1 POP PUSH1 0x0 DUP2 DUP8 PUSH1 0x40 MLOAD PUSH1 0x20 ADD PUSH2 0x52E SWAP3 SWAP2 SWAP1 PUSH2 0xE24 JUMP JUMPDEST PUSH1 0x40 MLOAD PUSH1 0x20 DUP2 DUP4 SUB SUB DUP2 MSTORE SWAP1 PUSH1 0x40 MSTORE DUP1 MLOAD SWAP1 PUSH1 0x20 ADD KECCAK256 SWAP1 POP PUSH1 0x1 DUP2 DUP8 DUP8 DUP8 PUSH1 0x40 MLOAD PUSH1 0x0 DUP2 MSTORE PUSH1 0x20 ADD PUSH1 0x40 MSTORE PUSH1 0x40 MLOAD PUSH2 0x569 SWAP5 SWAP4 SWAP3 SWAP2 SWAP1 PUSH2 0xE67 JUMP JUMPDEST PUSH1 0x20 PUSH1 0x40 MLOAD PUSH1 0x20 DUP2 SUB SWAP1 DUP1 DUP5 SUB SWAP1 DUP6 GAS STATICCALL ISZERO DUP1 ISZERO PUSH2 0x58B JUMPI RETURNDATASIZE PUSH1 0x0 DUP1 RETURNDATACOPY RETURNDATASIZE PUSH1 0x0 REVERT JUMPDEST POP POP PUSH1 0x40 MLOAD PUSH32 0xFFFFFFFFFFFFFFFFFFFFFFFFFFFFFFFFFFFFFFFFFFFFFFFFFFFFFFFFFFFFFFE0 ADD MLOAD SWAP9 SWAP8 POP POP POP POP POP POP POP POP JUMP JUMPDEST PUSH2 0x7C7 SWAP1 JUMP JUMPDEST PUSH1 0x40 DUP1 MLOAD DUP1 DUP3 ADD DUP3 MSTORE PUSH1 0x14 DUP2 MSTORE PUSH32 0x5245564552545F574954485F434F4E5354414E54000000000000000000000000 PUSH1 0x20 DUP3 ADD MSTORE SWAP1 MLOAD PUSH32 0x8C379A000000000000000000000000000000000000000000000000000000000 DUP2 MSTORE PUSH2 0x37E SWAP2 SWAP1 PUSH1 0x4 ADD PUSH2 0xEC7 JUMP JUMPDEST PUSH1 0x40 MLOAD PUSH32 0x8C379A000000000000000000000000000000000000000000000000000000000 DUP2 MSTORE PUSH1 0x4 ADD PUSH2 0x37E SWAP1 PUSH2 0xEE1 JUMP JUMPDEST PUSH2 0x3E2 PUSH2 0x7E0 JUMP JUMPDEST PUSH1 0x40 DUP1 MLOAD DUP1 DUP3 ADD DUP3 MSTORE PUSH1 0x15 DUP2 MSTORE PUSH32 0x524551554952455F574954485F434F4E5354414E540000000000000000000000 PUSH1 0x20 DUP3 ADD MSTORE SWAP1 MLOAD PUSH32 0x8C379A000000000000000000000000000000000000000000000000000000000 DUP2 MSTORE PUSH2 0x37E SWAP2 SWAP1 PUSH1 0x4 ADD PUSH2 0xEC7 JUMP JUMPDEST POP SWAP3 SWAP4 SWAP3 POP POP POP JUMP JUMPDEST PUSH1 0x0 DUP1 SLOAD PUSH1 0x1 ADD SWAP1 DUP2 SWAP1 SSTORE SWAP1 JUMP JUMPDEST PUSH2 0x6E8 PUSH2 0x800 JUMP JUMPDEST POP PUSH1 0x40 DUP1 MLOAD PUSH1 0x80 DUP2 ADD DUP3 MSTORE SWAP2 DUP3 MSTORE DUP1 MLOAD DUP1 DUP3 ADD DUP3 MSTORE PUSH1 0x4 DUP1 DUP3 MSTORE PUSH32 0x1234567800000000000000000000000000000000000000000000000000000000 PUSH1 0x20 DUP4 DUP2 ADD SWAP2 SWAP1 SWAP2 MSTORE DUP1 DUP6 ADD SWAP3 SWAP1 SWAP3 MSTORE DUP3 MLOAD DUP1 DUP5 ADD DUP5 MSTORE DUP2 DUP2 MSTORE PUSH32 0x8765432100000000000000000000000000000000000000000000000000000000 DUP2 DUP5 ADD MSTORE DUP5 DUP5 ADD MSTORE DUP3 MLOAD DUP1 DUP5 ADD SWAP1 SWAP4 MSTORE DUP3 MSTORE PUSH32 0x616D657400000000000000000000000000000000000000000000000000000000 SWAP1 DUP3 ADD MSTORE PUSH1 0x60 DUP3 ADD MSTORE SWAP1 JUMP JUMPDEST PUSH2 0x387 JUMP JUMPDEST PUSH1 0x1 ADD SWAP1 JUMP JUMPDEST PUSH1 0x0 DUP1 SLOAD PUSH1 0x1 ADD SWAP1 SSTORE JUMP JUMPDEST PUSH1 0x1 SWAP1 JUMP JUMPDEST PUSH2 0x3E2 PUSH2 0x82E JUMP JUMPDEST PUSH2 0x4D2 SWAP1 JUMP JUMPDEST PUSH1 0x40 MLOAD DUP1 PUSH1 0x40 ADD PUSH1 0x40 MSTORE DUP1 PUSH1 0x0 DUP2 MSTORE PUSH1 0x20 ADD PUSH1 0x60 DUP2 MSTORE POP SWAP1 JUMP JUMPDEST PUSH1 0x40 MLOAD DUP1 PUSH1 0xA0 ADD PUSH1 0x40 MSTORE DUP1 PUSH2 0x7F3 PUSH2 0x82E JUMP JUMPDEST DUP2 MSTORE PUSH1 0x20 ADD PUSH1 0x60 DUP2 MSTORE POP SWAP1 JUMP JUMPDEST PUSH1 0x40 MLOAD DUP1 PUSH1 0xC0 ADD PUSH1 0x40 MSTORE DUP1 PUSH2 0x813 PUSH2 0x85C JUMP JUMPDEST DUP2 MSTORE PUSH1 0x20 ADD PUSH1 0x60 DUP2 MSTORE PUSH1 0x20 ADD PUSH1 0x60 DUP2 MSTORE PUSH1 0x20 ADD PUSH1 0x60 DUP2 MSTORE POP SWAP1 JUMP JUMPDEST PUSH1 0x40 MLOAD DUP1 PUSH1 0x80 ADD PUSH1 0x40 MSTORE DUP1 PUSH1 0x60 DUP2 MSTORE PUSH1 0x20 ADD PUSH1 0x0 PUSH4 0xFFFFFFFF AND DUP2 MSTORE PUSH1 0x20 ADD PUSH1 0x60 DUP2 MSTORE PUSH1 0x20 ADD PUSH1 0x60 DUP2 MSTORE POP SWAP1 JUMP JUMPDEST PUSH1 0x40 MLOAD DUP1 PUSH1 0x60 ADD PUSH1 0x40 MSTORE DUP1 PUSH1 0x0 DUP2 MSTORE PUSH1 0x20 ADD PUSH1 0x60 DUP2 MSTORE PUSH1 0x20 ADD PUSH1 0x60 DUP2 MSTORE POP SWAP1 JUMP JUMPDEST PUSH1 0x0 DUP3 PUSH1 0x1F DUP4 ADD SLT PUSH2 0x88D JUMPI DUP1 DUP2 REVERT JUMPDEST DUP2 CALLDATALOAD PUSH8 0xFFFFFFFFFFFFFFFF DUP2 GT ISZERO PUSH2 0x8A3 JUMPI DUP2 DUP3 REVERT JUMPDEST PUSH1 0x20 PUSH2 0x8B2 DUP2 DUP3 DUP5 MUL ADD PUSH2 0x10D3 JUMP JUMPDEST DUP3 DUP2 MSTORE SWAP3 POP DUP1 DUP4 ADD DUP5 DUP3 ADD PUSH1 0x0 JUMPDEST DUP5 DUP2 LT ISZERO PUSH2 0x8E9 JUMPI PUSH2 0x8D7 DUP9 DUP6 DUP5 CALLDATALOAD DUP11 ADD ADD PUSH2 0x8F4 JUMP JUMPDEST DUP4 MSTORE SWAP2 DUP4 ADD SWAP2 SWAP1 DUP4 ADD SWAP1 PUSH1 0x1 ADD PUSH2 0x8C0 JUMP JUMPDEST POP POP POP POP POP SWAP3 SWAP2 POP POP JUMP JUMPDEST PUSH1 0x0 DUP3 PUSH1 0x1F DUP4 ADD SLT PUSH2 0x904 JUMPI DUP1 DUP2 REVERT JUMPDEST DUP2 CALLDATALOAD PUSH8 0xFFFFFFFFFFFFFFFF DUP2 GT ISZERO PUSH2 0x91A JUMPI DUP2 DUP3 REVERT JUMPDEST PUSH2 0x94B PUSH1 0x20 PUSH32 0xFFFFFFFFFFFFFFFFFFFFFFFFFFFFFFFFFFFFFFFFFFFFFFFFFFFFFFFFFFFFFFE0 PUSH1 0x1F DUP5 ADD AND ADD PUSH2 0x10D3 JUMP JUMPDEST SWAP2 POP DUP1 DUP3 MSTORE DUP4 PUSH1 0x20 DUP3 DUP6 ADD ADD GT ISZERO PUSH2 0x962 JUMPI PUSH1 0x0 DUP1 REVERT JUMPDEST DUP1 PUSH1 0x20 DUP5 ADD PUSH1 0x20 DUP5 ADD CALLDATACOPY PUSH1 0x0 SWAP1 DUP3 ADD PUSH1 0x20 ADD MSTORE SWAP3 SWAP2 POP POP JUMP JUMPDEST PUSH1 0x0 PUSH1 0x80 DUP3 DUP5 SUB SLT ISZERO PUSH2 0x98C JUMPI DUP1 DUP2 REVERT JUMPDEST PUSH2 0x996 PUSH1 0x80 PUSH2 0x10D3 JUMP JUMPDEST SWAP1 POP PUSH1 0x0 DUP3 CALLDATALOAD PUSH8 0xFFFFFFFFFFFFFFFF DUP1 DUP3 GT ISZERO PUSH2 0x9B1 JUMPI DUP3 DUP4 REVERT JUMPDEST PUSH2 0x9BD DUP7 DUP4 DUP8 ADD PUSH2 0x8F4 JUMP JUMPDEST DUP5 MSTORE PUSH1 0x20 DUP6 ADD CALLDATALOAD SWAP2 POP PUSH4 0xFFFFFFFF DUP3 AND DUP3 EQ PUSH2 0x9D7 JUMPI DUP3 DUP4 REVERT JUMPDEST DUP2 PUSH1 0x20 DUP6 ADD MSTORE PUSH1 0x40 DUP6 ADD CALLDATALOAD SWAP2 POP DUP1 DUP3 GT ISZERO PUSH2 0x9F0 JUMPI DUP3 DUP4 REVERT JUMPDEST PUSH2 0x9FC DUP7 DUP4 DUP8 ADD PUSH2 0x87D JUMP JUMPDEST PUSH1 0x40 DUP6 ADD MSTORE PUSH1 0x60 DUP6 ADD CALLDATALOAD SWAP2 POP DUP1 DUP3 GT ISZERO PUSH2 0xA14 JUMPI DUP3 DUP4 REVERT JUMPDEST POP PUSH2 0xA21 DUP6 DUP3 DUP7 ADD PUSH2 0x8F4 JUMP JUMPDEST PUSH1 0x60 DUP5 ADD MSTORE POP POP SWAP3 SWAP2 POP POP JUMP JUMPDEST PUSH1 0x0 DUP1 PUSH1 0x0 DUP1 PUSH1 0x0 PUSH1 0xA0 DUP7 DUP9 SUB SLT ISZERO PUSH2 0xA46 JUMPI PUSH1 0x0 DUP1 REVERT JUMPDEST DUP6 CALLDATALOAD PUSH2 0xA51 DUP2 PUSH2 0x112A JUMP JUMPDEST SWAP5 POP PUSH1 0x20 DUP7 ADD CALLDATALOAD SWAP4 POP PUSH1 0x40 DUP7 ADD CALLDATALOAD SWAP3 POP PUSH1 0x60 DUP7 ADD CALLDATALOAD PUSH2 0xA6F DUP2 PUSH2 0x112A JUMP JUMPDEST SWAP5 SWAP8 SWAP4 SWAP7 POP SWAP2 SWAP5 PUSH1 0x80 ADD CALLDATALOAD SWAP3 SWAP2 POP POP JUMP JUMPDEST PUSH1 0x0 PUSH1 0x20 DUP3 DUP5 SUB SLT ISZERO PUSH2 0xA92 JUMPI PUSH1 0x0 DUP1 REVERT JUMPDEST DUP2 CALLDATALOAD PUSH8 0xFFFFFFFFFFFFFFFF DUP2 GT ISZERO PUSH2 0xAA9 JUMPI PUSH1 0x0 DUP1 REVERT JUMPDEST PUSH2 0xAB5 DUP5 DUP3 DUP6 ADD PUSH2 0x87D JUMP JUMPDEST SWAP5 SWAP4 POP POP POP POP JUMP JUMPDEST PUSH1 0x0 DUP1 PUSH1 0x0 DUP1 PUSH1 0x80 DUP6 DUP8 SUB SLT ISZERO PUSH2 0xAD3 JUMPI PUSH1 0x0 DUP1 REVERT JUMPDEST DUP5 CALLDATALOAD SWAP4 POP PUSH1 0x20 DUP6 ADD CALLDATALOAD PUSH1 0xFF DUP2 AND DUP2 EQ PUSH2 0xAEB JUMPI PUSH1 0x0 DUP1 REVERT JUMPDEST SWAP4 SWAP7 SWAP4 SWAP6 POP POP POP POP PUSH1 0x40 DUP3 ADD CALLDATALOAD SWAP2 PUSH1 0x60 ADD CALLDATALOAD SWAP1 JUMP JUMPDEST PUSH1 0x0 PUSH1 0x20 DUP3 DUP5 SUB SLT ISZERO PUSH2 0xB12 JUMPI PUSH1 0x0 DUP1 REVERT JUMPDEST DUP2 CALLDATALOAD PUSH8 0xFFFFFFFFFFFFFFFF DUP2 GT ISZERO PUSH2 0xB29 JUMPI PUSH1 0x0 DUP1 REVERT JUMPDEST PUSH2 0xAB5 DUP5 DUP3 DUP6 ADD PUSH2 0x8F4 JUMP JUMPDEST PUSH1 0x0 PUSH1 0x20 DUP3 DUP5 SUB SLT ISZERO PUSH2 0xB46 JUMPI DUP1 DUP2 REVERT JUMPDEST DUP2 CALLDATALOAD PUSH8 0xFFFFFFFFFFFFFFFF DUP1 DUP3 GT ISZERO PUSH2 0xB5D JUMPI DUP3 DUP4 REVERT JUMPDEST DUP2 DUP5 ADD PUSH1 0x60 DUP2 DUP8 SUB SLT ISZERO PUSH2 0xB6F JUMPI DUP4 DUP5 REVERT JUMPDEST PUSH2 0xB79 PUSH1 0x60 PUSH2 0x10D3 JUMP JUMPDEST SWAP3 POP DUP1 CALLDATALOAD DUP4 MSTORE PUSH1 0x20 DUP2 ADD CALLDATALOAD DUP3 DUP2 GT ISZERO PUSH2 0xB90 JUMPI DUP5 DUP6 REVERT JUMPDEST PUSH2 0xB9C DUP8 DUP3 DUP5 ADD PUSH2 0x8F4 JUMP JUMPDEST PUSH1 0x20 DUP6 ADD MSTORE POP PUSH1 0x40 DUP2 ADD CALLDATALOAD DUP3 DUP2 GT ISZERO PUSH2 0xBB3 JUMPI DUP5 DUP6 REVERT JUMPDEST PUSH2 0xBBF DUP8 DUP3 DUP5 ADD PUSH2 0x8F4 JUMP JUMPDEST PUSH1 0x40 DUP6 ADD MSTORE POP SWAP2 SWAP6 SWAP5 POP POP POP POP POP JUMP JUMPDEST PUSH1 0x0 PUSH1 0x20 DUP3 DUP5 SUB SLT ISZERO PUSH2 0xBE0 JUMPI DUP1 DUP2 REVERT JUMPDEST DUP2 CALLDATALOAD PUSH8 0xFFFFFFFFFFFFFFFF DUP1 DUP3 GT ISZERO PUSH2 0xBF7 JUMPI DUP3 DUP4 REVERT JUMPDEST DUP2 DUP5 ADD PUSH1 0x40 DUP2 DUP8 SUB SLT ISZERO PUSH2 0xC09 JUMPI DUP4 DUP5 REVERT JUMPDEST PUSH2 0xC13 PUSH1 0x40 PUSH2 0x10D3 JUMP JUMPDEST SWAP3 POP DUP1 CALLDATALOAD DUP3 DUP2 GT ISZERO PUSH2 0xC23 JUMPI DUP5 DUP6 REVERT JUMPDEST PUSH2 0xC2F DUP8 DUP3 DUP5 ADD PUSH2 0x97B JUMP JUMPDEST DUP5 MSTORE POP PUSH1 0x20 DUP2 ADD CALLDATALOAD DUP3 DUP2 GT ISZERO PUSH2 0xC43 JUMPI DUP5 DUP6 REVERT JUMPDEST PUSH2 0xC4F DUP8 DUP3 DUP5 ADD PUSH2 0x8F4 JUMP JUMPDEST PUSH1 0x20 DUP6 ADD MSTORE POP SWAP2 SWAP6 SWAP5 POP POP POP POP POP JUMP JUMPDEST PUSH1 0x0 PUSH1 0x20 DUP3 DUP5 SUB SLT ISZERO PUSH2 0xC71 JUMPI PUSH1 0x0 DUP1 REVERT JUMPDEST DUP2 CALLDATALOAD PUSH8 0xFFFFFFFFFFFFFFFF DUP2 GT ISZERO PUSH2 0xC88 JUMPI PUSH1 0x0 DUP1 REVERT JUMPDEST PUSH2 0xAB5 DUP5 DUP3 DUP6 ADD PUSH2 0x97B JUMP JUMPDEST PUSH1 0x0 PUSH1 0x20 DUP3 DUP5 SUB SLT ISZERO PUSH2 0xCA6 JUMPI PUSH1 0x0 DUP1 REVERT JUMPDEST POP CALLDATALOAD SWAP2 SWAP1 POP JUMP JUMPDEST PUSH1 0x0 DUP1 PUSH1 0x0 PUSH1 0x60 DUP5 DUP7 SUB SLT ISZERO PUSH2 0xCC1 JUMPI DUP1 DUP2 REVERT JUMPDEST DUP4 CALLDATALOAD SWAP3 POP PUSH1 0x20 DUP5 ADD CALLDATALOAD PUSH8 0xFFFFFFFFFFFFFFFF DUP1 DUP3 GT ISZERO PUSH2 0xCDF JUMPI DUP3 DUP4 REVERT JUMPDEST PUSH2 0xCEB DUP8 DUP4 DUP9 ADD PUSH2 0x8F4 JUMP JUMPDEST SWAP4 POP PUSH1 0x40 DUP7 ADD CALLDATALOAD SWAP2 POP DUP1 DUP3 GT ISZERO PUSH2 0xD00 JUMPI DUP3 DUP4 REVERT JUMPDEST POP PUSH2 0xD0D DUP7 DUP3 DUP8 ADD PUSH2 0x8F4 JUMP JUMPDEST SWAP2 POP POP SWAP3 POP SWAP3 POP SWAP3 JUMP JUMPDEST PUSH1 0x0 DUP2 MLOAD DUP1 DUP5 MSTORE PUSH2 0xD2F DUP2 PUSH1 0x20 DUP7 ADD PUSH1 0x20 DUP7 ADD PUSH2 0x10FA JUMP JUMPDEST PUSH1 0x1F ADD PUSH32 0xFFFFFFFFFFFFFFFFFFFFFFFFFFFFFFFFFFFFFFFFFFFFFFFFFFFFFFFFFFFFFFE0 AND SWAP3 SWAP1 SWAP3 ADD PUSH1 0x20 ADD SWAP3 SWAP2 POP POP JUMP JUMPDEST PUSH1 0x0 DUP2 MLOAD PUSH1 0x80 DUP5 MSTORE PUSH2 0xD76 PUSH1 0x80 DUP6 ADD DUP3 PUSH2 0xD17 JUMP JUMPDEST PUSH1 0x20 SWAP2 POP PUSH4 0xFFFFFFFF DUP3 DUP6 ADD MLOAD AND DUP3 DUP7 ADD MSTORE PUSH1 0x40 DUP5 ADD MLOAD DUP6 DUP3 SUB PUSH1 0x40 DUP8 ADD MSTORE DUP2 DUP2 MLOAD DUP1 DUP5 MSTORE DUP5 DUP5 ADD SWAP2 POP DUP5 DUP6 DUP3 MUL DUP6 ADD ADD DUP6 DUP5 ADD PUSH1 0x0 SWAP5 POP JUMPDEST DUP3 DUP6 LT ISZERO PUSH2 0xDFD JUMPI PUSH32 0xFFFFFFFFFFFFFFFFFFFFFFFFFFFFFFFFFFFFFFFFFFFFFFFFFFFFFFFFFFFFFFE0 DUP7 DUP4 SUB ADD DUP5 MSTORE PUSH2 0xDE9 DUP3 DUP3 MLOAD PUSH2 0xD17 JUMP JUMPDEST PUSH1 0x1 SWAP6 SWAP1 SWAP6 ADD SWAP5 SWAP4 DUP8 ADD SWAP4 SWAP2 POP DUP7 ADD PUSH2 0xDAF JUMP JUMPDEST POP PUSH1 0x60 DUP9 ADD MLOAD SWAP6 POP DUP9 DUP2 SUB PUSH1 0x60 DUP11 ADD MSTORE PUSH2 0xE17 DUP2 DUP8 PUSH2 0xD17 JUMP JUMPDEST SWAP10 SWAP9 POP POP POP POP POP POP POP POP POP JUMP JUMPDEST PUSH1 0x0 DUP4 MLOAD PUSH2 0xE36 DUP2 DUP5 PUSH1 0x20 DUP9 ADD PUSH2 0x10FA JUMP JUMPDEST SWAP2 SWAP1 SWAP2 ADD SWAP2 DUP3 MSTORE POP PUSH1 0x20 ADD SWAP2 SWAP1 POP JUMP JUMPDEST PUSH20 0xFFFFFFFFFFFFFFFFFFFFFFFFFFFFFFFFFFFFFFFF SWAP2 SWAP1 SWAP2 AND DUP2 MSTORE PUSH1 0x20 ADD SWAP1 JUMP JUMPDEST SWAP4 DUP5 MSTORE PUSH1 0xFF SWAP3 SWAP1 SWAP3 AND PUSH1 0x20 DUP5 ADD MSTORE PUSH1 0x40 DUP4 ADD MSTORE PUSH1 0x60 DUP3 ADD MSTORE PUSH1 0x80 ADD SWAP1 JUMP JUMPDEST PUSH1 0x0 PUSH1 0x60 DUP3 MSTORE PUSH2 0xE98 PUSH1 0x60 DUP4 ADD DUP7 PUSH2 0xD17 JUMP JUMPDEST DUP3 DUP2 SUB PUSH1 0x20 DUP5 ADD MSTORE PUSH2 0xEAA DUP2 DUP7 PUSH2 0xD17 JUMP JUMPDEST DUP4 DUP2 SUB PUSH1 0x40 DUP6 ADD MSTORE PUSH2 0xEBC DUP2 DUP7 PUSH2 0xD17 JUMP JUMPDEST SWAP8 SWAP7 POP POP POP POP POP POP POP JUMP JUMPDEST PUSH1 0x0 PUSH1 0x20 DUP3 MSTORE PUSH2 0xEDA PUSH1 0x20 DUP4 ADD DUP5 PUSH2 0xD17 JUMP JUMPDEST SWAP4 SWAP3 POP POP POP JUMP JUMPDEST PUSH1 0x20 DUP1 DUP3 MSTORE PUSH1 0xD SWAP1 DUP3 ADD MSTORE PUSH32 0x53494D504C455F52455645525400000000000000000000000000000000000000 PUSH1 0x40 DUP3 ADD MSTORE PUSH1 0x60 ADD SWAP1 JUMP JUMPDEST PUSH1 0x20 DUP1 DUP3 MSTORE PUSH1 0xE SWAP1 DUP3 ADD MSTORE PUSH32 0x53494D504C455F52455155495245000000000000000000000000000000000000 PUSH1 0x40 DUP3 ADD MSTORE PUSH1 0x60 ADD SWAP1 JUMP JUMPDEST PUSH1 0x0 PUSH1 0x20 DUP3 MSTORE DUP3 MLOAD PUSH1 0x80 PUSH1 0x20 DUP5 ADD MSTORE DUP1 MLOAD PUSH1 0xA0 DUP5 ADD MSTORE PUSH1 0x20 DUP2 ADD MLOAD PUSH1 0x60 PUSH1 0xC0 DUP6 ADD MSTORE PUSH2 0xF7F PUSH2 0x100 DUP6 ADD DUP3 PUSH2 0xD17 JUMP JUMPDEST PUSH1 0x40 DUP4 ADD MLOAD SWAP2 POP PUSH32 0xFFFFFFFFFFFFFFFFFFFFFFFFFFFFFFFFFFFFFFFFFFFFFFFFFFFFFFFFFFFFFF60 DUP6 DUP3 SUB ADD PUSH1 0xE0 DUP7 ADD MSTORE PUSH2 0xFBA DUP2 DUP4 PUSH2 0xD17 JUMP JUMPDEST SWAP3 POP POP POP PUSH1 0x20 DUP5 ADD MLOAD PUSH32 0xFFFFFFFFFFFFFFFFFFFFFFFFFFFFFFFFFFFFFFFFFFFFFFFFFFFFFFFFFFFFFFE0 DUP1 DUP6 DUP5 SUB ADD PUSH1 0x40 DUP7 ADD MSTORE PUSH2 0xFF8 DUP4 DUP4 PUSH2 0xD17 JUMP JUMPDEST PUSH1 0x40 DUP8 ADD MLOAD SWAP4 POP DUP2 DUP7 DUP3 SUB ADD PUSH1 0x60 DUP8 ADD MSTORE PUSH2 0x1013 DUP2 DUP6 PUSH2 0xD17 JUMP JUMPDEST SWAP3 POP POP PUSH1 0x60 DUP7 ADD MLOAD SWAP3 POP DUP1 DUP6 DUP4 SUB ADD PUSH1 0x80 DUP7 ADD MSTORE POP PUSH2 0x1032 DUP2 DUP4 PUSH2 0xD17 JUMP JUMPDEST SWAP6 SWAP5 POP POP POP POP POP JUMP JUMPDEST PUSH1 0x0 PUSH1 0x20 DUP3 MSTORE DUP3 MLOAD PUSH1 0x40 PUSH1 0x20 DUP5 ADD MSTORE PUSH2 0x1057 PUSH1 0x60 DUP5 ADD DUP3 PUSH2 0xD61 JUMP JUMPDEST PUSH1 0x20 DUP6 ADD MLOAD SWAP2 POP PUSH32 0xFFFFFFFFFFFFFFFFFFFFFFFFFFFFFFFFFFFFFFFFFFFFFFFFFFFFFFFFFFFFFFE0 DUP5 DUP3 SUB ADD PUSH1 0x40 DUP6 ADD MSTORE PUSH2 0x1032 DUP2 DUP4 PUSH2 0xD17 JUMP JUMPDEST PUSH1 0x0 PUSH1 0x20 DUP3 MSTORE DUP3 MLOAD PUSH1 0x20 DUP4 ADD MSTORE PUSH1 0x20 DUP4 ADD MLOAD PUSH1 0x40 DUP1 DUP5 ADD MSTORE PUSH2 0xAB5 PUSH1 0x60 DUP5 ADD DUP3 PUSH2 0xD17 JUMP JUMPDEST PUSH1 0x0 PUSH1 0x20 DUP3 MSTORE PUSH2 0xEDA PUSH1 0x20 DUP4 ADD DUP5 PUSH2 0xD61 JUMP JUMPDEST SWAP1 DUP2 MSTORE PUSH1 0x20 ADD SWAP1 JUMP JUMPDEST PUSH1 0x40 MLOAD DUP2 DUP2 ADD PUSH8 0xFFFFFFFFFFFFFFFF DUP2 GT DUP3 DUP3 LT OR ISZERO PUSH2 0x10F2 JUMPI PUSH1 0x0 DUP1 REVERT JUMPDEST PUSH1 0x40 MSTORE SWAP2 SWAP1 POP JUMP JUMPDEST PUSH1 0x0 JUMPDEST DUP4 DUP2 LT ISZERO PUSH2 0x1115 JUMPI DUP2 DUP2 ADD MLOAD DUP4 DUP3 ADD MSTORE PUSH1 0x20 ADD PUSH2 0x10FD JUMP JUMPDEST DUP4 DUP2 GT ISZERO PUSH2 0x1124 JUMPI PUSH1 0x0 DUP5 DUP5 ADD MSTORE JUMPDEST POP POP POP POP JUMP JUMPDEST PUSH20 0xFFFFFFFFFFFFFFFFFFFFFFFFFFFFFFFFFFFFFFFF DUP2 AND DUP2 EQ PUSH2 0x389 JUMPI PUSH1 0x0 DUP1 REVERT INVALID LOG3 PUSH6 0x627A7A723058 KECCAK256 0xa8 0x5f DUP9 PUSH9 0x51D673F07EFC3F329B 0x48 LOG3 PUSH24 0xE22C8806E5D5345B121E641BAD96D2106C6578706572696D PUSH6 0x6E74616CF564 PUSH20 0x6F6C634300050A00400000000000000000000000 "
			}
		}
	},
	"sourceTreeHashHex": "0x2702838dd8c29daf40b9133a00416dc5c1cc2bf179d17d09d93abe20b333dad2",
	"compiler": {
		"name": "solc",
		"version": "soljson-v0.5.10+commit.5a6ea5b1.js",
		"settings": {
			"optimizer": {
				"enabled": true,
				"runs": 1000000,
				"details": {
					"yul": true,
					"deduplicate": true,
					"cse": true,
					"constantOptimizer": true
				}
			},
			"outputSelection": {
				"*": {
					"*": [
						"abi",
						"evm.bytecode.object",
						"evm.bytecode.sourceMap",
						"evm.deployedBytecode.object",
						"evm.deployedBytecode.sourceMap",
						"devdoc"
					]
				}
			},
			"evmVersion": "constantinople",
			"remappings": []
		}
	}
}