{
    "schemaVersion": "2.0.0",
    "contractName": "AbiGenDummy",
    "compilerOutput": {
        "abi": [
            {
                "constant": true,
                "inputs": [],
                "name": "simpleRequire",
                "outputs": [],
                "payable": false,
                "stateMutability": "pure",
                "type": "function"
            },
            {
                "constant": true,
                "inputs": [
                    {
                        "name": "a",
                        "type": "bytes[]"
                    }
                ],
                "name": "acceptsAnArrayOfBytes",
                "outputs": [],
                "payable": false,
                "stateMutability": "pure",
                "type": "function"
            },
            {
                "constant": true,
                "inputs": [
                    {
                        "name": "hash",
                        "type": "bytes32"
                    },
                    {
                        "name": "v",
                        "type": "uint8"
                    },
                    {
                        "name": "r",
                        "type": "bytes32"
                    },
                    {
                        "name": "s",
                        "type": "bytes32"
                    }
                ],
                "name": "ecrecoverFn",
                "outputs": [
                    {
                        "name": "signerAddress",
                        "type": "address"
                    }
                ],
                "payable": false,
                "stateMutability": "pure",
                "type": "function"
            },
            {
                "constant": true,
                "inputs": [
                    {
                        "name": "a",
                        "type": "bytes"
                    }
                ],
                "name": "acceptsBytes",
                "outputs": [],
                "payable": false,
                "stateMutability": "pure",
                "type": "function"
            },
            {
                "constant": true,
                "inputs": [],
                "name": "revertWithConstant",
                "outputs": [],
                "payable": false,
                "stateMutability": "pure",
                "type": "function"
            },
            {
                "constant": true,
                "inputs": [],
                "name": "simpleRevert",
                "outputs": [],
                "payable": false,
                "stateMutability": "pure",
                "type": "function"
            },
            {
                "constant": true,
                "inputs": [],
                "name": "nestedStructOutput",
                "outputs": [
                    {
                        "components": [
                            {
                                "components": [
                                    {
                                        "name": "someBytes",
                                        "type": "bytes"
                                    },
                                    {
                                        "name": "anInteger",
                                        "type": "uint32"
                                    },
                                    {
                                        "name": "aDynamicArrayOfBytes",
                                        "type": "bytes[]"
                                    },
                                    {
                                        "name": "aString",
                                        "type": "string"
                                    }
                                ],
                                "name": "innerStruct",
                                "type": "tuple"
                            },
                            {
                                "name": "description",
                                "type": "string"
                            }
                        ],
                        "name": "",
                        "type": "tuple"
                    }
                ],
                "payable": false,
                "stateMutability": "pure",
                "type": "function"
            },
            {
                "constant": true,
                "inputs": [],
                "name": "requireWithConstant",
                "outputs": [],
                "payable": false,
                "stateMutability": "pure",
                "type": "function"
            },
            {
                "constant": true,
                "inputs": [
                    {
                        "components": [
                            {
                                "name": "someBytes",
                                "type": "bytes"
                            },
                            {
                                "name": "anInteger",
                                "type": "uint32"
                            },
                            {
                                "name": "aDynamicArrayOfBytes",
                                "type": "bytes[]"
                            },
                            {
                                "name": "aString",
                                "type": "string"
                            }
                        ],
                        "name": "s",
                        "type": "tuple"
                    }
                ],
                "name": "structInput",
                "outputs": [],
                "payable": false,
                "stateMutability": "pure",
                "type": "function"
            },
            {
                "constant": true,
                "inputs": [
                    {
                        "name": "x",
                        "type": "uint256"
                    }
                ],
                "name": "simplePureFunctionWithInput",
                "outputs": [
                    {
                        "name": "sum",
                        "type": "uint256"
                    }
                ],
                "payable": false,
                "stateMutability": "pure",
                "type": "function"
            },
            {
                "constant": true,
                "inputs": [],
                "name": "simplePureFunction",
                "outputs": [
                    {
                        "name": "result",
                        "type": "uint256"
                    }
                ],
                "payable": false,
                "stateMutability": "pure",
                "type": "function"
            },
            {
                "constant": true,
                "inputs": [
                    {
                        "components": [
                            {
                                "components": [
                                    {
                                        "name": "someBytes",
                                        "type": "bytes"
                                    },
                                    {
                                        "name": "anInteger",
                                        "type": "uint32"
                                    },
                                    {
                                        "name": "aDynamicArrayOfBytes",
                                        "type": "bytes[]"
                                    },
                                    {
                                        "name": "aString",
                                        "type": "string"
                                    }
                                ],
                                "name": "innerStruct",
                                "type": "tuple"
                            },
                            {
                                "name": "description",
                                "type": "string"
                            }
                        ],
                        "name": "n",
                        "type": "tuple"
                    }
                ],
                "name": "nestedStructInput",
                "outputs": [],
                "payable": false,
                "stateMutability": "pure",
                "type": "function"
            },
            {
                "constant": true,
                "inputs": [],
                "name": "structOutput",
                "outputs": [
                    {
                        "components": [
                            {
                                "name": "someBytes",
                                "type": "bytes"
                            },
                            {
                                "name": "anInteger",
                                "type": "uint32"
                            },
                            {
                                "name": "aDynamicArrayOfBytes",
                                "type": "bytes[]"
                            },
                            {
                                "name": "aString",
                                "type": "string"
                            }
                        ],
                        "name": "s",
                        "type": "tuple"
                    }
                ],
                "payable": false,
                "stateMutability": "pure",
                "type": "function"
            },
            {
                "constant": true,
                "inputs": [],
                "name": "pureFunctionWithConstant",
                "outputs": [
                    {
                        "name": "someConstant",
                        "type": "uint256"
                    }
                ],
                "payable": false,
                "stateMutability": "pure",
                "type": "function"
            },
            {
                "anonymous": false,
                "inputs": [
                    {
                        "indexed": false,
                        "name": "param",
                        "type": "uint8"
                    }
                ],
                "name": "AnEvent",
                "type": "event"
            }
        ],
        "evm": {
            "bytecode": {
                "linkReferences": {},
                "object": "0x608060405234801561001057600080fd5b50610aae806100206000396000f3fe608060405234801561001057600080fd5b50600436106100e95760003560e01c80635ba3c7c01161008c578063a3c2f6b611610066578063a3c2f6b61461019d578063ae2dae17146101a5578063d6d7618c146101b3578063d88be12f146101c8576100e9565b80635ba3c7c014610167578063647341eb1461016f5780638ee52b4e1461017d576100e9565b80633e9ef66a116100c85780633e9ef66a146101345780634582eab21461014257806345fdbdb71461014a57806359c28add14610152576100e9565b806209e437146100ee5780630527c28f146100f857806336b323961461010b575b600080fd5b6100f66101d0565b005b6100f661010636600461060f565b61020b565b61011e61011936600461064c565b61020e565b60405161012b91906108d1565b60405180910390f35b6100f661010636600461068f565b6100f66102f0565b6100f6610355565b61015a610387565b60405161012b9190610998565b6100f6610392565b6100f6610106366004610754565b61019061018b366004610789565b6103f7565b60405161012b9190610a0b565b6101906103fd565b6100f66101063660046106c4565b6101bb610402565b60405161012b91906109f8565b61019061040a565b6040517f08c379a000000000000000000000000000000000000000000000000000000000815260040161020290610961565b60405180910390fd5b50565b600060606040518060400160405280601c81526020017f19457468657265756d205369676e6564204d6573736167653a0a33320000000081525090506000818760405160200161025f9291906108af565b6040516020818303038152906040528051906020012090506001818787876040516000815260200160405260405161029a94939291906108f2565b6020604051602081039080840390855afa1580156102bc573d6000803e3d6000fd5b50506040517fffffffffffffffffffffffffffffffffffffffffffffffffffffffffffffffe0015198975050505050505050565b604080518082018252601481527f5245564552545f574954485f434f4e5354414e54000000000000000000000000602082015290517f08c379a00000000000000000000000000000000000000000000000000000000081526102029190600401610910565b6040517f08c379a00000000000000000000000000000000000000000000000000000000081526004016102029061092a565b61038f610410565b90565b604080518082018252601581527f524551554952455f574954485f434f4e5354414e540000000000000000000000602082015290517f08c379a00000000000000000000000000000000000000000000000000000000081526102029190600401610910565b60010190565b600190565b61038f610430565b6104d290565b6040518060a00160405280610423610430565b8152602001606081525090565b604051806080016040528060608152602001600063ffffffff16815260200160608152602001606081525090565b600082601f83011261046e578081fd5b813567ffffffffffffffff811115610484578182fd5b60206104938182840201610a14565b828152925080830184820160005b848110156104ca576104b8888584358a01016104d5565b835291830191908301906001016104a1565b505050505092915050565b600082601f8301126104e5578081fd5b813567ffffffffffffffff8111156104fb578182fd5b61052c60207fffffffffffffffffffffffffffffffffffffffffffffffffffffffffffffffe0601f84011601610a14565b915080825283602082850101111561054357600080fd5b8060208401602084013760009082016020015292915050565b60006080828403121561056d578081fd5b6105776080610a14565b90506000823567ffffffffffffffff80821115610592578283fd5b61059e868387016104d5565b84526020850135915063ffffffff821682146105b8578283fd5b81602085015260408501359150808211156105d1578283fd5b6105dd8683870161045e565b604085015260608501359150808211156105f5578283fd5b50610602858286016104d5565b6060840152505092915050565b60006020828403121561062157600080fd5b813567ffffffffffffffff81111561063857600080fd5b6106448482850161045e565b949350505050565b6000806000806080858703121561066257600080fd5b84359350602085013560ff8116811461067a57600080fd5b93969395505050506040820135916060013590565b6000602082840312156106a157600080fd5b813567ffffffffffffffff8111156106b857600080fd5b610644848285016104d5565b6000602082840312156106d5578081fd5b813567ffffffffffffffff808211156106ec578283fd5b818401604081870312156106fe578384fd5b6107086040610a14565b9250803582811115610718578485fd5b6107248782840161055c565b845250602081013582811115610738578485fd5b610744878284016104d5565b6020850152509195945050505050565b60006020828403121561076657600080fd5b813567ffffffffffffffff81111561077d57600080fd5b6106448482850161055c565b60006020828403121561079b57600080fd5b5035919050565b600081518084526107ba816020860160208601610a3b565b601f017fffffffffffffffffffffffffffffffffffffffffffffffffffffffffffffffe0169290920160200192915050565b600081516080845261080160808501826107a2565b6020915063ffffffff82850151168286015260408401518582036040870152818151808452848401915084858202850101858401600094505b82851015610888577fffffffffffffffffffffffffffffffffffffffffffffffffffffffffffffffe08683030184526108748282516107a2565b60019590950194938701939150860161083a565b506060880151955088810360608a01526108a281876107a2565b9998505050505050505050565b600083516108c1818460208801610a3b565b9190910191825250602001919050565b73ffffffffffffffffffffffffffffffffffffffff91909116815260200190565b93845260ff9290921660208401526040830152606082015260800190565b60006020825261092360208301846107a2565b9392505050565b6020808252600d908201527f53494d504c455f52455645525400000000000000000000000000000000000000604082015260600190565b6020808252600e908201527f53494d504c455f52455155495245000000000000000000000000000000000000604082015260600190565b6000602082528251604060208401526109b460608401826107ec565b602085015191507fffffffffffffffffffffffffffffffffffffffffffffffffffffffffffffffe08482030160408501526109ef81836107a2565b95945050505050565b60006020825261092360208301846107ec565b90815260200190565b60405181810167ffffffffffffffff81118282101715610a3357600080fd5b604052919050565b60005b83811015610a56578181015183820152602001610a3e565b83811115610a65576000848401525b5050505056fea365627a7a72305820b075a6f9922175904973d713593311d6620afb2c76192d71d1dc3fba51ecee1b6c6578706572696d656e74616cf564736f6c634300050a0040",
                "opcodes": "PUSH1 0x80 PUSH1 0x40 MSTORE CALLVALUE DUP1 ISZERO PUSH2 0x10 JUMPI PUSH1 0x0 DUP1 REVERT JUMPDEST POP PUSH2 0xAAE DUP1 PUSH2 0x20 PUSH1 0x0 CODECOPY PUSH1 0x0 RETURN INVALID PUSH1 0x80 PUSH1 0x40 MSTORE CALLVALUE DUP1 ISZERO PUSH2 0x10 JUMPI PUSH1 0x0 DUP1 REVERT JUMPDEST POP PUSH1 0x4 CALLDATASIZE LT PUSH2 0xE9 JUMPI PUSH1 0x0 CALLDATALOAD PUSH1 0xE0 SHR DUP1 PUSH4 0x5BA3C7C0 GT PUSH2 0x8C JUMPI DUP1 PUSH4 0xA3C2F6B6 GT PUSH2 0x66 JUMPI DUP1 PUSH4 0xA3C2F6B6 EQ PUSH2 0x19D JUMPI DUP1 PUSH4 0xAE2DAE17 EQ PUSH2 0x1A5 JUMPI DUP1 PUSH4 0xD6D7618C EQ PUSH2 0x1B3 JUMPI DUP1 PUSH4 0xD88BE12F EQ PUSH2 0x1C8 JUMPI PUSH2 0xE9 JUMP JUMPDEST DUP1 PUSH4 0x5BA3C7C0 EQ PUSH2 0x167 JUMPI DUP1 PUSH4 0x647341EB EQ PUSH2 0x16F JUMPI DUP1 PUSH4 0x8EE52B4E EQ PUSH2 0x17D JUMPI PUSH2 0xE9 JUMP JUMPDEST DUP1 PUSH4 0x3E9EF66A GT PUSH2 0xC8 JUMPI DUP1 PUSH4 0x3E9EF66A EQ PUSH2 0x134 JUMPI DUP1 PUSH4 0x4582EAB2 EQ PUSH2 0x142 JUMPI DUP1 PUSH4 0x45FDBDB7 EQ PUSH2 0x14A JUMPI DUP1 PUSH4 0x59C28ADD EQ PUSH2 0x152 JUMPI PUSH2 0xE9 JUMP JUMPDEST DUP1 PUSH3 0x9E437 EQ PUSH2 0xEE JUMPI DUP1 PUSH4 0x527C28F EQ PUSH2 0xF8 JUMPI DUP1 PUSH4 0x36B32396 EQ PUSH2 0x10B JUMPI JUMPDEST PUSH1 0x0 DUP1 REVERT JUMPDEST PUSH2 0xF6 PUSH2 0x1D0 JUMP JUMPDEST STOP JUMPDEST PUSH2 0xF6 PUSH2 0x106 CALLDATASIZE PUSH1 0x4 PUSH2 0x60F JUMP JUMPDEST PUSH2 0x20B JUMP JUMPDEST PUSH2 0x11E PUSH2 0x119 CALLDATASIZE PUSH1 0x4 PUSH2 0x64C JUMP JUMPDEST PUSH2 0x20E JUMP JUMPDEST PUSH1 0x40 MLOAD PUSH2 0x12B SWAP2 SWAP1 PUSH2 0x8D1 JUMP JUMPDEST PUSH1 0x40 MLOAD DUP1 SWAP2 SUB SWAP1 RETURN JUMPDEST PUSH2 0xF6 PUSH2 0x106 CALLDATASIZE PUSH1 0x4 PUSH2 0x68F JUMP JUMPDEST PUSH2 0xF6 PUSH2 0x2F0 JUMP JUMPDEST PUSH2 0xF6 PUSH2 0x355 JUMP JUMPDEST PUSH2 0x15A PUSH2 0x387 JUMP JUMPDEST PUSH1 0x40 MLOAD PUSH2 0x12B SWAP2 SWAP1 PUSH2 0x998 JUMP JUMPDEST PUSH2 0xF6 PUSH2 0x392 JUMP JUMPDEST PUSH2 0xF6 PUSH2 0x106 CALLDATASIZE PUSH1 0x4 PUSH2 0x754 JUMP JUMPDEST PUSH2 0x190 PUSH2 0x18B CALLDATASIZE PUSH1 0x4 PUSH2 0x789 JUMP JUMPDEST PUSH2 0x3F7 JUMP JUMPDEST PUSH1 0x40 MLOAD PUSH2 0x12B SWAP2 SWAP1 PUSH2 0xA0B JUMP JUMPDEST PUSH2 0x190 PUSH2 0x3FD JUMP JUMPDEST PUSH2 0xF6 PUSH2 0x106 CALLDATASIZE PUSH1 0x4 PUSH2 0x6C4 JUMP JUMPDEST PUSH2 0x1BB PUSH2 0x402 JUMP JUMPDEST PUSH1 0x40 MLOAD PUSH2 0x12B SWAP2 SWAP1 PUSH2 0x9F8 JUMP JUMPDEST PUSH2 0x190 PUSH2 0x40A JUMP JUMPDEST PUSH1 0x40 MLOAD PUSH32 0x8C379A000000000000000000000000000000000000000000000000000000000 DUP2 MSTORE PUSH1 0x4 ADD PUSH2 0x202 SWAP1 PUSH2 0x961 JUMP JUMPDEST PUSH1 0x40 MLOAD DUP1 SWAP2 SUB SWAP1 REVERT JUMPDEST POP JUMP JUMPDEST PUSH1 0x0 PUSH1 0x60 PUSH1 0x40 MLOAD DUP1 PUSH1 0x40 ADD PUSH1 0x40 MSTORE DUP1 PUSH1 0x1C DUP2 MSTORE PUSH1 0x20 ADD PUSH32 0x19457468657265756D205369676E6564204D6573736167653A0A333200000000 DUP2 MSTORE POP SWAP1 POP PUSH1 0x0 DUP2 DUP8 PUSH1 0x40 MLOAD PUSH1 0x20 ADD PUSH2 0x25F SWAP3 SWAP2 SWAP1 PUSH2 0x8AF JUMP JUMPDEST PUSH1 0x40 MLOAD PUSH1 0x20 DUP2 DUP4 SUB SUB DUP2 MSTORE SWAP1 PUSH1 0x40 MSTORE DUP1 MLOAD SWAP1 PUSH1 0x20 ADD KECCAK256 SWAP1 POP PUSH1 0x1 DUP2 DUP8 DUP8 DUP8 PUSH1 0x40 MLOAD PUSH1 0x0 DUP2 MSTORE PUSH1 0x20 ADD PUSH1 0x40 MSTORE PUSH1 0x40 MLOAD PUSH2 0x29A SWAP5 SWAP4 SWAP3 SWAP2 SWAP1 PUSH2 0x8F2 JUMP JUMPDEST PUSH1 0x20 PUSH1 0x40 MLOAD PUSH1 0x20 DUP2 SUB SWAP1 DUP1 DUP5 SUB SWAP1 DUP6 GAS STATICCALL ISZERO DUP1 ISZERO PUSH2 0x2BC JUMPI RETURNDATASIZE PUSH1 0x0 DUP1 RETURNDATACOPY RETURNDATASIZE PUSH1 0x0 REVERT JUMPDEST POP POP PUSH1 0x40 MLOAD PUSH32 0xFFFFFFFFFFFFFFFFFFFFFFFFFFFFFFFFFFFFFFFFFFFFFFFFFFFFFFFFFFFFFFE0 ADD MLOAD SWAP9 SWAP8 POP POP POP POP POP POP POP POP JUMP JUMPDEST PUSH1 0x40 DUP1 MLOAD DUP1 DUP3 ADD DUP3 MSTORE PUSH1 0x14 DUP2 MSTORE PUSH32 0x5245564552545F574954485F434F4E5354414E54000000000000000000000000 PUSH1 0x20 DUP3 ADD MSTORE SWAP1 MLOAD PUSH32 0x8C379A000000000000000000000000000000000000000000000000000000000 DUP2 MSTORE PUSH2 0x202 SWAP2 SWAP1 PUSH1 0x4 ADD PUSH2 0x910 JUMP JUMPDEST PUSH1 0x40 MLOAD PUSH32 0x8C379A000000000000000000000000000000000000000000000000000000000 DUP2 MSTORE PUSH1 0x4 ADD PUSH2 0x202 SWAP1 PUSH2 0x92A JUMP JUMPDEST PUSH2 0x38F PUSH2 0x410 JUMP JUMPDEST SWAP1 JUMP JUMPDEST PUSH1 0x40 DUP1 MLOAD DUP1 DUP3 ADD DUP3 MSTORE PUSH1 0x15 DUP2 MSTORE PUSH32 0x524551554952455F574954485F434F4E5354414E540000000000000000000000 PUSH1 0x20 DUP3 ADD MSTORE SWAP1 MLOAD PUSH32 0x8C379A000000000000000000000000000000000000000000000000000000000 DUP2 MSTORE PUSH2 0x202 SWAP2 SWAP1 PUSH1 0x4 ADD PUSH2 0x910 JUMP JUMPDEST PUSH1 0x1 ADD SWAP1 JUMP JUMPDEST PUSH1 0x1 SWAP1 JUMP JUMPDEST PUSH2 0x38F PUSH2 0x430 JUMP JUMPDEST PUSH2 0x4D2 SWAP1 JUMP JUMPDEST PUSH1 0x40 MLOAD DUP1 PUSH1 0xA0 ADD PUSH1 0x40 MSTORE DUP1 PUSH2 0x423 PUSH2 0x430 JUMP JUMPDEST DUP2 MSTORE PUSH1 0x20 ADD PUSH1 0x60 DUP2 MSTORE POP SWAP1 JUMP JUMPDEST PUSH1 0x40 MLOAD DUP1 PUSH1 0x80 ADD PUSH1 0x40 MSTORE DUP1 PUSH1 0x60 DUP2 MSTORE PUSH1 0x20 ADD PUSH1 0x0 PUSH4 0xFFFFFFFF AND DUP2 MSTORE PUSH1 0x20 ADD PUSH1 0x60 DUP2 MSTORE PUSH1 0x20 ADD PUSH1 0x60 DUP2 MSTORE POP SWAP1 JUMP JUMPDEST PUSH1 0x0 DUP3 PUSH1 0x1F DUP4 ADD SLT PUSH2 0x46E JUMPI DUP1 DUP2 REVERT JUMPDEST DUP2 CALLDATALOAD PUSH8 0xFFFFFFFFFFFFFFFF DUP2 GT ISZERO PUSH2 0x484 JUMPI DUP2 DUP3 REVERT JUMPDEST PUSH1 0x20 PUSH2 0x493 DUP2 DUP3 DUP5 MUL ADD PUSH2 0xA14 JUMP JUMPDEST DUP3 DUP2 MSTORE SWAP3 POP DUP1 DUP4 ADD DUP5 DUP3 ADD PUSH1 0x0 JUMPDEST DUP5 DUP2 LT ISZERO PUSH2 0x4CA JUMPI PUSH2 0x4B8 DUP9 DUP6 DUP5 CALLDATALOAD DUP11 ADD ADD PUSH2 0x4D5 JUMP JUMPDEST DUP4 MSTORE SWAP2 DUP4 ADD SWAP2 SWAP1 DUP4 ADD SWAP1 PUSH1 0x1 ADD PUSH2 0x4A1 JUMP JUMPDEST POP POP POP POP POP SWAP3 SWAP2 POP POP JUMP JUMPDEST PUSH1 0x0 DUP3 PUSH1 0x1F DUP4 ADD SLT PUSH2 0x4E5 JUMPI DUP1 DUP2 REVERT JUMPDEST DUP2 CALLDATALOAD PUSH8 0xFFFFFFFFFFFFFFFF DUP2 GT ISZERO PUSH2 0x4FB JUMPI DUP2 DUP3 REVERT JUMPDEST PUSH2 0x52C PUSH1 0x20 PUSH32 0xFFFFFFFFFFFFFFFFFFFFFFFFFFFFFFFFFFFFFFFFFFFFFFFFFFFFFFFFFFFFFFE0 PUSH1 0x1F DUP5 ADD AND ADD PUSH2 0xA14 JUMP JUMPDEST SWAP2 POP DUP1 DUP3 MSTORE DUP4 PUSH1 0x20 DUP3 DUP6 ADD ADD GT ISZERO PUSH2 0x543 JUMPI PUSH1 0x0 DUP1 REVERT JUMPDEST DUP1 PUSH1 0x20 DUP5 ADD PUSH1 0x20 DUP5 ADD CALLDATACOPY PUSH1 0x0 SWAP1 DUP3 ADD PUSH1 0x20 ADD MSTORE SWAP3 SWAP2 POP POP JUMP JUMPDEST PUSH1 0x0 PUSH1 0x80 DUP3 DUP5 SUB SLT ISZERO PUSH2 0x56D JUMPI DUP1 DUP2 REVERT JUMPDEST PUSH2 0x577 PUSH1 0x80 PUSH2 0xA14 JUMP JUMPDEST SWAP1 POP PUSH1 0x0 DUP3 CALLDATALOAD PUSH8 0xFFFFFFFFFFFFFFFF DUP1 DUP3 GT ISZERO PUSH2 0x592 JUMPI DUP3 DUP4 REVERT JUMPDEST PUSH2 0x59E DUP7 DUP4 DUP8 ADD PUSH2 0x4D5 JUMP JUMPDEST DUP5 MSTORE PUSH1 0x20 DUP6 ADD CALLDATALOAD SWAP2 POP PUSH4 0xFFFFFFFF DUP3 AND DUP3 EQ PUSH2 0x5B8 JUMPI DUP3 DUP4 REVERT JUMPDEST DUP2 PUSH1 0x20 DUP6 ADD MSTORE PUSH1 0x40 DUP6 ADD CALLDATALOAD SWAP2 POP DUP1 DUP3 GT ISZERO PUSH2 0x5D1 JUMPI DUP3 DUP4 REVERT JUMPDEST PUSH2 0x5DD DUP7 DUP4 DUP8 ADD PUSH2 0x45E JUMP JUMPDEST PUSH1 0x40 DUP6 ADD MSTORE PUSH1 0x60 DUP6 ADD CALLDATALOAD SWAP2 POP DUP1 DUP3 GT ISZERO PUSH2 0x5F5 JUMPI DUP3 DUP4 REVERT JUMPDEST POP PUSH2 0x602 DUP6 DUP3 DUP7 ADD PUSH2 0x4D5 JUMP JUMPDEST PUSH1 0x60 DUP5 ADD MSTORE POP POP SWAP3 SWAP2 POP POP JUMP JUMPDEST PUSH1 0x0 PUSH1 0x20 DUP3 DUP5 SUB SLT ISZERO PUSH2 0x621 JUMPI PUSH1 0x0 DUP1 REVERT JUMPDEST DUP2 CALLDATALOAD PUSH8 0xFFFFFFFFFFFFFFFF DUP2 GT ISZERO PUSH2 0x638 JUMPI PUSH1 0x0 DUP1 REVERT JUMPDEST PUSH2 0x644 DUP5 DUP3 DUP6 ADD PUSH2 0x45E JUMP JUMPDEST SWAP5 SWAP4 POP POP POP POP JUMP JUMPDEST PUSH1 0x0 DUP1 PUSH1 0x0 DUP1 PUSH1 0x80 DUP6 DUP8 SUB SLT ISZERO PUSH2 0x662 JUMPI PUSH1 0x0 DUP1 REVERT JUMPDEST DUP5 CALLDATALOAD SWAP4 POP PUSH1 0x20 DUP6 ADD CALLDATALOAD PUSH1 0xFF DUP2 AND DUP2 EQ PUSH2 0x67A JUMPI PUSH1 0x0 DUP1 REVERT JUMPDEST SWAP4 SWAP7 SWAP4 SWAP6 POP POP POP POP PUSH1 0x40 DUP3 ADD CALLDATALOAD SWAP2 PUSH1 0x60 ADD CALLDATALOAD SWAP1 JUMP JUMPDEST PUSH1 0x0 PUSH1 0x20 DUP3 DUP5 SUB SLT ISZERO PUSH2 0x6A1 JUMPI PUSH1 0x0 DUP1 REVERT JUMPDEST DUP2 CALLDATALOAD PUSH8 0xFFFFFFFFFFFFFFFF DUP2 GT ISZERO PUSH2 0x6B8 JUMPI PUSH1 0x0 DUP1 REVERT JUMPDEST PUSH2 0x644 DUP5 DUP3 DUP6 ADD PUSH2 0x4D5 JUMP JUMPDEST PUSH1 0x0 PUSH1 0x20 DUP3 DUP5 SUB SLT ISZERO PUSH2 0x6D5 JUMPI DUP1 DUP2 REVERT JUMPDEST DUP2 CALLDATALOAD PUSH8 0xFFFFFFFFFFFFFFFF DUP1 DUP3 GT ISZERO PUSH2 0x6EC JUMPI DUP3 DUP4 REVERT JUMPDEST DUP2 DUP5 ADD PUSH1 0x40 DUP2 DUP8 SUB SLT ISZERO PUSH2 0x6FE JUMPI DUP4 DUP5 REVERT JUMPDEST PUSH2 0x708 PUSH1 0x40 PUSH2 0xA14 JUMP JUMPDEST SWAP3 POP DUP1 CALLDATALOAD DUP3 DUP2 GT ISZERO PUSH2 0x718 JUMPI DUP5 DUP6 REVERT JUMPDEST PUSH2 0x724 DUP8 DUP3 DUP5 ADD PUSH2 0x55C JUMP JUMPDEST DUP5 MSTORE POP PUSH1 0x20 DUP2 ADD CALLDATALOAD DUP3 DUP2 GT ISZERO PUSH2 0x738 JUMPI DUP5 DUP6 REVERT JUMPDEST PUSH2 0x744 DUP8 DUP3 DUP5 ADD PUSH2 0x4D5 JUMP JUMPDEST PUSH1 0x20 DUP6 ADD MSTORE POP SWAP2 SWAP6 SWAP5 POP POP POP POP POP JUMP JUMPDEST PUSH1 0x0 PUSH1 0x20 DUP3 DUP5 SUB SLT ISZERO PUSH2 0x766 JUMPI PUSH1 0x0 DUP1 REVERT JUMPDEST DUP2 CALLDATALOAD PUSH8 0xFFFFFFFFFFFFFFFF DUP2 GT ISZERO PUSH2 0x77D JUMPI PUSH1 0x0 DUP1 REVERT JUMPDEST PUSH2 0x644 DUP5 DUP3 DUP6 ADD PUSH2 0x55C JUMP JUMPDEST PUSH1 0x0 PUSH1 0x20 DUP3 DUP5 SUB SLT ISZERO PUSH2 0x79B JUMPI PUSH1 0x0 DUP1 REVERT JUMPDEST POP CALLDATALOAD SWAP2 SWAP1 POP JUMP JUMPDEST PUSH1 0x0 DUP2 MLOAD DUP1 DUP5 MSTORE PUSH2 0x7BA DUP2 PUSH1 0x20 DUP7 ADD PUSH1 0x20 DUP7 ADD PUSH2 0xA3B JUMP JUMPDEST PUSH1 0x1F ADD PUSH32 0xFFFFFFFFFFFFFFFFFFFFFFFFFFFFFFFFFFFFFFFFFFFFFFFFFFFFFFFFFFFFFFE0 AND SWAP3 SWAP1 SWAP3 ADD PUSH1 0x20 ADD SWAP3 SWAP2 POP POP JUMP JUMPDEST PUSH1 0x0 DUP2 MLOAD PUSH1 0x80 DUP5 MSTORE PUSH2 0x801 PUSH1 0x80 DUP6 ADD DUP3 PUSH2 0x7A2 JUMP JUMPDEST PUSH1 0x20 SWAP2 POP PUSH4 0xFFFFFFFF DUP3 DUP6 ADD MLOAD AND DUP3 DUP7 ADD MSTORE PUSH1 0x40 DUP5 ADD MLOAD DUP6 DUP3 SUB PUSH1 0x40 DUP8 ADD MSTORE DUP2 DUP2 MLOAD DUP1 DUP5 MSTORE DUP5 DUP5 ADD SWAP2 POP DUP5 DUP6 DUP3 MUL DUP6 ADD ADD DUP6 DUP5 ADD PUSH1 0x0 SWAP5 POP JUMPDEST DUP3 DUP6 LT ISZERO PUSH2 0x888 JUMPI PUSH32 0xFFFFFFFFFFFFFFFFFFFFFFFFFFFFFFFFFFFFFFFFFFFFFFFFFFFFFFFFFFFFFFE0 DUP7 DUP4 SUB ADD DUP5 MSTORE PUSH2 0x874 DUP3 DUP3 MLOAD PUSH2 0x7A2 JUMP JUMPDEST PUSH1 0x1 SWAP6 SWAP1 SWAP6 ADD SWAP5 SWAP4 DUP8 ADD SWAP4 SWAP2 POP DUP7 ADD PUSH2 0x83A JUMP JUMPDEST POP PUSH1 0x60 DUP9 ADD MLOAD SWAP6 POP DUP9 DUP2 SUB PUSH1 0x60 DUP11 ADD MSTORE PUSH2 0x8A2 DUP2 DUP8 PUSH2 0x7A2 JUMP JUMPDEST SWAP10 SWAP9 POP POP POP POP POP POP POP POP POP JUMP JUMPDEST PUSH1 0x0 DUP4 MLOAD PUSH2 0x8C1 DUP2 DUP5 PUSH1 0x20 DUP9 ADD PUSH2 0xA3B JUMP JUMPDEST SWAP2 SWAP1 SWAP2 ADD SWAP2 DUP3 MSTORE POP PUSH1 0x20 ADD SWAP2 SWAP1 POP JUMP JUMPDEST PUSH20 0xFFFFFFFFFFFFFFFFFFFFFFFFFFFFFFFFFFFFFFFF SWAP2 SWAP1 SWAP2 AND DUP2 MSTORE PUSH1 0x20 ADD SWAP1 JUMP JUMPDEST SWAP4 DUP5 MSTORE PUSH1 0xFF SWAP3 SWAP1 SWAP3 AND PUSH1 0x20 DUP5 ADD MSTORE PUSH1 0x40 DUP4 ADD MSTORE PUSH1 0x60 DUP3 ADD MSTORE PUSH1 0x80 ADD SWAP1 JUMP JUMPDEST PUSH1 0x0 PUSH1 0x20 DUP3 MSTORE PUSH2 0x923 PUSH1 0x20 DUP4 ADD DUP5 PUSH2 0x7A2 JUMP JUMPDEST SWAP4 SWAP3 POP POP POP JUMP JUMPDEST PUSH1 0x20 DUP1 DUP3 MSTORE PUSH1 0xD SWAP1 DUP3 ADD MSTORE PUSH32 0x53494D504C455F52455645525400000000000000000000000000000000000000 PUSH1 0x40 DUP3 ADD MSTORE PUSH1 0x60 ADD SWAP1 JUMP JUMPDEST PUSH1 0x20 DUP1 DUP3 MSTORE PUSH1 0xE SWAP1 DUP3 ADD MSTORE PUSH32 0x53494D504C455F52455155495245000000000000000000000000000000000000 PUSH1 0x40 DUP3 ADD MSTORE PUSH1 0x60 ADD SWAP1 JUMP JUMPDEST PUSH1 0x0 PUSH1 0x20 DUP3 MSTORE DUP3 MLOAD PUSH1 0x40 PUSH1 0x20 DUP5 ADD MSTORE PUSH2 0x9B4 PUSH1 0x60 DUP5 ADD DUP3 PUSH2 0x7EC JUMP JUMPDEST PUSH1 0x20 DUP6 ADD MLOAD SWAP2 POP PUSH32 0xFFFFFFFFFFFFFFFFFFFFFFFFFFFFFFFFFFFFFFFFFFFFFFFFFFFFFFFFFFFFFFE0 DUP5 DUP3 SUB ADD PUSH1 0x40 DUP6 ADD MSTORE PUSH2 0x9EF DUP2 DUP4 PUSH2 0x7A2 JUMP JUMPDEST SWAP6 SWAP5 POP POP POP POP POP JUMP JUMPDEST PUSH1 0x0 PUSH1 0x20 DUP3 MSTORE PUSH2 0x923 PUSH1 0x20 DUP4 ADD DUP5 PUSH2 0x7EC JUMP JUMPDEST SWAP1 DUP2 MSTORE PUSH1 0x20 ADD SWAP1 JUMP JUMPDEST PUSH1 0x40 MLOAD DUP2 DUP2 ADD PUSH8 0xFFFFFFFFFFFFFFFF DUP2 GT DUP3 DUP3 LT OR ISZERO PUSH2 0xA33 JUMPI PUSH1 0x0 DUP1 REVERT JUMPDEST PUSH1 0x40 MSTORE SWAP2 SWAP1 POP JUMP JUMPDEST PUSH1 0x0 JUMPDEST DUP4 DUP2 LT ISZERO PUSH2 0xA56 JUMPI DUP2 DUP2 ADD MLOAD DUP4 DUP3 ADD MSTORE PUSH1 0x20 ADD PUSH2 0xA3E JUMP JUMPDEST DUP4 DUP2 GT ISZERO PUSH2 0xA65 JUMPI PUSH1 0x0 DUP5 DUP5 ADD MSTORE JUMPDEST POP POP POP POP JUMP INVALID LOG3 PUSH6 0x627A7A723058 KECCAK256 0xb0 PUSH22 0xA6F9922175904973D713593311D6620AFB2C76192D71 0xd1 0xdc EXTCODEHASH 0xba MLOAD 0xec 0xee SHL PUSH13 0x6578706572696D656E74616CF5 PUSH5 0x736F6C6343 STOP SDIV EXP STOP BLOCKHASH "
            }
        }
    },
    "sourceTreeHashHex": "0x4600945ca4db4ecdfb1e5a7de11e879f2a588668b45ea9948a3efd0f6347c8e0",
    "compiler": {
        "name": "solc",
        "version": "soljson-v0.5.10+commit.5a6ea5b1.js",
        "settings": {
            "optimizer": {
                "enabled": true,
                "runs": 1000000,
                "details": {
                    "yul": true,
                    "deduplicate": true,
                    "cse": true,
                    "constantOptimizer": true
                }
            },
            "outputSelection": {
                "*": {
                    "*": [
                        "abi",
                        "evm.bytecode.object",
                        "evm.bytecode.sourceMap",
                        "evm.deployedBytecode.object",
                        "evm.deployedBytecode.sourceMap"
                    ]
                }
            },
            "evmVersion": "constantinople",
            "remappings": []
        }
    }
}