{
	"schemaVersion": "2.0.0",
	"contractName": "AbiGenDummy",
	"compilerOutput": {
		"abi": [
			{
				"anonymous": false,
				"inputs": [
					{
						"indexed": false,
						"internalType": "bytes",
						"name": "someBytes",
						"type": "bytes"
					},
					{
						"indexed": false,
						"internalType": "string",
						"name": "someString",
						"type": "string"
					}
				],
				"name": "SimpleEvent",
				"type": "event"
			},
			{
				"anonymous": false,
				"inputs": [
					{
						"indexed": true,
						"internalType": "address",
						"name": "_owner",
						"type": "address"
					},
					{
						"indexed": false,
						"internalType": "uint256",
						"name": "_value",
						"type": "uint256"
					}
				],
				"name": "Withdrawal",
				"type": "event"
			},
			{
				"constant": true,
				"inputs": [
					{
						"internalType": "bytes[]",
						"name": "a",
						"type": "bytes[]"
					}
				],
				"name": "acceptsAnArrayOfBytes",
				"outputs": [],
				"payable": false,
				"stateMutability": "pure",
				"type": "function"
			},
			{
				"constant": true,
				"inputs": [
					{
						"internalType": "bytes",
						"name": "a",
						"type": "bytes"
					}
				],
				"name": "acceptsBytes",
				"outputs": [],
				"payable": false,
				"stateMutability": "pure",
				"type": "function"
			},
			{
				"constant": true,
				"inputs": [
					{
						"components": [
							{
								"internalType": "uint256",
								"name": "foo",
								"type": "uint256"
							},
							{
								"internalType": "bytes",
								"name": "bar",
								"type": "bytes"
							},
							{
								"internalType": "string",
								"name": "car",
								"type": "string"
							}
						],
						"internalType": "struct AbiGenDummy.ComplexInput",
						"name": "complexInput",
						"type": "tuple"
					}
				],
				"name": "complexInputComplexOutput",
				"outputs": [
					{
						"components": [
							{
								"components": [
									{
										"internalType": "uint256",
										"name": "foo",
										"type": "uint256"
									},
									{
										"internalType": "bytes",
										"name": "bar",
										"type": "bytes"
									},
									{
										"internalType": "string",
										"name": "car",
										"type": "string"
									}
								],
								"internalType": "struct AbiGenDummy.ComplexInput",
								"name": "input",
								"type": "tuple"
							},
							{
								"internalType": "bytes",
								"name": "lorem",
								"type": "bytes"
							},
							{
								"internalType": "bytes",
								"name": "ipsum",
								"type": "bytes"
							},
							{
								"internalType": "string",
								"name": "dolor",
								"type": "string"
							}
						],
						"internalType": "struct AbiGenDummy.ComplexOutput",
						"name": "",
						"type": "tuple"
					}
				],
				"payable": false,
				"stateMutability": "pure",
				"type": "function"
			},
			{
				"constant": true,
				"inputs": [
					{
						"internalType": "bytes32",
						"name": "hash",
						"type": "bytes32"
					},
					{
						"internalType": "uint8",
						"name": "v",
						"type": "uint8"
					},
					{
						"internalType": "bytes32",
						"name": "r",
						"type": "bytes32"
					},
					{
						"internalType": "bytes32",
						"name": "s",
						"type": "bytes32"
					}
				],
				"name": "ecrecoverFn",
				"outputs": [
					{
						"internalType": "address",
						"name": "signerAddress",
						"type": "address"
					}
				],
				"payable": false,
				"stateMutability": "pure",
				"type": "function"
			},
			{
				"constant": false,
				"inputs": [],
				"name": "emitSimpleEvent",
				"outputs": [],
				"payable": false,
				"stateMutability": "nonpayable",
				"type": "function"
			},
			{
				"constant": true,
				"inputs": [],
				"name": "methodReturningArrayOfStructs",
				"outputs": [
					{
						"components": [
							{
								"internalType": "bytes",
								"name": "someBytes",
								"type": "bytes"
							},
							{
								"internalType": "uint32",
								"name": "anInteger",
								"type": "uint32"
							},
							{
								"internalType": "bytes[]",
								"name": "aDynamicArrayOfBytes",
								"type": "bytes[]"
							},
							{
								"internalType": "string",
								"name": "aString",
								"type": "string"
							}
						],
						"internalType": "struct AbiGenDummy.Struct[]",
						"name": "",
						"type": "tuple[]"
					}
				],
				"payable": false,
				"stateMutability": "pure",
				"type": "function"
			},
			{
				"constant": true,
				"inputs": [],
				"name": "methodReturningMultipleValues",
				"outputs": [
					{
						"internalType": "uint256",
						"name": "",
						"type": "uint256"
					},
					{
						"internalType": "string",
						"name": "",
						"type": "string"
					}
				],
				"payable": false,
				"stateMutability": "pure",
				"type": "function"
			},
			{
				"constant": true,
				"inputs": [],
				"name": "methodUsingNestedStructWithInnerStructNotUsedElsewhere",
				"outputs": [
					{
						"components": [
							{
								"components": [
									{
										"internalType": "uint256",
										"name": "aField",
										"type": "uint256"
									}
								],
								"internalType": "struct AbiGenDummy.StructNotDirectlyUsedAnywhere",
								"name": "innerStruct",
								"type": "tuple"
							}
						],
						"internalType": "struct AbiGenDummy.NestedStructWithInnerStructNotUsedElsewhere",
						"name": "",
						"type": "tuple"
					}
				],
				"payable": false,
				"stateMutability": "pure",
				"type": "function"
			},
			{
				"constant": true,
				"inputs": [
					{
						"internalType": "uint256",
						"name": "",
						"type": "uint256"
					},
					{
						"internalType": "bytes",
						"name": "",
						"type": "bytes"
					},
					{
						"internalType": "string",
						"name": "",
						"type": "string"
					}
				],
				"name": "multiInputMultiOutput",
				"outputs": [
					{
						"internalType": "bytes",
						"name": "",
						"type": "bytes"
					},
					{
						"internalType": "bytes",
						"name": "",
						"type": "bytes"
					},
					{
						"internalType": "string",
						"name": "",
						"type": "string"
					}
				],
				"payable": false,
				"stateMutability": "pure",
				"type": "function"
			},
			{
				"constant": true,
				"inputs": [
					{
						"components": [
							{
								"components": [
									{
										"internalType": "bytes",
										"name": "someBytes",
										"type": "bytes"
									},
									{
										"internalType": "uint32",
										"name": "anInteger",
										"type": "uint32"
									},
									{
										"internalType": "bytes[]",
										"name": "aDynamicArrayOfBytes",
										"type": "bytes[]"
									},
									{
										"internalType": "string",
										"name": "aString",
										"type": "string"
									}
								],
								"internalType": "struct AbiGenDummy.Struct",
								"name": "innerStruct",
								"type": "tuple"
							},
							{
								"internalType": "string",
								"name": "description",
								"type": "string"
							}
						],
						"internalType": "struct AbiGenDummy.NestedStruct",
						"name": "n",
						"type": "tuple"
					}
				],
				"name": "nestedStructInput",
				"outputs": [],
				"payable": false,
				"stateMutability": "pure",
				"type": "function"
			},
			{
				"constant": true,
				"inputs": [],
				"name": "nestedStructOutput",
				"outputs": [
					{
						"components": [
							{
								"components": [
									{
										"internalType": "bytes",
										"name": "someBytes",
										"type": "bytes"
									},
									{
										"internalType": "uint32",
										"name": "anInteger",
										"type": "uint32"
									},
									{
										"internalType": "bytes[]",
										"name": "aDynamicArrayOfBytes",
										"type": "bytes[]"
									},
									{
										"internalType": "string",
										"name": "aString",
										"type": "string"
									}
								],
								"internalType": "struct AbiGenDummy.Struct",
								"name": "innerStruct",
								"type": "tuple"
							},
							{
								"internalType": "string",
								"name": "description",
								"type": "string"
							}
						],
						"internalType": "struct AbiGenDummy.NestedStruct",
						"name": "",
						"type": "tuple"
					}
				],
				"payable": false,
				"stateMutability": "pure",
				"type": "function"
			},
			{
				"constant": true,
				"inputs": [],
				"name": "noInputNoOutput",
				"outputs": [],
				"payable": false,
				"stateMutability": "pure",
				"type": "function"
			},
			{
				"constant": true,
				"inputs": [],
				"name": "noInputSimpleOutput",
				"outputs": [
					{
						"internalType": "uint256",
						"name": "",
						"type": "uint256"
					}
				],
				"payable": false,
				"stateMutability": "pure",
				"type": "function"
			},
			{
				"constant": false,
				"inputs": [
					{
						"internalType": "uint256",
						"name": "id",
						"type": "uint256"
					},
					{
						"internalType": "uint256",
						"name": "someValue",
						"type": "uint256"
					}
				],
				"name": "nonPureFunction",
				"outputs": [
					{
						"internalType": "uint256",
						"name": "result",
						"type": "uint256"
					}
				],
				"payable": false,
				"stateMutability": "nonpayable",
				"type": "function"
			},
			{
				"constant": false,
				"inputs": [],
				"name": "nonPureMethod",
				"outputs": [
					{
						"internalType": "uint256",
						"name": "",
						"type": "uint256"
					}
				],
				"payable": false,
				"stateMutability": "nonpayable",
				"type": "function"
			},
			{
				"constant": false,
				"inputs": [],
				"name": "nonPureMethodThatReturnsNothing",
				"outputs": [],
				"payable": false,
				"stateMutability": "nonpayable",
				"type": "function"
			},
			{
				"constant": true,
				"inputs": [
					{
						"internalType": "string",
						"name": "a",
						"type": "string"
					}
				],
				"name": "overloadedMethod",
				"outputs": [],
				"payable": false,
				"stateMutability": "pure",
				"type": "function"
			},
			{
				"constant": true,
				"inputs": [
					{
						"internalType": "int256",
						"name": "a",
						"type": "int256"
					}
				],
				"name": "overloadedMethod",
				"outputs": [],
				"payable": false,
				"stateMutability": "pure",
				"type": "function"
			},
			{
				"constant": true,
				"inputs": [],
				"name": "pureFunctionWithConstant",
				"outputs": [
					{
						"internalType": "uint256",
						"name": "someConstant",
						"type": "uint256"
					}
				],
				"payable": false,
				"stateMutability": "pure",
				"type": "function"
			},
			{
				"constant": true,
				"inputs": [],
				"name": "requireWithConstant",
				"outputs": [],
				"payable": false,
				"stateMutability": "pure",
				"type": "function"
			},
			{
				"constant": true,
				"inputs": [],
				"name": "revertWithConstant",
				"outputs": [],
				"payable": false,
				"stateMutability": "pure",
				"type": "function"
			},
			{
				"constant": true,
				"inputs": [
					{
						"internalType": "uint256",
						"name": "",
						"type": "uint256"
					}
				],
				"name": "simpleInputNoOutput",
				"outputs": [],
				"payable": false,
				"stateMutability": "pure",
				"type": "function"
			},
			{
				"constant": true,
				"inputs": [
					{
						"internalType": "uint256",
						"name": "",
						"type": "uint256"
					}
				],
				"name": "simpleInputSimpleOutput",
				"outputs": [
					{
						"internalType": "uint256",
						"name": "",
						"type": "uint256"
					}
				],
				"payable": false,
				"stateMutability": "pure",
				"type": "function"
			},
			{
				"constant": true,
				"inputs": [],
				"name": "simplePureFunction",
				"outputs": [
					{
						"internalType": "uint256",
						"name": "result",
						"type": "uint256"
					}
				],
				"payable": false,
				"stateMutability": "pure",
				"type": "function"
			},
			{
				"constant": true,
				"inputs": [
					{
						"internalType": "uint256",
						"name": "x",
						"type": "uint256"
					}
				],
				"name": "simplePureFunctionWithInput",
				"outputs": [
					{
						"internalType": "uint256",
						"name": "sum",
						"type": "uint256"
					}
				],
				"payable": false,
				"stateMutability": "pure",
				"type": "function"
			},
			{
				"constant": true,
				"inputs": [],
				"name": "simpleRequire",
				"outputs": [],
				"payable": false,
				"stateMutability": "pure",
				"type": "function"
			},
			{
				"constant": true,
				"inputs": [],
				"name": "simpleRevert",
				"outputs": [],
				"payable": false,
				"stateMutability": "pure",
				"type": "function"
			},
			{
				"constant": true,
				"inputs": [
					{
						"internalType": "uint256",
						"name": "",
						"type": "uint256"
					}
				],
				"name": "someMapping",
				"outputs": [
					{
						"internalType": "uint256",
						"name": "",
						"type": "uint256"
					}
				],
				"payable": false,
				"stateMutability": "view",
				"type": "function"
			},
			{
				"constant": true,
				"inputs": [
					{
						"components": [
							{
								"internalType": "bytes",
								"name": "someBytes",
								"type": "bytes"
							},
							{
								"internalType": "uint32",
								"name": "anInteger",
								"type": "uint32"
							},
							{
								"internalType": "bytes[]",
								"name": "aDynamicArrayOfBytes",
								"type": "bytes[]"
							},
							{
								"internalType": "string",
								"name": "aString",
								"type": "string"
							}
						],
						"internalType": "struct AbiGenDummy.Struct",
						"name": "s",
						"type": "tuple"
					}
				],
				"name": "structInput",
				"outputs": [],
				"payable": false,
				"stateMutability": "pure",
				"type": "function"
			},
			{
				"constant": true,
				"inputs": [],
				"name": "structOutput",
				"outputs": [
					{
						"components": [
							{
								"internalType": "bytes",
								"name": "someBytes",
								"type": "bytes"
							},
							{
								"internalType": "uint32",
								"name": "anInteger",
								"type": "uint32"
							},
							{
								"internalType": "bytes[]",
								"name": "aDynamicArrayOfBytes",
								"type": "bytes[]"
							},
							{
								"internalType": "string",
								"name": "aString",
								"type": "string"
							}
						],
						"internalType": "struct AbiGenDummy.Struct",
						"name": "s",
						"type": "tuple"
					}
				],
				"payable": false,
				"stateMutability": "pure",
				"type": "function"
			},
			{
				"constant": true,
				"inputs": [
					{
						"internalType": "address",
						"name": "x",
						"type": "address"
					},
					{
						"internalType": "uint256",
						"name": "a",
						"type": "uint256"
					},
					{
						"internalType": "uint256",
						"name": "b",
						"type": "uint256"
					},
					{
						"internalType": "address",
						"name": "y",
						"type": "address"
					},
					{
						"internalType": "uint256",
						"name": "c",
						"type": "uint256"
					}
				],
				"name": "withAddressInput",
				"outputs": [
					{
						"internalType": "address",
						"name": "z",
						"type": "address"
					}
				],
				"payable": false,
				"stateMutability": "pure",
				"type": "function"
			},
			{
				"constant": false,
				"inputs": [
					{
						"internalType": "uint256",
						"name": "wad",
						"type": "uint256"
					}
				],
				"name": "withdraw",
				"outputs": [],
				"payable": false,
				"stateMutability": "nonpayable",
				"type": "function"
			}
		],
		"devdoc": {
			"methods": {
				"acceptsAnArrayOfBytes(bytes[])": {
					"details": "a method that accepts an array of bytes",
					"params": {
						"a": "the array of bytes being accepted"
					}
				},
				"complexInputComplexOutput((uint256,bytes,string))": {
					"details": "Tests decoding when the input and output are complex."
				},
				"ecrecoverFn(bytes32,uint8,bytes32,bytes32)": {
					"details": "test that devdocs will be generated and     that multiline devdocs will look okay",
					"params": {
						"hash": "description of some hash. Let's make this line super long to demonstrate hanging indents for method params. It has to be more than one hundred twenty columns.",
						"r": "ECDSA r output",
						"s": "ECDSA s output",
						"v": "some v, recovery id"
					},
					"return": "the signerAddress that created this signature.  this line too is super long in order to demonstrate the proper hanging indentation in generated code."
				},
				"multiInputMultiOutput(uint256,bytes,string)": {
					"details": "Tests decoding when the input and output are complex and have more than one argument."
				},
				"noInputNoOutput()": {
					"details": "Tests decoding when both input and output are empty."
				},
				"noInputSimpleOutput()": {
					"details": "Tests decoding when input is empty and output is non-empty."
				},
				"simpleInputNoOutput(uint256)": {
					"details": "Tests decoding when input is not empty but output is empty."
				},
				"simpleInputSimpleOutput(uint256)": {
					"details": "Tests decoding when both input and output are non-empty."
				},
				"structOutput()": {
					"details": "a method that returns a struct",
					"return": "a Struct struct"
				}
			}
		},
		"evm": {
			"bytecode": {
				"linkReferences": {},
				"object": "0x608060405234801561001057600080fd5b50611517806100206000396000f3fe608060405234801561001057600080fd5b50600436106101ef5760003560e01c8063647341eb1161010f578063bb607362116100a2578063d88be12f11610071578063d88be12f146103d7578063ee8b86fb146103df578063f408fb311461028f578063fa315f9d146103f2576101ef565b8063bb6073621461038f578063bdab1688146103a5578063cd3c0b97146103ba578063d6d7618c146103c2576101ef565b80638ee52b4e116100de5780638ee52b4e1461035e5780639a3b618514610371578063a3c2f6b614610379578063ae2dae1714610381576101ef565b8063647341eb1461032057806376f15d5b1461032e5780637833bec0146103365780637a791e6e14610356576101ef565b80634582eab211610187578063586f84b211610156578063586f84b2146102db57806359c28add146102f05780635ba3c7c01461030557806363d69c881461030d576101ef565b80634582eab2146102a557806345fdbdb7146102ad5780634bb9a37b146102b557806351bd9ce7146102c8576101ef565b80633687617d116101c35780633687617d1461024d57806336b323961461026f5780633e9ef66a1461028f5780634303a5421461029d576101ef565b806209e437146101f45780630527c28f146101fe5780631310e444146102115780632e1a7d4d1461023a575b600080fd5b6101fc610400565b005b6101fc61020c366004610ce2565b61043d565b61022461021f366004610dea565b610440565b6040516102319190611419565b60405180910390f35b6101fc610248366004610dea565b610447565b61026061025b366004610f5f565b610498565b604051610231939291906111a3565b61028261027d366004610d6e565b610538565b6040516102319190611118565b6101fc61020c366004610daf565b61022461061a565b6101fc610621565b6101fc610686565b6102246102c3366004610dea565b6106b8565b6102246102d6366004610fc9565b6106ca565b6102e36106e7565b60405161023191906113a4565b6102f86106ef565b60405161023191906113af565b6101fc6106f7565b61028261031b366004610c91565b61075c565b6101fc61020c366004610f2c565b610224610765565b610349610344366004610e02565b610772565b60405161023191906112d9565b6101fc61082f565b61022461036c366004610dea565b610834565b6101fc61083a565b610224610844565b6101fc61020c366004610e9c565b610397610849565b604051610231929190611422565b6103ad610882565b6040516102319190611139565b6101fc610887565b6103ca6108be565b6040516102319190611406565b610224610a17565b6101fc6103ed366004610dea565b61020c565b6101fc61020c366004610dea565b6040517f08c379a0000000000000000000000000000000000000000000000000000000008152600401610432906112a2565b60405180910390fd5b565b50565b506107c790565b3373ffffffffffffffffffffffffffffffffffffffff167f7fcf532c15f0a6db0bd6d0e038bea71d30d808c7d98cb3bf7268a95bf5081b658260405161048d9190611419565b60405180910390a250565b505060408051808201825260048082527f1234567800000000000000000000000000000000000000000000000000000000602080840191909152835180850185528281527f87654321000000000000000000000000000000000000000000000000000000008183015284518086019095529184527f616d657400000000000000000000000000000000000000000000000000000000908401529093909250565b600060606040518060400160405280601c81526020017f19457468657265756d205369676e6564204d6573736167653a0a3332000000008152509050600081876040516020016105899291906110f6565b604051602081830303815290604052805190602001209050600181878787604051600081526020016040526040516105c49493929190611185565b6020604051602081039080840390855afa1580156105e6573d6000803e3d6000fd5b50506040517fffffffffffffffffffffffffffffffffffffffffffffffffffffffffffffffe0015198975050505050505050565b6107c75b90565b604080518082018252601481527f5245564552545f574954485f434f4e5354414e54000000000000000000000000602082015290517f08c379a000000000000000000000000000000000000000000000000000000000815261043291906004016111e5565b6040517f08c379a00000000000000000000000000000000000000000000000000000000081526004016104329061126b565b60006020819052908152604090205481565b600082815260208190526040902060018201908190555b92915050565b61061e610a1d565b61061e610a35565b604080518082018252601581527f524551554952455f574954485f434f4e5354414e540000000000000000000000602082015290517f08c379a000000000000000000000000000000000000000000000000000000000815261043291906004016111e5565b50929392505050565b6001805481019081905590565b61077a610a55565b50604080516080810182529182528051808201825260048082527f123456780000000000000000000000000000000000000000000000000000000060208381019190915280850192909252825180840184528181527f87654321000000000000000000000000000000000000000000000000000000008184015284840152825180840190935282527f616d65740000000000000000000000000000000000000000000000000000000090820152606082015290565b61043b565b60010190565b6001805481019055565b600190565b60408051808201909152600581527f68656c6c6f0000000000000000000000000000000000000000000000000000006020820152600191565b606090565b7f61a6029a4c7ddee5824d171331eecbd015d26a271310a223718b837facb5b7716040516108b4906111ff565b60405180910390a1565b6108c6610a83565b6040805160028082526060828101909352816020015b60608152602001906001900390816108dc5790505090506040518060400160405280600581526020017f30783132330000000000000000000000000000000000000000000000000000008152508160008151811061093657fe5b60200260200101819052506040518060400160405280600581526020017f30783332310000000000000000000000000000000000000000000000000000008152508160018151811061098457fe5b6020908102919091018101919091526040805160c0810182526005608082018181527f307831323300000000000000000000000000000000000000000000000000000060a0840152825281840152808201939093528051808201909152600381527f6162630000000000000000000000000000000000000000000000000000000000918101919091526060820152905090565b6104d290565b6040518060200160405280610a30610ab1565b905290565b6040518060400160405280610a48610a83565b8152602001606081525090565b6040518060800160405280610a68610ac4565b81526020016060815260200160608152602001606081525090565b604051806080016040528060608152602001600063ffffffff16815260200160608152602001606081525090565b6040518060200160405280600081525090565b60405180606001604052806000815260200160608152602001606081525090565b600082601f830112610af5578081fd5b8135610b08610b0382611462565b61143b565b8181529150602080830190840160005b83811015610b4557610b308760208435890101610b4f565b83526020928301929190910190600101610b18565b5050505092915050565b600082601f830112610b5f578081fd5b813567ffffffffffffffff811115610b75578182fd5b610ba660207fffffffffffffffffffffffffffffffffffffffffffffffffffffffffffffffe0601f8401160161143b565b9150808252836020828501011115610bbd57600080fd5b8060208401602084013760009082016020015292915050565b600060808284031215610be7578081fd5b610bf1608061143b565b9050813567ffffffffffffffff80821115610c0b57600080fd5b610c1785838601610b4f565b8352610c268560208601610c7d565b60208401526040840135915080821115610c3f57600080fd5b610c4b85838601610ae5565b60408401526060840135915080821115610c6457600080fd5b50610c7184828501610b4f565b60608301525092915050565b803563ffffffff811681146106e157600080fd5b600080600080600060a08688031215610ca8578081fd5b8535610cb3816114b2565b945060208601359350604086013592506060860135610cd1816114b2565b949793965091946080013592915050565b60006020808385031215610cf4578182fd5b823567ffffffffffffffff811115610d0a578283fd5b80840185601f820112610d1b578384fd5b80359150610d2b610b0383611462565b82815283810190828501865b85811015610d6057610d4e8a888435880101610b4f565b84529286019290860190600101610d37565b509098975050505050505050565b60008060008060808587031215610d83578384fd5b84359350602085013560ff81168114610d9a578384fd5b93969395505050506040820135916060013590565b600060208284031215610dc0578081fd5b813567ffffffffffffffff811115610dd6578182fd5b610de284828501610b4f565b949350505050565b600060208284031215610dfb578081fd5b5035919050565b600060208284031215610e13578081fd5b813567ffffffffffffffff80821115610e2a578283fd5b81840160608187031215610e3c578384fd5b610e46606061143b565b925080358352602081013582811115610e5d578485fd5b610e6987828401610b4f565b602085015250604081013582811115610e80578485fd5b610e8c87828401610b4f565b6040850152509195945050505050565b600060208284031215610ead578081fd5b813567ffffffffffffffff80821115610ec4578283fd5b81840160408187031215610ed6578384fd5b610ee0604061143b565b9250803582811115610ef0578485fd5b610efc87828401610bd6565b845250602081013582811115610f10578485fd5b610f1c87828401610b4f565b6020850152509195945050505050565b600060208284031215610f3d578081fd5b813567ffffffffffffffff811115610f53578182fd5b610de284828501610bd6565b600080600060608486031215610f73578081fd5b83359250602084013567ffffffffffffffff80821115610f91578283fd5b610f9d87838801610b4f565b93506040860135915080821115610fb2578283fd5b50610fbf86828701610b4f565b9150509250925092565b60008060408385031215610fdb578182fd5b50508035926020909101359150565b60008151808452611002816020860160208601611482565b601f017fffffffffffffffffffffffffffffffffffffffffffffffffffffffffffffffe0169290920160200192915050565b60008151608084526110496080850182610fea565b6020915063ffffffff828501511682860152604084015185820360408701528181518084528484019150848582028501018584018794505b828510156110cf577fffffffffffffffffffffffffffffffffffffffffffffffffffffffffffffffe08683030184526110bb828251610fea565b600195909501949387019391508601611081565b506060880151955088810360608a01526110e98187610fea565b9998505050505050505050565b60008351611108818460208801611482565b9190910191825250602001919050565b73ffffffffffffffffffffffffffffffffffffffff91909116815260200190565b6000602080830181845280855180835283830191508192508381028201848801865b83811015610d60578583038552611173838351611034565b9487019492509086019060010161115b565b93845260ff9290921660208401526040830152606082015260800190565b6000606082526111b66060830186610fea565b82810360208401526111c88186610fea565b83810360408501526111da8186610fea565b979650505050505050565b6000602082526111f86020830184610fea565b9392505050565b60408082526004908201527f123456780000000000000000000000000000000000000000000000000000000060608201526080602082018190526005908201527f6c6f72656d00000000000000000000000000000000000000000000000000000060a082015260c00190565b6020808252600d908201527f53494d504c455f52455645525400000000000000000000000000000000000000604082015260600190565b6020808252600e908201527f53494d504c455f52455155495245000000000000000000000000000000000000604082015260600190565b60006020825260a08201835160806020850152805182526020810151606060208401526113096060840182610fea565b6040830151915083810360408501526113228183610fea565b935050505060208401517fffffffffffffffffffffffffffffffffffffffffffffffffffffffffffffffe0808584030160408601526113618383610fea565b604087015193508186820301606087015261137c8185610fea565b92505060608601519250808583030160808601525061139b8183610fea565b95945050505050565b905151815260200190565b6000602082528251604060208401526113cb6060840182611034565b602085015191507fffffffffffffffffffffffffffffffffffffffffffffffffffffffffffffffe084820301604085015261139b8183610fea565b6000602082526111f86020830184611034565b90815260200190565b600083825260406020830152610de26040830184610fea565b60405181810167ffffffffffffffff8111828210171561145a57600080fd5b604052919050565b600067ffffffffffffffff821115611478578081fd5b5060209081020190565b60005b8381101561149d578181015183820152602001611485565b838111156114ac576000848401525b50505050565b73ffffffffffffffffffffffffffffffffffffffff8116811461043d57600080fdfea365627a7a723158205a98646a73bbda266999b92495c98b4f927e585bf6c08197e203d8da3d3643766c6578706572696d656e74616cf564736f6c634300050c0040",
				"opcodes": "PUSH1 0x80 PUSH1 0x40 MSTORE CALLVALUE DUP1 ISZERO PUSH2 0x10 JUMPI PUSH1 0x0 DUP1 REVERT JUMPDEST POP PUSH2 0x1517 DUP1 PUSH2 0x20 PUSH1 0x0 CODECOPY PUSH1 0x0 RETURN INVALID PUSH1 0x80 PUSH1 0x40 MSTORE CALLVALUE DUP1 ISZERO PUSH2 0x10 JUMPI PUSH1 0x0 DUP1 REVERT JUMPDEST POP PUSH1 0x4 CALLDATASIZE LT PUSH2 0x1EF JUMPI PUSH1 0x0 CALLDATALOAD PUSH1 0xE0 SHR DUP1 PUSH4 0x647341EB GT PUSH2 0x10F JUMPI DUP1 PUSH4 0xBB607362 GT PUSH2 0xA2 JUMPI DUP1 PUSH4 0xD88BE12F GT PUSH2 0x71 JUMPI DUP1 PUSH4 0xD88BE12F EQ PUSH2 0x3D7 JUMPI DUP1 PUSH4 0xEE8B86FB EQ PUSH2 0x3DF JUMPI DUP1 PUSH4 0xF408FB31 EQ PUSH2 0x28F JUMPI DUP1 PUSH4 0xFA315F9D EQ PUSH2 0x3F2 JUMPI PUSH2 0x1EF JUMP JUMPDEST DUP1 PUSH4 0xBB607362 EQ PUSH2 0x38F JUMPI DUP1 PUSH4 0xBDAB1688 EQ PUSH2 0x3A5 JUMPI DUP1 PUSH4 0xCD3C0B97 EQ PUSH2 0x3BA JUMPI DUP1 PUSH4 0xD6D7618C EQ PUSH2 0x3C2 JUMPI PUSH2 0x1EF JUMP JUMPDEST DUP1 PUSH4 0x8EE52B4E GT PUSH2 0xDE JUMPI DUP1 PUSH4 0x8EE52B4E EQ PUSH2 0x35E JUMPI DUP1 PUSH4 0x9A3B6185 EQ PUSH2 0x371 JUMPI DUP1 PUSH4 0xA3C2F6B6 EQ PUSH2 0x379 JUMPI DUP1 PUSH4 0xAE2DAE17 EQ PUSH2 0x381 JUMPI PUSH2 0x1EF JUMP JUMPDEST DUP1 PUSH4 0x647341EB EQ PUSH2 0x320 JUMPI DUP1 PUSH4 0x76F15D5B EQ PUSH2 0x32E JUMPI DUP1 PUSH4 0x7833BEC0 EQ PUSH2 0x336 JUMPI DUP1 PUSH4 0x7A791E6E EQ PUSH2 0x356 JUMPI PUSH2 0x1EF JUMP JUMPDEST DUP1 PUSH4 0x4582EAB2 GT PUSH2 0x187 JUMPI DUP1 PUSH4 0x586F84B2 GT PUSH2 0x156 JUMPI DUP1 PUSH4 0x586F84B2 EQ PUSH2 0x2DB JUMPI DUP1 PUSH4 0x59C28ADD EQ PUSH2 0x2F0 JUMPI DUP1 PUSH4 0x5BA3C7C0 EQ PUSH2 0x305 JUMPI DUP1 PUSH4 0x63D69C88 EQ PUSH2 0x30D JUMPI PUSH2 0x1EF JUMP JUMPDEST DUP1 PUSH4 0x4582EAB2 EQ PUSH2 0x2A5 JUMPI DUP1 PUSH4 0x45FDBDB7 EQ PUSH2 0x2AD JUMPI DUP1 PUSH4 0x4BB9A37B EQ PUSH2 0x2B5 JUMPI DUP1 PUSH4 0x51BD9CE7 EQ PUSH2 0x2C8 JUMPI PUSH2 0x1EF JUMP JUMPDEST DUP1 PUSH4 0x3687617D GT PUSH2 0x1C3 JUMPI DUP1 PUSH4 0x3687617D EQ PUSH2 0x24D JUMPI DUP1 PUSH4 0x36B32396 EQ PUSH2 0x26F JUMPI DUP1 PUSH4 0x3E9EF66A EQ PUSH2 0x28F JUMPI DUP1 PUSH4 0x4303A542 EQ PUSH2 0x29D JUMPI PUSH2 0x1EF JUMP JUMPDEST DUP1 PUSH3 0x9E437 EQ PUSH2 0x1F4 JUMPI DUP1 PUSH4 0x527C28F EQ PUSH2 0x1FE JUMPI DUP1 PUSH4 0x1310E444 EQ PUSH2 0x211 JUMPI DUP1 PUSH4 0x2E1A7D4D EQ PUSH2 0x23A JUMPI JUMPDEST PUSH1 0x0 DUP1 REVERT JUMPDEST PUSH2 0x1FC PUSH2 0x400 JUMP JUMPDEST STOP JUMPDEST PUSH2 0x1FC PUSH2 0x20C CALLDATASIZE PUSH1 0x4 PUSH2 0xCE2 JUMP JUMPDEST PUSH2 0x43D JUMP JUMPDEST PUSH2 0x224 PUSH2 0x21F CALLDATASIZE PUSH1 0x4 PUSH2 0xDEA JUMP JUMPDEST PUSH2 0x440 JUMP JUMPDEST PUSH1 0x40 MLOAD PUSH2 0x231 SWAP2 SWAP1 PUSH2 0x1419 JUMP JUMPDEST PUSH1 0x40 MLOAD DUP1 SWAP2 SUB SWAP1 RETURN JUMPDEST PUSH2 0x1FC PUSH2 0x248 CALLDATASIZE PUSH1 0x4 PUSH2 0xDEA JUMP JUMPDEST PUSH2 0x447 JUMP JUMPDEST PUSH2 0x260 PUSH2 0x25B CALLDATASIZE PUSH1 0x4 PUSH2 0xF5F JUMP JUMPDEST PUSH2 0x498 JUMP JUMPDEST PUSH1 0x40 MLOAD PUSH2 0x231 SWAP4 SWAP3 SWAP2 SWAP1 PUSH2 0x11A3 JUMP JUMPDEST PUSH2 0x282 PUSH2 0x27D CALLDATASIZE PUSH1 0x4 PUSH2 0xD6E JUMP JUMPDEST PUSH2 0x538 JUMP JUMPDEST PUSH1 0x40 MLOAD PUSH2 0x231 SWAP2 SWAP1 PUSH2 0x1118 JUMP JUMPDEST PUSH2 0x1FC PUSH2 0x20C CALLDATASIZE PUSH1 0x4 PUSH2 0xDAF JUMP JUMPDEST PUSH2 0x224 PUSH2 0x61A JUMP JUMPDEST PUSH2 0x1FC PUSH2 0x621 JUMP JUMPDEST PUSH2 0x1FC PUSH2 0x686 JUMP JUMPDEST PUSH2 0x224 PUSH2 0x2C3 CALLDATASIZE PUSH1 0x4 PUSH2 0xDEA JUMP JUMPDEST PUSH2 0x6B8 JUMP JUMPDEST PUSH2 0x224 PUSH2 0x2D6 CALLDATASIZE PUSH1 0x4 PUSH2 0xFC9 JUMP JUMPDEST PUSH2 0x6CA JUMP JUMPDEST PUSH2 0x2E3 PUSH2 0x6E7 JUMP JUMPDEST PUSH1 0x40 MLOAD PUSH2 0x231 SWAP2 SWAP1 PUSH2 0x13A4 JUMP JUMPDEST PUSH2 0x2F8 PUSH2 0x6EF JUMP JUMPDEST PUSH1 0x40 MLOAD PUSH2 0x231 SWAP2 SWAP1 PUSH2 0x13AF JUMP JUMPDEST PUSH2 0x1FC PUSH2 0x6F7 JUMP JUMPDEST PUSH2 0x282 PUSH2 0x31B CALLDATASIZE PUSH1 0x4 PUSH2 0xC91 JUMP JUMPDEST PUSH2 0x75C JUMP JUMPDEST PUSH2 0x1FC PUSH2 0x20C CALLDATASIZE PUSH1 0x4 PUSH2 0xF2C JUMP JUMPDEST PUSH2 0x224 PUSH2 0x765 JUMP JUMPDEST PUSH2 0x349 PUSH2 0x344 CALLDATASIZE PUSH1 0x4 PUSH2 0xE02 JUMP JUMPDEST PUSH2 0x772 JUMP JUMPDEST PUSH1 0x40 MLOAD PUSH2 0x231 SWAP2 SWAP1 PUSH2 0x12D9 JUMP JUMPDEST PUSH2 0x1FC PUSH2 0x82F JUMP JUMPDEST PUSH2 0x224 PUSH2 0x36C CALLDATASIZE PUSH1 0x4 PUSH2 0xDEA JUMP JUMPDEST PUSH2 0x834 JUMP JUMPDEST PUSH2 0x1FC PUSH2 0x83A JUMP JUMPDEST PUSH2 0x224 PUSH2 0x844 JUMP JUMPDEST PUSH2 0x1FC PUSH2 0x20C CALLDATASIZE PUSH1 0x4 PUSH2 0xE9C JUMP JUMPDEST PUSH2 0x397 PUSH2 0x849 JUMP JUMPDEST PUSH1 0x40 MLOAD PUSH2 0x231 SWAP3 SWAP2 SWAP1 PUSH2 0x1422 JUMP JUMPDEST PUSH2 0x3AD PUSH2 0x882 JUMP JUMPDEST PUSH1 0x40 MLOAD PUSH2 0x231 SWAP2 SWAP1 PUSH2 0x1139 JUMP JUMPDEST PUSH2 0x1FC PUSH2 0x887 JUMP JUMPDEST PUSH2 0x3CA PUSH2 0x8BE JUMP JUMPDEST PUSH1 0x40 MLOAD PUSH2 0x231 SWAP2 SWAP1 PUSH2 0x1406 JUMP JUMPDEST PUSH2 0x224 PUSH2 0xA17 JUMP JUMPDEST PUSH2 0x1FC PUSH2 0x3ED CALLDATASIZE PUSH1 0x4 PUSH2 0xDEA JUMP JUMPDEST PUSH2 0x20C JUMP JUMPDEST PUSH2 0x1FC PUSH2 0x20C CALLDATASIZE PUSH1 0x4 PUSH2 0xDEA JUMP JUMPDEST PUSH1 0x40 MLOAD PUSH32 0x8C379A000000000000000000000000000000000000000000000000000000000 DUP2 MSTORE PUSH1 0x4 ADD PUSH2 0x432 SWAP1 PUSH2 0x12A2 JUMP JUMPDEST PUSH1 0x40 MLOAD DUP1 SWAP2 SUB SWAP1 REVERT JUMPDEST JUMP JUMPDEST POP JUMP JUMPDEST POP PUSH2 0x7C7 SWAP1 JUMP JUMPDEST CALLER PUSH20 0xFFFFFFFFFFFFFFFFFFFFFFFFFFFFFFFFFFFFFFFF AND PUSH32 0x7FCF532C15F0A6DB0BD6D0E038BEA71D30D808C7D98CB3BF7268A95BF5081B65 DUP3 PUSH1 0x40 MLOAD PUSH2 0x48D SWAP2 SWAP1 PUSH2 0x1419 JUMP JUMPDEST PUSH1 0x40 MLOAD DUP1 SWAP2 SUB SWAP1 LOG2 POP JUMP JUMPDEST POP POP PUSH1 0x40 DUP1 MLOAD DUP1 DUP3 ADD DUP3 MSTORE PUSH1 0x4 DUP1 DUP3 MSTORE PUSH32 0x1234567800000000000000000000000000000000000000000000000000000000 PUSH1 0x20 DUP1 DUP5 ADD SWAP2 SWAP1 SWAP2 MSTORE DUP4 MLOAD DUP1 DUP6 ADD DUP6 MSTORE DUP3 DUP2 MSTORE PUSH32 0x8765432100000000000000000000000000000000000000000000000000000000 DUP2 DUP4 ADD MSTORE DUP5 MLOAD DUP1 DUP7 ADD SWAP1 SWAP6 MSTORE SWAP2 DUP5 MSTORE PUSH32 0x616D657400000000000000000000000000000000000000000000000000000000 SWAP1 DUP5 ADD MSTORE SWAP1 SWAP4 SWAP1 SWAP3 POP JUMP JUMPDEST PUSH1 0x0 PUSH1 0x60 PUSH1 0x40 MLOAD DUP1 PUSH1 0x40 ADD PUSH1 0x40 MSTORE DUP1 PUSH1 0x1C DUP2 MSTORE PUSH1 0x20 ADD PUSH32 0x19457468657265756D205369676E6564204D6573736167653A0A333200000000 DUP2 MSTORE POP SWAP1 POP PUSH1 0x0 DUP2 DUP8 PUSH1 0x40 MLOAD PUSH1 0x20 ADD PUSH2 0x589 SWAP3 SWAP2 SWAP1 PUSH2 0x10F6 JUMP JUMPDEST PUSH1 0x40 MLOAD PUSH1 0x20 DUP2 DUP4 SUB SUB DUP2 MSTORE SWAP1 PUSH1 0x40 MSTORE DUP1 MLOAD SWAP1 PUSH1 0x20 ADD KECCAK256 SWAP1 POP PUSH1 0x1 DUP2 DUP8 DUP8 DUP8 PUSH1 0x40 MLOAD PUSH1 0x0 DUP2 MSTORE PUSH1 0x20 ADD PUSH1 0x40 MSTORE PUSH1 0x40 MLOAD PUSH2 0x5C4 SWAP5 SWAP4 SWAP3 SWAP2 SWAP1 PUSH2 0x1185 JUMP JUMPDEST PUSH1 0x20 PUSH1 0x40 MLOAD PUSH1 0x20 DUP2 SUB SWAP1 DUP1 DUP5 SUB SWAP1 DUP6 GAS STATICCALL ISZERO DUP1 ISZERO PUSH2 0x5E6 JUMPI RETURNDATASIZE PUSH1 0x0 DUP1 RETURNDATACOPY RETURNDATASIZE PUSH1 0x0 REVERT JUMPDEST POP POP PUSH1 0x40 MLOAD PUSH32 0xFFFFFFFFFFFFFFFFFFFFFFFFFFFFFFFFFFFFFFFFFFFFFFFFFFFFFFFFFFFFFFE0 ADD MLOAD SWAP9 SWAP8 POP POP POP POP POP POP POP POP JUMP JUMPDEST PUSH2 0x7C7 JUMPDEST SWAP1 JUMP JUMPDEST PUSH1 0x40 DUP1 MLOAD DUP1 DUP3 ADD DUP3 MSTORE PUSH1 0x14 DUP2 MSTORE PUSH32 0x5245564552545F574954485F434F4E5354414E54000000000000000000000000 PUSH1 0x20 DUP3 ADD MSTORE SWAP1 MLOAD PUSH32 0x8C379A000000000000000000000000000000000000000000000000000000000 DUP2 MSTORE PUSH2 0x432 SWAP2 SWAP1 PUSH1 0x4 ADD PUSH2 0x11E5 JUMP JUMPDEST PUSH1 0x40 MLOAD PUSH32 0x8C379A000000000000000000000000000000000000000000000000000000000 DUP2 MSTORE PUSH1 0x4 ADD PUSH2 0x432 SWAP1 PUSH2 0x126B JUMP JUMPDEST PUSH1 0x0 PUSH1 0x20 DUP2 SWAP1 MSTORE SWAP1 DUP2 MSTORE PUSH1 0x40 SWAP1 KECCAK256 SLOAD DUP2 JUMP JUMPDEST PUSH1 0x0 DUP3 DUP2 MSTORE PUSH1 0x20 DUP2 SWAP1 MSTORE PUSH1 0x40 SWAP1 KECCAK256 PUSH1 0x1 DUP3 ADD SWAP1 DUP2 SWAP1 SSTORE JUMPDEST SWAP3 SWAP2 POP POP JUMP JUMPDEST PUSH2 0x61E PUSH2 0xA1D JUMP JUMPDEST PUSH2 0x61E PUSH2 0xA35 JUMP JUMPDEST PUSH1 0x40 DUP1 MLOAD DUP1 DUP3 ADD DUP3 MSTORE PUSH1 0x15 DUP2 MSTORE PUSH32 0x524551554952455F574954485F434F4E5354414E540000000000000000000000 PUSH1 0x20 DUP3 ADD MSTORE SWAP1 MLOAD PUSH32 0x8C379A000000000000000000000000000000000000000000000000000000000 DUP2 MSTORE PUSH2 0x432 SWAP2 SWAP1 PUSH1 0x4 ADD PUSH2 0x11E5 JUMP JUMPDEST POP SWAP3 SWAP4 SWAP3 POP POP POP JUMP JUMPDEST PUSH1 0x1 DUP1 SLOAD DUP2 ADD SWAP1 DUP2 SWAP1 SSTORE SWAP1 JUMP JUMPDEST PUSH2 0x77A PUSH2 0xA55 JUMP JUMPDEST POP PUSH1 0x40 DUP1 MLOAD PUSH1 0x80 DUP2 ADD DUP3 MSTORE SWAP2 DUP3 MSTORE DUP1 MLOAD DUP1 DUP3 ADD DUP3 MSTORE PUSH1 0x4 DUP1 DUP3 MSTORE PUSH32 0x1234567800000000000000000000000000000000000000000000000000000000 PUSH1 0x20 DUP4 DUP2 ADD SWAP2 SWAP1 SWAP2 MSTORE DUP1 DUP6 ADD SWAP3 SWAP1 SWAP3 MSTORE DUP3 MLOAD DUP1 DUP5 ADD DUP5 MSTORE DUP2 DUP2 MSTORE PUSH32 0x8765432100000000000000000000000000000000000000000000000000000000 DUP2 DUP5 ADD MSTORE DUP5 DUP5 ADD MSTORE DUP3 MLOAD DUP1 DUP5 ADD SWAP1 SWAP4 MSTORE DUP3 MSTORE PUSH32 0x616D657400000000000000000000000000000000000000000000000000000000 SWAP1 DUP3 ADD MSTORE PUSH1 0x60 DUP3 ADD MSTORE SWAP1 JUMP JUMPDEST PUSH2 0x43B JUMP JUMPDEST PUSH1 0x1 ADD SWAP1 JUMP JUMPDEST PUSH1 0x1 DUP1 SLOAD DUP2 ADD SWAP1 SSTORE JUMP JUMPDEST PUSH1 0x1 SWAP1 JUMP JUMPDEST PUSH1 0x40 DUP1 MLOAD DUP1 DUP3 ADD SWAP1 SWAP2 MSTORE PUSH1 0x5 DUP2 MSTORE PUSH32 0x68656C6C6F000000000000000000000000000000000000000000000000000000 PUSH1 0x20 DUP3 ADD MSTORE PUSH1 0x1 SWAP2 JUMP JUMPDEST PUSH1 0x60 SWAP1 JUMP JUMPDEST PUSH32 0x61A6029A4C7DDEE5824D171331EECBD015D26A271310A223718B837FACB5B771 PUSH1 0x40 MLOAD PUSH2 0x8B4 SWAP1 PUSH2 0x11FF JUMP JUMPDEST PUSH1 0x40 MLOAD DUP1 SWAP2 SUB SWAP1 LOG1 JUMP JUMPDEST PUSH2 0x8C6 PUSH2 0xA83 JUMP JUMPDEST PUSH1 0x40 DUP1 MLOAD PUSH1 0x2 DUP1 DUP3 MSTORE PUSH1 0x60 DUP3 DUP2 ADD SWAP1 SWAP4 MSTORE DUP2 PUSH1 0x20 ADD JUMPDEST PUSH1 0x60 DUP2 MSTORE PUSH1 0x20 ADD SWAP1 PUSH1 0x1 SWAP1 SUB SWAP1 DUP2 PUSH2 0x8DC JUMPI SWAP1 POP POP SWAP1 POP PUSH1 0x40 MLOAD DUP1 PUSH1 0x40 ADD PUSH1 0x40 MSTORE DUP1 PUSH1 0x5 DUP2 MSTORE PUSH1 0x20 ADD PUSH32 0x3078313233000000000000000000000000000000000000000000000000000000 DUP2 MSTORE POP DUP2 PUSH1 0x0 DUP2 MLOAD DUP2 LT PUSH2 0x936 JUMPI INVALID JUMPDEST PUSH1 0x20 MUL PUSH1 0x20 ADD ADD DUP2 SWAP1 MSTORE POP PUSH1 0x40 MLOAD DUP1 PUSH1 0x40 ADD PUSH1 0x40 MSTORE DUP1 PUSH1 0x5 DUP2 MSTORE PUSH1 0x20 ADD PUSH32 0x3078333231000000000000000000000000000000000000000000000000000000 DUP2 MSTORE POP DUP2 PUSH1 0x1 DUP2 MLOAD DUP2 LT PUSH2 0x984 JUMPI INVALID JUMPDEST PUSH1 0x20 SWAP1 DUP2 MUL SWAP2 SWAP1 SWAP2 ADD DUP2 ADD SWAP2 SWAP1 SWAP2 MSTORE PUSH1 0x40 DUP1 MLOAD PUSH1 0xC0 DUP2 ADD DUP3 MSTORE PUSH1 0x5 PUSH1 0x80 DUP3 ADD DUP2 DUP2 MSTORE PUSH32 0x3078313233000000000000000000000000000000000000000000000000000000 PUSH1 0xA0 DUP5 ADD MSTORE DUP3 MSTORE DUP2 DUP5 ADD MSTORE DUP1 DUP3 ADD SWAP4 SWAP1 SWAP4 MSTORE DUP1 MLOAD DUP1 DUP3 ADD SWAP1 SWAP2 MSTORE PUSH1 0x3 DUP2 MSTORE PUSH32 0x6162630000000000000000000000000000000000000000000000000000000000 SWAP2 DUP2 ADD SWAP2 SWAP1 SWAP2 MSTORE PUSH1 0x60 DUP3 ADD MSTORE SWAP1 POP SWAP1 JUMP JUMPDEST PUSH2 0x4D2 SWAP1 JUMP JUMPDEST PUSH1 0x40 MLOAD DUP1 PUSH1 0x20 ADD PUSH1 0x40 MSTORE DUP1 PUSH2 0xA30 PUSH2 0xAB1 JUMP JUMPDEST SWAP1 MSTORE SWAP1 JUMP JUMPDEST PUSH1 0x40 MLOAD DUP1 PUSH1 0x40 ADD PUSH1 0x40 MSTORE DUP1 PUSH2 0xA48 PUSH2 0xA83 JUMP JUMPDEST DUP2 MSTORE PUSH1 0x20 ADD PUSH1 0x60 DUP2 MSTORE POP SWAP1 JUMP JUMPDEST PUSH1 0x40 MLOAD DUP1 PUSH1 0x80 ADD PUSH1 0x40 MSTORE DUP1 PUSH2 0xA68 PUSH2 0xAC4 JUMP JUMPDEST DUP2 MSTORE PUSH1 0x20 ADD PUSH1 0x60 DUP2 MSTORE PUSH1 0x20 ADD PUSH1 0x60 DUP2 MSTORE PUSH1 0x20 ADD PUSH1 0x60 DUP2 MSTORE POP SWAP1 JUMP JUMPDEST PUSH1 0x40 MLOAD DUP1 PUSH1 0x80 ADD PUSH1 0x40 MSTORE DUP1 PUSH1 0x60 DUP2 MSTORE PUSH1 0x20 ADD PUSH1 0x0 PUSH4 0xFFFFFFFF AND DUP2 MSTORE PUSH1 0x20 ADD PUSH1 0x60 DUP2 MSTORE PUSH1 0x20 ADD PUSH1 0x60 DUP2 MSTORE POP SWAP1 JUMP JUMPDEST PUSH1 0x40 MLOAD DUP1 PUSH1 0x20 ADD PUSH1 0x40 MSTORE DUP1 PUSH1 0x0 DUP2 MSTORE POP SWAP1 JUMP JUMPDEST PUSH1 0x40 MLOAD DUP1 PUSH1 0x60 ADD PUSH1 0x40 MSTORE DUP1 PUSH1 0x0 DUP2 MSTORE PUSH1 0x20 ADD PUSH1 0x60 DUP2 MSTORE PUSH1 0x20 ADD PUSH1 0x60 DUP2 MSTORE POP SWAP1 JUMP JUMPDEST PUSH1 0x0 DUP3 PUSH1 0x1F DUP4 ADD SLT PUSH2 0xAF5 JUMPI DUP1 DUP2 REVERT JUMPDEST DUP2 CALLDATALOAD PUSH2 0xB08 PUSH2 0xB03 DUP3 PUSH2 0x1462 JUMP JUMPDEST PUSH2 0x143B JUMP JUMPDEST DUP2 DUP2 MSTORE SWAP2 POP PUSH1 0x20 DUP1 DUP4 ADD SWAP1 DUP5 ADD PUSH1 0x0 JUMPDEST DUP4 DUP2 LT ISZERO PUSH2 0xB45 JUMPI PUSH2 0xB30 DUP8 PUSH1 0x20 DUP5 CALLDATALOAD DUP10 ADD ADD PUSH2 0xB4F JUMP JUMPDEST DUP4 MSTORE PUSH1 0x20 SWAP3 DUP4 ADD SWAP3 SWAP2 SWAP1 SWAP2 ADD SWAP1 PUSH1 0x1 ADD PUSH2 0xB18 JUMP JUMPDEST POP POP POP POP SWAP3 SWAP2 POP POP JUMP JUMPDEST PUSH1 0x0 DUP3 PUSH1 0x1F DUP4 ADD SLT PUSH2 0xB5F JUMPI DUP1 DUP2 REVERT JUMPDEST DUP2 CALLDATALOAD PUSH8 0xFFFFFFFFFFFFFFFF DUP2 GT ISZERO PUSH2 0xB75 JUMPI DUP2 DUP3 REVERT JUMPDEST PUSH2 0xBA6 PUSH1 0x20 PUSH32 0xFFFFFFFFFFFFFFFFFFFFFFFFFFFFFFFFFFFFFFFFFFFFFFFFFFFFFFFFFFFFFFE0 PUSH1 0x1F DUP5 ADD AND ADD PUSH2 0x143B JUMP JUMPDEST SWAP2 POP DUP1 DUP3 MSTORE DUP4 PUSH1 0x20 DUP3 DUP6 ADD ADD GT ISZERO PUSH2 0xBBD JUMPI PUSH1 0x0 DUP1 REVERT JUMPDEST DUP1 PUSH1 0x20 DUP5 ADD PUSH1 0x20 DUP5 ADD CALLDATACOPY PUSH1 0x0 SWAP1 DUP3 ADD PUSH1 0x20 ADD MSTORE SWAP3 SWAP2 POP POP JUMP JUMPDEST PUSH1 0x0 PUSH1 0x80 DUP3 DUP5 SUB SLT ISZERO PUSH2 0xBE7 JUMPI DUP1 DUP2 REVERT JUMPDEST PUSH2 0xBF1 PUSH1 0x80 PUSH2 0x143B JUMP JUMPDEST SWAP1 POP DUP2 CALLDATALOAD PUSH8 0xFFFFFFFFFFFFFFFF DUP1 DUP3 GT ISZERO PUSH2 0xC0B JUMPI PUSH1 0x0 DUP1 REVERT JUMPDEST PUSH2 0xC17 DUP6 DUP4 DUP7 ADD PUSH2 0xB4F JUMP JUMPDEST DUP4 MSTORE PUSH2 0xC26 DUP6 PUSH1 0x20 DUP7 ADD PUSH2 0xC7D JUMP JUMPDEST PUSH1 0x20 DUP5 ADD MSTORE PUSH1 0x40 DUP5 ADD CALLDATALOAD SWAP2 POP DUP1 DUP3 GT ISZERO PUSH2 0xC3F JUMPI PUSH1 0x0 DUP1 REVERT JUMPDEST PUSH2 0xC4B DUP6 DUP4 DUP7 ADD PUSH2 0xAE5 JUMP JUMPDEST PUSH1 0x40 DUP5 ADD MSTORE PUSH1 0x60 DUP5 ADD CALLDATALOAD SWAP2 POP DUP1 DUP3 GT ISZERO PUSH2 0xC64 JUMPI PUSH1 0x0 DUP1 REVERT JUMPDEST POP PUSH2 0xC71 DUP5 DUP3 DUP6 ADD PUSH2 0xB4F JUMP JUMPDEST PUSH1 0x60 DUP4 ADD MSTORE POP SWAP3 SWAP2 POP POP JUMP JUMPDEST DUP1 CALLDATALOAD PUSH4 0xFFFFFFFF DUP2 AND DUP2 EQ PUSH2 0x6E1 JUMPI PUSH1 0x0 DUP1 REVERT JUMPDEST PUSH1 0x0 DUP1 PUSH1 0x0 DUP1 PUSH1 0x0 PUSH1 0xA0 DUP7 DUP9 SUB SLT ISZERO PUSH2 0xCA8 JUMPI DUP1 DUP2 REVERT JUMPDEST DUP6 CALLDATALOAD PUSH2 0xCB3 DUP2 PUSH2 0x14B2 JUMP JUMPDEST SWAP5 POP PUSH1 0x20 DUP7 ADD CALLDATALOAD SWAP4 POP PUSH1 0x40 DUP7 ADD CALLDATALOAD SWAP3 POP PUSH1 0x60 DUP7 ADD CALLDATALOAD PUSH2 0xCD1 DUP2 PUSH2 0x14B2 JUMP JUMPDEST SWAP5 SWAP8 SWAP4 SWAP7 POP SWAP2 SWAP5 PUSH1 0x80 ADD CALLDATALOAD SWAP3 SWAP2 POP POP JUMP JUMPDEST PUSH1 0x0 PUSH1 0x20 DUP1 DUP4 DUP6 SUB SLT ISZERO PUSH2 0xCF4 JUMPI DUP2 DUP3 REVERT JUMPDEST DUP3 CALLDATALOAD PUSH8 0xFFFFFFFFFFFFFFFF DUP2 GT ISZERO PUSH2 0xD0A JUMPI DUP3 DUP4 REVERT JUMPDEST DUP1 DUP5 ADD DUP6 PUSH1 0x1F DUP3 ADD SLT PUSH2 0xD1B JUMPI DUP4 DUP5 REVERT JUMPDEST DUP1 CALLDATALOAD SWAP2 POP PUSH2 0xD2B PUSH2 0xB03 DUP4 PUSH2 0x1462 JUMP JUMPDEST DUP3 DUP2 MSTORE DUP4 DUP2 ADD SWAP1 DUP3 DUP6 ADD DUP7 JUMPDEST DUP6 DUP2 LT ISZERO PUSH2 0xD60 JUMPI PUSH2 0xD4E DUP11 DUP9 DUP5 CALLDATALOAD DUP9 ADD ADD PUSH2 0xB4F JUMP JUMPDEST DUP5 MSTORE SWAP3 DUP7 ADD SWAP3 SWAP1 DUP7 ADD SWAP1 PUSH1 0x1 ADD PUSH2 0xD37 JUMP JUMPDEST POP SWAP1 SWAP9 SWAP8 POP POP POP POP POP POP POP POP JUMP JUMPDEST PUSH1 0x0 DUP1 PUSH1 0x0 DUP1 PUSH1 0x80 DUP6 DUP8 SUB SLT ISZERO PUSH2 0xD83 JUMPI DUP4 DUP5 REVERT JUMPDEST DUP5 CALLDATALOAD SWAP4 POP PUSH1 0x20 DUP6 ADD CALLDATALOAD PUSH1 0xFF DUP2 AND DUP2 EQ PUSH2 0xD9A JUMPI DUP4 DUP5 REVERT JUMPDEST SWAP4 SWAP7 SWAP4 SWAP6 POP POP POP POP PUSH1 0x40 DUP3 ADD CALLDATALOAD SWAP2 PUSH1 0x60 ADD CALLDATALOAD SWAP1 JUMP JUMPDEST PUSH1 0x0 PUSH1 0x20 DUP3 DUP5 SUB SLT ISZERO PUSH2 0xDC0 JUMPI DUP1 DUP2 REVERT JUMPDEST DUP2 CALLDATALOAD PUSH8 0xFFFFFFFFFFFFFFFF DUP2 GT ISZERO PUSH2 0xDD6 JUMPI DUP2 DUP3 REVERT JUMPDEST PUSH2 0xDE2 DUP5 DUP3 DUP6 ADD PUSH2 0xB4F JUMP JUMPDEST SWAP5 SWAP4 POP POP POP POP JUMP JUMPDEST PUSH1 0x0 PUSH1 0x20 DUP3 DUP5 SUB SLT ISZERO PUSH2 0xDFB JUMPI DUP1 DUP2 REVERT JUMPDEST POP CALLDATALOAD SWAP2 SWAP1 POP JUMP JUMPDEST PUSH1 0x0 PUSH1 0x20 DUP3 DUP5 SUB SLT ISZERO PUSH2 0xE13 JUMPI DUP1 DUP2 REVERT JUMPDEST DUP2 CALLDATALOAD PUSH8 0xFFFFFFFFFFFFFFFF DUP1 DUP3 GT ISZERO PUSH2 0xE2A JUMPI DUP3 DUP4 REVERT JUMPDEST DUP2 DUP5 ADD PUSH1 0x60 DUP2 DUP8 SUB SLT ISZERO PUSH2 0xE3C JUMPI DUP4 DUP5 REVERT JUMPDEST PUSH2 0xE46 PUSH1 0x60 PUSH2 0x143B JUMP JUMPDEST SWAP3 POP DUP1 CALLDATALOAD DUP4 MSTORE PUSH1 0x20 DUP2 ADD CALLDATALOAD DUP3 DUP2 GT ISZERO PUSH2 0xE5D JUMPI DUP5 DUP6 REVERT JUMPDEST PUSH2 0xE69 DUP8 DUP3 DUP5 ADD PUSH2 0xB4F JUMP JUMPDEST PUSH1 0x20 DUP6 ADD MSTORE POP PUSH1 0x40 DUP2 ADD CALLDATALOAD DUP3 DUP2 GT ISZERO PUSH2 0xE80 JUMPI DUP5 DUP6 REVERT JUMPDEST PUSH2 0xE8C DUP8 DUP3 DUP5 ADD PUSH2 0xB4F JUMP JUMPDEST PUSH1 0x40 DUP6 ADD MSTORE POP SWAP2 SWAP6 SWAP5 POP POP POP POP POP JUMP JUMPDEST PUSH1 0x0 PUSH1 0x20 DUP3 DUP5 SUB SLT ISZERO PUSH2 0xEAD JUMPI DUP1 DUP2 REVERT JUMPDEST DUP2 CALLDATALOAD PUSH8 0xFFFFFFFFFFFFFFFF DUP1 DUP3 GT ISZERO PUSH2 0xEC4 JUMPI DUP3 DUP4 REVERT JUMPDEST DUP2 DUP5 ADD PUSH1 0x40 DUP2 DUP8 SUB SLT ISZERO PUSH2 0xED6 JUMPI DUP4 DUP5 REVERT JUMPDEST PUSH2 0xEE0 PUSH1 0x40 PUSH2 0x143B JUMP JUMPDEST SWAP3 POP DUP1 CALLDATALOAD DUP3 DUP2 GT ISZERO PUSH2 0xEF0 JUMPI DUP5 DUP6 REVERT JUMPDEST PUSH2 0xEFC DUP8 DUP3 DUP5 ADD PUSH2 0xBD6 JUMP JUMPDEST DUP5 MSTORE POP PUSH1 0x20 DUP2 ADD CALLDATALOAD DUP3 DUP2 GT ISZERO PUSH2 0xF10 JUMPI DUP5 DUP6 REVERT JUMPDEST PUSH2 0xF1C DUP8 DUP3 DUP5 ADD PUSH2 0xB4F JUMP JUMPDEST PUSH1 0x20 DUP6 ADD MSTORE POP SWAP2 SWAP6 SWAP5 POP POP POP POP POP JUMP JUMPDEST PUSH1 0x0 PUSH1 0x20 DUP3 DUP5 SUB SLT ISZERO PUSH2 0xF3D JUMPI DUP1 DUP2 REVERT JUMPDEST DUP2 CALLDATALOAD PUSH8 0xFFFFFFFFFFFFFFFF DUP2 GT ISZERO PUSH2 0xF53 JUMPI DUP2 DUP3 REVERT JUMPDEST PUSH2 0xDE2 DUP5 DUP3 DUP6 ADD PUSH2 0xBD6 JUMP JUMPDEST PUSH1 0x0 DUP1 PUSH1 0x0 PUSH1 0x60 DUP5 DUP7 SUB SLT ISZERO PUSH2 0xF73 JUMPI DUP1 DUP2 REVERT JUMPDEST DUP4 CALLDATALOAD SWAP3 POP PUSH1 0x20 DUP5 ADD CALLDATALOAD PUSH8 0xFFFFFFFFFFFFFFFF DUP1 DUP3 GT ISZERO PUSH2 0xF91 JUMPI DUP3 DUP4 REVERT JUMPDEST PUSH2 0xF9D DUP8 DUP4 DUP9 ADD PUSH2 0xB4F JUMP JUMPDEST SWAP4 POP PUSH1 0x40 DUP7 ADD CALLDATALOAD SWAP2 POP DUP1 DUP3 GT ISZERO PUSH2 0xFB2 JUMPI DUP3 DUP4 REVERT JUMPDEST POP PUSH2 0xFBF DUP7 DUP3 DUP8 ADD PUSH2 0xB4F JUMP JUMPDEST SWAP2 POP POP SWAP3 POP SWAP3 POP SWAP3 JUMP JUMPDEST PUSH1 0x0 DUP1 PUSH1 0x40 DUP4 DUP6 SUB SLT ISZERO PUSH2 0xFDB JUMPI DUP2 DUP3 REVERT JUMPDEST POP POP DUP1 CALLDATALOAD SWAP3 PUSH1 0x20 SWAP1 SWAP2 ADD CALLDATALOAD SWAP2 POP JUMP JUMPDEST PUSH1 0x0 DUP2 MLOAD DUP1 DUP5 MSTORE PUSH2 0x1002 DUP2 PUSH1 0x20 DUP7 ADD PUSH1 0x20 DUP7 ADD PUSH2 0x1482 JUMP JUMPDEST PUSH1 0x1F ADD PUSH32 0xFFFFFFFFFFFFFFFFFFFFFFFFFFFFFFFFFFFFFFFFFFFFFFFFFFFFFFFFFFFFFFE0 AND SWAP3 SWAP1 SWAP3 ADD PUSH1 0x20 ADD SWAP3 SWAP2 POP POP JUMP JUMPDEST PUSH1 0x0 DUP2 MLOAD PUSH1 0x80 DUP5 MSTORE PUSH2 0x1049 PUSH1 0x80 DUP6 ADD DUP3 PUSH2 0xFEA JUMP JUMPDEST PUSH1 0x20 SWAP2 POP PUSH4 0xFFFFFFFF DUP3 DUP6 ADD MLOAD AND DUP3 DUP7 ADD MSTORE PUSH1 0x40 DUP5 ADD MLOAD DUP6 DUP3 SUB PUSH1 0x40 DUP8 ADD MSTORE DUP2 DUP2 MLOAD DUP1 DUP5 MSTORE DUP5 DUP5 ADD SWAP2 POP DUP5 DUP6 DUP3 MUL DUP6 ADD ADD DUP6 DUP5 ADD DUP8 SWAP5 POP JUMPDEST DUP3 DUP6 LT ISZERO PUSH2 0x10CF JUMPI PUSH32 0xFFFFFFFFFFFFFFFFFFFFFFFFFFFFFFFFFFFFFFFFFFFFFFFFFFFFFFFFFFFFFFE0 DUP7 DUP4 SUB ADD DUP5 MSTORE PUSH2 0x10BB DUP3 DUP3 MLOAD PUSH2 0xFEA JUMP JUMPDEST PUSH1 0x1 SWAP6 SWAP1 SWAP6 ADD SWAP5 SWAP4 DUP8 ADD SWAP4 SWAP2 POP DUP7 ADD PUSH2 0x1081 JUMP JUMPDEST POP PUSH1 0x60 DUP9 ADD MLOAD SWAP6 POP DUP9 DUP2 SUB PUSH1 0x60 DUP11 ADD MSTORE PUSH2 0x10E9 DUP2 DUP8 PUSH2 0xFEA JUMP JUMPDEST SWAP10 SWAP9 POP POP POP POP POP POP POP POP POP JUMP JUMPDEST PUSH1 0x0 DUP4 MLOAD PUSH2 0x1108 DUP2 DUP5 PUSH1 0x20 DUP9 ADD PUSH2 0x1482 JUMP JUMPDEST SWAP2 SWAP1 SWAP2 ADD SWAP2 DUP3 MSTORE POP PUSH1 0x20 ADD SWAP2 SWAP1 POP JUMP JUMPDEST PUSH20 0xFFFFFFFFFFFFFFFFFFFFFFFFFFFFFFFFFFFFFFFF SWAP2 SWAP1 SWAP2 AND DUP2 MSTORE PUSH1 0x20 ADD SWAP1 JUMP JUMPDEST PUSH1 0x0 PUSH1 0x20 DUP1 DUP4 ADD DUP2 DUP5 MSTORE DUP1 DUP6 MLOAD DUP1 DUP4 MSTORE DUP4 DUP4 ADD SWAP2 POP DUP2 SWAP3 POP DUP4 DUP2 MUL DUP3 ADD DUP5 DUP9 ADD DUP7 JUMPDEST DUP4 DUP2 LT ISZERO PUSH2 0xD60 JUMPI DUP6 DUP4 SUB DUP6 MSTORE PUSH2 0x1173 DUP4 DUP4 MLOAD PUSH2 0x1034 JUMP JUMPDEST SWAP5 DUP8 ADD SWAP5 SWAP3 POP SWAP1 DUP7 ADD SWAP1 PUSH1 0x1 ADD PUSH2 0x115B JUMP JUMPDEST SWAP4 DUP5 MSTORE PUSH1 0xFF SWAP3 SWAP1 SWAP3 AND PUSH1 0x20 DUP5 ADD MSTORE PUSH1 0x40 DUP4 ADD MSTORE PUSH1 0x60 DUP3 ADD MSTORE PUSH1 0x80 ADD SWAP1 JUMP JUMPDEST PUSH1 0x0 PUSH1 0x60 DUP3 MSTORE PUSH2 0x11B6 PUSH1 0x60 DUP4 ADD DUP7 PUSH2 0xFEA JUMP JUMPDEST DUP3 DUP2 SUB PUSH1 0x20 DUP5 ADD MSTORE PUSH2 0x11C8 DUP2 DUP7 PUSH2 0xFEA JUMP JUMPDEST DUP4 DUP2 SUB PUSH1 0x40 DUP6 ADD MSTORE PUSH2 0x11DA DUP2 DUP7 PUSH2 0xFEA JUMP JUMPDEST SWAP8 SWAP7 POP POP POP POP POP POP POP JUMP JUMPDEST PUSH1 0x0 PUSH1 0x20 DUP3 MSTORE PUSH2 0x11F8 PUSH1 0x20 DUP4 ADD DUP5 PUSH2 0xFEA JUMP JUMPDEST SWAP4 SWAP3 POP POP POP JUMP JUMPDEST PUSH1 0x40 DUP1 DUP3 MSTORE PUSH1 0x4 SWAP1 DUP3 ADD MSTORE PUSH32 0x1234567800000000000000000000000000000000000000000000000000000000 PUSH1 0x60 DUP3 ADD MSTORE PUSH1 0x80 PUSH1 0x20 DUP3 ADD DUP2 SWAP1 MSTORE PUSH1 0x5 SWAP1 DUP3 ADD MSTORE PUSH32 0x6C6F72656D000000000000000000000000000000000000000000000000000000 PUSH1 0xA0 DUP3 ADD MSTORE PUSH1 0xC0 ADD SWAP1 JUMP JUMPDEST PUSH1 0x20 DUP1 DUP3 MSTORE PUSH1 0xD SWAP1 DUP3 ADD MSTORE PUSH32 0x53494D504C455F52455645525400000000000000000000000000000000000000 PUSH1 0x40 DUP3 ADD MSTORE PUSH1 0x60 ADD SWAP1 JUMP JUMPDEST PUSH1 0x20 DUP1 DUP3 MSTORE PUSH1 0xE SWAP1 DUP3 ADD MSTORE PUSH32 0x53494D504C455F52455155495245000000000000000000000000000000000000 PUSH1 0x40 DUP3 ADD MSTORE PUSH1 0x60 ADD SWAP1 JUMP JUMPDEST PUSH1 0x0 PUSH1 0x20 DUP3 MSTORE PUSH1 0xA0 DUP3 ADD DUP4 MLOAD PUSH1 0x80 PUSH1 0x20 DUP6 ADD MSTORE DUP1 MLOAD DUP3 MSTORE PUSH1 0x20 DUP2 ADD MLOAD PUSH1 0x60 PUSH1 0x20 DUP5 ADD MSTORE PUSH2 0x1309 PUSH1 0x60 DUP5 ADD DUP3 PUSH2 0xFEA JUMP JUMPDEST PUSH1 0x40 DUP4 ADD MLOAD SWAP2 POP DUP4 DUP2 SUB PUSH1 0x40 DUP6 ADD MSTORE PUSH2 0x1322 DUP2 DUP4 PUSH2 0xFEA JUMP JUMPDEST SWAP4 POP POP POP POP PUSH1 0x20 DUP5 ADD MLOAD PUSH32 0xFFFFFFFFFFFFFFFFFFFFFFFFFFFFFFFFFFFFFFFFFFFFFFFFFFFFFFFFFFFFFFE0 DUP1 DUP6 DUP5 SUB ADD PUSH1 0x40 DUP7 ADD MSTORE PUSH2 0x1361 DUP4 DUP4 PUSH2 0xFEA JUMP JUMPDEST PUSH1 0x40 DUP8 ADD MLOAD SWAP4 POP DUP2 DUP7 DUP3 SUB ADD PUSH1 0x60 DUP8 ADD MSTORE PUSH2 0x137C DUP2 DUP6 PUSH2 0xFEA JUMP JUMPDEST SWAP3 POP POP PUSH1 0x60 DUP7 ADD MLOAD SWAP3 POP DUP1 DUP6 DUP4 SUB ADD PUSH1 0x80 DUP7 ADD MSTORE POP PUSH2 0x139B DUP2 DUP4 PUSH2 0xFEA JUMP JUMPDEST SWAP6 SWAP5 POP POP POP POP POP JUMP JUMPDEST SWAP1 MLOAD MLOAD DUP2 MSTORE PUSH1 0x20 ADD SWAP1 JUMP JUMPDEST PUSH1 0x0 PUSH1 0x20 DUP3 MSTORE DUP3 MLOAD PUSH1 0x40 PUSH1 0x20 DUP5 ADD MSTORE PUSH2 0x13CB PUSH1 0x60 DUP5 ADD DUP3 PUSH2 0x1034 JUMP JUMPDEST PUSH1 0x20 DUP6 ADD MLOAD SWAP2 POP PUSH32 0xFFFFFFFFFFFFFFFFFFFFFFFFFFFFFFFFFFFFFFFFFFFFFFFFFFFFFFFFFFFFFFE0 DUP5 DUP3 SUB ADD PUSH1 0x40 DUP6 ADD MSTORE PUSH2 0x139B DUP2 DUP4 PUSH2 0xFEA JUMP JUMPDEST PUSH1 0x0 PUSH1 0x20 DUP3 MSTORE PUSH2 0x11F8 PUSH1 0x20 DUP4 ADD DUP5 PUSH2 0x1034 JUMP JUMPDEST SWAP1 DUP2 MSTORE PUSH1 0x20 ADD SWAP1 JUMP JUMPDEST PUSH1 0x0 DUP4 DUP3 MSTORE PUSH1 0x40 PUSH1 0x20 DUP4 ADD MSTORE PUSH2 0xDE2 PUSH1 0x40 DUP4 ADD DUP5 PUSH2 0xFEA JUMP JUMPDEST PUSH1 0x40 MLOAD DUP2 DUP2 ADD PUSH8 0xFFFFFFFFFFFFFFFF DUP2 GT DUP3 DUP3 LT OR ISZERO PUSH2 0x145A JUMPI PUSH1 0x0 DUP1 REVERT JUMPDEST PUSH1 0x40 MSTORE SWAP2 SWAP1 POP JUMP JUMPDEST PUSH1 0x0 PUSH8 0xFFFFFFFFFFFFFFFF DUP3 GT ISZERO PUSH2 0x1478 JUMPI DUP1 DUP2 REVERT JUMPDEST POP PUSH1 0x20 SWAP1 DUP2 MUL ADD SWAP1 JUMP JUMPDEST PUSH1 0x0 JUMPDEST DUP4 DUP2 LT ISZERO PUSH2 0x149D JUMPI DUP2 DUP2 ADD MLOAD DUP4 DUP3 ADD MSTORE PUSH1 0x20 ADD PUSH2 0x1485 JUMP JUMPDEST DUP4 DUP2 GT ISZERO PUSH2 0x14AC JUMPI PUSH1 0x0 DUP5 DUP5 ADD MSTORE JUMPDEST POP POP POP POP JUMP JUMPDEST PUSH20 0xFFFFFFFFFFFFFFFFFFFFFFFFFFFFFFFFFFFFFFFF DUP2 AND DUP2 EQ PUSH2 0x43D JUMPI PUSH1 0x0 DUP1 REVERT INVALID LOG3 PUSH6 0x627A7A723158 KECCAK256 GAS SWAP9 PUSH5 0x6A73BBDA26 PUSH10 0x99B92495C98B4F927E58 JUMPDEST 0xf6 0xc0 DUP2 SWAP8 0xe2 SUB 0xd8 0xda RETURNDATASIZE CALLDATASIZE NUMBER PUSH23 0x6C6578706572696D656E74616CF564736F6C634300050C STOP BLOCKHASH "
			}
		}
	},
	"sourceTreeHashHex": "0x326738f7809f2f704e9d78167b15da864e2c3468e3a7edc6a8a5d89662d73b20",
	"compiler": {
		"name": "solc",
		"version": "soljson-v0.5.12+commit.7709ece9.js",
		"settings": {
			"optimizer": {
				"enabled": true,
				"runs": 1000000,
				"details": {
					"yul": true,
					"deduplicate": true,
					"cse": true,
					"constantOptimizer": true
				}
			},
			"outputSelection": {
				"*": {
					"*": [
						"abi",
						"evm.bytecode.object",
						"evm.bytecode.sourceMap",
						"evm.deployedBytecode.object",
						"evm.deployedBytecode.sourceMap",
						"devdoc"
					]
				}
			},
			"evmVersion": "constantinople",
			"remappings": []
		}
	}
}