{
    "schemaVersion": "2.0.0",
    "contractName": "AbiGenDummy",
    "compilerOutput": {
        "abi": [
            {
                "constant": true,
                "inputs": [],
                "name": "simpleRequire",
                "outputs": [],
                "payable": false,
                "stateMutability": "pure",
                "type": "function"
            },
            {
                "constant": false,
                "inputs": [
                    {
                        "name": "wad",
                        "type": "uint256"
                    }
                ],
                "name": "withdraw",
                "outputs": [],
                "payable": false,
                "stateMutability": "nonpayable",
                "type": "function"
            },
            {
                "constant": true,
                "inputs": [
                    {
                        "name": "hash",
                        "type": "bytes32"
                    },
                    {
                        "name": "v",
                        "type": "uint8"
                    },
                    {
                        "name": "r",
                        "type": "bytes32"
                    },
                    {
                        "name": "s",
                        "type": "bytes32"
                    }
                ],
                "name": "ecrecoverFn",
                "outputs": [
                    {
                        "name": "signerAddress",
                        "type": "address"
                    }
                ],
                "payable": false,
                "stateMutability": "pure",
                "type": "function"
            },
            {
                "constant": true,
                "inputs": [],
                "name": "revertWithConstant",
                "outputs": [],
                "payable": false,
                "stateMutability": "pure",
                "type": "function"
            },
            {
                "constant": true,
                "inputs": [],
                "name": "simpleRevert",
                "outputs": [],
                "payable": false,
                "stateMutability": "pure",
                "type": "function"
            },
            {
                "constant": true,
                "inputs": [],
                "name": "requireWithConstant",
                "outputs": [],
                "payable": false,
                "stateMutability": "pure",
                "type": "function"
            },
            {
                "constant": true,
                "inputs": [
                    {
                        "name": "x",
                        "type": "uint256"
                    }
                ],
                "name": "simplePureFunctionWithInput",
                "outputs": [
                    {
                        "name": "sum",
                        "type": "uint256"
                    }
                ],
                "payable": false,
                "stateMutability": "pure",
                "type": "function"
            },
            {
                "constant": true,
                "inputs": [],
                "name": "simplePureFunction",
                "outputs": [
                    {
                        "name": "result",
                        "type": "uint256"
                    }
                ],
                "payable": false,
                "stateMutability": "pure",
                "type": "function"
            },
            {
                "constant": true,
                "inputs": [],
                "name": "pureFunctionWithConstant",
                "outputs": [
                    {
                        "name": "someConstant",
                        "type": "uint256"
                    }
                ],
                "payable": false,
                "stateMutability": "pure",
                "type": "function"
            },
            {
                "anonymous": false,
                "inputs": [
                    {
                        "indexed": true,
                        "name": "_owner",
                        "type": "address"
                    },
                    {
                        "indexed": false,
                        "name": "_value",
                        "type": "uint256"
                    }
                ],
                "name": "Withdrawal",
                "type": "event"
            }
        ],
        "evm": {
            "bytecode": {
                "linkReferences": {},
                "object": "0x608060405234801561001057600080fd5b506105c1806100206000396000f3fe608060405234801561001057600080fd5b50600436106100a25760003560e01c806345fdbdb7116100765780638ee52b4e1161005b5780638ee52b4e14610141578063a3c2f6b614610170578063d88be12f14610178576100a2565b806345fdbdb7146101315780635ba3c7c014610139576100a2565b806209e437146100a75780632e1a7d4d146100b157806336b32396146100ce5780634582eab214610129575b600080fd5b6100af610180565b005b6100af600480360360208110156100c757600080fd5b50356101e7565b610100600480360360808110156100e457600080fd5b5080359060ff6020820135169060408101359060600135610220565b6040805173ffffffffffffffffffffffffffffffffffffffff9092168252519081900360200190f35b6100af6103ae565b6100af610482565b6100af6104e9565b61015e6004803603602081101561015757600080fd5b503561057b565b60408051918252519081900360200190f35b61015e610581565b61015e610586565b604080517f08c379a000000000000000000000000000000000000000000000000000000000815260206004820152600e60248201527f53494d504c455f52455155495245000000000000000000000000000000000000604482015290519081900360640190fd5b60408051828152905133917f7fcf532c15f0a6db0bd6d0e038bea71d30d808c7d98cb3bf7268a95bf5081b65919081900360200190a250565b600060606040518060400160405280601c81526020017f19457468657265756d205369676e6564204d6573736167653a0a3332000000008152509050600081876040516020018083805190602001908083835b602083106102b057805182527fffffffffffffffffffffffffffffffffffffffffffffffffffffffffffffffe09092019160209182019101610273565b51815160209384036101000a7fffffffffffffffffffffffffffffffffffffffffffffffffffffffffffffffff0180199092169116179052920193845250604080518085038152848301808352815191840191909120600090915281850180835281905260ff8c166060860152608085018b905260a085018a905290519095506001945060c0808501949293507fffffffffffffffffffffffffffffffffffffffffffffffffffffffffffffffe08201928290030190855afa15801561037a573d6000803e3d6000fd5b50506040517fffffffffffffffffffffffffffffffffffffffffffffffffffffffffffffffe0015198975050505050505050565b6040518060400160405280601481526020017f5245564552545f574954485f434f4e5354414e540000000000000000000000008152506040517f08c379a00000000000000000000000000000000000000000000000000000000081526004018080602001828103825283818151815260200191508051906020019080838360005b8381101561044757818101518382015260200161042f565b50505050905090810190601f1680156104745780820380516001836020036101000a031916815260200191505b509250505060405180910390fd5b604080517f08c379a000000000000000000000000000000000000000000000000000000000815260206004820152600d60248201527f53494d504c455f52455645525400000000000000000000000000000000000000604482015290519081900360640190fd5b604080518082018252601581527f524551554952455f574954485f434f4e5354414e540000000000000000000000602080830191825292517f08c379a0000000000000000000000000000000000000000000000000000000008152600481019384528251602482015282519293928392604490920191908083836000831561044757818101518382015260200161042f565b60010190565b600190565b6104d29056fea265627a7a723058201295ab7b816718b6fb29e8d8a37706c0d948ebf6b61ae59f19fcc5475a7e95cc64736f6c634300050a0032",
                "opcodes": "PUSH1 0x80 PUSH1 0x40 MSTORE CALLVALUE DUP1 ISZERO PUSH2 0x10 JUMPI PUSH1 0x0 DUP1 REVERT JUMPDEST POP PUSH2 0x5C1 DUP1 PUSH2 0x20 PUSH1 0x0 CODECOPY PUSH1 0x0 RETURN INVALID PUSH1 0x80 PUSH1 0x40 MSTORE CALLVALUE DUP1 ISZERO PUSH2 0x10 JUMPI PUSH1 0x0 DUP1 REVERT JUMPDEST POP PUSH1 0x4 CALLDATASIZE LT PUSH2 0xA2 JUMPI PUSH1 0x0 CALLDATALOAD PUSH1 0xE0 SHR DUP1 PUSH4 0x45FDBDB7 GT PUSH2 0x76 JUMPI DUP1 PUSH4 0x8EE52B4E GT PUSH2 0x5B JUMPI DUP1 PUSH4 0x8EE52B4E EQ PUSH2 0x141 JUMPI DUP1 PUSH4 0xA3C2F6B6 EQ PUSH2 0x170 JUMPI DUP1 PUSH4 0xD88BE12F EQ PUSH2 0x178 JUMPI PUSH2 0xA2 JUMP JUMPDEST DUP1 PUSH4 0x45FDBDB7 EQ PUSH2 0x131 JUMPI DUP1 PUSH4 0x5BA3C7C0 EQ PUSH2 0x139 JUMPI PUSH2 0xA2 JUMP JUMPDEST DUP1 PUSH3 0x9E437 EQ PUSH2 0xA7 JUMPI DUP1 PUSH4 0x2E1A7D4D EQ PUSH2 0xB1 JUMPI DUP1 PUSH4 0x36B32396 EQ PUSH2 0xCE JUMPI DUP1 PUSH4 0x4582EAB2 EQ PUSH2 0x129 JUMPI JUMPDEST PUSH1 0x0 DUP1 REVERT JUMPDEST PUSH2 0xAF PUSH2 0x180 JUMP JUMPDEST STOP JUMPDEST PUSH2 0xAF PUSH1 0x4 DUP1 CALLDATASIZE SUB PUSH1 0x20 DUP2 LT ISZERO PUSH2 0xC7 JUMPI PUSH1 0x0 DUP1 REVERT JUMPDEST POP CALLDATALOAD PUSH2 0x1E7 JUMP JUMPDEST PUSH2 0x100 PUSH1 0x4 DUP1 CALLDATASIZE SUB PUSH1 0x80 DUP2 LT ISZERO PUSH2 0xE4 JUMPI PUSH1 0x0 DUP1 REVERT JUMPDEST POP DUP1 CALLDATALOAD SWAP1 PUSH1 0xFF PUSH1 0x20 DUP3 ADD CALLDATALOAD AND SWAP1 PUSH1 0x40 DUP2 ADD CALLDATALOAD SWAP1 PUSH1 0x60 ADD CALLDATALOAD PUSH2 0x220 JUMP JUMPDEST PUSH1 0x40 DUP1 MLOAD PUSH20 0xFFFFFFFFFFFFFFFFFFFFFFFFFFFFFFFFFFFFFFFF SWAP1 SWAP3 AND DUP3 MSTORE MLOAD SWAP1 DUP2 SWAP1 SUB PUSH1 0x20 ADD SWAP1 RETURN JUMPDEST PUSH2 0xAF PUSH2 0x3AE JUMP JUMPDEST PUSH2 0xAF PUSH2 0x482 JUMP JUMPDEST PUSH2 0xAF PUSH2 0x4E9 JUMP JUMPDEST PUSH2 0x15E PUSH1 0x4 DUP1 CALLDATASIZE SUB PUSH1 0x20 DUP2 LT ISZERO PUSH2 0x157 JUMPI PUSH1 0x0 DUP1 REVERT JUMPDEST POP CALLDATALOAD PUSH2 0x57B JUMP JUMPDEST PUSH1 0x40 DUP1 MLOAD SWAP2 DUP3 MSTORE MLOAD SWAP1 DUP2 SWAP1 SUB PUSH1 0x20 ADD SWAP1 RETURN JUMPDEST PUSH2 0x15E PUSH2 0x581 JUMP JUMPDEST PUSH2 0x15E PUSH2 0x586 JUMP JUMPDEST PUSH1 0x40 DUP1 MLOAD PUSH32 0x8C379A000000000000000000000000000000000000000000000000000000000 DUP2 MSTORE PUSH1 0x20 PUSH1 0x4 DUP3 ADD MSTORE PUSH1 0xE PUSH1 0x24 DUP3 ADD MSTORE PUSH32 0x53494D504C455F52455155495245000000000000000000000000000000000000 PUSH1 0x44 DUP3 ADD MSTORE SWAP1 MLOAD SWAP1 DUP2 SWAP1 SUB PUSH1 0x64 ADD SWAP1 REVERT JUMPDEST PUSH1 0x40 DUP1 MLOAD DUP3 DUP2 MSTORE SWAP1 MLOAD CALLER SWAP2 PUSH32 0x7FCF532C15F0A6DB0BD6D0E038BEA71D30D808C7D98CB3BF7268A95BF5081B65 SWAP2 SWAP1 DUP2 SWAP1 SUB PUSH1 0x20 ADD SWAP1 LOG2 POP JUMP JUMPDEST PUSH1 0x0 PUSH1 0x60 PUSH1 0x40 MLOAD DUP1 PUSH1 0x40 ADD PUSH1 0x40 MSTORE DUP1 PUSH1 0x1C DUP2 MSTORE PUSH1 0x20 ADD PUSH32 0x19457468657265756D205369676E6564204D6573736167653A0A333200000000 DUP2 MSTORE POP SWAP1 POP PUSH1 0x0 DUP2 DUP8 PUSH1 0x40 MLOAD PUSH1 0x20 ADD DUP1 DUP4 DUP1 MLOAD SWAP1 PUSH1 0x20 ADD SWAP1 DUP1 DUP4 DUP4 JUMPDEST PUSH1 0x20 DUP4 LT PUSH2 0x2B0 JUMPI DUP1 MLOAD DUP3 MSTORE PUSH32 0xFFFFFFFFFFFFFFFFFFFFFFFFFFFFFFFFFFFFFFFFFFFFFFFFFFFFFFFFFFFFFFE0 SWAP1 SWAP3 ADD SWAP2 PUSH1 0x20 SWAP2 DUP3 ADD SWAP2 ADD PUSH2 0x273 JUMP JUMPDEST MLOAD DUP2 MLOAD PUSH1 0x20 SWAP4 DUP5 SUB PUSH2 0x100 EXP PUSH32 0xFFFFFFFFFFFFFFFFFFFFFFFFFFFFFFFFFFFFFFFFFFFFFFFFFFFFFFFFFFFFFFFF ADD DUP1 NOT SWAP1 SWAP3 AND SWAP2 AND OR SWAP1 MSTORE SWAP3 ADD SWAP4 DUP5 MSTORE POP PUSH1 0x40 DUP1 MLOAD DUP1 DUP6 SUB DUP2 MSTORE DUP5 DUP4 ADD DUP1 DUP4 MSTORE DUP2 MLOAD SWAP2 DUP5 ADD SWAP2 SWAP1 SWAP2 KECCAK256 PUSH1 0x0 SWAP1 SWAP2 MSTORE DUP2 DUP6 ADD DUP1 DUP4 MSTORE DUP2 SWAP1 MSTORE PUSH1 0xFF DUP13 AND PUSH1 0x60 DUP7 ADD MSTORE PUSH1 0x80 DUP6 ADD DUP12 SWAP1 MSTORE PUSH1 0xA0 DUP6 ADD DUP11 SWAP1 MSTORE SWAP1 MLOAD SWAP1 SWAP6 POP PUSH1 0x1 SWAP5 POP PUSH1 0xC0 DUP1 DUP6 ADD SWAP5 SWAP3 SWAP4 POP PUSH32 0xFFFFFFFFFFFFFFFFFFFFFFFFFFFFFFFFFFFFFFFFFFFFFFFFFFFFFFFFFFFFFFE0 DUP3 ADD SWAP3 DUP3 SWAP1 SUB ADD SWAP1 DUP6 GAS STATICCALL ISZERO DUP1 ISZERO PUSH2 0x37A JUMPI RETURNDATASIZE PUSH1 0x0 DUP1 RETURNDATACOPY RETURNDATASIZE PUSH1 0x0 REVERT JUMPDEST POP POP PUSH1 0x40 MLOAD PUSH32 0xFFFFFFFFFFFFFFFFFFFFFFFFFFFFFFFFFFFFFFFFFFFFFFFFFFFFFFFFFFFFFFE0 ADD MLOAD SWAP9 SWAP8 POP POP POP POP POP POP POP POP JUMP JUMPDEST PUSH1 0x40 MLOAD DUP1 PUSH1 0x40 ADD PUSH1 0x40 MSTORE DUP1 PUSH1 0x14 DUP2 MSTORE PUSH1 0x20 ADD PUSH32 0x5245564552545F574954485F434F4E5354414E54000000000000000000000000 DUP2 MSTORE POP PUSH1 0x40 MLOAD PUSH32 0x8C379A000000000000000000000000000000000000000000000000000000000 DUP2 MSTORE PUSH1 0x4 ADD DUP1 DUP1 PUSH1 0x20 ADD DUP3 DUP2 SUB DUP3 MSTORE DUP4 DUP2 DUP2 MLOAD DUP2 MSTORE PUSH1 0x20 ADD SWAP2 POP DUP1 MLOAD SWAP1 PUSH1 0x20 ADD SWAP1 DUP1 DUP4 DUP4 PUSH1 0x0 JUMPDEST DUP4 DUP2 LT ISZERO PUSH2 0x447 JUMPI DUP2 DUP2 ADD MLOAD DUP4 DUP3 ADD MSTORE PUSH1 0x20 ADD PUSH2 0x42F JUMP JUMPDEST POP POP POP POP SWAP1 POP SWAP1 DUP2 ADD SWAP1 PUSH1 0x1F AND DUP1 ISZERO PUSH2 0x474 JUMPI DUP1 DUP3 SUB DUP1 MLOAD PUSH1 0x1 DUP4 PUSH1 0x20 SUB PUSH2 0x100 EXP SUB NOT AND DUP2 MSTORE PUSH1 0x20 ADD SWAP2 POP JUMPDEST POP SWAP3 POP POP POP PUSH1 0x40 MLOAD DUP1 SWAP2 SUB SWAP1 REVERT JUMPDEST PUSH1 0x40 DUP1 MLOAD PUSH32 0x8C379A000000000000000000000000000000000000000000000000000000000 DUP2 MSTORE PUSH1 0x20 PUSH1 0x4 DUP3 ADD MSTORE PUSH1 0xD PUSH1 0x24 DUP3 ADD MSTORE PUSH32 0x53494D504C455F52455645525400000000000000000000000000000000000000 PUSH1 0x44 DUP3 ADD MSTORE SWAP1 MLOAD SWAP1 DUP2 SWAP1 SUB PUSH1 0x64 ADD SWAP1 REVERT JUMPDEST PUSH1 0x40 DUP1 MLOAD DUP1 DUP3 ADD DUP3 MSTORE PUSH1 0x15 DUP2 MSTORE PUSH32 0x524551554952455F574954485F434F4E5354414E540000000000000000000000 PUSH1 0x20 DUP1 DUP4 ADD SWAP2 DUP3 MSTORE SWAP3 MLOAD PUSH32 0x8C379A000000000000000000000000000000000000000000000000000000000 DUP2 MSTORE PUSH1 0x4 DUP2 ADD SWAP4 DUP5 MSTORE DUP3 MLOAD PUSH1 0x24 DUP3 ADD MSTORE DUP3 MLOAD SWAP3 SWAP4 SWAP3 DUP4 SWAP3 PUSH1 0x44 SWAP1 SWAP3 ADD SWAP2 SWAP1 DUP1 DUP4 DUP4 PUSH1 0x0 DUP4 ISZERO PUSH2 0x447 JUMPI DUP2 DUP2 ADD MLOAD DUP4 DUP3 ADD MSTORE PUSH1 0x20 ADD PUSH2 0x42F JUMP JUMPDEST PUSH1 0x1 ADD SWAP1 JUMP JUMPDEST PUSH1 0x1 SWAP1 JUMP JUMPDEST PUSH2 0x4D2 SWAP1 JUMP INVALID LOG2 PUSH6 0x627A7A723058 KECCAK256 SLT SWAP6 0xab PUSH28 0x816718B6FB29E8D8A37706C0D948EBF6B61AE59F19FCC5475A7E95CC PUSH5 0x736F6C6343 STOP SDIV EXP STOP ORIGIN "
            }
        }
    },
    "sourceTreeHashHex": "0xb54d5831c81dcde41928abb407a01c11d6d8e1531ea14be861bf8dae22dec718",
    "compiler": {
        "name": "solc",
        "version": "soljson-v0.5.10+commit.5a6ea5b1.js",
        "settings": {
            "optimizer": {
                "enabled": true,
                "runs": 1000000,
                "details": {
                    "yul": true,
                    "deduplicate": true,
                    "cse": true,
                    "constantOptimizer": true
                }
            },
            "outputSelection": {
                "*": {
                    "*": [
                        "abi",
                        "evm.bytecode.object",
                        "evm.bytecode.sourceMap",
                        "evm.deployedBytecode.object",
                        "evm.deployedBytecode.sourceMap"
                    ]
                }
            },
            "evmVersion": "constantinople",
            "remappings": []
        }
    }
}