{
	"schemaVersion": "2.0.0",
	"contractName": "AbiGenDummy",
	"compilerOutput": {
		"abi": [
			{
				"constant": true,
				"inputs": [],
				"name": "simpleRequire",
				"outputs": [],
				"payable": false,
				"stateMutability": "pure",
				"type": "function"
			},
			{
				"constant": true,
				"inputs": [
					{
						"name": "a",
						"type": "bytes[]"
					}
				],
				"name": "acceptsAnArrayOfBytes",
				"outputs": [],
				"payable": false,
				"stateMutability": "pure",
				"type": "function"
			},
			{
				"constant": false,
				"inputs": [
					{
						"name": "wad",
						"type": "uint256"
					}
				],
				"name": "withdraw",
				"outputs": [],
				"payable": false,
				"stateMutability": "nonpayable",
				"type": "function"
			},
			{
				"constant": true,
				"inputs": [
					{
						"name": "hash",
						"type": "bytes32"
					},
					{
						"name": "v",
						"type": "uint8"
					},
					{
						"name": "r",
						"type": "bytes32"
					},
					{
						"name": "s",
						"type": "bytes32"
					}
				],
				"name": "ecrecoverFn",
				"outputs": [
					{
						"name": "signerAddress",
						"type": "address"
					}
				],
				"payable": false,
				"stateMutability": "pure",
				"type": "function"
			},
			{
				"constant": true,
				"inputs": [
					{
						"name": "a",
						"type": "bytes"
					}
				],
				"name": "acceptsBytes",
				"outputs": [],
				"payable": false,
				"stateMutability": "pure",
				"type": "function"
			},
			{
				"constant": true,
				"inputs": [],
				"name": "revertWithConstant",
				"outputs": [],
				"payable": false,
				"stateMutability": "pure",
				"type": "function"
			},
			{
				"constant": true,
				"inputs": [],
				"name": "simpleRevert",
				"outputs": [],
				"payable": false,
				"stateMutability": "pure",
				"type": "function"
			},
			{
				"constant": true,
				"inputs": [],
				"name": "nestedStructOutput",
				"outputs": [
					{
						"components": [
							{
								"components": [
									{
										"name": "someBytes",
										"type": "bytes"
									},
									{
										"name": "anInteger",
										"type": "uint32"
									},
									{
										"name": "aDynamicArrayOfBytes",
										"type": "bytes[]"
									},
									{
										"name": "aString",
										"type": "string"
									}
								],
								"name": "innerStruct",
								"type": "tuple"
							},
							{
								"name": "description",
								"type": "string"
							}
						],
						"name": "",
						"type": "tuple"
					}
				],
				"payable": false,
				"stateMutability": "pure",
				"type": "function"
			},
			{
				"constant": true,
				"inputs": [],
				"name": "requireWithConstant",
				"outputs": [],
				"payable": false,
				"stateMutability": "pure",
				"type": "function"
			},
			{
				"constant": true,
				"inputs": [
					{
						"name": "x",
						"type": "address"
					},
					{
						"name": "a",
						"type": "uint256"
					},
					{
						"name": "b",
						"type": "uint256"
					},
					{
						"name": "y",
						"type": "address"
					},
					{
						"name": "c",
						"type": "uint256"
					}
				],
				"name": "withAddressInput",
				"outputs": [
					{
						"name": "z",
						"type": "address"
					}
				],
				"payable": false,
				"stateMutability": "pure",
				"type": "function"
			},
			{
				"constant": true,
				"inputs": [
					{
						"components": [
							{
								"name": "someBytes",
								"type": "bytes"
							},
							{
								"name": "anInteger",
								"type": "uint32"
							},
							{
								"name": "aDynamicArrayOfBytes",
								"type": "bytes[]"
							},
							{
								"name": "aString",
								"type": "string"
							}
						],
						"name": "s",
						"type": "tuple"
					}
				],
				"name": "structInput",
				"outputs": [],
				"payable": false,
				"stateMutability": "pure",
				"type": "function"
			},
			{
				"constant": false,
				"inputs": [],
				"name": "nonPureMethod",
				"outputs": [
					{
						"name": "",
						"type": "uint256"
					}
				],
				"payable": false,
				"stateMutability": "nonpayable",
				"type": "function"
			},
			{
				"constant": true,
				"inputs": [
					{
						"name": "x",
						"type": "uint256"
					}
				],
				"name": "simplePureFunctionWithInput",
				"outputs": [
					{
						"name": "sum",
						"type": "uint256"
					}
				],
				"payable": false,
				"stateMutability": "pure",
				"type": "function"
			},
			{
				"constant": false,
				"inputs": [],
				"name": "nonPureMethodThatReturnsNothing",
				"outputs": [],
				"payable": false,
				"stateMutability": "nonpayable",
				"type": "function"
			},
			{
				"constant": true,
				"inputs": [],
				"name": "simplePureFunction",
				"outputs": [
					{
						"name": "result",
						"type": "uint256"
					}
				],
				"payable": false,
				"stateMutability": "pure",
				"type": "function"
			},
			{
				"constant": true,
				"inputs": [
					{
						"components": [
							{
								"components": [
									{
										"name": "someBytes",
										"type": "bytes"
									},
									{
										"name": "anInteger",
										"type": "uint32"
									},
									{
										"name": "aDynamicArrayOfBytes",
										"type": "bytes[]"
									},
									{
										"name": "aString",
										"type": "string"
									}
								],
								"name": "innerStruct",
								"type": "tuple"
							},
							{
								"name": "description",
								"type": "string"
							}
						],
						"name": "n",
						"type": "tuple"
					}
				],
				"name": "nestedStructInput",
				"outputs": [],
				"payable": false,
				"stateMutability": "pure",
				"type": "function"
			},
			{
				"constant": true,
				"inputs": [],
				"name": "methodReturningMultipleValues",
				"outputs": [
					{
						"name": "",
						"type": "uint256"
					},
					{
						"name": "",
						"type": "string"
					}
				],
				"payable": false,
				"stateMutability": "pure",
				"type": "function"
			},
			{
				"constant": true,
				"inputs": [],
				"name": "structOutput",
				"outputs": [
					{
						"components": [
							{
								"name": "someBytes",
								"type": "bytes"
							},
							{
								"name": "anInteger",
								"type": "uint32"
							},
							{
								"name": "aDynamicArrayOfBytes",
								"type": "bytes[]"
							},
							{
								"name": "aString",
								"type": "string"
							}
						],
						"name": "s",
						"type": "tuple"
					}
				],
				"payable": false,
				"stateMutability": "pure",
				"type": "function"
			},
			{
				"constant": true,
				"inputs": [],
				"name": "pureFunctionWithConstant",
				"outputs": [
					{
						"name": "someConstant",
						"type": "uint256"
					}
				],
				"payable": false,
				"stateMutability": "pure",
				"type": "function"
			},
			{
				"anonymous": false,
				"inputs": [
					{
						"indexed": true,
						"name": "_owner",
						"type": "address"
					},
					{
						"indexed": false,
						"name": "_value",
						"type": "uint256"
					}
				],
				"name": "Withdrawal",
				"type": "event"
			},
			{
				"anonymous": false,
				"inputs": [
					{
						"indexed": false,
						"name": "param",
						"type": "uint8"
					}
				],
				"name": "AnEvent",
				"type": "event"
			}
		],
		"devdoc": {
			"methods": {
				"acceptsAnArrayOfBytes(bytes[])": {
					"details": "a method that accepts an array of bytes",
					"params": {
						"a": "the array of bytes being accepted"
					}
				},
				"structOutput()": {
					"details": "a method that returns a struct",
					"return": "a Struct struct"
				}
			}
		},
		"evm": {
			"bytecode": {
				"linkReferences": {},
				"object": "0x608060405234801561001057600080fd5b50610c9a806100206000396000f3fe608060405234801561001057600080fd5b50600436106101505760003560e01c806363d69c88116100cd578063a3c2f6b611610081578063bb60736211610066578063bb60736214610250578063d6d7618c14610266578063d88be12f1461027b57610150565b8063a3c2f6b61461023a578063ae2dae171461024257610150565b806376f15d5b116100b257806376f15d5b1461020a5780638ee52b4e1461021f5780639a3b61851461023257610150565b806363d69c88146101e9578063647341eb146101fc57610150565b80633e9ef66a1161012457806345fdbdb71161010957806345fdbdb7146101c457806359c28add146101cc5780635ba3c7c0146101e157610150565b80633e9ef66a146101ae5780634582eab2146101bc57610150565b806209e437146101555780630527c28f1461015f5780632e1a7d4d1461017257806336b3239614610185575b600080fd5b61015d610283565b005b61015d61016d3660046107c0565b6102be565b61015d61018036600461093a565b6102c1565b6101986101933660046107fd565b610312565b6040516101a59190610a82565b60405180910390f35b61015d61016d366004610840565b61015d6103f4565b61015d610459565b6101d461048b565b6040516101a59190610b49565b61015d610496565b6101986101f736600461076e565b6104fb565b61015d61016d366004610905565b610212610504565b6040516101a59190610bbc565b61021261022d36600461093a565b610512565b61015d610518565b610212610523565b61015d61016d366004610875565b610258610528565b6040516101a5929190610bc5565b61026e610561565b6040516101a59190610ba9565b610212610569565b6040517f08c379a00000000000000000000000000000000000000000000000000000000081526004016102b590610b12565b60405180910390fd5b50565b3373ffffffffffffffffffffffffffffffffffffffff167f7fcf532c15f0a6db0bd6d0e038bea71d30d808c7d98cb3bf7268a95bf5081b65826040516103079190610bbc565b60405180910390a250565b600060606040518060400160405280601c81526020017f19457468657265756d205369676e6564204d6573736167653a0a333200000000815250905060008187604051602001610363929190610a60565b6040516020818303038152906040528051906020012090506001818787876040516000815260200160405260405161039e9493929190610aa3565b6020604051602081039080840390855afa1580156103c0573d6000803e3d6000fd5b50506040517fffffffffffffffffffffffffffffffffffffffffffffffffffffffffffffffe0015198975050505050505050565b604080518082018252601481527f5245564552545f574954485f434f4e5354414e54000000000000000000000000602082015290517f08c379a00000000000000000000000000000000000000000000000000000000081526102b59190600401610ac1565b6040517f08c379a00000000000000000000000000000000000000000000000000000000081526004016102b590610adb565b61049361056f565b90565b604080518082018252601581527f524551554952455f574954485f434f4e5354414e540000000000000000000000602082015290517f08c379a00000000000000000000000000000000000000000000000000000000081526102b59190600401610ac1565b50929392505050565b600080546001019081905590565b60010190565b600080546001019055565b600190565b60408051808201909152600581527f68656c6c6f0000000000000000000000000000000000000000000000000000006020820152600191565b61049361058f565b6104d290565b6040518060a0016040528061058261058f565b8152602001606081525090565b604051806080016040528060608152602001600063ffffffff16815260200160608152602001606081525090565b600082601f8301126105cd578081fd5b813567ffffffffffffffff8111156105e3578182fd5b60206105f28182840201610bde565b828152925080830184820160005b8481101561062957610617888584358a0101610634565b83529183019190830190600101610600565b505050505092915050565b600082601f830112610644578081fd5b813567ffffffffffffffff81111561065a578182fd5b61068b60207fffffffffffffffffffffffffffffffffffffffffffffffffffffffffffffffe0601f84011601610bde565b91508082528360208285010111156106a257600080fd5b8060208401602084013760009082016020015292915050565b6000608082840312156106cc578081fd5b6106d66080610bde565b90506000823567ffffffffffffffff808211156106f1578283fd5b6106fd86838701610634565b84526020850135915063ffffffff82168214610717578283fd5b8160208501526040850135915080821115610730578283fd5b61073c868387016105bd565b60408501526060850135915080821115610754578283fd5b5061076185828601610634565b6060840152505092915050565b600080600080600060a0868803121561078657600080fd5b853561079181610c35565b9450602086013593506040860135925060608601356107af81610c35565b949793965091946080013592915050565b6000602082840312156107d257600080fd5b813567ffffffffffffffff8111156107e957600080fd5b6107f5848285016105bd565b949350505050565b6000806000806080858703121561081357600080fd5b84359350602085013560ff8116811461082b57600080fd5b93969395505050506040820135916060013590565b60006020828403121561085257600080fd5b813567ffffffffffffffff81111561086957600080fd5b6107f584828501610634565b600060208284031215610886578081fd5b813567ffffffffffffffff8082111561089d578283fd5b818401604081870312156108af578384fd5b6108b96040610bde565b92508035828111156108c9578485fd5b6108d5878284016106bb565b8452506020810135828111156108e9578485fd5b6108f587828401610634565b6020850152509195945050505050565b60006020828403121561091757600080fd5b813567ffffffffffffffff81111561092e57600080fd5b6107f5848285016106bb565b60006020828403121561094c57600080fd5b5035919050565b6000815180845261096b816020860160208601610c05565b601f017fffffffffffffffffffffffffffffffffffffffffffffffffffffffffffffffe0169290920160200192915050565b60008151608084526109b26080850182610953565b6020915063ffffffff82850151168286015260408401518582036040870152818151808452848401915084858202850101858401600094505b82851015610a39577fffffffffffffffffffffffffffffffffffffffffffffffffffffffffffffffe0868303018452610a25828251610953565b6001959095019493870193915086016109eb565b506060880151955088810360608a0152610a538187610953565b9998505050505050505050565b60008351610a72818460208801610c05565b9190910191825250602001919050565b73ffffffffffffffffffffffffffffffffffffffff91909116815260200190565b93845260ff9290921660208401526040830152606082015260800190565b600060208252610ad46020830184610953565b9392505050565b6020808252600d908201527f53494d504c455f52455645525400000000000000000000000000000000000000604082015260600190565b6020808252600e908201527f53494d504c455f52455155495245000000000000000000000000000000000000604082015260600190565b600060208252825160406020840152610b65606084018261099d565b602085015191507fffffffffffffffffffffffffffffffffffffffffffffffffffffffffffffffe0848203016040850152610ba08183610953565b95945050505050565b600060208252610ad4602083018461099d565b90815260200190565b6000838252604060208301526107f56040830184610953565b60405181810167ffffffffffffffff81118282101715610bfd57600080fd5b604052919050565b60005b83811015610c20578181015183820152602001610c08565b83811115610c2f576000848401525b50505050565b73ffffffffffffffffffffffffffffffffffffffff811681146102be57600080fdfea365627a7a72305820f6b4b4d0e996bd5b11431e7e79fe7caa63d4cc0f7725a6a5178f890b638864796c6578706572696d656e74616cf564736f6c634300050a0040",
				"opcodes": "PUSH1 0x80 PUSH1 0x40 MSTORE CALLVALUE DUP1 ISZERO PUSH2 0x10 JUMPI PUSH1 0x0 DUP1 REVERT JUMPDEST POP PUSH2 0xC9A DUP1 PUSH2 0x20 PUSH1 0x0 CODECOPY PUSH1 0x0 RETURN INVALID PUSH1 0x80 PUSH1 0x40 MSTORE CALLVALUE DUP1 ISZERO PUSH2 0x10 JUMPI PUSH1 0x0 DUP1 REVERT JUMPDEST POP PUSH1 0x4 CALLDATASIZE LT PUSH2 0x150 JUMPI PUSH1 0x0 CALLDATALOAD PUSH1 0xE0 SHR DUP1 PUSH4 0x63D69C88 GT PUSH2 0xCD JUMPI DUP1 PUSH4 0xA3C2F6B6 GT PUSH2 0x81 JUMPI DUP1 PUSH4 0xBB607362 GT PUSH2 0x66 JUMPI DUP1 PUSH4 0xBB607362 EQ PUSH2 0x250 JUMPI DUP1 PUSH4 0xD6D7618C EQ PUSH2 0x266 JUMPI DUP1 PUSH4 0xD88BE12F EQ PUSH2 0x27B JUMPI PUSH2 0x150 JUMP JUMPDEST DUP1 PUSH4 0xA3C2F6B6 EQ PUSH2 0x23A JUMPI DUP1 PUSH4 0xAE2DAE17 EQ PUSH2 0x242 JUMPI PUSH2 0x150 JUMP JUMPDEST DUP1 PUSH4 0x76F15D5B GT PUSH2 0xB2 JUMPI DUP1 PUSH4 0x76F15D5B EQ PUSH2 0x20A JUMPI DUP1 PUSH4 0x8EE52B4E EQ PUSH2 0x21F JUMPI DUP1 PUSH4 0x9A3B6185 EQ PUSH2 0x232 JUMPI PUSH2 0x150 JUMP JUMPDEST DUP1 PUSH4 0x63D69C88 EQ PUSH2 0x1E9 JUMPI DUP1 PUSH4 0x647341EB EQ PUSH2 0x1FC JUMPI PUSH2 0x150 JUMP JUMPDEST DUP1 PUSH4 0x3E9EF66A GT PUSH2 0x124 JUMPI DUP1 PUSH4 0x45FDBDB7 GT PUSH2 0x109 JUMPI DUP1 PUSH4 0x45FDBDB7 EQ PUSH2 0x1C4 JUMPI DUP1 PUSH4 0x59C28ADD EQ PUSH2 0x1CC JUMPI DUP1 PUSH4 0x5BA3C7C0 EQ PUSH2 0x1E1 JUMPI PUSH2 0x150 JUMP JUMPDEST DUP1 PUSH4 0x3E9EF66A EQ PUSH2 0x1AE JUMPI DUP1 PUSH4 0x4582EAB2 EQ PUSH2 0x1BC JUMPI PUSH2 0x150 JUMP JUMPDEST DUP1 PUSH3 0x9E437 EQ PUSH2 0x155 JUMPI DUP1 PUSH4 0x527C28F EQ PUSH2 0x15F JUMPI DUP1 PUSH4 0x2E1A7D4D EQ PUSH2 0x172 JUMPI DUP1 PUSH4 0x36B32396 EQ PUSH2 0x185 JUMPI JUMPDEST PUSH1 0x0 DUP1 REVERT JUMPDEST PUSH2 0x15D PUSH2 0x283 JUMP JUMPDEST STOP JUMPDEST PUSH2 0x15D PUSH2 0x16D CALLDATASIZE PUSH1 0x4 PUSH2 0x7C0 JUMP JUMPDEST PUSH2 0x2BE JUMP JUMPDEST PUSH2 0x15D PUSH2 0x180 CALLDATASIZE PUSH1 0x4 PUSH2 0x93A JUMP JUMPDEST PUSH2 0x2C1 JUMP JUMPDEST PUSH2 0x198 PUSH2 0x193 CALLDATASIZE PUSH1 0x4 PUSH2 0x7FD JUMP JUMPDEST PUSH2 0x312 JUMP JUMPDEST PUSH1 0x40 MLOAD PUSH2 0x1A5 SWAP2 SWAP1 PUSH2 0xA82 JUMP JUMPDEST PUSH1 0x40 MLOAD DUP1 SWAP2 SUB SWAP1 RETURN JUMPDEST PUSH2 0x15D PUSH2 0x16D CALLDATASIZE PUSH1 0x4 PUSH2 0x840 JUMP JUMPDEST PUSH2 0x15D PUSH2 0x3F4 JUMP JUMPDEST PUSH2 0x15D PUSH2 0x459 JUMP JUMPDEST PUSH2 0x1D4 PUSH2 0x48B JUMP JUMPDEST PUSH1 0x40 MLOAD PUSH2 0x1A5 SWAP2 SWAP1 PUSH2 0xB49 JUMP JUMPDEST PUSH2 0x15D PUSH2 0x496 JUMP JUMPDEST PUSH2 0x198 PUSH2 0x1F7 CALLDATASIZE PUSH1 0x4 PUSH2 0x76E JUMP JUMPDEST PUSH2 0x4FB JUMP JUMPDEST PUSH2 0x15D PUSH2 0x16D CALLDATASIZE PUSH1 0x4 PUSH2 0x905 JUMP JUMPDEST PUSH2 0x212 PUSH2 0x504 JUMP JUMPDEST PUSH1 0x40 MLOAD PUSH2 0x1A5 SWAP2 SWAP1 PUSH2 0xBBC JUMP JUMPDEST PUSH2 0x212 PUSH2 0x22D CALLDATASIZE PUSH1 0x4 PUSH2 0x93A JUMP JUMPDEST PUSH2 0x512 JUMP JUMPDEST PUSH2 0x15D PUSH2 0x518 JUMP JUMPDEST PUSH2 0x212 PUSH2 0x523 JUMP JUMPDEST PUSH2 0x15D PUSH2 0x16D CALLDATASIZE PUSH1 0x4 PUSH2 0x875 JUMP JUMPDEST PUSH2 0x258 PUSH2 0x528 JUMP JUMPDEST PUSH1 0x40 MLOAD PUSH2 0x1A5 SWAP3 SWAP2 SWAP1 PUSH2 0xBC5 JUMP JUMPDEST PUSH2 0x26E PUSH2 0x561 JUMP JUMPDEST PUSH1 0x40 MLOAD PUSH2 0x1A5 SWAP2 SWAP1 PUSH2 0xBA9 JUMP JUMPDEST PUSH2 0x212 PUSH2 0x569 JUMP JUMPDEST PUSH1 0x40 MLOAD PUSH32 0x8C379A000000000000000000000000000000000000000000000000000000000 DUP2 MSTORE PUSH1 0x4 ADD PUSH2 0x2B5 SWAP1 PUSH2 0xB12 JUMP JUMPDEST PUSH1 0x40 MLOAD DUP1 SWAP2 SUB SWAP1 REVERT JUMPDEST POP JUMP JUMPDEST CALLER PUSH20 0xFFFFFFFFFFFFFFFFFFFFFFFFFFFFFFFFFFFFFFFF AND PUSH32 0x7FCF532C15F0A6DB0BD6D0E038BEA71D30D808C7D98CB3BF7268A95BF5081B65 DUP3 PUSH1 0x40 MLOAD PUSH2 0x307 SWAP2 SWAP1 PUSH2 0xBBC JUMP JUMPDEST PUSH1 0x40 MLOAD DUP1 SWAP2 SUB SWAP1 LOG2 POP JUMP JUMPDEST PUSH1 0x0 PUSH1 0x60 PUSH1 0x40 MLOAD DUP1 PUSH1 0x40 ADD PUSH1 0x40 MSTORE DUP1 PUSH1 0x1C DUP2 MSTORE PUSH1 0x20 ADD PUSH32 0x19457468657265756D205369676E6564204D6573736167653A0A333200000000 DUP2 MSTORE POP SWAP1 POP PUSH1 0x0 DUP2 DUP8 PUSH1 0x40 MLOAD PUSH1 0x20 ADD PUSH2 0x363 SWAP3 SWAP2 SWAP1 PUSH2 0xA60 JUMP JUMPDEST PUSH1 0x40 MLOAD PUSH1 0x20 DUP2 DUP4 SUB SUB DUP2 MSTORE SWAP1 PUSH1 0x40 MSTORE DUP1 MLOAD SWAP1 PUSH1 0x20 ADD KECCAK256 SWAP1 POP PUSH1 0x1 DUP2 DUP8 DUP8 DUP8 PUSH1 0x40 MLOAD PUSH1 0x0 DUP2 MSTORE PUSH1 0x20 ADD PUSH1 0x40 MSTORE PUSH1 0x40 MLOAD PUSH2 0x39E SWAP5 SWAP4 SWAP3 SWAP2 SWAP1 PUSH2 0xAA3 JUMP JUMPDEST PUSH1 0x20 PUSH1 0x40 MLOAD PUSH1 0x20 DUP2 SUB SWAP1 DUP1 DUP5 SUB SWAP1 DUP6 GAS STATICCALL ISZERO DUP1 ISZERO PUSH2 0x3C0 JUMPI RETURNDATASIZE PUSH1 0x0 DUP1 RETURNDATACOPY RETURNDATASIZE PUSH1 0x0 REVERT JUMPDEST POP POP PUSH1 0x40 MLOAD PUSH32 0xFFFFFFFFFFFFFFFFFFFFFFFFFFFFFFFFFFFFFFFFFFFFFFFFFFFFFFFFFFFFFFE0 ADD MLOAD SWAP9 SWAP8 POP POP POP POP POP POP POP POP JUMP JUMPDEST PUSH1 0x40 DUP1 MLOAD DUP1 DUP3 ADD DUP3 MSTORE PUSH1 0x14 DUP2 MSTORE PUSH32 0x5245564552545F574954485F434F4E5354414E54000000000000000000000000 PUSH1 0x20 DUP3 ADD MSTORE SWAP1 MLOAD PUSH32 0x8C379A000000000000000000000000000000000000000000000000000000000 DUP2 MSTORE PUSH2 0x2B5 SWAP2 SWAP1 PUSH1 0x4 ADD PUSH2 0xAC1 JUMP JUMPDEST PUSH1 0x40 MLOAD PUSH32 0x8C379A000000000000000000000000000000000000000000000000000000000 DUP2 MSTORE PUSH1 0x4 ADD PUSH2 0x2B5 SWAP1 PUSH2 0xADB JUMP JUMPDEST PUSH2 0x493 PUSH2 0x56F JUMP JUMPDEST SWAP1 JUMP JUMPDEST PUSH1 0x40 DUP1 MLOAD DUP1 DUP3 ADD DUP3 MSTORE PUSH1 0x15 DUP2 MSTORE PUSH32 0x524551554952455F574954485F434F4E5354414E540000000000000000000000 PUSH1 0x20 DUP3 ADD MSTORE SWAP1 MLOAD PUSH32 0x8C379A000000000000000000000000000000000000000000000000000000000 DUP2 MSTORE PUSH2 0x2B5 SWAP2 SWAP1 PUSH1 0x4 ADD PUSH2 0xAC1 JUMP JUMPDEST POP SWAP3 SWAP4 SWAP3 POP POP POP JUMP JUMPDEST PUSH1 0x0 DUP1 SLOAD PUSH1 0x1 ADD SWAP1 DUP2 SWAP1 SSTORE SWAP1 JUMP JUMPDEST PUSH1 0x1 ADD SWAP1 JUMP JUMPDEST PUSH1 0x0 DUP1 SLOAD PUSH1 0x1 ADD SWAP1 SSTORE JUMP JUMPDEST PUSH1 0x1 SWAP1 JUMP JUMPDEST PUSH1 0x40 DUP1 MLOAD DUP1 DUP3 ADD SWAP1 SWAP2 MSTORE PUSH1 0x5 DUP2 MSTORE PUSH32 0x68656C6C6F000000000000000000000000000000000000000000000000000000 PUSH1 0x20 DUP3 ADD MSTORE PUSH1 0x1 SWAP2 JUMP JUMPDEST PUSH2 0x493 PUSH2 0x58F JUMP JUMPDEST PUSH2 0x4D2 SWAP1 JUMP JUMPDEST PUSH1 0x40 MLOAD DUP1 PUSH1 0xA0 ADD PUSH1 0x40 MSTORE DUP1 PUSH2 0x582 PUSH2 0x58F JUMP JUMPDEST DUP2 MSTORE PUSH1 0x20 ADD PUSH1 0x60 DUP2 MSTORE POP SWAP1 JUMP JUMPDEST PUSH1 0x40 MLOAD DUP1 PUSH1 0x80 ADD PUSH1 0x40 MSTORE DUP1 PUSH1 0x60 DUP2 MSTORE PUSH1 0x20 ADD PUSH1 0x0 PUSH4 0xFFFFFFFF AND DUP2 MSTORE PUSH1 0x20 ADD PUSH1 0x60 DUP2 MSTORE PUSH1 0x20 ADD PUSH1 0x60 DUP2 MSTORE POP SWAP1 JUMP JUMPDEST PUSH1 0x0 DUP3 PUSH1 0x1F DUP4 ADD SLT PUSH2 0x5CD JUMPI DUP1 DUP2 REVERT JUMPDEST DUP2 CALLDATALOAD PUSH8 0xFFFFFFFFFFFFFFFF DUP2 GT ISZERO PUSH2 0x5E3 JUMPI DUP2 DUP3 REVERT JUMPDEST PUSH1 0x20 PUSH2 0x5F2 DUP2 DUP3 DUP5 MUL ADD PUSH2 0xBDE JUMP JUMPDEST DUP3 DUP2 MSTORE SWAP3 POP DUP1 DUP4 ADD DUP5 DUP3 ADD PUSH1 0x0 JUMPDEST DUP5 DUP2 LT ISZERO PUSH2 0x629 JUMPI PUSH2 0x617 DUP9 DUP6 DUP5 CALLDATALOAD DUP11 ADD ADD PUSH2 0x634 JUMP JUMPDEST DUP4 MSTORE SWAP2 DUP4 ADD SWAP2 SWAP1 DUP4 ADD SWAP1 PUSH1 0x1 ADD PUSH2 0x600 JUMP JUMPDEST POP POP POP POP POP SWAP3 SWAP2 POP POP JUMP JUMPDEST PUSH1 0x0 DUP3 PUSH1 0x1F DUP4 ADD SLT PUSH2 0x644 JUMPI DUP1 DUP2 REVERT JUMPDEST DUP2 CALLDATALOAD PUSH8 0xFFFFFFFFFFFFFFFF DUP2 GT ISZERO PUSH2 0x65A JUMPI DUP2 DUP3 REVERT JUMPDEST PUSH2 0x68B PUSH1 0x20 PUSH32 0xFFFFFFFFFFFFFFFFFFFFFFFFFFFFFFFFFFFFFFFFFFFFFFFFFFFFFFFFFFFFFFE0 PUSH1 0x1F DUP5 ADD AND ADD PUSH2 0xBDE JUMP JUMPDEST SWAP2 POP DUP1 DUP3 MSTORE DUP4 PUSH1 0x20 DUP3 DUP6 ADD ADD GT ISZERO PUSH2 0x6A2 JUMPI PUSH1 0x0 DUP1 REVERT JUMPDEST DUP1 PUSH1 0x20 DUP5 ADD PUSH1 0x20 DUP5 ADD CALLDATACOPY PUSH1 0x0 SWAP1 DUP3 ADD PUSH1 0x20 ADD MSTORE SWAP3 SWAP2 POP POP JUMP JUMPDEST PUSH1 0x0 PUSH1 0x80 DUP3 DUP5 SUB SLT ISZERO PUSH2 0x6CC JUMPI DUP1 DUP2 REVERT JUMPDEST PUSH2 0x6D6 PUSH1 0x80 PUSH2 0xBDE JUMP JUMPDEST SWAP1 POP PUSH1 0x0 DUP3 CALLDATALOAD PUSH8 0xFFFFFFFFFFFFFFFF DUP1 DUP3 GT ISZERO PUSH2 0x6F1 JUMPI DUP3 DUP4 REVERT JUMPDEST PUSH2 0x6FD DUP7 DUP4 DUP8 ADD PUSH2 0x634 JUMP JUMPDEST DUP5 MSTORE PUSH1 0x20 DUP6 ADD CALLDATALOAD SWAP2 POP PUSH4 0xFFFFFFFF DUP3 AND DUP3 EQ PUSH2 0x717 JUMPI DUP3 DUP4 REVERT JUMPDEST DUP2 PUSH1 0x20 DUP6 ADD MSTORE PUSH1 0x40 DUP6 ADD CALLDATALOAD SWAP2 POP DUP1 DUP3 GT ISZERO PUSH2 0x730 JUMPI DUP3 DUP4 REVERT JUMPDEST PUSH2 0x73C DUP7 DUP4 DUP8 ADD PUSH2 0x5BD JUMP JUMPDEST PUSH1 0x40 DUP6 ADD MSTORE PUSH1 0x60 DUP6 ADD CALLDATALOAD SWAP2 POP DUP1 DUP3 GT ISZERO PUSH2 0x754 JUMPI DUP3 DUP4 REVERT JUMPDEST POP PUSH2 0x761 DUP6 DUP3 DUP7 ADD PUSH2 0x634 JUMP JUMPDEST PUSH1 0x60 DUP5 ADD MSTORE POP POP SWAP3 SWAP2 POP POP JUMP JUMPDEST PUSH1 0x0 DUP1 PUSH1 0x0 DUP1 PUSH1 0x0 PUSH1 0xA0 DUP7 DUP9 SUB SLT ISZERO PUSH2 0x786 JUMPI PUSH1 0x0 DUP1 REVERT JUMPDEST DUP6 CALLDATALOAD PUSH2 0x791 DUP2 PUSH2 0xC35 JUMP JUMPDEST SWAP5 POP PUSH1 0x20 DUP7 ADD CALLDATALOAD SWAP4 POP PUSH1 0x40 DUP7 ADD CALLDATALOAD SWAP3 POP PUSH1 0x60 DUP7 ADD CALLDATALOAD PUSH2 0x7AF DUP2 PUSH2 0xC35 JUMP JUMPDEST SWAP5 SWAP8 SWAP4 SWAP7 POP SWAP2 SWAP5 PUSH1 0x80 ADD CALLDATALOAD SWAP3 SWAP2 POP POP JUMP JUMPDEST PUSH1 0x0 PUSH1 0x20 DUP3 DUP5 SUB SLT ISZERO PUSH2 0x7D2 JUMPI PUSH1 0x0 DUP1 REVERT JUMPDEST DUP2 CALLDATALOAD PUSH8 0xFFFFFFFFFFFFFFFF DUP2 GT ISZERO PUSH2 0x7E9 JUMPI PUSH1 0x0 DUP1 REVERT JUMPDEST PUSH2 0x7F5 DUP5 DUP3 DUP6 ADD PUSH2 0x5BD JUMP JUMPDEST SWAP5 SWAP4 POP POP POP POP JUMP JUMPDEST PUSH1 0x0 DUP1 PUSH1 0x0 DUP1 PUSH1 0x80 DUP6 DUP8 SUB SLT ISZERO PUSH2 0x813 JUMPI PUSH1 0x0 DUP1 REVERT JUMPDEST DUP5 CALLDATALOAD SWAP4 POP PUSH1 0x20 DUP6 ADD CALLDATALOAD PUSH1 0xFF DUP2 AND DUP2 EQ PUSH2 0x82B JUMPI PUSH1 0x0 DUP1 REVERT JUMPDEST SWAP4 SWAP7 SWAP4 SWAP6 POP POP POP POP PUSH1 0x40 DUP3 ADD CALLDATALOAD SWAP2 PUSH1 0x60 ADD CALLDATALOAD SWAP1 JUMP JUMPDEST PUSH1 0x0 PUSH1 0x20 DUP3 DUP5 SUB SLT ISZERO PUSH2 0x852 JUMPI PUSH1 0x0 DUP1 REVERT JUMPDEST DUP2 CALLDATALOAD PUSH8 0xFFFFFFFFFFFFFFFF DUP2 GT ISZERO PUSH2 0x869 JUMPI PUSH1 0x0 DUP1 REVERT JUMPDEST PUSH2 0x7F5 DUP5 DUP3 DUP6 ADD PUSH2 0x634 JUMP JUMPDEST PUSH1 0x0 PUSH1 0x20 DUP3 DUP5 SUB SLT ISZERO PUSH2 0x886 JUMPI DUP1 DUP2 REVERT JUMPDEST DUP2 CALLDATALOAD PUSH8 0xFFFFFFFFFFFFFFFF DUP1 DUP3 GT ISZERO PUSH2 0x89D JUMPI DUP3 DUP4 REVERT JUMPDEST DUP2 DUP5 ADD PUSH1 0x40 DUP2 DUP8 SUB SLT ISZERO PUSH2 0x8AF JUMPI DUP4 DUP5 REVERT JUMPDEST PUSH2 0x8B9 PUSH1 0x40 PUSH2 0xBDE JUMP JUMPDEST SWAP3 POP DUP1 CALLDATALOAD DUP3 DUP2 GT ISZERO PUSH2 0x8C9 JUMPI DUP5 DUP6 REVERT JUMPDEST PUSH2 0x8D5 DUP8 DUP3 DUP5 ADD PUSH2 0x6BB JUMP JUMPDEST DUP5 MSTORE POP PUSH1 0x20 DUP2 ADD CALLDATALOAD DUP3 DUP2 GT ISZERO PUSH2 0x8E9 JUMPI DUP5 DUP6 REVERT JUMPDEST PUSH2 0x8F5 DUP8 DUP3 DUP5 ADD PUSH2 0x634 JUMP JUMPDEST PUSH1 0x20 DUP6 ADD MSTORE POP SWAP2 SWAP6 SWAP5 POP POP POP POP POP JUMP JUMPDEST PUSH1 0x0 PUSH1 0x20 DUP3 DUP5 SUB SLT ISZERO PUSH2 0x917 JUMPI PUSH1 0x0 DUP1 REVERT JUMPDEST DUP2 CALLDATALOAD PUSH8 0xFFFFFFFFFFFFFFFF DUP2 GT ISZERO PUSH2 0x92E JUMPI PUSH1 0x0 DUP1 REVERT JUMPDEST PUSH2 0x7F5 DUP5 DUP3 DUP6 ADD PUSH2 0x6BB JUMP JUMPDEST PUSH1 0x0 PUSH1 0x20 DUP3 DUP5 SUB SLT ISZERO PUSH2 0x94C JUMPI PUSH1 0x0 DUP1 REVERT JUMPDEST POP CALLDATALOAD SWAP2 SWAP1 POP JUMP JUMPDEST PUSH1 0x0 DUP2 MLOAD DUP1 DUP5 MSTORE PUSH2 0x96B DUP2 PUSH1 0x20 DUP7 ADD PUSH1 0x20 DUP7 ADD PUSH2 0xC05 JUMP JUMPDEST PUSH1 0x1F ADD PUSH32 0xFFFFFFFFFFFFFFFFFFFFFFFFFFFFFFFFFFFFFFFFFFFFFFFFFFFFFFFFFFFFFFE0 AND SWAP3 SWAP1 SWAP3 ADD PUSH1 0x20 ADD SWAP3 SWAP2 POP POP JUMP JUMPDEST PUSH1 0x0 DUP2 MLOAD PUSH1 0x80 DUP5 MSTORE PUSH2 0x9B2 PUSH1 0x80 DUP6 ADD DUP3 PUSH2 0x953 JUMP JUMPDEST PUSH1 0x20 SWAP2 POP PUSH4 0xFFFFFFFF DUP3 DUP6 ADD MLOAD AND DUP3 DUP7 ADD MSTORE PUSH1 0x40 DUP5 ADD MLOAD DUP6 DUP3 SUB PUSH1 0x40 DUP8 ADD MSTORE DUP2 DUP2 MLOAD DUP1 DUP5 MSTORE DUP5 DUP5 ADD SWAP2 POP DUP5 DUP6 DUP3 MUL DUP6 ADD ADD DUP6 DUP5 ADD PUSH1 0x0 SWAP5 POP JUMPDEST DUP3 DUP6 LT ISZERO PUSH2 0xA39 JUMPI PUSH32 0xFFFFFFFFFFFFFFFFFFFFFFFFFFFFFFFFFFFFFFFFFFFFFFFFFFFFFFFFFFFFFFE0 DUP7 DUP4 SUB ADD DUP5 MSTORE PUSH2 0xA25 DUP3 DUP3 MLOAD PUSH2 0x953 JUMP JUMPDEST PUSH1 0x1 SWAP6 SWAP1 SWAP6 ADD SWAP5 SWAP4 DUP8 ADD SWAP4 SWAP2 POP DUP7 ADD PUSH2 0x9EB JUMP JUMPDEST POP PUSH1 0x60 DUP9 ADD MLOAD SWAP6 POP DUP9 DUP2 SUB PUSH1 0x60 DUP11 ADD MSTORE PUSH2 0xA53 DUP2 DUP8 PUSH2 0x953 JUMP JUMPDEST SWAP10 SWAP9 POP POP POP POP POP POP POP POP POP JUMP JUMPDEST PUSH1 0x0 DUP4 MLOAD PUSH2 0xA72 DUP2 DUP5 PUSH1 0x20 DUP9 ADD PUSH2 0xC05 JUMP JUMPDEST SWAP2 SWAP1 SWAP2 ADD SWAP2 DUP3 MSTORE POP PUSH1 0x20 ADD SWAP2 SWAP1 POP JUMP JUMPDEST PUSH20 0xFFFFFFFFFFFFFFFFFFFFFFFFFFFFFFFFFFFFFFFF SWAP2 SWAP1 SWAP2 AND DUP2 MSTORE PUSH1 0x20 ADD SWAP1 JUMP JUMPDEST SWAP4 DUP5 MSTORE PUSH1 0xFF SWAP3 SWAP1 SWAP3 AND PUSH1 0x20 DUP5 ADD MSTORE PUSH1 0x40 DUP4 ADD MSTORE PUSH1 0x60 DUP3 ADD MSTORE PUSH1 0x80 ADD SWAP1 JUMP JUMPDEST PUSH1 0x0 PUSH1 0x20 DUP3 MSTORE PUSH2 0xAD4 PUSH1 0x20 DUP4 ADD DUP5 PUSH2 0x953 JUMP JUMPDEST SWAP4 SWAP3 POP POP POP JUMP JUMPDEST PUSH1 0x20 DUP1 DUP3 MSTORE PUSH1 0xD SWAP1 DUP3 ADD MSTORE PUSH32 0x53494D504C455F52455645525400000000000000000000000000000000000000 PUSH1 0x40 DUP3 ADD MSTORE PUSH1 0x60 ADD SWAP1 JUMP JUMPDEST PUSH1 0x20 DUP1 DUP3 MSTORE PUSH1 0xE SWAP1 DUP3 ADD MSTORE PUSH32 0x53494D504C455F52455155495245000000000000000000000000000000000000 PUSH1 0x40 DUP3 ADD MSTORE PUSH1 0x60 ADD SWAP1 JUMP JUMPDEST PUSH1 0x0 PUSH1 0x20 DUP3 MSTORE DUP3 MLOAD PUSH1 0x40 PUSH1 0x20 DUP5 ADD MSTORE PUSH2 0xB65 PUSH1 0x60 DUP5 ADD DUP3 PUSH2 0x99D JUMP JUMPDEST PUSH1 0x20 DUP6 ADD MLOAD SWAP2 POP PUSH32 0xFFFFFFFFFFFFFFFFFFFFFFFFFFFFFFFFFFFFFFFFFFFFFFFFFFFFFFFFFFFFFFE0 DUP5 DUP3 SUB ADD PUSH1 0x40 DUP6 ADD MSTORE PUSH2 0xBA0 DUP2 DUP4 PUSH2 0x953 JUMP JUMPDEST SWAP6 SWAP5 POP POP POP POP POP JUMP JUMPDEST PUSH1 0x0 PUSH1 0x20 DUP3 MSTORE PUSH2 0xAD4 PUSH1 0x20 DUP4 ADD DUP5 PUSH2 0x99D JUMP JUMPDEST SWAP1 DUP2 MSTORE PUSH1 0x20 ADD SWAP1 JUMP JUMPDEST PUSH1 0x0 DUP4 DUP3 MSTORE PUSH1 0x40 PUSH1 0x20 DUP4 ADD MSTORE PUSH2 0x7F5 PUSH1 0x40 DUP4 ADD DUP5 PUSH2 0x953 JUMP JUMPDEST PUSH1 0x40 MLOAD DUP2 DUP2 ADD PUSH8 0xFFFFFFFFFFFFFFFF DUP2 GT DUP3 DUP3 LT OR ISZERO PUSH2 0xBFD JUMPI PUSH1 0x0 DUP1 REVERT JUMPDEST PUSH1 0x40 MSTORE SWAP2 SWAP1 POP JUMP JUMPDEST PUSH1 0x0 JUMPDEST DUP4 DUP2 LT ISZERO PUSH2 0xC20 JUMPI DUP2 DUP2 ADD MLOAD DUP4 DUP3 ADD MSTORE PUSH1 0x20 ADD PUSH2 0xC08 JUMP JUMPDEST DUP4 DUP2 GT ISZERO PUSH2 0xC2F JUMPI PUSH1 0x0 DUP5 DUP5 ADD MSTORE JUMPDEST POP POP POP POP JUMP JUMPDEST PUSH20 0xFFFFFFFFFFFFFFFFFFFFFFFFFFFFFFFFFFFFFFFF DUP2 AND DUP2 EQ PUSH2 0x2BE JUMPI PUSH1 0x0 DUP1 REVERT INVALID LOG3 PUSH6 0x627A7A723058 KECCAK256 0xf6 0xb4 0xb4 0xd0 0xe9 SWAP7 0xbd JUMPDEST GT NUMBER 0x1e PUSH31 0x79FE7CAA63D4CC0F7725A6A5178F890B638864796C6578706572696D656E74 PUSH2 0x6CF5 PUSH5 0x736F6C6343 STOP SDIV EXP STOP BLOCKHASH "
			}
		}
	},
	"sourceTreeHashHex": "0xaee9d7c26ac7837de0e2faf6b8396055489e34ea2c2bb9fe1c443ffcd7ba242b",
	"compiler": {
		"name": "solc",
		"version": "soljson-v0.5.10+commit.5a6ea5b1.js",
		"settings": {
			"optimizer": {
				"enabled": true,
				"runs": 1000000,
				"details": {
					"yul": true,
					"deduplicate": true,
					"cse": true,
					"constantOptimizer": true
				}
			},
			"outputSelection": {
				"*": {
					"*": [
						"abi",
						"evm.bytecode.object",
						"evm.bytecode.sourceMap",
						"evm.deployedBytecode.object",
						"evm.deployedBytecode.sourceMap",
						"devdoc"
					]
				}
			},
			"evmVersion": "constantinople",
			"remappings": []
		}
	}
}