{
	"schemaVersion": "2.0.0",
	"contractName": "AbiGenDummy",
	"compilerOutput": {
		"abi": [
			{
				"constant": true,
				"inputs": [],
				"name": "simpleRequire",
				"outputs": [],
				"payable": false,
				"stateMutability": "pure",
				"type": "function"
			},
			{
				"constant": true,
				"inputs": [
					{
						"name": "a",
						"type": "bytes[]"
					}
				],
				"name": "acceptsAnArrayOfBytes",
				"outputs": [],
				"payable": false,
				"stateMutability": "pure",
				"type": "function"
			},
			{
				"constant": true,
				"inputs": [
					{
						"name": "hash",
						"type": "bytes32"
					},
					{
						"name": "v",
						"type": "uint8"
					},
					{
						"name": "r",
						"type": "bytes32"
					},
					{
						"name": "s",
						"type": "bytes32"
					}
				],
				"name": "ecrecoverFn",
				"outputs": [
					{
						"name": "signerAddress",
						"type": "address"
					}
				],
				"payable": false,
				"stateMutability": "pure",
				"type": "function"
			},
			{
				"constant": true,
				"inputs": [
					{
						"name": "a",
						"type": "bytes"
					}
				],
				"name": "acceptsBytes",
				"outputs": [],
				"payable": false,
				"stateMutability": "pure",
				"type": "function"
			},
			{
				"constant": true,
				"inputs": [],
				"name": "revertWithConstant",
				"outputs": [],
				"payable": false,
				"stateMutability": "pure",
				"type": "function"
			},
			{
				"constant": true,
				"inputs": [],
				"name": "simpleRevert",
				"outputs": [],
				"payable": false,
				"stateMutability": "pure",
				"type": "function"
			},
			{
				"constant": true,
				"inputs": [],
				"name": "nestedStructOutput",
				"outputs": [
					{
						"components": [
							{
								"components": [
									{
										"name": "someBytes",
										"type": "bytes"
									},
									{
										"name": "anInteger",
										"type": "uint32"
									},
									{
										"name": "aDynamicArrayOfBytes",
										"type": "bytes[]"
									},
									{
										"name": "aString",
										"type": "string"
									}
								],
								"name": "innerStruct",
								"type": "tuple"
							},
							{
								"name": "description",
								"type": "string"
							}
						],
						"name": "",
						"type": "tuple"
					}
				],
				"payable": false,
				"stateMutability": "pure",
				"type": "function"
			},
			{
				"constant": true,
				"inputs": [],
				"name": "requireWithConstant",
				"outputs": [],
				"payable": false,
				"stateMutability": "pure",
				"type": "function"
			},
			{
				"constant": true,
				"inputs": [
					{
						"name": "x",
						"type": "address"
					},
					{
						"name": "a",
						"type": "uint256"
					},
					{
						"name": "b",
						"type": "uint256"
					},
					{
						"name": "y",
						"type": "address"
					},
					{
						"name": "c",
						"type": "uint256"
					}
				],
				"name": "withAddressInput",
				"outputs": [
					{
						"name": "z",
						"type": "address"
					}
				],
				"payable": false,
				"stateMutability": "pure",
				"type": "function"
			},
			{
				"constant": true,
				"inputs": [
					{
						"components": [
							{
								"name": "someBytes",
								"type": "bytes"
							},
							{
								"name": "anInteger",
								"type": "uint32"
							},
							{
								"name": "aDynamicArrayOfBytes",
								"type": "bytes[]"
							},
							{
								"name": "aString",
								"type": "string"
							}
						],
						"name": "s",
						"type": "tuple"
					}
				],
				"name": "structInput",
				"outputs": [],
				"payable": false,
				"stateMutability": "pure",
				"type": "function"
			},
			{
				"constant": true,
				"inputs": [
					{
						"name": "x",
						"type": "uint256"
					}
				],
				"name": "simplePureFunctionWithInput",
				"outputs": [
					{
						"name": "sum",
						"type": "uint256"
					}
				],
				"payable": false,
				"stateMutability": "pure",
				"type": "function"
			},
			{
				"constant": true,
				"inputs": [],
				"name": "simplePureFunction",
				"outputs": [
					{
						"name": "result",
						"type": "uint256"
					}
				],
				"payable": false,
				"stateMutability": "pure",
				"type": "function"
			},
			{
				"constant": true,
				"inputs": [
					{
						"components": [
							{
								"components": [
									{
										"name": "someBytes",
										"type": "bytes"
									},
									{
										"name": "anInteger",
										"type": "uint32"
									},
									{
										"name": "aDynamicArrayOfBytes",
										"type": "bytes[]"
									},
									{
										"name": "aString",
										"type": "string"
									}
								],
								"name": "innerStruct",
								"type": "tuple"
							},
							{
								"name": "description",
								"type": "string"
							}
						],
						"name": "n",
						"type": "tuple"
					}
				],
				"name": "nestedStructInput",
				"outputs": [],
				"payable": false,
				"stateMutability": "pure",
				"type": "function"
			},
			{
				"constant": true,
				"inputs": [],
				"name": "structOutput",
				"outputs": [
					{
						"components": [
							{
								"name": "someBytes",
								"type": "bytes"
							},
							{
								"name": "anInteger",
								"type": "uint32"
							},
							{
								"name": "aDynamicArrayOfBytes",
								"type": "bytes[]"
							},
							{
								"name": "aString",
								"type": "string"
							}
						],
						"name": "s",
						"type": "tuple"
					}
				],
				"payable": false,
				"stateMutability": "pure",
				"type": "function"
			},
			{
				"constant": true,
				"inputs": [],
				"name": "pureFunctionWithConstant",
				"outputs": [
					{
						"name": "someConstant",
						"type": "uint256"
					}
				],
				"payable": false,
				"stateMutability": "pure",
				"type": "function"
			},
			{
				"anonymous": false,
				"inputs": [
					{
						"indexed": false,
						"name": "param",
						"type": "uint8"
					}
				],
				"name": "AnEvent",
				"type": "event"
			}
		],
		"evm": {
			"bytecode": {
				"linkReferences": {},
				"object": "0x608060405234801561001057600080fd5b50610b49806100206000396000f3fe608060405234801561001057600080fd5b50600436106100f45760003560e01c80635ba3c7c011610097578063a3c2f6b611610066578063a3c2f6b6146101bb578063ae2dae17146101c3578063d6d7618c146101d1578063d88be12f146101e6576100f4565b80635ba3c7c01461017257806363d69c881461017a578063647341eb1461018d5780638ee52b4e1461019b576100f4565b80633e9ef66a116100d35780633e9ef66a1461013f5780634582eab21461014d57806345fdbdb71461015557806359c28add1461015d576100f4565b806209e437146100f95780630527c28f1461010357806336b3239614610116575b600080fd5b6101016101ee565b005b610101610111366004610688565b610229565b6101296101243660046106c5565b61022c565b604051610136919061094a565b60405180910390f35b610101610111366004610708565b61010161030e565b610101610373565b6101656103a5565b6040516101369190610a11565b6101016103b0565b610129610188366004610636565b610415565b6101016101113660046107cd565b6101ae6101a9366004610802565b61041e565b6040516101369190610a84565b6101ae610424565b61010161011136600461073d565b6101d9610429565b6040516101369190610a71565b6101ae610431565b6040517f08c379a0000000000000000000000000000000000000000000000000000000008152600401610220906109da565b60405180910390fd5b50565b600060606040518060400160405280601c81526020017f19457468657265756d205369676e6564204d6573736167653a0a33320000000081525090506000818760405160200161027d929190610928565b604051602081830303815290604052805190602001209050600181878787604051600081526020016040526040516102b8949392919061096b565b6020604051602081039080840390855afa1580156102da573d6000803e3d6000fd5b50506040517fffffffffffffffffffffffffffffffffffffffffffffffffffffffffffffffe0015198975050505050505050565b604080518082018252601481527f5245564552545f574954485f434f4e5354414e54000000000000000000000000602082015290517f08c379a00000000000000000000000000000000000000000000000000000000081526102209190600401610989565b6040517f08c379a0000000000000000000000000000000000000000000000000000000008152600401610220906109a3565b6103ad610437565b90565b604080518082018252601581527f524551554952455f574954485f434f4e5354414e540000000000000000000000602082015290517f08c379a00000000000000000000000000000000000000000000000000000000081526102209190600401610989565b50929392505050565b60010190565b600190565b6103ad610457565b6104d290565b6040518060a0016040528061044a610457565b8152602001606081525090565b604051806080016040528060608152602001600063ffffffff16815260200160608152602001606081525090565b600082601f830112610495578081fd5b813567ffffffffffffffff8111156104ab578182fd5b60206104ba8182840201610a8d565b828152925080830184820160005b848110156104f1576104df888584358a01016104fc565b835291830191908301906001016104c8565b505050505092915050565b600082601f83011261050c578081fd5b813567ffffffffffffffff811115610522578182fd5b61055360207fffffffffffffffffffffffffffffffffffffffffffffffffffffffffffffffe0601f84011601610a8d565b915080825283602082850101111561056a57600080fd5b8060208401602084013760009082016020015292915050565b600060808284031215610594578081fd5b61059e6080610a8d565b90506000823567ffffffffffffffff808211156105b9578283fd5b6105c5868387016104fc565b84526020850135915063ffffffff821682146105df578283fd5b81602085015260408501359150808211156105f8578283fd5b61060486838701610485565b6040850152606085013591508082111561061c578283fd5b50610629858286016104fc565b6060840152505092915050565b600080600080600060a0868803121561064e57600080fd5b853561065981610ae4565b94506020860135935060408601359250606086013561067781610ae4565b949793965091946080013592915050565b60006020828403121561069a57600080fd5b813567ffffffffffffffff8111156106b157600080fd5b6106bd84828501610485565b949350505050565b600080600080608085870312156106db57600080fd5b84359350602085013560ff811681146106f357600080fd5b93969395505050506040820135916060013590565b60006020828403121561071a57600080fd5b813567ffffffffffffffff81111561073157600080fd5b6106bd848285016104fc565b60006020828403121561074e578081fd5b813567ffffffffffffffff80821115610765578283fd5b81840160408187031215610777578384fd5b6107816040610a8d565b9250803582811115610791578485fd5b61079d87828401610583565b8452506020810135828111156107b1578485fd5b6107bd878284016104fc565b6020850152509195945050505050565b6000602082840312156107df57600080fd5b813567ffffffffffffffff8111156107f657600080fd5b6106bd84828501610583565b60006020828403121561081457600080fd5b5035919050565b60008151808452610833816020860160208601610ab4565b601f017fffffffffffffffffffffffffffffffffffffffffffffffffffffffffffffffe0169290920160200192915050565b600081516080845261087a608085018261081b565b6020915063ffffffff82850151168286015260408401518582036040870152818151808452848401915084858202850101858401600094505b82851015610901577fffffffffffffffffffffffffffffffffffffffffffffffffffffffffffffffe08683030184526108ed82825161081b565b6001959095019493870193915086016108b3565b506060880151955088810360608a015261091b818761081b565b9998505050505050505050565b6000835161093a818460208801610ab4565b9190910191825250602001919050565b73ffffffffffffffffffffffffffffffffffffffff91909116815260200190565b93845260ff9290921660208401526040830152606082015260800190565b60006020825261099c602083018461081b565b9392505050565b6020808252600d908201527f53494d504c455f52455645525400000000000000000000000000000000000000604082015260600190565b6020808252600e908201527f53494d504c455f52455155495245000000000000000000000000000000000000604082015260600190565b600060208252825160406020840152610a2d6060840182610865565b602085015191507fffffffffffffffffffffffffffffffffffffffffffffffffffffffffffffffe0848203016040850152610a68818361081b565b95945050505050565b60006020825261099c6020830184610865565b90815260200190565b60405181810167ffffffffffffffff81118282101715610aac57600080fd5b604052919050565b60005b83811015610acf578181015183820152602001610ab7565b83811115610ade576000848401525b50505050565b73ffffffffffffffffffffffffffffffffffffffff8116811461022957600080fdfea365627a7a72305820eb02adb0740466aecee31dd11d85b1261a21e38e450204cf0436344674d391a26c6578706572696d656e74616cf564736f6c634300050a0040",
				"opcodes": "PUSH1 0x80 PUSH1 0x40 MSTORE CALLVALUE DUP1 ISZERO PUSH2 0x10 JUMPI PUSH1 0x0 DUP1 REVERT JUMPDEST POP PUSH2 0xB49 DUP1 PUSH2 0x20 PUSH1 0x0 CODECOPY PUSH1 0x0 RETURN INVALID PUSH1 0x80 PUSH1 0x40 MSTORE CALLVALUE DUP1 ISZERO PUSH2 0x10 JUMPI PUSH1 0x0 DUP1 REVERT JUMPDEST POP PUSH1 0x4 CALLDATASIZE LT PUSH2 0xF4 JUMPI PUSH1 0x0 CALLDATALOAD PUSH1 0xE0 SHR DUP1 PUSH4 0x5BA3C7C0 GT PUSH2 0x97 JUMPI DUP1 PUSH4 0xA3C2F6B6 GT PUSH2 0x66 JUMPI DUP1 PUSH4 0xA3C2F6B6 EQ PUSH2 0x1BB JUMPI DUP1 PUSH4 0xAE2DAE17 EQ PUSH2 0x1C3 JUMPI DUP1 PUSH4 0xD6D7618C EQ PUSH2 0x1D1 JUMPI DUP1 PUSH4 0xD88BE12F EQ PUSH2 0x1E6 JUMPI PUSH2 0xF4 JUMP JUMPDEST DUP1 PUSH4 0x5BA3C7C0 EQ PUSH2 0x172 JUMPI DUP1 PUSH4 0x63D69C88 EQ PUSH2 0x17A JUMPI DUP1 PUSH4 0x647341EB EQ PUSH2 0x18D JUMPI DUP1 PUSH4 0x8EE52B4E EQ PUSH2 0x19B JUMPI PUSH2 0xF4 JUMP JUMPDEST DUP1 PUSH4 0x3E9EF66A GT PUSH2 0xD3 JUMPI DUP1 PUSH4 0x3E9EF66A EQ PUSH2 0x13F JUMPI DUP1 PUSH4 0x4582EAB2 EQ PUSH2 0x14D JUMPI DUP1 PUSH4 0x45FDBDB7 EQ PUSH2 0x155 JUMPI DUP1 PUSH4 0x59C28ADD EQ PUSH2 0x15D JUMPI PUSH2 0xF4 JUMP JUMPDEST DUP1 PUSH3 0x9E437 EQ PUSH2 0xF9 JUMPI DUP1 PUSH4 0x527C28F EQ PUSH2 0x103 JUMPI DUP1 PUSH4 0x36B32396 EQ PUSH2 0x116 JUMPI JUMPDEST PUSH1 0x0 DUP1 REVERT JUMPDEST PUSH2 0x101 PUSH2 0x1EE JUMP JUMPDEST STOP JUMPDEST PUSH2 0x101 PUSH2 0x111 CALLDATASIZE PUSH1 0x4 PUSH2 0x688 JUMP JUMPDEST PUSH2 0x229 JUMP JUMPDEST PUSH2 0x129 PUSH2 0x124 CALLDATASIZE PUSH1 0x4 PUSH2 0x6C5 JUMP JUMPDEST PUSH2 0x22C JUMP JUMPDEST PUSH1 0x40 MLOAD PUSH2 0x136 SWAP2 SWAP1 PUSH2 0x94A JUMP JUMPDEST PUSH1 0x40 MLOAD DUP1 SWAP2 SUB SWAP1 RETURN JUMPDEST PUSH2 0x101 PUSH2 0x111 CALLDATASIZE PUSH1 0x4 PUSH2 0x708 JUMP JUMPDEST PUSH2 0x101 PUSH2 0x30E JUMP JUMPDEST PUSH2 0x101 PUSH2 0x373 JUMP JUMPDEST PUSH2 0x165 PUSH2 0x3A5 JUMP JUMPDEST PUSH1 0x40 MLOAD PUSH2 0x136 SWAP2 SWAP1 PUSH2 0xA11 JUMP JUMPDEST PUSH2 0x101 PUSH2 0x3B0 JUMP JUMPDEST PUSH2 0x129 PUSH2 0x188 CALLDATASIZE PUSH1 0x4 PUSH2 0x636 JUMP JUMPDEST PUSH2 0x415 JUMP JUMPDEST PUSH2 0x101 PUSH2 0x111 CALLDATASIZE PUSH1 0x4 PUSH2 0x7CD JUMP JUMPDEST PUSH2 0x1AE PUSH2 0x1A9 CALLDATASIZE PUSH1 0x4 PUSH2 0x802 JUMP JUMPDEST PUSH2 0x41E JUMP JUMPDEST PUSH1 0x40 MLOAD PUSH2 0x136 SWAP2 SWAP1 PUSH2 0xA84 JUMP JUMPDEST PUSH2 0x1AE PUSH2 0x424 JUMP JUMPDEST PUSH2 0x101 PUSH2 0x111 CALLDATASIZE PUSH1 0x4 PUSH2 0x73D JUMP JUMPDEST PUSH2 0x1D9 PUSH2 0x429 JUMP JUMPDEST PUSH1 0x40 MLOAD PUSH2 0x136 SWAP2 SWAP1 PUSH2 0xA71 JUMP JUMPDEST PUSH2 0x1AE PUSH2 0x431 JUMP JUMPDEST PUSH1 0x40 MLOAD PUSH32 0x8C379A000000000000000000000000000000000000000000000000000000000 DUP2 MSTORE PUSH1 0x4 ADD PUSH2 0x220 SWAP1 PUSH2 0x9DA JUMP JUMPDEST PUSH1 0x40 MLOAD DUP1 SWAP2 SUB SWAP1 REVERT JUMPDEST POP JUMP JUMPDEST PUSH1 0x0 PUSH1 0x60 PUSH1 0x40 MLOAD DUP1 PUSH1 0x40 ADD PUSH1 0x40 MSTORE DUP1 PUSH1 0x1C DUP2 MSTORE PUSH1 0x20 ADD PUSH32 0x19457468657265756D205369676E6564204D6573736167653A0A333200000000 DUP2 MSTORE POP SWAP1 POP PUSH1 0x0 DUP2 DUP8 PUSH1 0x40 MLOAD PUSH1 0x20 ADD PUSH2 0x27D SWAP3 SWAP2 SWAP1 PUSH2 0x928 JUMP JUMPDEST PUSH1 0x40 MLOAD PUSH1 0x20 DUP2 DUP4 SUB SUB DUP2 MSTORE SWAP1 PUSH1 0x40 MSTORE DUP1 MLOAD SWAP1 PUSH1 0x20 ADD KECCAK256 SWAP1 POP PUSH1 0x1 DUP2 DUP8 DUP8 DUP8 PUSH1 0x40 MLOAD PUSH1 0x0 DUP2 MSTORE PUSH1 0x20 ADD PUSH1 0x40 MSTORE PUSH1 0x40 MLOAD PUSH2 0x2B8 SWAP5 SWAP4 SWAP3 SWAP2 SWAP1 PUSH2 0x96B JUMP JUMPDEST PUSH1 0x20 PUSH1 0x40 MLOAD PUSH1 0x20 DUP2 SUB SWAP1 DUP1 DUP5 SUB SWAP1 DUP6 GAS STATICCALL ISZERO DUP1 ISZERO PUSH2 0x2DA JUMPI RETURNDATASIZE PUSH1 0x0 DUP1 RETURNDATACOPY RETURNDATASIZE PUSH1 0x0 REVERT JUMPDEST POP POP PUSH1 0x40 MLOAD PUSH32 0xFFFFFFFFFFFFFFFFFFFFFFFFFFFFFFFFFFFFFFFFFFFFFFFFFFFFFFFFFFFFFFE0 ADD MLOAD SWAP9 SWAP8 POP POP POP POP POP POP POP POP JUMP JUMPDEST PUSH1 0x40 DUP1 MLOAD DUP1 DUP3 ADD DUP3 MSTORE PUSH1 0x14 DUP2 MSTORE PUSH32 0x5245564552545F574954485F434F4E5354414E54000000000000000000000000 PUSH1 0x20 DUP3 ADD MSTORE SWAP1 MLOAD PUSH32 0x8C379A000000000000000000000000000000000000000000000000000000000 DUP2 MSTORE PUSH2 0x220 SWAP2 SWAP1 PUSH1 0x4 ADD PUSH2 0x989 JUMP JUMPDEST PUSH1 0x40 MLOAD PUSH32 0x8C379A000000000000000000000000000000000000000000000000000000000 DUP2 MSTORE PUSH1 0x4 ADD PUSH2 0x220 SWAP1 PUSH2 0x9A3 JUMP JUMPDEST PUSH2 0x3AD PUSH2 0x437 JUMP JUMPDEST SWAP1 JUMP JUMPDEST PUSH1 0x40 DUP1 MLOAD DUP1 DUP3 ADD DUP3 MSTORE PUSH1 0x15 DUP2 MSTORE PUSH32 0x524551554952455F574954485F434F4E5354414E540000000000000000000000 PUSH1 0x20 DUP3 ADD MSTORE SWAP1 MLOAD PUSH32 0x8C379A000000000000000000000000000000000000000000000000000000000 DUP2 MSTORE PUSH2 0x220 SWAP2 SWAP1 PUSH1 0x4 ADD PUSH2 0x989 JUMP JUMPDEST POP SWAP3 SWAP4 SWAP3 POP POP POP JUMP JUMPDEST PUSH1 0x1 ADD SWAP1 JUMP JUMPDEST PUSH1 0x1 SWAP1 JUMP JUMPDEST PUSH2 0x3AD PUSH2 0x457 JUMP JUMPDEST PUSH2 0x4D2 SWAP1 JUMP JUMPDEST PUSH1 0x40 MLOAD DUP1 PUSH1 0xA0 ADD PUSH1 0x40 MSTORE DUP1 PUSH2 0x44A PUSH2 0x457 JUMP JUMPDEST DUP2 MSTORE PUSH1 0x20 ADD PUSH1 0x60 DUP2 MSTORE POP SWAP1 JUMP JUMPDEST PUSH1 0x40 MLOAD DUP1 PUSH1 0x80 ADD PUSH1 0x40 MSTORE DUP1 PUSH1 0x60 DUP2 MSTORE PUSH1 0x20 ADD PUSH1 0x0 PUSH4 0xFFFFFFFF AND DUP2 MSTORE PUSH1 0x20 ADD PUSH1 0x60 DUP2 MSTORE PUSH1 0x20 ADD PUSH1 0x60 DUP2 MSTORE POP SWAP1 JUMP JUMPDEST PUSH1 0x0 DUP3 PUSH1 0x1F DUP4 ADD SLT PUSH2 0x495 JUMPI DUP1 DUP2 REVERT JUMPDEST DUP2 CALLDATALOAD PUSH8 0xFFFFFFFFFFFFFFFF DUP2 GT ISZERO PUSH2 0x4AB JUMPI DUP2 DUP3 REVERT JUMPDEST PUSH1 0x20 PUSH2 0x4BA DUP2 DUP3 DUP5 MUL ADD PUSH2 0xA8D JUMP JUMPDEST DUP3 DUP2 MSTORE SWAP3 POP DUP1 DUP4 ADD DUP5 DUP3 ADD PUSH1 0x0 JUMPDEST DUP5 DUP2 LT ISZERO PUSH2 0x4F1 JUMPI PUSH2 0x4DF DUP9 DUP6 DUP5 CALLDATALOAD DUP11 ADD ADD PUSH2 0x4FC JUMP JUMPDEST DUP4 MSTORE SWAP2 DUP4 ADD SWAP2 SWAP1 DUP4 ADD SWAP1 PUSH1 0x1 ADD PUSH2 0x4C8 JUMP JUMPDEST POP POP POP POP POP SWAP3 SWAP2 POP POP JUMP JUMPDEST PUSH1 0x0 DUP3 PUSH1 0x1F DUP4 ADD SLT PUSH2 0x50C JUMPI DUP1 DUP2 REVERT JUMPDEST DUP2 CALLDATALOAD PUSH8 0xFFFFFFFFFFFFFFFF DUP2 GT ISZERO PUSH2 0x522 JUMPI DUP2 DUP3 REVERT JUMPDEST PUSH2 0x553 PUSH1 0x20 PUSH32 0xFFFFFFFFFFFFFFFFFFFFFFFFFFFFFFFFFFFFFFFFFFFFFFFFFFFFFFFFFFFFFFE0 PUSH1 0x1F DUP5 ADD AND ADD PUSH2 0xA8D JUMP JUMPDEST SWAP2 POP DUP1 DUP3 MSTORE DUP4 PUSH1 0x20 DUP3 DUP6 ADD ADD GT ISZERO PUSH2 0x56A JUMPI PUSH1 0x0 DUP1 REVERT JUMPDEST DUP1 PUSH1 0x20 DUP5 ADD PUSH1 0x20 DUP5 ADD CALLDATACOPY PUSH1 0x0 SWAP1 DUP3 ADD PUSH1 0x20 ADD MSTORE SWAP3 SWAP2 POP POP JUMP JUMPDEST PUSH1 0x0 PUSH1 0x80 DUP3 DUP5 SUB SLT ISZERO PUSH2 0x594 JUMPI DUP1 DUP2 REVERT JUMPDEST PUSH2 0x59E PUSH1 0x80 PUSH2 0xA8D JUMP JUMPDEST SWAP1 POP PUSH1 0x0 DUP3 CALLDATALOAD PUSH8 0xFFFFFFFFFFFFFFFF DUP1 DUP3 GT ISZERO PUSH2 0x5B9 JUMPI DUP3 DUP4 REVERT JUMPDEST PUSH2 0x5C5 DUP7 DUP4 DUP8 ADD PUSH2 0x4FC JUMP JUMPDEST DUP5 MSTORE PUSH1 0x20 DUP6 ADD CALLDATALOAD SWAP2 POP PUSH4 0xFFFFFFFF DUP3 AND DUP3 EQ PUSH2 0x5DF JUMPI DUP3 DUP4 REVERT JUMPDEST DUP2 PUSH1 0x20 DUP6 ADD MSTORE PUSH1 0x40 DUP6 ADD CALLDATALOAD SWAP2 POP DUP1 DUP3 GT ISZERO PUSH2 0x5F8 JUMPI DUP3 DUP4 REVERT JUMPDEST PUSH2 0x604 DUP7 DUP4 DUP8 ADD PUSH2 0x485 JUMP JUMPDEST PUSH1 0x40 DUP6 ADD MSTORE PUSH1 0x60 DUP6 ADD CALLDATALOAD SWAP2 POP DUP1 DUP3 GT ISZERO PUSH2 0x61C JUMPI DUP3 DUP4 REVERT JUMPDEST POP PUSH2 0x629 DUP6 DUP3 DUP7 ADD PUSH2 0x4FC JUMP JUMPDEST PUSH1 0x60 DUP5 ADD MSTORE POP POP SWAP3 SWAP2 POP POP JUMP JUMPDEST PUSH1 0x0 DUP1 PUSH1 0x0 DUP1 PUSH1 0x0 PUSH1 0xA0 DUP7 DUP9 SUB SLT ISZERO PUSH2 0x64E JUMPI PUSH1 0x0 DUP1 REVERT JUMPDEST DUP6 CALLDATALOAD PUSH2 0x659 DUP2 PUSH2 0xAE4 JUMP JUMPDEST SWAP5 POP PUSH1 0x20 DUP7 ADD CALLDATALOAD SWAP4 POP PUSH1 0x40 DUP7 ADD CALLDATALOAD SWAP3 POP PUSH1 0x60 DUP7 ADD CALLDATALOAD PUSH2 0x677 DUP2 PUSH2 0xAE4 JUMP JUMPDEST SWAP5 SWAP8 SWAP4 SWAP7 POP SWAP2 SWAP5 PUSH1 0x80 ADD CALLDATALOAD SWAP3 SWAP2 POP POP JUMP JUMPDEST PUSH1 0x0 PUSH1 0x20 DUP3 DUP5 SUB SLT ISZERO PUSH2 0x69A JUMPI PUSH1 0x0 DUP1 REVERT JUMPDEST DUP2 CALLDATALOAD PUSH8 0xFFFFFFFFFFFFFFFF DUP2 GT ISZERO PUSH2 0x6B1 JUMPI PUSH1 0x0 DUP1 REVERT JUMPDEST PUSH2 0x6BD DUP5 DUP3 DUP6 ADD PUSH2 0x485 JUMP JUMPDEST SWAP5 SWAP4 POP POP POP POP JUMP JUMPDEST PUSH1 0x0 DUP1 PUSH1 0x0 DUP1 PUSH1 0x80 DUP6 DUP8 SUB SLT ISZERO PUSH2 0x6DB JUMPI PUSH1 0x0 DUP1 REVERT JUMPDEST DUP5 CALLDATALOAD SWAP4 POP PUSH1 0x20 DUP6 ADD CALLDATALOAD PUSH1 0xFF DUP2 AND DUP2 EQ PUSH2 0x6F3 JUMPI PUSH1 0x0 DUP1 REVERT JUMPDEST SWAP4 SWAP7 SWAP4 SWAP6 POP POP POP POP PUSH1 0x40 DUP3 ADD CALLDATALOAD SWAP2 PUSH1 0x60 ADD CALLDATALOAD SWAP1 JUMP JUMPDEST PUSH1 0x0 PUSH1 0x20 DUP3 DUP5 SUB SLT ISZERO PUSH2 0x71A JUMPI PUSH1 0x0 DUP1 REVERT JUMPDEST DUP2 CALLDATALOAD PUSH8 0xFFFFFFFFFFFFFFFF DUP2 GT ISZERO PUSH2 0x731 JUMPI PUSH1 0x0 DUP1 REVERT JUMPDEST PUSH2 0x6BD DUP5 DUP3 DUP6 ADD PUSH2 0x4FC JUMP JUMPDEST PUSH1 0x0 PUSH1 0x20 DUP3 DUP5 SUB SLT ISZERO PUSH2 0x74E JUMPI DUP1 DUP2 REVERT JUMPDEST DUP2 CALLDATALOAD PUSH8 0xFFFFFFFFFFFFFFFF DUP1 DUP3 GT ISZERO PUSH2 0x765 JUMPI DUP3 DUP4 REVERT JUMPDEST DUP2 DUP5 ADD PUSH1 0x40 DUP2 DUP8 SUB SLT ISZERO PUSH2 0x777 JUMPI DUP4 DUP5 REVERT JUMPDEST PUSH2 0x781 PUSH1 0x40 PUSH2 0xA8D JUMP JUMPDEST SWAP3 POP DUP1 CALLDATALOAD DUP3 DUP2 GT ISZERO PUSH2 0x791 JUMPI DUP5 DUP6 REVERT JUMPDEST PUSH2 0x79D DUP8 DUP3 DUP5 ADD PUSH2 0x583 JUMP JUMPDEST DUP5 MSTORE POP PUSH1 0x20 DUP2 ADD CALLDATALOAD DUP3 DUP2 GT ISZERO PUSH2 0x7B1 JUMPI DUP5 DUP6 REVERT JUMPDEST PUSH2 0x7BD DUP8 DUP3 DUP5 ADD PUSH2 0x4FC JUMP JUMPDEST PUSH1 0x20 DUP6 ADD MSTORE POP SWAP2 SWAP6 SWAP5 POP POP POP POP POP JUMP JUMPDEST PUSH1 0x0 PUSH1 0x20 DUP3 DUP5 SUB SLT ISZERO PUSH2 0x7DF JUMPI PUSH1 0x0 DUP1 REVERT JUMPDEST DUP2 CALLDATALOAD PUSH8 0xFFFFFFFFFFFFFFFF DUP2 GT ISZERO PUSH2 0x7F6 JUMPI PUSH1 0x0 DUP1 REVERT JUMPDEST PUSH2 0x6BD DUP5 DUP3 DUP6 ADD PUSH2 0x583 JUMP JUMPDEST PUSH1 0x0 PUSH1 0x20 DUP3 DUP5 SUB SLT ISZERO PUSH2 0x814 JUMPI PUSH1 0x0 DUP1 REVERT JUMPDEST POP CALLDATALOAD SWAP2 SWAP1 POP JUMP JUMPDEST PUSH1 0x0 DUP2 MLOAD DUP1 DUP5 MSTORE PUSH2 0x833 DUP2 PUSH1 0x20 DUP7 ADD PUSH1 0x20 DUP7 ADD PUSH2 0xAB4 JUMP JUMPDEST PUSH1 0x1F ADD PUSH32 0xFFFFFFFFFFFFFFFFFFFFFFFFFFFFFFFFFFFFFFFFFFFFFFFFFFFFFFFFFFFFFFE0 AND SWAP3 SWAP1 SWAP3 ADD PUSH1 0x20 ADD SWAP3 SWAP2 POP POP JUMP JUMPDEST PUSH1 0x0 DUP2 MLOAD PUSH1 0x80 DUP5 MSTORE PUSH2 0x87A PUSH1 0x80 DUP6 ADD DUP3 PUSH2 0x81B JUMP JUMPDEST PUSH1 0x20 SWAP2 POP PUSH4 0xFFFFFFFF DUP3 DUP6 ADD MLOAD AND DUP3 DUP7 ADD MSTORE PUSH1 0x40 DUP5 ADD MLOAD DUP6 DUP3 SUB PUSH1 0x40 DUP8 ADD MSTORE DUP2 DUP2 MLOAD DUP1 DUP5 MSTORE DUP5 DUP5 ADD SWAP2 POP DUP5 DUP6 DUP3 MUL DUP6 ADD ADD DUP6 DUP5 ADD PUSH1 0x0 SWAP5 POP JUMPDEST DUP3 DUP6 LT ISZERO PUSH2 0x901 JUMPI PUSH32 0xFFFFFFFFFFFFFFFFFFFFFFFFFFFFFFFFFFFFFFFFFFFFFFFFFFFFFFFFFFFFFFE0 DUP7 DUP4 SUB ADD DUP5 MSTORE PUSH2 0x8ED DUP3 DUP3 MLOAD PUSH2 0x81B JUMP JUMPDEST PUSH1 0x1 SWAP6 SWAP1 SWAP6 ADD SWAP5 SWAP4 DUP8 ADD SWAP4 SWAP2 POP DUP7 ADD PUSH2 0x8B3 JUMP JUMPDEST POP PUSH1 0x60 DUP9 ADD MLOAD SWAP6 POP DUP9 DUP2 SUB PUSH1 0x60 DUP11 ADD MSTORE PUSH2 0x91B DUP2 DUP8 PUSH2 0x81B JUMP JUMPDEST SWAP10 SWAP9 POP POP POP POP POP POP POP POP POP JUMP JUMPDEST PUSH1 0x0 DUP4 MLOAD PUSH2 0x93A DUP2 DUP5 PUSH1 0x20 DUP9 ADD PUSH2 0xAB4 JUMP JUMPDEST SWAP2 SWAP1 SWAP2 ADD SWAP2 DUP3 MSTORE POP PUSH1 0x20 ADD SWAP2 SWAP1 POP JUMP JUMPDEST PUSH20 0xFFFFFFFFFFFFFFFFFFFFFFFFFFFFFFFFFFFFFFFF SWAP2 SWAP1 SWAP2 AND DUP2 MSTORE PUSH1 0x20 ADD SWAP1 JUMP JUMPDEST SWAP4 DUP5 MSTORE PUSH1 0xFF SWAP3 SWAP1 SWAP3 AND PUSH1 0x20 DUP5 ADD MSTORE PUSH1 0x40 DUP4 ADD MSTORE PUSH1 0x60 DUP3 ADD MSTORE PUSH1 0x80 ADD SWAP1 JUMP JUMPDEST PUSH1 0x0 PUSH1 0x20 DUP3 MSTORE PUSH2 0x99C PUSH1 0x20 DUP4 ADD DUP5 PUSH2 0x81B JUMP JUMPDEST SWAP4 SWAP3 POP POP POP JUMP JUMPDEST PUSH1 0x20 DUP1 DUP3 MSTORE PUSH1 0xD SWAP1 DUP3 ADD MSTORE PUSH32 0x53494D504C455F52455645525400000000000000000000000000000000000000 PUSH1 0x40 DUP3 ADD MSTORE PUSH1 0x60 ADD SWAP1 JUMP JUMPDEST PUSH1 0x20 DUP1 DUP3 MSTORE PUSH1 0xE SWAP1 DUP3 ADD MSTORE PUSH32 0x53494D504C455F52455155495245000000000000000000000000000000000000 PUSH1 0x40 DUP3 ADD MSTORE PUSH1 0x60 ADD SWAP1 JUMP JUMPDEST PUSH1 0x0 PUSH1 0x20 DUP3 MSTORE DUP3 MLOAD PUSH1 0x40 PUSH1 0x20 DUP5 ADD MSTORE PUSH2 0xA2D PUSH1 0x60 DUP5 ADD DUP3 PUSH2 0x865 JUMP JUMPDEST PUSH1 0x20 DUP6 ADD MLOAD SWAP2 POP PUSH32 0xFFFFFFFFFFFFFFFFFFFFFFFFFFFFFFFFFFFFFFFFFFFFFFFFFFFFFFFFFFFFFFE0 DUP5 DUP3 SUB ADD PUSH1 0x40 DUP6 ADD MSTORE PUSH2 0xA68 DUP2 DUP4 PUSH2 0x81B JUMP JUMPDEST SWAP6 SWAP5 POP POP POP POP POP JUMP JUMPDEST PUSH1 0x0 PUSH1 0x20 DUP3 MSTORE PUSH2 0x99C PUSH1 0x20 DUP4 ADD DUP5 PUSH2 0x865 JUMP JUMPDEST SWAP1 DUP2 MSTORE PUSH1 0x20 ADD SWAP1 JUMP JUMPDEST PUSH1 0x40 MLOAD DUP2 DUP2 ADD PUSH8 0xFFFFFFFFFFFFFFFF DUP2 GT DUP3 DUP3 LT OR ISZERO PUSH2 0xAAC JUMPI PUSH1 0x0 DUP1 REVERT JUMPDEST PUSH1 0x40 MSTORE SWAP2 SWAP1 POP JUMP JUMPDEST PUSH1 0x0 JUMPDEST DUP4 DUP2 LT ISZERO PUSH2 0xACF JUMPI DUP2 DUP2 ADD MLOAD DUP4 DUP3 ADD MSTORE PUSH1 0x20 ADD PUSH2 0xAB7 JUMP JUMPDEST DUP4 DUP2 GT ISZERO PUSH2 0xADE JUMPI PUSH1 0x0 DUP5 DUP5 ADD MSTORE JUMPDEST POP POP POP POP JUMP JUMPDEST PUSH20 0xFFFFFFFFFFFFFFFFFFFFFFFFFFFFFFFFFFFFFFFF DUP2 AND DUP2 EQ PUSH2 0x229 JUMPI PUSH1 0x0 DUP1 REVERT INVALID LOG3 PUSH6 0x627A7A723058 KECCAK256 0xeb MUL 0xad 0xb0 PUSH21 0x466AECEE31DD11D85B1261A21E38E450204CF0436 CALLVALUE 0x46 PUSH21 0xD391A26C6578706572696D656E74616CF564736F6C PUSH4 0x4300050A STOP BLOCKHASH "
			}
		}
	},
	"sourceTreeHashHex": "0xcf328aead83e3f78a5a7f382dc9fae65d32c566b9bc5f9b55e489e25fa6d3197",
	"compiler": {
		"name": "solc",
		"version": "soljson-v0.5.10+commit.5a6ea5b1.js",
		"settings": {
			"optimizer": {
				"enabled": true,
				"runs": 1000000,
				"details": {
					"yul": true,
					"deduplicate": true,
					"cse": true,
					"constantOptimizer": true
				}
			},
			"outputSelection": {
				"*": {
					"*": [
						"abi",
						"evm.bytecode.object",
						"evm.bytecode.sourceMap",
						"evm.deployedBytecode.object",
						"evm.deployedBytecode.sourceMap"
					]
				}
			},
			"evmVersion": "constantinople",
			"remappings": []
		}
	}
}