{
	"schemaVersion": "2.0.0",
	"contractName": "AbiGenDummy",
	"compilerOutput": {
		"abi": [
			{
				"constant": true,
				"inputs": [],
				"name": "simpleRequire",
				"outputs": [],
				"payable": false,
				"stateMutability": "pure",
				"type": "function"
			},
			{
				"constant": true,
				"inputs": [
					{
						"internalType": "bytes[]",
						"name": "a",
						"type": "bytes[]"
					}
				],
				"name": "acceptsAnArrayOfBytes",
				"outputs": [],
				"payable": false,
				"stateMutability": "pure",
				"type": "function"
			},
			{
				"constant": true,
				"inputs": [
					{
						"internalType": "uint256",
						"name": "",
						"type": "uint256"
					}
				],
				"name": "simpleInputSimpleOutput",
				"outputs": [
					{
						"internalType": "uint256",
						"name": "",
						"type": "uint256"
					}
				],
				"payable": false,
				"stateMutability": "pure",
				"type": "function"
			},
			{
				"constant": false,
				"inputs": [
					{
						"internalType": "uint256",
						"name": "wad",
						"type": "uint256"
					}
				],
				"name": "withdraw",
				"outputs": [],
				"payable": false,
				"stateMutability": "nonpayable",
				"type": "function"
			},
			{
				"constant": true,
				"inputs": [
					{
						"internalType": "uint256",
						"name": "",
						"type": "uint256"
					},
					{
						"internalType": "bytes",
						"name": "",
						"type": "bytes"
					},
					{
						"internalType": "string",
						"name": "",
						"type": "string"
					}
				],
				"name": "multiInputMultiOutput",
				"outputs": [
					{
						"internalType": "bytes",
						"name": "",
						"type": "bytes"
					},
					{
						"internalType": "bytes",
						"name": "",
						"type": "bytes"
					},
					{
						"internalType": "string",
						"name": "",
						"type": "string"
					}
				],
				"payable": false,
				"stateMutability": "pure",
				"type": "function"
			},
			{
				"constant": true,
				"inputs": [
					{
						"internalType": "bytes32",
						"name": "hash",
						"type": "bytes32"
					},
					{
						"internalType": "uint8",
						"name": "v",
						"type": "uint8"
					},
					{
						"internalType": "bytes32",
						"name": "r",
						"type": "bytes32"
					},
					{
						"internalType": "bytes32",
						"name": "s",
						"type": "bytes32"
					}
				],
				"name": "ecrecoverFn",
				"outputs": [
					{
						"internalType": "address",
						"name": "signerAddress",
						"type": "address"
					}
				],
				"payable": false,
				"stateMutability": "pure",
				"type": "function"
			},
			{
				"constant": true,
				"inputs": [
					{
						"internalType": "bytes",
						"name": "a",
						"type": "bytes"
					}
				],
				"name": "acceptsBytes",
				"outputs": [],
				"payable": false,
				"stateMutability": "pure",
				"type": "function"
			},
			{
				"constant": true,
				"inputs": [],
				"name": "noInputSimpleOutput",
				"outputs": [
					{
						"internalType": "uint256",
						"name": "",
						"type": "uint256"
					}
				],
				"payable": false,
				"stateMutability": "pure",
				"type": "function"
			},
			{
				"constant": true,
				"inputs": [],
				"name": "revertWithConstant",
				"outputs": [],
				"payable": false,
				"stateMutability": "pure",
				"type": "function"
			},
			{
				"constant": true,
				"inputs": [],
				"name": "simpleRevert",
				"outputs": [],
				"payable": false,
				"stateMutability": "pure",
				"type": "function"
			},
			{
				"constant": true,
				"inputs": [],
				"name": "methodUsingNestedStructWithInnerStructNotUsedElsewhere",
				"outputs": [
					{
						"components": [
							{
								"components": [
									{
										"internalType": "uint256",
										"name": "aField",
										"type": "uint256"
									}
								],
								"internalType": "struct AbiGenDummy.StructNotDirectlyUsedAnywhere",
								"name": "innerStruct",
								"type": "tuple"
							}
						],
						"internalType": "struct AbiGenDummy.NestedStructWithInnerStructNotUsedElsewhere",
						"name": "",
						"type": "tuple"
					}
				],
				"payable": false,
				"stateMutability": "pure",
				"type": "function"
			},
			{
				"constant": true,
				"inputs": [],
				"name": "nestedStructOutput",
				"outputs": [
					{
						"components": [
							{
								"components": [
									{
										"internalType": "bytes",
										"name": "someBytes",
										"type": "bytes"
									},
									{
										"internalType": "uint32",
										"name": "anInteger",
										"type": "uint32"
									},
									{
										"internalType": "bytes[]",
										"name": "aDynamicArrayOfBytes",
										"type": "bytes[]"
									},
									{
										"internalType": "string",
										"name": "aString",
										"type": "string"
									}
								],
								"internalType": "struct AbiGenDummy.Struct",
								"name": "innerStruct",
								"type": "tuple"
							},
							{
								"internalType": "string",
								"name": "description",
								"type": "string"
							}
						],
						"internalType": "struct AbiGenDummy.NestedStruct",
						"name": "",
						"type": "tuple"
					}
				],
				"payable": false,
				"stateMutability": "pure",
				"type": "function"
			},
			{
				"constant": true,
				"inputs": [],
				"name": "requireWithConstant",
				"outputs": [],
				"payable": false,
				"stateMutability": "pure",
				"type": "function"
			},
			{
				"constant": true,
				"inputs": [
					{
						"internalType": "address",
						"name": "x",
						"type": "address"
					},
					{
						"internalType": "uint256",
						"name": "a",
						"type": "uint256"
					},
					{
						"internalType": "uint256",
						"name": "b",
						"type": "uint256"
					},
					{
						"internalType": "address",
						"name": "y",
						"type": "address"
					},
					{
						"internalType": "uint256",
						"name": "c",
						"type": "uint256"
					}
				],
				"name": "withAddressInput",
				"outputs": [
					{
						"internalType": "address",
						"name": "z",
						"type": "address"
					}
				],
				"payable": false,
				"stateMutability": "pure",
				"type": "function"
			},
			{
				"constant": true,
				"inputs": [
					{
						"components": [
							{
								"internalType": "bytes",
								"name": "someBytes",
								"type": "bytes"
							},
							{
								"internalType": "uint32",
								"name": "anInteger",
								"type": "uint32"
							},
							{
								"internalType": "bytes[]",
								"name": "aDynamicArrayOfBytes",
								"type": "bytes[]"
							},
							{
								"internalType": "string",
								"name": "aString",
								"type": "string"
							}
						],
						"internalType": "struct AbiGenDummy.Struct",
						"name": "s",
						"type": "tuple"
					}
				],
				"name": "structInput",
				"outputs": [],
				"payable": false,
				"stateMutability": "pure",
				"type": "function"
			},
			{
				"constant": false,
				"inputs": [],
				"name": "nonPureMethod",
				"outputs": [
					{
						"internalType": "uint256",
						"name": "",
						"type": "uint256"
					}
				],
				"payable": false,
				"stateMutability": "nonpayable",
				"type": "function"
			},
			{
				"constant": true,
				"inputs": [
					{
						"components": [
							{
								"internalType": "uint256",
								"name": "foo",
								"type": "uint256"
							},
							{
								"internalType": "bytes",
								"name": "bar",
								"type": "bytes"
							},
							{
								"internalType": "string",
								"name": "car",
								"type": "string"
							}
						],
						"internalType": "struct AbiGenDummy.ComplexInput",
						"name": "complexInput",
						"type": "tuple"
					}
				],
				"name": "complexInputComplexOutput",
				"outputs": [
					{
						"components": [
							{
								"components": [
									{
										"internalType": "uint256",
										"name": "foo",
										"type": "uint256"
									},
									{
										"internalType": "bytes",
										"name": "bar",
										"type": "bytes"
									},
									{
										"internalType": "string",
										"name": "car",
										"type": "string"
									}
								],
								"internalType": "struct AbiGenDummy.ComplexInput",
								"name": "input",
								"type": "tuple"
							},
							{
								"internalType": "bytes",
								"name": "lorem",
								"type": "bytes"
							},
							{
								"internalType": "bytes",
								"name": "ipsum",
								"type": "bytes"
							},
							{
								"internalType": "string",
								"name": "dolor",
								"type": "string"
							}
						],
						"internalType": "struct AbiGenDummy.ComplexOutput",
						"name": "",
						"type": "tuple"
					}
				],
				"payable": false,
				"stateMutability": "pure",
				"type": "function"
			},
			{
				"constant": true,
				"inputs": [],
				"name": "noInputNoOutput",
				"outputs": [],
				"payable": false,
				"stateMutability": "pure",
				"type": "function"
			},
			{
				"constant": true,
				"inputs": [
					{
						"internalType": "uint256",
						"name": "x",
						"type": "uint256"
					}
				],
				"name": "simplePureFunctionWithInput",
				"outputs": [
					{
						"internalType": "uint256",
						"name": "sum",
						"type": "uint256"
					}
				],
				"payable": false,
				"stateMutability": "pure",
				"type": "function"
			},
			{
				"constant": false,
				"inputs": [],
				"name": "nonPureMethodThatReturnsNothing",
				"outputs": [],
				"payable": false,
				"stateMutability": "nonpayable",
				"type": "function"
			},
			{
				"constant": true,
				"inputs": [],
				"name": "simplePureFunction",
				"outputs": [
					{
						"internalType": "uint256",
						"name": "result",
						"type": "uint256"
					}
				],
				"payable": false,
				"stateMutability": "pure",
				"type": "function"
			},
			{
				"constant": true,
				"inputs": [
					{
						"components": [
							{
								"components": [
									{
										"internalType": "bytes",
										"name": "someBytes",
										"type": "bytes"
									},
									{
										"internalType": "uint32",
										"name": "anInteger",
										"type": "uint32"
									},
									{
										"internalType": "bytes[]",
										"name": "aDynamicArrayOfBytes",
										"type": "bytes[]"
									},
									{
										"internalType": "string",
										"name": "aString",
										"type": "string"
									}
								],
								"internalType": "struct AbiGenDummy.Struct",
								"name": "innerStruct",
								"type": "tuple"
							},
							{
								"internalType": "string",
								"name": "description",
								"type": "string"
							}
						],
						"internalType": "struct AbiGenDummy.NestedStruct",
						"name": "n",
						"type": "tuple"
					}
				],
				"name": "nestedStructInput",
				"outputs": [],
				"payable": false,
				"stateMutability": "pure",
				"type": "function"
			},
			{
				"constant": true,
				"inputs": [],
				"name": "methodReturningMultipleValues",
				"outputs": [
					{
						"internalType": "uint256",
						"name": "",
						"type": "uint256"
					},
					{
						"internalType": "string",
						"name": "",
						"type": "string"
					}
				],
				"payable": false,
				"stateMutability": "pure",
				"type": "function"
			},
			{
				"constant": true,
				"inputs": [],
				"name": "methodReturningArrayOfStructs",
				"outputs": [
					{
						"components": [
							{
								"internalType": "bytes",
								"name": "someBytes",
								"type": "bytes"
							},
							{
								"internalType": "uint32",
								"name": "anInteger",
								"type": "uint32"
							},
							{
								"internalType": "bytes[]",
								"name": "aDynamicArrayOfBytes",
								"type": "bytes[]"
							},
							{
								"internalType": "string",
								"name": "aString",
								"type": "string"
							}
						],
						"internalType": "struct AbiGenDummy.Struct[]",
						"name": "",
						"type": "tuple[]"
					}
				],
				"payable": false,
				"stateMutability": "pure",
				"type": "function"
			},
			{
				"constant": false,
				"inputs": [],
				"name": "emitSimpleEvent",
				"outputs": [],
				"payable": false,
				"stateMutability": "nonpayable",
				"type": "function"
			},
			{
				"constant": true,
				"inputs": [],
				"name": "structOutput",
				"outputs": [
					{
						"components": [
							{
								"internalType": "bytes",
								"name": "someBytes",
								"type": "bytes"
							},
							{
								"internalType": "uint32",
								"name": "anInteger",
								"type": "uint32"
							},
							{
								"internalType": "bytes[]",
								"name": "aDynamicArrayOfBytes",
								"type": "bytes[]"
							},
							{
								"internalType": "string",
								"name": "aString",
								"type": "string"
							}
						],
						"internalType": "struct AbiGenDummy.Struct",
						"name": "s",
						"type": "tuple"
					}
				],
				"payable": false,
				"stateMutability": "pure",
				"type": "function"
			},
			{
				"constant": true,
				"inputs": [],
				"name": "pureFunctionWithConstant",
				"outputs": [
					{
						"internalType": "uint256",
						"name": "someConstant",
						"type": "uint256"
					}
				],
				"payable": false,
				"stateMutability": "pure",
				"type": "function"
			},
			{
				"constant": true,
				"inputs": [
					{
						"internalType": "uint256",
						"name": "",
						"type": "uint256"
					}
				],
				"name": "simpleInputNoOutput",
				"outputs": [],
				"payable": false,
				"stateMutability": "pure",
				"type": "function"
			},
			{
				"constant": true,
				"inputs": [
					{
						"internalType": "string",
						"name": "a",
						"type": "string"
					}
				],
				"name": "overloadedMethod",
				"outputs": [],
				"payable": false,
				"stateMutability": "pure",
				"type": "function"
			},
			{
				"constant": true,
				"inputs": [
					{
						"internalType": "int256",
						"name": "a",
						"type": "int256"
					}
				],
				"name": "overloadedMethod",
				"outputs": [],
				"payable": false,
				"stateMutability": "pure",
				"type": "function"
			},
			{
				"anonymous": false,
				"inputs": [
					{
						"indexed": true,
						"internalType": "address",
						"name": "_owner",
						"type": "address"
					},
					{
						"indexed": false,
						"internalType": "uint256",
						"name": "_value",
						"type": "uint256"
					}
				],
				"name": "Withdrawal",
				"type": "event"
			},
			{
				"anonymous": false,
				"inputs": [
					{
						"indexed": false,
						"internalType": "bytes",
						"name": "someBytes",
						"type": "bytes"
					},
					{
						"indexed": false,
						"internalType": "string",
						"name": "someString",
						"type": "string"
					}
				],
				"name": "SimpleEvent",
				"type": "event"
			}
		],
		"devdoc": {
			"methods": {
				"acceptsAnArrayOfBytes(bytes[])": {
					"details": "a method that accepts an array of bytes",
					"params": {
						"a": "the array of bytes being accepted"
					}
				},
				"complexInputComplexOutput((uint256,bytes,string))": {
					"details": "Tests decoding when the input and output are complex."
				},
				"ecrecoverFn(bytes32,uint8,bytes32,bytes32)": {
					"details": "test that devdocs will be generated and     that multiline devdocs will look okay",
					"params": {
						"hash": "description of some hash. Let's make this line super long to demonstrate hanging indents for method params. It has to be more than one hundred twenty columns.",
						"r": "ECDSA r output",
						"s": "ECDSA s output",
						"v": "some v, recovery id"
					},
					"return": "the signerAddress that created this signature.  this line too is super long in order to demonstrate the proper hanging indentation in generated code."
				},
				"multiInputMultiOutput(uint256,bytes,string)": {
					"details": "Tests decoding when the input and output are complex and have more than one argument."
				},
				"noInputNoOutput()": {
					"details": "Tests decoding when both input and output are empty."
				},
				"noInputSimpleOutput()": {
					"details": "Tests decoding when input is empty and output is non-empty."
				},
				"simpleInputNoOutput(uint256)": {
					"details": "Tests decoding when input is not empty but output is empty."
				},
				"simpleInputSimpleOutput(uint256)": {
					"details": "Tests decoding when both input and output are non-empty."
				},
				"structOutput()": {
					"details": "a method that returns a struct",
					"return": "a Struct struct"
				}
			}
		},
		"evm": {
			"bytecode": {
				"linkReferences": {},
				"object": "0x608060405234801561001057600080fd5b50611478806100206000396000f3fe608060405234801561001057600080fd5b50600436106101d95760003560e01c806376f15d5b11610104578063bb607362116100a2578063d88be12f11610071578063d88be12f1461039b578063ee8b86fb146103a3578063f408fb3114610279578063fa315f9d146103b6576101d9565b8063bb60736214610353578063bdab168814610369578063cd3c0b971461037e578063d6d7618c14610386576101d9565b80638ee52b4e116100de5780638ee52b4e146103225780639a3b618514610335578063a3c2f6b61461033d578063ae2dae1714610345576101d9565b806376f15d5b146102f25780637833bec0146102fa5780637a791e6e1461031a576101d9565b80634303a5421161017c57806359c28add1161014b57806359c28add146102b45780635ba3c7c0146102c957806363d69c88146102d1578063647341eb146102e4576101d9565b80634303a542146102875780634582eab21461028f57806345fdbdb714610297578063586f84b21461029f576101d9565b80632e1a7d4d116101b85780632e1a7d4d146102245780633687617d1461023757806336b32396146102595780633e9ef66a14610279576101d9565b806209e437146101de5780630527c28f146101e85780631310e444146101fb575b600080fd5b6101e66103c4565b005b6101e66101f6366004610c7f565b610401565b61020e610209366004610d34565b610404565b60405161021b919061139a565b60405180910390f35b6101e6610232366004610d34565b61040b565b61024a610245366004610eac565b61045c565b60405161021b93929190611103565b61026c610267366004610cbc565b6104fc565b60405161021b9190611045565b6101e66101f6366004610cff565b61020e6105de565b6101e66105e5565b6101e661064a565b6102a761067c565b60405161021b9190611325565b6102bc610684565b60405161021b9190611330565b6101e661068c565b61026c6102df366004610c2d565b6106f1565b6101e66101f6366004610e77565b61020e6106fa565b61030d610308366004610d4d565b610708565b60405161021b9190611239565b6101e66107c5565b61020e610330366004610d34565b6107ca565b6101e66107d0565b61020e6107db565b6101e66101f6366004610de7565b61035b6107e0565b60405161021b9291906113a3565b610371610819565b60405161021b9190611066565b6101e661081e565b61038e610855565b60405161021b9190611387565b61020e6109ae565b6101e66103b1366004610d34565b6101f6565b6101e66101f6366004610d34565b6040517f08c379a00000000000000000000000000000000000000000000000000000000081526004016103f690611202565b60405180910390fd5b565b50565b506107c790565b3373ffffffffffffffffffffffffffffffffffffffff167f7fcf532c15f0a6db0bd6d0e038bea71d30d808c7d98cb3bf7268a95bf5081b6582604051610451919061139a565b60405180910390a250565b505060408051808201825260048082527f1234567800000000000000000000000000000000000000000000000000000000602080840191909152835180850185528281527f87654321000000000000000000000000000000000000000000000000000000008183015284518086019095529184527f616d657400000000000000000000000000000000000000000000000000000000908401529093909250565b600060606040518060400160405280601c81526020017f19457468657265756d205369676e6564204d6573736167653a0a33320000000081525090506000818760405160200161054d929190611023565b6040516020818303038152906040528051906020012090506001818787876040516000815260200160405260405161058894939291906110e5565b6020604051602081039080840390855afa1580156105aa573d6000803e3d6000fd5b50506040517fffffffffffffffffffffffffffffffffffffffffffffffffffffffffffffffe0015198975050505050505050565b6107c75b90565b604080518082018252601481527f5245564552545f574954485f434f4e5354414e54000000000000000000000000602082015290517f08c379a00000000000000000000000000000000000000000000000000000000081526103f69190600401611145565b6040517f08c379a00000000000000000000000000000000000000000000000000000000081526004016103f6906111cb565b6105e26109b4565b6105e26109cc565b604080518082018252601581527f524551554952455f574954485f434f4e5354414e540000000000000000000000602082015290517f08c379a00000000000000000000000000000000000000000000000000000000081526103f69190600401611145565b50929392505050565b600080546001019081905590565b6107106109ec565b50604080516080810182529182528051808201825260048082527f123456780000000000000000000000000000000000000000000000000000000060208381019190915280850192909252825180840184528181527f87654321000000000000000000000000000000000000000000000000000000008184015284840152825180840190935282527f616d65740000000000000000000000000000000000000000000000000000000090820152606082015290565b6103ff565b60010190565b600080546001019055565b600190565b60408051808201909152600581527f68656c6c6f0000000000000000000000000000000000000000000000000000006020820152600191565b606090565b7f61a6029a4c7ddee5824d171331eecbd015d26a271310a223718b837facb5b77160405161084b9061115f565b60405180910390a1565b61085d610a1a565b6040805160028082526060828101909352816020015b60608152602001906001900390816108735790505090506040518060400160405280600581526020017f3078313233000000000000000000000000000000000000000000000000000000815250816000815181106108cd57fe5b60200260200101819052506040518060400160405280600581526020017f30783332310000000000000000000000000000000000000000000000000000008152508160018151811061091b57fe5b6020908102919091018101919091526040805160c0810182526005608082018181527f307831323300000000000000000000000000000000000000000000000000000060a0840152825281840152808201939093528051808201909152600381527f6162630000000000000000000000000000000000000000000000000000000000918101919091526060820152905090565b6104d290565b60405180602001604052806109c7610a48565b905290565b60405180604001604052806109df610a1a565b8152602001606081525090565b60405180608001604052806109ff610a5b565b81526020016060815260200160608152602001606081525090565b604051806080016040528060608152602001600063ffffffff16815260200160608152602001606081525090565b6040518060200160405280600081525090565b60405180606001604052806000815260200160608152602001606081525090565b600082601f830112610a8c578081fd5b813567ffffffffffffffff811115610aa2578182fd5b6020610ab181828402016113bc565b828152925080830184820160005b84811015610ae857610ad6888584358a0101610af3565b83529183019190830190600101610abf565b505050505092915050565b600082601f830112610b03578081fd5b813567ffffffffffffffff811115610b19578182fd5b610b4a60207fffffffffffffffffffffffffffffffffffffffffffffffffffffffffffffffe0601f840116016113bc565b9150808252836020828501011115610b6157600080fd5b8060208401602084013760009082016020015292915050565b600060808284031215610b8b578081fd5b610b9560806113bc565b90506000823567ffffffffffffffff80821115610bb0578283fd5b610bbc86838701610af3565b84526020850135915063ffffffff82168214610bd6578283fd5b8160208501526040850135915080821115610bef578283fd5b610bfb86838701610a7c565b60408501526060850135915080821115610c13578283fd5b50610c2085828601610af3565b6060840152505092915050565b600080600080600060a08688031215610c4557600080fd5b8535610c5081611413565b945060208601359350604086013592506060860135610c6e81611413565b949793965091946080013592915050565b600060208284031215610c9157600080fd5b813567ffffffffffffffff811115610ca857600080fd5b610cb484828501610a7c565b949350505050565b60008060008060808587031215610cd257600080fd5b84359350602085013560ff81168114610cea57600080fd5b93969395505050506040820135916060013590565b600060208284031215610d1157600080fd5b813567ffffffffffffffff811115610d2857600080fd5b610cb484828501610af3565b600060208284031215610d4657600080fd5b5035919050565b600060208284031215610d5e578081fd5b813567ffffffffffffffff80821115610d75578283fd5b81840160608187031215610d87578384fd5b610d9160606113bc565b925080358352602081013582811115610da8578485fd5b610db487828401610af3565b602085015250604081013582811115610dcb578485fd5b610dd787828401610af3565b6040850152509195945050505050565b600060208284031215610df8578081fd5b813567ffffffffffffffff80821115610e0f578283fd5b81840160408187031215610e21578384fd5b610e2b60406113bc565b9250803582811115610e3b578485fd5b610e4787828401610b7a565b845250602081013582811115610e5b578485fd5b610e6787828401610af3565b6020850152509195945050505050565b600060208284031215610e8957600080fd5b813567ffffffffffffffff811115610ea057600080fd5b610cb484828501610b7a565b600080600060608486031215610ec0578081fd5b83359250602084013567ffffffffffffffff80821115610ede578283fd5b610eea87838801610af3565b93506040860135915080821115610eff578283fd5b50610f0c86828701610af3565b9150509250925092565b60008151808452610f2e8160208601602086016113e3565b601f017fffffffffffffffffffffffffffffffffffffffffffffffffffffffffffffffe0169290920160200192915050565b6000815160808452610f756080850182610f16565b6020915063ffffffff82850151168286015260408401518582036040870152818151808452848401915084858202850101858401600094505b82851015610ffc577fffffffffffffffffffffffffffffffffffffffffffffffffffffffffffffffe0868303018452610fe8828251610f16565b600195909501949387019391508601610fae565b506060880151955088810360608a01526110168187610f16565b9998505050505050505050565b600083516110358184602088016113e3565b9190910191825250602001919050565b73ffffffffffffffffffffffffffffffffffffffff91909116815260200190565b600060208083018184528085518083526040860191506040848202870101925083870160005b828110156110d8577fffffffffffffffffffffffffffffffffffffffffffffffffffffffffffffffc08886030184526110c6858351610f60565b9450928501929085019060010161108c565b5092979650505050505050565b93845260ff9290921660208401526040830152606082015260800190565b6000606082526111166060830186610f16565b82810360208401526111288186610f16565b838103604085015261113a8186610f16565b979650505050505050565b6000602082526111586020830184610f16565b9392505050565b60408082526004908201527f123456780000000000000000000000000000000000000000000000000000000060608201526080602082018190526005908201527f6c6f72656d00000000000000000000000000000000000000000000000000000060a082015260c00190565b6020808252600d908201527f53494d504c455f52455645525400000000000000000000000000000000000000604082015260600190565b6020808252600e908201527f53494d504c455f52455155495245000000000000000000000000000000000000604082015260600190565b600060208252825160806020840152805160a08401526020810151606060c0850152611269610100850182610f16565b604083015191507fffffffffffffffffffffffffffffffffffffffffffffffffffffffffffffff608582030160e08601526112a48183610f16565b9250505060208401517fffffffffffffffffffffffffffffffffffffffffffffffffffffffffffffffe0808584030160408601526112e28383610f16565b60408701519350818682030160608701526112fd8185610f16565b92505060608601519250808583030160808601525061131c8183610f16565b95945050505050565b905151815260200190565b60006020825282516040602084015261134c6060840182610f60565b602085015191507fffffffffffffffffffffffffffffffffffffffffffffffffffffffffffffffe084820301604085015261131c8183610f16565b6000602082526111586020830184610f60565b90815260200190565b600083825260406020830152610cb46040830184610f16565b60405181810167ffffffffffffffff811182821017156113db57600080fd5b604052919050565b60005b838110156113fe5781810151838201526020016113e6565b8381111561140d576000848401525b50505050565b73ffffffffffffffffffffffffffffffffffffffff8116811461040157600080fdfea365627a7a723158207f0854b76fc684de0be1f1a5db2d486bc187ff28d1e99d27ca0f61b452a1942f6c6578706572696d656e74616cf564736f6c634300050b0040",
				"opcodes": "PUSH1 0x80 PUSH1 0x40 MSTORE CALLVALUE DUP1 ISZERO PUSH2 0x10 JUMPI PUSH1 0x0 DUP1 REVERT JUMPDEST POP PUSH2 0x1478 DUP1 PUSH2 0x20 PUSH1 0x0 CODECOPY PUSH1 0x0 RETURN INVALID PUSH1 0x80 PUSH1 0x40 MSTORE CALLVALUE DUP1 ISZERO PUSH2 0x10 JUMPI PUSH1 0x0 DUP1 REVERT JUMPDEST POP PUSH1 0x4 CALLDATASIZE LT PUSH2 0x1D9 JUMPI PUSH1 0x0 CALLDATALOAD PUSH1 0xE0 SHR DUP1 PUSH4 0x76F15D5B GT PUSH2 0x104 JUMPI DUP1 PUSH4 0xBB607362 GT PUSH2 0xA2 JUMPI DUP1 PUSH4 0xD88BE12F GT PUSH2 0x71 JUMPI DUP1 PUSH4 0xD88BE12F EQ PUSH2 0x39B JUMPI DUP1 PUSH4 0xEE8B86FB EQ PUSH2 0x3A3 JUMPI DUP1 PUSH4 0xF408FB31 EQ PUSH2 0x279 JUMPI DUP1 PUSH4 0xFA315F9D EQ PUSH2 0x3B6 JUMPI PUSH2 0x1D9 JUMP JUMPDEST DUP1 PUSH4 0xBB607362 EQ PUSH2 0x353 JUMPI DUP1 PUSH4 0xBDAB1688 EQ PUSH2 0x369 JUMPI DUP1 PUSH4 0xCD3C0B97 EQ PUSH2 0x37E JUMPI DUP1 PUSH4 0xD6D7618C EQ PUSH2 0x386 JUMPI PUSH2 0x1D9 JUMP JUMPDEST DUP1 PUSH4 0x8EE52B4E GT PUSH2 0xDE JUMPI DUP1 PUSH4 0x8EE52B4E EQ PUSH2 0x322 JUMPI DUP1 PUSH4 0x9A3B6185 EQ PUSH2 0x335 JUMPI DUP1 PUSH4 0xA3C2F6B6 EQ PUSH2 0x33D JUMPI DUP1 PUSH4 0xAE2DAE17 EQ PUSH2 0x345 JUMPI PUSH2 0x1D9 JUMP JUMPDEST DUP1 PUSH4 0x76F15D5B EQ PUSH2 0x2F2 JUMPI DUP1 PUSH4 0x7833BEC0 EQ PUSH2 0x2FA JUMPI DUP1 PUSH4 0x7A791E6E EQ PUSH2 0x31A JUMPI PUSH2 0x1D9 JUMP JUMPDEST DUP1 PUSH4 0x4303A542 GT PUSH2 0x17C JUMPI DUP1 PUSH4 0x59C28ADD GT PUSH2 0x14B JUMPI DUP1 PUSH4 0x59C28ADD EQ PUSH2 0x2B4 JUMPI DUP1 PUSH4 0x5BA3C7C0 EQ PUSH2 0x2C9 JUMPI DUP1 PUSH4 0x63D69C88 EQ PUSH2 0x2D1 JUMPI DUP1 PUSH4 0x647341EB EQ PUSH2 0x2E4 JUMPI PUSH2 0x1D9 JUMP JUMPDEST DUP1 PUSH4 0x4303A542 EQ PUSH2 0x287 JUMPI DUP1 PUSH4 0x4582EAB2 EQ PUSH2 0x28F JUMPI DUP1 PUSH4 0x45FDBDB7 EQ PUSH2 0x297 JUMPI DUP1 PUSH4 0x586F84B2 EQ PUSH2 0x29F JUMPI PUSH2 0x1D9 JUMP JUMPDEST DUP1 PUSH4 0x2E1A7D4D GT PUSH2 0x1B8 JUMPI DUP1 PUSH4 0x2E1A7D4D EQ PUSH2 0x224 JUMPI DUP1 PUSH4 0x3687617D EQ PUSH2 0x237 JUMPI DUP1 PUSH4 0x36B32396 EQ PUSH2 0x259 JUMPI DUP1 PUSH4 0x3E9EF66A EQ PUSH2 0x279 JUMPI PUSH2 0x1D9 JUMP JUMPDEST DUP1 PUSH3 0x9E437 EQ PUSH2 0x1DE JUMPI DUP1 PUSH4 0x527C28F EQ PUSH2 0x1E8 JUMPI DUP1 PUSH4 0x1310E444 EQ PUSH2 0x1FB JUMPI JUMPDEST PUSH1 0x0 DUP1 REVERT JUMPDEST PUSH2 0x1E6 PUSH2 0x3C4 JUMP JUMPDEST STOP JUMPDEST PUSH2 0x1E6 PUSH2 0x1F6 CALLDATASIZE PUSH1 0x4 PUSH2 0xC7F JUMP JUMPDEST PUSH2 0x401 JUMP JUMPDEST PUSH2 0x20E PUSH2 0x209 CALLDATASIZE PUSH1 0x4 PUSH2 0xD34 JUMP JUMPDEST PUSH2 0x404 JUMP JUMPDEST PUSH1 0x40 MLOAD PUSH2 0x21B SWAP2 SWAP1 PUSH2 0x139A JUMP JUMPDEST PUSH1 0x40 MLOAD DUP1 SWAP2 SUB SWAP1 RETURN JUMPDEST PUSH2 0x1E6 PUSH2 0x232 CALLDATASIZE PUSH1 0x4 PUSH2 0xD34 JUMP JUMPDEST PUSH2 0x40B JUMP JUMPDEST PUSH2 0x24A PUSH2 0x245 CALLDATASIZE PUSH1 0x4 PUSH2 0xEAC JUMP JUMPDEST PUSH2 0x45C JUMP JUMPDEST PUSH1 0x40 MLOAD PUSH2 0x21B SWAP4 SWAP3 SWAP2 SWAP1 PUSH2 0x1103 JUMP JUMPDEST PUSH2 0x26C PUSH2 0x267 CALLDATASIZE PUSH1 0x4 PUSH2 0xCBC JUMP JUMPDEST PUSH2 0x4FC JUMP JUMPDEST PUSH1 0x40 MLOAD PUSH2 0x21B SWAP2 SWAP1 PUSH2 0x1045 JUMP JUMPDEST PUSH2 0x1E6 PUSH2 0x1F6 CALLDATASIZE PUSH1 0x4 PUSH2 0xCFF JUMP JUMPDEST PUSH2 0x20E PUSH2 0x5DE JUMP JUMPDEST PUSH2 0x1E6 PUSH2 0x5E5 JUMP JUMPDEST PUSH2 0x1E6 PUSH2 0x64A JUMP JUMPDEST PUSH2 0x2A7 PUSH2 0x67C JUMP JUMPDEST PUSH1 0x40 MLOAD PUSH2 0x21B SWAP2 SWAP1 PUSH2 0x1325 JUMP JUMPDEST PUSH2 0x2BC PUSH2 0x684 JUMP JUMPDEST PUSH1 0x40 MLOAD PUSH2 0x21B SWAP2 SWAP1 PUSH2 0x1330 JUMP JUMPDEST PUSH2 0x1E6 PUSH2 0x68C JUMP JUMPDEST PUSH2 0x26C PUSH2 0x2DF CALLDATASIZE PUSH1 0x4 PUSH2 0xC2D JUMP JUMPDEST PUSH2 0x6F1 JUMP JUMPDEST PUSH2 0x1E6 PUSH2 0x1F6 CALLDATASIZE PUSH1 0x4 PUSH2 0xE77 JUMP JUMPDEST PUSH2 0x20E PUSH2 0x6FA JUMP JUMPDEST PUSH2 0x30D PUSH2 0x308 CALLDATASIZE PUSH1 0x4 PUSH2 0xD4D JUMP JUMPDEST PUSH2 0x708 JUMP JUMPDEST PUSH1 0x40 MLOAD PUSH2 0x21B SWAP2 SWAP1 PUSH2 0x1239 JUMP JUMPDEST PUSH2 0x1E6 PUSH2 0x7C5 JUMP JUMPDEST PUSH2 0x20E PUSH2 0x330 CALLDATASIZE PUSH1 0x4 PUSH2 0xD34 JUMP JUMPDEST PUSH2 0x7CA JUMP JUMPDEST PUSH2 0x1E6 PUSH2 0x7D0 JUMP JUMPDEST PUSH2 0x20E PUSH2 0x7DB JUMP JUMPDEST PUSH2 0x1E6 PUSH2 0x1F6 CALLDATASIZE PUSH1 0x4 PUSH2 0xDE7 JUMP JUMPDEST PUSH2 0x35B PUSH2 0x7E0 JUMP JUMPDEST PUSH1 0x40 MLOAD PUSH2 0x21B SWAP3 SWAP2 SWAP1 PUSH2 0x13A3 JUMP JUMPDEST PUSH2 0x371 PUSH2 0x819 JUMP JUMPDEST PUSH1 0x40 MLOAD PUSH2 0x21B SWAP2 SWAP1 PUSH2 0x1066 JUMP JUMPDEST PUSH2 0x1E6 PUSH2 0x81E JUMP JUMPDEST PUSH2 0x38E PUSH2 0x855 JUMP JUMPDEST PUSH1 0x40 MLOAD PUSH2 0x21B SWAP2 SWAP1 PUSH2 0x1387 JUMP JUMPDEST PUSH2 0x20E PUSH2 0x9AE JUMP JUMPDEST PUSH2 0x1E6 PUSH2 0x3B1 CALLDATASIZE PUSH1 0x4 PUSH2 0xD34 JUMP JUMPDEST PUSH2 0x1F6 JUMP JUMPDEST PUSH2 0x1E6 PUSH2 0x1F6 CALLDATASIZE PUSH1 0x4 PUSH2 0xD34 JUMP JUMPDEST PUSH1 0x40 MLOAD PUSH32 0x8C379A000000000000000000000000000000000000000000000000000000000 DUP2 MSTORE PUSH1 0x4 ADD PUSH2 0x3F6 SWAP1 PUSH2 0x1202 JUMP JUMPDEST PUSH1 0x40 MLOAD DUP1 SWAP2 SUB SWAP1 REVERT JUMPDEST JUMP JUMPDEST POP JUMP JUMPDEST POP PUSH2 0x7C7 SWAP1 JUMP JUMPDEST CALLER PUSH20 0xFFFFFFFFFFFFFFFFFFFFFFFFFFFFFFFFFFFFFFFF AND PUSH32 0x7FCF532C15F0A6DB0BD6D0E038BEA71D30D808C7D98CB3BF7268A95BF5081B65 DUP3 PUSH1 0x40 MLOAD PUSH2 0x451 SWAP2 SWAP1 PUSH2 0x139A JUMP JUMPDEST PUSH1 0x40 MLOAD DUP1 SWAP2 SUB SWAP1 LOG2 POP JUMP JUMPDEST POP POP PUSH1 0x40 DUP1 MLOAD DUP1 DUP3 ADD DUP3 MSTORE PUSH1 0x4 DUP1 DUP3 MSTORE PUSH32 0x1234567800000000000000000000000000000000000000000000000000000000 PUSH1 0x20 DUP1 DUP5 ADD SWAP2 SWAP1 SWAP2 MSTORE DUP4 MLOAD DUP1 DUP6 ADD DUP6 MSTORE DUP3 DUP2 MSTORE PUSH32 0x8765432100000000000000000000000000000000000000000000000000000000 DUP2 DUP4 ADD MSTORE DUP5 MLOAD DUP1 DUP7 ADD SWAP1 SWAP6 MSTORE SWAP2 DUP5 MSTORE PUSH32 0x616D657400000000000000000000000000000000000000000000000000000000 SWAP1 DUP5 ADD MSTORE SWAP1 SWAP4 SWAP1 SWAP3 POP JUMP JUMPDEST PUSH1 0x0 PUSH1 0x60 PUSH1 0x40 MLOAD DUP1 PUSH1 0x40 ADD PUSH1 0x40 MSTORE DUP1 PUSH1 0x1C DUP2 MSTORE PUSH1 0x20 ADD PUSH32 0x19457468657265756D205369676E6564204D6573736167653A0A333200000000 DUP2 MSTORE POP SWAP1 POP PUSH1 0x0 DUP2 DUP8 PUSH1 0x40 MLOAD PUSH1 0x20 ADD PUSH2 0x54D SWAP3 SWAP2 SWAP1 PUSH2 0x1023 JUMP JUMPDEST PUSH1 0x40 MLOAD PUSH1 0x20 DUP2 DUP4 SUB SUB DUP2 MSTORE SWAP1 PUSH1 0x40 MSTORE DUP1 MLOAD SWAP1 PUSH1 0x20 ADD KECCAK256 SWAP1 POP PUSH1 0x1 DUP2 DUP8 DUP8 DUP8 PUSH1 0x40 MLOAD PUSH1 0x0 DUP2 MSTORE PUSH1 0x20 ADD PUSH1 0x40 MSTORE PUSH1 0x40 MLOAD PUSH2 0x588 SWAP5 SWAP4 SWAP3 SWAP2 SWAP1 PUSH2 0x10E5 JUMP JUMPDEST PUSH1 0x20 PUSH1 0x40 MLOAD PUSH1 0x20 DUP2 SUB SWAP1 DUP1 DUP5 SUB SWAP1 DUP6 GAS STATICCALL ISZERO DUP1 ISZERO PUSH2 0x5AA JUMPI RETURNDATASIZE PUSH1 0x0 DUP1 RETURNDATACOPY RETURNDATASIZE PUSH1 0x0 REVERT JUMPDEST POP POP PUSH1 0x40 MLOAD PUSH32 0xFFFFFFFFFFFFFFFFFFFFFFFFFFFFFFFFFFFFFFFFFFFFFFFFFFFFFFFFFFFFFFE0 ADD MLOAD SWAP9 SWAP8 POP POP POP POP POP POP POP POP JUMP JUMPDEST PUSH2 0x7C7 JUMPDEST SWAP1 JUMP JUMPDEST PUSH1 0x40 DUP1 MLOAD DUP1 DUP3 ADD DUP3 MSTORE PUSH1 0x14 DUP2 MSTORE PUSH32 0x5245564552545F574954485F434F4E5354414E54000000000000000000000000 PUSH1 0x20 DUP3 ADD MSTORE SWAP1 MLOAD PUSH32 0x8C379A000000000000000000000000000000000000000000000000000000000 DUP2 MSTORE PUSH2 0x3F6 SWAP2 SWAP1 PUSH1 0x4 ADD PUSH2 0x1145 JUMP JUMPDEST PUSH1 0x40 MLOAD PUSH32 0x8C379A000000000000000000000000000000000000000000000000000000000 DUP2 MSTORE PUSH1 0x4 ADD PUSH2 0x3F6 SWAP1 PUSH2 0x11CB JUMP JUMPDEST PUSH2 0x5E2 PUSH2 0x9B4 JUMP JUMPDEST PUSH2 0x5E2 PUSH2 0x9CC JUMP JUMPDEST PUSH1 0x40 DUP1 MLOAD DUP1 DUP3 ADD DUP3 MSTORE PUSH1 0x15 DUP2 MSTORE PUSH32 0x524551554952455F574954485F434F4E5354414E540000000000000000000000 PUSH1 0x20 DUP3 ADD MSTORE SWAP1 MLOAD PUSH32 0x8C379A000000000000000000000000000000000000000000000000000000000 DUP2 MSTORE PUSH2 0x3F6 SWAP2 SWAP1 PUSH1 0x4 ADD PUSH2 0x1145 JUMP JUMPDEST POP SWAP3 SWAP4 SWAP3 POP POP POP JUMP JUMPDEST PUSH1 0x0 DUP1 SLOAD PUSH1 0x1 ADD SWAP1 DUP2 SWAP1 SSTORE SWAP1 JUMP JUMPDEST PUSH2 0x710 PUSH2 0x9EC JUMP JUMPDEST POP PUSH1 0x40 DUP1 MLOAD PUSH1 0x80 DUP2 ADD DUP3 MSTORE SWAP2 DUP3 MSTORE DUP1 MLOAD DUP1 DUP3 ADD DUP3 MSTORE PUSH1 0x4 DUP1 DUP3 MSTORE PUSH32 0x1234567800000000000000000000000000000000000000000000000000000000 PUSH1 0x20 DUP4 DUP2 ADD SWAP2 SWAP1 SWAP2 MSTORE DUP1 DUP6 ADD SWAP3 SWAP1 SWAP3 MSTORE DUP3 MLOAD DUP1 DUP5 ADD DUP5 MSTORE DUP2 DUP2 MSTORE PUSH32 0x8765432100000000000000000000000000000000000000000000000000000000 DUP2 DUP5 ADD MSTORE DUP5 DUP5 ADD MSTORE DUP3 MLOAD DUP1 DUP5 ADD SWAP1 SWAP4 MSTORE DUP3 MSTORE PUSH32 0x616D657400000000000000000000000000000000000000000000000000000000 SWAP1 DUP3 ADD MSTORE PUSH1 0x60 DUP3 ADD MSTORE SWAP1 JUMP JUMPDEST PUSH2 0x3FF JUMP JUMPDEST PUSH1 0x1 ADD SWAP1 JUMP JUMPDEST PUSH1 0x0 DUP1 SLOAD PUSH1 0x1 ADD SWAP1 SSTORE JUMP JUMPDEST PUSH1 0x1 SWAP1 JUMP JUMPDEST PUSH1 0x40 DUP1 MLOAD DUP1 DUP3 ADD SWAP1 SWAP2 MSTORE PUSH1 0x5 DUP2 MSTORE PUSH32 0x68656C6C6F000000000000000000000000000000000000000000000000000000 PUSH1 0x20 DUP3 ADD MSTORE PUSH1 0x1 SWAP2 JUMP JUMPDEST PUSH1 0x60 SWAP1 JUMP JUMPDEST PUSH32 0x61A6029A4C7DDEE5824D171331EECBD015D26A271310A223718B837FACB5B771 PUSH1 0x40 MLOAD PUSH2 0x84B SWAP1 PUSH2 0x115F JUMP JUMPDEST PUSH1 0x40 MLOAD DUP1 SWAP2 SUB SWAP1 LOG1 JUMP JUMPDEST PUSH2 0x85D PUSH2 0xA1A JUMP JUMPDEST PUSH1 0x40 DUP1 MLOAD PUSH1 0x2 DUP1 DUP3 MSTORE PUSH1 0x60 DUP3 DUP2 ADD SWAP1 SWAP4 MSTORE DUP2 PUSH1 0x20 ADD JUMPDEST PUSH1 0x60 DUP2 MSTORE PUSH1 0x20 ADD SWAP1 PUSH1 0x1 SWAP1 SUB SWAP1 DUP2 PUSH2 0x873 JUMPI SWAP1 POP POP SWAP1 POP PUSH1 0x40 MLOAD DUP1 PUSH1 0x40 ADD PUSH1 0x40 MSTORE DUP1 PUSH1 0x5 DUP2 MSTORE PUSH1 0x20 ADD PUSH32 0x3078313233000000000000000000000000000000000000000000000000000000 DUP2 MSTORE POP DUP2 PUSH1 0x0 DUP2 MLOAD DUP2 LT PUSH2 0x8CD JUMPI INVALID JUMPDEST PUSH1 0x20 MUL PUSH1 0x20 ADD ADD DUP2 SWAP1 MSTORE POP PUSH1 0x40 MLOAD DUP1 PUSH1 0x40 ADD PUSH1 0x40 MSTORE DUP1 PUSH1 0x5 DUP2 MSTORE PUSH1 0x20 ADD PUSH32 0x3078333231000000000000000000000000000000000000000000000000000000 DUP2 MSTORE POP DUP2 PUSH1 0x1 DUP2 MLOAD DUP2 LT PUSH2 0x91B JUMPI INVALID JUMPDEST PUSH1 0x20 SWAP1 DUP2 MUL SWAP2 SWAP1 SWAP2 ADD DUP2 ADD SWAP2 SWAP1 SWAP2 MSTORE PUSH1 0x40 DUP1 MLOAD PUSH1 0xC0 DUP2 ADD DUP3 MSTORE PUSH1 0x5 PUSH1 0x80 DUP3 ADD DUP2 DUP2 MSTORE PUSH32 0x3078313233000000000000000000000000000000000000000000000000000000 PUSH1 0xA0 DUP5 ADD MSTORE DUP3 MSTORE DUP2 DUP5 ADD MSTORE DUP1 DUP3 ADD SWAP4 SWAP1 SWAP4 MSTORE DUP1 MLOAD DUP1 DUP3 ADD SWAP1 SWAP2 MSTORE PUSH1 0x3 DUP2 MSTORE PUSH32 0x6162630000000000000000000000000000000000000000000000000000000000 SWAP2 DUP2 ADD SWAP2 SWAP1 SWAP2 MSTORE PUSH1 0x60 DUP3 ADD MSTORE SWAP1 POP SWAP1 JUMP JUMPDEST PUSH2 0x4D2 SWAP1 JUMP JUMPDEST PUSH1 0x40 MLOAD DUP1 PUSH1 0x20 ADD PUSH1 0x40 MSTORE DUP1 PUSH2 0x9C7 PUSH2 0xA48 JUMP JUMPDEST SWAP1 MSTORE SWAP1 JUMP JUMPDEST PUSH1 0x40 MLOAD DUP1 PUSH1 0x40 ADD PUSH1 0x40 MSTORE DUP1 PUSH2 0x9DF PUSH2 0xA1A JUMP JUMPDEST DUP2 MSTORE PUSH1 0x20 ADD PUSH1 0x60 DUP2 MSTORE POP SWAP1 JUMP JUMPDEST PUSH1 0x40 MLOAD DUP1 PUSH1 0x80 ADD PUSH1 0x40 MSTORE DUP1 PUSH2 0x9FF PUSH2 0xA5B JUMP JUMPDEST DUP2 MSTORE PUSH1 0x20 ADD PUSH1 0x60 DUP2 MSTORE PUSH1 0x20 ADD PUSH1 0x60 DUP2 MSTORE PUSH1 0x20 ADD PUSH1 0x60 DUP2 MSTORE POP SWAP1 JUMP JUMPDEST PUSH1 0x40 MLOAD DUP1 PUSH1 0x80 ADD PUSH1 0x40 MSTORE DUP1 PUSH1 0x60 DUP2 MSTORE PUSH1 0x20 ADD PUSH1 0x0 PUSH4 0xFFFFFFFF AND DUP2 MSTORE PUSH1 0x20 ADD PUSH1 0x60 DUP2 MSTORE PUSH1 0x20 ADD PUSH1 0x60 DUP2 MSTORE POP SWAP1 JUMP JUMPDEST PUSH1 0x40 MLOAD DUP1 PUSH1 0x20 ADD PUSH1 0x40 MSTORE DUP1 PUSH1 0x0 DUP2 MSTORE POP SWAP1 JUMP JUMPDEST PUSH1 0x40 MLOAD DUP1 PUSH1 0x60 ADD PUSH1 0x40 MSTORE DUP1 PUSH1 0x0 DUP2 MSTORE PUSH1 0x20 ADD PUSH1 0x60 DUP2 MSTORE PUSH1 0x20 ADD PUSH1 0x60 DUP2 MSTORE POP SWAP1 JUMP JUMPDEST PUSH1 0x0 DUP3 PUSH1 0x1F DUP4 ADD SLT PUSH2 0xA8C JUMPI DUP1 DUP2 REVERT JUMPDEST DUP2 CALLDATALOAD PUSH8 0xFFFFFFFFFFFFFFFF DUP2 GT ISZERO PUSH2 0xAA2 JUMPI DUP2 DUP3 REVERT JUMPDEST PUSH1 0x20 PUSH2 0xAB1 DUP2 DUP3 DUP5 MUL ADD PUSH2 0x13BC JUMP JUMPDEST DUP3 DUP2 MSTORE SWAP3 POP DUP1 DUP4 ADD DUP5 DUP3 ADD PUSH1 0x0 JUMPDEST DUP5 DUP2 LT ISZERO PUSH2 0xAE8 JUMPI PUSH2 0xAD6 DUP9 DUP6 DUP5 CALLDATALOAD DUP11 ADD ADD PUSH2 0xAF3 JUMP JUMPDEST DUP4 MSTORE SWAP2 DUP4 ADD SWAP2 SWAP1 DUP4 ADD SWAP1 PUSH1 0x1 ADD PUSH2 0xABF JUMP JUMPDEST POP POP POP POP POP SWAP3 SWAP2 POP POP JUMP JUMPDEST PUSH1 0x0 DUP3 PUSH1 0x1F DUP4 ADD SLT PUSH2 0xB03 JUMPI DUP1 DUP2 REVERT JUMPDEST DUP2 CALLDATALOAD PUSH8 0xFFFFFFFFFFFFFFFF DUP2 GT ISZERO PUSH2 0xB19 JUMPI DUP2 DUP3 REVERT JUMPDEST PUSH2 0xB4A PUSH1 0x20 PUSH32 0xFFFFFFFFFFFFFFFFFFFFFFFFFFFFFFFFFFFFFFFFFFFFFFFFFFFFFFFFFFFFFFE0 PUSH1 0x1F DUP5 ADD AND ADD PUSH2 0x13BC JUMP JUMPDEST SWAP2 POP DUP1 DUP3 MSTORE DUP4 PUSH1 0x20 DUP3 DUP6 ADD ADD GT ISZERO PUSH2 0xB61 JUMPI PUSH1 0x0 DUP1 REVERT JUMPDEST DUP1 PUSH1 0x20 DUP5 ADD PUSH1 0x20 DUP5 ADD CALLDATACOPY PUSH1 0x0 SWAP1 DUP3 ADD PUSH1 0x20 ADD MSTORE SWAP3 SWAP2 POP POP JUMP JUMPDEST PUSH1 0x0 PUSH1 0x80 DUP3 DUP5 SUB SLT ISZERO PUSH2 0xB8B JUMPI DUP1 DUP2 REVERT JUMPDEST PUSH2 0xB95 PUSH1 0x80 PUSH2 0x13BC JUMP JUMPDEST SWAP1 POP PUSH1 0x0 DUP3 CALLDATALOAD PUSH8 0xFFFFFFFFFFFFFFFF DUP1 DUP3 GT ISZERO PUSH2 0xBB0 JUMPI DUP3 DUP4 REVERT JUMPDEST PUSH2 0xBBC DUP7 DUP4 DUP8 ADD PUSH2 0xAF3 JUMP JUMPDEST DUP5 MSTORE PUSH1 0x20 DUP6 ADD CALLDATALOAD SWAP2 POP PUSH4 0xFFFFFFFF DUP3 AND DUP3 EQ PUSH2 0xBD6 JUMPI DUP3 DUP4 REVERT JUMPDEST DUP2 PUSH1 0x20 DUP6 ADD MSTORE PUSH1 0x40 DUP6 ADD CALLDATALOAD SWAP2 POP DUP1 DUP3 GT ISZERO PUSH2 0xBEF JUMPI DUP3 DUP4 REVERT JUMPDEST PUSH2 0xBFB DUP7 DUP4 DUP8 ADD PUSH2 0xA7C JUMP JUMPDEST PUSH1 0x40 DUP6 ADD MSTORE PUSH1 0x60 DUP6 ADD CALLDATALOAD SWAP2 POP DUP1 DUP3 GT ISZERO PUSH2 0xC13 JUMPI DUP3 DUP4 REVERT JUMPDEST POP PUSH2 0xC20 DUP6 DUP3 DUP7 ADD PUSH2 0xAF3 JUMP JUMPDEST PUSH1 0x60 DUP5 ADD MSTORE POP POP SWAP3 SWAP2 POP POP JUMP JUMPDEST PUSH1 0x0 DUP1 PUSH1 0x0 DUP1 PUSH1 0x0 PUSH1 0xA0 DUP7 DUP9 SUB SLT ISZERO PUSH2 0xC45 JUMPI PUSH1 0x0 DUP1 REVERT JUMPDEST DUP6 CALLDATALOAD PUSH2 0xC50 DUP2 PUSH2 0x1413 JUMP JUMPDEST SWAP5 POP PUSH1 0x20 DUP7 ADD CALLDATALOAD SWAP4 POP PUSH1 0x40 DUP7 ADD CALLDATALOAD SWAP3 POP PUSH1 0x60 DUP7 ADD CALLDATALOAD PUSH2 0xC6E DUP2 PUSH2 0x1413 JUMP JUMPDEST SWAP5 SWAP8 SWAP4 SWAP7 POP SWAP2 SWAP5 PUSH1 0x80 ADD CALLDATALOAD SWAP3 SWAP2 POP POP JUMP JUMPDEST PUSH1 0x0 PUSH1 0x20 DUP3 DUP5 SUB SLT ISZERO PUSH2 0xC91 JUMPI PUSH1 0x0 DUP1 REVERT JUMPDEST DUP2 CALLDATALOAD PUSH8 0xFFFFFFFFFFFFFFFF DUP2 GT ISZERO PUSH2 0xCA8 JUMPI PUSH1 0x0 DUP1 REVERT JUMPDEST PUSH2 0xCB4 DUP5 DUP3 DUP6 ADD PUSH2 0xA7C JUMP JUMPDEST SWAP5 SWAP4 POP POP POP POP JUMP JUMPDEST PUSH1 0x0 DUP1 PUSH1 0x0 DUP1 PUSH1 0x80 DUP6 DUP8 SUB SLT ISZERO PUSH2 0xCD2 JUMPI PUSH1 0x0 DUP1 REVERT JUMPDEST DUP5 CALLDATALOAD SWAP4 POP PUSH1 0x20 DUP6 ADD CALLDATALOAD PUSH1 0xFF DUP2 AND DUP2 EQ PUSH2 0xCEA JUMPI PUSH1 0x0 DUP1 REVERT JUMPDEST SWAP4 SWAP7 SWAP4 SWAP6 POP POP POP POP PUSH1 0x40 DUP3 ADD CALLDATALOAD SWAP2 PUSH1 0x60 ADD CALLDATALOAD SWAP1 JUMP JUMPDEST PUSH1 0x0 PUSH1 0x20 DUP3 DUP5 SUB SLT ISZERO PUSH2 0xD11 JUMPI PUSH1 0x0 DUP1 REVERT JUMPDEST DUP2 CALLDATALOAD PUSH8 0xFFFFFFFFFFFFFFFF DUP2 GT ISZERO PUSH2 0xD28 JUMPI PUSH1 0x0 DUP1 REVERT JUMPDEST PUSH2 0xCB4 DUP5 DUP3 DUP6 ADD PUSH2 0xAF3 JUMP JUMPDEST PUSH1 0x0 PUSH1 0x20 DUP3 DUP5 SUB SLT ISZERO PUSH2 0xD46 JUMPI PUSH1 0x0 DUP1 REVERT JUMPDEST POP CALLDATALOAD SWAP2 SWAP1 POP JUMP JUMPDEST PUSH1 0x0 PUSH1 0x20 DUP3 DUP5 SUB SLT ISZERO PUSH2 0xD5E JUMPI DUP1 DUP2 REVERT JUMPDEST DUP2 CALLDATALOAD PUSH8 0xFFFFFFFFFFFFFFFF DUP1 DUP3 GT ISZERO PUSH2 0xD75 JUMPI DUP3 DUP4 REVERT JUMPDEST DUP2 DUP5 ADD PUSH1 0x60 DUP2 DUP8 SUB SLT ISZERO PUSH2 0xD87 JUMPI DUP4 DUP5 REVERT JUMPDEST PUSH2 0xD91 PUSH1 0x60 PUSH2 0x13BC JUMP JUMPDEST SWAP3 POP DUP1 CALLDATALOAD DUP4 MSTORE PUSH1 0x20 DUP2 ADD CALLDATALOAD DUP3 DUP2 GT ISZERO PUSH2 0xDA8 JUMPI DUP5 DUP6 REVERT JUMPDEST PUSH2 0xDB4 DUP8 DUP3 DUP5 ADD PUSH2 0xAF3 JUMP JUMPDEST PUSH1 0x20 DUP6 ADD MSTORE POP PUSH1 0x40 DUP2 ADD CALLDATALOAD DUP3 DUP2 GT ISZERO PUSH2 0xDCB JUMPI DUP5 DUP6 REVERT JUMPDEST PUSH2 0xDD7 DUP8 DUP3 DUP5 ADD PUSH2 0xAF3 JUMP JUMPDEST PUSH1 0x40 DUP6 ADD MSTORE POP SWAP2 SWAP6 SWAP5 POP POP POP POP POP JUMP JUMPDEST PUSH1 0x0 PUSH1 0x20 DUP3 DUP5 SUB SLT ISZERO PUSH2 0xDF8 JUMPI DUP1 DUP2 REVERT JUMPDEST DUP2 CALLDATALOAD PUSH8 0xFFFFFFFFFFFFFFFF DUP1 DUP3 GT ISZERO PUSH2 0xE0F JUMPI DUP3 DUP4 REVERT JUMPDEST DUP2 DUP5 ADD PUSH1 0x40 DUP2 DUP8 SUB SLT ISZERO PUSH2 0xE21 JUMPI DUP4 DUP5 REVERT JUMPDEST PUSH2 0xE2B PUSH1 0x40 PUSH2 0x13BC JUMP JUMPDEST SWAP3 POP DUP1 CALLDATALOAD DUP3 DUP2 GT ISZERO PUSH2 0xE3B JUMPI DUP5 DUP6 REVERT JUMPDEST PUSH2 0xE47 DUP8 DUP3 DUP5 ADD PUSH2 0xB7A JUMP JUMPDEST DUP5 MSTORE POP PUSH1 0x20 DUP2 ADD CALLDATALOAD DUP3 DUP2 GT ISZERO PUSH2 0xE5B JUMPI DUP5 DUP6 REVERT JUMPDEST PUSH2 0xE67 DUP8 DUP3 DUP5 ADD PUSH2 0xAF3 JUMP JUMPDEST PUSH1 0x20 DUP6 ADD MSTORE POP SWAP2 SWAP6 SWAP5 POP POP POP POP POP JUMP JUMPDEST PUSH1 0x0 PUSH1 0x20 DUP3 DUP5 SUB SLT ISZERO PUSH2 0xE89 JUMPI PUSH1 0x0 DUP1 REVERT JUMPDEST DUP2 CALLDATALOAD PUSH8 0xFFFFFFFFFFFFFFFF DUP2 GT ISZERO PUSH2 0xEA0 JUMPI PUSH1 0x0 DUP1 REVERT JUMPDEST PUSH2 0xCB4 DUP5 DUP3 DUP6 ADD PUSH2 0xB7A JUMP JUMPDEST PUSH1 0x0 DUP1 PUSH1 0x0 PUSH1 0x60 DUP5 DUP7 SUB SLT ISZERO PUSH2 0xEC0 JUMPI DUP1 DUP2 REVERT JUMPDEST DUP4 CALLDATALOAD SWAP3 POP PUSH1 0x20 DUP5 ADD CALLDATALOAD PUSH8 0xFFFFFFFFFFFFFFFF DUP1 DUP3 GT ISZERO PUSH2 0xEDE JUMPI DUP3 DUP4 REVERT JUMPDEST PUSH2 0xEEA DUP8 DUP4 DUP9 ADD PUSH2 0xAF3 JUMP JUMPDEST SWAP4 POP PUSH1 0x40 DUP7 ADD CALLDATALOAD SWAP2 POP DUP1 DUP3 GT ISZERO PUSH2 0xEFF JUMPI DUP3 DUP4 REVERT JUMPDEST POP PUSH2 0xF0C DUP7 DUP3 DUP8 ADD PUSH2 0xAF3 JUMP JUMPDEST SWAP2 POP POP SWAP3 POP SWAP3 POP SWAP3 JUMP JUMPDEST PUSH1 0x0 DUP2 MLOAD DUP1 DUP5 MSTORE PUSH2 0xF2E DUP2 PUSH1 0x20 DUP7 ADD PUSH1 0x20 DUP7 ADD PUSH2 0x13E3 JUMP JUMPDEST PUSH1 0x1F ADD PUSH32 0xFFFFFFFFFFFFFFFFFFFFFFFFFFFFFFFFFFFFFFFFFFFFFFFFFFFFFFFFFFFFFFE0 AND SWAP3 SWAP1 SWAP3 ADD PUSH1 0x20 ADD SWAP3 SWAP2 POP POP JUMP JUMPDEST PUSH1 0x0 DUP2 MLOAD PUSH1 0x80 DUP5 MSTORE PUSH2 0xF75 PUSH1 0x80 DUP6 ADD DUP3 PUSH2 0xF16 JUMP JUMPDEST PUSH1 0x20 SWAP2 POP PUSH4 0xFFFFFFFF DUP3 DUP6 ADD MLOAD AND DUP3 DUP7 ADD MSTORE PUSH1 0x40 DUP5 ADD MLOAD DUP6 DUP3 SUB PUSH1 0x40 DUP8 ADD MSTORE DUP2 DUP2 MLOAD DUP1 DUP5 MSTORE DUP5 DUP5 ADD SWAP2 POP DUP5 DUP6 DUP3 MUL DUP6 ADD ADD DUP6 DUP5 ADD PUSH1 0x0 SWAP5 POP JUMPDEST DUP3 DUP6 LT ISZERO PUSH2 0xFFC JUMPI PUSH32 0xFFFFFFFFFFFFFFFFFFFFFFFFFFFFFFFFFFFFFFFFFFFFFFFFFFFFFFFFFFFFFFE0 DUP7 DUP4 SUB ADD DUP5 MSTORE PUSH2 0xFE8 DUP3 DUP3 MLOAD PUSH2 0xF16 JUMP JUMPDEST PUSH1 0x1 SWAP6 SWAP1 SWAP6 ADD SWAP5 SWAP4 DUP8 ADD SWAP4 SWAP2 POP DUP7 ADD PUSH2 0xFAE JUMP JUMPDEST POP PUSH1 0x60 DUP9 ADD MLOAD SWAP6 POP DUP9 DUP2 SUB PUSH1 0x60 DUP11 ADD MSTORE PUSH2 0x1016 DUP2 DUP8 PUSH2 0xF16 JUMP JUMPDEST SWAP10 SWAP9 POP POP POP POP POP POP POP POP POP JUMP JUMPDEST PUSH1 0x0 DUP4 MLOAD PUSH2 0x1035 DUP2 DUP5 PUSH1 0x20 DUP9 ADD PUSH2 0x13E3 JUMP JUMPDEST SWAP2 SWAP1 SWAP2 ADD SWAP2 DUP3 MSTORE POP PUSH1 0x20 ADD SWAP2 SWAP1 POP JUMP JUMPDEST PUSH20 0xFFFFFFFFFFFFFFFFFFFFFFFFFFFFFFFFFFFFFFFF SWAP2 SWAP1 SWAP2 AND DUP2 MSTORE PUSH1 0x20 ADD SWAP1 JUMP JUMPDEST PUSH1 0x0 PUSH1 0x20 DUP1 DUP4 ADD DUP2 DUP5 MSTORE DUP1 DUP6 MLOAD DUP1 DUP4 MSTORE PUSH1 0x40 DUP7 ADD SWAP2 POP PUSH1 0x40 DUP5 DUP3 MUL DUP8 ADD ADD SWAP3 POP DUP4 DUP8 ADD PUSH1 0x0 JUMPDEST DUP3 DUP2 LT ISZERO PUSH2 0x10D8 JUMPI PUSH32 0xFFFFFFFFFFFFFFFFFFFFFFFFFFFFFFFFFFFFFFFFFFFFFFFFFFFFFFFFFFFFFFC0 DUP9 DUP7 SUB ADD DUP5 MSTORE PUSH2 0x10C6 DUP6 DUP4 MLOAD PUSH2 0xF60 JUMP JUMPDEST SWAP5 POP SWAP3 DUP6 ADD SWAP3 SWAP1 DUP6 ADD SWAP1 PUSH1 0x1 ADD PUSH2 0x108C JUMP JUMPDEST POP SWAP3 SWAP8 SWAP7 POP POP POP POP POP POP POP JUMP JUMPDEST SWAP4 DUP5 MSTORE PUSH1 0xFF SWAP3 SWAP1 SWAP3 AND PUSH1 0x20 DUP5 ADD MSTORE PUSH1 0x40 DUP4 ADD MSTORE PUSH1 0x60 DUP3 ADD MSTORE PUSH1 0x80 ADD SWAP1 JUMP JUMPDEST PUSH1 0x0 PUSH1 0x60 DUP3 MSTORE PUSH2 0x1116 PUSH1 0x60 DUP4 ADD DUP7 PUSH2 0xF16 JUMP JUMPDEST DUP3 DUP2 SUB PUSH1 0x20 DUP5 ADD MSTORE PUSH2 0x1128 DUP2 DUP7 PUSH2 0xF16 JUMP JUMPDEST DUP4 DUP2 SUB PUSH1 0x40 DUP6 ADD MSTORE PUSH2 0x113A DUP2 DUP7 PUSH2 0xF16 JUMP JUMPDEST SWAP8 SWAP7 POP POP POP POP POP POP POP JUMP JUMPDEST PUSH1 0x0 PUSH1 0x20 DUP3 MSTORE PUSH2 0x1158 PUSH1 0x20 DUP4 ADD DUP5 PUSH2 0xF16 JUMP JUMPDEST SWAP4 SWAP3 POP POP POP JUMP JUMPDEST PUSH1 0x40 DUP1 DUP3 MSTORE PUSH1 0x4 SWAP1 DUP3 ADD MSTORE PUSH32 0x1234567800000000000000000000000000000000000000000000000000000000 PUSH1 0x60 DUP3 ADD MSTORE PUSH1 0x80 PUSH1 0x20 DUP3 ADD DUP2 SWAP1 MSTORE PUSH1 0x5 SWAP1 DUP3 ADD MSTORE PUSH32 0x6C6F72656D000000000000000000000000000000000000000000000000000000 PUSH1 0xA0 DUP3 ADD MSTORE PUSH1 0xC0 ADD SWAP1 JUMP JUMPDEST PUSH1 0x20 DUP1 DUP3 MSTORE PUSH1 0xD SWAP1 DUP3 ADD MSTORE PUSH32 0x53494D504C455F52455645525400000000000000000000000000000000000000 PUSH1 0x40 DUP3 ADD MSTORE PUSH1 0x60 ADD SWAP1 JUMP JUMPDEST PUSH1 0x20 DUP1 DUP3 MSTORE PUSH1 0xE SWAP1 DUP3 ADD MSTORE PUSH32 0x53494D504C455F52455155495245000000000000000000000000000000000000 PUSH1 0x40 DUP3 ADD MSTORE PUSH1 0x60 ADD SWAP1 JUMP JUMPDEST PUSH1 0x0 PUSH1 0x20 DUP3 MSTORE DUP3 MLOAD PUSH1 0x80 PUSH1 0x20 DUP5 ADD MSTORE DUP1 MLOAD PUSH1 0xA0 DUP5 ADD MSTORE PUSH1 0x20 DUP2 ADD MLOAD PUSH1 0x60 PUSH1 0xC0 DUP6 ADD MSTORE PUSH2 0x1269 PUSH2 0x100 DUP6 ADD DUP3 PUSH2 0xF16 JUMP JUMPDEST PUSH1 0x40 DUP4 ADD MLOAD SWAP2 POP PUSH32 0xFFFFFFFFFFFFFFFFFFFFFFFFFFFFFFFFFFFFFFFFFFFFFFFFFFFFFFFFFFFFFF60 DUP6 DUP3 SUB ADD PUSH1 0xE0 DUP7 ADD MSTORE PUSH2 0x12A4 DUP2 DUP4 PUSH2 0xF16 JUMP JUMPDEST SWAP3 POP POP POP PUSH1 0x20 DUP5 ADD MLOAD PUSH32 0xFFFFFFFFFFFFFFFFFFFFFFFFFFFFFFFFFFFFFFFFFFFFFFFFFFFFFFFFFFFFFFE0 DUP1 DUP6 DUP5 SUB ADD PUSH1 0x40 DUP7 ADD MSTORE PUSH2 0x12E2 DUP4 DUP4 PUSH2 0xF16 JUMP JUMPDEST PUSH1 0x40 DUP8 ADD MLOAD SWAP4 POP DUP2 DUP7 DUP3 SUB ADD PUSH1 0x60 DUP8 ADD MSTORE PUSH2 0x12FD DUP2 DUP6 PUSH2 0xF16 JUMP JUMPDEST SWAP3 POP POP PUSH1 0x60 DUP7 ADD MLOAD SWAP3 POP DUP1 DUP6 DUP4 SUB ADD PUSH1 0x80 DUP7 ADD MSTORE POP PUSH2 0x131C DUP2 DUP4 PUSH2 0xF16 JUMP JUMPDEST SWAP6 SWAP5 POP POP POP POP POP JUMP JUMPDEST SWAP1 MLOAD MLOAD DUP2 MSTORE PUSH1 0x20 ADD SWAP1 JUMP JUMPDEST PUSH1 0x0 PUSH1 0x20 DUP3 MSTORE DUP3 MLOAD PUSH1 0x40 PUSH1 0x20 DUP5 ADD MSTORE PUSH2 0x134C PUSH1 0x60 DUP5 ADD DUP3 PUSH2 0xF60 JUMP JUMPDEST PUSH1 0x20 DUP6 ADD MLOAD SWAP2 POP PUSH32 0xFFFFFFFFFFFFFFFFFFFFFFFFFFFFFFFFFFFFFFFFFFFFFFFFFFFFFFFFFFFFFFE0 DUP5 DUP3 SUB ADD PUSH1 0x40 DUP6 ADD MSTORE PUSH2 0x131C DUP2 DUP4 PUSH2 0xF16 JUMP JUMPDEST PUSH1 0x0 PUSH1 0x20 DUP3 MSTORE PUSH2 0x1158 PUSH1 0x20 DUP4 ADD DUP5 PUSH2 0xF60 JUMP JUMPDEST SWAP1 DUP2 MSTORE PUSH1 0x20 ADD SWAP1 JUMP JUMPDEST PUSH1 0x0 DUP4 DUP3 MSTORE PUSH1 0x40 PUSH1 0x20 DUP4 ADD MSTORE PUSH2 0xCB4 PUSH1 0x40 DUP4 ADD DUP5 PUSH2 0xF16 JUMP JUMPDEST PUSH1 0x40 MLOAD DUP2 DUP2 ADD PUSH8 0xFFFFFFFFFFFFFFFF DUP2 GT DUP3 DUP3 LT OR ISZERO PUSH2 0x13DB JUMPI PUSH1 0x0 DUP1 REVERT JUMPDEST PUSH1 0x40 MSTORE SWAP2 SWAP1 POP JUMP JUMPDEST PUSH1 0x0 JUMPDEST DUP4 DUP2 LT ISZERO PUSH2 0x13FE JUMPI DUP2 DUP2 ADD MLOAD DUP4 DUP3 ADD MSTORE PUSH1 0x20 ADD PUSH2 0x13E6 JUMP JUMPDEST DUP4 DUP2 GT ISZERO PUSH2 0x140D JUMPI PUSH1 0x0 DUP5 DUP5 ADD MSTORE JUMPDEST POP POP POP POP JUMP JUMPDEST PUSH20 0xFFFFFFFFFFFFFFFFFFFFFFFFFFFFFFFFFFFFFFFF DUP2 AND DUP2 EQ PUSH2 0x401 JUMPI PUSH1 0x0 DUP1 REVERT INVALID LOG3 PUSH6 0x627A7A723158 KECCAK256 PUSH32 0x854B76FC684DE0BE1F1A5DB2D486BC187FF28D1E99D27CA0F61B452A1942F6C PUSH6 0x78706572696D PUSH6 0x6E74616CF564 PUSH20 0x6F6C634300050B00400000000000000000000000 "
			}
		}
	},
	"sourceTreeHashHex": "0x99694ecb2e7ed146b4d0030335f82b2190ee0f4b2639514f3aebdd99ae2decf0",
	"compiler": {
		"name": "solc",
		"version": "soljson-v0.5.11+commit.c082d0b4.js",
		"settings": {
			"optimizer": {
				"enabled": true,
				"runs": 1000000,
				"details": {
					"yul": true,
					"deduplicate": true,
					"cse": true,
					"constantOptimizer": true
				}
			},
			"outputSelection": {
				"*": {
					"*": [
						"abi",
						"evm.bytecode.object",
						"evm.bytecode.sourceMap",
						"evm.deployedBytecode.object",
						"evm.deployedBytecode.sourceMap",
						"devdoc"
					]
				}
			},
			"evmVersion": "constantinople",
			"remappings": []
		}
	}
}