{
	"schemaVersion": "2.0.0",
	"contractName": "AbiGenDummy",
	"compilerOutput": {
		"abi": [
			{
				"constant": true,
				"inputs": [],
				"name": "simpleRequire",
				"outputs": [],
				"payable": false,
				"stateMutability": "pure",
				"type": "function"
			},
			{
				"constant": true,
				"inputs": [
					{
						"name": "a",
						"type": "bytes[]"
					}
				],
				"name": "acceptsAnArrayOfBytes",
				"outputs": [],
				"payable": false,
				"stateMutability": "pure",
				"type": "function"
			},
			{
				"constant": false,
				"inputs": [
					{
						"name": "wad",
						"type": "uint256"
					}
				],
				"name": "withdraw",
				"outputs": [],
				"payable": false,
				"stateMutability": "nonpayable",
				"type": "function"
			},
			{
				"constant": true,
				"inputs": [
					{
						"name": "hash",
						"type": "bytes32"
					},
					{
						"name": "v",
						"type": "uint8"
					},
					{
						"name": "r",
						"type": "bytes32"
					},
					{
						"name": "s",
						"type": "bytes32"
					}
				],
				"name": "ecrecoverFn",
				"outputs": [
					{
						"name": "signerAddress",
						"type": "address"
					}
				],
				"payable": false,
				"stateMutability": "pure",
				"type": "function"
			},
			{
				"constant": true,
				"inputs": [
					{
						"name": "a",
						"type": "bytes"
					}
				],
				"name": "acceptsBytes",
				"outputs": [],
				"payable": false,
				"stateMutability": "pure",
				"type": "function"
			},
			{
				"constant": true,
				"inputs": [],
				"name": "revertWithConstant",
				"outputs": [],
				"payable": false,
				"stateMutability": "pure",
				"type": "function"
			},
			{
				"constant": true,
				"inputs": [],
				"name": "simpleRevert",
				"outputs": [],
				"payable": false,
				"stateMutability": "pure",
				"type": "function"
			},
			{
				"constant": true,
				"inputs": [],
				"name": "methodUsingNestedStructWithInnerStructNotUsedElsewhere",
				"outputs": [
					{
						"components": [
							{
								"components": [
									{
										"name": "aField",
										"type": "uint256"
									}
								],
								"name": "innerStruct",
								"type": "tuple"
							}
						],
						"name": "",
						"type": "tuple"
					}
				],
				"payable": false,
				"stateMutability": "pure",
				"type": "function"
			},
			{
				"constant": true,
				"inputs": [],
				"name": "nestedStructOutput",
				"outputs": [
					{
						"components": [
							{
								"components": [
									{
										"name": "someBytes",
										"type": "bytes"
									},
									{
										"name": "anInteger",
										"type": "uint32"
									},
									{
										"name": "aDynamicArrayOfBytes",
										"type": "bytes[]"
									},
									{
										"name": "aString",
										"type": "string"
									}
								],
								"name": "innerStruct",
								"type": "tuple"
							},
							{
								"name": "description",
								"type": "string"
							}
						],
						"name": "",
						"type": "tuple"
					}
				],
				"payable": false,
				"stateMutability": "pure",
				"type": "function"
			},
			{
				"constant": true,
				"inputs": [],
				"name": "requireWithConstant",
				"outputs": [],
				"payable": false,
				"stateMutability": "pure",
				"type": "function"
			},
			{
				"constant": true,
				"inputs": [
					{
						"name": "x",
						"type": "address"
					},
					{
						"name": "a",
						"type": "uint256"
					},
					{
						"name": "b",
						"type": "uint256"
					},
					{
						"name": "y",
						"type": "address"
					},
					{
						"name": "c",
						"type": "uint256"
					}
				],
				"name": "withAddressInput",
				"outputs": [
					{
						"name": "z",
						"type": "address"
					}
				],
				"payable": false,
				"stateMutability": "pure",
				"type": "function"
			},
			{
				"constant": true,
				"inputs": [
					{
						"components": [
							{
								"name": "someBytes",
								"type": "bytes"
							},
							{
								"name": "anInteger",
								"type": "uint32"
							},
							{
								"name": "aDynamicArrayOfBytes",
								"type": "bytes[]"
							},
							{
								"name": "aString",
								"type": "string"
							}
						],
						"name": "s",
						"type": "tuple"
					}
				],
				"name": "structInput",
				"outputs": [],
				"payable": false,
				"stateMutability": "pure",
				"type": "function"
			},
			{
				"constant": false,
				"inputs": [],
				"name": "nonPureMethod",
				"outputs": [
					{
						"name": "",
						"type": "uint256"
					}
				],
				"payable": false,
				"stateMutability": "nonpayable",
				"type": "function"
			},
			{
				"constant": true,
				"inputs": [
					{
						"name": "x",
						"type": "uint256"
					}
				],
				"name": "simplePureFunctionWithInput",
				"outputs": [
					{
						"name": "sum",
						"type": "uint256"
					}
				],
				"payable": false,
				"stateMutability": "pure",
				"type": "function"
			},
			{
				"constant": false,
				"inputs": [],
				"name": "nonPureMethodThatReturnsNothing",
				"outputs": [],
				"payable": false,
				"stateMutability": "nonpayable",
				"type": "function"
			},
			{
				"constant": true,
				"inputs": [],
				"name": "simplePureFunction",
				"outputs": [
					{
						"name": "result",
						"type": "uint256"
					}
				],
				"payable": false,
				"stateMutability": "pure",
				"type": "function"
			},
			{
				"constant": true,
				"inputs": [
					{
						"components": [
							{
								"components": [
									{
										"name": "someBytes",
										"type": "bytes"
									},
									{
										"name": "anInteger",
										"type": "uint32"
									},
									{
										"name": "aDynamicArrayOfBytes",
										"type": "bytes[]"
									},
									{
										"name": "aString",
										"type": "string"
									}
								],
								"name": "innerStruct",
								"type": "tuple"
							},
							{
								"name": "description",
								"type": "string"
							}
						],
						"name": "n",
						"type": "tuple"
					}
				],
				"name": "nestedStructInput",
				"outputs": [],
				"payable": false,
				"stateMutability": "pure",
				"type": "function"
			},
			{
				"constant": true,
				"inputs": [],
				"name": "methodReturningMultipleValues",
				"outputs": [
					{
						"name": "",
						"type": "uint256"
					},
					{
						"name": "",
						"type": "string"
					}
				],
				"payable": false,
				"stateMutability": "pure",
				"type": "function"
			},
			{
				"constant": true,
				"inputs": [],
				"name": "methodReturningArrayOfStructs",
				"outputs": [
					{
						"components": [
							{
								"name": "someBytes",
								"type": "bytes"
							},
							{
								"name": "anInteger",
								"type": "uint32"
							},
							{
								"name": "aDynamicArrayOfBytes",
								"type": "bytes[]"
							},
							{
								"name": "aString",
								"type": "string"
							}
						],
						"name": "",
						"type": "tuple[]"
					}
				],
				"payable": false,
				"stateMutability": "pure",
				"type": "function"
			},
			{
				"constant": true,
				"inputs": [],
				"name": "structOutput",
				"outputs": [
					{
						"components": [
							{
								"name": "someBytes",
								"type": "bytes"
							},
							{
								"name": "anInteger",
								"type": "uint32"
							},
							{
								"name": "aDynamicArrayOfBytes",
								"type": "bytes[]"
							},
							{
								"name": "aString",
								"type": "string"
							}
						],
						"name": "s",
						"type": "tuple"
					}
				],
				"payable": false,
				"stateMutability": "pure",
				"type": "function"
			},
			{
				"constant": true,
				"inputs": [],
				"name": "pureFunctionWithConstant",
				"outputs": [
					{
						"name": "someConstant",
						"type": "uint256"
					}
				],
				"payable": false,
				"stateMutability": "pure",
				"type": "function"
			},
			{
				"constant": true,
				"inputs": [
					{
						"name": "a",
						"type": "string"
					}
				],
				"name": "overloadedMethod",
				"outputs": [],
				"payable": false,
				"stateMutability": "pure",
				"type": "function"
			},
			{
				"constant": true,
				"inputs": [
					{
						"name": "a",
						"type": "int256"
					}
				],
				"name": "overloadedMethod",
				"outputs": [],
				"payable": false,
				"stateMutability": "pure",
				"type": "function"
			},
			{
				"anonymous": false,
				"inputs": [
					{
						"indexed": true,
						"name": "_owner",
						"type": "address"
					},
					{
						"indexed": false,
						"name": "_value",
						"type": "uint256"
					}
				],
				"name": "Withdrawal",
				"type": "event"
			},
			{
				"anonymous": false,
				"inputs": [
					{
						"indexed": false,
						"name": "param",
						"type": "uint8"
					}
				],
				"name": "AnEvent",
				"type": "event"
			}
		],
		"devdoc": {
			"methods": {
				"acceptsAnArrayOfBytes(bytes[])": {
					"details": "a method that accepts an array of bytes",
					"params": {
						"a": "the array of bytes being accepted"
					}
				},
				"structOutput()": {
					"details": "a method that returns a struct",
					"return": "a Struct struct"
				}
			}
		},
		"evm": {
			"bytecode": {
				"linkReferences": {},
				"object": "0x608060405234801561001057600080fd5b50610dd0806100206000396000f3fe608060405234801561001057600080fd5b506004361061018c5760003560e01c8063647341eb116100e3578063bb6073621161008c578063d88be12f11610066578063d88be12f146102e1578063f408fb31146101ea578063fa315f9d146102e95761018c565b8063bb607362146102a1578063bdab1688146102b7578063d6d7618c146102cc5761018c565b80639a3b6185116100bd5780639a3b618514610283578063a3c2f6b61461028b578063ae2dae17146102935761018c565b8063647341eb1461024d57806376f15d5b1461025b5780638ee52b4e146102705761018c565b80634582eab21161014557806359c28add1161011f57806359c28add1461021d5780635ba3c7c01461023257806363d69c881461023a5761018c565b80634582eab2146101f857806345fdbdb714610200578063586f84b2146102085761018c565b80632e1a7d4d116101765780632e1a7d4d146101ae57806336b32396146101c15780633e9ef66a146101ea5761018c565b806209e437146101915780630527c28f1461019b575b600080fd5b6101996102f7565b005b6101996101a936600461086c565b610332565b6101996101bc366004610921565b610335565b6101d46101cf3660046108a9565b610386565b6040516101e19190610b2e565b60405180910390f35b6101996101a93660046108ec565b610199610468565b6101996104cd565b6102106104ff565b6040516101e19190610c74565b61022561050a565b6040516101e19190610c7f565b610199610512565b6101d461024836600461081a565b610577565b6101996101a93660046109ca565b610263610580565b6040516101e19190610cf2565b61026361027e366004610921565b61058e565b610199610594565b61026361059f565b6101996101a936600461093a565b6102a96105a4565b6040516101e1929190610cfb565b6102bf6105dd565b6040516101e19190610b4f565b6102d46105e2565b6040516101e19190610cdf565b6102636105ea565b6101996101a9366004610921565b6040517f08c379a000000000000000000000000000000000000000000000000000000000815260040161032990610c3d565b60405180910390fd5b50565b3373ffffffffffffffffffffffffffffffffffffffff167f7fcf532c15f0a6db0bd6d0e038bea71d30d808c7d98cb3bf7268a95bf5081b658260405161037b9190610cf2565b60405180910390a250565b600060606040518060400160405280601c81526020017f19457468657265756d205369676e6564204d6573736167653a0a3332000000008152509050600081876040516020016103d7929190610b0c565b604051602081830303815290604052805190602001209050600181878787604051600081526020016040526040516104129493929190610bce565b6020604051602081039080840390855afa158015610434573d6000803e3d6000fd5b50506040517fffffffffffffffffffffffffffffffffffffffffffffffffffffffffffffffe0015198975050505050505050565b604080518082018252601481527f5245564552545f574954485f434f4e5354414e54000000000000000000000000602082015290517f08c379a00000000000000000000000000000000000000000000000000000000081526103299190600401610bec565b6040517f08c379a000000000000000000000000000000000000000000000000000000000815260040161032990610c06565b6105076105f0565b90565b610507610608565b604080518082018252601581527f524551554952455f574954485f434f4e5354414e540000000000000000000000602082015290517f08c379a00000000000000000000000000000000000000000000000000000000081526103299190600401610bec565b50929392505050565b600080546001019081905590565b60010190565b600080546001019055565b600190565b60408051808201909152600581527f68656c6c6f0000000000000000000000000000000000000000000000000000006020820152600191565b606090565b610507610628565b6104d290565b6040518060200160405280610603610656565b905290565b6040518060a0016040528061061b610628565b8152602001606081525090565b604051806080016040528060608152602001600063ffffffff16815260200160608152602001606081525090565b6040518060200160405280600081525090565b600082601f830112610679578081fd5b813567ffffffffffffffff81111561068f578182fd5b602061069e8182840201610d14565b828152925080830184820160005b848110156106d5576106c3888584358a01016106e0565b835291830191908301906001016106ac565b505050505092915050565b600082601f8301126106f0578081fd5b813567ffffffffffffffff811115610706578182fd5b61073760207fffffffffffffffffffffffffffffffffffffffffffffffffffffffffffffffe0601f84011601610d14565b915080825283602082850101111561074e57600080fd5b8060208401602084013760009082016020015292915050565b600060808284031215610778578081fd5b6107826080610d14565b90506000823567ffffffffffffffff8082111561079d578283fd5b6107a9868387016106e0565b84526020850135915063ffffffff821682146107c3578283fd5b81602085015260408501359150808211156107dc578283fd5b6107e886838701610669565b60408501526060850135915080821115610800578283fd5b5061080d858286016106e0565b6060840152505092915050565b600080600080600060a0868803121561083257600080fd5b853561083d81610d6b565b94506020860135935060408601359250606086013561085b81610d6b565b949793965091946080013592915050565b60006020828403121561087e57600080fd5b813567ffffffffffffffff81111561089557600080fd5b6108a184828501610669565b949350505050565b600080600080608085870312156108bf57600080fd5b84359350602085013560ff811681146108d757600080fd5b93969395505050506040820135916060013590565b6000602082840312156108fe57600080fd5b813567ffffffffffffffff81111561091557600080fd5b6108a1848285016106e0565b60006020828403121561093357600080fd5b5035919050565b60006020828403121561094b578081fd5b813567ffffffffffffffff80821115610962578283fd5b81840160408187031215610974578384fd5b61097e6040610d14565b925080358281111561098e578485fd5b61099a87828401610767565b8452506020810135828111156109ae578485fd5b6109ba878284016106e0565b6020850152509195945050505050565b6000602082840312156109dc57600080fd5b813567ffffffffffffffff8111156109f357600080fd5b6108a184828501610767565b60008151808452610a17816020860160208601610d3b565b601f017fffffffffffffffffffffffffffffffffffffffffffffffffffffffffffffffe0169290920160200192915050565b6000815160808452610a5e60808501826109ff565b6020915063ffffffff82850151168286015260408401518582036040870152818151808452848401915084858202850101858401600094505b82851015610ae5577fffffffffffffffffffffffffffffffffffffffffffffffffffffffffffffffe0868303018452610ad18282516109ff565b600195909501949387019391508601610a97565b506060880151955088810360608a0152610aff81876109ff565b9998505050505050505050565b60008351610b1e818460208801610d3b565b9190910191825250602001919050565b73ffffffffffffffffffffffffffffffffffffffff91909116815260200190565b600060208083018184528085518083526040860191506040848202870101925083870160005b82811015610bc1577fffffffffffffffffffffffffffffffffffffffffffffffffffffffffffffffc0888603018452610baf858351610a49565b94509285019290850190600101610b75565b5092979650505050505050565b93845260ff9290921660208401526040830152606082015260800190565b600060208252610bff60208301846109ff565b9392505050565b6020808252600d908201527f53494d504c455f52455645525400000000000000000000000000000000000000604082015260600190565b6020808252600e908201527f53494d504c455f52455155495245000000000000000000000000000000000000604082015260600190565b905151815260200190565b600060208252825160406020840152610c9b6060840182610a49565b602085015191507fffffffffffffffffffffffffffffffffffffffffffffffffffffffffffffffe0848203016040850152610cd681836109ff565b95945050505050565b600060208252610bff6020830184610a49565b90815260200190565b6000838252604060208301526108a160408301846109ff565b60405181810167ffffffffffffffff81118282101715610d3357600080fd5b604052919050565b60005b83811015610d56578181015183820152602001610d3e565b83811115610d65576000848401525b50505050565b73ffffffffffffffffffffffffffffffffffffffff8116811461033257600080fdfea365627a7a723058209a86c3f76b3368512df6a6b97a752af0852ea5387a4bc56f374513961ac97aef6c6578706572696d656e74616cf564736f6c634300050a0040",
				"opcodes": "PUSH1 0x80 PUSH1 0x40 MSTORE CALLVALUE DUP1 ISZERO PUSH2 0x10 JUMPI PUSH1 0x0 DUP1 REVERT JUMPDEST POP PUSH2 0xDD0 DUP1 PUSH2 0x20 PUSH1 0x0 CODECOPY PUSH1 0x0 RETURN INVALID PUSH1 0x80 PUSH1 0x40 MSTORE CALLVALUE DUP1 ISZERO PUSH2 0x10 JUMPI PUSH1 0x0 DUP1 REVERT JUMPDEST POP PUSH1 0x4 CALLDATASIZE LT PUSH2 0x18C JUMPI PUSH1 0x0 CALLDATALOAD PUSH1 0xE0 SHR DUP1 PUSH4 0x647341EB GT PUSH2 0xE3 JUMPI DUP1 PUSH4 0xBB607362 GT PUSH2 0x8C JUMPI DUP1 PUSH4 0xD88BE12F GT PUSH2 0x66 JUMPI DUP1 PUSH4 0xD88BE12F EQ PUSH2 0x2E1 JUMPI DUP1 PUSH4 0xF408FB31 EQ PUSH2 0x1EA JUMPI DUP1 PUSH4 0xFA315F9D EQ PUSH2 0x2E9 JUMPI PUSH2 0x18C JUMP JUMPDEST DUP1 PUSH4 0xBB607362 EQ PUSH2 0x2A1 JUMPI DUP1 PUSH4 0xBDAB1688 EQ PUSH2 0x2B7 JUMPI DUP1 PUSH4 0xD6D7618C EQ PUSH2 0x2CC JUMPI PUSH2 0x18C JUMP JUMPDEST DUP1 PUSH4 0x9A3B6185 GT PUSH2 0xBD JUMPI DUP1 PUSH4 0x9A3B6185 EQ PUSH2 0x283 JUMPI DUP1 PUSH4 0xA3C2F6B6 EQ PUSH2 0x28B JUMPI DUP1 PUSH4 0xAE2DAE17 EQ PUSH2 0x293 JUMPI PUSH2 0x18C JUMP JUMPDEST DUP1 PUSH4 0x647341EB EQ PUSH2 0x24D JUMPI DUP1 PUSH4 0x76F15D5B EQ PUSH2 0x25B JUMPI DUP1 PUSH4 0x8EE52B4E EQ PUSH2 0x270 JUMPI PUSH2 0x18C JUMP JUMPDEST DUP1 PUSH4 0x4582EAB2 GT PUSH2 0x145 JUMPI DUP1 PUSH4 0x59C28ADD GT PUSH2 0x11F JUMPI DUP1 PUSH4 0x59C28ADD EQ PUSH2 0x21D JUMPI DUP1 PUSH4 0x5BA3C7C0 EQ PUSH2 0x232 JUMPI DUP1 PUSH4 0x63D69C88 EQ PUSH2 0x23A JUMPI PUSH2 0x18C JUMP JUMPDEST DUP1 PUSH4 0x4582EAB2 EQ PUSH2 0x1F8 JUMPI DUP1 PUSH4 0x45FDBDB7 EQ PUSH2 0x200 JUMPI DUP1 PUSH4 0x586F84B2 EQ PUSH2 0x208 JUMPI PUSH2 0x18C JUMP JUMPDEST DUP1 PUSH4 0x2E1A7D4D GT PUSH2 0x176 JUMPI DUP1 PUSH4 0x2E1A7D4D EQ PUSH2 0x1AE JUMPI DUP1 PUSH4 0x36B32396 EQ PUSH2 0x1C1 JUMPI DUP1 PUSH4 0x3E9EF66A EQ PUSH2 0x1EA JUMPI PUSH2 0x18C JUMP JUMPDEST DUP1 PUSH3 0x9E437 EQ PUSH2 0x191 JUMPI DUP1 PUSH4 0x527C28F EQ PUSH2 0x19B JUMPI JUMPDEST PUSH1 0x0 DUP1 REVERT JUMPDEST PUSH2 0x199 PUSH2 0x2F7 JUMP JUMPDEST STOP JUMPDEST PUSH2 0x199 PUSH2 0x1A9 CALLDATASIZE PUSH1 0x4 PUSH2 0x86C JUMP JUMPDEST PUSH2 0x332 JUMP JUMPDEST PUSH2 0x199 PUSH2 0x1BC CALLDATASIZE PUSH1 0x4 PUSH2 0x921 JUMP JUMPDEST PUSH2 0x335 JUMP JUMPDEST PUSH2 0x1D4 PUSH2 0x1CF CALLDATASIZE PUSH1 0x4 PUSH2 0x8A9 JUMP JUMPDEST PUSH2 0x386 JUMP JUMPDEST PUSH1 0x40 MLOAD PUSH2 0x1E1 SWAP2 SWAP1 PUSH2 0xB2E JUMP JUMPDEST PUSH1 0x40 MLOAD DUP1 SWAP2 SUB SWAP1 RETURN JUMPDEST PUSH2 0x199 PUSH2 0x1A9 CALLDATASIZE PUSH1 0x4 PUSH2 0x8EC JUMP JUMPDEST PUSH2 0x199 PUSH2 0x468 JUMP JUMPDEST PUSH2 0x199 PUSH2 0x4CD JUMP JUMPDEST PUSH2 0x210 PUSH2 0x4FF JUMP JUMPDEST PUSH1 0x40 MLOAD PUSH2 0x1E1 SWAP2 SWAP1 PUSH2 0xC74 JUMP JUMPDEST PUSH2 0x225 PUSH2 0x50A JUMP JUMPDEST PUSH1 0x40 MLOAD PUSH2 0x1E1 SWAP2 SWAP1 PUSH2 0xC7F JUMP JUMPDEST PUSH2 0x199 PUSH2 0x512 JUMP JUMPDEST PUSH2 0x1D4 PUSH2 0x248 CALLDATASIZE PUSH1 0x4 PUSH2 0x81A JUMP JUMPDEST PUSH2 0x577 JUMP JUMPDEST PUSH2 0x199 PUSH2 0x1A9 CALLDATASIZE PUSH1 0x4 PUSH2 0x9CA JUMP JUMPDEST PUSH2 0x263 PUSH2 0x580 JUMP JUMPDEST PUSH1 0x40 MLOAD PUSH2 0x1E1 SWAP2 SWAP1 PUSH2 0xCF2 JUMP JUMPDEST PUSH2 0x263 PUSH2 0x27E CALLDATASIZE PUSH1 0x4 PUSH2 0x921 JUMP JUMPDEST PUSH2 0x58E JUMP JUMPDEST PUSH2 0x199 PUSH2 0x594 JUMP JUMPDEST PUSH2 0x263 PUSH2 0x59F JUMP JUMPDEST PUSH2 0x199 PUSH2 0x1A9 CALLDATASIZE PUSH1 0x4 PUSH2 0x93A JUMP JUMPDEST PUSH2 0x2A9 PUSH2 0x5A4 JUMP JUMPDEST PUSH1 0x40 MLOAD PUSH2 0x1E1 SWAP3 SWAP2 SWAP1 PUSH2 0xCFB JUMP JUMPDEST PUSH2 0x2BF PUSH2 0x5DD JUMP JUMPDEST PUSH1 0x40 MLOAD PUSH2 0x1E1 SWAP2 SWAP1 PUSH2 0xB4F JUMP JUMPDEST PUSH2 0x2D4 PUSH2 0x5E2 JUMP JUMPDEST PUSH1 0x40 MLOAD PUSH2 0x1E1 SWAP2 SWAP1 PUSH2 0xCDF JUMP JUMPDEST PUSH2 0x263 PUSH2 0x5EA JUMP JUMPDEST PUSH2 0x199 PUSH2 0x1A9 CALLDATASIZE PUSH1 0x4 PUSH2 0x921 JUMP JUMPDEST PUSH1 0x40 MLOAD PUSH32 0x8C379A000000000000000000000000000000000000000000000000000000000 DUP2 MSTORE PUSH1 0x4 ADD PUSH2 0x329 SWAP1 PUSH2 0xC3D JUMP JUMPDEST PUSH1 0x40 MLOAD DUP1 SWAP2 SUB SWAP1 REVERT JUMPDEST POP JUMP JUMPDEST CALLER PUSH20 0xFFFFFFFFFFFFFFFFFFFFFFFFFFFFFFFFFFFFFFFF AND PUSH32 0x7FCF532C15F0A6DB0BD6D0E038BEA71D30D808C7D98CB3BF7268A95BF5081B65 DUP3 PUSH1 0x40 MLOAD PUSH2 0x37B SWAP2 SWAP1 PUSH2 0xCF2 JUMP JUMPDEST PUSH1 0x40 MLOAD DUP1 SWAP2 SUB SWAP1 LOG2 POP JUMP JUMPDEST PUSH1 0x0 PUSH1 0x60 PUSH1 0x40 MLOAD DUP1 PUSH1 0x40 ADD PUSH1 0x40 MSTORE DUP1 PUSH1 0x1C DUP2 MSTORE PUSH1 0x20 ADD PUSH32 0x19457468657265756D205369676E6564204D6573736167653A0A333200000000 DUP2 MSTORE POP SWAP1 POP PUSH1 0x0 DUP2 DUP8 PUSH1 0x40 MLOAD PUSH1 0x20 ADD PUSH2 0x3D7 SWAP3 SWAP2 SWAP1 PUSH2 0xB0C JUMP JUMPDEST PUSH1 0x40 MLOAD PUSH1 0x20 DUP2 DUP4 SUB SUB DUP2 MSTORE SWAP1 PUSH1 0x40 MSTORE DUP1 MLOAD SWAP1 PUSH1 0x20 ADD KECCAK256 SWAP1 POP PUSH1 0x1 DUP2 DUP8 DUP8 DUP8 PUSH1 0x40 MLOAD PUSH1 0x0 DUP2 MSTORE PUSH1 0x20 ADD PUSH1 0x40 MSTORE PUSH1 0x40 MLOAD PUSH2 0x412 SWAP5 SWAP4 SWAP3 SWAP2 SWAP1 PUSH2 0xBCE JUMP JUMPDEST PUSH1 0x20 PUSH1 0x40 MLOAD PUSH1 0x20 DUP2 SUB SWAP1 DUP1 DUP5 SUB SWAP1 DUP6 GAS STATICCALL ISZERO DUP1 ISZERO PUSH2 0x434 JUMPI RETURNDATASIZE PUSH1 0x0 DUP1 RETURNDATACOPY RETURNDATASIZE PUSH1 0x0 REVERT JUMPDEST POP POP PUSH1 0x40 MLOAD PUSH32 0xFFFFFFFFFFFFFFFFFFFFFFFFFFFFFFFFFFFFFFFFFFFFFFFFFFFFFFFFFFFFFFE0 ADD MLOAD SWAP9 SWAP8 POP POP POP POP POP POP POP POP JUMP JUMPDEST PUSH1 0x40 DUP1 MLOAD DUP1 DUP3 ADD DUP3 MSTORE PUSH1 0x14 DUP2 MSTORE PUSH32 0x5245564552545F574954485F434F4E5354414E54000000000000000000000000 PUSH1 0x20 DUP3 ADD MSTORE SWAP1 MLOAD PUSH32 0x8C379A000000000000000000000000000000000000000000000000000000000 DUP2 MSTORE PUSH2 0x329 SWAP2 SWAP1 PUSH1 0x4 ADD PUSH2 0xBEC JUMP JUMPDEST PUSH1 0x40 MLOAD PUSH32 0x8C379A000000000000000000000000000000000000000000000000000000000 DUP2 MSTORE PUSH1 0x4 ADD PUSH2 0x329 SWAP1 PUSH2 0xC06 JUMP JUMPDEST PUSH2 0x507 PUSH2 0x5F0 JUMP JUMPDEST SWAP1 JUMP JUMPDEST PUSH2 0x507 PUSH2 0x608 JUMP JUMPDEST PUSH1 0x40 DUP1 MLOAD DUP1 DUP3 ADD DUP3 MSTORE PUSH1 0x15 DUP2 MSTORE PUSH32 0x524551554952455F574954485F434F4E5354414E540000000000000000000000 PUSH1 0x20 DUP3 ADD MSTORE SWAP1 MLOAD PUSH32 0x8C379A000000000000000000000000000000000000000000000000000000000 DUP2 MSTORE PUSH2 0x329 SWAP2 SWAP1 PUSH1 0x4 ADD PUSH2 0xBEC JUMP JUMPDEST POP SWAP3 SWAP4 SWAP3 POP POP POP JUMP JUMPDEST PUSH1 0x0 DUP1 SLOAD PUSH1 0x1 ADD SWAP1 DUP2 SWAP1 SSTORE SWAP1 JUMP JUMPDEST PUSH1 0x1 ADD SWAP1 JUMP JUMPDEST PUSH1 0x0 DUP1 SLOAD PUSH1 0x1 ADD SWAP1 SSTORE JUMP JUMPDEST PUSH1 0x1 SWAP1 JUMP JUMPDEST PUSH1 0x40 DUP1 MLOAD DUP1 DUP3 ADD SWAP1 SWAP2 MSTORE PUSH1 0x5 DUP2 MSTORE PUSH32 0x68656C6C6F000000000000000000000000000000000000000000000000000000 PUSH1 0x20 DUP3 ADD MSTORE PUSH1 0x1 SWAP2 JUMP JUMPDEST PUSH1 0x60 SWAP1 JUMP JUMPDEST PUSH2 0x507 PUSH2 0x628 JUMP JUMPDEST PUSH2 0x4D2 SWAP1 JUMP JUMPDEST PUSH1 0x40 MLOAD DUP1 PUSH1 0x20 ADD PUSH1 0x40 MSTORE DUP1 PUSH2 0x603 PUSH2 0x656 JUMP JUMPDEST SWAP1 MSTORE SWAP1 JUMP JUMPDEST PUSH1 0x40 MLOAD DUP1 PUSH1 0xA0 ADD PUSH1 0x40 MSTORE DUP1 PUSH2 0x61B PUSH2 0x628 JUMP JUMPDEST DUP2 MSTORE PUSH1 0x20 ADD PUSH1 0x60 DUP2 MSTORE POP SWAP1 JUMP JUMPDEST PUSH1 0x40 MLOAD DUP1 PUSH1 0x80 ADD PUSH1 0x40 MSTORE DUP1 PUSH1 0x60 DUP2 MSTORE PUSH1 0x20 ADD PUSH1 0x0 PUSH4 0xFFFFFFFF AND DUP2 MSTORE PUSH1 0x20 ADD PUSH1 0x60 DUP2 MSTORE PUSH1 0x20 ADD PUSH1 0x60 DUP2 MSTORE POP SWAP1 JUMP JUMPDEST PUSH1 0x40 MLOAD DUP1 PUSH1 0x20 ADD PUSH1 0x40 MSTORE DUP1 PUSH1 0x0 DUP2 MSTORE POP SWAP1 JUMP JUMPDEST PUSH1 0x0 DUP3 PUSH1 0x1F DUP4 ADD SLT PUSH2 0x679 JUMPI DUP1 DUP2 REVERT JUMPDEST DUP2 CALLDATALOAD PUSH8 0xFFFFFFFFFFFFFFFF DUP2 GT ISZERO PUSH2 0x68F JUMPI DUP2 DUP3 REVERT JUMPDEST PUSH1 0x20 PUSH2 0x69E DUP2 DUP3 DUP5 MUL ADD PUSH2 0xD14 JUMP JUMPDEST DUP3 DUP2 MSTORE SWAP3 POP DUP1 DUP4 ADD DUP5 DUP3 ADD PUSH1 0x0 JUMPDEST DUP5 DUP2 LT ISZERO PUSH2 0x6D5 JUMPI PUSH2 0x6C3 DUP9 DUP6 DUP5 CALLDATALOAD DUP11 ADD ADD PUSH2 0x6E0 JUMP JUMPDEST DUP4 MSTORE SWAP2 DUP4 ADD SWAP2 SWAP1 DUP4 ADD SWAP1 PUSH1 0x1 ADD PUSH2 0x6AC JUMP JUMPDEST POP POP POP POP POP SWAP3 SWAP2 POP POP JUMP JUMPDEST PUSH1 0x0 DUP3 PUSH1 0x1F DUP4 ADD SLT PUSH2 0x6F0 JUMPI DUP1 DUP2 REVERT JUMPDEST DUP2 CALLDATALOAD PUSH8 0xFFFFFFFFFFFFFFFF DUP2 GT ISZERO PUSH2 0x706 JUMPI DUP2 DUP3 REVERT JUMPDEST PUSH2 0x737 PUSH1 0x20 PUSH32 0xFFFFFFFFFFFFFFFFFFFFFFFFFFFFFFFFFFFFFFFFFFFFFFFFFFFFFFFFFFFFFFE0 PUSH1 0x1F DUP5 ADD AND ADD PUSH2 0xD14 JUMP JUMPDEST SWAP2 POP DUP1 DUP3 MSTORE DUP4 PUSH1 0x20 DUP3 DUP6 ADD ADD GT ISZERO PUSH2 0x74E JUMPI PUSH1 0x0 DUP1 REVERT JUMPDEST DUP1 PUSH1 0x20 DUP5 ADD PUSH1 0x20 DUP5 ADD CALLDATACOPY PUSH1 0x0 SWAP1 DUP3 ADD PUSH1 0x20 ADD MSTORE SWAP3 SWAP2 POP POP JUMP JUMPDEST PUSH1 0x0 PUSH1 0x80 DUP3 DUP5 SUB SLT ISZERO PUSH2 0x778 JUMPI DUP1 DUP2 REVERT JUMPDEST PUSH2 0x782 PUSH1 0x80 PUSH2 0xD14 JUMP JUMPDEST SWAP1 POP PUSH1 0x0 DUP3 CALLDATALOAD PUSH8 0xFFFFFFFFFFFFFFFF DUP1 DUP3 GT ISZERO PUSH2 0x79D JUMPI DUP3 DUP4 REVERT JUMPDEST PUSH2 0x7A9 DUP7 DUP4 DUP8 ADD PUSH2 0x6E0 JUMP JUMPDEST DUP5 MSTORE PUSH1 0x20 DUP6 ADD CALLDATALOAD SWAP2 POP PUSH4 0xFFFFFFFF DUP3 AND DUP3 EQ PUSH2 0x7C3 JUMPI DUP3 DUP4 REVERT JUMPDEST DUP2 PUSH1 0x20 DUP6 ADD MSTORE PUSH1 0x40 DUP6 ADD CALLDATALOAD SWAP2 POP DUP1 DUP3 GT ISZERO PUSH2 0x7DC JUMPI DUP3 DUP4 REVERT JUMPDEST PUSH2 0x7E8 DUP7 DUP4 DUP8 ADD PUSH2 0x669 JUMP JUMPDEST PUSH1 0x40 DUP6 ADD MSTORE PUSH1 0x60 DUP6 ADD CALLDATALOAD SWAP2 POP DUP1 DUP3 GT ISZERO PUSH2 0x800 JUMPI DUP3 DUP4 REVERT JUMPDEST POP PUSH2 0x80D DUP6 DUP3 DUP7 ADD PUSH2 0x6E0 JUMP JUMPDEST PUSH1 0x60 DUP5 ADD MSTORE POP POP SWAP3 SWAP2 POP POP JUMP JUMPDEST PUSH1 0x0 DUP1 PUSH1 0x0 DUP1 PUSH1 0x0 PUSH1 0xA0 DUP7 DUP9 SUB SLT ISZERO PUSH2 0x832 JUMPI PUSH1 0x0 DUP1 REVERT JUMPDEST DUP6 CALLDATALOAD PUSH2 0x83D DUP2 PUSH2 0xD6B JUMP JUMPDEST SWAP5 POP PUSH1 0x20 DUP7 ADD CALLDATALOAD SWAP4 POP PUSH1 0x40 DUP7 ADD CALLDATALOAD SWAP3 POP PUSH1 0x60 DUP7 ADD CALLDATALOAD PUSH2 0x85B DUP2 PUSH2 0xD6B JUMP JUMPDEST SWAP5 SWAP8 SWAP4 SWAP7 POP SWAP2 SWAP5 PUSH1 0x80 ADD CALLDATALOAD SWAP3 SWAP2 POP POP JUMP JUMPDEST PUSH1 0x0 PUSH1 0x20 DUP3 DUP5 SUB SLT ISZERO PUSH2 0x87E JUMPI PUSH1 0x0 DUP1 REVERT JUMPDEST DUP2 CALLDATALOAD PUSH8 0xFFFFFFFFFFFFFFFF DUP2 GT ISZERO PUSH2 0x895 JUMPI PUSH1 0x0 DUP1 REVERT JUMPDEST PUSH2 0x8A1 DUP5 DUP3 DUP6 ADD PUSH2 0x669 JUMP JUMPDEST SWAP5 SWAP4 POP POP POP POP JUMP JUMPDEST PUSH1 0x0 DUP1 PUSH1 0x0 DUP1 PUSH1 0x80 DUP6 DUP8 SUB SLT ISZERO PUSH2 0x8BF JUMPI PUSH1 0x0 DUP1 REVERT JUMPDEST DUP5 CALLDATALOAD SWAP4 POP PUSH1 0x20 DUP6 ADD CALLDATALOAD PUSH1 0xFF DUP2 AND DUP2 EQ PUSH2 0x8D7 JUMPI PUSH1 0x0 DUP1 REVERT JUMPDEST SWAP4 SWAP7 SWAP4 SWAP6 POP POP POP POP PUSH1 0x40 DUP3 ADD CALLDATALOAD SWAP2 PUSH1 0x60 ADD CALLDATALOAD SWAP1 JUMP JUMPDEST PUSH1 0x0 PUSH1 0x20 DUP3 DUP5 SUB SLT ISZERO PUSH2 0x8FE JUMPI PUSH1 0x0 DUP1 REVERT JUMPDEST DUP2 CALLDATALOAD PUSH8 0xFFFFFFFFFFFFFFFF DUP2 GT ISZERO PUSH2 0x915 JUMPI PUSH1 0x0 DUP1 REVERT JUMPDEST PUSH2 0x8A1 DUP5 DUP3 DUP6 ADD PUSH2 0x6E0 JUMP JUMPDEST PUSH1 0x0 PUSH1 0x20 DUP3 DUP5 SUB SLT ISZERO PUSH2 0x933 JUMPI PUSH1 0x0 DUP1 REVERT JUMPDEST POP CALLDATALOAD SWAP2 SWAP1 POP JUMP JUMPDEST PUSH1 0x0 PUSH1 0x20 DUP3 DUP5 SUB SLT ISZERO PUSH2 0x94B JUMPI DUP1 DUP2 REVERT JUMPDEST DUP2 CALLDATALOAD PUSH8 0xFFFFFFFFFFFFFFFF DUP1 DUP3 GT ISZERO PUSH2 0x962 JUMPI DUP3 DUP4 REVERT JUMPDEST DUP2 DUP5 ADD PUSH1 0x40 DUP2 DUP8 SUB SLT ISZERO PUSH2 0x974 JUMPI DUP4 DUP5 REVERT JUMPDEST PUSH2 0x97E PUSH1 0x40 PUSH2 0xD14 JUMP JUMPDEST SWAP3 POP DUP1 CALLDATALOAD DUP3 DUP2 GT ISZERO PUSH2 0x98E JUMPI DUP5 DUP6 REVERT JUMPDEST PUSH2 0x99A DUP8 DUP3 DUP5 ADD PUSH2 0x767 JUMP JUMPDEST DUP5 MSTORE POP PUSH1 0x20 DUP2 ADD CALLDATALOAD DUP3 DUP2 GT ISZERO PUSH2 0x9AE JUMPI DUP5 DUP6 REVERT JUMPDEST PUSH2 0x9BA DUP8 DUP3 DUP5 ADD PUSH2 0x6E0 JUMP JUMPDEST PUSH1 0x20 DUP6 ADD MSTORE POP SWAP2 SWAP6 SWAP5 POP POP POP POP POP JUMP JUMPDEST PUSH1 0x0 PUSH1 0x20 DUP3 DUP5 SUB SLT ISZERO PUSH2 0x9DC JUMPI PUSH1 0x0 DUP1 REVERT JUMPDEST DUP2 CALLDATALOAD PUSH8 0xFFFFFFFFFFFFFFFF DUP2 GT ISZERO PUSH2 0x9F3 JUMPI PUSH1 0x0 DUP1 REVERT JUMPDEST PUSH2 0x8A1 DUP5 DUP3 DUP6 ADD PUSH2 0x767 JUMP JUMPDEST PUSH1 0x0 DUP2 MLOAD DUP1 DUP5 MSTORE PUSH2 0xA17 DUP2 PUSH1 0x20 DUP7 ADD PUSH1 0x20 DUP7 ADD PUSH2 0xD3B JUMP JUMPDEST PUSH1 0x1F ADD PUSH32 0xFFFFFFFFFFFFFFFFFFFFFFFFFFFFFFFFFFFFFFFFFFFFFFFFFFFFFFFFFFFFFFE0 AND SWAP3 SWAP1 SWAP3 ADD PUSH1 0x20 ADD SWAP3 SWAP2 POP POP JUMP JUMPDEST PUSH1 0x0 DUP2 MLOAD PUSH1 0x80 DUP5 MSTORE PUSH2 0xA5E PUSH1 0x80 DUP6 ADD DUP3 PUSH2 0x9FF JUMP JUMPDEST PUSH1 0x20 SWAP2 POP PUSH4 0xFFFFFFFF DUP3 DUP6 ADD MLOAD AND DUP3 DUP7 ADD MSTORE PUSH1 0x40 DUP5 ADD MLOAD DUP6 DUP3 SUB PUSH1 0x40 DUP8 ADD MSTORE DUP2 DUP2 MLOAD DUP1 DUP5 MSTORE DUP5 DUP5 ADD SWAP2 POP DUP5 DUP6 DUP3 MUL DUP6 ADD ADD DUP6 DUP5 ADD PUSH1 0x0 SWAP5 POP JUMPDEST DUP3 DUP6 LT ISZERO PUSH2 0xAE5 JUMPI PUSH32 0xFFFFFFFFFFFFFFFFFFFFFFFFFFFFFFFFFFFFFFFFFFFFFFFFFFFFFFFFFFFFFFE0 DUP7 DUP4 SUB ADD DUP5 MSTORE PUSH2 0xAD1 DUP3 DUP3 MLOAD PUSH2 0x9FF JUMP JUMPDEST PUSH1 0x1 SWAP6 SWAP1 SWAP6 ADD SWAP5 SWAP4 DUP8 ADD SWAP4 SWAP2 POP DUP7 ADD PUSH2 0xA97 JUMP JUMPDEST POP PUSH1 0x60 DUP9 ADD MLOAD SWAP6 POP DUP9 DUP2 SUB PUSH1 0x60 DUP11 ADD MSTORE PUSH2 0xAFF DUP2 DUP8 PUSH2 0x9FF JUMP JUMPDEST SWAP10 SWAP9 POP POP POP POP POP POP POP POP POP JUMP JUMPDEST PUSH1 0x0 DUP4 MLOAD PUSH2 0xB1E DUP2 DUP5 PUSH1 0x20 DUP9 ADD PUSH2 0xD3B JUMP JUMPDEST SWAP2 SWAP1 SWAP2 ADD SWAP2 DUP3 MSTORE POP PUSH1 0x20 ADD SWAP2 SWAP1 POP JUMP JUMPDEST PUSH20 0xFFFFFFFFFFFFFFFFFFFFFFFFFFFFFFFFFFFFFFFF SWAP2 SWAP1 SWAP2 AND DUP2 MSTORE PUSH1 0x20 ADD SWAP1 JUMP JUMPDEST PUSH1 0x0 PUSH1 0x20 DUP1 DUP4 ADD DUP2 DUP5 MSTORE DUP1 DUP6 MLOAD DUP1 DUP4 MSTORE PUSH1 0x40 DUP7 ADD SWAP2 POP PUSH1 0x40 DUP5 DUP3 MUL DUP8 ADD ADD SWAP3 POP DUP4 DUP8 ADD PUSH1 0x0 JUMPDEST DUP3 DUP2 LT ISZERO PUSH2 0xBC1 JUMPI PUSH32 0xFFFFFFFFFFFFFFFFFFFFFFFFFFFFFFFFFFFFFFFFFFFFFFFFFFFFFFFFFFFFFFC0 DUP9 DUP7 SUB ADD DUP5 MSTORE PUSH2 0xBAF DUP6 DUP4 MLOAD PUSH2 0xA49 JUMP JUMPDEST SWAP5 POP SWAP3 DUP6 ADD SWAP3 SWAP1 DUP6 ADD SWAP1 PUSH1 0x1 ADD PUSH2 0xB75 JUMP JUMPDEST POP SWAP3 SWAP8 SWAP7 POP POP POP POP POP POP POP JUMP JUMPDEST SWAP4 DUP5 MSTORE PUSH1 0xFF SWAP3 SWAP1 SWAP3 AND PUSH1 0x20 DUP5 ADD MSTORE PUSH1 0x40 DUP4 ADD MSTORE PUSH1 0x60 DUP3 ADD MSTORE PUSH1 0x80 ADD SWAP1 JUMP JUMPDEST PUSH1 0x0 PUSH1 0x20 DUP3 MSTORE PUSH2 0xBFF PUSH1 0x20 DUP4 ADD DUP5 PUSH2 0x9FF JUMP JUMPDEST SWAP4 SWAP3 POP POP POP JUMP JUMPDEST PUSH1 0x20 DUP1 DUP3 MSTORE PUSH1 0xD SWAP1 DUP3 ADD MSTORE PUSH32 0x53494D504C455F52455645525400000000000000000000000000000000000000 PUSH1 0x40 DUP3 ADD MSTORE PUSH1 0x60 ADD SWAP1 JUMP JUMPDEST PUSH1 0x20 DUP1 DUP3 MSTORE PUSH1 0xE SWAP1 DUP3 ADD MSTORE PUSH32 0x53494D504C455F52455155495245000000000000000000000000000000000000 PUSH1 0x40 DUP3 ADD MSTORE PUSH1 0x60 ADD SWAP1 JUMP JUMPDEST SWAP1 MLOAD MLOAD DUP2 MSTORE PUSH1 0x20 ADD SWAP1 JUMP JUMPDEST PUSH1 0x0 PUSH1 0x20 DUP3 MSTORE DUP3 MLOAD PUSH1 0x40 PUSH1 0x20 DUP5 ADD MSTORE PUSH2 0xC9B PUSH1 0x60 DUP5 ADD DUP3 PUSH2 0xA49 JUMP JUMPDEST PUSH1 0x20 DUP6 ADD MLOAD SWAP2 POP PUSH32 0xFFFFFFFFFFFFFFFFFFFFFFFFFFFFFFFFFFFFFFFFFFFFFFFFFFFFFFFFFFFFFFE0 DUP5 DUP3 SUB ADD PUSH1 0x40 DUP6 ADD MSTORE PUSH2 0xCD6 DUP2 DUP4 PUSH2 0x9FF JUMP JUMPDEST SWAP6 SWAP5 POP POP POP POP POP JUMP JUMPDEST PUSH1 0x0 PUSH1 0x20 DUP3 MSTORE PUSH2 0xBFF PUSH1 0x20 DUP4 ADD DUP5 PUSH2 0xA49 JUMP JUMPDEST SWAP1 DUP2 MSTORE PUSH1 0x20 ADD SWAP1 JUMP JUMPDEST PUSH1 0x0 DUP4 DUP3 MSTORE PUSH1 0x40 PUSH1 0x20 DUP4 ADD MSTORE PUSH2 0x8A1 PUSH1 0x40 DUP4 ADD DUP5 PUSH2 0x9FF JUMP JUMPDEST PUSH1 0x40 MLOAD DUP2 DUP2 ADD PUSH8 0xFFFFFFFFFFFFFFFF DUP2 GT DUP3 DUP3 LT OR ISZERO PUSH2 0xD33 JUMPI PUSH1 0x0 DUP1 REVERT JUMPDEST PUSH1 0x40 MSTORE SWAP2 SWAP1 POP JUMP JUMPDEST PUSH1 0x0 JUMPDEST DUP4 DUP2 LT ISZERO PUSH2 0xD56 JUMPI DUP2 DUP2 ADD MLOAD DUP4 DUP3 ADD MSTORE PUSH1 0x20 ADD PUSH2 0xD3E JUMP JUMPDEST DUP4 DUP2 GT ISZERO PUSH2 0xD65 JUMPI PUSH1 0x0 DUP5 DUP5 ADD MSTORE JUMPDEST POP POP POP POP JUMP JUMPDEST PUSH20 0xFFFFFFFFFFFFFFFFFFFFFFFFFFFFFFFFFFFFFFFF DUP2 AND DUP2 EQ PUSH2 0x332 JUMPI PUSH1 0x0 DUP1 REVERT INVALID LOG3 PUSH6 0x627A7A723058 KECCAK256 SWAP11 DUP7 0xc3 0xf7 PUSH12 0x3368512DF6A6B97A752AF085 0x2e 0xa5 CODESIZE PUSH27 0x4BC56F374513961AC97AEF6C6578706572696D656E74616CF56473 PUSH16 0x6C634300050A00400000000000000000 "
			}
		}
	},
	"sourceTreeHashHex": "0x225a0db4736fbfe12d0ee9dcd4daad698259309f9709a0f35add8668bbf6d56c",
	"compiler": {
		"name": "solc",
		"version": "soljson-v0.5.10+commit.5a6ea5b1.js",
		"settings": {
			"optimizer": {
				"enabled": true,
				"runs": 1000000,
				"details": {
					"yul": true,
					"deduplicate": true,
					"cse": true,
					"constantOptimizer": true
				}
			},
			"outputSelection": {
				"*": {
					"*": [
						"abi",
						"evm.bytecode.object",
						"evm.bytecode.sourceMap",
						"evm.deployedBytecode.object",
						"evm.deployedBytecode.sourceMap",
						"devdoc"
					]
				}
			},
			"evmVersion": "constantinople",
			"remappings": []
		}
	}
}