{
	"schemaVersion": "2.0.0",
	"contractName": "AbiGenDummy",
	"compilerOutput": {
		"abi": [
			{
				"constant": true,
				"inputs": [],
				"name": "simpleRequire",
				"outputs": [],
				"payable": false,
				"stateMutability": "pure",
				"type": "function"
			},
			{
				"constant": true,
				"inputs": [
					{
						"internalType": "bytes[]",
						"name": "a",
						"type": "bytes[]"
					}
				],
				"name": "acceptsAnArrayOfBytes",
				"outputs": [],
				"payable": false,
				"stateMutability": "pure",
				"type": "function"
			},
			{
				"constant": true,
				"inputs": [
					{
						"internalType": "uint256",
						"name": "",
						"type": "uint256"
					}
				],
				"name": "simpleInputSimpleOutput",
				"outputs": [
					{
						"internalType": "uint256",
						"name": "",
						"type": "uint256"
					}
				],
				"payable": false,
				"stateMutability": "pure",
				"type": "function"
			},
			{
				"constant": false,
				"inputs": [
					{
						"internalType": "uint256",
						"name": "wad",
						"type": "uint256"
					}
				],
				"name": "withdraw",
				"outputs": [],
				"payable": false,
				"stateMutability": "nonpayable",
				"type": "function"
			},
			{
				"constant": true,
				"inputs": [
					{
						"internalType": "uint256",
						"name": "",
						"type": "uint256"
					},
					{
						"internalType": "bytes",
						"name": "",
						"type": "bytes"
					},
					{
						"internalType": "string",
						"name": "",
						"type": "string"
					}
				],
				"name": "multiInputMultiOutput",
				"outputs": [
					{
						"internalType": "bytes",
						"name": "",
						"type": "bytes"
					},
					{
						"internalType": "bytes",
						"name": "",
						"type": "bytes"
					},
					{
						"internalType": "string",
						"name": "",
						"type": "string"
					}
				],
				"payable": false,
				"stateMutability": "pure",
				"type": "function"
			},
			{
				"constant": true,
				"inputs": [
					{
						"internalType": "bytes32",
						"name": "hash",
						"type": "bytes32"
					},
					{
						"internalType": "uint8",
						"name": "v",
						"type": "uint8"
					},
					{
						"internalType": "bytes32",
						"name": "r",
						"type": "bytes32"
					},
					{
						"internalType": "bytes32",
						"name": "s",
						"type": "bytes32"
					}
				],
				"name": "ecrecoverFn",
				"outputs": [
					{
						"internalType": "address",
						"name": "signerAddress",
						"type": "address"
					}
				],
				"payable": false,
				"stateMutability": "pure",
				"type": "function"
			},
			{
				"constant": true,
				"inputs": [
					{
						"internalType": "bytes",
						"name": "a",
						"type": "bytes"
					}
				],
				"name": "acceptsBytes",
				"outputs": [],
				"payable": false,
				"stateMutability": "pure",
				"type": "function"
			},
			{
				"constant": true,
				"inputs": [],
				"name": "noInputSimpleOutput",
				"outputs": [
					{
						"internalType": "uint256",
						"name": "",
						"type": "uint256"
					}
				],
				"payable": false,
				"stateMutability": "pure",
				"type": "function"
			},
			{
				"constant": true,
				"inputs": [],
				"name": "revertWithConstant",
				"outputs": [],
				"payable": false,
				"stateMutability": "pure",
				"type": "function"
			},
			{
				"constant": true,
				"inputs": [],
				"name": "simpleRevert",
				"outputs": [],
				"payable": false,
				"stateMutability": "pure",
				"type": "function"
			},
			{
				"constant": true,
				"inputs": [],
				"name": "methodUsingNestedStructWithInnerStructNotUsedElsewhere",
				"outputs": [
					{
						"components": [
							{
								"components": [
									{
										"internalType": "uint256",
										"name": "aField",
										"type": "uint256"
									}
								],
								"internalType": "struct AbiGenDummy.StructNotDirectlyUsedAnywhere",
								"name": "innerStruct",
								"type": "tuple"
							}
						],
						"internalType": "struct AbiGenDummy.NestedStructWithInnerStructNotUsedElsewhere",
						"name": "",
						"type": "tuple"
					}
				],
				"payable": false,
				"stateMutability": "pure",
				"type": "function"
			},
			{
				"constant": true,
				"inputs": [],
				"name": "nestedStructOutput",
				"outputs": [
					{
						"components": [
							{
								"components": [
									{
										"internalType": "bytes",
										"name": "someBytes",
										"type": "bytes"
									},
									{
										"internalType": "uint32",
										"name": "anInteger",
										"type": "uint32"
									},
									{
										"internalType": "bytes[]",
										"name": "aDynamicArrayOfBytes",
										"type": "bytes[]"
									},
									{
										"internalType": "string",
										"name": "aString",
										"type": "string"
									}
								],
								"internalType": "struct AbiGenDummy.Struct",
								"name": "innerStruct",
								"type": "tuple"
							},
							{
								"internalType": "string",
								"name": "description",
								"type": "string"
							}
						],
						"internalType": "struct AbiGenDummy.NestedStruct",
						"name": "",
						"type": "tuple"
					}
				],
				"payable": false,
				"stateMutability": "pure",
				"type": "function"
			},
			{
				"constant": true,
				"inputs": [],
				"name": "requireWithConstant",
				"outputs": [],
				"payable": false,
				"stateMutability": "pure",
				"type": "function"
			},
			{
				"constant": true,
				"inputs": [
					{
						"internalType": "address",
						"name": "x",
						"type": "address"
					},
					{
						"internalType": "uint256",
						"name": "a",
						"type": "uint256"
					},
					{
						"internalType": "uint256",
						"name": "b",
						"type": "uint256"
					},
					{
						"internalType": "address",
						"name": "y",
						"type": "address"
					},
					{
						"internalType": "uint256",
						"name": "c",
						"type": "uint256"
					}
				],
				"name": "withAddressInput",
				"outputs": [
					{
						"internalType": "address",
						"name": "z",
						"type": "address"
					}
				],
				"payable": false,
				"stateMutability": "pure",
				"type": "function"
			},
			{
				"constant": true,
				"inputs": [
					{
						"components": [
							{
								"internalType": "bytes",
								"name": "someBytes",
								"type": "bytes"
							},
							{
								"internalType": "uint32",
								"name": "anInteger",
								"type": "uint32"
							},
							{
								"internalType": "bytes[]",
								"name": "aDynamicArrayOfBytes",
								"type": "bytes[]"
							},
							{
								"internalType": "string",
								"name": "aString",
								"type": "string"
							}
						],
						"internalType": "struct AbiGenDummy.Struct",
						"name": "s",
						"type": "tuple"
					}
				],
				"name": "structInput",
				"outputs": [],
				"payable": false,
				"stateMutability": "pure",
				"type": "function"
			},
			{
				"constant": false,
				"inputs": [],
				"name": "nonPureMethod",
				"outputs": [
					{
						"internalType": "uint256",
						"name": "",
						"type": "uint256"
					}
				],
				"payable": false,
				"stateMutability": "nonpayable",
				"type": "function"
			},
			{
				"constant": true,
				"inputs": [
					{
						"components": [
							{
								"internalType": "uint256",
								"name": "foo",
								"type": "uint256"
							},
							{
								"internalType": "bytes",
								"name": "bar",
								"type": "bytes"
							},
							{
								"internalType": "string",
								"name": "car",
								"type": "string"
							}
						],
						"internalType": "struct AbiGenDummy.ComplexInput",
						"name": "complexInput",
						"type": "tuple"
					}
				],
				"name": "complexInputComplexOutput",
				"outputs": [
					{
						"components": [
							{
								"components": [
									{
										"internalType": "uint256",
										"name": "foo",
										"type": "uint256"
									},
									{
										"internalType": "bytes",
										"name": "bar",
										"type": "bytes"
									},
									{
										"internalType": "string",
										"name": "car",
										"type": "string"
									}
								],
								"internalType": "struct AbiGenDummy.ComplexInput",
								"name": "input",
								"type": "tuple"
							},
							{
								"internalType": "bytes",
								"name": "lorem",
								"type": "bytes"
							},
							{
								"internalType": "bytes",
								"name": "ipsum",
								"type": "bytes"
							},
							{
								"internalType": "string",
								"name": "dolor",
								"type": "string"
							}
						],
						"internalType": "struct AbiGenDummy.ComplexOutput",
						"name": "",
						"type": "tuple"
					}
				],
				"payable": false,
				"stateMutability": "pure",
				"type": "function"
			},
			{
				"constant": true,
				"inputs": [],
				"name": "noInputNoOutput",
				"outputs": [],
				"payable": false,
				"stateMutability": "pure",
				"type": "function"
			},
			{
				"constant": true,
				"inputs": [
					{
						"internalType": "uint256",
						"name": "x",
						"type": "uint256"
					}
				],
				"name": "simplePureFunctionWithInput",
				"outputs": [
					{
						"internalType": "uint256",
						"name": "sum",
						"type": "uint256"
					}
				],
				"payable": false,
				"stateMutability": "pure",
				"type": "function"
			},
			{
				"constant": false,
				"inputs": [],
				"name": "nonPureMethodThatReturnsNothing",
				"outputs": [],
				"payable": false,
				"stateMutability": "nonpayable",
				"type": "function"
			},
			{
				"constant": true,
				"inputs": [],
				"name": "simplePureFunction",
				"outputs": [
					{
						"internalType": "uint256",
						"name": "result",
						"type": "uint256"
					}
				],
				"payable": false,
				"stateMutability": "pure",
				"type": "function"
			},
			{
				"constant": true,
				"inputs": [
					{
						"components": [
							{
								"components": [
									{
										"internalType": "bytes",
										"name": "someBytes",
										"type": "bytes"
									},
									{
										"internalType": "uint32",
										"name": "anInteger",
										"type": "uint32"
									},
									{
										"internalType": "bytes[]",
										"name": "aDynamicArrayOfBytes",
										"type": "bytes[]"
									},
									{
										"internalType": "string",
										"name": "aString",
										"type": "string"
									}
								],
								"internalType": "struct AbiGenDummy.Struct",
								"name": "innerStruct",
								"type": "tuple"
							},
							{
								"internalType": "string",
								"name": "description",
								"type": "string"
							}
						],
						"internalType": "struct AbiGenDummy.NestedStruct",
						"name": "n",
						"type": "tuple"
					}
				],
				"name": "nestedStructInput",
				"outputs": [],
				"payable": false,
				"stateMutability": "pure",
				"type": "function"
			},
			{
				"constant": true,
				"inputs": [],
				"name": "methodReturningMultipleValues",
				"outputs": [
					{
						"internalType": "uint256",
						"name": "",
						"type": "uint256"
					},
					{
						"internalType": "string",
						"name": "",
						"type": "string"
					}
				],
				"payable": false,
				"stateMutability": "pure",
				"type": "function"
			},
			{
				"constant": true,
				"inputs": [],
				"name": "methodReturningArrayOfStructs",
				"outputs": [
					{
						"components": [
							{
								"internalType": "bytes",
								"name": "someBytes",
								"type": "bytes"
							},
							{
								"internalType": "uint32",
								"name": "anInteger",
								"type": "uint32"
							},
							{
								"internalType": "bytes[]",
								"name": "aDynamicArrayOfBytes",
								"type": "bytes[]"
							},
							{
								"internalType": "string",
								"name": "aString",
								"type": "string"
							}
						],
						"internalType": "struct AbiGenDummy.Struct[]",
						"name": "",
						"type": "tuple[]"
					}
				],
				"payable": false,
				"stateMutability": "pure",
				"type": "function"
			},
			{
				"constant": true,
				"inputs": [],
				"name": "structOutput",
				"outputs": [
					{
						"components": [
							{
								"internalType": "bytes",
								"name": "someBytes",
								"type": "bytes"
							},
							{
								"internalType": "uint32",
								"name": "anInteger",
								"type": "uint32"
							},
							{
								"internalType": "bytes[]",
								"name": "aDynamicArrayOfBytes",
								"type": "bytes[]"
							},
							{
								"internalType": "string",
								"name": "aString",
								"type": "string"
							}
						],
						"internalType": "struct AbiGenDummy.Struct",
						"name": "s",
						"type": "tuple"
					}
				],
				"payable": false,
				"stateMutability": "pure",
				"type": "function"
			},
			{
				"constant": true,
				"inputs": [],
				"name": "pureFunctionWithConstant",
				"outputs": [
					{
						"internalType": "uint256",
						"name": "someConstant",
						"type": "uint256"
					}
				],
				"payable": false,
				"stateMutability": "pure",
				"type": "function"
			},
			{
				"constant": true,
				"inputs": [
					{
						"internalType": "uint256",
						"name": "",
						"type": "uint256"
					}
				],
				"name": "simpleInputNoOutput",
				"outputs": [],
				"payable": false,
				"stateMutability": "pure",
				"type": "function"
			},
			{
				"constant": true,
				"inputs": [
					{
						"internalType": "string",
						"name": "a",
						"type": "string"
					}
				],
				"name": "overloadedMethod",
				"outputs": [],
				"payable": false,
				"stateMutability": "pure",
				"type": "function"
			},
			{
				"constant": true,
				"inputs": [
					{
						"internalType": "int256",
						"name": "a",
						"type": "int256"
					}
				],
				"name": "overloadedMethod",
				"outputs": [],
				"payable": false,
				"stateMutability": "pure",
				"type": "function"
			},
			{
				"anonymous": false,
				"inputs": [
					{
						"indexed": true,
						"internalType": "address",
						"name": "_owner",
						"type": "address"
					},
					{
						"indexed": false,
						"internalType": "uint256",
						"name": "_value",
						"type": "uint256"
					}
				],
				"name": "Withdrawal",
				"type": "event"
			},
			{
				"anonymous": false,
				"inputs": [
					{
						"indexed": false,
						"internalType": "uint8",
						"name": "param",
						"type": "uint8"
					}
				],
				"name": "AnEvent",
				"type": "event"
			}
		],
		"devdoc": {
			"methods": {
				"acceptsAnArrayOfBytes(bytes[])": {
					"details": "a method that accepts an array of bytes",
					"params": {
						"a": "the array of bytes being accepted"
					}
				},
				"complexInputComplexOutput((uint256,bytes,string))": {
					"details": "Tests decoding when the input and output are complex."
				},
				"ecrecoverFn(bytes32,uint8,bytes32,bytes32)": {
					"details": "test that devdocs will be generated and     that multiline devdocs will look okay",
					"params": {
						"hash": "description of some hash. Let's make this line super long to demonstrate hanging indents for method params. It has to be more than one hundred twenty columns.",
						"r": "ECDSA r output",
						"s": "ECDSA s output",
						"v": "some v, recovery id"
					},
					"return": "the signerAddress that created this signature.  this line too is super long in order to demonstrate the proper hanging indentation in generated code."
				},
				"multiInputMultiOutput(uint256,bytes,string)": {
					"details": "Tests decoding when the input and output are complex and have more than one argument."
				},
				"noInputNoOutput()": {
					"details": "Tests decoding when both input and output are empty."
				},
				"noInputSimpleOutput()": {
					"details": "Tests decoding when input is empty and output is non-empty."
				},
				"simpleInputNoOutput(uint256)": {
					"details": "Tests decoding when input is not empty but output is empty."
				},
				"simpleInputSimpleOutput(uint256)": {
					"details": "Tests decoding when both input and output are non-empty."
				},
				"structOutput()": {
					"details": "a method that returns a struct",
					"return": "a Struct struct"
				}
			}
		},
		"evm": {
			"bytecode": {
				"linkReferences": {},
				"object": "0x608060405234801561001057600080fd5b506113c2806100206000396000f3fe608060405234801561001057600080fd5b50600436106101ce5760003560e01c8063647341eb11610104578063ae2dae17116100a2578063d88be12f11610071578063d88be12f14610388578063ee8b86fb14610390578063f408fb311461026e578063fa315f9d146103a3576101ce565b8063ae2dae171461033a578063bb60736214610348578063bdab16881461035e578063d6d7618c14610373576101ce565b80637a791e6e116100de5780637a791e6e1461030f5780638ee52b4e146103175780639a3b61851461032a578063a3c2f6b614610332576101ce565b8063647341eb146102d957806376f15d5b146102e75780637833bec0146102ef576101ce565b80634303a54211610171578063586f84b21161014b578063586f84b21461029457806359c28add146102a95780635ba3c7c0146102be57806363d69c88146102c6576101ce565b80634303a5421461027c5780634582eab21461028457806345fdbdb71461028c576101ce565b80632e1a7d4d116101ad5780632e1a7d4d146102195780633687617d1461022c57806336b323961461024e5780633e9ef66a1461026e576101ce565b806209e437146101d35780630527c28f146101dd5780631310e444146101f0575b600080fd5b6101db6103b1565b005b6101db6101eb366004610c35565b6103ee565b6102036101fe366004610cea565b6103f1565b60405161021091906112e4565b60405180910390f35b6101db610227366004610cea565b6103f8565b61023f61023a366004610e62565b610449565b604051610210939291906110b9565b61026161025c366004610c72565b6104e9565b6040516102109190610ffb565b6101db6101eb366004610cb5565b6102036105cb565b6101db6105d2565b6101db610637565b61029c610669565b604051610210919061126f565b6102b1610671565b604051610210919061127a565b6101db610679565b6102616102d4366004610be3565b6106de565b6101db6101eb366004610e2d565b6102036106e7565b6103026102fd366004610d03565b6106f5565b6040516102109190611183565b6101db6107b2565b610203610325366004610cea565b6107b7565b6101db6107bd565b6102036107c8565b6101db6101eb366004610d9d565b6103506107cd565b6040516102109291906112ed565b610366610806565b604051610210919061101c565b61037b61080b565b60405161021091906112d1565b610203610964565b6101db61039e366004610cea565b6101eb565b6101db6101eb366004610cea565b6040517f08c379a00000000000000000000000000000000000000000000000000000000081526004016103e39061114c565b60405180910390fd5b565b50565b506107c790565b3373ffffffffffffffffffffffffffffffffffffffff167f7fcf532c15f0a6db0bd6d0e038bea71d30d808c7d98cb3bf7268a95bf5081b658260405161043e91906112e4565b60405180910390a250565b505060408051808201825260048082527f1234567800000000000000000000000000000000000000000000000000000000602080840191909152835180850185528281527f87654321000000000000000000000000000000000000000000000000000000008183015284518086019095529184527f616d657400000000000000000000000000000000000000000000000000000000908401529093909250565b600060606040518060400160405280601c81526020017f19457468657265756d205369676e6564204d6573736167653a0a33320000000081525090506000818760405160200161053a929190610fd9565b60405160208183030381529060405280519060200120905060018187878760405160008152602001604052604051610575949392919061109b565b6020604051602081039080840390855afa158015610597573d6000803e3d6000fd5b50506040517fffffffffffffffffffffffffffffffffffffffffffffffffffffffffffffffe0015198975050505050505050565b6107c75b90565b604080518082018252601481527f5245564552545f574954485f434f4e5354414e54000000000000000000000000602082015290517f08c379a00000000000000000000000000000000000000000000000000000000081526103e391906004016110fb565b6040517f08c379a00000000000000000000000000000000000000000000000000000000081526004016103e390611115565b6105cf61096a565b6105cf610982565b604080518082018252601581527f524551554952455f574954485f434f4e5354414e540000000000000000000000602082015290517f08c379a00000000000000000000000000000000000000000000000000000000081526103e391906004016110fb565b50929392505050565b600080546001019081905590565b6106fd6109a2565b50604080516080810182529182528051808201825260048082527f123456780000000000000000000000000000000000000000000000000000000060208381019190915280850192909252825180840184528181527f87654321000000000000000000000000000000000000000000000000000000008184015284840152825180840190935282527f616d65740000000000000000000000000000000000000000000000000000000090820152606082015290565b6103ec565b60010190565b600080546001019055565b600190565b60408051808201909152600581527f68656c6c6f0000000000000000000000000000000000000000000000000000006020820152600191565b606090565b6108136109d0565b6040805160028082526060828101909352816020015b60608152602001906001900390816108295790505090506040518060400160405280600581526020017f30783132330000000000000000000000000000000000000000000000000000008152508160008151811061088357fe5b60200260200101819052506040518060400160405280600581526020017f3078333231000000000000000000000000000000000000000000000000000000815250816001815181106108d157fe5b6020908102919091018101919091526040805160c0810182526005608082018181527f307831323300000000000000000000000000000000000000000000000000000060a0840152825281840152808201939093528051808201909152600381527f6162630000000000000000000000000000000000000000000000000000000000918101919091526060820152905090565b6104d290565b604051806020016040528061097d6109fe565b905290565b60405180604001604052806109956109d0565b8152602001606081525090565b60405180608001604052806109b5610a11565b81526020016060815260200160608152602001606081525090565b604051806080016040528060608152602001600063ffffffff16815260200160608152602001606081525090565b6040518060200160405280600081525090565b60405180606001604052806000815260200160608152602001606081525090565b600082601f830112610a42578081fd5b813567ffffffffffffffff811115610a58578182fd5b6020610a678182840201611306565b828152925080830184820160005b84811015610a9e57610a8c888584358a0101610aa9565b83529183019190830190600101610a75565b505050505092915050565b600082601f830112610ab9578081fd5b813567ffffffffffffffff811115610acf578182fd5b610b0060207fffffffffffffffffffffffffffffffffffffffffffffffffffffffffffffffe0601f84011601611306565b9150808252836020828501011115610b1757600080fd5b8060208401602084013760009082016020015292915050565b600060808284031215610b41578081fd5b610b4b6080611306565b90506000823567ffffffffffffffff80821115610b66578283fd5b610b7286838701610aa9565b84526020850135915063ffffffff82168214610b8c578283fd5b8160208501526040850135915080821115610ba5578283fd5b610bb186838701610a32565b60408501526060850135915080821115610bc9578283fd5b50610bd685828601610aa9565b6060840152505092915050565b600080600080600060a08688031215610bfb57600080fd5b8535610c068161135d565b945060208601359350604086013592506060860135610c248161135d565b949793965091946080013592915050565b600060208284031215610c4757600080fd5b813567ffffffffffffffff811115610c5e57600080fd5b610c6a84828501610a32565b949350505050565b60008060008060808587031215610c8857600080fd5b84359350602085013560ff81168114610ca057600080fd5b93969395505050506040820135916060013590565b600060208284031215610cc757600080fd5b813567ffffffffffffffff811115610cde57600080fd5b610c6a84828501610aa9565b600060208284031215610cfc57600080fd5b5035919050565b600060208284031215610d14578081fd5b813567ffffffffffffffff80821115610d2b578283fd5b81840160608187031215610d3d578384fd5b610d476060611306565b925080358352602081013582811115610d5e578485fd5b610d6a87828401610aa9565b602085015250604081013582811115610d81578485fd5b610d8d87828401610aa9565b6040850152509195945050505050565b600060208284031215610dae578081fd5b813567ffffffffffffffff80821115610dc5578283fd5b81840160408187031215610dd7578384fd5b610de16040611306565b9250803582811115610df1578485fd5b610dfd87828401610b30565b845250602081013582811115610e11578485fd5b610e1d87828401610aa9565b6020850152509195945050505050565b600060208284031215610e3f57600080fd5b813567ffffffffffffffff811115610e5657600080fd5b610c6a84828501610b30565b600080600060608486031215610e76578081fd5b83359250602084013567ffffffffffffffff80821115610e94578283fd5b610ea087838801610aa9565b93506040860135915080821115610eb5578283fd5b50610ec286828701610aa9565b9150509250925092565b60008151808452610ee481602086016020860161132d565b601f017fffffffffffffffffffffffffffffffffffffffffffffffffffffffffffffffe0169290920160200192915050565b6000815160808452610f2b6080850182610ecc565b6020915063ffffffff82850151168286015260408401518582036040870152818151808452848401915084858202850101858401600094505b82851015610fb2577fffffffffffffffffffffffffffffffffffffffffffffffffffffffffffffffe0868303018452610f9e828251610ecc565b600195909501949387019391508601610f64565b506060880151955088810360608a0152610fcc8187610ecc565b9998505050505050505050565b60008351610feb81846020880161132d565b9190910191825250602001919050565b73ffffffffffffffffffffffffffffffffffffffff91909116815260200190565b600060208083018184528085518083526040860191506040848202870101925083870160005b8281101561108e577fffffffffffffffffffffffffffffffffffffffffffffffffffffffffffffffc088860301845261107c858351610f16565b94509285019290850190600101611042565b5092979650505050505050565b93845260ff9290921660208401526040830152606082015260800190565b6000606082526110cc6060830186610ecc565b82810360208401526110de8186610ecc565b83810360408501526110f08186610ecc565b979650505050505050565b60006020825261110e6020830184610ecc565b9392505050565b6020808252600d908201527f53494d504c455f52455645525400000000000000000000000000000000000000604082015260600190565b6020808252600e908201527f53494d504c455f52455155495245000000000000000000000000000000000000604082015260600190565b600060208252825160806020840152805160a08401526020810151606060c08501526111b3610100850182610ecc565b604083015191507fffffffffffffffffffffffffffffffffffffffffffffffffffffffffffffff608582030160e08601526111ee8183610ecc565b9250505060208401517fffffffffffffffffffffffffffffffffffffffffffffffffffffffffffffffe08085840301604086015261122c8383610ecc565b60408701519350818682030160608701526112478185610ecc565b9250506060860151925080858303016080860152506112668183610ecc565b95945050505050565b905151815260200190565b6000602082528251604060208401526112966060840182610f16565b602085015191507fffffffffffffffffffffffffffffffffffffffffffffffffffffffffffffffe08482030160408501526112668183610ecc565b60006020825261110e6020830184610f16565b90815260200190565b600083825260406020830152610c6a6040830184610ecc565b60405181810167ffffffffffffffff8111828210171561132557600080fd5b604052919050565b60005b83811015611348578181015183820152602001611330565b83811115611357576000848401525b50505050565b73ffffffffffffffffffffffffffffffffffffffff811681146103ee57600080fdfea365627a7a7231582063ecea5975740f0f78a75668344fe0b439794ce207110b6d2e40d344b1b768d36c6578706572696d656e74616cf564736f6c634300050b0040",
				"opcodes": "PUSH1 0x80 PUSH1 0x40 MSTORE CALLVALUE DUP1 ISZERO PUSH2 0x10 JUMPI PUSH1 0x0 DUP1 REVERT JUMPDEST POP PUSH2 0x13C2 DUP1 PUSH2 0x20 PUSH1 0x0 CODECOPY PUSH1 0x0 RETURN INVALID PUSH1 0x80 PUSH1 0x40 MSTORE CALLVALUE DUP1 ISZERO PUSH2 0x10 JUMPI PUSH1 0x0 DUP1 REVERT JUMPDEST POP PUSH1 0x4 CALLDATASIZE LT PUSH2 0x1CE JUMPI PUSH1 0x0 CALLDATALOAD PUSH1 0xE0 SHR DUP1 PUSH4 0x647341EB GT PUSH2 0x104 JUMPI DUP1 PUSH4 0xAE2DAE17 GT PUSH2 0xA2 JUMPI DUP1 PUSH4 0xD88BE12F GT PUSH2 0x71 JUMPI DUP1 PUSH4 0xD88BE12F EQ PUSH2 0x388 JUMPI DUP1 PUSH4 0xEE8B86FB EQ PUSH2 0x390 JUMPI DUP1 PUSH4 0xF408FB31 EQ PUSH2 0x26E JUMPI DUP1 PUSH4 0xFA315F9D EQ PUSH2 0x3A3 JUMPI PUSH2 0x1CE JUMP JUMPDEST DUP1 PUSH4 0xAE2DAE17 EQ PUSH2 0x33A JUMPI DUP1 PUSH4 0xBB607362 EQ PUSH2 0x348 JUMPI DUP1 PUSH4 0xBDAB1688 EQ PUSH2 0x35E JUMPI DUP1 PUSH4 0xD6D7618C EQ PUSH2 0x373 JUMPI PUSH2 0x1CE JUMP JUMPDEST DUP1 PUSH4 0x7A791E6E GT PUSH2 0xDE JUMPI DUP1 PUSH4 0x7A791E6E EQ PUSH2 0x30F JUMPI DUP1 PUSH4 0x8EE52B4E EQ PUSH2 0x317 JUMPI DUP1 PUSH4 0x9A3B6185 EQ PUSH2 0x32A JUMPI DUP1 PUSH4 0xA3C2F6B6 EQ PUSH2 0x332 JUMPI PUSH2 0x1CE JUMP JUMPDEST DUP1 PUSH4 0x647341EB EQ PUSH2 0x2D9 JUMPI DUP1 PUSH4 0x76F15D5B EQ PUSH2 0x2E7 JUMPI DUP1 PUSH4 0x7833BEC0 EQ PUSH2 0x2EF JUMPI PUSH2 0x1CE JUMP JUMPDEST DUP1 PUSH4 0x4303A542 GT PUSH2 0x171 JUMPI DUP1 PUSH4 0x586F84B2 GT PUSH2 0x14B JUMPI DUP1 PUSH4 0x586F84B2 EQ PUSH2 0x294 JUMPI DUP1 PUSH4 0x59C28ADD EQ PUSH2 0x2A9 JUMPI DUP1 PUSH4 0x5BA3C7C0 EQ PUSH2 0x2BE JUMPI DUP1 PUSH4 0x63D69C88 EQ PUSH2 0x2C6 JUMPI PUSH2 0x1CE JUMP JUMPDEST DUP1 PUSH4 0x4303A542 EQ PUSH2 0x27C JUMPI DUP1 PUSH4 0x4582EAB2 EQ PUSH2 0x284 JUMPI DUP1 PUSH4 0x45FDBDB7 EQ PUSH2 0x28C JUMPI PUSH2 0x1CE JUMP JUMPDEST DUP1 PUSH4 0x2E1A7D4D GT PUSH2 0x1AD JUMPI DUP1 PUSH4 0x2E1A7D4D EQ PUSH2 0x219 JUMPI DUP1 PUSH4 0x3687617D EQ PUSH2 0x22C JUMPI DUP1 PUSH4 0x36B32396 EQ PUSH2 0x24E JUMPI DUP1 PUSH4 0x3E9EF66A EQ PUSH2 0x26E JUMPI PUSH2 0x1CE JUMP JUMPDEST DUP1 PUSH3 0x9E437 EQ PUSH2 0x1D3 JUMPI DUP1 PUSH4 0x527C28F EQ PUSH2 0x1DD JUMPI DUP1 PUSH4 0x1310E444 EQ PUSH2 0x1F0 JUMPI JUMPDEST PUSH1 0x0 DUP1 REVERT JUMPDEST PUSH2 0x1DB PUSH2 0x3B1 JUMP JUMPDEST STOP JUMPDEST PUSH2 0x1DB PUSH2 0x1EB CALLDATASIZE PUSH1 0x4 PUSH2 0xC35 JUMP JUMPDEST PUSH2 0x3EE JUMP JUMPDEST PUSH2 0x203 PUSH2 0x1FE CALLDATASIZE PUSH1 0x4 PUSH2 0xCEA JUMP JUMPDEST PUSH2 0x3F1 JUMP JUMPDEST PUSH1 0x40 MLOAD PUSH2 0x210 SWAP2 SWAP1 PUSH2 0x12E4 JUMP JUMPDEST PUSH1 0x40 MLOAD DUP1 SWAP2 SUB SWAP1 RETURN JUMPDEST PUSH2 0x1DB PUSH2 0x227 CALLDATASIZE PUSH1 0x4 PUSH2 0xCEA JUMP JUMPDEST PUSH2 0x3F8 JUMP JUMPDEST PUSH2 0x23F PUSH2 0x23A CALLDATASIZE PUSH1 0x4 PUSH2 0xE62 JUMP JUMPDEST PUSH2 0x449 JUMP JUMPDEST PUSH1 0x40 MLOAD PUSH2 0x210 SWAP4 SWAP3 SWAP2 SWAP1 PUSH2 0x10B9 JUMP JUMPDEST PUSH2 0x261 PUSH2 0x25C CALLDATASIZE PUSH1 0x4 PUSH2 0xC72 JUMP JUMPDEST PUSH2 0x4E9 JUMP JUMPDEST PUSH1 0x40 MLOAD PUSH2 0x210 SWAP2 SWAP1 PUSH2 0xFFB JUMP JUMPDEST PUSH2 0x1DB PUSH2 0x1EB CALLDATASIZE PUSH1 0x4 PUSH2 0xCB5 JUMP JUMPDEST PUSH2 0x203 PUSH2 0x5CB JUMP JUMPDEST PUSH2 0x1DB PUSH2 0x5D2 JUMP JUMPDEST PUSH2 0x1DB PUSH2 0x637 JUMP JUMPDEST PUSH2 0x29C PUSH2 0x669 JUMP JUMPDEST PUSH1 0x40 MLOAD PUSH2 0x210 SWAP2 SWAP1 PUSH2 0x126F JUMP JUMPDEST PUSH2 0x2B1 PUSH2 0x671 JUMP JUMPDEST PUSH1 0x40 MLOAD PUSH2 0x210 SWAP2 SWAP1 PUSH2 0x127A JUMP JUMPDEST PUSH2 0x1DB PUSH2 0x679 JUMP JUMPDEST PUSH2 0x261 PUSH2 0x2D4 CALLDATASIZE PUSH1 0x4 PUSH2 0xBE3 JUMP JUMPDEST PUSH2 0x6DE JUMP JUMPDEST PUSH2 0x1DB PUSH2 0x1EB CALLDATASIZE PUSH1 0x4 PUSH2 0xE2D JUMP JUMPDEST PUSH2 0x203 PUSH2 0x6E7 JUMP JUMPDEST PUSH2 0x302 PUSH2 0x2FD CALLDATASIZE PUSH1 0x4 PUSH2 0xD03 JUMP JUMPDEST PUSH2 0x6F5 JUMP JUMPDEST PUSH1 0x40 MLOAD PUSH2 0x210 SWAP2 SWAP1 PUSH2 0x1183 JUMP JUMPDEST PUSH2 0x1DB PUSH2 0x7B2 JUMP JUMPDEST PUSH2 0x203 PUSH2 0x325 CALLDATASIZE PUSH1 0x4 PUSH2 0xCEA JUMP JUMPDEST PUSH2 0x7B7 JUMP JUMPDEST PUSH2 0x1DB PUSH2 0x7BD JUMP JUMPDEST PUSH2 0x203 PUSH2 0x7C8 JUMP JUMPDEST PUSH2 0x1DB PUSH2 0x1EB CALLDATASIZE PUSH1 0x4 PUSH2 0xD9D JUMP JUMPDEST PUSH2 0x350 PUSH2 0x7CD JUMP JUMPDEST PUSH1 0x40 MLOAD PUSH2 0x210 SWAP3 SWAP2 SWAP1 PUSH2 0x12ED JUMP JUMPDEST PUSH2 0x366 PUSH2 0x806 JUMP JUMPDEST PUSH1 0x40 MLOAD PUSH2 0x210 SWAP2 SWAP1 PUSH2 0x101C JUMP JUMPDEST PUSH2 0x37B PUSH2 0x80B JUMP JUMPDEST PUSH1 0x40 MLOAD PUSH2 0x210 SWAP2 SWAP1 PUSH2 0x12D1 JUMP JUMPDEST PUSH2 0x203 PUSH2 0x964 JUMP JUMPDEST PUSH2 0x1DB PUSH2 0x39E CALLDATASIZE PUSH1 0x4 PUSH2 0xCEA JUMP JUMPDEST PUSH2 0x1EB JUMP JUMPDEST PUSH2 0x1DB PUSH2 0x1EB CALLDATASIZE PUSH1 0x4 PUSH2 0xCEA JUMP JUMPDEST PUSH1 0x40 MLOAD PUSH32 0x8C379A000000000000000000000000000000000000000000000000000000000 DUP2 MSTORE PUSH1 0x4 ADD PUSH2 0x3E3 SWAP1 PUSH2 0x114C JUMP JUMPDEST PUSH1 0x40 MLOAD DUP1 SWAP2 SUB SWAP1 REVERT JUMPDEST JUMP JUMPDEST POP JUMP JUMPDEST POP PUSH2 0x7C7 SWAP1 JUMP JUMPDEST CALLER PUSH20 0xFFFFFFFFFFFFFFFFFFFFFFFFFFFFFFFFFFFFFFFF AND PUSH32 0x7FCF532C15F0A6DB0BD6D0E038BEA71D30D808C7D98CB3BF7268A95BF5081B65 DUP3 PUSH1 0x40 MLOAD PUSH2 0x43E SWAP2 SWAP1 PUSH2 0x12E4 JUMP JUMPDEST PUSH1 0x40 MLOAD DUP1 SWAP2 SUB SWAP1 LOG2 POP JUMP JUMPDEST POP POP PUSH1 0x40 DUP1 MLOAD DUP1 DUP3 ADD DUP3 MSTORE PUSH1 0x4 DUP1 DUP3 MSTORE PUSH32 0x1234567800000000000000000000000000000000000000000000000000000000 PUSH1 0x20 DUP1 DUP5 ADD SWAP2 SWAP1 SWAP2 MSTORE DUP4 MLOAD DUP1 DUP6 ADD DUP6 MSTORE DUP3 DUP2 MSTORE PUSH32 0x8765432100000000000000000000000000000000000000000000000000000000 DUP2 DUP4 ADD MSTORE DUP5 MLOAD DUP1 DUP7 ADD SWAP1 SWAP6 MSTORE SWAP2 DUP5 MSTORE PUSH32 0x616D657400000000000000000000000000000000000000000000000000000000 SWAP1 DUP5 ADD MSTORE SWAP1 SWAP4 SWAP1 SWAP3 POP JUMP JUMPDEST PUSH1 0x0 PUSH1 0x60 PUSH1 0x40 MLOAD DUP1 PUSH1 0x40 ADD PUSH1 0x40 MSTORE DUP1 PUSH1 0x1C DUP2 MSTORE PUSH1 0x20 ADD PUSH32 0x19457468657265756D205369676E6564204D6573736167653A0A333200000000 DUP2 MSTORE POP SWAP1 POP PUSH1 0x0 DUP2 DUP8 PUSH1 0x40 MLOAD PUSH1 0x20 ADD PUSH2 0x53A SWAP3 SWAP2 SWAP1 PUSH2 0xFD9 JUMP JUMPDEST PUSH1 0x40 MLOAD PUSH1 0x20 DUP2 DUP4 SUB SUB DUP2 MSTORE SWAP1 PUSH1 0x40 MSTORE DUP1 MLOAD SWAP1 PUSH1 0x20 ADD KECCAK256 SWAP1 POP PUSH1 0x1 DUP2 DUP8 DUP8 DUP8 PUSH1 0x40 MLOAD PUSH1 0x0 DUP2 MSTORE PUSH1 0x20 ADD PUSH1 0x40 MSTORE PUSH1 0x40 MLOAD PUSH2 0x575 SWAP5 SWAP4 SWAP3 SWAP2 SWAP1 PUSH2 0x109B JUMP JUMPDEST PUSH1 0x20 PUSH1 0x40 MLOAD PUSH1 0x20 DUP2 SUB SWAP1 DUP1 DUP5 SUB SWAP1 DUP6 GAS STATICCALL ISZERO DUP1 ISZERO PUSH2 0x597 JUMPI RETURNDATASIZE PUSH1 0x0 DUP1 RETURNDATACOPY RETURNDATASIZE PUSH1 0x0 REVERT JUMPDEST POP POP PUSH1 0x40 MLOAD PUSH32 0xFFFFFFFFFFFFFFFFFFFFFFFFFFFFFFFFFFFFFFFFFFFFFFFFFFFFFFFFFFFFFFE0 ADD MLOAD SWAP9 SWAP8 POP POP POP POP POP POP POP POP JUMP JUMPDEST PUSH2 0x7C7 JUMPDEST SWAP1 JUMP JUMPDEST PUSH1 0x40 DUP1 MLOAD DUP1 DUP3 ADD DUP3 MSTORE PUSH1 0x14 DUP2 MSTORE PUSH32 0x5245564552545F574954485F434F4E5354414E54000000000000000000000000 PUSH1 0x20 DUP3 ADD MSTORE SWAP1 MLOAD PUSH32 0x8C379A000000000000000000000000000000000000000000000000000000000 DUP2 MSTORE PUSH2 0x3E3 SWAP2 SWAP1 PUSH1 0x4 ADD PUSH2 0x10FB JUMP JUMPDEST PUSH1 0x40 MLOAD PUSH32 0x8C379A000000000000000000000000000000000000000000000000000000000 DUP2 MSTORE PUSH1 0x4 ADD PUSH2 0x3E3 SWAP1 PUSH2 0x1115 JUMP JUMPDEST PUSH2 0x5CF PUSH2 0x96A JUMP JUMPDEST PUSH2 0x5CF PUSH2 0x982 JUMP JUMPDEST PUSH1 0x40 DUP1 MLOAD DUP1 DUP3 ADD DUP3 MSTORE PUSH1 0x15 DUP2 MSTORE PUSH32 0x524551554952455F574954485F434F4E5354414E540000000000000000000000 PUSH1 0x20 DUP3 ADD MSTORE SWAP1 MLOAD PUSH32 0x8C379A000000000000000000000000000000000000000000000000000000000 DUP2 MSTORE PUSH2 0x3E3 SWAP2 SWAP1 PUSH1 0x4 ADD PUSH2 0x10FB JUMP JUMPDEST POP SWAP3 SWAP4 SWAP3 POP POP POP JUMP JUMPDEST PUSH1 0x0 DUP1 SLOAD PUSH1 0x1 ADD SWAP1 DUP2 SWAP1 SSTORE SWAP1 JUMP JUMPDEST PUSH2 0x6FD PUSH2 0x9A2 JUMP JUMPDEST POP PUSH1 0x40 DUP1 MLOAD PUSH1 0x80 DUP2 ADD DUP3 MSTORE SWAP2 DUP3 MSTORE DUP1 MLOAD DUP1 DUP3 ADD DUP3 MSTORE PUSH1 0x4 DUP1 DUP3 MSTORE PUSH32 0x1234567800000000000000000000000000000000000000000000000000000000 PUSH1 0x20 DUP4 DUP2 ADD SWAP2 SWAP1 SWAP2 MSTORE DUP1 DUP6 ADD SWAP3 SWAP1 SWAP3 MSTORE DUP3 MLOAD DUP1 DUP5 ADD DUP5 MSTORE DUP2 DUP2 MSTORE PUSH32 0x8765432100000000000000000000000000000000000000000000000000000000 DUP2 DUP5 ADD MSTORE DUP5 DUP5 ADD MSTORE DUP3 MLOAD DUP1 DUP5 ADD SWAP1 SWAP4 MSTORE DUP3 MSTORE PUSH32 0x616D657400000000000000000000000000000000000000000000000000000000 SWAP1 DUP3 ADD MSTORE PUSH1 0x60 DUP3 ADD MSTORE SWAP1 JUMP JUMPDEST PUSH2 0x3EC JUMP JUMPDEST PUSH1 0x1 ADD SWAP1 JUMP JUMPDEST PUSH1 0x0 DUP1 SLOAD PUSH1 0x1 ADD SWAP1 SSTORE JUMP JUMPDEST PUSH1 0x1 SWAP1 JUMP JUMPDEST PUSH1 0x40 DUP1 MLOAD DUP1 DUP3 ADD SWAP1 SWAP2 MSTORE PUSH1 0x5 DUP2 MSTORE PUSH32 0x68656C6C6F000000000000000000000000000000000000000000000000000000 PUSH1 0x20 DUP3 ADD MSTORE PUSH1 0x1 SWAP2 JUMP JUMPDEST PUSH1 0x60 SWAP1 JUMP JUMPDEST PUSH2 0x813 PUSH2 0x9D0 JUMP JUMPDEST PUSH1 0x40 DUP1 MLOAD PUSH1 0x2 DUP1 DUP3 MSTORE PUSH1 0x60 DUP3 DUP2 ADD SWAP1 SWAP4 MSTORE DUP2 PUSH1 0x20 ADD JUMPDEST PUSH1 0x60 DUP2 MSTORE PUSH1 0x20 ADD SWAP1 PUSH1 0x1 SWAP1 SUB SWAP1 DUP2 PUSH2 0x829 JUMPI SWAP1 POP POP SWAP1 POP PUSH1 0x40 MLOAD DUP1 PUSH1 0x40 ADD PUSH1 0x40 MSTORE DUP1 PUSH1 0x5 DUP2 MSTORE PUSH1 0x20 ADD PUSH32 0x3078313233000000000000000000000000000000000000000000000000000000 DUP2 MSTORE POP DUP2 PUSH1 0x0 DUP2 MLOAD DUP2 LT PUSH2 0x883 JUMPI INVALID JUMPDEST PUSH1 0x20 MUL PUSH1 0x20 ADD ADD DUP2 SWAP1 MSTORE POP PUSH1 0x40 MLOAD DUP1 PUSH1 0x40 ADD PUSH1 0x40 MSTORE DUP1 PUSH1 0x5 DUP2 MSTORE PUSH1 0x20 ADD PUSH32 0x3078333231000000000000000000000000000000000000000000000000000000 DUP2 MSTORE POP DUP2 PUSH1 0x1 DUP2 MLOAD DUP2 LT PUSH2 0x8D1 JUMPI INVALID JUMPDEST PUSH1 0x20 SWAP1 DUP2 MUL SWAP2 SWAP1 SWAP2 ADD DUP2 ADD SWAP2 SWAP1 SWAP2 MSTORE PUSH1 0x40 DUP1 MLOAD PUSH1 0xC0 DUP2 ADD DUP3 MSTORE PUSH1 0x5 PUSH1 0x80 DUP3 ADD DUP2 DUP2 MSTORE PUSH32 0x3078313233000000000000000000000000000000000000000000000000000000 PUSH1 0xA0 DUP5 ADD MSTORE DUP3 MSTORE DUP2 DUP5 ADD MSTORE DUP1 DUP3 ADD SWAP4 SWAP1 SWAP4 MSTORE DUP1 MLOAD DUP1 DUP3 ADD SWAP1 SWAP2 MSTORE PUSH1 0x3 DUP2 MSTORE PUSH32 0x6162630000000000000000000000000000000000000000000000000000000000 SWAP2 DUP2 ADD SWAP2 SWAP1 SWAP2 MSTORE PUSH1 0x60 DUP3 ADD MSTORE SWAP1 POP SWAP1 JUMP JUMPDEST PUSH2 0x4D2 SWAP1 JUMP JUMPDEST PUSH1 0x40 MLOAD DUP1 PUSH1 0x20 ADD PUSH1 0x40 MSTORE DUP1 PUSH2 0x97D PUSH2 0x9FE JUMP JUMPDEST SWAP1 MSTORE SWAP1 JUMP JUMPDEST PUSH1 0x40 MLOAD DUP1 PUSH1 0x40 ADD PUSH1 0x40 MSTORE DUP1 PUSH2 0x995 PUSH2 0x9D0 JUMP JUMPDEST DUP2 MSTORE PUSH1 0x20 ADD PUSH1 0x60 DUP2 MSTORE POP SWAP1 JUMP JUMPDEST PUSH1 0x40 MLOAD DUP1 PUSH1 0x80 ADD PUSH1 0x40 MSTORE DUP1 PUSH2 0x9B5 PUSH2 0xA11 JUMP JUMPDEST DUP2 MSTORE PUSH1 0x20 ADD PUSH1 0x60 DUP2 MSTORE PUSH1 0x20 ADD PUSH1 0x60 DUP2 MSTORE PUSH1 0x20 ADD PUSH1 0x60 DUP2 MSTORE POP SWAP1 JUMP JUMPDEST PUSH1 0x40 MLOAD DUP1 PUSH1 0x80 ADD PUSH1 0x40 MSTORE DUP1 PUSH1 0x60 DUP2 MSTORE PUSH1 0x20 ADD PUSH1 0x0 PUSH4 0xFFFFFFFF AND DUP2 MSTORE PUSH1 0x20 ADD PUSH1 0x60 DUP2 MSTORE PUSH1 0x20 ADD PUSH1 0x60 DUP2 MSTORE POP SWAP1 JUMP JUMPDEST PUSH1 0x40 MLOAD DUP1 PUSH1 0x20 ADD PUSH1 0x40 MSTORE DUP1 PUSH1 0x0 DUP2 MSTORE POP SWAP1 JUMP JUMPDEST PUSH1 0x40 MLOAD DUP1 PUSH1 0x60 ADD PUSH1 0x40 MSTORE DUP1 PUSH1 0x0 DUP2 MSTORE PUSH1 0x20 ADD PUSH1 0x60 DUP2 MSTORE PUSH1 0x20 ADD PUSH1 0x60 DUP2 MSTORE POP SWAP1 JUMP JUMPDEST PUSH1 0x0 DUP3 PUSH1 0x1F DUP4 ADD SLT PUSH2 0xA42 JUMPI DUP1 DUP2 REVERT JUMPDEST DUP2 CALLDATALOAD PUSH8 0xFFFFFFFFFFFFFFFF DUP2 GT ISZERO PUSH2 0xA58 JUMPI DUP2 DUP3 REVERT JUMPDEST PUSH1 0x20 PUSH2 0xA67 DUP2 DUP3 DUP5 MUL ADD PUSH2 0x1306 JUMP JUMPDEST DUP3 DUP2 MSTORE SWAP3 POP DUP1 DUP4 ADD DUP5 DUP3 ADD PUSH1 0x0 JUMPDEST DUP5 DUP2 LT ISZERO PUSH2 0xA9E JUMPI PUSH2 0xA8C DUP9 DUP6 DUP5 CALLDATALOAD DUP11 ADD ADD PUSH2 0xAA9 JUMP JUMPDEST DUP4 MSTORE SWAP2 DUP4 ADD SWAP2 SWAP1 DUP4 ADD SWAP1 PUSH1 0x1 ADD PUSH2 0xA75 JUMP JUMPDEST POP POP POP POP POP SWAP3 SWAP2 POP POP JUMP JUMPDEST PUSH1 0x0 DUP3 PUSH1 0x1F DUP4 ADD SLT PUSH2 0xAB9 JUMPI DUP1 DUP2 REVERT JUMPDEST DUP2 CALLDATALOAD PUSH8 0xFFFFFFFFFFFFFFFF DUP2 GT ISZERO PUSH2 0xACF JUMPI DUP2 DUP3 REVERT JUMPDEST PUSH2 0xB00 PUSH1 0x20 PUSH32 0xFFFFFFFFFFFFFFFFFFFFFFFFFFFFFFFFFFFFFFFFFFFFFFFFFFFFFFFFFFFFFFE0 PUSH1 0x1F DUP5 ADD AND ADD PUSH2 0x1306 JUMP JUMPDEST SWAP2 POP DUP1 DUP3 MSTORE DUP4 PUSH1 0x20 DUP3 DUP6 ADD ADD GT ISZERO PUSH2 0xB17 JUMPI PUSH1 0x0 DUP1 REVERT JUMPDEST DUP1 PUSH1 0x20 DUP5 ADD PUSH1 0x20 DUP5 ADD CALLDATACOPY PUSH1 0x0 SWAP1 DUP3 ADD PUSH1 0x20 ADD MSTORE SWAP3 SWAP2 POP POP JUMP JUMPDEST PUSH1 0x0 PUSH1 0x80 DUP3 DUP5 SUB SLT ISZERO PUSH2 0xB41 JUMPI DUP1 DUP2 REVERT JUMPDEST PUSH2 0xB4B PUSH1 0x80 PUSH2 0x1306 JUMP JUMPDEST SWAP1 POP PUSH1 0x0 DUP3 CALLDATALOAD PUSH8 0xFFFFFFFFFFFFFFFF DUP1 DUP3 GT ISZERO PUSH2 0xB66 JUMPI DUP3 DUP4 REVERT JUMPDEST PUSH2 0xB72 DUP7 DUP4 DUP8 ADD PUSH2 0xAA9 JUMP JUMPDEST DUP5 MSTORE PUSH1 0x20 DUP6 ADD CALLDATALOAD SWAP2 POP PUSH4 0xFFFFFFFF DUP3 AND DUP3 EQ PUSH2 0xB8C JUMPI DUP3 DUP4 REVERT JUMPDEST DUP2 PUSH1 0x20 DUP6 ADD MSTORE PUSH1 0x40 DUP6 ADD CALLDATALOAD SWAP2 POP DUP1 DUP3 GT ISZERO PUSH2 0xBA5 JUMPI DUP3 DUP4 REVERT JUMPDEST PUSH2 0xBB1 DUP7 DUP4 DUP8 ADD PUSH2 0xA32 JUMP JUMPDEST PUSH1 0x40 DUP6 ADD MSTORE PUSH1 0x60 DUP6 ADD CALLDATALOAD SWAP2 POP DUP1 DUP3 GT ISZERO PUSH2 0xBC9 JUMPI DUP3 DUP4 REVERT JUMPDEST POP PUSH2 0xBD6 DUP6 DUP3 DUP7 ADD PUSH2 0xAA9 JUMP JUMPDEST PUSH1 0x60 DUP5 ADD MSTORE POP POP SWAP3 SWAP2 POP POP JUMP JUMPDEST PUSH1 0x0 DUP1 PUSH1 0x0 DUP1 PUSH1 0x0 PUSH1 0xA0 DUP7 DUP9 SUB SLT ISZERO PUSH2 0xBFB JUMPI PUSH1 0x0 DUP1 REVERT JUMPDEST DUP6 CALLDATALOAD PUSH2 0xC06 DUP2 PUSH2 0x135D JUMP JUMPDEST SWAP5 POP PUSH1 0x20 DUP7 ADD CALLDATALOAD SWAP4 POP PUSH1 0x40 DUP7 ADD CALLDATALOAD SWAP3 POP PUSH1 0x60 DUP7 ADD CALLDATALOAD PUSH2 0xC24 DUP2 PUSH2 0x135D JUMP JUMPDEST SWAP5 SWAP8 SWAP4 SWAP7 POP SWAP2 SWAP5 PUSH1 0x80 ADD CALLDATALOAD SWAP3 SWAP2 POP POP JUMP JUMPDEST PUSH1 0x0 PUSH1 0x20 DUP3 DUP5 SUB SLT ISZERO PUSH2 0xC47 JUMPI PUSH1 0x0 DUP1 REVERT JUMPDEST DUP2 CALLDATALOAD PUSH8 0xFFFFFFFFFFFFFFFF DUP2 GT ISZERO PUSH2 0xC5E JUMPI PUSH1 0x0 DUP1 REVERT JUMPDEST PUSH2 0xC6A DUP5 DUP3 DUP6 ADD PUSH2 0xA32 JUMP JUMPDEST SWAP5 SWAP4 POP POP POP POP JUMP JUMPDEST PUSH1 0x0 DUP1 PUSH1 0x0 DUP1 PUSH1 0x80 DUP6 DUP8 SUB SLT ISZERO PUSH2 0xC88 JUMPI PUSH1 0x0 DUP1 REVERT JUMPDEST DUP5 CALLDATALOAD SWAP4 POP PUSH1 0x20 DUP6 ADD CALLDATALOAD PUSH1 0xFF DUP2 AND DUP2 EQ PUSH2 0xCA0 JUMPI PUSH1 0x0 DUP1 REVERT JUMPDEST SWAP4 SWAP7 SWAP4 SWAP6 POP POP POP POP PUSH1 0x40 DUP3 ADD CALLDATALOAD SWAP2 PUSH1 0x60 ADD CALLDATALOAD SWAP1 JUMP JUMPDEST PUSH1 0x0 PUSH1 0x20 DUP3 DUP5 SUB SLT ISZERO PUSH2 0xCC7 JUMPI PUSH1 0x0 DUP1 REVERT JUMPDEST DUP2 CALLDATALOAD PUSH8 0xFFFFFFFFFFFFFFFF DUP2 GT ISZERO PUSH2 0xCDE JUMPI PUSH1 0x0 DUP1 REVERT JUMPDEST PUSH2 0xC6A DUP5 DUP3 DUP6 ADD PUSH2 0xAA9 JUMP JUMPDEST PUSH1 0x0 PUSH1 0x20 DUP3 DUP5 SUB SLT ISZERO PUSH2 0xCFC JUMPI PUSH1 0x0 DUP1 REVERT JUMPDEST POP CALLDATALOAD SWAP2 SWAP1 POP JUMP JUMPDEST PUSH1 0x0 PUSH1 0x20 DUP3 DUP5 SUB SLT ISZERO PUSH2 0xD14 JUMPI DUP1 DUP2 REVERT JUMPDEST DUP2 CALLDATALOAD PUSH8 0xFFFFFFFFFFFFFFFF DUP1 DUP3 GT ISZERO PUSH2 0xD2B JUMPI DUP3 DUP4 REVERT JUMPDEST DUP2 DUP5 ADD PUSH1 0x60 DUP2 DUP8 SUB SLT ISZERO PUSH2 0xD3D JUMPI DUP4 DUP5 REVERT JUMPDEST PUSH2 0xD47 PUSH1 0x60 PUSH2 0x1306 JUMP JUMPDEST SWAP3 POP DUP1 CALLDATALOAD DUP4 MSTORE PUSH1 0x20 DUP2 ADD CALLDATALOAD DUP3 DUP2 GT ISZERO PUSH2 0xD5E JUMPI DUP5 DUP6 REVERT JUMPDEST PUSH2 0xD6A DUP8 DUP3 DUP5 ADD PUSH2 0xAA9 JUMP JUMPDEST PUSH1 0x20 DUP6 ADD MSTORE POP PUSH1 0x40 DUP2 ADD CALLDATALOAD DUP3 DUP2 GT ISZERO PUSH2 0xD81 JUMPI DUP5 DUP6 REVERT JUMPDEST PUSH2 0xD8D DUP8 DUP3 DUP5 ADD PUSH2 0xAA9 JUMP JUMPDEST PUSH1 0x40 DUP6 ADD MSTORE POP SWAP2 SWAP6 SWAP5 POP POP POP POP POP JUMP JUMPDEST PUSH1 0x0 PUSH1 0x20 DUP3 DUP5 SUB SLT ISZERO PUSH2 0xDAE JUMPI DUP1 DUP2 REVERT JUMPDEST DUP2 CALLDATALOAD PUSH8 0xFFFFFFFFFFFFFFFF DUP1 DUP3 GT ISZERO PUSH2 0xDC5 JUMPI DUP3 DUP4 REVERT JUMPDEST DUP2 DUP5 ADD PUSH1 0x40 DUP2 DUP8 SUB SLT ISZERO PUSH2 0xDD7 JUMPI DUP4 DUP5 REVERT JUMPDEST PUSH2 0xDE1 PUSH1 0x40 PUSH2 0x1306 JUMP JUMPDEST SWAP3 POP DUP1 CALLDATALOAD DUP3 DUP2 GT ISZERO PUSH2 0xDF1 JUMPI DUP5 DUP6 REVERT JUMPDEST PUSH2 0xDFD DUP8 DUP3 DUP5 ADD PUSH2 0xB30 JUMP JUMPDEST DUP5 MSTORE POP PUSH1 0x20 DUP2 ADD CALLDATALOAD DUP3 DUP2 GT ISZERO PUSH2 0xE11 JUMPI DUP5 DUP6 REVERT JUMPDEST PUSH2 0xE1D DUP8 DUP3 DUP5 ADD PUSH2 0xAA9 JUMP JUMPDEST PUSH1 0x20 DUP6 ADD MSTORE POP SWAP2 SWAP6 SWAP5 POP POP POP POP POP JUMP JUMPDEST PUSH1 0x0 PUSH1 0x20 DUP3 DUP5 SUB SLT ISZERO PUSH2 0xE3F JUMPI PUSH1 0x0 DUP1 REVERT JUMPDEST DUP2 CALLDATALOAD PUSH8 0xFFFFFFFFFFFFFFFF DUP2 GT ISZERO PUSH2 0xE56 JUMPI PUSH1 0x0 DUP1 REVERT JUMPDEST PUSH2 0xC6A DUP5 DUP3 DUP6 ADD PUSH2 0xB30 JUMP JUMPDEST PUSH1 0x0 DUP1 PUSH1 0x0 PUSH1 0x60 DUP5 DUP7 SUB SLT ISZERO PUSH2 0xE76 JUMPI DUP1 DUP2 REVERT JUMPDEST DUP4 CALLDATALOAD SWAP3 POP PUSH1 0x20 DUP5 ADD CALLDATALOAD PUSH8 0xFFFFFFFFFFFFFFFF DUP1 DUP3 GT ISZERO PUSH2 0xE94 JUMPI DUP3 DUP4 REVERT JUMPDEST PUSH2 0xEA0 DUP8 DUP4 DUP9 ADD PUSH2 0xAA9 JUMP JUMPDEST SWAP4 POP PUSH1 0x40 DUP7 ADD CALLDATALOAD SWAP2 POP DUP1 DUP3 GT ISZERO PUSH2 0xEB5 JUMPI DUP3 DUP4 REVERT JUMPDEST POP PUSH2 0xEC2 DUP7 DUP3 DUP8 ADD PUSH2 0xAA9 JUMP JUMPDEST SWAP2 POP POP SWAP3 POP SWAP3 POP SWAP3 JUMP JUMPDEST PUSH1 0x0 DUP2 MLOAD DUP1 DUP5 MSTORE PUSH2 0xEE4 DUP2 PUSH1 0x20 DUP7 ADD PUSH1 0x20 DUP7 ADD PUSH2 0x132D JUMP JUMPDEST PUSH1 0x1F ADD PUSH32 0xFFFFFFFFFFFFFFFFFFFFFFFFFFFFFFFFFFFFFFFFFFFFFFFFFFFFFFFFFFFFFFE0 AND SWAP3 SWAP1 SWAP3 ADD PUSH1 0x20 ADD SWAP3 SWAP2 POP POP JUMP JUMPDEST PUSH1 0x0 DUP2 MLOAD PUSH1 0x80 DUP5 MSTORE PUSH2 0xF2B PUSH1 0x80 DUP6 ADD DUP3 PUSH2 0xECC JUMP JUMPDEST PUSH1 0x20 SWAP2 POP PUSH4 0xFFFFFFFF DUP3 DUP6 ADD MLOAD AND DUP3 DUP7 ADD MSTORE PUSH1 0x40 DUP5 ADD MLOAD DUP6 DUP3 SUB PUSH1 0x40 DUP8 ADD MSTORE DUP2 DUP2 MLOAD DUP1 DUP5 MSTORE DUP5 DUP5 ADD SWAP2 POP DUP5 DUP6 DUP3 MUL DUP6 ADD ADD DUP6 DUP5 ADD PUSH1 0x0 SWAP5 POP JUMPDEST DUP3 DUP6 LT ISZERO PUSH2 0xFB2 JUMPI PUSH32 0xFFFFFFFFFFFFFFFFFFFFFFFFFFFFFFFFFFFFFFFFFFFFFFFFFFFFFFFFFFFFFFE0 DUP7 DUP4 SUB ADD DUP5 MSTORE PUSH2 0xF9E DUP3 DUP3 MLOAD PUSH2 0xECC JUMP JUMPDEST PUSH1 0x1 SWAP6 SWAP1 SWAP6 ADD SWAP5 SWAP4 DUP8 ADD SWAP4 SWAP2 POP DUP7 ADD PUSH2 0xF64 JUMP JUMPDEST POP PUSH1 0x60 DUP9 ADD MLOAD SWAP6 POP DUP9 DUP2 SUB PUSH1 0x60 DUP11 ADD MSTORE PUSH2 0xFCC DUP2 DUP8 PUSH2 0xECC JUMP JUMPDEST SWAP10 SWAP9 POP POP POP POP POP POP POP POP POP JUMP JUMPDEST PUSH1 0x0 DUP4 MLOAD PUSH2 0xFEB DUP2 DUP5 PUSH1 0x20 DUP9 ADD PUSH2 0x132D JUMP JUMPDEST SWAP2 SWAP1 SWAP2 ADD SWAP2 DUP3 MSTORE POP PUSH1 0x20 ADD SWAP2 SWAP1 POP JUMP JUMPDEST PUSH20 0xFFFFFFFFFFFFFFFFFFFFFFFFFFFFFFFFFFFFFFFF SWAP2 SWAP1 SWAP2 AND DUP2 MSTORE PUSH1 0x20 ADD SWAP1 JUMP JUMPDEST PUSH1 0x0 PUSH1 0x20 DUP1 DUP4 ADD DUP2 DUP5 MSTORE DUP1 DUP6 MLOAD DUP1 DUP4 MSTORE PUSH1 0x40 DUP7 ADD SWAP2 POP PUSH1 0x40 DUP5 DUP3 MUL DUP8 ADD ADD SWAP3 POP DUP4 DUP8 ADD PUSH1 0x0 JUMPDEST DUP3 DUP2 LT ISZERO PUSH2 0x108E JUMPI PUSH32 0xFFFFFFFFFFFFFFFFFFFFFFFFFFFFFFFFFFFFFFFFFFFFFFFFFFFFFFFFFFFFFFC0 DUP9 DUP7 SUB ADD DUP5 MSTORE PUSH2 0x107C DUP6 DUP4 MLOAD PUSH2 0xF16 JUMP JUMPDEST SWAP5 POP SWAP3 DUP6 ADD SWAP3 SWAP1 DUP6 ADD SWAP1 PUSH1 0x1 ADD PUSH2 0x1042 JUMP JUMPDEST POP SWAP3 SWAP8 SWAP7 POP POP POP POP POP POP POP JUMP JUMPDEST SWAP4 DUP5 MSTORE PUSH1 0xFF SWAP3 SWAP1 SWAP3 AND PUSH1 0x20 DUP5 ADD MSTORE PUSH1 0x40 DUP4 ADD MSTORE PUSH1 0x60 DUP3 ADD MSTORE PUSH1 0x80 ADD SWAP1 JUMP JUMPDEST PUSH1 0x0 PUSH1 0x60 DUP3 MSTORE PUSH2 0x10CC PUSH1 0x60 DUP4 ADD DUP7 PUSH2 0xECC JUMP JUMPDEST DUP3 DUP2 SUB PUSH1 0x20 DUP5 ADD MSTORE PUSH2 0x10DE DUP2 DUP7 PUSH2 0xECC JUMP JUMPDEST DUP4 DUP2 SUB PUSH1 0x40 DUP6 ADD MSTORE PUSH2 0x10F0 DUP2 DUP7 PUSH2 0xECC JUMP JUMPDEST SWAP8 SWAP7 POP POP POP POP POP POP POP JUMP JUMPDEST PUSH1 0x0 PUSH1 0x20 DUP3 MSTORE PUSH2 0x110E PUSH1 0x20 DUP4 ADD DUP5 PUSH2 0xECC JUMP JUMPDEST SWAP4 SWAP3 POP POP POP JUMP JUMPDEST PUSH1 0x20 DUP1 DUP3 MSTORE PUSH1 0xD SWAP1 DUP3 ADD MSTORE PUSH32 0x53494D504C455F52455645525400000000000000000000000000000000000000 PUSH1 0x40 DUP3 ADD MSTORE PUSH1 0x60 ADD SWAP1 JUMP JUMPDEST PUSH1 0x20 DUP1 DUP3 MSTORE PUSH1 0xE SWAP1 DUP3 ADD MSTORE PUSH32 0x53494D504C455F52455155495245000000000000000000000000000000000000 PUSH1 0x40 DUP3 ADD MSTORE PUSH1 0x60 ADD SWAP1 JUMP JUMPDEST PUSH1 0x0 PUSH1 0x20 DUP3 MSTORE DUP3 MLOAD PUSH1 0x80 PUSH1 0x20 DUP5 ADD MSTORE DUP1 MLOAD PUSH1 0xA0 DUP5 ADD MSTORE PUSH1 0x20 DUP2 ADD MLOAD PUSH1 0x60 PUSH1 0xC0 DUP6 ADD MSTORE PUSH2 0x11B3 PUSH2 0x100 DUP6 ADD DUP3 PUSH2 0xECC JUMP JUMPDEST PUSH1 0x40 DUP4 ADD MLOAD SWAP2 POP PUSH32 0xFFFFFFFFFFFFFFFFFFFFFFFFFFFFFFFFFFFFFFFFFFFFFFFFFFFFFFFFFFFFFF60 DUP6 DUP3 SUB ADD PUSH1 0xE0 DUP7 ADD MSTORE PUSH2 0x11EE DUP2 DUP4 PUSH2 0xECC JUMP JUMPDEST SWAP3 POP POP POP PUSH1 0x20 DUP5 ADD MLOAD PUSH32 0xFFFFFFFFFFFFFFFFFFFFFFFFFFFFFFFFFFFFFFFFFFFFFFFFFFFFFFFFFFFFFFE0 DUP1 DUP6 DUP5 SUB ADD PUSH1 0x40 DUP7 ADD MSTORE PUSH2 0x122C DUP4 DUP4 PUSH2 0xECC JUMP JUMPDEST PUSH1 0x40 DUP8 ADD MLOAD SWAP4 POP DUP2 DUP7 DUP3 SUB ADD PUSH1 0x60 DUP8 ADD MSTORE PUSH2 0x1247 DUP2 DUP6 PUSH2 0xECC JUMP JUMPDEST SWAP3 POP POP PUSH1 0x60 DUP7 ADD MLOAD SWAP3 POP DUP1 DUP6 DUP4 SUB ADD PUSH1 0x80 DUP7 ADD MSTORE POP PUSH2 0x1266 DUP2 DUP4 PUSH2 0xECC JUMP JUMPDEST SWAP6 SWAP5 POP POP POP POP POP JUMP JUMPDEST SWAP1 MLOAD MLOAD DUP2 MSTORE PUSH1 0x20 ADD SWAP1 JUMP JUMPDEST PUSH1 0x0 PUSH1 0x20 DUP3 MSTORE DUP3 MLOAD PUSH1 0x40 PUSH1 0x20 DUP5 ADD MSTORE PUSH2 0x1296 PUSH1 0x60 DUP5 ADD DUP3 PUSH2 0xF16 JUMP JUMPDEST PUSH1 0x20 DUP6 ADD MLOAD SWAP2 POP PUSH32 0xFFFFFFFFFFFFFFFFFFFFFFFFFFFFFFFFFFFFFFFFFFFFFFFFFFFFFFFFFFFFFFE0 DUP5 DUP3 SUB ADD PUSH1 0x40 DUP6 ADD MSTORE PUSH2 0x1266 DUP2 DUP4 PUSH2 0xECC JUMP JUMPDEST PUSH1 0x0 PUSH1 0x20 DUP3 MSTORE PUSH2 0x110E PUSH1 0x20 DUP4 ADD DUP5 PUSH2 0xF16 JUMP JUMPDEST SWAP1 DUP2 MSTORE PUSH1 0x20 ADD SWAP1 JUMP JUMPDEST PUSH1 0x0 DUP4 DUP3 MSTORE PUSH1 0x40 PUSH1 0x20 DUP4 ADD MSTORE PUSH2 0xC6A PUSH1 0x40 DUP4 ADD DUP5 PUSH2 0xECC JUMP JUMPDEST PUSH1 0x40 MLOAD DUP2 DUP2 ADD PUSH8 0xFFFFFFFFFFFFFFFF DUP2 GT DUP3 DUP3 LT OR ISZERO PUSH2 0x1325 JUMPI PUSH1 0x0 DUP1 REVERT JUMPDEST PUSH1 0x40 MSTORE SWAP2 SWAP1 POP JUMP JUMPDEST PUSH1 0x0 JUMPDEST DUP4 DUP2 LT ISZERO PUSH2 0x1348 JUMPI DUP2 DUP2 ADD MLOAD DUP4 DUP3 ADD MSTORE PUSH1 0x20 ADD PUSH2 0x1330 JUMP JUMPDEST DUP4 DUP2 GT ISZERO PUSH2 0x1357 JUMPI PUSH1 0x0 DUP5 DUP5 ADD MSTORE JUMPDEST POP POP POP POP JUMP JUMPDEST PUSH20 0xFFFFFFFFFFFFFFFFFFFFFFFFFFFFFFFFFFFFFFFF DUP2 AND DUP2 EQ PUSH2 0x3EE JUMPI PUSH1 0x0 DUP1 REVERT INVALID LOG3 PUSH6 0x627A7A723158 KECCAK256 PUSH4 0xECEA5975 PUSH21 0xF0F78A75668344FE0B439794CE207110B6D2E40D3 DIFFICULTY 0xb1 0xb7 PUSH9 0xD36C6578706572696D PUSH6 0x6E74616CF564 PUSH20 0x6F6C634300050B00400000000000000000000000 "
			}
		}
	},
	"sourceTreeHashHex": "0x04023fa7383c3870731c03506094542290fbb4225730af5a7cdbf1ce6396606b",
	"compiler": {
		"name": "solc",
		"version": "soljson-v0.5.11+commit.c082d0b4.js",
		"settings": {
			"optimizer": {
				"enabled": true,
				"runs": 1000000,
				"details": {
					"yul": true,
					"deduplicate": true,
					"cse": true,
					"constantOptimizer": true
				}
			},
			"outputSelection": {
				"*": {
					"*": [
						"abi",
						"evm.bytecode.object",
						"evm.bytecode.sourceMap",
						"evm.deployedBytecode.object",
						"evm.deployedBytecode.sourceMap",
						"devdoc"
					]
				}
			},
			"evmVersion": "constantinople",
			"remappings": []
		}
	}
}