{
	"schemaVersion": "2.0.0",
	"contractName": "TestLibDummy",
	"compilerOutput": {
		"abi": [
			{
				"constant": true,
				"inputs": [
					{
						"internalType": "uint256",
						"name": "x",
						"type": "uint256"
					}
				],
				"name": "publicAddConstant",
				"outputs": [
					{
						"internalType": "uint256",
						"name": "result",
						"type": "uint256"
					}
				],
				"payable": false,
				"stateMutability": "pure",
				"type": "function"
			},
			{
				"constant": true,
				"inputs": [
					{
						"internalType": "uint256",
						"name": "x",
						"type": "uint256"
					}
				],
				"name": "publicAddOne",
				"outputs": [
					{
						"internalType": "uint256",
						"name": "result",
						"type": "uint256"
					}
				],
				"payable": false,
				"stateMutability": "pure",
				"type": "function"
			}
		],
		"devdoc": {
			"methods": {}
		},
		"evm": {
			"bytecode": {
				"linkReferences": {},
				"object": "0x608060405234801561001057600080fd5b5060d78061001f6000396000f3fe6080604052348015600f57600080fd5b506004361060325760003560e01c806322935e921460375780632b82fdf0146063575b600080fd5b605160048036036020811015604b57600080fd5b5035607d565b60408051918252519081900360200190f35b605160048036036020811015607757600080fd5b5035608c565b60006086826095565b92915050565b6000608682609c565b6104d20190565b6001019056fea265627a7a72315820e27a1e15a4d00b0a4f69dedd0dd86bd421688814d0cb18d3442efb8e48c07be564736f6c634300050c0032",
				"opcodes": "PUSH1 0x80 PUSH1 0x40 MSTORE CALLVALUE DUP1 ISZERO PUSH2 0x10 JUMPI PUSH1 0x0 DUP1 REVERT JUMPDEST POP PUSH1 0xD7 DUP1 PUSH2 0x1F PUSH1 0x0 CODECOPY PUSH1 0x0 RETURN INVALID PUSH1 0x80 PUSH1 0x40 MSTORE CALLVALUE DUP1 ISZERO PUSH1 0xF JUMPI PUSH1 0x0 DUP1 REVERT JUMPDEST POP PUSH1 0x4 CALLDATASIZE LT PUSH1 0x32 JUMPI PUSH1 0x0 CALLDATALOAD PUSH1 0xE0 SHR DUP1 PUSH4 0x22935E92 EQ PUSH1 0x37 JUMPI DUP1 PUSH4 0x2B82FDF0 EQ PUSH1 0x63 JUMPI JUMPDEST PUSH1 0x0 DUP1 REVERT JUMPDEST PUSH1 0x51 PUSH1 0x4 DUP1 CALLDATASIZE SUB PUSH1 0x20 DUP2 LT ISZERO PUSH1 0x4B JUMPI PUSH1 0x0 DUP1 REVERT JUMPDEST POP CALLDATALOAD PUSH1 0x7D JUMP JUMPDEST PUSH1 0x40 DUP1 MLOAD SWAP2 DUP3 MSTORE MLOAD SWAP1 DUP2 SWAP1 SUB PUSH1 0x20 ADD SWAP1 RETURN JUMPDEST PUSH1 0x51 PUSH1 0x4 DUP1 CALLDATASIZE SUB PUSH1 0x20 DUP2 LT ISZERO PUSH1 0x77 JUMPI PUSH1 0x0 DUP1 REVERT JUMPDEST POP CALLDATALOAD PUSH1 0x8C JUMP JUMPDEST PUSH1 0x0 PUSH1 0x86 DUP3 PUSH1 0x95 JUMP JUMPDEST SWAP3 SWAP2 POP POP JUMP JUMPDEST PUSH1 0x0 PUSH1 0x86 DUP3 PUSH1 0x9C JUMP JUMPDEST PUSH2 0x4D2 ADD SWAP1 JUMP JUMPDEST PUSH1 0x1 ADD SWAP1 JUMP INVALID LOG2 PUSH6 0x627A7A723158 KECCAK256 0xe2 PUSH27 0x1E15A4D00B0A4F69DEDD0DD86BD421688814D0CB18D3442EFB8E48 0xc0 PUSH28 0xE564736F6C634300050C003200000000000000000000000000000000 "
			}
		}
	},
	"sourceTreeHashHex": "0xd7efa9dfeb2bbdec2bead8b892d1288c1398b34216d26c6a48bffb25c692bbc0",
	"compiler": {
		"name": "solc",
		"version": "soljson-v0.5.12+commit.7709ece9.js",
		"settings": {
			"optimizer": {
				"enabled": true,
				"runs": 1000000,
				"details": {
					"yul": true,
					"deduplicate": true,
					"cse": true,
					"constantOptimizer": true
				}
			},
			"outputSelection": {
				"*": {
					"*": [
						"abi",
						"evm.bytecode.object",
						"evm.bytecode.sourceMap",
						"evm.deployedBytecode.object",
						"evm.deployedBytecode.sourceMap",
						"devdoc"
					]
				}
			},
			"evmVersion": "constantinople",
			"remappings": []
		}
	}
}