{
	"schemaVersion": "2.0.0",
	"contractName": "AssetProxyOwner",
	"compilerOutput": {
		"abi": [
			{
				"constant": true,
				"inputs": [
					{
						"name": "",
						"type": "uint256"
					}
				],
				"name": "owners",
				"outputs": [
					{
						"name": "",
						"type": "address"
					}
				],
				"payable": false,
				"stateMutability": "view",
				"type": "function"
			},
			{
				"constant": false,
				"inputs": [
					{
						"name": "owner",
						"type": "address"
					}
				],
				"name": "removeOwner",
				"outputs": [],
				"payable": false,
				"stateMutability": "nonpayable",
				"type": "function"
			},
			{
				"constant": false,
				"inputs": [
					{
						"name": "transactionId",
						"type": "uint256"
					}
				],
				"name": "revokeConfirmation",
				"outputs": [],
				"payable": false,
				"stateMutability": "nonpayable",
				"type": "function"
			},
			{
				"constant": true,
				"inputs": [
					{
						"name": "",
						"type": "address"
					}
				],
				"name": "isOwner",
				"outputs": [
					{
						"name": "",
						"type": "bool"
					}
				],
				"payable": false,
				"stateMutability": "view",
				"type": "function"
			},
			{
				"constant": true,
				"inputs": [
					{
						"name": "",
						"type": "uint256"
					},
					{
						"name": "",
						"type": "address"
					}
				],
				"name": "confirmations",
				"outputs": [
					{
						"name": "",
						"type": "bool"
					}
				],
				"payable": false,
				"stateMutability": "view",
				"type": "function"
			},
			{
				"constant": false,
				"inputs": [
					{
						"name": "transactionId",
						"type": "uint256"
					}
				],
				"name": "executeRemoveAuthorizedAddressAtIndex",
				"outputs": [],
				"payable": false,
				"stateMutability": "nonpayable",
				"type": "function"
			},
			{
				"constant": true,
				"inputs": [],
				"name": "secondsTimeLocked",
				"outputs": [
					{
						"name": "",
						"type": "uint256"
					}
				],
				"payable": false,
				"stateMutability": "view",
				"type": "function"
			},
			{
				"constant": true,
				"inputs": [
					{
						"name": "pending",
						"type": "bool"
					},
					{
						"name": "executed",
						"type": "bool"
					}
				],
				"name": "getTransactionCount",
				"outputs": [
					{
						"name": "count",
						"type": "uint256"
					}
				],
				"payable": false,
				"stateMutability": "view",
				"type": "function"
			},
			{
				"constant": false,
				"inputs": [
					{
						"name": "assetProxyContract",
						"type": "address"
					},
					{
						"name": "isRegistered",
						"type": "bool"
					}
				],
				"name": "registerAssetProxy",
				"outputs": [],
				"payable": false,
				"stateMutability": "nonpayable",
				"type": "function"
			},
			{
				"constant": false,
				"inputs": [
					{
						"name": "owner",
						"type": "address"
					}
				],
				"name": "addOwner",
				"outputs": [],
				"payable": false,
				"stateMutability": "nonpayable",
				"type": "function"
			},
			{
				"constant": true,
				"inputs": [
					{
						"name": "transactionId",
						"type": "uint256"
					}
				],
				"name": "isConfirmed",
				"outputs": [
					{
						"name": "",
						"type": "bool"
					}
				],
				"payable": false,
				"stateMutability": "view",
				"type": "function"
			},
			{
				"constant": false,
				"inputs": [
					{
						"name": "_secondsTimeLocked",
						"type": "uint256"
					}
				],
				"name": "changeTimeLock",
				"outputs": [],
				"payable": false,
				"stateMutability": "nonpayable",
				"type": "function"
			},
			{
				"constant": true,
				"inputs": [
					{
						"name": "",
						"type": "address"
					}
				],
				"name": "isAssetProxyRegistered",
				"outputs": [
					{
						"name": "",
						"type": "bool"
					}
				],
				"payable": false,
				"stateMutability": "view",
				"type": "function"
			},
			{
				"constant": true,
				"inputs": [
					{
						"name": "transactionId",
						"type": "uint256"
					}
				],
				"name": "getConfirmationCount",
				"outputs": [
					{
						"name": "count",
						"type": "uint256"
					}
				],
				"payable": false,
				"stateMutability": "view",
				"type": "function"
			},
			{
				"constant": true,
				"inputs": [
					{
						"name": "",
						"type": "uint256"
					}
				],
				"name": "transactions",
				"outputs": [
					{
						"name": "destination",
						"type": "address"
					},
					{
						"name": "value",
						"type": "uint256"
					},
					{
						"name": "data",
						"type": "bytes"
					},
					{
						"name": "executed",
						"type": "bool"
					}
				],
				"payable": false,
				"stateMutability": "view",
				"type": "function"
			},
			{
				"constant": true,
				"inputs": [],
				"name": "getOwners",
				"outputs": [
					{
						"name": "",
						"type": "address[]"
					}
				],
				"payable": false,
				"stateMutability": "view",
				"type": "function"
			},
			{
				"constant": true,
				"inputs": [
					{
						"name": "from",
						"type": "uint256"
					},
					{
						"name": "to",
						"type": "uint256"
					},
					{
						"name": "pending",
						"type": "bool"
					},
					{
						"name": "executed",
						"type": "bool"
					}
				],
				"name": "getTransactionIds",
				"outputs": [
					{
						"name": "_transactionIds",
						"type": "uint256[]"
					}
				],
				"payable": false,
				"stateMutability": "view",
				"type": "function"
			},
			{
				"constant": true,
				"inputs": [
					{
						"name": "transactionId",
						"type": "uint256"
					}
				],
				"name": "getConfirmations",
				"outputs": [
					{
						"name": "_confirmations",
						"type": "address[]"
					}
				],
				"payable": false,
				"stateMutability": "view",
				"type": "function"
			},
			{
				"constant": true,
				"inputs": [],
				"name": "transactionCount",
				"outputs": [
					{
						"name": "",
						"type": "uint256"
					}
				],
				"payable": false,
				"stateMutability": "view",
				"type": "function"
			},
			{
				"constant": false,
				"inputs": [
					{
						"name": "_required",
						"type": "uint256"
					}
				],
				"name": "changeRequirement",
				"outputs": [],
				"payable": false,
				"stateMutability": "nonpayable",
				"type": "function"
			},
			{
				"constant": false,
				"inputs": [
					{
						"name": "transactionId",
						"type": "uint256"
					}
				],
				"name": "confirmTransaction",
				"outputs": [],
				"payable": false,
				"stateMutability": "nonpayable",
				"type": "function"
			},
			{
				"constant": false,
				"inputs": [
					{
						"name": "destination",
						"type": "address"
					},
					{
						"name": "value",
						"type": "uint256"
					},
					{
						"name": "data",
						"type": "bytes"
					}
				],
				"name": "submitTransaction",
				"outputs": [
					{
						"name": "transactionId",
						"type": "uint256"
					}
				],
				"payable": false,
				"stateMutability": "nonpayable",
				"type": "function"
			},
			{
				"constant": true,
				"inputs": [
					{
						"name": "",
						"type": "uint256"
					}
				],
				"name": "confirmationTimes",
				"outputs": [
					{
						"name": "",
						"type": "uint256"
					}
				],
				"payable": false,
				"stateMutability": "view",
				"type": "function"
			},
			{
				"constant": true,
				"inputs": [],
				"name": "MAX_OWNER_COUNT",
				"outputs": [
					{
						"name": "",
						"type": "uint256"
					}
				],
				"payable": false,
				"stateMutability": "view",
				"type": "function"
			},
			{
				"constant": true,
				"inputs": [],
				"name": "required",
				"outputs": [
					{
						"name": "",
						"type": "uint256"
					}
				],
				"payable": false,
				"stateMutability": "view",
				"type": "function"
			},
			{
				"constant": false,
				"inputs": [
					{
						"name": "owner",
						"type": "address"
					},
					{
						"name": "newOwner",
						"type": "address"
					}
				],
				"name": "replaceOwner",
				"outputs": [],
				"payable": false,
				"stateMutability": "nonpayable",
				"type": "function"
			},
			{
				"constant": false,
				"inputs": [
					{
						"name": "transactionId",
						"type": "uint256"
					}
				],
				"name": "executeTransaction",
				"outputs": [],
				"payable": false,
				"stateMutability": "nonpayable",
				"type": "function"
			},
			{
				"inputs": [
					{
						"name": "_owners",
						"type": "address[]"
					},
					{
						"name": "_assetProxyContracts",
						"type": "address[]"
					},
					{
						"name": "_required",
						"type": "uint256"
					},
					{
						"name": "_secondsTimeLocked",
						"type": "uint256"
					}
				],
				"payable": false,
				"stateMutability": "nonpayable",
				"type": "constructor"
			},
			{
				"payable": true,
				"stateMutability": "payable",
				"type": "fallback"
			},
			{
				"anonymous": false,
				"inputs": [
					{
						"indexed": false,
						"name": "assetProxyContract",
						"type": "address"
					},
					{
						"indexed": false,
						"name": "isRegistered",
						"type": "bool"
					}
				],
				"name": "AssetProxyRegistration",
				"type": "event"
			},
			{
				"anonymous": false,
				"inputs": [
					{
						"indexed": true,
						"name": "transactionId",
						"type": "uint256"
					},
					{
						"indexed": false,
						"name": "confirmationTime",
						"type": "uint256"
					}
				],
				"name": "ConfirmationTimeSet",
				"type": "event"
			},
			{
				"anonymous": false,
				"inputs": [
					{
						"indexed": false,
						"name": "secondsTimeLocked",
						"type": "uint256"
					}
				],
				"name": "TimeLockChange",
				"type": "event"
			},
			{
				"anonymous": false,
				"inputs": [
					{
						"indexed": true,
						"name": "sender",
						"type": "address"
					},
					{
						"indexed": true,
						"name": "transactionId",
						"type": "uint256"
					}
				],
				"name": "Confirmation",
				"type": "event"
			},
			{
				"anonymous": false,
				"inputs": [
					{
						"indexed": true,
						"name": "sender",
						"type": "address"
					},
					{
						"indexed": true,
						"name": "transactionId",
						"type": "uint256"
					}
				],
				"name": "Revocation",
				"type": "event"
			},
			{
				"anonymous": false,
				"inputs": [
					{
						"indexed": true,
						"name": "transactionId",
						"type": "uint256"
					}
				],
				"name": "Submission",
				"type": "event"
			},
			{
				"anonymous": false,
				"inputs": [
					{
						"indexed": true,
						"name": "transactionId",
						"type": "uint256"
					}
				],
				"name": "Execution",
				"type": "event"
			},
			{
				"anonymous": false,
				"inputs": [
					{
						"indexed": true,
						"name": "transactionId",
						"type": "uint256"
					}
				],
				"name": "ExecutionFailure",
				"type": "event"
			},
			{
				"anonymous": false,
				"inputs": [
					{
						"indexed": true,
						"name": "sender",
						"type": "address"
					},
					{
						"indexed": false,
						"name": "value",
						"type": "uint256"
					}
				],
				"name": "Deposit",
				"type": "event"
			},
			{
				"anonymous": false,
				"inputs": [
					{
						"indexed": true,
						"name": "owner",
						"type": "address"
					}
				],
				"name": "OwnerAddition",
				"type": "event"
			},
			{
				"anonymous": false,
				"inputs": [
					{
						"indexed": true,
						"name": "owner",
						"type": "address"
					}
				],
				"name": "OwnerRemoval",
				"type": "event"
			},
			{
				"anonymous": false,
				"inputs": [
					{
						"indexed": false,
						"name": "required",
						"type": "uint256"
					}
				],
				"name": "RequirementChange",
				"type": "event"
			}
		],
		"evm": {
			"bytecode": {
				"linkReferences": {},
				"object": "0x60806040523480156200001157600080fd5b50604051620021a0380380620021a08339810160409081528151602083015191830151606084015191840180519094939093019290919060009081908690859085908390839086908260328211806200006957508181115b8062000073575080155b806200007d575081155b156200008857600080fd5b600092505b84518310156200015c57600260008685815181101515620000aa57fe5b6020908102909101810151600160a060020a031682528101919091526040016000205460ff1680620000fd57508483815181101515620000e657fe5b90602001906020020151600160a060020a03166000145b156200010857600080fd5b60016002600087868151811015156200011d57fe5b602090810291909101810151600160a060020a03168252810191909152604001600020805460ff1916911515919091179055600192909201916200008d565b845162000171906003906020880190620001fe565b50505060049190915550506006555060009250505b8451821015620001f25784828151811015156200019f57fe5b602090810290910101519050600160a060020a0381161515620001c157600080fd5b600160a060020a0381166000908152600860205260409020805460ff19166001908117909155919091019062000186565b50505050505062000292565b82805482825590600052602060002090810192821562000256579160200282015b82811115620002565782518254600160a060020a031916600160a060020a039091161782556020909201916001909101906200021f565b506200026492915062000268565b5090565b6200028f91905b8082111562000264578054600160a060020a03191681556001016200026f565b90565b611efe80620002a26000396000f30060806040526004361061015e5763ffffffff7c0100000000000000000000000000000000000000000000000000000000600035041663025e7c2781146101a0578063173825d9146101e157806320ea8d861461020f5780632f54bf6e146102275780633411c81c146102695780633589b35c1461029a57806337bd78a0146102b257806354741525146102d95780635a1a66af146102f85780637065cb481461032b578063784547a7146103595780637ad28c511461037157806383250f79146103895780638b51d13f146103b75780639ace38c2146103cf578063a0e67e2b146104a4578063a8abe69a14610509578063b5dc40c31461052e578063b77bf60014610546578063ba51a6df1461055b578063c01a8c8414610573578063c64274741461058b578063d38f2d8214610601578063d74f8edd14610619578063dc8452cd1461062e578063e20056e614610643578063ee22610b14610677575b600034111561019e5760408051348152905133917fe1fffcc4923d04b559f4d29a8bfc6cda04eb5b0d3c460751c2402c5c5cc9109c919081900360200190a25b005b3480156101ac57600080fd5b506101b860043561068f565b6040805173ffffffffffffffffffffffffffffffffffffffff9092168252519081900360200190f35b3480156101ed57600080fd5b5061019e73ffffffffffffffffffffffffffffffffffffffff600435166106c4565b34801561021b57600080fd5b5061019e60043561091b565b34801561023357600080fd5b5061025573ffffffffffffffffffffffffffffffffffffffff60043516610a08565b604080519115158252519081900360200190f35b34801561027557600080fd5b5061025560043573ffffffffffffffffffffffffffffffffffffffff60243516610a1d565b3480156102a657600080fd5b5061019e600435610a3d565b3480156102be57600080fd5b506102c7610db9565b60408051918252519081900360200190f35b3480156102e557600080fd5b506102c760043515156024351515610dbf565b34801561030457600080fd5b5061019e73ffffffffffffffffffffffffffffffffffffffff600435166024351515610e2b565b34801561033757600080fd5b5061019e73ffffffffffffffffffffffffffffffffffffffff60043516610eea565b34801561036557600080fd5b50610255600435611057565b34801561037d57600080fd5b5061019e6004356110e8565b34801561039557600080fd5b5061025573ffffffffffffffffffffffffffffffffffffffff6004351661112f565b3480156103c357600080fd5b506102c7600435611144565b3480156103db57600080fd5b506103e76004356111c0565b604051808573ffffffffffffffffffffffffffffffffffffffff1673ffffffffffffffffffffffffffffffffffffffff1681526020018481526020018060200183151515158152602001828103825284818151815260200191508051906020019080838360005b8381101561046657818101518382015260200161044e565b50505050905090810190601f1680156104935780820380516001836020036101000a031916815260200191505b509550505050505060405180910390f35b3480156104b057600080fd5b506104b96112a9565b60408051602080825283518183015283519192839290830191858101910280838360005b838110156104f55781810151838201526020016104dd565b505050509050019250505060405180910390f35b34801561051557600080fd5b506104b960043560243560443515156064351515611319565b34801561053a57600080fd5b506104b9600435611452565b34801561055257600080fd5b506102c76115ff565b34801561056757600080fd5b5061019e600435611605565b34801561057f57600080fd5b5061019e60043561167c565b34801561059757600080fd5b50604080516020600460443581810135601f81018490048402850184019095528484526102c794823573ffffffffffffffffffffffffffffffffffffffff1694602480359536959460649492019190819084018382808284375094975061178e9650505050505050565b34801561060d57600080fd5b506102c76004356117ad565b34801561062557600080fd5b506102c76117bf565b34801561063a57600080fd5b506102c76117c4565b34801561064f57600080fd5b5061019e73ffffffffffffffffffffffffffffffffffffffff600435811690602435166117ca565b34801561068357600080fd5b5061019e6004356119da565b600380548290811061069d57fe5b60009182526020909120015473ffffffffffffffffffffffffffffffffffffffff16905081565b60003330146106d257600080fd5b73ffffffffffffffffffffffffffffffffffffffff8216600090815260026020526040902054829060ff16151561070857600080fd5b73ffffffffffffffffffffffffffffffffffffffff8316600090815260026020526040812080547fffffffffffffffffffffffffffffffffffffffffffffffffffffffffffffff0016905591505b6003547fffffffffffffffffffffffffffffffffffffffffffffffffffffffffffffffff0182101561088b578273ffffffffffffffffffffffffffffffffffffffff166003838154811015156107a857fe5b60009182526020909120015473ffffffffffffffffffffffffffffffffffffffff16141561088057600380547fffffffffffffffffffffffffffffffffffffffffffffffffffffffffffffffff810190811061080057fe5b6000918252602090912001546003805473ffffffffffffffffffffffffffffffffffffffff909216918490811061083357fe5b9060005260206000200160006101000a81548173ffffffffffffffffffffffffffffffffffffffff021916908373ffffffffffffffffffffffffffffffffffffffff16021790555061088b565b600190910190610756565b600380547fffffffffffffffffffffffffffffffffffffffffffffffffffffffffffffffff01906108bc9082611e11565b5060035460045411156108d5576003546108d590611605565b60405173ffffffffffffffffffffffffffffffffffffffff8416907f8001553a916ef2f495d26a907cc54d96ed840d7bda71e73194bf5a9df7a76b9090600090a2505050565b3360008181526002602052604090205460ff16151561093957600080fd5b60008281526001602090815260408083203380855292529091205483919060ff16151561096557600080fd5b600084815260208190526040902060030154849060ff161561098657600080fd5b8461099081611057565b1561099a57600080fd5b600086815260016020908152604080832033808552925280832080547fffffffffffffffffffffffffffffffffffffffffffffffffffffffffffffff001690555188927ff6a317157440607f36269043eb55f1287a5a19ba2216afeab88cd46cbcfb88e991a3505050505050565b60026020526000908152604090205460ff1681565b600160209081526000928352604080842090915290825290205460ff1681565b600081815260208190526040812060030154829060ff1615610a5e57600080fd5b82610a6881611057565b1515610a7357600080fd5b600084815260208181526040808320805473ffffffffffffffffffffffffffffffffffffffff16845260089092529091205485919060ff161515610ab657600080fd5b604080517f72656d6f7665417574686f72697a6564416464726573734174496e646578286181527f6464726573732c75696e74323536290000000000000000000000000000000000602080830191909152825191829003602f01822060028086018054601f7fffffffffffffffffffffffffffffffffffffffffffffffffffffffffffffffff61010060018416150201909116929092049182018490048402850184019095528084527fffffffff0000000000000000000000000000000000000000000000000000000090911693610bf293600093909290830182828015610bdf5780601f10610bb457610100808354040283529160200191610bdf565b820191906000526020600020905b815481529060010190602001808311610bc257829003601f168201915b5050505050611bcb90919063ffffffff16565b7fffffffff000000000000000000000000000000000000000000000000000000001614610c1e57600080fd5b600086815260208190526040908190206003810180547fffffffffffffffffffffffffffffffffffffffffffffffffffffffffffffff00166001908117909155815481830154935160028085018054959b5073ffffffffffffffffffffffffffffffffffffffff909316959492939192839285927fffffffffffffffffffffffffffffffffffffffffffffffffffffffffffffffff918316156101000291909101909116048015610d105780601f10610ce557610100808354040283529160200191610d10565b820191906000526020600020905b815481529060010190602001808311610cf357829003601f168201915b505091505060006040518083038185875af19250505015610d5b5760405186907f33e13ecb54c3076d8e8bb8c2881800a4d972b792045ffae98fdf46df365fed7590600090a2610db1565b60405186907f526441bb6c1aba3c9a4a6ca1d6545da9c2333c8c48343ef398eb858d72b7923690600090a26003850180547fffffffffffffffffffffffffffffffffffffffffffffffffffffffffffffff001690555b505050505050565b60065481565b6000805b600554811015610e2457838015610dec575060008181526020819052604090206003015460ff16155b80610e105750828015610e10575060008181526020819052604090206003015460ff165b15610e1c576001820191505b600101610dc3565b5092915050565b333014610e3757600080fd5b8173ffffffffffffffffffffffffffffffffffffffff81161515610e5a57600080fd5b73ffffffffffffffffffffffffffffffffffffffff831660008181526008602090815260409182902080547fffffffffffffffffffffffffffffffffffffffffffffffffffffffffffffff001686151590811790915582519384529083015280517fdaef8ff7dc66c5e34eb9c338aab679d9f427f89868d9228494455a4d982eb2b09281900390910190a1505050565b333014610ef657600080fd5b73ffffffffffffffffffffffffffffffffffffffff8116600090815260026020526040902054819060ff1615610f2b57600080fd5b8173ffffffffffffffffffffffffffffffffffffffff81161515610f4e57600080fd5b6003805490506001016004546032821180610f6857508181115b80610f71575080155b80610f7a575081155b15610f8457600080fd5b73ffffffffffffffffffffffffffffffffffffffff851660008181526002602052604080822080547fffffffffffffffffffffffffffffffffffffffffffffffffffffffffffffff0016600190811790915560038054918201815583527fc2575a0e9e593c00f959f8c92f12db2869c3395a3b0502d05e2516446f71f85b0180547fffffffffffffffffffffffff00000000000000000000000000000000000000001684179055517ff39e6e1eb0edcf53c221607b54b00cd28f3196fed0a24994dc308b8f611b682d9190a25050505050565b600080805b6003548110156110e1576000848152600160205260408120600380549192918490811061108557fe5b600091825260208083209091015473ffffffffffffffffffffffffffffffffffffffff16835282019290925260400190205460ff16156110c6576001820191505b6004548214156110d957600192506110e1565b60010161105c565b5050919050565b3330146110f457600080fd5b60068190556040805182815290517fd1c9101a34feff75cccef14a28785a0279cb0b49c1f321f21f5f422e746b43779181900360200190a150565b60086020526000908152604090205460ff1681565b6000805b6003548110156111ba576000838152600160205260408120600380549192918490811061117157fe5b600091825260208083209091015473ffffffffffffffffffffffffffffffffffffffff16835282019290925260400190205460ff16156111b2576001820191505b600101611148565b50919050565b60006020818152918152604090819020805460018083015460028085018054875161010095821615959095027fffffffffffffffffffffffffffffffffffffffffffffffffffffffffffffffff011691909104601f810188900488028401880190965285835273ffffffffffffffffffffffffffffffffffffffff909316959094919291908301828280156112965780601f1061126b57610100808354040283529160200191611296565b820191906000526020600020905b81548152906001019060200180831161127957829003601f168201915b5050506003909301549192505060ff1684565b6060600380548060200260200160405190810160405280929190818152602001828054801561130e57602002820191906000526020600020905b815473ffffffffffffffffffffffffffffffffffffffff1681526001909101906020018083116112e3575b505050505090505b90565b60608060008060055460405190808252806020026020018201604052801561134b578160200160208202803883390190505b50925060009150600090505b6005548110156113d257858015611380575060008181526020819052604090206003015460ff16155b806113a457508480156113a4575060008181526020819052604090206003015460ff165b156113ca578083838151811015156113b857fe5b60209081029091010152600191909101905b600101611357565b8787036040519080825280602002602001820160405280156113fe578160200160208202803883390190505b5093508790505b8681101561144757828181518110151561141b57fe5b906020019060200201518489830381518110151561143557fe5b60209081029091010152600101611405565b505050949350505050565b606080600080600380549050604051908082528060200260200182016040528015611487578160200160208202803883390190505b50925060009150600090505b60035481101561156b57600085815260016020526040812060038054919291849081106114bc57fe5b600091825260208083209091015473ffffffffffffffffffffffffffffffffffffffff16835282019290925260400190205460ff161561156357600380548290811061150457fe5b600091825260209091200154835173ffffffffffffffffffffffffffffffffffffffff9091169084908490811061153757fe5b73ffffffffffffffffffffffffffffffffffffffff909216602092830290910190910152600191909101905b600101611493565b81604051908082528060200260200182016040528015611595578160200160208202803883390190505b509350600090505b818110156115f75782818151811015156115b357fe5b9060200190602002015184828151811015156115cb57fe5b73ffffffffffffffffffffffffffffffffffffffff90921660209283029091019091015260010161159d565b505050919050565b60055481565b33301461161157600080fd5b60035481603282118061162357508181115b8061162c575080155b80611635575081155b1561163f57600080fd5b60048390556040805184815290517fa3f1ee9126a074d9326c682f561767f710e927faa811f7a99829d49dc421797a9181900360200190a1505050565b3360008181526002602052604090205460ff16151561169a57600080fd5b600082815260208190526040902054829073ffffffffffffffffffffffffffffffffffffffff1615156116cc57600080fd5b60008381526001602090815260408083203380855292529091205484919060ff16156116f757600080fd5b8461170181611057565b1561170b57600080fd5b600086815260016020818152604080842033808652925280842080547fffffffffffffffffffffffffffffffffffffffffffffffffffffffffffffff0016909317909255905188927f4a504a94899432a9846e1aa406dceb1bcfd538bb839071d49d1e5e23f5be30ef91a361177f86611057565b15610db157610db18642611c93565b600061179b848484611cde565b90506117a68161167c565b9392505050565b60076020526000908152604090205481565b603281565b60045481565b60003330146117d857600080fd5b73ffffffffffffffffffffffffffffffffffffffff8316600090815260026020526040902054839060ff16151561180e57600080fd5b73ffffffffffffffffffffffffffffffffffffffff8316600090815260026020526040902054839060ff161561184357600080fd5b600092505b600354831015611908578473ffffffffffffffffffffffffffffffffffffffff1660038481548110151561187857fe5b60009182526020909120015473ffffffffffffffffffffffffffffffffffffffff1614156118fd57836003848154811015156118b057fe5b9060005260206000200160006101000a81548173ffffffffffffffffffffffffffffffffffffffff021916908373ffffffffffffffffffffffffffffffffffffffff160217905550611908565b600190920191611848565b73ffffffffffffffffffffffffffffffffffffffff80861660008181526002602052604080822080547fffffffffffffffffffffffffffffffffffffffffffffffffffffffffffffff0090811690915593881682528082208054909416600117909355915190917f8001553a916ef2f495d26a907cc54d96ed840d7bda71e73194bf5a9df7a76b9091a260405173ffffffffffffffffffffffffffffffffffffffff8516907ff39e6e1eb0edcf53c221607b54b00cd28f3196fed0a24994dc308b8f611b682d90600090a25050505050565b600081815260208190526040812060030154829060ff16156119fb57600080fd5b82611a0581611057565b1515611a1057600080fd5b600654600085815260076020526040902054859101421015611a3157600080fd5b600085815260208190526040908190206003810180547fffffffffffffffffffffffffffffffffffffffffffffffffffffffffffffff00166001908117909155815481830154935160028085018054959a5073ffffffffffffffffffffffffffffffffffffffff909316959492939192839285927fffffffffffffffffffffffffffffffffffffffffffffffffffffffffffffffff918316156101000291909101909116048015611b235780601f10611af857610100808354040283529160200191611b23565b820191906000526020600020905b815481529060010190602001808311611b0657829003601f168201915b505091505060006040518083038185875af19250505015611b6e5760405185907f33e13ecb54c3076d8e8bb8c2881800a4d972b792045ffae98fdf46df365fed7590600090a2611bc4565b60405185907f526441bb6c1aba3c9a4a6ca1d6545da9c2333c8c48343ef398eb858d72b7923690600090a26003840180547fffffffffffffffffffffffffffffffffffffffffffffffffffffffffffffff001690555b5050505050565b600081600401835110151515611c6857604080517f08c379a000000000000000000000000000000000000000000000000000000000815260206004820152602560248201527f475245415445525f4f525f455155414c5f544f5f345f4c454e4754485f52455160448201527f5549524544000000000000000000000000000000000000000000000000000000606482015290519081900360840190fd5b5050602001517fffffffff000000000000000000000000000000000000000000000000000000001690565b6000828152600760209081526040918290208390558151838152915184927f0b237afe65f1514fd7ea3f923ea4fe792bdd07000a912b6cd1602a8e7f573c8d92908290030190a25050565b60008373ffffffffffffffffffffffffffffffffffffffff81161515611d0357600080fd5b6005546040805160808101825273ffffffffffffffffffffffffffffffffffffffff8881168252602080830189815283850189815260006060860181905287815280845295909520845181547fffffffffffffffffffffffff00000000000000000000000000000000000000001694169390931783555160018301559251805194965091939092611d9b926002850192910190611e3a565b5060609190910151600390910180547fffffffffffffffffffffffffffffffffffffffffffffffffffffffffffffff001691151591909117905560058054600101905560405182907fc0ba8fe4b176c1714197d43b9cc6bcf797a4a7461c5fe8d0ef6e184ae7601e5190600090a2509392505050565b815481835581811115611e3557600083815260209020611e35918101908301611eb8565b505050565b828054600181600116156101000203166002900490600052602060002090601f016020900481019282601f10611e7b57805160ff1916838001178555611ea8565b82800160010185558215611ea8579182015b82811115611ea8578251825591602001919060010190611e8d565b50611eb4929150611eb8565b5090565b61131691905b80821115611eb45760008155600101611ebe5600a165627a7a7230582084376847542a16eb1378ca448798da98c60d2fd131f45f2be7fdd80d42d951d70029",
				"opcodes": "PUSH1 0x80 PUSH1 0x40 MSTORE CALLVALUE DUP1 ISZERO PUSH3 0x11 JUMPI PUSH1 0x0 DUP1 REVERT JUMPDEST POP PUSH1 0x40 MLOAD PUSH3 0x21A0 CODESIZE SUB DUP1 PUSH3 0x21A0 DUP4 CODECOPY DUP2 ADD PUSH1 0x40 SWAP1 DUP2 MSTORE DUP2 MLOAD PUSH1 0x20 DUP4 ADD MLOAD SWAP2 DUP4 ADD MLOAD PUSH1 0x60 DUP5 ADD MLOAD SWAP2 DUP5 ADD DUP1 MLOAD SWAP1 SWAP5 SWAP4 SWAP1 SWAP4 ADD SWAP3 SWAP1 SWAP2 SWAP1 PUSH1 0x0 SWAP1 DUP2 SWAP1 DUP7 SWAP1 DUP6 SWAP1 DUP6 SWAP1 DUP4 SWAP1 DUP4 SWAP1 DUP7 SWAP1 DUP3 PUSH1 0x32 DUP3 GT DUP1 PUSH3 0x69 JUMPI POP DUP2 DUP2 GT JUMPDEST DUP1 PUSH3 0x73 JUMPI POP DUP1 ISZERO JUMPDEST DUP1 PUSH3 0x7D JUMPI POP DUP2 ISZERO JUMPDEST ISZERO PUSH3 0x88 JUMPI PUSH1 0x0 DUP1 REVERT JUMPDEST PUSH1 0x0 SWAP3 POP JUMPDEST DUP5 MLOAD DUP4 LT ISZERO PUSH3 0x15C JUMPI PUSH1 0x2 PUSH1 0x0 DUP7 DUP6 DUP2 MLOAD DUP2 LT ISZERO ISZERO PUSH3 0xAA JUMPI INVALID JUMPDEST PUSH1 0x20 SWAP1 DUP2 MUL SWAP1 SWAP2 ADD DUP2 ADD MLOAD PUSH1 0x1 PUSH1 0xA0 PUSH1 0x2 EXP SUB AND DUP3 MSTORE DUP2 ADD SWAP2 SWAP1 SWAP2 MSTORE PUSH1 0x40 ADD PUSH1 0x0 KECCAK256 SLOAD PUSH1 0xFF AND DUP1 PUSH3 0xFD JUMPI POP DUP5 DUP4 DUP2 MLOAD DUP2 LT ISZERO ISZERO PUSH3 0xE6 JUMPI INVALID JUMPDEST SWAP1 PUSH1 0x20 ADD SWAP1 PUSH1 0x20 MUL ADD MLOAD PUSH1 0x1 PUSH1 0xA0 PUSH1 0x2 EXP SUB AND PUSH1 0x0 EQ JUMPDEST ISZERO PUSH3 0x108 JUMPI PUSH1 0x0 DUP1 REVERT JUMPDEST PUSH1 0x1 PUSH1 0x2 PUSH1 0x0 DUP8 DUP7 DUP2 MLOAD DUP2 LT ISZERO ISZERO PUSH3 0x11D JUMPI INVALID JUMPDEST PUSH1 0x20 SWAP1 DUP2 MUL SWAP2 SWAP1 SWAP2 ADD DUP2 ADD MLOAD PUSH1 0x1 PUSH1 0xA0 PUSH1 0x2 EXP SUB AND DUP3 MSTORE DUP2 ADD SWAP2 SWAP1 SWAP2 MSTORE PUSH1 0x40 ADD PUSH1 0x0 KECCAK256 DUP1 SLOAD PUSH1 0xFF NOT AND SWAP2 ISZERO ISZERO SWAP2 SWAP1 SWAP2 OR SWAP1 SSTORE PUSH1 0x1 SWAP3 SWAP1 SWAP3 ADD SWAP2 PUSH3 0x8D JUMP JUMPDEST DUP5 MLOAD PUSH3 0x171 SWAP1 PUSH1 0x3 SWAP1 PUSH1 0x20 DUP9 ADD SWAP1 PUSH3 0x1FE JUMP JUMPDEST POP POP POP PUSH1 0x4 SWAP2 SWAP1 SWAP2 SSTORE POP POP PUSH1 0x6 SSTORE POP PUSH1 0x0 SWAP3 POP POP JUMPDEST DUP5 MLOAD DUP3 LT ISZERO PUSH3 0x1F2 JUMPI DUP5 DUP3 DUP2 MLOAD DUP2 LT ISZERO ISZERO PUSH3 0x19F JUMPI INVALID JUMPDEST PUSH1 0x20 SWAP1 DUP2 MUL SWAP1 SWAP2 ADD ADD MLOAD SWAP1 POP PUSH1 0x1 PUSH1 0xA0 PUSH1 0x2 EXP SUB DUP2 AND ISZERO ISZERO PUSH3 0x1C1 JUMPI PUSH1 0x0 DUP1 REVERT JUMPDEST PUSH1 0x1 PUSH1 0xA0 PUSH1 0x2 EXP SUB DUP2 AND PUSH1 0x0 SWAP1 DUP2 MSTORE PUSH1 0x8 PUSH1 0x20 MSTORE PUSH1 0x40 SWAP1 KECCAK256 DUP1 SLOAD PUSH1 0xFF NOT AND PUSH1 0x1 SWAP1 DUP2 OR SWAP1 SWAP2 SSTORE SWAP2 SWAP1 SWAP2 ADD SWAP1 PUSH3 0x186 JUMP JUMPDEST POP POP POP POP POP POP PUSH3 0x292 JUMP JUMPDEST DUP3 DUP1 SLOAD DUP3 DUP3 SSTORE SWAP1 PUSH1 0x0 MSTORE PUSH1 0x20 PUSH1 0x0 KECCAK256 SWAP1 DUP2 ADD SWAP3 DUP3 ISZERO PUSH3 0x256 JUMPI SWAP2 PUSH1 0x20 MUL DUP3 ADD JUMPDEST DUP3 DUP2 GT ISZERO PUSH3 0x256 JUMPI DUP3 MLOAD DUP3 SLOAD PUSH1 0x1 PUSH1 0xA0 PUSH1 0x2 EXP SUB NOT AND PUSH1 0x1 PUSH1 0xA0 PUSH1 0x2 EXP SUB SWAP1 SWAP2 AND OR DUP3 SSTORE PUSH1 0x20 SWAP1 SWAP3 ADD SWAP2 PUSH1 0x1 SWAP1 SWAP2 ADD SWAP1 PUSH3 0x21F JUMP JUMPDEST POP PUSH3 0x264 SWAP3 SWAP2 POP PUSH3 0x268 JUMP JUMPDEST POP SWAP1 JUMP JUMPDEST PUSH3 0x28F SWAP2 SWAP1 JUMPDEST DUP1 DUP3 GT ISZERO PUSH3 0x264 JUMPI DUP1 SLOAD PUSH1 0x1 PUSH1 0xA0 PUSH1 0x2 EXP SUB NOT AND DUP2 SSTORE PUSH1 0x1 ADD PUSH3 0x26F JUMP JUMPDEST SWAP1 JUMP JUMPDEST PUSH2 0x1EFE DUP1 PUSH3 0x2A2 PUSH1 0x0 CODECOPY PUSH1 0x0 RETURN STOP PUSH1 0x80 PUSH1 0x40 MSTORE PUSH1 0x4 CALLDATASIZE LT PUSH2 0x15E JUMPI PUSH4 0xFFFFFFFF PUSH29 0x100000000000000000000000000000000000000000000000000000000 PUSH1 0x0 CALLDATALOAD DIV AND PUSH4 0x25E7C27 DUP2 EQ PUSH2 0x1A0 JUMPI DUP1 PUSH4 0x173825D9 EQ PUSH2 0x1E1 JUMPI DUP1 PUSH4 0x20EA8D86 EQ PUSH2 0x20F JUMPI DUP1 PUSH4 0x2F54BF6E EQ PUSH2 0x227 JUMPI DUP1 PUSH4 0x3411C81C EQ PUSH2 0x269 JUMPI DUP1 PUSH4 0x3589B35C EQ PUSH2 0x29A JUMPI DUP1 PUSH4 0x37BD78A0 EQ PUSH2 0x2B2 JUMPI DUP1 PUSH4 0x54741525 EQ PUSH2 0x2D9 JUMPI DUP1 PUSH4 0x5A1A66AF EQ PUSH2 0x2F8 JUMPI DUP1 PUSH4 0x7065CB48 EQ PUSH2 0x32B JUMPI DUP1 PUSH4 0x784547A7 EQ PUSH2 0x359 JUMPI DUP1 PUSH4 0x7AD28C51 EQ PUSH2 0x371 JUMPI DUP1 PUSH4 0x83250F79 EQ PUSH2 0x389 JUMPI DUP1 PUSH4 0x8B51D13F EQ PUSH2 0x3B7 JUMPI DUP1 PUSH4 0x9ACE38C2 EQ PUSH2 0x3CF JUMPI DUP1 PUSH4 0xA0E67E2B EQ PUSH2 0x4A4 JUMPI DUP1 PUSH4 0xA8ABE69A EQ PUSH2 0x509 JUMPI DUP1 PUSH4 0xB5DC40C3 EQ PUSH2 0x52E JUMPI DUP1 PUSH4 0xB77BF600 EQ PUSH2 0x546 JUMPI DUP1 PUSH4 0xBA51A6DF EQ PUSH2 0x55B JUMPI DUP1 PUSH4 0xC01A8C84 EQ PUSH2 0x573 JUMPI DUP1 PUSH4 0xC6427474 EQ PUSH2 0x58B JUMPI DUP1 PUSH4 0xD38F2D82 EQ PUSH2 0x601 JUMPI DUP1 PUSH4 0xD74F8EDD EQ PUSH2 0x619 JUMPI DUP1 PUSH4 0xDC8452CD EQ PUSH2 0x62E JUMPI DUP1 PUSH4 0xE20056E6 EQ PUSH2 0x643 JUMPI DUP1 PUSH4 0xEE22610B EQ PUSH2 0x677 JUMPI JUMPDEST PUSH1 0x0 CALLVALUE GT ISZERO PUSH2 0x19E JUMPI PUSH1 0x40 DUP1 MLOAD CALLVALUE DUP2 MSTORE SWAP1 MLOAD CALLER SWAP2 PUSH32 0xE1FFFCC4923D04B559F4D29A8BFC6CDA04EB5B0D3C460751C2402C5C5CC9109C SWAP2 SWAP1 DUP2 SWAP1 SUB PUSH1 0x20 ADD SWAP1 LOG2 JUMPDEST STOP JUMPDEST CALLVALUE DUP1 ISZERO PUSH2 0x1AC JUMPI PUSH1 0x0 DUP1 REVERT JUMPDEST POP PUSH2 0x1B8 PUSH1 0x4 CALLDATALOAD PUSH2 0x68F JUMP JUMPDEST PUSH1 0x40 DUP1 MLOAD PUSH20 0xFFFFFFFFFFFFFFFFFFFFFFFFFFFFFFFFFFFFFFFF SWAP1 SWAP3 AND DUP3 MSTORE MLOAD SWAP1 DUP2 SWAP1 SUB PUSH1 0x20 ADD SWAP1 RETURN JUMPDEST CALLVALUE DUP1 ISZERO PUSH2 0x1ED JUMPI PUSH1 0x0 DUP1 REVERT JUMPDEST POP PUSH2 0x19E PUSH20 0xFFFFFFFFFFFFFFFFFFFFFFFFFFFFFFFFFFFFFFFF PUSH1 0x4 CALLDATALOAD AND PUSH2 0x6C4 JUMP JUMPDEST CALLVALUE DUP1 ISZERO PUSH2 0x21B JUMPI PUSH1 0x0 DUP1 REVERT JUMPDEST POP PUSH2 0x19E PUSH1 0x4 CALLDATALOAD PUSH2 0x91B JUMP JUMPDEST CALLVALUE DUP1 ISZERO PUSH2 0x233 JUMPI PUSH1 0x0 DUP1 REVERT JUMPDEST POP PUSH2 0x255 PUSH20 0xFFFFFFFFFFFFFFFFFFFFFFFFFFFFFFFFFFFFFFFF PUSH1 0x4 CALLDATALOAD AND PUSH2 0xA08 JUMP JUMPDEST PUSH1 0x40 DUP1 MLOAD SWAP2 ISZERO ISZERO DUP3 MSTORE MLOAD SWAP1 DUP2 SWAP1 SUB PUSH1 0x20 ADD SWAP1 RETURN JUMPDEST CALLVALUE DUP1 ISZERO PUSH2 0x275 JUMPI PUSH1 0x0 DUP1 REVERT JUMPDEST POP PUSH2 0x255 PUSH1 0x4 CALLDATALOAD PUSH20 0xFFFFFFFFFFFFFFFFFFFFFFFFFFFFFFFFFFFFFFFF PUSH1 0x24 CALLDATALOAD AND PUSH2 0xA1D JUMP JUMPDEST CALLVALUE DUP1 ISZERO PUSH2 0x2A6 JUMPI PUSH1 0x0 DUP1 REVERT JUMPDEST POP PUSH2 0x19E PUSH1 0x4 CALLDATALOAD PUSH2 0xA3D JUMP JUMPDEST CALLVALUE DUP1 ISZERO PUSH2 0x2BE JUMPI PUSH1 0x0 DUP1 REVERT JUMPDEST POP PUSH2 0x2C7 PUSH2 0xDB9 JUMP JUMPDEST PUSH1 0x40 DUP1 MLOAD SWAP2 DUP3 MSTORE MLOAD SWAP1 DUP2 SWAP1 SUB PUSH1 0x20 ADD SWAP1 RETURN JUMPDEST CALLVALUE DUP1 ISZERO PUSH2 0x2E5 JUMPI PUSH1 0x0 DUP1 REVERT JUMPDEST POP PUSH2 0x2C7 PUSH1 0x4 CALLDATALOAD ISZERO ISZERO PUSH1 0x24 CALLDATALOAD ISZERO ISZERO PUSH2 0xDBF JUMP JUMPDEST CALLVALUE DUP1 ISZERO PUSH2 0x304 JUMPI PUSH1 0x0 DUP1 REVERT JUMPDEST POP PUSH2 0x19E PUSH20 0xFFFFFFFFFFFFFFFFFFFFFFFFFFFFFFFFFFFFFFFF PUSH1 0x4 CALLDATALOAD AND PUSH1 0x24 CALLDATALOAD ISZERO ISZERO PUSH2 0xE2B JUMP JUMPDEST CALLVALUE DUP1 ISZERO PUSH2 0x337 JUMPI PUSH1 0x0 DUP1 REVERT JUMPDEST POP PUSH2 0x19E PUSH20 0xFFFFFFFFFFFFFFFFFFFFFFFFFFFFFFFFFFFFFFFF PUSH1 0x4 CALLDATALOAD AND PUSH2 0xEEA JUMP JUMPDEST CALLVALUE DUP1 ISZERO PUSH2 0x365 JUMPI PUSH1 0x0 DUP1 REVERT JUMPDEST POP PUSH2 0x255 PUSH1 0x4 CALLDATALOAD PUSH2 0x1057 JUMP JUMPDEST CALLVALUE DUP1 ISZERO PUSH2 0x37D JUMPI PUSH1 0x0 DUP1 REVERT JUMPDEST POP PUSH2 0x19E PUSH1 0x4 CALLDATALOAD PUSH2 0x10E8 JUMP JUMPDEST CALLVALUE DUP1 ISZERO PUSH2 0x395 JUMPI PUSH1 0x0 DUP1 REVERT JUMPDEST POP PUSH2 0x255 PUSH20 0xFFFFFFFFFFFFFFFFFFFFFFFFFFFFFFFFFFFFFFFF PUSH1 0x4 CALLDATALOAD AND PUSH2 0x112F JUMP JUMPDEST CALLVALUE DUP1 ISZERO PUSH2 0x3C3 JUMPI PUSH1 0x0 DUP1 REVERT JUMPDEST POP PUSH2 0x2C7 PUSH1 0x4 CALLDATALOAD PUSH2 0x1144 JUMP JUMPDEST CALLVALUE DUP1 ISZERO PUSH2 0x3DB JUMPI PUSH1 0x0 DUP1 REVERT JUMPDEST POP PUSH2 0x3E7 PUSH1 0x4 CALLDATALOAD PUSH2 0x11C0 JUMP JUMPDEST PUSH1 0x40 MLOAD DUP1 DUP6 PUSH20 0xFFFFFFFFFFFFFFFFFFFFFFFFFFFFFFFFFFFFFFFF AND PUSH20 0xFFFFFFFFFFFFFFFFFFFFFFFFFFFFFFFFFFFFFFFF AND DUP2 MSTORE PUSH1 0x20 ADD DUP5 DUP2 MSTORE PUSH1 0x20 ADD DUP1 PUSH1 0x20 ADD DUP4 ISZERO ISZERO ISZERO ISZERO DUP2 MSTORE PUSH1 0x20 ADD DUP3 DUP2 SUB DUP3 MSTORE DUP5 DUP2 DUP2 MLOAD DUP2 MSTORE PUSH1 0x20 ADD SWAP2 POP DUP1 MLOAD SWAP1 PUSH1 0x20 ADD SWAP1 DUP1 DUP4 DUP4 PUSH1 0x0 JUMPDEST DUP4 DUP2 LT ISZERO PUSH2 0x466 JUMPI DUP2 DUP2 ADD MLOAD DUP4 DUP3 ADD MSTORE PUSH1 0x20 ADD PUSH2 0x44E JUMP JUMPDEST POP POP POP POP SWAP1 POP SWAP1 DUP2 ADD SWAP1 PUSH1 0x1F AND DUP1 ISZERO PUSH2 0x493 JUMPI DUP1 DUP3 SUB DUP1 MLOAD PUSH1 0x1 DUP4 PUSH1 0x20 SUB PUSH2 0x100 EXP SUB NOT AND DUP2 MSTORE PUSH1 0x20 ADD SWAP2 POP JUMPDEST POP SWAP6 POP POP POP POP POP POP PUSH1 0x40 MLOAD DUP1 SWAP2 SUB SWAP1 RETURN JUMPDEST CALLVALUE DUP1 ISZERO PUSH2 0x4B0 JUMPI PUSH1 0x0 DUP1 REVERT JUMPDEST POP PUSH2 0x4B9 PUSH2 0x12A9 JUMP JUMPDEST PUSH1 0x40 DUP1 MLOAD PUSH1 0x20 DUP1 DUP3 MSTORE DUP4 MLOAD DUP2 DUP4 ADD MSTORE DUP4 MLOAD SWAP2 SWAP3 DUP4 SWAP3 SWAP1 DUP4 ADD SWAP2 DUP6 DUP2 ADD SWAP2 MUL DUP1 DUP4 DUP4 PUSH1 0x0 JUMPDEST DUP4 DUP2 LT ISZERO PUSH2 0x4F5 JUMPI DUP2 DUP2 ADD MLOAD DUP4 DUP3 ADD MSTORE PUSH1 0x20 ADD PUSH2 0x4DD JUMP JUMPDEST POP POP POP POP SWAP1 POP ADD SWAP3 POP POP POP PUSH1 0x40 MLOAD DUP1 SWAP2 SUB SWAP1 RETURN JUMPDEST CALLVALUE DUP1 ISZERO PUSH2 0x515 JUMPI PUSH1 0x0 DUP1 REVERT JUMPDEST POP PUSH2 0x4B9 PUSH1 0x4 CALLDATALOAD PUSH1 0x24 CALLDATALOAD PUSH1 0x44 CALLDATALOAD ISZERO ISZERO PUSH1 0x64 CALLDATALOAD ISZERO ISZERO PUSH2 0x1319 JUMP JUMPDEST CALLVALUE DUP1 ISZERO PUSH2 0x53A JUMPI PUSH1 0x0 DUP1 REVERT JUMPDEST POP PUSH2 0x4B9 PUSH1 0x4 CALLDATALOAD PUSH2 0x1452 JUMP JUMPDEST CALLVALUE DUP1 ISZERO PUSH2 0x552 JUMPI PUSH1 0x0 DUP1 REVERT JUMPDEST POP PUSH2 0x2C7 PUSH2 0x15FF JUMP JUMPDEST CALLVALUE DUP1 ISZERO PUSH2 0x567 JUMPI PUSH1 0x0 DUP1 REVERT JUMPDEST POP PUSH2 0x19E PUSH1 0x4 CALLDATALOAD PUSH2 0x1605 JUMP JUMPDEST CALLVALUE DUP1 ISZERO PUSH2 0x57F JUMPI PUSH1 0x0 DUP1 REVERT JUMPDEST POP PUSH2 0x19E PUSH1 0x4 CALLDATALOAD PUSH2 0x167C JUMP JUMPDEST CALLVALUE DUP1 ISZERO PUSH2 0x597 JUMPI PUSH1 0x0 DUP1 REVERT JUMPDEST POP PUSH1 0x40 DUP1 MLOAD PUSH1 0x20 PUSH1 0x4 PUSH1 0x44 CALLDATALOAD DUP2 DUP2 ADD CALLDATALOAD PUSH1 0x1F DUP2 ADD DUP5 SWAP1 DIV DUP5 MUL DUP6 ADD DUP5 ADD SWAP1 SWAP6 MSTORE DUP5 DUP5 MSTORE PUSH2 0x2C7 SWAP5 DUP3 CALLDATALOAD PUSH20 0xFFFFFFFFFFFFFFFFFFFFFFFFFFFFFFFFFFFFFFFF AND SWAP5 PUSH1 0x24 DUP1 CALLDATALOAD SWAP6 CALLDATASIZE SWAP6 SWAP5 PUSH1 0x64 SWAP5 SWAP3 ADD SWAP2 SWAP1 DUP2 SWAP1 DUP5 ADD DUP4 DUP3 DUP1 DUP3 DUP5 CALLDATACOPY POP SWAP5 SWAP8 POP PUSH2 0x178E SWAP7 POP POP POP POP POP POP POP JUMP JUMPDEST CALLVALUE DUP1 ISZERO PUSH2 0x60D JUMPI PUSH1 0x0 DUP1 REVERT JUMPDEST POP PUSH2 0x2C7 PUSH1 0x4 CALLDATALOAD PUSH2 0x17AD JUMP JUMPDEST CALLVALUE DUP1 ISZERO PUSH2 0x625 JUMPI PUSH1 0x0 DUP1 REVERT JUMPDEST POP PUSH2 0x2C7 PUSH2 0x17BF JUMP JUMPDEST CALLVALUE DUP1 ISZERO PUSH2 0x63A JUMPI PUSH1 0x0 DUP1 REVERT JUMPDEST POP PUSH2 0x2C7 PUSH2 0x17C4 JUMP JUMPDEST CALLVALUE DUP1 ISZERO PUSH2 0x64F JUMPI PUSH1 0x0 DUP1 REVERT JUMPDEST POP PUSH2 0x19E PUSH20 0xFFFFFFFFFFFFFFFFFFFFFFFFFFFFFFFFFFFFFFFF PUSH1 0x4 CALLDATALOAD DUP2 AND SWAP1 PUSH1 0x24 CALLDATALOAD AND PUSH2 0x17CA JUMP JUMPDEST CALLVALUE DUP1 ISZERO PUSH2 0x683 JUMPI PUSH1 0x0 DUP1 REVERT JUMPDEST POP PUSH2 0x19E PUSH1 0x4 CALLDATALOAD PUSH2 0x19DA JUMP JUMPDEST PUSH1 0x3 DUP1 SLOAD DUP3 SWAP1 DUP2 LT PUSH2 0x69D JUMPI INVALID JUMPDEST PUSH1 0x0 SWAP2 DUP3 MSTORE PUSH1 0x20 SWAP1 SWAP2 KECCAK256 ADD SLOAD PUSH20 0xFFFFFFFFFFFFFFFFFFFFFFFFFFFFFFFFFFFFFFFF AND SWAP1 POP DUP2 JUMP JUMPDEST PUSH1 0x0 CALLER ADDRESS EQ PUSH2 0x6D2 JUMPI PUSH1 0x0 DUP1 REVERT JUMPDEST PUSH20 0xFFFFFFFFFFFFFFFFFFFFFFFFFFFFFFFFFFFFFFFF DUP3 AND PUSH1 0x0 SWAP1 DUP2 MSTORE PUSH1 0x2 PUSH1 0x20 MSTORE PUSH1 0x40 SWAP1 KECCAK256 SLOAD DUP3 SWAP1 PUSH1 0xFF AND ISZERO ISZERO PUSH2 0x708 JUMPI PUSH1 0x0 DUP1 REVERT JUMPDEST PUSH20 0xFFFFFFFFFFFFFFFFFFFFFFFFFFFFFFFFFFFFFFFF DUP4 AND PUSH1 0x0 SWAP1 DUP2 MSTORE PUSH1 0x2 PUSH1 0x20 MSTORE PUSH1 0x40 DUP2 KECCAK256 DUP1 SLOAD PUSH32 0xFFFFFFFFFFFFFFFFFFFFFFFFFFFFFFFFFFFFFFFFFFFFFFFFFFFFFFFFFFFFFF00 AND SWAP1 SSTORE SWAP2 POP JUMPDEST PUSH1 0x3 SLOAD PUSH32 0xFFFFFFFFFFFFFFFFFFFFFFFFFFFFFFFFFFFFFFFFFFFFFFFFFFFFFFFFFFFFFFFF ADD DUP3 LT ISZERO PUSH2 0x88B JUMPI DUP3 PUSH20 0xFFFFFFFFFFFFFFFFFFFFFFFFFFFFFFFFFFFFFFFF AND PUSH1 0x3 DUP4 DUP2 SLOAD DUP2 LT ISZERO ISZERO PUSH2 0x7A8 JUMPI INVALID JUMPDEST PUSH1 0x0 SWAP2 DUP3 MSTORE PUSH1 0x20 SWAP1 SWAP2 KECCAK256 ADD SLOAD PUSH20 0xFFFFFFFFFFFFFFFFFFFFFFFFFFFFFFFFFFFFFFFF AND EQ ISZERO PUSH2 0x880 JUMPI PUSH1 0x3 DUP1 SLOAD PUSH32 0xFFFFFFFFFFFFFFFFFFFFFFFFFFFFFFFFFFFFFFFFFFFFFFFFFFFFFFFFFFFFFFFF DUP2 ADD SWAP1 DUP2 LT PUSH2 0x800 JUMPI INVALID JUMPDEST PUSH1 0x0 SWAP2 DUP3 MSTORE PUSH1 0x20 SWAP1 SWAP2 KECCAK256 ADD SLOAD PUSH1 0x3 DUP1 SLOAD PUSH20 0xFFFFFFFFFFFFFFFFFFFFFFFFFFFFFFFFFFFFFFFF SWAP1 SWAP3 AND SWAP2 DUP5 SWAP1 DUP2 LT PUSH2 0x833 JUMPI INVALID JUMPDEST SWAP1 PUSH1 0x0 MSTORE PUSH1 0x20 PUSH1 0x0 KECCAK256 ADD PUSH1 0x0 PUSH2 0x100 EXP DUP2 SLOAD DUP2 PUSH20 0xFFFFFFFFFFFFFFFFFFFFFFFFFFFFFFFFFFFFFFFF MUL NOT AND SWAP1 DUP4 PUSH20 0xFFFFFFFFFFFFFFFFFFFFFFFFFFFFFFFFFFFFFFFF AND MUL OR SWAP1 SSTORE POP PUSH2 0x88B JUMP JUMPDEST PUSH1 0x1 SWAP1 SWAP2 ADD SWAP1 PUSH2 0x756 JUMP JUMPDEST PUSH1 0x3 DUP1 SLOAD PUSH32 0xFFFFFFFFFFFFFFFFFFFFFFFFFFFFFFFFFFFFFFFFFFFFFFFFFFFFFFFFFFFFFFFF ADD SWAP1 PUSH2 0x8BC SWAP1 DUP3 PUSH2 0x1E11 JUMP JUMPDEST POP PUSH1 0x3 SLOAD PUSH1 0x4 SLOAD GT ISZERO PUSH2 0x8D5 JUMPI PUSH1 0x3 SLOAD PUSH2 0x8D5 SWAP1 PUSH2 0x1605 JUMP JUMPDEST PUSH1 0x40 MLOAD PUSH20 0xFFFFFFFFFFFFFFFFFFFFFFFFFFFFFFFFFFFFFFFF DUP5 AND SWAP1 PUSH32 0x8001553A916EF2F495D26A907CC54D96ED840D7BDA71E73194BF5A9DF7A76B90 SWAP1 PUSH1 0x0 SWAP1 LOG2 POP POP POP JUMP JUMPDEST CALLER PUSH1 0x0 DUP2 DUP2 MSTORE PUSH1 0x2 PUSH1 0x20 MSTORE PUSH1 0x40 SWAP1 KECCAK256 SLOAD PUSH1 0xFF AND ISZERO ISZERO PUSH2 0x939 JUMPI PUSH1 0x0 DUP1 REVERT JUMPDEST PUSH1 0x0 DUP3 DUP2 MSTORE PUSH1 0x1 PUSH1 0x20 SWAP1 DUP2 MSTORE PUSH1 0x40 DUP1 DUP4 KECCAK256 CALLER DUP1 DUP6 MSTORE SWAP3 MSTORE SWAP1 SWAP2 KECCAK256 SLOAD DUP4 SWAP2 SWAP1 PUSH1 0xFF AND ISZERO ISZERO PUSH2 0x965 JUMPI PUSH1 0x0 DUP1 REVERT JUMPDEST PUSH1 0x0 DUP5 DUP2 MSTORE PUSH1 0x20 DUP2 SWAP1 MSTORE PUSH1 0x40 SWAP1 KECCAK256 PUSH1 0x3 ADD SLOAD DUP5 SWAP1 PUSH1 0xFF AND ISZERO PUSH2 0x986 JUMPI PUSH1 0x0 DUP1 REVERT JUMPDEST DUP5 PUSH2 0x990 DUP2 PUSH2 0x1057 JUMP JUMPDEST ISZERO PUSH2 0x99A JUMPI PUSH1 0x0 DUP1 REVERT JUMPDEST PUSH1 0x0 DUP7 DUP2 MSTORE PUSH1 0x1 PUSH1 0x20 SWAP1 DUP2 MSTORE PUSH1 0x40 DUP1 DUP4 KECCAK256 CALLER DUP1 DUP6 MSTORE SWAP3 MSTORE DUP1 DUP4 KECCAK256 DUP1 SLOAD PUSH32 0xFFFFFFFFFFFFFFFFFFFFFFFFFFFFFFFFFFFFFFFFFFFFFFFFFFFFFFFFFFFFFF00 AND SWAP1 SSTORE MLOAD DUP9 SWAP3 PUSH32 0xF6A317157440607F36269043EB55F1287A5A19BA2216AFEAB88CD46CBCFB88E9 SWAP2 LOG3 POP POP POP POP POP POP JUMP JUMPDEST PUSH1 0x2 PUSH1 0x20 MSTORE PUSH1 0x0 SWAP1 DUP2 MSTORE PUSH1 0x40 SWAP1 KECCAK256 SLOAD PUSH1 0xFF AND DUP2 JUMP JUMPDEST PUSH1 0x1 PUSH1 0x20 SWAP1 DUP2 MSTORE PUSH1 0x0 SWAP3 DUP4 MSTORE PUSH1 0x40 DUP1 DUP5 KECCAK256 SWAP1 SWAP2 MSTORE SWAP1 DUP3 MSTORE SWAP1 KECCAK256 SLOAD PUSH1 0xFF AND DUP2 JUMP JUMPDEST PUSH1 0x0 DUP2 DUP2 MSTORE PUSH1 0x20 DUP2 SWAP1 MSTORE PUSH1 0x40 DUP2 KECCAK256 PUSH1 0x3 ADD SLOAD DUP3 SWAP1 PUSH1 0xFF AND ISZERO PUSH2 0xA5E JUMPI PUSH1 0x0 DUP1 REVERT JUMPDEST DUP3 PUSH2 0xA68 DUP2 PUSH2 0x1057 JUMP JUMPDEST ISZERO ISZERO PUSH2 0xA73 JUMPI PUSH1 0x0 DUP1 REVERT JUMPDEST PUSH1 0x0 DUP5 DUP2 MSTORE PUSH1 0x20 DUP2 DUP2 MSTORE PUSH1 0x40 DUP1 DUP4 KECCAK256 DUP1 SLOAD PUSH20 0xFFFFFFFFFFFFFFFFFFFFFFFFFFFFFFFFFFFFFFFF AND DUP5 MSTORE PUSH1 0x8 SWAP1 SWAP3 MSTORE SWAP1 SWAP2 KECCAK256 SLOAD DUP6 SWAP2 SWAP1 PUSH1 0xFF AND ISZERO ISZERO PUSH2 0xAB6 JUMPI PUSH1 0x0 DUP1 REVERT JUMPDEST PUSH1 0x40 DUP1 MLOAD PUSH32 0x72656D6F7665417574686F72697A6564416464726573734174496E6465782861 DUP2 MSTORE PUSH32 0x6464726573732C75696E74323536290000000000000000000000000000000000 PUSH1 0x20 DUP1 DUP4 ADD SWAP2 SWAP1 SWAP2 MSTORE DUP3 MLOAD SWAP2 DUP3 SWAP1 SUB PUSH1 0x2F ADD DUP3 KECCAK256 PUSH1 0x2 DUP1 DUP7 ADD DUP1 SLOAD PUSH1 0x1F PUSH32 0xFFFFFFFFFFFFFFFFFFFFFFFFFFFFFFFFFFFFFFFFFFFFFFFFFFFFFFFFFFFFFFFF PUSH2 0x100 PUSH1 0x1 DUP5 AND ISZERO MUL ADD SWAP1 SWAP2 AND SWAP3 SWAP1 SWAP3 DIV SWAP2 DUP3 ADD DUP5 SWAP1 DIV DUP5 MUL DUP6 ADD DUP5 ADD SWAP1 SWAP6 MSTORE DUP1 DUP5 MSTORE PUSH32 0xFFFFFFFF00000000000000000000000000000000000000000000000000000000 SWAP1 SWAP2 AND SWAP4 PUSH2 0xBF2 SWAP4 PUSH1 0x0 SWAP4 SWAP1 SWAP3 SWAP1 DUP4 ADD DUP3 DUP3 DUP1 ISZERO PUSH2 0xBDF JUMPI DUP1 PUSH1 0x1F LT PUSH2 0xBB4 JUMPI PUSH2 0x100 DUP1 DUP4 SLOAD DIV MUL DUP4 MSTORE SWAP2 PUSH1 0x20 ADD SWAP2 PUSH2 0xBDF JUMP JUMPDEST DUP3 ADD SWAP2 SWAP1 PUSH1 0x0 MSTORE PUSH1 0x20 PUSH1 0x0 KECCAK256 SWAP1 JUMPDEST DUP2 SLOAD DUP2 MSTORE SWAP1 PUSH1 0x1 ADD SWAP1 PUSH1 0x20 ADD DUP1 DUP4 GT PUSH2 0xBC2 JUMPI DUP3 SWAP1 SUB PUSH1 0x1F AND DUP3 ADD SWAP2 JUMPDEST POP POP POP POP POP PUSH2 0x1BCB SWAP1 SWAP2 SWAP1 PUSH4 0xFFFFFFFF AND JUMP JUMPDEST PUSH32 0xFFFFFFFF00000000000000000000000000000000000000000000000000000000 AND EQ PUSH2 0xC1E JUMPI PUSH1 0x0 DUP1 REVERT JUMPDEST PUSH1 0x0 DUP7 DUP2 MSTORE PUSH1 0x20 DUP2 SWAP1 MSTORE PUSH1 0x40 SWAP1 DUP2 SWAP1 KECCAK256 PUSH1 0x3 DUP2 ADD DUP1 SLOAD PUSH32 0xFFFFFFFFFFFFFFFFFFFFFFFFFFFFFFFFFFFFFFFFFFFFFFFFFFFFFFFFFFFFFF00 AND PUSH1 0x1 SWAP1 DUP2 OR SWAP1 SWAP2 SSTORE DUP2 SLOAD DUP2 DUP4 ADD SLOAD SWAP4 MLOAD PUSH1 0x2 DUP1 DUP6 ADD DUP1 SLOAD SWAP6 SWAP12 POP PUSH20 0xFFFFFFFFFFFFFFFFFFFFFFFFFFFFFFFFFFFFFFFF SWAP1 SWAP4 AND SWAP6 SWAP5 SWAP3 SWAP4 SWAP2 SWAP3 DUP4 SWAP3 DUP6 SWAP3 PUSH32 0xFFFFFFFFFFFFFFFFFFFFFFFFFFFFFFFFFFFFFFFFFFFFFFFFFFFFFFFFFFFFFFFF SWAP2 DUP4 AND ISZERO PUSH2 0x100 MUL SWAP2 SWAP1 SWAP2 ADD SWAP1 SWAP2 AND DIV DUP1 ISZERO PUSH2 0xD10 JUMPI DUP1 PUSH1 0x1F LT PUSH2 0xCE5 JUMPI PUSH2 0x100 DUP1 DUP4 SLOAD DIV MUL DUP4 MSTORE SWAP2 PUSH1 0x20 ADD SWAP2 PUSH2 0xD10 JUMP JUMPDEST DUP3 ADD SWAP2 SWAP1 PUSH1 0x0 MSTORE PUSH1 0x20 PUSH1 0x0 KECCAK256 SWAP1 JUMPDEST DUP2 SLOAD DUP2 MSTORE SWAP1 PUSH1 0x1 ADD SWAP1 PUSH1 0x20 ADD DUP1 DUP4 GT PUSH2 0xCF3 JUMPI DUP3 SWAP1 SUB PUSH1 0x1F AND DUP3 ADD SWAP2 JUMPDEST POP POP SWAP2 POP POP PUSH1 0x0 PUSH1 0x40 MLOAD DUP1 DUP4 SUB DUP2 DUP6 DUP8 GAS CALL SWAP3 POP POP POP ISZERO PUSH2 0xD5B JUMPI PUSH1 0x40 MLOAD DUP7 SWAP1 PUSH32 0x33E13ECB54C3076D8E8BB8C2881800A4D972B792045FFAE98FDF46DF365FED75 SWAP1 PUSH1 0x0 SWAP1 LOG2 PUSH2 0xDB1 JUMP JUMPDEST PUSH1 0x40 MLOAD DUP7 SWAP1 PUSH32 0x526441BB6C1ABA3C9A4A6CA1D6545DA9C2333C8C48343EF398EB858D72B79236 SWAP1 PUSH1 0x0 SWAP1 LOG2 PUSH1 0x3 DUP6 ADD DUP1 SLOAD PUSH32 0xFFFFFFFFFFFFFFFFFFFFFFFFFFFFFFFFFFFFFFFFFFFFFFFFFFFFFFFFFFFFFF00 AND SWAP1 SSTORE JUMPDEST POP POP POP POP POP POP JUMP JUMPDEST PUSH1 0x6 SLOAD DUP2 JUMP JUMPDEST PUSH1 0x0 DUP1 JUMPDEST PUSH1 0x5 SLOAD DUP2 LT ISZERO PUSH2 0xE24 JUMPI DUP4 DUP1 ISZERO PUSH2 0xDEC JUMPI POP PUSH1 0x0 DUP2 DUP2 MSTORE PUSH1 0x20 DUP2 SWAP1 MSTORE PUSH1 0x40 SWAP1 KECCAK256 PUSH1 0x3 ADD SLOAD PUSH1 0xFF AND ISZERO JUMPDEST DUP1 PUSH2 0xE10 JUMPI POP DUP3 DUP1 ISZERO PUSH2 0xE10 JUMPI POP PUSH1 0x0 DUP2 DUP2 MSTORE PUSH1 0x20 DUP2 SWAP1 MSTORE PUSH1 0x40 SWAP1 KECCAK256 PUSH1 0x3 ADD SLOAD PUSH1 0xFF AND JUMPDEST ISZERO PUSH2 0xE1C JUMPI PUSH1 0x1 DUP3 ADD SWAP2 POP JUMPDEST PUSH1 0x1 ADD PUSH2 0xDC3 JUMP JUMPDEST POP SWAP3 SWAP2 POP POP JUMP JUMPDEST CALLER ADDRESS EQ PUSH2 0xE37 JUMPI PUSH1 0x0 DUP1 REVERT JUMPDEST DUP2 PUSH20 0xFFFFFFFFFFFFFFFFFFFFFFFFFFFFFFFFFFFFFFFF DUP2 AND ISZERO ISZERO PUSH2 0xE5A JUMPI PUSH1 0x0 DUP1 REVERT JUMPDEST PUSH20 0xFFFFFFFFFFFFFFFFFFFFFFFFFFFFFFFFFFFFFFFF DUP4 AND PUSH1 0x0 DUP2 DUP2 MSTORE PUSH1 0x8 PUSH1 0x20 SWAP1 DUP2 MSTORE PUSH1 0x40 SWAP2 DUP3 SWAP1 KECCAK256 DUP1 SLOAD PUSH32 0xFFFFFFFFFFFFFFFFFFFFFFFFFFFFFFFFFFFFFFFFFFFFFFFFFFFFFFFFFFFFFF00 AND DUP7 ISZERO ISZERO SWAP1 DUP2 OR SWAP1 SWAP2 SSTORE DUP3 MLOAD SWAP4 DUP5 MSTORE SWAP1 DUP4 ADD MSTORE DUP1 MLOAD PUSH32 0xDAEF8FF7DC66C5E34EB9C338AAB679D9F427F89868D9228494455A4D982EB2B0 SWAP3 DUP2 SWAP1 SUB SWAP1 SWAP2 ADD SWAP1 LOG1 POP POP POP JUMP JUMPDEST CALLER ADDRESS EQ PUSH2 0xEF6 JUMPI PUSH1 0x0 DUP1 REVERT JUMPDEST PUSH20 0xFFFFFFFFFFFFFFFFFFFFFFFFFFFFFFFFFFFFFFFF DUP2 AND PUSH1 0x0 SWAP1 DUP2 MSTORE PUSH1 0x2 PUSH1 0x20 MSTORE PUSH1 0x40 SWAP1 KECCAK256 SLOAD DUP2 SWAP1 PUSH1 0xFF AND ISZERO PUSH2 0xF2B JUMPI PUSH1 0x0 DUP1 REVERT JUMPDEST DUP2 PUSH20 0xFFFFFFFFFFFFFFFFFFFFFFFFFFFFFFFFFFFFFFFF DUP2 AND ISZERO ISZERO PUSH2 0xF4E JUMPI PUSH1 0x0 DUP1 REVERT JUMPDEST PUSH1 0x3 DUP1 SLOAD SWAP1 POP PUSH1 0x1 ADD PUSH1 0x4 SLOAD PUSH1 0x32 DUP3 GT DUP1 PUSH2 0xF68 JUMPI POP DUP2 DUP2 GT JUMPDEST DUP1 PUSH2 0xF71 JUMPI POP DUP1 ISZERO JUMPDEST DUP1 PUSH2 0xF7A JUMPI POP DUP2 ISZERO JUMPDEST ISZERO PUSH2 0xF84 JUMPI PUSH1 0x0 DUP1 REVERT JUMPDEST PUSH20 0xFFFFFFFFFFFFFFFFFFFFFFFFFFFFFFFFFFFFFFFF DUP6 AND PUSH1 0x0 DUP2 DUP2 MSTORE PUSH1 0x2 PUSH1 0x20 MSTORE PUSH1 0x40 DUP1 DUP3 KECCAK256 DUP1 SLOAD PUSH32 0xFFFFFFFFFFFFFFFFFFFFFFFFFFFFFFFFFFFFFFFFFFFFFFFFFFFFFFFFFFFFFF00 AND PUSH1 0x1 SWAP1 DUP2 OR SWAP1 SWAP2 SSTORE PUSH1 0x3 DUP1 SLOAD SWAP2 DUP3 ADD DUP2 SSTORE DUP4 MSTORE PUSH32 0xC2575A0E9E593C00F959F8C92F12DB2869C3395A3B0502D05E2516446F71F85B ADD DUP1 SLOAD PUSH32 0xFFFFFFFFFFFFFFFFFFFFFFFF0000000000000000000000000000000000000000 AND DUP5 OR SWAP1 SSTORE MLOAD PUSH32 0xF39E6E1EB0EDCF53C221607B54B00CD28F3196FED0A24994DC308B8F611B682D SWAP2 SWAP1 LOG2 POP POP POP POP POP JUMP JUMPDEST PUSH1 0x0 DUP1 DUP1 JUMPDEST PUSH1 0x3 SLOAD DUP2 LT ISZERO PUSH2 0x10E1 JUMPI PUSH1 0x0 DUP5 DUP2 MSTORE PUSH1 0x1 PUSH1 0x20 MSTORE PUSH1 0x40 DUP2 KECCAK256 PUSH1 0x3 DUP1 SLOAD SWAP2 SWAP3 SWAP2 DUP5 SWAP1 DUP2 LT PUSH2 0x1085 JUMPI INVALID JUMPDEST PUSH1 0x0 SWAP2 DUP3 MSTORE PUSH1 0x20 DUP1 DUP4 KECCAK256 SWAP1 SWAP2 ADD SLOAD PUSH20 0xFFFFFFFFFFFFFFFFFFFFFFFFFFFFFFFFFFFFFFFF AND DUP4 MSTORE DUP3 ADD SWAP3 SWAP1 SWAP3 MSTORE PUSH1 0x40 ADD SWAP1 KECCAK256 SLOAD PUSH1 0xFF AND ISZERO PUSH2 0x10C6 JUMPI PUSH1 0x1 DUP3 ADD SWAP2 POP JUMPDEST PUSH1 0x4 SLOAD DUP3 EQ ISZERO PUSH2 0x10D9 JUMPI PUSH1 0x1 SWAP3 POP PUSH2 0x10E1 JUMP JUMPDEST PUSH1 0x1 ADD PUSH2 0x105C JUMP JUMPDEST POP POP SWAP2 SWAP1 POP JUMP JUMPDEST CALLER ADDRESS EQ PUSH2 0x10F4 JUMPI PUSH1 0x0 DUP1 REVERT JUMPDEST PUSH1 0x6 DUP2 SWAP1 SSTORE PUSH1 0x40 DUP1 MLOAD DUP3 DUP2 MSTORE SWAP1 MLOAD PUSH32 0xD1C9101A34FEFF75CCCEF14A28785A0279CB0B49C1F321F21F5F422E746B4377 SWAP2 DUP2 SWAP1 SUB PUSH1 0x20 ADD SWAP1 LOG1 POP JUMP JUMPDEST PUSH1 0x8 PUSH1 0x20 MSTORE PUSH1 0x0 SWAP1 DUP2 MSTORE PUSH1 0x40 SWAP1 KECCAK256 SLOAD PUSH1 0xFF AND DUP2 JUMP JUMPDEST PUSH1 0x0 DUP1 JUMPDEST PUSH1 0x3 SLOAD DUP2 LT ISZERO PUSH2 0x11BA JUMPI PUSH1 0x0 DUP4 DUP2 MSTORE PUSH1 0x1 PUSH1 0x20 MSTORE PUSH1 0x40 DUP2 KECCAK256 PUSH1 0x3 DUP1 SLOAD SWAP2 SWAP3 SWAP2 DUP5 SWAP1 DUP2 LT PUSH2 0x1171 JUMPI INVALID JUMPDEST PUSH1 0x0 SWAP2 DUP3 MSTORE PUSH1 0x20 DUP1 DUP4 KECCAK256 SWAP1 SWAP2 ADD SLOAD PUSH20 0xFFFFFFFFFFFFFFFFFFFFFFFFFFFFFFFFFFFFFFFF AND DUP4 MSTORE DUP3 ADD SWAP3 SWAP1 SWAP3 MSTORE PUSH1 0x40 ADD SWAP1 KECCAK256 SLOAD PUSH1 0xFF AND ISZERO PUSH2 0x11B2 JUMPI PUSH1 0x1 DUP3 ADD SWAP2 POP JUMPDEST PUSH1 0x1 ADD PUSH2 0x1148 JUMP JUMPDEST POP SWAP2 SWAP1 POP JUMP JUMPDEST PUSH1 0x0 PUSH1 0x20 DUP2 DUP2 MSTORE SWAP2 DUP2 MSTORE PUSH1 0x40 SWAP1 DUP2 SWAP1 KECCAK256 DUP1 SLOAD PUSH1 0x1 DUP1 DUP4 ADD SLOAD PUSH1 0x2 DUP1 DUP6 ADD DUP1 SLOAD DUP8 MLOAD PUSH2 0x100 SWAP6 DUP3 AND ISZERO SWAP6 SWAP1 SWAP6 MUL PUSH32 0xFFFFFFFFFFFFFFFFFFFFFFFFFFFFFFFFFFFFFFFFFFFFFFFFFFFFFFFFFFFFFFFF ADD AND SWAP2 SWAP1 SWAP2 DIV PUSH1 0x1F DUP2 ADD DUP9 SWAP1 DIV DUP9 MUL DUP5 ADD DUP9 ADD SWAP1 SWAP7 MSTORE DUP6 DUP4 MSTORE PUSH20 0xFFFFFFFFFFFFFFFFFFFFFFFFFFFFFFFFFFFFFFFF SWAP1 SWAP4 AND SWAP6 SWAP1 SWAP5 SWAP2 SWAP3 SWAP2 SWAP1 DUP4 ADD DUP3 DUP3 DUP1 ISZERO PUSH2 0x1296 JUMPI DUP1 PUSH1 0x1F LT PUSH2 0x126B JUMPI PUSH2 0x100 DUP1 DUP4 SLOAD DIV MUL DUP4 MSTORE SWAP2 PUSH1 0x20 ADD SWAP2 PUSH2 0x1296 JUMP JUMPDEST DUP3 ADD SWAP2 SWAP1 PUSH1 0x0 MSTORE PUSH1 0x20 PUSH1 0x0 KECCAK256 SWAP1 JUMPDEST DUP2 SLOAD DUP2 MSTORE SWAP1 PUSH1 0x1 ADD SWAP1 PUSH1 0x20 ADD DUP1 DUP4 GT PUSH2 0x1279 JUMPI DUP3 SWAP1 SUB PUSH1 0x1F AND DUP3 ADD SWAP2 JUMPDEST POP POP POP PUSH1 0x3 SWAP1 SWAP4 ADD SLOAD SWAP2 SWAP3 POP POP PUSH1 0xFF AND DUP5 JUMP JUMPDEST PUSH1 0x60 PUSH1 0x3 DUP1 SLOAD DUP1 PUSH1 0x20 MUL PUSH1 0x20 ADD PUSH1 0x40 MLOAD SWAP1 DUP2 ADD PUSH1 0x40 MSTORE DUP1 SWAP3 SWAP2 SWAP1 DUP2 DUP2 MSTORE PUSH1 0x20 ADD DUP3 DUP1 SLOAD DUP1 ISZERO PUSH2 0x130E JUMPI PUSH1 0x20 MUL DUP3 ADD SWAP2 SWAP1 PUSH1 0x0 MSTORE PUSH1 0x20 PUSH1 0x0 KECCAK256 SWAP1 JUMPDEST DUP2 SLOAD PUSH20 0xFFFFFFFFFFFFFFFFFFFFFFFFFFFFFFFFFFFFFFFF AND DUP2 MSTORE PUSH1 0x1 SWAP1 SWAP2 ADD SWAP1 PUSH1 0x20 ADD DUP1 DUP4 GT PUSH2 0x12E3 JUMPI JUMPDEST POP POP POP POP POP SWAP1 POP JUMPDEST SWAP1 JUMP JUMPDEST PUSH1 0x60 DUP1 PUSH1 0x0 DUP1 PUSH1 0x5 SLOAD PUSH1 0x40 MLOAD SWAP1 DUP1 DUP3 MSTORE DUP1 PUSH1 0x20 MUL PUSH1 0x20 ADD DUP3 ADD PUSH1 0x40 MSTORE DUP1 ISZERO PUSH2 0x134B JUMPI DUP2 PUSH1 0x20 ADD PUSH1 0x20 DUP3 MUL DUP1 CODESIZE DUP4 CODECOPY ADD SWAP1 POP JUMPDEST POP SWAP3 POP PUSH1 0x0 SWAP2 POP PUSH1 0x0 SWAP1 POP JUMPDEST PUSH1 0x5 SLOAD DUP2 LT ISZERO PUSH2 0x13D2 JUMPI DUP6 DUP1 ISZERO PUSH2 0x1380 JUMPI POP PUSH1 0x0 DUP2 DUP2 MSTORE PUSH1 0x20 DUP2 SWAP1 MSTORE PUSH1 0x40 SWAP1 KECCAK256 PUSH1 0x3 ADD SLOAD PUSH1 0xFF AND ISZERO JUMPDEST DUP1 PUSH2 0x13A4 JUMPI POP DUP5 DUP1 ISZERO PUSH2 0x13A4 JUMPI POP PUSH1 0x0 DUP2 DUP2 MSTORE PUSH1 0x20 DUP2 SWAP1 MSTORE PUSH1 0x40 SWAP1 KECCAK256 PUSH1 0x3 ADD SLOAD PUSH1 0xFF AND JUMPDEST ISZERO PUSH2 0x13CA JUMPI DUP1 DUP4 DUP4 DUP2 MLOAD DUP2 LT ISZERO ISZERO PUSH2 0x13B8 JUMPI INVALID JUMPDEST PUSH1 0x20 SWAP1 DUP2 MUL SWAP1 SWAP2 ADD ADD MSTORE PUSH1 0x1 SWAP2 SWAP1 SWAP2 ADD SWAP1 JUMPDEST PUSH1 0x1 ADD PUSH2 0x1357 JUMP JUMPDEST DUP8 DUP8 SUB PUSH1 0x40 MLOAD SWAP1 DUP1 DUP3 MSTORE DUP1 PUSH1 0x20 MUL PUSH1 0x20 ADD DUP3 ADD PUSH1 0x40 MSTORE DUP1 ISZERO PUSH2 0x13FE JUMPI DUP2 PUSH1 0x20 ADD PUSH1 0x20 DUP3 MUL DUP1 CODESIZE DUP4 CODECOPY ADD SWAP1 POP JUMPDEST POP SWAP4 POP DUP8 SWAP1 POP JUMPDEST DUP7 DUP2 LT ISZERO PUSH2 0x1447 JUMPI DUP3 DUP2 DUP2 MLOAD DUP2 LT ISZERO ISZERO PUSH2 0x141B JUMPI INVALID JUMPDEST SWAP1 PUSH1 0x20 ADD SWAP1 PUSH1 0x20 MUL ADD MLOAD DUP5 DUP10 DUP4 SUB DUP2 MLOAD DUP2 LT ISZERO ISZERO PUSH2 0x1435 JUMPI INVALID JUMPDEST PUSH1 0x20 SWAP1 DUP2 MUL SWAP1 SWAP2 ADD ADD MSTORE PUSH1 0x1 ADD PUSH2 0x1405 JUMP JUMPDEST POP POP POP SWAP5 SWAP4 POP POP POP POP JUMP JUMPDEST PUSH1 0x60 DUP1 PUSH1 0x0 DUP1 PUSH1 0x3 DUP1 SLOAD SWAP1 POP PUSH1 0x40 MLOAD SWAP1 DUP1 DUP3 MSTORE DUP1 PUSH1 0x20 MUL PUSH1 0x20 ADD DUP3 ADD PUSH1 0x40 MSTORE DUP1 ISZERO PUSH2 0x1487 JUMPI DUP2 PUSH1 0x20 ADD PUSH1 0x20 DUP3 MUL DUP1 CODESIZE DUP4 CODECOPY ADD SWAP1 POP JUMPDEST POP SWAP3 POP PUSH1 0x0 SWAP2 POP PUSH1 0x0 SWAP1 POP JUMPDEST PUSH1 0x3 SLOAD DUP2 LT ISZERO PUSH2 0x156B JUMPI PUSH1 0x0 DUP6 DUP2 MSTORE PUSH1 0x1 PUSH1 0x20 MSTORE PUSH1 0x40 DUP2 KECCAK256 PUSH1 0x3 DUP1 SLOAD SWAP2 SWAP3 SWAP2 DUP5 SWAP1 DUP2 LT PUSH2 0x14BC JUMPI INVALID JUMPDEST PUSH1 0x0 SWAP2 DUP3 MSTORE PUSH1 0x20 DUP1 DUP4 KECCAK256 SWAP1 SWAP2 ADD SLOAD PUSH20 0xFFFFFFFFFFFFFFFFFFFFFFFFFFFFFFFFFFFFFFFF AND DUP4 MSTORE DUP3 ADD SWAP3 SWAP1 SWAP3 MSTORE PUSH1 0x40 ADD SWAP1 KECCAK256 SLOAD PUSH1 0xFF AND ISZERO PUSH2 0x1563 JUMPI PUSH1 0x3 DUP1 SLOAD DUP3 SWAP1 DUP2 LT PUSH2 0x1504 JUMPI INVALID JUMPDEST PUSH1 0x0 SWAP2 DUP3 MSTORE PUSH1 0x20 SWAP1 SWAP2 KECCAK256 ADD SLOAD DUP4 MLOAD PUSH20 0xFFFFFFFFFFFFFFFFFFFFFFFFFFFFFFFFFFFFFFFF SWAP1 SWAP2 AND SWAP1 DUP5 SWAP1 DUP5 SWAP1 DUP2 LT PUSH2 0x1537 JUMPI INVALID JUMPDEST PUSH20 0xFFFFFFFFFFFFFFFFFFFFFFFFFFFFFFFFFFFFFFFF SWAP1 SWAP3 AND PUSH1 0x20 SWAP3 DUP4 MUL SWAP1 SWAP2 ADD SWAP1 SWAP2 ADD MSTORE PUSH1 0x1 SWAP2 SWAP1 SWAP2 ADD SWAP1 JUMPDEST PUSH1 0x1 ADD PUSH2 0x1493 JUMP JUMPDEST DUP2 PUSH1 0x40 MLOAD SWAP1 DUP1 DUP3 MSTORE DUP1 PUSH1 0x20 MUL PUSH1 0x20 ADD DUP3 ADD PUSH1 0x40 MSTORE DUP1 ISZERO PUSH2 0x1595 JUMPI DUP2 PUSH1 0x20 ADD PUSH1 0x20 DUP3 MUL DUP1 CODESIZE DUP4 CODECOPY ADD SWAP1 POP JUMPDEST POP SWAP4 POP PUSH1 0x0 SWAP1 POP JUMPDEST DUP2 DUP2 LT ISZERO PUSH2 0x15F7 JUMPI DUP3 DUP2 DUP2 MLOAD DUP2 LT ISZERO ISZERO PUSH2 0x15B3 JUMPI INVALID JUMPDEST SWAP1 PUSH1 0x20 ADD SWAP1 PUSH1 0x20 MUL ADD MLOAD DUP5 DUP3 DUP2 MLOAD DUP2 LT ISZERO ISZERO PUSH2 0x15CB JUMPI INVALID JUMPDEST PUSH20 0xFFFFFFFFFFFFFFFFFFFFFFFFFFFFFFFFFFFFFFFF SWAP1 SWAP3 AND PUSH1 0x20 SWAP3 DUP4 MUL SWAP1 SWAP2 ADD SWAP1 SWAP2 ADD MSTORE PUSH1 0x1 ADD PUSH2 0x159D JUMP JUMPDEST POP POP POP SWAP2 SWAP1 POP JUMP JUMPDEST PUSH1 0x5 SLOAD DUP2 JUMP JUMPDEST CALLER ADDRESS EQ PUSH2 0x1611 JUMPI PUSH1 0x0 DUP1 REVERT JUMPDEST PUSH1 0x3 SLOAD DUP2 PUSH1 0x32 DUP3 GT DUP1 PUSH2 0x1623 JUMPI POP DUP2 DUP2 GT JUMPDEST DUP1 PUSH2 0x162C JUMPI POP DUP1 ISZERO JUMPDEST DUP1 PUSH2 0x1635 JUMPI POP DUP2 ISZERO JUMPDEST ISZERO PUSH2 0x163F JUMPI PUSH1 0x0 DUP1 REVERT JUMPDEST PUSH1 0x4 DUP4 SWAP1 SSTORE PUSH1 0x40 DUP1 MLOAD DUP5 DUP2 MSTORE SWAP1 MLOAD PUSH32 0xA3F1EE9126A074D9326C682F561767F710E927FAA811F7A99829D49DC421797A SWAP2 DUP2 SWAP1 SUB PUSH1 0x20 ADD SWAP1 LOG1 POP POP POP JUMP JUMPDEST CALLER PUSH1 0x0 DUP2 DUP2 MSTORE PUSH1 0x2 PUSH1 0x20 MSTORE PUSH1 0x40 SWAP1 KECCAK256 SLOAD PUSH1 0xFF AND ISZERO ISZERO PUSH2 0x169A JUMPI PUSH1 0x0 DUP1 REVERT JUMPDEST PUSH1 0x0 DUP3 DUP2 MSTORE PUSH1 0x20 DUP2 SWAP1 MSTORE PUSH1 0x40 SWAP1 KECCAK256 SLOAD DUP3 SWAP1 PUSH20 0xFFFFFFFFFFFFFFFFFFFFFFFFFFFFFFFFFFFFFFFF AND ISZERO ISZERO PUSH2 0x16CC JUMPI PUSH1 0x0 DUP1 REVERT JUMPDEST PUSH1 0x0 DUP4 DUP2 MSTORE PUSH1 0x1 PUSH1 0x20 SWAP1 DUP2 MSTORE PUSH1 0x40 DUP1 DUP4 KECCAK256 CALLER DUP1 DUP6 MSTORE SWAP3 MSTORE SWAP1 SWAP2 KECCAK256 SLOAD DUP5 SWAP2 SWAP1 PUSH1 0xFF AND ISZERO PUSH2 0x16F7 JUMPI PUSH1 0x0 DUP1 REVERT JUMPDEST DUP5 PUSH2 0x1701 DUP2 PUSH2 0x1057 JUMP JUMPDEST ISZERO PUSH2 0x170B JUMPI PUSH1 0x0 DUP1 REVERT JUMPDEST PUSH1 0x0 DUP7 DUP2 MSTORE PUSH1 0x1 PUSH1 0x20 DUP2 DUP2 MSTORE PUSH1 0x40 DUP1 DUP5 KECCAK256 CALLER DUP1 DUP7 MSTORE SWAP3 MSTORE DUP1 DUP5 KECCAK256 DUP1 SLOAD PUSH32 0xFFFFFFFFFFFFFFFFFFFFFFFFFFFFFFFFFFFFFFFFFFFFFFFFFFFFFFFFFFFFFF00 AND SWAP1 SWAP4 OR SWAP1 SWAP3 SSTORE SWAP1 MLOAD DUP9 SWAP3 PUSH32 0x4A504A94899432A9846E1AA406DCEB1BCFD538BB839071D49D1E5E23F5BE30EF SWAP2 LOG3 PUSH2 0x177F DUP7 PUSH2 0x1057 JUMP JUMPDEST ISZERO PUSH2 0xDB1 JUMPI PUSH2 0xDB1 DUP7 TIMESTAMP PUSH2 0x1C93 JUMP JUMPDEST PUSH1 0x0 PUSH2 0x179B DUP5 DUP5 DUP5 PUSH2 0x1CDE JUMP JUMPDEST SWAP1 POP PUSH2 0x17A6 DUP2 PUSH2 0x167C JUMP JUMPDEST SWAP4 SWAP3 POP POP POP JUMP JUMPDEST PUSH1 0x7 PUSH1 0x20 MSTORE PUSH1 0x0 SWAP1 DUP2 MSTORE PUSH1 0x40 SWAP1 KECCAK256 SLOAD DUP2 JUMP JUMPDEST PUSH1 0x32 DUP2 JUMP JUMPDEST PUSH1 0x4 SLOAD DUP2 JUMP JUMPDEST PUSH1 0x0 CALLER ADDRESS EQ PUSH2 0x17D8 JUMPI PUSH1 0x0 DUP1 REVERT JUMPDEST PUSH20 0xFFFFFFFFFFFFFFFFFFFFFFFFFFFFFFFFFFFFFFFF DUP4 AND PUSH1 0x0 SWAP1 DUP2 MSTORE PUSH1 0x2 PUSH1 0x20 MSTORE PUSH1 0x40 SWAP1 KECCAK256 SLOAD DUP4 SWAP1 PUSH1 0xFF AND ISZERO ISZERO PUSH2 0x180E JUMPI PUSH1 0x0 DUP1 REVERT JUMPDEST PUSH20 0xFFFFFFFFFFFFFFFFFFFFFFFFFFFFFFFFFFFFFFFF DUP4 AND PUSH1 0x0 SWAP1 DUP2 MSTORE PUSH1 0x2 PUSH1 0x20 MSTORE PUSH1 0x40 SWAP1 KECCAK256 SLOAD DUP4 SWAP1 PUSH1 0xFF AND ISZERO PUSH2 0x1843 JUMPI PUSH1 0x0 DUP1 REVERT JUMPDEST PUSH1 0x0 SWAP3 POP JUMPDEST PUSH1 0x3 SLOAD DUP4 LT ISZERO PUSH2 0x1908 JUMPI DUP5 PUSH20 0xFFFFFFFFFFFFFFFFFFFFFFFFFFFFFFFFFFFFFFFF AND PUSH1 0x3 DUP5 DUP2 SLOAD DUP2 LT ISZERO ISZERO PUSH2 0x1878 JUMPI INVALID JUMPDEST PUSH1 0x0 SWAP2 DUP3 MSTORE PUSH1 0x20 SWAP1 SWAP2 KECCAK256 ADD SLOAD PUSH20 0xFFFFFFFFFFFFFFFFFFFFFFFFFFFFFFFFFFFFFFFF AND EQ ISZERO PUSH2 0x18FD JUMPI DUP4 PUSH1 0x3 DUP5 DUP2 SLOAD DUP2 LT ISZERO ISZERO PUSH2 0x18B0 JUMPI INVALID JUMPDEST SWAP1 PUSH1 0x0 MSTORE PUSH1 0x20 PUSH1 0x0 KECCAK256 ADD PUSH1 0x0 PUSH2 0x100 EXP DUP2 SLOAD DUP2 PUSH20 0xFFFFFFFFFFFFFFFFFFFFFFFFFFFFFFFFFFFFFFFF MUL NOT AND SWAP1 DUP4 PUSH20 0xFFFFFFFFFFFFFFFFFFFFFFFFFFFFFFFFFFFFFFFF AND MUL OR SWAP1 SSTORE POP PUSH2 0x1908 JUMP JUMPDEST PUSH1 0x1 SWAP1 SWAP3 ADD SWAP2 PUSH2 0x1848 JUMP JUMPDEST PUSH20 0xFFFFFFFFFFFFFFFFFFFFFFFFFFFFFFFFFFFFFFFF DUP1 DUP7 AND PUSH1 0x0 DUP2 DUP2 MSTORE PUSH1 0x2 PUSH1 0x20 MSTORE PUSH1 0x40 DUP1 DUP3 KECCAK256 DUP1 SLOAD PUSH32 0xFFFFFFFFFFFFFFFFFFFFFFFFFFFFFFFFFFFFFFFFFFFFFFFFFFFFFFFFFFFFFF00 SWAP1 DUP2 AND SWAP1 SWAP2 SSTORE SWAP4 DUP9 AND DUP3 MSTORE DUP1 DUP3 KECCAK256 DUP1 SLOAD SWAP1 SWAP5 AND PUSH1 0x1 OR SWAP1 SWAP4 SSTORE SWAP2 MLOAD SWAP1 SWAP2 PUSH32 0x8001553A916EF2F495D26A907CC54D96ED840D7BDA71E73194BF5A9DF7A76B90 SWAP2 LOG2 PUSH1 0x40 MLOAD PUSH20 0xFFFFFFFFFFFFFFFFFFFFFFFFFFFFFFFFFFFFFFFF DUP6 AND SWAP1 PUSH32 0xF39E6E1EB0EDCF53C221607B54B00CD28F3196FED0A24994DC308B8F611B682D SWAP1 PUSH1 0x0 SWAP1 LOG2 POP POP POP POP POP JUMP JUMPDEST PUSH1 0x0 DUP2 DUP2 MSTORE PUSH1 0x20 DUP2 SWAP1 MSTORE PUSH1 0x40 DUP2 KECCAK256 PUSH1 0x3 ADD SLOAD DUP3 SWAP1 PUSH1 0xFF AND ISZERO PUSH2 0x19FB JUMPI PUSH1 0x0 DUP1 REVERT JUMPDEST DUP3 PUSH2 0x1A05 DUP2 PUSH2 0x1057 JUMP JUMPDEST ISZERO ISZERO PUSH2 0x1A10 JUMPI PUSH1 0x0 DUP1 REVERT JUMPDEST PUSH1 0x6 SLOAD PUSH1 0x0 DUP6 DUP2 MSTORE PUSH1 0x7 PUSH1 0x20 MSTORE PUSH1 0x40 SWAP1 KECCAK256 SLOAD DUP6 SWAP2 ADD TIMESTAMP LT ISZERO PUSH2 0x1A31 JUMPI PUSH1 0x0 DUP1 REVERT JUMPDEST PUSH1 0x0 DUP6 DUP2 MSTORE PUSH1 0x20 DUP2 SWAP1 MSTORE PUSH1 0x40 SWAP1 DUP2 SWAP1 KECCAK256 PUSH1 0x3 DUP2 ADD DUP1 SLOAD PUSH32 0xFFFFFFFFFFFFFFFFFFFFFFFFFFFFFFFFFFFFFFFFFFFFFFFFFFFFFFFFFFFFFF00 AND PUSH1 0x1 SWAP1 DUP2 OR SWAP1 SWAP2 SSTORE DUP2 SLOAD DUP2 DUP4 ADD SLOAD SWAP4 MLOAD PUSH1 0x2 DUP1 DUP6 ADD DUP1 SLOAD SWAP6 SWAP11 POP PUSH20 0xFFFFFFFFFFFFFFFFFFFFFFFFFFFFFFFFFFFFFFFF SWAP1 SWAP4 AND SWAP6 SWAP5 SWAP3 SWAP4 SWAP2 SWAP3 DUP4 SWAP3 DUP6 SWAP3 PUSH32 0xFFFFFFFFFFFFFFFFFFFFFFFFFFFFFFFFFFFFFFFFFFFFFFFFFFFFFFFFFFFFFFFF SWAP2 DUP4 AND ISZERO PUSH2 0x100 MUL SWAP2 SWAP1 SWAP2 ADD SWAP1 SWAP2 AND DIV DUP1 ISZERO PUSH2 0x1B23 JUMPI DUP1 PUSH1 0x1F LT PUSH2 0x1AF8 JUMPI PUSH2 0x100 DUP1 DUP4 SLOAD DIV MUL DUP4 MSTORE SWAP2 PUSH1 0x20 ADD SWAP2 PUSH2 0x1B23 JUMP JUMPDEST DUP3 ADD SWAP2 SWAP1 PUSH1 0x0 MSTORE PUSH1 0x20 PUSH1 0x0 KECCAK256 SWAP1 JUMPDEST DUP2 SLOAD DUP2 MSTORE SWAP1 PUSH1 0x1 ADD SWAP1 PUSH1 0x20 ADD DUP1 DUP4 GT PUSH2 0x1B06 JUMPI DUP3 SWAP1 SUB PUSH1 0x1F AND DUP3 ADD SWAP2 JUMPDEST POP POP SWAP2 POP POP PUSH1 0x0 PUSH1 0x40 MLOAD DUP1 DUP4 SUB DUP2 DUP6 DUP8 GAS CALL SWAP3 POP POP POP ISZERO PUSH2 0x1B6E JUMPI PUSH1 0x40 MLOAD DUP6 SWAP1 PUSH32 0x33E13ECB54C3076D8E8BB8C2881800A4D972B792045FFAE98FDF46DF365FED75 SWAP1 PUSH1 0x0 SWAP1 LOG2 PUSH2 0x1BC4 JUMP JUMPDEST PUSH1 0x40 MLOAD DUP6 SWAP1 PUSH32 0x526441BB6C1ABA3C9A4A6CA1D6545DA9C2333C8C48343EF398EB858D72B79236 SWAP1 PUSH1 0x0 SWAP1 LOG2 PUSH1 0x3 DUP5 ADD DUP1 SLOAD PUSH32 0xFFFFFFFFFFFFFFFFFFFFFFFFFFFFFFFFFFFFFFFFFFFFFFFFFFFFFFFFFFFFFF00 AND SWAP1 SSTORE JUMPDEST POP POP POP POP POP JUMP JUMPDEST PUSH1 0x0 DUP2 PUSH1 0x4 ADD DUP4 MLOAD LT ISZERO ISZERO ISZERO PUSH2 0x1C68 JUMPI PUSH1 0x40 DUP1 MLOAD PUSH32 0x8C379A000000000000000000000000000000000000000000000000000000000 DUP2 MSTORE PUSH1 0x20 PUSH1 0x4 DUP3 ADD MSTORE PUSH1 0x25 PUSH1 0x24 DUP3 ADD MSTORE PUSH32 0x475245415445525F4F525F455155414C5F544F5F345F4C454E4754485F524551 PUSH1 0x44 DUP3 ADD MSTORE PUSH32 0x5549524544000000000000000000000000000000000000000000000000000000 PUSH1 0x64 DUP3 ADD MSTORE SWAP1 MLOAD SWAP1 DUP2 SWAP1 SUB PUSH1 0x84 ADD SWAP1 REVERT JUMPDEST POP POP PUSH1 0x20 ADD MLOAD PUSH32 0xFFFFFFFF00000000000000000000000000000000000000000000000000000000 AND SWAP1 JUMP JUMPDEST PUSH1 0x0 DUP3 DUP2 MSTORE PUSH1 0x7 PUSH1 0x20 SWAP1 DUP2 MSTORE PUSH1 0x40 SWAP2 DUP3 SWAP1 KECCAK256 DUP4 SWAP1 SSTORE DUP2 MLOAD DUP4 DUP2 MSTORE SWAP2 MLOAD DUP5 SWAP3 PUSH32 0xB237AFE65F1514FD7EA3F923EA4FE792BDD07000A912B6CD1602A8E7F573C8D SWAP3 SWAP1 DUP3 SWAP1 SUB ADD SWAP1 LOG2 POP POP JUMP JUMPDEST PUSH1 0x0 DUP4 PUSH20 0xFFFFFFFFFFFFFFFFFFFFFFFFFFFFFFFFFFFFFFFF DUP2 AND ISZERO ISZERO PUSH2 0x1D03 JUMPI PUSH1 0x0 DUP1 REVERT JUMPDEST PUSH1 0x5 SLOAD PUSH1 0x40 DUP1 MLOAD PUSH1 0x80 DUP2 ADD DUP3 MSTORE PUSH20 0xFFFFFFFFFFFFFFFFFFFFFFFFFFFFFFFFFFFFFFFF DUP9 DUP2 AND DUP3 MSTORE PUSH1 0x20 DUP1 DUP4 ADD DUP10 DUP2 MSTORE DUP4 DUP6 ADD DUP10 DUP2 MSTORE PUSH1 0x0 PUSH1 0x60 DUP7 ADD DUP2 SWAP1 MSTORE DUP8 DUP2 MSTORE DUP1 DUP5 MSTORE SWAP6 SWAP1 SWAP6 KECCAK256 DUP5 MLOAD DUP2 SLOAD PUSH32 0xFFFFFFFFFFFFFFFFFFFFFFFF0000000000000000000000000000000000000000 AND SWAP5 AND SWAP4 SWAP1 SWAP4 OR DUP4 SSTORE MLOAD PUSH1 0x1 DUP4 ADD SSTORE SWAP3 MLOAD DUP1 MLOAD SWAP5 SWAP7 POP SWAP2 SWAP4 SWAP1 SWAP3 PUSH2 0x1D9B SWAP3 PUSH1 0x2 DUP6 ADD SWAP3 SWAP2 ADD SWAP1 PUSH2 0x1E3A JUMP JUMPDEST POP PUSH1 0x60 SWAP2 SWAP1 SWAP2 ADD MLOAD PUSH1 0x3 SWAP1 SWAP2 ADD DUP1 SLOAD PUSH32 0xFFFFFFFFFFFFFFFFFFFFFFFFFFFFFFFFFFFFFFFFFFFFFFFFFFFFFFFFFFFFFF00 AND SWAP2 ISZERO ISZERO SWAP2 SWAP1 SWAP2 OR SWAP1 SSTORE PUSH1 0x5 DUP1 SLOAD PUSH1 0x1 ADD SWAP1 SSTORE PUSH1 0x40 MLOAD DUP3 SWAP1 PUSH32 0xC0BA8FE4B176C1714197D43B9CC6BCF797A4A7461C5FE8D0EF6E184AE7601E51 SWAP1 PUSH1 0x0 SWAP1 LOG2 POP SWAP4 SWAP3 POP POP POP JUMP JUMPDEST DUP2 SLOAD DUP2 DUP4 SSTORE DUP2 DUP2 GT ISZERO PUSH2 0x1E35 JUMPI PUSH1 0x0 DUP4 DUP2 MSTORE PUSH1 0x20 SWAP1 KECCAK256 PUSH2 0x1E35 SWAP2 DUP2 ADD SWAP1 DUP4 ADD PUSH2 0x1EB8 JUMP JUMPDEST POP POP POP JUMP JUMPDEST DUP3 DUP1 SLOAD PUSH1 0x1 DUP2 PUSH1 0x1 AND ISZERO PUSH2 0x100 MUL SUB AND PUSH1 0x2 SWAP1 DIV SWAP1 PUSH1 0x0 MSTORE PUSH1 0x20 PUSH1 0x0 KECCAK256 SWAP1 PUSH1 0x1F ADD PUSH1 0x20 SWAP1 DIV DUP2 ADD SWAP3 DUP3 PUSH1 0x1F LT PUSH2 0x1E7B JUMPI DUP1 MLOAD PUSH1 0xFF NOT AND DUP4 DUP1 ADD OR DUP6 SSTORE PUSH2 0x1EA8 JUMP JUMPDEST DUP3 DUP1 ADD PUSH1 0x1 ADD DUP6 SSTORE DUP3 ISZERO PUSH2 0x1EA8 JUMPI SWAP2 DUP3 ADD JUMPDEST DUP3 DUP2 GT ISZERO PUSH2 0x1EA8 JUMPI DUP3 MLOAD DUP3 SSTORE SWAP2 PUSH1 0x20 ADD SWAP2 SWAP1 PUSH1 0x1 ADD SWAP1 PUSH2 0x1E8D JUMP JUMPDEST POP PUSH2 0x1EB4 SWAP3 SWAP2 POP PUSH2 0x1EB8 JUMP JUMPDEST POP SWAP1 JUMP JUMPDEST PUSH2 0x1316 SWAP2 SWAP1 JUMPDEST DUP1 DUP3 GT ISZERO PUSH2 0x1EB4 JUMPI PUSH1 0x0 DUP2 SSTORE PUSH1 0x1 ADD PUSH2 0x1EBE JUMP STOP LOG1 PUSH6 0x627A7A723058 KECCAK256 DUP5 CALLDATACOPY PUSH9 0x47542A16EB1378CA44 DUP8 SWAP9 0xda SWAP9 0xc6 0xd 0x2f 0xd1 BALANCE DELEGATECALL 0x5f 0x2b 0xe7 REVERT 0xd8 0xd TIMESTAMP 0xd9 MLOAD 0xd7 STOP 0x29 "
			}
		}
	},
	"sourceTreeHashHex": "0xe5613f4d434ef18ffc629ab8b6b1b41598e5a61b66374bcef7e0e215583379b8",
	"compiler": {
		"name": "solc",
		"version": "soljson-v0.4.24+commit.e67f0147.js",
		"settings": {
			"optimizer": {
				"enabled": true,
				"runs": 1000000
			},
			"outputSelection": {
				"*": {
					"*": [
						"abi",
						"evm.bytecode.object",
						"evm.bytecode.sourceMap",
						"evm.deployedBytecode.object",
						"evm.deployedBytecode.sourceMap"
					]
				}
			}
		}
	}
}