{
	"schemaVersion": "2.0.0",
	"contractName": "AssetProxyOwner",
	"compilerOutput": {
		"abi": [
			{
				"constant": true,
				"inputs": [
					{
						"name": "",
						"type": "uint256"
					}
				],
				"name": "owners",
				"outputs": [
					{
						"name": "",
						"type": "address"
					}
				],
				"payable": false,
				"type": "function"
			},
			{
				"constant": false,
				"inputs": [
					{
						"name": "owner",
						"type": "address"
					}
				],
				"name": "removeOwner",
				"outputs": [],
				"payable": false,
				"type": "function"
			},
			{
				"constant": false,
				"inputs": [
					{
						"name": "transactionId",
						"type": "uint256"
					}
				],
				"name": "revokeConfirmation",
				"outputs": [],
				"payable": false,
				"type": "function"
			},
			{
				"constant": true,
				"inputs": [
					{
						"name": "",
						"type": "address"
					}
				],
				"name": "isOwner",
				"outputs": [
					{
						"name": "",
						"type": "bool"
					}
				],
				"payable": false,
				"type": "function"
			},
			{
				"constant": true,
				"inputs": [
					{
						"name": "",
						"type": "uint256"
					},
					{
						"name": "",
						"type": "address"
					}
				],
				"name": "confirmations",
				"outputs": [
					{
						"name": "",
						"type": "bool"
					}
				],
				"payable": false,
				"type": "function"
			},
			{
				"constant": false,
				"inputs": [
					{
						"name": "transactionId",
						"type": "uint256"
					}
				],
				"name": "executeRemoveAuthorizedAddressAtIndex",
				"outputs": [],
				"payable": false,
				"type": "function"
			},
			{
				"constant": true,
				"inputs": [],
				"name": "secondsTimeLocked",
				"outputs": [
					{
						"name": "",
						"type": "uint256"
					}
				],
				"payable": false,
				"type": "function"
			},
			{
				"constant": true,
				"inputs": [
					{
						"name": "pending",
						"type": "bool"
					},
					{
						"name": "executed",
						"type": "bool"
					}
				],
				"name": "getTransactionCount",
				"outputs": [
					{
						"name": "count",
						"type": "uint256"
					}
				],
				"payable": false,
				"type": "function"
			},
			{
				"constant": false,
				"inputs": [
					{
						"name": "assetProxyContract",
						"type": "address"
					},
					{
						"name": "isRegistered",
						"type": "bool"
					}
				],
				"name": "registerAssetProxy",
				"outputs": [],
				"payable": false,
				"type": "function"
			},
			{
				"constant": false,
				"inputs": [
					{
						"name": "owner",
						"type": "address"
					}
				],
				"name": "addOwner",
				"outputs": [],
				"payable": false,
				"type": "function"
			},
			{
				"constant": true,
				"inputs": [
					{
						"name": "transactionId",
						"type": "uint256"
					}
				],
				"name": "isConfirmed",
				"outputs": [
					{
						"name": "",
						"type": "bool"
					}
				],
				"payable": false,
				"type": "function"
			},
			{
				"constant": false,
				"inputs": [
					{
						"name": "_secondsTimeLocked",
						"type": "uint256"
					}
				],
				"name": "changeTimeLock",
				"outputs": [],
				"payable": false,
				"type": "function"
			},
			{
				"constant": true,
				"inputs": [
					{
						"name": "",
						"type": "address"
					}
				],
				"name": "isAssetProxyRegistered",
				"outputs": [
					{
						"name": "",
						"type": "bool"
					}
				],
				"payable": false,
				"type": "function"
			},
			{
				"constant": true,
				"inputs": [
					{
						"name": "transactionId",
						"type": "uint256"
					}
				],
				"name": "getConfirmationCount",
				"outputs": [
					{
						"name": "count",
						"type": "uint256"
					}
				],
				"payable": false,
				"type": "function"
			},
			{
				"constant": true,
				"inputs": [
					{
						"name": "",
						"type": "uint256"
					}
				],
				"name": "transactions",
				"outputs": [
					{
						"name": "destination",
						"type": "address"
					},
					{
						"name": "value",
						"type": "uint256"
					},
					{
						"name": "data",
						"type": "bytes"
					},
					{
						"name": "executed",
						"type": "bool"
					}
				],
				"payable": false,
				"type": "function"
			},
			{
				"constant": true,
				"inputs": [],
				"name": "getOwners",
				"outputs": [
					{
						"name": "",
						"type": "address[]"
					}
				],
				"payable": false,
				"type": "function"
			},
			{
				"constant": true,
				"inputs": [
					{
						"name": "from",
						"type": "uint256"
					},
					{
						"name": "to",
						"type": "uint256"
					},
					{
						"name": "pending",
						"type": "bool"
					},
					{
						"name": "executed",
						"type": "bool"
					}
				],
				"name": "getTransactionIds",
				"outputs": [
					{
						"name": "_transactionIds",
						"type": "uint256[]"
					}
				],
				"payable": false,
				"type": "function"
			},
			{
				"constant": true,
				"inputs": [
					{
						"name": "transactionId",
						"type": "uint256"
					}
				],
				"name": "getConfirmations",
				"outputs": [
					{
						"name": "_confirmations",
						"type": "address[]"
					}
				],
				"payable": false,
				"type": "function"
			},
			{
				"constant": true,
				"inputs": [],
				"name": "transactionCount",
				"outputs": [
					{
						"name": "",
						"type": "uint256"
					}
				],
				"payable": false,
				"type": "function"
			},
			{
				"constant": false,
				"inputs": [
					{
						"name": "_required",
						"type": "uint256"
					}
				],
				"name": "changeRequirement",
				"outputs": [],
				"payable": false,
				"type": "function"
			},
			{
				"constant": false,
				"inputs": [
					{
						"name": "transactionId",
						"type": "uint256"
					}
				],
				"name": "confirmTransaction",
				"outputs": [],
				"payable": false,
				"type": "function"
			},
			{
				"constant": false,
				"inputs": [
					{
						"name": "destination",
						"type": "address"
					},
					{
						"name": "value",
						"type": "uint256"
					},
					{
						"name": "data",
						"type": "bytes"
					}
				],
				"name": "submitTransaction",
				"outputs": [
					{
						"name": "transactionId",
						"type": "uint256"
					}
				],
				"payable": false,
				"type": "function"
			},
			{
				"constant": true,
				"inputs": [
					{
						"name": "",
						"type": "uint256"
					}
				],
				"name": "confirmationTimes",
				"outputs": [
					{
						"name": "",
						"type": "uint256"
					}
				],
				"payable": false,
				"type": "function"
			},
			{
				"constant": true,
				"inputs": [],
				"name": "MAX_OWNER_COUNT",
				"outputs": [
					{
						"name": "",
						"type": "uint256"
					}
				],
				"payable": false,
				"type": "function"
			},
			{
				"constant": true,
				"inputs": [],
				"name": "required",
				"outputs": [
					{
						"name": "",
						"type": "uint256"
					}
				],
				"payable": false,
				"type": "function"
			},
			{
				"constant": false,
				"inputs": [
					{
						"name": "owner",
						"type": "address"
					},
					{
						"name": "newOwner",
						"type": "address"
					}
				],
				"name": "replaceOwner",
				"outputs": [],
				"payable": false,
				"type": "function"
			},
			{
				"constant": false,
				"inputs": [
					{
						"name": "transactionId",
						"type": "uint256"
					}
				],
				"name": "executeTransaction",
				"outputs": [],
				"payable": false,
				"type": "function"
			},
			{
				"inputs": [
					{
						"name": "_owners",
						"type": "address[]"
					},
					{
						"name": "_assetProxyContracts",
						"type": "address[]"
					},
					{
						"name": "_required",
						"type": "uint256"
					},
					{
						"name": "_secondsTimeLocked",
						"type": "uint256"
					}
				],
				"payable": false,
				"type": "constructor"
			},
			{
				"payable": true,
				"type": "fallback"
			},
			{
				"anonymous": false,
				"inputs": [
					{
						"indexed": false,
						"name": "assetProxyContract",
						"type": "address"
					},
					{
						"indexed": false,
						"name": "isRegistered",
						"type": "bool"
					}
				],
				"name": "AssetProxyRegistration",
				"type": "event"
			},
			{
				"anonymous": false,
				"inputs": [
					{
						"indexed": true,
						"name": "transactionId",
						"type": "uint256"
					},
					{
						"indexed": false,
						"name": "confirmationTime",
						"type": "uint256"
					}
				],
				"name": "ConfirmationTimeSet",
				"type": "event"
			},
			{
				"anonymous": false,
				"inputs": [
					{
						"indexed": false,
						"name": "secondsTimeLocked",
						"type": "uint256"
					}
				],
				"name": "TimeLockChange",
				"type": "event"
			},
			{
				"anonymous": false,
				"inputs": [
					{
						"indexed": true,
						"name": "sender",
						"type": "address"
					},
					{
						"indexed": true,
						"name": "transactionId",
						"type": "uint256"
					}
				],
				"name": "Confirmation",
				"type": "event"
			},
			{
				"anonymous": false,
				"inputs": [
					{
						"indexed": true,
						"name": "sender",
						"type": "address"
					},
					{
						"indexed": true,
						"name": "transactionId",
						"type": "uint256"
					}
				],
				"name": "Revocation",
				"type": "event"
			},
			{
				"anonymous": false,
				"inputs": [
					{
						"indexed": true,
						"name": "transactionId",
						"type": "uint256"
					}
				],
				"name": "Submission",
				"type": "event"
			},
			{
				"anonymous": false,
				"inputs": [
					{
						"indexed": true,
						"name": "transactionId",
						"type": "uint256"
					}
				],
				"name": "Execution",
				"type": "event"
			},
			{
				"anonymous": false,
				"inputs": [
					{
						"indexed": true,
						"name": "transactionId",
						"type": "uint256"
					}
				],
				"name": "ExecutionFailure",
				"type": "event"
			},
			{
				"anonymous": false,
				"inputs": [
					{
						"indexed": true,
						"name": "sender",
						"type": "address"
					},
					{
						"indexed": false,
						"name": "value",
						"type": "uint256"
					}
				],
				"name": "Deposit",
				"type": "event"
			},
			{
				"anonymous": false,
				"inputs": [
					{
						"indexed": true,
						"name": "owner",
						"type": "address"
					}
				],
				"name": "OwnerAddition",
				"type": "event"
			},
			{
				"anonymous": false,
				"inputs": [
					{
						"indexed": true,
						"name": "owner",
						"type": "address"
					}
				],
				"name": "OwnerRemoval",
				"type": "event"
			},
			{
				"anonymous": false,
				"inputs": [
					{
						"indexed": false,
						"name": "required",
						"type": "uint256"
					}
				],
				"name": "RequirementChange",
				"type": "event"
			}
		],
		"evm": {
			"bytecode": {
				"object": "0x606060405234156200000d57fe5b60405162001e8338038062001e8383398101604090815281516020830151918301516060840151918401939290920191905b600060008584845b82825b600082518260328211806200005e57508181115b8062000068575080155b8062000072575081155b156200007e5760006000fd5b600092505b84518310156200015357600260008685815181101515620000a057fe5b6020908102909101810151600160a060020a031682528101919091526040016000205460ff1680620000f357508483815181101515620000dc57fe5b90602001906020020151600160a060020a03166000145b15620000ff5760006000fd5b60016002600087868151811015156200011457fe5b602090810291909101810151600160a060020a03168252810191909152604001600020805460ff19169115159190911790555b60019092019162000083565b845162000168906003906020880190620001fc565b5060048490555b5b505050600683905550505b505050600091505b8451821015620001ef5784828151811015156200019c57fe5b602090810290910101519050600160a060020a0381161515620001bf5760006000fd5b600160a060020a0381166000908152600860205260409020805460ff191660011790555b60019091019062000183565b5b50505050505062000295565b82805482825590600052602060002090810192821562000254579160200282015b82811115620002545782518254600160a060020a031916600160a060020a039091161782556020909201916001909101906200021d565b5b506200026392915062000267565b5090565b6200029291905b8082111562000263578054600160a060020a03191681556001016200026e565b5090565b90565b611bde80620002a56000396000f300606060405236156101435763ffffffff60e060020a600035041663025e7c278114610195578063173825d9146101c457806320ea8d86146101e25780632f54bf6e146101f75780633411c81c146102275780633589b35c1461025a57806337bd78a01461026f57806354741525146102915780635a1a66af146102bd5780637065cb48146102e0578063784547a7146102fe5780637ad28c511461032557806383250f791461033a5780638b51d13f1461036a5780639ace38c21461038f578063a0e67e2b1461044c578063a8abe69a146104b7578063b5dc40c314610532578063b77bf600146105a0578063ba51a6df146105c2578063c01a8c84146105d7578063c6427474146105ec578063d38f2d8214610661578063d74f8edd14610686578063dc8452cd146106a8578063e20056e6146106ca578063ee22610b146106ee575b6101935b600034111561019057604080513481529051600160a060020a033316917fe1fffcc4923d04b559f4d29a8bfc6cda04eb5b0d3c460751c2402c5c5cc9109c919081900360200190a25b5b565b005b341561019d57fe5b6101a8600435610703565b60408051600160a060020a039092168252519081900360200190f35b34156101cc57fe5b610193600160a060020a0360043516610735565b005b34156101ea57fe5b6101936004356108e6565b005b34156101ff57fe5b610213600160a060020a03600435166109da565b604080519115158252519081900360200190f35b341561022f57fe5b610213600435600160a060020a03602435166109ef565b604080519115158252519081900360200190f35b341561026257fe5b610193600435610a0f565b005b341561027757fe5b61027f610cc9565b60408051918252519081900360200190f35b341561029957fe5b61027f60043515156024351515610ccf565b60408051918252519081900360200190f35b34156102c557fe5b610193600160a060020a03600435166024351515610d3e565b005b34156102e857fe5b610193600160a060020a0360043516610dde565b005b341561030657fe5b610213600435610f15565b604080519115158252519081900360200190f35b341561032d57fe5b610193600435610fa9565b005b341561034257fe5b610213600160a060020a0360043516611007565b604080519115158252519081900360200190f35b341561037257fe5b61027f60043561101c565b60408051918252519081900360200190f35b341561039757fe5b6103a260043561109b565b60408051600160a060020a03861681526020810185905282151560608201526080918101828152845460026000196101006001841615020190911604928201839052909160a08301908590801561043a5780601f1061040f5761010080835404028352916020019161043a565b820191906000526020600020905b81548152906001019060200180831161041d57829003601f168201915b50509550505050505060405180910390f35b341561045457fe5b61045c6110cf565b60408051602080825283518183015283519192839290830191858101910280838382156104a4575b8051825260208311156104a457601f199092019160209182019101610484565b5050509050019250505060405180910390f35b34156104bf57fe5b61045c60043560243560443515156064351515611138565b60408051602080825283518183015283519192839290830191858101910280838382156104a4575b8051825260208311156104a457601f199092019160209182019101610484565b5050509050019250505060405180910390f35b341561053a57fe5b61045c60043561126d565b60408051602080825283518183015283519192839290830191858101910280838382156104a4575b8051825260208311156104a457601f199092019160209182019101610484565b5050509050019250505060405180910390f35b34156105a857fe5b61027f6113f5565b60408051918252519081900360200190f35b34156105ca57fe5b6101936004356113fb565b005b34156105df57fe5b61019360043561148b565b005b34156105f457fe5b604080516020600460443581810135601f810184900484028501840190955284845261027f948235600160a060020a03169460248035956064949293919092019181908401838280828437509496506115a095505050505050565b60408051918252519081900360200190f35b341561066957fe5b61027f6004356115c0565b60408051918252519081900360200190f35b341561068e57fe5b61027f6115d2565b60408051918252519081900360200190f35b34156106b057fe5b61027f6115d7565b60408051918252519081900360200190f35b34156106d257fe5b610193600160a060020a03600435811690602435166115dd565b005b34156106f657fe5b610193600435611799565b005b600380548290811061071157fe5b906000526020600020900160005b915054906101000a9004600160a060020a031681565b600030600160a060020a031633600160a060020a03161415156107585760006000fd5b600160a060020a038216600090815260026020526040902054829060ff1615156107825760006000fd5b600160a060020a0383166000908152600260205260408120805460ff1916905591505b6003546000190182101561087d5782600160a060020a03166003838154811015156107cc57fe5b906000526020600020900160005b9054906101000a9004600160a060020a0316600160a060020a031614156108715760038054600019810190811061080d57fe5b906000526020600020900160005b9054906101000a9004600160a060020a031660038381548110151561083c57fe5b906000526020600020900160005b6101000a815481600160a060020a030219169083600160a060020a0316021790555061087d565b5b6001909101906107a5565b6003805460001901906108909082611a9a565b5060035460045411156108a9576003546108a9906113fb565b5b604051600160a060020a038416907f8001553a916ef2f495d26a907cc54d96ed840d7bda71e73194bf5a9df7a76b9090600090a25b5b505b5050565b33600160a060020a03811660009081526002602052604090205460ff16151561090f5760006000fd5b600082815260016020908152604080832033600160a060020a038116855292529091205483919060ff1615156109455760006000fd5b600084815260208190526040902060030154849060ff16156109675760006000fd5b8461097181610f15565b1561097c5760006000fd5b6000868152600160209081526040808320600160a060020a0333168085529252808320805460ff191690555188927ff6a317157440607f36269043eb55f1287a5a19ba2216afeab88cd46cbcfb88e991a35b5b505b505b50505b5050565b60026020526000908152604090205460ff1681565b600160209081526000928352604080842090915290825290205460ff1681565b600081815260208190526040812060030154829060ff1615610a315760006000fd5b82610a3b81610f15565b1515610a475760006000fd5b6000848152602081815260408083208054600160a060020a0316845260089092529091205485919060ff161515610a7e5760006000fd5b604080517f72656d6f7665417574686f72697a6564416464726573734174496e646578286181527f6464726573732c75696e743235362900000000000000000000000000000000006020808301919091528251602f9281900392909201822060028581018054600181161561010002600019011691909104601f8101849004840285018401909552848452600160e060020a031990911693610b789392830182828015610b6c5780601f10610b4157610100808354040283529160200191610b6c565b820191906000526020600020905b815481529060010190602001808311610b4f57829003601f168201915b5050505050600061192e565b600160e060020a03191614610b8d5760006000fd5b6000868152602081905260409081902060038101805460ff19166001908117909155815481830154935160028085018054959b50600160a060020a0390931695949293919283928592600019918316156101000291909101909116048015610c365780601f10610c0b57610100808354040283529160200191610c36565b820191906000526020600020905b815481529060010190602001808311610c1957829003601f168201915b505091505060006040518083038185876185025a03f19250505015610c855760405186907f33e13ecb54c3076d8e8bb8c2881800a4d972b792045ffae98fdf46df365fed7590600090a26109ce565b60405186907f526441bb6c1aba3c9a4a6ca1d6545da9c2333c8c48343ef398eb858d72b7923690600090a260038501805460ff191690555b5b5b50505b505b505050565b60065481565b6000805b600554811015610d3657838015610cfc575060008181526020819052604090206003015460ff16155b80610d205750828015610d20575060008181526020819052604090206003015460ff165b5b15610d2d576001820191505b5b600101610cd3565b5b5092915050565b30600160a060020a031633600160a060020a0316141515610d5f5760006000fd5b81600160a060020a0381161515610d765760006000fd5b600160a060020a038316600081815260086020908152604091829020805460ff191686151590811790915582519384529083015280517fdaef8ff7dc66c5e34eb9c338aab679d9f427f89868d9228494455a4d982eb2b09281900390910190a15b5b505b5050565b30600160a060020a031633600160a060020a0316141515610dff5760006000fd5b600160a060020a038116600090815260026020526040902054819060ff1615610e285760006000fd5b81600160a060020a0381161515610e3f5760006000fd5b6003805490506001016004546032821180610e5957508181115b80610e62575080155b80610e6b575081155b15610e765760006000fd5b600160a060020a0385166000908152600260205260409020805460ff191660019081179091556003805490918101610eae8382611a9a565b916000526020600020900160005b8154600160a060020a03808a166101009390930a838102910219909116179091556040519091507ff39e6e1eb0edcf53c221607b54b00cd28f3196fed0a24994dc308b8f611b682d90600090a25b5b50505b505b505b50565b600080805b600354811015610fa15760008481526001602052604081206003805491929184908110610f4357fe5b906000526020600020900160005b9054600160a060020a036101009290920a900416815260208101919091526040016000205460ff1615610f85576001820191505b600454821415610f985760019250610fa1565b5b600101610f1a565b5b5050919050565b30600160a060020a031633600160a060020a0316141515610fca5760006000fd5b60068190556040805182815290517fd1c9101a34feff75cccef14a28785a0279cb0b49c1f321f21f5f422e746b43779181900360200190a15b5b50565b60086020526000908152604090205460ff1681565b6000805b600354811015611094576000838152600160205260408120600380549192918490811061104957fe5b906000526020600020900160005b9054600160a060020a036101009290920a900416815260208101919091526040016000205460ff161561108b576001820191505b5b600101611020565b5b50919050565b6000602081905290815260409020805460018201546003830154600160a060020a0390921692909160029091019060ff1684565b6110d7611aee565b600380548060200260200160405190810160405280929190818152602001828054801561112d57602002820191906000526020600020905b8154600160a060020a0316815260019091019060200180831161110f575b505050505090505b90565b611140611aee565b611148611aee565b6000600060055460405180591061115c5750595b908082528060200260200182016040525b50925060009150600090505b6005548110156111f6578580156111a2575060008181526020819052604090206003015460ff16155b806111c657508480156111c6575060008181526020819052604090206003015460ff165b5b156111ed578083838151811015156111db57fe5b60209081029091010152600191909101905b5b600101611179565b8787036040518059106112065750595b908082528060200260200182016040525b5093508790505b8681101561126157828181518110151561123457fe5b906020019060200201518489830381518110151561124e57fe5b602090810290910101525b60010161121e565b5b505050949350505050565b611275611aee565b61127d611aee565b60035460405160009182918059106112925750595b908082528060200260200182016040525b50925060009150600090505b60035481101561137757600085815260016020526040812060038054919291849081106112d857fe5b906000526020600020900160005b9054600160a060020a036101009290920a900416815260208101919091526040016000205460ff161561136e57600380548290811061132157fe5b906000526020600020900160005b9054906101000a9004600160a060020a0316838381518110151561134f57fe5b600160a060020a03909216602092830290910190910152600191909101905b5b6001016112af565b816040518059106113855750595b908082528060200260200182016040525b509350600090505b818110156113ec5782818151811015156113b457fe5b9060200190602002015184828151811015156113cc57fe5b600160a060020a039092166020928302909101909101525b60010161139e565b5b505050919050565b60055481565b30600160a060020a031633600160a060020a031614151561141c5760006000fd5b60035481603282118061142e57508181115b80611437575080155b80611440575081155b1561144b5760006000fd5b60048390556040805184815290517fa3f1ee9126a074d9326c682f561767f710e927faa811f7a99829d49dc421797a9181900360200190a15b5b50505b50565b33600160a060020a03811660009081526002602052604090205460ff1615156114b45760006000fd5b6000828152602081905260409020548290600160a060020a031615156114da5760006000fd5b600083815260016020908152604080832033600160a060020a038116855292529091205484919060ff161561150f5760006000fd5b8461151981610f15565b156115245760006000fd5b6000868152600160208181526040808420600160a060020a0333168086529252808420805460ff1916909317909255905188927f4a504a94899432a9846e1aa406dceb1bcfd538bb839071d49d1e5e23f5be30ef91a361158386610f15565b156109ce576109ce864261195b565b5b5b5b505b50505b505b5050565b60006115ad8484846119a7565b90506115b88161148b565b5b9392505050565b60076020526000908152604090205481565b603281565b60045481565b600030600160a060020a031633600160a060020a03161415156116005760006000fd5b600160a060020a038316600090815260026020526040902054839060ff16151561162a5760006000fd5b600160a060020a038316600090815260026020526040902054839060ff16156116535760006000fd5b600092505b6003548310156116fb5784600160a060020a031660038481548110151561167b57fe5b906000526020600020900160005b9054906101000a9004600160a060020a0316600160a060020a031614156116ef57836003848154811015156116ba57fe5b906000526020600020900160005b6101000a815481600160a060020a030219169083600160a060020a031602179055506116fb565b5b600190920191611658565b600160a060020a03808616600081815260026020526040808220805460ff1990811690915593881682528082208054909416600117909355915190917f8001553a916ef2f495d26a907cc54d96ed840d7bda71e73194bf5a9df7a76b9091a2604051600160a060020a038516907ff39e6e1eb0edcf53c221607b54b00cd28f3196fed0a24994dc308b8f611b682d90600090a25b5b505b505b505050565b600081815260208190526040812060030154829060ff16156117bb5760006000fd5b826117c581610f15565b15156117d15760006000fd5b6006546000858152600760205260409020548591014210156117f35760006000fd5b6000858152602081905260409081902060038101805460ff19166001908117909155815481830154935160028085018054959a50600160a060020a039093169594929391928392859260001991831615610100029190910190911604801561189c5780601f106118715761010080835404028352916020019161189c565b820191906000526020600020905b81548152906001019060200180831161187f57829003601f168201915b505091505060006040518083038185876185025a03f192505050156118eb5760405185907f33e13ecb54c3076d8e8bb8c2881800a4d972b792045ffae98fdf46df365fed7590600090a26109d1565b60405185907f526441bb6c1aba3c9a4a6ca1d6545da9c2333c8c48343ef398eb858d72b7923690600090a260038401805460ff191690555b5b5b505b505b505050565b6000816004018351101515156119445760006000fd5b506020820151600160e060020a0319165b92915050565b6000828152600760209081526040918290208390558151838152915184927f0b237afe65f1514fd7ea3f923ea4fe792bdd07000a912b6cd1602a8e7f573c8d92908290030190a25b5050565b600083600160a060020a03811615156119c05760006000fd5b60055460408051608081018252600160a060020a0388811682526020808301898152838501898152600060608601819052878152808452959095208451815473ffffffffffffffffffffffffffffffffffffffff191694169390931783555160018301559251805194965091939092611a40926002850192910190611b12565b50606091909101516003909101805460ff191691151591909117905560058054600101905560405182907fc0ba8fe4b176c1714197d43b9cc6bcf797a4a7461c5fe8d0ef6e184ae7601e5190600090a25b5b509392505050565b8154818355818115116108df576000838152602090206108df918101908301611b91565b5b505050565b8154818355818115116108df576000838152602090206108df918101908301611b91565b5b505050565b60408051602081019091526000815290565b60408051602081019091526000815290565b828054600181600116156101000203166002900490600052602060002090601f016020900481019282601f10611b5357805160ff1916838001178555611b80565b82800160010185558215611b80579182015b82811115611b80578251825591602001919060010190611b65565b5b50611b8d929150611b91565b5090565b61113591905b80821115611b8d5760008155600101611b97565b5090565b905600a165627a7a72305820de7348a39a18c2139f807a6077c790eed8049dfeaae504bf4a42607bfae3afce0029",
				"opcodes": "PUSH1 0x60 PUSH1 0x40 MSTORE CALLVALUE ISZERO PUSH3 0xD JUMPI INVALID JUMPDEST PUSH1 0x40 MLOAD PUSH3 0x1E83 CODESIZE SUB DUP1 PUSH3 0x1E83 DUP4 CODECOPY DUP2 ADD PUSH1 0x40 SWAP1 DUP2 MSTORE DUP2 MLOAD PUSH1 0x20 DUP4 ADD MLOAD SWAP2 DUP4 ADD MLOAD PUSH1 0x60 DUP5 ADD MLOAD SWAP2 DUP5 ADD SWAP4 SWAP3 SWAP1 SWAP3 ADD SWAP2 SWAP1 JUMPDEST PUSH1 0x0 PUSH1 0x0 DUP6 DUP5 DUP5 JUMPDEST DUP3 DUP3 JUMPDEST PUSH1 0x0 DUP3 MLOAD DUP3 PUSH1 0x32 DUP3 GT DUP1 PUSH3 0x5E JUMPI POP DUP2 DUP2 GT JUMPDEST DUP1 PUSH3 0x68 JUMPI POP DUP1 ISZERO JUMPDEST DUP1 PUSH3 0x72 JUMPI POP DUP2 ISZERO JUMPDEST ISZERO PUSH3 0x7E JUMPI PUSH1 0x0 PUSH1 0x0 REVERT JUMPDEST PUSH1 0x0 SWAP3 POP JUMPDEST DUP5 MLOAD DUP4 LT ISZERO PUSH3 0x153 JUMPI PUSH1 0x2 PUSH1 0x0 DUP7 DUP6 DUP2 MLOAD DUP2 LT ISZERO ISZERO PUSH3 0xA0 JUMPI INVALID JUMPDEST PUSH1 0x20 SWAP1 DUP2 MUL SWAP1 SWAP2 ADD DUP2 ADD MLOAD PUSH1 0x1 PUSH1 0xA0 PUSH1 0x2 EXP SUB AND DUP3 MSTORE DUP2 ADD SWAP2 SWAP1 SWAP2 MSTORE PUSH1 0x40 ADD PUSH1 0x0 SHA3 SLOAD PUSH1 0xFF AND DUP1 PUSH3 0xF3 JUMPI POP DUP5 DUP4 DUP2 MLOAD DUP2 LT ISZERO ISZERO PUSH3 0xDC JUMPI INVALID JUMPDEST SWAP1 PUSH1 0x20 ADD SWAP1 PUSH1 0x20 MUL ADD MLOAD PUSH1 0x1 PUSH1 0xA0 PUSH1 0x2 EXP SUB AND PUSH1 0x0 EQ JUMPDEST ISZERO PUSH3 0xFF JUMPI PUSH1 0x0 PUSH1 0x0 REVERT JUMPDEST PUSH1 0x1 PUSH1 0x2 PUSH1 0x0 DUP8 DUP7 DUP2 MLOAD DUP2 LT ISZERO ISZERO PUSH3 0x114 JUMPI INVALID JUMPDEST PUSH1 0x20 SWAP1 DUP2 MUL SWAP2 SWAP1 SWAP2 ADD DUP2 ADD MLOAD PUSH1 0x1 PUSH1 0xA0 PUSH1 0x2 EXP SUB AND DUP3 MSTORE DUP2 ADD SWAP2 SWAP1 SWAP2 MSTORE PUSH1 0x40 ADD PUSH1 0x0 SHA3 DUP1 SLOAD PUSH1 0xFF NOT AND SWAP2 ISZERO ISZERO SWAP2 SWAP1 SWAP2 OR SWAP1 SSTORE JUMPDEST PUSH1 0x1 SWAP1 SWAP3 ADD SWAP2 PUSH3 0x83 JUMP JUMPDEST DUP5 MLOAD PUSH3 0x168 SWAP1 PUSH1 0x3 SWAP1 PUSH1 0x20 DUP9 ADD SWAP1 PUSH3 0x1FC JUMP JUMPDEST POP PUSH1 0x4 DUP5 SWAP1 SSTORE JUMPDEST JUMPDEST POP POP POP PUSH1 0x6 DUP4 SWAP1 SSTORE POP POP JUMPDEST POP POP POP PUSH1 0x0 SWAP2 POP JUMPDEST DUP5 MLOAD DUP3 LT ISZERO PUSH3 0x1EF JUMPI DUP5 DUP3 DUP2 MLOAD DUP2 LT ISZERO ISZERO PUSH3 0x19C JUMPI INVALID JUMPDEST PUSH1 0x20 SWAP1 DUP2 MUL SWAP1 SWAP2 ADD ADD MLOAD SWAP1 POP PUSH1 0x1 PUSH1 0xA0 PUSH1 0x2 EXP SUB DUP2 AND ISZERO ISZERO PUSH3 0x1BF JUMPI PUSH1 0x0 PUSH1 0x0 REVERT JUMPDEST PUSH1 0x1 PUSH1 0xA0 PUSH1 0x2 EXP SUB DUP2 AND PUSH1 0x0 SWAP1 DUP2 MSTORE PUSH1 0x8 PUSH1 0x20 MSTORE PUSH1 0x40 SWAP1 SHA3 DUP1 SLOAD PUSH1 0xFF NOT AND PUSH1 0x1 OR SWAP1 SSTORE JUMPDEST PUSH1 0x1 SWAP1 SWAP2 ADD SWAP1 PUSH3 0x183 JUMP JUMPDEST JUMPDEST POP POP POP POP POP POP PUSH3 0x295 JUMP JUMPDEST DUP3 DUP1 SLOAD DUP3 DUP3 SSTORE SWAP1 PUSH1 0x0 MSTORE PUSH1 0x20 PUSH1 0x0 SHA3 SWAP1 DUP2 ADD SWAP3 DUP3 ISZERO PUSH3 0x254 JUMPI SWAP2 PUSH1 0x20 MUL DUP3 ADD JUMPDEST DUP3 DUP2 GT ISZERO PUSH3 0x254 JUMPI DUP3 MLOAD DUP3 SLOAD PUSH1 0x1 PUSH1 0xA0 PUSH1 0x2 EXP SUB NOT AND PUSH1 0x1 PUSH1 0xA0 PUSH1 0x2 EXP SUB SWAP1 SWAP2 AND OR DUP3 SSTORE PUSH1 0x20 SWAP1 SWAP3 ADD SWAP2 PUSH1 0x1 SWAP1 SWAP2 ADD SWAP1 PUSH3 0x21D JUMP JUMPDEST JUMPDEST POP PUSH3 0x263 SWAP3 SWAP2 POP PUSH3 0x267 JUMP JUMPDEST POP SWAP1 JUMP JUMPDEST PUSH3 0x292 SWAP2 SWAP1 JUMPDEST DUP1 DUP3 GT ISZERO PUSH3 0x263 JUMPI DUP1 SLOAD PUSH1 0x1 PUSH1 0xA0 PUSH1 0x2 EXP SUB NOT AND DUP2 SSTORE PUSH1 0x1 ADD PUSH3 0x26E JUMP JUMPDEST POP SWAP1 JUMP JUMPDEST SWAP1 JUMP JUMPDEST PUSH2 0x1BDE DUP1 PUSH3 0x2A5 PUSH1 0x0 CODECOPY PUSH1 0x0 RETURN STOP PUSH1 0x60 PUSH1 0x40 MSTORE CALLDATASIZE ISZERO PUSH2 0x143 JUMPI PUSH4 0xFFFFFFFF PUSH1 0xE0 PUSH1 0x2 EXP PUSH1 0x0 CALLDATALOAD DIV AND PUSH4 0x25E7C27 DUP2 EQ PUSH2 0x195 JUMPI DUP1 PUSH4 0x173825D9 EQ PUSH2 0x1C4 JUMPI DUP1 PUSH4 0x20EA8D86 EQ PUSH2 0x1E2 JUMPI DUP1 PUSH4 0x2F54BF6E EQ PUSH2 0x1F7 JUMPI DUP1 PUSH4 0x3411C81C EQ PUSH2 0x227 JUMPI DUP1 PUSH4 0x3589B35C EQ PUSH2 0x25A JUMPI DUP1 PUSH4 0x37BD78A0 EQ PUSH2 0x26F JUMPI DUP1 PUSH4 0x54741525 EQ PUSH2 0x291 JUMPI DUP1 PUSH4 0x5A1A66AF EQ PUSH2 0x2BD JUMPI DUP1 PUSH4 0x7065CB48 EQ PUSH2 0x2E0 JUMPI DUP1 PUSH4 0x784547A7 EQ PUSH2 0x2FE JUMPI DUP1 PUSH4 0x7AD28C51 EQ PUSH2 0x325 JUMPI DUP1 PUSH4 0x83250F79 EQ PUSH2 0x33A JUMPI DUP1 PUSH4 0x8B51D13F EQ PUSH2 0x36A JUMPI DUP1 PUSH4 0x9ACE38C2 EQ PUSH2 0x38F JUMPI DUP1 PUSH4 0xA0E67E2B EQ PUSH2 0x44C JUMPI DUP1 PUSH4 0xA8ABE69A EQ PUSH2 0x4B7 JUMPI DUP1 PUSH4 0xB5DC40C3 EQ PUSH2 0x532 JUMPI DUP1 PUSH4 0xB77BF600 EQ PUSH2 0x5A0 JUMPI DUP1 PUSH4 0xBA51A6DF EQ PUSH2 0x5C2 JUMPI DUP1 PUSH4 0xC01A8C84 EQ PUSH2 0x5D7 JUMPI DUP1 PUSH4 0xC6427474 EQ PUSH2 0x5EC JUMPI DUP1 PUSH4 0xD38F2D82 EQ PUSH2 0x661 JUMPI DUP1 PUSH4 0xD74F8EDD EQ PUSH2 0x686 JUMPI DUP1 PUSH4 0xDC8452CD EQ PUSH2 0x6A8 JUMPI DUP1 PUSH4 0xE20056E6 EQ PUSH2 0x6CA JUMPI DUP1 PUSH4 0xEE22610B EQ PUSH2 0x6EE JUMPI JUMPDEST PUSH2 0x193 JUMPDEST PUSH1 0x0 CALLVALUE GT ISZERO PUSH2 0x190 JUMPI PUSH1 0x40 DUP1 MLOAD CALLVALUE DUP2 MSTORE SWAP1 MLOAD PUSH1 0x1 PUSH1 0xA0 PUSH1 0x2 EXP SUB CALLER AND SWAP2 PUSH32 0xE1FFFCC4923D04B559F4D29A8BFC6CDA04EB5B0D3C460751C2402C5C5CC9109C SWAP2 SWAP1 DUP2 SWAP1 SUB PUSH1 0x20 ADD SWAP1 LOG2 JUMPDEST JUMPDEST JUMP JUMPDEST STOP JUMPDEST CALLVALUE ISZERO PUSH2 0x19D JUMPI INVALID JUMPDEST PUSH2 0x1A8 PUSH1 0x4 CALLDATALOAD PUSH2 0x703 JUMP JUMPDEST PUSH1 0x40 DUP1 MLOAD PUSH1 0x1 PUSH1 0xA0 PUSH1 0x2 EXP SUB SWAP1 SWAP3 AND DUP3 MSTORE MLOAD SWAP1 DUP2 SWAP1 SUB PUSH1 0x20 ADD SWAP1 RETURN JUMPDEST CALLVALUE ISZERO PUSH2 0x1CC JUMPI INVALID JUMPDEST PUSH2 0x193 PUSH1 0x1 PUSH1 0xA0 PUSH1 0x2 EXP SUB PUSH1 0x4 CALLDATALOAD AND PUSH2 0x735 JUMP JUMPDEST STOP JUMPDEST CALLVALUE ISZERO PUSH2 0x1EA JUMPI INVALID JUMPDEST PUSH2 0x193 PUSH1 0x4 CALLDATALOAD PUSH2 0x8E6 JUMP JUMPDEST STOP JUMPDEST CALLVALUE ISZERO PUSH2 0x1FF JUMPI INVALID JUMPDEST PUSH2 0x213 PUSH1 0x1 PUSH1 0xA0 PUSH1 0x2 EXP SUB PUSH1 0x4 CALLDATALOAD AND PUSH2 0x9DA JUMP JUMPDEST PUSH1 0x40 DUP1 MLOAD SWAP2 ISZERO ISZERO DUP3 MSTORE MLOAD SWAP1 DUP2 SWAP1 SUB PUSH1 0x20 ADD SWAP1 RETURN JUMPDEST CALLVALUE ISZERO PUSH2 0x22F JUMPI INVALID JUMPDEST PUSH2 0x213 PUSH1 0x4 CALLDATALOAD PUSH1 0x1 PUSH1 0xA0 PUSH1 0x2 EXP SUB PUSH1 0x24 CALLDATALOAD AND PUSH2 0x9EF JUMP JUMPDEST PUSH1 0x40 DUP1 MLOAD SWAP2 ISZERO ISZERO DUP3 MSTORE MLOAD SWAP1 DUP2 SWAP1 SUB PUSH1 0x20 ADD SWAP1 RETURN JUMPDEST CALLVALUE ISZERO PUSH2 0x262 JUMPI INVALID JUMPDEST PUSH2 0x193 PUSH1 0x4 CALLDATALOAD PUSH2 0xA0F JUMP JUMPDEST STOP JUMPDEST CALLVALUE ISZERO PUSH2 0x277 JUMPI INVALID JUMPDEST PUSH2 0x27F PUSH2 0xCC9 JUMP JUMPDEST PUSH1 0x40 DUP1 MLOAD SWAP2 DUP3 MSTORE MLOAD SWAP1 DUP2 SWAP1 SUB PUSH1 0x20 ADD SWAP1 RETURN JUMPDEST CALLVALUE ISZERO PUSH2 0x299 JUMPI INVALID JUMPDEST PUSH2 0x27F PUSH1 0x4 CALLDATALOAD ISZERO ISZERO PUSH1 0x24 CALLDATALOAD ISZERO ISZERO PUSH2 0xCCF JUMP JUMPDEST PUSH1 0x40 DUP1 MLOAD SWAP2 DUP3 MSTORE MLOAD SWAP1 DUP2 SWAP1 SUB PUSH1 0x20 ADD SWAP1 RETURN JUMPDEST CALLVALUE ISZERO PUSH2 0x2C5 JUMPI INVALID JUMPDEST PUSH2 0x193 PUSH1 0x1 PUSH1 0xA0 PUSH1 0x2 EXP SUB PUSH1 0x4 CALLDATALOAD AND PUSH1 0x24 CALLDATALOAD ISZERO ISZERO PUSH2 0xD3E JUMP JUMPDEST STOP JUMPDEST CALLVALUE ISZERO PUSH2 0x2E8 JUMPI INVALID JUMPDEST PUSH2 0x193 PUSH1 0x1 PUSH1 0xA0 PUSH1 0x2 EXP SUB PUSH1 0x4 CALLDATALOAD AND PUSH2 0xDDE JUMP JUMPDEST STOP JUMPDEST CALLVALUE ISZERO PUSH2 0x306 JUMPI INVALID JUMPDEST PUSH2 0x213 PUSH1 0x4 CALLDATALOAD PUSH2 0xF15 JUMP JUMPDEST PUSH1 0x40 DUP1 MLOAD SWAP2 ISZERO ISZERO DUP3 MSTORE MLOAD SWAP1 DUP2 SWAP1 SUB PUSH1 0x20 ADD SWAP1 RETURN JUMPDEST CALLVALUE ISZERO PUSH2 0x32D JUMPI INVALID JUMPDEST PUSH2 0x193 PUSH1 0x4 CALLDATALOAD PUSH2 0xFA9 JUMP JUMPDEST STOP JUMPDEST CALLVALUE ISZERO PUSH2 0x342 JUMPI INVALID JUMPDEST PUSH2 0x213 PUSH1 0x1 PUSH1 0xA0 PUSH1 0x2 EXP SUB PUSH1 0x4 CALLDATALOAD AND PUSH2 0x1007 JUMP JUMPDEST PUSH1 0x40 DUP1 MLOAD SWAP2 ISZERO ISZERO DUP3 MSTORE MLOAD SWAP1 DUP2 SWAP1 SUB PUSH1 0x20 ADD SWAP1 RETURN JUMPDEST CALLVALUE ISZERO PUSH2 0x372 JUMPI INVALID JUMPDEST PUSH2 0x27F PUSH1 0x4 CALLDATALOAD PUSH2 0x101C JUMP JUMPDEST PUSH1 0x40 DUP1 MLOAD SWAP2 DUP3 MSTORE MLOAD SWAP1 DUP2 SWAP1 SUB PUSH1 0x20 ADD SWAP1 RETURN JUMPDEST CALLVALUE ISZERO PUSH2 0x397 JUMPI INVALID JUMPDEST PUSH2 0x3A2 PUSH1 0x4 CALLDATALOAD PUSH2 0x109B JUMP JUMPDEST PUSH1 0x40 DUP1 MLOAD PUSH1 0x1 PUSH1 0xA0 PUSH1 0x2 EXP SUB DUP7 AND DUP2 MSTORE PUSH1 0x20 DUP2 ADD DUP6 SWAP1 MSTORE DUP3 ISZERO ISZERO PUSH1 0x60 DUP3 ADD MSTORE PUSH1 0x80 SWAP2 DUP2 ADD DUP3 DUP2 MSTORE DUP5 SLOAD PUSH1 0x2 PUSH1 0x0 NOT PUSH2 0x100 PUSH1 0x1 DUP5 AND ISZERO MUL ADD SWAP1 SWAP2 AND DIV SWAP3 DUP3 ADD DUP4 SWAP1 MSTORE SWAP1 SWAP2 PUSH1 0xA0 DUP4 ADD SWAP1 DUP6 SWAP1 DUP1 ISZERO PUSH2 0x43A JUMPI DUP1 PUSH1 0x1F LT PUSH2 0x40F JUMPI PUSH2 0x100 DUP1 DUP4 SLOAD DIV MUL DUP4 MSTORE SWAP2 PUSH1 0x20 ADD SWAP2 PUSH2 0x43A JUMP JUMPDEST DUP3 ADD SWAP2 SWAP1 PUSH1 0x0 MSTORE PUSH1 0x20 PUSH1 0x0 SHA3 SWAP1 JUMPDEST DUP2 SLOAD DUP2 MSTORE SWAP1 PUSH1 0x1 ADD SWAP1 PUSH1 0x20 ADD DUP1 DUP4 GT PUSH2 0x41D JUMPI DUP3 SWAP1 SUB PUSH1 0x1F AND DUP3 ADD SWAP2 JUMPDEST POP POP SWAP6 POP POP POP POP POP POP PUSH1 0x40 MLOAD DUP1 SWAP2 SUB SWAP1 RETURN JUMPDEST CALLVALUE ISZERO PUSH2 0x454 JUMPI INVALID JUMPDEST PUSH2 0x45C PUSH2 0x10CF JUMP JUMPDEST PUSH1 0x40 DUP1 MLOAD PUSH1 0x20 DUP1 DUP3 MSTORE DUP4 MLOAD DUP2 DUP4 ADD MSTORE DUP4 MLOAD SWAP2 SWAP3 DUP4 SWAP3 SWAP1 DUP4 ADD SWAP2 DUP6 DUP2 ADD SWAP2 MUL DUP1 DUP4 DUP4 DUP3 ISZERO PUSH2 0x4A4 JUMPI JUMPDEST DUP1 MLOAD DUP3 MSTORE PUSH1 0x20 DUP4 GT ISZERO PUSH2 0x4A4 JUMPI PUSH1 0x1F NOT SWAP1 SWAP3 ADD SWAP2 PUSH1 0x20 SWAP2 DUP3 ADD SWAP2 ADD PUSH2 0x484 JUMP JUMPDEST POP POP POP SWAP1 POP ADD SWAP3 POP POP POP PUSH1 0x40 MLOAD DUP1 SWAP2 SUB SWAP1 RETURN JUMPDEST CALLVALUE ISZERO PUSH2 0x4BF JUMPI INVALID JUMPDEST PUSH2 0x45C PUSH1 0x4 CALLDATALOAD PUSH1 0x24 CALLDATALOAD PUSH1 0x44 CALLDATALOAD ISZERO ISZERO PUSH1 0x64 CALLDATALOAD ISZERO ISZERO PUSH2 0x1138 JUMP JUMPDEST PUSH1 0x40 DUP1 MLOAD PUSH1 0x20 DUP1 DUP3 MSTORE DUP4 MLOAD DUP2 DUP4 ADD MSTORE DUP4 MLOAD SWAP2 SWAP3 DUP4 SWAP3 SWAP1 DUP4 ADD SWAP2 DUP6 DUP2 ADD SWAP2 MUL DUP1 DUP4 DUP4 DUP3 ISZERO PUSH2 0x4A4 JUMPI JUMPDEST DUP1 MLOAD DUP3 MSTORE PUSH1 0x20 DUP4 GT ISZERO PUSH2 0x4A4 JUMPI PUSH1 0x1F NOT SWAP1 SWAP3 ADD SWAP2 PUSH1 0x20 SWAP2 DUP3 ADD SWAP2 ADD PUSH2 0x484 JUMP JUMPDEST POP POP POP SWAP1 POP ADD SWAP3 POP POP POP PUSH1 0x40 MLOAD DUP1 SWAP2 SUB SWAP1 RETURN JUMPDEST CALLVALUE ISZERO PUSH2 0x53A JUMPI INVALID JUMPDEST PUSH2 0x45C PUSH1 0x4 CALLDATALOAD PUSH2 0x126D JUMP JUMPDEST PUSH1 0x40 DUP1 MLOAD PUSH1 0x20 DUP1 DUP3 MSTORE DUP4 MLOAD DUP2 DUP4 ADD MSTORE DUP4 MLOAD SWAP2 SWAP3 DUP4 SWAP3 SWAP1 DUP4 ADD SWAP2 DUP6 DUP2 ADD SWAP2 MUL DUP1 DUP4 DUP4 DUP3 ISZERO PUSH2 0x4A4 JUMPI JUMPDEST DUP1 MLOAD DUP3 MSTORE PUSH1 0x20 DUP4 GT ISZERO PUSH2 0x4A4 JUMPI PUSH1 0x1F NOT SWAP1 SWAP3 ADD SWAP2 PUSH1 0x20 SWAP2 DUP3 ADD SWAP2 ADD PUSH2 0x484 JUMP JUMPDEST POP POP POP SWAP1 POP ADD SWAP3 POP POP POP PUSH1 0x40 MLOAD DUP1 SWAP2 SUB SWAP1 RETURN JUMPDEST CALLVALUE ISZERO PUSH2 0x5A8 JUMPI INVALID JUMPDEST PUSH2 0x27F PUSH2 0x13F5 JUMP JUMPDEST PUSH1 0x40 DUP1 MLOAD SWAP2 DUP3 MSTORE MLOAD SWAP1 DUP2 SWAP1 SUB PUSH1 0x20 ADD SWAP1 RETURN JUMPDEST CALLVALUE ISZERO PUSH2 0x5CA JUMPI INVALID JUMPDEST PUSH2 0x193 PUSH1 0x4 CALLDATALOAD PUSH2 0x13FB JUMP JUMPDEST STOP JUMPDEST CALLVALUE ISZERO PUSH2 0x5DF JUMPI INVALID JUMPDEST PUSH2 0x193 PUSH1 0x4 CALLDATALOAD PUSH2 0x148B JUMP JUMPDEST STOP JUMPDEST CALLVALUE ISZERO PUSH2 0x5F4 JUMPI INVALID JUMPDEST PUSH1 0x40 DUP1 MLOAD PUSH1 0x20 PUSH1 0x4 PUSH1 0x44 CALLDATALOAD DUP2 DUP2 ADD CALLDATALOAD PUSH1 0x1F DUP2 ADD DUP5 SWAP1 DIV DUP5 MUL DUP6 ADD DUP5 ADD SWAP1 SWAP6 MSTORE DUP5 DUP5 MSTORE PUSH2 0x27F SWAP5 DUP3 CALLDATALOAD PUSH1 0x1 PUSH1 0xA0 PUSH1 0x2 EXP SUB AND SWAP5 PUSH1 0x24 DUP1 CALLDATALOAD SWAP6 PUSH1 0x64 SWAP5 SWAP3 SWAP4 SWAP2 SWAP1 SWAP3 ADD SWAP2 DUP2 SWAP1 DUP5 ADD DUP4 DUP3 DUP1 DUP3 DUP5 CALLDATACOPY POP SWAP5 SWAP7 POP PUSH2 0x15A0 SWAP6 POP POP POP POP POP POP JUMP JUMPDEST PUSH1 0x40 DUP1 MLOAD SWAP2 DUP3 MSTORE MLOAD SWAP1 DUP2 SWAP1 SUB PUSH1 0x20 ADD SWAP1 RETURN JUMPDEST CALLVALUE ISZERO PUSH2 0x669 JUMPI INVALID JUMPDEST PUSH2 0x27F PUSH1 0x4 CALLDATALOAD PUSH2 0x15C0 JUMP JUMPDEST PUSH1 0x40 DUP1 MLOAD SWAP2 DUP3 MSTORE MLOAD SWAP1 DUP2 SWAP1 SUB PUSH1 0x20 ADD SWAP1 RETURN JUMPDEST CALLVALUE ISZERO PUSH2 0x68E JUMPI INVALID JUMPDEST PUSH2 0x27F PUSH2 0x15D2 JUMP JUMPDEST PUSH1 0x40 DUP1 MLOAD SWAP2 DUP3 MSTORE MLOAD SWAP1 DUP2 SWAP1 SUB PUSH1 0x20 ADD SWAP1 RETURN JUMPDEST CALLVALUE ISZERO PUSH2 0x6B0 JUMPI INVALID JUMPDEST PUSH2 0x27F PUSH2 0x15D7 JUMP JUMPDEST PUSH1 0x40 DUP1 MLOAD SWAP2 DUP3 MSTORE MLOAD SWAP1 DUP2 SWAP1 SUB PUSH1 0x20 ADD SWAP1 RETURN JUMPDEST CALLVALUE ISZERO PUSH2 0x6D2 JUMPI INVALID JUMPDEST PUSH2 0x193 PUSH1 0x1 PUSH1 0xA0 PUSH1 0x2 EXP SUB PUSH1 0x4 CALLDATALOAD DUP2 AND SWAP1 PUSH1 0x24 CALLDATALOAD AND PUSH2 0x15DD JUMP JUMPDEST STOP JUMPDEST CALLVALUE ISZERO PUSH2 0x6F6 JUMPI INVALID JUMPDEST PUSH2 0x193 PUSH1 0x4 CALLDATALOAD PUSH2 0x1799 JUMP JUMPDEST STOP JUMPDEST PUSH1 0x3 DUP1 SLOAD DUP3 SWAP1 DUP2 LT PUSH2 0x711 JUMPI INVALID JUMPDEST SWAP1 PUSH1 0x0 MSTORE PUSH1 0x20 PUSH1 0x0 SHA3 SWAP1 ADD PUSH1 0x0 JUMPDEST SWAP2 POP SLOAD SWAP1 PUSH2 0x100 EXP SWAP1 DIV PUSH1 0x1 PUSH1 0xA0 PUSH1 0x2 EXP SUB AND DUP2 JUMP JUMPDEST PUSH1 0x0 ADDRESS PUSH1 0x1 PUSH1 0xA0 PUSH1 0x2 EXP SUB AND CALLER PUSH1 0x1 PUSH1 0xA0 PUSH1 0x2 EXP SUB AND EQ ISZERO ISZERO PUSH2 0x758 JUMPI PUSH1 0x0 PUSH1 0x0 REVERT JUMPDEST PUSH1 0x1 PUSH1 0xA0 PUSH1 0x2 EXP SUB DUP3 AND PUSH1 0x0 SWAP1 DUP2 MSTORE PUSH1 0x2 PUSH1 0x20 MSTORE PUSH1 0x40 SWAP1 SHA3 SLOAD DUP3 SWAP1 PUSH1 0xFF AND ISZERO ISZERO PUSH2 0x782 JUMPI PUSH1 0x0 PUSH1 0x0 REVERT JUMPDEST PUSH1 0x1 PUSH1 0xA0 PUSH1 0x2 EXP SUB DUP4 AND PUSH1 0x0 SWAP1 DUP2 MSTORE PUSH1 0x2 PUSH1 0x20 MSTORE PUSH1 0x40 DUP2 SHA3 DUP1 SLOAD PUSH1 0xFF NOT AND SWAP1 SSTORE SWAP2 POP JUMPDEST PUSH1 0x3 SLOAD PUSH1 0x0 NOT ADD DUP3 LT ISZERO PUSH2 0x87D JUMPI DUP3 PUSH1 0x1 PUSH1 0xA0 PUSH1 0x2 EXP SUB AND PUSH1 0x3 DUP4 DUP2 SLOAD DUP2 LT ISZERO ISZERO PUSH2 0x7CC JUMPI INVALID JUMPDEST SWAP1 PUSH1 0x0 MSTORE PUSH1 0x20 PUSH1 0x0 SHA3 SWAP1 ADD PUSH1 0x0 JUMPDEST SWAP1 SLOAD SWAP1 PUSH2 0x100 EXP SWAP1 DIV PUSH1 0x1 PUSH1 0xA0 PUSH1 0x2 EXP SUB AND PUSH1 0x1 PUSH1 0xA0 PUSH1 0x2 EXP SUB AND EQ ISZERO PUSH2 0x871 JUMPI PUSH1 0x3 DUP1 SLOAD PUSH1 0x0 NOT DUP2 ADD SWAP1 DUP2 LT PUSH2 0x80D JUMPI INVALID JUMPDEST SWAP1 PUSH1 0x0 MSTORE PUSH1 0x20 PUSH1 0x0 SHA3 SWAP1 ADD PUSH1 0x0 JUMPDEST SWAP1 SLOAD SWAP1 PUSH2 0x100 EXP SWAP1 DIV PUSH1 0x1 PUSH1 0xA0 PUSH1 0x2 EXP SUB AND PUSH1 0x3 DUP4 DUP2 SLOAD DUP2 LT ISZERO ISZERO PUSH2 0x83C JUMPI INVALID JUMPDEST SWAP1 PUSH1 0x0 MSTORE PUSH1 0x20 PUSH1 0x0 SHA3 SWAP1 ADD PUSH1 0x0 JUMPDEST PUSH2 0x100 EXP DUP2 SLOAD DUP2 PUSH1 0x1 PUSH1 0xA0 PUSH1 0x2 EXP SUB MUL NOT AND SWAP1 DUP4 PUSH1 0x1 PUSH1 0xA0 PUSH1 0x2 EXP SUB AND MUL OR SWAP1 SSTORE POP PUSH2 0x87D JUMP JUMPDEST JUMPDEST PUSH1 0x1 SWAP1 SWAP2 ADD SWAP1 PUSH2 0x7A5 JUMP JUMPDEST PUSH1 0x3 DUP1 SLOAD PUSH1 0x0 NOT ADD SWAP1 PUSH2 0x890 SWAP1 DUP3 PUSH2 0x1A9A JUMP JUMPDEST POP PUSH1 0x3 SLOAD PUSH1 0x4 SLOAD GT ISZERO PUSH2 0x8A9 JUMPI PUSH1 0x3 SLOAD PUSH2 0x8A9 SWAP1 PUSH2 0x13FB JUMP JUMPDEST JUMPDEST PUSH1 0x40 MLOAD PUSH1 0x1 PUSH1 0xA0 PUSH1 0x2 EXP SUB DUP5 AND SWAP1 PUSH32 0x8001553A916EF2F495D26A907CC54D96ED840D7BDA71E73194BF5A9DF7A76B90 SWAP1 PUSH1 0x0 SWAP1 LOG2 JUMPDEST JUMPDEST POP JUMPDEST POP POP JUMP JUMPDEST CALLER PUSH1 0x1 PUSH1 0xA0 PUSH1 0x2 EXP SUB DUP2 AND PUSH1 0x0 SWAP1 DUP2 MSTORE PUSH1 0x2 PUSH1 0x20 MSTORE PUSH1 0x40 SWAP1 SHA3 SLOAD PUSH1 0xFF AND ISZERO ISZERO PUSH2 0x90F JUMPI PUSH1 0x0 PUSH1 0x0 REVERT JUMPDEST PUSH1 0x0 DUP3 DUP2 MSTORE PUSH1 0x1 PUSH1 0x20 SWAP1 DUP2 MSTORE PUSH1 0x40 DUP1 DUP4 SHA3 CALLER PUSH1 0x1 PUSH1 0xA0 PUSH1 0x2 EXP SUB DUP2 AND DUP6 MSTORE SWAP3 MSTORE SWAP1 SWAP2 SHA3 SLOAD DUP4 SWAP2 SWAP1 PUSH1 0xFF AND ISZERO ISZERO PUSH2 0x945 JUMPI PUSH1 0x0 PUSH1 0x0 REVERT JUMPDEST PUSH1 0x0 DUP5 DUP2 MSTORE PUSH1 0x20 DUP2 SWAP1 MSTORE PUSH1 0x40 SWAP1 SHA3 PUSH1 0x3 ADD SLOAD DUP5 SWAP1 PUSH1 0xFF AND ISZERO PUSH2 0x967 JUMPI PUSH1 0x0 PUSH1 0x0 REVERT JUMPDEST DUP5 PUSH2 0x971 DUP2 PUSH2 0xF15 JUMP JUMPDEST ISZERO PUSH2 0x97C JUMPI PUSH1 0x0 PUSH1 0x0 REVERT JUMPDEST PUSH1 0x0 DUP7 DUP2 MSTORE PUSH1 0x1 PUSH1 0x20 SWAP1 DUP2 MSTORE PUSH1 0x40 DUP1 DUP4 SHA3 PUSH1 0x1 PUSH1 0xA0 PUSH1 0x2 EXP SUB CALLER AND DUP1 DUP6 MSTORE SWAP3 MSTORE DUP1 DUP4 SHA3 DUP1 SLOAD PUSH1 0xFF NOT AND SWAP1 SSTORE MLOAD DUP9 SWAP3 PUSH32 0xF6A317157440607F36269043EB55F1287A5A19BA2216AFEAB88CD46CBCFB88E9 SWAP2 LOG3 JUMPDEST JUMPDEST POP JUMPDEST POP JUMPDEST POP POP JUMPDEST POP POP JUMP JUMPDEST PUSH1 0x2 PUSH1 0x20 MSTORE PUSH1 0x0 SWAP1 DUP2 MSTORE PUSH1 0x40 SWAP1 SHA3 SLOAD PUSH1 0xFF AND DUP2 JUMP JUMPDEST PUSH1 0x1 PUSH1 0x20 SWAP1 DUP2 MSTORE PUSH1 0x0 SWAP3 DUP4 MSTORE PUSH1 0x40 DUP1 DUP5 SHA3 SWAP1 SWAP2 MSTORE SWAP1 DUP3 MSTORE SWAP1 SHA3 SLOAD PUSH1 0xFF AND DUP2 JUMP JUMPDEST PUSH1 0x0 DUP2 DUP2 MSTORE PUSH1 0x20 DUP2 SWAP1 MSTORE PUSH1 0x40 DUP2 SHA3 PUSH1 0x3 ADD SLOAD DUP3 SWAP1 PUSH1 0xFF AND ISZERO PUSH2 0xA31 JUMPI PUSH1 0x0 PUSH1 0x0 REVERT JUMPDEST DUP3 PUSH2 0xA3B DUP2 PUSH2 0xF15 JUMP JUMPDEST ISZERO ISZERO PUSH2 0xA47 JUMPI PUSH1 0x0 PUSH1 0x0 REVERT JUMPDEST PUSH1 0x0 DUP5 DUP2 MSTORE PUSH1 0x20 DUP2 DUP2 MSTORE PUSH1 0x40 DUP1 DUP4 SHA3 DUP1 SLOAD PUSH1 0x1 PUSH1 0xA0 PUSH1 0x2 EXP SUB AND DUP5 MSTORE PUSH1 0x8 SWAP1 SWAP3 MSTORE SWAP1 SWAP2 SHA3 SLOAD DUP6 SWAP2 SWAP1 PUSH1 0xFF AND ISZERO ISZERO PUSH2 0xA7E JUMPI PUSH1 0x0 PUSH1 0x0 REVERT JUMPDEST PUSH1 0x40 DUP1 MLOAD PUSH32 0x72656D6F7665417574686F72697A6564416464726573734174496E6465782861 DUP2 MSTORE PUSH32 0x6464726573732C75696E74323536290000000000000000000000000000000000 PUSH1 0x20 DUP1 DUP4 ADD SWAP2 SWAP1 SWAP2 MSTORE DUP3 MLOAD PUSH1 0x2F SWAP3 DUP2 SWAP1 SUB SWAP3 SWAP1 SWAP3 ADD DUP3 SHA3 PUSH1 0x2 DUP6 DUP2 ADD DUP1 SLOAD PUSH1 0x1 DUP2 AND ISZERO PUSH2 0x100 MUL PUSH1 0x0 NOT ADD AND SWAP2 SWAP1 SWAP2 DIV PUSH1 0x1F DUP2 ADD DUP5 SWAP1 DIV DUP5 MUL DUP6 ADD DUP5 ADD SWAP1 SWAP6 MSTORE DUP5 DUP5 MSTORE PUSH1 0x1 PUSH1 0xE0 PUSH1 0x2 EXP SUB NOT SWAP1 SWAP2 AND SWAP4 PUSH2 0xB78 SWAP4 SWAP3 DUP4 ADD DUP3 DUP3 DUP1 ISZERO PUSH2 0xB6C JUMPI DUP1 PUSH1 0x1F LT PUSH2 0xB41 JUMPI PUSH2 0x100 DUP1 DUP4 SLOAD DIV MUL DUP4 MSTORE SWAP2 PUSH1 0x20 ADD SWAP2 PUSH2 0xB6C JUMP JUMPDEST DUP3 ADD SWAP2 SWAP1 PUSH1 0x0 MSTORE PUSH1 0x20 PUSH1 0x0 SHA3 SWAP1 JUMPDEST DUP2 SLOAD DUP2 MSTORE SWAP1 PUSH1 0x1 ADD SWAP1 PUSH1 0x20 ADD DUP1 DUP4 GT PUSH2 0xB4F JUMPI DUP3 SWAP1 SUB PUSH1 0x1F AND DUP3 ADD SWAP2 JUMPDEST POP POP POP POP POP PUSH1 0x0 PUSH2 0x192E JUMP JUMPDEST PUSH1 0x1 PUSH1 0xE0 PUSH1 0x2 EXP SUB NOT AND EQ PUSH2 0xB8D JUMPI PUSH1 0x0 PUSH1 0x0 REVERT JUMPDEST PUSH1 0x0 DUP7 DUP2 MSTORE PUSH1 0x20 DUP2 SWAP1 MSTORE PUSH1 0x40 SWAP1 DUP2 SWAP1 SHA3 PUSH1 0x3 DUP2 ADD DUP1 SLOAD PUSH1 0xFF NOT AND PUSH1 0x1 SWAP1 DUP2 OR SWAP1 SWAP2 SSTORE DUP2 SLOAD DUP2 DUP4 ADD SLOAD SWAP4 MLOAD PUSH1 0x2 DUP1 DUP6 ADD DUP1 SLOAD SWAP6 SWAP12 POP PUSH1 0x1 PUSH1 0xA0 PUSH1 0x2 EXP SUB SWAP1 SWAP4 AND SWAP6 SWAP5 SWAP3 SWAP4 SWAP2 SWAP3 DUP4 SWAP3 DUP6 SWAP3 PUSH1 0x0 NOT SWAP2 DUP4 AND ISZERO PUSH2 0x100 MUL SWAP2 SWAP1 SWAP2 ADD SWAP1 SWAP2 AND DIV DUP1 ISZERO PUSH2 0xC36 JUMPI DUP1 PUSH1 0x1F LT PUSH2 0xC0B JUMPI PUSH2 0x100 DUP1 DUP4 SLOAD DIV MUL DUP4 MSTORE SWAP2 PUSH1 0x20 ADD SWAP2 PUSH2 0xC36 JUMP JUMPDEST DUP3 ADD SWAP2 SWAP1 PUSH1 0x0 MSTORE PUSH1 0x20 PUSH1 0x0 SHA3 SWAP1 JUMPDEST DUP2 SLOAD DUP2 MSTORE SWAP1 PUSH1 0x1 ADD SWAP1 PUSH1 0x20 ADD DUP1 DUP4 GT PUSH2 0xC19 JUMPI DUP3 SWAP1 SUB PUSH1 0x1F AND DUP3 ADD SWAP2 JUMPDEST POP POP SWAP2 POP POP PUSH1 0x0 PUSH1 0x40 MLOAD DUP1 DUP4 SUB DUP2 DUP6 DUP8 PUSH2 0x8502 GAS SUB CALL SWAP3 POP POP POP ISZERO PUSH2 0xC85 JUMPI PUSH1 0x40 MLOAD DUP7 SWAP1 PUSH32 0x33E13ECB54C3076D8E8BB8C2881800A4D972B792045FFAE98FDF46DF365FED75 SWAP1 PUSH1 0x0 SWAP1 LOG2 PUSH2 0x9CE JUMP JUMPDEST PUSH1 0x40 MLOAD DUP7 SWAP1 PUSH32 0x526441BB6C1ABA3C9A4A6CA1D6545DA9C2333C8C48343EF398EB858D72B79236 SWAP1 PUSH1 0x0 SWAP1 LOG2 PUSH1 0x3 DUP6 ADD DUP1 SLOAD PUSH1 0xFF NOT AND SWAP1 SSTORE JUMPDEST JUMPDEST JUMPDEST POP POP JUMPDEST POP JUMPDEST POP POP POP JUMP JUMPDEST PUSH1 0x6 SLOAD DUP2 JUMP JUMPDEST PUSH1 0x0 DUP1 JUMPDEST PUSH1 0x5 SLOAD DUP2 LT ISZERO PUSH2 0xD36 JUMPI DUP4 DUP1 ISZERO PUSH2 0xCFC JUMPI POP PUSH1 0x0 DUP2 DUP2 MSTORE PUSH1 0x20 DUP2 SWAP1 MSTORE PUSH1 0x40 SWAP1 SHA3 PUSH1 0x3 ADD SLOAD PUSH1 0xFF AND ISZERO JUMPDEST DUP1 PUSH2 0xD20 JUMPI POP DUP3 DUP1 ISZERO PUSH2 0xD20 JUMPI POP PUSH1 0x0 DUP2 DUP2 MSTORE PUSH1 0x20 DUP2 SWAP1 MSTORE PUSH1 0x40 SWAP1 SHA3 PUSH1 0x3 ADD SLOAD PUSH1 0xFF AND JUMPDEST JUMPDEST ISZERO PUSH2 0xD2D JUMPI PUSH1 0x1 DUP3 ADD SWAP2 POP JUMPDEST JUMPDEST PUSH1 0x1 ADD PUSH2 0xCD3 JUMP JUMPDEST JUMPDEST POP SWAP3 SWAP2 POP POP JUMP JUMPDEST ADDRESS PUSH1 0x1 PUSH1 0xA0 PUSH1 0x2 EXP SUB AND CALLER PUSH1 0x1 PUSH1 0xA0 PUSH1 0x2 EXP SUB AND EQ ISZERO ISZERO PUSH2 0xD5F JUMPI PUSH1 0x0 PUSH1 0x0 REVERT JUMPDEST DUP2 PUSH1 0x1 PUSH1 0xA0 PUSH1 0x2 EXP SUB DUP2 AND ISZERO ISZERO PUSH2 0xD76 JUMPI PUSH1 0x0 PUSH1 0x0 REVERT JUMPDEST PUSH1 0x1 PUSH1 0xA0 PUSH1 0x2 EXP SUB DUP4 AND PUSH1 0x0 DUP2 DUP2 MSTORE PUSH1 0x8 PUSH1 0x20 SWAP1 DUP2 MSTORE PUSH1 0x40 SWAP2 DUP3 SWAP1 SHA3 DUP1 SLOAD PUSH1 0xFF NOT AND DUP7 ISZERO ISZERO SWAP1 DUP2 OR SWAP1 SWAP2 SSTORE DUP3 MLOAD SWAP4 DUP5 MSTORE SWAP1 DUP4 ADD MSTORE DUP1 MLOAD PUSH32 0xDAEF8FF7DC66C5E34EB9C338AAB679D9F427F89868D9228494455A4D982EB2B0 SWAP3 DUP2 SWAP1 SUB SWAP1 SWAP2 ADD SWAP1 LOG1 JUMPDEST JUMPDEST POP JUMPDEST POP POP JUMP JUMPDEST ADDRESS PUSH1 0x1 PUSH1 0xA0 PUSH1 0x2 EXP SUB AND CALLER PUSH1 0x1 PUSH1 0xA0 PUSH1 0x2 EXP SUB AND EQ ISZERO ISZERO PUSH2 0xDFF JUMPI PUSH1 0x0 PUSH1 0x0 REVERT JUMPDEST PUSH1 0x1 PUSH1 0xA0 PUSH1 0x2 EXP SUB DUP2 AND PUSH1 0x0 SWAP1 DUP2 MSTORE PUSH1 0x2 PUSH1 0x20 MSTORE PUSH1 0x40 SWAP1 SHA3 SLOAD DUP2 SWAP1 PUSH1 0xFF AND ISZERO PUSH2 0xE28 JUMPI PUSH1 0x0 PUSH1 0x0 REVERT JUMPDEST DUP2 PUSH1 0x1 PUSH1 0xA0 PUSH1 0x2 EXP SUB DUP2 AND ISZERO ISZERO PUSH2 0xE3F JUMPI PUSH1 0x0 PUSH1 0x0 REVERT JUMPDEST PUSH1 0x3 DUP1 SLOAD SWAP1 POP PUSH1 0x1 ADD PUSH1 0x4 SLOAD PUSH1 0x32 DUP3 GT DUP1 PUSH2 0xE59 JUMPI POP DUP2 DUP2 GT JUMPDEST DUP1 PUSH2 0xE62 JUMPI POP DUP1 ISZERO JUMPDEST DUP1 PUSH2 0xE6B JUMPI POP DUP2 ISZERO JUMPDEST ISZERO PUSH2 0xE76 JUMPI PUSH1 0x0 PUSH1 0x0 REVERT JUMPDEST PUSH1 0x1 PUSH1 0xA0 PUSH1 0x2 EXP SUB DUP6 AND PUSH1 0x0 SWAP1 DUP2 MSTORE PUSH1 0x2 PUSH1 0x20 MSTORE PUSH1 0x40 SWAP1 SHA3 DUP1 SLOAD PUSH1 0xFF NOT AND PUSH1 0x1 SWAP1 DUP2 OR SWAP1 SWAP2 SSTORE PUSH1 0x3 DUP1 SLOAD SWAP1 SWAP2 DUP2 ADD PUSH2 0xEAE DUP4 DUP3 PUSH2 0x1A9A JUMP JUMPDEST SWAP2 PUSH1 0x0 MSTORE PUSH1 0x20 PUSH1 0x0 SHA3 SWAP1 ADD PUSH1 0x0 JUMPDEST DUP2 SLOAD PUSH1 0x1 PUSH1 0xA0 PUSH1 0x2 EXP SUB DUP1 DUP11 AND PUSH2 0x100 SWAP4 SWAP1 SWAP4 EXP DUP4 DUP2 MUL SWAP2 MUL NOT SWAP1 SWAP2 AND OR SWAP1 SWAP2 SSTORE PUSH1 0x40 MLOAD SWAP1 SWAP2 POP PUSH32 0xF39E6E1EB0EDCF53C221607B54B00CD28F3196FED0A24994DC308B8F611B682D SWAP1 PUSH1 0x0 SWAP1 LOG2 JUMPDEST JUMPDEST POP POP JUMPDEST POP JUMPDEST POP JUMPDEST POP JUMP JUMPDEST PUSH1 0x0 DUP1 DUP1 JUMPDEST PUSH1 0x3 SLOAD DUP2 LT ISZERO PUSH2 0xFA1 JUMPI PUSH1 0x0 DUP5 DUP2 MSTORE PUSH1 0x1 PUSH1 0x20 MSTORE PUSH1 0x40 DUP2 SHA3 PUSH1 0x3 DUP1 SLOAD SWAP2 SWAP3 SWAP2 DUP5 SWAP1 DUP2 LT PUSH2 0xF43 JUMPI INVALID JUMPDEST SWAP1 PUSH1 0x0 MSTORE PUSH1 0x20 PUSH1 0x0 SHA3 SWAP1 ADD PUSH1 0x0 JUMPDEST SWAP1 SLOAD PUSH1 0x1 PUSH1 0xA0 PUSH1 0x2 EXP SUB PUSH2 0x100 SWAP3 SWAP1 SWAP3 EXP SWAP1 DIV AND DUP2 MSTORE PUSH1 0x20 DUP2 ADD SWAP2 SWAP1 SWAP2 MSTORE PUSH1 0x40 ADD PUSH1 0x0 SHA3 SLOAD PUSH1 0xFF AND ISZERO PUSH2 0xF85 JUMPI PUSH1 0x1 DUP3 ADD SWAP2 POP JUMPDEST PUSH1 0x4 SLOAD DUP3 EQ ISZERO PUSH2 0xF98 JUMPI PUSH1 0x1 SWAP3 POP PUSH2 0xFA1 JUMP JUMPDEST JUMPDEST PUSH1 0x1 ADD PUSH2 0xF1A JUMP JUMPDEST JUMPDEST POP POP SWAP2 SWAP1 POP JUMP JUMPDEST ADDRESS PUSH1 0x1 PUSH1 0xA0 PUSH1 0x2 EXP SUB AND CALLER PUSH1 0x1 PUSH1 0xA0 PUSH1 0x2 EXP SUB AND EQ ISZERO ISZERO PUSH2 0xFCA JUMPI PUSH1 0x0 PUSH1 0x0 REVERT JUMPDEST PUSH1 0x6 DUP2 SWAP1 SSTORE PUSH1 0x40 DUP1 MLOAD DUP3 DUP2 MSTORE SWAP1 MLOAD PUSH32 0xD1C9101A34FEFF75CCCEF14A28785A0279CB0B49C1F321F21F5F422E746B4377 SWAP2 DUP2 SWAP1 SUB PUSH1 0x20 ADD SWAP1 LOG1 JUMPDEST JUMPDEST POP JUMP JUMPDEST PUSH1 0x8 PUSH1 0x20 MSTORE PUSH1 0x0 SWAP1 DUP2 MSTORE PUSH1 0x40 SWAP1 SHA3 SLOAD PUSH1 0xFF AND DUP2 JUMP JUMPDEST PUSH1 0x0 DUP1 JUMPDEST PUSH1 0x3 SLOAD DUP2 LT ISZERO PUSH2 0x1094 JUMPI PUSH1 0x0 DUP4 DUP2 MSTORE PUSH1 0x1 PUSH1 0x20 MSTORE PUSH1 0x40 DUP2 SHA3 PUSH1 0x3 DUP1 SLOAD SWAP2 SWAP3 SWAP2 DUP5 SWAP1 DUP2 LT PUSH2 0x1049 JUMPI INVALID JUMPDEST SWAP1 PUSH1 0x0 MSTORE PUSH1 0x20 PUSH1 0x0 SHA3 SWAP1 ADD PUSH1 0x0 JUMPDEST SWAP1 SLOAD PUSH1 0x1 PUSH1 0xA0 PUSH1 0x2 EXP SUB PUSH2 0x100 SWAP3 SWAP1 SWAP3 EXP SWAP1 DIV AND DUP2 MSTORE PUSH1 0x20 DUP2 ADD SWAP2 SWAP1 SWAP2 MSTORE PUSH1 0x40 ADD PUSH1 0x0 SHA3 SLOAD PUSH1 0xFF AND ISZERO PUSH2 0x108B JUMPI PUSH1 0x1 DUP3 ADD SWAP2 POP JUMPDEST JUMPDEST PUSH1 0x1 ADD PUSH2 0x1020 JUMP JUMPDEST JUMPDEST POP SWAP2 SWAP1 POP JUMP JUMPDEST PUSH1 0x0 PUSH1 0x20 DUP2 SWAP1 MSTORE SWAP1 DUP2 MSTORE PUSH1 0x40 SWAP1 SHA3 DUP1 SLOAD PUSH1 0x1 DUP3 ADD SLOAD PUSH1 0x3 DUP4 ADD SLOAD PUSH1 0x1 PUSH1 0xA0 PUSH1 0x2 EXP SUB SWAP1 SWAP3 AND SWAP3 SWAP1 SWAP2 PUSH1 0x2 SWAP1 SWAP2 ADD SWAP1 PUSH1 0xFF AND DUP5 JUMP JUMPDEST PUSH2 0x10D7 PUSH2 0x1AEE JUMP JUMPDEST PUSH1 0x3 DUP1 SLOAD DUP1 PUSH1 0x20 MUL PUSH1 0x20 ADD PUSH1 0x40 MLOAD SWAP1 DUP2 ADD PUSH1 0x40 MSTORE DUP1 SWAP3 SWAP2 SWAP1 DUP2 DUP2 MSTORE PUSH1 0x20 ADD DUP3 DUP1 SLOAD DUP1 ISZERO PUSH2 0x112D JUMPI PUSH1 0x20 MUL DUP3 ADD SWAP2 SWAP1 PUSH1 0x0 MSTORE PUSH1 0x20 PUSH1 0x0 SHA3 SWAP1 JUMPDEST DUP2 SLOAD PUSH1 0x1 PUSH1 0xA0 PUSH1 0x2 EXP SUB AND DUP2 MSTORE PUSH1 0x1 SWAP1 SWAP2 ADD SWAP1 PUSH1 0x20 ADD DUP1 DUP4 GT PUSH2 0x110F JUMPI JUMPDEST POP POP POP POP POP SWAP1 POP JUMPDEST SWAP1 JUMP JUMPDEST PUSH2 0x1140 PUSH2 0x1AEE JUMP JUMPDEST PUSH2 0x1148 PUSH2 0x1AEE JUMP JUMPDEST PUSH1 0x0 PUSH1 0x0 PUSH1 0x5 SLOAD PUSH1 0x40 MLOAD DUP1 MSIZE LT PUSH2 0x115C JUMPI POP MSIZE JUMPDEST SWAP1 DUP1 DUP3 MSTORE DUP1 PUSH1 0x20 MUL PUSH1 0x20 ADD DUP3 ADD PUSH1 0x40 MSTORE JUMPDEST POP SWAP3 POP PUSH1 0x0 SWAP2 POP PUSH1 0x0 SWAP1 POP JUMPDEST PUSH1 0x5 SLOAD DUP2 LT ISZERO PUSH2 0x11F6 JUMPI DUP6 DUP1 ISZERO PUSH2 0x11A2 JUMPI POP PUSH1 0x0 DUP2 DUP2 MSTORE PUSH1 0x20 DUP2 SWAP1 MSTORE PUSH1 0x40 SWAP1 SHA3 PUSH1 0x3 ADD SLOAD PUSH1 0xFF AND ISZERO JUMPDEST DUP1 PUSH2 0x11C6 JUMPI POP DUP5 DUP1 ISZERO PUSH2 0x11C6 JUMPI POP PUSH1 0x0 DUP2 DUP2 MSTORE PUSH1 0x20 DUP2 SWAP1 MSTORE PUSH1 0x40 SWAP1 SHA3 PUSH1 0x3 ADD SLOAD PUSH1 0xFF AND JUMPDEST JUMPDEST ISZERO PUSH2 0x11ED JUMPI DUP1 DUP4 DUP4 DUP2 MLOAD DUP2 LT ISZERO ISZERO PUSH2 0x11DB JUMPI INVALID JUMPDEST PUSH1 0x20 SWAP1 DUP2 MUL SWAP1 SWAP2 ADD ADD MSTORE PUSH1 0x1 SWAP2 SWAP1 SWAP2 ADD SWAP1 JUMPDEST JUMPDEST PUSH1 0x1 ADD PUSH2 0x1179 JUMP JUMPDEST DUP8 DUP8 SUB PUSH1 0x40 MLOAD DUP1 MSIZE LT PUSH2 0x1206 JUMPI POP MSIZE JUMPDEST SWAP1 DUP1 DUP3 MSTORE DUP1 PUSH1 0x20 MUL PUSH1 0x20 ADD DUP3 ADD PUSH1 0x40 MSTORE JUMPDEST POP SWAP4 POP DUP8 SWAP1 POP JUMPDEST DUP7 DUP2 LT ISZERO PUSH2 0x1261 JUMPI DUP3 DUP2 DUP2 MLOAD DUP2 LT ISZERO ISZERO PUSH2 0x1234 JUMPI INVALID JUMPDEST SWAP1 PUSH1 0x20 ADD SWAP1 PUSH1 0x20 MUL ADD MLOAD DUP5 DUP10 DUP4 SUB DUP2 MLOAD DUP2 LT ISZERO ISZERO PUSH2 0x124E JUMPI INVALID JUMPDEST PUSH1 0x20 SWAP1 DUP2 MUL SWAP1 SWAP2 ADD ADD MSTORE JUMPDEST PUSH1 0x1 ADD PUSH2 0x121E JUMP JUMPDEST JUMPDEST POP POP POP SWAP5 SWAP4 POP POP POP POP JUMP JUMPDEST PUSH2 0x1275 PUSH2 0x1AEE JUMP JUMPDEST PUSH2 0x127D PUSH2 0x1AEE JUMP JUMPDEST PUSH1 0x3 SLOAD PUSH1 0x40 MLOAD PUSH1 0x0 SWAP2 DUP3 SWAP2 DUP1 MSIZE LT PUSH2 0x1292 JUMPI POP MSIZE JUMPDEST SWAP1 DUP1 DUP3 MSTORE DUP1 PUSH1 0x20 MUL PUSH1 0x20 ADD DUP3 ADD PUSH1 0x40 MSTORE JUMPDEST POP SWAP3 POP PUSH1 0x0 SWAP2 POP PUSH1 0x0 SWAP1 POP JUMPDEST PUSH1 0x3 SLOAD DUP2 LT ISZERO PUSH2 0x1377 JUMPI PUSH1 0x0 DUP6 DUP2 MSTORE PUSH1 0x1 PUSH1 0x20 MSTORE PUSH1 0x40 DUP2 SHA3 PUSH1 0x3 DUP1 SLOAD SWAP2 SWAP3 SWAP2 DUP5 SWAP1 DUP2 LT PUSH2 0x12D8 JUMPI INVALID JUMPDEST SWAP1 PUSH1 0x0 MSTORE PUSH1 0x20 PUSH1 0x0 SHA3 SWAP1 ADD PUSH1 0x0 JUMPDEST SWAP1 SLOAD PUSH1 0x1 PUSH1 0xA0 PUSH1 0x2 EXP SUB PUSH2 0x100 SWAP3 SWAP1 SWAP3 EXP SWAP1 DIV AND DUP2 MSTORE PUSH1 0x20 DUP2 ADD SWAP2 SWAP1 SWAP2 MSTORE PUSH1 0x40 ADD PUSH1 0x0 SHA3 SLOAD PUSH1 0xFF AND ISZERO PUSH2 0x136E JUMPI PUSH1 0x3 DUP1 SLOAD DUP3 SWAP1 DUP2 LT PUSH2 0x1321 JUMPI INVALID JUMPDEST SWAP1 PUSH1 0x0 MSTORE PUSH1 0x20 PUSH1 0x0 SHA3 SWAP1 ADD PUSH1 0x0 JUMPDEST SWAP1 SLOAD SWAP1 PUSH2 0x100 EXP SWAP1 DIV PUSH1 0x1 PUSH1 0xA0 PUSH1 0x2 EXP SUB AND DUP4 DUP4 DUP2 MLOAD DUP2 LT ISZERO ISZERO PUSH2 0x134F JUMPI INVALID JUMPDEST PUSH1 0x1 PUSH1 0xA0 PUSH1 0x2 EXP SUB SWAP1 SWAP3 AND PUSH1 0x20 SWAP3 DUP4 MUL SWAP1 SWAP2 ADD SWAP1 SWAP2 ADD MSTORE PUSH1 0x1 SWAP2 SWAP1 SWAP2 ADD SWAP1 JUMPDEST JUMPDEST PUSH1 0x1 ADD PUSH2 0x12AF JUMP JUMPDEST DUP2 PUSH1 0x40 MLOAD DUP1 MSIZE LT PUSH2 0x1385 JUMPI POP MSIZE JUMPDEST SWAP1 DUP1 DUP3 MSTORE DUP1 PUSH1 0x20 MUL PUSH1 0x20 ADD DUP3 ADD PUSH1 0x40 MSTORE JUMPDEST POP SWAP4 POP PUSH1 0x0 SWAP1 POP JUMPDEST DUP2 DUP2 LT ISZERO PUSH2 0x13EC JUMPI DUP3 DUP2 DUP2 MLOAD DUP2 LT ISZERO ISZERO PUSH2 0x13B4 JUMPI INVALID JUMPDEST SWAP1 PUSH1 0x20 ADD SWAP1 PUSH1 0x20 MUL ADD MLOAD DUP5 DUP3 DUP2 MLOAD DUP2 LT ISZERO ISZERO PUSH2 0x13CC JUMPI INVALID JUMPDEST PUSH1 0x1 PUSH1 0xA0 PUSH1 0x2 EXP SUB SWAP1 SWAP3 AND PUSH1 0x20 SWAP3 DUP4 MUL SWAP1 SWAP2 ADD SWAP1 SWAP2 ADD MSTORE JUMPDEST PUSH1 0x1 ADD PUSH2 0x139E JUMP JUMPDEST JUMPDEST POP POP POP SWAP2 SWAP1 POP JUMP JUMPDEST PUSH1 0x5 SLOAD DUP2 JUMP JUMPDEST ADDRESS PUSH1 0x1 PUSH1 0xA0 PUSH1 0x2 EXP SUB AND CALLER PUSH1 0x1 PUSH1 0xA0 PUSH1 0x2 EXP SUB AND EQ ISZERO ISZERO PUSH2 0x141C JUMPI PUSH1 0x0 PUSH1 0x0 REVERT JUMPDEST PUSH1 0x3 SLOAD DUP2 PUSH1 0x32 DUP3 GT DUP1 PUSH2 0x142E JUMPI POP DUP2 DUP2 GT JUMPDEST DUP1 PUSH2 0x1437 JUMPI POP DUP1 ISZERO JUMPDEST DUP1 PUSH2 0x1440 JUMPI POP DUP2 ISZERO JUMPDEST ISZERO PUSH2 0x144B JUMPI PUSH1 0x0 PUSH1 0x0 REVERT JUMPDEST PUSH1 0x4 DUP4 SWAP1 SSTORE PUSH1 0x40 DUP1 MLOAD DUP5 DUP2 MSTORE SWAP1 MLOAD PUSH32 0xA3F1EE9126A074D9326C682F561767F710E927FAA811F7A99829D49DC421797A SWAP2 DUP2 SWAP1 SUB PUSH1 0x20 ADD SWAP1 LOG1 JUMPDEST JUMPDEST POP POP JUMPDEST POP JUMP JUMPDEST CALLER PUSH1 0x1 PUSH1 0xA0 PUSH1 0x2 EXP SUB DUP2 AND PUSH1 0x0 SWAP1 DUP2 MSTORE PUSH1 0x2 PUSH1 0x20 MSTORE PUSH1 0x40 SWAP1 SHA3 SLOAD PUSH1 0xFF AND ISZERO ISZERO PUSH2 0x14B4 JUMPI PUSH1 0x0 PUSH1 0x0 REVERT JUMPDEST PUSH1 0x0 DUP3 DUP2 MSTORE PUSH1 0x20 DUP2 SWAP1 MSTORE PUSH1 0x40 SWAP1 SHA3 SLOAD DUP3 SWAP1 PUSH1 0x1 PUSH1 0xA0 PUSH1 0x2 EXP SUB AND ISZERO ISZERO PUSH2 0x14DA JUMPI PUSH1 0x0 PUSH1 0x0 REVERT JUMPDEST PUSH1 0x0 DUP4 DUP2 MSTORE PUSH1 0x1 PUSH1 0x20 SWAP1 DUP2 MSTORE PUSH1 0x40 DUP1 DUP4 SHA3 CALLER PUSH1 0x1 PUSH1 0xA0 PUSH1 0x2 EXP SUB DUP2 AND DUP6 MSTORE SWAP3 MSTORE SWAP1 SWAP2 SHA3 SLOAD DUP5 SWAP2 SWAP1 PUSH1 0xFF AND ISZERO PUSH2 0x150F JUMPI PUSH1 0x0 PUSH1 0x0 REVERT JUMPDEST DUP5 PUSH2 0x1519 DUP2 PUSH2 0xF15 JUMP JUMPDEST ISZERO PUSH2 0x1524 JUMPI PUSH1 0x0 PUSH1 0x0 REVERT JUMPDEST PUSH1 0x0 DUP7 DUP2 MSTORE PUSH1 0x1 PUSH1 0x20 DUP2 DUP2 MSTORE PUSH1 0x40 DUP1 DUP5 SHA3 PUSH1 0x1 PUSH1 0xA0 PUSH1 0x2 EXP SUB CALLER AND DUP1 DUP7 MSTORE SWAP3 MSTORE DUP1 DUP5 SHA3 DUP1 SLOAD PUSH1 0xFF NOT AND SWAP1 SWAP4 OR SWAP1 SWAP3 SSTORE SWAP1 MLOAD DUP9 SWAP3 PUSH32 0x4A504A94899432A9846E1AA406DCEB1BCFD538BB839071D49D1E5E23F5BE30EF SWAP2 LOG3 PUSH2 0x1583 DUP7 PUSH2 0xF15 JUMP JUMPDEST ISZERO PUSH2 0x9CE JUMPI PUSH2 0x9CE DUP7 TIMESTAMP PUSH2 0x195B JUMP JUMPDEST JUMPDEST JUMPDEST JUMPDEST POP JUMPDEST POP POP JUMPDEST POP JUMPDEST POP POP JUMP JUMPDEST PUSH1 0x0 PUSH2 0x15AD DUP5 DUP5 DUP5 PUSH2 0x19A7 JUMP JUMPDEST SWAP1 POP PUSH2 0x15B8 DUP2 PUSH2 0x148B JUMP JUMPDEST JUMPDEST SWAP4 SWAP3 POP POP POP JUMP JUMPDEST PUSH1 0x7 PUSH1 0x20 MSTORE PUSH1 0x0 SWAP1 DUP2 MSTORE PUSH1 0x40 SWAP1 SHA3 SLOAD DUP2 JUMP JUMPDEST PUSH1 0x32 DUP2 JUMP JUMPDEST PUSH1 0x4 SLOAD DUP2 JUMP JUMPDEST PUSH1 0x0 ADDRESS PUSH1 0x1 PUSH1 0xA0 PUSH1 0x2 EXP SUB AND CALLER PUSH1 0x1 PUSH1 0xA0 PUSH1 0x2 EXP SUB AND EQ ISZERO ISZERO PUSH2 0x1600 JUMPI PUSH1 0x0 PUSH1 0x0 REVERT JUMPDEST PUSH1 0x1 PUSH1 0xA0 PUSH1 0x2 EXP SUB DUP4 AND PUSH1 0x0 SWAP1 DUP2 MSTORE PUSH1 0x2 PUSH1 0x20 MSTORE PUSH1 0x40 SWAP1 SHA3 SLOAD DUP4 SWAP1 PUSH1 0xFF AND ISZERO ISZERO PUSH2 0x162A JUMPI PUSH1 0x0 PUSH1 0x0 REVERT JUMPDEST PUSH1 0x1 PUSH1 0xA0 PUSH1 0x2 EXP SUB DUP4 AND PUSH1 0x0 SWAP1 DUP2 MSTORE PUSH1 0x2 PUSH1 0x20 MSTORE PUSH1 0x40 SWAP1 SHA3 SLOAD DUP4 SWAP1 PUSH1 0xFF AND ISZERO PUSH2 0x1653 JUMPI PUSH1 0x0 PUSH1 0x0 REVERT JUMPDEST PUSH1 0x0 SWAP3 POP JUMPDEST PUSH1 0x3 SLOAD DUP4 LT ISZERO PUSH2 0x16FB JUMPI DUP5 PUSH1 0x1 PUSH1 0xA0 PUSH1 0x2 EXP SUB AND PUSH1 0x3 DUP5 DUP2 SLOAD DUP2 LT ISZERO ISZERO PUSH2 0x167B JUMPI INVALID JUMPDEST SWAP1 PUSH1 0x0 MSTORE PUSH1 0x20 PUSH1 0x0 SHA3 SWAP1 ADD PUSH1 0x0 JUMPDEST SWAP1 SLOAD SWAP1 PUSH2 0x100 EXP SWAP1 DIV PUSH1 0x1 PUSH1 0xA0 PUSH1 0x2 EXP SUB AND PUSH1 0x1 PUSH1 0xA0 PUSH1 0x2 EXP SUB AND EQ ISZERO PUSH2 0x16EF JUMPI DUP4 PUSH1 0x3 DUP5 DUP2 SLOAD DUP2 LT ISZERO ISZERO PUSH2 0x16BA JUMPI INVALID JUMPDEST SWAP1 PUSH1 0x0 MSTORE PUSH1 0x20 PUSH1 0x0 SHA3 SWAP1 ADD PUSH1 0x0 JUMPDEST PUSH2 0x100 EXP DUP2 SLOAD DUP2 PUSH1 0x1 PUSH1 0xA0 PUSH1 0x2 EXP SUB MUL NOT AND SWAP1 DUP4 PUSH1 0x1 PUSH1 0xA0 PUSH1 0x2 EXP SUB AND MUL OR SWAP1 SSTORE POP PUSH2 0x16FB JUMP JUMPDEST JUMPDEST PUSH1 0x1 SWAP1 SWAP3 ADD SWAP2 PUSH2 0x1658 JUMP JUMPDEST PUSH1 0x1 PUSH1 0xA0 PUSH1 0x2 EXP SUB DUP1 DUP7 AND PUSH1 0x0 DUP2 DUP2 MSTORE PUSH1 0x2 PUSH1 0x20 MSTORE PUSH1 0x40 DUP1 DUP3 SHA3 DUP1 SLOAD PUSH1 0xFF NOT SWAP1 DUP2 AND SWAP1 SWAP2 SSTORE SWAP4 DUP9 AND DUP3 MSTORE DUP1 DUP3 SHA3 DUP1 SLOAD SWAP1 SWAP5 AND PUSH1 0x1 OR SWAP1 SWAP4 SSTORE SWAP2 MLOAD SWAP1 SWAP2 PUSH32 0x8001553A916EF2F495D26A907CC54D96ED840D7BDA71E73194BF5A9DF7A76B90 SWAP2 LOG2 PUSH1 0x40 MLOAD PUSH1 0x1 PUSH1 0xA0 PUSH1 0x2 EXP SUB DUP6 AND SWAP1 PUSH32 0xF39E6E1EB0EDCF53C221607B54B00CD28F3196FED0A24994DC308B8F611B682D SWAP1 PUSH1 0x0 SWAP1 LOG2 JUMPDEST JUMPDEST POP JUMPDEST POP JUMPDEST POP POP POP JUMP JUMPDEST PUSH1 0x0 DUP2 DUP2 MSTORE PUSH1 0x20 DUP2 SWAP1 MSTORE PUSH1 0x40 DUP2 SHA3 PUSH1 0x3 ADD SLOAD DUP3 SWAP1 PUSH1 0xFF AND ISZERO PUSH2 0x17BB JUMPI PUSH1 0x0 PUSH1 0x0 REVERT JUMPDEST DUP3 PUSH2 0x17C5 DUP2 PUSH2 0xF15 JUMP JUMPDEST ISZERO ISZERO PUSH2 0x17D1 JUMPI PUSH1 0x0 PUSH1 0x0 REVERT JUMPDEST PUSH1 0x6 SLOAD PUSH1 0x0 DUP6 DUP2 MSTORE PUSH1 0x7 PUSH1 0x20 MSTORE PUSH1 0x40 SWAP1 SHA3 SLOAD DUP6 SWAP2 ADD TIMESTAMP LT ISZERO PUSH2 0x17F3 JUMPI PUSH1 0x0 PUSH1 0x0 REVERT JUMPDEST PUSH1 0x0 DUP6 DUP2 MSTORE PUSH1 0x20 DUP2 SWAP1 MSTORE PUSH1 0x40 SWAP1 DUP2 SWAP1 SHA3 PUSH1 0x3 DUP2 ADD DUP1 SLOAD PUSH1 0xFF NOT AND PUSH1 0x1 SWAP1 DUP2 OR SWAP1 SWAP2 SSTORE DUP2 SLOAD DUP2 DUP4 ADD SLOAD SWAP4 MLOAD PUSH1 0x2 DUP1 DUP6 ADD DUP1 SLOAD SWAP6 SWAP11 POP PUSH1 0x1 PUSH1 0xA0 PUSH1 0x2 EXP SUB SWAP1 SWAP4 AND SWAP6 SWAP5 SWAP3 SWAP4 SWAP2 SWAP3 DUP4 SWAP3 DUP6 SWAP3 PUSH1 0x0 NOT SWAP2 DUP4 AND ISZERO PUSH2 0x100 MUL SWAP2 SWAP1 SWAP2 ADD SWAP1 SWAP2 AND DIV DUP1 ISZERO PUSH2 0x189C JUMPI DUP1 PUSH1 0x1F LT PUSH2 0x1871 JUMPI PUSH2 0x100 DUP1 DUP4 SLOAD DIV MUL DUP4 MSTORE SWAP2 PUSH1 0x20 ADD SWAP2 PUSH2 0x189C JUMP JUMPDEST DUP3 ADD SWAP2 SWAP1 PUSH1 0x0 MSTORE PUSH1 0x20 PUSH1 0x0 SHA3 SWAP1 JUMPDEST DUP2 SLOAD DUP2 MSTORE SWAP1 PUSH1 0x1 ADD SWAP1 PUSH1 0x20 ADD DUP1 DUP4 GT PUSH2 0x187F JUMPI DUP3 SWAP1 SUB PUSH1 0x1F AND DUP3 ADD SWAP2 JUMPDEST POP POP SWAP2 POP POP PUSH1 0x0 PUSH1 0x40 MLOAD DUP1 DUP4 SUB DUP2 DUP6 DUP8 PUSH2 0x8502 GAS SUB CALL SWAP3 POP POP POP ISZERO PUSH2 0x18EB JUMPI PUSH1 0x40 MLOAD DUP6 SWAP1 PUSH32 0x33E13ECB54C3076D8E8BB8C2881800A4D972B792045FFAE98FDF46DF365FED75 SWAP1 PUSH1 0x0 SWAP1 LOG2 PUSH2 0x9D1 JUMP JUMPDEST PUSH1 0x40 MLOAD DUP6 SWAP1 PUSH32 0x526441BB6C1ABA3C9A4A6CA1D6545DA9C2333C8C48343EF398EB858D72B79236 SWAP1 PUSH1 0x0 SWAP1 LOG2 PUSH1 0x3 DUP5 ADD DUP1 SLOAD PUSH1 0xFF NOT AND SWAP1 SSTORE JUMPDEST JUMPDEST JUMPDEST POP JUMPDEST POP JUMPDEST POP POP POP JUMP JUMPDEST PUSH1 0x0 DUP2 PUSH1 0x4 ADD DUP4 MLOAD LT ISZERO ISZERO ISZERO PUSH2 0x1944 JUMPI PUSH1 0x0 PUSH1 0x0 REVERT JUMPDEST POP PUSH1 0x20 DUP3 ADD MLOAD PUSH1 0x1 PUSH1 0xE0 PUSH1 0x2 EXP SUB NOT AND JUMPDEST SWAP3 SWAP2 POP POP JUMP JUMPDEST PUSH1 0x0 DUP3 DUP2 MSTORE PUSH1 0x7 PUSH1 0x20 SWAP1 DUP2 MSTORE PUSH1 0x40 SWAP2 DUP3 SWAP1 SHA3 DUP4 SWAP1 SSTORE DUP2 MLOAD DUP4 DUP2 MSTORE SWAP2 MLOAD DUP5 SWAP3 PUSH32 0xB237AFE65F1514FD7EA3F923EA4FE792BDD07000A912B6CD1602A8E7F573C8D SWAP3 SWAP1 DUP3 SWAP1 SUB ADD SWAP1 LOG2 JUMPDEST POP POP JUMP JUMPDEST PUSH1 0x0 DUP4 PUSH1 0x1 PUSH1 0xA0 PUSH1 0x2 EXP SUB DUP2 AND ISZERO ISZERO PUSH2 0x19C0 JUMPI PUSH1 0x0 PUSH1 0x0 REVERT JUMPDEST PUSH1 0x5 SLOAD PUSH1 0x40 DUP1 MLOAD PUSH1 0x80 DUP2 ADD DUP3 MSTORE PUSH1 0x1 PUSH1 0xA0 PUSH1 0x2 EXP SUB DUP9 DUP2 AND DUP3 MSTORE PUSH1 0x20 DUP1 DUP4 ADD DUP10 DUP2 MSTORE DUP4 DUP6 ADD DUP10 DUP2 MSTORE PUSH1 0x0 PUSH1 0x60 DUP7 ADD DUP2 SWAP1 MSTORE DUP8 DUP2 MSTORE DUP1 DUP5 MSTORE SWAP6 SWAP1 SWAP6 SHA3 DUP5 MLOAD DUP2 SLOAD PUSH20 0xFFFFFFFFFFFFFFFFFFFFFFFFFFFFFFFFFFFFFFFF NOT AND SWAP5 AND SWAP4 SWAP1 SWAP4 OR DUP4 SSTORE MLOAD PUSH1 0x1 DUP4 ADD SSTORE SWAP3 MLOAD DUP1 MLOAD SWAP5 SWAP7 POP SWAP2 SWAP4 SWAP1 SWAP3 PUSH2 0x1A40 SWAP3 PUSH1 0x2 DUP6 ADD SWAP3 SWAP2 ADD SWAP1 PUSH2 0x1B12 JUMP JUMPDEST POP PUSH1 0x60 SWAP2 SWAP1 SWAP2 ADD MLOAD PUSH1 0x3 SWAP1 SWAP2 ADD DUP1 SLOAD PUSH1 0xFF NOT AND SWAP2 ISZERO ISZERO SWAP2 SWAP1 SWAP2 OR SWAP1 SSTORE PUSH1 0x5 DUP1 SLOAD PUSH1 0x1 ADD SWAP1 SSTORE PUSH1 0x40 MLOAD DUP3 SWAP1 PUSH32 0xC0BA8FE4B176C1714197D43B9CC6BCF797A4A7461C5FE8D0EF6E184AE7601E51 SWAP1 PUSH1 0x0 SWAP1 LOG2 JUMPDEST JUMPDEST POP SWAP4 SWAP3 POP POP POP JUMP JUMPDEST DUP2 SLOAD DUP2 DUP4 SSTORE DUP2 DUP2 ISZERO GT PUSH2 0x8DF JUMPI PUSH1 0x0 DUP4 DUP2 MSTORE PUSH1 0x20 SWAP1 SHA3 PUSH2 0x8DF SWAP2 DUP2 ADD SWAP1 DUP4 ADD PUSH2 0x1B91 JUMP JUMPDEST JUMPDEST POP POP POP JUMP JUMPDEST DUP2 SLOAD DUP2 DUP4 SSTORE DUP2 DUP2 ISZERO GT PUSH2 0x8DF JUMPI PUSH1 0x0 DUP4 DUP2 MSTORE PUSH1 0x20 SWAP1 SHA3 PUSH2 0x8DF SWAP2 DUP2 ADD SWAP1 DUP4 ADD PUSH2 0x1B91 JUMP JUMPDEST JUMPDEST POP POP POP JUMP JUMPDEST PUSH1 0x40 DUP1 MLOAD PUSH1 0x20 DUP2 ADD SWAP1 SWAP2 MSTORE PUSH1 0x0 DUP2 MSTORE SWAP1 JUMP JUMPDEST PUSH1 0x40 DUP1 MLOAD PUSH1 0x20 DUP2 ADD SWAP1 SWAP2 MSTORE PUSH1 0x0 DUP2 MSTORE SWAP1 JUMP JUMPDEST DUP3 DUP1 SLOAD PUSH1 0x1 DUP2 PUSH1 0x1 AND ISZERO PUSH2 0x100 MUL SUB AND PUSH1 0x2 SWAP1 DIV SWAP1 PUSH1 0x0 MSTORE PUSH1 0x20 PUSH1 0x0 SHA3 SWAP1 PUSH1 0x1F ADD PUSH1 0x20 SWAP1 DIV DUP2 ADD SWAP3 DUP3 PUSH1 0x1F LT PUSH2 0x1B53 JUMPI DUP1 MLOAD PUSH1 0xFF NOT AND DUP4 DUP1 ADD OR DUP6 SSTORE PUSH2 0x1B80 JUMP JUMPDEST DUP3 DUP1 ADD PUSH1 0x1 ADD DUP6 SSTORE DUP3 ISZERO PUSH2 0x1B80 JUMPI SWAP2 DUP3 ADD JUMPDEST DUP3 DUP2 GT ISZERO PUSH2 0x1B80 JUMPI DUP3 MLOAD DUP3 SSTORE SWAP2 PUSH1 0x20 ADD SWAP2 SWAP1 PUSH1 0x1 ADD SWAP1 PUSH2 0x1B65 JUMP JUMPDEST JUMPDEST POP PUSH2 0x1B8D SWAP3 SWAP2 POP PUSH2 0x1B91 JUMP JUMPDEST POP SWAP1 JUMP JUMPDEST PUSH2 0x1135 SWAP2 SWAP1 JUMPDEST DUP1 DUP3 GT ISZERO PUSH2 0x1B8D JUMPI PUSH1 0x0 DUP2 SSTORE PUSH1 0x1 ADD PUSH2 0x1B97 JUMP JUMPDEST POP SWAP1 JUMP JUMPDEST SWAP1 JUMP STOP LOG1 PUSH6 0x627A7A723058 SHA3 0xde PUSH20 0x48A39A18C2139F807A6077C790EED8049DFEAAE5 DIV 0xbf 0x4a TIMESTAMP PUSH1 0x7B 0xfa 0xe3 0xaf 0xce STOP 0x29 ",
				"linkReferences": {}
			},
			"methodIdentifiers": {
				"MAX_OWNER_COUNT()": "d74f8edd",
				"addOwner(address)": "7065cb48",
				"changeRequirement(uint256)": "ba51a6df",
				"changeTimeLock(uint256)": "7ad28c51",
				"confirmTransaction(uint256)": "c01a8c84",
				"confirmationTimes(uint256)": "d38f2d82",
				"confirmations(uint256,address)": "3411c81c",
				"executeRemoveAuthorizedAddressAtIndex(uint256)": "3589b35c",
				"executeTransaction(uint256)": "ee22610b",
				"getConfirmationCount(uint256)": "8b51d13f",
				"getConfirmations(uint256)": "b5dc40c3",
				"getOwners()": "a0e67e2b",
				"getTransactionCount(bool,bool)": "54741525",
				"getTransactionIds(uint256,uint256,bool,bool)": "a8abe69a",
				"isAssetProxyRegistered(address)": "83250f79",
				"isConfirmed(uint256)": "784547a7",
				"isOwner(address)": "2f54bf6e",
				"owners(uint256)": "025e7c27",
				"registerAssetProxy(address,bool)": "5a1a66af",
				"removeOwner(address)": "173825d9",
				"replaceOwner(address,address)": "e20056e6",
				"required()": "dc8452cd",
				"revokeConfirmation(uint256)": "20ea8d86",
				"secondsTimeLocked()": "37bd78a0",
				"submitTransaction(address,uint256,bytes)": "c6427474",
				"transactionCount()": "b77bf600",
				"transactions(uint256)": "9ace38c2"
			},
			"gasEstimates": {
				"creation": {
					"codeDepositCost": "1426800",
					"executionCost": "infinite"
				},
				"internal": {
					"readBytes4(bytes memory,uint256)": "infinite"
				},
				"external": {
					"": "2187",
					"MAX_OWNER_COUNT()": "1550",
					"addOwner(address)": "infinite",
					"changeRequirement(uint256)": "21901",
					"changeTimeLock(uint256)": "21560",
					"confirmTransaction(uint256)": "infinite",
					"confirmationTimes(uint256)": "1550",
					"confirmations(uint256,address)": "1550",
					"executeRemoveAuthorizedAddressAtIndex(uint256)": "infinite",
					"executeTransaction(uint256)": "infinite",
					"getConfirmationCount(uint256)": "infinite",
					"getConfirmations(uint256)": "infinite",
					"getOwners()": "infinite",
					"getTransactionCount(bool,bool)": "infinite",
					"getTransactionIds(uint256,uint256,bool,bool)": "infinite",
					"isAssetProxyRegistered(address)": "1550",
					"isConfirmed(uint256)": "infinite",
					"isOwner(address)": "1550",
					"owners(uint256)": "1550",
					"registerAssetProxy(address,bool)": "22074",
					"removeOwner(address)": "infinite",
					"replaceOwner(address,address)": "infinite",
					"required()": "1550",
					"revokeConfirmation(uint256)": "infinite",
					"secondsTimeLocked()": "1550",
					"submitTransaction(address,uint256,bytes)": "infinite",
					"transactionCount()": "1550",
					"transactions(uint256)": "infinite"
				}
			}
		}
	},
	"sourceTreeHashHex": "0x8c882ef490c011257c7406ca74aba8787c3f078c7c628553e046883c81244681",
	"compiler": {
		"name": "solc",
		"version": "soljson-v0.4.10+commit.f0d539ae.js",
		"settings": {
			"optimizer": {
				"enabled": true,
				"runs": 1000000
			},
			"outputSelection": {
				"*": {
					"*": [
						"abi",
						"evm.bytecode.object",
						"evm.bytecode.sourceMap",
						"evm.deployedBytecode.object",
						"evm.deployedBytecode.sourceMap"
					]
				}
			}
		}
	}
}