{
	"schemaVersion": "2.0.0",
	"contractName": "Forwarder",
	"compilerOutput": {
		"abi": [
			{
				"constant": false,
				"inputs": [
					{
						"components": [
							{
								"name": "makerAddress",
								"type": "address"
							},
							{
								"name": "takerAddress",
								"type": "address"
							},
							{
								"name": "feeRecipientAddress",
								"type": "address"
							},
							{
								"name": "senderAddress",
								"type": "address"
							},
							{
								"name": "makerAssetAmount",
								"type": "uint256"
							},
							{
								"name": "takerAssetAmount",
								"type": "uint256"
							},
							{
								"name": "makerFee",
								"type": "uint256"
							},
							{
								"name": "takerFee",
								"type": "uint256"
							},
							{
								"name": "expirationTimeSeconds",
								"type": "uint256"
							},
							{
								"name": "salt",
								"type": "uint256"
							},
							{
								"name": "makerAssetData",
								"type": "bytes"
							},
							{
								"name": "takerAssetData",
								"type": "bytes"
							}
						],
						"name": "orders",
						"type": "tuple[]"
					},
					{
						"name": "makerAssetFillAmount",
						"type": "uint256"
					},
					{
						"name": "signatures",
						"type": "bytes[]"
					},
					{
						"components": [
							{
								"name": "makerAddress",
								"type": "address"
							},
							{
								"name": "takerAddress",
								"type": "address"
							},
							{
								"name": "feeRecipientAddress",
								"type": "address"
							},
							{
								"name": "senderAddress",
								"type": "address"
							},
							{
								"name": "makerAssetAmount",
								"type": "uint256"
							},
							{
								"name": "takerAssetAmount",
								"type": "uint256"
							},
							{
								"name": "makerFee",
								"type": "uint256"
							},
							{
								"name": "takerFee",
								"type": "uint256"
							},
							{
								"name": "expirationTimeSeconds",
								"type": "uint256"
							},
							{
								"name": "salt",
								"type": "uint256"
							},
							{
								"name": "makerAssetData",
								"type": "bytes"
							},
							{
								"name": "takerAssetData",
								"type": "bytes"
							}
						],
						"name": "feeOrders",
						"type": "tuple[]"
					},
					{
						"name": "feeSignatures",
						"type": "bytes[]"
					},
					{
						"name": "feePercentage",
						"type": "uint256"
					},
					{
						"name": "feeRecipient",
						"type": "address"
					}
				],
				"name": "marketBuyOrdersWithEth",
				"outputs": [
					{
						"components": [
							{
								"name": "makerAssetFilledAmount",
								"type": "uint256"
							},
							{
								"name": "takerAssetFilledAmount",
								"type": "uint256"
							},
							{
								"name": "makerFeePaid",
								"type": "uint256"
							},
							{
								"name": "takerFeePaid",
								"type": "uint256"
							}
						],
						"name": "orderFillResults",
						"type": "tuple"
					},
					{
						"components": [
							{
								"name": "makerAssetFilledAmount",
								"type": "uint256"
							},
							{
								"name": "takerAssetFilledAmount",
								"type": "uint256"
							},
							{
								"name": "makerFeePaid",
								"type": "uint256"
							},
							{
								"name": "takerFeePaid",
								"type": "uint256"
							}
						],
						"name": "feeOrderFillResults",
						"type": "tuple"
					}
				],
				"payable": true,
				"stateMutability": "payable",
				"type": "function"
			},
			{
				"constant": true,
				"inputs": [],
				"name": "owner",
				"outputs": [
					{
						"name": "",
						"type": "address"
					}
				],
				"payable": false,
				"stateMutability": "view",
				"type": "function"
			},
			{
				"constant": false,
				"inputs": [
					{
						"components": [
							{
								"name": "makerAddress",
								"type": "address"
							},
							{
								"name": "takerAddress",
								"type": "address"
							},
							{
								"name": "feeRecipientAddress",
								"type": "address"
							},
							{
								"name": "senderAddress",
								"type": "address"
							},
							{
								"name": "makerAssetAmount",
								"type": "uint256"
							},
							{
								"name": "takerAssetAmount",
								"type": "uint256"
							},
							{
								"name": "makerFee",
								"type": "uint256"
							},
							{
								"name": "takerFee",
								"type": "uint256"
							},
							{
								"name": "expirationTimeSeconds",
								"type": "uint256"
							},
							{
								"name": "salt",
								"type": "uint256"
							},
							{
								"name": "makerAssetData",
								"type": "bytes"
							},
							{
								"name": "takerAssetData",
								"type": "bytes"
							}
						],
						"name": "orders",
						"type": "tuple[]"
					},
					{
						"name": "signatures",
						"type": "bytes[]"
					},
					{
						"components": [
							{
								"name": "makerAddress",
								"type": "address"
							},
							{
								"name": "takerAddress",
								"type": "address"
							},
							{
								"name": "feeRecipientAddress",
								"type": "address"
							},
							{
								"name": "senderAddress",
								"type": "address"
							},
							{
								"name": "makerAssetAmount",
								"type": "uint256"
							},
							{
								"name": "takerAssetAmount",
								"type": "uint256"
							},
							{
								"name": "makerFee",
								"type": "uint256"
							},
							{
								"name": "takerFee",
								"type": "uint256"
							},
							{
								"name": "expirationTimeSeconds",
								"type": "uint256"
							},
							{
								"name": "salt",
								"type": "uint256"
							},
							{
								"name": "makerAssetData",
								"type": "bytes"
							},
							{
								"name": "takerAssetData",
								"type": "bytes"
							}
						],
						"name": "feeOrders",
						"type": "tuple[]"
					},
					{
						"name": "feeSignatures",
						"type": "bytes[]"
					},
					{
						"name": "feePercentage",
						"type": "uint256"
					},
					{
						"name": "feeRecipient",
						"type": "address"
					}
				],
				"name": "marketSellOrdersWithEth",
				"outputs": [
					{
						"components": [
							{
								"name": "makerAssetFilledAmount",
								"type": "uint256"
							},
							{
								"name": "takerAssetFilledAmount",
								"type": "uint256"
							},
							{
								"name": "makerFeePaid",
								"type": "uint256"
							},
							{
								"name": "takerFeePaid",
								"type": "uint256"
							}
						],
						"name": "orderFillResults",
						"type": "tuple"
					},
					{
						"components": [
							{
								"name": "makerAssetFilledAmount",
								"type": "uint256"
							},
							{
								"name": "takerAssetFilledAmount",
								"type": "uint256"
							},
							{
								"name": "makerFeePaid",
								"type": "uint256"
							},
							{
								"name": "takerFeePaid",
								"type": "uint256"
							}
						],
						"name": "feeOrderFillResults",
						"type": "tuple"
					}
				],
				"payable": true,
				"stateMutability": "payable",
				"type": "function"
			},
			{
				"constant": false,
				"inputs": [
					{
						"name": "token",
						"type": "address"
					},
					{
						"name": "amount",
						"type": "uint256"
					}
				],
				"name": "withdrawERC20",
				"outputs": [],
				"payable": false,
				"stateMutability": "nonpayable",
				"type": "function"
			},
			{
				"constant": true,
				"inputs": [
					{
						"components": [
							{
								"name": "makerAddress",
								"type": "address"
							},
							{
								"name": "takerAddress",
								"type": "address"
							},
							{
								"name": "feeRecipientAddress",
								"type": "address"
							},
							{
								"name": "senderAddress",
								"type": "address"
							},
							{
								"name": "makerAssetAmount",
								"type": "uint256"
							},
							{
								"name": "takerAssetAmount",
								"type": "uint256"
							},
							{
								"name": "makerFee",
								"type": "uint256"
							},
							{
								"name": "takerFee",
								"type": "uint256"
							},
							{
								"name": "expirationTimeSeconds",
								"type": "uint256"
							},
							{
								"name": "salt",
								"type": "uint256"
							},
							{
								"name": "makerAssetData",
								"type": "bytes"
							},
							{
								"name": "takerAssetData",
								"type": "bytes"
							}
						],
						"name": "order",
						"type": "tuple"
					},
					{
						"name": "takerAssetFillAmount",
						"type": "uint256"
					},
					{
						"name": "signature",
						"type": "bytes"
					}
				],
				"name": "abiEncodeFillOrder",
				"outputs": [
					{
						"name": "fillOrderCalldata",
						"type": "bytes"
					}
				],
				"payable": false,
				"stateMutability": "pure",
				"type": "function"
			},
			{
				"constant": false,
				"inputs": [
					{
						"name": "newOwner",
						"type": "address"
					}
				],
				"name": "transferOwnership",
				"outputs": [],
				"payable": false,
				"stateMutability": "nonpayable",
				"type": "function"
			},
			{
				"inputs": [
					{
						"name": "_exchange",
						"type": "address"
					},
					{
						"name": "_etherToken",
						"type": "address"
					},
					{
						"name": "_zrxToken",
						"type": "address"
					},
					{
						"name": "_zrxAssetData",
						"type": "bytes"
					},
					{
						"name": "_wethAssetData",
						"type": "bytes"
					}
				],
				"payable": false,
				"stateMutability": "nonpayable",
				"type": "constructor"
			},
			{
				"payable": true,
				"stateMutability": "payable",
				"type": "fallback"
			}
		],
		"evm": {
			"bytecode": {
				"linkReferences": {},
				"object": "0x60806040523480156200001157600080fd5b5060405162002d2238038062002d2283398101806040526200003791908101906200043f565b6000805433600160a060020a0319918216178255600180548216600160a060020a0389811691909117909155600280548316888316179055600380549092169086161790558251869086908690869086906200009b906004906020850190620002f2565b508051620000b1906005906020840190620002f2565b5050600154604080517f4552433230546f6b656e28616464726573732900000000000000000000000000815290519081900360130181207f60704108000000000000000000000000000000000000000000000000000000008252600160a060020a0390921695506360704108945062000131935090915060040162000556565b602060405180830381600087803b1580156200014c57600080fd5b505af115801562000161573d6000803e3d6000fd5b505050506040513d601f19601f8201168201806040525062000187919081019062000416565b9050600160a060020a03811615620002e6576002546040517f095ea7b3000000000000000000000000000000000000000000000000000000008152600160a060020a039091169063095ea7b390620001e89084906000199060040162000537565b602060405180830381600087803b1580156200020357600080fd5b505af115801562000218573d6000803e3d6000fd5b505050506040513d601f19601f820116820180604052506200023e9190810190620004ef565b506003546040517f095ea7b3000000000000000000000000000000000000000000000000000000008152600160a060020a039091169063095ea7b3906200028e9084906000199060040162000537565b602060405180830381600087803b158015620002a957600080fd5b505af1158015620002be573d6000803e3d6000fd5b505050506040513d601f19601f82011682018060405250620002e49190810190620004ef565b505b50505050505062000624565b828054600181600116156101000203166002900490600052602060002090601f016020900481019282601f106200033557805160ff191683800117855562000365565b8280016001018555821562000365579182015b828111156200036557825182559160200191906001019062000348565b506200037392915062000377565b5090565b6200039491905b808211156200037357600081556001016200037e565b90565b6000620003a58251620005bb565b9392505050565b6000620003a58251620005ec565b6000601f82018313620003cc57600080fd5b8151620003e3620003dd8262000593565b6200056c565b915080825260208301602083018583830111156200040057600080fd5b6200040d838284620005f1565b50505092915050565b6000602082840312156200042957600080fd5b600062000437848462000397565b949350505050565b600080600080600060a086880312156200045857600080fd5b600062000466888862000397565b9550506020620004798882890162000397565b94505060406200048c8882890162000397565b93505060608601516001604060020a03811115620004a957600080fd5b620004b788828901620003ba565b92505060808601516001604060020a03811115620004d457600080fd5b620004e288828901620003ba565b9150509295509295909350565b6000602082840312156200050257600080fd5b6000620004378484620003ac565b6200051b81620005bb565b82525050565b6200051b81620005c7565b6200051b8162000394565b6040810162000547828562000510565b620003a560208301846200052c565b6020810162000566828462000521565b92915050565b6040518181016001604060020a03811182821017156200058b57600080fd5b604052919050565b60006001604060020a03821115620005aa57600080fd5b506020601f91909101601f19160190565b600160a060020a031690565b7fffffffff000000000000000000000000000000000000000000000000000000001690565b151590565b60005b838110156200060e578181015183820152602001620005f4565b838111156200061e576000848401525b50505050565b6126ee80620006346000396000f3006080604052600436106100775763ffffffff7c010000000000000000000000000000000000000000000000000000000060003504166318978e8281146100d35780638da5cb5b146100fd5780639395525c1461011f578063a1db978214610132578063e2e4951114610152578063f2fde38b1461017f575b60025473ffffffffffffffffffffffffffffffffffffffff1633146100d1576040517f08c379a00000000000000000000000000000000000000000000000000000000081526004016100c890612477565b60405180910390fd5b005b6100e66100e1366004611e55565b61019f565b6040516100f4929190612577565b60405180910390f35b34801561010957600080fd5b5061011261033a565b6040516100f49190612415565b6100e661012d366004611d6f565b610356565b34801561013e57600080fd5b506100d161014d366004611d35565b6104c7565b34801561015e57600080fd5b5061017261016d366004611f6e565b6105fa565b6040516100f49190612466565b34801561018b57600080fd5b506100d161019a366004611d17565b6107af565b6101a7611a69565b6101af611a69565b6000806101ba610860565b60048054604080516020601f60027fffffffffffffffffffffffffffffffffffffffffffffffffffffffffffffffff610100600188161502019095169490940493840181900481028201810190925282815261029493909290918301828280156102655780601f1061023a57610100808354040283529160200191610265565b820191906000526020600020905b81548152906001019060200180831161024857829003601f168201915b50505050508c600081518110151561027957fe5b6020908102909101015161014001519063ffffffff61093b16565b156102bf576102a48b8b8b610a68565b93506102b884600001518560600151610d36565b90506102e6565b6102ca8b8b8b610d78565b9350836060015191506102de888389610a68565b845190935090505b6102f1848484610f5a565b610305846020015184602001518888610ff9565b61032c8b600081518110151561031757fe5b906020019060200201516101400151826111ce565b505097509795505050505050565b60005473ffffffffffffffffffffffffffffffffffffffff1681565b61035e611a69565b610366611a69565b6000806000610373610860565b60048054604080516020601f60027fffffffffffffffffffffffffffffffffffffffffffffffffffffffffffffffff61010060018816150201909516949094049384018190048102820181019092528281526103f393909290918301828280156102655780601f1061023a57610100808354040283529160200191610265565b156104445761041c670de0b6b3a7640000610416670de0b6b3a76400008a6112ef565b34611339565b92506104298b848c611356565b945061043d85600001518660600151610d36565b9050610488565b61045f670d2f13f7789f0000670de0b6b3a764000034611339565b925061046c8b848c611356565b94508460600151915061048089838a610a68565b855190945090505b610493858584610f5a565b6104a7856020015185602001518989610ff9565b6104b98b600081518110151561031757fe5b505050965096945050505050565b60005473ffffffffffffffffffffffffffffffffffffffff163314610518576040517f08c379a00000000000000000000000000000000000000000000000000000000081526004016100c890612517565b6040517fa9059cbb00000000000000000000000000000000000000000000000000000000815273ffffffffffffffffffffffffffffffffffffffff83169063a9059cbb9061056c903390859060040161244b565b602060405180830381600087803b15801561058657600080fd5b505af115801561059a573d6000803e3d6000fd5b505050506040513d601f19601f820116820180604052506105be9190810190611f50565b15156105f6576040517f08c379a00000000000000000000000000000000000000000000000000000000081526004016100c8906124e7565b5050565b604080517fb4be83d5000000000000000000000000000000000000000000000000000000006020808301919091526060602483018181528751608485019081528884015160a48601529488015160c48501529087015160e4840152608087015161010484015260a087015161012484015260c087015161014484015260e08701516101648401526101008701516101848401526101208701516101a4840152610140870180516101c485019081526101608901516101e4860152610180905251805161020485018190529394919384936044870192849261022489019291820191601f82010460005b818110156107015783518552602094850194909301926001016106e3565b50505050818103610160808401919091528a0151805180835260209283019291820191601f82010460005b8181101561074a57835185526020948501949093019260010161072c565b50505089845250848103602093840190815288518083529093918201918981019190601f82010460005b81811015610792578351855260209485019490930192600101610774565b5060208a0184038a525050505050505050508090505b9392505050565b60005473ffffffffffffffffffffffffffffffffffffffff163314610800576040517f08c379a00000000000000000000000000000000000000000000000000000000081526004016100c890612517565b73ffffffffffffffffffffffffffffffffffffffff81161561085d57600080547fffffffffffffffffffffffff00000000000000000000000000000000000000001673ffffffffffffffffffffffffffffffffffffffff83161790555b50565b6000341161089a576040517f08c379a00000000000000000000000000000000000000000000000000000000081526004016100c890612487565b600260009054906101000a900473ffffffffffffffffffffffffffffffffffffffff1673ffffffffffffffffffffffffffffffffffffffff1663d0e30db0346040518263ffffffff167c01000000000000000000000000000000000000000000000000000000000281526004016000604051808303818588803b15801561092057600080fd5b505af1158015610934573d6000803e3d6000fd5b5050505050565b600081518351148015610a5f5750816040518082805190602001908083835b6020831061099757805182527fffffffffffffffffffffffffffffffffffffffffffffffffffffffffffffffe0909201916020918201910161095a565b51815160209384036101000a7fffffffffffffffffffffffffffffffffffffffffffffffffffffffffffffffff0180199092169116179052604051919093018190038120885190955088945090928392508401908083835b60208310610a2c57805182527fffffffffffffffffffffffffffffffffffffffffffffffffffffffffffffffe090920191602091820191016109ef565b6001836020036101000a038019825116818451168082178552505050505050905001915050604051809103902060001916145b90505b92915050565b610a70611a69565b6060806000806000806000610a83611a69565b8a1515610a8f57610d27565b6004805460408051602060026001851615610100027fffffffffffffffffffffffffffffffffffffffffffffffffffffffffffffffff0190941693909304601f81018490048402820184019092528181529291830182828015610b335780601f10610b0857610100808354040283529160200191610b33565b820191906000526020600020905b815481529060010190602001808311610b1657829003601f168201915b505060058054604080516020601f60027fffffffffffffffffffffffffffffffffffffffffffffffffffffffffffffffff6101006001881615020190951694909404938401819004810282018101909252828152969e5091945092508401905082828015610be25780601f10610bb757610100808354040283529160200191610be2565b820191906000526020600020905b815481529060010190602001808311610bc557829003601f168201915b50505050509650600095508b519450600093505b838514610d2757878c85815181101515610c0c57fe5b6020908102909101015161014001528b5187908d9086908110610c2b57fe5b602090810290910101516101600152610c448b87610d36565b9250610cab8c85815181101515610c5757fe5b9060200190602002015160a00151610ca58e87815181101515610c7657fe5b90602001906020020151608001518f88815181101515610c9257fe5b9060200190602002015160e00151610d36565b85611339565b9150610cf08c85815181101515610cbe57fe5b90602001906020020151610cd38460016112ef565b8c87815181101515610ce157fe5b906020019060200201516114fa565b9050610cfc898261159f565b610d0e89600001518a60600151610d36565b95508a8610610d1c57610d27565b600190930192610bf6565b50505050505050509392505050565b600082821115610d72576040517f08c379a00000000000000000000000000000000000000000000000000000000081526004016100c8906124a7565b50900390565b610d80611a69565b606080600080600080610d91611a69565b8a6000815181101515610da057fe5b6020908102919091018101516101400151600580546040805160026001841615610100027fffffffffffffffffffffffffffffffffffffffffffffffffffffffffffffffff0190931692909204601f8101869004860283018601909152808252929a5092909190830182828015610e585780601f10610e2d57610100808354040283529160200191610e58565b820191906000526020600020905b815481529060010190602001808311610e3b57829003601f168201915b505050505095508a519450600093505b838514610f4c57868b85815181101515610e7e57fe5b6020908102909101015161014001528a5186908c9086908110610e9d57fe5b6020908102909101015161016001528751610eb9908b90610d36565b9250610efc8b85815181101515610ecc57fe5b9060200190602002015160a001518c86815181101515610ee857fe5b906020019060200201516080015185611339565b9150610f288b85815181101515610f0f57fe5b90602001906020020151838b87815181101515610ce157fe5b9050610f34888261159f565b87518a11610f4157610f4c565b600190930192610e68565b505050505050509392505050565b600080610f6f84600001518560600151610d36565b915082821015610fab576040517f08c379a00000000000000000000000000000000000000000000000000000000081526004016100c8906124f7565b610fbd856020015185602001516112ef565b905034811115610934576040517f08c379a00000000000000000000000000000000000000000000000000000000081526004016100c890612497565b6000808066b1a2bc2ec5000085111561103e576040517f08c379a00000000000000000000000000000000000000000000000000000000081526004016100c890612527565b6110513461104c89896112ef565b610d36565b925061106685670de0b6b3a764000089611339565b9150828211156110a2576040517f08c379a00000000000000000000000000000000000000000000000000000000081526004016100c890612507565b60008311156111c5576002546040517f2e1a7d4d00000000000000000000000000000000000000000000000000000000815273ffffffffffffffffffffffffffffffffffffffff90911690632e1a7d4d90611101908690600401612593565b600060405180830381600087803b15801561111b57600080fd5b505af115801561112f573d6000803e3d6000fd5b5050505060008211156111815760405173ffffffffffffffffffffffffffffffffffffffff85169083156108fc029084906000818181858888f1935050505015801561117f573d6000803e3d6000fd5b505b61118b8383610d36565b905060008111156111c557604051339082156108fc029083906000818181858888f193505050501580156111c3573d6000803e3d6000fd5b505b50505050505050565b60006111e0838263ffffffff61160116565b604080517f4552433230546f6b656e28616464726573732900000000000000000000000000815290519081900360130190209091507fffffffff00000000000000000000000000000000000000000000000000000000808316911614156112505761124b838361166e565b6112ea565b604080517f455243373231546f6b656e28616464726573732c75696e7432353629000000008152905190819003601c0190207fffffffff00000000000000000000000000000000000000000000000000000000828116911614156112b85761124b838361185c565b6040517f08c379a00000000000000000000000000000000000000000000000000000000081526004016100c890612547565b505050565b60008282018381101561132e576040517f08c379a00000000000000000000000000000000000000000000000000000000081526004016100c8906124c7565b8091505b5092915050565b600061134e6113488584611944565b8461199f565b949350505050565b61135e611a69565b606080600080600061136e611a69565b89600081518110151561137d57fe5b6020908102919091018101516101400151600580546040805160026001841615610100027fffffffffffffffffffffffffffffffffffffffffffffffffffffffffffffffff0190931692909204601f8101869004860283018601909152808252929950929091908301828280156114355780601f1061140a57610100808354040283529160200191611435565b820191906000526020600020905b81548152906001019060200180831161141857829003601f168201915b5050505050945089519350600092505b8284146114ed57858a8481518110151561145b57fe5b602090810290910101516101400152895185908b908590811061147a57fe5b90602001906020020151610160018190525061149a898860200151610d36565b91506114c68a848151811015156114ad57fe5b90602001906020020151838a86815181101515610ce157fe5b90506114d2878261159f565b602087015189116114e2576114ed565b600190920191611445565b5050505050509392505050565b611502611a69565b606060006115118686866105fa565b600154815191935073ffffffffffffffffffffffffffffffffffffffff1691506080908390602082016000855af1808015611553576001811461157157611594565b60008552600060208601526000604086015260006060860152611594565b835185526020840151602086015260408401516040860152606084015160608601525b505050509392505050565b815181516115ad91906112ef565b8252602080830151908201516115c391906112ef565b6020830152604080830151908201516115dc91906112ef565b6040830152606080830151908201516115f591906112ef565b60609092019190915250565b600081600401835110151515611643576040517f08c379a00000000000000000000000000000000000000000000000000000000081526004016100c890612557565b5050602001517fffffffff000000000000000000000000000000000000000000000000000000001690565b60008061168284601063ffffffff6119b616565b604080517f7472616e7366657228616464726573732c75696e7432353629000000000000008152905190819003601901812091935073ffffffffffffffffffffffffffffffffffffffff841691906116e0903390879060240161244b565b604080517fffffffffffffffffffffffffffffffffffffffffffffffffffffffffffffffe08184030181529181526020820180517bffffffffffffffffffffffffffffffffffffffffffffffffffffffff167fffffffff000000000000000000000000000000000000000000000000000000009094169390931783525181519192909182919080838360005b8381101561178457818101518382015260200161176c565b50505050905090810190601f1680156117b15780820380516001836020036101000a031916815260200191505b509150506000604051808303816000865af192505050801515611800576040517f08c379a00000000000000000000000000000000000000000000000000000000081526004016100c8906124d7565b3d1561181d575060003d6020141561181d5760206000803e506000515b801515611856576040517f08c379a00000000000000000000000000000000000000000000000000000000081526004016100c8906124d7565b50505050565b60008060018314611899576040517f08c379a00000000000000000000000000000000000000000000000000000000081526004016100c890612567565b6118aa84601063ffffffff6119b616565b91506118bd84602463ffffffff611a1716565b6040517f23b872dd00000000000000000000000000000000000000000000000000000000815290915073ffffffffffffffffffffffffffffffffffffffff8316906323b872dd9061191690309033908690600401612423565b600060405180830381600087803b15801561193057600080fd5b505af11580156111c3573d6000803e3d6000fd5b6000808315156119575760009150611332565b5082820282848281151561196757fe5b041461132e576040517f08c379a00000000000000000000000000000000000000000000000000000000081526004016100c8906124c7565b60008082848115156119ad57fe5b04949350505050565b6000816014018351101515156119f8576040517f08c379a00000000000000000000000000000000000000000000000000000000081526004016100c890612537565b50016014015173ffffffffffffffffffffffffffffffffffffffff1690565b6000610a5f8383600081602001835110151515611a60576040517f08c379a00000000000000000000000000000000000000000000000000000000081526004016100c8906124b7565b50016020015190565b608060405190810160405280600081526020016000815260200160008152602001600081525090565b6000610a5f8235612633565b6000601f82018313611aaf57600080fd5b8135611ac2611abd826125c8565b6125a1565b81815260209384019390925082018360005b83811015611b005781358601611aea8882611b73565b8452506020928301929190910190600101611ad4565b5050505092915050565b6000601f82018313611b1b57600080fd5b8135611b29611abd826125c8565b81815260209384019390925082018360005b83811015611b005781358601611b518882611bc2565b8452506020928301929190910190600101611b3b565b6000610a5f825161264f565b6000601f82018313611b8457600080fd5b8135611b92611abd826125e9565b91508082526020830160208301858383011115611bae57600080fd5b611bb9838284612654565b50505092915050565b60006101808284031215611bd557600080fd5b611be06101806125a1565b90506000611bee8484611a92565b8252506020611bff84848301611a92565b6020830152506040611c1384828501611a92565b6040830152506060611c2784828501611a92565b6060830152506080611c3b84828501611d0b565b60808301525060a0611c4f84828501611d0b565b60a08301525060c0611c6384828501611d0b565b60c08301525060e0611c7784828501611d0b565b60e083015250610100611c8c84828501611d0b565b61010083015250610120611ca284828501611d0b565b6101208301525061014082013567ffffffffffffffff811115611cc457600080fd5b611cd084828501611b73565b6101408301525061016082013567ffffffffffffffff811115611cf257600080fd5b611cfe84828501611b73565b6101608301525092915050565b6000610a5f823561264c565b600060208284031215611d2957600080fd5b600061134e8484611a92565b60008060408385031215611d4857600080fd5b6000611d548585611a92565b9250506020611d6585828601611d0b565b9150509250929050565b60008060008060008060c08789031215611d8857600080fd5b863567ffffffffffffffff811115611d9f57600080fd5b611dab89828a01611b0a565b965050602087013567ffffffffffffffff811115611dc857600080fd5b611dd489828a01611a9e565b955050604087013567ffffffffffffffff811115611df157600080fd5b611dfd89828a01611b0a565b945050606087013567ffffffffffffffff811115611e1a57600080fd5b611e2689828a01611a9e565b9350506080611e3789828a01611d0b565b92505060a0611e4889828a01611a92565b9150509295509295509295565b600080600080600080600060e0888a031215611e7057600080fd5b873567ffffffffffffffff811115611e8757600080fd5b611e938a828b01611b0a565b9750506020611ea48a828b01611d0b565b965050604088013567ffffffffffffffff811115611ec157600080fd5b611ecd8a828b01611a9e565b955050606088013567ffffffffffffffff811115611eea57600080fd5b611ef68a828b01611b0a565b945050608088013567ffffffffffffffff811115611f1357600080fd5b611f1f8a828b01611a9e565b93505060a0611f308a828b01611d0b565b92505060c0611f418a828b01611a92565b91505092959891949750929550565b600060208284031215611f6257600080fd5b600061134e8484611b67565b600080600060608486031215611f8357600080fd5b833567ffffffffffffffff811115611f9a57600080fd5b611fa686828701611bc2565b9350506020611fb786828701611d0b565b925050604084013567ffffffffffffffff811115611fd457600080fd5b611fe086828701611b73565b9150509250925092565b611ff381612633565b82525050565b60006120048261262f565b808452612018816020860160208601612660565b6120218161268c565b9093016020019392505050565b602381527f44454641554c545f46554e4354494f4e5f574554485f434f4e54524143545f4f60208201527f4e4c590000000000000000000000000000000000000000000000000000000000604082015260600190565b601181527f494e56414c49445f4d53475f56414c5545000000000000000000000000000000602082015260400190565b600d81527f4f564552534f4c445f5745544800000000000000000000000000000000000000602082015260400190565b601181527f55494e543235365f554e444552464c4f57000000000000000000000000000000602082015260400190565b602681527f475245415445525f4f525f455155414c5f544f5f33325f4c454e4754485f524560208201527f5155495245440000000000000000000000000000000000000000000000000000604082015260600190565b601081527f55494e543235365f4f564552464c4f5700000000000000000000000000000000602082015260400190565b600f81527f5452414e534645525f4641494c45440000000000000000000000000000000000602082015260400190565b601181527f5749544844524157414c5f4641494c4544000000000000000000000000000000602082015260400190565b601481527f434f4d504c4554455f46494c4c5f4641494c4544000000000000000000000000602082015260400190565b601a81527f494e53554646494349454e545f4554485f52454d41494e494e47000000000000602082015260400190565b601381527f4f4e4c595f434f4e54524143545f4f574e455200000000000000000000000000602082015260400190565b601881527f4645455f50455243454e544147455f544f4f5f4c415247450000000000000000602082015260400190565b602681527f475245415445525f4f525f455155414c5f544f5f32305f4c454e4754485f524560208201527f5155495245440000000000000000000000000000000000000000000000000000604082015260600190565b601781527f554e535550504f525445445f544f4b454e5f50524f5859000000000000000000602082015260400190565b602581527f475245415445525f4f525f455155414c5f544f5f345f4c454e4754485f52455160208201527f5549524544000000000000000000000000000000000000000000000000000000604082015260600190565b600e81527f494e56414c49445f414d4f554e54000000000000000000000000000000000000602082015260400190565b805160808301906123d7848261240c565b5060208201516123ea602085018261240c565b5060408201516123fd604085018261240c565b50606082015161185660608501825b611ff38161264c565b60208101610a628284611fea565b606081016124318286611fea565b61243e6020830185611fea565b61134e604083018461240c565b604081016124598285611fea565b6107a8602083018461240c565b60208082528101610a5f8184611ff9565b60208082528101610a628161202e565b60208082528101610a6281612084565b60208082528101610a62816120b4565b60208082528101610a62816120e4565b60208082528101610a6281612114565b60208082528101610a628161216a565b60208082528101610a628161219a565b60208082528101610a62816121ca565b60208082528101610a62816121fa565b60208082528101610a628161222a565b60208082528101610a628161225a565b60208082528101610a628161228a565b60208082528101610a62816122ba565b60208082528101610a6281612310565b60208082528101610a6281612340565b60208082528101610a6281612396565b610100810161258682856123c6565b6107a860808301846123c6565b60208101610a62828461240c565b60405181810167ffffffffffffffff811182821017156125c057600080fd5b604052919050565b600067ffffffffffffffff8211156125df57600080fd5b5060209081020190565b600067ffffffffffffffff82111561260057600080fd5b506020601f919091017fffffffffffffffffffffffffffffffffffffffffffffffffffffffffffffffe0160190565b5190565b73ffffffffffffffffffffffffffffffffffffffff1690565b90565b151590565b82818337506000910152565b60005b8381101561267b578181015183820152602001612663565b838111156118565750506000910152565b601f017fffffffffffffffffffffffffffffffffffffffffffffffffffffffffffffffe016905600a265627a7a723058201014403b71ec46f28abdfcc7707141b4b514ccc3456289a0dc344079f8ecf10b6c6578706572696d656e74616cf50037",
				"opcodes": "PUSH1 0x80 PUSH1 0x40 MSTORE CALLVALUE DUP1 ISZERO PUSH3 0x11 JUMPI PUSH1 0x0 DUP1 REVERT JUMPDEST POP PUSH1 0x40 MLOAD PUSH3 0x2D22 CODESIZE SUB DUP1 PUSH3 0x2D22 DUP4 CODECOPY DUP2 ADD DUP1 PUSH1 0x40 MSTORE PUSH3 0x37 SWAP2 SWAP1 DUP2 ADD SWAP1 PUSH3 0x43F JUMP JUMPDEST PUSH1 0x0 DUP1 SLOAD CALLER PUSH1 0x1 PUSH1 0xA0 PUSH1 0x2 EXP SUB NOT SWAP2 DUP3 AND OR DUP3 SSTORE PUSH1 0x1 DUP1 SLOAD DUP3 AND PUSH1 0x1 PUSH1 0xA0 PUSH1 0x2 EXP SUB DUP10 DUP2 AND SWAP2 SWAP1 SWAP2 OR SWAP1 SWAP2 SSTORE PUSH1 0x2 DUP1 SLOAD DUP4 AND DUP9 DUP4 AND OR SWAP1 SSTORE PUSH1 0x3 DUP1 SLOAD SWAP1 SWAP3 AND SWAP1 DUP7 AND OR SWAP1 SSTORE DUP3 MLOAD DUP7 SWAP1 DUP7 SWAP1 DUP7 SWAP1 DUP7 SWAP1 DUP7 SWAP1 PUSH3 0x9B SWAP1 PUSH1 0x4 SWAP1 PUSH1 0x20 DUP6 ADD SWAP1 PUSH3 0x2F2 JUMP JUMPDEST POP DUP1 MLOAD PUSH3 0xB1 SWAP1 PUSH1 0x5 SWAP1 PUSH1 0x20 DUP5 ADD SWAP1 PUSH3 0x2F2 JUMP JUMPDEST POP POP PUSH1 0x1 SLOAD PUSH1 0x40 DUP1 MLOAD PUSH32 0x4552433230546F6B656E28616464726573732900000000000000000000000000 DUP2 MSTORE SWAP1 MLOAD SWAP1 DUP2 SWAP1 SUB PUSH1 0x13 ADD DUP2 KECCAK256 PUSH32 0x6070410800000000000000000000000000000000000000000000000000000000 DUP3 MSTORE PUSH1 0x1 PUSH1 0xA0 PUSH1 0x2 EXP SUB SWAP1 SWAP3 AND SWAP6 POP PUSH4 0x60704108 SWAP5 POP PUSH3 0x131 SWAP4 POP SWAP1 SWAP2 POP PUSH1 0x4 ADD PUSH3 0x556 JUMP JUMPDEST PUSH1 0x20 PUSH1 0x40 MLOAD DUP1 DUP4 SUB DUP2 PUSH1 0x0 DUP8 DUP1 EXTCODESIZE ISZERO DUP1 ISZERO PUSH3 0x14C JUMPI PUSH1 0x0 DUP1 REVERT JUMPDEST POP GAS CALL ISZERO DUP1 ISZERO PUSH3 0x161 JUMPI RETURNDATASIZE PUSH1 0x0 DUP1 RETURNDATACOPY RETURNDATASIZE PUSH1 0x0 REVERT JUMPDEST POP POP POP POP PUSH1 0x40 MLOAD RETURNDATASIZE PUSH1 0x1F NOT PUSH1 0x1F DUP3 ADD AND DUP3 ADD DUP1 PUSH1 0x40 MSTORE POP PUSH3 0x187 SWAP2 SWAP1 DUP2 ADD SWAP1 PUSH3 0x416 JUMP JUMPDEST SWAP1 POP PUSH1 0x1 PUSH1 0xA0 PUSH1 0x2 EXP SUB DUP2 AND ISZERO PUSH3 0x2E6 JUMPI PUSH1 0x2 SLOAD PUSH1 0x40 MLOAD PUSH32 0x95EA7B300000000000000000000000000000000000000000000000000000000 DUP2 MSTORE PUSH1 0x1 PUSH1 0xA0 PUSH1 0x2 EXP SUB SWAP1 SWAP2 AND SWAP1 PUSH4 0x95EA7B3 SWAP1 PUSH3 0x1E8 SWAP1 DUP5 SWAP1 PUSH1 0x0 NOT SWAP1 PUSH1 0x4 ADD PUSH3 0x537 JUMP JUMPDEST PUSH1 0x20 PUSH1 0x40 MLOAD DUP1 DUP4 SUB DUP2 PUSH1 0x0 DUP8 DUP1 EXTCODESIZE ISZERO DUP1 ISZERO PUSH3 0x203 JUMPI PUSH1 0x0 DUP1 REVERT JUMPDEST POP GAS CALL ISZERO DUP1 ISZERO PUSH3 0x218 JUMPI RETURNDATASIZE PUSH1 0x0 DUP1 RETURNDATACOPY RETURNDATASIZE PUSH1 0x0 REVERT JUMPDEST POP POP POP POP PUSH1 0x40 MLOAD RETURNDATASIZE PUSH1 0x1F NOT PUSH1 0x1F DUP3 ADD AND DUP3 ADD DUP1 PUSH1 0x40 MSTORE POP PUSH3 0x23E SWAP2 SWAP1 DUP2 ADD SWAP1 PUSH3 0x4EF JUMP JUMPDEST POP PUSH1 0x3 SLOAD PUSH1 0x40 MLOAD PUSH32 0x95EA7B300000000000000000000000000000000000000000000000000000000 DUP2 MSTORE PUSH1 0x1 PUSH1 0xA0 PUSH1 0x2 EXP SUB SWAP1 SWAP2 AND SWAP1 PUSH4 0x95EA7B3 SWAP1 PUSH3 0x28E SWAP1 DUP5 SWAP1 PUSH1 0x0 NOT SWAP1 PUSH1 0x4 ADD PUSH3 0x537 JUMP JUMPDEST PUSH1 0x20 PUSH1 0x40 MLOAD DUP1 DUP4 SUB DUP2 PUSH1 0x0 DUP8 DUP1 EXTCODESIZE ISZERO DUP1 ISZERO PUSH3 0x2A9 JUMPI PUSH1 0x0 DUP1 REVERT JUMPDEST POP GAS CALL ISZERO DUP1 ISZERO PUSH3 0x2BE JUMPI RETURNDATASIZE PUSH1 0x0 DUP1 RETURNDATACOPY RETURNDATASIZE PUSH1 0x0 REVERT JUMPDEST POP POP POP POP PUSH1 0x40 MLOAD RETURNDATASIZE PUSH1 0x1F NOT PUSH1 0x1F DUP3 ADD AND DUP3 ADD DUP1 PUSH1 0x40 MSTORE POP PUSH3 0x2E4 SWAP2 SWAP1 DUP2 ADD SWAP1 PUSH3 0x4EF JUMP JUMPDEST POP JUMPDEST POP POP POP POP POP POP PUSH3 0x624 JUMP JUMPDEST DUP3 DUP1 SLOAD PUSH1 0x1 DUP2 PUSH1 0x1 AND ISZERO PUSH2 0x100 MUL SUB AND PUSH1 0x2 SWAP1 DIV SWAP1 PUSH1 0x0 MSTORE PUSH1 0x20 PUSH1 0x0 KECCAK256 SWAP1 PUSH1 0x1F ADD PUSH1 0x20 SWAP1 DIV DUP2 ADD SWAP3 DUP3 PUSH1 0x1F LT PUSH3 0x335 JUMPI DUP1 MLOAD PUSH1 0xFF NOT AND DUP4 DUP1 ADD OR DUP6 SSTORE PUSH3 0x365 JUMP JUMPDEST DUP3 DUP1 ADD PUSH1 0x1 ADD DUP6 SSTORE DUP3 ISZERO PUSH3 0x365 JUMPI SWAP2 DUP3 ADD JUMPDEST DUP3 DUP2 GT ISZERO PUSH3 0x365 JUMPI DUP3 MLOAD DUP3 SSTORE SWAP2 PUSH1 0x20 ADD SWAP2 SWAP1 PUSH1 0x1 ADD SWAP1 PUSH3 0x348 JUMP JUMPDEST POP PUSH3 0x373 SWAP3 SWAP2 POP PUSH3 0x377 JUMP JUMPDEST POP SWAP1 JUMP JUMPDEST PUSH3 0x394 SWAP2 SWAP1 JUMPDEST DUP1 DUP3 GT ISZERO PUSH3 0x373 JUMPI PUSH1 0x0 DUP2 SSTORE PUSH1 0x1 ADD PUSH3 0x37E JUMP JUMPDEST SWAP1 JUMP JUMPDEST PUSH1 0x0 PUSH3 0x3A5 DUP3 MLOAD PUSH3 0x5BB JUMP JUMPDEST SWAP4 SWAP3 POP POP POP JUMP JUMPDEST PUSH1 0x0 PUSH3 0x3A5 DUP3 MLOAD PUSH3 0x5EC JUMP JUMPDEST PUSH1 0x0 PUSH1 0x1F DUP3 ADD DUP4 SGT PUSH3 0x3CC JUMPI PUSH1 0x0 DUP1 REVERT JUMPDEST DUP2 MLOAD PUSH3 0x3E3 PUSH3 0x3DD DUP3 PUSH3 0x593 JUMP JUMPDEST PUSH3 0x56C JUMP JUMPDEST SWAP2 POP DUP1 DUP3 MSTORE PUSH1 0x20 DUP4 ADD PUSH1 0x20 DUP4 ADD DUP6 DUP4 DUP4 ADD GT ISZERO PUSH3 0x400 JUMPI PUSH1 0x0 DUP1 REVERT JUMPDEST PUSH3 0x40D DUP4 DUP3 DUP5 PUSH3 0x5F1 JUMP JUMPDEST POP POP POP SWAP3 SWAP2 POP POP JUMP JUMPDEST PUSH1 0x0 PUSH1 0x20 DUP3 DUP5 SUB SLT ISZERO PUSH3 0x429 JUMPI PUSH1 0x0 DUP1 REVERT JUMPDEST PUSH1 0x0 PUSH3 0x437 DUP5 DUP5 PUSH3 0x397 JUMP JUMPDEST SWAP5 SWAP4 POP POP POP POP JUMP JUMPDEST PUSH1 0x0 DUP1 PUSH1 0x0 DUP1 PUSH1 0x0 PUSH1 0xA0 DUP7 DUP9 SUB SLT ISZERO PUSH3 0x458 JUMPI PUSH1 0x0 DUP1 REVERT JUMPDEST PUSH1 0x0 PUSH3 0x466 DUP9 DUP9 PUSH3 0x397 JUMP JUMPDEST SWAP6 POP POP PUSH1 0x20 PUSH3 0x479 DUP9 DUP3 DUP10 ADD PUSH3 0x397 JUMP JUMPDEST SWAP5 POP POP PUSH1 0x40 PUSH3 0x48C DUP9 DUP3 DUP10 ADD PUSH3 0x397 JUMP JUMPDEST SWAP4 POP POP PUSH1 0x60 DUP7 ADD MLOAD PUSH1 0x1 PUSH1 0x40 PUSH1 0x2 EXP SUB DUP2 GT ISZERO PUSH3 0x4A9 JUMPI PUSH1 0x0 DUP1 REVERT JUMPDEST PUSH3 0x4B7 DUP9 DUP3 DUP10 ADD PUSH3 0x3BA JUMP JUMPDEST SWAP3 POP POP PUSH1 0x80 DUP7 ADD MLOAD PUSH1 0x1 PUSH1 0x40 PUSH1 0x2 EXP SUB DUP2 GT ISZERO PUSH3 0x4D4 JUMPI PUSH1 0x0 DUP1 REVERT JUMPDEST PUSH3 0x4E2 DUP9 DUP3 DUP10 ADD PUSH3 0x3BA JUMP JUMPDEST SWAP2 POP POP SWAP3 SWAP6 POP SWAP3 SWAP6 SWAP1 SWAP4 POP JUMP JUMPDEST PUSH1 0x0 PUSH1 0x20 DUP3 DUP5 SUB SLT ISZERO PUSH3 0x502 JUMPI PUSH1 0x0 DUP1 REVERT JUMPDEST PUSH1 0x0 PUSH3 0x437 DUP5 DUP5 PUSH3 0x3AC JUMP JUMPDEST PUSH3 0x51B DUP2 PUSH3 0x5BB JUMP JUMPDEST DUP3 MSTORE POP POP JUMP JUMPDEST PUSH3 0x51B DUP2 PUSH3 0x5C7 JUMP JUMPDEST PUSH3 0x51B DUP2 PUSH3 0x394 JUMP JUMPDEST PUSH1 0x40 DUP2 ADD PUSH3 0x547 DUP3 DUP6 PUSH3 0x510 JUMP JUMPDEST PUSH3 0x3A5 PUSH1 0x20 DUP4 ADD DUP5 PUSH3 0x52C JUMP JUMPDEST PUSH1 0x20 DUP2 ADD PUSH3 0x566 DUP3 DUP5 PUSH3 0x521 JUMP JUMPDEST SWAP3 SWAP2 POP POP JUMP JUMPDEST PUSH1 0x40 MLOAD DUP2 DUP2 ADD PUSH1 0x1 PUSH1 0x40 PUSH1 0x2 EXP SUB DUP2 GT DUP3 DUP3 LT OR ISZERO PUSH3 0x58B JUMPI PUSH1 0x0 DUP1 REVERT JUMPDEST PUSH1 0x40 MSTORE SWAP2 SWAP1 POP JUMP JUMPDEST PUSH1 0x0 PUSH1 0x1 PUSH1 0x40 PUSH1 0x2 EXP SUB DUP3 GT ISZERO PUSH3 0x5AA JUMPI PUSH1 0x0 DUP1 REVERT JUMPDEST POP PUSH1 0x20 PUSH1 0x1F SWAP2 SWAP1 SWAP2 ADD PUSH1 0x1F NOT AND ADD SWAP1 JUMP JUMPDEST PUSH1 0x1 PUSH1 0xA0 PUSH1 0x2 EXP SUB AND SWAP1 JUMP JUMPDEST PUSH32 0xFFFFFFFF00000000000000000000000000000000000000000000000000000000 AND SWAP1 JUMP JUMPDEST ISZERO ISZERO SWAP1 JUMP JUMPDEST PUSH1 0x0 JUMPDEST DUP4 DUP2 LT ISZERO PUSH3 0x60E JUMPI DUP2 DUP2 ADD MLOAD DUP4 DUP3 ADD MSTORE PUSH1 0x20 ADD PUSH3 0x5F4 JUMP JUMPDEST DUP4 DUP2 GT ISZERO PUSH3 0x61E JUMPI PUSH1 0x0 DUP5 DUP5 ADD MSTORE JUMPDEST POP POP POP POP JUMP JUMPDEST PUSH2 0x26EE DUP1 PUSH3 0x634 PUSH1 0x0 CODECOPY PUSH1 0x0 RETURN STOP PUSH1 0x80 PUSH1 0x40 MSTORE PUSH1 0x4 CALLDATASIZE LT PUSH2 0x77 JUMPI PUSH4 0xFFFFFFFF PUSH29 0x100000000000000000000000000000000000000000000000000000000 PUSH1 0x0 CALLDATALOAD DIV AND PUSH4 0x18978E82 DUP2 EQ PUSH2 0xD3 JUMPI DUP1 PUSH4 0x8DA5CB5B EQ PUSH2 0xFD JUMPI DUP1 PUSH4 0x9395525C EQ PUSH2 0x11F JUMPI DUP1 PUSH4 0xA1DB9782 EQ PUSH2 0x132 JUMPI DUP1 PUSH4 0xE2E49511 EQ PUSH2 0x152 JUMPI DUP1 PUSH4 0xF2FDE38B EQ PUSH2 0x17F JUMPI JUMPDEST PUSH1 0x2 SLOAD PUSH20 0xFFFFFFFFFFFFFFFFFFFFFFFFFFFFFFFFFFFFFFFF AND CALLER EQ PUSH2 0xD1 JUMPI PUSH1 0x40 MLOAD PUSH32 0x8C379A000000000000000000000000000000000000000000000000000000000 DUP2 MSTORE PUSH1 0x4 ADD PUSH2 0xC8 SWAP1 PUSH2 0x2477 JUMP JUMPDEST PUSH1 0x40 MLOAD DUP1 SWAP2 SUB SWAP1 REVERT JUMPDEST STOP JUMPDEST PUSH2 0xE6 PUSH2 0xE1 CALLDATASIZE PUSH1 0x4 PUSH2 0x1E55 JUMP JUMPDEST PUSH2 0x19F JUMP JUMPDEST PUSH1 0x40 MLOAD PUSH2 0xF4 SWAP3 SWAP2 SWAP1 PUSH2 0x2577 JUMP JUMPDEST PUSH1 0x40 MLOAD DUP1 SWAP2 SUB SWAP1 RETURN JUMPDEST CALLVALUE DUP1 ISZERO PUSH2 0x109 JUMPI PUSH1 0x0 DUP1 REVERT JUMPDEST POP PUSH2 0x112 PUSH2 0x33A JUMP JUMPDEST PUSH1 0x40 MLOAD PUSH2 0xF4 SWAP2 SWAP1 PUSH2 0x2415 JUMP JUMPDEST PUSH2 0xE6 PUSH2 0x12D CALLDATASIZE PUSH1 0x4 PUSH2 0x1D6F JUMP JUMPDEST PUSH2 0x356 JUMP JUMPDEST CALLVALUE DUP1 ISZERO PUSH2 0x13E JUMPI PUSH1 0x0 DUP1 REVERT JUMPDEST POP PUSH2 0xD1 PUSH2 0x14D CALLDATASIZE PUSH1 0x4 PUSH2 0x1D35 JUMP JUMPDEST PUSH2 0x4C7 JUMP JUMPDEST CALLVALUE DUP1 ISZERO PUSH2 0x15E JUMPI PUSH1 0x0 DUP1 REVERT JUMPDEST POP PUSH2 0x172 PUSH2 0x16D CALLDATASIZE PUSH1 0x4 PUSH2 0x1F6E JUMP JUMPDEST PUSH2 0x5FA JUMP JUMPDEST PUSH1 0x40 MLOAD PUSH2 0xF4 SWAP2 SWAP1 PUSH2 0x2466 JUMP JUMPDEST CALLVALUE DUP1 ISZERO PUSH2 0x18B JUMPI PUSH1 0x0 DUP1 REVERT JUMPDEST POP PUSH2 0xD1 PUSH2 0x19A CALLDATASIZE PUSH1 0x4 PUSH2 0x1D17 JUMP JUMPDEST PUSH2 0x7AF JUMP JUMPDEST PUSH2 0x1A7 PUSH2 0x1A69 JUMP JUMPDEST PUSH2 0x1AF PUSH2 0x1A69 JUMP JUMPDEST PUSH1 0x0 DUP1 PUSH2 0x1BA PUSH2 0x860 JUMP JUMPDEST PUSH1 0x4 DUP1 SLOAD PUSH1 0x40 DUP1 MLOAD PUSH1 0x20 PUSH1 0x1F PUSH1 0x2 PUSH32 0xFFFFFFFFFFFFFFFFFFFFFFFFFFFFFFFFFFFFFFFFFFFFFFFFFFFFFFFFFFFFFFFF PUSH2 0x100 PUSH1 0x1 DUP9 AND ISZERO MUL ADD SWAP1 SWAP6 AND SWAP5 SWAP1 SWAP5 DIV SWAP4 DUP5 ADD DUP2 SWAP1 DIV DUP2 MUL DUP3 ADD DUP2 ADD SWAP1 SWAP3 MSTORE DUP3 DUP2 MSTORE PUSH2 0x294 SWAP4 SWAP1 SWAP3 SWAP1 SWAP2 DUP4 ADD DUP3 DUP3 DUP1 ISZERO PUSH2 0x265 JUMPI DUP1 PUSH1 0x1F LT PUSH2 0x23A JUMPI PUSH2 0x100 DUP1 DUP4 SLOAD DIV MUL DUP4 MSTORE SWAP2 PUSH1 0x20 ADD SWAP2 PUSH2 0x265 JUMP JUMPDEST DUP3 ADD SWAP2 SWAP1 PUSH1 0x0 MSTORE PUSH1 0x20 PUSH1 0x0 KECCAK256 SWAP1 JUMPDEST DUP2 SLOAD DUP2 MSTORE SWAP1 PUSH1 0x1 ADD SWAP1 PUSH1 0x20 ADD DUP1 DUP4 GT PUSH2 0x248 JUMPI DUP3 SWAP1 SUB PUSH1 0x1F AND DUP3 ADD SWAP2 JUMPDEST POP POP POP POP POP DUP13 PUSH1 0x0 DUP2 MLOAD DUP2 LT ISZERO ISZERO PUSH2 0x279 JUMPI INVALID JUMPDEST PUSH1 0x20 SWAP1 DUP2 MUL SWAP1 SWAP2 ADD ADD MLOAD PUSH2 0x140 ADD MLOAD SWAP1 PUSH4 0xFFFFFFFF PUSH2 0x93B AND JUMP JUMPDEST ISZERO PUSH2 0x2BF JUMPI PUSH2 0x2A4 DUP12 DUP12 DUP12 PUSH2 0xA68 JUMP JUMPDEST SWAP4 POP PUSH2 0x2B8 DUP5 PUSH1 0x0 ADD MLOAD DUP6 PUSH1 0x60 ADD MLOAD PUSH2 0xD36 JUMP JUMPDEST SWAP1 POP PUSH2 0x2E6 JUMP JUMPDEST PUSH2 0x2CA DUP12 DUP12 DUP12 PUSH2 0xD78 JUMP JUMPDEST SWAP4 POP DUP4 PUSH1 0x60 ADD MLOAD SWAP2 POP PUSH2 0x2DE DUP9 DUP4 DUP10 PUSH2 0xA68 JUMP JUMPDEST DUP5 MLOAD SWAP1 SWAP4 POP SWAP1 POP JUMPDEST PUSH2 0x2F1 DUP5 DUP5 DUP5 PUSH2 0xF5A JUMP JUMPDEST PUSH2 0x305 DUP5 PUSH1 0x20 ADD MLOAD DUP5 PUSH1 0x20 ADD MLOAD DUP9 DUP9 PUSH2 0xFF9 JUMP JUMPDEST PUSH2 0x32C DUP12 PUSH1 0x0 DUP2 MLOAD DUP2 LT ISZERO ISZERO PUSH2 0x317 JUMPI INVALID JUMPDEST SWAP1 PUSH1 0x20 ADD SWAP1 PUSH1 0x20 MUL ADD MLOAD PUSH2 0x140 ADD MLOAD DUP3 PUSH2 0x11CE JUMP JUMPDEST POP POP SWAP8 POP SWAP8 SWAP6 POP POP POP POP POP POP JUMP JUMPDEST PUSH1 0x0 SLOAD PUSH20 0xFFFFFFFFFFFFFFFFFFFFFFFFFFFFFFFFFFFFFFFF AND DUP2 JUMP JUMPDEST PUSH2 0x35E PUSH2 0x1A69 JUMP JUMPDEST PUSH2 0x366 PUSH2 0x1A69 JUMP JUMPDEST PUSH1 0x0 DUP1 PUSH1 0x0 PUSH2 0x373 PUSH2 0x860 JUMP JUMPDEST PUSH1 0x4 DUP1 SLOAD PUSH1 0x40 DUP1 MLOAD PUSH1 0x20 PUSH1 0x1F PUSH1 0x2 PUSH32 0xFFFFFFFFFFFFFFFFFFFFFFFFFFFFFFFFFFFFFFFFFFFFFFFFFFFFFFFFFFFFFFFF PUSH2 0x100 PUSH1 0x1 DUP9 AND ISZERO MUL ADD SWAP1 SWAP6 AND SWAP5 SWAP1 SWAP5 DIV SWAP4 DUP5 ADD DUP2 SWAP1 DIV DUP2 MUL DUP3 ADD DUP2 ADD SWAP1 SWAP3 MSTORE DUP3 DUP2 MSTORE PUSH2 0x3F3 SWAP4 SWAP1 SWAP3 SWAP1 SWAP2 DUP4 ADD DUP3 DUP3 DUP1 ISZERO PUSH2 0x265 JUMPI DUP1 PUSH1 0x1F LT PUSH2 0x23A JUMPI PUSH2 0x100 DUP1 DUP4 SLOAD DIV MUL DUP4 MSTORE SWAP2 PUSH1 0x20 ADD SWAP2 PUSH2 0x265 JUMP JUMPDEST ISZERO PUSH2 0x444 JUMPI PUSH2 0x41C PUSH8 0xDE0B6B3A7640000 PUSH2 0x416 PUSH8 0xDE0B6B3A7640000 DUP11 PUSH2 0x12EF JUMP JUMPDEST CALLVALUE PUSH2 0x1339 JUMP JUMPDEST SWAP3 POP PUSH2 0x429 DUP12 DUP5 DUP13 PUSH2 0x1356 JUMP JUMPDEST SWAP5 POP PUSH2 0x43D DUP6 PUSH1 0x0 ADD MLOAD DUP7 PUSH1 0x60 ADD MLOAD PUSH2 0xD36 JUMP JUMPDEST SWAP1 POP PUSH2 0x488 JUMP JUMPDEST PUSH2 0x45F PUSH8 0xD2F13F7789F0000 PUSH8 0xDE0B6B3A7640000 CALLVALUE PUSH2 0x1339 JUMP JUMPDEST SWAP3 POP PUSH2 0x46C DUP12 DUP5 DUP13 PUSH2 0x1356 JUMP JUMPDEST SWAP5 POP DUP5 PUSH1 0x60 ADD MLOAD SWAP2 POP PUSH2 0x480 DUP10 DUP4 DUP11 PUSH2 0xA68 JUMP JUMPDEST DUP6 MLOAD SWAP1 SWAP5 POP SWAP1 POP JUMPDEST PUSH2 0x493 DUP6 DUP6 DUP5 PUSH2 0xF5A JUMP JUMPDEST PUSH2 0x4A7 DUP6 PUSH1 0x20 ADD MLOAD DUP6 PUSH1 0x20 ADD MLOAD DUP10 DUP10 PUSH2 0xFF9 JUMP JUMPDEST PUSH2 0x4B9 DUP12 PUSH1 0x0 DUP2 MLOAD DUP2 LT ISZERO ISZERO PUSH2 0x317 JUMPI INVALID JUMPDEST POP POP POP SWAP7 POP SWAP7 SWAP5 POP POP POP POP POP JUMP JUMPDEST PUSH1 0x0 SLOAD PUSH20 0xFFFFFFFFFFFFFFFFFFFFFFFFFFFFFFFFFFFFFFFF AND CALLER EQ PUSH2 0x518 JUMPI PUSH1 0x40 MLOAD PUSH32 0x8C379A000000000000000000000000000000000000000000000000000000000 DUP2 MSTORE PUSH1 0x4 ADD PUSH2 0xC8 SWAP1 PUSH2 0x2517 JUMP JUMPDEST PUSH1 0x40 MLOAD PUSH32 0xA9059CBB00000000000000000000000000000000000000000000000000000000 DUP2 MSTORE PUSH20 0xFFFFFFFFFFFFFFFFFFFFFFFFFFFFFFFFFFFFFFFF DUP4 AND SWAP1 PUSH4 0xA9059CBB SWAP1 PUSH2 0x56C SWAP1 CALLER SWAP1 DUP6 SWAP1 PUSH1 0x4 ADD PUSH2 0x244B JUMP JUMPDEST PUSH1 0x20 PUSH1 0x40 MLOAD DUP1 DUP4 SUB DUP2 PUSH1 0x0 DUP8 DUP1 EXTCODESIZE ISZERO DUP1 ISZERO PUSH2 0x586 JUMPI PUSH1 0x0 DUP1 REVERT JUMPDEST POP GAS CALL ISZERO DUP1 ISZERO PUSH2 0x59A JUMPI RETURNDATASIZE PUSH1 0x0 DUP1 RETURNDATACOPY RETURNDATASIZE PUSH1 0x0 REVERT JUMPDEST POP POP POP POP PUSH1 0x40 MLOAD RETURNDATASIZE PUSH1 0x1F NOT PUSH1 0x1F DUP3 ADD AND DUP3 ADD DUP1 PUSH1 0x40 MSTORE POP PUSH2 0x5BE SWAP2 SWAP1 DUP2 ADD SWAP1 PUSH2 0x1F50 JUMP JUMPDEST ISZERO ISZERO PUSH2 0x5F6 JUMPI PUSH1 0x40 MLOAD PUSH32 0x8C379A000000000000000000000000000000000000000000000000000000000 DUP2 MSTORE PUSH1 0x4 ADD PUSH2 0xC8 SWAP1 PUSH2 0x24E7 JUMP JUMPDEST POP POP JUMP JUMPDEST PUSH1 0x40 DUP1 MLOAD PUSH32 0xB4BE83D500000000000000000000000000000000000000000000000000000000 PUSH1 0x20 DUP1 DUP4 ADD SWAP2 SWAP1 SWAP2 MSTORE PUSH1 0x60 PUSH1 0x24 DUP4 ADD DUP2 DUP2 MSTORE DUP8 MLOAD PUSH1 0x84 DUP6 ADD SWAP1 DUP2 MSTORE DUP9 DUP5 ADD MLOAD PUSH1 0xA4 DUP7 ADD MSTORE SWAP5 DUP9 ADD MLOAD PUSH1 0xC4 DUP6 ADD MSTORE SWAP1 DUP8 ADD MLOAD PUSH1 0xE4 DUP5 ADD MSTORE PUSH1 0x80 DUP8 ADD MLOAD PUSH2 0x104 DUP5 ADD MSTORE PUSH1 0xA0 DUP8 ADD MLOAD PUSH2 0x124 DUP5 ADD MSTORE PUSH1 0xC0 DUP8 ADD MLOAD PUSH2 0x144 DUP5 ADD MSTORE PUSH1 0xE0 DUP8 ADD MLOAD PUSH2 0x164 DUP5 ADD MSTORE PUSH2 0x100 DUP8 ADD MLOAD PUSH2 0x184 DUP5 ADD MSTORE PUSH2 0x120 DUP8 ADD MLOAD PUSH2 0x1A4 DUP5 ADD MSTORE PUSH2 0x140 DUP8 ADD DUP1 MLOAD PUSH2 0x1C4 DUP6 ADD SWAP1 DUP2 MSTORE PUSH2 0x160 DUP10 ADD MLOAD PUSH2 0x1E4 DUP7 ADD MSTORE PUSH2 0x180 SWAP1 MSTORE MLOAD DUP1 MLOAD PUSH2 0x204 DUP6 ADD DUP2 SWAP1 MSTORE SWAP4 SWAP5 SWAP2 SWAP4 DUP5 SWAP4 PUSH1 0x44 DUP8 ADD SWAP3 DUP5 SWAP3 PUSH2 0x224 DUP10 ADD SWAP3 SWAP2 DUP3 ADD SWAP2 PUSH1 0x1F DUP3 ADD DIV PUSH1 0x0 JUMPDEST DUP2 DUP2 LT ISZERO PUSH2 0x701 JUMPI DUP4 MLOAD DUP6 MSTORE PUSH1 0x20 SWAP5 DUP6 ADD SWAP5 SWAP1 SWAP4 ADD SWAP3 PUSH1 0x1 ADD PUSH2 0x6E3 JUMP JUMPDEST POP POP POP POP DUP2 DUP2 SUB PUSH2 0x160 DUP1 DUP5 ADD SWAP2 SWAP1 SWAP2 MSTORE DUP11 ADD MLOAD DUP1 MLOAD DUP1 DUP4 MSTORE PUSH1 0x20 SWAP3 DUP4 ADD SWAP3 SWAP2 DUP3 ADD SWAP2 PUSH1 0x1F DUP3 ADD DIV PUSH1 0x0 JUMPDEST DUP2 DUP2 LT ISZERO PUSH2 0x74A JUMPI DUP4 MLOAD DUP6 MSTORE PUSH1 0x20 SWAP5 DUP6 ADD SWAP5 SWAP1 SWAP4 ADD SWAP3 PUSH1 0x1 ADD PUSH2 0x72C JUMP JUMPDEST POP POP POP DUP10 DUP5 MSTORE POP DUP5 DUP2 SUB PUSH1 0x20 SWAP4 DUP5 ADD SWAP1 DUP2 MSTORE DUP9 MLOAD DUP1 DUP4 MSTORE SWAP1 SWAP4 SWAP2 DUP3 ADD SWAP2 DUP10 DUP2 ADD SWAP2 SWAP1 PUSH1 0x1F DUP3 ADD DIV PUSH1 0x0 JUMPDEST DUP2 DUP2 LT ISZERO PUSH2 0x792 JUMPI DUP4 MLOAD DUP6 MSTORE PUSH1 0x20 SWAP5 DUP6 ADD SWAP5 SWAP1 SWAP4 ADD SWAP3 PUSH1 0x1 ADD PUSH2 0x774 JUMP JUMPDEST POP PUSH1 0x20 DUP11 ADD DUP5 SUB DUP11 MSTORE POP POP POP POP POP POP POP POP POP DUP1 SWAP1 POP JUMPDEST SWAP4 SWAP3 POP POP POP JUMP JUMPDEST PUSH1 0x0 SLOAD PUSH20 0xFFFFFFFFFFFFFFFFFFFFFFFFFFFFFFFFFFFFFFFF AND CALLER EQ PUSH2 0x800 JUMPI PUSH1 0x40 MLOAD PUSH32 0x8C379A000000000000000000000000000000000000000000000000000000000 DUP2 MSTORE PUSH1 0x4 ADD PUSH2 0xC8 SWAP1 PUSH2 0x2517 JUMP JUMPDEST PUSH20 0xFFFFFFFFFFFFFFFFFFFFFFFFFFFFFFFFFFFFFFFF DUP2 AND ISZERO PUSH2 0x85D JUMPI PUSH1 0x0 DUP1 SLOAD PUSH32 0xFFFFFFFFFFFFFFFFFFFFFFFF0000000000000000000000000000000000000000 AND PUSH20 0xFFFFFFFFFFFFFFFFFFFFFFFFFFFFFFFFFFFFFFFF DUP4 AND OR SWAP1 SSTORE JUMPDEST POP JUMP JUMPDEST PUSH1 0x0 CALLVALUE GT PUSH2 0x89A JUMPI PUSH1 0x40 MLOAD PUSH32 0x8C379A000000000000000000000000000000000000000000000000000000000 DUP2 MSTORE PUSH1 0x4 ADD PUSH2 0xC8 SWAP1 PUSH2 0x2487 JUMP JUMPDEST PUSH1 0x2 PUSH1 0x0 SWAP1 SLOAD SWAP1 PUSH2 0x100 EXP SWAP1 DIV PUSH20 0xFFFFFFFFFFFFFFFFFFFFFFFFFFFFFFFFFFFFFFFF AND PUSH20 0xFFFFFFFFFFFFFFFFFFFFFFFFFFFFFFFFFFFFFFFF AND PUSH4 0xD0E30DB0 CALLVALUE PUSH1 0x40 MLOAD DUP3 PUSH4 0xFFFFFFFF AND PUSH29 0x100000000000000000000000000000000000000000000000000000000 MUL DUP2 MSTORE PUSH1 0x4 ADD PUSH1 0x0 PUSH1 0x40 MLOAD DUP1 DUP4 SUB DUP2 DUP6 DUP9 DUP1 EXTCODESIZE ISZERO DUP1 ISZERO PUSH2 0x920 JUMPI PUSH1 0x0 DUP1 REVERT JUMPDEST POP GAS CALL ISZERO DUP1 ISZERO PUSH2 0x934 JUMPI RETURNDATASIZE PUSH1 0x0 DUP1 RETURNDATACOPY RETURNDATASIZE PUSH1 0x0 REVERT JUMPDEST POP POP POP POP POP JUMP JUMPDEST PUSH1 0x0 DUP2 MLOAD DUP4 MLOAD EQ DUP1 ISZERO PUSH2 0xA5F JUMPI POP DUP2 PUSH1 0x40 MLOAD DUP1 DUP3 DUP1 MLOAD SWAP1 PUSH1 0x20 ADD SWAP1 DUP1 DUP4 DUP4 JUMPDEST PUSH1 0x20 DUP4 LT PUSH2 0x997 JUMPI DUP1 MLOAD DUP3 MSTORE PUSH32 0xFFFFFFFFFFFFFFFFFFFFFFFFFFFFFFFFFFFFFFFFFFFFFFFFFFFFFFFFFFFFFFE0 SWAP1 SWAP3 ADD SWAP2 PUSH1 0x20 SWAP2 DUP3 ADD SWAP2 ADD PUSH2 0x95A JUMP JUMPDEST MLOAD DUP2 MLOAD PUSH1 0x20 SWAP4 DUP5 SUB PUSH2 0x100 EXP PUSH32 0xFFFFFFFFFFFFFFFFFFFFFFFFFFFFFFFFFFFFFFFFFFFFFFFFFFFFFFFFFFFFFFFF ADD DUP1 NOT SWAP1 SWAP3 AND SWAP2 AND OR SWAP1 MSTORE PUSH1 0x40 MLOAD SWAP2 SWAP1 SWAP4 ADD DUP2 SWAP1 SUB DUP2 KECCAK256 DUP9 MLOAD SWAP1 SWAP6 POP DUP9 SWAP5 POP SWAP1 SWAP3 DUP4 SWAP3 POP DUP5 ADD SWAP1 DUP1 DUP4 DUP4 JUMPDEST PUSH1 0x20 DUP4 LT PUSH2 0xA2C JUMPI DUP1 MLOAD DUP3 MSTORE PUSH32 0xFFFFFFFFFFFFFFFFFFFFFFFFFFFFFFFFFFFFFFFFFFFFFFFFFFFFFFFFFFFFFFE0 SWAP1 SWAP3 ADD SWAP2 PUSH1 0x20 SWAP2 DUP3 ADD SWAP2 ADD PUSH2 0x9EF JUMP JUMPDEST PUSH1 0x1 DUP4 PUSH1 0x20 SUB PUSH2 0x100 EXP SUB DUP1 NOT DUP3 MLOAD AND DUP2 DUP5 MLOAD AND DUP1 DUP3 OR DUP6 MSTORE POP POP POP POP POP POP SWAP1 POP ADD SWAP2 POP POP PUSH1 0x40 MLOAD DUP1 SWAP2 SUB SWAP1 KECCAK256 PUSH1 0x0 NOT AND EQ JUMPDEST SWAP1 POP JUMPDEST SWAP3 SWAP2 POP POP JUMP JUMPDEST PUSH2 0xA70 PUSH2 0x1A69 JUMP JUMPDEST PUSH1 0x60 DUP1 PUSH1 0x0 DUP1 PUSH1 0x0 DUP1 PUSH1 0x0 PUSH2 0xA83 PUSH2 0x1A69 JUMP JUMPDEST DUP11 ISZERO ISZERO PUSH2 0xA8F JUMPI PUSH2 0xD27 JUMP JUMPDEST PUSH1 0x4 DUP1 SLOAD PUSH1 0x40 DUP1 MLOAD PUSH1 0x20 PUSH1 0x2 PUSH1 0x1 DUP6 AND ISZERO PUSH2 0x100 MUL PUSH32 0xFFFFFFFFFFFFFFFFFFFFFFFFFFFFFFFFFFFFFFFFFFFFFFFFFFFFFFFFFFFFFFFF ADD SWAP1 SWAP5 AND SWAP4 SWAP1 SWAP4 DIV PUSH1 0x1F DUP2 ADD DUP5 SWAP1 DIV DUP5 MUL DUP3 ADD DUP5 ADD SWAP1 SWAP3 MSTORE DUP2 DUP2 MSTORE SWAP3 SWAP2 DUP4 ADD DUP3 DUP3 DUP1 ISZERO PUSH2 0xB33 JUMPI DUP1 PUSH1 0x1F LT PUSH2 0xB08 JUMPI PUSH2 0x100 DUP1 DUP4 SLOAD DIV MUL DUP4 MSTORE SWAP2 PUSH1 0x20 ADD SWAP2 PUSH2 0xB33 JUMP JUMPDEST DUP3 ADD SWAP2 SWAP1 PUSH1 0x0 MSTORE PUSH1 0x20 PUSH1 0x0 KECCAK256 SWAP1 JUMPDEST DUP2 SLOAD DUP2 MSTORE SWAP1 PUSH1 0x1 ADD SWAP1 PUSH1 0x20 ADD DUP1 DUP4 GT PUSH2 0xB16 JUMPI DUP3 SWAP1 SUB PUSH1 0x1F AND DUP3 ADD SWAP2 JUMPDEST POP POP PUSH1 0x5 DUP1 SLOAD PUSH1 0x40 DUP1 MLOAD PUSH1 0x20 PUSH1 0x1F PUSH1 0x2 PUSH32 0xFFFFFFFFFFFFFFFFFFFFFFFFFFFFFFFFFFFFFFFFFFFFFFFFFFFFFFFFFFFFFFFF PUSH2 0x100 PUSH1 0x1 DUP9 AND ISZERO MUL ADD SWAP1 SWAP6 AND SWAP5 SWAP1 SWAP5 DIV SWAP4 DUP5 ADD DUP2 SWAP1 DIV DUP2 MUL DUP3 ADD DUP2 ADD SWAP1 SWAP3 MSTORE DUP3 DUP2 MSTORE SWAP7 SWAP15 POP SWAP2 SWAP5 POP SWAP3 POP DUP5 ADD SWAP1 POP DUP3 DUP3 DUP1 ISZERO PUSH2 0xBE2 JUMPI DUP1 PUSH1 0x1F LT PUSH2 0xBB7 JUMPI PUSH2 0x100 DUP1 DUP4 SLOAD DIV MUL DUP4 MSTORE SWAP2 PUSH1 0x20 ADD SWAP2 PUSH2 0xBE2 JUMP JUMPDEST DUP3 ADD SWAP2 SWAP1 PUSH1 0x0 MSTORE PUSH1 0x20 PUSH1 0x0 KECCAK256 SWAP1 JUMPDEST DUP2 SLOAD DUP2 MSTORE SWAP1 PUSH1 0x1 ADD SWAP1 PUSH1 0x20 ADD DUP1 DUP4 GT PUSH2 0xBC5 JUMPI DUP3 SWAP1 SUB PUSH1 0x1F AND DUP3 ADD SWAP2 JUMPDEST POP POP POP POP POP SWAP7 POP PUSH1 0x0 SWAP6 POP DUP12 MLOAD SWAP5 POP PUSH1 0x0 SWAP4 POP JUMPDEST DUP4 DUP6 EQ PUSH2 0xD27 JUMPI DUP8 DUP13 DUP6 DUP2 MLOAD DUP2 LT ISZERO ISZERO PUSH2 0xC0C JUMPI INVALID JUMPDEST PUSH1 0x20 SWAP1 DUP2 MUL SWAP1 SWAP2 ADD ADD MLOAD PUSH2 0x140 ADD MSTORE DUP12 MLOAD DUP8 SWAP1 DUP14 SWAP1 DUP7 SWAP1 DUP2 LT PUSH2 0xC2B JUMPI INVALID JUMPDEST PUSH1 0x20 SWAP1 DUP2 MUL SWAP1 SWAP2 ADD ADD MLOAD PUSH2 0x160 ADD MSTORE PUSH2 0xC44 DUP12 DUP8 PUSH2 0xD36 JUMP JUMPDEST SWAP3 POP PUSH2 0xCAB DUP13 DUP6 DUP2 MLOAD DUP2 LT ISZERO ISZERO PUSH2 0xC57 JUMPI INVALID JUMPDEST SWAP1 PUSH1 0x20 ADD SWAP1 PUSH1 0x20 MUL ADD MLOAD PUSH1 0xA0 ADD MLOAD PUSH2 0xCA5 DUP15 DUP8 DUP2 MLOAD DUP2 LT ISZERO ISZERO PUSH2 0xC76 JUMPI INVALID JUMPDEST SWAP1 PUSH1 0x20 ADD SWAP1 PUSH1 0x20 MUL ADD MLOAD PUSH1 0x80 ADD MLOAD DUP16 DUP9 DUP2 MLOAD DUP2 LT ISZERO ISZERO PUSH2 0xC92 JUMPI INVALID JUMPDEST SWAP1 PUSH1 0x20 ADD SWAP1 PUSH1 0x20 MUL ADD MLOAD PUSH1 0xE0 ADD MLOAD PUSH2 0xD36 JUMP JUMPDEST DUP6 PUSH2 0x1339 JUMP JUMPDEST SWAP2 POP PUSH2 0xCF0 DUP13 DUP6 DUP2 MLOAD DUP2 LT ISZERO ISZERO PUSH2 0xCBE JUMPI INVALID JUMPDEST SWAP1 PUSH1 0x20 ADD SWAP1 PUSH1 0x20 MUL ADD MLOAD PUSH2 0xCD3 DUP5 PUSH1 0x1 PUSH2 0x12EF JUMP JUMPDEST DUP13 DUP8 DUP2 MLOAD DUP2 LT ISZERO ISZERO PUSH2 0xCE1 JUMPI INVALID JUMPDEST SWAP1 PUSH1 0x20 ADD SWAP1 PUSH1 0x20 MUL ADD MLOAD PUSH2 0x14FA JUMP JUMPDEST SWAP1 POP PUSH2 0xCFC DUP10 DUP3 PUSH2 0x159F JUMP JUMPDEST PUSH2 0xD0E DUP10 PUSH1 0x0 ADD MLOAD DUP11 PUSH1 0x60 ADD MLOAD PUSH2 0xD36 JUMP JUMPDEST SWAP6 POP DUP11 DUP7 LT PUSH2 0xD1C JUMPI PUSH2 0xD27 JUMP JUMPDEST PUSH1 0x1 SWAP1 SWAP4 ADD SWAP3 PUSH2 0xBF6 JUMP JUMPDEST POP POP POP POP POP POP POP POP SWAP4 SWAP3 POP POP POP JUMP JUMPDEST PUSH1 0x0 DUP3 DUP3 GT ISZERO PUSH2 0xD72 JUMPI PUSH1 0x40 MLOAD PUSH32 0x8C379A000000000000000000000000000000000000000000000000000000000 DUP2 MSTORE PUSH1 0x4 ADD PUSH2 0xC8 SWAP1 PUSH2 0x24A7 JUMP JUMPDEST POP SWAP1 SUB SWAP1 JUMP JUMPDEST PUSH2 0xD80 PUSH2 0x1A69 JUMP JUMPDEST PUSH1 0x60 DUP1 PUSH1 0x0 DUP1 PUSH1 0x0 DUP1 PUSH2 0xD91 PUSH2 0x1A69 JUMP JUMPDEST DUP11 PUSH1 0x0 DUP2 MLOAD DUP2 LT ISZERO ISZERO PUSH2 0xDA0 JUMPI INVALID JUMPDEST PUSH1 0x20 SWAP1 DUP2 MUL SWAP2 SWAP1 SWAP2 ADD DUP2 ADD MLOAD PUSH2 0x140 ADD MLOAD PUSH1 0x5 DUP1 SLOAD PUSH1 0x40 DUP1 MLOAD PUSH1 0x2 PUSH1 0x1 DUP5 AND ISZERO PUSH2 0x100 MUL PUSH32 0xFFFFFFFFFFFFFFFFFFFFFFFFFFFFFFFFFFFFFFFFFFFFFFFFFFFFFFFFFFFFFFFF ADD SWAP1 SWAP4 AND SWAP3 SWAP1 SWAP3 DIV PUSH1 0x1F DUP2 ADD DUP7 SWAP1 DIV DUP7 MUL DUP4 ADD DUP7 ADD SWAP1 SWAP2 MSTORE DUP1 DUP3 MSTORE SWAP3 SWAP11 POP SWAP3 SWAP1 SWAP2 SWAP1 DUP4 ADD DUP3 DUP3 DUP1 ISZERO PUSH2 0xE58 JUMPI DUP1 PUSH1 0x1F LT PUSH2 0xE2D JUMPI PUSH2 0x100 DUP1 DUP4 SLOAD DIV MUL DUP4 MSTORE SWAP2 PUSH1 0x20 ADD SWAP2 PUSH2 0xE58 JUMP JUMPDEST DUP3 ADD SWAP2 SWAP1 PUSH1 0x0 MSTORE PUSH1 0x20 PUSH1 0x0 KECCAK256 SWAP1 JUMPDEST DUP2 SLOAD DUP2 MSTORE SWAP1 PUSH1 0x1 ADD SWAP1 PUSH1 0x20 ADD DUP1 DUP4 GT PUSH2 0xE3B JUMPI DUP3 SWAP1 SUB PUSH1 0x1F AND DUP3 ADD SWAP2 JUMPDEST POP POP POP POP POP SWAP6 POP DUP11 MLOAD SWAP5 POP PUSH1 0x0 SWAP4 POP JUMPDEST DUP4 DUP6 EQ PUSH2 0xF4C JUMPI DUP7 DUP12 DUP6 DUP2 MLOAD DUP2 LT ISZERO ISZERO PUSH2 0xE7E JUMPI INVALID JUMPDEST PUSH1 0x20 SWAP1 DUP2 MUL SWAP1 SWAP2 ADD ADD MLOAD PUSH2 0x140 ADD MSTORE DUP11 MLOAD DUP7 SWAP1 DUP13 SWAP1 DUP7 SWAP1 DUP2 LT PUSH2 0xE9D JUMPI INVALID JUMPDEST PUSH1 0x20 SWAP1 DUP2 MUL SWAP1 SWAP2 ADD ADD MLOAD PUSH2 0x160 ADD MSTORE DUP8 MLOAD PUSH2 0xEB9 SWAP1 DUP12 SWAP1 PUSH2 0xD36 JUMP JUMPDEST SWAP3 POP PUSH2 0xEFC DUP12 DUP6 DUP2 MLOAD DUP2 LT ISZERO ISZERO PUSH2 0xECC JUMPI INVALID JUMPDEST SWAP1 PUSH1 0x20 ADD SWAP1 PUSH1 0x20 MUL ADD MLOAD PUSH1 0xA0 ADD MLOAD DUP13 DUP7 DUP2 MLOAD DUP2 LT ISZERO ISZERO PUSH2 0xEE8 JUMPI INVALID JUMPDEST SWAP1 PUSH1 0x20 ADD SWAP1 PUSH1 0x20 MUL ADD MLOAD PUSH1 0x80 ADD MLOAD DUP6 PUSH2 0x1339 JUMP JUMPDEST SWAP2 POP PUSH2 0xF28 DUP12 DUP6 DUP2 MLOAD DUP2 LT ISZERO ISZERO PUSH2 0xF0F JUMPI INVALID JUMPDEST SWAP1 PUSH1 0x20 ADD SWAP1 PUSH1 0x20 MUL ADD MLOAD DUP4 DUP12 DUP8 DUP2 MLOAD DUP2 LT ISZERO ISZERO PUSH2 0xCE1 JUMPI INVALID JUMPDEST SWAP1 POP PUSH2 0xF34 DUP9 DUP3 PUSH2 0x159F JUMP JUMPDEST DUP8 MLOAD DUP11 GT PUSH2 0xF41 JUMPI PUSH2 0xF4C JUMP JUMPDEST PUSH1 0x1 SWAP1 SWAP4 ADD SWAP3 PUSH2 0xE68 JUMP JUMPDEST POP POP POP POP POP POP POP SWAP4 SWAP3 POP POP POP JUMP JUMPDEST PUSH1 0x0 DUP1 PUSH2 0xF6F DUP5 PUSH1 0x0 ADD MLOAD DUP6 PUSH1 0x60 ADD MLOAD PUSH2 0xD36 JUMP JUMPDEST SWAP2 POP DUP3 DUP3 LT ISZERO PUSH2 0xFAB JUMPI PUSH1 0x40 MLOAD PUSH32 0x8C379A000000000000000000000000000000000000000000000000000000000 DUP2 MSTORE PUSH1 0x4 ADD PUSH2 0xC8 SWAP1 PUSH2 0x24F7 JUMP JUMPDEST PUSH2 0xFBD DUP6 PUSH1 0x20 ADD MLOAD DUP6 PUSH1 0x20 ADD MLOAD PUSH2 0x12EF JUMP JUMPDEST SWAP1 POP CALLVALUE DUP2 GT ISZERO PUSH2 0x934 JUMPI PUSH1 0x40 MLOAD PUSH32 0x8C379A000000000000000000000000000000000000000000000000000000000 DUP2 MSTORE PUSH1 0x4 ADD PUSH2 0xC8 SWAP1 PUSH2 0x2497 JUMP JUMPDEST PUSH1 0x0 DUP1 DUP1 PUSH7 0xB1A2BC2EC50000 DUP6 GT ISZERO PUSH2 0x103E JUMPI PUSH1 0x40 MLOAD PUSH32 0x8C379A000000000000000000000000000000000000000000000000000000000 DUP2 MSTORE PUSH1 0x4 ADD PUSH2 0xC8 SWAP1 PUSH2 0x2527 JUMP JUMPDEST PUSH2 0x1051 CALLVALUE PUSH2 0x104C DUP10 DUP10 PUSH2 0x12EF JUMP JUMPDEST PUSH2 0xD36 JUMP JUMPDEST SWAP3 POP PUSH2 0x1066 DUP6 PUSH8 0xDE0B6B3A7640000 DUP10 PUSH2 0x1339 JUMP JUMPDEST SWAP2 POP DUP3 DUP3 GT ISZERO PUSH2 0x10A2 JUMPI PUSH1 0x40 MLOAD PUSH32 0x8C379A000000000000000000000000000000000000000000000000000000000 DUP2 MSTORE PUSH1 0x4 ADD PUSH2 0xC8 SWAP1 PUSH2 0x2507 JUMP JUMPDEST PUSH1 0x0 DUP4 GT ISZERO PUSH2 0x11C5 JUMPI PUSH1 0x2 SLOAD PUSH1 0x40 MLOAD PUSH32 0x2E1A7D4D00000000000000000000000000000000000000000000000000000000 DUP2 MSTORE PUSH20 0xFFFFFFFFFFFFFFFFFFFFFFFFFFFFFFFFFFFFFFFF SWAP1 SWAP2 AND SWAP1 PUSH4 0x2E1A7D4D SWAP1 PUSH2 0x1101 SWAP1 DUP7 SWAP1 PUSH1 0x4 ADD PUSH2 0x2593 JUMP JUMPDEST PUSH1 0x0 PUSH1 0x40 MLOAD DUP1 DUP4 SUB DUP2 PUSH1 0x0 DUP8 DUP1 EXTCODESIZE ISZERO DUP1 ISZERO PUSH2 0x111B JUMPI PUSH1 0x0 DUP1 REVERT JUMPDEST POP GAS CALL ISZERO DUP1 ISZERO PUSH2 0x112F JUMPI RETURNDATASIZE PUSH1 0x0 DUP1 RETURNDATACOPY RETURNDATASIZE PUSH1 0x0 REVERT JUMPDEST POP POP POP POP PUSH1 0x0 DUP3 GT ISZERO PUSH2 0x1181 JUMPI PUSH1 0x40 MLOAD PUSH20 0xFFFFFFFFFFFFFFFFFFFFFFFFFFFFFFFFFFFFFFFF DUP6 AND SWAP1 DUP4 ISZERO PUSH2 0x8FC MUL SWAP1 DUP5 SWAP1 PUSH1 0x0 DUP2 DUP2 DUP2 DUP6 DUP9 DUP9 CALL SWAP4 POP POP POP POP ISZERO DUP1 ISZERO PUSH2 0x117F JUMPI RETURNDATASIZE PUSH1 0x0 DUP1 RETURNDATACOPY RETURNDATASIZE PUSH1 0x0 REVERT JUMPDEST POP JUMPDEST PUSH2 0x118B DUP4 DUP4 PUSH2 0xD36 JUMP JUMPDEST SWAP1 POP PUSH1 0x0 DUP2 GT ISZERO PUSH2 0x11C5 JUMPI PUSH1 0x40 MLOAD CALLER SWAP1 DUP3 ISZERO PUSH2 0x8FC MUL SWAP1 DUP4 SWAP1 PUSH1 0x0 DUP2 DUP2 DUP2 DUP6 DUP9 DUP9 CALL SWAP4 POP POP POP POP ISZERO DUP1 ISZERO PUSH2 0x11C3 JUMPI RETURNDATASIZE PUSH1 0x0 DUP1 RETURNDATACOPY RETURNDATASIZE PUSH1 0x0 REVERT JUMPDEST POP JUMPDEST POP POP POP POP POP POP POP JUMP JUMPDEST PUSH1 0x0 PUSH2 0x11E0 DUP4 DUP3 PUSH4 0xFFFFFFFF PUSH2 0x1601 AND JUMP JUMPDEST PUSH1 0x40 DUP1 MLOAD PUSH32 0x4552433230546F6B656E28616464726573732900000000000000000000000000 DUP2 MSTORE SWAP1 MLOAD SWAP1 DUP2 SWAP1 SUB PUSH1 0x13 ADD SWAP1 KECCAK256 SWAP1 SWAP2 POP PUSH32 0xFFFFFFFF00000000000000000000000000000000000000000000000000000000 DUP1 DUP4 AND SWAP2 AND EQ ISZERO PUSH2 0x1250 JUMPI PUSH2 0x124B DUP4 DUP4 PUSH2 0x166E JUMP JUMPDEST PUSH2 0x12EA JUMP JUMPDEST PUSH1 0x40 DUP1 MLOAD PUSH32 0x455243373231546F6B656E28616464726573732C75696E743235362900000000 DUP2 MSTORE SWAP1 MLOAD SWAP1 DUP2 SWAP1 SUB PUSH1 0x1C ADD SWAP1 KECCAK256 PUSH32 0xFFFFFFFF00000000000000000000000000000000000000000000000000000000 DUP3 DUP2 AND SWAP2 AND EQ ISZERO PUSH2 0x12B8 JUMPI PUSH2 0x124B DUP4 DUP4 PUSH2 0x185C JUMP JUMPDEST PUSH1 0x40 MLOAD PUSH32 0x8C379A000000000000000000000000000000000000000000000000000000000 DUP2 MSTORE PUSH1 0x4 ADD PUSH2 0xC8 SWAP1 PUSH2 0x2547 JUMP JUMPDEST POP POP POP JUMP JUMPDEST PUSH1 0x0 DUP3 DUP3 ADD DUP4 DUP2 LT ISZERO PUSH2 0x132E JUMPI PUSH1 0x40 MLOAD PUSH32 0x8C379A000000000000000000000000000000000000000000000000000000000 DUP2 MSTORE PUSH1 0x4 ADD PUSH2 0xC8 SWAP1 PUSH2 0x24C7 JUMP JUMPDEST DUP1 SWAP2 POP JUMPDEST POP SWAP3 SWAP2 POP POP JUMP JUMPDEST PUSH1 0x0 PUSH2 0x134E PUSH2 0x1348 DUP6 DUP5 PUSH2 0x1944 JUMP JUMPDEST DUP5 PUSH2 0x199F JUMP JUMPDEST SWAP5 SWAP4 POP POP POP POP JUMP JUMPDEST PUSH2 0x135E PUSH2 0x1A69 JUMP JUMPDEST PUSH1 0x60 DUP1 PUSH1 0x0 DUP1 PUSH1 0x0 PUSH2 0x136E PUSH2 0x1A69 JUMP JUMPDEST DUP10 PUSH1 0x0 DUP2 MLOAD DUP2 LT ISZERO ISZERO PUSH2 0x137D JUMPI INVALID JUMPDEST PUSH1 0x20 SWAP1 DUP2 MUL SWAP2 SWAP1 SWAP2 ADD DUP2 ADD MLOAD PUSH2 0x140 ADD MLOAD PUSH1 0x5 DUP1 SLOAD PUSH1 0x40 DUP1 MLOAD PUSH1 0x2 PUSH1 0x1 DUP5 AND ISZERO PUSH2 0x100 MUL PUSH32 0xFFFFFFFFFFFFFFFFFFFFFFFFFFFFFFFFFFFFFFFFFFFFFFFFFFFFFFFFFFFFFFFF ADD SWAP1 SWAP4 AND SWAP3 SWAP1 SWAP3 DIV PUSH1 0x1F DUP2 ADD DUP7 SWAP1 DIV DUP7 MUL DUP4 ADD DUP7 ADD SWAP1 SWAP2 MSTORE DUP1 DUP3 MSTORE SWAP3 SWAP10 POP SWAP3 SWAP1 SWAP2 SWAP1 DUP4 ADD DUP3 DUP3 DUP1 ISZERO PUSH2 0x1435 JUMPI DUP1 PUSH1 0x1F LT PUSH2 0x140A JUMPI PUSH2 0x100 DUP1 DUP4 SLOAD DIV MUL DUP4 MSTORE SWAP2 PUSH1 0x20 ADD SWAP2 PUSH2 0x1435 JUMP JUMPDEST DUP3 ADD SWAP2 SWAP1 PUSH1 0x0 MSTORE PUSH1 0x20 PUSH1 0x0 KECCAK256 SWAP1 JUMPDEST DUP2 SLOAD DUP2 MSTORE SWAP1 PUSH1 0x1 ADD SWAP1 PUSH1 0x20 ADD DUP1 DUP4 GT PUSH2 0x1418 JUMPI DUP3 SWAP1 SUB PUSH1 0x1F AND DUP3 ADD SWAP2 JUMPDEST POP POP POP POP POP SWAP5 POP DUP10 MLOAD SWAP4 POP PUSH1 0x0 SWAP3 POP JUMPDEST DUP3 DUP5 EQ PUSH2 0x14ED JUMPI DUP6 DUP11 DUP5 DUP2 MLOAD DUP2 LT ISZERO ISZERO PUSH2 0x145B JUMPI INVALID JUMPDEST PUSH1 0x20 SWAP1 DUP2 MUL SWAP1 SWAP2 ADD ADD MLOAD PUSH2 0x140 ADD MSTORE DUP10 MLOAD DUP6 SWAP1 DUP12 SWAP1 DUP6 SWAP1 DUP2 LT PUSH2 0x147A JUMPI INVALID JUMPDEST SWAP1 PUSH1 0x20 ADD SWAP1 PUSH1 0x20 MUL ADD MLOAD PUSH2 0x160 ADD DUP2 SWAP1 MSTORE POP PUSH2 0x149A DUP10 DUP9 PUSH1 0x20 ADD MLOAD PUSH2 0xD36 JUMP JUMPDEST SWAP2 POP PUSH2 0x14C6 DUP11 DUP5 DUP2 MLOAD DUP2 LT ISZERO ISZERO PUSH2 0x14AD JUMPI INVALID JUMPDEST SWAP1 PUSH1 0x20 ADD SWAP1 PUSH1 0x20 MUL ADD MLOAD DUP4 DUP11 DUP7 DUP2 MLOAD DUP2 LT ISZERO ISZERO PUSH2 0xCE1 JUMPI INVALID JUMPDEST SWAP1 POP PUSH2 0x14D2 DUP8 DUP3 PUSH2 0x159F JUMP JUMPDEST PUSH1 0x20 DUP8 ADD MLOAD DUP10 GT PUSH2 0x14E2 JUMPI PUSH2 0x14ED JUMP JUMPDEST PUSH1 0x1 SWAP1 SWAP3 ADD SWAP2 PUSH2 0x1445 JUMP JUMPDEST POP POP POP POP POP POP SWAP4 SWAP3 POP POP POP JUMP JUMPDEST PUSH2 0x1502 PUSH2 0x1A69 JUMP JUMPDEST PUSH1 0x60 PUSH1 0x0 PUSH2 0x1511 DUP7 DUP7 DUP7 PUSH2 0x5FA JUMP JUMPDEST PUSH1 0x1 SLOAD DUP2 MLOAD SWAP2 SWAP4 POP PUSH20 0xFFFFFFFFFFFFFFFFFFFFFFFFFFFFFFFFFFFFFFFF AND SWAP2 POP PUSH1 0x80 SWAP1 DUP4 SWAP1 PUSH1 0x20 DUP3 ADD PUSH1 0x0 DUP6 GAS CALL DUP1 DUP1 ISZERO PUSH2 0x1553 JUMPI PUSH1 0x1 DUP2 EQ PUSH2 0x1571 JUMPI PUSH2 0x1594 JUMP JUMPDEST PUSH1 0x0 DUP6 MSTORE PUSH1 0x0 PUSH1 0x20 DUP7 ADD MSTORE PUSH1 0x0 PUSH1 0x40 DUP7 ADD MSTORE PUSH1 0x0 PUSH1 0x60 DUP7 ADD MSTORE PUSH2 0x1594 JUMP JUMPDEST DUP4 MLOAD DUP6 MSTORE PUSH1 0x20 DUP5 ADD MLOAD PUSH1 0x20 DUP7 ADD MSTORE PUSH1 0x40 DUP5 ADD MLOAD PUSH1 0x40 DUP7 ADD MSTORE PUSH1 0x60 DUP5 ADD MLOAD PUSH1 0x60 DUP7 ADD MSTORE JUMPDEST POP POP POP POP SWAP4 SWAP3 POP POP POP JUMP JUMPDEST DUP2 MLOAD DUP2 MLOAD PUSH2 0x15AD SWAP2 SWAP1 PUSH2 0x12EF JUMP JUMPDEST DUP3 MSTORE PUSH1 0x20 DUP1 DUP4 ADD MLOAD SWAP1 DUP3 ADD MLOAD PUSH2 0x15C3 SWAP2 SWAP1 PUSH2 0x12EF JUMP JUMPDEST PUSH1 0x20 DUP4 ADD MSTORE PUSH1 0x40 DUP1 DUP4 ADD MLOAD SWAP1 DUP3 ADD MLOAD PUSH2 0x15DC SWAP2 SWAP1 PUSH2 0x12EF JUMP JUMPDEST PUSH1 0x40 DUP4 ADD MSTORE PUSH1 0x60 DUP1 DUP4 ADD MLOAD SWAP1 DUP3 ADD MLOAD PUSH2 0x15F5 SWAP2 SWAP1 PUSH2 0x12EF JUMP JUMPDEST PUSH1 0x60 SWAP1 SWAP3 ADD SWAP2 SWAP1 SWAP2 MSTORE POP JUMP JUMPDEST PUSH1 0x0 DUP2 PUSH1 0x4 ADD DUP4 MLOAD LT ISZERO ISZERO ISZERO PUSH2 0x1643 JUMPI PUSH1 0x40 MLOAD PUSH32 0x8C379A000000000000000000000000000000000000000000000000000000000 DUP2 MSTORE PUSH1 0x4 ADD PUSH2 0xC8 SWAP1 PUSH2 0x2557 JUMP JUMPDEST POP POP PUSH1 0x20 ADD MLOAD PUSH32 0xFFFFFFFF00000000000000000000000000000000000000000000000000000000 AND SWAP1 JUMP JUMPDEST PUSH1 0x0 DUP1 PUSH2 0x1682 DUP5 PUSH1 0x10 PUSH4 0xFFFFFFFF PUSH2 0x19B6 AND JUMP JUMPDEST PUSH1 0x40 DUP1 MLOAD PUSH32 0x7472616E7366657228616464726573732C75696E743235362900000000000000 DUP2 MSTORE SWAP1 MLOAD SWAP1 DUP2 SWAP1 SUB PUSH1 0x19 ADD DUP2 KECCAK256 SWAP2 SWAP4 POP PUSH20 0xFFFFFFFFFFFFFFFFFFFFFFFFFFFFFFFFFFFFFFFF DUP5 AND SWAP2 SWAP1 PUSH2 0x16E0 SWAP1 CALLER SWAP1 DUP8 SWAP1 PUSH1 0x24 ADD PUSH2 0x244B JUMP JUMPDEST PUSH1 0x40 DUP1 MLOAD PUSH32 0xFFFFFFFFFFFFFFFFFFFFFFFFFFFFFFFFFFFFFFFFFFFFFFFFFFFFFFFFFFFFFFE0 DUP2 DUP5 SUB ADD DUP2 MSTORE SWAP2 DUP2 MSTORE PUSH1 0x20 DUP3 ADD DUP1 MLOAD PUSH28 0xFFFFFFFFFFFFFFFFFFFFFFFFFFFFFFFFFFFFFFFFFFFFFFFFFFFFFFFF AND PUSH32 0xFFFFFFFF00000000000000000000000000000000000000000000000000000000 SWAP1 SWAP5 AND SWAP4 SWAP1 SWAP4 OR DUP4 MSTORE MLOAD DUP2 MLOAD SWAP2 SWAP3 SWAP1 SWAP2 DUP3 SWAP2 SWAP1 DUP1 DUP4 DUP4 PUSH1 0x0 JUMPDEST DUP4 DUP2 LT ISZERO PUSH2 0x1784 JUMPI DUP2 DUP2 ADD MLOAD DUP4 DUP3 ADD MSTORE PUSH1 0x20 ADD PUSH2 0x176C JUMP JUMPDEST POP POP POP POP SWAP1 POP SWAP1 DUP2 ADD SWAP1 PUSH1 0x1F AND DUP1 ISZERO PUSH2 0x17B1 JUMPI DUP1 DUP3 SUB DUP1 MLOAD PUSH1 0x1 DUP4 PUSH1 0x20 SUB PUSH2 0x100 EXP SUB NOT AND DUP2 MSTORE PUSH1 0x20 ADD SWAP2 POP JUMPDEST POP SWAP2 POP POP PUSH1 0x0 PUSH1 0x40 MLOAD DUP1 DUP4 SUB DUP2 PUSH1 0x0 DUP7 GAS CALL SWAP3 POP POP POP DUP1 ISZERO ISZERO PUSH2 0x1800 JUMPI PUSH1 0x40 MLOAD PUSH32 0x8C379A000000000000000000000000000000000000000000000000000000000 DUP2 MSTORE PUSH1 0x4 ADD PUSH2 0xC8 SWAP1 PUSH2 0x24D7 JUMP JUMPDEST RETURNDATASIZE ISZERO PUSH2 0x181D JUMPI POP PUSH1 0x0 RETURNDATASIZE PUSH1 0x20 EQ ISZERO PUSH2 0x181D JUMPI PUSH1 0x20 PUSH1 0x0 DUP1 RETURNDATACOPY POP PUSH1 0x0 MLOAD JUMPDEST DUP1 ISZERO ISZERO PUSH2 0x1856 JUMPI PUSH1 0x40 MLOAD PUSH32 0x8C379A000000000000000000000000000000000000000000000000000000000 DUP2 MSTORE PUSH1 0x4 ADD PUSH2 0xC8 SWAP1 PUSH2 0x24D7 JUMP JUMPDEST POP POP POP POP JUMP JUMPDEST PUSH1 0x0 DUP1 PUSH1 0x1 DUP4 EQ PUSH2 0x1899 JUMPI PUSH1 0x40 MLOAD PUSH32 0x8C379A000000000000000000000000000000000000000000000000000000000 DUP2 MSTORE PUSH1 0x4 ADD PUSH2 0xC8 SWAP1 PUSH2 0x2567 JUMP JUMPDEST PUSH2 0x18AA DUP5 PUSH1 0x10 PUSH4 0xFFFFFFFF PUSH2 0x19B6 AND JUMP JUMPDEST SWAP2 POP PUSH2 0x18BD DUP5 PUSH1 0x24 PUSH4 0xFFFFFFFF PUSH2 0x1A17 AND JUMP JUMPDEST PUSH1 0x40 MLOAD PUSH32 0x23B872DD00000000000000000000000000000000000000000000000000000000 DUP2 MSTORE SWAP1 SWAP2 POP PUSH20 0xFFFFFFFFFFFFFFFFFFFFFFFFFFFFFFFFFFFFFFFF DUP4 AND SWAP1 PUSH4 0x23B872DD SWAP1 PUSH2 0x1916 SWAP1 ADDRESS SWAP1 CALLER SWAP1 DUP7 SWAP1 PUSH1 0x4 ADD PUSH2 0x2423 JUMP JUMPDEST PUSH1 0x0 PUSH1 0x40 MLOAD DUP1 DUP4 SUB DUP2 PUSH1 0x0 DUP8 DUP1 EXTCODESIZE ISZERO DUP1 ISZERO PUSH2 0x1930 JUMPI PUSH1 0x0 DUP1 REVERT JUMPDEST POP GAS CALL ISZERO DUP1 ISZERO PUSH2 0x11C3 JUMPI RETURNDATASIZE PUSH1 0x0 DUP1 RETURNDATACOPY RETURNDATASIZE PUSH1 0x0 REVERT JUMPDEST PUSH1 0x0 DUP1 DUP4 ISZERO ISZERO PUSH2 0x1957 JUMPI PUSH1 0x0 SWAP2 POP PUSH2 0x1332 JUMP JUMPDEST POP DUP3 DUP3 MUL DUP3 DUP5 DUP3 DUP2 ISZERO ISZERO PUSH2 0x1967 JUMPI INVALID JUMPDEST DIV EQ PUSH2 0x132E JUMPI PUSH1 0x40 MLOAD PUSH32 0x8C379A000000000000000000000000000000000000000000000000000000000 DUP2 MSTORE PUSH1 0x4 ADD PUSH2 0xC8 SWAP1 PUSH2 0x24C7 JUMP JUMPDEST PUSH1 0x0 DUP1 DUP3 DUP5 DUP2 ISZERO ISZERO PUSH2 0x19AD JUMPI INVALID JUMPDEST DIV SWAP5 SWAP4 POP POP POP POP JUMP JUMPDEST PUSH1 0x0 DUP2 PUSH1 0x14 ADD DUP4 MLOAD LT ISZERO ISZERO ISZERO PUSH2 0x19F8 JUMPI PUSH1 0x40 MLOAD PUSH32 0x8C379A000000000000000000000000000000000000000000000000000000000 DUP2 MSTORE PUSH1 0x4 ADD PUSH2 0xC8 SWAP1 PUSH2 0x2537 JUMP JUMPDEST POP ADD PUSH1 0x14 ADD MLOAD PUSH20 0xFFFFFFFFFFFFFFFFFFFFFFFFFFFFFFFFFFFFFFFF AND SWAP1 JUMP JUMPDEST PUSH1 0x0 PUSH2 0xA5F DUP4 DUP4 PUSH1 0x0 DUP2 PUSH1 0x20 ADD DUP4 MLOAD LT ISZERO ISZERO ISZERO PUSH2 0x1A60 JUMPI PUSH1 0x40 MLOAD PUSH32 0x8C379A000000000000000000000000000000000000000000000000000000000 DUP2 MSTORE PUSH1 0x4 ADD PUSH2 0xC8 SWAP1 PUSH2 0x24B7 JUMP JUMPDEST POP ADD PUSH1 0x20 ADD MLOAD SWAP1 JUMP JUMPDEST PUSH1 0x80 PUSH1 0x40 MLOAD SWAP1 DUP2 ADD PUSH1 0x40 MSTORE DUP1 PUSH1 0x0 DUP2 MSTORE PUSH1 0x20 ADD PUSH1 0x0 DUP2 MSTORE PUSH1 0x20 ADD PUSH1 0x0 DUP2 MSTORE PUSH1 0x20 ADD PUSH1 0x0 DUP2 MSTORE POP SWAP1 JUMP JUMPDEST PUSH1 0x0 PUSH2 0xA5F DUP3 CALLDATALOAD PUSH2 0x2633 JUMP JUMPDEST PUSH1 0x0 PUSH1 0x1F DUP3 ADD DUP4 SGT PUSH2 0x1AAF JUMPI PUSH1 0x0 DUP1 REVERT JUMPDEST DUP2 CALLDATALOAD PUSH2 0x1AC2 PUSH2 0x1ABD DUP3 PUSH2 0x25C8 JUMP JUMPDEST PUSH2 0x25A1 JUMP JUMPDEST DUP2 DUP2 MSTORE PUSH1 0x20 SWAP4 DUP5 ADD SWAP4 SWAP1 SWAP3 POP DUP3 ADD DUP4 PUSH1 0x0 JUMPDEST DUP4 DUP2 LT ISZERO PUSH2 0x1B00 JUMPI DUP2 CALLDATALOAD DUP7 ADD PUSH2 0x1AEA DUP9 DUP3 PUSH2 0x1B73 JUMP JUMPDEST DUP5 MSTORE POP PUSH1 0x20 SWAP3 DUP4 ADD SWAP3 SWAP2 SWAP1 SWAP2 ADD SWAP1 PUSH1 0x1 ADD PUSH2 0x1AD4 JUMP JUMPDEST POP POP POP POP SWAP3 SWAP2 POP POP JUMP JUMPDEST PUSH1 0x0 PUSH1 0x1F DUP3 ADD DUP4 SGT PUSH2 0x1B1B JUMPI PUSH1 0x0 DUP1 REVERT JUMPDEST DUP2 CALLDATALOAD PUSH2 0x1B29 PUSH2 0x1ABD DUP3 PUSH2 0x25C8 JUMP JUMPDEST DUP2 DUP2 MSTORE PUSH1 0x20 SWAP4 DUP5 ADD SWAP4 SWAP1 SWAP3 POP DUP3 ADD DUP4 PUSH1 0x0 JUMPDEST DUP4 DUP2 LT ISZERO PUSH2 0x1B00 JUMPI DUP2 CALLDATALOAD DUP7 ADD PUSH2 0x1B51 DUP9 DUP3 PUSH2 0x1BC2 JUMP JUMPDEST DUP5 MSTORE POP PUSH1 0x20 SWAP3 DUP4 ADD SWAP3 SWAP2 SWAP1 SWAP2 ADD SWAP1 PUSH1 0x1 ADD PUSH2 0x1B3B JUMP JUMPDEST PUSH1 0x0 PUSH2 0xA5F DUP3 MLOAD PUSH2 0x264F JUMP JUMPDEST PUSH1 0x0 PUSH1 0x1F DUP3 ADD DUP4 SGT PUSH2 0x1B84 JUMPI PUSH1 0x0 DUP1 REVERT JUMPDEST DUP2 CALLDATALOAD PUSH2 0x1B92 PUSH2 0x1ABD DUP3 PUSH2 0x25E9 JUMP JUMPDEST SWAP2 POP DUP1 DUP3 MSTORE PUSH1 0x20 DUP4 ADD PUSH1 0x20 DUP4 ADD DUP6 DUP4 DUP4 ADD GT ISZERO PUSH2 0x1BAE JUMPI PUSH1 0x0 DUP1 REVERT JUMPDEST PUSH2 0x1BB9 DUP4 DUP3 DUP5 PUSH2 0x2654 JUMP JUMPDEST POP POP POP SWAP3 SWAP2 POP POP JUMP JUMPDEST PUSH1 0x0 PUSH2 0x180 DUP3 DUP5 SUB SLT ISZERO PUSH2 0x1BD5 JUMPI PUSH1 0x0 DUP1 REVERT JUMPDEST PUSH2 0x1BE0 PUSH2 0x180 PUSH2 0x25A1 JUMP JUMPDEST SWAP1 POP PUSH1 0x0 PUSH2 0x1BEE DUP5 DUP5 PUSH2 0x1A92 JUMP JUMPDEST DUP3 MSTORE POP PUSH1 0x20 PUSH2 0x1BFF DUP5 DUP5 DUP4 ADD PUSH2 0x1A92 JUMP JUMPDEST PUSH1 0x20 DUP4 ADD MSTORE POP PUSH1 0x40 PUSH2 0x1C13 DUP5 DUP3 DUP6 ADD PUSH2 0x1A92 JUMP JUMPDEST PUSH1 0x40 DUP4 ADD MSTORE POP PUSH1 0x60 PUSH2 0x1C27 DUP5 DUP3 DUP6 ADD PUSH2 0x1A92 JUMP JUMPDEST PUSH1 0x60 DUP4 ADD MSTORE POP PUSH1 0x80 PUSH2 0x1C3B DUP5 DUP3 DUP6 ADD PUSH2 0x1D0B JUMP JUMPDEST PUSH1 0x80 DUP4 ADD MSTORE POP PUSH1 0xA0 PUSH2 0x1C4F DUP5 DUP3 DUP6 ADD PUSH2 0x1D0B JUMP JUMPDEST PUSH1 0xA0 DUP4 ADD MSTORE POP PUSH1 0xC0 PUSH2 0x1C63 DUP5 DUP3 DUP6 ADD PUSH2 0x1D0B JUMP JUMPDEST PUSH1 0xC0 DUP4 ADD MSTORE POP PUSH1 0xE0 PUSH2 0x1C77 DUP5 DUP3 DUP6 ADD PUSH2 0x1D0B JUMP JUMPDEST PUSH1 0xE0 DUP4 ADD MSTORE POP PUSH2 0x100 PUSH2 0x1C8C DUP5 DUP3 DUP6 ADD PUSH2 0x1D0B JUMP JUMPDEST PUSH2 0x100 DUP4 ADD MSTORE POP PUSH2 0x120 PUSH2 0x1CA2 DUP5 DUP3 DUP6 ADD PUSH2 0x1D0B JUMP JUMPDEST PUSH2 0x120 DUP4 ADD MSTORE POP PUSH2 0x140 DUP3 ADD CALLDATALOAD PUSH8 0xFFFFFFFFFFFFFFFF DUP2 GT ISZERO PUSH2 0x1CC4 JUMPI PUSH1 0x0 DUP1 REVERT JUMPDEST PUSH2 0x1CD0 DUP5 DUP3 DUP6 ADD PUSH2 0x1B73 JUMP JUMPDEST PUSH2 0x140 DUP4 ADD MSTORE POP PUSH2 0x160 DUP3 ADD CALLDATALOAD PUSH8 0xFFFFFFFFFFFFFFFF DUP2 GT ISZERO PUSH2 0x1CF2 JUMPI PUSH1 0x0 DUP1 REVERT JUMPDEST PUSH2 0x1CFE DUP5 DUP3 DUP6 ADD PUSH2 0x1B73 JUMP JUMPDEST PUSH2 0x160 DUP4 ADD MSTORE POP SWAP3 SWAP2 POP POP JUMP JUMPDEST PUSH1 0x0 PUSH2 0xA5F DUP3 CALLDATALOAD PUSH2 0x264C JUMP JUMPDEST PUSH1 0x0 PUSH1 0x20 DUP3 DUP5 SUB SLT ISZERO PUSH2 0x1D29 JUMPI PUSH1 0x0 DUP1 REVERT JUMPDEST PUSH1 0x0 PUSH2 0x134E DUP5 DUP5 PUSH2 0x1A92 JUMP JUMPDEST PUSH1 0x0 DUP1 PUSH1 0x40 DUP4 DUP6 SUB SLT ISZERO PUSH2 0x1D48 JUMPI PUSH1 0x0 DUP1 REVERT JUMPDEST PUSH1 0x0 PUSH2 0x1D54 DUP6 DUP6 PUSH2 0x1A92 JUMP JUMPDEST SWAP3 POP POP PUSH1 0x20 PUSH2 0x1D65 DUP6 DUP3 DUP7 ADD PUSH2 0x1D0B JUMP JUMPDEST SWAP2 POP POP SWAP3 POP SWAP3 SWAP1 POP JUMP JUMPDEST PUSH1 0x0 DUP1 PUSH1 0x0 DUP1 PUSH1 0x0 DUP1 PUSH1 0xC0 DUP8 DUP10 SUB SLT ISZERO PUSH2 0x1D88 JUMPI PUSH1 0x0 DUP1 REVERT JUMPDEST DUP7 CALLDATALOAD PUSH8 0xFFFFFFFFFFFFFFFF DUP2 GT ISZERO PUSH2 0x1D9F JUMPI PUSH1 0x0 DUP1 REVERT JUMPDEST PUSH2 0x1DAB DUP10 DUP3 DUP11 ADD PUSH2 0x1B0A JUMP JUMPDEST SWAP7 POP POP PUSH1 0x20 DUP8 ADD CALLDATALOAD PUSH8 0xFFFFFFFFFFFFFFFF DUP2 GT ISZERO PUSH2 0x1DC8 JUMPI PUSH1 0x0 DUP1 REVERT JUMPDEST PUSH2 0x1DD4 DUP10 DUP3 DUP11 ADD PUSH2 0x1A9E JUMP JUMPDEST SWAP6 POP POP PUSH1 0x40 DUP8 ADD CALLDATALOAD PUSH8 0xFFFFFFFFFFFFFFFF DUP2 GT ISZERO PUSH2 0x1DF1 JUMPI PUSH1 0x0 DUP1 REVERT JUMPDEST PUSH2 0x1DFD DUP10 DUP3 DUP11 ADD PUSH2 0x1B0A JUMP JUMPDEST SWAP5 POP POP PUSH1 0x60 DUP8 ADD CALLDATALOAD PUSH8 0xFFFFFFFFFFFFFFFF DUP2 GT ISZERO PUSH2 0x1E1A JUMPI PUSH1 0x0 DUP1 REVERT JUMPDEST PUSH2 0x1E26 DUP10 DUP3 DUP11 ADD PUSH2 0x1A9E JUMP JUMPDEST SWAP4 POP POP PUSH1 0x80 PUSH2 0x1E37 DUP10 DUP3 DUP11 ADD PUSH2 0x1D0B JUMP JUMPDEST SWAP3 POP POP PUSH1 0xA0 PUSH2 0x1E48 DUP10 DUP3 DUP11 ADD PUSH2 0x1A92 JUMP JUMPDEST SWAP2 POP POP SWAP3 SWAP6 POP SWAP3 SWAP6 POP SWAP3 SWAP6 JUMP JUMPDEST PUSH1 0x0 DUP1 PUSH1 0x0 DUP1 PUSH1 0x0 DUP1 PUSH1 0x0 PUSH1 0xE0 DUP9 DUP11 SUB SLT ISZERO PUSH2 0x1E70 JUMPI PUSH1 0x0 DUP1 REVERT JUMPDEST DUP8 CALLDATALOAD PUSH8 0xFFFFFFFFFFFFFFFF DUP2 GT ISZERO PUSH2 0x1E87 JUMPI PUSH1 0x0 DUP1 REVERT JUMPDEST PUSH2 0x1E93 DUP11 DUP3 DUP12 ADD PUSH2 0x1B0A JUMP JUMPDEST SWAP8 POP POP PUSH1 0x20 PUSH2 0x1EA4 DUP11 DUP3 DUP12 ADD PUSH2 0x1D0B JUMP JUMPDEST SWAP7 POP POP PUSH1 0x40 DUP9 ADD CALLDATALOAD PUSH8 0xFFFFFFFFFFFFFFFF DUP2 GT ISZERO PUSH2 0x1EC1 JUMPI PUSH1 0x0 DUP1 REVERT JUMPDEST PUSH2 0x1ECD DUP11 DUP3 DUP12 ADD PUSH2 0x1A9E JUMP JUMPDEST SWAP6 POP POP PUSH1 0x60 DUP9 ADD CALLDATALOAD PUSH8 0xFFFFFFFFFFFFFFFF DUP2 GT ISZERO PUSH2 0x1EEA JUMPI PUSH1 0x0 DUP1 REVERT JUMPDEST PUSH2 0x1EF6 DUP11 DUP3 DUP12 ADD PUSH2 0x1B0A JUMP JUMPDEST SWAP5 POP POP PUSH1 0x80 DUP9 ADD CALLDATALOAD PUSH8 0xFFFFFFFFFFFFFFFF DUP2 GT ISZERO PUSH2 0x1F13 JUMPI PUSH1 0x0 DUP1 REVERT JUMPDEST PUSH2 0x1F1F DUP11 DUP3 DUP12 ADD PUSH2 0x1A9E JUMP JUMPDEST SWAP4 POP POP PUSH1 0xA0 PUSH2 0x1F30 DUP11 DUP3 DUP12 ADD PUSH2 0x1D0B JUMP JUMPDEST SWAP3 POP POP PUSH1 0xC0 PUSH2 0x1F41 DUP11 DUP3 DUP12 ADD PUSH2 0x1A92 JUMP JUMPDEST SWAP2 POP POP SWAP3 SWAP6 SWAP9 SWAP2 SWAP5 SWAP8 POP SWAP3 SWAP6 POP JUMP JUMPDEST PUSH1 0x0 PUSH1 0x20 DUP3 DUP5 SUB SLT ISZERO PUSH2 0x1F62 JUMPI PUSH1 0x0 DUP1 REVERT JUMPDEST PUSH1 0x0 PUSH2 0x134E DUP5 DUP5 PUSH2 0x1B67 JUMP JUMPDEST PUSH1 0x0 DUP1 PUSH1 0x0 PUSH1 0x60 DUP5 DUP7 SUB SLT ISZERO PUSH2 0x1F83 JUMPI PUSH1 0x0 DUP1 REVERT JUMPDEST DUP4 CALLDATALOAD PUSH8 0xFFFFFFFFFFFFFFFF DUP2 GT ISZERO PUSH2 0x1F9A JUMPI PUSH1 0x0 DUP1 REVERT JUMPDEST PUSH2 0x1FA6 DUP7 DUP3 DUP8 ADD PUSH2 0x1BC2 JUMP JUMPDEST SWAP4 POP POP PUSH1 0x20 PUSH2 0x1FB7 DUP7 DUP3 DUP8 ADD PUSH2 0x1D0B JUMP JUMPDEST SWAP3 POP POP PUSH1 0x40 DUP5 ADD CALLDATALOAD PUSH8 0xFFFFFFFFFFFFFFFF DUP2 GT ISZERO PUSH2 0x1FD4 JUMPI PUSH1 0x0 DUP1 REVERT JUMPDEST PUSH2 0x1FE0 DUP7 DUP3 DUP8 ADD PUSH2 0x1B73 JUMP JUMPDEST SWAP2 POP POP SWAP3 POP SWAP3 POP SWAP3 JUMP JUMPDEST PUSH2 0x1FF3 DUP2 PUSH2 0x2633 JUMP JUMPDEST DUP3 MSTORE POP POP JUMP JUMPDEST PUSH1 0x0 PUSH2 0x2004 DUP3 PUSH2 0x262F JUMP JUMPDEST DUP1 DUP5 MSTORE PUSH2 0x2018 DUP2 PUSH1 0x20 DUP7 ADD PUSH1 0x20 DUP7 ADD PUSH2 0x2660 JUMP JUMPDEST PUSH2 0x2021 DUP2 PUSH2 0x268C JUMP JUMPDEST SWAP1 SWAP4 ADD PUSH1 0x20 ADD SWAP4 SWAP3 POP POP POP JUMP JUMPDEST PUSH1 0x23 DUP2 MSTORE PUSH32 0x44454641554C545F46554E4354494F4E5F574554485F434F4E54524143545F4F PUSH1 0x20 DUP3 ADD MSTORE PUSH32 0x4E4C590000000000000000000000000000000000000000000000000000000000 PUSH1 0x40 DUP3 ADD MSTORE PUSH1 0x60 ADD SWAP1 JUMP JUMPDEST PUSH1 0x11 DUP2 MSTORE PUSH32 0x494E56414C49445F4D53475F56414C5545000000000000000000000000000000 PUSH1 0x20 DUP3 ADD MSTORE PUSH1 0x40 ADD SWAP1 JUMP JUMPDEST PUSH1 0xD DUP2 MSTORE PUSH32 0x4F564552534F4C445F5745544800000000000000000000000000000000000000 PUSH1 0x20 DUP3 ADD MSTORE PUSH1 0x40 ADD SWAP1 JUMP JUMPDEST PUSH1 0x11 DUP2 MSTORE PUSH32 0x55494E543235365F554E444552464C4F57000000000000000000000000000000 PUSH1 0x20 DUP3 ADD MSTORE PUSH1 0x40 ADD SWAP1 JUMP JUMPDEST PUSH1 0x26 DUP2 MSTORE PUSH32 0x475245415445525F4F525F455155414C5F544F5F33325F4C454E4754485F5245 PUSH1 0x20 DUP3 ADD MSTORE PUSH32 0x5155495245440000000000000000000000000000000000000000000000000000 PUSH1 0x40 DUP3 ADD MSTORE PUSH1 0x60 ADD SWAP1 JUMP JUMPDEST PUSH1 0x10 DUP2 MSTORE PUSH32 0x55494E543235365F4F564552464C4F5700000000000000000000000000000000 PUSH1 0x20 DUP3 ADD MSTORE PUSH1 0x40 ADD SWAP1 JUMP JUMPDEST PUSH1 0xF DUP2 MSTORE PUSH32 0x5452414E534645525F4641494C45440000000000000000000000000000000000 PUSH1 0x20 DUP3 ADD MSTORE PUSH1 0x40 ADD SWAP1 JUMP JUMPDEST PUSH1 0x11 DUP2 MSTORE PUSH32 0x5749544844524157414C5F4641494C4544000000000000000000000000000000 PUSH1 0x20 DUP3 ADD MSTORE PUSH1 0x40 ADD SWAP1 JUMP JUMPDEST PUSH1 0x14 DUP2 MSTORE PUSH32 0x434F4D504C4554455F46494C4C5F4641494C4544000000000000000000000000 PUSH1 0x20 DUP3 ADD MSTORE PUSH1 0x40 ADD SWAP1 JUMP JUMPDEST PUSH1 0x1A DUP2 MSTORE PUSH32 0x494E53554646494349454E545F4554485F52454D41494E494E47000000000000 PUSH1 0x20 DUP3 ADD MSTORE PUSH1 0x40 ADD SWAP1 JUMP JUMPDEST PUSH1 0x13 DUP2 MSTORE PUSH32 0x4F4E4C595F434F4E54524143545F4F574E455200000000000000000000000000 PUSH1 0x20 DUP3 ADD MSTORE PUSH1 0x40 ADD SWAP1 JUMP JUMPDEST PUSH1 0x18 DUP2 MSTORE PUSH32 0x4645455F50455243454E544147455F544F4F5F4C415247450000000000000000 PUSH1 0x20 DUP3 ADD MSTORE PUSH1 0x40 ADD SWAP1 JUMP JUMPDEST PUSH1 0x26 DUP2 MSTORE PUSH32 0x475245415445525F4F525F455155414C5F544F5F32305F4C454E4754485F5245 PUSH1 0x20 DUP3 ADD MSTORE PUSH32 0x5155495245440000000000000000000000000000000000000000000000000000 PUSH1 0x40 DUP3 ADD MSTORE PUSH1 0x60 ADD SWAP1 JUMP JUMPDEST PUSH1 0x17 DUP2 MSTORE PUSH32 0x554E535550504F525445445F544F4B454E5F50524F5859000000000000000000 PUSH1 0x20 DUP3 ADD MSTORE PUSH1 0x40 ADD SWAP1 JUMP JUMPDEST PUSH1 0x25 DUP2 MSTORE PUSH32 0x475245415445525F4F525F455155414C5F544F5F345F4C454E4754485F524551 PUSH1 0x20 DUP3 ADD MSTORE PUSH32 0x5549524544000000000000000000000000000000000000000000000000000000 PUSH1 0x40 DUP3 ADD MSTORE PUSH1 0x60 ADD SWAP1 JUMP JUMPDEST PUSH1 0xE DUP2 MSTORE PUSH32 0x494E56414C49445F414D4F554E54000000000000000000000000000000000000 PUSH1 0x20 DUP3 ADD MSTORE PUSH1 0x40 ADD SWAP1 JUMP JUMPDEST DUP1 MLOAD PUSH1 0x80 DUP4 ADD SWAP1 PUSH2 0x23D7 DUP5 DUP3 PUSH2 0x240C JUMP JUMPDEST POP PUSH1 0x20 DUP3 ADD MLOAD PUSH2 0x23EA PUSH1 0x20 DUP6 ADD DUP3 PUSH2 0x240C JUMP JUMPDEST POP PUSH1 0x40 DUP3 ADD MLOAD PUSH2 0x23FD PUSH1 0x40 DUP6 ADD DUP3 PUSH2 0x240C JUMP JUMPDEST POP PUSH1 0x60 DUP3 ADD MLOAD PUSH2 0x1856 PUSH1 0x60 DUP6 ADD DUP3 JUMPDEST PUSH2 0x1FF3 DUP2 PUSH2 0x264C JUMP JUMPDEST PUSH1 0x20 DUP2 ADD PUSH2 0xA62 DUP3 DUP5 PUSH2 0x1FEA JUMP JUMPDEST PUSH1 0x60 DUP2 ADD PUSH2 0x2431 DUP3 DUP7 PUSH2 0x1FEA JUMP JUMPDEST PUSH2 0x243E PUSH1 0x20 DUP4 ADD DUP6 PUSH2 0x1FEA JUMP JUMPDEST PUSH2 0x134E PUSH1 0x40 DUP4 ADD DUP5 PUSH2 0x240C JUMP JUMPDEST PUSH1 0x40 DUP2 ADD PUSH2 0x2459 DUP3 DUP6 PUSH2 0x1FEA JUMP JUMPDEST PUSH2 0x7A8 PUSH1 0x20 DUP4 ADD DUP5 PUSH2 0x240C JUMP JUMPDEST PUSH1 0x20 DUP1 DUP3 MSTORE DUP2 ADD PUSH2 0xA5F DUP2 DUP5 PUSH2 0x1FF9 JUMP JUMPDEST PUSH1 0x20 DUP1 DUP3 MSTORE DUP2 ADD PUSH2 0xA62 DUP2 PUSH2 0x202E JUMP JUMPDEST PUSH1 0x20 DUP1 DUP3 MSTORE DUP2 ADD PUSH2 0xA62 DUP2 PUSH2 0x2084 JUMP JUMPDEST PUSH1 0x20 DUP1 DUP3 MSTORE DUP2 ADD PUSH2 0xA62 DUP2 PUSH2 0x20B4 JUMP JUMPDEST PUSH1 0x20 DUP1 DUP3 MSTORE DUP2 ADD PUSH2 0xA62 DUP2 PUSH2 0x20E4 JUMP JUMPDEST PUSH1 0x20 DUP1 DUP3 MSTORE DUP2 ADD PUSH2 0xA62 DUP2 PUSH2 0x2114 JUMP JUMPDEST PUSH1 0x20 DUP1 DUP3 MSTORE DUP2 ADD PUSH2 0xA62 DUP2 PUSH2 0x216A JUMP JUMPDEST PUSH1 0x20 DUP1 DUP3 MSTORE DUP2 ADD PUSH2 0xA62 DUP2 PUSH2 0x219A JUMP JUMPDEST PUSH1 0x20 DUP1 DUP3 MSTORE DUP2 ADD PUSH2 0xA62 DUP2 PUSH2 0x21CA JUMP JUMPDEST PUSH1 0x20 DUP1 DUP3 MSTORE DUP2 ADD PUSH2 0xA62 DUP2 PUSH2 0x21FA JUMP JUMPDEST PUSH1 0x20 DUP1 DUP3 MSTORE DUP2 ADD PUSH2 0xA62 DUP2 PUSH2 0x222A JUMP JUMPDEST PUSH1 0x20 DUP1 DUP3 MSTORE DUP2 ADD PUSH2 0xA62 DUP2 PUSH2 0x225A JUMP JUMPDEST PUSH1 0x20 DUP1 DUP3 MSTORE DUP2 ADD PUSH2 0xA62 DUP2 PUSH2 0x228A JUMP JUMPDEST PUSH1 0x20 DUP1 DUP3 MSTORE DUP2 ADD PUSH2 0xA62 DUP2 PUSH2 0x22BA JUMP JUMPDEST PUSH1 0x20 DUP1 DUP3 MSTORE DUP2 ADD PUSH2 0xA62 DUP2 PUSH2 0x2310 JUMP JUMPDEST PUSH1 0x20 DUP1 DUP3 MSTORE DUP2 ADD PUSH2 0xA62 DUP2 PUSH2 0x2340 JUMP JUMPDEST PUSH1 0x20 DUP1 DUP3 MSTORE DUP2 ADD PUSH2 0xA62 DUP2 PUSH2 0x2396 JUMP JUMPDEST PUSH2 0x100 DUP2 ADD PUSH2 0x2586 DUP3 DUP6 PUSH2 0x23C6 JUMP JUMPDEST PUSH2 0x7A8 PUSH1 0x80 DUP4 ADD DUP5 PUSH2 0x23C6 JUMP JUMPDEST PUSH1 0x20 DUP2 ADD PUSH2 0xA62 DUP3 DUP5 PUSH2 0x240C JUMP JUMPDEST PUSH1 0x40 MLOAD DUP2 DUP2 ADD PUSH8 0xFFFFFFFFFFFFFFFF DUP2 GT DUP3 DUP3 LT OR ISZERO PUSH2 0x25C0 JUMPI PUSH1 0x0 DUP1 REVERT JUMPDEST PUSH1 0x40 MSTORE SWAP2 SWAP1 POP JUMP JUMPDEST PUSH1 0x0 PUSH8 0xFFFFFFFFFFFFFFFF DUP3 GT ISZERO PUSH2 0x25DF JUMPI PUSH1 0x0 DUP1 REVERT JUMPDEST POP PUSH1 0x20 SWAP1 DUP2 MUL ADD SWAP1 JUMP JUMPDEST PUSH1 0x0 PUSH8 0xFFFFFFFFFFFFFFFF DUP3 GT ISZERO PUSH2 0x2600 JUMPI PUSH1 0x0 DUP1 REVERT JUMPDEST POP PUSH1 0x20 PUSH1 0x1F SWAP2 SWAP1 SWAP2 ADD PUSH32 0xFFFFFFFFFFFFFFFFFFFFFFFFFFFFFFFFFFFFFFFFFFFFFFFFFFFFFFFFFFFFFFE0 AND ADD SWAP1 JUMP JUMPDEST MLOAD SWAP1 JUMP JUMPDEST PUSH20 0xFFFFFFFFFFFFFFFFFFFFFFFFFFFFFFFFFFFFFFFF AND SWAP1 JUMP JUMPDEST SWAP1 JUMP JUMPDEST ISZERO ISZERO SWAP1 JUMP JUMPDEST DUP3 DUP2 DUP4 CALLDATACOPY POP PUSH1 0x0 SWAP2 ADD MSTORE JUMP JUMPDEST PUSH1 0x0 JUMPDEST DUP4 DUP2 LT ISZERO PUSH2 0x267B JUMPI DUP2 DUP2 ADD MLOAD DUP4 DUP3 ADD MSTORE PUSH1 0x20 ADD PUSH2 0x2663 JUMP JUMPDEST DUP4 DUP2 GT ISZERO PUSH2 0x1856 JUMPI POP POP PUSH1 0x0 SWAP2 ADD MSTORE JUMP JUMPDEST PUSH1 0x1F ADD PUSH32 0xFFFFFFFFFFFFFFFFFFFFFFFFFFFFFFFFFFFFFFFFFFFFFFFFFFFFFFFFFFFFFFE0 AND SWAP1 JUMP STOP LOG2 PUSH6 0x627A7A723058 KECCAK256 LT EQ BLOCKHASH EXTCODESIZE PUSH18 0xEC46F28ABDFCC7707141B4B514CCC3456289 LOG0 0xdc CALLVALUE BLOCKHASH PUSH26 0xF8ECF10B6C6578706572696D656E74616CF50037000000000000 "
			}
		}
	},
	"sourceTreeHashHex": "0xe6ebacb149f23e7b817663ebd2cf6c5de10e49137acb3aa7089615ec02f87390",
	"compiler": {
		"name": "solc",
		"version": "soljson-v0.4.24+commit.e67f0147.js",
		"settings": {
			"optimizer": {
				"enabled": true,
				"runs": 1000000
			},
			"outputSelection": {
				"*": {
					"*": [
						"abi",
						"evm.bytecode.object",
						"evm.bytecode.sourceMap",
						"evm.deployedBytecode.object",
						"evm.deployedBytecode.sourceMap"
					]
				}
			}
		}
	}
}