{
	"schemaVersion": "2.0.0",
	"contractName": "MixinAuthorizable",
	"compilerOutput": {
		"abi": [
			{
				"constant": false,
				"inputs": [
					{
						"name": "target",
						"type": "address"
					}
				],
				"name": "addAuthorizedAddress",
				"outputs": [],
				"payable": false,
				"stateMutability": "nonpayable",
				"type": "function"
			},
			{
				"constant": true,
				"inputs": [
					{
						"name": "",
						"type": "uint256"
					}
				],
				"name": "authorities",
				"outputs": [
					{
						"name": "",
						"type": "address"
					}
				],
				"payable": false,
				"stateMutability": "view",
				"type": "function"
			},
			{
				"constant": false,
				"inputs": [
					{
						"name": "target",
						"type": "address"
					}
				],
				"name": "removeAuthorizedAddress",
				"outputs": [],
				"payable": false,
				"stateMutability": "nonpayable",
				"type": "function"
			},
			{
				"constant": true,
				"inputs": [],
				"name": "owner",
				"outputs": [
					{
						"name": "",
						"type": "address"
					}
				],
				"payable": false,
				"stateMutability": "view",
				"type": "function"
			},
			{
				"constant": false,
				"inputs": [
					{
						"name": "target",
						"type": "address"
					},
					{
						"name": "index",
						"type": "uint256"
					}
				],
				"name": "removeAuthorizedAddressAtIndex",
				"outputs": [],
				"payable": false,
				"stateMutability": "nonpayable",
				"type": "function"
			},
			{
				"constant": true,
				"inputs": [
					{
						"name": "",
						"type": "address"
					}
				],
				"name": "authorized",
				"outputs": [
					{
						"name": "",
						"type": "bool"
					}
				],
				"payable": false,
				"stateMutability": "view",
				"type": "function"
			},
			{
				"constant": true,
				"inputs": [],
				"name": "getAuthorizedAddresses",
				"outputs": [
					{
						"name": "",
						"type": "address[]"
					}
				],
				"payable": false,
				"stateMutability": "view",
				"type": "function"
			},
			{
				"constant": false,
				"inputs": [
					{
						"name": "newOwner",
						"type": "address"
					}
				],
				"name": "transferOwnership",
				"outputs": [],
				"payable": false,
				"stateMutability": "nonpayable",
				"type": "function"
			},
			{
				"anonymous": false,
				"inputs": [
					{
						"indexed": true,
						"name": "target",
						"type": "address"
					},
					{
						"indexed": true,
						"name": "caller",
						"type": "address"
					}
				],
				"name": "AuthorizedAddressAdded",
				"type": "event"
			},
			{
				"anonymous": false,
				"inputs": [
					{
						"indexed": true,
						"name": "target",
						"type": "address"
					},
					{
						"indexed": true,
						"name": "caller",
						"type": "address"
					}
				],
				"name": "AuthorizedAddressRemoved",
				"type": "event"
			}
		],
		"evm": {
			"bytecode": {
				"linkReferences": {},
				"object": "0x608060405260008054600160a060020a03191633179055610d15806100256000396000f30060806040526004361061008d5763ffffffff7c010000000000000000000000000000000000000000000000000000000060003504166342f1181e8114610092578063494503d4146100c257806370712939146101035780638da5cb5b146101315780639ad2674414610146578063b918161114610177578063d39de6e9146101b9578063f2fde38b1461021e575b600080fd5b34801561009e57600080fd5b506100c073ffffffffffffffffffffffffffffffffffffffff6004351661024c565b005b3480156100ce57600080fd5b506100da600435610438565b6040805173ffffffffffffffffffffffffffffffffffffffff9092168252519081900360200190f35b34801561010f57600080fd5b506100c073ffffffffffffffffffffffffffffffffffffffff6004351661046d565b34801561013d57600080fd5b506100da610766565b34801561015257600080fd5b506100c073ffffffffffffffffffffffffffffffffffffffff60043516602435610782565b34801561018357600080fd5b506101a573ffffffffffffffffffffffffffffffffffffffff60043516610b37565b604080519115158252519081900360200190f35b3480156101c557600080fd5b506101ce610b4c565b60408051602080825283518183015283519192839290830191858101910280838360005b8381101561020a5781810151838201526020016101f2565b505050509050019250505060405180910390f35b34801561022a57600080fd5b506100c073ffffffffffffffffffffffffffffffffffffffff60043516610bbc565b60005473ffffffffffffffffffffffffffffffffffffffff1633146102d257604080517f08c379a000000000000000000000000000000000000000000000000000000000815260206004820152601360248201527f4f4e4c595f434f4e54524143545f4f574e455200000000000000000000000000604482015290519081900360640190fd5b73ffffffffffffffffffffffffffffffffffffffff811660009081526001602052604090205460ff161561036757604080517f08c379a000000000000000000000000000000000000000000000000000000000815260206004820152601960248201527f5441524745545f414c52454144595f415554484f52495a454400000000000000604482015290519081900360640190fd5b73ffffffffffffffffffffffffffffffffffffffff8116600081815260016020819052604080832080547fffffffffffffffffffffffffffffffffffffffffffffffffffffffffffffff00168317905560028054928301815583527f405787fa12a823e0f2b7631cc41b3ba8828b3321ca811111fa75cd3aa3bb5ace90910180547fffffffffffffffffffffffff00000000000000000000000000000000000000001684179055513392917f3147867c59d17e8fa9d522465651d44aae0a9e38f902f3475b97e58072f0ed4c91a350565b600280548290811061044657fe5b60009182526020909120015473ffffffffffffffffffffffffffffffffffffffff16905081565b6000805473ffffffffffffffffffffffffffffffffffffffff1633146104f457604080517f08c379a000000000000000000000000000000000000000000000000000000000815260206004820152601360248201527f4f4e4c595f434f4e54524143545f4f574e455200000000000000000000000000604482015290519081900360640190fd5b73ffffffffffffffffffffffffffffffffffffffff821660009081526001602052604090205460ff16151561058a57604080517f08c379a000000000000000000000000000000000000000000000000000000000815260206004820152601560248201527f5441524745545f4e4f545f415554484f52495a45440000000000000000000000604482015290519081900360640190fd5b5073ffffffffffffffffffffffffffffffffffffffff8116600090815260016020526040812080547fffffffffffffffffffffffffffffffffffffffffffffffffffffffffffffff001690555b60025481101561071f578173ffffffffffffffffffffffffffffffffffffffff1660028281548110151561060757fe5b60009182526020909120015473ffffffffffffffffffffffffffffffffffffffff16141561071757600280547fffffffffffffffffffffffffffffffffffffffffffffffffffffffffffffffff810190811061065f57fe5b6000918252602090912001546002805473ffffffffffffffffffffffffffffffffffffffff909216918390811061069257fe5b600091825260209091200180547fffffffffffffffffffffffff00000000000000000000000000000000000000001673ffffffffffffffffffffffffffffffffffffffff92909216919091179055600280547fffffffffffffffffffffffffffffffffffffffffffffffffffffffffffffffff01906107119082610ca2565b5061071f565b6001016105d7565b604051339073ffffffffffffffffffffffffffffffffffffffff8416907f1f32c1b084e2de0713b8fb16bd46bb9df710a3dbeae2f3ca93af46e016dcc6b090600090a35050565b60005473ffffffffffffffffffffffffffffffffffffffff1681565b60005473ffffffffffffffffffffffffffffffffffffffff16331461080857604080517f08c379a000000000000000000000000000000000000000000000000000000000815260206004820152601360248201527f4f4e4c595f434f4e54524143545f4f574e455200000000000000000000000000604482015290519081900360640190fd5b73ffffffffffffffffffffffffffffffffffffffff821660009081526001602052604090205460ff16151561089e57604080517f08c379a000000000000000000000000000000000000000000000000000000000815260206004820152601560248201527f5441524745545f4e4f545f415554484f52495a45440000000000000000000000604482015290519081900360640190fd5b600254811061090e57604080517f08c379a000000000000000000000000000000000000000000000000000000000815260206004820152601360248201527f494e4445585f4f55545f4f465f424f554e445300000000000000000000000000604482015290519081900360640190fd5b8173ffffffffffffffffffffffffffffffffffffffff1660028281548110151561093457fe5b60009182526020909120015473ffffffffffffffffffffffffffffffffffffffff16146109c257604080517f08c379a000000000000000000000000000000000000000000000000000000000815260206004820152601b60248201527f415554484f52495a45445f414444524553535f4d49534d415443480000000000604482015290519081900360640190fd5b73ffffffffffffffffffffffffffffffffffffffff8216600090815260016020526040902080547fffffffffffffffffffffffffffffffffffffffffffffffffffffffffffffff00169055600280547fffffffffffffffffffffffffffffffffffffffffffffffffffffffffffffffff8101908110610a3d57fe5b6000918252602090912001546002805473ffffffffffffffffffffffffffffffffffffffff9092169183908110610a7057fe5b600091825260209091200180547fffffffffffffffffffffffff00000000000000000000000000000000000000001673ffffffffffffffffffffffffffffffffffffffff92909216919091179055600280547fffffffffffffffffffffffffffffffffffffffffffffffffffffffffffffffff0190610aef9082610ca2565b50604051339073ffffffffffffffffffffffffffffffffffffffff8416907f1f32c1b084e2de0713b8fb16bd46bb9df710a3dbeae2f3ca93af46e016dcc6b090600090a35050565b60016020526000908152604090205460ff1681565b60606002805480602002602001604051908101604052809291908181526020018280548015610bb157602002820191906000526020600020905b815473ffffffffffffffffffffffffffffffffffffffff168152600190910190602001808311610b86575b505050505090505b90565b60005473ffffffffffffffffffffffffffffffffffffffff163314610c4257604080517f08c379a000000000000000000000000000000000000000000000000000000000815260206004820152601360248201527f4f4e4c595f434f4e54524143545f4f574e455200000000000000000000000000604482015290519081900360640190fd5b73ffffffffffffffffffffffffffffffffffffffff811615610c9f57600080547fffffffffffffffffffffffff00000000000000000000000000000000000000001673ffffffffffffffffffffffffffffffffffffffff83161790555b50565b815481835581811115610cc657600083815260209020610cc6918101908301610ccb565b505050565b610bb991905b80821115610ce55760008155600101610cd1565b50905600a165627a7a7230582078a6c5c2f156cb91e8d2ce89507c3ff742d2b051d7da72f7f48e985d643986c70029",
				"opcodes": "PUSH1 0x80 PUSH1 0x40 MSTORE PUSH1 0x0 DUP1 SLOAD PUSH1 0x1 PUSH1 0xA0 PUSH1 0x2 EXP SUB NOT AND CALLER OR SWAP1 SSTORE PUSH2 0xD15 DUP1 PUSH2 0x25 PUSH1 0x0 CODECOPY PUSH1 0x0 RETURN STOP PUSH1 0x80 PUSH1 0x40 MSTORE PUSH1 0x4 CALLDATASIZE LT PUSH2 0x8D JUMPI PUSH4 0xFFFFFFFF PUSH29 0x100000000000000000000000000000000000000000000000000000000 PUSH1 0x0 CALLDATALOAD DIV AND PUSH4 0x42F1181E DUP2 EQ PUSH2 0x92 JUMPI DUP1 PUSH4 0x494503D4 EQ PUSH2 0xC2 JUMPI DUP1 PUSH4 0x70712939 EQ PUSH2 0x103 JUMPI DUP1 PUSH4 0x8DA5CB5B EQ PUSH2 0x131 JUMPI DUP1 PUSH4 0x9AD26744 EQ PUSH2 0x146 JUMPI DUP1 PUSH4 0xB9181611 EQ PUSH2 0x177 JUMPI DUP1 PUSH4 0xD39DE6E9 EQ PUSH2 0x1B9 JUMPI DUP1 PUSH4 0xF2FDE38B EQ PUSH2 0x21E JUMPI JUMPDEST PUSH1 0x0 DUP1 REVERT JUMPDEST CALLVALUE DUP1 ISZERO PUSH2 0x9E JUMPI PUSH1 0x0 DUP1 REVERT JUMPDEST POP PUSH2 0xC0 PUSH20 0xFFFFFFFFFFFFFFFFFFFFFFFFFFFFFFFFFFFFFFFF PUSH1 0x4 CALLDATALOAD AND PUSH2 0x24C JUMP JUMPDEST STOP JUMPDEST CALLVALUE DUP1 ISZERO PUSH2 0xCE JUMPI PUSH1 0x0 DUP1 REVERT JUMPDEST POP PUSH2 0xDA PUSH1 0x4 CALLDATALOAD PUSH2 0x438 JUMP JUMPDEST PUSH1 0x40 DUP1 MLOAD PUSH20 0xFFFFFFFFFFFFFFFFFFFFFFFFFFFFFFFFFFFFFFFF SWAP1 SWAP3 AND DUP3 MSTORE MLOAD SWAP1 DUP2 SWAP1 SUB PUSH1 0x20 ADD SWAP1 RETURN JUMPDEST CALLVALUE DUP1 ISZERO PUSH2 0x10F JUMPI PUSH1 0x0 DUP1 REVERT JUMPDEST POP PUSH2 0xC0 PUSH20 0xFFFFFFFFFFFFFFFFFFFFFFFFFFFFFFFFFFFFFFFF PUSH1 0x4 CALLDATALOAD AND PUSH2 0x46D JUMP JUMPDEST CALLVALUE DUP1 ISZERO PUSH2 0x13D JUMPI PUSH1 0x0 DUP1 REVERT JUMPDEST POP PUSH2 0xDA PUSH2 0x766 JUMP JUMPDEST CALLVALUE DUP1 ISZERO PUSH2 0x152 JUMPI PUSH1 0x0 DUP1 REVERT JUMPDEST POP PUSH2 0xC0 PUSH20 0xFFFFFFFFFFFFFFFFFFFFFFFFFFFFFFFFFFFFFFFF PUSH1 0x4 CALLDATALOAD AND PUSH1 0x24 CALLDATALOAD PUSH2 0x782 JUMP JUMPDEST CALLVALUE DUP1 ISZERO PUSH2 0x183 JUMPI PUSH1 0x0 DUP1 REVERT JUMPDEST POP PUSH2 0x1A5 PUSH20 0xFFFFFFFFFFFFFFFFFFFFFFFFFFFFFFFFFFFFFFFF PUSH1 0x4 CALLDATALOAD AND PUSH2 0xB37 JUMP JUMPDEST PUSH1 0x40 DUP1 MLOAD SWAP2 ISZERO ISZERO DUP3 MSTORE MLOAD SWAP1 DUP2 SWAP1 SUB PUSH1 0x20 ADD SWAP1 RETURN JUMPDEST CALLVALUE DUP1 ISZERO PUSH2 0x1C5 JUMPI PUSH1 0x0 DUP1 REVERT JUMPDEST POP PUSH2 0x1CE PUSH2 0xB4C JUMP JUMPDEST PUSH1 0x40 DUP1 MLOAD PUSH1 0x20 DUP1 DUP3 MSTORE DUP4 MLOAD DUP2 DUP4 ADD MSTORE DUP4 MLOAD SWAP2 SWAP3 DUP4 SWAP3 SWAP1 DUP4 ADD SWAP2 DUP6 DUP2 ADD SWAP2 MUL DUP1 DUP4 DUP4 PUSH1 0x0 JUMPDEST DUP4 DUP2 LT ISZERO PUSH2 0x20A JUMPI DUP2 DUP2 ADD MLOAD DUP4 DUP3 ADD MSTORE PUSH1 0x20 ADD PUSH2 0x1F2 JUMP JUMPDEST POP POP POP POP SWAP1 POP ADD SWAP3 POP POP POP PUSH1 0x40 MLOAD DUP1 SWAP2 SUB SWAP1 RETURN JUMPDEST CALLVALUE DUP1 ISZERO PUSH2 0x22A JUMPI PUSH1 0x0 DUP1 REVERT JUMPDEST POP PUSH2 0xC0 PUSH20 0xFFFFFFFFFFFFFFFFFFFFFFFFFFFFFFFFFFFFFFFF PUSH1 0x4 CALLDATALOAD AND PUSH2 0xBBC JUMP JUMPDEST PUSH1 0x0 SLOAD PUSH20 0xFFFFFFFFFFFFFFFFFFFFFFFFFFFFFFFFFFFFFFFF AND CALLER EQ PUSH2 0x2D2 JUMPI PUSH1 0x40 DUP1 MLOAD PUSH32 0x8C379A000000000000000000000000000000000000000000000000000000000 DUP2 MSTORE PUSH1 0x20 PUSH1 0x4 DUP3 ADD MSTORE PUSH1 0x13 PUSH1 0x24 DUP3 ADD MSTORE PUSH32 0x4F4E4C595F434F4E54524143545F4F574E455200000000000000000000000000 PUSH1 0x44 DUP3 ADD MSTORE SWAP1 MLOAD SWAP1 DUP2 SWAP1 SUB PUSH1 0x64 ADD SWAP1 REVERT JUMPDEST PUSH20 0xFFFFFFFFFFFFFFFFFFFFFFFFFFFFFFFFFFFFFFFF DUP2 AND PUSH1 0x0 SWAP1 DUP2 MSTORE PUSH1 0x1 PUSH1 0x20 MSTORE PUSH1 0x40 SWAP1 KECCAK256 SLOAD PUSH1 0xFF AND ISZERO PUSH2 0x367 JUMPI PUSH1 0x40 DUP1 MLOAD PUSH32 0x8C379A000000000000000000000000000000000000000000000000000000000 DUP2 MSTORE PUSH1 0x20 PUSH1 0x4 DUP3 ADD MSTORE PUSH1 0x19 PUSH1 0x24 DUP3 ADD MSTORE PUSH32 0x5441524745545F414C52454144595F415554484F52495A454400000000000000 PUSH1 0x44 DUP3 ADD MSTORE SWAP1 MLOAD SWAP1 DUP2 SWAP1 SUB PUSH1 0x64 ADD SWAP1 REVERT JUMPDEST PUSH20 0xFFFFFFFFFFFFFFFFFFFFFFFFFFFFFFFFFFFFFFFF DUP2 AND PUSH1 0x0 DUP2 DUP2 MSTORE PUSH1 0x1 PUSH1 0x20 DUP2 SWAP1 MSTORE PUSH1 0x40 DUP1 DUP4 KECCAK256 DUP1 SLOAD PUSH32 0xFFFFFFFFFFFFFFFFFFFFFFFFFFFFFFFFFFFFFFFFFFFFFFFFFFFFFFFFFFFFFF00 AND DUP4 OR SWAP1 SSTORE PUSH1 0x2 DUP1 SLOAD SWAP3 DUP4 ADD DUP2 SSTORE DUP4 MSTORE PUSH32 0x405787FA12A823E0F2B7631CC41B3BA8828B3321CA811111FA75CD3AA3BB5ACE SWAP1 SWAP2 ADD DUP1 SLOAD PUSH32 0xFFFFFFFFFFFFFFFFFFFFFFFF0000000000000000000000000000000000000000 AND DUP5 OR SWAP1 SSTORE MLOAD CALLER SWAP3 SWAP2 PUSH32 0x3147867C59D17E8FA9D522465651D44AAE0A9E38F902F3475B97E58072F0ED4C SWAP2 LOG3 POP JUMP JUMPDEST PUSH1 0x2 DUP1 SLOAD DUP3 SWAP1 DUP2 LT PUSH2 0x446 JUMPI INVALID JUMPDEST PUSH1 0x0 SWAP2 DUP3 MSTORE PUSH1 0x20 SWAP1 SWAP2 KECCAK256 ADD SLOAD PUSH20 0xFFFFFFFFFFFFFFFFFFFFFFFFFFFFFFFFFFFFFFFF AND SWAP1 POP DUP2 JUMP JUMPDEST PUSH1 0x0 DUP1 SLOAD PUSH20 0xFFFFFFFFFFFFFFFFFFFFFFFFFFFFFFFFFFFFFFFF AND CALLER EQ PUSH2 0x4F4 JUMPI PUSH1 0x40 DUP1 MLOAD PUSH32 0x8C379A000000000000000000000000000000000000000000000000000000000 DUP2 MSTORE PUSH1 0x20 PUSH1 0x4 DUP3 ADD MSTORE PUSH1 0x13 PUSH1 0x24 DUP3 ADD MSTORE PUSH32 0x4F4E4C595F434F4E54524143545F4F574E455200000000000000000000000000 PUSH1 0x44 DUP3 ADD MSTORE SWAP1 MLOAD SWAP1 DUP2 SWAP1 SUB PUSH1 0x64 ADD SWAP1 REVERT JUMPDEST PUSH20 0xFFFFFFFFFFFFFFFFFFFFFFFFFFFFFFFFFFFFFFFF DUP3 AND PUSH1 0x0 SWAP1 DUP2 MSTORE PUSH1 0x1 PUSH1 0x20 MSTORE PUSH1 0x40 SWAP1 KECCAK256 SLOAD PUSH1 0xFF AND ISZERO ISZERO PUSH2 0x58A JUMPI PUSH1 0x40 DUP1 MLOAD PUSH32 0x8C379A000000000000000000000000000000000000000000000000000000000 DUP2 MSTORE PUSH1 0x20 PUSH1 0x4 DUP3 ADD MSTORE PUSH1 0x15 PUSH1 0x24 DUP3 ADD MSTORE PUSH32 0x5441524745545F4E4F545F415554484F52495A45440000000000000000000000 PUSH1 0x44 DUP3 ADD MSTORE SWAP1 MLOAD SWAP1 DUP2 SWAP1 SUB PUSH1 0x64 ADD SWAP1 REVERT JUMPDEST POP PUSH20 0xFFFFFFFFFFFFFFFFFFFFFFFFFFFFFFFFFFFFFFFF DUP2 AND PUSH1 0x0 SWAP1 DUP2 MSTORE PUSH1 0x1 PUSH1 0x20 MSTORE PUSH1 0x40 DUP2 KECCAK256 DUP1 SLOAD PUSH32 0xFFFFFFFFFFFFFFFFFFFFFFFFFFFFFFFFFFFFFFFFFFFFFFFFFFFFFFFFFFFFFF00 AND SWAP1 SSTORE JUMPDEST PUSH1 0x2 SLOAD DUP2 LT ISZERO PUSH2 0x71F JUMPI DUP2 PUSH20 0xFFFFFFFFFFFFFFFFFFFFFFFFFFFFFFFFFFFFFFFF AND PUSH1 0x2 DUP3 DUP2 SLOAD DUP2 LT ISZERO ISZERO PUSH2 0x607 JUMPI INVALID JUMPDEST PUSH1 0x0 SWAP2 DUP3 MSTORE PUSH1 0x20 SWAP1 SWAP2 KECCAK256 ADD SLOAD PUSH20 0xFFFFFFFFFFFFFFFFFFFFFFFFFFFFFFFFFFFFFFFF AND EQ ISZERO PUSH2 0x717 JUMPI PUSH1 0x2 DUP1 SLOAD PUSH32 0xFFFFFFFFFFFFFFFFFFFFFFFFFFFFFFFFFFFFFFFFFFFFFFFFFFFFFFFFFFFFFFFF DUP2 ADD SWAP1 DUP2 LT PUSH2 0x65F JUMPI INVALID JUMPDEST PUSH1 0x0 SWAP2 DUP3 MSTORE PUSH1 0x20 SWAP1 SWAP2 KECCAK256 ADD SLOAD PUSH1 0x2 DUP1 SLOAD PUSH20 0xFFFFFFFFFFFFFFFFFFFFFFFFFFFFFFFFFFFFFFFF SWAP1 SWAP3 AND SWAP2 DUP4 SWAP1 DUP2 LT PUSH2 0x692 JUMPI INVALID JUMPDEST PUSH1 0x0 SWAP2 DUP3 MSTORE PUSH1 0x20 SWAP1 SWAP2 KECCAK256 ADD DUP1 SLOAD PUSH32 0xFFFFFFFFFFFFFFFFFFFFFFFF0000000000000000000000000000000000000000 AND PUSH20 0xFFFFFFFFFFFFFFFFFFFFFFFFFFFFFFFFFFFFFFFF SWAP3 SWAP1 SWAP3 AND SWAP2 SWAP1 SWAP2 OR SWAP1 SSTORE PUSH1 0x2 DUP1 SLOAD PUSH32 0xFFFFFFFFFFFFFFFFFFFFFFFFFFFFFFFFFFFFFFFFFFFFFFFFFFFFFFFFFFFFFFFF ADD SWAP1 PUSH2 0x711 SWAP1 DUP3 PUSH2 0xCA2 JUMP JUMPDEST POP PUSH2 0x71F JUMP JUMPDEST PUSH1 0x1 ADD PUSH2 0x5D7 JUMP JUMPDEST PUSH1 0x40 MLOAD CALLER SWAP1 PUSH20 0xFFFFFFFFFFFFFFFFFFFFFFFFFFFFFFFFFFFFFFFF DUP5 AND SWAP1 PUSH32 0x1F32C1B084E2DE0713B8FB16BD46BB9DF710A3DBEAE2F3CA93AF46E016DCC6B0 SWAP1 PUSH1 0x0 SWAP1 LOG3 POP POP JUMP JUMPDEST PUSH1 0x0 SLOAD PUSH20 0xFFFFFFFFFFFFFFFFFFFFFFFFFFFFFFFFFFFFFFFF AND DUP2 JUMP JUMPDEST PUSH1 0x0 SLOAD PUSH20 0xFFFFFFFFFFFFFFFFFFFFFFFFFFFFFFFFFFFFFFFF AND CALLER EQ PUSH2 0x808 JUMPI PUSH1 0x40 DUP1 MLOAD PUSH32 0x8C379A000000000000000000000000000000000000000000000000000000000 DUP2 MSTORE PUSH1 0x20 PUSH1 0x4 DUP3 ADD MSTORE PUSH1 0x13 PUSH1 0x24 DUP3 ADD MSTORE PUSH32 0x4F4E4C595F434F4E54524143545F4F574E455200000000000000000000000000 PUSH1 0x44 DUP3 ADD MSTORE SWAP1 MLOAD SWAP1 DUP2 SWAP1 SUB PUSH1 0x64 ADD SWAP1 REVERT JUMPDEST PUSH20 0xFFFFFFFFFFFFFFFFFFFFFFFFFFFFFFFFFFFFFFFF DUP3 AND PUSH1 0x0 SWAP1 DUP2 MSTORE PUSH1 0x1 PUSH1 0x20 MSTORE PUSH1 0x40 SWAP1 KECCAK256 SLOAD PUSH1 0xFF AND ISZERO ISZERO PUSH2 0x89E JUMPI PUSH1 0x40 DUP1 MLOAD PUSH32 0x8C379A000000000000000000000000000000000000000000000000000000000 DUP2 MSTORE PUSH1 0x20 PUSH1 0x4 DUP3 ADD MSTORE PUSH1 0x15 PUSH1 0x24 DUP3 ADD MSTORE PUSH32 0x5441524745545F4E4F545F415554484F52495A45440000000000000000000000 PUSH1 0x44 DUP3 ADD MSTORE SWAP1 MLOAD SWAP1 DUP2 SWAP1 SUB PUSH1 0x64 ADD SWAP1 REVERT JUMPDEST PUSH1 0x2 SLOAD DUP2 LT PUSH2 0x90E JUMPI PUSH1 0x40 DUP1 MLOAD PUSH32 0x8C379A000000000000000000000000000000000000000000000000000000000 DUP2 MSTORE PUSH1 0x20 PUSH1 0x4 DUP3 ADD MSTORE PUSH1 0x13 PUSH1 0x24 DUP3 ADD MSTORE PUSH32 0x494E4445585F4F55545F4F465F424F554E445300000000000000000000000000 PUSH1 0x44 DUP3 ADD MSTORE SWAP1 MLOAD SWAP1 DUP2 SWAP1 SUB PUSH1 0x64 ADD SWAP1 REVERT JUMPDEST DUP2 PUSH20 0xFFFFFFFFFFFFFFFFFFFFFFFFFFFFFFFFFFFFFFFF AND PUSH1 0x2 DUP3 DUP2 SLOAD DUP2 LT ISZERO ISZERO PUSH2 0x934 JUMPI INVALID JUMPDEST PUSH1 0x0 SWAP2 DUP3 MSTORE PUSH1 0x20 SWAP1 SWAP2 KECCAK256 ADD SLOAD PUSH20 0xFFFFFFFFFFFFFFFFFFFFFFFFFFFFFFFFFFFFFFFF AND EQ PUSH2 0x9C2 JUMPI PUSH1 0x40 DUP1 MLOAD PUSH32 0x8C379A000000000000000000000000000000000000000000000000000000000 DUP2 MSTORE PUSH1 0x20 PUSH1 0x4 DUP3 ADD MSTORE PUSH1 0x1B PUSH1 0x24 DUP3 ADD MSTORE PUSH32 0x415554484F52495A45445F414444524553535F4D49534D415443480000000000 PUSH1 0x44 DUP3 ADD MSTORE SWAP1 MLOAD SWAP1 DUP2 SWAP1 SUB PUSH1 0x64 ADD SWAP1 REVERT JUMPDEST PUSH20 0xFFFFFFFFFFFFFFFFFFFFFFFFFFFFFFFFFFFFFFFF DUP3 AND PUSH1 0x0 SWAP1 DUP2 MSTORE PUSH1 0x1 PUSH1 0x20 MSTORE PUSH1 0x40 SWAP1 KECCAK256 DUP1 SLOAD PUSH32 0xFFFFFFFFFFFFFFFFFFFFFFFFFFFFFFFFFFFFFFFFFFFFFFFFFFFFFFFFFFFFFF00 AND SWAP1 SSTORE PUSH1 0x2 DUP1 SLOAD PUSH32 0xFFFFFFFFFFFFFFFFFFFFFFFFFFFFFFFFFFFFFFFFFFFFFFFFFFFFFFFFFFFFFFFF DUP2 ADD SWAP1 DUP2 LT PUSH2 0xA3D JUMPI INVALID JUMPDEST PUSH1 0x0 SWAP2 DUP3 MSTORE PUSH1 0x20 SWAP1 SWAP2 KECCAK256 ADD SLOAD PUSH1 0x2 DUP1 SLOAD PUSH20 0xFFFFFFFFFFFFFFFFFFFFFFFFFFFFFFFFFFFFFFFF SWAP1 SWAP3 AND SWAP2 DUP4 SWAP1 DUP2 LT PUSH2 0xA70 JUMPI INVALID JUMPDEST PUSH1 0x0 SWAP2 DUP3 MSTORE PUSH1 0x20 SWAP1 SWAP2 KECCAK256 ADD DUP1 SLOAD PUSH32 0xFFFFFFFFFFFFFFFFFFFFFFFF0000000000000000000000000000000000000000 AND PUSH20 0xFFFFFFFFFFFFFFFFFFFFFFFFFFFFFFFFFFFFFFFF SWAP3 SWAP1 SWAP3 AND SWAP2 SWAP1 SWAP2 OR SWAP1 SSTORE PUSH1 0x2 DUP1 SLOAD PUSH32 0xFFFFFFFFFFFFFFFFFFFFFFFFFFFFFFFFFFFFFFFFFFFFFFFFFFFFFFFFFFFFFFFF ADD SWAP1 PUSH2 0xAEF SWAP1 DUP3 PUSH2 0xCA2 JUMP JUMPDEST POP PUSH1 0x40 MLOAD CALLER SWAP1 PUSH20 0xFFFFFFFFFFFFFFFFFFFFFFFFFFFFFFFFFFFFFFFF DUP5 AND SWAP1 PUSH32 0x1F32C1B084E2DE0713B8FB16BD46BB9DF710A3DBEAE2F3CA93AF46E016DCC6B0 SWAP1 PUSH1 0x0 SWAP1 LOG3 POP POP JUMP JUMPDEST PUSH1 0x1 PUSH1 0x20 MSTORE PUSH1 0x0 SWAP1 DUP2 MSTORE PUSH1 0x40 SWAP1 KECCAK256 SLOAD PUSH1 0xFF AND DUP2 JUMP JUMPDEST PUSH1 0x60 PUSH1 0x2 DUP1 SLOAD DUP1 PUSH1 0x20 MUL PUSH1 0x20 ADD PUSH1 0x40 MLOAD SWAP1 DUP2 ADD PUSH1 0x40 MSTORE DUP1 SWAP3 SWAP2 SWAP1 DUP2 DUP2 MSTORE PUSH1 0x20 ADD DUP3 DUP1 SLOAD DUP1 ISZERO PUSH2 0xBB1 JUMPI PUSH1 0x20 MUL DUP3 ADD SWAP2 SWAP1 PUSH1 0x0 MSTORE PUSH1 0x20 PUSH1 0x0 KECCAK256 SWAP1 JUMPDEST DUP2 SLOAD PUSH20 0xFFFFFFFFFFFFFFFFFFFFFFFFFFFFFFFFFFFFFFFF AND DUP2 MSTORE PUSH1 0x1 SWAP1 SWAP2 ADD SWAP1 PUSH1 0x20 ADD DUP1 DUP4 GT PUSH2 0xB86 JUMPI JUMPDEST POP POP POP POP POP SWAP1 POP JUMPDEST SWAP1 JUMP JUMPDEST PUSH1 0x0 SLOAD PUSH20 0xFFFFFFFFFFFFFFFFFFFFFFFFFFFFFFFFFFFFFFFF AND CALLER EQ PUSH2 0xC42 JUMPI PUSH1 0x40 DUP1 MLOAD PUSH32 0x8C379A000000000000000000000000000000000000000000000000000000000 DUP2 MSTORE PUSH1 0x20 PUSH1 0x4 DUP3 ADD MSTORE PUSH1 0x13 PUSH1 0x24 DUP3 ADD MSTORE PUSH32 0x4F4E4C595F434F4E54524143545F4F574E455200000000000000000000000000 PUSH1 0x44 DUP3 ADD MSTORE SWAP1 MLOAD SWAP1 DUP2 SWAP1 SUB PUSH1 0x64 ADD SWAP1 REVERT JUMPDEST PUSH20 0xFFFFFFFFFFFFFFFFFFFFFFFFFFFFFFFFFFFFFFFF DUP2 AND ISZERO PUSH2 0xC9F JUMPI PUSH1 0x0 DUP1 SLOAD PUSH32 0xFFFFFFFFFFFFFFFFFFFFFFFF0000000000000000000000000000000000000000 AND PUSH20 0xFFFFFFFFFFFFFFFFFFFFFFFFFFFFFFFFFFFFFFFF DUP4 AND OR SWAP1 SSTORE JUMPDEST POP JUMP JUMPDEST DUP2 SLOAD DUP2 DUP4 SSTORE DUP2 DUP2 GT ISZERO PUSH2 0xCC6 JUMPI PUSH1 0x0 DUP4 DUP2 MSTORE PUSH1 0x20 SWAP1 KECCAK256 PUSH2 0xCC6 SWAP2 DUP2 ADD SWAP1 DUP4 ADD PUSH2 0xCCB JUMP JUMPDEST POP POP POP JUMP JUMPDEST PUSH2 0xBB9 SWAP2 SWAP1 JUMPDEST DUP1 DUP3 GT ISZERO PUSH2 0xCE5 JUMPI PUSH1 0x0 DUP2 SSTORE PUSH1 0x1 ADD PUSH2 0xCD1 JUMP JUMPDEST POP SWAP1 JUMP STOP LOG1 PUSH6 0x627A7A723058 KECCAK256 PUSH25 0xA6C5C2F156CB91E8D2CE89507C3FF742D2B051D7DA72F7F48E SWAP9 0x5d PUSH5 0x3986C70029 "
			}
		}
	},
	"sourceTreeHashHex": "0x72b8e85e9acb373c8213b2247c5e8811ac500e4a23abc5fa67b7a9d018d7e356",
	"compiler": {
		"name": "solc",
		"version": "soljson-v0.4.24+commit.e67f0147.js",
		"settings": {
			"optimizer": {
				"enabled": true,
				"runs": 1000000
			},
			"outputSelection": {
				"*": {
					"*": [
						"abi",
						"evm.bytecode.object",
						"evm.bytecode.sourceMap",
						"evm.deployedBytecode.object",
						"evm.deployedBytecode.sourceMap"
					]
				}
			}
		}
	}
}