{
	"schemaVersion": "2.0.0",
	"contractName": "TestLibs",
	"compilerOutput": {
		"abi": [
			{
				"constant": true,
				"inputs": [
					{
						"name": "numerator",
						"type": "uint256"
					},
					{
						"name": "denominator",
						"type": "uint256"
					},
					{
						"name": "target",
						"type": "uint256"
					}
				],
				"name": "publicGetPartialAmount",
				"outputs": [
					{
						"name": "partialAmount",
						"type": "uint256"
					}
				],
				"payable": false,
				"stateMutability": "pure",
				"type": "function"
			},
			{
				"constant": true,
				"inputs": [],
				"name": "getDomainSeparatorSchemaHash",
				"outputs": [
					{
						"name": "",
						"type": "bytes32"
					}
				],
				"payable": false,
				"stateMutability": "pure",
				"type": "function"
			},
			{
				"constant": true,
				"inputs": [
					{
						"components": [
							{
								"name": "makerAssetFilledAmount",
								"type": "uint256"
							},
							{
								"name": "takerAssetFilledAmount",
								"type": "uint256"
							},
							{
								"name": "makerFeePaid",
								"type": "uint256"
							},
							{
								"name": "takerFeePaid",
								"type": "uint256"
							}
						],
						"name": "totalFillResults",
						"type": "tuple"
					},
					{
						"components": [
							{
								"name": "makerAssetFilledAmount",
								"type": "uint256"
							},
							{
								"name": "takerAssetFilledAmount",
								"type": "uint256"
							},
							{
								"name": "makerFeePaid",
								"type": "uint256"
							},
							{
								"name": "takerFeePaid",
								"type": "uint256"
							}
						],
						"name": "singleFillResults",
						"type": "tuple"
					}
				],
				"name": "publicAddFillResults",
				"outputs": [
					{
						"components": [
							{
								"name": "makerAssetFilledAmount",
								"type": "uint256"
							},
							{
								"name": "takerAssetFilledAmount",
								"type": "uint256"
							},
							{
								"name": "makerFeePaid",
								"type": "uint256"
							},
							{
								"name": "takerFeePaid",
								"type": "uint256"
							}
						],
						"name": "",
						"type": "tuple"
					}
				],
				"payable": false,
				"stateMutability": "pure",
				"type": "function"
			},
			{
				"constant": true,
				"inputs": [],
				"name": "getOrderSchemaHash",
				"outputs": [
					{
						"name": "",
						"type": "bytes32"
					}
				],
				"payable": false,
				"stateMutability": "pure",
				"type": "function"
			},
			{
				"constant": true,
				"inputs": [
					{
						"name": "numerator",
						"type": "uint256"
					},
					{
						"name": "denominator",
						"type": "uint256"
					},
					{
						"name": "target",
						"type": "uint256"
					}
				],
				"name": "publicIsRoundingError",
				"outputs": [
					{
						"name": "isError",
						"type": "bool"
					}
				],
				"payable": false,
				"stateMutability": "pure",
				"type": "function"
			},
			{
				"constant": true,
				"inputs": [
					{
						"components": [
							{
								"name": "makerAddress",
								"type": "address"
							},
							{
								"name": "takerAddress",
								"type": "address"
							},
							{
								"name": "feeRecipientAddress",
								"type": "address"
							},
							{
								"name": "senderAddress",
								"type": "address"
							},
							{
								"name": "makerAssetAmount",
								"type": "uint256"
							},
							{
								"name": "takerAssetAmount",
								"type": "uint256"
							},
							{
								"name": "makerFee",
								"type": "uint256"
							},
							{
								"name": "takerFee",
								"type": "uint256"
							},
							{
								"name": "expirationTimeSeconds",
								"type": "uint256"
							},
							{
								"name": "salt",
								"type": "uint256"
							},
							{
								"name": "makerAssetData",
								"type": "bytes"
							},
							{
								"name": "takerAssetData",
								"type": "bytes"
							}
						],
						"name": "order",
						"type": "tuple"
					}
				],
				"name": "publicGetOrderHash",
				"outputs": [
					{
						"name": "orderHash",
						"type": "bytes32"
					}
				],
				"payable": false,
				"stateMutability": "view",
				"type": "function"
			},
			{
				"constant": true,
				"inputs": [],
				"name": "EIP712_DOMAIN_HASH",
				"outputs": [
					{
						"name": "",
						"type": "bytes32"
					}
				],
				"payable": false,
				"stateMutability": "view",
				"type": "function"
			},
			{
				"constant": true,
				"inputs": [
					{
						"components": [
							{
								"name": "makerAddress",
								"type": "address"
							},
							{
								"name": "takerAddress",
								"type": "address"
							},
							{
								"name": "feeRecipientAddress",
								"type": "address"
							},
							{
								"name": "senderAddress",
								"type": "address"
							},
							{
								"name": "makerAssetAmount",
								"type": "uint256"
							},
							{
								"name": "takerAssetAmount",
								"type": "uint256"
							},
							{
								"name": "makerFee",
								"type": "uint256"
							},
							{
								"name": "takerFee",
								"type": "uint256"
							},
							{
								"name": "expirationTimeSeconds",
								"type": "uint256"
							},
							{
								"name": "salt",
								"type": "uint256"
							},
							{
								"name": "makerAssetData",
								"type": "bytes"
							},
							{
								"name": "takerAssetData",
								"type": "bytes"
							}
						],
						"name": "order",
						"type": "tuple"
					},
					{
						"name": "takerAssetFillAmount",
						"type": "uint256"
					},
					{
						"name": "signature",
						"type": "bytes"
					}
				],
				"name": "publicAbiEncodeFillOrder",
				"outputs": [
					{
						"name": "fillOrderCalldata",
						"type": "bytes"
					}
				],
				"payable": false,
				"stateMutability": "pure",
				"type": "function"
			}
		],
		"evm": {
			"bytecode": {
				"linkReferences": {},
				"object": "0x7f454950373132446f6d61696e280000000000000000000000000000000000000060a09081527f737472696e67206e616d652c000000000000000000000000000000000000000060ad527f737472696e672076657273696f6e2c000000000000000000000000000000000060b9527f6164647265737320766572696679696e67436f6e74726163740000000000000060c8527f290000000000000000000000000000000000000000000000000000000000000060e1526042608081815260e26040819052909290918291908083835b602083106100ed5780518252601f1990920191602091820191016100ce565b51815160209384036101000a6000190180199092169116179052604080519290940182900382208285018552600b8084527f30782050726f746f636f6c000000000000000000000000000000000000000000928401928352945190965091945090928392508083835b602083106101755780518252601f199092019160209182019101610156565b51815160209384036101000a600019018019909216911617905260408051929094018290038220828501855260018084527f3200000000000000000000000000000000000000000000000000000000000000928401928352945190965091945090928392508083835b602083106101fd5780518252601f1990920191602091820191016101de565b51815160209384036101000a6000190180199092169116179052604080519290940182900382208282019890985281840196909652606081019690965250306080808701919091528151808703909101815260a09095019081905284519093849350850191508083835b602083106102865780518252601f199092019160209182019101610267565b5181516000196020949094036101000a9390930192831692191691909117905260405192018290039091206000555050506113b8806102c66000396000f30060806040526004361061008d5763ffffffff7c0100000000000000000000000000000000000000000000000000000000600035041663041e63fe8114610092578063494d9297146100c857806366758d7b146100dd5780637d33c6ee1461010a5780638ae633161461011f578063d98020881461014c578063e306f7791461016c578063e9c7aa1a14610181575b600080fd5b34801561009e57600080fd5b506100b26100ad366004611131565b6101ae565b6040516100bf919061124f565b60405180910390f35b3480156100d457600080fd5b506100b26101c3565b3480156100e957600080fd5b506100fd6100f8366004611045565b61031b565b6040516100bf919061127e565b34801561011657600080fd5b506100b2610336565b34801561012b57600080fd5b5061013f61013a366004611131565b6105b6565b6040516100bf9190611241565b34801561015857600080fd5b506100b2610167366004611080565b6105c3565b34801561017857600080fd5b506100b26105ce565b34801561018d57600080fd5b506101a161019c3660046110b5565b6105d4565b6040516100bf919061125d565b60006101bb8484846105e1565b949350505050565b604080517f454950373132446f6d61696e28000000000000000000000000000000000000006020808301919091527f737472696e67206e616d652c0000000000000000000000000000000000000000602d8301527f737472696e672076657273696f6e2c000000000000000000000000000000000060398301527f6164647265737320766572696679696e67436f6e74726163740000000000000060488301527f29000000000000000000000000000000000000000000000000000000000000006061830152825160428184030181526062909201928390528151600093918291908401908083835b602083106102e957805182527fffffffffffffffffffffffffffffffffffffffffffffffffffffffffffffffe090920191602091820191016102ac565b6001836020036101000a0380198251168184511680821785525050505050509050019150506040518091039020905090565b610323610df1565b61032d83836105f6565b50815b92915050565b604080517f4f726465722800000000000000000000000000000000000000000000000000006020808301919091527f61646472657373206d616b6572416464726573732c000000000000000000000060268301527f616464726573732074616b6572416464726573732c0000000000000000000000603b8301527f6164647265737320666565526563697069656e74416464726573732c0000000060508301527f616464726573732073656e646572416464726573732c00000000000000000000606c8301527f75696e74323536206d616b65724173736574416d6f756e742c0000000000000060828301527f75696e743235362074616b65724173736574416d6f756e742c00000000000000609b8301527f75696e74323536206d616b65724665652c00000000000000000000000000000060b48301527f75696e743235362074616b65724665652c00000000000000000000000000000060c58301527f75696e743235362065787069726174696f6e54696d655365636f6e64732c000060d68301527f75696e743235362073616c742c0000000000000000000000000000000000000060f48301527f6279746573206d616b65724173736574446174612c00000000000000000000006101018301527f62797465732074616b65724173736574446174610000000000000000000000006101168301527f290000000000000000000000000000000000000000000000000000000000000061012a830152825161010b81840301815261012b90920192839052815160009391829190840190808383602083106102e957805182527fffffffffffffffffffffffffffffffffffffffffffffffffffffffffffffffe090920191602091820191016102ac565b60006101bb848484610658565b6000610330826106ae565b60005481565b60606101bb8484846106c1565b60006101bb6105f08584610893565b84610902565b815181516106049190610919565b82526020808301519082015161061a9190610919565b6020830152604080830151908201516106339190610919565b60408301526060808301519082015161064c9190610919565b60609092019190915250565b60008060008480151561066757fe5b868509915081151561067c57600092506106a5565b61069b61068c83620f4240610893565b6106968887610893565b610902565b6103e88111935090505b50509392505050565b60006103306106bc83610958565b610db1565b604080517fb4be83d5000000000000000000000000000000000000000000000000000000006020808301919091526060602483018181528751608485019081528884015160a48601529488015160c48501529087015160e4840152608087015161010484015260a087015161012484015260c087015161014484015260e08701516101648401526101008701516101848401526101208701516101a4840152610140870180516101c485019081526101608901516101e4860152610180905251805161020485018190529394919384936044870192849261022489019291820191601f82010460005b818110156107c85783518552602094850194909301926001016107aa565b50505050818103610160808401919091528a0151805180835260209283019291820191601f82010460005b818110156108115783518552602094850194909301926001016107f3565b50505089845250848103602093840190815288518083529093918201918981019190601f82010460005b8181101561085957835185526020948501949093019260010161083b565b5050507fffffffffffffffffffffffffffffffffffffffffffffffffffffffffffffffe08883030188525060405250505050509392505050565b6000808315156108a657600091506108fb565b508282028284828115156108b657fe5b04146108f7576040517f08c379a00000000000000000000000000000000000000000000000000000000081526004016108ee9061126e565b60405180910390fd5b8091505b5092915050565b600080828481151561091057fe5b04949350505050565b6000828201838110156108f7576040517f08c379a00000000000000000000000000000000000000000000000000000000081526004016108ee9061126e565b604080517f4f726465722800000000000000000000000000000000000000000000000000006020808301919091527f61646472657373206d616b6572416464726573732c000000000000000000000060268301527f616464726573732074616b6572416464726573732c0000000000000000000000603b8301527f6164647265737320666565526563697069656e74416464726573732c0000000060508301527f616464726573732073656e646572416464726573732c00000000000000000000606c8301527f75696e74323536206d616b65724173736574416d6f756e742c0000000000000060828301527f75696e743235362074616b65724173736574416d6f756e742c00000000000000609b8301527f75696e74323536206d616b65724665652c00000000000000000000000000000060b48301527f75696e743235362074616b65724665652c00000000000000000000000000000060c58301527f75696e743235362065787069726174696f6e54696d655365636f6e64732c000060d68301527f75696e743235362073616c742c0000000000000000000000000000000000000060f48301527f6279746573206d616b65724173736574446174612c00000000000000000000006101018301527f62797465732074616b65724173736574446174610000000000000000000000006101168301527f290000000000000000000000000000000000000000000000000000000000000061012a830152825161010b81840301815261012b90920192839052815160009384938493849391929182918401908083835b60208310610be057805182527fffffffffffffffffffffffffffffffffffffffffffffffffffffffffffffffe09092019160209182019101610ba3565b51815160209384036101000a7fffffffffffffffffffffffffffffffffffffffffffffffffffffffffffffffff01801990921691161790526040519190930181900381206101408b0151805191995095509093508392850191508083835b60208310610c7b57805182527fffffffffffffffffffffffffffffffffffffffffffffffffffffffffffffffe09092019160209182019101610c3e565b51815160209384036101000a7fffffffffffffffffffffffffffffffffffffffffffffffffffffffffffffffff01801990921691161790526040519190930181900381206101608b0151805191985095509093508392850191508083835b60208310610d1657805182527fffffffffffffffffffffffffffffffffffffffffffffffffffffffffffffffe09092019160209182019101610cd9565b5181516020939093036101000a7fffffffffffffffffffffffffffffffffffffffffffffffffffffffffffffffff018019909116921691909117905260405192018290039091207fffffffffffffffffffffffffffffffffffffffffffffffffffffffffffffffe0890180516101408b018051610160909c0180519a84529881529288526101a0822091529890525050509190525090919050565b6000546040517f19010000000000000000000000000000000000000000000000000000000000008152600281019190915260228101919091526042902090565b608060405190810160405280600081526020016000815260200160008152602001600081525090565b6000610e268235611305565b9392505050565b6000601f82018313610e3e57600080fd5b8135610e51610e4c826112b3565b61128c565b91508082526020830160208301858383011115610e6d57600080fd5b610e7883828461131e565b50505092915050565b600060808284031215610e9357600080fd5b610e9d608061128c565b90506000610eab8484611039565b8252506020610ebc84848301611039565b6020830152506040610ed084828501611039565b6040830152506060610ee484828501611039565b60608301525092915050565b60006101808284031215610f0357600080fd5b610f0e61018061128c565b90506000610f1c8484610e1a565b8252506020610f2d84848301610e1a565b6020830152506040610f4184828501610e1a565b6040830152506060610f5584828501610e1a565b6060830152506080610f6984828501611039565b60808301525060a0610f7d84828501611039565b60a08301525060c0610f9184828501611039565b60c08301525060e0610fa584828501611039565b60e083015250610100610fba84828501611039565b61010083015250610120610fd084828501611039565b6101208301525061014082013567ffffffffffffffff811115610ff257600080fd5b610ffe84828501610e2d565b6101408301525061016082013567ffffffffffffffff81111561102057600080fd5b61102c84828501610e2d565b6101608301525092915050565b6000610e268235611302565b600080610100838503121561105957600080fd5b60006110658585610e81565b925050608061107685828601610e81565b9150509250929050565b60006020828403121561109257600080fd5b813567ffffffffffffffff8111156110a957600080fd5b6101bb84828501610ef0565b6000806000606084860312156110ca57600080fd5b833567ffffffffffffffff8111156110e157600080fd5b6110ed86828701610ef0565b93505060206110fe86828701611039565b925050604084013567ffffffffffffffff81111561111b57600080fd5b61112786828701610e2d565b9150509250925092565b60008060006060848603121561114657600080fd5b60006111528686611039565b935050602061116386828701611039565b925050604061112786828701611039565b61117d816112fd565b82525050565b61117d81611302565b6000611197826112f9565b8084526111ab81602086016020860161132a565b6111b481611356565b9093016020019392505050565b601081527f55494e543235365f4f564552464c4f5700000000000000000000000000000000602082015260400190565b805160808301906112028482611183565b5060208201516112156020850182611183565b5060408201516112286040850182611183565b50606082015161123b6060850182611183565b50505050565b602081016103308284611174565b602081016103308284611183565b60208082528101610e26818461118c565b60208082528101610330816111c1565b6080810161033082846111f1565b60405181810167ffffffffffffffff811182821017156112ab57600080fd5b604052919050565b600067ffffffffffffffff8211156112ca57600080fd5b506020601f919091017fffffffffffffffffffffffffffffffffffffffffffffffffffffffffffffffe0160190565b5190565b151590565b90565b73ffffffffffffffffffffffffffffffffffffffff1690565b82818337506000910152565b60005b8381101561134557818101518382015260200161132d565b8381111561123b5750506000910152565b601f017fffffffffffffffffffffffffffffffffffffffffffffffffffffffffffffffe016905600a265627a7a72305820843158b32ba1371bbd94889c3cc24c2ed50165e2c2d248763814d58efe32c7746c6578706572696d656e74616cf50037",
				"opcodes": "PUSH32 0x454950373132446F6D61696E2800000000000000000000000000000000000000 PUSH1 0xA0 SWAP1 DUP2 MSTORE PUSH32 0x737472696E67206E616D652C0000000000000000000000000000000000000000 PUSH1 0xAD MSTORE PUSH32 0x737472696E672076657273696F6E2C0000000000000000000000000000000000 PUSH1 0xB9 MSTORE PUSH32 0x6164647265737320766572696679696E67436F6E747261637400000000000000 PUSH1 0xC8 MSTORE PUSH32 0x2900000000000000000000000000000000000000000000000000000000000000 PUSH1 0xE1 MSTORE PUSH1 0x42 PUSH1 0x80 DUP2 DUP2 MSTORE PUSH1 0xE2 PUSH1 0x40 DUP2 SWAP1 MSTORE SWAP1 SWAP3 SWAP1 SWAP2 DUP3 SWAP2 SWAP1 DUP1 DUP4 DUP4 JUMPDEST PUSH1 0x20 DUP4 LT PUSH2 0xED JUMPI DUP1 MLOAD DUP3 MSTORE PUSH1 0x1F NOT SWAP1 SWAP3 ADD SWAP2 PUSH1 0x20 SWAP2 DUP3 ADD SWAP2 ADD PUSH2 0xCE JUMP JUMPDEST MLOAD DUP2 MLOAD PUSH1 0x20 SWAP4 DUP5 SUB PUSH2 0x100 EXP PUSH1 0x0 NOT ADD DUP1 NOT SWAP1 SWAP3 AND SWAP2 AND OR SWAP1 MSTORE PUSH1 0x40 DUP1 MLOAD SWAP3 SWAP1 SWAP5 ADD DUP3 SWAP1 SUB DUP3 KECCAK256 DUP3 DUP6 ADD DUP6 MSTORE PUSH1 0xB DUP1 DUP5 MSTORE PUSH32 0x30782050726F746F636F6C000000000000000000000000000000000000000000 SWAP3 DUP5 ADD SWAP3 DUP4 MSTORE SWAP5 MLOAD SWAP1 SWAP7 POP SWAP2 SWAP5 POP SWAP1 SWAP3 DUP4 SWAP3 POP DUP1 DUP4 DUP4 JUMPDEST PUSH1 0x20 DUP4 LT PUSH2 0x175 JUMPI DUP1 MLOAD DUP3 MSTORE PUSH1 0x1F NOT SWAP1 SWAP3 ADD SWAP2 PUSH1 0x20 SWAP2 DUP3 ADD SWAP2 ADD PUSH2 0x156 JUMP JUMPDEST MLOAD DUP2 MLOAD PUSH1 0x20 SWAP4 DUP5 SUB PUSH2 0x100 EXP PUSH1 0x0 NOT ADD DUP1 NOT SWAP1 SWAP3 AND SWAP2 AND OR SWAP1 MSTORE PUSH1 0x40 DUP1 MLOAD SWAP3 SWAP1 SWAP5 ADD DUP3 SWAP1 SUB DUP3 KECCAK256 DUP3 DUP6 ADD DUP6 MSTORE PUSH1 0x1 DUP1 DUP5 MSTORE PUSH32 0x3200000000000000000000000000000000000000000000000000000000000000 SWAP3 DUP5 ADD SWAP3 DUP4 MSTORE SWAP5 MLOAD SWAP1 SWAP7 POP SWAP2 SWAP5 POP SWAP1 SWAP3 DUP4 SWAP3 POP DUP1 DUP4 DUP4 JUMPDEST PUSH1 0x20 DUP4 LT PUSH2 0x1FD JUMPI DUP1 MLOAD DUP3 MSTORE PUSH1 0x1F NOT SWAP1 SWAP3 ADD SWAP2 PUSH1 0x20 SWAP2 DUP3 ADD SWAP2 ADD PUSH2 0x1DE JUMP JUMPDEST MLOAD DUP2 MLOAD PUSH1 0x20 SWAP4 DUP5 SUB PUSH2 0x100 EXP PUSH1 0x0 NOT ADD DUP1 NOT SWAP1 SWAP3 AND SWAP2 AND OR SWAP1 MSTORE PUSH1 0x40 DUP1 MLOAD SWAP3 SWAP1 SWAP5 ADD DUP3 SWAP1 SUB DUP3 KECCAK256 DUP3 DUP3 ADD SWAP9 SWAP1 SWAP9 MSTORE DUP2 DUP5 ADD SWAP7 SWAP1 SWAP7 MSTORE PUSH1 0x60 DUP2 ADD SWAP7 SWAP1 SWAP7 MSTORE POP ADDRESS PUSH1 0x80 DUP1 DUP8 ADD SWAP2 SWAP1 SWAP2 MSTORE DUP2 MLOAD DUP1 DUP8 SUB SWAP1 SWAP2 ADD DUP2 MSTORE PUSH1 0xA0 SWAP1 SWAP6 ADD SWAP1 DUP2 SWAP1 MSTORE DUP5 MLOAD SWAP1 SWAP4 DUP5 SWAP4 POP DUP6 ADD SWAP2 POP DUP1 DUP4 DUP4 JUMPDEST PUSH1 0x20 DUP4 LT PUSH2 0x286 JUMPI DUP1 MLOAD DUP3 MSTORE PUSH1 0x1F NOT SWAP1 SWAP3 ADD SWAP2 PUSH1 0x20 SWAP2 DUP3 ADD SWAP2 ADD PUSH2 0x267 JUMP JUMPDEST MLOAD DUP2 MLOAD PUSH1 0x0 NOT PUSH1 0x20 SWAP5 SWAP1 SWAP5 SUB PUSH2 0x100 EXP SWAP4 SWAP1 SWAP4 ADD SWAP3 DUP4 AND SWAP3 NOT AND SWAP2 SWAP1 SWAP2 OR SWAP1 MSTORE PUSH1 0x40 MLOAD SWAP3 ADD DUP3 SWAP1 SUB SWAP1 SWAP2 KECCAK256 PUSH1 0x0 SSTORE POP POP POP PUSH2 0x13B8 DUP1 PUSH2 0x2C6 PUSH1 0x0 CODECOPY PUSH1 0x0 RETURN STOP PUSH1 0x80 PUSH1 0x40 MSTORE PUSH1 0x4 CALLDATASIZE LT PUSH2 0x8D JUMPI PUSH4 0xFFFFFFFF PUSH29 0x100000000000000000000000000000000000000000000000000000000 PUSH1 0x0 CALLDATALOAD DIV AND PUSH4 0x41E63FE DUP2 EQ PUSH2 0x92 JUMPI DUP1 PUSH4 0x494D9297 EQ PUSH2 0xC8 JUMPI DUP1 PUSH4 0x66758D7B EQ PUSH2 0xDD JUMPI DUP1 PUSH4 0x7D33C6EE EQ PUSH2 0x10A JUMPI DUP1 PUSH4 0x8AE63316 EQ PUSH2 0x11F JUMPI DUP1 PUSH4 0xD9802088 EQ PUSH2 0x14C JUMPI DUP1 PUSH4 0xE306F779 EQ PUSH2 0x16C JUMPI DUP1 PUSH4 0xE9C7AA1A EQ PUSH2 0x181 JUMPI JUMPDEST PUSH1 0x0 DUP1 REVERT JUMPDEST CALLVALUE DUP1 ISZERO PUSH2 0x9E JUMPI PUSH1 0x0 DUP1 REVERT JUMPDEST POP PUSH2 0xB2 PUSH2 0xAD CALLDATASIZE PUSH1 0x4 PUSH2 0x1131 JUMP JUMPDEST PUSH2 0x1AE JUMP JUMPDEST PUSH1 0x40 MLOAD PUSH2 0xBF SWAP2 SWAP1 PUSH2 0x124F JUMP JUMPDEST PUSH1 0x40 MLOAD DUP1 SWAP2 SUB SWAP1 RETURN JUMPDEST CALLVALUE DUP1 ISZERO PUSH2 0xD4 JUMPI PUSH1 0x0 DUP1 REVERT JUMPDEST POP PUSH2 0xB2 PUSH2 0x1C3 JUMP JUMPDEST CALLVALUE DUP1 ISZERO PUSH2 0xE9 JUMPI PUSH1 0x0 DUP1 REVERT JUMPDEST POP PUSH2 0xFD PUSH2 0xF8 CALLDATASIZE PUSH1 0x4 PUSH2 0x1045 JUMP JUMPDEST PUSH2 0x31B JUMP JUMPDEST PUSH1 0x40 MLOAD PUSH2 0xBF SWAP2 SWAP1 PUSH2 0x127E JUMP JUMPDEST CALLVALUE DUP1 ISZERO PUSH2 0x116 JUMPI PUSH1 0x0 DUP1 REVERT JUMPDEST POP PUSH2 0xB2 PUSH2 0x336 JUMP JUMPDEST CALLVALUE DUP1 ISZERO PUSH2 0x12B JUMPI PUSH1 0x0 DUP1 REVERT JUMPDEST POP PUSH2 0x13F PUSH2 0x13A CALLDATASIZE PUSH1 0x4 PUSH2 0x1131 JUMP JUMPDEST PUSH2 0x5B6 JUMP JUMPDEST PUSH1 0x40 MLOAD PUSH2 0xBF SWAP2 SWAP1 PUSH2 0x1241 JUMP JUMPDEST CALLVALUE DUP1 ISZERO PUSH2 0x158 JUMPI PUSH1 0x0 DUP1 REVERT JUMPDEST POP PUSH2 0xB2 PUSH2 0x167 CALLDATASIZE PUSH1 0x4 PUSH2 0x1080 JUMP JUMPDEST PUSH2 0x5C3 JUMP JUMPDEST CALLVALUE DUP1 ISZERO PUSH2 0x178 JUMPI PUSH1 0x0 DUP1 REVERT JUMPDEST POP PUSH2 0xB2 PUSH2 0x5CE JUMP JUMPDEST CALLVALUE DUP1 ISZERO PUSH2 0x18D JUMPI PUSH1 0x0 DUP1 REVERT JUMPDEST POP PUSH2 0x1A1 PUSH2 0x19C CALLDATASIZE PUSH1 0x4 PUSH2 0x10B5 JUMP JUMPDEST PUSH2 0x5D4 JUMP JUMPDEST PUSH1 0x40 MLOAD PUSH2 0xBF SWAP2 SWAP1 PUSH2 0x125D JUMP JUMPDEST PUSH1 0x0 PUSH2 0x1BB DUP5 DUP5 DUP5 PUSH2 0x5E1 JUMP JUMPDEST SWAP5 SWAP4 POP POP POP POP JUMP JUMPDEST PUSH1 0x40 DUP1 MLOAD PUSH32 0x454950373132446F6D61696E2800000000000000000000000000000000000000 PUSH1 0x20 DUP1 DUP4 ADD SWAP2 SWAP1 SWAP2 MSTORE PUSH32 0x737472696E67206E616D652C0000000000000000000000000000000000000000 PUSH1 0x2D DUP4 ADD MSTORE PUSH32 0x737472696E672076657273696F6E2C0000000000000000000000000000000000 PUSH1 0x39 DUP4 ADD MSTORE PUSH32 0x6164647265737320766572696679696E67436F6E747261637400000000000000 PUSH1 0x48 DUP4 ADD MSTORE PUSH32 0x2900000000000000000000000000000000000000000000000000000000000000 PUSH1 0x61 DUP4 ADD MSTORE DUP3 MLOAD PUSH1 0x42 DUP2 DUP5 SUB ADD DUP2 MSTORE PUSH1 0x62 SWAP1 SWAP3 ADD SWAP3 DUP4 SWAP1 MSTORE DUP2 MLOAD PUSH1 0x0 SWAP4 SWAP2 DUP3 SWAP2 SWAP1 DUP5 ADD SWAP1 DUP1 DUP4 DUP4 JUMPDEST PUSH1 0x20 DUP4 LT PUSH2 0x2E9 JUMPI DUP1 MLOAD DUP3 MSTORE PUSH32 0xFFFFFFFFFFFFFFFFFFFFFFFFFFFFFFFFFFFFFFFFFFFFFFFFFFFFFFFFFFFFFFE0 SWAP1 SWAP3 ADD SWAP2 PUSH1 0x20 SWAP2 DUP3 ADD SWAP2 ADD PUSH2 0x2AC JUMP JUMPDEST PUSH1 0x1 DUP4 PUSH1 0x20 SUB PUSH2 0x100 EXP SUB DUP1 NOT DUP3 MLOAD AND DUP2 DUP5 MLOAD AND DUP1 DUP3 OR DUP6 MSTORE POP POP POP POP POP POP SWAP1 POP ADD SWAP2 POP POP PUSH1 0x40 MLOAD DUP1 SWAP2 SUB SWAP1 KECCAK256 SWAP1 POP SWAP1 JUMP JUMPDEST PUSH2 0x323 PUSH2 0xDF1 JUMP JUMPDEST PUSH2 0x32D DUP4 DUP4 PUSH2 0x5F6 JUMP JUMPDEST POP DUP2 JUMPDEST SWAP3 SWAP2 POP POP JUMP JUMPDEST PUSH1 0x40 DUP1 MLOAD PUSH32 0x4F72646572280000000000000000000000000000000000000000000000000000 PUSH1 0x20 DUP1 DUP4 ADD SWAP2 SWAP1 SWAP2 MSTORE PUSH32 0x61646472657373206D616B6572416464726573732C0000000000000000000000 PUSH1 0x26 DUP4 ADD MSTORE PUSH32 0x616464726573732074616B6572416464726573732C0000000000000000000000 PUSH1 0x3B DUP4 ADD MSTORE PUSH32 0x6164647265737320666565526563697069656E74416464726573732C00000000 PUSH1 0x50 DUP4 ADD MSTORE PUSH32 0x616464726573732073656E646572416464726573732C00000000000000000000 PUSH1 0x6C DUP4 ADD MSTORE PUSH32 0x75696E74323536206D616B65724173736574416D6F756E742C00000000000000 PUSH1 0x82 DUP4 ADD MSTORE PUSH32 0x75696E743235362074616B65724173736574416D6F756E742C00000000000000 PUSH1 0x9B DUP4 ADD MSTORE PUSH32 0x75696E74323536206D616B65724665652C000000000000000000000000000000 PUSH1 0xB4 DUP4 ADD MSTORE PUSH32 0x75696E743235362074616B65724665652C000000000000000000000000000000 PUSH1 0xC5 DUP4 ADD MSTORE PUSH32 0x75696E743235362065787069726174696F6E54696D655365636F6E64732C0000 PUSH1 0xD6 DUP4 ADD MSTORE PUSH32 0x75696E743235362073616C742C00000000000000000000000000000000000000 PUSH1 0xF4 DUP4 ADD MSTORE PUSH32 0x6279746573206D616B65724173736574446174612C0000000000000000000000 PUSH2 0x101 DUP4 ADD MSTORE PUSH32 0x62797465732074616B6572417373657444617461000000000000000000000000 PUSH2 0x116 DUP4 ADD MSTORE PUSH32 0x2900000000000000000000000000000000000000000000000000000000000000 PUSH2 0x12A DUP4 ADD MSTORE DUP3 MLOAD PUSH2 0x10B DUP2 DUP5 SUB ADD DUP2 MSTORE PUSH2 0x12B SWAP1 SWAP3 ADD SWAP3 DUP4 SWAP1 MSTORE DUP2 MLOAD PUSH1 0x0 SWAP4 SWAP2 DUP3 SWAP2 SWAP1 DUP5 ADD SWAP1 DUP1 DUP4 DUP4 PUSH1 0x20 DUP4 LT PUSH2 0x2E9 JUMPI DUP1 MLOAD DUP3 MSTORE PUSH32 0xFFFFFFFFFFFFFFFFFFFFFFFFFFFFFFFFFFFFFFFFFFFFFFFFFFFFFFFFFFFFFFE0 SWAP1 SWAP3 ADD SWAP2 PUSH1 0x20 SWAP2 DUP3 ADD SWAP2 ADD PUSH2 0x2AC JUMP JUMPDEST PUSH1 0x0 PUSH2 0x1BB DUP5 DUP5 DUP5 PUSH2 0x658 JUMP JUMPDEST PUSH1 0x0 PUSH2 0x330 DUP3 PUSH2 0x6AE JUMP JUMPDEST PUSH1 0x0 SLOAD DUP2 JUMP JUMPDEST PUSH1 0x60 PUSH2 0x1BB DUP5 DUP5 DUP5 PUSH2 0x6C1 JUMP JUMPDEST PUSH1 0x0 PUSH2 0x1BB PUSH2 0x5F0 DUP6 DUP5 PUSH2 0x893 JUMP JUMPDEST DUP5 PUSH2 0x902 JUMP JUMPDEST DUP2 MLOAD DUP2 MLOAD PUSH2 0x604 SWAP2 SWAP1 PUSH2 0x919 JUMP JUMPDEST DUP3 MSTORE PUSH1 0x20 DUP1 DUP4 ADD MLOAD SWAP1 DUP3 ADD MLOAD PUSH2 0x61A SWAP2 SWAP1 PUSH2 0x919 JUMP JUMPDEST PUSH1 0x20 DUP4 ADD MSTORE PUSH1 0x40 DUP1 DUP4 ADD MLOAD SWAP1 DUP3 ADD MLOAD PUSH2 0x633 SWAP2 SWAP1 PUSH2 0x919 JUMP JUMPDEST PUSH1 0x40 DUP4 ADD MSTORE PUSH1 0x60 DUP1 DUP4 ADD MLOAD SWAP1 DUP3 ADD MLOAD PUSH2 0x64C SWAP2 SWAP1 PUSH2 0x919 JUMP JUMPDEST PUSH1 0x60 SWAP1 SWAP3 ADD SWAP2 SWAP1 SWAP2 MSTORE POP JUMP JUMPDEST PUSH1 0x0 DUP1 PUSH1 0x0 DUP5 DUP1 ISZERO ISZERO PUSH2 0x667 JUMPI INVALID JUMPDEST DUP7 DUP6 MULMOD SWAP2 POP DUP2 ISZERO ISZERO PUSH2 0x67C JUMPI PUSH1 0x0 SWAP3 POP PUSH2 0x6A5 JUMP JUMPDEST PUSH2 0x69B PUSH2 0x68C DUP4 PUSH3 0xF4240 PUSH2 0x893 JUMP JUMPDEST PUSH2 0x696 DUP9 DUP8 PUSH2 0x893 JUMP JUMPDEST PUSH2 0x902 JUMP JUMPDEST PUSH2 0x3E8 DUP2 GT SWAP4 POP SWAP1 POP JUMPDEST POP POP SWAP4 SWAP3 POP POP POP JUMP JUMPDEST PUSH1 0x0 PUSH2 0x330 PUSH2 0x6BC DUP4 PUSH2 0x958 JUMP JUMPDEST PUSH2 0xDB1 JUMP JUMPDEST PUSH1 0x40 DUP1 MLOAD PUSH32 0xB4BE83D500000000000000000000000000000000000000000000000000000000 PUSH1 0x20 DUP1 DUP4 ADD SWAP2 SWAP1 SWAP2 MSTORE PUSH1 0x60 PUSH1 0x24 DUP4 ADD DUP2 DUP2 MSTORE DUP8 MLOAD PUSH1 0x84 DUP6 ADD SWAP1 DUP2 MSTORE DUP9 DUP5 ADD MLOAD PUSH1 0xA4 DUP7 ADD MSTORE SWAP5 DUP9 ADD MLOAD PUSH1 0xC4 DUP6 ADD MSTORE SWAP1 DUP8 ADD MLOAD PUSH1 0xE4 DUP5 ADD MSTORE PUSH1 0x80 DUP8 ADD MLOAD PUSH2 0x104 DUP5 ADD MSTORE PUSH1 0xA0 DUP8 ADD MLOAD PUSH2 0x124 DUP5 ADD MSTORE PUSH1 0xC0 DUP8 ADD MLOAD PUSH2 0x144 DUP5 ADD MSTORE PUSH1 0xE0 DUP8 ADD MLOAD PUSH2 0x164 DUP5 ADD MSTORE PUSH2 0x100 DUP8 ADD MLOAD PUSH2 0x184 DUP5 ADD MSTORE PUSH2 0x120 DUP8 ADD MLOAD PUSH2 0x1A4 DUP5 ADD MSTORE PUSH2 0x140 DUP8 ADD DUP1 MLOAD PUSH2 0x1C4 DUP6 ADD SWAP1 DUP2 MSTORE PUSH2 0x160 DUP10 ADD MLOAD PUSH2 0x1E4 DUP7 ADD MSTORE PUSH2 0x180 SWAP1 MSTORE MLOAD DUP1 MLOAD PUSH2 0x204 DUP6 ADD DUP2 SWAP1 MSTORE SWAP4 SWAP5 SWAP2 SWAP4 DUP5 SWAP4 PUSH1 0x44 DUP8 ADD SWAP3 DUP5 SWAP3 PUSH2 0x224 DUP10 ADD SWAP3 SWAP2 DUP3 ADD SWAP2 PUSH1 0x1F DUP3 ADD DIV PUSH1 0x0 JUMPDEST DUP2 DUP2 LT ISZERO PUSH2 0x7C8 JUMPI DUP4 MLOAD DUP6 MSTORE PUSH1 0x20 SWAP5 DUP6 ADD SWAP5 SWAP1 SWAP4 ADD SWAP3 PUSH1 0x1 ADD PUSH2 0x7AA JUMP JUMPDEST POP POP POP POP DUP2 DUP2 SUB PUSH2 0x160 DUP1 DUP5 ADD SWAP2 SWAP1 SWAP2 MSTORE DUP11 ADD MLOAD DUP1 MLOAD DUP1 DUP4 MSTORE PUSH1 0x20 SWAP3 DUP4 ADD SWAP3 SWAP2 DUP3 ADD SWAP2 PUSH1 0x1F DUP3 ADD DIV PUSH1 0x0 JUMPDEST DUP2 DUP2 LT ISZERO PUSH2 0x811 JUMPI DUP4 MLOAD DUP6 MSTORE PUSH1 0x20 SWAP5 DUP6 ADD SWAP5 SWAP1 SWAP4 ADD SWAP3 PUSH1 0x1 ADD PUSH2 0x7F3 JUMP JUMPDEST POP POP POP DUP10 DUP5 MSTORE POP DUP5 DUP2 SUB PUSH1 0x20 SWAP4 DUP5 ADD SWAP1 DUP2 MSTORE DUP9 MLOAD DUP1 DUP4 MSTORE SWAP1 SWAP4 SWAP2 DUP3 ADD SWAP2 DUP10 DUP2 ADD SWAP2 SWAP1 PUSH1 0x1F DUP3 ADD DIV PUSH1 0x0 JUMPDEST DUP2 DUP2 LT ISZERO PUSH2 0x859 JUMPI DUP4 MLOAD DUP6 MSTORE PUSH1 0x20 SWAP5 DUP6 ADD SWAP5 SWAP1 SWAP4 ADD SWAP3 PUSH1 0x1 ADD PUSH2 0x83B JUMP JUMPDEST POP POP POP PUSH32 0xFFFFFFFFFFFFFFFFFFFFFFFFFFFFFFFFFFFFFFFFFFFFFFFFFFFFFFFFFFFFFFE0 DUP9 DUP4 SUB ADD DUP9 MSTORE POP PUSH1 0x40 MSTORE POP POP POP POP POP SWAP4 SWAP3 POP POP POP JUMP JUMPDEST PUSH1 0x0 DUP1 DUP4 ISZERO ISZERO PUSH2 0x8A6 JUMPI PUSH1 0x0 SWAP2 POP PUSH2 0x8FB JUMP JUMPDEST POP DUP3 DUP3 MUL DUP3 DUP5 DUP3 DUP2 ISZERO ISZERO PUSH2 0x8B6 JUMPI INVALID JUMPDEST DIV EQ PUSH2 0x8F7 JUMPI PUSH1 0x40 MLOAD PUSH32 0x8C379A000000000000000000000000000000000000000000000000000000000 DUP2 MSTORE PUSH1 0x4 ADD PUSH2 0x8EE SWAP1 PUSH2 0x126E JUMP JUMPDEST PUSH1 0x40 MLOAD DUP1 SWAP2 SUB SWAP1 REVERT JUMPDEST DUP1 SWAP2 POP JUMPDEST POP SWAP3 SWAP2 POP POP JUMP JUMPDEST PUSH1 0x0 DUP1 DUP3 DUP5 DUP2 ISZERO ISZERO PUSH2 0x910 JUMPI INVALID JUMPDEST DIV SWAP5 SWAP4 POP POP POP POP JUMP JUMPDEST PUSH1 0x0 DUP3 DUP3 ADD DUP4 DUP2 LT ISZERO PUSH2 0x8F7 JUMPI PUSH1 0x40 MLOAD PUSH32 0x8C379A000000000000000000000000000000000000000000000000000000000 DUP2 MSTORE PUSH1 0x4 ADD PUSH2 0x8EE SWAP1 PUSH2 0x126E JUMP JUMPDEST PUSH1 0x40 DUP1 MLOAD PUSH32 0x4F72646572280000000000000000000000000000000000000000000000000000 PUSH1 0x20 DUP1 DUP4 ADD SWAP2 SWAP1 SWAP2 MSTORE PUSH32 0x61646472657373206D616B6572416464726573732C0000000000000000000000 PUSH1 0x26 DUP4 ADD MSTORE PUSH32 0x616464726573732074616B6572416464726573732C0000000000000000000000 PUSH1 0x3B DUP4 ADD MSTORE PUSH32 0x6164647265737320666565526563697069656E74416464726573732C00000000 PUSH1 0x50 DUP4 ADD MSTORE PUSH32 0x616464726573732073656E646572416464726573732C00000000000000000000 PUSH1 0x6C DUP4 ADD MSTORE PUSH32 0x75696E74323536206D616B65724173736574416D6F756E742C00000000000000 PUSH1 0x82 DUP4 ADD MSTORE PUSH32 0x75696E743235362074616B65724173736574416D6F756E742C00000000000000 PUSH1 0x9B DUP4 ADD MSTORE PUSH32 0x75696E74323536206D616B65724665652C000000000000000000000000000000 PUSH1 0xB4 DUP4 ADD MSTORE PUSH32 0x75696E743235362074616B65724665652C000000000000000000000000000000 PUSH1 0xC5 DUP4 ADD MSTORE PUSH32 0x75696E743235362065787069726174696F6E54696D655365636F6E64732C0000 PUSH1 0xD6 DUP4 ADD MSTORE PUSH32 0x75696E743235362073616C742C00000000000000000000000000000000000000 PUSH1 0xF4 DUP4 ADD MSTORE PUSH32 0x6279746573206D616B65724173736574446174612C0000000000000000000000 PUSH2 0x101 DUP4 ADD MSTORE PUSH32 0x62797465732074616B6572417373657444617461000000000000000000000000 PUSH2 0x116 DUP4 ADD MSTORE PUSH32 0x2900000000000000000000000000000000000000000000000000000000000000 PUSH2 0x12A DUP4 ADD MSTORE DUP3 MLOAD PUSH2 0x10B DUP2 DUP5 SUB ADD DUP2 MSTORE PUSH2 0x12B SWAP1 SWAP3 ADD SWAP3 DUP4 SWAP1 MSTORE DUP2 MLOAD PUSH1 0x0 SWAP4 DUP5 SWAP4 DUP5 SWAP4 DUP5 SWAP4 SWAP2 SWAP3 SWAP2 DUP3 SWAP2 DUP5 ADD SWAP1 DUP1 DUP4 DUP4 JUMPDEST PUSH1 0x20 DUP4 LT PUSH2 0xBE0 JUMPI DUP1 MLOAD DUP3 MSTORE PUSH32 0xFFFFFFFFFFFFFFFFFFFFFFFFFFFFFFFFFFFFFFFFFFFFFFFFFFFFFFFFFFFFFFE0 SWAP1 SWAP3 ADD SWAP2 PUSH1 0x20 SWAP2 DUP3 ADD SWAP2 ADD PUSH2 0xBA3 JUMP JUMPDEST MLOAD DUP2 MLOAD PUSH1 0x20 SWAP4 DUP5 SUB PUSH2 0x100 EXP PUSH32 0xFFFFFFFFFFFFFFFFFFFFFFFFFFFFFFFFFFFFFFFFFFFFFFFFFFFFFFFFFFFFFFFF ADD DUP1 NOT SWAP1 SWAP3 AND SWAP2 AND OR SWAP1 MSTORE PUSH1 0x40 MLOAD SWAP2 SWAP1 SWAP4 ADD DUP2 SWAP1 SUB DUP2 KECCAK256 PUSH2 0x140 DUP12 ADD MLOAD DUP1 MLOAD SWAP2 SWAP10 POP SWAP6 POP SWAP1 SWAP4 POP DUP4 SWAP3 DUP6 ADD SWAP2 POP DUP1 DUP4 DUP4 JUMPDEST PUSH1 0x20 DUP4 LT PUSH2 0xC7B JUMPI DUP1 MLOAD DUP3 MSTORE PUSH32 0xFFFFFFFFFFFFFFFFFFFFFFFFFFFFFFFFFFFFFFFFFFFFFFFFFFFFFFFFFFFFFFE0 SWAP1 SWAP3 ADD SWAP2 PUSH1 0x20 SWAP2 DUP3 ADD SWAP2 ADD PUSH2 0xC3E JUMP JUMPDEST MLOAD DUP2 MLOAD PUSH1 0x20 SWAP4 DUP5 SUB PUSH2 0x100 EXP PUSH32 0xFFFFFFFFFFFFFFFFFFFFFFFFFFFFFFFFFFFFFFFFFFFFFFFFFFFFFFFFFFFFFFFF ADD DUP1 NOT SWAP1 SWAP3 AND SWAP2 AND OR SWAP1 MSTORE PUSH1 0x40 MLOAD SWAP2 SWAP1 SWAP4 ADD DUP2 SWAP1 SUB DUP2 KECCAK256 PUSH2 0x160 DUP12 ADD MLOAD DUP1 MLOAD SWAP2 SWAP9 POP SWAP6 POP SWAP1 SWAP4 POP DUP4 SWAP3 DUP6 ADD SWAP2 POP DUP1 DUP4 DUP4 JUMPDEST PUSH1 0x20 DUP4 LT PUSH2 0xD16 JUMPI DUP1 MLOAD DUP3 MSTORE PUSH32 0xFFFFFFFFFFFFFFFFFFFFFFFFFFFFFFFFFFFFFFFFFFFFFFFFFFFFFFFFFFFFFFE0 SWAP1 SWAP3 ADD SWAP2 PUSH1 0x20 SWAP2 DUP3 ADD SWAP2 ADD PUSH2 0xCD9 JUMP JUMPDEST MLOAD DUP2 MLOAD PUSH1 0x20 SWAP4 SWAP1 SWAP4 SUB PUSH2 0x100 EXP PUSH32 0xFFFFFFFFFFFFFFFFFFFFFFFFFFFFFFFFFFFFFFFFFFFFFFFFFFFFFFFFFFFFFFFF ADD DUP1 NOT SWAP1 SWAP2 AND SWAP3 AND SWAP2 SWAP1 SWAP2 OR SWAP1 MSTORE PUSH1 0x40 MLOAD SWAP3 ADD DUP3 SWAP1 SUB SWAP1 SWAP2 KECCAK256 PUSH32 0xFFFFFFFFFFFFFFFFFFFFFFFFFFFFFFFFFFFFFFFFFFFFFFFFFFFFFFFFFFFFFFE0 DUP10 ADD DUP1 MLOAD PUSH2 0x140 DUP12 ADD DUP1 MLOAD PUSH2 0x160 SWAP1 SWAP13 ADD DUP1 MLOAD SWAP11 DUP5 MSTORE SWAP9 DUP2 MSTORE SWAP3 DUP9 MSTORE PUSH2 0x1A0 DUP3 KECCAK256 SWAP2 MSTORE SWAP9 SWAP1 MSTORE POP POP POP SWAP2 SWAP1 MSTORE POP SWAP1 SWAP2 SWAP1 POP JUMP JUMPDEST PUSH1 0x0 SLOAD PUSH1 0x40 MLOAD PUSH32 0x1901000000000000000000000000000000000000000000000000000000000000 DUP2 MSTORE PUSH1 0x2 DUP2 ADD SWAP2 SWAP1 SWAP2 MSTORE PUSH1 0x22 DUP2 ADD SWAP2 SWAP1 SWAP2 MSTORE PUSH1 0x42 SWAP1 KECCAK256 SWAP1 JUMP JUMPDEST PUSH1 0x80 PUSH1 0x40 MLOAD SWAP1 DUP2 ADD PUSH1 0x40 MSTORE DUP1 PUSH1 0x0 DUP2 MSTORE PUSH1 0x20 ADD PUSH1 0x0 DUP2 MSTORE PUSH1 0x20 ADD PUSH1 0x0 DUP2 MSTORE PUSH1 0x20 ADD PUSH1 0x0 DUP2 MSTORE POP SWAP1 JUMP JUMPDEST PUSH1 0x0 PUSH2 0xE26 DUP3 CALLDATALOAD PUSH2 0x1305 JUMP JUMPDEST SWAP4 SWAP3 POP POP POP JUMP JUMPDEST PUSH1 0x0 PUSH1 0x1F DUP3 ADD DUP4 SGT PUSH2 0xE3E JUMPI PUSH1 0x0 DUP1 REVERT JUMPDEST DUP2 CALLDATALOAD PUSH2 0xE51 PUSH2 0xE4C DUP3 PUSH2 0x12B3 JUMP JUMPDEST PUSH2 0x128C JUMP JUMPDEST SWAP2 POP DUP1 DUP3 MSTORE PUSH1 0x20 DUP4 ADD PUSH1 0x20 DUP4 ADD DUP6 DUP4 DUP4 ADD GT ISZERO PUSH2 0xE6D JUMPI PUSH1 0x0 DUP1 REVERT JUMPDEST PUSH2 0xE78 DUP4 DUP3 DUP5 PUSH2 0x131E JUMP JUMPDEST POP POP POP SWAP3 SWAP2 POP POP JUMP JUMPDEST PUSH1 0x0 PUSH1 0x80 DUP3 DUP5 SUB SLT ISZERO PUSH2 0xE93 JUMPI PUSH1 0x0 DUP1 REVERT JUMPDEST PUSH2 0xE9D PUSH1 0x80 PUSH2 0x128C JUMP JUMPDEST SWAP1 POP PUSH1 0x0 PUSH2 0xEAB DUP5 DUP5 PUSH2 0x1039 JUMP JUMPDEST DUP3 MSTORE POP PUSH1 0x20 PUSH2 0xEBC DUP5 DUP5 DUP4 ADD PUSH2 0x1039 JUMP JUMPDEST PUSH1 0x20 DUP4 ADD MSTORE POP PUSH1 0x40 PUSH2 0xED0 DUP5 DUP3 DUP6 ADD PUSH2 0x1039 JUMP JUMPDEST PUSH1 0x40 DUP4 ADD MSTORE POP PUSH1 0x60 PUSH2 0xEE4 DUP5 DUP3 DUP6 ADD PUSH2 0x1039 JUMP JUMPDEST PUSH1 0x60 DUP4 ADD MSTORE POP SWAP3 SWAP2 POP POP JUMP JUMPDEST PUSH1 0x0 PUSH2 0x180 DUP3 DUP5 SUB SLT ISZERO PUSH2 0xF03 JUMPI PUSH1 0x0 DUP1 REVERT JUMPDEST PUSH2 0xF0E PUSH2 0x180 PUSH2 0x128C JUMP JUMPDEST SWAP1 POP PUSH1 0x0 PUSH2 0xF1C DUP5 DUP5 PUSH2 0xE1A JUMP JUMPDEST DUP3 MSTORE POP PUSH1 0x20 PUSH2 0xF2D DUP5 DUP5 DUP4 ADD PUSH2 0xE1A JUMP JUMPDEST PUSH1 0x20 DUP4 ADD MSTORE POP PUSH1 0x40 PUSH2 0xF41 DUP5 DUP3 DUP6 ADD PUSH2 0xE1A JUMP JUMPDEST PUSH1 0x40 DUP4 ADD MSTORE POP PUSH1 0x60 PUSH2 0xF55 DUP5 DUP3 DUP6 ADD PUSH2 0xE1A JUMP JUMPDEST PUSH1 0x60 DUP4 ADD MSTORE POP PUSH1 0x80 PUSH2 0xF69 DUP5 DUP3 DUP6 ADD PUSH2 0x1039 JUMP JUMPDEST PUSH1 0x80 DUP4 ADD MSTORE POP PUSH1 0xA0 PUSH2 0xF7D DUP5 DUP3 DUP6 ADD PUSH2 0x1039 JUMP JUMPDEST PUSH1 0xA0 DUP4 ADD MSTORE POP PUSH1 0xC0 PUSH2 0xF91 DUP5 DUP3 DUP6 ADD PUSH2 0x1039 JUMP JUMPDEST PUSH1 0xC0 DUP4 ADD MSTORE POP PUSH1 0xE0 PUSH2 0xFA5 DUP5 DUP3 DUP6 ADD PUSH2 0x1039 JUMP JUMPDEST PUSH1 0xE0 DUP4 ADD MSTORE POP PUSH2 0x100 PUSH2 0xFBA DUP5 DUP3 DUP6 ADD PUSH2 0x1039 JUMP JUMPDEST PUSH2 0x100 DUP4 ADD MSTORE POP PUSH2 0x120 PUSH2 0xFD0 DUP5 DUP3 DUP6 ADD PUSH2 0x1039 JUMP JUMPDEST PUSH2 0x120 DUP4 ADD MSTORE POP PUSH2 0x140 DUP3 ADD CALLDATALOAD PUSH8 0xFFFFFFFFFFFFFFFF DUP2 GT ISZERO PUSH2 0xFF2 JUMPI PUSH1 0x0 DUP1 REVERT JUMPDEST PUSH2 0xFFE DUP5 DUP3 DUP6 ADD PUSH2 0xE2D JUMP JUMPDEST PUSH2 0x140 DUP4 ADD MSTORE POP PUSH2 0x160 DUP3 ADD CALLDATALOAD PUSH8 0xFFFFFFFFFFFFFFFF DUP2 GT ISZERO PUSH2 0x1020 JUMPI PUSH1 0x0 DUP1 REVERT JUMPDEST PUSH2 0x102C DUP5 DUP3 DUP6 ADD PUSH2 0xE2D JUMP JUMPDEST PUSH2 0x160 DUP4 ADD MSTORE POP SWAP3 SWAP2 POP POP JUMP JUMPDEST PUSH1 0x0 PUSH2 0xE26 DUP3 CALLDATALOAD PUSH2 0x1302 JUMP JUMPDEST PUSH1 0x0 DUP1 PUSH2 0x100 DUP4 DUP6 SUB SLT ISZERO PUSH2 0x1059 JUMPI PUSH1 0x0 DUP1 REVERT JUMPDEST PUSH1 0x0 PUSH2 0x1065 DUP6 DUP6 PUSH2 0xE81 JUMP JUMPDEST SWAP3 POP POP PUSH1 0x80 PUSH2 0x1076 DUP6 DUP3 DUP7 ADD PUSH2 0xE81 JUMP JUMPDEST SWAP2 POP POP SWAP3 POP SWAP3 SWAP1 POP JUMP JUMPDEST PUSH1 0x0 PUSH1 0x20 DUP3 DUP5 SUB SLT ISZERO PUSH2 0x1092 JUMPI PUSH1 0x0 DUP1 REVERT JUMPDEST DUP2 CALLDATALOAD PUSH8 0xFFFFFFFFFFFFFFFF DUP2 GT ISZERO PUSH2 0x10A9 JUMPI PUSH1 0x0 DUP1 REVERT JUMPDEST PUSH2 0x1BB DUP5 DUP3 DUP6 ADD PUSH2 0xEF0 JUMP JUMPDEST PUSH1 0x0 DUP1 PUSH1 0x0 PUSH1 0x60 DUP5 DUP7 SUB SLT ISZERO PUSH2 0x10CA JUMPI PUSH1 0x0 DUP1 REVERT JUMPDEST DUP4 CALLDATALOAD PUSH8 0xFFFFFFFFFFFFFFFF DUP2 GT ISZERO PUSH2 0x10E1 JUMPI PUSH1 0x0 DUP1 REVERT JUMPDEST PUSH2 0x10ED DUP7 DUP3 DUP8 ADD PUSH2 0xEF0 JUMP JUMPDEST SWAP4 POP POP PUSH1 0x20 PUSH2 0x10FE DUP7 DUP3 DUP8 ADD PUSH2 0x1039 JUMP JUMPDEST SWAP3 POP POP PUSH1 0x40 DUP5 ADD CALLDATALOAD PUSH8 0xFFFFFFFFFFFFFFFF DUP2 GT ISZERO PUSH2 0x111B JUMPI PUSH1 0x0 DUP1 REVERT JUMPDEST PUSH2 0x1127 DUP7 DUP3 DUP8 ADD PUSH2 0xE2D JUMP JUMPDEST SWAP2 POP POP SWAP3 POP SWAP3 POP SWAP3 JUMP JUMPDEST PUSH1 0x0 DUP1 PUSH1 0x0 PUSH1 0x60 DUP5 DUP7 SUB SLT ISZERO PUSH2 0x1146 JUMPI PUSH1 0x0 DUP1 REVERT JUMPDEST PUSH1 0x0 PUSH2 0x1152 DUP7 DUP7 PUSH2 0x1039 JUMP JUMPDEST SWAP4 POP POP PUSH1 0x20 PUSH2 0x1163 DUP7 DUP3 DUP8 ADD PUSH2 0x1039 JUMP JUMPDEST SWAP3 POP POP PUSH1 0x40 PUSH2 0x1127 DUP7 DUP3 DUP8 ADD PUSH2 0x1039 JUMP JUMPDEST PUSH2 0x117D DUP2 PUSH2 0x12FD JUMP JUMPDEST DUP3 MSTORE POP POP JUMP JUMPDEST PUSH2 0x117D DUP2 PUSH2 0x1302 JUMP JUMPDEST PUSH1 0x0 PUSH2 0x1197 DUP3 PUSH2 0x12F9 JUMP JUMPDEST DUP1 DUP5 MSTORE PUSH2 0x11AB DUP2 PUSH1 0x20 DUP7 ADD PUSH1 0x20 DUP7 ADD PUSH2 0x132A JUMP JUMPDEST PUSH2 0x11B4 DUP2 PUSH2 0x1356 JUMP JUMPDEST SWAP1 SWAP4 ADD PUSH1 0x20 ADD SWAP4 SWAP3 POP POP POP JUMP JUMPDEST PUSH1 0x10 DUP2 MSTORE PUSH32 0x55494E543235365F4F564552464C4F5700000000000000000000000000000000 PUSH1 0x20 DUP3 ADD MSTORE PUSH1 0x40 ADD SWAP1 JUMP JUMPDEST DUP1 MLOAD PUSH1 0x80 DUP4 ADD SWAP1 PUSH2 0x1202 DUP5 DUP3 PUSH2 0x1183 JUMP JUMPDEST POP PUSH1 0x20 DUP3 ADD MLOAD PUSH2 0x1215 PUSH1 0x20 DUP6 ADD DUP3 PUSH2 0x1183 JUMP JUMPDEST POP PUSH1 0x40 DUP3 ADD MLOAD PUSH2 0x1228 PUSH1 0x40 DUP6 ADD DUP3 PUSH2 0x1183 JUMP JUMPDEST POP PUSH1 0x60 DUP3 ADD MLOAD PUSH2 0x123B PUSH1 0x60 DUP6 ADD DUP3 PUSH2 0x1183 JUMP JUMPDEST POP POP POP POP JUMP JUMPDEST PUSH1 0x20 DUP2 ADD PUSH2 0x330 DUP3 DUP5 PUSH2 0x1174 JUMP JUMPDEST PUSH1 0x20 DUP2 ADD PUSH2 0x330 DUP3 DUP5 PUSH2 0x1183 JUMP JUMPDEST PUSH1 0x20 DUP1 DUP3 MSTORE DUP2 ADD PUSH2 0xE26 DUP2 DUP5 PUSH2 0x118C JUMP JUMPDEST PUSH1 0x20 DUP1 DUP3 MSTORE DUP2 ADD PUSH2 0x330 DUP2 PUSH2 0x11C1 JUMP JUMPDEST PUSH1 0x80 DUP2 ADD PUSH2 0x330 DUP3 DUP5 PUSH2 0x11F1 JUMP JUMPDEST PUSH1 0x40 MLOAD DUP2 DUP2 ADD PUSH8 0xFFFFFFFFFFFFFFFF DUP2 GT DUP3 DUP3 LT OR ISZERO PUSH2 0x12AB JUMPI PUSH1 0x0 DUP1 REVERT JUMPDEST PUSH1 0x40 MSTORE SWAP2 SWAP1 POP JUMP JUMPDEST PUSH1 0x0 PUSH8 0xFFFFFFFFFFFFFFFF DUP3 GT ISZERO PUSH2 0x12CA JUMPI PUSH1 0x0 DUP1 REVERT JUMPDEST POP PUSH1 0x20 PUSH1 0x1F SWAP2 SWAP1 SWAP2 ADD PUSH32 0xFFFFFFFFFFFFFFFFFFFFFFFFFFFFFFFFFFFFFFFFFFFFFFFFFFFFFFFFFFFFFFE0 AND ADD SWAP1 JUMP JUMPDEST MLOAD SWAP1 JUMP JUMPDEST ISZERO ISZERO SWAP1 JUMP JUMPDEST SWAP1 JUMP JUMPDEST PUSH20 0xFFFFFFFFFFFFFFFFFFFFFFFFFFFFFFFFFFFFFFFF AND SWAP1 JUMP JUMPDEST DUP3 DUP2 DUP4 CALLDATACOPY POP PUSH1 0x0 SWAP2 ADD MSTORE JUMP JUMPDEST PUSH1 0x0 JUMPDEST DUP4 DUP2 LT ISZERO PUSH2 0x1345 JUMPI DUP2 DUP2 ADD MLOAD DUP4 DUP3 ADD MSTORE PUSH1 0x20 ADD PUSH2 0x132D JUMP JUMPDEST DUP4 DUP2 GT ISZERO PUSH2 0x123B JUMPI POP POP PUSH1 0x0 SWAP2 ADD MSTORE JUMP JUMPDEST PUSH1 0x1F ADD PUSH32 0xFFFFFFFFFFFFFFFFFFFFFFFFFFFFFFFFFFFFFFFFFFFFFFFFFFFFFFFFFFFFFFE0 AND SWAP1 JUMP STOP LOG2 PUSH6 0x627A7A723058 KECCAK256 DUP5 BALANCE PC 0xb3 0x2b LOG1 CALLDATACOPY SHL 0xbd SWAP5 DUP9 SWAP13 EXTCODECOPY 0xc2 0x4c 0x2e 0xd5 ADD PUSH6 0xE2C2D2487638 EQ 0xd5 DUP15 INVALID ORIGIN 0xc7 PUSH21 0x6C6578706572696D656E74616CF500370000000000 "
			}
		}
	},
	"sourceTreeHashHex": "0x5cd39689b8d545b46ea1dd66975d62544809b7d27e913ace8cae37772da6e1a8",
	"compiler": {
		"name": "solc",
		"version": "soljson-v0.4.24+commit.e67f0147.js",
		"settings": {
			"optimizer": {
				"enabled": true,
				"runs": 1000000
			},
			"outputSelection": {
				"*": {
					"*": [
						"abi",
						"evm.bytecode.object",
						"evm.bytecode.sourceMap",
						"evm.deployedBytecode.object",
						"evm.deployedBytecode.sourceMap"
					]
				}
			}
		}
	}
}