{
	"schemaVersion": "2.0.0",
	"contractName": "TestLibBytes",
	"compilerOutput": {
		"abi": [
			{
				"constant": true,
				"inputs": [
					{
						"name": "b",
						"type": "bytes"
					}
				],
				"name": "publicPopLastByte",
				"outputs": [
					{
						"name": "",
						"type": "bytes"
					},
					{
						"name": "result",
						"type": "bytes1"
					}
				],
				"payable": false,
				"stateMutability": "pure",
				"type": "function"
			},
			{
				"constant": true,
				"inputs": [
					{
						"name": "b",
						"type": "bytes"
					},
					{
						"name": "index",
						"type": "uint256"
					}
				],
				"name": "publicReadBytesWithLength",
				"outputs": [
					{
						"name": "result",
						"type": "bytes"
					}
				],
				"payable": false,
				"stateMutability": "pure",
				"type": "function"
			},
			{
				"constant": true,
				"inputs": [
					{
						"name": "dest",
						"type": "bytes"
					},
					{
						"name": "source",
						"type": "bytes"
					}
				],
				"name": "publicDeepCopyBytes",
				"outputs": [
					{
						"name": "",
						"type": "bytes"
					}
				],
				"payable": false,
				"stateMutability": "pure",
				"type": "function"
			},
			{
				"constant": true,
				"inputs": [
					{
						"name": "b",
						"type": "bytes"
					},
					{
						"name": "index",
						"type": "uint256"
					},
					{
						"name": "input",
						"type": "address"
					}
				],
				"name": "publicWriteAddress",
				"outputs": [
					{
						"name": "",
						"type": "bytes"
					}
				],
				"payable": false,
				"stateMutability": "pure",
				"type": "function"
			},
			{
				"constant": true,
				"inputs": [
					{
						"name": "b",
						"type": "bytes"
					},
					{
						"name": "index",
						"type": "uint256"
					},
					{
						"name": "input",
						"type": "bytes"
					}
				],
				"name": "publicWriteBytesWithLength",
				"outputs": [
					{
						"name": "",
						"type": "bytes"
					}
				],
				"payable": false,
				"stateMutability": "pure",
				"type": "function"
			},
			{
				"constant": true,
				"inputs": [
					{
						"name": "mem",
						"type": "bytes"
					},
					{
						"name": "dest",
						"type": "uint256"
					},
					{
						"name": "source",
						"type": "uint256"
					},
					{
						"name": "length",
						"type": "uint256"
					}
				],
				"name": "testMemcpy",
				"outputs": [
					{
						"name": "",
						"type": "bytes"
					}
				],
				"payable": false,
				"stateMutability": "pure",
				"type": "function"
			},
			{
				"constant": true,
				"inputs": [
					{
						"name": "b",
						"type": "bytes"
					},
					{
						"name": "index",
						"type": "uint256"
					}
				],
				"name": "publicReadAddress",
				"outputs": [
					{
						"name": "result",
						"type": "address"
					}
				],
				"payable": false,
				"stateMutability": "pure",
				"type": "function"
			},
			{
				"constant": true,
				"inputs": [
					{
						"name": "b",
						"type": "bytes"
					},
					{
						"name": "index",
						"type": "uint256"
					},
					{
						"name": "input",
						"type": "bytes32"
					}
				],
				"name": "publicWriteBytes32",
				"outputs": [
					{
						"name": "",
						"type": "bytes"
					}
				],
				"payable": false,
				"stateMutability": "pure",
				"type": "function"
			},
			{
				"constant": true,
				"inputs": [
					{
						"name": "b",
						"type": "bytes"
					}
				],
				"name": "publicPopLast20Bytes",
				"outputs": [
					{
						"name": "",
						"type": "bytes"
					},
					{
						"name": "result",
						"type": "address"
					}
				],
				"payable": false,
				"stateMutability": "pure",
				"type": "function"
			},
			{
				"constant": true,
				"inputs": [
					{
						"name": "lhs",
						"type": "bytes"
					},
					{
						"name": "rhs",
						"type": "bytes"
					}
				],
				"name": "publicEqualsPop1",
				"outputs": [
					{
						"name": "equal",
						"type": "bool"
					}
				],
				"payable": false,
				"stateMutability": "pure",
				"type": "function"
			},
			{
				"constant": true,
				"inputs": [
					{
						"name": "b",
						"type": "bytes"
					},
					{
						"name": "index",
						"type": "uint256"
					},
					{
						"name": "input",
						"type": "uint256"
					}
				],
				"name": "publicWriteUint256",
				"outputs": [
					{
						"name": "",
						"type": "bytes"
					}
				],
				"payable": false,
				"stateMutability": "pure",
				"type": "function"
			},
			{
				"constant": true,
				"inputs": [
					{
						"name": "b",
						"type": "bytes"
					},
					{
						"name": "index",
						"type": "uint256"
					}
				],
				"name": "publicReadBytes32",
				"outputs": [
					{
						"name": "result",
						"type": "bytes32"
					}
				],
				"payable": false,
				"stateMutability": "pure",
				"type": "function"
			},
			{
				"constant": true,
				"inputs": [
					{
						"name": "b",
						"type": "bytes"
					},
					{
						"name": "index",
						"type": "uint256"
					}
				],
				"name": "publicReadBytes4",
				"outputs": [
					{
						"name": "result",
						"type": "bytes4"
					}
				],
				"payable": false,
				"stateMutability": "pure",
				"type": "function"
			},
			{
				"constant": true,
				"inputs": [
					{
						"name": "b",
						"type": "bytes"
					},
					{
						"name": "index",
						"type": "uint256"
					}
				],
				"name": "publicReadUint256",
				"outputs": [
					{
						"name": "result",
						"type": "uint256"
					}
				],
				"payable": false,
				"stateMutability": "pure",
				"type": "function"
			},
			{
				"constant": true,
				"inputs": [
					{
						"name": "lhs",
						"type": "bytes"
					},
					{
						"name": "rhs",
						"type": "bytes"
					}
				],
				"name": "publicEquals",
				"outputs": [
					{
						"name": "equal",
						"type": "bool"
					}
				],
				"payable": false,
				"stateMutability": "pure",
				"type": "function"
			}
		],
		"evm": {
			"bytecode": {
				"linkReferences": {},
				"object": "0x608060405234801561001057600080fd5b506114f8806100206000396000f3006080604052600436106100da5763ffffffff7c01000000000000000000000000000000000000000000000000000000006000350416630301d5e181146100df578063076eec08146101fb57806318c535d9146102cb5780633f2a25ec146103625780634b368768146103d957806378bbae9b1461047657806382e2fa24146104dc57806384f8775814610560578063a4b19654146105c2578063b1840e8d14610689578063b79650a414610734578063be766f1b14610796578063cc12cb2814610803578063e3a85ce414610893578063f06f300d146108ee575b600080fd5b3480156100eb57600080fd5b506040805160206004803580820135601f81018490048402850184019095528484526101389436949293602493928401919081908401838280828437509497506109859650505050505050565b6040518080602001837effffffffffffffffffffffffffffffffffffffffffffffffffffffffffffff19167effffffffffffffffffffffffffffffffffffffffffffffffffffffffffffff19168152602001828103825284818151815260200191508051906020019080838360005b838110156101bf5781810151838201526020016101a7565b50505050905090810190601f1680156101ec5780820380516001836020036101000a031916815260200191505b50935050505060405180910390f35b34801561020757600080fd5b506040805160206004803580820135601f810184900484028501840190955284845261025694369492936024939284019190819084018382808284375094975050933594506109999350505050565b6040805160208082528351818301528351919283929083019185019080838360005b83811015610290578181015183820152602001610278565b50505050905090810190601f1680156102bd5780820380516001836020036101000a031916815260200191505b509250505060405180910390f35b3480156102d757600080fd5b506040805160206004803580820135601f810184900484028501840190955284845261025694369492936024939284019190819084018382808284375050604080516020601f89358b018035918201839004830284018301909452808352979a9998810197919650918201945092508291508401838280828437509497506109b29650505050505050565b34801561036e57600080fd5b506040805160206004803580820135601f8101849004840285018401909552848452610256943694929360249392840191908190840183828082843750949750508435955050505060209091013573ffffffffffffffffffffffffffffffffffffffff1690506109c5565b3480156103e557600080fd5b506040805160206004803580820135601f810184900484028501840190955284845261025694369492936024939284019190819084018382808284375050604080516020601f818a01358b0180359182018390048302840183018552818452989b8a359b909a9099940197509195509182019350915081908401838280828437509497506109e09650505050505050565b34801561048257600080fd5b506040805160206004803580820135601f8101849004840285018401909552848452610256943694929360249392840191908190840183828082843750949750508435955050506020830135926040013591506109f39050565b3480156104e857600080fd5b506040805160206004803580820135601f81018490048402850184019095528484526105379436949293602493928401919081908401838280828437509497505093359450610a3d9350505050565b6040805173ffffffffffffffffffffffffffffffffffffffff9092168252519081900360200190f35b34801561056c57600080fd5b506040805160206004803580820135601f8101849004840285018401909552848452610256943694929360249392840191908190840183828082843750949750508435955050506020909201359150610a4f9050565b3480156105ce57600080fd5b506040805160206004803580820135601f810184900484028501840190955284845261061b943694929360249392840191908190840183828082843750949750610a629650505050505050565b60405180806020018373ffffffffffffffffffffffffffffffffffffffff1673ffffffffffffffffffffffffffffffffffffffff16815260200182810382528481815181526020019150805190602001908083836000838110156101bf5781810151838201526020016101a7565b34801561069557600080fd5b506040805160206004803580820135601f810184900484028501840190955284845261072094369492936024939284019190819084018382808284375050604080516020601f89358b018035918201839004830284018301909452808352979a999881019791965091820194509250829150840183828082843750949750610a6f9650505050505050565b604080519115158252519081900360200190f35b34801561074057600080fd5b506040805160206004803580820135601f8101849004840285018401909552848452610256943694929360249392840191908190840183828082843750949750508435955050506020909201359150610a959050565b3480156107a257600080fd5b506040805160206004803580820135601f81018490048402850184019095528484526107f19436949293602493928401919081908401838280828437509497505093359450610aa89350505050565b60408051918252519081900360200190f35b34801561080f57600080fd5b506040805160206004803580820135601f810184900484028501840190955284845261085e9436949293602493928401919081908401838280828437509497505093359450610aba9350505050565b604080517fffffffff000000000000000000000000000000000000000000000000000000009092168252519081900360200190f35b34801561089f57600080fd5b506040805160206004803580820135601f81018490048402850184019095528484526107f19436949293602493928401919081908401838280828437509497505093359450610acc9350505050565b3480156108fa57600080fd5b506040805160206004803580820135601f810184900484028501840190955284845261072094369492936024939284019190819084018382808284375050604080516020601f89358b018035918201839004830284018301909452808352979a999881019791965091820194509250829150840183828082843750949750610ade9650505050505050565b6060600061099283610af0565b9293915050565b60606109ab838363ffffffff610c0f16565b9392505050565b60606109be8383610cc5565b5090919050565b60606109d884848463ffffffff610d7d16565b509192915050565b60606109d884848463ffffffff610e6116565b60606000855183850111151515610a0957600080fd5b85518584011115610a1957600080fd5b610a2286610f20565b9050610a3385820185830185610f26565b5093949350505050565b60006109ab838363ffffffff610fe916565b60606109d884848463ffffffff6110a516565b6060600061099283611146565b6000610a7a83610af0565b50610a8482610af0565b506109ab838363ffffffff61121a16565b60606109d884848463ffffffff61134416565b60006109ab838363ffffffff61134f16565b60006109ab838363ffffffff6113f516565b60006109ab838363ffffffff6114bd16565b60006109ab838363ffffffff61121a16565b6000808251111515610b8957604080517f08c379a000000000000000000000000000000000000000000000000000000000815260206004820152602160248201527f475245415445525f5448414e5f5a45524f5f4c454e4754485f5245515549524560448201527f4400000000000000000000000000000000000000000000000000000000000000606482015290519081900360840190fd5b815182907fffffffffffffffffffffffffffffffffffffffffffffffffffffffffffffffff8101908110610bb957fe5b016020015182517fffffffffffffffffffffffffffffffffffffffffffffffffffffffffffffffff01909252507f0100000000000000000000000000000000000000000000000000000000000000908190040290565b60606000610c1d84846114bd565b9050602083019250808301845110151515610cbf57604080517f08c379a000000000000000000000000000000000000000000000000000000000815260206004820152603060248201527f475245415445525f4f525f455155414c5f544f5f4e45535445445f425954455360448201527f5f4c454e4754485f524551554952454400000000000000000000000000000000606482015290519081900360840190fd5b50500190565b80518251811115610d5d57604080517f08c379a000000000000000000000000000000000000000000000000000000000815260206004820152603060248201527f475245415445525f4f525f455155414c5f544f5f534f555243455f425954455360448201527f5f4c454e4754485f524551554952454400000000000000000000000000000000606482015290519081900360840190fd5b610d78610d6984610f20565b610d7284610f20565b83610f26565b505050565b8251601483011115610e1657604080517f08c379a000000000000000000000000000000000000000000000000000000000815260206004820152602660248201527f475245415445525f4f525f455155414c5f544f5f32305f4c454e4754485f524560448201527f5155495245440000000000000000000000000000000000000000000000000000606482015290519081900360840190fd5b6014919092010180517fffffffffffffffffffffffff00000000000000000000000000000000000000001673ffffffffffffffffffffffffffffffffffffffff909216919091189052565b80518260200101835110151515610eff57604080517f08c379a000000000000000000000000000000000000000000000000000000000815260206004820152603060248201527f475245415445525f4f525f455155414c5f544f5f4e45535445445f425954455360448201527f5f4c454e4754485f524551554952454400000000000000000000000000000000606482015290519081900360840190fd5b610d7882610f0c85610f20565b01610f16836114c9565b8351602001610f26565b60200190565b6020811015610f50576001816020036101000a038019835116818551168082178652505050610d78565b82821415610f5d57610d78565b82821115610f975760208103905080820181840181515b82851015610f8f578451865260209586019590940193610f74565b905250610d78565b60208103905080820181840183515b81861215610fe057825182527fffffffffffffffffffffffffffffffffffffffffffffffffffffffffffffffe09283019290910190610fa6565b85525050505050565b60008160140183511015151561108657604080517f08c379a000000000000000000000000000000000000000000000000000000000815260206004820152602660248201527f475245415445525f4f525f455155414c5f544f5f32305f4c454e4754485f524560448201527f5155495245440000000000000000000000000000000000000000000000000000606482015290519081900360840190fd5b50016014015173ffffffffffffffffffffffffffffffffffffffff1690565b825160208301111561113e57604080517f08c379a000000000000000000000000000000000000000000000000000000000815260206004820152602660248201527f475245415445525f4f525f455155414c5f544f5f33325f4c454e4754485f524560448201527f5155495245440000000000000000000000000000000000000000000000000000606482015290519081900360840190fd5b910160200152565b600060148251101515156111e157604080517f08c379a000000000000000000000000000000000000000000000000000000000815260206004820152602660248201527f475245415445525f4f525f455155414c5f544f5f32305f4c454e4754485f524560448201527f5155495245440000000000000000000000000000000000000000000000000000606482015290519081900360840190fd5b6111ef826014845103610fe9565b82517fffffffffffffffffffffffffffffffffffffffffffffffffffffffffffffffec019092525090565b6000815183511480156109ab5750816040518082805190602001908083835b6020831061127657805182527fffffffffffffffffffffffffffffffffffffffffffffffffffffffffffffffe09092019160209182019101611239565b51815160209384036101000a7fffffffffffffffffffffffffffffffffffffffffffffffffffffffffffffffff0180199092169116179052604051919093018190038120885190955088945090928392508401908083835b6020831061130b57805182527fffffffffffffffffffffffffffffffffffffffffffffffffffffffffffffffe090920191602091820191016112ce565b6001836020036101000a038019825116818451168082178552505050505050905001915050604051809103902060001916149392505050565b610d788383836110a5565b6000816020018351101515156113ec57604080517f08c379a000000000000000000000000000000000000000000000000000000000815260206004820152602660248201527f475245415445525f4f525f455155414c5f544f5f33325f4c454e4754485f524560448201527f5155495245440000000000000000000000000000000000000000000000000000606482015290519081900360840190fd5b50016020015190565b60008160040183511015151561149257604080517f08c379a000000000000000000000000000000000000000000000000000000000815260206004820152602560248201527f475245415445525f4f525f455155414c5f544f5f345f4c454e4754485f52455160448201527f5549524544000000000000000000000000000000000000000000000000000000606482015290519081900360840190fd5b5050602001517fffffffff000000000000000000000000000000000000000000000000000000001690565b60006109ab838361134f565b905600a165627a7a72305820ba7b4c0f930a784427242f01fcb14fd9900b2467aebb82d18d9264cfa7cad0c00029",
				"opcodes": "PUSH1 0x80 PUSH1 0x40 MSTORE CALLVALUE DUP1 ISZERO PUSH2 0x10 JUMPI PUSH1 0x0 DUP1 REVERT JUMPDEST POP PUSH2 0x14F8 DUP1 PUSH2 0x20 PUSH1 0x0 CODECOPY PUSH1 0x0 RETURN STOP PUSH1 0x80 PUSH1 0x40 MSTORE PUSH1 0x4 CALLDATASIZE LT PUSH2 0xDA JUMPI PUSH4 0xFFFFFFFF PUSH29 0x100000000000000000000000000000000000000000000000000000000 PUSH1 0x0 CALLDATALOAD DIV AND PUSH4 0x301D5E1 DUP2 EQ PUSH2 0xDF JUMPI DUP1 PUSH4 0x76EEC08 EQ PUSH2 0x1FB JUMPI DUP1 PUSH4 0x18C535D9 EQ PUSH2 0x2CB JUMPI DUP1 PUSH4 0x3F2A25EC EQ PUSH2 0x362 JUMPI DUP1 PUSH4 0x4B368768 EQ PUSH2 0x3D9 JUMPI DUP1 PUSH4 0x78BBAE9B EQ PUSH2 0x476 JUMPI DUP1 PUSH4 0x82E2FA24 EQ PUSH2 0x4DC JUMPI DUP1 PUSH4 0x84F87758 EQ PUSH2 0x560 JUMPI DUP1 PUSH4 0xA4B19654 EQ PUSH2 0x5C2 JUMPI DUP1 PUSH4 0xB1840E8D EQ PUSH2 0x689 JUMPI DUP1 PUSH4 0xB79650A4 EQ PUSH2 0x734 JUMPI DUP1 PUSH4 0xBE766F1B EQ PUSH2 0x796 JUMPI DUP1 PUSH4 0xCC12CB28 EQ PUSH2 0x803 JUMPI DUP1 PUSH4 0xE3A85CE4 EQ PUSH2 0x893 JUMPI DUP1 PUSH4 0xF06F300D EQ PUSH2 0x8EE JUMPI JUMPDEST PUSH1 0x0 DUP1 REVERT JUMPDEST CALLVALUE DUP1 ISZERO PUSH2 0xEB JUMPI PUSH1 0x0 DUP1 REVERT JUMPDEST POP PUSH1 0x40 DUP1 MLOAD PUSH1 0x20 PUSH1 0x4 DUP1 CALLDATALOAD DUP1 DUP3 ADD CALLDATALOAD PUSH1 0x1F DUP2 ADD DUP5 SWAP1 DIV DUP5 MUL DUP6 ADD DUP5 ADD SWAP1 SWAP6 MSTORE DUP5 DUP5 MSTORE PUSH2 0x138 SWAP5 CALLDATASIZE SWAP5 SWAP3 SWAP4 PUSH1 0x24 SWAP4 SWAP3 DUP5 ADD SWAP2 SWAP1 DUP2 SWAP1 DUP5 ADD DUP4 DUP3 DUP1 DUP3 DUP5 CALLDATACOPY POP SWAP5 SWAP8 POP PUSH2 0x985 SWAP7 POP POP POP POP POP POP POP JUMP JUMPDEST PUSH1 0x40 MLOAD DUP1 DUP1 PUSH1 0x20 ADD DUP4 PUSH31 0xFFFFFFFFFFFFFFFFFFFFFFFFFFFFFFFFFFFFFFFFFFFFFFFFFFFFFFFFFFFFFF NOT AND PUSH31 0xFFFFFFFFFFFFFFFFFFFFFFFFFFFFFFFFFFFFFFFFFFFFFFFFFFFFFFFFFFFFFF NOT AND DUP2 MSTORE PUSH1 0x20 ADD DUP3 DUP2 SUB DUP3 MSTORE DUP5 DUP2 DUP2 MLOAD DUP2 MSTORE PUSH1 0x20 ADD SWAP2 POP DUP1 MLOAD SWAP1 PUSH1 0x20 ADD SWAP1 DUP1 DUP4 DUP4 PUSH1 0x0 JUMPDEST DUP4 DUP2 LT ISZERO PUSH2 0x1BF JUMPI DUP2 DUP2 ADD MLOAD DUP4 DUP3 ADD MSTORE PUSH1 0x20 ADD PUSH2 0x1A7 JUMP JUMPDEST POP POP POP POP SWAP1 POP SWAP1 DUP2 ADD SWAP1 PUSH1 0x1F AND DUP1 ISZERO PUSH2 0x1EC JUMPI DUP1 DUP3 SUB DUP1 MLOAD PUSH1 0x1 DUP4 PUSH1 0x20 SUB PUSH2 0x100 EXP SUB NOT AND DUP2 MSTORE PUSH1 0x20 ADD SWAP2 POP JUMPDEST POP SWAP4 POP POP POP POP PUSH1 0x40 MLOAD DUP1 SWAP2 SUB SWAP1 RETURN JUMPDEST CALLVALUE DUP1 ISZERO PUSH2 0x207 JUMPI PUSH1 0x0 DUP1 REVERT JUMPDEST POP PUSH1 0x40 DUP1 MLOAD PUSH1 0x20 PUSH1 0x4 DUP1 CALLDATALOAD DUP1 DUP3 ADD CALLDATALOAD PUSH1 0x1F DUP2 ADD DUP5 SWAP1 DIV DUP5 MUL DUP6 ADD DUP5 ADD SWAP1 SWAP6 MSTORE DUP5 DUP5 MSTORE PUSH2 0x256 SWAP5 CALLDATASIZE SWAP5 SWAP3 SWAP4 PUSH1 0x24 SWAP4 SWAP3 DUP5 ADD SWAP2 SWAP1 DUP2 SWAP1 DUP5 ADD DUP4 DUP3 DUP1 DUP3 DUP5 CALLDATACOPY POP SWAP5 SWAP8 POP POP SWAP4 CALLDATALOAD SWAP5 POP PUSH2 0x999 SWAP4 POP POP POP POP JUMP JUMPDEST PUSH1 0x40 DUP1 MLOAD PUSH1 0x20 DUP1 DUP3 MSTORE DUP4 MLOAD DUP2 DUP4 ADD MSTORE DUP4 MLOAD SWAP2 SWAP3 DUP4 SWAP3 SWAP1 DUP4 ADD SWAP2 DUP6 ADD SWAP1 DUP1 DUP4 DUP4 PUSH1 0x0 JUMPDEST DUP4 DUP2 LT ISZERO PUSH2 0x290 JUMPI DUP2 DUP2 ADD MLOAD DUP4 DUP3 ADD MSTORE PUSH1 0x20 ADD PUSH2 0x278 JUMP JUMPDEST POP POP POP POP SWAP1 POP SWAP1 DUP2 ADD SWAP1 PUSH1 0x1F AND DUP1 ISZERO PUSH2 0x2BD JUMPI DUP1 DUP3 SUB DUP1 MLOAD PUSH1 0x1 DUP4 PUSH1 0x20 SUB PUSH2 0x100 EXP SUB NOT AND DUP2 MSTORE PUSH1 0x20 ADD SWAP2 POP JUMPDEST POP SWAP3 POP POP POP PUSH1 0x40 MLOAD DUP1 SWAP2 SUB SWAP1 RETURN JUMPDEST CALLVALUE DUP1 ISZERO PUSH2 0x2D7 JUMPI PUSH1 0x0 DUP1 REVERT JUMPDEST POP PUSH1 0x40 DUP1 MLOAD PUSH1 0x20 PUSH1 0x4 DUP1 CALLDATALOAD DUP1 DUP3 ADD CALLDATALOAD PUSH1 0x1F DUP2 ADD DUP5 SWAP1 DIV DUP5 MUL DUP6 ADD DUP5 ADD SWAP1 SWAP6 MSTORE DUP5 DUP5 MSTORE PUSH2 0x256 SWAP5 CALLDATASIZE SWAP5 SWAP3 SWAP4 PUSH1 0x24 SWAP4 SWAP3 DUP5 ADD SWAP2 SWAP1 DUP2 SWAP1 DUP5 ADD DUP4 DUP3 DUP1 DUP3 DUP5 CALLDATACOPY POP POP PUSH1 0x40 DUP1 MLOAD PUSH1 0x20 PUSH1 0x1F DUP10 CALLDATALOAD DUP12 ADD DUP1 CALLDATALOAD SWAP2 DUP3 ADD DUP4 SWAP1 DIV DUP4 MUL DUP5 ADD DUP4 ADD SWAP1 SWAP5 MSTORE DUP1 DUP4 MSTORE SWAP8 SWAP11 SWAP10 SWAP9 DUP2 ADD SWAP8 SWAP2 SWAP7 POP SWAP2 DUP3 ADD SWAP5 POP SWAP3 POP DUP3 SWAP2 POP DUP5 ADD DUP4 DUP3 DUP1 DUP3 DUP5 CALLDATACOPY POP SWAP5 SWAP8 POP PUSH2 0x9B2 SWAP7 POP POP POP POP POP POP POP JUMP JUMPDEST CALLVALUE DUP1 ISZERO PUSH2 0x36E JUMPI PUSH1 0x0 DUP1 REVERT JUMPDEST POP PUSH1 0x40 DUP1 MLOAD PUSH1 0x20 PUSH1 0x4 DUP1 CALLDATALOAD DUP1 DUP3 ADD CALLDATALOAD PUSH1 0x1F DUP2 ADD DUP5 SWAP1 DIV DUP5 MUL DUP6 ADD DUP5 ADD SWAP1 SWAP6 MSTORE DUP5 DUP5 MSTORE PUSH2 0x256 SWAP5 CALLDATASIZE SWAP5 SWAP3 SWAP4 PUSH1 0x24 SWAP4 SWAP3 DUP5 ADD SWAP2 SWAP1 DUP2 SWAP1 DUP5 ADD DUP4 DUP3 DUP1 DUP3 DUP5 CALLDATACOPY POP SWAP5 SWAP8 POP POP DUP5 CALLDATALOAD SWAP6 POP POP POP POP PUSH1 0x20 SWAP1 SWAP2 ADD CALLDATALOAD PUSH20 0xFFFFFFFFFFFFFFFFFFFFFFFFFFFFFFFFFFFFFFFF AND SWAP1 POP PUSH2 0x9C5 JUMP JUMPDEST CALLVALUE DUP1 ISZERO PUSH2 0x3E5 JUMPI PUSH1 0x0 DUP1 REVERT JUMPDEST POP PUSH1 0x40 DUP1 MLOAD PUSH1 0x20 PUSH1 0x4 DUP1 CALLDATALOAD DUP1 DUP3 ADD CALLDATALOAD PUSH1 0x1F DUP2 ADD DUP5 SWAP1 DIV DUP5 MUL DUP6 ADD DUP5 ADD SWAP1 SWAP6 MSTORE DUP5 DUP5 MSTORE PUSH2 0x256 SWAP5 CALLDATASIZE SWAP5 SWAP3 SWAP4 PUSH1 0x24 SWAP4 SWAP3 DUP5 ADD SWAP2 SWAP1 DUP2 SWAP1 DUP5 ADD DUP4 DUP3 DUP1 DUP3 DUP5 CALLDATACOPY POP POP PUSH1 0x40 DUP1 MLOAD PUSH1 0x20 PUSH1 0x1F DUP2 DUP11 ADD CALLDATALOAD DUP12 ADD DUP1 CALLDATALOAD SWAP2 DUP3 ADD DUP4 SWAP1 DIV DUP4 MUL DUP5 ADD DUP4 ADD DUP6 MSTORE DUP2 DUP5 MSTORE SWAP9 SWAP12 DUP11 CALLDATALOAD SWAP12 SWAP1 SWAP11 SWAP1 SWAP10 SWAP5 ADD SWAP8 POP SWAP2 SWAP6 POP SWAP2 DUP3 ADD SWAP4 POP SWAP2 POP DUP2 SWAP1 DUP5 ADD DUP4 DUP3 DUP1 DUP3 DUP5 CALLDATACOPY POP SWAP5 SWAP8 POP PUSH2 0x9E0 SWAP7 POP POP POP POP POP POP POP JUMP JUMPDEST CALLVALUE DUP1 ISZERO PUSH2 0x482 JUMPI PUSH1 0x0 DUP1 REVERT JUMPDEST POP PUSH1 0x40 DUP1 MLOAD PUSH1 0x20 PUSH1 0x4 DUP1 CALLDATALOAD DUP1 DUP3 ADD CALLDATALOAD PUSH1 0x1F DUP2 ADD DUP5 SWAP1 DIV DUP5 MUL DUP6 ADD DUP5 ADD SWAP1 SWAP6 MSTORE DUP5 DUP5 MSTORE PUSH2 0x256 SWAP5 CALLDATASIZE SWAP5 SWAP3 SWAP4 PUSH1 0x24 SWAP4 SWAP3 DUP5 ADD SWAP2 SWAP1 DUP2 SWAP1 DUP5 ADD DUP4 DUP3 DUP1 DUP3 DUP5 CALLDATACOPY POP SWAP5 SWAP8 POP POP DUP5 CALLDATALOAD SWAP6 POP POP POP PUSH1 0x20 DUP4 ADD CALLDATALOAD SWAP3 PUSH1 0x40 ADD CALLDATALOAD SWAP2 POP PUSH2 0x9F3 SWAP1 POP JUMP JUMPDEST CALLVALUE DUP1 ISZERO PUSH2 0x4E8 JUMPI PUSH1 0x0 DUP1 REVERT JUMPDEST POP PUSH1 0x40 DUP1 MLOAD PUSH1 0x20 PUSH1 0x4 DUP1 CALLDATALOAD DUP1 DUP3 ADD CALLDATALOAD PUSH1 0x1F DUP2 ADD DUP5 SWAP1 DIV DUP5 MUL DUP6 ADD DUP5 ADD SWAP1 SWAP6 MSTORE DUP5 DUP5 MSTORE PUSH2 0x537 SWAP5 CALLDATASIZE SWAP5 SWAP3 SWAP4 PUSH1 0x24 SWAP4 SWAP3 DUP5 ADD SWAP2 SWAP1 DUP2 SWAP1 DUP5 ADD DUP4 DUP3 DUP1 DUP3 DUP5 CALLDATACOPY POP SWAP5 SWAP8 POP POP SWAP4 CALLDATALOAD SWAP5 POP PUSH2 0xA3D SWAP4 POP POP POP POP JUMP JUMPDEST PUSH1 0x40 DUP1 MLOAD PUSH20 0xFFFFFFFFFFFFFFFFFFFFFFFFFFFFFFFFFFFFFFFF SWAP1 SWAP3 AND DUP3 MSTORE MLOAD SWAP1 DUP2 SWAP1 SUB PUSH1 0x20 ADD SWAP1 RETURN JUMPDEST CALLVALUE DUP1 ISZERO PUSH2 0x56C JUMPI PUSH1 0x0 DUP1 REVERT JUMPDEST POP PUSH1 0x40 DUP1 MLOAD PUSH1 0x20 PUSH1 0x4 DUP1 CALLDATALOAD DUP1 DUP3 ADD CALLDATALOAD PUSH1 0x1F DUP2 ADD DUP5 SWAP1 DIV DUP5 MUL DUP6 ADD DUP5 ADD SWAP1 SWAP6 MSTORE DUP5 DUP5 MSTORE PUSH2 0x256 SWAP5 CALLDATASIZE SWAP5 SWAP3 SWAP4 PUSH1 0x24 SWAP4 SWAP3 DUP5 ADD SWAP2 SWAP1 DUP2 SWAP1 DUP5 ADD DUP4 DUP3 DUP1 DUP3 DUP5 CALLDATACOPY POP SWAP5 SWAP8 POP POP DUP5 CALLDATALOAD SWAP6 POP POP POP PUSH1 0x20 SWAP1 SWAP3 ADD CALLDATALOAD SWAP2 POP PUSH2 0xA4F SWAP1 POP JUMP JUMPDEST CALLVALUE DUP1 ISZERO PUSH2 0x5CE JUMPI PUSH1 0x0 DUP1 REVERT JUMPDEST POP PUSH1 0x40 DUP1 MLOAD PUSH1 0x20 PUSH1 0x4 DUP1 CALLDATALOAD DUP1 DUP3 ADD CALLDATALOAD PUSH1 0x1F DUP2 ADD DUP5 SWAP1 DIV DUP5 MUL DUP6 ADD DUP5 ADD SWAP1 SWAP6 MSTORE DUP5 DUP5 MSTORE PUSH2 0x61B SWAP5 CALLDATASIZE SWAP5 SWAP3 SWAP4 PUSH1 0x24 SWAP4 SWAP3 DUP5 ADD SWAP2 SWAP1 DUP2 SWAP1 DUP5 ADD DUP4 DUP3 DUP1 DUP3 DUP5 CALLDATACOPY POP SWAP5 SWAP8 POP PUSH2 0xA62 SWAP7 POP POP POP POP POP POP POP JUMP JUMPDEST PUSH1 0x40 MLOAD DUP1 DUP1 PUSH1 0x20 ADD DUP4 PUSH20 0xFFFFFFFFFFFFFFFFFFFFFFFFFFFFFFFFFFFFFFFF AND PUSH20 0xFFFFFFFFFFFFFFFFFFFFFFFFFFFFFFFFFFFFFFFF AND DUP2 MSTORE PUSH1 0x20 ADD DUP3 DUP2 SUB DUP3 MSTORE DUP5 DUP2 DUP2 MLOAD DUP2 MSTORE PUSH1 0x20 ADD SWAP2 POP DUP1 MLOAD SWAP1 PUSH1 0x20 ADD SWAP1 DUP1 DUP4 DUP4 PUSH1 0x0 DUP4 DUP2 LT ISZERO PUSH2 0x1BF JUMPI DUP2 DUP2 ADD MLOAD DUP4 DUP3 ADD MSTORE PUSH1 0x20 ADD PUSH2 0x1A7 JUMP JUMPDEST CALLVALUE DUP1 ISZERO PUSH2 0x695 JUMPI PUSH1 0x0 DUP1 REVERT JUMPDEST POP PUSH1 0x40 DUP1 MLOAD PUSH1 0x20 PUSH1 0x4 DUP1 CALLDATALOAD DUP1 DUP3 ADD CALLDATALOAD PUSH1 0x1F DUP2 ADD DUP5 SWAP1 DIV DUP5 MUL DUP6 ADD DUP5 ADD SWAP1 SWAP6 MSTORE DUP5 DUP5 MSTORE PUSH2 0x720 SWAP5 CALLDATASIZE SWAP5 SWAP3 SWAP4 PUSH1 0x24 SWAP4 SWAP3 DUP5 ADD SWAP2 SWAP1 DUP2 SWAP1 DUP5 ADD DUP4 DUP3 DUP1 DUP3 DUP5 CALLDATACOPY POP POP PUSH1 0x40 DUP1 MLOAD PUSH1 0x20 PUSH1 0x1F DUP10 CALLDATALOAD DUP12 ADD DUP1 CALLDATALOAD SWAP2 DUP3 ADD DUP4 SWAP1 DIV DUP4 MUL DUP5 ADD DUP4 ADD SWAP1 SWAP5 MSTORE DUP1 DUP4 MSTORE SWAP8 SWAP11 SWAP10 SWAP9 DUP2 ADD SWAP8 SWAP2 SWAP7 POP SWAP2 DUP3 ADD SWAP5 POP SWAP3 POP DUP3 SWAP2 POP DUP5 ADD DUP4 DUP3 DUP1 DUP3 DUP5 CALLDATACOPY POP SWAP5 SWAP8 POP PUSH2 0xA6F SWAP7 POP POP POP POP POP POP POP JUMP JUMPDEST PUSH1 0x40 DUP1 MLOAD SWAP2 ISZERO ISZERO DUP3 MSTORE MLOAD SWAP1 DUP2 SWAP1 SUB PUSH1 0x20 ADD SWAP1 RETURN JUMPDEST CALLVALUE DUP1 ISZERO PUSH2 0x740 JUMPI PUSH1 0x0 DUP1 REVERT JUMPDEST POP PUSH1 0x40 DUP1 MLOAD PUSH1 0x20 PUSH1 0x4 DUP1 CALLDATALOAD DUP1 DUP3 ADD CALLDATALOAD PUSH1 0x1F DUP2 ADD DUP5 SWAP1 DIV DUP5 MUL DUP6 ADD DUP5 ADD SWAP1 SWAP6 MSTORE DUP5 DUP5 MSTORE PUSH2 0x256 SWAP5 CALLDATASIZE SWAP5 SWAP3 SWAP4 PUSH1 0x24 SWAP4 SWAP3 DUP5 ADD SWAP2 SWAP1 DUP2 SWAP1 DUP5 ADD DUP4 DUP3 DUP1 DUP3 DUP5 CALLDATACOPY POP SWAP5 SWAP8 POP POP DUP5 CALLDATALOAD SWAP6 POP POP POP PUSH1 0x20 SWAP1 SWAP3 ADD CALLDATALOAD SWAP2 POP PUSH2 0xA95 SWAP1 POP JUMP JUMPDEST CALLVALUE DUP1 ISZERO PUSH2 0x7A2 JUMPI PUSH1 0x0 DUP1 REVERT JUMPDEST POP PUSH1 0x40 DUP1 MLOAD PUSH1 0x20 PUSH1 0x4 DUP1 CALLDATALOAD DUP1 DUP3 ADD CALLDATALOAD PUSH1 0x1F DUP2 ADD DUP5 SWAP1 DIV DUP5 MUL DUP6 ADD DUP5 ADD SWAP1 SWAP6 MSTORE DUP5 DUP5 MSTORE PUSH2 0x7F1 SWAP5 CALLDATASIZE SWAP5 SWAP3 SWAP4 PUSH1 0x24 SWAP4 SWAP3 DUP5 ADD SWAP2 SWAP1 DUP2 SWAP1 DUP5 ADD DUP4 DUP3 DUP1 DUP3 DUP5 CALLDATACOPY POP SWAP5 SWAP8 POP POP SWAP4 CALLDATALOAD SWAP5 POP PUSH2 0xAA8 SWAP4 POP POP POP POP JUMP JUMPDEST PUSH1 0x40 DUP1 MLOAD SWAP2 DUP3 MSTORE MLOAD SWAP1 DUP2 SWAP1 SUB PUSH1 0x20 ADD SWAP1 RETURN JUMPDEST CALLVALUE DUP1 ISZERO PUSH2 0x80F JUMPI PUSH1 0x0 DUP1 REVERT JUMPDEST POP PUSH1 0x40 DUP1 MLOAD PUSH1 0x20 PUSH1 0x4 DUP1 CALLDATALOAD DUP1 DUP3 ADD CALLDATALOAD PUSH1 0x1F DUP2 ADD DUP5 SWAP1 DIV DUP5 MUL DUP6 ADD DUP5 ADD SWAP1 SWAP6 MSTORE DUP5 DUP5 MSTORE PUSH2 0x85E SWAP5 CALLDATASIZE SWAP5 SWAP3 SWAP4 PUSH1 0x24 SWAP4 SWAP3 DUP5 ADD SWAP2 SWAP1 DUP2 SWAP1 DUP5 ADD DUP4 DUP3 DUP1 DUP3 DUP5 CALLDATACOPY POP SWAP5 SWAP8 POP POP SWAP4 CALLDATALOAD SWAP5 POP PUSH2 0xABA SWAP4 POP POP POP POP JUMP JUMPDEST PUSH1 0x40 DUP1 MLOAD PUSH32 0xFFFFFFFF00000000000000000000000000000000000000000000000000000000 SWAP1 SWAP3 AND DUP3 MSTORE MLOAD SWAP1 DUP2 SWAP1 SUB PUSH1 0x20 ADD SWAP1 RETURN JUMPDEST CALLVALUE DUP1 ISZERO PUSH2 0x89F JUMPI PUSH1 0x0 DUP1 REVERT JUMPDEST POP PUSH1 0x40 DUP1 MLOAD PUSH1 0x20 PUSH1 0x4 DUP1 CALLDATALOAD DUP1 DUP3 ADD CALLDATALOAD PUSH1 0x1F DUP2 ADD DUP5 SWAP1 DIV DUP5 MUL DUP6 ADD DUP5 ADD SWAP1 SWAP6 MSTORE DUP5 DUP5 MSTORE PUSH2 0x7F1 SWAP5 CALLDATASIZE SWAP5 SWAP3 SWAP4 PUSH1 0x24 SWAP4 SWAP3 DUP5 ADD SWAP2 SWAP1 DUP2 SWAP1 DUP5 ADD DUP4 DUP3 DUP1 DUP3 DUP5 CALLDATACOPY POP SWAP5 SWAP8 POP POP SWAP4 CALLDATALOAD SWAP5 POP PUSH2 0xACC SWAP4 POP POP POP POP JUMP JUMPDEST CALLVALUE DUP1 ISZERO PUSH2 0x8FA JUMPI PUSH1 0x0 DUP1 REVERT JUMPDEST POP PUSH1 0x40 DUP1 MLOAD PUSH1 0x20 PUSH1 0x4 DUP1 CALLDATALOAD DUP1 DUP3 ADD CALLDATALOAD PUSH1 0x1F DUP2 ADD DUP5 SWAP1 DIV DUP5 MUL DUP6 ADD DUP5 ADD SWAP1 SWAP6 MSTORE DUP5 DUP5 MSTORE PUSH2 0x720 SWAP5 CALLDATASIZE SWAP5 SWAP3 SWAP4 PUSH1 0x24 SWAP4 SWAP3 DUP5 ADD SWAP2 SWAP1 DUP2 SWAP1 DUP5 ADD DUP4 DUP3 DUP1 DUP3 DUP5 CALLDATACOPY POP POP PUSH1 0x40 DUP1 MLOAD PUSH1 0x20 PUSH1 0x1F DUP10 CALLDATALOAD DUP12 ADD DUP1 CALLDATALOAD SWAP2 DUP3 ADD DUP4 SWAP1 DIV DUP4 MUL DUP5 ADD DUP4 ADD SWAP1 SWAP5 MSTORE DUP1 DUP4 MSTORE SWAP8 SWAP11 SWAP10 SWAP9 DUP2 ADD SWAP8 SWAP2 SWAP7 POP SWAP2 DUP3 ADD SWAP5 POP SWAP3 POP DUP3 SWAP2 POP DUP5 ADD DUP4 DUP3 DUP1 DUP3 DUP5 CALLDATACOPY POP SWAP5 SWAP8 POP PUSH2 0xADE SWAP7 POP POP POP POP POP POP POP JUMP JUMPDEST PUSH1 0x60 PUSH1 0x0 PUSH2 0x992 DUP4 PUSH2 0xAF0 JUMP JUMPDEST SWAP3 SWAP4 SWAP2 POP POP JUMP JUMPDEST PUSH1 0x60 PUSH2 0x9AB DUP4 DUP4 PUSH4 0xFFFFFFFF PUSH2 0xC0F AND JUMP JUMPDEST SWAP4 SWAP3 POP POP POP JUMP JUMPDEST PUSH1 0x60 PUSH2 0x9BE DUP4 DUP4 PUSH2 0xCC5 JUMP JUMPDEST POP SWAP1 SWAP2 SWAP1 POP JUMP JUMPDEST PUSH1 0x60 PUSH2 0x9D8 DUP5 DUP5 DUP5 PUSH4 0xFFFFFFFF PUSH2 0xD7D AND JUMP JUMPDEST POP SWAP2 SWAP3 SWAP2 POP POP JUMP JUMPDEST PUSH1 0x60 PUSH2 0x9D8 DUP5 DUP5 DUP5 PUSH4 0xFFFFFFFF PUSH2 0xE61 AND JUMP JUMPDEST PUSH1 0x60 PUSH1 0x0 DUP6 MLOAD DUP4 DUP6 ADD GT ISZERO ISZERO ISZERO PUSH2 0xA09 JUMPI PUSH1 0x0 DUP1 REVERT JUMPDEST DUP6 MLOAD DUP6 DUP5 ADD GT ISZERO PUSH2 0xA19 JUMPI PUSH1 0x0 DUP1 REVERT JUMPDEST PUSH2 0xA22 DUP7 PUSH2 0xF20 JUMP JUMPDEST SWAP1 POP PUSH2 0xA33 DUP6 DUP3 ADD DUP6 DUP4 ADD DUP6 PUSH2 0xF26 JUMP JUMPDEST POP SWAP4 SWAP5 SWAP4 POP POP POP POP JUMP JUMPDEST PUSH1 0x0 PUSH2 0x9AB DUP4 DUP4 PUSH4 0xFFFFFFFF PUSH2 0xFE9 AND JUMP JUMPDEST PUSH1 0x60 PUSH2 0x9D8 DUP5 DUP5 DUP5 PUSH4 0xFFFFFFFF PUSH2 0x10A5 AND JUMP JUMPDEST PUSH1 0x60 PUSH1 0x0 PUSH2 0x992 DUP4 PUSH2 0x1146 JUMP JUMPDEST PUSH1 0x0 PUSH2 0xA7A DUP4 PUSH2 0xAF0 JUMP JUMPDEST POP PUSH2 0xA84 DUP3 PUSH2 0xAF0 JUMP JUMPDEST POP PUSH2 0x9AB DUP4 DUP4 PUSH4 0xFFFFFFFF PUSH2 0x121A AND JUMP JUMPDEST PUSH1 0x60 PUSH2 0x9D8 DUP5 DUP5 DUP5 PUSH4 0xFFFFFFFF PUSH2 0x1344 AND JUMP JUMPDEST PUSH1 0x0 PUSH2 0x9AB DUP4 DUP4 PUSH4 0xFFFFFFFF PUSH2 0x134F AND JUMP JUMPDEST PUSH1 0x0 PUSH2 0x9AB DUP4 DUP4 PUSH4 0xFFFFFFFF PUSH2 0x13F5 AND JUMP JUMPDEST PUSH1 0x0 PUSH2 0x9AB DUP4 DUP4 PUSH4 0xFFFFFFFF PUSH2 0x14BD AND JUMP JUMPDEST PUSH1 0x0 PUSH2 0x9AB DUP4 DUP4 PUSH4 0xFFFFFFFF PUSH2 0x121A AND JUMP JUMPDEST PUSH1 0x0 DUP1 DUP3 MLOAD GT ISZERO ISZERO PUSH2 0xB89 JUMPI PUSH1 0x40 DUP1 MLOAD PUSH32 0x8C379A000000000000000000000000000000000000000000000000000000000 DUP2 MSTORE PUSH1 0x20 PUSH1 0x4 DUP3 ADD MSTORE PUSH1 0x21 PUSH1 0x24 DUP3 ADD MSTORE PUSH32 0x475245415445525F5448414E5F5A45524F5F4C454E4754485F52455155495245 PUSH1 0x44 DUP3 ADD MSTORE PUSH32 0x4400000000000000000000000000000000000000000000000000000000000000 PUSH1 0x64 DUP3 ADD MSTORE SWAP1 MLOAD SWAP1 DUP2 SWAP1 SUB PUSH1 0x84 ADD SWAP1 REVERT JUMPDEST DUP2 MLOAD DUP3 SWAP1 PUSH32 0xFFFFFFFFFFFFFFFFFFFFFFFFFFFFFFFFFFFFFFFFFFFFFFFFFFFFFFFFFFFFFFFF DUP2 ADD SWAP1 DUP2 LT PUSH2 0xBB9 JUMPI INVALID JUMPDEST ADD PUSH1 0x20 ADD MLOAD DUP3 MLOAD PUSH32 0xFFFFFFFFFFFFFFFFFFFFFFFFFFFFFFFFFFFFFFFFFFFFFFFFFFFFFFFFFFFFFFFF ADD SWAP1 SWAP3 MSTORE POP PUSH32 0x100000000000000000000000000000000000000000000000000000000000000 SWAP1 DUP2 SWAP1 DIV MUL SWAP1 JUMP JUMPDEST PUSH1 0x60 PUSH1 0x0 PUSH2 0xC1D DUP5 DUP5 PUSH2 0x14BD JUMP JUMPDEST SWAP1 POP PUSH1 0x20 DUP4 ADD SWAP3 POP DUP1 DUP4 ADD DUP5 MLOAD LT ISZERO ISZERO ISZERO PUSH2 0xCBF JUMPI PUSH1 0x40 DUP1 MLOAD PUSH32 0x8C379A000000000000000000000000000000000000000000000000000000000 DUP2 MSTORE PUSH1 0x20 PUSH1 0x4 DUP3 ADD MSTORE PUSH1 0x30 PUSH1 0x24 DUP3 ADD MSTORE PUSH32 0x475245415445525F4F525F455155414C5F544F5F4E45535445445F4259544553 PUSH1 0x44 DUP3 ADD MSTORE PUSH32 0x5F4C454E4754485F524551554952454400000000000000000000000000000000 PUSH1 0x64 DUP3 ADD MSTORE SWAP1 MLOAD SWAP1 DUP2 SWAP1 SUB PUSH1 0x84 ADD SWAP1 REVERT JUMPDEST POP POP ADD SWAP1 JUMP JUMPDEST DUP1 MLOAD DUP3 MLOAD DUP2 GT ISZERO PUSH2 0xD5D JUMPI PUSH1 0x40 DUP1 MLOAD PUSH32 0x8C379A000000000000000000000000000000000000000000000000000000000 DUP2 MSTORE PUSH1 0x20 PUSH1 0x4 DUP3 ADD MSTORE PUSH1 0x30 PUSH1 0x24 DUP3 ADD MSTORE PUSH32 0x475245415445525F4F525F455155414C5F544F5F534F555243455F4259544553 PUSH1 0x44 DUP3 ADD MSTORE PUSH32 0x5F4C454E4754485F524551554952454400000000000000000000000000000000 PUSH1 0x64 DUP3 ADD MSTORE SWAP1 MLOAD SWAP1 DUP2 SWAP1 SUB PUSH1 0x84 ADD SWAP1 REVERT JUMPDEST PUSH2 0xD78 PUSH2 0xD69 DUP5 PUSH2 0xF20 JUMP JUMPDEST PUSH2 0xD72 DUP5 PUSH2 0xF20 JUMP JUMPDEST DUP4 PUSH2 0xF26 JUMP JUMPDEST POP POP POP JUMP JUMPDEST DUP3 MLOAD PUSH1 0x14 DUP4 ADD GT ISZERO PUSH2 0xE16 JUMPI PUSH1 0x40 DUP1 MLOAD PUSH32 0x8C379A000000000000000000000000000000000000000000000000000000000 DUP2 MSTORE PUSH1 0x20 PUSH1 0x4 DUP3 ADD MSTORE PUSH1 0x26 PUSH1 0x24 DUP3 ADD MSTORE PUSH32 0x475245415445525F4F525F455155414C5F544F5F32305F4C454E4754485F5245 PUSH1 0x44 DUP3 ADD MSTORE PUSH32 0x5155495245440000000000000000000000000000000000000000000000000000 PUSH1 0x64 DUP3 ADD MSTORE SWAP1 MLOAD SWAP1 DUP2 SWAP1 SUB PUSH1 0x84 ADD SWAP1 REVERT JUMPDEST PUSH1 0x14 SWAP2 SWAP1 SWAP3 ADD ADD DUP1 MLOAD PUSH32 0xFFFFFFFFFFFFFFFFFFFFFFFF0000000000000000000000000000000000000000 AND PUSH20 0xFFFFFFFFFFFFFFFFFFFFFFFFFFFFFFFFFFFFFFFF SWAP1 SWAP3 AND SWAP2 SWAP1 SWAP2 XOR SWAP1 MSTORE JUMP JUMPDEST DUP1 MLOAD DUP3 PUSH1 0x20 ADD ADD DUP4 MLOAD LT ISZERO ISZERO ISZERO PUSH2 0xEFF JUMPI PUSH1 0x40 DUP1 MLOAD PUSH32 0x8C379A000000000000000000000000000000000000000000000000000000000 DUP2 MSTORE PUSH1 0x20 PUSH1 0x4 DUP3 ADD MSTORE PUSH1 0x30 PUSH1 0x24 DUP3 ADD MSTORE PUSH32 0x475245415445525F4F525F455155414C5F544F5F4E45535445445F4259544553 PUSH1 0x44 DUP3 ADD MSTORE PUSH32 0x5F4C454E4754485F524551554952454400000000000000000000000000000000 PUSH1 0x64 DUP3 ADD MSTORE SWAP1 MLOAD SWAP1 DUP2 SWAP1 SUB PUSH1 0x84 ADD SWAP1 REVERT JUMPDEST PUSH2 0xD78 DUP3 PUSH2 0xF0C DUP6 PUSH2 0xF20 JUMP JUMPDEST ADD PUSH2 0xF16 DUP4 PUSH2 0x14C9 JUMP JUMPDEST DUP4 MLOAD PUSH1 0x20 ADD PUSH2 0xF26 JUMP JUMPDEST PUSH1 0x20 ADD SWAP1 JUMP JUMPDEST PUSH1 0x20 DUP2 LT ISZERO PUSH2 0xF50 JUMPI PUSH1 0x1 DUP2 PUSH1 0x20 SUB PUSH2 0x100 EXP SUB DUP1 NOT DUP4 MLOAD AND DUP2 DUP6 MLOAD AND DUP1 DUP3 OR DUP7 MSTORE POP POP POP PUSH2 0xD78 JUMP JUMPDEST DUP3 DUP3 EQ ISZERO PUSH2 0xF5D JUMPI PUSH2 0xD78 JUMP JUMPDEST DUP3 DUP3 GT ISZERO PUSH2 0xF97 JUMPI PUSH1 0x20 DUP2 SUB SWAP1 POP DUP1 DUP3 ADD DUP2 DUP5 ADD DUP2 MLOAD JUMPDEST DUP3 DUP6 LT ISZERO PUSH2 0xF8F JUMPI DUP5 MLOAD DUP7 MSTORE PUSH1 0x20 SWAP6 DUP7 ADD SWAP6 SWAP1 SWAP5 ADD SWAP4 PUSH2 0xF74 JUMP JUMPDEST SWAP1 MSTORE POP PUSH2 0xD78 JUMP JUMPDEST PUSH1 0x20 DUP2 SUB SWAP1 POP DUP1 DUP3 ADD DUP2 DUP5 ADD DUP4 MLOAD JUMPDEST DUP2 DUP7 SLT ISZERO PUSH2 0xFE0 JUMPI DUP3 MLOAD DUP3 MSTORE PUSH32 0xFFFFFFFFFFFFFFFFFFFFFFFFFFFFFFFFFFFFFFFFFFFFFFFFFFFFFFFFFFFFFFE0 SWAP3 DUP4 ADD SWAP3 SWAP1 SWAP2 ADD SWAP1 PUSH2 0xFA6 JUMP JUMPDEST DUP6 MSTORE POP POP POP POP POP JUMP JUMPDEST PUSH1 0x0 DUP2 PUSH1 0x14 ADD DUP4 MLOAD LT ISZERO ISZERO ISZERO PUSH2 0x1086 JUMPI PUSH1 0x40 DUP1 MLOAD PUSH32 0x8C379A000000000000000000000000000000000000000000000000000000000 DUP2 MSTORE PUSH1 0x20 PUSH1 0x4 DUP3 ADD MSTORE PUSH1 0x26 PUSH1 0x24 DUP3 ADD MSTORE PUSH32 0x475245415445525F4F525F455155414C5F544F5F32305F4C454E4754485F5245 PUSH1 0x44 DUP3 ADD MSTORE PUSH32 0x5155495245440000000000000000000000000000000000000000000000000000 PUSH1 0x64 DUP3 ADD MSTORE SWAP1 MLOAD SWAP1 DUP2 SWAP1 SUB PUSH1 0x84 ADD SWAP1 REVERT JUMPDEST POP ADD PUSH1 0x14 ADD MLOAD PUSH20 0xFFFFFFFFFFFFFFFFFFFFFFFFFFFFFFFFFFFFFFFF AND SWAP1 JUMP JUMPDEST DUP3 MLOAD PUSH1 0x20 DUP4 ADD GT ISZERO PUSH2 0x113E JUMPI PUSH1 0x40 DUP1 MLOAD PUSH32 0x8C379A000000000000000000000000000000000000000000000000000000000 DUP2 MSTORE PUSH1 0x20 PUSH1 0x4 DUP3 ADD MSTORE PUSH1 0x26 PUSH1 0x24 DUP3 ADD MSTORE PUSH32 0x475245415445525F4F525F455155414C5F544F5F33325F4C454E4754485F5245 PUSH1 0x44 DUP3 ADD MSTORE PUSH32 0x5155495245440000000000000000000000000000000000000000000000000000 PUSH1 0x64 DUP3 ADD MSTORE SWAP1 MLOAD SWAP1 DUP2 SWAP1 SUB PUSH1 0x84 ADD SWAP1 REVERT JUMPDEST SWAP2 ADD PUSH1 0x20 ADD MSTORE JUMP JUMPDEST PUSH1 0x0 PUSH1 0x14 DUP3 MLOAD LT ISZERO ISZERO ISZERO PUSH2 0x11E1 JUMPI PUSH1 0x40 DUP1 MLOAD PUSH32 0x8C379A000000000000000000000000000000000000000000000000000000000 DUP2 MSTORE PUSH1 0x20 PUSH1 0x4 DUP3 ADD MSTORE PUSH1 0x26 PUSH1 0x24 DUP3 ADD MSTORE PUSH32 0x475245415445525F4F525F455155414C5F544F5F32305F4C454E4754485F5245 PUSH1 0x44 DUP3 ADD MSTORE PUSH32 0x5155495245440000000000000000000000000000000000000000000000000000 PUSH1 0x64 DUP3 ADD MSTORE SWAP1 MLOAD SWAP1 DUP2 SWAP1 SUB PUSH1 0x84 ADD SWAP1 REVERT JUMPDEST PUSH2 0x11EF DUP3 PUSH1 0x14 DUP5 MLOAD SUB PUSH2 0xFE9 JUMP JUMPDEST DUP3 MLOAD PUSH32 0xFFFFFFFFFFFFFFFFFFFFFFFFFFFFFFFFFFFFFFFFFFFFFFFFFFFFFFFFFFFFFFEC ADD SWAP1 SWAP3 MSTORE POP SWAP1 JUMP JUMPDEST PUSH1 0x0 DUP2 MLOAD DUP4 MLOAD EQ DUP1 ISZERO PUSH2 0x9AB JUMPI POP DUP2 PUSH1 0x40 MLOAD DUP1 DUP3 DUP1 MLOAD SWAP1 PUSH1 0x20 ADD SWAP1 DUP1 DUP4 DUP4 JUMPDEST PUSH1 0x20 DUP4 LT PUSH2 0x1276 JUMPI DUP1 MLOAD DUP3 MSTORE PUSH32 0xFFFFFFFFFFFFFFFFFFFFFFFFFFFFFFFFFFFFFFFFFFFFFFFFFFFFFFFFFFFFFFE0 SWAP1 SWAP3 ADD SWAP2 PUSH1 0x20 SWAP2 DUP3 ADD SWAP2 ADD PUSH2 0x1239 JUMP JUMPDEST MLOAD DUP2 MLOAD PUSH1 0x20 SWAP4 DUP5 SUB PUSH2 0x100 EXP PUSH32 0xFFFFFFFFFFFFFFFFFFFFFFFFFFFFFFFFFFFFFFFFFFFFFFFFFFFFFFFFFFFFFFFF ADD DUP1 NOT SWAP1 SWAP3 AND SWAP2 AND OR SWAP1 MSTORE PUSH1 0x40 MLOAD SWAP2 SWAP1 SWAP4 ADD DUP2 SWAP1 SUB DUP2 KECCAK256 DUP9 MLOAD SWAP1 SWAP6 POP DUP9 SWAP5 POP SWAP1 SWAP3 DUP4 SWAP3 POP DUP5 ADD SWAP1 DUP1 DUP4 DUP4 JUMPDEST PUSH1 0x20 DUP4 LT PUSH2 0x130B JUMPI DUP1 MLOAD DUP3 MSTORE PUSH32 0xFFFFFFFFFFFFFFFFFFFFFFFFFFFFFFFFFFFFFFFFFFFFFFFFFFFFFFFFFFFFFFE0 SWAP1 SWAP3 ADD SWAP2 PUSH1 0x20 SWAP2 DUP3 ADD SWAP2 ADD PUSH2 0x12CE JUMP JUMPDEST PUSH1 0x1 DUP4 PUSH1 0x20 SUB PUSH2 0x100 EXP SUB DUP1 NOT DUP3 MLOAD AND DUP2 DUP5 MLOAD AND DUP1 DUP3 OR DUP6 MSTORE POP POP POP POP POP POP SWAP1 POP ADD SWAP2 POP POP PUSH1 0x40 MLOAD DUP1 SWAP2 SUB SWAP1 KECCAK256 PUSH1 0x0 NOT AND EQ SWAP4 SWAP3 POP POP POP JUMP JUMPDEST PUSH2 0xD78 DUP4 DUP4 DUP4 PUSH2 0x10A5 JUMP JUMPDEST PUSH1 0x0 DUP2 PUSH1 0x20 ADD DUP4 MLOAD LT ISZERO ISZERO ISZERO PUSH2 0x13EC JUMPI PUSH1 0x40 DUP1 MLOAD PUSH32 0x8C379A000000000000000000000000000000000000000000000000000000000 DUP2 MSTORE PUSH1 0x20 PUSH1 0x4 DUP3 ADD MSTORE PUSH1 0x26 PUSH1 0x24 DUP3 ADD MSTORE PUSH32 0x475245415445525F4F525F455155414C5F544F5F33325F4C454E4754485F5245 PUSH1 0x44 DUP3 ADD MSTORE PUSH32 0x5155495245440000000000000000000000000000000000000000000000000000 PUSH1 0x64 DUP3 ADD MSTORE SWAP1 MLOAD SWAP1 DUP2 SWAP1 SUB PUSH1 0x84 ADD SWAP1 REVERT JUMPDEST POP ADD PUSH1 0x20 ADD MLOAD SWAP1 JUMP JUMPDEST PUSH1 0x0 DUP2 PUSH1 0x4 ADD DUP4 MLOAD LT ISZERO ISZERO ISZERO PUSH2 0x1492 JUMPI PUSH1 0x40 DUP1 MLOAD PUSH32 0x8C379A000000000000000000000000000000000000000000000000000000000 DUP2 MSTORE PUSH1 0x20 PUSH1 0x4 DUP3 ADD MSTORE PUSH1 0x25 PUSH1 0x24 DUP3 ADD MSTORE PUSH32 0x475245415445525F4F525F455155414C5F544F5F345F4C454E4754485F524551 PUSH1 0x44 DUP3 ADD MSTORE PUSH32 0x5549524544000000000000000000000000000000000000000000000000000000 PUSH1 0x64 DUP3 ADD MSTORE SWAP1 MLOAD SWAP1 DUP2 SWAP1 SUB PUSH1 0x84 ADD SWAP1 REVERT JUMPDEST POP POP PUSH1 0x20 ADD MLOAD PUSH32 0xFFFFFFFF00000000000000000000000000000000000000000000000000000000 AND SWAP1 JUMP JUMPDEST PUSH1 0x0 PUSH2 0x9AB DUP4 DUP4 PUSH2 0x134F JUMP JUMPDEST SWAP1 JUMP STOP LOG1 PUSH6 0x627A7A723058 KECCAK256 0xba PUSH28 0x4C0F930A784427242F01FCB14FD9900B2467AEBB82D18D9264CFA7CA 0xd0 0xc0 STOP 0x29 "
			}
		}
	},
	"sourceTreeHashHex": "0x576c249cc9fbe26dcf247612088418c48ae9deb865ccc461cf72c637a4acc6d0",
	"compiler": {
		"name": "solc",
		"version": "soljson-v0.4.24+commit.e67f0147.js",
		"settings": {
			"optimizer": {
				"enabled": true,
				"runs": 1000000
			},
			"outputSelection": {
				"*": {
					"*": [
						"abi",
						"evm.bytecode.object",
						"evm.bytecode.sourceMap",
						"evm.deployedBytecode.object",
						"evm.deployedBytecode.sourceMap"
					]
				}
			}
		}
	}
}