{
    "schemaVersion": "2.0.0",
    "contractName": "Metacoin",
    "compilerOutput": {
        "abi": [
            {
                "constant": false,
                "inputs": [
                    {
                        "components": [
                            {
                                "components": [
                                    {
                                        "name": "to",
                                        "type": "address"
                                    },
                                    {
                                        "name": "amount",
                                        "type": "uint256"
                                    }
                                ],
                                "name": "transferData",
                                "type": "tuple"
                            },
                            {
                                "name": "callback",
                                "type": "uint32"
                            }
                        ],
                        "name": "nestedTransferData",
                        "type": "tuple"
                    }
                ],
                "name": "transfer",
                "outputs": [
                    {
                        "name": "",
                        "type": "int256"
                    }
                ],
                "payable": false,
                "stateMutability": "nonpayable",
                "type": "function"
            },
            {
                "constant": true,
                "inputs": [
                    {
                        "name": "",
                        "type": "address"
                    }
                ],
                "name": "balances",
                "outputs": [
                    {
                        "name": "",
                        "type": "uint256"
                    }
                ],
                "payable": false,
                "stateMutability": "view",
                "type": "function"
            },
            {
                "constant": false,
                "inputs": [
                    {
                        "components": [
                            {
                                "name": "to",
                                "type": "address"
                            },
                            {
                                "name": "amount",
                                "type": "uint256"
                            }
                        ],
                        "name": "transferData",
                        "type": "tuple"
                    }
                ],
                "name": "transfer",
                "outputs": [
                    {
                        "name": "success",
                        "type": "bool"
                    }
                ],
                "payable": false,
                "stateMutability": "nonpayable",
                "type": "function"
            },
            {
                "constant": false,
                "inputs": [
                    {
                        "components": [
                            {
                                "name": "to",
                                "type": "address"
                            },
                            {
                                "name": "amount",
                                "type": "uint256"
                            }
                        ],
                        "name": "transferData",
                        "type": "tuple"
                    },
                    {
                        "name": "callback",
                        "type": "uint32"
                    }
                ],
                "name": "transfer",
                "outputs": [
                    {
                        "name": "",
                        "type": "int256"
                    }
                ],
                "payable": false,
                "stateMutability": "nonpayable",
                "type": "function"
            },
            {
                "inputs": [],
                "payable": false,
                "stateMutability": "nonpayable",
                "type": "constructor"
            },
            {
                "anonymous": false,
                "inputs": [
                    {
                        "indexed": true,
                        "name": "_from",
                        "type": "address"
                    },
                    {
                        "indexed": true,
                        "name": "_to",
                        "type": "address"
                    },
                    {
                        "indexed": false,
                        "name": "_value",
                        "type": "uint256"
                    }
                ],
                "name": "Transfer",
                "type": "event"
            }
        ],
        "devdoc": {
            "methods": {
                "transfer((address,uint256))": {
                    "details": "This is an example devdoc",
                    "params": {
                        "transferData": "Transfer data to act on."
                    },
                    "return": "success True if successful, otherwise false"
                }
            }
        },
        "evm": {
            "bytecode": {
                "linkReferences": {},
                "object": "0x608060405234801561001057600080fd5b506127106000803373ffffffffffffffffffffffffffffffffffffffff1673ffffffffffffffffffffffffffffffffffffffff1681526020019081526020016000208190555061062f806100656000396000f300608060405260043610610062576000357c0100000000000000000000000000000000000000000000000000000000900463ffffffff168063135cfdb11461006757806327e235e3146100a45780632bd14bb9146100e15780632f8086ba1461011e575b600080fd5b34801561007357600080fd5b5061008e60048036036100899190810190610462565b61015b565b60405161009b9190610538565b60405180910390f35b3480156100b057600080fd5b506100cb60048036036100c69190810190610439565b610176565b6040516100d89190610553565b60405180910390f35b3480156100ed57600080fd5b506101086004803603610103919081019061048b565b61018e565b604051610115919061051d565b60405180910390f35b34801561012a57600080fd5b50610145600480360361014091908101906104b4565b6102fe565b6040516101529190610538565b60405180910390f35b600061016f826000015183602001516102fe565b9050919050565b60006020528060005260406000206000915090505481565b600081602001516000803373ffffffffffffffffffffffffffffffffffffffff1673ffffffffffffffffffffffffffffffffffffffff1681526020019081526020016000205410156101e357600090506102f9565b81602001516000803373ffffffffffffffffffffffffffffffffffffffff1673ffffffffffffffffffffffffffffffffffffffff168152602001908152602001600020600082825403925050819055508160200151600080846000015173ffffffffffffffffffffffffffffffffffffffff1673ffffffffffffffffffffffffffffffffffffffff16815260200190815260200160002060008282540192505081905550816000015173ffffffffffffffffffffffffffffffffffffffff163373ffffffffffffffffffffffffffffffffffffffff167fddf252ad1be2c89b69c2b068fc378daa952ba7f163c4a11628f55a4df523b3ef84602001516040516102ec9190610553565b60405180910390a3600190505b919050565b60006103098361018e565b508163ffffffff16905092915050565b600061032582356105bb565b905092915050565b60006060828403121561033f57600080fd5b610349604061056e565b9050600061035984828501610379565b600083015250604061036d84828501610425565b60208301525092915050565b60006040828403121561038b57600080fd5b610395604061056e565b905060006103a584828501610319565b60008301525060206103b984828501610411565b60208301525092915050565b6000604082840312156103d757600080fd5b6103e1604061056e565b905060006103f184828501610319565b600083015250602061040584828501610411565b60208301525092915050565b600061041d82356105db565b905092915050565b600061043182356105e5565b905092915050565b60006020828403121561044b57600080fd5b600061045984828501610319565b91505092915050565b60006060828403121561047457600080fd5b60006104828482850161032d565b91505092915050565b60006040828403121561049d57600080fd5b60006104ab848285016103c5565b91505092915050565b600080606083850312156104c757600080fd5b60006104d5858286016103c5565b92505060406104e685828601610425565b9150509250929050565b6104f98161059b565b82525050565b610508816105a7565b82525050565b610517816105b1565b82525050565b600060208201905061053260008301846104f0565b92915050565b600060208201905061054d60008301846104ff565b92915050565b6000602082019050610568600083018461050e565b92915050565b6000604051905081810181811067ffffffffffffffff8211171561059157600080fd5b8060405250919050565b60008115159050919050565b6000819050919050565b6000819050919050565b600073ffffffffffffffffffffffffffffffffffffffff82169050919050565b6000819050919050565b600063ffffffff821690509190505600a265627a7a723058204f8464809bbc4aaac2876c5359dd51c40c186db80e25ffcc3c591ba2a8d26bd16c6578706572696d656e74616cf50037",
                "opcodes": "PUSH1 0x80 PUSH1 0x40 MSTORE CALLVALUE DUP1 ISZERO PUSH2 0x10 JUMPI PUSH1 0x0 DUP1 REVERT JUMPDEST POP PUSH2 0x2710 PUSH1 0x0 DUP1 CALLER PUSH20 0xFFFFFFFFFFFFFFFFFFFFFFFFFFFFFFFFFFFFFFFF AND PUSH20 0xFFFFFFFFFFFFFFFFFFFFFFFFFFFFFFFFFFFFFFFF AND DUP2 MSTORE PUSH1 0x20 ADD SWAP1 DUP2 MSTORE PUSH1 0x20 ADD PUSH1 0x0 KECCAK256 DUP2 SWAP1 SSTORE POP PUSH2 0x62F DUP1 PUSH2 0x65 PUSH1 0x0 CODECOPY PUSH1 0x0 RETURN STOP PUSH1 0x80 PUSH1 0x40 MSTORE PUSH1 0x4 CALLDATASIZE LT PUSH2 0x62 JUMPI PUSH1 0x0 CALLDATALOAD PUSH29 0x100000000000000000000000000000000000000000000000000000000 SWAP1 DIV PUSH4 0xFFFFFFFF AND DUP1 PUSH4 0x135CFDB1 EQ PUSH2 0x67 JUMPI DUP1 PUSH4 0x27E235E3 EQ PUSH2 0xA4 JUMPI DUP1 PUSH4 0x2BD14BB9 EQ PUSH2 0xE1 JUMPI DUP1 PUSH4 0x2F8086BA EQ PUSH2 0x11E JUMPI JUMPDEST PUSH1 0x0 DUP1 REVERT JUMPDEST CALLVALUE DUP1 ISZERO PUSH2 0x73 JUMPI PUSH1 0x0 DUP1 REVERT JUMPDEST POP PUSH2 0x8E PUSH1 0x4 DUP1 CALLDATASIZE SUB PUSH2 0x89 SWAP2 SWAP1 DUP2 ADD SWAP1 PUSH2 0x462 JUMP JUMPDEST PUSH2 0x15B JUMP JUMPDEST PUSH1 0x40 MLOAD PUSH2 0x9B SWAP2 SWAP1 PUSH2 0x538 JUMP JUMPDEST PUSH1 0x40 MLOAD DUP1 SWAP2 SUB SWAP1 RETURN JUMPDEST CALLVALUE DUP1 ISZERO PUSH2 0xB0 JUMPI PUSH1 0x0 DUP1 REVERT JUMPDEST POP PUSH2 0xCB PUSH1 0x4 DUP1 CALLDATASIZE SUB PUSH2 0xC6 SWAP2 SWAP1 DUP2 ADD SWAP1 PUSH2 0x439 JUMP JUMPDEST PUSH2 0x176 JUMP JUMPDEST PUSH1 0x40 MLOAD PUSH2 0xD8 SWAP2 SWAP1 PUSH2 0x553 JUMP JUMPDEST PUSH1 0x40 MLOAD DUP1 SWAP2 SUB SWAP1 RETURN JUMPDEST CALLVALUE DUP1 ISZERO PUSH2 0xED JUMPI PUSH1 0x0 DUP1 REVERT JUMPDEST POP PUSH2 0x108 PUSH1 0x4 DUP1 CALLDATASIZE SUB PUSH2 0x103 SWAP2 SWAP1 DUP2 ADD SWAP1 PUSH2 0x48B JUMP JUMPDEST PUSH2 0x18E JUMP JUMPDEST PUSH1 0x40 MLOAD PUSH2 0x115 SWAP2 SWAP1 PUSH2 0x51D JUMP JUMPDEST PUSH1 0x40 MLOAD DUP1 SWAP2 SUB SWAP1 RETURN JUMPDEST CALLVALUE DUP1 ISZERO PUSH2 0x12A JUMPI PUSH1 0x0 DUP1 REVERT JUMPDEST POP PUSH2 0x145 PUSH1 0x4 DUP1 CALLDATASIZE SUB PUSH2 0x140 SWAP2 SWAP1 DUP2 ADD SWAP1 PUSH2 0x4B4 JUMP JUMPDEST PUSH2 0x2FE JUMP JUMPDEST PUSH1 0x40 MLOAD PUSH2 0x152 SWAP2 SWAP1 PUSH2 0x538 JUMP JUMPDEST PUSH1 0x40 MLOAD DUP1 SWAP2 SUB SWAP1 RETURN JUMPDEST PUSH1 0x0 PUSH2 0x16F DUP3 PUSH1 0x0 ADD MLOAD DUP4 PUSH1 0x20 ADD MLOAD PUSH2 0x2FE JUMP JUMPDEST SWAP1 POP SWAP2 SWAP1 POP JUMP JUMPDEST PUSH1 0x0 PUSH1 0x20 MSTORE DUP1 PUSH1 0x0 MSTORE PUSH1 0x40 PUSH1 0x0 KECCAK256 PUSH1 0x0 SWAP2 POP SWAP1 POP SLOAD DUP2 JUMP JUMPDEST PUSH1 0x0 DUP2 PUSH1 0x20 ADD MLOAD PUSH1 0x0 DUP1 CALLER PUSH20 0xFFFFFFFFFFFFFFFFFFFFFFFFFFFFFFFFFFFFFFFF AND PUSH20 0xFFFFFFFFFFFFFFFFFFFFFFFFFFFFFFFFFFFFFFFF AND DUP2 MSTORE PUSH1 0x20 ADD SWAP1 DUP2 MSTORE PUSH1 0x20 ADD PUSH1 0x0 KECCAK256 SLOAD LT ISZERO PUSH2 0x1E3 JUMPI PUSH1 0x0 SWAP1 POP PUSH2 0x2F9 JUMP JUMPDEST DUP2 PUSH1 0x20 ADD MLOAD PUSH1 0x0 DUP1 CALLER PUSH20 0xFFFFFFFFFFFFFFFFFFFFFFFFFFFFFFFFFFFFFFFF AND PUSH20 0xFFFFFFFFFFFFFFFFFFFFFFFFFFFFFFFFFFFFFFFF AND DUP2 MSTORE PUSH1 0x20 ADD SWAP1 DUP2 MSTORE PUSH1 0x20 ADD PUSH1 0x0 KECCAK256 PUSH1 0x0 DUP3 DUP3 SLOAD SUB SWAP3 POP POP DUP2 SWAP1 SSTORE POP DUP2 PUSH1 0x20 ADD MLOAD PUSH1 0x0 DUP1 DUP5 PUSH1 0x0 ADD MLOAD PUSH20 0xFFFFFFFFFFFFFFFFFFFFFFFFFFFFFFFFFFFFFFFF AND PUSH20 0xFFFFFFFFFFFFFFFFFFFFFFFFFFFFFFFFFFFFFFFF AND DUP2 MSTORE PUSH1 0x20 ADD SWAP1 DUP2 MSTORE PUSH1 0x20 ADD PUSH1 0x0 KECCAK256 PUSH1 0x0 DUP3 DUP3 SLOAD ADD SWAP3 POP POP DUP2 SWAP1 SSTORE POP DUP2 PUSH1 0x0 ADD MLOAD PUSH20 0xFFFFFFFFFFFFFFFFFFFFFFFFFFFFFFFFFFFFFFFF AND CALLER PUSH20 0xFFFFFFFFFFFFFFFFFFFFFFFFFFFFFFFFFFFFFFFF AND PUSH32 0xDDF252AD1BE2C89B69C2B068FC378DAA952BA7F163C4A11628F55A4DF523B3EF DUP5 PUSH1 0x20 ADD MLOAD PUSH1 0x40 MLOAD PUSH2 0x2EC SWAP2 SWAP1 PUSH2 0x553 JUMP JUMPDEST PUSH1 0x40 MLOAD DUP1 SWAP2 SUB SWAP1 LOG3 PUSH1 0x1 SWAP1 POP JUMPDEST SWAP2 SWAP1 POP JUMP JUMPDEST PUSH1 0x0 PUSH2 0x309 DUP4 PUSH2 0x18E JUMP JUMPDEST POP DUP2 PUSH4 0xFFFFFFFF AND SWAP1 POP SWAP3 SWAP2 POP POP JUMP JUMPDEST PUSH1 0x0 PUSH2 0x325 DUP3 CALLDATALOAD PUSH2 0x5BB JUMP JUMPDEST SWAP1 POP SWAP3 SWAP2 POP POP JUMP JUMPDEST PUSH1 0x0 PUSH1 0x60 DUP3 DUP5 SUB SLT ISZERO PUSH2 0x33F JUMPI PUSH1 0x0 DUP1 REVERT JUMPDEST PUSH2 0x349 PUSH1 0x40 PUSH2 0x56E JUMP JUMPDEST SWAP1 POP PUSH1 0x0 PUSH2 0x359 DUP5 DUP3 DUP6 ADD PUSH2 0x379 JUMP JUMPDEST PUSH1 0x0 DUP4 ADD MSTORE POP PUSH1 0x40 PUSH2 0x36D DUP5 DUP3 DUP6 ADD PUSH2 0x425 JUMP JUMPDEST PUSH1 0x20 DUP4 ADD MSTORE POP SWAP3 SWAP2 POP POP JUMP JUMPDEST PUSH1 0x0 PUSH1 0x40 DUP3 DUP5 SUB SLT ISZERO PUSH2 0x38B JUMPI PUSH1 0x0 DUP1 REVERT JUMPDEST PUSH2 0x395 PUSH1 0x40 PUSH2 0x56E JUMP JUMPDEST SWAP1 POP PUSH1 0x0 PUSH2 0x3A5 DUP5 DUP3 DUP6 ADD PUSH2 0x319 JUMP JUMPDEST PUSH1 0x0 DUP4 ADD MSTORE POP PUSH1 0x20 PUSH2 0x3B9 DUP5 DUP3 DUP6 ADD PUSH2 0x411 JUMP JUMPDEST PUSH1 0x20 DUP4 ADD MSTORE POP SWAP3 SWAP2 POP POP JUMP JUMPDEST PUSH1 0x0 PUSH1 0x40 DUP3 DUP5 SUB SLT ISZERO PUSH2 0x3D7 JUMPI PUSH1 0x0 DUP1 REVERT JUMPDEST PUSH2 0x3E1 PUSH1 0x40 PUSH2 0x56E JUMP JUMPDEST SWAP1 POP PUSH1 0x0 PUSH2 0x3F1 DUP5 DUP3 DUP6 ADD PUSH2 0x319 JUMP JUMPDEST PUSH1 0x0 DUP4 ADD MSTORE POP PUSH1 0x20 PUSH2 0x405 DUP5 DUP3 DUP6 ADD PUSH2 0x411 JUMP JUMPDEST PUSH1 0x20 DUP4 ADD MSTORE POP SWAP3 SWAP2 POP POP JUMP JUMPDEST PUSH1 0x0 PUSH2 0x41D DUP3 CALLDATALOAD PUSH2 0x5DB JUMP JUMPDEST SWAP1 POP SWAP3 SWAP2 POP POP JUMP JUMPDEST PUSH1 0x0 PUSH2 0x431 DUP3 CALLDATALOAD PUSH2 0x5E5 JUMP JUMPDEST SWAP1 POP SWAP3 SWAP2 POP POP JUMP JUMPDEST PUSH1 0x0 PUSH1 0x20 DUP3 DUP5 SUB SLT ISZERO PUSH2 0x44B JUMPI PUSH1 0x0 DUP1 REVERT JUMPDEST PUSH1 0x0 PUSH2 0x459 DUP5 DUP3 DUP6 ADD PUSH2 0x319 JUMP JUMPDEST SWAP2 POP POP SWAP3 SWAP2 POP POP JUMP JUMPDEST PUSH1 0x0 PUSH1 0x60 DUP3 DUP5 SUB SLT ISZERO PUSH2 0x474 JUMPI PUSH1 0x0 DUP1 REVERT JUMPDEST PUSH1 0x0 PUSH2 0x482 DUP5 DUP3 DUP6 ADD PUSH2 0x32D JUMP JUMPDEST SWAP2 POP POP SWAP3 SWAP2 POP POP JUMP JUMPDEST PUSH1 0x0 PUSH1 0x40 DUP3 DUP5 SUB SLT ISZERO PUSH2 0x49D JUMPI PUSH1 0x0 DUP1 REVERT JUMPDEST PUSH1 0x0 PUSH2 0x4AB DUP5 DUP3 DUP6 ADD PUSH2 0x3C5 JUMP JUMPDEST SWAP2 POP POP SWAP3 SWAP2 POP POP JUMP JUMPDEST PUSH1 0x0 DUP1 PUSH1 0x60 DUP4 DUP6 SUB SLT ISZERO PUSH2 0x4C7 JUMPI PUSH1 0x0 DUP1 REVERT JUMPDEST PUSH1 0x0 PUSH2 0x4D5 DUP6 DUP3 DUP7 ADD PUSH2 0x3C5 JUMP JUMPDEST SWAP3 POP POP PUSH1 0x40 PUSH2 0x4E6 DUP6 DUP3 DUP7 ADD PUSH2 0x425 JUMP JUMPDEST SWAP2 POP POP SWAP3 POP SWAP3 SWAP1 POP JUMP JUMPDEST PUSH2 0x4F9 DUP2 PUSH2 0x59B JUMP JUMPDEST DUP3 MSTORE POP POP JUMP JUMPDEST PUSH2 0x508 DUP2 PUSH2 0x5A7 JUMP JUMPDEST DUP3 MSTORE POP POP JUMP JUMPDEST PUSH2 0x517 DUP2 PUSH2 0x5B1 JUMP JUMPDEST DUP3 MSTORE POP POP JUMP JUMPDEST PUSH1 0x0 PUSH1 0x20 DUP3 ADD SWAP1 POP PUSH2 0x532 PUSH1 0x0 DUP4 ADD DUP5 PUSH2 0x4F0 JUMP JUMPDEST SWAP3 SWAP2 POP POP JUMP JUMPDEST PUSH1 0x0 PUSH1 0x20 DUP3 ADD SWAP1 POP PUSH2 0x54D PUSH1 0x0 DUP4 ADD DUP5 PUSH2 0x4FF JUMP JUMPDEST SWAP3 SWAP2 POP POP JUMP JUMPDEST PUSH1 0x0 PUSH1 0x20 DUP3 ADD SWAP1 POP PUSH2 0x568 PUSH1 0x0 DUP4 ADD DUP5 PUSH2 0x50E JUMP JUMPDEST SWAP3 SWAP2 POP POP JUMP JUMPDEST PUSH1 0x0 PUSH1 0x40 MLOAD SWAP1 POP DUP2 DUP2 ADD DUP2 DUP2 LT PUSH8 0xFFFFFFFFFFFFFFFF DUP3 GT OR ISZERO PUSH2 0x591 JUMPI PUSH1 0x0 DUP1 REVERT JUMPDEST DUP1 PUSH1 0x40 MSTORE POP SWAP2 SWAP1 POP JUMP JUMPDEST PUSH1 0x0 DUP2 ISZERO ISZERO SWAP1 POP SWAP2 SWAP1 POP JUMP JUMPDEST PUSH1 0x0 DUP2 SWAP1 POP SWAP2 SWAP1 POP JUMP JUMPDEST PUSH1 0x0 DUP2 SWAP1 POP SWAP2 SWAP1 POP JUMP JUMPDEST PUSH1 0x0 PUSH20 0xFFFFFFFFFFFFFFFFFFFFFFFFFFFFFFFFFFFFFFFF DUP3 AND SWAP1 POP SWAP2 SWAP1 POP JUMP JUMPDEST PUSH1 0x0 DUP2 SWAP1 POP SWAP2 SWAP1 POP JUMP JUMPDEST PUSH1 0x0 PUSH4 0xFFFFFFFF DUP3 AND SWAP1 POP SWAP2 SWAP1 POP JUMP STOP LOG2 PUSH6 0x627A7A723058 KECCAK256 0x4f DUP5 PUSH5 0x809BBC4AAA 0xc2 DUP8 PUSH13 0x5359DD51C40C186DB80E25FFCC EXTCODECOPY MSIZE SHL LOG2 0xa8 0xd2 PUSH12 0xD16C6578706572696D656E74 PUSH2 0x6CF5 STOP CALLDATACOPY "
            }
        }
    },
    "sourceTreeHashHex": "0xa8c3b5c47b2678022db13e92b6c1416e6ee31d2c7a2760f04c2775430290f1a4",
    "compiler": {
        "name": "solc",
        "version": "soljson-v0.4.26+commit.4563c3fc.js",
        "settings": {
            "optimizer": {
                "enabled": false
            },
            "outputSelection": {
                "*": {
                    "*": [
                        "abi",
                        "devdoc",
                        "evm.bytecode.object",
                        "evm.bytecode.sourceMap",
                        "evm.deployedBytecode.object",
                        "evm.deployedBytecode.sourceMap"
                    ]
                }
            },
            "remappings": []
        }
    }
}