{
	"schemaVersion": "2.0.0",
	"contractName": "TestLibs",
	"compilerOutput": {
		"abi": [
			{
				"constant": true,
				"inputs": [
					{
						"name": "numerator",
						"type": "uint256"
					},
					{
						"name": "denominator",
						"type": "uint256"
					},
					{
						"name": "target",
						"type": "uint256"
					}
				],
				"name": "publicIsRoundingErrorFloor",
				"outputs": [
					{
						"name": "isError",
						"type": "bool"
					}
				],
				"payable": false,
				"stateMutability": "pure",
				"type": "function"
			},
			{
				"constant": true,
				"inputs": [
					{
						"name": "numerator",
						"type": "uint256"
					},
					{
						"name": "denominator",
						"type": "uint256"
					},
					{
						"name": "target",
						"type": "uint256"
					}
				],
				"name": "publicGetPartialAmountCeil",
				"outputs": [
					{
						"name": "partialAmount",
						"type": "uint256"
					}
				],
				"payable": false,
				"stateMutability": "pure",
				"type": "function"
			},
			{
				"constant": true,
				"inputs": [],
				"name": "getDomainSeparatorSchemaHash",
				"outputs": [
					{
						"name": "",
						"type": "bytes32"
					}
				],
				"payable": false,
				"stateMutability": "pure",
				"type": "function"
			},
			{
				"constant": true,
				"inputs": [
					{
						"components": [
							{
								"name": "makerAssetFilledAmount",
								"type": "uint256"
							},
							{
								"name": "takerAssetFilledAmount",
								"type": "uint256"
							},
							{
								"name": "makerFeePaid",
								"type": "uint256"
							},
							{
								"name": "takerFeePaid",
								"type": "uint256"
							}
						],
						"name": "totalFillResults",
						"type": "tuple"
					},
					{
						"components": [
							{
								"name": "makerAssetFilledAmount",
								"type": "uint256"
							},
							{
								"name": "takerAssetFilledAmount",
								"type": "uint256"
							},
							{
								"name": "makerFeePaid",
								"type": "uint256"
							},
							{
								"name": "takerFeePaid",
								"type": "uint256"
							}
						],
						"name": "singleFillResults",
						"type": "tuple"
					}
				],
				"name": "publicAddFillResults",
				"outputs": [
					{
						"components": [
							{
								"name": "makerAssetFilledAmount",
								"type": "uint256"
							},
							{
								"name": "takerAssetFilledAmount",
								"type": "uint256"
							},
							{
								"name": "makerFeePaid",
								"type": "uint256"
							},
							{
								"name": "takerFeePaid",
								"type": "uint256"
							}
						],
						"name": "",
						"type": "tuple"
					}
				],
				"payable": false,
				"stateMutability": "pure",
				"type": "function"
			},
			{
				"constant": true,
				"inputs": [
					{
						"name": "numerator",
						"type": "uint256"
					},
					{
						"name": "denominator",
						"type": "uint256"
					},
					{
						"name": "target",
						"type": "uint256"
					}
				],
				"name": "publicIsRoundingErrorCeil",
				"outputs": [
					{
						"name": "isError",
						"type": "bool"
					}
				],
				"payable": false,
				"stateMutability": "pure",
				"type": "function"
			},
			{
				"constant": true,
				"inputs": [],
				"name": "getOrderSchemaHash",
				"outputs": [
					{
						"name": "",
						"type": "bytes32"
					}
				],
				"payable": false,
				"stateMutability": "pure",
				"type": "function"
			},
			{
				"constant": true,
				"inputs": [
					{
						"name": "numerator",
						"type": "uint256"
					},
					{
						"name": "denominator",
						"type": "uint256"
					},
					{
						"name": "target",
						"type": "uint256"
					}
				],
				"name": "publicGetPartialAmountFloor",
				"outputs": [
					{
						"name": "partialAmount",
						"type": "uint256"
					}
				],
				"payable": false,
				"stateMutability": "pure",
				"type": "function"
			},
			{
				"constant": true,
				"inputs": [
					{
						"components": [
							{
								"name": "makerAddress",
								"type": "address"
							},
							{
								"name": "takerAddress",
								"type": "address"
							},
							{
								"name": "feeRecipientAddress",
								"type": "address"
							},
							{
								"name": "senderAddress",
								"type": "address"
							},
							{
								"name": "makerAssetAmount",
								"type": "uint256"
							},
							{
								"name": "takerAssetAmount",
								"type": "uint256"
							},
							{
								"name": "makerFee",
								"type": "uint256"
							},
							{
								"name": "takerFee",
								"type": "uint256"
							},
							{
								"name": "expirationTimeSeconds",
								"type": "uint256"
							},
							{
								"name": "salt",
								"type": "uint256"
							},
							{
								"name": "makerAssetData",
								"type": "bytes"
							},
							{
								"name": "takerAssetData",
								"type": "bytes"
							}
						],
						"name": "order",
						"type": "tuple"
					}
				],
				"name": "publicGetOrderHash",
				"outputs": [
					{
						"name": "orderHash",
						"type": "bytes32"
					}
				],
				"payable": false,
				"stateMutability": "view",
				"type": "function"
			},
			{
				"constant": true,
				"inputs": [],
				"name": "EIP712_DOMAIN_HASH",
				"outputs": [
					{
						"name": "",
						"type": "bytes32"
					}
				],
				"payable": false,
				"stateMutability": "view",
				"type": "function"
			},
			{
				"constant": true,
				"inputs": [
					{
						"components": [
							{
								"name": "makerAddress",
								"type": "address"
							},
							{
								"name": "takerAddress",
								"type": "address"
							},
							{
								"name": "feeRecipientAddress",
								"type": "address"
							},
							{
								"name": "senderAddress",
								"type": "address"
							},
							{
								"name": "makerAssetAmount",
								"type": "uint256"
							},
							{
								"name": "takerAssetAmount",
								"type": "uint256"
							},
							{
								"name": "makerFee",
								"type": "uint256"
							},
							{
								"name": "takerFee",
								"type": "uint256"
							},
							{
								"name": "expirationTimeSeconds",
								"type": "uint256"
							},
							{
								"name": "salt",
								"type": "uint256"
							},
							{
								"name": "makerAssetData",
								"type": "bytes"
							},
							{
								"name": "takerAssetData",
								"type": "bytes"
							}
						],
						"name": "order",
						"type": "tuple"
					},
					{
						"name": "takerAssetFillAmount",
						"type": "uint256"
					},
					{
						"name": "signature",
						"type": "bytes"
					}
				],
				"name": "publicAbiEncodeFillOrder",
				"outputs": [
					{
						"name": "fillOrderCalldata",
						"type": "bytes"
					}
				],
				"payable": false,
				"stateMutability": "pure",
				"type": "function"
			}
		],
		"evm": {
			"bytecode": {
				"linkReferences": {},
				"object": "0x608060405260405160200180807f454950373132446f6d61696e2800000000000000000000000000000000000000815250600d01807f737472696e67206e616d652c0000000000000000000000000000000000000000815250600c01807f737472696e672076657273696f6e2c0000000000000000000000000000000000815250600f01807f6164647265737320766572696679696e67436f6e747261637400000000000000815250601901807f290000000000000000000000000000000000000000000000000000000000000081525060010190506040516020818303038152906040526040518082805190602001908083835b60208310151561011957805182526020820191506020810190506020830392506100f4565b6001836020036101000a03801982511681845116808217855250505050505090500191505060405180910390206040805190810160405280600b81526020017f30782050726f746f636f6c0000000000000000000000000000000000000000008152506040518082805190602001908083835b6020831015156101b1578051825260208201915060208101905060208303925061018c565b6001836020036101000a03801982511681845116808217855250505050505090500191505060405180910390206040805190810160405280600181526020017f32000000000000000000000000000000000000000000000000000000000000008152506040518082805190602001908083835b6020831015156102495780518252602082019150602081019050602083039250610224565b6001836020036101000a03801982511681845116808217855250505050505090500191505060405180910390203073ffffffffffffffffffffffffffffffffffffffff166001026040516020018085600019166000191681526020018460001916600019168152602001836000191660001916815260200182600019166000191681526020019450505050506040516020818303038152906040526040518082805190602001908083835b60208310151561031957805182526020820191506020810190506020830392506102f4565b6001836020036101000a0380198251168184511680821785525050505050509050019150506040518091039020600081600019169055506119298061035f6000396000f3006080604052600436106100a4576000357c0100000000000000000000000000000000000000000000000000000000900463ffffffff1680631be23901146100a957806320777f70146100e6578063494d92971461012357806366758d7b1461014e578063679d2f9a1461018b5780637d33c6ee146101c8578063be7ada1e146101f3578063d980208814610230578063e306f7791461026d578063e9c7aa1a14610298575b600080fd5b3480156100b557600080fd5b506100d060048036036100cb9190810190611528565b6102d5565b6040516100dd91906116d4565b60405180910390f35b3480156100f257600080fd5b5061010d60048036036101089190810190611528565b6102ee565b60405161011a91906117a7565b60405180910390f35b34801561012f57600080fd5b50610138610307565b60405161014591906116ef565b60405180910390f35b34801561015a57600080fd5b506101756004803603610170919081019061142b565b610450565b604051610182919061178c565b60405180910390f35b34801561019757600080fd5b506101b260048036036101ad9190810190611528565b61046b565b6040516101bf91906116d4565b60405180910390f35b3480156101d457600080fd5b506101dd610484565b6040516101ea91906116ef565b60405180910390f35b3480156101ff57600080fd5b5061021a60048036036102159190810190611528565b610735565b60405161022791906117a7565b60405180910390f35b34801561023c57600080fd5b5061025760048036036102529190810190611468565b61074e565b60405161026491906116ef565b60405180910390f35b34801561027957600080fd5b50610282610763565b60405161028f91906116ef565b60405180910390f35b3480156102a457600080fd5b506102bf60048036036102ba91908101906114a9565b610769565b6040516102cc919061170a565b60405180910390f35b60006102e2848484610782565b90508090509392505050565b60006102fb84848461081c565b90508090509392505050565b600060405160200180807f454950373132446f6d61696e2800000000000000000000000000000000000000815250600d01807f737472696e67206e616d652c0000000000000000000000000000000000000000815250600c01807f737472696e672076657273696f6e2c0000000000000000000000000000000000815250600f01807f6164647265737320766572696679696e67436f6e747261637400000000000000815250601901807f290000000000000000000000000000000000000000000000000000000000000081525060010190506040516020818303038152906040526040518082805190602001908083835b60208310151561041e57805182526020820191506020810190506020830392506103f9565b6001836020036101000a0380198251168184511680821785525050505050509050019150506040518091039020905090565b61045861116c565b6104628383610894565b82905092915050565b6000610478848484610904565b90508090509392505050565b600060405160200180807f4f72646572280000000000000000000000000000000000000000000000000000815250600601807f61646472657373206d616b6572416464726573732c0000000000000000000000815250601501807f616464726573732074616b6572416464726573732c0000000000000000000000815250601501807f6164647265737320666565526563697069656e74416464726573732c00000000815250601c01807f616464726573732073656e646572416464726573732c00000000000000000000815250601601807f75696e74323536206d616b65724173736574416d6f756e742c00000000000000815250601901807f75696e743235362074616b65724173736574416d6f756e742c00000000000000815250601901807f75696e74323536206d616b65724665652c000000000000000000000000000000815250601101807f75696e743235362074616b65724665652c000000000000000000000000000000815250601101807f75696e743235362065787069726174696f6e54696d655365636f6e64732c0000815250601e01807f75696e743235362073616c742c00000000000000000000000000000000000000815250600d01807f6279746573206d616b65724173736574446174612c0000000000000000000000815250601501807f62797465732074616b6572417373657444617461000000000000000000000000815250601401807f290000000000000000000000000000000000000000000000000000000000000081525060010190506040516020818303038152906040526040518082805190602001908083835b60208310151561070357805182526020820191506020810190506020830392506106de565b6001836020036101000a0380198251168184511680821785525050505050509050019150506040518091039020905090565b60006107428484846109b5565b90508090509392505050565b600061075982610a1a565b9050809050919050565b60005481565b6060610776848484610a37565b90508090509392505050565b6000806000841115156107ca576040517f08c379a00000000000000000000000000000000000000000000000000000000081526004016107c19061174c565b60405180910390fd5b60008314806107d95750600085145b156107e75760009150610814565b838015156107f157fe5b85840990506108008584610c26565b61080c6103e883610c26565b101591508191505b509392505050565b60008083111515610862576040517f08c379a00000000000000000000000000000000000000000000000000000000081526004016108599061174c565b60405180910390fd5b6108886108826108728685610c26565b61087d866001610c9a565b610cec565b84610d43565b90508090509392505050565b6108a682600001518260000151610cec565b8260000181815250506108c182602001518260200151610cec565b8260200181815250506108dc82604001518260400151610cec565b8260400181815250506108f782606001518260600151610cec565b8260600181815250505050565b60008060008411151561094c576040517f08c379a00000000000000000000000000000000000000000000000000000000081526004016109439061174c565b60405180910390fd5b600083148061095b5750600085145b1561096957600091506109ad565b8380151561097357fe5b8584099050836109838583610c9a565b81151561098c57fe5b0690506109998584610c26565b6109a56103e883610c26565b101591508191505b509392505050565b600080831115156109fb576040517f08c379a00000000000000000000000000000000000000000000000000000000081526004016109f29061174c565b60405180910390fd5b610a0e610a088584610c26565b84610d43565b90508090509392505050565b6000610a2d610a2883610d5e565b611122565b9050809050919050565b606060405190507fb4be83d5000000000000000000000000000000000000000000000000000000006020820152602481018060608101818180896000808784038652602086019550825184526020830151602085015260408301516040850152606083015160608501526080830151608085015260a083015160a085015260c083015160c085015260e083015160e085015261010083015161010085015261012083015161012085015261014083015161014085015261016083015161016085015261018084019350610180830192508484036020600a028601526101408d01519250825191506020830192506020601f830104905081845260208401935060005b81811015610b5c5783518552602085019450602084019350600181019050610b39565b508484036020600b028601526101608d01519250825191506020830192506020601f830104905081845260208401935060005b81811015610bb25783518552602085019450602084019350600181019050610b8f565b508b865260208601955087840386528a9250825191506020830192506020601f830104905081845260208401935060005b81811015610c065783518552602085019450602084019350600181019050610be3565b5060208a0184038a52836040525050505050505050508090509392505050565b6000806000841415610c3b5760009150610c93565b8284029050828482811515610c4c57fe5b04141515610c8f576040517f08c379a0000000000000000000000000000000000000000000000000000000008152600401610c869061176c565b60405180910390fd5b8091505b5092915050565b6000828211151515610ce1576040517f08c379a0000000000000000000000000000000000000000000000000000000008152600401610cd89061172c565b60405180910390fd5b818303905092915050565b6000808284019050838110151515610d39576040517f08c379a0000000000000000000000000000000000000000000000000000000008152600401610d309061176c565b60405180910390fd5b8091505092915050565b6000808284811515610d5157fe5b0490508091505092915050565b60008060008060405160200180807f4f72646572280000000000000000000000000000000000000000000000000000815250600601807f61646472657373206d616b6572416464726573732c0000000000000000000000815250601501807f616464726573732074616b6572416464726573732c0000000000000000000000815250601501807f6164647265737320666565526563697069656e74416464726573732c00000000815250601c01807f616464726573732073656e646572416464726573732c00000000000000000000815250601601807f75696e74323536206d616b65724173736574416d6f756e742c00000000000000815250601901807f75696e743235362074616b65724173736574416d6f756e742c00000000000000815250601901807f75696e74323536206d616b65724665652c000000000000000000000000000000815250601101807f75696e743235362074616b65724665652c000000000000000000000000000000815250601101807f75696e743235362065787069726174696f6e54696d655365636f6e64732c0000815250601e01807f75696e743235362073616c742c00000000000000000000000000000000000000815250600d01807f6279746573206d616b65724173736574446174612c0000000000000000000000815250601501807f62797465732074616b6572417373657444617461000000000000000000000000815250601401807f290000000000000000000000000000000000000000000000000000000000000081525060010190506040516020818303038152906040526040518082805190602001908083835b602083101515610fe15780518252602082019150602081019050602083039250610fbc565b6001836020036101000a038019825116818451168082178552505050505050905001915050604051809103902092508461014001516040518082805190602001908083835b60208310151561104b5780518252602082019150602081019050602083039250611026565b6001836020036101000a038019825116818451168082178552505050505050905001915050604051809103902091508461016001516040518082805190602001908083835b6020831015156110b55780518252602082019150602081019050602083039250611090565b6001836020036101000a0380198251168184511680821785525050505050509050019150506040518091039020905060208503610140860161016087018251825182518886528785528684526101a086209950828652818552808452505050505050839350505050919050565b60008060005490506040517f190100000000000000000000000000000000000000000000000000000000000081528160028201528360228201526042812092505081915050919050565b608060405190810160405280600081526020016000815260200160008152602001600081525090565b60006111a18235611872565b905092915050565b600082601f83011215156111bc57600080fd5b81356111cf6111ca826117ef565b6117c2565b915080825260208301602083018583830111156111eb57600080fd5b6111f683828461189c565b50505092915050565b600082601f830112151561121257600080fd5b81356112256112208261181b565b6117c2565b9150808252602083016020830185838301111561124157600080fd5b61124c83828461189c565b50505092915050565b60006080828403121561126757600080fd5b61127160806117c2565b9050600061128184828501611417565b600083015250602061129584828501611417565b60208301525060406112a984828501611417565b60408301525060606112bd84828501611417565b60608301525092915050565b600061018082840312156112dc57600080fd5b6112e76101806117c2565b905060006112f784828501611195565b600083015250602061130b84828501611195565b602083015250604061131f84828501611195565b604083015250606061133384828501611195565b606083015250608061134784828501611417565b60808301525060a061135b84828501611417565b60a08301525060c061136f84828501611417565b60c08301525060e061138384828501611417565b60e08301525061010061139884828501611417565b610100830152506101206113ae84828501611417565b6101208301525061014082013567ffffffffffffffff8111156113d057600080fd5b6113dc848285016111a9565b6101408301525061016082013567ffffffffffffffff8111156113fe57600080fd5b61140a848285016111a9565b6101608301525092915050565b60006114238235611892565b905092915050565b600080610100838503121561143f57600080fd5b600061144d85828601611255565b925050608061145e85828601611255565b9150509250929050565b60006020828403121561147a57600080fd5b600082013567ffffffffffffffff81111561149457600080fd5b6114a0848285016112c9565b91505092915050565b6000806000606084860312156114be57600080fd5b600084013567ffffffffffffffff8111156114d857600080fd5b6114e4868287016112c9565b93505060206114f586828701611417565b925050604084013567ffffffffffffffff81111561151257600080fd5b61151e868287016111ff565b9150509250925092565b60008060006060848603121561153d57600080fd5b600061154b86828701611417565b935050602061155c86828701611417565b925050604061156d86828701611417565b9150509250925092565b61158081611852565b82525050565b61158f8161185e565b82525050565b60006115a082611847565b8084526115b48160208601602086016118ab565b6115bd816118de565b602085010191505092915050565b6000601182527f55494e543235365f554e444552464c4f570000000000000000000000000000006020830152604082019050919050565b6000601082527f4449564953494f4e5f42595f5a45524f000000000000000000000000000000006020830152604082019050919050565b6000601082527f55494e543235365f4f564552464c4f57000000000000000000000000000000006020830152604082019050919050565b60808201600082015161168660008501826116c5565b50602082015161169960208501826116c5565b5060408201516116ac60408501826116c5565b5060608201516116bf60608501826116c5565b50505050565b6116ce81611868565b82525050565b60006020820190506116e96000830184611577565b92915050565b60006020820190506117046000830184611586565b92915050565b600060208201905081810360008301526117248184611595565b905092915050565b60006020820190508181036000830152611745816115cb565b9050919050565b6000602082019050818103600083015261176581611602565b9050919050565b6000602082019050818103600083015261178581611639565b9050919050565b60006080820190506117a16000830184611670565b92915050565b60006020820190506117bc60008301846116c5565b92915050565b6000604051905081810181811067ffffffffffffffff821117156117e557600080fd5b8060405250919050565b600067ffffffffffffffff82111561180657600080fd5b601f19601f8301169050602081019050919050565b600067ffffffffffffffff82111561183257600080fd5b601f19601f8301169050602081019050919050565b600081519050919050565b60008115159050919050565b6000819050919050565b6000819050919050565b600073ffffffffffffffffffffffffffffffffffffffff82169050919050565b6000819050919050565b82818337600083830152505050565b60005b838110156118c95780820151818401526020810190506118ae565b838111156118d8576000848401525b50505050565b6000601f19601f83011690509190505600a265627a7a723058203458030a050ff8eec7d80e8af06441a0c81389dd7c58247c15e5572bf4f84ad86c6578706572696d656e74616cf50037",
				"opcodes": "PUSH1 0x80 PUSH1 0x40 MSTORE PUSH1 0x40 MLOAD PUSH1 0x20 ADD DUP1 DUP1 PUSH32 0x454950373132446F6D61696E2800000000000000000000000000000000000000 DUP2 MSTORE POP PUSH1 0xD ADD DUP1 PUSH32 0x737472696E67206E616D652C0000000000000000000000000000000000000000 DUP2 MSTORE POP PUSH1 0xC ADD DUP1 PUSH32 0x737472696E672076657273696F6E2C0000000000000000000000000000000000 DUP2 MSTORE POP PUSH1 0xF ADD DUP1 PUSH32 0x6164647265737320766572696679696E67436F6E747261637400000000000000 DUP2 MSTORE POP PUSH1 0x19 ADD DUP1 PUSH32 0x2900000000000000000000000000000000000000000000000000000000000000 DUP2 MSTORE POP PUSH1 0x1 ADD SWAP1 POP PUSH1 0x40 MLOAD PUSH1 0x20 DUP2 DUP4 SUB SUB DUP2 MSTORE SWAP1 PUSH1 0x40 MSTORE PUSH1 0x40 MLOAD DUP1 DUP3 DUP1 MLOAD SWAP1 PUSH1 0x20 ADD SWAP1 DUP1 DUP4 DUP4 JUMPDEST PUSH1 0x20 DUP4 LT ISZERO ISZERO PUSH2 0x119 JUMPI DUP1 MLOAD DUP3 MSTORE PUSH1 0x20 DUP3 ADD SWAP2 POP PUSH1 0x20 DUP2 ADD SWAP1 POP PUSH1 0x20 DUP4 SUB SWAP3 POP PUSH2 0xF4 JUMP JUMPDEST PUSH1 0x1 DUP4 PUSH1 0x20 SUB PUSH2 0x100 EXP SUB DUP1 NOT DUP3 MLOAD AND DUP2 DUP5 MLOAD AND DUP1 DUP3 OR DUP6 MSTORE POP POP POP POP POP POP SWAP1 POP ADD SWAP2 POP POP PUSH1 0x40 MLOAD DUP1 SWAP2 SUB SWAP1 KECCAK256 PUSH1 0x40 DUP1 MLOAD SWAP1 DUP2 ADD PUSH1 0x40 MSTORE DUP1 PUSH1 0xB DUP2 MSTORE PUSH1 0x20 ADD PUSH32 0x30782050726F746F636F6C000000000000000000000000000000000000000000 DUP2 MSTORE POP PUSH1 0x40 MLOAD DUP1 DUP3 DUP1 MLOAD SWAP1 PUSH1 0x20 ADD SWAP1 DUP1 DUP4 DUP4 JUMPDEST PUSH1 0x20 DUP4 LT ISZERO ISZERO PUSH2 0x1B1 JUMPI DUP1 MLOAD DUP3 MSTORE PUSH1 0x20 DUP3 ADD SWAP2 POP PUSH1 0x20 DUP2 ADD SWAP1 POP PUSH1 0x20 DUP4 SUB SWAP3 POP PUSH2 0x18C JUMP JUMPDEST PUSH1 0x1 DUP4 PUSH1 0x20 SUB PUSH2 0x100 EXP SUB DUP1 NOT DUP3 MLOAD AND DUP2 DUP5 MLOAD AND DUP1 DUP3 OR DUP6 MSTORE POP POP POP POP POP POP SWAP1 POP ADD SWAP2 POP POP PUSH1 0x40 MLOAD DUP1 SWAP2 SUB SWAP1 KECCAK256 PUSH1 0x40 DUP1 MLOAD SWAP1 DUP2 ADD PUSH1 0x40 MSTORE DUP1 PUSH1 0x1 DUP2 MSTORE PUSH1 0x20 ADD PUSH32 0x3200000000000000000000000000000000000000000000000000000000000000 DUP2 MSTORE POP PUSH1 0x40 MLOAD DUP1 DUP3 DUP1 MLOAD SWAP1 PUSH1 0x20 ADD SWAP1 DUP1 DUP4 DUP4 JUMPDEST PUSH1 0x20 DUP4 LT ISZERO ISZERO PUSH2 0x249 JUMPI DUP1 MLOAD DUP3 MSTORE PUSH1 0x20 DUP3 ADD SWAP2 POP PUSH1 0x20 DUP2 ADD SWAP1 POP PUSH1 0x20 DUP4 SUB SWAP3 POP PUSH2 0x224 JUMP JUMPDEST PUSH1 0x1 DUP4 PUSH1 0x20 SUB PUSH2 0x100 EXP SUB DUP1 NOT DUP3 MLOAD AND DUP2 DUP5 MLOAD AND DUP1 DUP3 OR DUP6 MSTORE POP POP POP POP POP POP SWAP1 POP ADD SWAP2 POP POP PUSH1 0x40 MLOAD DUP1 SWAP2 SUB SWAP1 KECCAK256 ADDRESS PUSH20 0xFFFFFFFFFFFFFFFFFFFFFFFFFFFFFFFFFFFFFFFF AND PUSH1 0x1 MUL PUSH1 0x40 MLOAD PUSH1 0x20 ADD DUP1 DUP6 PUSH1 0x0 NOT AND PUSH1 0x0 NOT AND DUP2 MSTORE PUSH1 0x20 ADD DUP5 PUSH1 0x0 NOT AND PUSH1 0x0 NOT AND DUP2 MSTORE PUSH1 0x20 ADD DUP4 PUSH1 0x0 NOT AND PUSH1 0x0 NOT AND DUP2 MSTORE PUSH1 0x20 ADD DUP3 PUSH1 0x0 NOT AND PUSH1 0x0 NOT AND DUP2 MSTORE PUSH1 0x20 ADD SWAP5 POP POP POP POP POP PUSH1 0x40 MLOAD PUSH1 0x20 DUP2 DUP4 SUB SUB DUP2 MSTORE SWAP1 PUSH1 0x40 MSTORE PUSH1 0x40 MLOAD DUP1 DUP3 DUP1 MLOAD SWAP1 PUSH1 0x20 ADD SWAP1 DUP1 DUP4 DUP4 JUMPDEST PUSH1 0x20 DUP4 LT ISZERO ISZERO PUSH2 0x319 JUMPI DUP1 MLOAD DUP3 MSTORE PUSH1 0x20 DUP3 ADD SWAP2 POP PUSH1 0x20 DUP2 ADD SWAP1 POP PUSH1 0x20 DUP4 SUB SWAP3 POP PUSH2 0x2F4 JUMP JUMPDEST PUSH1 0x1 DUP4 PUSH1 0x20 SUB PUSH2 0x100 EXP SUB DUP1 NOT DUP3 MLOAD AND DUP2 DUP5 MLOAD AND DUP1 DUP3 OR DUP6 MSTORE POP POP POP POP POP POP SWAP1 POP ADD SWAP2 POP POP PUSH1 0x40 MLOAD DUP1 SWAP2 SUB SWAP1 KECCAK256 PUSH1 0x0 DUP2 PUSH1 0x0 NOT AND SWAP1 SSTORE POP PUSH2 0x1929 DUP1 PUSH2 0x35F PUSH1 0x0 CODECOPY PUSH1 0x0 RETURN STOP PUSH1 0x80 PUSH1 0x40 MSTORE PUSH1 0x4 CALLDATASIZE LT PUSH2 0xA4 JUMPI PUSH1 0x0 CALLDATALOAD PUSH29 0x100000000000000000000000000000000000000000000000000000000 SWAP1 DIV PUSH4 0xFFFFFFFF AND DUP1 PUSH4 0x1BE23901 EQ PUSH2 0xA9 JUMPI DUP1 PUSH4 0x20777F70 EQ PUSH2 0xE6 JUMPI DUP1 PUSH4 0x494D9297 EQ PUSH2 0x123 JUMPI DUP1 PUSH4 0x66758D7B EQ PUSH2 0x14E JUMPI DUP1 PUSH4 0x679D2F9A EQ PUSH2 0x18B JUMPI DUP1 PUSH4 0x7D33C6EE EQ PUSH2 0x1C8 JUMPI DUP1 PUSH4 0xBE7ADA1E EQ PUSH2 0x1F3 JUMPI DUP1 PUSH4 0xD9802088 EQ PUSH2 0x230 JUMPI DUP1 PUSH4 0xE306F779 EQ PUSH2 0x26D JUMPI DUP1 PUSH4 0xE9C7AA1A EQ PUSH2 0x298 JUMPI JUMPDEST PUSH1 0x0 DUP1 REVERT JUMPDEST CALLVALUE DUP1 ISZERO PUSH2 0xB5 JUMPI PUSH1 0x0 DUP1 REVERT JUMPDEST POP PUSH2 0xD0 PUSH1 0x4 DUP1 CALLDATASIZE SUB PUSH2 0xCB SWAP2 SWAP1 DUP2 ADD SWAP1 PUSH2 0x1528 JUMP JUMPDEST PUSH2 0x2D5 JUMP JUMPDEST PUSH1 0x40 MLOAD PUSH2 0xDD SWAP2 SWAP1 PUSH2 0x16D4 JUMP JUMPDEST PUSH1 0x40 MLOAD DUP1 SWAP2 SUB SWAP1 RETURN JUMPDEST CALLVALUE DUP1 ISZERO PUSH2 0xF2 JUMPI PUSH1 0x0 DUP1 REVERT JUMPDEST POP PUSH2 0x10D PUSH1 0x4 DUP1 CALLDATASIZE SUB PUSH2 0x108 SWAP2 SWAP1 DUP2 ADD SWAP1 PUSH2 0x1528 JUMP JUMPDEST PUSH2 0x2EE JUMP JUMPDEST PUSH1 0x40 MLOAD PUSH2 0x11A SWAP2 SWAP1 PUSH2 0x17A7 JUMP JUMPDEST PUSH1 0x40 MLOAD DUP1 SWAP2 SUB SWAP1 RETURN JUMPDEST CALLVALUE DUP1 ISZERO PUSH2 0x12F JUMPI PUSH1 0x0 DUP1 REVERT JUMPDEST POP PUSH2 0x138 PUSH2 0x307 JUMP JUMPDEST PUSH1 0x40 MLOAD PUSH2 0x145 SWAP2 SWAP1 PUSH2 0x16EF JUMP JUMPDEST PUSH1 0x40 MLOAD DUP1 SWAP2 SUB SWAP1 RETURN JUMPDEST CALLVALUE DUP1 ISZERO PUSH2 0x15A JUMPI PUSH1 0x0 DUP1 REVERT JUMPDEST POP PUSH2 0x175 PUSH1 0x4 DUP1 CALLDATASIZE SUB PUSH2 0x170 SWAP2 SWAP1 DUP2 ADD SWAP1 PUSH2 0x142B JUMP JUMPDEST PUSH2 0x450 JUMP JUMPDEST PUSH1 0x40 MLOAD PUSH2 0x182 SWAP2 SWAP1 PUSH2 0x178C JUMP JUMPDEST PUSH1 0x40 MLOAD DUP1 SWAP2 SUB SWAP1 RETURN JUMPDEST CALLVALUE DUP1 ISZERO PUSH2 0x197 JUMPI PUSH1 0x0 DUP1 REVERT JUMPDEST POP PUSH2 0x1B2 PUSH1 0x4 DUP1 CALLDATASIZE SUB PUSH2 0x1AD SWAP2 SWAP1 DUP2 ADD SWAP1 PUSH2 0x1528 JUMP JUMPDEST PUSH2 0x46B JUMP JUMPDEST PUSH1 0x40 MLOAD PUSH2 0x1BF SWAP2 SWAP1 PUSH2 0x16D4 JUMP JUMPDEST PUSH1 0x40 MLOAD DUP1 SWAP2 SUB SWAP1 RETURN JUMPDEST CALLVALUE DUP1 ISZERO PUSH2 0x1D4 JUMPI PUSH1 0x0 DUP1 REVERT JUMPDEST POP PUSH2 0x1DD PUSH2 0x484 JUMP JUMPDEST PUSH1 0x40 MLOAD PUSH2 0x1EA SWAP2 SWAP1 PUSH2 0x16EF JUMP JUMPDEST PUSH1 0x40 MLOAD DUP1 SWAP2 SUB SWAP1 RETURN JUMPDEST CALLVALUE DUP1 ISZERO PUSH2 0x1FF JUMPI PUSH1 0x0 DUP1 REVERT JUMPDEST POP PUSH2 0x21A PUSH1 0x4 DUP1 CALLDATASIZE SUB PUSH2 0x215 SWAP2 SWAP1 DUP2 ADD SWAP1 PUSH2 0x1528 JUMP JUMPDEST PUSH2 0x735 JUMP JUMPDEST PUSH1 0x40 MLOAD PUSH2 0x227 SWAP2 SWAP1 PUSH2 0x17A7 JUMP JUMPDEST PUSH1 0x40 MLOAD DUP1 SWAP2 SUB SWAP1 RETURN JUMPDEST CALLVALUE DUP1 ISZERO PUSH2 0x23C JUMPI PUSH1 0x0 DUP1 REVERT JUMPDEST POP PUSH2 0x257 PUSH1 0x4 DUP1 CALLDATASIZE SUB PUSH2 0x252 SWAP2 SWAP1 DUP2 ADD SWAP1 PUSH2 0x1468 JUMP JUMPDEST PUSH2 0x74E JUMP JUMPDEST PUSH1 0x40 MLOAD PUSH2 0x264 SWAP2 SWAP1 PUSH2 0x16EF JUMP JUMPDEST PUSH1 0x40 MLOAD DUP1 SWAP2 SUB SWAP1 RETURN JUMPDEST CALLVALUE DUP1 ISZERO PUSH2 0x279 JUMPI PUSH1 0x0 DUP1 REVERT JUMPDEST POP PUSH2 0x282 PUSH2 0x763 JUMP JUMPDEST PUSH1 0x40 MLOAD PUSH2 0x28F SWAP2 SWAP1 PUSH2 0x16EF JUMP JUMPDEST PUSH1 0x40 MLOAD DUP1 SWAP2 SUB SWAP1 RETURN JUMPDEST CALLVALUE DUP1 ISZERO PUSH2 0x2A4 JUMPI PUSH1 0x0 DUP1 REVERT JUMPDEST POP PUSH2 0x2BF PUSH1 0x4 DUP1 CALLDATASIZE SUB PUSH2 0x2BA SWAP2 SWAP1 DUP2 ADD SWAP1 PUSH2 0x14A9 JUMP JUMPDEST PUSH2 0x769 JUMP JUMPDEST PUSH1 0x40 MLOAD PUSH2 0x2CC SWAP2 SWAP1 PUSH2 0x170A JUMP JUMPDEST PUSH1 0x40 MLOAD DUP1 SWAP2 SUB SWAP1 RETURN JUMPDEST PUSH1 0x0 PUSH2 0x2E2 DUP5 DUP5 DUP5 PUSH2 0x782 JUMP JUMPDEST SWAP1 POP DUP1 SWAP1 POP SWAP4 SWAP3 POP POP POP JUMP JUMPDEST PUSH1 0x0 PUSH2 0x2FB DUP5 DUP5 DUP5 PUSH2 0x81C JUMP JUMPDEST SWAP1 POP DUP1 SWAP1 POP SWAP4 SWAP3 POP POP POP JUMP JUMPDEST PUSH1 0x0 PUSH1 0x40 MLOAD PUSH1 0x20 ADD DUP1 DUP1 PUSH32 0x454950373132446F6D61696E2800000000000000000000000000000000000000 DUP2 MSTORE POP PUSH1 0xD ADD DUP1 PUSH32 0x737472696E67206E616D652C0000000000000000000000000000000000000000 DUP2 MSTORE POP PUSH1 0xC ADD DUP1 PUSH32 0x737472696E672076657273696F6E2C0000000000000000000000000000000000 DUP2 MSTORE POP PUSH1 0xF ADD DUP1 PUSH32 0x6164647265737320766572696679696E67436F6E747261637400000000000000 DUP2 MSTORE POP PUSH1 0x19 ADD DUP1 PUSH32 0x2900000000000000000000000000000000000000000000000000000000000000 DUP2 MSTORE POP PUSH1 0x1 ADD SWAP1 POP PUSH1 0x40 MLOAD PUSH1 0x20 DUP2 DUP4 SUB SUB DUP2 MSTORE SWAP1 PUSH1 0x40 MSTORE PUSH1 0x40 MLOAD DUP1 DUP3 DUP1 MLOAD SWAP1 PUSH1 0x20 ADD SWAP1 DUP1 DUP4 DUP4 JUMPDEST PUSH1 0x20 DUP4 LT ISZERO ISZERO PUSH2 0x41E JUMPI DUP1 MLOAD DUP3 MSTORE PUSH1 0x20 DUP3 ADD SWAP2 POP PUSH1 0x20 DUP2 ADD SWAP1 POP PUSH1 0x20 DUP4 SUB SWAP3 POP PUSH2 0x3F9 JUMP JUMPDEST PUSH1 0x1 DUP4 PUSH1 0x20 SUB PUSH2 0x100 EXP SUB DUP1 NOT DUP3 MLOAD AND DUP2 DUP5 MLOAD AND DUP1 DUP3 OR DUP6 MSTORE POP POP POP POP POP POP SWAP1 POP ADD SWAP2 POP POP PUSH1 0x40 MLOAD DUP1 SWAP2 SUB SWAP1 KECCAK256 SWAP1 POP SWAP1 JUMP JUMPDEST PUSH2 0x458 PUSH2 0x116C JUMP JUMPDEST PUSH2 0x462 DUP4 DUP4 PUSH2 0x894 JUMP JUMPDEST DUP3 SWAP1 POP SWAP3 SWAP2 POP POP JUMP JUMPDEST PUSH1 0x0 PUSH2 0x478 DUP5 DUP5 DUP5 PUSH2 0x904 JUMP JUMPDEST SWAP1 POP DUP1 SWAP1 POP SWAP4 SWAP3 POP POP POP JUMP JUMPDEST PUSH1 0x0 PUSH1 0x40 MLOAD PUSH1 0x20 ADD DUP1 DUP1 PUSH32 0x4F72646572280000000000000000000000000000000000000000000000000000 DUP2 MSTORE POP PUSH1 0x6 ADD DUP1 PUSH32 0x61646472657373206D616B6572416464726573732C0000000000000000000000 DUP2 MSTORE POP PUSH1 0x15 ADD DUP1 PUSH32 0x616464726573732074616B6572416464726573732C0000000000000000000000 DUP2 MSTORE POP PUSH1 0x15 ADD DUP1 PUSH32 0x6164647265737320666565526563697069656E74416464726573732C00000000 DUP2 MSTORE POP PUSH1 0x1C ADD DUP1 PUSH32 0x616464726573732073656E646572416464726573732C00000000000000000000 DUP2 MSTORE POP PUSH1 0x16 ADD DUP1 PUSH32 0x75696E74323536206D616B65724173736574416D6F756E742C00000000000000 DUP2 MSTORE POP PUSH1 0x19 ADD DUP1 PUSH32 0x75696E743235362074616B65724173736574416D6F756E742C00000000000000 DUP2 MSTORE POP PUSH1 0x19 ADD DUP1 PUSH32 0x75696E74323536206D616B65724665652C000000000000000000000000000000 DUP2 MSTORE POP PUSH1 0x11 ADD DUP1 PUSH32 0x75696E743235362074616B65724665652C000000000000000000000000000000 DUP2 MSTORE POP PUSH1 0x11 ADD DUP1 PUSH32 0x75696E743235362065787069726174696F6E54696D655365636F6E64732C0000 DUP2 MSTORE POP PUSH1 0x1E ADD DUP1 PUSH32 0x75696E743235362073616C742C00000000000000000000000000000000000000 DUP2 MSTORE POP PUSH1 0xD ADD DUP1 PUSH32 0x6279746573206D616B65724173736574446174612C0000000000000000000000 DUP2 MSTORE POP PUSH1 0x15 ADD DUP1 PUSH32 0x62797465732074616B6572417373657444617461000000000000000000000000 DUP2 MSTORE POP PUSH1 0x14 ADD DUP1 PUSH32 0x2900000000000000000000000000000000000000000000000000000000000000 DUP2 MSTORE POP PUSH1 0x1 ADD SWAP1 POP PUSH1 0x40 MLOAD PUSH1 0x20 DUP2 DUP4 SUB SUB DUP2 MSTORE SWAP1 PUSH1 0x40 MSTORE PUSH1 0x40 MLOAD DUP1 DUP3 DUP1 MLOAD SWAP1 PUSH1 0x20 ADD SWAP1 DUP1 DUP4 DUP4 JUMPDEST PUSH1 0x20 DUP4 LT ISZERO ISZERO PUSH2 0x703 JUMPI DUP1 MLOAD DUP3 MSTORE PUSH1 0x20 DUP3 ADD SWAP2 POP PUSH1 0x20 DUP2 ADD SWAP1 POP PUSH1 0x20 DUP4 SUB SWAP3 POP PUSH2 0x6DE JUMP JUMPDEST PUSH1 0x1 DUP4 PUSH1 0x20 SUB PUSH2 0x100 EXP SUB DUP1 NOT DUP3 MLOAD AND DUP2 DUP5 MLOAD AND DUP1 DUP3 OR DUP6 MSTORE POP POP POP POP POP POP SWAP1 POP ADD SWAP2 POP POP PUSH1 0x40 MLOAD DUP1 SWAP2 SUB SWAP1 KECCAK256 SWAP1 POP SWAP1 JUMP JUMPDEST PUSH1 0x0 PUSH2 0x742 DUP5 DUP5 DUP5 PUSH2 0x9B5 JUMP JUMPDEST SWAP1 POP DUP1 SWAP1 POP SWAP4 SWAP3 POP POP POP JUMP JUMPDEST PUSH1 0x0 PUSH2 0x759 DUP3 PUSH2 0xA1A JUMP JUMPDEST SWAP1 POP DUP1 SWAP1 POP SWAP2 SWAP1 POP JUMP JUMPDEST PUSH1 0x0 SLOAD DUP2 JUMP JUMPDEST PUSH1 0x60 PUSH2 0x776 DUP5 DUP5 DUP5 PUSH2 0xA37 JUMP JUMPDEST SWAP1 POP DUP1 SWAP1 POP SWAP4 SWAP3 POP POP POP JUMP JUMPDEST PUSH1 0x0 DUP1 PUSH1 0x0 DUP5 GT ISZERO ISZERO PUSH2 0x7CA JUMPI PUSH1 0x40 MLOAD PUSH32 0x8C379A000000000000000000000000000000000000000000000000000000000 DUP2 MSTORE PUSH1 0x4 ADD PUSH2 0x7C1 SWAP1 PUSH2 0x174C JUMP JUMPDEST PUSH1 0x40 MLOAD DUP1 SWAP2 SUB SWAP1 REVERT JUMPDEST PUSH1 0x0 DUP4 EQ DUP1 PUSH2 0x7D9 JUMPI POP PUSH1 0x0 DUP6 EQ JUMPDEST ISZERO PUSH2 0x7E7 JUMPI PUSH1 0x0 SWAP2 POP PUSH2 0x814 JUMP JUMPDEST DUP4 DUP1 ISZERO ISZERO PUSH2 0x7F1 JUMPI INVALID JUMPDEST DUP6 DUP5 MULMOD SWAP1 POP PUSH2 0x800 DUP6 DUP5 PUSH2 0xC26 JUMP JUMPDEST PUSH2 0x80C PUSH2 0x3E8 DUP4 PUSH2 0xC26 JUMP JUMPDEST LT ISZERO SWAP2 POP DUP2 SWAP2 POP JUMPDEST POP SWAP4 SWAP3 POP POP POP JUMP JUMPDEST PUSH1 0x0 DUP1 DUP4 GT ISZERO ISZERO PUSH2 0x862 JUMPI PUSH1 0x40 MLOAD PUSH32 0x8C379A000000000000000000000000000000000000000000000000000000000 DUP2 MSTORE PUSH1 0x4 ADD PUSH2 0x859 SWAP1 PUSH2 0x174C JUMP JUMPDEST PUSH1 0x40 MLOAD DUP1 SWAP2 SUB SWAP1 REVERT JUMPDEST PUSH2 0x888 PUSH2 0x882 PUSH2 0x872 DUP7 DUP6 PUSH2 0xC26 JUMP JUMPDEST PUSH2 0x87D DUP7 PUSH1 0x1 PUSH2 0xC9A JUMP JUMPDEST PUSH2 0xCEC JUMP JUMPDEST DUP5 PUSH2 0xD43 JUMP JUMPDEST SWAP1 POP DUP1 SWAP1 POP SWAP4 SWAP3 POP POP POP JUMP JUMPDEST PUSH2 0x8A6 DUP3 PUSH1 0x0 ADD MLOAD DUP3 PUSH1 0x0 ADD MLOAD PUSH2 0xCEC JUMP JUMPDEST DUP3 PUSH1 0x0 ADD DUP2 DUP2 MSTORE POP POP PUSH2 0x8C1 DUP3 PUSH1 0x20 ADD MLOAD DUP3 PUSH1 0x20 ADD MLOAD PUSH2 0xCEC JUMP JUMPDEST DUP3 PUSH1 0x20 ADD DUP2 DUP2 MSTORE POP POP PUSH2 0x8DC DUP3 PUSH1 0x40 ADD MLOAD DUP3 PUSH1 0x40 ADD MLOAD PUSH2 0xCEC JUMP JUMPDEST DUP3 PUSH1 0x40 ADD DUP2 DUP2 MSTORE POP POP PUSH2 0x8F7 DUP3 PUSH1 0x60 ADD MLOAD DUP3 PUSH1 0x60 ADD MLOAD PUSH2 0xCEC JUMP JUMPDEST DUP3 PUSH1 0x60 ADD DUP2 DUP2 MSTORE POP POP POP POP JUMP JUMPDEST PUSH1 0x0 DUP1 PUSH1 0x0 DUP5 GT ISZERO ISZERO PUSH2 0x94C JUMPI PUSH1 0x40 MLOAD PUSH32 0x8C379A000000000000000000000000000000000000000000000000000000000 DUP2 MSTORE PUSH1 0x4 ADD PUSH2 0x943 SWAP1 PUSH2 0x174C JUMP JUMPDEST PUSH1 0x40 MLOAD DUP1 SWAP2 SUB SWAP1 REVERT JUMPDEST PUSH1 0x0 DUP4 EQ DUP1 PUSH2 0x95B JUMPI POP PUSH1 0x0 DUP6 EQ JUMPDEST ISZERO PUSH2 0x969 JUMPI PUSH1 0x0 SWAP2 POP PUSH2 0x9AD JUMP JUMPDEST DUP4 DUP1 ISZERO ISZERO PUSH2 0x973 JUMPI INVALID JUMPDEST DUP6 DUP5 MULMOD SWAP1 POP DUP4 PUSH2 0x983 DUP6 DUP4 PUSH2 0xC9A JUMP JUMPDEST DUP2 ISZERO ISZERO PUSH2 0x98C JUMPI INVALID JUMPDEST MOD SWAP1 POP PUSH2 0x999 DUP6 DUP5 PUSH2 0xC26 JUMP JUMPDEST PUSH2 0x9A5 PUSH2 0x3E8 DUP4 PUSH2 0xC26 JUMP JUMPDEST LT ISZERO SWAP2 POP DUP2 SWAP2 POP JUMPDEST POP SWAP4 SWAP3 POP POP POP JUMP JUMPDEST PUSH1 0x0 DUP1 DUP4 GT ISZERO ISZERO PUSH2 0x9FB JUMPI PUSH1 0x40 MLOAD PUSH32 0x8C379A000000000000000000000000000000000000000000000000000000000 DUP2 MSTORE PUSH1 0x4 ADD PUSH2 0x9F2 SWAP1 PUSH2 0x174C JUMP JUMPDEST PUSH1 0x40 MLOAD DUP1 SWAP2 SUB SWAP1 REVERT JUMPDEST PUSH2 0xA0E PUSH2 0xA08 DUP6 DUP5 PUSH2 0xC26 JUMP JUMPDEST DUP5 PUSH2 0xD43 JUMP JUMPDEST SWAP1 POP DUP1 SWAP1 POP SWAP4 SWAP3 POP POP POP JUMP JUMPDEST PUSH1 0x0 PUSH2 0xA2D PUSH2 0xA28 DUP4 PUSH2 0xD5E JUMP JUMPDEST PUSH2 0x1122 JUMP JUMPDEST SWAP1 POP DUP1 SWAP1 POP SWAP2 SWAP1 POP JUMP JUMPDEST PUSH1 0x60 PUSH1 0x40 MLOAD SWAP1 POP PUSH32 0xB4BE83D500000000000000000000000000000000000000000000000000000000 PUSH1 0x20 DUP3 ADD MSTORE PUSH1 0x24 DUP2 ADD DUP1 PUSH1 0x60 DUP2 ADD DUP2 DUP2 DUP1 DUP10 PUSH1 0x0 DUP1 DUP8 DUP5 SUB DUP7 MSTORE PUSH1 0x20 DUP7 ADD SWAP6 POP DUP3 MLOAD DUP5 MSTORE PUSH1 0x20 DUP4 ADD MLOAD PUSH1 0x20 DUP6 ADD MSTORE PUSH1 0x40 DUP4 ADD MLOAD PUSH1 0x40 DUP6 ADD MSTORE PUSH1 0x60 DUP4 ADD MLOAD PUSH1 0x60 DUP6 ADD MSTORE PUSH1 0x80 DUP4 ADD MLOAD PUSH1 0x80 DUP6 ADD MSTORE PUSH1 0xA0 DUP4 ADD MLOAD PUSH1 0xA0 DUP6 ADD MSTORE PUSH1 0xC0 DUP4 ADD MLOAD PUSH1 0xC0 DUP6 ADD MSTORE PUSH1 0xE0 DUP4 ADD MLOAD PUSH1 0xE0 DUP6 ADD MSTORE PUSH2 0x100 DUP4 ADD MLOAD PUSH2 0x100 DUP6 ADD MSTORE PUSH2 0x120 DUP4 ADD MLOAD PUSH2 0x120 DUP6 ADD MSTORE PUSH2 0x140 DUP4 ADD MLOAD PUSH2 0x140 DUP6 ADD MSTORE PUSH2 0x160 DUP4 ADD MLOAD PUSH2 0x160 DUP6 ADD MSTORE PUSH2 0x180 DUP5 ADD SWAP4 POP PUSH2 0x180 DUP4 ADD SWAP3 POP DUP5 DUP5 SUB PUSH1 0x20 PUSH1 0xA MUL DUP7 ADD MSTORE PUSH2 0x140 DUP14 ADD MLOAD SWAP3 POP DUP3 MLOAD SWAP2 POP PUSH1 0x20 DUP4 ADD SWAP3 POP PUSH1 0x20 PUSH1 0x1F DUP4 ADD DIV SWAP1 POP DUP2 DUP5 MSTORE PUSH1 0x20 DUP5 ADD SWAP4 POP PUSH1 0x0 JUMPDEST DUP2 DUP2 LT ISZERO PUSH2 0xB5C JUMPI DUP4 MLOAD DUP6 MSTORE PUSH1 0x20 DUP6 ADD SWAP5 POP PUSH1 0x20 DUP5 ADD SWAP4 POP PUSH1 0x1 DUP2 ADD SWAP1 POP PUSH2 0xB39 JUMP JUMPDEST POP DUP5 DUP5 SUB PUSH1 0x20 PUSH1 0xB MUL DUP7 ADD MSTORE PUSH2 0x160 DUP14 ADD MLOAD SWAP3 POP DUP3 MLOAD SWAP2 POP PUSH1 0x20 DUP4 ADD SWAP3 POP PUSH1 0x20 PUSH1 0x1F DUP4 ADD DIV SWAP1 POP DUP2 DUP5 MSTORE PUSH1 0x20 DUP5 ADD SWAP4 POP PUSH1 0x0 JUMPDEST DUP2 DUP2 LT ISZERO PUSH2 0xBB2 JUMPI DUP4 MLOAD DUP6 MSTORE PUSH1 0x20 DUP6 ADD SWAP5 POP PUSH1 0x20 DUP5 ADD SWAP4 POP PUSH1 0x1 DUP2 ADD SWAP1 POP PUSH2 0xB8F JUMP JUMPDEST POP DUP12 DUP7 MSTORE PUSH1 0x20 DUP7 ADD SWAP6 POP DUP8 DUP5 SUB DUP7 MSTORE DUP11 SWAP3 POP DUP3 MLOAD SWAP2 POP PUSH1 0x20 DUP4 ADD SWAP3 POP PUSH1 0x20 PUSH1 0x1F DUP4 ADD DIV SWAP1 POP DUP2 DUP5 MSTORE PUSH1 0x20 DUP5 ADD SWAP4 POP PUSH1 0x0 JUMPDEST DUP2 DUP2 LT ISZERO PUSH2 0xC06 JUMPI DUP4 MLOAD DUP6 MSTORE PUSH1 0x20 DUP6 ADD SWAP5 POP PUSH1 0x20 DUP5 ADD SWAP4 POP PUSH1 0x1 DUP2 ADD SWAP1 POP PUSH2 0xBE3 JUMP JUMPDEST POP PUSH1 0x20 DUP11 ADD DUP5 SUB DUP11 MSTORE DUP4 PUSH1 0x40 MSTORE POP POP POP POP POP POP POP POP POP DUP1 SWAP1 POP SWAP4 SWAP3 POP POP POP JUMP JUMPDEST PUSH1 0x0 DUP1 PUSH1 0x0 DUP5 EQ ISZERO PUSH2 0xC3B JUMPI PUSH1 0x0 SWAP2 POP PUSH2 0xC93 JUMP JUMPDEST DUP3 DUP5 MUL SWAP1 POP DUP3 DUP5 DUP3 DUP2 ISZERO ISZERO PUSH2 0xC4C JUMPI INVALID JUMPDEST DIV EQ ISZERO ISZERO PUSH2 0xC8F JUMPI PUSH1 0x40 MLOAD PUSH32 0x8C379A000000000000000000000000000000000000000000000000000000000 DUP2 MSTORE PUSH1 0x4 ADD PUSH2 0xC86 SWAP1 PUSH2 0x176C JUMP JUMPDEST PUSH1 0x40 MLOAD DUP1 SWAP2 SUB SWAP1 REVERT JUMPDEST DUP1 SWAP2 POP JUMPDEST POP SWAP3 SWAP2 POP POP JUMP JUMPDEST PUSH1 0x0 DUP3 DUP3 GT ISZERO ISZERO ISZERO PUSH2 0xCE1 JUMPI PUSH1 0x40 MLOAD PUSH32 0x8C379A000000000000000000000000000000000000000000000000000000000 DUP2 MSTORE PUSH1 0x4 ADD PUSH2 0xCD8 SWAP1 PUSH2 0x172C JUMP JUMPDEST PUSH1 0x40 MLOAD DUP1 SWAP2 SUB SWAP1 REVERT JUMPDEST DUP2 DUP4 SUB SWAP1 POP SWAP3 SWAP2 POP POP JUMP JUMPDEST PUSH1 0x0 DUP1 DUP3 DUP5 ADD SWAP1 POP DUP4 DUP2 LT ISZERO ISZERO ISZERO PUSH2 0xD39 JUMPI PUSH1 0x40 MLOAD PUSH32 0x8C379A000000000000000000000000000000000000000000000000000000000 DUP2 MSTORE PUSH1 0x4 ADD PUSH2 0xD30 SWAP1 PUSH2 0x176C JUMP JUMPDEST PUSH1 0x40 MLOAD DUP1 SWAP2 SUB SWAP1 REVERT JUMPDEST DUP1 SWAP2 POP POP SWAP3 SWAP2 POP POP JUMP JUMPDEST PUSH1 0x0 DUP1 DUP3 DUP5 DUP2 ISZERO ISZERO PUSH2 0xD51 JUMPI INVALID JUMPDEST DIV SWAP1 POP DUP1 SWAP2 POP POP SWAP3 SWAP2 POP POP JUMP JUMPDEST PUSH1 0x0 DUP1 PUSH1 0x0 DUP1 PUSH1 0x40 MLOAD PUSH1 0x20 ADD DUP1 DUP1 PUSH32 0x4F72646572280000000000000000000000000000000000000000000000000000 DUP2 MSTORE POP PUSH1 0x6 ADD DUP1 PUSH32 0x61646472657373206D616B6572416464726573732C0000000000000000000000 DUP2 MSTORE POP PUSH1 0x15 ADD DUP1 PUSH32 0x616464726573732074616B6572416464726573732C0000000000000000000000 DUP2 MSTORE POP PUSH1 0x15 ADD DUP1 PUSH32 0x6164647265737320666565526563697069656E74416464726573732C00000000 DUP2 MSTORE POP PUSH1 0x1C ADD DUP1 PUSH32 0x616464726573732073656E646572416464726573732C00000000000000000000 DUP2 MSTORE POP PUSH1 0x16 ADD DUP1 PUSH32 0x75696E74323536206D616B65724173736574416D6F756E742C00000000000000 DUP2 MSTORE POP PUSH1 0x19 ADD DUP1 PUSH32 0x75696E743235362074616B65724173736574416D6F756E742C00000000000000 DUP2 MSTORE POP PUSH1 0x19 ADD DUP1 PUSH32 0x75696E74323536206D616B65724665652C000000000000000000000000000000 DUP2 MSTORE POP PUSH1 0x11 ADD DUP1 PUSH32 0x75696E743235362074616B65724665652C000000000000000000000000000000 DUP2 MSTORE POP PUSH1 0x11 ADD DUP1 PUSH32 0x75696E743235362065787069726174696F6E54696D655365636F6E64732C0000 DUP2 MSTORE POP PUSH1 0x1E ADD DUP1 PUSH32 0x75696E743235362073616C742C00000000000000000000000000000000000000 DUP2 MSTORE POP PUSH1 0xD ADD DUP1 PUSH32 0x6279746573206D616B65724173736574446174612C0000000000000000000000 DUP2 MSTORE POP PUSH1 0x15 ADD DUP1 PUSH32 0x62797465732074616B6572417373657444617461000000000000000000000000 DUP2 MSTORE POP PUSH1 0x14 ADD DUP1 PUSH32 0x2900000000000000000000000000000000000000000000000000000000000000 DUP2 MSTORE POP PUSH1 0x1 ADD SWAP1 POP PUSH1 0x40 MLOAD PUSH1 0x20 DUP2 DUP4 SUB SUB DUP2 MSTORE SWAP1 PUSH1 0x40 MSTORE PUSH1 0x40 MLOAD DUP1 DUP3 DUP1 MLOAD SWAP1 PUSH1 0x20 ADD SWAP1 DUP1 DUP4 DUP4 JUMPDEST PUSH1 0x20 DUP4 LT ISZERO ISZERO PUSH2 0xFE1 JUMPI DUP1 MLOAD DUP3 MSTORE PUSH1 0x20 DUP3 ADD SWAP2 POP PUSH1 0x20 DUP2 ADD SWAP1 POP PUSH1 0x20 DUP4 SUB SWAP3 POP PUSH2 0xFBC JUMP JUMPDEST PUSH1 0x1 DUP4 PUSH1 0x20 SUB PUSH2 0x100 EXP SUB DUP1 NOT DUP3 MLOAD AND DUP2 DUP5 MLOAD AND DUP1 DUP3 OR DUP6 MSTORE POP POP POP POP POP POP SWAP1 POP ADD SWAP2 POP POP PUSH1 0x40 MLOAD DUP1 SWAP2 SUB SWAP1 KECCAK256 SWAP3 POP DUP5 PUSH2 0x140 ADD MLOAD PUSH1 0x40 MLOAD DUP1 DUP3 DUP1 MLOAD SWAP1 PUSH1 0x20 ADD SWAP1 DUP1 DUP4 DUP4 JUMPDEST PUSH1 0x20 DUP4 LT ISZERO ISZERO PUSH2 0x104B JUMPI DUP1 MLOAD DUP3 MSTORE PUSH1 0x20 DUP3 ADD SWAP2 POP PUSH1 0x20 DUP2 ADD SWAP1 POP PUSH1 0x20 DUP4 SUB SWAP3 POP PUSH2 0x1026 JUMP JUMPDEST PUSH1 0x1 DUP4 PUSH1 0x20 SUB PUSH2 0x100 EXP SUB DUP1 NOT DUP3 MLOAD AND DUP2 DUP5 MLOAD AND DUP1 DUP3 OR DUP6 MSTORE POP POP POP POP POP POP SWAP1 POP ADD SWAP2 POP POP PUSH1 0x40 MLOAD DUP1 SWAP2 SUB SWAP1 KECCAK256 SWAP2 POP DUP5 PUSH2 0x160 ADD MLOAD PUSH1 0x40 MLOAD DUP1 DUP3 DUP1 MLOAD SWAP1 PUSH1 0x20 ADD SWAP1 DUP1 DUP4 DUP4 JUMPDEST PUSH1 0x20 DUP4 LT ISZERO ISZERO PUSH2 0x10B5 JUMPI DUP1 MLOAD DUP3 MSTORE PUSH1 0x20 DUP3 ADD SWAP2 POP PUSH1 0x20 DUP2 ADD SWAP1 POP PUSH1 0x20 DUP4 SUB SWAP3 POP PUSH2 0x1090 JUMP JUMPDEST PUSH1 0x1 DUP4 PUSH1 0x20 SUB PUSH2 0x100 EXP SUB DUP1 NOT DUP3 MLOAD AND DUP2 DUP5 MLOAD AND DUP1 DUP3 OR DUP6 MSTORE POP POP POP POP POP POP SWAP1 POP ADD SWAP2 POP POP PUSH1 0x40 MLOAD DUP1 SWAP2 SUB SWAP1 KECCAK256 SWAP1 POP PUSH1 0x20 DUP6 SUB PUSH2 0x140 DUP7 ADD PUSH2 0x160 DUP8 ADD DUP3 MLOAD DUP3 MLOAD DUP3 MLOAD DUP9 DUP7 MSTORE DUP8 DUP6 MSTORE DUP7 DUP5 MSTORE PUSH2 0x1A0 DUP7 KECCAK256 SWAP10 POP DUP3 DUP7 MSTORE DUP2 DUP6 MSTORE DUP1 DUP5 MSTORE POP POP POP POP POP POP DUP4 SWAP4 POP POP POP POP SWAP2 SWAP1 POP JUMP JUMPDEST PUSH1 0x0 DUP1 PUSH1 0x0 SLOAD SWAP1 POP PUSH1 0x40 MLOAD PUSH32 0x1901000000000000000000000000000000000000000000000000000000000000 DUP2 MSTORE DUP2 PUSH1 0x2 DUP3 ADD MSTORE DUP4 PUSH1 0x22 DUP3 ADD MSTORE PUSH1 0x42 DUP2 KECCAK256 SWAP3 POP POP DUP2 SWAP2 POP POP SWAP2 SWAP1 POP JUMP JUMPDEST PUSH1 0x80 PUSH1 0x40 MLOAD SWAP1 DUP2 ADD PUSH1 0x40 MSTORE DUP1 PUSH1 0x0 DUP2 MSTORE PUSH1 0x20 ADD PUSH1 0x0 DUP2 MSTORE PUSH1 0x20 ADD PUSH1 0x0 DUP2 MSTORE PUSH1 0x20 ADD PUSH1 0x0 DUP2 MSTORE POP SWAP1 JUMP JUMPDEST PUSH1 0x0 PUSH2 0x11A1 DUP3 CALLDATALOAD PUSH2 0x1872 JUMP JUMPDEST SWAP1 POP SWAP3 SWAP2 POP POP JUMP JUMPDEST PUSH1 0x0 DUP3 PUSH1 0x1F DUP4 ADD SLT ISZERO ISZERO PUSH2 0x11BC JUMPI PUSH1 0x0 DUP1 REVERT JUMPDEST DUP2 CALLDATALOAD PUSH2 0x11CF PUSH2 0x11CA DUP3 PUSH2 0x17EF JUMP JUMPDEST PUSH2 0x17C2 JUMP JUMPDEST SWAP2 POP DUP1 DUP3 MSTORE PUSH1 0x20 DUP4 ADD PUSH1 0x20 DUP4 ADD DUP6 DUP4 DUP4 ADD GT ISZERO PUSH2 0x11EB JUMPI PUSH1 0x0 DUP1 REVERT JUMPDEST PUSH2 0x11F6 DUP4 DUP3 DUP5 PUSH2 0x189C JUMP JUMPDEST POP POP POP SWAP3 SWAP2 POP POP JUMP JUMPDEST PUSH1 0x0 DUP3 PUSH1 0x1F DUP4 ADD SLT ISZERO ISZERO PUSH2 0x1212 JUMPI PUSH1 0x0 DUP1 REVERT JUMPDEST DUP2 CALLDATALOAD PUSH2 0x1225 PUSH2 0x1220 DUP3 PUSH2 0x181B JUMP JUMPDEST PUSH2 0x17C2 JUMP JUMPDEST SWAP2 POP DUP1 DUP3 MSTORE PUSH1 0x20 DUP4 ADD PUSH1 0x20 DUP4 ADD DUP6 DUP4 DUP4 ADD GT ISZERO PUSH2 0x1241 JUMPI PUSH1 0x0 DUP1 REVERT JUMPDEST PUSH2 0x124C DUP4 DUP3 DUP5 PUSH2 0x189C JUMP JUMPDEST POP POP POP SWAP3 SWAP2 POP POP JUMP JUMPDEST PUSH1 0x0 PUSH1 0x80 DUP3 DUP5 SUB SLT ISZERO PUSH2 0x1267 JUMPI PUSH1 0x0 DUP1 REVERT JUMPDEST PUSH2 0x1271 PUSH1 0x80 PUSH2 0x17C2 JUMP JUMPDEST SWAP1 POP PUSH1 0x0 PUSH2 0x1281 DUP5 DUP3 DUP6 ADD PUSH2 0x1417 JUMP JUMPDEST PUSH1 0x0 DUP4 ADD MSTORE POP PUSH1 0x20 PUSH2 0x1295 DUP5 DUP3 DUP6 ADD PUSH2 0x1417 JUMP JUMPDEST PUSH1 0x20 DUP4 ADD MSTORE POP PUSH1 0x40 PUSH2 0x12A9 DUP5 DUP3 DUP6 ADD PUSH2 0x1417 JUMP JUMPDEST PUSH1 0x40 DUP4 ADD MSTORE POP PUSH1 0x60 PUSH2 0x12BD DUP5 DUP3 DUP6 ADD PUSH2 0x1417 JUMP JUMPDEST PUSH1 0x60 DUP4 ADD MSTORE POP SWAP3 SWAP2 POP POP JUMP JUMPDEST PUSH1 0x0 PUSH2 0x180 DUP3 DUP5 SUB SLT ISZERO PUSH2 0x12DC JUMPI PUSH1 0x0 DUP1 REVERT JUMPDEST PUSH2 0x12E7 PUSH2 0x180 PUSH2 0x17C2 JUMP JUMPDEST SWAP1 POP PUSH1 0x0 PUSH2 0x12F7 DUP5 DUP3 DUP6 ADD PUSH2 0x1195 JUMP JUMPDEST PUSH1 0x0 DUP4 ADD MSTORE POP PUSH1 0x20 PUSH2 0x130B DUP5 DUP3 DUP6 ADD PUSH2 0x1195 JUMP JUMPDEST PUSH1 0x20 DUP4 ADD MSTORE POP PUSH1 0x40 PUSH2 0x131F DUP5 DUP3 DUP6 ADD PUSH2 0x1195 JUMP JUMPDEST PUSH1 0x40 DUP4 ADD MSTORE POP PUSH1 0x60 PUSH2 0x1333 DUP5 DUP3 DUP6 ADD PUSH2 0x1195 JUMP JUMPDEST PUSH1 0x60 DUP4 ADD MSTORE POP PUSH1 0x80 PUSH2 0x1347 DUP5 DUP3 DUP6 ADD PUSH2 0x1417 JUMP JUMPDEST PUSH1 0x80 DUP4 ADD MSTORE POP PUSH1 0xA0 PUSH2 0x135B DUP5 DUP3 DUP6 ADD PUSH2 0x1417 JUMP JUMPDEST PUSH1 0xA0 DUP4 ADD MSTORE POP PUSH1 0xC0 PUSH2 0x136F DUP5 DUP3 DUP6 ADD PUSH2 0x1417 JUMP JUMPDEST PUSH1 0xC0 DUP4 ADD MSTORE POP PUSH1 0xE0 PUSH2 0x1383 DUP5 DUP3 DUP6 ADD PUSH2 0x1417 JUMP JUMPDEST PUSH1 0xE0 DUP4 ADD MSTORE POP PUSH2 0x100 PUSH2 0x1398 DUP5 DUP3 DUP6 ADD PUSH2 0x1417 JUMP JUMPDEST PUSH2 0x100 DUP4 ADD MSTORE POP PUSH2 0x120 PUSH2 0x13AE DUP5 DUP3 DUP6 ADD PUSH2 0x1417 JUMP JUMPDEST PUSH2 0x120 DUP4 ADD MSTORE POP PUSH2 0x140 DUP3 ADD CALLDATALOAD PUSH8 0xFFFFFFFFFFFFFFFF DUP2 GT ISZERO PUSH2 0x13D0 JUMPI PUSH1 0x0 DUP1 REVERT JUMPDEST PUSH2 0x13DC DUP5 DUP3 DUP6 ADD PUSH2 0x11A9 JUMP JUMPDEST PUSH2 0x140 DUP4 ADD MSTORE POP PUSH2 0x160 DUP3 ADD CALLDATALOAD PUSH8 0xFFFFFFFFFFFFFFFF DUP2 GT ISZERO PUSH2 0x13FE JUMPI PUSH1 0x0 DUP1 REVERT JUMPDEST PUSH2 0x140A DUP5 DUP3 DUP6 ADD PUSH2 0x11A9 JUMP JUMPDEST PUSH2 0x160 DUP4 ADD MSTORE POP SWAP3 SWAP2 POP POP JUMP JUMPDEST PUSH1 0x0 PUSH2 0x1423 DUP3 CALLDATALOAD PUSH2 0x1892 JUMP JUMPDEST SWAP1 POP SWAP3 SWAP2 POP POP JUMP JUMPDEST PUSH1 0x0 DUP1 PUSH2 0x100 DUP4 DUP6 SUB SLT ISZERO PUSH2 0x143F JUMPI PUSH1 0x0 DUP1 REVERT JUMPDEST PUSH1 0x0 PUSH2 0x144D DUP6 DUP3 DUP7 ADD PUSH2 0x1255 JUMP JUMPDEST SWAP3 POP POP PUSH1 0x80 PUSH2 0x145E DUP6 DUP3 DUP7 ADD PUSH2 0x1255 JUMP JUMPDEST SWAP2 POP POP SWAP3 POP SWAP3 SWAP1 POP JUMP JUMPDEST PUSH1 0x0 PUSH1 0x20 DUP3 DUP5 SUB SLT ISZERO PUSH2 0x147A JUMPI PUSH1 0x0 DUP1 REVERT JUMPDEST PUSH1 0x0 DUP3 ADD CALLDATALOAD PUSH8 0xFFFFFFFFFFFFFFFF DUP2 GT ISZERO PUSH2 0x1494 JUMPI PUSH1 0x0 DUP1 REVERT JUMPDEST PUSH2 0x14A0 DUP5 DUP3 DUP6 ADD PUSH2 0x12C9 JUMP JUMPDEST SWAP2 POP POP SWAP3 SWAP2 POP POP JUMP JUMPDEST PUSH1 0x0 DUP1 PUSH1 0x0 PUSH1 0x60 DUP5 DUP7 SUB SLT ISZERO PUSH2 0x14BE JUMPI PUSH1 0x0 DUP1 REVERT JUMPDEST PUSH1 0x0 DUP5 ADD CALLDATALOAD PUSH8 0xFFFFFFFFFFFFFFFF DUP2 GT ISZERO PUSH2 0x14D8 JUMPI PUSH1 0x0 DUP1 REVERT JUMPDEST PUSH2 0x14E4 DUP7 DUP3 DUP8 ADD PUSH2 0x12C9 JUMP JUMPDEST SWAP4 POP POP PUSH1 0x20 PUSH2 0x14F5 DUP7 DUP3 DUP8 ADD PUSH2 0x1417 JUMP JUMPDEST SWAP3 POP POP PUSH1 0x40 DUP5 ADD CALLDATALOAD PUSH8 0xFFFFFFFFFFFFFFFF DUP2 GT ISZERO PUSH2 0x1512 JUMPI PUSH1 0x0 DUP1 REVERT JUMPDEST PUSH2 0x151E DUP7 DUP3 DUP8 ADD PUSH2 0x11FF JUMP JUMPDEST SWAP2 POP POP SWAP3 POP SWAP3 POP SWAP3 JUMP JUMPDEST PUSH1 0x0 DUP1 PUSH1 0x0 PUSH1 0x60 DUP5 DUP7 SUB SLT ISZERO PUSH2 0x153D JUMPI PUSH1 0x0 DUP1 REVERT JUMPDEST PUSH1 0x0 PUSH2 0x154B DUP7 DUP3 DUP8 ADD PUSH2 0x1417 JUMP JUMPDEST SWAP4 POP POP PUSH1 0x20 PUSH2 0x155C DUP7 DUP3 DUP8 ADD PUSH2 0x1417 JUMP JUMPDEST SWAP3 POP POP PUSH1 0x40 PUSH2 0x156D DUP7 DUP3 DUP8 ADD PUSH2 0x1417 JUMP JUMPDEST SWAP2 POP POP SWAP3 POP SWAP3 POP SWAP3 JUMP JUMPDEST PUSH2 0x1580 DUP2 PUSH2 0x1852 JUMP JUMPDEST DUP3 MSTORE POP POP JUMP JUMPDEST PUSH2 0x158F DUP2 PUSH2 0x185E JUMP JUMPDEST DUP3 MSTORE POP POP JUMP JUMPDEST PUSH1 0x0 PUSH2 0x15A0 DUP3 PUSH2 0x1847 JUMP JUMPDEST DUP1 DUP5 MSTORE PUSH2 0x15B4 DUP2 PUSH1 0x20 DUP7 ADD PUSH1 0x20 DUP7 ADD PUSH2 0x18AB JUMP JUMPDEST PUSH2 0x15BD DUP2 PUSH2 0x18DE JUMP JUMPDEST PUSH1 0x20 DUP6 ADD ADD SWAP2 POP POP SWAP3 SWAP2 POP POP JUMP JUMPDEST PUSH1 0x0 PUSH1 0x11 DUP3 MSTORE PUSH32 0x55494E543235365F554E444552464C4F57000000000000000000000000000000 PUSH1 0x20 DUP4 ADD MSTORE PUSH1 0x40 DUP3 ADD SWAP1 POP SWAP2 SWAP1 POP JUMP JUMPDEST PUSH1 0x0 PUSH1 0x10 DUP3 MSTORE PUSH32 0x4449564953494F4E5F42595F5A45524F00000000000000000000000000000000 PUSH1 0x20 DUP4 ADD MSTORE PUSH1 0x40 DUP3 ADD SWAP1 POP SWAP2 SWAP1 POP JUMP JUMPDEST PUSH1 0x0 PUSH1 0x10 DUP3 MSTORE PUSH32 0x55494E543235365F4F564552464C4F5700000000000000000000000000000000 PUSH1 0x20 DUP4 ADD MSTORE PUSH1 0x40 DUP3 ADD SWAP1 POP SWAP2 SWAP1 POP JUMP JUMPDEST PUSH1 0x80 DUP3 ADD PUSH1 0x0 DUP3 ADD MLOAD PUSH2 0x1686 PUSH1 0x0 DUP6 ADD DUP3 PUSH2 0x16C5 JUMP JUMPDEST POP PUSH1 0x20 DUP3 ADD MLOAD PUSH2 0x1699 PUSH1 0x20 DUP6 ADD DUP3 PUSH2 0x16C5 JUMP JUMPDEST POP PUSH1 0x40 DUP3 ADD MLOAD PUSH2 0x16AC PUSH1 0x40 DUP6 ADD DUP3 PUSH2 0x16C5 JUMP JUMPDEST POP PUSH1 0x60 DUP3 ADD MLOAD PUSH2 0x16BF PUSH1 0x60 DUP6 ADD DUP3 PUSH2 0x16C5 JUMP JUMPDEST POP POP POP POP JUMP JUMPDEST PUSH2 0x16CE DUP2 PUSH2 0x1868 JUMP JUMPDEST DUP3 MSTORE POP POP JUMP JUMPDEST PUSH1 0x0 PUSH1 0x20 DUP3 ADD SWAP1 POP PUSH2 0x16E9 PUSH1 0x0 DUP4 ADD DUP5 PUSH2 0x1577 JUMP JUMPDEST SWAP3 SWAP2 POP POP JUMP JUMPDEST PUSH1 0x0 PUSH1 0x20 DUP3 ADD SWAP1 POP PUSH2 0x1704 PUSH1 0x0 DUP4 ADD DUP5 PUSH2 0x1586 JUMP JUMPDEST SWAP3 SWAP2 POP POP JUMP JUMPDEST PUSH1 0x0 PUSH1 0x20 DUP3 ADD SWAP1 POP DUP2 DUP2 SUB PUSH1 0x0 DUP4 ADD MSTORE PUSH2 0x1724 DUP2 DUP5 PUSH2 0x1595 JUMP JUMPDEST SWAP1 POP SWAP3 SWAP2 POP POP JUMP JUMPDEST PUSH1 0x0 PUSH1 0x20 DUP3 ADD SWAP1 POP DUP2 DUP2 SUB PUSH1 0x0 DUP4 ADD MSTORE PUSH2 0x1745 DUP2 PUSH2 0x15CB JUMP JUMPDEST SWAP1 POP SWAP2 SWAP1 POP JUMP JUMPDEST PUSH1 0x0 PUSH1 0x20 DUP3 ADD SWAP1 POP DUP2 DUP2 SUB PUSH1 0x0 DUP4 ADD MSTORE PUSH2 0x1765 DUP2 PUSH2 0x1602 JUMP JUMPDEST SWAP1 POP SWAP2 SWAP1 POP JUMP JUMPDEST PUSH1 0x0 PUSH1 0x20 DUP3 ADD SWAP1 POP DUP2 DUP2 SUB PUSH1 0x0 DUP4 ADD MSTORE PUSH2 0x1785 DUP2 PUSH2 0x1639 JUMP JUMPDEST SWAP1 POP SWAP2 SWAP1 POP JUMP JUMPDEST PUSH1 0x0 PUSH1 0x80 DUP3 ADD SWAP1 POP PUSH2 0x17A1 PUSH1 0x0 DUP4 ADD DUP5 PUSH2 0x1670 JUMP JUMPDEST SWAP3 SWAP2 POP POP JUMP JUMPDEST PUSH1 0x0 PUSH1 0x20 DUP3 ADD SWAP1 POP PUSH2 0x17BC PUSH1 0x0 DUP4 ADD DUP5 PUSH2 0x16C5 JUMP JUMPDEST SWAP3 SWAP2 POP POP JUMP JUMPDEST PUSH1 0x0 PUSH1 0x40 MLOAD SWAP1 POP DUP2 DUP2 ADD DUP2 DUP2 LT PUSH8 0xFFFFFFFFFFFFFFFF DUP3 GT OR ISZERO PUSH2 0x17E5 JUMPI PUSH1 0x0 DUP1 REVERT JUMPDEST DUP1 PUSH1 0x40 MSTORE POP SWAP2 SWAP1 POP JUMP JUMPDEST PUSH1 0x0 PUSH8 0xFFFFFFFFFFFFFFFF DUP3 GT ISZERO PUSH2 0x1806 JUMPI PUSH1 0x0 DUP1 REVERT JUMPDEST PUSH1 0x1F NOT PUSH1 0x1F DUP4 ADD AND SWAP1 POP PUSH1 0x20 DUP2 ADD SWAP1 POP SWAP2 SWAP1 POP JUMP JUMPDEST PUSH1 0x0 PUSH8 0xFFFFFFFFFFFFFFFF DUP3 GT ISZERO PUSH2 0x1832 JUMPI PUSH1 0x0 DUP1 REVERT JUMPDEST PUSH1 0x1F NOT PUSH1 0x1F DUP4 ADD AND SWAP1 POP PUSH1 0x20 DUP2 ADD SWAP1 POP SWAP2 SWAP1 POP JUMP JUMPDEST PUSH1 0x0 DUP2 MLOAD SWAP1 POP SWAP2 SWAP1 POP JUMP JUMPDEST PUSH1 0x0 DUP2 ISZERO ISZERO SWAP1 POP SWAP2 SWAP1 POP JUMP JUMPDEST PUSH1 0x0 DUP2 SWAP1 POP SWAP2 SWAP1 POP JUMP JUMPDEST PUSH1 0x0 DUP2 SWAP1 POP SWAP2 SWAP1 POP JUMP JUMPDEST PUSH1 0x0 PUSH20 0xFFFFFFFFFFFFFFFFFFFFFFFFFFFFFFFFFFFFFFFF DUP3 AND SWAP1 POP SWAP2 SWAP1 POP JUMP JUMPDEST PUSH1 0x0 DUP2 SWAP1 POP SWAP2 SWAP1 POP JUMP JUMPDEST DUP3 DUP2 DUP4 CALLDATACOPY PUSH1 0x0 DUP4 DUP4 ADD MSTORE POP POP POP JUMP JUMPDEST PUSH1 0x0 JUMPDEST DUP4 DUP2 LT ISZERO PUSH2 0x18C9 JUMPI DUP1 DUP3 ADD MLOAD DUP2 DUP5 ADD MSTORE PUSH1 0x20 DUP2 ADD SWAP1 POP PUSH2 0x18AE JUMP JUMPDEST DUP4 DUP2 GT ISZERO PUSH2 0x18D8 JUMPI PUSH1 0x0 DUP5 DUP5 ADD MSTORE JUMPDEST POP POP POP POP JUMP JUMPDEST PUSH1 0x0 PUSH1 0x1F NOT PUSH1 0x1F DUP4 ADD AND SWAP1 POP SWAP2 SWAP1 POP JUMP STOP LOG2 PUSH6 0x627A7A723058 KECCAK256 CALLVALUE PC SUB EXP SDIV 0xf 0xf8 0xee 0xc7 0xd8 0xe DUP11 CREATE PUSH5 0x41A0C81389 0xdd PUSH29 0x58247C15E5572BF4F84AD86C6578706572696D656E74616CF500370000 "
			}
		}
	},
	"sourceTreeHashHex": "0xf625127eebe40028854a396818c7a3e515889b6591fe18ad713c1eeaeb4d112e",
	"compiler": {
		"name": "solc",
		"version": "soljson-v0.4.24+commit.e67f0147.js",
		"settings": {
			"optimizer": {
				"enabled": false
			},
			"outputSelection": {
				"*": {
					"*": [
						"abi",
						"evm.bytecode.object"
					]
				}
			}
		}
	}
}