{
	"schemaVersion": "2.0.0",
	"contractName": "MultiAssetProxy",
	"compilerOutput": {
		"abi": [
			{
				"constant": true,
				"inputs": [
					{
						"name": "",
						"type": "bytes4"
					}
				],
				"name": "assetProxies",
				"outputs": [
					{
						"name": "",
						"type": "address"
					}
				],
				"payable": false,
				"stateMutability": "view",
				"type": "function"
			},
			{
				"constant": false,
				"inputs": [
					{
						"name": "target",
						"type": "address"
					}
				],
				"name": "addAuthorizedAddress",
				"outputs": [],
				"payable": false,
				"stateMutability": "nonpayable",
				"type": "function"
			},
			{
				"constant": true,
				"inputs": [
					{
						"name": "",
						"type": "uint256"
					}
				],
				"name": "authorities",
				"outputs": [
					{
						"name": "",
						"type": "address"
					}
				],
				"payable": false,
				"stateMutability": "view",
				"type": "function"
			},
			{
				"constant": true,
				"inputs": [
					{
						"name": "assetProxyId",
						"type": "bytes4"
					}
				],
				"name": "getAssetProxy",
				"outputs": [
					{
						"name": "",
						"type": "address"
					}
				],
				"payable": false,
				"stateMutability": "view",
				"type": "function"
			},
			{
				"constant": false,
				"inputs": [
					{
						"name": "target",
						"type": "address"
					}
				],
				"name": "removeAuthorizedAddress",
				"outputs": [],
				"payable": false,
				"stateMutability": "nonpayable",
				"type": "function"
			},
			{
				"constant": true,
				"inputs": [],
				"name": "owner",
				"outputs": [
					{
						"name": "",
						"type": "address"
					}
				],
				"payable": false,
				"stateMutability": "view",
				"type": "function"
			},
			{
				"constant": false,
				"inputs": [
					{
						"name": "target",
						"type": "address"
					},
					{
						"name": "index",
						"type": "uint256"
					}
				],
				"name": "removeAuthorizedAddressAtIndex",
				"outputs": [],
				"payable": false,
				"stateMutability": "nonpayable",
				"type": "function"
			},
			{
				"constant": true,
				"inputs": [],
				"name": "getProxyId",
				"outputs": [
					{
						"name": "",
						"type": "bytes4"
					}
				],
				"payable": false,
				"stateMutability": "pure",
				"type": "function"
			},
			{
				"constant": true,
				"inputs": [
					{
						"name": "",
						"type": "address"
					}
				],
				"name": "authorized",
				"outputs": [
					{
						"name": "",
						"type": "bool"
					}
				],
				"payable": false,
				"stateMutability": "view",
				"type": "function"
			},
			{
				"constant": false,
				"inputs": [
					{
						"name": "assetProxy",
						"type": "address"
					}
				],
				"name": "registerAssetProxy",
				"outputs": [],
				"payable": false,
				"stateMutability": "nonpayable",
				"type": "function"
			},
			{
				"constant": true,
				"inputs": [],
				"name": "getAuthorizedAddresses",
				"outputs": [
					{
						"name": "",
						"type": "address[]"
					}
				],
				"payable": false,
				"stateMutability": "view",
				"type": "function"
			},
			{
				"constant": false,
				"inputs": [
					{
						"name": "newOwner",
						"type": "address"
					}
				],
				"name": "transferOwnership",
				"outputs": [],
				"payable": false,
				"stateMutability": "nonpayable",
				"type": "function"
			},
			{
				"payable": false,
				"stateMutability": "nonpayable",
				"type": "fallback"
			},
			{
				"anonymous": false,
				"inputs": [
					{
						"indexed": true,
						"name": "target",
						"type": "address"
					},
					{
						"indexed": true,
						"name": "caller",
						"type": "address"
					}
				],
				"name": "AuthorizedAddressAdded",
				"type": "event"
			},
			{
				"anonymous": false,
				"inputs": [
					{
						"indexed": true,
						"name": "target",
						"type": "address"
					},
					{
						"indexed": true,
						"name": "caller",
						"type": "address"
					}
				],
				"name": "AuthorizedAddressRemoved",
				"type": "event"
			},
			{
				"anonymous": false,
				"inputs": [
					{
						"indexed": false,
						"name": "id",
						"type": "bytes4"
					},
					{
						"indexed": false,
						"name": "assetProxy",
						"type": "address"
					}
				],
				"name": "AssetProxyRegistered",
				"type": "event"
			}
		],
		"evm": {
			"bytecode": {
				"linkReferences": {},
				"object": "0x608060405260008054600160a060020a03191633179055611522806100256000396000f3006080604052600436106100b95763ffffffff7c01000000000000000000000000000000000000000000000000000000006000350416633fd3c997811461047f57806342f1181e146104e2578063494503d414610512578063607041081461052a57806370712939146105645780638da5cb5b146105925780639ad26744146105a7578063ae25532e146105d8578063b918161114610622578063c585bb9314610664578063d39de6e914610692578063f2fde38b146106f7575b3480156100c557600080fd5b507fffffffff00000000000000000000000000000000000000000000000000000000600035167fa85e59e40000000000000000000000000000000000000000000000000000000081141561047a573360005260026020526040600020541515610199577f08c379a0000000000000000000000000000000000000000000000000000000006000527c20000000000000000000000000000000000000000000000000000000006020527c1553454e4445525f4e4f545f415554484f52495a454400000000000000604052600060605260646000fd5b60043560288101356048820135604882018301602081033560488301850160208103358083141515610236577f08c379a0000000000000000000000000000000000000000000000000000000006000527c20000000000000000000000000000000000000000000000000000000006020527c0f4c454e4754485f4d49534d4154434800000000000000000000000000604052600060605260646000fd5b60646000803760806004526064356020840260008060005b83811015610477578881013585810286810482146102d7577f08c379a0000000000000000000000000000000000000000000000000000000006000527c20000000000000000000000000000000000000000000000000000000006020527c1055494e543235365f4f564552464c4f57000000000000000000000000604052600060605260646000fd5b8060645282890135606881018d018f016020810380356004811015610386577f08c379a0000000000000000000000000000000000000000000000000000000006000527c20000000000000000000000000000000000000000000000000000000006020527c1e4c454e4754485f475245415445525f5448414e5f335f5245515549526040527f454400000000000000000000000000000000000000000000000000000000000060605260646000fd5b82357fffffffff00000000000000000000000000000000000000000000000000000000168981146103c65780995089608452600160a45260406084205498505b88151561043e577f08c379a0000000000000000000000000000000000000000000000000000000006000527c20000000000000000000000000000000000000000000000000000000006020527c1a41535345545f50524f58595f444f45535f4e4f545f45584953540000604052600060605260646000fd5b60208201836084376000808360a4016000808d5af1801515610464573d6000803e3d6000fd5b505050505050505060208101905061024e565b50005b600080fd5b34801561048b57600080fd5b506104b97fffffffff0000000000000000000000000000000000000000000000000000000060043516610725565b6040805173ffffffffffffffffffffffffffffffffffffffff9092168252519081900360200190f35b3480156104ee57600080fd5b5061051073ffffffffffffffffffffffffffffffffffffffff6004351661074d565b005b34801561051e57600080fd5b506104b9600435610939565b34801561053657600080fd5b506104b97fffffffff000000000000000000000000000000000000000000000000000000006004351661096e565b34801561057057600080fd5b5061051073ffffffffffffffffffffffffffffffffffffffff600435166109b8565b34801561059e57600080fd5b506104b9610cb1565b3480156105b357600080fd5b5061051073ffffffffffffffffffffffffffffffffffffffff60043516602435610ccd565b3480156105e457600080fd5b506105ed611082565b604080517fffffffff000000000000000000000000000000000000000000000000000000009092168252519081900360200190f35b34801561062e57600080fd5b5061065073ffffffffffffffffffffffffffffffffffffffff600435166110b8565b604080519115158252519081900360200190f35b34801561067057600080fd5b5061051073ffffffffffffffffffffffffffffffffffffffff600435166110cd565b34801561069e57600080fd5b506106a761135a565b60408051602080825283518183015283519192839290830191858101910280838360005b838110156106e35781810151838201526020016106cb565b505050509050019250505060405180910390f35b34801561070357600080fd5b5061051073ffffffffffffffffffffffffffffffffffffffff600435166113c9565b60016020526000908152604090205473ffffffffffffffffffffffffffffffffffffffff1681565b60005473ffffffffffffffffffffffffffffffffffffffff1633146107d357604080517f08c379a000000000000000000000000000000000000000000000000000000000815260206004820152601360248201527f4f4e4c595f434f4e54524143545f4f574e455200000000000000000000000000604482015290519081900360640190fd5b73ffffffffffffffffffffffffffffffffffffffff811660009081526002602052604090205460ff161561086857604080517f08c379a000000000000000000000000000000000000000000000000000000000815260206004820152601960248201527f5441524745545f414c52454144595f415554484f52495a454400000000000000604482015290519081900360640190fd5b73ffffffffffffffffffffffffffffffffffffffff811660008181526002602052604080822080547fffffffffffffffffffffffffffffffffffffffffffffffffffffffffffffff0016600190811790915560038054918201815583527fc2575a0e9e593c00f959f8c92f12db2869c3395a3b0502d05e2516446f71f85b0180547fffffffffffffffffffffffff00000000000000000000000000000000000000001684179055513392917f3147867c59d17e8fa9d522465651d44aae0a9e38f902f3475b97e58072f0ed4c91a350565b600380548290811061094757fe5b60009182526020909120015473ffffffffffffffffffffffffffffffffffffffff16905081565b7fffffffff000000000000000000000000000000000000000000000000000000001660009081526001602052604090205473ffffffffffffffffffffffffffffffffffffffff1690565b6000805473ffffffffffffffffffffffffffffffffffffffff163314610a3f57604080517f08c379a000000000000000000000000000000000000000000000000000000000815260206004820152601360248201527f4f4e4c595f434f4e54524143545f4f574e455200000000000000000000000000604482015290519081900360640190fd5b73ffffffffffffffffffffffffffffffffffffffff821660009081526002602052604090205460ff161515610ad557604080517f08c379a000000000000000000000000000000000000000000000000000000000815260206004820152601560248201527f5441524745545f4e4f545f415554484f52495a45440000000000000000000000604482015290519081900360640190fd5b5073ffffffffffffffffffffffffffffffffffffffff8116600090815260026020526040812080547fffffffffffffffffffffffffffffffffffffffffffffffffffffffffffffff001690555b600354811015610c6a578173ffffffffffffffffffffffffffffffffffffffff16600382815481101515610b5257fe5b60009182526020909120015473ffffffffffffffffffffffffffffffffffffffff161415610c6257600380547fffffffffffffffffffffffffffffffffffffffffffffffffffffffffffffffff8101908110610baa57fe5b6000918252602090912001546003805473ffffffffffffffffffffffffffffffffffffffff9092169183908110610bdd57fe5b600091825260209091200180547fffffffffffffffffffffffff00000000000000000000000000000000000000001673ffffffffffffffffffffffffffffffffffffffff92909216919091179055600380547fffffffffffffffffffffffffffffffffffffffffffffffffffffffffffffffff0190610c5c90826114af565b50610c6a565b600101610b22565b604051339073ffffffffffffffffffffffffffffffffffffffff8416907f1f32c1b084e2de0713b8fb16bd46bb9df710a3dbeae2f3ca93af46e016dcc6b090600090a35050565b60005473ffffffffffffffffffffffffffffffffffffffff1681565b60005473ffffffffffffffffffffffffffffffffffffffff163314610d5357604080517f08c379a000000000000000000000000000000000000000000000000000000000815260206004820152601360248201527f4f4e4c595f434f4e54524143545f4f574e455200000000000000000000000000604482015290519081900360640190fd5b73ffffffffffffffffffffffffffffffffffffffff821660009081526002602052604090205460ff161515610de957604080517f08c379a000000000000000000000000000000000000000000000000000000000815260206004820152601560248201527f5441524745545f4e4f545f415554484f52495a45440000000000000000000000604482015290519081900360640190fd5b6003548110610e5957604080517f08c379a000000000000000000000000000000000000000000000000000000000815260206004820152601360248201527f494e4445585f4f55545f4f465f424f554e445300000000000000000000000000604482015290519081900360640190fd5b8173ffffffffffffffffffffffffffffffffffffffff16600382815481101515610e7f57fe5b60009182526020909120015473ffffffffffffffffffffffffffffffffffffffff1614610f0d57604080517f08c379a000000000000000000000000000000000000000000000000000000000815260206004820152601b60248201527f415554484f52495a45445f414444524553535f4d49534d415443480000000000604482015290519081900360640190fd5b73ffffffffffffffffffffffffffffffffffffffff8216600090815260026020526040902080547fffffffffffffffffffffffffffffffffffffffffffffffffffffffffffffff00169055600380547fffffffffffffffffffffffffffffffffffffffffffffffffffffffffffffffff8101908110610f8857fe5b6000918252602090912001546003805473ffffffffffffffffffffffffffffffffffffffff9092169183908110610fbb57fe5b600091825260209091200180547fffffffffffffffffffffffff00000000000000000000000000000000000000001673ffffffffffffffffffffffffffffffffffffffff92909216919091179055600380547fffffffffffffffffffffffffffffffffffffffffffffffffffffffffffffffff019061103a90826114af565b50604051339073ffffffffffffffffffffffffffffffffffffffff8416907f1f32c1b084e2de0713b8fb16bd46bb9df710a3dbeae2f3ca93af46e016dcc6b090600090a35050565b604080517f4d756c746941737365742875696e743235365b5d2c62797465735b5d290000008152905190819003601d0190205b90565b60026020526000908152604090205460ff1681565b600080548190819073ffffffffffffffffffffffffffffffffffffffff16331461115857604080517f08c379a000000000000000000000000000000000000000000000000000000000815260206004820152601360248201527f4f4e4c595f434f4e54524143545f4f574e455200000000000000000000000000604482015290519081900360640190fd5b8392508273ffffffffffffffffffffffffffffffffffffffff1663ae25532e6040518163ffffffff167c0100000000000000000000000000000000000000000000000000000000028152600401602060405180830381600087803b1580156111bf57600080fd5b505af11580156111d3573d6000803e3d6000fd5b505050506040513d60208110156111e957600080fd5b50517fffffffff00000000000000000000000000000000000000000000000000000000811660009081526001602052604090205490925073ffffffffffffffffffffffffffffffffffffffff16905080156112a557604080517f08c379a000000000000000000000000000000000000000000000000000000000815260206004820152601a60248201527f41535345545f50524f58595f414c52454144595f455849535453000000000000604482015290519081900360640190fd5b7fffffffff00000000000000000000000000000000000000000000000000000000821660008181526001602090815260409182902080547fffffffffffffffffffffffff00000000000000000000000000000000000000001673ffffffffffffffffffffffffffffffffffffffff88811691909117909155825193845287169083015280517fd2c6b762299c609bdb96520b58a49bfb80186934d4f71a86a367571a15c031949281900390910190a150505050565b606060038054806020026020016040519081016040528092919081815260200182805480156113bf57602002820191906000526020600020905b815473ffffffffffffffffffffffffffffffffffffffff168152600190910190602001808311611394575b5050505050905090565b60005473ffffffffffffffffffffffffffffffffffffffff16331461144f57604080517f08c379a000000000000000000000000000000000000000000000000000000000815260206004820152601360248201527f4f4e4c595f434f4e54524143545f4f574e455200000000000000000000000000604482015290519081900360640190fd5b73ffffffffffffffffffffffffffffffffffffffff8116156114ac57600080547fffffffffffffffffffffffff00000000000000000000000000000000000000001673ffffffffffffffffffffffffffffffffffffffff83161790555b50565b8154818355818111156114d3576000838152602090206114d39181019083016114d8565b505050565b6110b591905b808211156114f257600081556001016114de565b50905600a165627a7a72305820a95bdc46ec34f929a28a8bf69819dc285b7932092bcf5e429acd5120c4e108ec0029",
				"opcodes": "PUSH1 0x80 PUSH1 0x40 MSTORE PUSH1 0x0 DUP1 SLOAD PUSH1 0x1 PUSH1 0xA0 PUSH1 0x2 EXP SUB NOT AND CALLER OR SWAP1 SSTORE PUSH2 0x1522 DUP1 PUSH2 0x25 PUSH1 0x0 CODECOPY PUSH1 0x0 RETURN STOP PUSH1 0x80 PUSH1 0x40 MSTORE PUSH1 0x4 CALLDATASIZE LT PUSH2 0xB9 JUMPI PUSH4 0xFFFFFFFF PUSH29 0x100000000000000000000000000000000000000000000000000000000 PUSH1 0x0 CALLDATALOAD DIV AND PUSH4 0x3FD3C997 DUP2 EQ PUSH2 0x47F JUMPI DUP1 PUSH4 0x42F1181E EQ PUSH2 0x4E2 JUMPI DUP1 PUSH4 0x494503D4 EQ PUSH2 0x512 JUMPI DUP1 PUSH4 0x60704108 EQ PUSH2 0x52A JUMPI DUP1 PUSH4 0x70712939 EQ PUSH2 0x564 JUMPI DUP1 PUSH4 0x8DA5CB5B EQ PUSH2 0x592 JUMPI DUP1 PUSH4 0x9AD26744 EQ PUSH2 0x5A7 JUMPI DUP1 PUSH4 0xAE25532E EQ PUSH2 0x5D8 JUMPI DUP1 PUSH4 0xB9181611 EQ PUSH2 0x622 JUMPI DUP1 PUSH4 0xC585BB93 EQ PUSH2 0x664 JUMPI DUP1 PUSH4 0xD39DE6E9 EQ PUSH2 0x692 JUMPI DUP1 PUSH4 0xF2FDE38B EQ PUSH2 0x6F7 JUMPI JUMPDEST CALLVALUE DUP1 ISZERO PUSH2 0xC5 JUMPI PUSH1 0x0 DUP1 REVERT JUMPDEST POP PUSH32 0xFFFFFFFF00000000000000000000000000000000000000000000000000000000 PUSH1 0x0 CALLDATALOAD AND PUSH32 0xA85E59E400000000000000000000000000000000000000000000000000000000 DUP2 EQ ISZERO PUSH2 0x47A JUMPI CALLER PUSH1 0x0 MSTORE PUSH1 0x2 PUSH1 0x20 MSTORE PUSH1 0x40 PUSH1 0x0 KECCAK256 SLOAD ISZERO ISZERO PUSH2 0x199 JUMPI PUSH32 0x8C379A000000000000000000000000000000000000000000000000000000000 PUSH1 0x0 MSTORE PUSH29 0x2000000000000000000000000000000000000000000000000000000000 PUSH1 0x20 MSTORE PUSH29 0x1553454E4445525F4E4F545F415554484F52495A454400000000000000 PUSH1 0x40 MSTORE PUSH1 0x0 PUSH1 0x60 MSTORE PUSH1 0x64 PUSH1 0x0 REVERT JUMPDEST PUSH1 0x4 CALLDATALOAD PUSH1 0x28 DUP2 ADD CALLDATALOAD PUSH1 0x48 DUP3 ADD CALLDATALOAD PUSH1 0x48 DUP3 ADD DUP4 ADD PUSH1 0x20 DUP2 SUB CALLDATALOAD PUSH1 0x48 DUP4 ADD DUP6 ADD PUSH1 0x20 DUP2 SUB CALLDATALOAD DUP1 DUP4 EQ ISZERO ISZERO PUSH2 0x236 JUMPI PUSH32 0x8C379A000000000000000000000000000000000000000000000000000000000 PUSH1 0x0 MSTORE PUSH29 0x2000000000000000000000000000000000000000000000000000000000 PUSH1 0x20 MSTORE PUSH29 0xF4C454E4754485F4D49534D4154434800000000000000000000000000 PUSH1 0x40 MSTORE PUSH1 0x0 PUSH1 0x60 MSTORE PUSH1 0x64 PUSH1 0x0 REVERT JUMPDEST PUSH1 0x64 PUSH1 0x0 DUP1 CALLDATACOPY PUSH1 0x80 PUSH1 0x4 MSTORE PUSH1 0x64 CALLDATALOAD PUSH1 0x20 DUP5 MUL PUSH1 0x0 DUP1 PUSH1 0x0 JUMPDEST DUP4 DUP2 LT ISZERO PUSH2 0x477 JUMPI DUP9 DUP2 ADD CALLDATALOAD DUP6 DUP2 MUL DUP7 DUP2 DIV DUP3 EQ PUSH2 0x2D7 JUMPI PUSH32 0x8C379A000000000000000000000000000000000000000000000000000000000 PUSH1 0x0 MSTORE PUSH29 0x2000000000000000000000000000000000000000000000000000000000 PUSH1 0x20 MSTORE PUSH29 0x1055494E543235365F4F564552464C4F57000000000000000000000000 PUSH1 0x40 MSTORE PUSH1 0x0 PUSH1 0x60 MSTORE PUSH1 0x64 PUSH1 0x0 REVERT JUMPDEST DUP1 PUSH1 0x64 MSTORE DUP3 DUP10 ADD CALLDATALOAD PUSH1 0x68 DUP2 ADD DUP14 ADD DUP16 ADD PUSH1 0x20 DUP2 SUB DUP1 CALLDATALOAD PUSH1 0x4 DUP2 LT ISZERO PUSH2 0x386 JUMPI PUSH32 0x8C379A000000000000000000000000000000000000000000000000000000000 PUSH1 0x0 MSTORE PUSH29 0x2000000000000000000000000000000000000000000000000000000000 PUSH1 0x20 MSTORE PUSH29 0x1E4C454E4754485F475245415445525F5448414E5F335F524551554952 PUSH1 0x40 MSTORE PUSH32 0x4544000000000000000000000000000000000000000000000000000000000000 PUSH1 0x60 MSTORE PUSH1 0x64 PUSH1 0x0 REVERT JUMPDEST DUP3 CALLDATALOAD PUSH32 0xFFFFFFFF00000000000000000000000000000000000000000000000000000000 AND DUP10 DUP2 EQ PUSH2 0x3C6 JUMPI DUP1 SWAP10 POP DUP10 PUSH1 0x84 MSTORE PUSH1 0x1 PUSH1 0xA4 MSTORE PUSH1 0x40 PUSH1 0x84 KECCAK256 SLOAD SWAP9 POP JUMPDEST DUP9 ISZERO ISZERO PUSH2 0x43E JUMPI PUSH32 0x8C379A000000000000000000000000000000000000000000000000000000000 PUSH1 0x0 MSTORE PUSH29 0x2000000000000000000000000000000000000000000000000000000000 PUSH1 0x20 MSTORE PUSH29 0x1A41535345545F50524F58595F444F45535F4E4F545F45584953540000 PUSH1 0x40 MSTORE PUSH1 0x0 PUSH1 0x60 MSTORE PUSH1 0x64 PUSH1 0x0 REVERT JUMPDEST PUSH1 0x20 DUP3 ADD DUP4 PUSH1 0x84 CALLDATACOPY PUSH1 0x0 DUP1 DUP4 PUSH1 0xA4 ADD PUSH1 0x0 DUP1 DUP14 GAS CALL DUP1 ISZERO ISZERO PUSH2 0x464 JUMPI RETURNDATASIZE PUSH1 0x0 DUP1 RETURNDATACOPY RETURNDATASIZE PUSH1 0x0 REVERT JUMPDEST POP POP POP POP POP POP POP POP PUSH1 0x20 DUP2 ADD SWAP1 POP PUSH2 0x24E JUMP JUMPDEST POP STOP JUMPDEST PUSH1 0x0 DUP1 REVERT JUMPDEST CALLVALUE DUP1 ISZERO PUSH2 0x48B JUMPI PUSH1 0x0 DUP1 REVERT JUMPDEST POP PUSH2 0x4B9 PUSH32 0xFFFFFFFF00000000000000000000000000000000000000000000000000000000 PUSH1 0x4 CALLDATALOAD AND PUSH2 0x725 JUMP JUMPDEST PUSH1 0x40 DUP1 MLOAD PUSH20 0xFFFFFFFFFFFFFFFFFFFFFFFFFFFFFFFFFFFFFFFF SWAP1 SWAP3 AND DUP3 MSTORE MLOAD SWAP1 DUP2 SWAP1 SUB PUSH1 0x20 ADD SWAP1 RETURN JUMPDEST CALLVALUE DUP1 ISZERO PUSH2 0x4EE JUMPI PUSH1 0x0 DUP1 REVERT JUMPDEST POP PUSH2 0x510 PUSH20 0xFFFFFFFFFFFFFFFFFFFFFFFFFFFFFFFFFFFFFFFF PUSH1 0x4 CALLDATALOAD AND PUSH2 0x74D JUMP JUMPDEST STOP JUMPDEST CALLVALUE DUP1 ISZERO PUSH2 0x51E JUMPI PUSH1 0x0 DUP1 REVERT JUMPDEST POP PUSH2 0x4B9 PUSH1 0x4 CALLDATALOAD PUSH2 0x939 JUMP JUMPDEST CALLVALUE DUP1 ISZERO PUSH2 0x536 JUMPI PUSH1 0x0 DUP1 REVERT JUMPDEST POP PUSH2 0x4B9 PUSH32 0xFFFFFFFF00000000000000000000000000000000000000000000000000000000 PUSH1 0x4 CALLDATALOAD AND PUSH2 0x96E JUMP JUMPDEST CALLVALUE DUP1 ISZERO PUSH2 0x570 JUMPI PUSH1 0x0 DUP1 REVERT JUMPDEST POP PUSH2 0x510 PUSH20 0xFFFFFFFFFFFFFFFFFFFFFFFFFFFFFFFFFFFFFFFF PUSH1 0x4 CALLDATALOAD AND PUSH2 0x9B8 JUMP JUMPDEST CALLVALUE DUP1 ISZERO PUSH2 0x59E JUMPI PUSH1 0x0 DUP1 REVERT JUMPDEST POP PUSH2 0x4B9 PUSH2 0xCB1 JUMP JUMPDEST CALLVALUE DUP1 ISZERO PUSH2 0x5B3 JUMPI PUSH1 0x0 DUP1 REVERT JUMPDEST POP PUSH2 0x510 PUSH20 0xFFFFFFFFFFFFFFFFFFFFFFFFFFFFFFFFFFFFFFFF PUSH1 0x4 CALLDATALOAD AND PUSH1 0x24 CALLDATALOAD PUSH2 0xCCD JUMP JUMPDEST CALLVALUE DUP1 ISZERO PUSH2 0x5E4 JUMPI PUSH1 0x0 DUP1 REVERT JUMPDEST POP PUSH2 0x5ED PUSH2 0x1082 JUMP JUMPDEST PUSH1 0x40 DUP1 MLOAD PUSH32 0xFFFFFFFF00000000000000000000000000000000000000000000000000000000 SWAP1 SWAP3 AND DUP3 MSTORE MLOAD SWAP1 DUP2 SWAP1 SUB PUSH1 0x20 ADD SWAP1 RETURN JUMPDEST CALLVALUE DUP1 ISZERO PUSH2 0x62E JUMPI PUSH1 0x0 DUP1 REVERT JUMPDEST POP PUSH2 0x650 PUSH20 0xFFFFFFFFFFFFFFFFFFFFFFFFFFFFFFFFFFFFFFFF PUSH1 0x4 CALLDATALOAD AND PUSH2 0x10B8 JUMP JUMPDEST PUSH1 0x40 DUP1 MLOAD SWAP2 ISZERO ISZERO DUP3 MSTORE MLOAD SWAP1 DUP2 SWAP1 SUB PUSH1 0x20 ADD SWAP1 RETURN JUMPDEST CALLVALUE DUP1 ISZERO PUSH2 0x670 JUMPI PUSH1 0x0 DUP1 REVERT JUMPDEST POP PUSH2 0x510 PUSH20 0xFFFFFFFFFFFFFFFFFFFFFFFFFFFFFFFFFFFFFFFF PUSH1 0x4 CALLDATALOAD AND PUSH2 0x10CD JUMP JUMPDEST CALLVALUE DUP1 ISZERO PUSH2 0x69E JUMPI PUSH1 0x0 DUP1 REVERT JUMPDEST POP PUSH2 0x6A7 PUSH2 0x135A JUMP JUMPDEST PUSH1 0x40 DUP1 MLOAD PUSH1 0x20 DUP1 DUP3 MSTORE DUP4 MLOAD DUP2 DUP4 ADD MSTORE DUP4 MLOAD SWAP2 SWAP3 DUP4 SWAP3 SWAP1 DUP4 ADD SWAP2 DUP6 DUP2 ADD SWAP2 MUL DUP1 DUP4 DUP4 PUSH1 0x0 JUMPDEST DUP4 DUP2 LT ISZERO PUSH2 0x6E3 JUMPI DUP2 DUP2 ADD MLOAD DUP4 DUP3 ADD MSTORE PUSH1 0x20 ADD PUSH2 0x6CB JUMP JUMPDEST POP POP POP POP SWAP1 POP ADD SWAP3 POP POP POP PUSH1 0x40 MLOAD DUP1 SWAP2 SUB SWAP1 RETURN JUMPDEST CALLVALUE DUP1 ISZERO PUSH2 0x703 JUMPI PUSH1 0x0 DUP1 REVERT JUMPDEST POP PUSH2 0x510 PUSH20 0xFFFFFFFFFFFFFFFFFFFFFFFFFFFFFFFFFFFFFFFF PUSH1 0x4 CALLDATALOAD AND PUSH2 0x13C9 JUMP JUMPDEST PUSH1 0x1 PUSH1 0x20 MSTORE PUSH1 0x0 SWAP1 DUP2 MSTORE PUSH1 0x40 SWAP1 KECCAK256 SLOAD PUSH20 0xFFFFFFFFFFFFFFFFFFFFFFFFFFFFFFFFFFFFFFFF AND DUP2 JUMP JUMPDEST PUSH1 0x0 SLOAD PUSH20 0xFFFFFFFFFFFFFFFFFFFFFFFFFFFFFFFFFFFFFFFF AND CALLER EQ PUSH2 0x7D3 JUMPI PUSH1 0x40 DUP1 MLOAD PUSH32 0x8C379A000000000000000000000000000000000000000000000000000000000 DUP2 MSTORE PUSH1 0x20 PUSH1 0x4 DUP3 ADD MSTORE PUSH1 0x13 PUSH1 0x24 DUP3 ADD MSTORE PUSH32 0x4F4E4C595F434F4E54524143545F4F574E455200000000000000000000000000 PUSH1 0x44 DUP3 ADD MSTORE SWAP1 MLOAD SWAP1 DUP2 SWAP1 SUB PUSH1 0x64 ADD SWAP1 REVERT JUMPDEST PUSH20 0xFFFFFFFFFFFFFFFFFFFFFFFFFFFFFFFFFFFFFFFF DUP2 AND PUSH1 0x0 SWAP1 DUP2 MSTORE PUSH1 0x2 PUSH1 0x20 MSTORE PUSH1 0x40 SWAP1 KECCAK256 SLOAD PUSH1 0xFF AND ISZERO PUSH2 0x868 JUMPI PUSH1 0x40 DUP1 MLOAD PUSH32 0x8C379A000000000000000000000000000000000000000000000000000000000 DUP2 MSTORE PUSH1 0x20 PUSH1 0x4 DUP3 ADD MSTORE PUSH1 0x19 PUSH1 0x24 DUP3 ADD MSTORE PUSH32 0x5441524745545F414C52454144595F415554484F52495A454400000000000000 PUSH1 0x44 DUP3 ADD MSTORE SWAP1 MLOAD SWAP1 DUP2 SWAP1 SUB PUSH1 0x64 ADD SWAP1 REVERT JUMPDEST PUSH20 0xFFFFFFFFFFFFFFFFFFFFFFFFFFFFFFFFFFFFFFFF DUP2 AND PUSH1 0x0 DUP2 DUP2 MSTORE PUSH1 0x2 PUSH1 0x20 MSTORE PUSH1 0x40 DUP1 DUP3 KECCAK256 DUP1 SLOAD PUSH32 0xFFFFFFFFFFFFFFFFFFFFFFFFFFFFFFFFFFFFFFFFFFFFFFFFFFFFFFFFFFFFFF00 AND PUSH1 0x1 SWAP1 DUP2 OR SWAP1 SWAP2 SSTORE PUSH1 0x3 DUP1 SLOAD SWAP2 DUP3 ADD DUP2 SSTORE DUP4 MSTORE PUSH32 0xC2575A0E9E593C00F959F8C92F12DB2869C3395A3B0502D05E2516446F71F85B ADD DUP1 SLOAD PUSH32 0xFFFFFFFFFFFFFFFFFFFFFFFF0000000000000000000000000000000000000000 AND DUP5 OR SWAP1 SSTORE MLOAD CALLER SWAP3 SWAP2 PUSH32 0x3147867C59D17E8FA9D522465651D44AAE0A9E38F902F3475B97E58072F0ED4C SWAP2 LOG3 POP JUMP JUMPDEST PUSH1 0x3 DUP1 SLOAD DUP3 SWAP1 DUP2 LT PUSH2 0x947 JUMPI INVALID JUMPDEST PUSH1 0x0 SWAP2 DUP3 MSTORE PUSH1 0x20 SWAP1 SWAP2 KECCAK256 ADD SLOAD PUSH20 0xFFFFFFFFFFFFFFFFFFFFFFFFFFFFFFFFFFFFFFFF AND SWAP1 POP DUP2 JUMP JUMPDEST PUSH32 0xFFFFFFFF00000000000000000000000000000000000000000000000000000000 AND PUSH1 0x0 SWAP1 DUP2 MSTORE PUSH1 0x1 PUSH1 0x20 MSTORE PUSH1 0x40 SWAP1 KECCAK256 SLOAD PUSH20 0xFFFFFFFFFFFFFFFFFFFFFFFFFFFFFFFFFFFFFFFF AND SWAP1 JUMP JUMPDEST PUSH1 0x0 DUP1 SLOAD PUSH20 0xFFFFFFFFFFFFFFFFFFFFFFFFFFFFFFFFFFFFFFFF AND CALLER EQ PUSH2 0xA3F JUMPI PUSH1 0x40 DUP1 MLOAD PUSH32 0x8C379A000000000000000000000000000000000000000000000000000000000 DUP2 MSTORE PUSH1 0x20 PUSH1 0x4 DUP3 ADD MSTORE PUSH1 0x13 PUSH1 0x24 DUP3 ADD MSTORE PUSH32 0x4F4E4C595F434F4E54524143545F4F574E455200000000000000000000000000 PUSH1 0x44 DUP3 ADD MSTORE SWAP1 MLOAD SWAP1 DUP2 SWAP1 SUB PUSH1 0x64 ADD SWAP1 REVERT JUMPDEST PUSH20 0xFFFFFFFFFFFFFFFFFFFFFFFFFFFFFFFFFFFFFFFF DUP3 AND PUSH1 0x0 SWAP1 DUP2 MSTORE PUSH1 0x2 PUSH1 0x20 MSTORE PUSH1 0x40 SWAP1 KECCAK256 SLOAD PUSH1 0xFF AND ISZERO ISZERO PUSH2 0xAD5 JUMPI PUSH1 0x40 DUP1 MLOAD PUSH32 0x8C379A000000000000000000000000000000000000000000000000000000000 DUP2 MSTORE PUSH1 0x20 PUSH1 0x4 DUP3 ADD MSTORE PUSH1 0x15 PUSH1 0x24 DUP3 ADD MSTORE PUSH32 0x5441524745545F4E4F545F415554484F52495A45440000000000000000000000 PUSH1 0x44 DUP3 ADD MSTORE SWAP1 MLOAD SWAP1 DUP2 SWAP1 SUB PUSH1 0x64 ADD SWAP1 REVERT JUMPDEST POP PUSH20 0xFFFFFFFFFFFFFFFFFFFFFFFFFFFFFFFFFFFFFFFF DUP2 AND PUSH1 0x0 SWAP1 DUP2 MSTORE PUSH1 0x2 PUSH1 0x20 MSTORE PUSH1 0x40 DUP2 KECCAK256 DUP1 SLOAD PUSH32 0xFFFFFFFFFFFFFFFFFFFFFFFFFFFFFFFFFFFFFFFFFFFFFFFFFFFFFFFFFFFFFF00 AND SWAP1 SSTORE JUMPDEST PUSH1 0x3 SLOAD DUP2 LT ISZERO PUSH2 0xC6A JUMPI DUP2 PUSH20 0xFFFFFFFFFFFFFFFFFFFFFFFFFFFFFFFFFFFFFFFF AND PUSH1 0x3 DUP3 DUP2 SLOAD DUP2 LT ISZERO ISZERO PUSH2 0xB52 JUMPI INVALID JUMPDEST PUSH1 0x0 SWAP2 DUP3 MSTORE PUSH1 0x20 SWAP1 SWAP2 KECCAK256 ADD SLOAD PUSH20 0xFFFFFFFFFFFFFFFFFFFFFFFFFFFFFFFFFFFFFFFF AND EQ ISZERO PUSH2 0xC62 JUMPI PUSH1 0x3 DUP1 SLOAD PUSH32 0xFFFFFFFFFFFFFFFFFFFFFFFFFFFFFFFFFFFFFFFFFFFFFFFFFFFFFFFFFFFFFFFF DUP2 ADD SWAP1 DUP2 LT PUSH2 0xBAA JUMPI INVALID JUMPDEST PUSH1 0x0 SWAP2 DUP3 MSTORE PUSH1 0x20 SWAP1 SWAP2 KECCAK256 ADD SLOAD PUSH1 0x3 DUP1 SLOAD PUSH20 0xFFFFFFFFFFFFFFFFFFFFFFFFFFFFFFFFFFFFFFFF SWAP1 SWAP3 AND SWAP2 DUP4 SWAP1 DUP2 LT PUSH2 0xBDD JUMPI INVALID JUMPDEST PUSH1 0x0 SWAP2 DUP3 MSTORE PUSH1 0x20 SWAP1 SWAP2 KECCAK256 ADD DUP1 SLOAD PUSH32 0xFFFFFFFFFFFFFFFFFFFFFFFF0000000000000000000000000000000000000000 AND PUSH20 0xFFFFFFFFFFFFFFFFFFFFFFFFFFFFFFFFFFFFFFFF SWAP3 SWAP1 SWAP3 AND SWAP2 SWAP1 SWAP2 OR SWAP1 SSTORE PUSH1 0x3 DUP1 SLOAD PUSH32 0xFFFFFFFFFFFFFFFFFFFFFFFFFFFFFFFFFFFFFFFFFFFFFFFFFFFFFFFFFFFFFFFF ADD SWAP1 PUSH2 0xC5C SWAP1 DUP3 PUSH2 0x14AF JUMP JUMPDEST POP PUSH2 0xC6A JUMP JUMPDEST PUSH1 0x1 ADD PUSH2 0xB22 JUMP JUMPDEST PUSH1 0x40 MLOAD CALLER SWAP1 PUSH20 0xFFFFFFFFFFFFFFFFFFFFFFFFFFFFFFFFFFFFFFFF DUP5 AND SWAP1 PUSH32 0x1F32C1B084E2DE0713B8FB16BD46BB9DF710A3DBEAE2F3CA93AF46E016DCC6B0 SWAP1 PUSH1 0x0 SWAP1 LOG3 POP POP JUMP JUMPDEST PUSH1 0x0 SLOAD PUSH20 0xFFFFFFFFFFFFFFFFFFFFFFFFFFFFFFFFFFFFFFFF AND DUP2 JUMP JUMPDEST PUSH1 0x0 SLOAD PUSH20 0xFFFFFFFFFFFFFFFFFFFFFFFFFFFFFFFFFFFFFFFF AND CALLER EQ PUSH2 0xD53 JUMPI PUSH1 0x40 DUP1 MLOAD PUSH32 0x8C379A000000000000000000000000000000000000000000000000000000000 DUP2 MSTORE PUSH1 0x20 PUSH1 0x4 DUP3 ADD MSTORE PUSH1 0x13 PUSH1 0x24 DUP3 ADD MSTORE PUSH32 0x4F4E4C595F434F4E54524143545F4F574E455200000000000000000000000000 PUSH1 0x44 DUP3 ADD MSTORE SWAP1 MLOAD SWAP1 DUP2 SWAP1 SUB PUSH1 0x64 ADD SWAP1 REVERT JUMPDEST PUSH20 0xFFFFFFFFFFFFFFFFFFFFFFFFFFFFFFFFFFFFFFFF DUP3 AND PUSH1 0x0 SWAP1 DUP2 MSTORE PUSH1 0x2 PUSH1 0x20 MSTORE PUSH1 0x40 SWAP1 KECCAK256 SLOAD PUSH1 0xFF AND ISZERO ISZERO PUSH2 0xDE9 JUMPI PUSH1 0x40 DUP1 MLOAD PUSH32 0x8C379A000000000000000000000000000000000000000000000000000000000 DUP2 MSTORE PUSH1 0x20 PUSH1 0x4 DUP3 ADD MSTORE PUSH1 0x15 PUSH1 0x24 DUP3 ADD MSTORE PUSH32 0x5441524745545F4E4F545F415554484F52495A45440000000000000000000000 PUSH1 0x44 DUP3 ADD MSTORE SWAP1 MLOAD SWAP1 DUP2 SWAP1 SUB PUSH1 0x64 ADD SWAP1 REVERT JUMPDEST PUSH1 0x3 SLOAD DUP2 LT PUSH2 0xE59 JUMPI PUSH1 0x40 DUP1 MLOAD PUSH32 0x8C379A000000000000000000000000000000000000000000000000000000000 DUP2 MSTORE PUSH1 0x20 PUSH1 0x4 DUP3 ADD MSTORE PUSH1 0x13 PUSH1 0x24 DUP3 ADD MSTORE PUSH32 0x494E4445585F4F55545F4F465F424F554E445300000000000000000000000000 PUSH1 0x44 DUP3 ADD MSTORE SWAP1 MLOAD SWAP1 DUP2 SWAP1 SUB PUSH1 0x64 ADD SWAP1 REVERT JUMPDEST DUP2 PUSH20 0xFFFFFFFFFFFFFFFFFFFFFFFFFFFFFFFFFFFFFFFF AND PUSH1 0x3 DUP3 DUP2 SLOAD DUP2 LT ISZERO ISZERO PUSH2 0xE7F JUMPI INVALID JUMPDEST PUSH1 0x0 SWAP2 DUP3 MSTORE PUSH1 0x20 SWAP1 SWAP2 KECCAK256 ADD SLOAD PUSH20 0xFFFFFFFFFFFFFFFFFFFFFFFFFFFFFFFFFFFFFFFF AND EQ PUSH2 0xF0D JUMPI PUSH1 0x40 DUP1 MLOAD PUSH32 0x8C379A000000000000000000000000000000000000000000000000000000000 DUP2 MSTORE PUSH1 0x20 PUSH1 0x4 DUP3 ADD MSTORE PUSH1 0x1B PUSH1 0x24 DUP3 ADD MSTORE PUSH32 0x415554484F52495A45445F414444524553535F4D49534D415443480000000000 PUSH1 0x44 DUP3 ADD MSTORE SWAP1 MLOAD SWAP1 DUP2 SWAP1 SUB PUSH1 0x64 ADD SWAP1 REVERT JUMPDEST PUSH20 0xFFFFFFFFFFFFFFFFFFFFFFFFFFFFFFFFFFFFFFFF DUP3 AND PUSH1 0x0 SWAP1 DUP2 MSTORE PUSH1 0x2 PUSH1 0x20 MSTORE PUSH1 0x40 SWAP1 KECCAK256 DUP1 SLOAD PUSH32 0xFFFFFFFFFFFFFFFFFFFFFFFFFFFFFFFFFFFFFFFFFFFFFFFFFFFFFFFFFFFFFF00 AND SWAP1 SSTORE PUSH1 0x3 DUP1 SLOAD PUSH32 0xFFFFFFFFFFFFFFFFFFFFFFFFFFFFFFFFFFFFFFFFFFFFFFFFFFFFFFFFFFFFFFFF DUP2 ADD SWAP1 DUP2 LT PUSH2 0xF88 JUMPI INVALID JUMPDEST PUSH1 0x0 SWAP2 DUP3 MSTORE PUSH1 0x20 SWAP1 SWAP2 KECCAK256 ADD SLOAD PUSH1 0x3 DUP1 SLOAD PUSH20 0xFFFFFFFFFFFFFFFFFFFFFFFFFFFFFFFFFFFFFFFF SWAP1 SWAP3 AND SWAP2 DUP4 SWAP1 DUP2 LT PUSH2 0xFBB JUMPI INVALID JUMPDEST PUSH1 0x0 SWAP2 DUP3 MSTORE PUSH1 0x20 SWAP1 SWAP2 KECCAK256 ADD DUP1 SLOAD PUSH32 0xFFFFFFFFFFFFFFFFFFFFFFFF0000000000000000000000000000000000000000 AND PUSH20 0xFFFFFFFFFFFFFFFFFFFFFFFFFFFFFFFFFFFFFFFF SWAP3 SWAP1 SWAP3 AND SWAP2 SWAP1 SWAP2 OR SWAP1 SSTORE PUSH1 0x3 DUP1 SLOAD PUSH32 0xFFFFFFFFFFFFFFFFFFFFFFFFFFFFFFFFFFFFFFFFFFFFFFFFFFFFFFFFFFFFFFFF ADD SWAP1 PUSH2 0x103A SWAP1 DUP3 PUSH2 0x14AF JUMP JUMPDEST POP PUSH1 0x40 MLOAD CALLER SWAP1 PUSH20 0xFFFFFFFFFFFFFFFFFFFFFFFFFFFFFFFFFFFFFFFF DUP5 AND SWAP1 PUSH32 0x1F32C1B084E2DE0713B8FB16BD46BB9DF710A3DBEAE2F3CA93AF46E016DCC6B0 SWAP1 PUSH1 0x0 SWAP1 LOG3 POP POP JUMP JUMPDEST PUSH1 0x40 DUP1 MLOAD PUSH32 0x4D756C746941737365742875696E743235365B5D2C62797465735B5D29000000 DUP2 MSTORE SWAP1 MLOAD SWAP1 DUP2 SWAP1 SUB PUSH1 0x1D ADD SWAP1 KECCAK256 JUMPDEST SWAP1 JUMP JUMPDEST PUSH1 0x2 PUSH1 0x20 MSTORE PUSH1 0x0 SWAP1 DUP2 MSTORE PUSH1 0x40 SWAP1 KECCAK256 SLOAD PUSH1 0xFF AND DUP2 JUMP JUMPDEST PUSH1 0x0 DUP1 SLOAD DUP2 SWAP1 DUP2 SWAP1 PUSH20 0xFFFFFFFFFFFFFFFFFFFFFFFFFFFFFFFFFFFFFFFF AND CALLER EQ PUSH2 0x1158 JUMPI PUSH1 0x40 DUP1 MLOAD PUSH32 0x8C379A000000000000000000000000000000000000000000000000000000000 DUP2 MSTORE PUSH1 0x20 PUSH1 0x4 DUP3 ADD MSTORE PUSH1 0x13 PUSH1 0x24 DUP3 ADD MSTORE PUSH32 0x4F4E4C595F434F4E54524143545F4F574E455200000000000000000000000000 PUSH1 0x44 DUP3 ADD MSTORE SWAP1 MLOAD SWAP1 DUP2 SWAP1 SUB PUSH1 0x64 ADD SWAP1 REVERT JUMPDEST DUP4 SWAP3 POP DUP3 PUSH20 0xFFFFFFFFFFFFFFFFFFFFFFFFFFFFFFFFFFFFFFFF AND PUSH4 0xAE25532E PUSH1 0x40 MLOAD DUP2 PUSH4 0xFFFFFFFF AND PUSH29 0x100000000000000000000000000000000000000000000000000000000 MUL DUP2 MSTORE PUSH1 0x4 ADD PUSH1 0x20 PUSH1 0x40 MLOAD DUP1 DUP4 SUB DUP2 PUSH1 0x0 DUP8 DUP1 EXTCODESIZE ISZERO DUP1 ISZERO PUSH2 0x11BF JUMPI PUSH1 0x0 DUP1 REVERT JUMPDEST POP GAS CALL ISZERO DUP1 ISZERO PUSH2 0x11D3 JUMPI RETURNDATASIZE PUSH1 0x0 DUP1 RETURNDATACOPY RETURNDATASIZE PUSH1 0x0 REVERT JUMPDEST POP POP POP POP PUSH1 0x40 MLOAD RETURNDATASIZE PUSH1 0x20 DUP2 LT ISZERO PUSH2 0x11E9 JUMPI PUSH1 0x0 DUP1 REVERT JUMPDEST POP MLOAD PUSH32 0xFFFFFFFF00000000000000000000000000000000000000000000000000000000 DUP2 AND PUSH1 0x0 SWAP1 DUP2 MSTORE PUSH1 0x1 PUSH1 0x20 MSTORE PUSH1 0x40 SWAP1 KECCAK256 SLOAD SWAP1 SWAP3 POP PUSH20 0xFFFFFFFFFFFFFFFFFFFFFFFFFFFFFFFFFFFFFFFF AND SWAP1 POP DUP1 ISZERO PUSH2 0x12A5 JUMPI PUSH1 0x40 DUP1 MLOAD PUSH32 0x8C379A000000000000000000000000000000000000000000000000000000000 DUP2 MSTORE PUSH1 0x20 PUSH1 0x4 DUP3 ADD MSTORE PUSH1 0x1A PUSH1 0x24 DUP3 ADD MSTORE PUSH32 0x41535345545F50524F58595F414C52454144595F455849535453000000000000 PUSH1 0x44 DUP3 ADD MSTORE SWAP1 MLOAD SWAP1 DUP2 SWAP1 SUB PUSH1 0x64 ADD SWAP1 REVERT JUMPDEST PUSH32 0xFFFFFFFF00000000000000000000000000000000000000000000000000000000 DUP3 AND PUSH1 0x0 DUP2 DUP2 MSTORE PUSH1 0x1 PUSH1 0x20 SWAP1 DUP2 MSTORE PUSH1 0x40 SWAP2 DUP3 SWAP1 KECCAK256 DUP1 SLOAD PUSH32 0xFFFFFFFFFFFFFFFFFFFFFFFF0000000000000000000000000000000000000000 AND PUSH20 0xFFFFFFFFFFFFFFFFFFFFFFFFFFFFFFFFFFFFFFFF DUP9 DUP2 AND SWAP2 SWAP1 SWAP2 OR SWAP1 SWAP2 SSTORE DUP3 MLOAD SWAP4 DUP5 MSTORE DUP8 AND SWAP1 DUP4 ADD MSTORE DUP1 MLOAD PUSH32 0xD2C6B762299C609BDB96520B58A49BFB80186934D4F71A86A367571A15C03194 SWAP3 DUP2 SWAP1 SUB SWAP1 SWAP2 ADD SWAP1 LOG1 POP POP POP POP JUMP JUMPDEST PUSH1 0x60 PUSH1 0x3 DUP1 SLOAD DUP1 PUSH1 0x20 MUL PUSH1 0x20 ADD PUSH1 0x40 MLOAD SWAP1 DUP2 ADD PUSH1 0x40 MSTORE DUP1 SWAP3 SWAP2 SWAP1 DUP2 DUP2 MSTORE PUSH1 0x20 ADD DUP3 DUP1 SLOAD DUP1 ISZERO PUSH2 0x13BF JUMPI PUSH1 0x20 MUL DUP3 ADD SWAP2 SWAP1 PUSH1 0x0 MSTORE PUSH1 0x20 PUSH1 0x0 KECCAK256 SWAP1 JUMPDEST DUP2 SLOAD PUSH20 0xFFFFFFFFFFFFFFFFFFFFFFFFFFFFFFFFFFFFFFFF AND DUP2 MSTORE PUSH1 0x1 SWAP1 SWAP2 ADD SWAP1 PUSH1 0x20 ADD DUP1 DUP4 GT PUSH2 0x1394 JUMPI JUMPDEST POP POP POP POP POP SWAP1 POP SWAP1 JUMP JUMPDEST PUSH1 0x0 SLOAD PUSH20 0xFFFFFFFFFFFFFFFFFFFFFFFFFFFFFFFFFFFFFFFF AND CALLER EQ PUSH2 0x144F JUMPI PUSH1 0x40 DUP1 MLOAD PUSH32 0x8C379A000000000000000000000000000000000000000000000000000000000 DUP2 MSTORE PUSH1 0x20 PUSH1 0x4 DUP3 ADD MSTORE PUSH1 0x13 PUSH1 0x24 DUP3 ADD MSTORE PUSH32 0x4F4E4C595F434F4E54524143545F4F574E455200000000000000000000000000 PUSH1 0x44 DUP3 ADD MSTORE SWAP1 MLOAD SWAP1 DUP2 SWAP1 SUB PUSH1 0x64 ADD SWAP1 REVERT JUMPDEST PUSH20 0xFFFFFFFFFFFFFFFFFFFFFFFFFFFFFFFFFFFFFFFF DUP2 AND ISZERO PUSH2 0x14AC JUMPI PUSH1 0x0 DUP1 SLOAD PUSH32 0xFFFFFFFFFFFFFFFFFFFFFFFF0000000000000000000000000000000000000000 AND PUSH20 0xFFFFFFFFFFFFFFFFFFFFFFFFFFFFFFFFFFFFFFFF DUP4 AND OR SWAP1 SSTORE JUMPDEST POP JUMP JUMPDEST DUP2 SLOAD DUP2 DUP4 SSTORE DUP2 DUP2 GT ISZERO PUSH2 0x14D3 JUMPI PUSH1 0x0 DUP4 DUP2 MSTORE PUSH1 0x20 SWAP1 KECCAK256 PUSH2 0x14D3 SWAP2 DUP2 ADD SWAP1 DUP4 ADD PUSH2 0x14D8 JUMP JUMPDEST POP POP POP JUMP JUMPDEST PUSH2 0x10B5 SWAP2 SWAP1 JUMPDEST DUP1 DUP3 GT ISZERO PUSH2 0x14F2 JUMPI PUSH1 0x0 DUP2 SSTORE PUSH1 0x1 ADD PUSH2 0x14DE JUMP JUMPDEST POP SWAP1 JUMP STOP LOG1 PUSH6 0x627A7A723058 KECCAK256 0xa9 JUMPDEST 0xdc 0x46 0xec CALLVALUE 0xf9 0x29 LOG2 DUP11 DUP12 0xf6 SWAP9 NOT 0xdc 0x28 JUMPDEST PUSH26 0x32092BCF5E429ACD5120C4E108EC002900000000000000000000 "
			}
		}
	},
	"sourceTreeHashHex": "0x3514470afb9964dc8a52280d0de057b85f15583548b848ebacc3cf9955aa2e5b",
	"compiler": {
		"name": "solc",
		"version": "soljson-v0.4.24+commit.e67f0147.js",
		"settings": {
			"optimizer": {
				"enabled": true,
				"runs": 1000000
			},
			"outputSelection": {
				"*": {
					"*": [
						"abi",
						"evm.bytecode.object",
						"evm.bytecode.sourceMap",
						"evm.deployedBytecode.object",
						"evm.deployedBytecode.sourceMap"
					]
				}
			}
		}
	}
}