{
	"schemaVersion": "2.0.0",
	"contractName": "OrderValidator",
	"compilerOutput": {
		"abi": [
			{
				"constant": true,
				"inputs": [
					{
						"components": [
							{
								"name": "makerAddress",
								"type": "address"
							},
							{
								"name": "takerAddress",
								"type": "address"
							},
							{
								"name": "feeRecipientAddress",
								"type": "address"
							},
							{
								"name": "senderAddress",
								"type": "address"
							},
							{
								"name": "makerAssetAmount",
								"type": "uint256"
							},
							{
								"name": "takerAssetAmount",
								"type": "uint256"
							},
							{
								"name": "makerFee",
								"type": "uint256"
							},
							{
								"name": "takerFee",
								"type": "uint256"
							},
							{
								"name": "expirationTimeSeconds",
								"type": "uint256"
							},
							{
								"name": "salt",
								"type": "uint256"
							},
							{
								"name": "makerAssetData",
								"type": "bytes"
							},
							{
								"name": "takerAssetData",
								"type": "bytes"
							}
						],
						"name": "order",
						"type": "tuple"
					},
					{
						"name": "takerAddress",
						"type": "address"
					}
				],
				"name": "getOrderAndTraderInfo",
				"outputs": [
					{
						"components": [
							{
								"name": "orderStatus",
								"type": "uint8"
							},
							{
								"name": "orderHash",
								"type": "bytes32"
							},
							{
								"name": "orderTakerAssetFilledAmount",
								"type": "uint256"
							}
						],
						"name": "orderInfo",
						"type": "tuple"
					},
					{
						"components": [
							{
								"name": "makerBalance",
								"type": "uint256"
							},
							{
								"name": "makerAllowance",
								"type": "uint256"
							},
							{
								"name": "takerBalance",
								"type": "uint256"
							},
							{
								"name": "takerAllowance",
								"type": "uint256"
							},
							{
								"name": "makerZrxBalance",
								"type": "uint256"
							},
							{
								"name": "makerZrxAllowance",
								"type": "uint256"
							},
							{
								"name": "takerZrxBalance",
								"type": "uint256"
							},
							{
								"name": "takerZrxAllowance",
								"type": "uint256"
							}
						],
						"name": "traderInfo",
						"type": "tuple"
					}
				],
				"payable": false,
				"stateMutability": "view",
				"type": "function"
			},
			{
				"constant": true,
				"inputs": [
					{
						"name": "target",
						"type": "address"
					},
					{
						"name": "assetData",
						"type": "bytes"
					}
				],
				"name": "getBalanceAndAllowance",
				"outputs": [
					{
						"name": "balance",
						"type": "uint256"
					},
					{
						"name": "allowance",
						"type": "uint256"
					}
				],
				"payable": false,
				"stateMutability": "view",
				"type": "function"
			},
			{
				"constant": true,
				"inputs": [
					{
						"components": [
							{
								"name": "makerAddress",
								"type": "address"
							},
							{
								"name": "takerAddress",
								"type": "address"
							},
							{
								"name": "feeRecipientAddress",
								"type": "address"
							},
							{
								"name": "senderAddress",
								"type": "address"
							},
							{
								"name": "makerAssetAmount",
								"type": "uint256"
							},
							{
								"name": "takerAssetAmount",
								"type": "uint256"
							},
							{
								"name": "makerFee",
								"type": "uint256"
							},
							{
								"name": "takerFee",
								"type": "uint256"
							},
							{
								"name": "expirationTimeSeconds",
								"type": "uint256"
							},
							{
								"name": "salt",
								"type": "uint256"
							},
							{
								"name": "makerAssetData",
								"type": "bytes"
							},
							{
								"name": "takerAssetData",
								"type": "bytes"
							}
						],
						"name": "orders",
						"type": "tuple[]"
					},
					{
						"name": "takerAddresses",
						"type": "address[]"
					}
				],
				"name": "getOrdersAndTradersInfo",
				"outputs": [
					{
						"components": [
							{
								"name": "orderStatus",
								"type": "uint8"
							},
							{
								"name": "orderHash",
								"type": "bytes32"
							},
							{
								"name": "orderTakerAssetFilledAmount",
								"type": "uint256"
							}
						],
						"name": "ordersInfo",
						"type": "tuple[]"
					},
					{
						"components": [
							{
								"name": "makerBalance",
								"type": "uint256"
							},
							{
								"name": "makerAllowance",
								"type": "uint256"
							},
							{
								"name": "takerBalance",
								"type": "uint256"
							},
							{
								"name": "takerAllowance",
								"type": "uint256"
							},
							{
								"name": "makerZrxBalance",
								"type": "uint256"
							},
							{
								"name": "makerZrxAllowance",
								"type": "uint256"
							},
							{
								"name": "takerZrxBalance",
								"type": "uint256"
							},
							{
								"name": "takerZrxAllowance",
								"type": "uint256"
							}
						],
						"name": "tradersInfo",
						"type": "tuple[]"
					}
				],
				"payable": false,
				"stateMutability": "view",
				"type": "function"
			},
			{
				"constant": true,
				"inputs": [
					{
						"components": [
							{
								"name": "makerAddress",
								"type": "address"
							},
							{
								"name": "takerAddress",
								"type": "address"
							},
							{
								"name": "feeRecipientAddress",
								"type": "address"
							},
							{
								"name": "senderAddress",
								"type": "address"
							},
							{
								"name": "makerAssetAmount",
								"type": "uint256"
							},
							{
								"name": "takerAssetAmount",
								"type": "uint256"
							},
							{
								"name": "makerFee",
								"type": "uint256"
							},
							{
								"name": "takerFee",
								"type": "uint256"
							},
							{
								"name": "expirationTimeSeconds",
								"type": "uint256"
							},
							{
								"name": "salt",
								"type": "uint256"
							},
							{
								"name": "makerAssetData",
								"type": "bytes"
							},
							{
								"name": "takerAssetData",
								"type": "bytes"
							}
						],
						"name": "orders",
						"type": "tuple[]"
					},
					{
						"name": "takerAddresses",
						"type": "address[]"
					}
				],
				"name": "getTradersInfo",
				"outputs": [
					{
						"components": [
							{
								"name": "makerBalance",
								"type": "uint256"
							},
							{
								"name": "makerAllowance",
								"type": "uint256"
							},
							{
								"name": "takerBalance",
								"type": "uint256"
							},
							{
								"name": "takerAllowance",
								"type": "uint256"
							},
							{
								"name": "makerZrxBalance",
								"type": "uint256"
							},
							{
								"name": "makerZrxAllowance",
								"type": "uint256"
							},
							{
								"name": "takerZrxBalance",
								"type": "uint256"
							},
							{
								"name": "takerZrxAllowance",
								"type": "uint256"
							}
						],
						"name": "",
						"type": "tuple[]"
					}
				],
				"payable": false,
				"stateMutability": "view",
				"type": "function"
			},
			{
				"constant": true,
				"inputs": [
					{
						"name": "token",
						"type": "address"
					},
					{
						"name": "tokenId",
						"type": "uint256"
					}
				],
				"name": "getERC721TokenOwner",
				"outputs": [
					{
						"name": "owner",
						"type": "address"
					}
				],
				"payable": false,
				"stateMutability": "view",
				"type": "function"
			},
			{
				"constant": true,
				"inputs": [
					{
						"name": "target",
						"type": "address"
					},
					{
						"name": "assetData",
						"type": "bytes[]"
					}
				],
				"name": "getBalancesAndAllowances",
				"outputs": [
					{
						"name": "",
						"type": "uint256[]"
					},
					{
						"name": "",
						"type": "uint256[]"
					}
				],
				"payable": false,
				"stateMutability": "view",
				"type": "function"
			},
			{
				"constant": true,
				"inputs": [
					{
						"components": [
							{
								"name": "makerAddress",
								"type": "address"
							},
							{
								"name": "takerAddress",
								"type": "address"
							},
							{
								"name": "feeRecipientAddress",
								"type": "address"
							},
							{
								"name": "senderAddress",
								"type": "address"
							},
							{
								"name": "makerAssetAmount",
								"type": "uint256"
							},
							{
								"name": "takerAssetAmount",
								"type": "uint256"
							},
							{
								"name": "makerFee",
								"type": "uint256"
							},
							{
								"name": "takerFee",
								"type": "uint256"
							},
							{
								"name": "expirationTimeSeconds",
								"type": "uint256"
							},
							{
								"name": "salt",
								"type": "uint256"
							},
							{
								"name": "makerAssetData",
								"type": "bytes"
							},
							{
								"name": "takerAssetData",
								"type": "bytes"
							}
						],
						"name": "order",
						"type": "tuple"
					},
					{
						"name": "takerAddress",
						"type": "address"
					}
				],
				"name": "getTraderInfo",
				"outputs": [
					{
						"components": [
							{
								"name": "makerBalance",
								"type": "uint256"
							},
							{
								"name": "makerAllowance",
								"type": "uint256"
							},
							{
								"name": "takerBalance",
								"type": "uint256"
							},
							{
								"name": "takerAllowance",
								"type": "uint256"
							},
							{
								"name": "makerZrxBalance",
								"type": "uint256"
							},
							{
								"name": "makerZrxAllowance",
								"type": "uint256"
							},
							{
								"name": "takerZrxBalance",
								"type": "uint256"
							},
							{
								"name": "takerZrxAllowance",
								"type": "uint256"
							}
						],
						"name": "traderInfo",
						"type": "tuple"
					}
				],
				"payable": false,
				"stateMutability": "view",
				"type": "function"
			},
			{
				"inputs": [
					{
						"name": "_exchange",
						"type": "address"
					},
					{
						"name": "_zrxAssetData",
						"type": "bytes"
					}
				],
				"payable": false,
				"stateMutability": "nonpayable",
				"type": "constructor"
			}
		],
		"evm": {
			"bytecode": {
				"linkReferences": {},
				"object": "0x60806040523480156200001157600080fd5b5060405162001c5038038062001c50833981018060405262000037919081019062000186565b60008054600160a060020a031916600160a060020a03841617905580516200006790600190602084019062000070565b5050506200026b565b828054600181600116156101000203166002900490600052602060002090601f016020900481019282601f10620000b357805160ff1916838001178555620000e3565b82800160010185558215620000e3579182015b82811115620000e3578251825591602001919060010190620000c6565b50620000f1929150620000f5565b5090565b6200011291905b80821115620000f15760008155600101620000fc565b90565b60006200012382516200022c565b9392505050565b6000601f820183136200013c57600080fd5b8151620001536200014d8262000204565b620001dd565b915080825260208301602083018583830111156200017057600080fd5b6200017d83828462000238565b50505092915050565b600080604083850312156200019a57600080fd5b6000620001a8858562000115565b92505060208301516001604060020a03811115620001c557600080fd5b620001d3858286016200012a565b9150509250929050565b6040518181016001604060020a0381118282101715620001fc57600080fd5b604052919050565b60006001604060020a038211156200021b57600080fd5b506020601f91909101601f19160190565b600160a060020a031690565b60005b83811015620002555781810151838201526020016200023b565b8381111562000265576000848401525b50505050565b6119d5806200027b6000396000f3006080604052600436106100825763ffffffff7c010000000000000000000000000000000000000000000000000000000060003504166304ad1e5381146100875780632cd0fc73146100be5780634b95de13146100ec578063690d31141461011a578063b698846314610147578063c6b7f4ee14610174578063f241ffb0146101a2575b600080fd5b34801561009357600080fd5b506100a76100a23660046111f7565b6101cf565b6040516100b5929190611800565b60405180910390f35b3480156100ca57600080fd5b506100de6100d93660046110af565b61029c565b6040516100b592919061183c565b3480156100f857600080fd5b5061010c61010736600461115c565b6106f1565b6040516100b5929190611746565b34801561012657600080fd5b5061013a61013536600461115c565b6107c8565b6040516100b5919061177c565b34801561015357600080fd5b506101676101623660046110f7565b610882565b6040516100b5919061171d565b34801561018057600080fd5b5061019461018f36600461105d565b6108cd565b6040516100b592919061178d565b3480156101ae57600080fd5b506101c26101bd3660046111f7565b6109aa565b6040516100b5919061182d565b6101d7610bf4565b6101df610c14565b6000546040517fc75e0a8100000000000000000000000000000000000000000000000000000000815273ffffffffffffffffffffffffffffffffffffffff9091169063c75e0a819061023590879060040161181c565b606060405180830381600087803b15801561024f57600080fd5b505af1158015610263573d6000803e3d6000fd5b505050506040513d601f19601f8201168201806040525061028791908101906111d9565b915061029384846109aa565b90509250929050565b6000808080808080806102b5898263ffffffff610ac816565b95506102c889601063ffffffff610b3516565b6000546040517f6070410800000000000000000000000000000000000000000000000000000000815291965073ffffffffffffffffffffffffffffffffffffffff169063607041089061031f9089906004016117b2565b602060405180830381600087803b15801561033957600080fd5b505af115801561034d573d6000803e3d6000fd5b505050506040513d601f19601f820116820180604052506103719190810190611037565b604080517f4552433230546f6b656e28616464726573732900000000000000000000000000815290519081900360130190209094507fffffffff0000000000000000000000000000000000000000000000000000000087811691161415610526576040517f70a0823100000000000000000000000000000000000000000000000000000000815273ffffffffffffffffffffffffffffffffffffffff8616906370a0823190610424908d9060040161171d565b602060405180830381600087803b15801561043e57600080fd5b505af1158015610452573d6000803e3d6000fd5b505050506040513d601f19601f82011682018060405250610476919081019061123e565b6040517fdd62ed3e00000000000000000000000000000000000000000000000000000000815290985073ffffffffffffffffffffffffffffffffffffffff86169063dd62ed3e906104cd908d90889060040161172b565b602060405180830381600087803b1580156104e757600080fd5b505af11580156104fb573d6000803e3d6000fd5b505050506040513d601f19601f8201168201806040525061051f919081019061123e565b96506106e4565b604080517f455243373231546f6b656e28616464726573732c75696e7432353629000000008152905190819003601c0190207fffffffff00000000000000000000000000000000000000000000000000000000878116911614156106a95761059589602463ffffffff610b9616565b92506105a18584610882565b91508173ffffffffffffffffffffffffffffffffffffffff168a73ffffffffffffffffffffffffffffffffffffffff16146105dd5760006105e0565b60015b60ff1697508473ffffffffffffffffffffffffffffffffffffffff1663e985e9c58b866040518363ffffffff167c010000000000000000000000000000000000000000000000000000000002815260040161063c92919061172b565b602060405180830381600087803b15801561065657600080fd5b505af115801561066a573d6000803e3d6000fd5b505050506040513d601f19601f8201168201806040525061068e91908101906111bb565b90508061069c57600061069f565b60015b60ff1696506106e4565b6040517f08c379a00000000000000000000000000000000000000000000000000000000081526004016106db906117d0565b60405180910390fd5b5050505050509250929050565b6000546040517f7e9d74dc000000000000000000000000000000000000000000000000000000008152606091829173ffffffffffffffffffffffffffffffffffffffff90911690637e9d74dc9061074c90879060040161176b565b600060405180830381600087803b15801561076657600080fd5b505af115801561077a573d6000803e3d6000fd5b505050506040513d6000823e601f3d9081017fffffffffffffffffffffffffffffffffffffffffffffffffffffffffffffffe01682016040526107c09190810190611127565b915061029384845b6060600060606000855192508260405190808252806020026020018201604052801561080e57816020015b6107fb610c14565b8152602001906001900390816107f35790505b509150600090505b80831461087557610855868281518110151561082e57fe5b90602001906020020151868381518110151561084657fe5b906020019060200201516109aa565b828281518110151561086357fe5b60209081029091010152600101610816565b8193505b50505092915050565b60006040517f6352211e000000000000000000000000000000000000000000000000000000008152826004820152602081602483875afa80156108c457815192505b50505b92915050565b606080600060608060008651935083604051908082528060200260200182016040528015610905578160200160208202803883390190505b50925083604051908082528060200260200182016040528015610932578160200160208202803883390190505b509150600090505b80841461099d5761096288888381518110151561095357fe5b9060200190602002015161029c565b848381518110151561097057fe5b906020019060200201848481518110151561098757fe5b602090810290910101919091525260010161093a565b5090969095509350505050565b6109b2610c14565b60606109c7846000015185610140015161029c565b602084015282526101608401516109df90849061029c565b60608401526040808401919091526001805482516020601f60027fffffffffffffffffffffffffffffffffffffffffffffffffffffffffffffffff6101008688161502019094169390930492830181900481028201810190945281815292830182828015610a8e5780601f10610a6357610100808354040283529160200191610a8e565b820191906000526020600020905b815481529060010190602001808311610a7157829003601f168201915b50505050509050610aa384600001518261029c565b60a08401526080830152610ab7838261029c565b60e084015260c08301525092915050565b600081600401835110151515610b0a576040517f08c379a00000000000000000000000000000000000000000000000000000000081526004016106db906117f0565b5001602001517fffffffff000000000000000000000000000000000000000000000000000000001690565b600081601401835110151515610b77576040517f08c379a00000000000000000000000000000000000000000000000000000000081526004016106db906117e0565b50016014015173ffffffffffffffffffffffffffffffffffffffff1690565b6000610ba28383610ba9565b9392505050565b600081602001835110151515610beb576040517f08c379a00000000000000000000000000000000000000000000000000000000081526004016106db906117c0565b50016020015190565b604080516060810182526000808252602082018190529181019190915290565b6101006040519081016040528060008152602001600081526020016000815260200160008152602001600081526020016000815260200160008152602001600081525090565b6000610ba282356118ef565b6000610ba282516118ef565b6000601f82018313610c8357600080fd5b8135610c96610c918261187e565b611857565b91508181835260208401935060208101905083856020840282011115610cbb57600080fd5b60005b83811015610ce75781610cd18882610c5a565b8452506020928301929190910190600101610cbe565b5050505092915050565b6000601f82018313610d0257600080fd5b8135610d10610c918261187e565b81815260209384019390925082018360005b83811015610ce75781358601610d388882610e35565b8452506020928301929190910190600101610d22565b6000601f82018313610d5f57600080fd5b8151610d6d610c918261187e565b91508181835260208401935060208101905083856060840282011115610d9257600080fd5b60005b83811015610ce75781610da88882610e7b565b84525060209092019160609190910190600101610d95565b6000601f82018313610dd157600080fd5b8135610ddf610c918261187e565b81815260209384019390925082018360005b83811015610ce75781358601610e078882610ed6565b8452506020928301929190910190600101610df1565b6000610ba28251611936565b6000610ba28251611908565b6000601f82018313610e4657600080fd5b8135610e54610c918261189f565b91508082526020830160208301858383011115610e7057600080fd5b61087983828461193b565b600060608284031215610e8d57600080fd5b610e976060611857565b90506000610ea5848461102b565b8252506020610eb684848301610e29565b6020830152506040610eca84828501610e29565b60408301525092915050565b60006101808284031215610ee957600080fd5b610ef4610180611857565b90506000610f028484610c5a565b8252506020610f1384848301610c5a565b6020830152506040610f2784828501610c5a565b6040830152506060610f3b84828501610c5a565b6060830152506080610f4f8482850161101f565b60808301525060a0610f638482850161101f565b60a08301525060c0610f778482850161101f565b60c08301525060e0610f8b8482850161101f565b60e083015250610100610fa08482850161101f565b61010083015250610120610fb68482850161101f565b6101208301525061014082013567ffffffffffffffff811115610fd857600080fd5b610fe484828501610e35565b6101408301525061016082013567ffffffffffffffff81111561100657600080fd5b61101284828501610e35565b6101608301525092915050565b6000610ba28235611908565b6000610ba28251611930565b60006020828403121561104957600080fd5b60006110558484610c66565b949350505050565b6000806040838503121561107057600080fd5b600061107c8585610c5a565b925050602083013567ffffffffffffffff81111561109957600080fd5b6110a585828601610cf1565b9150509250929050565b600080604083850312156110c257600080fd5b60006110ce8585610c5a565b925050602083013567ffffffffffffffff8111156110eb57600080fd5b6110a585828601610e35565b6000806040838503121561110a57600080fd5b60006111168585610c5a565b92505060206110a58582860161101f565b60006020828403121561113957600080fd5b815167ffffffffffffffff81111561115057600080fd5b61105584828501610d4e565b6000806040838503121561116f57600080fd5b823567ffffffffffffffff81111561118657600080fd5b61119285828601610dc0565b925050602083013567ffffffffffffffff8111156111af57600080fd5b6110a585828601610c72565b6000602082840312156111cd57600080fd5b60006110558484610e1d565b6000606082840312156111eb57600080fd5b60006110558484610e7b565b6000806040838503121561120a57600080fd5b823567ffffffffffffffff81111561122157600080fd5b61122d85828601610ed6565b92505060206110a585828601610c5a565b60006020828403121561125057600080fd5b60006110558484610e29565b611265816118ef565b82525050565b6000611276826118eb565b808452602084019350611288836118e5565b60005b828110156112b85761129e86835161153d565b6112a7826118e5565b60609690960195915060010161128b565b5093949350505050565b60006112cd826118eb565b808452602084019350836020820285016112e6856118e5565b60005b8481101561131d57838303885261130183835161157a565b925061130c826118e5565b6020989098019791506001016112e9565b50909695505050505050565b6000611334826118eb565b808452602084019350611346836118e5565b60005b828110156112b85761135c86835161167d565b611365826118e5565b61010096909601959150600101611349565b6000611382826118eb565b808452602084019350611394836118e5565b60005b828110156112b8576113aa8683516113c4565b6113b3826118e5565b602096909601959150600101611397565b61126581611908565b6112658161190b565b60006113e1826118eb565b8084526113f5816020860160208601611947565b6113fe81611973565b9093016020019392505050565b602681527f475245415445525f4f525f455155414c5f544f5f33325f4c454e4754485f524560208201527f5155495245440000000000000000000000000000000000000000000000000000604082015260600190565b601781527f554e535550504f525445445f41535345545f50524f5859000000000000000000602082015260400190565b602681527f475245415445525f4f525f455155414c5f544f5f32305f4c454e4754485f524560208201527f5155495245440000000000000000000000000000000000000000000000000000604082015260600190565b602581527f475245415445525f4f525f455155414c5f544f5f345f4c454e4754485f52455160208201527f5549524544000000000000000000000000000000000000000000000000000000604082015260600190565b8051606083019061154e8482611714565b50602082015161156160208501826113c4565b50604082015161157460408501826113c4565b50505050565b805160009061018084019061158f858261125c565b5060208301516115a2602086018261125c565b5060408301516115b5604086018261125c565b5060608301516115c8606086018261125c565b5060808301516115db60808601826113c4565b5060a08301516115ee60a08601826113c4565b5060c083015161160160c08601826113c4565b5060e083015161161460e08601826113c4565b506101008301516116296101008601826113c4565b5061012083015161163e6101208601826113c4565b5061014083015184820361014086015261165882826113d6565b91505061016083015184820361016086015261167482826113d6565b95945050505050565b805161010083019061168f84826113c4565b5060208201516116a260208501826113c4565b5060408201516116b560408501826113c4565b5060608201516116c860608501826113c4565b5060808201516116db60808501826113c4565b5060a08201516116ee60a08501826113c4565b5060c082015161170160c08501826113c4565b5060e082015161157460e08501826113c4565b61126581611930565b602081016108c7828461125c565b60408101611739828561125c565b610ba2602083018461125c565b60408082528101611757818561126b565b905081810360208301526110558184611329565b60208082528101610ba281846112c2565b60208082528101610ba28184611329565b6040808252810161179e8185611377565b905081810360208301526110558184611377565b602081016108c782846113cd565b602080825281016108c78161140b565b602080825281016108c781611461565b602080825281016108c781611491565b602080825281016108c7816114e7565b610160810161180f828561153d565b610ba2606083018461167d565b60208082528101610ba2818461157a565b61010081016108c7828461167d565b6040810161184a82856113c4565b610ba260208301846113c4565b60405181810167ffffffffffffffff8111828210171561187657600080fd5b604052919050565b600067ffffffffffffffff82111561189557600080fd5b5060209081020190565b600067ffffffffffffffff8211156118b657600080fd5b506020601f919091017fffffffffffffffffffffffffffffffffffffffffffffffffffffffffffffffe0160190565b60200190565b5190565b73ffffffffffffffffffffffffffffffffffffffff1690565b90565b7fffffffff000000000000000000000000000000000000000000000000000000001690565b60ff1690565b151590565b82818337506000910152565b60005b8381101561196257818101518382015260200161194a565b838111156115745750506000910152565b601f017fffffffffffffffffffffffffffffffffffffffffffffffffffffffffffffffe016905600a265627a7a72305820fb1b6f44adc2bd1a78c1b15dad3647aec4ff0a776e6f1949bd077b3a9ed29d216c6578706572696d656e74616cf50037",
				"opcodes": "PUSH1 0x80 PUSH1 0x40 MSTORE CALLVALUE DUP1 ISZERO PUSH3 0x11 JUMPI PUSH1 0x0 DUP1 REVERT JUMPDEST POP PUSH1 0x40 MLOAD PUSH3 0x1C50 CODESIZE SUB DUP1 PUSH3 0x1C50 DUP4 CODECOPY DUP2 ADD DUP1 PUSH1 0x40 MSTORE PUSH3 0x37 SWAP2 SWAP1 DUP2 ADD SWAP1 PUSH3 0x186 JUMP JUMPDEST PUSH1 0x0 DUP1 SLOAD PUSH1 0x1 PUSH1 0xA0 PUSH1 0x2 EXP SUB NOT AND PUSH1 0x1 PUSH1 0xA0 PUSH1 0x2 EXP SUB DUP5 AND OR SWAP1 SSTORE DUP1 MLOAD PUSH3 0x67 SWAP1 PUSH1 0x1 SWAP1 PUSH1 0x20 DUP5 ADD SWAP1 PUSH3 0x70 JUMP JUMPDEST POP POP POP PUSH3 0x26B JUMP JUMPDEST DUP3 DUP1 SLOAD PUSH1 0x1 DUP2 PUSH1 0x1 AND ISZERO PUSH2 0x100 MUL SUB AND PUSH1 0x2 SWAP1 DIV SWAP1 PUSH1 0x0 MSTORE PUSH1 0x20 PUSH1 0x0 KECCAK256 SWAP1 PUSH1 0x1F ADD PUSH1 0x20 SWAP1 DIV DUP2 ADD SWAP3 DUP3 PUSH1 0x1F LT PUSH3 0xB3 JUMPI DUP1 MLOAD PUSH1 0xFF NOT AND DUP4 DUP1 ADD OR DUP6 SSTORE PUSH3 0xE3 JUMP JUMPDEST DUP3 DUP1 ADD PUSH1 0x1 ADD DUP6 SSTORE DUP3 ISZERO PUSH3 0xE3 JUMPI SWAP2 DUP3 ADD JUMPDEST DUP3 DUP2 GT ISZERO PUSH3 0xE3 JUMPI DUP3 MLOAD DUP3 SSTORE SWAP2 PUSH1 0x20 ADD SWAP2 SWAP1 PUSH1 0x1 ADD SWAP1 PUSH3 0xC6 JUMP JUMPDEST POP PUSH3 0xF1 SWAP3 SWAP2 POP PUSH3 0xF5 JUMP JUMPDEST POP SWAP1 JUMP JUMPDEST PUSH3 0x112 SWAP2 SWAP1 JUMPDEST DUP1 DUP3 GT ISZERO PUSH3 0xF1 JUMPI PUSH1 0x0 DUP2 SSTORE PUSH1 0x1 ADD PUSH3 0xFC JUMP JUMPDEST SWAP1 JUMP JUMPDEST PUSH1 0x0 PUSH3 0x123 DUP3 MLOAD PUSH3 0x22C JUMP JUMPDEST SWAP4 SWAP3 POP POP POP JUMP JUMPDEST PUSH1 0x0 PUSH1 0x1F DUP3 ADD DUP4 SGT PUSH3 0x13C JUMPI PUSH1 0x0 DUP1 REVERT JUMPDEST DUP2 MLOAD PUSH3 0x153 PUSH3 0x14D DUP3 PUSH3 0x204 JUMP JUMPDEST PUSH3 0x1DD JUMP JUMPDEST SWAP2 POP DUP1 DUP3 MSTORE PUSH1 0x20 DUP4 ADD PUSH1 0x20 DUP4 ADD DUP6 DUP4 DUP4 ADD GT ISZERO PUSH3 0x170 JUMPI PUSH1 0x0 DUP1 REVERT JUMPDEST PUSH3 0x17D DUP4 DUP3 DUP5 PUSH3 0x238 JUMP JUMPDEST POP POP POP SWAP3 SWAP2 POP POP JUMP JUMPDEST PUSH1 0x0 DUP1 PUSH1 0x40 DUP4 DUP6 SUB SLT ISZERO PUSH3 0x19A JUMPI PUSH1 0x0 DUP1 REVERT JUMPDEST PUSH1 0x0 PUSH3 0x1A8 DUP6 DUP6 PUSH3 0x115 JUMP JUMPDEST SWAP3 POP POP PUSH1 0x20 DUP4 ADD MLOAD PUSH1 0x1 PUSH1 0x40 PUSH1 0x2 EXP SUB DUP2 GT ISZERO PUSH3 0x1C5 JUMPI PUSH1 0x0 DUP1 REVERT JUMPDEST PUSH3 0x1D3 DUP6 DUP3 DUP7 ADD PUSH3 0x12A JUMP JUMPDEST SWAP2 POP POP SWAP3 POP SWAP3 SWAP1 POP JUMP JUMPDEST PUSH1 0x40 MLOAD DUP2 DUP2 ADD PUSH1 0x1 PUSH1 0x40 PUSH1 0x2 EXP SUB DUP2 GT DUP3 DUP3 LT OR ISZERO PUSH3 0x1FC JUMPI PUSH1 0x0 DUP1 REVERT JUMPDEST PUSH1 0x40 MSTORE SWAP2 SWAP1 POP JUMP JUMPDEST PUSH1 0x0 PUSH1 0x1 PUSH1 0x40 PUSH1 0x2 EXP SUB DUP3 GT ISZERO PUSH3 0x21B JUMPI PUSH1 0x0 DUP1 REVERT JUMPDEST POP PUSH1 0x20 PUSH1 0x1F SWAP2 SWAP1 SWAP2 ADD PUSH1 0x1F NOT AND ADD SWAP1 JUMP JUMPDEST PUSH1 0x1 PUSH1 0xA0 PUSH1 0x2 EXP SUB AND SWAP1 JUMP JUMPDEST PUSH1 0x0 JUMPDEST DUP4 DUP2 LT ISZERO PUSH3 0x255 JUMPI DUP2 DUP2 ADD MLOAD DUP4 DUP3 ADD MSTORE PUSH1 0x20 ADD PUSH3 0x23B JUMP JUMPDEST DUP4 DUP2 GT ISZERO PUSH3 0x265 JUMPI PUSH1 0x0 DUP5 DUP5 ADD MSTORE JUMPDEST POP POP POP POP JUMP JUMPDEST PUSH2 0x19D5 DUP1 PUSH3 0x27B PUSH1 0x0 CODECOPY PUSH1 0x0 RETURN STOP PUSH1 0x80 PUSH1 0x40 MSTORE PUSH1 0x4 CALLDATASIZE LT PUSH2 0x82 JUMPI PUSH4 0xFFFFFFFF PUSH29 0x100000000000000000000000000000000000000000000000000000000 PUSH1 0x0 CALLDATALOAD DIV AND PUSH4 0x4AD1E53 DUP2 EQ PUSH2 0x87 JUMPI DUP1 PUSH4 0x2CD0FC73 EQ PUSH2 0xBE JUMPI DUP1 PUSH4 0x4B95DE13 EQ PUSH2 0xEC JUMPI DUP1 PUSH4 0x690D3114 EQ PUSH2 0x11A JUMPI DUP1 PUSH4 0xB6988463 EQ PUSH2 0x147 JUMPI DUP1 PUSH4 0xC6B7F4EE EQ PUSH2 0x174 JUMPI DUP1 PUSH4 0xF241FFB0 EQ PUSH2 0x1A2 JUMPI JUMPDEST PUSH1 0x0 DUP1 REVERT JUMPDEST CALLVALUE DUP1 ISZERO PUSH2 0x93 JUMPI PUSH1 0x0 DUP1 REVERT JUMPDEST POP PUSH2 0xA7 PUSH2 0xA2 CALLDATASIZE PUSH1 0x4 PUSH2 0x11F7 JUMP JUMPDEST PUSH2 0x1CF JUMP JUMPDEST PUSH1 0x40 MLOAD PUSH2 0xB5 SWAP3 SWAP2 SWAP1 PUSH2 0x1800 JUMP JUMPDEST PUSH1 0x40 MLOAD DUP1 SWAP2 SUB SWAP1 RETURN JUMPDEST CALLVALUE DUP1 ISZERO PUSH2 0xCA JUMPI PUSH1 0x0 DUP1 REVERT JUMPDEST POP PUSH2 0xDE PUSH2 0xD9 CALLDATASIZE PUSH1 0x4 PUSH2 0x10AF JUMP JUMPDEST PUSH2 0x29C JUMP JUMPDEST PUSH1 0x40 MLOAD PUSH2 0xB5 SWAP3 SWAP2 SWAP1 PUSH2 0x183C JUMP JUMPDEST CALLVALUE DUP1 ISZERO PUSH2 0xF8 JUMPI PUSH1 0x0 DUP1 REVERT JUMPDEST POP PUSH2 0x10C PUSH2 0x107 CALLDATASIZE PUSH1 0x4 PUSH2 0x115C JUMP JUMPDEST PUSH2 0x6F1 JUMP JUMPDEST PUSH1 0x40 MLOAD PUSH2 0xB5 SWAP3 SWAP2 SWAP1 PUSH2 0x1746 JUMP JUMPDEST CALLVALUE DUP1 ISZERO PUSH2 0x126 JUMPI PUSH1 0x0 DUP1 REVERT JUMPDEST POP PUSH2 0x13A PUSH2 0x135 CALLDATASIZE PUSH1 0x4 PUSH2 0x115C JUMP JUMPDEST PUSH2 0x7C8 JUMP JUMPDEST PUSH1 0x40 MLOAD PUSH2 0xB5 SWAP2 SWAP1 PUSH2 0x177C JUMP JUMPDEST CALLVALUE DUP1 ISZERO PUSH2 0x153 JUMPI PUSH1 0x0 DUP1 REVERT JUMPDEST POP PUSH2 0x167 PUSH2 0x162 CALLDATASIZE PUSH1 0x4 PUSH2 0x10F7 JUMP JUMPDEST PUSH2 0x882 JUMP JUMPDEST PUSH1 0x40 MLOAD PUSH2 0xB5 SWAP2 SWAP1 PUSH2 0x171D JUMP JUMPDEST CALLVALUE DUP1 ISZERO PUSH2 0x180 JUMPI PUSH1 0x0 DUP1 REVERT JUMPDEST POP PUSH2 0x194 PUSH2 0x18F CALLDATASIZE PUSH1 0x4 PUSH2 0x105D JUMP JUMPDEST PUSH2 0x8CD JUMP JUMPDEST PUSH1 0x40 MLOAD PUSH2 0xB5 SWAP3 SWAP2 SWAP1 PUSH2 0x178D JUMP JUMPDEST CALLVALUE DUP1 ISZERO PUSH2 0x1AE JUMPI PUSH1 0x0 DUP1 REVERT JUMPDEST POP PUSH2 0x1C2 PUSH2 0x1BD CALLDATASIZE PUSH1 0x4 PUSH2 0x11F7 JUMP JUMPDEST PUSH2 0x9AA JUMP JUMPDEST PUSH1 0x40 MLOAD PUSH2 0xB5 SWAP2 SWAP1 PUSH2 0x182D JUMP JUMPDEST PUSH2 0x1D7 PUSH2 0xBF4 JUMP JUMPDEST PUSH2 0x1DF PUSH2 0xC14 JUMP JUMPDEST PUSH1 0x0 SLOAD PUSH1 0x40 MLOAD PUSH32 0xC75E0A8100000000000000000000000000000000000000000000000000000000 DUP2 MSTORE PUSH20 0xFFFFFFFFFFFFFFFFFFFFFFFFFFFFFFFFFFFFFFFF SWAP1 SWAP2 AND SWAP1 PUSH4 0xC75E0A81 SWAP1 PUSH2 0x235 SWAP1 DUP8 SWAP1 PUSH1 0x4 ADD PUSH2 0x181C JUMP JUMPDEST PUSH1 0x60 PUSH1 0x40 MLOAD DUP1 DUP4 SUB DUP2 PUSH1 0x0 DUP8 DUP1 EXTCODESIZE ISZERO DUP1 ISZERO PUSH2 0x24F JUMPI PUSH1 0x0 DUP1 REVERT JUMPDEST POP GAS CALL ISZERO DUP1 ISZERO PUSH2 0x263 JUMPI RETURNDATASIZE PUSH1 0x0 DUP1 RETURNDATACOPY RETURNDATASIZE PUSH1 0x0 REVERT JUMPDEST POP POP POP POP PUSH1 0x40 MLOAD RETURNDATASIZE PUSH1 0x1F NOT PUSH1 0x1F DUP3 ADD AND DUP3 ADD DUP1 PUSH1 0x40 MSTORE POP PUSH2 0x287 SWAP2 SWAP1 DUP2 ADD SWAP1 PUSH2 0x11D9 JUMP JUMPDEST SWAP2 POP PUSH2 0x293 DUP5 DUP5 PUSH2 0x9AA JUMP JUMPDEST SWAP1 POP SWAP3 POP SWAP3 SWAP1 POP JUMP JUMPDEST PUSH1 0x0 DUP1 DUP1 DUP1 DUP1 DUP1 DUP1 DUP1 PUSH2 0x2B5 DUP10 DUP3 PUSH4 0xFFFFFFFF PUSH2 0xAC8 AND JUMP JUMPDEST SWAP6 POP PUSH2 0x2C8 DUP10 PUSH1 0x10 PUSH4 0xFFFFFFFF PUSH2 0xB35 AND JUMP JUMPDEST PUSH1 0x0 SLOAD PUSH1 0x40 MLOAD PUSH32 0x6070410800000000000000000000000000000000000000000000000000000000 DUP2 MSTORE SWAP2 SWAP7 POP PUSH20 0xFFFFFFFFFFFFFFFFFFFFFFFFFFFFFFFFFFFFFFFF AND SWAP1 PUSH4 0x60704108 SWAP1 PUSH2 0x31F SWAP1 DUP10 SWAP1 PUSH1 0x4 ADD PUSH2 0x17B2 JUMP JUMPDEST PUSH1 0x20 PUSH1 0x40 MLOAD DUP1 DUP4 SUB DUP2 PUSH1 0x0 DUP8 DUP1 EXTCODESIZE ISZERO DUP1 ISZERO PUSH2 0x339 JUMPI PUSH1 0x0 DUP1 REVERT JUMPDEST POP GAS CALL ISZERO DUP1 ISZERO PUSH2 0x34D JUMPI RETURNDATASIZE PUSH1 0x0 DUP1 RETURNDATACOPY RETURNDATASIZE PUSH1 0x0 REVERT JUMPDEST POP POP POP POP PUSH1 0x40 MLOAD RETURNDATASIZE PUSH1 0x1F NOT PUSH1 0x1F DUP3 ADD AND DUP3 ADD DUP1 PUSH1 0x40 MSTORE POP PUSH2 0x371 SWAP2 SWAP1 DUP2 ADD SWAP1 PUSH2 0x1037 JUMP JUMPDEST PUSH1 0x40 DUP1 MLOAD PUSH32 0x4552433230546F6B656E28616464726573732900000000000000000000000000 DUP2 MSTORE SWAP1 MLOAD SWAP1 DUP2 SWAP1 SUB PUSH1 0x13 ADD SWAP1 KECCAK256 SWAP1 SWAP5 POP PUSH32 0xFFFFFFFF00000000000000000000000000000000000000000000000000000000 DUP8 DUP2 AND SWAP2 AND EQ ISZERO PUSH2 0x526 JUMPI PUSH1 0x40 MLOAD PUSH32 0x70A0823100000000000000000000000000000000000000000000000000000000 DUP2 MSTORE PUSH20 0xFFFFFFFFFFFFFFFFFFFFFFFFFFFFFFFFFFFFFFFF DUP7 AND SWAP1 PUSH4 0x70A08231 SWAP1 PUSH2 0x424 SWAP1 DUP14 SWAP1 PUSH1 0x4 ADD PUSH2 0x171D JUMP JUMPDEST PUSH1 0x20 PUSH1 0x40 MLOAD DUP1 DUP4 SUB DUP2 PUSH1 0x0 DUP8 DUP1 EXTCODESIZE ISZERO DUP1 ISZERO PUSH2 0x43E JUMPI PUSH1 0x0 DUP1 REVERT JUMPDEST POP GAS CALL ISZERO DUP1 ISZERO PUSH2 0x452 JUMPI RETURNDATASIZE PUSH1 0x0 DUP1 RETURNDATACOPY RETURNDATASIZE PUSH1 0x0 REVERT JUMPDEST POP POP POP POP PUSH1 0x40 MLOAD RETURNDATASIZE PUSH1 0x1F NOT PUSH1 0x1F DUP3 ADD AND DUP3 ADD DUP1 PUSH1 0x40 MSTORE POP PUSH2 0x476 SWAP2 SWAP1 DUP2 ADD SWAP1 PUSH2 0x123E JUMP JUMPDEST PUSH1 0x40 MLOAD PUSH32 0xDD62ED3E00000000000000000000000000000000000000000000000000000000 DUP2 MSTORE SWAP1 SWAP9 POP PUSH20 0xFFFFFFFFFFFFFFFFFFFFFFFFFFFFFFFFFFFFFFFF DUP7 AND SWAP1 PUSH4 0xDD62ED3E SWAP1 PUSH2 0x4CD SWAP1 DUP14 SWAP1 DUP9 SWAP1 PUSH1 0x4 ADD PUSH2 0x172B JUMP JUMPDEST PUSH1 0x20 PUSH1 0x40 MLOAD DUP1 DUP4 SUB DUP2 PUSH1 0x0 DUP8 DUP1 EXTCODESIZE ISZERO DUP1 ISZERO PUSH2 0x4E7 JUMPI PUSH1 0x0 DUP1 REVERT JUMPDEST POP GAS CALL ISZERO DUP1 ISZERO PUSH2 0x4FB JUMPI RETURNDATASIZE PUSH1 0x0 DUP1 RETURNDATACOPY RETURNDATASIZE PUSH1 0x0 REVERT JUMPDEST POP POP POP POP PUSH1 0x40 MLOAD RETURNDATASIZE PUSH1 0x1F NOT PUSH1 0x1F DUP3 ADD AND DUP3 ADD DUP1 PUSH1 0x40 MSTORE POP PUSH2 0x51F SWAP2 SWAP1 DUP2 ADD SWAP1 PUSH2 0x123E JUMP JUMPDEST SWAP7 POP PUSH2 0x6E4 JUMP JUMPDEST PUSH1 0x40 DUP1 MLOAD PUSH32 0x455243373231546F6B656E28616464726573732C75696E743235362900000000 DUP2 MSTORE SWAP1 MLOAD SWAP1 DUP2 SWAP1 SUB PUSH1 0x1C ADD SWAP1 KECCAK256 PUSH32 0xFFFFFFFF00000000000000000000000000000000000000000000000000000000 DUP8 DUP2 AND SWAP2 AND EQ ISZERO PUSH2 0x6A9 JUMPI PUSH2 0x595 DUP10 PUSH1 0x24 PUSH4 0xFFFFFFFF PUSH2 0xB96 AND JUMP JUMPDEST SWAP3 POP PUSH2 0x5A1 DUP6 DUP5 PUSH2 0x882 JUMP JUMPDEST SWAP2 POP DUP2 PUSH20 0xFFFFFFFFFFFFFFFFFFFFFFFFFFFFFFFFFFFFFFFF AND DUP11 PUSH20 0xFFFFFFFFFFFFFFFFFFFFFFFFFFFFFFFFFFFFFFFF AND EQ PUSH2 0x5DD JUMPI PUSH1 0x0 PUSH2 0x5E0 JUMP JUMPDEST PUSH1 0x1 JUMPDEST PUSH1 0xFF AND SWAP8 POP DUP5 PUSH20 0xFFFFFFFFFFFFFFFFFFFFFFFFFFFFFFFFFFFFFFFF AND PUSH4 0xE985E9C5 DUP12 DUP7 PUSH1 0x40 MLOAD DUP4 PUSH4 0xFFFFFFFF AND PUSH29 0x100000000000000000000000000000000000000000000000000000000 MUL DUP2 MSTORE PUSH1 0x4 ADD PUSH2 0x63C SWAP3 SWAP2 SWAP1 PUSH2 0x172B JUMP JUMPDEST PUSH1 0x20 PUSH1 0x40 MLOAD DUP1 DUP4 SUB DUP2 PUSH1 0x0 DUP8 DUP1 EXTCODESIZE ISZERO DUP1 ISZERO PUSH2 0x656 JUMPI PUSH1 0x0 DUP1 REVERT JUMPDEST POP GAS CALL ISZERO DUP1 ISZERO PUSH2 0x66A JUMPI RETURNDATASIZE PUSH1 0x0 DUP1 RETURNDATACOPY RETURNDATASIZE PUSH1 0x0 REVERT JUMPDEST POP POP POP POP PUSH1 0x40 MLOAD RETURNDATASIZE PUSH1 0x1F NOT PUSH1 0x1F DUP3 ADD AND DUP3 ADD DUP1 PUSH1 0x40 MSTORE POP PUSH2 0x68E SWAP2 SWAP1 DUP2 ADD SWAP1 PUSH2 0x11BB JUMP JUMPDEST SWAP1 POP DUP1 PUSH2 0x69C JUMPI PUSH1 0x0 PUSH2 0x69F JUMP JUMPDEST PUSH1 0x1 JUMPDEST PUSH1 0xFF AND SWAP7 POP PUSH2 0x6E4 JUMP JUMPDEST PUSH1 0x40 MLOAD PUSH32 0x8C379A000000000000000000000000000000000000000000000000000000000 DUP2 MSTORE PUSH1 0x4 ADD PUSH2 0x6DB SWAP1 PUSH2 0x17D0 JUMP JUMPDEST PUSH1 0x40 MLOAD DUP1 SWAP2 SUB SWAP1 REVERT JUMPDEST POP POP POP POP POP POP SWAP3 POP SWAP3 SWAP1 POP JUMP JUMPDEST PUSH1 0x0 SLOAD PUSH1 0x40 MLOAD PUSH32 0x7E9D74DC00000000000000000000000000000000000000000000000000000000 DUP2 MSTORE PUSH1 0x60 SWAP2 DUP3 SWAP2 PUSH20 0xFFFFFFFFFFFFFFFFFFFFFFFFFFFFFFFFFFFFFFFF SWAP1 SWAP2 AND SWAP1 PUSH4 0x7E9D74DC SWAP1 PUSH2 0x74C SWAP1 DUP8 SWAP1 PUSH1 0x4 ADD PUSH2 0x176B JUMP JUMPDEST PUSH1 0x0 PUSH1 0x40 MLOAD DUP1 DUP4 SUB DUP2 PUSH1 0x0 DUP8 DUP1 EXTCODESIZE ISZERO DUP1 ISZERO PUSH2 0x766 JUMPI PUSH1 0x0 DUP1 REVERT JUMPDEST POP GAS CALL ISZERO DUP1 ISZERO PUSH2 0x77A JUMPI RETURNDATASIZE PUSH1 0x0 DUP1 RETURNDATACOPY RETURNDATASIZE PUSH1 0x0 REVERT JUMPDEST POP POP POP POP PUSH1 0x40 MLOAD RETURNDATASIZE PUSH1 0x0 DUP3 RETURNDATACOPY PUSH1 0x1F RETURNDATASIZE SWAP1 DUP2 ADD PUSH32 0xFFFFFFFFFFFFFFFFFFFFFFFFFFFFFFFFFFFFFFFFFFFFFFFFFFFFFFFFFFFFFFE0 AND DUP3 ADD PUSH1 0x40 MSTORE PUSH2 0x7C0 SWAP2 SWAP1 DUP2 ADD SWAP1 PUSH2 0x1127 JUMP JUMPDEST SWAP2 POP PUSH2 0x293 DUP5 DUP5 JUMPDEST PUSH1 0x60 PUSH1 0x0 PUSH1 0x60 PUSH1 0x0 DUP6 MLOAD SWAP3 POP DUP3 PUSH1 0x40 MLOAD SWAP1 DUP1 DUP3 MSTORE DUP1 PUSH1 0x20 MUL PUSH1 0x20 ADD DUP3 ADD PUSH1 0x40 MSTORE DUP1 ISZERO PUSH2 0x80E JUMPI DUP2 PUSH1 0x20 ADD JUMPDEST PUSH2 0x7FB PUSH2 0xC14 JUMP JUMPDEST DUP2 MSTORE PUSH1 0x20 ADD SWAP1 PUSH1 0x1 SWAP1 SUB SWAP1 DUP2 PUSH2 0x7F3 JUMPI SWAP1 POP JUMPDEST POP SWAP2 POP PUSH1 0x0 SWAP1 POP JUMPDEST DUP1 DUP4 EQ PUSH2 0x875 JUMPI PUSH2 0x855 DUP7 DUP3 DUP2 MLOAD DUP2 LT ISZERO ISZERO PUSH2 0x82E JUMPI INVALID JUMPDEST SWAP1 PUSH1 0x20 ADD SWAP1 PUSH1 0x20 MUL ADD MLOAD DUP7 DUP4 DUP2 MLOAD DUP2 LT ISZERO ISZERO PUSH2 0x846 JUMPI INVALID JUMPDEST SWAP1 PUSH1 0x20 ADD SWAP1 PUSH1 0x20 MUL ADD MLOAD PUSH2 0x9AA JUMP JUMPDEST DUP3 DUP3 DUP2 MLOAD DUP2 LT ISZERO ISZERO PUSH2 0x863 JUMPI INVALID JUMPDEST PUSH1 0x20 SWAP1 DUP2 MUL SWAP1 SWAP2 ADD ADD MSTORE PUSH1 0x1 ADD PUSH2 0x816 JUMP JUMPDEST DUP2 SWAP4 POP JUMPDEST POP POP POP SWAP3 SWAP2 POP POP JUMP JUMPDEST PUSH1 0x0 PUSH1 0x40 MLOAD PUSH32 0x6352211E00000000000000000000000000000000000000000000000000000000 DUP2 MSTORE DUP3 PUSH1 0x4 DUP3 ADD MSTORE PUSH1 0x20 DUP2 PUSH1 0x24 DUP4 DUP8 GAS STATICCALL DUP1 ISZERO PUSH2 0x8C4 JUMPI DUP2 MLOAD SWAP3 POP JUMPDEST POP POP JUMPDEST SWAP3 SWAP2 POP POP JUMP JUMPDEST PUSH1 0x60 DUP1 PUSH1 0x0 PUSH1 0x60 DUP1 PUSH1 0x0 DUP7 MLOAD SWAP4 POP DUP4 PUSH1 0x40 MLOAD SWAP1 DUP1 DUP3 MSTORE DUP1 PUSH1 0x20 MUL PUSH1 0x20 ADD DUP3 ADD PUSH1 0x40 MSTORE DUP1 ISZERO PUSH2 0x905 JUMPI DUP2 PUSH1 0x20 ADD PUSH1 0x20 DUP3 MUL DUP1 CODESIZE DUP4 CODECOPY ADD SWAP1 POP JUMPDEST POP SWAP3 POP DUP4 PUSH1 0x40 MLOAD SWAP1 DUP1 DUP3 MSTORE DUP1 PUSH1 0x20 MUL PUSH1 0x20 ADD DUP3 ADD PUSH1 0x40 MSTORE DUP1 ISZERO PUSH2 0x932 JUMPI DUP2 PUSH1 0x20 ADD PUSH1 0x20 DUP3 MUL DUP1 CODESIZE DUP4 CODECOPY ADD SWAP1 POP JUMPDEST POP SWAP2 POP PUSH1 0x0 SWAP1 POP JUMPDEST DUP1 DUP5 EQ PUSH2 0x99D JUMPI PUSH2 0x962 DUP9 DUP9 DUP4 DUP2 MLOAD DUP2 LT ISZERO ISZERO PUSH2 0x953 JUMPI INVALID JUMPDEST SWAP1 PUSH1 0x20 ADD SWAP1 PUSH1 0x20 MUL ADD MLOAD PUSH2 0x29C JUMP JUMPDEST DUP5 DUP4 DUP2 MLOAD DUP2 LT ISZERO ISZERO PUSH2 0x970 JUMPI INVALID JUMPDEST SWAP1 PUSH1 0x20 ADD SWAP1 PUSH1 0x20 MUL ADD DUP5 DUP5 DUP2 MLOAD DUP2 LT ISZERO ISZERO PUSH2 0x987 JUMPI INVALID JUMPDEST PUSH1 0x20 SWAP1 DUP2 MUL SWAP1 SWAP2 ADD ADD SWAP2 SWAP1 SWAP2 MSTORE MSTORE PUSH1 0x1 ADD PUSH2 0x93A JUMP JUMPDEST POP SWAP1 SWAP7 SWAP1 SWAP6 POP SWAP4 POP POP POP POP JUMP JUMPDEST PUSH2 0x9B2 PUSH2 0xC14 JUMP JUMPDEST PUSH1 0x60 PUSH2 0x9C7 DUP5 PUSH1 0x0 ADD MLOAD DUP6 PUSH2 0x140 ADD MLOAD PUSH2 0x29C JUMP JUMPDEST PUSH1 0x20 DUP5 ADD MSTORE DUP3 MSTORE PUSH2 0x160 DUP5 ADD MLOAD PUSH2 0x9DF SWAP1 DUP5 SWAP1 PUSH2 0x29C JUMP JUMPDEST PUSH1 0x60 DUP5 ADD MSTORE PUSH1 0x40 DUP1 DUP5 ADD SWAP2 SWAP1 SWAP2 MSTORE PUSH1 0x1 DUP1 SLOAD DUP3 MLOAD PUSH1 0x20 PUSH1 0x1F PUSH1 0x2 PUSH32 0xFFFFFFFFFFFFFFFFFFFFFFFFFFFFFFFFFFFFFFFFFFFFFFFFFFFFFFFFFFFFFFFF PUSH2 0x100 DUP7 DUP9 AND ISZERO MUL ADD SWAP1 SWAP5 AND SWAP4 SWAP1 SWAP4 DIV SWAP3 DUP4 ADD DUP2 SWAP1 DIV DUP2 MUL DUP3 ADD DUP2 ADD SWAP1 SWAP5 MSTORE DUP2 DUP2 MSTORE SWAP3 DUP4 ADD DUP3 DUP3 DUP1 ISZERO PUSH2 0xA8E JUMPI DUP1 PUSH1 0x1F LT PUSH2 0xA63 JUMPI PUSH2 0x100 DUP1 DUP4 SLOAD DIV MUL DUP4 MSTORE SWAP2 PUSH1 0x20 ADD SWAP2 PUSH2 0xA8E JUMP JUMPDEST DUP3 ADD SWAP2 SWAP1 PUSH1 0x0 MSTORE PUSH1 0x20 PUSH1 0x0 KECCAK256 SWAP1 JUMPDEST DUP2 SLOAD DUP2 MSTORE SWAP1 PUSH1 0x1 ADD SWAP1 PUSH1 0x20 ADD DUP1 DUP4 GT PUSH2 0xA71 JUMPI DUP3 SWAP1 SUB PUSH1 0x1F AND DUP3 ADD SWAP2 JUMPDEST POP POP POP POP POP SWAP1 POP PUSH2 0xAA3 DUP5 PUSH1 0x0 ADD MLOAD DUP3 PUSH2 0x29C JUMP JUMPDEST PUSH1 0xA0 DUP5 ADD MSTORE PUSH1 0x80 DUP4 ADD MSTORE PUSH2 0xAB7 DUP4 DUP3 PUSH2 0x29C JUMP JUMPDEST PUSH1 0xE0 DUP5 ADD MSTORE PUSH1 0xC0 DUP4 ADD MSTORE POP SWAP3 SWAP2 POP POP JUMP JUMPDEST PUSH1 0x0 DUP2 PUSH1 0x4 ADD DUP4 MLOAD LT ISZERO ISZERO ISZERO PUSH2 0xB0A JUMPI PUSH1 0x40 MLOAD PUSH32 0x8C379A000000000000000000000000000000000000000000000000000000000 DUP2 MSTORE PUSH1 0x4 ADD PUSH2 0x6DB SWAP1 PUSH2 0x17F0 JUMP JUMPDEST POP ADD PUSH1 0x20 ADD MLOAD PUSH32 0xFFFFFFFF00000000000000000000000000000000000000000000000000000000 AND SWAP1 JUMP JUMPDEST PUSH1 0x0 DUP2 PUSH1 0x14 ADD DUP4 MLOAD LT ISZERO ISZERO ISZERO PUSH2 0xB77 JUMPI PUSH1 0x40 MLOAD PUSH32 0x8C379A000000000000000000000000000000000000000000000000000000000 DUP2 MSTORE PUSH1 0x4 ADD PUSH2 0x6DB SWAP1 PUSH2 0x17E0 JUMP JUMPDEST POP ADD PUSH1 0x14 ADD MLOAD PUSH20 0xFFFFFFFFFFFFFFFFFFFFFFFFFFFFFFFFFFFFFFFF AND SWAP1 JUMP JUMPDEST PUSH1 0x0 PUSH2 0xBA2 DUP4 DUP4 PUSH2 0xBA9 JUMP JUMPDEST SWAP4 SWAP3 POP POP POP JUMP JUMPDEST PUSH1 0x0 DUP2 PUSH1 0x20 ADD DUP4 MLOAD LT ISZERO ISZERO ISZERO PUSH2 0xBEB JUMPI PUSH1 0x40 MLOAD PUSH32 0x8C379A000000000000000000000000000000000000000000000000000000000 DUP2 MSTORE PUSH1 0x4 ADD PUSH2 0x6DB SWAP1 PUSH2 0x17C0 JUMP JUMPDEST POP ADD PUSH1 0x20 ADD MLOAD SWAP1 JUMP JUMPDEST PUSH1 0x40 DUP1 MLOAD PUSH1 0x60 DUP2 ADD DUP3 MSTORE PUSH1 0x0 DUP1 DUP3 MSTORE PUSH1 0x20 DUP3 ADD DUP2 SWAP1 MSTORE SWAP2 DUP2 ADD SWAP2 SWAP1 SWAP2 MSTORE SWAP1 JUMP JUMPDEST PUSH2 0x100 PUSH1 0x40 MLOAD SWAP1 DUP2 ADD PUSH1 0x40 MSTORE DUP1 PUSH1 0x0 DUP2 MSTORE PUSH1 0x20 ADD PUSH1 0x0 DUP2 MSTORE PUSH1 0x20 ADD PUSH1 0x0 DUP2 MSTORE PUSH1 0x20 ADD PUSH1 0x0 DUP2 MSTORE PUSH1 0x20 ADD PUSH1 0x0 DUP2 MSTORE PUSH1 0x20 ADD PUSH1 0x0 DUP2 MSTORE PUSH1 0x20 ADD PUSH1 0x0 DUP2 MSTORE PUSH1 0x20 ADD PUSH1 0x0 DUP2 MSTORE POP SWAP1 JUMP JUMPDEST PUSH1 0x0 PUSH2 0xBA2 DUP3 CALLDATALOAD PUSH2 0x18EF JUMP JUMPDEST PUSH1 0x0 PUSH2 0xBA2 DUP3 MLOAD PUSH2 0x18EF JUMP JUMPDEST PUSH1 0x0 PUSH1 0x1F DUP3 ADD DUP4 SGT PUSH2 0xC83 JUMPI PUSH1 0x0 DUP1 REVERT JUMPDEST DUP2 CALLDATALOAD PUSH2 0xC96 PUSH2 0xC91 DUP3 PUSH2 0x187E JUMP JUMPDEST PUSH2 0x1857 JUMP JUMPDEST SWAP2 POP DUP2 DUP2 DUP4 MSTORE PUSH1 0x20 DUP5 ADD SWAP4 POP PUSH1 0x20 DUP2 ADD SWAP1 POP DUP4 DUP6 PUSH1 0x20 DUP5 MUL DUP3 ADD GT ISZERO PUSH2 0xCBB JUMPI PUSH1 0x0 DUP1 REVERT JUMPDEST PUSH1 0x0 JUMPDEST DUP4 DUP2 LT ISZERO PUSH2 0xCE7 JUMPI DUP2 PUSH2 0xCD1 DUP9 DUP3 PUSH2 0xC5A JUMP JUMPDEST DUP5 MSTORE POP PUSH1 0x20 SWAP3 DUP4 ADD SWAP3 SWAP2 SWAP1 SWAP2 ADD SWAP1 PUSH1 0x1 ADD PUSH2 0xCBE JUMP JUMPDEST POP POP POP POP SWAP3 SWAP2 POP POP JUMP JUMPDEST PUSH1 0x0 PUSH1 0x1F DUP3 ADD DUP4 SGT PUSH2 0xD02 JUMPI PUSH1 0x0 DUP1 REVERT JUMPDEST DUP2 CALLDATALOAD PUSH2 0xD10 PUSH2 0xC91 DUP3 PUSH2 0x187E JUMP JUMPDEST DUP2 DUP2 MSTORE PUSH1 0x20 SWAP4 DUP5 ADD SWAP4 SWAP1 SWAP3 POP DUP3 ADD DUP4 PUSH1 0x0 JUMPDEST DUP4 DUP2 LT ISZERO PUSH2 0xCE7 JUMPI DUP2 CALLDATALOAD DUP7 ADD PUSH2 0xD38 DUP9 DUP3 PUSH2 0xE35 JUMP JUMPDEST DUP5 MSTORE POP PUSH1 0x20 SWAP3 DUP4 ADD SWAP3 SWAP2 SWAP1 SWAP2 ADD SWAP1 PUSH1 0x1 ADD PUSH2 0xD22 JUMP JUMPDEST PUSH1 0x0 PUSH1 0x1F DUP3 ADD DUP4 SGT PUSH2 0xD5F JUMPI PUSH1 0x0 DUP1 REVERT JUMPDEST DUP2 MLOAD PUSH2 0xD6D PUSH2 0xC91 DUP3 PUSH2 0x187E JUMP JUMPDEST SWAP2 POP DUP2 DUP2 DUP4 MSTORE PUSH1 0x20 DUP5 ADD SWAP4 POP PUSH1 0x20 DUP2 ADD SWAP1 POP DUP4 DUP6 PUSH1 0x60 DUP5 MUL DUP3 ADD GT ISZERO PUSH2 0xD92 JUMPI PUSH1 0x0 DUP1 REVERT JUMPDEST PUSH1 0x0 JUMPDEST DUP4 DUP2 LT ISZERO PUSH2 0xCE7 JUMPI DUP2 PUSH2 0xDA8 DUP9 DUP3 PUSH2 0xE7B JUMP JUMPDEST DUP5 MSTORE POP PUSH1 0x20 SWAP1 SWAP3 ADD SWAP2 PUSH1 0x60 SWAP2 SWAP1 SWAP2 ADD SWAP1 PUSH1 0x1 ADD PUSH2 0xD95 JUMP JUMPDEST PUSH1 0x0 PUSH1 0x1F DUP3 ADD DUP4 SGT PUSH2 0xDD1 JUMPI PUSH1 0x0 DUP1 REVERT JUMPDEST DUP2 CALLDATALOAD PUSH2 0xDDF PUSH2 0xC91 DUP3 PUSH2 0x187E JUMP JUMPDEST DUP2 DUP2 MSTORE PUSH1 0x20 SWAP4 DUP5 ADD SWAP4 SWAP1 SWAP3 POP DUP3 ADD DUP4 PUSH1 0x0 JUMPDEST DUP4 DUP2 LT ISZERO PUSH2 0xCE7 JUMPI DUP2 CALLDATALOAD DUP7 ADD PUSH2 0xE07 DUP9 DUP3 PUSH2 0xED6 JUMP JUMPDEST DUP5 MSTORE POP PUSH1 0x20 SWAP3 DUP4 ADD SWAP3 SWAP2 SWAP1 SWAP2 ADD SWAP1 PUSH1 0x1 ADD PUSH2 0xDF1 JUMP JUMPDEST PUSH1 0x0 PUSH2 0xBA2 DUP3 MLOAD PUSH2 0x1936 JUMP JUMPDEST PUSH1 0x0 PUSH2 0xBA2 DUP3 MLOAD PUSH2 0x1908 JUMP JUMPDEST PUSH1 0x0 PUSH1 0x1F DUP3 ADD DUP4 SGT PUSH2 0xE46 JUMPI PUSH1 0x0 DUP1 REVERT JUMPDEST DUP2 CALLDATALOAD PUSH2 0xE54 PUSH2 0xC91 DUP3 PUSH2 0x189F JUMP JUMPDEST SWAP2 POP DUP1 DUP3 MSTORE PUSH1 0x20 DUP4 ADD PUSH1 0x20 DUP4 ADD DUP6 DUP4 DUP4 ADD GT ISZERO PUSH2 0xE70 JUMPI PUSH1 0x0 DUP1 REVERT JUMPDEST PUSH2 0x879 DUP4 DUP3 DUP5 PUSH2 0x193B JUMP JUMPDEST PUSH1 0x0 PUSH1 0x60 DUP3 DUP5 SUB SLT ISZERO PUSH2 0xE8D JUMPI PUSH1 0x0 DUP1 REVERT JUMPDEST PUSH2 0xE97 PUSH1 0x60 PUSH2 0x1857 JUMP JUMPDEST SWAP1 POP PUSH1 0x0 PUSH2 0xEA5 DUP5 DUP5 PUSH2 0x102B JUMP JUMPDEST DUP3 MSTORE POP PUSH1 0x20 PUSH2 0xEB6 DUP5 DUP5 DUP4 ADD PUSH2 0xE29 JUMP JUMPDEST PUSH1 0x20 DUP4 ADD MSTORE POP PUSH1 0x40 PUSH2 0xECA DUP5 DUP3 DUP6 ADD PUSH2 0xE29 JUMP JUMPDEST PUSH1 0x40 DUP4 ADD MSTORE POP SWAP3 SWAP2 POP POP JUMP JUMPDEST PUSH1 0x0 PUSH2 0x180 DUP3 DUP5 SUB SLT ISZERO PUSH2 0xEE9 JUMPI PUSH1 0x0 DUP1 REVERT JUMPDEST PUSH2 0xEF4 PUSH2 0x180 PUSH2 0x1857 JUMP JUMPDEST SWAP1 POP PUSH1 0x0 PUSH2 0xF02 DUP5 DUP5 PUSH2 0xC5A JUMP JUMPDEST DUP3 MSTORE POP PUSH1 0x20 PUSH2 0xF13 DUP5 DUP5 DUP4 ADD PUSH2 0xC5A JUMP JUMPDEST PUSH1 0x20 DUP4 ADD MSTORE POP PUSH1 0x40 PUSH2 0xF27 DUP5 DUP3 DUP6 ADD PUSH2 0xC5A JUMP JUMPDEST PUSH1 0x40 DUP4 ADD MSTORE POP PUSH1 0x60 PUSH2 0xF3B DUP5 DUP3 DUP6 ADD PUSH2 0xC5A JUMP JUMPDEST PUSH1 0x60 DUP4 ADD MSTORE POP PUSH1 0x80 PUSH2 0xF4F DUP5 DUP3 DUP6 ADD PUSH2 0x101F JUMP JUMPDEST PUSH1 0x80 DUP4 ADD MSTORE POP PUSH1 0xA0 PUSH2 0xF63 DUP5 DUP3 DUP6 ADD PUSH2 0x101F JUMP JUMPDEST PUSH1 0xA0 DUP4 ADD MSTORE POP PUSH1 0xC0 PUSH2 0xF77 DUP5 DUP3 DUP6 ADD PUSH2 0x101F JUMP JUMPDEST PUSH1 0xC0 DUP4 ADD MSTORE POP PUSH1 0xE0 PUSH2 0xF8B DUP5 DUP3 DUP6 ADD PUSH2 0x101F JUMP JUMPDEST PUSH1 0xE0 DUP4 ADD MSTORE POP PUSH2 0x100 PUSH2 0xFA0 DUP5 DUP3 DUP6 ADD PUSH2 0x101F JUMP JUMPDEST PUSH2 0x100 DUP4 ADD MSTORE POP PUSH2 0x120 PUSH2 0xFB6 DUP5 DUP3 DUP6 ADD PUSH2 0x101F JUMP JUMPDEST PUSH2 0x120 DUP4 ADD MSTORE POP PUSH2 0x140 DUP3 ADD CALLDATALOAD PUSH8 0xFFFFFFFFFFFFFFFF DUP2 GT ISZERO PUSH2 0xFD8 JUMPI PUSH1 0x0 DUP1 REVERT JUMPDEST PUSH2 0xFE4 DUP5 DUP3 DUP6 ADD PUSH2 0xE35 JUMP JUMPDEST PUSH2 0x140 DUP4 ADD MSTORE POP PUSH2 0x160 DUP3 ADD CALLDATALOAD PUSH8 0xFFFFFFFFFFFFFFFF DUP2 GT ISZERO PUSH2 0x1006 JUMPI PUSH1 0x0 DUP1 REVERT JUMPDEST PUSH2 0x1012 DUP5 DUP3 DUP6 ADD PUSH2 0xE35 JUMP JUMPDEST PUSH2 0x160 DUP4 ADD MSTORE POP SWAP3 SWAP2 POP POP JUMP JUMPDEST PUSH1 0x0 PUSH2 0xBA2 DUP3 CALLDATALOAD PUSH2 0x1908 JUMP JUMPDEST PUSH1 0x0 PUSH2 0xBA2 DUP3 MLOAD PUSH2 0x1930 JUMP JUMPDEST PUSH1 0x0 PUSH1 0x20 DUP3 DUP5 SUB SLT ISZERO PUSH2 0x1049 JUMPI PUSH1 0x0 DUP1 REVERT JUMPDEST PUSH1 0x0 PUSH2 0x1055 DUP5 DUP5 PUSH2 0xC66 JUMP JUMPDEST SWAP5 SWAP4 POP POP POP POP JUMP JUMPDEST PUSH1 0x0 DUP1 PUSH1 0x40 DUP4 DUP6 SUB SLT ISZERO PUSH2 0x1070 JUMPI PUSH1 0x0 DUP1 REVERT JUMPDEST PUSH1 0x0 PUSH2 0x107C DUP6 DUP6 PUSH2 0xC5A JUMP JUMPDEST SWAP3 POP POP PUSH1 0x20 DUP4 ADD CALLDATALOAD PUSH8 0xFFFFFFFFFFFFFFFF DUP2 GT ISZERO PUSH2 0x1099 JUMPI PUSH1 0x0 DUP1 REVERT JUMPDEST PUSH2 0x10A5 DUP6 DUP3 DUP7 ADD PUSH2 0xCF1 JUMP JUMPDEST SWAP2 POP POP SWAP3 POP SWAP3 SWAP1 POP JUMP JUMPDEST PUSH1 0x0 DUP1 PUSH1 0x40 DUP4 DUP6 SUB SLT ISZERO PUSH2 0x10C2 JUMPI PUSH1 0x0 DUP1 REVERT JUMPDEST PUSH1 0x0 PUSH2 0x10CE DUP6 DUP6 PUSH2 0xC5A JUMP JUMPDEST SWAP3 POP POP PUSH1 0x20 DUP4 ADD CALLDATALOAD PUSH8 0xFFFFFFFFFFFFFFFF DUP2 GT ISZERO PUSH2 0x10EB JUMPI PUSH1 0x0 DUP1 REVERT JUMPDEST PUSH2 0x10A5 DUP6 DUP3 DUP7 ADD PUSH2 0xE35 JUMP JUMPDEST PUSH1 0x0 DUP1 PUSH1 0x40 DUP4 DUP6 SUB SLT ISZERO PUSH2 0x110A JUMPI PUSH1 0x0 DUP1 REVERT JUMPDEST PUSH1 0x0 PUSH2 0x1116 DUP6 DUP6 PUSH2 0xC5A JUMP JUMPDEST SWAP3 POP POP PUSH1 0x20 PUSH2 0x10A5 DUP6 DUP3 DUP7 ADD PUSH2 0x101F JUMP JUMPDEST PUSH1 0x0 PUSH1 0x20 DUP3 DUP5 SUB SLT ISZERO PUSH2 0x1139 JUMPI PUSH1 0x0 DUP1 REVERT JUMPDEST DUP2 MLOAD PUSH8 0xFFFFFFFFFFFFFFFF DUP2 GT ISZERO PUSH2 0x1150 JUMPI PUSH1 0x0 DUP1 REVERT JUMPDEST PUSH2 0x1055 DUP5 DUP3 DUP6 ADD PUSH2 0xD4E JUMP JUMPDEST PUSH1 0x0 DUP1 PUSH1 0x40 DUP4 DUP6 SUB SLT ISZERO PUSH2 0x116F JUMPI PUSH1 0x0 DUP1 REVERT JUMPDEST DUP3 CALLDATALOAD PUSH8 0xFFFFFFFFFFFFFFFF DUP2 GT ISZERO PUSH2 0x1186 JUMPI PUSH1 0x0 DUP1 REVERT JUMPDEST PUSH2 0x1192 DUP6 DUP3 DUP7 ADD PUSH2 0xDC0 JUMP JUMPDEST SWAP3 POP POP PUSH1 0x20 DUP4 ADD CALLDATALOAD PUSH8 0xFFFFFFFFFFFFFFFF DUP2 GT ISZERO PUSH2 0x11AF JUMPI PUSH1 0x0 DUP1 REVERT JUMPDEST PUSH2 0x10A5 DUP6 DUP3 DUP7 ADD PUSH2 0xC72 JUMP JUMPDEST PUSH1 0x0 PUSH1 0x20 DUP3 DUP5 SUB SLT ISZERO PUSH2 0x11CD JUMPI PUSH1 0x0 DUP1 REVERT JUMPDEST PUSH1 0x0 PUSH2 0x1055 DUP5 DUP5 PUSH2 0xE1D JUMP JUMPDEST PUSH1 0x0 PUSH1 0x60 DUP3 DUP5 SUB SLT ISZERO PUSH2 0x11EB JUMPI PUSH1 0x0 DUP1 REVERT JUMPDEST PUSH1 0x0 PUSH2 0x1055 DUP5 DUP5 PUSH2 0xE7B JUMP JUMPDEST PUSH1 0x0 DUP1 PUSH1 0x40 DUP4 DUP6 SUB SLT ISZERO PUSH2 0x120A JUMPI PUSH1 0x0 DUP1 REVERT JUMPDEST DUP3 CALLDATALOAD PUSH8 0xFFFFFFFFFFFFFFFF DUP2 GT ISZERO PUSH2 0x1221 JUMPI PUSH1 0x0 DUP1 REVERT JUMPDEST PUSH2 0x122D DUP6 DUP3 DUP7 ADD PUSH2 0xED6 JUMP JUMPDEST SWAP3 POP POP PUSH1 0x20 PUSH2 0x10A5 DUP6 DUP3 DUP7 ADD PUSH2 0xC5A JUMP JUMPDEST PUSH1 0x0 PUSH1 0x20 DUP3 DUP5 SUB SLT ISZERO PUSH2 0x1250 JUMPI PUSH1 0x0 DUP1 REVERT JUMPDEST PUSH1 0x0 PUSH2 0x1055 DUP5 DUP5 PUSH2 0xE29 JUMP JUMPDEST PUSH2 0x1265 DUP2 PUSH2 0x18EF JUMP JUMPDEST DUP3 MSTORE POP POP JUMP JUMPDEST PUSH1 0x0 PUSH2 0x1276 DUP3 PUSH2 0x18EB JUMP JUMPDEST DUP1 DUP5 MSTORE PUSH1 0x20 DUP5 ADD SWAP4 POP PUSH2 0x1288 DUP4 PUSH2 0x18E5 JUMP JUMPDEST PUSH1 0x0 JUMPDEST DUP3 DUP2 LT ISZERO PUSH2 0x12B8 JUMPI PUSH2 0x129E DUP7 DUP4 MLOAD PUSH2 0x153D JUMP JUMPDEST PUSH2 0x12A7 DUP3 PUSH2 0x18E5 JUMP JUMPDEST PUSH1 0x60 SWAP7 SWAP1 SWAP7 ADD SWAP6 SWAP2 POP PUSH1 0x1 ADD PUSH2 0x128B JUMP JUMPDEST POP SWAP4 SWAP5 SWAP4 POP POP POP POP JUMP JUMPDEST PUSH1 0x0 PUSH2 0x12CD DUP3 PUSH2 0x18EB JUMP JUMPDEST DUP1 DUP5 MSTORE PUSH1 0x20 DUP5 ADD SWAP4 POP DUP4 PUSH1 0x20 DUP3 MUL DUP6 ADD PUSH2 0x12E6 DUP6 PUSH2 0x18E5 JUMP JUMPDEST PUSH1 0x0 JUMPDEST DUP5 DUP2 LT ISZERO PUSH2 0x131D JUMPI DUP4 DUP4 SUB DUP9 MSTORE PUSH2 0x1301 DUP4 DUP4 MLOAD PUSH2 0x157A JUMP JUMPDEST SWAP3 POP PUSH2 0x130C DUP3 PUSH2 0x18E5 JUMP JUMPDEST PUSH1 0x20 SWAP9 SWAP1 SWAP9 ADD SWAP8 SWAP2 POP PUSH1 0x1 ADD PUSH2 0x12E9 JUMP JUMPDEST POP SWAP1 SWAP7 SWAP6 POP POP POP POP POP POP JUMP JUMPDEST PUSH1 0x0 PUSH2 0x1334 DUP3 PUSH2 0x18EB JUMP JUMPDEST DUP1 DUP5 MSTORE PUSH1 0x20 DUP5 ADD SWAP4 POP PUSH2 0x1346 DUP4 PUSH2 0x18E5 JUMP JUMPDEST PUSH1 0x0 JUMPDEST DUP3 DUP2 LT ISZERO PUSH2 0x12B8 JUMPI PUSH2 0x135C DUP7 DUP4 MLOAD PUSH2 0x167D JUMP JUMPDEST PUSH2 0x1365 DUP3 PUSH2 0x18E5 JUMP JUMPDEST PUSH2 0x100 SWAP7 SWAP1 SWAP7 ADD SWAP6 SWAP2 POP PUSH1 0x1 ADD PUSH2 0x1349 JUMP JUMPDEST PUSH1 0x0 PUSH2 0x1382 DUP3 PUSH2 0x18EB JUMP JUMPDEST DUP1 DUP5 MSTORE PUSH1 0x20 DUP5 ADD SWAP4 POP PUSH2 0x1394 DUP4 PUSH2 0x18E5 JUMP JUMPDEST PUSH1 0x0 JUMPDEST DUP3 DUP2 LT ISZERO PUSH2 0x12B8 JUMPI PUSH2 0x13AA DUP7 DUP4 MLOAD PUSH2 0x13C4 JUMP JUMPDEST PUSH2 0x13B3 DUP3 PUSH2 0x18E5 JUMP JUMPDEST PUSH1 0x20 SWAP7 SWAP1 SWAP7 ADD SWAP6 SWAP2 POP PUSH1 0x1 ADD PUSH2 0x1397 JUMP JUMPDEST PUSH2 0x1265 DUP2 PUSH2 0x1908 JUMP JUMPDEST PUSH2 0x1265 DUP2 PUSH2 0x190B JUMP JUMPDEST PUSH1 0x0 PUSH2 0x13E1 DUP3 PUSH2 0x18EB JUMP JUMPDEST DUP1 DUP5 MSTORE PUSH2 0x13F5 DUP2 PUSH1 0x20 DUP7 ADD PUSH1 0x20 DUP7 ADD PUSH2 0x1947 JUMP JUMPDEST PUSH2 0x13FE DUP2 PUSH2 0x1973 JUMP JUMPDEST SWAP1 SWAP4 ADD PUSH1 0x20 ADD SWAP4 SWAP3 POP POP POP JUMP JUMPDEST PUSH1 0x26 DUP2 MSTORE PUSH32 0x475245415445525F4F525F455155414C5F544F5F33325F4C454E4754485F5245 PUSH1 0x20 DUP3 ADD MSTORE PUSH32 0x5155495245440000000000000000000000000000000000000000000000000000 PUSH1 0x40 DUP3 ADD MSTORE PUSH1 0x60 ADD SWAP1 JUMP JUMPDEST PUSH1 0x17 DUP2 MSTORE PUSH32 0x554E535550504F525445445F41535345545F50524F5859000000000000000000 PUSH1 0x20 DUP3 ADD MSTORE PUSH1 0x40 ADD SWAP1 JUMP JUMPDEST PUSH1 0x26 DUP2 MSTORE PUSH32 0x475245415445525F4F525F455155414C5F544F5F32305F4C454E4754485F5245 PUSH1 0x20 DUP3 ADD MSTORE PUSH32 0x5155495245440000000000000000000000000000000000000000000000000000 PUSH1 0x40 DUP3 ADD MSTORE PUSH1 0x60 ADD SWAP1 JUMP JUMPDEST PUSH1 0x25 DUP2 MSTORE PUSH32 0x475245415445525F4F525F455155414C5F544F5F345F4C454E4754485F524551 PUSH1 0x20 DUP3 ADD MSTORE PUSH32 0x5549524544000000000000000000000000000000000000000000000000000000 PUSH1 0x40 DUP3 ADD MSTORE PUSH1 0x60 ADD SWAP1 JUMP JUMPDEST DUP1 MLOAD PUSH1 0x60 DUP4 ADD SWAP1 PUSH2 0x154E DUP5 DUP3 PUSH2 0x1714 JUMP JUMPDEST POP PUSH1 0x20 DUP3 ADD MLOAD PUSH2 0x1561 PUSH1 0x20 DUP6 ADD DUP3 PUSH2 0x13C4 JUMP JUMPDEST POP PUSH1 0x40 DUP3 ADD MLOAD PUSH2 0x1574 PUSH1 0x40 DUP6 ADD DUP3 PUSH2 0x13C4 JUMP JUMPDEST POP POP POP POP JUMP JUMPDEST DUP1 MLOAD PUSH1 0x0 SWAP1 PUSH2 0x180 DUP5 ADD SWAP1 PUSH2 0x158F DUP6 DUP3 PUSH2 0x125C JUMP JUMPDEST POP PUSH1 0x20 DUP4 ADD MLOAD PUSH2 0x15A2 PUSH1 0x20 DUP7 ADD DUP3 PUSH2 0x125C JUMP JUMPDEST POP PUSH1 0x40 DUP4 ADD MLOAD PUSH2 0x15B5 PUSH1 0x40 DUP7 ADD DUP3 PUSH2 0x125C JUMP JUMPDEST POP PUSH1 0x60 DUP4 ADD MLOAD PUSH2 0x15C8 PUSH1 0x60 DUP7 ADD DUP3 PUSH2 0x125C JUMP JUMPDEST POP PUSH1 0x80 DUP4 ADD MLOAD PUSH2 0x15DB PUSH1 0x80 DUP7 ADD DUP3 PUSH2 0x13C4 JUMP JUMPDEST POP PUSH1 0xA0 DUP4 ADD MLOAD PUSH2 0x15EE PUSH1 0xA0 DUP7 ADD DUP3 PUSH2 0x13C4 JUMP JUMPDEST POP PUSH1 0xC0 DUP4 ADD MLOAD PUSH2 0x1601 PUSH1 0xC0 DUP7 ADD DUP3 PUSH2 0x13C4 JUMP JUMPDEST POP PUSH1 0xE0 DUP4 ADD MLOAD PUSH2 0x1614 PUSH1 0xE0 DUP7 ADD DUP3 PUSH2 0x13C4 JUMP JUMPDEST POP PUSH2 0x100 DUP4 ADD MLOAD PUSH2 0x1629 PUSH2 0x100 DUP7 ADD DUP3 PUSH2 0x13C4 JUMP JUMPDEST POP PUSH2 0x120 DUP4 ADD MLOAD PUSH2 0x163E PUSH2 0x120 DUP7 ADD DUP3 PUSH2 0x13C4 JUMP JUMPDEST POP PUSH2 0x140 DUP4 ADD MLOAD DUP5 DUP3 SUB PUSH2 0x140 DUP7 ADD MSTORE PUSH2 0x1658 DUP3 DUP3 PUSH2 0x13D6 JUMP JUMPDEST SWAP2 POP POP PUSH2 0x160 DUP4 ADD MLOAD DUP5 DUP3 SUB PUSH2 0x160 DUP7 ADD MSTORE PUSH2 0x1674 DUP3 DUP3 PUSH2 0x13D6 JUMP JUMPDEST SWAP6 SWAP5 POP POP POP POP POP JUMP JUMPDEST DUP1 MLOAD PUSH2 0x100 DUP4 ADD SWAP1 PUSH2 0x168F DUP5 DUP3 PUSH2 0x13C4 JUMP JUMPDEST POP PUSH1 0x20 DUP3 ADD MLOAD PUSH2 0x16A2 PUSH1 0x20 DUP6 ADD DUP3 PUSH2 0x13C4 JUMP JUMPDEST POP PUSH1 0x40 DUP3 ADD MLOAD PUSH2 0x16B5 PUSH1 0x40 DUP6 ADD DUP3 PUSH2 0x13C4 JUMP JUMPDEST POP PUSH1 0x60 DUP3 ADD MLOAD PUSH2 0x16C8 PUSH1 0x60 DUP6 ADD DUP3 PUSH2 0x13C4 JUMP JUMPDEST POP PUSH1 0x80 DUP3 ADD MLOAD PUSH2 0x16DB PUSH1 0x80 DUP6 ADD DUP3 PUSH2 0x13C4 JUMP JUMPDEST POP PUSH1 0xA0 DUP3 ADD MLOAD PUSH2 0x16EE PUSH1 0xA0 DUP6 ADD DUP3 PUSH2 0x13C4 JUMP JUMPDEST POP PUSH1 0xC0 DUP3 ADD MLOAD PUSH2 0x1701 PUSH1 0xC0 DUP6 ADD DUP3 PUSH2 0x13C4 JUMP JUMPDEST POP PUSH1 0xE0 DUP3 ADD MLOAD PUSH2 0x1574 PUSH1 0xE0 DUP6 ADD DUP3 PUSH2 0x13C4 JUMP JUMPDEST PUSH2 0x1265 DUP2 PUSH2 0x1930 JUMP JUMPDEST PUSH1 0x20 DUP2 ADD PUSH2 0x8C7 DUP3 DUP5 PUSH2 0x125C JUMP JUMPDEST PUSH1 0x40 DUP2 ADD PUSH2 0x1739 DUP3 DUP6 PUSH2 0x125C JUMP JUMPDEST PUSH2 0xBA2 PUSH1 0x20 DUP4 ADD DUP5 PUSH2 0x125C JUMP JUMPDEST PUSH1 0x40 DUP1 DUP3 MSTORE DUP2 ADD PUSH2 0x1757 DUP2 DUP6 PUSH2 0x126B JUMP JUMPDEST SWAP1 POP DUP2 DUP2 SUB PUSH1 0x20 DUP4 ADD MSTORE PUSH2 0x1055 DUP2 DUP5 PUSH2 0x1329 JUMP JUMPDEST PUSH1 0x20 DUP1 DUP3 MSTORE DUP2 ADD PUSH2 0xBA2 DUP2 DUP5 PUSH2 0x12C2 JUMP JUMPDEST PUSH1 0x20 DUP1 DUP3 MSTORE DUP2 ADD PUSH2 0xBA2 DUP2 DUP5 PUSH2 0x1329 JUMP JUMPDEST PUSH1 0x40 DUP1 DUP3 MSTORE DUP2 ADD PUSH2 0x179E DUP2 DUP6 PUSH2 0x1377 JUMP JUMPDEST SWAP1 POP DUP2 DUP2 SUB PUSH1 0x20 DUP4 ADD MSTORE PUSH2 0x1055 DUP2 DUP5 PUSH2 0x1377 JUMP JUMPDEST PUSH1 0x20 DUP2 ADD PUSH2 0x8C7 DUP3 DUP5 PUSH2 0x13CD JUMP JUMPDEST PUSH1 0x20 DUP1 DUP3 MSTORE DUP2 ADD PUSH2 0x8C7 DUP2 PUSH2 0x140B JUMP JUMPDEST PUSH1 0x20 DUP1 DUP3 MSTORE DUP2 ADD PUSH2 0x8C7 DUP2 PUSH2 0x1461 JUMP JUMPDEST PUSH1 0x20 DUP1 DUP3 MSTORE DUP2 ADD PUSH2 0x8C7 DUP2 PUSH2 0x1491 JUMP JUMPDEST PUSH1 0x20 DUP1 DUP3 MSTORE DUP2 ADD PUSH2 0x8C7 DUP2 PUSH2 0x14E7 JUMP JUMPDEST PUSH2 0x160 DUP2 ADD PUSH2 0x180F DUP3 DUP6 PUSH2 0x153D JUMP JUMPDEST PUSH2 0xBA2 PUSH1 0x60 DUP4 ADD DUP5 PUSH2 0x167D JUMP JUMPDEST PUSH1 0x20 DUP1 DUP3 MSTORE DUP2 ADD PUSH2 0xBA2 DUP2 DUP5 PUSH2 0x157A JUMP JUMPDEST PUSH2 0x100 DUP2 ADD PUSH2 0x8C7 DUP3 DUP5 PUSH2 0x167D JUMP JUMPDEST PUSH1 0x40 DUP2 ADD PUSH2 0x184A DUP3 DUP6 PUSH2 0x13C4 JUMP JUMPDEST PUSH2 0xBA2 PUSH1 0x20 DUP4 ADD DUP5 PUSH2 0x13C4 JUMP JUMPDEST PUSH1 0x40 MLOAD DUP2 DUP2 ADD PUSH8 0xFFFFFFFFFFFFFFFF DUP2 GT DUP3 DUP3 LT OR ISZERO PUSH2 0x1876 JUMPI PUSH1 0x0 DUP1 REVERT JUMPDEST PUSH1 0x40 MSTORE SWAP2 SWAP1 POP JUMP JUMPDEST PUSH1 0x0 PUSH8 0xFFFFFFFFFFFFFFFF DUP3 GT ISZERO PUSH2 0x1895 JUMPI PUSH1 0x0 DUP1 REVERT JUMPDEST POP PUSH1 0x20 SWAP1 DUP2 MUL ADD SWAP1 JUMP JUMPDEST PUSH1 0x0 PUSH8 0xFFFFFFFFFFFFFFFF DUP3 GT ISZERO PUSH2 0x18B6 JUMPI PUSH1 0x0 DUP1 REVERT JUMPDEST POP PUSH1 0x20 PUSH1 0x1F SWAP2 SWAP1 SWAP2 ADD PUSH32 0xFFFFFFFFFFFFFFFFFFFFFFFFFFFFFFFFFFFFFFFFFFFFFFFFFFFFFFFFFFFFFFE0 AND ADD SWAP1 JUMP JUMPDEST PUSH1 0x20 ADD SWAP1 JUMP JUMPDEST MLOAD SWAP1 JUMP JUMPDEST PUSH20 0xFFFFFFFFFFFFFFFFFFFFFFFFFFFFFFFFFFFFFFFF AND SWAP1 JUMP JUMPDEST SWAP1 JUMP JUMPDEST PUSH32 0xFFFFFFFF00000000000000000000000000000000000000000000000000000000 AND SWAP1 JUMP JUMPDEST PUSH1 0xFF AND SWAP1 JUMP JUMPDEST ISZERO ISZERO SWAP1 JUMP JUMPDEST DUP3 DUP2 DUP4 CALLDATACOPY POP PUSH1 0x0 SWAP2 ADD MSTORE JUMP JUMPDEST PUSH1 0x0 JUMPDEST DUP4 DUP2 LT ISZERO PUSH2 0x1962 JUMPI DUP2 DUP2 ADD MLOAD DUP4 DUP3 ADD MSTORE PUSH1 0x20 ADD PUSH2 0x194A JUMP JUMPDEST DUP4 DUP2 GT ISZERO PUSH2 0x1574 JUMPI POP POP PUSH1 0x0 SWAP2 ADD MSTORE JUMP JUMPDEST PUSH1 0x1F ADD PUSH32 0xFFFFFFFFFFFFFFFFFFFFFFFFFFFFFFFFFFFFFFFFFFFFFFFFFFFFFFFFFFFFFFE0 AND SWAP1 JUMP STOP LOG2 PUSH6 0x627A7A723058 KECCAK256 CREATE2 SHL PUSH16 0x44ADC2BD1A78C1B15DAD3647AEC4FF0A PUSH24 0x6E6F1949BD077B3A9ED29D216C6578706572696D656E7461 PUSH13 0xF5003700000000000000000000 "
			}
		}
	},
	"sourceTreeHashHex": "0xea83f440fbf23263d11443ff74708fa5947835aa8ebf470e5de60407c6fae981",
	"compiler": {
		"name": "solc",
		"version": "soljson-v0.4.24+commit.e67f0147.js",
		"settings": {
			"optimizer": {
				"enabled": true,
				"runs": 1000000
			},
			"outputSelection": {
				"*": {
					"*": [
						"abi",
						"evm.bytecode.object",
						"evm.bytecode.sourceMap",
						"evm.deployedBytecode.object",
						"evm.deployedBytecode.sourceMap"
					]
				}
			}
		}
	}
}