{
	"schemaVersion": "2.0.0",
	"contractName": "TestExchangeInternals",
	"compilerOutput": {
		"abi": [
			{
				"constant": true,
				"inputs": [
					{
						"name": "numerator",
						"type": "uint256"
					},
					{
						"name": "denominator",
						"type": "uint256"
					},
					{
						"name": "target",
						"type": "uint256"
					}
				],
				"name": "publicIsRoundingErrorFloor",
				"outputs": [
					{
						"name": "isError",
						"type": "bool"
					}
				],
				"payable": false,
				"stateMutability": "pure",
				"type": "function"
			},
			{
				"constant": false,
				"inputs": [
					{
						"components": [
							{
								"name": "makerAddress",
								"type": "address"
							},
							{
								"name": "takerAddress",
								"type": "address"
							},
							{
								"name": "feeRecipientAddress",
								"type": "address"
							},
							{
								"name": "senderAddress",
								"type": "address"
							},
							{
								"name": "makerAssetAmount",
								"type": "uint256"
							},
							{
								"name": "takerAssetAmount",
								"type": "uint256"
							},
							{
								"name": "makerFee",
								"type": "uint256"
							},
							{
								"name": "takerFee",
								"type": "uint256"
							},
							{
								"name": "expirationTimeSeconds",
								"type": "uint256"
							},
							{
								"name": "salt",
								"type": "uint256"
							},
							{
								"name": "makerAssetData",
								"type": "bytes"
							},
							{
								"name": "takerAssetData",
								"type": "bytes"
							}
						],
						"name": "order",
						"type": "tuple"
					},
					{
						"name": "takerAddress",
						"type": "address"
					},
					{
						"name": "orderHash",
						"type": "bytes32"
					},
					{
						"name": "orderTakerAssetFilledAmount",
						"type": "uint256"
					},
					{
						"components": [
							{
								"name": "makerAssetFilledAmount",
								"type": "uint256"
							},
							{
								"name": "takerAssetFilledAmount",
								"type": "uint256"
							},
							{
								"name": "makerFeePaid",
								"type": "uint256"
							},
							{
								"name": "takerFeePaid",
								"type": "uint256"
							}
						],
						"name": "fillResults",
						"type": "tuple"
					}
				],
				"name": "publicUpdateFilledState",
				"outputs": [],
				"payable": false,
				"stateMutability": "nonpayable",
				"type": "function"
			},
			{
				"constant": true,
				"inputs": [
					{
						"name": "numerator",
						"type": "uint256"
					},
					{
						"name": "denominator",
						"type": "uint256"
					},
					{
						"name": "target",
						"type": "uint256"
					}
				],
				"name": "publicGetPartialAmountCeil",
				"outputs": [
					{
						"name": "partialAmount",
						"type": "uint256"
					}
				],
				"payable": false,
				"stateMutability": "pure",
				"type": "function"
			},
			{
				"constant": true,
				"inputs": [
					{
						"name": "",
						"type": "bytes32"
					}
				],
				"name": "filled",
				"outputs": [
					{
						"name": "",
						"type": "uint256"
					}
				],
				"payable": false,
				"stateMutability": "view",
				"type": "function"
			},
			{
				"constant": false,
				"inputs": [
					{
						"components": [
							{
								"name": "makerAddress",
								"type": "address"
							},
							{
								"name": "takerAddress",
								"type": "address"
							},
							{
								"name": "feeRecipientAddress",
								"type": "address"
							},
							{
								"name": "senderAddress",
								"type": "address"
							},
							{
								"name": "makerAssetAmount",
								"type": "uint256"
							},
							{
								"name": "takerAssetAmount",
								"type": "uint256"
							},
							{
								"name": "makerFee",
								"type": "uint256"
							},
							{
								"name": "takerFee",
								"type": "uint256"
							},
							{
								"name": "expirationTimeSeconds",
								"type": "uint256"
							},
							{
								"name": "salt",
								"type": "uint256"
							},
							{
								"name": "makerAssetData",
								"type": "bytes"
							},
							{
								"name": "takerAssetData",
								"type": "bytes"
							}
						],
						"name": "orders",
						"type": "tuple[]"
					},
					{
						"name": "takerAssetFillAmounts",
						"type": "uint256[]"
					},
					{
						"name": "signatures",
						"type": "bytes[]"
					}
				],
				"name": "batchFillOrders",
				"outputs": [
					{
						"components": [
							{
								"name": "makerAssetFilledAmount",
								"type": "uint256"
							},
							{
								"name": "takerAssetFilledAmount",
								"type": "uint256"
							},
							{
								"name": "makerFeePaid",
								"type": "uint256"
							},
							{
								"name": "takerFeePaid",
								"type": "uint256"
							}
						],
						"name": "totalFillResults",
						"type": "tuple"
					}
				],
				"payable": false,
				"stateMutability": "nonpayable",
				"type": "function"
			},
			{
				"constant": true,
				"inputs": [
					{
						"name": "",
						"type": "bytes32"
					}
				],
				"name": "cancelled",
				"outputs": [
					{
						"name": "",
						"type": "bool"
					}
				],
				"payable": false,
				"stateMutability": "view",
				"type": "function"
			},
			{
				"constant": false,
				"inputs": [
					{
						"name": "hash",
						"type": "bytes32"
					},
					{
						"name": "signerAddress",
						"type": "address"
					},
					{
						"name": "signature",
						"type": "bytes"
					}
				],
				"name": "preSign",
				"outputs": [],
				"payable": false,
				"stateMutability": "nonpayable",
				"type": "function"
			},
			{
				"constant": false,
				"inputs": [
					{
						"components": [
							{
								"name": "makerAddress",
								"type": "address"
							},
							{
								"name": "takerAddress",
								"type": "address"
							},
							{
								"name": "feeRecipientAddress",
								"type": "address"
							},
							{
								"name": "senderAddress",
								"type": "address"
							},
							{
								"name": "makerAssetAmount",
								"type": "uint256"
							},
							{
								"name": "takerAssetAmount",
								"type": "uint256"
							},
							{
								"name": "makerFee",
								"type": "uint256"
							},
							{
								"name": "takerFee",
								"type": "uint256"
							},
							{
								"name": "expirationTimeSeconds",
								"type": "uint256"
							},
							{
								"name": "salt",
								"type": "uint256"
							},
							{
								"name": "makerAssetData",
								"type": "bytes"
							},
							{
								"name": "takerAssetData",
								"type": "bytes"
							}
						],
						"name": "leftOrder",
						"type": "tuple"
					},
					{
						"components": [
							{
								"name": "makerAddress",
								"type": "address"
							},
							{
								"name": "takerAddress",
								"type": "address"
							},
							{
								"name": "feeRecipientAddress",
								"type": "address"
							},
							{
								"name": "senderAddress",
								"type": "address"
							},
							{
								"name": "makerAssetAmount",
								"type": "uint256"
							},
							{
								"name": "takerAssetAmount",
								"type": "uint256"
							},
							{
								"name": "makerFee",
								"type": "uint256"
							},
							{
								"name": "takerFee",
								"type": "uint256"
							},
							{
								"name": "expirationTimeSeconds",
								"type": "uint256"
							},
							{
								"name": "salt",
								"type": "uint256"
							},
							{
								"name": "makerAssetData",
								"type": "bytes"
							},
							{
								"name": "takerAssetData",
								"type": "bytes"
							}
						],
						"name": "rightOrder",
						"type": "tuple"
					},
					{
						"name": "leftSignature",
						"type": "bytes"
					},
					{
						"name": "rightSignature",
						"type": "bytes"
					}
				],
				"name": "matchOrders",
				"outputs": [
					{
						"components": [
							{
								"components": [
									{
										"name": "makerAssetFilledAmount",
										"type": "uint256"
									},
									{
										"name": "takerAssetFilledAmount",
										"type": "uint256"
									},
									{
										"name": "makerFeePaid",
										"type": "uint256"
									},
									{
										"name": "takerFeePaid",
										"type": "uint256"
									}
								],
								"name": "left",
								"type": "tuple"
							},
							{
								"components": [
									{
										"name": "makerAssetFilledAmount",
										"type": "uint256"
									},
									{
										"name": "takerAssetFilledAmount",
										"type": "uint256"
									},
									{
										"name": "makerFeePaid",
										"type": "uint256"
									},
									{
										"name": "takerFeePaid",
										"type": "uint256"
									}
								],
								"name": "right",
								"type": "tuple"
							},
							{
								"name": "leftMakerAssetSpreadAmount",
								"type": "uint256"
							}
						],
						"name": "matchedFillResults",
						"type": "tuple"
					}
				],
				"payable": false,
				"stateMutability": "nonpayable",
				"type": "function"
			},
			{
				"constant": false,
				"inputs": [
					{
						"components": [
							{
								"name": "makerAddress",
								"type": "address"
							},
							{
								"name": "takerAddress",
								"type": "address"
							},
							{
								"name": "feeRecipientAddress",
								"type": "address"
							},
							{
								"name": "senderAddress",
								"type": "address"
							},
							{
								"name": "makerAssetAmount",
								"type": "uint256"
							},
							{
								"name": "takerAssetAmount",
								"type": "uint256"
							},
							{
								"name": "makerFee",
								"type": "uint256"
							},
							{
								"name": "takerFee",
								"type": "uint256"
							},
							{
								"name": "expirationTimeSeconds",
								"type": "uint256"
							},
							{
								"name": "salt",
								"type": "uint256"
							},
							{
								"name": "makerAssetData",
								"type": "bytes"
							},
							{
								"name": "takerAssetData",
								"type": "bytes"
							}
						],
						"name": "order",
						"type": "tuple"
					},
					{
						"name": "takerAssetFillAmount",
						"type": "uint256"
					},
					{
						"name": "signature",
						"type": "bytes"
					}
				],
				"name": "fillOrderNoThrow",
				"outputs": [
					{
						"components": [
							{
								"name": "makerAssetFilledAmount",
								"type": "uint256"
							},
							{
								"name": "takerAssetFilledAmount",
								"type": "uint256"
							},
							{
								"name": "makerFeePaid",
								"type": "uint256"
							},
							{
								"name": "takerFeePaid",
								"type": "uint256"
							}
						],
						"name": "fillResults",
						"type": "tuple"
					}
				],
				"payable": false,
				"stateMutability": "nonpayable",
				"type": "function"
			},
			{
				"constant": true,
				"inputs": [
					{
						"name": "",
						"type": "bytes4"
					}
				],
				"name": "assetProxies",
				"outputs": [
					{
						"name": "",
						"type": "address"
					}
				],
				"payable": false,
				"stateMutability": "view",
				"type": "function"
			},
			{
				"constant": false,
				"inputs": [
					{
						"components": [
							{
								"name": "makerAddress",
								"type": "address"
							},
							{
								"name": "takerAddress",
								"type": "address"
							},
							{
								"name": "feeRecipientAddress",
								"type": "address"
							},
							{
								"name": "senderAddress",
								"type": "address"
							},
							{
								"name": "makerAssetAmount",
								"type": "uint256"
							},
							{
								"name": "takerAssetAmount",
								"type": "uint256"
							},
							{
								"name": "makerFee",
								"type": "uint256"
							},
							{
								"name": "takerFee",
								"type": "uint256"
							},
							{
								"name": "expirationTimeSeconds",
								"type": "uint256"
							},
							{
								"name": "salt",
								"type": "uint256"
							},
							{
								"name": "makerAssetData",
								"type": "bytes"
							},
							{
								"name": "takerAssetData",
								"type": "bytes"
							}
						],
						"name": "orders",
						"type": "tuple[]"
					}
				],
				"name": "batchCancelOrders",
				"outputs": [],
				"payable": false,
				"stateMutability": "nonpayable",
				"type": "function"
			},
			{
				"constant": false,
				"inputs": [
					{
						"components": [
							{
								"name": "makerAddress",
								"type": "address"
							},
							{
								"name": "takerAddress",
								"type": "address"
							},
							{
								"name": "feeRecipientAddress",
								"type": "address"
							},
							{
								"name": "senderAddress",
								"type": "address"
							},
							{
								"name": "makerAssetAmount",
								"type": "uint256"
							},
							{
								"name": "takerAssetAmount",
								"type": "uint256"
							},
							{
								"name": "makerFee",
								"type": "uint256"
							},
							{
								"name": "takerFee",
								"type": "uint256"
							},
							{
								"name": "expirationTimeSeconds",
								"type": "uint256"
							},
							{
								"name": "salt",
								"type": "uint256"
							},
							{
								"name": "makerAssetData",
								"type": "bytes"
							},
							{
								"name": "takerAssetData",
								"type": "bytes"
							}
						],
						"name": "orders",
						"type": "tuple[]"
					},
					{
						"name": "takerAssetFillAmounts",
						"type": "uint256[]"
					},
					{
						"name": "signatures",
						"type": "bytes[]"
					}
				],
				"name": "batchFillOrKillOrders",
				"outputs": [
					{
						"components": [
							{
								"name": "makerAssetFilledAmount",
								"type": "uint256"
							},
							{
								"name": "takerAssetFilledAmount",
								"type": "uint256"
							},
							{
								"name": "makerFeePaid",
								"type": "uint256"
							},
							{
								"name": "takerFeePaid",
								"type": "uint256"
							}
						],
						"name": "totalFillResults",
						"type": "tuple"
					}
				],
				"payable": false,
				"stateMutability": "nonpayable",
				"type": "function"
			},
			{
				"constant": false,
				"inputs": [
					{
						"name": "targetOrderEpoch",
						"type": "uint256"
					}
				],
				"name": "cancelOrdersUpTo",
				"outputs": [],
				"payable": false,
				"stateMutability": "nonpayable",
				"type": "function"
			},
			{
				"constant": false,
				"inputs": [
					{
						"components": [
							{
								"name": "makerAddress",
								"type": "address"
							},
							{
								"name": "takerAddress",
								"type": "address"
							},
							{
								"name": "feeRecipientAddress",
								"type": "address"
							},
							{
								"name": "senderAddress",
								"type": "address"
							},
							{
								"name": "makerAssetAmount",
								"type": "uint256"
							},
							{
								"name": "takerAssetAmount",
								"type": "uint256"
							},
							{
								"name": "makerFee",
								"type": "uint256"
							},
							{
								"name": "takerFee",
								"type": "uint256"
							},
							{
								"name": "expirationTimeSeconds",
								"type": "uint256"
							},
							{
								"name": "salt",
								"type": "uint256"
							},
							{
								"name": "makerAssetData",
								"type": "bytes"
							},
							{
								"name": "takerAssetData",
								"type": "bytes"
							}
						],
						"name": "orders",
						"type": "tuple[]"
					},
					{
						"name": "takerAssetFillAmounts",
						"type": "uint256[]"
					},
					{
						"name": "signatures",
						"type": "bytes[]"
					}
				],
				"name": "batchFillOrdersNoThrow",
				"outputs": [
					{
						"components": [
							{
								"name": "makerAssetFilledAmount",
								"type": "uint256"
							},
							{
								"name": "takerAssetFilledAmount",
								"type": "uint256"
							},
							{
								"name": "makerFeePaid",
								"type": "uint256"
							},
							{
								"name": "takerFeePaid",
								"type": "uint256"
							}
						],
						"name": "totalFillResults",
						"type": "tuple"
					}
				],
				"payable": false,
				"stateMutability": "nonpayable",
				"type": "function"
			},
			{
				"constant": true,
				"inputs": [
					{
						"name": "assetProxyId",
						"type": "bytes4"
					}
				],
				"name": "getAssetProxy",
				"outputs": [
					{
						"name": "",
						"type": "address"
					}
				],
				"payable": false,
				"stateMutability": "view",
				"type": "function"
			},
			{
				"constant": true,
				"inputs": [
					{
						"name": "",
						"type": "bytes32"
					}
				],
				"name": "transactions",
				"outputs": [
					{
						"name": "",
						"type": "bool"
					}
				],
				"payable": false,
				"stateMutability": "view",
				"type": "function"
			},
			{
				"constant": false,
				"inputs": [
					{
						"components": [
							{
								"name": "makerAddress",
								"type": "address"
							},
							{
								"name": "takerAddress",
								"type": "address"
							},
							{
								"name": "feeRecipientAddress",
								"type": "address"
							},
							{
								"name": "senderAddress",
								"type": "address"
							},
							{
								"name": "makerAssetAmount",
								"type": "uint256"
							},
							{
								"name": "takerAssetAmount",
								"type": "uint256"
							},
							{
								"name": "makerFee",
								"type": "uint256"
							},
							{
								"name": "takerFee",
								"type": "uint256"
							},
							{
								"name": "expirationTimeSeconds",
								"type": "uint256"
							},
							{
								"name": "salt",
								"type": "uint256"
							},
							{
								"name": "makerAssetData",
								"type": "bytes"
							},
							{
								"name": "takerAssetData",
								"type": "bytes"
							}
						],
						"name": "order",
						"type": "tuple"
					},
					{
						"name": "takerAssetFillAmount",
						"type": "uint256"
					},
					{
						"name": "signature",
						"type": "bytes"
					}
				],
				"name": "fillOrKillOrder",
				"outputs": [
					{
						"components": [
							{
								"name": "makerAssetFilledAmount",
								"type": "uint256"
							},
							{
								"name": "takerAssetFilledAmount",
								"type": "uint256"
							},
							{
								"name": "makerFeePaid",
								"type": "uint256"
							},
							{
								"name": "takerFeePaid",
								"type": "uint256"
							}
						],
						"name": "fillResults",
						"type": "tuple"
					}
				],
				"payable": false,
				"stateMutability": "nonpayable",
				"type": "function"
			},
			{
				"constant": true,
				"inputs": [
					{
						"components": [
							{
								"name": "makerAssetFilledAmount",
								"type": "uint256"
							},
							{
								"name": "takerAssetFilledAmount",
								"type": "uint256"
							},
							{
								"name": "makerFeePaid",
								"type": "uint256"
							},
							{
								"name": "takerFeePaid",
								"type": "uint256"
							}
						],
						"name": "totalFillResults",
						"type": "tuple"
					},
					{
						"components": [
							{
								"name": "makerAssetFilledAmount",
								"type": "uint256"
							},
							{
								"name": "takerAssetFilledAmount",
								"type": "uint256"
							},
							{
								"name": "makerFeePaid",
								"type": "uint256"
							},
							{
								"name": "takerFeePaid",
								"type": "uint256"
							}
						],
						"name": "singleFillResults",
						"type": "tuple"
					}
				],
				"name": "publicAddFillResults",
				"outputs": [
					{
						"components": [
							{
								"name": "makerAssetFilledAmount",
								"type": "uint256"
							},
							{
								"name": "takerAssetFilledAmount",
								"type": "uint256"
							},
							{
								"name": "makerFeePaid",
								"type": "uint256"
							},
							{
								"name": "takerFeePaid",
								"type": "uint256"
							}
						],
						"name": "",
						"type": "tuple"
					}
				],
				"payable": false,
				"stateMutability": "pure",
				"type": "function"
			},
			{
				"constant": true,
				"inputs": [
					{
						"name": "numerator",
						"type": "uint256"
					},
					{
						"name": "denominator",
						"type": "uint256"
					},
					{
						"name": "target",
						"type": "uint256"
					}
				],
				"name": "publicIsRoundingErrorCeil",
				"outputs": [
					{
						"name": "isError",
						"type": "bool"
					}
				],
				"payable": false,
				"stateMutability": "pure",
				"type": "function"
			},
			{
				"constant": false,
				"inputs": [
					{
						"name": "validatorAddress",
						"type": "address"
					},
					{
						"name": "approval",
						"type": "bool"
					}
				],
				"name": "setSignatureValidatorApproval",
				"outputs": [],
				"payable": false,
				"stateMutability": "nonpayable",
				"type": "function"
			},
			{
				"constant": true,
				"inputs": [
					{
						"name": "",
						"type": "address"
					},
					{
						"name": "",
						"type": "address"
					}
				],
				"name": "allowedValidators",
				"outputs": [
					{
						"name": "",
						"type": "bool"
					}
				],
				"payable": false,
				"stateMutability": "view",
				"type": "function"
			},
			{
				"constant": false,
				"inputs": [
					{
						"components": [
							{
								"name": "makerAddress",
								"type": "address"
							},
							{
								"name": "takerAddress",
								"type": "address"
							},
							{
								"name": "feeRecipientAddress",
								"type": "address"
							},
							{
								"name": "senderAddress",
								"type": "address"
							},
							{
								"name": "makerAssetAmount",
								"type": "uint256"
							},
							{
								"name": "takerAssetAmount",
								"type": "uint256"
							},
							{
								"name": "makerFee",
								"type": "uint256"
							},
							{
								"name": "takerFee",
								"type": "uint256"
							},
							{
								"name": "expirationTimeSeconds",
								"type": "uint256"
							},
							{
								"name": "salt",
								"type": "uint256"
							},
							{
								"name": "makerAssetData",
								"type": "bytes"
							},
							{
								"name": "takerAssetData",
								"type": "bytes"
							}
						],
						"name": "orders",
						"type": "tuple[]"
					},
					{
						"name": "takerAssetFillAmount",
						"type": "uint256"
					},
					{
						"name": "signatures",
						"type": "bytes[]"
					}
				],
				"name": "marketSellOrders",
				"outputs": [
					{
						"components": [
							{
								"name": "makerAssetFilledAmount",
								"type": "uint256"
							},
							{
								"name": "takerAssetFilledAmount",
								"type": "uint256"
							},
							{
								"name": "makerFeePaid",
								"type": "uint256"
							},
							{
								"name": "takerFeePaid",
								"type": "uint256"
							}
						],
						"name": "totalFillResults",
						"type": "tuple"
					}
				],
				"payable": false,
				"stateMutability": "nonpayable",
				"type": "function"
			},
			{
				"constant": true,
				"inputs": [
					{
						"components": [
							{
								"name": "makerAddress",
								"type": "address"
							},
							{
								"name": "takerAddress",
								"type": "address"
							},
							{
								"name": "feeRecipientAddress",
								"type": "address"
							},
							{
								"name": "senderAddress",
								"type": "address"
							},
							{
								"name": "makerAssetAmount",
								"type": "uint256"
							},
							{
								"name": "takerAssetAmount",
								"type": "uint256"
							},
							{
								"name": "makerFee",
								"type": "uint256"
							},
							{
								"name": "takerFee",
								"type": "uint256"
							},
							{
								"name": "expirationTimeSeconds",
								"type": "uint256"
							},
							{
								"name": "salt",
								"type": "uint256"
							},
							{
								"name": "makerAssetData",
								"type": "bytes"
							},
							{
								"name": "takerAssetData",
								"type": "bytes"
							}
						],
						"name": "orders",
						"type": "tuple[]"
					}
				],
				"name": "getOrdersInfo",
				"outputs": [
					{
						"components": [
							{
								"name": "orderStatus",
								"type": "uint8"
							},
							{
								"name": "orderHash",
								"type": "bytes32"
							},
							{
								"name": "orderTakerAssetFilledAmount",
								"type": "uint256"
							}
						],
						"name": "",
						"type": "tuple[]"
					}
				],
				"payable": false,
				"stateMutability": "view",
				"type": "function"
			},
			{
				"constant": true,
				"inputs": [
					{
						"name": "",
						"type": "bytes32"
					},
					{
						"name": "",
						"type": "address"
					}
				],
				"name": "preSigned",
				"outputs": [
					{
						"name": "",
						"type": "bool"
					}
				],
				"payable": false,
				"stateMutability": "view",
				"type": "function"
			},
			{
				"constant": true,
				"inputs": [],
				"name": "owner",
				"outputs": [
					{
						"name": "",
						"type": "address"
					}
				],
				"payable": false,
				"stateMutability": "view",
				"type": "function"
			},
			{
				"constant": true,
				"inputs": [
					{
						"name": "hash",
						"type": "bytes32"
					},
					{
						"name": "signerAddress",
						"type": "address"
					},
					{
						"name": "signature",
						"type": "bytes"
					}
				],
				"name": "isValidSignature",
				"outputs": [
					{
						"name": "isValid",
						"type": "bool"
					}
				],
				"payable": false,
				"stateMutability": "view",
				"type": "function"
			},
			{
				"constant": false,
				"inputs": [
					{
						"components": [
							{
								"name": "makerAddress",
								"type": "address"
							},
							{
								"name": "takerAddress",
								"type": "address"
							},
							{
								"name": "feeRecipientAddress",
								"type": "address"
							},
							{
								"name": "senderAddress",
								"type": "address"
							},
							{
								"name": "makerAssetAmount",
								"type": "uint256"
							},
							{
								"name": "takerAssetAmount",
								"type": "uint256"
							},
							{
								"name": "makerFee",
								"type": "uint256"
							},
							{
								"name": "takerFee",
								"type": "uint256"
							},
							{
								"name": "expirationTimeSeconds",
								"type": "uint256"
							},
							{
								"name": "salt",
								"type": "uint256"
							},
							{
								"name": "makerAssetData",
								"type": "bytes"
							},
							{
								"name": "takerAssetData",
								"type": "bytes"
							}
						],
						"name": "orders",
						"type": "tuple[]"
					},
					{
						"name": "makerAssetFillAmount",
						"type": "uint256"
					},
					{
						"name": "signatures",
						"type": "bytes[]"
					}
				],
				"name": "marketBuyOrdersNoThrow",
				"outputs": [
					{
						"components": [
							{
								"name": "makerAssetFilledAmount",
								"type": "uint256"
							},
							{
								"name": "takerAssetFilledAmount",
								"type": "uint256"
							},
							{
								"name": "makerFeePaid",
								"type": "uint256"
							},
							{
								"name": "takerFeePaid",
								"type": "uint256"
							}
						],
						"name": "totalFillResults",
						"type": "tuple"
					}
				],
				"payable": false,
				"stateMutability": "nonpayable",
				"type": "function"
			},
			{
				"constant": false,
				"inputs": [
					{
						"components": [
							{
								"name": "makerAddress",
								"type": "address"
							},
							{
								"name": "takerAddress",
								"type": "address"
							},
							{
								"name": "feeRecipientAddress",
								"type": "address"
							},
							{
								"name": "senderAddress",
								"type": "address"
							},
							{
								"name": "makerAssetAmount",
								"type": "uint256"
							},
							{
								"name": "takerAssetAmount",
								"type": "uint256"
							},
							{
								"name": "makerFee",
								"type": "uint256"
							},
							{
								"name": "takerFee",
								"type": "uint256"
							},
							{
								"name": "expirationTimeSeconds",
								"type": "uint256"
							},
							{
								"name": "salt",
								"type": "uint256"
							},
							{
								"name": "makerAssetData",
								"type": "bytes"
							},
							{
								"name": "takerAssetData",
								"type": "bytes"
							}
						],
						"name": "order",
						"type": "tuple"
					},
					{
						"name": "takerAssetFillAmount",
						"type": "uint256"
					},
					{
						"name": "signature",
						"type": "bytes"
					}
				],
				"name": "fillOrder",
				"outputs": [
					{
						"components": [
							{
								"name": "makerAssetFilledAmount",
								"type": "uint256"
							},
							{
								"name": "takerAssetFilledAmount",
								"type": "uint256"
							},
							{
								"name": "makerFeePaid",
								"type": "uint256"
							},
							{
								"name": "takerFeePaid",
								"type": "uint256"
							}
						],
						"name": "fillResults",
						"type": "tuple"
					}
				],
				"payable": false,
				"stateMutability": "nonpayable",
				"type": "function"
			},
			{
				"constant": true,
				"inputs": [
					{
						"name": "numerator",
						"type": "uint256"
					},
					{
						"name": "denominator",
						"type": "uint256"
					},
					{
						"name": "target",
						"type": "uint256"
					}
				],
				"name": "publicGetPartialAmountFloor",
				"outputs": [
					{
						"name": "partialAmount",
						"type": "uint256"
					}
				],
				"payable": false,
				"stateMutability": "pure",
				"type": "function"
			},
			{
				"constant": false,
				"inputs": [
					{
						"name": "salt",
						"type": "uint256"
					},
					{
						"name": "signerAddress",
						"type": "address"
					},
					{
						"name": "data",
						"type": "bytes"
					},
					{
						"name": "signature",
						"type": "bytes"
					}
				],
				"name": "executeTransaction",
				"outputs": [],
				"payable": false,
				"stateMutability": "nonpayable",
				"type": "function"
			},
			{
				"constant": false,
				"inputs": [
					{
						"name": "assetProxy",
						"type": "address"
					}
				],
				"name": "registerAssetProxy",
				"outputs": [],
				"payable": false,
				"stateMutability": "nonpayable",
				"type": "function"
			},
			{
				"constant": true,
				"inputs": [
					{
						"components": [
							{
								"name": "makerAddress",
								"type": "address"
							},
							{
								"name": "takerAddress",
								"type": "address"
							},
							{
								"name": "feeRecipientAddress",
								"type": "address"
							},
							{
								"name": "senderAddress",
								"type": "address"
							},
							{
								"name": "makerAssetAmount",
								"type": "uint256"
							},
							{
								"name": "takerAssetAmount",
								"type": "uint256"
							},
							{
								"name": "makerFee",
								"type": "uint256"
							},
							{
								"name": "takerFee",
								"type": "uint256"
							},
							{
								"name": "expirationTimeSeconds",
								"type": "uint256"
							},
							{
								"name": "salt",
								"type": "uint256"
							},
							{
								"name": "makerAssetData",
								"type": "bytes"
							},
							{
								"name": "takerAssetData",
								"type": "bytes"
							}
						],
						"name": "order",
						"type": "tuple"
					}
				],
				"name": "getOrderInfo",
				"outputs": [
					{
						"components": [
							{
								"name": "orderStatus",
								"type": "uint8"
							},
							{
								"name": "orderHash",
								"type": "bytes32"
							},
							{
								"name": "orderTakerAssetFilledAmount",
								"type": "uint256"
							}
						],
						"name": "orderInfo",
						"type": "tuple"
					}
				],
				"payable": false,
				"stateMutability": "view",
				"type": "function"
			},
			{
				"constant": false,
				"inputs": [
					{
						"components": [
							{
								"name": "makerAddress",
								"type": "address"
							},
							{
								"name": "takerAddress",
								"type": "address"
							},
							{
								"name": "feeRecipientAddress",
								"type": "address"
							},
							{
								"name": "senderAddress",
								"type": "address"
							},
							{
								"name": "makerAssetAmount",
								"type": "uint256"
							},
							{
								"name": "takerAssetAmount",
								"type": "uint256"
							},
							{
								"name": "makerFee",
								"type": "uint256"
							},
							{
								"name": "takerFee",
								"type": "uint256"
							},
							{
								"name": "expirationTimeSeconds",
								"type": "uint256"
							},
							{
								"name": "salt",
								"type": "uint256"
							},
							{
								"name": "makerAssetData",
								"type": "bytes"
							},
							{
								"name": "takerAssetData",
								"type": "bytes"
							}
						],
						"name": "order",
						"type": "tuple"
					}
				],
				"name": "cancelOrder",
				"outputs": [],
				"payable": false,
				"stateMutability": "nonpayable",
				"type": "function"
			},
			{
				"constant": true,
				"inputs": [
					{
						"name": "",
						"type": "address"
					},
					{
						"name": "",
						"type": "address"
					}
				],
				"name": "orderEpoch",
				"outputs": [
					{
						"name": "",
						"type": "uint256"
					}
				],
				"payable": false,
				"stateMutability": "view",
				"type": "function"
			},
			{
				"constant": true,
				"inputs": [],
				"name": "ZRX_ASSET_DATA",
				"outputs": [
					{
						"name": "",
						"type": "bytes"
					}
				],
				"payable": false,
				"stateMutability": "view",
				"type": "function"
			},
			{
				"constant": false,
				"inputs": [
					{
						"components": [
							{
								"name": "makerAddress",
								"type": "address"
							},
							{
								"name": "takerAddress",
								"type": "address"
							},
							{
								"name": "feeRecipientAddress",
								"type": "address"
							},
							{
								"name": "senderAddress",
								"type": "address"
							},
							{
								"name": "makerAssetAmount",
								"type": "uint256"
							},
							{
								"name": "takerAssetAmount",
								"type": "uint256"
							},
							{
								"name": "makerFee",
								"type": "uint256"
							},
							{
								"name": "takerFee",
								"type": "uint256"
							},
							{
								"name": "expirationTimeSeconds",
								"type": "uint256"
							},
							{
								"name": "salt",
								"type": "uint256"
							},
							{
								"name": "makerAssetData",
								"type": "bytes"
							},
							{
								"name": "takerAssetData",
								"type": "bytes"
							}
						],
						"name": "orders",
						"type": "tuple[]"
					},
					{
						"name": "takerAssetFillAmount",
						"type": "uint256"
					},
					{
						"name": "signatures",
						"type": "bytes[]"
					}
				],
				"name": "marketSellOrdersNoThrow",
				"outputs": [
					{
						"components": [
							{
								"name": "makerAssetFilledAmount",
								"type": "uint256"
							},
							{
								"name": "takerAssetFilledAmount",
								"type": "uint256"
							},
							{
								"name": "makerFeePaid",
								"type": "uint256"
							},
							{
								"name": "takerFeePaid",
								"type": "uint256"
							}
						],
						"name": "totalFillResults",
						"type": "tuple"
					}
				],
				"payable": false,
				"stateMutability": "nonpayable",
				"type": "function"
			},
			{
				"constant": true,
				"inputs": [
					{
						"name": "numerator",
						"type": "uint256"
					},
					{
						"name": "denominator",
						"type": "uint256"
					},
					{
						"name": "target",
						"type": "uint256"
					}
				],
				"name": "publicSafeGetPartialAmountFloor",
				"outputs": [
					{
						"name": "partialAmount",
						"type": "uint256"
					}
				],
				"payable": false,
				"stateMutability": "pure",
				"type": "function"
			},
			{
				"constant": true,
				"inputs": [
					{
						"name": "numerator",
						"type": "uint256"
					},
					{
						"name": "denominator",
						"type": "uint256"
					},
					{
						"name": "target",
						"type": "uint256"
					}
				],
				"name": "publicSafeGetPartialAmountCeil",
				"outputs": [
					{
						"name": "partialAmount",
						"type": "uint256"
					}
				],
				"payable": false,
				"stateMutability": "pure",
				"type": "function"
			},
			{
				"constant": true,
				"inputs": [
					{
						"components": [
							{
								"name": "makerAddress",
								"type": "address"
							},
							{
								"name": "takerAddress",
								"type": "address"
							},
							{
								"name": "feeRecipientAddress",
								"type": "address"
							},
							{
								"name": "senderAddress",
								"type": "address"
							},
							{
								"name": "makerAssetAmount",
								"type": "uint256"
							},
							{
								"name": "takerAssetAmount",
								"type": "uint256"
							},
							{
								"name": "makerFee",
								"type": "uint256"
							},
							{
								"name": "takerFee",
								"type": "uint256"
							},
							{
								"name": "expirationTimeSeconds",
								"type": "uint256"
							},
							{
								"name": "salt",
								"type": "uint256"
							},
							{
								"name": "makerAssetData",
								"type": "bytes"
							},
							{
								"name": "takerAssetData",
								"type": "bytes"
							}
						],
						"name": "order",
						"type": "tuple"
					},
					{
						"name": "takerAssetFilledAmount",
						"type": "uint256"
					}
				],
				"name": "publicCalculateFillResults",
				"outputs": [
					{
						"components": [
							{
								"name": "makerAssetFilledAmount",
								"type": "uint256"
							},
							{
								"name": "takerAssetFilledAmount",
								"type": "uint256"
							},
							{
								"name": "makerFeePaid",
								"type": "uint256"
							},
							{
								"name": "takerFeePaid",
								"type": "uint256"
							}
						],
						"name": "fillResults",
						"type": "tuple"
					}
				],
				"payable": false,
				"stateMutability": "pure",
				"type": "function"
			},
			{
				"constant": true,
				"inputs": [],
				"name": "EIP712_DOMAIN_HASH",
				"outputs": [
					{
						"name": "",
						"type": "bytes32"
					}
				],
				"payable": false,
				"stateMutability": "view",
				"type": "function"
			},
			{
				"constant": false,
				"inputs": [
					{
						"components": [
							{
								"name": "makerAddress",
								"type": "address"
							},
							{
								"name": "takerAddress",
								"type": "address"
							},
							{
								"name": "feeRecipientAddress",
								"type": "address"
							},
							{
								"name": "senderAddress",
								"type": "address"
							},
							{
								"name": "makerAssetAmount",
								"type": "uint256"
							},
							{
								"name": "takerAssetAmount",
								"type": "uint256"
							},
							{
								"name": "makerFee",
								"type": "uint256"
							},
							{
								"name": "takerFee",
								"type": "uint256"
							},
							{
								"name": "expirationTimeSeconds",
								"type": "uint256"
							},
							{
								"name": "salt",
								"type": "uint256"
							},
							{
								"name": "makerAssetData",
								"type": "bytes"
							},
							{
								"name": "takerAssetData",
								"type": "bytes"
							}
						],
						"name": "orders",
						"type": "tuple[]"
					},
					{
						"name": "makerAssetFillAmount",
						"type": "uint256"
					},
					{
						"name": "signatures",
						"type": "bytes[]"
					}
				],
				"name": "marketBuyOrders",
				"outputs": [
					{
						"components": [
							{
								"name": "makerAssetFilledAmount",
								"type": "uint256"
							},
							{
								"name": "takerAssetFilledAmount",
								"type": "uint256"
							},
							{
								"name": "makerFeePaid",
								"type": "uint256"
							},
							{
								"name": "takerFeePaid",
								"type": "uint256"
							}
						],
						"name": "totalFillResults",
						"type": "tuple"
					}
				],
				"payable": false,
				"stateMutability": "nonpayable",
				"type": "function"
			},
			{
				"constant": true,
				"inputs": [],
				"name": "currentContextAddress",
				"outputs": [
					{
						"name": "",
						"type": "address"
					}
				],
				"payable": false,
				"stateMutability": "view",
				"type": "function"
			},
			{
				"constant": false,
				"inputs": [
					{
						"name": "newOwner",
						"type": "address"
					}
				],
				"name": "transferOwnership",
				"outputs": [],
				"payable": false,
				"stateMutability": "nonpayable",
				"type": "function"
			},
			{
				"constant": true,
				"inputs": [],
				"name": "VERSION",
				"outputs": [
					{
						"name": "",
						"type": "string"
					}
				],
				"payable": false,
				"stateMutability": "view",
				"type": "function"
			},
			{
				"inputs": [],
				"payable": false,
				"stateMutability": "nonpayable",
				"type": "constructor"
			},
			{
				"anonymous": false,
				"inputs": [
					{
						"indexed": true,
						"name": "signerAddress",
						"type": "address"
					},
					{
						"indexed": true,
						"name": "validatorAddress",
						"type": "address"
					},
					{
						"indexed": false,
						"name": "approved",
						"type": "bool"
					}
				],
				"name": "SignatureValidatorApproval",
				"type": "event"
			},
			{
				"anonymous": false,
				"inputs": [
					{
						"indexed": true,
						"name": "makerAddress",
						"type": "address"
					},
					{
						"indexed": true,
						"name": "feeRecipientAddress",
						"type": "address"
					},
					{
						"indexed": false,
						"name": "takerAddress",
						"type": "address"
					},
					{
						"indexed": false,
						"name": "senderAddress",
						"type": "address"
					},
					{
						"indexed": false,
						"name": "makerAssetFilledAmount",
						"type": "uint256"
					},
					{
						"indexed": false,
						"name": "takerAssetFilledAmount",
						"type": "uint256"
					},
					{
						"indexed": false,
						"name": "makerFeePaid",
						"type": "uint256"
					},
					{
						"indexed": false,
						"name": "takerFeePaid",
						"type": "uint256"
					},
					{
						"indexed": true,
						"name": "orderHash",
						"type": "bytes32"
					},
					{
						"indexed": false,
						"name": "makerAssetData",
						"type": "bytes"
					},
					{
						"indexed": false,
						"name": "takerAssetData",
						"type": "bytes"
					}
				],
				"name": "Fill",
				"type": "event"
			},
			{
				"anonymous": false,
				"inputs": [
					{
						"indexed": true,
						"name": "makerAddress",
						"type": "address"
					},
					{
						"indexed": true,
						"name": "feeRecipientAddress",
						"type": "address"
					},
					{
						"indexed": false,
						"name": "senderAddress",
						"type": "address"
					},
					{
						"indexed": true,
						"name": "orderHash",
						"type": "bytes32"
					},
					{
						"indexed": false,
						"name": "makerAssetData",
						"type": "bytes"
					},
					{
						"indexed": false,
						"name": "takerAssetData",
						"type": "bytes"
					}
				],
				"name": "Cancel",
				"type": "event"
			},
			{
				"anonymous": false,
				"inputs": [
					{
						"indexed": true,
						"name": "makerAddress",
						"type": "address"
					},
					{
						"indexed": true,
						"name": "senderAddress",
						"type": "address"
					},
					{
						"indexed": false,
						"name": "orderEpoch",
						"type": "uint256"
					}
				],
				"name": "CancelUpTo",
				"type": "event"
			},
			{
				"anonymous": false,
				"inputs": [
					{
						"indexed": false,
						"name": "id",
						"type": "bytes4"
					},
					{
						"indexed": false,
						"name": "assetProxy",
						"type": "address"
					}
				],
				"name": "AssetProxyRegistered",
				"type": "event"
			}
		],
		"evm": {
			"bytecode": {
				"linkReferences": {},
				"object": "0x60806040526000805460ff191690553480156200001b57600080fd5b506040805160208101918290526000808252909182916200003f9160019162000333565b5050604080517f454950373132446f6d61696e28000000000000000000000000000000000000006020808301919091527f737472696e67206e616d652c0000000000000000000000000000000000000000602d8301527f737472696e672076657273696f6e2c000000000000000000000000000000000060398301527f6164647265737320766572696679696e67436f6e74726163740000000000000060488301527f2900000000000000000000000000000000000000000000000000000000000000606183015282516042818403018152606290920192839052815191929182918401908083835b60208310620001495780518252601f19909201916020918201910162000128565b51815160209384036101000a6000190180199092169116179052604080519290940182900382208285018552600b8084527f30782050726f746f636f6c000000000000000000000000000000000000000000928401928352945190965091945090928392508083835b60208310620001d35780518252601f199092019160209182019101620001b2565b51815160209384036101000a600019018019909216911617905260408051929094018290038220828501855260018084527f3200000000000000000000000000000000000000000000000000000000000000928401928352945190965091945090928392508083835b602083106200025d5780518252601f1990920191602091820191016200023c565b51815160209384036101000a6000190180199092169116179052604080519290940182900382208282019890985281840196909652606081019690965250306080808701919091528151808703909101815260a09095019081905284519093849350850191508083835b60208310620002e85780518252601f199092019160209182019101620002c7565b5181516000196020949094036101000a939093019283169219169190911790526040519201829003909120600255505060038054600160a060020a0319163317905550620003d89050565b828054600181600116156101000203166002900490600052602060002090601f016020900481019282601f106200037657805160ff1916838001178555620003a6565b82800160010185558215620003a6579182015b82811115620003a657825182559160200191906001019062000389565b50620003b4929150620003b8565b5090565b620003d591905b80821115620003b45760008155600101620003bf565b90565b615d9780620003e86000396000f3006080604052600436106102195763ffffffff7c01000000000000000000000000000000000000000000000000000000006000350416631be23901811461021e5780631ea1e3d81461025457806320777f7014610276578063288cdc91146102a3578063297bb70b146102c35780632ac12622146102f05780633683ef8e146103105780633c28d861146103305780633e228bae1461035d5780633fd3c9971461037d5780634ac14782146103aa5780634d0ae546146103ca5780634f9559b1146103ea57806350dde1901461040a578063607041081461042a578063642f2eaf1461045757806364a3bc151461047757806366758d7b14610497578063679d2f9a146104b757806377fcce68146104d75780637b8e3514146104f75780637e1d9808146105175780637e9d74dc1461053757806382c174d0146105645780638da5cb5b146105845780639363470214610599578063a3e20380146105b9578063b4be83d5146105d9578063be7ada1e146105f9578063bfc8bfce14610619578063c585bb9314610639578063c75e0a8114610659578063d46b02c314610686578063d9bfa73e146106a6578063db123b1a146106c6578063dd1c7d18146106e8578063de30200d14610708578063e0acd33d14610728578063e0b701e314610748578063e306f77914610768578063e5fa431b1461077d578063eea086ba1461079d578063f2fde38b146107b2578063ffa1ad74146107d2575b600080fd5b34801561022a57600080fd5b5061023e610239366004614fb4565b6107e7565b60405161024b91906158fb565b60405180910390f35b34801561026057600080fd5b5061027461026f366004614d3e565b6107fe565b005b34801561028257600080fd5b50610296610291366004614fb4565b610812565b60405161024b9190615909565b3480156102af57600080fd5b506102966102be366004614b9c565b61081f565b3480156102cf57600080fd5b506102e36102de366004614abf565b610831565b60405161024b9190615be3565b3480156102fc57600080fd5b5061023e61030b366004614b9c565b61095c565b34801561031c57600080fd5b5061027461032b366004614bd9565b610971565b34801561033c57600080fd5b5061035061034b366004614dcb565b610a5e565b60405161024b9190615bf1565b34801561036957600080fd5b506102e3610378366004614ed2565b610bf5565b34801561038957600080fd5b5061039d610398366004614c9c565b610c4b565b60405161024b91906159c5565b3480156103b657600080fd5b506102746103c5366004614a8a565b610c73565b3480156103d657600080fd5b506102e36103e5366004614abf565b610d40565b3480156103f657600080fd5b50610274610405366004614b9c565b610e30565b34801561041657600080fd5b506102e3610425366004614abf565b610fe5565b34801561043657600080fd5b5061044a610445366004614c9c565b611079565b60405161024b919061581b565b34801561046357600080fd5b5061023e610472366004614b9c565b6110c7565b34801561048357600080fd5b506102e3610492366004614ed2565b6110dc565b3480156104a357600080fd5b506102e36104b2366004614cd8565b611187565b3480156104c357600080fd5b5061023e6104d2366004614fb4565b6111a2565b3480156104e357600080fd5b506102746104f2366004614a5a565b6111af565b34801561050357600080fd5b5061023e610512366004614a20565b6112e9565b34801561052357600080fd5b506102e3610532366004614b53565b611309565b34801561054357600080fd5b50610557610552366004614a8a565b61146d565b60405161024b91906158ea565b34801561057057600080fd5b5061023e61057f366004614bba565b611502565b34801561059057600080fd5b5061044a611522565b3480156105a557600080fd5b5061023e6105b4366004614c41565b61153e565b3480156105c557600080fd5b506102e36105d4366004614b53565b611ac1565b3480156105e557600080fd5b506102e36105f4366004614ed2565b611bd4565b34801561060557600080fd5b50610296610614366004614fb4565b611c4f565b34801561062557600080fd5b50610274610634366004614f1b565b611c5c565b34801561064557600080fd5b506102746106543660046149fa565b611ef5565b34801561066557600080fd5b50610679610674366004614d09565b612120565b60405161024b9190615c00565b34801561069257600080fd5b506102746106a1366004614d09565b61221a565b3480156106b257600080fd5b506102966106c1366004614a20565b6122b6565b3480156106d257600080fd5b506106db6122d3565b60405161024b91906159b4565b3480156106f457600080fd5b506102e3610703366004614b53565b61237e565b34801561071457600080fd5b50610296610723366004614fb4565b612453565b34801561073457600080fd5b50610296610743366004614fb4565b612460565b34801561075457600080fd5b506102e3610763366004614e8b565b61246d565b34801561077457600080fd5b5061029661247f565b34801561078957600080fd5b506102e3610798366004614b53565b612485565b3480156107a957600080fd5b5061044a6125f7565b3480156107be57600080fd5b506102746107cd3660046149fa565b612613565b3480156107de57600080fd5b506106db6126c4565b60006107f48484846126fb565b90505b9392505050565b61080b8585858585612780565b5050505050565b60006107f484848461282c565b60046020526000908152604090205481565b6108396145bd565b6000806108446145bd565b60005460ff161561088a576040517f08c379a000000000000000000000000000000000000000000000000000000000815260040161088190615b63565b60405180910390fd5b600080547fffffffffffffffffffffffffffffffffffffffffffffffffffffffffffffff001660011781558751935091505b81831461092a5761091387838151811015156108d457fe5b9060200190602002015187848151811015156108ec57fe5b90602001906020020151878581518110151561090457fe5b9060200190602002015161288d565b905061091f848261292b565b6001909101906108bc565b5050600080547fffffffffffffffffffffffffffffffffffffffffffffffffffffffffffffff00169055509392505050565b60056020526000908152604090205460ff1681565b73ffffffffffffffffffffffffffffffffffffffff83163314610a01576109c9848484848080601f0160208091040260200160405190810160405280939291908181526020018383808284375061153e945050505050565b1515610a01576040517f08c379a000000000000000000000000000000000000000000000000000000000815260040161088190615a93565b5050600091825260076020908152604080842073ffffffffffffffffffffffffffffffffffffffff9093168452919052902080547fffffffffffffffffffffffffffffffffffffffffffffffffffffffffffffff00166001179055565b610a666145e6565b610a6e614615565b610a76614615565b6000805460ff1615610ab4576040517f08c379a000000000000000000000000000000000000000000000000000000000815260040161088190615b63565b600080547fffffffffffffffffffffffffffffffffffffffffffffffffffffffffffffff0016600117905561016080890151610140808a019190915289015190880152610b0088612120565b9250610b0b87612120565b9150610b1561298d565b9050610b23888483896129be565b610b2f878383886129be565b610b398888612b56565b610b4d888885604001518560400151612bb6565b805160208101519051919550610b68918a9186918190612d3d565b602080850151908101519051610b849189918591908190612d3d565b610b9d8882856020015186604001518860000151612780565b610bb68782846020015185604001518860200151612780565b610bc288888387612e4f565b5050600080547fffffffffffffffffffffffffffffffffffffffffffffffffffffffffffffff0016905550949350505050565b610bfd6145bd565b6060610c0a858585613027565b9050608081825160208401305af48015610c4157815183526020820151602084015260408201516040840152606082015160608401525b505b509392505050565b600b6020526000908152604090205473ffffffffffffffffffffffffffffffffffffffff1681565b60008054819060ff1615610cb3576040517f08c379a000000000000000000000000000000000000000000000000000000000815260040161088190615b63565b5050600080547fffffffffffffffffffffffffffffffffffffffffffffffffffffffffffffff001660011781558151905b808214610d1357610d0b8382815181101515610cfc57fe5b906020019060200201516131f9565b600101610ce4565b5050600080547fffffffffffffffffffffffffffffffffffffffffffffffffffffffffffffff0016905550565b610d486145bd565b600080610d536145bd565b60005460ff1615610d90576040517f08c379a000000000000000000000000000000000000000000000000000000000815260040161088190615b63565b600080547fffffffffffffffffffffffffffffffffffffffffffffffffffffffffffffff001660011781558751935091505b81831461092a57610e198783815181101515610dda57fe5b906020019060200201518784815181101515610df257fe5b906020019060200201518785815181101515610e0a57fe5b90602001906020020151613224565b9050610e25848261292b565b600190910190610dc2565b6000805481908190819060ff1615610e74576040517f08c379a000000000000000000000000000000000000000000000000000000000815260040161088190615b63565b600080547fffffffffffffffffffffffffffffffffffffffffffffffffffffffffffffff00166001179055610ea761298d565b935073ffffffffffffffffffffffffffffffffffffffff84163314610ecc5733610ecf565b60005b73ffffffffffffffffffffffffffffffffffffffff8086166000908152600660209081526040808320938516835292905220549093506001860192509050808211610f46576040517f08c379a000000000000000000000000000000000000000000000000000000000815260040161088190615b23565b73ffffffffffffffffffffffffffffffffffffffff80851660008181526006602090815260408083209488168084529490915290819020859055517f82af639571738f4ebd4268fb0363d8957ebe1bbb9e78dba5ebd69eed39b154f090610fae908690615909565b60405180910390a35050600080547fffffffffffffffffffffffffffffffffffffffffffffffffffffffffffffff00169055505050565b610fed6145bd565b600080610ff86145bd565b86519250600091505b81831461106f57611058878381518110151561101957fe5b90602001906020020151878481518110151561103157fe5b90602001906020020151878581518110151561104957fe5b90602001906020020151610bf5565b9050611064848261292b565b600190910190611001565b5050509392505050565b7fffffffff0000000000000000000000000000000000000000000000000000000081166000908152600b602052604090205473ffffffffffffffffffffffffffffffffffffffff165b919050565b60096020526000908152604090205460ff1681565b6110e46145bd565b60005460ff1615611121576040517f08c379a000000000000000000000000000000000000000000000000000000000815260040161088190615b63565b600080547fffffffffffffffffffffffffffffffffffffffffffffffffffffffffffffff00166001179055611157848484613224565b600080547fffffffffffffffffffffffffffffffffffffffffffffffffffffffffffffff00169055949350505050565b61118f6145bd565b611199838361292b565b50815b92915050565b60006107f4848484613277565b6000805460ff16156111ed576040517f08c379a000000000000000000000000000000000000000000000000000000000815260040161088190615b63565b600080547fffffffffffffffffffffffffffffffffffffffffffffffffffffffffffffff0016600117905561122061298d565b73ffffffffffffffffffffffffffffffffffffffff8181166000818152600860209081526040808320948916808452949091529081902080547fffffffffffffffffffffffffffffffffffffffffffffffffffffffffffffff00168715151790555192935090917fa8656e308026eeabce8f0bc18048433252318ab80ac79da0b3d3d8697dfba891906112b49086906158fb565b60405180910390a35050600080547fffffffffffffffffffffffffffffffffffffffffffffffffffffffffffffff0016905550565b600860209081526000928352604080842090915290825290205460ff1681565b6113116145bd565b606060008060006113206145bd565b60005460ff161561135d576040517f08c379a000000000000000000000000000000000000000000000000000000000815260040161088190615b63565b600080547fffffffffffffffffffffffffffffffffffffffffffffffffffffffffffffff0016600117815589518a9190811061139557fe5b906020019060200201516101600151945088519350600092505b828414611438578489848151811015156113c557fe5b9060200190602002015161016001819052506113e58887602001516132fc565b915061141189848151811015156113f857fe5b9060200190602002015183898681518110151561090457fe5b905061141d868261292b565b6020860151881161142d57611438565b6001909201916113af565b5050600080547fffffffffffffffffffffffffffffffffffffffffffffffffffffffffffffff00169055509195945050505050565b606060006060600084519250826040519080825280602002602001820160405280156114b357816020015b6114a0614615565b8152602001906001900390816114985790505b509150600090505b808314610c43576114e285828151811015156114d357fe5b90602001906020020151612120565b82828151811015156114f057fe5b602090810290910101526001016114bb565b600760209081526000928352604080842090915290825290205460ff1681565b60035473ffffffffffffffffffffffffffffffffffffffff1681565b60008060008060008060008060008951111515611587576040517f08c379a000000000000000000000000000000000000000000000000000000000815260040161088190615b13565b6115908961333e565b7f010000000000000000000000000000000000000000000000000000000000000090049650600760ff8816106115f2576040517f08c379a000000000000000000000000000000000000000000000000000000000815260040161088190615a33565b8660ff16600781111561160157fe5b9550600086600781111561161157fe5b1415611649576040517f08c379a000000000000000000000000000000000000000000000000000000000815260040161088190615b03565b600186600781111561165757fe5b141561169f57885115611696576040517f08c379a000000000000000000000000000000000000000000000000000000000815260040161088190615bd3565b60009750611ab3565b60028660078111156116ad57fe5b14156117e85788516041146116ee576040517f08c379a0000000000000000000000000000000000000000000000000000000008152600401610881906159d3565b8860008151811015156116fd57fe5b01602001517f010000000000000000000000000000000000000000000000000000000000000090819004810204945061173d89600163ffffffff61340216565b935061175089602163ffffffff61340216565b925060018b868686604051600081526020016040526040516117759493929190615964565b60206040516020810390808403906000865af1158015611799573d6000803e3d6000fd5b50506040517fffffffffffffffffffffffffffffffffffffffffffffffffffffffffffffffe0015173ffffffffffffffffffffffffffffffffffffffff8c81169082161499509250611ab39050565b60038660078111156117f657fe5b141561199c578851604114611837576040517f08c379a0000000000000000000000000000000000000000000000000000000008152600401610881906159d3565b88600081518110151561184657fe5b01602001517f010000000000000000000000000000000000000000000000000000000000000090819004810204945061188689600163ffffffff61340216565b935061189989602163ffffffff61340216565b925060018b60405160200180807f19457468657265756d205369676e6564204d6573736167653a0a333200000000815250601c0182600019166000191681526020019150506040516020818303038152906040526040518082805190602001908083835b6020831061193a57805182527fffffffffffffffffffffffffffffffffffffffffffffffffffffffffffffffe090920191602091820191016118fd565b51815160209384036101000a7fffffffffffffffffffffffffffffffffffffffffffffffffffffffffffffffff018019909216911617905260408051929094018290038220600083529101928390526117759450925089918991508890615964565b60048660078111156119aa57fe5b14156119c2576119bb8b8b8b61344d565b9750611ab3565b60058660078111156119d057fe5b1415611a33576119df896135a2565b73ffffffffffffffffffffffffffffffffffffffff808c1660009081526008602090815260408083209385168352929052205490915060ff161515611a275760009750611ab3565b6119bb818c8c8c61361b565b6006866007811115611a4157fe5b1415611a815760008b815260076020908152604080832073ffffffffffffffffffffffffffffffffffffffff8e16845290915290205460ff169750611ab3565b6040517f08c379a000000000000000000000000000000000000000000000000000000000815260040161088190615a33565b505050505050509392505050565b611ac96145bd565b6060600080600080611ad96145bd565b896000815181101515611ae857fe5b906020019060200201516101400151955089519450600093505b838514611bc757858a85815181101515611b1857fe5b6020908102909101015161014001528651611b34908a906132fc565b9250611b778a85815181101515611b4757fe5b9060200190602002015160a001518b86815181101515611b6357fe5b906020019060200201516080015185613777565b9150611ba38a85815181101515611b8a57fe5b90602001906020020151838a8781518110151561104957fe5b9050611baf878261292b565b86518911611bbc57611bc7565b600190930192611b02565b5050505050509392505050565b611bdc6145bd565b60005460ff1615611c19576040517f08c379a000000000000000000000000000000000000000000000000000000000815260040161088190615b63565b600080547fffffffffffffffffffffffffffffffffffffffffffffffffffffffffffffff0016600117905561115784848461288d565b60006107f4848484613777565b600a5460009073ffffffffffffffffffffffffffffffffffffffff1615611caf576040517f08c379a000000000000000000000000000000000000000000000000000000000815260040161088190615b63565b611cf2611ced888888888080601f016020809104026020016040519081016040528093929190818152602001838380828437506137bf945050505050565b613a00565b60008181526009602052604090205490915060ff1615611d3e576040517f08c379a000000000000000000000000000000000000000000000000000000000815260040161088190615a83565b73ffffffffffffffffffffffffffffffffffffffff86163314611e0f57611d96818785858080601f0160208091040260200160405190810160405280939291908181526020018383808284375061153e945050505050565b1515611dce576040517f08c379a000000000000000000000000000000000000000000000000000000000815260040161088190615bc3565b600a80547fffffffffffffffffffffffff00000000000000000000000000000000000000001673ffffffffffffffffffffffffffffffffffffffff88161790555b6000818152600960205260409081902080547fffffffffffffffffffffffffffffffffffffffffffffffffffffffffffffff001660011790555130908690869080838380828437820191505092505050600060405180830381855af49150501515611ea6576040517f08c379a000000000000000000000000000000000000000000000000000000000815260040161088190615ab3565b73ffffffffffffffffffffffffffffffffffffffff86163314611eec57600a80547fffffffffffffffffffffffff00000000000000000000000000000000000000001690555b50505050505050565b6003546000908190819073ffffffffffffffffffffffffffffffffffffffff163314611f4d576040517f08c379a000000000000000000000000000000000000000000000000000000000815260040161088190615b73565b8392508273ffffffffffffffffffffffffffffffffffffffff1663ae25532e6040518163ffffffff167c0100000000000000000000000000000000000000000000000000000000028152600401602060405180830381600087803b158015611fb457600080fd5b505af1158015611fc8573d6000803e3d6000fd5b505050506040513d601f19601f82011682018060405250611fec9190810190614cba565b7fffffffff0000000000000000000000000000000000000000000000000000000081166000908152600b602052604090205490925073ffffffffffffffffffffffffffffffffffffffff1690508015612071576040517f08c379a000000000000000000000000000000000000000000000000000000000815260040161088190615a13565b7fffffffff0000000000000000000000000000000000000000000000000000000082166000908152600b60205260409081902080547fffffffffffffffffffffffff00000000000000000000000000000000000000001673ffffffffffffffffffffffffffffffffffffffff8616179055517fd2c6b762299c609bdb96520b58a49bfb80186934d4f71a86a367571a15c03194906121129084908790615999565b60405180910390a150505050565b612128614615565b61213182613a3d565b60208083018290526000918252600490526040908190205490820152608082015115156121655760015b60ff1681526110c2565b60a0820151151561217757600261215b565b60a082015160408201511061218d57600561215b565b61010082015142106121a057600461215b565b60208082015160009081526005909152604090205460ff16156121c457600661215b565b610120820151825173ffffffffffffffffffffffffffffffffffffffff9081166000908152600660209081526040808320606088015190941683529290522054111561221157600661215b565b60038152919050565b60005460ff1615612257576040517f08c379a000000000000000000000000000000000000000000000000000000000815260040161088190615b63565b600080547fffffffffffffffffffffffffffffffffffffffffffffffffffffffffffffff0016600117905561228b816131f9565b50600080547fffffffffffffffffffffffffffffffffffffffffffffffffffffffffffffff00169055565b600660209081526000928352604080842090915290825290205481565b60018054604080516020600284861615610100027fffffffffffffffffffffffffffffffffffffffffffffffffffffffffffffffff0190941693909304601f810184900484028201840190925281815292918301828280156123765780601f1061234b57610100808354040283529160200191612376565b820191906000526020600020905b81548152906001019060200180831161235957829003601f168201915b505050505081565b6123866145bd565b606060008060006123956145bd565b8860008151811015156123a457fe5b906020019060200201516101600151945088519350600092505b828414612447578489848151811015156123d457fe5b9060200190602002015161016001819052506123f48887602001516132fc565b9150612420898481518110151561240757fe5b9060200190602002015183898681518110151561104957fe5b905061242c868261292b565b6020860151881161243c57612447565b6001909201916123be565b50505050509392505050565b60006107f4848484613a4b565b60006107f4848484613ac8565b6124756145bd565b6107f78383613b45565b60025481565b61248d6145bd565b606060008060008061249d6145bd565b60005460ff16156124da576040517f08c379a000000000000000000000000000000000000000000000000000000000815260040161088190615b63565b600080547fffffffffffffffffffffffffffffffffffffffffffffffffffffffffffffff001660011781558a518b9190811061251257fe5b906020019060200201516101400151955089519450600093505b8385146125c157858a8581518110151561254257fe5b602090810290910101516101400152865161255e908a906132fc565b92506125718a85815181101515611b4757fe5b915061259d8a8581518110151561258457fe5b90602001906020020151838a8781518110151561090457fe5b90506125a9878261292b565b865189116125b6576125c1565b60019093019261252c565b5050600080547fffffffffffffffffffffffffffffffffffffffffffffffffffffffffffffff0016905550929695505050505050565b600a5473ffffffffffffffffffffffffffffffffffffffff1681565b60035473ffffffffffffffffffffffffffffffffffffffff163314612664576040517f08c379a000000000000000000000000000000000000000000000000000000000815260040161088190615b73565b73ffffffffffffffffffffffffffffffffffffffff8116156126c157600380547fffffffffffffffffffffffff00000000000000000000000000000000000000001673ffffffffffffffffffffffffffffffffffffffff83161790555b50565b60408051808201909152600b81527f322e302e312d616c706861000000000000000000000000000000000000000000602082015281565b600080808411612737576040517f08c379a000000000000000000000000000000000000000000000000000000000815260040161088190615a43565b821580612742575084155b156127505760009150610c43565b8380151561275a57fe5b85840990506127698584613ba6565b6127756103e883613ba6565b101595945050505050565b61278e828260200151613c0c565b600084815260046020908152604091829020929092558681015187518451938501518584015160608701516101408c01516101608d015196518b9873ffffffffffffffffffffffffffffffffffffffff9788169897909616967f0bcc4c97732e47d9946f229edb95f5b6323f601300e4690de719993f3c3711299661281d968f96339692959194909390615829565b60405180910390a45050505050565b6000808311612867576040517f08c379a000000000000000000000000000000000000000000000000000000000815260040161088190615a43565b6107f46128876128778685613ba6565b6128828660016132fc565b613c0c565b84613c4b565b6128956145bd565b61289d614615565b60008060006128ab88612120565b93506128b561298d565b92506128c3888585896129be565b6128d58860a0015185604001516132fc565b91506128e18783613c62565b90506128f4888589848960000151612d3d565b6128fe8882613b45565b945061291588848660200151876040015189612780565b612920888487613c71565b505050509392505050565b815181516129399190613c0c565b82526020808301519082015161294f9190613c0c565b6020830152604080830151908201516129689190613c0c565b6040830152606080830151908201516129819190613c0c565b60609092019190915250565b600a5460009073ffffffffffffffffffffffffffffffffffffffff168181156129b657816107f7565b339392505050565b825160ff166003146129fc576040517f08c379a000000000000000000000000000000000000000000000000000000000815260040161088190615b93565b606084015173ffffffffffffffffffffffffffffffffffffffff1615612a6f57606084015173ffffffffffffffffffffffffffffffffffffffff163314612a6f576040517f08c379a000000000000000000000000000000000000000000000000000000000815260040161088190615ba3565b602084015173ffffffffffffffffffffffffffffffffffffffff1615612afa578173ffffffffffffffffffffffffffffffffffffffff16846020015173ffffffffffffffffffffffffffffffffffffffff16141515612afa576040517f08c379a0000000000000000000000000000000000000000000000000000000008152600401610881906159e3565b60408301511515612b5057612b18836020015185600001518361153e565b1515612b50576040517f08c379a000000000000000000000000000000000000000000000000000000000815260040161088190615a53565b50505050565b612b688260a001518260a00151613ba6565b612b7a83608001518360800151613ba6565b1015612bb2576040517f08c379a000000000000000000000000000000000000000000000000000000000815260040161088190615bb3565b5050565b612bbe6145e6565b600080600080612bd28960a00151886132fc565b9350612be789608001518a60a0015186613a4b565b9250612bf78860a00151876132fc565b9150612c0c88608001518960a0015184613a4b565b9050808410612c4f5760208086018051839052805182018490525151865182015260808a015160a08b0151875190920151612c479290613a4b565b855152612c8c565b845183905284516020908101859052855181015190860180519190915260a089015160808a0151915151612c839290613ac8565b60208087015101525b8451516020808701510151612ca191906132fc565b604086015284515160808a015160c08b0151612cbe929190613a4b565b85516040015284516020015160a08a015160e08b0151612cdf929190613a4b565b855160600152602085015151608089015160c08a0151612d00929190613a4b565b85602001516040018181525050612d288560200151602001518960a001518a60e00151613a4b565b60208601516060015250505050949350505050565b821515612d76576040517f08c379a000000000000000000000000000000000000000000000000000000000815260040161088190615ad3565b82821115612db0576040517f08c379a000000000000000000000000000000000000000000000000000000000815260040161088190615ac3565b8460a00151612dc3856040015184613c0c565b1115612dfb576040517f08c379a0000000000000000000000000000000000000000000000000000000008152600401610881906159f3565b612e09856080015183613ba6565b612e17828760a00151613ba6565b111561080b576040517f08c379a000000000000000000000000000000000000000000000000000000000815260040161088190615b53565b60018054604080516020601f60027fffffffffffffffffffffffffffffffffffffffffffffffffffffffffffffffff6101008789161502019095169490940493840181900481028201810190925282815260609390929091830182828015612ef85780601f10612ecd57610100808354040283529160200191612ef8565b820191906000526020600020905b815481529060010190602001808311612edb57829003601f168201915b50505050509050612f2085610140015186600001518660000151856020015160200151613d7b565b61014084015184518651845160200151612f3c93929190613d7b565b612f558561014001518660000151858560400151613d7b565b612f718186600001518760400151856000015160400151613d7b565b612f8d8185600001518660400151856020015160400151613d7b565b836040015173ffffffffffffffffffffffffffffffffffffffff16856040015173ffffffffffffffffffffffffffffffffffffffff161415612ff757612ff281848760400151612fed866000015160600151876020015160600151613c0c565b613d7b565b61080b565b61300f81848760400151856000015160600151613d7b565b61080b81848660400151856020015160600151613d7b565b604080517fb4be83d5000000000000000000000000000000000000000000000000000000006020808301919091526060602483018181528751608485019081528884015160a48601529488015160c48501529087015160e4840152608087015161010484015260a087015161012484015260c087015161014484015260e08701516101648401526101008701516101848401526101208701516101a4840152610140870180516101c485019081526101608901516101e4860152610180905251805161020485018190529394919384936044870192849261022489019291820191601f82010460005b8181101561312e578351855260209485019490930192600101613110565b50505050818103610160808401919091528a0151805180835260209283019291820191601f82010460005b81811015613177578351855260209485019490930192600101613159565b50505089845250848103602093840190815288518083529093918201918981019190601f82010460005b818110156131bf5783518552602094850194909301926001016131a1565b5050507fffffffffffffffffffffffffffffffffffffffffffffffffffffffffffffffe08883030188525060405250505050509392505050565b613201614615565b61320a82612120565b90506132168282613f45565b612bb282826020015161405c565b61322c6145bd565b61323784848461288d565b602081015190915083146107f7576040517f08c379a000000000000000000000000000000000000000000000000000000000815260040161088190615b43565b6000808084116132b3576040517f08c379a000000000000000000000000000000000000000000000000000000000815260040161088190615a43565b8215806132be575084155b156132cc5760009150610c43565b838015156132d657fe5b8584099050836132e685836132fc565b8115156132ef57fe5b0690506127698584613ba6565b600082821115613338576040517f08c379a000000000000000000000000000000000000000000000000000000000815260040161088190615a03565b50900390565b600080825111151561337c576040517f08c379a000000000000000000000000000000000000000000000000000000000815260040161088190615af3565b815182907fffffffffffffffffffffffffffffffffffffffffffffffffffffffffffffffff81019081106133ac57fe5b016020015182517fffffffffffffffffffffffffffffffffffffffffffffffffffffffffffffffff01909252507f0100000000000000000000000000000000000000000000000000000000000000908190040290565b600081602001835110151515613444576040517f08c379a000000000000000000000000000000000000000000000000000000000815260040161088190615a23565b50016020015190565b6040516000906060907f1626ba7e00000000000000000000000000000000000000000000000000000000906134889087908690602401615944565b604080517fffffffffffffffffffffffffffffffffffffffffffffffffffffffffffffffe0818403018152919052602080820180517bffffffffffffffffffffffffffffffffffffffffffffffffffffffff167fffffffff00000000000000000000000000000000000000000000000000000000909416939093178352815191935090829081885afa808015613525576001811461359657612920565b7f08c379a0000000000000000000000000000000000000000000000000000000006000527c20000000000000000000000000000000000000000000000000000000006020527c0c57414c4c45545f4552524f5200000000000000000000000000000000604052600060605260646000fd5b50505195945050505050565b600060148251101515156135e2576040517f08c379a000000000000000000000000000000000000000000000000000000000815260040161088190615b83565b6135f0826014845103614103565b82517fffffffffffffffffffffffffffffffffffffffffffffffffffffffffffffffec019092525090565b6040516000906060907f93634702000000000000000000000000000000000000000000000000000000009061365890879087908790602401615917565b604080517fffffffffffffffffffffffffffffffffffffffffffffffffffffffffffffffe0818403018152919052602080820180517bffffffffffffffffffffffffffffffffffffffffffffffffffffffff167fffffffff000000000000000000000000000000000000000000000000000000009094169390931783528151919350908290818a5afa8080156136f557600181146137665761376b565b7f08c379a0000000000000000000000000000000000000000000000000000000006000527c20000000000000000000000000000000000000000000000000000000006020527c0f56414c494441544f525f4552524f5200000000000000000000000000604052600060605260646000fd5b825194505b50505050949350505050565b60008083116137b2576040517f08c379a000000000000000000000000000000000000000000000000000000000815260040161088190615a43565b6107f46128878584613ba6565b604080517f5a65726f45785472616e73616374696f6e2800000000000000000000000000006020808301919091527f75696e743235362073616c742c0000000000000000000000000000000000000060328301527f61646472657373207369676e6572416464726573732c00000000000000000000603f8301527f627974657320646174610000000000000000000000000000000000000000000060558301527f2900000000000000000000000000000000000000000000000000000000000000605f830152825180830384018152606090920192839052815160009384938493909282918401908083835b602083106138e857805182527fffffffffffffffffffffffffffffffffffffffffffffffffffffffffffffffe090920191602091820191016138ab565b51815160209384036101000a7fffffffffffffffffffffffffffffffffffffffffffffffffffffffffffffffff018019909216911617905260405191909301819003812089519097508995509093508392850191508083835b6020831061397e57805182527fffffffffffffffffffffffffffffffffffffffffffffffffffffffffffffffe09092019160209182019101613941565b51815160209384036101000a7fffffffffffffffffffffffffffffffffffffffffffffffffffffffffffffffff01801990921691161790526040805192909401829003822097825281019a909a525073ffffffffffffffffffffffffffffffffffffffff97909716968801969096525050606085015250506080909120919050565b600280546040517f190100000000000000000000000000000000000000000000000000000000000081529182015260228101919091526042902090565b600061119c611ced83614164565b6000808311613a86576040517f08c379a000000000000000000000000000000000000000000000000000000000815260040161088190615a43565b613a918484846126fb565b156137b2576040517f08c379a000000000000000000000000000000000000000000000000000000000815260040161088190615aa3565b6000808311613b03576040517f08c379a000000000000000000000000000000000000000000000000000000000815260040161088190615a43565b613b0e848484613277565b15612867576040517f08c379a000000000000000000000000000000000000000000000000000000000815260040161088190615aa3565b613b4d6145bd565b6020810182905260a08301516080840151613b69918491613a4b565b808252608084015160c0850151613b81929190613a4b565b604082015260a083015160e0840151613b9b918491613a4b565b606082015292915050565b600080831515613bb95760009150613c05565b50828202828482811515613bc957fe5b0414613c01576040517f08c379a000000000000000000000000000000000000000000000000000000000815260040161088190615a73565b8091505b5092915050565b600082820183811015613c01576040517f08c379a000000000000000000000000000000000000000000000000000000000815260040161088190615a73565b6000808284811515613c5957fe5b04949350505050565b600081831061119957816107f7565b60018054604080516020601f60027fffffffffffffffffffffffffffffffffffffffffffffffffffffffffffffffff6101008789161502019095169490940493840181900481028201810190925282815260609390929091830182828015613d1a5780601f10613cef57610100808354040283529160200191613d1a565b820191906000526020600020905b815481529060010190602001808311613cfd57829003601f168201915b50505050509050613d3a8461014001518560000151858560000151613d7b565b613d538461016001518486600001518560200151613d7b565b613d6b81856000015186604001518560400151613d7b565b612b508184866040015185606001515b600080600083118015613dba57508373ffffffffffffffffffffffffffffffffffffffff168573ffffffffffffffffffffffffffffffffffffffff1614155b15613f3d578551600310613dfa576040517f08c379a000000000000000000000000000000000000000000000000000000000815260040161088190615b33565b50506020848101517fffffffff00000000000000000000000000000000000000000000000000000000166000818152600b90925260409091205473ffffffffffffffffffffffffffffffffffffffff16801515613e83576040517f08c379a000000000000000000000000000000000000000000000000000000000815260040161088190615ae3565b604051660fffffffffffe0603f885101168060840182017fa85e59e40000000000000000000000000000000000000000000000000000000083526080600484015273ffffffffffffffffffffffffffffffffffffffff8816602484015273ffffffffffffffffffffffffffffffffffffffff87166044840152856064840152608483015b81811015613f1f57895181526020998a019901613f07565b61020084858403866000895af1801515613f37573d85fd5b50505050505b505050505050565b805160009060ff16600314613f86576040517f08c379a000000000000000000000000000000000000000000000000000000000815260040161088190615b93565b606083015173ffffffffffffffffffffffffffffffffffffffff1615613ff957606083015173ffffffffffffffffffffffffffffffffffffffff163314613ff9576040517f08c379a000000000000000000000000000000000000000000000000000000000815260040161088190615ba3565b61400161298d565b835190915073ffffffffffffffffffffffffffffffffffffffff808316911614614057576040517f08c379a000000000000000000000000000000000000000000000000000000000815260040161088190615a63565b505050565b6000818152600560205260409081902080547fffffffffffffffffffffffffffffffffffffffffffffffffffffffffffffff001660011790558281015183516101408501516101608601519351859473ffffffffffffffffffffffffffffffffffffffff9485169493909316927fdc47b3613d9fe400085f6dbdc99453462279057e6207385042827ed6b1a62cf7926140f7923392906158ad565b60405180910390a45050565b600081601401835110151515614145576040517f08c379a000000000000000000000000000000000000000000000000000000000815260040161088190615b83565b50016014015173ffffffffffffffffffffffffffffffffffffffff1690565b604080517f4f726465722800000000000000000000000000000000000000000000000000006020808301919091527f61646472657373206d616b6572416464726573732c000000000000000000000060268301527f616464726573732074616b6572416464726573732c0000000000000000000000603b8301527f6164647265737320666565526563697069656e74416464726573732c0000000060508301527f616464726573732073656e646572416464726573732c00000000000000000000606c8301527f75696e74323536206d616b65724173736574416d6f756e742c0000000000000060828301527f75696e743235362074616b65724173736574416d6f756e742c00000000000000609b8301527f75696e74323536206d616b65724665652c00000000000000000000000000000060b48301527f75696e743235362074616b65724665652c00000000000000000000000000000060c58301527f75696e743235362065787069726174696f6e54696d655365636f6e64732c000060d68301527f75696e743235362073616c742c0000000000000000000000000000000000000060f48301527f6279746573206d616b65724173736574446174612c00000000000000000000006101018301527f62797465732074616b65724173736574446174610000000000000000000000006101168301527f290000000000000000000000000000000000000000000000000000000000000061012a830152825161010b81840301815261012b90920192839052815160009384938493849391929182918401908083835b602083106143ec57805182527fffffffffffffffffffffffffffffffffffffffffffffffffffffffffffffffe090920191602091820191016143af565b51815160209384036101000a7fffffffffffffffffffffffffffffffffffffffffffffffffffffffffffffffff01801990921691161790526040519190930181900381206101408b0151805191995095509093508392850191508083835b6020831061448757805182527fffffffffffffffffffffffffffffffffffffffffffffffffffffffffffffffe0909201916020918201910161444a565b51815160209384036101000a7fffffffffffffffffffffffffffffffffffffffffffffffffffffffffffffffff01801990921691161790526040519190930181900381206101608b0151805191985095509093508392850191508083835b6020831061452257805182527fffffffffffffffffffffffffffffffffffffffffffffffffffffffffffffffe090920191602091820191016144e5565b5181516020939093036101000a7fffffffffffffffffffffffffffffffffffffffffffffffffffffffffffffffff018019909116921691909117905260405192018290039091207fffffffffffffffffffffffffffffffffffffffffffffffffffffffffffffffe0890180516101408b018051610160909c0180519a84529881529288526101a0822091529890525050509190525090919050565b608060405190810160405280600081526020016000815260200160008152602001600081525090565b610120604051908101604052806145fb6145bd565b81526020016146086145bd565b8152602001600081525090565b604080516060810182526000808252602082018190529181019190915290565b60006107f78235615ca6565b6000601f8201831361465257600080fd5b813561466561466082615c35565b615c0e565b81815260209384019390925082018360005b838110156146a3578135860161468d88826147f3565b8452506020928301929190910190600101614677565b5050505092915050565b6000601f820183136146be57600080fd5b81356146cc61466082615c35565b81815260209384019390925082018360005b838110156146a357813586016146f488826148b1565b84525060209283019291909101906001016146de565b6000601f8201831361471b57600080fd5b813561472961466082615c35565b9150818183526020840193506020810190508385602084028201111561474e57600080fd5b60005b838110156146a357816147648882614786565b8452506020928301929190910190600101614751565b60006107f78235615cbf565b60006107f78235615cc4565b60006107f78235615cc7565b60006107f78251615cc7565b600080601f830184136147bc57600080fd5b50813567ffffffffffffffff8111156147d457600080fd5b6020830191508360018202830111156147ec57600080fd5b9250929050565b6000601f8201831361480457600080fd5b813561481261466082615c56565b9150808252602083016020830185838301111561482e57600080fd5b614839838284615cfd565b50505092915050565b60006080828403121561485457600080fd5b61485e6080615c0e565b9050600061486c8484614786565b825250602061487d84848301614786565b602083015250604061489184828501614786565b60408301525060606148a584828501614786565b60608301525092915050565b600061018082840312156148c457600080fd5b6148cf610180615c0e565b905060006148dd8484614635565b82525060206148ee84848301614635565b602083015250604061490284828501614635565b604083015250606061491684828501614635565b606083015250608061492a84828501614786565b60808301525060a061493e84828501614786565b60a08301525060c061495284828501614786565b60c08301525060e061496684828501614786565b60e08301525061010061497b84828501614786565b6101008301525061012061499184828501614786565b6101208301525061014082013567ffffffffffffffff8111156149b357600080fd5b6149bf848285016147f3565b6101408301525061016082013567ffffffffffffffff8111156149e157600080fd5b6149ed848285016147f3565b6101608301525092915050565b600060208284031215614a0c57600080fd5b6000614a188484614635565b949350505050565b60008060408385031215614a3357600080fd5b6000614a3f8585614635565b9250506020614a5085828601614635565b9150509250929050565b60008060408385031215614a6d57600080fd5b6000614a798585614635565b9250506020614a508582860161477a565b600060208284031215614a9c57600080fd5b813567ffffffffffffffff811115614ab357600080fd5b614a18848285016146ad565b600080600060608486031215614ad457600080fd5b833567ffffffffffffffff811115614aeb57600080fd5b614af7868287016146ad565b935050602084013567ffffffffffffffff811115614b1457600080fd5b614b208682870161470a565b925050604084013567ffffffffffffffff811115614b3d57600080fd5b614b4986828701614641565b9150509250925092565b600080600060608486031215614b6857600080fd5b833567ffffffffffffffff811115614b7f57600080fd5b614b8b868287016146ad565b9350506020614b2086828701614786565b600060208284031215614bae57600080fd5b6000614a188484614786565b60008060408385031215614bcd57600080fd5b6000614a3f8585614786565b60008060008060608587031215614bef57600080fd5b6000614bfb8787614786565b9450506020614c0c87828801614635565b935050604085013567ffffffffffffffff811115614c2957600080fd5b614c35878288016147aa565b95989497509550505050565b600080600060608486031215614c5657600080fd5b6000614c628686614786565b9350506020614c7386828701614635565b925050604084013567ffffffffffffffff811115614c9057600080fd5b614b49868287016147f3565b600060208284031215614cae57600080fd5b6000614a188484614792565b600060208284031215614ccc57600080fd5b6000614a18848461479e565b6000806101008385031215614cec57600080fd5b6000614cf88585614842565b9250506080614a5085828601614842565b600060208284031215614d1b57600080fd5b813567ffffffffffffffff811115614d3257600080fd5b614a18848285016148b1565b60008060008060006101008688031215614d5757600080fd5b853567ffffffffffffffff811115614d6e57600080fd5b614d7a888289016148b1565b9550506020614d8b88828901614635565b9450506040614d9c88828901614786565b9350506060614dad88828901614786565b9250506080614dbe88828901614842565b9150509295509295909350565b60008060008060808587031215614de157600080fd5b843567ffffffffffffffff811115614df857600080fd5b614e04878288016148b1565b945050602085013567ffffffffffffffff811115614e2157600080fd5b614e2d878288016148b1565b935050604085013567ffffffffffffffff811115614e4a57600080fd5b614e56878288016147f3565b925050606085013567ffffffffffffffff811115614e7357600080fd5b614e7f878288016147f3565b91505092959194509250565b60008060408385031215614e9e57600080fd5b823567ffffffffffffffff811115614eb557600080fd5b614ec1858286016148b1565b9250506020614a5085828601614786565b600080600060608486031215614ee757600080fd5b833567ffffffffffffffff811115614efe57600080fd5b614f0a868287016148b1565b9350506020614c7386828701614786565b60008060008060008060808789031215614f3457600080fd5b6000614f408989614786565b9650506020614f5189828a01614635565b955050604087013567ffffffffffffffff811115614f6e57600080fd5b614f7a89828a016147aa565b9450945050606087013567ffffffffffffffff811115614f9957600080fd5b614fa589828a016147aa565b92509250509295509295509295565b600080600060608486031215614fc957600080fd5b6000614fd58686614786565b9350506020614fe686828701614786565b9250506040614b4986828701614786565b61500081615ca6565b82525050565b600061501182615ca2565b80845260208401935061502383615c9c565b60005b82811015615053576150398683516157db565b61504282615c9c565b606096909601959150600101615026565b5093949350505050565b61500081615cbf565b61500081615cc4565b61500081615cc7565b600061508382615ca2565b808452615097816020860160208601615d09565b6150a081615d35565b9093016020019392505050565b61500081615cf2565b601281527f4c454e4754485f36355f52455155495245440000000000000000000000000000602082015260400190565b600d81527f494e56414c49445f54414b455200000000000000000000000000000000000000602082015260400190565b600e81527f4f524445525f4f56455246494c4c000000000000000000000000000000000000602082015260400190565b601181527f55494e543235365f554e444552464c4f57000000000000000000000000000000602082015260400190565b601a81527f41535345545f50524f58595f414c52454144595f455849535453000000000000602082015260400190565b602681527f475245415445525f4f525f455155414c5f544f5f33325f4c454e4754485f524560208201527f5155495245440000000000000000000000000000000000000000000000000000604082015260600190565b601581527f5349474e41545552455f554e535550504f525445440000000000000000000000602082015260400190565b601081527f4449564953494f4e5f42595f5a45524f00000000000000000000000000000000602082015260400190565b601781527f494e56414c49445f4f524445525f5349474e4154555245000000000000000000602082015260400190565b600d81527f494e56414c49445f4d414b455200000000000000000000000000000000000000602082015260400190565b601081527f55494e543235365f4f564552464c4f5700000000000000000000000000000000602082015260400190565b600f81527f494e56414c49445f54585f484153480000000000000000000000000000000000602082015260400190565b601181527f494e56414c49445f5349474e4154555245000000000000000000000000000000602082015260400190565b600e81527f524f554e44494e475f4552524f52000000000000000000000000000000000000602082015260400190565b601081527f4641494c45445f455845435554494f4e00000000000000000000000000000000602082015260400190565b600d81527f54414b45525f4f56455250415900000000000000000000000000000000000000602082015260400190565b601481527f494e56414c49445f54414b45525f414d4f554e54000000000000000000000000602082015260400190565b601a81527f41535345545f50524f58595f444f45535f4e4f545f4558495354000000000000602082015260400190565b602181527f475245415445525f5448414e5f5a45524f5f4c454e4754485f5245515549524560208201527f4400000000000000000000000000000000000000000000000000000000000000604082015260600190565b601181527f5349474e41545552455f494c4c4547414c000000000000000000000000000000602082015260400190565b601e81527f4c454e4754485f475245415445525f5448414e5f305f52455155495245440000602082015260400190565b601781527f494e56414c49445f4e45575f4f524445525f45504f4348000000000000000000602082015260400190565b601e81527f4c454e4754485f475245415445525f5448414e5f335f52455155495245440000602082015260400190565b601481527f434f4d504c4554455f46494c4c5f4641494c4544000000000000000000000000602082015260400190565b601281527f494e56414c49445f46494c4c5f50524943450000000000000000000000000000602082015260400190565b601281527f5245454e5452414e43595f494c4c4547414c0000000000000000000000000000602082015260400190565b601381527f4f4e4c595f434f4e54524143545f4f574e455200000000000000000000000000602082015260400190565b602681527f475245415445525f4f525f455155414c5f544f5f32305f4c454e4754485f524560208201527f5155495245440000000000000000000000000000000000000000000000000000604082015260600190565b601081527f4f524445525f554e46494c4c41424c4500000000000000000000000000000000602082015260400190565b600e81527f494e56414c49445f53454e444552000000000000000000000000000000000000602082015260400190565b601881527f4e454741544956455f5350524541445f52455155495245440000000000000000602082015260400190565b601481527f494e56414c49445f54585f5349474e4154555245000000000000000000000000602082015260400190565b601181527f4c454e4754485f305f5245515549524544000000000000000000000000000000602082015260400190565b805160808301906157698482615066565b50602082015161577c6020850182615066565b50604082015161578f6040850182615066565b506060820151612b506060850182615066565b80516101208301906157b48482615758565b5060208201516157c76080850182615758565b506040820151612b50610100850182615066565b805160608301906157ec8482615812565b5060208201516157ff6020850182615066565b506040820151612b506040850182615066565b61500081615cec565b6020810161119c8284614ff7565b6101008101615838828b614ff7565b615845602083018a614ff7565b6158526040830189615066565b61585f6060830188615066565b61586c6080830187615066565b61587960a0830186615066565b81810360c083015261588b8185615078565b905081810360e083015261589f8184615078565b9a9950505050505050505050565b606081016158bb8286614ff7565b81810360208301526158cd8185615078565b905081810360408301526158e18184615078565b95945050505050565b602080825281016107f78184615006565b6020810161119c828461505d565b6020810161119c8284615066565b606081016159258286615066565b6159326020830185614ff7565b81810360408301526158e18184615078565b604081016159528285615066565b81810360208301526107f48184615078565b608081016159728287615066565b61597f6020830186615812565b61598c6040830185615066565b6158e16060830184615066565b604081016159a7828561506f565b6107f76020830184614ff7565b602080825281016107f78184615078565b6020810161119c82846150ad565b6020808252810161119c816150b6565b6020808252810161119c816150e6565b6020808252810161119c81615116565b6020808252810161119c81615146565b6020808252810161119c81615176565b6020808252810161119c816151a6565b6020808252810161119c816151fc565b6020808252810161119c8161522c565b6020808252810161119c8161525c565b6020808252810161119c8161528c565b6020808252810161119c816152bc565b6020808252810161119c816152ec565b6020808252810161119c8161531c565b6020808252810161119c8161534c565b6020808252810161119c8161537c565b6020808252810161119c816153ac565b6020808252810161119c816153dc565b6020808252810161119c8161540c565b6020808252810161119c8161543c565b6020808252810161119c81615492565b6020808252810161119c816154c2565b6020808252810161119c816154f2565b6020808252810161119c81615522565b6020808252810161119c81615552565b6020808252810161119c81615582565b6020808252810161119c816155b2565b6020808252810161119c816155e2565b6020808252810161119c81615612565b6020808252810161119c81615668565b6020808252810161119c81615698565b6020808252810161119c816156c8565b6020808252810161119c816156f8565b6020808252810161119c81615728565b6080810161119c8284615758565b610120810161119c82846157a2565b6060810161119c82846157db565b60405181810167ffffffffffffffff81118282101715615c2d57600080fd5b604052919050565b600067ffffffffffffffff821115615c4c57600080fd5b5060209081020190565b600067ffffffffffffffff821115615c6d57600080fd5b506020601f919091017fffffffffffffffffffffffffffffffffffffffffffffffffffffffffffffffe0160190565b60200190565b5190565b73ffffffffffffffffffffffffffffffffffffffff1690565b151590565b90565b7fffffffff000000000000000000000000000000000000000000000000000000001690565b60ff1690565b600061119c82615ca6565b82818337506000910152565b60005b83811015615d24578181015183820152602001615d0c565b83811115612b505750506000910152565b601f017fffffffffffffffffffffffffffffffffffffffffffffffffffffffffffffffe016905600a265627a7a72305820a0d8acecb3333dd721a822fb1c86c7714fc5a48327fd1bd94e3356ca224d82826c6578706572696d656e74616cf50037",
				"opcodes": "PUSH1 0x80 PUSH1 0x40 MSTORE PUSH1 0x0 DUP1 SLOAD PUSH1 0xFF NOT AND SWAP1 SSTORE CALLVALUE DUP1 ISZERO PUSH3 0x1B JUMPI PUSH1 0x0 DUP1 REVERT JUMPDEST POP PUSH1 0x40 DUP1 MLOAD PUSH1 0x20 DUP2 ADD SWAP2 DUP3 SWAP1 MSTORE PUSH1 0x0 DUP1 DUP3 MSTORE SWAP1 SWAP2 DUP3 SWAP2 PUSH3 0x3F SWAP2 PUSH1 0x1 SWAP2 PUSH3 0x333 JUMP JUMPDEST POP POP PUSH1 0x40 DUP1 MLOAD PUSH32 0x454950373132446F6D61696E2800000000000000000000000000000000000000 PUSH1 0x20 DUP1 DUP4 ADD SWAP2 SWAP1 SWAP2 MSTORE PUSH32 0x737472696E67206E616D652C0000000000000000000000000000000000000000 PUSH1 0x2D DUP4 ADD MSTORE PUSH32 0x737472696E672076657273696F6E2C0000000000000000000000000000000000 PUSH1 0x39 DUP4 ADD MSTORE PUSH32 0x6164647265737320766572696679696E67436F6E747261637400000000000000 PUSH1 0x48 DUP4 ADD MSTORE PUSH32 0x2900000000000000000000000000000000000000000000000000000000000000 PUSH1 0x61 DUP4 ADD MSTORE DUP3 MLOAD PUSH1 0x42 DUP2 DUP5 SUB ADD DUP2 MSTORE PUSH1 0x62 SWAP1 SWAP3 ADD SWAP3 DUP4 SWAP1 MSTORE DUP2 MLOAD SWAP2 SWAP3 SWAP2 DUP3 SWAP2 DUP5 ADD SWAP1 DUP1 DUP4 DUP4 JUMPDEST PUSH1 0x20 DUP4 LT PUSH3 0x149 JUMPI DUP1 MLOAD DUP3 MSTORE PUSH1 0x1F NOT SWAP1 SWAP3 ADD SWAP2 PUSH1 0x20 SWAP2 DUP3 ADD SWAP2 ADD PUSH3 0x128 JUMP JUMPDEST MLOAD DUP2 MLOAD PUSH1 0x20 SWAP4 DUP5 SUB PUSH2 0x100 EXP PUSH1 0x0 NOT ADD DUP1 NOT SWAP1 SWAP3 AND SWAP2 AND OR SWAP1 MSTORE PUSH1 0x40 DUP1 MLOAD SWAP3 SWAP1 SWAP5 ADD DUP3 SWAP1 SUB DUP3 KECCAK256 DUP3 DUP6 ADD DUP6 MSTORE PUSH1 0xB DUP1 DUP5 MSTORE PUSH32 0x30782050726F746F636F6C000000000000000000000000000000000000000000 SWAP3 DUP5 ADD SWAP3 DUP4 MSTORE SWAP5 MLOAD SWAP1 SWAP7 POP SWAP2 SWAP5 POP SWAP1 SWAP3 DUP4 SWAP3 POP DUP1 DUP4 DUP4 JUMPDEST PUSH1 0x20 DUP4 LT PUSH3 0x1D3 JUMPI DUP1 MLOAD DUP3 MSTORE PUSH1 0x1F NOT SWAP1 SWAP3 ADD SWAP2 PUSH1 0x20 SWAP2 DUP3 ADD SWAP2 ADD PUSH3 0x1B2 JUMP JUMPDEST MLOAD DUP2 MLOAD PUSH1 0x20 SWAP4 DUP5 SUB PUSH2 0x100 EXP PUSH1 0x0 NOT ADD DUP1 NOT SWAP1 SWAP3 AND SWAP2 AND OR SWAP1 MSTORE PUSH1 0x40 DUP1 MLOAD SWAP3 SWAP1 SWAP5 ADD DUP3 SWAP1 SUB DUP3 KECCAK256 DUP3 DUP6 ADD DUP6 MSTORE PUSH1 0x1 DUP1 DUP5 MSTORE PUSH32 0x3200000000000000000000000000000000000000000000000000000000000000 SWAP3 DUP5 ADD SWAP3 DUP4 MSTORE SWAP5 MLOAD SWAP1 SWAP7 POP SWAP2 SWAP5 POP SWAP1 SWAP3 DUP4 SWAP3 POP DUP1 DUP4 DUP4 JUMPDEST PUSH1 0x20 DUP4 LT PUSH3 0x25D JUMPI DUP1 MLOAD DUP3 MSTORE PUSH1 0x1F NOT SWAP1 SWAP3 ADD SWAP2 PUSH1 0x20 SWAP2 DUP3 ADD SWAP2 ADD PUSH3 0x23C JUMP JUMPDEST MLOAD DUP2 MLOAD PUSH1 0x20 SWAP4 DUP5 SUB PUSH2 0x100 EXP PUSH1 0x0 NOT ADD DUP1 NOT SWAP1 SWAP3 AND SWAP2 AND OR SWAP1 MSTORE PUSH1 0x40 DUP1 MLOAD SWAP3 SWAP1 SWAP5 ADD DUP3 SWAP1 SUB DUP3 KECCAK256 DUP3 DUP3 ADD SWAP9 SWAP1 SWAP9 MSTORE DUP2 DUP5 ADD SWAP7 SWAP1 SWAP7 MSTORE PUSH1 0x60 DUP2 ADD SWAP7 SWAP1 SWAP7 MSTORE POP ADDRESS PUSH1 0x80 DUP1 DUP8 ADD SWAP2 SWAP1 SWAP2 MSTORE DUP2 MLOAD DUP1 DUP8 SUB SWAP1 SWAP2 ADD DUP2 MSTORE PUSH1 0xA0 SWAP1 SWAP6 ADD SWAP1 DUP2 SWAP1 MSTORE DUP5 MLOAD SWAP1 SWAP4 DUP5 SWAP4 POP DUP6 ADD SWAP2 POP DUP1 DUP4 DUP4 JUMPDEST PUSH1 0x20 DUP4 LT PUSH3 0x2E8 JUMPI DUP1 MLOAD DUP3 MSTORE PUSH1 0x1F NOT SWAP1 SWAP3 ADD SWAP2 PUSH1 0x20 SWAP2 DUP3 ADD SWAP2 ADD PUSH3 0x2C7 JUMP JUMPDEST MLOAD DUP2 MLOAD PUSH1 0x0 NOT PUSH1 0x20 SWAP5 SWAP1 SWAP5 SUB PUSH2 0x100 EXP SWAP4 SWAP1 SWAP4 ADD SWAP3 DUP4 AND SWAP3 NOT AND SWAP2 SWAP1 SWAP2 OR SWAP1 MSTORE PUSH1 0x40 MLOAD SWAP3 ADD DUP3 SWAP1 SUB SWAP1 SWAP2 KECCAK256 PUSH1 0x2 SSTORE POP POP PUSH1 0x3 DUP1 SLOAD PUSH1 0x1 PUSH1 0xA0 PUSH1 0x2 EXP SUB NOT AND CALLER OR SWAP1 SSTORE POP PUSH3 0x3D8 SWAP1 POP JUMP JUMPDEST DUP3 DUP1 SLOAD PUSH1 0x1 DUP2 PUSH1 0x1 AND ISZERO PUSH2 0x100 MUL SUB AND PUSH1 0x2 SWAP1 DIV SWAP1 PUSH1 0x0 MSTORE PUSH1 0x20 PUSH1 0x0 KECCAK256 SWAP1 PUSH1 0x1F ADD PUSH1 0x20 SWAP1 DIV DUP2 ADD SWAP3 DUP3 PUSH1 0x1F LT PUSH3 0x376 JUMPI DUP1 MLOAD PUSH1 0xFF NOT AND DUP4 DUP1 ADD OR DUP6 SSTORE PUSH3 0x3A6 JUMP JUMPDEST DUP3 DUP1 ADD PUSH1 0x1 ADD DUP6 SSTORE DUP3 ISZERO PUSH3 0x3A6 JUMPI SWAP2 DUP3 ADD JUMPDEST DUP3 DUP2 GT ISZERO PUSH3 0x3A6 JUMPI DUP3 MLOAD DUP3 SSTORE SWAP2 PUSH1 0x20 ADD SWAP2 SWAP1 PUSH1 0x1 ADD SWAP1 PUSH3 0x389 JUMP JUMPDEST POP PUSH3 0x3B4 SWAP3 SWAP2 POP PUSH3 0x3B8 JUMP JUMPDEST POP SWAP1 JUMP JUMPDEST PUSH3 0x3D5 SWAP2 SWAP1 JUMPDEST DUP1 DUP3 GT ISZERO PUSH3 0x3B4 JUMPI PUSH1 0x0 DUP2 SSTORE PUSH1 0x1 ADD PUSH3 0x3BF JUMP JUMPDEST SWAP1 JUMP JUMPDEST PUSH2 0x5D97 DUP1 PUSH3 0x3E8 PUSH1 0x0 CODECOPY PUSH1 0x0 RETURN STOP PUSH1 0x80 PUSH1 0x40 MSTORE PUSH1 0x4 CALLDATASIZE LT PUSH2 0x219 JUMPI PUSH4 0xFFFFFFFF PUSH29 0x100000000000000000000000000000000000000000000000000000000 PUSH1 0x0 CALLDATALOAD DIV AND PUSH4 0x1BE23901 DUP2 EQ PUSH2 0x21E JUMPI DUP1 PUSH4 0x1EA1E3D8 EQ PUSH2 0x254 JUMPI DUP1 PUSH4 0x20777F70 EQ PUSH2 0x276 JUMPI DUP1 PUSH4 0x288CDC91 EQ PUSH2 0x2A3 JUMPI DUP1 PUSH4 0x297BB70B EQ PUSH2 0x2C3 JUMPI DUP1 PUSH4 0x2AC12622 EQ PUSH2 0x2F0 JUMPI DUP1 PUSH4 0x3683EF8E EQ PUSH2 0x310 JUMPI DUP1 PUSH4 0x3C28D861 EQ PUSH2 0x330 JUMPI DUP1 PUSH4 0x3E228BAE EQ PUSH2 0x35D JUMPI DUP1 PUSH4 0x3FD3C997 EQ PUSH2 0x37D JUMPI DUP1 PUSH4 0x4AC14782 EQ PUSH2 0x3AA JUMPI DUP1 PUSH4 0x4D0AE546 EQ PUSH2 0x3CA JUMPI DUP1 PUSH4 0x4F9559B1 EQ PUSH2 0x3EA JUMPI DUP1 PUSH4 0x50DDE190 EQ PUSH2 0x40A JUMPI DUP1 PUSH4 0x60704108 EQ PUSH2 0x42A JUMPI DUP1 PUSH4 0x642F2EAF EQ PUSH2 0x457 JUMPI DUP1 PUSH4 0x64A3BC15 EQ PUSH2 0x477 JUMPI DUP1 PUSH4 0x66758D7B EQ PUSH2 0x497 JUMPI DUP1 PUSH4 0x679D2F9A EQ PUSH2 0x4B7 JUMPI DUP1 PUSH4 0x77FCCE68 EQ PUSH2 0x4D7 JUMPI DUP1 PUSH4 0x7B8E3514 EQ PUSH2 0x4F7 JUMPI DUP1 PUSH4 0x7E1D9808 EQ PUSH2 0x517 JUMPI DUP1 PUSH4 0x7E9D74DC EQ PUSH2 0x537 JUMPI DUP1 PUSH4 0x82C174D0 EQ PUSH2 0x564 JUMPI DUP1 PUSH4 0x8DA5CB5B EQ PUSH2 0x584 JUMPI DUP1 PUSH4 0x93634702 EQ PUSH2 0x599 JUMPI DUP1 PUSH4 0xA3E20380 EQ PUSH2 0x5B9 JUMPI DUP1 PUSH4 0xB4BE83D5 EQ PUSH2 0x5D9 JUMPI DUP1 PUSH4 0xBE7ADA1E EQ PUSH2 0x5F9 JUMPI DUP1 PUSH4 0xBFC8BFCE EQ PUSH2 0x619 JUMPI DUP1 PUSH4 0xC585BB93 EQ PUSH2 0x639 JUMPI DUP1 PUSH4 0xC75E0A81 EQ PUSH2 0x659 JUMPI DUP1 PUSH4 0xD46B02C3 EQ PUSH2 0x686 JUMPI DUP1 PUSH4 0xD9BFA73E EQ PUSH2 0x6A6 JUMPI DUP1 PUSH4 0xDB123B1A EQ PUSH2 0x6C6 JUMPI DUP1 PUSH4 0xDD1C7D18 EQ PUSH2 0x6E8 JUMPI DUP1 PUSH4 0xDE30200D EQ PUSH2 0x708 JUMPI DUP1 PUSH4 0xE0ACD33D EQ PUSH2 0x728 JUMPI DUP1 PUSH4 0xE0B701E3 EQ PUSH2 0x748 JUMPI DUP1 PUSH4 0xE306F779 EQ PUSH2 0x768 JUMPI DUP1 PUSH4 0xE5FA431B EQ PUSH2 0x77D JUMPI DUP1 PUSH4 0xEEA086BA EQ PUSH2 0x79D JUMPI DUP1 PUSH4 0xF2FDE38B EQ PUSH2 0x7B2 JUMPI DUP1 PUSH4 0xFFA1AD74 EQ PUSH2 0x7D2 JUMPI JUMPDEST PUSH1 0x0 DUP1 REVERT JUMPDEST CALLVALUE DUP1 ISZERO PUSH2 0x22A JUMPI PUSH1 0x0 DUP1 REVERT JUMPDEST POP PUSH2 0x23E PUSH2 0x239 CALLDATASIZE PUSH1 0x4 PUSH2 0x4FB4 JUMP JUMPDEST PUSH2 0x7E7 JUMP JUMPDEST PUSH1 0x40 MLOAD PUSH2 0x24B SWAP2 SWAP1 PUSH2 0x58FB JUMP JUMPDEST PUSH1 0x40 MLOAD DUP1 SWAP2 SUB SWAP1 RETURN JUMPDEST CALLVALUE DUP1 ISZERO PUSH2 0x260 JUMPI PUSH1 0x0 DUP1 REVERT JUMPDEST POP PUSH2 0x274 PUSH2 0x26F CALLDATASIZE PUSH1 0x4 PUSH2 0x4D3E JUMP JUMPDEST PUSH2 0x7FE JUMP JUMPDEST STOP JUMPDEST CALLVALUE DUP1 ISZERO PUSH2 0x282 JUMPI PUSH1 0x0 DUP1 REVERT JUMPDEST POP PUSH2 0x296 PUSH2 0x291 CALLDATASIZE PUSH1 0x4 PUSH2 0x4FB4 JUMP JUMPDEST PUSH2 0x812 JUMP JUMPDEST PUSH1 0x40 MLOAD PUSH2 0x24B SWAP2 SWAP1 PUSH2 0x5909 JUMP JUMPDEST CALLVALUE DUP1 ISZERO PUSH2 0x2AF JUMPI PUSH1 0x0 DUP1 REVERT JUMPDEST POP PUSH2 0x296 PUSH2 0x2BE CALLDATASIZE PUSH1 0x4 PUSH2 0x4B9C JUMP JUMPDEST PUSH2 0x81F JUMP JUMPDEST CALLVALUE DUP1 ISZERO PUSH2 0x2CF JUMPI PUSH1 0x0 DUP1 REVERT JUMPDEST POP PUSH2 0x2E3 PUSH2 0x2DE CALLDATASIZE PUSH1 0x4 PUSH2 0x4ABF JUMP JUMPDEST PUSH2 0x831 JUMP JUMPDEST PUSH1 0x40 MLOAD PUSH2 0x24B SWAP2 SWAP1 PUSH2 0x5BE3 JUMP JUMPDEST CALLVALUE DUP1 ISZERO PUSH2 0x2FC JUMPI PUSH1 0x0 DUP1 REVERT JUMPDEST POP PUSH2 0x23E PUSH2 0x30B CALLDATASIZE PUSH1 0x4 PUSH2 0x4B9C JUMP JUMPDEST PUSH2 0x95C JUMP JUMPDEST CALLVALUE DUP1 ISZERO PUSH2 0x31C JUMPI PUSH1 0x0 DUP1 REVERT JUMPDEST POP PUSH2 0x274 PUSH2 0x32B CALLDATASIZE PUSH1 0x4 PUSH2 0x4BD9 JUMP JUMPDEST PUSH2 0x971 JUMP JUMPDEST CALLVALUE DUP1 ISZERO PUSH2 0x33C JUMPI PUSH1 0x0 DUP1 REVERT JUMPDEST POP PUSH2 0x350 PUSH2 0x34B CALLDATASIZE PUSH1 0x4 PUSH2 0x4DCB JUMP JUMPDEST PUSH2 0xA5E JUMP JUMPDEST PUSH1 0x40 MLOAD PUSH2 0x24B SWAP2 SWAP1 PUSH2 0x5BF1 JUMP JUMPDEST CALLVALUE DUP1 ISZERO PUSH2 0x369 JUMPI PUSH1 0x0 DUP1 REVERT JUMPDEST POP PUSH2 0x2E3 PUSH2 0x378 CALLDATASIZE PUSH1 0x4 PUSH2 0x4ED2 JUMP JUMPDEST PUSH2 0xBF5 JUMP JUMPDEST CALLVALUE DUP1 ISZERO PUSH2 0x389 JUMPI PUSH1 0x0 DUP1 REVERT JUMPDEST POP PUSH2 0x39D PUSH2 0x398 CALLDATASIZE PUSH1 0x4 PUSH2 0x4C9C JUMP JUMPDEST PUSH2 0xC4B JUMP JUMPDEST PUSH1 0x40 MLOAD PUSH2 0x24B SWAP2 SWAP1 PUSH2 0x59C5 JUMP JUMPDEST CALLVALUE DUP1 ISZERO PUSH2 0x3B6 JUMPI PUSH1 0x0 DUP1 REVERT JUMPDEST POP PUSH2 0x274 PUSH2 0x3C5 CALLDATASIZE PUSH1 0x4 PUSH2 0x4A8A JUMP JUMPDEST PUSH2 0xC73 JUMP JUMPDEST CALLVALUE DUP1 ISZERO PUSH2 0x3D6 JUMPI PUSH1 0x0 DUP1 REVERT JUMPDEST POP PUSH2 0x2E3 PUSH2 0x3E5 CALLDATASIZE PUSH1 0x4 PUSH2 0x4ABF JUMP JUMPDEST PUSH2 0xD40 JUMP JUMPDEST CALLVALUE DUP1 ISZERO PUSH2 0x3F6 JUMPI PUSH1 0x0 DUP1 REVERT JUMPDEST POP PUSH2 0x274 PUSH2 0x405 CALLDATASIZE PUSH1 0x4 PUSH2 0x4B9C JUMP JUMPDEST PUSH2 0xE30 JUMP JUMPDEST CALLVALUE DUP1 ISZERO PUSH2 0x416 JUMPI PUSH1 0x0 DUP1 REVERT JUMPDEST POP PUSH2 0x2E3 PUSH2 0x425 CALLDATASIZE PUSH1 0x4 PUSH2 0x4ABF JUMP JUMPDEST PUSH2 0xFE5 JUMP JUMPDEST CALLVALUE DUP1 ISZERO PUSH2 0x436 JUMPI PUSH1 0x0 DUP1 REVERT JUMPDEST POP PUSH2 0x44A PUSH2 0x445 CALLDATASIZE PUSH1 0x4 PUSH2 0x4C9C JUMP JUMPDEST PUSH2 0x1079 JUMP JUMPDEST PUSH1 0x40 MLOAD PUSH2 0x24B SWAP2 SWAP1 PUSH2 0x581B JUMP JUMPDEST CALLVALUE DUP1 ISZERO PUSH2 0x463 JUMPI PUSH1 0x0 DUP1 REVERT JUMPDEST POP PUSH2 0x23E PUSH2 0x472 CALLDATASIZE PUSH1 0x4 PUSH2 0x4B9C JUMP JUMPDEST PUSH2 0x10C7 JUMP JUMPDEST CALLVALUE DUP1 ISZERO PUSH2 0x483 JUMPI PUSH1 0x0 DUP1 REVERT JUMPDEST POP PUSH2 0x2E3 PUSH2 0x492 CALLDATASIZE PUSH1 0x4 PUSH2 0x4ED2 JUMP JUMPDEST PUSH2 0x10DC JUMP JUMPDEST CALLVALUE DUP1 ISZERO PUSH2 0x4A3 JUMPI PUSH1 0x0 DUP1 REVERT JUMPDEST POP PUSH2 0x2E3 PUSH2 0x4B2 CALLDATASIZE PUSH1 0x4 PUSH2 0x4CD8 JUMP JUMPDEST PUSH2 0x1187 JUMP JUMPDEST CALLVALUE DUP1 ISZERO PUSH2 0x4C3 JUMPI PUSH1 0x0 DUP1 REVERT JUMPDEST POP PUSH2 0x23E PUSH2 0x4D2 CALLDATASIZE PUSH1 0x4 PUSH2 0x4FB4 JUMP JUMPDEST PUSH2 0x11A2 JUMP JUMPDEST CALLVALUE DUP1 ISZERO PUSH2 0x4E3 JUMPI PUSH1 0x0 DUP1 REVERT JUMPDEST POP PUSH2 0x274 PUSH2 0x4F2 CALLDATASIZE PUSH1 0x4 PUSH2 0x4A5A JUMP JUMPDEST PUSH2 0x11AF JUMP JUMPDEST CALLVALUE DUP1 ISZERO PUSH2 0x503 JUMPI PUSH1 0x0 DUP1 REVERT JUMPDEST POP PUSH2 0x23E PUSH2 0x512 CALLDATASIZE PUSH1 0x4 PUSH2 0x4A20 JUMP JUMPDEST PUSH2 0x12E9 JUMP JUMPDEST CALLVALUE DUP1 ISZERO PUSH2 0x523 JUMPI PUSH1 0x0 DUP1 REVERT JUMPDEST POP PUSH2 0x2E3 PUSH2 0x532 CALLDATASIZE PUSH1 0x4 PUSH2 0x4B53 JUMP JUMPDEST PUSH2 0x1309 JUMP JUMPDEST CALLVALUE DUP1 ISZERO PUSH2 0x543 JUMPI PUSH1 0x0 DUP1 REVERT JUMPDEST POP PUSH2 0x557 PUSH2 0x552 CALLDATASIZE PUSH1 0x4 PUSH2 0x4A8A JUMP JUMPDEST PUSH2 0x146D JUMP JUMPDEST PUSH1 0x40 MLOAD PUSH2 0x24B SWAP2 SWAP1 PUSH2 0x58EA JUMP JUMPDEST CALLVALUE DUP1 ISZERO PUSH2 0x570 JUMPI PUSH1 0x0 DUP1 REVERT JUMPDEST POP PUSH2 0x23E PUSH2 0x57F CALLDATASIZE PUSH1 0x4 PUSH2 0x4BBA JUMP JUMPDEST PUSH2 0x1502 JUMP JUMPDEST CALLVALUE DUP1 ISZERO PUSH2 0x590 JUMPI PUSH1 0x0 DUP1 REVERT JUMPDEST POP PUSH2 0x44A PUSH2 0x1522 JUMP JUMPDEST CALLVALUE DUP1 ISZERO PUSH2 0x5A5 JUMPI PUSH1 0x0 DUP1 REVERT JUMPDEST POP PUSH2 0x23E PUSH2 0x5B4 CALLDATASIZE PUSH1 0x4 PUSH2 0x4C41 JUMP JUMPDEST PUSH2 0x153E JUMP JUMPDEST CALLVALUE DUP1 ISZERO PUSH2 0x5C5 JUMPI PUSH1 0x0 DUP1 REVERT JUMPDEST POP PUSH2 0x2E3 PUSH2 0x5D4 CALLDATASIZE PUSH1 0x4 PUSH2 0x4B53 JUMP JUMPDEST PUSH2 0x1AC1 JUMP JUMPDEST CALLVALUE DUP1 ISZERO PUSH2 0x5E5 JUMPI PUSH1 0x0 DUP1 REVERT JUMPDEST POP PUSH2 0x2E3 PUSH2 0x5F4 CALLDATASIZE PUSH1 0x4 PUSH2 0x4ED2 JUMP JUMPDEST PUSH2 0x1BD4 JUMP JUMPDEST CALLVALUE DUP1 ISZERO PUSH2 0x605 JUMPI PUSH1 0x0 DUP1 REVERT JUMPDEST POP PUSH2 0x296 PUSH2 0x614 CALLDATASIZE PUSH1 0x4 PUSH2 0x4FB4 JUMP JUMPDEST PUSH2 0x1C4F JUMP JUMPDEST CALLVALUE DUP1 ISZERO PUSH2 0x625 JUMPI PUSH1 0x0 DUP1 REVERT JUMPDEST POP PUSH2 0x274 PUSH2 0x634 CALLDATASIZE PUSH1 0x4 PUSH2 0x4F1B JUMP JUMPDEST PUSH2 0x1C5C JUMP JUMPDEST CALLVALUE DUP1 ISZERO PUSH2 0x645 JUMPI PUSH1 0x0 DUP1 REVERT JUMPDEST POP PUSH2 0x274 PUSH2 0x654 CALLDATASIZE PUSH1 0x4 PUSH2 0x49FA JUMP JUMPDEST PUSH2 0x1EF5 JUMP JUMPDEST CALLVALUE DUP1 ISZERO PUSH2 0x665 JUMPI PUSH1 0x0 DUP1 REVERT JUMPDEST POP PUSH2 0x679 PUSH2 0x674 CALLDATASIZE PUSH1 0x4 PUSH2 0x4D09 JUMP JUMPDEST PUSH2 0x2120 JUMP JUMPDEST PUSH1 0x40 MLOAD PUSH2 0x24B SWAP2 SWAP1 PUSH2 0x5C00 JUMP JUMPDEST CALLVALUE DUP1 ISZERO PUSH2 0x692 JUMPI PUSH1 0x0 DUP1 REVERT JUMPDEST POP PUSH2 0x274 PUSH2 0x6A1 CALLDATASIZE PUSH1 0x4 PUSH2 0x4D09 JUMP JUMPDEST PUSH2 0x221A JUMP JUMPDEST CALLVALUE DUP1 ISZERO PUSH2 0x6B2 JUMPI PUSH1 0x0 DUP1 REVERT JUMPDEST POP PUSH2 0x296 PUSH2 0x6C1 CALLDATASIZE PUSH1 0x4 PUSH2 0x4A20 JUMP JUMPDEST PUSH2 0x22B6 JUMP JUMPDEST CALLVALUE DUP1 ISZERO PUSH2 0x6D2 JUMPI PUSH1 0x0 DUP1 REVERT JUMPDEST POP PUSH2 0x6DB PUSH2 0x22D3 JUMP JUMPDEST PUSH1 0x40 MLOAD PUSH2 0x24B SWAP2 SWAP1 PUSH2 0x59B4 JUMP JUMPDEST CALLVALUE DUP1 ISZERO PUSH2 0x6F4 JUMPI PUSH1 0x0 DUP1 REVERT JUMPDEST POP PUSH2 0x2E3 PUSH2 0x703 CALLDATASIZE PUSH1 0x4 PUSH2 0x4B53 JUMP JUMPDEST PUSH2 0x237E JUMP JUMPDEST CALLVALUE DUP1 ISZERO PUSH2 0x714 JUMPI PUSH1 0x0 DUP1 REVERT JUMPDEST POP PUSH2 0x296 PUSH2 0x723 CALLDATASIZE PUSH1 0x4 PUSH2 0x4FB4 JUMP JUMPDEST PUSH2 0x2453 JUMP JUMPDEST CALLVALUE DUP1 ISZERO PUSH2 0x734 JUMPI PUSH1 0x0 DUP1 REVERT JUMPDEST POP PUSH2 0x296 PUSH2 0x743 CALLDATASIZE PUSH1 0x4 PUSH2 0x4FB4 JUMP JUMPDEST PUSH2 0x2460 JUMP JUMPDEST CALLVALUE DUP1 ISZERO PUSH2 0x754 JUMPI PUSH1 0x0 DUP1 REVERT JUMPDEST POP PUSH2 0x2E3 PUSH2 0x763 CALLDATASIZE PUSH1 0x4 PUSH2 0x4E8B JUMP JUMPDEST PUSH2 0x246D JUMP JUMPDEST CALLVALUE DUP1 ISZERO PUSH2 0x774 JUMPI PUSH1 0x0 DUP1 REVERT JUMPDEST POP PUSH2 0x296 PUSH2 0x247F JUMP JUMPDEST CALLVALUE DUP1 ISZERO PUSH2 0x789 JUMPI PUSH1 0x0 DUP1 REVERT JUMPDEST POP PUSH2 0x2E3 PUSH2 0x798 CALLDATASIZE PUSH1 0x4 PUSH2 0x4B53 JUMP JUMPDEST PUSH2 0x2485 JUMP JUMPDEST CALLVALUE DUP1 ISZERO PUSH2 0x7A9 JUMPI PUSH1 0x0 DUP1 REVERT JUMPDEST POP PUSH2 0x44A PUSH2 0x25F7 JUMP JUMPDEST CALLVALUE DUP1 ISZERO PUSH2 0x7BE JUMPI PUSH1 0x0 DUP1 REVERT JUMPDEST POP PUSH2 0x274 PUSH2 0x7CD CALLDATASIZE PUSH1 0x4 PUSH2 0x49FA JUMP JUMPDEST PUSH2 0x2613 JUMP JUMPDEST CALLVALUE DUP1 ISZERO PUSH2 0x7DE JUMPI PUSH1 0x0 DUP1 REVERT JUMPDEST POP PUSH2 0x6DB PUSH2 0x26C4 JUMP JUMPDEST PUSH1 0x0 PUSH2 0x7F4 DUP5 DUP5 DUP5 PUSH2 0x26FB JUMP JUMPDEST SWAP1 POP JUMPDEST SWAP4 SWAP3 POP POP POP JUMP JUMPDEST PUSH2 0x80B DUP6 DUP6 DUP6 DUP6 DUP6 PUSH2 0x2780 JUMP JUMPDEST POP POP POP POP POP JUMP JUMPDEST PUSH1 0x0 PUSH2 0x7F4 DUP5 DUP5 DUP5 PUSH2 0x282C JUMP JUMPDEST PUSH1 0x4 PUSH1 0x20 MSTORE PUSH1 0x0 SWAP1 DUP2 MSTORE PUSH1 0x40 SWAP1 KECCAK256 SLOAD DUP2 JUMP JUMPDEST PUSH2 0x839 PUSH2 0x45BD JUMP JUMPDEST PUSH1 0x0 DUP1 PUSH2 0x844 PUSH2 0x45BD JUMP JUMPDEST PUSH1 0x0 SLOAD PUSH1 0xFF AND ISZERO PUSH2 0x88A JUMPI PUSH1 0x40 MLOAD PUSH32 0x8C379A000000000000000000000000000000000000000000000000000000000 DUP2 MSTORE PUSH1 0x4 ADD PUSH2 0x881 SWAP1 PUSH2 0x5B63 JUMP JUMPDEST PUSH1 0x40 MLOAD DUP1 SWAP2 SUB SWAP1 REVERT JUMPDEST PUSH1 0x0 DUP1 SLOAD PUSH32 0xFFFFFFFFFFFFFFFFFFFFFFFFFFFFFFFFFFFFFFFFFFFFFFFFFFFFFFFFFFFFFF00 AND PUSH1 0x1 OR DUP2 SSTORE DUP8 MLOAD SWAP4 POP SWAP2 POP JUMPDEST DUP2 DUP4 EQ PUSH2 0x92A JUMPI PUSH2 0x913 DUP8 DUP4 DUP2 MLOAD DUP2 LT ISZERO ISZERO PUSH2 0x8D4 JUMPI INVALID JUMPDEST SWAP1 PUSH1 0x20 ADD SWAP1 PUSH1 0x20 MUL ADD MLOAD DUP8 DUP5 DUP2 MLOAD DUP2 LT ISZERO ISZERO PUSH2 0x8EC JUMPI INVALID JUMPDEST SWAP1 PUSH1 0x20 ADD SWAP1 PUSH1 0x20 MUL ADD MLOAD DUP8 DUP6 DUP2 MLOAD DUP2 LT ISZERO ISZERO PUSH2 0x904 JUMPI INVALID JUMPDEST SWAP1 PUSH1 0x20 ADD SWAP1 PUSH1 0x20 MUL ADD MLOAD PUSH2 0x288D JUMP JUMPDEST SWAP1 POP PUSH2 0x91F DUP5 DUP3 PUSH2 0x292B JUMP JUMPDEST PUSH1 0x1 SWAP1 SWAP2 ADD SWAP1 PUSH2 0x8BC JUMP JUMPDEST POP POP PUSH1 0x0 DUP1 SLOAD PUSH32 0xFFFFFFFFFFFFFFFFFFFFFFFFFFFFFFFFFFFFFFFFFFFFFFFFFFFFFFFFFFFFFF00 AND SWAP1 SSTORE POP SWAP4 SWAP3 POP POP POP JUMP JUMPDEST PUSH1 0x5 PUSH1 0x20 MSTORE PUSH1 0x0 SWAP1 DUP2 MSTORE PUSH1 0x40 SWAP1 KECCAK256 SLOAD PUSH1 0xFF AND DUP2 JUMP JUMPDEST PUSH20 0xFFFFFFFFFFFFFFFFFFFFFFFFFFFFFFFFFFFFFFFF DUP4 AND CALLER EQ PUSH2 0xA01 JUMPI PUSH2 0x9C9 DUP5 DUP5 DUP5 DUP5 DUP1 DUP1 PUSH1 0x1F ADD PUSH1 0x20 DUP1 SWAP2 DIV MUL PUSH1 0x20 ADD PUSH1 0x40 MLOAD SWAP1 DUP2 ADD PUSH1 0x40 MSTORE DUP1 SWAP4 SWAP3 SWAP2 SWAP1 DUP2 DUP2 MSTORE PUSH1 0x20 ADD DUP4 DUP4 DUP1 DUP3 DUP5 CALLDATACOPY POP PUSH2 0x153E SWAP5 POP POP POP POP POP JUMP JUMPDEST ISZERO ISZERO PUSH2 0xA01 JUMPI PUSH1 0x40 MLOAD PUSH32 0x8C379A000000000000000000000000000000000000000000000000000000000 DUP2 MSTORE PUSH1 0x4 ADD PUSH2 0x881 SWAP1 PUSH2 0x5A93 JUMP JUMPDEST POP POP PUSH1 0x0 SWAP2 DUP3 MSTORE PUSH1 0x7 PUSH1 0x20 SWAP1 DUP2 MSTORE PUSH1 0x40 DUP1 DUP5 KECCAK256 PUSH20 0xFFFFFFFFFFFFFFFFFFFFFFFFFFFFFFFFFFFFFFFF SWAP1 SWAP4 AND DUP5 MSTORE SWAP2 SWAP1 MSTORE SWAP1 KECCAK256 DUP1 SLOAD PUSH32 0xFFFFFFFFFFFFFFFFFFFFFFFFFFFFFFFFFFFFFFFFFFFFFFFFFFFFFFFFFFFFFF00 AND PUSH1 0x1 OR SWAP1 SSTORE JUMP JUMPDEST PUSH2 0xA66 PUSH2 0x45E6 JUMP JUMPDEST PUSH2 0xA6E PUSH2 0x4615 JUMP JUMPDEST PUSH2 0xA76 PUSH2 0x4615 JUMP JUMPDEST PUSH1 0x0 DUP1 SLOAD PUSH1 0xFF AND ISZERO PUSH2 0xAB4 JUMPI PUSH1 0x40 MLOAD PUSH32 0x8C379A000000000000000000000000000000000000000000000000000000000 DUP2 MSTORE PUSH1 0x4 ADD PUSH2 0x881 SWAP1 PUSH2 0x5B63 JUMP JUMPDEST PUSH1 0x0 DUP1 SLOAD PUSH32 0xFFFFFFFFFFFFFFFFFFFFFFFFFFFFFFFFFFFFFFFFFFFFFFFFFFFFFFFFFFFFFF00 AND PUSH1 0x1 OR SWAP1 SSTORE PUSH2 0x160 DUP1 DUP10 ADD MLOAD PUSH2 0x140 DUP1 DUP11 ADD SWAP2 SWAP1 SWAP2 MSTORE DUP10 ADD MLOAD SWAP1 DUP9 ADD MSTORE PUSH2 0xB00 DUP9 PUSH2 0x2120 JUMP JUMPDEST SWAP3 POP PUSH2 0xB0B DUP8 PUSH2 0x2120 JUMP JUMPDEST SWAP2 POP PUSH2 0xB15 PUSH2 0x298D JUMP JUMPDEST SWAP1 POP PUSH2 0xB23 DUP9 DUP5 DUP4 DUP10 PUSH2 0x29BE JUMP JUMPDEST PUSH2 0xB2F DUP8 DUP4 DUP4 DUP9 PUSH2 0x29BE JUMP JUMPDEST PUSH2 0xB39 DUP9 DUP9 PUSH2 0x2B56 JUMP JUMPDEST PUSH2 0xB4D DUP9 DUP9 DUP6 PUSH1 0x40 ADD MLOAD DUP6 PUSH1 0x40 ADD MLOAD PUSH2 0x2BB6 JUMP JUMPDEST DUP1 MLOAD PUSH1 0x20 DUP2 ADD MLOAD SWAP1 MLOAD SWAP2 SWAP6 POP PUSH2 0xB68 SWAP2 DUP11 SWAP2 DUP7 SWAP2 DUP2 SWAP1 PUSH2 0x2D3D JUMP JUMPDEST PUSH1 0x20 DUP1 DUP6 ADD MLOAD SWAP1 DUP2 ADD MLOAD SWAP1 MLOAD PUSH2 0xB84 SWAP2 DUP10 SWAP2 DUP6 SWAP2 SWAP1 DUP2 SWAP1 PUSH2 0x2D3D JUMP JUMPDEST PUSH2 0xB9D DUP9 DUP3 DUP6 PUSH1 0x20 ADD MLOAD DUP7 PUSH1 0x40 ADD MLOAD DUP9 PUSH1 0x0 ADD MLOAD PUSH2 0x2780 JUMP JUMPDEST PUSH2 0xBB6 DUP8 DUP3 DUP5 PUSH1 0x20 ADD MLOAD DUP6 PUSH1 0x40 ADD MLOAD DUP9 PUSH1 0x20 ADD MLOAD PUSH2 0x2780 JUMP JUMPDEST PUSH2 0xBC2 DUP9 DUP9 DUP4 DUP8 PUSH2 0x2E4F JUMP JUMPDEST POP POP PUSH1 0x0 DUP1 SLOAD PUSH32 0xFFFFFFFFFFFFFFFFFFFFFFFFFFFFFFFFFFFFFFFFFFFFFFFFFFFFFFFFFFFFFF00 AND SWAP1 SSTORE POP SWAP5 SWAP4 POP POP POP POP JUMP JUMPDEST PUSH2 0xBFD PUSH2 0x45BD JUMP JUMPDEST PUSH1 0x60 PUSH2 0xC0A DUP6 DUP6 DUP6 PUSH2 0x3027 JUMP JUMPDEST SWAP1 POP PUSH1 0x80 DUP2 DUP3 MLOAD PUSH1 0x20 DUP5 ADD ADDRESS GAS DELEGATECALL DUP1 ISZERO PUSH2 0xC41 JUMPI DUP2 MLOAD DUP4 MSTORE PUSH1 0x20 DUP3 ADD MLOAD PUSH1 0x20 DUP5 ADD MSTORE PUSH1 0x40 DUP3 ADD MLOAD PUSH1 0x40 DUP5 ADD MSTORE PUSH1 0x60 DUP3 ADD MLOAD PUSH1 0x60 DUP5 ADD MSTORE JUMPDEST POP JUMPDEST POP SWAP4 SWAP3 POP POP POP JUMP JUMPDEST PUSH1 0xB PUSH1 0x20 MSTORE PUSH1 0x0 SWAP1 DUP2 MSTORE PUSH1 0x40 SWAP1 KECCAK256 SLOAD PUSH20 0xFFFFFFFFFFFFFFFFFFFFFFFFFFFFFFFFFFFFFFFF AND DUP2 JUMP JUMPDEST PUSH1 0x0 DUP1 SLOAD DUP2 SWAP1 PUSH1 0xFF AND ISZERO PUSH2 0xCB3 JUMPI PUSH1 0x40 MLOAD PUSH32 0x8C379A000000000000000000000000000000000000000000000000000000000 DUP2 MSTORE PUSH1 0x4 ADD PUSH2 0x881 SWAP1 PUSH2 0x5B63 JUMP JUMPDEST POP POP PUSH1 0x0 DUP1 SLOAD PUSH32 0xFFFFFFFFFFFFFFFFFFFFFFFFFFFFFFFFFFFFFFFFFFFFFFFFFFFFFFFFFFFFFF00 AND PUSH1 0x1 OR DUP2 SSTORE DUP2 MLOAD SWAP1 JUMPDEST DUP1 DUP3 EQ PUSH2 0xD13 JUMPI PUSH2 0xD0B DUP4 DUP3 DUP2 MLOAD DUP2 LT ISZERO ISZERO PUSH2 0xCFC JUMPI INVALID JUMPDEST SWAP1 PUSH1 0x20 ADD SWAP1 PUSH1 0x20 MUL ADD MLOAD PUSH2 0x31F9 JUMP JUMPDEST PUSH1 0x1 ADD PUSH2 0xCE4 JUMP JUMPDEST POP POP PUSH1 0x0 DUP1 SLOAD PUSH32 0xFFFFFFFFFFFFFFFFFFFFFFFFFFFFFFFFFFFFFFFFFFFFFFFFFFFFFFFFFFFFFF00 AND SWAP1 SSTORE POP JUMP JUMPDEST PUSH2 0xD48 PUSH2 0x45BD JUMP JUMPDEST PUSH1 0x0 DUP1 PUSH2 0xD53 PUSH2 0x45BD JUMP JUMPDEST PUSH1 0x0 SLOAD PUSH1 0xFF AND ISZERO PUSH2 0xD90 JUMPI PUSH1 0x40 MLOAD PUSH32 0x8C379A000000000000000000000000000000000000000000000000000000000 DUP2 MSTORE PUSH1 0x4 ADD PUSH2 0x881 SWAP1 PUSH2 0x5B63 JUMP JUMPDEST PUSH1 0x0 DUP1 SLOAD PUSH32 0xFFFFFFFFFFFFFFFFFFFFFFFFFFFFFFFFFFFFFFFFFFFFFFFFFFFFFFFFFFFFFF00 AND PUSH1 0x1 OR DUP2 SSTORE DUP8 MLOAD SWAP4 POP SWAP2 POP JUMPDEST DUP2 DUP4 EQ PUSH2 0x92A JUMPI PUSH2 0xE19 DUP8 DUP4 DUP2 MLOAD DUP2 LT ISZERO ISZERO PUSH2 0xDDA JUMPI INVALID JUMPDEST SWAP1 PUSH1 0x20 ADD SWAP1 PUSH1 0x20 MUL ADD MLOAD DUP8 DUP5 DUP2 MLOAD DUP2 LT ISZERO ISZERO PUSH2 0xDF2 JUMPI INVALID JUMPDEST SWAP1 PUSH1 0x20 ADD SWAP1 PUSH1 0x20 MUL ADD MLOAD DUP8 DUP6 DUP2 MLOAD DUP2 LT ISZERO ISZERO PUSH2 0xE0A JUMPI INVALID JUMPDEST SWAP1 PUSH1 0x20 ADD SWAP1 PUSH1 0x20 MUL ADD MLOAD PUSH2 0x3224 JUMP JUMPDEST SWAP1 POP PUSH2 0xE25 DUP5 DUP3 PUSH2 0x292B JUMP JUMPDEST PUSH1 0x1 SWAP1 SWAP2 ADD SWAP1 PUSH2 0xDC2 JUMP JUMPDEST PUSH1 0x0 DUP1 SLOAD DUP2 SWAP1 DUP2 SWAP1 DUP2 SWAP1 PUSH1 0xFF AND ISZERO PUSH2 0xE74 JUMPI PUSH1 0x40 MLOAD PUSH32 0x8C379A000000000000000000000000000000000000000000000000000000000 DUP2 MSTORE PUSH1 0x4 ADD PUSH2 0x881 SWAP1 PUSH2 0x5B63 JUMP JUMPDEST PUSH1 0x0 DUP1 SLOAD PUSH32 0xFFFFFFFFFFFFFFFFFFFFFFFFFFFFFFFFFFFFFFFFFFFFFFFFFFFFFFFFFFFFFF00 AND PUSH1 0x1 OR SWAP1 SSTORE PUSH2 0xEA7 PUSH2 0x298D JUMP JUMPDEST SWAP4 POP PUSH20 0xFFFFFFFFFFFFFFFFFFFFFFFFFFFFFFFFFFFFFFFF DUP5 AND CALLER EQ PUSH2 0xECC JUMPI CALLER PUSH2 0xECF JUMP JUMPDEST PUSH1 0x0 JUMPDEST PUSH20 0xFFFFFFFFFFFFFFFFFFFFFFFFFFFFFFFFFFFFFFFF DUP1 DUP7 AND PUSH1 0x0 SWAP1 DUP2 MSTORE PUSH1 0x6 PUSH1 0x20 SWAP1 DUP2 MSTORE PUSH1 0x40 DUP1 DUP4 KECCAK256 SWAP4 DUP6 AND DUP4 MSTORE SWAP3 SWAP1 MSTORE KECCAK256 SLOAD SWAP1 SWAP4 POP PUSH1 0x1 DUP7 ADD SWAP3 POP SWAP1 POP DUP1 DUP3 GT PUSH2 0xF46 JUMPI PUSH1 0x40 MLOAD PUSH32 0x8C379A000000000000000000000000000000000000000000000000000000000 DUP2 MSTORE PUSH1 0x4 ADD PUSH2 0x881 SWAP1 PUSH2 0x5B23 JUMP JUMPDEST PUSH20 0xFFFFFFFFFFFFFFFFFFFFFFFFFFFFFFFFFFFFFFFF DUP1 DUP6 AND PUSH1 0x0 DUP2 DUP2 MSTORE PUSH1 0x6 PUSH1 0x20 SWAP1 DUP2 MSTORE PUSH1 0x40 DUP1 DUP4 KECCAK256 SWAP5 DUP9 AND DUP1 DUP5 MSTORE SWAP5 SWAP1 SWAP2 MSTORE SWAP1 DUP2 SWAP1 KECCAK256 DUP6 SWAP1 SSTORE MLOAD PUSH32 0x82AF639571738F4EBD4268FB0363D8957EBE1BBB9E78DBA5EBD69EED39B154F0 SWAP1 PUSH2 0xFAE SWAP1 DUP7 SWAP1 PUSH2 0x5909 JUMP JUMPDEST PUSH1 0x40 MLOAD DUP1 SWAP2 SUB SWAP1 LOG3 POP POP PUSH1 0x0 DUP1 SLOAD PUSH32 0xFFFFFFFFFFFFFFFFFFFFFFFFFFFFFFFFFFFFFFFFFFFFFFFFFFFFFFFFFFFFFF00 AND SWAP1 SSTORE POP POP POP JUMP JUMPDEST PUSH2 0xFED PUSH2 0x45BD JUMP JUMPDEST PUSH1 0x0 DUP1 PUSH2 0xFF8 PUSH2 0x45BD JUMP JUMPDEST DUP7 MLOAD SWAP3 POP PUSH1 0x0 SWAP2 POP JUMPDEST DUP2 DUP4 EQ PUSH2 0x106F JUMPI PUSH2 0x1058 DUP8 DUP4 DUP2 MLOAD DUP2 LT ISZERO ISZERO PUSH2 0x1019 JUMPI INVALID JUMPDEST SWAP1 PUSH1 0x20 ADD SWAP1 PUSH1 0x20 MUL ADD MLOAD DUP8 DUP5 DUP2 MLOAD DUP2 LT ISZERO ISZERO PUSH2 0x1031 JUMPI INVALID JUMPDEST SWAP1 PUSH1 0x20 ADD SWAP1 PUSH1 0x20 MUL ADD MLOAD DUP8 DUP6 DUP2 MLOAD DUP2 LT ISZERO ISZERO PUSH2 0x1049 JUMPI INVALID JUMPDEST SWAP1 PUSH1 0x20 ADD SWAP1 PUSH1 0x20 MUL ADD MLOAD PUSH2 0xBF5 JUMP JUMPDEST SWAP1 POP PUSH2 0x1064 DUP5 DUP3 PUSH2 0x292B JUMP JUMPDEST PUSH1 0x1 SWAP1 SWAP2 ADD SWAP1 PUSH2 0x1001 JUMP JUMPDEST POP POP POP SWAP4 SWAP3 POP POP POP JUMP JUMPDEST PUSH32 0xFFFFFFFF00000000000000000000000000000000000000000000000000000000 DUP2 AND PUSH1 0x0 SWAP1 DUP2 MSTORE PUSH1 0xB PUSH1 0x20 MSTORE PUSH1 0x40 SWAP1 KECCAK256 SLOAD PUSH20 0xFFFFFFFFFFFFFFFFFFFFFFFFFFFFFFFFFFFFFFFF AND JUMPDEST SWAP2 SWAP1 POP JUMP JUMPDEST PUSH1 0x9 PUSH1 0x20 MSTORE PUSH1 0x0 SWAP1 DUP2 MSTORE PUSH1 0x40 SWAP1 KECCAK256 SLOAD PUSH1 0xFF AND DUP2 JUMP JUMPDEST PUSH2 0x10E4 PUSH2 0x45BD JUMP JUMPDEST PUSH1 0x0 SLOAD PUSH1 0xFF AND ISZERO PUSH2 0x1121 JUMPI PUSH1 0x40 MLOAD PUSH32 0x8C379A000000000000000000000000000000000000000000000000000000000 DUP2 MSTORE PUSH1 0x4 ADD PUSH2 0x881 SWAP1 PUSH2 0x5B63 JUMP JUMPDEST PUSH1 0x0 DUP1 SLOAD PUSH32 0xFFFFFFFFFFFFFFFFFFFFFFFFFFFFFFFFFFFFFFFFFFFFFFFFFFFFFFFFFFFFFF00 AND PUSH1 0x1 OR SWAP1 SSTORE PUSH2 0x1157 DUP5 DUP5 DUP5 PUSH2 0x3224 JUMP JUMPDEST PUSH1 0x0 DUP1 SLOAD PUSH32 0xFFFFFFFFFFFFFFFFFFFFFFFFFFFFFFFFFFFFFFFFFFFFFFFFFFFFFFFFFFFFFF00 AND SWAP1 SSTORE SWAP5 SWAP4 POP POP POP POP JUMP JUMPDEST PUSH2 0x118F PUSH2 0x45BD JUMP JUMPDEST PUSH2 0x1199 DUP4 DUP4 PUSH2 0x292B JUMP JUMPDEST POP DUP2 JUMPDEST SWAP3 SWAP2 POP POP JUMP JUMPDEST PUSH1 0x0 PUSH2 0x7F4 DUP5 DUP5 DUP5 PUSH2 0x3277 JUMP JUMPDEST PUSH1 0x0 DUP1 SLOAD PUSH1 0xFF AND ISZERO PUSH2 0x11ED JUMPI PUSH1 0x40 MLOAD PUSH32 0x8C379A000000000000000000000000000000000000000000000000000000000 DUP2 MSTORE PUSH1 0x4 ADD PUSH2 0x881 SWAP1 PUSH2 0x5B63 JUMP JUMPDEST PUSH1 0x0 DUP1 SLOAD PUSH32 0xFFFFFFFFFFFFFFFFFFFFFFFFFFFFFFFFFFFFFFFFFFFFFFFFFFFFFFFFFFFFFF00 AND PUSH1 0x1 OR SWAP1 SSTORE PUSH2 0x1220 PUSH2 0x298D JUMP JUMPDEST PUSH20 0xFFFFFFFFFFFFFFFFFFFFFFFFFFFFFFFFFFFFFFFF DUP2 DUP2 AND PUSH1 0x0 DUP2 DUP2 MSTORE PUSH1 0x8 PUSH1 0x20 SWAP1 DUP2 MSTORE PUSH1 0x40 DUP1 DUP4 KECCAK256 SWAP5 DUP10 AND DUP1 DUP5 MSTORE SWAP5 SWAP1 SWAP2 MSTORE SWAP1 DUP2 SWAP1 KECCAK256 DUP1 SLOAD PUSH32 0xFFFFFFFFFFFFFFFFFFFFFFFFFFFFFFFFFFFFFFFFFFFFFFFFFFFFFFFFFFFFFF00 AND DUP8 ISZERO ISZERO OR SWAP1 SSTORE MLOAD SWAP3 SWAP4 POP SWAP1 SWAP2 PUSH32 0xA8656E308026EEABCE8F0BC18048433252318AB80AC79DA0B3D3D8697DFBA891 SWAP1 PUSH2 0x12B4 SWAP1 DUP7 SWAP1 PUSH2 0x58FB JUMP JUMPDEST PUSH1 0x40 MLOAD DUP1 SWAP2 SUB SWAP1 LOG3 POP POP PUSH1 0x0 DUP1 SLOAD PUSH32 0xFFFFFFFFFFFFFFFFFFFFFFFFFFFFFFFFFFFFFFFFFFFFFFFFFFFFFFFFFFFFFF00 AND SWAP1 SSTORE POP JUMP JUMPDEST PUSH1 0x8 PUSH1 0x20 SWAP1 DUP2 MSTORE PUSH1 0x0 SWAP3 DUP4 MSTORE PUSH1 0x40 DUP1 DUP5 KECCAK256 SWAP1 SWAP2 MSTORE SWAP1 DUP3 MSTORE SWAP1 KECCAK256 SLOAD PUSH1 0xFF AND DUP2 JUMP JUMPDEST PUSH2 0x1311 PUSH2 0x45BD JUMP JUMPDEST PUSH1 0x60 PUSH1 0x0 DUP1 PUSH1 0x0 PUSH2 0x1320 PUSH2 0x45BD JUMP JUMPDEST PUSH1 0x0 SLOAD PUSH1 0xFF AND ISZERO PUSH2 0x135D JUMPI PUSH1 0x40 MLOAD PUSH32 0x8C379A000000000000000000000000000000000000000000000000000000000 DUP2 MSTORE PUSH1 0x4 ADD PUSH2 0x881 SWAP1 PUSH2 0x5B63 JUMP JUMPDEST PUSH1 0x0 DUP1 SLOAD PUSH32 0xFFFFFFFFFFFFFFFFFFFFFFFFFFFFFFFFFFFFFFFFFFFFFFFFFFFFFFFFFFFFFF00 AND PUSH1 0x1 OR DUP2 SSTORE DUP10 MLOAD DUP11 SWAP2 SWAP1 DUP2 LT PUSH2 0x1395 JUMPI INVALID JUMPDEST SWAP1 PUSH1 0x20 ADD SWAP1 PUSH1 0x20 MUL ADD MLOAD PUSH2 0x160 ADD MLOAD SWAP5 POP DUP9 MLOAD SWAP4 POP PUSH1 0x0 SWAP3 POP JUMPDEST DUP3 DUP5 EQ PUSH2 0x1438 JUMPI DUP5 DUP10 DUP5 DUP2 MLOAD DUP2 LT ISZERO ISZERO PUSH2 0x13C5 JUMPI INVALID JUMPDEST SWAP1 PUSH1 0x20 ADD SWAP1 PUSH1 0x20 MUL ADD MLOAD PUSH2 0x160 ADD DUP2 SWAP1 MSTORE POP PUSH2 0x13E5 DUP9 DUP8 PUSH1 0x20 ADD MLOAD PUSH2 0x32FC JUMP JUMPDEST SWAP2 POP PUSH2 0x1411 DUP10 DUP5 DUP2 MLOAD DUP2 LT ISZERO ISZERO PUSH2 0x13F8 JUMPI INVALID JUMPDEST SWAP1 PUSH1 0x20 ADD SWAP1 PUSH1 0x20 MUL ADD MLOAD DUP4 DUP10 DUP7 DUP2 MLOAD DUP2 LT ISZERO ISZERO PUSH2 0x904 JUMPI INVALID JUMPDEST SWAP1 POP PUSH2 0x141D DUP7 DUP3 PUSH2 0x292B JUMP JUMPDEST PUSH1 0x20 DUP7 ADD MLOAD DUP9 GT PUSH2 0x142D JUMPI PUSH2 0x1438 JUMP JUMPDEST PUSH1 0x1 SWAP1 SWAP3 ADD SWAP2 PUSH2 0x13AF JUMP JUMPDEST POP POP PUSH1 0x0 DUP1 SLOAD PUSH32 0xFFFFFFFFFFFFFFFFFFFFFFFFFFFFFFFFFFFFFFFFFFFFFFFFFFFFFFFFFFFFFF00 AND SWAP1 SSTORE POP SWAP2 SWAP6 SWAP5 POP POP POP POP POP JUMP JUMPDEST PUSH1 0x60 PUSH1 0x0 PUSH1 0x60 PUSH1 0x0 DUP5 MLOAD SWAP3 POP DUP3 PUSH1 0x40 MLOAD SWAP1 DUP1 DUP3 MSTORE DUP1 PUSH1 0x20 MUL PUSH1 0x20 ADD DUP3 ADD PUSH1 0x40 MSTORE DUP1 ISZERO PUSH2 0x14B3 JUMPI DUP2 PUSH1 0x20 ADD JUMPDEST PUSH2 0x14A0 PUSH2 0x4615 JUMP JUMPDEST DUP2 MSTORE PUSH1 0x20 ADD SWAP1 PUSH1 0x1 SWAP1 SUB SWAP1 DUP2 PUSH2 0x1498 JUMPI SWAP1 POP JUMPDEST POP SWAP2 POP PUSH1 0x0 SWAP1 POP JUMPDEST DUP1 DUP4 EQ PUSH2 0xC43 JUMPI PUSH2 0x14E2 DUP6 DUP3 DUP2 MLOAD DUP2 LT ISZERO ISZERO PUSH2 0x14D3 JUMPI INVALID JUMPDEST SWAP1 PUSH1 0x20 ADD SWAP1 PUSH1 0x20 MUL ADD MLOAD PUSH2 0x2120 JUMP JUMPDEST DUP3 DUP3 DUP2 MLOAD DUP2 LT ISZERO ISZERO PUSH2 0x14F0 JUMPI INVALID JUMPDEST PUSH1 0x20 SWAP1 DUP2 MUL SWAP1 SWAP2 ADD ADD MSTORE PUSH1 0x1 ADD PUSH2 0x14BB JUMP JUMPDEST PUSH1 0x7 PUSH1 0x20 SWAP1 DUP2 MSTORE PUSH1 0x0 SWAP3 DUP4 MSTORE PUSH1 0x40 DUP1 DUP5 KECCAK256 SWAP1 SWAP2 MSTORE SWAP1 DUP3 MSTORE SWAP1 KECCAK256 SLOAD PUSH1 0xFF AND DUP2 JUMP JUMPDEST PUSH1 0x3 SLOAD PUSH20 0xFFFFFFFFFFFFFFFFFFFFFFFFFFFFFFFFFFFFFFFF AND DUP2 JUMP JUMPDEST PUSH1 0x0 DUP1 PUSH1 0x0 DUP1 PUSH1 0x0 DUP1 PUSH1 0x0 DUP1 PUSH1 0x0 DUP10 MLOAD GT ISZERO ISZERO PUSH2 0x1587 JUMPI PUSH1 0x40 MLOAD PUSH32 0x8C379A000000000000000000000000000000000000000000000000000000000 DUP2 MSTORE PUSH1 0x4 ADD PUSH2 0x881 SWAP1 PUSH2 0x5B13 JUMP JUMPDEST PUSH2 0x1590 DUP10 PUSH2 0x333E JUMP JUMPDEST PUSH32 0x100000000000000000000000000000000000000000000000000000000000000 SWAP1 DIV SWAP7 POP PUSH1 0x7 PUSH1 0xFF DUP9 AND LT PUSH2 0x15F2 JUMPI PUSH1 0x40 MLOAD PUSH32 0x8C379A000000000000000000000000000000000000000000000000000000000 DUP2 MSTORE PUSH1 0x4 ADD PUSH2 0x881 SWAP1 PUSH2 0x5A33 JUMP JUMPDEST DUP7 PUSH1 0xFF AND PUSH1 0x7 DUP2 GT ISZERO PUSH2 0x1601 JUMPI INVALID JUMPDEST SWAP6 POP PUSH1 0x0 DUP7 PUSH1 0x7 DUP2 GT ISZERO PUSH2 0x1611 JUMPI INVALID JUMPDEST EQ ISZERO PUSH2 0x1649 JUMPI PUSH1 0x40 MLOAD PUSH32 0x8C379A000000000000000000000000000000000000000000000000000000000 DUP2 MSTORE PUSH1 0x4 ADD PUSH2 0x881 SWAP1 PUSH2 0x5B03 JUMP JUMPDEST PUSH1 0x1 DUP7 PUSH1 0x7 DUP2 GT ISZERO PUSH2 0x1657 JUMPI INVALID JUMPDEST EQ ISZERO PUSH2 0x169F JUMPI DUP9 MLOAD ISZERO PUSH2 0x1696 JUMPI PUSH1 0x40 MLOAD PUSH32 0x8C379A000000000000000000000000000000000000000000000000000000000 DUP2 MSTORE PUSH1 0x4 ADD PUSH2 0x881 SWAP1 PUSH2 0x5BD3 JUMP JUMPDEST PUSH1 0x0 SWAP8 POP PUSH2 0x1AB3 JUMP JUMPDEST PUSH1 0x2 DUP7 PUSH1 0x7 DUP2 GT ISZERO PUSH2 0x16AD JUMPI INVALID JUMPDEST EQ ISZERO PUSH2 0x17E8 JUMPI DUP9 MLOAD PUSH1 0x41 EQ PUSH2 0x16EE JUMPI PUSH1 0x40 MLOAD PUSH32 0x8C379A000000000000000000000000000000000000000000000000000000000 DUP2 MSTORE PUSH1 0x4 ADD PUSH2 0x881 SWAP1 PUSH2 0x59D3 JUMP JUMPDEST DUP9 PUSH1 0x0 DUP2 MLOAD DUP2 LT ISZERO ISZERO PUSH2 0x16FD JUMPI INVALID JUMPDEST ADD PUSH1 0x20 ADD MLOAD PUSH32 0x100000000000000000000000000000000000000000000000000000000000000 SWAP1 DUP2 SWAP1 DIV DUP2 MUL DIV SWAP5 POP PUSH2 0x173D DUP10 PUSH1 0x1 PUSH4 0xFFFFFFFF PUSH2 0x3402 AND JUMP JUMPDEST SWAP4 POP PUSH2 0x1750 DUP10 PUSH1 0x21 PUSH4 0xFFFFFFFF PUSH2 0x3402 AND JUMP JUMPDEST SWAP3 POP PUSH1 0x1 DUP12 DUP7 DUP7 DUP7 PUSH1 0x40 MLOAD PUSH1 0x0 DUP2 MSTORE PUSH1 0x20 ADD PUSH1 0x40 MSTORE PUSH1 0x40 MLOAD PUSH2 0x1775 SWAP5 SWAP4 SWAP3 SWAP2 SWAP1 PUSH2 0x5964 JUMP JUMPDEST PUSH1 0x20 PUSH1 0x40 MLOAD PUSH1 0x20 DUP2 SUB SWAP1 DUP1 DUP5 SUB SWAP1 PUSH1 0x0 DUP7 GAS CALL ISZERO DUP1 ISZERO PUSH2 0x1799 JUMPI RETURNDATASIZE PUSH1 0x0 DUP1 RETURNDATACOPY RETURNDATASIZE PUSH1 0x0 REVERT JUMPDEST POP POP PUSH1 0x40 MLOAD PUSH32 0xFFFFFFFFFFFFFFFFFFFFFFFFFFFFFFFFFFFFFFFFFFFFFFFFFFFFFFFFFFFFFFE0 ADD MLOAD PUSH20 0xFFFFFFFFFFFFFFFFFFFFFFFFFFFFFFFFFFFFFFFF DUP13 DUP2 AND SWAP1 DUP3 AND EQ SWAP10 POP SWAP3 POP PUSH2 0x1AB3 SWAP1 POP JUMP JUMPDEST PUSH1 0x3 DUP7 PUSH1 0x7 DUP2 GT ISZERO PUSH2 0x17F6 JUMPI INVALID JUMPDEST EQ ISZERO PUSH2 0x199C JUMPI DUP9 MLOAD PUSH1 0x41 EQ PUSH2 0x1837 JUMPI PUSH1 0x40 MLOAD PUSH32 0x8C379A000000000000000000000000000000000000000000000000000000000 DUP2 MSTORE PUSH1 0x4 ADD PUSH2 0x881 SWAP1 PUSH2 0x59D3 JUMP JUMPDEST DUP9 PUSH1 0x0 DUP2 MLOAD DUP2 LT ISZERO ISZERO PUSH2 0x1846 JUMPI INVALID JUMPDEST ADD PUSH1 0x20 ADD MLOAD PUSH32 0x100000000000000000000000000000000000000000000000000000000000000 SWAP1 DUP2 SWAP1 DIV DUP2 MUL DIV SWAP5 POP PUSH2 0x1886 DUP10 PUSH1 0x1 PUSH4 0xFFFFFFFF PUSH2 0x3402 AND JUMP JUMPDEST SWAP4 POP PUSH2 0x1899 DUP10 PUSH1 0x21 PUSH4 0xFFFFFFFF PUSH2 0x3402 AND JUMP JUMPDEST SWAP3 POP PUSH1 0x1 DUP12 PUSH1 0x40 MLOAD PUSH1 0x20 ADD DUP1 DUP1 PUSH32 0x19457468657265756D205369676E6564204D6573736167653A0A333200000000 DUP2 MSTORE POP PUSH1 0x1C ADD DUP3 PUSH1 0x0 NOT AND PUSH1 0x0 NOT AND DUP2 MSTORE PUSH1 0x20 ADD SWAP2 POP POP PUSH1 0x40 MLOAD PUSH1 0x20 DUP2 DUP4 SUB SUB DUP2 MSTORE SWAP1 PUSH1 0x40 MSTORE PUSH1 0x40 MLOAD DUP1 DUP3 DUP1 MLOAD SWAP1 PUSH1 0x20 ADD SWAP1 DUP1 DUP4 DUP4 JUMPDEST PUSH1 0x20 DUP4 LT PUSH2 0x193A JUMPI DUP1 MLOAD DUP3 MSTORE PUSH32 0xFFFFFFFFFFFFFFFFFFFFFFFFFFFFFFFFFFFFFFFFFFFFFFFFFFFFFFFFFFFFFFE0 SWAP1 SWAP3 ADD SWAP2 PUSH1 0x20 SWAP2 DUP3 ADD SWAP2 ADD PUSH2 0x18FD JUMP JUMPDEST MLOAD DUP2 MLOAD PUSH1 0x20 SWAP4 DUP5 SUB PUSH2 0x100 EXP PUSH32 0xFFFFFFFFFFFFFFFFFFFFFFFFFFFFFFFFFFFFFFFFFFFFFFFFFFFFFFFFFFFFFFFF ADD DUP1 NOT SWAP1 SWAP3 AND SWAP2 AND OR SWAP1 MSTORE PUSH1 0x40 DUP1 MLOAD SWAP3 SWAP1 SWAP5 ADD DUP3 SWAP1 SUB DUP3 KECCAK256 PUSH1 0x0 DUP4 MSTORE SWAP2 ADD SWAP3 DUP4 SWAP1 MSTORE PUSH2 0x1775 SWAP5 POP SWAP3 POP DUP10 SWAP2 DUP10 SWAP2 POP DUP9 SWAP1 PUSH2 0x5964 JUMP JUMPDEST PUSH1 0x4 DUP7 PUSH1 0x7 DUP2 GT ISZERO PUSH2 0x19AA JUMPI INVALID JUMPDEST EQ ISZERO PUSH2 0x19C2 JUMPI PUSH2 0x19BB DUP12 DUP12 DUP12 PUSH2 0x344D JUMP JUMPDEST SWAP8 POP PUSH2 0x1AB3 JUMP JUMPDEST PUSH1 0x5 DUP7 PUSH1 0x7 DUP2 GT ISZERO PUSH2 0x19D0 JUMPI INVALID JUMPDEST EQ ISZERO PUSH2 0x1A33 JUMPI PUSH2 0x19DF DUP10 PUSH2 0x35A2 JUMP JUMPDEST PUSH20 0xFFFFFFFFFFFFFFFFFFFFFFFFFFFFFFFFFFFFFFFF DUP1 DUP13 AND PUSH1 0x0 SWAP1 DUP2 MSTORE PUSH1 0x8 PUSH1 0x20 SWAP1 DUP2 MSTORE PUSH1 0x40 DUP1 DUP4 KECCAK256 SWAP4 DUP6 AND DUP4 MSTORE SWAP3 SWAP1 MSTORE KECCAK256 SLOAD SWAP1 SWAP2 POP PUSH1 0xFF AND ISZERO ISZERO PUSH2 0x1A27 JUMPI PUSH1 0x0 SWAP8 POP PUSH2 0x1AB3 JUMP JUMPDEST PUSH2 0x19BB DUP2 DUP13 DUP13 DUP13 PUSH2 0x361B JUMP JUMPDEST PUSH1 0x6 DUP7 PUSH1 0x7 DUP2 GT ISZERO PUSH2 0x1A41 JUMPI INVALID JUMPDEST EQ ISZERO PUSH2 0x1A81 JUMPI PUSH1 0x0 DUP12 DUP2 MSTORE PUSH1 0x7 PUSH1 0x20 SWAP1 DUP2 MSTORE PUSH1 0x40 DUP1 DUP4 KECCAK256 PUSH20 0xFFFFFFFFFFFFFFFFFFFFFFFFFFFFFFFFFFFFFFFF DUP15 AND DUP5 MSTORE SWAP1 SWAP2 MSTORE SWAP1 KECCAK256 SLOAD PUSH1 0xFF AND SWAP8 POP PUSH2 0x1AB3 JUMP JUMPDEST PUSH1 0x40 MLOAD PUSH32 0x8C379A000000000000000000000000000000000000000000000000000000000 DUP2 MSTORE PUSH1 0x4 ADD PUSH2 0x881 SWAP1 PUSH2 0x5A33 JUMP JUMPDEST POP POP POP POP POP POP POP SWAP4 SWAP3 POP POP POP JUMP JUMPDEST PUSH2 0x1AC9 PUSH2 0x45BD JUMP JUMPDEST PUSH1 0x60 PUSH1 0x0 DUP1 PUSH1 0x0 DUP1 PUSH2 0x1AD9 PUSH2 0x45BD JUMP JUMPDEST DUP10 PUSH1 0x0 DUP2 MLOAD DUP2 LT ISZERO ISZERO PUSH2 0x1AE8 JUMPI INVALID JUMPDEST SWAP1 PUSH1 0x20 ADD SWAP1 PUSH1 0x20 MUL ADD MLOAD PUSH2 0x140 ADD MLOAD SWAP6 POP DUP10 MLOAD SWAP5 POP PUSH1 0x0 SWAP4 POP JUMPDEST DUP4 DUP6 EQ PUSH2 0x1BC7 JUMPI DUP6 DUP11 DUP6 DUP2 MLOAD DUP2 LT ISZERO ISZERO PUSH2 0x1B18 JUMPI INVALID JUMPDEST PUSH1 0x20 SWAP1 DUP2 MUL SWAP1 SWAP2 ADD ADD MLOAD PUSH2 0x140 ADD MSTORE DUP7 MLOAD PUSH2 0x1B34 SWAP1 DUP11 SWAP1 PUSH2 0x32FC JUMP JUMPDEST SWAP3 POP PUSH2 0x1B77 DUP11 DUP6 DUP2 MLOAD DUP2 LT ISZERO ISZERO PUSH2 0x1B47 JUMPI INVALID JUMPDEST SWAP1 PUSH1 0x20 ADD SWAP1 PUSH1 0x20 MUL ADD MLOAD PUSH1 0xA0 ADD MLOAD DUP12 DUP7 DUP2 MLOAD DUP2 LT ISZERO ISZERO PUSH2 0x1B63 JUMPI INVALID JUMPDEST SWAP1 PUSH1 0x20 ADD SWAP1 PUSH1 0x20 MUL ADD MLOAD PUSH1 0x80 ADD MLOAD DUP6 PUSH2 0x3777 JUMP JUMPDEST SWAP2 POP PUSH2 0x1BA3 DUP11 DUP6 DUP2 MLOAD DUP2 LT ISZERO ISZERO PUSH2 0x1B8A JUMPI INVALID JUMPDEST SWAP1 PUSH1 0x20 ADD SWAP1 PUSH1 0x20 MUL ADD MLOAD DUP4 DUP11 DUP8 DUP2 MLOAD DUP2 LT ISZERO ISZERO PUSH2 0x1049 JUMPI INVALID JUMPDEST SWAP1 POP PUSH2 0x1BAF DUP8 DUP3 PUSH2 0x292B JUMP JUMPDEST DUP7 MLOAD DUP10 GT PUSH2 0x1BBC JUMPI PUSH2 0x1BC7 JUMP JUMPDEST PUSH1 0x1 SWAP1 SWAP4 ADD SWAP3 PUSH2 0x1B02 JUMP JUMPDEST POP POP POP POP POP POP SWAP4 SWAP3 POP POP POP JUMP JUMPDEST PUSH2 0x1BDC PUSH2 0x45BD JUMP JUMPDEST PUSH1 0x0 SLOAD PUSH1 0xFF AND ISZERO PUSH2 0x1C19 JUMPI PUSH1 0x40 MLOAD PUSH32 0x8C379A000000000000000000000000000000000000000000000000000000000 DUP2 MSTORE PUSH1 0x4 ADD PUSH2 0x881 SWAP1 PUSH2 0x5B63 JUMP JUMPDEST PUSH1 0x0 DUP1 SLOAD PUSH32 0xFFFFFFFFFFFFFFFFFFFFFFFFFFFFFFFFFFFFFFFFFFFFFFFFFFFFFFFFFFFFFF00 AND PUSH1 0x1 OR SWAP1 SSTORE PUSH2 0x1157 DUP5 DUP5 DUP5 PUSH2 0x288D JUMP JUMPDEST PUSH1 0x0 PUSH2 0x7F4 DUP5 DUP5 DUP5 PUSH2 0x3777 JUMP JUMPDEST PUSH1 0xA SLOAD PUSH1 0x0 SWAP1 PUSH20 0xFFFFFFFFFFFFFFFFFFFFFFFFFFFFFFFFFFFFFFFF AND ISZERO PUSH2 0x1CAF JUMPI PUSH1 0x40 MLOAD PUSH32 0x8C379A000000000000000000000000000000000000000000000000000000000 DUP2 MSTORE PUSH1 0x4 ADD PUSH2 0x881 SWAP1 PUSH2 0x5B63 JUMP JUMPDEST PUSH2 0x1CF2 PUSH2 0x1CED DUP9 DUP9 DUP9 DUP9 DUP1 DUP1 PUSH1 0x1F ADD PUSH1 0x20 DUP1 SWAP2 DIV MUL PUSH1 0x20 ADD PUSH1 0x40 MLOAD SWAP1 DUP2 ADD PUSH1 0x40 MSTORE DUP1 SWAP4 SWAP3 SWAP2 SWAP1 DUP2 DUP2 MSTORE PUSH1 0x20 ADD DUP4 DUP4 DUP1 DUP3 DUP5 CALLDATACOPY POP PUSH2 0x37BF SWAP5 POP POP POP POP POP JUMP JUMPDEST PUSH2 0x3A00 JUMP JUMPDEST PUSH1 0x0 DUP2 DUP2 MSTORE PUSH1 0x9 PUSH1 0x20 MSTORE PUSH1 0x40 SWAP1 KECCAK256 SLOAD SWAP1 SWAP2 POP PUSH1 0xFF AND ISZERO PUSH2 0x1D3E JUMPI PUSH1 0x40 MLOAD PUSH32 0x8C379A000000000000000000000000000000000000000000000000000000000 DUP2 MSTORE PUSH1 0x4 ADD PUSH2 0x881 SWAP1 PUSH2 0x5A83 JUMP JUMPDEST PUSH20 0xFFFFFFFFFFFFFFFFFFFFFFFFFFFFFFFFFFFFFFFF DUP7 AND CALLER EQ PUSH2 0x1E0F JUMPI PUSH2 0x1D96 DUP2 DUP8 DUP6 DUP6 DUP1 DUP1 PUSH1 0x1F ADD PUSH1 0x20 DUP1 SWAP2 DIV MUL PUSH1 0x20 ADD PUSH1 0x40 MLOAD SWAP1 DUP2 ADD PUSH1 0x40 MSTORE DUP1 SWAP4 SWAP3 SWAP2 SWAP1 DUP2 DUP2 MSTORE PUSH1 0x20 ADD DUP4 DUP4 DUP1 DUP3 DUP5 CALLDATACOPY POP PUSH2 0x153E SWAP5 POP POP POP POP POP JUMP JUMPDEST ISZERO ISZERO PUSH2 0x1DCE JUMPI PUSH1 0x40 MLOAD PUSH32 0x8C379A000000000000000000000000000000000000000000000000000000000 DUP2 MSTORE PUSH1 0x4 ADD PUSH2 0x881 SWAP1 PUSH2 0x5BC3 JUMP JUMPDEST PUSH1 0xA DUP1 SLOAD PUSH32 0xFFFFFFFFFFFFFFFFFFFFFFFF0000000000000000000000000000000000000000 AND PUSH20 0xFFFFFFFFFFFFFFFFFFFFFFFFFFFFFFFFFFFFFFFF DUP9 AND OR SWAP1 SSTORE JUMPDEST PUSH1 0x0 DUP2 DUP2 MSTORE PUSH1 0x9 PUSH1 0x20 MSTORE PUSH1 0x40 SWAP1 DUP2 SWAP1 KECCAK256 DUP1 SLOAD PUSH32 0xFFFFFFFFFFFFFFFFFFFFFFFFFFFFFFFFFFFFFFFFFFFFFFFFFFFFFFFFFFFFFF00 AND PUSH1 0x1 OR SWAP1 SSTORE MLOAD ADDRESS SWAP1 DUP7 SWAP1 DUP7 SWAP1 DUP1 DUP4 DUP4 DUP1 DUP3 DUP5 CALLDATACOPY DUP3 ADD SWAP2 POP POP SWAP3 POP POP POP PUSH1 0x0 PUSH1 0x40 MLOAD DUP1 DUP4 SUB DUP2 DUP6 GAS DELEGATECALL SWAP2 POP POP ISZERO ISZERO PUSH2 0x1EA6 JUMPI PUSH1 0x40 MLOAD PUSH32 0x8C379A000000000000000000000000000000000000000000000000000000000 DUP2 MSTORE PUSH1 0x4 ADD PUSH2 0x881 SWAP1 PUSH2 0x5AB3 JUMP JUMPDEST PUSH20 0xFFFFFFFFFFFFFFFFFFFFFFFFFFFFFFFFFFFFFFFF DUP7 AND CALLER EQ PUSH2 0x1EEC JUMPI PUSH1 0xA DUP1 SLOAD PUSH32 0xFFFFFFFFFFFFFFFFFFFFFFFF0000000000000000000000000000000000000000 AND SWAP1 SSTORE JUMPDEST POP POP POP POP POP POP POP JUMP JUMPDEST PUSH1 0x3 SLOAD PUSH1 0x0 SWAP1 DUP2 SWAP1 DUP2 SWAP1 PUSH20 0xFFFFFFFFFFFFFFFFFFFFFFFFFFFFFFFFFFFFFFFF AND CALLER EQ PUSH2 0x1F4D JUMPI PUSH1 0x40 MLOAD PUSH32 0x8C379A000000000000000000000000000000000000000000000000000000000 DUP2 MSTORE PUSH1 0x4 ADD PUSH2 0x881 SWAP1 PUSH2 0x5B73 JUMP JUMPDEST DUP4 SWAP3 POP DUP3 PUSH20 0xFFFFFFFFFFFFFFFFFFFFFFFFFFFFFFFFFFFFFFFF AND PUSH4 0xAE25532E PUSH1 0x40 MLOAD DUP2 PUSH4 0xFFFFFFFF AND PUSH29 0x100000000000000000000000000000000000000000000000000000000 MUL DUP2 MSTORE PUSH1 0x4 ADD PUSH1 0x20 PUSH1 0x40 MLOAD DUP1 DUP4 SUB DUP2 PUSH1 0x0 DUP8 DUP1 EXTCODESIZE ISZERO DUP1 ISZERO PUSH2 0x1FB4 JUMPI PUSH1 0x0 DUP1 REVERT JUMPDEST POP GAS CALL ISZERO DUP1 ISZERO PUSH2 0x1FC8 JUMPI RETURNDATASIZE PUSH1 0x0 DUP1 RETURNDATACOPY RETURNDATASIZE PUSH1 0x0 REVERT JUMPDEST POP POP POP POP PUSH1 0x40 MLOAD RETURNDATASIZE PUSH1 0x1F NOT PUSH1 0x1F DUP3 ADD AND DUP3 ADD DUP1 PUSH1 0x40 MSTORE POP PUSH2 0x1FEC SWAP2 SWAP1 DUP2 ADD SWAP1 PUSH2 0x4CBA JUMP JUMPDEST PUSH32 0xFFFFFFFF00000000000000000000000000000000000000000000000000000000 DUP2 AND PUSH1 0x0 SWAP1 DUP2 MSTORE PUSH1 0xB PUSH1 0x20 MSTORE PUSH1 0x40 SWAP1 KECCAK256 SLOAD SWAP1 SWAP3 POP PUSH20 0xFFFFFFFFFFFFFFFFFFFFFFFFFFFFFFFFFFFFFFFF AND SWAP1 POP DUP1 ISZERO PUSH2 0x2071 JUMPI PUSH1 0x40 MLOAD PUSH32 0x8C379A000000000000000000000000000000000000000000000000000000000 DUP2 MSTORE PUSH1 0x4 ADD PUSH2 0x881 SWAP1 PUSH2 0x5A13 JUMP JUMPDEST PUSH32 0xFFFFFFFF00000000000000000000000000000000000000000000000000000000 DUP3 AND PUSH1 0x0 SWAP1 DUP2 MSTORE PUSH1 0xB PUSH1 0x20 MSTORE PUSH1 0x40 SWAP1 DUP2 SWAP1 KECCAK256 DUP1 SLOAD PUSH32 0xFFFFFFFFFFFFFFFFFFFFFFFF0000000000000000000000000000000000000000 AND PUSH20 0xFFFFFFFFFFFFFFFFFFFFFFFFFFFFFFFFFFFFFFFF DUP7 AND OR SWAP1 SSTORE MLOAD PUSH32 0xD2C6B762299C609BDB96520B58A49BFB80186934D4F71A86A367571A15C03194 SWAP1 PUSH2 0x2112 SWAP1 DUP5 SWAP1 DUP8 SWAP1 PUSH2 0x5999 JUMP JUMPDEST PUSH1 0x40 MLOAD DUP1 SWAP2 SUB SWAP1 LOG1 POP POP POP POP JUMP JUMPDEST PUSH2 0x2128 PUSH2 0x4615 JUMP JUMPDEST PUSH2 0x2131 DUP3 PUSH2 0x3A3D JUMP JUMPDEST PUSH1 0x20 DUP1 DUP4 ADD DUP3 SWAP1 MSTORE PUSH1 0x0 SWAP2 DUP3 MSTORE PUSH1 0x4 SWAP1 MSTORE PUSH1 0x40 SWAP1 DUP2 SWAP1 KECCAK256 SLOAD SWAP1 DUP3 ADD MSTORE PUSH1 0x80 DUP3 ADD MLOAD ISZERO ISZERO PUSH2 0x2165 JUMPI PUSH1 0x1 JUMPDEST PUSH1 0xFF AND DUP2 MSTORE PUSH2 0x10C2 JUMP JUMPDEST PUSH1 0xA0 DUP3 ADD MLOAD ISZERO ISZERO PUSH2 0x2177 JUMPI PUSH1 0x2 PUSH2 0x215B JUMP JUMPDEST PUSH1 0xA0 DUP3 ADD MLOAD PUSH1 0x40 DUP3 ADD MLOAD LT PUSH2 0x218D JUMPI PUSH1 0x5 PUSH2 0x215B JUMP JUMPDEST PUSH2 0x100 DUP3 ADD MLOAD TIMESTAMP LT PUSH2 0x21A0 JUMPI PUSH1 0x4 PUSH2 0x215B JUMP JUMPDEST PUSH1 0x20 DUP1 DUP3 ADD MLOAD PUSH1 0x0 SWAP1 DUP2 MSTORE PUSH1 0x5 SWAP1 SWAP2 MSTORE PUSH1 0x40 SWAP1 KECCAK256 SLOAD PUSH1 0xFF AND ISZERO PUSH2 0x21C4 JUMPI PUSH1 0x6 PUSH2 0x215B JUMP JUMPDEST PUSH2 0x120 DUP3 ADD MLOAD DUP3 MLOAD PUSH20 0xFFFFFFFFFFFFFFFFFFFFFFFFFFFFFFFFFFFFFFFF SWAP1 DUP2 AND PUSH1 0x0 SWAP1 DUP2 MSTORE PUSH1 0x6 PUSH1 0x20 SWAP1 DUP2 MSTORE PUSH1 0x40 DUP1 DUP4 KECCAK256 PUSH1 0x60 DUP9 ADD MLOAD SWAP1 SWAP5 AND DUP4 MSTORE SWAP3 SWAP1 MSTORE KECCAK256 SLOAD GT ISZERO PUSH2 0x2211 JUMPI PUSH1 0x6 PUSH2 0x215B JUMP JUMPDEST PUSH1 0x3 DUP2 MSTORE SWAP2 SWAP1 POP JUMP JUMPDEST PUSH1 0x0 SLOAD PUSH1 0xFF AND ISZERO PUSH2 0x2257 JUMPI PUSH1 0x40 MLOAD PUSH32 0x8C379A000000000000000000000000000000000000000000000000000000000 DUP2 MSTORE PUSH1 0x4 ADD PUSH2 0x881 SWAP1 PUSH2 0x5B63 JUMP JUMPDEST PUSH1 0x0 DUP1 SLOAD PUSH32 0xFFFFFFFFFFFFFFFFFFFFFFFFFFFFFFFFFFFFFFFFFFFFFFFFFFFFFFFFFFFFFF00 AND PUSH1 0x1 OR SWAP1 SSTORE PUSH2 0x228B DUP2 PUSH2 0x31F9 JUMP JUMPDEST POP PUSH1 0x0 DUP1 SLOAD PUSH32 0xFFFFFFFFFFFFFFFFFFFFFFFFFFFFFFFFFFFFFFFFFFFFFFFFFFFFFFFFFFFFFF00 AND SWAP1 SSTORE JUMP JUMPDEST PUSH1 0x6 PUSH1 0x20 SWAP1 DUP2 MSTORE PUSH1 0x0 SWAP3 DUP4 MSTORE PUSH1 0x40 DUP1 DUP5 KECCAK256 SWAP1 SWAP2 MSTORE SWAP1 DUP3 MSTORE SWAP1 KECCAK256 SLOAD DUP2 JUMP JUMPDEST PUSH1 0x1 DUP1 SLOAD PUSH1 0x40 DUP1 MLOAD PUSH1 0x20 PUSH1 0x2 DUP5 DUP7 AND ISZERO PUSH2 0x100 MUL PUSH32 0xFFFFFFFFFFFFFFFFFFFFFFFFFFFFFFFFFFFFFFFFFFFFFFFFFFFFFFFFFFFFFFFF ADD SWAP1 SWAP5 AND SWAP4 SWAP1 SWAP4 DIV PUSH1 0x1F DUP2 ADD DUP5 SWAP1 DIV DUP5 MUL DUP3 ADD DUP5 ADD SWAP1 SWAP3 MSTORE DUP2 DUP2 MSTORE SWAP3 SWAP2 DUP4 ADD DUP3 DUP3 DUP1 ISZERO PUSH2 0x2376 JUMPI DUP1 PUSH1 0x1F LT PUSH2 0x234B JUMPI PUSH2 0x100 DUP1 DUP4 SLOAD DIV MUL DUP4 MSTORE SWAP2 PUSH1 0x20 ADD SWAP2 PUSH2 0x2376 JUMP JUMPDEST DUP3 ADD SWAP2 SWAP1 PUSH1 0x0 MSTORE PUSH1 0x20 PUSH1 0x0 KECCAK256 SWAP1 JUMPDEST DUP2 SLOAD DUP2 MSTORE SWAP1 PUSH1 0x1 ADD SWAP1 PUSH1 0x20 ADD DUP1 DUP4 GT PUSH2 0x2359 JUMPI DUP3 SWAP1 SUB PUSH1 0x1F AND DUP3 ADD SWAP2 JUMPDEST POP POP POP POP POP DUP2 JUMP JUMPDEST PUSH2 0x2386 PUSH2 0x45BD JUMP JUMPDEST PUSH1 0x60 PUSH1 0x0 DUP1 PUSH1 0x0 PUSH2 0x2395 PUSH2 0x45BD JUMP JUMPDEST DUP9 PUSH1 0x0 DUP2 MLOAD DUP2 LT ISZERO ISZERO PUSH2 0x23A4 JUMPI INVALID JUMPDEST SWAP1 PUSH1 0x20 ADD SWAP1 PUSH1 0x20 MUL ADD MLOAD PUSH2 0x160 ADD MLOAD SWAP5 POP DUP9 MLOAD SWAP4 POP PUSH1 0x0 SWAP3 POP JUMPDEST DUP3 DUP5 EQ PUSH2 0x2447 JUMPI DUP5 DUP10 DUP5 DUP2 MLOAD DUP2 LT ISZERO ISZERO PUSH2 0x23D4 JUMPI INVALID JUMPDEST SWAP1 PUSH1 0x20 ADD SWAP1 PUSH1 0x20 MUL ADD MLOAD PUSH2 0x160 ADD DUP2 SWAP1 MSTORE POP PUSH2 0x23F4 DUP9 DUP8 PUSH1 0x20 ADD MLOAD PUSH2 0x32FC JUMP JUMPDEST SWAP2 POP PUSH2 0x2420 DUP10 DUP5 DUP2 MLOAD DUP2 LT ISZERO ISZERO PUSH2 0x2407 JUMPI INVALID JUMPDEST SWAP1 PUSH1 0x20 ADD SWAP1 PUSH1 0x20 MUL ADD MLOAD DUP4 DUP10 DUP7 DUP2 MLOAD DUP2 LT ISZERO ISZERO PUSH2 0x1049 JUMPI INVALID JUMPDEST SWAP1 POP PUSH2 0x242C DUP7 DUP3 PUSH2 0x292B JUMP JUMPDEST PUSH1 0x20 DUP7 ADD MLOAD DUP9 GT PUSH2 0x243C JUMPI PUSH2 0x2447 JUMP JUMPDEST PUSH1 0x1 SWAP1 SWAP3 ADD SWAP2 PUSH2 0x23BE JUMP JUMPDEST POP POP POP POP POP SWAP4 SWAP3 POP POP POP JUMP JUMPDEST PUSH1 0x0 PUSH2 0x7F4 DUP5 DUP5 DUP5 PUSH2 0x3A4B JUMP JUMPDEST PUSH1 0x0 PUSH2 0x7F4 DUP5 DUP5 DUP5 PUSH2 0x3AC8 JUMP JUMPDEST PUSH2 0x2475 PUSH2 0x45BD JUMP JUMPDEST PUSH2 0x7F7 DUP4 DUP4 PUSH2 0x3B45 JUMP JUMPDEST PUSH1 0x2 SLOAD DUP2 JUMP JUMPDEST PUSH2 0x248D PUSH2 0x45BD JUMP JUMPDEST PUSH1 0x60 PUSH1 0x0 DUP1 PUSH1 0x0 DUP1 PUSH2 0x249D PUSH2 0x45BD JUMP JUMPDEST PUSH1 0x0 SLOAD PUSH1 0xFF AND ISZERO PUSH2 0x24DA JUMPI PUSH1 0x40 MLOAD PUSH32 0x8C379A000000000000000000000000000000000000000000000000000000000 DUP2 MSTORE PUSH1 0x4 ADD PUSH2 0x881 SWAP1 PUSH2 0x5B63 JUMP JUMPDEST PUSH1 0x0 DUP1 SLOAD PUSH32 0xFFFFFFFFFFFFFFFFFFFFFFFFFFFFFFFFFFFFFFFFFFFFFFFFFFFFFFFFFFFFFF00 AND PUSH1 0x1 OR DUP2 SSTORE DUP11 MLOAD DUP12 SWAP2 SWAP1 DUP2 LT PUSH2 0x2512 JUMPI INVALID JUMPDEST SWAP1 PUSH1 0x20 ADD SWAP1 PUSH1 0x20 MUL ADD MLOAD PUSH2 0x140 ADD MLOAD SWAP6 POP DUP10 MLOAD SWAP5 POP PUSH1 0x0 SWAP4 POP JUMPDEST DUP4 DUP6 EQ PUSH2 0x25C1 JUMPI DUP6 DUP11 DUP6 DUP2 MLOAD DUP2 LT ISZERO ISZERO PUSH2 0x2542 JUMPI INVALID JUMPDEST PUSH1 0x20 SWAP1 DUP2 MUL SWAP1 SWAP2 ADD ADD MLOAD PUSH2 0x140 ADD MSTORE DUP7 MLOAD PUSH2 0x255E SWAP1 DUP11 SWAP1 PUSH2 0x32FC JUMP JUMPDEST SWAP3 POP PUSH2 0x2571 DUP11 DUP6 DUP2 MLOAD DUP2 LT ISZERO ISZERO PUSH2 0x1B47 JUMPI INVALID JUMPDEST SWAP2 POP PUSH2 0x259D DUP11 DUP6 DUP2 MLOAD DUP2 LT ISZERO ISZERO PUSH2 0x2584 JUMPI INVALID JUMPDEST SWAP1 PUSH1 0x20 ADD SWAP1 PUSH1 0x20 MUL ADD MLOAD DUP4 DUP11 DUP8 DUP2 MLOAD DUP2 LT ISZERO ISZERO PUSH2 0x904 JUMPI INVALID JUMPDEST SWAP1 POP PUSH2 0x25A9 DUP8 DUP3 PUSH2 0x292B JUMP JUMPDEST DUP7 MLOAD DUP10 GT PUSH2 0x25B6 JUMPI PUSH2 0x25C1 JUMP JUMPDEST PUSH1 0x1 SWAP1 SWAP4 ADD SWAP3 PUSH2 0x252C JUMP JUMPDEST POP POP PUSH1 0x0 DUP1 SLOAD PUSH32 0xFFFFFFFFFFFFFFFFFFFFFFFFFFFFFFFFFFFFFFFFFFFFFFFFFFFFFFFFFFFFFF00 AND SWAP1 SSTORE POP SWAP3 SWAP7 SWAP6 POP POP POP POP POP POP JUMP JUMPDEST PUSH1 0xA SLOAD PUSH20 0xFFFFFFFFFFFFFFFFFFFFFFFFFFFFFFFFFFFFFFFF AND DUP2 JUMP JUMPDEST PUSH1 0x3 SLOAD PUSH20 0xFFFFFFFFFFFFFFFFFFFFFFFFFFFFFFFFFFFFFFFF AND CALLER EQ PUSH2 0x2664 JUMPI PUSH1 0x40 MLOAD PUSH32 0x8C379A000000000000000000000000000000000000000000000000000000000 DUP2 MSTORE PUSH1 0x4 ADD PUSH2 0x881 SWAP1 PUSH2 0x5B73 JUMP JUMPDEST PUSH20 0xFFFFFFFFFFFFFFFFFFFFFFFFFFFFFFFFFFFFFFFF DUP2 AND ISZERO PUSH2 0x26C1 JUMPI PUSH1 0x3 DUP1 SLOAD PUSH32 0xFFFFFFFFFFFFFFFFFFFFFFFF0000000000000000000000000000000000000000 AND PUSH20 0xFFFFFFFFFFFFFFFFFFFFFFFFFFFFFFFFFFFFFFFF DUP4 AND OR SWAP1 SSTORE JUMPDEST POP JUMP JUMPDEST PUSH1 0x40 DUP1 MLOAD DUP1 DUP3 ADD SWAP1 SWAP2 MSTORE PUSH1 0xB DUP2 MSTORE PUSH32 0x322E302E312D616C706861000000000000000000000000000000000000000000 PUSH1 0x20 DUP3 ADD MSTORE DUP2 JUMP JUMPDEST PUSH1 0x0 DUP1 DUP1 DUP5 GT PUSH2 0x2737 JUMPI PUSH1 0x40 MLOAD PUSH32 0x8C379A000000000000000000000000000000000000000000000000000000000 DUP2 MSTORE PUSH1 0x4 ADD PUSH2 0x881 SWAP1 PUSH2 0x5A43 JUMP JUMPDEST DUP3 ISZERO DUP1 PUSH2 0x2742 JUMPI POP DUP5 ISZERO JUMPDEST ISZERO PUSH2 0x2750 JUMPI PUSH1 0x0 SWAP2 POP PUSH2 0xC43 JUMP JUMPDEST DUP4 DUP1 ISZERO ISZERO PUSH2 0x275A JUMPI INVALID JUMPDEST DUP6 DUP5 MULMOD SWAP1 POP PUSH2 0x2769 DUP6 DUP5 PUSH2 0x3BA6 JUMP JUMPDEST PUSH2 0x2775 PUSH2 0x3E8 DUP4 PUSH2 0x3BA6 JUMP JUMPDEST LT ISZERO SWAP6 SWAP5 POP POP POP POP POP JUMP JUMPDEST PUSH2 0x278E DUP3 DUP3 PUSH1 0x20 ADD MLOAD PUSH2 0x3C0C JUMP JUMPDEST PUSH1 0x0 DUP5 DUP2 MSTORE PUSH1 0x4 PUSH1 0x20 SWAP1 DUP2 MSTORE PUSH1 0x40 SWAP2 DUP3 SWAP1 KECCAK256 SWAP3 SWAP1 SWAP3 SSTORE DUP7 DUP2 ADD MLOAD DUP8 MLOAD DUP5 MLOAD SWAP4 DUP6 ADD MLOAD DUP6 DUP5 ADD MLOAD PUSH1 0x60 DUP8 ADD MLOAD PUSH2 0x140 DUP13 ADD MLOAD PUSH2 0x160 DUP14 ADD MLOAD SWAP7 MLOAD DUP12 SWAP9 PUSH20 0xFFFFFFFFFFFFFFFFFFFFFFFFFFFFFFFFFFFFFFFF SWAP8 DUP9 AND SWAP9 SWAP8 SWAP1 SWAP7 AND SWAP7 PUSH32 0xBCC4C97732E47D9946F229EDB95F5B6323F601300E4690DE719993F3C371129 SWAP7 PUSH2 0x281D SWAP7 DUP16 SWAP7 CALLER SWAP7 SWAP3 SWAP6 SWAP2 SWAP5 SWAP1 SWAP4 SWAP1 PUSH2 0x5829 JUMP JUMPDEST PUSH1 0x40 MLOAD DUP1 SWAP2 SUB SWAP1 LOG4 POP POP POP POP POP JUMP JUMPDEST PUSH1 0x0 DUP1 DUP4 GT PUSH2 0x2867 JUMPI PUSH1 0x40 MLOAD PUSH32 0x8C379A000000000000000000000000000000000000000000000000000000000 DUP2 MSTORE PUSH1 0x4 ADD PUSH2 0x881 SWAP1 PUSH2 0x5A43 JUMP JUMPDEST PUSH2 0x7F4 PUSH2 0x2887 PUSH2 0x2877 DUP7 DUP6 PUSH2 0x3BA6 JUMP JUMPDEST PUSH2 0x2882 DUP7 PUSH1 0x1 PUSH2 0x32FC JUMP JUMPDEST PUSH2 0x3C0C JUMP JUMPDEST DUP5 PUSH2 0x3C4B JUMP JUMPDEST PUSH2 0x2895 PUSH2 0x45BD JUMP JUMPDEST PUSH2 0x289D PUSH2 0x4615 JUMP JUMPDEST PUSH1 0x0 DUP1 PUSH1 0x0 PUSH2 0x28AB DUP9 PUSH2 0x2120 JUMP JUMPDEST SWAP4 POP PUSH2 0x28B5 PUSH2 0x298D JUMP JUMPDEST SWAP3 POP PUSH2 0x28C3 DUP9 DUP6 DUP6 DUP10 PUSH2 0x29BE JUMP JUMPDEST PUSH2 0x28D5 DUP9 PUSH1 0xA0 ADD MLOAD DUP6 PUSH1 0x40 ADD MLOAD PUSH2 0x32FC JUMP JUMPDEST SWAP2 POP PUSH2 0x28E1 DUP8 DUP4 PUSH2 0x3C62 JUMP JUMPDEST SWAP1 POP PUSH2 0x28F4 DUP9 DUP6 DUP10 DUP5 DUP10 PUSH1 0x0 ADD MLOAD PUSH2 0x2D3D JUMP JUMPDEST PUSH2 0x28FE DUP9 DUP3 PUSH2 0x3B45 JUMP JUMPDEST SWAP5 POP PUSH2 0x2915 DUP9 DUP5 DUP7 PUSH1 0x20 ADD MLOAD DUP8 PUSH1 0x40 ADD MLOAD DUP10 PUSH2 0x2780 JUMP JUMPDEST PUSH2 0x2920 DUP9 DUP5 DUP8 PUSH2 0x3C71 JUMP JUMPDEST POP POP POP POP SWAP4 SWAP3 POP POP POP JUMP JUMPDEST DUP2 MLOAD DUP2 MLOAD PUSH2 0x2939 SWAP2 SWAP1 PUSH2 0x3C0C JUMP JUMPDEST DUP3 MSTORE PUSH1 0x20 DUP1 DUP4 ADD MLOAD SWAP1 DUP3 ADD MLOAD PUSH2 0x294F SWAP2 SWAP1 PUSH2 0x3C0C JUMP JUMPDEST PUSH1 0x20 DUP4 ADD MSTORE PUSH1 0x40 DUP1 DUP4 ADD MLOAD SWAP1 DUP3 ADD MLOAD PUSH2 0x2968 SWAP2 SWAP1 PUSH2 0x3C0C JUMP JUMPDEST PUSH1 0x40 DUP4 ADD MSTORE PUSH1 0x60 DUP1 DUP4 ADD MLOAD SWAP1 DUP3 ADD MLOAD PUSH2 0x2981 SWAP2 SWAP1 PUSH2 0x3C0C JUMP JUMPDEST PUSH1 0x60 SWAP1 SWAP3 ADD SWAP2 SWAP1 SWAP2 MSTORE POP JUMP JUMPDEST PUSH1 0xA SLOAD PUSH1 0x0 SWAP1 PUSH20 0xFFFFFFFFFFFFFFFFFFFFFFFFFFFFFFFFFFFFFFFF AND DUP2 DUP2 ISZERO PUSH2 0x29B6 JUMPI DUP2 PUSH2 0x7F7 JUMP JUMPDEST CALLER SWAP4 SWAP3 POP POP POP JUMP JUMPDEST DUP3 MLOAD PUSH1 0xFF AND PUSH1 0x3 EQ PUSH2 0x29FC JUMPI PUSH1 0x40 MLOAD PUSH32 0x8C379A000000000000000000000000000000000000000000000000000000000 DUP2 MSTORE PUSH1 0x4 ADD PUSH2 0x881 SWAP1 PUSH2 0x5B93 JUMP JUMPDEST PUSH1 0x60 DUP5 ADD MLOAD PUSH20 0xFFFFFFFFFFFFFFFFFFFFFFFFFFFFFFFFFFFFFFFF AND ISZERO PUSH2 0x2A6F JUMPI PUSH1 0x60 DUP5 ADD MLOAD PUSH20 0xFFFFFFFFFFFFFFFFFFFFFFFFFFFFFFFFFFFFFFFF AND CALLER EQ PUSH2 0x2A6F JUMPI PUSH1 0x40 MLOAD PUSH32 0x8C379A000000000000000000000000000000000000000000000000000000000 DUP2 MSTORE PUSH1 0x4 ADD PUSH2 0x881 SWAP1 PUSH2 0x5BA3 JUMP JUMPDEST PUSH1 0x20 DUP5 ADD MLOAD PUSH20 0xFFFFFFFFFFFFFFFFFFFFFFFFFFFFFFFFFFFFFFFF AND ISZERO PUSH2 0x2AFA JUMPI DUP2 PUSH20 0xFFFFFFFFFFFFFFFFFFFFFFFFFFFFFFFFFFFFFFFF AND DUP5 PUSH1 0x20 ADD MLOAD PUSH20 0xFFFFFFFFFFFFFFFFFFFFFFFFFFFFFFFFFFFFFFFF AND EQ ISZERO ISZERO PUSH2 0x2AFA JUMPI PUSH1 0x40 MLOAD PUSH32 0x8C379A000000000000000000000000000000000000000000000000000000000 DUP2 MSTORE PUSH1 0x4 ADD PUSH2 0x881 SWAP1 PUSH2 0x59E3 JUMP JUMPDEST PUSH1 0x40 DUP4 ADD MLOAD ISZERO ISZERO PUSH2 0x2B50 JUMPI PUSH2 0x2B18 DUP4 PUSH1 0x20 ADD MLOAD DUP6 PUSH1 0x0 ADD MLOAD DUP4 PUSH2 0x153E JUMP JUMPDEST ISZERO ISZERO PUSH2 0x2B50 JUMPI PUSH1 0x40 MLOAD PUSH32 0x8C379A000000000000000000000000000000000000000000000000000000000 DUP2 MSTORE PUSH1 0x4 ADD PUSH2 0x881 SWAP1 PUSH2 0x5A53 JUMP JUMPDEST POP POP POP POP JUMP JUMPDEST PUSH2 0x2B68 DUP3 PUSH1 0xA0 ADD MLOAD DUP3 PUSH1 0xA0 ADD MLOAD PUSH2 0x3BA6 JUMP JUMPDEST PUSH2 0x2B7A DUP4 PUSH1 0x80 ADD MLOAD DUP4 PUSH1 0x80 ADD MLOAD PUSH2 0x3BA6 JUMP JUMPDEST LT ISZERO PUSH2 0x2BB2 JUMPI PUSH1 0x40 MLOAD PUSH32 0x8C379A000000000000000000000000000000000000000000000000000000000 DUP2 MSTORE PUSH1 0x4 ADD PUSH2 0x881 SWAP1 PUSH2 0x5BB3 JUMP JUMPDEST POP POP JUMP JUMPDEST PUSH2 0x2BBE PUSH2 0x45E6 JUMP JUMPDEST PUSH1 0x0 DUP1 PUSH1 0x0 DUP1 PUSH2 0x2BD2 DUP10 PUSH1 0xA0 ADD MLOAD DUP9 PUSH2 0x32FC JUMP JUMPDEST SWAP4 POP PUSH2 0x2BE7 DUP10 PUSH1 0x80 ADD MLOAD DUP11 PUSH1 0xA0 ADD MLOAD DUP7 PUSH2 0x3A4B JUMP JUMPDEST SWAP3 POP PUSH2 0x2BF7 DUP9 PUSH1 0xA0 ADD MLOAD DUP8 PUSH2 0x32FC JUMP JUMPDEST SWAP2 POP PUSH2 0x2C0C DUP9 PUSH1 0x80 ADD MLOAD DUP10 PUSH1 0xA0 ADD MLOAD DUP5 PUSH2 0x3A4B JUMP JUMPDEST SWAP1 POP DUP1 DUP5 LT PUSH2 0x2C4F JUMPI PUSH1 0x20 DUP1 DUP7 ADD DUP1 MLOAD DUP4 SWAP1 MSTORE DUP1 MLOAD DUP3 ADD DUP5 SWAP1 MSTORE MLOAD MLOAD DUP7 MLOAD DUP3 ADD MSTORE PUSH1 0x80 DUP11 ADD MLOAD PUSH1 0xA0 DUP12 ADD MLOAD DUP8 MLOAD SWAP1 SWAP3 ADD MLOAD PUSH2 0x2C47 SWAP3 SWAP1 PUSH2 0x3A4B JUMP JUMPDEST DUP6 MLOAD MSTORE PUSH2 0x2C8C JUMP JUMPDEST DUP5 MLOAD DUP4 SWAP1 MSTORE DUP5 MLOAD PUSH1 0x20 SWAP1 DUP2 ADD DUP6 SWAP1 MSTORE DUP6 MLOAD DUP2 ADD MLOAD SWAP1 DUP7 ADD DUP1 MLOAD SWAP2 SWAP1 SWAP2 MSTORE PUSH1 0xA0 DUP10 ADD MLOAD PUSH1 0x80 DUP11 ADD MLOAD SWAP2 MLOAD MLOAD PUSH2 0x2C83 SWAP3 SWAP1 PUSH2 0x3AC8 JUMP JUMPDEST PUSH1 0x20 DUP1 DUP8 ADD MLOAD ADD MSTORE JUMPDEST DUP5 MLOAD MLOAD PUSH1 0x20 DUP1 DUP8 ADD MLOAD ADD MLOAD PUSH2 0x2CA1 SWAP2 SWAP1 PUSH2 0x32FC JUMP JUMPDEST PUSH1 0x40 DUP7 ADD MSTORE DUP5 MLOAD MLOAD PUSH1 0x80 DUP11 ADD MLOAD PUSH1 0xC0 DUP12 ADD MLOAD PUSH2 0x2CBE SWAP3 SWAP2 SWAP1 PUSH2 0x3A4B JUMP JUMPDEST DUP6 MLOAD PUSH1 0x40 ADD MSTORE DUP5 MLOAD PUSH1 0x20 ADD MLOAD PUSH1 0xA0 DUP11 ADD MLOAD PUSH1 0xE0 DUP12 ADD MLOAD PUSH2 0x2CDF SWAP3 SWAP2 SWAP1 PUSH2 0x3A4B JUMP JUMPDEST DUP6 MLOAD PUSH1 0x60 ADD MSTORE PUSH1 0x20 DUP6 ADD MLOAD MLOAD PUSH1 0x80 DUP10 ADD MLOAD PUSH1 0xC0 DUP11 ADD MLOAD PUSH2 0x2D00 SWAP3 SWAP2 SWAP1 PUSH2 0x3A4B JUMP JUMPDEST DUP6 PUSH1 0x20 ADD MLOAD PUSH1 0x40 ADD DUP2 DUP2 MSTORE POP POP PUSH2 0x2D28 DUP6 PUSH1 0x20 ADD MLOAD PUSH1 0x20 ADD MLOAD DUP10 PUSH1 0xA0 ADD MLOAD DUP11 PUSH1 0xE0 ADD MLOAD PUSH2 0x3A4B JUMP JUMPDEST PUSH1 0x20 DUP7 ADD MLOAD PUSH1 0x60 ADD MSTORE POP POP POP POP SWAP5 SWAP4 POP POP POP POP JUMP JUMPDEST DUP3 ISZERO ISZERO PUSH2 0x2D76 JUMPI PUSH1 0x40 MLOAD PUSH32 0x8C379A000000000000000000000000000000000000000000000000000000000 DUP2 MSTORE PUSH1 0x4 ADD PUSH2 0x881 SWAP1 PUSH2 0x5AD3 JUMP JUMPDEST DUP3 DUP3 GT ISZERO PUSH2 0x2DB0 JUMPI PUSH1 0x40 MLOAD PUSH32 0x8C379A000000000000000000000000000000000000000000000000000000000 DUP2 MSTORE PUSH1 0x4 ADD PUSH2 0x881 SWAP1 PUSH2 0x5AC3 JUMP JUMPDEST DUP5 PUSH1 0xA0 ADD MLOAD PUSH2 0x2DC3 DUP6 PUSH1 0x40 ADD MLOAD DUP5 PUSH2 0x3C0C JUMP JUMPDEST GT ISZERO PUSH2 0x2DFB JUMPI PUSH1 0x40 MLOAD PUSH32 0x8C379A000000000000000000000000000000000000000000000000000000000 DUP2 MSTORE PUSH1 0x4 ADD PUSH2 0x881 SWAP1 PUSH2 0x59F3 JUMP JUMPDEST PUSH2 0x2E09 DUP6 PUSH1 0x80 ADD MLOAD DUP4 PUSH2 0x3BA6 JUMP JUMPDEST PUSH2 0x2E17 DUP3 DUP8 PUSH1 0xA0 ADD MLOAD PUSH2 0x3BA6 JUMP JUMPDEST GT ISZERO PUSH2 0x80B JUMPI PUSH1 0x40 MLOAD PUSH32 0x8C379A000000000000000000000000000000000000000000000000000000000 DUP2 MSTORE PUSH1 0x4 ADD PUSH2 0x881 SWAP1 PUSH2 0x5B53 JUMP JUMPDEST PUSH1 0x1 DUP1 SLOAD PUSH1 0x40 DUP1 MLOAD PUSH1 0x20 PUSH1 0x1F PUSH1 0x2 PUSH32 0xFFFFFFFFFFFFFFFFFFFFFFFFFFFFFFFFFFFFFFFFFFFFFFFFFFFFFFFFFFFFFFFF PUSH2 0x100 DUP8 DUP10 AND ISZERO MUL ADD SWAP1 SWAP6 AND SWAP5 SWAP1 SWAP5 DIV SWAP4 DUP5 ADD DUP2 SWAP1 DIV DUP2 MUL DUP3 ADD DUP2 ADD SWAP1 SWAP3 MSTORE DUP3 DUP2 MSTORE PUSH1 0x60 SWAP4 SWAP1 SWAP3 SWAP1 SWAP2 DUP4 ADD DUP3 DUP3 DUP1 ISZERO PUSH2 0x2EF8 JUMPI DUP1 PUSH1 0x1F LT PUSH2 0x2ECD JUMPI PUSH2 0x100 DUP1 DUP4 SLOAD DIV MUL DUP4 MSTORE SWAP2 PUSH1 0x20 ADD SWAP2 PUSH2 0x2EF8 JUMP JUMPDEST DUP3 ADD SWAP2 SWAP1 PUSH1 0x0 MSTORE PUSH1 0x20 PUSH1 0x0 KECCAK256 SWAP1 JUMPDEST DUP2 SLOAD DUP2 MSTORE SWAP1 PUSH1 0x1 ADD SWAP1 PUSH1 0x20 ADD DUP1 DUP4 GT PUSH2 0x2EDB JUMPI DUP3 SWAP1 SUB PUSH1 0x1F AND DUP3 ADD SWAP2 JUMPDEST POP POP POP POP POP SWAP1 POP PUSH2 0x2F20 DUP6 PUSH2 0x140 ADD MLOAD DUP7 PUSH1 0x0 ADD MLOAD DUP7 PUSH1 0x0 ADD MLOAD DUP6 PUSH1 0x20 ADD MLOAD PUSH1 0x20 ADD MLOAD PUSH2 0x3D7B JUMP JUMPDEST PUSH2 0x140 DUP5 ADD MLOAD DUP5 MLOAD DUP7 MLOAD DUP5 MLOAD PUSH1 0x20 ADD MLOAD PUSH2 0x2F3C SWAP4 SWAP3 SWAP2 SWAP1 PUSH2 0x3D7B JUMP JUMPDEST PUSH2 0x2F55 DUP6 PUSH2 0x140 ADD MLOAD DUP7 PUSH1 0x0 ADD MLOAD DUP6 DUP6 PUSH1 0x40 ADD MLOAD PUSH2 0x3D7B JUMP JUMPDEST PUSH2 0x2F71 DUP2 DUP7 PUSH1 0x0 ADD MLOAD DUP8 PUSH1 0x40 ADD MLOAD DUP6 PUSH1 0x0 ADD MLOAD PUSH1 0x40 ADD MLOAD PUSH2 0x3D7B JUMP JUMPDEST PUSH2 0x2F8D DUP2 DUP6 PUSH1 0x0 ADD MLOAD DUP7 PUSH1 0x40 ADD MLOAD DUP6 PUSH1 0x20 ADD MLOAD PUSH1 0x40 ADD MLOAD PUSH2 0x3D7B JUMP JUMPDEST DUP4 PUSH1 0x40 ADD MLOAD PUSH20 0xFFFFFFFFFFFFFFFFFFFFFFFFFFFFFFFFFFFFFFFF AND DUP6 PUSH1 0x40 ADD MLOAD PUSH20 0xFFFFFFFFFFFFFFFFFFFFFFFFFFFFFFFFFFFFFFFF AND EQ ISZERO PUSH2 0x2FF7 JUMPI PUSH2 0x2FF2 DUP2 DUP5 DUP8 PUSH1 0x40 ADD MLOAD PUSH2 0x2FED DUP7 PUSH1 0x0 ADD MLOAD PUSH1 0x60 ADD MLOAD DUP8 PUSH1 0x20 ADD MLOAD PUSH1 0x60 ADD MLOAD PUSH2 0x3C0C JUMP JUMPDEST PUSH2 0x3D7B JUMP JUMPDEST PUSH2 0x80B JUMP JUMPDEST PUSH2 0x300F DUP2 DUP5 DUP8 PUSH1 0x40 ADD MLOAD DUP6 PUSH1 0x0 ADD MLOAD PUSH1 0x60 ADD MLOAD PUSH2 0x3D7B JUMP JUMPDEST PUSH2 0x80B DUP2 DUP5 DUP7 PUSH1 0x40 ADD MLOAD DUP6 PUSH1 0x20 ADD MLOAD PUSH1 0x60 ADD MLOAD PUSH2 0x3D7B JUMP JUMPDEST PUSH1 0x40 DUP1 MLOAD PUSH32 0xB4BE83D500000000000000000000000000000000000000000000000000000000 PUSH1 0x20 DUP1 DUP4 ADD SWAP2 SWAP1 SWAP2 MSTORE PUSH1 0x60 PUSH1 0x24 DUP4 ADD DUP2 DUP2 MSTORE DUP8 MLOAD PUSH1 0x84 DUP6 ADD SWAP1 DUP2 MSTORE DUP9 DUP5 ADD MLOAD PUSH1 0xA4 DUP7 ADD MSTORE SWAP5 DUP9 ADD MLOAD PUSH1 0xC4 DUP6 ADD MSTORE SWAP1 DUP8 ADD MLOAD PUSH1 0xE4 DUP5 ADD MSTORE PUSH1 0x80 DUP8 ADD MLOAD PUSH2 0x104 DUP5 ADD MSTORE PUSH1 0xA0 DUP8 ADD MLOAD PUSH2 0x124 DUP5 ADD MSTORE PUSH1 0xC0 DUP8 ADD MLOAD PUSH2 0x144 DUP5 ADD MSTORE PUSH1 0xE0 DUP8 ADD MLOAD PUSH2 0x164 DUP5 ADD MSTORE PUSH2 0x100 DUP8 ADD MLOAD PUSH2 0x184 DUP5 ADD MSTORE PUSH2 0x120 DUP8 ADD MLOAD PUSH2 0x1A4 DUP5 ADD MSTORE PUSH2 0x140 DUP8 ADD DUP1 MLOAD PUSH2 0x1C4 DUP6 ADD SWAP1 DUP2 MSTORE PUSH2 0x160 DUP10 ADD MLOAD PUSH2 0x1E4 DUP7 ADD MSTORE PUSH2 0x180 SWAP1 MSTORE MLOAD DUP1 MLOAD PUSH2 0x204 DUP6 ADD DUP2 SWAP1 MSTORE SWAP4 SWAP5 SWAP2 SWAP4 DUP5 SWAP4 PUSH1 0x44 DUP8 ADD SWAP3 DUP5 SWAP3 PUSH2 0x224 DUP10 ADD SWAP3 SWAP2 DUP3 ADD SWAP2 PUSH1 0x1F DUP3 ADD DIV PUSH1 0x0 JUMPDEST DUP2 DUP2 LT ISZERO PUSH2 0x312E JUMPI DUP4 MLOAD DUP6 MSTORE PUSH1 0x20 SWAP5 DUP6 ADD SWAP5 SWAP1 SWAP4 ADD SWAP3 PUSH1 0x1 ADD PUSH2 0x3110 JUMP JUMPDEST POP POP POP POP DUP2 DUP2 SUB PUSH2 0x160 DUP1 DUP5 ADD SWAP2 SWAP1 SWAP2 MSTORE DUP11 ADD MLOAD DUP1 MLOAD DUP1 DUP4 MSTORE PUSH1 0x20 SWAP3 DUP4 ADD SWAP3 SWAP2 DUP3 ADD SWAP2 PUSH1 0x1F DUP3 ADD DIV PUSH1 0x0 JUMPDEST DUP2 DUP2 LT ISZERO PUSH2 0x3177 JUMPI DUP4 MLOAD DUP6 MSTORE PUSH1 0x20 SWAP5 DUP6 ADD SWAP5 SWAP1 SWAP4 ADD SWAP3 PUSH1 0x1 ADD PUSH2 0x3159 JUMP JUMPDEST POP POP POP DUP10 DUP5 MSTORE POP DUP5 DUP2 SUB PUSH1 0x20 SWAP4 DUP5 ADD SWAP1 DUP2 MSTORE DUP9 MLOAD DUP1 DUP4 MSTORE SWAP1 SWAP4 SWAP2 DUP3 ADD SWAP2 DUP10 DUP2 ADD SWAP2 SWAP1 PUSH1 0x1F DUP3 ADD DIV PUSH1 0x0 JUMPDEST DUP2 DUP2 LT ISZERO PUSH2 0x31BF JUMPI DUP4 MLOAD DUP6 MSTORE PUSH1 0x20 SWAP5 DUP6 ADD SWAP5 SWAP1 SWAP4 ADD SWAP3 PUSH1 0x1 ADD PUSH2 0x31A1 JUMP JUMPDEST POP POP POP PUSH32 0xFFFFFFFFFFFFFFFFFFFFFFFFFFFFFFFFFFFFFFFFFFFFFFFFFFFFFFFFFFFFFFE0 DUP9 DUP4 SUB ADD DUP9 MSTORE POP PUSH1 0x40 MSTORE POP POP POP POP POP SWAP4 SWAP3 POP POP POP JUMP JUMPDEST PUSH2 0x3201 PUSH2 0x4615 JUMP JUMPDEST PUSH2 0x320A DUP3 PUSH2 0x2120 JUMP JUMPDEST SWAP1 POP PUSH2 0x3216 DUP3 DUP3 PUSH2 0x3F45 JUMP JUMPDEST PUSH2 0x2BB2 DUP3 DUP3 PUSH1 0x20 ADD MLOAD PUSH2 0x405C JUMP JUMPDEST PUSH2 0x322C PUSH2 0x45BD JUMP JUMPDEST PUSH2 0x3237 DUP5 DUP5 DUP5 PUSH2 0x288D JUMP JUMPDEST PUSH1 0x20 DUP2 ADD MLOAD SWAP1 SWAP2 POP DUP4 EQ PUSH2 0x7F7 JUMPI PUSH1 0x40 MLOAD PUSH32 0x8C379A000000000000000000000000000000000000000000000000000000000 DUP2 MSTORE PUSH1 0x4 ADD PUSH2 0x881 SWAP1 PUSH2 0x5B43 JUMP JUMPDEST PUSH1 0x0 DUP1 DUP1 DUP5 GT PUSH2 0x32B3 JUMPI PUSH1 0x40 MLOAD PUSH32 0x8C379A000000000000000000000000000000000000000000000000000000000 DUP2 MSTORE PUSH1 0x4 ADD PUSH2 0x881 SWAP1 PUSH2 0x5A43 JUMP JUMPDEST DUP3 ISZERO DUP1 PUSH2 0x32BE JUMPI POP DUP5 ISZERO JUMPDEST ISZERO PUSH2 0x32CC JUMPI PUSH1 0x0 SWAP2 POP PUSH2 0xC43 JUMP JUMPDEST DUP4 DUP1 ISZERO ISZERO PUSH2 0x32D6 JUMPI INVALID JUMPDEST DUP6 DUP5 MULMOD SWAP1 POP DUP4 PUSH2 0x32E6 DUP6 DUP4 PUSH2 0x32FC JUMP JUMPDEST DUP2 ISZERO ISZERO PUSH2 0x32EF JUMPI INVALID JUMPDEST MOD SWAP1 POP PUSH2 0x2769 DUP6 DUP5 PUSH2 0x3BA6 JUMP JUMPDEST PUSH1 0x0 DUP3 DUP3 GT ISZERO PUSH2 0x3338 JUMPI PUSH1 0x40 MLOAD PUSH32 0x8C379A000000000000000000000000000000000000000000000000000000000 DUP2 MSTORE PUSH1 0x4 ADD PUSH2 0x881 SWAP1 PUSH2 0x5A03 JUMP JUMPDEST POP SWAP1 SUB SWAP1 JUMP JUMPDEST PUSH1 0x0 DUP1 DUP3 MLOAD GT ISZERO ISZERO PUSH2 0x337C JUMPI PUSH1 0x40 MLOAD PUSH32 0x8C379A000000000000000000000000000000000000000000000000000000000 DUP2 MSTORE PUSH1 0x4 ADD PUSH2 0x881 SWAP1 PUSH2 0x5AF3 JUMP JUMPDEST DUP2 MLOAD DUP3 SWAP1 PUSH32 0xFFFFFFFFFFFFFFFFFFFFFFFFFFFFFFFFFFFFFFFFFFFFFFFFFFFFFFFFFFFFFFFF DUP2 ADD SWAP1 DUP2 LT PUSH2 0x33AC JUMPI INVALID JUMPDEST ADD PUSH1 0x20 ADD MLOAD DUP3 MLOAD PUSH32 0xFFFFFFFFFFFFFFFFFFFFFFFFFFFFFFFFFFFFFFFFFFFFFFFFFFFFFFFFFFFFFFFF ADD SWAP1 SWAP3 MSTORE POP PUSH32 0x100000000000000000000000000000000000000000000000000000000000000 SWAP1 DUP2 SWAP1 DIV MUL SWAP1 JUMP JUMPDEST PUSH1 0x0 DUP2 PUSH1 0x20 ADD DUP4 MLOAD LT ISZERO ISZERO ISZERO PUSH2 0x3444 JUMPI PUSH1 0x40 MLOAD PUSH32 0x8C379A000000000000000000000000000000000000000000000000000000000 DUP2 MSTORE PUSH1 0x4 ADD PUSH2 0x881 SWAP1 PUSH2 0x5A23 JUMP JUMPDEST POP ADD PUSH1 0x20 ADD MLOAD SWAP1 JUMP JUMPDEST PUSH1 0x40 MLOAD PUSH1 0x0 SWAP1 PUSH1 0x60 SWAP1 PUSH32 0x1626BA7E00000000000000000000000000000000000000000000000000000000 SWAP1 PUSH2 0x3488 SWAP1 DUP8 SWAP1 DUP7 SWAP1 PUSH1 0x24 ADD PUSH2 0x5944 JUMP JUMPDEST PUSH1 0x40 DUP1 MLOAD PUSH32 0xFFFFFFFFFFFFFFFFFFFFFFFFFFFFFFFFFFFFFFFFFFFFFFFFFFFFFFFFFFFFFFE0 DUP2 DUP5 SUB ADD DUP2 MSTORE SWAP2 SWAP1 MSTORE PUSH1 0x20 DUP1 DUP3 ADD DUP1 MLOAD PUSH28 0xFFFFFFFFFFFFFFFFFFFFFFFFFFFFFFFFFFFFFFFFFFFFFFFFFFFFFFFF AND PUSH32 0xFFFFFFFF00000000000000000000000000000000000000000000000000000000 SWAP1 SWAP5 AND SWAP4 SWAP1 SWAP4 OR DUP4 MSTORE DUP2 MLOAD SWAP2 SWAP4 POP SWAP1 DUP3 SWAP1 DUP2 DUP9 GAS STATICCALL DUP1 DUP1 ISZERO PUSH2 0x3525 JUMPI PUSH1 0x1 DUP2 EQ PUSH2 0x3596 JUMPI PUSH2 0x2920 JUMP JUMPDEST PUSH32 0x8C379A000000000000000000000000000000000000000000000000000000000 PUSH1 0x0 MSTORE PUSH29 0x2000000000000000000000000000000000000000000000000000000000 PUSH1 0x20 MSTORE PUSH29 0xC57414C4C45545F4552524F5200000000000000000000000000000000 PUSH1 0x40 MSTORE PUSH1 0x0 PUSH1 0x60 MSTORE PUSH1 0x64 PUSH1 0x0 REVERT JUMPDEST POP POP MLOAD SWAP6 SWAP5 POP POP POP POP POP JUMP JUMPDEST PUSH1 0x0 PUSH1 0x14 DUP3 MLOAD LT ISZERO ISZERO ISZERO PUSH2 0x35E2 JUMPI PUSH1 0x40 MLOAD PUSH32 0x8C379A000000000000000000000000000000000000000000000000000000000 DUP2 MSTORE PUSH1 0x4 ADD PUSH2 0x881 SWAP1 PUSH2 0x5B83 JUMP JUMPDEST PUSH2 0x35F0 DUP3 PUSH1 0x14 DUP5 MLOAD SUB PUSH2 0x4103 JUMP JUMPDEST DUP3 MLOAD PUSH32 0xFFFFFFFFFFFFFFFFFFFFFFFFFFFFFFFFFFFFFFFFFFFFFFFFFFFFFFFFFFFFFFEC ADD SWAP1 SWAP3 MSTORE POP SWAP1 JUMP JUMPDEST PUSH1 0x40 MLOAD PUSH1 0x0 SWAP1 PUSH1 0x60 SWAP1 PUSH32 0x9363470200000000000000000000000000000000000000000000000000000000 SWAP1 PUSH2 0x3658 SWAP1 DUP8 SWAP1 DUP8 SWAP1 DUP8 SWAP1 PUSH1 0x24 ADD PUSH2 0x5917 JUMP JUMPDEST PUSH1 0x40 DUP1 MLOAD PUSH32 0xFFFFFFFFFFFFFFFFFFFFFFFFFFFFFFFFFFFFFFFFFFFFFFFFFFFFFFFFFFFFFFE0 DUP2 DUP5 SUB ADD DUP2 MSTORE SWAP2 SWAP1 MSTORE PUSH1 0x20 DUP1 DUP3 ADD DUP1 MLOAD PUSH28 0xFFFFFFFFFFFFFFFFFFFFFFFFFFFFFFFFFFFFFFFFFFFFFFFFFFFFFFFF AND PUSH32 0xFFFFFFFF00000000000000000000000000000000000000000000000000000000 SWAP1 SWAP5 AND SWAP4 SWAP1 SWAP4 OR DUP4 MSTORE DUP2 MLOAD SWAP2 SWAP4 POP SWAP1 DUP3 SWAP1 DUP2 DUP11 GAS STATICCALL DUP1 DUP1 ISZERO PUSH2 0x36F5 JUMPI PUSH1 0x1 DUP2 EQ PUSH2 0x3766 JUMPI PUSH2 0x376B JUMP JUMPDEST PUSH32 0x8C379A000000000000000000000000000000000000000000000000000000000 PUSH1 0x0 MSTORE PUSH29 0x2000000000000000000000000000000000000000000000000000000000 PUSH1 0x20 MSTORE PUSH29 0xF56414C494441544F525F4552524F5200000000000000000000000000 PUSH1 0x40 MSTORE PUSH1 0x0 PUSH1 0x60 MSTORE PUSH1 0x64 PUSH1 0x0 REVERT JUMPDEST DUP3 MLOAD SWAP5 POP JUMPDEST POP POP POP POP SWAP5 SWAP4 POP POP POP POP JUMP JUMPDEST PUSH1 0x0 DUP1 DUP4 GT PUSH2 0x37B2 JUMPI PUSH1 0x40 MLOAD PUSH32 0x8C379A000000000000000000000000000000000000000000000000000000000 DUP2 MSTORE PUSH1 0x4 ADD PUSH2 0x881 SWAP1 PUSH2 0x5A43 JUMP JUMPDEST PUSH2 0x7F4 PUSH2 0x2887 DUP6 DUP5 PUSH2 0x3BA6 JUMP JUMPDEST PUSH1 0x40 DUP1 MLOAD PUSH32 0x5A65726F45785472616E73616374696F6E280000000000000000000000000000 PUSH1 0x20 DUP1 DUP4 ADD SWAP2 SWAP1 SWAP2 MSTORE PUSH32 0x75696E743235362073616C742C00000000000000000000000000000000000000 PUSH1 0x32 DUP4 ADD MSTORE PUSH32 0x61646472657373207369676E6572416464726573732C00000000000000000000 PUSH1 0x3F DUP4 ADD MSTORE PUSH32 0x6279746573206461746100000000000000000000000000000000000000000000 PUSH1 0x55 DUP4 ADD MSTORE PUSH32 0x2900000000000000000000000000000000000000000000000000000000000000 PUSH1 0x5F DUP4 ADD MSTORE DUP3 MLOAD DUP1 DUP4 SUB DUP5 ADD DUP2 MSTORE PUSH1 0x60 SWAP1 SWAP3 ADD SWAP3 DUP4 SWAP1 MSTORE DUP2 MLOAD PUSH1 0x0 SWAP4 DUP5 SWAP4 DUP5 SWAP4 SWAP1 SWAP3 DUP3 SWAP2 DUP5 ADD SWAP1 DUP1 DUP4 DUP4 JUMPDEST PUSH1 0x20 DUP4 LT PUSH2 0x38E8 JUMPI DUP1 MLOAD DUP3 MSTORE PUSH32 0xFFFFFFFFFFFFFFFFFFFFFFFFFFFFFFFFFFFFFFFFFFFFFFFFFFFFFFFFFFFFFFE0 SWAP1 SWAP3 ADD SWAP2 PUSH1 0x20 SWAP2 DUP3 ADD SWAP2 ADD PUSH2 0x38AB JUMP JUMPDEST MLOAD DUP2 MLOAD PUSH1 0x20 SWAP4 DUP5 SUB PUSH2 0x100 EXP PUSH32 0xFFFFFFFFFFFFFFFFFFFFFFFFFFFFFFFFFFFFFFFFFFFFFFFFFFFFFFFFFFFFFFFF ADD DUP1 NOT SWAP1 SWAP3 AND SWAP2 AND OR SWAP1 MSTORE PUSH1 0x40 MLOAD SWAP2 SWAP1 SWAP4 ADD DUP2 SWAP1 SUB DUP2 KECCAK256 DUP10 MLOAD SWAP1 SWAP8 POP DUP10 SWAP6 POP SWAP1 SWAP4 POP DUP4 SWAP3 DUP6 ADD SWAP2 POP DUP1 DUP4 DUP4 JUMPDEST PUSH1 0x20 DUP4 LT PUSH2 0x397E JUMPI DUP1 MLOAD DUP3 MSTORE PUSH32 0xFFFFFFFFFFFFFFFFFFFFFFFFFFFFFFFFFFFFFFFFFFFFFFFFFFFFFFFFFFFFFFE0 SWAP1 SWAP3 ADD SWAP2 PUSH1 0x20 SWAP2 DUP3 ADD SWAP2 ADD PUSH2 0x3941 JUMP JUMPDEST MLOAD DUP2 MLOAD PUSH1 0x20 SWAP4 DUP5 SUB PUSH2 0x100 EXP PUSH32 0xFFFFFFFFFFFFFFFFFFFFFFFFFFFFFFFFFFFFFFFFFFFFFFFFFFFFFFFFFFFFFFFF ADD DUP1 NOT SWAP1 SWAP3 AND SWAP2 AND OR SWAP1 MSTORE PUSH1 0x40 DUP1 MLOAD SWAP3 SWAP1 SWAP5 ADD DUP3 SWAP1 SUB DUP3 KECCAK256 SWAP8 DUP3 MSTORE DUP2 ADD SWAP11 SWAP1 SWAP11 MSTORE POP PUSH20 0xFFFFFFFFFFFFFFFFFFFFFFFFFFFFFFFFFFFFFFFF SWAP8 SWAP1 SWAP8 AND SWAP7 DUP9 ADD SWAP7 SWAP1 SWAP7 MSTORE POP POP PUSH1 0x60 DUP6 ADD MSTORE POP POP PUSH1 0x80 SWAP1 SWAP2 KECCAK256 SWAP2 SWAP1 POP JUMP JUMPDEST PUSH1 0x2 DUP1 SLOAD PUSH1 0x40 MLOAD PUSH32 0x1901000000000000000000000000000000000000000000000000000000000000 DUP2 MSTORE SWAP2 DUP3 ADD MSTORE PUSH1 0x22 DUP2 ADD SWAP2 SWAP1 SWAP2 MSTORE PUSH1 0x42 SWAP1 KECCAK256 SWAP1 JUMP JUMPDEST PUSH1 0x0 PUSH2 0x119C PUSH2 0x1CED DUP4 PUSH2 0x4164 JUMP JUMPDEST PUSH1 0x0 DUP1 DUP4 GT PUSH2 0x3A86 JUMPI PUSH1 0x40 MLOAD PUSH32 0x8C379A000000000000000000000000000000000000000000000000000000000 DUP2 MSTORE PUSH1 0x4 ADD PUSH2 0x881 SWAP1 PUSH2 0x5A43 JUMP JUMPDEST PUSH2 0x3A91 DUP5 DUP5 DUP5 PUSH2 0x26FB JUMP JUMPDEST ISZERO PUSH2 0x37B2 JUMPI PUSH1 0x40 MLOAD PUSH32 0x8C379A000000000000000000000000000000000000000000000000000000000 DUP2 MSTORE PUSH1 0x4 ADD PUSH2 0x881 SWAP1 PUSH2 0x5AA3 JUMP JUMPDEST PUSH1 0x0 DUP1 DUP4 GT PUSH2 0x3B03 JUMPI PUSH1 0x40 MLOAD PUSH32 0x8C379A000000000000000000000000000000000000000000000000000000000 DUP2 MSTORE PUSH1 0x4 ADD PUSH2 0x881 SWAP1 PUSH2 0x5A43 JUMP JUMPDEST PUSH2 0x3B0E DUP5 DUP5 DUP5 PUSH2 0x3277 JUMP JUMPDEST ISZERO PUSH2 0x2867 JUMPI PUSH1 0x40 MLOAD PUSH32 0x8C379A000000000000000000000000000000000000000000000000000000000 DUP2 MSTORE PUSH1 0x4 ADD PUSH2 0x881 SWAP1 PUSH2 0x5AA3 JUMP JUMPDEST PUSH2 0x3B4D PUSH2 0x45BD JUMP JUMPDEST PUSH1 0x20 DUP2 ADD DUP3 SWAP1 MSTORE PUSH1 0xA0 DUP4 ADD MLOAD PUSH1 0x80 DUP5 ADD MLOAD PUSH2 0x3B69 SWAP2 DUP5 SWAP2 PUSH2 0x3A4B JUMP JUMPDEST DUP1 DUP3 MSTORE PUSH1 0x80 DUP5 ADD MLOAD PUSH1 0xC0 DUP6 ADD MLOAD PUSH2 0x3B81 SWAP3 SWAP2 SWAP1 PUSH2 0x3A4B JUMP JUMPDEST PUSH1 0x40 DUP3 ADD MSTORE PUSH1 0xA0 DUP4 ADD MLOAD PUSH1 0xE0 DUP5 ADD MLOAD PUSH2 0x3B9B SWAP2 DUP5 SWAP2 PUSH2 0x3A4B JUMP JUMPDEST PUSH1 0x60 DUP3 ADD MSTORE SWAP3 SWAP2 POP POP JUMP JUMPDEST PUSH1 0x0 DUP1 DUP4 ISZERO ISZERO PUSH2 0x3BB9 JUMPI PUSH1 0x0 SWAP2 POP PUSH2 0x3C05 JUMP JUMPDEST POP DUP3 DUP3 MUL DUP3 DUP5 DUP3 DUP2 ISZERO ISZERO PUSH2 0x3BC9 JUMPI INVALID JUMPDEST DIV EQ PUSH2 0x3C01 JUMPI PUSH1 0x40 MLOAD PUSH32 0x8C379A000000000000000000000000000000000000000000000000000000000 DUP2 MSTORE PUSH1 0x4 ADD PUSH2 0x881 SWAP1 PUSH2 0x5A73 JUMP JUMPDEST DUP1 SWAP2 POP JUMPDEST POP SWAP3 SWAP2 POP POP JUMP JUMPDEST PUSH1 0x0 DUP3 DUP3 ADD DUP4 DUP2 LT ISZERO PUSH2 0x3C01 JUMPI PUSH1 0x40 MLOAD PUSH32 0x8C379A000000000000000000000000000000000000000000000000000000000 DUP2 MSTORE PUSH1 0x4 ADD PUSH2 0x881 SWAP1 PUSH2 0x5A73 JUMP JUMPDEST PUSH1 0x0 DUP1 DUP3 DUP5 DUP2 ISZERO ISZERO PUSH2 0x3C59 JUMPI INVALID JUMPDEST DIV SWAP5 SWAP4 POP POP POP POP JUMP JUMPDEST PUSH1 0x0 DUP2 DUP4 LT PUSH2 0x1199 JUMPI DUP2 PUSH2 0x7F7 JUMP JUMPDEST PUSH1 0x1 DUP1 SLOAD PUSH1 0x40 DUP1 MLOAD PUSH1 0x20 PUSH1 0x1F PUSH1 0x2 PUSH32 0xFFFFFFFFFFFFFFFFFFFFFFFFFFFFFFFFFFFFFFFFFFFFFFFFFFFFFFFFFFFFFFFF PUSH2 0x100 DUP8 DUP10 AND ISZERO MUL ADD SWAP1 SWAP6 AND SWAP5 SWAP1 SWAP5 DIV SWAP4 DUP5 ADD DUP2 SWAP1 DIV DUP2 MUL DUP3 ADD DUP2 ADD SWAP1 SWAP3 MSTORE DUP3 DUP2 MSTORE PUSH1 0x60 SWAP4 SWAP1 SWAP3 SWAP1 SWAP2 DUP4 ADD DUP3 DUP3 DUP1 ISZERO PUSH2 0x3D1A JUMPI DUP1 PUSH1 0x1F LT PUSH2 0x3CEF JUMPI PUSH2 0x100 DUP1 DUP4 SLOAD DIV MUL DUP4 MSTORE SWAP2 PUSH1 0x20 ADD SWAP2 PUSH2 0x3D1A JUMP JUMPDEST DUP3 ADD SWAP2 SWAP1 PUSH1 0x0 MSTORE PUSH1 0x20 PUSH1 0x0 KECCAK256 SWAP1 JUMPDEST DUP2 SLOAD DUP2 MSTORE SWAP1 PUSH1 0x1 ADD SWAP1 PUSH1 0x20 ADD DUP1 DUP4 GT PUSH2 0x3CFD JUMPI DUP3 SWAP1 SUB PUSH1 0x1F AND DUP3 ADD SWAP2 JUMPDEST POP POP POP POP POP SWAP1 POP PUSH2 0x3D3A DUP5 PUSH2 0x140 ADD MLOAD DUP6 PUSH1 0x0 ADD MLOAD DUP6 DUP6 PUSH1 0x0 ADD MLOAD PUSH2 0x3D7B JUMP JUMPDEST PUSH2 0x3D53 DUP5 PUSH2 0x160 ADD MLOAD DUP5 DUP7 PUSH1 0x0 ADD MLOAD DUP6 PUSH1 0x20 ADD MLOAD PUSH2 0x3D7B JUMP JUMPDEST PUSH2 0x3D6B DUP2 DUP6 PUSH1 0x0 ADD MLOAD DUP7 PUSH1 0x40 ADD MLOAD DUP6 PUSH1 0x40 ADD MLOAD PUSH2 0x3D7B JUMP JUMPDEST PUSH2 0x2B50 DUP2 DUP5 DUP7 PUSH1 0x40 ADD MLOAD DUP6 PUSH1 0x60 ADD MLOAD JUMPDEST PUSH1 0x0 DUP1 PUSH1 0x0 DUP4 GT DUP1 ISZERO PUSH2 0x3DBA JUMPI POP DUP4 PUSH20 0xFFFFFFFFFFFFFFFFFFFFFFFFFFFFFFFFFFFFFFFF AND DUP6 PUSH20 0xFFFFFFFFFFFFFFFFFFFFFFFFFFFFFFFFFFFFFFFF AND EQ ISZERO JUMPDEST ISZERO PUSH2 0x3F3D JUMPI DUP6 MLOAD PUSH1 0x3 LT PUSH2 0x3DFA JUMPI PUSH1 0x40 MLOAD PUSH32 0x8C379A000000000000000000000000000000000000000000000000000000000 DUP2 MSTORE PUSH1 0x4 ADD PUSH2 0x881 SWAP1 PUSH2 0x5B33 JUMP JUMPDEST POP POP PUSH1 0x20 DUP5 DUP2 ADD MLOAD PUSH32 0xFFFFFFFF00000000000000000000000000000000000000000000000000000000 AND PUSH1 0x0 DUP2 DUP2 MSTORE PUSH1 0xB SWAP1 SWAP3 MSTORE PUSH1 0x40 SWAP1 SWAP2 KECCAK256 SLOAD PUSH20 0xFFFFFFFFFFFFFFFFFFFFFFFFFFFFFFFFFFFFFFFF AND DUP1 ISZERO ISZERO PUSH2 0x3E83 JUMPI PUSH1 0x40 MLOAD PUSH32 0x8C379A000000000000000000000000000000000000000000000000000000000 DUP2 MSTORE PUSH1 0x4 ADD PUSH2 0x881 SWAP1 PUSH2 0x5AE3 JUMP JUMPDEST PUSH1 0x40 MLOAD PUSH7 0xFFFFFFFFFFFE0 PUSH1 0x3F DUP9 MLOAD ADD AND DUP1 PUSH1 0x84 ADD DUP3 ADD PUSH32 0xA85E59E400000000000000000000000000000000000000000000000000000000 DUP4 MSTORE PUSH1 0x80 PUSH1 0x4 DUP5 ADD MSTORE PUSH20 0xFFFFFFFFFFFFFFFFFFFFFFFFFFFFFFFFFFFFFFFF DUP9 AND PUSH1 0x24 DUP5 ADD MSTORE PUSH20 0xFFFFFFFFFFFFFFFFFFFFFFFFFFFFFFFFFFFFFFFF DUP8 AND PUSH1 0x44 DUP5 ADD MSTORE DUP6 PUSH1 0x64 DUP5 ADD MSTORE PUSH1 0x84 DUP4 ADD JUMPDEST DUP2 DUP2 LT ISZERO PUSH2 0x3F1F JUMPI DUP10 MLOAD DUP2 MSTORE PUSH1 0x20 SWAP10 DUP11 ADD SWAP10 ADD PUSH2 0x3F07 JUMP JUMPDEST PUSH2 0x200 DUP5 DUP6 DUP5 SUB DUP7 PUSH1 0x0 DUP10 GAS CALL DUP1 ISZERO ISZERO PUSH2 0x3F37 JUMPI RETURNDATASIZE DUP6 REVERT JUMPDEST POP POP POP POP POP JUMPDEST POP POP POP POP POP POP JUMP JUMPDEST DUP1 MLOAD PUSH1 0x0 SWAP1 PUSH1 0xFF AND PUSH1 0x3 EQ PUSH2 0x3F86 JUMPI PUSH1 0x40 MLOAD PUSH32 0x8C379A000000000000000000000000000000000000000000000000000000000 DUP2 MSTORE PUSH1 0x4 ADD PUSH2 0x881 SWAP1 PUSH2 0x5B93 JUMP JUMPDEST PUSH1 0x60 DUP4 ADD MLOAD PUSH20 0xFFFFFFFFFFFFFFFFFFFFFFFFFFFFFFFFFFFFFFFF AND ISZERO PUSH2 0x3FF9 JUMPI PUSH1 0x60 DUP4 ADD MLOAD PUSH20 0xFFFFFFFFFFFFFFFFFFFFFFFFFFFFFFFFFFFFFFFF AND CALLER EQ PUSH2 0x3FF9 JUMPI PUSH1 0x40 MLOAD PUSH32 0x8C379A000000000000000000000000000000000000000000000000000000000 DUP2 MSTORE PUSH1 0x4 ADD PUSH2 0x881 SWAP1 PUSH2 0x5BA3 JUMP JUMPDEST PUSH2 0x4001 PUSH2 0x298D JUMP JUMPDEST DUP4 MLOAD SWAP1 SWAP2 POP PUSH20 0xFFFFFFFFFFFFFFFFFFFFFFFFFFFFFFFFFFFFFFFF DUP1 DUP4 AND SWAP2 AND EQ PUSH2 0x4057 JUMPI PUSH1 0x40 MLOAD PUSH32 0x8C379A000000000000000000000000000000000000000000000000000000000 DUP2 MSTORE PUSH1 0x4 ADD PUSH2 0x881 SWAP1 PUSH2 0x5A63 JUMP JUMPDEST POP POP POP JUMP JUMPDEST PUSH1 0x0 DUP2 DUP2 MSTORE PUSH1 0x5 PUSH1 0x20 MSTORE PUSH1 0x40 SWAP1 DUP2 SWAP1 KECCAK256 DUP1 SLOAD PUSH32 0xFFFFFFFFFFFFFFFFFFFFFFFFFFFFFFFFFFFFFFFFFFFFFFFFFFFFFFFFFFFFFF00 AND PUSH1 0x1 OR SWAP1 SSTORE DUP3 DUP2 ADD MLOAD DUP4 MLOAD PUSH2 0x140 DUP6 ADD MLOAD PUSH2 0x160 DUP7 ADD MLOAD SWAP4 MLOAD DUP6 SWAP5 PUSH20 0xFFFFFFFFFFFFFFFFFFFFFFFFFFFFFFFFFFFFFFFF SWAP5 DUP6 AND SWAP5 SWAP4 SWAP1 SWAP4 AND SWAP3 PUSH32 0xDC47B3613D9FE400085F6DBDC99453462279057E6207385042827ED6B1A62CF7 SWAP3 PUSH2 0x40F7 SWAP3 CALLER SWAP3 SWAP1 PUSH2 0x58AD JUMP JUMPDEST PUSH1 0x40 MLOAD DUP1 SWAP2 SUB SWAP1 LOG4 POP POP JUMP JUMPDEST PUSH1 0x0 DUP2 PUSH1 0x14 ADD DUP4 MLOAD LT ISZERO ISZERO ISZERO PUSH2 0x4145 JUMPI PUSH1 0x40 MLOAD PUSH32 0x8C379A000000000000000000000000000000000000000000000000000000000 DUP2 MSTORE PUSH1 0x4 ADD PUSH2 0x881 SWAP1 PUSH2 0x5B83 JUMP JUMPDEST POP ADD PUSH1 0x14 ADD MLOAD PUSH20 0xFFFFFFFFFFFFFFFFFFFFFFFFFFFFFFFFFFFFFFFF AND SWAP1 JUMP JUMPDEST PUSH1 0x40 DUP1 MLOAD PUSH32 0x4F72646572280000000000000000000000000000000000000000000000000000 PUSH1 0x20 DUP1 DUP4 ADD SWAP2 SWAP1 SWAP2 MSTORE PUSH32 0x61646472657373206D616B6572416464726573732C0000000000000000000000 PUSH1 0x26 DUP4 ADD MSTORE PUSH32 0x616464726573732074616B6572416464726573732C0000000000000000000000 PUSH1 0x3B DUP4 ADD MSTORE PUSH32 0x6164647265737320666565526563697069656E74416464726573732C00000000 PUSH1 0x50 DUP4 ADD MSTORE PUSH32 0x616464726573732073656E646572416464726573732C00000000000000000000 PUSH1 0x6C DUP4 ADD MSTORE PUSH32 0x75696E74323536206D616B65724173736574416D6F756E742C00000000000000 PUSH1 0x82 DUP4 ADD MSTORE PUSH32 0x75696E743235362074616B65724173736574416D6F756E742C00000000000000 PUSH1 0x9B DUP4 ADD MSTORE PUSH32 0x75696E74323536206D616B65724665652C000000000000000000000000000000 PUSH1 0xB4 DUP4 ADD MSTORE PUSH32 0x75696E743235362074616B65724665652C000000000000000000000000000000 PUSH1 0xC5 DUP4 ADD MSTORE PUSH32 0x75696E743235362065787069726174696F6E54696D655365636F6E64732C0000 PUSH1 0xD6 DUP4 ADD MSTORE PUSH32 0x75696E743235362073616C742C00000000000000000000000000000000000000 PUSH1 0xF4 DUP4 ADD MSTORE PUSH32 0x6279746573206D616B65724173736574446174612C0000000000000000000000 PUSH2 0x101 DUP4 ADD MSTORE PUSH32 0x62797465732074616B6572417373657444617461000000000000000000000000 PUSH2 0x116 DUP4 ADD MSTORE PUSH32 0x2900000000000000000000000000000000000000000000000000000000000000 PUSH2 0x12A DUP4 ADD MSTORE DUP3 MLOAD PUSH2 0x10B DUP2 DUP5 SUB ADD DUP2 MSTORE PUSH2 0x12B SWAP1 SWAP3 ADD SWAP3 DUP4 SWAP1 MSTORE DUP2 MLOAD PUSH1 0x0 SWAP4 DUP5 SWAP4 DUP5 SWAP4 DUP5 SWAP4 SWAP2 SWAP3 SWAP2 DUP3 SWAP2 DUP5 ADD SWAP1 DUP1 DUP4 DUP4 JUMPDEST PUSH1 0x20 DUP4 LT PUSH2 0x43EC JUMPI DUP1 MLOAD DUP3 MSTORE PUSH32 0xFFFFFFFFFFFFFFFFFFFFFFFFFFFFFFFFFFFFFFFFFFFFFFFFFFFFFFFFFFFFFFE0 SWAP1 SWAP3 ADD SWAP2 PUSH1 0x20 SWAP2 DUP3 ADD SWAP2 ADD PUSH2 0x43AF JUMP JUMPDEST MLOAD DUP2 MLOAD PUSH1 0x20 SWAP4 DUP5 SUB PUSH2 0x100 EXP PUSH32 0xFFFFFFFFFFFFFFFFFFFFFFFFFFFFFFFFFFFFFFFFFFFFFFFFFFFFFFFFFFFFFFFF ADD DUP1 NOT SWAP1 SWAP3 AND SWAP2 AND OR SWAP1 MSTORE PUSH1 0x40 MLOAD SWAP2 SWAP1 SWAP4 ADD DUP2 SWAP1 SUB DUP2 KECCAK256 PUSH2 0x140 DUP12 ADD MLOAD DUP1 MLOAD SWAP2 SWAP10 POP SWAP6 POP SWAP1 SWAP4 POP DUP4 SWAP3 DUP6 ADD SWAP2 POP DUP1 DUP4 DUP4 JUMPDEST PUSH1 0x20 DUP4 LT PUSH2 0x4487 JUMPI DUP1 MLOAD DUP3 MSTORE PUSH32 0xFFFFFFFFFFFFFFFFFFFFFFFFFFFFFFFFFFFFFFFFFFFFFFFFFFFFFFFFFFFFFFE0 SWAP1 SWAP3 ADD SWAP2 PUSH1 0x20 SWAP2 DUP3 ADD SWAP2 ADD PUSH2 0x444A JUMP JUMPDEST MLOAD DUP2 MLOAD PUSH1 0x20 SWAP4 DUP5 SUB PUSH2 0x100 EXP PUSH32 0xFFFFFFFFFFFFFFFFFFFFFFFFFFFFFFFFFFFFFFFFFFFFFFFFFFFFFFFFFFFFFFFF ADD DUP1 NOT SWAP1 SWAP3 AND SWAP2 AND OR SWAP1 MSTORE PUSH1 0x40 MLOAD SWAP2 SWAP1 SWAP4 ADD DUP2 SWAP1 SUB DUP2 KECCAK256 PUSH2 0x160 DUP12 ADD MLOAD DUP1 MLOAD SWAP2 SWAP9 POP SWAP6 POP SWAP1 SWAP4 POP DUP4 SWAP3 DUP6 ADD SWAP2 POP DUP1 DUP4 DUP4 JUMPDEST PUSH1 0x20 DUP4 LT PUSH2 0x4522 JUMPI DUP1 MLOAD DUP3 MSTORE PUSH32 0xFFFFFFFFFFFFFFFFFFFFFFFFFFFFFFFFFFFFFFFFFFFFFFFFFFFFFFFFFFFFFFE0 SWAP1 SWAP3 ADD SWAP2 PUSH1 0x20 SWAP2 DUP3 ADD SWAP2 ADD PUSH2 0x44E5 JUMP JUMPDEST MLOAD DUP2 MLOAD PUSH1 0x20 SWAP4 SWAP1 SWAP4 SUB PUSH2 0x100 EXP PUSH32 0xFFFFFFFFFFFFFFFFFFFFFFFFFFFFFFFFFFFFFFFFFFFFFFFFFFFFFFFFFFFFFFFF ADD DUP1 NOT SWAP1 SWAP2 AND SWAP3 AND SWAP2 SWAP1 SWAP2 OR SWAP1 MSTORE PUSH1 0x40 MLOAD SWAP3 ADD DUP3 SWAP1 SUB SWAP1 SWAP2 KECCAK256 PUSH32 0xFFFFFFFFFFFFFFFFFFFFFFFFFFFFFFFFFFFFFFFFFFFFFFFFFFFFFFFFFFFFFFE0 DUP10 ADD DUP1 MLOAD PUSH2 0x140 DUP12 ADD DUP1 MLOAD PUSH2 0x160 SWAP1 SWAP13 ADD DUP1 MLOAD SWAP11 DUP5 MSTORE SWAP9 DUP2 MSTORE SWAP3 DUP9 MSTORE PUSH2 0x1A0 DUP3 KECCAK256 SWAP2 MSTORE SWAP9 SWAP1 MSTORE POP POP POP SWAP2 SWAP1 MSTORE POP SWAP1 SWAP2 SWAP1 POP JUMP JUMPDEST PUSH1 0x80 PUSH1 0x40 MLOAD SWAP1 DUP2 ADD PUSH1 0x40 MSTORE DUP1 PUSH1 0x0 DUP2 MSTORE PUSH1 0x20 ADD PUSH1 0x0 DUP2 MSTORE PUSH1 0x20 ADD PUSH1 0x0 DUP2 MSTORE PUSH1 0x20 ADD PUSH1 0x0 DUP2 MSTORE POP SWAP1 JUMP JUMPDEST PUSH2 0x120 PUSH1 0x40 MLOAD SWAP1 DUP2 ADD PUSH1 0x40 MSTORE DUP1 PUSH2 0x45FB PUSH2 0x45BD JUMP JUMPDEST DUP2 MSTORE PUSH1 0x20 ADD PUSH2 0x4608 PUSH2 0x45BD JUMP JUMPDEST DUP2 MSTORE PUSH1 0x20 ADD PUSH1 0x0 DUP2 MSTORE POP SWAP1 JUMP JUMPDEST PUSH1 0x40 DUP1 MLOAD PUSH1 0x60 DUP2 ADD DUP3 MSTORE PUSH1 0x0 DUP1 DUP3 MSTORE PUSH1 0x20 DUP3 ADD DUP2 SWAP1 MSTORE SWAP2 DUP2 ADD SWAP2 SWAP1 SWAP2 MSTORE SWAP1 JUMP JUMPDEST PUSH1 0x0 PUSH2 0x7F7 DUP3 CALLDATALOAD PUSH2 0x5CA6 JUMP JUMPDEST PUSH1 0x0 PUSH1 0x1F DUP3 ADD DUP4 SGT PUSH2 0x4652 JUMPI PUSH1 0x0 DUP1 REVERT JUMPDEST DUP2 CALLDATALOAD PUSH2 0x4665 PUSH2 0x4660 DUP3 PUSH2 0x5C35 JUMP JUMPDEST PUSH2 0x5C0E JUMP JUMPDEST DUP2 DUP2 MSTORE PUSH1 0x20 SWAP4 DUP5 ADD SWAP4 SWAP1 SWAP3 POP DUP3 ADD DUP4 PUSH1 0x0 JUMPDEST DUP4 DUP2 LT ISZERO PUSH2 0x46A3 JUMPI DUP2 CALLDATALOAD DUP7 ADD PUSH2 0x468D DUP9 DUP3 PUSH2 0x47F3 JUMP JUMPDEST DUP5 MSTORE POP PUSH1 0x20 SWAP3 DUP4 ADD SWAP3 SWAP2 SWAP1 SWAP2 ADD SWAP1 PUSH1 0x1 ADD PUSH2 0x4677 JUMP JUMPDEST POP POP POP POP SWAP3 SWAP2 POP POP JUMP JUMPDEST PUSH1 0x0 PUSH1 0x1F DUP3 ADD DUP4 SGT PUSH2 0x46BE JUMPI PUSH1 0x0 DUP1 REVERT JUMPDEST DUP2 CALLDATALOAD PUSH2 0x46CC PUSH2 0x4660 DUP3 PUSH2 0x5C35 JUMP JUMPDEST DUP2 DUP2 MSTORE PUSH1 0x20 SWAP4 DUP5 ADD SWAP4 SWAP1 SWAP3 POP DUP3 ADD DUP4 PUSH1 0x0 JUMPDEST DUP4 DUP2 LT ISZERO PUSH2 0x46A3 JUMPI DUP2 CALLDATALOAD DUP7 ADD PUSH2 0x46F4 DUP9 DUP3 PUSH2 0x48B1 JUMP JUMPDEST DUP5 MSTORE POP PUSH1 0x20 SWAP3 DUP4 ADD SWAP3 SWAP2 SWAP1 SWAP2 ADD SWAP1 PUSH1 0x1 ADD PUSH2 0x46DE JUMP JUMPDEST PUSH1 0x0 PUSH1 0x1F DUP3 ADD DUP4 SGT PUSH2 0x471B JUMPI PUSH1 0x0 DUP1 REVERT JUMPDEST DUP2 CALLDATALOAD PUSH2 0x4729 PUSH2 0x4660 DUP3 PUSH2 0x5C35 JUMP JUMPDEST SWAP2 POP DUP2 DUP2 DUP4 MSTORE PUSH1 0x20 DUP5 ADD SWAP4 POP PUSH1 0x20 DUP2 ADD SWAP1 POP DUP4 DUP6 PUSH1 0x20 DUP5 MUL DUP3 ADD GT ISZERO PUSH2 0x474E JUMPI PUSH1 0x0 DUP1 REVERT JUMPDEST PUSH1 0x0 JUMPDEST DUP4 DUP2 LT ISZERO PUSH2 0x46A3 JUMPI DUP2 PUSH2 0x4764 DUP9 DUP3 PUSH2 0x4786 JUMP JUMPDEST DUP5 MSTORE POP PUSH1 0x20 SWAP3 DUP4 ADD SWAP3 SWAP2 SWAP1 SWAP2 ADD SWAP1 PUSH1 0x1 ADD PUSH2 0x4751 JUMP JUMPDEST PUSH1 0x0 PUSH2 0x7F7 DUP3 CALLDATALOAD PUSH2 0x5CBF JUMP JUMPDEST PUSH1 0x0 PUSH2 0x7F7 DUP3 CALLDATALOAD PUSH2 0x5CC4 JUMP JUMPDEST PUSH1 0x0 PUSH2 0x7F7 DUP3 CALLDATALOAD PUSH2 0x5CC7 JUMP JUMPDEST PUSH1 0x0 PUSH2 0x7F7 DUP3 MLOAD PUSH2 0x5CC7 JUMP JUMPDEST PUSH1 0x0 DUP1 PUSH1 0x1F DUP4 ADD DUP5 SGT PUSH2 0x47BC JUMPI PUSH1 0x0 DUP1 REVERT JUMPDEST POP DUP2 CALLDATALOAD PUSH8 0xFFFFFFFFFFFFFFFF DUP2 GT ISZERO PUSH2 0x47D4 JUMPI PUSH1 0x0 DUP1 REVERT JUMPDEST PUSH1 0x20 DUP4 ADD SWAP2 POP DUP4 PUSH1 0x1 DUP3 MUL DUP4 ADD GT ISZERO PUSH2 0x47EC JUMPI PUSH1 0x0 DUP1 REVERT JUMPDEST SWAP3 POP SWAP3 SWAP1 POP JUMP JUMPDEST PUSH1 0x0 PUSH1 0x1F DUP3 ADD DUP4 SGT PUSH2 0x4804 JUMPI PUSH1 0x0 DUP1 REVERT JUMPDEST DUP2 CALLDATALOAD PUSH2 0x4812 PUSH2 0x4660 DUP3 PUSH2 0x5C56 JUMP JUMPDEST SWAP2 POP DUP1 DUP3 MSTORE PUSH1 0x20 DUP4 ADD PUSH1 0x20 DUP4 ADD DUP6 DUP4 DUP4 ADD GT ISZERO PUSH2 0x482E JUMPI PUSH1 0x0 DUP1 REVERT JUMPDEST PUSH2 0x4839 DUP4 DUP3 DUP5 PUSH2 0x5CFD JUMP JUMPDEST POP POP POP SWAP3 SWAP2 POP POP JUMP JUMPDEST PUSH1 0x0 PUSH1 0x80 DUP3 DUP5 SUB SLT ISZERO PUSH2 0x4854 JUMPI PUSH1 0x0 DUP1 REVERT JUMPDEST PUSH2 0x485E PUSH1 0x80 PUSH2 0x5C0E JUMP JUMPDEST SWAP1 POP PUSH1 0x0 PUSH2 0x486C DUP5 DUP5 PUSH2 0x4786 JUMP JUMPDEST DUP3 MSTORE POP PUSH1 0x20 PUSH2 0x487D DUP5 DUP5 DUP4 ADD PUSH2 0x4786 JUMP JUMPDEST PUSH1 0x20 DUP4 ADD MSTORE POP PUSH1 0x40 PUSH2 0x4891 DUP5 DUP3 DUP6 ADD PUSH2 0x4786 JUMP JUMPDEST PUSH1 0x40 DUP4 ADD MSTORE POP PUSH1 0x60 PUSH2 0x48A5 DUP5 DUP3 DUP6 ADD PUSH2 0x4786 JUMP JUMPDEST PUSH1 0x60 DUP4 ADD MSTORE POP SWAP3 SWAP2 POP POP JUMP JUMPDEST PUSH1 0x0 PUSH2 0x180 DUP3 DUP5 SUB SLT ISZERO PUSH2 0x48C4 JUMPI PUSH1 0x0 DUP1 REVERT JUMPDEST PUSH2 0x48CF PUSH2 0x180 PUSH2 0x5C0E JUMP JUMPDEST SWAP1 POP PUSH1 0x0 PUSH2 0x48DD DUP5 DUP5 PUSH2 0x4635 JUMP JUMPDEST DUP3 MSTORE POP PUSH1 0x20 PUSH2 0x48EE DUP5 DUP5 DUP4 ADD PUSH2 0x4635 JUMP JUMPDEST PUSH1 0x20 DUP4 ADD MSTORE POP PUSH1 0x40 PUSH2 0x4902 DUP5 DUP3 DUP6 ADD PUSH2 0x4635 JUMP JUMPDEST PUSH1 0x40 DUP4 ADD MSTORE POP PUSH1 0x60 PUSH2 0x4916 DUP5 DUP3 DUP6 ADD PUSH2 0x4635 JUMP JUMPDEST PUSH1 0x60 DUP4 ADD MSTORE POP PUSH1 0x80 PUSH2 0x492A DUP5 DUP3 DUP6 ADD PUSH2 0x4786 JUMP JUMPDEST PUSH1 0x80 DUP4 ADD MSTORE POP PUSH1 0xA0 PUSH2 0x493E DUP5 DUP3 DUP6 ADD PUSH2 0x4786 JUMP JUMPDEST PUSH1 0xA0 DUP4 ADD MSTORE POP PUSH1 0xC0 PUSH2 0x4952 DUP5 DUP3 DUP6 ADD PUSH2 0x4786 JUMP JUMPDEST PUSH1 0xC0 DUP4 ADD MSTORE POP PUSH1 0xE0 PUSH2 0x4966 DUP5 DUP3 DUP6 ADD PUSH2 0x4786 JUMP JUMPDEST PUSH1 0xE0 DUP4 ADD MSTORE POP PUSH2 0x100 PUSH2 0x497B DUP5 DUP3 DUP6 ADD PUSH2 0x4786 JUMP JUMPDEST PUSH2 0x100 DUP4 ADD MSTORE POP PUSH2 0x120 PUSH2 0x4991 DUP5 DUP3 DUP6 ADD PUSH2 0x4786 JUMP JUMPDEST PUSH2 0x120 DUP4 ADD MSTORE POP PUSH2 0x140 DUP3 ADD CALLDATALOAD PUSH8 0xFFFFFFFFFFFFFFFF DUP2 GT ISZERO PUSH2 0x49B3 JUMPI PUSH1 0x0 DUP1 REVERT JUMPDEST PUSH2 0x49BF DUP5 DUP3 DUP6 ADD PUSH2 0x47F3 JUMP JUMPDEST PUSH2 0x140 DUP4 ADD MSTORE POP PUSH2 0x160 DUP3 ADD CALLDATALOAD PUSH8 0xFFFFFFFFFFFFFFFF DUP2 GT ISZERO PUSH2 0x49E1 JUMPI PUSH1 0x0 DUP1 REVERT JUMPDEST PUSH2 0x49ED DUP5 DUP3 DUP6 ADD PUSH2 0x47F3 JUMP JUMPDEST PUSH2 0x160 DUP4 ADD MSTORE POP SWAP3 SWAP2 POP POP JUMP JUMPDEST PUSH1 0x0 PUSH1 0x20 DUP3 DUP5 SUB SLT ISZERO PUSH2 0x4A0C JUMPI PUSH1 0x0 DUP1 REVERT JUMPDEST PUSH1 0x0 PUSH2 0x4A18 DUP5 DUP5 PUSH2 0x4635 JUMP JUMPDEST SWAP5 SWAP4 POP POP POP POP JUMP JUMPDEST PUSH1 0x0 DUP1 PUSH1 0x40 DUP4 DUP6 SUB SLT ISZERO PUSH2 0x4A33 JUMPI PUSH1 0x0 DUP1 REVERT JUMPDEST PUSH1 0x0 PUSH2 0x4A3F DUP6 DUP6 PUSH2 0x4635 JUMP JUMPDEST SWAP3 POP POP PUSH1 0x20 PUSH2 0x4A50 DUP6 DUP3 DUP7 ADD PUSH2 0x4635 JUMP JUMPDEST SWAP2 POP POP SWAP3 POP SWAP3 SWAP1 POP JUMP JUMPDEST PUSH1 0x0 DUP1 PUSH1 0x40 DUP4 DUP6 SUB SLT ISZERO PUSH2 0x4A6D JUMPI PUSH1 0x0 DUP1 REVERT JUMPDEST PUSH1 0x0 PUSH2 0x4A79 DUP6 DUP6 PUSH2 0x4635 JUMP JUMPDEST SWAP3 POP POP PUSH1 0x20 PUSH2 0x4A50 DUP6 DUP3 DUP7 ADD PUSH2 0x477A JUMP JUMPDEST PUSH1 0x0 PUSH1 0x20 DUP3 DUP5 SUB SLT ISZERO PUSH2 0x4A9C JUMPI PUSH1 0x0 DUP1 REVERT JUMPDEST DUP2 CALLDATALOAD PUSH8 0xFFFFFFFFFFFFFFFF DUP2 GT ISZERO PUSH2 0x4AB3 JUMPI PUSH1 0x0 DUP1 REVERT JUMPDEST PUSH2 0x4A18 DUP5 DUP3 DUP6 ADD PUSH2 0x46AD JUMP JUMPDEST PUSH1 0x0 DUP1 PUSH1 0x0 PUSH1 0x60 DUP5 DUP7 SUB SLT ISZERO PUSH2 0x4AD4 JUMPI PUSH1 0x0 DUP1 REVERT JUMPDEST DUP4 CALLDATALOAD PUSH8 0xFFFFFFFFFFFFFFFF DUP2 GT ISZERO PUSH2 0x4AEB JUMPI PUSH1 0x0 DUP1 REVERT JUMPDEST PUSH2 0x4AF7 DUP7 DUP3 DUP8 ADD PUSH2 0x46AD JUMP JUMPDEST SWAP4 POP POP PUSH1 0x20 DUP5 ADD CALLDATALOAD PUSH8 0xFFFFFFFFFFFFFFFF DUP2 GT ISZERO PUSH2 0x4B14 JUMPI PUSH1 0x0 DUP1 REVERT JUMPDEST PUSH2 0x4B20 DUP7 DUP3 DUP8 ADD PUSH2 0x470A JUMP JUMPDEST SWAP3 POP POP PUSH1 0x40 DUP5 ADD CALLDATALOAD PUSH8 0xFFFFFFFFFFFFFFFF DUP2 GT ISZERO PUSH2 0x4B3D JUMPI PUSH1 0x0 DUP1 REVERT JUMPDEST PUSH2 0x4B49 DUP7 DUP3 DUP8 ADD PUSH2 0x4641 JUMP JUMPDEST SWAP2 POP POP SWAP3 POP SWAP3 POP SWAP3 JUMP JUMPDEST PUSH1 0x0 DUP1 PUSH1 0x0 PUSH1 0x60 DUP5 DUP7 SUB SLT ISZERO PUSH2 0x4B68 JUMPI PUSH1 0x0 DUP1 REVERT JUMPDEST DUP4 CALLDATALOAD PUSH8 0xFFFFFFFFFFFFFFFF DUP2 GT ISZERO PUSH2 0x4B7F JUMPI PUSH1 0x0 DUP1 REVERT JUMPDEST PUSH2 0x4B8B DUP7 DUP3 DUP8 ADD PUSH2 0x46AD JUMP JUMPDEST SWAP4 POP POP PUSH1 0x20 PUSH2 0x4B20 DUP7 DUP3 DUP8 ADD PUSH2 0x4786 JUMP JUMPDEST PUSH1 0x0 PUSH1 0x20 DUP3 DUP5 SUB SLT ISZERO PUSH2 0x4BAE JUMPI PUSH1 0x0 DUP1 REVERT JUMPDEST PUSH1 0x0 PUSH2 0x4A18 DUP5 DUP5 PUSH2 0x4786 JUMP JUMPDEST PUSH1 0x0 DUP1 PUSH1 0x40 DUP4 DUP6 SUB SLT ISZERO PUSH2 0x4BCD JUMPI PUSH1 0x0 DUP1 REVERT JUMPDEST PUSH1 0x0 PUSH2 0x4A3F DUP6 DUP6 PUSH2 0x4786 JUMP JUMPDEST PUSH1 0x0 DUP1 PUSH1 0x0 DUP1 PUSH1 0x60 DUP6 DUP8 SUB SLT ISZERO PUSH2 0x4BEF JUMPI PUSH1 0x0 DUP1 REVERT JUMPDEST PUSH1 0x0 PUSH2 0x4BFB DUP8 DUP8 PUSH2 0x4786 JUMP JUMPDEST SWAP5 POP POP PUSH1 0x20 PUSH2 0x4C0C DUP8 DUP3 DUP9 ADD PUSH2 0x4635 JUMP JUMPDEST SWAP4 POP POP PUSH1 0x40 DUP6 ADD CALLDATALOAD PUSH8 0xFFFFFFFFFFFFFFFF DUP2 GT ISZERO PUSH2 0x4C29 JUMPI PUSH1 0x0 DUP1 REVERT JUMPDEST PUSH2 0x4C35 DUP8 DUP3 DUP9 ADD PUSH2 0x47AA JUMP JUMPDEST SWAP6 SWAP9 SWAP5 SWAP8 POP SWAP6 POP POP POP POP JUMP JUMPDEST PUSH1 0x0 DUP1 PUSH1 0x0 PUSH1 0x60 DUP5 DUP7 SUB SLT ISZERO PUSH2 0x4C56 JUMPI PUSH1 0x0 DUP1 REVERT JUMPDEST PUSH1 0x0 PUSH2 0x4C62 DUP7 DUP7 PUSH2 0x4786 JUMP JUMPDEST SWAP4 POP POP PUSH1 0x20 PUSH2 0x4C73 DUP7 DUP3 DUP8 ADD PUSH2 0x4635 JUMP JUMPDEST SWAP3 POP POP PUSH1 0x40 DUP5 ADD CALLDATALOAD PUSH8 0xFFFFFFFFFFFFFFFF DUP2 GT ISZERO PUSH2 0x4C90 JUMPI PUSH1 0x0 DUP1 REVERT JUMPDEST PUSH2 0x4B49 DUP7 DUP3 DUP8 ADD PUSH2 0x47F3 JUMP JUMPDEST PUSH1 0x0 PUSH1 0x20 DUP3 DUP5 SUB SLT ISZERO PUSH2 0x4CAE JUMPI PUSH1 0x0 DUP1 REVERT JUMPDEST PUSH1 0x0 PUSH2 0x4A18 DUP5 DUP5 PUSH2 0x4792 JUMP JUMPDEST PUSH1 0x0 PUSH1 0x20 DUP3 DUP5 SUB SLT ISZERO PUSH2 0x4CCC JUMPI PUSH1 0x0 DUP1 REVERT JUMPDEST PUSH1 0x0 PUSH2 0x4A18 DUP5 DUP5 PUSH2 0x479E JUMP JUMPDEST PUSH1 0x0 DUP1 PUSH2 0x100 DUP4 DUP6 SUB SLT ISZERO PUSH2 0x4CEC JUMPI PUSH1 0x0 DUP1 REVERT JUMPDEST PUSH1 0x0 PUSH2 0x4CF8 DUP6 DUP6 PUSH2 0x4842 JUMP JUMPDEST SWAP3 POP POP PUSH1 0x80 PUSH2 0x4A50 DUP6 DUP3 DUP7 ADD PUSH2 0x4842 JUMP JUMPDEST PUSH1 0x0 PUSH1 0x20 DUP3 DUP5 SUB SLT ISZERO PUSH2 0x4D1B JUMPI PUSH1 0x0 DUP1 REVERT JUMPDEST DUP2 CALLDATALOAD PUSH8 0xFFFFFFFFFFFFFFFF DUP2 GT ISZERO PUSH2 0x4D32 JUMPI PUSH1 0x0 DUP1 REVERT JUMPDEST PUSH2 0x4A18 DUP5 DUP3 DUP6 ADD PUSH2 0x48B1 JUMP JUMPDEST PUSH1 0x0 DUP1 PUSH1 0x0 DUP1 PUSH1 0x0 PUSH2 0x100 DUP7 DUP9 SUB SLT ISZERO PUSH2 0x4D57 JUMPI PUSH1 0x0 DUP1 REVERT JUMPDEST DUP6 CALLDATALOAD PUSH8 0xFFFFFFFFFFFFFFFF DUP2 GT ISZERO PUSH2 0x4D6E JUMPI PUSH1 0x0 DUP1 REVERT JUMPDEST PUSH2 0x4D7A DUP9 DUP3 DUP10 ADD PUSH2 0x48B1 JUMP JUMPDEST SWAP6 POP POP PUSH1 0x20 PUSH2 0x4D8B DUP9 DUP3 DUP10 ADD PUSH2 0x4635 JUMP JUMPDEST SWAP5 POP POP PUSH1 0x40 PUSH2 0x4D9C DUP9 DUP3 DUP10 ADD PUSH2 0x4786 JUMP JUMPDEST SWAP4 POP POP PUSH1 0x60 PUSH2 0x4DAD DUP9 DUP3 DUP10 ADD PUSH2 0x4786 JUMP JUMPDEST SWAP3 POP POP PUSH1 0x80 PUSH2 0x4DBE DUP9 DUP3 DUP10 ADD PUSH2 0x4842 JUMP JUMPDEST SWAP2 POP POP SWAP3 SWAP6 POP SWAP3 SWAP6 SWAP1 SWAP4 POP JUMP JUMPDEST PUSH1 0x0 DUP1 PUSH1 0x0 DUP1 PUSH1 0x80 DUP6 DUP8 SUB SLT ISZERO PUSH2 0x4DE1 JUMPI PUSH1 0x0 DUP1 REVERT JUMPDEST DUP5 CALLDATALOAD PUSH8 0xFFFFFFFFFFFFFFFF DUP2 GT ISZERO PUSH2 0x4DF8 JUMPI PUSH1 0x0 DUP1 REVERT JUMPDEST PUSH2 0x4E04 DUP8 DUP3 DUP9 ADD PUSH2 0x48B1 JUMP JUMPDEST SWAP5 POP POP PUSH1 0x20 DUP6 ADD CALLDATALOAD PUSH8 0xFFFFFFFFFFFFFFFF DUP2 GT ISZERO PUSH2 0x4E21 JUMPI PUSH1 0x0 DUP1 REVERT JUMPDEST PUSH2 0x4E2D DUP8 DUP3 DUP9 ADD PUSH2 0x48B1 JUMP JUMPDEST SWAP4 POP POP PUSH1 0x40 DUP6 ADD CALLDATALOAD PUSH8 0xFFFFFFFFFFFFFFFF DUP2 GT ISZERO PUSH2 0x4E4A JUMPI PUSH1 0x0 DUP1 REVERT JUMPDEST PUSH2 0x4E56 DUP8 DUP3 DUP9 ADD PUSH2 0x47F3 JUMP JUMPDEST SWAP3 POP POP PUSH1 0x60 DUP6 ADD CALLDATALOAD PUSH8 0xFFFFFFFFFFFFFFFF DUP2 GT ISZERO PUSH2 0x4E73 JUMPI PUSH1 0x0 DUP1 REVERT JUMPDEST PUSH2 0x4E7F DUP8 DUP3 DUP9 ADD PUSH2 0x47F3 JUMP JUMPDEST SWAP2 POP POP SWAP3 SWAP6 SWAP2 SWAP5 POP SWAP3 POP JUMP JUMPDEST PUSH1 0x0 DUP1 PUSH1 0x40 DUP4 DUP6 SUB SLT ISZERO PUSH2 0x4E9E JUMPI PUSH1 0x0 DUP1 REVERT JUMPDEST DUP3 CALLDATALOAD PUSH8 0xFFFFFFFFFFFFFFFF DUP2 GT ISZERO PUSH2 0x4EB5 JUMPI PUSH1 0x0 DUP1 REVERT JUMPDEST PUSH2 0x4EC1 DUP6 DUP3 DUP7 ADD PUSH2 0x48B1 JUMP JUMPDEST SWAP3 POP POP PUSH1 0x20 PUSH2 0x4A50 DUP6 DUP3 DUP7 ADD PUSH2 0x4786 JUMP JUMPDEST PUSH1 0x0 DUP1 PUSH1 0x0 PUSH1 0x60 DUP5 DUP7 SUB SLT ISZERO PUSH2 0x4EE7 JUMPI PUSH1 0x0 DUP1 REVERT JUMPDEST DUP4 CALLDATALOAD PUSH8 0xFFFFFFFFFFFFFFFF DUP2 GT ISZERO PUSH2 0x4EFE JUMPI PUSH1 0x0 DUP1 REVERT JUMPDEST PUSH2 0x4F0A DUP7 DUP3 DUP8 ADD PUSH2 0x48B1 JUMP JUMPDEST SWAP4 POP POP PUSH1 0x20 PUSH2 0x4C73 DUP7 DUP3 DUP8 ADD PUSH2 0x4786 JUMP JUMPDEST PUSH1 0x0 DUP1 PUSH1 0x0 DUP1 PUSH1 0x0 DUP1 PUSH1 0x80 DUP8 DUP10 SUB SLT ISZERO PUSH2 0x4F34 JUMPI PUSH1 0x0 DUP1 REVERT JUMPDEST PUSH1 0x0 PUSH2 0x4F40 DUP10 DUP10 PUSH2 0x4786 JUMP JUMPDEST SWAP7 POP POP PUSH1 0x20 PUSH2 0x4F51 DUP10 DUP3 DUP11 ADD PUSH2 0x4635 JUMP JUMPDEST SWAP6 POP POP PUSH1 0x40 DUP8 ADD CALLDATALOAD PUSH8 0xFFFFFFFFFFFFFFFF DUP2 GT ISZERO PUSH2 0x4F6E JUMPI PUSH1 0x0 DUP1 REVERT JUMPDEST PUSH2 0x4F7A DUP10 DUP3 DUP11 ADD PUSH2 0x47AA JUMP JUMPDEST SWAP5 POP SWAP5 POP POP PUSH1 0x60 DUP8 ADD CALLDATALOAD PUSH8 0xFFFFFFFFFFFFFFFF DUP2 GT ISZERO PUSH2 0x4F99 JUMPI PUSH1 0x0 DUP1 REVERT JUMPDEST PUSH2 0x4FA5 DUP10 DUP3 DUP11 ADD PUSH2 0x47AA JUMP JUMPDEST SWAP3 POP SWAP3 POP POP SWAP3 SWAP6 POP SWAP3 SWAP6 POP SWAP3 SWAP6 JUMP JUMPDEST PUSH1 0x0 DUP1 PUSH1 0x0 PUSH1 0x60 DUP5 DUP7 SUB SLT ISZERO PUSH2 0x4FC9 JUMPI PUSH1 0x0 DUP1 REVERT JUMPDEST PUSH1 0x0 PUSH2 0x4FD5 DUP7 DUP7 PUSH2 0x4786 JUMP JUMPDEST SWAP4 POP POP PUSH1 0x20 PUSH2 0x4FE6 DUP7 DUP3 DUP8 ADD PUSH2 0x4786 JUMP JUMPDEST SWAP3 POP POP PUSH1 0x40 PUSH2 0x4B49 DUP7 DUP3 DUP8 ADD PUSH2 0x4786 JUMP JUMPDEST PUSH2 0x5000 DUP2 PUSH2 0x5CA6 JUMP JUMPDEST DUP3 MSTORE POP POP JUMP JUMPDEST PUSH1 0x0 PUSH2 0x5011 DUP3 PUSH2 0x5CA2 JUMP JUMPDEST DUP1 DUP5 MSTORE PUSH1 0x20 DUP5 ADD SWAP4 POP PUSH2 0x5023 DUP4 PUSH2 0x5C9C JUMP JUMPDEST PUSH1 0x0 JUMPDEST DUP3 DUP2 LT ISZERO PUSH2 0x5053 JUMPI PUSH2 0x5039 DUP7 DUP4 MLOAD PUSH2 0x57DB JUMP JUMPDEST PUSH2 0x5042 DUP3 PUSH2 0x5C9C JUMP JUMPDEST PUSH1 0x60 SWAP7 SWAP1 SWAP7 ADD SWAP6 SWAP2 POP PUSH1 0x1 ADD PUSH2 0x5026 JUMP JUMPDEST POP SWAP4 SWAP5 SWAP4 POP POP POP POP JUMP JUMPDEST PUSH2 0x5000 DUP2 PUSH2 0x5CBF JUMP JUMPDEST PUSH2 0x5000 DUP2 PUSH2 0x5CC4 JUMP JUMPDEST PUSH2 0x5000 DUP2 PUSH2 0x5CC7 JUMP JUMPDEST PUSH1 0x0 PUSH2 0x5083 DUP3 PUSH2 0x5CA2 JUMP JUMPDEST DUP1 DUP5 MSTORE PUSH2 0x5097 DUP2 PUSH1 0x20 DUP7 ADD PUSH1 0x20 DUP7 ADD PUSH2 0x5D09 JUMP JUMPDEST PUSH2 0x50A0 DUP2 PUSH2 0x5D35 JUMP JUMPDEST SWAP1 SWAP4 ADD PUSH1 0x20 ADD SWAP4 SWAP3 POP POP POP JUMP JUMPDEST PUSH2 0x5000 DUP2 PUSH2 0x5CF2 JUMP JUMPDEST PUSH1 0x12 DUP2 MSTORE PUSH32 0x4C454E4754485F36355F52455155495245440000000000000000000000000000 PUSH1 0x20 DUP3 ADD MSTORE PUSH1 0x40 ADD SWAP1 JUMP JUMPDEST PUSH1 0xD DUP2 MSTORE PUSH32 0x494E56414C49445F54414B455200000000000000000000000000000000000000 PUSH1 0x20 DUP3 ADD MSTORE PUSH1 0x40 ADD SWAP1 JUMP JUMPDEST PUSH1 0xE DUP2 MSTORE PUSH32 0x4F524445525F4F56455246494C4C000000000000000000000000000000000000 PUSH1 0x20 DUP3 ADD MSTORE PUSH1 0x40 ADD SWAP1 JUMP JUMPDEST PUSH1 0x11 DUP2 MSTORE PUSH32 0x55494E543235365F554E444552464C4F57000000000000000000000000000000 PUSH1 0x20 DUP3 ADD MSTORE PUSH1 0x40 ADD SWAP1 JUMP JUMPDEST PUSH1 0x1A DUP2 MSTORE PUSH32 0x41535345545F50524F58595F414C52454144595F455849535453000000000000 PUSH1 0x20 DUP3 ADD MSTORE PUSH1 0x40 ADD SWAP1 JUMP JUMPDEST PUSH1 0x26 DUP2 MSTORE PUSH32 0x475245415445525F4F525F455155414C5F544F5F33325F4C454E4754485F5245 PUSH1 0x20 DUP3 ADD MSTORE PUSH32 0x5155495245440000000000000000000000000000000000000000000000000000 PUSH1 0x40 DUP3 ADD MSTORE PUSH1 0x60 ADD SWAP1 JUMP JUMPDEST PUSH1 0x15 DUP2 MSTORE PUSH32 0x5349474E41545552455F554E535550504F525445440000000000000000000000 PUSH1 0x20 DUP3 ADD MSTORE PUSH1 0x40 ADD SWAP1 JUMP JUMPDEST PUSH1 0x10 DUP2 MSTORE PUSH32 0x4449564953494F4E5F42595F5A45524F00000000000000000000000000000000 PUSH1 0x20 DUP3 ADD MSTORE PUSH1 0x40 ADD SWAP1 JUMP JUMPDEST PUSH1 0x17 DUP2 MSTORE PUSH32 0x494E56414C49445F4F524445525F5349474E4154555245000000000000000000 PUSH1 0x20 DUP3 ADD MSTORE PUSH1 0x40 ADD SWAP1 JUMP JUMPDEST PUSH1 0xD DUP2 MSTORE PUSH32 0x494E56414C49445F4D414B455200000000000000000000000000000000000000 PUSH1 0x20 DUP3 ADD MSTORE PUSH1 0x40 ADD SWAP1 JUMP JUMPDEST PUSH1 0x10 DUP2 MSTORE PUSH32 0x55494E543235365F4F564552464C4F5700000000000000000000000000000000 PUSH1 0x20 DUP3 ADD MSTORE PUSH1 0x40 ADD SWAP1 JUMP JUMPDEST PUSH1 0xF DUP2 MSTORE PUSH32 0x494E56414C49445F54585F484153480000000000000000000000000000000000 PUSH1 0x20 DUP3 ADD MSTORE PUSH1 0x40 ADD SWAP1 JUMP JUMPDEST PUSH1 0x11 DUP2 MSTORE PUSH32 0x494E56414C49445F5349474E4154555245000000000000000000000000000000 PUSH1 0x20 DUP3 ADD MSTORE PUSH1 0x40 ADD SWAP1 JUMP JUMPDEST PUSH1 0xE DUP2 MSTORE PUSH32 0x524F554E44494E475F4552524F52000000000000000000000000000000000000 PUSH1 0x20 DUP3 ADD MSTORE PUSH1 0x40 ADD SWAP1 JUMP JUMPDEST PUSH1 0x10 DUP2 MSTORE PUSH32 0x4641494C45445F455845435554494F4E00000000000000000000000000000000 PUSH1 0x20 DUP3 ADD MSTORE PUSH1 0x40 ADD SWAP1 JUMP JUMPDEST PUSH1 0xD DUP2 MSTORE PUSH32 0x54414B45525F4F56455250415900000000000000000000000000000000000000 PUSH1 0x20 DUP3 ADD MSTORE PUSH1 0x40 ADD SWAP1 JUMP JUMPDEST PUSH1 0x14 DUP2 MSTORE PUSH32 0x494E56414C49445F54414B45525F414D4F554E54000000000000000000000000 PUSH1 0x20 DUP3 ADD MSTORE PUSH1 0x40 ADD SWAP1 JUMP JUMPDEST PUSH1 0x1A DUP2 MSTORE PUSH32 0x41535345545F50524F58595F444F45535F4E4F545F4558495354000000000000 PUSH1 0x20 DUP3 ADD MSTORE PUSH1 0x40 ADD SWAP1 JUMP JUMPDEST PUSH1 0x21 DUP2 MSTORE PUSH32 0x475245415445525F5448414E5F5A45524F5F4C454E4754485F52455155495245 PUSH1 0x20 DUP3 ADD MSTORE PUSH32 0x4400000000000000000000000000000000000000000000000000000000000000 PUSH1 0x40 DUP3 ADD MSTORE PUSH1 0x60 ADD SWAP1 JUMP JUMPDEST PUSH1 0x11 DUP2 MSTORE PUSH32 0x5349474E41545552455F494C4C4547414C000000000000000000000000000000 PUSH1 0x20 DUP3 ADD MSTORE PUSH1 0x40 ADD SWAP1 JUMP JUMPDEST PUSH1 0x1E DUP2 MSTORE PUSH32 0x4C454E4754485F475245415445525F5448414E5F305F52455155495245440000 PUSH1 0x20 DUP3 ADD MSTORE PUSH1 0x40 ADD SWAP1 JUMP JUMPDEST PUSH1 0x17 DUP2 MSTORE PUSH32 0x494E56414C49445F4E45575F4F524445525F45504F4348000000000000000000 PUSH1 0x20 DUP3 ADD MSTORE PUSH1 0x40 ADD SWAP1 JUMP JUMPDEST PUSH1 0x1E DUP2 MSTORE PUSH32 0x4C454E4754485F475245415445525F5448414E5F335F52455155495245440000 PUSH1 0x20 DUP3 ADD MSTORE PUSH1 0x40 ADD SWAP1 JUMP JUMPDEST PUSH1 0x14 DUP2 MSTORE PUSH32 0x434F4D504C4554455F46494C4C5F4641494C4544000000000000000000000000 PUSH1 0x20 DUP3 ADD MSTORE PUSH1 0x40 ADD SWAP1 JUMP JUMPDEST PUSH1 0x12 DUP2 MSTORE PUSH32 0x494E56414C49445F46494C4C5F50524943450000000000000000000000000000 PUSH1 0x20 DUP3 ADD MSTORE PUSH1 0x40 ADD SWAP1 JUMP JUMPDEST PUSH1 0x12 DUP2 MSTORE PUSH32 0x5245454E5452414E43595F494C4C4547414C0000000000000000000000000000 PUSH1 0x20 DUP3 ADD MSTORE PUSH1 0x40 ADD SWAP1 JUMP JUMPDEST PUSH1 0x13 DUP2 MSTORE PUSH32 0x4F4E4C595F434F4E54524143545F4F574E455200000000000000000000000000 PUSH1 0x20 DUP3 ADD MSTORE PUSH1 0x40 ADD SWAP1 JUMP JUMPDEST PUSH1 0x26 DUP2 MSTORE PUSH32 0x475245415445525F4F525F455155414C5F544F5F32305F4C454E4754485F5245 PUSH1 0x20 DUP3 ADD MSTORE PUSH32 0x5155495245440000000000000000000000000000000000000000000000000000 PUSH1 0x40 DUP3 ADD MSTORE PUSH1 0x60 ADD SWAP1 JUMP JUMPDEST PUSH1 0x10 DUP2 MSTORE PUSH32 0x4F524445525F554E46494C4C41424C4500000000000000000000000000000000 PUSH1 0x20 DUP3 ADD MSTORE PUSH1 0x40 ADD SWAP1 JUMP JUMPDEST PUSH1 0xE DUP2 MSTORE PUSH32 0x494E56414C49445F53454E444552000000000000000000000000000000000000 PUSH1 0x20 DUP3 ADD MSTORE PUSH1 0x40 ADD SWAP1 JUMP JUMPDEST PUSH1 0x18 DUP2 MSTORE PUSH32 0x4E454741544956455F5350524541445F52455155495245440000000000000000 PUSH1 0x20 DUP3 ADD MSTORE PUSH1 0x40 ADD SWAP1 JUMP JUMPDEST PUSH1 0x14 DUP2 MSTORE PUSH32 0x494E56414C49445F54585F5349474E4154555245000000000000000000000000 PUSH1 0x20 DUP3 ADD MSTORE PUSH1 0x40 ADD SWAP1 JUMP JUMPDEST PUSH1 0x11 DUP2 MSTORE PUSH32 0x4C454E4754485F305F5245515549524544000000000000000000000000000000 PUSH1 0x20 DUP3 ADD MSTORE PUSH1 0x40 ADD SWAP1 JUMP JUMPDEST DUP1 MLOAD PUSH1 0x80 DUP4 ADD SWAP1 PUSH2 0x5769 DUP5 DUP3 PUSH2 0x5066 JUMP JUMPDEST POP PUSH1 0x20 DUP3 ADD MLOAD PUSH2 0x577C PUSH1 0x20 DUP6 ADD DUP3 PUSH2 0x5066 JUMP JUMPDEST POP PUSH1 0x40 DUP3 ADD MLOAD PUSH2 0x578F PUSH1 0x40 DUP6 ADD DUP3 PUSH2 0x5066 JUMP JUMPDEST POP PUSH1 0x60 DUP3 ADD MLOAD PUSH2 0x2B50 PUSH1 0x60 DUP6 ADD DUP3 PUSH2 0x5066 JUMP JUMPDEST DUP1 MLOAD PUSH2 0x120 DUP4 ADD SWAP1 PUSH2 0x57B4 DUP5 DUP3 PUSH2 0x5758 JUMP JUMPDEST POP PUSH1 0x20 DUP3 ADD MLOAD PUSH2 0x57C7 PUSH1 0x80 DUP6 ADD DUP3 PUSH2 0x5758 JUMP JUMPDEST POP PUSH1 0x40 DUP3 ADD MLOAD PUSH2 0x2B50 PUSH2 0x100 DUP6 ADD DUP3 PUSH2 0x5066 JUMP JUMPDEST DUP1 MLOAD PUSH1 0x60 DUP4 ADD SWAP1 PUSH2 0x57EC DUP5 DUP3 PUSH2 0x5812 JUMP JUMPDEST POP PUSH1 0x20 DUP3 ADD MLOAD PUSH2 0x57FF PUSH1 0x20 DUP6 ADD DUP3 PUSH2 0x5066 JUMP JUMPDEST POP PUSH1 0x40 DUP3 ADD MLOAD PUSH2 0x2B50 PUSH1 0x40 DUP6 ADD DUP3 PUSH2 0x5066 JUMP JUMPDEST PUSH2 0x5000 DUP2 PUSH2 0x5CEC JUMP JUMPDEST PUSH1 0x20 DUP2 ADD PUSH2 0x119C DUP3 DUP5 PUSH2 0x4FF7 JUMP JUMPDEST PUSH2 0x100 DUP2 ADD PUSH2 0x5838 DUP3 DUP12 PUSH2 0x4FF7 JUMP JUMPDEST PUSH2 0x5845 PUSH1 0x20 DUP4 ADD DUP11 PUSH2 0x4FF7 JUMP JUMPDEST PUSH2 0x5852 PUSH1 0x40 DUP4 ADD DUP10 PUSH2 0x5066 JUMP JUMPDEST PUSH2 0x585F PUSH1 0x60 DUP4 ADD DUP9 PUSH2 0x5066 JUMP JUMPDEST PUSH2 0x586C PUSH1 0x80 DUP4 ADD DUP8 PUSH2 0x5066 JUMP JUMPDEST PUSH2 0x5879 PUSH1 0xA0 DUP4 ADD DUP7 PUSH2 0x5066 JUMP JUMPDEST DUP2 DUP2 SUB PUSH1 0xC0 DUP4 ADD MSTORE PUSH2 0x588B DUP2 DUP6 PUSH2 0x5078 JUMP JUMPDEST SWAP1 POP DUP2 DUP2 SUB PUSH1 0xE0 DUP4 ADD MSTORE PUSH2 0x589F DUP2 DUP5 PUSH2 0x5078 JUMP JUMPDEST SWAP11 SWAP10 POP POP POP POP POP POP POP POP POP POP JUMP JUMPDEST PUSH1 0x60 DUP2 ADD PUSH2 0x58BB DUP3 DUP7 PUSH2 0x4FF7 JUMP JUMPDEST DUP2 DUP2 SUB PUSH1 0x20 DUP4 ADD MSTORE PUSH2 0x58CD DUP2 DUP6 PUSH2 0x5078 JUMP JUMPDEST SWAP1 POP DUP2 DUP2 SUB PUSH1 0x40 DUP4 ADD MSTORE PUSH2 0x58E1 DUP2 DUP5 PUSH2 0x5078 JUMP JUMPDEST SWAP6 SWAP5 POP POP POP POP POP JUMP JUMPDEST PUSH1 0x20 DUP1 DUP3 MSTORE DUP2 ADD PUSH2 0x7F7 DUP2 DUP5 PUSH2 0x5006 JUMP JUMPDEST PUSH1 0x20 DUP2 ADD PUSH2 0x119C DUP3 DUP5 PUSH2 0x505D JUMP JUMPDEST PUSH1 0x20 DUP2 ADD PUSH2 0x119C DUP3 DUP5 PUSH2 0x5066 JUMP JUMPDEST PUSH1 0x60 DUP2 ADD PUSH2 0x5925 DUP3 DUP7 PUSH2 0x5066 JUMP JUMPDEST PUSH2 0x5932 PUSH1 0x20 DUP4 ADD DUP6 PUSH2 0x4FF7 JUMP JUMPDEST DUP2 DUP2 SUB PUSH1 0x40 DUP4 ADD MSTORE PUSH2 0x58E1 DUP2 DUP5 PUSH2 0x5078 JUMP JUMPDEST PUSH1 0x40 DUP2 ADD PUSH2 0x5952 DUP3 DUP6 PUSH2 0x5066 JUMP JUMPDEST DUP2 DUP2 SUB PUSH1 0x20 DUP4 ADD MSTORE PUSH2 0x7F4 DUP2 DUP5 PUSH2 0x5078 JUMP JUMPDEST PUSH1 0x80 DUP2 ADD PUSH2 0x5972 DUP3 DUP8 PUSH2 0x5066 JUMP JUMPDEST PUSH2 0x597F PUSH1 0x20 DUP4 ADD DUP7 PUSH2 0x5812 JUMP JUMPDEST PUSH2 0x598C PUSH1 0x40 DUP4 ADD DUP6 PUSH2 0x5066 JUMP JUMPDEST PUSH2 0x58E1 PUSH1 0x60 DUP4 ADD DUP5 PUSH2 0x5066 JUMP JUMPDEST PUSH1 0x40 DUP2 ADD PUSH2 0x59A7 DUP3 DUP6 PUSH2 0x506F JUMP JUMPDEST PUSH2 0x7F7 PUSH1 0x20 DUP4 ADD DUP5 PUSH2 0x4FF7 JUMP JUMPDEST PUSH1 0x20 DUP1 DUP3 MSTORE DUP2 ADD PUSH2 0x7F7 DUP2 DUP5 PUSH2 0x5078 JUMP JUMPDEST PUSH1 0x20 DUP2 ADD PUSH2 0x119C DUP3 DUP5 PUSH2 0x50AD JUMP JUMPDEST PUSH1 0x20 DUP1 DUP3 MSTORE DUP2 ADD PUSH2 0x119C DUP2 PUSH2 0x50B6 JUMP JUMPDEST PUSH1 0x20 DUP1 DUP3 MSTORE DUP2 ADD PUSH2 0x119C DUP2 PUSH2 0x50E6 JUMP JUMPDEST PUSH1 0x20 DUP1 DUP3 MSTORE DUP2 ADD PUSH2 0x119C DUP2 PUSH2 0x5116 JUMP JUMPDEST PUSH1 0x20 DUP1 DUP3 MSTORE DUP2 ADD PUSH2 0x119C DUP2 PUSH2 0x5146 JUMP JUMPDEST PUSH1 0x20 DUP1 DUP3 MSTORE DUP2 ADD PUSH2 0x119C DUP2 PUSH2 0x5176 JUMP JUMPDEST PUSH1 0x20 DUP1 DUP3 MSTORE DUP2 ADD PUSH2 0x119C DUP2 PUSH2 0x51A6 JUMP JUMPDEST PUSH1 0x20 DUP1 DUP3 MSTORE DUP2 ADD PUSH2 0x119C DUP2 PUSH2 0x51FC JUMP JUMPDEST PUSH1 0x20 DUP1 DUP3 MSTORE DUP2 ADD PUSH2 0x119C DUP2 PUSH2 0x522C JUMP JUMPDEST PUSH1 0x20 DUP1 DUP3 MSTORE DUP2 ADD PUSH2 0x119C DUP2 PUSH2 0x525C JUMP JUMPDEST PUSH1 0x20 DUP1 DUP3 MSTORE DUP2 ADD PUSH2 0x119C DUP2 PUSH2 0x528C JUMP JUMPDEST PUSH1 0x20 DUP1 DUP3 MSTORE DUP2 ADD PUSH2 0x119C DUP2 PUSH2 0x52BC JUMP JUMPDEST PUSH1 0x20 DUP1 DUP3 MSTORE DUP2 ADD PUSH2 0x119C DUP2 PUSH2 0x52EC JUMP JUMPDEST PUSH1 0x20 DUP1 DUP3 MSTORE DUP2 ADD PUSH2 0x119C DUP2 PUSH2 0x531C JUMP JUMPDEST PUSH1 0x20 DUP1 DUP3 MSTORE DUP2 ADD PUSH2 0x119C DUP2 PUSH2 0x534C JUMP JUMPDEST PUSH1 0x20 DUP1 DUP3 MSTORE DUP2 ADD PUSH2 0x119C DUP2 PUSH2 0x537C JUMP JUMPDEST PUSH1 0x20 DUP1 DUP3 MSTORE DUP2 ADD PUSH2 0x119C DUP2 PUSH2 0x53AC JUMP JUMPDEST PUSH1 0x20 DUP1 DUP3 MSTORE DUP2 ADD PUSH2 0x119C DUP2 PUSH2 0x53DC JUMP JUMPDEST PUSH1 0x20 DUP1 DUP3 MSTORE DUP2 ADD PUSH2 0x119C DUP2 PUSH2 0x540C JUMP JUMPDEST PUSH1 0x20 DUP1 DUP3 MSTORE DUP2 ADD PUSH2 0x119C DUP2 PUSH2 0x543C JUMP JUMPDEST PUSH1 0x20 DUP1 DUP3 MSTORE DUP2 ADD PUSH2 0x119C DUP2 PUSH2 0x5492 JUMP JUMPDEST PUSH1 0x20 DUP1 DUP3 MSTORE DUP2 ADD PUSH2 0x119C DUP2 PUSH2 0x54C2 JUMP JUMPDEST PUSH1 0x20 DUP1 DUP3 MSTORE DUP2 ADD PUSH2 0x119C DUP2 PUSH2 0x54F2 JUMP JUMPDEST PUSH1 0x20 DUP1 DUP3 MSTORE DUP2 ADD PUSH2 0x119C DUP2 PUSH2 0x5522 JUMP JUMPDEST PUSH1 0x20 DUP1 DUP3 MSTORE DUP2 ADD PUSH2 0x119C DUP2 PUSH2 0x5552 JUMP JUMPDEST PUSH1 0x20 DUP1 DUP3 MSTORE DUP2 ADD PUSH2 0x119C DUP2 PUSH2 0x5582 JUMP JUMPDEST PUSH1 0x20 DUP1 DUP3 MSTORE DUP2 ADD PUSH2 0x119C DUP2 PUSH2 0x55B2 JUMP JUMPDEST PUSH1 0x20 DUP1 DUP3 MSTORE DUP2 ADD PUSH2 0x119C DUP2 PUSH2 0x55E2 JUMP JUMPDEST PUSH1 0x20 DUP1 DUP3 MSTORE DUP2 ADD PUSH2 0x119C DUP2 PUSH2 0x5612 JUMP JUMPDEST PUSH1 0x20 DUP1 DUP3 MSTORE DUP2 ADD PUSH2 0x119C DUP2 PUSH2 0x5668 JUMP JUMPDEST PUSH1 0x20 DUP1 DUP3 MSTORE DUP2 ADD PUSH2 0x119C DUP2 PUSH2 0x5698 JUMP JUMPDEST PUSH1 0x20 DUP1 DUP3 MSTORE DUP2 ADD PUSH2 0x119C DUP2 PUSH2 0x56C8 JUMP JUMPDEST PUSH1 0x20 DUP1 DUP3 MSTORE DUP2 ADD PUSH2 0x119C DUP2 PUSH2 0x56F8 JUMP JUMPDEST PUSH1 0x20 DUP1 DUP3 MSTORE DUP2 ADD PUSH2 0x119C DUP2 PUSH2 0x5728 JUMP JUMPDEST PUSH1 0x80 DUP2 ADD PUSH2 0x119C DUP3 DUP5 PUSH2 0x5758 JUMP JUMPDEST PUSH2 0x120 DUP2 ADD PUSH2 0x119C DUP3 DUP5 PUSH2 0x57A2 JUMP JUMPDEST PUSH1 0x60 DUP2 ADD PUSH2 0x119C DUP3 DUP5 PUSH2 0x57DB JUMP JUMPDEST PUSH1 0x40 MLOAD DUP2 DUP2 ADD PUSH8 0xFFFFFFFFFFFFFFFF DUP2 GT DUP3 DUP3 LT OR ISZERO PUSH2 0x5C2D JUMPI PUSH1 0x0 DUP1 REVERT JUMPDEST PUSH1 0x40 MSTORE SWAP2 SWAP1 POP JUMP JUMPDEST PUSH1 0x0 PUSH8 0xFFFFFFFFFFFFFFFF DUP3 GT ISZERO PUSH2 0x5C4C JUMPI PUSH1 0x0 DUP1 REVERT JUMPDEST POP PUSH1 0x20 SWAP1 DUP2 MUL ADD SWAP1 JUMP JUMPDEST PUSH1 0x0 PUSH8 0xFFFFFFFFFFFFFFFF DUP3 GT ISZERO PUSH2 0x5C6D JUMPI PUSH1 0x0 DUP1 REVERT JUMPDEST POP PUSH1 0x20 PUSH1 0x1F SWAP2 SWAP1 SWAP2 ADD PUSH32 0xFFFFFFFFFFFFFFFFFFFFFFFFFFFFFFFFFFFFFFFFFFFFFFFFFFFFFFFFFFFFFFE0 AND ADD SWAP1 JUMP JUMPDEST PUSH1 0x20 ADD SWAP1 JUMP JUMPDEST MLOAD SWAP1 JUMP JUMPDEST PUSH20 0xFFFFFFFFFFFFFFFFFFFFFFFFFFFFFFFFFFFFFFFF AND SWAP1 JUMP JUMPDEST ISZERO ISZERO SWAP1 JUMP JUMPDEST SWAP1 JUMP JUMPDEST PUSH32 0xFFFFFFFF00000000000000000000000000000000000000000000000000000000 AND SWAP1 JUMP JUMPDEST PUSH1 0xFF AND SWAP1 JUMP JUMPDEST PUSH1 0x0 PUSH2 0x119C DUP3 PUSH2 0x5CA6 JUMP JUMPDEST DUP3 DUP2 DUP4 CALLDATACOPY POP PUSH1 0x0 SWAP2 ADD MSTORE JUMP JUMPDEST PUSH1 0x0 JUMPDEST DUP4 DUP2 LT ISZERO PUSH2 0x5D24 JUMPI DUP2 DUP2 ADD MLOAD DUP4 DUP3 ADD MSTORE PUSH1 0x20 ADD PUSH2 0x5D0C JUMP JUMPDEST DUP4 DUP2 GT ISZERO PUSH2 0x2B50 JUMPI POP POP PUSH1 0x0 SWAP2 ADD MSTORE JUMP JUMPDEST PUSH1 0x1F ADD PUSH32 0xFFFFFFFFFFFFFFFFFFFFFFFFFFFFFFFFFFFFFFFFFFFFFFFFFFFFFFFFFFFFFFE0 AND SWAP1 JUMP STOP LOG2 PUSH6 0x627A7A723058 KECCAK256 LOG0 0xd8 0xac 0xec 0xb3 CALLER RETURNDATASIZE 0xd7 0x21 0xa8 0x22 CREATE2 SHR DUP7 0xc7 PUSH18 0x4FC5A48327FD1BD94E3356CA224D82826C65 PUSH25 0x706572696D656E74616CF50037000000000000000000000000 "
			}
		}
	},
	"sourceTreeHashHex": "0x55d90debff62d359a25a4c00432a80752a3d625620569a2e0330a038b333d10b",
	"compiler": {
		"name": "solc",
		"version": "soljson-v0.4.24+commit.e67f0147.js",
		"settings": {
			"optimizer": {
				"enabled": true,
				"runs": 1000000
			},
			"outputSelection": {
				"*": {
					"*": [
						"abi",
						"evm.bytecode.object",
						"evm.bytecode.sourceMap",
						"evm.deployedBytecode.object",
						"evm.deployedBytecode.sourceMap"
					]
				}
			}
		}
	}
}