{
	"schemaVersion": "2.0.0",
	"contractName": "Whitelist",
	"compilerOutput": {
		"abi": [
			{
				"constant": false,
				"inputs": [
					{
						"components": [
							{
								"name": "makerAddress",
								"type": "address"
							},
							{
								"name": "takerAddress",
								"type": "address"
							},
							{
								"name": "feeRecipientAddress",
								"type": "address"
							},
							{
								"name": "senderAddress",
								"type": "address"
							},
							{
								"name": "makerAssetAmount",
								"type": "uint256"
							},
							{
								"name": "takerAssetAmount",
								"type": "uint256"
							},
							{
								"name": "makerFee",
								"type": "uint256"
							},
							{
								"name": "takerFee",
								"type": "uint256"
							},
							{
								"name": "expirationTimeSeconds",
								"type": "uint256"
							},
							{
								"name": "salt",
								"type": "uint256"
							},
							{
								"name": "makerAssetData",
								"type": "bytes"
							},
							{
								"name": "takerAssetData",
								"type": "bytes"
							}
						],
						"name": "order",
						"type": "tuple"
					},
					{
						"name": "takerAssetFillAmount",
						"type": "uint256"
					},
					{
						"name": "salt",
						"type": "uint256"
					},
					{
						"name": "orderSignature",
						"type": "bytes"
					}
				],
				"name": "fillOrderIfWhitelisted",
				"outputs": [],
				"payable": false,
				"stateMutability": "nonpayable",
				"type": "function"
			},
			{
				"constant": true,
				"inputs": [
					{
						"name": "",
						"type": "address"
					}
				],
				"name": "isWhitelisted",
				"outputs": [
					{
						"name": "",
						"type": "bool"
					}
				],
				"payable": false,
				"stateMutability": "view",
				"type": "function"
			},
			{
				"constant": true,
				"inputs": [],
				"name": "owner",
				"outputs": [
					{
						"name": "",
						"type": "address"
					}
				],
				"payable": false,
				"stateMutability": "view",
				"type": "function"
			},
			{
				"constant": true,
				"inputs": [
					{
						"name": "hash",
						"type": "bytes32"
					},
					{
						"name": "signerAddress",
						"type": "address"
					},
					{
						"name": "signature",
						"type": "bytes"
					}
				],
				"name": "isValidSignature",
				"outputs": [
					{
						"name": "isValid",
						"type": "bool"
					}
				],
				"payable": false,
				"stateMutability": "view",
				"type": "function"
			},
			{
				"constant": false,
				"inputs": [
					{
						"name": "target",
						"type": "address"
					},
					{
						"name": "isApproved",
						"type": "bool"
					}
				],
				"name": "updateWhitelistStatus",
				"outputs": [],
				"payable": false,
				"stateMutability": "nonpayable",
				"type": "function"
			},
			{
				"constant": false,
				"inputs": [
					{
						"name": "newOwner",
						"type": "address"
					}
				],
				"name": "transferOwnership",
				"outputs": [],
				"payable": false,
				"stateMutability": "nonpayable",
				"type": "function"
			},
			{
				"inputs": [
					{
						"name": "_exchange",
						"type": "address"
					}
				],
				"payable": false,
				"stateMutability": "nonpayable",
				"type": "constructor"
			}
		],
		"evm": {
			"bytecode": {
				"linkReferences": {},
				"object": "0x60806040523480156200001157600080fd5b5060405160208062000f59833981018060405262000033919081019062000185565b6000805433600160a060020a03199182161790915560028054909116600160a060020a03831617905560408051306c01000000000000000000000000026020808301919091527f050000000000000000000000000000000000000000000000000000000000000060348301528251808303601501815260359092019092528051620000c3926003920190620000cb565b5050620001ba565b828054600181600116156101000203166002900490600052602060002090601f016020900481019282601f106200010e57805160ff19168380011785556200013e565b828001600101855582156200013e579182015b828111156200013e57825182559160200191906001019062000121565b506200014c92915062000150565b5090565b6200016d91905b808211156200014c576000815560010162000157565b90565b60006200017e8251620001ae565b9392505050565b6000602082840312156200019857600080fd5b6000620001a6848462000170565b949350505050565b600160a060020a031690565b610d8f80620001ca6000396000f3006080604052600436106100775763ffffffff7c0100000000000000000000000000000000000000000000000000000000600035041663141da876811461007c5780633af32abf1461009e5780638da5cb5b146100d457806393634702146100f6578063c07732a314610116578063f2fde38b14610136575b600080fd5b34801561008857600080fd5b5061009c61009736600461082e565b610156565b005b3480156100aa57600080fd5b506100be6100b9366004610766565b6103ab565b6040516100cb9190610b88565b60405180910390f35b3480156100e057600080fd5b506100e96103c0565b6040516100cb9190610b74565b34801561010257600080fd5b506100be6101113660046107c6565b6103dc565b34801561012257600080fd5b5061009c61013136600461078c565b6103fd565b34801561014257600080fd5b5061009c610151366004610766565b6104a4565b33606032821461019b576040517f08c379a000000000000000000000000000000000000000000000000000000000815260040161019290610bc6565b60405180910390fd5b855173ffffffffffffffffffffffffffffffffffffffff1660009081526001602052604090205460ff1615156101fd576040517f08c379a000000000000000000000000000000000000000000000000000000000815260040161019290610bb6565b73ffffffffffffffffffffffffffffffffffffffff821660009081526001602052604090205460ff16151561025e576040517f08c379a000000000000000000000000000000000000000000000000000000000815260040161019290610b96565b6040517fb4be83d5000000000000000000000000000000000000000000000000000000009061029590889088908790602401610bd6565b604080517fffffffffffffffffffffffffffffffffffffffffffffffffffffffffffffffe08184030181529181526020820180517bffffffffffffffffffffffffffffffffffffffffffffffffffffffff167fffffffff000000000000000000000000000000000000000000000000000000009094169390931790925260025491517fbfc8bfce00000000000000000000000000000000000000000000000000000000815290925073ffffffffffffffffffffffffffffffffffffffff9091169063bfc8bfce9061037190879086908690600390600401610c08565b600060405180830381600087803b15801561038b57600080fd5b505af115801561039f573d6000803e3d6000fd5b50505050505050505050565b60016020526000908152604090205460ff1681565b60005473ffffffffffffffffffffffffffffffffffffffff1681565b73ffffffffffffffffffffffffffffffffffffffff83163214949350505050565b60005473ffffffffffffffffffffffffffffffffffffffff16331461044e576040517f08c379a000000000000000000000000000000000000000000000000000000000815260040161019290610ba6565b73ffffffffffffffffffffffffffffffffffffffff91909116600090815260016020526040902080547fffffffffffffffffffffffffffffffffffffffffffffffffffffffffffffff0016911515919091179055565b60005473ffffffffffffffffffffffffffffffffffffffff1633146104f5576040517f08c379a000000000000000000000000000000000000000000000000000000000815260040161019290610ba6565b73ffffffffffffffffffffffffffffffffffffffff81161561055257600080547fffffffffffffffffffffffff00000000000000000000000000000000000000001673ffffffffffffffffffffffffffffffffffffffff83161790555b50565b60006105618235610cd0565b9392505050565b60006105618235610ce9565b60006105618235610cee565b600080601f8301841361059257600080fd5b50813567ffffffffffffffff8111156105aa57600080fd5b6020830191508360018202830111156105c257600080fd5b9250929050565b6000601f820183136105da57600080fd5b81356105ed6105e882610c7a565b610c53565b9150808252602083016020830185838301111561060957600080fd5b610614838284610cf1565b50505092915050565b6000610180828403121561063057600080fd5b61063b610180610c53565b905060006106498484610555565b825250602061065a84848301610555565b602083015250604061066e84828501610555565b604083015250606061068284828501610555565b606083015250608061069684828501610574565b60808301525060a06106aa84828501610574565b60a08301525060c06106be84828501610574565b60c08301525060e06106d284828501610574565b60e0830152506101006106e784828501610574565b610100830152506101206106fd84828501610574565b6101208301525061014082013567ffffffffffffffff81111561071f57600080fd5b61072b848285016105c9565b6101408301525061016082013567ffffffffffffffff81111561074d57600080fd5b610759848285016105c9565b6101608301525092915050565b60006020828403121561077857600080fd5b60006107848484610555565b949350505050565b6000806040838503121561079f57600080fd5b60006107ab8585610555565b92505060206107bc85828601610568565b9150509250929050565b600080600080606085870312156107dc57600080fd5b60006107e88787610574565b94505060206107f987828801610555565b935050604085013567ffffffffffffffff81111561081657600080fd5b61082287828801610580565b95989497509550505050565b6000806000806080858703121561084457600080fd5b843567ffffffffffffffff81111561085b57600080fd5b6108678782880161061d565b945050602061087887828801610574565b935050604061088987828801610574565b925050606085013567ffffffffffffffff8111156108a657600080fd5b6108b2878288016105c9565b91505092959194509250565b6108c781610cd0565b82525050565b6108c781610ce9565b60006108e182610ccc565b8084526108f5816020860160208601610cfd565b6108fe81610d2d565b9093016020019392505050565b6000815460018116600081146109285760018114610964576109a0565b60028204607f1685527fffffffffffffffffffffffffffffffffffffffffffffffffffffffffffffff00821660208601526040850192506109a0565b6002820480865260208601955061097a85610cc0565b60005b828110156109995781548882015260019091019060200161097d565b8701945050505b505092915050565b601581527f54414b45525f4e4f545f57484954454c49535445440000000000000000000000602082015260400190565b601381527f4f4e4c595f434f4e54524143545f4f574e455200000000000000000000000000602082015260400190565b601581527f4d414b45525f4e4f545f57484954454c49535445440000000000000000000000602082015260400190565b600e81527f494e56414c49445f53454e444552000000000000000000000000000000000000602082015260400190565b8051600090610180840190610a7d85826108be565b506020830151610a9060208601826108be565b506040830151610aa360408601826108be565b506060830151610ab660608601826108be565b506080830151610ac96080860182610b6b565b5060a0830151610adc60a0860182610b6b565b5060c0830151610aef60c0860182610b6b565b5060e0830151610b0260e0860182610b6b565b50610100830151610b17610100860182610b6b565b50610120830151610b2c610120860182610b6b565b50610140830151848203610140860152610b4682826108d6565b915050610160830151848203610160860152610b6282826108d6565b95945050505050565b6108c781610cee565b60208101610b8282846108be565b92915050565b60208101610b8282846108cd565b60208082528101610b82816109a8565b60208082528101610b82816109d8565b60208082528101610b8281610a08565b60208082528101610b8281610a38565b60608082528101610be78186610a68565b9050610bf66020830185610b6b565b8181036040830152610b6281846108d6565b60808101610c168287610b6b565b610c2360208301866108be565b8181036040830152610c3581856108d6565b90508181036060830152610c49818461090b565b9695505050505050565b60405181810167ffffffffffffffff81118282101715610c7257600080fd5b604052919050565b600067ffffffffffffffff821115610c9157600080fd5b506020601f919091017fffffffffffffffffffffffffffffffffffffffffffffffffffffffffffffffe0160190565b60009081526020902090565b5190565b73ffffffffffffffffffffffffffffffffffffffff1690565b151590565b90565b82818337506000910152565b60005b83811015610d18578181015183820152602001610d00565b83811115610d27576000848401525b50505050565b601f017fffffffffffffffffffffffffffffffffffffffffffffffffffffffffffffffe016905600a265627a7a72305820432f44199730f0d14e441adde2fff9d964ab11f1e3c797bb84816b1814e21d3d6c6578706572696d656e74616cf50037",
				"opcodes": "PUSH1 0x80 PUSH1 0x40 MSTORE CALLVALUE DUP1 ISZERO PUSH3 0x11 JUMPI PUSH1 0x0 DUP1 REVERT JUMPDEST POP PUSH1 0x40 MLOAD PUSH1 0x20 DUP1 PUSH3 0xF59 DUP4 CODECOPY DUP2 ADD DUP1 PUSH1 0x40 MSTORE PUSH3 0x33 SWAP2 SWAP1 DUP2 ADD SWAP1 PUSH3 0x185 JUMP JUMPDEST PUSH1 0x0 DUP1 SLOAD CALLER PUSH1 0x1 PUSH1 0xA0 PUSH1 0x2 EXP SUB NOT SWAP2 DUP3 AND OR SWAP1 SWAP2 SSTORE PUSH1 0x2 DUP1 SLOAD SWAP1 SWAP2 AND PUSH1 0x1 PUSH1 0xA0 PUSH1 0x2 EXP SUB DUP4 AND OR SWAP1 SSTORE PUSH1 0x40 DUP1 MLOAD ADDRESS PUSH13 0x1000000000000000000000000 MUL PUSH1 0x20 DUP1 DUP4 ADD SWAP2 SWAP1 SWAP2 MSTORE PUSH32 0x500000000000000000000000000000000000000000000000000000000000000 PUSH1 0x34 DUP4 ADD MSTORE DUP3 MLOAD DUP1 DUP4 SUB PUSH1 0x15 ADD DUP2 MSTORE PUSH1 0x35 SWAP1 SWAP3 ADD SWAP1 SWAP3 MSTORE DUP1 MLOAD PUSH3 0xC3 SWAP3 PUSH1 0x3 SWAP3 ADD SWAP1 PUSH3 0xCB JUMP JUMPDEST POP POP PUSH3 0x1BA JUMP JUMPDEST DUP3 DUP1 SLOAD PUSH1 0x1 DUP2 PUSH1 0x1 AND ISZERO PUSH2 0x100 MUL SUB AND PUSH1 0x2 SWAP1 DIV SWAP1 PUSH1 0x0 MSTORE PUSH1 0x20 PUSH1 0x0 KECCAK256 SWAP1 PUSH1 0x1F ADD PUSH1 0x20 SWAP1 DIV DUP2 ADD SWAP3 DUP3 PUSH1 0x1F LT PUSH3 0x10E JUMPI DUP1 MLOAD PUSH1 0xFF NOT AND DUP4 DUP1 ADD OR DUP6 SSTORE PUSH3 0x13E JUMP JUMPDEST DUP3 DUP1 ADD PUSH1 0x1 ADD DUP6 SSTORE DUP3 ISZERO PUSH3 0x13E JUMPI SWAP2 DUP3 ADD JUMPDEST DUP3 DUP2 GT ISZERO PUSH3 0x13E JUMPI DUP3 MLOAD DUP3 SSTORE SWAP2 PUSH1 0x20 ADD SWAP2 SWAP1 PUSH1 0x1 ADD SWAP1 PUSH3 0x121 JUMP JUMPDEST POP PUSH3 0x14C SWAP3 SWAP2 POP PUSH3 0x150 JUMP JUMPDEST POP SWAP1 JUMP JUMPDEST PUSH3 0x16D SWAP2 SWAP1 JUMPDEST DUP1 DUP3 GT ISZERO PUSH3 0x14C JUMPI PUSH1 0x0 DUP2 SSTORE PUSH1 0x1 ADD PUSH3 0x157 JUMP JUMPDEST SWAP1 JUMP JUMPDEST PUSH1 0x0 PUSH3 0x17E DUP3 MLOAD PUSH3 0x1AE JUMP JUMPDEST SWAP4 SWAP3 POP POP POP JUMP JUMPDEST PUSH1 0x0 PUSH1 0x20 DUP3 DUP5 SUB SLT ISZERO PUSH3 0x198 JUMPI PUSH1 0x0 DUP1 REVERT JUMPDEST PUSH1 0x0 PUSH3 0x1A6 DUP5 DUP5 PUSH3 0x170 JUMP JUMPDEST SWAP5 SWAP4 POP POP POP POP JUMP JUMPDEST PUSH1 0x1 PUSH1 0xA0 PUSH1 0x2 EXP SUB AND SWAP1 JUMP JUMPDEST PUSH2 0xD8F DUP1 PUSH3 0x1CA PUSH1 0x0 CODECOPY PUSH1 0x0 RETURN STOP PUSH1 0x80 PUSH1 0x40 MSTORE PUSH1 0x4 CALLDATASIZE LT PUSH2 0x77 JUMPI PUSH4 0xFFFFFFFF PUSH29 0x100000000000000000000000000000000000000000000000000000000 PUSH1 0x0 CALLDATALOAD DIV AND PUSH4 0x141DA876 DUP2 EQ PUSH2 0x7C JUMPI DUP1 PUSH4 0x3AF32ABF EQ PUSH2 0x9E JUMPI DUP1 PUSH4 0x8DA5CB5B EQ PUSH2 0xD4 JUMPI DUP1 PUSH4 0x93634702 EQ PUSH2 0xF6 JUMPI DUP1 PUSH4 0xC07732A3 EQ PUSH2 0x116 JUMPI DUP1 PUSH4 0xF2FDE38B EQ PUSH2 0x136 JUMPI JUMPDEST PUSH1 0x0 DUP1 REVERT JUMPDEST CALLVALUE DUP1 ISZERO PUSH2 0x88 JUMPI PUSH1 0x0 DUP1 REVERT JUMPDEST POP PUSH2 0x9C PUSH2 0x97 CALLDATASIZE PUSH1 0x4 PUSH2 0x82E JUMP JUMPDEST PUSH2 0x156 JUMP JUMPDEST STOP JUMPDEST CALLVALUE DUP1 ISZERO PUSH2 0xAA JUMPI PUSH1 0x0 DUP1 REVERT JUMPDEST POP PUSH2 0xBE PUSH2 0xB9 CALLDATASIZE PUSH1 0x4 PUSH2 0x766 JUMP JUMPDEST PUSH2 0x3AB JUMP JUMPDEST PUSH1 0x40 MLOAD PUSH2 0xCB SWAP2 SWAP1 PUSH2 0xB88 JUMP JUMPDEST PUSH1 0x40 MLOAD DUP1 SWAP2 SUB SWAP1 RETURN JUMPDEST CALLVALUE DUP1 ISZERO PUSH2 0xE0 JUMPI PUSH1 0x0 DUP1 REVERT JUMPDEST POP PUSH2 0xE9 PUSH2 0x3C0 JUMP JUMPDEST PUSH1 0x40 MLOAD PUSH2 0xCB SWAP2 SWAP1 PUSH2 0xB74 JUMP JUMPDEST CALLVALUE DUP1 ISZERO PUSH2 0x102 JUMPI PUSH1 0x0 DUP1 REVERT JUMPDEST POP PUSH2 0xBE PUSH2 0x111 CALLDATASIZE PUSH1 0x4 PUSH2 0x7C6 JUMP JUMPDEST PUSH2 0x3DC JUMP JUMPDEST CALLVALUE DUP1 ISZERO PUSH2 0x122 JUMPI PUSH1 0x0 DUP1 REVERT JUMPDEST POP PUSH2 0x9C PUSH2 0x131 CALLDATASIZE PUSH1 0x4 PUSH2 0x78C JUMP JUMPDEST PUSH2 0x3FD JUMP JUMPDEST CALLVALUE DUP1 ISZERO PUSH2 0x142 JUMPI PUSH1 0x0 DUP1 REVERT JUMPDEST POP PUSH2 0x9C PUSH2 0x151 CALLDATASIZE PUSH1 0x4 PUSH2 0x766 JUMP JUMPDEST PUSH2 0x4A4 JUMP JUMPDEST CALLER PUSH1 0x60 ORIGIN DUP3 EQ PUSH2 0x19B JUMPI PUSH1 0x40 MLOAD PUSH32 0x8C379A000000000000000000000000000000000000000000000000000000000 DUP2 MSTORE PUSH1 0x4 ADD PUSH2 0x192 SWAP1 PUSH2 0xBC6 JUMP JUMPDEST PUSH1 0x40 MLOAD DUP1 SWAP2 SUB SWAP1 REVERT JUMPDEST DUP6 MLOAD PUSH20 0xFFFFFFFFFFFFFFFFFFFFFFFFFFFFFFFFFFFFFFFF AND PUSH1 0x0 SWAP1 DUP2 MSTORE PUSH1 0x1 PUSH1 0x20 MSTORE PUSH1 0x40 SWAP1 KECCAK256 SLOAD PUSH1 0xFF AND ISZERO ISZERO PUSH2 0x1FD JUMPI PUSH1 0x40 MLOAD PUSH32 0x8C379A000000000000000000000000000000000000000000000000000000000 DUP2 MSTORE PUSH1 0x4 ADD PUSH2 0x192 SWAP1 PUSH2 0xBB6 JUMP JUMPDEST PUSH20 0xFFFFFFFFFFFFFFFFFFFFFFFFFFFFFFFFFFFFFFFF DUP3 AND PUSH1 0x0 SWAP1 DUP2 MSTORE PUSH1 0x1 PUSH1 0x20 MSTORE PUSH1 0x40 SWAP1 KECCAK256 SLOAD PUSH1 0xFF AND ISZERO ISZERO PUSH2 0x25E JUMPI PUSH1 0x40 MLOAD PUSH32 0x8C379A000000000000000000000000000000000000000000000000000000000 DUP2 MSTORE PUSH1 0x4 ADD PUSH2 0x192 SWAP1 PUSH2 0xB96 JUMP JUMPDEST PUSH1 0x40 MLOAD PUSH32 0xB4BE83D500000000000000000000000000000000000000000000000000000000 SWAP1 PUSH2 0x295 SWAP1 DUP9 SWAP1 DUP9 SWAP1 DUP8 SWAP1 PUSH1 0x24 ADD PUSH2 0xBD6 JUMP JUMPDEST PUSH1 0x40 DUP1 MLOAD PUSH32 0xFFFFFFFFFFFFFFFFFFFFFFFFFFFFFFFFFFFFFFFFFFFFFFFFFFFFFFFFFFFFFFE0 DUP2 DUP5 SUB ADD DUP2 MSTORE SWAP2 DUP2 MSTORE PUSH1 0x20 DUP3 ADD DUP1 MLOAD PUSH28 0xFFFFFFFFFFFFFFFFFFFFFFFFFFFFFFFFFFFFFFFFFFFFFFFFFFFFFFFF AND PUSH32 0xFFFFFFFF00000000000000000000000000000000000000000000000000000000 SWAP1 SWAP5 AND SWAP4 SWAP1 SWAP4 OR SWAP1 SWAP3 MSTORE PUSH1 0x2 SLOAD SWAP2 MLOAD PUSH32 0xBFC8BFCE00000000000000000000000000000000000000000000000000000000 DUP2 MSTORE SWAP1 SWAP3 POP PUSH20 0xFFFFFFFFFFFFFFFFFFFFFFFFFFFFFFFFFFFFFFFF SWAP1 SWAP2 AND SWAP1 PUSH4 0xBFC8BFCE SWAP1 PUSH2 0x371 SWAP1 DUP8 SWAP1 DUP7 SWAP1 DUP7 SWAP1 PUSH1 0x3 SWAP1 PUSH1 0x4 ADD PUSH2 0xC08 JUMP JUMPDEST PUSH1 0x0 PUSH1 0x40 MLOAD DUP1 DUP4 SUB DUP2 PUSH1 0x0 DUP8 DUP1 EXTCODESIZE ISZERO DUP1 ISZERO PUSH2 0x38B JUMPI PUSH1 0x0 DUP1 REVERT JUMPDEST POP GAS CALL ISZERO DUP1 ISZERO PUSH2 0x39F JUMPI RETURNDATASIZE PUSH1 0x0 DUP1 RETURNDATACOPY RETURNDATASIZE PUSH1 0x0 REVERT JUMPDEST POP POP POP POP POP POP POP POP POP POP JUMP JUMPDEST PUSH1 0x1 PUSH1 0x20 MSTORE PUSH1 0x0 SWAP1 DUP2 MSTORE PUSH1 0x40 SWAP1 KECCAK256 SLOAD PUSH1 0xFF AND DUP2 JUMP JUMPDEST PUSH1 0x0 SLOAD PUSH20 0xFFFFFFFFFFFFFFFFFFFFFFFFFFFFFFFFFFFFFFFF AND DUP2 JUMP JUMPDEST PUSH20 0xFFFFFFFFFFFFFFFFFFFFFFFFFFFFFFFFFFFFFFFF DUP4 AND ORIGIN EQ SWAP5 SWAP4 POP POP POP POP JUMP JUMPDEST PUSH1 0x0 SLOAD PUSH20 0xFFFFFFFFFFFFFFFFFFFFFFFFFFFFFFFFFFFFFFFF AND CALLER EQ PUSH2 0x44E JUMPI PUSH1 0x40 MLOAD PUSH32 0x8C379A000000000000000000000000000000000000000000000000000000000 DUP2 MSTORE PUSH1 0x4 ADD PUSH2 0x192 SWAP1 PUSH2 0xBA6 JUMP JUMPDEST PUSH20 0xFFFFFFFFFFFFFFFFFFFFFFFFFFFFFFFFFFFFFFFF SWAP2 SWAP1 SWAP2 AND PUSH1 0x0 SWAP1 DUP2 MSTORE PUSH1 0x1 PUSH1 0x20 MSTORE PUSH1 0x40 SWAP1 KECCAK256 DUP1 SLOAD PUSH32 0xFFFFFFFFFFFFFFFFFFFFFFFFFFFFFFFFFFFFFFFFFFFFFFFFFFFFFFFFFFFFFF00 AND SWAP2 ISZERO ISZERO SWAP2 SWAP1 SWAP2 OR SWAP1 SSTORE JUMP JUMPDEST PUSH1 0x0 SLOAD PUSH20 0xFFFFFFFFFFFFFFFFFFFFFFFFFFFFFFFFFFFFFFFF AND CALLER EQ PUSH2 0x4F5 JUMPI PUSH1 0x40 MLOAD PUSH32 0x8C379A000000000000000000000000000000000000000000000000000000000 DUP2 MSTORE PUSH1 0x4 ADD PUSH2 0x192 SWAP1 PUSH2 0xBA6 JUMP JUMPDEST PUSH20 0xFFFFFFFFFFFFFFFFFFFFFFFFFFFFFFFFFFFFFFFF DUP2 AND ISZERO PUSH2 0x552 JUMPI PUSH1 0x0 DUP1 SLOAD PUSH32 0xFFFFFFFFFFFFFFFFFFFFFFFF0000000000000000000000000000000000000000 AND PUSH20 0xFFFFFFFFFFFFFFFFFFFFFFFFFFFFFFFFFFFFFFFF DUP4 AND OR SWAP1 SSTORE JUMPDEST POP JUMP JUMPDEST PUSH1 0x0 PUSH2 0x561 DUP3 CALLDATALOAD PUSH2 0xCD0 JUMP JUMPDEST SWAP4 SWAP3 POP POP POP JUMP JUMPDEST PUSH1 0x0 PUSH2 0x561 DUP3 CALLDATALOAD PUSH2 0xCE9 JUMP JUMPDEST PUSH1 0x0 PUSH2 0x561 DUP3 CALLDATALOAD PUSH2 0xCEE JUMP JUMPDEST PUSH1 0x0 DUP1 PUSH1 0x1F DUP4 ADD DUP5 SGT PUSH2 0x592 JUMPI PUSH1 0x0 DUP1 REVERT JUMPDEST POP DUP2 CALLDATALOAD PUSH8 0xFFFFFFFFFFFFFFFF DUP2 GT ISZERO PUSH2 0x5AA JUMPI PUSH1 0x0 DUP1 REVERT JUMPDEST PUSH1 0x20 DUP4 ADD SWAP2 POP DUP4 PUSH1 0x1 DUP3 MUL DUP4 ADD GT ISZERO PUSH2 0x5C2 JUMPI PUSH1 0x0 DUP1 REVERT JUMPDEST SWAP3 POP SWAP3 SWAP1 POP JUMP JUMPDEST PUSH1 0x0 PUSH1 0x1F DUP3 ADD DUP4 SGT PUSH2 0x5DA JUMPI PUSH1 0x0 DUP1 REVERT JUMPDEST DUP2 CALLDATALOAD PUSH2 0x5ED PUSH2 0x5E8 DUP3 PUSH2 0xC7A JUMP JUMPDEST PUSH2 0xC53 JUMP JUMPDEST SWAP2 POP DUP1 DUP3 MSTORE PUSH1 0x20 DUP4 ADD PUSH1 0x20 DUP4 ADD DUP6 DUP4 DUP4 ADD GT ISZERO PUSH2 0x609 JUMPI PUSH1 0x0 DUP1 REVERT JUMPDEST PUSH2 0x614 DUP4 DUP3 DUP5 PUSH2 0xCF1 JUMP JUMPDEST POP POP POP SWAP3 SWAP2 POP POP JUMP JUMPDEST PUSH1 0x0 PUSH2 0x180 DUP3 DUP5 SUB SLT ISZERO PUSH2 0x630 JUMPI PUSH1 0x0 DUP1 REVERT JUMPDEST PUSH2 0x63B PUSH2 0x180 PUSH2 0xC53 JUMP JUMPDEST SWAP1 POP PUSH1 0x0 PUSH2 0x649 DUP5 DUP5 PUSH2 0x555 JUMP JUMPDEST DUP3 MSTORE POP PUSH1 0x20 PUSH2 0x65A DUP5 DUP5 DUP4 ADD PUSH2 0x555 JUMP JUMPDEST PUSH1 0x20 DUP4 ADD MSTORE POP PUSH1 0x40 PUSH2 0x66E DUP5 DUP3 DUP6 ADD PUSH2 0x555 JUMP JUMPDEST PUSH1 0x40 DUP4 ADD MSTORE POP PUSH1 0x60 PUSH2 0x682 DUP5 DUP3 DUP6 ADD PUSH2 0x555 JUMP JUMPDEST PUSH1 0x60 DUP4 ADD MSTORE POP PUSH1 0x80 PUSH2 0x696 DUP5 DUP3 DUP6 ADD PUSH2 0x574 JUMP JUMPDEST PUSH1 0x80 DUP4 ADD MSTORE POP PUSH1 0xA0 PUSH2 0x6AA DUP5 DUP3 DUP6 ADD PUSH2 0x574 JUMP JUMPDEST PUSH1 0xA0 DUP4 ADD MSTORE POP PUSH1 0xC0 PUSH2 0x6BE DUP5 DUP3 DUP6 ADD PUSH2 0x574 JUMP JUMPDEST PUSH1 0xC0 DUP4 ADD MSTORE POP PUSH1 0xE0 PUSH2 0x6D2 DUP5 DUP3 DUP6 ADD PUSH2 0x574 JUMP JUMPDEST PUSH1 0xE0 DUP4 ADD MSTORE POP PUSH2 0x100 PUSH2 0x6E7 DUP5 DUP3 DUP6 ADD PUSH2 0x574 JUMP JUMPDEST PUSH2 0x100 DUP4 ADD MSTORE POP PUSH2 0x120 PUSH2 0x6FD DUP5 DUP3 DUP6 ADD PUSH2 0x574 JUMP JUMPDEST PUSH2 0x120 DUP4 ADD MSTORE POP PUSH2 0x140 DUP3 ADD CALLDATALOAD PUSH8 0xFFFFFFFFFFFFFFFF DUP2 GT ISZERO PUSH2 0x71F JUMPI PUSH1 0x0 DUP1 REVERT JUMPDEST PUSH2 0x72B DUP5 DUP3 DUP6 ADD PUSH2 0x5C9 JUMP JUMPDEST PUSH2 0x140 DUP4 ADD MSTORE POP PUSH2 0x160 DUP3 ADD CALLDATALOAD PUSH8 0xFFFFFFFFFFFFFFFF DUP2 GT ISZERO PUSH2 0x74D JUMPI PUSH1 0x0 DUP1 REVERT JUMPDEST PUSH2 0x759 DUP5 DUP3 DUP6 ADD PUSH2 0x5C9 JUMP JUMPDEST PUSH2 0x160 DUP4 ADD MSTORE POP SWAP3 SWAP2 POP POP JUMP JUMPDEST PUSH1 0x0 PUSH1 0x20 DUP3 DUP5 SUB SLT ISZERO PUSH2 0x778 JUMPI PUSH1 0x0 DUP1 REVERT JUMPDEST PUSH1 0x0 PUSH2 0x784 DUP5 DUP5 PUSH2 0x555 JUMP JUMPDEST SWAP5 SWAP4 POP POP POP POP JUMP JUMPDEST PUSH1 0x0 DUP1 PUSH1 0x40 DUP4 DUP6 SUB SLT ISZERO PUSH2 0x79F JUMPI PUSH1 0x0 DUP1 REVERT JUMPDEST PUSH1 0x0 PUSH2 0x7AB DUP6 DUP6 PUSH2 0x555 JUMP JUMPDEST SWAP3 POP POP PUSH1 0x20 PUSH2 0x7BC DUP6 DUP3 DUP7 ADD PUSH2 0x568 JUMP JUMPDEST SWAP2 POP POP SWAP3 POP SWAP3 SWAP1 POP JUMP JUMPDEST PUSH1 0x0 DUP1 PUSH1 0x0 DUP1 PUSH1 0x60 DUP6 DUP8 SUB SLT ISZERO PUSH2 0x7DC JUMPI PUSH1 0x0 DUP1 REVERT JUMPDEST PUSH1 0x0 PUSH2 0x7E8 DUP8 DUP8 PUSH2 0x574 JUMP JUMPDEST SWAP5 POP POP PUSH1 0x20 PUSH2 0x7F9 DUP8 DUP3 DUP9 ADD PUSH2 0x555 JUMP JUMPDEST SWAP4 POP POP PUSH1 0x40 DUP6 ADD CALLDATALOAD PUSH8 0xFFFFFFFFFFFFFFFF DUP2 GT ISZERO PUSH2 0x816 JUMPI PUSH1 0x0 DUP1 REVERT JUMPDEST PUSH2 0x822 DUP8 DUP3 DUP9 ADD PUSH2 0x580 JUMP JUMPDEST SWAP6 SWAP9 SWAP5 SWAP8 POP SWAP6 POP POP POP POP JUMP JUMPDEST PUSH1 0x0 DUP1 PUSH1 0x0 DUP1 PUSH1 0x80 DUP6 DUP8 SUB SLT ISZERO PUSH2 0x844 JUMPI PUSH1 0x0 DUP1 REVERT JUMPDEST DUP5 CALLDATALOAD PUSH8 0xFFFFFFFFFFFFFFFF DUP2 GT ISZERO PUSH2 0x85B JUMPI PUSH1 0x0 DUP1 REVERT JUMPDEST PUSH2 0x867 DUP8 DUP3 DUP9 ADD PUSH2 0x61D JUMP JUMPDEST SWAP5 POP POP PUSH1 0x20 PUSH2 0x878 DUP8 DUP3 DUP9 ADD PUSH2 0x574 JUMP JUMPDEST SWAP4 POP POP PUSH1 0x40 PUSH2 0x889 DUP8 DUP3 DUP9 ADD PUSH2 0x574 JUMP JUMPDEST SWAP3 POP POP PUSH1 0x60 DUP6 ADD CALLDATALOAD PUSH8 0xFFFFFFFFFFFFFFFF DUP2 GT ISZERO PUSH2 0x8A6 JUMPI PUSH1 0x0 DUP1 REVERT JUMPDEST PUSH2 0x8B2 DUP8 DUP3 DUP9 ADD PUSH2 0x5C9 JUMP JUMPDEST SWAP2 POP POP SWAP3 SWAP6 SWAP2 SWAP5 POP SWAP3 POP JUMP JUMPDEST PUSH2 0x8C7 DUP2 PUSH2 0xCD0 JUMP JUMPDEST DUP3 MSTORE POP POP JUMP JUMPDEST PUSH2 0x8C7 DUP2 PUSH2 0xCE9 JUMP JUMPDEST PUSH1 0x0 PUSH2 0x8E1 DUP3 PUSH2 0xCCC JUMP JUMPDEST DUP1 DUP5 MSTORE PUSH2 0x8F5 DUP2 PUSH1 0x20 DUP7 ADD PUSH1 0x20 DUP7 ADD PUSH2 0xCFD JUMP JUMPDEST PUSH2 0x8FE DUP2 PUSH2 0xD2D JUMP JUMPDEST SWAP1 SWAP4 ADD PUSH1 0x20 ADD SWAP4 SWAP3 POP POP POP JUMP JUMPDEST PUSH1 0x0 DUP2 SLOAD PUSH1 0x1 DUP2 AND PUSH1 0x0 DUP2 EQ PUSH2 0x928 JUMPI PUSH1 0x1 DUP2 EQ PUSH2 0x964 JUMPI PUSH2 0x9A0 JUMP JUMPDEST PUSH1 0x2 DUP3 DIV PUSH1 0x7F AND DUP6 MSTORE PUSH32 0xFFFFFFFFFFFFFFFFFFFFFFFFFFFFFFFFFFFFFFFFFFFFFFFFFFFFFFFFFFFFFF00 DUP3 AND PUSH1 0x20 DUP7 ADD MSTORE PUSH1 0x40 DUP6 ADD SWAP3 POP PUSH2 0x9A0 JUMP JUMPDEST PUSH1 0x2 DUP3 DIV DUP1 DUP7 MSTORE PUSH1 0x20 DUP7 ADD SWAP6 POP PUSH2 0x97A DUP6 PUSH2 0xCC0 JUMP JUMPDEST PUSH1 0x0 JUMPDEST DUP3 DUP2 LT ISZERO PUSH2 0x999 JUMPI DUP2 SLOAD DUP9 DUP3 ADD MSTORE PUSH1 0x1 SWAP1 SWAP2 ADD SWAP1 PUSH1 0x20 ADD PUSH2 0x97D JUMP JUMPDEST DUP8 ADD SWAP5 POP POP POP JUMPDEST POP POP SWAP3 SWAP2 POP POP JUMP JUMPDEST PUSH1 0x15 DUP2 MSTORE PUSH32 0x54414B45525F4E4F545F57484954454C49535445440000000000000000000000 PUSH1 0x20 DUP3 ADD MSTORE PUSH1 0x40 ADD SWAP1 JUMP JUMPDEST PUSH1 0x13 DUP2 MSTORE PUSH32 0x4F4E4C595F434F4E54524143545F4F574E455200000000000000000000000000 PUSH1 0x20 DUP3 ADD MSTORE PUSH1 0x40 ADD SWAP1 JUMP JUMPDEST PUSH1 0x15 DUP2 MSTORE PUSH32 0x4D414B45525F4E4F545F57484954454C49535445440000000000000000000000 PUSH1 0x20 DUP3 ADD MSTORE PUSH1 0x40 ADD SWAP1 JUMP JUMPDEST PUSH1 0xE DUP2 MSTORE PUSH32 0x494E56414C49445F53454E444552000000000000000000000000000000000000 PUSH1 0x20 DUP3 ADD MSTORE PUSH1 0x40 ADD SWAP1 JUMP JUMPDEST DUP1 MLOAD PUSH1 0x0 SWAP1 PUSH2 0x180 DUP5 ADD SWAP1 PUSH2 0xA7D DUP6 DUP3 PUSH2 0x8BE JUMP JUMPDEST POP PUSH1 0x20 DUP4 ADD MLOAD PUSH2 0xA90 PUSH1 0x20 DUP7 ADD DUP3 PUSH2 0x8BE JUMP JUMPDEST POP PUSH1 0x40 DUP4 ADD MLOAD PUSH2 0xAA3 PUSH1 0x40 DUP7 ADD DUP3 PUSH2 0x8BE JUMP JUMPDEST POP PUSH1 0x60 DUP4 ADD MLOAD PUSH2 0xAB6 PUSH1 0x60 DUP7 ADD DUP3 PUSH2 0x8BE JUMP JUMPDEST POP PUSH1 0x80 DUP4 ADD MLOAD PUSH2 0xAC9 PUSH1 0x80 DUP7 ADD DUP3 PUSH2 0xB6B JUMP JUMPDEST POP PUSH1 0xA0 DUP4 ADD MLOAD PUSH2 0xADC PUSH1 0xA0 DUP7 ADD DUP3 PUSH2 0xB6B JUMP JUMPDEST POP PUSH1 0xC0 DUP4 ADD MLOAD PUSH2 0xAEF PUSH1 0xC0 DUP7 ADD DUP3 PUSH2 0xB6B JUMP JUMPDEST POP PUSH1 0xE0 DUP4 ADD MLOAD PUSH2 0xB02 PUSH1 0xE0 DUP7 ADD DUP3 PUSH2 0xB6B JUMP JUMPDEST POP PUSH2 0x100 DUP4 ADD MLOAD PUSH2 0xB17 PUSH2 0x100 DUP7 ADD DUP3 PUSH2 0xB6B JUMP JUMPDEST POP PUSH2 0x120 DUP4 ADD MLOAD PUSH2 0xB2C PUSH2 0x120 DUP7 ADD DUP3 PUSH2 0xB6B JUMP JUMPDEST POP PUSH2 0x140 DUP4 ADD MLOAD DUP5 DUP3 SUB PUSH2 0x140 DUP7 ADD MSTORE PUSH2 0xB46 DUP3 DUP3 PUSH2 0x8D6 JUMP JUMPDEST SWAP2 POP POP PUSH2 0x160 DUP4 ADD MLOAD DUP5 DUP3 SUB PUSH2 0x160 DUP7 ADD MSTORE PUSH2 0xB62 DUP3 DUP3 PUSH2 0x8D6 JUMP JUMPDEST SWAP6 SWAP5 POP POP POP POP POP JUMP JUMPDEST PUSH2 0x8C7 DUP2 PUSH2 0xCEE JUMP JUMPDEST PUSH1 0x20 DUP2 ADD PUSH2 0xB82 DUP3 DUP5 PUSH2 0x8BE JUMP JUMPDEST SWAP3 SWAP2 POP POP JUMP JUMPDEST PUSH1 0x20 DUP2 ADD PUSH2 0xB82 DUP3 DUP5 PUSH2 0x8CD JUMP JUMPDEST PUSH1 0x20 DUP1 DUP3 MSTORE DUP2 ADD PUSH2 0xB82 DUP2 PUSH2 0x9A8 JUMP JUMPDEST PUSH1 0x20 DUP1 DUP3 MSTORE DUP2 ADD PUSH2 0xB82 DUP2 PUSH2 0x9D8 JUMP JUMPDEST PUSH1 0x20 DUP1 DUP3 MSTORE DUP2 ADD PUSH2 0xB82 DUP2 PUSH2 0xA08 JUMP JUMPDEST PUSH1 0x20 DUP1 DUP3 MSTORE DUP2 ADD PUSH2 0xB82 DUP2 PUSH2 0xA38 JUMP JUMPDEST PUSH1 0x60 DUP1 DUP3 MSTORE DUP2 ADD PUSH2 0xBE7 DUP2 DUP7 PUSH2 0xA68 JUMP JUMPDEST SWAP1 POP PUSH2 0xBF6 PUSH1 0x20 DUP4 ADD DUP6 PUSH2 0xB6B JUMP JUMPDEST DUP2 DUP2 SUB PUSH1 0x40 DUP4 ADD MSTORE PUSH2 0xB62 DUP2 DUP5 PUSH2 0x8D6 JUMP JUMPDEST PUSH1 0x80 DUP2 ADD PUSH2 0xC16 DUP3 DUP8 PUSH2 0xB6B JUMP JUMPDEST PUSH2 0xC23 PUSH1 0x20 DUP4 ADD DUP7 PUSH2 0x8BE JUMP JUMPDEST DUP2 DUP2 SUB PUSH1 0x40 DUP4 ADD MSTORE PUSH2 0xC35 DUP2 DUP6 PUSH2 0x8D6 JUMP JUMPDEST SWAP1 POP DUP2 DUP2 SUB PUSH1 0x60 DUP4 ADD MSTORE PUSH2 0xC49 DUP2 DUP5 PUSH2 0x90B JUMP JUMPDEST SWAP7 SWAP6 POP POP POP POP POP POP JUMP JUMPDEST PUSH1 0x40 MLOAD DUP2 DUP2 ADD PUSH8 0xFFFFFFFFFFFFFFFF DUP2 GT DUP3 DUP3 LT OR ISZERO PUSH2 0xC72 JUMPI PUSH1 0x0 DUP1 REVERT JUMPDEST PUSH1 0x40 MSTORE SWAP2 SWAP1 POP JUMP JUMPDEST PUSH1 0x0 PUSH8 0xFFFFFFFFFFFFFFFF DUP3 GT ISZERO PUSH2 0xC91 JUMPI PUSH1 0x0 DUP1 REVERT JUMPDEST POP PUSH1 0x20 PUSH1 0x1F SWAP2 SWAP1 SWAP2 ADD PUSH32 0xFFFFFFFFFFFFFFFFFFFFFFFFFFFFFFFFFFFFFFFFFFFFFFFFFFFFFFFFFFFFFFE0 AND ADD SWAP1 JUMP JUMPDEST PUSH1 0x0 SWAP1 DUP2 MSTORE PUSH1 0x20 SWAP1 KECCAK256 SWAP1 JUMP JUMPDEST MLOAD SWAP1 JUMP JUMPDEST PUSH20 0xFFFFFFFFFFFFFFFFFFFFFFFFFFFFFFFFFFFFFFFF AND SWAP1 JUMP JUMPDEST ISZERO ISZERO SWAP1 JUMP JUMPDEST SWAP1 JUMP JUMPDEST DUP3 DUP2 DUP4 CALLDATACOPY POP PUSH1 0x0 SWAP2 ADD MSTORE JUMP JUMPDEST PUSH1 0x0 JUMPDEST DUP4 DUP2 LT ISZERO PUSH2 0xD18 JUMPI DUP2 DUP2 ADD MLOAD DUP4 DUP3 ADD MSTORE PUSH1 0x20 ADD PUSH2 0xD00 JUMP JUMPDEST DUP4 DUP2 GT ISZERO PUSH2 0xD27 JUMPI PUSH1 0x0 DUP5 DUP5 ADD MSTORE JUMPDEST POP POP POP POP JUMP JUMPDEST PUSH1 0x1F ADD PUSH32 0xFFFFFFFFFFFFFFFFFFFFFFFFFFFFFFFFFFFFFFFFFFFFFFFFFFFFFFFFFFFFFFE0 AND SWAP1 JUMP STOP LOG2 PUSH6 0x627A7A723058 KECCAK256 NUMBER 0x2f DIFFICULTY NOT SWAP8 ADDRESS CREATE 0xd1 0x4e DIFFICULTY BYTE 0xdd 0xe2 SELFDESTRUCT 0xf9 0xd9 PUSH5 0xAB11F1E3C7 SWAP8 0xbb DUP5 DUP2 PUSH12 0x1814E21D3D6C657870657269 PUSH14 0x656E74616CF50037000000000000 "
			}
		}
	},
	"sourceTreeHashHex": "0xd24784ad0067227ddd0326b14d378436c1c68d56b5fdbed6a3c543e455560d74",
	"compiler": {
		"name": "solc",
		"version": "soljson-v0.4.24+commit.e67f0147.js",
		"settings": {
			"optimizer": {
				"enabled": true,
				"runs": 1000000
			},
			"outputSelection": {
				"*": {
					"*": [
						"abi",
						"evm.bytecode.object",
						"evm.bytecode.sourceMap",
						"evm.deployedBytecode.object",
						"evm.deployedBytecode.sourceMap"
					]
				}
			}
		}
	}
}