{
	"schemaVersion": "2.0.0",
	"contractName": "Coordinator",
	"compilerOutput": {
		"abi": [
			{
				"constant": true,
				"inputs": [
					{
						"name": "hash",
						"type": "bytes32"
					},
					{
						"name": "signature",
						"type": "bytes"
					}
				],
				"name": "getSignerAddress",
				"outputs": [
					{
						"name": "signerAddress",
						"type": "address"
					}
				],
				"payable": false,
				"stateMutability": "pure",
				"type": "function"
			},
			{
				"constant": false,
				"inputs": [
					{
						"components": [
							{
								"name": "salt",
								"type": "uint256"
							},
							{
								"name": "signerAddress",
								"type": "address"
							},
							{
								"name": "data",
								"type": "bytes"
							}
						],
						"name": "transaction",
						"type": "tuple"
					},
					{
						"name": "txOrigin",
						"type": "address"
					},
					{
						"name": "transactionSignature",
						"type": "bytes"
					},
					{
						"name": "approvalExpirationTimeSeconds",
						"type": "uint256[]"
					},
					{
						"name": "approvalSignatures",
						"type": "bytes[]"
					}
				],
				"name": "executeTransaction",
				"outputs": [],
				"payable": false,
				"stateMutability": "nonpayable",
				"type": "function"
			},
			{
				"constant": true,
				"inputs": [
					{
						"components": [
							{
								"name": "salt",
								"type": "uint256"
							},
							{
								"name": "signerAddress",
								"type": "address"
							},
							{
								"name": "data",
								"type": "bytes"
							}
						],
						"name": "transaction",
						"type": "tuple"
					},
					{
						"name": "txOrigin",
						"type": "address"
					},
					{
						"name": "transactionSignature",
						"type": "bytes"
					},
					{
						"name": "approvalExpirationTimeSeconds",
						"type": "uint256[]"
					},
					{
						"name": "approvalSignatures",
						"type": "bytes[]"
					}
				],
				"name": "assertValidCoordinatorApprovals",
				"outputs": [],
				"payable": false,
				"stateMutability": "view",
				"type": "function"
			},
			{
				"constant": true,
				"inputs": [],
				"name": "EIP712_DOMAIN_HASH",
				"outputs": [
					{
						"name": "",
						"type": "bytes32"
					}
				],
				"payable": false,
				"stateMutability": "view",
				"type": "function"
			},
			{
				"constant": true,
				"inputs": [
					{
						"components": [
							{
								"name": "salt",
								"type": "uint256"
							},
							{
								"name": "signerAddress",
								"type": "address"
							},
							{
								"name": "data",
								"type": "bytes"
							}
						],
						"name": "transaction",
						"type": "tuple"
					},
					{
						"components": [
							{
								"name": "makerAddress",
								"type": "address"
							},
							{
								"name": "takerAddress",
								"type": "address"
							},
							{
								"name": "feeRecipientAddress",
								"type": "address"
							},
							{
								"name": "senderAddress",
								"type": "address"
							},
							{
								"name": "makerAssetAmount",
								"type": "uint256"
							},
							{
								"name": "takerAssetAmount",
								"type": "uint256"
							},
							{
								"name": "makerFee",
								"type": "uint256"
							},
							{
								"name": "takerFee",
								"type": "uint256"
							},
							{
								"name": "expirationTimeSeconds",
								"type": "uint256"
							},
							{
								"name": "salt",
								"type": "uint256"
							},
							{
								"name": "makerAssetData",
								"type": "bytes"
							},
							{
								"name": "takerAssetData",
								"type": "bytes"
							}
						],
						"name": "orders",
						"type": "tuple[]"
					},
					{
						"name": "txOrigin",
						"type": "address"
					},
					{
						"name": "transactionSignature",
						"type": "bytes"
					},
					{
						"name": "approvalExpirationTimeSeconds",
						"type": "uint256[]"
					},
					{
						"name": "approvalSignatures",
						"type": "bytes[]"
					}
				],
				"name": "assertValidTransactionOrdersApproval",
				"outputs": [],
				"payable": false,
				"stateMutability": "view",
				"type": "function"
			},
			{
				"inputs": [
					{
						"name": "_exchange",
						"type": "address"
					}
				],
				"payable": false,
				"stateMutability": "nonpayable",
				"type": "constructor"
			}
		],
		"evm": {
			"bytecode": {
				"linkReferences": {},
				"object": "0x60806040523480156200001157600080fd5b506040516020806200238083398101806040526200003391908101906200022b565b604080517f454950373132446f6d61696e28000000000000000000000000000000000000006020808301919091527f737472696e67206e616d652c0000000000000000000000000000000000000000602d8301527f737472696e672076657273696f6e2c000000000000000000000000000000000060398301527f6164647265737320766572696679696e67436f6e74726163740000000000000060488301527f29000000000000000000000000000000000000000000000000000000000000006061830152825180830360420181526062830180855281519183019190912060a28401855260179091527f30782050726f746f636f6c20436f6f7264696e61746f7200000000000000000060829093019290925282518084018452600581527f312e302e30000000000000000000000000000000000000000000000000000000908201528251808201929092527f626d101e477fd17dd52afb3f9ad9eb016bf60f6e377877f34e8f3ea84c930236828401527f06c015bd22b4c69690933c1058878ebdfef31f9aaae40bbe86d8a09fe1b2972c6060830152306080808401919091528351808403909101815260a0909201909252805191012060005560018054600160a060020a031916600160a060020a039290921691909117905562000273565b600062000224825162000260565b9392505050565b6000602082840312156200023e57600080fd5b60006200024c848462000216565b949350505050565b600160a060020a031690565b60006200026d8262000254565b92915050565b6120fd80620002836000396000f3fe608060405234801561001057600080fd5b5060043610610084576000357c010000000000000000000000000000000000000000000000000000000090048063d2df07331161006d578063d2df0733146100c7578063e306f779146100da578063e3b1aa86146100ef57610084565b80630f7d8e391461008957806390c3bc3f146100b2575b600080fd5b61009c610097366004611888565b610102565b6040516100a99190611e6f565b60405180910390f35b6100c56100c036600461196e565b6104f7565b005b6100c56100d536600461196e565b6105a3565b6100e26105d4565b6040516100a99190611e7d565b6100c56100fd366004611a42565b6105da565b6000808251111515610149576040517f08c379a000000000000000000000000000000000000000000000000000000000815260040161014090611f3b565b60405180910390fd5b600061015483610821565b7f010000000000000000000000000000000000000000000000000000000000000090049050600360ff8216106101b6576040517f08c379a000000000000000000000000000000000000000000000000000000000815260040161014090611efb565b60008160ff1660038111156101c757fe5b905060008160038111156101d757fe5b141561020f576040517f08c379a000000000000000000000000000000000000000000000000000000000815260040161014090611f2b565b600181600381111561021d57fe5b141561035b57835160411461025e576040517f08c379a000000000000000000000000000000000000000000000000000000000815260040161014090611e8b565b600084600081518110151561026f57fe5b01602001517f010000000000000000000000000000000000000000000000000000000000000090819004810204905060006102b186600163ffffffff6108e516565b905060006102c687602163ffffffff6108e516565b905060018884848460405160008152602001604052604051808581526020018460ff1660ff1681526020018381526020018281526020019450505050506020604051602081039080840390855afa158015610325573d6000803e3d6000fd5b50506040517fffffffffffffffffffffffffffffffffffffffffffffffffffffffffffffffe0015196506104f195505050505050565b600281600381111561036957fe5b14156104bf5783516041146103aa576040517f08c379a000000000000000000000000000000000000000000000000000000000815260040161014090611e8b565b60008460008151811015156103bb57fe5b01602001517f010000000000000000000000000000000000000000000000000000000000000090819004810204905060006103fd86600163ffffffff6108e516565b9050600061041287602163ffffffff6108e516565b905060018860405160200180807f19457468657265756d205369676e6564204d6573736167653a0a333200000000815250601c018281526020019150506040516020818303038152906040528051906020012084848460405160008152602001604052604051808581526020018460ff1660ff1681526020018381526020018281526020019450505050506020604051602081039080840390855afa158015610325573d6000803e3d6000fd5b6040517f08c379a000000000000000000000000000000000000000000000000000000000815260040161014090611efb565b92915050565b61050485858585856105a3565b6001548551602087015160408089015190517fbfc8bfce00000000000000000000000000000000000000000000000000000000815273ffffffffffffffffffffffffffffffffffffffff9094169363bfc8bfce9361056a93909290918990600401611f5b565b600060405180830381600087803b15801561058457600080fd5b505af1158015610598573d6000803e3d6000fd5b505050505050505050565b60606105b28660400151610930565b90506000815111156105cc576105cc8682878787876105da565b505050505050565b60005481565b3273ffffffffffffffffffffffffffffffffffffffff851614610629576040517f08c379a000000000000000000000000000000000000000000000000000000000815260040161014090611f0b565b600061063487610de8565b60408051600080825260208201909252845192935091905b80821461073c576000868281518110151561066357fe5b906020019060200201519050610677611220565b506040805160808101825273ffffffffffffffffffffffffffffffffffffffff8b16815260208101879052908101899052606081018290524282116106e8576040517f08c379a000000000000000000000000000000000000000000000000000000000815260040161014090611edb565b60006106f382610dfb565b90506000610718828a8781518110151561070957fe5b90602001906020020151610102565b905061072a878263ffffffff610e0916565b9650506001909301925061064c915050565b5061074d823263ffffffff610e0916565b885190925060005b8082146108145789516000908b908390811061076d57fe5b906020019060200201516060015173ffffffffffffffffffffffffffffffffffffffff16141561079c5761080c565b60008a828151811015156107ac57fe5b6020908102909101015160400151905060006107ce868363ffffffff610ed316565b9050801515610809576040517f08c379a000000000000000000000000000000000000000000000000000000000815260040161014090611e9b565b50505b600101610755565b5050505050505050505050565b600080825111151561085f576040517f08c379a000000000000000000000000000000000000000000000000000000000815260040161014090611f1b565b815182907fffffffffffffffffffffffffffffffffffffffffffffffffffffffffffffffff810190811061088f57fe5b016020015182517fffffffffffffffffffffffffffffffffffffffffffffffffffffffffffffffff01909252507f0100000000000000000000000000000000000000000000000000000000000000908190040290565b600081602001835110151515610927576040517f08c379a000000000000000000000000000000000000000000000000000000000815260040161014090611eeb565b50016020015190565b60606000610944838263ffffffff610f1016565b90507fffffffff0000000000000000000000000000000000000000000000000000000081167fb4be83d50000000000000000000000000000000000000000000000000000000014806109d757507fffffffff0000000000000000000000000000000000000000000000000000000081167f3e228bae00000000000000000000000000000000000000000000000000000000145b80610a2357507fffffffff0000000000000000000000000000000000000000000000000000000081167f64a3bc1500000000000000000000000000000000000000000000000000000000145b15610aad57610a30611248565b8351610a4690859060049063ffffffff610f7d16565b806020019051610a5991908101906118da565b604080516001808252818301909252919250816020015b610a78611248565b815260200190600190039081610a7057905050925080836000815181101515610a9d57fe5b6020908102909101015250610de2565b7fffffffff0000000000000000000000000000000000000000000000000000000081167f297bb70b000000000000000000000000000000000000000000000000000000001480610b3e57507fffffffff0000000000000000000000000000000000000000000000000000000081167f50dde19000000000000000000000000000000000000000000000000000000000145b80610b8a57507fffffffff0000000000000000000000000000000000000000000000000000000081167f4d0ae54600000000000000000000000000000000000000000000000000000000145b80610bd657507fffffffff0000000000000000000000000000000000000000000000000000000081167fe5fa431b00000000000000000000000000000000000000000000000000000000145b80610c2257507fffffffff0000000000000000000000000000000000000000000000000000000081167fa3e2038000000000000000000000000000000000000000000000000000000000145b80610c6e57507fffffffff0000000000000000000000000000000000000000000000000000000081167f7e1d980800000000000000000000000000000000000000000000000000000000145b80610cba57507fffffffff0000000000000000000000000000000000000000000000000000000081167fdd1c7d1800000000000000000000000000000000000000000000000000000000145b15610cef578251610cd590849060049063ffffffff610f7d16565b806020019051610ce8919081019061184b565b9150610de2565b7fffffffff0000000000000000000000000000000000000000000000000000000081167f3c28d861000000000000000000000000000000000000000000000000000000001415610de257610d41611248565b610d49611248565b8451610d5f90869060049063ffffffff610f7d16565b806020019051610d72919081019061190f565b60408051600280825260608201909252929450909250816020015b610d95611248565b815260200190600190039081610d8d57905050935081846000815181101515610dba57fe5b602090810290910101528351819085906001908110610dd557fe5b6020908102909101015250505b50919050565b60006104f1610df683611049565b6110b7565b60006104f1610df6836110f7565b815160405160609184906020808202808401820192910182851015610e5a576040517f08c379a000000000000000000000000000000000000000000000000000000000815260040161014090611ecb565b82851115610e7457610e6d858583611156565b8497508793505b600182019150602081019050808401925082945081885284604052868860018403815181101515610ea157fe5b73ffffffffffffffffffffffffffffffffffffffff909216602092830290910190910152508694505050505092915050565b6000602083510260208401818101815b81811015610f0657805180871415610efd57600195508291505b50602001610ee3565b5050505092915050565b600081600401835110151515610f52576040517f08c379a000000000000000000000000000000000000000000000000000000000815260040161014090611f4b565b5001602001517fffffffff000000000000000000000000000000000000000000000000000000001690565b606081831115610fb9576040517f08c379a000000000000000000000000000000000000000000000000000000000815260040161014090611eab565b8351821115610ff4576040517f08c379a000000000000000000000000000000000000000000000000000000000815260040161014090611ebb565b8282036040519080825280601f01601f191660200182016040528015611021576020820181803883390190505b5090506110426110308261121a565b8461103a8761121a565b018351611156565b9392505050565b604081810151825160209384015182519285019290922083517f213c6f636f3ea94e701c0adf9b2624aa45a6c694f9a292c094f9a81c24b5df4c81529485019190915273ffffffffffffffffffffffffffffffffffffffff9091169183019190915260608201526080902090565b6000546040517f19010000000000000000000000000000000000000000000000000000000000008152600281019190915260228101919091526042902090565b604080820151825160208085015160608681015185519584019590952086517f2fbcdbaa76bc7589916958ae919dfbef04d23f6bbf26de6ff317b32c6cc01e058152938401949094529482015292830152608082015260a09020919050565b6020811015611180576001816020036101000a038019835116818551168082178652505050611215565b8282141561118d57611215565b828211156111c75760208103905080820181840181515b828510156111bf5784518652602095860195909401936111a4565b905250611215565b60208103905080820181840183515b8186121561121057825182527fffffffffffffffffffffffffffffffffffffffffffffffffffffffffffffffe092830192909101906111d6565b855250505b505050565b60200190565b6040805160808101825260008082526020820181905260609282018390529181019190915290565b61018060405190810160405280600073ffffffffffffffffffffffffffffffffffffffff168152602001600073ffffffffffffffffffffffffffffffffffffffff168152602001600073ffffffffffffffffffffffffffffffffffffffff168152602001600073ffffffffffffffffffffffffffffffffffffffff16815260200160008152602001600081526020016000815260200160008152602001600081526020016000815260200160608152602001606081525090565b60006110428235612038565b60006110428251612038565b6000601f8201831361132b57600080fd5b813561133e61133982611fcd565b611fa6565b81815260209384019390925082018360005b83811015610f06578135860161136688826114b2565b8452506020928301929190910190600101611350565b6000601f8201831361138d57600080fd5b815161139b61133982611fcd565b81815260209384019390925082018360005b83811015610f0657815186016113c38882611690565b84525060209283019291909101906001016113ad565b6000601f820183136113ea57600080fd5b81356113f861133982611fcd565b81815260209384019390925082018360005b83811015610f0657813586016114208882611547565b845250602092830192919091019060010161140a565b6000601f8201831361144757600080fd5b813561145561133982611fcd565b9150818183526020840193506020810190508385602084028201111561147a57600080fd5b60005b83811015610f06578161149088826114a6565b845250602092830192919091019060010161147d565b60006110428235612043565b6000601f820183136114c357600080fd5b81356114d161133982611fee565b915080825260208301602083018583830111156114ed57600080fd5b6114f883828461205f565b50505092915050565b6000601f8201831361151257600080fd5b815161152061133982611fee565b9150808252602083016020830185838301111561153c57600080fd5b6114f883828461206b565b6000610180828403121561155a57600080fd5b611565610180611fa6565b905060006115738484611302565b825250602061158484848301611302565b602083015250604061159884828501611302565b60408301525060606115ac84828501611302565b60608301525060806115c0848285016114a6565b60808301525060a06115d4848285016114a6565b60a08301525060c06115e8848285016114a6565b60c08301525060e06115fc848285016114a6565b60e083015250610100611611848285016114a6565b61010083015250610120611627848285016114a6565b6101208301525061014082013567ffffffffffffffff81111561164957600080fd5b611655848285016114b2565b6101408301525061016082013567ffffffffffffffff81111561167757600080fd5b611683848285016114b2565b6101608301525092915050565b600061018082840312156116a357600080fd5b6116ae610180611fa6565b905060006116bc848461130e565b82525060206116cd8484830161130e565b60208301525060406116e18482850161130e565b60408301525060606116f58482850161130e565b60608301525060806117098482850161183f565b60808301525060a061171d8482850161183f565b60a08301525060c06117318482850161183f565b60c08301525060e06117458482850161183f565b60e08301525061010061175a8482850161183f565b610100830152506101206117708482850161183f565b6101208301525061014082015167ffffffffffffffff81111561179257600080fd5b61179e84828501611501565b6101408301525061016082015167ffffffffffffffff8111156117c057600080fd5b61168384828501611501565b6000606082840312156117de57600080fd5b6117e86060611fa6565b905060006117f684846114a6565b825250602061180784848301611302565b602083015250604082013567ffffffffffffffff81111561182757600080fd5b611833848285016114b2565b60408301525092915050565b60006110428251612043565b60006020828403121561185d57600080fd5b815167ffffffffffffffff81111561187457600080fd5b6118808482850161137c565b949350505050565b6000806040838503121561189b57600080fd5b60006118a785856114a6565b925050602083013567ffffffffffffffff8111156118c457600080fd5b6118d0858286016114b2565b9150509250929050565b6000602082840312156118ec57600080fd5b815167ffffffffffffffff81111561190357600080fd5b61188084828501611690565b6000806040838503121561192257600080fd5b825167ffffffffffffffff81111561193957600080fd5b61194585828601611690565b925050602083015167ffffffffffffffff81111561196257600080fd5b6118d085828601611690565b600080600080600060a0868803121561198657600080fd5b853567ffffffffffffffff81111561199d57600080fd5b6119a9888289016117cc565b95505060206119ba88828901611302565b945050604086013567ffffffffffffffff8111156119d757600080fd5b6119e3888289016114b2565b935050606086013567ffffffffffffffff811115611a0057600080fd5b611a0c88828901611436565b925050608086013567ffffffffffffffff811115611a2957600080fd5b611a358882890161131a565b9150509295509295909350565b60008060008060008060c08789031215611a5b57600080fd5b863567ffffffffffffffff811115611a7257600080fd5b611a7e89828a016117cc565b965050602087013567ffffffffffffffff811115611a9b57600080fd5b611aa789828a016113d9565b9550506040611ab889828a01611302565b945050606087013567ffffffffffffffff811115611ad557600080fd5b611ae189828a016114b2565b935050608087013567ffffffffffffffff811115611afe57600080fd5b611b0a89828a01611436565b92505060a087013567ffffffffffffffff811115611b2757600080fd5b611b3389828a0161131a565b9150509295509295509295565b611b4981612038565b82525050565b611b4981612043565b6000611b6382612034565b808452611b7781602086016020860161206b565b611b808161209b565b9093016020019392505050565b601281527f4c454e4754485f36355f52455155495245440000000000000000000000000000602082015260400190565b601a81527f494e56414c49445f415050524f56414c5f5349474e4154555245000000000000602082015260400190565b601a81527f46524f4d5f4c4553535f5448414e5f544f5f5245515549524544000000000000602082015260400190565b601c81527f544f5f4c4553535f5448414e5f4c454e4754485f524551554952454400000000602082015260400190565b601781527f494e56414c49445f465245455f4d454d4f52595f505452000000000000000000602082015260400190565b601081527f415050524f56414c5f4558504952454400000000000000000000000000000000602082015260400190565b602681527f475245415445525f4f525f455155414c5f544f5f33325f4c454e4754485f524560208201527f5155495245440000000000000000000000000000000000000000000000000000604082015260600190565b601581527f5349474e41545552455f554e535550504f525445440000000000000000000000602082015260400190565b600e81527f494e56414c49445f4f524947494e000000000000000000000000000000000000602082015260400190565b602181527f475245415445525f5448414e5f5a45524f5f4c454e4754485f5245515549524560208201527f4400000000000000000000000000000000000000000000000000000000000000604082015260600190565b601181527f5349474e41545552455f494c4c4547414c000000000000000000000000000000602082015260400190565b601e81527f4c454e4754485f475245415445525f5448414e5f305f52455155495245440000602082015260400190565b602581527f475245415445525f4f525f455155414c5f544f5f345f4c454e4754485f52455160208201527f5549524544000000000000000000000000000000000000000000000000000000604082015260600190565b602081016104f18284611b40565b602081016104f18284611b4f565b602080825281016104f181611b8d565b602080825281016104f181611bbd565b602080825281016104f181611bed565b602080825281016104f181611c1d565b602080825281016104f181611c4d565b602080825281016104f181611c7d565b602080825281016104f181611cad565b602080825281016104f181611d03565b602080825281016104f181611d33565b602080825281016104f181611d63565b602080825281016104f181611db9565b602080825281016104f181611de9565b602080825281016104f181611e19565b60808101611f698287611b4f565b611f766020830186611b40565b8181036040830152611f888185611b58565b90508181036060830152611f9c8184611b58565b9695505050505050565b60405181810167ffffffffffffffff81118282101715611fc557600080fd5b604052919050565b600067ffffffffffffffff821115611fe457600080fd5b5060209081020190565b600067ffffffffffffffff82111561200557600080fd5b506020601f919091017fffffffffffffffffffffffffffffffffffffffffffffffffffffffffffffffe0160190565b5190565b60006104f182612046565b90565b73ffffffffffffffffffffffffffffffffffffffff1690565b82818337506000910152565b60005b8381101561208657818101518382015260200161206e565b83811115612095576000848401525b50505050565b601f017fffffffffffffffffffffffffffffffffffffffffffffffffffffffffffffffe0169056fea265627a7a7230582013be4e9e281ff59b6be3d1c4c7af6075c7d255edc60be429d25841f98f287b3e6c6578706572696d656e74616cf50037",
				"opcodes": "PUSH1 0x80 PUSH1 0x40 MSTORE CALLVALUE DUP1 ISZERO PUSH3 0x11 JUMPI PUSH1 0x0 DUP1 REVERT JUMPDEST POP PUSH1 0x40 MLOAD PUSH1 0x20 DUP1 PUSH3 0x2380 DUP4 CODECOPY DUP2 ADD DUP1 PUSH1 0x40 MSTORE PUSH3 0x33 SWAP2 SWAP1 DUP2 ADD SWAP1 PUSH3 0x22B JUMP JUMPDEST PUSH1 0x40 DUP1 MLOAD PUSH32 0x454950373132446F6D61696E2800000000000000000000000000000000000000 PUSH1 0x20 DUP1 DUP4 ADD SWAP2 SWAP1 SWAP2 MSTORE PUSH32 0x737472696E67206E616D652C0000000000000000000000000000000000000000 PUSH1 0x2D DUP4 ADD MSTORE PUSH32 0x737472696E672076657273696F6E2C0000000000000000000000000000000000 PUSH1 0x39 DUP4 ADD MSTORE PUSH32 0x6164647265737320766572696679696E67436F6E747261637400000000000000 PUSH1 0x48 DUP4 ADD MSTORE PUSH32 0x2900000000000000000000000000000000000000000000000000000000000000 PUSH1 0x61 DUP4 ADD MSTORE DUP3 MLOAD DUP1 DUP4 SUB PUSH1 0x42 ADD DUP2 MSTORE PUSH1 0x62 DUP4 ADD DUP1 DUP6 MSTORE DUP2 MLOAD SWAP2 DUP4 ADD SWAP2 SWAP1 SWAP2 KECCAK256 PUSH1 0xA2 DUP5 ADD DUP6 MSTORE PUSH1 0x17 SWAP1 SWAP2 MSTORE PUSH32 0x30782050726F746F636F6C20436F6F7264696E61746F72000000000000000000 PUSH1 0x82 SWAP1 SWAP4 ADD SWAP3 SWAP1 SWAP3 MSTORE DUP3 MLOAD DUP1 DUP5 ADD DUP5 MSTORE PUSH1 0x5 DUP2 MSTORE PUSH32 0x312E302E30000000000000000000000000000000000000000000000000000000 SWAP1 DUP3 ADD MSTORE DUP3 MLOAD DUP1 DUP3 ADD SWAP3 SWAP1 SWAP3 MSTORE PUSH32 0x626D101E477FD17DD52AFB3F9AD9EB016BF60F6E377877F34E8F3EA84C930236 DUP3 DUP5 ADD MSTORE PUSH32 0x6C015BD22B4C69690933C1058878EBDFEF31F9AAAE40BBE86D8A09FE1B2972C PUSH1 0x60 DUP4 ADD MSTORE ADDRESS PUSH1 0x80 DUP1 DUP5 ADD SWAP2 SWAP1 SWAP2 MSTORE DUP4 MLOAD DUP1 DUP5 SUB SWAP1 SWAP2 ADD DUP2 MSTORE PUSH1 0xA0 SWAP1 SWAP3 ADD SWAP1 SWAP3 MSTORE DUP1 MLOAD SWAP2 ADD KECCAK256 PUSH1 0x0 SSTORE PUSH1 0x1 DUP1 SLOAD PUSH1 0x1 PUSH1 0xA0 PUSH1 0x2 EXP SUB NOT AND PUSH1 0x1 PUSH1 0xA0 PUSH1 0x2 EXP SUB SWAP3 SWAP1 SWAP3 AND SWAP2 SWAP1 SWAP2 OR SWAP1 SSTORE PUSH3 0x273 JUMP JUMPDEST PUSH1 0x0 PUSH3 0x224 DUP3 MLOAD PUSH3 0x260 JUMP JUMPDEST SWAP4 SWAP3 POP POP POP JUMP JUMPDEST PUSH1 0x0 PUSH1 0x20 DUP3 DUP5 SUB SLT ISZERO PUSH3 0x23E JUMPI PUSH1 0x0 DUP1 REVERT JUMPDEST PUSH1 0x0 PUSH3 0x24C DUP5 DUP5 PUSH3 0x216 JUMP JUMPDEST SWAP5 SWAP4 POP POP POP POP JUMP JUMPDEST PUSH1 0x1 PUSH1 0xA0 PUSH1 0x2 EXP SUB AND SWAP1 JUMP JUMPDEST PUSH1 0x0 PUSH3 0x26D DUP3 PUSH3 0x254 JUMP JUMPDEST SWAP3 SWAP2 POP POP JUMP JUMPDEST PUSH2 0x20FD DUP1 PUSH3 0x283 PUSH1 0x0 CODECOPY PUSH1 0x0 RETURN INVALID PUSH1 0x80 PUSH1 0x40 MSTORE CALLVALUE DUP1 ISZERO PUSH2 0x10 JUMPI PUSH1 0x0 DUP1 REVERT JUMPDEST POP PUSH1 0x4 CALLDATASIZE LT PUSH2 0x84 JUMPI PUSH1 0x0 CALLDATALOAD PUSH29 0x100000000000000000000000000000000000000000000000000000000 SWAP1 DIV DUP1 PUSH4 0xD2DF0733 GT PUSH2 0x6D JUMPI DUP1 PUSH4 0xD2DF0733 EQ PUSH2 0xC7 JUMPI DUP1 PUSH4 0xE306F779 EQ PUSH2 0xDA JUMPI DUP1 PUSH4 0xE3B1AA86 EQ PUSH2 0xEF JUMPI PUSH2 0x84 JUMP JUMPDEST DUP1 PUSH4 0xF7D8E39 EQ PUSH2 0x89 JUMPI DUP1 PUSH4 0x90C3BC3F EQ PUSH2 0xB2 JUMPI JUMPDEST PUSH1 0x0 DUP1 REVERT JUMPDEST PUSH2 0x9C PUSH2 0x97 CALLDATASIZE PUSH1 0x4 PUSH2 0x1888 JUMP JUMPDEST PUSH2 0x102 JUMP JUMPDEST PUSH1 0x40 MLOAD PUSH2 0xA9 SWAP2 SWAP1 PUSH2 0x1E6F JUMP JUMPDEST PUSH1 0x40 MLOAD DUP1 SWAP2 SUB SWAP1 RETURN JUMPDEST PUSH2 0xC5 PUSH2 0xC0 CALLDATASIZE PUSH1 0x4 PUSH2 0x196E JUMP JUMPDEST PUSH2 0x4F7 JUMP JUMPDEST STOP JUMPDEST PUSH2 0xC5 PUSH2 0xD5 CALLDATASIZE PUSH1 0x4 PUSH2 0x196E JUMP JUMPDEST PUSH2 0x5A3 JUMP JUMPDEST PUSH2 0xE2 PUSH2 0x5D4 JUMP JUMPDEST PUSH1 0x40 MLOAD PUSH2 0xA9 SWAP2 SWAP1 PUSH2 0x1E7D JUMP JUMPDEST PUSH2 0xC5 PUSH2 0xFD CALLDATASIZE PUSH1 0x4 PUSH2 0x1A42 JUMP JUMPDEST PUSH2 0x5DA JUMP JUMPDEST PUSH1 0x0 DUP1 DUP3 MLOAD GT ISZERO ISZERO PUSH2 0x149 JUMPI PUSH1 0x40 MLOAD PUSH32 0x8C379A000000000000000000000000000000000000000000000000000000000 DUP2 MSTORE PUSH1 0x4 ADD PUSH2 0x140 SWAP1 PUSH2 0x1F3B JUMP JUMPDEST PUSH1 0x40 MLOAD DUP1 SWAP2 SUB SWAP1 REVERT JUMPDEST PUSH1 0x0 PUSH2 0x154 DUP4 PUSH2 0x821 JUMP JUMPDEST PUSH32 0x100000000000000000000000000000000000000000000000000000000000000 SWAP1 DIV SWAP1 POP PUSH1 0x3 PUSH1 0xFF DUP3 AND LT PUSH2 0x1B6 JUMPI PUSH1 0x40 MLOAD PUSH32 0x8C379A000000000000000000000000000000000000000000000000000000000 DUP2 MSTORE PUSH1 0x4 ADD PUSH2 0x140 SWAP1 PUSH2 0x1EFB JUMP JUMPDEST PUSH1 0x0 DUP2 PUSH1 0xFF AND PUSH1 0x3 DUP2 GT ISZERO PUSH2 0x1C7 JUMPI INVALID JUMPDEST SWAP1 POP PUSH1 0x0 DUP2 PUSH1 0x3 DUP2 GT ISZERO PUSH2 0x1D7 JUMPI INVALID JUMPDEST EQ ISZERO PUSH2 0x20F JUMPI PUSH1 0x40 MLOAD PUSH32 0x8C379A000000000000000000000000000000000000000000000000000000000 DUP2 MSTORE PUSH1 0x4 ADD PUSH2 0x140 SWAP1 PUSH2 0x1F2B JUMP JUMPDEST PUSH1 0x1 DUP2 PUSH1 0x3 DUP2 GT ISZERO PUSH2 0x21D JUMPI INVALID JUMPDEST EQ ISZERO PUSH2 0x35B JUMPI DUP4 MLOAD PUSH1 0x41 EQ PUSH2 0x25E JUMPI PUSH1 0x40 MLOAD PUSH32 0x8C379A000000000000000000000000000000000000000000000000000000000 DUP2 MSTORE PUSH1 0x4 ADD PUSH2 0x140 SWAP1 PUSH2 0x1E8B JUMP JUMPDEST PUSH1 0x0 DUP5 PUSH1 0x0 DUP2 MLOAD DUP2 LT ISZERO ISZERO PUSH2 0x26F JUMPI INVALID JUMPDEST ADD PUSH1 0x20 ADD MLOAD PUSH32 0x100000000000000000000000000000000000000000000000000000000000000 SWAP1 DUP2 SWAP1 DIV DUP2 MUL DIV SWAP1 POP PUSH1 0x0 PUSH2 0x2B1 DUP7 PUSH1 0x1 PUSH4 0xFFFFFFFF PUSH2 0x8E5 AND JUMP JUMPDEST SWAP1 POP PUSH1 0x0 PUSH2 0x2C6 DUP8 PUSH1 0x21 PUSH4 0xFFFFFFFF PUSH2 0x8E5 AND JUMP JUMPDEST SWAP1 POP PUSH1 0x1 DUP9 DUP5 DUP5 DUP5 PUSH1 0x40 MLOAD PUSH1 0x0 DUP2 MSTORE PUSH1 0x20 ADD PUSH1 0x40 MSTORE PUSH1 0x40 MLOAD DUP1 DUP6 DUP2 MSTORE PUSH1 0x20 ADD DUP5 PUSH1 0xFF AND PUSH1 0xFF AND DUP2 MSTORE PUSH1 0x20 ADD DUP4 DUP2 MSTORE PUSH1 0x20 ADD DUP3 DUP2 MSTORE PUSH1 0x20 ADD SWAP5 POP POP POP POP POP PUSH1 0x20 PUSH1 0x40 MLOAD PUSH1 0x20 DUP2 SUB SWAP1 DUP1 DUP5 SUB SWAP1 DUP6 GAS STATICCALL ISZERO DUP1 ISZERO PUSH2 0x325 JUMPI RETURNDATASIZE PUSH1 0x0 DUP1 RETURNDATACOPY RETURNDATASIZE PUSH1 0x0 REVERT JUMPDEST POP POP PUSH1 0x40 MLOAD PUSH32 0xFFFFFFFFFFFFFFFFFFFFFFFFFFFFFFFFFFFFFFFFFFFFFFFFFFFFFFFFFFFFFFE0 ADD MLOAD SWAP7 POP PUSH2 0x4F1 SWAP6 POP POP POP POP POP POP JUMP JUMPDEST PUSH1 0x2 DUP2 PUSH1 0x3 DUP2 GT ISZERO PUSH2 0x369 JUMPI INVALID JUMPDEST EQ ISZERO PUSH2 0x4BF JUMPI DUP4 MLOAD PUSH1 0x41 EQ PUSH2 0x3AA JUMPI PUSH1 0x40 MLOAD PUSH32 0x8C379A000000000000000000000000000000000000000000000000000000000 DUP2 MSTORE PUSH1 0x4 ADD PUSH2 0x140 SWAP1 PUSH2 0x1E8B JUMP JUMPDEST PUSH1 0x0 DUP5 PUSH1 0x0 DUP2 MLOAD DUP2 LT ISZERO ISZERO PUSH2 0x3BB JUMPI INVALID JUMPDEST ADD PUSH1 0x20 ADD MLOAD PUSH32 0x100000000000000000000000000000000000000000000000000000000000000 SWAP1 DUP2 SWAP1 DIV DUP2 MUL DIV SWAP1 POP PUSH1 0x0 PUSH2 0x3FD DUP7 PUSH1 0x1 PUSH4 0xFFFFFFFF PUSH2 0x8E5 AND JUMP JUMPDEST SWAP1 POP PUSH1 0x0 PUSH2 0x412 DUP8 PUSH1 0x21 PUSH4 0xFFFFFFFF PUSH2 0x8E5 AND JUMP JUMPDEST SWAP1 POP PUSH1 0x1 DUP9 PUSH1 0x40 MLOAD PUSH1 0x20 ADD DUP1 DUP1 PUSH32 0x19457468657265756D205369676E6564204D6573736167653A0A333200000000 DUP2 MSTORE POP PUSH1 0x1C ADD DUP3 DUP2 MSTORE PUSH1 0x20 ADD SWAP2 POP POP PUSH1 0x40 MLOAD PUSH1 0x20 DUP2 DUP4 SUB SUB DUP2 MSTORE SWAP1 PUSH1 0x40 MSTORE DUP1 MLOAD SWAP1 PUSH1 0x20 ADD KECCAK256 DUP5 DUP5 DUP5 PUSH1 0x40 MLOAD PUSH1 0x0 DUP2 MSTORE PUSH1 0x20 ADD PUSH1 0x40 MSTORE PUSH1 0x40 MLOAD DUP1 DUP6 DUP2 MSTORE PUSH1 0x20 ADD DUP5 PUSH1 0xFF AND PUSH1 0xFF AND DUP2 MSTORE PUSH1 0x20 ADD DUP4 DUP2 MSTORE PUSH1 0x20 ADD DUP3 DUP2 MSTORE PUSH1 0x20 ADD SWAP5 POP POP POP POP POP PUSH1 0x20 PUSH1 0x40 MLOAD PUSH1 0x20 DUP2 SUB SWAP1 DUP1 DUP5 SUB SWAP1 DUP6 GAS STATICCALL ISZERO DUP1 ISZERO PUSH2 0x325 JUMPI RETURNDATASIZE PUSH1 0x0 DUP1 RETURNDATACOPY RETURNDATASIZE PUSH1 0x0 REVERT JUMPDEST PUSH1 0x40 MLOAD PUSH32 0x8C379A000000000000000000000000000000000000000000000000000000000 DUP2 MSTORE PUSH1 0x4 ADD PUSH2 0x140 SWAP1 PUSH2 0x1EFB JUMP JUMPDEST SWAP3 SWAP2 POP POP JUMP JUMPDEST PUSH2 0x504 DUP6 DUP6 DUP6 DUP6 DUP6 PUSH2 0x5A3 JUMP JUMPDEST PUSH1 0x1 SLOAD DUP6 MLOAD PUSH1 0x20 DUP8 ADD MLOAD PUSH1 0x40 DUP1 DUP10 ADD MLOAD SWAP1 MLOAD PUSH32 0xBFC8BFCE00000000000000000000000000000000000000000000000000000000 DUP2 MSTORE PUSH20 0xFFFFFFFFFFFFFFFFFFFFFFFFFFFFFFFFFFFFFFFF SWAP1 SWAP5 AND SWAP4 PUSH4 0xBFC8BFCE SWAP4 PUSH2 0x56A SWAP4 SWAP1 SWAP3 SWAP1 SWAP2 DUP10 SWAP1 PUSH1 0x4 ADD PUSH2 0x1F5B JUMP JUMPDEST PUSH1 0x0 PUSH1 0x40 MLOAD DUP1 DUP4 SUB DUP2 PUSH1 0x0 DUP8 DUP1 EXTCODESIZE ISZERO DUP1 ISZERO PUSH2 0x584 JUMPI PUSH1 0x0 DUP1 REVERT JUMPDEST POP GAS CALL ISZERO DUP1 ISZERO PUSH2 0x598 JUMPI RETURNDATASIZE PUSH1 0x0 DUP1 RETURNDATACOPY RETURNDATASIZE PUSH1 0x0 REVERT JUMPDEST POP POP POP POP POP POP POP POP POP JUMP JUMPDEST PUSH1 0x60 PUSH2 0x5B2 DUP7 PUSH1 0x40 ADD MLOAD PUSH2 0x930 JUMP JUMPDEST SWAP1 POP PUSH1 0x0 DUP2 MLOAD GT ISZERO PUSH2 0x5CC JUMPI PUSH2 0x5CC DUP7 DUP3 DUP8 DUP8 DUP8 DUP8 PUSH2 0x5DA JUMP JUMPDEST POP POP POP POP POP POP JUMP JUMPDEST PUSH1 0x0 SLOAD DUP2 JUMP JUMPDEST ORIGIN PUSH20 0xFFFFFFFFFFFFFFFFFFFFFFFFFFFFFFFFFFFFFFFF DUP6 AND EQ PUSH2 0x629 JUMPI PUSH1 0x40 MLOAD PUSH32 0x8C379A000000000000000000000000000000000000000000000000000000000 DUP2 MSTORE PUSH1 0x4 ADD PUSH2 0x140 SWAP1 PUSH2 0x1F0B JUMP JUMPDEST PUSH1 0x0 PUSH2 0x634 DUP8 PUSH2 0xDE8 JUMP JUMPDEST PUSH1 0x40 DUP1 MLOAD PUSH1 0x0 DUP1 DUP3 MSTORE PUSH1 0x20 DUP3 ADD SWAP1 SWAP3 MSTORE DUP5 MLOAD SWAP3 SWAP4 POP SWAP2 SWAP1 JUMPDEST DUP1 DUP3 EQ PUSH2 0x73C JUMPI PUSH1 0x0 DUP7 DUP3 DUP2 MLOAD DUP2 LT ISZERO ISZERO PUSH2 0x663 JUMPI INVALID JUMPDEST SWAP1 PUSH1 0x20 ADD SWAP1 PUSH1 0x20 MUL ADD MLOAD SWAP1 POP PUSH2 0x677 PUSH2 0x1220 JUMP JUMPDEST POP PUSH1 0x40 DUP1 MLOAD PUSH1 0x80 DUP2 ADD DUP3 MSTORE PUSH20 0xFFFFFFFFFFFFFFFFFFFFFFFFFFFFFFFFFFFFFFFF DUP12 AND DUP2 MSTORE PUSH1 0x20 DUP2 ADD DUP8 SWAP1 MSTORE SWAP1 DUP2 ADD DUP10 SWAP1 MSTORE PUSH1 0x60 DUP2 ADD DUP3 SWAP1 MSTORE TIMESTAMP DUP3 GT PUSH2 0x6E8 JUMPI PUSH1 0x40 MLOAD PUSH32 0x8C379A000000000000000000000000000000000000000000000000000000000 DUP2 MSTORE PUSH1 0x4 ADD PUSH2 0x140 SWAP1 PUSH2 0x1EDB JUMP JUMPDEST PUSH1 0x0 PUSH2 0x6F3 DUP3 PUSH2 0xDFB JUMP JUMPDEST SWAP1 POP PUSH1 0x0 PUSH2 0x718 DUP3 DUP11 DUP8 DUP2 MLOAD DUP2 LT ISZERO ISZERO PUSH2 0x709 JUMPI INVALID JUMPDEST SWAP1 PUSH1 0x20 ADD SWAP1 PUSH1 0x20 MUL ADD MLOAD PUSH2 0x102 JUMP JUMPDEST SWAP1 POP PUSH2 0x72A DUP8 DUP3 PUSH4 0xFFFFFFFF PUSH2 0xE09 AND JUMP JUMPDEST SWAP7 POP POP PUSH1 0x1 SWAP1 SWAP4 ADD SWAP3 POP PUSH2 0x64C SWAP2 POP POP JUMP JUMPDEST POP PUSH2 0x74D DUP3 ORIGIN PUSH4 0xFFFFFFFF PUSH2 0xE09 AND JUMP JUMPDEST DUP9 MLOAD SWAP1 SWAP3 POP PUSH1 0x0 JUMPDEST DUP1 DUP3 EQ PUSH2 0x814 JUMPI DUP10 MLOAD PUSH1 0x0 SWAP1 DUP12 SWAP1 DUP4 SWAP1 DUP2 LT PUSH2 0x76D JUMPI INVALID JUMPDEST SWAP1 PUSH1 0x20 ADD SWAP1 PUSH1 0x20 MUL ADD MLOAD PUSH1 0x60 ADD MLOAD PUSH20 0xFFFFFFFFFFFFFFFFFFFFFFFFFFFFFFFFFFFFFFFF AND EQ ISZERO PUSH2 0x79C JUMPI PUSH2 0x80C JUMP JUMPDEST PUSH1 0x0 DUP11 DUP3 DUP2 MLOAD DUP2 LT ISZERO ISZERO PUSH2 0x7AC JUMPI INVALID JUMPDEST PUSH1 0x20 SWAP1 DUP2 MUL SWAP1 SWAP2 ADD ADD MLOAD PUSH1 0x40 ADD MLOAD SWAP1 POP PUSH1 0x0 PUSH2 0x7CE DUP7 DUP4 PUSH4 0xFFFFFFFF PUSH2 0xED3 AND JUMP JUMPDEST SWAP1 POP DUP1 ISZERO ISZERO PUSH2 0x809 JUMPI PUSH1 0x40 MLOAD PUSH32 0x8C379A000000000000000000000000000000000000000000000000000000000 DUP2 MSTORE PUSH1 0x4 ADD PUSH2 0x140 SWAP1 PUSH2 0x1E9B JUMP JUMPDEST POP POP JUMPDEST PUSH1 0x1 ADD PUSH2 0x755 JUMP JUMPDEST POP POP POP POP POP POP POP POP POP POP POP JUMP JUMPDEST PUSH1 0x0 DUP1 DUP3 MLOAD GT ISZERO ISZERO PUSH2 0x85F JUMPI PUSH1 0x40 MLOAD PUSH32 0x8C379A000000000000000000000000000000000000000000000000000000000 DUP2 MSTORE PUSH1 0x4 ADD PUSH2 0x140 SWAP1 PUSH2 0x1F1B JUMP JUMPDEST DUP2 MLOAD DUP3 SWAP1 PUSH32 0xFFFFFFFFFFFFFFFFFFFFFFFFFFFFFFFFFFFFFFFFFFFFFFFFFFFFFFFFFFFFFFFF DUP2 ADD SWAP1 DUP2 LT PUSH2 0x88F JUMPI INVALID JUMPDEST ADD PUSH1 0x20 ADD MLOAD DUP3 MLOAD PUSH32 0xFFFFFFFFFFFFFFFFFFFFFFFFFFFFFFFFFFFFFFFFFFFFFFFFFFFFFFFFFFFFFFFF ADD SWAP1 SWAP3 MSTORE POP PUSH32 0x100000000000000000000000000000000000000000000000000000000000000 SWAP1 DUP2 SWAP1 DIV MUL SWAP1 JUMP JUMPDEST PUSH1 0x0 DUP2 PUSH1 0x20 ADD DUP4 MLOAD LT ISZERO ISZERO ISZERO PUSH2 0x927 JUMPI PUSH1 0x40 MLOAD PUSH32 0x8C379A000000000000000000000000000000000000000000000000000000000 DUP2 MSTORE PUSH1 0x4 ADD PUSH2 0x140 SWAP1 PUSH2 0x1EEB JUMP JUMPDEST POP ADD PUSH1 0x20 ADD MLOAD SWAP1 JUMP JUMPDEST PUSH1 0x60 PUSH1 0x0 PUSH2 0x944 DUP4 DUP3 PUSH4 0xFFFFFFFF PUSH2 0xF10 AND JUMP JUMPDEST SWAP1 POP PUSH32 0xFFFFFFFF00000000000000000000000000000000000000000000000000000000 DUP2 AND PUSH32 0xB4BE83D500000000000000000000000000000000000000000000000000000000 EQ DUP1 PUSH2 0x9D7 JUMPI POP PUSH32 0xFFFFFFFF00000000000000000000000000000000000000000000000000000000 DUP2 AND PUSH32 0x3E228BAE00000000000000000000000000000000000000000000000000000000 EQ JUMPDEST DUP1 PUSH2 0xA23 JUMPI POP PUSH32 0xFFFFFFFF00000000000000000000000000000000000000000000000000000000 DUP2 AND PUSH32 0x64A3BC1500000000000000000000000000000000000000000000000000000000 EQ JUMPDEST ISZERO PUSH2 0xAAD JUMPI PUSH2 0xA30 PUSH2 0x1248 JUMP JUMPDEST DUP4 MLOAD PUSH2 0xA46 SWAP1 DUP6 SWAP1 PUSH1 0x4 SWAP1 PUSH4 0xFFFFFFFF PUSH2 0xF7D AND JUMP JUMPDEST DUP1 PUSH1 0x20 ADD SWAP1 MLOAD PUSH2 0xA59 SWAP2 SWAP1 DUP2 ADD SWAP1 PUSH2 0x18DA JUMP JUMPDEST PUSH1 0x40 DUP1 MLOAD PUSH1 0x1 DUP1 DUP3 MSTORE DUP2 DUP4 ADD SWAP1 SWAP3 MSTORE SWAP2 SWAP3 POP DUP2 PUSH1 0x20 ADD JUMPDEST PUSH2 0xA78 PUSH2 0x1248 JUMP JUMPDEST DUP2 MSTORE PUSH1 0x20 ADD SWAP1 PUSH1 0x1 SWAP1 SUB SWAP1 DUP2 PUSH2 0xA70 JUMPI SWAP1 POP POP SWAP3 POP DUP1 DUP4 PUSH1 0x0 DUP2 MLOAD DUP2 LT ISZERO ISZERO PUSH2 0xA9D JUMPI INVALID JUMPDEST PUSH1 0x20 SWAP1 DUP2 MUL SWAP1 SWAP2 ADD ADD MSTORE POP PUSH2 0xDE2 JUMP JUMPDEST PUSH32 0xFFFFFFFF00000000000000000000000000000000000000000000000000000000 DUP2 AND PUSH32 0x297BB70B00000000000000000000000000000000000000000000000000000000 EQ DUP1 PUSH2 0xB3E JUMPI POP PUSH32 0xFFFFFFFF00000000000000000000000000000000000000000000000000000000 DUP2 AND PUSH32 0x50DDE19000000000000000000000000000000000000000000000000000000000 EQ JUMPDEST DUP1 PUSH2 0xB8A JUMPI POP PUSH32 0xFFFFFFFF00000000000000000000000000000000000000000000000000000000 DUP2 AND PUSH32 0x4D0AE54600000000000000000000000000000000000000000000000000000000 EQ JUMPDEST DUP1 PUSH2 0xBD6 JUMPI POP PUSH32 0xFFFFFFFF00000000000000000000000000000000000000000000000000000000 DUP2 AND PUSH32 0xE5FA431B00000000000000000000000000000000000000000000000000000000 EQ JUMPDEST DUP1 PUSH2 0xC22 JUMPI POP PUSH32 0xFFFFFFFF00000000000000000000000000000000000000000000000000000000 DUP2 AND PUSH32 0xA3E2038000000000000000000000000000000000000000000000000000000000 EQ JUMPDEST DUP1 PUSH2 0xC6E JUMPI POP PUSH32 0xFFFFFFFF00000000000000000000000000000000000000000000000000000000 DUP2 AND PUSH32 0x7E1D980800000000000000000000000000000000000000000000000000000000 EQ JUMPDEST DUP1 PUSH2 0xCBA JUMPI POP PUSH32 0xFFFFFFFF00000000000000000000000000000000000000000000000000000000 DUP2 AND PUSH32 0xDD1C7D1800000000000000000000000000000000000000000000000000000000 EQ JUMPDEST ISZERO PUSH2 0xCEF JUMPI DUP3 MLOAD PUSH2 0xCD5 SWAP1 DUP5 SWAP1 PUSH1 0x4 SWAP1 PUSH4 0xFFFFFFFF PUSH2 0xF7D AND JUMP JUMPDEST DUP1 PUSH1 0x20 ADD SWAP1 MLOAD PUSH2 0xCE8 SWAP2 SWAP1 DUP2 ADD SWAP1 PUSH2 0x184B JUMP JUMPDEST SWAP2 POP PUSH2 0xDE2 JUMP JUMPDEST PUSH32 0xFFFFFFFF00000000000000000000000000000000000000000000000000000000 DUP2 AND PUSH32 0x3C28D86100000000000000000000000000000000000000000000000000000000 EQ ISZERO PUSH2 0xDE2 JUMPI PUSH2 0xD41 PUSH2 0x1248 JUMP JUMPDEST PUSH2 0xD49 PUSH2 0x1248 JUMP JUMPDEST DUP5 MLOAD PUSH2 0xD5F SWAP1 DUP7 SWAP1 PUSH1 0x4 SWAP1 PUSH4 0xFFFFFFFF PUSH2 0xF7D AND JUMP JUMPDEST DUP1 PUSH1 0x20 ADD SWAP1 MLOAD PUSH2 0xD72 SWAP2 SWAP1 DUP2 ADD SWAP1 PUSH2 0x190F JUMP JUMPDEST PUSH1 0x40 DUP1 MLOAD PUSH1 0x2 DUP1 DUP3 MSTORE PUSH1 0x60 DUP3 ADD SWAP1 SWAP3 MSTORE SWAP3 SWAP5 POP SWAP1 SWAP3 POP DUP2 PUSH1 0x20 ADD JUMPDEST PUSH2 0xD95 PUSH2 0x1248 JUMP JUMPDEST DUP2 MSTORE PUSH1 0x20 ADD SWAP1 PUSH1 0x1 SWAP1 SUB SWAP1 DUP2 PUSH2 0xD8D JUMPI SWAP1 POP POP SWAP4 POP DUP2 DUP5 PUSH1 0x0 DUP2 MLOAD DUP2 LT ISZERO ISZERO PUSH2 0xDBA JUMPI INVALID JUMPDEST PUSH1 0x20 SWAP1 DUP2 MUL SWAP1 SWAP2 ADD ADD MSTORE DUP4 MLOAD DUP2 SWAP1 DUP6 SWAP1 PUSH1 0x1 SWAP1 DUP2 LT PUSH2 0xDD5 JUMPI INVALID JUMPDEST PUSH1 0x20 SWAP1 DUP2 MUL SWAP1 SWAP2 ADD ADD MSTORE POP POP JUMPDEST POP SWAP2 SWAP1 POP JUMP JUMPDEST PUSH1 0x0 PUSH2 0x4F1 PUSH2 0xDF6 DUP4 PUSH2 0x1049 JUMP JUMPDEST PUSH2 0x10B7 JUMP JUMPDEST PUSH1 0x0 PUSH2 0x4F1 PUSH2 0xDF6 DUP4 PUSH2 0x10F7 JUMP JUMPDEST DUP2 MLOAD PUSH1 0x40 MLOAD PUSH1 0x60 SWAP2 DUP5 SWAP1 PUSH1 0x20 DUP1 DUP3 MUL DUP1 DUP5 ADD DUP3 ADD SWAP3 SWAP2 ADD DUP3 DUP6 LT ISZERO PUSH2 0xE5A JUMPI PUSH1 0x40 MLOAD PUSH32 0x8C379A000000000000000000000000000000000000000000000000000000000 DUP2 MSTORE PUSH1 0x4 ADD PUSH2 0x140 SWAP1 PUSH2 0x1ECB JUMP JUMPDEST DUP3 DUP6 GT ISZERO PUSH2 0xE74 JUMPI PUSH2 0xE6D DUP6 DUP6 DUP4 PUSH2 0x1156 JUMP JUMPDEST DUP5 SWAP8 POP DUP8 SWAP4 POP JUMPDEST PUSH1 0x1 DUP3 ADD SWAP2 POP PUSH1 0x20 DUP2 ADD SWAP1 POP DUP1 DUP5 ADD SWAP3 POP DUP3 SWAP5 POP DUP2 DUP9 MSTORE DUP5 PUSH1 0x40 MSTORE DUP7 DUP9 PUSH1 0x1 DUP5 SUB DUP2 MLOAD DUP2 LT ISZERO ISZERO PUSH2 0xEA1 JUMPI INVALID JUMPDEST PUSH20 0xFFFFFFFFFFFFFFFFFFFFFFFFFFFFFFFFFFFFFFFF SWAP1 SWAP3 AND PUSH1 0x20 SWAP3 DUP4 MUL SWAP1 SWAP2 ADD SWAP1 SWAP2 ADD MSTORE POP DUP7 SWAP5 POP POP POP POP POP SWAP3 SWAP2 POP POP JUMP JUMPDEST PUSH1 0x0 PUSH1 0x20 DUP4 MLOAD MUL PUSH1 0x20 DUP5 ADD DUP2 DUP2 ADD DUP2 JUMPDEST DUP2 DUP2 LT ISZERO PUSH2 0xF06 JUMPI DUP1 MLOAD DUP1 DUP8 EQ ISZERO PUSH2 0xEFD JUMPI PUSH1 0x1 SWAP6 POP DUP3 SWAP2 POP JUMPDEST POP PUSH1 0x20 ADD PUSH2 0xEE3 JUMP JUMPDEST POP POP POP POP SWAP3 SWAP2 POP POP JUMP JUMPDEST PUSH1 0x0 DUP2 PUSH1 0x4 ADD DUP4 MLOAD LT ISZERO ISZERO ISZERO PUSH2 0xF52 JUMPI PUSH1 0x40 MLOAD PUSH32 0x8C379A000000000000000000000000000000000000000000000000000000000 DUP2 MSTORE PUSH1 0x4 ADD PUSH2 0x140 SWAP1 PUSH2 0x1F4B JUMP JUMPDEST POP ADD PUSH1 0x20 ADD MLOAD PUSH32 0xFFFFFFFF00000000000000000000000000000000000000000000000000000000 AND SWAP1 JUMP JUMPDEST PUSH1 0x60 DUP2 DUP4 GT ISZERO PUSH2 0xFB9 JUMPI PUSH1 0x40 MLOAD PUSH32 0x8C379A000000000000000000000000000000000000000000000000000000000 DUP2 MSTORE PUSH1 0x4 ADD PUSH2 0x140 SWAP1 PUSH2 0x1EAB JUMP JUMPDEST DUP4 MLOAD DUP3 GT ISZERO PUSH2 0xFF4 JUMPI PUSH1 0x40 MLOAD PUSH32 0x8C379A000000000000000000000000000000000000000000000000000000000 DUP2 MSTORE PUSH1 0x4 ADD PUSH2 0x140 SWAP1 PUSH2 0x1EBB JUMP JUMPDEST DUP3 DUP3 SUB PUSH1 0x40 MLOAD SWAP1 DUP1 DUP3 MSTORE DUP1 PUSH1 0x1F ADD PUSH1 0x1F NOT AND PUSH1 0x20 ADD DUP3 ADD PUSH1 0x40 MSTORE DUP1 ISZERO PUSH2 0x1021 JUMPI PUSH1 0x20 DUP3 ADD DUP2 DUP1 CODESIZE DUP4 CODECOPY ADD SWAP1 POP JUMPDEST POP SWAP1 POP PUSH2 0x1042 PUSH2 0x1030 DUP3 PUSH2 0x121A JUMP JUMPDEST DUP5 PUSH2 0x103A DUP8 PUSH2 0x121A JUMP JUMPDEST ADD DUP4 MLOAD PUSH2 0x1156 JUMP JUMPDEST SWAP4 SWAP3 POP POP POP JUMP JUMPDEST PUSH1 0x40 DUP2 DUP2 ADD MLOAD DUP3 MLOAD PUSH1 0x20 SWAP4 DUP5 ADD MLOAD DUP3 MLOAD SWAP3 DUP6 ADD SWAP3 SWAP1 SWAP3 KECCAK256 DUP4 MLOAD PUSH32 0x213C6F636F3EA94E701C0ADF9B2624AA45A6C694F9A292C094F9A81C24B5DF4C DUP2 MSTORE SWAP5 DUP6 ADD SWAP2 SWAP1 SWAP2 MSTORE PUSH20 0xFFFFFFFFFFFFFFFFFFFFFFFFFFFFFFFFFFFFFFFF SWAP1 SWAP2 AND SWAP2 DUP4 ADD SWAP2 SWAP1 SWAP2 MSTORE PUSH1 0x60 DUP3 ADD MSTORE PUSH1 0x80 SWAP1 KECCAK256 SWAP1 JUMP JUMPDEST PUSH1 0x0 SLOAD PUSH1 0x40 MLOAD PUSH32 0x1901000000000000000000000000000000000000000000000000000000000000 DUP2 MSTORE PUSH1 0x2 DUP2 ADD SWAP2 SWAP1 SWAP2 MSTORE PUSH1 0x22 DUP2 ADD SWAP2 SWAP1 SWAP2 MSTORE PUSH1 0x42 SWAP1 KECCAK256 SWAP1 JUMP JUMPDEST PUSH1 0x40 DUP1 DUP3 ADD MLOAD DUP3 MLOAD PUSH1 0x20 DUP1 DUP6 ADD MLOAD PUSH1 0x60 DUP7 DUP2 ADD MLOAD DUP6 MLOAD SWAP6 DUP5 ADD SWAP6 SWAP1 SWAP6 KECCAK256 DUP7 MLOAD PUSH32 0x2FBCDBAA76BC7589916958AE919DFBEF04D23F6BBF26DE6FF317B32C6CC01E05 DUP2 MSTORE SWAP4 DUP5 ADD SWAP5 SWAP1 SWAP5 MSTORE SWAP5 DUP3 ADD MSTORE SWAP3 DUP4 ADD MSTORE PUSH1 0x80 DUP3 ADD MSTORE PUSH1 0xA0 SWAP1 KECCAK256 SWAP2 SWAP1 POP JUMP JUMPDEST PUSH1 0x20 DUP2 LT ISZERO PUSH2 0x1180 JUMPI PUSH1 0x1 DUP2 PUSH1 0x20 SUB PUSH2 0x100 EXP SUB DUP1 NOT DUP4 MLOAD AND DUP2 DUP6 MLOAD AND DUP1 DUP3 OR DUP7 MSTORE POP POP POP PUSH2 0x1215 JUMP JUMPDEST DUP3 DUP3 EQ ISZERO PUSH2 0x118D JUMPI PUSH2 0x1215 JUMP JUMPDEST DUP3 DUP3 GT ISZERO PUSH2 0x11C7 JUMPI PUSH1 0x20 DUP2 SUB SWAP1 POP DUP1 DUP3 ADD DUP2 DUP5 ADD DUP2 MLOAD JUMPDEST DUP3 DUP6 LT ISZERO PUSH2 0x11BF JUMPI DUP5 MLOAD DUP7 MSTORE PUSH1 0x20 SWAP6 DUP7 ADD SWAP6 SWAP1 SWAP5 ADD SWAP4 PUSH2 0x11A4 JUMP JUMPDEST SWAP1 MSTORE POP PUSH2 0x1215 JUMP JUMPDEST PUSH1 0x20 DUP2 SUB SWAP1 POP DUP1 DUP3 ADD DUP2 DUP5 ADD DUP4 MLOAD JUMPDEST DUP2 DUP7 SLT ISZERO PUSH2 0x1210 JUMPI DUP3 MLOAD DUP3 MSTORE PUSH32 0xFFFFFFFFFFFFFFFFFFFFFFFFFFFFFFFFFFFFFFFFFFFFFFFFFFFFFFFFFFFFFFE0 SWAP3 DUP4 ADD SWAP3 SWAP1 SWAP2 ADD SWAP1 PUSH2 0x11D6 JUMP JUMPDEST DUP6 MSTORE POP POP JUMPDEST POP POP POP JUMP JUMPDEST PUSH1 0x20 ADD SWAP1 JUMP JUMPDEST PUSH1 0x40 DUP1 MLOAD PUSH1 0x80 DUP2 ADD DUP3 MSTORE PUSH1 0x0 DUP1 DUP3 MSTORE PUSH1 0x20 DUP3 ADD DUP2 SWAP1 MSTORE PUSH1 0x60 SWAP3 DUP3 ADD DUP4 SWAP1 MSTORE SWAP2 DUP2 ADD SWAP2 SWAP1 SWAP2 MSTORE SWAP1 JUMP JUMPDEST PUSH2 0x180 PUSH1 0x40 MLOAD SWAP1 DUP2 ADD PUSH1 0x40 MSTORE DUP1 PUSH1 0x0 PUSH20 0xFFFFFFFFFFFFFFFFFFFFFFFFFFFFFFFFFFFFFFFF AND DUP2 MSTORE PUSH1 0x20 ADD PUSH1 0x0 PUSH20 0xFFFFFFFFFFFFFFFFFFFFFFFFFFFFFFFFFFFFFFFF AND DUP2 MSTORE PUSH1 0x20 ADD PUSH1 0x0 PUSH20 0xFFFFFFFFFFFFFFFFFFFFFFFFFFFFFFFFFFFFFFFF AND DUP2 MSTORE PUSH1 0x20 ADD PUSH1 0x0 PUSH20 0xFFFFFFFFFFFFFFFFFFFFFFFFFFFFFFFFFFFFFFFF AND DUP2 MSTORE PUSH1 0x20 ADD PUSH1 0x0 DUP2 MSTORE PUSH1 0x20 ADD PUSH1 0x0 DUP2 MSTORE PUSH1 0x20 ADD PUSH1 0x0 DUP2 MSTORE PUSH1 0x20 ADD PUSH1 0x0 DUP2 MSTORE PUSH1 0x20 ADD PUSH1 0x0 DUP2 MSTORE PUSH1 0x20 ADD PUSH1 0x0 DUP2 MSTORE PUSH1 0x20 ADD PUSH1 0x60 DUP2 MSTORE PUSH1 0x20 ADD PUSH1 0x60 DUP2 MSTORE POP SWAP1 JUMP JUMPDEST PUSH1 0x0 PUSH2 0x1042 DUP3 CALLDATALOAD PUSH2 0x2038 JUMP JUMPDEST PUSH1 0x0 PUSH2 0x1042 DUP3 MLOAD PUSH2 0x2038 JUMP JUMPDEST PUSH1 0x0 PUSH1 0x1F DUP3 ADD DUP4 SGT PUSH2 0x132B JUMPI PUSH1 0x0 DUP1 REVERT JUMPDEST DUP2 CALLDATALOAD PUSH2 0x133E PUSH2 0x1339 DUP3 PUSH2 0x1FCD JUMP JUMPDEST PUSH2 0x1FA6 JUMP JUMPDEST DUP2 DUP2 MSTORE PUSH1 0x20 SWAP4 DUP5 ADD SWAP4 SWAP1 SWAP3 POP DUP3 ADD DUP4 PUSH1 0x0 JUMPDEST DUP4 DUP2 LT ISZERO PUSH2 0xF06 JUMPI DUP2 CALLDATALOAD DUP7 ADD PUSH2 0x1366 DUP9 DUP3 PUSH2 0x14B2 JUMP JUMPDEST DUP5 MSTORE POP PUSH1 0x20 SWAP3 DUP4 ADD SWAP3 SWAP2 SWAP1 SWAP2 ADD SWAP1 PUSH1 0x1 ADD PUSH2 0x1350 JUMP JUMPDEST PUSH1 0x0 PUSH1 0x1F DUP3 ADD DUP4 SGT PUSH2 0x138D JUMPI PUSH1 0x0 DUP1 REVERT JUMPDEST DUP2 MLOAD PUSH2 0x139B PUSH2 0x1339 DUP3 PUSH2 0x1FCD JUMP JUMPDEST DUP2 DUP2 MSTORE PUSH1 0x20 SWAP4 DUP5 ADD SWAP4 SWAP1 SWAP3 POP DUP3 ADD DUP4 PUSH1 0x0 JUMPDEST DUP4 DUP2 LT ISZERO PUSH2 0xF06 JUMPI DUP2 MLOAD DUP7 ADD PUSH2 0x13C3 DUP9 DUP3 PUSH2 0x1690 JUMP JUMPDEST DUP5 MSTORE POP PUSH1 0x20 SWAP3 DUP4 ADD SWAP3 SWAP2 SWAP1 SWAP2 ADD SWAP1 PUSH1 0x1 ADD PUSH2 0x13AD JUMP JUMPDEST PUSH1 0x0 PUSH1 0x1F DUP3 ADD DUP4 SGT PUSH2 0x13EA JUMPI PUSH1 0x0 DUP1 REVERT JUMPDEST DUP2 CALLDATALOAD PUSH2 0x13F8 PUSH2 0x1339 DUP3 PUSH2 0x1FCD JUMP JUMPDEST DUP2 DUP2 MSTORE PUSH1 0x20 SWAP4 DUP5 ADD SWAP4 SWAP1 SWAP3 POP DUP3 ADD DUP4 PUSH1 0x0 JUMPDEST DUP4 DUP2 LT ISZERO PUSH2 0xF06 JUMPI DUP2 CALLDATALOAD DUP7 ADD PUSH2 0x1420 DUP9 DUP3 PUSH2 0x1547 JUMP JUMPDEST DUP5 MSTORE POP PUSH1 0x20 SWAP3 DUP4 ADD SWAP3 SWAP2 SWAP1 SWAP2 ADD SWAP1 PUSH1 0x1 ADD PUSH2 0x140A JUMP JUMPDEST PUSH1 0x0 PUSH1 0x1F DUP3 ADD DUP4 SGT PUSH2 0x1447 JUMPI PUSH1 0x0 DUP1 REVERT JUMPDEST DUP2 CALLDATALOAD PUSH2 0x1455 PUSH2 0x1339 DUP3 PUSH2 0x1FCD JUMP JUMPDEST SWAP2 POP DUP2 DUP2 DUP4 MSTORE PUSH1 0x20 DUP5 ADD SWAP4 POP PUSH1 0x20 DUP2 ADD SWAP1 POP DUP4 DUP6 PUSH1 0x20 DUP5 MUL DUP3 ADD GT ISZERO PUSH2 0x147A JUMPI PUSH1 0x0 DUP1 REVERT JUMPDEST PUSH1 0x0 JUMPDEST DUP4 DUP2 LT ISZERO PUSH2 0xF06 JUMPI DUP2 PUSH2 0x1490 DUP9 DUP3 PUSH2 0x14A6 JUMP JUMPDEST DUP5 MSTORE POP PUSH1 0x20 SWAP3 DUP4 ADD SWAP3 SWAP2 SWAP1 SWAP2 ADD SWAP1 PUSH1 0x1 ADD PUSH2 0x147D JUMP JUMPDEST PUSH1 0x0 PUSH2 0x1042 DUP3 CALLDATALOAD PUSH2 0x2043 JUMP JUMPDEST PUSH1 0x0 PUSH1 0x1F DUP3 ADD DUP4 SGT PUSH2 0x14C3 JUMPI PUSH1 0x0 DUP1 REVERT JUMPDEST DUP2 CALLDATALOAD PUSH2 0x14D1 PUSH2 0x1339 DUP3 PUSH2 0x1FEE JUMP JUMPDEST SWAP2 POP DUP1 DUP3 MSTORE PUSH1 0x20 DUP4 ADD PUSH1 0x20 DUP4 ADD DUP6 DUP4 DUP4 ADD GT ISZERO PUSH2 0x14ED JUMPI PUSH1 0x0 DUP1 REVERT JUMPDEST PUSH2 0x14F8 DUP4 DUP3 DUP5 PUSH2 0x205F JUMP JUMPDEST POP POP POP SWAP3 SWAP2 POP POP JUMP JUMPDEST PUSH1 0x0 PUSH1 0x1F DUP3 ADD DUP4 SGT PUSH2 0x1512 JUMPI PUSH1 0x0 DUP1 REVERT JUMPDEST DUP2 MLOAD PUSH2 0x1520 PUSH2 0x1339 DUP3 PUSH2 0x1FEE JUMP JUMPDEST SWAP2 POP DUP1 DUP3 MSTORE PUSH1 0x20 DUP4 ADD PUSH1 0x20 DUP4 ADD DUP6 DUP4 DUP4 ADD GT ISZERO PUSH2 0x153C JUMPI PUSH1 0x0 DUP1 REVERT JUMPDEST PUSH2 0x14F8 DUP4 DUP3 DUP5 PUSH2 0x206B JUMP JUMPDEST PUSH1 0x0 PUSH2 0x180 DUP3 DUP5 SUB SLT ISZERO PUSH2 0x155A JUMPI PUSH1 0x0 DUP1 REVERT JUMPDEST PUSH2 0x1565 PUSH2 0x180 PUSH2 0x1FA6 JUMP JUMPDEST SWAP1 POP PUSH1 0x0 PUSH2 0x1573 DUP5 DUP5 PUSH2 0x1302 JUMP JUMPDEST DUP3 MSTORE POP PUSH1 0x20 PUSH2 0x1584 DUP5 DUP5 DUP4 ADD PUSH2 0x1302 JUMP JUMPDEST PUSH1 0x20 DUP4 ADD MSTORE POP PUSH1 0x40 PUSH2 0x1598 DUP5 DUP3 DUP6 ADD PUSH2 0x1302 JUMP JUMPDEST PUSH1 0x40 DUP4 ADD MSTORE POP PUSH1 0x60 PUSH2 0x15AC DUP5 DUP3 DUP6 ADD PUSH2 0x1302 JUMP JUMPDEST PUSH1 0x60 DUP4 ADD MSTORE POP PUSH1 0x80 PUSH2 0x15C0 DUP5 DUP3 DUP6 ADD PUSH2 0x14A6 JUMP JUMPDEST PUSH1 0x80 DUP4 ADD MSTORE POP PUSH1 0xA0 PUSH2 0x15D4 DUP5 DUP3 DUP6 ADD PUSH2 0x14A6 JUMP JUMPDEST PUSH1 0xA0 DUP4 ADD MSTORE POP PUSH1 0xC0 PUSH2 0x15E8 DUP5 DUP3 DUP6 ADD PUSH2 0x14A6 JUMP JUMPDEST PUSH1 0xC0 DUP4 ADD MSTORE POP PUSH1 0xE0 PUSH2 0x15FC DUP5 DUP3 DUP6 ADD PUSH2 0x14A6 JUMP JUMPDEST PUSH1 0xE0 DUP4 ADD MSTORE POP PUSH2 0x100 PUSH2 0x1611 DUP5 DUP3 DUP6 ADD PUSH2 0x14A6 JUMP JUMPDEST PUSH2 0x100 DUP4 ADD MSTORE POP PUSH2 0x120 PUSH2 0x1627 DUP5 DUP3 DUP6 ADD PUSH2 0x14A6 JUMP JUMPDEST PUSH2 0x120 DUP4 ADD MSTORE POP PUSH2 0x140 DUP3 ADD CALLDATALOAD PUSH8 0xFFFFFFFFFFFFFFFF DUP2 GT ISZERO PUSH2 0x1649 JUMPI PUSH1 0x0 DUP1 REVERT JUMPDEST PUSH2 0x1655 DUP5 DUP3 DUP6 ADD PUSH2 0x14B2 JUMP JUMPDEST PUSH2 0x140 DUP4 ADD MSTORE POP PUSH2 0x160 DUP3 ADD CALLDATALOAD PUSH8 0xFFFFFFFFFFFFFFFF DUP2 GT ISZERO PUSH2 0x1677 JUMPI PUSH1 0x0 DUP1 REVERT JUMPDEST PUSH2 0x1683 DUP5 DUP3 DUP6 ADD PUSH2 0x14B2 JUMP JUMPDEST PUSH2 0x160 DUP4 ADD MSTORE POP SWAP3 SWAP2 POP POP JUMP JUMPDEST PUSH1 0x0 PUSH2 0x180 DUP3 DUP5 SUB SLT ISZERO PUSH2 0x16A3 JUMPI PUSH1 0x0 DUP1 REVERT JUMPDEST PUSH2 0x16AE PUSH2 0x180 PUSH2 0x1FA6 JUMP JUMPDEST SWAP1 POP PUSH1 0x0 PUSH2 0x16BC DUP5 DUP5 PUSH2 0x130E JUMP JUMPDEST DUP3 MSTORE POP PUSH1 0x20 PUSH2 0x16CD DUP5 DUP5 DUP4 ADD PUSH2 0x130E JUMP JUMPDEST PUSH1 0x20 DUP4 ADD MSTORE POP PUSH1 0x40 PUSH2 0x16E1 DUP5 DUP3 DUP6 ADD PUSH2 0x130E JUMP JUMPDEST PUSH1 0x40 DUP4 ADD MSTORE POP PUSH1 0x60 PUSH2 0x16F5 DUP5 DUP3 DUP6 ADD PUSH2 0x130E JUMP JUMPDEST PUSH1 0x60 DUP4 ADD MSTORE POP PUSH1 0x80 PUSH2 0x1709 DUP5 DUP3 DUP6 ADD PUSH2 0x183F JUMP JUMPDEST PUSH1 0x80 DUP4 ADD MSTORE POP PUSH1 0xA0 PUSH2 0x171D DUP5 DUP3 DUP6 ADD PUSH2 0x183F JUMP JUMPDEST PUSH1 0xA0 DUP4 ADD MSTORE POP PUSH1 0xC0 PUSH2 0x1731 DUP5 DUP3 DUP6 ADD PUSH2 0x183F JUMP JUMPDEST PUSH1 0xC0 DUP4 ADD MSTORE POP PUSH1 0xE0 PUSH2 0x1745 DUP5 DUP3 DUP6 ADD PUSH2 0x183F JUMP JUMPDEST PUSH1 0xE0 DUP4 ADD MSTORE POP PUSH2 0x100 PUSH2 0x175A DUP5 DUP3 DUP6 ADD PUSH2 0x183F JUMP JUMPDEST PUSH2 0x100 DUP4 ADD MSTORE POP PUSH2 0x120 PUSH2 0x1770 DUP5 DUP3 DUP6 ADD PUSH2 0x183F JUMP JUMPDEST PUSH2 0x120 DUP4 ADD MSTORE POP PUSH2 0x140 DUP3 ADD MLOAD PUSH8 0xFFFFFFFFFFFFFFFF DUP2 GT ISZERO PUSH2 0x1792 JUMPI PUSH1 0x0 DUP1 REVERT JUMPDEST PUSH2 0x179E DUP5 DUP3 DUP6 ADD PUSH2 0x1501 JUMP JUMPDEST PUSH2 0x140 DUP4 ADD MSTORE POP PUSH2 0x160 DUP3 ADD MLOAD PUSH8 0xFFFFFFFFFFFFFFFF DUP2 GT ISZERO PUSH2 0x17C0 JUMPI PUSH1 0x0 DUP1 REVERT JUMPDEST PUSH2 0x1683 DUP5 DUP3 DUP6 ADD PUSH2 0x1501 JUMP JUMPDEST PUSH1 0x0 PUSH1 0x60 DUP3 DUP5 SUB SLT ISZERO PUSH2 0x17DE JUMPI PUSH1 0x0 DUP1 REVERT JUMPDEST PUSH2 0x17E8 PUSH1 0x60 PUSH2 0x1FA6 JUMP JUMPDEST SWAP1 POP PUSH1 0x0 PUSH2 0x17F6 DUP5 DUP5 PUSH2 0x14A6 JUMP JUMPDEST DUP3 MSTORE POP PUSH1 0x20 PUSH2 0x1807 DUP5 DUP5 DUP4 ADD PUSH2 0x1302 JUMP JUMPDEST PUSH1 0x20 DUP4 ADD MSTORE POP PUSH1 0x40 DUP3 ADD CALLDATALOAD PUSH8 0xFFFFFFFFFFFFFFFF DUP2 GT ISZERO PUSH2 0x1827 JUMPI PUSH1 0x0 DUP1 REVERT JUMPDEST PUSH2 0x1833 DUP5 DUP3 DUP6 ADD PUSH2 0x14B2 JUMP JUMPDEST PUSH1 0x40 DUP4 ADD MSTORE POP SWAP3 SWAP2 POP POP JUMP JUMPDEST PUSH1 0x0 PUSH2 0x1042 DUP3 MLOAD PUSH2 0x2043 JUMP JUMPDEST PUSH1 0x0 PUSH1 0x20 DUP3 DUP5 SUB SLT ISZERO PUSH2 0x185D JUMPI PUSH1 0x0 DUP1 REVERT JUMPDEST DUP2 MLOAD PUSH8 0xFFFFFFFFFFFFFFFF DUP2 GT ISZERO PUSH2 0x1874 JUMPI PUSH1 0x0 DUP1 REVERT JUMPDEST PUSH2 0x1880 DUP5 DUP3 DUP6 ADD PUSH2 0x137C JUMP JUMPDEST SWAP5 SWAP4 POP POP POP POP JUMP JUMPDEST PUSH1 0x0 DUP1 PUSH1 0x40 DUP4 DUP6 SUB SLT ISZERO PUSH2 0x189B JUMPI PUSH1 0x0 DUP1 REVERT JUMPDEST PUSH1 0x0 PUSH2 0x18A7 DUP6 DUP6 PUSH2 0x14A6 JUMP JUMPDEST SWAP3 POP POP PUSH1 0x20 DUP4 ADD CALLDATALOAD PUSH8 0xFFFFFFFFFFFFFFFF DUP2 GT ISZERO PUSH2 0x18C4 JUMPI PUSH1 0x0 DUP1 REVERT JUMPDEST PUSH2 0x18D0 DUP6 DUP3 DUP7 ADD PUSH2 0x14B2 JUMP JUMPDEST SWAP2 POP POP SWAP3 POP SWAP3 SWAP1 POP JUMP JUMPDEST PUSH1 0x0 PUSH1 0x20 DUP3 DUP5 SUB SLT ISZERO PUSH2 0x18EC JUMPI PUSH1 0x0 DUP1 REVERT JUMPDEST DUP2 MLOAD PUSH8 0xFFFFFFFFFFFFFFFF DUP2 GT ISZERO PUSH2 0x1903 JUMPI PUSH1 0x0 DUP1 REVERT JUMPDEST PUSH2 0x1880 DUP5 DUP3 DUP6 ADD PUSH2 0x1690 JUMP JUMPDEST PUSH1 0x0 DUP1 PUSH1 0x40 DUP4 DUP6 SUB SLT ISZERO PUSH2 0x1922 JUMPI PUSH1 0x0 DUP1 REVERT JUMPDEST DUP3 MLOAD PUSH8 0xFFFFFFFFFFFFFFFF DUP2 GT ISZERO PUSH2 0x1939 JUMPI PUSH1 0x0 DUP1 REVERT JUMPDEST PUSH2 0x1945 DUP6 DUP3 DUP7 ADD PUSH2 0x1690 JUMP JUMPDEST SWAP3 POP POP PUSH1 0x20 DUP4 ADD MLOAD PUSH8 0xFFFFFFFFFFFFFFFF DUP2 GT ISZERO PUSH2 0x1962 JUMPI PUSH1 0x0 DUP1 REVERT JUMPDEST PUSH2 0x18D0 DUP6 DUP3 DUP7 ADD PUSH2 0x1690 JUMP JUMPDEST PUSH1 0x0 DUP1 PUSH1 0x0 DUP1 PUSH1 0x0 PUSH1 0xA0 DUP7 DUP9 SUB SLT ISZERO PUSH2 0x1986 JUMPI PUSH1 0x0 DUP1 REVERT JUMPDEST DUP6 CALLDATALOAD PUSH8 0xFFFFFFFFFFFFFFFF DUP2 GT ISZERO PUSH2 0x199D JUMPI PUSH1 0x0 DUP1 REVERT JUMPDEST PUSH2 0x19A9 DUP9 DUP3 DUP10 ADD PUSH2 0x17CC JUMP JUMPDEST SWAP6 POP POP PUSH1 0x20 PUSH2 0x19BA DUP9 DUP3 DUP10 ADD PUSH2 0x1302 JUMP JUMPDEST SWAP5 POP POP PUSH1 0x40 DUP7 ADD CALLDATALOAD PUSH8 0xFFFFFFFFFFFFFFFF DUP2 GT ISZERO PUSH2 0x19D7 JUMPI PUSH1 0x0 DUP1 REVERT JUMPDEST PUSH2 0x19E3 DUP9 DUP3 DUP10 ADD PUSH2 0x14B2 JUMP JUMPDEST SWAP4 POP POP PUSH1 0x60 DUP7 ADD CALLDATALOAD PUSH8 0xFFFFFFFFFFFFFFFF DUP2 GT ISZERO PUSH2 0x1A00 JUMPI PUSH1 0x0 DUP1 REVERT JUMPDEST PUSH2 0x1A0C DUP9 DUP3 DUP10 ADD PUSH2 0x1436 JUMP JUMPDEST SWAP3 POP POP PUSH1 0x80 DUP7 ADD CALLDATALOAD PUSH8 0xFFFFFFFFFFFFFFFF DUP2 GT ISZERO PUSH2 0x1A29 JUMPI PUSH1 0x0 DUP1 REVERT JUMPDEST PUSH2 0x1A35 DUP9 DUP3 DUP10 ADD PUSH2 0x131A JUMP JUMPDEST SWAP2 POP POP SWAP3 SWAP6 POP SWAP3 SWAP6 SWAP1 SWAP4 POP JUMP JUMPDEST PUSH1 0x0 DUP1 PUSH1 0x0 DUP1 PUSH1 0x0 DUP1 PUSH1 0xC0 DUP8 DUP10 SUB SLT ISZERO PUSH2 0x1A5B JUMPI PUSH1 0x0 DUP1 REVERT JUMPDEST DUP7 CALLDATALOAD PUSH8 0xFFFFFFFFFFFFFFFF DUP2 GT ISZERO PUSH2 0x1A72 JUMPI PUSH1 0x0 DUP1 REVERT JUMPDEST PUSH2 0x1A7E DUP10 DUP3 DUP11 ADD PUSH2 0x17CC JUMP JUMPDEST SWAP7 POP POP PUSH1 0x20 DUP8 ADD CALLDATALOAD PUSH8 0xFFFFFFFFFFFFFFFF DUP2 GT ISZERO PUSH2 0x1A9B JUMPI PUSH1 0x0 DUP1 REVERT JUMPDEST PUSH2 0x1AA7 DUP10 DUP3 DUP11 ADD PUSH2 0x13D9 JUMP JUMPDEST SWAP6 POP POP PUSH1 0x40 PUSH2 0x1AB8 DUP10 DUP3 DUP11 ADD PUSH2 0x1302 JUMP JUMPDEST SWAP5 POP POP PUSH1 0x60 DUP8 ADD CALLDATALOAD PUSH8 0xFFFFFFFFFFFFFFFF DUP2 GT ISZERO PUSH2 0x1AD5 JUMPI PUSH1 0x0 DUP1 REVERT JUMPDEST PUSH2 0x1AE1 DUP10 DUP3 DUP11 ADD PUSH2 0x14B2 JUMP JUMPDEST SWAP4 POP POP PUSH1 0x80 DUP8 ADD CALLDATALOAD PUSH8 0xFFFFFFFFFFFFFFFF DUP2 GT ISZERO PUSH2 0x1AFE JUMPI PUSH1 0x0 DUP1 REVERT JUMPDEST PUSH2 0x1B0A DUP10 DUP3 DUP11 ADD PUSH2 0x1436 JUMP JUMPDEST SWAP3 POP POP PUSH1 0xA0 DUP8 ADD CALLDATALOAD PUSH8 0xFFFFFFFFFFFFFFFF DUP2 GT ISZERO PUSH2 0x1B27 JUMPI PUSH1 0x0 DUP1 REVERT JUMPDEST PUSH2 0x1B33 DUP10 DUP3 DUP11 ADD PUSH2 0x131A JUMP JUMPDEST SWAP2 POP POP SWAP3 SWAP6 POP SWAP3 SWAP6 POP SWAP3 SWAP6 JUMP JUMPDEST PUSH2 0x1B49 DUP2 PUSH2 0x2038 JUMP JUMPDEST DUP3 MSTORE POP POP JUMP JUMPDEST PUSH2 0x1B49 DUP2 PUSH2 0x2043 JUMP JUMPDEST PUSH1 0x0 PUSH2 0x1B63 DUP3 PUSH2 0x2034 JUMP JUMPDEST DUP1 DUP5 MSTORE PUSH2 0x1B77 DUP2 PUSH1 0x20 DUP7 ADD PUSH1 0x20 DUP7 ADD PUSH2 0x206B JUMP JUMPDEST PUSH2 0x1B80 DUP2 PUSH2 0x209B JUMP JUMPDEST SWAP1 SWAP4 ADD PUSH1 0x20 ADD SWAP4 SWAP3 POP POP POP JUMP JUMPDEST PUSH1 0x12 DUP2 MSTORE PUSH32 0x4C454E4754485F36355F52455155495245440000000000000000000000000000 PUSH1 0x20 DUP3 ADD MSTORE PUSH1 0x40 ADD SWAP1 JUMP JUMPDEST PUSH1 0x1A DUP2 MSTORE PUSH32 0x494E56414C49445F415050524F56414C5F5349474E4154555245000000000000 PUSH1 0x20 DUP3 ADD MSTORE PUSH1 0x40 ADD SWAP1 JUMP JUMPDEST PUSH1 0x1A DUP2 MSTORE PUSH32 0x46524F4D5F4C4553535F5448414E5F544F5F5245515549524544000000000000 PUSH1 0x20 DUP3 ADD MSTORE PUSH1 0x40 ADD SWAP1 JUMP JUMPDEST PUSH1 0x1C DUP2 MSTORE PUSH32 0x544F5F4C4553535F5448414E5F4C454E4754485F524551554952454400000000 PUSH1 0x20 DUP3 ADD MSTORE PUSH1 0x40 ADD SWAP1 JUMP JUMPDEST PUSH1 0x17 DUP2 MSTORE PUSH32 0x494E56414C49445F465245455F4D454D4F52595F505452000000000000000000 PUSH1 0x20 DUP3 ADD MSTORE PUSH1 0x40 ADD SWAP1 JUMP JUMPDEST PUSH1 0x10 DUP2 MSTORE PUSH32 0x415050524F56414C5F4558504952454400000000000000000000000000000000 PUSH1 0x20 DUP3 ADD MSTORE PUSH1 0x40 ADD SWAP1 JUMP JUMPDEST PUSH1 0x26 DUP2 MSTORE PUSH32 0x475245415445525F4F525F455155414C5F544F5F33325F4C454E4754485F5245 PUSH1 0x20 DUP3 ADD MSTORE PUSH32 0x5155495245440000000000000000000000000000000000000000000000000000 PUSH1 0x40 DUP3 ADD MSTORE PUSH1 0x60 ADD SWAP1 JUMP JUMPDEST PUSH1 0x15 DUP2 MSTORE PUSH32 0x5349474E41545552455F554E535550504F525445440000000000000000000000 PUSH1 0x20 DUP3 ADD MSTORE PUSH1 0x40 ADD SWAP1 JUMP JUMPDEST PUSH1 0xE DUP2 MSTORE PUSH32 0x494E56414C49445F4F524947494E000000000000000000000000000000000000 PUSH1 0x20 DUP3 ADD MSTORE PUSH1 0x40 ADD SWAP1 JUMP JUMPDEST PUSH1 0x21 DUP2 MSTORE PUSH32 0x475245415445525F5448414E5F5A45524F5F4C454E4754485F52455155495245 PUSH1 0x20 DUP3 ADD MSTORE PUSH32 0x4400000000000000000000000000000000000000000000000000000000000000 PUSH1 0x40 DUP3 ADD MSTORE PUSH1 0x60 ADD SWAP1 JUMP JUMPDEST PUSH1 0x11 DUP2 MSTORE PUSH32 0x5349474E41545552455F494C4C4547414C000000000000000000000000000000 PUSH1 0x20 DUP3 ADD MSTORE PUSH1 0x40 ADD SWAP1 JUMP JUMPDEST PUSH1 0x1E DUP2 MSTORE PUSH32 0x4C454E4754485F475245415445525F5448414E5F305F52455155495245440000 PUSH1 0x20 DUP3 ADD MSTORE PUSH1 0x40 ADD SWAP1 JUMP JUMPDEST PUSH1 0x25 DUP2 MSTORE PUSH32 0x475245415445525F4F525F455155414C5F544F5F345F4C454E4754485F524551 PUSH1 0x20 DUP3 ADD MSTORE PUSH32 0x5549524544000000000000000000000000000000000000000000000000000000 PUSH1 0x40 DUP3 ADD MSTORE PUSH1 0x60 ADD SWAP1 JUMP JUMPDEST PUSH1 0x20 DUP2 ADD PUSH2 0x4F1 DUP3 DUP5 PUSH2 0x1B40 JUMP JUMPDEST PUSH1 0x20 DUP2 ADD PUSH2 0x4F1 DUP3 DUP5 PUSH2 0x1B4F JUMP JUMPDEST PUSH1 0x20 DUP1 DUP3 MSTORE DUP2 ADD PUSH2 0x4F1 DUP2 PUSH2 0x1B8D JUMP JUMPDEST PUSH1 0x20 DUP1 DUP3 MSTORE DUP2 ADD PUSH2 0x4F1 DUP2 PUSH2 0x1BBD JUMP JUMPDEST PUSH1 0x20 DUP1 DUP3 MSTORE DUP2 ADD PUSH2 0x4F1 DUP2 PUSH2 0x1BED JUMP JUMPDEST PUSH1 0x20 DUP1 DUP3 MSTORE DUP2 ADD PUSH2 0x4F1 DUP2 PUSH2 0x1C1D JUMP JUMPDEST PUSH1 0x20 DUP1 DUP3 MSTORE DUP2 ADD PUSH2 0x4F1 DUP2 PUSH2 0x1C4D JUMP JUMPDEST PUSH1 0x20 DUP1 DUP3 MSTORE DUP2 ADD PUSH2 0x4F1 DUP2 PUSH2 0x1C7D JUMP JUMPDEST PUSH1 0x20 DUP1 DUP3 MSTORE DUP2 ADD PUSH2 0x4F1 DUP2 PUSH2 0x1CAD JUMP JUMPDEST PUSH1 0x20 DUP1 DUP3 MSTORE DUP2 ADD PUSH2 0x4F1 DUP2 PUSH2 0x1D03 JUMP JUMPDEST PUSH1 0x20 DUP1 DUP3 MSTORE DUP2 ADD PUSH2 0x4F1 DUP2 PUSH2 0x1D33 JUMP JUMPDEST PUSH1 0x20 DUP1 DUP3 MSTORE DUP2 ADD PUSH2 0x4F1 DUP2 PUSH2 0x1D63 JUMP JUMPDEST PUSH1 0x20 DUP1 DUP3 MSTORE DUP2 ADD PUSH2 0x4F1 DUP2 PUSH2 0x1DB9 JUMP JUMPDEST PUSH1 0x20 DUP1 DUP3 MSTORE DUP2 ADD PUSH2 0x4F1 DUP2 PUSH2 0x1DE9 JUMP JUMPDEST PUSH1 0x20 DUP1 DUP3 MSTORE DUP2 ADD PUSH2 0x4F1 DUP2 PUSH2 0x1E19 JUMP JUMPDEST PUSH1 0x80 DUP2 ADD PUSH2 0x1F69 DUP3 DUP8 PUSH2 0x1B4F JUMP JUMPDEST PUSH2 0x1F76 PUSH1 0x20 DUP4 ADD DUP7 PUSH2 0x1B40 JUMP JUMPDEST DUP2 DUP2 SUB PUSH1 0x40 DUP4 ADD MSTORE PUSH2 0x1F88 DUP2 DUP6 PUSH2 0x1B58 JUMP JUMPDEST SWAP1 POP DUP2 DUP2 SUB PUSH1 0x60 DUP4 ADD MSTORE PUSH2 0x1F9C DUP2 DUP5 PUSH2 0x1B58 JUMP JUMPDEST SWAP7 SWAP6 POP POP POP POP POP POP JUMP JUMPDEST PUSH1 0x40 MLOAD DUP2 DUP2 ADD PUSH8 0xFFFFFFFFFFFFFFFF DUP2 GT DUP3 DUP3 LT OR ISZERO PUSH2 0x1FC5 JUMPI PUSH1 0x0 DUP1 REVERT JUMPDEST PUSH1 0x40 MSTORE SWAP2 SWAP1 POP JUMP JUMPDEST PUSH1 0x0 PUSH8 0xFFFFFFFFFFFFFFFF DUP3 GT ISZERO PUSH2 0x1FE4 JUMPI PUSH1 0x0 DUP1 REVERT JUMPDEST POP PUSH1 0x20 SWAP1 DUP2 MUL ADD SWAP1 JUMP JUMPDEST PUSH1 0x0 PUSH8 0xFFFFFFFFFFFFFFFF DUP3 GT ISZERO PUSH2 0x2005 JUMPI PUSH1 0x0 DUP1 REVERT JUMPDEST POP PUSH1 0x20 PUSH1 0x1F SWAP2 SWAP1 SWAP2 ADD PUSH32 0xFFFFFFFFFFFFFFFFFFFFFFFFFFFFFFFFFFFFFFFFFFFFFFFFFFFFFFFFFFFFFFE0 AND ADD SWAP1 JUMP JUMPDEST MLOAD SWAP1 JUMP JUMPDEST PUSH1 0x0 PUSH2 0x4F1 DUP3 PUSH2 0x2046 JUMP JUMPDEST SWAP1 JUMP JUMPDEST PUSH20 0xFFFFFFFFFFFFFFFFFFFFFFFFFFFFFFFFFFFFFFFF AND SWAP1 JUMP JUMPDEST DUP3 DUP2 DUP4 CALLDATACOPY POP PUSH1 0x0 SWAP2 ADD MSTORE JUMP JUMPDEST PUSH1 0x0 JUMPDEST DUP4 DUP2 LT ISZERO PUSH2 0x2086 JUMPI DUP2 DUP2 ADD MLOAD DUP4 DUP3 ADD MSTORE PUSH1 0x20 ADD PUSH2 0x206E JUMP JUMPDEST DUP4 DUP2 GT ISZERO PUSH2 0x2095 JUMPI PUSH1 0x0 DUP5 DUP5 ADD MSTORE JUMPDEST POP POP POP POP JUMP JUMPDEST PUSH1 0x1F ADD PUSH32 0xFFFFFFFFFFFFFFFFFFFFFFFFFFFFFFFFFFFFFFFFFFFFFFFFFFFFFFFFFFFFFFE0 AND SWAP1 JUMP INVALID LOG2 PUSH6 0x627A7A723058 KECCAK256 SGT 0xbe 0x4e SWAP15 0x28 0x1f CREATE2 SWAP12 PUSH12 0xE3D1C4C7AF6075C7D255EDC6 SIGNEXTEND 0xe4 0x29 0xd2 PC COINBASE 0xf9 DUP16 0x28 PUSH28 0x3E6C6578706572696D656E74616CF500370000000000000000000000 "
			}
		}
	},
	"sourceTreeHashHex": "0xcb9dc4e3588f7417807cc8b901a358efbad1d37ae61794e3031c8f00ac09d41e",
	"compiler": {
		"name": "solc",
		"version": "0.5.3+commit.10d17f24.Linux.g++",
		"settings": {
			"optimizer": {
				"enabled": true,
				"runs": 1000000
			},
			"outputSelection": {
				"*": {
					"*": [
						"abi",
						"evm.bytecode.object",
						"evm.bytecode.sourceMap",
						"evm.deployedBytecode.object",
						"evm.deployedBytecode.sourceMap"
					]
				}
			},
			"evmVersion": "byzantium",
			"remappings": [
				"@0x/contracts-utils=/Users/fabioberger/Documents/projects/0x_project/0x-monorepo-one/contracts/coordinator/node_modules/@0x/contracts-utils",
				"@0x/contracts-exchange-libs=/Users/fabioberger/Documents/projects/0x_project/0x-monorepo-one/contracts/coordinator/node_modules/@0x/contracts-exchange-libs"
			]
		}
	}
}