{
	"schemaVersion": "2.0.0",
	"contractName": "Coordinator",
	"compilerOutput": {
		"abi": [
			{
				"constant": true,
				"inputs": [
					{
						"name": "hash",
						"type": "bytes32"
					},
					{
						"name": "signature",
						"type": "bytes"
					}
				],
				"name": "getSignerAddress",
				"outputs": [
					{
						"name": "signerAddress",
						"type": "address"
					}
				],
				"payable": false,
				"stateMutability": "pure",
				"type": "function"
			},
			{
				"constant": true,
				"inputs": [
					{
						"components": [
							{
								"name": "salt",
								"type": "uint256"
							},
							{
								"name": "signerAddress",
								"type": "address"
							},
							{
								"name": "data",
								"type": "bytes"
							}
						],
						"name": "transaction",
						"type": "tuple"
					}
				],
				"name": "getTransactionHash",
				"outputs": [
					{
						"name": "transactionHash",
						"type": "bytes32"
					}
				],
				"payable": false,
				"stateMutability": "view",
				"type": "function"
			},
			{
				"constant": true,
				"inputs": [
					{
						"components": [
							{
								"name": "txOrigin",
								"type": "address"
							},
							{
								"name": "transactionHash",
								"type": "bytes32"
							},
							{
								"name": "transactionSignature",
								"type": "bytes"
							},
							{
								"name": "approvalExpirationTimeSeconds",
								"type": "uint256"
							}
						],
						"name": "approval",
						"type": "tuple"
					}
				],
				"name": "getCoordinatorApprovalHash",
				"outputs": [
					{
						"name": "approvalHash",
						"type": "bytes32"
					}
				],
				"payable": false,
				"stateMutability": "view",
				"type": "function"
			},
			{
				"constant": false,
				"inputs": [
					{
						"components": [
							{
								"name": "salt",
								"type": "uint256"
							},
							{
								"name": "signerAddress",
								"type": "address"
							},
							{
								"name": "data",
								"type": "bytes"
							}
						],
						"name": "transaction",
						"type": "tuple"
					},
					{
						"name": "txOrigin",
						"type": "address"
					},
					{
						"name": "transactionSignature",
						"type": "bytes"
					},
					{
						"name": "approvalExpirationTimeSeconds",
						"type": "uint256[]"
					},
					{
						"name": "approvalSignatures",
						"type": "bytes[]"
					}
				],
				"name": "executeTransaction",
				"outputs": [],
				"payable": false,
				"stateMutability": "nonpayable",
				"type": "function"
			},
			{
				"constant": true,
				"inputs": [],
				"name": "EIP712_EXCHANGE_DOMAIN_HASH",
				"outputs": [
					{
						"name": "",
						"type": "bytes32"
					}
				],
				"payable": false,
				"stateMutability": "view",
				"type": "function"
			},
			{
				"constant": true,
				"inputs": [
					{
						"components": [
							{
								"name": "salt",
								"type": "uint256"
							},
							{
								"name": "signerAddress",
								"type": "address"
							},
							{
								"name": "data",
								"type": "bytes"
							}
						],
						"name": "transaction",
						"type": "tuple"
					},
					{
						"name": "txOrigin",
						"type": "address"
					},
					{
						"name": "transactionSignature",
						"type": "bytes"
					},
					{
						"name": "approvalExpirationTimeSeconds",
						"type": "uint256[]"
					},
					{
						"name": "approvalSignatures",
						"type": "bytes[]"
					}
				],
				"name": "assertValidCoordinatorApprovals",
				"outputs": [],
				"payable": false,
				"stateMutability": "view",
				"type": "function"
			},
			{
				"constant": true,
				"inputs": [
					{
						"name": "data",
						"type": "bytes"
					}
				],
				"name": "decodeOrdersFromFillData",
				"outputs": [
					{
						"components": [
							{
								"name": "makerAddress",
								"type": "address"
							},
							{
								"name": "takerAddress",
								"type": "address"
							},
							{
								"name": "feeRecipientAddress",
								"type": "address"
							},
							{
								"name": "senderAddress",
								"type": "address"
							},
							{
								"name": "makerAssetAmount",
								"type": "uint256"
							},
							{
								"name": "takerAssetAmount",
								"type": "uint256"
							},
							{
								"name": "makerFee",
								"type": "uint256"
							},
							{
								"name": "takerFee",
								"type": "uint256"
							},
							{
								"name": "expirationTimeSeconds",
								"type": "uint256"
							},
							{
								"name": "salt",
								"type": "uint256"
							},
							{
								"name": "makerAssetData",
								"type": "bytes"
							},
							{
								"name": "takerAssetData",
								"type": "bytes"
							}
						],
						"name": "orders",
						"type": "tuple[]"
					}
				],
				"payable": false,
				"stateMutability": "pure",
				"type": "function"
			},
			{
				"constant": true,
				"inputs": [],
				"name": "EIP712_COORDINATOR_DOMAIN_HASH",
				"outputs": [
					{
						"name": "",
						"type": "bytes32"
					}
				],
				"payable": false,
				"stateMutability": "view",
				"type": "function"
			},
			{
				"inputs": [
					{
						"name": "_exchange",
						"type": "address"
					},
					{
						"name": "_chainId",
						"type": "uint256"
					}
				],
				"payable": false,
				"stateMutability": "nonpayable",
				"type": "constructor"
			}
		],
		"evm": {
			"bytecode": {
				"linkReferences": {},
				"object": "0x60806040523480156200001157600080fd5b50604051604080620023508339810180604052620000339190810190620001de565b600080546001600160a01b0319166001600160a01b0384161790556001819055604080518082018252601781527f30782050726f746f636f6c20436f6f7264696e61746f720000000000000000006020808301919091528251808401909352600583527f322e302e3000000000000000000000000000000000000000000000000000000083820152620000cd9290309062000163811b901c565b600255604080518082018252600b81527f30782050726f746f636f6c0000000000000000000000000000000000000000006020808301919091528251808401909352600583527f332e302e30000000000000000000000000000000000000000000000000000000838201526000546200015793916001600160a01b039091169062000163811b901c565b60035550620003179050565b6000604051602001620001769062000230565b6040516020818303038152906040528051906020012084805190602001208480519060200120600154856001600160a01b0316604051602001620001bf9594939291906200020d565b6040516020818303038152906040528051906020012090509392505050565b60008060408385031215620001f257600080fd5b6001600160a01b038351169150602083015190509250929050565b948552602085019390935260408401919091526060830152608082015260a00190565b7f454950373132446f6d61696e280000000000000000000000000000000000000081527f737472696e67206e616d652c0000000000000000000000000000000000000000600d8201527f737472696e672076657273696f6e2c000000000000000000000000000000000060198201527f75696e7432353620636861696e49642c0000000000000000000000000000000060288201527f6164647265737320766572696679696e67436f6e74726163740000000000000060388201527f2900000000000000000000000000000000000000000000000000000000000000605182015260520190565b61202980620003276000396000f3fe608060405234801561001057600080fd5b50600436106100885760003560e01c8063c26cfecd1161005b578063c26cfecd146100fe578063d2df073314610106578063ee55b96814610119578063fb6961cc1461013957610088565b80630f7d8e391461008d57806323872f55146100b657806348a321d6146100d657806390c3bc3f146100e9575b600080fd5b6100a061009b3660046115f5565b610141565b6040516100ad91906119a2565b60405180910390f35b6100c96100c43660046117b9565b6104d7565b6040516100ad9190611af7565b6100c96100e4366004611679565b6104ea565b6100fc6100f73660046117ee565b6104fd565b005b6100c96105a9565b6100fc6101143660046117ee565b6105af565b61012c61012736600461163c565b6105de565b6040516100ad91906119c3565b6100c9610a92565b600080825111610186576040517f08c379a000000000000000000000000000000000000000000000000000000000815260040161017d90611dc7565b60405180910390fd5b600061019183610a98565b60f81c9050600460ff8216106101d3576040517f08c379a000000000000000000000000000000000000000000000000000000000815260040161017d90611cc5565b60008160ff1660048111156101e457fe5b905060008160048111156101f457fe5b141561022c576040517f08c379a000000000000000000000000000000000000000000000000000000000815260040161017d90611d90565b600181600481111561023a57fe5b14156102ab57835115610279576040517f08c379a000000000000000000000000000000000000000000000000000000000815260040161017d90611e92565b6040517f08c379a000000000000000000000000000000000000000000000000000000000815260040161017d90611dfe565b60028160048111156102b957fe5b14156103be5783516041146102fa576040517f08c379a000000000000000000000000000000000000000000000000000000000815260040161017d90611b1e565b60008460008151811061030957fe5b016020015160f890811c811b901c9050600061032c86600163ffffffff610b1b16565b9050600061034187602163ffffffff610b1b16565b9050600188848484604051600081526020016040526040516103669493929190611b00565b6020604051602081039080840390855afa158015610388573d6000803e3d6000fd5b50506040517fffffffffffffffffffffffffffffffffffffffffffffffffffffffffffffffe0015196506104d195505050505050565b60038160048111156103cc57fe5b141561049f57835160411461040d576040517f08c379a000000000000000000000000000000000000000000000000000000000815260040161017d90611b1e565b60008460008151811061041c57fe5b016020015160f890811c811b901c9050600061043f86600163ffffffff610b1b16565b9050600061045487602163ffffffff610b1b16565b90506001886040516020016104699190611971565b60405160208183030381529060405280519060200120848484604051600081526020016040526040516103669493929190611b00565b6040517f08c379a000000000000000000000000000000000000000000000000000000000815260040161017d90611cc5565b92915050565b60006104d16104e583610b64565b610bd2565b60006104d16104f883610be0565b610c3f565b61050a85858585856105af565b6000548551602087015160408089015190517fbfc8bfce00000000000000000000000000000000000000000000000000000000815273ffffffffffffffffffffffffffffffffffffffff9094169363bfc8bfce9361057093909290918990600401611ec9565b600060405180830381600087803b15801561058a57600080fd5b505af115801561059e573d6000803e3d6000fd5b505050505050505050565b60035481565b60606105be86604001516105de565b8051909150156105d6576105d6868287878787610c4d565b505050505050565b606060006105f2838263ffffffff610e9b16565b90507fffffffff0000000000000000000000000000000000000000000000000000000081167fb4be83d500000000000000000000000000000000000000000000000000000000148061068557507fffffffff0000000000000000000000000000000000000000000000000000000081167f3e228bae00000000000000000000000000000000000000000000000000000000145b806106d157507fffffffff0000000000000000000000000000000000000000000000000000000081167f64a3bc1500000000000000000000000000000000000000000000000000000000145b1561075a576106de6111de565b83516106f490859060049063ffffffff610f0616565b806020019051610707919081019061172a565b604080516001808252818301909252919250816020015b6107266111de565b81526020019060019003908161071e579050509250808360008151811061074957fe5b602002602001018190525050610a8c565b7fffffffff0000000000000000000000000000000000000000000000000000000081167f297bb70b0000000000000000000000000000000000000000000000000000000014806107eb57507fffffffff0000000000000000000000000000000000000000000000000000000081167f50dde19000000000000000000000000000000000000000000000000000000000145b8061083757507fffffffff0000000000000000000000000000000000000000000000000000000081167f4d0ae54600000000000000000000000000000000000000000000000000000000145b8061088357507fffffffff0000000000000000000000000000000000000000000000000000000081167fe5fa431b00000000000000000000000000000000000000000000000000000000145b806108cf57507fffffffff0000000000000000000000000000000000000000000000000000000081167fa3e2038000000000000000000000000000000000000000000000000000000000145b8061091b57507fffffffff0000000000000000000000000000000000000000000000000000000081167f7e1d980800000000000000000000000000000000000000000000000000000000145b8061096757507fffffffff0000000000000000000000000000000000000000000000000000000081167fdd1c7d1800000000000000000000000000000000000000000000000000000000145b1561099c57825161098290849060049063ffffffff610f0616565b8060200190516109959190810190611569565b9150610a8c565b7fffffffff0000000000000000000000000000000000000000000000000000000081167f3c28d861000000000000000000000000000000000000000000000000000000001415610a8c576109ee6111de565b6109f66111de565b8451610a0c90869060049063ffffffff610f0616565b806020019051610a1f919081019061175f565b60408051600280825260608201909252929450909250816020015b610a426111de565b815260200190600190039081610a3a5790505093508184600081518110610a6557fe5b60200260200101819052508084600181518110610a7e57fe5b602002602001018190525050505b50919050565b60025481565b600080825111610ad4576040517f08c379a000000000000000000000000000000000000000000000000000000000815260040161017d90611d33565b81600183510381518110610ae457fe5b016020015182517fffffffffffffffffffffffffffffffffffffffffffffffffffffffffffffffff019092525060f890811c901b90565b60008160200183511015610b5b576040517f08c379a000000000000000000000000000000000000000000000000000000000815260040161017d90611c68565b50016020015190565b604081810151825160209384015182519285019290922083517f213c6f636f3ea94e701c0adf9b2624aa45a6c694f9a292c094f9a81c24b5df4c81529485019190915273ffffffffffffffffffffffffffffffffffffffff9091169183019190915260608201526080902090565b60006104d160035483610fd2565b604080820151825160208085015160608681015185519584019590952086517f2fbcdbaa76bc7589916958ae919dfbef04d23f6bbf26de6ff317b32c6cc01e058152938401949094529482015292830152608082015260a09020919050565b60006104d160025483610fd2565b3273ffffffffffffffffffffffffffffffffffffffff851614610c9c576040517f08c379a000000000000000000000000000000000000000000000000000000000815260040161017d90611cfc565b6000610ca7876104d7565b60408051600080825260208201909252845192935091905b818114610da8576000868281518110610cd457fe5b60200260200101519050610ce6611297565b60405180608001604052808b73ffffffffffffffffffffffffffffffffffffffff1681526020018781526020018a8152602001838152509050428211610d58576040517f08c379a000000000000000000000000000000000000000000000000000000000815260040161017d90611c31565b6000610d63826104ea565b90506000610d84828a8781518110610d7757fe5b6020026020010151610141565b9050610d96878263ffffffff61100c16565b96505060019093019250610cbf915050565b50610db9823263ffffffff61100c16565b885190925060005b818114610e8e57600073ffffffffffffffffffffffffffffffffffffffff168a8281518110610dec57fe5b60200260200101516060015173ffffffffffffffffffffffffffffffffffffffff161415610e1957610e86565b60008a8281518110610e2757fe5b60200260200101516040015190506000610e4a82876110d390919063ffffffff16565b905080610e83576040517f08c379a000000000000000000000000000000000000000000000000000000000815260040161017d90611b55565b50505b600101610dc1565b5050505050505050505050565b60008160040183511015610edb576040517f08c379a000000000000000000000000000000000000000000000000000000000815260040161017d90611e35565b5001602001517fffffffff000000000000000000000000000000000000000000000000000000001690565b606081831115610f42576040517f08c379a000000000000000000000000000000000000000000000000000000000815260040161017d90611b8c565b8351821115610f7d576040517f08c379a000000000000000000000000000000000000000000000000000000000815260040161017d90611bc3565b8282036040519080825280601f01601f191660200182016040528015610faa576020820181803883390190505b509050610fcb610fb982611114565b84610fc387611114565b01835161111a565b9392505050565b6040517f19010000000000000000000000000000000000000000000000000000000000008152600281019290925260228201526042902090565b81516040516060918490602080820280840182019291018285101561105d576040517f08c379a000000000000000000000000000000000000000000000000000000000815260040161017d90611bfa565b828511156110775761107085858361111a565b8497508793505b600182019150602081019050808401925082945081885284604052868860018403815181106110a257fe5b73ffffffffffffffffffffffffffffffffffffffff9092166020928302919091019091015250959695505050505050565b60006020835102602084018181018192505b8083101561110b578251808614156110ff57600194508193505b506020830192506110e5565b50505092915050565b60200190565b6020811015611144576001816020036101000a0380198351168185511680821786525050506111d9565b82821415611151576111d9565b8282111561118b5760208103905080820181840181515b82851015611183578451865260209586019590940193611168565b9052506111d9565b60208103905080820181840183515b818612156111d457825182527fffffffffffffffffffffffffffffffffffffffffffffffffffffffffffffffe0928301929091019061119a565b855250505b505050565b604051806101800160405280600073ffffffffffffffffffffffffffffffffffffffff168152602001600073ffffffffffffffffffffffffffffffffffffffff168152602001600073ffffffffffffffffffffffffffffffffffffffff168152602001600073ffffffffffffffffffffffffffffffffffffffff16815260200160008152602001600081526020016000815260200160008152602001600081526020016000815260200160608152602001606081525090565b6040518060800160405280600073ffffffffffffffffffffffffffffffffffffffff1681526020016000801916815260200160608152602001600081525090565b600082601f8301126112e8578081fd5b81356112fb6112f682611f42565b611f1b565b8181529150602080830190840160005b83811015611338576113238760208435890101611342565b8352602092830192919091019060010161130b565b5050505092915050565b600082601f830112611352578081fd5b81356113606112f682611f63565b915080825283602082850101111561137757600080fd5b8060208401602084013760009082016020015292915050565b600082601f8301126113a157600080fd5b81516113af6112f682611f63565b91508082528360208285010111156113c657600080fd5b6113d7816020840160208601611fbf565b5092915050565b60006101808083850312156113f1578182fd5b6113fa81611f1b565b9150506114078251611fa6565b81526114166020830151611fa6565b60208201526114286040830151611fa6565b604082015261143a6060830151611fa6565b60608201526080820151608082015260a082015160a082015260c082015160c082015260e082015160e08201526101008083015181830152506101208083015181830152506101408083015167ffffffffffffffff8082111561149c57600080fd5b6114a886838701611390565b838501526101609250828501519150808211156114c457600080fd5b506114d185828601611390565b82840152505092915050565b6000606082840312156114ef57600080fd5b6040516060810167ffffffffffffffff828210818311171561151057600080fd5b816040528293508435835273ffffffffffffffffffffffffffffffffffffffff6020860135166020840152604085013591508082111561154f57600080fd5b5061155c85828601611342565b6040830152505092915050565b6000602080838503121561157b578182fd5b825167ffffffffffffffff811115611591578283fd5b80840185601f8201126115a2578384fd5b805191506115b26112f683611f42565b82815283810190828501865b858110156115e7576115d58a8884518801016113de565b845292860192908601906001016115be565b509098975050505050505050565b6000806040838503121561160857600080fd5b82359150602083013567ffffffffffffffff81111561162657600080fd5b61163285828601611342565b9150509250929050565b60006020828403121561164e57600080fd5b813567ffffffffffffffff81111561166557600080fd5b61167184828501611342565b949350505050565b60006020828403121561168a578081fd5b813567ffffffffffffffff808211156116a1578283fd5b818401608081870312156116b3578384fd5b60405192506080830183811083821117156116cc578485fd5b806040525073ffffffffffffffffffffffffffffffffffffffff813516835260208101356020840152604081013582811115611706578485fd5b61171287828401611342565b60408501525060609081013590830152509392505050565b60006020828403121561173c57600080fd5b815167ffffffffffffffff81111561175357600080fd5b611671848285016113de565b6000806040838503121561177257600080fd5b825167ffffffffffffffff8082111561178a57600080fd5b611796868387016113de565b935060208501519150808211156117ac57600080fd5b50611632858286016113de565b6000602082840312156117cb57600080fd5b813567ffffffffffffffff8111156117e257600080fd5b611671848285016114dd565b600080600080600060a08688031215611805578081fd5b853567ffffffffffffffff8082111561181c578283fd5b61182889838a016114dd565b96506020915073ffffffffffffffffffffffffffffffffffffffff8289013516955060408801358181111561185b578384fd5b6118678a828b01611342565b95505060608801358181111561187b578384fd5b8089018a601f82011261188c578485fd5b8035915061189c6112f683611f42565b82815284810190828601868502840187018e10156118b8578788fd5b8793505b848410156118da5780358352600193909301929186019186016118bc565b50965050505060808801359150808211156118f3578283fd5b50611900888289016112d8565b9150509295509295909350565b73ffffffffffffffffffffffffffffffffffffffff169052565b6000815180845261193f816020860160208601611fbf565b601f017fffffffffffffffffffffffffffffffffffffffffffffffffffffffffffffffe0169290920160200192915050565b7f19457468657265756d205369676e6564204d6573736167653a0a3332000000008152601c810191909152603c0190565b73ffffffffffffffffffffffffffffffffffffffff91909116815260200190565b600060208083018184528085518083526040860191506040848202870101925083870160005b82811015611aea577fffffffffffffffffffffffffffffffffffffffffffffffffffffffffffffffc08886030184528151610180611a2887835161190d565b87820151611a388989018261190d565b506040820151611a4b604089018261190d565b506060820151611a5e606089018261190d565b506080820151608088015260a082015160a088015260c082015160c088015260e082015160e08801526101008083015181890152506101208083015181890152506101408083015182828a0152611ab7838a0182611927565b915050610160915081830151888203838a0152611ad48282611927565b98505050948701945050908501906001016119e9565b5092979650505050505050565b90815260200190565b93845260ff9290921660208401526040830152606082015260800190565b60208082526012908201527f4c454e4754485f36355f52455155495245440000000000000000000000000000604082015260600190565b6020808252601a908201527f494e56414c49445f415050524f56414c5f5349474e4154555245000000000000604082015260600190565b6020808252601a908201527f46524f4d5f4c4553535f5448414e5f544f5f5245515549524544000000000000604082015260600190565b6020808252601c908201527f544f5f4c4553535f5448414e5f4c454e4754485f524551554952454400000000604082015260600190565b60208082526017908201527f494e56414c49445f465245455f4d454d4f52595f505452000000000000000000604082015260600190565b60208082526010908201527f415050524f56414c5f4558504952454400000000000000000000000000000000604082015260600190565b60208082526026908201527f475245415445525f4f525f455155414c5f544f5f33325f4c454e4754485f524560408201527f5155495245440000000000000000000000000000000000000000000000000000606082015260800190565b60208082526015908201527f5349474e41545552455f554e535550504f525445440000000000000000000000604082015260600190565b6020808252600e908201527f494e56414c49445f4f524947494e000000000000000000000000000000000000604082015260600190565b60208082526021908201527f475245415445525f5448414e5f5a45524f5f4c454e4754485f5245515549524560408201527f4400000000000000000000000000000000000000000000000000000000000000606082015260800190565b60208082526011908201527f5349474e41545552455f494c4c4547414c000000000000000000000000000000604082015260600190565b6020808252601e908201527f4c454e4754485f475245415445525f5448414e5f305f52455155495245440000604082015260600190565b60208082526011908201527f5349474e41545552455f494e56414c4944000000000000000000000000000000604082015260600190565b60208082526025908201527f475245415445525f4f525f455155414c5f544f5f345f4c454e4754485f52455160408201527f5549524544000000000000000000000000000000000000000000000000000000606082015260800190565b60208082526011908201527f4c454e4754485f305f5245515549524544000000000000000000000000000000604082015260600190565b600085825273ffffffffffffffffffffffffffffffffffffffff8516602083015260806040830152611efe6080830185611927565b8281036060840152611f108185611927565b979650505050505050565b60405181810167ffffffffffffffff81118282101715611f3a57600080fd5b604052919050565b600067ffffffffffffffff821115611f5957600080fd5b5060209081020190565b600067ffffffffffffffff821115611f7a57600080fd5b50601f017fffffffffffffffffffffffffffffffffffffffffffffffffffffffffffffffe01660200190565b73ffffffffffffffffffffffffffffffffffffffff1690565b60005b83811015611fda578181015183820152602001611fc2565b83811115611fe9576000848401525b5050505056fea265627a7a72305820f41b3c8573005b2f51cd7c2271ee78f20ad50fe41357559057656e2abdbfe3b46c6578706572696d656e74616cf50037",
				"opcodes": "PUSH1 0x80 PUSH1 0x40 MSTORE CALLVALUE DUP1 ISZERO PUSH3 0x11 JUMPI PUSH1 0x0 DUP1 REVERT JUMPDEST POP PUSH1 0x40 MLOAD PUSH1 0x40 DUP1 PUSH3 0x2350 DUP4 CODECOPY DUP2 ADD DUP1 PUSH1 0x40 MSTORE PUSH3 0x33 SWAP2 SWAP1 DUP2 ADD SWAP1 PUSH3 0x1DE JUMP JUMPDEST PUSH1 0x0 DUP1 SLOAD PUSH1 0x1 PUSH1 0x1 PUSH1 0xA0 SHL SUB NOT AND PUSH1 0x1 PUSH1 0x1 PUSH1 0xA0 SHL SUB DUP5 AND OR SWAP1 SSTORE PUSH1 0x1 DUP2 SWAP1 SSTORE PUSH1 0x40 DUP1 MLOAD DUP1 DUP3 ADD DUP3 MSTORE PUSH1 0x17 DUP2 MSTORE PUSH32 0x30782050726F746F636F6C20436F6F7264696E61746F72000000000000000000 PUSH1 0x20 DUP1 DUP4 ADD SWAP2 SWAP1 SWAP2 MSTORE DUP3 MLOAD DUP1 DUP5 ADD SWAP1 SWAP4 MSTORE PUSH1 0x5 DUP4 MSTORE PUSH32 0x322E302E30000000000000000000000000000000000000000000000000000000 DUP4 DUP3 ADD MSTORE PUSH3 0xCD SWAP3 SWAP1 ADDRESS SWAP1 PUSH3 0x163 DUP2 SHL SWAP1 SHR JUMP JUMPDEST PUSH1 0x2 SSTORE PUSH1 0x40 DUP1 MLOAD DUP1 DUP3 ADD DUP3 MSTORE PUSH1 0xB DUP2 MSTORE PUSH32 0x30782050726F746F636F6C000000000000000000000000000000000000000000 PUSH1 0x20 DUP1 DUP4 ADD SWAP2 SWAP1 SWAP2 MSTORE DUP3 MLOAD DUP1 DUP5 ADD SWAP1 SWAP4 MSTORE PUSH1 0x5 DUP4 MSTORE PUSH32 0x332E302E30000000000000000000000000000000000000000000000000000000 DUP4 DUP3 ADD MSTORE PUSH1 0x0 SLOAD PUSH3 0x157 SWAP4 SWAP2 PUSH1 0x1 PUSH1 0x1 PUSH1 0xA0 SHL SUB SWAP1 SWAP2 AND SWAP1 PUSH3 0x163 DUP2 SHL SWAP1 SHR JUMP JUMPDEST PUSH1 0x3 SSTORE POP PUSH3 0x317 SWAP1 POP JUMP JUMPDEST PUSH1 0x0 PUSH1 0x40 MLOAD PUSH1 0x20 ADD PUSH3 0x176 SWAP1 PUSH3 0x230 JUMP JUMPDEST PUSH1 0x40 MLOAD PUSH1 0x20 DUP2 DUP4 SUB SUB DUP2 MSTORE SWAP1 PUSH1 0x40 MSTORE DUP1 MLOAD SWAP1 PUSH1 0x20 ADD KECCAK256 DUP5 DUP1 MLOAD SWAP1 PUSH1 0x20 ADD KECCAK256 DUP5 DUP1 MLOAD SWAP1 PUSH1 0x20 ADD KECCAK256 PUSH1 0x1 SLOAD DUP6 PUSH1 0x1 PUSH1 0x1 PUSH1 0xA0 SHL SUB AND PUSH1 0x40 MLOAD PUSH1 0x20 ADD PUSH3 0x1BF SWAP6 SWAP5 SWAP4 SWAP3 SWAP2 SWAP1 PUSH3 0x20D JUMP JUMPDEST PUSH1 0x40 MLOAD PUSH1 0x20 DUP2 DUP4 SUB SUB DUP2 MSTORE SWAP1 PUSH1 0x40 MSTORE DUP1 MLOAD SWAP1 PUSH1 0x20 ADD KECCAK256 SWAP1 POP SWAP4 SWAP3 POP POP POP JUMP JUMPDEST PUSH1 0x0 DUP1 PUSH1 0x40 DUP4 DUP6 SUB SLT ISZERO PUSH3 0x1F2 JUMPI PUSH1 0x0 DUP1 REVERT JUMPDEST PUSH1 0x1 PUSH1 0x1 PUSH1 0xA0 SHL SUB DUP4 MLOAD AND SWAP2 POP PUSH1 0x20 DUP4 ADD MLOAD SWAP1 POP SWAP3 POP SWAP3 SWAP1 POP JUMP JUMPDEST SWAP5 DUP6 MSTORE PUSH1 0x20 DUP6 ADD SWAP4 SWAP1 SWAP4 MSTORE PUSH1 0x40 DUP5 ADD SWAP2 SWAP1 SWAP2 MSTORE PUSH1 0x60 DUP4 ADD MSTORE PUSH1 0x80 DUP3 ADD MSTORE PUSH1 0xA0 ADD SWAP1 JUMP JUMPDEST PUSH32 0x454950373132446F6D61696E2800000000000000000000000000000000000000 DUP2 MSTORE PUSH32 0x737472696E67206E616D652C0000000000000000000000000000000000000000 PUSH1 0xD DUP3 ADD MSTORE PUSH32 0x737472696E672076657273696F6E2C0000000000000000000000000000000000 PUSH1 0x19 DUP3 ADD MSTORE PUSH32 0x75696E7432353620636861696E49642C00000000000000000000000000000000 PUSH1 0x28 DUP3 ADD MSTORE PUSH32 0x6164647265737320766572696679696E67436F6E747261637400000000000000 PUSH1 0x38 DUP3 ADD MSTORE PUSH32 0x2900000000000000000000000000000000000000000000000000000000000000 PUSH1 0x51 DUP3 ADD MSTORE PUSH1 0x52 ADD SWAP1 JUMP JUMPDEST PUSH2 0x2029 DUP1 PUSH3 0x327 PUSH1 0x0 CODECOPY PUSH1 0x0 RETURN INVALID PUSH1 0x80 PUSH1 0x40 MSTORE CALLVALUE DUP1 ISZERO PUSH2 0x10 JUMPI PUSH1 0x0 DUP1 REVERT JUMPDEST POP PUSH1 0x4 CALLDATASIZE LT PUSH2 0x88 JUMPI PUSH1 0x0 CALLDATALOAD PUSH1 0xE0 SHR DUP1 PUSH4 0xC26CFECD GT PUSH2 0x5B JUMPI DUP1 PUSH4 0xC26CFECD EQ PUSH2 0xFE JUMPI DUP1 PUSH4 0xD2DF0733 EQ PUSH2 0x106 JUMPI DUP1 PUSH4 0xEE55B968 EQ PUSH2 0x119 JUMPI DUP1 PUSH4 0xFB6961CC EQ PUSH2 0x139 JUMPI PUSH2 0x88 JUMP JUMPDEST DUP1 PUSH4 0xF7D8E39 EQ PUSH2 0x8D JUMPI DUP1 PUSH4 0x23872F55 EQ PUSH2 0xB6 JUMPI DUP1 PUSH4 0x48A321D6 EQ PUSH2 0xD6 JUMPI DUP1 PUSH4 0x90C3BC3F EQ PUSH2 0xE9 JUMPI JUMPDEST PUSH1 0x0 DUP1 REVERT JUMPDEST PUSH2 0xA0 PUSH2 0x9B CALLDATASIZE PUSH1 0x4 PUSH2 0x15F5 JUMP JUMPDEST PUSH2 0x141 JUMP JUMPDEST PUSH1 0x40 MLOAD PUSH2 0xAD SWAP2 SWAP1 PUSH2 0x19A2 JUMP JUMPDEST PUSH1 0x40 MLOAD DUP1 SWAP2 SUB SWAP1 RETURN JUMPDEST PUSH2 0xC9 PUSH2 0xC4 CALLDATASIZE PUSH1 0x4 PUSH2 0x17B9 JUMP JUMPDEST PUSH2 0x4D7 JUMP JUMPDEST PUSH1 0x40 MLOAD PUSH2 0xAD SWAP2 SWAP1 PUSH2 0x1AF7 JUMP JUMPDEST PUSH2 0xC9 PUSH2 0xE4 CALLDATASIZE PUSH1 0x4 PUSH2 0x1679 JUMP JUMPDEST PUSH2 0x4EA JUMP JUMPDEST PUSH2 0xFC PUSH2 0xF7 CALLDATASIZE PUSH1 0x4 PUSH2 0x17EE JUMP JUMPDEST PUSH2 0x4FD JUMP JUMPDEST STOP JUMPDEST PUSH2 0xC9 PUSH2 0x5A9 JUMP JUMPDEST PUSH2 0xFC PUSH2 0x114 CALLDATASIZE PUSH1 0x4 PUSH2 0x17EE JUMP JUMPDEST PUSH2 0x5AF JUMP JUMPDEST PUSH2 0x12C PUSH2 0x127 CALLDATASIZE PUSH1 0x4 PUSH2 0x163C JUMP JUMPDEST PUSH2 0x5DE JUMP JUMPDEST PUSH1 0x40 MLOAD PUSH2 0xAD SWAP2 SWAP1 PUSH2 0x19C3 JUMP JUMPDEST PUSH2 0xC9 PUSH2 0xA92 JUMP JUMPDEST PUSH1 0x0 DUP1 DUP3 MLOAD GT PUSH2 0x186 JUMPI PUSH1 0x40 MLOAD PUSH32 0x8C379A000000000000000000000000000000000000000000000000000000000 DUP2 MSTORE PUSH1 0x4 ADD PUSH2 0x17D SWAP1 PUSH2 0x1DC7 JUMP JUMPDEST PUSH1 0x40 MLOAD DUP1 SWAP2 SUB SWAP1 REVERT JUMPDEST PUSH1 0x0 PUSH2 0x191 DUP4 PUSH2 0xA98 JUMP JUMPDEST PUSH1 0xF8 SHR SWAP1 POP PUSH1 0x4 PUSH1 0xFF DUP3 AND LT PUSH2 0x1D3 JUMPI PUSH1 0x40 MLOAD PUSH32 0x8C379A000000000000000000000000000000000000000000000000000000000 DUP2 MSTORE PUSH1 0x4 ADD PUSH2 0x17D SWAP1 PUSH2 0x1CC5 JUMP JUMPDEST PUSH1 0x0 DUP2 PUSH1 0xFF AND PUSH1 0x4 DUP2 GT ISZERO PUSH2 0x1E4 JUMPI INVALID JUMPDEST SWAP1 POP PUSH1 0x0 DUP2 PUSH1 0x4 DUP2 GT ISZERO PUSH2 0x1F4 JUMPI INVALID JUMPDEST EQ ISZERO PUSH2 0x22C JUMPI PUSH1 0x40 MLOAD PUSH32 0x8C379A000000000000000000000000000000000000000000000000000000000 DUP2 MSTORE PUSH1 0x4 ADD PUSH2 0x17D SWAP1 PUSH2 0x1D90 JUMP JUMPDEST PUSH1 0x1 DUP2 PUSH1 0x4 DUP2 GT ISZERO PUSH2 0x23A JUMPI INVALID JUMPDEST EQ ISZERO PUSH2 0x2AB JUMPI DUP4 MLOAD ISZERO PUSH2 0x279 JUMPI PUSH1 0x40 MLOAD PUSH32 0x8C379A000000000000000000000000000000000000000000000000000000000 DUP2 MSTORE PUSH1 0x4 ADD PUSH2 0x17D SWAP1 PUSH2 0x1E92 JUMP JUMPDEST PUSH1 0x40 MLOAD PUSH32 0x8C379A000000000000000000000000000000000000000000000000000000000 DUP2 MSTORE PUSH1 0x4 ADD PUSH2 0x17D SWAP1 PUSH2 0x1DFE JUMP JUMPDEST PUSH1 0x2 DUP2 PUSH1 0x4 DUP2 GT ISZERO PUSH2 0x2B9 JUMPI INVALID JUMPDEST EQ ISZERO PUSH2 0x3BE JUMPI DUP4 MLOAD PUSH1 0x41 EQ PUSH2 0x2FA JUMPI PUSH1 0x40 MLOAD PUSH32 0x8C379A000000000000000000000000000000000000000000000000000000000 DUP2 MSTORE PUSH1 0x4 ADD PUSH2 0x17D SWAP1 PUSH2 0x1B1E JUMP JUMPDEST PUSH1 0x0 DUP5 PUSH1 0x0 DUP2 MLOAD DUP2 LT PUSH2 0x309 JUMPI INVALID JUMPDEST ADD PUSH1 0x20 ADD MLOAD PUSH1 0xF8 SWAP1 DUP2 SHR DUP2 SHL SWAP1 SHR SWAP1 POP PUSH1 0x0 PUSH2 0x32C DUP7 PUSH1 0x1 PUSH4 0xFFFFFFFF PUSH2 0xB1B AND JUMP JUMPDEST SWAP1 POP PUSH1 0x0 PUSH2 0x341 DUP8 PUSH1 0x21 PUSH4 0xFFFFFFFF PUSH2 0xB1B AND JUMP JUMPDEST SWAP1 POP PUSH1 0x1 DUP9 DUP5 DUP5 DUP5 PUSH1 0x40 MLOAD PUSH1 0x0 DUP2 MSTORE PUSH1 0x20 ADD PUSH1 0x40 MSTORE PUSH1 0x40 MLOAD PUSH2 0x366 SWAP5 SWAP4 SWAP3 SWAP2 SWAP1 PUSH2 0x1B00 JUMP JUMPDEST PUSH1 0x20 PUSH1 0x40 MLOAD PUSH1 0x20 DUP2 SUB SWAP1 DUP1 DUP5 SUB SWAP1 DUP6 GAS STATICCALL ISZERO DUP1 ISZERO PUSH2 0x388 JUMPI RETURNDATASIZE PUSH1 0x0 DUP1 RETURNDATACOPY RETURNDATASIZE PUSH1 0x0 REVERT JUMPDEST POP POP PUSH1 0x40 MLOAD PUSH32 0xFFFFFFFFFFFFFFFFFFFFFFFFFFFFFFFFFFFFFFFFFFFFFFFFFFFFFFFFFFFFFFE0 ADD MLOAD SWAP7 POP PUSH2 0x4D1 SWAP6 POP POP POP POP POP POP JUMP JUMPDEST PUSH1 0x3 DUP2 PUSH1 0x4 DUP2 GT ISZERO PUSH2 0x3CC JUMPI INVALID JUMPDEST EQ ISZERO PUSH2 0x49F JUMPI DUP4 MLOAD PUSH1 0x41 EQ PUSH2 0x40D JUMPI PUSH1 0x40 MLOAD PUSH32 0x8C379A000000000000000000000000000000000000000000000000000000000 DUP2 MSTORE PUSH1 0x4 ADD PUSH2 0x17D SWAP1 PUSH2 0x1B1E JUMP JUMPDEST PUSH1 0x0 DUP5 PUSH1 0x0 DUP2 MLOAD DUP2 LT PUSH2 0x41C JUMPI INVALID JUMPDEST ADD PUSH1 0x20 ADD MLOAD PUSH1 0xF8 SWAP1 DUP2 SHR DUP2 SHL SWAP1 SHR SWAP1 POP PUSH1 0x0 PUSH2 0x43F DUP7 PUSH1 0x1 PUSH4 0xFFFFFFFF PUSH2 0xB1B AND JUMP JUMPDEST SWAP1 POP PUSH1 0x0 PUSH2 0x454 DUP8 PUSH1 0x21 PUSH4 0xFFFFFFFF PUSH2 0xB1B AND JUMP JUMPDEST SWAP1 POP PUSH1 0x1 DUP9 PUSH1 0x40 MLOAD PUSH1 0x20 ADD PUSH2 0x469 SWAP2 SWAP1 PUSH2 0x1971 JUMP JUMPDEST PUSH1 0x40 MLOAD PUSH1 0x20 DUP2 DUP4 SUB SUB DUP2 MSTORE SWAP1 PUSH1 0x40 MSTORE DUP1 MLOAD SWAP1 PUSH1 0x20 ADD KECCAK256 DUP5 DUP5 DUP5 PUSH1 0x40 MLOAD PUSH1 0x0 DUP2 MSTORE PUSH1 0x20 ADD PUSH1 0x40 MSTORE PUSH1 0x40 MLOAD PUSH2 0x366 SWAP5 SWAP4 SWAP3 SWAP2 SWAP1 PUSH2 0x1B00 JUMP JUMPDEST PUSH1 0x40 MLOAD PUSH32 0x8C379A000000000000000000000000000000000000000000000000000000000 DUP2 MSTORE PUSH1 0x4 ADD PUSH2 0x17D SWAP1 PUSH2 0x1CC5 JUMP JUMPDEST SWAP3 SWAP2 POP POP JUMP JUMPDEST PUSH1 0x0 PUSH2 0x4D1 PUSH2 0x4E5 DUP4 PUSH2 0xB64 JUMP JUMPDEST PUSH2 0xBD2 JUMP JUMPDEST PUSH1 0x0 PUSH2 0x4D1 PUSH2 0x4F8 DUP4 PUSH2 0xBE0 JUMP JUMPDEST PUSH2 0xC3F JUMP JUMPDEST PUSH2 0x50A DUP6 DUP6 DUP6 DUP6 DUP6 PUSH2 0x5AF JUMP JUMPDEST PUSH1 0x0 SLOAD DUP6 MLOAD PUSH1 0x20 DUP8 ADD MLOAD PUSH1 0x40 DUP1 DUP10 ADD MLOAD SWAP1 MLOAD PUSH32 0xBFC8BFCE00000000000000000000000000000000000000000000000000000000 DUP2 MSTORE PUSH20 0xFFFFFFFFFFFFFFFFFFFFFFFFFFFFFFFFFFFFFFFF SWAP1 SWAP5 AND SWAP4 PUSH4 0xBFC8BFCE SWAP4 PUSH2 0x570 SWAP4 SWAP1 SWAP3 SWAP1 SWAP2 DUP10 SWAP1 PUSH1 0x4 ADD PUSH2 0x1EC9 JUMP JUMPDEST PUSH1 0x0 PUSH1 0x40 MLOAD DUP1 DUP4 SUB DUP2 PUSH1 0x0 DUP8 DUP1 EXTCODESIZE ISZERO DUP1 ISZERO PUSH2 0x58A JUMPI PUSH1 0x0 DUP1 REVERT JUMPDEST POP GAS CALL ISZERO DUP1 ISZERO PUSH2 0x59E JUMPI RETURNDATASIZE PUSH1 0x0 DUP1 RETURNDATACOPY RETURNDATASIZE PUSH1 0x0 REVERT JUMPDEST POP POP POP POP POP POP POP POP POP JUMP JUMPDEST PUSH1 0x3 SLOAD DUP2 JUMP JUMPDEST PUSH1 0x60 PUSH2 0x5BE DUP7 PUSH1 0x40 ADD MLOAD PUSH2 0x5DE JUMP JUMPDEST DUP1 MLOAD SWAP1 SWAP2 POP ISZERO PUSH2 0x5D6 JUMPI PUSH2 0x5D6 DUP7 DUP3 DUP8 DUP8 DUP8 DUP8 PUSH2 0xC4D JUMP JUMPDEST POP POP POP POP POP POP JUMP JUMPDEST PUSH1 0x60 PUSH1 0x0 PUSH2 0x5F2 DUP4 DUP3 PUSH4 0xFFFFFFFF PUSH2 0xE9B AND JUMP JUMPDEST SWAP1 POP PUSH32 0xFFFFFFFF00000000000000000000000000000000000000000000000000000000 DUP2 AND PUSH32 0xB4BE83D500000000000000000000000000000000000000000000000000000000 EQ DUP1 PUSH2 0x685 JUMPI POP PUSH32 0xFFFFFFFF00000000000000000000000000000000000000000000000000000000 DUP2 AND PUSH32 0x3E228BAE00000000000000000000000000000000000000000000000000000000 EQ JUMPDEST DUP1 PUSH2 0x6D1 JUMPI POP PUSH32 0xFFFFFFFF00000000000000000000000000000000000000000000000000000000 DUP2 AND PUSH32 0x64A3BC1500000000000000000000000000000000000000000000000000000000 EQ JUMPDEST ISZERO PUSH2 0x75A JUMPI PUSH2 0x6DE PUSH2 0x11DE JUMP JUMPDEST DUP4 MLOAD PUSH2 0x6F4 SWAP1 DUP6 SWAP1 PUSH1 0x4 SWAP1 PUSH4 0xFFFFFFFF PUSH2 0xF06 AND JUMP JUMPDEST DUP1 PUSH1 0x20 ADD SWAP1 MLOAD PUSH2 0x707 SWAP2 SWAP1 DUP2 ADD SWAP1 PUSH2 0x172A JUMP JUMPDEST PUSH1 0x40 DUP1 MLOAD PUSH1 0x1 DUP1 DUP3 MSTORE DUP2 DUP4 ADD SWAP1 SWAP3 MSTORE SWAP2 SWAP3 POP DUP2 PUSH1 0x20 ADD JUMPDEST PUSH2 0x726 PUSH2 0x11DE JUMP JUMPDEST DUP2 MSTORE PUSH1 0x20 ADD SWAP1 PUSH1 0x1 SWAP1 SUB SWAP1 DUP2 PUSH2 0x71E JUMPI SWAP1 POP POP SWAP3 POP DUP1 DUP4 PUSH1 0x0 DUP2 MLOAD DUP2 LT PUSH2 0x749 JUMPI INVALID JUMPDEST PUSH1 0x20 MUL PUSH1 0x20 ADD ADD DUP2 SWAP1 MSTORE POP POP PUSH2 0xA8C JUMP JUMPDEST PUSH32 0xFFFFFFFF00000000000000000000000000000000000000000000000000000000 DUP2 AND PUSH32 0x297BB70B00000000000000000000000000000000000000000000000000000000 EQ DUP1 PUSH2 0x7EB JUMPI POP PUSH32 0xFFFFFFFF00000000000000000000000000000000000000000000000000000000 DUP2 AND PUSH32 0x50DDE19000000000000000000000000000000000000000000000000000000000 EQ JUMPDEST DUP1 PUSH2 0x837 JUMPI POP PUSH32 0xFFFFFFFF00000000000000000000000000000000000000000000000000000000 DUP2 AND PUSH32 0x4D0AE54600000000000000000000000000000000000000000000000000000000 EQ JUMPDEST DUP1 PUSH2 0x883 JUMPI POP PUSH32 0xFFFFFFFF00000000000000000000000000000000000000000000000000000000 DUP2 AND PUSH32 0xE5FA431B00000000000000000000000000000000000000000000000000000000 EQ JUMPDEST DUP1 PUSH2 0x8CF JUMPI POP PUSH32 0xFFFFFFFF00000000000000000000000000000000000000000000000000000000 DUP2 AND PUSH32 0xA3E2038000000000000000000000000000000000000000000000000000000000 EQ JUMPDEST DUP1 PUSH2 0x91B JUMPI POP PUSH32 0xFFFFFFFF00000000000000000000000000000000000000000000000000000000 DUP2 AND PUSH32 0x7E1D980800000000000000000000000000000000000000000000000000000000 EQ JUMPDEST DUP1 PUSH2 0x967 JUMPI POP PUSH32 0xFFFFFFFF00000000000000000000000000000000000000000000000000000000 DUP2 AND PUSH32 0xDD1C7D1800000000000000000000000000000000000000000000000000000000 EQ JUMPDEST ISZERO PUSH2 0x99C JUMPI DUP3 MLOAD PUSH2 0x982 SWAP1 DUP5 SWAP1 PUSH1 0x4 SWAP1 PUSH4 0xFFFFFFFF PUSH2 0xF06 AND JUMP JUMPDEST DUP1 PUSH1 0x20 ADD SWAP1 MLOAD PUSH2 0x995 SWAP2 SWAP1 DUP2 ADD SWAP1 PUSH2 0x1569 JUMP JUMPDEST SWAP2 POP PUSH2 0xA8C JUMP JUMPDEST PUSH32 0xFFFFFFFF00000000000000000000000000000000000000000000000000000000 DUP2 AND PUSH32 0x3C28D86100000000000000000000000000000000000000000000000000000000 EQ ISZERO PUSH2 0xA8C JUMPI PUSH2 0x9EE PUSH2 0x11DE JUMP JUMPDEST PUSH2 0x9F6 PUSH2 0x11DE JUMP JUMPDEST DUP5 MLOAD PUSH2 0xA0C SWAP1 DUP7 SWAP1 PUSH1 0x4 SWAP1 PUSH4 0xFFFFFFFF PUSH2 0xF06 AND JUMP JUMPDEST DUP1 PUSH1 0x20 ADD SWAP1 MLOAD PUSH2 0xA1F SWAP2 SWAP1 DUP2 ADD SWAP1 PUSH2 0x175F JUMP JUMPDEST PUSH1 0x40 DUP1 MLOAD PUSH1 0x2 DUP1 DUP3 MSTORE PUSH1 0x60 DUP3 ADD SWAP1 SWAP3 MSTORE SWAP3 SWAP5 POP SWAP1 SWAP3 POP DUP2 PUSH1 0x20 ADD JUMPDEST PUSH2 0xA42 PUSH2 0x11DE JUMP JUMPDEST DUP2 MSTORE PUSH1 0x20 ADD SWAP1 PUSH1 0x1 SWAP1 SUB SWAP1 DUP2 PUSH2 0xA3A JUMPI SWAP1 POP POP SWAP4 POP DUP2 DUP5 PUSH1 0x0 DUP2 MLOAD DUP2 LT PUSH2 0xA65 JUMPI INVALID JUMPDEST PUSH1 0x20 MUL PUSH1 0x20 ADD ADD DUP2 SWAP1 MSTORE POP DUP1 DUP5 PUSH1 0x1 DUP2 MLOAD DUP2 LT PUSH2 0xA7E JUMPI INVALID JUMPDEST PUSH1 0x20 MUL PUSH1 0x20 ADD ADD DUP2 SWAP1 MSTORE POP POP POP JUMPDEST POP SWAP2 SWAP1 POP JUMP JUMPDEST PUSH1 0x2 SLOAD DUP2 JUMP JUMPDEST PUSH1 0x0 DUP1 DUP3 MLOAD GT PUSH2 0xAD4 JUMPI PUSH1 0x40 MLOAD PUSH32 0x8C379A000000000000000000000000000000000000000000000000000000000 DUP2 MSTORE PUSH1 0x4 ADD PUSH2 0x17D SWAP1 PUSH2 0x1D33 JUMP JUMPDEST DUP2 PUSH1 0x1 DUP4 MLOAD SUB DUP2 MLOAD DUP2 LT PUSH2 0xAE4 JUMPI INVALID JUMPDEST ADD PUSH1 0x20 ADD MLOAD DUP3 MLOAD PUSH32 0xFFFFFFFFFFFFFFFFFFFFFFFFFFFFFFFFFFFFFFFFFFFFFFFFFFFFFFFFFFFFFFFF ADD SWAP1 SWAP3 MSTORE POP PUSH1 0xF8 SWAP1 DUP2 SHR SWAP1 SHL SWAP1 JUMP JUMPDEST PUSH1 0x0 DUP2 PUSH1 0x20 ADD DUP4 MLOAD LT ISZERO PUSH2 0xB5B JUMPI PUSH1 0x40 MLOAD PUSH32 0x8C379A000000000000000000000000000000000000000000000000000000000 DUP2 MSTORE PUSH1 0x4 ADD PUSH2 0x17D SWAP1 PUSH2 0x1C68 JUMP JUMPDEST POP ADD PUSH1 0x20 ADD MLOAD SWAP1 JUMP JUMPDEST PUSH1 0x40 DUP2 DUP2 ADD MLOAD DUP3 MLOAD PUSH1 0x20 SWAP4 DUP5 ADD MLOAD DUP3 MLOAD SWAP3 DUP6 ADD SWAP3 SWAP1 SWAP3 KECCAK256 DUP4 MLOAD PUSH32 0x213C6F636F3EA94E701C0ADF9B2624AA45A6C694F9A292C094F9A81C24B5DF4C DUP2 MSTORE SWAP5 DUP6 ADD SWAP2 SWAP1 SWAP2 MSTORE PUSH20 0xFFFFFFFFFFFFFFFFFFFFFFFFFFFFFFFFFFFFFFFF SWAP1 SWAP2 AND SWAP2 DUP4 ADD SWAP2 SWAP1 SWAP2 MSTORE PUSH1 0x60 DUP3 ADD MSTORE PUSH1 0x80 SWAP1 KECCAK256 SWAP1 JUMP JUMPDEST PUSH1 0x0 PUSH2 0x4D1 PUSH1 0x3 SLOAD DUP4 PUSH2 0xFD2 JUMP JUMPDEST PUSH1 0x40 DUP1 DUP3 ADD MLOAD DUP3 MLOAD PUSH1 0x20 DUP1 DUP6 ADD MLOAD PUSH1 0x60 DUP7 DUP2 ADD MLOAD DUP6 MLOAD SWAP6 DUP5 ADD SWAP6 SWAP1 SWAP6 KECCAK256 DUP7 MLOAD PUSH32 0x2FBCDBAA76BC7589916958AE919DFBEF04D23F6BBF26DE6FF317B32C6CC01E05 DUP2 MSTORE SWAP4 DUP5 ADD SWAP5 SWAP1 SWAP5 MSTORE SWAP5 DUP3 ADD MSTORE SWAP3 DUP4 ADD MSTORE PUSH1 0x80 DUP3 ADD MSTORE PUSH1 0xA0 SWAP1 KECCAK256 SWAP2 SWAP1 POP JUMP JUMPDEST PUSH1 0x0 PUSH2 0x4D1 PUSH1 0x2 SLOAD DUP4 PUSH2 0xFD2 JUMP JUMPDEST ORIGIN PUSH20 0xFFFFFFFFFFFFFFFFFFFFFFFFFFFFFFFFFFFFFFFF DUP6 AND EQ PUSH2 0xC9C JUMPI PUSH1 0x40 MLOAD PUSH32 0x8C379A000000000000000000000000000000000000000000000000000000000 DUP2 MSTORE PUSH1 0x4 ADD PUSH2 0x17D SWAP1 PUSH2 0x1CFC JUMP JUMPDEST PUSH1 0x0 PUSH2 0xCA7 DUP8 PUSH2 0x4D7 JUMP JUMPDEST PUSH1 0x40 DUP1 MLOAD PUSH1 0x0 DUP1 DUP3 MSTORE PUSH1 0x20 DUP3 ADD SWAP1 SWAP3 MSTORE DUP5 MLOAD SWAP3 SWAP4 POP SWAP2 SWAP1 JUMPDEST DUP2 DUP2 EQ PUSH2 0xDA8 JUMPI PUSH1 0x0 DUP7 DUP3 DUP2 MLOAD DUP2 LT PUSH2 0xCD4 JUMPI INVALID JUMPDEST PUSH1 0x20 MUL PUSH1 0x20 ADD ADD MLOAD SWAP1 POP PUSH2 0xCE6 PUSH2 0x1297 JUMP JUMPDEST PUSH1 0x40 MLOAD DUP1 PUSH1 0x80 ADD PUSH1 0x40 MSTORE DUP1 DUP12 PUSH20 0xFFFFFFFFFFFFFFFFFFFFFFFFFFFFFFFFFFFFFFFF AND DUP2 MSTORE PUSH1 0x20 ADD DUP8 DUP2 MSTORE PUSH1 0x20 ADD DUP11 DUP2 MSTORE PUSH1 0x20 ADD DUP4 DUP2 MSTORE POP SWAP1 POP TIMESTAMP DUP3 GT PUSH2 0xD58 JUMPI PUSH1 0x40 MLOAD PUSH32 0x8C379A000000000000000000000000000000000000000000000000000000000 DUP2 MSTORE PUSH1 0x4 ADD PUSH2 0x17D SWAP1 PUSH2 0x1C31 JUMP JUMPDEST PUSH1 0x0 PUSH2 0xD63 DUP3 PUSH2 0x4EA JUMP JUMPDEST SWAP1 POP PUSH1 0x0 PUSH2 0xD84 DUP3 DUP11 DUP8 DUP2 MLOAD DUP2 LT PUSH2 0xD77 JUMPI INVALID JUMPDEST PUSH1 0x20 MUL PUSH1 0x20 ADD ADD MLOAD PUSH2 0x141 JUMP JUMPDEST SWAP1 POP PUSH2 0xD96 DUP8 DUP3 PUSH4 0xFFFFFFFF PUSH2 0x100C AND JUMP JUMPDEST SWAP7 POP POP PUSH1 0x1 SWAP1 SWAP4 ADD SWAP3 POP PUSH2 0xCBF SWAP2 POP POP JUMP JUMPDEST POP PUSH2 0xDB9 DUP3 ORIGIN PUSH4 0xFFFFFFFF PUSH2 0x100C AND JUMP JUMPDEST DUP9 MLOAD SWAP1 SWAP3 POP PUSH1 0x0 JUMPDEST DUP2 DUP2 EQ PUSH2 0xE8E JUMPI PUSH1 0x0 PUSH20 0xFFFFFFFFFFFFFFFFFFFFFFFFFFFFFFFFFFFFFFFF AND DUP11 DUP3 DUP2 MLOAD DUP2 LT PUSH2 0xDEC JUMPI INVALID JUMPDEST PUSH1 0x20 MUL PUSH1 0x20 ADD ADD MLOAD PUSH1 0x60 ADD MLOAD PUSH20 0xFFFFFFFFFFFFFFFFFFFFFFFFFFFFFFFFFFFFFFFF AND EQ ISZERO PUSH2 0xE19 JUMPI PUSH2 0xE86 JUMP JUMPDEST PUSH1 0x0 DUP11 DUP3 DUP2 MLOAD DUP2 LT PUSH2 0xE27 JUMPI INVALID JUMPDEST PUSH1 0x20 MUL PUSH1 0x20 ADD ADD MLOAD PUSH1 0x40 ADD MLOAD SWAP1 POP PUSH1 0x0 PUSH2 0xE4A DUP3 DUP8 PUSH2 0x10D3 SWAP1 SWAP2 SWAP1 PUSH4 0xFFFFFFFF AND JUMP JUMPDEST SWAP1 POP DUP1 PUSH2 0xE83 JUMPI PUSH1 0x40 MLOAD PUSH32 0x8C379A000000000000000000000000000000000000000000000000000000000 DUP2 MSTORE PUSH1 0x4 ADD PUSH2 0x17D SWAP1 PUSH2 0x1B55 JUMP JUMPDEST POP POP JUMPDEST PUSH1 0x1 ADD PUSH2 0xDC1 JUMP JUMPDEST POP POP POP POP POP POP POP POP POP POP POP JUMP JUMPDEST PUSH1 0x0 DUP2 PUSH1 0x4 ADD DUP4 MLOAD LT ISZERO PUSH2 0xEDB JUMPI PUSH1 0x40 MLOAD PUSH32 0x8C379A000000000000000000000000000000000000000000000000000000000 DUP2 MSTORE PUSH1 0x4 ADD PUSH2 0x17D SWAP1 PUSH2 0x1E35 JUMP JUMPDEST POP ADD PUSH1 0x20 ADD MLOAD PUSH32 0xFFFFFFFF00000000000000000000000000000000000000000000000000000000 AND SWAP1 JUMP JUMPDEST PUSH1 0x60 DUP2 DUP4 GT ISZERO PUSH2 0xF42 JUMPI PUSH1 0x40 MLOAD PUSH32 0x8C379A000000000000000000000000000000000000000000000000000000000 DUP2 MSTORE PUSH1 0x4 ADD PUSH2 0x17D SWAP1 PUSH2 0x1B8C JUMP JUMPDEST DUP4 MLOAD DUP3 GT ISZERO PUSH2 0xF7D JUMPI PUSH1 0x40 MLOAD PUSH32 0x8C379A000000000000000000000000000000000000000000000000000000000 DUP2 MSTORE PUSH1 0x4 ADD PUSH2 0x17D SWAP1 PUSH2 0x1BC3 JUMP JUMPDEST DUP3 DUP3 SUB PUSH1 0x40 MLOAD SWAP1 DUP1 DUP3 MSTORE DUP1 PUSH1 0x1F ADD PUSH1 0x1F NOT AND PUSH1 0x20 ADD DUP3 ADD PUSH1 0x40 MSTORE DUP1 ISZERO PUSH2 0xFAA JUMPI PUSH1 0x20 DUP3 ADD DUP2 DUP1 CODESIZE DUP4 CODECOPY ADD SWAP1 POP JUMPDEST POP SWAP1 POP PUSH2 0xFCB PUSH2 0xFB9 DUP3 PUSH2 0x1114 JUMP JUMPDEST DUP5 PUSH2 0xFC3 DUP8 PUSH2 0x1114 JUMP JUMPDEST ADD DUP4 MLOAD PUSH2 0x111A JUMP JUMPDEST SWAP4 SWAP3 POP POP POP JUMP JUMPDEST PUSH1 0x40 MLOAD PUSH32 0x1901000000000000000000000000000000000000000000000000000000000000 DUP2 MSTORE PUSH1 0x2 DUP2 ADD SWAP3 SWAP1 SWAP3 MSTORE PUSH1 0x22 DUP3 ADD MSTORE PUSH1 0x42 SWAP1 KECCAK256 SWAP1 JUMP JUMPDEST DUP2 MLOAD PUSH1 0x40 MLOAD PUSH1 0x60 SWAP2 DUP5 SWAP1 PUSH1 0x20 DUP1 DUP3 MUL DUP1 DUP5 ADD DUP3 ADD SWAP3 SWAP2 ADD DUP3 DUP6 LT ISZERO PUSH2 0x105D JUMPI PUSH1 0x40 MLOAD PUSH32 0x8C379A000000000000000000000000000000000000000000000000000000000 DUP2 MSTORE PUSH1 0x4 ADD PUSH2 0x17D SWAP1 PUSH2 0x1BFA JUMP JUMPDEST DUP3 DUP6 GT ISZERO PUSH2 0x1077 JUMPI PUSH2 0x1070 DUP6 DUP6 DUP4 PUSH2 0x111A JUMP JUMPDEST DUP5 SWAP8 POP DUP8 SWAP4 POP JUMPDEST PUSH1 0x1 DUP3 ADD SWAP2 POP PUSH1 0x20 DUP2 ADD SWAP1 POP DUP1 DUP5 ADD SWAP3 POP DUP3 SWAP5 POP DUP2 DUP9 MSTORE DUP5 PUSH1 0x40 MSTORE DUP7 DUP9 PUSH1 0x1 DUP5 SUB DUP2 MLOAD DUP2 LT PUSH2 0x10A2 JUMPI INVALID JUMPDEST PUSH20 0xFFFFFFFFFFFFFFFFFFFFFFFFFFFFFFFFFFFFFFFF SWAP1 SWAP3 AND PUSH1 0x20 SWAP3 DUP4 MUL SWAP2 SWAP1 SWAP2 ADD SWAP1 SWAP2 ADD MSTORE POP SWAP6 SWAP7 SWAP6 POP POP POP POP POP POP JUMP JUMPDEST PUSH1 0x0 PUSH1 0x20 DUP4 MLOAD MUL PUSH1 0x20 DUP5 ADD DUP2 DUP2 ADD DUP2 SWAP3 POP JUMPDEST DUP1 DUP4 LT ISZERO PUSH2 0x110B JUMPI DUP3 MLOAD DUP1 DUP7 EQ ISZERO PUSH2 0x10FF JUMPI PUSH1 0x1 SWAP5 POP DUP2 SWAP4 POP JUMPDEST POP PUSH1 0x20 DUP4 ADD SWAP3 POP PUSH2 0x10E5 JUMP JUMPDEST POP POP POP SWAP3 SWAP2 POP POP JUMP JUMPDEST PUSH1 0x20 ADD SWAP1 JUMP JUMPDEST PUSH1 0x20 DUP2 LT ISZERO PUSH2 0x1144 JUMPI PUSH1 0x1 DUP2 PUSH1 0x20 SUB PUSH2 0x100 EXP SUB DUP1 NOT DUP4 MLOAD AND DUP2 DUP6 MLOAD AND DUP1 DUP3 OR DUP7 MSTORE POP POP POP PUSH2 0x11D9 JUMP JUMPDEST DUP3 DUP3 EQ ISZERO PUSH2 0x1151 JUMPI PUSH2 0x11D9 JUMP JUMPDEST DUP3 DUP3 GT ISZERO PUSH2 0x118B JUMPI PUSH1 0x20 DUP2 SUB SWAP1 POP DUP1 DUP3 ADD DUP2 DUP5 ADD DUP2 MLOAD JUMPDEST DUP3 DUP6 LT ISZERO PUSH2 0x1183 JUMPI DUP5 MLOAD DUP7 MSTORE PUSH1 0x20 SWAP6 DUP7 ADD SWAP6 SWAP1 SWAP5 ADD SWAP4 PUSH2 0x1168 JUMP JUMPDEST SWAP1 MSTORE POP PUSH2 0x11D9 JUMP JUMPDEST PUSH1 0x20 DUP2 SUB SWAP1 POP DUP1 DUP3 ADD DUP2 DUP5 ADD DUP4 MLOAD JUMPDEST DUP2 DUP7 SLT ISZERO PUSH2 0x11D4 JUMPI DUP3 MLOAD DUP3 MSTORE PUSH32 0xFFFFFFFFFFFFFFFFFFFFFFFFFFFFFFFFFFFFFFFFFFFFFFFFFFFFFFFFFFFFFFE0 SWAP3 DUP4 ADD SWAP3 SWAP1 SWAP2 ADD SWAP1 PUSH2 0x119A JUMP JUMPDEST DUP6 MSTORE POP POP JUMPDEST POP POP POP JUMP JUMPDEST PUSH1 0x40 MLOAD DUP1 PUSH2 0x180 ADD PUSH1 0x40 MSTORE DUP1 PUSH1 0x0 PUSH20 0xFFFFFFFFFFFFFFFFFFFFFFFFFFFFFFFFFFFFFFFF AND DUP2 MSTORE PUSH1 0x20 ADD PUSH1 0x0 PUSH20 0xFFFFFFFFFFFFFFFFFFFFFFFFFFFFFFFFFFFFFFFF AND DUP2 MSTORE PUSH1 0x20 ADD PUSH1 0x0 PUSH20 0xFFFFFFFFFFFFFFFFFFFFFFFFFFFFFFFFFFFFFFFF AND DUP2 MSTORE PUSH1 0x20 ADD PUSH1 0x0 PUSH20 0xFFFFFFFFFFFFFFFFFFFFFFFFFFFFFFFFFFFFFFFF AND DUP2 MSTORE PUSH1 0x20 ADD PUSH1 0x0 DUP2 MSTORE PUSH1 0x20 ADD PUSH1 0x0 DUP2 MSTORE PUSH1 0x20 ADD PUSH1 0x0 DUP2 MSTORE PUSH1 0x20 ADD PUSH1 0x0 DUP2 MSTORE PUSH1 0x20 ADD PUSH1 0x0 DUP2 MSTORE PUSH1 0x20 ADD PUSH1 0x0 DUP2 MSTORE PUSH1 0x20 ADD PUSH1 0x60 DUP2 MSTORE PUSH1 0x20 ADD PUSH1 0x60 DUP2 MSTORE POP SWAP1 JUMP JUMPDEST PUSH1 0x40 MLOAD DUP1 PUSH1 0x80 ADD PUSH1 0x40 MSTORE DUP1 PUSH1 0x0 PUSH20 0xFFFFFFFFFFFFFFFFFFFFFFFFFFFFFFFFFFFFFFFF AND DUP2 MSTORE PUSH1 0x20 ADD PUSH1 0x0 DUP1 NOT AND DUP2 MSTORE PUSH1 0x20 ADD PUSH1 0x60 DUP2 MSTORE PUSH1 0x20 ADD PUSH1 0x0 DUP2 MSTORE POP SWAP1 JUMP JUMPDEST PUSH1 0x0 DUP3 PUSH1 0x1F DUP4 ADD SLT PUSH2 0x12E8 JUMPI DUP1 DUP2 REVERT JUMPDEST DUP2 CALLDATALOAD PUSH2 0x12FB PUSH2 0x12F6 DUP3 PUSH2 0x1F42 JUMP JUMPDEST PUSH2 0x1F1B JUMP JUMPDEST DUP2 DUP2 MSTORE SWAP2 POP PUSH1 0x20 DUP1 DUP4 ADD SWAP1 DUP5 ADD PUSH1 0x0 JUMPDEST DUP4 DUP2 LT ISZERO PUSH2 0x1338 JUMPI PUSH2 0x1323 DUP8 PUSH1 0x20 DUP5 CALLDATALOAD DUP10 ADD ADD PUSH2 0x1342 JUMP JUMPDEST DUP4 MSTORE PUSH1 0x20 SWAP3 DUP4 ADD SWAP3 SWAP2 SWAP1 SWAP2 ADD SWAP1 PUSH1 0x1 ADD PUSH2 0x130B JUMP JUMPDEST POP POP POP POP SWAP3 SWAP2 POP POP JUMP JUMPDEST PUSH1 0x0 DUP3 PUSH1 0x1F DUP4 ADD SLT PUSH2 0x1352 JUMPI DUP1 DUP2 REVERT JUMPDEST DUP2 CALLDATALOAD PUSH2 0x1360 PUSH2 0x12F6 DUP3 PUSH2 0x1F63 JUMP JUMPDEST SWAP2 POP DUP1 DUP3 MSTORE DUP4 PUSH1 0x20 DUP3 DUP6 ADD ADD GT ISZERO PUSH2 0x1377 JUMPI PUSH1 0x0 DUP1 REVERT JUMPDEST DUP1 PUSH1 0x20 DUP5 ADD PUSH1 0x20 DUP5 ADD CALLDATACOPY PUSH1 0x0 SWAP1 DUP3 ADD PUSH1 0x20 ADD MSTORE SWAP3 SWAP2 POP POP JUMP JUMPDEST PUSH1 0x0 DUP3 PUSH1 0x1F DUP4 ADD SLT PUSH2 0x13A1 JUMPI PUSH1 0x0 DUP1 REVERT JUMPDEST DUP2 MLOAD PUSH2 0x13AF PUSH2 0x12F6 DUP3 PUSH2 0x1F63 JUMP JUMPDEST SWAP2 POP DUP1 DUP3 MSTORE DUP4 PUSH1 0x20 DUP3 DUP6 ADD ADD GT ISZERO PUSH2 0x13C6 JUMPI PUSH1 0x0 DUP1 REVERT JUMPDEST PUSH2 0x13D7 DUP2 PUSH1 0x20 DUP5 ADD PUSH1 0x20 DUP7 ADD PUSH2 0x1FBF JUMP JUMPDEST POP SWAP3 SWAP2 POP POP JUMP JUMPDEST PUSH1 0x0 PUSH2 0x180 DUP1 DUP4 DUP6 SUB SLT ISZERO PUSH2 0x13F1 JUMPI DUP2 DUP3 REVERT JUMPDEST PUSH2 0x13FA DUP2 PUSH2 0x1F1B JUMP JUMPDEST SWAP2 POP POP PUSH2 0x1407 DUP3 MLOAD PUSH2 0x1FA6 JUMP JUMPDEST DUP2 MSTORE PUSH2 0x1416 PUSH1 0x20 DUP4 ADD MLOAD PUSH2 0x1FA6 JUMP JUMPDEST PUSH1 0x20 DUP3 ADD MSTORE PUSH2 0x1428 PUSH1 0x40 DUP4 ADD MLOAD PUSH2 0x1FA6 JUMP JUMPDEST PUSH1 0x40 DUP3 ADD MSTORE PUSH2 0x143A PUSH1 0x60 DUP4 ADD MLOAD PUSH2 0x1FA6 JUMP JUMPDEST PUSH1 0x60 DUP3 ADD MSTORE PUSH1 0x80 DUP3 ADD MLOAD PUSH1 0x80 DUP3 ADD MSTORE PUSH1 0xA0 DUP3 ADD MLOAD PUSH1 0xA0 DUP3 ADD MSTORE PUSH1 0xC0 DUP3 ADD MLOAD PUSH1 0xC0 DUP3 ADD MSTORE PUSH1 0xE0 DUP3 ADD MLOAD PUSH1 0xE0 DUP3 ADD MSTORE PUSH2 0x100 DUP1 DUP4 ADD MLOAD DUP2 DUP4 ADD MSTORE POP PUSH2 0x120 DUP1 DUP4 ADD MLOAD DUP2 DUP4 ADD MSTORE POP PUSH2 0x140 DUP1 DUP4 ADD MLOAD PUSH8 0xFFFFFFFFFFFFFFFF DUP1 DUP3 GT ISZERO PUSH2 0x149C JUMPI PUSH1 0x0 DUP1 REVERT JUMPDEST PUSH2 0x14A8 DUP7 DUP4 DUP8 ADD PUSH2 0x1390 JUMP JUMPDEST DUP4 DUP6 ADD MSTORE PUSH2 0x160 SWAP3 POP DUP3 DUP6 ADD MLOAD SWAP2 POP DUP1 DUP3 GT ISZERO PUSH2 0x14C4 JUMPI PUSH1 0x0 DUP1 REVERT JUMPDEST POP PUSH2 0x14D1 DUP6 DUP3 DUP7 ADD PUSH2 0x1390 JUMP JUMPDEST DUP3 DUP5 ADD MSTORE POP POP SWAP3 SWAP2 POP POP JUMP JUMPDEST PUSH1 0x0 PUSH1 0x60 DUP3 DUP5 SUB SLT ISZERO PUSH2 0x14EF JUMPI PUSH1 0x0 DUP1 REVERT JUMPDEST PUSH1 0x40 MLOAD PUSH1 0x60 DUP2 ADD PUSH8 0xFFFFFFFFFFFFFFFF DUP3 DUP3 LT DUP2 DUP4 GT OR ISZERO PUSH2 0x1510 JUMPI PUSH1 0x0 DUP1 REVERT JUMPDEST DUP2 PUSH1 0x40 MSTORE DUP3 SWAP4 POP DUP5 CALLDATALOAD DUP4 MSTORE PUSH20 0xFFFFFFFFFFFFFFFFFFFFFFFFFFFFFFFFFFFFFFFF PUSH1 0x20 DUP7 ADD CALLDATALOAD AND PUSH1 0x20 DUP5 ADD MSTORE PUSH1 0x40 DUP6 ADD CALLDATALOAD SWAP2 POP DUP1 DUP3 GT ISZERO PUSH2 0x154F JUMPI PUSH1 0x0 DUP1 REVERT JUMPDEST POP PUSH2 0x155C DUP6 DUP3 DUP7 ADD PUSH2 0x1342 JUMP JUMPDEST PUSH1 0x40 DUP4 ADD MSTORE POP POP SWAP3 SWAP2 POP POP JUMP JUMPDEST PUSH1 0x0 PUSH1 0x20 DUP1 DUP4 DUP6 SUB SLT ISZERO PUSH2 0x157B JUMPI DUP2 DUP3 REVERT JUMPDEST DUP3 MLOAD PUSH8 0xFFFFFFFFFFFFFFFF DUP2 GT ISZERO PUSH2 0x1591 JUMPI DUP3 DUP4 REVERT JUMPDEST DUP1 DUP5 ADD DUP6 PUSH1 0x1F DUP3 ADD SLT PUSH2 0x15A2 JUMPI DUP4 DUP5 REVERT JUMPDEST DUP1 MLOAD SWAP2 POP PUSH2 0x15B2 PUSH2 0x12F6 DUP4 PUSH2 0x1F42 JUMP JUMPDEST DUP3 DUP2 MSTORE DUP4 DUP2 ADD SWAP1 DUP3 DUP6 ADD DUP7 JUMPDEST DUP6 DUP2 LT ISZERO PUSH2 0x15E7 JUMPI PUSH2 0x15D5 DUP11 DUP9 DUP5 MLOAD DUP9 ADD ADD PUSH2 0x13DE JUMP JUMPDEST DUP5 MSTORE SWAP3 DUP7 ADD SWAP3 SWAP1 DUP7 ADD SWAP1 PUSH1 0x1 ADD PUSH2 0x15BE JUMP JUMPDEST POP SWAP1 SWAP9 SWAP8 POP POP POP POP POP POP POP POP JUMP JUMPDEST PUSH1 0x0 DUP1 PUSH1 0x40 DUP4 DUP6 SUB SLT ISZERO PUSH2 0x1608 JUMPI PUSH1 0x0 DUP1 REVERT JUMPDEST DUP3 CALLDATALOAD SWAP2 POP PUSH1 0x20 DUP4 ADD CALLDATALOAD PUSH8 0xFFFFFFFFFFFFFFFF DUP2 GT ISZERO PUSH2 0x1626 JUMPI PUSH1 0x0 DUP1 REVERT JUMPDEST PUSH2 0x1632 DUP6 DUP3 DUP7 ADD PUSH2 0x1342 JUMP JUMPDEST SWAP2 POP POP SWAP3 POP SWAP3 SWAP1 POP JUMP JUMPDEST PUSH1 0x0 PUSH1 0x20 DUP3 DUP5 SUB SLT ISZERO PUSH2 0x164E JUMPI PUSH1 0x0 DUP1 REVERT JUMPDEST DUP2 CALLDATALOAD PUSH8 0xFFFFFFFFFFFFFFFF DUP2 GT ISZERO PUSH2 0x1665 JUMPI PUSH1 0x0 DUP1 REVERT JUMPDEST PUSH2 0x1671 DUP5 DUP3 DUP6 ADD PUSH2 0x1342 JUMP JUMPDEST SWAP5 SWAP4 POP POP POP POP JUMP JUMPDEST PUSH1 0x0 PUSH1 0x20 DUP3 DUP5 SUB SLT ISZERO PUSH2 0x168A JUMPI DUP1 DUP2 REVERT JUMPDEST DUP2 CALLDATALOAD PUSH8 0xFFFFFFFFFFFFFFFF DUP1 DUP3 GT ISZERO PUSH2 0x16A1 JUMPI DUP3 DUP4 REVERT JUMPDEST DUP2 DUP5 ADD PUSH1 0x80 DUP2 DUP8 SUB SLT ISZERO PUSH2 0x16B3 JUMPI DUP4 DUP5 REVERT JUMPDEST PUSH1 0x40 MLOAD SWAP3 POP PUSH1 0x80 DUP4 ADD DUP4 DUP2 LT DUP4 DUP3 GT OR ISZERO PUSH2 0x16CC JUMPI DUP5 DUP6 REVERT JUMPDEST DUP1 PUSH1 0x40 MSTORE POP PUSH20 0xFFFFFFFFFFFFFFFFFFFFFFFFFFFFFFFFFFFFFFFF DUP2 CALLDATALOAD AND DUP4 MSTORE PUSH1 0x20 DUP2 ADD CALLDATALOAD PUSH1 0x20 DUP5 ADD MSTORE PUSH1 0x40 DUP2 ADD CALLDATALOAD DUP3 DUP2 GT ISZERO PUSH2 0x1706 JUMPI DUP5 DUP6 REVERT JUMPDEST PUSH2 0x1712 DUP8 DUP3 DUP5 ADD PUSH2 0x1342 JUMP JUMPDEST PUSH1 0x40 DUP6 ADD MSTORE POP PUSH1 0x60 SWAP1 DUP2 ADD CALLDATALOAD SWAP1 DUP4 ADD MSTORE POP SWAP4 SWAP3 POP POP POP JUMP JUMPDEST PUSH1 0x0 PUSH1 0x20 DUP3 DUP5 SUB SLT ISZERO PUSH2 0x173C JUMPI PUSH1 0x0 DUP1 REVERT JUMPDEST DUP2 MLOAD PUSH8 0xFFFFFFFFFFFFFFFF DUP2 GT ISZERO PUSH2 0x1753 JUMPI PUSH1 0x0 DUP1 REVERT JUMPDEST PUSH2 0x1671 DUP5 DUP3 DUP6 ADD PUSH2 0x13DE JUMP JUMPDEST PUSH1 0x0 DUP1 PUSH1 0x40 DUP4 DUP6 SUB SLT ISZERO PUSH2 0x1772 JUMPI PUSH1 0x0 DUP1 REVERT JUMPDEST DUP3 MLOAD PUSH8 0xFFFFFFFFFFFFFFFF DUP1 DUP3 GT ISZERO PUSH2 0x178A JUMPI PUSH1 0x0 DUP1 REVERT JUMPDEST PUSH2 0x1796 DUP7 DUP4 DUP8 ADD PUSH2 0x13DE JUMP JUMPDEST SWAP4 POP PUSH1 0x20 DUP6 ADD MLOAD SWAP2 POP DUP1 DUP3 GT ISZERO PUSH2 0x17AC JUMPI PUSH1 0x0 DUP1 REVERT JUMPDEST POP PUSH2 0x1632 DUP6 DUP3 DUP7 ADD PUSH2 0x13DE JUMP JUMPDEST PUSH1 0x0 PUSH1 0x20 DUP3 DUP5 SUB SLT ISZERO PUSH2 0x17CB JUMPI PUSH1 0x0 DUP1 REVERT JUMPDEST DUP2 CALLDATALOAD PUSH8 0xFFFFFFFFFFFFFFFF DUP2 GT ISZERO PUSH2 0x17E2 JUMPI PUSH1 0x0 DUP1 REVERT JUMPDEST PUSH2 0x1671 DUP5 DUP3 DUP6 ADD PUSH2 0x14DD JUMP JUMPDEST PUSH1 0x0 DUP1 PUSH1 0x0 DUP1 PUSH1 0x0 PUSH1 0xA0 DUP7 DUP9 SUB SLT ISZERO PUSH2 0x1805 JUMPI DUP1 DUP2 REVERT JUMPDEST DUP6 CALLDATALOAD PUSH8 0xFFFFFFFFFFFFFFFF DUP1 DUP3 GT ISZERO PUSH2 0x181C JUMPI DUP3 DUP4 REVERT JUMPDEST PUSH2 0x1828 DUP10 DUP4 DUP11 ADD PUSH2 0x14DD JUMP JUMPDEST SWAP7 POP PUSH1 0x20 SWAP2 POP PUSH20 0xFFFFFFFFFFFFFFFFFFFFFFFFFFFFFFFFFFFFFFFF DUP3 DUP10 ADD CALLDATALOAD AND SWAP6 POP PUSH1 0x40 DUP9 ADD CALLDATALOAD DUP2 DUP2 GT ISZERO PUSH2 0x185B JUMPI DUP4 DUP5 REVERT JUMPDEST PUSH2 0x1867 DUP11 DUP3 DUP12 ADD PUSH2 0x1342 JUMP JUMPDEST SWAP6 POP POP PUSH1 0x60 DUP9 ADD CALLDATALOAD DUP2 DUP2 GT ISZERO PUSH2 0x187B JUMPI DUP4 DUP5 REVERT JUMPDEST DUP1 DUP10 ADD DUP11 PUSH1 0x1F DUP3 ADD SLT PUSH2 0x188C JUMPI DUP5 DUP6 REVERT JUMPDEST DUP1 CALLDATALOAD SWAP2 POP PUSH2 0x189C PUSH2 0x12F6 DUP4 PUSH2 0x1F42 JUMP JUMPDEST DUP3 DUP2 MSTORE DUP5 DUP2 ADD SWAP1 DUP3 DUP7 ADD DUP7 DUP6 MUL DUP5 ADD DUP8 ADD DUP15 LT ISZERO PUSH2 0x18B8 JUMPI DUP8 DUP9 REVERT JUMPDEST DUP8 SWAP4 POP JUMPDEST DUP5 DUP5 LT ISZERO PUSH2 0x18DA JUMPI DUP1 CALLDATALOAD DUP4 MSTORE PUSH1 0x1 SWAP4 SWAP1 SWAP4 ADD SWAP3 SWAP2 DUP7 ADD SWAP2 DUP7 ADD PUSH2 0x18BC JUMP JUMPDEST POP SWAP7 POP POP POP POP PUSH1 0x80 DUP9 ADD CALLDATALOAD SWAP2 POP DUP1 DUP3 GT ISZERO PUSH2 0x18F3 JUMPI DUP3 DUP4 REVERT JUMPDEST POP PUSH2 0x1900 DUP9 DUP3 DUP10 ADD PUSH2 0x12D8 JUMP JUMPDEST SWAP2 POP POP SWAP3 SWAP6 POP SWAP3 SWAP6 SWAP1 SWAP4 POP JUMP JUMPDEST PUSH20 0xFFFFFFFFFFFFFFFFFFFFFFFFFFFFFFFFFFFFFFFF AND SWAP1 MSTORE JUMP JUMPDEST PUSH1 0x0 DUP2 MLOAD DUP1 DUP5 MSTORE PUSH2 0x193F DUP2 PUSH1 0x20 DUP7 ADD PUSH1 0x20 DUP7 ADD PUSH2 0x1FBF JUMP JUMPDEST PUSH1 0x1F ADD PUSH32 0xFFFFFFFFFFFFFFFFFFFFFFFFFFFFFFFFFFFFFFFFFFFFFFFFFFFFFFFFFFFFFFE0 AND SWAP3 SWAP1 SWAP3 ADD PUSH1 0x20 ADD SWAP3 SWAP2 POP POP JUMP JUMPDEST PUSH32 0x19457468657265756D205369676E6564204D6573736167653A0A333200000000 DUP2 MSTORE PUSH1 0x1C DUP2 ADD SWAP2 SWAP1 SWAP2 MSTORE PUSH1 0x3C ADD SWAP1 JUMP JUMPDEST PUSH20 0xFFFFFFFFFFFFFFFFFFFFFFFFFFFFFFFFFFFFFFFF SWAP2 SWAP1 SWAP2 AND DUP2 MSTORE PUSH1 0x20 ADD SWAP1 JUMP JUMPDEST PUSH1 0x0 PUSH1 0x20 DUP1 DUP4 ADD DUP2 DUP5 MSTORE DUP1 DUP6 MLOAD DUP1 DUP4 MSTORE PUSH1 0x40 DUP7 ADD SWAP2 POP PUSH1 0x40 DUP5 DUP3 MUL DUP8 ADD ADD SWAP3 POP DUP4 DUP8 ADD PUSH1 0x0 JUMPDEST DUP3 DUP2 LT ISZERO PUSH2 0x1AEA JUMPI PUSH32 0xFFFFFFFFFFFFFFFFFFFFFFFFFFFFFFFFFFFFFFFFFFFFFFFFFFFFFFFFFFFFFFC0 DUP9 DUP7 SUB ADD DUP5 MSTORE DUP2 MLOAD PUSH2 0x180 PUSH2 0x1A28 DUP8 DUP4 MLOAD PUSH2 0x190D JUMP JUMPDEST DUP8 DUP3 ADD MLOAD PUSH2 0x1A38 DUP10 DUP10 ADD DUP3 PUSH2 0x190D JUMP JUMPDEST POP PUSH1 0x40 DUP3 ADD MLOAD PUSH2 0x1A4B PUSH1 0x40 DUP10 ADD DUP3 PUSH2 0x190D JUMP JUMPDEST POP PUSH1 0x60 DUP3 ADD MLOAD PUSH2 0x1A5E PUSH1 0x60 DUP10 ADD DUP3 PUSH2 0x190D JUMP JUMPDEST POP PUSH1 0x80 DUP3 ADD MLOAD PUSH1 0x80 DUP9 ADD MSTORE PUSH1 0xA0 DUP3 ADD MLOAD PUSH1 0xA0 DUP9 ADD MSTORE PUSH1 0xC0 DUP3 ADD MLOAD PUSH1 0xC0 DUP9 ADD MSTORE PUSH1 0xE0 DUP3 ADD MLOAD PUSH1 0xE0 DUP9 ADD MSTORE PUSH2 0x100 DUP1 DUP4 ADD MLOAD DUP2 DUP10 ADD MSTORE POP PUSH2 0x120 DUP1 DUP4 ADD MLOAD DUP2 DUP10 ADD MSTORE POP PUSH2 0x140 DUP1 DUP4 ADD MLOAD DUP3 DUP3 DUP11 ADD MSTORE PUSH2 0x1AB7 DUP4 DUP11 ADD DUP3 PUSH2 0x1927 JUMP JUMPDEST SWAP2 POP POP PUSH2 0x160 SWAP2 POP DUP2 DUP4 ADD MLOAD DUP9 DUP3 SUB DUP4 DUP11 ADD MSTORE PUSH2 0x1AD4 DUP3 DUP3 PUSH2 0x1927 JUMP JUMPDEST SWAP9 POP POP POP SWAP5 DUP8 ADD SWAP5 POP POP SWAP1 DUP6 ADD SWAP1 PUSH1 0x1 ADD PUSH2 0x19E9 JUMP JUMPDEST POP SWAP3 SWAP8 SWAP7 POP POP POP POP POP POP POP JUMP JUMPDEST SWAP1 DUP2 MSTORE PUSH1 0x20 ADD SWAP1 JUMP JUMPDEST SWAP4 DUP5 MSTORE PUSH1 0xFF SWAP3 SWAP1 SWAP3 AND PUSH1 0x20 DUP5 ADD MSTORE PUSH1 0x40 DUP4 ADD MSTORE PUSH1 0x60 DUP3 ADD MSTORE PUSH1 0x80 ADD SWAP1 JUMP JUMPDEST PUSH1 0x20 DUP1 DUP3 MSTORE PUSH1 0x12 SWAP1 DUP3 ADD MSTORE PUSH32 0x4C454E4754485F36355F52455155495245440000000000000000000000000000 PUSH1 0x40 DUP3 ADD MSTORE PUSH1 0x60 ADD SWAP1 JUMP JUMPDEST PUSH1 0x20 DUP1 DUP3 MSTORE PUSH1 0x1A SWAP1 DUP3 ADD MSTORE PUSH32 0x494E56414C49445F415050524F56414C5F5349474E4154555245000000000000 PUSH1 0x40 DUP3 ADD MSTORE PUSH1 0x60 ADD SWAP1 JUMP JUMPDEST PUSH1 0x20 DUP1 DUP3 MSTORE PUSH1 0x1A SWAP1 DUP3 ADD MSTORE PUSH32 0x46524F4D5F4C4553535F5448414E5F544F5F5245515549524544000000000000 PUSH1 0x40 DUP3 ADD MSTORE PUSH1 0x60 ADD SWAP1 JUMP JUMPDEST PUSH1 0x20 DUP1 DUP3 MSTORE PUSH1 0x1C SWAP1 DUP3 ADD MSTORE PUSH32 0x544F5F4C4553535F5448414E5F4C454E4754485F524551554952454400000000 PUSH1 0x40 DUP3 ADD MSTORE PUSH1 0x60 ADD SWAP1 JUMP JUMPDEST PUSH1 0x20 DUP1 DUP3 MSTORE PUSH1 0x17 SWAP1 DUP3 ADD MSTORE PUSH32 0x494E56414C49445F465245455F4D454D4F52595F505452000000000000000000 PUSH1 0x40 DUP3 ADD MSTORE PUSH1 0x60 ADD SWAP1 JUMP JUMPDEST PUSH1 0x20 DUP1 DUP3 MSTORE PUSH1 0x10 SWAP1 DUP3 ADD MSTORE PUSH32 0x415050524F56414C5F4558504952454400000000000000000000000000000000 PUSH1 0x40 DUP3 ADD MSTORE PUSH1 0x60 ADD SWAP1 JUMP JUMPDEST PUSH1 0x20 DUP1 DUP3 MSTORE PUSH1 0x26 SWAP1 DUP3 ADD MSTORE PUSH32 0x475245415445525F4F525F455155414C5F544F5F33325F4C454E4754485F5245 PUSH1 0x40 DUP3 ADD MSTORE PUSH32 0x5155495245440000000000000000000000000000000000000000000000000000 PUSH1 0x60 DUP3 ADD MSTORE PUSH1 0x80 ADD SWAP1 JUMP JUMPDEST PUSH1 0x20 DUP1 DUP3 MSTORE PUSH1 0x15 SWAP1 DUP3 ADD MSTORE PUSH32 0x5349474E41545552455F554E535550504F525445440000000000000000000000 PUSH1 0x40 DUP3 ADD MSTORE PUSH1 0x60 ADD SWAP1 JUMP JUMPDEST PUSH1 0x20 DUP1 DUP3 MSTORE PUSH1 0xE SWAP1 DUP3 ADD MSTORE PUSH32 0x494E56414C49445F4F524947494E000000000000000000000000000000000000 PUSH1 0x40 DUP3 ADD MSTORE PUSH1 0x60 ADD SWAP1 JUMP JUMPDEST PUSH1 0x20 DUP1 DUP3 MSTORE PUSH1 0x21 SWAP1 DUP3 ADD MSTORE PUSH32 0x475245415445525F5448414E5F5A45524F5F4C454E4754485F52455155495245 PUSH1 0x40 DUP3 ADD MSTORE PUSH32 0x4400000000000000000000000000000000000000000000000000000000000000 PUSH1 0x60 DUP3 ADD MSTORE PUSH1 0x80 ADD SWAP1 JUMP JUMPDEST PUSH1 0x20 DUP1 DUP3 MSTORE PUSH1 0x11 SWAP1 DUP3 ADD MSTORE PUSH32 0x5349474E41545552455F494C4C4547414C000000000000000000000000000000 PUSH1 0x40 DUP3 ADD MSTORE PUSH1 0x60 ADD SWAP1 JUMP JUMPDEST PUSH1 0x20 DUP1 DUP3 MSTORE PUSH1 0x1E SWAP1 DUP3 ADD MSTORE PUSH32 0x4C454E4754485F475245415445525F5448414E5F305F52455155495245440000 PUSH1 0x40 DUP3 ADD MSTORE PUSH1 0x60 ADD SWAP1 JUMP JUMPDEST PUSH1 0x20 DUP1 DUP3 MSTORE PUSH1 0x11 SWAP1 DUP3 ADD MSTORE PUSH32 0x5349474E41545552455F494E56414C4944000000000000000000000000000000 PUSH1 0x40 DUP3 ADD MSTORE PUSH1 0x60 ADD SWAP1 JUMP JUMPDEST PUSH1 0x20 DUP1 DUP3 MSTORE PUSH1 0x25 SWAP1 DUP3 ADD MSTORE PUSH32 0x475245415445525F4F525F455155414C5F544F5F345F4C454E4754485F524551 PUSH1 0x40 DUP3 ADD MSTORE PUSH32 0x5549524544000000000000000000000000000000000000000000000000000000 PUSH1 0x60 DUP3 ADD MSTORE PUSH1 0x80 ADD SWAP1 JUMP JUMPDEST PUSH1 0x20 DUP1 DUP3 MSTORE PUSH1 0x11 SWAP1 DUP3 ADD MSTORE PUSH32 0x4C454E4754485F305F5245515549524544000000000000000000000000000000 PUSH1 0x40 DUP3 ADD MSTORE PUSH1 0x60 ADD SWAP1 JUMP JUMPDEST PUSH1 0x0 DUP6 DUP3 MSTORE PUSH20 0xFFFFFFFFFFFFFFFFFFFFFFFFFFFFFFFFFFFFFFFF DUP6 AND PUSH1 0x20 DUP4 ADD MSTORE PUSH1 0x80 PUSH1 0x40 DUP4 ADD MSTORE PUSH2 0x1EFE PUSH1 0x80 DUP4 ADD DUP6 PUSH2 0x1927 JUMP JUMPDEST DUP3 DUP2 SUB PUSH1 0x60 DUP5 ADD MSTORE PUSH2 0x1F10 DUP2 DUP6 PUSH2 0x1927 JUMP JUMPDEST SWAP8 SWAP7 POP POP POP POP POP POP POP JUMP JUMPDEST PUSH1 0x40 MLOAD DUP2 DUP2 ADD PUSH8 0xFFFFFFFFFFFFFFFF DUP2 GT DUP3 DUP3 LT OR ISZERO PUSH2 0x1F3A JUMPI PUSH1 0x0 DUP1 REVERT JUMPDEST PUSH1 0x40 MSTORE SWAP2 SWAP1 POP JUMP JUMPDEST PUSH1 0x0 PUSH8 0xFFFFFFFFFFFFFFFF DUP3 GT ISZERO PUSH2 0x1F59 JUMPI PUSH1 0x0 DUP1 REVERT JUMPDEST POP PUSH1 0x20 SWAP1 DUP2 MUL ADD SWAP1 JUMP JUMPDEST PUSH1 0x0 PUSH8 0xFFFFFFFFFFFFFFFF DUP3 GT ISZERO PUSH2 0x1F7A JUMPI PUSH1 0x0 DUP1 REVERT JUMPDEST POP PUSH1 0x1F ADD PUSH32 0xFFFFFFFFFFFFFFFFFFFFFFFFFFFFFFFFFFFFFFFFFFFFFFFFFFFFFFFFFFFFFFE0 AND PUSH1 0x20 ADD SWAP1 JUMP JUMPDEST PUSH20 0xFFFFFFFFFFFFFFFFFFFFFFFFFFFFFFFFFFFFFFFF AND SWAP1 JUMP JUMPDEST PUSH1 0x0 JUMPDEST DUP4 DUP2 LT ISZERO PUSH2 0x1FDA JUMPI DUP2 DUP2 ADD MLOAD DUP4 DUP3 ADD MSTORE PUSH1 0x20 ADD PUSH2 0x1FC2 JUMP JUMPDEST DUP4 DUP2 GT ISZERO PUSH2 0x1FE9 JUMPI PUSH1 0x0 DUP5 DUP5 ADD MSTORE JUMPDEST POP POP POP POP JUMP INVALID LOG2 PUSH6 0x627A7A723058 KECCAK256 DELEGATECALL SHL EXTCODECOPY DUP6 PUSH20 0x5B2F51CD7C2271EE78F20AD50FE41357559057 PUSH6 0x6E2ABDBFE3B4 PUSH13 0x6578706572696D656E74616CF5 STOP CALLDATACOPY "
			}
		}
	},
	"sourceTreeHashHex": "0x13efe3de237a4f019cd9814c8c46d70b247cd232d02ad6aadb112828a7698ea8",
	"compiler": {
		"name": "solc",
		"version": "0.5.7+commit.6da8b019.Linux.g++",
		"settings": {
			"optimizer": {
				"enabled": true,
				"runs": 1000000,
				"details": {
					"yul": true,
					"deduplicate": true,
					"cse": true,
					"constantOptimizer": true
				}
			},
			"outputSelection": {
				"*": {
					"*": [
						"abi",
						"evm.bytecode.object",
						"evm.bytecode.sourceMap",
						"evm.deployedBytecode.object",
						"evm.deployedBytecode.sourceMap"
					]
				}
			},
			"evmVersion": "constantinople",
			"remappings": [
				"@0x/contracts-exchange-libs=/home/cluracan/code/0x-monorepo/contracts/coordinator/node_modules/@0x/contracts-exchange-libs",
				"@0x/contracts-utils=/home/cluracan/code/0x-monorepo/contracts/coordinator/node_modules/@0x/contracts-utils"
			]
		}
	}
}