{
    "schemaVersion": "2.0.0",
    "contractName": "Coordinator",
    "compilerOutput": {
        "abi": [
            {
                "inputs": [
                    {
                        "internalType": "address",
                        "name": "exchange",
                        "type": "address"
                    },
                    {
                        "internalType": "uint256",
                        "name": "chainId",
                        "type": "uint256"
                    }
                ],
                "payable": false,
                "stateMutability": "nonpayable",
                "type": "constructor"
            },
            {
                "payable": true,
                "stateMutability": "payable",
                "type": "fallback"
            },
            {
                "constant": true,
                "inputs": [],
                "name": "EIP712_COORDINATOR_APPROVAL_SCHEMA_HASH",
                "outputs": [
                    {
                        "internalType": "bytes32",
                        "name": "",
                        "type": "bytes32"
                    }
                ],
                "payable": false,
                "stateMutability": "view",
                "type": "function"
            },
            {
                "constant": true,
                "inputs": [],
                "name": "EIP712_COORDINATOR_DOMAIN_HASH",
                "outputs": [
                    {
                        "internalType": "bytes32",
                        "name": "",
                        "type": "bytes32"
                    }
                ],
                "payable": false,
                "stateMutability": "view",
                "type": "function"
            },
            {
                "constant": true,
                "inputs": [],
                "name": "EIP712_COORDINATOR_DOMAIN_NAME",
                "outputs": [
                    {
                        "internalType": "string",
                        "name": "",
                        "type": "string"
                    }
                ],
                "payable": false,
                "stateMutability": "view",
                "type": "function"
            },
            {
                "constant": true,
                "inputs": [],
                "name": "EIP712_COORDINATOR_DOMAIN_VERSION",
                "outputs": [
                    {
                        "internalType": "string",
                        "name": "",
                        "type": "string"
                    }
                ],
                "payable": false,
                "stateMutability": "view",
                "type": "function"
            },
            {
                "constant": true,
                "inputs": [],
                "name": "EIP712_EXCHANGE_DOMAIN_HASH",
                "outputs": [
                    {
                        "internalType": "bytes32",
                        "name": "",
                        "type": "bytes32"
                    }
                ],
                "payable": false,
                "stateMutability": "view",
                "type": "function"
            },
            {
                "constant": true,
                "inputs": [
                    {
                        "components": [
                            {
                                "internalType": "uint256",
                                "name": "salt",
                                "type": "uint256"
                            },
                            {
                                "internalType": "uint256",
                                "name": "expirationTimeSeconds",
                                "type": "uint256"
                            },
                            {
                                "internalType": "uint256",
                                "name": "gasPrice",
                                "type": "uint256"
                            },
                            {
                                "internalType": "address",
                                "name": "signerAddress",
                                "type": "address"
                            },
                            {
                                "internalType": "bytes",
                                "name": "data",
                                "type": "bytes"
                            }
                        ],
                        "internalType": "struct LibZeroExTransaction.ZeroExTransaction",
                        "name": "transaction",
                        "type": "tuple"
                    },
                    {
                        "internalType": "address",
                        "name": "txOrigin",
                        "type": "address"
                    },
                    {
                        "internalType": "bytes",
                        "name": "transactionSignature",
                        "type": "bytes"
                    },
                    {
                        "internalType": "bytes[]",
                        "name": "approvalSignatures",
                        "type": "bytes[]"
                    }
                ],
                "name": "assertValidCoordinatorApprovals",
                "outputs": [],
                "payable": false,
                "stateMutability": "view",
                "type": "function"
            },
            {
                "constant": true,
                "inputs": [
                    {
                        "internalType": "bytes",
                        "name": "data",
                        "type": "bytes"
                    }
                ],
                "name": "decodeOrdersFromFillData",
                "outputs": [
                    {
                        "components": [
                            {
                                "internalType": "address",
                                "name": "makerAddress",
                                "type": "address"
                            },
                            {
                                "internalType": "address",
                                "name": "takerAddress",
                                "type": "address"
                            },
                            {
                                "internalType": "address",
                                "name": "feeRecipientAddress",
                                "type": "address"
                            },
                            {
                                "internalType": "address",
                                "name": "senderAddress",
                                "type": "address"
                            },
                            {
                                "internalType": "uint256",
                                "name": "makerAssetAmount",
                                "type": "uint256"
                            },
                            {
                                "internalType": "uint256",
                                "name": "takerAssetAmount",
                                "type": "uint256"
                            },
                            {
                                "internalType": "uint256",
                                "name": "makerFee",
                                "type": "uint256"
                            },
                            {
                                "internalType": "uint256",
                                "name": "takerFee",
                                "type": "uint256"
                            },
                            {
                                "internalType": "uint256",
                                "name": "expirationTimeSeconds",
                                "type": "uint256"
                            },
                            {
                                "internalType": "uint256",
                                "name": "salt",
                                "type": "uint256"
                            },
                            {
                                "internalType": "bytes",
                                "name": "makerAssetData",
                                "type": "bytes"
                            },
                            {
                                "internalType": "bytes",
                                "name": "takerAssetData",
                                "type": "bytes"
                            },
                            {
                                "internalType": "bytes",
                                "name": "makerFeeAssetData",
                                "type": "bytes"
                            },
                            {
                                "internalType": "bytes",
                                "name": "takerFeeAssetData",
                                "type": "bytes"
                            }
                        ],
                        "internalType": "struct LibOrder.Order[]",
                        "name": "orders",
                        "type": "tuple[]"
                    }
                ],
                "payable": false,
                "stateMutability": "pure",
                "type": "function"
            },
            {
                "constant": false,
                "inputs": [
                    {
                        "components": [
                            {
                                "internalType": "uint256",
                                "name": "salt",
                                "type": "uint256"
                            },
                            {
                                "internalType": "uint256",
                                "name": "expirationTimeSeconds",
                                "type": "uint256"
                            },
                            {
                                "internalType": "uint256",
                                "name": "gasPrice",
                                "type": "uint256"
                            },
                            {
                                "internalType": "address",
                                "name": "signerAddress",
                                "type": "address"
                            },
                            {
                                "internalType": "bytes",
                                "name": "data",
                                "type": "bytes"
                            }
                        ],
                        "internalType": "struct LibZeroExTransaction.ZeroExTransaction",
                        "name": "transaction",
                        "type": "tuple"
                    },
                    {
                        "internalType": "address",
                        "name": "txOrigin",
                        "type": "address"
                    },
                    {
                        "internalType": "bytes",
                        "name": "transactionSignature",
                        "type": "bytes"
                    },
                    {
                        "internalType": "bytes[]",
                        "name": "approvalSignatures",
                        "type": "bytes[]"
                    }
                ],
                "name": "executeTransaction",
                "outputs": [],
                "payable": true,
                "stateMutability": "payable",
                "type": "function"
            },
            {
                "constant": true,
                "inputs": [
                    {
                        "components": [
                            {
                                "internalType": "address",
                                "name": "txOrigin",
                                "type": "address"
                            },
                            {
                                "internalType": "bytes32",
                                "name": "transactionHash",
                                "type": "bytes32"
                            },
                            {
                                "internalType": "bytes",
                                "name": "transactionSignature",
                                "type": "bytes"
                            }
                        ],
                        "internalType": "struct LibCoordinatorApproval.CoordinatorApproval",
                        "name": "approval",
                        "type": "tuple"
                    }
                ],
                "name": "getCoordinatorApprovalHash",
                "outputs": [
                    {
                        "internalType": "bytes32",
                        "name": "approvalHash",
                        "type": "bytes32"
                    }
                ],
                "payable": false,
                "stateMutability": "view",
                "type": "function"
            },
            {
                "constant": true,
                "inputs": [
                    {
                        "internalType": "bytes32",
                        "name": "hash",
                        "type": "bytes32"
                    },
                    {
                        "internalType": "bytes",
                        "name": "signature",
                        "type": "bytes"
                    }
                ],
                "name": "getSignerAddress",
                "outputs": [
                    {
                        "internalType": "address",
                        "name": "signerAddress",
                        "type": "address"
                    }
                ],
                "payable": false,
                "stateMutability": "pure",
                "type": "function"
            }
        ],
        "devdoc": {
            "methods": {
                "assertValidCoordinatorApprovals((uint256,uint256,uint256,address,bytes),address,bytes,bytes[])": {
                    "details": "Validates that the 0x transaction has been approved by all of the feeRecipients      that correspond to each order in the transaction's Exchange calldata.",
                    "params": {
                        "approvalSignatures": "Array of signatures that correspond to the feeRecipients of each        order in the transaction's Exchange calldata.",
                        "transaction": "0x transaction containing salt, signerAddress, and data.",
                        "transactionSignature": "Proof that the transaction has been signed by the signer.",
                        "txOrigin": "Required signer of Ethereum transaction calling this function."
                    }
                },
                "constructor": {
                    "params": {
                        "chainId": "Chain ID of the network this contract is deployed on.",
                        "exchange": "Address of the 0x Exchange contract."
                    }
                },
                "decodeOrdersFromFillData(bytes)": {
                    "details": "Decodes the orders from Exchange calldata representing any fill method.",
                    "params": {
                        "data": "Exchange calldata representing a fill method."
                    },
                    "return": "orders The orders from the Exchange calldata."
                },
                "executeTransaction((uint256,uint256,uint256,address,bytes),address,bytes,bytes[])": {
                    "details": "Executes a 0x transaction that has been signed by the feeRecipients that correspond to      each order in the transaction's Exchange calldata.",
                    "params": {
                        "approvalSignatures": "Array of signatures that correspond to the feeRecipients of each        order in the transaction's Exchange calldata.",
                        "transaction": "0x transaction containing salt, signerAddress, and data.",
                        "transactionSignature": "Proof that the transaction has been signed by the signer.",
                        "txOrigin": "Required signer of Ethereum transaction calling this function."
                    }
                },
                "getCoordinatorApprovalHash((address,bytes32,bytes))": {
                    "details": "Calculates the EIP712 hash of the Coordinator approval mesasage using the domain      separator of this contract.",
                    "params": {
                        "approval": "Coordinator approval message containing the transaction hash, and transaction        signature."
                    },
                    "return": "approvalHash EIP712 hash of the Coordinator approval message with the domain         separator of this contract."
                },
                "getSignerAddress(bytes32,bytes)": {
                    "details": "Recovers the address of a signer given a hash and signature.",
                    "params": {
                        "hash": "Any 32 byte hash.",
                        "signature": "Proof that the hash has been signed by signer."
                    },
                    "return": "signerAddress Address of the signer."
                }
            }
        },
        "evm": {
            "bytecode": {
                "linkReferences": {},
                "object": "0x60806040526002805460ff191690553480156200001b57600080fd5b5060405162002094380380620020948339810160408190526200003e9162000201565b81818181600080309050620000cb6040518060400160405280601781526020017f30782050726f746f636f6c20436f6f7264696e61746f720000000000000000008152506040518060400160405280600581526020017f332e302e300000000000000000000000000000000000000000000000000000008152508584620001aa60201b62001daf1760201c565b6000908155925050506001600160a01b03821615620000eb5781620000ed565b305b9050620001726040518060400160405280600b81526020017f30782050726f746f636f6c0000000000000000000000000000000000000000008152506040518060400160405280600581526020017f332e302e300000000000000000000000000000000000000000000000000000008152508584620001aa60201b62001daf1760201c565b6001555050600280546001600160a01b03909316620100000262010000600160b01b031990931692909217909155506200023b915050565b8351602094850120835193850193909320604080517f8b73c3c69bb8fe3d512ecc4cf759cc79239f7b179b0ffacaa9a75d522b39400f815295860194909452928401929092526060830152608082015260a0902090565b6000806040838503121562000214578182fd5b82516001600160a01b03811681146200022b578283fd5b6020939093015192949293505050565b611e49806200024b6000396000f3fe6080604052600436106100b15760003560e01c8063da4fe07411610069578063ee55b9681161004e578063ee55b9681461018a578063fb6961cc146101b7578063fdd059a5146101cc576100b1565b8063da4fe07414610162578063e1c7157814610175576100b1565b806389fab5b71161009a57806389fab5b714610109578063b2562b7a1461012b578063c26cfecd14610140576100b1565b80630f7d8e39146100b357806352813679146100e9575b005b3480156100bf57600080fd5b506100d36100ce3660046116c2565b6101ec565b6040516100e09190611a15565b60405180910390f35b3480156100f557600080fd5b506100b1610104366004611889565b610455565b34801561011557600080fd5b5061011e610482565b6040516100e09190611c41565b34801561013757600080fd5b5061011e6104bb565b34801561014c57600080fd5b506101556104f4565b6040516100e09190611ba2565b6100b1610170366004611889565b6104fa565b34801561018157600080fd5b506101556105e8565b34801561019657600080fd5b506101aa6101a5366004611707565b61060c565b6040516100e09190611a36565b3480156101c357600080fd5b50610155610ac0565b3480156101d857600080fd5b506101556101e7366004611775565b610ac6565b80516000908061020a5761020a61020560008686610ad9565b610b7e565b60008360018551038151811061021c57fe5b016020015160f81c90506008811061023d5761023d61020560018787610ad9565b60008160ff16600881111561024e57fe5b9050600081600881111561025e57fe5b14156102785761027361020560028888610ad9565b61043c565b600181600881111561028657fe5b141561029b5761027361020560038888610ad9565b60028160088111156102a957fe5b141561038557826042146102c6576102c661020560008888610ad9565b6000856000815181106102d557fe5b016020015160f81c905060006102f287600163ffffffff610b8616565b9050600061030788602163ffffffff610b8616565b90506001898484846040516000815260200160405260405161032c9493929190611bcf565b6020604051602081039080840390855afa15801561034e573d6000803e3d6000fd5b50506040517fffffffffffffffffffffffffffffffffffffffffffffffffffffffffffffffe00151975061044f9650505050505050565b600381600881111561039357fe5b141561043c57826042146103b0576103b061020560008888610ad9565b6000856000815181106103bf57fe5b016020015160f81c905060006103dc87600163ffffffff610b8616565b905060006103f188602163ffffffff610b8616565b905060018960405160200161040691906119e4565b604051602081830303815290604052805190602001208484846040516000815260200160405260405161032c9493929190611bcf565b61044b61020560018888610ad9565b5050505b92915050565b6060610464856080015161060c565b80519091501561047b5761047b8582868686610bb0565b5050505050565b6040518060400160405280601781526020017f30782050726f746f636f6c20436f6f7264696e61746f7200000000000000000081525081565b6040518060400160405280600581526020017f332e302e3000000000000000000000000000000000000000000000000000000081525081565b60015481565b61050684848484610455565b6002546040517f2280c9100000000000000000000000000000000000000000000000000000000081526201000090910473ffffffffffffffffffffffffffffffffffffffff1690632280c9109034906105659088908790600401611c54565b6000604051808303818588803b15801561057e57600080fd5b505af1158015610592573d6000803e3d6000fd5b50505050506040513d6000823e601f3d9081017fffffffffffffffffffffffffffffffffffffffffffffffffffffffffffffffe01682016040526105d99190810190611742565b506105e2610d5d565b50505050565b7fa6511c04ca44625d50986f8c36bedc09366207a17b96e347094053a9f850716881565b60606000610620838263ffffffff610d7316565b90507fffffffff0000000000000000000000000000000000000000000000000000000081167f9b44d5560000000000000000000000000000000000000000000000000000000014806106b357507fffffffff0000000000000000000000000000000000000000000000000000000081167fe14b58c400000000000000000000000000000000000000000000000000000000145b1561073c576106c06112e6565b83516106d690859060049063ffffffff610dbf16565b8060200190516106e991908101906117ff565b604080516001808252818301909252919250816020015b6107086112e6565b815260200190600190039081610700579050509250808360008151811061072b57fe5b602002602001018190525050610aba565b7fffffffff0000000000000000000000000000000000000000000000000000000081167f9694a4020000000000000000000000000000000000000000000000000000000014806107cd57507fffffffff0000000000000000000000000000000000000000000000000000000081167f8ea8dfe400000000000000000000000000000000000000000000000000000000145b8061081957507fffffffff0000000000000000000000000000000000000000000000000000000081167fbeee2e1400000000000000000000000000000000000000000000000000000000145b8061086557507fffffffff0000000000000000000000000000000000000000000000000000000081167f78d29ac100000000000000000000000000000000000000000000000000000000145b806108b157507fffffffff0000000000000000000000000000000000000000000000000000000081167f8bc8efb300000000000000000000000000000000000000000000000000000000145b806108fd57507fffffffff0000000000000000000000000000000000000000000000000000000081167f369da09900000000000000000000000000000000000000000000000000000000145b8061094957507fffffffff0000000000000000000000000000000000000000000000000000000081167fa6c3bf3300000000000000000000000000000000000000000000000000000000145b1561097e57825161096490849060049063ffffffff610dbf16565b8060200190516109779190810190611636565b9150610aba565b7fffffffff0000000000000000000000000000000000000000000000000000000081167f88ec79fb000000000000000000000000000000000000000000000000000000001480610a0f57507fffffffff0000000000000000000000000000000000000000000000000000000081167fb718e29200000000000000000000000000000000000000000000000000000000145b15610aba57610a1c6112e6565b610a246112e6565b8451610a3a90869060049063ffffffff610dbf16565b806020019051610a4d9190810190611832565b60408051600280825260608201909252929450909250816020015b610a706112e6565b815260200190600190039081610a685790505093508184600081518110610a9357fe5b60200260200101819052508084600181518110610aac57fe5b602002602001018190525050505b50919050565b60005481565b600061044f610ad483610e46565b610e99565b606063779c522360e01b848484604051602401610af893929190611c0f565b604080517fffffffffffffffffffffffffffffffffffffffffffffffffffffffffffffffe08184030181529190526020810180517bffffffffffffffffffffffffffffffffffffffffffffffffffffffff167fffffffff000000000000000000000000000000000000000000000000000000009093169290921790915290509392505050565b805160208201fd5b60008160200183511015610ba757610ba76102056005855185602001610ea7565b50016020015190565b3273ffffffffffffffffffffffffffffffffffffffff841614610bd957610bd961020584610ec6565b6000610be786600154610f65565b60408051600080825260208201909252845192935091905b818114610c9057610c0e6113ad565b60405180606001604052808973ffffffffffffffffffffffffffffffffffffffff1681526020018681526020018881525090506000610c4c82610ac6565b90506000610c6d82898681518110610c6057fe5b60200260200101516101ec565b9050610c7f868263ffffffff610f7916565b95505060019092019150610bff9050565b50610ca1823263ffffffff610f7916565b875190925060005b818114610d5157600073ffffffffffffffffffffffffffffffffffffffff16898281518110610cd457fe5b60200260200101516060015173ffffffffffffffffffffffffffffffffffffffff161415610d0157610d49565b6000898281518110610d0f57fe5b60200260200101516040015190506000610d32828761101b90919063ffffffff16565b905080610d4657610d466102058884611053565b50505b600101610ca9565b50505050505050505050565b610d656110f5565b610d7157610d71611103565b565b60008160040183511015610d9457610d946102056003855185600401610ea7565b5001602001517fffffffff000000000000000000000000000000000000000000000000000000001690565b606081831115610dd857610dd861020560008585610ea7565b8351821115610df157610df16102056001848751610ea7565b8282036040519080825280601f01601f191660200182016040528015610e1e576020820181803883390190505b509050610e3f610e2d8261113d565b84610e378761113d565b018351611143565b9392505050565b604081810151825160209384015182519285019290922083517fa6511c04ca44625d50986f8c36bedc09366207a17b96e347094053a9f85071688152948501919091529183015260608201526080902090565b600061044f60005483611207565b6060632800659560e01b848484604051602401610af893929190611bed565b606063a458d7ff60e01b82604051602401610ee19190611a15565b604080517fffffffffffffffffffffffffffffffffffffffffffffffffffffffffffffffe08184030181529190526020810180517bffffffffffffffffffffffffffffffffffffffffffffffffffffffff167fffffffff00000000000000000000000000000000000000000000000000000000909316929092179091529050919050565b6000610e3f82610f7485611241565b611207565b815160405160609184906020808202808401820192910182851015610fa557610fa561020586856112c9565b82851115610fbf57610fb8858583611143565b8497508793505b60018201915060208101905080840192508294508188528460405286886001840381518110610fea57fe5b73ffffffffffffffffffffffffffffffffffffffff9092166020928302919091019091015250959695505050505050565b60006020835102602084018181018192505b8083101561044b5782518086141561104757600194508193505b5060208301925061102d565b606063d789b64060e01b8383604051602401611070929190611bab565b604080517fffffffffffffffffffffffffffffffffffffffffffffffffffffffffffffffe08184030181529190526020810180517bffffffffffffffffffffffffffffffffffffffffffffffffffffffff167fffffffff0000000000000000000000000000000000000000000000000000000090931692909217909152905092915050565b600254610100900460ff1690565b3031801561113a57604051339082156108fc029083906000818181858888f19350505050158015611138573d6000803e3d6000fd5b505b50565b60200190565b602081101561116d576001816020036101000a038019835116818551168082178652505050611202565b8282141561117a57611202565b828211156111b45760208103905080820181840181515b828510156111ac578451865260209586019590940193611191565b905250611202565b60208103905080820181840183515b818612156111fd57825182527fffffffffffffffffffffffffffffffffffffffffffffffffffffffffffffffe092830192909101906111c3565b855250505b505050565b6040517f19010000000000000000000000000000000000000000000000000000000000008152600281019290925260228201526042902090565b608081810151825160208085015160408087015160609788015186519685019690962082517fec69816980a3a3ca4554410e60253953e9ff375ba4536a98adfa15cc71541508815294850195909552908301919091529481019490945273ffffffffffffffffffffffffffffffffffffffff9091169183019190915260a082015260c0902090565b6060635fc8372260e01b8383604051602401611070929190611cca565b604051806101c00160405280600073ffffffffffffffffffffffffffffffffffffffff168152602001600073ffffffffffffffffffffffffffffffffffffffff168152602001600073ffffffffffffffffffffffffffffffffffffffff168152602001600073ffffffffffffffffffffffffffffffffffffffff168152602001600081526020016000815260200160008152602001600081526020016000815260200160008152602001606081526020016060815260200160608152602001606081525090565b6040805160608082018352600080835260208301529181019190915290565b803561044f81611d8d565b805161044f81611d8d565b600082601f8301126113f2578081fd5b813561140561140082611cff565b611cd8565b8181529150602080830190840160005b838110156114425761142d876020843589010161144c565b83526020928301929190910190600101611415565b5050505092915050565b600082601f83011261145c578081fd5b813561146a61140082611d1f565b915080825283602082850101111561148157600080fd5b8060208401602084013760009082016020015292915050565b600082601f8301126114aa578081fd5b81516114b861140082611d1f565b91508082528360208285010111156114cf57600080fd5b6114e0816020840160208601611d61565b5092915050565b60006101c08083850312156114fa578182fd5b61150381611cd8565b91505061151083836113d7565b815261151f83602084016113d7565b602082015261153183604084016113d7565b604082015261154383606084016113d7565b60608201526080820151608082015260a082015160a082015260c082015160c082015260e082015160e08201526101008083015181830152506101208083015181830152506101408083015167ffffffffffffffff808211156115a557600080fd5b6115b18683870161149a565b838501526101609250828501519150808211156115cd57600080fd5b6115d98683870161149a565b838501526101809250828501519150808211156115f557600080fd5b6116018683870161149a565b838501526101a092508285015191508082111561161d57600080fd5b5061162a8582860161149a565b82840152505092915050565b60006020808385031215611648578182fd5b825167ffffffffffffffff81111561165e578283fd5b80840185601f82011261166f578384fd5b8051915061167f61140083611cff565b82815283810190828501865b858110156116b4576116a28a8884518801016114e7565b8452928601929086019060010161168b565b509098975050505050505050565b600080604083850312156116d4578081fd5b82359150602083013567ffffffffffffffff8111156116f1578182fd5b6116fd8582860161144c565b9150509250929050565b600060208284031215611718578081fd5b813567ffffffffffffffff81111561172e578182fd5b61173a8482850161144c565b949350505050565b600060208284031215611753578081fd5b815167ffffffffffffffff811115611769578182fd5b61173a8482850161149a565b600060208284031215611786578081fd5b813567ffffffffffffffff8082111561179d578283fd5b818401606081870312156117af578384fd5b6117b96060611cd8565b925080356117c681611d8d565b8352602081810135908401526040810135828111156117e3578485fd5b6117ef8782840161144c565b6040850152509195945050505050565b600060208284031215611810578081fd5b815167ffffffffffffffff811115611826578182fd5b61173a848285016114e7565b60008060408385031215611844578182fd5b825167ffffffffffffffff8082111561185b578384fd5b611867868387016114e7565b9350602085015191508082111561187c578283fd5b506116fd858286016114e7565b6000806000806080858703121561189e578182fd5b843567ffffffffffffffff808211156118b5578384fd5b81870160a0818a0312156118c7578485fd5b6118d160a0611cd8565b92508035835260208101356020840152604081013560408401526118f889606083016113cc565b606084015260808101358281111561190e578586fd5b61191a8a82840161144c565b6080850152505081955061193188602089016113cc565b94506040870135915080821115611946578384fd5b6119528883890161144c565b93506060870135915080821115611967578283fd5b50611974878288016113e2565b91505092959194509250565b73ffffffffffffffffffffffffffffffffffffffff169052565b600081518084526119b2816020860160208601611d61565b601f017fffffffffffffffffffffffffffffffffffffffffffffffffffffffffffffffe0169290920160200192915050565b7f19457468657265756d205369676e6564204d6573736167653a0a3332000000008152601c810191909152603c0190565b73ffffffffffffffffffffffffffffffffffffffff91909116815260200190565b6000602080830181845280855180835260408601915060408482028701019250838701855b82811015611b95577fffffffffffffffffffffffffffffffffffffffffffffffffffffffffffffffc088860301845281516101c0611a9a878351611980565b87820151611aaa89890182611980565b506040820151611abd6040890182611980565b506060820151611ad06060890182611980565b506080820151608088015260a082015160a088015260c082015160c088015260e082015160e08801526101008083015181890152506101208083015181890152506101408083015182828a0152611b29838a018261199a565b915050610160915081830151888203838a0152611b46828261199a565b9250505061018080830151888303828a0152611b62838261199a565b9150506101a0915081830151888203838a0152611b7f828261199a565b9850505094870194505090850190600101611a5b565b5092979650505050505050565b90815260200190565b91825273ffffffffffffffffffffffffffffffffffffffff16602082015260400190565b93845260ff9290921660208401526040830152606082015260800190565b6060810160088510611bfb57fe5b938152602081019290925260409091015290565b600060048510611c1b57fe5b84825283602083015260606040830152611c38606083018461199a565b95945050505050565b600060208252610e3f602083018461199a565b60006040825283516040830152602084015160608301526040840151608083015273ffffffffffffffffffffffffffffffffffffffff60608501511660a0830152608084015160a060c0840152611cae60e084018261199a565b8381036020850152611cc0818661199a565b9695505050505050565b918252602082015260400190565b60405181810167ffffffffffffffff81118282101715611cf757600080fd5b604052919050565b600067ffffffffffffffff821115611d15578081fd5b5060209081020190565b600067ffffffffffffffff821115611d35578081fd5b50601f017fffffffffffffffffffffffffffffffffffffffffffffffffffffffffffffffe01660200190565b60005b83811015611d7c578181015183820152602001611d64565b838111156105e25750506000910152565b73ffffffffffffffffffffffffffffffffffffffff8116811461113a57600080fd5b8351602094850120835193850193909320604080517f8b73c3c69bb8fe3d512ecc4cf759cc79239f7b179b0ffacaa9a75d522b39400f815295860194909452928401929092526060830152608082015260a090209056fea365627a7a72315820efc81773b7912bf9e2c93c985afa2b6feee69452023986811fc84107b08ecc776c6578706572696d656e74616cf564736f6c634300050d0040",
                "opcodes": "PUSH1 0x80 PUSH1 0x40 MSTORE PUSH1 0x2 DUP1 SLOAD PUSH1 0xFF NOT AND SWAP1 SSTORE CALLVALUE DUP1 ISZERO PUSH3 0x1B JUMPI PUSH1 0x0 DUP1 REVERT JUMPDEST POP PUSH1 0x40 MLOAD PUSH3 0x2094 CODESIZE SUB DUP1 PUSH3 0x2094 DUP4 CODECOPY DUP2 ADD PUSH1 0x40 DUP2 SWAP1 MSTORE PUSH3 0x3E SWAP2 PUSH3 0x201 JUMP JUMPDEST DUP2 DUP2 DUP2 DUP2 PUSH1 0x0 DUP1 ADDRESS SWAP1 POP PUSH3 0xCB PUSH1 0x40 MLOAD DUP1 PUSH1 0x40 ADD PUSH1 0x40 MSTORE DUP1 PUSH1 0x17 DUP2 MSTORE PUSH1 0x20 ADD PUSH32 0x30782050726F746F636F6C20436F6F7264696E61746F72000000000000000000 DUP2 MSTORE POP PUSH1 0x40 MLOAD DUP1 PUSH1 0x40 ADD PUSH1 0x40 MSTORE DUP1 PUSH1 0x5 DUP2 MSTORE PUSH1 0x20 ADD PUSH32 0x332E302E30000000000000000000000000000000000000000000000000000000 DUP2 MSTORE POP DUP6 DUP5 PUSH3 0x1AA PUSH1 0x20 SHL PUSH3 0x1DAF OR PUSH1 0x20 SHR JUMP JUMPDEST PUSH1 0x0 SWAP1 DUP2 SSTORE SWAP3 POP POP POP PUSH1 0x1 PUSH1 0x1 PUSH1 0xA0 SHL SUB DUP3 AND ISZERO PUSH3 0xEB JUMPI DUP2 PUSH3 0xED JUMP JUMPDEST ADDRESS JUMPDEST SWAP1 POP PUSH3 0x172 PUSH1 0x40 MLOAD DUP1 PUSH1 0x40 ADD PUSH1 0x40 MSTORE DUP1 PUSH1 0xB DUP2 MSTORE PUSH1 0x20 ADD PUSH32 0x30782050726F746F636F6C000000000000000000000000000000000000000000 DUP2 MSTORE POP PUSH1 0x40 MLOAD DUP1 PUSH1 0x40 ADD PUSH1 0x40 MSTORE DUP1 PUSH1 0x5 DUP2 MSTORE PUSH1 0x20 ADD PUSH32 0x332E302E30000000000000000000000000000000000000000000000000000000 DUP2 MSTORE POP DUP6 DUP5 PUSH3 0x1AA PUSH1 0x20 SHL PUSH3 0x1DAF OR PUSH1 0x20 SHR JUMP JUMPDEST PUSH1 0x1 SSTORE POP POP PUSH1 0x2 DUP1 SLOAD PUSH1 0x1 PUSH1 0x1 PUSH1 0xA0 SHL SUB SWAP1 SWAP4 AND PUSH3 0x10000 MUL PUSH3 0x10000 PUSH1 0x1 PUSH1 0xB0 SHL SUB NOT SWAP1 SWAP4 AND SWAP3 SWAP1 SWAP3 OR SWAP1 SWAP2 SSTORE POP PUSH3 0x23B SWAP2 POP POP JUMP JUMPDEST DUP4 MLOAD PUSH1 0x20 SWAP5 DUP6 ADD KECCAK256 DUP4 MLOAD SWAP4 DUP6 ADD SWAP4 SWAP1 SWAP4 KECCAK256 PUSH1 0x40 DUP1 MLOAD PUSH32 0x8B73C3C69BB8FE3D512ECC4CF759CC79239F7B179B0FFACAA9A75D522B39400F DUP2 MSTORE SWAP6 DUP7 ADD SWAP5 SWAP1 SWAP5 MSTORE SWAP3 DUP5 ADD SWAP3 SWAP1 SWAP3 MSTORE PUSH1 0x60 DUP4 ADD MSTORE PUSH1 0x80 DUP3 ADD MSTORE PUSH1 0xA0 SWAP1 KECCAK256 SWAP1 JUMP JUMPDEST PUSH1 0x0 DUP1 PUSH1 0x40 DUP4 DUP6 SUB SLT ISZERO PUSH3 0x214 JUMPI DUP2 DUP3 REVERT JUMPDEST DUP3 MLOAD PUSH1 0x1 PUSH1 0x1 PUSH1 0xA0 SHL SUB DUP2 AND DUP2 EQ PUSH3 0x22B JUMPI DUP3 DUP4 REVERT JUMPDEST PUSH1 0x20 SWAP4 SWAP1 SWAP4 ADD MLOAD SWAP3 SWAP5 SWAP3 SWAP4 POP POP POP JUMP JUMPDEST PUSH2 0x1E49 DUP1 PUSH3 0x24B PUSH1 0x0 CODECOPY PUSH1 0x0 RETURN INVALID PUSH1 0x80 PUSH1 0x40 MSTORE PUSH1 0x4 CALLDATASIZE LT PUSH2 0xB1 JUMPI PUSH1 0x0 CALLDATALOAD PUSH1 0xE0 SHR DUP1 PUSH4 0xDA4FE074 GT PUSH2 0x69 JUMPI DUP1 PUSH4 0xEE55B968 GT PUSH2 0x4E JUMPI DUP1 PUSH4 0xEE55B968 EQ PUSH2 0x18A JUMPI DUP1 PUSH4 0xFB6961CC EQ PUSH2 0x1B7 JUMPI DUP1 PUSH4 0xFDD059A5 EQ PUSH2 0x1CC JUMPI PUSH2 0xB1 JUMP JUMPDEST DUP1 PUSH4 0xDA4FE074 EQ PUSH2 0x162 JUMPI DUP1 PUSH4 0xE1C71578 EQ PUSH2 0x175 JUMPI PUSH2 0xB1 JUMP JUMPDEST DUP1 PUSH4 0x89FAB5B7 GT PUSH2 0x9A JUMPI DUP1 PUSH4 0x89FAB5B7 EQ PUSH2 0x109 JUMPI DUP1 PUSH4 0xB2562B7A EQ PUSH2 0x12B JUMPI DUP1 PUSH4 0xC26CFECD EQ PUSH2 0x140 JUMPI PUSH2 0xB1 JUMP JUMPDEST DUP1 PUSH4 0xF7D8E39 EQ PUSH2 0xB3 JUMPI DUP1 PUSH4 0x52813679 EQ PUSH2 0xE9 JUMPI JUMPDEST STOP JUMPDEST CALLVALUE DUP1 ISZERO PUSH2 0xBF JUMPI PUSH1 0x0 DUP1 REVERT JUMPDEST POP PUSH2 0xD3 PUSH2 0xCE CALLDATASIZE PUSH1 0x4 PUSH2 0x16C2 JUMP JUMPDEST PUSH2 0x1EC JUMP JUMPDEST PUSH1 0x40 MLOAD PUSH2 0xE0 SWAP2 SWAP1 PUSH2 0x1A15 JUMP JUMPDEST PUSH1 0x40 MLOAD DUP1 SWAP2 SUB SWAP1 RETURN JUMPDEST CALLVALUE DUP1 ISZERO PUSH2 0xF5 JUMPI PUSH1 0x0 DUP1 REVERT JUMPDEST POP PUSH2 0xB1 PUSH2 0x104 CALLDATASIZE PUSH1 0x4 PUSH2 0x1889 JUMP JUMPDEST PUSH2 0x455 JUMP JUMPDEST CALLVALUE DUP1 ISZERO PUSH2 0x115 JUMPI PUSH1 0x0 DUP1 REVERT JUMPDEST POP PUSH2 0x11E PUSH2 0x482 JUMP JUMPDEST PUSH1 0x40 MLOAD PUSH2 0xE0 SWAP2 SWAP1 PUSH2 0x1C41 JUMP JUMPDEST CALLVALUE DUP1 ISZERO PUSH2 0x137 JUMPI PUSH1 0x0 DUP1 REVERT JUMPDEST POP PUSH2 0x11E PUSH2 0x4BB JUMP JUMPDEST CALLVALUE DUP1 ISZERO PUSH2 0x14C JUMPI PUSH1 0x0 DUP1 REVERT JUMPDEST POP PUSH2 0x155 PUSH2 0x4F4 JUMP JUMPDEST PUSH1 0x40 MLOAD PUSH2 0xE0 SWAP2 SWAP1 PUSH2 0x1BA2 JUMP JUMPDEST PUSH2 0xB1 PUSH2 0x170 CALLDATASIZE PUSH1 0x4 PUSH2 0x1889 JUMP JUMPDEST PUSH2 0x4FA JUMP JUMPDEST CALLVALUE DUP1 ISZERO PUSH2 0x181 JUMPI PUSH1 0x0 DUP1 REVERT JUMPDEST POP PUSH2 0x155 PUSH2 0x5E8 JUMP JUMPDEST CALLVALUE DUP1 ISZERO PUSH2 0x196 JUMPI PUSH1 0x0 DUP1 REVERT JUMPDEST POP PUSH2 0x1AA PUSH2 0x1A5 CALLDATASIZE PUSH1 0x4 PUSH2 0x1707 JUMP JUMPDEST PUSH2 0x60C JUMP JUMPDEST PUSH1 0x40 MLOAD PUSH2 0xE0 SWAP2 SWAP1 PUSH2 0x1A36 JUMP JUMPDEST CALLVALUE DUP1 ISZERO PUSH2 0x1C3 JUMPI PUSH1 0x0 DUP1 REVERT JUMPDEST POP PUSH2 0x155 PUSH2 0xAC0 JUMP JUMPDEST CALLVALUE DUP1 ISZERO PUSH2 0x1D8 JUMPI PUSH1 0x0 DUP1 REVERT JUMPDEST POP PUSH2 0x155 PUSH2 0x1E7 CALLDATASIZE PUSH1 0x4 PUSH2 0x1775 JUMP JUMPDEST PUSH2 0xAC6 JUMP JUMPDEST DUP1 MLOAD PUSH1 0x0 SWAP1 DUP1 PUSH2 0x20A JUMPI PUSH2 0x20A PUSH2 0x205 PUSH1 0x0 DUP7 DUP7 PUSH2 0xAD9 JUMP JUMPDEST PUSH2 0xB7E JUMP JUMPDEST PUSH1 0x0 DUP4 PUSH1 0x1 DUP6 MLOAD SUB DUP2 MLOAD DUP2 LT PUSH2 0x21C JUMPI INVALID JUMPDEST ADD PUSH1 0x20 ADD MLOAD PUSH1 0xF8 SHR SWAP1 POP PUSH1 0x8 DUP2 LT PUSH2 0x23D JUMPI PUSH2 0x23D PUSH2 0x205 PUSH1 0x1 DUP8 DUP8 PUSH2 0xAD9 JUMP JUMPDEST PUSH1 0x0 DUP2 PUSH1 0xFF AND PUSH1 0x8 DUP2 GT ISZERO PUSH2 0x24E JUMPI INVALID JUMPDEST SWAP1 POP PUSH1 0x0 DUP2 PUSH1 0x8 DUP2 GT ISZERO PUSH2 0x25E JUMPI INVALID JUMPDEST EQ ISZERO PUSH2 0x278 JUMPI PUSH2 0x273 PUSH2 0x205 PUSH1 0x2 DUP9 DUP9 PUSH2 0xAD9 JUMP JUMPDEST PUSH2 0x43C JUMP JUMPDEST PUSH1 0x1 DUP2 PUSH1 0x8 DUP2 GT ISZERO PUSH2 0x286 JUMPI INVALID JUMPDEST EQ ISZERO PUSH2 0x29B JUMPI PUSH2 0x273 PUSH2 0x205 PUSH1 0x3 DUP9 DUP9 PUSH2 0xAD9 JUMP JUMPDEST PUSH1 0x2 DUP2 PUSH1 0x8 DUP2 GT ISZERO PUSH2 0x2A9 JUMPI INVALID JUMPDEST EQ ISZERO PUSH2 0x385 JUMPI DUP3 PUSH1 0x42 EQ PUSH2 0x2C6 JUMPI PUSH2 0x2C6 PUSH2 0x205 PUSH1 0x0 DUP9 DUP9 PUSH2 0xAD9 JUMP JUMPDEST PUSH1 0x0 DUP6 PUSH1 0x0 DUP2 MLOAD DUP2 LT PUSH2 0x2D5 JUMPI INVALID JUMPDEST ADD PUSH1 0x20 ADD MLOAD PUSH1 0xF8 SHR SWAP1 POP PUSH1 0x0 PUSH2 0x2F2 DUP8 PUSH1 0x1 PUSH4 0xFFFFFFFF PUSH2 0xB86 AND JUMP JUMPDEST SWAP1 POP PUSH1 0x0 PUSH2 0x307 DUP9 PUSH1 0x21 PUSH4 0xFFFFFFFF PUSH2 0xB86 AND JUMP JUMPDEST SWAP1 POP PUSH1 0x1 DUP10 DUP5 DUP5 DUP5 PUSH1 0x40 MLOAD PUSH1 0x0 DUP2 MSTORE PUSH1 0x20 ADD PUSH1 0x40 MSTORE PUSH1 0x40 MLOAD PUSH2 0x32C SWAP5 SWAP4 SWAP3 SWAP2 SWAP1 PUSH2 0x1BCF JUMP JUMPDEST PUSH1 0x20 PUSH1 0x40 MLOAD PUSH1 0x20 DUP2 SUB SWAP1 DUP1 DUP5 SUB SWAP1 DUP6 GAS STATICCALL ISZERO DUP1 ISZERO PUSH2 0x34E JUMPI RETURNDATASIZE PUSH1 0x0 DUP1 RETURNDATACOPY RETURNDATASIZE PUSH1 0x0 REVERT JUMPDEST POP POP PUSH1 0x40 MLOAD PUSH32 0xFFFFFFFFFFFFFFFFFFFFFFFFFFFFFFFFFFFFFFFFFFFFFFFFFFFFFFFFFFFFFFE0 ADD MLOAD SWAP8 POP PUSH2 0x44F SWAP7 POP POP POP POP POP POP POP JUMP JUMPDEST PUSH1 0x3 DUP2 PUSH1 0x8 DUP2 GT ISZERO PUSH2 0x393 JUMPI INVALID JUMPDEST EQ ISZERO PUSH2 0x43C JUMPI DUP3 PUSH1 0x42 EQ PUSH2 0x3B0 JUMPI PUSH2 0x3B0 PUSH2 0x205 PUSH1 0x0 DUP9 DUP9 PUSH2 0xAD9 JUMP JUMPDEST PUSH1 0x0 DUP6 PUSH1 0x0 DUP2 MLOAD DUP2 LT PUSH2 0x3BF JUMPI INVALID JUMPDEST ADD PUSH1 0x20 ADD MLOAD PUSH1 0xF8 SHR SWAP1 POP PUSH1 0x0 PUSH2 0x3DC DUP8 PUSH1 0x1 PUSH4 0xFFFFFFFF PUSH2 0xB86 AND JUMP JUMPDEST SWAP1 POP PUSH1 0x0 PUSH2 0x3F1 DUP9 PUSH1 0x21 PUSH4 0xFFFFFFFF PUSH2 0xB86 AND JUMP JUMPDEST SWAP1 POP PUSH1 0x1 DUP10 PUSH1 0x40 MLOAD PUSH1 0x20 ADD PUSH2 0x406 SWAP2 SWAP1 PUSH2 0x19E4 JUMP JUMPDEST PUSH1 0x40 MLOAD PUSH1 0x20 DUP2 DUP4 SUB SUB DUP2 MSTORE SWAP1 PUSH1 0x40 MSTORE DUP1 MLOAD SWAP1 PUSH1 0x20 ADD KECCAK256 DUP5 DUP5 DUP5 PUSH1 0x40 MLOAD PUSH1 0x0 DUP2 MSTORE PUSH1 0x20 ADD PUSH1 0x40 MSTORE PUSH1 0x40 MLOAD PUSH2 0x32C SWAP5 SWAP4 SWAP3 SWAP2 SWAP1 PUSH2 0x1BCF JUMP JUMPDEST PUSH2 0x44B PUSH2 0x205 PUSH1 0x1 DUP9 DUP9 PUSH2 0xAD9 JUMP JUMPDEST POP POP POP JUMPDEST SWAP3 SWAP2 POP POP JUMP JUMPDEST PUSH1 0x60 PUSH2 0x464 DUP6 PUSH1 0x80 ADD MLOAD PUSH2 0x60C JUMP JUMPDEST DUP1 MLOAD SWAP1 SWAP2 POP ISZERO PUSH2 0x47B JUMPI PUSH2 0x47B DUP6 DUP3 DUP7 DUP7 DUP7 PUSH2 0xBB0 JUMP JUMPDEST POP POP POP POP POP JUMP JUMPDEST PUSH1 0x40 MLOAD DUP1 PUSH1 0x40 ADD PUSH1 0x40 MSTORE DUP1 PUSH1 0x17 DUP2 MSTORE PUSH1 0x20 ADD PUSH32 0x30782050726F746F636F6C20436F6F7264696E61746F72000000000000000000 DUP2 MSTORE POP DUP2 JUMP JUMPDEST PUSH1 0x40 MLOAD DUP1 PUSH1 0x40 ADD PUSH1 0x40 MSTORE DUP1 PUSH1 0x5 DUP2 MSTORE PUSH1 0x20 ADD PUSH32 0x332E302E30000000000000000000000000000000000000000000000000000000 DUP2 MSTORE POP DUP2 JUMP JUMPDEST PUSH1 0x1 SLOAD DUP2 JUMP JUMPDEST PUSH2 0x506 DUP5 DUP5 DUP5 DUP5 PUSH2 0x455 JUMP JUMPDEST PUSH1 0x2 SLOAD PUSH1 0x40 MLOAD PUSH32 0x2280C91000000000000000000000000000000000000000000000000000000000 DUP2 MSTORE PUSH3 0x10000 SWAP1 SWAP2 DIV PUSH20 0xFFFFFFFFFFFFFFFFFFFFFFFFFFFFFFFFFFFFFFFF AND SWAP1 PUSH4 0x2280C910 SWAP1 CALLVALUE SWAP1 PUSH2 0x565 SWAP1 DUP9 SWAP1 DUP8 SWAP1 PUSH1 0x4 ADD PUSH2 0x1C54 JUMP JUMPDEST PUSH1 0x0 PUSH1 0x40 MLOAD DUP1 DUP4 SUB DUP2 DUP6 DUP9 DUP1 EXTCODESIZE ISZERO DUP1 ISZERO PUSH2 0x57E JUMPI PUSH1 0x0 DUP1 REVERT JUMPDEST POP GAS CALL ISZERO DUP1 ISZERO PUSH2 0x592 JUMPI RETURNDATASIZE PUSH1 0x0 DUP1 RETURNDATACOPY RETURNDATASIZE PUSH1 0x0 REVERT JUMPDEST POP POP POP POP POP PUSH1 0x40 MLOAD RETURNDATASIZE PUSH1 0x0 DUP3 RETURNDATACOPY PUSH1 0x1F RETURNDATASIZE SWAP1 DUP2 ADD PUSH32 0xFFFFFFFFFFFFFFFFFFFFFFFFFFFFFFFFFFFFFFFFFFFFFFFFFFFFFFFFFFFFFFE0 AND DUP3 ADD PUSH1 0x40 MSTORE PUSH2 0x5D9 SWAP2 SWAP1 DUP2 ADD SWAP1 PUSH2 0x1742 JUMP JUMPDEST POP PUSH2 0x5E2 PUSH2 0xD5D JUMP JUMPDEST POP POP POP POP JUMP JUMPDEST PUSH32 0xA6511C04CA44625D50986F8C36BEDC09366207A17B96E347094053A9F8507168 DUP2 JUMP JUMPDEST PUSH1 0x60 PUSH1 0x0 PUSH2 0x620 DUP4 DUP3 PUSH4 0xFFFFFFFF PUSH2 0xD73 AND JUMP JUMPDEST SWAP1 POP PUSH32 0xFFFFFFFF00000000000000000000000000000000000000000000000000000000 DUP2 AND PUSH32 0x9B44D55600000000000000000000000000000000000000000000000000000000 EQ DUP1 PUSH2 0x6B3 JUMPI POP PUSH32 0xFFFFFFFF00000000000000000000000000000000000000000000000000000000 DUP2 AND PUSH32 0xE14B58C400000000000000000000000000000000000000000000000000000000 EQ JUMPDEST ISZERO PUSH2 0x73C JUMPI PUSH2 0x6C0 PUSH2 0x12E6 JUMP JUMPDEST DUP4 MLOAD PUSH2 0x6D6 SWAP1 DUP6 SWAP1 PUSH1 0x4 SWAP1 PUSH4 0xFFFFFFFF PUSH2 0xDBF AND JUMP JUMPDEST DUP1 PUSH1 0x20 ADD SWAP1 MLOAD PUSH2 0x6E9 SWAP2 SWAP1 DUP2 ADD SWAP1 PUSH2 0x17FF JUMP JUMPDEST PUSH1 0x40 DUP1 MLOAD PUSH1 0x1 DUP1 DUP3 MSTORE DUP2 DUP4 ADD SWAP1 SWAP3 MSTORE SWAP2 SWAP3 POP DUP2 PUSH1 0x20 ADD JUMPDEST PUSH2 0x708 PUSH2 0x12E6 JUMP JUMPDEST DUP2 MSTORE PUSH1 0x20 ADD SWAP1 PUSH1 0x1 SWAP1 SUB SWAP1 DUP2 PUSH2 0x700 JUMPI SWAP1 POP POP SWAP3 POP DUP1 DUP4 PUSH1 0x0 DUP2 MLOAD DUP2 LT PUSH2 0x72B JUMPI INVALID JUMPDEST PUSH1 0x20 MUL PUSH1 0x20 ADD ADD DUP2 SWAP1 MSTORE POP POP PUSH2 0xABA JUMP JUMPDEST PUSH32 0xFFFFFFFF00000000000000000000000000000000000000000000000000000000 DUP2 AND PUSH32 0x9694A40200000000000000000000000000000000000000000000000000000000 EQ DUP1 PUSH2 0x7CD JUMPI POP PUSH32 0xFFFFFFFF00000000000000000000000000000000000000000000000000000000 DUP2 AND PUSH32 0x8EA8DFE400000000000000000000000000000000000000000000000000000000 EQ JUMPDEST DUP1 PUSH2 0x819 JUMPI POP PUSH32 0xFFFFFFFF00000000000000000000000000000000000000000000000000000000 DUP2 AND PUSH32 0xBEEE2E1400000000000000000000000000000000000000000000000000000000 EQ JUMPDEST DUP1 PUSH2 0x865 JUMPI POP PUSH32 0xFFFFFFFF00000000000000000000000000000000000000000000000000000000 DUP2 AND PUSH32 0x78D29AC100000000000000000000000000000000000000000000000000000000 EQ JUMPDEST DUP1 PUSH2 0x8B1 JUMPI POP PUSH32 0xFFFFFFFF00000000000000000000000000000000000000000000000000000000 DUP2 AND PUSH32 0x8BC8EFB300000000000000000000000000000000000000000000000000000000 EQ JUMPDEST DUP1 PUSH2 0x8FD JUMPI POP PUSH32 0xFFFFFFFF00000000000000000000000000000000000000000000000000000000 DUP2 AND PUSH32 0x369DA09900000000000000000000000000000000000000000000000000000000 EQ JUMPDEST DUP1 PUSH2 0x949 JUMPI POP PUSH32 0xFFFFFFFF00000000000000000000000000000000000000000000000000000000 DUP2 AND PUSH32 0xA6C3BF3300000000000000000000000000000000000000000000000000000000 EQ JUMPDEST ISZERO PUSH2 0x97E JUMPI DUP3 MLOAD PUSH2 0x964 SWAP1 DUP5 SWAP1 PUSH1 0x4 SWAP1 PUSH4 0xFFFFFFFF PUSH2 0xDBF AND JUMP JUMPDEST DUP1 PUSH1 0x20 ADD SWAP1 MLOAD PUSH2 0x977 SWAP2 SWAP1 DUP2 ADD SWAP1 PUSH2 0x1636 JUMP JUMPDEST SWAP2 POP PUSH2 0xABA JUMP JUMPDEST PUSH32 0xFFFFFFFF00000000000000000000000000000000000000000000000000000000 DUP2 AND PUSH32 0x88EC79FB00000000000000000000000000000000000000000000000000000000 EQ DUP1 PUSH2 0xA0F JUMPI POP PUSH32 0xFFFFFFFF00000000000000000000000000000000000000000000000000000000 DUP2 AND PUSH32 0xB718E29200000000000000000000000000000000000000000000000000000000 EQ JUMPDEST ISZERO PUSH2 0xABA JUMPI PUSH2 0xA1C PUSH2 0x12E6 JUMP JUMPDEST PUSH2 0xA24 PUSH2 0x12E6 JUMP JUMPDEST DUP5 MLOAD PUSH2 0xA3A SWAP1 DUP7 SWAP1 PUSH1 0x4 SWAP1 PUSH4 0xFFFFFFFF PUSH2 0xDBF AND JUMP JUMPDEST DUP1 PUSH1 0x20 ADD SWAP1 MLOAD PUSH2 0xA4D SWAP2 SWAP1 DUP2 ADD SWAP1 PUSH2 0x1832 JUMP JUMPDEST PUSH1 0x40 DUP1 MLOAD PUSH1 0x2 DUP1 DUP3 MSTORE PUSH1 0x60 DUP3 ADD SWAP1 SWAP3 MSTORE SWAP3 SWAP5 POP SWAP1 SWAP3 POP DUP2 PUSH1 0x20 ADD JUMPDEST PUSH2 0xA70 PUSH2 0x12E6 JUMP JUMPDEST DUP2 MSTORE PUSH1 0x20 ADD SWAP1 PUSH1 0x1 SWAP1 SUB SWAP1 DUP2 PUSH2 0xA68 JUMPI SWAP1 POP POP SWAP4 POP DUP2 DUP5 PUSH1 0x0 DUP2 MLOAD DUP2 LT PUSH2 0xA93 JUMPI INVALID JUMPDEST PUSH1 0x20 MUL PUSH1 0x20 ADD ADD DUP2 SWAP1 MSTORE POP DUP1 DUP5 PUSH1 0x1 DUP2 MLOAD DUP2 LT PUSH2 0xAAC JUMPI INVALID JUMPDEST PUSH1 0x20 MUL PUSH1 0x20 ADD ADD DUP2 SWAP1 MSTORE POP POP POP JUMPDEST POP SWAP2 SWAP1 POP JUMP JUMPDEST PUSH1 0x0 SLOAD DUP2 JUMP JUMPDEST PUSH1 0x0 PUSH2 0x44F PUSH2 0xAD4 DUP4 PUSH2 0xE46 JUMP JUMPDEST PUSH2 0xE99 JUMP JUMPDEST PUSH1 0x60 PUSH4 0x779C5223 PUSH1 0xE0 SHL DUP5 DUP5 DUP5 PUSH1 0x40 MLOAD PUSH1 0x24 ADD PUSH2 0xAF8 SWAP4 SWAP3 SWAP2 SWAP1 PUSH2 0x1C0F JUMP JUMPDEST PUSH1 0x40 DUP1 MLOAD PUSH32 0xFFFFFFFFFFFFFFFFFFFFFFFFFFFFFFFFFFFFFFFFFFFFFFFFFFFFFFFFFFFFFFE0 DUP2 DUP5 SUB ADD DUP2 MSTORE SWAP2 SWAP1 MSTORE PUSH1 0x20 DUP2 ADD DUP1 MLOAD PUSH28 0xFFFFFFFFFFFFFFFFFFFFFFFFFFFFFFFFFFFFFFFFFFFFFFFFFFFFFFFF AND PUSH32 0xFFFFFFFF00000000000000000000000000000000000000000000000000000000 SWAP1 SWAP4 AND SWAP3 SWAP1 SWAP3 OR SWAP1 SWAP2 MSTORE SWAP1 POP SWAP4 SWAP3 POP POP POP JUMP JUMPDEST DUP1 MLOAD PUSH1 0x20 DUP3 ADD REVERT JUMPDEST PUSH1 0x0 DUP2 PUSH1 0x20 ADD DUP4 MLOAD LT ISZERO PUSH2 0xBA7 JUMPI PUSH2 0xBA7 PUSH2 0x205 PUSH1 0x5 DUP6 MLOAD DUP6 PUSH1 0x20 ADD PUSH2 0xEA7 JUMP JUMPDEST POP ADD PUSH1 0x20 ADD MLOAD SWAP1 JUMP JUMPDEST ORIGIN PUSH20 0xFFFFFFFFFFFFFFFFFFFFFFFFFFFFFFFFFFFFFFFF DUP5 AND EQ PUSH2 0xBD9 JUMPI PUSH2 0xBD9 PUSH2 0x205 DUP5 PUSH2 0xEC6 JUMP JUMPDEST PUSH1 0x0 PUSH2 0xBE7 DUP7 PUSH1 0x1 SLOAD PUSH2 0xF65 JUMP JUMPDEST PUSH1 0x40 DUP1 MLOAD PUSH1 0x0 DUP1 DUP3 MSTORE PUSH1 0x20 DUP3 ADD SWAP1 SWAP3 MSTORE DUP5 MLOAD SWAP3 SWAP4 POP SWAP2 SWAP1 JUMPDEST DUP2 DUP2 EQ PUSH2 0xC90 JUMPI PUSH2 0xC0E PUSH2 0x13AD JUMP JUMPDEST PUSH1 0x40 MLOAD DUP1 PUSH1 0x60 ADD PUSH1 0x40 MSTORE DUP1 DUP10 PUSH20 0xFFFFFFFFFFFFFFFFFFFFFFFFFFFFFFFFFFFFFFFF AND DUP2 MSTORE PUSH1 0x20 ADD DUP7 DUP2 MSTORE PUSH1 0x20 ADD DUP9 DUP2 MSTORE POP SWAP1 POP PUSH1 0x0 PUSH2 0xC4C DUP3 PUSH2 0xAC6 JUMP JUMPDEST SWAP1 POP PUSH1 0x0 PUSH2 0xC6D DUP3 DUP10 DUP7 DUP2 MLOAD DUP2 LT PUSH2 0xC60 JUMPI INVALID JUMPDEST PUSH1 0x20 MUL PUSH1 0x20 ADD ADD MLOAD PUSH2 0x1EC JUMP JUMPDEST SWAP1 POP PUSH2 0xC7F DUP7 DUP3 PUSH4 0xFFFFFFFF PUSH2 0xF79 AND JUMP JUMPDEST SWAP6 POP POP PUSH1 0x1 SWAP1 SWAP3 ADD SWAP2 POP PUSH2 0xBFF SWAP1 POP JUMP JUMPDEST POP PUSH2 0xCA1 DUP3 ORIGIN PUSH4 0xFFFFFFFF PUSH2 0xF79 AND JUMP JUMPDEST DUP8 MLOAD SWAP1 SWAP3 POP PUSH1 0x0 JUMPDEST DUP2 DUP2 EQ PUSH2 0xD51 JUMPI PUSH1 0x0 PUSH20 0xFFFFFFFFFFFFFFFFFFFFFFFFFFFFFFFFFFFFFFFF AND DUP10 DUP3 DUP2 MLOAD DUP2 LT PUSH2 0xCD4 JUMPI INVALID JUMPDEST PUSH1 0x20 MUL PUSH1 0x20 ADD ADD MLOAD PUSH1 0x60 ADD MLOAD PUSH20 0xFFFFFFFFFFFFFFFFFFFFFFFFFFFFFFFFFFFFFFFF AND EQ ISZERO PUSH2 0xD01 JUMPI PUSH2 0xD49 JUMP JUMPDEST PUSH1 0x0 DUP10 DUP3 DUP2 MLOAD DUP2 LT PUSH2 0xD0F JUMPI INVALID JUMPDEST PUSH1 0x20 MUL PUSH1 0x20 ADD ADD MLOAD PUSH1 0x40 ADD MLOAD SWAP1 POP PUSH1 0x0 PUSH2 0xD32 DUP3 DUP8 PUSH2 0x101B SWAP1 SWAP2 SWAP1 PUSH4 0xFFFFFFFF AND JUMP JUMPDEST SWAP1 POP DUP1 PUSH2 0xD46 JUMPI PUSH2 0xD46 PUSH2 0x205 DUP9 DUP5 PUSH2 0x1053 JUMP JUMPDEST POP POP JUMPDEST PUSH1 0x1 ADD PUSH2 0xCA9 JUMP JUMPDEST POP POP POP POP POP POP POP POP POP POP JUMP JUMPDEST PUSH2 0xD65 PUSH2 0x10F5 JUMP JUMPDEST PUSH2 0xD71 JUMPI PUSH2 0xD71 PUSH2 0x1103 JUMP JUMPDEST JUMP JUMPDEST PUSH1 0x0 DUP2 PUSH1 0x4 ADD DUP4 MLOAD LT ISZERO PUSH2 0xD94 JUMPI PUSH2 0xD94 PUSH2 0x205 PUSH1 0x3 DUP6 MLOAD DUP6 PUSH1 0x4 ADD PUSH2 0xEA7 JUMP JUMPDEST POP ADD PUSH1 0x20 ADD MLOAD PUSH32 0xFFFFFFFF00000000000000000000000000000000000000000000000000000000 AND SWAP1 JUMP JUMPDEST PUSH1 0x60 DUP2 DUP4 GT ISZERO PUSH2 0xDD8 JUMPI PUSH2 0xDD8 PUSH2 0x205 PUSH1 0x0 DUP6 DUP6 PUSH2 0xEA7 JUMP JUMPDEST DUP4 MLOAD DUP3 GT ISZERO PUSH2 0xDF1 JUMPI PUSH2 0xDF1 PUSH2 0x205 PUSH1 0x1 DUP5 DUP8 MLOAD PUSH2 0xEA7 JUMP JUMPDEST DUP3 DUP3 SUB PUSH1 0x40 MLOAD SWAP1 DUP1 DUP3 MSTORE DUP1 PUSH1 0x1F ADD PUSH1 0x1F NOT AND PUSH1 0x20 ADD DUP3 ADD PUSH1 0x40 MSTORE DUP1 ISZERO PUSH2 0xE1E JUMPI PUSH1 0x20 DUP3 ADD DUP2 DUP1 CODESIZE DUP4 CODECOPY ADD SWAP1 POP JUMPDEST POP SWAP1 POP PUSH2 0xE3F PUSH2 0xE2D DUP3 PUSH2 0x113D JUMP JUMPDEST DUP5 PUSH2 0xE37 DUP8 PUSH2 0x113D JUMP JUMPDEST ADD DUP4 MLOAD PUSH2 0x1143 JUMP JUMPDEST SWAP4 SWAP3 POP POP POP JUMP JUMPDEST PUSH1 0x40 DUP2 DUP2 ADD MLOAD DUP3 MLOAD PUSH1 0x20 SWAP4 DUP5 ADD MLOAD DUP3 MLOAD SWAP3 DUP6 ADD SWAP3 SWAP1 SWAP3 KECCAK256 DUP4 MLOAD PUSH32 0xA6511C04CA44625D50986F8C36BEDC09366207A17B96E347094053A9F8507168 DUP2 MSTORE SWAP5 DUP6 ADD SWAP2 SWAP1 SWAP2 MSTORE SWAP2 DUP4 ADD MSTORE PUSH1 0x60 DUP3 ADD MSTORE PUSH1 0x80 SWAP1 KECCAK256 SWAP1 JUMP JUMPDEST PUSH1 0x0 PUSH2 0x44F PUSH1 0x0 SLOAD DUP4 PUSH2 0x1207 JUMP JUMPDEST PUSH1 0x60 PUSH4 0x28006595 PUSH1 0xE0 SHL DUP5 DUP5 DUP5 PUSH1 0x40 MLOAD PUSH1 0x24 ADD PUSH2 0xAF8 SWAP4 SWAP3 SWAP2 SWAP1 PUSH2 0x1BED JUMP JUMPDEST PUSH1 0x60 PUSH4 0xA458D7FF PUSH1 0xE0 SHL DUP3 PUSH1 0x40 MLOAD PUSH1 0x24 ADD PUSH2 0xEE1 SWAP2 SWAP1 PUSH2 0x1A15 JUMP JUMPDEST PUSH1 0x40 DUP1 MLOAD PUSH32 0xFFFFFFFFFFFFFFFFFFFFFFFFFFFFFFFFFFFFFFFFFFFFFFFFFFFFFFFFFFFFFFE0 DUP2 DUP5 SUB ADD DUP2 MSTORE SWAP2 SWAP1 MSTORE PUSH1 0x20 DUP2 ADD DUP1 MLOAD PUSH28 0xFFFFFFFFFFFFFFFFFFFFFFFFFFFFFFFFFFFFFFFFFFFFFFFFFFFFFFFF AND PUSH32 0xFFFFFFFF00000000000000000000000000000000000000000000000000000000 SWAP1 SWAP4 AND SWAP3 SWAP1 SWAP3 OR SWAP1 SWAP2 MSTORE SWAP1 POP SWAP2 SWAP1 POP JUMP JUMPDEST PUSH1 0x0 PUSH2 0xE3F DUP3 PUSH2 0xF74 DUP6 PUSH2 0x1241 JUMP JUMPDEST PUSH2 0x1207 JUMP JUMPDEST DUP2 MLOAD PUSH1 0x40 MLOAD PUSH1 0x60 SWAP2 DUP5 SWAP1 PUSH1 0x20 DUP1 DUP3 MUL DUP1 DUP5 ADD DUP3 ADD SWAP3 SWAP2 ADD DUP3 DUP6 LT ISZERO PUSH2 0xFA5 JUMPI PUSH2 0xFA5 PUSH2 0x205 DUP7 DUP6 PUSH2 0x12C9 JUMP JUMPDEST DUP3 DUP6 GT ISZERO PUSH2 0xFBF JUMPI PUSH2 0xFB8 DUP6 DUP6 DUP4 PUSH2 0x1143 JUMP JUMPDEST DUP5 SWAP8 POP DUP8 SWAP4 POP JUMPDEST PUSH1 0x1 DUP3 ADD SWAP2 POP PUSH1 0x20 DUP2 ADD SWAP1 POP DUP1 DUP5 ADD SWAP3 POP DUP3 SWAP5 POP DUP2 DUP9 MSTORE DUP5 PUSH1 0x40 MSTORE DUP7 DUP9 PUSH1 0x1 DUP5 SUB DUP2 MLOAD DUP2 LT PUSH2 0xFEA JUMPI INVALID JUMPDEST PUSH20 0xFFFFFFFFFFFFFFFFFFFFFFFFFFFFFFFFFFFFFFFF SWAP1 SWAP3 AND PUSH1 0x20 SWAP3 DUP4 MUL SWAP2 SWAP1 SWAP2 ADD SWAP1 SWAP2 ADD MSTORE POP SWAP6 SWAP7 SWAP6 POP POP POP POP POP POP JUMP JUMPDEST PUSH1 0x0 PUSH1 0x20 DUP4 MLOAD MUL PUSH1 0x20 DUP5 ADD DUP2 DUP2 ADD DUP2 SWAP3 POP JUMPDEST DUP1 DUP4 LT ISZERO PUSH2 0x44B JUMPI DUP3 MLOAD DUP1 DUP7 EQ ISZERO PUSH2 0x1047 JUMPI PUSH1 0x1 SWAP5 POP DUP2 SWAP4 POP JUMPDEST POP PUSH1 0x20 DUP4 ADD SWAP3 POP PUSH2 0x102D JUMP JUMPDEST PUSH1 0x60 PUSH4 0xD789B640 PUSH1 0xE0 SHL DUP4 DUP4 PUSH1 0x40 MLOAD PUSH1 0x24 ADD PUSH2 0x1070 SWAP3 SWAP2 SWAP1 PUSH2 0x1BAB JUMP JUMPDEST PUSH1 0x40 DUP1 MLOAD PUSH32 0xFFFFFFFFFFFFFFFFFFFFFFFFFFFFFFFFFFFFFFFFFFFFFFFFFFFFFFFFFFFFFFE0 DUP2 DUP5 SUB ADD DUP2 MSTORE SWAP2 SWAP1 MSTORE PUSH1 0x20 DUP2 ADD DUP1 MLOAD PUSH28 0xFFFFFFFFFFFFFFFFFFFFFFFFFFFFFFFFFFFFFFFFFFFFFFFFFFFFFFFF AND PUSH32 0xFFFFFFFF00000000000000000000000000000000000000000000000000000000 SWAP1 SWAP4 AND SWAP3 SWAP1 SWAP3 OR SWAP1 SWAP2 MSTORE SWAP1 POP SWAP3 SWAP2 POP POP JUMP JUMPDEST PUSH1 0x2 SLOAD PUSH2 0x100 SWAP1 DIV PUSH1 0xFF AND SWAP1 JUMP JUMPDEST ADDRESS BALANCE DUP1 ISZERO PUSH2 0x113A JUMPI PUSH1 0x40 MLOAD CALLER SWAP1 DUP3 ISZERO PUSH2 0x8FC MUL SWAP1 DUP4 SWAP1 PUSH1 0x0 DUP2 DUP2 DUP2 DUP6 DUP9 DUP9 CALL SWAP4 POP POP POP POP ISZERO DUP1 ISZERO PUSH2 0x1138 JUMPI RETURNDATASIZE PUSH1 0x0 DUP1 RETURNDATACOPY RETURNDATASIZE PUSH1 0x0 REVERT JUMPDEST POP JUMPDEST POP JUMP JUMPDEST PUSH1 0x20 ADD SWAP1 JUMP JUMPDEST PUSH1 0x20 DUP2 LT ISZERO PUSH2 0x116D JUMPI PUSH1 0x1 DUP2 PUSH1 0x20 SUB PUSH2 0x100 EXP SUB DUP1 NOT DUP4 MLOAD AND DUP2 DUP6 MLOAD AND DUP1 DUP3 OR DUP7 MSTORE POP POP POP PUSH2 0x1202 JUMP JUMPDEST DUP3 DUP3 EQ ISZERO PUSH2 0x117A JUMPI PUSH2 0x1202 JUMP JUMPDEST DUP3 DUP3 GT ISZERO PUSH2 0x11B4 JUMPI PUSH1 0x20 DUP2 SUB SWAP1 POP DUP1 DUP3 ADD DUP2 DUP5 ADD DUP2 MLOAD JUMPDEST DUP3 DUP6 LT ISZERO PUSH2 0x11AC JUMPI DUP5 MLOAD DUP7 MSTORE PUSH1 0x20 SWAP6 DUP7 ADD SWAP6 SWAP1 SWAP5 ADD SWAP4 PUSH2 0x1191 JUMP JUMPDEST SWAP1 MSTORE POP PUSH2 0x1202 JUMP JUMPDEST PUSH1 0x20 DUP2 SUB SWAP1 POP DUP1 DUP3 ADD DUP2 DUP5 ADD DUP4 MLOAD JUMPDEST DUP2 DUP7 SLT ISZERO PUSH2 0x11FD JUMPI DUP3 MLOAD DUP3 MSTORE PUSH32 0xFFFFFFFFFFFFFFFFFFFFFFFFFFFFFFFFFFFFFFFFFFFFFFFFFFFFFFFFFFFFFFE0 SWAP3 DUP4 ADD SWAP3 SWAP1 SWAP2 ADD SWAP1 PUSH2 0x11C3 JUMP JUMPDEST DUP6 MSTORE POP POP JUMPDEST POP POP POP JUMP JUMPDEST PUSH1 0x40 MLOAD PUSH32 0x1901000000000000000000000000000000000000000000000000000000000000 DUP2 MSTORE PUSH1 0x2 DUP2 ADD SWAP3 SWAP1 SWAP3 MSTORE PUSH1 0x22 DUP3 ADD MSTORE PUSH1 0x42 SWAP1 KECCAK256 SWAP1 JUMP JUMPDEST PUSH1 0x80 DUP2 DUP2 ADD MLOAD DUP3 MLOAD PUSH1 0x20 DUP1 DUP6 ADD MLOAD PUSH1 0x40 DUP1 DUP8 ADD MLOAD PUSH1 0x60 SWAP8 DUP9 ADD MLOAD DUP7 MLOAD SWAP7 DUP6 ADD SWAP7 SWAP1 SWAP7 KECCAK256 DUP3 MLOAD PUSH32 0xEC69816980A3A3CA4554410E60253953E9FF375BA4536A98ADFA15CC71541508 DUP2 MSTORE SWAP5 DUP6 ADD SWAP6 SWAP1 SWAP6 MSTORE SWAP1 DUP4 ADD SWAP2 SWAP1 SWAP2 MSTORE SWAP5 DUP2 ADD SWAP5 SWAP1 SWAP5 MSTORE PUSH20 0xFFFFFFFFFFFFFFFFFFFFFFFFFFFFFFFFFFFFFFFF SWAP1 SWAP2 AND SWAP2 DUP4 ADD SWAP2 SWAP1 SWAP2 MSTORE PUSH1 0xA0 DUP3 ADD MSTORE PUSH1 0xC0 SWAP1 KECCAK256 SWAP1 JUMP JUMPDEST PUSH1 0x60 PUSH4 0x5FC83722 PUSH1 0xE0 SHL DUP4 DUP4 PUSH1 0x40 MLOAD PUSH1 0x24 ADD PUSH2 0x1070 SWAP3 SWAP2 SWAP1 PUSH2 0x1CCA JUMP JUMPDEST PUSH1 0x40 MLOAD DUP1 PUSH2 0x1C0 ADD PUSH1 0x40 MSTORE DUP1 PUSH1 0x0 PUSH20 0xFFFFFFFFFFFFFFFFFFFFFFFFFFFFFFFFFFFFFFFF AND DUP2 MSTORE PUSH1 0x20 ADD PUSH1 0x0 PUSH20 0xFFFFFFFFFFFFFFFFFFFFFFFFFFFFFFFFFFFFFFFF AND DUP2 MSTORE PUSH1 0x20 ADD PUSH1 0x0 PUSH20 0xFFFFFFFFFFFFFFFFFFFFFFFFFFFFFFFFFFFFFFFF AND DUP2 MSTORE PUSH1 0x20 ADD PUSH1 0x0 PUSH20 0xFFFFFFFFFFFFFFFFFFFFFFFFFFFFFFFFFFFFFFFF AND DUP2 MSTORE PUSH1 0x20 ADD PUSH1 0x0 DUP2 MSTORE PUSH1 0x20 ADD PUSH1 0x0 DUP2 MSTORE PUSH1 0x20 ADD PUSH1 0x0 DUP2 MSTORE PUSH1 0x20 ADD PUSH1 0x0 DUP2 MSTORE PUSH1 0x20 ADD PUSH1 0x0 DUP2 MSTORE PUSH1 0x20 ADD PUSH1 0x0 DUP2 MSTORE PUSH1 0x20 ADD PUSH1 0x60 DUP2 MSTORE PUSH1 0x20 ADD PUSH1 0x60 DUP2 MSTORE PUSH1 0x20 ADD PUSH1 0x60 DUP2 MSTORE PUSH1 0x20 ADD PUSH1 0x60 DUP2 MSTORE POP SWAP1 JUMP JUMPDEST PUSH1 0x40 DUP1 MLOAD PUSH1 0x60 DUP1 DUP3 ADD DUP4 MSTORE PUSH1 0x0 DUP1 DUP4 MSTORE PUSH1 0x20 DUP4 ADD MSTORE SWAP2 DUP2 ADD SWAP2 SWAP1 SWAP2 MSTORE SWAP1 JUMP JUMPDEST DUP1 CALLDATALOAD PUSH2 0x44F DUP2 PUSH2 0x1D8D JUMP JUMPDEST DUP1 MLOAD PUSH2 0x44F DUP2 PUSH2 0x1D8D JUMP JUMPDEST PUSH1 0x0 DUP3 PUSH1 0x1F DUP4 ADD SLT PUSH2 0x13F2 JUMPI DUP1 DUP2 REVERT JUMPDEST DUP2 CALLDATALOAD PUSH2 0x1405 PUSH2 0x1400 DUP3 PUSH2 0x1CFF JUMP JUMPDEST PUSH2 0x1CD8 JUMP JUMPDEST DUP2 DUP2 MSTORE SWAP2 POP PUSH1 0x20 DUP1 DUP4 ADD SWAP1 DUP5 ADD PUSH1 0x0 JUMPDEST DUP4 DUP2 LT ISZERO PUSH2 0x1442 JUMPI PUSH2 0x142D DUP8 PUSH1 0x20 DUP5 CALLDATALOAD DUP10 ADD ADD PUSH2 0x144C JUMP JUMPDEST DUP4 MSTORE PUSH1 0x20 SWAP3 DUP4 ADD SWAP3 SWAP2 SWAP1 SWAP2 ADD SWAP1 PUSH1 0x1 ADD PUSH2 0x1415 JUMP JUMPDEST POP POP POP POP SWAP3 SWAP2 POP POP JUMP JUMPDEST PUSH1 0x0 DUP3 PUSH1 0x1F DUP4 ADD SLT PUSH2 0x145C JUMPI DUP1 DUP2 REVERT JUMPDEST DUP2 CALLDATALOAD PUSH2 0x146A PUSH2 0x1400 DUP3 PUSH2 0x1D1F JUMP JUMPDEST SWAP2 POP DUP1 DUP3 MSTORE DUP4 PUSH1 0x20 DUP3 DUP6 ADD ADD GT ISZERO PUSH2 0x1481 JUMPI PUSH1 0x0 DUP1 REVERT JUMPDEST DUP1 PUSH1 0x20 DUP5 ADD PUSH1 0x20 DUP5 ADD CALLDATACOPY PUSH1 0x0 SWAP1 DUP3 ADD PUSH1 0x20 ADD MSTORE SWAP3 SWAP2 POP POP JUMP JUMPDEST PUSH1 0x0 DUP3 PUSH1 0x1F DUP4 ADD SLT PUSH2 0x14AA JUMPI DUP1 DUP2 REVERT JUMPDEST DUP2 MLOAD PUSH2 0x14B8 PUSH2 0x1400 DUP3 PUSH2 0x1D1F JUMP JUMPDEST SWAP2 POP DUP1 DUP3 MSTORE DUP4 PUSH1 0x20 DUP3 DUP6 ADD ADD GT ISZERO PUSH2 0x14CF JUMPI PUSH1 0x0 DUP1 REVERT JUMPDEST PUSH2 0x14E0 DUP2 PUSH1 0x20 DUP5 ADD PUSH1 0x20 DUP7 ADD PUSH2 0x1D61 JUMP JUMPDEST POP SWAP3 SWAP2 POP POP JUMP JUMPDEST PUSH1 0x0 PUSH2 0x1C0 DUP1 DUP4 DUP6 SUB SLT ISZERO PUSH2 0x14FA JUMPI DUP2 DUP3 REVERT JUMPDEST PUSH2 0x1503 DUP2 PUSH2 0x1CD8 JUMP JUMPDEST SWAP2 POP POP PUSH2 0x1510 DUP4 DUP4 PUSH2 0x13D7 JUMP JUMPDEST DUP2 MSTORE PUSH2 0x151F DUP4 PUSH1 0x20 DUP5 ADD PUSH2 0x13D7 JUMP JUMPDEST PUSH1 0x20 DUP3 ADD MSTORE PUSH2 0x1531 DUP4 PUSH1 0x40 DUP5 ADD PUSH2 0x13D7 JUMP JUMPDEST PUSH1 0x40 DUP3 ADD MSTORE PUSH2 0x1543 DUP4 PUSH1 0x60 DUP5 ADD PUSH2 0x13D7 JUMP JUMPDEST PUSH1 0x60 DUP3 ADD MSTORE PUSH1 0x80 DUP3 ADD MLOAD PUSH1 0x80 DUP3 ADD MSTORE PUSH1 0xA0 DUP3 ADD MLOAD PUSH1 0xA0 DUP3 ADD MSTORE PUSH1 0xC0 DUP3 ADD MLOAD PUSH1 0xC0 DUP3 ADD MSTORE PUSH1 0xE0 DUP3 ADD MLOAD PUSH1 0xE0 DUP3 ADD MSTORE PUSH2 0x100 DUP1 DUP4 ADD MLOAD DUP2 DUP4 ADD MSTORE POP PUSH2 0x120 DUP1 DUP4 ADD MLOAD DUP2 DUP4 ADD MSTORE POP PUSH2 0x140 DUP1 DUP4 ADD MLOAD PUSH8 0xFFFFFFFFFFFFFFFF DUP1 DUP3 GT ISZERO PUSH2 0x15A5 JUMPI PUSH1 0x0 DUP1 REVERT JUMPDEST PUSH2 0x15B1 DUP7 DUP4 DUP8 ADD PUSH2 0x149A JUMP JUMPDEST DUP4 DUP6 ADD MSTORE PUSH2 0x160 SWAP3 POP DUP3 DUP6 ADD MLOAD SWAP2 POP DUP1 DUP3 GT ISZERO PUSH2 0x15CD JUMPI PUSH1 0x0 DUP1 REVERT JUMPDEST PUSH2 0x15D9 DUP7 DUP4 DUP8 ADD PUSH2 0x149A JUMP JUMPDEST DUP4 DUP6 ADD MSTORE PUSH2 0x180 SWAP3 POP DUP3 DUP6 ADD MLOAD SWAP2 POP DUP1 DUP3 GT ISZERO PUSH2 0x15F5 JUMPI PUSH1 0x0 DUP1 REVERT JUMPDEST PUSH2 0x1601 DUP7 DUP4 DUP8 ADD PUSH2 0x149A JUMP JUMPDEST DUP4 DUP6 ADD MSTORE PUSH2 0x1A0 SWAP3 POP DUP3 DUP6 ADD MLOAD SWAP2 POP DUP1 DUP3 GT ISZERO PUSH2 0x161D JUMPI PUSH1 0x0 DUP1 REVERT JUMPDEST POP PUSH2 0x162A DUP6 DUP3 DUP7 ADD PUSH2 0x149A JUMP JUMPDEST DUP3 DUP5 ADD MSTORE POP POP SWAP3 SWAP2 POP POP JUMP JUMPDEST PUSH1 0x0 PUSH1 0x20 DUP1 DUP4 DUP6 SUB SLT ISZERO PUSH2 0x1648 JUMPI DUP2 DUP3 REVERT JUMPDEST DUP3 MLOAD PUSH8 0xFFFFFFFFFFFFFFFF DUP2 GT ISZERO PUSH2 0x165E JUMPI DUP3 DUP4 REVERT JUMPDEST DUP1 DUP5 ADD DUP6 PUSH1 0x1F DUP3 ADD SLT PUSH2 0x166F JUMPI DUP4 DUP5 REVERT JUMPDEST DUP1 MLOAD SWAP2 POP PUSH2 0x167F PUSH2 0x1400 DUP4 PUSH2 0x1CFF JUMP JUMPDEST DUP3 DUP2 MSTORE DUP4 DUP2 ADD SWAP1 DUP3 DUP6 ADD DUP7 JUMPDEST DUP6 DUP2 LT ISZERO PUSH2 0x16B4 JUMPI PUSH2 0x16A2 DUP11 DUP9 DUP5 MLOAD DUP9 ADD ADD PUSH2 0x14E7 JUMP JUMPDEST DUP5 MSTORE SWAP3 DUP7 ADD SWAP3 SWAP1 DUP7 ADD SWAP1 PUSH1 0x1 ADD PUSH2 0x168B JUMP JUMPDEST POP SWAP1 SWAP9 SWAP8 POP POP POP POP POP POP POP POP JUMP JUMPDEST PUSH1 0x0 DUP1 PUSH1 0x40 DUP4 DUP6 SUB SLT ISZERO PUSH2 0x16D4 JUMPI DUP1 DUP2 REVERT JUMPDEST DUP3 CALLDATALOAD SWAP2 POP PUSH1 0x20 DUP4 ADD CALLDATALOAD PUSH8 0xFFFFFFFFFFFFFFFF DUP2 GT ISZERO PUSH2 0x16F1 JUMPI DUP2 DUP3 REVERT JUMPDEST PUSH2 0x16FD DUP6 DUP3 DUP7 ADD PUSH2 0x144C JUMP JUMPDEST SWAP2 POP POP SWAP3 POP SWAP3 SWAP1 POP JUMP JUMPDEST PUSH1 0x0 PUSH1 0x20 DUP3 DUP5 SUB SLT ISZERO PUSH2 0x1718 JUMPI DUP1 DUP2 REVERT JUMPDEST DUP2 CALLDATALOAD PUSH8 0xFFFFFFFFFFFFFFFF DUP2 GT ISZERO PUSH2 0x172E JUMPI DUP2 DUP3 REVERT JUMPDEST PUSH2 0x173A DUP5 DUP3 DUP6 ADD PUSH2 0x144C JUMP JUMPDEST SWAP5 SWAP4 POP POP POP POP JUMP JUMPDEST PUSH1 0x0 PUSH1 0x20 DUP3 DUP5 SUB SLT ISZERO PUSH2 0x1753 JUMPI DUP1 DUP2 REVERT JUMPDEST DUP2 MLOAD PUSH8 0xFFFFFFFFFFFFFFFF DUP2 GT ISZERO PUSH2 0x1769 JUMPI DUP2 DUP3 REVERT JUMPDEST PUSH2 0x173A DUP5 DUP3 DUP6 ADD PUSH2 0x149A JUMP JUMPDEST PUSH1 0x0 PUSH1 0x20 DUP3 DUP5 SUB SLT ISZERO PUSH2 0x1786 JUMPI DUP1 DUP2 REVERT JUMPDEST DUP2 CALLDATALOAD PUSH8 0xFFFFFFFFFFFFFFFF DUP1 DUP3 GT ISZERO PUSH2 0x179D JUMPI DUP3 DUP4 REVERT JUMPDEST DUP2 DUP5 ADD PUSH1 0x60 DUP2 DUP8 SUB SLT ISZERO PUSH2 0x17AF JUMPI DUP4 DUP5 REVERT JUMPDEST PUSH2 0x17B9 PUSH1 0x60 PUSH2 0x1CD8 JUMP JUMPDEST SWAP3 POP DUP1 CALLDATALOAD PUSH2 0x17C6 DUP2 PUSH2 0x1D8D JUMP JUMPDEST DUP4 MSTORE PUSH1 0x20 DUP2 DUP2 ADD CALLDATALOAD SWAP1 DUP5 ADD MSTORE PUSH1 0x40 DUP2 ADD CALLDATALOAD DUP3 DUP2 GT ISZERO PUSH2 0x17E3 JUMPI DUP5 DUP6 REVERT JUMPDEST PUSH2 0x17EF DUP8 DUP3 DUP5 ADD PUSH2 0x144C JUMP JUMPDEST PUSH1 0x40 DUP6 ADD MSTORE POP SWAP2 SWAP6 SWAP5 POP POP POP POP POP JUMP JUMPDEST PUSH1 0x0 PUSH1 0x20 DUP3 DUP5 SUB SLT ISZERO PUSH2 0x1810 JUMPI DUP1 DUP2 REVERT JUMPDEST DUP2 MLOAD PUSH8 0xFFFFFFFFFFFFFFFF DUP2 GT ISZERO PUSH2 0x1826 JUMPI DUP2 DUP3 REVERT JUMPDEST PUSH2 0x173A DUP5 DUP3 DUP6 ADD PUSH2 0x14E7 JUMP JUMPDEST PUSH1 0x0 DUP1 PUSH1 0x40 DUP4 DUP6 SUB SLT ISZERO PUSH2 0x1844 JUMPI DUP2 DUP3 REVERT JUMPDEST DUP3 MLOAD PUSH8 0xFFFFFFFFFFFFFFFF DUP1 DUP3 GT ISZERO PUSH2 0x185B JUMPI DUP4 DUP5 REVERT JUMPDEST PUSH2 0x1867 DUP7 DUP4 DUP8 ADD PUSH2 0x14E7 JUMP JUMPDEST SWAP4 POP PUSH1 0x20 DUP6 ADD MLOAD SWAP2 POP DUP1 DUP3 GT ISZERO PUSH2 0x187C JUMPI DUP3 DUP4 REVERT JUMPDEST POP PUSH2 0x16FD DUP6 DUP3 DUP7 ADD PUSH2 0x14E7 JUMP JUMPDEST PUSH1 0x0 DUP1 PUSH1 0x0 DUP1 PUSH1 0x80 DUP6 DUP8 SUB SLT ISZERO PUSH2 0x189E JUMPI DUP2 DUP3 REVERT JUMPDEST DUP5 CALLDATALOAD PUSH8 0xFFFFFFFFFFFFFFFF DUP1 DUP3 GT ISZERO PUSH2 0x18B5 JUMPI DUP4 DUP5 REVERT JUMPDEST DUP2 DUP8 ADD PUSH1 0xA0 DUP2 DUP11 SUB SLT ISZERO PUSH2 0x18C7 JUMPI DUP5 DUP6 REVERT JUMPDEST PUSH2 0x18D1 PUSH1 0xA0 PUSH2 0x1CD8 JUMP JUMPDEST SWAP3 POP DUP1 CALLDATALOAD DUP4 MSTORE PUSH1 0x20 DUP2 ADD CALLDATALOAD PUSH1 0x20 DUP5 ADD MSTORE PUSH1 0x40 DUP2 ADD CALLDATALOAD PUSH1 0x40 DUP5 ADD MSTORE PUSH2 0x18F8 DUP10 PUSH1 0x60 DUP4 ADD PUSH2 0x13CC JUMP JUMPDEST PUSH1 0x60 DUP5 ADD MSTORE PUSH1 0x80 DUP2 ADD CALLDATALOAD DUP3 DUP2 GT ISZERO PUSH2 0x190E JUMPI DUP6 DUP7 REVERT JUMPDEST PUSH2 0x191A DUP11 DUP3 DUP5 ADD PUSH2 0x144C JUMP JUMPDEST PUSH1 0x80 DUP6 ADD MSTORE POP POP DUP2 SWAP6 POP PUSH2 0x1931 DUP9 PUSH1 0x20 DUP10 ADD PUSH2 0x13CC JUMP JUMPDEST SWAP5 POP PUSH1 0x40 DUP8 ADD CALLDATALOAD SWAP2 POP DUP1 DUP3 GT ISZERO PUSH2 0x1946 JUMPI DUP4 DUP5 REVERT JUMPDEST PUSH2 0x1952 DUP9 DUP4 DUP10 ADD PUSH2 0x144C JUMP JUMPDEST SWAP4 POP PUSH1 0x60 DUP8 ADD CALLDATALOAD SWAP2 POP DUP1 DUP3 GT ISZERO PUSH2 0x1967 JUMPI DUP3 DUP4 REVERT JUMPDEST POP PUSH2 0x1974 DUP8 DUP3 DUP9 ADD PUSH2 0x13E2 JUMP JUMPDEST SWAP2 POP POP SWAP3 SWAP6 SWAP2 SWAP5 POP SWAP3 POP JUMP JUMPDEST PUSH20 0xFFFFFFFFFFFFFFFFFFFFFFFFFFFFFFFFFFFFFFFF AND SWAP1 MSTORE JUMP JUMPDEST PUSH1 0x0 DUP2 MLOAD DUP1 DUP5 MSTORE PUSH2 0x19B2 DUP2 PUSH1 0x20 DUP7 ADD PUSH1 0x20 DUP7 ADD PUSH2 0x1D61 JUMP JUMPDEST PUSH1 0x1F ADD PUSH32 0xFFFFFFFFFFFFFFFFFFFFFFFFFFFFFFFFFFFFFFFFFFFFFFFFFFFFFFFFFFFFFFE0 AND SWAP3 SWAP1 SWAP3 ADD PUSH1 0x20 ADD SWAP3 SWAP2 POP POP JUMP JUMPDEST PUSH32 0x19457468657265756D205369676E6564204D6573736167653A0A333200000000 DUP2 MSTORE PUSH1 0x1C DUP2 ADD SWAP2 SWAP1 SWAP2 MSTORE PUSH1 0x3C ADD SWAP1 JUMP JUMPDEST PUSH20 0xFFFFFFFFFFFFFFFFFFFFFFFFFFFFFFFFFFFFFFFF SWAP2 SWAP1 SWAP2 AND DUP2 MSTORE PUSH1 0x20 ADD SWAP1 JUMP JUMPDEST PUSH1 0x0 PUSH1 0x20 DUP1 DUP4 ADD DUP2 DUP5 MSTORE DUP1 DUP6 MLOAD DUP1 DUP4 MSTORE PUSH1 0x40 DUP7 ADD SWAP2 POP PUSH1 0x40 DUP5 DUP3 MUL DUP8 ADD ADD SWAP3 POP DUP4 DUP8 ADD DUP6 JUMPDEST DUP3 DUP2 LT ISZERO PUSH2 0x1B95 JUMPI PUSH32 0xFFFFFFFFFFFFFFFFFFFFFFFFFFFFFFFFFFFFFFFFFFFFFFFFFFFFFFFFFFFFFFC0 DUP9 DUP7 SUB ADD DUP5 MSTORE DUP2 MLOAD PUSH2 0x1C0 PUSH2 0x1A9A DUP8 DUP4 MLOAD PUSH2 0x1980 JUMP JUMPDEST DUP8 DUP3 ADD MLOAD PUSH2 0x1AAA DUP10 DUP10 ADD DUP3 PUSH2 0x1980 JUMP JUMPDEST POP PUSH1 0x40 DUP3 ADD MLOAD PUSH2 0x1ABD PUSH1 0x40 DUP10 ADD DUP3 PUSH2 0x1980 JUMP JUMPDEST POP PUSH1 0x60 DUP3 ADD MLOAD PUSH2 0x1AD0 PUSH1 0x60 DUP10 ADD DUP3 PUSH2 0x1980 JUMP JUMPDEST POP PUSH1 0x80 DUP3 ADD MLOAD PUSH1 0x80 DUP9 ADD MSTORE PUSH1 0xA0 DUP3 ADD MLOAD PUSH1 0xA0 DUP9 ADD MSTORE PUSH1 0xC0 DUP3 ADD MLOAD PUSH1 0xC0 DUP9 ADD MSTORE PUSH1 0xE0 DUP3 ADD MLOAD PUSH1 0xE0 DUP9 ADD MSTORE PUSH2 0x100 DUP1 DUP4 ADD MLOAD DUP2 DUP10 ADD MSTORE POP PUSH2 0x120 DUP1 DUP4 ADD MLOAD DUP2 DUP10 ADD MSTORE POP PUSH2 0x140 DUP1 DUP4 ADD MLOAD DUP3 DUP3 DUP11 ADD MSTORE PUSH2 0x1B29 DUP4 DUP11 ADD DUP3 PUSH2 0x199A JUMP JUMPDEST SWAP2 POP POP PUSH2 0x160 SWAP2 POP DUP2 DUP4 ADD MLOAD DUP9 DUP3 SUB DUP4 DUP11 ADD MSTORE PUSH2 0x1B46 DUP3 DUP3 PUSH2 0x199A JUMP JUMPDEST SWAP3 POP POP POP PUSH2 0x180 DUP1 DUP4 ADD MLOAD DUP9 DUP4 SUB DUP3 DUP11 ADD MSTORE PUSH2 0x1B62 DUP4 DUP3 PUSH2 0x199A JUMP JUMPDEST SWAP2 POP POP PUSH2 0x1A0 SWAP2 POP DUP2 DUP4 ADD MLOAD DUP9 DUP3 SUB DUP4 DUP11 ADD MSTORE PUSH2 0x1B7F DUP3 DUP3 PUSH2 0x199A JUMP JUMPDEST SWAP9 POP POP POP SWAP5 DUP8 ADD SWAP5 POP POP SWAP1 DUP6 ADD SWAP1 PUSH1 0x1 ADD PUSH2 0x1A5B JUMP JUMPDEST POP SWAP3 SWAP8 SWAP7 POP POP POP POP POP POP POP JUMP JUMPDEST SWAP1 DUP2 MSTORE PUSH1 0x20 ADD SWAP1 JUMP JUMPDEST SWAP2 DUP3 MSTORE PUSH20 0xFFFFFFFFFFFFFFFFFFFFFFFFFFFFFFFFFFFFFFFF AND PUSH1 0x20 DUP3 ADD MSTORE PUSH1 0x40 ADD SWAP1 JUMP JUMPDEST SWAP4 DUP5 MSTORE PUSH1 0xFF SWAP3 SWAP1 SWAP3 AND PUSH1 0x20 DUP5 ADD MSTORE PUSH1 0x40 DUP4 ADD MSTORE PUSH1 0x60 DUP3 ADD MSTORE PUSH1 0x80 ADD SWAP1 JUMP JUMPDEST PUSH1 0x60 DUP2 ADD PUSH1 0x8 DUP6 LT PUSH2 0x1BFB JUMPI INVALID JUMPDEST SWAP4 DUP2 MSTORE PUSH1 0x20 DUP2 ADD SWAP3 SWAP1 SWAP3 MSTORE PUSH1 0x40 SWAP1 SWAP2 ADD MSTORE SWAP1 JUMP JUMPDEST PUSH1 0x0 PUSH1 0x4 DUP6 LT PUSH2 0x1C1B JUMPI INVALID JUMPDEST DUP5 DUP3 MSTORE DUP4 PUSH1 0x20 DUP4 ADD MSTORE PUSH1 0x60 PUSH1 0x40 DUP4 ADD MSTORE PUSH2 0x1C38 PUSH1 0x60 DUP4 ADD DUP5 PUSH2 0x199A JUMP JUMPDEST SWAP6 SWAP5 POP POP POP POP POP JUMP JUMPDEST PUSH1 0x0 PUSH1 0x20 DUP3 MSTORE PUSH2 0xE3F PUSH1 0x20 DUP4 ADD DUP5 PUSH2 0x199A JUMP JUMPDEST PUSH1 0x0 PUSH1 0x40 DUP3 MSTORE DUP4 MLOAD PUSH1 0x40 DUP4 ADD MSTORE PUSH1 0x20 DUP5 ADD MLOAD PUSH1 0x60 DUP4 ADD MSTORE PUSH1 0x40 DUP5 ADD MLOAD PUSH1 0x80 DUP4 ADD MSTORE PUSH20 0xFFFFFFFFFFFFFFFFFFFFFFFFFFFFFFFFFFFFFFFF PUSH1 0x60 DUP6 ADD MLOAD AND PUSH1 0xA0 DUP4 ADD MSTORE PUSH1 0x80 DUP5 ADD MLOAD PUSH1 0xA0 PUSH1 0xC0 DUP5 ADD MSTORE PUSH2 0x1CAE PUSH1 0xE0 DUP5 ADD DUP3 PUSH2 0x199A JUMP JUMPDEST DUP4 DUP2 SUB PUSH1 0x20 DUP6 ADD MSTORE PUSH2 0x1CC0 DUP2 DUP7 PUSH2 0x199A JUMP JUMPDEST SWAP7 SWAP6 POP POP POP POP POP POP JUMP JUMPDEST SWAP2 DUP3 MSTORE PUSH1 0x20 DUP3 ADD MSTORE PUSH1 0x40 ADD SWAP1 JUMP JUMPDEST PUSH1 0x40 MLOAD DUP2 DUP2 ADD PUSH8 0xFFFFFFFFFFFFFFFF DUP2 GT DUP3 DUP3 LT OR ISZERO PUSH2 0x1CF7 JUMPI PUSH1 0x0 DUP1 REVERT JUMPDEST PUSH1 0x40 MSTORE SWAP2 SWAP1 POP JUMP JUMPDEST PUSH1 0x0 PUSH8 0xFFFFFFFFFFFFFFFF DUP3 GT ISZERO PUSH2 0x1D15 JUMPI DUP1 DUP2 REVERT JUMPDEST POP PUSH1 0x20 SWAP1 DUP2 MUL ADD SWAP1 JUMP JUMPDEST PUSH1 0x0 PUSH8 0xFFFFFFFFFFFFFFFF DUP3 GT ISZERO PUSH2 0x1D35 JUMPI DUP1 DUP2 REVERT JUMPDEST POP PUSH1 0x1F ADD PUSH32 0xFFFFFFFFFFFFFFFFFFFFFFFFFFFFFFFFFFFFFFFFFFFFFFFFFFFFFFFFFFFFFFE0 AND PUSH1 0x20 ADD SWAP1 JUMP JUMPDEST PUSH1 0x0 JUMPDEST DUP4 DUP2 LT ISZERO PUSH2 0x1D7C JUMPI DUP2 DUP2 ADD MLOAD DUP4 DUP3 ADD MSTORE PUSH1 0x20 ADD PUSH2 0x1D64 JUMP JUMPDEST DUP4 DUP2 GT ISZERO PUSH2 0x5E2 JUMPI POP POP PUSH1 0x0 SWAP2 ADD MSTORE JUMP JUMPDEST PUSH20 0xFFFFFFFFFFFFFFFFFFFFFFFFFFFFFFFFFFFFFFFF DUP2 AND DUP2 EQ PUSH2 0x113A JUMPI PUSH1 0x0 DUP1 REVERT JUMPDEST DUP4 MLOAD PUSH1 0x20 SWAP5 DUP6 ADD KECCAK256 DUP4 MLOAD SWAP4 DUP6 ADD SWAP4 SWAP1 SWAP4 KECCAK256 PUSH1 0x40 DUP1 MLOAD PUSH32 0x8B73C3C69BB8FE3D512ECC4CF759CC79239F7B179B0FFACAA9A75D522B39400F DUP2 MSTORE SWAP6 DUP7 ADD SWAP5 SWAP1 SWAP5 MSTORE SWAP3 DUP5 ADD SWAP3 SWAP1 SWAP3 MSTORE PUSH1 0x60 DUP4 ADD MSTORE PUSH1 0x80 DUP3 ADD MSTORE PUSH1 0xA0 SWAP1 KECCAK256 SWAP1 JUMP INVALID LOG3 PUSH6 0x627A7A723158 KECCAK256 0xEF 0xC8 OR PUSH20 0xB7912BF9E2C93C985AFA2B6FEEE6945202398681 0x1F 0xC8 COINBASE SMOD 0xB0 DUP15 0xCC PUSH24 0x6C6578706572696D656E74616CF564736F6C634300050D00 BLOCKHASH "
            }
        }
    },
    "sourceTreeHashHex": "0x3f2a6fb0c8b49ad91ca994a64a55eca47cb9b95059e9b72fe02415254dbb6a5a",
    "compiler": {
        "name": "solc",
        "version": "soljson-v0.5.13+commit.5b0b510c.js",
        "settings": {
            "optimizer": {
                "enabled": true,
                "runs": 1000000,
                "details": {
                    "yul": true,
                    "deduplicate": true,
                    "cse": true,
                    "constantOptimizer": true
                }
            },
            "outputSelection": {
                "*": {
                    "*": [
                        "abi",
                        "devdoc",
                        "evm.bytecode.object",
                        "evm.bytecode.sourceMap",
                        "evm.deployedBytecode.object",
                        "evm.deployedBytecode.sourceMap"
                    ]
                }
            },
            "evmVersion": "constantinople",
            "remappings": [
                "@0x/contracts-exchange-libs=/Users/greg/dev/0x/monorepo/node_modules/@0x/contracts-exchange-libs",
                "@0x/contracts-utils=/Users/greg/dev/0x/monorepo/contracts/coordinator/node_modules/@0x/contracts-utils",
                "@0x/contracts-exchange=/Users/greg/dev/0x/monorepo/contracts/coordinator/node_modules/@0x/contracts-exchange"
            ]
        }
    },
    "chains": {}
}