{
	"schemaVersion": "2.0.0",
	"contractName": "DutchAuction",
	"compilerOutput": {
		"abi": [
			{
				"constant": false,
				"inputs": [
					{
						"components": [
							{
								"name": "makerAddress",
								"type": "address"
							},
							{
								"name": "takerAddress",
								"type": "address"
							},
							{
								"name": "feeRecipientAddress",
								"type": "address"
							},
							{
								"name": "senderAddress",
								"type": "address"
							},
							{
								"name": "makerAssetAmount",
								"type": "uint256"
							},
							{
								"name": "takerAssetAmount",
								"type": "uint256"
							},
							{
								"name": "makerFee",
								"type": "uint256"
							},
							{
								"name": "takerFee",
								"type": "uint256"
							},
							{
								"name": "expirationTimeSeconds",
								"type": "uint256"
							},
							{
								"name": "salt",
								"type": "uint256"
							},
							{
								"name": "makerAssetData",
								"type": "bytes"
							},
							{
								"name": "takerAssetData",
								"type": "bytes"
							}
						],
						"name": "order",
						"type": "tuple"
					}
				],
				"name": "getAuctionDetails",
				"outputs": [
					{
						"components": [
							{
								"name": "beginTimeSeconds",
								"type": "uint256"
							},
							{
								"name": "endTimeSeconds",
								"type": "uint256"
							},
							{
								"name": "beginAmount",
								"type": "uint256"
							},
							{
								"name": "endAmount",
								"type": "uint256"
							},
							{
								"name": "currentAmount",
								"type": "uint256"
							},
							{
								"name": "currentTimeSeconds",
								"type": "uint256"
							}
						],
						"name": "auctionDetails",
						"type": "tuple"
					}
				],
				"payable": false,
				"stateMutability": "nonpayable",
				"type": "function"
			},
			{
				"constant": false,
				"inputs": [
					{
						"components": [
							{
								"name": "makerAddress",
								"type": "address"
							},
							{
								"name": "takerAddress",
								"type": "address"
							},
							{
								"name": "feeRecipientAddress",
								"type": "address"
							},
							{
								"name": "senderAddress",
								"type": "address"
							},
							{
								"name": "makerAssetAmount",
								"type": "uint256"
							},
							{
								"name": "takerAssetAmount",
								"type": "uint256"
							},
							{
								"name": "makerFee",
								"type": "uint256"
							},
							{
								"name": "takerFee",
								"type": "uint256"
							},
							{
								"name": "expirationTimeSeconds",
								"type": "uint256"
							},
							{
								"name": "salt",
								"type": "uint256"
							},
							{
								"name": "makerAssetData",
								"type": "bytes"
							},
							{
								"name": "takerAssetData",
								"type": "bytes"
							}
						],
						"name": "buyOrder",
						"type": "tuple"
					},
					{
						"components": [
							{
								"name": "makerAddress",
								"type": "address"
							},
							{
								"name": "takerAddress",
								"type": "address"
							},
							{
								"name": "feeRecipientAddress",
								"type": "address"
							},
							{
								"name": "senderAddress",
								"type": "address"
							},
							{
								"name": "makerAssetAmount",
								"type": "uint256"
							},
							{
								"name": "takerAssetAmount",
								"type": "uint256"
							},
							{
								"name": "makerFee",
								"type": "uint256"
							},
							{
								"name": "takerFee",
								"type": "uint256"
							},
							{
								"name": "expirationTimeSeconds",
								"type": "uint256"
							},
							{
								"name": "salt",
								"type": "uint256"
							},
							{
								"name": "makerAssetData",
								"type": "bytes"
							},
							{
								"name": "takerAssetData",
								"type": "bytes"
							}
						],
						"name": "sellOrder",
						"type": "tuple"
					},
					{
						"name": "buySignature",
						"type": "bytes"
					},
					{
						"name": "sellSignature",
						"type": "bytes"
					}
				],
				"name": "matchOrders",
				"outputs": [
					{
						"components": [
							{
								"components": [
									{
										"name": "makerAssetFilledAmount",
										"type": "uint256"
									},
									{
										"name": "takerAssetFilledAmount",
										"type": "uint256"
									},
									{
										"name": "makerFeePaid",
										"type": "uint256"
									},
									{
										"name": "takerFeePaid",
										"type": "uint256"
									}
								],
								"name": "left",
								"type": "tuple"
							},
							{
								"components": [
									{
										"name": "makerAssetFilledAmount",
										"type": "uint256"
									},
									{
										"name": "takerAssetFilledAmount",
										"type": "uint256"
									},
									{
										"name": "makerFeePaid",
										"type": "uint256"
									},
									{
										"name": "takerFeePaid",
										"type": "uint256"
									}
								],
								"name": "right",
								"type": "tuple"
							},
							{
								"name": "leftMakerAssetSpreadAmount",
								"type": "uint256"
							}
						],
						"name": "matchedFillResults",
						"type": "tuple"
					}
				],
				"payable": false,
				"stateMutability": "nonpayable",
				"type": "function"
			},
			{
				"inputs": [
					{
						"name": "_exchange",
						"type": "address"
					}
				],
				"payable": false,
				"stateMutability": "nonpayable",
				"type": "constructor"
			}
		],
		"evm": {
			"bytecode": {
				"linkReferences": {},
				"object": "0x608060405234801561001057600080fd5b50604051602080611352833981018060405261002f9190810190610067565b60008054600160a060020a031916600160a060020a0392909216919091179055610099565b6000610060825161008d565b9392505050565b60006020828403121561007957600080fd5b60006100858484610054565b949350505050565b600160a060020a031690565b6112aa806100a86000396000f30060806040526004361061004b5763ffffffff7c01000000000000000000000000000000000000000000000000000000006000350416632e9cd03381146100505780633c28d86114610086575b600080fd5b34801561005c57600080fd5b5061007061006b366004610b25565b6100b3565b60405161007d919061110a565b60405180910390f35b34801561009257600080fd5b506100a66100a1366004610b5a565b61029c565b60405161007d9190611118565b6100bb6107b1565b610140820151516000808080808080606488101561010e576040517f08c379a0000000000000000000000000000000000000000000000000000000008152600401610105906110aa565b60405180910390fd5b6101408a0151610146907fffffffffffffffffffffffffffffffffffffffffffffffffffffffffffffffc08a0163ffffffff6105f216565b6101408b0151909750610181907fffffffffffffffffffffffffffffffffffffffffffffffffffffffffffffffe08a0163ffffffff6105f216565b9550868a61010001511115156101c3576040517f08c379a0000000000000000000000000000000000000000000000000000000008152600401610105906110ba565b868a61010001510394508960a001519350838611151561020f576040517f08c379a0000000000000000000000000000000000000000000000000000000008152600401610105906110fa565b50505083865261010087018051602088015260408701849052606087018290524260a088018190529051828503919081900386821015610255576080890186905261028f565b6101008a0151821061026d576080890184905261028f565b6102898461028461027e8487610607565b8861066d565b610684565b60808a01525b5050505050505050919050565b6102a46107e8565b6102ac6107b1565b6000606060008060006102be8a6100b3565b805160a08201519197501115610300576040517f08c379a0000000000000000000000000000000000000000000000000000000008152600401610105906110ea565b60a08601516101008b015111610342576040517f08c379a0000000000000000000000000000000000000000000000000000000008152600401610105906110ca565b608080870151908c01511015610384576040517f08c379a0000000000000000000000000000000000000000000000000000000008152600401610105906110fa565b6000546040517f3c28d86100000000000000000000000000000000000000000000000000000000815273ffffffffffffffffffffffffffffffffffffffff90911690633c28d861906103e0908e908e908e908e90600401611127565b61012060405180830381600087803b1580156103fb57600080fd5b505af115801561040f573d6000803e3d6000fd5b505050506040513d601f19601f820116820180604052506104339190810190610b06565b96508660400151945060008511156105e4576101608a0151935061045e84601063ffffffff6106c316565b92506104728b608001518760800151610724565b915061047e8583610724565b905060008111156105325789516040517fa9059cbb00000000000000000000000000000000000000000000000000000000815273ffffffffffffffffffffffffffffffffffffffff85169163a9059cbb916104de9190859060040161105f565b602060405180830381600087803b1580156104f857600080fd5b505af115801561050c573d6000803e3d6000fd5b505050506040513d601f19601f820116820180604052506105309190810190610ae0565b505b60008211156105e4578a516040517fa9059cbb00000000000000000000000000000000000000000000000000000000815273ffffffffffffffffffffffffffffffffffffffff85169163a9059cbb916105909190869060040161105f565b602060405180830381600087803b1580156105aa57600080fd5b505af11580156105be573d6000803e3d6000fd5b505050506040513d601f19601f820116820180604052506105e29190810190610ae0565b505b505050505050949350505050565b60006105fe8383610766565b90505b92915050565b60008083151561061a5760009150610666565b5082820282848281151561062a57fe5b0414610662576040517f08c379a00000000000000000000000000000000000000000000000000000000081526004016101059061109a565b8091505b5092915050565b600080828481151561067b57fe5b04949350505050565b600082820183811015610662576040517f08c379a00000000000000000000000000000000000000000000000000000000081526004016101059061109a565b600081601401835110151515610705576040517f08c379a0000000000000000000000000000000000000000000000000000000008152600401610105906110da565b50016014015173ffffffffffffffffffffffffffffffffffffffff1690565b600082821115610760576040517f08c379a00000000000000000000000000000000000000000000000000000000081526004016101059061107a565b50900390565b6000816020018351101515156107a8576040517f08c379a00000000000000000000000000000000000000000000000000000000081526004016101059061108a565b50016020015190565b60c0604051908101604052806000815260200160008152602001600081526020016000815260200160008152602001600081525090565b610120604051908101604052806107fd610817565b815260200161080a610817565b8152602001600081525090565b608060405190810160405280600081526020016000815260200160008152602001600081525090565b600061084c82356111ef565b9392505050565b600061084c825161120b565b6000601f8201831361087057600080fd5b813561088361087e826111a5565b61117e565b9150808252602083016020830185838301111561089f57600080fd5b6108aa838284611210565b50505092915050565b6000608082840312156108c557600080fd5b6108cf608061117e565b905060006108dd8484610ad4565b82525060206108ee84848301610ad4565b602083015250604061090284828501610ad4565b604083015250606061091684828501610ad4565b60608301525092915050565b6000610120828403121561093557600080fd5b61093f606061117e565b9050600061094d84846108b3565b825250608061095e848483016108b3565b60208301525061010061097384828501610ad4565b60408301525092915050565b6000610180828403121561099257600080fd5b61099d61018061117e565b905060006109ab8484610840565b82525060206109bc84848301610840565b60208301525060406109d084828501610840565b60408301525060606109e484828501610840565b60608301525060806109f884828501610ac8565b60808301525060a0610a0c84828501610ac8565b60a08301525060c0610a2084828501610ac8565b60c08301525060e0610a3484828501610ac8565b60e083015250610100610a4984828501610ac8565b61010083015250610120610a5f84828501610ac8565b6101208301525061014082013567ffffffffffffffff811115610a8157600080fd5b610a8d8482850161085f565b6101408301525061016082013567ffffffffffffffff811115610aaf57600080fd5b610abb8482850161085f565b6101608301525092915050565b600061084c8235611208565b600061084c8251611208565b600060208284031215610af257600080fd5b6000610afe8484610853565b949350505050565b60006101208284031215610b1957600080fd5b6000610afe8484610922565b600060208284031215610b3757600080fd5b813567ffffffffffffffff811115610b4e57600080fd5b610afe8482850161097f565b60008060008060808587031215610b7057600080fd5b843567ffffffffffffffff811115610b8757600080fd5b610b938782880161097f565b945050602085013567ffffffffffffffff811115610bb057600080fd5b610bbc8782880161097f565b935050604085013567ffffffffffffffff811115610bd957600080fd5b610be58782880161085f565b925050606085013567ffffffffffffffff811115610c0257600080fd5b610c0e8782880161085f565b91505092959194509250565b610c23816111ef565b82525050565b6000610c34826111eb565b808452610c4881602086016020860161121c565b610c5181611248565b9093016020019392505050565b601181527f55494e543235365f554e444552464c4f57000000000000000000000000000000602082015260400190565b602681527f475245415445525f4f525f455155414c5f544f5f33325f4c454e4754485f524560208201527f5155495245440000000000000000000000000000000000000000000000000000604082015260600190565b601081527f55494e543235365f4f564552464c4f5700000000000000000000000000000000602082015260400190565b601281527f494e56414c49445f41535345545f444154410000000000000000000000000000602082015260400190565b601281527f494e56414c49445f424547494e5f54494d450000000000000000000000000000602082015260400190565b600f81527f41554354494f4e5f455850495245440000000000000000000000000000000000602082015260400190565b602681527f475245415445525f4f525f455155414c5f544f5f32305f4c454e4754485f524560208201527f5155495245440000000000000000000000000000000000000000000000000000604082015260600190565b601381527f41554354494f4e5f4e4f545f5354415254454400000000000000000000000000602082015260400190565b600e81527f494e56414c49445f414d4f554e54000000000000000000000000000000000000602082015260400190565b805160c0830190610e6b8482611056565b506020820151610e7e6020850182611056565b506040820151610e916040850182611056565b506060820151610ea46060850182611056565b506080820151610eb76080850182611056565b5060a0820151610eca60a0850182611056565b50505050565b80516080830190610ee18482611056565b506020820151610ef46020850182611056565b506040820151610f076040850182611056565b506060820151610eca6060850182611056565b8051610120830190610f2c8482610ed0565b506020820151610f3f6080850182610ed0565b506040820151610eca610100850182611056565b8051600090610180840190610f688582610c1a565b506020830151610f7b6020860182610c1a565b506040830151610f8e6040860182610c1a565b506060830151610fa16060860182610c1a565b506080830151610fb46080860182611056565b5060a0830151610fc760a0860182611056565b5060c0830151610fda60c0860182611056565b5060e0830151610fed60e0860182611056565b50610100830151611002610100860182611056565b50610120830151611017610120860182611056565b506101408301518482036101408601526110318282610c29565b91505061016083015184820361016086015261104d8282610c29565b95945050505050565b610c2381611208565b6040810161106d8285610c1a565b61084c6020830184611056565b6020808252810161060181610c5e565b6020808252810161060181610c8e565b6020808252810161060181610ce4565b6020808252810161060181610d14565b6020808252810161060181610d44565b6020808252810161060181610d74565b6020808252810161060181610da4565b6020808252810161060181610dfa565b6020808252810161060181610e2a565b60c081016106018284610e5a565b61012081016106018284610f1a565b608080825281016111388187610f53565b9050818103602083015261114c8186610f53565b905081810360408301526111608185610c29565b905081810360608301526111748184610c29565b9695505050505050565b60405181810167ffffffffffffffff8111828210171561119d57600080fd5b604052919050565b600067ffffffffffffffff8211156111bc57600080fd5b506020601f919091017fffffffffffffffffffffffffffffffffffffffffffffffffffffffffffffffe0160190565b5190565b73ffffffffffffffffffffffffffffffffffffffff1690565b90565b151590565b82818337506000910152565b60005b8381101561123757818101518382015260200161121f565b83811115610eca5750506000910152565b601f017fffffffffffffffffffffffffffffffffffffffffffffffffffffffffffffffe016905600a265627a7a723058209cf70b04b75fc23e6762ae4c6c8f25ccad25dfcb39cf1dd3966eb27ce513de036c6578706572696d656e74616cf50037",
				"opcodes": "PUSH1 0x80 PUSH1 0x40 MSTORE CALLVALUE DUP1 ISZERO PUSH2 0x10 JUMPI PUSH1 0x0 DUP1 REVERT JUMPDEST POP PUSH1 0x40 MLOAD PUSH1 0x20 DUP1 PUSH2 0x1352 DUP4 CODECOPY DUP2 ADD DUP1 PUSH1 0x40 MSTORE PUSH2 0x2F SWAP2 SWAP1 DUP2 ADD SWAP1 PUSH2 0x67 JUMP JUMPDEST PUSH1 0x0 DUP1 SLOAD PUSH1 0x1 PUSH1 0xA0 PUSH1 0x2 EXP SUB NOT AND PUSH1 0x1 PUSH1 0xA0 PUSH1 0x2 EXP SUB SWAP3 SWAP1 SWAP3 AND SWAP2 SWAP1 SWAP2 OR SWAP1 SSTORE PUSH2 0x99 JUMP JUMPDEST PUSH1 0x0 PUSH2 0x60 DUP3 MLOAD PUSH2 0x8D JUMP JUMPDEST SWAP4 SWAP3 POP POP POP JUMP JUMPDEST PUSH1 0x0 PUSH1 0x20 DUP3 DUP5 SUB SLT ISZERO PUSH2 0x79 JUMPI PUSH1 0x0 DUP1 REVERT JUMPDEST PUSH1 0x0 PUSH2 0x85 DUP5 DUP5 PUSH2 0x54 JUMP JUMPDEST SWAP5 SWAP4 POP POP POP POP JUMP JUMPDEST PUSH1 0x1 PUSH1 0xA0 PUSH1 0x2 EXP SUB AND SWAP1 JUMP JUMPDEST PUSH2 0x12AA DUP1 PUSH2 0xA8 PUSH1 0x0 CODECOPY PUSH1 0x0 RETURN STOP PUSH1 0x80 PUSH1 0x40 MSTORE PUSH1 0x4 CALLDATASIZE LT PUSH2 0x4B JUMPI PUSH4 0xFFFFFFFF PUSH29 0x100000000000000000000000000000000000000000000000000000000 PUSH1 0x0 CALLDATALOAD DIV AND PUSH4 0x2E9CD033 DUP2 EQ PUSH2 0x50 JUMPI DUP1 PUSH4 0x3C28D861 EQ PUSH2 0x86 JUMPI JUMPDEST PUSH1 0x0 DUP1 REVERT JUMPDEST CALLVALUE DUP1 ISZERO PUSH2 0x5C JUMPI PUSH1 0x0 DUP1 REVERT JUMPDEST POP PUSH2 0x70 PUSH2 0x6B CALLDATASIZE PUSH1 0x4 PUSH2 0xB25 JUMP JUMPDEST PUSH2 0xB3 JUMP JUMPDEST PUSH1 0x40 MLOAD PUSH2 0x7D SWAP2 SWAP1 PUSH2 0x110A JUMP JUMPDEST PUSH1 0x40 MLOAD DUP1 SWAP2 SUB SWAP1 RETURN JUMPDEST CALLVALUE DUP1 ISZERO PUSH2 0x92 JUMPI PUSH1 0x0 DUP1 REVERT JUMPDEST POP PUSH2 0xA6 PUSH2 0xA1 CALLDATASIZE PUSH1 0x4 PUSH2 0xB5A JUMP JUMPDEST PUSH2 0x29C JUMP JUMPDEST PUSH1 0x40 MLOAD PUSH2 0x7D SWAP2 SWAP1 PUSH2 0x1118 JUMP JUMPDEST PUSH2 0xBB PUSH2 0x7B1 JUMP JUMPDEST PUSH2 0x140 DUP3 ADD MLOAD MLOAD PUSH1 0x0 DUP1 DUP1 DUP1 DUP1 DUP1 DUP1 PUSH1 0x64 DUP9 LT ISZERO PUSH2 0x10E JUMPI PUSH1 0x40 MLOAD PUSH32 0x8C379A000000000000000000000000000000000000000000000000000000000 DUP2 MSTORE PUSH1 0x4 ADD PUSH2 0x105 SWAP1 PUSH2 0x10AA JUMP JUMPDEST PUSH1 0x40 MLOAD DUP1 SWAP2 SUB SWAP1 REVERT JUMPDEST PUSH2 0x140 DUP11 ADD MLOAD PUSH2 0x146 SWAP1 PUSH32 0xFFFFFFFFFFFFFFFFFFFFFFFFFFFFFFFFFFFFFFFFFFFFFFFFFFFFFFFFFFFFFFC0 DUP11 ADD PUSH4 0xFFFFFFFF PUSH2 0x5F2 AND JUMP JUMPDEST PUSH2 0x140 DUP12 ADD MLOAD SWAP1 SWAP8 POP PUSH2 0x181 SWAP1 PUSH32 0xFFFFFFFFFFFFFFFFFFFFFFFFFFFFFFFFFFFFFFFFFFFFFFFFFFFFFFFFFFFFFFE0 DUP11 ADD PUSH4 0xFFFFFFFF PUSH2 0x5F2 AND JUMP JUMPDEST SWAP6 POP DUP7 DUP11 PUSH2 0x100 ADD MLOAD GT ISZERO ISZERO PUSH2 0x1C3 JUMPI PUSH1 0x40 MLOAD PUSH32 0x8C379A000000000000000000000000000000000000000000000000000000000 DUP2 MSTORE PUSH1 0x4 ADD PUSH2 0x105 SWAP1 PUSH2 0x10BA JUMP JUMPDEST DUP7 DUP11 PUSH2 0x100 ADD MLOAD SUB SWAP5 POP DUP10 PUSH1 0xA0 ADD MLOAD SWAP4 POP DUP4 DUP7 GT ISZERO ISZERO PUSH2 0x20F JUMPI PUSH1 0x40 MLOAD PUSH32 0x8C379A000000000000000000000000000000000000000000000000000000000 DUP2 MSTORE PUSH1 0x4 ADD PUSH2 0x105 SWAP1 PUSH2 0x10FA JUMP JUMPDEST POP POP POP DUP4 DUP7 MSTORE PUSH2 0x100 DUP8 ADD DUP1 MLOAD PUSH1 0x20 DUP9 ADD MSTORE PUSH1 0x40 DUP8 ADD DUP5 SWAP1 MSTORE PUSH1 0x60 DUP8 ADD DUP3 SWAP1 MSTORE TIMESTAMP PUSH1 0xA0 DUP9 ADD DUP2 SWAP1 MSTORE SWAP1 MLOAD DUP3 DUP6 SUB SWAP2 SWAP1 DUP2 SWAP1 SUB DUP7 DUP3 LT ISZERO PUSH2 0x255 JUMPI PUSH1 0x80 DUP10 ADD DUP7 SWAP1 MSTORE PUSH2 0x28F JUMP JUMPDEST PUSH2 0x100 DUP11 ADD MLOAD DUP3 LT PUSH2 0x26D JUMPI PUSH1 0x80 DUP10 ADD DUP5 SWAP1 MSTORE PUSH2 0x28F JUMP JUMPDEST PUSH2 0x289 DUP5 PUSH2 0x284 PUSH2 0x27E DUP5 DUP8 PUSH2 0x607 JUMP JUMPDEST DUP9 PUSH2 0x66D JUMP JUMPDEST PUSH2 0x684 JUMP JUMPDEST PUSH1 0x80 DUP11 ADD MSTORE JUMPDEST POP POP POP POP POP POP POP POP SWAP2 SWAP1 POP JUMP JUMPDEST PUSH2 0x2A4 PUSH2 0x7E8 JUMP JUMPDEST PUSH2 0x2AC PUSH2 0x7B1 JUMP JUMPDEST PUSH1 0x0 PUSH1 0x60 PUSH1 0x0 DUP1 PUSH1 0x0 PUSH2 0x2BE DUP11 PUSH2 0xB3 JUMP JUMPDEST DUP1 MLOAD PUSH1 0xA0 DUP3 ADD MLOAD SWAP2 SWAP8 POP GT ISZERO PUSH2 0x300 JUMPI PUSH1 0x40 MLOAD PUSH32 0x8C379A000000000000000000000000000000000000000000000000000000000 DUP2 MSTORE PUSH1 0x4 ADD PUSH2 0x105 SWAP1 PUSH2 0x10EA JUMP JUMPDEST PUSH1 0xA0 DUP7 ADD MLOAD PUSH2 0x100 DUP12 ADD MLOAD GT PUSH2 0x342 JUMPI PUSH1 0x40 MLOAD PUSH32 0x8C379A000000000000000000000000000000000000000000000000000000000 DUP2 MSTORE PUSH1 0x4 ADD PUSH2 0x105 SWAP1 PUSH2 0x10CA JUMP JUMPDEST PUSH1 0x80 DUP1 DUP8 ADD MLOAD SWAP1 DUP13 ADD MLOAD LT ISZERO PUSH2 0x384 JUMPI PUSH1 0x40 MLOAD PUSH32 0x8C379A000000000000000000000000000000000000000000000000000000000 DUP2 MSTORE PUSH1 0x4 ADD PUSH2 0x105 SWAP1 PUSH2 0x10FA JUMP JUMPDEST PUSH1 0x0 SLOAD PUSH1 0x40 MLOAD PUSH32 0x3C28D86100000000000000000000000000000000000000000000000000000000 DUP2 MSTORE PUSH20 0xFFFFFFFFFFFFFFFFFFFFFFFFFFFFFFFFFFFFFFFF SWAP1 SWAP2 AND SWAP1 PUSH4 0x3C28D861 SWAP1 PUSH2 0x3E0 SWAP1 DUP15 SWAP1 DUP15 SWAP1 DUP15 SWAP1 DUP15 SWAP1 PUSH1 0x4 ADD PUSH2 0x1127 JUMP JUMPDEST PUSH2 0x120 PUSH1 0x40 MLOAD DUP1 DUP4 SUB DUP2 PUSH1 0x0 DUP8 DUP1 EXTCODESIZE ISZERO DUP1 ISZERO PUSH2 0x3FB JUMPI PUSH1 0x0 DUP1 REVERT JUMPDEST POP GAS CALL ISZERO DUP1 ISZERO PUSH2 0x40F JUMPI RETURNDATASIZE PUSH1 0x0 DUP1 RETURNDATACOPY RETURNDATASIZE PUSH1 0x0 REVERT JUMPDEST POP POP POP POP PUSH1 0x40 MLOAD RETURNDATASIZE PUSH1 0x1F NOT PUSH1 0x1F DUP3 ADD AND DUP3 ADD DUP1 PUSH1 0x40 MSTORE POP PUSH2 0x433 SWAP2 SWAP1 DUP2 ADD SWAP1 PUSH2 0xB06 JUMP JUMPDEST SWAP7 POP DUP7 PUSH1 0x40 ADD MLOAD SWAP5 POP PUSH1 0x0 DUP6 GT ISZERO PUSH2 0x5E4 JUMPI PUSH2 0x160 DUP11 ADD MLOAD SWAP4 POP PUSH2 0x45E DUP5 PUSH1 0x10 PUSH4 0xFFFFFFFF PUSH2 0x6C3 AND JUMP JUMPDEST SWAP3 POP PUSH2 0x472 DUP12 PUSH1 0x80 ADD MLOAD DUP8 PUSH1 0x80 ADD MLOAD PUSH2 0x724 JUMP JUMPDEST SWAP2 POP PUSH2 0x47E DUP6 DUP4 PUSH2 0x724 JUMP JUMPDEST SWAP1 POP PUSH1 0x0 DUP2 GT ISZERO PUSH2 0x532 JUMPI DUP10 MLOAD PUSH1 0x40 MLOAD PUSH32 0xA9059CBB00000000000000000000000000000000000000000000000000000000 DUP2 MSTORE PUSH20 0xFFFFFFFFFFFFFFFFFFFFFFFFFFFFFFFFFFFFFFFF DUP6 AND SWAP2 PUSH4 0xA9059CBB SWAP2 PUSH2 0x4DE SWAP2 SWAP1 DUP6 SWAP1 PUSH1 0x4 ADD PUSH2 0x105F JUMP JUMPDEST PUSH1 0x20 PUSH1 0x40 MLOAD DUP1 DUP4 SUB DUP2 PUSH1 0x0 DUP8 DUP1 EXTCODESIZE ISZERO DUP1 ISZERO PUSH2 0x4F8 JUMPI PUSH1 0x0 DUP1 REVERT JUMPDEST POP GAS CALL ISZERO DUP1 ISZERO PUSH2 0x50C JUMPI RETURNDATASIZE PUSH1 0x0 DUP1 RETURNDATACOPY RETURNDATASIZE PUSH1 0x0 REVERT JUMPDEST POP POP POP POP PUSH1 0x40 MLOAD RETURNDATASIZE PUSH1 0x1F NOT PUSH1 0x1F DUP3 ADD AND DUP3 ADD DUP1 PUSH1 0x40 MSTORE POP PUSH2 0x530 SWAP2 SWAP1 DUP2 ADD SWAP1 PUSH2 0xAE0 JUMP JUMPDEST POP JUMPDEST PUSH1 0x0 DUP3 GT ISZERO PUSH2 0x5E4 JUMPI DUP11 MLOAD PUSH1 0x40 MLOAD PUSH32 0xA9059CBB00000000000000000000000000000000000000000000000000000000 DUP2 MSTORE PUSH20 0xFFFFFFFFFFFFFFFFFFFFFFFFFFFFFFFFFFFFFFFF DUP6 AND SWAP2 PUSH4 0xA9059CBB SWAP2 PUSH2 0x590 SWAP2 SWAP1 DUP7 SWAP1 PUSH1 0x4 ADD PUSH2 0x105F JUMP JUMPDEST PUSH1 0x20 PUSH1 0x40 MLOAD DUP1 DUP4 SUB DUP2 PUSH1 0x0 DUP8 DUP1 EXTCODESIZE ISZERO DUP1 ISZERO PUSH2 0x5AA JUMPI PUSH1 0x0 DUP1 REVERT JUMPDEST POP GAS CALL ISZERO DUP1 ISZERO PUSH2 0x5BE JUMPI RETURNDATASIZE PUSH1 0x0 DUP1 RETURNDATACOPY RETURNDATASIZE PUSH1 0x0 REVERT JUMPDEST POP POP POP POP PUSH1 0x40 MLOAD RETURNDATASIZE PUSH1 0x1F NOT PUSH1 0x1F DUP3 ADD AND DUP3 ADD DUP1 PUSH1 0x40 MSTORE POP PUSH2 0x5E2 SWAP2 SWAP1 DUP2 ADD SWAP1 PUSH2 0xAE0 JUMP JUMPDEST POP JUMPDEST POP POP POP POP POP POP SWAP5 SWAP4 POP POP POP POP JUMP JUMPDEST PUSH1 0x0 PUSH2 0x5FE DUP4 DUP4 PUSH2 0x766 JUMP JUMPDEST SWAP1 POP JUMPDEST SWAP3 SWAP2 POP POP JUMP JUMPDEST PUSH1 0x0 DUP1 DUP4 ISZERO ISZERO PUSH2 0x61A JUMPI PUSH1 0x0 SWAP2 POP PUSH2 0x666 JUMP JUMPDEST POP DUP3 DUP3 MUL DUP3 DUP5 DUP3 DUP2 ISZERO ISZERO PUSH2 0x62A JUMPI INVALID JUMPDEST DIV EQ PUSH2 0x662 JUMPI PUSH1 0x40 MLOAD PUSH32 0x8C379A000000000000000000000000000000000000000000000000000000000 DUP2 MSTORE PUSH1 0x4 ADD PUSH2 0x105 SWAP1 PUSH2 0x109A JUMP JUMPDEST DUP1 SWAP2 POP JUMPDEST POP SWAP3 SWAP2 POP POP JUMP JUMPDEST PUSH1 0x0 DUP1 DUP3 DUP5 DUP2 ISZERO ISZERO PUSH2 0x67B JUMPI INVALID JUMPDEST DIV SWAP5 SWAP4 POP POP POP POP JUMP JUMPDEST PUSH1 0x0 DUP3 DUP3 ADD DUP4 DUP2 LT ISZERO PUSH2 0x662 JUMPI PUSH1 0x40 MLOAD PUSH32 0x8C379A000000000000000000000000000000000000000000000000000000000 DUP2 MSTORE PUSH1 0x4 ADD PUSH2 0x105 SWAP1 PUSH2 0x109A JUMP JUMPDEST PUSH1 0x0 DUP2 PUSH1 0x14 ADD DUP4 MLOAD LT ISZERO ISZERO ISZERO PUSH2 0x705 JUMPI PUSH1 0x40 MLOAD PUSH32 0x8C379A000000000000000000000000000000000000000000000000000000000 DUP2 MSTORE PUSH1 0x4 ADD PUSH2 0x105 SWAP1 PUSH2 0x10DA JUMP JUMPDEST POP ADD PUSH1 0x14 ADD MLOAD PUSH20 0xFFFFFFFFFFFFFFFFFFFFFFFFFFFFFFFFFFFFFFFF AND SWAP1 JUMP JUMPDEST PUSH1 0x0 DUP3 DUP3 GT ISZERO PUSH2 0x760 JUMPI PUSH1 0x40 MLOAD PUSH32 0x8C379A000000000000000000000000000000000000000000000000000000000 DUP2 MSTORE PUSH1 0x4 ADD PUSH2 0x105 SWAP1 PUSH2 0x107A JUMP JUMPDEST POP SWAP1 SUB SWAP1 JUMP JUMPDEST PUSH1 0x0 DUP2 PUSH1 0x20 ADD DUP4 MLOAD LT ISZERO ISZERO ISZERO PUSH2 0x7A8 JUMPI PUSH1 0x40 MLOAD PUSH32 0x8C379A000000000000000000000000000000000000000000000000000000000 DUP2 MSTORE PUSH1 0x4 ADD PUSH2 0x105 SWAP1 PUSH2 0x108A JUMP JUMPDEST POP ADD PUSH1 0x20 ADD MLOAD SWAP1 JUMP JUMPDEST PUSH1 0xC0 PUSH1 0x40 MLOAD SWAP1 DUP2 ADD PUSH1 0x40 MSTORE DUP1 PUSH1 0x0 DUP2 MSTORE PUSH1 0x20 ADD PUSH1 0x0 DUP2 MSTORE PUSH1 0x20 ADD PUSH1 0x0 DUP2 MSTORE PUSH1 0x20 ADD PUSH1 0x0 DUP2 MSTORE PUSH1 0x20 ADD PUSH1 0x0 DUP2 MSTORE PUSH1 0x20 ADD PUSH1 0x0 DUP2 MSTORE POP SWAP1 JUMP JUMPDEST PUSH2 0x120 PUSH1 0x40 MLOAD SWAP1 DUP2 ADD PUSH1 0x40 MSTORE DUP1 PUSH2 0x7FD PUSH2 0x817 JUMP JUMPDEST DUP2 MSTORE PUSH1 0x20 ADD PUSH2 0x80A PUSH2 0x817 JUMP JUMPDEST DUP2 MSTORE PUSH1 0x20 ADD PUSH1 0x0 DUP2 MSTORE POP SWAP1 JUMP JUMPDEST PUSH1 0x80 PUSH1 0x40 MLOAD SWAP1 DUP2 ADD PUSH1 0x40 MSTORE DUP1 PUSH1 0x0 DUP2 MSTORE PUSH1 0x20 ADD PUSH1 0x0 DUP2 MSTORE PUSH1 0x20 ADD PUSH1 0x0 DUP2 MSTORE PUSH1 0x20 ADD PUSH1 0x0 DUP2 MSTORE POP SWAP1 JUMP JUMPDEST PUSH1 0x0 PUSH2 0x84C DUP3 CALLDATALOAD PUSH2 0x11EF JUMP JUMPDEST SWAP4 SWAP3 POP POP POP JUMP JUMPDEST PUSH1 0x0 PUSH2 0x84C DUP3 MLOAD PUSH2 0x120B JUMP JUMPDEST PUSH1 0x0 PUSH1 0x1F DUP3 ADD DUP4 SGT PUSH2 0x870 JUMPI PUSH1 0x0 DUP1 REVERT JUMPDEST DUP2 CALLDATALOAD PUSH2 0x883 PUSH2 0x87E DUP3 PUSH2 0x11A5 JUMP JUMPDEST PUSH2 0x117E JUMP JUMPDEST SWAP2 POP DUP1 DUP3 MSTORE PUSH1 0x20 DUP4 ADD PUSH1 0x20 DUP4 ADD DUP6 DUP4 DUP4 ADD GT ISZERO PUSH2 0x89F JUMPI PUSH1 0x0 DUP1 REVERT JUMPDEST PUSH2 0x8AA DUP4 DUP3 DUP5 PUSH2 0x1210 JUMP JUMPDEST POP POP POP SWAP3 SWAP2 POP POP JUMP JUMPDEST PUSH1 0x0 PUSH1 0x80 DUP3 DUP5 SUB SLT ISZERO PUSH2 0x8C5 JUMPI PUSH1 0x0 DUP1 REVERT JUMPDEST PUSH2 0x8CF PUSH1 0x80 PUSH2 0x117E JUMP JUMPDEST SWAP1 POP PUSH1 0x0 PUSH2 0x8DD DUP5 DUP5 PUSH2 0xAD4 JUMP JUMPDEST DUP3 MSTORE POP PUSH1 0x20 PUSH2 0x8EE DUP5 DUP5 DUP4 ADD PUSH2 0xAD4 JUMP JUMPDEST PUSH1 0x20 DUP4 ADD MSTORE POP PUSH1 0x40 PUSH2 0x902 DUP5 DUP3 DUP6 ADD PUSH2 0xAD4 JUMP JUMPDEST PUSH1 0x40 DUP4 ADD MSTORE POP PUSH1 0x60 PUSH2 0x916 DUP5 DUP3 DUP6 ADD PUSH2 0xAD4 JUMP JUMPDEST PUSH1 0x60 DUP4 ADD MSTORE POP SWAP3 SWAP2 POP POP JUMP JUMPDEST PUSH1 0x0 PUSH2 0x120 DUP3 DUP5 SUB SLT ISZERO PUSH2 0x935 JUMPI PUSH1 0x0 DUP1 REVERT JUMPDEST PUSH2 0x93F PUSH1 0x60 PUSH2 0x117E JUMP JUMPDEST SWAP1 POP PUSH1 0x0 PUSH2 0x94D DUP5 DUP5 PUSH2 0x8B3 JUMP JUMPDEST DUP3 MSTORE POP PUSH1 0x80 PUSH2 0x95E DUP5 DUP5 DUP4 ADD PUSH2 0x8B3 JUMP JUMPDEST PUSH1 0x20 DUP4 ADD MSTORE POP PUSH2 0x100 PUSH2 0x973 DUP5 DUP3 DUP6 ADD PUSH2 0xAD4 JUMP JUMPDEST PUSH1 0x40 DUP4 ADD MSTORE POP SWAP3 SWAP2 POP POP JUMP JUMPDEST PUSH1 0x0 PUSH2 0x180 DUP3 DUP5 SUB SLT ISZERO PUSH2 0x992 JUMPI PUSH1 0x0 DUP1 REVERT JUMPDEST PUSH2 0x99D PUSH2 0x180 PUSH2 0x117E JUMP JUMPDEST SWAP1 POP PUSH1 0x0 PUSH2 0x9AB DUP5 DUP5 PUSH2 0x840 JUMP JUMPDEST DUP3 MSTORE POP PUSH1 0x20 PUSH2 0x9BC DUP5 DUP5 DUP4 ADD PUSH2 0x840 JUMP JUMPDEST PUSH1 0x20 DUP4 ADD MSTORE POP PUSH1 0x40 PUSH2 0x9D0 DUP5 DUP3 DUP6 ADD PUSH2 0x840 JUMP JUMPDEST PUSH1 0x40 DUP4 ADD MSTORE POP PUSH1 0x60 PUSH2 0x9E4 DUP5 DUP3 DUP6 ADD PUSH2 0x840 JUMP JUMPDEST PUSH1 0x60 DUP4 ADD MSTORE POP PUSH1 0x80 PUSH2 0x9F8 DUP5 DUP3 DUP6 ADD PUSH2 0xAC8 JUMP JUMPDEST PUSH1 0x80 DUP4 ADD MSTORE POP PUSH1 0xA0 PUSH2 0xA0C DUP5 DUP3 DUP6 ADD PUSH2 0xAC8 JUMP JUMPDEST PUSH1 0xA0 DUP4 ADD MSTORE POP PUSH1 0xC0 PUSH2 0xA20 DUP5 DUP3 DUP6 ADD PUSH2 0xAC8 JUMP JUMPDEST PUSH1 0xC0 DUP4 ADD MSTORE POP PUSH1 0xE0 PUSH2 0xA34 DUP5 DUP3 DUP6 ADD PUSH2 0xAC8 JUMP JUMPDEST PUSH1 0xE0 DUP4 ADD MSTORE POP PUSH2 0x100 PUSH2 0xA49 DUP5 DUP3 DUP6 ADD PUSH2 0xAC8 JUMP JUMPDEST PUSH2 0x100 DUP4 ADD MSTORE POP PUSH2 0x120 PUSH2 0xA5F DUP5 DUP3 DUP6 ADD PUSH2 0xAC8 JUMP JUMPDEST PUSH2 0x120 DUP4 ADD MSTORE POP PUSH2 0x140 DUP3 ADD CALLDATALOAD PUSH8 0xFFFFFFFFFFFFFFFF DUP2 GT ISZERO PUSH2 0xA81 JUMPI PUSH1 0x0 DUP1 REVERT JUMPDEST PUSH2 0xA8D DUP5 DUP3 DUP6 ADD PUSH2 0x85F JUMP JUMPDEST PUSH2 0x140 DUP4 ADD MSTORE POP PUSH2 0x160 DUP3 ADD CALLDATALOAD PUSH8 0xFFFFFFFFFFFFFFFF DUP2 GT ISZERO PUSH2 0xAAF JUMPI PUSH1 0x0 DUP1 REVERT JUMPDEST PUSH2 0xABB DUP5 DUP3 DUP6 ADD PUSH2 0x85F JUMP JUMPDEST PUSH2 0x160 DUP4 ADD MSTORE POP SWAP3 SWAP2 POP POP JUMP JUMPDEST PUSH1 0x0 PUSH2 0x84C DUP3 CALLDATALOAD PUSH2 0x1208 JUMP JUMPDEST PUSH1 0x0 PUSH2 0x84C DUP3 MLOAD PUSH2 0x1208 JUMP JUMPDEST PUSH1 0x0 PUSH1 0x20 DUP3 DUP5 SUB SLT ISZERO PUSH2 0xAF2 JUMPI PUSH1 0x0 DUP1 REVERT JUMPDEST PUSH1 0x0 PUSH2 0xAFE DUP5 DUP5 PUSH2 0x853 JUMP JUMPDEST SWAP5 SWAP4 POP POP POP POP JUMP JUMPDEST PUSH1 0x0 PUSH2 0x120 DUP3 DUP5 SUB SLT ISZERO PUSH2 0xB19 JUMPI PUSH1 0x0 DUP1 REVERT JUMPDEST PUSH1 0x0 PUSH2 0xAFE DUP5 DUP5 PUSH2 0x922 JUMP JUMPDEST PUSH1 0x0 PUSH1 0x20 DUP3 DUP5 SUB SLT ISZERO PUSH2 0xB37 JUMPI PUSH1 0x0 DUP1 REVERT JUMPDEST DUP2 CALLDATALOAD PUSH8 0xFFFFFFFFFFFFFFFF DUP2 GT ISZERO PUSH2 0xB4E JUMPI PUSH1 0x0 DUP1 REVERT JUMPDEST PUSH2 0xAFE DUP5 DUP3 DUP6 ADD PUSH2 0x97F JUMP JUMPDEST PUSH1 0x0 DUP1 PUSH1 0x0 DUP1 PUSH1 0x80 DUP6 DUP8 SUB SLT ISZERO PUSH2 0xB70 JUMPI PUSH1 0x0 DUP1 REVERT JUMPDEST DUP5 CALLDATALOAD PUSH8 0xFFFFFFFFFFFFFFFF DUP2 GT ISZERO PUSH2 0xB87 JUMPI PUSH1 0x0 DUP1 REVERT JUMPDEST PUSH2 0xB93 DUP8 DUP3 DUP9 ADD PUSH2 0x97F JUMP JUMPDEST SWAP5 POP POP PUSH1 0x20 DUP6 ADD CALLDATALOAD PUSH8 0xFFFFFFFFFFFFFFFF DUP2 GT ISZERO PUSH2 0xBB0 JUMPI PUSH1 0x0 DUP1 REVERT JUMPDEST PUSH2 0xBBC DUP8 DUP3 DUP9 ADD PUSH2 0x97F JUMP JUMPDEST SWAP4 POP POP PUSH1 0x40 DUP6 ADD CALLDATALOAD PUSH8 0xFFFFFFFFFFFFFFFF DUP2 GT ISZERO PUSH2 0xBD9 JUMPI PUSH1 0x0 DUP1 REVERT JUMPDEST PUSH2 0xBE5 DUP8 DUP3 DUP9 ADD PUSH2 0x85F JUMP JUMPDEST SWAP3 POP POP PUSH1 0x60 DUP6 ADD CALLDATALOAD PUSH8 0xFFFFFFFFFFFFFFFF DUP2 GT ISZERO PUSH2 0xC02 JUMPI PUSH1 0x0 DUP1 REVERT JUMPDEST PUSH2 0xC0E DUP8 DUP3 DUP9 ADD PUSH2 0x85F JUMP JUMPDEST SWAP2 POP POP SWAP3 SWAP6 SWAP2 SWAP5 POP SWAP3 POP JUMP JUMPDEST PUSH2 0xC23 DUP2 PUSH2 0x11EF JUMP JUMPDEST DUP3 MSTORE POP POP JUMP JUMPDEST PUSH1 0x0 PUSH2 0xC34 DUP3 PUSH2 0x11EB JUMP JUMPDEST DUP1 DUP5 MSTORE PUSH2 0xC48 DUP2 PUSH1 0x20 DUP7 ADD PUSH1 0x20 DUP7 ADD PUSH2 0x121C JUMP JUMPDEST PUSH2 0xC51 DUP2 PUSH2 0x1248 JUMP JUMPDEST SWAP1 SWAP4 ADD PUSH1 0x20 ADD SWAP4 SWAP3 POP POP POP JUMP JUMPDEST PUSH1 0x11 DUP2 MSTORE PUSH32 0x55494E543235365F554E444552464C4F57000000000000000000000000000000 PUSH1 0x20 DUP3 ADD MSTORE PUSH1 0x40 ADD SWAP1 JUMP JUMPDEST PUSH1 0x26 DUP2 MSTORE PUSH32 0x475245415445525F4F525F455155414C5F544F5F33325F4C454E4754485F5245 PUSH1 0x20 DUP3 ADD MSTORE PUSH32 0x5155495245440000000000000000000000000000000000000000000000000000 PUSH1 0x40 DUP3 ADD MSTORE PUSH1 0x60 ADD SWAP1 JUMP JUMPDEST PUSH1 0x10 DUP2 MSTORE PUSH32 0x55494E543235365F4F564552464C4F5700000000000000000000000000000000 PUSH1 0x20 DUP3 ADD MSTORE PUSH1 0x40 ADD SWAP1 JUMP JUMPDEST PUSH1 0x12 DUP2 MSTORE PUSH32 0x494E56414C49445F41535345545F444154410000000000000000000000000000 PUSH1 0x20 DUP3 ADD MSTORE PUSH1 0x40 ADD SWAP1 JUMP JUMPDEST PUSH1 0x12 DUP2 MSTORE PUSH32 0x494E56414C49445F424547494E5F54494D450000000000000000000000000000 PUSH1 0x20 DUP3 ADD MSTORE PUSH1 0x40 ADD SWAP1 JUMP JUMPDEST PUSH1 0xF DUP2 MSTORE PUSH32 0x41554354494F4E5F455850495245440000000000000000000000000000000000 PUSH1 0x20 DUP3 ADD MSTORE PUSH1 0x40 ADD SWAP1 JUMP JUMPDEST PUSH1 0x26 DUP2 MSTORE PUSH32 0x475245415445525F4F525F455155414C5F544F5F32305F4C454E4754485F5245 PUSH1 0x20 DUP3 ADD MSTORE PUSH32 0x5155495245440000000000000000000000000000000000000000000000000000 PUSH1 0x40 DUP3 ADD MSTORE PUSH1 0x60 ADD SWAP1 JUMP JUMPDEST PUSH1 0x13 DUP2 MSTORE PUSH32 0x41554354494F4E5F4E4F545F5354415254454400000000000000000000000000 PUSH1 0x20 DUP3 ADD MSTORE PUSH1 0x40 ADD SWAP1 JUMP JUMPDEST PUSH1 0xE DUP2 MSTORE PUSH32 0x494E56414C49445F414D4F554E54000000000000000000000000000000000000 PUSH1 0x20 DUP3 ADD MSTORE PUSH1 0x40 ADD SWAP1 JUMP JUMPDEST DUP1 MLOAD PUSH1 0xC0 DUP4 ADD SWAP1 PUSH2 0xE6B DUP5 DUP3 PUSH2 0x1056 JUMP JUMPDEST POP PUSH1 0x20 DUP3 ADD MLOAD PUSH2 0xE7E PUSH1 0x20 DUP6 ADD DUP3 PUSH2 0x1056 JUMP JUMPDEST POP PUSH1 0x40 DUP3 ADD MLOAD PUSH2 0xE91 PUSH1 0x40 DUP6 ADD DUP3 PUSH2 0x1056 JUMP JUMPDEST POP PUSH1 0x60 DUP3 ADD MLOAD PUSH2 0xEA4 PUSH1 0x60 DUP6 ADD DUP3 PUSH2 0x1056 JUMP JUMPDEST POP PUSH1 0x80 DUP3 ADD MLOAD PUSH2 0xEB7 PUSH1 0x80 DUP6 ADD DUP3 PUSH2 0x1056 JUMP JUMPDEST POP PUSH1 0xA0 DUP3 ADD MLOAD PUSH2 0xECA PUSH1 0xA0 DUP6 ADD DUP3 PUSH2 0x1056 JUMP JUMPDEST POP POP POP POP JUMP JUMPDEST DUP1 MLOAD PUSH1 0x80 DUP4 ADD SWAP1 PUSH2 0xEE1 DUP5 DUP3 PUSH2 0x1056 JUMP JUMPDEST POP PUSH1 0x20 DUP3 ADD MLOAD PUSH2 0xEF4 PUSH1 0x20 DUP6 ADD DUP3 PUSH2 0x1056 JUMP JUMPDEST POP PUSH1 0x40 DUP3 ADD MLOAD PUSH2 0xF07 PUSH1 0x40 DUP6 ADD DUP3 PUSH2 0x1056 JUMP JUMPDEST POP PUSH1 0x60 DUP3 ADD MLOAD PUSH2 0xECA PUSH1 0x60 DUP6 ADD DUP3 PUSH2 0x1056 JUMP JUMPDEST DUP1 MLOAD PUSH2 0x120 DUP4 ADD SWAP1 PUSH2 0xF2C DUP5 DUP3 PUSH2 0xED0 JUMP JUMPDEST POP PUSH1 0x20 DUP3 ADD MLOAD PUSH2 0xF3F PUSH1 0x80 DUP6 ADD DUP3 PUSH2 0xED0 JUMP JUMPDEST POP PUSH1 0x40 DUP3 ADD MLOAD PUSH2 0xECA PUSH2 0x100 DUP6 ADD DUP3 PUSH2 0x1056 JUMP JUMPDEST DUP1 MLOAD PUSH1 0x0 SWAP1 PUSH2 0x180 DUP5 ADD SWAP1 PUSH2 0xF68 DUP6 DUP3 PUSH2 0xC1A JUMP JUMPDEST POP PUSH1 0x20 DUP4 ADD MLOAD PUSH2 0xF7B PUSH1 0x20 DUP7 ADD DUP3 PUSH2 0xC1A JUMP JUMPDEST POP PUSH1 0x40 DUP4 ADD MLOAD PUSH2 0xF8E PUSH1 0x40 DUP7 ADD DUP3 PUSH2 0xC1A JUMP JUMPDEST POP PUSH1 0x60 DUP4 ADD MLOAD PUSH2 0xFA1 PUSH1 0x60 DUP7 ADD DUP3 PUSH2 0xC1A JUMP JUMPDEST POP PUSH1 0x80 DUP4 ADD MLOAD PUSH2 0xFB4 PUSH1 0x80 DUP7 ADD DUP3 PUSH2 0x1056 JUMP JUMPDEST POP PUSH1 0xA0 DUP4 ADD MLOAD PUSH2 0xFC7 PUSH1 0xA0 DUP7 ADD DUP3 PUSH2 0x1056 JUMP JUMPDEST POP PUSH1 0xC0 DUP4 ADD MLOAD PUSH2 0xFDA PUSH1 0xC0 DUP7 ADD DUP3 PUSH2 0x1056 JUMP JUMPDEST POP PUSH1 0xE0 DUP4 ADD MLOAD PUSH2 0xFED PUSH1 0xE0 DUP7 ADD DUP3 PUSH2 0x1056 JUMP JUMPDEST POP PUSH2 0x100 DUP4 ADD MLOAD PUSH2 0x1002 PUSH2 0x100 DUP7 ADD DUP3 PUSH2 0x1056 JUMP JUMPDEST POP PUSH2 0x120 DUP4 ADD MLOAD PUSH2 0x1017 PUSH2 0x120 DUP7 ADD DUP3 PUSH2 0x1056 JUMP JUMPDEST POP PUSH2 0x140 DUP4 ADD MLOAD DUP5 DUP3 SUB PUSH2 0x140 DUP7 ADD MSTORE PUSH2 0x1031 DUP3 DUP3 PUSH2 0xC29 JUMP JUMPDEST SWAP2 POP POP PUSH2 0x160 DUP4 ADD MLOAD DUP5 DUP3 SUB PUSH2 0x160 DUP7 ADD MSTORE PUSH2 0x104D DUP3 DUP3 PUSH2 0xC29 JUMP JUMPDEST SWAP6 SWAP5 POP POP POP POP POP JUMP JUMPDEST PUSH2 0xC23 DUP2 PUSH2 0x1208 JUMP JUMPDEST PUSH1 0x40 DUP2 ADD PUSH2 0x106D DUP3 DUP6 PUSH2 0xC1A JUMP JUMPDEST PUSH2 0x84C PUSH1 0x20 DUP4 ADD DUP5 PUSH2 0x1056 JUMP JUMPDEST PUSH1 0x20 DUP1 DUP3 MSTORE DUP2 ADD PUSH2 0x601 DUP2 PUSH2 0xC5E JUMP JUMPDEST PUSH1 0x20 DUP1 DUP3 MSTORE DUP2 ADD PUSH2 0x601 DUP2 PUSH2 0xC8E JUMP JUMPDEST PUSH1 0x20 DUP1 DUP3 MSTORE DUP2 ADD PUSH2 0x601 DUP2 PUSH2 0xCE4 JUMP JUMPDEST PUSH1 0x20 DUP1 DUP3 MSTORE DUP2 ADD PUSH2 0x601 DUP2 PUSH2 0xD14 JUMP JUMPDEST PUSH1 0x20 DUP1 DUP3 MSTORE DUP2 ADD PUSH2 0x601 DUP2 PUSH2 0xD44 JUMP JUMPDEST PUSH1 0x20 DUP1 DUP3 MSTORE DUP2 ADD PUSH2 0x601 DUP2 PUSH2 0xD74 JUMP JUMPDEST PUSH1 0x20 DUP1 DUP3 MSTORE DUP2 ADD PUSH2 0x601 DUP2 PUSH2 0xDA4 JUMP JUMPDEST PUSH1 0x20 DUP1 DUP3 MSTORE DUP2 ADD PUSH2 0x601 DUP2 PUSH2 0xDFA JUMP JUMPDEST PUSH1 0x20 DUP1 DUP3 MSTORE DUP2 ADD PUSH2 0x601 DUP2 PUSH2 0xE2A JUMP JUMPDEST PUSH1 0xC0 DUP2 ADD PUSH2 0x601 DUP3 DUP5 PUSH2 0xE5A JUMP JUMPDEST PUSH2 0x120 DUP2 ADD PUSH2 0x601 DUP3 DUP5 PUSH2 0xF1A JUMP JUMPDEST PUSH1 0x80 DUP1 DUP3 MSTORE DUP2 ADD PUSH2 0x1138 DUP2 DUP8 PUSH2 0xF53 JUMP JUMPDEST SWAP1 POP DUP2 DUP2 SUB PUSH1 0x20 DUP4 ADD MSTORE PUSH2 0x114C DUP2 DUP7 PUSH2 0xF53 JUMP JUMPDEST SWAP1 POP DUP2 DUP2 SUB PUSH1 0x40 DUP4 ADD MSTORE PUSH2 0x1160 DUP2 DUP6 PUSH2 0xC29 JUMP JUMPDEST SWAP1 POP DUP2 DUP2 SUB PUSH1 0x60 DUP4 ADD MSTORE PUSH2 0x1174 DUP2 DUP5 PUSH2 0xC29 JUMP JUMPDEST SWAP7 SWAP6 POP POP POP POP POP POP JUMP JUMPDEST PUSH1 0x40 MLOAD DUP2 DUP2 ADD PUSH8 0xFFFFFFFFFFFFFFFF DUP2 GT DUP3 DUP3 LT OR ISZERO PUSH2 0x119D JUMPI PUSH1 0x0 DUP1 REVERT JUMPDEST PUSH1 0x40 MSTORE SWAP2 SWAP1 POP JUMP JUMPDEST PUSH1 0x0 PUSH8 0xFFFFFFFFFFFFFFFF DUP3 GT ISZERO PUSH2 0x11BC JUMPI PUSH1 0x0 DUP1 REVERT JUMPDEST POP PUSH1 0x20 PUSH1 0x1F SWAP2 SWAP1 SWAP2 ADD PUSH32 0xFFFFFFFFFFFFFFFFFFFFFFFFFFFFFFFFFFFFFFFFFFFFFFFFFFFFFFFFFFFFFFE0 AND ADD SWAP1 JUMP JUMPDEST MLOAD SWAP1 JUMP JUMPDEST PUSH20 0xFFFFFFFFFFFFFFFFFFFFFFFFFFFFFFFFFFFFFFFF AND SWAP1 JUMP JUMPDEST SWAP1 JUMP JUMPDEST ISZERO ISZERO SWAP1 JUMP JUMPDEST DUP3 DUP2 DUP4 CALLDATACOPY POP PUSH1 0x0 SWAP2 ADD MSTORE JUMP JUMPDEST PUSH1 0x0 JUMPDEST DUP4 DUP2 LT ISZERO PUSH2 0x1237 JUMPI DUP2 DUP2 ADD MLOAD DUP4 DUP3 ADD MSTORE PUSH1 0x20 ADD PUSH2 0x121F JUMP JUMPDEST DUP4 DUP2 GT ISZERO PUSH2 0xECA JUMPI POP POP PUSH1 0x0 SWAP2 ADD MSTORE JUMP JUMPDEST PUSH1 0x1F ADD PUSH32 0xFFFFFFFFFFFFFFFFFFFFFFFFFFFFFFFFFFFFFFFFFFFFFFFFFFFFFFFFFFFFFFE0 AND SWAP1 JUMP STOP LOG2 PUSH6 0x627A7A723058 KECCAK256 SWAP13 0xf7 SIGNEXTEND DIV 0xb7 0x5f 0xc2 RETURNDATACOPY PUSH8 0x62AE4C6C8F25CCAD 0x25 0xdf 0xcb CODECOPY 0xcf SAR 0xd3 SWAP7 PUSH15 0xB27CE513DE036C6578706572696D65 PUSH15 0x74616CF50037000000000000000000 "
			}
		}
	},
	"sourceTreeHashHex": "0x4be45134ccdebcf000c4e09f6aed69041411babf993cfba6871e9ad73369122f",
	"compiler": {
		"name": "solc",
		"version": "soljson-v0.4.24+commit.e67f0147.js",
		"settings": {
			"optimizer": {
				"enabled": true,
				"runs": 1000000
			},
			"outputSelection": {
				"*": {
					"*": [
						"abi",
						"evm.bytecode.object",
						"evm.bytecode.sourceMap",
						"evm.deployedBytecode.object",
						"evm.deployedBytecode.sourceMap"
					]
				}
			}
		}
	}
}