{
	"schemaVersion": "2.0.0",
	"contractName": "StakingProxy",
	"compilerOutput": {
		"abi": [
			{
				"inputs": [
					{
						"internalType": "address",
						"name": "_stakingContract",
						"type": "address"
					}
				],
				"payable": false,
				"stateMutability": "nonpayable",
				"type": "constructor"
			},
			{
				"anonymous": false,
				"inputs": [
					{
						"indexed": true,
						"internalType": "address",
						"name": "target",
						"type": "address"
					},
					{
						"indexed": true,
						"internalType": "address",
						"name": "caller",
						"type": "address"
					}
				],
				"name": "AuthorizedAddressAdded",
				"type": "event"
			},
			{
				"anonymous": false,
				"inputs": [
					{
						"indexed": true,
						"internalType": "address",
						"name": "target",
						"type": "address"
					},
					{
						"indexed": true,
						"internalType": "address",
						"name": "caller",
						"type": "address"
					}
				],
				"name": "AuthorizedAddressRemoved",
				"type": "event"
			},
			{
				"anonymous": false,
				"inputs": [
					{
						"indexed": true,
						"internalType": "address",
						"name": "previousOwner",
						"type": "address"
					},
					{
						"indexed": true,
						"internalType": "address",
						"name": "newOwner",
						"type": "address"
					}
				],
				"name": "OwnershipTransferred",
				"type": "event"
			},
			{
				"anonymous": false,
				"inputs": [
					{
						"indexed": false,
						"internalType": "address",
						"name": "newStakingContractAddress",
						"type": "address"
					}
				],
				"name": "StakingContractAttachedToProxy",
				"type": "event"
			},
			{
				"anonymous": false,
				"inputs": [],
				"name": "StakingContractDetachedFromProxy",
				"type": "event"
			},
			{
				"payable": true,
				"stateMutability": "payable",
				"type": "fallback"
			},
			{
				"constant": false,
				"inputs": [
					{
						"internalType": "address",
						"name": "target",
						"type": "address"
					}
				],
				"name": "addAuthorizedAddress",
				"outputs": [],
				"payable": false,
				"stateMutability": "nonpayable",
				"type": "function"
			},
			{
				"constant": true,
				"inputs": [
					{
						"internalType": "uint256",
						"name": "",
						"type": "uint256"
					}
				],
				"name": "aggregatedStatsByEpoch",
				"outputs": [
					{
						"internalType": "uint256",
						"name": "rewardsAvailable",
						"type": "uint256"
					},
					{
						"internalType": "uint256",
						"name": "numPoolsToFinalize",
						"type": "uint256"
					},
					{
						"internalType": "uint256",
						"name": "totalFeesCollected",
						"type": "uint256"
					},
					{
						"internalType": "uint256",
						"name": "totalWeightedStake",
						"type": "uint256"
					},
					{
						"internalType": "uint256",
						"name": "totalRewardsFinalized",
						"type": "uint256"
					}
				],
				"payable": false,
				"stateMutability": "view",
				"type": "function"
			},
			{
				"constant": true,
				"inputs": [],
				"name": "assertValidStorageParams",
				"outputs": [],
				"payable": false,
				"stateMutability": "view",
				"type": "function"
			},
			{
				"constant": false,
				"inputs": [
					{
						"internalType": "address",
						"name": "_stakingContract",
						"type": "address"
					}
				],
				"name": "attachStakingContract",
				"outputs": [],
				"payable": false,
				"stateMutability": "nonpayable",
				"type": "function"
			},
			{
				"constant": true,
				"inputs": [
					{
						"internalType": "uint256",
						"name": "",
						"type": "uint256"
					}
				],
				"name": "authorities",
				"outputs": [
					{
						"internalType": "address",
						"name": "",
						"type": "address"
					}
				],
				"payable": false,
				"stateMutability": "view",
				"type": "function"
			},
			{
				"constant": true,
				"inputs": [
					{
						"internalType": "address",
						"name": "",
						"type": "address"
					}
				],
				"name": "authorized",
				"outputs": [
					{
						"internalType": "bool",
						"name": "",
						"type": "bool"
					}
				],
				"payable": false,
				"stateMutability": "view",
				"type": "function"
			},
			{
				"constant": false,
				"inputs": [
					{
						"internalType": "bytes[]",
						"name": "data",
						"type": "bytes[]"
					}
				],
				"name": "batchExecute",
				"outputs": [
					{
						"internalType": "bytes[]",
						"name": "batchReturnData",
						"type": "bytes[]"
					}
				],
				"payable": false,
				"stateMutability": "nonpayable",
				"type": "function"
			},
			{
				"constant": true,
				"inputs": [],
				"name": "cobbDouglasAlphaDenominator",
				"outputs": [
					{
						"internalType": "uint32",
						"name": "",
						"type": "uint32"
					}
				],
				"payable": false,
				"stateMutability": "view",
				"type": "function"
			},
			{
				"constant": true,
				"inputs": [],
				"name": "cobbDouglasAlphaNumerator",
				"outputs": [
					{
						"internalType": "uint32",
						"name": "",
						"type": "uint32"
					}
				],
				"payable": false,
				"stateMutability": "view",
				"type": "function"
			},
			{
				"constant": true,
				"inputs": [],
				"name": "currentEpoch",
				"outputs": [
					{
						"internalType": "uint256",
						"name": "",
						"type": "uint256"
					}
				],
				"payable": false,
				"stateMutability": "view",
				"type": "function"
			},
			{
				"constant": true,
				"inputs": [],
				"name": "currentEpochStartTimeInSeconds",
				"outputs": [
					{
						"internalType": "uint256",
						"name": "",
						"type": "uint256"
					}
				],
				"payable": false,
				"stateMutability": "view",
				"type": "function"
			},
			{
				"constant": false,
				"inputs": [],
				"name": "detachStakingContract",
				"outputs": [],
				"payable": false,
				"stateMutability": "nonpayable",
				"type": "function"
			},
			{
				"constant": true,
				"inputs": [],
				"name": "epochDurationInSeconds",
				"outputs": [
					{
						"internalType": "uint256",
						"name": "",
						"type": "uint256"
					}
				],
				"payable": false,
				"stateMutability": "view",
				"type": "function"
			},
			{
				"constant": true,
				"inputs": [],
				"name": "getAuthorizedAddresses",
				"outputs": [
					{
						"internalType": "address[]",
						"name": "",
						"type": "address[]"
					}
				],
				"payable": false,
				"stateMutability": "view",
				"type": "function"
			},
			{
				"constant": true,
				"inputs": [],
				"name": "lastPoolId",
				"outputs": [
					{
						"internalType": "bytes32",
						"name": "",
						"type": "bytes32"
					}
				],
				"payable": false,
				"stateMutability": "view",
				"type": "function"
			},
			{
				"constant": true,
				"inputs": [],
				"name": "minimumPoolStake",
				"outputs": [
					{
						"internalType": "uint256",
						"name": "",
						"type": "uint256"
					}
				],
				"payable": false,
				"stateMutability": "view",
				"type": "function"
			},
			{
				"constant": true,
				"inputs": [],
				"name": "owner",
				"outputs": [
					{
						"internalType": "address",
						"name": "",
						"type": "address"
					}
				],
				"payable": false,
				"stateMutability": "view",
				"type": "function"
			},
			{
				"constant": true,
				"inputs": [
					{
						"internalType": "address",
						"name": "",
						"type": "address"
					}
				],
				"name": "poolIdByMaker",
				"outputs": [
					{
						"internalType": "bytes32",
						"name": "",
						"type": "bytes32"
					}
				],
				"payable": false,
				"stateMutability": "view",
				"type": "function"
			},
			{
				"constant": true,
				"inputs": [
					{
						"internalType": "bytes32",
						"name": "",
						"type": "bytes32"
					},
					{
						"internalType": "uint256",
						"name": "",
						"type": "uint256"
					}
				],
				"name": "poolStatsByEpoch",
				"outputs": [
					{
						"internalType": "uint256",
						"name": "feesCollected",
						"type": "uint256"
					},
					{
						"internalType": "uint256",
						"name": "weightedStake",
						"type": "uint256"
					},
					{
						"internalType": "uint256",
						"name": "membersStake",
						"type": "uint256"
					}
				],
				"payable": false,
				"stateMutability": "view",
				"type": "function"
			},
			{
				"constant": false,
				"inputs": [
					{
						"internalType": "address",
						"name": "target",
						"type": "address"
					}
				],
				"name": "removeAuthorizedAddress",
				"outputs": [],
				"payable": false,
				"stateMutability": "nonpayable",
				"type": "function"
			},
			{
				"constant": false,
				"inputs": [
					{
						"internalType": "address",
						"name": "target",
						"type": "address"
					},
					{
						"internalType": "uint256",
						"name": "index",
						"type": "uint256"
					}
				],
				"name": "removeAuthorizedAddressAtIndex",
				"outputs": [],
				"payable": false,
				"stateMutability": "nonpayable",
				"type": "function"
			},
			{
				"constant": true,
				"inputs": [],
				"name": "rewardDelegatedStakeWeight",
				"outputs": [
					{
						"internalType": "uint32",
						"name": "",
						"type": "uint32"
					}
				],
				"payable": false,
				"stateMutability": "view",
				"type": "function"
			},
			{
				"constant": true,
				"inputs": [
					{
						"internalType": "bytes32",
						"name": "",
						"type": "bytes32"
					}
				],
				"name": "rewardsByPoolId",
				"outputs": [
					{
						"internalType": "uint256",
						"name": "",
						"type": "uint256"
					}
				],
				"payable": false,
				"stateMutability": "view",
				"type": "function"
			},
			{
				"constant": true,
				"inputs": [],
				"name": "stakingContract",
				"outputs": [
					{
						"internalType": "address",
						"name": "",
						"type": "address"
					}
				],
				"payable": false,
				"stateMutability": "view",
				"type": "function"
			},
			{
				"constant": false,
				"inputs": [
					{
						"internalType": "address",
						"name": "newOwner",
						"type": "address"
					}
				],
				"name": "transferOwnership",
				"outputs": [],
				"payable": false,
				"stateMutability": "nonpayable",
				"type": "function"
			},
			{
				"constant": true,
				"inputs": [
					{
						"internalType": "address",
						"name": "",
						"type": "address"
					}
				],
				"name": "validExchanges",
				"outputs": [
					{
						"internalType": "bool",
						"name": "",
						"type": "bool"
					}
				],
				"payable": false,
				"stateMutability": "view",
				"type": "function"
			},
			{
				"constant": true,
				"inputs": [],
				"name": "wethReservedForPoolRewards",
				"outputs": [
					{
						"internalType": "uint256",
						"name": "",
						"type": "uint256"
					}
				],
				"payable": false,
				"stateMutability": "view",
				"type": "function"
			}
		],
		"devdoc": {
			"methods": {
				"addAuthorizedAddress(address)": {
					"details": "Authorizes an address.",
					"params": {
						"target": "Address to authorize."
					}
				},
				"assertValidStorageParams()": {
					"details": "Asserts that an epoch is between 5 and 30 days long."
				},
				"attachStakingContract(address)": {
					"details": "Attach a staking contract; future calls will be delegated to the staking contract. Note that this is callable only by an authorized address.",
					"params": {
						"_stakingContract": "Address of staking contract."
					}
				},
				"batchExecute(bytes[])": {
					"details": "Batch executes a series of calls to the staking contract.",
					"params": {
						"data": "An array of data that encodes a sequence of functions to             call in the staking contracts."
					}
				},
				"constructor": {
					"details": "Constructor.",
					"params": {
						"_stakingContract": "Staking contract to delegate calls to."
					}
				},
				"detachStakingContract()": {
					"details": "Detach the current staking contract. Note that this is callable only by an authorized address."
				},
				"getAuthorizedAddresses()": {
					"details": "Gets all authorized addresses.",
					"return": "Array of authorized addresses."
				},
				"removeAuthorizedAddress(address)": {
					"details": "Removes authorizion of an address.",
					"params": {
						"target": "Address to remove authorization from."
					}
				},
				"removeAuthorizedAddressAtIndex(address,uint256)": {
					"details": "Removes authorizion of an address.",
					"params": {
						"index": "Index of target in authorities array.",
						"target": "Address to remove authorization from."
					}
				}
			}
		},
		"evm": {
			"bytecode": {
				"linkReferences": {},
				"object": "0x60806040523480156200001157600080fd5b5060405162001ee938038062001ee983398101604081905262000034916200071a565b600080546001600160a01b031916339081179091556200005d906001600160e01b036200008e16565b62000071816001600160e01b036200019116565b620000873360006001600160e01b03620002b716565b50620007d0565b6001600160a01b038116620000c757620000c7620000b66200046060201b620012bd1760201c565b6200049860201b62000efc1760201c565b6001600160a01b03811660009081526001602052604090205460ff1615620001035762000103620000b682620004a060201b620012f41760201c565b6001600160a01b0381166000818152600160208190526040808320805460ff19168317905560028054928301815583527f405787fa12a823e0f2b7631cc41b3ba8828b3321ca811111fa75cd3aa3bb5ace90910180546001600160a01b03191684179055513392917f3147867c59d17e8fa9d522465651d44aae0a9e38f902f3475b97e58072f0ed4c91a350565b600380546001600160a01b0319166001600160a01b0383161790556040517f048368388f801041f7690185c4e28b6f3505c740c47be8ac104b55df666bfc8490620001de90839062000786565b60405180910390a160035460408051600481526024810182526020810180516001600160e01b03167fe1c7392a0000000000000000000000000000000000000000000000000000000017905290516000926060926001600160a01b03909116916200024a91906200074a565b600060405180830381855af49150503d806000811462000287576040519150601f19603f3d011682016040523d82523d6000602084013e6200028c565b606091505b5091509150816200029f57805160208201fd5b620002b26001600160e01b036200050e16565b505050565b6001600160a01b03821660009081526001602052604090205460ff16620002f257620002f2620000b683620005e960201b62000e5d1760201c565b60025481106200031c576200031c620000b6826002805490506200060660201b6200130f1760201c565b816001600160a01b0316600282815481106200033457fe5b6000918252602090912001546001600160a01b0316146200038d576200038d620000b6600283815481106200036557fe5b600091825260209182902001546001600160a01b03169085906200132c62000677821b17901c565b6001600160a01b0382166000908152600160205260409020805460ff19169055600280546000198101908110620003c057fe5b600091825260209091200154600280546001600160a01b039092169183908110620003e757fe5b600091825260209091200180546001600160a01b0319166001600160a01b0392909216919091179055600280546000190190620004259082620006d8565b5060405133906001600160a01b038416907f1f32c1b084e2de0713b8fb16bd46bb9df710a3dbeae2f3ca93af46e016dcc6b090600090a35050565b60408051808201909152600481527f57654fe40000000000000000000000000000000000000000000000000000000060208201525b90565b805160208201fd5b606063de16f1a060e01b82604051602401620004bd919062000786565b60408051601f198184030181529190526020810180516001600160e01b03167fffffffff00000000000000000000000000000000000000000000000000000000909316929092179091529050919050565b6011546206978081108062000525575062278d0081115b15620005465762000546620000b660046200069660201b6200118a1760201c565b60145463ffffffff6401000000008204811691168110806200056c575063ffffffff8116155b156200058d576200058d620000b660006200069660201b6200118a1760201c565b601254620f424063ffffffff9091161115620005be57620005be620000b660016200069660201b6200118a1760201c565b60026013541015620005e557620005e5620000b660036200069660201b6200118a1760201c565b5050565b606063eb5108a260e01b82604051602401620004bd919062000786565b606063e9f8377160e01b838360405160240162000625929190620007b4565b60408051601f198184030181529190526020810180516001600160e01b03167fffffffff0000000000000000000000000000000000000000000000000000000090931692909217909152905092915050565b606063140a84db60e01b8383604051602401620006259291906200079a565b60607ffc45bd1100000000000000000000000000000000000000000000000000000000826004811115620006c657fe5b604051602401620004bd9190620007c2565b815481835581811115620002b257600083815260209020620002b29181019083016200049591905b8082111562000716576000815560010162000700565b5090565b6000602082840312156200072c578081fd5b81516001600160a01b038116811462000743578182fd5b9392505050565b60008251815b818110156200076c576020818601810151858301520162000750565b818111156200077b5782828501525b509190910192915050565b6001600160a01b0391909116815260200190565b6001600160a01b0392831681529116602082015260400190565b918252602082015260400190565b60ff91909116815260200190565b61170980620007e06000396000f3fe6080604052600436106101ac5760003560e01c80638da5cb5b116100ec578063c6f3a4271161008a578063e8eeb3f811610064578063e8eeb3f814610511578063ee99205c14610526578063f18765321461053b578063f2fde38b1461055b576101ac565b8063c6f3a427146104c5578063d39de6e9146104da578063e0ee036e146104fc576101ac565b8063a657e579116100c6578063a657e5791461045b578063b053152414610470578063b918161114610485578063c18c9141146104a5576101ac565b80638da5cb5b146104115780639ad2674414610426578063a26171e214610446576101ac565b80635bd4ab73116101595780637071293911610133578063707129391461038d57806376671808146103ad57806381666796146103c2578063856a65eb146103e4576101ac565b80635bd4ab731461032b578063634038011461035857806366615d561461036d576101ac565b806342f1181e1161018a57806342f1181e146102bc578063494503d4146102dc578063587da02314610309576101ac565b80632a94c2791461023c57806337b006a61461027457806338229d931461028b575b60035460405160009160609173ffffffffffffffffffffffffffffffffffffffff909116906101de908490369061149b565b600060405180830381855af49150503d8060008114610219576040519150601f19603f3d011682016040523d82523d6000602084013e61021e565b606091505b5091509150816000811461023457815182602001f35b815182602001fd5b34801561024857600080fd5b5061025c61025736600461147a565b61057b565b60405161026b9392919061163e565b60405180910390f35b34801561028057600080fd5b506102896105a7565b005b34801561029757600080fd5b506102ab6102a6366004611462565b610602565b60405161026b959493929190611654565b3480156102c857600080fd5b506102896102d73660046113aa565b610631565b3480156102e857600080fd5b506102fc6102f7366004611462565b610645565b60405161026b91906114c7565b34801561031557600080fd5b5061031e610679565b60405161026b9190611627565b34801561033757600080fd5b5061034b6103463660046113aa565b61067f565b60405161026b919061161c565b34801561036457600080fd5b5061031e610694565b34801561037957600080fd5b506102896103883660046113aa565b61069a565b34801561039957600080fd5b506102896103a83660046113aa565b6106ab565b3480156103b957600080fd5b5061031e610765565b3480156103ce57600080fd5b506103d761076b565b60405161026b9190611677565b3480156103f057600080fd5b506104046103ff3660046113f6565b610777565b60405161026b9190611568565b34801561041d57600080fd5b506102fc610904565b34801561043257600080fd5b506102896104413660046113cc565b610920565b34801561045257600080fd5b5061031e610932565b34801561046757600080fd5b5061031e610938565b34801561047c57600080fd5b5061031e61093e565b34801561049157600080fd5b5061034b6104a03660046113aa565b610944565b3480156104b157600080fd5b5061031e6104c0366004611462565b610959565b3480156104d157600080fd5b5061028961096b565b3480156104e657600080fd5b506104ef610a04565b60405161026b919061150f565b34801561050857600080fd5b506103d7610a74565b34801561051d57600080fd5b506103d7610a80565b34801561053257600080fd5b506102fc610a94565b34801561054757600080fd5b5061031e6105563660046113aa565b610ab0565b34801561056757600080fd5b506102896105763660046113aa565b610ac2565b601560209081526000928352604080842090915290825290208054600182015460029092015490919083565b6105af610b65565b600380547fffffffffffffffffffffffff00000000000000000000000000000000000000001690556040517f6caedcb22a5c22c8ebd0caf751fec1228a6e006e6ee37169321e02d31ecc818390600090a1565b601660205260009081526040902080546001820154600283015460038401546004909401549293919290919085565b610639610b8a565b61064281610bd1565b50565b6002818154811061065257fe5b60009182526020909120015473ffffffffffffffffffffffffffffffffffffffff16905081565b600d5481565b60106020526000908152604090205460ff1681565b60115481565b6106a2610b65565b61064281610d02565b6106b3610b8a565b73ffffffffffffffffffffffffffffffffffffffff811660009081526001602052604090205460ff166106f1576106f16106ec82610e5d565b610efc565b60005b600254811015610761578173ffffffffffffffffffffffffffffffffffffffff166002828154811061072257fe5b60009182526020909120015473ffffffffffffffffffffffffffffffffffffffff161415610759576107548282610f04565b610761565b6001016106f4565b5050565b600c5481565b60145463ffffffff1681565b604080518281526020808402820101909152606090600090829084908180156107b457816020015b606081526020019060019003908161079f5790505b5060035490945073ffffffffffffffffffffffffffffffffffffffff16806107e1576107e16106ec611153565b60005b8281146108f8578173ffffffffffffffffffffffffffffffffffffffff1688888381811061080e57fe5b6020028201905080357fffffffffffffffffffffffffffffffffffffffffffffffffffffffffffffffe13684900301811261084857600080fd5b9091016020810191503567ffffffffffffffff81111561086757600080fd5b3681900382131561087757600080fd5b60405161088592919061149b565b600060405180830381855af49150503d80600081146108c0576040519150601f19603f3d011682016040523d82523d6000602084013e6108c5565b606091505b509095509350846108d857835184602001fd5b838682815181106108e557fe5b60209081029190910101526001016107e4565b50505050505b92915050565b60005473ffffffffffffffffffffffffffffffffffffffff1681565b610928610b8a565b6107618282610f04565b60135481565b60085481565b60175481565b60016020526000908152604090205460ff1681565b600b6020526000908152604090205481565b60115462069780811080610981575062278d0081115b15610993576109936106ec600461118a565b60145463ffffffff6401000000008204811691168110806109b8575063ffffffff8116155b156109ca576109ca6106ec600061118a565b601254620f424063ffffffff90911611156109ec576109ec6106ec600161118a565b60026013541015610761576107616106ec600361118a565b60606002805480602002602001604051908101604052809291908181526020018280548015610a6957602002820191906000526020600020905b815473ffffffffffffffffffffffffffffffffffffffff168152600190910190602001808311610a3e575b505050505090505b90565b60125463ffffffff1681565b601454640100000000900463ffffffff1681565b60035473ffffffffffffffffffffffffffffffffffffffff1681565b60096020526000908152604090205481565b610aca610b8a565b73ffffffffffffffffffffffffffffffffffffffff8116610af557610af06106ec6111c9565b610642565b600080547fffffffffffffffffffffffff00000000000000000000000000000000000000001673ffffffffffffffffffffffffffffffffffffffff83169081178255604051909133917f8be0079c531659141344cd1fd0a4f28419497f9722a3daafe3b4186f6b6457e09190a350565b3360009081526001602052604090205460ff16610b8857610b886106ec33611200565b565b60005473ffffffffffffffffffffffffffffffffffffffff163314610b8857600054610b88906106ec90339073ffffffffffffffffffffffffffffffffffffffff1661121b565b73ffffffffffffffffffffffffffffffffffffffff8116610bf757610bf76106ec6112bd565b73ffffffffffffffffffffffffffffffffffffffff811660009081526001602052604090205460ff1615610c3157610c316106ec826112f4565b73ffffffffffffffffffffffffffffffffffffffff8116600081815260016020819052604080832080547fffffffffffffffffffffffffffffffffffffffffffffffffffffffffffffff00168317905560028054928301815583527f405787fa12a823e0f2b7631cc41b3ba8828b3321ca811111fa75cd3aa3bb5ace90910180547fffffffffffffffffffffffff00000000000000000000000000000000000000001684179055513392917f3147867c59d17e8fa9d522465651d44aae0a9e38f902f3475b97e58072f0ed4c91a350565b600380547fffffffffffffffffffffffff00000000000000000000000000000000000000001673ffffffffffffffffffffffffffffffffffffffff83161790556040517f048368388f801041f7690185c4e28b6f3505c740c47be8ac104b55df666bfc8490610d729083906114c7565b60405180910390a160035460408051600481526024810182526020810180517bffffffffffffffffffffffffffffffffffffffffffffffffffffffff167fe1c7392a00000000000000000000000000000000000000000000000000000000179052905160009260609273ffffffffffffffffffffffffffffffffffffffff90911691610dfe91906114ab565b600060405180830381855af49150503d8060008114610e39576040519150601f19603f3d011682016040523d82523d6000602084013e610e3e565b606091505b509150915081610e5057805160208201fd5b610e5861096b565b505050565b606063eb5108a260e01b82604051602401610e7891906114c7565b604080517fffffffffffffffffffffffffffffffffffffffffffffffffffffffffffffffe08184030181529190526020810180517bffffffffffffffffffffffffffffffffffffffffffffffffffffffff167fffffffff00000000000000000000000000000000000000000000000000000000909316929092179091529050919050565b805160208201fd5b73ffffffffffffffffffffffffffffffffffffffff821660009081526001602052604090205460ff16610f3d57610f3d6106ec83610e5d565b6002548110610f5857610f586106ec8260028054905061130f565b8173ffffffffffffffffffffffffffffffffffffffff1660028281548110610f7c57fe5b60009182526020909120015473ffffffffffffffffffffffffffffffffffffffff1614610fde57610fde6106ec60028381548110610fb657fe5b60009182526020909120015473ffffffffffffffffffffffffffffffffffffffff168461132c565b73ffffffffffffffffffffffffffffffffffffffff8216600090815260016020526040902080547fffffffffffffffffffffffffffffffffffffffffffffffffffffffffffffff00169055600280547fffffffffffffffffffffffffffffffffffffffffffffffffffffffffffffffff810190811061105957fe5b6000918252602090912001546002805473ffffffffffffffffffffffffffffffffffffffff909216918390811061108c57fe5b600091825260209091200180547fffffffffffffffffffffffff00000000000000000000000000000000000000001673ffffffffffffffffffffffffffffffffffffffff92909216919091179055600280547fffffffffffffffffffffffffffffffffffffffffffffffffffffffffffffffff019061110b9082611349565b50604051339073ffffffffffffffffffffffffffffffffffffffff8416907f1f32c1b084e2de0713b8fb16bd46bb9df710a3dbeae2f3ca93af46e016dcc6b090600090a35050565b60408051808201909152600481527f6eff828500000000000000000000000000000000000000000000000000000000602082015290565b60607ffc45bd11000000000000000000000000000000000000000000000000000000008260048111156111b957fe5b604051602401610e789190611688565b60408051808201909152600481527fe69edc3e00000000000000000000000000000000000000000000000000000000602082015290565b606063b65a25b960e01b82604051602401610e7891906114c7565b6060631de45ad160e01b83836040516024016112389291906114e8565b604080517fffffffffffffffffffffffffffffffffffffffffffffffffffffffffffffffe08184030181529190526020810180517bffffffffffffffffffffffffffffffffffffffffffffffffffffffff167fffffffff0000000000000000000000000000000000000000000000000000000090931692909217909152905092915050565b60408051808201909152600481527f57654fe400000000000000000000000000000000000000000000000000000000602082015290565b606063de16f1a060e01b82604051602401610e7891906114c7565b606063e9f8377160e01b8383604051602401611238929190611630565b606063140a84db60e01b83836040516024016112389291906114e8565b815481835581811115610e5857600083815260209020610e58918101908301610a7191905b80821115611382576000815560010161136e565b5090565b803573ffffffffffffffffffffffffffffffffffffffff811681146108fe57600080fd5b6000602082840312156113bb578081fd5b6113c58383611386565b9392505050565b600080604083850312156113de578081fd5b6113e88484611386565b946020939093013593505050565b60008060208385031215611408578182fd5b823567ffffffffffffffff8082111561141f578384fd5b81850186601f820112611430578485fd5b8035925081831115611440578485fd5b8660208085028301011115611453578485fd5b60200196919550909350505050565b600060208284031215611473578081fd5b5035919050565b6000806040838503121561148c578182fd5b50508035926020909101359150565b6000828483379101908152919050565b600082516114bd818460208701611696565b9190910192915050565b73ffffffffffffffffffffffffffffffffffffffff91909116815260200190565b73ffffffffffffffffffffffffffffffffffffffff92831681529116602082015260400190565b602080825282518282018190526000918401906040840190835b8181101561155d57835173ffffffffffffffffffffffffffffffffffffffff16835260209384019390920191600101611529565b509095945050505050565b6000602080830181845280855180835260408601915060408482028701019250838701855b8281101561160f577fffffffffffffffffffffffffffffffffffffffffffffffffffffffffffffffc0888603018452815180518087526115d2818989018a8501611696565b601f017fffffffffffffffffffffffffffffffffffffffffffffffffffffffffffffffe0169590950186019450928501929085019060010161158d565b5092979650505050505050565b901515815260200190565b90815260200190565b918252602082015260400190565b9283526020830191909152604082015260600190565b948552602085019390935260408401919091526060830152608082015260a00190565b63ffffffff91909116815260200190565b60ff91909116815260200190565b60005b838110156116b1578181015183820152602001611699565b838111156116c0576000848401525b5050505056fea365627a7a72315820234dbfb1979e729e4b90ba58749ef12a931b7df77beb672b5d45d410d232fff36c6578706572696d656e74616cf564736f6c634300050c0040",
				"opcodes": "PUSH1 0x80 PUSH1 0x40 MSTORE CALLVALUE DUP1 ISZERO PUSH3 0x11 JUMPI PUSH1 0x0 DUP1 REVERT JUMPDEST POP PUSH1 0x40 MLOAD PUSH3 0x1EE9 CODESIZE SUB DUP1 PUSH3 0x1EE9 DUP4 CODECOPY DUP2 ADD PUSH1 0x40 DUP2 SWAP1 MSTORE PUSH3 0x34 SWAP2 PUSH3 0x71A JUMP JUMPDEST PUSH1 0x0 DUP1 SLOAD PUSH1 0x1 PUSH1 0x1 PUSH1 0xA0 SHL SUB NOT AND CALLER SWAP1 DUP2 OR SWAP1 SWAP2 SSTORE PUSH3 0x5D SWAP1 PUSH1 0x1 PUSH1 0x1 PUSH1 0xE0 SHL SUB PUSH3 0x8E AND JUMP JUMPDEST PUSH3 0x71 DUP2 PUSH1 0x1 PUSH1 0x1 PUSH1 0xE0 SHL SUB PUSH3 0x191 AND JUMP JUMPDEST PUSH3 0x87 CALLER PUSH1 0x0 PUSH1 0x1 PUSH1 0x1 PUSH1 0xE0 SHL SUB PUSH3 0x2B7 AND JUMP JUMPDEST POP PUSH3 0x7D0 JUMP JUMPDEST PUSH1 0x1 PUSH1 0x1 PUSH1 0xA0 SHL SUB DUP2 AND PUSH3 0xC7 JUMPI PUSH3 0xC7 PUSH3 0xB6 PUSH3 0x460 PUSH1 0x20 SHL PUSH3 0x12BD OR PUSH1 0x20 SHR JUMP JUMPDEST PUSH3 0x498 PUSH1 0x20 SHL PUSH3 0xEFC OR PUSH1 0x20 SHR JUMP JUMPDEST PUSH1 0x1 PUSH1 0x1 PUSH1 0xA0 SHL SUB DUP2 AND PUSH1 0x0 SWAP1 DUP2 MSTORE PUSH1 0x1 PUSH1 0x20 MSTORE PUSH1 0x40 SWAP1 KECCAK256 SLOAD PUSH1 0xFF AND ISZERO PUSH3 0x103 JUMPI PUSH3 0x103 PUSH3 0xB6 DUP3 PUSH3 0x4A0 PUSH1 0x20 SHL PUSH3 0x12F4 OR PUSH1 0x20 SHR JUMP JUMPDEST PUSH1 0x1 PUSH1 0x1 PUSH1 0xA0 SHL SUB DUP2 AND PUSH1 0x0 DUP2 DUP2 MSTORE PUSH1 0x1 PUSH1 0x20 DUP2 SWAP1 MSTORE PUSH1 0x40 DUP1 DUP4 KECCAK256 DUP1 SLOAD PUSH1 0xFF NOT AND DUP4 OR SWAP1 SSTORE PUSH1 0x2 DUP1 SLOAD SWAP3 DUP4 ADD DUP2 SSTORE DUP4 MSTORE PUSH32 0x405787FA12A823E0F2B7631CC41B3BA8828B3321CA811111FA75CD3AA3BB5ACE SWAP1 SWAP2 ADD DUP1 SLOAD PUSH1 0x1 PUSH1 0x1 PUSH1 0xA0 SHL SUB NOT AND DUP5 OR SWAP1 SSTORE MLOAD CALLER SWAP3 SWAP2 PUSH32 0x3147867C59D17E8FA9D522465651D44AAE0A9E38F902F3475B97E58072F0ED4C SWAP2 LOG3 POP JUMP JUMPDEST PUSH1 0x3 DUP1 SLOAD PUSH1 0x1 PUSH1 0x1 PUSH1 0xA0 SHL SUB NOT AND PUSH1 0x1 PUSH1 0x1 PUSH1 0xA0 SHL SUB DUP4 AND OR SWAP1 SSTORE PUSH1 0x40 MLOAD PUSH32 0x48368388F801041F7690185C4E28B6F3505C740C47BE8AC104B55DF666BFC84 SWAP1 PUSH3 0x1DE SWAP1 DUP4 SWAP1 PUSH3 0x786 JUMP JUMPDEST PUSH1 0x40 MLOAD DUP1 SWAP2 SUB SWAP1 LOG1 PUSH1 0x3 SLOAD PUSH1 0x40 DUP1 MLOAD PUSH1 0x4 DUP2 MSTORE PUSH1 0x24 DUP2 ADD DUP3 MSTORE PUSH1 0x20 DUP2 ADD DUP1 MLOAD PUSH1 0x1 PUSH1 0x1 PUSH1 0xE0 SHL SUB AND PUSH32 0xE1C7392A00000000000000000000000000000000000000000000000000000000 OR SWAP1 MSTORE SWAP1 MLOAD PUSH1 0x0 SWAP3 PUSH1 0x60 SWAP3 PUSH1 0x1 PUSH1 0x1 PUSH1 0xA0 SHL SUB SWAP1 SWAP2 AND SWAP2 PUSH3 0x24A SWAP2 SWAP1 PUSH3 0x74A JUMP JUMPDEST PUSH1 0x0 PUSH1 0x40 MLOAD DUP1 DUP4 SUB DUP2 DUP6 GAS DELEGATECALL SWAP2 POP POP RETURNDATASIZE DUP1 PUSH1 0x0 DUP2 EQ PUSH3 0x287 JUMPI PUSH1 0x40 MLOAD SWAP2 POP PUSH1 0x1F NOT PUSH1 0x3F RETURNDATASIZE ADD AND DUP3 ADD PUSH1 0x40 MSTORE RETURNDATASIZE DUP3 MSTORE RETURNDATASIZE PUSH1 0x0 PUSH1 0x20 DUP5 ADD RETURNDATACOPY PUSH3 0x28C JUMP JUMPDEST PUSH1 0x60 SWAP2 POP JUMPDEST POP SWAP2 POP SWAP2 POP DUP2 PUSH3 0x29F JUMPI DUP1 MLOAD PUSH1 0x20 DUP3 ADD REVERT JUMPDEST PUSH3 0x2B2 PUSH1 0x1 PUSH1 0x1 PUSH1 0xE0 SHL SUB PUSH3 0x50E AND JUMP JUMPDEST POP POP POP JUMP JUMPDEST PUSH1 0x1 PUSH1 0x1 PUSH1 0xA0 SHL SUB DUP3 AND PUSH1 0x0 SWAP1 DUP2 MSTORE PUSH1 0x1 PUSH1 0x20 MSTORE PUSH1 0x40 SWAP1 KECCAK256 SLOAD PUSH1 0xFF AND PUSH3 0x2F2 JUMPI PUSH3 0x2F2 PUSH3 0xB6 DUP4 PUSH3 0x5E9 PUSH1 0x20 SHL PUSH3 0xE5D OR PUSH1 0x20 SHR JUMP JUMPDEST PUSH1 0x2 SLOAD DUP2 LT PUSH3 0x31C JUMPI PUSH3 0x31C PUSH3 0xB6 DUP3 PUSH1 0x2 DUP1 SLOAD SWAP1 POP PUSH3 0x606 PUSH1 0x20 SHL PUSH3 0x130F OR PUSH1 0x20 SHR JUMP JUMPDEST DUP2 PUSH1 0x1 PUSH1 0x1 PUSH1 0xA0 SHL SUB AND PUSH1 0x2 DUP3 DUP2 SLOAD DUP2 LT PUSH3 0x334 JUMPI INVALID JUMPDEST PUSH1 0x0 SWAP2 DUP3 MSTORE PUSH1 0x20 SWAP1 SWAP2 KECCAK256 ADD SLOAD PUSH1 0x1 PUSH1 0x1 PUSH1 0xA0 SHL SUB AND EQ PUSH3 0x38D JUMPI PUSH3 0x38D PUSH3 0xB6 PUSH1 0x2 DUP4 DUP2 SLOAD DUP2 LT PUSH3 0x365 JUMPI INVALID JUMPDEST PUSH1 0x0 SWAP2 DUP3 MSTORE PUSH1 0x20 SWAP2 DUP3 SWAP1 KECCAK256 ADD SLOAD PUSH1 0x1 PUSH1 0x1 PUSH1 0xA0 SHL SUB AND SWAP1 DUP6 SWAP1 PUSH3 0x132C PUSH3 0x677 DUP3 SHL OR SWAP1 SHR JUMP JUMPDEST PUSH1 0x1 PUSH1 0x1 PUSH1 0xA0 SHL SUB DUP3 AND PUSH1 0x0 SWAP1 DUP2 MSTORE PUSH1 0x1 PUSH1 0x20 MSTORE PUSH1 0x40 SWAP1 KECCAK256 DUP1 SLOAD PUSH1 0xFF NOT AND SWAP1 SSTORE PUSH1 0x2 DUP1 SLOAD PUSH1 0x0 NOT DUP2 ADD SWAP1 DUP2 LT PUSH3 0x3C0 JUMPI INVALID JUMPDEST PUSH1 0x0 SWAP2 DUP3 MSTORE PUSH1 0x20 SWAP1 SWAP2 KECCAK256 ADD SLOAD PUSH1 0x2 DUP1 SLOAD PUSH1 0x1 PUSH1 0x1 PUSH1 0xA0 SHL SUB SWAP1 SWAP3 AND SWAP2 DUP4 SWAP1 DUP2 LT PUSH3 0x3E7 JUMPI INVALID JUMPDEST PUSH1 0x0 SWAP2 DUP3 MSTORE PUSH1 0x20 SWAP1 SWAP2 KECCAK256 ADD DUP1 SLOAD PUSH1 0x1 PUSH1 0x1 PUSH1 0xA0 SHL SUB NOT AND PUSH1 0x1 PUSH1 0x1 PUSH1 0xA0 SHL SUB SWAP3 SWAP1 SWAP3 AND SWAP2 SWAP1 SWAP2 OR SWAP1 SSTORE PUSH1 0x2 DUP1 SLOAD PUSH1 0x0 NOT ADD SWAP1 PUSH3 0x425 SWAP1 DUP3 PUSH3 0x6D8 JUMP JUMPDEST POP PUSH1 0x40 MLOAD CALLER SWAP1 PUSH1 0x1 PUSH1 0x1 PUSH1 0xA0 SHL SUB DUP5 AND SWAP1 PUSH32 0x1F32C1B084E2DE0713B8FB16BD46BB9DF710A3DBEAE2F3CA93AF46E016DCC6B0 SWAP1 PUSH1 0x0 SWAP1 LOG3 POP POP JUMP JUMPDEST PUSH1 0x40 DUP1 MLOAD DUP1 DUP3 ADD SWAP1 SWAP2 MSTORE PUSH1 0x4 DUP2 MSTORE PUSH32 0x57654FE400000000000000000000000000000000000000000000000000000000 PUSH1 0x20 DUP3 ADD MSTORE JUMPDEST SWAP1 JUMP JUMPDEST DUP1 MLOAD PUSH1 0x20 DUP3 ADD REVERT JUMPDEST PUSH1 0x60 PUSH4 0xDE16F1A0 PUSH1 0xE0 SHL DUP3 PUSH1 0x40 MLOAD PUSH1 0x24 ADD PUSH3 0x4BD SWAP2 SWAP1 PUSH3 0x786 JUMP JUMPDEST PUSH1 0x40 DUP1 MLOAD PUSH1 0x1F NOT DUP2 DUP5 SUB ADD DUP2 MSTORE SWAP2 SWAP1 MSTORE PUSH1 0x20 DUP2 ADD DUP1 MLOAD PUSH1 0x1 PUSH1 0x1 PUSH1 0xE0 SHL SUB AND PUSH32 0xFFFFFFFF00000000000000000000000000000000000000000000000000000000 SWAP1 SWAP4 AND SWAP3 SWAP1 SWAP3 OR SWAP1 SWAP2 MSTORE SWAP1 POP SWAP2 SWAP1 POP JUMP JUMPDEST PUSH1 0x11 SLOAD PUSH3 0x69780 DUP2 LT DUP1 PUSH3 0x525 JUMPI POP PUSH3 0x278D00 DUP2 GT JUMPDEST ISZERO PUSH3 0x546 JUMPI PUSH3 0x546 PUSH3 0xB6 PUSH1 0x4 PUSH3 0x696 PUSH1 0x20 SHL PUSH3 0x118A OR PUSH1 0x20 SHR JUMP JUMPDEST PUSH1 0x14 SLOAD PUSH4 0xFFFFFFFF PUSH5 0x100000000 DUP3 DIV DUP2 AND SWAP2 AND DUP2 LT DUP1 PUSH3 0x56C JUMPI POP PUSH4 0xFFFFFFFF DUP2 AND ISZERO JUMPDEST ISZERO PUSH3 0x58D JUMPI PUSH3 0x58D PUSH3 0xB6 PUSH1 0x0 PUSH3 0x696 PUSH1 0x20 SHL PUSH3 0x118A OR PUSH1 0x20 SHR JUMP JUMPDEST PUSH1 0x12 SLOAD PUSH3 0xF4240 PUSH4 0xFFFFFFFF SWAP1 SWAP2 AND GT ISZERO PUSH3 0x5BE JUMPI PUSH3 0x5BE PUSH3 0xB6 PUSH1 0x1 PUSH3 0x696 PUSH1 0x20 SHL PUSH3 0x118A OR PUSH1 0x20 SHR JUMP JUMPDEST PUSH1 0x2 PUSH1 0x13 SLOAD LT ISZERO PUSH3 0x5E5 JUMPI PUSH3 0x5E5 PUSH3 0xB6 PUSH1 0x3 PUSH3 0x696 PUSH1 0x20 SHL PUSH3 0x118A OR PUSH1 0x20 SHR JUMP JUMPDEST POP POP JUMP JUMPDEST PUSH1 0x60 PUSH4 0xEB5108A2 PUSH1 0xE0 SHL DUP3 PUSH1 0x40 MLOAD PUSH1 0x24 ADD PUSH3 0x4BD SWAP2 SWAP1 PUSH3 0x786 JUMP JUMPDEST PUSH1 0x60 PUSH4 0xE9F83771 PUSH1 0xE0 SHL DUP4 DUP4 PUSH1 0x40 MLOAD PUSH1 0x24 ADD PUSH3 0x625 SWAP3 SWAP2 SWAP1 PUSH3 0x7B4 JUMP JUMPDEST PUSH1 0x40 DUP1 MLOAD PUSH1 0x1F NOT DUP2 DUP5 SUB ADD DUP2 MSTORE SWAP2 SWAP1 MSTORE PUSH1 0x20 DUP2 ADD DUP1 MLOAD PUSH1 0x1 PUSH1 0x1 PUSH1 0xE0 SHL SUB AND PUSH32 0xFFFFFFFF00000000000000000000000000000000000000000000000000000000 SWAP1 SWAP4 AND SWAP3 SWAP1 SWAP3 OR SWAP1 SWAP2 MSTORE SWAP1 POP SWAP3 SWAP2 POP POP JUMP JUMPDEST PUSH1 0x60 PUSH4 0x140A84DB PUSH1 0xE0 SHL DUP4 DUP4 PUSH1 0x40 MLOAD PUSH1 0x24 ADD PUSH3 0x625 SWAP3 SWAP2 SWAP1 PUSH3 0x79A JUMP JUMPDEST PUSH1 0x60 PUSH32 0xFC45BD1100000000000000000000000000000000000000000000000000000000 DUP3 PUSH1 0x4 DUP2 GT ISZERO PUSH3 0x6C6 JUMPI INVALID JUMPDEST PUSH1 0x40 MLOAD PUSH1 0x24 ADD PUSH3 0x4BD SWAP2 SWAP1 PUSH3 0x7C2 JUMP JUMPDEST DUP2 SLOAD DUP2 DUP4 SSTORE DUP2 DUP2 GT ISZERO PUSH3 0x2B2 JUMPI PUSH1 0x0 DUP4 DUP2 MSTORE PUSH1 0x20 SWAP1 KECCAK256 PUSH3 0x2B2 SWAP2 DUP2 ADD SWAP1 DUP4 ADD PUSH3 0x495 SWAP2 SWAP1 JUMPDEST DUP1 DUP3 GT ISZERO PUSH3 0x716 JUMPI PUSH1 0x0 DUP2 SSTORE PUSH1 0x1 ADD PUSH3 0x700 JUMP JUMPDEST POP SWAP1 JUMP JUMPDEST PUSH1 0x0 PUSH1 0x20 DUP3 DUP5 SUB SLT ISZERO PUSH3 0x72C JUMPI DUP1 DUP2 REVERT JUMPDEST DUP2 MLOAD PUSH1 0x1 PUSH1 0x1 PUSH1 0xA0 SHL SUB DUP2 AND DUP2 EQ PUSH3 0x743 JUMPI DUP2 DUP3 REVERT JUMPDEST SWAP4 SWAP3 POP POP POP JUMP JUMPDEST PUSH1 0x0 DUP3 MLOAD DUP2 JUMPDEST DUP2 DUP2 LT ISZERO PUSH3 0x76C JUMPI PUSH1 0x20 DUP2 DUP7 ADD DUP2 ADD MLOAD DUP6 DUP4 ADD MSTORE ADD PUSH3 0x750 JUMP JUMPDEST DUP2 DUP2 GT ISZERO PUSH3 0x77B JUMPI DUP3 DUP3 DUP6 ADD MSTORE JUMPDEST POP SWAP2 SWAP1 SWAP2 ADD SWAP3 SWAP2 POP POP JUMP JUMPDEST PUSH1 0x1 PUSH1 0x1 PUSH1 0xA0 SHL SUB SWAP2 SWAP1 SWAP2 AND DUP2 MSTORE PUSH1 0x20 ADD SWAP1 JUMP JUMPDEST PUSH1 0x1 PUSH1 0x1 PUSH1 0xA0 SHL SUB SWAP3 DUP4 AND DUP2 MSTORE SWAP2 AND PUSH1 0x20 DUP3 ADD MSTORE PUSH1 0x40 ADD SWAP1 JUMP JUMPDEST SWAP2 DUP3 MSTORE PUSH1 0x20 DUP3 ADD MSTORE PUSH1 0x40 ADD SWAP1 JUMP JUMPDEST PUSH1 0xFF SWAP2 SWAP1 SWAP2 AND DUP2 MSTORE PUSH1 0x20 ADD SWAP1 JUMP JUMPDEST PUSH2 0x1709 DUP1 PUSH3 0x7E0 PUSH1 0x0 CODECOPY PUSH1 0x0 RETURN INVALID PUSH1 0x80 PUSH1 0x40 MSTORE PUSH1 0x4 CALLDATASIZE LT PUSH2 0x1AC JUMPI PUSH1 0x0 CALLDATALOAD PUSH1 0xE0 SHR DUP1 PUSH4 0x8DA5CB5B GT PUSH2 0xEC JUMPI DUP1 PUSH4 0xC6F3A427 GT PUSH2 0x8A JUMPI DUP1 PUSH4 0xE8EEB3F8 GT PUSH2 0x64 JUMPI DUP1 PUSH4 0xE8EEB3F8 EQ PUSH2 0x511 JUMPI DUP1 PUSH4 0xEE99205C EQ PUSH2 0x526 JUMPI DUP1 PUSH4 0xF1876532 EQ PUSH2 0x53B JUMPI DUP1 PUSH4 0xF2FDE38B EQ PUSH2 0x55B JUMPI PUSH2 0x1AC JUMP JUMPDEST DUP1 PUSH4 0xC6F3A427 EQ PUSH2 0x4C5 JUMPI DUP1 PUSH4 0xD39DE6E9 EQ PUSH2 0x4DA JUMPI DUP1 PUSH4 0xE0EE036E EQ PUSH2 0x4FC JUMPI PUSH2 0x1AC JUMP JUMPDEST DUP1 PUSH4 0xA657E579 GT PUSH2 0xC6 JUMPI DUP1 PUSH4 0xA657E579 EQ PUSH2 0x45B JUMPI DUP1 PUSH4 0xB0531524 EQ PUSH2 0x470 JUMPI DUP1 PUSH4 0xB9181611 EQ PUSH2 0x485 JUMPI DUP1 PUSH4 0xC18C9141 EQ PUSH2 0x4A5 JUMPI PUSH2 0x1AC JUMP JUMPDEST DUP1 PUSH4 0x8DA5CB5B EQ PUSH2 0x411 JUMPI DUP1 PUSH4 0x9AD26744 EQ PUSH2 0x426 JUMPI DUP1 PUSH4 0xA26171E2 EQ PUSH2 0x446 JUMPI PUSH2 0x1AC JUMP JUMPDEST DUP1 PUSH4 0x5BD4AB73 GT PUSH2 0x159 JUMPI DUP1 PUSH4 0x70712939 GT PUSH2 0x133 JUMPI DUP1 PUSH4 0x70712939 EQ PUSH2 0x38D JUMPI DUP1 PUSH4 0x76671808 EQ PUSH2 0x3AD JUMPI DUP1 PUSH4 0x81666796 EQ PUSH2 0x3C2 JUMPI DUP1 PUSH4 0x856A65EB EQ PUSH2 0x3E4 JUMPI PUSH2 0x1AC JUMP JUMPDEST DUP1 PUSH4 0x5BD4AB73 EQ PUSH2 0x32B JUMPI DUP1 PUSH4 0x63403801 EQ PUSH2 0x358 JUMPI DUP1 PUSH4 0x66615D56 EQ PUSH2 0x36D JUMPI PUSH2 0x1AC JUMP JUMPDEST DUP1 PUSH4 0x42F1181E GT PUSH2 0x18A JUMPI DUP1 PUSH4 0x42F1181E EQ PUSH2 0x2BC JUMPI DUP1 PUSH4 0x494503D4 EQ PUSH2 0x2DC JUMPI DUP1 PUSH4 0x587DA023 EQ PUSH2 0x309 JUMPI PUSH2 0x1AC JUMP JUMPDEST DUP1 PUSH4 0x2A94C279 EQ PUSH2 0x23C JUMPI DUP1 PUSH4 0x37B006A6 EQ PUSH2 0x274 JUMPI DUP1 PUSH4 0x38229D93 EQ PUSH2 0x28B JUMPI JUMPDEST PUSH1 0x3 SLOAD PUSH1 0x40 MLOAD PUSH1 0x0 SWAP2 PUSH1 0x60 SWAP2 PUSH20 0xFFFFFFFFFFFFFFFFFFFFFFFFFFFFFFFFFFFFFFFF SWAP1 SWAP2 AND SWAP1 PUSH2 0x1DE SWAP1 DUP5 SWAP1 CALLDATASIZE SWAP1 PUSH2 0x149B JUMP JUMPDEST PUSH1 0x0 PUSH1 0x40 MLOAD DUP1 DUP4 SUB DUP2 DUP6 GAS DELEGATECALL SWAP2 POP POP RETURNDATASIZE DUP1 PUSH1 0x0 DUP2 EQ PUSH2 0x219 JUMPI PUSH1 0x40 MLOAD SWAP2 POP PUSH1 0x1F NOT PUSH1 0x3F RETURNDATASIZE ADD AND DUP3 ADD PUSH1 0x40 MSTORE RETURNDATASIZE DUP3 MSTORE RETURNDATASIZE PUSH1 0x0 PUSH1 0x20 DUP5 ADD RETURNDATACOPY PUSH2 0x21E JUMP JUMPDEST PUSH1 0x60 SWAP2 POP JUMPDEST POP SWAP2 POP SWAP2 POP DUP2 PUSH1 0x0 DUP2 EQ PUSH2 0x234 JUMPI DUP2 MLOAD DUP3 PUSH1 0x20 ADD RETURN JUMPDEST DUP2 MLOAD DUP3 PUSH1 0x20 ADD REVERT JUMPDEST CALLVALUE DUP1 ISZERO PUSH2 0x248 JUMPI PUSH1 0x0 DUP1 REVERT JUMPDEST POP PUSH2 0x25C PUSH2 0x257 CALLDATASIZE PUSH1 0x4 PUSH2 0x147A JUMP JUMPDEST PUSH2 0x57B JUMP JUMPDEST PUSH1 0x40 MLOAD PUSH2 0x26B SWAP4 SWAP3 SWAP2 SWAP1 PUSH2 0x163E JUMP JUMPDEST PUSH1 0x40 MLOAD DUP1 SWAP2 SUB SWAP1 RETURN JUMPDEST CALLVALUE DUP1 ISZERO PUSH2 0x280 JUMPI PUSH1 0x0 DUP1 REVERT JUMPDEST POP PUSH2 0x289 PUSH2 0x5A7 JUMP JUMPDEST STOP JUMPDEST CALLVALUE DUP1 ISZERO PUSH2 0x297 JUMPI PUSH1 0x0 DUP1 REVERT JUMPDEST POP PUSH2 0x2AB PUSH2 0x2A6 CALLDATASIZE PUSH1 0x4 PUSH2 0x1462 JUMP JUMPDEST PUSH2 0x602 JUMP JUMPDEST PUSH1 0x40 MLOAD PUSH2 0x26B SWAP6 SWAP5 SWAP4 SWAP3 SWAP2 SWAP1 PUSH2 0x1654 JUMP JUMPDEST CALLVALUE DUP1 ISZERO PUSH2 0x2C8 JUMPI PUSH1 0x0 DUP1 REVERT JUMPDEST POP PUSH2 0x289 PUSH2 0x2D7 CALLDATASIZE PUSH1 0x4 PUSH2 0x13AA JUMP JUMPDEST PUSH2 0x631 JUMP JUMPDEST CALLVALUE DUP1 ISZERO PUSH2 0x2E8 JUMPI PUSH1 0x0 DUP1 REVERT JUMPDEST POP PUSH2 0x2FC PUSH2 0x2F7 CALLDATASIZE PUSH1 0x4 PUSH2 0x1462 JUMP JUMPDEST PUSH2 0x645 JUMP JUMPDEST PUSH1 0x40 MLOAD PUSH2 0x26B SWAP2 SWAP1 PUSH2 0x14C7 JUMP JUMPDEST CALLVALUE DUP1 ISZERO PUSH2 0x315 JUMPI PUSH1 0x0 DUP1 REVERT JUMPDEST POP PUSH2 0x31E PUSH2 0x679 JUMP JUMPDEST PUSH1 0x40 MLOAD PUSH2 0x26B SWAP2 SWAP1 PUSH2 0x1627 JUMP JUMPDEST CALLVALUE DUP1 ISZERO PUSH2 0x337 JUMPI PUSH1 0x0 DUP1 REVERT JUMPDEST POP PUSH2 0x34B PUSH2 0x346 CALLDATASIZE PUSH1 0x4 PUSH2 0x13AA JUMP JUMPDEST PUSH2 0x67F JUMP JUMPDEST PUSH1 0x40 MLOAD PUSH2 0x26B SWAP2 SWAP1 PUSH2 0x161C JUMP JUMPDEST CALLVALUE DUP1 ISZERO PUSH2 0x364 JUMPI PUSH1 0x0 DUP1 REVERT JUMPDEST POP PUSH2 0x31E PUSH2 0x694 JUMP JUMPDEST CALLVALUE DUP1 ISZERO PUSH2 0x379 JUMPI PUSH1 0x0 DUP1 REVERT JUMPDEST POP PUSH2 0x289 PUSH2 0x388 CALLDATASIZE PUSH1 0x4 PUSH2 0x13AA JUMP JUMPDEST PUSH2 0x69A JUMP JUMPDEST CALLVALUE DUP1 ISZERO PUSH2 0x399 JUMPI PUSH1 0x0 DUP1 REVERT JUMPDEST POP PUSH2 0x289 PUSH2 0x3A8 CALLDATASIZE PUSH1 0x4 PUSH2 0x13AA JUMP JUMPDEST PUSH2 0x6AB JUMP JUMPDEST CALLVALUE DUP1 ISZERO PUSH2 0x3B9 JUMPI PUSH1 0x0 DUP1 REVERT JUMPDEST POP PUSH2 0x31E PUSH2 0x765 JUMP JUMPDEST CALLVALUE DUP1 ISZERO PUSH2 0x3CE JUMPI PUSH1 0x0 DUP1 REVERT JUMPDEST POP PUSH2 0x3D7 PUSH2 0x76B JUMP JUMPDEST PUSH1 0x40 MLOAD PUSH2 0x26B SWAP2 SWAP1 PUSH2 0x1677 JUMP JUMPDEST CALLVALUE DUP1 ISZERO PUSH2 0x3F0 JUMPI PUSH1 0x0 DUP1 REVERT JUMPDEST POP PUSH2 0x404 PUSH2 0x3FF CALLDATASIZE PUSH1 0x4 PUSH2 0x13F6 JUMP JUMPDEST PUSH2 0x777 JUMP JUMPDEST PUSH1 0x40 MLOAD PUSH2 0x26B SWAP2 SWAP1 PUSH2 0x1568 JUMP JUMPDEST CALLVALUE DUP1 ISZERO PUSH2 0x41D JUMPI PUSH1 0x0 DUP1 REVERT JUMPDEST POP PUSH2 0x2FC PUSH2 0x904 JUMP JUMPDEST CALLVALUE DUP1 ISZERO PUSH2 0x432 JUMPI PUSH1 0x0 DUP1 REVERT JUMPDEST POP PUSH2 0x289 PUSH2 0x441 CALLDATASIZE PUSH1 0x4 PUSH2 0x13CC JUMP JUMPDEST PUSH2 0x920 JUMP JUMPDEST CALLVALUE DUP1 ISZERO PUSH2 0x452 JUMPI PUSH1 0x0 DUP1 REVERT JUMPDEST POP PUSH2 0x31E PUSH2 0x932 JUMP JUMPDEST CALLVALUE DUP1 ISZERO PUSH2 0x467 JUMPI PUSH1 0x0 DUP1 REVERT JUMPDEST POP PUSH2 0x31E PUSH2 0x938 JUMP JUMPDEST CALLVALUE DUP1 ISZERO PUSH2 0x47C JUMPI PUSH1 0x0 DUP1 REVERT JUMPDEST POP PUSH2 0x31E PUSH2 0x93E JUMP JUMPDEST CALLVALUE DUP1 ISZERO PUSH2 0x491 JUMPI PUSH1 0x0 DUP1 REVERT JUMPDEST POP PUSH2 0x34B PUSH2 0x4A0 CALLDATASIZE PUSH1 0x4 PUSH2 0x13AA JUMP JUMPDEST PUSH2 0x944 JUMP JUMPDEST CALLVALUE DUP1 ISZERO PUSH2 0x4B1 JUMPI PUSH1 0x0 DUP1 REVERT JUMPDEST POP PUSH2 0x31E PUSH2 0x4C0 CALLDATASIZE PUSH1 0x4 PUSH2 0x1462 JUMP JUMPDEST PUSH2 0x959 JUMP JUMPDEST CALLVALUE DUP1 ISZERO PUSH2 0x4D1 JUMPI PUSH1 0x0 DUP1 REVERT JUMPDEST POP PUSH2 0x289 PUSH2 0x96B JUMP JUMPDEST CALLVALUE DUP1 ISZERO PUSH2 0x4E6 JUMPI PUSH1 0x0 DUP1 REVERT JUMPDEST POP PUSH2 0x4EF PUSH2 0xA04 JUMP JUMPDEST PUSH1 0x40 MLOAD PUSH2 0x26B SWAP2 SWAP1 PUSH2 0x150F JUMP JUMPDEST CALLVALUE DUP1 ISZERO PUSH2 0x508 JUMPI PUSH1 0x0 DUP1 REVERT JUMPDEST POP PUSH2 0x3D7 PUSH2 0xA74 JUMP JUMPDEST CALLVALUE DUP1 ISZERO PUSH2 0x51D JUMPI PUSH1 0x0 DUP1 REVERT JUMPDEST POP PUSH2 0x3D7 PUSH2 0xA80 JUMP JUMPDEST CALLVALUE DUP1 ISZERO PUSH2 0x532 JUMPI PUSH1 0x0 DUP1 REVERT JUMPDEST POP PUSH2 0x2FC PUSH2 0xA94 JUMP JUMPDEST CALLVALUE DUP1 ISZERO PUSH2 0x547 JUMPI PUSH1 0x0 DUP1 REVERT JUMPDEST POP PUSH2 0x31E PUSH2 0x556 CALLDATASIZE PUSH1 0x4 PUSH2 0x13AA JUMP JUMPDEST PUSH2 0xAB0 JUMP JUMPDEST CALLVALUE DUP1 ISZERO PUSH2 0x567 JUMPI PUSH1 0x0 DUP1 REVERT JUMPDEST POP PUSH2 0x289 PUSH2 0x576 CALLDATASIZE PUSH1 0x4 PUSH2 0x13AA JUMP JUMPDEST PUSH2 0xAC2 JUMP JUMPDEST PUSH1 0x15 PUSH1 0x20 SWAP1 DUP2 MSTORE PUSH1 0x0 SWAP3 DUP4 MSTORE PUSH1 0x40 DUP1 DUP5 KECCAK256 SWAP1 SWAP2 MSTORE SWAP1 DUP3 MSTORE SWAP1 KECCAK256 DUP1 SLOAD PUSH1 0x1 DUP3 ADD SLOAD PUSH1 0x2 SWAP1 SWAP3 ADD SLOAD SWAP1 SWAP2 SWAP1 DUP4 JUMP JUMPDEST PUSH2 0x5AF PUSH2 0xB65 JUMP JUMPDEST PUSH1 0x3 DUP1 SLOAD PUSH32 0xFFFFFFFFFFFFFFFFFFFFFFFF0000000000000000000000000000000000000000 AND SWAP1 SSTORE PUSH1 0x40 MLOAD PUSH32 0x6CAEDCB22A5C22C8EBD0CAF751FEC1228A6E006E6EE37169321E02D31ECC8183 SWAP1 PUSH1 0x0 SWAP1 LOG1 JUMP JUMPDEST PUSH1 0x16 PUSH1 0x20 MSTORE PUSH1 0x0 SWAP1 DUP2 MSTORE PUSH1 0x40 SWAP1 KECCAK256 DUP1 SLOAD PUSH1 0x1 DUP3 ADD SLOAD PUSH1 0x2 DUP4 ADD SLOAD PUSH1 0x3 DUP5 ADD SLOAD PUSH1 0x4 SWAP1 SWAP5 ADD SLOAD SWAP3 SWAP4 SWAP2 SWAP3 SWAP1 SWAP2 SWAP1 DUP6 JUMP JUMPDEST PUSH2 0x639 PUSH2 0xB8A JUMP JUMPDEST PUSH2 0x642 DUP2 PUSH2 0xBD1 JUMP JUMPDEST POP JUMP JUMPDEST PUSH1 0x2 DUP2 DUP2 SLOAD DUP2 LT PUSH2 0x652 JUMPI INVALID JUMPDEST PUSH1 0x0 SWAP2 DUP3 MSTORE PUSH1 0x20 SWAP1 SWAP2 KECCAK256 ADD SLOAD PUSH20 0xFFFFFFFFFFFFFFFFFFFFFFFFFFFFFFFFFFFFFFFF AND SWAP1 POP DUP2 JUMP JUMPDEST PUSH1 0xD SLOAD DUP2 JUMP JUMPDEST PUSH1 0x10 PUSH1 0x20 MSTORE PUSH1 0x0 SWAP1 DUP2 MSTORE PUSH1 0x40 SWAP1 KECCAK256 SLOAD PUSH1 0xFF AND DUP2 JUMP JUMPDEST PUSH1 0x11 SLOAD DUP2 JUMP JUMPDEST PUSH2 0x6A2 PUSH2 0xB65 JUMP JUMPDEST PUSH2 0x642 DUP2 PUSH2 0xD02 JUMP JUMPDEST PUSH2 0x6B3 PUSH2 0xB8A JUMP JUMPDEST PUSH20 0xFFFFFFFFFFFFFFFFFFFFFFFFFFFFFFFFFFFFFFFF DUP2 AND PUSH1 0x0 SWAP1 DUP2 MSTORE PUSH1 0x1 PUSH1 0x20 MSTORE PUSH1 0x40 SWAP1 KECCAK256 SLOAD PUSH1 0xFF AND PUSH2 0x6F1 JUMPI PUSH2 0x6F1 PUSH2 0x6EC DUP3 PUSH2 0xE5D JUMP JUMPDEST PUSH2 0xEFC JUMP JUMPDEST PUSH1 0x0 JUMPDEST PUSH1 0x2 SLOAD DUP2 LT ISZERO PUSH2 0x761 JUMPI DUP2 PUSH20 0xFFFFFFFFFFFFFFFFFFFFFFFFFFFFFFFFFFFFFFFF AND PUSH1 0x2 DUP3 DUP2 SLOAD DUP2 LT PUSH2 0x722 JUMPI INVALID JUMPDEST PUSH1 0x0 SWAP2 DUP3 MSTORE PUSH1 0x20 SWAP1 SWAP2 KECCAK256 ADD SLOAD PUSH20 0xFFFFFFFFFFFFFFFFFFFFFFFFFFFFFFFFFFFFFFFF AND EQ ISZERO PUSH2 0x759 JUMPI PUSH2 0x754 DUP3 DUP3 PUSH2 0xF04 JUMP JUMPDEST PUSH2 0x761 JUMP JUMPDEST PUSH1 0x1 ADD PUSH2 0x6F4 JUMP JUMPDEST POP POP JUMP JUMPDEST PUSH1 0xC SLOAD DUP2 JUMP JUMPDEST PUSH1 0x14 SLOAD PUSH4 0xFFFFFFFF AND DUP2 JUMP JUMPDEST PUSH1 0x40 DUP1 MLOAD DUP3 DUP2 MSTORE PUSH1 0x20 DUP1 DUP5 MUL DUP3 ADD ADD SWAP1 SWAP2 MSTORE PUSH1 0x60 SWAP1 PUSH1 0x0 SWAP1 DUP3 SWAP1 DUP5 SWAP1 DUP2 DUP1 ISZERO PUSH2 0x7B4 JUMPI DUP2 PUSH1 0x20 ADD JUMPDEST PUSH1 0x60 DUP2 MSTORE PUSH1 0x20 ADD SWAP1 PUSH1 0x1 SWAP1 SUB SWAP1 DUP2 PUSH2 0x79F JUMPI SWAP1 POP JUMPDEST POP PUSH1 0x3 SLOAD SWAP1 SWAP5 POP PUSH20 0xFFFFFFFFFFFFFFFFFFFFFFFFFFFFFFFFFFFFFFFF AND DUP1 PUSH2 0x7E1 JUMPI PUSH2 0x7E1 PUSH2 0x6EC PUSH2 0x1153 JUMP JUMPDEST PUSH1 0x0 JUMPDEST DUP3 DUP2 EQ PUSH2 0x8F8 JUMPI DUP2 PUSH20 0xFFFFFFFFFFFFFFFFFFFFFFFFFFFFFFFFFFFFFFFF AND DUP9 DUP9 DUP4 DUP2 DUP2 LT PUSH2 0x80E JUMPI INVALID JUMPDEST PUSH1 0x20 MUL DUP3 ADD SWAP1 POP DUP1 CALLDATALOAD PUSH32 0xFFFFFFFFFFFFFFFFFFFFFFFFFFFFFFFFFFFFFFFFFFFFFFFFFFFFFFFFFFFFFFE1 CALLDATASIZE DUP5 SWAP1 SUB ADD DUP2 SLT PUSH2 0x848 JUMPI PUSH1 0x0 DUP1 REVERT JUMPDEST SWAP1 SWAP2 ADD PUSH1 0x20 DUP2 ADD SWAP2 POP CALLDATALOAD PUSH8 0xFFFFFFFFFFFFFFFF DUP2 GT ISZERO PUSH2 0x867 JUMPI PUSH1 0x0 DUP1 REVERT JUMPDEST CALLDATASIZE DUP2 SWAP1 SUB DUP3 SGT ISZERO PUSH2 0x877 JUMPI PUSH1 0x0 DUP1 REVERT JUMPDEST PUSH1 0x40 MLOAD PUSH2 0x885 SWAP3 SWAP2 SWAP1 PUSH2 0x149B JUMP JUMPDEST PUSH1 0x0 PUSH1 0x40 MLOAD DUP1 DUP4 SUB DUP2 DUP6 GAS DELEGATECALL SWAP2 POP POP RETURNDATASIZE DUP1 PUSH1 0x0 DUP2 EQ PUSH2 0x8C0 JUMPI PUSH1 0x40 MLOAD SWAP2 POP PUSH1 0x1F NOT PUSH1 0x3F RETURNDATASIZE ADD AND DUP3 ADD PUSH1 0x40 MSTORE RETURNDATASIZE DUP3 MSTORE RETURNDATASIZE PUSH1 0x0 PUSH1 0x20 DUP5 ADD RETURNDATACOPY PUSH2 0x8C5 JUMP JUMPDEST PUSH1 0x60 SWAP2 POP JUMPDEST POP SWAP1 SWAP6 POP SWAP4 POP DUP5 PUSH2 0x8D8 JUMPI DUP4 MLOAD DUP5 PUSH1 0x20 ADD REVERT JUMPDEST DUP4 DUP7 DUP3 DUP2 MLOAD DUP2 LT PUSH2 0x8E5 JUMPI INVALID JUMPDEST PUSH1 0x20 SWAP1 DUP2 MUL SWAP2 SWAP1 SWAP2 ADD ADD MSTORE PUSH1 0x1 ADD PUSH2 0x7E4 JUMP JUMPDEST POP POP POP POP POP JUMPDEST SWAP3 SWAP2 POP POP JUMP JUMPDEST PUSH1 0x0 SLOAD PUSH20 0xFFFFFFFFFFFFFFFFFFFFFFFFFFFFFFFFFFFFFFFF AND DUP2 JUMP JUMPDEST PUSH2 0x928 PUSH2 0xB8A JUMP JUMPDEST PUSH2 0x761 DUP3 DUP3 PUSH2 0xF04 JUMP JUMPDEST PUSH1 0x13 SLOAD DUP2 JUMP JUMPDEST PUSH1 0x8 SLOAD DUP2 JUMP JUMPDEST PUSH1 0x17 SLOAD DUP2 JUMP JUMPDEST PUSH1 0x1 PUSH1 0x20 MSTORE PUSH1 0x0 SWAP1 DUP2 MSTORE PUSH1 0x40 SWAP1 KECCAK256 SLOAD PUSH1 0xFF AND DUP2 JUMP JUMPDEST PUSH1 0xB PUSH1 0x20 MSTORE PUSH1 0x0 SWAP1 DUP2 MSTORE PUSH1 0x40 SWAP1 KECCAK256 SLOAD DUP2 JUMP JUMPDEST PUSH1 0x11 SLOAD PUSH3 0x69780 DUP2 LT DUP1 PUSH2 0x981 JUMPI POP PUSH3 0x278D00 DUP2 GT JUMPDEST ISZERO PUSH2 0x993 JUMPI PUSH2 0x993 PUSH2 0x6EC PUSH1 0x4 PUSH2 0x118A JUMP JUMPDEST PUSH1 0x14 SLOAD PUSH4 0xFFFFFFFF PUSH5 0x100000000 DUP3 DIV DUP2 AND SWAP2 AND DUP2 LT DUP1 PUSH2 0x9B8 JUMPI POP PUSH4 0xFFFFFFFF DUP2 AND ISZERO JUMPDEST ISZERO PUSH2 0x9CA JUMPI PUSH2 0x9CA PUSH2 0x6EC PUSH1 0x0 PUSH2 0x118A JUMP JUMPDEST PUSH1 0x12 SLOAD PUSH3 0xF4240 PUSH4 0xFFFFFFFF SWAP1 SWAP2 AND GT ISZERO PUSH2 0x9EC JUMPI PUSH2 0x9EC PUSH2 0x6EC PUSH1 0x1 PUSH2 0x118A JUMP JUMPDEST PUSH1 0x2 PUSH1 0x13 SLOAD LT ISZERO PUSH2 0x761 JUMPI PUSH2 0x761 PUSH2 0x6EC PUSH1 0x3 PUSH2 0x118A JUMP JUMPDEST PUSH1 0x60 PUSH1 0x2 DUP1 SLOAD DUP1 PUSH1 0x20 MUL PUSH1 0x20 ADD PUSH1 0x40 MLOAD SWAP1 DUP2 ADD PUSH1 0x40 MSTORE DUP1 SWAP3 SWAP2 SWAP1 DUP2 DUP2 MSTORE PUSH1 0x20 ADD DUP3 DUP1 SLOAD DUP1 ISZERO PUSH2 0xA69 JUMPI PUSH1 0x20 MUL DUP3 ADD SWAP2 SWAP1 PUSH1 0x0 MSTORE PUSH1 0x20 PUSH1 0x0 KECCAK256 SWAP1 JUMPDEST DUP2 SLOAD PUSH20 0xFFFFFFFFFFFFFFFFFFFFFFFFFFFFFFFFFFFFFFFF AND DUP2 MSTORE PUSH1 0x1 SWAP1 SWAP2 ADD SWAP1 PUSH1 0x20 ADD DUP1 DUP4 GT PUSH2 0xA3E JUMPI JUMPDEST POP POP POP POP POP SWAP1 POP JUMPDEST SWAP1 JUMP JUMPDEST PUSH1 0x12 SLOAD PUSH4 0xFFFFFFFF AND DUP2 JUMP JUMPDEST PUSH1 0x14 SLOAD PUSH5 0x100000000 SWAP1 DIV PUSH4 0xFFFFFFFF AND DUP2 JUMP JUMPDEST PUSH1 0x3 SLOAD PUSH20 0xFFFFFFFFFFFFFFFFFFFFFFFFFFFFFFFFFFFFFFFF AND DUP2 JUMP JUMPDEST PUSH1 0x9 PUSH1 0x20 MSTORE PUSH1 0x0 SWAP1 DUP2 MSTORE PUSH1 0x40 SWAP1 KECCAK256 SLOAD DUP2 JUMP JUMPDEST PUSH2 0xACA PUSH2 0xB8A JUMP JUMPDEST PUSH20 0xFFFFFFFFFFFFFFFFFFFFFFFFFFFFFFFFFFFFFFFF DUP2 AND PUSH2 0xAF5 JUMPI PUSH2 0xAF0 PUSH2 0x6EC PUSH2 0x11C9 JUMP JUMPDEST PUSH2 0x642 JUMP JUMPDEST PUSH1 0x0 DUP1 SLOAD PUSH32 0xFFFFFFFFFFFFFFFFFFFFFFFF0000000000000000000000000000000000000000 AND PUSH20 0xFFFFFFFFFFFFFFFFFFFFFFFFFFFFFFFFFFFFFFFF DUP4 AND SWAP1 DUP2 OR DUP3 SSTORE PUSH1 0x40 MLOAD SWAP1 SWAP2 CALLER SWAP2 PUSH32 0x8BE0079C531659141344CD1FD0A4F28419497F9722A3DAAFE3B4186F6B6457E0 SWAP2 SWAP1 LOG3 POP JUMP JUMPDEST CALLER PUSH1 0x0 SWAP1 DUP2 MSTORE PUSH1 0x1 PUSH1 0x20 MSTORE PUSH1 0x40 SWAP1 KECCAK256 SLOAD PUSH1 0xFF AND PUSH2 0xB88 JUMPI PUSH2 0xB88 PUSH2 0x6EC CALLER PUSH2 0x1200 JUMP JUMPDEST JUMP JUMPDEST PUSH1 0x0 SLOAD PUSH20 0xFFFFFFFFFFFFFFFFFFFFFFFFFFFFFFFFFFFFFFFF AND CALLER EQ PUSH2 0xB88 JUMPI PUSH1 0x0 SLOAD PUSH2 0xB88 SWAP1 PUSH2 0x6EC SWAP1 CALLER SWAP1 PUSH20 0xFFFFFFFFFFFFFFFFFFFFFFFFFFFFFFFFFFFFFFFF AND PUSH2 0x121B JUMP JUMPDEST PUSH20 0xFFFFFFFFFFFFFFFFFFFFFFFFFFFFFFFFFFFFFFFF DUP2 AND PUSH2 0xBF7 JUMPI PUSH2 0xBF7 PUSH2 0x6EC PUSH2 0x12BD JUMP JUMPDEST PUSH20 0xFFFFFFFFFFFFFFFFFFFFFFFFFFFFFFFFFFFFFFFF DUP2 AND PUSH1 0x0 SWAP1 DUP2 MSTORE PUSH1 0x1 PUSH1 0x20 MSTORE PUSH1 0x40 SWAP1 KECCAK256 SLOAD PUSH1 0xFF AND ISZERO PUSH2 0xC31 JUMPI PUSH2 0xC31 PUSH2 0x6EC DUP3 PUSH2 0x12F4 JUMP JUMPDEST PUSH20 0xFFFFFFFFFFFFFFFFFFFFFFFFFFFFFFFFFFFFFFFF DUP2 AND PUSH1 0x0 DUP2 DUP2 MSTORE PUSH1 0x1 PUSH1 0x20 DUP2 SWAP1 MSTORE PUSH1 0x40 DUP1 DUP4 KECCAK256 DUP1 SLOAD PUSH32 0xFFFFFFFFFFFFFFFFFFFFFFFFFFFFFFFFFFFFFFFFFFFFFFFFFFFFFFFFFFFFFF00 AND DUP4 OR SWAP1 SSTORE PUSH1 0x2 DUP1 SLOAD SWAP3 DUP4 ADD DUP2 SSTORE DUP4 MSTORE PUSH32 0x405787FA12A823E0F2B7631CC41B3BA8828B3321CA811111FA75CD3AA3BB5ACE SWAP1 SWAP2 ADD DUP1 SLOAD PUSH32 0xFFFFFFFFFFFFFFFFFFFFFFFF0000000000000000000000000000000000000000 AND DUP5 OR SWAP1 SSTORE MLOAD CALLER SWAP3 SWAP2 PUSH32 0x3147867C59D17E8FA9D522465651D44AAE0A9E38F902F3475B97E58072F0ED4C SWAP2 LOG3 POP JUMP JUMPDEST PUSH1 0x3 DUP1 SLOAD PUSH32 0xFFFFFFFFFFFFFFFFFFFFFFFF0000000000000000000000000000000000000000 AND PUSH20 0xFFFFFFFFFFFFFFFFFFFFFFFFFFFFFFFFFFFFFFFF DUP4 AND OR SWAP1 SSTORE PUSH1 0x40 MLOAD PUSH32 0x48368388F801041F7690185C4E28B6F3505C740C47BE8AC104B55DF666BFC84 SWAP1 PUSH2 0xD72 SWAP1 DUP4 SWAP1 PUSH2 0x14C7 JUMP JUMPDEST PUSH1 0x40 MLOAD DUP1 SWAP2 SUB SWAP1 LOG1 PUSH1 0x3 SLOAD PUSH1 0x40 DUP1 MLOAD PUSH1 0x4 DUP2 MSTORE PUSH1 0x24 DUP2 ADD DUP3 MSTORE PUSH1 0x20 DUP2 ADD DUP1 MLOAD PUSH28 0xFFFFFFFFFFFFFFFFFFFFFFFFFFFFFFFFFFFFFFFFFFFFFFFFFFFFFFFF AND PUSH32 0xE1C7392A00000000000000000000000000000000000000000000000000000000 OR SWAP1 MSTORE SWAP1 MLOAD PUSH1 0x0 SWAP3 PUSH1 0x60 SWAP3 PUSH20 0xFFFFFFFFFFFFFFFFFFFFFFFFFFFFFFFFFFFFFFFF SWAP1 SWAP2 AND SWAP2 PUSH2 0xDFE SWAP2 SWAP1 PUSH2 0x14AB JUMP JUMPDEST PUSH1 0x0 PUSH1 0x40 MLOAD DUP1 DUP4 SUB DUP2 DUP6 GAS DELEGATECALL SWAP2 POP POP RETURNDATASIZE DUP1 PUSH1 0x0 DUP2 EQ PUSH2 0xE39 JUMPI PUSH1 0x40 MLOAD SWAP2 POP PUSH1 0x1F NOT PUSH1 0x3F RETURNDATASIZE ADD AND DUP3 ADD PUSH1 0x40 MSTORE RETURNDATASIZE DUP3 MSTORE RETURNDATASIZE PUSH1 0x0 PUSH1 0x20 DUP5 ADD RETURNDATACOPY PUSH2 0xE3E JUMP JUMPDEST PUSH1 0x60 SWAP2 POP JUMPDEST POP SWAP2 POP SWAP2 POP DUP2 PUSH2 0xE50 JUMPI DUP1 MLOAD PUSH1 0x20 DUP3 ADD REVERT JUMPDEST PUSH2 0xE58 PUSH2 0x96B JUMP JUMPDEST POP POP POP JUMP JUMPDEST PUSH1 0x60 PUSH4 0xEB5108A2 PUSH1 0xE0 SHL DUP3 PUSH1 0x40 MLOAD PUSH1 0x24 ADD PUSH2 0xE78 SWAP2 SWAP1 PUSH2 0x14C7 JUMP JUMPDEST PUSH1 0x40 DUP1 MLOAD PUSH32 0xFFFFFFFFFFFFFFFFFFFFFFFFFFFFFFFFFFFFFFFFFFFFFFFFFFFFFFFFFFFFFFE0 DUP2 DUP5 SUB ADD DUP2 MSTORE SWAP2 SWAP1 MSTORE PUSH1 0x20 DUP2 ADD DUP1 MLOAD PUSH28 0xFFFFFFFFFFFFFFFFFFFFFFFFFFFFFFFFFFFFFFFFFFFFFFFFFFFFFFFF AND PUSH32 0xFFFFFFFF00000000000000000000000000000000000000000000000000000000 SWAP1 SWAP4 AND SWAP3 SWAP1 SWAP3 OR SWAP1 SWAP2 MSTORE SWAP1 POP SWAP2 SWAP1 POP JUMP JUMPDEST DUP1 MLOAD PUSH1 0x20 DUP3 ADD REVERT JUMPDEST PUSH20 0xFFFFFFFFFFFFFFFFFFFFFFFFFFFFFFFFFFFFFFFF DUP3 AND PUSH1 0x0 SWAP1 DUP2 MSTORE PUSH1 0x1 PUSH1 0x20 MSTORE PUSH1 0x40 SWAP1 KECCAK256 SLOAD PUSH1 0xFF AND PUSH2 0xF3D JUMPI PUSH2 0xF3D PUSH2 0x6EC DUP4 PUSH2 0xE5D JUMP JUMPDEST PUSH1 0x2 SLOAD DUP2 LT PUSH2 0xF58 JUMPI PUSH2 0xF58 PUSH2 0x6EC DUP3 PUSH1 0x2 DUP1 SLOAD SWAP1 POP PUSH2 0x130F JUMP JUMPDEST DUP2 PUSH20 0xFFFFFFFFFFFFFFFFFFFFFFFFFFFFFFFFFFFFFFFF AND PUSH1 0x2 DUP3 DUP2 SLOAD DUP2 LT PUSH2 0xF7C JUMPI INVALID JUMPDEST PUSH1 0x0 SWAP2 DUP3 MSTORE PUSH1 0x20 SWAP1 SWAP2 KECCAK256 ADD SLOAD PUSH20 0xFFFFFFFFFFFFFFFFFFFFFFFFFFFFFFFFFFFFFFFF AND EQ PUSH2 0xFDE JUMPI PUSH2 0xFDE PUSH2 0x6EC PUSH1 0x2 DUP4 DUP2 SLOAD DUP2 LT PUSH2 0xFB6 JUMPI INVALID JUMPDEST PUSH1 0x0 SWAP2 DUP3 MSTORE PUSH1 0x20 SWAP1 SWAP2 KECCAK256 ADD SLOAD PUSH20 0xFFFFFFFFFFFFFFFFFFFFFFFFFFFFFFFFFFFFFFFF AND DUP5 PUSH2 0x132C JUMP JUMPDEST PUSH20 0xFFFFFFFFFFFFFFFFFFFFFFFFFFFFFFFFFFFFFFFF DUP3 AND PUSH1 0x0 SWAP1 DUP2 MSTORE PUSH1 0x1 PUSH1 0x20 MSTORE PUSH1 0x40 SWAP1 KECCAK256 DUP1 SLOAD PUSH32 0xFFFFFFFFFFFFFFFFFFFFFFFFFFFFFFFFFFFFFFFFFFFFFFFFFFFFFFFFFFFFFF00 AND SWAP1 SSTORE PUSH1 0x2 DUP1 SLOAD PUSH32 0xFFFFFFFFFFFFFFFFFFFFFFFFFFFFFFFFFFFFFFFFFFFFFFFFFFFFFFFFFFFFFFFF DUP2 ADD SWAP1 DUP2 LT PUSH2 0x1059 JUMPI INVALID JUMPDEST PUSH1 0x0 SWAP2 DUP3 MSTORE PUSH1 0x20 SWAP1 SWAP2 KECCAK256 ADD SLOAD PUSH1 0x2 DUP1 SLOAD PUSH20 0xFFFFFFFFFFFFFFFFFFFFFFFFFFFFFFFFFFFFFFFF SWAP1 SWAP3 AND SWAP2 DUP4 SWAP1 DUP2 LT PUSH2 0x108C JUMPI INVALID JUMPDEST PUSH1 0x0 SWAP2 DUP3 MSTORE PUSH1 0x20 SWAP1 SWAP2 KECCAK256 ADD DUP1 SLOAD PUSH32 0xFFFFFFFFFFFFFFFFFFFFFFFF0000000000000000000000000000000000000000 AND PUSH20 0xFFFFFFFFFFFFFFFFFFFFFFFFFFFFFFFFFFFFFFFF SWAP3 SWAP1 SWAP3 AND SWAP2 SWAP1 SWAP2 OR SWAP1 SSTORE PUSH1 0x2 DUP1 SLOAD PUSH32 0xFFFFFFFFFFFFFFFFFFFFFFFFFFFFFFFFFFFFFFFFFFFFFFFFFFFFFFFFFFFFFFFF ADD SWAP1 PUSH2 0x110B SWAP1 DUP3 PUSH2 0x1349 JUMP JUMPDEST POP PUSH1 0x40 MLOAD CALLER SWAP1 PUSH20 0xFFFFFFFFFFFFFFFFFFFFFFFFFFFFFFFFFFFFFFFF DUP5 AND SWAP1 PUSH32 0x1F32C1B084E2DE0713B8FB16BD46BB9DF710A3DBEAE2F3CA93AF46E016DCC6B0 SWAP1 PUSH1 0x0 SWAP1 LOG3 POP POP JUMP JUMPDEST PUSH1 0x40 DUP1 MLOAD DUP1 DUP3 ADD SWAP1 SWAP2 MSTORE PUSH1 0x4 DUP2 MSTORE PUSH32 0x6EFF828500000000000000000000000000000000000000000000000000000000 PUSH1 0x20 DUP3 ADD MSTORE SWAP1 JUMP JUMPDEST PUSH1 0x60 PUSH32 0xFC45BD1100000000000000000000000000000000000000000000000000000000 DUP3 PUSH1 0x4 DUP2 GT ISZERO PUSH2 0x11B9 JUMPI INVALID JUMPDEST PUSH1 0x40 MLOAD PUSH1 0x24 ADD PUSH2 0xE78 SWAP2 SWAP1 PUSH2 0x1688 JUMP JUMPDEST PUSH1 0x40 DUP1 MLOAD DUP1 DUP3 ADD SWAP1 SWAP2 MSTORE PUSH1 0x4 DUP2 MSTORE PUSH32 0xE69EDC3E00000000000000000000000000000000000000000000000000000000 PUSH1 0x20 DUP3 ADD MSTORE SWAP1 JUMP JUMPDEST PUSH1 0x60 PUSH4 0xB65A25B9 PUSH1 0xE0 SHL DUP3 PUSH1 0x40 MLOAD PUSH1 0x24 ADD PUSH2 0xE78 SWAP2 SWAP1 PUSH2 0x14C7 JUMP JUMPDEST PUSH1 0x60 PUSH4 0x1DE45AD1 PUSH1 0xE0 SHL DUP4 DUP4 PUSH1 0x40 MLOAD PUSH1 0x24 ADD PUSH2 0x1238 SWAP3 SWAP2 SWAP1 PUSH2 0x14E8 JUMP JUMPDEST PUSH1 0x40 DUP1 MLOAD PUSH32 0xFFFFFFFFFFFFFFFFFFFFFFFFFFFFFFFFFFFFFFFFFFFFFFFFFFFFFFFFFFFFFFE0 DUP2 DUP5 SUB ADD DUP2 MSTORE SWAP2 SWAP1 MSTORE PUSH1 0x20 DUP2 ADD DUP1 MLOAD PUSH28 0xFFFFFFFFFFFFFFFFFFFFFFFFFFFFFFFFFFFFFFFFFFFFFFFFFFFFFFFF AND PUSH32 0xFFFFFFFF00000000000000000000000000000000000000000000000000000000 SWAP1 SWAP4 AND SWAP3 SWAP1 SWAP3 OR SWAP1 SWAP2 MSTORE SWAP1 POP SWAP3 SWAP2 POP POP JUMP JUMPDEST PUSH1 0x40 DUP1 MLOAD DUP1 DUP3 ADD SWAP1 SWAP2 MSTORE PUSH1 0x4 DUP2 MSTORE PUSH32 0x57654FE400000000000000000000000000000000000000000000000000000000 PUSH1 0x20 DUP3 ADD MSTORE SWAP1 JUMP JUMPDEST PUSH1 0x60 PUSH4 0xDE16F1A0 PUSH1 0xE0 SHL DUP3 PUSH1 0x40 MLOAD PUSH1 0x24 ADD PUSH2 0xE78 SWAP2 SWAP1 PUSH2 0x14C7 JUMP JUMPDEST PUSH1 0x60 PUSH4 0xE9F83771 PUSH1 0xE0 SHL DUP4 DUP4 PUSH1 0x40 MLOAD PUSH1 0x24 ADD PUSH2 0x1238 SWAP3 SWAP2 SWAP1 PUSH2 0x1630 JUMP JUMPDEST PUSH1 0x60 PUSH4 0x140A84DB PUSH1 0xE0 SHL DUP4 DUP4 PUSH1 0x40 MLOAD PUSH1 0x24 ADD PUSH2 0x1238 SWAP3 SWAP2 SWAP1 PUSH2 0x14E8 JUMP JUMPDEST DUP2 SLOAD DUP2 DUP4 SSTORE DUP2 DUP2 GT ISZERO PUSH2 0xE58 JUMPI PUSH1 0x0 DUP4 DUP2 MSTORE PUSH1 0x20 SWAP1 KECCAK256 PUSH2 0xE58 SWAP2 DUP2 ADD SWAP1 DUP4 ADD PUSH2 0xA71 SWAP2 SWAP1 JUMPDEST DUP1 DUP3 GT ISZERO PUSH2 0x1382 JUMPI PUSH1 0x0 DUP2 SSTORE PUSH1 0x1 ADD PUSH2 0x136E JUMP JUMPDEST POP SWAP1 JUMP JUMPDEST DUP1 CALLDATALOAD PUSH20 0xFFFFFFFFFFFFFFFFFFFFFFFFFFFFFFFFFFFFFFFF DUP2 AND DUP2 EQ PUSH2 0x8FE JUMPI PUSH1 0x0 DUP1 REVERT JUMPDEST PUSH1 0x0 PUSH1 0x20 DUP3 DUP5 SUB SLT ISZERO PUSH2 0x13BB JUMPI DUP1 DUP2 REVERT JUMPDEST PUSH2 0x13C5 DUP4 DUP4 PUSH2 0x1386 JUMP JUMPDEST SWAP4 SWAP3 POP POP POP JUMP JUMPDEST PUSH1 0x0 DUP1 PUSH1 0x40 DUP4 DUP6 SUB SLT ISZERO PUSH2 0x13DE JUMPI DUP1 DUP2 REVERT JUMPDEST PUSH2 0x13E8 DUP5 DUP5 PUSH2 0x1386 JUMP JUMPDEST SWAP5 PUSH1 0x20 SWAP4 SWAP1 SWAP4 ADD CALLDATALOAD SWAP4 POP POP POP JUMP JUMPDEST PUSH1 0x0 DUP1 PUSH1 0x20 DUP4 DUP6 SUB SLT ISZERO PUSH2 0x1408 JUMPI DUP2 DUP3 REVERT JUMPDEST DUP3 CALLDATALOAD PUSH8 0xFFFFFFFFFFFFFFFF DUP1 DUP3 GT ISZERO PUSH2 0x141F JUMPI DUP4 DUP5 REVERT JUMPDEST DUP2 DUP6 ADD DUP7 PUSH1 0x1F DUP3 ADD SLT PUSH2 0x1430 JUMPI DUP5 DUP6 REVERT JUMPDEST DUP1 CALLDATALOAD SWAP3 POP DUP2 DUP4 GT ISZERO PUSH2 0x1440 JUMPI DUP5 DUP6 REVERT JUMPDEST DUP7 PUSH1 0x20 DUP1 DUP6 MUL DUP4 ADD ADD GT ISZERO PUSH2 0x1453 JUMPI DUP5 DUP6 REVERT JUMPDEST PUSH1 0x20 ADD SWAP7 SWAP2 SWAP6 POP SWAP1 SWAP4 POP POP POP POP JUMP JUMPDEST PUSH1 0x0 PUSH1 0x20 DUP3 DUP5 SUB SLT ISZERO PUSH2 0x1473 JUMPI DUP1 DUP2 REVERT JUMPDEST POP CALLDATALOAD SWAP2 SWAP1 POP JUMP JUMPDEST PUSH1 0x0 DUP1 PUSH1 0x40 DUP4 DUP6 SUB SLT ISZERO PUSH2 0x148C JUMPI DUP2 DUP3 REVERT JUMPDEST POP POP DUP1 CALLDATALOAD SWAP3 PUSH1 0x20 SWAP1 SWAP2 ADD CALLDATALOAD SWAP2 POP JUMP JUMPDEST PUSH1 0x0 DUP3 DUP5 DUP4 CALLDATACOPY SWAP2 ADD SWAP1 DUP2 MSTORE SWAP2 SWAP1 POP JUMP JUMPDEST PUSH1 0x0 DUP3 MLOAD PUSH2 0x14BD DUP2 DUP5 PUSH1 0x20 DUP8 ADD PUSH2 0x1696 JUMP JUMPDEST SWAP2 SWAP1 SWAP2 ADD SWAP3 SWAP2 POP POP JUMP JUMPDEST PUSH20 0xFFFFFFFFFFFFFFFFFFFFFFFFFFFFFFFFFFFFFFFF SWAP2 SWAP1 SWAP2 AND DUP2 MSTORE PUSH1 0x20 ADD SWAP1 JUMP JUMPDEST PUSH20 0xFFFFFFFFFFFFFFFFFFFFFFFFFFFFFFFFFFFFFFFF SWAP3 DUP4 AND DUP2 MSTORE SWAP2 AND PUSH1 0x20 DUP3 ADD MSTORE PUSH1 0x40 ADD SWAP1 JUMP JUMPDEST PUSH1 0x20 DUP1 DUP3 MSTORE DUP3 MLOAD DUP3 DUP3 ADD DUP2 SWAP1 MSTORE PUSH1 0x0 SWAP2 DUP5 ADD SWAP1 PUSH1 0x40 DUP5 ADD SWAP1 DUP4 JUMPDEST DUP2 DUP2 LT ISZERO PUSH2 0x155D JUMPI DUP4 MLOAD PUSH20 0xFFFFFFFFFFFFFFFFFFFFFFFFFFFFFFFFFFFFFFFF AND DUP4 MSTORE PUSH1 0x20 SWAP4 DUP5 ADD SWAP4 SWAP1 SWAP3 ADD SWAP2 PUSH1 0x1 ADD PUSH2 0x1529 JUMP JUMPDEST POP SWAP1 SWAP6 SWAP5 POP POP POP POP POP JUMP JUMPDEST PUSH1 0x0 PUSH1 0x20 DUP1 DUP4 ADD DUP2 DUP5 MSTORE DUP1 DUP6 MLOAD DUP1 DUP4 MSTORE PUSH1 0x40 DUP7 ADD SWAP2 POP PUSH1 0x40 DUP5 DUP3 MUL DUP8 ADD ADD SWAP3 POP DUP4 DUP8 ADD DUP6 JUMPDEST DUP3 DUP2 LT ISZERO PUSH2 0x160F JUMPI PUSH32 0xFFFFFFFFFFFFFFFFFFFFFFFFFFFFFFFFFFFFFFFFFFFFFFFFFFFFFFFFFFFFFFC0 DUP9 DUP7 SUB ADD DUP5 MSTORE DUP2 MLOAD DUP1 MLOAD DUP1 DUP8 MSTORE PUSH2 0x15D2 DUP2 DUP10 DUP10 ADD DUP11 DUP6 ADD PUSH2 0x1696 JUMP JUMPDEST PUSH1 0x1F ADD PUSH32 0xFFFFFFFFFFFFFFFFFFFFFFFFFFFFFFFFFFFFFFFFFFFFFFFFFFFFFFFFFFFFFFE0 AND SWAP6 SWAP1 SWAP6 ADD DUP7 ADD SWAP5 POP SWAP3 DUP6 ADD SWAP3 SWAP1 DUP6 ADD SWAP1 PUSH1 0x1 ADD PUSH2 0x158D JUMP JUMPDEST POP SWAP3 SWAP8 SWAP7 POP POP POP POP POP POP POP JUMP JUMPDEST SWAP1 ISZERO ISZERO DUP2 MSTORE PUSH1 0x20 ADD SWAP1 JUMP JUMPDEST SWAP1 DUP2 MSTORE PUSH1 0x20 ADD SWAP1 JUMP JUMPDEST SWAP2 DUP3 MSTORE PUSH1 0x20 DUP3 ADD MSTORE PUSH1 0x40 ADD SWAP1 JUMP JUMPDEST SWAP3 DUP4 MSTORE PUSH1 0x20 DUP4 ADD SWAP2 SWAP1 SWAP2 MSTORE PUSH1 0x40 DUP3 ADD MSTORE PUSH1 0x60 ADD SWAP1 JUMP JUMPDEST SWAP5 DUP6 MSTORE PUSH1 0x20 DUP6 ADD SWAP4 SWAP1 SWAP4 MSTORE PUSH1 0x40 DUP5 ADD SWAP2 SWAP1 SWAP2 MSTORE PUSH1 0x60 DUP4 ADD MSTORE PUSH1 0x80 DUP3 ADD MSTORE PUSH1 0xA0 ADD SWAP1 JUMP JUMPDEST PUSH4 0xFFFFFFFF SWAP2 SWAP1 SWAP2 AND DUP2 MSTORE PUSH1 0x20 ADD SWAP1 JUMP JUMPDEST PUSH1 0xFF SWAP2 SWAP1 SWAP2 AND DUP2 MSTORE PUSH1 0x20 ADD SWAP1 JUMP JUMPDEST PUSH1 0x0 JUMPDEST DUP4 DUP2 LT ISZERO PUSH2 0x16B1 JUMPI DUP2 DUP2 ADD MLOAD DUP4 DUP3 ADD MSTORE PUSH1 0x20 ADD PUSH2 0x1699 JUMP JUMPDEST DUP4 DUP2 GT ISZERO PUSH2 0x16C0 JUMPI PUSH1 0x0 DUP5 DUP5 ADD MSTORE JUMPDEST POP POP POP POP JUMP INVALID LOG3 PUSH6 0x627A7A723158 KECCAK256 0x23 0x4d 0xbf 0xb1 SWAP8 SWAP15 PUSH19 0x9E4B90BA58749EF12A931B7DF77BEB672B5D45 0xd4 LT 0xd2 ORIGIN SELFDESTRUCT RETURN PUSH13 0x6578706572696D656E74616CF5 PUSH5 0x736F6C6343 STOP SDIV 0xc STOP BLOCKHASH "
			}
		}
	},
	"sourceTreeHashHex": "0x9e6cebf28944709c8a61443cee34423818e2e28012df29d266d7f748afd6e805",
	"compiler": {
		"name": "solc",
		"version": "soljson-v0.5.12+commit.7709ece9.js",
		"settings": {
			"optimizer": {
				"enabled": true,
				"runs": 1000000,
				"details": {
					"yul": true,
					"deduplicate": true,
					"cse": true,
					"constantOptimizer": true
				}
			},
			"outputSelection": {
				"*": {
					"*": [
						"abi",
						"devdoc",
						"evm.bytecode.object",
						"evm.bytecode.sourceMap",
						"evm.deployedBytecode.object",
						"evm.deployedBytecode.sourceMap"
					]
				}
			},
			"evmVersion": "constantinople",
			"remappings": [
				"@0x/contracts-erc20=/Users/alextowle/0x-monorepo-1/contracts/staking/node_modules/@0x/contracts-erc20",
				"@0x/contracts-utils=/Users/alextowle/0x-monorepo-1/contracts/staking/node_modules/@0x/contracts-utils",
				"@0x/contracts-exchange-libs=/Users/alextowle/0x-monorepo-1/node_modules/@0x/contracts-exchange-libs",
				"@0x/contracts-asset-proxy=/Users/alextowle/0x-monorepo-1/contracts/staking/node_modules/@0x/contracts-asset-proxy"
			]
		}
	}
}