{
    "schemaVersion": "2.0.0",
    "contractName": "AffiliateFeeTransformer",
    "compilerOutput": {
        "abi": [
            {
                "inputs": [],
                "name": "deployer",
                "outputs": [
                    {
                        "internalType": "address",
                        "name": "",
                        "type": "address"
                    }
                ],
                "stateMutability": "view",
                "type": "function"
            },
            {
                "inputs": [
                    {
                        "internalType": "address payable",
                        "name": "ethRecipient",
                        "type": "address"
                    }
                ],
                "name": "die",
                "outputs": [],
                "stateMutability": "nonpayable",
                "type": "function"
            },
            {
                "inputs": [
                    {
                        "components": [
                            {
                                "internalType": "bytes32",
                                "name": "callDataHash",
                                "type": "bytes32"
                            },
                            {
                                "internalType": "address payable",
                                "name": "sender",
                                "type": "address"
                            },
                            {
                                "internalType": "address payable",
                                "name": "taker",
                                "type": "address"
                            },
                            {
                                "internalType": "bytes",
                                "name": "data",
                                "type": "bytes"
                            }
                        ],
                        "internalType": "struct IERC20Transformer.TransformContext",
                        "name": "context",
                        "type": "tuple"
                    }
                ],
                "name": "transform",
                "outputs": [
                    {
                        "internalType": "bytes4",
                        "name": "success",
                        "type": "bytes4"
                    }
                ],
                "stateMutability": "nonpayable",
                "type": "function"
            }
        ],
        "devdoc": {
            "details": "A transformer that transfers tokens to arbitrary addresses.",
            "kind": "dev",
            "methods": {
                "die(address)": {
                    "details": "Destruct this contract. Only callable by the deployer and will not      succeed in the context of a delegatecall (from another contract).",
                    "params": {
                        "ethRecipient": "The recipient of ETH held in this contract."
                    }
                },
                "transform((bytes32,address,address,bytes))": {
                    "details": "Transfers tokens to recipients.",
                    "params": {
                        "context": "Context information."
                    },
                    "returns": {
                        "success": "The success bytes (`LibERC20Transformer.TRANSFORMER_SUCCESS`)."
                    }
                }
            },
            "version": 1
        },
        "evm": {
            "bytecode": {
                "linkReferences": {},
                "object": "0x60c060405234801561001057600080fd5b5033606081811b608052309081901b60a052610b0261004c60003980610120528061014e52508060b1528060df528061018d5250610b026000f3fe608060405234801561001057600080fd5b50600436106100415760003560e01c8063c9353cb514610046578063d5f394881461005b578063df9aa1ee14610079575b600080fd5b610059610054366004610804565b610099565b005b61006361018b565b6040516100709190610959565b60405180910390f35b61008c6100873660046108d0565b6101af565b60405161007091906109c7565b3373ffffffffffffffffffffffffffffffffffffffff7f0000000000000000000000000000000000000000000000000000000000000000161461010857610108610103337f00000000000000000000000000000000000000000000000000000000000000006102d5565b610391565b3073ffffffffffffffffffffffffffffffffffffffff7f0000000000000000000000000000000000000000000000000000000000000000161461017257610172610103307f0000000000000000000000000000000000000000000000000000000000000000610399565b8073ffffffffffffffffffffffffffffffffffffffff16ff5b7f000000000000000000000000000000000000000000000000000000000000000081565b600060606101bf83820184610a16565b8101906101cc9190610820565b905060005b81518110156102aa5760008282815181106101e857fe5b60200260200101516020015190507fffffffffffffffffffffffffffffffffffffffffffffffffffffffffffffffff8114156102425761023f83838151811061022d57fe5b602002602001015160000151306103cf565b90505b80156102a1576102a183838151811061025757fe5b6020026020010151604001518285858151811061027057fe5b60200260200101516000015173ffffffffffffffffffffffffffffffffffffffff166104a69092919063ffffffff16565b506001016101d1565b507f13c9929e000000000000000000000000000000000000000000000000000000009150505b919050565b60607f5cec653b364cca3880afa73ceff506d0651d11d26abbbe4a56460aa933b21b08838360405160240161030b92919061097a565b604080517fffffffffffffffffffffffffffffffffffffffffffffffffffffffffffffffe08184030181529190526020810180517bffffffffffffffffffffffffffffffffffffffffffffffffffffffff167fffffffff000000000000000000000000000000000000000000000000000000009093169290921790915290505b92915050565b805160208201fd5b60607fb5cf2cd09307d6c717473134badbb9761c2c97d7565566c2a71eba6cd6fc514d838360405160240161030b92919061097a565b60006103da83610523565b156103fd575073ffffffffffffffffffffffffffffffffffffffff81163161038b565b6040517f70a0823100000000000000000000000000000000000000000000000000000000815273ffffffffffffffffffffffffffffffffffffffff8416906370a082319061044f908590600401610959565b60206040518083038186803b15801561046757600080fd5b505afa15801561047b573d6000803e3d6000fd5b505050506040513d601f19601f8201168201806040525081019061049f9190610908565b9392505050565b6104af83610523565b156104fd5760405173ffffffffffffffffffffffffffffffffffffffff83169082156108fc029083906000818181858888f193505050501580156104f7573d6000803e3d6000fd5b5061051e565b61051e73ffffffffffffffffffffffffffffffffffffffff84168383610555565b505050565b73ffffffffffffffffffffffffffffffffffffffff811673eeeeeeeeeeeeeeeeeeeeeeeeeeeeeeeeeeeeeeee14919050565b606063a9059cbb60e01b83836040516024016105729291906109a1565b604080517fffffffffffffffffffffffffffffffffffffffffffffffffffffffffffffffe08184030181529190526020810180517bffffffffffffffffffffffffffffffffffffffffffffffffffffffff167fffffffff000000000000000000000000000000000000000000000000000000009093169290921790915290506105fb8482610601565b50505050565b600060608373ffffffffffffffffffffffffffffffffffffffff168360405161062a9190610920565b6000604051808303816000865af19150503d8060008114610667576040519150601f19603f3d011682016040523d82523d6000602084013e61066c565b606091505b509150915081801561068257506106828161069b565b1561068e575050610697565b6105fb81610391565b5050565b60008151600014156106af575060016102d0565b8151602014156102d05760006106c68360006106e1565b905080600114156106db5760019150506102d0565b50919050565b600061049f838360008160200183511015610709576107096101036005855185602001610712565b50016020015190565b6060632800659560e01b848484604051602401610731939291906109f4565b604080517fffffffffffffffffffffffffffffffffffffffffffffffffffffffffffffffe08184030181529190526020810180517bffffffffffffffffffffffffffffffffffffffffffffffffffffffff167fffffffff000000000000000000000000000000000000000000000000000000009093169290921790915290509392505050565b6000606082840312156107c8578081fd5b6107d26060610a80565b905081356107df81610aa7565b81526020828101359082015260408201356107f981610aa7565b604082015292915050565b600060208284031215610815578081fd5b813561049f81610aa7565b60006020808385031215610832578182fd5b823567ffffffffffffffff80821115610849578384fd5b818501915085601f83011261085c578384fd5b81358181111561086a578485fd5b6108778485830201610a80565b81815284810192508385016060808402860187018a1015610896578788fd5b8795505b838610156108c2576108ac8a836107b7565b855260019590950194938601939081019061089a565b509098975050505050505050565b6000602082840312156108e1578081fd5b813567ffffffffffffffff8111156108f7578182fd5b82016080818503121561049f578182fd5b600060208284031215610919578081fd5b5051919050565b60008251815b818110156109405760208186018101518583015201610926565b8181111561094e5782828501525b509190910192915050565b73ffffffffffffffffffffffffffffffffffffffff91909116815260200190565b73ffffffffffffffffffffffffffffffffffffffff92831681529116602082015260400190565b73ffffffffffffffffffffffffffffffffffffffff929092168252602082015260400190565b7fffffffff0000000000000000000000000000000000000000000000000000000091909116815260200190565b6060810160088510610a0257fe5b938152602081019290925260409091015290565b60008083357fffffffffffffffffffffffffffffffffffffffffffffffffffffffffffffffe1843603018112610a4a578283fd5b83018035915067ffffffffffffffff821115610a64578283fd5b602001915036819003821315610a7957600080fd5b9250929050565b60405181810167ffffffffffffffff81118282101715610a9f57600080fd5b604052919050565b73ffffffffffffffffffffffffffffffffffffffff81168114610ac957600080fd5b5056fea264697066735822122080da5b6f216fade0bf6527724423b7bfce4c136748220fe4eb6ec7612a58552e64736f6c634300060c0033",
                "opcodes": "PUSH1 0xC0 PUSH1 0x40 MSTORE CALLVALUE DUP1 ISZERO PUSH2 0x10 JUMPI PUSH1 0x0 DUP1 REVERT JUMPDEST POP CALLER PUSH1 0x60 DUP2 DUP2 SHL PUSH1 0x80 MSTORE ADDRESS SWAP1 DUP2 SWAP1 SHL PUSH1 0xA0 MSTORE PUSH2 0xB02 PUSH2 0x4C PUSH1 0x0 CODECOPY DUP1 PUSH2 0x120 MSTORE DUP1 PUSH2 0x14E MSTORE POP DUP1 PUSH1 0xB1 MSTORE DUP1 PUSH1 0xDF MSTORE DUP1 PUSH2 0x18D MSTORE POP PUSH2 0xB02 PUSH1 0x0 RETURN INVALID PUSH1 0x80 PUSH1 0x40 MSTORE CALLVALUE DUP1 ISZERO PUSH2 0x10 JUMPI PUSH1 0x0 DUP1 REVERT JUMPDEST POP PUSH1 0x4 CALLDATASIZE LT PUSH2 0x41 JUMPI PUSH1 0x0 CALLDATALOAD PUSH1 0xE0 SHR DUP1 PUSH4 0xC9353CB5 EQ PUSH2 0x46 JUMPI DUP1 PUSH4 0xD5F39488 EQ PUSH2 0x5B JUMPI DUP1 PUSH4 0xDF9AA1EE EQ PUSH2 0x79 JUMPI JUMPDEST PUSH1 0x0 DUP1 REVERT JUMPDEST PUSH2 0x59 PUSH2 0x54 CALLDATASIZE PUSH1 0x4 PUSH2 0x804 JUMP JUMPDEST PUSH2 0x99 JUMP JUMPDEST STOP JUMPDEST PUSH2 0x63 PUSH2 0x18B JUMP JUMPDEST PUSH1 0x40 MLOAD PUSH2 0x70 SWAP2 SWAP1 PUSH2 0x959 JUMP JUMPDEST PUSH1 0x40 MLOAD DUP1 SWAP2 SUB SWAP1 RETURN JUMPDEST PUSH2 0x8C PUSH2 0x87 CALLDATASIZE PUSH1 0x4 PUSH2 0x8D0 JUMP JUMPDEST PUSH2 0x1AF JUMP JUMPDEST PUSH1 0x40 MLOAD PUSH2 0x70 SWAP2 SWAP1 PUSH2 0x9C7 JUMP JUMPDEST CALLER PUSH20 0xFFFFFFFFFFFFFFFFFFFFFFFFFFFFFFFFFFFFFFFF PUSH32 0x0 AND EQ PUSH2 0x108 JUMPI PUSH2 0x108 PUSH2 0x103 CALLER PUSH32 0x0 PUSH2 0x2D5 JUMP JUMPDEST PUSH2 0x391 JUMP JUMPDEST ADDRESS PUSH20 0xFFFFFFFFFFFFFFFFFFFFFFFFFFFFFFFFFFFFFFFF PUSH32 0x0 AND EQ PUSH2 0x172 JUMPI PUSH2 0x172 PUSH2 0x103 ADDRESS PUSH32 0x0 PUSH2 0x399 JUMP JUMPDEST DUP1 PUSH20 0xFFFFFFFFFFFFFFFFFFFFFFFFFFFFFFFFFFFFFFFF AND SELFDESTRUCT JUMPDEST PUSH32 0x0 DUP2 JUMP JUMPDEST PUSH1 0x0 PUSH1 0x60 PUSH2 0x1BF DUP4 DUP3 ADD DUP5 PUSH2 0xA16 JUMP JUMPDEST DUP2 ADD SWAP1 PUSH2 0x1CC SWAP2 SWAP1 PUSH2 0x820 JUMP JUMPDEST SWAP1 POP PUSH1 0x0 JUMPDEST DUP2 MLOAD DUP2 LT ISZERO PUSH2 0x2AA JUMPI PUSH1 0x0 DUP3 DUP3 DUP2 MLOAD DUP2 LT PUSH2 0x1E8 JUMPI INVALID JUMPDEST PUSH1 0x20 MUL PUSH1 0x20 ADD ADD MLOAD PUSH1 0x20 ADD MLOAD SWAP1 POP PUSH32 0xFFFFFFFFFFFFFFFFFFFFFFFFFFFFFFFFFFFFFFFFFFFFFFFFFFFFFFFFFFFFFFFF DUP2 EQ ISZERO PUSH2 0x242 JUMPI PUSH2 0x23F DUP4 DUP4 DUP2 MLOAD DUP2 LT PUSH2 0x22D JUMPI INVALID JUMPDEST PUSH1 0x20 MUL PUSH1 0x20 ADD ADD MLOAD PUSH1 0x0 ADD MLOAD ADDRESS PUSH2 0x3CF JUMP JUMPDEST SWAP1 POP JUMPDEST DUP1 ISZERO PUSH2 0x2A1 JUMPI PUSH2 0x2A1 DUP4 DUP4 DUP2 MLOAD DUP2 LT PUSH2 0x257 JUMPI INVALID JUMPDEST PUSH1 0x20 MUL PUSH1 0x20 ADD ADD MLOAD PUSH1 0x40 ADD MLOAD DUP3 DUP6 DUP6 DUP2 MLOAD DUP2 LT PUSH2 0x270 JUMPI INVALID JUMPDEST PUSH1 0x20 MUL PUSH1 0x20 ADD ADD MLOAD PUSH1 0x0 ADD MLOAD PUSH20 0xFFFFFFFFFFFFFFFFFFFFFFFFFFFFFFFFFFFFFFFF AND PUSH2 0x4A6 SWAP1 SWAP3 SWAP2 SWAP1 PUSH4 0xFFFFFFFF AND JUMP JUMPDEST POP PUSH1 0x1 ADD PUSH2 0x1D1 JUMP JUMPDEST POP PUSH32 0x13C9929E00000000000000000000000000000000000000000000000000000000 SWAP2 POP POP JUMPDEST SWAP2 SWAP1 POP JUMP JUMPDEST PUSH1 0x60 PUSH32 0x5CEC653B364CCA3880AFA73CEFF506D0651D11D26ABBBE4A56460AA933B21B08 DUP4 DUP4 PUSH1 0x40 MLOAD PUSH1 0x24 ADD PUSH2 0x30B SWAP3 SWAP2 SWAP1 PUSH2 0x97A JUMP JUMPDEST PUSH1 0x40 DUP1 MLOAD PUSH32 0xFFFFFFFFFFFFFFFFFFFFFFFFFFFFFFFFFFFFFFFFFFFFFFFFFFFFFFFFFFFFFFE0 DUP2 DUP5 SUB ADD DUP2 MSTORE SWAP2 SWAP1 MSTORE PUSH1 0x20 DUP2 ADD DUP1 MLOAD PUSH28 0xFFFFFFFFFFFFFFFFFFFFFFFFFFFFFFFFFFFFFFFFFFFFFFFFFFFFFFFF AND PUSH32 0xFFFFFFFF00000000000000000000000000000000000000000000000000000000 SWAP1 SWAP4 AND SWAP3 SWAP1 SWAP3 OR SWAP1 SWAP2 MSTORE SWAP1 POP JUMPDEST SWAP3 SWAP2 POP POP JUMP JUMPDEST DUP1 MLOAD PUSH1 0x20 DUP3 ADD REVERT JUMPDEST PUSH1 0x60 PUSH32 0xB5CF2CD09307D6C717473134BADBB9761C2C97D7565566C2A71EBA6CD6FC514D DUP4 DUP4 PUSH1 0x40 MLOAD PUSH1 0x24 ADD PUSH2 0x30B SWAP3 SWAP2 SWAP1 PUSH2 0x97A JUMP JUMPDEST PUSH1 0x0 PUSH2 0x3DA DUP4 PUSH2 0x523 JUMP JUMPDEST ISZERO PUSH2 0x3FD JUMPI POP PUSH20 0xFFFFFFFFFFFFFFFFFFFFFFFFFFFFFFFFFFFFFFFF DUP2 AND BALANCE PUSH2 0x38B JUMP JUMPDEST PUSH1 0x40 MLOAD PUSH32 0x70A0823100000000000000000000000000000000000000000000000000000000 DUP2 MSTORE PUSH20 0xFFFFFFFFFFFFFFFFFFFFFFFFFFFFFFFFFFFFFFFF DUP5 AND SWAP1 PUSH4 0x70A08231 SWAP1 PUSH2 0x44F SWAP1 DUP6 SWAP1 PUSH1 0x4 ADD PUSH2 0x959 JUMP JUMPDEST PUSH1 0x20 PUSH1 0x40 MLOAD DUP1 DUP4 SUB DUP2 DUP7 DUP1 EXTCODESIZE ISZERO DUP1 ISZERO PUSH2 0x467 JUMPI PUSH1 0x0 DUP1 REVERT JUMPDEST POP GAS STATICCALL ISZERO DUP1 ISZERO PUSH2 0x47B JUMPI RETURNDATASIZE PUSH1 0x0 DUP1 RETURNDATACOPY RETURNDATASIZE PUSH1 0x0 REVERT JUMPDEST POP POP POP POP PUSH1 0x40 MLOAD RETURNDATASIZE PUSH1 0x1F NOT PUSH1 0x1F DUP3 ADD AND DUP3 ADD DUP1 PUSH1 0x40 MSTORE POP DUP2 ADD SWAP1 PUSH2 0x49F SWAP2 SWAP1 PUSH2 0x908 JUMP JUMPDEST SWAP4 SWAP3 POP POP POP JUMP JUMPDEST PUSH2 0x4AF DUP4 PUSH2 0x523 JUMP JUMPDEST ISZERO PUSH2 0x4FD JUMPI PUSH1 0x40 MLOAD PUSH20 0xFFFFFFFFFFFFFFFFFFFFFFFFFFFFFFFFFFFFFFFF DUP4 AND SWAP1 DUP3 ISZERO PUSH2 0x8FC MUL SWAP1 DUP4 SWAP1 PUSH1 0x0 DUP2 DUP2 DUP2 DUP6 DUP9 DUP9 CALL SWAP4 POP POP POP POP ISZERO DUP1 ISZERO PUSH2 0x4F7 JUMPI RETURNDATASIZE PUSH1 0x0 DUP1 RETURNDATACOPY RETURNDATASIZE PUSH1 0x0 REVERT JUMPDEST POP PUSH2 0x51E JUMP JUMPDEST PUSH2 0x51E PUSH20 0xFFFFFFFFFFFFFFFFFFFFFFFFFFFFFFFFFFFFFFFF DUP5 AND DUP4 DUP4 PUSH2 0x555 JUMP JUMPDEST POP POP POP JUMP JUMPDEST PUSH20 0xFFFFFFFFFFFFFFFFFFFFFFFFFFFFFFFFFFFFFFFF DUP2 AND PUSH20 0xEEEEEEEEEEEEEEEEEEEEEEEEEEEEEEEEEEEEEEEE EQ SWAP2 SWAP1 POP JUMP JUMPDEST PUSH1 0x60 PUSH4 0xA9059CBB PUSH1 0xE0 SHL DUP4 DUP4 PUSH1 0x40 MLOAD PUSH1 0x24 ADD PUSH2 0x572 SWAP3 SWAP2 SWAP1 PUSH2 0x9A1 JUMP JUMPDEST PUSH1 0x40 DUP1 MLOAD PUSH32 0xFFFFFFFFFFFFFFFFFFFFFFFFFFFFFFFFFFFFFFFFFFFFFFFFFFFFFFFFFFFFFFE0 DUP2 DUP5 SUB ADD DUP2 MSTORE SWAP2 SWAP1 MSTORE PUSH1 0x20 DUP2 ADD DUP1 MLOAD PUSH28 0xFFFFFFFFFFFFFFFFFFFFFFFFFFFFFFFFFFFFFFFFFFFFFFFFFFFFFFFF AND PUSH32 0xFFFFFFFF00000000000000000000000000000000000000000000000000000000 SWAP1 SWAP4 AND SWAP3 SWAP1 SWAP3 OR SWAP1 SWAP2 MSTORE SWAP1 POP PUSH2 0x5FB DUP5 DUP3 PUSH2 0x601 JUMP JUMPDEST POP POP POP POP JUMP JUMPDEST PUSH1 0x0 PUSH1 0x60 DUP4 PUSH20 0xFFFFFFFFFFFFFFFFFFFFFFFFFFFFFFFFFFFFFFFF AND DUP4 PUSH1 0x40 MLOAD PUSH2 0x62A SWAP2 SWAP1 PUSH2 0x920 JUMP JUMPDEST PUSH1 0x0 PUSH1 0x40 MLOAD DUP1 DUP4 SUB DUP2 PUSH1 0x0 DUP7 GAS CALL SWAP2 POP POP RETURNDATASIZE DUP1 PUSH1 0x0 DUP2 EQ PUSH2 0x667 JUMPI PUSH1 0x40 MLOAD SWAP2 POP PUSH1 0x1F NOT PUSH1 0x3F RETURNDATASIZE ADD AND DUP3 ADD PUSH1 0x40 MSTORE RETURNDATASIZE DUP3 MSTORE RETURNDATASIZE PUSH1 0x0 PUSH1 0x20 DUP5 ADD RETURNDATACOPY PUSH2 0x66C JUMP JUMPDEST PUSH1 0x60 SWAP2 POP JUMPDEST POP SWAP2 POP SWAP2 POP DUP2 DUP1 ISZERO PUSH2 0x682 JUMPI POP PUSH2 0x682 DUP2 PUSH2 0x69B JUMP JUMPDEST ISZERO PUSH2 0x68E JUMPI POP POP PUSH2 0x697 JUMP JUMPDEST PUSH2 0x5FB DUP2 PUSH2 0x391 JUMP JUMPDEST POP POP JUMP JUMPDEST PUSH1 0x0 DUP2 MLOAD PUSH1 0x0 EQ ISZERO PUSH2 0x6AF JUMPI POP PUSH1 0x1 PUSH2 0x2D0 JUMP JUMPDEST DUP2 MLOAD PUSH1 0x20 EQ ISZERO PUSH2 0x2D0 JUMPI PUSH1 0x0 PUSH2 0x6C6 DUP4 PUSH1 0x0 PUSH2 0x6E1 JUMP JUMPDEST SWAP1 POP DUP1 PUSH1 0x1 EQ ISZERO PUSH2 0x6DB JUMPI PUSH1 0x1 SWAP2 POP POP PUSH2 0x2D0 JUMP JUMPDEST POP SWAP2 SWAP1 POP JUMP JUMPDEST PUSH1 0x0 PUSH2 0x49F DUP4 DUP4 PUSH1 0x0 DUP2 PUSH1 0x20 ADD DUP4 MLOAD LT ISZERO PUSH2 0x709 JUMPI PUSH2 0x709 PUSH2 0x103 PUSH1 0x5 DUP6 MLOAD DUP6 PUSH1 0x20 ADD PUSH2 0x712 JUMP JUMPDEST POP ADD PUSH1 0x20 ADD MLOAD SWAP1 JUMP JUMPDEST PUSH1 0x60 PUSH4 0x28006595 PUSH1 0xE0 SHL DUP5 DUP5 DUP5 PUSH1 0x40 MLOAD PUSH1 0x24 ADD PUSH2 0x731 SWAP4 SWAP3 SWAP2 SWAP1 PUSH2 0x9F4 JUMP JUMPDEST PUSH1 0x40 DUP1 MLOAD PUSH32 0xFFFFFFFFFFFFFFFFFFFFFFFFFFFFFFFFFFFFFFFFFFFFFFFFFFFFFFFFFFFFFFE0 DUP2 DUP5 SUB ADD DUP2 MSTORE SWAP2 SWAP1 MSTORE PUSH1 0x20 DUP2 ADD DUP1 MLOAD PUSH28 0xFFFFFFFFFFFFFFFFFFFFFFFFFFFFFFFFFFFFFFFFFFFFFFFFFFFFFFFF AND PUSH32 0xFFFFFFFF00000000000000000000000000000000000000000000000000000000 SWAP1 SWAP4 AND SWAP3 SWAP1 SWAP3 OR SWAP1 SWAP2 MSTORE SWAP1 POP SWAP4 SWAP3 POP POP POP JUMP JUMPDEST PUSH1 0x0 PUSH1 0x60 DUP3 DUP5 SUB SLT ISZERO PUSH2 0x7C8 JUMPI DUP1 DUP2 REVERT JUMPDEST PUSH2 0x7D2 PUSH1 0x60 PUSH2 0xA80 JUMP JUMPDEST SWAP1 POP DUP2 CALLDATALOAD PUSH2 0x7DF DUP2 PUSH2 0xAA7 JUMP JUMPDEST DUP2 MSTORE PUSH1 0x20 DUP3 DUP2 ADD CALLDATALOAD SWAP1 DUP3 ADD MSTORE PUSH1 0x40 DUP3 ADD CALLDATALOAD PUSH2 0x7F9 DUP2 PUSH2 0xAA7 JUMP JUMPDEST PUSH1 0x40 DUP3 ADD MSTORE SWAP3 SWAP2 POP POP JUMP JUMPDEST PUSH1 0x0 PUSH1 0x20 DUP3 DUP5 SUB SLT ISZERO PUSH2 0x815 JUMPI DUP1 DUP2 REVERT JUMPDEST DUP2 CALLDATALOAD PUSH2 0x49F DUP2 PUSH2 0xAA7 JUMP JUMPDEST PUSH1 0x0 PUSH1 0x20 DUP1 DUP4 DUP6 SUB SLT ISZERO PUSH2 0x832 JUMPI DUP2 DUP3 REVERT JUMPDEST DUP3 CALLDATALOAD PUSH8 0xFFFFFFFFFFFFFFFF DUP1 DUP3 GT ISZERO PUSH2 0x849 JUMPI DUP4 DUP5 REVERT JUMPDEST DUP2 DUP6 ADD SWAP2 POP DUP6 PUSH1 0x1F DUP4 ADD SLT PUSH2 0x85C JUMPI DUP4 DUP5 REVERT JUMPDEST DUP2 CALLDATALOAD DUP2 DUP2 GT ISZERO PUSH2 0x86A JUMPI DUP5 DUP6 REVERT JUMPDEST PUSH2 0x877 DUP5 DUP6 DUP4 MUL ADD PUSH2 0xA80 JUMP JUMPDEST DUP2 DUP2 MSTORE DUP5 DUP2 ADD SWAP3 POP DUP4 DUP6 ADD PUSH1 0x60 DUP1 DUP5 MUL DUP7 ADD DUP8 ADD DUP11 LT ISZERO PUSH2 0x896 JUMPI DUP8 DUP9 REVERT JUMPDEST DUP8 SWAP6 POP JUMPDEST DUP4 DUP7 LT ISZERO PUSH2 0x8C2 JUMPI PUSH2 0x8AC DUP11 DUP4 PUSH2 0x7B7 JUMP JUMPDEST DUP6 MSTORE PUSH1 0x1 SWAP6 SWAP1 SWAP6 ADD SWAP5 SWAP4 DUP7 ADD SWAP4 SWAP1 DUP2 ADD SWAP1 PUSH2 0x89A JUMP JUMPDEST POP SWAP1 SWAP9 SWAP8 POP POP POP POP POP POP POP POP JUMP JUMPDEST PUSH1 0x0 PUSH1 0x20 DUP3 DUP5 SUB SLT ISZERO PUSH2 0x8E1 JUMPI DUP1 DUP2 REVERT JUMPDEST DUP2 CALLDATALOAD PUSH8 0xFFFFFFFFFFFFFFFF DUP2 GT ISZERO PUSH2 0x8F7 JUMPI DUP2 DUP3 REVERT JUMPDEST DUP3 ADD PUSH1 0x80 DUP2 DUP6 SUB SLT ISZERO PUSH2 0x49F JUMPI DUP2 DUP3 REVERT JUMPDEST PUSH1 0x0 PUSH1 0x20 DUP3 DUP5 SUB SLT ISZERO PUSH2 0x919 JUMPI DUP1 DUP2 REVERT JUMPDEST POP MLOAD SWAP2 SWAP1 POP JUMP JUMPDEST PUSH1 0x0 DUP3 MLOAD DUP2 JUMPDEST DUP2 DUP2 LT ISZERO PUSH2 0x940 JUMPI PUSH1 0x20 DUP2 DUP7 ADD DUP2 ADD MLOAD DUP6 DUP4 ADD MSTORE ADD PUSH2 0x926 JUMP JUMPDEST DUP2 DUP2 GT ISZERO PUSH2 0x94E JUMPI DUP3 DUP3 DUP6 ADD MSTORE JUMPDEST POP SWAP2 SWAP1 SWAP2 ADD SWAP3 SWAP2 POP POP JUMP JUMPDEST PUSH20 0xFFFFFFFFFFFFFFFFFFFFFFFFFFFFFFFFFFFFFFFF SWAP2 SWAP1 SWAP2 AND DUP2 MSTORE PUSH1 0x20 ADD SWAP1 JUMP JUMPDEST PUSH20 0xFFFFFFFFFFFFFFFFFFFFFFFFFFFFFFFFFFFFFFFF SWAP3 DUP4 AND DUP2 MSTORE SWAP2 AND PUSH1 0x20 DUP3 ADD MSTORE PUSH1 0x40 ADD SWAP1 JUMP JUMPDEST PUSH20 0xFFFFFFFFFFFFFFFFFFFFFFFFFFFFFFFFFFFFFFFF SWAP3 SWAP1 SWAP3 AND DUP3 MSTORE PUSH1 0x20 DUP3 ADD MSTORE PUSH1 0x40 ADD SWAP1 JUMP JUMPDEST PUSH32 0xFFFFFFFF00000000000000000000000000000000000000000000000000000000 SWAP2 SWAP1 SWAP2 AND DUP2 MSTORE PUSH1 0x20 ADD SWAP1 JUMP JUMPDEST PUSH1 0x60 DUP2 ADD PUSH1 0x8 DUP6 LT PUSH2 0xA02 JUMPI INVALID JUMPDEST SWAP4 DUP2 MSTORE PUSH1 0x20 DUP2 ADD SWAP3 SWAP1 SWAP3 MSTORE PUSH1 0x40 SWAP1 SWAP2 ADD MSTORE SWAP1 JUMP JUMPDEST PUSH1 0x0 DUP1 DUP4 CALLDATALOAD PUSH32 0xFFFFFFFFFFFFFFFFFFFFFFFFFFFFFFFFFFFFFFFFFFFFFFFFFFFFFFFFFFFFFFE1 DUP5 CALLDATASIZE SUB ADD DUP2 SLT PUSH2 0xA4A JUMPI DUP3 DUP4 REVERT JUMPDEST DUP4 ADD DUP1 CALLDATALOAD SWAP2 POP PUSH8 0xFFFFFFFFFFFFFFFF DUP3 GT ISZERO PUSH2 0xA64 JUMPI DUP3 DUP4 REVERT JUMPDEST PUSH1 0x20 ADD SWAP2 POP CALLDATASIZE DUP2 SWAP1 SUB DUP3 SGT ISZERO PUSH2 0xA79 JUMPI PUSH1 0x0 DUP1 REVERT JUMPDEST SWAP3 POP SWAP3 SWAP1 POP JUMP JUMPDEST PUSH1 0x40 MLOAD DUP2 DUP2 ADD PUSH8 0xFFFFFFFFFFFFFFFF DUP2 GT DUP3 DUP3 LT OR ISZERO PUSH2 0xA9F JUMPI PUSH1 0x0 DUP1 REVERT JUMPDEST PUSH1 0x40 MSTORE SWAP2 SWAP1 POP JUMP JUMPDEST PUSH20 0xFFFFFFFFFFFFFFFFFFFFFFFFFFFFFFFFFFFFFFFF DUP2 AND DUP2 EQ PUSH2 0xAC9 JUMPI PUSH1 0x0 DUP1 REVERT JUMPDEST POP JUMP INVALID LOG2 PUSH5 0x6970667358 0x22 SLT KECCAK256 DUP1 0xDA JUMPDEST PUSH16 0x216FADE0BF6527724423B7BFCE4C1367 0x48 0x22 0xF 0xE4 0xEB PUSH15 0xC7612A58552E64736F6C634300060C STOP CALLER "
            }
        }
    },
    "sourceTreeHashHex": "0xf4906659ccbb807272f4694fcdc2fb49d4383f36854a80201af44e22a1293439",
    "compiler": {
        "name": "solc",
        "version": "0.6.12+commit.27d51765",
        "settings": {
            "remappings": [
                "@0x/contracts-utils=/Users/jacob/projects/ethdev/0x/workspace-remote/workspace/0x-monorepo/node_modules/@0x/contracts-utils",
                "@0x/contracts-erc20=/Users/jacob/projects/ethdev/0x/workspace-remote/workspace/0x-monorepo/node_modules/@0x/contracts-erc20"
            ],
            "optimizer": {
                "enabled": true,
                "runs": 1000000,
                "details": {
                    "yul": true,
                    "deduplicate": true,
                    "cse": true,
                    "constantOptimizer": true
                }
            },
            "outputSelection": {
                "*": {
                    "*": [
                        "abi",
                        "devdoc",
                        "evm.bytecode.object",
                        "evm.bytecode.sourceMap",
                        "evm.deployedBytecode.object",
                        "evm.deployedBytecode.sourceMap"
                    ]
                }
            },
            "evmVersion": "istanbul"
        }
    },
    "chains": {}
}