{
    "schemaVersion": "2.0.0",
    "contractName": "PayTakerTransformer",
    "compilerOutput": {
        "abi": [
            {
                "inputs": [],
                "stateMutability": "nonpayable",
                "type": "constructor"
            },
            {
                "inputs": [],
                "name": "deployer",
                "outputs": [
                    {
                        "internalType": "address",
                        "name": "",
                        "type": "address"
                    }
                ],
                "stateMutability": "view",
                "type": "function"
            },
            {
                "inputs": [
                    {
                        "internalType": "address payable",
                        "name": "ethRecipient",
                        "type": "address"
                    }
                ],
                "name": "die",
                "outputs": [],
                "stateMutability": "nonpayable",
                "type": "function"
            },
            {
                "inputs": [
                    {
                        "internalType": "bytes32",
                        "name": "",
                        "type": "bytes32"
                    },
                    {
                        "internalType": "address payable",
                        "name": "taker",
                        "type": "address"
                    },
                    {
                        "internalType": "bytes",
                        "name": "data_",
                        "type": "bytes"
                    }
                ],
                "name": "transform",
                "outputs": [
                    {
                        "internalType": "bytes4",
                        "name": "success",
                        "type": "bytes4"
                    }
                ],
                "stateMutability": "nonpayable",
                "type": "function"
            }
        ],
        "devdoc": {
            "details": "A transformer that transfers tokens to the taker.",
            "methods": {
                "constructor": {
                    "details": "Create this contract."
                },
                "die(address)": {
                    "details": "Destruct this contract. Only callable by the deployer and will not      succeed in the context of a delegatecall (from another contract).",
                    "params": {
                        "ethRecipient": "The recipient of ETH held in this contract."
                    }
                },
                "transform(bytes32,address,bytes)": {
                    "details": "Forwards tokens to the taker.",
                    "params": {
                        "data_": "ABI-encoded `TransformData`, indicating which tokens to transfer.",
                        "taker": "The taker address (caller of `TransformERC20.transformERC20()`)."
                    },
                    "returns": {
                        "success": "The success bytes (`LibERC20Transformer.TRANSFORMER_SUCCESS`)."
                    }
                }
            },
            "stateVariables": {
                "MAX_UINT256": {
                    "details": "Maximum uint256 value."
                }
            }
        },
        "evm": {
            "bytecode": {
                "linkReferences": {},
                "object": "0x60c060405234801561001057600080fd5b5033606081811b608052309081901b60a052610c2861004c60003980610120528061014e52508060b1528060df528061018d5250610c286000f3fe608060405234801561001057600080fd5b50600436106100415760003560e01c8063c9353cb514610046578063d5f394881461005b578063e063ed8114610079575b600080fd5b610059610054366004610847565b610099565b005b61006361018b565b6040516100709190610ac9565b60405180910390f35b61008c610087366004610863565b6101af565b6040516100709190610b37565b3373ffffffffffffffffffffffffffffffffffffffff7f0000000000000000000000000000000000000000000000000000000000000000161461010857610108610103337f000000000000000000000000000000000000000000000000000000000000000061030b565b6103ba565b3073ffffffffffffffffffffffffffffffffffffffff7f0000000000000000000000000000000000000000000000000000000000000000161461017257610172610103307f00000000000000000000000000000000000000000000000000000000000000006103c2565b8073ffffffffffffffffffffffffffffffffffffffff16ff5b7f000000000000000000000000000000000000000000000000000000000000000081565b60006101b96107bf565b6101c5838501856108e9565b905060005b8151518110156102df5760008183602001515111610208577fffffffffffffffffffffffffffffffffffffffffffffffffffffffffffffffff610221565b8260200151828151811061021857fe5b60200260200101515b90507fffffffffffffffffffffffffffffffffffffffffffffffffffffffffffffffff81141561028e5761028b308460000151848151811061025f57fe5b602002602001015173ffffffffffffffffffffffffffffffffffffffff166103d090919063ffffffff16565b90505b80156102d6576102d68782856000015185815181106102a957fe5b602002602001015173ffffffffffffffffffffffffffffffffffffffff166104a79092919063ffffffff16565b506001016101ca565b507f13c9929e000000000000000000000000000000000000000000000000000000009695505050505050565b606060405161031990610a2b565b60405180910390208383604051602401610334929190610aea565b604080517fffffffffffffffffffffffffffffffffffffffffffffffffffffffffffffffe08184030181529190526020810180517bffffffffffffffffffffffffffffffffffffffffffffffffffffffff167fffffffff000000000000000000000000000000000000000000000000000000009093169290921790915290505b92915050565b805160208201fd5b606060405161031990610a7a565b60006103db8361052a565b156103fe575073ffffffffffffffffffffffffffffffffffffffff8116316103b4565b6040517f70a0823100000000000000000000000000000000000000000000000000000000815273ffffffffffffffffffffffffffffffffffffffff8416906370a0823190610450908590600401610ac9565b60206040518083038186803b15801561046857600080fd5b505afa15801561047c573d6000803e3d6000fd5b505050506040513d601f19601f820116820180604052508101906104a091906109da565b9392505050565b6104b08361052a565b156104fe5760405173ffffffffffffffffffffffffffffffffffffffff83169082156108fc029083906000818181858888f193505050501580156104f8573d6000803e3d6000fd5b50610525565b61052573ffffffffffffffffffffffffffffffffffffffff8416838363ffffffff61055d16565b505050565b73ffffffffffffffffffffffffffffffffffffffff811673eeeeeeeeeeeeeeeeeeeeeeeeeeeeeeeeeeeeeeee145b919050565b606063a9059cbb60e01b838360405160240161057a929190610b11565b604080517fffffffffffffffffffffffffffffffffffffffffffffffffffffffffffffffe08184030181529190526020810180517bffffffffffffffffffffffffffffffffffffffffffffffffffffffff167fffffffff000000000000000000000000000000000000000000000000000000009093169290921790915290506106038482610609565b50505050565b600060608373ffffffffffffffffffffffffffffffffffffffff168360405161063291906109f2565b6000604051808303816000865af19150503d806000811461066f576040519150601f19603f3d011682016040523d82523d6000602084013e610674565b606091505b509150915081801561068a575061068a816106a3565b1561069657505061069f565b610603816103ba565b5050565b60008151600014156106b757506001610558565b8151602014156105585760006106ce8360006106e9565b905080600114156106e3576001915050610558565b50919050565b60006104a083836000816020018351101561071157610711610103600585518560200161071a565b50016020015190565b6060632800659560e01b84848460405160240161073993929190610b64565b604080517fffffffffffffffffffffffffffffffffffffffffffffffffffffffffffffffe08184030181529190526020810180517bffffffffffffffffffffffffffffffffffffffffffffffffffffffff167fffffffff000000000000000000000000000000000000000000000000000000009093169290921790915290509392505050565b604051806040016040528060608152602001606081525090565b600082601f8301126107e9578081fd5b81356107fc6107f782610bad565b610b86565b81815291506020808301908481018184028601820187101561081d57600080fd5b60005b8481101561083c57813584529282019290820190600101610820565b505050505092915050565b600060208284031215610858578081fd5b81356104a081610bcd565b60008060008060608587031215610878578283fd5b84359350602085013561088a81610bcd565b9250604085013567ffffffffffffffff808211156108a6578384fd5b81870188601f8201126108b7578485fd5b80359250818311156108c7578485fd5b8860208483010111156108d8578485fd5b959894975050602090940194505050565b600060208083850312156108fb578182fd5b823567ffffffffffffffff80821115610912578384fd5b81850160408188031215610924578485fd5b61092e6040610b86565b925080358281111561093e578586fd5b80820188601f82011261094f578687fd5b8035915061095f6107f783610bad565b82815286810190828801888502840189018c101561097b57898afd5b8993505b848410156109a657803561099281610bcd565b83526001939093019291880191880161097f565b50865250505080840135828111156109bc578586fd5b6109c8888284016107d9565b85850152505050809250505092915050565b6000602082840312156109eb578081fd5b5051919050565b60008251815b81811015610a1257602081860181015185830152016109f8565b81811115610a205782828501525b509190910192915050565b7f4f6e6c7943616c6c61626c6542794465706c6f7965724572726f72286164647281527f6573732c616464726573732900000000000000000000000000000000000000006020820152602c0190565b7f496e76616c6964457865637574696f6e436f6e746578744572726f722861646481527f726573732c6164647265737329000000000000000000000000000000000000006020820152602d0190565b73ffffffffffffffffffffffffffffffffffffffff91909116815260200190565b73ffffffffffffffffffffffffffffffffffffffff92831681529116602082015260400190565b73ffffffffffffffffffffffffffffffffffffffff929092168252602082015260400190565b7fffffffff0000000000000000000000000000000000000000000000000000000091909116815260200190565b6060810160088510610b7257fe5b938152602081019290925260409091015290565b60405181810167ffffffffffffffff81118282101715610ba557600080fd5b604052919050565b600067ffffffffffffffff821115610bc3578081fd5b5060209081020190565b73ffffffffffffffffffffffffffffffffffffffff81168114610bef57600080fd5b5056fea264697066735822122076170f8bbc6912059f8d2d2b4a0838d5195566675dad828a547c3abd62f2db5264736f6c634300060a0033",
                "opcodes": "PUSH1 0xC0 PUSH1 0x40 MSTORE CALLVALUE DUP1 ISZERO PUSH2 0x10 JUMPI PUSH1 0x0 DUP1 REVERT JUMPDEST POP CALLER PUSH1 0x60 DUP2 DUP2 SHL PUSH1 0x80 MSTORE ADDRESS SWAP1 DUP2 SWAP1 SHL PUSH1 0xA0 MSTORE PUSH2 0xC28 PUSH2 0x4C PUSH1 0x0 CODECOPY DUP1 PUSH2 0x120 MSTORE DUP1 PUSH2 0x14E MSTORE POP DUP1 PUSH1 0xB1 MSTORE DUP1 PUSH1 0xDF MSTORE DUP1 PUSH2 0x18D MSTORE POP PUSH2 0xC28 PUSH1 0x0 RETURN INVALID PUSH1 0x80 PUSH1 0x40 MSTORE CALLVALUE DUP1 ISZERO PUSH2 0x10 JUMPI PUSH1 0x0 DUP1 REVERT JUMPDEST POP PUSH1 0x4 CALLDATASIZE LT PUSH2 0x41 JUMPI PUSH1 0x0 CALLDATALOAD PUSH1 0xE0 SHR DUP1 PUSH4 0xC9353CB5 EQ PUSH2 0x46 JUMPI DUP1 PUSH4 0xD5F39488 EQ PUSH2 0x5B JUMPI DUP1 PUSH4 0xE063ED81 EQ PUSH2 0x79 JUMPI JUMPDEST PUSH1 0x0 DUP1 REVERT JUMPDEST PUSH2 0x59 PUSH2 0x54 CALLDATASIZE PUSH1 0x4 PUSH2 0x847 JUMP JUMPDEST PUSH2 0x99 JUMP JUMPDEST STOP JUMPDEST PUSH2 0x63 PUSH2 0x18B JUMP JUMPDEST PUSH1 0x40 MLOAD PUSH2 0x70 SWAP2 SWAP1 PUSH2 0xAC9 JUMP JUMPDEST PUSH1 0x40 MLOAD DUP1 SWAP2 SUB SWAP1 RETURN JUMPDEST PUSH2 0x8C PUSH2 0x87 CALLDATASIZE PUSH1 0x4 PUSH2 0x863 JUMP JUMPDEST PUSH2 0x1AF JUMP JUMPDEST PUSH1 0x40 MLOAD PUSH2 0x70 SWAP2 SWAP1 PUSH2 0xB37 JUMP JUMPDEST CALLER PUSH20 0xFFFFFFFFFFFFFFFFFFFFFFFFFFFFFFFFFFFFFFFF PUSH32 0x0 AND EQ PUSH2 0x108 JUMPI PUSH2 0x108 PUSH2 0x103 CALLER PUSH32 0x0 PUSH2 0x30B JUMP JUMPDEST PUSH2 0x3BA JUMP JUMPDEST ADDRESS PUSH20 0xFFFFFFFFFFFFFFFFFFFFFFFFFFFFFFFFFFFFFFFF PUSH32 0x0 AND EQ PUSH2 0x172 JUMPI PUSH2 0x172 PUSH2 0x103 ADDRESS PUSH32 0x0 PUSH2 0x3C2 JUMP JUMPDEST DUP1 PUSH20 0xFFFFFFFFFFFFFFFFFFFFFFFFFFFFFFFFFFFFFFFF AND SELFDESTRUCT JUMPDEST PUSH32 0x0 DUP2 JUMP JUMPDEST PUSH1 0x0 PUSH2 0x1B9 PUSH2 0x7BF JUMP JUMPDEST PUSH2 0x1C5 DUP4 DUP6 ADD DUP6 PUSH2 0x8E9 JUMP JUMPDEST SWAP1 POP PUSH1 0x0 JUMPDEST DUP2 MLOAD MLOAD DUP2 LT ISZERO PUSH2 0x2DF JUMPI PUSH1 0x0 DUP2 DUP4 PUSH1 0x20 ADD MLOAD MLOAD GT PUSH2 0x208 JUMPI PUSH32 0xFFFFFFFFFFFFFFFFFFFFFFFFFFFFFFFFFFFFFFFFFFFFFFFFFFFFFFFFFFFFFFFF PUSH2 0x221 JUMP JUMPDEST DUP3 PUSH1 0x20 ADD MLOAD DUP3 DUP2 MLOAD DUP2 LT PUSH2 0x218 JUMPI INVALID JUMPDEST PUSH1 0x20 MUL PUSH1 0x20 ADD ADD MLOAD JUMPDEST SWAP1 POP PUSH32 0xFFFFFFFFFFFFFFFFFFFFFFFFFFFFFFFFFFFFFFFFFFFFFFFFFFFFFFFFFFFFFFFF DUP2 EQ ISZERO PUSH2 0x28E JUMPI PUSH2 0x28B ADDRESS DUP5 PUSH1 0x0 ADD MLOAD DUP5 DUP2 MLOAD DUP2 LT PUSH2 0x25F JUMPI INVALID JUMPDEST PUSH1 0x20 MUL PUSH1 0x20 ADD ADD MLOAD PUSH20 0xFFFFFFFFFFFFFFFFFFFFFFFFFFFFFFFFFFFFFFFF AND PUSH2 0x3D0 SWAP1 SWAP2 SWAP1 PUSH4 0xFFFFFFFF AND JUMP JUMPDEST SWAP1 POP JUMPDEST DUP1 ISZERO PUSH2 0x2D6 JUMPI PUSH2 0x2D6 DUP8 DUP3 DUP6 PUSH1 0x0 ADD MLOAD DUP6 DUP2 MLOAD DUP2 LT PUSH2 0x2A9 JUMPI INVALID JUMPDEST PUSH1 0x20 MUL PUSH1 0x20 ADD ADD MLOAD PUSH20 0xFFFFFFFFFFFFFFFFFFFFFFFFFFFFFFFFFFFFFFFF AND PUSH2 0x4A7 SWAP1 SWAP3 SWAP2 SWAP1 PUSH4 0xFFFFFFFF AND JUMP JUMPDEST POP PUSH1 0x1 ADD PUSH2 0x1CA JUMP JUMPDEST POP PUSH32 0x13C9929E00000000000000000000000000000000000000000000000000000000 SWAP7 SWAP6 POP POP POP POP POP POP JUMP JUMPDEST PUSH1 0x60 PUSH1 0x40 MLOAD PUSH2 0x319 SWAP1 PUSH2 0xA2B JUMP JUMPDEST PUSH1 0x40 MLOAD DUP1 SWAP2 SUB SWAP1 KECCAK256 DUP4 DUP4 PUSH1 0x40 MLOAD PUSH1 0x24 ADD PUSH2 0x334 SWAP3 SWAP2 SWAP1 PUSH2 0xAEA JUMP JUMPDEST PUSH1 0x40 DUP1 MLOAD PUSH32 0xFFFFFFFFFFFFFFFFFFFFFFFFFFFFFFFFFFFFFFFFFFFFFFFFFFFFFFFFFFFFFFE0 DUP2 DUP5 SUB ADD DUP2 MSTORE SWAP2 SWAP1 MSTORE PUSH1 0x20 DUP2 ADD DUP1 MLOAD PUSH28 0xFFFFFFFFFFFFFFFFFFFFFFFFFFFFFFFFFFFFFFFFFFFFFFFFFFFFFFFF AND PUSH32 0xFFFFFFFF00000000000000000000000000000000000000000000000000000000 SWAP1 SWAP4 AND SWAP3 SWAP1 SWAP3 OR SWAP1 SWAP2 MSTORE SWAP1 POP JUMPDEST SWAP3 SWAP2 POP POP JUMP JUMPDEST DUP1 MLOAD PUSH1 0x20 DUP3 ADD REVERT JUMPDEST PUSH1 0x60 PUSH1 0x40 MLOAD PUSH2 0x319 SWAP1 PUSH2 0xA7A JUMP JUMPDEST PUSH1 0x0 PUSH2 0x3DB DUP4 PUSH2 0x52A JUMP JUMPDEST ISZERO PUSH2 0x3FE JUMPI POP PUSH20 0xFFFFFFFFFFFFFFFFFFFFFFFFFFFFFFFFFFFFFFFF DUP2 AND BALANCE PUSH2 0x3B4 JUMP JUMPDEST PUSH1 0x40 MLOAD PUSH32 0x70A0823100000000000000000000000000000000000000000000000000000000 DUP2 MSTORE PUSH20 0xFFFFFFFFFFFFFFFFFFFFFFFFFFFFFFFFFFFFFFFF DUP5 AND SWAP1 PUSH4 0x70A08231 SWAP1 PUSH2 0x450 SWAP1 DUP6 SWAP1 PUSH1 0x4 ADD PUSH2 0xAC9 JUMP JUMPDEST PUSH1 0x20 PUSH1 0x40 MLOAD DUP1 DUP4 SUB DUP2 DUP7 DUP1 EXTCODESIZE ISZERO DUP1 ISZERO PUSH2 0x468 JUMPI PUSH1 0x0 DUP1 REVERT JUMPDEST POP GAS STATICCALL ISZERO DUP1 ISZERO PUSH2 0x47C JUMPI RETURNDATASIZE PUSH1 0x0 DUP1 RETURNDATACOPY RETURNDATASIZE PUSH1 0x0 REVERT JUMPDEST POP POP POP POP PUSH1 0x40 MLOAD RETURNDATASIZE PUSH1 0x1F NOT PUSH1 0x1F DUP3 ADD AND DUP3 ADD DUP1 PUSH1 0x40 MSTORE POP DUP2 ADD SWAP1 PUSH2 0x4A0 SWAP2 SWAP1 PUSH2 0x9DA JUMP JUMPDEST SWAP4 SWAP3 POP POP POP JUMP JUMPDEST PUSH2 0x4B0 DUP4 PUSH2 0x52A JUMP JUMPDEST ISZERO PUSH2 0x4FE JUMPI PUSH1 0x40 MLOAD PUSH20 0xFFFFFFFFFFFFFFFFFFFFFFFFFFFFFFFFFFFFFFFF DUP4 AND SWAP1 DUP3 ISZERO PUSH2 0x8FC MUL SWAP1 DUP4 SWAP1 PUSH1 0x0 DUP2 DUP2 DUP2 DUP6 DUP9 DUP9 CALL SWAP4 POP POP POP POP ISZERO DUP1 ISZERO PUSH2 0x4F8 JUMPI RETURNDATASIZE PUSH1 0x0 DUP1 RETURNDATACOPY RETURNDATASIZE PUSH1 0x0 REVERT JUMPDEST POP PUSH2 0x525 JUMP JUMPDEST PUSH2 0x525 PUSH20 0xFFFFFFFFFFFFFFFFFFFFFFFFFFFFFFFFFFFFFFFF DUP5 AND DUP4 DUP4 PUSH4 0xFFFFFFFF PUSH2 0x55D AND JUMP JUMPDEST POP POP POP JUMP JUMPDEST PUSH20 0xFFFFFFFFFFFFFFFFFFFFFFFFFFFFFFFFFFFFFFFF DUP2 AND PUSH20 0xEEEEEEEEEEEEEEEEEEEEEEEEEEEEEEEEEEEEEEEE EQ JUMPDEST SWAP2 SWAP1 POP JUMP JUMPDEST PUSH1 0x60 PUSH4 0xA9059CBB PUSH1 0xE0 SHL DUP4 DUP4 PUSH1 0x40 MLOAD PUSH1 0x24 ADD PUSH2 0x57A SWAP3 SWAP2 SWAP1 PUSH2 0xB11 JUMP JUMPDEST PUSH1 0x40 DUP1 MLOAD PUSH32 0xFFFFFFFFFFFFFFFFFFFFFFFFFFFFFFFFFFFFFFFFFFFFFFFFFFFFFFFFFFFFFFE0 DUP2 DUP5 SUB ADD DUP2 MSTORE SWAP2 SWAP1 MSTORE PUSH1 0x20 DUP2 ADD DUP1 MLOAD PUSH28 0xFFFFFFFFFFFFFFFFFFFFFFFFFFFFFFFFFFFFFFFFFFFFFFFFFFFFFFFF AND PUSH32 0xFFFFFFFF00000000000000000000000000000000000000000000000000000000 SWAP1 SWAP4 AND SWAP3 SWAP1 SWAP3 OR SWAP1 SWAP2 MSTORE SWAP1 POP PUSH2 0x603 DUP5 DUP3 PUSH2 0x609 JUMP JUMPDEST POP POP POP POP JUMP JUMPDEST PUSH1 0x0 PUSH1 0x60 DUP4 PUSH20 0xFFFFFFFFFFFFFFFFFFFFFFFFFFFFFFFFFFFFFFFF AND DUP4 PUSH1 0x40 MLOAD PUSH2 0x632 SWAP2 SWAP1 PUSH2 0x9F2 JUMP JUMPDEST PUSH1 0x0 PUSH1 0x40 MLOAD DUP1 DUP4 SUB DUP2 PUSH1 0x0 DUP7 GAS CALL SWAP2 POP POP RETURNDATASIZE DUP1 PUSH1 0x0 DUP2 EQ PUSH2 0x66F JUMPI PUSH1 0x40 MLOAD SWAP2 POP PUSH1 0x1F NOT PUSH1 0x3F RETURNDATASIZE ADD AND DUP3 ADD PUSH1 0x40 MSTORE RETURNDATASIZE DUP3 MSTORE RETURNDATASIZE PUSH1 0x0 PUSH1 0x20 DUP5 ADD RETURNDATACOPY PUSH2 0x674 JUMP JUMPDEST PUSH1 0x60 SWAP2 POP JUMPDEST POP SWAP2 POP SWAP2 POP DUP2 DUP1 ISZERO PUSH2 0x68A JUMPI POP PUSH2 0x68A DUP2 PUSH2 0x6A3 JUMP JUMPDEST ISZERO PUSH2 0x696 JUMPI POP POP PUSH2 0x69F JUMP JUMPDEST PUSH2 0x603 DUP2 PUSH2 0x3BA JUMP JUMPDEST POP POP JUMP JUMPDEST PUSH1 0x0 DUP2 MLOAD PUSH1 0x0 EQ ISZERO PUSH2 0x6B7 JUMPI POP PUSH1 0x1 PUSH2 0x558 JUMP JUMPDEST DUP2 MLOAD PUSH1 0x20 EQ ISZERO PUSH2 0x558 JUMPI PUSH1 0x0 PUSH2 0x6CE DUP4 PUSH1 0x0 PUSH2 0x6E9 JUMP JUMPDEST SWAP1 POP DUP1 PUSH1 0x1 EQ ISZERO PUSH2 0x6E3 JUMPI PUSH1 0x1 SWAP2 POP POP PUSH2 0x558 JUMP JUMPDEST POP SWAP2 SWAP1 POP JUMP JUMPDEST PUSH1 0x0 PUSH2 0x4A0 DUP4 DUP4 PUSH1 0x0 DUP2 PUSH1 0x20 ADD DUP4 MLOAD LT ISZERO PUSH2 0x711 JUMPI PUSH2 0x711 PUSH2 0x103 PUSH1 0x5 DUP6 MLOAD DUP6 PUSH1 0x20 ADD PUSH2 0x71A JUMP JUMPDEST POP ADD PUSH1 0x20 ADD MLOAD SWAP1 JUMP JUMPDEST PUSH1 0x60 PUSH4 0x28006595 PUSH1 0xE0 SHL DUP5 DUP5 DUP5 PUSH1 0x40 MLOAD PUSH1 0x24 ADD PUSH2 0x739 SWAP4 SWAP3 SWAP2 SWAP1 PUSH2 0xB64 JUMP JUMPDEST PUSH1 0x40 DUP1 MLOAD PUSH32 0xFFFFFFFFFFFFFFFFFFFFFFFFFFFFFFFFFFFFFFFFFFFFFFFFFFFFFFFFFFFFFFE0 DUP2 DUP5 SUB ADD DUP2 MSTORE SWAP2 SWAP1 MSTORE PUSH1 0x20 DUP2 ADD DUP1 MLOAD PUSH28 0xFFFFFFFFFFFFFFFFFFFFFFFFFFFFFFFFFFFFFFFFFFFFFFFFFFFFFFFF AND PUSH32 0xFFFFFFFF00000000000000000000000000000000000000000000000000000000 SWAP1 SWAP4 AND SWAP3 SWAP1 SWAP3 OR SWAP1 SWAP2 MSTORE SWAP1 POP SWAP4 SWAP3 POP POP POP JUMP JUMPDEST PUSH1 0x40 MLOAD DUP1 PUSH1 0x40 ADD PUSH1 0x40 MSTORE DUP1 PUSH1 0x60 DUP2 MSTORE PUSH1 0x20 ADD PUSH1 0x60 DUP2 MSTORE POP SWAP1 JUMP JUMPDEST PUSH1 0x0 DUP3 PUSH1 0x1F DUP4 ADD SLT PUSH2 0x7E9 JUMPI DUP1 DUP2 REVERT JUMPDEST DUP2 CALLDATALOAD PUSH2 0x7FC PUSH2 0x7F7 DUP3 PUSH2 0xBAD JUMP JUMPDEST PUSH2 0xB86 JUMP JUMPDEST DUP2 DUP2 MSTORE SWAP2 POP PUSH1 0x20 DUP1 DUP4 ADD SWAP1 DUP5 DUP2 ADD DUP2 DUP5 MUL DUP7 ADD DUP3 ADD DUP8 LT ISZERO PUSH2 0x81D JUMPI PUSH1 0x0 DUP1 REVERT JUMPDEST PUSH1 0x0 JUMPDEST DUP5 DUP2 LT ISZERO PUSH2 0x83C JUMPI DUP2 CALLDATALOAD DUP5 MSTORE SWAP3 DUP3 ADD SWAP3 SWAP1 DUP3 ADD SWAP1 PUSH1 0x1 ADD PUSH2 0x820 JUMP JUMPDEST POP POP POP POP POP SWAP3 SWAP2 POP POP JUMP JUMPDEST PUSH1 0x0 PUSH1 0x20 DUP3 DUP5 SUB SLT ISZERO PUSH2 0x858 JUMPI DUP1 DUP2 REVERT JUMPDEST DUP2 CALLDATALOAD PUSH2 0x4A0 DUP2 PUSH2 0xBCD JUMP JUMPDEST PUSH1 0x0 DUP1 PUSH1 0x0 DUP1 PUSH1 0x60 DUP6 DUP8 SUB SLT ISZERO PUSH2 0x878 JUMPI DUP3 DUP4 REVERT JUMPDEST DUP5 CALLDATALOAD SWAP4 POP PUSH1 0x20 DUP6 ADD CALLDATALOAD PUSH2 0x88A DUP2 PUSH2 0xBCD JUMP JUMPDEST SWAP3 POP PUSH1 0x40 DUP6 ADD CALLDATALOAD PUSH8 0xFFFFFFFFFFFFFFFF DUP1 DUP3 GT ISZERO PUSH2 0x8A6 JUMPI DUP4 DUP5 REVERT JUMPDEST DUP2 DUP8 ADD DUP9 PUSH1 0x1F DUP3 ADD SLT PUSH2 0x8B7 JUMPI DUP5 DUP6 REVERT JUMPDEST DUP1 CALLDATALOAD SWAP3 POP DUP2 DUP4 GT ISZERO PUSH2 0x8C7 JUMPI DUP5 DUP6 REVERT JUMPDEST DUP9 PUSH1 0x20 DUP5 DUP4 ADD ADD GT ISZERO PUSH2 0x8D8 JUMPI DUP5 DUP6 REVERT JUMPDEST SWAP6 SWAP9 SWAP5 SWAP8 POP POP PUSH1 0x20 SWAP1 SWAP5 ADD SWAP5 POP POP POP JUMP JUMPDEST PUSH1 0x0 PUSH1 0x20 DUP1 DUP4 DUP6 SUB SLT ISZERO PUSH2 0x8FB JUMPI DUP2 DUP3 REVERT JUMPDEST DUP3 CALLDATALOAD PUSH8 0xFFFFFFFFFFFFFFFF DUP1 DUP3 GT ISZERO PUSH2 0x912 JUMPI DUP4 DUP5 REVERT JUMPDEST DUP2 DUP6 ADD PUSH1 0x40 DUP2 DUP9 SUB SLT ISZERO PUSH2 0x924 JUMPI DUP5 DUP6 REVERT JUMPDEST PUSH2 0x92E PUSH1 0x40 PUSH2 0xB86 JUMP JUMPDEST SWAP3 POP DUP1 CALLDATALOAD DUP3 DUP2 GT ISZERO PUSH2 0x93E JUMPI DUP6 DUP7 REVERT JUMPDEST DUP1 DUP3 ADD DUP9 PUSH1 0x1F DUP3 ADD SLT PUSH2 0x94F JUMPI DUP7 DUP8 REVERT JUMPDEST DUP1 CALLDATALOAD SWAP2 POP PUSH2 0x95F PUSH2 0x7F7 DUP4 PUSH2 0xBAD JUMP JUMPDEST DUP3 DUP2 MSTORE DUP7 DUP2 ADD SWAP1 DUP3 DUP9 ADD DUP9 DUP6 MUL DUP5 ADD DUP10 ADD DUP13 LT ISZERO PUSH2 0x97B JUMPI DUP10 DUP11 REVERT JUMPDEST DUP10 SWAP4 POP JUMPDEST DUP5 DUP5 LT ISZERO PUSH2 0x9A6 JUMPI DUP1 CALLDATALOAD PUSH2 0x992 DUP2 PUSH2 0xBCD JUMP JUMPDEST DUP4 MSTORE PUSH1 0x1 SWAP4 SWAP1 SWAP4 ADD SWAP3 SWAP2 DUP9 ADD SWAP2 DUP9 ADD PUSH2 0x97F JUMP JUMPDEST POP DUP7 MSTORE POP POP POP DUP1 DUP5 ADD CALLDATALOAD DUP3 DUP2 GT ISZERO PUSH2 0x9BC JUMPI DUP6 DUP7 REVERT JUMPDEST PUSH2 0x9C8 DUP9 DUP3 DUP5 ADD PUSH2 0x7D9 JUMP JUMPDEST DUP6 DUP6 ADD MSTORE POP POP POP DUP1 SWAP3 POP POP POP SWAP3 SWAP2 POP POP JUMP JUMPDEST PUSH1 0x0 PUSH1 0x20 DUP3 DUP5 SUB SLT ISZERO PUSH2 0x9EB JUMPI DUP1 DUP2 REVERT JUMPDEST POP MLOAD SWAP2 SWAP1 POP JUMP JUMPDEST PUSH1 0x0 DUP3 MLOAD DUP2 JUMPDEST DUP2 DUP2 LT ISZERO PUSH2 0xA12 JUMPI PUSH1 0x20 DUP2 DUP7 ADD DUP2 ADD MLOAD DUP6 DUP4 ADD MSTORE ADD PUSH2 0x9F8 JUMP JUMPDEST DUP2 DUP2 GT ISZERO PUSH2 0xA20 JUMPI DUP3 DUP3 DUP6 ADD MSTORE JUMPDEST POP SWAP2 SWAP1 SWAP2 ADD SWAP3 SWAP2 POP POP JUMP JUMPDEST PUSH32 0x4F6E6C7943616C6C61626C6542794465706C6F7965724572726F722861646472 DUP2 MSTORE PUSH32 0x6573732C61646472657373290000000000000000000000000000000000000000 PUSH1 0x20 DUP3 ADD MSTORE PUSH1 0x2C ADD SWAP1 JUMP JUMPDEST PUSH32 0x496E76616C6964457865637574696F6E436F6E746578744572726F7228616464 DUP2 MSTORE PUSH32 0x726573732C616464726573732900000000000000000000000000000000000000 PUSH1 0x20 DUP3 ADD MSTORE PUSH1 0x2D ADD SWAP1 JUMP JUMPDEST PUSH20 0xFFFFFFFFFFFFFFFFFFFFFFFFFFFFFFFFFFFFFFFF SWAP2 SWAP1 SWAP2 AND DUP2 MSTORE PUSH1 0x20 ADD SWAP1 JUMP JUMPDEST PUSH20 0xFFFFFFFFFFFFFFFFFFFFFFFFFFFFFFFFFFFFFFFF SWAP3 DUP4 AND DUP2 MSTORE SWAP2 AND PUSH1 0x20 DUP3 ADD MSTORE PUSH1 0x40 ADD SWAP1 JUMP JUMPDEST PUSH20 0xFFFFFFFFFFFFFFFFFFFFFFFFFFFFFFFFFFFFFFFF SWAP3 SWAP1 SWAP3 AND DUP3 MSTORE PUSH1 0x20 DUP3 ADD MSTORE PUSH1 0x40 ADD SWAP1 JUMP JUMPDEST PUSH32 0xFFFFFFFF00000000000000000000000000000000000000000000000000000000 SWAP2 SWAP1 SWAP2 AND DUP2 MSTORE PUSH1 0x20 ADD SWAP1 JUMP JUMPDEST PUSH1 0x60 DUP2 ADD PUSH1 0x8 DUP6 LT PUSH2 0xB72 JUMPI INVALID JUMPDEST SWAP4 DUP2 MSTORE PUSH1 0x20 DUP2 ADD SWAP3 SWAP1 SWAP3 MSTORE PUSH1 0x40 SWAP1 SWAP2 ADD MSTORE SWAP1 JUMP JUMPDEST PUSH1 0x40 MLOAD DUP2 DUP2 ADD PUSH8 0xFFFFFFFFFFFFFFFF DUP2 GT DUP3 DUP3 LT OR ISZERO PUSH2 0xBA5 JUMPI PUSH1 0x0 DUP1 REVERT JUMPDEST PUSH1 0x40 MSTORE SWAP2 SWAP1 POP JUMP JUMPDEST PUSH1 0x0 PUSH8 0xFFFFFFFFFFFFFFFF DUP3 GT ISZERO PUSH2 0xBC3 JUMPI DUP1 DUP2 REVERT JUMPDEST POP PUSH1 0x20 SWAP1 DUP2 MUL ADD SWAP1 JUMP JUMPDEST PUSH20 0xFFFFFFFFFFFFFFFFFFFFFFFFFFFFFFFFFFFFFFFF DUP2 AND DUP2 EQ PUSH2 0xBEF JUMPI PUSH1 0x0 DUP1 REVERT JUMPDEST POP JUMP INVALID LOG2 PUSH5 0x6970667358 0x22 SLT KECCAK256 PUSH23 0x170F8BBC6912059F8D2D2B4A0838D5195566675DAD828A SLOAD PUSH29 0x3ABD62F2DB5264736F6C634300060A0033000000000000000000000000 "
            }
        }
    },
    "sourceTreeHashHex": "0xd37af2894994fa6ccbb4c8a66f7882710580f1c6c8e3bc5a5cc7a612fb64e2d1",
    "compiler": {
        "name": "solc",
        "version": "0.6.10+commit.00c0fcaf",
        "settings": {
            "remappings": [
                "@0x/contracts-utils=/Users/jacob/projects/ethdev/0x/workspace-remote/workspace/0x-monorepo/node_modules/@0x/contracts-utils",
                "@0x/contracts-erc20=/Users/jacob/projects/ethdev/0x/workspace-remote/workspace/0x-monorepo/node_modules/@0x/contracts-erc20"
            ],
            "optimizer": {
                "enabled": true,
                "runs": 1000000,
                "details": {
                    "yul": true,
                    "deduplicate": true,
                    "cse": true,
                    "constantOptimizer": true
                }
            },
            "outputSelection": {
                "*": {
                    "*": [
                        "abi",
                        "devdoc",
                        "evm.bytecode.object",
                        "evm.bytecode.sourceMap",
                        "evm.deployedBytecode.object",
                        "evm.deployedBytecode.sourceMap"
                    ]
                }
            },
            "evmVersion": "istanbul"
        }
    },
    "chains": {}
}