{
    "schemaVersion": "2.0.0",
    "contractName": "TokenSpender",
    "compilerOutput": {
        "abi": [
            {
                "inputs": [],
                "stateMutability": "nonpayable",
                "type": "constructor"
            },
            {
                "inputs": [],
                "name": "FEATURE_NAME",
                "outputs": [
                    {
                        "internalType": "string",
                        "name": "",
                        "type": "string"
                    }
                ],
                "stateMutability": "view",
                "type": "function"
            },
            {
                "inputs": [],
                "name": "FEATURE_VERSION",
                "outputs": [
                    {
                        "internalType": "uint256",
                        "name": "",
                        "type": "uint256"
                    }
                ],
                "stateMutability": "view",
                "type": "function"
            },
            {
                "inputs": [
                    {
                        "internalType": "contract IERC20TokenV06",
                        "name": "token",
                        "type": "address"
                    },
                    {
                        "internalType": "address",
                        "name": "owner",
                        "type": "address"
                    },
                    {
                        "internalType": "address",
                        "name": "to",
                        "type": "address"
                    },
                    {
                        "internalType": "uint256",
                        "name": "amount",
                        "type": "uint256"
                    }
                ],
                "name": "_spendERC20Tokens",
                "outputs": [],
                "stateMutability": "nonpayable",
                "type": "function"
            },
            {
                "inputs": [],
                "name": "getAllowanceTarget",
                "outputs": [
                    {
                        "internalType": "address",
                        "name": "target",
                        "type": "address"
                    }
                ],
                "stateMutability": "view",
                "type": "function"
            },
            {
                "inputs": [
                    {
                        "internalType": "contract IERC20TokenV06",
                        "name": "token",
                        "type": "address"
                    },
                    {
                        "internalType": "address",
                        "name": "owner",
                        "type": "address"
                    }
                ],
                "name": "getSpendableERC20BalanceOf",
                "outputs": [
                    {
                        "internalType": "uint256",
                        "name": "amount",
                        "type": "uint256"
                    }
                ],
                "stateMutability": "view",
                "type": "function"
            },
            {
                "inputs": [
                    {
                        "internalType": "contract IAllowanceTarget",
                        "name": "allowanceTarget",
                        "type": "address"
                    }
                ],
                "name": "migrate",
                "outputs": [
                    {
                        "internalType": "bytes4",
                        "name": "success",
                        "type": "bytes4"
                    }
                ],
                "stateMutability": "nonpayable",
                "type": "function"
            }
        ],
        "devdoc": {
            "details": "Feature that allows spending token allowances.",
            "kind": "dev",
            "methods": {
                "_spendERC20Tokens(address,address,address,uint256)": {
                    "details": "Transfers ERC20 tokens from `owner` to `to`. Only callable from within.",
                    "params": {
                        "amount": "The amount of `token` to transfer.",
                        "owner": "The owner of the tokens.",
                        "to": "The recipient of the tokens.",
                        "token": "The token to spend."
                    }
                },
                "getAllowanceTarget()": {
                    "details": "Get the address of the allowance target.",
                    "returns": {
                        "target": "The target of token allowances."
                    }
                },
                "getSpendableERC20BalanceOf(address,address)": {
                    "details": "Gets the maximum amount of an ERC20 token `token` that can be      pulled from `owner` by the token spender.",
                    "params": {
                        "owner": "The owner of the tokens.",
                        "token": "The token to spend."
                    },
                    "returns": {
                        "amount": "The amount of tokens that can be pulled."
                    }
                },
                "migrate(address)": {
                    "details": "Initialize and register this feature. Should be delegatecalled      into during a `Migrate.migrate()`.",
                    "params": {
                        "allowanceTarget": "An `allowanceTarget` instance, configured to have        the ZeroeEx contract as an authority."
                    },
                    "returns": {
                        "success": "`MIGRATE_SUCCESS` on success."
                    }
                }
            },
            "stateVariables": {
                "FEATURE_NAME": {
                    "details": "Name of this feature."
                },
                "FEATURE_VERSION": {
                    "details": "Version of this feature."
                }
            },
            "version": 1
        },
        "evm": {
            "bytecode": {
                "linkReferences": {},
                "object": "0x60c060405261001a60016000806001600160e01b0361003616565b60a05234801561002957600080fd5b503060601b608052610068565b6bffffffff0000000000000000604084901b1667ffffffff00000000602084901b1617811763ffffffff169392505050565b60805160601c60a051610e5561008e6000398061010952508061084e5250610e556000f3fe608060405234801561001057600080fd5b50600436106100725760003560e01c806389dd02e71161005057806389dd02e7146100bd578063ce5494bb146100d2578063f7c3a33b146100f257610072565b8063031b905c14610077578063496f471e146100955780636ae4b4f7146100a8575b600080fd5b61007f610107565b60405161008c9190610dc1565b60405180910390f35b61007f6100a3366004610a71565b61012b565b6100b06102a4565b60405161008c9190610dae565b6100d06100cb366004610aa9565b6102dd565b005b6100e56100e0366004610a55565b610528565b60405161008c9190610d17565b6100fa610619565b60405161008c9190610c15565b7f000000000000000000000000000000000000000000000000000000000000000081565b600061029d8373ffffffffffffffffffffffffffffffffffffffff1663dd62ed3e8461015561063f565b546040517fffffffff0000000000000000000000000000000000000000000000000000000060e085901b1681526101a6929173ffffffffffffffffffffffffffffffffffffffff1690600401610c36565b60206040518083038186803b1580156101be57600080fd5b505afa1580156101d2573d6000803e3d6000fd5b505050506040513d601f19601f820116820180604052508101906101f69190610af9565b6040517f70a0823100000000000000000000000000000000000000000000000000000000815273ffffffffffffffffffffffffffffffffffffffff8616906370a0823190610248908790600401610c15565b60206040518083038186803b15801561026057600080fd5b505afa158015610274573d6000803e3d6000fd5b505050506040513d601f19601f820116820180604052508101906102989190610af9565b610652565b9392505050565b6040518060400160405280600c81526020017f546f6b656e5370656e646572000000000000000000000000000000000000000081525081565b3330146102f5576102f56102f033610668565b610713565b60006102ff61063f565b5460405173ffffffffffffffffffffffffffffffffffffffff909116915060009060609083907fbca8c7b5000000000000000000000000000000000000000000000000000000009089907f23b872dd000000000000000000000000000000000000000000000000000000009061037d908b908b908b90602401610caf565b604080517fffffffffffffffffffffffffffffffffffffffffffffffffffffffffffffffe08184030181529181526020820180517bffffffffffffffffffffffffffffffffffffffffffffffffffffffff167fffffffff0000000000000000000000000000000000000000000000000000000090941693909317909252905161040a929190602401610ce0565b604080517fffffffffffffffffffffffffffffffffffffffffffffffffffffffffffffffe08184030181529181526020820180517bffffffffffffffffffffffffffffffffffffffffffffffffffffffff167fffffffff000000000000000000000000000000000000000000000000000000009094169390931790925290516104939190610b5b565b6000604051808303816000865af19150503d80600081146104d0576040519150601f19603f3d011682016040523d82523d6000602084013e6104d5565b606091505b509150915081156104f757808060200190518101906104f4919061099c565b90505b81158061050a57506105088161071b565b155b1561051f5761051f6102f08888888886610761565b50505050505050565b60008161053361063f565b80547fffffffffffffffffffffffff00000000000000000000000000000000000000001673ffffffffffffffffffffffffffffffffffffffff9290921691909117905561059f7ff7c3a33b00000000000000000000000000000000000000000000000000000000610818565b6105c87f89dd02e700000000000000000000000000000000000000000000000000000000610818565b6105f17f496f471e00000000000000000000000000000000000000000000000000000000610818565b507f2c64c5ef000000000000000000000000000000000000000000000000000000005b919050565b600061062361063f565b5473ffffffffffffffffffffffffffffffffffffffff16905090565b60008061064c60036108ab565b92915050565b6000818310610661578161029d565b5090919050565b606060405161067690610bec565b60405180910390208260405160240161068f9190610c15565b604080517fffffffffffffffffffffffffffffffffffffffffffffffffffffffffffffffe08184030181529190526020810180517bffffffffffffffffffffffffffffffffffffffffffffffffffffffff167fffffffff00000000000000000000000000000000000000000000000000000000909316929092179091529050919050565b805160208201fd5b600081516000141561072f57506001610614565b8151602014156106145760006107468360006108c6565b9050806001141561075b576001915050610614565b50919050565b606060405161076f90610b77565b60405180910390208686868686604051602401610790959493929190610c5d565b604080517fffffffffffffffffffffffffffffffffffffffffffffffffffffffffffffffe08184030181529190526020810180517bffffffffffffffffffffffffffffffffffffffffffffffffffffffff167fffffffff0000000000000000000000000000000000000000000000000000000090931692909217909152905095945050505050565b6040517f6eb224cb0000000000000000000000000000000000000000000000000000000081523090636eb224cb906108769084907f000000000000000000000000000000000000000000000000000000000000000090600401610d44565b600060405180830381600087803b15801561089057600080fd5b505af11580156108a4573d6000803e3d6000fd5b5050505050565b600060808260058111156108bb57fe5b600101901b92915050565b600061029d8383600081602001835110156108ee576108ee6102f060058551856020016108f7565b50016020015190565b6060632800659560e01b84848460405160240161091693929190610d8c565b604080517fffffffffffffffffffffffffffffffffffffffffffffffffffffffffffffffe08184030181529190526020810180517bffffffffffffffffffffffffffffffffffffffffffffffffffffffff167fffffffff000000000000000000000000000000000000000000000000000000009093169290921790915290509392505050565b6000602082840312156109ad578081fd5b815167ffffffffffffffff808211156109c4578283fd5b81840185601f8201126109d5578384fd5b80519250818311156109e5578384fd5b60405160207fffffffffffffffffffffffffffffffffffffffffffffffffffffffffffffffe0601f8601168201018181108482111715610a23578586fd5b604052838152818401602001871015610a3a578485fd5b610a4b846020830160208501610dca565b9695505050505050565b600060208284031215610a66578081fd5b813561029d81610dfa565b60008060408385031215610a83578081fd5b8235610a8e81610dfa565b91506020830135610a9e81610dfa565b809150509250929050565b60008060008060808587031215610abe578182fd5b8435610ac981610dfa565b93506020850135610ad981610dfa565b92506040850135610ae981610dfa565b9396929550929360600135925050565b600060208284031215610b0a578081fd5b5051919050565b60008151808452610b29816020860160208601610dca565b601f017fffffffffffffffffffffffffffffffffffffffffffffffffffffffffffffffe0169290920160200192915050565b60008251610b6d818460208701610dca565b9190910192915050565b7f5370656e64657245524332305472616e7366657246726f6d4661696c6564457281527f726f7228616464726573732c616464726573732c616464726573732c75696e7460208201527f3235362c627974657329000000000000000000000000000000000000000000006040820152604a0190565b7f4f6e6c7943616c6c61626c65427953656c664572726f72286164647265737329815260200190565b73ffffffffffffffffffffffffffffffffffffffff91909116815260200190565b73ffffffffffffffffffffffffffffffffffffffff92831681529116602082015260400190565b600073ffffffffffffffffffffffffffffffffffffffff8088168352808716602084015280861660408401525083606083015260a06080830152610ca460a0830184610b11565b979650505050505050565b73ffffffffffffffffffffffffffffffffffffffff9384168152919092166020820152604081019190915260600190565b600073ffffffffffffffffffffffffffffffffffffffff8416825260406020830152610d0f6040830184610b11565b949350505050565b7fffffffff0000000000000000000000000000000000000000000000000000000091909116815260200190565b7fffffffff0000000000000000000000000000000000000000000000000000000092909216825273ffffffffffffffffffffffffffffffffffffffff16602082015260400190565b6060810160088510610d9a57fe5b938152602081019290925260409091015290565b60006020825261029d6020830184610b11565b90815260200190565b60005b83811015610de5578181015183820152602001610dcd565b83811115610df4576000848401525b50505050565b73ffffffffffffffffffffffffffffffffffffffff81168114610e1c57600080fd5b5056fea26469706673582212206d25b6e46dba98979aea9357836834564dda4671dff999c1bc8ab53f0cda29b164736f6c634300060b0033",
                "opcodes": "PUSH1 0xC0 PUSH1 0x40 MSTORE PUSH2 0x1A PUSH1 0x1 PUSH1 0x0 DUP1 PUSH1 0x1 PUSH1 0x1 PUSH1 0xE0 SHL SUB PUSH2 0x36 AND JUMP JUMPDEST PUSH1 0xA0 MSTORE CALLVALUE DUP1 ISZERO PUSH2 0x29 JUMPI PUSH1 0x0 DUP1 REVERT JUMPDEST POP ADDRESS PUSH1 0x60 SHL PUSH1 0x80 MSTORE PUSH2 0x68 JUMP JUMPDEST PUSH12 0xFFFFFFFF0000000000000000 PUSH1 0x40 DUP5 SWAP1 SHL AND PUSH8 0xFFFFFFFF00000000 PUSH1 0x20 DUP5 SWAP1 SHL AND OR DUP2 OR PUSH4 0xFFFFFFFF AND SWAP4 SWAP3 POP POP POP JUMP JUMPDEST PUSH1 0x80 MLOAD PUSH1 0x60 SHR PUSH1 0xA0 MLOAD PUSH2 0xE55 PUSH2 0x8E PUSH1 0x0 CODECOPY DUP1 PUSH2 0x109 MSTORE POP DUP1 PUSH2 0x84E MSTORE POP PUSH2 0xE55 PUSH1 0x0 RETURN INVALID PUSH1 0x80 PUSH1 0x40 MSTORE CALLVALUE DUP1 ISZERO PUSH2 0x10 JUMPI PUSH1 0x0 DUP1 REVERT JUMPDEST POP PUSH1 0x4 CALLDATASIZE LT PUSH2 0x72 JUMPI PUSH1 0x0 CALLDATALOAD PUSH1 0xE0 SHR DUP1 PUSH4 0x89DD02E7 GT PUSH2 0x50 JUMPI DUP1 PUSH4 0x89DD02E7 EQ PUSH2 0xBD JUMPI DUP1 PUSH4 0xCE5494BB EQ PUSH2 0xD2 JUMPI DUP1 PUSH4 0xF7C3A33B EQ PUSH2 0xF2 JUMPI PUSH2 0x72 JUMP JUMPDEST DUP1 PUSH4 0x31B905C EQ PUSH2 0x77 JUMPI DUP1 PUSH4 0x496F471E EQ PUSH2 0x95 JUMPI DUP1 PUSH4 0x6AE4B4F7 EQ PUSH2 0xA8 JUMPI JUMPDEST PUSH1 0x0 DUP1 REVERT JUMPDEST PUSH2 0x7F PUSH2 0x107 JUMP JUMPDEST PUSH1 0x40 MLOAD PUSH2 0x8C SWAP2 SWAP1 PUSH2 0xDC1 JUMP JUMPDEST PUSH1 0x40 MLOAD DUP1 SWAP2 SUB SWAP1 RETURN JUMPDEST PUSH2 0x7F PUSH2 0xA3 CALLDATASIZE PUSH1 0x4 PUSH2 0xA71 JUMP JUMPDEST PUSH2 0x12B JUMP JUMPDEST PUSH2 0xB0 PUSH2 0x2A4 JUMP JUMPDEST PUSH1 0x40 MLOAD PUSH2 0x8C SWAP2 SWAP1 PUSH2 0xDAE JUMP JUMPDEST PUSH2 0xD0 PUSH2 0xCB CALLDATASIZE PUSH1 0x4 PUSH2 0xAA9 JUMP JUMPDEST PUSH2 0x2DD JUMP JUMPDEST STOP JUMPDEST PUSH2 0xE5 PUSH2 0xE0 CALLDATASIZE PUSH1 0x4 PUSH2 0xA55 JUMP JUMPDEST PUSH2 0x528 JUMP JUMPDEST PUSH1 0x40 MLOAD PUSH2 0x8C SWAP2 SWAP1 PUSH2 0xD17 JUMP JUMPDEST PUSH2 0xFA PUSH2 0x619 JUMP JUMPDEST PUSH1 0x40 MLOAD PUSH2 0x8C SWAP2 SWAP1 PUSH2 0xC15 JUMP JUMPDEST PUSH32 0x0 DUP2 JUMP JUMPDEST PUSH1 0x0 PUSH2 0x29D DUP4 PUSH20 0xFFFFFFFFFFFFFFFFFFFFFFFFFFFFFFFFFFFFFFFF AND PUSH4 0xDD62ED3E DUP5 PUSH2 0x155 PUSH2 0x63F JUMP JUMPDEST SLOAD PUSH1 0x40 MLOAD PUSH32 0xFFFFFFFF00000000000000000000000000000000000000000000000000000000 PUSH1 0xE0 DUP6 SWAP1 SHL AND DUP2 MSTORE PUSH2 0x1A6 SWAP3 SWAP2 PUSH20 0xFFFFFFFFFFFFFFFFFFFFFFFFFFFFFFFFFFFFFFFF AND SWAP1 PUSH1 0x4 ADD PUSH2 0xC36 JUMP JUMPDEST PUSH1 0x20 PUSH1 0x40 MLOAD DUP1 DUP4 SUB DUP2 DUP7 DUP1 EXTCODESIZE ISZERO DUP1 ISZERO PUSH2 0x1BE JUMPI PUSH1 0x0 DUP1 REVERT JUMPDEST POP GAS STATICCALL ISZERO DUP1 ISZERO PUSH2 0x1D2 JUMPI RETURNDATASIZE PUSH1 0x0 DUP1 RETURNDATACOPY RETURNDATASIZE PUSH1 0x0 REVERT JUMPDEST POP POP POP POP PUSH1 0x40 MLOAD RETURNDATASIZE PUSH1 0x1F NOT PUSH1 0x1F DUP3 ADD AND DUP3 ADD DUP1 PUSH1 0x40 MSTORE POP DUP2 ADD SWAP1 PUSH2 0x1F6 SWAP2 SWAP1 PUSH2 0xAF9 JUMP JUMPDEST PUSH1 0x40 MLOAD PUSH32 0x70A0823100000000000000000000000000000000000000000000000000000000 DUP2 MSTORE PUSH20 0xFFFFFFFFFFFFFFFFFFFFFFFFFFFFFFFFFFFFFFFF DUP7 AND SWAP1 PUSH4 0x70A08231 SWAP1 PUSH2 0x248 SWAP1 DUP8 SWAP1 PUSH1 0x4 ADD PUSH2 0xC15 JUMP JUMPDEST PUSH1 0x20 PUSH1 0x40 MLOAD DUP1 DUP4 SUB DUP2 DUP7 DUP1 EXTCODESIZE ISZERO DUP1 ISZERO PUSH2 0x260 JUMPI PUSH1 0x0 DUP1 REVERT JUMPDEST POP GAS STATICCALL ISZERO DUP1 ISZERO PUSH2 0x274 JUMPI RETURNDATASIZE PUSH1 0x0 DUP1 RETURNDATACOPY RETURNDATASIZE PUSH1 0x0 REVERT JUMPDEST POP POP POP POP PUSH1 0x40 MLOAD RETURNDATASIZE PUSH1 0x1F NOT PUSH1 0x1F DUP3 ADD AND DUP3 ADD DUP1 PUSH1 0x40 MSTORE POP DUP2 ADD SWAP1 PUSH2 0x298 SWAP2 SWAP1 PUSH2 0xAF9 JUMP JUMPDEST PUSH2 0x652 JUMP JUMPDEST SWAP4 SWAP3 POP POP POP JUMP JUMPDEST PUSH1 0x40 MLOAD DUP1 PUSH1 0x40 ADD PUSH1 0x40 MSTORE DUP1 PUSH1 0xC DUP2 MSTORE PUSH1 0x20 ADD PUSH32 0x546F6B656E5370656E6465720000000000000000000000000000000000000000 DUP2 MSTORE POP DUP2 JUMP JUMPDEST CALLER ADDRESS EQ PUSH2 0x2F5 JUMPI PUSH2 0x2F5 PUSH2 0x2F0 CALLER PUSH2 0x668 JUMP JUMPDEST PUSH2 0x713 JUMP JUMPDEST PUSH1 0x0 PUSH2 0x2FF PUSH2 0x63F JUMP JUMPDEST SLOAD PUSH1 0x40 MLOAD PUSH20 0xFFFFFFFFFFFFFFFFFFFFFFFFFFFFFFFFFFFFFFFF SWAP1 SWAP2 AND SWAP2 POP PUSH1 0x0 SWAP1 PUSH1 0x60 SWAP1 DUP4 SWAP1 PUSH32 0xBCA8C7B500000000000000000000000000000000000000000000000000000000 SWAP1 DUP10 SWAP1 PUSH32 0x23B872DD00000000000000000000000000000000000000000000000000000000 SWAP1 PUSH2 0x37D SWAP1 DUP12 SWAP1 DUP12 SWAP1 DUP12 SWAP1 PUSH1 0x24 ADD PUSH2 0xCAF JUMP JUMPDEST PUSH1 0x40 DUP1 MLOAD PUSH32 0xFFFFFFFFFFFFFFFFFFFFFFFFFFFFFFFFFFFFFFFFFFFFFFFFFFFFFFFFFFFFFFE0 DUP2 DUP5 SUB ADD DUP2 MSTORE SWAP2 DUP2 MSTORE PUSH1 0x20 DUP3 ADD DUP1 MLOAD PUSH28 0xFFFFFFFFFFFFFFFFFFFFFFFFFFFFFFFFFFFFFFFFFFFFFFFFFFFFFFFF AND PUSH32 0xFFFFFFFF00000000000000000000000000000000000000000000000000000000 SWAP1 SWAP5 AND SWAP4 SWAP1 SWAP4 OR SWAP1 SWAP3 MSTORE SWAP1 MLOAD PUSH2 0x40A SWAP3 SWAP2 SWAP1 PUSH1 0x24 ADD PUSH2 0xCE0 JUMP JUMPDEST PUSH1 0x40 DUP1 MLOAD PUSH32 0xFFFFFFFFFFFFFFFFFFFFFFFFFFFFFFFFFFFFFFFFFFFFFFFFFFFFFFFFFFFFFFE0 DUP2 DUP5 SUB ADD DUP2 MSTORE SWAP2 DUP2 MSTORE PUSH1 0x20 DUP3 ADD DUP1 MLOAD PUSH28 0xFFFFFFFFFFFFFFFFFFFFFFFFFFFFFFFFFFFFFFFFFFFFFFFFFFFFFFFF AND PUSH32 0xFFFFFFFF00000000000000000000000000000000000000000000000000000000 SWAP1 SWAP5 AND SWAP4 SWAP1 SWAP4 OR SWAP1 SWAP3 MSTORE SWAP1 MLOAD PUSH2 0x493 SWAP2 SWAP1 PUSH2 0xB5B JUMP JUMPDEST PUSH1 0x0 PUSH1 0x40 MLOAD DUP1 DUP4 SUB DUP2 PUSH1 0x0 DUP7 GAS CALL SWAP2 POP POP RETURNDATASIZE DUP1 PUSH1 0x0 DUP2 EQ PUSH2 0x4D0 JUMPI PUSH1 0x40 MLOAD SWAP2 POP PUSH1 0x1F NOT PUSH1 0x3F RETURNDATASIZE ADD AND DUP3 ADD PUSH1 0x40 MSTORE RETURNDATASIZE DUP3 MSTORE RETURNDATASIZE PUSH1 0x0 PUSH1 0x20 DUP5 ADD RETURNDATACOPY PUSH2 0x4D5 JUMP JUMPDEST PUSH1 0x60 SWAP2 POP JUMPDEST POP SWAP2 POP SWAP2 POP DUP2 ISZERO PUSH2 0x4F7 JUMPI DUP1 DUP1 PUSH1 0x20 ADD SWAP1 MLOAD DUP2 ADD SWAP1 PUSH2 0x4F4 SWAP2 SWAP1 PUSH2 0x99C JUMP JUMPDEST SWAP1 POP JUMPDEST DUP2 ISZERO DUP1 PUSH2 0x50A JUMPI POP PUSH2 0x508 DUP2 PUSH2 0x71B JUMP JUMPDEST ISZERO JUMPDEST ISZERO PUSH2 0x51F JUMPI PUSH2 0x51F PUSH2 0x2F0 DUP9 DUP9 DUP9 DUP9 DUP7 PUSH2 0x761 JUMP JUMPDEST POP POP POP POP POP POP POP JUMP JUMPDEST PUSH1 0x0 DUP2 PUSH2 0x533 PUSH2 0x63F JUMP JUMPDEST DUP1 SLOAD PUSH32 0xFFFFFFFFFFFFFFFFFFFFFFFF0000000000000000000000000000000000000000 AND PUSH20 0xFFFFFFFFFFFFFFFFFFFFFFFFFFFFFFFFFFFFFFFF SWAP3 SWAP1 SWAP3 AND SWAP2 SWAP1 SWAP2 OR SWAP1 SSTORE PUSH2 0x59F PUSH32 0xF7C3A33B00000000000000000000000000000000000000000000000000000000 PUSH2 0x818 JUMP JUMPDEST PUSH2 0x5C8 PUSH32 0x89DD02E700000000000000000000000000000000000000000000000000000000 PUSH2 0x818 JUMP JUMPDEST PUSH2 0x5F1 PUSH32 0x496F471E00000000000000000000000000000000000000000000000000000000 PUSH2 0x818 JUMP JUMPDEST POP PUSH32 0x2C64C5EF00000000000000000000000000000000000000000000000000000000 JUMPDEST SWAP2 SWAP1 POP JUMP JUMPDEST PUSH1 0x0 PUSH2 0x623 PUSH2 0x63F JUMP JUMPDEST SLOAD PUSH20 0xFFFFFFFFFFFFFFFFFFFFFFFFFFFFFFFFFFFFFFFF AND SWAP1 POP SWAP1 JUMP JUMPDEST PUSH1 0x0 DUP1 PUSH2 0x64C PUSH1 0x3 PUSH2 0x8AB JUMP JUMPDEST SWAP3 SWAP2 POP POP JUMP JUMPDEST PUSH1 0x0 DUP2 DUP4 LT PUSH2 0x661 JUMPI DUP2 PUSH2 0x29D JUMP JUMPDEST POP SWAP1 SWAP2 SWAP1 POP JUMP JUMPDEST PUSH1 0x60 PUSH1 0x40 MLOAD PUSH2 0x676 SWAP1 PUSH2 0xBEC JUMP JUMPDEST PUSH1 0x40 MLOAD DUP1 SWAP2 SUB SWAP1 KECCAK256 DUP3 PUSH1 0x40 MLOAD PUSH1 0x24 ADD PUSH2 0x68F SWAP2 SWAP1 PUSH2 0xC15 JUMP JUMPDEST PUSH1 0x40 DUP1 MLOAD PUSH32 0xFFFFFFFFFFFFFFFFFFFFFFFFFFFFFFFFFFFFFFFFFFFFFFFFFFFFFFFFFFFFFFE0 DUP2 DUP5 SUB ADD DUP2 MSTORE SWAP2 SWAP1 MSTORE PUSH1 0x20 DUP2 ADD DUP1 MLOAD PUSH28 0xFFFFFFFFFFFFFFFFFFFFFFFFFFFFFFFFFFFFFFFFFFFFFFFFFFFFFFFF AND PUSH32 0xFFFFFFFF00000000000000000000000000000000000000000000000000000000 SWAP1 SWAP4 AND SWAP3 SWAP1 SWAP3 OR SWAP1 SWAP2 MSTORE SWAP1 POP SWAP2 SWAP1 POP JUMP JUMPDEST DUP1 MLOAD PUSH1 0x20 DUP3 ADD REVERT JUMPDEST PUSH1 0x0 DUP2 MLOAD PUSH1 0x0 EQ ISZERO PUSH2 0x72F JUMPI POP PUSH1 0x1 PUSH2 0x614 JUMP JUMPDEST DUP2 MLOAD PUSH1 0x20 EQ ISZERO PUSH2 0x614 JUMPI PUSH1 0x0 PUSH2 0x746 DUP4 PUSH1 0x0 PUSH2 0x8C6 JUMP JUMPDEST SWAP1 POP DUP1 PUSH1 0x1 EQ ISZERO PUSH2 0x75B JUMPI PUSH1 0x1 SWAP2 POP POP PUSH2 0x614 JUMP JUMPDEST POP SWAP2 SWAP1 POP JUMP JUMPDEST PUSH1 0x60 PUSH1 0x40 MLOAD PUSH2 0x76F SWAP1 PUSH2 0xB77 JUMP JUMPDEST PUSH1 0x40 MLOAD DUP1 SWAP2 SUB SWAP1 KECCAK256 DUP7 DUP7 DUP7 DUP7 DUP7 PUSH1 0x40 MLOAD PUSH1 0x24 ADD PUSH2 0x790 SWAP6 SWAP5 SWAP4 SWAP3 SWAP2 SWAP1 PUSH2 0xC5D JUMP JUMPDEST PUSH1 0x40 DUP1 MLOAD PUSH32 0xFFFFFFFFFFFFFFFFFFFFFFFFFFFFFFFFFFFFFFFFFFFFFFFFFFFFFFFFFFFFFFE0 DUP2 DUP5 SUB ADD DUP2 MSTORE SWAP2 SWAP1 MSTORE PUSH1 0x20 DUP2 ADD DUP1 MLOAD PUSH28 0xFFFFFFFFFFFFFFFFFFFFFFFFFFFFFFFFFFFFFFFFFFFFFFFFFFFFFFFF AND PUSH32 0xFFFFFFFF00000000000000000000000000000000000000000000000000000000 SWAP1 SWAP4 AND SWAP3 SWAP1 SWAP3 OR SWAP1 SWAP2 MSTORE SWAP1 POP SWAP6 SWAP5 POP POP POP POP POP JUMP JUMPDEST PUSH1 0x40 MLOAD PUSH32 0x6EB224CB00000000000000000000000000000000000000000000000000000000 DUP2 MSTORE ADDRESS SWAP1 PUSH4 0x6EB224CB SWAP1 PUSH2 0x876 SWAP1 DUP5 SWAP1 PUSH32 0x0 SWAP1 PUSH1 0x4 ADD PUSH2 0xD44 JUMP JUMPDEST PUSH1 0x0 PUSH1 0x40 MLOAD DUP1 DUP4 SUB DUP2 PUSH1 0x0 DUP8 DUP1 EXTCODESIZE ISZERO DUP1 ISZERO PUSH2 0x890 JUMPI PUSH1 0x0 DUP1 REVERT JUMPDEST POP GAS CALL ISZERO DUP1 ISZERO PUSH2 0x8A4 JUMPI RETURNDATASIZE PUSH1 0x0 DUP1 RETURNDATACOPY RETURNDATASIZE PUSH1 0x0 REVERT JUMPDEST POP POP POP POP POP JUMP JUMPDEST PUSH1 0x0 PUSH1 0x80 DUP3 PUSH1 0x5 DUP2 GT ISZERO PUSH2 0x8BB JUMPI INVALID JUMPDEST PUSH1 0x1 ADD SWAP1 SHL SWAP3 SWAP2 POP POP JUMP JUMPDEST PUSH1 0x0 PUSH2 0x29D DUP4 DUP4 PUSH1 0x0 DUP2 PUSH1 0x20 ADD DUP4 MLOAD LT ISZERO PUSH2 0x8EE JUMPI PUSH2 0x8EE PUSH2 0x2F0 PUSH1 0x5 DUP6 MLOAD DUP6 PUSH1 0x20 ADD PUSH2 0x8F7 JUMP JUMPDEST POP ADD PUSH1 0x20 ADD MLOAD SWAP1 JUMP JUMPDEST PUSH1 0x60 PUSH4 0x28006595 PUSH1 0xE0 SHL DUP5 DUP5 DUP5 PUSH1 0x40 MLOAD PUSH1 0x24 ADD PUSH2 0x916 SWAP4 SWAP3 SWAP2 SWAP1 PUSH2 0xD8C JUMP JUMPDEST PUSH1 0x40 DUP1 MLOAD PUSH32 0xFFFFFFFFFFFFFFFFFFFFFFFFFFFFFFFFFFFFFFFFFFFFFFFFFFFFFFFFFFFFFFE0 DUP2 DUP5 SUB ADD DUP2 MSTORE SWAP2 SWAP1 MSTORE PUSH1 0x20 DUP2 ADD DUP1 MLOAD PUSH28 0xFFFFFFFFFFFFFFFFFFFFFFFFFFFFFFFFFFFFFFFFFFFFFFFFFFFFFFFF AND PUSH32 0xFFFFFFFF00000000000000000000000000000000000000000000000000000000 SWAP1 SWAP4 AND SWAP3 SWAP1 SWAP3 OR SWAP1 SWAP2 MSTORE SWAP1 POP SWAP4 SWAP3 POP POP POP JUMP JUMPDEST PUSH1 0x0 PUSH1 0x20 DUP3 DUP5 SUB SLT ISZERO PUSH2 0x9AD JUMPI DUP1 DUP2 REVERT JUMPDEST DUP2 MLOAD PUSH8 0xFFFFFFFFFFFFFFFF DUP1 DUP3 GT ISZERO PUSH2 0x9C4 JUMPI DUP3 DUP4 REVERT JUMPDEST DUP2 DUP5 ADD DUP6 PUSH1 0x1F DUP3 ADD SLT PUSH2 0x9D5 JUMPI DUP4 DUP5 REVERT JUMPDEST DUP1 MLOAD SWAP3 POP DUP2 DUP4 GT ISZERO PUSH2 0x9E5 JUMPI DUP4 DUP5 REVERT JUMPDEST PUSH1 0x40 MLOAD PUSH1 0x20 PUSH32 0xFFFFFFFFFFFFFFFFFFFFFFFFFFFFFFFFFFFFFFFFFFFFFFFFFFFFFFFFFFFFFFE0 PUSH1 0x1F DUP7 ADD AND DUP3 ADD ADD DUP2 DUP2 LT DUP5 DUP3 GT OR ISZERO PUSH2 0xA23 JUMPI DUP6 DUP7 REVERT JUMPDEST PUSH1 0x40 MSTORE DUP4 DUP2 MSTORE DUP2 DUP5 ADD PUSH1 0x20 ADD DUP8 LT ISZERO PUSH2 0xA3A JUMPI DUP5 DUP6 REVERT JUMPDEST PUSH2 0xA4B DUP5 PUSH1 0x20 DUP4 ADD PUSH1 0x20 DUP6 ADD PUSH2 0xDCA JUMP JUMPDEST SWAP7 SWAP6 POP POP POP POP POP POP JUMP JUMPDEST PUSH1 0x0 PUSH1 0x20 DUP3 DUP5 SUB SLT ISZERO PUSH2 0xA66 JUMPI DUP1 DUP2 REVERT JUMPDEST DUP2 CALLDATALOAD PUSH2 0x29D DUP2 PUSH2 0xDFA JUMP JUMPDEST PUSH1 0x0 DUP1 PUSH1 0x40 DUP4 DUP6 SUB SLT ISZERO PUSH2 0xA83 JUMPI DUP1 DUP2 REVERT JUMPDEST DUP3 CALLDATALOAD PUSH2 0xA8E DUP2 PUSH2 0xDFA JUMP JUMPDEST SWAP2 POP PUSH1 0x20 DUP4 ADD CALLDATALOAD PUSH2 0xA9E DUP2 PUSH2 0xDFA JUMP JUMPDEST DUP1 SWAP2 POP POP SWAP3 POP SWAP3 SWAP1 POP JUMP JUMPDEST PUSH1 0x0 DUP1 PUSH1 0x0 DUP1 PUSH1 0x80 DUP6 DUP8 SUB SLT ISZERO PUSH2 0xABE JUMPI DUP2 DUP3 REVERT JUMPDEST DUP5 CALLDATALOAD PUSH2 0xAC9 DUP2 PUSH2 0xDFA JUMP JUMPDEST SWAP4 POP PUSH1 0x20 DUP6 ADD CALLDATALOAD PUSH2 0xAD9 DUP2 PUSH2 0xDFA JUMP JUMPDEST SWAP3 POP PUSH1 0x40 DUP6 ADD CALLDATALOAD PUSH2 0xAE9 DUP2 PUSH2 0xDFA JUMP JUMPDEST SWAP4 SWAP7 SWAP3 SWAP6 POP SWAP3 SWAP4 PUSH1 0x60 ADD CALLDATALOAD SWAP3 POP POP JUMP JUMPDEST PUSH1 0x0 PUSH1 0x20 DUP3 DUP5 SUB SLT ISZERO PUSH2 0xB0A JUMPI DUP1 DUP2 REVERT JUMPDEST POP MLOAD SWAP2 SWAP1 POP JUMP JUMPDEST PUSH1 0x0 DUP2 MLOAD DUP1 DUP5 MSTORE PUSH2 0xB29 DUP2 PUSH1 0x20 DUP7 ADD PUSH1 0x20 DUP7 ADD PUSH2 0xDCA JUMP JUMPDEST PUSH1 0x1F ADD PUSH32 0xFFFFFFFFFFFFFFFFFFFFFFFFFFFFFFFFFFFFFFFFFFFFFFFFFFFFFFFFFFFFFFE0 AND SWAP3 SWAP1 SWAP3 ADD PUSH1 0x20 ADD SWAP3 SWAP2 POP POP JUMP JUMPDEST PUSH1 0x0 DUP3 MLOAD PUSH2 0xB6D DUP2 DUP5 PUSH1 0x20 DUP8 ADD PUSH2 0xDCA JUMP JUMPDEST SWAP2 SWAP1 SWAP2 ADD SWAP3 SWAP2 POP POP JUMP JUMPDEST PUSH32 0x5370656E64657245524332305472616E7366657246726F6D4661696C65644572 DUP2 MSTORE PUSH32 0x726F7228616464726573732C616464726573732C616464726573732C75696E74 PUSH1 0x20 DUP3 ADD MSTORE PUSH32 0x3235362C62797465732900000000000000000000000000000000000000000000 PUSH1 0x40 DUP3 ADD MSTORE PUSH1 0x4A ADD SWAP1 JUMP JUMPDEST PUSH32 0x4F6E6C7943616C6C61626C65427953656C664572726F72286164647265737329 DUP2 MSTORE PUSH1 0x20 ADD SWAP1 JUMP JUMPDEST PUSH20 0xFFFFFFFFFFFFFFFFFFFFFFFFFFFFFFFFFFFFFFFF SWAP2 SWAP1 SWAP2 AND DUP2 MSTORE PUSH1 0x20 ADD SWAP1 JUMP JUMPDEST PUSH20 0xFFFFFFFFFFFFFFFFFFFFFFFFFFFFFFFFFFFFFFFF SWAP3 DUP4 AND DUP2 MSTORE SWAP2 AND PUSH1 0x20 DUP3 ADD MSTORE PUSH1 0x40 ADD SWAP1 JUMP JUMPDEST PUSH1 0x0 PUSH20 0xFFFFFFFFFFFFFFFFFFFFFFFFFFFFFFFFFFFFFFFF DUP1 DUP9 AND DUP4 MSTORE DUP1 DUP8 AND PUSH1 0x20 DUP5 ADD MSTORE DUP1 DUP7 AND PUSH1 0x40 DUP5 ADD MSTORE POP DUP4 PUSH1 0x60 DUP4 ADD MSTORE PUSH1 0xA0 PUSH1 0x80 DUP4 ADD MSTORE PUSH2 0xCA4 PUSH1 0xA0 DUP4 ADD DUP5 PUSH2 0xB11 JUMP JUMPDEST SWAP8 SWAP7 POP POP POP POP POP POP POP JUMP JUMPDEST PUSH20 0xFFFFFFFFFFFFFFFFFFFFFFFFFFFFFFFFFFFFFFFF SWAP4 DUP5 AND DUP2 MSTORE SWAP2 SWAP1 SWAP3 AND PUSH1 0x20 DUP3 ADD MSTORE PUSH1 0x40 DUP2 ADD SWAP2 SWAP1 SWAP2 MSTORE PUSH1 0x60 ADD SWAP1 JUMP JUMPDEST PUSH1 0x0 PUSH20 0xFFFFFFFFFFFFFFFFFFFFFFFFFFFFFFFFFFFFFFFF DUP5 AND DUP3 MSTORE PUSH1 0x40 PUSH1 0x20 DUP4 ADD MSTORE PUSH2 0xD0F PUSH1 0x40 DUP4 ADD DUP5 PUSH2 0xB11 JUMP JUMPDEST SWAP5 SWAP4 POP POP POP POP JUMP JUMPDEST PUSH32 0xFFFFFFFF00000000000000000000000000000000000000000000000000000000 SWAP2 SWAP1 SWAP2 AND DUP2 MSTORE PUSH1 0x20 ADD SWAP1 JUMP JUMPDEST PUSH32 0xFFFFFFFF00000000000000000000000000000000000000000000000000000000 SWAP3 SWAP1 SWAP3 AND DUP3 MSTORE PUSH20 0xFFFFFFFFFFFFFFFFFFFFFFFFFFFFFFFFFFFFFFFF AND PUSH1 0x20 DUP3 ADD MSTORE PUSH1 0x40 ADD SWAP1 JUMP JUMPDEST PUSH1 0x60 DUP2 ADD PUSH1 0x8 DUP6 LT PUSH2 0xD9A JUMPI INVALID JUMPDEST SWAP4 DUP2 MSTORE PUSH1 0x20 DUP2 ADD SWAP3 SWAP1 SWAP3 MSTORE PUSH1 0x40 SWAP1 SWAP2 ADD MSTORE SWAP1 JUMP JUMPDEST PUSH1 0x0 PUSH1 0x20 DUP3 MSTORE PUSH2 0x29D PUSH1 0x20 DUP4 ADD DUP5 PUSH2 0xB11 JUMP JUMPDEST SWAP1 DUP2 MSTORE PUSH1 0x20 ADD SWAP1 JUMP JUMPDEST PUSH1 0x0 JUMPDEST DUP4 DUP2 LT ISZERO PUSH2 0xDE5 JUMPI DUP2 DUP2 ADD MLOAD DUP4 DUP3 ADD MSTORE PUSH1 0x20 ADD PUSH2 0xDCD JUMP JUMPDEST DUP4 DUP2 GT ISZERO PUSH2 0xDF4 JUMPI PUSH1 0x0 DUP5 DUP5 ADD MSTORE JUMPDEST POP POP POP POP JUMP JUMPDEST PUSH20 0xFFFFFFFFFFFFFFFFFFFFFFFFFFFFFFFFFFFFFFFF DUP2 AND DUP2 EQ PUSH2 0xE1C JUMPI PUSH1 0x0 DUP1 REVERT JUMPDEST POP JUMP INVALID LOG2 PUSH5 0x6970667358 0x22 SLT KECCAK256 PUSH14 0x25B6E46DBA98979AEA9357836834 JUMP 0x4D 0xDA CHAINID PUSH18 0xDFF999C1BC8AB53F0CDA29B164736F6C6343 STOP MOD SIGNEXTEND STOP CALLER "
            }
        }
    },
    "sourceTreeHashHex": "0x76831ac1179fec32ee563b0af7fbe9a1a4599f0195fb152d6ee7aa22259c78d1",
    "compiler": {
        "name": "solc",
        "version": "0.6.11+commit.5ef660b1",
        "settings": {
            "remappings": [
                "@0x/contracts-utils=/Users/jacob/projects/ethdev/0x/workspace-remote/workspace/0x-monorepo/node_modules/@0x/contracts-utils",
                "@0x/contracts-erc20=/Users/jacob/projects/ethdev/0x/workspace-remote/workspace/0x-monorepo/node_modules/@0x/contracts-erc20"
            ],
            "optimizer": {
                "enabled": true,
                "runs": 1000000,
                "details": {
                    "yul": true,
                    "deduplicate": true,
                    "cse": true,
                    "constantOptimizer": true
                }
            },
            "outputSelection": {
                "*": {
                    "*": [
                        "abi",
                        "devdoc",
                        "evm.bytecode.object",
                        "evm.bytecode.sourceMap",
                        "evm.deployedBytecode.object",
                        "evm.deployedBytecode.sourceMap"
                    ]
                }
            },
            "evmVersion": "istanbul"
        }
    },
    "chains": {}
}