{
	"schemaVersion": "2.0.0",
	"contractName": "TestLibs",
	"compilerOutput": {
		"abi": [
			{
				"constant": true,
				"inputs": [
					{
						"components": [
							{
								"name": "salt",
								"type": "uint256"
							},
							{
								"name": "signerAddress",
								"type": "address"
							},
							{
								"name": "data",
								"type": "bytes"
							}
						],
						"name": "transaction",
						"type": "tuple"
					}
				],
				"name": "publicGetTransactionHash",
				"outputs": [
					{
						"name": "transactionHash",
						"type": "bytes32"
					}
				],
				"payable": false,
				"stateMutability": "view",
				"type": "function"
			},
			{
				"constant": true,
				"inputs": [
					{
						"components": [
							{
								"name": "transactionHash",
								"type": "bytes32"
							},
							{
								"name": "transactionSignature",
								"type": "bytes"
							},
							{
								"name": "approvalExpirationTimeSeconds",
								"type": "uint256"
							}
						],
						"name": "approval",
						"type": "tuple"
					}
				],
				"name": "publicGetCoordinatorApprovalHash",
				"outputs": [
					{
						"name": "approvalHash",
						"type": "bytes32"
					}
				],
				"payable": false,
				"stateMutability": "view",
				"type": "function"
			},
			{
				"constant": true,
				"inputs": [],
				"name": "EIP712_DOMAIN_HASH",
				"outputs": [
					{
						"name": "",
						"type": "bytes32"
					}
				],
				"payable": false,
				"stateMutability": "view",
				"type": "function"
			}
		],
		"evm": {
			"bytecode": {
				"linkReferences": {},
				"object": "0x60806040526200001060a06200025f565b6040516020818303038152906040528051906020012060405180606001604052806027815260200162000a6c602791398051602091820120604080518082018252600581527f312e302e300000000000000000000000000000000000000000000000000000009084015251620000ac93927f06c015bd22b4c69690933c1058878ebdfef31f9aaae40bbe86d8a09fe1b2972c913091016200020f565b60408051601f198184030181529190528051602090910120600055620002ae565b620000e2620000dc82620002ab565b620002ab565b82525050565b6000620000f7600c83620002a6565b7f737472696e67206e616d652c00000000000000000000000000000000000000008152600c0192915050565b600062000132601983620002a6565b7f6164647265737320766572696679696e67436f6e747261637400000000000000815260190192915050565b60006200016d600183620002a6565b7f2900000000000000000000000000000000000000000000000000000000000000815260010192915050565b6000620001a8600f83620002a6565b7f737472696e672076657273696f6e2c00000000000000000000000000000000008152600f0192915050565b6000620001e3600d83620002a6565b7f454950373132446f6d61696e28000000000000000000000000000000000000008152600d0192915050565b60006200021d8287620000cd565b6020820191506200022f8286620000cd565b602082019150620002418285620000cd565b602082019150620002538284620000cd565b50602001949350505050565b60006200026c82620001d4565b91506200027982620000e8565b9150620002868262000199565b9150620002938262000123565b9150620002a0826200015e565b92915050565b919050565b90565b6107ae80620002be6000396000f3fe608060405234801561001057600080fd5b50600436106100415760003560e01c80637b837ad114610046578063a2d7c53d1461006f578063e306f77914610082575b600080fd5b61005961005436600461038a565b61008a565b6040516100669190610693565b60405180910390f35b61005961007d36600461034d565b61009b565b6100596100a6565b6000610095826100ac565b92915050565b6000610095826100bf565b60005481565b60006100956100ba836100cd565b610153565b60006100956100ba83610193565b6000806040516020016100df90610630565b6040516020818303038152906040528051906020012090506000836040015160405161010b9190610624565b60408051918290038220865160208089015196855284015273ffffffffffffffffffffffffffffffffffffffff90941690820152606081019290925250608090209050919050565b6000546040517f19010000000000000000000000000000000000000000000000000000000000008152600281019190915260228101919091526042902090565b6000806040516020016101a590610667565b604051602081830303815290604052805190602001209050600083602001516040516101d19190610624565b604080519182900382208651968201519483526020830196909652810194909452506060830152506080902090565b600061020c823561071a565b9392505050565b600061020c8235610717565b6000601f8201831361023057600080fd5b813561024361023e826106c8565b6106a1565b9150808252602083016020830185838301111561025f57600080fd5b61026a838284610738565b50505092915050565b60006060828403121561028557600080fd5b61028f60606106a1565b9050600061029d8484610213565b825250602082013567ffffffffffffffff8111156102ba57600080fd5b6102c68482850161021f565b60208301525060406102da84828501610213565b60408301525092915050565b6000606082840312156102f857600080fd5b61030260606106a1565b905060006103108484610213565b825250602061032184848301610200565b602083015250604082013567ffffffffffffffff81111561034157600080fd5b6102da8482850161021f565b60006020828403121561035f57600080fd5b813567ffffffffffffffff81111561037657600080fd5b61038284828501610273565b949350505050565b60006020828403121561039c57600080fd5b813567ffffffffffffffff8111156103b357600080fd5b610382848285016102e6565b6103c881610717565b82525050565b60006103d98261070e565b6103e38185610712565b93506103f3818560208601610744565b9290920192915050565b600061040a601283610712565b7f5a65726f45785472616e73616374696f6e280000000000000000000000000000815260120192915050565b6000610443601b83610712565b7f6279746573207472616e73616374696f6e5369676e61747572652c00000000008152601b0192915050565b600061047c600183610712565b7f2900000000000000000000000000000000000000000000000000000000000000815260010192915050565b60006104b5601483610712565b7f436f6f7264696e61746f72417070726f76616c28000000000000000000000000815260140192915050565b60006104ee600d83610712565b7f75696e743235362073616c742c000000000000000000000000000000000000008152600d0192915050565b6000610527600a83610712565b7f62797465732064617461000000000000000000000000000000000000000000008152600a0192915050565b6000610560602583610712565b7f75696e7432353620617070726f76616c45787069726174696f6e54696d65536581527f636f6e6473000000000000000000000000000000000000000000000000000000602082015260250192915050565b60006105bf601683610712565b7f61646472657373207369676e6572416464726573732c00000000000000000000815260160192915050565b60006105f8601883610712565b7f62797465733332207472616e73616374696f6e486173682c0000000000000000815260180192915050565b600061020c82846103ce565b600061063b826103fd565b9150610646826104e1565b9150610651826105b2565b915061065c8261051a565b91506100958261046f565b6000610672826104a8565b915061067d826105eb565b915061068882610436565b915061065c82610553565b6020810161009582846103bf565b60405181810167ffffffffffffffff811182821017156106c057600080fd5b604052919050565b600067ffffffffffffffff8211156106df57600080fd5b506020601f919091017fffffffffffffffffffffffffffffffffffffffffffffffffffffffffffffffe0160190565b5190565b919050565b90565b600073ffffffffffffffffffffffffffffffffffffffff8216610095565b82818337506000910152565b60005b8381101561075f578181015183820152602001610747565b8381111561076e576000848401525b5050505056fea265627a7a72305820fd18db31ffe951b55e945cfc55ca4f3efee15343884f5c93eca886fc4800e74d6c6578706572696d656e74616cf5003730782050726f746f636f6c20547261646520457865637574696f6e20436f6f7264696e61746f72",
				"opcodes": "PUSH1 0x80 PUSH1 0x40 MSTORE PUSH3 0x10 PUSH1 0xA0 PUSH3 0x25F JUMP JUMPDEST PUSH1 0x40 MLOAD PUSH1 0x20 DUP2 DUP4 SUB SUB DUP2 MSTORE SWAP1 PUSH1 0x40 MSTORE DUP1 MLOAD SWAP1 PUSH1 0x20 ADD KECCAK256 PUSH1 0x40 MLOAD DUP1 PUSH1 0x60 ADD PUSH1 0x40 MSTORE DUP1 PUSH1 0x27 DUP2 MSTORE PUSH1 0x20 ADD PUSH3 0xA6C PUSH1 0x27 SWAP2 CODECOPY DUP1 MLOAD PUSH1 0x20 SWAP2 DUP3 ADD KECCAK256 PUSH1 0x40 DUP1 MLOAD DUP1 DUP3 ADD DUP3 MSTORE PUSH1 0x5 DUP2 MSTORE PUSH32 0x312E302E30000000000000000000000000000000000000000000000000000000 SWAP1 DUP5 ADD MSTORE MLOAD PUSH3 0xAC SWAP4 SWAP3 PUSH32 0x6C015BD22B4C69690933C1058878EBDFEF31F9AAAE40BBE86D8A09FE1B2972C SWAP2 ADDRESS SWAP2 ADD PUSH3 0x20F JUMP JUMPDEST PUSH1 0x40 DUP1 MLOAD PUSH1 0x1F NOT DUP2 DUP5 SUB ADD DUP2 MSTORE SWAP2 SWAP1 MSTORE DUP1 MLOAD PUSH1 0x20 SWAP1 SWAP2 ADD KECCAK256 PUSH1 0x0 SSTORE PUSH3 0x2AE JUMP JUMPDEST PUSH3 0xE2 PUSH3 0xDC DUP3 PUSH3 0x2AB JUMP JUMPDEST PUSH3 0x2AB JUMP JUMPDEST DUP3 MSTORE POP POP JUMP JUMPDEST PUSH1 0x0 PUSH3 0xF7 PUSH1 0xC DUP4 PUSH3 0x2A6 JUMP JUMPDEST PUSH32 0x737472696E67206E616D652C0000000000000000000000000000000000000000 DUP2 MSTORE PUSH1 0xC ADD SWAP3 SWAP2 POP POP JUMP JUMPDEST PUSH1 0x0 PUSH3 0x132 PUSH1 0x19 DUP4 PUSH3 0x2A6 JUMP JUMPDEST PUSH32 0x6164647265737320766572696679696E67436F6E747261637400000000000000 DUP2 MSTORE PUSH1 0x19 ADD SWAP3 SWAP2 POP POP JUMP JUMPDEST PUSH1 0x0 PUSH3 0x16D PUSH1 0x1 DUP4 PUSH3 0x2A6 JUMP JUMPDEST PUSH32 0x2900000000000000000000000000000000000000000000000000000000000000 DUP2 MSTORE PUSH1 0x1 ADD SWAP3 SWAP2 POP POP JUMP JUMPDEST PUSH1 0x0 PUSH3 0x1A8 PUSH1 0xF DUP4 PUSH3 0x2A6 JUMP JUMPDEST PUSH32 0x737472696E672076657273696F6E2C0000000000000000000000000000000000 DUP2 MSTORE PUSH1 0xF ADD SWAP3 SWAP2 POP POP JUMP JUMPDEST PUSH1 0x0 PUSH3 0x1E3 PUSH1 0xD DUP4 PUSH3 0x2A6 JUMP JUMPDEST PUSH32 0x454950373132446F6D61696E2800000000000000000000000000000000000000 DUP2 MSTORE PUSH1 0xD ADD SWAP3 SWAP2 POP POP JUMP JUMPDEST PUSH1 0x0 PUSH3 0x21D DUP3 DUP8 PUSH3 0xCD JUMP JUMPDEST PUSH1 0x20 DUP3 ADD SWAP2 POP PUSH3 0x22F DUP3 DUP7 PUSH3 0xCD JUMP JUMPDEST PUSH1 0x20 DUP3 ADD SWAP2 POP PUSH3 0x241 DUP3 DUP6 PUSH3 0xCD JUMP JUMPDEST PUSH1 0x20 DUP3 ADD SWAP2 POP PUSH3 0x253 DUP3 DUP5 PUSH3 0xCD JUMP JUMPDEST POP PUSH1 0x20 ADD SWAP5 SWAP4 POP POP POP POP JUMP JUMPDEST PUSH1 0x0 PUSH3 0x26C DUP3 PUSH3 0x1D4 JUMP JUMPDEST SWAP2 POP PUSH3 0x279 DUP3 PUSH3 0xE8 JUMP JUMPDEST SWAP2 POP PUSH3 0x286 DUP3 PUSH3 0x199 JUMP JUMPDEST SWAP2 POP PUSH3 0x293 DUP3 PUSH3 0x123 JUMP JUMPDEST SWAP2 POP PUSH3 0x2A0 DUP3 PUSH3 0x15E JUMP JUMPDEST SWAP3 SWAP2 POP POP JUMP JUMPDEST SWAP2 SWAP1 POP JUMP JUMPDEST SWAP1 JUMP JUMPDEST PUSH2 0x7AE DUP1 PUSH3 0x2BE PUSH1 0x0 CODECOPY PUSH1 0x0 RETURN INVALID PUSH1 0x80 PUSH1 0x40 MSTORE CALLVALUE DUP1 ISZERO PUSH2 0x10 JUMPI PUSH1 0x0 DUP1 REVERT JUMPDEST POP PUSH1 0x4 CALLDATASIZE LT PUSH2 0x41 JUMPI PUSH1 0x0 CALLDATALOAD PUSH1 0xE0 SHR DUP1 PUSH4 0x7B837AD1 EQ PUSH2 0x46 JUMPI DUP1 PUSH4 0xA2D7C53D EQ PUSH2 0x6F JUMPI DUP1 PUSH4 0xE306F779 EQ PUSH2 0x82 JUMPI JUMPDEST PUSH1 0x0 DUP1 REVERT JUMPDEST PUSH2 0x59 PUSH2 0x54 CALLDATASIZE PUSH1 0x4 PUSH2 0x38A JUMP JUMPDEST PUSH2 0x8A JUMP JUMPDEST PUSH1 0x40 MLOAD PUSH2 0x66 SWAP2 SWAP1 PUSH2 0x693 JUMP JUMPDEST PUSH1 0x40 MLOAD DUP1 SWAP2 SUB SWAP1 RETURN JUMPDEST PUSH2 0x59 PUSH2 0x7D CALLDATASIZE PUSH1 0x4 PUSH2 0x34D JUMP JUMPDEST PUSH2 0x9B JUMP JUMPDEST PUSH2 0x59 PUSH2 0xA6 JUMP JUMPDEST PUSH1 0x0 PUSH2 0x95 DUP3 PUSH2 0xAC JUMP JUMPDEST SWAP3 SWAP2 POP POP JUMP JUMPDEST PUSH1 0x0 PUSH2 0x95 DUP3 PUSH2 0xBF JUMP JUMPDEST PUSH1 0x0 SLOAD DUP2 JUMP JUMPDEST PUSH1 0x0 PUSH2 0x95 PUSH2 0xBA DUP4 PUSH2 0xCD JUMP JUMPDEST PUSH2 0x153 JUMP JUMPDEST PUSH1 0x0 PUSH2 0x95 PUSH2 0xBA DUP4 PUSH2 0x193 JUMP JUMPDEST PUSH1 0x0 DUP1 PUSH1 0x40 MLOAD PUSH1 0x20 ADD PUSH2 0xDF SWAP1 PUSH2 0x630 JUMP JUMPDEST PUSH1 0x40 MLOAD PUSH1 0x20 DUP2 DUP4 SUB SUB DUP2 MSTORE SWAP1 PUSH1 0x40 MSTORE DUP1 MLOAD SWAP1 PUSH1 0x20 ADD KECCAK256 SWAP1 POP PUSH1 0x0 DUP4 PUSH1 0x40 ADD MLOAD PUSH1 0x40 MLOAD PUSH2 0x10B SWAP2 SWAP1 PUSH2 0x624 JUMP JUMPDEST PUSH1 0x40 DUP1 MLOAD SWAP2 DUP3 SWAP1 SUB DUP3 KECCAK256 DUP7 MLOAD PUSH1 0x20 DUP1 DUP10 ADD MLOAD SWAP7 DUP6 MSTORE DUP5 ADD MSTORE PUSH20 0xFFFFFFFFFFFFFFFFFFFFFFFFFFFFFFFFFFFFFFFF SWAP1 SWAP5 AND SWAP1 DUP3 ADD MSTORE PUSH1 0x60 DUP2 ADD SWAP3 SWAP1 SWAP3 MSTORE POP PUSH1 0x80 SWAP1 KECCAK256 SWAP1 POP SWAP2 SWAP1 POP JUMP JUMPDEST PUSH1 0x0 SLOAD PUSH1 0x40 MLOAD PUSH32 0x1901000000000000000000000000000000000000000000000000000000000000 DUP2 MSTORE PUSH1 0x2 DUP2 ADD SWAP2 SWAP1 SWAP2 MSTORE PUSH1 0x22 DUP2 ADD SWAP2 SWAP1 SWAP2 MSTORE PUSH1 0x42 SWAP1 KECCAK256 SWAP1 JUMP JUMPDEST PUSH1 0x0 DUP1 PUSH1 0x40 MLOAD PUSH1 0x20 ADD PUSH2 0x1A5 SWAP1 PUSH2 0x667 JUMP JUMPDEST PUSH1 0x40 MLOAD PUSH1 0x20 DUP2 DUP4 SUB SUB DUP2 MSTORE SWAP1 PUSH1 0x40 MSTORE DUP1 MLOAD SWAP1 PUSH1 0x20 ADD KECCAK256 SWAP1 POP PUSH1 0x0 DUP4 PUSH1 0x20 ADD MLOAD PUSH1 0x40 MLOAD PUSH2 0x1D1 SWAP2 SWAP1 PUSH2 0x624 JUMP JUMPDEST PUSH1 0x40 DUP1 MLOAD SWAP2 DUP3 SWAP1 SUB DUP3 KECCAK256 DUP7 MLOAD SWAP7 DUP3 ADD MLOAD SWAP5 DUP4 MSTORE PUSH1 0x20 DUP4 ADD SWAP7 SWAP1 SWAP7 MSTORE DUP2 ADD SWAP5 SWAP1 SWAP5 MSTORE POP PUSH1 0x60 DUP4 ADD MSTORE POP PUSH1 0x80 SWAP1 KECCAK256 SWAP1 JUMP JUMPDEST PUSH1 0x0 PUSH2 0x20C DUP3 CALLDATALOAD PUSH2 0x71A JUMP JUMPDEST SWAP4 SWAP3 POP POP POP JUMP JUMPDEST PUSH1 0x0 PUSH2 0x20C DUP3 CALLDATALOAD PUSH2 0x717 JUMP JUMPDEST PUSH1 0x0 PUSH1 0x1F DUP3 ADD DUP4 SGT PUSH2 0x230 JUMPI PUSH1 0x0 DUP1 REVERT JUMPDEST DUP2 CALLDATALOAD PUSH2 0x243 PUSH2 0x23E DUP3 PUSH2 0x6C8 JUMP JUMPDEST PUSH2 0x6A1 JUMP JUMPDEST SWAP2 POP DUP1 DUP3 MSTORE PUSH1 0x20 DUP4 ADD PUSH1 0x20 DUP4 ADD DUP6 DUP4 DUP4 ADD GT ISZERO PUSH2 0x25F JUMPI PUSH1 0x0 DUP1 REVERT JUMPDEST PUSH2 0x26A DUP4 DUP3 DUP5 PUSH2 0x738 JUMP JUMPDEST POP POP POP SWAP3 SWAP2 POP POP JUMP JUMPDEST PUSH1 0x0 PUSH1 0x60 DUP3 DUP5 SUB SLT ISZERO PUSH2 0x285 JUMPI PUSH1 0x0 DUP1 REVERT JUMPDEST PUSH2 0x28F PUSH1 0x60 PUSH2 0x6A1 JUMP JUMPDEST SWAP1 POP PUSH1 0x0 PUSH2 0x29D DUP5 DUP5 PUSH2 0x213 JUMP JUMPDEST DUP3 MSTORE POP PUSH1 0x20 DUP3 ADD CALLDATALOAD PUSH8 0xFFFFFFFFFFFFFFFF DUP2 GT ISZERO PUSH2 0x2BA JUMPI PUSH1 0x0 DUP1 REVERT JUMPDEST PUSH2 0x2C6 DUP5 DUP3 DUP6 ADD PUSH2 0x21F JUMP JUMPDEST PUSH1 0x20 DUP4 ADD MSTORE POP PUSH1 0x40 PUSH2 0x2DA DUP5 DUP3 DUP6 ADD PUSH2 0x213 JUMP JUMPDEST PUSH1 0x40 DUP4 ADD MSTORE POP SWAP3 SWAP2 POP POP JUMP JUMPDEST PUSH1 0x0 PUSH1 0x60 DUP3 DUP5 SUB SLT ISZERO PUSH2 0x2F8 JUMPI PUSH1 0x0 DUP1 REVERT JUMPDEST PUSH2 0x302 PUSH1 0x60 PUSH2 0x6A1 JUMP JUMPDEST SWAP1 POP PUSH1 0x0 PUSH2 0x310 DUP5 DUP5 PUSH2 0x213 JUMP JUMPDEST DUP3 MSTORE POP PUSH1 0x20 PUSH2 0x321 DUP5 DUP5 DUP4 ADD PUSH2 0x200 JUMP JUMPDEST PUSH1 0x20 DUP4 ADD MSTORE POP PUSH1 0x40 DUP3 ADD CALLDATALOAD PUSH8 0xFFFFFFFFFFFFFFFF DUP2 GT ISZERO PUSH2 0x341 JUMPI PUSH1 0x0 DUP1 REVERT JUMPDEST PUSH2 0x2DA DUP5 DUP3 DUP6 ADD PUSH2 0x21F JUMP JUMPDEST PUSH1 0x0 PUSH1 0x20 DUP3 DUP5 SUB SLT ISZERO PUSH2 0x35F JUMPI PUSH1 0x0 DUP1 REVERT JUMPDEST DUP2 CALLDATALOAD PUSH8 0xFFFFFFFFFFFFFFFF DUP2 GT ISZERO PUSH2 0x376 JUMPI PUSH1 0x0 DUP1 REVERT JUMPDEST PUSH2 0x382 DUP5 DUP3 DUP6 ADD PUSH2 0x273 JUMP JUMPDEST SWAP5 SWAP4 POP POP POP POP JUMP JUMPDEST PUSH1 0x0 PUSH1 0x20 DUP3 DUP5 SUB SLT ISZERO PUSH2 0x39C JUMPI PUSH1 0x0 DUP1 REVERT JUMPDEST DUP2 CALLDATALOAD PUSH8 0xFFFFFFFFFFFFFFFF DUP2 GT ISZERO PUSH2 0x3B3 JUMPI PUSH1 0x0 DUP1 REVERT JUMPDEST PUSH2 0x382 DUP5 DUP3 DUP6 ADD PUSH2 0x2E6 JUMP JUMPDEST PUSH2 0x3C8 DUP2 PUSH2 0x717 JUMP JUMPDEST DUP3 MSTORE POP POP JUMP JUMPDEST PUSH1 0x0 PUSH2 0x3D9 DUP3 PUSH2 0x70E JUMP JUMPDEST PUSH2 0x3E3 DUP2 DUP6 PUSH2 0x712 JUMP JUMPDEST SWAP4 POP PUSH2 0x3F3 DUP2 DUP6 PUSH1 0x20 DUP7 ADD PUSH2 0x744 JUMP JUMPDEST SWAP3 SWAP1 SWAP3 ADD SWAP3 SWAP2 POP POP JUMP JUMPDEST PUSH1 0x0 PUSH2 0x40A PUSH1 0x12 DUP4 PUSH2 0x712 JUMP JUMPDEST PUSH32 0x5A65726F45785472616E73616374696F6E280000000000000000000000000000 DUP2 MSTORE PUSH1 0x12 ADD SWAP3 SWAP2 POP POP JUMP JUMPDEST PUSH1 0x0 PUSH2 0x443 PUSH1 0x1B DUP4 PUSH2 0x712 JUMP JUMPDEST PUSH32 0x6279746573207472616E73616374696F6E5369676E61747572652C0000000000 DUP2 MSTORE PUSH1 0x1B ADD SWAP3 SWAP2 POP POP JUMP JUMPDEST PUSH1 0x0 PUSH2 0x47C PUSH1 0x1 DUP4 PUSH2 0x712 JUMP JUMPDEST PUSH32 0x2900000000000000000000000000000000000000000000000000000000000000 DUP2 MSTORE PUSH1 0x1 ADD SWAP3 SWAP2 POP POP JUMP JUMPDEST PUSH1 0x0 PUSH2 0x4B5 PUSH1 0x14 DUP4 PUSH2 0x712 JUMP JUMPDEST PUSH32 0x436F6F7264696E61746F72417070726F76616C28000000000000000000000000 DUP2 MSTORE PUSH1 0x14 ADD SWAP3 SWAP2 POP POP JUMP JUMPDEST PUSH1 0x0 PUSH2 0x4EE PUSH1 0xD DUP4 PUSH2 0x712 JUMP JUMPDEST PUSH32 0x75696E743235362073616C742C00000000000000000000000000000000000000 DUP2 MSTORE PUSH1 0xD ADD SWAP3 SWAP2 POP POP JUMP JUMPDEST PUSH1 0x0 PUSH2 0x527 PUSH1 0xA DUP4 PUSH2 0x712 JUMP JUMPDEST PUSH32 0x6279746573206461746100000000000000000000000000000000000000000000 DUP2 MSTORE PUSH1 0xA ADD SWAP3 SWAP2 POP POP JUMP JUMPDEST PUSH1 0x0 PUSH2 0x560 PUSH1 0x25 DUP4 PUSH2 0x712 JUMP JUMPDEST PUSH32 0x75696E7432353620617070726F76616C45787069726174696F6E54696D655365 DUP2 MSTORE PUSH32 0x636F6E6473000000000000000000000000000000000000000000000000000000 PUSH1 0x20 DUP3 ADD MSTORE PUSH1 0x25 ADD SWAP3 SWAP2 POP POP JUMP JUMPDEST PUSH1 0x0 PUSH2 0x5BF PUSH1 0x16 DUP4 PUSH2 0x712 JUMP JUMPDEST PUSH32 0x61646472657373207369676E6572416464726573732C00000000000000000000 DUP2 MSTORE PUSH1 0x16 ADD SWAP3 SWAP2 POP POP JUMP JUMPDEST PUSH1 0x0 PUSH2 0x5F8 PUSH1 0x18 DUP4 PUSH2 0x712 JUMP JUMPDEST PUSH32 0x62797465733332207472616E73616374696F6E486173682C0000000000000000 DUP2 MSTORE PUSH1 0x18 ADD SWAP3 SWAP2 POP POP JUMP JUMPDEST PUSH1 0x0 PUSH2 0x20C DUP3 DUP5 PUSH2 0x3CE JUMP JUMPDEST PUSH1 0x0 PUSH2 0x63B DUP3 PUSH2 0x3FD JUMP JUMPDEST SWAP2 POP PUSH2 0x646 DUP3 PUSH2 0x4E1 JUMP JUMPDEST SWAP2 POP PUSH2 0x651 DUP3 PUSH2 0x5B2 JUMP JUMPDEST SWAP2 POP PUSH2 0x65C DUP3 PUSH2 0x51A JUMP JUMPDEST SWAP2 POP PUSH2 0x95 DUP3 PUSH2 0x46F JUMP JUMPDEST PUSH1 0x0 PUSH2 0x672 DUP3 PUSH2 0x4A8 JUMP JUMPDEST SWAP2 POP PUSH2 0x67D DUP3 PUSH2 0x5EB JUMP JUMPDEST SWAP2 POP PUSH2 0x688 DUP3 PUSH2 0x436 JUMP JUMPDEST SWAP2 POP PUSH2 0x65C DUP3 PUSH2 0x553 JUMP JUMPDEST PUSH1 0x20 DUP2 ADD PUSH2 0x95 DUP3 DUP5 PUSH2 0x3BF JUMP JUMPDEST PUSH1 0x40 MLOAD DUP2 DUP2 ADD PUSH8 0xFFFFFFFFFFFFFFFF DUP2 GT DUP3 DUP3 LT OR ISZERO PUSH2 0x6C0 JUMPI PUSH1 0x0 DUP1 REVERT JUMPDEST PUSH1 0x40 MSTORE SWAP2 SWAP1 POP JUMP JUMPDEST PUSH1 0x0 PUSH8 0xFFFFFFFFFFFFFFFF DUP3 GT ISZERO PUSH2 0x6DF JUMPI PUSH1 0x0 DUP1 REVERT JUMPDEST POP PUSH1 0x20 PUSH1 0x1F SWAP2 SWAP1 SWAP2 ADD PUSH32 0xFFFFFFFFFFFFFFFFFFFFFFFFFFFFFFFFFFFFFFFFFFFFFFFFFFFFFFFFFFFFFFE0 AND ADD SWAP1 JUMP JUMPDEST MLOAD SWAP1 JUMP JUMPDEST SWAP2 SWAP1 POP JUMP JUMPDEST SWAP1 JUMP JUMPDEST PUSH1 0x0 PUSH20 0xFFFFFFFFFFFFFFFFFFFFFFFFFFFFFFFFFFFFFFFF DUP3 AND PUSH2 0x95 JUMP JUMPDEST DUP3 DUP2 DUP4 CALLDATACOPY POP PUSH1 0x0 SWAP2 ADD MSTORE JUMP JUMPDEST PUSH1 0x0 JUMPDEST DUP4 DUP2 LT ISZERO PUSH2 0x75F JUMPI DUP2 DUP2 ADD MLOAD DUP4 DUP3 ADD MSTORE PUSH1 0x20 ADD PUSH2 0x747 JUMP JUMPDEST DUP4 DUP2 GT ISZERO PUSH2 0x76E JUMPI PUSH1 0x0 DUP5 DUP5 ADD MSTORE JUMPDEST POP POP POP POP JUMP INVALID LOG2 PUSH6 0x627A7A723058 KECCAK256 REVERT XOR 0xdb BALANCE SELFDESTRUCT 0xe9 MLOAD 0xb5 0x5e SWAP5 0x5c 0xfc SSTORE 0xca 0x4f RETURNDATACOPY INVALID 0xe1 MSTORE8 NUMBER DUP9 0x4f 0x5c SWAP4 0xec 0xa8 DUP7 0xfc 0x48 STOP 0xe7 0x4d PUSH13 0x6578706572696D656E74616CF5 STOP CALLDATACOPY ADDRESS PUSH25 0x2050726F746F636F6C20547261646520457865637574696F6E KECCAK256 NUMBER PUSH16 0x6F7264696E61746F7200000000000000 "
			}
		}
	},
	"sourceTreeHashHex": "0x3b6621340f3b596b4e0d4a7d3cab17a64f54b61312d53ca9b90831b420b3c6a9",
	"compiler": {
		"name": "solc",
		"version": "0.5.5+commit.47a71e8f.Linux.g++",
		"settings": {
			"optimizer": {
				"enabled": true,
				"runs": 1000000
			},
			"outputSelection": {
				"*": {
					"*": [
						"abi",
						"evm.bytecode.object",
						"evm.bytecode.sourceMap",
						"evm.deployedBytecode.object",
						"evm.deployedBytecode.sourceMap"
					]
				}
			},
			"remappings": [
				"@0x/contracts-utils=/Users/greg/dev/0x-monorepo/contracts/tec/node_modules/@0x/contracts-utils",
				"@0x/contracts-exchange-libs=/Users/greg/dev/0x-monorepo/contracts/tec/node_modules/@0x/contracts-exchange-libs"
			]
		}
	}
}