{
	"schemaVersion": "2.0.0",
	"contractName": "DummyERC721Token",
	"compilerOutput": {
		"abi": [
			{
				"constant": true,
				"inputs": [],
				"name": "name",
				"outputs": [
					{
						"name": "",
						"type": "string"
					}
				],
				"payable": false,
				"stateMutability": "view",
				"type": "function"
			},
			{
				"constant": true,
				"inputs": [
					{
						"name": "_tokenId",
						"type": "uint256"
					}
				],
				"name": "getApproved",
				"outputs": [
					{
						"name": "",
						"type": "address"
					}
				],
				"payable": false,
				"stateMutability": "view",
				"type": "function"
			},
			{
				"constant": false,
				"inputs": [
					{
						"name": "_to",
						"type": "address"
					},
					{
						"name": "_tokenId",
						"type": "uint256"
					}
				],
				"name": "approve",
				"outputs": [],
				"payable": false,
				"stateMutability": "nonpayable",
				"type": "function"
			},
			{
				"constant": false,
				"inputs": [
					{
						"name": "_from",
						"type": "address"
					},
					{
						"name": "_to",
						"type": "address"
					},
					{
						"name": "_tokenId",
						"type": "uint256"
					}
				],
				"name": "transferFrom",
				"outputs": [],
				"payable": false,
				"stateMutability": "nonpayable",
				"type": "function"
			},
			{
				"constant": false,
				"inputs": [
					{
						"name": "to",
						"type": "address"
					},
					{
						"name": "tokenId",
						"type": "uint256"
					}
				],
				"name": "mint",
				"outputs": [],
				"payable": false,
				"stateMutability": "nonpayable",
				"type": "function"
			},
			{
				"constant": false,
				"inputs": [
					{
						"name": "_from",
						"type": "address"
					},
					{
						"name": "_to",
						"type": "address"
					},
					{
						"name": "_tokenId",
						"type": "uint256"
					}
				],
				"name": "safeTransferFrom",
				"outputs": [],
				"payable": false,
				"stateMutability": "nonpayable",
				"type": "function"
			},
			{
				"constant": true,
				"inputs": [
					{
						"name": "_tokenId",
						"type": "uint256"
					}
				],
				"name": "exists",
				"outputs": [
					{
						"name": "",
						"type": "bool"
					}
				],
				"payable": false,
				"stateMutability": "view",
				"type": "function"
			},
			{
				"constant": true,
				"inputs": [
					{
						"name": "_tokenId",
						"type": "uint256"
					}
				],
				"name": "ownerOf",
				"outputs": [
					{
						"name": "",
						"type": "address"
					}
				],
				"payable": false,
				"stateMutability": "view",
				"type": "function"
			},
			{
				"constant": true,
				"inputs": [
					{
						"name": "_owner",
						"type": "address"
					}
				],
				"name": "balanceOf",
				"outputs": [
					{
						"name": "",
						"type": "uint256"
					}
				],
				"payable": false,
				"stateMutability": "view",
				"type": "function"
			},
			{
				"constant": true,
				"inputs": [],
				"name": "owner",
				"outputs": [
					{
						"name": "",
						"type": "address"
					}
				],
				"payable": false,
				"stateMutability": "view",
				"type": "function"
			},
			{
				"constant": true,
				"inputs": [],
				"name": "symbol",
				"outputs": [
					{
						"name": "",
						"type": "string"
					}
				],
				"payable": false,
				"stateMutability": "view",
				"type": "function"
			},
			{
				"constant": false,
				"inputs": [
					{
						"name": "_to",
						"type": "address"
					},
					{
						"name": "_approved",
						"type": "bool"
					}
				],
				"name": "setApprovalForAll",
				"outputs": [],
				"payable": false,
				"stateMutability": "nonpayable",
				"type": "function"
			},
			{
				"constant": false,
				"inputs": [
					{
						"name": "_from",
						"type": "address"
					},
					{
						"name": "_to",
						"type": "address"
					},
					{
						"name": "_tokenId",
						"type": "uint256"
					},
					{
						"name": "_data",
						"type": "bytes"
					}
				],
				"name": "safeTransferFrom",
				"outputs": [],
				"payable": false,
				"stateMutability": "nonpayable",
				"type": "function"
			},
			{
				"constant": true,
				"inputs": [
					{
						"name": "_owner",
						"type": "address"
					},
					{
						"name": "_operator",
						"type": "address"
					}
				],
				"name": "isApprovedForAll",
				"outputs": [
					{
						"name": "",
						"type": "bool"
					}
				],
				"payable": false,
				"stateMutability": "view",
				"type": "function"
			},
			{
				"constant": false,
				"inputs": [
					{
						"name": "newOwner",
						"type": "address"
					}
				],
				"name": "transferOwnership",
				"outputs": [],
				"payable": false,
				"stateMutability": "nonpayable",
				"type": "function"
			},
			{
				"inputs": [
					{
						"name": "name",
						"type": "string"
					},
					{
						"name": "symbol",
						"type": "string"
					}
				],
				"payable": false,
				"stateMutability": "nonpayable",
				"type": "constructor"
			},
			{
				"anonymous": false,
				"inputs": [
					{
						"indexed": true,
						"name": "_from",
						"type": "address"
					},
					{
						"indexed": true,
						"name": "_to",
						"type": "address"
					},
					{
						"indexed": false,
						"name": "_tokenId",
						"type": "uint256"
					}
				],
				"name": "Transfer",
				"type": "event"
			},
			{
				"anonymous": false,
				"inputs": [
					{
						"indexed": true,
						"name": "_owner",
						"type": "address"
					},
					{
						"indexed": true,
						"name": "_approved",
						"type": "address"
					},
					{
						"indexed": false,
						"name": "_tokenId",
						"type": "uint256"
					}
				],
				"name": "Approval",
				"type": "event"
			},
			{
				"anonymous": false,
				"inputs": [
					{
						"indexed": true,
						"name": "_owner",
						"type": "address"
					},
					{
						"indexed": true,
						"name": "_operator",
						"type": "address"
					},
					{
						"indexed": false,
						"name": "_approved",
						"type": "bool"
					}
				],
				"name": "ApprovalForAll",
				"type": "event"
			}
		],
		"evm": {
			"bytecode": {
				"linkReferences": {},
				"object": "0x60806040523480156200001157600080fd5b506040516200137638038062001376833981018060405262000037919081019062000184565b60008054600160a060020a031916331790558151829082906200006290600190602085019062000083565b5080516200007890600290602084019062000083565b505050505062000274565b828054600181600116156101000203166002900490600052602060002090601f016020900481019282601f10620000c657805160ff1916838001178555620000f6565b82800160010185558215620000f6579182015b82811115620000f6578251825591602001919060010190620000d9565b506200010492915062000108565b5090565b6200012591905b808211156200010457600081556001016200010f565b90565b6000601f820183136200013a57600080fd5b8151620001516200014b8262000219565b620001f2565b915080825260208301602083018583830111156200016e57600080fd5b6200017b83828462000241565b50505092915050565b600080604083850312156200019857600080fd5b82516001604060020a03811115620001af57600080fd5b620001bd8582860162000128565b92505060208301516001604060020a03811115620001da57600080fd5b620001e88582860162000128565b9150509250929050565b6040518181016001604060020a03811182821017156200021157600080fd5b604052919050565b60006001604060020a038211156200023057600080fd5b506020601f91909101601f19160190565b60005b838110156200025e57818101518382015260200162000244565b838111156200026e576000848401525b50505050565b6110f280620002846000396000f3006080604052600436106100da5763ffffffff7c010000000000000000000000000000000000000000000000000000000060003504166306fdde0381146100df578063081812fc1461010a578063095ea7b31461013757806323b872dd1461015957806340c10f191461017957806342842e0e146101995780634f558e79146101b95780636352211e146101e657806370a08231146102065780638da5cb5b1461023357806395d89b4114610248578063a22cb4651461025d578063b88d4fde1461027d578063e985e9c51461029d578063f2fde38b146102bd575b600080fd5b3480156100eb57600080fd5b506100f46102dd565b6040516101019190610fae565b60405180910390f35b34801561011657600080fd5b5061012a610125366004610e3c565b610372565b6040516101019190610f5c565b34801561014357600080fd5b50610157610152366004610dee565b61038d565b005b34801561016557600080fd5b50610157610174366004610cf8565b610483565b34801561018557600080fd5b50610157610194366004610dee565b610532565b3480156101a557600080fd5b506101576101b4366004610cf8565b6105cd565b3480156101c557600080fd5b506101d96101d4366004610e3c565b610605565b6040516101019190610fa0565b3480156101f257600080fd5b5061012a610201366004610e3c565b610622565b34801561021257600080fd5b50610226610221366004610ca0565b61064c565b6040516101019190610fdf565b34801561023f57600080fd5b5061012a61067f565b34801561025457600080fd5b506100f461068e565b34801561026957600080fd5b50610157610278366004610dbe565b6106ec565b34801561028957600080fd5b50610157610298366004610d45565b610771565b3480156102a957600080fd5b506101d96102b8366004610cbe565b6107b0565b3480156102c957600080fd5b506101576102d8366004610ca0565b6107de565b60018054604080516020601f600260001961010087891615020190951694909404938401819004810282018101909252828152606093909290918301828280156103685780601f1061033d57610100808354040283529160200191610368565b820191906000526020600020905b81548152906001019060200180831161034b57829003601f168201915b5050505050905090565b600090815260046020526040902054600160a060020a031690565b600061039882610622565b9050600160a060020a0383811690821614156103b357600080fd5b33600160a060020a03821614806103cf57506103cf81336107b0565b15156103da57600080fd5b60006103e583610372565b600160a060020a03161415806104035750600160a060020a03831615155b1561047e5760008281526004602052604090819020805473ffffffffffffffffffffffffffffffffffffffff1916600160a060020a038681169182179092559151908316907f8c5be1e5ebec7d5bd14f71427d1e84f3dd0314c0f7b2291e5b200ac8c7c3b92590610475908690610fdf565b60405180910390a35b505050565b8061048e338261085d565b151561049957600080fd5b600160a060020a03841615156104ae57600080fd5b600160a060020a03831615156104c357600080fd5b6104cd84836108bc565b6104d78483610962565b6104e183836109f2565b82600160a060020a031684600160a060020a03167fddf252ad1be2c89b69c2b068fc378daa952ba7f163c4a11628f55a4df523b3ef846040516105249190610fdf565b60405180910390a350505050565b600054600160a060020a0316331461057f576040517f08c379a000000000000000000000000000000000000000000000000000000000815260040161057690610fcf565b60405180910390fd5b61058881610605565b156105bf576040517f08c379a000000000000000000000000000000000000000000000000000000000815260040161057690610fbf565b6105c98282610a83565b5050565b806105d8338261085d565b15156105e357600080fd5b6105ff8484846020604051908101604052806000815250610771565b50505050565b600090815260036020526040902054600160a060020a0316151590565b600081815260036020526040812054600160a060020a031680151561064657600080fd5b92915050565b6000600160a060020a038216151561066357600080fd5b50600160a060020a031660009081526005602052604090205490565b600054600160a060020a031681565b60028054604080516020601f60001961010060018716150201909416859004938401819004810282018101909252828152606093909290918301828280156103685780601f1061033d57610100808354040283529160200191610368565b600160a060020a03821633141561070257600080fd5b336000818152600660209081526040808320600160a060020a038716808552925291829020805460ff191685151517905590519091907f17307eab39ab6107e8899845ad3d59bd9653f200f220920489ca2b5937696c3190610765908590610fa0565b60405180910390a35050565b8161077c338261085d565b151561078757600080fd5b610792858585610483565b61079e85858585610ae6565b15156107a957600080fd5b5050505050565b600160a060020a03918216600090815260066020908152604080832093909416825291909152205460ff1690565b600054600160a060020a03163314610822576040517f08c379a000000000000000000000000000000000000000000000000000000000815260040161057690610fcf565b600160a060020a0381161561085a576000805473ffffffffffffffffffffffffffffffffffffffff1916600160a060020a0383161790555b50565b60008061086983610622565b905080600160a060020a031684600160a060020a031614806108a4575083600160a060020a031661089984610372565b600160a060020a0316145b806108b457506108b481856107b0565b949350505050565b81600160a060020a03166108cf82610622565b600160a060020a0316146108e257600080fd5b600081815260046020526040902054600160a060020a0316156105c957600081815260046020526040808220805473ffffffffffffffffffffffffffffffffffffffff1916905551600160a060020a038416907f8c5be1e5ebec7d5bd14f71427d1e84f3dd0314c0f7b2291e5b200ac8c7c3b92590610765908590610fdf565b81600160a060020a031661097582610622565b600160a060020a03161461098857600080fd5b600160a060020a0382166000908152600560205260409020546109ac906001610bec565b600160a060020a03909216600090815260056020908152604080832094909455918152600390915220805473ffffffffffffffffffffffffffffffffffffffff19169055565b600081815260036020526040902054600160a060020a031615610a1457600080fd5b6000818152600360209081526040808320805473ffffffffffffffffffffffffffffffffffffffff1916600160a060020a03871690811790915583526005909152902054610a63906001610bfe565b600160a060020a0390921660009081526005602052604090209190915550565b600160a060020a0382161515610a9857600080fd5b610aa282826109f2565b81600160a060020a03166000600160a060020a03167fddf252ad1be2c89b69c2b068fc378daa952ba7f163c4a11628f55a4df523b3ef836040516107659190610fdf565b600080610af285610c14565b1515610b015760019150610be3565b6040517ff0b9e5ba000000000000000000000000000000000000000000000000000000008152600160a060020a0386169063f0b9e5ba90610b4a90899088908890600401610f6a565b602060405180830381600087803b158015610b6457600080fd5b505af1158015610b78573d6000803e3d6000fd5b505050506040513d601f19601f82011682018060405250610b9c9190810190610e1e565b7bffffffffffffffffffffffffffffffffffffffffffffffffffffffff1981167ff0b9e5ba0000000000000000000000000000000000000000000000000000000014925090505b50949350505050565b600082821115610bf857fe5b50900390565b600082820183811015610c0d57fe5b9392505050565b6000903b1190565b6000610c0d8235611040565b6000610c0d823561104c565b6000610c0d8251611054565b6000601f82018313610c5157600080fd5b8135610c64610c5f82611014565b610fed565b91508082526020830160208301858383011115610c8057600080fd5b610c8b838284611076565b50505092915050565b6000610c0d8235611051565b600060208284031215610cb257600080fd5b60006108b48484610c1c565b60008060408385031215610cd157600080fd5b6000610cdd8585610c1c565b9250506020610cee85828601610c1c565b9150509250929050565b600080600060608486031215610d0d57600080fd5b6000610d198686610c1c565b9350506020610d2a86828701610c1c565b9250506040610d3b86828701610c94565b9150509250925092565b60008060008060808587031215610d5b57600080fd5b6000610d678787610c1c565b9450506020610d7887828801610c1c565b9350506040610d8987828801610c94565b925050606085013567ffffffffffffffff811115610da657600080fd5b610db287828801610c40565b91505092959194509250565b60008060408385031215610dd157600080fd5b6000610ddd8585610c1c565b9250506020610cee85828601610c28565b60008060408385031215610e0157600080fd5b6000610e0d8585610c1c565b9250506020610cee85828601610c94565b600060208284031215610e3057600080fd5b60006108b48484610c34565b600060208284031215610e4e57600080fd5b60006108b48484610c94565b610e6381611040565b82525050565b610e638161104c565b6000610e7d8261103c565b808452610e91816020860160208601611082565b610e9a816110ae565b9093016020019392505050565b602281527f546f6b656e207769746820746f6b656e496420616c726561647920657869737460208201527f732e000000000000000000000000000000000000000000000000000000000000604082015260600190565b603381527f4f6e6c7920636f6e7472616374206f776e657220697320616c6c6f776564207460208201527f6f2063616c6c2074686973206d6574686f642e00000000000000000000000000604082015260600190565b610e6381611051565b602081016106468284610e5a565b60608101610f788286610e5a565b610f856020830185610f53565b8181036040830152610f978184610e72565b95945050505050565b602081016106468284610e69565b60208082528101610c0d8184610e72565b6020808252810161064681610ea7565b6020808252810161064681610efd565b602081016106468284610f53565b60405181810167ffffffffffffffff8111828210171561100c57600080fd5b604052919050565b600067ffffffffffffffff82111561102b57600080fd5b506020601f91909101601f19160190565b5190565b600160a060020a031690565b151590565b90565b7bffffffffffffffffffffffffffffffffffffffffffffffffffffffff191690565b82818337506000910152565b60005b8381101561109d578181015183820152602001611085565b838111156105ff5750506000910152565b601f01601f1916905600a265627a7a723058204ecafd3250d9940addafb4688d80fde77e18baf464ce9eab40061cede701f67f6c6578706572696d656e74616cf50037",
				"opcodes": "PUSH1 0x80 PUSH1 0x40 MSTORE CALLVALUE DUP1 ISZERO PUSH3 0x11 JUMPI PUSH1 0x0 DUP1 REVERT JUMPDEST POP PUSH1 0x40 MLOAD PUSH3 0x1376 CODESIZE SUB DUP1 PUSH3 0x1376 DUP4 CODECOPY DUP2 ADD DUP1 PUSH1 0x40 MSTORE PUSH3 0x37 SWAP2 SWAP1 DUP2 ADD SWAP1 PUSH3 0x184 JUMP JUMPDEST PUSH1 0x0 DUP1 SLOAD PUSH1 0x1 PUSH1 0xA0 PUSH1 0x2 EXP SUB NOT AND CALLER OR SWAP1 SSTORE DUP2 MLOAD DUP3 SWAP1 DUP3 SWAP1 PUSH3 0x62 SWAP1 PUSH1 0x1 SWAP1 PUSH1 0x20 DUP6 ADD SWAP1 PUSH3 0x83 JUMP JUMPDEST POP DUP1 MLOAD PUSH3 0x78 SWAP1 PUSH1 0x2 SWAP1 PUSH1 0x20 DUP5 ADD SWAP1 PUSH3 0x83 JUMP JUMPDEST POP POP POP POP POP PUSH3 0x274 JUMP JUMPDEST DUP3 DUP1 SLOAD PUSH1 0x1 DUP2 PUSH1 0x1 AND ISZERO PUSH2 0x100 MUL SUB AND PUSH1 0x2 SWAP1 DIV SWAP1 PUSH1 0x0 MSTORE PUSH1 0x20 PUSH1 0x0 KECCAK256 SWAP1 PUSH1 0x1F ADD PUSH1 0x20 SWAP1 DIV DUP2 ADD SWAP3 DUP3 PUSH1 0x1F LT PUSH3 0xC6 JUMPI DUP1 MLOAD PUSH1 0xFF NOT AND DUP4 DUP1 ADD OR DUP6 SSTORE PUSH3 0xF6 JUMP JUMPDEST DUP3 DUP1 ADD PUSH1 0x1 ADD DUP6 SSTORE DUP3 ISZERO PUSH3 0xF6 JUMPI SWAP2 DUP3 ADD JUMPDEST DUP3 DUP2 GT ISZERO PUSH3 0xF6 JUMPI DUP3 MLOAD DUP3 SSTORE SWAP2 PUSH1 0x20 ADD SWAP2 SWAP1 PUSH1 0x1 ADD SWAP1 PUSH3 0xD9 JUMP JUMPDEST POP PUSH3 0x104 SWAP3 SWAP2 POP PUSH3 0x108 JUMP JUMPDEST POP SWAP1 JUMP JUMPDEST PUSH3 0x125 SWAP2 SWAP1 JUMPDEST DUP1 DUP3 GT ISZERO PUSH3 0x104 JUMPI PUSH1 0x0 DUP2 SSTORE PUSH1 0x1 ADD PUSH3 0x10F JUMP JUMPDEST SWAP1 JUMP JUMPDEST PUSH1 0x0 PUSH1 0x1F DUP3 ADD DUP4 SGT PUSH3 0x13A JUMPI PUSH1 0x0 DUP1 REVERT JUMPDEST DUP2 MLOAD PUSH3 0x151 PUSH3 0x14B DUP3 PUSH3 0x219 JUMP JUMPDEST PUSH3 0x1F2 JUMP JUMPDEST SWAP2 POP DUP1 DUP3 MSTORE PUSH1 0x20 DUP4 ADD PUSH1 0x20 DUP4 ADD DUP6 DUP4 DUP4 ADD GT ISZERO PUSH3 0x16E JUMPI PUSH1 0x0 DUP1 REVERT JUMPDEST PUSH3 0x17B DUP4 DUP3 DUP5 PUSH3 0x241 JUMP JUMPDEST POP POP POP SWAP3 SWAP2 POP POP JUMP JUMPDEST PUSH1 0x0 DUP1 PUSH1 0x40 DUP4 DUP6 SUB SLT ISZERO PUSH3 0x198 JUMPI PUSH1 0x0 DUP1 REVERT JUMPDEST DUP3 MLOAD PUSH1 0x1 PUSH1 0x40 PUSH1 0x2 EXP SUB DUP2 GT ISZERO PUSH3 0x1AF JUMPI PUSH1 0x0 DUP1 REVERT JUMPDEST PUSH3 0x1BD DUP6 DUP3 DUP7 ADD PUSH3 0x128 JUMP JUMPDEST SWAP3 POP POP PUSH1 0x20 DUP4 ADD MLOAD PUSH1 0x1 PUSH1 0x40 PUSH1 0x2 EXP SUB DUP2 GT ISZERO PUSH3 0x1DA JUMPI PUSH1 0x0 DUP1 REVERT JUMPDEST PUSH3 0x1E8 DUP6 DUP3 DUP7 ADD PUSH3 0x128 JUMP JUMPDEST SWAP2 POP POP SWAP3 POP SWAP3 SWAP1 POP JUMP JUMPDEST PUSH1 0x40 MLOAD DUP2 DUP2 ADD PUSH1 0x1 PUSH1 0x40 PUSH1 0x2 EXP SUB DUP2 GT DUP3 DUP3 LT OR ISZERO PUSH3 0x211 JUMPI PUSH1 0x0 DUP1 REVERT JUMPDEST PUSH1 0x40 MSTORE SWAP2 SWAP1 POP JUMP JUMPDEST PUSH1 0x0 PUSH1 0x1 PUSH1 0x40 PUSH1 0x2 EXP SUB DUP3 GT ISZERO PUSH3 0x230 JUMPI PUSH1 0x0 DUP1 REVERT JUMPDEST POP PUSH1 0x20 PUSH1 0x1F SWAP2 SWAP1 SWAP2 ADD PUSH1 0x1F NOT AND ADD SWAP1 JUMP JUMPDEST PUSH1 0x0 JUMPDEST DUP4 DUP2 LT ISZERO PUSH3 0x25E JUMPI DUP2 DUP2 ADD MLOAD DUP4 DUP3 ADD MSTORE PUSH1 0x20 ADD PUSH3 0x244 JUMP JUMPDEST DUP4 DUP2 GT ISZERO PUSH3 0x26E JUMPI PUSH1 0x0 DUP5 DUP5 ADD MSTORE JUMPDEST POP POP POP POP JUMP JUMPDEST PUSH2 0x10F2 DUP1 PUSH3 0x284 PUSH1 0x0 CODECOPY PUSH1 0x0 RETURN STOP PUSH1 0x80 PUSH1 0x40 MSTORE PUSH1 0x4 CALLDATASIZE LT PUSH2 0xDA JUMPI PUSH4 0xFFFFFFFF PUSH29 0x100000000000000000000000000000000000000000000000000000000 PUSH1 0x0 CALLDATALOAD DIV AND PUSH4 0x6FDDE03 DUP2 EQ PUSH2 0xDF JUMPI DUP1 PUSH4 0x81812FC EQ PUSH2 0x10A JUMPI DUP1 PUSH4 0x95EA7B3 EQ PUSH2 0x137 JUMPI DUP1 PUSH4 0x23B872DD EQ PUSH2 0x159 JUMPI DUP1 PUSH4 0x40C10F19 EQ PUSH2 0x179 JUMPI DUP1 PUSH4 0x42842E0E EQ PUSH2 0x199 JUMPI DUP1 PUSH4 0x4F558E79 EQ PUSH2 0x1B9 JUMPI DUP1 PUSH4 0x6352211E EQ PUSH2 0x1E6 JUMPI DUP1 PUSH4 0x70A08231 EQ PUSH2 0x206 JUMPI DUP1 PUSH4 0x8DA5CB5B EQ PUSH2 0x233 JUMPI DUP1 PUSH4 0x95D89B41 EQ PUSH2 0x248 JUMPI DUP1 PUSH4 0xA22CB465 EQ PUSH2 0x25D JUMPI DUP1 PUSH4 0xB88D4FDE EQ PUSH2 0x27D JUMPI DUP1 PUSH4 0xE985E9C5 EQ PUSH2 0x29D JUMPI DUP1 PUSH4 0xF2FDE38B EQ PUSH2 0x2BD JUMPI JUMPDEST PUSH1 0x0 DUP1 REVERT JUMPDEST CALLVALUE DUP1 ISZERO PUSH2 0xEB JUMPI PUSH1 0x0 DUP1 REVERT JUMPDEST POP PUSH2 0xF4 PUSH2 0x2DD JUMP JUMPDEST PUSH1 0x40 MLOAD PUSH2 0x101 SWAP2 SWAP1 PUSH2 0xFAE JUMP JUMPDEST PUSH1 0x40 MLOAD DUP1 SWAP2 SUB SWAP1 RETURN JUMPDEST CALLVALUE DUP1 ISZERO PUSH2 0x116 JUMPI PUSH1 0x0 DUP1 REVERT JUMPDEST POP PUSH2 0x12A PUSH2 0x125 CALLDATASIZE PUSH1 0x4 PUSH2 0xE3C JUMP JUMPDEST PUSH2 0x372 JUMP JUMPDEST PUSH1 0x40 MLOAD PUSH2 0x101 SWAP2 SWAP1 PUSH2 0xF5C JUMP JUMPDEST CALLVALUE DUP1 ISZERO PUSH2 0x143 JUMPI PUSH1 0x0 DUP1 REVERT JUMPDEST POP PUSH2 0x157 PUSH2 0x152 CALLDATASIZE PUSH1 0x4 PUSH2 0xDEE JUMP JUMPDEST PUSH2 0x38D JUMP JUMPDEST STOP JUMPDEST CALLVALUE DUP1 ISZERO PUSH2 0x165 JUMPI PUSH1 0x0 DUP1 REVERT JUMPDEST POP PUSH2 0x157 PUSH2 0x174 CALLDATASIZE PUSH1 0x4 PUSH2 0xCF8 JUMP JUMPDEST PUSH2 0x483 JUMP JUMPDEST CALLVALUE DUP1 ISZERO PUSH2 0x185 JUMPI PUSH1 0x0 DUP1 REVERT JUMPDEST POP PUSH2 0x157 PUSH2 0x194 CALLDATASIZE PUSH1 0x4 PUSH2 0xDEE JUMP JUMPDEST PUSH2 0x532 JUMP JUMPDEST CALLVALUE DUP1 ISZERO PUSH2 0x1A5 JUMPI PUSH1 0x0 DUP1 REVERT JUMPDEST POP PUSH2 0x157 PUSH2 0x1B4 CALLDATASIZE PUSH1 0x4 PUSH2 0xCF8 JUMP JUMPDEST PUSH2 0x5CD JUMP JUMPDEST CALLVALUE DUP1 ISZERO PUSH2 0x1C5 JUMPI PUSH1 0x0 DUP1 REVERT JUMPDEST POP PUSH2 0x1D9 PUSH2 0x1D4 CALLDATASIZE PUSH1 0x4 PUSH2 0xE3C JUMP JUMPDEST PUSH2 0x605 JUMP JUMPDEST PUSH1 0x40 MLOAD PUSH2 0x101 SWAP2 SWAP1 PUSH2 0xFA0 JUMP JUMPDEST CALLVALUE DUP1 ISZERO PUSH2 0x1F2 JUMPI PUSH1 0x0 DUP1 REVERT JUMPDEST POP PUSH2 0x12A PUSH2 0x201 CALLDATASIZE PUSH1 0x4 PUSH2 0xE3C JUMP JUMPDEST PUSH2 0x622 JUMP JUMPDEST CALLVALUE DUP1 ISZERO PUSH2 0x212 JUMPI PUSH1 0x0 DUP1 REVERT JUMPDEST POP PUSH2 0x226 PUSH2 0x221 CALLDATASIZE PUSH1 0x4 PUSH2 0xCA0 JUMP JUMPDEST PUSH2 0x64C JUMP JUMPDEST PUSH1 0x40 MLOAD PUSH2 0x101 SWAP2 SWAP1 PUSH2 0xFDF JUMP JUMPDEST CALLVALUE DUP1 ISZERO PUSH2 0x23F JUMPI PUSH1 0x0 DUP1 REVERT JUMPDEST POP PUSH2 0x12A PUSH2 0x67F JUMP JUMPDEST CALLVALUE DUP1 ISZERO PUSH2 0x254 JUMPI PUSH1 0x0 DUP1 REVERT JUMPDEST POP PUSH2 0xF4 PUSH2 0x68E JUMP JUMPDEST CALLVALUE DUP1 ISZERO PUSH2 0x269 JUMPI PUSH1 0x0 DUP1 REVERT JUMPDEST POP PUSH2 0x157 PUSH2 0x278 CALLDATASIZE PUSH1 0x4 PUSH2 0xDBE JUMP JUMPDEST PUSH2 0x6EC JUMP JUMPDEST CALLVALUE DUP1 ISZERO PUSH2 0x289 JUMPI PUSH1 0x0 DUP1 REVERT JUMPDEST POP PUSH2 0x157 PUSH2 0x298 CALLDATASIZE PUSH1 0x4 PUSH2 0xD45 JUMP JUMPDEST PUSH2 0x771 JUMP JUMPDEST CALLVALUE DUP1 ISZERO PUSH2 0x2A9 JUMPI PUSH1 0x0 DUP1 REVERT JUMPDEST POP PUSH2 0x1D9 PUSH2 0x2B8 CALLDATASIZE PUSH1 0x4 PUSH2 0xCBE JUMP JUMPDEST PUSH2 0x7B0 JUMP JUMPDEST CALLVALUE DUP1 ISZERO PUSH2 0x2C9 JUMPI PUSH1 0x0 DUP1 REVERT JUMPDEST POP PUSH2 0x157 PUSH2 0x2D8 CALLDATASIZE PUSH1 0x4 PUSH2 0xCA0 JUMP JUMPDEST PUSH2 0x7DE JUMP JUMPDEST PUSH1 0x1 DUP1 SLOAD PUSH1 0x40 DUP1 MLOAD PUSH1 0x20 PUSH1 0x1F PUSH1 0x2 PUSH1 0x0 NOT PUSH2 0x100 DUP8 DUP10 AND ISZERO MUL ADD SWAP1 SWAP6 AND SWAP5 SWAP1 SWAP5 DIV SWAP4 DUP5 ADD DUP2 SWAP1 DIV DUP2 MUL DUP3 ADD DUP2 ADD SWAP1 SWAP3 MSTORE DUP3 DUP2 MSTORE PUSH1 0x60 SWAP4 SWAP1 SWAP3 SWAP1 SWAP2 DUP4 ADD DUP3 DUP3 DUP1 ISZERO PUSH2 0x368 JUMPI DUP1 PUSH1 0x1F LT PUSH2 0x33D JUMPI PUSH2 0x100 DUP1 DUP4 SLOAD DIV MUL DUP4 MSTORE SWAP2 PUSH1 0x20 ADD SWAP2 PUSH2 0x368 JUMP JUMPDEST DUP3 ADD SWAP2 SWAP1 PUSH1 0x0 MSTORE PUSH1 0x20 PUSH1 0x0 KECCAK256 SWAP1 JUMPDEST DUP2 SLOAD DUP2 MSTORE SWAP1 PUSH1 0x1 ADD SWAP1 PUSH1 0x20 ADD DUP1 DUP4 GT PUSH2 0x34B JUMPI DUP3 SWAP1 SUB PUSH1 0x1F AND DUP3 ADD SWAP2 JUMPDEST POP POP POP POP POP SWAP1 POP SWAP1 JUMP JUMPDEST PUSH1 0x0 SWAP1 DUP2 MSTORE PUSH1 0x4 PUSH1 0x20 MSTORE PUSH1 0x40 SWAP1 KECCAK256 SLOAD PUSH1 0x1 PUSH1 0xA0 PUSH1 0x2 EXP SUB AND SWAP1 JUMP JUMPDEST PUSH1 0x0 PUSH2 0x398 DUP3 PUSH2 0x622 JUMP JUMPDEST SWAP1 POP PUSH1 0x1 PUSH1 0xA0 PUSH1 0x2 EXP SUB DUP4 DUP2 AND SWAP1 DUP3 AND EQ ISZERO PUSH2 0x3B3 JUMPI PUSH1 0x0 DUP1 REVERT JUMPDEST CALLER PUSH1 0x1 PUSH1 0xA0 PUSH1 0x2 EXP SUB DUP3 AND EQ DUP1 PUSH2 0x3CF JUMPI POP PUSH2 0x3CF DUP2 CALLER PUSH2 0x7B0 JUMP JUMPDEST ISZERO ISZERO PUSH2 0x3DA JUMPI PUSH1 0x0 DUP1 REVERT JUMPDEST PUSH1 0x0 PUSH2 0x3E5 DUP4 PUSH2 0x372 JUMP JUMPDEST PUSH1 0x1 PUSH1 0xA0 PUSH1 0x2 EXP SUB AND EQ ISZERO DUP1 PUSH2 0x403 JUMPI POP PUSH1 0x1 PUSH1 0xA0 PUSH1 0x2 EXP SUB DUP4 AND ISZERO ISZERO JUMPDEST ISZERO PUSH2 0x47E JUMPI PUSH1 0x0 DUP3 DUP2 MSTORE PUSH1 0x4 PUSH1 0x20 MSTORE PUSH1 0x40 SWAP1 DUP2 SWAP1 KECCAK256 DUP1 SLOAD PUSH20 0xFFFFFFFFFFFFFFFFFFFFFFFFFFFFFFFFFFFFFFFF NOT AND PUSH1 0x1 PUSH1 0xA0 PUSH1 0x2 EXP SUB DUP7 DUP2 AND SWAP2 DUP3 OR SWAP1 SWAP3 SSTORE SWAP2 MLOAD SWAP1 DUP4 AND SWAP1 PUSH32 0x8C5BE1E5EBEC7D5BD14F71427D1E84F3DD0314C0F7B2291E5B200AC8C7C3B925 SWAP1 PUSH2 0x475 SWAP1 DUP7 SWAP1 PUSH2 0xFDF JUMP JUMPDEST PUSH1 0x40 MLOAD DUP1 SWAP2 SUB SWAP1 LOG3 JUMPDEST POP POP POP JUMP JUMPDEST DUP1 PUSH2 0x48E CALLER DUP3 PUSH2 0x85D JUMP JUMPDEST ISZERO ISZERO PUSH2 0x499 JUMPI PUSH1 0x0 DUP1 REVERT JUMPDEST PUSH1 0x1 PUSH1 0xA0 PUSH1 0x2 EXP SUB DUP5 AND ISZERO ISZERO PUSH2 0x4AE JUMPI PUSH1 0x0 DUP1 REVERT JUMPDEST PUSH1 0x1 PUSH1 0xA0 PUSH1 0x2 EXP SUB DUP4 AND ISZERO ISZERO PUSH2 0x4C3 JUMPI PUSH1 0x0 DUP1 REVERT JUMPDEST PUSH2 0x4CD DUP5 DUP4 PUSH2 0x8BC JUMP JUMPDEST PUSH2 0x4D7 DUP5 DUP4 PUSH2 0x962 JUMP JUMPDEST PUSH2 0x4E1 DUP4 DUP4 PUSH2 0x9F2 JUMP JUMPDEST DUP3 PUSH1 0x1 PUSH1 0xA0 PUSH1 0x2 EXP SUB AND DUP5 PUSH1 0x1 PUSH1 0xA0 PUSH1 0x2 EXP SUB AND PUSH32 0xDDF252AD1BE2C89B69C2B068FC378DAA952BA7F163C4A11628F55A4DF523B3EF DUP5 PUSH1 0x40 MLOAD PUSH2 0x524 SWAP2 SWAP1 PUSH2 0xFDF JUMP JUMPDEST PUSH1 0x40 MLOAD DUP1 SWAP2 SUB SWAP1 LOG3 POP POP POP POP JUMP JUMPDEST PUSH1 0x0 SLOAD PUSH1 0x1 PUSH1 0xA0 PUSH1 0x2 EXP SUB AND CALLER EQ PUSH2 0x57F JUMPI PUSH1 0x40 MLOAD PUSH32 0x8C379A000000000000000000000000000000000000000000000000000000000 DUP2 MSTORE PUSH1 0x4 ADD PUSH2 0x576 SWAP1 PUSH2 0xFCF JUMP JUMPDEST PUSH1 0x40 MLOAD DUP1 SWAP2 SUB SWAP1 REVERT JUMPDEST PUSH2 0x588 DUP2 PUSH2 0x605 JUMP JUMPDEST ISZERO PUSH2 0x5BF JUMPI PUSH1 0x40 MLOAD PUSH32 0x8C379A000000000000000000000000000000000000000000000000000000000 DUP2 MSTORE PUSH1 0x4 ADD PUSH2 0x576 SWAP1 PUSH2 0xFBF JUMP JUMPDEST PUSH2 0x5C9 DUP3 DUP3 PUSH2 0xA83 JUMP JUMPDEST POP POP JUMP JUMPDEST DUP1 PUSH2 0x5D8 CALLER DUP3 PUSH2 0x85D JUMP JUMPDEST ISZERO ISZERO PUSH2 0x5E3 JUMPI PUSH1 0x0 DUP1 REVERT JUMPDEST PUSH2 0x5FF DUP5 DUP5 DUP5 PUSH1 0x20 PUSH1 0x40 MLOAD SWAP1 DUP2 ADD PUSH1 0x40 MSTORE DUP1 PUSH1 0x0 DUP2 MSTORE POP PUSH2 0x771 JUMP JUMPDEST POP POP POP POP JUMP JUMPDEST PUSH1 0x0 SWAP1 DUP2 MSTORE PUSH1 0x3 PUSH1 0x20 MSTORE PUSH1 0x40 SWAP1 KECCAK256 SLOAD PUSH1 0x1 PUSH1 0xA0 PUSH1 0x2 EXP SUB AND ISZERO ISZERO SWAP1 JUMP JUMPDEST PUSH1 0x0 DUP2 DUP2 MSTORE PUSH1 0x3 PUSH1 0x20 MSTORE PUSH1 0x40 DUP2 KECCAK256 SLOAD PUSH1 0x1 PUSH1 0xA0 PUSH1 0x2 EXP SUB AND DUP1 ISZERO ISZERO PUSH2 0x646 JUMPI PUSH1 0x0 DUP1 REVERT JUMPDEST SWAP3 SWAP2 POP POP JUMP JUMPDEST PUSH1 0x0 PUSH1 0x1 PUSH1 0xA0 PUSH1 0x2 EXP SUB DUP3 AND ISZERO ISZERO PUSH2 0x663 JUMPI PUSH1 0x0 DUP1 REVERT JUMPDEST POP PUSH1 0x1 PUSH1 0xA0 PUSH1 0x2 EXP SUB AND PUSH1 0x0 SWAP1 DUP2 MSTORE PUSH1 0x5 PUSH1 0x20 MSTORE PUSH1 0x40 SWAP1 KECCAK256 SLOAD SWAP1 JUMP JUMPDEST PUSH1 0x0 SLOAD PUSH1 0x1 PUSH1 0xA0 PUSH1 0x2 EXP SUB AND DUP2 JUMP JUMPDEST PUSH1 0x2 DUP1 SLOAD PUSH1 0x40 DUP1 MLOAD PUSH1 0x20 PUSH1 0x1F PUSH1 0x0 NOT PUSH2 0x100 PUSH1 0x1 DUP8 AND ISZERO MUL ADD SWAP1 SWAP5 AND DUP6 SWAP1 DIV SWAP4 DUP5 ADD DUP2 SWAP1 DIV DUP2 MUL DUP3 ADD DUP2 ADD SWAP1 SWAP3 MSTORE DUP3 DUP2 MSTORE PUSH1 0x60 SWAP4 SWAP1 SWAP3 SWAP1 SWAP2 DUP4 ADD DUP3 DUP3 DUP1 ISZERO PUSH2 0x368 JUMPI DUP1 PUSH1 0x1F LT PUSH2 0x33D JUMPI PUSH2 0x100 DUP1 DUP4 SLOAD DIV MUL DUP4 MSTORE SWAP2 PUSH1 0x20 ADD SWAP2 PUSH2 0x368 JUMP JUMPDEST PUSH1 0x1 PUSH1 0xA0 PUSH1 0x2 EXP SUB DUP3 AND CALLER EQ ISZERO PUSH2 0x702 JUMPI PUSH1 0x0 DUP1 REVERT JUMPDEST CALLER PUSH1 0x0 DUP2 DUP2 MSTORE PUSH1 0x6 PUSH1 0x20 SWAP1 DUP2 MSTORE PUSH1 0x40 DUP1 DUP4 KECCAK256 PUSH1 0x1 PUSH1 0xA0 PUSH1 0x2 EXP SUB DUP8 AND DUP1 DUP6 MSTORE SWAP3 MSTORE SWAP2 DUP3 SWAP1 KECCAK256 DUP1 SLOAD PUSH1 0xFF NOT AND DUP6 ISZERO ISZERO OR SWAP1 SSTORE SWAP1 MLOAD SWAP1 SWAP2 SWAP1 PUSH32 0x17307EAB39AB6107E8899845AD3D59BD9653F200F220920489CA2B5937696C31 SWAP1 PUSH2 0x765 SWAP1 DUP6 SWAP1 PUSH2 0xFA0 JUMP JUMPDEST PUSH1 0x40 MLOAD DUP1 SWAP2 SUB SWAP1 LOG3 POP POP JUMP JUMPDEST DUP2 PUSH2 0x77C CALLER DUP3 PUSH2 0x85D JUMP JUMPDEST ISZERO ISZERO PUSH2 0x787 JUMPI PUSH1 0x0 DUP1 REVERT JUMPDEST PUSH2 0x792 DUP6 DUP6 DUP6 PUSH2 0x483 JUMP JUMPDEST PUSH2 0x79E DUP6 DUP6 DUP6 DUP6 PUSH2 0xAE6 JUMP JUMPDEST ISZERO ISZERO PUSH2 0x7A9 JUMPI PUSH1 0x0 DUP1 REVERT JUMPDEST POP POP POP POP POP JUMP JUMPDEST PUSH1 0x1 PUSH1 0xA0 PUSH1 0x2 EXP SUB SWAP2 DUP3 AND PUSH1 0x0 SWAP1 DUP2 MSTORE PUSH1 0x6 PUSH1 0x20 SWAP1 DUP2 MSTORE PUSH1 0x40 DUP1 DUP4 KECCAK256 SWAP4 SWAP1 SWAP5 AND DUP3 MSTORE SWAP2 SWAP1 SWAP2 MSTORE KECCAK256 SLOAD PUSH1 0xFF AND SWAP1 JUMP JUMPDEST PUSH1 0x0 SLOAD PUSH1 0x1 PUSH1 0xA0 PUSH1 0x2 EXP SUB AND CALLER EQ PUSH2 0x822 JUMPI PUSH1 0x40 MLOAD PUSH32 0x8C379A000000000000000000000000000000000000000000000000000000000 DUP2 MSTORE PUSH1 0x4 ADD PUSH2 0x576 SWAP1 PUSH2 0xFCF JUMP JUMPDEST PUSH1 0x1 PUSH1 0xA0 PUSH1 0x2 EXP SUB DUP2 AND ISZERO PUSH2 0x85A JUMPI PUSH1 0x0 DUP1 SLOAD PUSH20 0xFFFFFFFFFFFFFFFFFFFFFFFFFFFFFFFFFFFFFFFF NOT AND PUSH1 0x1 PUSH1 0xA0 PUSH1 0x2 EXP SUB DUP4 AND OR SWAP1 SSTORE JUMPDEST POP JUMP JUMPDEST PUSH1 0x0 DUP1 PUSH2 0x869 DUP4 PUSH2 0x622 JUMP JUMPDEST SWAP1 POP DUP1 PUSH1 0x1 PUSH1 0xA0 PUSH1 0x2 EXP SUB AND DUP5 PUSH1 0x1 PUSH1 0xA0 PUSH1 0x2 EXP SUB AND EQ DUP1 PUSH2 0x8A4 JUMPI POP DUP4 PUSH1 0x1 PUSH1 0xA0 PUSH1 0x2 EXP SUB AND PUSH2 0x899 DUP5 PUSH2 0x372 JUMP JUMPDEST PUSH1 0x1 PUSH1 0xA0 PUSH1 0x2 EXP SUB AND EQ JUMPDEST DUP1 PUSH2 0x8B4 JUMPI POP PUSH2 0x8B4 DUP2 DUP6 PUSH2 0x7B0 JUMP JUMPDEST SWAP5 SWAP4 POP POP POP POP JUMP JUMPDEST DUP2 PUSH1 0x1 PUSH1 0xA0 PUSH1 0x2 EXP SUB AND PUSH2 0x8CF DUP3 PUSH2 0x622 JUMP JUMPDEST PUSH1 0x1 PUSH1 0xA0 PUSH1 0x2 EXP SUB AND EQ PUSH2 0x8E2 JUMPI PUSH1 0x0 DUP1 REVERT JUMPDEST PUSH1 0x0 DUP2 DUP2 MSTORE PUSH1 0x4 PUSH1 0x20 MSTORE PUSH1 0x40 SWAP1 KECCAK256 SLOAD PUSH1 0x1 PUSH1 0xA0 PUSH1 0x2 EXP SUB AND ISZERO PUSH2 0x5C9 JUMPI PUSH1 0x0 DUP2 DUP2 MSTORE PUSH1 0x4 PUSH1 0x20 MSTORE PUSH1 0x40 DUP1 DUP3 KECCAK256 DUP1 SLOAD PUSH20 0xFFFFFFFFFFFFFFFFFFFFFFFFFFFFFFFFFFFFFFFF NOT AND SWAP1 SSTORE MLOAD PUSH1 0x1 PUSH1 0xA0 PUSH1 0x2 EXP SUB DUP5 AND SWAP1 PUSH32 0x8C5BE1E5EBEC7D5BD14F71427D1E84F3DD0314C0F7B2291E5B200AC8C7C3B925 SWAP1 PUSH2 0x765 SWAP1 DUP6 SWAP1 PUSH2 0xFDF JUMP JUMPDEST DUP2 PUSH1 0x1 PUSH1 0xA0 PUSH1 0x2 EXP SUB AND PUSH2 0x975 DUP3 PUSH2 0x622 JUMP JUMPDEST PUSH1 0x1 PUSH1 0xA0 PUSH1 0x2 EXP SUB AND EQ PUSH2 0x988 JUMPI PUSH1 0x0 DUP1 REVERT JUMPDEST PUSH1 0x1 PUSH1 0xA0 PUSH1 0x2 EXP SUB DUP3 AND PUSH1 0x0 SWAP1 DUP2 MSTORE PUSH1 0x5 PUSH1 0x20 MSTORE PUSH1 0x40 SWAP1 KECCAK256 SLOAD PUSH2 0x9AC SWAP1 PUSH1 0x1 PUSH2 0xBEC JUMP JUMPDEST PUSH1 0x1 PUSH1 0xA0 PUSH1 0x2 EXP SUB SWAP1 SWAP3 AND PUSH1 0x0 SWAP1 DUP2 MSTORE PUSH1 0x5 PUSH1 0x20 SWAP1 DUP2 MSTORE PUSH1 0x40 DUP1 DUP4 KECCAK256 SWAP5 SWAP1 SWAP5 SSTORE SWAP2 DUP2 MSTORE PUSH1 0x3 SWAP1 SWAP2 MSTORE KECCAK256 DUP1 SLOAD PUSH20 0xFFFFFFFFFFFFFFFFFFFFFFFFFFFFFFFFFFFFFFFF NOT AND SWAP1 SSTORE JUMP JUMPDEST PUSH1 0x0 DUP2 DUP2 MSTORE PUSH1 0x3 PUSH1 0x20 MSTORE PUSH1 0x40 SWAP1 KECCAK256 SLOAD PUSH1 0x1 PUSH1 0xA0 PUSH1 0x2 EXP SUB AND ISZERO PUSH2 0xA14 JUMPI PUSH1 0x0 DUP1 REVERT JUMPDEST PUSH1 0x0 DUP2 DUP2 MSTORE PUSH1 0x3 PUSH1 0x20 SWAP1 DUP2 MSTORE PUSH1 0x40 DUP1 DUP4 KECCAK256 DUP1 SLOAD PUSH20 0xFFFFFFFFFFFFFFFFFFFFFFFFFFFFFFFFFFFFFFFF NOT AND PUSH1 0x1 PUSH1 0xA0 PUSH1 0x2 EXP SUB DUP8 AND SWAP1 DUP2 OR SWAP1 SWAP2 SSTORE DUP4 MSTORE PUSH1 0x5 SWAP1 SWAP2 MSTORE SWAP1 KECCAK256 SLOAD PUSH2 0xA63 SWAP1 PUSH1 0x1 PUSH2 0xBFE JUMP JUMPDEST PUSH1 0x1 PUSH1 0xA0 PUSH1 0x2 EXP SUB SWAP1 SWAP3 AND PUSH1 0x0 SWAP1 DUP2 MSTORE PUSH1 0x5 PUSH1 0x20 MSTORE PUSH1 0x40 SWAP1 KECCAK256 SWAP2 SWAP1 SWAP2 SSTORE POP JUMP JUMPDEST PUSH1 0x1 PUSH1 0xA0 PUSH1 0x2 EXP SUB DUP3 AND ISZERO ISZERO PUSH2 0xA98 JUMPI PUSH1 0x0 DUP1 REVERT JUMPDEST PUSH2 0xAA2 DUP3 DUP3 PUSH2 0x9F2 JUMP JUMPDEST DUP2 PUSH1 0x1 PUSH1 0xA0 PUSH1 0x2 EXP SUB AND PUSH1 0x0 PUSH1 0x1 PUSH1 0xA0 PUSH1 0x2 EXP SUB AND PUSH32 0xDDF252AD1BE2C89B69C2B068FC378DAA952BA7F163C4A11628F55A4DF523B3EF DUP4 PUSH1 0x40 MLOAD PUSH2 0x765 SWAP2 SWAP1 PUSH2 0xFDF JUMP JUMPDEST PUSH1 0x0 DUP1 PUSH2 0xAF2 DUP6 PUSH2 0xC14 JUMP JUMPDEST ISZERO ISZERO PUSH2 0xB01 JUMPI PUSH1 0x1 SWAP2 POP PUSH2 0xBE3 JUMP JUMPDEST PUSH1 0x40 MLOAD PUSH32 0xF0B9E5BA00000000000000000000000000000000000000000000000000000000 DUP2 MSTORE PUSH1 0x1 PUSH1 0xA0 PUSH1 0x2 EXP SUB DUP7 AND SWAP1 PUSH4 0xF0B9E5BA SWAP1 PUSH2 0xB4A SWAP1 DUP10 SWAP1 DUP9 SWAP1 DUP9 SWAP1 PUSH1 0x4 ADD PUSH2 0xF6A JUMP JUMPDEST PUSH1 0x20 PUSH1 0x40 MLOAD DUP1 DUP4 SUB DUP2 PUSH1 0x0 DUP8 DUP1 EXTCODESIZE ISZERO DUP1 ISZERO PUSH2 0xB64 JUMPI PUSH1 0x0 DUP1 REVERT JUMPDEST POP GAS CALL ISZERO DUP1 ISZERO PUSH2 0xB78 JUMPI RETURNDATASIZE PUSH1 0x0 DUP1 RETURNDATACOPY RETURNDATASIZE PUSH1 0x0 REVERT JUMPDEST POP POP POP POP PUSH1 0x40 MLOAD RETURNDATASIZE PUSH1 0x1F NOT PUSH1 0x1F DUP3 ADD AND DUP3 ADD DUP1 PUSH1 0x40 MSTORE POP PUSH2 0xB9C SWAP2 SWAP1 DUP2 ADD SWAP1 PUSH2 0xE1E JUMP JUMPDEST PUSH28 0xFFFFFFFFFFFFFFFFFFFFFFFFFFFFFFFFFFFFFFFFFFFFFFFFFFFFFFFF NOT DUP2 AND PUSH32 0xF0B9E5BA00000000000000000000000000000000000000000000000000000000 EQ SWAP3 POP SWAP1 POP JUMPDEST POP SWAP5 SWAP4 POP POP POP POP JUMP JUMPDEST PUSH1 0x0 DUP3 DUP3 GT ISZERO PUSH2 0xBF8 JUMPI INVALID JUMPDEST POP SWAP1 SUB SWAP1 JUMP JUMPDEST PUSH1 0x0 DUP3 DUP3 ADD DUP4 DUP2 LT ISZERO PUSH2 0xC0D JUMPI INVALID JUMPDEST SWAP4 SWAP3 POP POP POP JUMP JUMPDEST PUSH1 0x0 SWAP1 EXTCODESIZE GT SWAP1 JUMP JUMPDEST PUSH1 0x0 PUSH2 0xC0D DUP3 CALLDATALOAD PUSH2 0x1040 JUMP JUMPDEST PUSH1 0x0 PUSH2 0xC0D DUP3 CALLDATALOAD PUSH2 0x104C JUMP JUMPDEST PUSH1 0x0 PUSH2 0xC0D DUP3 MLOAD PUSH2 0x1054 JUMP JUMPDEST PUSH1 0x0 PUSH1 0x1F DUP3 ADD DUP4 SGT PUSH2 0xC51 JUMPI PUSH1 0x0 DUP1 REVERT JUMPDEST DUP2 CALLDATALOAD PUSH2 0xC64 PUSH2 0xC5F DUP3 PUSH2 0x1014 JUMP JUMPDEST PUSH2 0xFED JUMP JUMPDEST SWAP2 POP DUP1 DUP3 MSTORE PUSH1 0x20 DUP4 ADD PUSH1 0x20 DUP4 ADD DUP6 DUP4 DUP4 ADD GT ISZERO PUSH2 0xC80 JUMPI PUSH1 0x0 DUP1 REVERT JUMPDEST PUSH2 0xC8B DUP4 DUP3 DUP5 PUSH2 0x1076 JUMP JUMPDEST POP POP POP SWAP3 SWAP2 POP POP JUMP JUMPDEST PUSH1 0x0 PUSH2 0xC0D DUP3 CALLDATALOAD PUSH2 0x1051 JUMP JUMPDEST PUSH1 0x0 PUSH1 0x20 DUP3 DUP5 SUB SLT ISZERO PUSH2 0xCB2 JUMPI PUSH1 0x0 DUP1 REVERT JUMPDEST PUSH1 0x0 PUSH2 0x8B4 DUP5 DUP5 PUSH2 0xC1C JUMP JUMPDEST PUSH1 0x0 DUP1 PUSH1 0x40 DUP4 DUP6 SUB SLT ISZERO PUSH2 0xCD1 JUMPI PUSH1 0x0 DUP1 REVERT JUMPDEST PUSH1 0x0 PUSH2 0xCDD DUP6 DUP6 PUSH2 0xC1C JUMP JUMPDEST SWAP3 POP POP PUSH1 0x20 PUSH2 0xCEE DUP6 DUP3 DUP7 ADD PUSH2 0xC1C JUMP JUMPDEST SWAP2 POP POP SWAP3 POP SWAP3 SWAP1 POP JUMP JUMPDEST PUSH1 0x0 DUP1 PUSH1 0x0 PUSH1 0x60 DUP5 DUP7 SUB SLT ISZERO PUSH2 0xD0D JUMPI PUSH1 0x0 DUP1 REVERT JUMPDEST PUSH1 0x0 PUSH2 0xD19 DUP7 DUP7 PUSH2 0xC1C JUMP JUMPDEST SWAP4 POP POP PUSH1 0x20 PUSH2 0xD2A DUP7 DUP3 DUP8 ADD PUSH2 0xC1C JUMP JUMPDEST SWAP3 POP POP PUSH1 0x40 PUSH2 0xD3B DUP7 DUP3 DUP8 ADD PUSH2 0xC94 JUMP JUMPDEST SWAP2 POP POP SWAP3 POP SWAP3 POP SWAP3 JUMP JUMPDEST PUSH1 0x0 DUP1 PUSH1 0x0 DUP1 PUSH1 0x80 DUP6 DUP8 SUB SLT ISZERO PUSH2 0xD5B JUMPI PUSH1 0x0 DUP1 REVERT JUMPDEST PUSH1 0x0 PUSH2 0xD67 DUP8 DUP8 PUSH2 0xC1C JUMP JUMPDEST SWAP5 POP POP PUSH1 0x20 PUSH2 0xD78 DUP8 DUP3 DUP9 ADD PUSH2 0xC1C JUMP JUMPDEST SWAP4 POP POP PUSH1 0x40 PUSH2 0xD89 DUP8 DUP3 DUP9 ADD PUSH2 0xC94 JUMP JUMPDEST SWAP3 POP POP PUSH1 0x60 DUP6 ADD CALLDATALOAD PUSH8 0xFFFFFFFFFFFFFFFF DUP2 GT ISZERO PUSH2 0xDA6 JUMPI PUSH1 0x0 DUP1 REVERT JUMPDEST PUSH2 0xDB2 DUP8 DUP3 DUP9 ADD PUSH2 0xC40 JUMP JUMPDEST SWAP2 POP POP SWAP3 SWAP6 SWAP2 SWAP5 POP SWAP3 POP JUMP JUMPDEST PUSH1 0x0 DUP1 PUSH1 0x40 DUP4 DUP6 SUB SLT ISZERO PUSH2 0xDD1 JUMPI PUSH1 0x0 DUP1 REVERT JUMPDEST PUSH1 0x0 PUSH2 0xDDD DUP6 DUP6 PUSH2 0xC1C JUMP JUMPDEST SWAP3 POP POP PUSH1 0x20 PUSH2 0xCEE DUP6 DUP3 DUP7 ADD PUSH2 0xC28 JUMP JUMPDEST PUSH1 0x0 DUP1 PUSH1 0x40 DUP4 DUP6 SUB SLT ISZERO PUSH2 0xE01 JUMPI PUSH1 0x0 DUP1 REVERT JUMPDEST PUSH1 0x0 PUSH2 0xE0D DUP6 DUP6 PUSH2 0xC1C JUMP JUMPDEST SWAP3 POP POP PUSH1 0x20 PUSH2 0xCEE DUP6 DUP3 DUP7 ADD PUSH2 0xC94 JUMP JUMPDEST PUSH1 0x0 PUSH1 0x20 DUP3 DUP5 SUB SLT ISZERO PUSH2 0xE30 JUMPI PUSH1 0x0 DUP1 REVERT JUMPDEST PUSH1 0x0 PUSH2 0x8B4 DUP5 DUP5 PUSH2 0xC34 JUMP JUMPDEST PUSH1 0x0 PUSH1 0x20 DUP3 DUP5 SUB SLT ISZERO PUSH2 0xE4E JUMPI PUSH1 0x0 DUP1 REVERT JUMPDEST PUSH1 0x0 PUSH2 0x8B4 DUP5 DUP5 PUSH2 0xC94 JUMP JUMPDEST PUSH2 0xE63 DUP2 PUSH2 0x1040 JUMP JUMPDEST DUP3 MSTORE POP POP JUMP JUMPDEST PUSH2 0xE63 DUP2 PUSH2 0x104C JUMP JUMPDEST PUSH1 0x0 PUSH2 0xE7D DUP3 PUSH2 0x103C JUMP JUMPDEST DUP1 DUP5 MSTORE PUSH2 0xE91 DUP2 PUSH1 0x20 DUP7 ADD PUSH1 0x20 DUP7 ADD PUSH2 0x1082 JUMP JUMPDEST PUSH2 0xE9A DUP2 PUSH2 0x10AE JUMP JUMPDEST SWAP1 SWAP4 ADD PUSH1 0x20 ADD SWAP4 SWAP3 POP POP POP JUMP JUMPDEST PUSH1 0x22 DUP2 MSTORE PUSH32 0x546F6B656E207769746820746F6B656E496420616C7265616479206578697374 PUSH1 0x20 DUP3 ADD MSTORE PUSH32 0x732E000000000000000000000000000000000000000000000000000000000000 PUSH1 0x40 DUP3 ADD MSTORE PUSH1 0x60 ADD SWAP1 JUMP JUMPDEST PUSH1 0x33 DUP2 MSTORE PUSH32 0x4F6E6C7920636F6E7472616374206F776E657220697320616C6C6F7765642074 PUSH1 0x20 DUP3 ADD MSTORE PUSH32 0x6F2063616C6C2074686973206D6574686F642E00000000000000000000000000 PUSH1 0x40 DUP3 ADD MSTORE PUSH1 0x60 ADD SWAP1 JUMP JUMPDEST PUSH2 0xE63 DUP2 PUSH2 0x1051 JUMP JUMPDEST PUSH1 0x20 DUP2 ADD PUSH2 0x646 DUP3 DUP5 PUSH2 0xE5A JUMP JUMPDEST PUSH1 0x60 DUP2 ADD PUSH2 0xF78 DUP3 DUP7 PUSH2 0xE5A JUMP JUMPDEST PUSH2 0xF85 PUSH1 0x20 DUP4 ADD DUP6 PUSH2 0xF53 JUMP JUMPDEST DUP2 DUP2 SUB PUSH1 0x40 DUP4 ADD MSTORE PUSH2 0xF97 DUP2 DUP5 PUSH2 0xE72 JUMP JUMPDEST SWAP6 SWAP5 POP POP POP POP POP JUMP JUMPDEST PUSH1 0x20 DUP2 ADD PUSH2 0x646 DUP3 DUP5 PUSH2 0xE69 JUMP JUMPDEST PUSH1 0x20 DUP1 DUP3 MSTORE DUP2 ADD PUSH2 0xC0D DUP2 DUP5 PUSH2 0xE72 JUMP JUMPDEST PUSH1 0x20 DUP1 DUP3 MSTORE DUP2 ADD PUSH2 0x646 DUP2 PUSH2 0xEA7 JUMP JUMPDEST PUSH1 0x20 DUP1 DUP3 MSTORE DUP2 ADD PUSH2 0x646 DUP2 PUSH2 0xEFD JUMP JUMPDEST PUSH1 0x20 DUP2 ADD PUSH2 0x646 DUP3 DUP5 PUSH2 0xF53 JUMP JUMPDEST PUSH1 0x40 MLOAD DUP2 DUP2 ADD PUSH8 0xFFFFFFFFFFFFFFFF DUP2 GT DUP3 DUP3 LT OR ISZERO PUSH2 0x100C JUMPI PUSH1 0x0 DUP1 REVERT JUMPDEST PUSH1 0x40 MSTORE SWAP2 SWAP1 POP JUMP JUMPDEST PUSH1 0x0 PUSH8 0xFFFFFFFFFFFFFFFF DUP3 GT ISZERO PUSH2 0x102B JUMPI PUSH1 0x0 DUP1 REVERT JUMPDEST POP PUSH1 0x20 PUSH1 0x1F SWAP2 SWAP1 SWAP2 ADD PUSH1 0x1F NOT AND ADD SWAP1 JUMP JUMPDEST MLOAD SWAP1 JUMP JUMPDEST PUSH1 0x1 PUSH1 0xA0 PUSH1 0x2 EXP SUB AND SWAP1 JUMP JUMPDEST ISZERO ISZERO SWAP1 JUMP JUMPDEST SWAP1 JUMP JUMPDEST PUSH28 0xFFFFFFFFFFFFFFFFFFFFFFFFFFFFFFFFFFFFFFFFFFFFFFFFFFFFFFFF NOT AND SWAP1 JUMP JUMPDEST DUP3 DUP2 DUP4 CALLDATACOPY POP PUSH1 0x0 SWAP2 ADD MSTORE JUMP JUMPDEST PUSH1 0x0 JUMPDEST DUP4 DUP2 LT ISZERO PUSH2 0x109D JUMPI DUP2 DUP2 ADD MLOAD DUP4 DUP3 ADD MSTORE PUSH1 0x20 ADD PUSH2 0x1085 JUMP JUMPDEST DUP4 DUP2 GT ISZERO PUSH2 0x5FF JUMPI POP POP PUSH1 0x0 SWAP2 ADD MSTORE JUMP JUMPDEST PUSH1 0x1F ADD PUSH1 0x1F NOT AND SWAP1 JUMP STOP LOG2 PUSH6 0x627A7A723058 KECCAK256 0x4e 0xca REVERT ORIGIN POP 0xd9 SWAP5 EXP 0xdd 0xaf 0xb4 PUSH9 0x8D80FDE77E18BAF464 0xce SWAP15 0xab BLOCKHASH MOD SHR 0xed 0xe7 ADD 0xf6 PUSH32 0x6C6578706572696D656E74616CF5003700000000000000000000000000000000 "
			}
		}
	},
	"sourceTreeHashHex": "0x7cce47f27793027ab835300a5a83a72a7960b87f1dae68ba155b292086d9563e",
	"compiler": {
		"name": "solc",
		"version": "soljson-v0.4.24+commit.e67f0147.js",
		"settings": {
			"optimizer": {
				"enabled": true,
				"runs": 200
			},
			"outputSelection": {
				"*": {
					"*": [
						"abi",
						"evm.bytecode.object",
						"evm.bytecode.sourceMap",
						"evm.deployedBytecode.object",
						"evm.deployedBytecode.sourceMap"
					]
				}
			}
		}
	}
}