{
	"schemaVersion": "2.0.0",
	"contractName": "DummyERC721Receiver",
	"compilerOutput": {
		"abi": [
			{
				"constant": false,
				"inputs": [
					{
						"name": "_from",
						"type": "address"
					},
					{
						"name": "_tokenId",
						"type": "uint256"
					},
					{
						"name": "_data",
						"type": "bytes"
					}
				],
				"name": "onERC721Received",
				"outputs": [
					{
						"name": "",
						"type": "bytes4"
					}
				],
				"payable": false,
				"stateMutability": "nonpayable",
				"type": "function"
			},
			{
				"anonymous": false,
				"inputs": [
					{
						"indexed": false,
						"name": "from",
						"type": "address"
					},
					{
						"indexed": false,
						"name": "tokenId",
						"type": "uint256"
					},
					{
						"indexed": false,
						"name": "data",
						"type": "bytes"
					}
				],
				"name": "TokenReceived",
				"type": "event"
			}
		],
		"evm": {
			"bytecode": {
				"linkReferences": {},
				"object": "0x608060405234801561001057600080fd5b5061021c806100206000396000f3006080604052600436106100405763ffffffff7c0100000000000000000000000000000000000000000000000000000000600035041663f0b9e5ba8114610045575b600080fd5b34801561005157600080fd5b50604080516020600460443581810135601f81018490048402850184019095528484526100bb94823573ffffffffffffffffffffffffffffffffffffffff169460248035953695946064949201919081908401838280828437509497506100f09650505050505050565b604080517fffffffff000000000000000000000000000000000000000000000000000000009092168252519081900360200190f35b60007fefe605af9663e0f15f1dd40dad79f119df71e8d2affb3f6857cb9707c6c4b3ea848484604051808473ffffffffffffffffffffffffffffffffffffffff1673ffffffffffffffffffffffffffffffffffffffff16815260200183815260200180602001828103825283818151815260200191508051906020019080838360005b8381101561018b578181015183820152602001610173565b50505050905090810190601f1680156101b85780820380516001836020036101000a031916815260200191505b5094505050505060405180910390a1507ff0b9e5ba0000000000000000000000000000000000000000000000000000000093925050505600a165627a7a723058202ca67ec58d42066e70e6ca74390d9c37519a80c013469cf8b07082e0ab1ce74d0029",
				"opcodes": "PUSH1 0x80 PUSH1 0x40 MSTORE CALLVALUE DUP1 ISZERO PUSH2 0x10 JUMPI PUSH1 0x0 DUP1 REVERT JUMPDEST POP PUSH2 0x21C DUP1 PUSH2 0x20 PUSH1 0x0 CODECOPY PUSH1 0x0 RETURN STOP PUSH1 0x80 PUSH1 0x40 MSTORE PUSH1 0x4 CALLDATASIZE LT PUSH2 0x40 JUMPI PUSH4 0xFFFFFFFF PUSH29 0x100000000000000000000000000000000000000000000000000000000 PUSH1 0x0 CALLDATALOAD DIV AND PUSH4 0xF0B9E5BA DUP2 EQ PUSH2 0x45 JUMPI JUMPDEST PUSH1 0x0 DUP1 REVERT JUMPDEST CALLVALUE DUP1 ISZERO PUSH2 0x51 JUMPI PUSH1 0x0 DUP1 REVERT JUMPDEST POP PUSH1 0x40 DUP1 MLOAD PUSH1 0x20 PUSH1 0x4 PUSH1 0x44 CALLDATALOAD DUP2 DUP2 ADD CALLDATALOAD PUSH1 0x1F DUP2 ADD DUP5 SWAP1 DIV DUP5 MUL DUP6 ADD DUP5 ADD SWAP1 SWAP6 MSTORE DUP5 DUP5 MSTORE PUSH2 0xBB SWAP5 DUP3 CALLDATALOAD PUSH20 0xFFFFFFFFFFFFFFFFFFFFFFFFFFFFFFFFFFFFFFFF AND SWAP5 PUSH1 0x24 DUP1 CALLDATALOAD SWAP6 CALLDATASIZE SWAP6 SWAP5 PUSH1 0x64 SWAP5 SWAP3 ADD SWAP2 SWAP1 DUP2 SWAP1 DUP5 ADD DUP4 DUP3 DUP1 DUP3 DUP5 CALLDATACOPY POP SWAP5 SWAP8 POP PUSH2 0xF0 SWAP7 POP POP POP POP POP POP POP JUMP JUMPDEST PUSH1 0x40 DUP1 MLOAD PUSH32 0xFFFFFFFF00000000000000000000000000000000000000000000000000000000 SWAP1 SWAP3 AND DUP3 MSTORE MLOAD SWAP1 DUP2 SWAP1 SUB PUSH1 0x20 ADD SWAP1 RETURN JUMPDEST PUSH1 0x0 PUSH32 0xEFE605AF9663E0F15F1DD40DAD79F119DF71E8D2AFFB3F6857CB9707C6C4B3EA DUP5 DUP5 DUP5 PUSH1 0x40 MLOAD DUP1 DUP5 PUSH20 0xFFFFFFFFFFFFFFFFFFFFFFFFFFFFFFFFFFFFFFFF AND PUSH20 0xFFFFFFFFFFFFFFFFFFFFFFFFFFFFFFFFFFFFFFFF AND DUP2 MSTORE PUSH1 0x20 ADD DUP4 DUP2 MSTORE PUSH1 0x20 ADD DUP1 PUSH1 0x20 ADD DUP3 DUP2 SUB DUP3 MSTORE DUP4 DUP2 DUP2 MLOAD DUP2 MSTORE PUSH1 0x20 ADD SWAP2 POP DUP1 MLOAD SWAP1 PUSH1 0x20 ADD SWAP1 DUP1 DUP4 DUP4 PUSH1 0x0 JUMPDEST DUP4 DUP2 LT ISZERO PUSH2 0x18B JUMPI DUP2 DUP2 ADD MLOAD DUP4 DUP3 ADD MSTORE PUSH1 0x20 ADD PUSH2 0x173 JUMP JUMPDEST POP POP POP POP SWAP1 POP SWAP1 DUP2 ADD SWAP1 PUSH1 0x1F AND DUP1 ISZERO PUSH2 0x1B8 JUMPI DUP1 DUP3 SUB DUP1 MLOAD PUSH1 0x1 DUP4 PUSH1 0x20 SUB PUSH2 0x100 EXP SUB NOT AND DUP2 MSTORE PUSH1 0x20 ADD SWAP2 POP JUMPDEST POP SWAP5 POP POP POP POP POP PUSH1 0x40 MLOAD DUP1 SWAP2 SUB SWAP1 LOG1 POP PUSH32 0xF0B9E5BA00000000000000000000000000000000000000000000000000000000 SWAP4 SWAP3 POP POP POP JUMP STOP LOG1 PUSH6 0x627A7A723058 KECCAK256 0x2c 0xa6 PUSH31 0xC58D42066E70E6CA74390D9C37519A80C013469CF8B07082E0AB1CE74D0029 "
			}
		}
	},
	"sourceTreeHashHex": "0x78d041d511725e5b22accff013b3ca3c813fc2804b0af3a247e6932ffd1c23ae",
	"compiler": {
		"name": "solc",
		"version": "soljson-v0.4.24+commit.e67f0147.js",
		"settings": {
			"optimizer": {
				"enabled": true,
				"runs": 1000000
			},
			"outputSelection": {
				"*": {
					"*": [
						"abi",
						"evm.bytecode.object",
						"evm.bytecode.sourceMap",
						"evm.deployedBytecode.object",
						"evm.deployedBytecode.sourceMap"
					]
				}
			}
		}
	}
}