{
	"schemaVersion": "2.0.0",
	"contractName": "ERC721Proxy",
	"compilerOutput": {
		"abi": [
			{
				"constant": false,
				"inputs": [
					{
						"name": "target",
						"type": "address"
					}
				],
				"name": "addAuthorizedAddress",
				"outputs": [],
				"payable": false,
				"stateMutability": "nonpayable",
				"type": "function"
			},
			{
				"constant": true,
				"inputs": [
					{
						"name": "",
						"type": "uint256"
					}
				],
				"name": "authorities",
				"outputs": [
					{
						"name": "",
						"type": "address"
					}
				],
				"payable": false,
				"stateMutability": "view",
				"type": "function"
			},
			{
				"constant": false,
				"inputs": [
					{
						"name": "target",
						"type": "address"
					}
				],
				"name": "removeAuthorizedAddress",
				"outputs": [],
				"payable": false,
				"stateMutability": "nonpayable",
				"type": "function"
			},
			{
				"constant": true,
				"inputs": [],
				"name": "owner",
				"outputs": [
					{
						"name": "",
						"type": "address"
					}
				],
				"payable": false,
				"stateMutability": "view",
				"type": "function"
			},
			{
				"constant": false,
				"inputs": [
					{
						"name": "target",
						"type": "address"
					},
					{
						"name": "index",
						"type": "uint256"
					}
				],
				"name": "removeAuthorizedAddressAtIndex",
				"outputs": [],
				"payable": false,
				"stateMutability": "nonpayable",
				"type": "function"
			},
			{
				"constant": true,
				"inputs": [],
				"name": "getProxyId",
				"outputs": [
					{
						"name": "",
						"type": "bytes4"
					}
				],
				"payable": false,
				"stateMutability": "pure",
				"type": "function"
			},
			{
				"constant": true,
				"inputs": [
					{
						"name": "",
						"type": "address"
					}
				],
				"name": "authorized",
				"outputs": [
					{
						"name": "",
						"type": "bool"
					}
				],
				"payable": false,
				"stateMutability": "view",
				"type": "function"
			},
			{
				"constant": true,
				"inputs": [],
				"name": "getAuthorizedAddresses",
				"outputs": [
					{
						"name": "",
						"type": "address[]"
					}
				],
				"payable": false,
				"stateMutability": "view",
				"type": "function"
			},
			{
				"constant": false,
				"inputs": [
					{
						"name": "newOwner",
						"type": "address"
					}
				],
				"name": "transferOwnership",
				"outputs": [],
				"payable": false,
				"stateMutability": "nonpayable",
				"type": "function"
			},
			{
				"payable": false,
				"stateMutability": "nonpayable",
				"type": "fallback"
			},
			{
				"anonymous": false,
				"inputs": [
					{
						"indexed": true,
						"name": "target",
						"type": "address"
					},
					{
						"indexed": true,
						"name": "caller",
						"type": "address"
					}
				],
				"name": "AuthorizedAddressAdded",
				"type": "event"
			},
			{
				"anonymous": false,
				"inputs": [
					{
						"indexed": true,
						"name": "target",
						"type": "address"
					},
					{
						"indexed": true,
						"name": "caller",
						"type": "address"
					}
				],
				"name": "AuthorizedAddressRemoved",
				"type": "event"
			}
		],
		"evm": {
			"bytecode": {
				"linkReferences": {},
				"object": "0x608060405260008054600160a060020a0319163317905561111e806100256000396000f3006080604052600436106100985763ffffffff7c010000000000000000000000000000000000000000000000000000000060003504166342f1181e811461039f578063494503d4146103c157806370712939146103f75780638da5cb5b146104175780639ad267441461042c578063ae25532e1461044c578063b91816111461046e578063d39de6e91461049b578063f2fde38b146104bd575b3480156100a457600080fd5b507fffffffff00000000000000000000000000000000000000000000000000000000600035167fa85e59e40000000000000000000000000000000000000000000000000000000081141561039c57604080513381526001602082015290812054151561017b577f08c379a0000000000000000000000000000000000000000000000000000000006000527c20000000000000000000000000000000000000000000000000000000006020527c1553454e4445525f4e4f545f415554484f52495a454400000000000000604052600060605260646000fd5b600160643503156101f7577f08c379a0000000000000000000000000000000000000000000000000000000006000527c20000000000000000000000000000000000000000000000000000000006020527c0e494e56414c49445f414d4f554e540000000000000000000000000000604052600060605260646000fd5b600435608460048201351015610297577f08c379a0000000000000000000000000000000000000000000000000000000006000527c20000000000000000000000000000000000000000000000000000000006020527c204c454e4754485f475245415445525f5448414e5f3133315f524551556040527f495245440000000000000000000000000000000000000000000000000000000060605260646000fd5b6040517fb88d4fde000000000000000000000000000000000000000000000000000000008152608882013560288301357fffffffffffffffffffffffffffffffffffffffffffffffffffffffffffffffe0601f830116915060406024600485013760488401356044840152608060648401526020820160888501608485013760008060a48401856000855af1801561032b57005b7f08c379a0000000000000000000000000000000000000000000000000000000006000527c20000000000000000000000000000000000000000000000000000000006020527c0f5452414e534645525f4641494c454400000000000000000000000000604052600060605260646000fd5b50005b3480156103ab57600080fd5b506103bf6103ba366004610e20565b6104dd565b005b3480156103cd57600080fd5b506103e16103dc366004610e80565b610668565b6040516103ee9190611006565b60405180910390f35b34801561040357600080fd5b506103bf610412366004610e20565b61069d565b34801561042357600080fd5b506103e161092c565b34801561043857600080fd5b506103bf610447366004610e46565b610948565b34801561045857600080fd5b50610461610c29565b6040516103ee9190611039565b34801561047a57600080fd5b5061048e610489366004610e20565b610c85565b6040516103ee919061102b565b3480156104a757600080fd5b506104b0610c9a565b6040516103ee919061101a565b3480156104c957600080fd5b506103bf6104d8366004610e20565b610d09565b60005473ffffffffffffffffffffffffffffffffffffffff163314610537576040517f08c379a000000000000000000000000000000000000000000000000000000000815260040161052e90611087565b60405180910390fd5b73ffffffffffffffffffffffffffffffffffffffff811660009081526001602052604090205460ff1615610597576040517f08c379a000000000000000000000000000000000000000000000000000000000815260040161052e90611067565b73ffffffffffffffffffffffffffffffffffffffff8116600081815260016020819052604080832080547fffffffffffffffffffffffffffffffffffffffffffffffffffffffffffffff00168317905560028054928301815583527f405787fa12a823e0f2b7631cc41b3ba8828b3321ca811111fa75cd3aa3bb5ace90910180547fffffffffffffffffffffffff00000000000000000000000000000000000000001684179055513392917f3147867c59d17e8fa9d522465651d44aae0a9e38f902f3475b97e58072f0ed4c91a350565b600280548290811061067657fe5b60009182526020909120015473ffffffffffffffffffffffffffffffffffffffff16905081565b6000805473ffffffffffffffffffffffffffffffffffffffff1633146106ef576040517f08c379a000000000000000000000000000000000000000000000000000000000815260040161052e90611087565b73ffffffffffffffffffffffffffffffffffffffff821660009081526001602052604090205460ff161515610750576040517f08c379a000000000000000000000000000000000000000000000000000000000815260040161052e90611047565b5073ffffffffffffffffffffffffffffffffffffffff8116600090815260016020526040812080547fffffffffffffffffffffffffffffffffffffffffffffffffffffffffffffff001690555b6002548110156108e5578173ffffffffffffffffffffffffffffffffffffffff166002828154811015156107cd57fe5b60009182526020909120015473ffffffffffffffffffffffffffffffffffffffff1614156108dd57600280547fffffffffffffffffffffffffffffffffffffffffffffffffffffffffffffffff810190811061082557fe5b6000918252602090912001546002805473ffffffffffffffffffffffffffffffffffffffff909216918390811061085857fe5b600091825260209091200180547fffffffffffffffffffffffff00000000000000000000000000000000000000001673ffffffffffffffffffffffffffffffffffffffff92909216919091179055600280547fffffffffffffffffffffffffffffffffffffffffffffffffffffffffffffffff01906108d79082610dba565b506108e5565b60010161079d565b604051339073ffffffffffffffffffffffffffffffffffffffff8416907f1f32c1b084e2de0713b8fb16bd46bb9df710a3dbeae2f3ca93af46e016dcc6b090600090a35050565b60005473ffffffffffffffffffffffffffffffffffffffff1681565b60005473ffffffffffffffffffffffffffffffffffffffff163314610999576040517f08c379a000000000000000000000000000000000000000000000000000000000815260040161052e90611087565b73ffffffffffffffffffffffffffffffffffffffff821660009081526001602052604090205460ff1615156109fa576040517f08c379a000000000000000000000000000000000000000000000000000000000815260040161052e90611047565b6002548110610a35576040517f08c379a000000000000000000000000000000000000000000000000000000000815260040161052e90611077565b8173ffffffffffffffffffffffffffffffffffffffff16600282815481101515610a5b57fe5b60009182526020909120015473ffffffffffffffffffffffffffffffffffffffff1614610ab4576040517f08c379a000000000000000000000000000000000000000000000000000000000815260040161052e90611057565b73ffffffffffffffffffffffffffffffffffffffff8216600090815260016020526040902080547fffffffffffffffffffffffffffffffffffffffffffffffffffffffffffffff00169055600280547fffffffffffffffffffffffffffffffffffffffffffffffffffffffffffffffff8101908110610b2f57fe5b6000918252602090912001546002805473ffffffffffffffffffffffffffffffffffffffff9092169183908110610b6257fe5b600091825260209091200180547fffffffffffffffffffffffff00000000000000000000000000000000000000001673ffffffffffffffffffffffffffffffffffffffff92909216919091179055600280547fffffffffffffffffffffffffffffffffffffffffffffffffffffffffffffffff0190610be19082610dba565b50604051339073ffffffffffffffffffffffffffffffffffffffff8416907f1f32c1b084e2de0713b8fb16bd46bb9df710a3dbeae2f3ca93af46e016dcc6b090600090a35050565b604080517f455243373231546f6b656e28616464726573732c75696e743235362c6279746581527f7329000000000000000000000000000000000000000000000000000000000000602082015290519081900360220190205b90565b60016020526000908152604090205460ff1681565b60606002805480602002602001604051908101604052809291908181526020018280548015610cff57602002820191906000526020600020905b815473ffffffffffffffffffffffffffffffffffffffff168152600190910190602001808311610cd4575b5050505050905090565b60005473ffffffffffffffffffffffffffffffffffffffff163314610d5a576040517f08c379a000000000000000000000000000000000000000000000000000000000815260040161052e90611087565b73ffffffffffffffffffffffffffffffffffffffff811615610db757600080547fffffffffffffffffffffffff00000000000000000000000000000000000000001673ffffffffffffffffffffffffffffffffffffffff83161790555b50565b815481835581811115610dde57600083815260209020610dde918101908301610de3565b505050565b610c8291905b80821115610dfd5760008155600101610de9565b5090565b6000610e0d82356110a1565b9392505050565b6000610e0d8235610c82565b600060208284031215610e3257600080fd5b6000610e3e8484610e01565b949350505050565b60008060408385031215610e5957600080fd5b6000610e658585610e01565b9250506020610e7685828601610e14565b9150509250929050565b600060208284031215610e9257600080fd5b6000610e3e8484610e14565b610ea7816110a1565b82525050565b6000610eb88261109d565b808452602084019350610eca83611097565b60005b82811015610efa57610ee0868351610e9e565b610ee982611097565b602096909601959150600101610ecd565b5093949350505050565b610ea7816110ba565b610ea7816110bf565b601581527f5441524745545f4e4f545f415554484f52495a45440000000000000000000000602082015260400190565b601b81527f415554484f52495a45445f414444524553535f4d49534d415443480000000000602082015260400190565b601981527f5441524745545f414c52454144595f415554484f52495a454400000000000000602082015260400190565b601381527f494e4445585f4f55545f4f465f424f554e445300000000000000000000000000602082015260400190565b601381527f4f4e4c595f434f4e54524143545f4f574e455200000000000000000000000000602082015260400190565b602081016110148284610e9e565b92915050565b60208082528101610e0d8184610ead565b602081016110148284610f04565b602081016110148284610f0d565b6020808252810161101481610f16565b6020808252810161101481610f46565b6020808252810161101481610f76565b6020808252810161101481610fa6565b6020808252810161101481610fd6565b60200190565b5190565b73ffffffffffffffffffffffffffffffffffffffff1690565b151590565b7fffffffff0000000000000000000000000000000000000000000000000000000016905600a265627a7a7230582086b0ba0cb3f7db4b9419b3c793263922e1f4e5f2b5d0fe1e0c0989ef2356b1c56c6578706572696d656e74616cf50037",
				"opcodes": "PUSH1 0x80 PUSH1 0x40 MSTORE PUSH1 0x0 DUP1 SLOAD PUSH1 0x1 PUSH1 0xA0 PUSH1 0x2 EXP SUB NOT AND CALLER OR SWAP1 SSTORE PUSH2 0x111E DUP1 PUSH2 0x25 PUSH1 0x0 CODECOPY PUSH1 0x0 RETURN STOP PUSH1 0x80 PUSH1 0x40 MSTORE PUSH1 0x4 CALLDATASIZE LT PUSH2 0x98 JUMPI PUSH4 0xFFFFFFFF PUSH29 0x100000000000000000000000000000000000000000000000000000000 PUSH1 0x0 CALLDATALOAD DIV AND PUSH4 0x42F1181E DUP2 EQ PUSH2 0x39F JUMPI DUP1 PUSH4 0x494503D4 EQ PUSH2 0x3C1 JUMPI DUP1 PUSH4 0x70712939 EQ PUSH2 0x3F7 JUMPI DUP1 PUSH4 0x8DA5CB5B EQ PUSH2 0x417 JUMPI DUP1 PUSH4 0x9AD26744 EQ PUSH2 0x42C JUMPI DUP1 PUSH4 0xAE25532E EQ PUSH2 0x44C JUMPI DUP1 PUSH4 0xB9181611 EQ PUSH2 0x46E JUMPI DUP1 PUSH4 0xD39DE6E9 EQ PUSH2 0x49B JUMPI DUP1 PUSH4 0xF2FDE38B EQ PUSH2 0x4BD JUMPI JUMPDEST CALLVALUE DUP1 ISZERO PUSH2 0xA4 JUMPI PUSH1 0x0 DUP1 REVERT JUMPDEST POP PUSH32 0xFFFFFFFF00000000000000000000000000000000000000000000000000000000 PUSH1 0x0 CALLDATALOAD AND PUSH32 0xA85E59E400000000000000000000000000000000000000000000000000000000 DUP2 EQ ISZERO PUSH2 0x39C JUMPI PUSH1 0x40 DUP1 MLOAD CALLER DUP2 MSTORE PUSH1 0x1 PUSH1 0x20 DUP3 ADD MSTORE SWAP1 DUP2 KECCAK256 SLOAD ISZERO ISZERO PUSH2 0x17B JUMPI PUSH32 0x8C379A000000000000000000000000000000000000000000000000000000000 PUSH1 0x0 MSTORE PUSH29 0x2000000000000000000000000000000000000000000000000000000000 PUSH1 0x20 MSTORE PUSH29 0x1553454E4445525F4E4F545F415554484F52495A454400000000000000 PUSH1 0x40 MSTORE PUSH1 0x0 PUSH1 0x60 MSTORE PUSH1 0x64 PUSH1 0x0 REVERT JUMPDEST PUSH1 0x1 PUSH1 0x64 CALLDATALOAD SUB ISZERO PUSH2 0x1F7 JUMPI PUSH32 0x8C379A000000000000000000000000000000000000000000000000000000000 PUSH1 0x0 MSTORE PUSH29 0x2000000000000000000000000000000000000000000000000000000000 PUSH1 0x20 MSTORE PUSH29 0xE494E56414C49445F414D4F554E540000000000000000000000000000 PUSH1 0x40 MSTORE PUSH1 0x0 PUSH1 0x60 MSTORE PUSH1 0x64 PUSH1 0x0 REVERT JUMPDEST PUSH1 0x4 CALLDATALOAD PUSH1 0x84 PUSH1 0x4 DUP3 ADD CALLDATALOAD LT ISZERO PUSH2 0x297 JUMPI PUSH32 0x8C379A000000000000000000000000000000000000000000000000000000000 PUSH1 0x0 MSTORE PUSH29 0x2000000000000000000000000000000000000000000000000000000000 PUSH1 0x20 MSTORE PUSH29 0x204C454E4754485F475245415445525F5448414E5F3133315F52455155 PUSH1 0x40 MSTORE PUSH32 0x4952454400000000000000000000000000000000000000000000000000000000 PUSH1 0x60 MSTORE PUSH1 0x64 PUSH1 0x0 REVERT JUMPDEST PUSH1 0x40 MLOAD PUSH32 0xB88D4FDE00000000000000000000000000000000000000000000000000000000 DUP2 MSTORE PUSH1 0x88 DUP3 ADD CALLDATALOAD PUSH1 0x28 DUP4 ADD CALLDATALOAD PUSH32 0xFFFFFFFFFFFFFFFFFFFFFFFFFFFFFFFFFFFFFFFFFFFFFFFFFFFFFFFFFFFFFFE0 PUSH1 0x1F DUP4 ADD AND SWAP2 POP PUSH1 0x40 PUSH1 0x24 PUSH1 0x4 DUP6 ADD CALLDATACOPY PUSH1 0x48 DUP5 ADD CALLDATALOAD PUSH1 0x44 DUP5 ADD MSTORE PUSH1 0x80 PUSH1 0x64 DUP5 ADD MSTORE PUSH1 0x20 DUP3 ADD PUSH1 0x88 DUP6 ADD PUSH1 0x84 DUP6 ADD CALLDATACOPY PUSH1 0x0 DUP1 PUSH1 0xA4 DUP5 ADD DUP6 PUSH1 0x0 DUP6 GAS CALL DUP1 ISZERO PUSH2 0x32B JUMPI STOP JUMPDEST PUSH32 0x8C379A000000000000000000000000000000000000000000000000000000000 PUSH1 0x0 MSTORE PUSH29 0x2000000000000000000000000000000000000000000000000000000000 PUSH1 0x20 MSTORE PUSH29 0xF5452414E534645525F4641494C454400000000000000000000000000 PUSH1 0x40 MSTORE PUSH1 0x0 PUSH1 0x60 MSTORE PUSH1 0x64 PUSH1 0x0 REVERT JUMPDEST POP STOP JUMPDEST CALLVALUE DUP1 ISZERO PUSH2 0x3AB JUMPI PUSH1 0x0 DUP1 REVERT JUMPDEST POP PUSH2 0x3BF PUSH2 0x3BA CALLDATASIZE PUSH1 0x4 PUSH2 0xE20 JUMP JUMPDEST PUSH2 0x4DD JUMP JUMPDEST STOP JUMPDEST CALLVALUE DUP1 ISZERO PUSH2 0x3CD JUMPI PUSH1 0x0 DUP1 REVERT JUMPDEST POP PUSH2 0x3E1 PUSH2 0x3DC CALLDATASIZE PUSH1 0x4 PUSH2 0xE80 JUMP JUMPDEST PUSH2 0x668 JUMP JUMPDEST PUSH1 0x40 MLOAD PUSH2 0x3EE SWAP2 SWAP1 PUSH2 0x1006 JUMP JUMPDEST PUSH1 0x40 MLOAD DUP1 SWAP2 SUB SWAP1 RETURN JUMPDEST CALLVALUE DUP1 ISZERO PUSH2 0x403 JUMPI PUSH1 0x0 DUP1 REVERT JUMPDEST POP PUSH2 0x3BF PUSH2 0x412 CALLDATASIZE PUSH1 0x4 PUSH2 0xE20 JUMP JUMPDEST PUSH2 0x69D JUMP JUMPDEST CALLVALUE DUP1 ISZERO PUSH2 0x423 JUMPI PUSH1 0x0 DUP1 REVERT JUMPDEST POP PUSH2 0x3E1 PUSH2 0x92C JUMP JUMPDEST CALLVALUE DUP1 ISZERO PUSH2 0x438 JUMPI PUSH1 0x0 DUP1 REVERT JUMPDEST POP PUSH2 0x3BF PUSH2 0x447 CALLDATASIZE PUSH1 0x4 PUSH2 0xE46 JUMP JUMPDEST PUSH2 0x948 JUMP JUMPDEST CALLVALUE DUP1 ISZERO PUSH2 0x458 JUMPI PUSH1 0x0 DUP1 REVERT JUMPDEST POP PUSH2 0x461 PUSH2 0xC29 JUMP JUMPDEST PUSH1 0x40 MLOAD PUSH2 0x3EE SWAP2 SWAP1 PUSH2 0x1039 JUMP JUMPDEST CALLVALUE DUP1 ISZERO PUSH2 0x47A JUMPI PUSH1 0x0 DUP1 REVERT JUMPDEST POP PUSH2 0x48E PUSH2 0x489 CALLDATASIZE PUSH1 0x4 PUSH2 0xE20 JUMP JUMPDEST PUSH2 0xC85 JUMP JUMPDEST PUSH1 0x40 MLOAD PUSH2 0x3EE SWAP2 SWAP1 PUSH2 0x102B JUMP JUMPDEST CALLVALUE DUP1 ISZERO PUSH2 0x4A7 JUMPI PUSH1 0x0 DUP1 REVERT JUMPDEST POP PUSH2 0x4B0 PUSH2 0xC9A JUMP JUMPDEST PUSH1 0x40 MLOAD PUSH2 0x3EE SWAP2 SWAP1 PUSH2 0x101A JUMP JUMPDEST CALLVALUE DUP1 ISZERO PUSH2 0x4C9 JUMPI PUSH1 0x0 DUP1 REVERT JUMPDEST POP PUSH2 0x3BF PUSH2 0x4D8 CALLDATASIZE PUSH1 0x4 PUSH2 0xE20 JUMP JUMPDEST PUSH2 0xD09 JUMP JUMPDEST PUSH1 0x0 SLOAD PUSH20 0xFFFFFFFFFFFFFFFFFFFFFFFFFFFFFFFFFFFFFFFF AND CALLER EQ PUSH2 0x537 JUMPI PUSH1 0x40 MLOAD PUSH32 0x8C379A000000000000000000000000000000000000000000000000000000000 DUP2 MSTORE PUSH1 0x4 ADD PUSH2 0x52E SWAP1 PUSH2 0x1087 JUMP JUMPDEST PUSH1 0x40 MLOAD DUP1 SWAP2 SUB SWAP1 REVERT JUMPDEST PUSH20 0xFFFFFFFFFFFFFFFFFFFFFFFFFFFFFFFFFFFFFFFF DUP2 AND PUSH1 0x0 SWAP1 DUP2 MSTORE PUSH1 0x1 PUSH1 0x20 MSTORE PUSH1 0x40 SWAP1 KECCAK256 SLOAD PUSH1 0xFF AND ISZERO PUSH2 0x597 JUMPI PUSH1 0x40 MLOAD PUSH32 0x8C379A000000000000000000000000000000000000000000000000000000000 DUP2 MSTORE PUSH1 0x4 ADD PUSH2 0x52E SWAP1 PUSH2 0x1067 JUMP JUMPDEST PUSH20 0xFFFFFFFFFFFFFFFFFFFFFFFFFFFFFFFFFFFFFFFF DUP2 AND PUSH1 0x0 DUP2 DUP2 MSTORE PUSH1 0x1 PUSH1 0x20 DUP2 SWAP1 MSTORE PUSH1 0x40 DUP1 DUP4 KECCAK256 DUP1 SLOAD PUSH32 0xFFFFFFFFFFFFFFFFFFFFFFFFFFFFFFFFFFFFFFFFFFFFFFFFFFFFFFFFFFFFFF00 AND DUP4 OR SWAP1 SSTORE PUSH1 0x2 DUP1 SLOAD SWAP3 DUP4 ADD DUP2 SSTORE DUP4 MSTORE PUSH32 0x405787FA12A823E0F2B7631CC41B3BA8828B3321CA811111FA75CD3AA3BB5ACE SWAP1 SWAP2 ADD DUP1 SLOAD PUSH32 0xFFFFFFFFFFFFFFFFFFFFFFFF0000000000000000000000000000000000000000 AND DUP5 OR SWAP1 SSTORE MLOAD CALLER SWAP3 SWAP2 PUSH32 0x3147867C59D17E8FA9D522465651D44AAE0A9E38F902F3475B97E58072F0ED4C SWAP2 LOG3 POP JUMP JUMPDEST PUSH1 0x2 DUP1 SLOAD DUP3 SWAP1 DUP2 LT PUSH2 0x676 JUMPI INVALID JUMPDEST PUSH1 0x0 SWAP2 DUP3 MSTORE PUSH1 0x20 SWAP1 SWAP2 KECCAK256 ADD SLOAD PUSH20 0xFFFFFFFFFFFFFFFFFFFFFFFFFFFFFFFFFFFFFFFF AND SWAP1 POP DUP2 JUMP JUMPDEST PUSH1 0x0 DUP1 SLOAD PUSH20 0xFFFFFFFFFFFFFFFFFFFFFFFFFFFFFFFFFFFFFFFF AND CALLER EQ PUSH2 0x6EF JUMPI PUSH1 0x40 MLOAD PUSH32 0x8C379A000000000000000000000000000000000000000000000000000000000 DUP2 MSTORE PUSH1 0x4 ADD PUSH2 0x52E SWAP1 PUSH2 0x1087 JUMP JUMPDEST PUSH20 0xFFFFFFFFFFFFFFFFFFFFFFFFFFFFFFFFFFFFFFFF DUP3 AND PUSH1 0x0 SWAP1 DUP2 MSTORE PUSH1 0x1 PUSH1 0x20 MSTORE PUSH1 0x40 SWAP1 KECCAK256 SLOAD PUSH1 0xFF AND ISZERO ISZERO PUSH2 0x750 JUMPI PUSH1 0x40 MLOAD PUSH32 0x8C379A000000000000000000000000000000000000000000000000000000000 DUP2 MSTORE PUSH1 0x4 ADD PUSH2 0x52E SWAP1 PUSH2 0x1047 JUMP JUMPDEST POP PUSH20 0xFFFFFFFFFFFFFFFFFFFFFFFFFFFFFFFFFFFFFFFF DUP2 AND PUSH1 0x0 SWAP1 DUP2 MSTORE PUSH1 0x1 PUSH1 0x20 MSTORE PUSH1 0x40 DUP2 KECCAK256 DUP1 SLOAD PUSH32 0xFFFFFFFFFFFFFFFFFFFFFFFFFFFFFFFFFFFFFFFFFFFFFFFFFFFFFFFFFFFFFF00 AND SWAP1 SSTORE JUMPDEST PUSH1 0x2 SLOAD DUP2 LT ISZERO PUSH2 0x8E5 JUMPI DUP2 PUSH20 0xFFFFFFFFFFFFFFFFFFFFFFFFFFFFFFFFFFFFFFFF AND PUSH1 0x2 DUP3 DUP2 SLOAD DUP2 LT ISZERO ISZERO PUSH2 0x7CD JUMPI INVALID JUMPDEST PUSH1 0x0 SWAP2 DUP3 MSTORE PUSH1 0x20 SWAP1 SWAP2 KECCAK256 ADD SLOAD PUSH20 0xFFFFFFFFFFFFFFFFFFFFFFFFFFFFFFFFFFFFFFFF AND EQ ISZERO PUSH2 0x8DD JUMPI PUSH1 0x2 DUP1 SLOAD PUSH32 0xFFFFFFFFFFFFFFFFFFFFFFFFFFFFFFFFFFFFFFFFFFFFFFFFFFFFFFFFFFFFFFFF DUP2 ADD SWAP1 DUP2 LT PUSH2 0x825 JUMPI INVALID JUMPDEST PUSH1 0x0 SWAP2 DUP3 MSTORE PUSH1 0x20 SWAP1 SWAP2 KECCAK256 ADD SLOAD PUSH1 0x2 DUP1 SLOAD PUSH20 0xFFFFFFFFFFFFFFFFFFFFFFFFFFFFFFFFFFFFFFFF SWAP1 SWAP3 AND SWAP2 DUP4 SWAP1 DUP2 LT PUSH2 0x858 JUMPI INVALID JUMPDEST PUSH1 0x0 SWAP2 DUP3 MSTORE PUSH1 0x20 SWAP1 SWAP2 KECCAK256 ADD DUP1 SLOAD PUSH32 0xFFFFFFFFFFFFFFFFFFFFFFFF0000000000000000000000000000000000000000 AND PUSH20 0xFFFFFFFFFFFFFFFFFFFFFFFFFFFFFFFFFFFFFFFF SWAP3 SWAP1 SWAP3 AND SWAP2 SWAP1 SWAP2 OR SWAP1 SSTORE PUSH1 0x2 DUP1 SLOAD PUSH32 0xFFFFFFFFFFFFFFFFFFFFFFFFFFFFFFFFFFFFFFFFFFFFFFFFFFFFFFFFFFFFFFFF ADD SWAP1 PUSH2 0x8D7 SWAP1 DUP3 PUSH2 0xDBA JUMP JUMPDEST POP PUSH2 0x8E5 JUMP JUMPDEST PUSH1 0x1 ADD PUSH2 0x79D JUMP JUMPDEST PUSH1 0x40 MLOAD CALLER SWAP1 PUSH20 0xFFFFFFFFFFFFFFFFFFFFFFFFFFFFFFFFFFFFFFFF DUP5 AND SWAP1 PUSH32 0x1F32C1B084E2DE0713B8FB16BD46BB9DF710A3DBEAE2F3CA93AF46E016DCC6B0 SWAP1 PUSH1 0x0 SWAP1 LOG3 POP POP JUMP JUMPDEST PUSH1 0x0 SLOAD PUSH20 0xFFFFFFFFFFFFFFFFFFFFFFFFFFFFFFFFFFFFFFFF AND DUP2 JUMP JUMPDEST PUSH1 0x0 SLOAD PUSH20 0xFFFFFFFFFFFFFFFFFFFFFFFFFFFFFFFFFFFFFFFF AND CALLER EQ PUSH2 0x999 JUMPI PUSH1 0x40 MLOAD PUSH32 0x8C379A000000000000000000000000000000000000000000000000000000000 DUP2 MSTORE PUSH1 0x4 ADD PUSH2 0x52E SWAP1 PUSH2 0x1087 JUMP JUMPDEST PUSH20 0xFFFFFFFFFFFFFFFFFFFFFFFFFFFFFFFFFFFFFFFF DUP3 AND PUSH1 0x0 SWAP1 DUP2 MSTORE PUSH1 0x1 PUSH1 0x20 MSTORE PUSH1 0x40 SWAP1 KECCAK256 SLOAD PUSH1 0xFF AND ISZERO ISZERO PUSH2 0x9FA JUMPI PUSH1 0x40 MLOAD PUSH32 0x8C379A000000000000000000000000000000000000000000000000000000000 DUP2 MSTORE PUSH1 0x4 ADD PUSH2 0x52E SWAP1 PUSH2 0x1047 JUMP JUMPDEST PUSH1 0x2 SLOAD DUP2 LT PUSH2 0xA35 JUMPI PUSH1 0x40 MLOAD PUSH32 0x8C379A000000000000000000000000000000000000000000000000000000000 DUP2 MSTORE PUSH1 0x4 ADD PUSH2 0x52E SWAP1 PUSH2 0x1077 JUMP JUMPDEST DUP2 PUSH20 0xFFFFFFFFFFFFFFFFFFFFFFFFFFFFFFFFFFFFFFFF AND PUSH1 0x2 DUP3 DUP2 SLOAD DUP2 LT ISZERO ISZERO PUSH2 0xA5B JUMPI INVALID JUMPDEST PUSH1 0x0 SWAP2 DUP3 MSTORE PUSH1 0x20 SWAP1 SWAP2 KECCAK256 ADD SLOAD PUSH20 0xFFFFFFFFFFFFFFFFFFFFFFFFFFFFFFFFFFFFFFFF AND EQ PUSH2 0xAB4 JUMPI PUSH1 0x40 MLOAD PUSH32 0x8C379A000000000000000000000000000000000000000000000000000000000 DUP2 MSTORE PUSH1 0x4 ADD PUSH2 0x52E SWAP1 PUSH2 0x1057 JUMP JUMPDEST PUSH20 0xFFFFFFFFFFFFFFFFFFFFFFFFFFFFFFFFFFFFFFFF DUP3 AND PUSH1 0x0 SWAP1 DUP2 MSTORE PUSH1 0x1 PUSH1 0x20 MSTORE PUSH1 0x40 SWAP1 KECCAK256 DUP1 SLOAD PUSH32 0xFFFFFFFFFFFFFFFFFFFFFFFFFFFFFFFFFFFFFFFFFFFFFFFFFFFFFFFFFFFFFF00 AND SWAP1 SSTORE PUSH1 0x2 DUP1 SLOAD PUSH32 0xFFFFFFFFFFFFFFFFFFFFFFFFFFFFFFFFFFFFFFFFFFFFFFFFFFFFFFFFFFFFFFFF DUP2 ADD SWAP1 DUP2 LT PUSH2 0xB2F JUMPI INVALID JUMPDEST PUSH1 0x0 SWAP2 DUP3 MSTORE PUSH1 0x20 SWAP1 SWAP2 KECCAK256 ADD SLOAD PUSH1 0x2 DUP1 SLOAD PUSH20 0xFFFFFFFFFFFFFFFFFFFFFFFFFFFFFFFFFFFFFFFF SWAP1 SWAP3 AND SWAP2 DUP4 SWAP1 DUP2 LT PUSH2 0xB62 JUMPI INVALID JUMPDEST PUSH1 0x0 SWAP2 DUP3 MSTORE PUSH1 0x20 SWAP1 SWAP2 KECCAK256 ADD DUP1 SLOAD PUSH32 0xFFFFFFFFFFFFFFFFFFFFFFFF0000000000000000000000000000000000000000 AND PUSH20 0xFFFFFFFFFFFFFFFFFFFFFFFFFFFFFFFFFFFFFFFF SWAP3 SWAP1 SWAP3 AND SWAP2 SWAP1 SWAP2 OR SWAP1 SSTORE PUSH1 0x2 DUP1 SLOAD PUSH32 0xFFFFFFFFFFFFFFFFFFFFFFFFFFFFFFFFFFFFFFFFFFFFFFFFFFFFFFFFFFFFFFFF ADD SWAP1 PUSH2 0xBE1 SWAP1 DUP3 PUSH2 0xDBA JUMP JUMPDEST POP PUSH1 0x40 MLOAD CALLER SWAP1 PUSH20 0xFFFFFFFFFFFFFFFFFFFFFFFFFFFFFFFFFFFFFFFF DUP5 AND SWAP1 PUSH32 0x1F32C1B084E2DE0713B8FB16BD46BB9DF710A3DBEAE2F3CA93AF46E016DCC6B0 SWAP1 PUSH1 0x0 SWAP1 LOG3 POP POP JUMP JUMPDEST PUSH1 0x40 DUP1 MLOAD PUSH32 0x455243373231546F6B656E28616464726573732C75696E743235362C62797465 DUP2 MSTORE PUSH32 0x7329000000000000000000000000000000000000000000000000000000000000 PUSH1 0x20 DUP3 ADD MSTORE SWAP1 MLOAD SWAP1 DUP2 SWAP1 SUB PUSH1 0x22 ADD SWAP1 KECCAK256 JUMPDEST SWAP1 JUMP JUMPDEST PUSH1 0x1 PUSH1 0x20 MSTORE PUSH1 0x0 SWAP1 DUP2 MSTORE PUSH1 0x40 SWAP1 KECCAK256 SLOAD PUSH1 0xFF AND DUP2 JUMP JUMPDEST PUSH1 0x60 PUSH1 0x2 DUP1 SLOAD DUP1 PUSH1 0x20 MUL PUSH1 0x20 ADD PUSH1 0x40 MLOAD SWAP1 DUP2 ADD PUSH1 0x40 MSTORE DUP1 SWAP3 SWAP2 SWAP1 DUP2 DUP2 MSTORE PUSH1 0x20 ADD DUP3 DUP1 SLOAD DUP1 ISZERO PUSH2 0xCFF JUMPI PUSH1 0x20 MUL DUP3 ADD SWAP2 SWAP1 PUSH1 0x0 MSTORE PUSH1 0x20 PUSH1 0x0 KECCAK256 SWAP1 JUMPDEST DUP2 SLOAD PUSH20 0xFFFFFFFFFFFFFFFFFFFFFFFFFFFFFFFFFFFFFFFF AND DUP2 MSTORE PUSH1 0x1 SWAP1 SWAP2 ADD SWAP1 PUSH1 0x20 ADD DUP1 DUP4 GT PUSH2 0xCD4 JUMPI JUMPDEST POP POP POP POP POP SWAP1 POP SWAP1 JUMP JUMPDEST PUSH1 0x0 SLOAD PUSH20 0xFFFFFFFFFFFFFFFFFFFFFFFFFFFFFFFFFFFFFFFF AND CALLER EQ PUSH2 0xD5A JUMPI PUSH1 0x40 MLOAD PUSH32 0x8C379A000000000000000000000000000000000000000000000000000000000 DUP2 MSTORE PUSH1 0x4 ADD PUSH2 0x52E SWAP1 PUSH2 0x1087 JUMP JUMPDEST PUSH20 0xFFFFFFFFFFFFFFFFFFFFFFFFFFFFFFFFFFFFFFFF DUP2 AND ISZERO PUSH2 0xDB7 JUMPI PUSH1 0x0 DUP1 SLOAD PUSH32 0xFFFFFFFFFFFFFFFFFFFFFFFF0000000000000000000000000000000000000000 AND PUSH20 0xFFFFFFFFFFFFFFFFFFFFFFFFFFFFFFFFFFFFFFFF DUP4 AND OR SWAP1 SSTORE JUMPDEST POP JUMP JUMPDEST DUP2 SLOAD DUP2 DUP4 SSTORE DUP2 DUP2 GT ISZERO PUSH2 0xDDE JUMPI PUSH1 0x0 DUP4 DUP2 MSTORE PUSH1 0x20 SWAP1 KECCAK256 PUSH2 0xDDE SWAP2 DUP2 ADD SWAP1 DUP4 ADD PUSH2 0xDE3 JUMP JUMPDEST POP POP POP JUMP JUMPDEST PUSH2 0xC82 SWAP2 SWAP1 JUMPDEST DUP1 DUP3 GT ISZERO PUSH2 0xDFD JUMPI PUSH1 0x0 DUP2 SSTORE PUSH1 0x1 ADD PUSH2 0xDE9 JUMP JUMPDEST POP SWAP1 JUMP JUMPDEST PUSH1 0x0 PUSH2 0xE0D DUP3 CALLDATALOAD PUSH2 0x10A1 JUMP JUMPDEST SWAP4 SWAP3 POP POP POP JUMP JUMPDEST PUSH1 0x0 PUSH2 0xE0D DUP3 CALLDATALOAD PUSH2 0xC82 JUMP JUMPDEST PUSH1 0x0 PUSH1 0x20 DUP3 DUP5 SUB SLT ISZERO PUSH2 0xE32 JUMPI PUSH1 0x0 DUP1 REVERT JUMPDEST PUSH1 0x0 PUSH2 0xE3E DUP5 DUP5 PUSH2 0xE01 JUMP JUMPDEST SWAP5 SWAP4 POP POP POP POP JUMP JUMPDEST PUSH1 0x0 DUP1 PUSH1 0x40 DUP4 DUP6 SUB SLT ISZERO PUSH2 0xE59 JUMPI PUSH1 0x0 DUP1 REVERT JUMPDEST PUSH1 0x0 PUSH2 0xE65 DUP6 DUP6 PUSH2 0xE01 JUMP JUMPDEST SWAP3 POP POP PUSH1 0x20 PUSH2 0xE76 DUP6 DUP3 DUP7 ADD PUSH2 0xE14 JUMP JUMPDEST SWAP2 POP POP SWAP3 POP SWAP3 SWAP1 POP JUMP JUMPDEST PUSH1 0x0 PUSH1 0x20 DUP3 DUP5 SUB SLT ISZERO PUSH2 0xE92 JUMPI PUSH1 0x0 DUP1 REVERT JUMPDEST PUSH1 0x0 PUSH2 0xE3E DUP5 DUP5 PUSH2 0xE14 JUMP JUMPDEST PUSH2 0xEA7 DUP2 PUSH2 0x10A1 JUMP JUMPDEST DUP3 MSTORE POP POP JUMP JUMPDEST PUSH1 0x0 PUSH2 0xEB8 DUP3 PUSH2 0x109D JUMP JUMPDEST DUP1 DUP5 MSTORE PUSH1 0x20 DUP5 ADD SWAP4 POP PUSH2 0xECA DUP4 PUSH2 0x1097 JUMP JUMPDEST PUSH1 0x0 JUMPDEST DUP3 DUP2 LT ISZERO PUSH2 0xEFA JUMPI PUSH2 0xEE0 DUP7 DUP4 MLOAD PUSH2 0xE9E JUMP JUMPDEST PUSH2 0xEE9 DUP3 PUSH2 0x1097 JUMP JUMPDEST PUSH1 0x20 SWAP7 SWAP1 SWAP7 ADD SWAP6 SWAP2 POP PUSH1 0x1 ADD PUSH2 0xECD JUMP JUMPDEST POP SWAP4 SWAP5 SWAP4 POP POP POP POP JUMP JUMPDEST PUSH2 0xEA7 DUP2 PUSH2 0x10BA JUMP JUMPDEST PUSH2 0xEA7 DUP2 PUSH2 0x10BF JUMP JUMPDEST PUSH1 0x15 DUP2 MSTORE PUSH32 0x5441524745545F4E4F545F415554484F52495A45440000000000000000000000 PUSH1 0x20 DUP3 ADD MSTORE PUSH1 0x40 ADD SWAP1 JUMP JUMPDEST PUSH1 0x1B DUP2 MSTORE PUSH32 0x415554484F52495A45445F414444524553535F4D49534D415443480000000000 PUSH1 0x20 DUP3 ADD MSTORE PUSH1 0x40 ADD SWAP1 JUMP JUMPDEST PUSH1 0x19 DUP2 MSTORE PUSH32 0x5441524745545F414C52454144595F415554484F52495A454400000000000000 PUSH1 0x20 DUP3 ADD MSTORE PUSH1 0x40 ADD SWAP1 JUMP JUMPDEST PUSH1 0x13 DUP2 MSTORE PUSH32 0x494E4445585F4F55545F4F465F424F554E445300000000000000000000000000 PUSH1 0x20 DUP3 ADD MSTORE PUSH1 0x40 ADD SWAP1 JUMP JUMPDEST PUSH1 0x13 DUP2 MSTORE PUSH32 0x4F4E4C595F434F4E54524143545F4F574E455200000000000000000000000000 PUSH1 0x20 DUP3 ADD MSTORE PUSH1 0x40 ADD SWAP1 JUMP JUMPDEST PUSH1 0x20 DUP2 ADD PUSH2 0x1014 DUP3 DUP5 PUSH2 0xE9E JUMP JUMPDEST SWAP3 SWAP2 POP POP JUMP JUMPDEST PUSH1 0x20 DUP1 DUP3 MSTORE DUP2 ADD PUSH2 0xE0D DUP2 DUP5 PUSH2 0xEAD JUMP JUMPDEST PUSH1 0x20 DUP2 ADD PUSH2 0x1014 DUP3 DUP5 PUSH2 0xF04 JUMP JUMPDEST PUSH1 0x20 DUP2 ADD PUSH2 0x1014 DUP3 DUP5 PUSH2 0xF0D JUMP JUMPDEST PUSH1 0x20 DUP1 DUP3 MSTORE DUP2 ADD PUSH2 0x1014 DUP2 PUSH2 0xF16 JUMP JUMPDEST PUSH1 0x20 DUP1 DUP3 MSTORE DUP2 ADD PUSH2 0x1014 DUP2 PUSH2 0xF46 JUMP JUMPDEST PUSH1 0x20 DUP1 DUP3 MSTORE DUP2 ADD PUSH2 0x1014 DUP2 PUSH2 0xF76 JUMP JUMPDEST PUSH1 0x20 DUP1 DUP3 MSTORE DUP2 ADD PUSH2 0x1014 DUP2 PUSH2 0xFA6 JUMP JUMPDEST PUSH1 0x20 DUP1 DUP3 MSTORE DUP2 ADD PUSH2 0x1014 DUP2 PUSH2 0xFD6 JUMP JUMPDEST PUSH1 0x20 ADD SWAP1 JUMP JUMPDEST MLOAD SWAP1 JUMP JUMPDEST PUSH20 0xFFFFFFFFFFFFFFFFFFFFFFFFFFFFFFFFFFFFFFFF AND SWAP1 JUMP JUMPDEST ISZERO ISZERO SWAP1 JUMP JUMPDEST PUSH32 0xFFFFFFFF00000000000000000000000000000000000000000000000000000000 AND SWAP1 JUMP STOP LOG2 PUSH6 0x627A7A723058 KECCAK256 DUP7 0xb0 0xba 0xc 0xb3 0xf7 0xdb 0x4b SWAP5 NOT 0xb3 0xc7 SWAP4 0x26 CODECOPY 0x22 0xe1 DELEGATECALL 0xe5 CALLCODE 0xb5 0xd0 INVALID 0x1e 0xc MULMOD DUP10 0xef 0x23 JUMP 0xb1 0xc5 PUSH13 0x6578706572696D656E74616CF5 STOP CALLDATACOPY "
			}
		}
	},
	"sourceTreeHashHex": "0xe83596e2b65d27690437ee627ef672d1b899ab98ebb66b4a0238ff1e8f442ba4",
	"compiler": {
		"name": "solc",
		"version": "soljson-v0.4.24+commit.e67f0147.js",
		"settings": {
			"optimizer": {
				"enabled": true,
				"runs": 1000000
			},
			"outputSelection": {
				"*": {
					"*": [
						"abi",
						"evm.bytecode.object",
						"evm.bytecode.sourceMap",
						"evm.deployedBytecode.object",
						"evm.deployedBytecode.sourceMap"
					]
				}
			}
		}
	}
}