{
	"schemaVersion": "2.0.0",
	"contractName": "ERC721Token",
	"compilerOutput": {
		"abi": [
			{
				"constant": true,
				"inputs": [
					{
						"name": "_tokenId",
						"type": "uint256"
					}
				],
				"name": "getApproved",
				"outputs": [
					{
						"name": "",
						"type": "address"
					}
				],
				"payable": false,
				"stateMutability": "view",
				"type": "function"
			},
			{
				"constant": false,
				"inputs": [
					{
						"name": "_approved",
						"type": "address"
					},
					{
						"name": "_tokenId",
						"type": "uint256"
					}
				],
				"name": "approve",
				"outputs": [],
				"payable": false,
				"stateMutability": "nonpayable",
				"type": "function"
			},
			{
				"constant": false,
				"inputs": [
					{
						"name": "_from",
						"type": "address"
					},
					{
						"name": "_to",
						"type": "address"
					},
					{
						"name": "_tokenId",
						"type": "uint256"
					}
				],
				"name": "transferFrom",
				"outputs": [],
				"payable": false,
				"stateMutability": "nonpayable",
				"type": "function"
			},
			{
				"constant": false,
				"inputs": [
					{
						"name": "_from",
						"type": "address"
					},
					{
						"name": "_to",
						"type": "address"
					},
					{
						"name": "_tokenId",
						"type": "uint256"
					}
				],
				"name": "safeTransferFrom",
				"outputs": [],
				"payable": false,
				"stateMutability": "nonpayable",
				"type": "function"
			},
			{
				"constant": true,
				"inputs": [
					{
						"name": "_tokenId",
						"type": "uint256"
					}
				],
				"name": "ownerOf",
				"outputs": [
					{
						"name": "",
						"type": "address"
					}
				],
				"payable": false,
				"stateMutability": "view",
				"type": "function"
			},
			{
				"constant": true,
				"inputs": [
					{
						"name": "_owner",
						"type": "address"
					}
				],
				"name": "balanceOf",
				"outputs": [
					{
						"name": "",
						"type": "uint256"
					}
				],
				"payable": false,
				"stateMutability": "view",
				"type": "function"
			},
			{
				"constant": false,
				"inputs": [
					{
						"name": "_operator",
						"type": "address"
					},
					{
						"name": "_approved",
						"type": "bool"
					}
				],
				"name": "setApprovalForAll",
				"outputs": [],
				"payable": false,
				"stateMutability": "nonpayable",
				"type": "function"
			},
			{
				"constant": false,
				"inputs": [
					{
						"name": "_from",
						"type": "address"
					},
					{
						"name": "_to",
						"type": "address"
					},
					{
						"name": "_tokenId",
						"type": "uint256"
					},
					{
						"name": "_data",
						"type": "bytes"
					}
				],
				"name": "safeTransferFrom",
				"outputs": [],
				"payable": false,
				"stateMutability": "nonpayable",
				"type": "function"
			},
			{
				"constant": true,
				"inputs": [
					{
						"name": "_owner",
						"type": "address"
					},
					{
						"name": "_operator",
						"type": "address"
					}
				],
				"name": "isApprovedForAll",
				"outputs": [
					{
						"name": "",
						"type": "bool"
					}
				],
				"payable": false,
				"stateMutability": "view",
				"type": "function"
			},
			{
				"anonymous": false,
				"inputs": [
					{
						"indexed": true,
						"name": "_from",
						"type": "address"
					},
					{
						"indexed": true,
						"name": "_to",
						"type": "address"
					},
					{
						"indexed": true,
						"name": "_tokenId",
						"type": "uint256"
					}
				],
				"name": "Transfer",
				"type": "event"
			},
			{
				"anonymous": false,
				"inputs": [
					{
						"indexed": true,
						"name": "_owner",
						"type": "address"
					},
					{
						"indexed": true,
						"name": "_approved",
						"type": "address"
					},
					{
						"indexed": true,
						"name": "_tokenId",
						"type": "uint256"
					}
				],
				"name": "Approval",
				"type": "event"
			},
			{
				"anonymous": false,
				"inputs": [
					{
						"indexed": true,
						"name": "_owner",
						"type": "address"
					},
					{
						"indexed": true,
						"name": "_operator",
						"type": "address"
					},
					{
						"indexed": false,
						"name": "_approved",
						"type": "bool"
					}
				],
				"name": "ApprovalForAll",
				"type": "event"
			}
		],
		"evm": {
			"bytecode": {
				"linkReferences": {},
				"object": "0x608060405234801561001057600080fd5b50610e2d806100206000396000f3006080604052600436106100985763ffffffff7c0100000000000000000000000000000000000000000000000000000000600035041663081812fc811461009d578063095ea7b3146100de57806323b872dd1461011157806342842e0e146101485780636352211e1461017f57806370a0823114610197578063a22cb465146101d7578063b88d4fde1461020a578063e985e9c514610250575b600080fd5b3480156100a957600080fd5b506100b5600435610298565b6040805173ffffffffffffffffffffffffffffffffffffffff9092168252519081900360200190f35b3480156100ea57600080fd5b5061010f73ffffffffffffffffffffffffffffffffffffffff600435166024356102c0565b005b34801561011d57600080fd5b5061010f73ffffffffffffffffffffffffffffffffffffffff600435811690602435166044356103e4565b34801561015457600080fd5b5061010f73ffffffffffffffffffffffffffffffffffffffff60043581169060243516604435610744565b34801561018b57600080fd5b506100b560043561090f565b3480156101a357600080fd5b506101c573ffffffffffffffffffffffffffffffffffffffff600435166109a8565b60408051918252519081900360200190f35b3480156101e357600080fd5b5061010f73ffffffffffffffffffffffffffffffffffffffff600435166024351515610a57565b34801561021657600080fd5b5061010f73ffffffffffffffffffffffffffffffffffffffff60048035821691602480359091169160443591606435908101910135610af0565b34801561025c57600080fd5b5061028473ffffffffffffffffffffffffffffffffffffffff60043581169060243516610cd4565b604080519115158252519081900360200190f35b60009081526001602052604090205473ffffffffffffffffffffffffffffffffffffffff1690565b60006102cb8261090f565b90503373ffffffffffffffffffffffffffffffffffffffff821614806102f657506102f68133610cd4565b151561036357604080517f08c379a000000000000000000000000000000000000000000000000000000000815260206004820152601560248201527f4552433732315f494e56414c49445f53454e4445520000000000000000000000604482015290519081900360640190fd5b60008281526001602052604080822080547fffffffffffffffffffffffff00000000000000000000000000000000000000001673ffffffffffffffffffffffffffffffffffffffff87811691821790925591518593918516917f8c5be1e5ebec7d5bd14f71427d1e84f3dd0314c0f7b2291e5b200ac8c7c3b92591a4505050565b6000808073ffffffffffffffffffffffffffffffffffffffff8516151561046c57604080517f08c379a000000000000000000000000000000000000000000000000000000000815260206004820152601660248201527f4552433732315f5a45524f5f544f5f4144445245535300000000000000000000604482015290519081900360640190fd5b6104758461090f565b925073ffffffffffffffffffffffffffffffffffffffff868116908416146104fe57604080517f08c379a000000000000000000000000000000000000000000000000000000000815260206004820152601560248201527f4552433732315f4f574e45525f4d49534d415443480000000000000000000000604482015290519081900360640190fd5b33915061050a84610298565b90508273ffffffffffffffffffffffffffffffffffffffff168273ffffffffffffffffffffffffffffffffffffffff16148061054b575061054b8383610cd4565b8061058157508173ffffffffffffffffffffffffffffffffffffffff168173ffffffffffffffffffffffffffffffffffffffff16145b15156105ee57604080517f08c379a000000000000000000000000000000000000000000000000000000000815260206004820152601660248201527f4552433732315f494e56414c49445f5350454e44455200000000000000000000604482015290519081900360640190fd5b73ffffffffffffffffffffffffffffffffffffffff81161561063f57600084815260016020526040902080547fffffffffffffffffffffffff00000000000000000000000000000000000000001690555b60008481526020818152604080832080547fffffffffffffffffffffffff00000000000000000000000000000000000000001673ffffffffffffffffffffffffffffffffffffffff8a8116919091179091558916835260029091529020546106a8906001610d0f565b73ffffffffffffffffffffffffffffffffffffffff80881660009081526002602052604080822093909355908716815220546106e5906001610d86565b73ffffffffffffffffffffffffffffffffffffffff808716600081815260026020526040808220949094559251879391928a16917fddf252ad1be2c89b69c2b068fc378daa952ba7f163c4a11628f55a4df523b3ef91a4505050505050565b6000806107528585856103e4565b833b9150600082111561090857604080517f150b7a0200000000000000000000000000000000000000000000000000000000815233600482015273ffffffffffffffffffffffffffffffffffffffff8781166024830152604482018690526080606483015260006084830181905292519087169263150b7a029260c480820193602093909283900390910190829087803b1580156107ef57600080fd5b505af1158015610803573d6000803e3d6000fd5b505050506040513d602081101561081957600080fd5b5051604080517f6f6e455243373231526563656976656428616464726573732c6164647265737381527f2c75696e743235362c62797465732900000000000000000000000000000000006020820152905190819003602f0190209091507fffffffff0000000000000000000000000000000000000000000000000000000080831691161461090857604080517f08c379a000000000000000000000000000000000000000000000000000000000815260206004820152601760248201527f4552433732315f494e56414c49445f53454c4543544f52000000000000000000604482015290519081900360640190fd5b5050505050565b60008181526020819052604081205473ffffffffffffffffffffffffffffffffffffffff168015156109a257604080517f08c379a000000000000000000000000000000000000000000000000000000000815260206004820152601160248201527f4552433732315f5a45524f5f4f574e4552000000000000000000000000000000604482015290519081900360640190fd5b92915050565b600073ffffffffffffffffffffffffffffffffffffffff82161515610a2e57604080517f08c379a000000000000000000000000000000000000000000000000000000000815260206004820152601160248201527f4552433732315f5a45524f5f4f574e4552000000000000000000000000000000604482015290519081900360640190fd5b5073ffffffffffffffffffffffffffffffffffffffff1660009081526002602052604090205490565b33600081815260036020908152604080832073ffffffffffffffffffffffffffffffffffffffff87168085529083529281902080547fffffffffffffffffffffffffffffffffffffffffffffffffffffffffffffff0016861515908117909155815190815290519293927f17307eab39ab6107e8899845ad3d59bd9653f200f220920489ca2b5937696c31929181900390910190a35050565b600080610afe8787876103e4565b853b91506000821115610ccb576040517f150b7a02000000000000000000000000000000000000000000000000000000008152336004820181815273ffffffffffffffffffffffffffffffffffffffff8a811660248501526044840189905260806064850190815260848501889052908a169363150b7a0293928c928b928b928b92909160a40184848082843782019150509650505050505050602060405180830381600087803b158015610bb257600080fd5b505af1158015610bc6573d6000803e3d6000fd5b505050506040513d6020811015610bdc57600080fd5b5051604080517f6f6e455243373231526563656976656428616464726573732c6164647265737381527f2c75696e743235362c62797465732900000000000000000000000000000000006020820152905190819003602f0190209091507fffffffff00000000000000000000000000000000000000000000000000000000808316911614610ccb57604080517f08c379a000000000000000000000000000000000000000000000000000000000815260206004820152601760248201527f4552433732315f494e56414c49445f53454c4543544f52000000000000000000604482015290519081900360640190fd5b50505050505050565b73ffffffffffffffffffffffffffffffffffffffff918216600090815260036020908152604080832093909416825291909152205460ff1690565b600082821115610d8057604080517f08c379a000000000000000000000000000000000000000000000000000000000815260206004820152601160248201527f55494e543235365f554e444552464c4f57000000000000000000000000000000604482015290519081900360640190fd5b50900390565b600082820183811015610dfa57604080517f08c379a000000000000000000000000000000000000000000000000000000000815260206004820152601060248201527f55494e543235365f4f564552464c4f5700000000000000000000000000000000604482015290519081900360640190fd5b93925050505600a165627a7a723058207318c14c91209a554964c5f972b95a90fe384dd7dd96ccfd0609544e6439c3c90029",
				"opcodes": "PUSH1 0x80 PUSH1 0x40 MSTORE CALLVALUE DUP1 ISZERO PUSH2 0x10 JUMPI PUSH1 0x0 DUP1 REVERT JUMPDEST POP PUSH2 0xE2D DUP1 PUSH2 0x20 PUSH1 0x0 CODECOPY PUSH1 0x0 RETURN STOP PUSH1 0x80 PUSH1 0x40 MSTORE PUSH1 0x4 CALLDATASIZE LT PUSH2 0x98 JUMPI PUSH4 0xFFFFFFFF PUSH29 0x100000000000000000000000000000000000000000000000000000000 PUSH1 0x0 CALLDATALOAD DIV AND PUSH4 0x81812FC DUP2 EQ PUSH2 0x9D JUMPI DUP1 PUSH4 0x95EA7B3 EQ PUSH2 0xDE JUMPI DUP1 PUSH4 0x23B872DD EQ PUSH2 0x111 JUMPI DUP1 PUSH4 0x42842E0E EQ PUSH2 0x148 JUMPI DUP1 PUSH4 0x6352211E EQ PUSH2 0x17F JUMPI DUP1 PUSH4 0x70A08231 EQ PUSH2 0x197 JUMPI DUP1 PUSH4 0xA22CB465 EQ PUSH2 0x1D7 JUMPI DUP1 PUSH4 0xB88D4FDE EQ PUSH2 0x20A JUMPI DUP1 PUSH4 0xE985E9C5 EQ PUSH2 0x250 JUMPI JUMPDEST PUSH1 0x0 DUP1 REVERT JUMPDEST CALLVALUE DUP1 ISZERO PUSH2 0xA9 JUMPI PUSH1 0x0 DUP1 REVERT JUMPDEST POP PUSH2 0xB5 PUSH1 0x4 CALLDATALOAD PUSH2 0x298 JUMP JUMPDEST PUSH1 0x40 DUP1 MLOAD PUSH20 0xFFFFFFFFFFFFFFFFFFFFFFFFFFFFFFFFFFFFFFFF SWAP1 SWAP3 AND DUP3 MSTORE MLOAD SWAP1 DUP2 SWAP1 SUB PUSH1 0x20 ADD SWAP1 RETURN JUMPDEST CALLVALUE DUP1 ISZERO PUSH2 0xEA JUMPI PUSH1 0x0 DUP1 REVERT JUMPDEST POP PUSH2 0x10F PUSH20 0xFFFFFFFFFFFFFFFFFFFFFFFFFFFFFFFFFFFFFFFF PUSH1 0x4 CALLDATALOAD AND PUSH1 0x24 CALLDATALOAD PUSH2 0x2C0 JUMP JUMPDEST STOP JUMPDEST CALLVALUE DUP1 ISZERO PUSH2 0x11D JUMPI PUSH1 0x0 DUP1 REVERT JUMPDEST POP PUSH2 0x10F PUSH20 0xFFFFFFFFFFFFFFFFFFFFFFFFFFFFFFFFFFFFFFFF PUSH1 0x4 CALLDATALOAD DUP2 AND SWAP1 PUSH1 0x24 CALLDATALOAD AND PUSH1 0x44 CALLDATALOAD PUSH2 0x3E4 JUMP JUMPDEST CALLVALUE DUP1 ISZERO PUSH2 0x154 JUMPI PUSH1 0x0 DUP1 REVERT JUMPDEST POP PUSH2 0x10F PUSH20 0xFFFFFFFFFFFFFFFFFFFFFFFFFFFFFFFFFFFFFFFF PUSH1 0x4 CALLDATALOAD DUP2 AND SWAP1 PUSH1 0x24 CALLDATALOAD AND PUSH1 0x44 CALLDATALOAD PUSH2 0x744 JUMP JUMPDEST CALLVALUE DUP1 ISZERO PUSH2 0x18B JUMPI PUSH1 0x0 DUP1 REVERT JUMPDEST POP PUSH2 0xB5 PUSH1 0x4 CALLDATALOAD PUSH2 0x90F JUMP JUMPDEST CALLVALUE DUP1 ISZERO PUSH2 0x1A3 JUMPI PUSH1 0x0 DUP1 REVERT JUMPDEST POP PUSH2 0x1C5 PUSH20 0xFFFFFFFFFFFFFFFFFFFFFFFFFFFFFFFFFFFFFFFF PUSH1 0x4 CALLDATALOAD AND PUSH2 0x9A8 JUMP JUMPDEST PUSH1 0x40 DUP1 MLOAD SWAP2 DUP3 MSTORE MLOAD SWAP1 DUP2 SWAP1 SUB PUSH1 0x20 ADD SWAP1 RETURN JUMPDEST CALLVALUE DUP1 ISZERO PUSH2 0x1E3 JUMPI PUSH1 0x0 DUP1 REVERT JUMPDEST POP PUSH2 0x10F PUSH20 0xFFFFFFFFFFFFFFFFFFFFFFFFFFFFFFFFFFFFFFFF PUSH1 0x4 CALLDATALOAD AND PUSH1 0x24 CALLDATALOAD ISZERO ISZERO PUSH2 0xA57 JUMP JUMPDEST CALLVALUE DUP1 ISZERO PUSH2 0x216 JUMPI PUSH1 0x0 DUP1 REVERT JUMPDEST POP PUSH2 0x10F PUSH20 0xFFFFFFFFFFFFFFFFFFFFFFFFFFFFFFFFFFFFFFFF PUSH1 0x4 DUP1 CALLDATALOAD DUP3 AND SWAP2 PUSH1 0x24 DUP1 CALLDATALOAD SWAP1 SWAP2 AND SWAP2 PUSH1 0x44 CALLDATALOAD SWAP2 PUSH1 0x64 CALLDATALOAD SWAP1 DUP2 ADD SWAP2 ADD CALLDATALOAD PUSH2 0xAF0 JUMP JUMPDEST CALLVALUE DUP1 ISZERO PUSH2 0x25C JUMPI PUSH1 0x0 DUP1 REVERT JUMPDEST POP PUSH2 0x284 PUSH20 0xFFFFFFFFFFFFFFFFFFFFFFFFFFFFFFFFFFFFFFFF PUSH1 0x4 CALLDATALOAD DUP2 AND SWAP1 PUSH1 0x24 CALLDATALOAD AND PUSH2 0xCD4 JUMP JUMPDEST PUSH1 0x40 DUP1 MLOAD SWAP2 ISZERO ISZERO DUP3 MSTORE MLOAD SWAP1 DUP2 SWAP1 SUB PUSH1 0x20 ADD SWAP1 RETURN JUMPDEST PUSH1 0x0 SWAP1 DUP2 MSTORE PUSH1 0x1 PUSH1 0x20 MSTORE PUSH1 0x40 SWAP1 KECCAK256 SLOAD PUSH20 0xFFFFFFFFFFFFFFFFFFFFFFFFFFFFFFFFFFFFFFFF AND SWAP1 JUMP JUMPDEST PUSH1 0x0 PUSH2 0x2CB DUP3 PUSH2 0x90F JUMP JUMPDEST SWAP1 POP CALLER PUSH20 0xFFFFFFFFFFFFFFFFFFFFFFFFFFFFFFFFFFFFFFFF DUP3 AND EQ DUP1 PUSH2 0x2F6 JUMPI POP PUSH2 0x2F6 DUP2 CALLER PUSH2 0xCD4 JUMP JUMPDEST ISZERO ISZERO PUSH2 0x363 JUMPI PUSH1 0x40 DUP1 MLOAD PUSH32 0x8C379A000000000000000000000000000000000000000000000000000000000 DUP2 MSTORE PUSH1 0x20 PUSH1 0x4 DUP3 ADD MSTORE PUSH1 0x15 PUSH1 0x24 DUP3 ADD MSTORE PUSH32 0x4552433732315F494E56414C49445F53454E4445520000000000000000000000 PUSH1 0x44 DUP3 ADD MSTORE SWAP1 MLOAD SWAP1 DUP2 SWAP1 SUB PUSH1 0x64 ADD SWAP1 REVERT JUMPDEST PUSH1 0x0 DUP3 DUP2 MSTORE PUSH1 0x1 PUSH1 0x20 MSTORE PUSH1 0x40 DUP1 DUP3 KECCAK256 DUP1 SLOAD PUSH32 0xFFFFFFFFFFFFFFFFFFFFFFFF0000000000000000000000000000000000000000 AND PUSH20 0xFFFFFFFFFFFFFFFFFFFFFFFFFFFFFFFFFFFFFFFF DUP8 DUP2 AND SWAP2 DUP3 OR SWAP1 SWAP3 SSTORE SWAP2 MLOAD DUP6 SWAP4 SWAP2 DUP6 AND SWAP2 PUSH32 0x8C5BE1E5EBEC7D5BD14F71427D1E84F3DD0314C0F7B2291E5B200AC8C7C3B925 SWAP2 LOG4 POP POP POP JUMP JUMPDEST PUSH1 0x0 DUP1 DUP1 PUSH20 0xFFFFFFFFFFFFFFFFFFFFFFFFFFFFFFFFFFFFFFFF DUP6 AND ISZERO ISZERO PUSH2 0x46C JUMPI PUSH1 0x40 DUP1 MLOAD PUSH32 0x8C379A000000000000000000000000000000000000000000000000000000000 DUP2 MSTORE PUSH1 0x20 PUSH1 0x4 DUP3 ADD MSTORE PUSH1 0x16 PUSH1 0x24 DUP3 ADD MSTORE PUSH32 0x4552433732315F5A45524F5F544F5F4144445245535300000000000000000000 PUSH1 0x44 DUP3 ADD MSTORE SWAP1 MLOAD SWAP1 DUP2 SWAP1 SUB PUSH1 0x64 ADD SWAP1 REVERT JUMPDEST PUSH2 0x475 DUP5 PUSH2 0x90F JUMP JUMPDEST SWAP3 POP PUSH20 0xFFFFFFFFFFFFFFFFFFFFFFFFFFFFFFFFFFFFFFFF DUP7 DUP2 AND SWAP1 DUP5 AND EQ PUSH2 0x4FE JUMPI PUSH1 0x40 DUP1 MLOAD PUSH32 0x8C379A000000000000000000000000000000000000000000000000000000000 DUP2 MSTORE PUSH1 0x20 PUSH1 0x4 DUP3 ADD MSTORE PUSH1 0x15 PUSH1 0x24 DUP3 ADD MSTORE PUSH32 0x4552433732315F4F574E45525F4D49534D415443480000000000000000000000 PUSH1 0x44 DUP3 ADD MSTORE SWAP1 MLOAD SWAP1 DUP2 SWAP1 SUB PUSH1 0x64 ADD SWAP1 REVERT JUMPDEST CALLER SWAP2 POP PUSH2 0x50A DUP5 PUSH2 0x298 JUMP JUMPDEST SWAP1 POP DUP3 PUSH20 0xFFFFFFFFFFFFFFFFFFFFFFFFFFFFFFFFFFFFFFFF AND DUP3 PUSH20 0xFFFFFFFFFFFFFFFFFFFFFFFFFFFFFFFFFFFFFFFF AND EQ DUP1 PUSH2 0x54B JUMPI POP PUSH2 0x54B DUP4 DUP4 PUSH2 0xCD4 JUMP JUMPDEST DUP1 PUSH2 0x581 JUMPI POP DUP2 PUSH20 0xFFFFFFFFFFFFFFFFFFFFFFFFFFFFFFFFFFFFFFFF AND DUP2 PUSH20 0xFFFFFFFFFFFFFFFFFFFFFFFFFFFFFFFFFFFFFFFF AND EQ JUMPDEST ISZERO ISZERO PUSH2 0x5EE JUMPI PUSH1 0x40 DUP1 MLOAD PUSH32 0x8C379A000000000000000000000000000000000000000000000000000000000 DUP2 MSTORE PUSH1 0x20 PUSH1 0x4 DUP3 ADD MSTORE PUSH1 0x16 PUSH1 0x24 DUP3 ADD MSTORE PUSH32 0x4552433732315F494E56414C49445F5350454E44455200000000000000000000 PUSH1 0x44 DUP3 ADD MSTORE SWAP1 MLOAD SWAP1 DUP2 SWAP1 SUB PUSH1 0x64 ADD SWAP1 REVERT JUMPDEST PUSH20 0xFFFFFFFFFFFFFFFFFFFFFFFFFFFFFFFFFFFFFFFF DUP2 AND ISZERO PUSH2 0x63F JUMPI PUSH1 0x0 DUP5 DUP2 MSTORE PUSH1 0x1 PUSH1 0x20 MSTORE PUSH1 0x40 SWAP1 KECCAK256 DUP1 SLOAD PUSH32 0xFFFFFFFFFFFFFFFFFFFFFFFF0000000000000000000000000000000000000000 AND SWAP1 SSTORE JUMPDEST PUSH1 0x0 DUP5 DUP2 MSTORE PUSH1 0x20 DUP2 DUP2 MSTORE PUSH1 0x40 DUP1 DUP4 KECCAK256 DUP1 SLOAD PUSH32 0xFFFFFFFFFFFFFFFFFFFFFFFF0000000000000000000000000000000000000000 AND PUSH20 0xFFFFFFFFFFFFFFFFFFFFFFFFFFFFFFFFFFFFFFFF DUP11 DUP2 AND SWAP2 SWAP1 SWAP2 OR SWAP1 SWAP2 SSTORE DUP10 AND DUP4 MSTORE PUSH1 0x2 SWAP1 SWAP2 MSTORE SWAP1 KECCAK256 SLOAD PUSH2 0x6A8 SWAP1 PUSH1 0x1 PUSH2 0xD0F JUMP JUMPDEST PUSH20 0xFFFFFFFFFFFFFFFFFFFFFFFFFFFFFFFFFFFFFFFF DUP1 DUP9 AND PUSH1 0x0 SWAP1 DUP2 MSTORE PUSH1 0x2 PUSH1 0x20 MSTORE PUSH1 0x40 DUP1 DUP3 KECCAK256 SWAP4 SWAP1 SWAP4 SSTORE SWAP1 DUP8 AND DUP2 MSTORE KECCAK256 SLOAD PUSH2 0x6E5 SWAP1 PUSH1 0x1 PUSH2 0xD86 JUMP JUMPDEST PUSH20 0xFFFFFFFFFFFFFFFFFFFFFFFFFFFFFFFFFFFFFFFF DUP1 DUP8 AND PUSH1 0x0 DUP2 DUP2 MSTORE PUSH1 0x2 PUSH1 0x20 MSTORE PUSH1 0x40 DUP1 DUP3 KECCAK256 SWAP5 SWAP1 SWAP5 SSTORE SWAP3 MLOAD DUP8 SWAP4 SWAP2 SWAP3 DUP11 AND SWAP2 PUSH32 0xDDF252AD1BE2C89B69C2B068FC378DAA952BA7F163C4A11628F55A4DF523B3EF SWAP2 LOG4 POP POP POP POP POP POP JUMP JUMPDEST PUSH1 0x0 DUP1 PUSH2 0x752 DUP6 DUP6 DUP6 PUSH2 0x3E4 JUMP JUMPDEST DUP4 EXTCODESIZE SWAP2 POP PUSH1 0x0 DUP3 GT ISZERO PUSH2 0x908 JUMPI PUSH1 0x40 DUP1 MLOAD PUSH32 0x150B7A0200000000000000000000000000000000000000000000000000000000 DUP2 MSTORE CALLER PUSH1 0x4 DUP3 ADD MSTORE PUSH20 0xFFFFFFFFFFFFFFFFFFFFFFFFFFFFFFFFFFFFFFFF DUP8 DUP2 AND PUSH1 0x24 DUP4 ADD MSTORE PUSH1 0x44 DUP3 ADD DUP7 SWAP1 MSTORE PUSH1 0x80 PUSH1 0x64 DUP4 ADD MSTORE PUSH1 0x0 PUSH1 0x84 DUP4 ADD DUP2 SWAP1 MSTORE SWAP3 MLOAD SWAP1 DUP8 AND SWAP3 PUSH4 0x150B7A02 SWAP3 PUSH1 0xC4 DUP1 DUP3 ADD SWAP4 PUSH1 0x20 SWAP4 SWAP1 SWAP3 DUP4 SWAP1 SUB SWAP1 SWAP2 ADD SWAP1 DUP3 SWAP1 DUP8 DUP1 EXTCODESIZE ISZERO DUP1 ISZERO PUSH2 0x7EF JUMPI PUSH1 0x0 DUP1 REVERT JUMPDEST POP GAS CALL ISZERO DUP1 ISZERO PUSH2 0x803 JUMPI RETURNDATASIZE PUSH1 0x0 DUP1 RETURNDATACOPY RETURNDATASIZE PUSH1 0x0 REVERT JUMPDEST POP POP POP POP PUSH1 0x40 MLOAD RETURNDATASIZE PUSH1 0x20 DUP2 LT ISZERO PUSH2 0x819 JUMPI PUSH1 0x0 DUP1 REVERT JUMPDEST POP MLOAD PUSH1 0x40 DUP1 MLOAD PUSH32 0x6F6E455243373231526563656976656428616464726573732C61646472657373 DUP2 MSTORE PUSH32 0x2C75696E743235362C6279746573290000000000000000000000000000000000 PUSH1 0x20 DUP3 ADD MSTORE SWAP1 MLOAD SWAP1 DUP2 SWAP1 SUB PUSH1 0x2F ADD SWAP1 KECCAK256 SWAP1 SWAP2 POP PUSH32 0xFFFFFFFF00000000000000000000000000000000000000000000000000000000 DUP1 DUP4 AND SWAP2 AND EQ PUSH2 0x908 JUMPI PUSH1 0x40 DUP1 MLOAD PUSH32 0x8C379A000000000000000000000000000000000000000000000000000000000 DUP2 MSTORE PUSH1 0x20 PUSH1 0x4 DUP3 ADD MSTORE PUSH1 0x17 PUSH1 0x24 DUP3 ADD MSTORE PUSH32 0x4552433732315F494E56414C49445F53454C4543544F52000000000000000000 PUSH1 0x44 DUP3 ADD MSTORE SWAP1 MLOAD SWAP1 DUP2 SWAP1 SUB PUSH1 0x64 ADD SWAP1 REVERT JUMPDEST POP POP POP POP POP JUMP JUMPDEST PUSH1 0x0 DUP2 DUP2 MSTORE PUSH1 0x20 DUP2 SWAP1 MSTORE PUSH1 0x40 DUP2 KECCAK256 SLOAD PUSH20 0xFFFFFFFFFFFFFFFFFFFFFFFFFFFFFFFFFFFFFFFF AND DUP1 ISZERO ISZERO PUSH2 0x9A2 JUMPI PUSH1 0x40 DUP1 MLOAD PUSH32 0x8C379A000000000000000000000000000000000000000000000000000000000 DUP2 MSTORE PUSH1 0x20 PUSH1 0x4 DUP3 ADD MSTORE PUSH1 0x11 PUSH1 0x24 DUP3 ADD MSTORE PUSH32 0x4552433732315F5A45524F5F4F574E4552000000000000000000000000000000 PUSH1 0x44 DUP3 ADD MSTORE SWAP1 MLOAD SWAP1 DUP2 SWAP1 SUB PUSH1 0x64 ADD SWAP1 REVERT JUMPDEST SWAP3 SWAP2 POP POP JUMP JUMPDEST PUSH1 0x0 PUSH20 0xFFFFFFFFFFFFFFFFFFFFFFFFFFFFFFFFFFFFFFFF DUP3 AND ISZERO ISZERO PUSH2 0xA2E JUMPI PUSH1 0x40 DUP1 MLOAD PUSH32 0x8C379A000000000000000000000000000000000000000000000000000000000 DUP2 MSTORE PUSH1 0x20 PUSH1 0x4 DUP3 ADD MSTORE PUSH1 0x11 PUSH1 0x24 DUP3 ADD MSTORE PUSH32 0x4552433732315F5A45524F5F4F574E4552000000000000000000000000000000 PUSH1 0x44 DUP3 ADD MSTORE SWAP1 MLOAD SWAP1 DUP2 SWAP1 SUB PUSH1 0x64 ADD SWAP1 REVERT JUMPDEST POP PUSH20 0xFFFFFFFFFFFFFFFFFFFFFFFFFFFFFFFFFFFFFFFF AND PUSH1 0x0 SWAP1 DUP2 MSTORE PUSH1 0x2 PUSH1 0x20 MSTORE PUSH1 0x40 SWAP1 KECCAK256 SLOAD SWAP1 JUMP JUMPDEST CALLER PUSH1 0x0 DUP2 DUP2 MSTORE PUSH1 0x3 PUSH1 0x20 SWAP1 DUP2 MSTORE PUSH1 0x40 DUP1 DUP4 KECCAK256 PUSH20 0xFFFFFFFFFFFFFFFFFFFFFFFFFFFFFFFFFFFFFFFF DUP8 AND DUP1 DUP6 MSTORE SWAP1 DUP4 MSTORE SWAP3 DUP2 SWAP1 KECCAK256 DUP1 SLOAD PUSH32 0xFFFFFFFFFFFFFFFFFFFFFFFFFFFFFFFFFFFFFFFFFFFFFFFFFFFFFFFFFFFFFF00 AND DUP7 ISZERO ISZERO SWAP1 DUP2 OR SWAP1 SWAP2 SSTORE DUP2 MLOAD SWAP1 DUP2 MSTORE SWAP1 MLOAD SWAP3 SWAP4 SWAP3 PUSH32 0x17307EAB39AB6107E8899845AD3D59BD9653F200F220920489CA2B5937696C31 SWAP3 SWAP2 DUP2 SWAP1 SUB SWAP1 SWAP2 ADD SWAP1 LOG3 POP POP JUMP JUMPDEST PUSH1 0x0 DUP1 PUSH2 0xAFE DUP8 DUP8 DUP8 PUSH2 0x3E4 JUMP JUMPDEST DUP6 EXTCODESIZE SWAP2 POP PUSH1 0x0 DUP3 GT ISZERO PUSH2 0xCCB JUMPI PUSH1 0x40 MLOAD PUSH32 0x150B7A0200000000000000000000000000000000000000000000000000000000 DUP2 MSTORE CALLER PUSH1 0x4 DUP3 ADD DUP2 DUP2 MSTORE PUSH20 0xFFFFFFFFFFFFFFFFFFFFFFFFFFFFFFFFFFFFFFFF DUP11 DUP2 AND PUSH1 0x24 DUP6 ADD MSTORE PUSH1 0x44 DUP5 ADD DUP10 SWAP1 MSTORE PUSH1 0x80 PUSH1 0x64 DUP6 ADD SWAP1 DUP2 MSTORE PUSH1 0x84 DUP6 ADD DUP9 SWAP1 MSTORE SWAP1 DUP11 AND SWAP4 PUSH4 0x150B7A02 SWAP4 SWAP3 DUP13 SWAP3 DUP12 SWAP3 DUP12 SWAP3 DUP12 SWAP3 SWAP1 SWAP2 PUSH1 0xA4 ADD DUP5 DUP5 DUP1 DUP3 DUP5 CALLDATACOPY DUP3 ADD SWAP2 POP POP SWAP7 POP POP POP POP POP POP POP PUSH1 0x20 PUSH1 0x40 MLOAD DUP1 DUP4 SUB DUP2 PUSH1 0x0 DUP8 DUP1 EXTCODESIZE ISZERO DUP1 ISZERO PUSH2 0xBB2 JUMPI PUSH1 0x0 DUP1 REVERT JUMPDEST POP GAS CALL ISZERO DUP1 ISZERO PUSH2 0xBC6 JUMPI RETURNDATASIZE PUSH1 0x0 DUP1 RETURNDATACOPY RETURNDATASIZE PUSH1 0x0 REVERT JUMPDEST POP POP POP POP PUSH1 0x40 MLOAD RETURNDATASIZE PUSH1 0x20 DUP2 LT ISZERO PUSH2 0xBDC JUMPI PUSH1 0x0 DUP1 REVERT JUMPDEST POP MLOAD PUSH1 0x40 DUP1 MLOAD PUSH32 0x6F6E455243373231526563656976656428616464726573732C61646472657373 DUP2 MSTORE PUSH32 0x2C75696E743235362C6279746573290000000000000000000000000000000000 PUSH1 0x20 DUP3 ADD MSTORE SWAP1 MLOAD SWAP1 DUP2 SWAP1 SUB PUSH1 0x2F ADD SWAP1 KECCAK256 SWAP1 SWAP2 POP PUSH32 0xFFFFFFFF00000000000000000000000000000000000000000000000000000000 DUP1 DUP4 AND SWAP2 AND EQ PUSH2 0xCCB JUMPI PUSH1 0x40 DUP1 MLOAD PUSH32 0x8C379A000000000000000000000000000000000000000000000000000000000 DUP2 MSTORE PUSH1 0x20 PUSH1 0x4 DUP3 ADD MSTORE PUSH1 0x17 PUSH1 0x24 DUP3 ADD MSTORE PUSH32 0x4552433732315F494E56414C49445F53454C4543544F52000000000000000000 PUSH1 0x44 DUP3 ADD MSTORE SWAP1 MLOAD SWAP1 DUP2 SWAP1 SUB PUSH1 0x64 ADD SWAP1 REVERT JUMPDEST POP POP POP POP POP POP POP JUMP JUMPDEST PUSH20 0xFFFFFFFFFFFFFFFFFFFFFFFFFFFFFFFFFFFFFFFF SWAP2 DUP3 AND PUSH1 0x0 SWAP1 DUP2 MSTORE PUSH1 0x3 PUSH1 0x20 SWAP1 DUP2 MSTORE PUSH1 0x40 DUP1 DUP4 KECCAK256 SWAP4 SWAP1 SWAP5 AND DUP3 MSTORE SWAP2 SWAP1 SWAP2 MSTORE KECCAK256 SLOAD PUSH1 0xFF AND SWAP1 JUMP JUMPDEST PUSH1 0x0 DUP3 DUP3 GT ISZERO PUSH2 0xD80 JUMPI PUSH1 0x40 DUP1 MLOAD PUSH32 0x8C379A000000000000000000000000000000000000000000000000000000000 DUP2 MSTORE PUSH1 0x20 PUSH1 0x4 DUP3 ADD MSTORE PUSH1 0x11 PUSH1 0x24 DUP3 ADD MSTORE PUSH32 0x55494E543235365F554E444552464C4F57000000000000000000000000000000 PUSH1 0x44 DUP3 ADD MSTORE SWAP1 MLOAD SWAP1 DUP2 SWAP1 SUB PUSH1 0x64 ADD SWAP1 REVERT JUMPDEST POP SWAP1 SUB SWAP1 JUMP JUMPDEST PUSH1 0x0 DUP3 DUP3 ADD DUP4 DUP2 LT ISZERO PUSH2 0xDFA JUMPI PUSH1 0x40 DUP1 MLOAD PUSH32 0x8C379A000000000000000000000000000000000000000000000000000000000 DUP2 MSTORE PUSH1 0x20 PUSH1 0x4 DUP3 ADD MSTORE PUSH1 0x10 PUSH1 0x24 DUP3 ADD MSTORE PUSH32 0x55494E543235365F4F564552464C4F5700000000000000000000000000000000 PUSH1 0x44 DUP3 ADD MSTORE SWAP1 MLOAD SWAP1 DUP2 SWAP1 SUB PUSH1 0x64 ADD SWAP1 REVERT JUMPDEST SWAP4 SWAP3 POP POP POP JUMP STOP LOG1 PUSH6 0x627A7A723058 KECCAK256 PUSH20 0x18C14C91209A554964C5F972B95A90FE384DD7DD SWAP7 0xcc REVERT MOD MULMOD SLOAD 0x4e PUSH5 0x39C3C90029 "
			}
		}
	},
	"sourceTreeHashHex": "0xf4217ae1c8ee6ad15913d86a30747907f26acfb4a1970ea3c8a30d45ce9171d0",
	"compiler": {
		"name": "solc",
		"version": "soljson-v0.4.24+commit.e67f0147.js",
		"settings": {
			"optimizer": {
				"enabled": true,
				"runs": 1000000
			},
			"outputSelection": {
				"*": {
					"*": [
						"abi",
						"evm.bytecode.object",
						"evm.bytecode.sourceMap",
						"evm.deployedBytecode.object",
						"evm.deployedBytecode.sourceMap"
					]
				}
			}
		}
	}
}