{
	"schemaVersion": "2.0.0",
	"contractName": "Exchange",
	"compilerOutput": {
		"abi": [
			{
				"constant": true,
				"inputs": [
					{
						"name": "",
						"type": "bytes32"
					}
				],
				"name": "filled",
				"outputs": [
					{
						"name": "",
						"type": "uint256"
					}
				],
				"payable": false,
				"stateMutability": "view",
				"type": "function"
			},
			{
				"constant": false,
				"inputs": [
					{
						"components": [
							{
								"name": "makerAddress",
								"type": "address"
							},
							{
								"name": "takerAddress",
								"type": "address"
							},
							{
								"name": "feeRecipientAddress",
								"type": "address"
							},
							{
								"name": "senderAddress",
								"type": "address"
							},
							{
								"name": "makerAssetAmount",
								"type": "uint256"
							},
							{
								"name": "takerAssetAmount",
								"type": "uint256"
							},
							{
								"name": "makerFee",
								"type": "uint256"
							},
							{
								"name": "takerFee",
								"type": "uint256"
							},
							{
								"name": "expirationTimeSeconds",
								"type": "uint256"
							},
							{
								"name": "salt",
								"type": "uint256"
							},
							{
								"name": "makerAssetData",
								"type": "bytes"
							},
							{
								"name": "takerAssetData",
								"type": "bytes"
							}
						],
						"name": "orders",
						"type": "tuple[]"
					},
					{
						"name": "takerAssetFillAmounts",
						"type": "uint256[]"
					},
					{
						"name": "signatures",
						"type": "bytes[]"
					}
				],
				"name": "batchFillOrders",
				"outputs": [],
				"payable": false,
				"stateMutability": "nonpayable",
				"type": "function"
			},
			{
				"constant": true,
				"inputs": [
					{
						"name": "",
						"type": "bytes32"
					}
				],
				"name": "cancelled",
				"outputs": [
					{
						"name": "",
						"type": "bool"
					}
				],
				"payable": false,
				"stateMutability": "view",
				"type": "function"
			},
			{
				"constant": false,
				"inputs": [
					{
						"name": "hash",
						"type": "bytes32"
					},
					{
						"name": "signer",
						"type": "address"
					},
					{
						"name": "signature",
						"type": "bytes"
					}
				],
				"name": "preSign",
				"outputs": [],
				"payable": false,
				"stateMutability": "nonpayable",
				"type": "function"
			},
			{
				"constant": true,
				"inputs": [
					{
						"name": "",
						"type": "uint8"
					}
				],
				"name": "assetProxies",
				"outputs": [
					{
						"name": "",
						"type": "address"
					}
				],
				"payable": false,
				"stateMutability": "view",
				"type": "function"
			},
			{
				"constant": false,
				"inputs": [
					{
						"components": [
							{
								"name": "makerAddress",
								"type": "address"
							},
							{
								"name": "takerAddress",
								"type": "address"
							},
							{
								"name": "feeRecipientAddress",
								"type": "address"
							},
							{
								"name": "senderAddress",
								"type": "address"
							},
							{
								"name": "makerAssetAmount",
								"type": "uint256"
							},
							{
								"name": "takerAssetAmount",
								"type": "uint256"
							},
							{
								"name": "makerFee",
								"type": "uint256"
							},
							{
								"name": "takerFee",
								"type": "uint256"
							},
							{
								"name": "expirationTimeSeconds",
								"type": "uint256"
							},
							{
								"name": "salt",
								"type": "uint256"
							},
							{
								"name": "makerAssetData",
								"type": "bytes"
							},
							{
								"name": "takerAssetData",
								"type": "bytes"
							}
						],
						"name": "leftOrder",
						"type": "tuple"
					},
					{
						"components": [
							{
								"name": "makerAddress",
								"type": "address"
							},
							{
								"name": "takerAddress",
								"type": "address"
							},
							{
								"name": "feeRecipientAddress",
								"type": "address"
							},
							{
								"name": "senderAddress",
								"type": "address"
							},
							{
								"name": "makerAssetAmount",
								"type": "uint256"
							},
							{
								"name": "takerAssetAmount",
								"type": "uint256"
							},
							{
								"name": "makerFee",
								"type": "uint256"
							},
							{
								"name": "takerFee",
								"type": "uint256"
							},
							{
								"name": "expirationTimeSeconds",
								"type": "uint256"
							},
							{
								"name": "salt",
								"type": "uint256"
							},
							{
								"name": "makerAssetData",
								"type": "bytes"
							},
							{
								"name": "takerAssetData",
								"type": "bytes"
							}
						],
						"name": "rightOrder",
						"type": "tuple"
					},
					{
						"name": "leftSignature",
						"type": "bytes"
					},
					{
						"name": "rightSignature",
						"type": "bytes"
					}
				],
				"name": "matchOrders",
				"outputs": [
					{
						"components": [
							{
								"components": [
									{
										"name": "makerAssetFilledAmount",
										"type": "uint256"
									},
									{
										"name": "takerAssetFilledAmount",
										"type": "uint256"
									},
									{
										"name": "makerFeePaid",
										"type": "uint256"
									},
									{
										"name": "takerFeePaid",
										"type": "uint256"
									}
								],
								"name": "left",
								"type": "tuple"
							},
							{
								"components": [
									{
										"name": "makerAssetFilledAmount",
										"type": "uint256"
									},
									{
										"name": "takerAssetFilledAmount",
										"type": "uint256"
									},
									{
										"name": "makerFeePaid",
										"type": "uint256"
									},
									{
										"name": "takerFeePaid",
										"type": "uint256"
									}
								],
								"name": "right",
								"type": "tuple"
							},
							{
								"name": "takerFillAmount",
								"type": "uint256"
							}
						],
						"name": "matchedFillResults",
						"type": "tuple"
					}
				],
				"payable": false,
				"stateMutability": "nonpayable",
				"type": "function"
			},
			{
				"constant": false,
				"inputs": [
					{
						"components": [
							{
								"name": "makerAddress",
								"type": "address"
							},
							{
								"name": "takerAddress",
								"type": "address"
							},
							{
								"name": "feeRecipientAddress",
								"type": "address"
							},
							{
								"name": "senderAddress",
								"type": "address"
							},
							{
								"name": "makerAssetAmount",
								"type": "uint256"
							},
							{
								"name": "takerAssetAmount",
								"type": "uint256"
							},
							{
								"name": "makerFee",
								"type": "uint256"
							},
							{
								"name": "takerFee",
								"type": "uint256"
							},
							{
								"name": "expirationTimeSeconds",
								"type": "uint256"
							},
							{
								"name": "salt",
								"type": "uint256"
							},
							{
								"name": "makerAssetData",
								"type": "bytes"
							},
							{
								"name": "takerAssetData",
								"type": "bytes"
							}
						],
						"name": "order",
						"type": "tuple"
					},
					{
						"name": "takerAssetFillAmount",
						"type": "uint256"
					},
					{
						"name": "signature",
						"type": "bytes"
					}
				],
				"name": "fillOrderNoThrow",
				"outputs": [
					{
						"components": [
							{
								"name": "makerAssetFilledAmount",
								"type": "uint256"
							},
							{
								"name": "takerAssetFilledAmount",
								"type": "uint256"
							},
							{
								"name": "makerFeePaid",
								"type": "uint256"
							},
							{
								"name": "takerFeePaid",
								"type": "uint256"
							}
						],
						"name": "fillResults",
						"type": "tuple"
					}
				],
				"payable": false,
				"stateMutability": "nonpayable",
				"type": "function"
			},
			{
				"constant": false,
				"inputs": [
					{
						"components": [
							{
								"name": "makerAddress",
								"type": "address"
							},
							{
								"name": "takerAddress",
								"type": "address"
							},
							{
								"name": "feeRecipientAddress",
								"type": "address"
							},
							{
								"name": "senderAddress",
								"type": "address"
							},
							{
								"name": "makerAssetAmount",
								"type": "uint256"
							},
							{
								"name": "takerAssetAmount",
								"type": "uint256"
							},
							{
								"name": "makerFee",
								"type": "uint256"
							},
							{
								"name": "takerFee",
								"type": "uint256"
							},
							{
								"name": "expirationTimeSeconds",
								"type": "uint256"
							},
							{
								"name": "salt",
								"type": "uint256"
							},
							{
								"name": "makerAssetData",
								"type": "bytes"
							},
							{
								"name": "takerAssetData",
								"type": "bytes"
							}
						],
						"name": "orders",
						"type": "tuple[]"
					}
				],
				"name": "batchCancelOrders",
				"outputs": [],
				"payable": false,
				"stateMutability": "nonpayable",
				"type": "function"
			},
			{
				"constant": false,
				"inputs": [
					{
						"components": [
							{
								"name": "makerAddress",
								"type": "address"
							},
							{
								"name": "takerAddress",
								"type": "address"
							},
							{
								"name": "feeRecipientAddress",
								"type": "address"
							},
							{
								"name": "senderAddress",
								"type": "address"
							},
							{
								"name": "makerAssetAmount",
								"type": "uint256"
							},
							{
								"name": "takerAssetAmount",
								"type": "uint256"
							},
							{
								"name": "makerFee",
								"type": "uint256"
							},
							{
								"name": "takerFee",
								"type": "uint256"
							},
							{
								"name": "expirationTimeSeconds",
								"type": "uint256"
							},
							{
								"name": "salt",
								"type": "uint256"
							},
							{
								"name": "makerAssetData",
								"type": "bytes"
							},
							{
								"name": "takerAssetData",
								"type": "bytes"
							}
						],
						"name": "orders",
						"type": "tuple[]"
					},
					{
						"name": "takerAssetFillAmounts",
						"type": "uint256[]"
					},
					{
						"name": "signatures",
						"type": "bytes[]"
					}
				],
				"name": "batchFillOrKillOrders",
				"outputs": [],
				"payable": false,
				"stateMutability": "nonpayable",
				"type": "function"
			},
			{
				"constant": false,
				"inputs": [
					{
						"name": "salt",
						"type": "uint256"
					}
				],
				"name": "cancelOrdersUpTo",
				"outputs": [],
				"payable": false,
				"stateMutability": "nonpayable",
				"type": "function"
			},
			{
				"constant": false,
				"inputs": [
					{
						"components": [
							{
								"name": "makerAddress",
								"type": "address"
							},
							{
								"name": "takerAddress",
								"type": "address"
							},
							{
								"name": "feeRecipientAddress",
								"type": "address"
							},
							{
								"name": "senderAddress",
								"type": "address"
							},
							{
								"name": "makerAssetAmount",
								"type": "uint256"
							},
							{
								"name": "takerAssetAmount",
								"type": "uint256"
							},
							{
								"name": "makerFee",
								"type": "uint256"
							},
							{
								"name": "takerFee",
								"type": "uint256"
							},
							{
								"name": "expirationTimeSeconds",
								"type": "uint256"
							},
							{
								"name": "salt",
								"type": "uint256"
							},
							{
								"name": "makerAssetData",
								"type": "bytes"
							},
							{
								"name": "takerAssetData",
								"type": "bytes"
							}
						],
						"name": "orders",
						"type": "tuple[]"
					},
					{
						"name": "takerAssetFillAmounts",
						"type": "uint256[]"
					},
					{
						"name": "signatures",
						"type": "bytes[]"
					}
				],
				"name": "batchFillOrdersNoThrow",
				"outputs": [],
				"payable": false,
				"stateMutability": "nonpayable",
				"type": "function"
			},
			{
				"constant": false,
				"inputs": [
					{
						"name": "assetProxyId",
						"type": "uint8"
					},
					{
						"name": "newAssetProxy",
						"type": "address"
					},
					{
						"name": "oldAssetProxy",
						"type": "address"
					}
				],
				"name": "registerAssetProxy",
				"outputs": [],
				"payable": false,
				"stateMutability": "nonpayable",
				"type": "function"
			},
			{
				"constant": true,
				"inputs": [],
				"name": "zrxProxyData",
				"outputs": [
					{
						"name": "",
						"type": "bytes"
					}
				],
				"payable": false,
				"stateMutability": "view",
				"type": "function"
			},
			{
				"constant": true,
				"inputs": [
					{
						"name": "",
						"type": "bytes32"
					}
				],
				"name": "transactions",
				"outputs": [
					{
						"name": "",
						"type": "bool"
					}
				],
				"payable": false,
				"stateMutability": "view",
				"type": "function"
			},
			{
				"constant": false,
				"inputs": [
					{
						"components": [
							{
								"name": "makerAddress",
								"type": "address"
							},
							{
								"name": "takerAddress",
								"type": "address"
							},
							{
								"name": "feeRecipientAddress",
								"type": "address"
							},
							{
								"name": "senderAddress",
								"type": "address"
							},
							{
								"name": "makerAssetAmount",
								"type": "uint256"
							},
							{
								"name": "takerAssetAmount",
								"type": "uint256"
							},
							{
								"name": "makerFee",
								"type": "uint256"
							},
							{
								"name": "takerFee",
								"type": "uint256"
							},
							{
								"name": "expirationTimeSeconds",
								"type": "uint256"
							},
							{
								"name": "salt",
								"type": "uint256"
							},
							{
								"name": "makerAssetData",
								"type": "bytes"
							},
							{
								"name": "takerAssetData",
								"type": "bytes"
							}
						],
						"name": "order",
						"type": "tuple"
					},
					{
						"name": "takerAssetFillAmount",
						"type": "uint256"
					},
					{
						"name": "signature",
						"type": "bytes"
					}
				],
				"name": "fillOrKillOrder",
				"outputs": [
					{
						"components": [
							{
								"name": "makerAssetFilledAmount",
								"type": "uint256"
							},
							{
								"name": "takerAssetFilledAmount",
								"type": "uint256"
							},
							{
								"name": "makerFeePaid",
								"type": "uint256"
							},
							{
								"name": "takerFeePaid",
								"type": "uint256"
							}
						],
						"name": "fillResults",
						"type": "tuple"
					}
				],
				"payable": false,
				"stateMutability": "nonpayable",
				"type": "function"
			},
			{
				"constant": true,
				"inputs": [
					{
						"name": "",
						"type": "address"
					}
				],
				"name": "makerEpoch",
				"outputs": [
					{
						"name": "",
						"type": "uint256"
					}
				],
				"payable": false,
				"stateMutability": "view",
				"type": "function"
			},
			{
				"constant": true,
				"inputs": [
					{
						"components": [
							{
								"name": "makerAddress",
								"type": "address"
							},
							{
								"name": "takerAddress",
								"type": "address"
							},
							{
								"name": "feeRecipientAddress",
								"type": "address"
							},
							{
								"name": "senderAddress",
								"type": "address"
							},
							{
								"name": "makerAssetAmount",
								"type": "uint256"
							},
							{
								"name": "takerAssetAmount",
								"type": "uint256"
							},
							{
								"name": "makerFee",
								"type": "uint256"
							},
							{
								"name": "takerFee",
								"type": "uint256"
							},
							{
								"name": "expirationTimeSeconds",
								"type": "uint256"
							},
							{
								"name": "salt",
								"type": "uint256"
							},
							{
								"name": "makerAssetData",
								"type": "bytes"
							},
							{
								"name": "takerAssetData",
								"type": "bytes"
							}
						],
						"name": "order",
						"type": "tuple"
					},
					{
						"name": "orderStatus",
						"type": "uint8"
					},
					{
						"name": "orderTakerAssetFilledAmount",
						"type": "uint256"
					},
					{
						"name": "takerAssetFillAmount",
						"type": "uint256"
					}
				],
				"name": "calculateFillResults",
				"outputs": [
					{
						"name": "status",
						"type": "uint8"
					},
					{
						"components": [
							{
								"name": "makerAssetFilledAmount",
								"type": "uint256"
							},
							{
								"name": "takerAssetFilledAmount",
								"type": "uint256"
							},
							{
								"name": "makerFeePaid",
								"type": "uint256"
							},
							{
								"name": "takerFeePaid",
								"type": "uint256"
							}
						],
						"name": "fillResults",
						"type": "tuple"
					}
				],
				"payable": false,
				"stateMutability": "pure",
				"type": "function"
			},
			{
				"constant": false,
				"inputs": [
					{
						"name": "validator",
						"type": "address"
					},
					{
						"name": "approval",
						"type": "bool"
					}
				],
				"name": "setSignatureValidatorApproval",
				"outputs": [],
				"payable": false,
				"stateMutability": "nonpayable",
				"type": "function"
			},
			{
				"constant": true,
				"inputs": [
					{
						"name": "",
						"type": "address"
					},
					{
						"name": "",
						"type": "address"
					}
				],
				"name": "allowedValidators",
				"outputs": [
					{
						"name": "",
						"type": "bool"
					}
				],
				"payable": false,
				"stateMutability": "view",
				"type": "function"
			},
			{
				"constant": false,
				"inputs": [
					{
						"components": [
							{
								"name": "makerAddress",
								"type": "address"
							},
							{
								"name": "takerAddress",
								"type": "address"
							},
							{
								"name": "feeRecipientAddress",
								"type": "address"
							},
							{
								"name": "senderAddress",
								"type": "address"
							},
							{
								"name": "makerAssetAmount",
								"type": "uint256"
							},
							{
								"name": "takerAssetAmount",
								"type": "uint256"
							},
							{
								"name": "makerFee",
								"type": "uint256"
							},
							{
								"name": "takerFee",
								"type": "uint256"
							},
							{
								"name": "expirationTimeSeconds",
								"type": "uint256"
							},
							{
								"name": "salt",
								"type": "uint256"
							},
							{
								"name": "makerAssetData",
								"type": "bytes"
							},
							{
								"name": "takerAssetData",
								"type": "bytes"
							}
						],
						"name": "orders",
						"type": "tuple[]"
					},
					{
						"name": "takerAssetFillAmount",
						"type": "uint256"
					},
					{
						"name": "signatures",
						"type": "bytes[]"
					}
				],
				"name": "marketSellOrders",
				"outputs": [
					{
						"components": [
							{
								"name": "makerAssetFilledAmount",
								"type": "uint256"
							},
							{
								"name": "takerAssetFilledAmount",
								"type": "uint256"
							},
							{
								"name": "makerFeePaid",
								"type": "uint256"
							},
							{
								"name": "takerFeePaid",
								"type": "uint256"
							}
						],
						"name": "totalFillResults",
						"type": "tuple"
					}
				],
				"payable": false,
				"stateMutability": "nonpayable",
				"type": "function"
			},
			{
				"constant": true,
				"inputs": [
					{
						"name": "",
						"type": "bytes32"
					},
					{
						"name": "",
						"type": "address"
					}
				],
				"name": "preSigned",
				"outputs": [
					{
						"name": "",
						"type": "bool"
					}
				],
				"payable": false,
				"stateMutability": "view",
				"type": "function"
			},
			{
				"constant": true,
				"inputs": [],
				"name": "owner",
				"outputs": [
					{
						"name": "",
						"type": "address"
					}
				],
				"payable": false,
				"stateMutability": "view",
				"type": "function"
			},
			{
				"constant": true,
				"inputs": [
					{
						"name": "assetProxyId",
						"type": "uint8"
					}
				],
				"name": "getAssetProxy",
				"outputs": [
					{
						"name": "",
						"type": "address"
					}
				],
				"payable": false,
				"stateMutability": "view",
				"type": "function"
			},
			{
				"constant": false,
				"inputs": [
					{
						"components": [
							{
								"name": "makerAddress",
								"type": "address"
							},
							{
								"name": "takerAddress",
								"type": "address"
							},
							{
								"name": "feeRecipientAddress",
								"type": "address"
							},
							{
								"name": "senderAddress",
								"type": "address"
							},
							{
								"name": "makerAssetAmount",
								"type": "uint256"
							},
							{
								"name": "takerAssetAmount",
								"type": "uint256"
							},
							{
								"name": "makerFee",
								"type": "uint256"
							},
							{
								"name": "takerFee",
								"type": "uint256"
							},
							{
								"name": "expirationTimeSeconds",
								"type": "uint256"
							},
							{
								"name": "salt",
								"type": "uint256"
							},
							{
								"name": "makerAssetData",
								"type": "bytes"
							},
							{
								"name": "takerAssetData",
								"type": "bytes"
							}
						],
						"name": "orders",
						"type": "tuple[]"
					},
					{
						"name": "makerAssetFillAmount",
						"type": "uint256"
					},
					{
						"name": "signatures",
						"type": "bytes[]"
					}
				],
				"name": "marketBuyOrdersNoThrow",
				"outputs": [
					{
						"components": [
							{
								"name": "makerAssetFilledAmount",
								"type": "uint256"
							},
							{
								"name": "takerAssetFilledAmount",
								"type": "uint256"
							},
							{
								"name": "makerFeePaid",
								"type": "uint256"
							},
							{
								"name": "takerFeePaid",
								"type": "uint256"
							}
						],
						"name": "totalFillResults",
						"type": "tuple"
					}
				],
				"payable": false,
				"stateMutability": "nonpayable",
				"type": "function"
			},
			{
				"constant": false,
				"inputs": [
					{
						"components": [
							{
								"name": "makerAddress",
								"type": "address"
							},
							{
								"name": "takerAddress",
								"type": "address"
							},
							{
								"name": "feeRecipientAddress",
								"type": "address"
							},
							{
								"name": "senderAddress",
								"type": "address"
							},
							{
								"name": "makerAssetAmount",
								"type": "uint256"
							},
							{
								"name": "takerAssetAmount",
								"type": "uint256"
							},
							{
								"name": "makerFee",
								"type": "uint256"
							},
							{
								"name": "takerFee",
								"type": "uint256"
							},
							{
								"name": "expirationTimeSeconds",
								"type": "uint256"
							},
							{
								"name": "salt",
								"type": "uint256"
							},
							{
								"name": "makerAssetData",
								"type": "bytes"
							},
							{
								"name": "takerAssetData",
								"type": "bytes"
							}
						],
						"name": "order",
						"type": "tuple"
					},
					{
						"name": "takerAssetFillAmount",
						"type": "uint256"
					},
					{
						"name": "signature",
						"type": "bytes"
					}
				],
				"name": "fillOrder",
				"outputs": [
					{
						"components": [
							{
								"name": "makerAssetFilledAmount",
								"type": "uint256"
							},
							{
								"name": "takerAssetFilledAmount",
								"type": "uint256"
							},
							{
								"name": "makerFeePaid",
								"type": "uint256"
							},
							{
								"name": "takerFeePaid",
								"type": "uint256"
							}
						],
						"name": "fillResults",
						"type": "tuple"
					}
				],
				"payable": false,
				"stateMutability": "nonpayable",
				"type": "function"
			},
			{
				"constant": false,
				"inputs": [
					{
						"name": "salt",
						"type": "uint256"
					},
					{
						"name": "signer",
						"type": "address"
					},
					{
						"name": "data",
						"type": "bytes"
					},
					{
						"name": "signature",
						"type": "bytes"
					}
				],
				"name": "executeTransaction",
				"outputs": [],
				"payable": false,
				"stateMutability": "nonpayable",
				"type": "function"
			},
			{
				"constant": true,
				"inputs": [
					{
						"components": [
							{
								"name": "makerAddress",
								"type": "address"
							},
							{
								"name": "takerAddress",
								"type": "address"
							},
							{
								"name": "feeRecipientAddress",
								"type": "address"
							},
							{
								"name": "senderAddress",
								"type": "address"
							},
							{
								"name": "makerAssetAmount",
								"type": "uint256"
							},
							{
								"name": "takerAssetAmount",
								"type": "uint256"
							},
							{
								"name": "makerFee",
								"type": "uint256"
							},
							{
								"name": "takerFee",
								"type": "uint256"
							},
							{
								"name": "expirationTimeSeconds",
								"type": "uint256"
							},
							{
								"name": "salt",
								"type": "uint256"
							},
							{
								"name": "makerAssetData",
								"type": "bytes"
							},
							{
								"name": "takerAssetData",
								"type": "bytes"
							}
						],
						"name": "order",
						"type": "tuple"
					}
				],
				"name": "getOrderInfo",
				"outputs": [
					{
						"components": [
							{
								"name": "orderStatus",
								"type": "uint8"
							},
							{
								"name": "orderHash",
								"type": "bytes32"
							},
							{
								"name": "orderTakerAssetFilledAmount",
								"type": "uint256"
							}
						],
						"name": "orderInfo",
						"type": "tuple"
					}
				],
				"payable": false,
				"stateMutability": "view",
				"type": "function"
			},
			{
				"constant": false,
				"inputs": [
					{
						"components": [
							{
								"name": "makerAddress",
								"type": "address"
							},
							{
								"name": "takerAddress",
								"type": "address"
							},
							{
								"name": "feeRecipientAddress",
								"type": "address"
							},
							{
								"name": "senderAddress",
								"type": "address"
							},
							{
								"name": "makerAssetAmount",
								"type": "uint256"
							},
							{
								"name": "takerAssetAmount",
								"type": "uint256"
							},
							{
								"name": "makerFee",
								"type": "uint256"
							},
							{
								"name": "takerFee",
								"type": "uint256"
							},
							{
								"name": "expirationTimeSeconds",
								"type": "uint256"
							},
							{
								"name": "salt",
								"type": "uint256"
							},
							{
								"name": "makerAssetData",
								"type": "bytes"
							},
							{
								"name": "takerAssetData",
								"type": "bytes"
							}
						],
						"name": "order",
						"type": "tuple"
					}
				],
				"name": "cancelOrder",
				"outputs": [
					{
						"name": "",
						"type": "bool"
					}
				],
				"payable": false,
				"stateMutability": "nonpayable",
				"type": "function"
			},
			{
				"constant": false,
				"inputs": [
					{
						"components": [
							{
								"name": "makerAddress",
								"type": "address"
							},
							{
								"name": "takerAddress",
								"type": "address"
							},
							{
								"name": "feeRecipientAddress",
								"type": "address"
							},
							{
								"name": "senderAddress",
								"type": "address"
							},
							{
								"name": "makerAssetAmount",
								"type": "uint256"
							},
							{
								"name": "takerAssetAmount",
								"type": "uint256"
							},
							{
								"name": "makerFee",
								"type": "uint256"
							},
							{
								"name": "takerFee",
								"type": "uint256"
							},
							{
								"name": "expirationTimeSeconds",
								"type": "uint256"
							},
							{
								"name": "salt",
								"type": "uint256"
							},
							{
								"name": "makerAssetData",
								"type": "bytes"
							},
							{
								"name": "takerAssetData",
								"type": "bytes"
							}
						],
						"name": "orders",
						"type": "tuple[]"
					},
					{
						"name": "takerAssetFillAmount",
						"type": "uint256"
					},
					{
						"name": "signatures",
						"type": "bytes[]"
					}
				],
				"name": "marketSellOrdersNoThrow",
				"outputs": [
					{
						"components": [
							{
								"name": "makerAssetFilledAmount",
								"type": "uint256"
							},
							{
								"name": "takerAssetFilledAmount",
								"type": "uint256"
							},
							{
								"name": "makerFeePaid",
								"type": "uint256"
							},
							{
								"name": "takerFeePaid",
								"type": "uint256"
							}
						],
						"name": "totalFillResults",
						"type": "tuple"
					}
				],
				"payable": false,
				"stateMutability": "nonpayable",
				"type": "function"
			},
			{
				"constant": false,
				"inputs": [
					{
						"components": [
							{
								"name": "makerAddress",
								"type": "address"
							},
							{
								"name": "takerAddress",
								"type": "address"
							},
							{
								"name": "feeRecipientAddress",
								"type": "address"
							},
							{
								"name": "senderAddress",
								"type": "address"
							},
							{
								"name": "makerAssetAmount",
								"type": "uint256"
							},
							{
								"name": "takerAssetAmount",
								"type": "uint256"
							},
							{
								"name": "makerFee",
								"type": "uint256"
							},
							{
								"name": "takerFee",
								"type": "uint256"
							},
							{
								"name": "expirationTimeSeconds",
								"type": "uint256"
							},
							{
								"name": "salt",
								"type": "uint256"
							},
							{
								"name": "makerAssetData",
								"type": "bytes"
							},
							{
								"name": "takerAssetData",
								"type": "bytes"
							}
						],
						"name": "orders",
						"type": "tuple[]"
					},
					{
						"name": "makerAssetFillAmount",
						"type": "uint256"
					},
					{
						"name": "signatures",
						"type": "bytes[]"
					}
				],
				"name": "marketBuyOrders",
				"outputs": [
					{
						"components": [
							{
								"name": "makerAssetFilledAmount",
								"type": "uint256"
							},
							{
								"name": "takerAssetFilledAmount",
								"type": "uint256"
							},
							{
								"name": "makerFeePaid",
								"type": "uint256"
							},
							{
								"name": "takerFeePaid",
								"type": "uint256"
							}
						],
						"name": "totalFillResults",
						"type": "tuple"
					}
				],
				"payable": false,
				"stateMutability": "nonpayable",
				"type": "function"
			},
			{
				"constant": true,
				"inputs": [],
				"name": "currentContextAddress",
				"outputs": [
					{
						"name": "",
						"type": "address"
					}
				],
				"payable": false,
				"stateMutability": "view",
				"type": "function"
			},
			{
				"constant": false,
				"inputs": [
					{
						"name": "newOwner",
						"type": "address"
					}
				],
				"name": "transferOwnership",
				"outputs": [],
				"payable": false,
				"stateMutability": "nonpayable",
				"type": "function"
			},
			{
				"constant": true,
				"inputs": [],
				"name": "VERSION",
				"outputs": [
					{
						"name": "",
						"type": "string"
					}
				],
				"payable": false,
				"stateMutability": "view",
				"type": "function"
			},
			{
				"inputs": [
					{
						"name": "_zrxProxyData",
						"type": "bytes"
					}
				],
				"payable": false,
				"stateMutability": "nonpayable",
				"type": "constructor"
			},
			{
				"anonymous": false,
				"inputs": [
					{
						"indexed": false,
						"name": "id",
						"type": "uint8"
					},
					{
						"indexed": false,
						"name": "newAssetProxy",
						"type": "address"
					},
					{
						"indexed": false,
						"name": "oldAssetProxy",
						"type": "address"
					}
				],
				"name": "AssetProxySet",
				"type": "event"
			},
			{
				"anonymous": false,
				"inputs": [
					{
						"indexed": true,
						"name": "makerAddress",
						"type": "address"
					},
					{
						"indexed": false,
						"name": "takerAddress",
						"type": "address"
					},
					{
						"indexed": true,
						"name": "feeRecipientAddress",
						"type": "address"
					},
					{
						"indexed": false,
						"name": "makerAssetFilledAmount",
						"type": "uint256"
					},
					{
						"indexed": false,
						"name": "takerAssetFilledAmount",
						"type": "uint256"
					},
					{
						"indexed": false,
						"name": "makerFeePaid",
						"type": "uint256"
					},
					{
						"indexed": false,
						"name": "takerFeePaid",
						"type": "uint256"
					},
					{
						"indexed": true,
						"name": "orderHash",
						"type": "bytes32"
					},
					{
						"indexed": false,
						"name": "makerAssetData",
						"type": "bytes"
					},
					{
						"indexed": false,
						"name": "takerAssetData",
						"type": "bytes"
					}
				],
				"name": "Fill",
				"type": "event"
			},
			{
				"anonymous": false,
				"inputs": [
					{
						"indexed": true,
						"name": "makerAddress",
						"type": "address"
					},
					{
						"indexed": true,
						"name": "feeRecipientAddress",
						"type": "address"
					},
					{
						"indexed": true,
						"name": "orderHash",
						"type": "bytes32"
					},
					{
						"indexed": false,
						"name": "makerAssetData",
						"type": "bytes"
					},
					{
						"indexed": false,
						"name": "takerAssetData",
						"type": "bytes"
					}
				],
				"name": "Cancel",
				"type": "event"
			},
			{
				"anonymous": false,
				"inputs": [
					{
						"indexed": true,
						"name": "makerAddress",
						"type": "address"
					},
					{
						"indexed": false,
						"name": "makerEpoch",
						"type": "uint256"
					}
				],
				"name": "CancelUpTo",
				"type": "event"
			},
			{
				"anonymous": false,
				"inputs": [
					{
						"indexed": true,
						"name": "statusId",
						"type": "uint8"
					},
					{
						"indexed": true,
						"name": "orderHash",
						"type": "bytes32"
					}
				],
				"name": "ExchangeStatus",
				"type": "event"
			}
		],
		"evm": {
			"bytecode": {
				"linkReferences": {},
				"object": "0x60806040523480156200001157600080fd5b50604051620070f7380380620070f78339810180604052620000379190810190620001a7565b8033600360006101000a81548173ffffffffffffffffffffffffffffffffffffffff021916908373ffffffffffffffffffffffffffffffffffffffff1602179055508060049080519060200190620000919291906200009a565b5050506200027d565b828054600181600116156101000203166002900490600052602060002090601f016020900481019282601f10620000dd57805160ff19168380011785556200010e565b828001600101855582156200010e579182015b828111156200010d578251825591602001919060010190620000f0565b5b5090506200011d919062000121565b5090565b6200014691905b808211156200014257600081600090555060010162000128565b5090565b90565b600082601f83011215156200015d57600080fd5b8151620001746200016e826200021a565b620001ec565b915080825260208301602083018583830111156200019157600080fd5b6200019e83828462000247565b50505092915050565b600060208284031215620001ba57600080fd5b600082015167ffffffffffffffff811115620001d557600080fd5b620001e38482850162000149565b91505092915050565b6000604051905081810181811067ffffffffffffffff821117156200021057600080fd5b8060405250919050565b600067ffffffffffffffff8211156200023257600080fd5b601f19601f8301169050602081019050919050565b60005b83811015620002675780820151818401526020810190506200024a565b8381111562000277576000848401525b50505050565b616e6a806200028d6000396000f3006080604052600436106101a1576000357c0100000000000000000000000000000000000000000000000000000000900463ffffffff168063288cdc91146101a6578063297bb70b146101e35780632ac126221461020c5780633683ef8e1461024957806338077164146102725780633c28d861146102af5780633e228bae146102ec5780634ac14782146103295780634d0ae546146103525780634f9559b11461037b57806350dde190146103a45780635c78d0c7146103cd57806363589905146103f6578063642f2eaf1461042157806364a3bc151461045e5780636f3627f81461049b578063704ed01c146104d857806377fcce68146105165780637b8e35141461053f5780637e1d98081461057c57806382c174d0146105b95780638da5cb5b146105f657806392c1421e14610621578063a3e203801461065e578063b4be83d51461069b578063bfc8bfce146106d8578063c75e0a8114610701578063d46b02c31461073e578063dd1c7d181461077b578063e5fa431b146107b8578063eea086ba146107f5578063f2fde38b14610820578063ffa1ad7414610849575b600080fd5b3480156101b257600080fd5b506101cd60048036036101c89190810190616221565b610874565b6040516101da9190616b98565b60405180910390f35b3480156101ef57600080fd5b5061020a600480360361020591908101906160e2565b61088c565b005b34801561021857600080fd5b50610233600480360361022e9190810190616221565b6108ff565b6040516102409190616976565b60405180910390f35b34801561025557600080fd5b50610270600480360361026b9190810190616286565b61091f565b005b34801561027e57600080fd5b50610299600480360361029491908101906165b4565b610a4d565b6040516102a69190616ae9565b60405180910390f35b3480156102bb57600080fd5b506102d660048036036102d19190810190616333565b610a80565b6040516102e39190616b61565b60405180910390f35b3480156102f857600080fd5b50610313600480360361030e91908101906163f6565b610b76565b6040516103209190616b46565b60405180910390f35b34801561033557600080fd5b50610350600480360361034b91908101906160a1565b610db7565b005b34801561035e57600080fd5b50610379600480360361037491908101906160e2565b610df8565b005b34801561038757600080fd5b506103a2600480360361039d91908101906164f0565b610e6b565b005b3480156103b057600080fd5b506103cb60048036036103c691908101906160e2565b611012565b005b3480156103d957600080fd5b506103f460048036036103ef9190810190616606565b611085565b005b34801561040257600080fd5b5061040b61143f565b6040516104189190616a44565b60405180910390f35b34801561042d57600080fd5b5061044860048036036104439190810190616221565b6114e1565b6040516104559190616976565b60405180910390f35b34801561046a57600080fd5b50610485600480360361048091908101906163f6565b611501565b6040516104929190616b46565b60405180910390f35b3480156104a757600080fd5b506104c260048036036104bd9190810190616000565b6115c8565b6040516104cf9190616b98565b60405180910390f35b3480156104e457600080fd5b506104ff60048036036104fa9190810190616475565b6115e0565b60405161050d929190616bea565b60405180910390f35b34801561052257600080fd5b5061053d60048036036105389190810190616065565b611712565b005b34801561054b57600080fd5b5061056660048036036105619190810190616029565b6117b7565b6040516105739190616976565b60405180910390f35b34801561058857600080fd5b506105a3600480360361059e9190810190616179565b6117e6565b6040516105b09190616b46565b60405180910390f35b3480156105c557600080fd5b506105e060048036036105db919081019061624a565b61196b565b6040516105ed9190616976565b60405180910390f35b34801561060257600080fd5b5061060b61199a565b60405161061891906168de565b60405180910390f35b34801561062d57600080fd5b50610648600480360361064391908101906165b4565b6119c0565b60405161065591906168de565b60405180910390f35b34801561066a57600080fd5b5061068560048036036106809190810190616179565b611a08565b6040516106929190616b46565b60405180910390f35b3480156106a757600080fd5b506106c260048036036106bd91908101906163f6565b611bd3565b6040516106cf9190616b46565b60405180910390f35b3480156106e457600080fd5b506106ff60048036036106fa9190810190616519565b611cc3565b005b34801561070d57600080fd5b50610728600480360361072391908101906162f2565b612191565b6040516107359190616b7d565b60405180910390f35b34801561074a57600080fd5b50610765600480360361076091908101906162f2565b6123a1565b6040516107729190616976565b60405180910390f35b34801561078757600080fd5b506107a2600480360361079d9190810190616179565b6123e4565b6040516107af9190616b46565b60405180910390f35b3480156107c457600080fd5b506107df60048036036107da9190810190616179565b612569565b6040516107ec9190616b46565b60405180910390f35b34801561080157600080fd5b5061080a612734565b60405161081791906168de565b60405180910390f35b34801561082c57600080fd5b5061084760048036036108429190810190616000565b61275a565b005b34801561085557600080fd5b5061085e612867565b60405161086b9190616b04565b60405180910390f35b60006020528060005260406000206000915090505481565b60008090505b83518110156108f9576108eb84828151811015156108ac57fe5b9060200190602002015184838151811015156108c457fe5b9060200190602002015184848151811015156108dc57fe5b90602001906020020151611bd3565b508080600101915050610892565b50505050565b60016020528060005260406000206000915054906101000a900460ff1681565b61095c848484848080601f0160208091040260200160405190810160405280939291908181526020018383808284378201915050505050506128a0565b6040805190810160405280601c81526020017f5369676e61747572652076616c69646174696f6e206661696c65642e000000008152509015156109d5576040517f08c379a00000000000000000000000000000000000000000000000000000000081526004016109cc9190616b04565b60405180910390fd5b50600160056000866000191660001916815260200190815260200160002060008573ffffffffffffffffffffffffffffffffffffffff1673ffffffffffffffffffffffffffffffffffffffff16815260200190815260200160002060006101000a81548160ff02191690831515021790555050505050565b60096020528060005260406000206000915054906101000a900473ffffffffffffffffffffffffffffffffffffffff1681565b610a886159c6565b610a906159f5565b610a986159f5565b6000610aa388612191565b9250610aae87612191565b9150610ab8613532565b9050610ac488886135be565b610ae28888856000015185600001518760400151876040015161383f565b9350610b0788846000015185602001518487604001518960000151602001518c613aa8565b610b2a87836000015184602001518486604001518960200151602001518b613aa8565b610b3688888387613f27565b610b4f888285602001518660400151886000015161435d565b610b68878284602001518560400151886020015161435d565b839350505050949350505050565b610b7e615a1d565b600063b4be83d57c01000000000000000000000000000000000000000000000000000000000290506040518181526004810180606081018181808b6000808784038652602086019550825184526020830151602085015260408301516040850152606083015160608501526080830151608085015260a083015160a085015260c083015160c085015260e083015160e085015261010083015161010085015261012083015161012085015261014083015161014085015261016083015161016085015261018084019350610180830192508484036020600a02860152825191506020830192506020601f830104905081845260208401935060005b81811015610c9c5783518552602085019450602084019350600181019050610c79565b508484036020600b02860152825191506020830192506020601f830104905081845260208401935060005b81811015610cea5783518552602085019450602084019350600181019050610cc7565b508d865260208601955087840386528c9250825191506020830192506020601f830104905081845260208401935060005b81811015610d3e5783518552602085019450602084019350600181019050610d1b565b5060808a8b86038c305af48060008114610d5f5760018114610d7d57610da0565b60008e52600060208f0152600060408f0152600060608f0152610da0565b8b518e5260208c015160208f015260408c015160408f015260608c015160608f01525b505050505050505050505050819150509392505050565b60008090505b8151811015610df457610de68282815181101515610dd757fe5b906020019060200201516123a1565b508080600101915050610dbd565b5050565b60008090505b8351811015610e6557610e578482815181101515610e1857fe5b906020019060200201518483815181101515610e3057fe5b906020019060200201518484815181101515610e4857fe5b90602001906020020151611501565b508080600101915050610dfe565b50505050565b6000600182019050600260003373ffffffffffffffffffffffffffffffffffffffff1673ffffffffffffffffffffffffffffffffffffffff168152602001908152602001600020548111608060405190810160405280604481526020017f5370656369666965642073616c74206d7573742062652067726561746572207481526020017f68616e206f7220657175616c20746f206578697374696e67206d616b6572457081526020017f6f63682e00000000000000000000000000000000000000000000000000000000815250901515610f7b576040517f08c379a0000000000000000000000000000000000000000000000000000000008152600401610f729190616b04565b60405180910390fd5b5080600260003373ffffffffffffffffffffffffffffffffffffffff1673ffffffffffffffffffffffffffffffffffffffff168152602001908152602001600020819055503373ffffffffffffffffffffffffffffffffffffffff167f666a5047451d0c744e58819166260f8048fe2786e33b3c1115af94887a451ca7826040516110069190616b98565b60405180910390a25050565b60008090505b835181101561107f57611071848281518110151561103257fe5b90602001906020020151848381518110151561104a57fe5b90602001906020020151848481518110151561106257fe5b90602001906020020151610b76565b508080600101915050611018565b50505050565b600080600360009054906101000a900473ffffffffffffffffffffffffffffffffffffffff1673ffffffffffffffffffffffffffffffffffffffff163373ffffffffffffffffffffffffffffffffffffffff1614151561111a576040517f08c379a000000000000000000000000000000000000000000000000000000000815260040161111190616b26565b60405180910390fd5b600960008660ff1660ff16815260200190815260200160002060009054906101000a900473ffffffffffffffffffffffffffffffffffffffff1673ffffffffffffffffffffffffffffffffffffffff168373ffffffffffffffffffffffffffffffffffffffff1614606060405190810160405280603781526020017f4f6c642061737365742070726f787920646f6573206e6f74206d61746368206181526020017f737365742070726f787920617420676976656e2069642e000000000000000000815250901515611222576040517f08c379a00000000000000000000000000000000000000000000000000000000081526004016112199190616b04565b60405180910390fd5b50839150600073ffffffffffffffffffffffffffffffffffffffff168473ffffffffffffffffffffffffffffffffffffffff161415156113a5578173ffffffffffffffffffffffffffffffffffffffff1663ae25532e6040518163ffffffff167c0100000000000000000000000000000000000000000000000000000000028152600401602060405180830381600087803b1580156112c057600080fd5b505af11580156112d4573d6000803e3d6000fd5b505050506040513d601f19601f820116820180604052506112f891908101906165dd565b90508460ff168160ff1614606060405190810160405280602b81526020017f4e65772061737365742070726f787920696420646f6573206e6f74206d61746381526020017f6820676976656e2069642e0000000000000000000000000000000000000000008152509015156113a3576040517f08c379a000000000000000000000000000000000000000000000000000000000815260040161139a9190616b04565b60405180910390fd5b505b81600960008760ff1660ff16815260200190815260200160002060006101000a81548173ffffffffffffffffffffffffffffffffffffffff021916908373ffffffffffffffffffffffffffffffffffffffff1602179055507f27ef5f484e50f2daf7c2d82c60fe4ce409009541176eb64095beac369db1d26085858560405161143093929190616bb3565b60405180910390a15050505050565b606060048054600181600116156101000203166002900480601f0160208091040260200160405190810160405280929190818152602001828054600181600116156101000203166002900480156114d75780601f106114ac576101008083540402835291602001916114d7565b820191906000526020600020905b8154815290600101906020018083116114ba57829003601f168201915b5050505050905090565b60076020528060005260406000206000915054906101000a900460ff1681565b611509615a1d565b611514848484611bd3565b905082816020015114606060405190810160405280603381526020017f446573697265642066696c6c20616d6f756e7420636f756c64206e6f7420626581526020017f20636f6d706c6574656c792066696c6c65642e000000000000000000000000008152509015156115bd576040517f08c379a00000000000000000000000000000000000000000000000000000000081526004016115b49190616b04565b60405180910390fd5b508090509392505050565b60026020528060005260406000206000915090505481565b60006115ea615a1d565b6000806000851415611610576004600e81111561160357fe5b9350838393509350611707565b600b600e81111561161d57fe5b60ff168760ff1614151561163957869350838393509350611707565b6116478860a0015187614428565b91506116538583614441565b9050611668818960a001518a6080015161445a565b15611687576002600e81111561167a57fe5b9350838393509350611707565b808360200181815250506116a883602001518960a001518a608001516144b5565b8360000181815250506116c883602001518960a001518a60c001516144b5565b8360400181815250506116e883602001518960a001518a60e001516144b5565b8360600181815250506001600e8111156116fe57fe5b93508383935093505b505094509492505050565b600061171c613532565b905081600660008373ffffffffffffffffffffffffffffffffffffffff1673ffffffffffffffffffffffffffffffffffffffff16815260200190815260200160002060008573ffffffffffffffffffffffffffffffffffffffff1673ffffffffffffffffffffffffffffffffffffffff16815260200190815260200160002060006101000a81548160ff021916908315150217905550505050565b60066020528160005260406000206020528060005260406000206000915091509054906101000a900460ff1681565b6117ee615a1d565b6000806117f9615a1d565b600092505b865183101561195e5761184a878481518110151561181857fe5b90602001906020020151610160015188600081518110151561183657fe5b9060200190602002015161016001516144d6565b606060405190810160405280602b81526020017f41737365742064617461206d757374206265207468652073616d6520666f722081526020017f65616368206f726465722e0000000000000000000000000000000000000000008152509015156118ea576040517f08c379a00000000000000000000000000000000000000000000000000000000081526004016118e19190616b04565b60405180910390fd5b506118f9868560200151614428565b9150611934878481518110151561190c57fe5b9060200190602002015183878681518110151561192557fe5b90602001906020020151611bd3565b90506119408482614529565b85846020015114156119515761195e565b82806001019350506117fe565b8393505050509392505050565b60056020528160005260406000206020528060005260406000206000915091509054906101000a900460ff1681565b600360009054906101000a900473ffffffffffffffffffffffffffffffffffffffff1681565b600080600960008460ff1660ff16815260200190815260200160002060009054906101000a900473ffffffffffffffffffffffffffffffffffffffff16905080915050919050565b611a10615a1d565b6000806000611a1d615a1d565b600093505b8751841015611bc557611a6e8885815181101515611a3c57fe5b906020019060200201516101400151896000815181101515611a5a57fe5b9060200190602002015161014001516144d6565b606060405190810160405280602b81526020017f41737365742064617461206d757374206265207468652073616d6520666f722081526020017f65616368206f726465722e000000000000000000000000000000000000000000815250901515611b0e576040517f08c379a0000000000000000000000000000000000000000000000000000000008152600401611b059190616b04565b60405180910390fd5b50611b1d878660000151614428565b9250611b608885815181101515611b3057fe5b9060200190602002015160a001518986815181101515611b4c57fe5b9060200190602002015160800151856144b5565b9150611b9b8885815181101515611b7357fe5b90602001906020020151838887815181101515611b8c57fe5b90602001906020020151610b76565b9050611ba78582614529565b8685600001511415611bb857611bc5565b8380600101945050611a22565b849450505050509392505050565b611bdb615a1d565b611be36159f5565b600080611bef87612191565b9250611bf9613532565b9150611c1687846000015185602001518587604001518b8b613aa8565b611c2a8784600001518560400151896115e0565b80955081925050506001600e811115611c3f57fe5b60ff168160ff16141515611c95578260200151600019168160ff167f7a2f932ac2b230b365b1cf3c91cf7f6bb97d4625011e0cf070ca1e0af0f1b39a60405160405180910390a3611c8e614599565b9350611cb9565b611ca08783866145cc565b611cb58783856020015186604001518861435d565b8393505b5050509392505050565b60008073ffffffffffffffffffffffffffffffffffffffff16600860009054906101000a900473ffffffffffffffffffffffffffffffffffffffff1673ffffffffffffffffffffffffffffffffffffffff1614606060405190810160405280603f81526020017f60657865637574655472616e73616374696f6e60206973206e6f7420616c6c6f81526020017f77656420746f2063616c6c20697473656c66207265637572736976656c792e00815250901515611db6576040517f08c379a0000000000000000000000000000000000000000000000000000000008152600401611dad9190616b04565b60405180910390fd5b503086888787604051808673ffffffffffffffffffffffffffffffffffffffff1673ffffffffffffffffffffffffffffffffffffffff166c010000000000000000000000000281526014018573ffffffffffffffffffffffffffffffffffffffff1673ffffffffffffffffffffffffffffffffffffffff166c010000000000000000000000000281526014018481526020018383808284378201915050955050505050506040518091039020905060076000826000191660001916815260200190815260200160002060009054906101000a900460ff1615606060405190810160405280602681526020017f5472616e73616374696f6e2068617320616c7265616479206265656e2065786581526020017f63757465642e0000000000000000000000000000000000000000000000000000815250901515611f2e576040517f08c379a0000000000000000000000000000000000000000000000000000000008152600401611f259190616b04565b60405180910390fd5b503373ffffffffffffffffffffffffffffffffffffffff168673ffffffffffffffffffffffffffffffffffffffff1614151561205d57611fa1818785858080601f0160208091040260200160405190810160405280939291908181526020018383808284378201915050505050506128a0565b6040805190810160405280601c81526020017f5369676e61747572652076616c69646174696f6e206661696c65642e0000000081525090151561201a576040517f08c379a00000000000000000000000000000000000000000000000000000000081526004016120119190616b04565b60405180910390fd5b5085600860006101000a81548173ffffffffffffffffffffffffffffffffffffffff021916908373ffffffffffffffffffffffffffffffffffffffff1602179055505b600160076000836000191660001916815260200190815260200160002060006101000a81548160ff0219169083151502179055503073ffffffffffffffffffffffffffffffffffffffff16858560405180838380828437820191505092505050600060405180830381855af49150506040805190810160405280601d81526020017f5472616e73616374696f6e20657865637574696f6e206661696c65642e000000815250901515612145576040517f08c379a000000000000000000000000000000000000000000000000000000000815260040161213c9190616b04565b60405180910390fd5b506000600860006101000a81548173ffffffffffffffffffffffffffffffffffffffff021916908373ffffffffffffffffffffffffffffffffffffffff16021790555050505050505050565b6121996159f5565b6121a282614763565b816020019060001916908160001916815250506000826080015114156121e8576009600e8111156121cf57fe5b816000019060ff16908160ff168152505080905061239c565b60008260a00151141561221b57600a600e81111561220257fe5b816000019060ff16908160ff168152505080905061239c565b8161010001514210151561224f57600c600e81111561223657fe5b816000019060ff16908160ff168152505080905061239c565b6001600082602001516000191660001916815260200190815260200160002060009054906101000a900460ff16156122a657600e8081111561228d57fe5b816000019060ff16908160ff168152505080905061239c565b81610120015160026000846000015173ffffffffffffffffffffffffffffffffffffffff1673ffffffffffffffffffffffffffffffffffffffff16815260200190815260200160002054111561231b57600e8081111561230257fe5b816000019060ff16908160ff168152505080905061239c565b600080826020015160001916600019168152602001908152602001600020548160400181815250508160a00151816040015110151561237a57600d600e81111561236157fe5b816000019060ff16908160ff168152505080905061239c565b600b600e81111561238757fe5b816000019060ff16908160ff16815250508090505b919050565b60006123ab6159f5565b6123b483612191565b90506123c98382600001518360200151614d06565b6123dc8382600001518360200151615042565b915050919050565b6123ec615a1d565b6000806123f7615a1d565b600092505b865183101561255c57612448878481518110151561241657fe5b90602001906020020151610160015188600081518110151561243457fe5b9060200190602002015161016001516144d6565b606060405190810160405280602b81526020017f41737365742064617461206d757374206265207468652073616d6520666f722081526020017f65616368206f726465722e0000000000000000000000000000000000000000008152509015156124e8576040517f08c379a00000000000000000000000000000000000000000000000000000000081526004016124df9190616b04565b60405180910390fd5b506124f7868560200151614428565b9150612532878481518110151561250a57fe5b9060200190602002015183878681518110151561252357fe5b90602001906020020151610b76565b905061253e8482614529565b858460200151141561254f5761255c565b82806001019350506123fc565b8393505050509392505050565b612571615a1d565b600080600061257e615a1d565b600093505b8751841015612726576125cf888581518110151561259d57fe5b9060200190602002015161014001518960008151811015156125bb57fe5b9060200190602002015161014001516144d6565b606060405190810160405280602b81526020017f41737365742064617461206d757374206265207468652073616d6520666f722081526020017f65616368206f726465722e00000000000000000000000000000000000000000081525090151561266f576040517f08c379a00000000000000000000000000000000000000000000000000000000081526004016126669190616b04565b60405180910390fd5b5061267e878660000151614428565b92506126c1888581518110151561269157fe5b9060200190602002015160a0015189868151811015156126ad57fe5b9060200190602002015160800151856144b5565b91506126fc88858151811015156126d457fe5b906020019060200201518388878151811015156126ed57fe5b90602001906020020151611bd3565b90506127088582614529565b868560000151141561271957612726565b8380600101945050612583565b849450505050509392505050565b600860009054906101000a900473ffffffffffffffffffffffffffffffffffffffff1681565b600360009054906101000a900473ffffffffffffffffffffffffffffffffffffffff1673ffffffffffffffffffffffffffffffffffffffff163373ffffffffffffffffffffffffffffffffffffffff161415156127ec576040517f08c379a00000000000000000000000000000000000000000000000000000000081526004016127e390616b26565b60405180910390fd5b600073ffffffffffffffffffffffffffffffffffffffff168173ffffffffffffffffffffffffffffffffffffffff161415156128645780600360006101000a81548173ffffffffffffffffffffffffffffffffffffffff021916908373ffffffffffffffffffffffffffffffffffffffff1602179055505b50565b6040805190810160405280600b81526020017f322e302e312d616c70686100000000000000000000000000000000000000000081525081565b60008060008060008060006001885110156040805190810160405280601981526020017f496e76616c6964207369676e6174757265206c656e6774682e0000000000000081525090151561292a576040517f08c379a00000000000000000000000000000000000000000000000000000000081526004016129219190616b04565b60405180910390fd5b5061293488615160565b7f0100000000000000000000000000000000000000000000000000000000000000900460ff16600881111561296557fe5b95506000600881111561297457fe5b86600881111561298057fe5b14156129f8576040805190810160405280601781526020017f496c6c6567616c207369676e617475726520747970652e0000000000000000008152506040517f08c379a00000000000000000000000000000000000000000000000000000000081526004016129ef9190616b04565b60405180910390fd5b60016008811115612a0557fe5b866008811115612a1157fe5b1415612aa25760008851146040805190810160405280601981526020017f496e76616c6964207369676e6174757265206c656e6774682e00000000000000815250901515612a95576040517f08c379a0000000000000000000000000000000000000000000000000000000008152600401612a8c9190616b04565b60405180910390fd5b5060009650869650613525565b60026008811115612aaf57fe5b866008811115612abb57fe5b1415612c655760418851146040805190810160405280601981526020017f496e76616c6964207369676e6174757265206c656e6774682e00000000000000815250901515612b3f576040517f08c379a0000000000000000000000000000000000000000000000000000000008152600401612b369190616b04565b60405180910390fd5b50876000815181101515612b4f57fe5b9060200101517f010000000000000000000000000000000000000000000000000000000000000090047f0100000000000000000000000000000000000000000000000000000000000000027f010000000000000000000000000000000000000000000000000000000000000090049450612bca886001615250565b9350612bd7886021615250565b925060018a86868660405160008152602001604052604051612bfc94939291906169ff565b60206040516020810390808403906000865af1158015612c20573d6000803e3d6000fd5b5050506020604051035191508173ffffffffffffffffffffffffffffffffffffffff168973ffffffffffffffffffffffffffffffffffffffff16149650869650613525565b60036008811115612c7257fe5b866008811115612c7e57fe5b1415612e6d5760418851146040805190810160405280601981526020017f496e76616c6964207369676e6174757265206c656e6774682e00000000000000815250901515612d02576040517f08c379a0000000000000000000000000000000000000000000000000000000008152600401612cf99190616b04565b60405180910390fd5b50876000815181101515612d1257fe5b9060200101517f010000000000000000000000000000000000000000000000000000000000000090047f0100000000000000000000000000000000000000000000000000000000000000027f010000000000000000000000000000000000000000000000000000000000000090049450612d8d886001615250565b9350612d9a886021615250565b925060018a60405180807f19457468657265756d205369676e6564204d6573736167653a0a333200000000815250601c018260001916600019168152602001915050604051809103902086868660405160008152602001604052604051612e0494939291906169ff565b60206040516020810390808403906000865af1158015612e28573d6000803e3d6000fd5b5050506020604051035191508173ffffffffffffffffffffffffffffffffffffffff168973ffffffffffffffffffffffffffffffffffffffff16149650869650613525565b60046008811115612e7a57fe5b866008811115612e8657fe5b1415612f445760008851146040805190810160405280601981526020017f496e76616c6964207369676e6174757265206c656e6774682e00000000000000815250901515612f0a576040517f08c379a0000000000000000000000000000000000000000000000000000000008152600401612f019190616b04565b60405180910390fd5b503373ffffffffffffffffffffffffffffffffffffffff168973ffffffffffffffffffffffffffffffffffffffff16149650869650613525565b60056008811115612f5157fe5b866008811115612f5d57fe5b1415613016578873ffffffffffffffffffffffffffffffffffffffff16631626ba7e8b8a6040518363ffffffff167c0100000000000000000000000000000000000000000000000000000000028152600401612fba9291906169cf565b602060405180830381600087803b158015612fd457600080fd5b505af1158015612fe8573d6000803e3d6000fd5b505050506040513d601f19601f8201168201806040525061300c91908101906161f8565b9650869650613525565b6006600881111561302357fe5b86600881111561302f57fe5b141561318e5761303e88615310565b9050600660008a73ffffffffffffffffffffffffffffffffffffffff1673ffffffffffffffffffffffffffffffffffffffff16815260200190815260200160002060008273ffffffffffffffffffffffffffffffffffffffff1673ffffffffffffffffffffffffffffffffffffffff16815260200190815260200160002060009054906101000a900460ff1615156130d95760009650613525565b8073ffffffffffffffffffffffffffffffffffffffff1663936347028b8b8b6040518463ffffffff167c010000000000000000000000000000000000000000000000000000000002815260040161313293929190616991565b602060405180830381600087803b15801561314c57600080fd5b505af1158015613160573d6000803e3d6000fd5b505050506040513d601f19601f8201168201806040525061318491908101906161f8565b9650869650613525565b6007600881111561319b57fe5b8660088111156131a757fe5b141561321d57600560008b6000191660001916815260200190815260200160002060008a73ffffffffffffffffffffffffffffffffffffffff1673ffffffffffffffffffffffffffffffffffffffff16815260200190815260200160002060009054906101000a900460ff169650869650613525565b60088081111561322957fe5b86600881111561323557fe5b14156134245760418851146040805190810160405280601981526020017f496e76616c6964207369676e6174757265206c656e6774682e000000000000008152509015156132b9576040517f08c379a00000000000000000000000000000000000000000000000000000000081526004016132b09190616b04565b60405180910390fd5b508760008151811015156132c957fe5b9060200101517f010000000000000000000000000000000000000000000000000000000000000090047f0100000000000000000000000000000000000000000000000000000000000000027f010000000000000000000000000000000000000000000000000000000000000090049450613344886001615250565b9350613351886021615250565b925060018a60405180807f19457468657265756d205369676e6564204d6573736167653a0a410000000000815250601b0182600019166000191681526020019150506040518091039020868686604051600081526020016040526040516133bb94939291906169ff565b60206040516020810390808403906000865af11580156133df573d6000803e3d6000fd5b5050506020604051035191508173ffffffffffffffffffffffffffffffffffffffff168973ffffffffffffffffffffffffffffffffffffffff16149650869650613525565b6007600881111561343157fe5b86600881111561343d57fe5b14156134b357600560008b6000191660001916815260200190815260200160002060008a73ffffffffffffffffffffffffffffffffffffffff1673ffffffffffffffffffffffffffffffffffffffff16815260200190815260200160002060009054906101000a900460ff169650869650613525565b6040805190810160405280601b81526020017f556e737570706f72746564207369676e617475726520747970652e00000000008152506040517f08c379a000000000000000000000000000000000000000000000000000000000815260040161351c9190616b04565b60405180910390fd5b5050505050509392505050565b600080600073ffffffffffffffffffffffffffffffffffffffff16600860009054906101000a900473ffffffffffffffffffffffffffffffffffffffff1673ffffffffffffffffffffffffffffffffffffffff16146135b357600860009054906101000a900473ffffffffffffffffffffffffffffffffffffffff166135b5565b335b90508091505090565b6135d28261014001518261016001516144d6565b608060405190810160405280604181526020017f4c656674206f72646572206d616b65722061737365742069732064696666657281526020017f656e742066726f6d207269676874206f726465722074616b657220617373657481526020017f2e00000000000000000000000000000000000000000000000000000000000000815250901515613698576040517f08c379a000000000000000000000000000000000000000000000000000000000815260040161368f9190616b04565b60405180910390fd5b506136ad8261016001518261014001516144d6565b608060405190810160405280604181526020017f4c656674206f726465722074616b65722061737365742069732064696666657281526020017f656e742066726f6d207269676874206f72646572206d616b657220617373657481526020017f2e00000000000000000000000000000000000000000000000000000000000000815250901515613773576040517f08c379a000000000000000000000000000000000000000000000000000000000815260040161376a9190616b04565b60405180910390fd5b506137868260a001518260a001516153da565b613798836080015183608001516153da565b1015606060405190810160405280602b81526020017f4d617463686564206f7264657273206d7573742068617665206120706f73697481526020017f697665207370726561642e00000000000000000000000000000000000000000081525090151561383a576040517f08c379a00000000000000000000000000000000000000000000000000000000081526004016138319190616b04565b60405180910390fd5b505050565b6138476159c6565b600080600080600061385d8b60a0015188614428565b945061386d8c60a0015189614428565b935061387d858c608001516153da565b61388b858d60a001516153da565b1115156138af578392506138a88b60a001518c608001518561540d565b91506138c8565b8491506138c58b608001518c60a001518461540d565b92505b6138d48c8b8a866115e0565b8090508760000181905281925050506001600e8111156138f057fe5b60ff168160ff1614606060405190810160405280603081526020017f4661696c656420746f2063616c63756c6174652066696c6c20726573756c747381526020017f20666f72206c656674206f726465722e00000000000000000000000000000000815250901515613998576040517f08c379a000000000000000000000000000000000000000000000000000000000815260040161398f9190616b04565b60405180910390fd5b506139a58b8a89856115e0565b8090508760200181905281925050506001600e8111156139c157fe5b60ff168160ff1614606060405190810160405280603181526020017f4661696c656420746f2063616c63756c6174652066696c6c20726573756c747381526020017f20666f72207269676874206f726465722e000000000000000000000000000000815250901515613a69576040517f08c379a0000000000000000000000000000000000000000000000000000000008152600401613a609190616b04565b60405180910390fd5b50613a84866000015160000151876020015160200151614428565b866040018181525050613a96866154f6565b85955050505050509695505050505050565b6009600e811115613ab557fe5b60ff168660ff161415606060405190810160405280603c81526020017f496e76616c6964206f72646572206d616b657220617373657420616d6f756e7481526020017f3a2065787065637465642061206e6f6e2d7a65726f2076616c75652e00000000815250901515613b5e576040517f08c379a0000000000000000000000000000000000000000000000000000000008152600401613b559190616b04565b60405180910390fd5b50600a600e811115613b6c57fe5b60ff168660ff161415606060405190810160405280603c81526020017f496e76616c6964206f726465722074616b657220617373657420616d6f756e7481526020017f3a2065787065637465642061206e6f6e2d7a65726f2076616c75652e00000000815250901515613c15576040517f08c379a0000000000000000000000000000000000000000000000000000000008152600401613c0c9190616b04565b60405180910390fd5b506000831415613ca957613c2e858860000151836128a0565b6040805190810160405280601c81526020017f5369676e61747572652076616c69646174696f6e206661696c65642e00000000815250901515613ca7576040517f08c379a0000000000000000000000000000000000000000000000000000000008152600401613c9e9190616b04565b60405180910390fd5b505b600073ffffffffffffffffffffffffffffffffffffffff16876060015173ffffffffffffffffffffffffffffffffffffffff16141515613d91573373ffffffffffffffffffffffffffffffffffffffff16876060015173ffffffffffffffffffffffffffffffffffffffff16146040805190810160405280601581526020017f496e76616c696420606d73672e73656e646572602e0000000000000000000000815250901515613d8f576040517f08c379a0000000000000000000000000000000000000000000000000000000008152600401613d869190616b04565b60405180910390fd5b505b600073ffffffffffffffffffffffffffffffffffffffff16876020015173ffffffffffffffffffffffffffffffffffffffff16141515613ea0578373ffffffffffffffffffffffffffffffffffffffff16876020015173ffffffffffffffffffffffffffffffffffffffff1614606060405190810160405280602681526020017f46756e6374696f6e2063616c6c656420696e20616e20696e76616c696420636f81526020017f6e746578742e0000000000000000000000000000000000000000000000000000815250901515613e9e576040517f08c379a0000000000000000000000000000000000000000000000000000000008152600401613e959190616b04565b60405180910390fd5b505b600082116040805190810160405280601e81526020017f416d6f756e74206d7573742062652067726561746572207468616e20302e0000815250901515613f1d576040517f08c379a0000000000000000000000000000000000000000000000000000000008152600401613f149190616b04565b60405180910390fd5b5050505050505050565b613f48846101400151856000015185600001518460200151602001516156d4565b613f69836101400151846000015186600001518460000151602001516156d4565b613f8284610140015185600001518484604001516156d4565b61403860048054600181600116156101000203166002900480601f01602080910402602001604051908101604052809291908181526020018280546001816001161561010002031660029004801561401b5780601f10613ff05761010080835404028352916020019161401b565b820191906000526020600020905b815481529060010190602001808311613ffe57829003601f168201915b5050505050856000015186604001518460000151604001516156d4565b6140ee60048054600181600116156101000203166002900480601f0160208091040260200160405190810160405280929190818152602001828054600181600116156101000203166002900480156140d15780601f106140a6576101008083540402835291602001916140d1565b820191906000526020600020905b8154815290600101906020018083116140b457829003601f168201915b5050505050846000015185604001518460200151604001516156d4565b826040015173ffffffffffffffffffffffffffffffffffffffff16846040015173ffffffffffffffffffffffffffffffffffffffff1614156141f2576141ed60048054600181600116156101000203166002900480601f0160208091040260200160405190810160405280929190818152602001828054600181600116156101000203166002900480156141c35780601f10614198576101008083540402835291602001916141c3565b820191906000526020600020905b8154815290600101906020018083116141a657829003601f168201915b50505050508386604001516141e88560000151606001518660200151606001516158b7565b6156d4565b614357565b6142a460048054600181600116156101000203166002900480601f01602080910402602001604051908101604052809291908181526020018280546001816001161561010002031660029004801561428b5780601f106142605761010080835404028352916020019161428b565b820191906000526020600020905b81548152906001019060200180831161426e57829003601f168201915b50505050508386604001518460000151606001516156d4565b61435660048054600181600116156101000203166002900480601f01602080910402602001604051908101604052809291908181526020018280546001816001161561010002031660029004801561433d5780601f106143125761010080835404028352916020019161433d565b820191906000526020600020905b81548152906001019060200180831161432057829003601f168201915b50505050508385604001518460200151606001516156d4565b5b50505050565b61436b8282602001516158b7565b6000808560001916600019168152602001908152602001600020819055508260001916856040015173ffffffffffffffffffffffffffffffffffffffff16866000015173ffffffffffffffffffffffffffffffffffffffff167fde19f18e1b56e6eada7ed95cca8398b602be32f5864640537ee9a9a3532bb29d8785600001518660200151876040015188606001518d61014001518e610160015160405161441997969594939291906168f9565b60405180910390a45050505050565b600082821115151561443657fe5b818303905092915050565b60008183106144505781614452565b825b905092915050565b60008060008480151561446957fe5b8685099150600082141561448057600092506144ac565b61449f61449083620f42406153da565b61449a88876153da565b6158d5565b90506103e8811192508292505b50509392505050565b60006144ca6144c485846153da565b846158d5565b90508090509392505050565b60006020601f8451010460018101905060005b8181101561451e57602081028501516020820285015180821494506000851415614511578392505b50506001810190506144e9565b505080905092915050565b61453b826000015182600001516158b7565b826000018181525050614556826020015182602001516158b7565b826020018181525050614571826040015182604001516158b7565b82604001818152505061458c826060015182606001516158b7565b8260600181815250505050565b6145a1615a1d565b6080604051908101604052806000815260200160008152602001600081526020016000815250905090565b6145e583610140015184600001518484600001516156d4565b6145fe83610160015183856000015184602001516156d4565b6146b060048054600181600116156101000203166002900480601f0160208091040260200160405190810160405280929190818152602001828054600181600116156101000203166002900480156146975780601f1061466c57610100808354040283529160200191614697565b820191906000526020600020905b81548152906001019060200180831161467a57829003601f168201915b50505050508460000151856040015184604001516156d4565b61475e60048054600181600116156101000203166002900480601f0160208091040260200160405190810160405280929190818152602001828054600181600116156101000203166002900480156147495780601f1061471e57610100808354040283529160200191614749565b820191906000526020600020905b81548152906001019060200180831161472c57829003601f168201915b505050505083856040015184606001516156d4565b505050565b600060405180807f446f6d61696e536570617261746f72286164647265737320636f6e747261637481526020017f29000000000000000000000000000000000000000000000000000000000000008152506021019050604051809103902030604051808273ffffffffffffffffffffffffffffffffffffffff1673ffffffffffffffffffffffffffffffffffffffff166c01000000000000000000000000028152601401915050604051809103902060405180807f4f72646572280000000000000000000000000000000000000000000000000000815250600601807f61646472657373206d616b6572416464726573732c0000000000000000000000815250601501807f616464726573732074616b6572416464726573732c0000000000000000000000815250601501807f6164647265737320666565526563697069656e74416464726573732c00000000815250601c01807f616464726573732073656e646572416464726573732c00000000000000000000815250601601807f75696e74323536206d616b65724173736574416d6f756e742c00000000000000815250601901807f75696e743235362074616b65724173736574416d6f756e742c00000000000000815250601901807f75696e74323536206d616b65724665652c000000000000000000000000000000815250601101807f75696e743235362074616b65724665652c000000000000000000000000000000815250601101807f75696e743235362065787069726174696f6e54696d655365636f6e64732c0000815250601e01807f75696e743235362073616c742c00000000000000000000000000000000000000815250600d01807f6279746573206d616b65724173736574446174612c0000000000000000000000815250601501807f62797465732074616b65724173736574446174612c0000000000000000000000815250601501807f290000000000000000000000000000000000000000000000000000000000000081525060010190506040518091039020846000015185602001518660400151876060015188608001518960a001518a60c001518b60e001518c61010001518d61012001518e61014001516040518082805190602001908083835b602083101515614abf5780518252602082019150602081019050602083039250614a9a565b6001836020036101000a03801982511681845116808217855250505050505090500191505060405180910390208f61016001516040518082805190602001908083835b602083101515614b275780518252602082019150602081019050602083039250614b02565b6001836020036101000a0380198251168184511680821785525050505050509050019150506040518091039020604051808d73ffffffffffffffffffffffffffffffffffffffff1673ffffffffffffffffffffffffffffffffffffffff166c010000000000000000000000000281526014018c73ffffffffffffffffffffffffffffffffffffffff1673ffffffffffffffffffffffffffffffffffffffff166c010000000000000000000000000281526014018b73ffffffffffffffffffffffffffffffffffffffff1673ffffffffffffffffffffffffffffffffffffffff166c010000000000000000000000000281526014018a73ffffffffffffffffffffffffffffffffffffffff1673ffffffffffffffffffffffffffffffffffffffff166c01000000000000000000000000028152601401898152602001888152602001878152602001868152602001858152602001848152602001836000191660001916815260200182600019166000191681526020019c50505050505050505050505050604051809103902060405180856000191660001916815260200184600019166000191681526020018360001916600019168152602001826000191660001916815260200194505050505060405180910390209050809050919050565b60006009600e811115614d1557fe5b60ff168360ff161415606060405190810160405280603c81526020017f496e76616c6964206f72646572206d616b657220617373657420616d6f756e7481526020017f3a2065787065637465642061206e6f6e2d7a65726f2076616c75652e00000000815250901515614dbe576040517f08c379a0000000000000000000000000000000000000000000000000000000008152600401614db59190616b04565b60405180910390fd5b50600a600e811115614dcc57fe5b60ff168360ff161415606060405190810160405280603c81526020017f496e76616c6964206f726465722074616b657220617373657420616d6f756e7481526020017f3a2065787065637465642061206e6f6e2d7a65726f2076616c75652e00000000815250901515614e75576040517f08c379a0000000000000000000000000000000000000000000000000000000008152600401614e6c9190616b04565b60405180910390fd5b50614e7e613532565b90508073ffffffffffffffffffffffffffffffffffffffff16846000015173ffffffffffffffffffffffffffffffffffffffff1614606060405190810160405280602681526020017f46756e6374696f6e2063616c6c656420696e20616e20696e76616c696420636f81526020017f6e746578742e0000000000000000000000000000000000000000000000000000815250901515614f53576040517f08c379a0000000000000000000000000000000000000000000000000000000008152600401614f4a9190616b04565b60405180910390fd5b50600073ffffffffffffffffffffffffffffffffffffffff16846060015173ffffffffffffffffffffffffffffffffffffffff1614151561503c573373ffffffffffffffffffffffffffffffffffffffff16846060015173ffffffffffffffffffffffffffffffffffffffff16146040805190810160405280601581526020017f496e76616c696420606d73672e73656e646572602e000000000000000000000081525090151561503a576040517f08c379a00000000000000000000000000000000000000000000000000000000081526004016150319190616b04565b60405180910390fd5b505b50505050565b6000600b600e81111561505157fe5b60ff168360ff161415156150a05781600019168360ff167f7a2f932ac2b230b365b1cf3c91cf7f6bb97d4625011e0cf070ca1e0af0f1b39a60405160405180910390a360009050809050615159565b6001806000846000191660001916815260200190815260200160002060006101000a81548160ff021916908315150217905550600190508160001916846040015173ffffffffffffffffffffffffffffffffffffffff16856000015173ffffffffffffffffffffffffffffffffffffffff167fb1ad640e9e79b6fdbc3c415dc2914ab54e753d2971f51eab910f7aa317a3163a87610140015188610160015160405161514d929190616ab2565b60405180910390a48090505b9392505050565b6000808251116040805190810160405280601e81526020017f4c656e677468206d7573742062652067726561746572207468616e20302e00008152509015156151df576040517f08c379a00000000000000000000000000000000000000000000000000000000081526004016151d69190616b04565b60405180910390fd5b508160018351038151811015156151f257fe5b9060200101517f010000000000000000000000000000000000000000000000000000000000000090047f0100000000000000000000000000000000000000000000000000000000000000029050600182510380835250809050919050565b60006020820183511015606060405190810160405280602b81526020017f4c656e677468206d7573742062652067726561746572207468616e206f72206581526020017f7175616c20746f2033322e0000000000000000000000000000000000000000008152509015156152fa576040517f08c379a00000000000000000000000000000000000000000000000000000000081526004016152f19190616b04565b60405180910390fd5b5060208201915081830151905080905092915050565b6000601482511015606060405190810160405280602b81526020017f4c656e677468206d7573742062652067726561746572207468616e206f72206581526020017f7175616c20746f2032302e0000000000000000000000000000000000000000008152509015156153b8576040517f08c379a00000000000000000000000000000000000000000000000000000000081526004016153af9190616b04565b60405180910390fd5b506153c78260148451036158f0565b9050601482510380835250809050919050565b600080828402905060008414806153fb57508284828115156153f857fe5b04145b151561540357fe5b8091505092915050565b600061541a84848461445a565b15608060405190810160405280604481526020017f4120726f756e64696e67206572726f72206f63637572726564207768656e206381526020017f616c63756c6174696e67207061727469616c207472616e7366657220616d6f7581526020017f6e74732e000000000000000000000000000000000000000000000000000000008152509015156154e1576040517f08c379a00000000000000000000000000000000000000000000000000000000081526004016154d89190616b04565b60405180910390fd5b506154ed8484846144b5565b90509392505050565b600061550e82602001516020015183604001516158b7565b905061552482600001516000015182600161445a565b15608060405190810160405280604f81526020017f4120726f756e64696e67206572726f72206f63637572726564207768656e206381526020017f616c63756c6174696e67207472616e7366657220616d6f756e747320666f722081526020017f6d617463686564206f72646572732e00000000000000000000000000000000008152509015156155eb576040517f08c379a00000000000000000000000000000000000000000000000000000000081526004016155e29190616b04565b60405180910390fd5b50615608826020015160000151836000015160200151600161445a565b15608060405190810160405280604f81526020017f4120726f756e64696e67206572726f72206f63637572726564207768656e206381526020017f616c63756c6174696e67207472616e7366657220616d6f756e747320666f722081526020017f6d617463686564206f72646572732e00000000000000000000000000000000008152509015156156cf576040517f08c379a00000000000000000000000000000000000000000000000000000000081526004016156c69190616b04565b60405180910390fd5b505050565b6000806000808411156158ae5786519250600083116040805190810160405280601e81526020017f4c656e677468206d7573742062652067726561746572207468616e20302e0000815250901515615762576040517f08c379a00000000000000000000000000000000000000000000000000000000081526004016157599190616b04565b60405180910390fd5b50866001840381518110151561577457fe5b9060200101517f010000000000000000000000000000000000000000000000000000000000000090047f0100000000000000000000000000000000000000000000000000000000000000027f010000000000000000000000000000000000000000000000000000000000000090049150600960008360ff1660ff16815260200190815260200160002060009054906101000a900473ffffffffffffffffffffffffffffffffffffffff1690508073ffffffffffffffffffffffffffffffffffffffff1663a85e59e4888888886040518563ffffffff167c010000000000000000000000000000000000000000000000000000000002815260040161587b9493929190616a66565b600060405180830381600087803b15801561589557600080fd5b505af11580156158a9573d6000803e3d6000fd5b505050505b50505050505050565b60008082840190508381101515156158cb57fe5b8091505092915050565b60008082848115156158e357fe5b0490508091505092915050565b60006014820183511015606060405190810160405280602b81526020017f4c656e677468206d7573742062652067726561746572207468616e206f72206581526020017f7175616c20746f2032302e00000000000000000000000000000000000000000081525090151561599a576040517f08c379a00000000000000000000000000000000000000000000000000000000081526004016159919190616b04565b60405180910390fd5b5060148201915073ffffffffffffffffffffffffffffffffffffffff8284015116905080905092915050565b610120604051908101604052806159db615a46565b81526020016159e8615a46565b8152602001600081525090565b606060405190810160405280600060ff16815260200160008019168152602001600081525090565b608060405190810160405280600081526020016000815260200160008152602001600081525090565b608060405190810160405280600081526020016000815260200160008152602001600081525090565b6000615a7b8235616d7e565b905092915050565b600082601f8301121515615a9657600080fd5b8135615aa9615aa482616c40565b616c13565b9150818183526020840193506020810190508360005b83811015615aef5781358601615ad58882615c7c565b845260208401935060208301925050600181019050615abf565b5050505092915050565b600082601f8301121515615b0c57600080fd5b8135615b1f615b1a82616c68565b616c13565b9150818183526020840193506020810190508360005b83811015615b655781358601615b4b8882615d28565b845260208401935060208301925050600181019050615b35565b5050505092915050565b600082601f8301121515615b8257600080fd5b8135615b95615b9082616c90565b616c13565b91508181835260208401935060208101905083856020840282011115615bba57600080fd5b60005b83811015615bea5781615bd08882615fc4565b845260208401935060208301925050600181019050615bbd565b5050505092915050565b6000615c008235616d9e565b905092915050565b6000615c148251616d9e565b905092915050565b6000615c288235616daa565b905092915050565b60008083601f8401121515615c4457600080fd5b8235905067ffffffffffffffff811115615c5d57600080fd5b602083019150836001820283011115615c7557600080fd5b9250929050565b600082601f8301121515615c8f57600080fd5b8135615ca2615c9d82616cb8565b616c13565b91508082526020830160208301858383011115615cbe57600080fd5b615cc9838284616ddd565b50505092915050565b600082601f8301121515615ce557600080fd5b8135615cf8615cf382616ce4565b616c13565b91508082526020830160208301858383011115615d1457600080fd5b615d1f838284616ddd565b50505092915050565b60006101808284031215615d3b57600080fd5b615d46610180616c13565b90506000615d5684828501615a6f565b6000830152506020615d6a84828501615a6f565b6020830152506040615d7e84828501615a6f565b6040830152506060615d9284828501615a6f565b6060830152506080615da684828501615fc4565b60808301525060a0615dba84828501615fc4565b60a08301525060c0615dce84828501615fc4565b60c08301525060e0615de284828501615fc4565b60e083015250610100615df784828501615fc4565b61010083015250610120615e0d84828501615fc4565b6101208301525061014082013567ffffffffffffffff811115615e2f57600080fd5b615e3b84828501615c7c565b6101408301525061016082013567ffffffffffffffff811115615e5d57600080fd5b615e6984828501615c7c565b6101608301525092915050565b60006101808284031215615e8957600080fd5b615e94610180616c13565b90506000615ea484828501615a6f565b6000830152506020615eb884828501615a6f565b6020830152506040615ecc84828501615a6f565b6040830152506060615ee084828501615a6f565b6060830152506080615ef484828501615fc4565b60808301525060a0615f0884828501615fc4565b60a08301525060c0615f1c84828501615fc4565b60c08301525060e0615f3084828501615fc4565b60e083015250610100615f4584828501615fc4565b61010083015250610120615f5b84828501615fc4565b6101208301525061014082013567ffffffffffffffff811115615f7d57600080fd5b615f8984828501615c7c565b6101408301525061016082013567ffffffffffffffff811115615fab57600080fd5b615fb784828501615c7c565b6101608301525092915050565b6000615fd08235616db4565b905092915050565b6000615fe48235616dbe565b905092915050565b6000615ff88251616dbe565b905092915050565b60006020828403121561601257600080fd5b600061602084828501615a6f565b91505092915050565b6000806040838503121561603c57600080fd5b600061604a85828601615a6f565b925050602061605b85828601615a6f565b9150509250929050565b6000806040838503121561607857600080fd5b600061608685828601615a6f565b925050602061609785828601615bf4565b9150509250929050565b6000602082840312156160b357600080fd5b600082013567ffffffffffffffff8111156160cd57600080fd5b6160d984828501615af9565b91505092915050565b6000806000606084860312156160f757600080fd5b600084013567ffffffffffffffff81111561611157600080fd5b61611d86828701615af9565b935050602084013567ffffffffffffffff81111561613a57600080fd5b61614686828701615b6f565b925050604084013567ffffffffffffffff81111561616357600080fd5b61616f86828701615a83565b9150509250925092565b60008060006060848603121561618e57600080fd5b600084013567ffffffffffffffff8111156161a857600080fd5b6161b486828701615af9565b93505060206161c586828701615fc4565b925050604084013567ffffffffffffffff8111156161e257600080fd5b6161ee86828701615a83565b9150509250925092565b60006020828403121561620a57600080fd5b600061621884828501615c08565b91505092915050565b60006020828403121561623357600080fd5b600061624184828501615c1c565b91505092915050565b6000806040838503121561625d57600080fd5b600061626b85828601615c1c565b925050602061627c85828601615a6f565b9150509250929050565b6000806000806060858703121561629c57600080fd5b60006162aa87828801615c1c565b94505060206162bb87828801615a6f565b935050604085013567ffffffffffffffff8111156162d857600080fd5b6162e487828801615c30565b925092505092959194509250565b60006020828403121561630457600080fd5b600082013567ffffffffffffffff81111561631e57600080fd5b61632a84828501615e76565b91505092915050565b6000806000806080858703121561634957600080fd5b600085013567ffffffffffffffff81111561636357600080fd5b61636f87828801615e76565b945050602085013567ffffffffffffffff81111561638c57600080fd5b61639887828801615e76565b935050604085013567ffffffffffffffff8111156163b557600080fd5b6163c187828801615cd2565b925050606085013567ffffffffffffffff8111156163de57600080fd5b6163ea87828801615cd2565b91505092959194509250565b60008060006060848603121561640b57600080fd5b600084013567ffffffffffffffff81111561642557600080fd5b61643186828701615e76565b935050602061644286828701615fc4565b925050604084013567ffffffffffffffff81111561645f57600080fd5b61646b86828701615cd2565b9150509250925092565b6000806000806080858703121561648b57600080fd5b600085013567ffffffffffffffff8111156164a557600080fd5b6164b187828801615e76565b94505060206164c287828801615fd8565b93505060406164d387828801615fc4565b92505060606164e487828801615fc4565b91505092959194509250565b60006020828403121561650257600080fd5b600061651084828501615fc4565b91505092915050565b6000806000806000806080878903121561653257600080fd5b600061654089828a01615fc4565b965050602061655189828a01615a6f565b955050604087013567ffffffffffffffff81111561656e57600080fd5b61657a89828a01615c30565b9450945050606087013567ffffffffffffffff81111561659957600080fd5b6165a589828a01615c30565b92509250509295509295509295565b6000602082840312156165c657600080fd5b60006165d484828501615fd8565b91505092915050565b6000602082840312156165ef57600080fd5b60006165fd84828501615fec565b91505092915050565b60008060006060848603121561661b57600080fd5b600061662986828701615fd8565b935050602061663a86828701615a6f565b925050604061664b86828701615a6f565b9150509250925092565b61665e81616d31565b82525050565b61666d81616d51565b82525050565b61667c81616d5d565b82525050565b600061668d82616d1b565b8084526166a1816020860160208601616dec565b6166aa81616e1f565b602085010191505092915050565b60006166c382616d10565b8084526166d7816020860160208601616dec565b6166e081616e1f565b602085010191505092915050565b6166f781616dcb565b82525050565b600061670882616d26565b80845261671c816020860160208601616dec565b61672581616e1f565b602085010191505092915050565b6000603382527f4f6e6c7920636f6e7472616374206f776e657220697320616c6c6f776564207460208301527f6f2063616c6c2074686973206d6574686f642e000000000000000000000000006040830152606082019050919050565b6080820160008201516167a660008501826168c0565b5060208201516167b960208501826168c0565b5060408201516167cc60408501826168c0565b5060608201516167df60608501826168c0565b50505050565b6080820160008201516167fb60008501826168c0565b50602082015161680e60208501826168c0565b50604082015161682160408501826168c0565b50606082015161683460608501826168c0565b50505050565b6101208201600082015161685160008501826167e5565b50602082015161686460808501826167e5565b5060408201516168786101008501826168c0565b50505050565b60608201600082015161689460008501826168cf565b5060208201516168a76020850182616673565b5060408201516168ba60408501826168c0565b50505050565b6168c981616d67565b82525050565b6168d881616d71565b82525050565b60006020820190506168f36000830184616655565b92915050565b600060e08201905061690e600083018a616655565b61691b60208301896168c0565b61692860408301886168c0565b61693560608301876168c0565b61694260808301866168c0565b81810360a083015261695481856166b8565b905081810360c083015261696881846166b8565b905098975050505050505050565b600060208201905061698b6000830184616664565b92915050565b60006060820190506169a66000830186616673565b6169b36020830185616655565b81810360408301526169c58184616682565b9050949350505050565b60006040820190506169e46000830185616673565b81810360208301526169f68184616682565b90509392505050565b6000608082019050616a146000830187616673565b616a2160208301866168cf565b616a2e6040830185616673565b616a3b6060830184616673565b95945050505050565b60006020820190508181036000830152616a5e8184616682565b905092915050565b60006080820190508181036000830152616a808187616682565b9050616a8f6020830186616655565b616a9c6040830185616655565b616aa960608301846168c0565b95945050505050565b60006040820190508181036000830152616acc81856166b8565b90508181036020830152616ae081846166b8565b90509392505050565b6000602082019050616afe60008301846166ee565b92915050565b60006020820190508181036000830152616b1e81846166fd565b905092915050565b60006020820190508181036000830152616b3f81616733565b9050919050565b6000608082019050616b5b6000830184616790565b92915050565b600061012082019050616b77600083018461683a565b92915050565b6000606082019050616b92600083018461687e565b92915050565b6000602082019050616bad60008301846168c0565b92915050565b6000606082019050616bc860008301866168cf565b616bd56020830185616655565b616be26040830184616655565b949350505050565b600060a082019050616bff60008301856168cf565b616c0c6020830184616790565b9392505050565b6000604051905081810181811067ffffffffffffffff82111715616c3657600080fd5b8060405250919050565b600067ffffffffffffffff821115616c5757600080fd5b602082029050602081019050919050565b600067ffffffffffffffff821115616c7f57600080fd5b602082029050602081019050919050565b600067ffffffffffffffff821115616ca757600080fd5b602082029050602081019050919050565b600067ffffffffffffffff821115616ccf57600080fd5b601f19601f8301169050602081019050919050565b600067ffffffffffffffff821115616cfb57600080fd5b601f19601f8301169050602081019050919050565b600081519050919050565b600081519050919050565b600081519050919050565b600073ffffffffffffffffffffffffffffffffffffffff82169050919050565b60008115159050919050565b6000819050919050565b6000819050919050565b600060ff82169050919050565b600073ffffffffffffffffffffffffffffffffffffffff82169050919050565b60008115159050919050565b6000819050919050565b6000819050919050565b600060ff82169050919050565b6000616dd682616d31565b9050919050565b82818337600083830152505050565b60005b83811015616e0a578082015181840152602081019050616def565b83811115616e19576000848401525b50505050565b6000601f19601f83011690509190505600a265627a7a7230582022bc8130dbb7c14db4ecbd2329dd03bc14d95b306da2e2bff192c5040c2072276c6578706572696d656e74616cf50037",
				"opcodes": "PUSH1 0x80 PUSH1 0x40 MSTORE CALLVALUE DUP1 ISZERO PUSH3 0x11 JUMPI PUSH1 0x0 DUP1 REVERT JUMPDEST POP PUSH1 0x40 MLOAD PUSH3 0x70F7 CODESIZE SUB DUP1 PUSH3 0x70F7 DUP4 CODECOPY DUP2 ADD DUP1 PUSH1 0x40 MSTORE PUSH3 0x37 SWAP2 SWAP1 DUP2 ADD SWAP1 PUSH3 0x1A7 JUMP JUMPDEST DUP1 CALLER PUSH1 0x3 PUSH1 0x0 PUSH2 0x100 EXP DUP2 SLOAD DUP2 PUSH20 0xFFFFFFFFFFFFFFFFFFFFFFFFFFFFFFFFFFFFFFFF MUL NOT AND SWAP1 DUP4 PUSH20 0xFFFFFFFFFFFFFFFFFFFFFFFFFFFFFFFFFFFFFFFF AND MUL OR SWAP1 SSTORE POP DUP1 PUSH1 0x4 SWAP1 DUP1 MLOAD SWAP1 PUSH1 0x20 ADD SWAP1 PUSH3 0x91 SWAP3 SWAP2 SWAP1 PUSH3 0x9A JUMP JUMPDEST POP POP POP PUSH3 0x27D JUMP JUMPDEST DUP3 DUP1 SLOAD PUSH1 0x1 DUP2 PUSH1 0x1 AND ISZERO PUSH2 0x100 MUL SUB AND PUSH1 0x2 SWAP1 DIV SWAP1 PUSH1 0x0 MSTORE PUSH1 0x20 PUSH1 0x0 KECCAK256 SWAP1 PUSH1 0x1F ADD PUSH1 0x20 SWAP1 DIV DUP2 ADD SWAP3 DUP3 PUSH1 0x1F LT PUSH3 0xDD JUMPI DUP1 MLOAD PUSH1 0xFF NOT AND DUP4 DUP1 ADD OR DUP6 SSTORE PUSH3 0x10E JUMP JUMPDEST DUP3 DUP1 ADD PUSH1 0x1 ADD DUP6 SSTORE DUP3 ISZERO PUSH3 0x10E JUMPI SWAP2 DUP3 ADD JUMPDEST DUP3 DUP2 GT ISZERO PUSH3 0x10D JUMPI DUP3 MLOAD DUP3 SSTORE SWAP2 PUSH1 0x20 ADD SWAP2 SWAP1 PUSH1 0x1 ADD SWAP1 PUSH3 0xF0 JUMP JUMPDEST JUMPDEST POP SWAP1 POP PUSH3 0x11D SWAP2 SWAP1 PUSH3 0x121 JUMP JUMPDEST POP SWAP1 JUMP JUMPDEST PUSH3 0x146 SWAP2 SWAP1 JUMPDEST DUP1 DUP3 GT ISZERO PUSH3 0x142 JUMPI PUSH1 0x0 DUP2 PUSH1 0x0 SWAP1 SSTORE POP PUSH1 0x1 ADD PUSH3 0x128 JUMP JUMPDEST POP SWAP1 JUMP JUMPDEST SWAP1 JUMP JUMPDEST PUSH1 0x0 DUP3 PUSH1 0x1F DUP4 ADD SLT ISZERO ISZERO PUSH3 0x15D JUMPI PUSH1 0x0 DUP1 REVERT JUMPDEST DUP2 MLOAD PUSH3 0x174 PUSH3 0x16E DUP3 PUSH3 0x21A JUMP JUMPDEST PUSH3 0x1EC JUMP JUMPDEST SWAP2 POP DUP1 DUP3 MSTORE PUSH1 0x20 DUP4 ADD PUSH1 0x20 DUP4 ADD DUP6 DUP4 DUP4 ADD GT ISZERO PUSH3 0x191 JUMPI PUSH1 0x0 DUP1 REVERT JUMPDEST PUSH3 0x19E DUP4 DUP3 DUP5 PUSH3 0x247 JUMP JUMPDEST POP POP POP SWAP3 SWAP2 POP POP JUMP JUMPDEST PUSH1 0x0 PUSH1 0x20 DUP3 DUP5 SUB SLT ISZERO PUSH3 0x1BA JUMPI PUSH1 0x0 DUP1 REVERT JUMPDEST PUSH1 0x0 DUP3 ADD MLOAD PUSH8 0xFFFFFFFFFFFFFFFF DUP2 GT ISZERO PUSH3 0x1D5 JUMPI PUSH1 0x0 DUP1 REVERT JUMPDEST PUSH3 0x1E3 DUP5 DUP3 DUP6 ADD PUSH3 0x149 JUMP JUMPDEST SWAP2 POP POP SWAP3 SWAP2 POP POP JUMP JUMPDEST PUSH1 0x0 PUSH1 0x40 MLOAD SWAP1 POP DUP2 DUP2 ADD DUP2 DUP2 LT PUSH8 0xFFFFFFFFFFFFFFFF DUP3 GT OR ISZERO PUSH3 0x210 JUMPI PUSH1 0x0 DUP1 REVERT JUMPDEST DUP1 PUSH1 0x40 MSTORE POP SWAP2 SWAP1 POP JUMP JUMPDEST PUSH1 0x0 PUSH8 0xFFFFFFFFFFFFFFFF DUP3 GT ISZERO PUSH3 0x232 JUMPI PUSH1 0x0 DUP1 REVERT JUMPDEST PUSH1 0x1F NOT PUSH1 0x1F DUP4 ADD AND SWAP1 POP PUSH1 0x20 DUP2 ADD SWAP1 POP SWAP2 SWAP1 POP JUMP JUMPDEST PUSH1 0x0 JUMPDEST DUP4 DUP2 LT ISZERO PUSH3 0x267 JUMPI DUP1 DUP3 ADD MLOAD DUP2 DUP5 ADD MSTORE PUSH1 0x20 DUP2 ADD SWAP1 POP PUSH3 0x24A JUMP JUMPDEST DUP4 DUP2 GT ISZERO PUSH3 0x277 JUMPI PUSH1 0x0 DUP5 DUP5 ADD MSTORE JUMPDEST POP POP POP POP JUMP JUMPDEST PUSH2 0x6E6A DUP1 PUSH3 0x28D PUSH1 0x0 CODECOPY PUSH1 0x0 RETURN STOP PUSH1 0x80 PUSH1 0x40 MSTORE PUSH1 0x4 CALLDATASIZE LT PUSH2 0x1A1 JUMPI PUSH1 0x0 CALLDATALOAD PUSH29 0x100000000000000000000000000000000000000000000000000000000 SWAP1 DIV PUSH4 0xFFFFFFFF AND DUP1 PUSH4 0x288CDC91 EQ PUSH2 0x1A6 JUMPI DUP1 PUSH4 0x297BB70B EQ PUSH2 0x1E3 JUMPI DUP1 PUSH4 0x2AC12622 EQ PUSH2 0x20C JUMPI DUP1 PUSH4 0x3683EF8E EQ PUSH2 0x249 JUMPI DUP1 PUSH4 0x38077164 EQ PUSH2 0x272 JUMPI DUP1 PUSH4 0x3C28D861 EQ PUSH2 0x2AF JUMPI DUP1 PUSH4 0x3E228BAE EQ PUSH2 0x2EC JUMPI DUP1 PUSH4 0x4AC14782 EQ PUSH2 0x329 JUMPI DUP1 PUSH4 0x4D0AE546 EQ PUSH2 0x352 JUMPI DUP1 PUSH4 0x4F9559B1 EQ PUSH2 0x37B JUMPI DUP1 PUSH4 0x50DDE190 EQ PUSH2 0x3A4 JUMPI DUP1 PUSH4 0x5C78D0C7 EQ PUSH2 0x3CD JUMPI DUP1 PUSH4 0x63589905 EQ PUSH2 0x3F6 JUMPI DUP1 PUSH4 0x642F2EAF EQ PUSH2 0x421 JUMPI DUP1 PUSH4 0x64A3BC15 EQ PUSH2 0x45E JUMPI DUP1 PUSH4 0x6F3627F8 EQ PUSH2 0x49B JUMPI DUP1 PUSH4 0x704ED01C EQ PUSH2 0x4D8 JUMPI DUP1 PUSH4 0x77FCCE68 EQ PUSH2 0x516 JUMPI DUP1 PUSH4 0x7B8E3514 EQ PUSH2 0x53F JUMPI DUP1 PUSH4 0x7E1D9808 EQ PUSH2 0x57C JUMPI DUP1 PUSH4 0x82C174D0 EQ PUSH2 0x5B9 JUMPI DUP1 PUSH4 0x8DA5CB5B EQ PUSH2 0x5F6 JUMPI DUP1 PUSH4 0x92C1421E EQ PUSH2 0x621 JUMPI DUP1 PUSH4 0xA3E20380 EQ PUSH2 0x65E JUMPI DUP1 PUSH4 0xB4BE83D5 EQ PUSH2 0x69B JUMPI DUP1 PUSH4 0xBFC8BFCE EQ PUSH2 0x6D8 JUMPI DUP1 PUSH4 0xC75E0A81 EQ PUSH2 0x701 JUMPI DUP1 PUSH4 0xD46B02C3 EQ PUSH2 0x73E JUMPI DUP1 PUSH4 0xDD1C7D18 EQ PUSH2 0x77B JUMPI DUP1 PUSH4 0xE5FA431B EQ PUSH2 0x7B8 JUMPI DUP1 PUSH4 0xEEA086BA EQ PUSH2 0x7F5 JUMPI DUP1 PUSH4 0xF2FDE38B EQ PUSH2 0x820 JUMPI DUP1 PUSH4 0xFFA1AD74 EQ PUSH2 0x849 JUMPI JUMPDEST PUSH1 0x0 DUP1 REVERT JUMPDEST CALLVALUE DUP1 ISZERO PUSH2 0x1B2 JUMPI PUSH1 0x0 DUP1 REVERT JUMPDEST POP PUSH2 0x1CD PUSH1 0x4 DUP1 CALLDATASIZE SUB PUSH2 0x1C8 SWAP2 SWAP1 DUP2 ADD SWAP1 PUSH2 0x6221 JUMP JUMPDEST PUSH2 0x874 JUMP JUMPDEST PUSH1 0x40 MLOAD PUSH2 0x1DA SWAP2 SWAP1 PUSH2 0x6B98 JUMP JUMPDEST PUSH1 0x40 MLOAD DUP1 SWAP2 SUB SWAP1 RETURN JUMPDEST CALLVALUE DUP1 ISZERO PUSH2 0x1EF JUMPI PUSH1 0x0 DUP1 REVERT JUMPDEST POP PUSH2 0x20A PUSH1 0x4 DUP1 CALLDATASIZE SUB PUSH2 0x205 SWAP2 SWAP1 DUP2 ADD SWAP1 PUSH2 0x60E2 JUMP JUMPDEST PUSH2 0x88C JUMP JUMPDEST STOP JUMPDEST CALLVALUE DUP1 ISZERO PUSH2 0x218 JUMPI PUSH1 0x0 DUP1 REVERT JUMPDEST POP PUSH2 0x233 PUSH1 0x4 DUP1 CALLDATASIZE SUB PUSH2 0x22E SWAP2 SWAP1 DUP2 ADD SWAP1 PUSH2 0x6221 JUMP JUMPDEST PUSH2 0x8FF JUMP JUMPDEST PUSH1 0x40 MLOAD PUSH2 0x240 SWAP2 SWAP1 PUSH2 0x6976 JUMP JUMPDEST PUSH1 0x40 MLOAD DUP1 SWAP2 SUB SWAP1 RETURN JUMPDEST CALLVALUE DUP1 ISZERO PUSH2 0x255 JUMPI PUSH1 0x0 DUP1 REVERT JUMPDEST POP PUSH2 0x270 PUSH1 0x4 DUP1 CALLDATASIZE SUB PUSH2 0x26B SWAP2 SWAP1 DUP2 ADD SWAP1 PUSH2 0x6286 JUMP JUMPDEST PUSH2 0x91F JUMP JUMPDEST STOP JUMPDEST CALLVALUE DUP1 ISZERO PUSH2 0x27E JUMPI PUSH1 0x0 DUP1 REVERT JUMPDEST POP PUSH2 0x299 PUSH1 0x4 DUP1 CALLDATASIZE SUB PUSH2 0x294 SWAP2 SWAP1 DUP2 ADD SWAP1 PUSH2 0x65B4 JUMP JUMPDEST PUSH2 0xA4D JUMP JUMPDEST PUSH1 0x40 MLOAD PUSH2 0x2A6 SWAP2 SWAP1 PUSH2 0x6AE9 JUMP JUMPDEST PUSH1 0x40 MLOAD DUP1 SWAP2 SUB SWAP1 RETURN JUMPDEST CALLVALUE DUP1 ISZERO PUSH2 0x2BB JUMPI PUSH1 0x0 DUP1 REVERT JUMPDEST POP PUSH2 0x2D6 PUSH1 0x4 DUP1 CALLDATASIZE SUB PUSH2 0x2D1 SWAP2 SWAP1 DUP2 ADD SWAP1 PUSH2 0x6333 JUMP JUMPDEST PUSH2 0xA80 JUMP JUMPDEST PUSH1 0x40 MLOAD PUSH2 0x2E3 SWAP2 SWAP1 PUSH2 0x6B61 JUMP JUMPDEST PUSH1 0x40 MLOAD DUP1 SWAP2 SUB SWAP1 RETURN JUMPDEST CALLVALUE DUP1 ISZERO PUSH2 0x2F8 JUMPI PUSH1 0x0 DUP1 REVERT JUMPDEST POP PUSH2 0x313 PUSH1 0x4 DUP1 CALLDATASIZE SUB PUSH2 0x30E SWAP2 SWAP1 DUP2 ADD SWAP1 PUSH2 0x63F6 JUMP JUMPDEST PUSH2 0xB76 JUMP JUMPDEST PUSH1 0x40 MLOAD PUSH2 0x320 SWAP2 SWAP1 PUSH2 0x6B46 JUMP JUMPDEST PUSH1 0x40 MLOAD DUP1 SWAP2 SUB SWAP1 RETURN JUMPDEST CALLVALUE DUP1 ISZERO PUSH2 0x335 JUMPI PUSH1 0x0 DUP1 REVERT JUMPDEST POP PUSH2 0x350 PUSH1 0x4 DUP1 CALLDATASIZE SUB PUSH2 0x34B SWAP2 SWAP1 DUP2 ADD SWAP1 PUSH2 0x60A1 JUMP JUMPDEST PUSH2 0xDB7 JUMP JUMPDEST STOP JUMPDEST CALLVALUE DUP1 ISZERO PUSH2 0x35E JUMPI PUSH1 0x0 DUP1 REVERT JUMPDEST POP PUSH2 0x379 PUSH1 0x4 DUP1 CALLDATASIZE SUB PUSH2 0x374 SWAP2 SWAP1 DUP2 ADD SWAP1 PUSH2 0x60E2 JUMP JUMPDEST PUSH2 0xDF8 JUMP JUMPDEST STOP JUMPDEST CALLVALUE DUP1 ISZERO PUSH2 0x387 JUMPI PUSH1 0x0 DUP1 REVERT JUMPDEST POP PUSH2 0x3A2 PUSH1 0x4 DUP1 CALLDATASIZE SUB PUSH2 0x39D SWAP2 SWAP1 DUP2 ADD SWAP1 PUSH2 0x64F0 JUMP JUMPDEST PUSH2 0xE6B JUMP JUMPDEST STOP JUMPDEST CALLVALUE DUP1 ISZERO PUSH2 0x3B0 JUMPI PUSH1 0x0 DUP1 REVERT JUMPDEST POP PUSH2 0x3CB PUSH1 0x4 DUP1 CALLDATASIZE SUB PUSH2 0x3C6 SWAP2 SWAP1 DUP2 ADD SWAP1 PUSH2 0x60E2 JUMP JUMPDEST PUSH2 0x1012 JUMP JUMPDEST STOP JUMPDEST CALLVALUE DUP1 ISZERO PUSH2 0x3D9 JUMPI PUSH1 0x0 DUP1 REVERT JUMPDEST POP PUSH2 0x3F4 PUSH1 0x4 DUP1 CALLDATASIZE SUB PUSH2 0x3EF SWAP2 SWAP1 DUP2 ADD SWAP1 PUSH2 0x6606 JUMP JUMPDEST PUSH2 0x1085 JUMP JUMPDEST STOP JUMPDEST CALLVALUE DUP1 ISZERO PUSH2 0x402 JUMPI PUSH1 0x0 DUP1 REVERT JUMPDEST POP PUSH2 0x40B PUSH2 0x143F JUMP JUMPDEST PUSH1 0x40 MLOAD PUSH2 0x418 SWAP2 SWAP1 PUSH2 0x6A44 JUMP JUMPDEST PUSH1 0x40 MLOAD DUP1 SWAP2 SUB SWAP1 RETURN JUMPDEST CALLVALUE DUP1 ISZERO PUSH2 0x42D JUMPI PUSH1 0x0 DUP1 REVERT JUMPDEST POP PUSH2 0x448 PUSH1 0x4 DUP1 CALLDATASIZE SUB PUSH2 0x443 SWAP2 SWAP1 DUP2 ADD SWAP1 PUSH2 0x6221 JUMP JUMPDEST PUSH2 0x14E1 JUMP JUMPDEST PUSH1 0x40 MLOAD PUSH2 0x455 SWAP2 SWAP1 PUSH2 0x6976 JUMP JUMPDEST PUSH1 0x40 MLOAD DUP1 SWAP2 SUB SWAP1 RETURN JUMPDEST CALLVALUE DUP1 ISZERO PUSH2 0x46A JUMPI PUSH1 0x0 DUP1 REVERT JUMPDEST POP PUSH2 0x485 PUSH1 0x4 DUP1 CALLDATASIZE SUB PUSH2 0x480 SWAP2 SWAP1 DUP2 ADD SWAP1 PUSH2 0x63F6 JUMP JUMPDEST PUSH2 0x1501 JUMP JUMPDEST PUSH1 0x40 MLOAD PUSH2 0x492 SWAP2 SWAP1 PUSH2 0x6B46 JUMP JUMPDEST PUSH1 0x40 MLOAD DUP1 SWAP2 SUB SWAP1 RETURN JUMPDEST CALLVALUE DUP1 ISZERO PUSH2 0x4A7 JUMPI PUSH1 0x0 DUP1 REVERT JUMPDEST POP PUSH2 0x4C2 PUSH1 0x4 DUP1 CALLDATASIZE SUB PUSH2 0x4BD SWAP2 SWAP1 DUP2 ADD SWAP1 PUSH2 0x6000 JUMP JUMPDEST PUSH2 0x15C8 JUMP JUMPDEST PUSH1 0x40 MLOAD PUSH2 0x4CF SWAP2 SWAP1 PUSH2 0x6B98 JUMP JUMPDEST PUSH1 0x40 MLOAD DUP1 SWAP2 SUB SWAP1 RETURN JUMPDEST CALLVALUE DUP1 ISZERO PUSH2 0x4E4 JUMPI PUSH1 0x0 DUP1 REVERT JUMPDEST POP PUSH2 0x4FF PUSH1 0x4 DUP1 CALLDATASIZE SUB PUSH2 0x4FA SWAP2 SWAP1 DUP2 ADD SWAP1 PUSH2 0x6475 JUMP JUMPDEST PUSH2 0x15E0 JUMP JUMPDEST PUSH1 0x40 MLOAD PUSH2 0x50D SWAP3 SWAP2 SWAP1 PUSH2 0x6BEA JUMP JUMPDEST PUSH1 0x40 MLOAD DUP1 SWAP2 SUB SWAP1 RETURN JUMPDEST CALLVALUE DUP1 ISZERO PUSH2 0x522 JUMPI PUSH1 0x0 DUP1 REVERT JUMPDEST POP PUSH2 0x53D PUSH1 0x4 DUP1 CALLDATASIZE SUB PUSH2 0x538 SWAP2 SWAP1 DUP2 ADD SWAP1 PUSH2 0x6065 JUMP JUMPDEST PUSH2 0x1712 JUMP JUMPDEST STOP JUMPDEST CALLVALUE DUP1 ISZERO PUSH2 0x54B JUMPI PUSH1 0x0 DUP1 REVERT JUMPDEST POP PUSH2 0x566 PUSH1 0x4 DUP1 CALLDATASIZE SUB PUSH2 0x561 SWAP2 SWAP1 DUP2 ADD SWAP1 PUSH2 0x6029 JUMP JUMPDEST PUSH2 0x17B7 JUMP JUMPDEST PUSH1 0x40 MLOAD PUSH2 0x573 SWAP2 SWAP1 PUSH2 0x6976 JUMP JUMPDEST PUSH1 0x40 MLOAD DUP1 SWAP2 SUB SWAP1 RETURN JUMPDEST CALLVALUE DUP1 ISZERO PUSH2 0x588 JUMPI PUSH1 0x0 DUP1 REVERT JUMPDEST POP PUSH2 0x5A3 PUSH1 0x4 DUP1 CALLDATASIZE SUB PUSH2 0x59E SWAP2 SWAP1 DUP2 ADD SWAP1 PUSH2 0x6179 JUMP JUMPDEST PUSH2 0x17E6 JUMP JUMPDEST PUSH1 0x40 MLOAD PUSH2 0x5B0 SWAP2 SWAP1 PUSH2 0x6B46 JUMP JUMPDEST PUSH1 0x40 MLOAD DUP1 SWAP2 SUB SWAP1 RETURN JUMPDEST CALLVALUE DUP1 ISZERO PUSH2 0x5C5 JUMPI PUSH1 0x0 DUP1 REVERT JUMPDEST POP PUSH2 0x5E0 PUSH1 0x4 DUP1 CALLDATASIZE SUB PUSH2 0x5DB SWAP2 SWAP1 DUP2 ADD SWAP1 PUSH2 0x624A JUMP JUMPDEST PUSH2 0x196B JUMP JUMPDEST PUSH1 0x40 MLOAD PUSH2 0x5ED SWAP2 SWAP1 PUSH2 0x6976 JUMP JUMPDEST PUSH1 0x40 MLOAD DUP1 SWAP2 SUB SWAP1 RETURN JUMPDEST CALLVALUE DUP1 ISZERO PUSH2 0x602 JUMPI PUSH1 0x0 DUP1 REVERT JUMPDEST POP PUSH2 0x60B PUSH2 0x199A JUMP JUMPDEST PUSH1 0x40 MLOAD PUSH2 0x618 SWAP2 SWAP1 PUSH2 0x68DE JUMP JUMPDEST PUSH1 0x40 MLOAD DUP1 SWAP2 SUB SWAP1 RETURN JUMPDEST CALLVALUE DUP1 ISZERO PUSH2 0x62D JUMPI PUSH1 0x0 DUP1 REVERT JUMPDEST POP PUSH2 0x648 PUSH1 0x4 DUP1 CALLDATASIZE SUB PUSH2 0x643 SWAP2 SWAP1 DUP2 ADD SWAP1 PUSH2 0x65B4 JUMP JUMPDEST PUSH2 0x19C0 JUMP JUMPDEST PUSH1 0x40 MLOAD PUSH2 0x655 SWAP2 SWAP1 PUSH2 0x68DE JUMP JUMPDEST PUSH1 0x40 MLOAD DUP1 SWAP2 SUB SWAP1 RETURN JUMPDEST CALLVALUE DUP1 ISZERO PUSH2 0x66A JUMPI PUSH1 0x0 DUP1 REVERT JUMPDEST POP PUSH2 0x685 PUSH1 0x4 DUP1 CALLDATASIZE SUB PUSH2 0x680 SWAP2 SWAP1 DUP2 ADD SWAP1 PUSH2 0x6179 JUMP JUMPDEST PUSH2 0x1A08 JUMP JUMPDEST PUSH1 0x40 MLOAD PUSH2 0x692 SWAP2 SWAP1 PUSH2 0x6B46 JUMP JUMPDEST PUSH1 0x40 MLOAD DUP1 SWAP2 SUB SWAP1 RETURN JUMPDEST CALLVALUE DUP1 ISZERO PUSH2 0x6A7 JUMPI PUSH1 0x0 DUP1 REVERT JUMPDEST POP PUSH2 0x6C2 PUSH1 0x4 DUP1 CALLDATASIZE SUB PUSH2 0x6BD SWAP2 SWAP1 DUP2 ADD SWAP1 PUSH2 0x63F6 JUMP JUMPDEST PUSH2 0x1BD3 JUMP JUMPDEST PUSH1 0x40 MLOAD PUSH2 0x6CF SWAP2 SWAP1 PUSH2 0x6B46 JUMP JUMPDEST PUSH1 0x40 MLOAD DUP1 SWAP2 SUB SWAP1 RETURN JUMPDEST CALLVALUE DUP1 ISZERO PUSH2 0x6E4 JUMPI PUSH1 0x0 DUP1 REVERT JUMPDEST POP PUSH2 0x6FF PUSH1 0x4 DUP1 CALLDATASIZE SUB PUSH2 0x6FA SWAP2 SWAP1 DUP2 ADD SWAP1 PUSH2 0x6519 JUMP JUMPDEST PUSH2 0x1CC3 JUMP JUMPDEST STOP JUMPDEST CALLVALUE DUP1 ISZERO PUSH2 0x70D JUMPI PUSH1 0x0 DUP1 REVERT JUMPDEST POP PUSH2 0x728 PUSH1 0x4 DUP1 CALLDATASIZE SUB PUSH2 0x723 SWAP2 SWAP1 DUP2 ADD SWAP1 PUSH2 0x62F2 JUMP JUMPDEST PUSH2 0x2191 JUMP JUMPDEST PUSH1 0x40 MLOAD PUSH2 0x735 SWAP2 SWAP1 PUSH2 0x6B7D JUMP JUMPDEST PUSH1 0x40 MLOAD DUP1 SWAP2 SUB SWAP1 RETURN JUMPDEST CALLVALUE DUP1 ISZERO PUSH2 0x74A JUMPI PUSH1 0x0 DUP1 REVERT JUMPDEST POP PUSH2 0x765 PUSH1 0x4 DUP1 CALLDATASIZE SUB PUSH2 0x760 SWAP2 SWAP1 DUP2 ADD SWAP1 PUSH2 0x62F2 JUMP JUMPDEST PUSH2 0x23A1 JUMP JUMPDEST PUSH1 0x40 MLOAD PUSH2 0x772 SWAP2 SWAP1 PUSH2 0x6976 JUMP JUMPDEST PUSH1 0x40 MLOAD DUP1 SWAP2 SUB SWAP1 RETURN JUMPDEST CALLVALUE DUP1 ISZERO PUSH2 0x787 JUMPI PUSH1 0x0 DUP1 REVERT JUMPDEST POP PUSH2 0x7A2 PUSH1 0x4 DUP1 CALLDATASIZE SUB PUSH2 0x79D SWAP2 SWAP1 DUP2 ADD SWAP1 PUSH2 0x6179 JUMP JUMPDEST PUSH2 0x23E4 JUMP JUMPDEST PUSH1 0x40 MLOAD PUSH2 0x7AF SWAP2 SWAP1 PUSH2 0x6B46 JUMP JUMPDEST PUSH1 0x40 MLOAD DUP1 SWAP2 SUB SWAP1 RETURN JUMPDEST CALLVALUE DUP1 ISZERO PUSH2 0x7C4 JUMPI PUSH1 0x0 DUP1 REVERT JUMPDEST POP PUSH2 0x7DF PUSH1 0x4 DUP1 CALLDATASIZE SUB PUSH2 0x7DA SWAP2 SWAP1 DUP2 ADD SWAP1 PUSH2 0x6179 JUMP JUMPDEST PUSH2 0x2569 JUMP JUMPDEST PUSH1 0x40 MLOAD PUSH2 0x7EC SWAP2 SWAP1 PUSH2 0x6B46 JUMP JUMPDEST PUSH1 0x40 MLOAD DUP1 SWAP2 SUB SWAP1 RETURN JUMPDEST CALLVALUE DUP1 ISZERO PUSH2 0x801 JUMPI PUSH1 0x0 DUP1 REVERT JUMPDEST POP PUSH2 0x80A PUSH2 0x2734 JUMP JUMPDEST PUSH1 0x40 MLOAD PUSH2 0x817 SWAP2 SWAP1 PUSH2 0x68DE JUMP JUMPDEST PUSH1 0x40 MLOAD DUP1 SWAP2 SUB SWAP1 RETURN JUMPDEST CALLVALUE DUP1 ISZERO PUSH2 0x82C JUMPI PUSH1 0x0 DUP1 REVERT JUMPDEST POP PUSH2 0x847 PUSH1 0x4 DUP1 CALLDATASIZE SUB PUSH2 0x842 SWAP2 SWAP1 DUP2 ADD SWAP1 PUSH2 0x6000 JUMP JUMPDEST PUSH2 0x275A JUMP JUMPDEST STOP JUMPDEST CALLVALUE DUP1 ISZERO PUSH2 0x855 JUMPI PUSH1 0x0 DUP1 REVERT JUMPDEST POP PUSH2 0x85E PUSH2 0x2867 JUMP JUMPDEST PUSH1 0x40 MLOAD PUSH2 0x86B SWAP2 SWAP1 PUSH2 0x6B04 JUMP JUMPDEST PUSH1 0x40 MLOAD DUP1 SWAP2 SUB SWAP1 RETURN JUMPDEST PUSH1 0x0 PUSH1 0x20 MSTORE DUP1 PUSH1 0x0 MSTORE PUSH1 0x40 PUSH1 0x0 KECCAK256 PUSH1 0x0 SWAP2 POP SWAP1 POP SLOAD DUP2 JUMP JUMPDEST PUSH1 0x0 DUP1 SWAP1 POP JUMPDEST DUP4 MLOAD DUP2 LT ISZERO PUSH2 0x8F9 JUMPI PUSH2 0x8EB DUP5 DUP3 DUP2 MLOAD DUP2 LT ISZERO ISZERO PUSH2 0x8AC JUMPI INVALID JUMPDEST SWAP1 PUSH1 0x20 ADD SWAP1 PUSH1 0x20 MUL ADD MLOAD DUP5 DUP4 DUP2 MLOAD DUP2 LT ISZERO ISZERO PUSH2 0x8C4 JUMPI INVALID JUMPDEST SWAP1 PUSH1 0x20 ADD SWAP1 PUSH1 0x20 MUL ADD MLOAD DUP5 DUP5 DUP2 MLOAD DUP2 LT ISZERO ISZERO PUSH2 0x8DC JUMPI INVALID JUMPDEST SWAP1 PUSH1 0x20 ADD SWAP1 PUSH1 0x20 MUL ADD MLOAD PUSH2 0x1BD3 JUMP JUMPDEST POP DUP1 DUP1 PUSH1 0x1 ADD SWAP2 POP POP PUSH2 0x892 JUMP JUMPDEST POP POP POP POP JUMP JUMPDEST PUSH1 0x1 PUSH1 0x20 MSTORE DUP1 PUSH1 0x0 MSTORE PUSH1 0x40 PUSH1 0x0 KECCAK256 PUSH1 0x0 SWAP2 POP SLOAD SWAP1 PUSH2 0x100 EXP SWAP1 DIV PUSH1 0xFF AND DUP2 JUMP JUMPDEST PUSH2 0x95C DUP5 DUP5 DUP5 DUP5 DUP1 DUP1 PUSH1 0x1F ADD PUSH1 0x20 DUP1 SWAP2 DIV MUL PUSH1 0x20 ADD PUSH1 0x40 MLOAD SWAP1 DUP2 ADD PUSH1 0x40 MSTORE DUP1 SWAP4 SWAP3 SWAP2 SWAP1 DUP2 DUP2 MSTORE PUSH1 0x20 ADD DUP4 DUP4 DUP1 DUP3 DUP5 CALLDATACOPY DUP3 ADD SWAP2 POP POP POP POP POP POP PUSH2 0x28A0 JUMP JUMPDEST PUSH1 0x40 DUP1 MLOAD SWAP1 DUP2 ADD PUSH1 0x40 MSTORE DUP1 PUSH1 0x1C DUP2 MSTORE PUSH1 0x20 ADD PUSH32 0x5369676E61747572652076616C69646174696F6E206661696C65642E00000000 DUP2 MSTORE POP SWAP1 ISZERO ISZERO PUSH2 0x9D5 JUMPI PUSH1 0x40 MLOAD PUSH32 0x8C379A000000000000000000000000000000000000000000000000000000000 DUP2 MSTORE PUSH1 0x4 ADD PUSH2 0x9CC SWAP2 SWAP1 PUSH2 0x6B04 JUMP JUMPDEST PUSH1 0x40 MLOAD DUP1 SWAP2 SUB SWAP1 REVERT JUMPDEST POP PUSH1 0x1 PUSH1 0x5 PUSH1 0x0 DUP7 PUSH1 0x0 NOT AND PUSH1 0x0 NOT AND DUP2 MSTORE PUSH1 0x20 ADD SWAP1 DUP2 MSTORE PUSH1 0x20 ADD PUSH1 0x0 KECCAK256 PUSH1 0x0 DUP6 PUSH20 0xFFFFFFFFFFFFFFFFFFFFFFFFFFFFFFFFFFFFFFFF AND PUSH20 0xFFFFFFFFFFFFFFFFFFFFFFFFFFFFFFFFFFFFFFFF AND DUP2 MSTORE PUSH1 0x20 ADD SWAP1 DUP2 MSTORE PUSH1 0x20 ADD PUSH1 0x0 KECCAK256 PUSH1 0x0 PUSH2 0x100 EXP DUP2 SLOAD DUP2 PUSH1 0xFF MUL NOT AND SWAP1 DUP4 ISZERO ISZERO MUL OR SWAP1 SSTORE POP POP POP POP POP JUMP JUMPDEST PUSH1 0x9 PUSH1 0x20 MSTORE DUP1 PUSH1 0x0 MSTORE PUSH1 0x40 PUSH1 0x0 KECCAK256 PUSH1 0x0 SWAP2 POP SLOAD SWAP1 PUSH2 0x100 EXP SWAP1 DIV PUSH20 0xFFFFFFFFFFFFFFFFFFFFFFFFFFFFFFFFFFFFFFFF AND DUP2 JUMP JUMPDEST PUSH2 0xA88 PUSH2 0x59C6 JUMP JUMPDEST PUSH2 0xA90 PUSH2 0x59F5 JUMP JUMPDEST PUSH2 0xA98 PUSH2 0x59F5 JUMP JUMPDEST PUSH1 0x0 PUSH2 0xAA3 DUP9 PUSH2 0x2191 JUMP JUMPDEST SWAP3 POP PUSH2 0xAAE DUP8 PUSH2 0x2191 JUMP JUMPDEST SWAP2 POP PUSH2 0xAB8 PUSH2 0x3532 JUMP JUMPDEST SWAP1 POP PUSH2 0xAC4 DUP9 DUP9 PUSH2 0x35BE JUMP JUMPDEST PUSH2 0xAE2 DUP9 DUP9 DUP6 PUSH1 0x0 ADD MLOAD DUP6 PUSH1 0x0 ADD MLOAD DUP8 PUSH1 0x40 ADD MLOAD DUP8 PUSH1 0x40 ADD MLOAD PUSH2 0x383F JUMP JUMPDEST SWAP4 POP PUSH2 0xB07 DUP9 DUP5 PUSH1 0x0 ADD MLOAD DUP6 PUSH1 0x20 ADD MLOAD DUP5 DUP8 PUSH1 0x40 ADD MLOAD DUP10 PUSH1 0x0 ADD MLOAD PUSH1 0x20 ADD MLOAD DUP13 PUSH2 0x3AA8 JUMP JUMPDEST PUSH2 0xB2A DUP8 DUP4 PUSH1 0x0 ADD MLOAD DUP5 PUSH1 0x20 ADD MLOAD DUP5 DUP7 PUSH1 0x40 ADD MLOAD DUP10 PUSH1 0x20 ADD MLOAD PUSH1 0x20 ADD MLOAD DUP12 PUSH2 0x3AA8 JUMP JUMPDEST PUSH2 0xB36 DUP9 DUP9 DUP4 DUP8 PUSH2 0x3F27 JUMP JUMPDEST PUSH2 0xB4F DUP9 DUP3 DUP6 PUSH1 0x20 ADD MLOAD DUP7 PUSH1 0x40 ADD MLOAD DUP9 PUSH1 0x0 ADD MLOAD PUSH2 0x435D JUMP JUMPDEST PUSH2 0xB68 DUP8 DUP3 DUP5 PUSH1 0x20 ADD MLOAD DUP6 PUSH1 0x40 ADD MLOAD DUP9 PUSH1 0x20 ADD MLOAD PUSH2 0x435D JUMP JUMPDEST DUP4 SWAP4 POP POP POP POP SWAP5 SWAP4 POP POP POP POP JUMP JUMPDEST PUSH2 0xB7E PUSH2 0x5A1D JUMP JUMPDEST PUSH1 0x0 PUSH4 0xB4BE83D5 PUSH29 0x100000000000000000000000000000000000000000000000000000000 MUL SWAP1 POP PUSH1 0x40 MLOAD DUP2 DUP2 MSTORE PUSH1 0x4 DUP2 ADD DUP1 PUSH1 0x60 DUP2 ADD DUP2 DUP2 DUP1 DUP12 PUSH1 0x0 DUP1 DUP8 DUP5 SUB DUP7 MSTORE PUSH1 0x20 DUP7 ADD SWAP6 POP DUP3 MLOAD DUP5 MSTORE PUSH1 0x20 DUP4 ADD MLOAD PUSH1 0x20 DUP6 ADD MSTORE PUSH1 0x40 DUP4 ADD MLOAD PUSH1 0x40 DUP6 ADD MSTORE PUSH1 0x60 DUP4 ADD MLOAD PUSH1 0x60 DUP6 ADD MSTORE PUSH1 0x80 DUP4 ADD MLOAD PUSH1 0x80 DUP6 ADD MSTORE PUSH1 0xA0 DUP4 ADD MLOAD PUSH1 0xA0 DUP6 ADD MSTORE PUSH1 0xC0 DUP4 ADD MLOAD PUSH1 0xC0 DUP6 ADD MSTORE PUSH1 0xE0 DUP4 ADD MLOAD PUSH1 0xE0 DUP6 ADD MSTORE PUSH2 0x100 DUP4 ADD MLOAD PUSH2 0x100 DUP6 ADD MSTORE PUSH2 0x120 DUP4 ADD MLOAD PUSH2 0x120 DUP6 ADD MSTORE PUSH2 0x140 DUP4 ADD MLOAD PUSH2 0x140 DUP6 ADD MSTORE PUSH2 0x160 DUP4 ADD MLOAD PUSH2 0x160 DUP6 ADD MSTORE PUSH2 0x180 DUP5 ADD SWAP4 POP PUSH2 0x180 DUP4 ADD SWAP3 POP DUP5 DUP5 SUB PUSH1 0x20 PUSH1 0xA MUL DUP7 ADD MSTORE DUP3 MLOAD SWAP2 POP PUSH1 0x20 DUP4 ADD SWAP3 POP PUSH1 0x20 PUSH1 0x1F DUP4 ADD DIV SWAP1 POP DUP2 DUP5 MSTORE PUSH1 0x20 DUP5 ADD SWAP4 POP PUSH1 0x0 JUMPDEST DUP2 DUP2 LT ISZERO PUSH2 0xC9C JUMPI DUP4 MLOAD DUP6 MSTORE PUSH1 0x20 DUP6 ADD SWAP5 POP PUSH1 0x20 DUP5 ADD SWAP4 POP PUSH1 0x1 DUP2 ADD SWAP1 POP PUSH2 0xC79 JUMP JUMPDEST POP DUP5 DUP5 SUB PUSH1 0x20 PUSH1 0xB MUL DUP7 ADD MSTORE DUP3 MLOAD SWAP2 POP PUSH1 0x20 DUP4 ADD SWAP3 POP PUSH1 0x20 PUSH1 0x1F DUP4 ADD DIV SWAP1 POP DUP2 DUP5 MSTORE PUSH1 0x20 DUP5 ADD SWAP4 POP PUSH1 0x0 JUMPDEST DUP2 DUP2 LT ISZERO PUSH2 0xCEA JUMPI DUP4 MLOAD DUP6 MSTORE PUSH1 0x20 DUP6 ADD SWAP5 POP PUSH1 0x20 DUP5 ADD SWAP4 POP PUSH1 0x1 DUP2 ADD SWAP1 POP PUSH2 0xCC7 JUMP JUMPDEST POP DUP14 DUP7 MSTORE PUSH1 0x20 DUP7 ADD SWAP6 POP DUP8 DUP5 SUB DUP7 MSTORE DUP13 SWAP3 POP DUP3 MLOAD SWAP2 POP PUSH1 0x20 DUP4 ADD SWAP3 POP PUSH1 0x20 PUSH1 0x1F DUP4 ADD DIV SWAP1 POP DUP2 DUP5 MSTORE PUSH1 0x20 DUP5 ADD SWAP4 POP PUSH1 0x0 JUMPDEST DUP2 DUP2 LT ISZERO PUSH2 0xD3E JUMPI DUP4 MLOAD DUP6 MSTORE PUSH1 0x20 DUP6 ADD SWAP5 POP PUSH1 0x20 DUP5 ADD SWAP4 POP PUSH1 0x1 DUP2 ADD SWAP1 POP PUSH2 0xD1B JUMP JUMPDEST POP PUSH1 0x80 DUP11 DUP12 DUP7 SUB DUP13 ADDRESS GAS DELEGATECALL DUP1 PUSH1 0x0 DUP2 EQ PUSH2 0xD5F JUMPI PUSH1 0x1 DUP2 EQ PUSH2 0xD7D JUMPI PUSH2 0xDA0 JUMP JUMPDEST PUSH1 0x0 DUP15 MSTORE PUSH1 0x0 PUSH1 0x20 DUP16 ADD MSTORE PUSH1 0x0 PUSH1 0x40 DUP16 ADD MSTORE PUSH1 0x0 PUSH1 0x60 DUP16 ADD MSTORE PUSH2 0xDA0 JUMP JUMPDEST DUP12 MLOAD DUP15 MSTORE PUSH1 0x20 DUP13 ADD MLOAD PUSH1 0x20 DUP16 ADD MSTORE PUSH1 0x40 DUP13 ADD MLOAD PUSH1 0x40 DUP16 ADD MSTORE PUSH1 0x60 DUP13 ADD MLOAD PUSH1 0x60 DUP16 ADD MSTORE JUMPDEST POP POP POP POP POP POP POP POP POP POP POP POP DUP2 SWAP2 POP POP SWAP4 SWAP3 POP POP POP JUMP JUMPDEST PUSH1 0x0 DUP1 SWAP1 POP JUMPDEST DUP2 MLOAD DUP2 LT ISZERO PUSH2 0xDF4 JUMPI PUSH2 0xDE6 DUP3 DUP3 DUP2 MLOAD DUP2 LT ISZERO ISZERO PUSH2 0xDD7 JUMPI INVALID JUMPDEST SWAP1 PUSH1 0x20 ADD SWAP1 PUSH1 0x20 MUL ADD MLOAD PUSH2 0x23A1 JUMP JUMPDEST POP DUP1 DUP1 PUSH1 0x1 ADD SWAP2 POP POP PUSH2 0xDBD JUMP JUMPDEST POP POP JUMP JUMPDEST PUSH1 0x0 DUP1 SWAP1 POP JUMPDEST DUP4 MLOAD DUP2 LT ISZERO PUSH2 0xE65 JUMPI PUSH2 0xE57 DUP5 DUP3 DUP2 MLOAD DUP2 LT ISZERO ISZERO PUSH2 0xE18 JUMPI INVALID JUMPDEST SWAP1 PUSH1 0x20 ADD SWAP1 PUSH1 0x20 MUL ADD MLOAD DUP5 DUP4 DUP2 MLOAD DUP2 LT ISZERO ISZERO PUSH2 0xE30 JUMPI INVALID JUMPDEST SWAP1 PUSH1 0x20 ADD SWAP1 PUSH1 0x20 MUL ADD MLOAD DUP5 DUP5 DUP2 MLOAD DUP2 LT ISZERO ISZERO PUSH2 0xE48 JUMPI INVALID JUMPDEST SWAP1 PUSH1 0x20 ADD SWAP1 PUSH1 0x20 MUL ADD MLOAD PUSH2 0x1501 JUMP JUMPDEST POP DUP1 DUP1 PUSH1 0x1 ADD SWAP2 POP POP PUSH2 0xDFE JUMP JUMPDEST POP POP POP POP JUMP JUMPDEST PUSH1 0x0 PUSH1 0x1 DUP3 ADD SWAP1 POP PUSH1 0x2 PUSH1 0x0 CALLER PUSH20 0xFFFFFFFFFFFFFFFFFFFFFFFFFFFFFFFFFFFFFFFF AND PUSH20 0xFFFFFFFFFFFFFFFFFFFFFFFFFFFFFFFFFFFFFFFF AND DUP2 MSTORE PUSH1 0x20 ADD SWAP1 DUP2 MSTORE PUSH1 0x20 ADD PUSH1 0x0 KECCAK256 SLOAD DUP2 GT PUSH1 0x80 PUSH1 0x40 MLOAD SWAP1 DUP2 ADD PUSH1 0x40 MSTORE DUP1 PUSH1 0x44 DUP2 MSTORE PUSH1 0x20 ADD PUSH32 0x5370656369666965642073616C74206D75737420626520677265617465722074 DUP2 MSTORE PUSH1 0x20 ADD PUSH32 0x68616E206F7220657175616C20746F206578697374696E67206D616B65724570 DUP2 MSTORE PUSH1 0x20 ADD PUSH32 0x6F63682E00000000000000000000000000000000000000000000000000000000 DUP2 MSTORE POP SWAP1 ISZERO ISZERO PUSH2 0xF7B JUMPI PUSH1 0x40 MLOAD PUSH32 0x8C379A000000000000000000000000000000000000000000000000000000000 DUP2 MSTORE PUSH1 0x4 ADD PUSH2 0xF72 SWAP2 SWAP1 PUSH2 0x6B04 JUMP JUMPDEST PUSH1 0x40 MLOAD DUP1 SWAP2 SUB SWAP1 REVERT JUMPDEST POP DUP1 PUSH1 0x2 PUSH1 0x0 CALLER PUSH20 0xFFFFFFFFFFFFFFFFFFFFFFFFFFFFFFFFFFFFFFFF AND PUSH20 0xFFFFFFFFFFFFFFFFFFFFFFFFFFFFFFFFFFFFFFFF AND DUP2 MSTORE PUSH1 0x20 ADD SWAP1 DUP2 MSTORE PUSH1 0x20 ADD PUSH1 0x0 KECCAK256 DUP2 SWAP1 SSTORE POP CALLER PUSH20 0xFFFFFFFFFFFFFFFFFFFFFFFFFFFFFFFFFFFFFFFF AND PUSH32 0x666A5047451D0C744E58819166260F8048FE2786E33B3C1115AF94887A451CA7 DUP3 PUSH1 0x40 MLOAD PUSH2 0x1006 SWAP2 SWAP1 PUSH2 0x6B98 JUMP JUMPDEST PUSH1 0x40 MLOAD DUP1 SWAP2 SUB SWAP1 LOG2 POP POP JUMP JUMPDEST PUSH1 0x0 DUP1 SWAP1 POP JUMPDEST DUP4 MLOAD DUP2 LT ISZERO PUSH2 0x107F JUMPI PUSH2 0x1071 DUP5 DUP3 DUP2 MLOAD DUP2 LT ISZERO ISZERO PUSH2 0x1032 JUMPI INVALID JUMPDEST SWAP1 PUSH1 0x20 ADD SWAP1 PUSH1 0x20 MUL ADD MLOAD DUP5 DUP4 DUP2 MLOAD DUP2 LT ISZERO ISZERO PUSH2 0x104A JUMPI INVALID JUMPDEST SWAP1 PUSH1 0x20 ADD SWAP1 PUSH1 0x20 MUL ADD MLOAD DUP5 DUP5 DUP2 MLOAD DUP2 LT ISZERO ISZERO PUSH2 0x1062 JUMPI INVALID JUMPDEST SWAP1 PUSH1 0x20 ADD SWAP1 PUSH1 0x20 MUL ADD MLOAD PUSH2 0xB76 JUMP JUMPDEST POP DUP1 DUP1 PUSH1 0x1 ADD SWAP2 POP POP PUSH2 0x1018 JUMP JUMPDEST POP POP POP POP JUMP JUMPDEST PUSH1 0x0 DUP1 PUSH1 0x3 PUSH1 0x0 SWAP1 SLOAD SWAP1 PUSH2 0x100 EXP SWAP1 DIV PUSH20 0xFFFFFFFFFFFFFFFFFFFFFFFFFFFFFFFFFFFFFFFF AND PUSH20 0xFFFFFFFFFFFFFFFFFFFFFFFFFFFFFFFFFFFFFFFF AND CALLER PUSH20 0xFFFFFFFFFFFFFFFFFFFFFFFFFFFFFFFFFFFFFFFF AND EQ ISZERO ISZERO PUSH2 0x111A JUMPI PUSH1 0x40 MLOAD PUSH32 0x8C379A000000000000000000000000000000000000000000000000000000000 DUP2 MSTORE PUSH1 0x4 ADD PUSH2 0x1111 SWAP1 PUSH2 0x6B26 JUMP JUMPDEST PUSH1 0x40 MLOAD DUP1 SWAP2 SUB SWAP1 REVERT JUMPDEST PUSH1 0x9 PUSH1 0x0 DUP7 PUSH1 0xFF AND PUSH1 0xFF AND DUP2 MSTORE PUSH1 0x20 ADD SWAP1 DUP2 MSTORE PUSH1 0x20 ADD PUSH1 0x0 KECCAK256 PUSH1 0x0 SWAP1 SLOAD SWAP1 PUSH2 0x100 EXP SWAP1 DIV PUSH20 0xFFFFFFFFFFFFFFFFFFFFFFFFFFFFFFFFFFFFFFFF AND PUSH20 0xFFFFFFFFFFFFFFFFFFFFFFFFFFFFFFFFFFFFFFFF AND DUP4 PUSH20 0xFFFFFFFFFFFFFFFFFFFFFFFFFFFFFFFFFFFFFFFF AND EQ PUSH1 0x60 PUSH1 0x40 MLOAD SWAP1 DUP2 ADD PUSH1 0x40 MSTORE DUP1 PUSH1 0x37 DUP2 MSTORE PUSH1 0x20 ADD PUSH32 0x4F6C642061737365742070726F787920646F6573206E6F74206D617463682061 DUP2 MSTORE PUSH1 0x20 ADD PUSH32 0x737365742070726F787920617420676976656E2069642E000000000000000000 DUP2 MSTORE POP SWAP1 ISZERO ISZERO PUSH2 0x1222 JUMPI PUSH1 0x40 MLOAD PUSH32 0x8C379A000000000000000000000000000000000000000000000000000000000 DUP2 MSTORE PUSH1 0x4 ADD PUSH2 0x1219 SWAP2 SWAP1 PUSH2 0x6B04 JUMP JUMPDEST PUSH1 0x40 MLOAD DUP1 SWAP2 SUB SWAP1 REVERT JUMPDEST POP DUP4 SWAP2 POP PUSH1 0x0 PUSH20 0xFFFFFFFFFFFFFFFFFFFFFFFFFFFFFFFFFFFFFFFF AND DUP5 PUSH20 0xFFFFFFFFFFFFFFFFFFFFFFFFFFFFFFFFFFFFFFFF AND EQ ISZERO ISZERO PUSH2 0x13A5 JUMPI DUP2 PUSH20 0xFFFFFFFFFFFFFFFFFFFFFFFFFFFFFFFFFFFFFFFF AND PUSH4 0xAE25532E PUSH1 0x40 MLOAD DUP2 PUSH4 0xFFFFFFFF AND PUSH29 0x100000000000000000000000000000000000000000000000000000000 MUL DUP2 MSTORE PUSH1 0x4 ADD PUSH1 0x20 PUSH1 0x40 MLOAD DUP1 DUP4 SUB DUP2 PUSH1 0x0 DUP8 DUP1 EXTCODESIZE ISZERO DUP1 ISZERO PUSH2 0x12C0 JUMPI PUSH1 0x0 DUP1 REVERT JUMPDEST POP GAS CALL ISZERO DUP1 ISZERO PUSH2 0x12D4 JUMPI RETURNDATASIZE PUSH1 0x0 DUP1 RETURNDATACOPY RETURNDATASIZE PUSH1 0x0 REVERT JUMPDEST POP POP POP POP PUSH1 0x40 MLOAD RETURNDATASIZE PUSH1 0x1F NOT PUSH1 0x1F DUP3 ADD AND DUP3 ADD DUP1 PUSH1 0x40 MSTORE POP PUSH2 0x12F8 SWAP2 SWAP1 DUP2 ADD SWAP1 PUSH2 0x65DD JUMP JUMPDEST SWAP1 POP DUP5 PUSH1 0xFF AND DUP2 PUSH1 0xFF AND EQ PUSH1 0x60 PUSH1 0x40 MLOAD SWAP1 DUP2 ADD PUSH1 0x40 MSTORE DUP1 PUSH1 0x2B DUP2 MSTORE PUSH1 0x20 ADD PUSH32 0x4E65772061737365742070726F787920696420646F6573206E6F74206D617463 DUP2 MSTORE PUSH1 0x20 ADD PUSH32 0x6820676976656E2069642E000000000000000000000000000000000000000000 DUP2 MSTORE POP SWAP1 ISZERO ISZERO PUSH2 0x13A3 JUMPI PUSH1 0x40 MLOAD PUSH32 0x8C379A000000000000000000000000000000000000000000000000000000000 DUP2 MSTORE PUSH1 0x4 ADD PUSH2 0x139A SWAP2 SWAP1 PUSH2 0x6B04 JUMP JUMPDEST PUSH1 0x40 MLOAD DUP1 SWAP2 SUB SWAP1 REVERT JUMPDEST POP JUMPDEST DUP2 PUSH1 0x9 PUSH1 0x0 DUP8 PUSH1 0xFF AND PUSH1 0xFF AND DUP2 MSTORE PUSH1 0x20 ADD SWAP1 DUP2 MSTORE PUSH1 0x20 ADD PUSH1 0x0 KECCAK256 PUSH1 0x0 PUSH2 0x100 EXP DUP2 SLOAD DUP2 PUSH20 0xFFFFFFFFFFFFFFFFFFFFFFFFFFFFFFFFFFFFFFFF MUL NOT AND SWAP1 DUP4 PUSH20 0xFFFFFFFFFFFFFFFFFFFFFFFFFFFFFFFFFFFFFFFF AND MUL OR SWAP1 SSTORE POP PUSH32 0x27EF5F484E50F2DAF7C2D82C60FE4CE409009541176EB64095BEAC369DB1D260 DUP6 DUP6 DUP6 PUSH1 0x40 MLOAD PUSH2 0x1430 SWAP4 SWAP3 SWAP2 SWAP1 PUSH2 0x6BB3 JUMP JUMPDEST PUSH1 0x40 MLOAD DUP1 SWAP2 SUB SWAP1 LOG1 POP POP POP POP POP JUMP JUMPDEST PUSH1 0x60 PUSH1 0x4 DUP1 SLOAD PUSH1 0x1 DUP2 PUSH1 0x1 AND ISZERO PUSH2 0x100 MUL SUB AND PUSH1 0x2 SWAP1 DIV DUP1 PUSH1 0x1F ADD PUSH1 0x20 DUP1 SWAP2 DIV MUL PUSH1 0x20 ADD PUSH1 0x40 MLOAD SWAP1 DUP2 ADD PUSH1 0x40 MSTORE DUP1 SWAP3 SWAP2 SWAP1 DUP2 DUP2 MSTORE PUSH1 0x20 ADD DUP3 DUP1 SLOAD PUSH1 0x1 DUP2 PUSH1 0x1 AND ISZERO PUSH2 0x100 MUL SUB AND PUSH1 0x2 SWAP1 DIV DUP1 ISZERO PUSH2 0x14D7 JUMPI DUP1 PUSH1 0x1F LT PUSH2 0x14AC JUMPI PUSH2 0x100 DUP1 DUP4 SLOAD DIV MUL DUP4 MSTORE SWAP2 PUSH1 0x20 ADD SWAP2 PUSH2 0x14D7 JUMP JUMPDEST DUP3 ADD SWAP2 SWAP1 PUSH1 0x0 MSTORE PUSH1 0x20 PUSH1 0x0 KECCAK256 SWAP1 JUMPDEST DUP2 SLOAD DUP2 MSTORE SWAP1 PUSH1 0x1 ADD SWAP1 PUSH1 0x20 ADD DUP1 DUP4 GT PUSH2 0x14BA JUMPI DUP3 SWAP1 SUB PUSH1 0x1F AND DUP3 ADD SWAP2 JUMPDEST POP POP POP POP POP SWAP1 POP SWAP1 JUMP JUMPDEST PUSH1 0x7 PUSH1 0x20 MSTORE DUP1 PUSH1 0x0 MSTORE PUSH1 0x40 PUSH1 0x0 KECCAK256 PUSH1 0x0 SWAP2 POP SLOAD SWAP1 PUSH2 0x100 EXP SWAP1 DIV PUSH1 0xFF AND DUP2 JUMP JUMPDEST PUSH2 0x1509 PUSH2 0x5A1D JUMP JUMPDEST PUSH2 0x1514 DUP5 DUP5 DUP5 PUSH2 0x1BD3 JUMP JUMPDEST SWAP1 POP DUP3 DUP2 PUSH1 0x20 ADD MLOAD EQ PUSH1 0x60 PUSH1 0x40 MLOAD SWAP1 DUP2 ADD PUSH1 0x40 MSTORE DUP1 PUSH1 0x33 DUP2 MSTORE PUSH1 0x20 ADD PUSH32 0x446573697265642066696C6C20616D6F756E7420636F756C64206E6F74206265 DUP2 MSTORE PUSH1 0x20 ADD PUSH32 0x20636F6D706C6574656C792066696C6C65642E00000000000000000000000000 DUP2 MSTORE POP SWAP1 ISZERO ISZERO PUSH2 0x15BD JUMPI PUSH1 0x40 MLOAD PUSH32 0x8C379A000000000000000000000000000000000000000000000000000000000 DUP2 MSTORE PUSH1 0x4 ADD PUSH2 0x15B4 SWAP2 SWAP1 PUSH2 0x6B04 JUMP JUMPDEST PUSH1 0x40 MLOAD DUP1 SWAP2 SUB SWAP1 REVERT JUMPDEST POP DUP1 SWAP1 POP SWAP4 SWAP3 POP POP POP JUMP JUMPDEST PUSH1 0x2 PUSH1 0x20 MSTORE DUP1 PUSH1 0x0 MSTORE PUSH1 0x40 PUSH1 0x0 KECCAK256 PUSH1 0x0 SWAP2 POP SWAP1 POP SLOAD DUP2 JUMP JUMPDEST PUSH1 0x0 PUSH2 0x15EA PUSH2 0x5A1D JUMP JUMPDEST PUSH1 0x0 DUP1 PUSH1 0x0 DUP6 EQ ISZERO PUSH2 0x1610 JUMPI PUSH1 0x4 PUSH1 0xE DUP2 GT ISZERO PUSH2 0x1603 JUMPI INVALID JUMPDEST SWAP4 POP DUP4 DUP4 SWAP4 POP SWAP4 POP PUSH2 0x1707 JUMP JUMPDEST PUSH1 0xB PUSH1 0xE DUP2 GT ISZERO PUSH2 0x161D JUMPI INVALID JUMPDEST PUSH1 0xFF AND DUP8 PUSH1 0xFF AND EQ ISZERO ISZERO PUSH2 0x1639 JUMPI DUP7 SWAP4 POP DUP4 DUP4 SWAP4 POP SWAP4 POP PUSH2 0x1707 JUMP JUMPDEST PUSH2 0x1647 DUP9 PUSH1 0xA0 ADD MLOAD DUP8 PUSH2 0x4428 JUMP JUMPDEST SWAP2 POP PUSH2 0x1653 DUP6 DUP4 PUSH2 0x4441 JUMP JUMPDEST SWAP1 POP PUSH2 0x1668 DUP2 DUP10 PUSH1 0xA0 ADD MLOAD DUP11 PUSH1 0x80 ADD MLOAD PUSH2 0x445A JUMP JUMPDEST ISZERO PUSH2 0x1687 JUMPI PUSH1 0x2 PUSH1 0xE DUP2 GT ISZERO PUSH2 0x167A JUMPI INVALID JUMPDEST SWAP4 POP DUP4 DUP4 SWAP4 POP SWAP4 POP PUSH2 0x1707 JUMP JUMPDEST DUP1 DUP4 PUSH1 0x20 ADD DUP2 DUP2 MSTORE POP POP PUSH2 0x16A8 DUP4 PUSH1 0x20 ADD MLOAD DUP10 PUSH1 0xA0 ADD MLOAD DUP11 PUSH1 0x80 ADD MLOAD PUSH2 0x44B5 JUMP JUMPDEST DUP4 PUSH1 0x0 ADD DUP2 DUP2 MSTORE POP POP PUSH2 0x16C8 DUP4 PUSH1 0x20 ADD MLOAD DUP10 PUSH1 0xA0 ADD MLOAD DUP11 PUSH1 0xC0 ADD MLOAD PUSH2 0x44B5 JUMP JUMPDEST DUP4 PUSH1 0x40 ADD DUP2 DUP2 MSTORE POP POP PUSH2 0x16E8 DUP4 PUSH1 0x20 ADD MLOAD DUP10 PUSH1 0xA0 ADD MLOAD DUP11 PUSH1 0xE0 ADD MLOAD PUSH2 0x44B5 JUMP JUMPDEST DUP4 PUSH1 0x60 ADD DUP2 DUP2 MSTORE POP POP PUSH1 0x1 PUSH1 0xE DUP2 GT ISZERO PUSH2 0x16FE JUMPI INVALID JUMPDEST SWAP4 POP DUP4 DUP4 SWAP4 POP SWAP4 POP JUMPDEST POP POP SWAP5 POP SWAP5 SWAP3 POP POP POP JUMP JUMPDEST PUSH1 0x0 PUSH2 0x171C PUSH2 0x3532 JUMP JUMPDEST SWAP1 POP DUP2 PUSH1 0x6 PUSH1 0x0 DUP4 PUSH20 0xFFFFFFFFFFFFFFFFFFFFFFFFFFFFFFFFFFFFFFFF AND PUSH20 0xFFFFFFFFFFFFFFFFFFFFFFFFFFFFFFFFFFFFFFFF AND DUP2 MSTORE PUSH1 0x20 ADD SWAP1 DUP2 MSTORE PUSH1 0x20 ADD PUSH1 0x0 KECCAK256 PUSH1 0x0 DUP6 PUSH20 0xFFFFFFFFFFFFFFFFFFFFFFFFFFFFFFFFFFFFFFFF AND PUSH20 0xFFFFFFFFFFFFFFFFFFFFFFFFFFFFFFFFFFFFFFFF AND DUP2 MSTORE PUSH1 0x20 ADD SWAP1 DUP2 MSTORE PUSH1 0x20 ADD PUSH1 0x0 KECCAK256 PUSH1 0x0 PUSH2 0x100 EXP DUP2 SLOAD DUP2 PUSH1 0xFF MUL NOT AND SWAP1 DUP4 ISZERO ISZERO MUL OR SWAP1 SSTORE POP POP POP POP JUMP JUMPDEST PUSH1 0x6 PUSH1 0x20 MSTORE DUP2 PUSH1 0x0 MSTORE PUSH1 0x40 PUSH1 0x0 KECCAK256 PUSH1 0x20 MSTORE DUP1 PUSH1 0x0 MSTORE PUSH1 0x40 PUSH1 0x0 KECCAK256 PUSH1 0x0 SWAP2 POP SWAP2 POP SWAP1 SLOAD SWAP1 PUSH2 0x100 EXP SWAP1 DIV PUSH1 0xFF AND DUP2 JUMP JUMPDEST PUSH2 0x17EE PUSH2 0x5A1D JUMP JUMPDEST PUSH1 0x0 DUP1 PUSH2 0x17F9 PUSH2 0x5A1D JUMP JUMPDEST PUSH1 0x0 SWAP3 POP JUMPDEST DUP7 MLOAD DUP4 LT ISZERO PUSH2 0x195E JUMPI PUSH2 0x184A DUP8 DUP5 DUP2 MLOAD DUP2 LT ISZERO ISZERO PUSH2 0x1818 JUMPI INVALID JUMPDEST SWAP1 PUSH1 0x20 ADD SWAP1 PUSH1 0x20 MUL ADD MLOAD PUSH2 0x160 ADD MLOAD DUP9 PUSH1 0x0 DUP2 MLOAD DUP2 LT ISZERO ISZERO PUSH2 0x1836 JUMPI INVALID JUMPDEST SWAP1 PUSH1 0x20 ADD SWAP1 PUSH1 0x20 MUL ADD MLOAD PUSH2 0x160 ADD MLOAD PUSH2 0x44D6 JUMP JUMPDEST PUSH1 0x60 PUSH1 0x40 MLOAD SWAP1 DUP2 ADD PUSH1 0x40 MSTORE DUP1 PUSH1 0x2B DUP2 MSTORE PUSH1 0x20 ADD PUSH32 0x41737365742064617461206D757374206265207468652073616D6520666F7220 DUP2 MSTORE PUSH1 0x20 ADD PUSH32 0x65616368206F726465722E000000000000000000000000000000000000000000 DUP2 MSTORE POP SWAP1 ISZERO ISZERO PUSH2 0x18EA JUMPI PUSH1 0x40 MLOAD PUSH32 0x8C379A000000000000000000000000000000000000000000000000000000000 DUP2 MSTORE PUSH1 0x4 ADD PUSH2 0x18E1 SWAP2 SWAP1 PUSH2 0x6B04 JUMP JUMPDEST PUSH1 0x40 MLOAD DUP1 SWAP2 SUB SWAP1 REVERT JUMPDEST POP PUSH2 0x18F9 DUP7 DUP6 PUSH1 0x20 ADD MLOAD PUSH2 0x4428 JUMP JUMPDEST SWAP2 POP PUSH2 0x1934 DUP8 DUP5 DUP2 MLOAD DUP2 LT ISZERO ISZERO PUSH2 0x190C JUMPI INVALID JUMPDEST SWAP1 PUSH1 0x20 ADD SWAP1 PUSH1 0x20 MUL ADD MLOAD DUP4 DUP8 DUP7 DUP2 MLOAD DUP2 LT ISZERO ISZERO PUSH2 0x1925 JUMPI INVALID JUMPDEST SWAP1 PUSH1 0x20 ADD SWAP1 PUSH1 0x20 MUL ADD MLOAD PUSH2 0x1BD3 JUMP JUMPDEST SWAP1 POP PUSH2 0x1940 DUP5 DUP3 PUSH2 0x4529 JUMP JUMPDEST DUP6 DUP5 PUSH1 0x20 ADD MLOAD EQ ISZERO PUSH2 0x1951 JUMPI PUSH2 0x195E JUMP JUMPDEST DUP3 DUP1 PUSH1 0x1 ADD SWAP4 POP POP PUSH2 0x17FE JUMP JUMPDEST DUP4 SWAP4 POP POP POP POP SWAP4 SWAP3 POP POP POP JUMP JUMPDEST PUSH1 0x5 PUSH1 0x20 MSTORE DUP2 PUSH1 0x0 MSTORE PUSH1 0x40 PUSH1 0x0 KECCAK256 PUSH1 0x20 MSTORE DUP1 PUSH1 0x0 MSTORE PUSH1 0x40 PUSH1 0x0 KECCAK256 PUSH1 0x0 SWAP2 POP SWAP2 POP SWAP1 SLOAD SWAP1 PUSH2 0x100 EXP SWAP1 DIV PUSH1 0xFF AND DUP2 JUMP JUMPDEST PUSH1 0x3 PUSH1 0x0 SWAP1 SLOAD SWAP1 PUSH2 0x100 EXP SWAP1 DIV PUSH20 0xFFFFFFFFFFFFFFFFFFFFFFFFFFFFFFFFFFFFFFFF AND DUP2 JUMP JUMPDEST PUSH1 0x0 DUP1 PUSH1 0x9 PUSH1 0x0 DUP5 PUSH1 0xFF AND PUSH1 0xFF AND DUP2 MSTORE PUSH1 0x20 ADD SWAP1 DUP2 MSTORE PUSH1 0x20 ADD PUSH1 0x0 KECCAK256 PUSH1 0x0 SWAP1 SLOAD SWAP1 PUSH2 0x100 EXP SWAP1 DIV PUSH20 0xFFFFFFFFFFFFFFFFFFFFFFFFFFFFFFFFFFFFFFFF AND SWAP1 POP DUP1 SWAP2 POP POP SWAP2 SWAP1 POP JUMP JUMPDEST PUSH2 0x1A10 PUSH2 0x5A1D JUMP JUMPDEST PUSH1 0x0 DUP1 PUSH1 0x0 PUSH2 0x1A1D PUSH2 0x5A1D JUMP JUMPDEST PUSH1 0x0 SWAP4 POP JUMPDEST DUP8 MLOAD DUP5 LT ISZERO PUSH2 0x1BC5 JUMPI PUSH2 0x1A6E DUP9 DUP6 DUP2 MLOAD DUP2 LT ISZERO ISZERO PUSH2 0x1A3C JUMPI INVALID JUMPDEST SWAP1 PUSH1 0x20 ADD SWAP1 PUSH1 0x20 MUL ADD MLOAD PUSH2 0x140 ADD MLOAD DUP10 PUSH1 0x0 DUP2 MLOAD DUP2 LT ISZERO ISZERO PUSH2 0x1A5A JUMPI INVALID JUMPDEST SWAP1 PUSH1 0x20 ADD SWAP1 PUSH1 0x20 MUL ADD MLOAD PUSH2 0x140 ADD MLOAD PUSH2 0x44D6 JUMP JUMPDEST PUSH1 0x60 PUSH1 0x40 MLOAD SWAP1 DUP2 ADD PUSH1 0x40 MSTORE DUP1 PUSH1 0x2B DUP2 MSTORE PUSH1 0x20 ADD PUSH32 0x41737365742064617461206D757374206265207468652073616D6520666F7220 DUP2 MSTORE PUSH1 0x20 ADD PUSH32 0x65616368206F726465722E000000000000000000000000000000000000000000 DUP2 MSTORE POP SWAP1 ISZERO ISZERO PUSH2 0x1B0E JUMPI PUSH1 0x40 MLOAD PUSH32 0x8C379A000000000000000000000000000000000000000000000000000000000 DUP2 MSTORE PUSH1 0x4 ADD PUSH2 0x1B05 SWAP2 SWAP1 PUSH2 0x6B04 JUMP JUMPDEST PUSH1 0x40 MLOAD DUP1 SWAP2 SUB SWAP1 REVERT JUMPDEST POP PUSH2 0x1B1D DUP8 DUP7 PUSH1 0x0 ADD MLOAD PUSH2 0x4428 JUMP JUMPDEST SWAP3 POP PUSH2 0x1B60 DUP9 DUP6 DUP2 MLOAD DUP2 LT ISZERO ISZERO PUSH2 0x1B30 JUMPI INVALID JUMPDEST SWAP1 PUSH1 0x20 ADD SWAP1 PUSH1 0x20 MUL ADD MLOAD PUSH1 0xA0 ADD MLOAD DUP10 DUP7 DUP2 MLOAD DUP2 LT ISZERO ISZERO PUSH2 0x1B4C JUMPI INVALID JUMPDEST SWAP1 PUSH1 0x20 ADD SWAP1 PUSH1 0x20 MUL ADD MLOAD PUSH1 0x80 ADD MLOAD DUP6 PUSH2 0x44B5 JUMP JUMPDEST SWAP2 POP PUSH2 0x1B9B DUP9 DUP6 DUP2 MLOAD DUP2 LT ISZERO ISZERO PUSH2 0x1B73 JUMPI INVALID JUMPDEST SWAP1 PUSH1 0x20 ADD SWAP1 PUSH1 0x20 MUL ADD MLOAD DUP4 DUP9 DUP8 DUP2 MLOAD DUP2 LT ISZERO ISZERO PUSH2 0x1B8C JUMPI INVALID JUMPDEST SWAP1 PUSH1 0x20 ADD SWAP1 PUSH1 0x20 MUL ADD MLOAD PUSH2 0xB76 JUMP JUMPDEST SWAP1 POP PUSH2 0x1BA7 DUP6 DUP3 PUSH2 0x4529 JUMP JUMPDEST DUP7 DUP6 PUSH1 0x0 ADD MLOAD EQ ISZERO PUSH2 0x1BB8 JUMPI PUSH2 0x1BC5 JUMP JUMPDEST DUP4 DUP1 PUSH1 0x1 ADD SWAP5 POP POP PUSH2 0x1A22 JUMP JUMPDEST DUP5 SWAP5 POP POP POP POP POP SWAP4 SWAP3 POP POP POP JUMP JUMPDEST PUSH2 0x1BDB PUSH2 0x5A1D JUMP JUMPDEST PUSH2 0x1BE3 PUSH2 0x59F5 JUMP JUMPDEST PUSH1 0x0 DUP1 PUSH2 0x1BEF DUP8 PUSH2 0x2191 JUMP JUMPDEST SWAP3 POP PUSH2 0x1BF9 PUSH2 0x3532 JUMP JUMPDEST SWAP2 POP PUSH2 0x1C16 DUP8 DUP5 PUSH1 0x0 ADD MLOAD DUP6 PUSH1 0x20 ADD MLOAD DUP6 DUP8 PUSH1 0x40 ADD MLOAD DUP12 DUP12 PUSH2 0x3AA8 JUMP JUMPDEST PUSH2 0x1C2A DUP8 DUP5 PUSH1 0x0 ADD MLOAD DUP6 PUSH1 0x40 ADD MLOAD DUP10 PUSH2 0x15E0 JUMP JUMPDEST DUP1 SWAP6 POP DUP2 SWAP3 POP POP POP PUSH1 0x1 PUSH1 0xE DUP2 GT ISZERO PUSH2 0x1C3F JUMPI INVALID JUMPDEST PUSH1 0xFF AND DUP2 PUSH1 0xFF AND EQ ISZERO ISZERO PUSH2 0x1C95 JUMPI DUP3 PUSH1 0x20 ADD MLOAD PUSH1 0x0 NOT AND DUP2 PUSH1 0xFF AND PUSH32 0x7A2F932AC2B230B365B1CF3C91CF7F6BB97D4625011E0CF070CA1E0AF0F1B39A PUSH1 0x40 MLOAD PUSH1 0x40 MLOAD DUP1 SWAP2 SUB SWAP1 LOG3 PUSH2 0x1C8E PUSH2 0x4599 JUMP JUMPDEST SWAP4 POP PUSH2 0x1CB9 JUMP JUMPDEST PUSH2 0x1CA0 DUP8 DUP4 DUP7 PUSH2 0x45CC JUMP JUMPDEST PUSH2 0x1CB5 DUP8 DUP4 DUP6 PUSH1 0x20 ADD MLOAD DUP7 PUSH1 0x40 ADD MLOAD DUP9 PUSH2 0x435D JUMP JUMPDEST DUP4 SWAP4 POP JUMPDEST POP POP POP SWAP4 SWAP3 POP POP POP JUMP JUMPDEST PUSH1 0x0 DUP1 PUSH20 0xFFFFFFFFFFFFFFFFFFFFFFFFFFFFFFFFFFFFFFFF AND PUSH1 0x8 PUSH1 0x0 SWAP1 SLOAD SWAP1 PUSH2 0x100 EXP SWAP1 DIV PUSH20 0xFFFFFFFFFFFFFFFFFFFFFFFFFFFFFFFFFFFFFFFF AND PUSH20 0xFFFFFFFFFFFFFFFFFFFFFFFFFFFFFFFFFFFFFFFF AND EQ PUSH1 0x60 PUSH1 0x40 MLOAD SWAP1 DUP2 ADD PUSH1 0x40 MSTORE DUP1 PUSH1 0x3F DUP2 MSTORE PUSH1 0x20 ADD PUSH32 0x60657865637574655472616E73616374696F6E60206973206E6F7420616C6C6F DUP2 MSTORE PUSH1 0x20 ADD PUSH32 0x77656420746F2063616C6C20697473656C66207265637572736976656C792E00 DUP2 MSTORE POP SWAP1 ISZERO ISZERO PUSH2 0x1DB6 JUMPI PUSH1 0x40 MLOAD PUSH32 0x8C379A000000000000000000000000000000000000000000000000000000000 DUP2 MSTORE PUSH1 0x4 ADD PUSH2 0x1DAD SWAP2 SWAP1 PUSH2 0x6B04 JUMP JUMPDEST PUSH1 0x40 MLOAD DUP1 SWAP2 SUB SWAP1 REVERT JUMPDEST POP ADDRESS DUP7 DUP9 DUP8 DUP8 PUSH1 0x40 MLOAD DUP1 DUP7 PUSH20 0xFFFFFFFFFFFFFFFFFFFFFFFFFFFFFFFFFFFFFFFF AND PUSH20 0xFFFFFFFFFFFFFFFFFFFFFFFFFFFFFFFFFFFFFFFF AND PUSH13 0x1000000000000000000000000 MUL DUP2 MSTORE PUSH1 0x14 ADD DUP6 PUSH20 0xFFFFFFFFFFFFFFFFFFFFFFFFFFFFFFFFFFFFFFFF AND PUSH20 0xFFFFFFFFFFFFFFFFFFFFFFFFFFFFFFFFFFFFFFFF AND PUSH13 0x1000000000000000000000000 MUL DUP2 MSTORE PUSH1 0x14 ADD DUP5 DUP2 MSTORE PUSH1 0x20 ADD DUP4 DUP4 DUP1 DUP3 DUP5 CALLDATACOPY DUP3 ADD SWAP2 POP POP SWAP6 POP POP POP POP POP POP PUSH1 0x40 MLOAD DUP1 SWAP2 SUB SWAP1 KECCAK256 SWAP1 POP PUSH1 0x7 PUSH1 0x0 DUP3 PUSH1 0x0 NOT AND PUSH1 0x0 NOT AND DUP2 MSTORE PUSH1 0x20 ADD SWAP1 DUP2 MSTORE PUSH1 0x20 ADD PUSH1 0x0 KECCAK256 PUSH1 0x0 SWAP1 SLOAD SWAP1 PUSH2 0x100 EXP SWAP1 DIV PUSH1 0xFF AND ISZERO PUSH1 0x60 PUSH1 0x40 MLOAD SWAP1 DUP2 ADD PUSH1 0x40 MSTORE DUP1 PUSH1 0x26 DUP2 MSTORE PUSH1 0x20 ADD PUSH32 0x5472616E73616374696F6E2068617320616C7265616479206265656E20657865 DUP2 MSTORE PUSH1 0x20 ADD PUSH32 0x63757465642E0000000000000000000000000000000000000000000000000000 DUP2 MSTORE POP SWAP1 ISZERO ISZERO PUSH2 0x1F2E JUMPI PUSH1 0x40 MLOAD PUSH32 0x8C379A000000000000000000000000000000000000000000000000000000000 DUP2 MSTORE PUSH1 0x4 ADD PUSH2 0x1F25 SWAP2 SWAP1 PUSH2 0x6B04 JUMP JUMPDEST PUSH1 0x40 MLOAD DUP1 SWAP2 SUB SWAP1 REVERT JUMPDEST POP CALLER PUSH20 0xFFFFFFFFFFFFFFFFFFFFFFFFFFFFFFFFFFFFFFFF AND DUP7 PUSH20 0xFFFFFFFFFFFFFFFFFFFFFFFFFFFFFFFFFFFFFFFF AND EQ ISZERO ISZERO PUSH2 0x205D JUMPI PUSH2 0x1FA1 DUP2 DUP8 DUP6 DUP6 DUP1 DUP1 PUSH1 0x1F ADD PUSH1 0x20 DUP1 SWAP2 DIV MUL PUSH1 0x20 ADD PUSH1 0x40 MLOAD SWAP1 DUP2 ADD PUSH1 0x40 MSTORE DUP1 SWAP4 SWAP3 SWAP2 SWAP1 DUP2 DUP2 MSTORE PUSH1 0x20 ADD DUP4 DUP4 DUP1 DUP3 DUP5 CALLDATACOPY DUP3 ADD SWAP2 POP POP POP POP POP POP PUSH2 0x28A0 JUMP JUMPDEST PUSH1 0x40 DUP1 MLOAD SWAP1 DUP2 ADD PUSH1 0x40 MSTORE DUP1 PUSH1 0x1C DUP2 MSTORE PUSH1 0x20 ADD PUSH32 0x5369676E61747572652076616C69646174696F6E206661696C65642E00000000 DUP2 MSTORE POP SWAP1 ISZERO ISZERO PUSH2 0x201A JUMPI PUSH1 0x40 MLOAD PUSH32 0x8C379A000000000000000000000000000000000000000000000000000000000 DUP2 MSTORE PUSH1 0x4 ADD PUSH2 0x2011 SWAP2 SWAP1 PUSH2 0x6B04 JUMP JUMPDEST PUSH1 0x40 MLOAD DUP1 SWAP2 SUB SWAP1 REVERT JUMPDEST POP DUP6 PUSH1 0x8 PUSH1 0x0 PUSH2 0x100 EXP DUP2 SLOAD DUP2 PUSH20 0xFFFFFFFFFFFFFFFFFFFFFFFFFFFFFFFFFFFFFFFF MUL NOT AND SWAP1 DUP4 PUSH20 0xFFFFFFFFFFFFFFFFFFFFFFFFFFFFFFFFFFFFFFFF AND MUL OR SWAP1 SSTORE POP JUMPDEST PUSH1 0x1 PUSH1 0x7 PUSH1 0x0 DUP4 PUSH1 0x0 NOT AND PUSH1 0x0 NOT AND DUP2 MSTORE PUSH1 0x20 ADD SWAP1 DUP2 MSTORE PUSH1 0x20 ADD PUSH1 0x0 KECCAK256 PUSH1 0x0 PUSH2 0x100 EXP DUP2 SLOAD DUP2 PUSH1 0xFF MUL NOT AND SWAP1 DUP4 ISZERO ISZERO MUL OR SWAP1 SSTORE POP ADDRESS PUSH20 0xFFFFFFFFFFFFFFFFFFFFFFFFFFFFFFFFFFFFFFFF AND DUP6 DUP6 PUSH1 0x40 MLOAD DUP1 DUP4 DUP4 DUP1 DUP3 DUP5 CALLDATACOPY DUP3 ADD SWAP2 POP POP SWAP3 POP POP POP PUSH1 0x0 PUSH1 0x40 MLOAD DUP1 DUP4 SUB DUP2 DUP6 GAS DELEGATECALL SWAP2 POP POP PUSH1 0x40 DUP1 MLOAD SWAP1 DUP2 ADD PUSH1 0x40 MSTORE DUP1 PUSH1 0x1D DUP2 MSTORE PUSH1 0x20 ADD PUSH32 0x5472616E73616374696F6E20657865637574696F6E206661696C65642E000000 DUP2 MSTORE POP SWAP1 ISZERO ISZERO PUSH2 0x2145 JUMPI PUSH1 0x40 MLOAD PUSH32 0x8C379A000000000000000000000000000000000000000000000000000000000 DUP2 MSTORE PUSH1 0x4 ADD PUSH2 0x213C SWAP2 SWAP1 PUSH2 0x6B04 JUMP JUMPDEST PUSH1 0x40 MLOAD DUP1 SWAP2 SUB SWAP1 REVERT JUMPDEST POP PUSH1 0x0 PUSH1 0x8 PUSH1 0x0 PUSH2 0x100 EXP DUP2 SLOAD DUP2 PUSH20 0xFFFFFFFFFFFFFFFFFFFFFFFFFFFFFFFFFFFFFFFF MUL NOT AND SWAP1 DUP4 PUSH20 0xFFFFFFFFFFFFFFFFFFFFFFFFFFFFFFFFFFFFFFFF AND MUL OR SWAP1 SSTORE POP POP POP POP POP POP POP POP JUMP JUMPDEST PUSH2 0x2199 PUSH2 0x59F5 JUMP JUMPDEST PUSH2 0x21A2 DUP3 PUSH2 0x4763 JUMP JUMPDEST DUP2 PUSH1 0x20 ADD SWAP1 PUSH1 0x0 NOT AND SWAP1 DUP2 PUSH1 0x0 NOT AND DUP2 MSTORE POP POP PUSH1 0x0 DUP3 PUSH1 0x80 ADD MLOAD EQ ISZERO PUSH2 0x21E8 JUMPI PUSH1 0x9 PUSH1 0xE DUP2 GT ISZERO PUSH2 0x21CF JUMPI INVALID JUMPDEST DUP2 PUSH1 0x0 ADD SWAP1 PUSH1 0xFF AND SWAP1 DUP2 PUSH1 0xFF AND DUP2 MSTORE POP POP DUP1 SWAP1 POP PUSH2 0x239C JUMP JUMPDEST PUSH1 0x0 DUP3 PUSH1 0xA0 ADD MLOAD EQ ISZERO PUSH2 0x221B JUMPI PUSH1 0xA PUSH1 0xE DUP2 GT ISZERO PUSH2 0x2202 JUMPI INVALID JUMPDEST DUP2 PUSH1 0x0 ADD SWAP1 PUSH1 0xFF AND SWAP1 DUP2 PUSH1 0xFF AND DUP2 MSTORE POP POP DUP1 SWAP1 POP PUSH2 0x239C JUMP JUMPDEST DUP2 PUSH2 0x100 ADD MLOAD TIMESTAMP LT ISZERO ISZERO PUSH2 0x224F JUMPI PUSH1 0xC PUSH1 0xE DUP2 GT ISZERO PUSH2 0x2236 JUMPI INVALID JUMPDEST DUP2 PUSH1 0x0 ADD SWAP1 PUSH1 0xFF AND SWAP1 DUP2 PUSH1 0xFF AND DUP2 MSTORE POP POP DUP1 SWAP1 POP PUSH2 0x239C JUMP JUMPDEST PUSH1 0x1 PUSH1 0x0 DUP3 PUSH1 0x20 ADD MLOAD PUSH1 0x0 NOT AND PUSH1 0x0 NOT AND DUP2 MSTORE PUSH1 0x20 ADD SWAP1 DUP2 MSTORE PUSH1 0x20 ADD PUSH1 0x0 KECCAK256 PUSH1 0x0 SWAP1 SLOAD SWAP1 PUSH2 0x100 EXP SWAP1 DIV PUSH1 0xFF AND ISZERO PUSH2 0x22A6 JUMPI PUSH1 0xE DUP1 DUP2 GT ISZERO PUSH2 0x228D JUMPI INVALID JUMPDEST DUP2 PUSH1 0x0 ADD SWAP1 PUSH1 0xFF AND SWAP1 DUP2 PUSH1 0xFF AND DUP2 MSTORE POP POP DUP1 SWAP1 POP PUSH2 0x239C JUMP JUMPDEST DUP2 PUSH2 0x120 ADD MLOAD PUSH1 0x2 PUSH1 0x0 DUP5 PUSH1 0x0 ADD MLOAD PUSH20 0xFFFFFFFFFFFFFFFFFFFFFFFFFFFFFFFFFFFFFFFF AND PUSH20 0xFFFFFFFFFFFFFFFFFFFFFFFFFFFFFFFFFFFFFFFF AND DUP2 MSTORE PUSH1 0x20 ADD SWAP1 DUP2 MSTORE PUSH1 0x20 ADD PUSH1 0x0 KECCAK256 SLOAD GT ISZERO PUSH2 0x231B JUMPI PUSH1 0xE DUP1 DUP2 GT ISZERO PUSH2 0x2302 JUMPI INVALID JUMPDEST DUP2 PUSH1 0x0 ADD SWAP1 PUSH1 0xFF AND SWAP1 DUP2 PUSH1 0xFF AND DUP2 MSTORE POP POP DUP1 SWAP1 POP PUSH2 0x239C JUMP JUMPDEST PUSH1 0x0 DUP1 DUP3 PUSH1 0x20 ADD MLOAD PUSH1 0x0 NOT AND PUSH1 0x0 NOT AND DUP2 MSTORE PUSH1 0x20 ADD SWAP1 DUP2 MSTORE PUSH1 0x20 ADD PUSH1 0x0 KECCAK256 SLOAD DUP2 PUSH1 0x40 ADD DUP2 DUP2 MSTORE POP POP DUP2 PUSH1 0xA0 ADD MLOAD DUP2 PUSH1 0x40 ADD MLOAD LT ISZERO ISZERO PUSH2 0x237A JUMPI PUSH1 0xD PUSH1 0xE DUP2 GT ISZERO PUSH2 0x2361 JUMPI INVALID JUMPDEST DUP2 PUSH1 0x0 ADD SWAP1 PUSH1 0xFF AND SWAP1 DUP2 PUSH1 0xFF AND DUP2 MSTORE POP POP DUP1 SWAP1 POP PUSH2 0x239C JUMP JUMPDEST PUSH1 0xB PUSH1 0xE DUP2 GT ISZERO PUSH2 0x2387 JUMPI INVALID JUMPDEST DUP2 PUSH1 0x0 ADD SWAP1 PUSH1 0xFF AND SWAP1 DUP2 PUSH1 0xFF AND DUP2 MSTORE POP POP DUP1 SWAP1 POP JUMPDEST SWAP2 SWAP1 POP JUMP JUMPDEST PUSH1 0x0 PUSH2 0x23AB PUSH2 0x59F5 JUMP JUMPDEST PUSH2 0x23B4 DUP4 PUSH2 0x2191 JUMP JUMPDEST SWAP1 POP PUSH2 0x23C9 DUP4 DUP3 PUSH1 0x0 ADD MLOAD DUP4 PUSH1 0x20 ADD MLOAD PUSH2 0x4D06 JUMP JUMPDEST PUSH2 0x23DC DUP4 DUP3 PUSH1 0x0 ADD MLOAD DUP4 PUSH1 0x20 ADD MLOAD PUSH2 0x5042 JUMP JUMPDEST SWAP2 POP POP SWAP2 SWAP1 POP JUMP JUMPDEST PUSH2 0x23EC PUSH2 0x5A1D JUMP JUMPDEST PUSH1 0x0 DUP1 PUSH2 0x23F7 PUSH2 0x5A1D JUMP JUMPDEST PUSH1 0x0 SWAP3 POP JUMPDEST DUP7 MLOAD DUP4 LT ISZERO PUSH2 0x255C JUMPI PUSH2 0x2448 DUP8 DUP5 DUP2 MLOAD DUP2 LT ISZERO ISZERO PUSH2 0x2416 JUMPI INVALID JUMPDEST SWAP1 PUSH1 0x20 ADD SWAP1 PUSH1 0x20 MUL ADD MLOAD PUSH2 0x160 ADD MLOAD DUP9 PUSH1 0x0 DUP2 MLOAD DUP2 LT ISZERO ISZERO PUSH2 0x2434 JUMPI INVALID JUMPDEST SWAP1 PUSH1 0x20 ADD SWAP1 PUSH1 0x20 MUL ADD MLOAD PUSH2 0x160 ADD MLOAD PUSH2 0x44D6 JUMP JUMPDEST PUSH1 0x60 PUSH1 0x40 MLOAD SWAP1 DUP2 ADD PUSH1 0x40 MSTORE DUP1 PUSH1 0x2B DUP2 MSTORE PUSH1 0x20 ADD PUSH32 0x41737365742064617461206D757374206265207468652073616D6520666F7220 DUP2 MSTORE PUSH1 0x20 ADD PUSH32 0x65616368206F726465722E000000000000000000000000000000000000000000 DUP2 MSTORE POP SWAP1 ISZERO ISZERO PUSH2 0x24E8 JUMPI PUSH1 0x40 MLOAD PUSH32 0x8C379A000000000000000000000000000000000000000000000000000000000 DUP2 MSTORE PUSH1 0x4 ADD PUSH2 0x24DF SWAP2 SWAP1 PUSH2 0x6B04 JUMP JUMPDEST PUSH1 0x40 MLOAD DUP1 SWAP2 SUB SWAP1 REVERT JUMPDEST POP PUSH2 0x24F7 DUP7 DUP6 PUSH1 0x20 ADD MLOAD PUSH2 0x4428 JUMP JUMPDEST SWAP2 POP PUSH2 0x2532 DUP8 DUP5 DUP2 MLOAD DUP2 LT ISZERO ISZERO PUSH2 0x250A JUMPI INVALID JUMPDEST SWAP1 PUSH1 0x20 ADD SWAP1 PUSH1 0x20 MUL ADD MLOAD DUP4 DUP8 DUP7 DUP2 MLOAD DUP2 LT ISZERO ISZERO PUSH2 0x2523 JUMPI INVALID JUMPDEST SWAP1 PUSH1 0x20 ADD SWAP1 PUSH1 0x20 MUL ADD MLOAD PUSH2 0xB76 JUMP JUMPDEST SWAP1 POP PUSH2 0x253E DUP5 DUP3 PUSH2 0x4529 JUMP JUMPDEST DUP6 DUP5 PUSH1 0x20 ADD MLOAD EQ ISZERO PUSH2 0x254F JUMPI PUSH2 0x255C JUMP JUMPDEST DUP3 DUP1 PUSH1 0x1 ADD SWAP4 POP POP PUSH2 0x23FC JUMP JUMPDEST DUP4 SWAP4 POP POP POP POP SWAP4 SWAP3 POP POP POP JUMP JUMPDEST PUSH2 0x2571 PUSH2 0x5A1D JUMP JUMPDEST PUSH1 0x0 DUP1 PUSH1 0x0 PUSH2 0x257E PUSH2 0x5A1D JUMP JUMPDEST PUSH1 0x0 SWAP4 POP JUMPDEST DUP8 MLOAD DUP5 LT ISZERO PUSH2 0x2726 JUMPI PUSH2 0x25CF DUP9 DUP6 DUP2 MLOAD DUP2 LT ISZERO ISZERO PUSH2 0x259D JUMPI INVALID JUMPDEST SWAP1 PUSH1 0x20 ADD SWAP1 PUSH1 0x20 MUL ADD MLOAD PUSH2 0x140 ADD MLOAD DUP10 PUSH1 0x0 DUP2 MLOAD DUP2 LT ISZERO ISZERO PUSH2 0x25BB JUMPI INVALID JUMPDEST SWAP1 PUSH1 0x20 ADD SWAP1 PUSH1 0x20 MUL ADD MLOAD PUSH2 0x140 ADD MLOAD PUSH2 0x44D6 JUMP JUMPDEST PUSH1 0x60 PUSH1 0x40 MLOAD SWAP1 DUP2 ADD PUSH1 0x40 MSTORE DUP1 PUSH1 0x2B DUP2 MSTORE PUSH1 0x20 ADD PUSH32 0x41737365742064617461206D757374206265207468652073616D6520666F7220 DUP2 MSTORE PUSH1 0x20 ADD PUSH32 0x65616368206F726465722E000000000000000000000000000000000000000000 DUP2 MSTORE POP SWAP1 ISZERO ISZERO PUSH2 0x266F JUMPI PUSH1 0x40 MLOAD PUSH32 0x8C379A000000000000000000000000000000000000000000000000000000000 DUP2 MSTORE PUSH1 0x4 ADD PUSH2 0x2666 SWAP2 SWAP1 PUSH2 0x6B04 JUMP JUMPDEST PUSH1 0x40 MLOAD DUP1 SWAP2 SUB SWAP1 REVERT JUMPDEST POP PUSH2 0x267E DUP8 DUP7 PUSH1 0x0 ADD MLOAD PUSH2 0x4428 JUMP JUMPDEST SWAP3 POP PUSH2 0x26C1 DUP9 DUP6 DUP2 MLOAD DUP2 LT ISZERO ISZERO PUSH2 0x2691 JUMPI INVALID JUMPDEST SWAP1 PUSH1 0x20 ADD SWAP1 PUSH1 0x20 MUL ADD MLOAD PUSH1 0xA0 ADD MLOAD DUP10 DUP7 DUP2 MLOAD DUP2 LT ISZERO ISZERO PUSH2 0x26AD JUMPI INVALID JUMPDEST SWAP1 PUSH1 0x20 ADD SWAP1 PUSH1 0x20 MUL ADD MLOAD PUSH1 0x80 ADD MLOAD DUP6 PUSH2 0x44B5 JUMP JUMPDEST SWAP2 POP PUSH2 0x26FC DUP9 DUP6 DUP2 MLOAD DUP2 LT ISZERO ISZERO PUSH2 0x26D4 JUMPI INVALID JUMPDEST SWAP1 PUSH1 0x20 ADD SWAP1 PUSH1 0x20 MUL ADD MLOAD DUP4 DUP9 DUP8 DUP2 MLOAD DUP2 LT ISZERO ISZERO PUSH2 0x26ED JUMPI INVALID JUMPDEST SWAP1 PUSH1 0x20 ADD SWAP1 PUSH1 0x20 MUL ADD MLOAD PUSH2 0x1BD3 JUMP JUMPDEST SWAP1 POP PUSH2 0x2708 DUP6 DUP3 PUSH2 0x4529 JUMP JUMPDEST DUP7 DUP6 PUSH1 0x0 ADD MLOAD EQ ISZERO PUSH2 0x2719 JUMPI PUSH2 0x2726 JUMP JUMPDEST DUP4 DUP1 PUSH1 0x1 ADD SWAP5 POP POP PUSH2 0x2583 JUMP JUMPDEST DUP5 SWAP5 POP POP POP POP POP SWAP4 SWAP3 POP POP POP JUMP JUMPDEST PUSH1 0x8 PUSH1 0x0 SWAP1 SLOAD SWAP1 PUSH2 0x100 EXP SWAP1 DIV PUSH20 0xFFFFFFFFFFFFFFFFFFFFFFFFFFFFFFFFFFFFFFFF AND DUP2 JUMP JUMPDEST PUSH1 0x3 PUSH1 0x0 SWAP1 SLOAD SWAP1 PUSH2 0x100 EXP SWAP1 DIV PUSH20 0xFFFFFFFFFFFFFFFFFFFFFFFFFFFFFFFFFFFFFFFF AND PUSH20 0xFFFFFFFFFFFFFFFFFFFFFFFFFFFFFFFFFFFFFFFF AND CALLER PUSH20 0xFFFFFFFFFFFFFFFFFFFFFFFFFFFFFFFFFFFFFFFF AND EQ ISZERO ISZERO PUSH2 0x27EC JUMPI PUSH1 0x40 MLOAD PUSH32 0x8C379A000000000000000000000000000000000000000000000000000000000 DUP2 MSTORE PUSH1 0x4 ADD PUSH2 0x27E3 SWAP1 PUSH2 0x6B26 JUMP JUMPDEST PUSH1 0x40 MLOAD DUP1 SWAP2 SUB SWAP1 REVERT JUMPDEST PUSH1 0x0 PUSH20 0xFFFFFFFFFFFFFFFFFFFFFFFFFFFFFFFFFFFFFFFF AND DUP2 PUSH20 0xFFFFFFFFFFFFFFFFFFFFFFFFFFFFFFFFFFFFFFFF AND EQ ISZERO ISZERO PUSH2 0x2864 JUMPI DUP1 PUSH1 0x3 PUSH1 0x0 PUSH2 0x100 EXP DUP2 SLOAD DUP2 PUSH20 0xFFFFFFFFFFFFFFFFFFFFFFFFFFFFFFFFFFFFFFFF MUL NOT AND SWAP1 DUP4 PUSH20 0xFFFFFFFFFFFFFFFFFFFFFFFFFFFFFFFFFFFFFFFF AND MUL OR SWAP1 SSTORE POP JUMPDEST POP JUMP JUMPDEST PUSH1 0x40 DUP1 MLOAD SWAP1 DUP2 ADD PUSH1 0x40 MSTORE DUP1 PUSH1 0xB DUP2 MSTORE PUSH1 0x20 ADD PUSH32 0x322E302E312D616C706861000000000000000000000000000000000000000000 DUP2 MSTORE POP DUP2 JUMP JUMPDEST PUSH1 0x0 DUP1 PUSH1 0x0 DUP1 PUSH1 0x0 DUP1 PUSH1 0x0 PUSH1 0x1 DUP9 MLOAD LT ISZERO PUSH1 0x40 DUP1 MLOAD SWAP1 DUP2 ADD PUSH1 0x40 MSTORE DUP1 PUSH1 0x19 DUP2 MSTORE PUSH1 0x20 ADD PUSH32 0x496E76616C6964207369676E6174757265206C656E6774682E00000000000000 DUP2 MSTORE POP SWAP1 ISZERO ISZERO PUSH2 0x292A JUMPI PUSH1 0x40 MLOAD PUSH32 0x8C379A000000000000000000000000000000000000000000000000000000000 DUP2 MSTORE PUSH1 0x4 ADD PUSH2 0x2921 SWAP2 SWAP1 PUSH2 0x6B04 JUMP JUMPDEST PUSH1 0x40 MLOAD DUP1 SWAP2 SUB SWAP1 REVERT JUMPDEST POP PUSH2 0x2934 DUP9 PUSH2 0x5160 JUMP JUMPDEST PUSH32 0x100000000000000000000000000000000000000000000000000000000000000 SWAP1 DIV PUSH1 0xFF AND PUSH1 0x8 DUP2 GT ISZERO PUSH2 0x2965 JUMPI INVALID JUMPDEST SWAP6 POP PUSH1 0x0 PUSH1 0x8 DUP2 GT ISZERO PUSH2 0x2974 JUMPI INVALID JUMPDEST DUP7 PUSH1 0x8 DUP2 GT ISZERO PUSH2 0x2980 JUMPI INVALID JUMPDEST EQ ISZERO PUSH2 0x29F8 JUMPI PUSH1 0x40 DUP1 MLOAD SWAP1 DUP2 ADD PUSH1 0x40 MSTORE DUP1 PUSH1 0x17 DUP2 MSTORE PUSH1 0x20 ADD PUSH32 0x496C6C6567616C207369676E617475726520747970652E000000000000000000 DUP2 MSTORE POP PUSH1 0x40 MLOAD PUSH32 0x8C379A000000000000000000000000000000000000000000000000000000000 DUP2 MSTORE PUSH1 0x4 ADD PUSH2 0x29EF SWAP2 SWAP1 PUSH2 0x6B04 JUMP JUMPDEST PUSH1 0x40 MLOAD DUP1 SWAP2 SUB SWAP1 REVERT JUMPDEST PUSH1 0x1 PUSH1 0x8 DUP2 GT ISZERO PUSH2 0x2A05 JUMPI INVALID JUMPDEST DUP7 PUSH1 0x8 DUP2 GT ISZERO PUSH2 0x2A11 JUMPI INVALID JUMPDEST EQ ISZERO PUSH2 0x2AA2 JUMPI PUSH1 0x0 DUP9 MLOAD EQ PUSH1 0x40 DUP1 MLOAD SWAP1 DUP2 ADD PUSH1 0x40 MSTORE DUP1 PUSH1 0x19 DUP2 MSTORE PUSH1 0x20 ADD PUSH32 0x496E76616C6964207369676E6174757265206C656E6774682E00000000000000 DUP2 MSTORE POP SWAP1 ISZERO ISZERO PUSH2 0x2A95 JUMPI PUSH1 0x40 MLOAD PUSH32 0x8C379A000000000000000000000000000000000000000000000000000000000 DUP2 MSTORE PUSH1 0x4 ADD PUSH2 0x2A8C SWAP2 SWAP1 PUSH2 0x6B04 JUMP JUMPDEST PUSH1 0x40 MLOAD DUP1 SWAP2 SUB SWAP1 REVERT JUMPDEST POP PUSH1 0x0 SWAP7 POP DUP7 SWAP7 POP PUSH2 0x3525 JUMP JUMPDEST PUSH1 0x2 PUSH1 0x8 DUP2 GT ISZERO PUSH2 0x2AAF JUMPI INVALID JUMPDEST DUP7 PUSH1 0x8 DUP2 GT ISZERO PUSH2 0x2ABB JUMPI INVALID JUMPDEST EQ ISZERO PUSH2 0x2C65 JUMPI PUSH1 0x41 DUP9 MLOAD EQ PUSH1 0x40 DUP1 MLOAD SWAP1 DUP2 ADD PUSH1 0x40 MSTORE DUP1 PUSH1 0x19 DUP2 MSTORE PUSH1 0x20 ADD PUSH32 0x496E76616C6964207369676E6174757265206C656E6774682E00000000000000 DUP2 MSTORE POP SWAP1 ISZERO ISZERO PUSH2 0x2B3F JUMPI PUSH1 0x40 MLOAD PUSH32 0x8C379A000000000000000000000000000000000000000000000000000000000 DUP2 MSTORE PUSH1 0x4 ADD PUSH2 0x2B36 SWAP2 SWAP1 PUSH2 0x6B04 JUMP JUMPDEST PUSH1 0x40 MLOAD DUP1 SWAP2 SUB SWAP1 REVERT JUMPDEST POP DUP8 PUSH1 0x0 DUP2 MLOAD DUP2 LT ISZERO ISZERO PUSH2 0x2B4F JUMPI INVALID JUMPDEST SWAP1 PUSH1 0x20 ADD ADD MLOAD PUSH32 0x100000000000000000000000000000000000000000000000000000000000000 SWAP1 DIV PUSH32 0x100000000000000000000000000000000000000000000000000000000000000 MUL PUSH32 0x100000000000000000000000000000000000000000000000000000000000000 SWAP1 DIV SWAP5 POP PUSH2 0x2BCA DUP9 PUSH1 0x1 PUSH2 0x5250 JUMP JUMPDEST SWAP4 POP PUSH2 0x2BD7 DUP9 PUSH1 0x21 PUSH2 0x5250 JUMP JUMPDEST SWAP3 POP PUSH1 0x1 DUP11 DUP7 DUP7 DUP7 PUSH1 0x40 MLOAD PUSH1 0x0 DUP2 MSTORE PUSH1 0x20 ADD PUSH1 0x40 MSTORE PUSH1 0x40 MLOAD PUSH2 0x2BFC SWAP5 SWAP4 SWAP3 SWAP2 SWAP1 PUSH2 0x69FF JUMP JUMPDEST PUSH1 0x20 PUSH1 0x40 MLOAD PUSH1 0x20 DUP2 SUB SWAP1 DUP1 DUP5 SUB SWAP1 PUSH1 0x0 DUP7 GAS CALL ISZERO DUP1 ISZERO PUSH2 0x2C20 JUMPI RETURNDATASIZE PUSH1 0x0 DUP1 RETURNDATACOPY RETURNDATASIZE PUSH1 0x0 REVERT JUMPDEST POP POP POP PUSH1 0x20 PUSH1 0x40 MLOAD SUB MLOAD SWAP2 POP DUP2 PUSH20 0xFFFFFFFFFFFFFFFFFFFFFFFFFFFFFFFFFFFFFFFF AND DUP10 PUSH20 0xFFFFFFFFFFFFFFFFFFFFFFFFFFFFFFFFFFFFFFFF AND EQ SWAP7 POP DUP7 SWAP7 POP PUSH2 0x3525 JUMP JUMPDEST PUSH1 0x3 PUSH1 0x8 DUP2 GT ISZERO PUSH2 0x2C72 JUMPI INVALID JUMPDEST DUP7 PUSH1 0x8 DUP2 GT ISZERO PUSH2 0x2C7E JUMPI INVALID JUMPDEST EQ ISZERO PUSH2 0x2E6D JUMPI PUSH1 0x41 DUP9 MLOAD EQ PUSH1 0x40 DUP1 MLOAD SWAP1 DUP2 ADD PUSH1 0x40 MSTORE DUP1 PUSH1 0x19 DUP2 MSTORE PUSH1 0x20 ADD PUSH32 0x496E76616C6964207369676E6174757265206C656E6774682E00000000000000 DUP2 MSTORE POP SWAP1 ISZERO ISZERO PUSH2 0x2D02 JUMPI PUSH1 0x40 MLOAD PUSH32 0x8C379A000000000000000000000000000000000000000000000000000000000 DUP2 MSTORE PUSH1 0x4 ADD PUSH2 0x2CF9 SWAP2 SWAP1 PUSH2 0x6B04 JUMP JUMPDEST PUSH1 0x40 MLOAD DUP1 SWAP2 SUB SWAP1 REVERT JUMPDEST POP DUP8 PUSH1 0x0 DUP2 MLOAD DUP2 LT ISZERO ISZERO PUSH2 0x2D12 JUMPI INVALID JUMPDEST SWAP1 PUSH1 0x20 ADD ADD MLOAD PUSH32 0x100000000000000000000000000000000000000000000000000000000000000 SWAP1 DIV PUSH32 0x100000000000000000000000000000000000000000000000000000000000000 MUL PUSH32 0x100000000000000000000000000000000000000000000000000000000000000 SWAP1 DIV SWAP5 POP PUSH2 0x2D8D DUP9 PUSH1 0x1 PUSH2 0x5250 JUMP JUMPDEST SWAP4 POP PUSH2 0x2D9A DUP9 PUSH1 0x21 PUSH2 0x5250 JUMP JUMPDEST SWAP3 POP PUSH1 0x1 DUP11 PUSH1 0x40 MLOAD DUP1 DUP1 PUSH32 0x19457468657265756D205369676E6564204D6573736167653A0A333200000000 DUP2 MSTORE POP PUSH1 0x1C ADD DUP3 PUSH1 0x0 NOT AND PUSH1 0x0 NOT AND DUP2 MSTORE PUSH1 0x20 ADD SWAP2 POP POP PUSH1 0x40 MLOAD DUP1 SWAP2 SUB SWAP1 KECCAK256 DUP7 DUP7 DUP7 PUSH1 0x40 MLOAD PUSH1 0x0 DUP2 MSTORE PUSH1 0x20 ADD PUSH1 0x40 MSTORE PUSH1 0x40 MLOAD PUSH2 0x2E04 SWAP5 SWAP4 SWAP3 SWAP2 SWAP1 PUSH2 0x69FF JUMP JUMPDEST PUSH1 0x20 PUSH1 0x40 MLOAD PUSH1 0x20 DUP2 SUB SWAP1 DUP1 DUP5 SUB SWAP1 PUSH1 0x0 DUP7 GAS CALL ISZERO DUP1 ISZERO PUSH2 0x2E28 JUMPI RETURNDATASIZE PUSH1 0x0 DUP1 RETURNDATACOPY RETURNDATASIZE PUSH1 0x0 REVERT JUMPDEST POP POP POP PUSH1 0x20 PUSH1 0x40 MLOAD SUB MLOAD SWAP2 POP DUP2 PUSH20 0xFFFFFFFFFFFFFFFFFFFFFFFFFFFFFFFFFFFFFFFF AND DUP10 PUSH20 0xFFFFFFFFFFFFFFFFFFFFFFFFFFFFFFFFFFFFFFFF AND EQ SWAP7 POP DUP7 SWAP7 POP PUSH2 0x3525 JUMP JUMPDEST PUSH1 0x4 PUSH1 0x8 DUP2 GT ISZERO PUSH2 0x2E7A JUMPI INVALID JUMPDEST DUP7 PUSH1 0x8 DUP2 GT ISZERO PUSH2 0x2E86 JUMPI INVALID JUMPDEST EQ ISZERO PUSH2 0x2F44 JUMPI PUSH1 0x0 DUP9 MLOAD EQ PUSH1 0x40 DUP1 MLOAD SWAP1 DUP2 ADD PUSH1 0x40 MSTORE DUP1 PUSH1 0x19 DUP2 MSTORE PUSH1 0x20 ADD PUSH32 0x496E76616C6964207369676E6174757265206C656E6774682E00000000000000 DUP2 MSTORE POP SWAP1 ISZERO ISZERO PUSH2 0x2F0A JUMPI PUSH1 0x40 MLOAD PUSH32 0x8C379A000000000000000000000000000000000000000000000000000000000 DUP2 MSTORE PUSH1 0x4 ADD PUSH2 0x2F01 SWAP2 SWAP1 PUSH2 0x6B04 JUMP JUMPDEST PUSH1 0x40 MLOAD DUP1 SWAP2 SUB SWAP1 REVERT JUMPDEST POP CALLER PUSH20 0xFFFFFFFFFFFFFFFFFFFFFFFFFFFFFFFFFFFFFFFF AND DUP10 PUSH20 0xFFFFFFFFFFFFFFFFFFFFFFFFFFFFFFFFFFFFFFFF AND EQ SWAP7 POP DUP7 SWAP7 POP PUSH2 0x3525 JUMP JUMPDEST PUSH1 0x5 PUSH1 0x8 DUP2 GT ISZERO PUSH2 0x2F51 JUMPI INVALID JUMPDEST DUP7 PUSH1 0x8 DUP2 GT ISZERO PUSH2 0x2F5D JUMPI INVALID JUMPDEST EQ ISZERO PUSH2 0x3016 JUMPI DUP9 PUSH20 0xFFFFFFFFFFFFFFFFFFFFFFFFFFFFFFFFFFFFFFFF AND PUSH4 0x1626BA7E DUP12 DUP11 PUSH1 0x40 MLOAD DUP4 PUSH4 0xFFFFFFFF AND PUSH29 0x100000000000000000000000000000000000000000000000000000000 MUL DUP2 MSTORE PUSH1 0x4 ADD PUSH2 0x2FBA SWAP3 SWAP2 SWAP1 PUSH2 0x69CF JUMP JUMPDEST PUSH1 0x20 PUSH1 0x40 MLOAD DUP1 DUP4 SUB DUP2 PUSH1 0x0 DUP8 DUP1 EXTCODESIZE ISZERO DUP1 ISZERO PUSH2 0x2FD4 JUMPI PUSH1 0x0 DUP1 REVERT JUMPDEST POP GAS CALL ISZERO DUP1 ISZERO PUSH2 0x2FE8 JUMPI RETURNDATASIZE PUSH1 0x0 DUP1 RETURNDATACOPY RETURNDATASIZE PUSH1 0x0 REVERT JUMPDEST POP POP POP POP PUSH1 0x40 MLOAD RETURNDATASIZE PUSH1 0x1F NOT PUSH1 0x1F DUP3 ADD AND DUP3 ADD DUP1 PUSH1 0x40 MSTORE POP PUSH2 0x300C SWAP2 SWAP1 DUP2 ADD SWAP1 PUSH2 0x61F8 JUMP JUMPDEST SWAP7 POP DUP7 SWAP7 POP PUSH2 0x3525 JUMP JUMPDEST PUSH1 0x6 PUSH1 0x8 DUP2 GT ISZERO PUSH2 0x3023 JUMPI INVALID JUMPDEST DUP7 PUSH1 0x8 DUP2 GT ISZERO PUSH2 0x302F JUMPI INVALID JUMPDEST EQ ISZERO PUSH2 0x318E JUMPI PUSH2 0x303E DUP9 PUSH2 0x5310 JUMP JUMPDEST SWAP1 POP PUSH1 0x6 PUSH1 0x0 DUP11 PUSH20 0xFFFFFFFFFFFFFFFFFFFFFFFFFFFFFFFFFFFFFFFF AND PUSH20 0xFFFFFFFFFFFFFFFFFFFFFFFFFFFFFFFFFFFFFFFF AND DUP2 MSTORE PUSH1 0x20 ADD SWAP1 DUP2 MSTORE PUSH1 0x20 ADD PUSH1 0x0 KECCAK256 PUSH1 0x0 DUP3 PUSH20 0xFFFFFFFFFFFFFFFFFFFFFFFFFFFFFFFFFFFFFFFF AND PUSH20 0xFFFFFFFFFFFFFFFFFFFFFFFFFFFFFFFFFFFFFFFF AND DUP2 MSTORE PUSH1 0x20 ADD SWAP1 DUP2 MSTORE PUSH1 0x20 ADD PUSH1 0x0 KECCAK256 PUSH1 0x0 SWAP1 SLOAD SWAP1 PUSH2 0x100 EXP SWAP1 DIV PUSH1 0xFF AND ISZERO ISZERO PUSH2 0x30D9 JUMPI PUSH1 0x0 SWAP7 POP PUSH2 0x3525 JUMP JUMPDEST DUP1 PUSH20 0xFFFFFFFFFFFFFFFFFFFFFFFFFFFFFFFFFFFFFFFF AND PUSH4 0x93634702 DUP12 DUP12 DUP12 PUSH1 0x40 MLOAD DUP5 PUSH4 0xFFFFFFFF AND PUSH29 0x100000000000000000000000000000000000000000000000000000000 MUL DUP2 MSTORE PUSH1 0x4 ADD PUSH2 0x3132 SWAP4 SWAP3 SWAP2 SWAP1 PUSH2 0x6991 JUMP JUMPDEST PUSH1 0x20 PUSH1 0x40 MLOAD DUP1 DUP4 SUB DUP2 PUSH1 0x0 DUP8 DUP1 EXTCODESIZE ISZERO DUP1 ISZERO PUSH2 0x314C JUMPI PUSH1 0x0 DUP1 REVERT JUMPDEST POP GAS CALL ISZERO DUP1 ISZERO PUSH2 0x3160 JUMPI RETURNDATASIZE PUSH1 0x0 DUP1 RETURNDATACOPY RETURNDATASIZE PUSH1 0x0 REVERT JUMPDEST POP POP POP POP PUSH1 0x40 MLOAD RETURNDATASIZE PUSH1 0x1F NOT PUSH1 0x1F DUP3 ADD AND DUP3 ADD DUP1 PUSH1 0x40 MSTORE POP PUSH2 0x3184 SWAP2 SWAP1 DUP2 ADD SWAP1 PUSH2 0x61F8 JUMP JUMPDEST SWAP7 POP DUP7 SWAP7 POP PUSH2 0x3525 JUMP JUMPDEST PUSH1 0x7 PUSH1 0x8 DUP2 GT ISZERO PUSH2 0x319B JUMPI INVALID JUMPDEST DUP7 PUSH1 0x8 DUP2 GT ISZERO PUSH2 0x31A7 JUMPI INVALID JUMPDEST EQ ISZERO PUSH2 0x321D JUMPI PUSH1 0x5 PUSH1 0x0 DUP12 PUSH1 0x0 NOT AND PUSH1 0x0 NOT AND DUP2 MSTORE PUSH1 0x20 ADD SWAP1 DUP2 MSTORE PUSH1 0x20 ADD PUSH1 0x0 KECCAK256 PUSH1 0x0 DUP11 PUSH20 0xFFFFFFFFFFFFFFFFFFFFFFFFFFFFFFFFFFFFFFFF AND PUSH20 0xFFFFFFFFFFFFFFFFFFFFFFFFFFFFFFFFFFFFFFFF AND DUP2 MSTORE PUSH1 0x20 ADD SWAP1 DUP2 MSTORE PUSH1 0x20 ADD PUSH1 0x0 KECCAK256 PUSH1 0x0 SWAP1 SLOAD SWAP1 PUSH2 0x100 EXP SWAP1 DIV PUSH1 0xFF AND SWAP7 POP DUP7 SWAP7 POP PUSH2 0x3525 JUMP JUMPDEST PUSH1 0x8 DUP1 DUP2 GT ISZERO PUSH2 0x3229 JUMPI INVALID JUMPDEST DUP7 PUSH1 0x8 DUP2 GT ISZERO PUSH2 0x3235 JUMPI INVALID JUMPDEST EQ ISZERO PUSH2 0x3424 JUMPI PUSH1 0x41 DUP9 MLOAD EQ PUSH1 0x40 DUP1 MLOAD SWAP1 DUP2 ADD PUSH1 0x40 MSTORE DUP1 PUSH1 0x19 DUP2 MSTORE PUSH1 0x20 ADD PUSH32 0x496E76616C6964207369676E6174757265206C656E6774682E00000000000000 DUP2 MSTORE POP SWAP1 ISZERO ISZERO PUSH2 0x32B9 JUMPI PUSH1 0x40 MLOAD PUSH32 0x8C379A000000000000000000000000000000000000000000000000000000000 DUP2 MSTORE PUSH1 0x4 ADD PUSH2 0x32B0 SWAP2 SWAP1 PUSH2 0x6B04 JUMP JUMPDEST PUSH1 0x40 MLOAD DUP1 SWAP2 SUB SWAP1 REVERT JUMPDEST POP DUP8 PUSH1 0x0 DUP2 MLOAD DUP2 LT ISZERO ISZERO PUSH2 0x32C9 JUMPI INVALID JUMPDEST SWAP1 PUSH1 0x20 ADD ADD MLOAD PUSH32 0x100000000000000000000000000000000000000000000000000000000000000 SWAP1 DIV PUSH32 0x100000000000000000000000000000000000000000000000000000000000000 MUL PUSH32 0x100000000000000000000000000000000000000000000000000000000000000 SWAP1 DIV SWAP5 POP PUSH2 0x3344 DUP9 PUSH1 0x1 PUSH2 0x5250 JUMP JUMPDEST SWAP4 POP PUSH2 0x3351 DUP9 PUSH1 0x21 PUSH2 0x5250 JUMP JUMPDEST SWAP3 POP PUSH1 0x1 DUP11 PUSH1 0x40 MLOAD DUP1 DUP1 PUSH32 0x19457468657265756D205369676E6564204D6573736167653A0A410000000000 DUP2 MSTORE POP PUSH1 0x1B ADD DUP3 PUSH1 0x0 NOT AND PUSH1 0x0 NOT AND DUP2 MSTORE PUSH1 0x20 ADD SWAP2 POP POP PUSH1 0x40 MLOAD DUP1 SWAP2 SUB SWAP1 KECCAK256 DUP7 DUP7 DUP7 PUSH1 0x40 MLOAD PUSH1 0x0 DUP2 MSTORE PUSH1 0x20 ADD PUSH1 0x40 MSTORE PUSH1 0x40 MLOAD PUSH2 0x33BB SWAP5 SWAP4 SWAP3 SWAP2 SWAP1 PUSH2 0x69FF JUMP JUMPDEST PUSH1 0x20 PUSH1 0x40 MLOAD PUSH1 0x20 DUP2 SUB SWAP1 DUP1 DUP5 SUB SWAP1 PUSH1 0x0 DUP7 GAS CALL ISZERO DUP1 ISZERO PUSH2 0x33DF JUMPI RETURNDATASIZE PUSH1 0x0 DUP1 RETURNDATACOPY RETURNDATASIZE PUSH1 0x0 REVERT JUMPDEST POP POP POP PUSH1 0x20 PUSH1 0x40 MLOAD SUB MLOAD SWAP2 POP DUP2 PUSH20 0xFFFFFFFFFFFFFFFFFFFFFFFFFFFFFFFFFFFFFFFF AND DUP10 PUSH20 0xFFFFFFFFFFFFFFFFFFFFFFFFFFFFFFFFFFFFFFFF AND EQ SWAP7 POP DUP7 SWAP7 POP PUSH2 0x3525 JUMP JUMPDEST PUSH1 0x7 PUSH1 0x8 DUP2 GT ISZERO PUSH2 0x3431 JUMPI INVALID JUMPDEST DUP7 PUSH1 0x8 DUP2 GT ISZERO PUSH2 0x343D JUMPI INVALID JUMPDEST EQ ISZERO PUSH2 0x34B3 JUMPI PUSH1 0x5 PUSH1 0x0 DUP12 PUSH1 0x0 NOT AND PUSH1 0x0 NOT AND DUP2 MSTORE PUSH1 0x20 ADD SWAP1 DUP2 MSTORE PUSH1 0x20 ADD PUSH1 0x0 KECCAK256 PUSH1 0x0 DUP11 PUSH20 0xFFFFFFFFFFFFFFFFFFFFFFFFFFFFFFFFFFFFFFFF AND PUSH20 0xFFFFFFFFFFFFFFFFFFFFFFFFFFFFFFFFFFFFFFFF AND DUP2 MSTORE PUSH1 0x20 ADD SWAP1 DUP2 MSTORE PUSH1 0x20 ADD PUSH1 0x0 KECCAK256 PUSH1 0x0 SWAP1 SLOAD SWAP1 PUSH2 0x100 EXP SWAP1 DIV PUSH1 0xFF AND SWAP7 POP DUP7 SWAP7 POP PUSH2 0x3525 JUMP JUMPDEST PUSH1 0x40 DUP1 MLOAD SWAP1 DUP2 ADD PUSH1 0x40 MSTORE DUP1 PUSH1 0x1B DUP2 MSTORE PUSH1 0x20 ADD PUSH32 0x556E737570706F72746564207369676E617475726520747970652E0000000000 DUP2 MSTORE POP PUSH1 0x40 MLOAD PUSH32 0x8C379A000000000000000000000000000000000000000000000000000000000 DUP2 MSTORE PUSH1 0x4 ADD PUSH2 0x351C SWAP2 SWAP1 PUSH2 0x6B04 JUMP JUMPDEST PUSH1 0x40 MLOAD DUP1 SWAP2 SUB SWAP1 REVERT JUMPDEST POP POP POP POP POP POP SWAP4 SWAP3 POP POP POP JUMP JUMPDEST PUSH1 0x0 DUP1 PUSH1 0x0 PUSH20 0xFFFFFFFFFFFFFFFFFFFFFFFFFFFFFFFFFFFFFFFF AND PUSH1 0x8 PUSH1 0x0 SWAP1 SLOAD SWAP1 PUSH2 0x100 EXP SWAP1 DIV PUSH20 0xFFFFFFFFFFFFFFFFFFFFFFFFFFFFFFFFFFFFFFFF AND PUSH20 0xFFFFFFFFFFFFFFFFFFFFFFFFFFFFFFFFFFFFFFFF AND EQ PUSH2 0x35B3 JUMPI PUSH1 0x8 PUSH1 0x0 SWAP1 SLOAD SWAP1 PUSH2 0x100 EXP SWAP1 DIV PUSH20 0xFFFFFFFFFFFFFFFFFFFFFFFFFFFFFFFFFFFFFFFF AND PUSH2 0x35B5 JUMP JUMPDEST CALLER JUMPDEST SWAP1 POP DUP1 SWAP2 POP POP SWAP1 JUMP JUMPDEST PUSH2 0x35D2 DUP3 PUSH2 0x140 ADD MLOAD DUP3 PUSH2 0x160 ADD MLOAD PUSH2 0x44D6 JUMP JUMPDEST PUSH1 0x80 PUSH1 0x40 MLOAD SWAP1 DUP2 ADD PUSH1 0x40 MSTORE DUP1 PUSH1 0x41 DUP2 MSTORE PUSH1 0x20 ADD PUSH32 0x4C656674206F72646572206D616B657220617373657420697320646966666572 DUP2 MSTORE PUSH1 0x20 ADD PUSH32 0x656E742066726F6D207269676874206F726465722074616B6572206173736574 DUP2 MSTORE PUSH1 0x20 ADD PUSH32 0x2E00000000000000000000000000000000000000000000000000000000000000 DUP2 MSTORE POP SWAP1 ISZERO ISZERO PUSH2 0x3698 JUMPI PUSH1 0x40 MLOAD PUSH32 0x8C379A000000000000000000000000000000000000000000000000000000000 DUP2 MSTORE PUSH1 0x4 ADD PUSH2 0x368F SWAP2 SWAP1 PUSH2 0x6B04 JUMP JUMPDEST PUSH1 0x40 MLOAD DUP1 SWAP2 SUB SWAP1 REVERT JUMPDEST POP PUSH2 0x36AD DUP3 PUSH2 0x160 ADD MLOAD DUP3 PUSH2 0x140 ADD MLOAD PUSH2 0x44D6 JUMP JUMPDEST PUSH1 0x80 PUSH1 0x40 MLOAD SWAP1 DUP2 ADD PUSH1 0x40 MSTORE DUP1 PUSH1 0x41 DUP2 MSTORE PUSH1 0x20 ADD PUSH32 0x4C656674206F726465722074616B657220617373657420697320646966666572 DUP2 MSTORE PUSH1 0x20 ADD PUSH32 0x656E742066726F6D207269676874206F72646572206D616B6572206173736574 DUP2 MSTORE PUSH1 0x20 ADD PUSH32 0x2E00000000000000000000000000000000000000000000000000000000000000 DUP2 MSTORE POP SWAP1 ISZERO ISZERO PUSH2 0x3773 JUMPI PUSH1 0x40 MLOAD PUSH32 0x8C379A000000000000000000000000000000000000000000000000000000000 DUP2 MSTORE PUSH1 0x4 ADD PUSH2 0x376A SWAP2 SWAP1 PUSH2 0x6B04 JUMP JUMPDEST PUSH1 0x40 MLOAD DUP1 SWAP2 SUB SWAP1 REVERT JUMPDEST POP PUSH2 0x3786 DUP3 PUSH1 0xA0 ADD MLOAD DUP3 PUSH1 0xA0 ADD MLOAD PUSH2 0x53DA JUMP JUMPDEST PUSH2 0x3798 DUP4 PUSH1 0x80 ADD MLOAD DUP4 PUSH1 0x80 ADD MLOAD PUSH2 0x53DA JUMP JUMPDEST LT ISZERO PUSH1 0x60 PUSH1 0x40 MLOAD SWAP1 DUP2 ADD PUSH1 0x40 MSTORE DUP1 PUSH1 0x2B DUP2 MSTORE PUSH1 0x20 ADD PUSH32 0x4D617463686564206F7264657273206D7573742068617665206120706F736974 DUP2 MSTORE PUSH1 0x20 ADD PUSH32 0x697665207370726561642E000000000000000000000000000000000000000000 DUP2 MSTORE POP SWAP1 ISZERO ISZERO PUSH2 0x383A JUMPI PUSH1 0x40 MLOAD PUSH32 0x8C379A000000000000000000000000000000000000000000000000000000000 DUP2 MSTORE PUSH1 0x4 ADD PUSH2 0x3831 SWAP2 SWAP1 PUSH2 0x6B04 JUMP JUMPDEST PUSH1 0x40 MLOAD DUP1 SWAP2 SUB SWAP1 REVERT JUMPDEST POP POP POP JUMP JUMPDEST PUSH2 0x3847 PUSH2 0x59C6 JUMP JUMPDEST PUSH1 0x0 DUP1 PUSH1 0x0 DUP1 PUSH1 0x0 PUSH2 0x385D DUP12 PUSH1 0xA0 ADD MLOAD DUP9 PUSH2 0x4428 JUMP JUMPDEST SWAP5 POP PUSH2 0x386D DUP13 PUSH1 0xA0 ADD MLOAD DUP10 PUSH2 0x4428 JUMP JUMPDEST SWAP4 POP PUSH2 0x387D DUP6 DUP13 PUSH1 0x80 ADD MLOAD PUSH2 0x53DA JUMP JUMPDEST PUSH2 0x388B DUP6 DUP14 PUSH1 0xA0 ADD MLOAD PUSH2 0x53DA JUMP JUMPDEST GT ISZERO ISZERO PUSH2 0x38AF JUMPI DUP4 SWAP3 POP PUSH2 0x38A8 DUP12 PUSH1 0xA0 ADD MLOAD DUP13 PUSH1 0x80 ADD MLOAD DUP6 PUSH2 0x540D JUMP JUMPDEST SWAP2 POP PUSH2 0x38C8 JUMP JUMPDEST DUP5 SWAP2 POP PUSH2 0x38C5 DUP12 PUSH1 0x80 ADD MLOAD DUP13 PUSH1 0xA0 ADD MLOAD DUP5 PUSH2 0x540D JUMP JUMPDEST SWAP3 POP JUMPDEST PUSH2 0x38D4 DUP13 DUP12 DUP11 DUP7 PUSH2 0x15E0 JUMP JUMPDEST DUP1 SWAP1 POP DUP8 PUSH1 0x0 ADD DUP2 SWAP1 MSTORE DUP2 SWAP3 POP POP POP PUSH1 0x1 PUSH1 0xE DUP2 GT ISZERO PUSH2 0x38F0 JUMPI INVALID JUMPDEST PUSH1 0xFF AND DUP2 PUSH1 0xFF AND EQ PUSH1 0x60 PUSH1 0x40 MLOAD SWAP1 DUP2 ADD PUSH1 0x40 MSTORE DUP1 PUSH1 0x30 DUP2 MSTORE PUSH1 0x20 ADD PUSH32 0x4661696C656420746F2063616C63756C6174652066696C6C20726573756C7473 DUP2 MSTORE PUSH1 0x20 ADD PUSH32 0x20666F72206C656674206F726465722E00000000000000000000000000000000 DUP2 MSTORE POP SWAP1 ISZERO ISZERO PUSH2 0x3998 JUMPI PUSH1 0x40 MLOAD PUSH32 0x8C379A000000000000000000000000000000000000000000000000000000000 DUP2 MSTORE PUSH1 0x4 ADD PUSH2 0x398F SWAP2 SWAP1 PUSH2 0x6B04 JUMP JUMPDEST PUSH1 0x40 MLOAD DUP1 SWAP2 SUB SWAP1 REVERT JUMPDEST POP PUSH2 0x39A5 DUP12 DUP11 DUP10 DUP6 PUSH2 0x15E0 JUMP JUMPDEST DUP1 SWAP1 POP DUP8 PUSH1 0x20 ADD DUP2 SWAP1 MSTORE DUP2 SWAP3 POP POP POP PUSH1 0x1 PUSH1 0xE DUP2 GT ISZERO PUSH2 0x39C1 JUMPI INVALID JUMPDEST PUSH1 0xFF AND DUP2 PUSH1 0xFF AND EQ PUSH1 0x60 PUSH1 0x40 MLOAD SWAP1 DUP2 ADD PUSH1 0x40 MSTORE DUP1 PUSH1 0x31 DUP2 MSTORE PUSH1 0x20 ADD PUSH32 0x4661696C656420746F2063616C63756C6174652066696C6C20726573756C7473 DUP2 MSTORE PUSH1 0x20 ADD PUSH32 0x20666F72207269676874206F726465722E000000000000000000000000000000 DUP2 MSTORE POP SWAP1 ISZERO ISZERO PUSH2 0x3A69 JUMPI PUSH1 0x40 MLOAD PUSH32 0x8C379A000000000000000000000000000000000000000000000000000000000 DUP2 MSTORE PUSH1 0x4 ADD PUSH2 0x3A60 SWAP2 SWAP1 PUSH2 0x6B04 JUMP JUMPDEST PUSH1 0x40 MLOAD DUP1 SWAP2 SUB SWAP1 REVERT JUMPDEST POP PUSH2 0x3A84 DUP7 PUSH1 0x0 ADD MLOAD PUSH1 0x0 ADD MLOAD DUP8 PUSH1 0x20 ADD MLOAD PUSH1 0x20 ADD MLOAD PUSH2 0x4428 JUMP JUMPDEST DUP7 PUSH1 0x40 ADD DUP2 DUP2 MSTORE POP POP PUSH2 0x3A96 DUP7 PUSH2 0x54F6 JUMP JUMPDEST DUP6 SWAP6 POP POP POP POP POP POP SWAP7 SWAP6 POP POP POP POP POP POP JUMP JUMPDEST PUSH1 0x9 PUSH1 0xE DUP2 GT ISZERO PUSH2 0x3AB5 JUMPI INVALID JUMPDEST PUSH1 0xFF AND DUP7 PUSH1 0xFF AND EQ ISZERO PUSH1 0x60 PUSH1 0x40 MLOAD SWAP1 DUP2 ADD PUSH1 0x40 MSTORE DUP1 PUSH1 0x3C DUP2 MSTORE PUSH1 0x20 ADD PUSH32 0x496E76616C6964206F72646572206D616B657220617373657420616D6F756E74 DUP2 MSTORE PUSH1 0x20 ADD PUSH32 0x3A2065787065637465642061206E6F6E2D7A65726F2076616C75652E00000000 DUP2 MSTORE POP SWAP1 ISZERO ISZERO PUSH2 0x3B5E JUMPI PUSH1 0x40 MLOAD PUSH32 0x8C379A000000000000000000000000000000000000000000000000000000000 DUP2 MSTORE PUSH1 0x4 ADD PUSH2 0x3B55 SWAP2 SWAP1 PUSH2 0x6B04 JUMP JUMPDEST PUSH1 0x40 MLOAD DUP1 SWAP2 SUB SWAP1 REVERT JUMPDEST POP PUSH1 0xA PUSH1 0xE DUP2 GT ISZERO PUSH2 0x3B6C JUMPI INVALID JUMPDEST PUSH1 0xFF AND DUP7 PUSH1 0xFF AND EQ ISZERO PUSH1 0x60 PUSH1 0x40 MLOAD SWAP1 DUP2 ADD PUSH1 0x40 MSTORE DUP1 PUSH1 0x3C DUP2 MSTORE PUSH1 0x20 ADD PUSH32 0x496E76616C6964206F726465722074616B657220617373657420616D6F756E74 DUP2 MSTORE PUSH1 0x20 ADD PUSH32 0x3A2065787065637465642061206E6F6E2D7A65726F2076616C75652E00000000 DUP2 MSTORE POP SWAP1 ISZERO ISZERO PUSH2 0x3C15 JUMPI PUSH1 0x40 MLOAD PUSH32 0x8C379A000000000000000000000000000000000000000000000000000000000 DUP2 MSTORE PUSH1 0x4 ADD PUSH2 0x3C0C SWAP2 SWAP1 PUSH2 0x6B04 JUMP JUMPDEST PUSH1 0x40 MLOAD DUP1 SWAP2 SUB SWAP1 REVERT JUMPDEST POP PUSH1 0x0 DUP4 EQ ISZERO PUSH2 0x3CA9 JUMPI PUSH2 0x3C2E DUP6 DUP9 PUSH1 0x0 ADD MLOAD DUP4 PUSH2 0x28A0 JUMP JUMPDEST PUSH1 0x40 DUP1 MLOAD SWAP1 DUP2 ADD PUSH1 0x40 MSTORE DUP1 PUSH1 0x1C DUP2 MSTORE PUSH1 0x20 ADD PUSH32 0x5369676E61747572652076616C69646174696F6E206661696C65642E00000000 DUP2 MSTORE POP SWAP1 ISZERO ISZERO PUSH2 0x3CA7 JUMPI PUSH1 0x40 MLOAD PUSH32 0x8C379A000000000000000000000000000000000000000000000000000000000 DUP2 MSTORE PUSH1 0x4 ADD PUSH2 0x3C9E SWAP2 SWAP1 PUSH2 0x6B04 JUMP JUMPDEST PUSH1 0x40 MLOAD DUP1 SWAP2 SUB SWAP1 REVERT JUMPDEST POP JUMPDEST PUSH1 0x0 PUSH20 0xFFFFFFFFFFFFFFFFFFFFFFFFFFFFFFFFFFFFFFFF AND DUP8 PUSH1 0x60 ADD MLOAD PUSH20 0xFFFFFFFFFFFFFFFFFFFFFFFFFFFFFFFFFFFFFFFF AND EQ ISZERO ISZERO PUSH2 0x3D91 JUMPI CALLER PUSH20 0xFFFFFFFFFFFFFFFFFFFFFFFFFFFFFFFFFFFFFFFF AND DUP8 PUSH1 0x60 ADD MLOAD PUSH20 0xFFFFFFFFFFFFFFFFFFFFFFFFFFFFFFFFFFFFFFFF AND EQ PUSH1 0x40 DUP1 MLOAD SWAP1 DUP2 ADD PUSH1 0x40 MSTORE DUP1 PUSH1 0x15 DUP2 MSTORE PUSH1 0x20 ADD PUSH32 0x496E76616C696420606D73672E73656E646572602E0000000000000000000000 DUP2 MSTORE POP SWAP1 ISZERO ISZERO PUSH2 0x3D8F JUMPI PUSH1 0x40 MLOAD PUSH32 0x8C379A000000000000000000000000000000000000000000000000000000000 DUP2 MSTORE PUSH1 0x4 ADD PUSH2 0x3D86 SWAP2 SWAP1 PUSH2 0x6B04 JUMP JUMPDEST PUSH1 0x40 MLOAD DUP1 SWAP2 SUB SWAP1 REVERT JUMPDEST POP JUMPDEST PUSH1 0x0 PUSH20 0xFFFFFFFFFFFFFFFFFFFFFFFFFFFFFFFFFFFFFFFF AND DUP8 PUSH1 0x20 ADD MLOAD PUSH20 0xFFFFFFFFFFFFFFFFFFFFFFFFFFFFFFFFFFFFFFFF AND EQ ISZERO ISZERO PUSH2 0x3EA0 JUMPI DUP4 PUSH20 0xFFFFFFFFFFFFFFFFFFFFFFFFFFFFFFFFFFFFFFFF AND DUP8 PUSH1 0x20 ADD MLOAD PUSH20 0xFFFFFFFFFFFFFFFFFFFFFFFFFFFFFFFFFFFFFFFF AND EQ PUSH1 0x60 PUSH1 0x40 MLOAD SWAP1 DUP2 ADD PUSH1 0x40 MSTORE DUP1 PUSH1 0x26 DUP2 MSTORE PUSH1 0x20 ADD PUSH32 0x46756E6374696F6E2063616C6C656420696E20616E20696E76616C696420636F DUP2 MSTORE PUSH1 0x20 ADD PUSH32 0x6E746578742E0000000000000000000000000000000000000000000000000000 DUP2 MSTORE POP SWAP1 ISZERO ISZERO PUSH2 0x3E9E JUMPI PUSH1 0x40 MLOAD PUSH32 0x8C379A000000000000000000000000000000000000000000000000000000000 DUP2 MSTORE PUSH1 0x4 ADD PUSH2 0x3E95 SWAP2 SWAP1 PUSH2 0x6B04 JUMP JUMPDEST PUSH1 0x40 MLOAD DUP1 SWAP2 SUB SWAP1 REVERT JUMPDEST POP JUMPDEST PUSH1 0x0 DUP3 GT PUSH1 0x40 DUP1 MLOAD SWAP1 DUP2 ADD PUSH1 0x40 MSTORE DUP1 PUSH1 0x1E DUP2 MSTORE PUSH1 0x20 ADD PUSH32 0x416D6F756E74206D7573742062652067726561746572207468616E20302E0000 DUP2 MSTORE POP SWAP1 ISZERO ISZERO PUSH2 0x3F1D JUMPI PUSH1 0x40 MLOAD PUSH32 0x8C379A000000000000000000000000000000000000000000000000000000000 DUP2 MSTORE PUSH1 0x4 ADD PUSH2 0x3F14 SWAP2 SWAP1 PUSH2 0x6B04 JUMP JUMPDEST PUSH1 0x40 MLOAD DUP1 SWAP2 SUB SWAP1 REVERT JUMPDEST POP POP POP POP POP POP POP POP JUMP JUMPDEST PUSH2 0x3F48 DUP5 PUSH2 0x140 ADD MLOAD DUP6 PUSH1 0x0 ADD MLOAD DUP6 PUSH1 0x0 ADD MLOAD DUP5 PUSH1 0x20 ADD MLOAD PUSH1 0x20 ADD MLOAD PUSH2 0x56D4 JUMP JUMPDEST PUSH2 0x3F69 DUP4 PUSH2 0x140 ADD MLOAD DUP5 PUSH1 0x0 ADD MLOAD DUP7 PUSH1 0x0 ADD MLOAD DUP5 PUSH1 0x0 ADD MLOAD PUSH1 0x20 ADD MLOAD PUSH2 0x56D4 JUMP JUMPDEST PUSH2 0x3F82 DUP5 PUSH2 0x140 ADD MLOAD DUP6 PUSH1 0x0 ADD MLOAD DUP5 DUP5 PUSH1 0x40 ADD MLOAD PUSH2 0x56D4 JUMP JUMPDEST PUSH2 0x4038 PUSH1 0x4 DUP1 SLOAD PUSH1 0x1 DUP2 PUSH1 0x1 AND ISZERO PUSH2 0x100 MUL SUB AND PUSH1 0x2 SWAP1 DIV DUP1 PUSH1 0x1F ADD PUSH1 0x20 DUP1 SWAP2 DIV MUL PUSH1 0x20 ADD PUSH1 0x40 MLOAD SWAP1 DUP2 ADD PUSH1 0x40 MSTORE DUP1 SWAP3 SWAP2 SWAP1 DUP2 DUP2 MSTORE PUSH1 0x20 ADD DUP3 DUP1 SLOAD PUSH1 0x1 DUP2 PUSH1 0x1 AND ISZERO PUSH2 0x100 MUL SUB AND PUSH1 0x2 SWAP1 DIV DUP1 ISZERO PUSH2 0x401B JUMPI DUP1 PUSH1 0x1F LT PUSH2 0x3FF0 JUMPI PUSH2 0x100 DUP1 DUP4 SLOAD DIV MUL DUP4 MSTORE SWAP2 PUSH1 0x20 ADD SWAP2 PUSH2 0x401B JUMP JUMPDEST DUP3 ADD SWAP2 SWAP1 PUSH1 0x0 MSTORE PUSH1 0x20 PUSH1 0x0 KECCAK256 SWAP1 JUMPDEST DUP2 SLOAD DUP2 MSTORE SWAP1 PUSH1 0x1 ADD SWAP1 PUSH1 0x20 ADD DUP1 DUP4 GT PUSH2 0x3FFE JUMPI DUP3 SWAP1 SUB PUSH1 0x1F AND DUP3 ADD SWAP2 JUMPDEST POP POP POP POP POP DUP6 PUSH1 0x0 ADD MLOAD DUP7 PUSH1 0x40 ADD MLOAD DUP5 PUSH1 0x0 ADD MLOAD PUSH1 0x40 ADD MLOAD PUSH2 0x56D4 JUMP JUMPDEST PUSH2 0x40EE PUSH1 0x4 DUP1 SLOAD PUSH1 0x1 DUP2 PUSH1 0x1 AND ISZERO PUSH2 0x100 MUL SUB AND PUSH1 0x2 SWAP1 DIV DUP1 PUSH1 0x1F ADD PUSH1 0x20 DUP1 SWAP2 DIV MUL PUSH1 0x20 ADD PUSH1 0x40 MLOAD SWAP1 DUP2 ADD PUSH1 0x40 MSTORE DUP1 SWAP3 SWAP2 SWAP1 DUP2 DUP2 MSTORE PUSH1 0x20 ADD DUP3 DUP1 SLOAD PUSH1 0x1 DUP2 PUSH1 0x1 AND ISZERO PUSH2 0x100 MUL SUB AND PUSH1 0x2 SWAP1 DIV DUP1 ISZERO PUSH2 0x40D1 JUMPI DUP1 PUSH1 0x1F LT PUSH2 0x40A6 JUMPI PUSH2 0x100 DUP1 DUP4 SLOAD DIV MUL DUP4 MSTORE SWAP2 PUSH1 0x20 ADD SWAP2 PUSH2 0x40D1 JUMP JUMPDEST DUP3 ADD SWAP2 SWAP1 PUSH1 0x0 MSTORE PUSH1 0x20 PUSH1 0x0 KECCAK256 SWAP1 JUMPDEST DUP2 SLOAD DUP2 MSTORE SWAP1 PUSH1 0x1 ADD SWAP1 PUSH1 0x20 ADD DUP1 DUP4 GT PUSH2 0x40B4 JUMPI DUP3 SWAP1 SUB PUSH1 0x1F AND DUP3 ADD SWAP2 JUMPDEST POP POP POP POP POP DUP5 PUSH1 0x0 ADD MLOAD DUP6 PUSH1 0x40 ADD MLOAD DUP5 PUSH1 0x20 ADD MLOAD PUSH1 0x40 ADD MLOAD PUSH2 0x56D4 JUMP JUMPDEST DUP3 PUSH1 0x40 ADD MLOAD PUSH20 0xFFFFFFFFFFFFFFFFFFFFFFFFFFFFFFFFFFFFFFFF AND DUP5 PUSH1 0x40 ADD MLOAD PUSH20 0xFFFFFFFFFFFFFFFFFFFFFFFFFFFFFFFFFFFFFFFF AND EQ ISZERO PUSH2 0x41F2 JUMPI PUSH2 0x41ED PUSH1 0x4 DUP1 SLOAD PUSH1 0x1 DUP2 PUSH1 0x1 AND ISZERO PUSH2 0x100 MUL SUB AND PUSH1 0x2 SWAP1 DIV DUP1 PUSH1 0x1F ADD PUSH1 0x20 DUP1 SWAP2 DIV MUL PUSH1 0x20 ADD PUSH1 0x40 MLOAD SWAP1 DUP2 ADD PUSH1 0x40 MSTORE DUP1 SWAP3 SWAP2 SWAP1 DUP2 DUP2 MSTORE PUSH1 0x20 ADD DUP3 DUP1 SLOAD PUSH1 0x1 DUP2 PUSH1 0x1 AND ISZERO PUSH2 0x100 MUL SUB AND PUSH1 0x2 SWAP1 DIV DUP1 ISZERO PUSH2 0x41C3 JUMPI DUP1 PUSH1 0x1F LT PUSH2 0x4198 JUMPI PUSH2 0x100 DUP1 DUP4 SLOAD DIV MUL DUP4 MSTORE SWAP2 PUSH1 0x20 ADD SWAP2 PUSH2 0x41C3 JUMP JUMPDEST DUP3 ADD SWAP2 SWAP1 PUSH1 0x0 MSTORE PUSH1 0x20 PUSH1 0x0 KECCAK256 SWAP1 JUMPDEST DUP2 SLOAD DUP2 MSTORE SWAP1 PUSH1 0x1 ADD SWAP1 PUSH1 0x20 ADD DUP1 DUP4 GT PUSH2 0x41A6 JUMPI DUP3 SWAP1 SUB PUSH1 0x1F AND DUP3 ADD SWAP2 JUMPDEST POP POP POP POP POP DUP4 DUP7 PUSH1 0x40 ADD MLOAD PUSH2 0x41E8 DUP6 PUSH1 0x0 ADD MLOAD PUSH1 0x60 ADD MLOAD DUP7 PUSH1 0x20 ADD MLOAD PUSH1 0x60 ADD MLOAD PUSH2 0x58B7 JUMP JUMPDEST PUSH2 0x56D4 JUMP JUMPDEST PUSH2 0x4357 JUMP JUMPDEST PUSH2 0x42A4 PUSH1 0x4 DUP1 SLOAD PUSH1 0x1 DUP2 PUSH1 0x1 AND ISZERO PUSH2 0x100 MUL SUB AND PUSH1 0x2 SWAP1 DIV DUP1 PUSH1 0x1F ADD PUSH1 0x20 DUP1 SWAP2 DIV MUL PUSH1 0x20 ADD PUSH1 0x40 MLOAD SWAP1 DUP2 ADD PUSH1 0x40 MSTORE DUP1 SWAP3 SWAP2 SWAP1 DUP2 DUP2 MSTORE PUSH1 0x20 ADD DUP3 DUP1 SLOAD PUSH1 0x1 DUP2 PUSH1 0x1 AND ISZERO PUSH2 0x100 MUL SUB AND PUSH1 0x2 SWAP1 DIV DUP1 ISZERO PUSH2 0x428B JUMPI DUP1 PUSH1 0x1F LT PUSH2 0x4260 JUMPI PUSH2 0x100 DUP1 DUP4 SLOAD DIV MUL DUP4 MSTORE SWAP2 PUSH1 0x20 ADD SWAP2 PUSH2 0x428B JUMP JUMPDEST DUP3 ADD SWAP2 SWAP1 PUSH1 0x0 MSTORE PUSH1 0x20 PUSH1 0x0 KECCAK256 SWAP1 JUMPDEST DUP2 SLOAD DUP2 MSTORE SWAP1 PUSH1 0x1 ADD SWAP1 PUSH1 0x20 ADD DUP1 DUP4 GT PUSH2 0x426E JUMPI DUP3 SWAP1 SUB PUSH1 0x1F AND DUP3 ADD SWAP2 JUMPDEST POP POP POP POP POP DUP4 DUP7 PUSH1 0x40 ADD MLOAD DUP5 PUSH1 0x0 ADD MLOAD PUSH1 0x60 ADD MLOAD PUSH2 0x56D4 JUMP JUMPDEST PUSH2 0x4356 PUSH1 0x4 DUP1 SLOAD PUSH1 0x1 DUP2 PUSH1 0x1 AND ISZERO PUSH2 0x100 MUL SUB AND PUSH1 0x2 SWAP1 DIV DUP1 PUSH1 0x1F ADD PUSH1 0x20 DUP1 SWAP2 DIV MUL PUSH1 0x20 ADD PUSH1 0x40 MLOAD SWAP1 DUP2 ADD PUSH1 0x40 MSTORE DUP1 SWAP3 SWAP2 SWAP1 DUP2 DUP2 MSTORE PUSH1 0x20 ADD DUP3 DUP1 SLOAD PUSH1 0x1 DUP2 PUSH1 0x1 AND ISZERO PUSH2 0x100 MUL SUB AND PUSH1 0x2 SWAP1 DIV DUP1 ISZERO PUSH2 0x433D JUMPI DUP1 PUSH1 0x1F LT PUSH2 0x4312 JUMPI PUSH2 0x100 DUP1 DUP4 SLOAD DIV MUL DUP4 MSTORE SWAP2 PUSH1 0x20 ADD SWAP2 PUSH2 0x433D JUMP JUMPDEST DUP3 ADD SWAP2 SWAP1 PUSH1 0x0 MSTORE PUSH1 0x20 PUSH1 0x0 KECCAK256 SWAP1 JUMPDEST DUP2 SLOAD DUP2 MSTORE SWAP1 PUSH1 0x1 ADD SWAP1 PUSH1 0x20 ADD DUP1 DUP4 GT PUSH2 0x4320 JUMPI DUP3 SWAP1 SUB PUSH1 0x1F AND DUP3 ADD SWAP2 JUMPDEST POP POP POP POP POP DUP4 DUP6 PUSH1 0x40 ADD MLOAD DUP5 PUSH1 0x20 ADD MLOAD PUSH1 0x60 ADD MLOAD PUSH2 0x56D4 JUMP JUMPDEST JUMPDEST POP POP POP POP JUMP JUMPDEST PUSH2 0x436B DUP3 DUP3 PUSH1 0x20 ADD MLOAD PUSH2 0x58B7 JUMP JUMPDEST PUSH1 0x0 DUP1 DUP6 PUSH1 0x0 NOT AND PUSH1 0x0 NOT AND DUP2 MSTORE PUSH1 0x20 ADD SWAP1 DUP2 MSTORE PUSH1 0x20 ADD PUSH1 0x0 KECCAK256 DUP2 SWAP1 SSTORE POP DUP3 PUSH1 0x0 NOT AND DUP6 PUSH1 0x40 ADD MLOAD PUSH20 0xFFFFFFFFFFFFFFFFFFFFFFFFFFFFFFFFFFFFFFFF AND DUP7 PUSH1 0x0 ADD MLOAD PUSH20 0xFFFFFFFFFFFFFFFFFFFFFFFFFFFFFFFFFFFFFFFF AND PUSH32 0xDE19F18E1B56E6EADA7ED95CCA8398B602BE32F5864640537EE9A9A3532BB29D DUP8 DUP6 PUSH1 0x0 ADD MLOAD DUP7 PUSH1 0x20 ADD MLOAD DUP8 PUSH1 0x40 ADD MLOAD DUP9 PUSH1 0x60 ADD MLOAD DUP14 PUSH2 0x140 ADD MLOAD DUP15 PUSH2 0x160 ADD MLOAD PUSH1 0x40 MLOAD PUSH2 0x4419 SWAP8 SWAP7 SWAP6 SWAP5 SWAP4 SWAP3 SWAP2 SWAP1 PUSH2 0x68F9 JUMP JUMPDEST PUSH1 0x40 MLOAD DUP1 SWAP2 SUB SWAP1 LOG4 POP POP POP POP POP JUMP JUMPDEST PUSH1 0x0 DUP3 DUP3 GT ISZERO ISZERO ISZERO PUSH2 0x4436 JUMPI INVALID JUMPDEST DUP2 DUP4 SUB SWAP1 POP SWAP3 SWAP2 POP POP JUMP JUMPDEST PUSH1 0x0 DUP2 DUP4 LT PUSH2 0x4450 JUMPI DUP2 PUSH2 0x4452 JUMP JUMPDEST DUP3 JUMPDEST SWAP1 POP SWAP3 SWAP2 POP POP JUMP JUMPDEST PUSH1 0x0 DUP1 PUSH1 0x0 DUP5 DUP1 ISZERO ISZERO PUSH2 0x4469 JUMPI INVALID JUMPDEST DUP7 DUP6 MULMOD SWAP2 POP PUSH1 0x0 DUP3 EQ ISZERO PUSH2 0x4480 JUMPI PUSH1 0x0 SWAP3 POP PUSH2 0x44AC JUMP JUMPDEST PUSH2 0x449F PUSH2 0x4490 DUP4 PUSH3 0xF4240 PUSH2 0x53DA JUMP JUMPDEST PUSH2 0x449A DUP9 DUP8 PUSH2 0x53DA JUMP JUMPDEST PUSH2 0x58D5 JUMP JUMPDEST SWAP1 POP PUSH2 0x3E8 DUP2 GT SWAP3 POP DUP3 SWAP3 POP JUMPDEST POP POP SWAP4 SWAP3 POP POP POP JUMP JUMPDEST PUSH1 0x0 PUSH2 0x44CA PUSH2 0x44C4 DUP6 DUP5 PUSH2 0x53DA JUMP JUMPDEST DUP5 PUSH2 0x58D5 JUMP JUMPDEST SWAP1 POP DUP1 SWAP1 POP SWAP4 SWAP3 POP POP POP JUMP JUMPDEST PUSH1 0x0 PUSH1 0x20 PUSH1 0x1F DUP5 MLOAD ADD DIV PUSH1 0x1 DUP2 ADD SWAP1 POP PUSH1 0x0 JUMPDEST DUP2 DUP2 LT ISZERO PUSH2 0x451E JUMPI PUSH1 0x20 DUP2 MUL DUP6 ADD MLOAD PUSH1 0x20 DUP3 MUL DUP6 ADD MLOAD DUP1 DUP3 EQ SWAP5 POP PUSH1 0x0 DUP6 EQ ISZERO PUSH2 0x4511 JUMPI DUP4 SWAP3 POP JUMPDEST POP POP PUSH1 0x1 DUP2 ADD SWAP1 POP PUSH2 0x44E9 JUMP JUMPDEST POP POP DUP1 SWAP1 POP SWAP3 SWAP2 POP POP JUMP JUMPDEST PUSH2 0x453B DUP3 PUSH1 0x0 ADD MLOAD DUP3 PUSH1 0x0 ADD MLOAD PUSH2 0x58B7 JUMP JUMPDEST DUP3 PUSH1 0x0 ADD DUP2 DUP2 MSTORE POP POP PUSH2 0x4556 DUP3 PUSH1 0x20 ADD MLOAD DUP3 PUSH1 0x20 ADD MLOAD PUSH2 0x58B7 JUMP JUMPDEST DUP3 PUSH1 0x20 ADD DUP2 DUP2 MSTORE POP POP PUSH2 0x4571 DUP3 PUSH1 0x40 ADD MLOAD DUP3 PUSH1 0x40 ADD MLOAD PUSH2 0x58B7 JUMP JUMPDEST DUP3 PUSH1 0x40 ADD DUP2 DUP2 MSTORE POP POP PUSH2 0x458C DUP3 PUSH1 0x60 ADD MLOAD DUP3 PUSH1 0x60 ADD MLOAD PUSH2 0x58B7 JUMP JUMPDEST DUP3 PUSH1 0x60 ADD DUP2 DUP2 MSTORE POP POP POP POP JUMP JUMPDEST PUSH2 0x45A1 PUSH2 0x5A1D JUMP JUMPDEST PUSH1 0x80 PUSH1 0x40 MLOAD SWAP1 DUP2 ADD PUSH1 0x40 MSTORE DUP1 PUSH1 0x0 DUP2 MSTORE PUSH1 0x20 ADD PUSH1 0x0 DUP2 MSTORE PUSH1 0x20 ADD PUSH1 0x0 DUP2 MSTORE PUSH1 0x20 ADD PUSH1 0x0 DUP2 MSTORE POP SWAP1 POP SWAP1 JUMP JUMPDEST PUSH2 0x45E5 DUP4 PUSH2 0x140 ADD MLOAD DUP5 PUSH1 0x0 ADD MLOAD DUP5 DUP5 PUSH1 0x0 ADD MLOAD PUSH2 0x56D4 JUMP JUMPDEST PUSH2 0x45FE DUP4 PUSH2 0x160 ADD MLOAD DUP4 DUP6 PUSH1 0x0 ADD MLOAD DUP5 PUSH1 0x20 ADD MLOAD PUSH2 0x56D4 JUMP JUMPDEST PUSH2 0x46B0 PUSH1 0x4 DUP1 SLOAD PUSH1 0x1 DUP2 PUSH1 0x1 AND ISZERO PUSH2 0x100 MUL SUB AND PUSH1 0x2 SWAP1 DIV DUP1 PUSH1 0x1F ADD PUSH1 0x20 DUP1 SWAP2 DIV MUL PUSH1 0x20 ADD PUSH1 0x40 MLOAD SWAP1 DUP2 ADD PUSH1 0x40 MSTORE DUP1 SWAP3 SWAP2 SWAP1 DUP2 DUP2 MSTORE PUSH1 0x20 ADD DUP3 DUP1 SLOAD PUSH1 0x1 DUP2 PUSH1 0x1 AND ISZERO PUSH2 0x100 MUL SUB AND PUSH1 0x2 SWAP1 DIV DUP1 ISZERO PUSH2 0x4697 JUMPI DUP1 PUSH1 0x1F LT PUSH2 0x466C JUMPI PUSH2 0x100 DUP1 DUP4 SLOAD DIV MUL DUP4 MSTORE SWAP2 PUSH1 0x20 ADD SWAP2 PUSH2 0x4697 JUMP JUMPDEST DUP3 ADD SWAP2 SWAP1 PUSH1 0x0 MSTORE PUSH1 0x20 PUSH1 0x0 KECCAK256 SWAP1 JUMPDEST DUP2 SLOAD DUP2 MSTORE SWAP1 PUSH1 0x1 ADD SWAP1 PUSH1 0x20 ADD DUP1 DUP4 GT PUSH2 0x467A JUMPI DUP3 SWAP1 SUB PUSH1 0x1F AND DUP3 ADD SWAP2 JUMPDEST POP POP POP POP POP DUP5 PUSH1 0x0 ADD MLOAD DUP6 PUSH1 0x40 ADD MLOAD DUP5 PUSH1 0x40 ADD MLOAD PUSH2 0x56D4 JUMP JUMPDEST PUSH2 0x475E PUSH1 0x4 DUP1 SLOAD PUSH1 0x1 DUP2 PUSH1 0x1 AND ISZERO PUSH2 0x100 MUL SUB AND PUSH1 0x2 SWAP1 DIV DUP1 PUSH1 0x1F ADD PUSH1 0x20 DUP1 SWAP2 DIV MUL PUSH1 0x20 ADD PUSH1 0x40 MLOAD SWAP1 DUP2 ADD PUSH1 0x40 MSTORE DUP1 SWAP3 SWAP2 SWAP1 DUP2 DUP2 MSTORE PUSH1 0x20 ADD DUP3 DUP1 SLOAD PUSH1 0x1 DUP2 PUSH1 0x1 AND ISZERO PUSH2 0x100 MUL SUB AND PUSH1 0x2 SWAP1 DIV DUP1 ISZERO PUSH2 0x4749 JUMPI DUP1 PUSH1 0x1F LT PUSH2 0x471E JUMPI PUSH2 0x100 DUP1 DUP4 SLOAD DIV MUL DUP4 MSTORE SWAP2 PUSH1 0x20 ADD SWAP2 PUSH2 0x4749 JUMP JUMPDEST DUP3 ADD SWAP2 SWAP1 PUSH1 0x0 MSTORE PUSH1 0x20 PUSH1 0x0 KECCAK256 SWAP1 JUMPDEST DUP2 SLOAD DUP2 MSTORE SWAP1 PUSH1 0x1 ADD SWAP1 PUSH1 0x20 ADD DUP1 DUP4 GT PUSH2 0x472C JUMPI DUP3 SWAP1 SUB PUSH1 0x1F AND DUP3 ADD SWAP2 JUMPDEST POP POP POP POP POP DUP4 DUP6 PUSH1 0x40 ADD MLOAD DUP5 PUSH1 0x60 ADD MLOAD PUSH2 0x56D4 JUMP JUMPDEST POP POP POP JUMP JUMPDEST PUSH1 0x0 PUSH1 0x40 MLOAD DUP1 DUP1 PUSH32 0x446F6D61696E536570617261746F72286164647265737320636F6E7472616374 DUP2 MSTORE PUSH1 0x20 ADD PUSH32 0x2900000000000000000000000000000000000000000000000000000000000000 DUP2 MSTORE POP PUSH1 0x21 ADD SWAP1 POP PUSH1 0x40 MLOAD DUP1 SWAP2 SUB SWAP1 KECCAK256 ADDRESS PUSH1 0x40 MLOAD DUP1 DUP3 PUSH20 0xFFFFFFFFFFFFFFFFFFFFFFFFFFFFFFFFFFFFFFFF AND PUSH20 0xFFFFFFFFFFFFFFFFFFFFFFFFFFFFFFFFFFFFFFFF AND PUSH13 0x1000000000000000000000000 MUL DUP2 MSTORE PUSH1 0x14 ADD SWAP2 POP POP PUSH1 0x40 MLOAD DUP1 SWAP2 SUB SWAP1 KECCAK256 PUSH1 0x40 MLOAD DUP1 DUP1 PUSH32 0x4F72646572280000000000000000000000000000000000000000000000000000 DUP2 MSTORE POP PUSH1 0x6 ADD DUP1 PUSH32 0x61646472657373206D616B6572416464726573732C0000000000000000000000 DUP2 MSTORE POP PUSH1 0x15 ADD DUP1 PUSH32 0x616464726573732074616B6572416464726573732C0000000000000000000000 DUP2 MSTORE POP PUSH1 0x15 ADD DUP1 PUSH32 0x6164647265737320666565526563697069656E74416464726573732C00000000 DUP2 MSTORE POP PUSH1 0x1C ADD DUP1 PUSH32 0x616464726573732073656E646572416464726573732C00000000000000000000 DUP2 MSTORE POP PUSH1 0x16 ADD DUP1 PUSH32 0x75696E74323536206D616B65724173736574416D6F756E742C00000000000000 DUP2 MSTORE POP PUSH1 0x19 ADD DUP1 PUSH32 0x75696E743235362074616B65724173736574416D6F756E742C00000000000000 DUP2 MSTORE POP PUSH1 0x19 ADD DUP1 PUSH32 0x75696E74323536206D616B65724665652C000000000000000000000000000000 DUP2 MSTORE POP PUSH1 0x11 ADD DUP1 PUSH32 0x75696E743235362074616B65724665652C000000000000000000000000000000 DUP2 MSTORE POP PUSH1 0x11 ADD DUP1 PUSH32 0x75696E743235362065787069726174696F6E54696D655365636F6E64732C0000 DUP2 MSTORE POP PUSH1 0x1E ADD DUP1 PUSH32 0x75696E743235362073616C742C00000000000000000000000000000000000000 DUP2 MSTORE POP PUSH1 0xD ADD DUP1 PUSH32 0x6279746573206D616B65724173736574446174612C0000000000000000000000 DUP2 MSTORE POP PUSH1 0x15 ADD DUP1 PUSH32 0x62797465732074616B65724173736574446174612C0000000000000000000000 DUP2 MSTORE POP PUSH1 0x15 ADD DUP1 PUSH32 0x2900000000000000000000000000000000000000000000000000000000000000 DUP2 MSTORE POP PUSH1 0x1 ADD SWAP1 POP PUSH1 0x40 MLOAD DUP1 SWAP2 SUB SWAP1 KECCAK256 DUP5 PUSH1 0x0 ADD MLOAD DUP6 PUSH1 0x20 ADD MLOAD DUP7 PUSH1 0x40 ADD MLOAD DUP8 PUSH1 0x60 ADD MLOAD DUP9 PUSH1 0x80 ADD MLOAD DUP10 PUSH1 0xA0 ADD MLOAD DUP11 PUSH1 0xC0 ADD MLOAD DUP12 PUSH1 0xE0 ADD MLOAD DUP13 PUSH2 0x100 ADD MLOAD DUP14 PUSH2 0x120 ADD MLOAD DUP15 PUSH2 0x140 ADD MLOAD PUSH1 0x40 MLOAD DUP1 DUP3 DUP1 MLOAD SWAP1 PUSH1 0x20 ADD SWAP1 DUP1 DUP4 DUP4 JUMPDEST PUSH1 0x20 DUP4 LT ISZERO ISZERO PUSH2 0x4ABF JUMPI DUP1 MLOAD DUP3 MSTORE PUSH1 0x20 DUP3 ADD SWAP2 POP PUSH1 0x20 DUP2 ADD SWAP1 POP PUSH1 0x20 DUP4 SUB SWAP3 POP PUSH2 0x4A9A JUMP JUMPDEST PUSH1 0x1 DUP4 PUSH1 0x20 SUB PUSH2 0x100 EXP SUB DUP1 NOT DUP3 MLOAD AND DUP2 DUP5 MLOAD AND DUP1 DUP3 OR DUP6 MSTORE POP POP POP POP POP POP SWAP1 POP ADD SWAP2 POP POP PUSH1 0x40 MLOAD DUP1 SWAP2 SUB SWAP1 KECCAK256 DUP16 PUSH2 0x160 ADD MLOAD PUSH1 0x40 MLOAD DUP1 DUP3 DUP1 MLOAD SWAP1 PUSH1 0x20 ADD SWAP1 DUP1 DUP4 DUP4 JUMPDEST PUSH1 0x20 DUP4 LT ISZERO ISZERO PUSH2 0x4B27 JUMPI DUP1 MLOAD DUP3 MSTORE PUSH1 0x20 DUP3 ADD SWAP2 POP PUSH1 0x20 DUP2 ADD SWAP1 POP PUSH1 0x20 DUP4 SUB SWAP3 POP PUSH2 0x4B02 JUMP JUMPDEST PUSH1 0x1 DUP4 PUSH1 0x20 SUB PUSH2 0x100 EXP SUB DUP1 NOT DUP3 MLOAD AND DUP2 DUP5 MLOAD AND DUP1 DUP3 OR DUP6 MSTORE POP POP POP POP POP POP SWAP1 POP ADD SWAP2 POP POP PUSH1 0x40 MLOAD DUP1 SWAP2 SUB SWAP1 KECCAK256 PUSH1 0x40 MLOAD DUP1 DUP14 PUSH20 0xFFFFFFFFFFFFFFFFFFFFFFFFFFFFFFFFFFFFFFFF AND PUSH20 0xFFFFFFFFFFFFFFFFFFFFFFFFFFFFFFFFFFFFFFFF AND PUSH13 0x1000000000000000000000000 MUL DUP2 MSTORE PUSH1 0x14 ADD DUP13 PUSH20 0xFFFFFFFFFFFFFFFFFFFFFFFFFFFFFFFFFFFFFFFF AND PUSH20 0xFFFFFFFFFFFFFFFFFFFFFFFFFFFFFFFFFFFFFFFF AND PUSH13 0x1000000000000000000000000 MUL DUP2 MSTORE PUSH1 0x14 ADD DUP12 PUSH20 0xFFFFFFFFFFFFFFFFFFFFFFFFFFFFFFFFFFFFFFFF AND PUSH20 0xFFFFFFFFFFFFFFFFFFFFFFFFFFFFFFFFFFFFFFFF AND PUSH13 0x1000000000000000000000000 MUL DUP2 MSTORE PUSH1 0x14 ADD DUP11 PUSH20 0xFFFFFFFFFFFFFFFFFFFFFFFFFFFFFFFFFFFFFFFF AND PUSH20 0xFFFFFFFFFFFFFFFFFFFFFFFFFFFFFFFFFFFFFFFF AND PUSH13 0x1000000000000000000000000 MUL DUP2 MSTORE PUSH1 0x14 ADD DUP10 DUP2 MSTORE PUSH1 0x20 ADD DUP9 DUP2 MSTORE PUSH1 0x20 ADD DUP8 DUP2 MSTORE PUSH1 0x20 ADD DUP7 DUP2 MSTORE PUSH1 0x20 ADD DUP6 DUP2 MSTORE PUSH1 0x20 ADD DUP5 DUP2 MSTORE PUSH1 0x20 ADD DUP4 PUSH1 0x0 NOT AND PUSH1 0x0 NOT AND DUP2 MSTORE PUSH1 0x20 ADD DUP3 PUSH1 0x0 NOT AND PUSH1 0x0 NOT AND DUP2 MSTORE PUSH1 0x20 ADD SWAP13 POP POP POP POP POP POP POP POP POP POP POP POP POP PUSH1 0x40 MLOAD DUP1 SWAP2 SUB SWAP1 KECCAK256 PUSH1 0x40 MLOAD DUP1 DUP6 PUSH1 0x0 NOT AND PUSH1 0x0 NOT AND DUP2 MSTORE PUSH1 0x20 ADD DUP5 PUSH1 0x0 NOT AND PUSH1 0x0 NOT AND DUP2 MSTORE PUSH1 0x20 ADD DUP4 PUSH1 0x0 NOT AND PUSH1 0x0 NOT AND DUP2 MSTORE PUSH1 0x20 ADD DUP3 PUSH1 0x0 NOT AND PUSH1 0x0 NOT AND DUP2 MSTORE PUSH1 0x20 ADD SWAP5 POP POP POP POP POP PUSH1 0x40 MLOAD DUP1 SWAP2 SUB SWAP1 KECCAK256 SWAP1 POP DUP1 SWAP1 POP SWAP2 SWAP1 POP JUMP JUMPDEST PUSH1 0x0 PUSH1 0x9 PUSH1 0xE DUP2 GT ISZERO PUSH2 0x4D15 JUMPI INVALID JUMPDEST PUSH1 0xFF AND DUP4 PUSH1 0xFF AND EQ ISZERO PUSH1 0x60 PUSH1 0x40 MLOAD SWAP1 DUP2 ADD PUSH1 0x40 MSTORE DUP1 PUSH1 0x3C DUP2 MSTORE PUSH1 0x20 ADD PUSH32 0x496E76616C6964206F72646572206D616B657220617373657420616D6F756E74 DUP2 MSTORE PUSH1 0x20 ADD PUSH32 0x3A2065787065637465642061206E6F6E2D7A65726F2076616C75652E00000000 DUP2 MSTORE POP SWAP1 ISZERO ISZERO PUSH2 0x4DBE JUMPI PUSH1 0x40 MLOAD PUSH32 0x8C379A000000000000000000000000000000000000000000000000000000000 DUP2 MSTORE PUSH1 0x4 ADD PUSH2 0x4DB5 SWAP2 SWAP1 PUSH2 0x6B04 JUMP JUMPDEST PUSH1 0x40 MLOAD DUP1 SWAP2 SUB SWAP1 REVERT JUMPDEST POP PUSH1 0xA PUSH1 0xE DUP2 GT ISZERO PUSH2 0x4DCC JUMPI INVALID JUMPDEST PUSH1 0xFF AND DUP4 PUSH1 0xFF AND EQ ISZERO PUSH1 0x60 PUSH1 0x40 MLOAD SWAP1 DUP2 ADD PUSH1 0x40 MSTORE DUP1 PUSH1 0x3C DUP2 MSTORE PUSH1 0x20 ADD PUSH32 0x496E76616C6964206F726465722074616B657220617373657420616D6F756E74 DUP2 MSTORE PUSH1 0x20 ADD PUSH32 0x3A2065787065637465642061206E6F6E2D7A65726F2076616C75652E00000000 DUP2 MSTORE POP SWAP1 ISZERO ISZERO PUSH2 0x4E75 JUMPI PUSH1 0x40 MLOAD PUSH32 0x8C379A000000000000000000000000000000000000000000000000000000000 DUP2 MSTORE PUSH1 0x4 ADD PUSH2 0x4E6C SWAP2 SWAP1 PUSH2 0x6B04 JUMP JUMPDEST PUSH1 0x40 MLOAD DUP1 SWAP2 SUB SWAP1 REVERT JUMPDEST POP PUSH2 0x4E7E PUSH2 0x3532 JUMP JUMPDEST SWAP1 POP DUP1 PUSH20 0xFFFFFFFFFFFFFFFFFFFFFFFFFFFFFFFFFFFFFFFF AND DUP5 PUSH1 0x0 ADD MLOAD PUSH20 0xFFFFFFFFFFFFFFFFFFFFFFFFFFFFFFFFFFFFFFFF AND EQ PUSH1 0x60 PUSH1 0x40 MLOAD SWAP1 DUP2 ADD PUSH1 0x40 MSTORE DUP1 PUSH1 0x26 DUP2 MSTORE PUSH1 0x20 ADD PUSH32 0x46756E6374696F6E2063616C6C656420696E20616E20696E76616C696420636F DUP2 MSTORE PUSH1 0x20 ADD PUSH32 0x6E746578742E0000000000000000000000000000000000000000000000000000 DUP2 MSTORE POP SWAP1 ISZERO ISZERO PUSH2 0x4F53 JUMPI PUSH1 0x40 MLOAD PUSH32 0x8C379A000000000000000000000000000000000000000000000000000000000 DUP2 MSTORE PUSH1 0x4 ADD PUSH2 0x4F4A SWAP2 SWAP1 PUSH2 0x6B04 JUMP JUMPDEST PUSH1 0x40 MLOAD DUP1 SWAP2 SUB SWAP1 REVERT JUMPDEST POP PUSH1 0x0 PUSH20 0xFFFFFFFFFFFFFFFFFFFFFFFFFFFFFFFFFFFFFFFF AND DUP5 PUSH1 0x60 ADD MLOAD PUSH20 0xFFFFFFFFFFFFFFFFFFFFFFFFFFFFFFFFFFFFFFFF AND EQ ISZERO ISZERO PUSH2 0x503C JUMPI CALLER PUSH20 0xFFFFFFFFFFFFFFFFFFFFFFFFFFFFFFFFFFFFFFFF AND DUP5 PUSH1 0x60 ADD MLOAD PUSH20 0xFFFFFFFFFFFFFFFFFFFFFFFFFFFFFFFFFFFFFFFF AND EQ PUSH1 0x40 DUP1 MLOAD SWAP1 DUP2 ADD PUSH1 0x40 MSTORE DUP1 PUSH1 0x15 DUP2 MSTORE PUSH1 0x20 ADD PUSH32 0x496E76616C696420606D73672E73656E646572602E0000000000000000000000 DUP2 MSTORE POP SWAP1 ISZERO ISZERO PUSH2 0x503A JUMPI PUSH1 0x40 MLOAD PUSH32 0x8C379A000000000000000000000000000000000000000000000000000000000 DUP2 MSTORE PUSH1 0x4 ADD PUSH2 0x5031 SWAP2 SWAP1 PUSH2 0x6B04 JUMP JUMPDEST PUSH1 0x40 MLOAD DUP1 SWAP2 SUB SWAP1 REVERT JUMPDEST POP JUMPDEST POP POP POP POP JUMP JUMPDEST PUSH1 0x0 PUSH1 0xB PUSH1 0xE DUP2 GT ISZERO PUSH2 0x5051 JUMPI INVALID JUMPDEST PUSH1 0xFF AND DUP4 PUSH1 0xFF AND EQ ISZERO ISZERO PUSH2 0x50A0 JUMPI DUP2 PUSH1 0x0 NOT AND DUP4 PUSH1 0xFF AND PUSH32 0x7A2F932AC2B230B365B1CF3C91CF7F6BB97D4625011E0CF070CA1E0AF0F1B39A PUSH1 0x40 MLOAD PUSH1 0x40 MLOAD DUP1 SWAP2 SUB SWAP1 LOG3 PUSH1 0x0 SWAP1 POP DUP1 SWAP1 POP PUSH2 0x5159 JUMP JUMPDEST PUSH1 0x1 DUP1 PUSH1 0x0 DUP5 PUSH1 0x0 NOT AND PUSH1 0x0 NOT AND DUP2 MSTORE PUSH1 0x20 ADD SWAP1 DUP2 MSTORE PUSH1 0x20 ADD PUSH1 0x0 KECCAK256 PUSH1 0x0 PUSH2 0x100 EXP DUP2 SLOAD DUP2 PUSH1 0xFF MUL NOT AND SWAP1 DUP4 ISZERO ISZERO MUL OR SWAP1 SSTORE POP PUSH1 0x1 SWAP1 POP DUP2 PUSH1 0x0 NOT AND DUP5 PUSH1 0x40 ADD MLOAD PUSH20 0xFFFFFFFFFFFFFFFFFFFFFFFFFFFFFFFFFFFFFFFF AND DUP6 PUSH1 0x0 ADD MLOAD PUSH20 0xFFFFFFFFFFFFFFFFFFFFFFFFFFFFFFFFFFFFFFFF AND PUSH32 0xB1AD640E9E79B6FDBC3C415DC2914AB54E753D2971F51EAB910F7AA317A3163A DUP8 PUSH2 0x140 ADD MLOAD DUP9 PUSH2 0x160 ADD MLOAD PUSH1 0x40 MLOAD PUSH2 0x514D SWAP3 SWAP2 SWAP1 PUSH2 0x6AB2 JUMP JUMPDEST PUSH1 0x40 MLOAD DUP1 SWAP2 SUB SWAP1 LOG4 DUP1 SWAP1 POP JUMPDEST SWAP4 SWAP3 POP POP POP JUMP JUMPDEST PUSH1 0x0 DUP1 DUP3 MLOAD GT PUSH1 0x40 DUP1 MLOAD SWAP1 DUP2 ADD PUSH1 0x40 MSTORE DUP1 PUSH1 0x1E DUP2 MSTORE PUSH1 0x20 ADD PUSH32 0x4C656E677468206D7573742062652067726561746572207468616E20302E0000 DUP2 MSTORE POP SWAP1 ISZERO ISZERO PUSH2 0x51DF JUMPI PUSH1 0x40 MLOAD PUSH32 0x8C379A000000000000000000000000000000000000000000000000000000000 DUP2 MSTORE PUSH1 0x4 ADD PUSH2 0x51D6 SWAP2 SWAP1 PUSH2 0x6B04 JUMP JUMPDEST PUSH1 0x40 MLOAD DUP1 SWAP2 SUB SWAP1 REVERT JUMPDEST POP DUP2 PUSH1 0x1 DUP4 MLOAD SUB DUP2 MLOAD DUP2 LT ISZERO ISZERO PUSH2 0x51F2 JUMPI INVALID JUMPDEST SWAP1 PUSH1 0x20 ADD ADD MLOAD PUSH32 0x100000000000000000000000000000000000000000000000000000000000000 SWAP1 DIV PUSH32 0x100000000000000000000000000000000000000000000000000000000000000 MUL SWAP1 POP PUSH1 0x1 DUP3 MLOAD SUB DUP1 DUP4 MSTORE POP DUP1 SWAP1 POP SWAP2 SWAP1 POP JUMP JUMPDEST PUSH1 0x0 PUSH1 0x20 DUP3 ADD DUP4 MLOAD LT ISZERO PUSH1 0x60 PUSH1 0x40 MLOAD SWAP1 DUP2 ADD PUSH1 0x40 MSTORE DUP1 PUSH1 0x2B DUP2 MSTORE PUSH1 0x20 ADD PUSH32 0x4C656E677468206D7573742062652067726561746572207468616E206F722065 DUP2 MSTORE PUSH1 0x20 ADD PUSH32 0x7175616C20746F2033322E000000000000000000000000000000000000000000 DUP2 MSTORE POP SWAP1 ISZERO ISZERO PUSH2 0x52FA JUMPI PUSH1 0x40 MLOAD PUSH32 0x8C379A000000000000000000000000000000000000000000000000000000000 DUP2 MSTORE PUSH1 0x4 ADD PUSH2 0x52F1 SWAP2 SWAP1 PUSH2 0x6B04 JUMP JUMPDEST PUSH1 0x40 MLOAD DUP1 SWAP2 SUB SWAP1 REVERT JUMPDEST POP PUSH1 0x20 DUP3 ADD SWAP2 POP DUP2 DUP4 ADD MLOAD SWAP1 POP DUP1 SWAP1 POP SWAP3 SWAP2 POP POP JUMP JUMPDEST PUSH1 0x0 PUSH1 0x14 DUP3 MLOAD LT ISZERO PUSH1 0x60 PUSH1 0x40 MLOAD SWAP1 DUP2 ADD PUSH1 0x40 MSTORE DUP1 PUSH1 0x2B DUP2 MSTORE PUSH1 0x20 ADD PUSH32 0x4C656E677468206D7573742062652067726561746572207468616E206F722065 DUP2 MSTORE PUSH1 0x20 ADD PUSH32 0x7175616C20746F2032302E000000000000000000000000000000000000000000 DUP2 MSTORE POP SWAP1 ISZERO ISZERO PUSH2 0x53B8 JUMPI PUSH1 0x40 MLOAD PUSH32 0x8C379A000000000000000000000000000000000000000000000000000000000 DUP2 MSTORE PUSH1 0x4 ADD PUSH2 0x53AF SWAP2 SWAP1 PUSH2 0x6B04 JUMP JUMPDEST PUSH1 0x40 MLOAD DUP1 SWAP2 SUB SWAP1 REVERT JUMPDEST POP PUSH2 0x53C7 DUP3 PUSH1 0x14 DUP5 MLOAD SUB PUSH2 0x58F0 JUMP JUMPDEST SWAP1 POP PUSH1 0x14 DUP3 MLOAD SUB DUP1 DUP4 MSTORE POP DUP1 SWAP1 POP SWAP2 SWAP1 POP JUMP JUMPDEST PUSH1 0x0 DUP1 DUP3 DUP5 MUL SWAP1 POP PUSH1 0x0 DUP5 EQ DUP1 PUSH2 0x53FB JUMPI POP DUP3 DUP5 DUP3 DUP2 ISZERO ISZERO PUSH2 0x53F8 JUMPI INVALID JUMPDEST DIV EQ JUMPDEST ISZERO ISZERO PUSH2 0x5403 JUMPI INVALID JUMPDEST DUP1 SWAP2 POP POP SWAP3 SWAP2 POP POP JUMP JUMPDEST PUSH1 0x0 PUSH2 0x541A DUP5 DUP5 DUP5 PUSH2 0x445A JUMP JUMPDEST ISZERO PUSH1 0x80 PUSH1 0x40 MLOAD SWAP1 DUP2 ADD PUSH1 0x40 MSTORE DUP1 PUSH1 0x44 DUP2 MSTORE PUSH1 0x20 ADD PUSH32 0x4120726F756E64696E67206572726F72206F63637572726564207768656E2063 DUP2 MSTORE PUSH1 0x20 ADD PUSH32 0x616C63756C6174696E67207061727469616C207472616E7366657220616D6F75 DUP2 MSTORE PUSH1 0x20 ADD PUSH32 0x6E74732E00000000000000000000000000000000000000000000000000000000 DUP2 MSTORE POP SWAP1 ISZERO ISZERO PUSH2 0x54E1 JUMPI PUSH1 0x40 MLOAD PUSH32 0x8C379A000000000000000000000000000000000000000000000000000000000 DUP2 MSTORE PUSH1 0x4 ADD PUSH2 0x54D8 SWAP2 SWAP1 PUSH2 0x6B04 JUMP JUMPDEST PUSH1 0x40 MLOAD DUP1 SWAP2 SUB SWAP1 REVERT JUMPDEST POP PUSH2 0x54ED DUP5 DUP5 DUP5 PUSH2 0x44B5 JUMP JUMPDEST SWAP1 POP SWAP4 SWAP3 POP POP POP JUMP JUMPDEST PUSH1 0x0 PUSH2 0x550E DUP3 PUSH1 0x20 ADD MLOAD PUSH1 0x20 ADD MLOAD DUP4 PUSH1 0x40 ADD MLOAD PUSH2 0x58B7 JUMP JUMPDEST SWAP1 POP PUSH2 0x5524 DUP3 PUSH1 0x0 ADD MLOAD PUSH1 0x0 ADD MLOAD DUP3 PUSH1 0x1 PUSH2 0x445A JUMP JUMPDEST ISZERO PUSH1 0x80 PUSH1 0x40 MLOAD SWAP1 DUP2 ADD PUSH1 0x40 MSTORE DUP1 PUSH1 0x4F DUP2 MSTORE PUSH1 0x20 ADD PUSH32 0x4120726F756E64696E67206572726F72206F63637572726564207768656E2063 DUP2 MSTORE PUSH1 0x20 ADD PUSH32 0x616C63756C6174696E67207472616E7366657220616D6F756E747320666F7220 DUP2 MSTORE PUSH1 0x20 ADD PUSH32 0x6D617463686564206F72646572732E0000000000000000000000000000000000 DUP2 MSTORE POP SWAP1 ISZERO ISZERO PUSH2 0x55EB JUMPI PUSH1 0x40 MLOAD PUSH32 0x8C379A000000000000000000000000000000000000000000000000000000000 DUP2 MSTORE PUSH1 0x4 ADD PUSH2 0x55E2 SWAP2 SWAP1 PUSH2 0x6B04 JUMP JUMPDEST PUSH1 0x40 MLOAD DUP1 SWAP2 SUB SWAP1 REVERT JUMPDEST POP PUSH2 0x5608 DUP3 PUSH1 0x20 ADD MLOAD PUSH1 0x0 ADD MLOAD DUP4 PUSH1 0x0 ADD MLOAD PUSH1 0x20 ADD MLOAD PUSH1 0x1 PUSH2 0x445A JUMP JUMPDEST ISZERO PUSH1 0x80 PUSH1 0x40 MLOAD SWAP1 DUP2 ADD PUSH1 0x40 MSTORE DUP1 PUSH1 0x4F DUP2 MSTORE PUSH1 0x20 ADD PUSH32 0x4120726F756E64696E67206572726F72206F63637572726564207768656E2063 DUP2 MSTORE PUSH1 0x20 ADD PUSH32 0x616C63756C6174696E67207472616E7366657220616D6F756E747320666F7220 DUP2 MSTORE PUSH1 0x20 ADD PUSH32 0x6D617463686564206F72646572732E0000000000000000000000000000000000 DUP2 MSTORE POP SWAP1 ISZERO ISZERO PUSH2 0x56CF JUMPI PUSH1 0x40 MLOAD PUSH32 0x8C379A000000000000000000000000000000000000000000000000000000000 DUP2 MSTORE PUSH1 0x4 ADD PUSH2 0x56C6 SWAP2 SWAP1 PUSH2 0x6B04 JUMP JUMPDEST PUSH1 0x40 MLOAD DUP1 SWAP2 SUB SWAP1 REVERT JUMPDEST POP POP POP JUMP JUMPDEST PUSH1 0x0 DUP1 PUSH1 0x0 DUP1 DUP5 GT ISZERO PUSH2 0x58AE JUMPI DUP7 MLOAD SWAP3 POP PUSH1 0x0 DUP4 GT PUSH1 0x40 DUP1 MLOAD SWAP1 DUP2 ADD PUSH1 0x40 MSTORE DUP1 PUSH1 0x1E DUP2 MSTORE PUSH1 0x20 ADD PUSH32 0x4C656E677468206D7573742062652067726561746572207468616E20302E0000 DUP2 MSTORE POP SWAP1 ISZERO ISZERO PUSH2 0x5762 JUMPI PUSH1 0x40 MLOAD PUSH32 0x8C379A000000000000000000000000000000000000000000000000000000000 DUP2 MSTORE PUSH1 0x4 ADD PUSH2 0x5759 SWAP2 SWAP1 PUSH2 0x6B04 JUMP JUMPDEST PUSH1 0x40 MLOAD DUP1 SWAP2 SUB SWAP1 REVERT JUMPDEST POP DUP7 PUSH1 0x1 DUP5 SUB DUP2 MLOAD DUP2 LT ISZERO ISZERO PUSH2 0x5774 JUMPI INVALID JUMPDEST SWAP1 PUSH1 0x20 ADD ADD MLOAD PUSH32 0x100000000000000000000000000000000000000000000000000000000000000 SWAP1 DIV PUSH32 0x100000000000000000000000000000000000000000000000000000000000000 MUL PUSH32 0x100000000000000000000000000000000000000000000000000000000000000 SWAP1 DIV SWAP2 POP PUSH1 0x9 PUSH1 0x0 DUP4 PUSH1 0xFF AND PUSH1 0xFF AND DUP2 MSTORE PUSH1 0x20 ADD SWAP1 DUP2 MSTORE PUSH1 0x20 ADD PUSH1 0x0 KECCAK256 PUSH1 0x0 SWAP1 SLOAD SWAP1 PUSH2 0x100 EXP SWAP1 DIV PUSH20 0xFFFFFFFFFFFFFFFFFFFFFFFFFFFFFFFFFFFFFFFF AND SWAP1 POP DUP1 PUSH20 0xFFFFFFFFFFFFFFFFFFFFFFFFFFFFFFFFFFFFFFFF AND PUSH4 0xA85E59E4 DUP9 DUP9 DUP9 DUP9 PUSH1 0x40 MLOAD DUP6 PUSH4 0xFFFFFFFF AND PUSH29 0x100000000000000000000000000000000000000000000000000000000 MUL DUP2 MSTORE PUSH1 0x4 ADD PUSH2 0x587B SWAP5 SWAP4 SWAP3 SWAP2 SWAP1 PUSH2 0x6A66 JUMP JUMPDEST PUSH1 0x0 PUSH1 0x40 MLOAD DUP1 DUP4 SUB DUP2 PUSH1 0x0 DUP8 DUP1 EXTCODESIZE ISZERO DUP1 ISZERO PUSH2 0x5895 JUMPI PUSH1 0x0 DUP1 REVERT JUMPDEST POP GAS CALL ISZERO DUP1 ISZERO PUSH2 0x58A9 JUMPI RETURNDATASIZE PUSH1 0x0 DUP1 RETURNDATACOPY RETURNDATASIZE PUSH1 0x0 REVERT JUMPDEST POP POP POP POP JUMPDEST POP POP POP POP POP POP POP JUMP JUMPDEST PUSH1 0x0 DUP1 DUP3 DUP5 ADD SWAP1 POP DUP4 DUP2 LT ISZERO ISZERO ISZERO PUSH2 0x58CB JUMPI INVALID JUMPDEST DUP1 SWAP2 POP POP SWAP3 SWAP2 POP POP JUMP JUMPDEST PUSH1 0x0 DUP1 DUP3 DUP5 DUP2 ISZERO ISZERO PUSH2 0x58E3 JUMPI INVALID JUMPDEST DIV SWAP1 POP DUP1 SWAP2 POP POP SWAP3 SWAP2 POP POP JUMP JUMPDEST PUSH1 0x0 PUSH1 0x14 DUP3 ADD DUP4 MLOAD LT ISZERO PUSH1 0x60 PUSH1 0x40 MLOAD SWAP1 DUP2 ADD PUSH1 0x40 MSTORE DUP1 PUSH1 0x2B DUP2 MSTORE PUSH1 0x20 ADD PUSH32 0x4C656E677468206D7573742062652067726561746572207468616E206F722065 DUP2 MSTORE PUSH1 0x20 ADD PUSH32 0x7175616C20746F2032302E000000000000000000000000000000000000000000 DUP2 MSTORE POP SWAP1 ISZERO ISZERO PUSH2 0x599A JUMPI PUSH1 0x40 MLOAD PUSH32 0x8C379A000000000000000000000000000000000000000000000000000000000 DUP2 MSTORE PUSH1 0x4 ADD PUSH2 0x5991 SWAP2 SWAP1 PUSH2 0x6B04 JUMP JUMPDEST PUSH1 0x40 MLOAD DUP1 SWAP2 SUB SWAP1 REVERT JUMPDEST POP PUSH1 0x14 DUP3 ADD SWAP2 POP PUSH20 0xFFFFFFFFFFFFFFFFFFFFFFFFFFFFFFFFFFFFFFFF DUP3 DUP5 ADD MLOAD AND SWAP1 POP DUP1 SWAP1 POP SWAP3 SWAP2 POP POP JUMP JUMPDEST PUSH2 0x120 PUSH1 0x40 MLOAD SWAP1 DUP2 ADD PUSH1 0x40 MSTORE DUP1 PUSH2 0x59DB PUSH2 0x5A46 JUMP JUMPDEST DUP2 MSTORE PUSH1 0x20 ADD PUSH2 0x59E8 PUSH2 0x5A46 JUMP JUMPDEST DUP2 MSTORE PUSH1 0x20 ADD PUSH1 0x0 DUP2 MSTORE POP SWAP1 JUMP JUMPDEST PUSH1 0x60 PUSH1 0x40 MLOAD SWAP1 DUP2 ADD PUSH1 0x40 MSTORE DUP1 PUSH1 0x0 PUSH1 0xFF AND DUP2 MSTORE PUSH1 0x20 ADD PUSH1 0x0 DUP1 NOT AND DUP2 MSTORE PUSH1 0x20 ADD PUSH1 0x0 DUP2 MSTORE POP SWAP1 JUMP JUMPDEST PUSH1 0x80 PUSH1 0x40 MLOAD SWAP1 DUP2 ADD PUSH1 0x40 MSTORE DUP1 PUSH1 0x0 DUP2 MSTORE PUSH1 0x20 ADD PUSH1 0x0 DUP2 MSTORE PUSH1 0x20 ADD PUSH1 0x0 DUP2 MSTORE PUSH1 0x20 ADD PUSH1 0x0 DUP2 MSTORE POP SWAP1 JUMP JUMPDEST PUSH1 0x80 PUSH1 0x40 MLOAD SWAP1 DUP2 ADD PUSH1 0x40 MSTORE DUP1 PUSH1 0x0 DUP2 MSTORE PUSH1 0x20 ADD PUSH1 0x0 DUP2 MSTORE PUSH1 0x20 ADD PUSH1 0x0 DUP2 MSTORE PUSH1 0x20 ADD PUSH1 0x0 DUP2 MSTORE POP SWAP1 JUMP JUMPDEST PUSH1 0x0 PUSH2 0x5A7B DUP3 CALLDATALOAD PUSH2 0x6D7E JUMP JUMPDEST SWAP1 POP SWAP3 SWAP2 POP POP JUMP JUMPDEST PUSH1 0x0 DUP3 PUSH1 0x1F DUP4 ADD SLT ISZERO ISZERO PUSH2 0x5A96 JUMPI PUSH1 0x0 DUP1 REVERT JUMPDEST DUP2 CALLDATALOAD PUSH2 0x5AA9 PUSH2 0x5AA4 DUP3 PUSH2 0x6C40 JUMP JUMPDEST PUSH2 0x6C13 JUMP JUMPDEST SWAP2 POP DUP2 DUP2 DUP4 MSTORE PUSH1 0x20 DUP5 ADD SWAP4 POP PUSH1 0x20 DUP2 ADD SWAP1 POP DUP4 PUSH1 0x0 JUMPDEST DUP4 DUP2 LT ISZERO PUSH2 0x5AEF JUMPI DUP2 CALLDATALOAD DUP7 ADD PUSH2 0x5AD5 DUP9 DUP3 PUSH2 0x5C7C JUMP JUMPDEST DUP5 MSTORE PUSH1 0x20 DUP5 ADD SWAP4 POP PUSH1 0x20 DUP4 ADD SWAP3 POP POP PUSH1 0x1 DUP2 ADD SWAP1 POP PUSH2 0x5ABF JUMP JUMPDEST POP POP POP POP SWAP3 SWAP2 POP POP JUMP JUMPDEST PUSH1 0x0 DUP3 PUSH1 0x1F DUP4 ADD SLT ISZERO ISZERO PUSH2 0x5B0C JUMPI PUSH1 0x0 DUP1 REVERT JUMPDEST DUP2 CALLDATALOAD PUSH2 0x5B1F PUSH2 0x5B1A DUP3 PUSH2 0x6C68 JUMP JUMPDEST PUSH2 0x6C13 JUMP JUMPDEST SWAP2 POP DUP2 DUP2 DUP4 MSTORE PUSH1 0x20 DUP5 ADD SWAP4 POP PUSH1 0x20 DUP2 ADD SWAP1 POP DUP4 PUSH1 0x0 JUMPDEST DUP4 DUP2 LT ISZERO PUSH2 0x5B65 JUMPI DUP2 CALLDATALOAD DUP7 ADD PUSH2 0x5B4B DUP9 DUP3 PUSH2 0x5D28 JUMP JUMPDEST DUP5 MSTORE PUSH1 0x20 DUP5 ADD SWAP4 POP PUSH1 0x20 DUP4 ADD SWAP3 POP POP PUSH1 0x1 DUP2 ADD SWAP1 POP PUSH2 0x5B35 JUMP JUMPDEST POP POP POP POP SWAP3 SWAP2 POP POP JUMP JUMPDEST PUSH1 0x0 DUP3 PUSH1 0x1F DUP4 ADD SLT ISZERO ISZERO PUSH2 0x5B82 JUMPI PUSH1 0x0 DUP1 REVERT JUMPDEST DUP2 CALLDATALOAD PUSH2 0x5B95 PUSH2 0x5B90 DUP3 PUSH2 0x6C90 JUMP JUMPDEST PUSH2 0x6C13 JUMP JUMPDEST SWAP2 POP DUP2 DUP2 DUP4 MSTORE PUSH1 0x20 DUP5 ADD SWAP4 POP PUSH1 0x20 DUP2 ADD SWAP1 POP DUP4 DUP6 PUSH1 0x20 DUP5 MUL DUP3 ADD GT ISZERO PUSH2 0x5BBA JUMPI PUSH1 0x0 DUP1 REVERT JUMPDEST PUSH1 0x0 JUMPDEST DUP4 DUP2 LT ISZERO PUSH2 0x5BEA JUMPI DUP2 PUSH2 0x5BD0 DUP9 DUP3 PUSH2 0x5FC4 JUMP JUMPDEST DUP5 MSTORE PUSH1 0x20 DUP5 ADD SWAP4 POP PUSH1 0x20 DUP4 ADD SWAP3 POP POP PUSH1 0x1 DUP2 ADD SWAP1 POP PUSH2 0x5BBD JUMP JUMPDEST POP POP POP POP SWAP3 SWAP2 POP POP JUMP JUMPDEST PUSH1 0x0 PUSH2 0x5C00 DUP3 CALLDATALOAD PUSH2 0x6D9E JUMP JUMPDEST SWAP1 POP SWAP3 SWAP2 POP POP JUMP JUMPDEST PUSH1 0x0 PUSH2 0x5C14 DUP3 MLOAD PUSH2 0x6D9E JUMP JUMPDEST SWAP1 POP SWAP3 SWAP2 POP POP JUMP JUMPDEST PUSH1 0x0 PUSH2 0x5C28 DUP3 CALLDATALOAD PUSH2 0x6DAA JUMP JUMPDEST SWAP1 POP SWAP3 SWAP2 POP POP JUMP JUMPDEST PUSH1 0x0 DUP1 DUP4 PUSH1 0x1F DUP5 ADD SLT ISZERO ISZERO PUSH2 0x5C44 JUMPI PUSH1 0x0 DUP1 REVERT JUMPDEST DUP3 CALLDATALOAD SWAP1 POP PUSH8 0xFFFFFFFFFFFFFFFF DUP2 GT ISZERO PUSH2 0x5C5D JUMPI PUSH1 0x0 DUP1 REVERT JUMPDEST PUSH1 0x20 DUP4 ADD SWAP2 POP DUP4 PUSH1 0x1 DUP3 MUL DUP4 ADD GT ISZERO PUSH2 0x5C75 JUMPI PUSH1 0x0 DUP1 REVERT JUMPDEST SWAP3 POP SWAP3 SWAP1 POP JUMP JUMPDEST PUSH1 0x0 DUP3 PUSH1 0x1F DUP4 ADD SLT ISZERO ISZERO PUSH2 0x5C8F JUMPI PUSH1 0x0 DUP1 REVERT JUMPDEST DUP2 CALLDATALOAD PUSH2 0x5CA2 PUSH2 0x5C9D DUP3 PUSH2 0x6CB8 JUMP JUMPDEST PUSH2 0x6C13 JUMP JUMPDEST SWAP2 POP DUP1 DUP3 MSTORE PUSH1 0x20 DUP4 ADD PUSH1 0x20 DUP4 ADD DUP6 DUP4 DUP4 ADD GT ISZERO PUSH2 0x5CBE JUMPI PUSH1 0x0 DUP1 REVERT JUMPDEST PUSH2 0x5CC9 DUP4 DUP3 DUP5 PUSH2 0x6DDD JUMP JUMPDEST POP POP POP SWAP3 SWAP2 POP POP JUMP JUMPDEST PUSH1 0x0 DUP3 PUSH1 0x1F DUP4 ADD SLT ISZERO ISZERO PUSH2 0x5CE5 JUMPI PUSH1 0x0 DUP1 REVERT JUMPDEST DUP2 CALLDATALOAD PUSH2 0x5CF8 PUSH2 0x5CF3 DUP3 PUSH2 0x6CE4 JUMP JUMPDEST PUSH2 0x6C13 JUMP JUMPDEST SWAP2 POP DUP1 DUP3 MSTORE PUSH1 0x20 DUP4 ADD PUSH1 0x20 DUP4 ADD DUP6 DUP4 DUP4 ADD GT ISZERO PUSH2 0x5D14 JUMPI PUSH1 0x0 DUP1 REVERT JUMPDEST PUSH2 0x5D1F DUP4 DUP3 DUP5 PUSH2 0x6DDD JUMP JUMPDEST POP POP POP SWAP3 SWAP2 POP POP JUMP JUMPDEST PUSH1 0x0 PUSH2 0x180 DUP3 DUP5 SUB SLT ISZERO PUSH2 0x5D3B JUMPI PUSH1 0x0 DUP1 REVERT JUMPDEST PUSH2 0x5D46 PUSH2 0x180 PUSH2 0x6C13 JUMP JUMPDEST SWAP1 POP PUSH1 0x0 PUSH2 0x5D56 DUP5 DUP3 DUP6 ADD PUSH2 0x5A6F JUMP JUMPDEST PUSH1 0x0 DUP4 ADD MSTORE POP PUSH1 0x20 PUSH2 0x5D6A DUP5 DUP3 DUP6 ADD PUSH2 0x5A6F JUMP JUMPDEST PUSH1 0x20 DUP4 ADD MSTORE POP PUSH1 0x40 PUSH2 0x5D7E DUP5 DUP3 DUP6 ADD PUSH2 0x5A6F JUMP JUMPDEST PUSH1 0x40 DUP4 ADD MSTORE POP PUSH1 0x60 PUSH2 0x5D92 DUP5 DUP3 DUP6 ADD PUSH2 0x5A6F JUMP JUMPDEST PUSH1 0x60 DUP4 ADD MSTORE POP PUSH1 0x80 PUSH2 0x5DA6 DUP5 DUP3 DUP6 ADD PUSH2 0x5FC4 JUMP JUMPDEST PUSH1 0x80 DUP4 ADD MSTORE POP PUSH1 0xA0 PUSH2 0x5DBA DUP5 DUP3 DUP6 ADD PUSH2 0x5FC4 JUMP JUMPDEST PUSH1 0xA0 DUP4 ADD MSTORE POP PUSH1 0xC0 PUSH2 0x5DCE DUP5 DUP3 DUP6 ADD PUSH2 0x5FC4 JUMP JUMPDEST PUSH1 0xC0 DUP4 ADD MSTORE POP PUSH1 0xE0 PUSH2 0x5DE2 DUP5 DUP3 DUP6 ADD PUSH2 0x5FC4 JUMP JUMPDEST PUSH1 0xE0 DUP4 ADD MSTORE POP PUSH2 0x100 PUSH2 0x5DF7 DUP5 DUP3 DUP6 ADD PUSH2 0x5FC4 JUMP JUMPDEST PUSH2 0x100 DUP4 ADD MSTORE POP PUSH2 0x120 PUSH2 0x5E0D DUP5 DUP3 DUP6 ADD PUSH2 0x5FC4 JUMP JUMPDEST PUSH2 0x120 DUP4 ADD MSTORE POP PUSH2 0x140 DUP3 ADD CALLDATALOAD PUSH8 0xFFFFFFFFFFFFFFFF DUP2 GT ISZERO PUSH2 0x5E2F JUMPI PUSH1 0x0 DUP1 REVERT JUMPDEST PUSH2 0x5E3B DUP5 DUP3 DUP6 ADD PUSH2 0x5C7C JUMP JUMPDEST PUSH2 0x140 DUP4 ADD MSTORE POP PUSH2 0x160 DUP3 ADD CALLDATALOAD PUSH8 0xFFFFFFFFFFFFFFFF DUP2 GT ISZERO PUSH2 0x5E5D JUMPI PUSH1 0x0 DUP1 REVERT JUMPDEST PUSH2 0x5E69 DUP5 DUP3 DUP6 ADD PUSH2 0x5C7C JUMP JUMPDEST PUSH2 0x160 DUP4 ADD MSTORE POP SWAP3 SWAP2 POP POP JUMP JUMPDEST PUSH1 0x0 PUSH2 0x180 DUP3 DUP5 SUB SLT ISZERO PUSH2 0x5E89 JUMPI PUSH1 0x0 DUP1 REVERT JUMPDEST PUSH2 0x5E94 PUSH2 0x180 PUSH2 0x6C13 JUMP JUMPDEST SWAP1 POP PUSH1 0x0 PUSH2 0x5EA4 DUP5 DUP3 DUP6 ADD PUSH2 0x5A6F JUMP JUMPDEST PUSH1 0x0 DUP4 ADD MSTORE POP PUSH1 0x20 PUSH2 0x5EB8 DUP5 DUP3 DUP6 ADD PUSH2 0x5A6F JUMP JUMPDEST PUSH1 0x20 DUP4 ADD MSTORE POP PUSH1 0x40 PUSH2 0x5ECC DUP5 DUP3 DUP6 ADD PUSH2 0x5A6F JUMP JUMPDEST PUSH1 0x40 DUP4 ADD MSTORE POP PUSH1 0x60 PUSH2 0x5EE0 DUP5 DUP3 DUP6 ADD PUSH2 0x5A6F JUMP JUMPDEST PUSH1 0x60 DUP4 ADD MSTORE POP PUSH1 0x80 PUSH2 0x5EF4 DUP5 DUP3 DUP6 ADD PUSH2 0x5FC4 JUMP JUMPDEST PUSH1 0x80 DUP4 ADD MSTORE POP PUSH1 0xA0 PUSH2 0x5F08 DUP5 DUP3 DUP6 ADD PUSH2 0x5FC4 JUMP JUMPDEST PUSH1 0xA0 DUP4 ADD MSTORE POP PUSH1 0xC0 PUSH2 0x5F1C DUP5 DUP3 DUP6 ADD PUSH2 0x5FC4 JUMP JUMPDEST PUSH1 0xC0 DUP4 ADD MSTORE POP PUSH1 0xE0 PUSH2 0x5F30 DUP5 DUP3 DUP6 ADD PUSH2 0x5FC4 JUMP JUMPDEST PUSH1 0xE0 DUP4 ADD MSTORE POP PUSH2 0x100 PUSH2 0x5F45 DUP5 DUP3 DUP6 ADD PUSH2 0x5FC4 JUMP JUMPDEST PUSH2 0x100 DUP4 ADD MSTORE POP PUSH2 0x120 PUSH2 0x5F5B DUP5 DUP3 DUP6 ADD PUSH2 0x5FC4 JUMP JUMPDEST PUSH2 0x120 DUP4 ADD MSTORE POP PUSH2 0x140 DUP3 ADD CALLDATALOAD PUSH8 0xFFFFFFFFFFFFFFFF DUP2 GT ISZERO PUSH2 0x5F7D JUMPI PUSH1 0x0 DUP1 REVERT JUMPDEST PUSH2 0x5F89 DUP5 DUP3 DUP6 ADD PUSH2 0x5C7C JUMP JUMPDEST PUSH2 0x140 DUP4 ADD MSTORE POP PUSH2 0x160 DUP3 ADD CALLDATALOAD PUSH8 0xFFFFFFFFFFFFFFFF DUP2 GT ISZERO PUSH2 0x5FAB JUMPI PUSH1 0x0 DUP1 REVERT JUMPDEST PUSH2 0x5FB7 DUP5 DUP3 DUP6 ADD PUSH2 0x5C7C JUMP JUMPDEST PUSH2 0x160 DUP4 ADD MSTORE POP SWAP3 SWAP2 POP POP JUMP JUMPDEST PUSH1 0x0 PUSH2 0x5FD0 DUP3 CALLDATALOAD PUSH2 0x6DB4 JUMP JUMPDEST SWAP1 POP SWAP3 SWAP2 POP POP JUMP JUMPDEST PUSH1 0x0 PUSH2 0x5FE4 DUP3 CALLDATALOAD PUSH2 0x6DBE JUMP JUMPDEST SWAP1 POP SWAP3 SWAP2 POP POP JUMP JUMPDEST PUSH1 0x0 PUSH2 0x5FF8 DUP3 MLOAD PUSH2 0x6DBE JUMP JUMPDEST SWAP1 POP SWAP3 SWAP2 POP POP JUMP JUMPDEST PUSH1 0x0 PUSH1 0x20 DUP3 DUP5 SUB SLT ISZERO PUSH2 0x6012 JUMPI PUSH1 0x0 DUP1 REVERT JUMPDEST PUSH1 0x0 PUSH2 0x6020 DUP5 DUP3 DUP6 ADD PUSH2 0x5A6F JUMP JUMPDEST SWAP2 POP POP SWAP3 SWAP2 POP POP JUMP JUMPDEST PUSH1 0x0 DUP1 PUSH1 0x40 DUP4 DUP6 SUB SLT ISZERO PUSH2 0x603C JUMPI PUSH1 0x0 DUP1 REVERT JUMPDEST PUSH1 0x0 PUSH2 0x604A DUP6 DUP3 DUP7 ADD PUSH2 0x5A6F JUMP JUMPDEST SWAP3 POP POP PUSH1 0x20 PUSH2 0x605B DUP6 DUP3 DUP7 ADD PUSH2 0x5A6F JUMP JUMPDEST SWAP2 POP POP SWAP3 POP SWAP3 SWAP1 POP JUMP JUMPDEST PUSH1 0x0 DUP1 PUSH1 0x40 DUP4 DUP6 SUB SLT ISZERO PUSH2 0x6078 JUMPI PUSH1 0x0 DUP1 REVERT JUMPDEST PUSH1 0x0 PUSH2 0x6086 DUP6 DUP3 DUP7 ADD PUSH2 0x5A6F JUMP JUMPDEST SWAP3 POP POP PUSH1 0x20 PUSH2 0x6097 DUP6 DUP3 DUP7 ADD PUSH2 0x5BF4 JUMP JUMPDEST SWAP2 POP POP SWAP3 POP SWAP3 SWAP1 POP JUMP JUMPDEST PUSH1 0x0 PUSH1 0x20 DUP3 DUP5 SUB SLT ISZERO PUSH2 0x60B3 JUMPI PUSH1 0x0 DUP1 REVERT JUMPDEST PUSH1 0x0 DUP3 ADD CALLDATALOAD PUSH8 0xFFFFFFFFFFFFFFFF DUP2 GT ISZERO PUSH2 0x60CD JUMPI PUSH1 0x0 DUP1 REVERT JUMPDEST PUSH2 0x60D9 DUP5 DUP3 DUP6 ADD PUSH2 0x5AF9 JUMP JUMPDEST SWAP2 POP POP SWAP3 SWAP2 POP POP JUMP JUMPDEST PUSH1 0x0 DUP1 PUSH1 0x0 PUSH1 0x60 DUP5 DUP7 SUB SLT ISZERO PUSH2 0x60F7 JUMPI PUSH1 0x0 DUP1 REVERT JUMPDEST PUSH1 0x0 DUP5 ADD CALLDATALOAD PUSH8 0xFFFFFFFFFFFFFFFF DUP2 GT ISZERO PUSH2 0x6111 JUMPI PUSH1 0x0 DUP1 REVERT JUMPDEST PUSH2 0x611D DUP7 DUP3 DUP8 ADD PUSH2 0x5AF9 JUMP JUMPDEST SWAP4 POP POP PUSH1 0x20 DUP5 ADD CALLDATALOAD PUSH8 0xFFFFFFFFFFFFFFFF DUP2 GT ISZERO PUSH2 0x613A JUMPI PUSH1 0x0 DUP1 REVERT JUMPDEST PUSH2 0x6146 DUP7 DUP3 DUP8 ADD PUSH2 0x5B6F JUMP JUMPDEST SWAP3 POP POP PUSH1 0x40 DUP5 ADD CALLDATALOAD PUSH8 0xFFFFFFFFFFFFFFFF DUP2 GT ISZERO PUSH2 0x6163 JUMPI PUSH1 0x0 DUP1 REVERT JUMPDEST PUSH2 0x616F DUP7 DUP3 DUP8 ADD PUSH2 0x5A83 JUMP JUMPDEST SWAP2 POP POP SWAP3 POP SWAP3 POP SWAP3 JUMP JUMPDEST PUSH1 0x0 DUP1 PUSH1 0x0 PUSH1 0x60 DUP5 DUP7 SUB SLT ISZERO PUSH2 0x618E JUMPI PUSH1 0x0 DUP1 REVERT JUMPDEST PUSH1 0x0 DUP5 ADD CALLDATALOAD PUSH8 0xFFFFFFFFFFFFFFFF DUP2 GT ISZERO PUSH2 0x61A8 JUMPI PUSH1 0x0 DUP1 REVERT JUMPDEST PUSH2 0x61B4 DUP7 DUP3 DUP8 ADD PUSH2 0x5AF9 JUMP JUMPDEST SWAP4 POP POP PUSH1 0x20 PUSH2 0x61C5 DUP7 DUP3 DUP8 ADD PUSH2 0x5FC4 JUMP JUMPDEST SWAP3 POP POP PUSH1 0x40 DUP5 ADD CALLDATALOAD PUSH8 0xFFFFFFFFFFFFFFFF DUP2 GT ISZERO PUSH2 0x61E2 JUMPI PUSH1 0x0 DUP1 REVERT JUMPDEST PUSH2 0x61EE DUP7 DUP3 DUP8 ADD PUSH2 0x5A83 JUMP JUMPDEST SWAP2 POP POP SWAP3 POP SWAP3 POP SWAP3 JUMP JUMPDEST PUSH1 0x0 PUSH1 0x20 DUP3 DUP5 SUB SLT ISZERO PUSH2 0x620A JUMPI PUSH1 0x0 DUP1 REVERT JUMPDEST PUSH1 0x0 PUSH2 0x6218 DUP5 DUP3 DUP6 ADD PUSH2 0x5C08 JUMP JUMPDEST SWAP2 POP POP SWAP3 SWAP2 POP POP JUMP JUMPDEST PUSH1 0x0 PUSH1 0x20 DUP3 DUP5 SUB SLT ISZERO PUSH2 0x6233 JUMPI PUSH1 0x0 DUP1 REVERT JUMPDEST PUSH1 0x0 PUSH2 0x6241 DUP5 DUP3 DUP6 ADD PUSH2 0x5C1C JUMP JUMPDEST SWAP2 POP POP SWAP3 SWAP2 POP POP JUMP JUMPDEST PUSH1 0x0 DUP1 PUSH1 0x40 DUP4 DUP6 SUB SLT ISZERO PUSH2 0x625D JUMPI PUSH1 0x0 DUP1 REVERT JUMPDEST PUSH1 0x0 PUSH2 0x626B DUP6 DUP3 DUP7 ADD PUSH2 0x5C1C JUMP JUMPDEST SWAP3 POP POP PUSH1 0x20 PUSH2 0x627C DUP6 DUP3 DUP7 ADD PUSH2 0x5A6F JUMP JUMPDEST SWAP2 POP POP SWAP3 POP SWAP3 SWAP1 POP JUMP JUMPDEST PUSH1 0x0 DUP1 PUSH1 0x0 DUP1 PUSH1 0x60 DUP6 DUP8 SUB SLT ISZERO PUSH2 0x629C JUMPI PUSH1 0x0 DUP1 REVERT JUMPDEST PUSH1 0x0 PUSH2 0x62AA DUP8 DUP3 DUP9 ADD PUSH2 0x5C1C JUMP JUMPDEST SWAP5 POP POP PUSH1 0x20 PUSH2 0x62BB DUP8 DUP3 DUP9 ADD PUSH2 0x5A6F JUMP JUMPDEST SWAP4 POP POP PUSH1 0x40 DUP6 ADD CALLDATALOAD PUSH8 0xFFFFFFFFFFFFFFFF DUP2 GT ISZERO PUSH2 0x62D8 JUMPI PUSH1 0x0 DUP1 REVERT JUMPDEST PUSH2 0x62E4 DUP8 DUP3 DUP9 ADD PUSH2 0x5C30 JUMP JUMPDEST SWAP3 POP SWAP3 POP POP SWAP3 SWAP6 SWAP2 SWAP5 POP SWAP3 POP JUMP JUMPDEST PUSH1 0x0 PUSH1 0x20 DUP3 DUP5 SUB SLT ISZERO PUSH2 0x6304 JUMPI PUSH1 0x0 DUP1 REVERT JUMPDEST PUSH1 0x0 DUP3 ADD CALLDATALOAD PUSH8 0xFFFFFFFFFFFFFFFF DUP2 GT ISZERO PUSH2 0x631E JUMPI PUSH1 0x0 DUP1 REVERT JUMPDEST PUSH2 0x632A DUP5 DUP3 DUP6 ADD PUSH2 0x5E76 JUMP JUMPDEST SWAP2 POP POP SWAP3 SWAP2 POP POP JUMP JUMPDEST PUSH1 0x0 DUP1 PUSH1 0x0 DUP1 PUSH1 0x80 DUP6 DUP8 SUB SLT ISZERO PUSH2 0x6349 JUMPI PUSH1 0x0 DUP1 REVERT JUMPDEST PUSH1 0x0 DUP6 ADD CALLDATALOAD PUSH8 0xFFFFFFFFFFFFFFFF DUP2 GT ISZERO PUSH2 0x6363 JUMPI PUSH1 0x0 DUP1 REVERT JUMPDEST PUSH2 0x636F DUP8 DUP3 DUP9 ADD PUSH2 0x5E76 JUMP JUMPDEST SWAP5 POP POP PUSH1 0x20 DUP6 ADD CALLDATALOAD PUSH8 0xFFFFFFFFFFFFFFFF DUP2 GT ISZERO PUSH2 0x638C JUMPI PUSH1 0x0 DUP1 REVERT JUMPDEST PUSH2 0x6398 DUP8 DUP3 DUP9 ADD PUSH2 0x5E76 JUMP JUMPDEST SWAP4 POP POP PUSH1 0x40 DUP6 ADD CALLDATALOAD PUSH8 0xFFFFFFFFFFFFFFFF DUP2 GT ISZERO PUSH2 0x63B5 JUMPI PUSH1 0x0 DUP1 REVERT JUMPDEST PUSH2 0x63C1 DUP8 DUP3 DUP9 ADD PUSH2 0x5CD2 JUMP JUMPDEST SWAP3 POP POP PUSH1 0x60 DUP6 ADD CALLDATALOAD PUSH8 0xFFFFFFFFFFFFFFFF DUP2 GT ISZERO PUSH2 0x63DE JUMPI PUSH1 0x0 DUP1 REVERT JUMPDEST PUSH2 0x63EA DUP8 DUP3 DUP9 ADD PUSH2 0x5CD2 JUMP JUMPDEST SWAP2 POP POP SWAP3 SWAP6 SWAP2 SWAP5 POP SWAP3 POP JUMP JUMPDEST PUSH1 0x0 DUP1 PUSH1 0x0 PUSH1 0x60 DUP5 DUP7 SUB SLT ISZERO PUSH2 0x640B JUMPI PUSH1 0x0 DUP1 REVERT JUMPDEST PUSH1 0x0 DUP5 ADD CALLDATALOAD PUSH8 0xFFFFFFFFFFFFFFFF DUP2 GT ISZERO PUSH2 0x6425 JUMPI PUSH1 0x0 DUP1 REVERT JUMPDEST PUSH2 0x6431 DUP7 DUP3 DUP8 ADD PUSH2 0x5E76 JUMP JUMPDEST SWAP4 POP POP PUSH1 0x20 PUSH2 0x6442 DUP7 DUP3 DUP8 ADD PUSH2 0x5FC4 JUMP JUMPDEST SWAP3 POP POP PUSH1 0x40 DUP5 ADD CALLDATALOAD PUSH8 0xFFFFFFFFFFFFFFFF DUP2 GT ISZERO PUSH2 0x645F JUMPI PUSH1 0x0 DUP1 REVERT JUMPDEST PUSH2 0x646B DUP7 DUP3 DUP8 ADD PUSH2 0x5CD2 JUMP JUMPDEST SWAP2 POP POP SWAP3 POP SWAP3 POP SWAP3 JUMP JUMPDEST PUSH1 0x0 DUP1 PUSH1 0x0 DUP1 PUSH1 0x80 DUP6 DUP8 SUB SLT ISZERO PUSH2 0x648B JUMPI PUSH1 0x0 DUP1 REVERT JUMPDEST PUSH1 0x0 DUP6 ADD CALLDATALOAD PUSH8 0xFFFFFFFFFFFFFFFF DUP2 GT ISZERO PUSH2 0x64A5 JUMPI PUSH1 0x0 DUP1 REVERT JUMPDEST PUSH2 0x64B1 DUP8 DUP3 DUP9 ADD PUSH2 0x5E76 JUMP JUMPDEST SWAP5 POP POP PUSH1 0x20 PUSH2 0x64C2 DUP8 DUP3 DUP9 ADD PUSH2 0x5FD8 JUMP JUMPDEST SWAP4 POP POP PUSH1 0x40 PUSH2 0x64D3 DUP8 DUP3 DUP9 ADD PUSH2 0x5FC4 JUMP JUMPDEST SWAP3 POP POP PUSH1 0x60 PUSH2 0x64E4 DUP8 DUP3 DUP9 ADD PUSH2 0x5FC4 JUMP JUMPDEST SWAP2 POP POP SWAP3 SWAP6 SWAP2 SWAP5 POP SWAP3 POP JUMP JUMPDEST PUSH1 0x0 PUSH1 0x20 DUP3 DUP5 SUB SLT ISZERO PUSH2 0x6502 JUMPI PUSH1 0x0 DUP1 REVERT JUMPDEST PUSH1 0x0 PUSH2 0x6510 DUP5 DUP3 DUP6 ADD PUSH2 0x5FC4 JUMP JUMPDEST SWAP2 POP POP SWAP3 SWAP2 POP POP JUMP JUMPDEST PUSH1 0x0 DUP1 PUSH1 0x0 DUP1 PUSH1 0x0 DUP1 PUSH1 0x80 DUP8 DUP10 SUB SLT ISZERO PUSH2 0x6532 JUMPI PUSH1 0x0 DUP1 REVERT JUMPDEST PUSH1 0x0 PUSH2 0x6540 DUP10 DUP3 DUP11 ADD PUSH2 0x5FC4 JUMP JUMPDEST SWAP7 POP POP PUSH1 0x20 PUSH2 0x6551 DUP10 DUP3 DUP11 ADD PUSH2 0x5A6F JUMP JUMPDEST SWAP6 POP POP PUSH1 0x40 DUP8 ADD CALLDATALOAD PUSH8 0xFFFFFFFFFFFFFFFF DUP2 GT ISZERO PUSH2 0x656E JUMPI PUSH1 0x0 DUP1 REVERT JUMPDEST PUSH2 0x657A DUP10 DUP3 DUP11 ADD PUSH2 0x5C30 JUMP JUMPDEST SWAP5 POP SWAP5 POP POP PUSH1 0x60 DUP8 ADD CALLDATALOAD PUSH8 0xFFFFFFFFFFFFFFFF DUP2 GT ISZERO PUSH2 0x6599 JUMPI PUSH1 0x0 DUP1 REVERT JUMPDEST PUSH2 0x65A5 DUP10 DUP3 DUP11 ADD PUSH2 0x5C30 JUMP JUMPDEST SWAP3 POP SWAP3 POP POP SWAP3 SWAP6 POP SWAP3 SWAP6 POP SWAP3 SWAP6 JUMP JUMPDEST PUSH1 0x0 PUSH1 0x20 DUP3 DUP5 SUB SLT ISZERO PUSH2 0x65C6 JUMPI PUSH1 0x0 DUP1 REVERT JUMPDEST PUSH1 0x0 PUSH2 0x65D4 DUP5 DUP3 DUP6 ADD PUSH2 0x5FD8 JUMP JUMPDEST SWAP2 POP POP SWAP3 SWAP2 POP POP JUMP JUMPDEST PUSH1 0x0 PUSH1 0x20 DUP3 DUP5 SUB SLT ISZERO PUSH2 0x65EF JUMPI PUSH1 0x0 DUP1 REVERT JUMPDEST PUSH1 0x0 PUSH2 0x65FD DUP5 DUP3 DUP6 ADD PUSH2 0x5FEC JUMP JUMPDEST SWAP2 POP POP SWAP3 SWAP2 POP POP JUMP JUMPDEST PUSH1 0x0 DUP1 PUSH1 0x0 PUSH1 0x60 DUP5 DUP7 SUB SLT ISZERO PUSH2 0x661B JUMPI PUSH1 0x0 DUP1 REVERT JUMPDEST PUSH1 0x0 PUSH2 0x6629 DUP7 DUP3 DUP8 ADD PUSH2 0x5FD8 JUMP JUMPDEST SWAP4 POP POP PUSH1 0x20 PUSH2 0x663A DUP7 DUP3 DUP8 ADD PUSH2 0x5A6F JUMP JUMPDEST SWAP3 POP POP PUSH1 0x40 PUSH2 0x664B DUP7 DUP3 DUP8 ADD PUSH2 0x5A6F JUMP JUMPDEST SWAP2 POP POP SWAP3 POP SWAP3 POP SWAP3 JUMP JUMPDEST PUSH2 0x665E DUP2 PUSH2 0x6D31 JUMP JUMPDEST DUP3 MSTORE POP POP JUMP JUMPDEST PUSH2 0x666D DUP2 PUSH2 0x6D51 JUMP JUMPDEST DUP3 MSTORE POP POP JUMP JUMPDEST PUSH2 0x667C DUP2 PUSH2 0x6D5D JUMP JUMPDEST DUP3 MSTORE POP POP JUMP JUMPDEST PUSH1 0x0 PUSH2 0x668D DUP3 PUSH2 0x6D1B JUMP JUMPDEST DUP1 DUP5 MSTORE PUSH2 0x66A1 DUP2 PUSH1 0x20 DUP7 ADD PUSH1 0x20 DUP7 ADD PUSH2 0x6DEC JUMP JUMPDEST PUSH2 0x66AA DUP2 PUSH2 0x6E1F JUMP JUMPDEST PUSH1 0x20 DUP6 ADD ADD SWAP2 POP POP SWAP3 SWAP2 POP POP JUMP JUMPDEST PUSH1 0x0 PUSH2 0x66C3 DUP3 PUSH2 0x6D10 JUMP JUMPDEST DUP1 DUP5 MSTORE PUSH2 0x66D7 DUP2 PUSH1 0x20 DUP7 ADD PUSH1 0x20 DUP7 ADD PUSH2 0x6DEC JUMP JUMPDEST PUSH2 0x66E0 DUP2 PUSH2 0x6E1F JUMP JUMPDEST PUSH1 0x20 DUP6 ADD ADD SWAP2 POP POP SWAP3 SWAP2 POP POP JUMP JUMPDEST PUSH2 0x66F7 DUP2 PUSH2 0x6DCB JUMP JUMPDEST DUP3 MSTORE POP POP JUMP JUMPDEST PUSH1 0x0 PUSH2 0x6708 DUP3 PUSH2 0x6D26 JUMP JUMPDEST DUP1 DUP5 MSTORE PUSH2 0x671C DUP2 PUSH1 0x20 DUP7 ADD PUSH1 0x20 DUP7 ADD PUSH2 0x6DEC JUMP JUMPDEST PUSH2 0x6725 DUP2 PUSH2 0x6E1F JUMP JUMPDEST PUSH1 0x20 DUP6 ADD ADD SWAP2 POP POP SWAP3 SWAP2 POP POP JUMP JUMPDEST PUSH1 0x0 PUSH1 0x33 DUP3 MSTORE PUSH32 0x4F6E6C7920636F6E7472616374206F776E657220697320616C6C6F7765642074 PUSH1 0x20 DUP4 ADD MSTORE PUSH32 0x6F2063616C6C2074686973206D6574686F642E00000000000000000000000000 PUSH1 0x40 DUP4 ADD MSTORE PUSH1 0x60 DUP3 ADD SWAP1 POP SWAP2 SWAP1 POP JUMP JUMPDEST PUSH1 0x80 DUP3 ADD PUSH1 0x0 DUP3 ADD MLOAD PUSH2 0x67A6 PUSH1 0x0 DUP6 ADD DUP3 PUSH2 0x68C0 JUMP JUMPDEST POP PUSH1 0x20 DUP3 ADD MLOAD PUSH2 0x67B9 PUSH1 0x20 DUP6 ADD DUP3 PUSH2 0x68C0 JUMP JUMPDEST POP PUSH1 0x40 DUP3 ADD MLOAD PUSH2 0x67CC PUSH1 0x40 DUP6 ADD DUP3 PUSH2 0x68C0 JUMP JUMPDEST POP PUSH1 0x60 DUP3 ADD MLOAD PUSH2 0x67DF PUSH1 0x60 DUP6 ADD DUP3 PUSH2 0x68C0 JUMP JUMPDEST POP POP POP POP JUMP JUMPDEST PUSH1 0x80 DUP3 ADD PUSH1 0x0 DUP3 ADD MLOAD PUSH2 0x67FB PUSH1 0x0 DUP6 ADD DUP3 PUSH2 0x68C0 JUMP JUMPDEST POP PUSH1 0x20 DUP3 ADD MLOAD PUSH2 0x680E PUSH1 0x20 DUP6 ADD DUP3 PUSH2 0x68C0 JUMP JUMPDEST POP PUSH1 0x40 DUP3 ADD MLOAD PUSH2 0x6821 PUSH1 0x40 DUP6 ADD DUP3 PUSH2 0x68C0 JUMP JUMPDEST POP PUSH1 0x60 DUP3 ADD MLOAD PUSH2 0x6834 PUSH1 0x60 DUP6 ADD DUP3 PUSH2 0x68C0 JUMP JUMPDEST POP POP POP POP JUMP JUMPDEST PUSH2 0x120 DUP3 ADD PUSH1 0x0 DUP3 ADD MLOAD PUSH2 0x6851 PUSH1 0x0 DUP6 ADD DUP3 PUSH2 0x67E5 JUMP JUMPDEST POP PUSH1 0x20 DUP3 ADD MLOAD PUSH2 0x6864 PUSH1 0x80 DUP6 ADD DUP3 PUSH2 0x67E5 JUMP JUMPDEST POP PUSH1 0x40 DUP3 ADD MLOAD PUSH2 0x6878 PUSH2 0x100 DUP6 ADD DUP3 PUSH2 0x68C0 JUMP JUMPDEST POP POP POP POP JUMP JUMPDEST PUSH1 0x60 DUP3 ADD PUSH1 0x0 DUP3 ADD MLOAD PUSH2 0x6894 PUSH1 0x0 DUP6 ADD DUP3 PUSH2 0x68CF JUMP JUMPDEST POP PUSH1 0x20 DUP3 ADD MLOAD PUSH2 0x68A7 PUSH1 0x20 DUP6 ADD DUP3 PUSH2 0x6673 JUMP JUMPDEST POP PUSH1 0x40 DUP3 ADD MLOAD PUSH2 0x68BA PUSH1 0x40 DUP6 ADD DUP3 PUSH2 0x68C0 JUMP JUMPDEST POP POP POP POP JUMP JUMPDEST PUSH2 0x68C9 DUP2 PUSH2 0x6D67 JUMP JUMPDEST DUP3 MSTORE POP POP JUMP JUMPDEST PUSH2 0x68D8 DUP2 PUSH2 0x6D71 JUMP JUMPDEST DUP3 MSTORE POP POP JUMP JUMPDEST PUSH1 0x0 PUSH1 0x20 DUP3 ADD SWAP1 POP PUSH2 0x68F3 PUSH1 0x0 DUP4 ADD DUP5 PUSH2 0x6655 JUMP JUMPDEST SWAP3 SWAP2 POP POP JUMP JUMPDEST PUSH1 0x0 PUSH1 0xE0 DUP3 ADD SWAP1 POP PUSH2 0x690E PUSH1 0x0 DUP4 ADD DUP11 PUSH2 0x6655 JUMP JUMPDEST PUSH2 0x691B PUSH1 0x20 DUP4 ADD DUP10 PUSH2 0x68C0 JUMP JUMPDEST PUSH2 0x6928 PUSH1 0x40 DUP4 ADD DUP9 PUSH2 0x68C0 JUMP JUMPDEST PUSH2 0x6935 PUSH1 0x60 DUP4 ADD DUP8 PUSH2 0x68C0 JUMP JUMPDEST PUSH2 0x6942 PUSH1 0x80 DUP4 ADD DUP7 PUSH2 0x68C0 JUMP JUMPDEST DUP2 DUP2 SUB PUSH1 0xA0 DUP4 ADD MSTORE PUSH2 0x6954 DUP2 DUP6 PUSH2 0x66B8 JUMP JUMPDEST SWAP1 POP DUP2 DUP2 SUB PUSH1 0xC0 DUP4 ADD MSTORE PUSH2 0x6968 DUP2 DUP5 PUSH2 0x66B8 JUMP JUMPDEST SWAP1 POP SWAP9 SWAP8 POP POP POP POP POP POP POP POP JUMP JUMPDEST PUSH1 0x0 PUSH1 0x20 DUP3 ADD SWAP1 POP PUSH2 0x698B PUSH1 0x0 DUP4 ADD DUP5 PUSH2 0x6664 JUMP JUMPDEST SWAP3 SWAP2 POP POP JUMP JUMPDEST PUSH1 0x0 PUSH1 0x60 DUP3 ADD SWAP1 POP PUSH2 0x69A6 PUSH1 0x0 DUP4 ADD DUP7 PUSH2 0x6673 JUMP JUMPDEST PUSH2 0x69B3 PUSH1 0x20 DUP4 ADD DUP6 PUSH2 0x6655 JUMP JUMPDEST DUP2 DUP2 SUB PUSH1 0x40 DUP4 ADD MSTORE PUSH2 0x69C5 DUP2 DUP5 PUSH2 0x6682 JUMP JUMPDEST SWAP1 POP SWAP5 SWAP4 POP POP POP POP JUMP JUMPDEST PUSH1 0x0 PUSH1 0x40 DUP3 ADD SWAP1 POP PUSH2 0x69E4 PUSH1 0x0 DUP4 ADD DUP6 PUSH2 0x6673 JUMP JUMPDEST DUP2 DUP2 SUB PUSH1 0x20 DUP4 ADD MSTORE PUSH2 0x69F6 DUP2 DUP5 PUSH2 0x6682 JUMP JUMPDEST SWAP1 POP SWAP4 SWAP3 POP POP POP JUMP JUMPDEST PUSH1 0x0 PUSH1 0x80 DUP3 ADD SWAP1 POP PUSH2 0x6A14 PUSH1 0x0 DUP4 ADD DUP8 PUSH2 0x6673 JUMP JUMPDEST PUSH2 0x6A21 PUSH1 0x20 DUP4 ADD DUP7 PUSH2 0x68CF JUMP JUMPDEST PUSH2 0x6A2E PUSH1 0x40 DUP4 ADD DUP6 PUSH2 0x6673 JUMP JUMPDEST PUSH2 0x6A3B PUSH1 0x60 DUP4 ADD DUP5 PUSH2 0x6673 JUMP JUMPDEST SWAP6 SWAP5 POP POP POP POP POP JUMP JUMPDEST PUSH1 0x0 PUSH1 0x20 DUP3 ADD SWAP1 POP DUP2 DUP2 SUB PUSH1 0x0 DUP4 ADD MSTORE PUSH2 0x6A5E DUP2 DUP5 PUSH2 0x6682 JUMP JUMPDEST SWAP1 POP SWAP3 SWAP2 POP POP JUMP JUMPDEST PUSH1 0x0 PUSH1 0x80 DUP3 ADD SWAP1 POP DUP2 DUP2 SUB PUSH1 0x0 DUP4 ADD MSTORE PUSH2 0x6A80 DUP2 DUP8 PUSH2 0x6682 JUMP JUMPDEST SWAP1 POP PUSH2 0x6A8F PUSH1 0x20 DUP4 ADD DUP7 PUSH2 0x6655 JUMP JUMPDEST PUSH2 0x6A9C PUSH1 0x40 DUP4 ADD DUP6 PUSH2 0x6655 JUMP JUMPDEST PUSH2 0x6AA9 PUSH1 0x60 DUP4 ADD DUP5 PUSH2 0x68C0 JUMP JUMPDEST SWAP6 SWAP5 POP POP POP POP POP JUMP JUMPDEST PUSH1 0x0 PUSH1 0x40 DUP3 ADD SWAP1 POP DUP2 DUP2 SUB PUSH1 0x0 DUP4 ADD MSTORE PUSH2 0x6ACC DUP2 DUP6 PUSH2 0x66B8 JUMP JUMPDEST SWAP1 POP DUP2 DUP2 SUB PUSH1 0x20 DUP4 ADD MSTORE PUSH2 0x6AE0 DUP2 DUP5 PUSH2 0x66B8 JUMP JUMPDEST SWAP1 POP SWAP4 SWAP3 POP POP POP JUMP JUMPDEST PUSH1 0x0 PUSH1 0x20 DUP3 ADD SWAP1 POP PUSH2 0x6AFE PUSH1 0x0 DUP4 ADD DUP5 PUSH2 0x66EE JUMP JUMPDEST SWAP3 SWAP2 POP POP JUMP JUMPDEST PUSH1 0x0 PUSH1 0x20 DUP3 ADD SWAP1 POP DUP2 DUP2 SUB PUSH1 0x0 DUP4 ADD MSTORE PUSH2 0x6B1E DUP2 DUP5 PUSH2 0x66FD JUMP JUMPDEST SWAP1 POP SWAP3 SWAP2 POP POP JUMP JUMPDEST PUSH1 0x0 PUSH1 0x20 DUP3 ADD SWAP1 POP DUP2 DUP2 SUB PUSH1 0x0 DUP4 ADD MSTORE PUSH2 0x6B3F DUP2 PUSH2 0x6733 JUMP JUMPDEST SWAP1 POP SWAP2 SWAP1 POP JUMP JUMPDEST PUSH1 0x0 PUSH1 0x80 DUP3 ADD SWAP1 POP PUSH2 0x6B5B PUSH1 0x0 DUP4 ADD DUP5 PUSH2 0x6790 JUMP JUMPDEST SWAP3 SWAP2 POP POP JUMP JUMPDEST PUSH1 0x0 PUSH2 0x120 DUP3 ADD SWAP1 POP PUSH2 0x6B77 PUSH1 0x0 DUP4 ADD DUP5 PUSH2 0x683A JUMP JUMPDEST SWAP3 SWAP2 POP POP JUMP JUMPDEST PUSH1 0x0 PUSH1 0x60 DUP3 ADD SWAP1 POP PUSH2 0x6B92 PUSH1 0x0 DUP4 ADD DUP5 PUSH2 0x687E JUMP JUMPDEST SWAP3 SWAP2 POP POP JUMP JUMPDEST PUSH1 0x0 PUSH1 0x20 DUP3 ADD SWAP1 POP PUSH2 0x6BAD PUSH1 0x0 DUP4 ADD DUP5 PUSH2 0x68C0 JUMP JUMPDEST SWAP3 SWAP2 POP POP JUMP JUMPDEST PUSH1 0x0 PUSH1 0x60 DUP3 ADD SWAP1 POP PUSH2 0x6BC8 PUSH1 0x0 DUP4 ADD DUP7 PUSH2 0x68CF JUMP JUMPDEST PUSH2 0x6BD5 PUSH1 0x20 DUP4 ADD DUP6 PUSH2 0x6655 JUMP JUMPDEST PUSH2 0x6BE2 PUSH1 0x40 DUP4 ADD DUP5 PUSH2 0x6655 JUMP JUMPDEST SWAP5 SWAP4 POP POP POP POP JUMP JUMPDEST PUSH1 0x0 PUSH1 0xA0 DUP3 ADD SWAP1 POP PUSH2 0x6BFF PUSH1 0x0 DUP4 ADD DUP6 PUSH2 0x68CF JUMP JUMPDEST PUSH2 0x6C0C PUSH1 0x20 DUP4 ADD DUP5 PUSH2 0x6790 JUMP JUMPDEST SWAP4 SWAP3 POP POP POP JUMP JUMPDEST PUSH1 0x0 PUSH1 0x40 MLOAD SWAP1 POP DUP2 DUP2 ADD DUP2 DUP2 LT PUSH8 0xFFFFFFFFFFFFFFFF DUP3 GT OR ISZERO PUSH2 0x6C36 JUMPI PUSH1 0x0 DUP1 REVERT JUMPDEST DUP1 PUSH1 0x40 MSTORE POP SWAP2 SWAP1 POP JUMP JUMPDEST PUSH1 0x0 PUSH8 0xFFFFFFFFFFFFFFFF DUP3 GT ISZERO PUSH2 0x6C57 JUMPI PUSH1 0x0 DUP1 REVERT JUMPDEST PUSH1 0x20 DUP3 MUL SWAP1 POP PUSH1 0x20 DUP2 ADD SWAP1 POP SWAP2 SWAP1 POP JUMP JUMPDEST PUSH1 0x0 PUSH8 0xFFFFFFFFFFFFFFFF DUP3 GT ISZERO PUSH2 0x6C7F JUMPI PUSH1 0x0 DUP1 REVERT JUMPDEST PUSH1 0x20 DUP3 MUL SWAP1 POP PUSH1 0x20 DUP2 ADD SWAP1 POP SWAP2 SWAP1 POP JUMP JUMPDEST PUSH1 0x0 PUSH8 0xFFFFFFFFFFFFFFFF DUP3 GT ISZERO PUSH2 0x6CA7 JUMPI PUSH1 0x0 DUP1 REVERT JUMPDEST PUSH1 0x20 DUP3 MUL SWAP1 POP PUSH1 0x20 DUP2 ADD SWAP1 POP SWAP2 SWAP1 POP JUMP JUMPDEST PUSH1 0x0 PUSH8 0xFFFFFFFFFFFFFFFF DUP3 GT ISZERO PUSH2 0x6CCF JUMPI PUSH1 0x0 DUP1 REVERT JUMPDEST PUSH1 0x1F NOT PUSH1 0x1F DUP4 ADD AND SWAP1 POP PUSH1 0x20 DUP2 ADD SWAP1 POP SWAP2 SWAP1 POP JUMP JUMPDEST PUSH1 0x0 PUSH8 0xFFFFFFFFFFFFFFFF DUP3 GT ISZERO PUSH2 0x6CFB JUMPI PUSH1 0x0 DUP1 REVERT JUMPDEST PUSH1 0x1F NOT PUSH1 0x1F DUP4 ADD AND SWAP1 POP PUSH1 0x20 DUP2 ADD SWAP1 POP SWAP2 SWAP1 POP JUMP JUMPDEST PUSH1 0x0 DUP2 MLOAD SWAP1 POP SWAP2 SWAP1 POP JUMP JUMPDEST PUSH1 0x0 DUP2 MLOAD SWAP1 POP SWAP2 SWAP1 POP JUMP JUMPDEST PUSH1 0x0 DUP2 MLOAD SWAP1 POP SWAP2 SWAP1 POP JUMP JUMPDEST PUSH1 0x0 PUSH20 0xFFFFFFFFFFFFFFFFFFFFFFFFFFFFFFFFFFFFFFFF DUP3 AND SWAP1 POP SWAP2 SWAP1 POP JUMP JUMPDEST PUSH1 0x0 DUP2 ISZERO ISZERO SWAP1 POP SWAP2 SWAP1 POP JUMP JUMPDEST PUSH1 0x0 DUP2 SWAP1 POP SWAP2 SWAP1 POP JUMP JUMPDEST PUSH1 0x0 DUP2 SWAP1 POP SWAP2 SWAP1 POP JUMP JUMPDEST PUSH1 0x0 PUSH1 0xFF DUP3 AND SWAP1 POP SWAP2 SWAP1 POP JUMP JUMPDEST PUSH1 0x0 PUSH20 0xFFFFFFFFFFFFFFFFFFFFFFFFFFFFFFFFFFFFFFFF DUP3 AND SWAP1 POP SWAP2 SWAP1 POP JUMP JUMPDEST PUSH1 0x0 DUP2 ISZERO ISZERO SWAP1 POP SWAP2 SWAP1 POP JUMP JUMPDEST PUSH1 0x0 DUP2 SWAP1 POP SWAP2 SWAP1 POP JUMP JUMPDEST PUSH1 0x0 DUP2 SWAP1 POP SWAP2 SWAP1 POP JUMP JUMPDEST PUSH1 0x0 PUSH1 0xFF DUP3 AND SWAP1 POP SWAP2 SWAP1 POP JUMP JUMPDEST PUSH1 0x0 PUSH2 0x6DD6 DUP3 PUSH2 0x6D31 JUMP JUMPDEST SWAP1 POP SWAP2 SWAP1 POP JUMP JUMPDEST DUP3 DUP2 DUP4 CALLDATACOPY PUSH1 0x0 DUP4 DUP4 ADD MSTORE POP POP POP JUMP JUMPDEST PUSH1 0x0 JUMPDEST DUP4 DUP2 LT ISZERO PUSH2 0x6E0A JUMPI DUP1 DUP3 ADD MLOAD DUP2 DUP5 ADD MSTORE PUSH1 0x20 DUP2 ADD SWAP1 POP PUSH2 0x6DEF JUMP JUMPDEST DUP4 DUP2 GT ISZERO PUSH2 0x6E19 JUMPI PUSH1 0x0 DUP5 DUP5 ADD MSTORE JUMPDEST POP POP POP POP JUMP JUMPDEST PUSH1 0x0 PUSH1 0x1F NOT PUSH1 0x1F DUP4 ADD AND SWAP1 POP SWAP2 SWAP1 POP JUMP STOP LOG2 PUSH6 0x627A7A723058 KECCAK256 0x22 0xbc DUP2 ADDRESS 0xdb 0xb7 0xc1 0x4d 0xb4 0xec 0xbd 0x23 0x29 0xdd SUB 0xbc EQ 0xd9 JUMPDEST ADDRESS PUSH14 0xA2E2BFF192C5040C2072276C6578 PUSH17 0x6572696D656E74616CF500370000000000 "
			}
		}
	},
	"sourceTreeHashHex": "0x618b322dac9b99b5016780c07d83ee102d2a4e27cce7b01662f9c1303d60ec28",
	"compiler": {
		"name": "solc",
		"version": "soljson-v0.4.24+commit.e67f0147.js",
		"settings": {
			"outputSelection": {
				"*": {
					"*": [
						"abi",
						"evm.bytecode.object",
						"evm.bytecode.sourceMap",
						"evm.deployedBytecode.object",
						"evm.deployedBytecode.sourceMap"
					]
				}
			}
		}
	}
}