{
	"schemaVersion": "2.0.0",
	"contractName": "Exchange",
	"compilerOutput": {
		"abi": [
			{
				"constant": true,
				"inputs": [
					{
						"name": "",
						"type": "bytes32"
					}
				],
				"name": "filled",
				"outputs": [
					{
						"name": "",
						"type": "uint256"
					}
				],
				"payable": false,
				"stateMutability": "view",
				"type": "function"
			},
			{
				"constant": false,
				"inputs": [
					{
						"components": [
							{
								"name": "makerAddress",
								"type": "address"
							},
							{
								"name": "takerAddress",
								"type": "address"
							},
							{
								"name": "feeRecipientAddress",
								"type": "address"
							},
							{
								"name": "senderAddress",
								"type": "address"
							},
							{
								"name": "makerAssetAmount",
								"type": "uint256"
							},
							{
								"name": "takerAssetAmount",
								"type": "uint256"
							},
							{
								"name": "makerFee",
								"type": "uint256"
							},
							{
								"name": "takerFee",
								"type": "uint256"
							},
							{
								"name": "expirationTimeSeconds",
								"type": "uint256"
							},
							{
								"name": "salt",
								"type": "uint256"
							},
							{
								"name": "makerAssetData",
								"type": "bytes"
							},
							{
								"name": "takerAssetData",
								"type": "bytes"
							}
						],
						"name": "orders",
						"type": "tuple[]"
					},
					{
						"name": "takerAssetFillAmounts",
						"type": "uint256[]"
					},
					{
						"name": "signatures",
						"type": "bytes[]"
					}
				],
				"name": "batchFillOrders",
				"outputs": [],
				"payable": false,
				"stateMutability": "nonpayable",
				"type": "function"
			},
			{
				"constant": true,
				"inputs": [
					{
						"name": "",
						"type": "bytes32"
					}
				],
				"name": "cancelled",
				"outputs": [
					{
						"name": "",
						"type": "bool"
					}
				],
				"payable": false,
				"stateMutability": "view",
				"type": "function"
			},
			{
				"constant": false,
				"inputs": [
					{
						"name": "hash",
						"type": "bytes32"
					},
					{
						"name": "signer",
						"type": "address"
					},
					{
						"name": "signature",
						"type": "bytes"
					}
				],
				"name": "preSign",
				"outputs": [],
				"payable": false,
				"stateMutability": "nonpayable",
				"type": "function"
			},
			{
				"constant": true,
				"inputs": [
					{
						"name": "",
						"type": "uint8"
					}
				],
				"name": "assetProxies",
				"outputs": [
					{
						"name": "",
						"type": "address"
					}
				],
				"payable": false,
				"stateMutability": "view",
				"type": "function"
			},
			{
				"constant": false,
				"inputs": [
					{
						"components": [
							{
								"name": "makerAddress",
								"type": "address"
							},
							{
								"name": "takerAddress",
								"type": "address"
							},
							{
								"name": "feeRecipientAddress",
								"type": "address"
							},
							{
								"name": "senderAddress",
								"type": "address"
							},
							{
								"name": "makerAssetAmount",
								"type": "uint256"
							},
							{
								"name": "takerAssetAmount",
								"type": "uint256"
							},
							{
								"name": "makerFee",
								"type": "uint256"
							},
							{
								"name": "takerFee",
								"type": "uint256"
							},
							{
								"name": "expirationTimeSeconds",
								"type": "uint256"
							},
							{
								"name": "salt",
								"type": "uint256"
							},
							{
								"name": "makerAssetData",
								"type": "bytes"
							},
							{
								"name": "takerAssetData",
								"type": "bytes"
							}
						],
						"name": "leftOrder",
						"type": "tuple"
					},
					{
						"components": [
							{
								"name": "makerAddress",
								"type": "address"
							},
							{
								"name": "takerAddress",
								"type": "address"
							},
							{
								"name": "feeRecipientAddress",
								"type": "address"
							},
							{
								"name": "senderAddress",
								"type": "address"
							},
							{
								"name": "makerAssetAmount",
								"type": "uint256"
							},
							{
								"name": "takerAssetAmount",
								"type": "uint256"
							},
							{
								"name": "makerFee",
								"type": "uint256"
							},
							{
								"name": "takerFee",
								"type": "uint256"
							},
							{
								"name": "expirationTimeSeconds",
								"type": "uint256"
							},
							{
								"name": "salt",
								"type": "uint256"
							},
							{
								"name": "makerAssetData",
								"type": "bytes"
							},
							{
								"name": "takerAssetData",
								"type": "bytes"
							}
						],
						"name": "rightOrder",
						"type": "tuple"
					},
					{
						"name": "leftSignature",
						"type": "bytes"
					},
					{
						"name": "rightSignature",
						"type": "bytes"
					}
				],
				"name": "matchOrders",
				"outputs": [
					{
						"components": [
							{
								"components": [
									{
										"name": "makerAssetFilledAmount",
										"type": "uint256"
									},
									{
										"name": "takerAssetFilledAmount",
										"type": "uint256"
									},
									{
										"name": "makerFeePaid",
										"type": "uint256"
									},
									{
										"name": "takerFeePaid",
										"type": "uint256"
									}
								],
								"name": "left",
								"type": "tuple"
							},
							{
								"components": [
									{
										"name": "makerAssetFilledAmount",
										"type": "uint256"
									},
									{
										"name": "takerAssetFilledAmount",
										"type": "uint256"
									},
									{
										"name": "makerFeePaid",
										"type": "uint256"
									},
									{
										"name": "takerFeePaid",
										"type": "uint256"
									}
								],
								"name": "right",
								"type": "tuple"
							},
							{
								"name": "leftMakerAssetSpreadAmount",
								"type": "uint256"
							}
						],
						"name": "matchedFillResults",
						"type": "tuple"
					}
				],
				"payable": false,
				"stateMutability": "nonpayable",
				"type": "function"
			},
			{
				"constant": false,
				"inputs": [
					{
						"components": [
							{
								"name": "makerAddress",
								"type": "address"
							},
							{
								"name": "takerAddress",
								"type": "address"
							},
							{
								"name": "feeRecipientAddress",
								"type": "address"
							},
							{
								"name": "senderAddress",
								"type": "address"
							},
							{
								"name": "makerAssetAmount",
								"type": "uint256"
							},
							{
								"name": "takerAssetAmount",
								"type": "uint256"
							},
							{
								"name": "makerFee",
								"type": "uint256"
							},
							{
								"name": "takerFee",
								"type": "uint256"
							},
							{
								"name": "expirationTimeSeconds",
								"type": "uint256"
							},
							{
								"name": "salt",
								"type": "uint256"
							},
							{
								"name": "makerAssetData",
								"type": "bytes"
							},
							{
								"name": "takerAssetData",
								"type": "bytes"
							}
						],
						"name": "order",
						"type": "tuple"
					},
					{
						"name": "takerAssetFillAmount",
						"type": "uint256"
					},
					{
						"name": "signature",
						"type": "bytes"
					}
				],
				"name": "fillOrderNoThrow",
				"outputs": [
					{
						"components": [
							{
								"name": "makerAssetFilledAmount",
								"type": "uint256"
							},
							{
								"name": "takerAssetFilledAmount",
								"type": "uint256"
							},
							{
								"name": "makerFeePaid",
								"type": "uint256"
							},
							{
								"name": "takerFeePaid",
								"type": "uint256"
							}
						],
						"name": "fillResults",
						"type": "tuple"
					}
				],
				"payable": false,
				"stateMutability": "nonpayable",
				"type": "function"
			},
			{
				"constant": false,
				"inputs": [
					{
						"components": [
							{
								"name": "makerAddress",
								"type": "address"
							},
							{
								"name": "takerAddress",
								"type": "address"
							},
							{
								"name": "feeRecipientAddress",
								"type": "address"
							},
							{
								"name": "senderAddress",
								"type": "address"
							},
							{
								"name": "makerAssetAmount",
								"type": "uint256"
							},
							{
								"name": "takerAssetAmount",
								"type": "uint256"
							},
							{
								"name": "makerFee",
								"type": "uint256"
							},
							{
								"name": "takerFee",
								"type": "uint256"
							},
							{
								"name": "expirationTimeSeconds",
								"type": "uint256"
							},
							{
								"name": "salt",
								"type": "uint256"
							},
							{
								"name": "makerAssetData",
								"type": "bytes"
							},
							{
								"name": "takerAssetData",
								"type": "bytes"
							}
						],
						"name": "orders",
						"type": "tuple[]"
					}
				],
				"name": "batchCancelOrders",
				"outputs": [],
				"payable": false,
				"stateMutability": "nonpayable",
				"type": "function"
			},
			{
				"constant": false,
				"inputs": [
					{
						"components": [
							{
								"name": "makerAddress",
								"type": "address"
							},
							{
								"name": "takerAddress",
								"type": "address"
							},
							{
								"name": "feeRecipientAddress",
								"type": "address"
							},
							{
								"name": "senderAddress",
								"type": "address"
							},
							{
								"name": "makerAssetAmount",
								"type": "uint256"
							},
							{
								"name": "takerAssetAmount",
								"type": "uint256"
							},
							{
								"name": "makerFee",
								"type": "uint256"
							},
							{
								"name": "takerFee",
								"type": "uint256"
							},
							{
								"name": "expirationTimeSeconds",
								"type": "uint256"
							},
							{
								"name": "salt",
								"type": "uint256"
							},
							{
								"name": "makerAssetData",
								"type": "bytes"
							},
							{
								"name": "takerAssetData",
								"type": "bytes"
							}
						],
						"name": "orders",
						"type": "tuple[]"
					},
					{
						"name": "takerAssetFillAmounts",
						"type": "uint256[]"
					},
					{
						"name": "signatures",
						"type": "bytes[]"
					}
				],
				"name": "batchFillOrKillOrders",
				"outputs": [],
				"payable": false,
				"stateMutability": "nonpayable",
				"type": "function"
			},
			{
				"constant": false,
				"inputs": [
					{
						"name": "salt",
						"type": "uint256"
					}
				],
				"name": "cancelOrdersUpTo",
				"outputs": [],
				"payable": false,
				"stateMutability": "nonpayable",
				"type": "function"
			},
			{
				"constant": false,
				"inputs": [
					{
						"components": [
							{
								"name": "makerAddress",
								"type": "address"
							},
							{
								"name": "takerAddress",
								"type": "address"
							},
							{
								"name": "feeRecipientAddress",
								"type": "address"
							},
							{
								"name": "senderAddress",
								"type": "address"
							},
							{
								"name": "makerAssetAmount",
								"type": "uint256"
							},
							{
								"name": "takerAssetAmount",
								"type": "uint256"
							},
							{
								"name": "makerFee",
								"type": "uint256"
							},
							{
								"name": "takerFee",
								"type": "uint256"
							},
							{
								"name": "expirationTimeSeconds",
								"type": "uint256"
							},
							{
								"name": "salt",
								"type": "uint256"
							},
							{
								"name": "makerAssetData",
								"type": "bytes"
							},
							{
								"name": "takerAssetData",
								"type": "bytes"
							}
						],
						"name": "orders",
						"type": "tuple[]"
					},
					{
						"name": "takerAssetFillAmounts",
						"type": "uint256[]"
					},
					{
						"name": "signatures",
						"type": "bytes[]"
					}
				],
				"name": "batchFillOrdersNoThrow",
				"outputs": [],
				"payable": false,
				"stateMutability": "nonpayable",
				"type": "function"
			},
			{
				"constant": false,
				"inputs": [
					{
						"name": "assetProxyId",
						"type": "uint8"
					},
					{
						"name": "newAssetProxy",
						"type": "address"
					},
					{
						"name": "oldAssetProxy",
						"type": "address"
					}
				],
				"name": "registerAssetProxy",
				"outputs": [],
				"payable": false,
				"stateMutability": "nonpayable",
				"type": "function"
			},
			{
				"constant": true,
				"inputs": [],
				"name": "zrxProxyData",
				"outputs": [
					{
						"name": "",
						"type": "bytes"
					}
				],
				"payable": false,
				"stateMutability": "view",
				"type": "function"
			},
			{
				"constant": true,
				"inputs": [
					{
						"name": "",
						"type": "bytes32"
					}
				],
				"name": "transactions",
				"outputs": [
					{
						"name": "",
						"type": "bool"
					}
				],
				"payable": false,
				"stateMutability": "view",
				"type": "function"
			},
			{
				"constant": false,
				"inputs": [
					{
						"components": [
							{
								"name": "makerAddress",
								"type": "address"
							},
							{
								"name": "takerAddress",
								"type": "address"
							},
							{
								"name": "feeRecipientAddress",
								"type": "address"
							},
							{
								"name": "senderAddress",
								"type": "address"
							},
							{
								"name": "makerAssetAmount",
								"type": "uint256"
							},
							{
								"name": "takerAssetAmount",
								"type": "uint256"
							},
							{
								"name": "makerFee",
								"type": "uint256"
							},
							{
								"name": "takerFee",
								"type": "uint256"
							},
							{
								"name": "expirationTimeSeconds",
								"type": "uint256"
							},
							{
								"name": "salt",
								"type": "uint256"
							},
							{
								"name": "makerAssetData",
								"type": "bytes"
							},
							{
								"name": "takerAssetData",
								"type": "bytes"
							}
						],
						"name": "order",
						"type": "tuple"
					},
					{
						"name": "takerAssetFillAmount",
						"type": "uint256"
					},
					{
						"name": "signature",
						"type": "bytes"
					}
				],
				"name": "fillOrKillOrder",
				"outputs": [
					{
						"components": [
							{
								"name": "makerAssetFilledAmount",
								"type": "uint256"
							},
							{
								"name": "takerAssetFilledAmount",
								"type": "uint256"
							},
							{
								"name": "makerFeePaid",
								"type": "uint256"
							},
							{
								"name": "takerFeePaid",
								"type": "uint256"
							}
						],
						"name": "fillResults",
						"type": "tuple"
					}
				],
				"payable": false,
				"stateMutability": "nonpayable",
				"type": "function"
			},
			{
				"constant": true,
				"inputs": [
					{
						"name": "",
						"type": "address"
					}
				],
				"name": "makerEpoch",
				"outputs": [
					{
						"name": "",
						"type": "uint256"
					}
				],
				"payable": false,
				"stateMutability": "view",
				"type": "function"
			},
			{
				"constant": false,
				"inputs": [
					{
						"name": "validator",
						"type": "address"
					},
					{
						"name": "approval",
						"type": "bool"
					}
				],
				"name": "setSignatureValidatorApproval",
				"outputs": [],
				"payable": false,
				"stateMutability": "nonpayable",
				"type": "function"
			},
			{
				"constant": true,
				"inputs": [
					{
						"name": "",
						"type": "address"
					},
					{
						"name": "",
						"type": "address"
					}
				],
				"name": "allowedValidators",
				"outputs": [
					{
						"name": "",
						"type": "bool"
					}
				],
				"payable": false,
				"stateMutability": "view",
				"type": "function"
			},
			{
				"constant": false,
				"inputs": [
					{
						"components": [
							{
								"name": "makerAddress",
								"type": "address"
							},
							{
								"name": "takerAddress",
								"type": "address"
							},
							{
								"name": "feeRecipientAddress",
								"type": "address"
							},
							{
								"name": "senderAddress",
								"type": "address"
							},
							{
								"name": "makerAssetAmount",
								"type": "uint256"
							},
							{
								"name": "takerAssetAmount",
								"type": "uint256"
							},
							{
								"name": "makerFee",
								"type": "uint256"
							},
							{
								"name": "takerFee",
								"type": "uint256"
							},
							{
								"name": "expirationTimeSeconds",
								"type": "uint256"
							},
							{
								"name": "salt",
								"type": "uint256"
							},
							{
								"name": "makerAssetData",
								"type": "bytes"
							},
							{
								"name": "takerAssetData",
								"type": "bytes"
							}
						],
						"name": "orders",
						"type": "tuple[]"
					},
					{
						"name": "takerAssetFillAmount",
						"type": "uint256"
					},
					{
						"name": "signatures",
						"type": "bytes[]"
					}
				],
				"name": "marketSellOrders",
				"outputs": [
					{
						"components": [
							{
								"name": "makerAssetFilledAmount",
								"type": "uint256"
							},
							{
								"name": "takerAssetFilledAmount",
								"type": "uint256"
							},
							{
								"name": "makerFeePaid",
								"type": "uint256"
							},
							{
								"name": "takerFeePaid",
								"type": "uint256"
							}
						],
						"name": "totalFillResults",
						"type": "tuple"
					}
				],
				"payable": false,
				"stateMutability": "nonpayable",
				"type": "function"
			},
			{
				"constant": true,
				"inputs": [
					{
						"name": "",
						"type": "bytes32"
					},
					{
						"name": "",
						"type": "address"
					}
				],
				"name": "preSigned",
				"outputs": [
					{
						"name": "",
						"type": "bool"
					}
				],
				"payable": false,
				"stateMutability": "view",
				"type": "function"
			},
			{
				"constant": true,
				"inputs": [],
				"name": "owner",
				"outputs": [
					{
						"name": "",
						"type": "address"
					}
				],
				"payable": false,
				"stateMutability": "view",
				"type": "function"
			},
			{
				"constant": true,
				"inputs": [
					{
						"name": "assetProxyId",
						"type": "uint8"
					}
				],
				"name": "getAssetProxy",
				"outputs": [
					{
						"name": "",
						"type": "address"
					}
				],
				"payable": false,
				"stateMutability": "view",
				"type": "function"
			},
			{
				"constant": false,
				"inputs": [
					{
						"components": [
							{
								"name": "makerAddress",
								"type": "address"
							},
							{
								"name": "takerAddress",
								"type": "address"
							},
							{
								"name": "feeRecipientAddress",
								"type": "address"
							},
							{
								"name": "senderAddress",
								"type": "address"
							},
							{
								"name": "makerAssetAmount",
								"type": "uint256"
							},
							{
								"name": "takerAssetAmount",
								"type": "uint256"
							},
							{
								"name": "makerFee",
								"type": "uint256"
							},
							{
								"name": "takerFee",
								"type": "uint256"
							},
							{
								"name": "expirationTimeSeconds",
								"type": "uint256"
							},
							{
								"name": "salt",
								"type": "uint256"
							},
							{
								"name": "makerAssetData",
								"type": "bytes"
							},
							{
								"name": "takerAssetData",
								"type": "bytes"
							}
						],
						"name": "orders",
						"type": "tuple[]"
					},
					{
						"name": "makerAssetFillAmount",
						"type": "uint256"
					},
					{
						"name": "signatures",
						"type": "bytes[]"
					}
				],
				"name": "marketBuyOrdersNoThrow",
				"outputs": [
					{
						"components": [
							{
								"name": "makerAssetFilledAmount",
								"type": "uint256"
							},
							{
								"name": "takerAssetFilledAmount",
								"type": "uint256"
							},
							{
								"name": "makerFeePaid",
								"type": "uint256"
							},
							{
								"name": "takerFeePaid",
								"type": "uint256"
							}
						],
						"name": "totalFillResults",
						"type": "tuple"
					}
				],
				"payable": false,
				"stateMutability": "nonpayable",
				"type": "function"
			},
			{
				"constant": false,
				"inputs": [
					{
						"components": [
							{
								"name": "makerAddress",
								"type": "address"
							},
							{
								"name": "takerAddress",
								"type": "address"
							},
							{
								"name": "feeRecipientAddress",
								"type": "address"
							},
							{
								"name": "senderAddress",
								"type": "address"
							},
							{
								"name": "makerAssetAmount",
								"type": "uint256"
							},
							{
								"name": "takerAssetAmount",
								"type": "uint256"
							},
							{
								"name": "makerFee",
								"type": "uint256"
							},
							{
								"name": "takerFee",
								"type": "uint256"
							},
							{
								"name": "expirationTimeSeconds",
								"type": "uint256"
							},
							{
								"name": "salt",
								"type": "uint256"
							},
							{
								"name": "makerAssetData",
								"type": "bytes"
							},
							{
								"name": "takerAssetData",
								"type": "bytes"
							}
						],
						"name": "order",
						"type": "tuple"
					},
					{
						"name": "takerAssetFillAmount",
						"type": "uint256"
					},
					{
						"name": "signature",
						"type": "bytes"
					}
				],
				"name": "fillOrder",
				"outputs": [
					{
						"components": [
							{
								"name": "makerAssetFilledAmount",
								"type": "uint256"
							},
							{
								"name": "takerAssetFilledAmount",
								"type": "uint256"
							},
							{
								"name": "makerFeePaid",
								"type": "uint256"
							},
							{
								"name": "takerFeePaid",
								"type": "uint256"
							}
						],
						"name": "fillResults",
						"type": "tuple"
					}
				],
				"payable": false,
				"stateMutability": "nonpayable",
				"type": "function"
			},
			{
				"constant": false,
				"inputs": [
					{
						"name": "salt",
						"type": "uint256"
					},
					{
						"name": "signer",
						"type": "address"
					},
					{
						"name": "data",
						"type": "bytes"
					},
					{
						"name": "signature",
						"type": "bytes"
					}
				],
				"name": "executeTransaction",
				"outputs": [],
				"payable": false,
				"stateMutability": "nonpayable",
				"type": "function"
			},
			{
				"constant": true,
				"inputs": [
					{
						"components": [
							{
								"name": "makerAddress",
								"type": "address"
							},
							{
								"name": "takerAddress",
								"type": "address"
							},
							{
								"name": "feeRecipientAddress",
								"type": "address"
							},
							{
								"name": "senderAddress",
								"type": "address"
							},
							{
								"name": "makerAssetAmount",
								"type": "uint256"
							},
							{
								"name": "takerAssetAmount",
								"type": "uint256"
							},
							{
								"name": "makerFee",
								"type": "uint256"
							},
							{
								"name": "takerFee",
								"type": "uint256"
							},
							{
								"name": "expirationTimeSeconds",
								"type": "uint256"
							},
							{
								"name": "salt",
								"type": "uint256"
							},
							{
								"name": "makerAssetData",
								"type": "bytes"
							},
							{
								"name": "takerAssetData",
								"type": "bytes"
							}
						],
						"name": "order",
						"type": "tuple"
					}
				],
				"name": "getOrderInfo",
				"outputs": [
					{
						"components": [
							{
								"name": "orderStatus",
								"type": "uint8"
							},
							{
								"name": "orderHash",
								"type": "bytes32"
							},
							{
								"name": "orderTakerAssetFilledAmount",
								"type": "uint256"
							}
						],
						"name": "orderInfo",
						"type": "tuple"
					}
				],
				"payable": false,
				"stateMutability": "view",
				"type": "function"
			},
			{
				"constant": false,
				"inputs": [
					{
						"components": [
							{
								"name": "makerAddress",
								"type": "address"
							},
							{
								"name": "takerAddress",
								"type": "address"
							},
							{
								"name": "feeRecipientAddress",
								"type": "address"
							},
							{
								"name": "senderAddress",
								"type": "address"
							},
							{
								"name": "makerAssetAmount",
								"type": "uint256"
							},
							{
								"name": "takerAssetAmount",
								"type": "uint256"
							},
							{
								"name": "makerFee",
								"type": "uint256"
							},
							{
								"name": "takerFee",
								"type": "uint256"
							},
							{
								"name": "expirationTimeSeconds",
								"type": "uint256"
							},
							{
								"name": "salt",
								"type": "uint256"
							},
							{
								"name": "makerAssetData",
								"type": "bytes"
							},
							{
								"name": "takerAssetData",
								"type": "bytes"
							}
						],
						"name": "order",
						"type": "tuple"
					}
				],
				"name": "cancelOrder",
				"outputs": [],
				"payable": false,
				"stateMutability": "nonpayable",
				"type": "function"
			},
			{
				"constant": false,
				"inputs": [
					{
						"components": [
							{
								"name": "makerAddress",
								"type": "address"
							},
							{
								"name": "takerAddress",
								"type": "address"
							},
							{
								"name": "feeRecipientAddress",
								"type": "address"
							},
							{
								"name": "senderAddress",
								"type": "address"
							},
							{
								"name": "makerAssetAmount",
								"type": "uint256"
							},
							{
								"name": "takerAssetAmount",
								"type": "uint256"
							},
							{
								"name": "makerFee",
								"type": "uint256"
							},
							{
								"name": "takerFee",
								"type": "uint256"
							},
							{
								"name": "expirationTimeSeconds",
								"type": "uint256"
							},
							{
								"name": "salt",
								"type": "uint256"
							},
							{
								"name": "makerAssetData",
								"type": "bytes"
							},
							{
								"name": "takerAssetData",
								"type": "bytes"
							}
						],
						"name": "orders",
						"type": "tuple[]"
					},
					{
						"name": "takerAssetFillAmount",
						"type": "uint256"
					},
					{
						"name": "signatures",
						"type": "bytes[]"
					}
				],
				"name": "marketSellOrdersNoThrow",
				"outputs": [
					{
						"components": [
							{
								"name": "makerAssetFilledAmount",
								"type": "uint256"
							},
							{
								"name": "takerAssetFilledAmount",
								"type": "uint256"
							},
							{
								"name": "makerFeePaid",
								"type": "uint256"
							},
							{
								"name": "takerFeePaid",
								"type": "uint256"
							}
						],
						"name": "totalFillResults",
						"type": "tuple"
					}
				],
				"payable": false,
				"stateMutability": "nonpayable",
				"type": "function"
			},
			{
				"constant": false,
				"inputs": [
					{
						"components": [
							{
								"name": "makerAddress",
								"type": "address"
							},
							{
								"name": "takerAddress",
								"type": "address"
							},
							{
								"name": "feeRecipientAddress",
								"type": "address"
							},
							{
								"name": "senderAddress",
								"type": "address"
							},
							{
								"name": "makerAssetAmount",
								"type": "uint256"
							},
							{
								"name": "takerAssetAmount",
								"type": "uint256"
							},
							{
								"name": "makerFee",
								"type": "uint256"
							},
							{
								"name": "takerFee",
								"type": "uint256"
							},
							{
								"name": "expirationTimeSeconds",
								"type": "uint256"
							},
							{
								"name": "salt",
								"type": "uint256"
							},
							{
								"name": "makerAssetData",
								"type": "bytes"
							},
							{
								"name": "takerAssetData",
								"type": "bytes"
							}
						],
						"name": "orders",
						"type": "tuple[]"
					},
					{
						"name": "makerAssetFillAmount",
						"type": "uint256"
					},
					{
						"name": "signatures",
						"type": "bytes[]"
					}
				],
				"name": "marketBuyOrders",
				"outputs": [
					{
						"components": [
							{
								"name": "makerAssetFilledAmount",
								"type": "uint256"
							},
							{
								"name": "takerAssetFilledAmount",
								"type": "uint256"
							},
							{
								"name": "makerFeePaid",
								"type": "uint256"
							},
							{
								"name": "takerFeePaid",
								"type": "uint256"
							}
						],
						"name": "totalFillResults",
						"type": "tuple"
					}
				],
				"payable": false,
				"stateMutability": "nonpayable",
				"type": "function"
			},
			{
				"constant": true,
				"inputs": [],
				"name": "currentContextAddress",
				"outputs": [
					{
						"name": "",
						"type": "address"
					}
				],
				"payable": false,
				"stateMutability": "view",
				"type": "function"
			},
			{
				"constant": false,
				"inputs": [
					{
						"name": "newOwner",
						"type": "address"
					}
				],
				"name": "transferOwnership",
				"outputs": [],
				"payable": false,
				"stateMutability": "nonpayable",
				"type": "function"
			},
			{
				"constant": true,
				"inputs": [],
				"name": "VERSION",
				"outputs": [
					{
						"name": "",
						"type": "string"
					}
				],
				"payable": false,
				"stateMutability": "view",
				"type": "function"
			},
			{
				"inputs": [
					{
						"name": "_zrxProxyData",
						"type": "bytes"
					}
				],
				"payable": false,
				"stateMutability": "nonpayable",
				"type": "constructor"
			},
			{
				"anonymous": false,
				"inputs": [
					{
						"indexed": false,
						"name": "id",
						"type": "uint8"
					},
					{
						"indexed": false,
						"name": "newAssetProxy",
						"type": "address"
					},
					{
						"indexed": false,
						"name": "oldAssetProxy",
						"type": "address"
					}
				],
				"name": "AssetProxySet",
				"type": "event"
			},
			{
				"anonymous": false,
				"inputs": [
					{
						"indexed": true,
						"name": "makerAddress",
						"type": "address"
					},
					{
						"indexed": false,
						"name": "takerAddress",
						"type": "address"
					},
					{
						"indexed": true,
						"name": "feeRecipientAddress",
						"type": "address"
					},
					{
						"indexed": false,
						"name": "makerAssetFilledAmount",
						"type": "uint256"
					},
					{
						"indexed": false,
						"name": "takerAssetFilledAmount",
						"type": "uint256"
					},
					{
						"indexed": false,
						"name": "makerFeePaid",
						"type": "uint256"
					},
					{
						"indexed": false,
						"name": "takerFeePaid",
						"type": "uint256"
					},
					{
						"indexed": true,
						"name": "orderHash",
						"type": "bytes32"
					},
					{
						"indexed": false,
						"name": "makerAssetData",
						"type": "bytes"
					},
					{
						"indexed": false,
						"name": "takerAssetData",
						"type": "bytes"
					}
				],
				"name": "Fill",
				"type": "event"
			},
			{
				"anonymous": false,
				"inputs": [
					{
						"indexed": true,
						"name": "makerAddress",
						"type": "address"
					},
					{
						"indexed": true,
						"name": "feeRecipientAddress",
						"type": "address"
					},
					{
						"indexed": true,
						"name": "orderHash",
						"type": "bytes32"
					},
					{
						"indexed": false,
						"name": "makerAssetData",
						"type": "bytes"
					},
					{
						"indexed": false,
						"name": "takerAssetData",
						"type": "bytes"
					}
				],
				"name": "Cancel",
				"type": "event"
			},
			{
				"anonymous": false,
				"inputs": [
					{
						"indexed": true,
						"name": "makerAddress",
						"type": "address"
					},
					{
						"indexed": false,
						"name": "makerEpoch",
						"type": "uint256"
					}
				],
				"name": "CancelUpTo",
				"type": "event"
			}
		],
		"evm": {
			"bytecode": {
				"linkReferences": {},
				"object": "0x60806040523480156200001157600080fd5b50604051620069ff380380620069ff8339810180604052620000379190810190620001a6565b80336000806101000a81548173ffffffffffffffffffffffffffffffffffffffff021916908373ffffffffffffffffffffffffffffffffffffffff16021790555080600490805190602001906200009092919062000099565b5050506200027c565b828054600181600116156101000203166002900490600052602060002090601f016020900481019282601f10620000dc57805160ff19168380011785556200010d565b828001600101855582156200010d579182015b828111156200010c578251825591602001919060010190620000ef565b5b5090506200011c919062000120565b5090565b6200014591905b808211156200014157600081600090555060010162000127565b5090565b90565b600082601f83011215156200015c57600080fd5b8151620001736200016d8262000219565b620001eb565b915080825260208301602083018583830111156200019057600080fd5b6200019d83828462000246565b50505092915050565b600060208284031215620001b957600080fd5b600082015167ffffffffffffffff811115620001d457600080fd5b620001e28482850162000148565b91505092915050565b6000604051905081810181811067ffffffffffffffff821117156200020f57600080fd5b8060405250919050565b600067ffffffffffffffff8211156200023157600080fd5b601f19601f8301169050602081019050919050565b60005b838110156200026657808201518184015260208101905062000249565b8381111562000276576000848401525b50505050565b616773806200028c6000396000f300608060405260043610610196576000357c0100000000000000000000000000000000000000000000000000000000900463ffffffff168063288cdc911461019b578063297bb70b146101d85780632ac12622146102015780633683ef8e1461023e57806338077164146102675780633c28d861146102a45780633e228bae146102e15780634ac147821461031e5780634d0ae546146103475780634f9559b11461037057806350dde190146103995780635c78d0c7146103c257806363589905146103eb578063642f2eaf1461041657806364a3bc15146104535780636f3627f81461049057806377fcce68146104cd5780637b8e3514146104f65780637e1d98081461053357806382c174d0146105705780638da5cb5b146105ad57806392c1421e146105d8578063a3e2038014610615578063b4be83d514610652578063bfc8bfce1461068f578063c75e0a81146106b8578063d46b02c3146106f5578063dd1c7d181461071e578063e5fa431b1461075b578063eea086ba14610798578063f2fde38b146107c3578063ffa1ad74146107ec575b600080fd5b3480156101a757600080fd5b506101c260048036036101bd9190810190615bce565b610817565b6040516101cf91906164ca565b60405180910390f35b3480156101e457600080fd5b506101ff60048036036101fa9190810190615a8f565b61082f565b005b34801561020d57600080fd5b5061022860048036036102239190810190615bce565b6108a2565b60405161023591906162a8565b60405180910390f35b34801561024a57600080fd5b5061026560048036036102609190810190615c33565b6108c2565b005b34801561027357600080fd5b5061028e60048036036102899190810190615ee6565b6109f0565b60405161029b919061641b565b60405180910390f35b3480156102b057600080fd5b506102cb60048036036102c69190810190615ce0565b610a23565b6040516102d89190616493565b60405180910390f35b3480156102ed57600080fd5b5061030860048036036103039190810190615da3565b610b23565b6040516103159190616478565b60405180910390f35b34801561032a57600080fd5b5061034560048036036103409190810190615a4e565b610d64565b005b34801561035357600080fd5b5061036e60048036036103699190810190615a8f565b610da4565b005b34801561037c57600080fd5b5061039760048036036103929190810190615e22565b610e17565b005b3480156103a557600080fd5b506103c060048036036103bb9190810190615a8f565b610f83565b005b3480156103ce57600080fd5b506103e960048036036103e49190810190615f38565b610ff6565b005b3480156103f757600080fd5b50610400611367565b60405161040d9190616376565b60405180910390f35b34801561042257600080fd5b5061043d60048036036104389190810190615bce565b611409565b60405161044a91906162a8565b60405180910390f35b34801561045f57600080fd5b5061047a60048036036104759190810190615da3565b611429565b6040516104879190616478565b60405180910390f35b34801561049c57600080fd5b506104b760048036036104b291908101906159ad565b6114c9565b6040516104c491906164ca565b60405180910390f35b3480156104d957600080fd5b506104f460048036036104ef9190810190615a12565b6114e1565b005b34801561050257600080fd5b5061051d600480360361051891908101906159d6565b611586565b60405161052a91906162a8565b60405180910390f35b34801561053f57600080fd5b5061055a60048036036105559190810190615b26565b6115b5565b6040516105679190616478565b60405180910390f35b34801561057c57600080fd5b5061059760048036036105929190810190615bf7565b611713565b6040516105a491906162a8565b60405180910390f35b3480156105b957600080fd5b506105c2611742565b6040516105cf9190616210565b60405180910390f35b3480156105e457600080fd5b506105ff60048036036105fa9190810190615ee6565b611767565b60405161060c9190616210565b60405180910390f35b34801561062157600080fd5b5061063c60048036036106379190810190615b26565b6117af565b6040516106499190616478565b60405180910390f35b34801561065e57600080fd5b5061067960048036036106749190810190615da3565b611953565b6040516106869190616478565b60405180910390f35b34801561069b57600080fd5b506106b660048036036106b19190810190615e4b565b6119e5565b005b3480156106c457600080fd5b506106df60048036036106da9190810190615c9f565b611ed1565b6040516106ec91906164af565b60405180910390f35b34801561070157600080fd5b5061071c60048036036107179190810190615c9f565b6120e2565b005b34801561072a57600080fd5b5061074560048036036107409190810190615b26565b612111565b6040516107529190616478565b60405180910390f35b34801561076757600080fd5b50610782600480360361077d9190810190615b26565b61226f565b60405161078f9190616478565b60405180910390f35b3480156107a457600080fd5b506107ad612413565b6040516107ba9190616210565b60405180910390f35b3480156107cf57600080fd5b506107ea60048036036107e591908101906159ad565b612439565b005b3480156107f857600080fd5b50610801612544565b60405161080e9190616436565b60405180910390f35b60016020528060005260406000206000915090505481565b60008090505b835181101561089c5761088e848281518110151561084f57fe5b90602001906020020151848381518110151561086757fe5b90602001906020020151848481518110151561087f57fe5b90602001906020020151611953565b508080600101915050610835565b50505050565b60026020528060005260406000206000915054906101000a900460ff1681565b6108ff848484848080601f01602080910402602001604051908101604052809392919081815260200183838082843782019150505050505061257d565b6040805190810160405280601181526020017f494e56414c49445f5349474e4154555245000000000000000000000000000000815250901515610978576040517f08c379a000000000000000000000000000000000000000000000000000000000815260040161096f9190616436565b60405180910390fd5b50600160056000866000191660001916815260200190815260200160002060008573ffffffffffffffffffffffffffffffffffffffff1673ffffffffffffffffffffffffffffffffffffffff16815260200190815260200160002060006101000a81548160ff02191690831515021790555050505050565b60096020528060005260406000206000915054906101000a900473ffffffffffffffffffffffffffffffffffffffff1681565b610a2b615373565b610a336153a2565b610a3b6153a2565b6000876101600151876101400181905250876101400151876101600181905250610a6488611ed1565b9250610a6f87611ed1565b9150610a796133a9565b9050610a858888613435565b610a998888856040015185604001516134d9565b9350610ab98884838760000151602001518860000151602001518b6135b6565b610ad78783838760200151602001518860200151602001518a6135b6565b610ae3888883876139c9565b610afc8882856020015186604001518860000151613dff565b610b158782846020015185604001518860200151613dff565b839350505050949350505050565b610b2b6153ca565b600063b4be83d57c01000000000000000000000000000000000000000000000000000000000290506040518181526004810180606081018181808b6000808784038652602086019550825184526020830151602085015260408301516040850152606083015160608501526080830151608085015260a083015160a085015260c083015160c085015260e083015160e085015261010083015161010085015261012083015161012085015261014083015161014085015261016083015161016085015261018084019350610180830192508484036020600a02860152825191506020830192506020601f830104905081845260208401935060005b81811015610c495783518552602085019450602084019350600181019050610c26565b508484036020600b02860152825191506020830192506020601f830104905081845260208401935060005b81811015610c975783518552602085019450602084019350600181019050610c74565b508d865260208601955087840386528c9250825191506020830192506020601f830104905081845260208401935060005b81811015610ceb5783518552602085019450602084019350600181019050610cc8565b5060808a8b86038c305af48060008114610d0c5760018114610d2a57610d4d565b60008e52600060208f0152600060408f0152600060608f0152610d4d565b8b518e5260208c015160208f015260408c015160408f015260608c015160608f01525b505050505050505050505050819150509392505050565b60008090505b8151811015610da057610d938282815181101515610d8457fe5b906020019060200201516120e2565b8080600101915050610d6a565b5050565b60008090505b8351811015610e1157610e038482815181101515610dc457fe5b906020019060200201518483815181101515610ddc57fe5b906020019060200201518484815181101515610df457fe5b90602001906020020151611429565b508080600101915050610daa565b50505050565b6000806000610e246133a9565b9250600184019150600360008473ffffffffffffffffffffffffffffffffffffffff1673ffffffffffffffffffffffffffffffffffffffff1681526020019081526020016000205490508082116040805190810160405280601781526020017f494e56414c49445f4e45575f4d414b45525f45504f4348000000000000000000815250901515610eea576040517f08c379a0000000000000000000000000000000000000000000000000000000008152600401610ee19190616436565b60405180910390fd5b5081600360008573ffffffffffffffffffffffffffffffffffffffff1673ffffffffffffffffffffffffffffffffffffffff168152602001908152602001600020819055508273ffffffffffffffffffffffffffffffffffffffff167f666a5047451d0c744e58819166260f8048fe2786e33b3c1115af94887a451ca783604051610f7591906164ca565b60405180910390a250505050565b60008090505b8351811015610ff057610fe28482815181101515610fa357fe5b906020019060200201518483815181101515610fbb57fe5b906020019060200201518484815181101515610fd357fe5b90602001906020020151610b23565b508080600101915050610f89565b50505050565b60008060008060009054906101000a900473ffffffffffffffffffffffffffffffffffffffff1673ffffffffffffffffffffffffffffffffffffffff163373ffffffffffffffffffffffffffffffffffffffff1614151561108c576040517f08c379a000000000000000000000000000000000000000000000000000000000815260040161108390616458565b60405180910390fd5b600960008760ff1660ff16815260200190815260200160002060009054906101000a900473ffffffffffffffffffffffffffffffffffffffff1692508273ffffffffffffffffffffffffffffffffffffffff168473ffffffffffffffffffffffffffffffffffffffff16146040805190810160405280601481526020017f41535345545f50524f58595f4d49534d41544348000000000000000000000000815250901515611170576040517f08c379a00000000000000000000000000000000000000000000000000000000081526004016111679190616436565b60405180910390fd5b50849150600073ffffffffffffffffffffffffffffffffffffffff168573ffffffffffffffffffffffffffffffffffffffff161415156112cc578173ffffffffffffffffffffffffffffffffffffffff1663ae25532e6040518163ffffffff167c0100000000000000000000000000000000000000000000000000000000028152600401602060405180830381600087803b15801561120e57600080fd5b505af1158015611222573d6000803e3d6000fd5b505050506040513d601f19601f820116820180604052506112469190810190615f0f565b90508560ff168160ff16146040805190810160405280601781526020017f41535345545f50524f58595f49445f4d49534d415443480000000000000000008152509015156112ca576040517f08c379a00000000000000000000000000000000000000000000000000000000081526004016112c19190616436565b60405180910390fd5b505b81600960008860ff1660ff16815260200190815260200160002060006101000a81548173ffffffffffffffffffffffffffffffffffffffff021916908373ffffffffffffffffffffffffffffffffffffffff1602179055507f27ef5f484e50f2daf7c2d82c60fe4ce409009541176eb64095beac369db1d260868686604051611357939291906164e5565b60405180910390a1505050505050565b606060048054600181600116156101000203166002900480601f0160208091040260200160405190810160405280929190818152602001828054600181600116156101000203166002900480156113ff5780601f106113d4576101008083540402835291602001916113ff565b820191906000526020600020905b8154815290600101906020018083116113e257829003601f168201915b5050505050905090565b60076020528060005260406000206000915054906101000a900460ff1681565b6114316153ca565b61143c848484611953565b9050828160200151146040805190810160405280601481526020017f434f4d504c4554455f46494c4c5f4641494c45440000000000000000000000008152509015156114be576040517f08c379a00000000000000000000000000000000000000000000000000000000081526004016114b59190616436565b60405180910390fd5b508090509392505050565b60036020528060005260406000206000915090505481565b60006114eb6133a9565b905081600660008373ffffffffffffffffffffffffffffffffffffffff1673ffffffffffffffffffffffffffffffffffffffff16815260200190815260200160002060008573ffffffffffffffffffffffffffffffffffffffff1673ffffffffffffffffffffffffffffffffffffffff16815260200190815260200160002060006101000a81548160ff021916908315150217905550505050565b60066020528160005260406000206020528060005260406000206000915091509054906101000a900460ff1681565b6115bd6153ca565b6000806115c86153ca565b600092505b86518310156117065761161987848151811015156115e757fe5b90602001906020020151610160015188600081518110151561160557fe5b906020019060200201516101600151613ecb565b6040805190810160405280601381526020017f41535345545f444154415f4d49534d4154434800000000000000000000000000815250901515611692576040517f08c379a00000000000000000000000000000000000000000000000000000000081526004016116899190616436565b60405180910390fd5b506116a1868560200151613f1e565b91506116dc87848151811015156116b457fe5b906020019060200201518387868151811015156116cd57fe5b90602001906020020151611953565b90506116e88482613f37565b85846020015114156116f957611706565b82806001019350506115cd565b8393505050509392505050565b60056020528160005260406000206020528060005260406000206000915091509054906101000a900460ff1681565b6000809054906101000a900473ffffffffffffffffffffffffffffffffffffffff1681565b600080600960008460ff1660ff16815260200190815260200160002060009054906101000a900473ffffffffffffffffffffffffffffffffffffffff16905080915050919050565b6117b76153ca565b60008060006117c46153ca565b600093505b87518410156119455761181588858151811015156117e357fe5b90602001906020020151610140015189600081518110151561180157fe5b906020019060200201516101400151613ecb565b6040805190810160405280601381526020017f41535345545f444154415f4d49534d415443480000000000000000000000000081525090151561188e576040517f08c379a00000000000000000000000000000000000000000000000000000000081526004016118859190616436565b60405180910390fd5b5061189d878660000151613f1e565b92506118e088858151811015156118b057fe5b9060200190602002015160a0015189868151811015156118cc57fe5b906020019060200201516080015185613fa7565b915061191b88858151811015156118f357fe5b9060200190602002015183888781518110151561190c57fe5b90602001906020020151610b23565b90506119278582613f37565b868560000151141561193857611945565b83806001019450506117c9565b849450505050509392505050565b61195b6153ca565b6119636153a2565b600080600061197188611ed1565b935061197b6133a9565b925061198f8860a001518560400151613f1e565b915061199b8783613fc8565b90506119ab8885858a858b6135b6565b6119b58882613fe1565b94506119c288848761405c565b6119d788848660200151876040015189613dff565b849450505050509392505050565b60008073ffffffffffffffffffffffffffffffffffffffff16600860009054906101000a900473ffffffffffffffffffffffffffffffffffffffff1673ffffffffffffffffffffffffffffffffffffffff16146040805190810160405280601281526020017f5245454e5452414e43595f494c4c4547414c0000000000000000000000000000815250901515611ab1576040517f08c379a0000000000000000000000000000000000000000000000000000000008152600401611aa89190616436565b60405180910390fd5b503086888787604051602001808673ffffffffffffffffffffffffffffffffffffffff1673ffffffffffffffffffffffffffffffffffffffff166c010000000000000000000000000281526014018573ffffffffffffffffffffffffffffffffffffffff1673ffffffffffffffffffffffffffffffffffffffff166c010000000000000000000000000281526014018481526020018383808284378201915050955050505050506040516020818303038152906040526040518082805190602001908083835b602083101515611b9c5780518252602082019150602081019050602083039250611b77565b6001836020036101000a0380198251168184511680821785525050505050509050019150506040518091039020905060076000826000191660001916815260200190815260200160002060009054906101000a900460ff16156040805190810160405280600f81526020017f494e56414c49445f54585f484153480000000000000000000000000000000000815250901515611c6e576040517f08c379a0000000000000000000000000000000000000000000000000000000008152600401611c659190616436565b60405180910390fd5b503373ffffffffffffffffffffffffffffffffffffffff168673ffffffffffffffffffffffffffffffffffffffff16141515611d9d57611ce1818785858080601f01602080910402602001604051908101604052809392919081815260200183838082843782019150505050505061257d565b6040805190810160405280601481526020017f494e56414c49445f54585f5349474e4154555245000000000000000000000000815250901515611d5a576040517f08c379a0000000000000000000000000000000000000000000000000000000008152600401611d519190616436565b60405180910390fd5b5085600860006101000a81548173ffffffffffffffffffffffffffffffffffffffff021916908373ffffffffffffffffffffffffffffffffffffffff1602179055505b600160076000836000191660001916815260200190815260200160002060006101000a81548160ff0219169083151502179055503073ffffffffffffffffffffffffffffffffffffffff16858560405180838380828437820191505092505050600060405180830381855af49150506040805190810160405280601081526020017f4641494c45445f455845435554494f4e00000000000000000000000000000000815250901515611e85576040517f08c379a0000000000000000000000000000000000000000000000000000000008152600401611e7c9190616436565b60405180910390fd5b506000600860006101000a81548173ffffffffffffffffffffffffffffffffffffffff021916908373ffffffffffffffffffffffffffffffffffffffff16021790555050505050505050565b611ed96153a2565b611ee2826141f3565b81602001906000191690816000191681525050600082608001511415611f285760016006811115611f0f57fe5b816000019060ff16908160ff16815250508090506120dd565b60008260a001511415611f5b5760026006811115611f4257fe5b816000019060ff16908160ff16815250508090506120dd565b81610100015142101515611f8f5760046006811115611f7657fe5b816000019060ff16908160ff16815250508090506120dd565b6002600082602001516000191660001916815260200190815260200160002060009054906101000a900460ff1615611fe657600680811115611fcd57fe5b816000019060ff16908160ff16815250508090506120dd565b81610120015160036000846000015173ffffffffffffffffffffffffffffffffffffffff1673ffffffffffffffffffffffffffffffffffffffff16815260200190815260200160002054111561205b5760068081111561204257fe5b816000019060ff16908160ff16815250508090506120dd565b60016000826020015160001916600019168152602001908152602001600020548160400181815250508160a0015181604001511015156120bb57600560068111156120a257fe5b816000019060ff16908160ff16815250508090506120dd565b600360068111156120c857fe5b816000019060ff16908160ff16815250508090505b919050565b6120ea6153a2565b6120f382611ed1565b90506120ff8282614a8a565b61210d828260200151614cc3565b5050565b6121196153ca565b6000806121246153ca565b600092505b865183101561226257612175878481518110151561214357fe5b90602001906020020151610160015188600081518110151561216157fe5b906020019060200201516101600151613ecb565b6040805190810160405280601381526020017f41535345545f444154415f4d49534d41544348000000000000000000000000008152509015156121ee576040517f08c379a00000000000000000000000000000000000000000000000000000000081526004016121e59190616436565b60405180910390fd5b506121fd868560200151613f1e565b9150612238878481518110151561221057fe5b9060200190602002015183878681518110151561222957fe5b90602001906020020151610b23565b90506122448482613f37565b858460200151141561225557612262565b8280600101935050612129565b8393505050509392505050565b6122776153ca565b60008060006122846153ca565b600093505b8751841015612405576122d588858151811015156122a357fe5b9060200190602002015161014001518960008151811015156122c157fe5b906020019060200201516101400151613ecb565b6040805190810160405280601381526020017f41535345545f444154415f4d49534d415443480000000000000000000000000081525090151561234e576040517f08c379a00000000000000000000000000000000000000000000000000000000081526004016123459190616436565b60405180910390fd5b5061235d878660000151613f1e565b92506123a0888581518110151561237057fe5b9060200190602002015160a00151898681518110151561238c57fe5b906020019060200201516080015185613fa7565b91506123db88858151811015156123b357fe5b906020019060200201518388878151811015156123cc57fe5b90602001906020020151611953565b90506123e78582613f37565b86856000015114156123f857612405565b8380600101945050612289565b849450505050509392505050565b600860009054906101000a900473ffffffffffffffffffffffffffffffffffffffff1681565b6000809054906101000a900473ffffffffffffffffffffffffffffffffffffffff1673ffffffffffffffffffffffffffffffffffffffff163373ffffffffffffffffffffffffffffffffffffffff161415156124ca576040517f08c379a00000000000000000000000000000000000000000000000000000000081526004016124c190616458565b60405180910390fd5b600073ffffffffffffffffffffffffffffffffffffffff168173ffffffffffffffffffffffffffffffffffffffff1614151561254157806000806101000a81548173ffffffffffffffffffffffffffffffffffffffff021916908373ffffffffffffffffffffffffffffffffffffffff1602179055505b50565b6040805190810160405280600b81526020017f322e302e312d616c70686100000000000000000000000000000000000000000081525081565b6000806000806000806000808851116040805190810160405280601e81526020017f4c454e4754485f475245415445525f5448414e5f305f52455155495245440000815250901515612605576040517f08c379a00000000000000000000000000000000000000000000000000000000081526004016125fc9190616436565b60405180910390fd5b5061260f88614d79565b7f0100000000000000000000000000000000000000000000000000000000000000900460ff16600881111561264057fe5b95506000600881111561264f57fe5b86600881111561265b57fe5b14156126d3576040805190810160405280601181526020017f5349474e41545552455f494c4c4547414c0000000000000000000000000000008152506040517f08c379a00000000000000000000000000000000000000000000000000000000081526004016126ca9190616436565b60405180910390fd5b600160088111156126e057fe5b8660088111156126ec57fe5b141561277d5760008851146040805190810160405280601181526020017f4c454e4754485f315f5245515549524544000000000000000000000000000000815250901515612770576040517f08c379a00000000000000000000000000000000000000000000000000000000081526004016127679190616436565b60405180910390fd5b506000965086965061339c565b6002600881111561278a57fe5b86600881111561279657fe5b14156129405760418851146040805190810160405280601281526020017f4c454e4754485f36365f5245515549524544000000000000000000000000000081525090151561281a576040517f08c379a00000000000000000000000000000000000000000000000000000000081526004016128119190616436565b60405180910390fd5b5087600081518110151561282a57fe5b9060200101517f010000000000000000000000000000000000000000000000000000000000000090047f0100000000000000000000000000000000000000000000000000000000000000027f0100000000000000000000000000000000000000000000000000000000000000900494506128a5886001614e69565b93506128b2886021614e69565b925060018a868686604051600081526020016040526040516128d79493929190616331565b60206040516020810390808403906000865af11580156128fb573d6000803e3d6000fd5b5050506020604051035191508173ffffffffffffffffffffffffffffffffffffffff168973ffffffffffffffffffffffffffffffffffffffff1614965086965061339c565b6003600881111561294d57fe5b86600881111561295957fe5b1415612c165760418851146040805190810160405280601281526020017f4c454e4754485f36365f524551554952454400000000000000000000000000008152509015156129dd576040517f08c379a00000000000000000000000000000000000000000000000000000000081526004016129d49190616436565b60405180910390fd5b508760008151811015156129ed57fe5b9060200101517f010000000000000000000000000000000000000000000000000000000000000090047f0100000000000000000000000000000000000000000000000000000000000000027f010000000000000000000000000000000000000000000000000000000000000090049450612a68886001614e69565b9350612a75886021614e69565b925060016040805190810160405280601c81526020017f19457468657265756d205369676e6564204d6573736167653a0a3332000000008152508b6040516020018083805190602001908083835b602083101515612ae85780518252602082019150602081019050602083039250612ac3565b6001836020036101000a0380198251168184511680821785525050505050509050018260001916600019168152602001925050506040516020818303038152906040526040518082805190602001908083835b602083101515612b605780518252602082019150602081019050602083039250612b3b565b6001836020036101000a038019825116818451168082178552505050505050905001915050604051809103902086868660405160008152602001604052604051612bad9493929190616331565b60206040516020810390808403906000865af1158015612bd1573d6000803e3d6000fd5b5050506020604051035191508173ffffffffffffffffffffffffffffffffffffffff168973ffffffffffffffffffffffffffffffffffffffff1614965086965061339c565b60046008811115612c2357fe5b866008811115612c2f57fe5b1415612ced5760008851146040805190810160405280601181526020017f4c454e4754485f315f5245515549524544000000000000000000000000000000815250901515612cb3576040517f08c379a0000000000000000000000000000000000000000000000000000000008152600401612caa9190616436565b60405180910390fd5b503373ffffffffffffffffffffffffffffffffffffffff168973ffffffffffffffffffffffffffffffffffffffff1614965086965061339c565b60056008811115612cfa57fe5b866008811115612d0657fe5b1415612dbf578873ffffffffffffffffffffffffffffffffffffffff16631626ba7e8b8a6040518363ffffffff167c0100000000000000000000000000000000000000000000000000000000028152600401612d63929190616301565b602060405180830381600087803b158015612d7d57600080fd5b505af1158015612d91573d6000803e3d6000fd5b505050506040513d601f19601f82011682018060405250612db59190810190615ba5565b965086965061339c565b60066008811115612dcc57fe5b866008811115612dd857fe5b1415612f3757612de788614f29565b9050600660008a73ffffffffffffffffffffffffffffffffffffffff1673ffffffffffffffffffffffffffffffffffffffff16815260200190815260200160002060008273ffffffffffffffffffffffffffffffffffffffff1673ffffffffffffffffffffffffffffffffffffffff16815260200190815260200160002060009054906101000a900460ff161515612e82576000965061339c565b8073ffffffffffffffffffffffffffffffffffffffff1663936347028b8b8b6040518463ffffffff167c0100000000000000000000000000000000000000000000000000000000028152600401612edb939291906162c3565b602060405180830381600087803b158015612ef557600080fd5b505af1158015612f09573d6000803e3d6000fd5b505050506040513d601f19601f82011682018060405250612f2d9190810190615ba5565b965086965061339c565b60076008811115612f4457fe5b866008811115612f5057fe5b1415612fc657600560008b6000191660001916815260200190815260200160002060008a73ffffffffffffffffffffffffffffffffffffffff1673ffffffffffffffffffffffffffffffffffffffff16815260200190815260200160002060009054906101000a900460ff16965086965061339c565b600880811115612fd257fe5b866008811115612fde57fe5b141561329b5760418851146040805190810160405280601281526020017f4c454e4754485f36365f52455155495245440000000000000000000000000000815250901515613062576040517f08c379a00000000000000000000000000000000000000000000000000000000081526004016130599190616436565b60405180910390fd5b5087600081518110151561307257fe5b9060200101517f010000000000000000000000000000000000000000000000000000000000000090047f0100000000000000000000000000000000000000000000000000000000000000027f0100000000000000000000000000000000000000000000000000000000000000900494506130ed886001614e69565b93506130fa886021614e69565b925060016040805190810160405280601b81526020017f19457468657265756d205369676e6564204d6573736167653a0a4100000000008152508b6040516020018083805190602001908083835b60208310151561316d5780518252602082019150602081019050602083039250613148565b6001836020036101000a0380198251168184511680821785525050505050509050018260001916600019168152602001925050506040516020818303038152906040526040518082805190602001908083835b6020831015156131e557805182526020820191506020810190506020830392506131c0565b6001836020036101000a0380198251168184511680821785525050505050509050019150506040518091039020868686604051600081526020016040526040516132329493929190616331565b60206040516020810390808403906000865af1158015613256573d6000803e3d6000fd5b5050506020604051035191508173ffffffffffffffffffffffffffffffffffffffff168973ffffffffffffffffffffffffffffffffffffffff1614965086965061339c565b600760088111156132a857fe5b8660088111156132b457fe5b141561332a57600560008b6000191660001916815260200190815260200160002060008a73ffffffffffffffffffffffffffffffffffffffff1673ffffffffffffffffffffffffffffffffffffffff16815260200190815260200160002060009054906101000a900460ff16965086965061339c565b6040805190810160405280601581526020017f5349474e41545552455f554e535550504f5254454400000000000000000000008152506040517f08c379a00000000000000000000000000000000000000000000000000000000081526004016133939190616436565b60405180910390fd5b5050505050509392505050565b600080600073ffffffffffffffffffffffffffffffffffffffff16600860009054906101000a900473ffffffffffffffffffffffffffffffffffffffff1673ffffffffffffffffffffffffffffffffffffffff161461342a57600860009054906101000a900473ffffffffffffffffffffffffffffffffffffffff1661342c565b335b90508091505090565b6134478260a001518260a00151614ff3565b61345983608001518360800151614ff3565b10156040805190810160405280601881526020017f4e454741544956455f5350524541445f524551554952454400000000000000008152509015156134d4576040517f08c379a00000000000000000000000000000000000000000000000000000000081526004016134cb9190616436565b60405180910390fd5b505050565b6134e1615373565b6000806000806134f58960a0015188613f1e565b93506135058860a0015187613f1e565b9250613515838960800151614ff3565b613523858a60a00151614ff3565b111515613547578391506135408860a00151896080015184613fa7565b9050613560565b82905061355d88608001518960a0015183613fa7565b91505b61356a8983613fe1565b856000018190525061357c8882613fe1565b856020018190525061359e856000015160000151866020015160200151613f1e565b85604001818152505084945050505050949350505050565b600360068111156135c357fe5b60ff16856000015160ff16146040805190810160405280601081526020017f4f524445525f554e46494c4c41424c4500000000000000000000000000000000815250901515613648576040517f08c379a000000000000000000000000000000000000000000000000000000000815260040161363f9190616436565b60405180910390fd5b5060008314156040805190810160405280601481526020017f494e56414c49445f54414b45525f414d4f554e540000000000000000000000008152509015156136c7576040517f08c379a00000000000000000000000000000000000000000000000000000000081526004016136be9190616436565b60405180910390fd5b50600073ffffffffffffffffffffffffffffffffffffffff16866060015173ffffffffffffffffffffffffffffffffffffffff161415156137b0573373ffffffffffffffffffffffffffffffffffffffff16866060015173ffffffffffffffffffffffffffffffffffffffff16146040805190810160405280600e81526020017f494e56414c49445f53454e4445520000000000000000000000000000000000008152509015156137ae576040517f08c379a00000000000000000000000000000000000000000000000000000000081526004016137a59190616436565b60405180910390fd5b505b600073ffffffffffffffffffffffffffffffffffffffff16866020015173ffffffffffffffffffffffffffffffffffffffff16141515613898578373ffffffffffffffffffffffffffffffffffffffff16866020015173ffffffffffffffffffffffffffffffffffffffff16146040805190810160405280600d81526020017f494e56414c49445f54414b455200000000000000000000000000000000000000815250901515613896576040517f08c379a000000000000000000000000000000000000000000000000000000000815260040161388d9190616436565b60405180910390fd5b505b600085604001511415613933576138b8856020015187600001518361257d565b6040805190810160405280601781526020017f494e56414c49445f4f524445525f5349474e4154555245000000000000000000815250901515613931576040517f08c379a00000000000000000000000000000000000000000000000000000000081526004016139289190616436565b60405180910390fd5b505b613946828760a001518860800151615026565b156040805190810160405280600e81526020017f524f554e44494e475f4552524f520000000000000000000000000000000000008152509015156139c0576040517f08c379a00000000000000000000000000000000000000000000000000000000081526004016139b79190616436565b60405180910390fd5b50505050505050565b6139ea84610140015185600001518560000151846020015160200151615081565b613a0b83610140015184600001518660000151846000015160200151615081565b613a248461014001518560000151848460400151615081565b613ada60048054600181600116156101000203166002900480601f016020809104026020016040519081016040528092919081815260200182805460018160011615610100020316600290048015613abd5780601f10613a9257610100808354040283529160200191613abd565b820191906000526020600020905b815481529060010190602001808311613aa057829003601f168201915b505050505085600001518660400151846000015160400151615081565b613b9060048054600181600116156101000203166002900480601f016020809104026020016040519081016040528092919081815260200182805460018160011615610100020316600290048015613b735780601f10613b4857610100808354040283529160200191613b73565b820191906000526020600020905b815481529060010190602001808311613b5657829003601f168201915b505050505084600001518560400151846020015160400151615081565b826040015173ffffffffffffffffffffffffffffffffffffffff16846040015173ffffffffffffffffffffffffffffffffffffffff161415613c9457613c8f60048054600181600116156101000203166002900480601f016020809104026020016040519081016040528092919081815260200182805460018160011615610100020316600290048015613c655780601f10613c3a57610100808354040283529160200191613c65565b820191906000526020600020905b815481529060010190602001808311613c4857829003601f168201915b5050505050838660400151613c8a856000015160600151866020015160600151615264565b615081565b613df9565b613d4660048054600181600116156101000203166002900480601f016020809104026020016040519081016040528092919081815260200182805460018160011615610100020316600290048015613d2d5780601f10613d0257610100808354040283529160200191613d2d565b820191906000526020600020905b815481529060010190602001808311613d1057829003601f168201915b5050505050838660400151846000015160600151615081565b613df860048054600181600116156101000203166002900480601f016020809104026020016040519081016040528092919081815260200182805460018160011615610100020316600290048015613ddf5780601f10613db457610100808354040283529160200191613ddf565b820191906000526020600020905b815481529060010190602001808311613dc257829003601f168201915b5050505050838560400151846020015160600151615081565b5b50505050565b613e0d828260200151615264565b600160008560001916600019168152602001908152602001600020819055508260001916856040015173ffffffffffffffffffffffffffffffffffffffff16866000015173ffffffffffffffffffffffffffffffffffffffff167fde19f18e1b56e6eada7ed95cca8398b602be32f5864640537ee9a9a3532bb29d8785600001518660200151876040015188606001518d61014001518e6101600151604051613ebc979695949392919061622b565b60405180910390a45050505050565b60006020601f8451010460018101905060005b81811015613f1357602081028501516020820285015180821494506000851415613f06578392505b5050600181019050613ede565b505080905092915050565b6000828211151515613f2c57fe5b818303905092915050565b613f4982600001518260000151615264565b826000018181525050613f6482602001518260200151615264565b826020018181525050613f7f82604001518260400151615264565b826040018181525050613f9a82606001518260600151615264565b8260600181815250505050565b6000613fbc613fb68584614ff3565b84615282565b90508090509392505050565b6000818310613fd75781613fd9565b825b905092915050565b613fe96153ca565b8181602001818152505061400a81602001518460a001518560800151613fa7565b81600001818152505061402a81602001518460a001518560c00151613fa7565b81604001818152505061404a81602001518460a001518560e00151613fa7565b81606001818152505080905092915050565b6140758361014001518460000151848460000151615081565b61408e8361016001518385600001518460200151615081565b61414060048054600181600116156101000203166002900480601f0160208091040260200160405190810160405280929190818152602001828054600181600116156101000203166002900480156141275780601f106140fc57610100808354040283529160200191614127565b820191906000526020600020905b81548152906001019060200180831161410a57829003601f168201915b5050505050846000015185604001518460400151615081565b6141ee60048054600181600116156101000203166002900480601f0160208091040260200160405190810160405280929190818152602001828054600181600116156101000203166002900480156141d95780601f106141ae576101008083540402835291602001916141d9565b820191906000526020600020905b8154815290600101906020018083116141bc57829003601f168201915b50505050508385604001518460600151615081565b505050565b600060405160200180807f446f6d61696e536570617261746f72286164647265737320636f6e747261637481526020017f290000000000000000000000000000000000000000000000000000000000000081525060210190506040516020818303038152906040526040518082805190602001908083835b602083101515614290578051825260208201915060208101905060208303925061426b565b6001836020036101000a038019825116818451168082178552505050505050905001915050604051809103902030604051602001808273ffffffffffffffffffffffffffffffffffffffff1673ffffffffffffffffffffffffffffffffffffffff166c010000000000000000000000000281526014019150506040516020818303038152906040526040518082805190602001908083835b60208310151561434d5780518252602082019150602081019050602083039250614328565b6001836020036101000a038019825116818451168082178552505050505050905001915050604051809103902060405160200180807f4f72646572280000000000000000000000000000000000000000000000000000815250600601807f61646472657373206d616b6572416464726573732c0000000000000000000000815250601501807f616464726573732074616b6572416464726573732c0000000000000000000000815250601501807f6164647265737320666565526563697069656e74416464726573732c00000000815250601c01807f616464726573732073656e646572416464726573732c00000000000000000000815250601601807f75696e74323536206d616b65724173736574416d6f756e742c00000000000000815250601901807f75696e743235362074616b65724173736574416d6f756e742c00000000000000815250601901807f75696e74323536206d616b65724665652c000000000000000000000000000000815250601101807f75696e743235362074616b65724665652c000000000000000000000000000000815250601101807f75696e743235362065787069726174696f6e54696d655365636f6e64732c0000815250601e01807f75696e743235362073616c742c00000000000000000000000000000000000000815250600d01807f6279746573206d616b65724173736574446174612c0000000000000000000000815250601501807f62797465732074616b65724173736574446174612c0000000000000000000000815250601501807f290000000000000000000000000000000000000000000000000000000000000081525060010190506040516020818303038152906040526040518082805190602001908083835b6020831015156145f757805182526020820191506020810190506020830392506145d2565b6001836020036101000a0380198251168184511680821785525050505050509050019150506040518091039020846000015185602001518660400151876060015188608001518960a001518a60c001518b60e001518c61010001518d61012001518e61014001516040516020018082805190602001908083835b6020831015156146965780518252602082019150602081019050602083039250614671565b6001836020036101000a0380198251168184511680821785525050505050509050019150506040516020818303038152906040526040518082805190602001908083835b6020831015156146ff57805182526020820191506020810190506020830392506146da565b6001836020036101000a03801982511681845116808217855250505050505090500191505060405180910390208f61016001516040516020018082805190602001908083835b60208310151561476a5780518252602082019150602081019050602083039250614745565b6001836020036101000a0380198251168184511680821785525050505050509050019150506040516020818303038152906040526040518082805190602001908083835b6020831015156147d357805182526020820191506020810190506020830392506147ae565b6001836020036101000a0380198251168184511680821785525050505050509050019150506040518091039020604051602001808d73ffffffffffffffffffffffffffffffffffffffff1673ffffffffffffffffffffffffffffffffffffffff166c010000000000000000000000000281526014018c73ffffffffffffffffffffffffffffffffffffffff1673ffffffffffffffffffffffffffffffffffffffff166c010000000000000000000000000281526014018b73ffffffffffffffffffffffffffffffffffffffff1673ffffffffffffffffffffffffffffffffffffffff166c010000000000000000000000000281526014018a73ffffffffffffffffffffffffffffffffffffffff1673ffffffffffffffffffffffffffffffffffffffff166c01000000000000000000000000028152601401898152602001888152602001878152602001868152602001858152602001848152602001836000191660001916815260200182600019166000191681526020019c505050505050505050505050506040516020818303038152906040526040518082805190602001908083835b60208310151561499d5780518252602082019150602081019050602083039250614978565b6001836020036101000a03801982511681845116808217855250505050505090500191505060405180910390206040516020018085600019166000191681526020018460001916600019168152602001836000191660001916815260200182600019166000191681526020019450505050506040516020818303038152906040526040518082805190602001908083835b602083101515614a535780518252602082019150602081019050602083039250614a2e565b6001836020036101000a03801982511681845116808217855250505050505090500191505060405180910390209050809050919050565b600060036006811115614a9957fe5b60ff16826000015160ff16146040805190810160405280601081526020017f4f524445525f554e46494c4c41424c4500000000000000000000000000000000815250901515614b1e576040517f08c379a0000000000000000000000000000000000000000000000000000000008152600401614b159190616436565b60405180910390fd5b50600073ffffffffffffffffffffffffffffffffffffffff16836060015173ffffffffffffffffffffffffffffffffffffffff16141515614c07573373ffffffffffffffffffffffffffffffffffffffff16836060015173ffffffffffffffffffffffffffffffffffffffff16146040805190810160405280600e81526020017f494e56414c49445f53454e444552000000000000000000000000000000000000815250901515614c05576040517f08c379a0000000000000000000000000000000000000000000000000000000008152600401614bfc9190616436565b60405180910390fd5b505b614c0f6133a9565b90508073ffffffffffffffffffffffffffffffffffffffff16836000015173ffffffffffffffffffffffffffffffffffffffff16146040805190810160405280600d81526020017f494e56414c49445f4d414b455200000000000000000000000000000000000000815250901515614cbd576040517f08c379a0000000000000000000000000000000000000000000000000000000008152600401614cb49190616436565b60405180910390fd5b50505050565b600160026000836000191660001916815260200190815260200160002060006101000a81548160ff0219169083151502179055508060001916826040015173ffffffffffffffffffffffffffffffffffffffff16836000015173ffffffffffffffffffffffffffffffffffffffff167fb1ad640e9e79b6fdbc3c415dc2914ab54e753d2971f51eab910f7aa317a3163a856101400151866101600151604051614d6d9291906163e4565b60405180910390a45050565b6000808251116040805190810160405280601e81526020017f4c656e677468206d7573742062652067726561746572207468616e20302e0000815250901515614df8576040517f08c379a0000000000000000000000000000000000000000000000000000000008152600401614def9190616436565b60405180910390fd5b50816001835103815181101515614e0b57fe5b9060200101517f010000000000000000000000000000000000000000000000000000000000000090047f0100000000000000000000000000000000000000000000000000000000000000029050600182510380835250809050919050565b60006020820183511015606060405190810160405280602b81526020017f4c656e677468206d7573742062652067726561746572207468616e206f72206581526020017f7175616c20746f2033322e000000000000000000000000000000000000000000815250901515614f13576040517f08c379a0000000000000000000000000000000000000000000000000000000008152600401614f0a9190616436565b60405180910390fd5b5060208201915081830151905080905092915050565b6000601482511015606060405190810160405280602b81526020017f4c656e677468206d7573742062652067726561746572207468616e206f72206581526020017f7175616c20746f2032302e000000000000000000000000000000000000000000815250901515614fd1576040517f08c379a0000000000000000000000000000000000000000000000000000000008152600401614fc89190616436565b60405180910390fd5b50614fe082601484510361529d565b9050601482510380835250809050919050565b60008082840290506000841480615014575082848281151561501157fe5b04145b151561501c57fe5b8091505092915050565b60008060008480151561503557fe5b8685099150600082141561504c5760009250615078565b61506b61505c83620f4240614ff3565b6150668887614ff3565b615282565b90506103e8811192508292505b50509392505050565b60008060008084111561525b5786519250600083116040805190810160405280601e81526020017f4c454e4754485f475245415445525f5448414e5f305f5245515549524544000081525090151561510f576040517f08c379a00000000000000000000000000000000000000000000000000000000081526004016151069190616436565b60405180910390fd5b50866001840381518110151561512157fe5b9060200101517f010000000000000000000000000000000000000000000000000000000000000090047f0100000000000000000000000000000000000000000000000000000000000000027f010000000000000000000000000000000000000000000000000000000000000090049150600960008360ff1660ff16815260200190815260200160002060009054906101000a900473ffffffffffffffffffffffffffffffffffffffff1690508073ffffffffffffffffffffffffffffffffffffffff1663a85e59e4888888886040518563ffffffff167c01000000000000000000000000000000000000000000000000000000000281526004016152289493929190616398565b600060405180830381600087803b15801561524257600080fd5b505af1158015615256573d6000803e3d6000fd5b505050505b50505050505050565b600080828401905083811015151561527857fe5b8091505092915050565b600080828481151561529057fe5b0490508091505092915050565b60006014820183511015606060405190810160405280602b81526020017f4c656e677468206d7573742062652067726561746572207468616e206f72206581526020017f7175616c20746f2032302e000000000000000000000000000000000000000000815250901515615347576040517f08c379a000000000000000000000000000000000000000000000000000000000815260040161533e9190616436565b60405180910390fd5b5060148201915073ffffffffffffffffffffffffffffffffffffffff8284015116905080905092915050565b610120604051908101604052806153886153f3565b81526020016153956153f3565b8152602001600081525090565b606060405190810160405280600060ff16815260200160008019168152602001600081525090565b608060405190810160405280600081526020016000815260200160008152602001600081525090565b608060405190810160405280600081526020016000815260200160008152602001600081525090565b60006154288235616687565b905092915050565b600082601f830112151561544357600080fd5b813561545661545182616549565b61651c565b9150818183526020840193506020810190508360005b8381101561549c57813586016154828882615629565b84526020840193506020830192505060018101905061546c565b5050505092915050565b600082601f83011215156154b957600080fd5b81356154cc6154c782616571565b61651c565b9150818183526020840193506020810190508360005b8381101561551257813586016154f888826156d5565b8452602084019350602083019250506001810190506154e2565b5050505092915050565b600082601f830112151561552f57600080fd5b813561554261553d82616599565b61651c565b9150818183526020840193506020810190508385602084028201111561556757600080fd5b60005b83811015615597578161557d8882615971565b84526020840193506020830192505060018101905061556a565b5050505092915050565b60006155ad82356166a7565b905092915050565b60006155c182516166a7565b905092915050565b60006155d582356166b3565b905092915050565b60008083601f84011215156155f157600080fd5b8235905067ffffffffffffffff81111561560a57600080fd5b60208301915083600182028301111561562257600080fd5b9250929050565b600082601f830112151561563c57600080fd5b813561564f61564a826165c1565b61651c565b9150808252602083016020830185838301111561566b57600080fd5b6156768382846166e6565b50505092915050565b600082601f830112151561569257600080fd5b81356156a56156a0826165ed565b61651c565b915080825260208301602083018583830111156156c157600080fd5b6156cc8382846166e6565b50505092915050565b600061018082840312156156e857600080fd5b6156f361018061651c565b905060006157038482850161541c565b60008301525060206157178482850161541c565b602083015250604061572b8482850161541c565b604083015250606061573f8482850161541c565b606083015250608061575384828501615971565b60808301525060a061576784828501615971565b60a08301525060c061577b84828501615971565b60c08301525060e061578f84828501615971565b60e0830152506101006157a484828501615971565b610100830152506101206157ba84828501615971565b6101208301525061014082013567ffffffffffffffff8111156157dc57600080fd5b6157e884828501615629565b6101408301525061016082013567ffffffffffffffff81111561580a57600080fd5b61581684828501615629565b6101608301525092915050565b6000610180828403121561583657600080fd5b61584161018061651c565b905060006158518482850161541c565b60008301525060206158658482850161541c565b60208301525060406158798482850161541c565b604083015250606061588d8482850161541c565b60608301525060806158a184828501615971565b60808301525060a06158b584828501615971565b60a08301525060c06158c984828501615971565b60c08301525060e06158dd84828501615971565b60e0830152506101006158f284828501615971565b6101008301525061012061590884828501615971565b6101208301525061014082013567ffffffffffffffff81111561592a57600080fd5b61593684828501615629565b6101408301525061016082013567ffffffffffffffff81111561595857600080fd5b61596484828501615629565b6101608301525092915050565b600061597d82356166bd565b905092915050565b600061599182356166c7565b905092915050565b60006159a582516166c7565b905092915050565b6000602082840312156159bf57600080fd5b60006159cd8482850161541c565b91505092915050565b600080604083850312156159e957600080fd5b60006159f78582860161541c565b9250506020615a088582860161541c565b9150509250929050565b60008060408385031215615a2557600080fd5b6000615a338582860161541c565b9250506020615a44858286016155a1565b9150509250929050565b600060208284031215615a6057600080fd5b600082013567ffffffffffffffff811115615a7a57600080fd5b615a86848285016154a6565b91505092915050565b600080600060608486031215615aa457600080fd5b600084013567ffffffffffffffff811115615abe57600080fd5b615aca868287016154a6565b935050602084013567ffffffffffffffff811115615ae757600080fd5b615af38682870161551c565b925050604084013567ffffffffffffffff811115615b1057600080fd5b615b1c86828701615430565b9150509250925092565b600080600060608486031215615b3b57600080fd5b600084013567ffffffffffffffff811115615b5557600080fd5b615b61868287016154a6565b9350506020615b7286828701615971565b925050604084013567ffffffffffffffff811115615b8f57600080fd5b615b9b86828701615430565b9150509250925092565b600060208284031215615bb757600080fd5b6000615bc5848285016155b5565b91505092915050565b600060208284031215615be057600080fd5b6000615bee848285016155c9565b91505092915050565b60008060408385031215615c0a57600080fd5b6000615c18858286016155c9565b9250506020615c298582860161541c565b9150509250929050565b60008060008060608587031215615c4957600080fd5b6000615c57878288016155c9565b9450506020615c688782880161541c565b935050604085013567ffffffffffffffff811115615c8557600080fd5b615c91878288016155dd565b925092505092959194509250565b600060208284031215615cb157600080fd5b600082013567ffffffffffffffff811115615ccb57600080fd5b615cd784828501615823565b91505092915050565b60008060008060808587031215615cf657600080fd5b600085013567ffffffffffffffff811115615d1057600080fd5b615d1c87828801615823565b945050602085013567ffffffffffffffff811115615d3957600080fd5b615d4587828801615823565b935050604085013567ffffffffffffffff811115615d6257600080fd5b615d6e8782880161567f565b925050606085013567ffffffffffffffff811115615d8b57600080fd5b615d978782880161567f565b91505092959194509250565b600080600060608486031215615db857600080fd5b600084013567ffffffffffffffff811115615dd257600080fd5b615dde86828701615823565b9350506020615def86828701615971565b925050604084013567ffffffffffffffff811115615e0c57600080fd5b615e188682870161567f565b9150509250925092565b600060208284031215615e3457600080fd5b6000615e4284828501615971565b91505092915050565b60008060008060008060808789031215615e6457600080fd5b6000615e7289828a01615971565b9650506020615e8389828a0161541c565b955050604087013567ffffffffffffffff811115615ea057600080fd5b615eac89828a016155dd565b9450945050606087013567ffffffffffffffff811115615ecb57600080fd5b615ed789828a016155dd565b92509250509295509295509295565b600060208284031215615ef857600080fd5b6000615f0684828501615985565b91505092915050565b600060208284031215615f2157600080fd5b6000615f2f84828501615999565b91505092915050565b600080600060608486031215615f4d57600080fd5b6000615f5b86828701615985565b9350506020615f6c8682870161541c565b9250506040615f7d8682870161541c565b9150509250925092565b615f908161663a565b82525050565b615f9f8161665a565b82525050565b615fae81616666565b82525050565b6000615fbf82616624565b808452615fd38160208601602086016166f5565b615fdc81616728565b602085010191505092915050565b6000615ff582616619565b8084526160098160208601602086016166f5565b61601281616728565b602085010191505092915050565b616029816166d4565b82525050565b600061603a8261662f565b80845261604e8160208601602086016166f5565b61605781616728565b602085010191505092915050565b6000603382527f4f6e6c7920636f6e7472616374206f776e657220697320616c6c6f776564207460208301527f6f2063616c6c2074686973206d6574686f642e000000000000000000000000006040830152606082019050919050565b6080820160008201516160d860008501826161f2565b5060208201516160eb60208501826161f2565b5060408201516160fe60408501826161f2565b50606082015161611160608501826161f2565b50505050565b60808201600082015161612d60008501826161f2565b50602082015161614060208501826161f2565b50604082015161615360408501826161f2565b50606082015161616660608501826161f2565b50505050565b610120820160008201516161836000850182616117565b5060208201516161966080850182616117565b5060408201516161aa6101008501826161f2565b50505050565b6060820160008201516161c66000850182616201565b5060208201516161d96020850182615fa5565b5060408201516161ec60408501826161f2565b50505050565b6161fb81616670565b82525050565b61620a8161667a565b82525050565b60006020820190506162256000830184615f87565b92915050565b600060e082019050616240600083018a615f87565b61624d60208301896161f2565b61625a60408301886161f2565b61626760608301876161f2565b61627460808301866161f2565b81810360a08301526162868185615fea565b905081810360c083015261629a8184615fea565b905098975050505050505050565b60006020820190506162bd6000830184615f96565b92915050565b60006060820190506162d86000830186615fa5565b6162e56020830185615f87565b81810360408301526162f78184615fb4565b9050949350505050565b60006040820190506163166000830185615fa5565b81810360208301526163288184615fb4565b90509392505050565b60006080820190506163466000830187615fa5565b6163536020830186616201565b6163606040830185615fa5565b61636d6060830184615fa5565b95945050505050565b600060208201905081810360008301526163908184615fb4565b905092915050565b600060808201905081810360008301526163b28187615fb4565b90506163c16020830186615f87565b6163ce6040830185615f87565b6163db60608301846161f2565b95945050505050565b600060408201905081810360008301526163fe8185615fea565b905081810360208301526164128184615fea565b90509392505050565b60006020820190506164306000830184616020565b92915050565b60006020820190508181036000830152616450818461602f565b905092915050565b6000602082019050818103600083015261647181616065565b9050919050565b600060808201905061648d60008301846160c2565b92915050565b6000610120820190506164a9600083018461616c565b92915050565b60006060820190506164c460008301846161b0565b92915050565b60006020820190506164df60008301846161f2565b92915050565b60006060820190506164fa6000830186616201565b6165076020830185615f87565b6165146040830184615f87565b949350505050565b6000604051905081810181811067ffffffffffffffff8211171561653f57600080fd5b8060405250919050565b600067ffffffffffffffff82111561656057600080fd5b602082029050602081019050919050565b600067ffffffffffffffff82111561658857600080fd5b602082029050602081019050919050565b600067ffffffffffffffff8211156165b057600080fd5b602082029050602081019050919050565b600067ffffffffffffffff8211156165d857600080fd5b601f19601f8301169050602081019050919050565b600067ffffffffffffffff82111561660457600080fd5b601f19601f8301169050602081019050919050565b600081519050919050565b600081519050919050565b600081519050919050565b600073ffffffffffffffffffffffffffffffffffffffff82169050919050565b60008115159050919050565b6000819050919050565b6000819050919050565b600060ff82169050919050565b600073ffffffffffffffffffffffffffffffffffffffff82169050919050565b60008115159050919050565b6000819050919050565b6000819050919050565b600060ff82169050919050565b60006166df8261663a565b9050919050565b82818337600083830152505050565b60005b838110156167135780820151818401526020810190506166f8565b83811115616722576000848401525b50505050565b6000601f19601f83011690509190505600a265627a7a72305820221de7c0c946f6710ca09cb6f32c25564ab9cb754ed4e8567b799951717f91656c6578706572696d656e74616cf50037",
				"opcodes": "PUSH1 0x80 PUSH1 0x40 MSTORE CALLVALUE DUP1 ISZERO PUSH3 0x11 JUMPI PUSH1 0x0 DUP1 REVERT JUMPDEST POP PUSH1 0x40 MLOAD PUSH3 0x69FF CODESIZE SUB DUP1 PUSH3 0x69FF DUP4 CODECOPY DUP2 ADD DUP1 PUSH1 0x40 MSTORE PUSH3 0x37 SWAP2 SWAP1 DUP2 ADD SWAP1 PUSH3 0x1A6 JUMP JUMPDEST DUP1 CALLER PUSH1 0x0 DUP1 PUSH2 0x100 EXP DUP2 SLOAD DUP2 PUSH20 0xFFFFFFFFFFFFFFFFFFFFFFFFFFFFFFFFFFFFFFFF MUL NOT AND SWAP1 DUP4 PUSH20 0xFFFFFFFFFFFFFFFFFFFFFFFFFFFFFFFFFFFFFFFF AND MUL OR SWAP1 SSTORE POP DUP1 PUSH1 0x4 SWAP1 DUP1 MLOAD SWAP1 PUSH1 0x20 ADD SWAP1 PUSH3 0x90 SWAP3 SWAP2 SWAP1 PUSH3 0x99 JUMP JUMPDEST POP POP POP PUSH3 0x27C JUMP JUMPDEST DUP3 DUP1 SLOAD PUSH1 0x1 DUP2 PUSH1 0x1 AND ISZERO PUSH2 0x100 MUL SUB AND PUSH1 0x2 SWAP1 DIV SWAP1 PUSH1 0x0 MSTORE PUSH1 0x20 PUSH1 0x0 KECCAK256 SWAP1 PUSH1 0x1F ADD PUSH1 0x20 SWAP1 DIV DUP2 ADD SWAP3 DUP3 PUSH1 0x1F LT PUSH3 0xDC JUMPI DUP1 MLOAD PUSH1 0xFF NOT AND DUP4 DUP1 ADD OR DUP6 SSTORE PUSH3 0x10D JUMP JUMPDEST DUP3 DUP1 ADD PUSH1 0x1 ADD DUP6 SSTORE DUP3 ISZERO PUSH3 0x10D JUMPI SWAP2 DUP3 ADD JUMPDEST DUP3 DUP2 GT ISZERO PUSH3 0x10C JUMPI DUP3 MLOAD DUP3 SSTORE SWAP2 PUSH1 0x20 ADD SWAP2 SWAP1 PUSH1 0x1 ADD SWAP1 PUSH3 0xEF JUMP JUMPDEST JUMPDEST POP SWAP1 POP PUSH3 0x11C SWAP2 SWAP1 PUSH3 0x120 JUMP JUMPDEST POP SWAP1 JUMP JUMPDEST PUSH3 0x145 SWAP2 SWAP1 JUMPDEST DUP1 DUP3 GT ISZERO PUSH3 0x141 JUMPI PUSH1 0x0 DUP2 PUSH1 0x0 SWAP1 SSTORE POP PUSH1 0x1 ADD PUSH3 0x127 JUMP JUMPDEST POP SWAP1 JUMP JUMPDEST SWAP1 JUMP JUMPDEST PUSH1 0x0 DUP3 PUSH1 0x1F DUP4 ADD SLT ISZERO ISZERO PUSH3 0x15C JUMPI PUSH1 0x0 DUP1 REVERT JUMPDEST DUP2 MLOAD PUSH3 0x173 PUSH3 0x16D DUP3 PUSH3 0x219 JUMP JUMPDEST PUSH3 0x1EB JUMP JUMPDEST SWAP2 POP DUP1 DUP3 MSTORE PUSH1 0x20 DUP4 ADD PUSH1 0x20 DUP4 ADD DUP6 DUP4 DUP4 ADD GT ISZERO PUSH3 0x190 JUMPI PUSH1 0x0 DUP1 REVERT JUMPDEST PUSH3 0x19D DUP4 DUP3 DUP5 PUSH3 0x246 JUMP JUMPDEST POP POP POP SWAP3 SWAP2 POP POP JUMP JUMPDEST PUSH1 0x0 PUSH1 0x20 DUP3 DUP5 SUB SLT ISZERO PUSH3 0x1B9 JUMPI PUSH1 0x0 DUP1 REVERT JUMPDEST PUSH1 0x0 DUP3 ADD MLOAD PUSH8 0xFFFFFFFFFFFFFFFF DUP2 GT ISZERO PUSH3 0x1D4 JUMPI PUSH1 0x0 DUP1 REVERT JUMPDEST PUSH3 0x1E2 DUP5 DUP3 DUP6 ADD PUSH3 0x148 JUMP JUMPDEST SWAP2 POP POP SWAP3 SWAP2 POP POP JUMP JUMPDEST PUSH1 0x0 PUSH1 0x40 MLOAD SWAP1 POP DUP2 DUP2 ADD DUP2 DUP2 LT PUSH8 0xFFFFFFFFFFFFFFFF DUP3 GT OR ISZERO PUSH3 0x20F JUMPI PUSH1 0x0 DUP1 REVERT JUMPDEST DUP1 PUSH1 0x40 MSTORE POP SWAP2 SWAP1 POP JUMP JUMPDEST PUSH1 0x0 PUSH8 0xFFFFFFFFFFFFFFFF DUP3 GT ISZERO PUSH3 0x231 JUMPI PUSH1 0x0 DUP1 REVERT JUMPDEST PUSH1 0x1F NOT PUSH1 0x1F DUP4 ADD AND SWAP1 POP PUSH1 0x20 DUP2 ADD SWAP1 POP SWAP2 SWAP1 POP JUMP JUMPDEST PUSH1 0x0 JUMPDEST DUP4 DUP2 LT ISZERO PUSH3 0x266 JUMPI DUP1 DUP3 ADD MLOAD DUP2 DUP5 ADD MSTORE PUSH1 0x20 DUP2 ADD SWAP1 POP PUSH3 0x249 JUMP JUMPDEST DUP4 DUP2 GT ISZERO PUSH3 0x276 JUMPI PUSH1 0x0 DUP5 DUP5 ADD MSTORE JUMPDEST POP POP POP POP JUMP JUMPDEST PUSH2 0x6773 DUP1 PUSH3 0x28C PUSH1 0x0 CODECOPY PUSH1 0x0 RETURN STOP PUSH1 0x80 PUSH1 0x40 MSTORE PUSH1 0x4 CALLDATASIZE LT PUSH2 0x196 JUMPI PUSH1 0x0 CALLDATALOAD PUSH29 0x100000000000000000000000000000000000000000000000000000000 SWAP1 DIV PUSH4 0xFFFFFFFF AND DUP1 PUSH4 0x288CDC91 EQ PUSH2 0x19B JUMPI DUP1 PUSH4 0x297BB70B EQ PUSH2 0x1D8 JUMPI DUP1 PUSH4 0x2AC12622 EQ PUSH2 0x201 JUMPI DUP1 PUSH4 0x3683EF8E EQ PUSH2 0x23E JUMPI DUP1 PUSH4 0x38077164 EQ PUSH2 0x267 JUMPI DUP1 PUSH4 0x3C28D861 EQ PUSH2 0x2A4 JUMPI DUP1 PUSH4 0x3E228BAE EQ PUSH2 0x2E1 JUMPI DUP1 PUSH4 0x4AC14782 EQ PUSH2 0x31E JUMPI DUP1 PUSH4 0x4D0AE546 EQ PUSH2 0x347 JUMPI DUP1 PUSH4 0x4F9559B1 EQ PUSH2 0x370 JUMPI DUP1 PUSH4 0x50DDE190 EQ PUSH2 0x399 JUMPI DUP1 PUSH4 0x5C78D0C7 EQ PUSH2 0x3C2 JUMPI DUP1 PUSH4 0x63589905 EQ PUSH2 0x3EB JUMPI DUP1 PUSH4 0x642F2EAF EQ PUSH2 0x416 JUMPI DUP1 PUSH4 0x64A3BC15 EQ PUSH2 0x453 JUMPI DUP1 PUSH4 0x6F3627F8 EQ PUSH2 0x490 JUMPI DUP1 PUSH4 0x77FCCE68 EQ PUSH2 0x4CD JUMPI DUP1 PUSH4 0x7B8E3514 EQ PUSH2 0x4F6 JUMPI DUP1 PUSH4 0x7E1D9808 EQ PUSH2 0x533 JUMPI DUP1 PUSH4 0x82C174D0 EQ PUSH2 0x570 JUMPI DUP1 PUSH4 0x8DA5CB5B EQ PUSH2 0x5AD JUMPI DUP1 PUSH4 0x92C1421E EQ PUSH2 0x5D8 JUMPI DUP1 PUSH4 0xA3E20380 EQ PUSH2 0x615 JUMPI DUP1 PUSH4 0xB4BE83D5 EQ PUSH2 0x652 JUMPI DUP1 PUSH4 0xBFC8BFCE EQ PUSH2 0x68F JUMPI DUP1 PUSH4 0xC75E0A81 EQ PUSH2 0x6B8 JUMPI DUP1 PUSH4 0xD46B02C3 EQ PUSH2 0x6F5 JUMPI DUP1 PUSH4 0xDD1C7D18 EQ PUSH2 0x71E JUMPI DUP1 PUSH4 0xE5FA431B EQ PUSH2 0x75B JUMPI DUP1 PUSH4 0xEEA086BA EQ PUSH2 0x798 JUMPI DUP1 PUSH4 0xF2FDE38B EQ PUSH2 0x7C3 JUMPI DUP1 PUSH4 0xFFA1AD74 EQ PUSH2 0x7EC JUMPI JUMPDEST PUSH1 0x0 DUP1 REVERT JUMPDEST CALLVALUE DUP1 ISZERO PUSH2 0x1A7 JUMPI PUSH1 0x0 DUP1 REVERT JUMPDEST POP PUSH2 0x1C2 PUSH1 0x4 DUP1 CALLDATASIZE SUB PUSH2 0x1BD SWAP2 SWAP1 DUP2 ADD SWAP1 PUSH2 0x5BCE JUMP JUMPDEST PUSH2 0x817 JUMP JUMPDEST PUSH1 0x40 MLOAD PUSH2 0x1CF SWAP2 SWAP1 PUSH2 0x64CA JUMP JUMPDEST PUSH1 0x40 MLOAD DUP1 SWAP2 SUB SWAP1 RETURN JUMPDEST CALLVALUE DUP1 ISZERO PUSH2 0x1E4 JUMPI PUSH1 0x0 DUP1 REVERT JUMPDEST POP PUSH2 0x1FF PUSH1 0x4 DUP1 CALLDATASIZE SUB PUSH2 0x1FA SWAP2 SWAP1 DUP2 ADD SWAP1 PUSH2 0x5A8F JUMP JUMPDEST PUSH2 0x82F JUMP JUMPDEST STOP JUMPDEST CALLVALUE DUP1 ISZERO PUSH2 0x20D JUMPI PUSH1 0x0 DUP1 REVERT JUMPDEST POP PUSH2 0x228 PUSH1 0x4 DUP1 CALLDATASIZE SUB PUSH2 0x223 SWAP2 SWAP1 DUP2 ADD SWAP1 PUSH2 0x5BCE JUMP JUMPDEST PUSH2 0x8A2 JUMP JUMPDEST PUSH1 0x40 MLOAD PUSH2 0x235 SWAP2 SWAP1 PUSH2 0x62A8 JUMP JUMPDEST PUSH1 0x40 MLOAD DUP1 SWAP2 SUB SWAP1 RETURN JUMPDEST CALLVALUE DUP1 ISZERO PUSH2 0x24A JUMPI PUSH1 0x0 DUP1 REVERT JUMPDEST POP PUSH2 0x265 PUSH1 0x4 DUP1 CALLDATASIZE SUB PUSH2 0x260 SWAP2 SWAP1 DUP2 ADD SWAP1 PUSH2 0x5C33 JUMP JUMPDEST PUSH2 0x8C2 JUMP JUMPDEST STOP JUMPDEST CALLVALUE DUP1 ISZERO PUSH2 0x273 JUMPI PUSH1 0x0 DUP1 REVERT JUMPDEST POP PUSH2 0x28E PUSH1 0x4 DUP1 CALLDATASIZE SUB PUSH2 0x289 SWAP2 SWAP1 DUP2 ADD SWAP1 PUSH2 0x5EE6 JUMP JUMPDEST PUSH2 0x9F0 JUMP JUMPDEST PUSH1 0x40 MLOAD PUSH2 0x29B SWAP2 SWAP1 PUSH2 0x641B JUMP JUMPDEST PUSH1 0x40 MLOAD DUP1 SWAP2 SUB SWAP1 RETURN JUMPDEST CALLVALUE DUP1 ISZERO PUSH2 0x2B0 JUMPI PUSH1 0x0 DUP1 REVERT JUMPDEST POP PUSH2 0x2CB PUSH1 0x4 DUP1 CALLDATASIZE SUB PUSH2 0x2C6 SWAP2 SWAP1 DUP2 ADD SWAP1 PUSH2 0x5CE0 JUMP JUMPDEST PUSH2 0xA23 JUMP JUMPDEST PUSH1 0x40 MLOAD PUSH2 0x2D8 SWAP2 SWAP1 PUSH2 0x6493 JUMP JUMPDEST PUSH1 0x40 MLOAD DUP1 SWAP2 SUB SWAP1 RETURN JUMPDEST CALLVALUE DUP1 ISZERO PUSH2 0x2ED JUMPI PUSH1 0x0 DUP1 REVERT JUMPDEST POP PUSH2 0x308 PUSH1 0x4 DUP1 CALLDATASIZE SUB PUSH2 0x303 SWAP2 SWAP1 DUP2 ADD SWAP1 PUSH2 0x5DA3 JUMP JUMPDEST PUSH2 0xB23 JUMP JUMPDEST PUSH1 0x40 MLOAD PUSH2 0x315 SWAP2 SWAP1 PUSH2 0x6478 JUMP JUMPDEST PUSH1 0x40 MLOAD DUP1 SWAP2 SUB SWAP1 RETURN JUMPDEST CALLVALUE DUP1 ISZERO PUSH2 0x32A JUMPI PUSH1 0x0 DUP1 REVERT JUMPDEST POP PUSH2 0x345 PUSH1 0x4 DUP1 CALLDATASIZE SUB PUSH2 0x340 SWAP2 SWAP1 DUP2 ADD SWAP1 PUSH2 0x5A4E JUMP JUMPDEST PUSH2 0xD64 JUMP JUMPDEST STOP JUMPDEST CALLVALUE DUP1 ISZERO PUSH2 0x353 JUMPI PUSH1 0x0 DUP1 REVERT JUMPDEST POP PUSH2 0x36E PUSH1 0x4 DUP1 CALLDATASIZE SUB PUSH2 0x369 SWAP2 SWAP1 DUP2 ADD SWAP1 PUSH2 0x5A8F JUMP JUMPDEST PUSH2 0xDA4 JUMP JUMPDEST STOP JUMPDEST CALLVALUE DUP1 ISZERO PUSH2 0x37C JUMPI PUSH1 0x0 DUP1 REVERT JUMPDEST POP PUSH2 0x397 PUSH1 0x4 DUP1 CALLDATASIZE SUB PUSH2 0x392 SWAP2 SWAP1 DUP2 ADD SWAP1 PUSH2 0x5E22 JUMP JUMPDEST PUSH2 0xE17 JUMP JUMPDEST STOP JUMPDEST CALLVALUE DUP1 ISZERO PUSH2 0x3A5 JUMPI PUSH1 0x0 DUP1 REVERT JUMPDEST POP PUSH2 0x3C0 PUSH1 0x4 DUP1 CALLDATASIZE SUB PUSH2 0x3BB SWAP2 SWAP1 DUP2 ADD SWAP1 PUSH2 0x5A8F JUMP JUMPDEST PUSH2 0xF83 JUMP JUMPDEST STOP JUMPDEST CALLVALUE DUP1 ISZERO PUSH2 0x3CE JUMPI PUSH1 0x0 DUP1 REVERT JUMPDEST POP PUSH2 0x3E9 PUSH1 0x4 DUP1 CALLDATASIZE SUB PUSH2 0x3E4 SWAP2 SWAP1 DUP2 ADD SWAP1 PUSH2 0x5F38 JUMP JUMPDEST PUSH2 0xFF6 JUMP JUMPDEST STOP JUMPDEST CALLVALUE DUP1 ISZERO PUSH2 0x3F7 JUMPI PUSH1 0x0 DUP1 REVERT JUMPDEST POP PUSH2 0x400 PUSH2 0x1367 JUMP JUMPDEST PUSH1 0x40 MLOAD PUSH2 0x40D SWAP2 SWAP1 PUSH2 0x6376 JUMP JUMPDEST PUSH1 0x40 MLOAD DUP1 SWAP2 SUB SWAP1 RETURN JUMPDEST CALLVALUE DUP1 ISZERO PUSH2 0x422 JUMPI PUSH1 0x0 DUP1 REVERT JUMPDEST POP PUSH2 0x43D PUSH1 0x4 DUP1 CALLDATASIZE SUB PUSH2 0x438 SWAP2 SWAP1 DUP2 ADD SWAP1 PUSH2 0x5BCE JUMP JUMPDEST PUSH2 0x1409 JUMP JUMPDEST PUSH1 0x40 MLOAD PUSH2 0x44A SWAP2 SWAP1 PUSH2 0x62A8 JUMP JUMPDEST PUSH1 0x40 MLOAD DUP1 SWAP2 SUB SWAP1 RETURN JUMPDEST CALLVALUE DUP1 ISZERO PUSH2 0x45F JUMPI PUSH1 0x0 DUP1 REVERT JUMPDEST POP PUSH2 0x47A PUSH1 0x4 DUP1 CALLDATASIZE SUB PUSH2 0x475 SWAP2 SWAP1 DUP2 ADD SWAP1 PUSH2 0x5DA3 JUMP JUMPDEST PUSH2 0x1429 JUMP JUMPDEST PUSH1 0x40 MLOAD PUSH2 0x487 SWAP2 SWAP1 PUSH2 0x6478 JUMP JUMPDEST PUSH1 0x40 MLOAD DUP1 SWAP2 SUB SWAP1 RETURN JUMPDEST CALLVALUE DUP1 ISZERO PUSH2 0x49C JUMPI PUSH1 0x0 DUP1 REVERT JUMPDEST POP PUSH2 0x4B7 PUSH1 0x4 DUP1 CALLDATASIZE SUB PUSH2 0x4B2 SWAP2 SWAP1 DUP2 ADD SWAP1 PUSH2 0x59AD JUMP JUMPDEST PUSH2 0x14C9 JUMP JUMPDEST PUSH1 0x40 MLOAD PUSH2 0x4C4 SWAP2 SWAP1 PUSH2 0x64CA JUMP JUMPDEST PUSH1 0x40 MLOAD DUP1 SWAP2 SUB SWAP1 RETURN JUMPDEST CALLVALUE DUP1 ISZERO PUSH2 0x4D9 JUMPI PUSH1 0x0 DUP1 REVERT JUMPDEST POP PUSH2 0x4F4 PUSH1 0x4 DUP1 CALLDATASIZE SUB PUSH2 0x4EF SWAP2 SWAP1 DUP2 ADD SWAP1 PUSH2 0x5A12 JUMP JUMPDEST PUSH2 0x14E1 JUMP JUMPDEST STOP JUMPDEST CALLVALUE DUP1 ISZERO PUSH2 0x502 JUMPI PUSH1 0x0 DUP1 REVERT JUMPDEST POP PUSH2 0x51D PUSH1 0x4 DUP1 CALLDATASIZE SUB PUSH2 0x518 SWAP2 SWAP1 DUP2 ADD SWAP1 PUSH2 0x59D6 JUMP JUMPDEST PUSH2 0x1586 JUMP JUMPDEST PUSH1 0x40 MLOAD PUSH2 0x52A SWAP2 SWAP1 PUSH2 0x62A8 JUMP JUMPDEST PUSH1 0x40 MLOAD DUP1 SWAP2 SUB SWAP1 RETURN JUMPDEST CALLVALUE DUP1 ISZERO PUSH2 0x53F JUMPI PUSH1 0x0 DUP1 REVERT JUMPDEST POP PUSH2 0x55A PUSH1 0x4 DUP1 CALLDATASIZE SUB PUSH2 0x555 SWAP2 SWAP1 DUP2 ADD SWAP1 PUSH2 0x5B26 JUMP JUMPDEST PUSH2 0x15B5 JUMP JUMPDEST PUSH1 0x40 MLOAD PUSH2 0x567 SWAP2 SWAP1 PUSH2 0x6478 JUMP JUMPDEST PUSH1 0x40 MLOAD DUP1 SWAP2 SUB SWAP1 RETURN JUMPDEST CALLVALUE DUP1 ISZERO PUSH2 0x57C JUMPI PUSH1 0x0 DUP1 REVERT JUMPDEST POP PUSH2 0x597 PUSH1 0x4 DUP1 CALLDATASIZE SUB PUSH2 0x592 SWAP2 SWAP1 DUP2 ADD SWAP1 PUSH2 0x5BF7 JUMP JUMPDEST PUSH2 0x1713 JUMP JUMPDEST PUSH1 0x40 MLOAD PUSH2 0x5A4 SWAP2 SWAP1 PUSH2 0x62A8 JUMP JUMPDEST PUSH1 0x40 MLOAD DUP1 SWAP2 SUB SWAP1 RETURN JUMPDEST CALLVALUE DUP1 ISZERO PUSH2 0x5B9 JUMPI PUSH1 0x0 DUP1 REVERT JUMPDEST POP PUSH2 0x5C2 PUSH2 0x1742 JUMP JUMPDEST PUSH1 0x40 MLOAD PUSH2 0x5CF SWAP2 SWAP1 PUSH2 0x6210 JUMP JUMPDEST PUSH1 0x40 MLOAD DUP1 SWAP2 SUB SWAP1 RETURN JUMPDEST CALLVALUE DUP1 ISZERO PUSH2 0x5E4 JUMPI PUSH1 0x0 DUP1 REVERT JUMPDEST POP PUSH2 0x5FF PUSH1 0x4 DUP1 CALLDATASIZE SUB PUSH2 0x5FA SWAP2 SWAP1 DUP2 ADD SWAP1 PUSH2 0x5EE6 JUMP JUMPDEST PUSH2 0x1767 JUMP JUMPDEST PUSH1 0x40 MLOAD PUSH2 0x60C SWAP2 SWAP1 PUSH2 0x6210 JUMP JUMPDEST PUSH1 0x40 MLOAD DUP1 SWAP2 SUB SWAP1 RETURN JUMPDEST CALLVALUE DUP1 ISZERO PUSH2 0x621 JUMPI PUSH1 0x0 DUP1 REVERT JUMPDEST POP PUSH2 0x63C PUSH1 0x4 DUP1 CALLDATASIZE SUB PUSH2 0x637 SWAP2 SWAP1 DUP2 ADD SWAP1 PUSH2 0x5B26 JUMP JUMPDEST PUSH2 0x17AF JUMP JUMPDEST PUSH1 0x40 MLOAD PUSH2 0x649 SWAP2 SWAP1 PUSH2 0x6478 JUMP JUMPDEST PUSH1 0x40 MLOAD DUP1 SWAP2 SUB SWAP1 RETURN JUMPDEST CALLVALUE DUP1 ISZERO PUSH2 0x65E JUMPI PUSH1 0x0 DUP1 REVERT JUMPDEST POP PUSH2 0x679 PUSH1 0x4 DUP1 CALLDATASIZE SUB PUSH2 0x674 SWAP2 SWAP1 DUP2 ADD SWAP1 PUSH2 0x5DA3 JUMP JUMPDEST PUSH2 0x1953 JUMP JUMPDEST PUSH1 0x40 MLOAD PUSH2 0x686 SWAP2 SWAP1 PUSH2 0x6478 JUMP JUMPDEST PUSH1 0x40 MLOAD DUP1 SWAP2 SUB SWAP1 RETURN JUMPDEST CALLVALUE DUP1 ISZERO PUSH2 0x69B JUMPI PUSH1 0x0 DUP1 REVERT JUMPDEST POP PUSH2 0x6B6 PUSH1 0x4 DUP1 CALLDATASIZE SUB PUSH2 0x6B1 SWAP2 SWAP1 DUP2 ADD SWAP1 PUSH2 0x5E4B JUMP JUMPDEST PUSH2 0x19E5 JUMP JUMPDEST STOP JUMPDEST CALLVALUE DUP1 ISZERO PUSH2 0x6C4 JUMPI PUSH1 0x0 DUP1 REVERT JUMPDEST POP PUSH2 0x6DF PUSH1 0x4 DUP1 CALLDATASIZE SUB PUSH2 0x6DA SWAP2 SWAP1 DUP2 ADD SWAP1 PUSH2 0x5C9F JUMP JUMPDEST PUSH2 0x1ED1 JUMP JUMPDEST PUSH1 0x40 MLOAD PUSH2 0x6EC SWAP2 SWAP1 PUSH2 0x64AF JUMP JUMPDEST PUSH1 0x40 MLOAD DUP1 SWAP2 SUB SWAP1 RETURN JUMPDEST CALLVALUE DUP1 ISZERO PUSH2 0x701 JUMPI PUSH1 0x0 DUP1 REVERT JUMPDEST POP PUSH2 0x71C PUSH1 0x4 DUP1 CALLDATASIZE SUB PUSH2 0x717 SWAP2 SWAP1 DUP2 ADD SWAP1 PUSH2 0x5C9F JUMP JUMPDEST PUSH2 0x20E2 JUMP JUMPDEST STOP JUMPDEST CALLVALUE DUP1 ISZERO PUSH2 0x72A JUMPI PUSH1 0x0 DUP1 REVERT JUMPDEST POP PUSH2 0x745 PUSH1 0x4 DUP1 CALLDATASIZE SUB PUSH2 0x740 SWAP2 SWAP1 DUP2 ADD SWAP1 PUSH2 0x5B26 JUMP JUMPDEST PUSH2 0x2111 JUMP JUMPDEST PUSH1 0x40 MLOAD PUSH2 0x752 SWAP2 SWAP1 PUSH2 0x6478 JUMP JUMPDEST PUSH1 0x40 MLOAD DUP1 SWAP2 SUB SWAP1 RETURN JUMPDEST CALLVALUE DUP1 ISZERO PUSH2 0x767 JUMPI PUSH1 0x0 DUP1 REVERT JUMPDEST POP PUSH2 0x782 PUSH1 0x4 DUP1 CALLDATASIZE SUB PUSH2 0x77D SWAP2 SWAP1 DUP2 ADD SWAP1 PUSH2 0x5B26 JUMP JUMPDEST PUSH2 0x226F JUMP JUMPDEST PUSH1 0x40 MLOAD PUSH2 0x78F SWAP2 SWAP1 PUSH2 0x6478 JUMP JUMPDEST PUSH1 0x40 MLOAD DUP1 SWAP2 SUB SWAP1 RETURN JUMPDEST CALLVALUE DUP1 ISZERO PUSH2 0x7A4 JUMPI PUSH1 0x0 DUP1 REVERT JUMPDEST POP PUSH2 0x7AD PUSH2 0x2413 JUMP JUMPDEST PUSH1 0x40 MLOAD PUSH2 0x7BA SWAP2 SWAP1 PUSH2 0x6210 JUMP JUMPDEST PUSH1 0x40 MLOAD DUP1 SWAP2 SUB SWAP1 RETURN JUMPDEST CALLVALUE DUP1 ISZERO PUSH2 0x7CF JUMPI PUSH1 0x0 DUP1 REVERT JUMPDEST POP PUSH2 0x7EA PUSH1 0x4 DUP1 CALLDATASIZE SUB PUSH2 0x7E5 SWAP2 SWAP1 DUP2 ADD SWAP1 PUSH2 0x59AD JUMP JUMPDEST PUSH2 0x2439 JUMP JUMPDEST STOP JUMPDEST CALLVALUE DUP1 ISZERO PUSH2 0x7F8 JUMPI PUSH1 0x0 DUP1 REVERT JUMPDEST POP PUSH2 0x801 PUSH2 0x2544 JUMP JUMPDEST PUSH1 0x40 MLOAD PUSH2 0x80E SWAP2 SWAP1 PUSH2 0x6436 JUMP JUMPDEST PUSH1 0x40 MLOAD DUP1 SWAP2 SUB SWAP1 RETURN JUMPDEST PUSH1 0x1 PUSH1 0x20 MSTORE DUP1 PUSH1 0x0 MSTORE PUSH1 0x40 PUSH1 0x0 KECCAK256 PUSH1 0x0 SWAP2 POP SWAP1 POP SLOAD DUP2 JUMP JUMPDEST PUSH1 0x0 DUP1 SWAP1 POP JUMPDEST DUP4 MLOAD DUP2 LT ISZERO PUSH2 0x89C JUMPI PUSH2 0x88E DUP5 DUP3 DUP2 MLOAD DUP2 LT ISZERO ISZERO PUSH2 0x84F JUMPI INVALID JUMPDEST SWAP1 PUSH1 0x20 ADD SWAP1 PUSH1 0x20 MUL ADD MLOAD DUP5 DUP4 DUP2 MLOAD DUP2 LT ISZERO ISZERO PUSH2 0x867 JUMPI INVALID JUMPDEST SWAP1 PUSH1 0x20 ADD SWAP1 PUSH1 0x20 MUL ADD MLOAD DUP5 DUP5 DUP2 MLOAD DUP2 LT ISZERO ISZERO PUSH2 0x87F JUMPI INVALID JUMPDEST SWAP1 PUSH1 0x20 ADD SWAP1 PUSH1 0x20 MUL ADD MLOAD PUSH2 0x1953 JUMP JUMPDEST POP DUP1 DUP1 PUSH1 0x1 ADD SWAP2 POP POP PUSH2 0x835 JUMP JUMPDEST POP POP POP POP JUMP JUMPDEST PUSH1 0x2 PUSH1 0x20 MSTORE DUP1 PUSH1 0x0 MSTORE PUSH1 0x40 PUSH1 0x0 KECCAK256 PUSH1 0x0 SWAP2 POP SLOAD SWAP1 PUSH2 0x100 EXP SWAP1 DIV PUSH1 0xFF AND DUP2 JUMP JUMPDEST PUSH2 0x8FF DUP5 DUP5 DUP5 DUP5 DUP1 DUP1 PUSH1 0x1F ADD PUSH1 0x20 DUP1 SWAP2 DIV MUL PUSH1 0x20 ADD PUSH1 0x40 MLOAD SWAP1 DUP2 ADD PUSH1 0x40 MSTORE DUP1 SWAP4 SWAP3 SWAP2 SWAP1 DUP2 DUP2 MSTORE PUSH1 0x20 ADD DUP4 DUP4 DUP1 DUP3 DUP5 CALLDATACOPY DUP3 ADD SWAP2 POP POP POP POP POP POP PUSH2 0x257D JUMP JUMPDEST PUSH1 0x40 DUP1 MLOAD SWAP1 DUP2 ADD PUSH1 0x40 MSTORE DUP1 PUSH1 0x11 DUP2 MSTORE PUSH1 0x20 ADD PUSH32 0x494E56414C49445F5349474E4154555245000000000000000000000000000000 DUP2 MSTORE POP SWAP1 ISZERO ISZERO PUSH2 0x978 JUMPI PUSH1 0x40 MLOAD PUSH32 0x8C379A000000000000000000000000000000000000000000000000000000000 DUP2 MSTORE PUSH1 0x4 ADD PUSH2 0x96F SWAP2 SWAP1 PUSH2 0x6436 JUMP JUMPDEST PUSH1 0x40 MLOAD DUP1 SWAP2 SUB SWAP1 REVERT JUMPDEST POP PUSH1 0x1 PUSH1 0x5 PUSH1 0x0 DUP7 PUSH1 0x0 NOT AND PUSH1 0x0 NOT AND DUP2 MSTORE PUSH1 0x20 ADD SWAP1 DUP2 MSTORE PUSH1 0x20 ADD PUSH1 0x0 KECCAK256 PUSH1 0x0 DUP6 PUSH20 0xFFFFFFFFFFFFFFFFFFFFFFFFFFFFFFFFFFFFFFFF AND PUSH20 0xFFFFFFFFFFFFFFFFFFFFFFFFFFFFFFFFFFFFFFFF AND DUP2 MSTORE PUSH1 0x20 ADD SWAP1 DUP2 MSTORE PUSH1 0x20 ADD PUSH1 0x0 KECCAK256 PUSH1 0x0 PUSH2 0x100 EXP DUP2 SLOAD DUP2 PUSH1 0xFF MUL NOT AND SWAP1 DUP4 ISZERO ISZERO MUL OR SWAP1 SSTORE POP POP POP POP POP JUMP JUMPDEST PUSH1 0x9 PUSH1 0x20 MSTORE DUP1 PUSH1 0x0 MSTORE PUSH1 0x40 PUSH1 0x0 KECCAK256 PUSH1 0x0 SWAP2 POP SLOAD SWAP1 PUSH2 0x100 EXP SWAP1 DIV PUSH20 0xFFFFFFFFFFFFFFFFFFFFFFFFFFFFFFFFFFFFFFFF AND DUP2 JUMP JUMPDEST PUSH2 0xA2B PUSH2 0x5373 JUMP JUMPDEST PUSH2 0xA33 PUSH2 0x53A2 JUMP JUMPDEST PUSH2 0xA3B PUSH2 0x53A2 JUMP JUMPDEST PUSH1 0x0 DUP8 PUSH2 0x160 ADD MLOAD DUP8 PUSH2 0x140 ADD DUP2 SWAP1 MSTORE POP DUP8 PUSH2 0x140 ADD MLOAD DUP8 PUSH2 0x160 ADD DUP2 SWAP1 MSTORE POP PUSH2 0xA64 DUP9 PUSH2 0x1ED1 JUMP JUMPDEST SWAP3 POP PUSH2 0xA6F DUP8 PUSH2 0x1ED1 JUMP JUMPDEST SWAP2 POP PUSH2 0xA79 PUSH2 0x33A9 JUMP JUMPDEST SWAP1 POP PUSH2 0xA85 DUP9 DUP9 PUSH2 0x3435 JUMP JUMPDEST PUSH2 0xA99 DUP9 DUP9 DUP6 PUSH1 0x40 ADD MLOAD DUP6 PUSH1 0x40 ADD MLOAD PUSH2 0x34D9 JUMP JUMPDEST SWAP4 POP PUSH2 0xAB9 DUP9 DUP5 DUP4 DUP8 PUSH1 0x0 ADD MLOAD PUSH1 0x20 ADD MLOAD DUP9 PUSH1 0x0 ADD MLOAD PUSH1 0x20 ADD MLOAD DUP12 PUSH2 0x35B6 JUMP JUMPDEST PUSH2 0xAD7 DUP8 DUP4 DUP4 DUP8 PUSH1 0x20 ADD MLOAD PUSH1 0x20 ADD MLOAD DUP9 PUSH1 0x20 ADD MLOAD PUSH1 0x20 ADD MLOAD DUP11 PUSH2 0x35B6 JUMP JUMPDEST PUSH2 0xAE3 DUP9 DUP9 DUP4 DUP8 PUSH2 0x39C9 JUMP JUMPDEST PUSH2 0xAFC DUP9 DUP3 DUP6 PUSH1 0x20 ADD MLOAD DUP7 PUSH1 0x40 ADD MLOAD DUP9 PUSH1 0x0 ADD MLOAD PUSH2 0x3DFF JUMP JUMPDEST PUSH2 0xB15 DUP8 DUP3 DUP5 PUSH1 0x20 ADD MLOAD DUP6 PUSH1 0x40 ADD MLOAD DUP9 PUSH1 0x20 ADD MLOAD PUSH2 0x3DFF JUMP JUMPDEST DUP4 SWAP4 POP POP POP POP SWAP5 SWAP4 POP POP POP POP JUMP JUMPDEST PUSH2 0xB2B PUSH2 0x53CA JUMP JUMPDEST PUSH1 0x0 PUSH4 0xB4BE83D5 PUSH29 0x100000000000000000000000000000000000000000000000000000000 MUL SWAP1 POP PUSH1 0x40 MLOAD DUP2 DUP2 MSTORE PUSH1 0x4 DUP2 ADD DUP1 PUSH1 0x60 DUP2 ADD DUP2 DUP2 DUP1 DUP12 PUSH1 0x0 DUP1 DUP8 DUP5 SUB DUP7 MSTORE PUSH1 0x20 DUP7 ADD SWAP6 POP DUP3 MLOAD DUP5 MSTORE PUSH1 0x20 DUP4 ADD MLOAD PUSH1 0x20 DUP6 ADD MSTORE PUSH1 0x40 DUP4 ADD MLOAD PUSH1 0x40 DUP6 ADD MSTORE PUSH1 0x60 DUP4 ADD MLOAD PUSH1 0x60 DUP6 ADD MSTORE PUSH1 0x80 DUP4 ADD MLOAD PUSH1 0x80 DUP6 ADD MSTORE PUSH1 0xA0 DUP4 ADD MLOAD PUSH1 0xA0 DUP6 ADD MSTORE PUSH1 0xC0 DUP4 ADD MLOAD PUSH1 0xC0 DUP6 ADD MSTORE PUSH1 0xE0 DUP4 ADD MLOAD PUSH1 0xE0 DUP6 ADD MSTORE PUSH2 0x100 DUP4 ADD MLOAD PUSH2 0x100 DUP6 ADD MSTORE PUSH2 0x120 DUP4 ADD MLOAD PUSH2 0x120 DUP6 ADD MSTORE PUSH2 0x140 DUP4 ADD MLOAD PUSH2 0x140 DUP6 ADD MSTORE PUSH2 0x160 DUP4 ADD MLOAD PUSH2 0x160 DUP6 ADD MSTORE PUSH2 0x180 DUP5 ADD SWAP4 POP PUSH2 0x180 DUP4 ADD SWAP3 POP DUP5 DUP5 SUB PUSH1 0x20 PUSH1 0xA MUL DUP7 ADD MSTORE DUP3 MLOAD SWAP2 POP PUSH1 0x20 DUP4 ADD SWAP3 POP PUSH1 0x20 PUSH1 0x1F DUP4 ADD DIV SWAP1 POP DUP2 DUP5 MSTORE PUSH1 0x20 DUP5 ADD SWAP4 POP PUSH1 0x0 JUMPDEST DUP2 DUP2 LT ISZERO PUSH2 0xC49 JUMPI DUP4 MLOAD DUP6 MSTORE PUSH1 0x20 DUP6 ADD SWAP5 POP PUSH1 0x20 DUP5 ADD SWAP4 POP PUSH1 0x1 DUP2 ADD SWAP1 POP PUSH2 0xC26 JUMP JUMPDEST POP DUP5 DUP5 SUB PUSH1 0x20 PUSH1 0xB MUL DUP7 ADD MSTORE DUP3 MLOAD SWAP2 POP PUSH1 0x20 DUP4 ADD SWAP3 POP PUSH1 0x20 PUSH1 0x1F DUP4 ADD DIV SWAP1 POP DUP2 DUP5 MSTORE PUSH1 0x20 DUP5 ADD SWAP4 POP PUSH1 0x0 JUMPDEST DUP2 DUP2 LT ISZERO PUSH2 0xC97 JUMPI DUP4 MLOAD DUP6 MSTORE PUSH1 0x20 DUP6 ADD SWAP5 POP PUSH1 0x20 DUP5 ADD SWAP4 POP PUSH1 0x1 DUP2 ADD SWAP1 POP PUSH2 0xC74 JUMP JUMPDEST POP DUP14 DUP7 MSTORE PUSH1 0x20 DUP7 ADD SWAP6 POP DUP8 DUP5 SUB DUP7 MSTORE DUP13 SWAP3 POP DUP3 MLOAD SWAP2 POP PUSH1 0x20 DUP4 ADD SWAP3 POP PUSH1 0x20 PUSH1 0x1F DUP4 ADD DIV SWAP1 POP DUP2 DUP5 MSTORE PUSH1 0x20 DUP5 ADD SWAP4 POP PUSH1 0x0 JUMPDEST DUP2 DUP2 LT ISZERO PUSH2 0xCEB JUMPI DUP4 MLOAD DUP6 MSTORE PUSH1 0x20 DUP6 ADD SWAP5 POP PUSH1 0x20 DUP5 ADD SWAP4 POP PUSH1 0x1 DUP2 ADD SWAP1 POP PUSH2 0xCC8 JUMP JUMPDEST POP PUSH1 0x80 DUP11 DUP12 DUP7 SUB DUP13 ADDRESS GAS DELEGATECALL DUP1 PUSH1 0x0 DUP2 EQ PUSH2 0xD0C JUMPI PUSH1 0x1 DUP2 EQ PUSH2 0xD2A JUMPI PUSH2 0xD4D JUMP JUMPDEST PUSH1 0x0 DUP15 MSTORE PUSH1 0x0 PUSH1 0x20 DUP16 ADD MSTORE PUSH1 0x0 PUSH1 0x40 DUP16 ADD MSTORE PUSH1 0x0 PUSH1 0x60 DUP16 ADD MSTORE PUSH2 0xD4D JUMP JUMPDEST DUP12 MLOAD DUP15 MSTORE PUSH1 0x20 DUP13 ADD MLOAD PUSH1 0x20 DUP16 ADD MSTORE PUSH1 0x40 DUP13 ADD MLOAD PUSH1 0x40 DUP16 ADD MSTORE PUSH1 0x60 DUP13 ADD MLOAD PUSH1 0x60 DUP16 ADD MSTORE JUMPDEST POP POP POP POP POP POP POP POP POP POP POP POP DUP2 SWAP2 POP POP SWAP4 SWAP3 POP POP POP JUMP JUMPDEST PUSH1 0x0 DUP1 SWAP1 POP JUMPDEST DUP2 MLOAD DUP2 LT ISZERO PUSH2 0xDA0 JUMPI PUSH2 0xD93 DUP3 DUP3 DUP2 MLOAD DUP2 LT ISZERO ISZERO PUSH2 0xD84 JUMPI INVALID JUMPDEST SWAP1 PUSH1 0x20 ADD SWAP1 PUSH1 0x20 MUL ADD MLOAD PUSH2 0x20E2 JUMP JUMPDEST DUP1 DUP1 PUSH1 0x1 ADD SWAP2 POP POP PUSH2 0xD6A JUMP JUMPDEST POP POP JUMP JUMPDEST PUSH1 0x0 DUP1 SWAP1 POP JUMPDEST DUP4 MLOAD DUP2 LT ISZERO PUSH2 0xE11 JUMPI PUSH2 0xE03 DUP5 DUP3 DUP2 MLOAD DUP2 LT ISZERO ISZERO PUSH2 0xDC4 JUMPI INVALID JUMPDEST SWAP1 PUSH1 0x20 ADD SWAP1 PUSH1 0x20 MUL ADD MLOAD DUP5 DUP4 DUP2 MLOAD DUP2 LT ISZERO ISZERO PUSH2 0xDDC JUMPI INVALID JUMPDEST SWAP1 PUSH1 0x20 ADD SWAP1 PUSH1 0x20 MUL ADD MLOAD DUP5 DUP5 DUP2 MLOAD DUP2 LT ISZERO ISZERO PUSH2 0xDF4 JUMPI INVALID JUMPDEST SWAP1 PUSH1 0x20 ADD SWAP1 PUSH1 0x20 MUL ADD MLOAD PUSH2 0x1429 JUMP JUMPDEST POP DUP1 DUP1 PUSH1 0x1 ADD SWAP2 POP POP PUSH2 0xDAA JUMP JUMPDEST POP POP POP POP JUMP JUMPDEST PUSH1 0x0 DUP1 PUSH1 0x0 PUSH2 0xE24 PUSH2 0x33A9 JUMP JUMPDEST SWAP3 POP PUSH1 0x1 DUP5 ADD SWAP2 POP PUSH1 0x3 PUSH1 0x0 DUP5 PUSH20 0xFFFFFFFFFFFFFFFFFFFFFFFFFFFFFFFFFFFFFFFF AND PUSH20 0xFFFFFFFFFFFFFFFFFFFFFFFFFFFFFFFFFFFFFFFF AND DUP2 MSTORE PUSH1 0x20 ADD SWAP1 DUP2 MSTORE PUSH1 0x20 ADD PUSH1 0x0 KECCAK256 SLOAD SWAP1 POP DUP1 DUP3 GT PUSH1 0x40 DUP1 MLOAD SWAP1 DUP2 ADD PUSH1 0x40 MSTORE DUP1 PUSH1 0x17 DUP2 MSTORE PUSH1 0x20 ADD PUSH32 0x494E56414C49445F4E45575F4D414B45525F45504F4348000000000000000000 DUP2 MSTORE POP SWAP1 ISZERO ISZERO PUSH2 0xEEA JUMPI PUSH1 0x40 MLOAD PUSH32 0x8C379A000000000000000000000000000000000000000000000000000000000 DUP2 MSTORE PUSH1 0x4 ADD PUSH2 0xEE1 SWAP2 SWAP1 PUSH2 0x6436 JUMP JUMPDEST PUSH1 0x40 MLOAD DUP1 SWAP2 SUB SWAP1 REVERT JUMPDEST POP DUP2 PUSH1 0x3 PUSH1 0x0 DUP6 PUSH20 0xFFFFFFFFFFFFFFFFFFFFFFFFFFFFFFFFFFFFFFFF AND PUSH20 0xFFFFFFFFFFFFFFFFFFFFFFFFFFFFFFFFFFFFFFFF AND DUP2 MSTORE PUSH1 0x20 ADD SWAP1 DUP2 MSTORE PUSH1 0x20 ADD PUSH1 0x0 KECCAK256 DUP2 SWAP1 SSTORE POP DUP3 PUSH20 0xFFFFFFFFFFFFFFFFFFFFFFFFFFFFFFFFFFFFFFFF AND PUSH32 0x666A5047451D0C744E58819166260F8048FE2786E33B3C1115AF94887A451CA7 DUP4 PUSH1 0x40 MLOAD PUSH2 0xF75 SWAP2 SWAP1 PUSH2 0x64CA JUMP JUMPDEST PUSH1 0x40 MLOAD DUP1 SWAP2 SUB SWAP1 LOG2 POP POP POP POP JUMP JUMPDEST PUSH1 0x0 DUP1 SWAP1 POP JUMPDEST DUP4 MLOAD DUP2 LT ISZERO PUSH2 0xFF0 JUMPI PUSH2 0xFE2 DUP5 DUP3 DUP2 MLOAD DUP2 LT ISZERO ISZERO PUSH2 0xFA3 JUMPI INVALID JUMPDEST SWAP1 PUSH1 0x20 ADD SWAP1 PUSH1 0x20 MUL ADD MLOAD DUP5 DUP4 DUP2 MLOAD DUP2 LT ISZERO ISZERO PUSH2 0xFBB JUMPI INVALID JUMPDEST SWAP1 PUSH1 0x20 ADD SWAP1 PUSH1 0x20 MUL ADD MLOAD DUP5 DUP5 DUP2 MLOAD DUP2 LT ISZERO ISZERO PUSH2 0xFD3 JUMPI INVALID JUMPDEST SWAP1 PUSH1 0x20 ADD SWAP1 PUSH1 0x20 MUL ADD MLOAD PUSH2 0xB23 JUMP JUMPDEST POP DUP1 DUP1 PUSH1 0x1 ADD SWAP2 POP POP PUSH2 0xF89 JUMP JUMPDEST POP POP POP POP JUMP JUMPDEST PUSH1 0x0 DUP1 PUSH1 0x0 DUP1 PUSH1 0x0 SWAP1 SLOAD SWAP1 PUSH2 0x100 EXP SWAP1 DIV PUSH20 0xFFFFFFFFFFFFFFFFFFFFFFFFFFFFFFFFFFFFFFFF AND PUSH20 0xFFFFFFFFFFFFFFFFFFFFFFFFFFFFFFFFFFFFFFFF AND CALLER PUSH20 0xFFFFFFFFFFFFFFFFFFFFFFFFFFFFFFFFFFFFFFFF AND EQ ISZERO ISZERO PUSH2 0x108C JUMPI PUSH1 0x40 MLOAD PUSH32 0x8C379A000000000000000000000000000000000000000000000000000000000 DUP2 MSTORE PUSH1 0x4 ADD PUSH2 0x1083 SWAP1 PUSH2 0x6458 JUMP JUMPDEST PUSH1 0x40 MLOAD DUP1 SWAP2 SUB SWAP1 REVERT JUMPDEST PUSH1 0x9 PUSH1 0x0 DUP8 PUSH1 0xFF AND PUSH1 0xFF AND DUP2 MSTORE PUSH1 0x20 ADD SWAP1 DUP2 MSTORE PUSH1 0x20 ADD PUSH1 0x0 KECCAK256 PUSH1 0x0 SWAP1 SLOAD SWAP1 PUSH2 0x100 EXP SWAP1 DIV PUSH20 0xFFFFFFFFFFFFFFFFFFFFFFFFFFFFFFFFFFFFFFFF AND SWAP3 POP DUP3 PUSH20 0xFFFFFFFFFFFFFFFFFFFFFFFFFFFFFFFFFFFFFFFF AND DUP5 PUSH20 0xFFFFFFFFFFFFFFFFFFFFFFFFFFFFFFFFFFFFFFFF AND EQ PUSH1 0x40 DUP1 MLOAD SWAP1 DUP2 ADD PUSH1 0x40 MSTORE DUP1 PUSH1 0x14 DUP2 MSTORE PUSH1 0x20 ADD PUSH32 0x41535345545F50524F58595F4D49534D41544348000000000000000000000000 DUP2 MSTORE POP SWAP1 ISZERO ISZERO PUSH2 0x1170 JUMPI PUSH1 0x40 MLOAD PUSH32 0x8C379A000000000000000000000000000000000000000000000000000000000 DUP2 MSTORE PUSH1 0x4 ADD PUSH2 0x1167 SWAP2 SWAP1 PUSH2 0x6436 JUMP JUMPDEST PUSH1 0x40 MLOAD DUP1 SWAP2 SUB SWAP1 REVERT JUMPDEST POP DUP5 SWAP2 POP PUSH1 0x0 PUSH20 0xFFFFFFFFFFFFFFFFFFFFFFFFFFFFFFFFFFFFFFFF AND DUP6 PUSH20 0xFFFFFFFFFFFFFFFFFFFFFFFFFFFFFFFFFFFFFFFF AND EQ ISZERO ISZERO PUSH2 0x12CC JUMPI DUP2 PUSH20 0xFFFFFFFFFFFFFFFFFFFFFFFFFFFFFFFFFFFFFFFF AND PUSH4 0xAE25532E PUSH1 0x40 MLOAD DUP2 PUSH4 0xFFFFFFFF AND PUSH29 0x100000000000000000000000000000000000000000000000000000000 MUL DUP2 MSTORE PUSH1 0x4 ADD PUSH1 0x20 PUSH1 0x40 MLOAD DUP1 DUP4 SUB DUP2 PUSH1 0x0 DUP8 DUP1 EXTCODESIZE ISZERO DUP1 ISZERO PUSH2 0x120E JUMPI PUSH1 0x0 DUP1 REVERT JUMPDEST POP GAS CALL ISZERO DUP1 ISZERO PUSH2 0x1222 JUMPI RETURNDATASIZE PUSH1 0x0 DUP1 RETURNDATACOPY RETURNDATASIZE PUSH1 0x0 REVERT JUMPDEST POP POP POP POP PUSH1 0x40 MLOAD RETURNDATASIZE PUSH1 0x1F NOT PUSH1 0x1F DUP3 ADD AND DUP3 ADD DUP1 PUSH1 0x40 MSTORE POP PUSH2 0x1246 SWAP2 SWAP1 DUP2 ADD SWAP1 PUSH2 0x5F0F JUMP JUMPDEST SWAP1 POP DUP6 PUSH1 0xFF AND DUP2 PUSH1 0xFF AND EQ PUSH1 0x40 DUP1 MLOAD SWAP1 DUP2 ADD PUSH1 0x40 MSTORE DUP1 PUSH1 0x17 DUP2 MSTORE PUSH1 0x20 ADD PUSH32 0x41535345545F50524F58595F49445F4D49534D41544348000000000000000000 DUP2 MSTORE POP SWAP1 ISZERO ISZERO PUSH2 0x12CA JUMPI PUSH1 0x40 MLOAD PUSH32 0x8C379A000000000000000000000000000000000000000000000000000000000 DUP2 MSTORE PUSH1 0x4 ADD PUSH2 0x12C1 SWAP2 SWAP1 PUSH2 0x6436 JUMP JUMPDEST PUSH1 0x40 MLOAD DUP1 SWAP2 SUB SWAP1 REVERT JUMPDEST POP JUMPDEST DUP2 PUSH1 0x9 PUSH1 0x0 DUP9 PUSH1 0xFF AND PUSH1 0xFF AND DUP2 MSTORE PUSH1 0x20 ADD SWAP1 DUP2 MSTORE PUSH1 0x20 ADD PUSH1 0x0 KECCAK256 PUSH1 0x0 PUSH2 0x100 EXP DUP2 SLOAD DUP2 PUSH20 0xFFFFFFFFFFFFFFFFFFFFFFFFFFFFFFFFFFFFFFFF MUL NOT AND SWAP1 DUP4 PUSH20 0xFFFFFFFFFFFFFFFFFFFFFFFFFFFFFFFFFFFFFFFF AND MUL OR SWAP1 SSTORE POP PUSH32 0x27EF5F484E50F2DAF7C2D82C60FE4CE409009541176EB64095BEAC369DB1D260 DUP7 DUP7 DUP7 PUSH1 0x40 MLOAD PUSH2 0x1357 SWAP4 SWAP3 SWAP2 SWAP1 PUSH2 0x64E5 JUMP JUMPDEST PUSH1 0x40 MLOAD DUP1 SWAP2 SUB SWAP1 LOG1 POP POP POP POP POP POP JUMP JUMPDEST PUSH1 0x60 PUSH1 0x4 DUP1 SLOAD PUSH1 0x1 DUP2 PUSH1 0x1 AND ISZERO PUSH2 0x100 MUL SUB AND PUSH1 0x2 SWAP1 DIV DUP1 PUSH1 0x1F ADD PUSH1 0x20 DUP1 SWAP2 DIV MUL PUSH1 0x20 ADD PUSH1 0x40 MLOAD SWAP1 DUP2 ADD PUSH1 0x40 MSTORE DUP1 SWAP3 SWAP2 SWAP1 DUP2 DUP2 MSTORE PUSH1 0x20 ADD DUP3 DUP1 SLOAD PUSH1 0x1 DUP2 PUSH1 0x1 AND ISZERO PUSH2 0x100 MUL SUB AND PUSH1 0x2 SWAP1 DIV DUP1 ISZERO PUSH2 0x13FF JUMPI DUP1 PUSH1 0x1F LT PUSH2 0x13D4 JUMPI PUSH2 0x100 DUP1 DUP4 SLOAD DIV MUL DUP4 MSTORE SWAP2 PUSH1 0x20 ADD SWAP2 PUSH2 0x13FF JUMP JUMPDEST DUP3 ADD SWAP2 SWAP1 PUSH1 0x0 MSTORE PUSH1 0x20 PUSH1 0x0 KECCAK256 SWAP1 JUMPDEST DUP2 SLOAD DUP2 MSTORE SWAP1 PUSH1 0x1 ADD SWAP1 PUSH1 0x20 ADD DUP1 DUP4 GT PUSH2 0x13E2 JUMPI DUP3 SWAP1 SUB PUSH1 0x1F AND DUP3 ADD SWAP2 JUMPDEST POP POP POP POP POP SWAP1 POP SWAP1 JUMP JUMPDEST PUSH1 0x7 PUSH1 0x20 MSTORE DUP1 PUSH1 0x0 MSTORE PUSH1 0x40 PUSH1 0x0 KECCAK256 PUSH1 0x0 SWAP2 POP SLOAD SWAP1 PUSH2 0x100 EXP SWAP1 DIV PUSH1 0xFF AND DUP2 JUMP JUMPDEST PUSH2 0x1431 PUSH2 0x53CA JUMP JUMPDEST PUSH2 0x143C DUP5 DUP5 DUP5 PUSH2 0x1953 JUMP JUMPDEST SWAP1 POP DUP3 DUP2 PUSH1 0x20 ADD MLOAD EQ PUSH1 0x40 DUP1 MLOAD SWAP1 DUP2 ADD PUSH1 0x40 MSTORE DUP1 PUSH1 0x14 DUP2 MSTORE PUSH1 0x20 ADD PUSH32 0x434F4D504C4554455F46494C4C5F4641494C4544000000000000000000000000 DUP2 MSTORE POP SWAP1 ISZERO ISZERO PUSH2 0x14BE JUMPI PUSH1 0x40 MLOAD PUSH32 0x8C379A000000000000000000000000000000000000000000000000000000000 DUP2 MSTORE PUSH1 0x4 ADD PUSH2 0x14B5 SWAP2 SWAP1 PUSH2 0x6436 JUMP JUMPDEST PUSH1 0x40 MLOAD DUP1 SWAP2 SUB SWAP1 REVERT JUMPDEST POP DUP1 SWAP1 POP SWAP4 SWAP3 POP POP POP JUMP JUMPDEST PUSH1 0x3 PUSH1 0x20 MSTORE DUP1 PUSH1 0x0 MSTORE PUSH1 0x40 PUSH1 0x0 KECCAK256 PUSH1 0x0 SWAP2 POP SWAP1 POP SLOAD DUP2 JUMP JUMPDEST PUSH1 0x0 PUSH2 0x14EB PUSH2 0x33A9 JUMP JUMPDEST SWAP1 POP DUP2 PUSH1 0x6 PUSH1 0x0 DUP4 PUSH20 0xFFFFFFFFFFFFFFFFFFFFFFFFFFFFFFFFFFFFFFFF AND PUSH20 0xFFFFFFFFFFFFFFFFFFFFFFFFFFFFFFFFFFFFFFFF AND DUP2 MSTORE PUSH1 0x20 ADD SWAP1 DUP2 MSTORE PUSH1 0x20 ADD PUSH1 0x0 KECCAK256 PUSH1 0x0 DUP6 PUSH20 0xFFFFFFFFFFFFFFFFFFFFFFFFFFFFFFFFFFFFFFFF AND PUSH20 0xFFFFFFFFFFFFFFFFFFFFFFFFFFFFFFFFFFFFFFFF AND DUP2 MSTORE PUSH1 0x20 ADD SWAP1 DUP2 MSTORE PUSH1 0x20 ADD PUSH1 0x0 KECCAK256 PUSH1 0x0 PUSH2 0x100 EXP DUP2 SLOAD DUP2 PUSH1 0xFF MUL NOT AND SWAP1 DUP4 ISZERO ISZERO MUL OR SWAP1 SSTORE POP POP POP POP JUMP JUMPDEST PUSH1 0x6 PUSH1 0x20 MSTORE DUP2 PUSH1 0x0 MSTORE PUSH1 0x40 PUSH1 0x0 KECCAK256 PUSH1 0x20 MSTORE DUP1 PUSH1 0x0 MSTORE PUSH1 0x40 PUSH1 0x0 KECCAK256 PUSH1 0x0 SWAP2 POP SWAP2 POP SWAP1 SLOAD SWAP1 PUSH2 0x100 EXP SWAP1 DIV PUSH1 0xFF AND DUP2 JUMP JUMPDEST PUSH2 0x15BD PUSH2 0x53CA JUMP JUMPDEST PUSH1 0x0 DUP1 PUSH2 0x15C8 PUSH2 0x53CA JUMP JUMPDEST PUSH1 0x0 SWAP3 POP JUMPDEST DUP7 MLOAD DUP4 LT ISZERO PUSH2 0x1706 JUMPI PUSH2 0x1619 DUP8 DUP5 DUP2 MLOAD DUP2 LT ISZERO ISZERO PUSH2 0x15E7 JUMPI INVALID JUMPDEST SWAP1 PUSH1 0x20 ADD SWAP1 PUSH1 0x20 MUL ADD MLOAD PUSH2 0x160 ADD MLOAD DUP9 PUSH1 0x0 DUP2 MLOAD DUP2 LT ISZERO ISZERO PUSH2 0x1605 JUMPI INVALID JUMPDEST SWAP1 PUSH1 0x20 ADD SWAP1 PUSH1 0x20 MUL ADD MLOAD PUSH2 0x160 ADD MLOAD PUSH2 0x3ECB JUMP JUMPDEST PUSH1 0x40 DUP1 MLOAD SWAP1 DUP2 ADD PUSH1 0x40 MSTORE DUP1 PUSH1 0x13 DUP2 MSTORE PUSH1 0x20 ADD PUSH32 0x41535345545F444154415F4D49534D4154434800000000000000000000000000 DUP2 MSTORE POP SWAP1 ISZERO ISZERO PUSH2 0x1692 JUMPI PUSH1 0x40 MLOAD PUSH32 0x8C379A000000000000000000000000000000000000000000000000000000000 DUP2 MSTORE PUSH1 0x4 ADD PUSH2 0x1689 SWAP2 SWAP1 PUSH2 0x6436 JUMP JUMPDEST PUSH1 0x40 MLOAD DUP1 SWAP2 SUB SWAP1 REVERT JUMPDEST POP PUSH2 0x16A1 DUP7 DUP6 PUSH1 0x20 ADD MLOAD PUSH2 0x3F1E JUMP JUMPDEST SWAP2 POP PUSH2 0x16DC DUP8 DUP5 DUP2 MLOAD DUP2 LT ISZERO ISZERO PUSH2 0x16B4 JUMPI INVALID JUMPDEST SWAP1 PUSH1 0x20 ADD SWAP1 PUSH1 0x20 MUL ADD MLOAD DUP4 DUP8 DUP7 DUP2 MLOAD DUP2 LT ISZERO ISZERO PUSH2 0x16CD JUMPI INVALID JUMPDEST SWAP1 PUSH1 0x20 ADD SWAP1 PUSH1 0x20 MUL ADD MLOAD PUSH2 0x1953 JUMP JUMPDEST SWAP1 POP PUSH2 0x16E8 DUP5 DUP3 PUSH2 0x3F37 JUMP JUMPDEST DUP6 DUP5 PUSH1 0x20 ADD MLOAD EQ ISZERO PUSH2 0x16F9 JUMPI PUSH2 0x1706 JUMP JUMPDEST DUP3 DUP1 PUSH1 0x1 ADD SWAP4 POP POP PUSH2 0x15CD JUMP JUMPDEST DUP4 SWAP4 POP POP POP POP SWAP4 SWAP3 POP POP POP JUMP JUMPDEST PUSH1 0x5 PUSH1 0x20 MSTORE DUP2 PUSH1 0x0 MSTORE PUSH1 0x40 PUSH1 0x0 KECCAK256 PUSH1 0x20 MSTORE DUP1 PUSH1 0x0 MSTORE PUSH1 0x40 PUSH1 0x0 KECCAK256 PUSH1 0x0 SWAP2 POP SWAP2 POP SWAP1 SLOAD SWAP1 PUSH2 0x100 EXP SWAP1 DIV PUSH1 0xFF AND DUP2 JUMP JUMPDEST PUSH1 0x0 DUP1 SWAP1 SLOAD SWAP1 PUSH2 0x100 EXP SWAP1 DIV PUSH20 0xFFFFFFFFFFFFFFFFFFFFFFFFFFFFFFFFFFFFFFFF AND DUP2 JUMP JUMPDEST PUSH1 0x0 DUP1 PUSH1 0x9 PUSH1 0x0 DUP5 PUSH1 0xFF AND PUSH1 0xFF AND DUP2 MSTORE PUSH1 0x20 ADD SWAP1 DUP2 MSTORE PUSH1 0x20 ADD PUSH1 0x0 KECCAK256 PUSH1 0x0 SWAP1 SLOAD SWAP1 PUSH2 0x100 EXP SWAP1 DIV PUSH20 0xFFFFFFFFFFFFFFFFFFFFFFFFFFFFFFFFFFFFFFFF AND SWAP1 POP DUP1 SWAP2 POP POP SWAP2 SWAP1 POP JUMP JUMPDEST PUSH2 0x17B7 PUSH2 0x53CA JUMP JUMPDEST PUSH1 0x0 DUP1 PUSH1 0x0 PUSH2 0x17C4 PUSH2 0x53CA JUMP JUMPDEST PUSH1 0x0 SWAP4 POP JUMPDEST DUP8 MLOAD DUP5 LT ISZERO PUSH2 0x1945 JUMPI PUSH2 0x1815 DUP9 DUP6 DUP2 MLOAD DUP2 LT ISZERO ISZERO PUSH2 0x17E3 JUMPI INVALID JUMPDEST SWAP1 PUSH1 0x20 ADD SWAP1 PUSH1 0x20 MUL ADD MLOAD PUSH2 0x140 ADD MLOAD DUP10 PUSH1 0x0 DUP2 MLOAD DUP2 LT ISZERO ISZERO PUSH2 0x1801 JUMPI INVALID JUMPDEST SWAP1 PUSH1 0x20 ADD SWAP1 PUSH1 0x20 MUL ADD MLOAD PUSH2 0x140 ADD MLOAD PUSH2 0x3ECB JUMP JUMPDEST PUSH1 0x40 DUP1 MLOAD SWAP1 DUP2 ADD PUSH1 0x40 MSTORE DUP1 PUSH1 0x13 DUP2 MSTORE PUSH1 0x20 ADD PUSH32 0x41535345545F444154415F4D49534D4154434800000000000000000000000000 DUP2 MSTORE POP SWAP1 ISZERO ISZERO PUSH2 0x188E JUMPI PUSH1 0x40 MLOAD PUSH32 0x8C379A000000000000000000000000000000000000000000000000000000000 DUP2 MSTORE PUSH1 0x4 ADD PUSH2 0x1885 SWAP2 SWAP1 PUSH2 0x6436 JUMP JUMPDEST PUSH1 0x40 MLOAD DUP1 SWAP2 SUB SWAP1 REVERT JUMPDEST POP PUSH2 0x189D DUP8 DUP7 PUSH1 0x0 ADD MLOAD PUSH2 0x3F1E JUMP JUMPDEST SWAP3 POP PUSH2 0x18E0 DUP9 DUP6 DUP2 MLOAD DUP2 LT ISZERO ISZERO PUSH2 0x18B0 JUMPI INVALID JUMPDEST SWAP1 PUSH1 0x20 ADD SWAP1 PUSH1 0x20 MUL ADD MLOAD PUSH1 0xA0 ADD MLOAD DUP10 DUP7 DUP2 MLOAD DUP2 LT ISZERO ISZERO PUSH2 0x18CC JUMPI INVALID JUMPDEST SWAP1 PUSH1 0x20 ADD SWAP1 PUSH1 0x20 MUL ADD MLOAD PUSH1 0x80 ADD MLOAD DUP6 PUSH2 0x3FA7 JUMP JUMPDEST SWAP2 POP PUSH2 0x191B DUP9 DUP6 DUP2 MLOAD DUP2 LT ISZERO ISZERO PUSH2 0x18F3 JUMPI INVALID JUMPDEST SWAP1 PUSH1 0x20 ADD SWAP1 PUSH1 0x20 MUL ADD MLOAD DUP4 DUP9 DUP8 DUP2 MLOAD DUP2 LT ISZERO ISZERO PUSH2 0x190C JUMPI INVALID JUMPDEST SWAP1 PUSH1 0x20 ADD SWAP1 PUSH1 0x20 MUL ADD MLOAD PUSH2 0xB23 JUMP JUMPDEST SWAP1 POP PUSH2 0x1927 DUP6 DUP3 PUSH2 0x3F37 JUMP JUMPDEST DUP7 DUP6 PUSH1 0x0 ADD MLOAD EQ ISZERO PUSH2 0x1938 JUMPI PUSH2 0x1945 JUMP JUMPDEST DUP4 DUP1 PUSH1 0x1 ADD SWAP5 POP POP PUSH2 0x17C9 JUMP JUMPDEST DUP5 SWAP5 POP POP POP POP POP SWAP4 SWAP3 POP POP POP JUMP JUMPDEST PUSH2 0x195B PUSH2 0x53CA JUMP JUMPDEST PUSH2 0x1963 PUSH2 0x53A2 JUMP JUMPDEST PUSH1 0x0 DUP1 PUSH1 0x0 PUSH2 0x1971 DUP9 PUSH2 0x1ED1 JUMP JUMPDEST SWAP4 POP PUSH2 0x197B PUSH2 0x33A9 JUMP JUMPDEST SWAP3 POP PUSH2 0x198F DUP9 PUSH1 0xA0 ADD MLOAD DUP6 PUSH1 0x40 ADD MLOAD PUSH2 0x3F1E JUMP JUMPDEST SWAP2 POP PUSH2 0x199B DUP8 DUP4 PUSH2 0x3FC8 JUMP JUMPDEST SWAP1 POP PUSH2 0x19AB DUP9 DUP6 DUP6 DUP11 DUP6 DUP12 PUSH2 0x35B6 JUMP JUMPDEST PUSH2 0x19B5 DUP9 DUP3 PUSH2 0x3FE1 JUMP JUMPDEST SWAP5 POP PUSH2 0x19C2 DUP9 DUP5 DUP8 PUSH2 0x405C JUMP JUMPDEST PUSH2 0x19D7 DUP9 DUP5 DUP7 PUSH1 0x20 ADD MLOAD DUP8 PUSH1 0x40 ADD MLOAD DUP10 PUSH2 0x3DFF JUMP JUMPDEST DUP5 SWAP5 POP POP POP POP POP SWAP4 SWAP3 POP POP POP JUMP JUMPDEST PUSH1 0x0 DUP1 PUSH20 0xFFFFFFFFFFFFFFFFFFFFFFFFFFFFFFFFFFFFFFFF AND PUSH1 0x8 PUSH1 0x0 SWAP1 SLOAD SWAP1 PUSH2 0x100 EXP SWAP1 DIV PUSH20 0xFFFFFFFFFFFFFFFFFFFFFFFFFFFFFFFFFFFFFFFF AND PUSH20 0xFFFFFFFFFFFFFFFFFFFFFFFFFFFFFFFFFFFFFFFF AND EQ PUSH1 0x40 DUP1 MLOAD SWAP1 DUP2 ADD PUSH1 0x40 MSTORE DUP1 PUSH1 0x12 DUP2 MSTORE PUSH1 0x20 ADD PUSH32 0x5245454E5452414E43595F494C4C4547414C0000000000000000000000000000 DUP2 MSTORE POP SWAP1 ISZERO ISZERO PUSH2 0x1AB1 JUMPI PUSH1 0x40 MLOAD PUSH32 0x8C379A000000000000000000000000000000000000000000000000000000000 DUP2 MSTORE PUSH1 0x4 ADD PUSH2 0x1AA8 SWAP2 SWAP1 PUSH2 0x6436 JUMP JUMPDEST PUSH1 0x40 MLOAD DUP1 SWAP2 SUB SWAP1 REVERT JUMPDEST POP ADDRESS DUP7 DUP9 DUP8 DUP8 PUSH1 0x40 MLOAD PUSH1 0x20 ADD DUP1 DUP7 PUSH20 0xFFFFFFFFFFFFFFFFFFFFFFFFFFFFFFFFFFFFFFFF AND PUSH20 0xFFFFFFFFFFFFFFFFFFFFFFFFFFFFFFFFFFFFFFFF AND PUSH13 0x1000000000000000000000000 MUL DUP2 MSTORE PUSH1 0x14 ADD DUP6 PUSH20 0xFFFFFFFFFFFFFFFFFFFFFFFFFFFFFFFFFFFFFFFF AND PUSH20 0xFFFFFFFFFFFFFFFFFFFFFFFFFFFFFFFFFFFFFFFF AND PUSH13 0x1000000000000000000000000 MUL DUP2 MSTORE PUSH1 0x14 ADD DUP5 DUP2 MSTORE PUSH1 0x20 ADD DUP4 DUP4 DUP1 DUP3 DUP5 CALLDATACOPY DUP3 ADD SWAP2 POP POP SWAP6 POP POP POP POP POP POP PUSH1 0x40 MLOAD PUSH1 0x20 DUP2 DUP4 SUB SUB DUP2 MSTORE SWAP1 PUSH1 0x40 MSTORE PUSH1 0x40 MLOAD DUP1 DUP3 DUP1 MLOAD SWAP1 PUSH1 0x20 ADD SWAP1 DUP1 DUP4 DUP4 JUMPDEST PUSH1 0x20 DUP4 LT ISZERO ISZERO PUSH2 0x1B9C JUMPI DUP1 MLOAD DUP3 MSTORE PUSH1 0x20 DUP3 ADD SWAP2 POP PUSH1 0x20 DUP2 ADD SWAP1 POP PUSH1 0x20 DUP4 SUB SWAP3 POP PUSH2 0x1B77 JUMP JUMPDEST PUSH1 0x1 DUP4 PUSH1 0x20 SUB PUSH2 0x100 EXP SUB DUP1 NOT DUP3 MLOAD AND DUP2 DUP5 MLOAD AND DUP1 DUP3 OR DUP6 MSTORE POP POP POP POP POP POP SWAP1 POP ADD SWAP2 POP POP PUSH1 0x40 MLOAD DUP1 SWAP2 SUB SWAP1 KECCAK256 SWAP1 POP PUSH1 0x7 PUSH1 0x0 DUP3 PUSH1 0x0 NOT AND PUSH1 0x0 NOT AND DUP2 MSTORE PUSH1 0x20 ADD SWAP1 DUP2 MSTORE PUSH1 0x20 ADD PUSH1 0x0 KECCAK256 PUSH1 0x0 SWAP1 SLOAD SWAP1 PUSH2 0x100 EXP SWAP1 DIV PUSH1 0xFF AND ISZERO PUSH1 0x40 DUP1 MLOAD SWAP1 DUP2 ADD PUSH1 0x40 MSTORE DUP1 PUSH1 0xF DUP2 MSTORE PUSH1 0x20 ADD PUSH32 0x494E56414C49445F54585F484153480000000000000000000000000000000000 DUP2 MSTORE POP SWAP1 ISZERO ISZERO PUSH2 0x1C6E JUMPI PUSH1 0x40 MLOAD PUSH32 0x8C379A000000000000000000000000000000000000000000000000000000000 DUP2 MSTORE PUSH1 0x4 ADD PUSH2 0x1C65 SWAP2 SWAP1 PUSH2 0x6436 JUMP JUMPDEST PUSH1 0x40 MLOAD DUP1 SWAP2 SUB SWAP1 REVERT JUMPDEST POP CALLER PUSH20 0xFFFFFFFFFFFFFFFFFFFFFFFFFFFFFFFFFFFFFFFF AND DUP7 PUSH20 0xFFFFFFFFFFFFFFFFFFFFFFFFFFFFFFFFFFFFFFFF AND EQ ISZERO ISZERO PUSH2 0x1D9D JUMPI PUSH2 0x1CE1 DUP2 DUP8 DUP6 DUP6 DUP1 DUP1 PUSH1 0x1F ADD PUSH1 0x20 DUP1 SWAP2 DIV MUL PUSH1 0x20 ADD PUSH1 0x40 MLOAD SWAP1 DUP2 ADD PUSH1 0x40 MSTORE DUP1 SWAP4 SWAP3 SWAP2 SWAP1 DUP2 DUP2 MSTORE PUSH1 0x20 ADD DUP4 DUP4 DUP1 DUP3 DUP5 CALLDATACOPY DUP3 ADD SWAP2 POP POP POP POP POP POP PUSH2 0x257D JUMP JUMPDEST PUSH1 0x40 DUP1 MLOAD SWAP1 DUP2 ADD PUSH1 0x40 MSTORE DUP1 PUSH1 0x14 DUP2 MSTORE PUSH1 0x20 ADD PUSH32 0x494E56414C49445F54585F5349474E4154555245000000000000000000000000 DUP2 MSTORE POP SWAP1 ISZERO ISZERO PUSH2 0x1D5A JUMPI PUSH1 0x40 MLOAD PUSH32 0x8C379A000000000000000000000000000000000000000000000000000000000 DUP2 MSTORE PUSH1 0x4 ADD PUSH2 0x1D51 SWAP2 SWAP1 PUSH2 0x6436 JUMP JUMPDEST PUSH1 0x40 MLOAD DUP1 SWAP2 SUB SWAP1 REVERT JUMPDEST POP DUP6 PUSH1 0x8 PUSH1 0x0 PUSH2 0x100 EXP DUP2 SLOAD DUP2 PUSH20 0xFFFFFFFFFFFFFFFFFFFFFFFFFFFFFFFFFFFFFFFF MUL NOT AND SWAP1 DUP4 PUSH20 0xFFFFFFFFFFFFFFFFFFFFFFFFFFFFFFFFFFFFFFFF AND MUL OR SWAP1 SSTORE POP JUMPDEST PUSH1 0x1 PUSH1 0x7 PUSH1 0x0 DUP4 PUSH1 0x0 NOT AND PUSH1 0x0 NOT AND DUP2 MSTORE PUSH1 0x20 ADD SWAP1 DUP2 MSTORE PUSH1 0x20 ADD PUSH1 0x0 KECCAK256 PUSH1 0x0 PUSH2 0x100 EXP DUP2 SLOAD DUP2 PUSH1 0xFF MUL NOT AND SWAP1 DUP4 ISZERO ISZERO MUL OR SWAP1 SSTORE POP ADDRESS PUSH20 0xFFFFFFFFFFFFFFFFFFFFFFFFFFFFFFFFFFFFFFFF AND DUP6 DUP6 PUSH1 0x40 MLOAD DUP1 DUP4 DUP4 DUP1 DUP3 DUP5 CALLDATACOPY DUP3 ADD SWAP2 POP POP SWAP3 POP POP POP PUSH1 0x0 PUSH1 0x40 MLOAD DUP1 DUP4 SUB DUP2 DUP6 GAS DELEGATECALL SWAP2 POP POP PUSH1 0x40 DUP1 MLOAD SWAP1 DUP2 ADD PUSH1 0x40 MSTORE DUP1 PUSH1 0x10 DUP2 MSTORE PUSH1 0x20 ADD PUSH32 0x4641494C45445F455845435554494F4E00000000000000000000000000000000 DUP2 MSTORE POP SWAP1 ISZERO ISZERO PUSH2 0x1E85 JUMPI PUSH1 0x40 MLOAD PUSH32 0x8C379A000000000000000000000000000000000000000000000000000000000 DUP2 MSTORE PUSH1 0x4 ADD PUSH2 0x1E7C SWAP2 SWAP1 PUSH2 0x6436 JUMP JUMPDEST PUSH1 0x40 MLOAD DUP1 SWAP2 SUB SWAP1 REVERT JUMPDEST POP PUSH1 0x0 PUSH1 0x8 PUSH1 0x0 PUSH2 0x100 EXP DUP2 SLOAD DUP2 PUSH20 0xFFFFFFFFFFFFFFFFFFFFFFFFFFFFFFFFFFFFFFFF MUL NOT AND SWAP1 DUP4 PUSH20 0xFFFFFFFFFFFFFFFFFFFFFFFFFFFFFFFFFFFFFFFF AND MUL OR SWAP1 SSTORE POP POP POP POP POP POP POP POP JUMP JUMPDEST PUSH2 0x1ED9 PUSH2 0x53A2 JUMP JUMPDEST PUSH2 0x1EE2 DUP3 PUSH2 0x41F3 JUMP JUMPDEST DUP2 PUSH1 0x20 ADD SWAP1 PUSH1 0x0 NOT AND SWAP1 DUP2 PUSH1 0x0 NOT AND DUP2 MSTORE POP POP PUSH1 0x0 DUP3 PUSH1 0x80 ADD MLOAD EQ ISZERO PUSH2 0x1F28 JUMPI PUSH1 0x1 PUSH1 0x6 DUP2 GT ISZERO PUSH2 0x1F0F JUMPI INVALID JUMPDEST DUP2 PUSH1 0x0 ADD SWAP1 PUSH1 0xFF AND SWAP1 DUP2 PUSH1 0xFF AND DUP2 MSTORE POP POP DUP1 SWAP1 POP PUSH2 0x20DD JUMP JUMPDEST PUSH1 0x0 DUP3 PUSH1 0xA0 ADD MLOAD EQ ISZERO PUSH2 0x1F5B JUMPI PUSH1 0x2 PUSH1 0x6 DUP2 GT ISZERO PUSH2 0x1F42 JUMPI INVALID JUMPDEST DUP2 PUSH1 0x0 ADD SWAP1 PUSH1 0xFF AND SWAP1 DUP2 PUSH1 0xFF AND DUP2 MSTORE POP POP DUP1 SWAP1 POP PUSH2 0x20DD JUMP JUMPDEST DUP2 PUSH2 0x100 ADD MLOAD TIMESTAMP LT ISZERO ISZERO PUSH2 0x1F8F JUMPI PUSH1 0x4 PUSH1 0x6 DUP2 GT ISZERO PUSH2 0x1F76 JUMPI INVALID JUMPDEST DUP2 PUSH1 0x0 ADD SWAP1 PUSH1 0xFF AND SWAP1 DUP2 PUSH1 0xFF AND DUP2 MSTORE POP POP DUP1 SWAP1 POP PUSH2 0x20DD JUMP JUMPDEST PUSH1 0x2 PUSH1 0x0 DUP3 PUSH1 0x20 ADD MLOAD PUSH1 0x0 NOT AND PUSH1 0x0 NOT AND DUP2 MSTORE PUSH1 0x20 ADD SWAP1 DUP2 MSTORE PUSH1 0x20 ADD PUSH1 0x0 KECCAK256 PUSH1 0x0 SWAP1 SLOAD SWAP1 PUSH2 0x100 EXP SWAP1 DIV PUSH1 0xFF AND ISZERO PUSH2 0x1FE6 JUMPI PUSH1 0x6 DUP1 DUP2 GT ISZERO PUSH2 0x1FCD JUMPI INVALID JUMPDEST DUP2 PUSH1 0x0 ADD SWAP1 PUSH1 0xFF AND SWAP1 DUP2 PUSH1 0xFF AND DUP2 MSTORE POP POP DUP1 SWAP1 POP PUSH2 0x20DD JUMP JUMPDEST DUP2 PUSH2 0x120 ADD MLOAD PUSH1 0x3 PUSH1 0x0 DUP5 PUSH1 0x0 ADD MLOAD PUSH20 0xFFFFFFFFFFFFFFFFFFFFFFFFFFFFFFFFFFFFFFFF AND PUSH20 0xFFFFFFFFFFFFFFFFFFFFFFFFFFFFFFFFFFFFFFFF AND DUP2 MSTORE PUSH1 0x20 ADD SWAP1 DUP2 MSTORE PUSH1 0x20 ADD PUSH1 0x0 KECCAK256 SLOAD GT ISZERO PUSH2 0x205B JUMPI PUSH1 0x6 DUP1 DUP2 GT ISZERO PUSH2 0x2042 JUMPI INVALID JUMPDEST DUP2 PUSH1 0x0 ADD SWAP1 PUSH1 0xFF AND SWAP1 DUP2 PUSH1 0xFF AND DUP2 MSTORE POP POP DUP1 SWAP1 POP PUSH2 0x20DD JUMP JUMPDEST PUSH1 0x1 PUSH1 0x0 DUP3 PUSH1 0x20 ADD MLOAD PUSH1 0x0 NOT AND PUSH1 0x0 NOT AND DUP2 MSTORE PUSH1 0x20 ADD SWAP1 DUP2 MSTORE PUSH1 0x20 ADD PUSH1 0x0 KECCAK256 SLOAD DUP2 PUSH1 0x40 ADD DUP2 DUP2 MSTORE POP POP DUP2 PUSH1 0xA0 ADD MLOAD DUP2 PUSH1 0x40 ADD MLOAD LT ISZERO ISZERO PUSH2 0x20BB JUMPI PUSH1 0x5 PUSH1 0x6 DUP2 GT ISZERO PUSH2 0x20A2 JUMPI INVALID JUMPDEST DUP2 PUSH1 0x0 ADD SWAP1 PUSH1 0xFF AND SWAP1 DUP2 PUSH1 0xFF AND DUP2 MSTORE POP POP DUP1 SWAP1 POP PUSH2 0x20DD JUMP JUMPDEST PUSH1 0x3 PUSH1 0x6 DUP2 GT ISZERO PUSH2 0x20C8 JUMPI INVALID JUMPDEST DUP2 PUSH1 0x0 ADD SWAP1 PUSH1 0xFF AND SWAP1 DUP2 PUSH1 0xFF AND DUP2 MSTORE POP POP DUP1 SWAP1 POP JUMPDEST SWAP2 SWAP1 POP JUMP JUMPDEST PUSH2 0x20EA PUSH2 0x53A2 JUMP JUMPDEST PUSH2 0x20F3 DUP3 PUSH2 0x1ED1 JUMP JUMPDEST SWAP1 POP PUSH2 0x20FF DUP3 DUP3 PUSH2 0x4A8A JUMP JUMPDEST PUSH2 0x210D DUP3 DUP3 PUSH1 0x20 ADD MLOAD PUSH2 0x4CC3 JUMP JUMPDEST POP POP JUMP JUMPDEST PUSH2 0x2119 PUSH2 0x53CA JUMP JUMPDEST PUSH1 0x0 DUP1 PUSH2 0x2124 PUSH2 0x53CA JUMP JUMPDEST PUSH1 0x0 SWAP3 POP JUMPDEST DUP7 MLOAD DUP4 LT ISZERO PUSH2 0x2262 JUMPI PUSH2 0x2175 DUP8 DUP5 DUP2 MLOAD DUP2 LT ISZERO ISZERO PUSH2 0x2143 JUMPI INVALID JUMPDEST SWAP1 PUSH1 0x20 ADD SWAP1 PUSH1 0x20 MUL ADD MLOAD PUSH2 0x160 ADD MLOAD DUP9 PUSH1 0x0 DUP2 MLOAD DUP2 LT ISZERO ISZERO PUSH2 0x2161 JUMPI INVALID JUMPDEST SWAP1 PUSH1 0x20 ADD SWAP1 PUSH1 0x20 MUL ADD MLOAD PUSH2 0x160 ADD MLOAD PUSH2 0x3ECB JUMP JUMPDEST PUSH1 0x40 DUP1 MLOAD SWAP1 DUP2 ADD PUSH1 0x40 MSTORE DUP1 PUSH1 0x13 DUP2 MSTORE PUSH1 0x20 ADD PUSH32 0x41535345545F444154415F4D49534D4154434800000000000000000000000000 DUP2 MSTORE POP SWAP1 ISZERO ISZERO PUSH2 0x21EE JUMPI PUSH1 0x40 MLOAD PUSH32 0x8C379A000000000000000000000000000000000000000000000000000000000 DUP2 MSTORE PUSH1 0x4 ADD PUSH2 0x21E5 SWAP2 SWAP1 PUSH2 0x6436 JUMP JUMPDEST PUSH1 0x40 MLOAD DUP1 SWAP2 SUB SWAP1 REVERT JUMPDEST POP PUSH2 0x21FD DUP7 DUP6 PUSH1 0x20 ADD MLOAD PUSH2 0x3F1E JUMP JUMPDEST SWAP2 POP PUSH2 0x2238 DUP8 DUP5 DUP2 MLOAD DUP2 LT ISZERO ISZERO PUSH2 0x2210 JUMPI INVALID JUMPDEST SWAP1 PUSH1 0x20 ADD SWAP1 PUSH1 0x20 MUL ADD MLOAD DUP4 DUP8 DUP7 DUP2 MLOAD DUP2 LT ISZERO ISZERO PUSH2 0x2229 JUMPI INVALID JUMPDEST SWAP1 PUSH1 0x20 ADD SWAP1 PUSH1 0x20 MUL ADD MLOAD PUSH2 0xB23 JUMP JUMPDEST SWAP1 POP PUSH2 0x2244 DUP5 DUP3 PUSH2 0x3F37 JUMP JUMPDEST DUP6 DUP5 PUSH1 0x20 ADD MLOAD EQ ISZERO PUSH2 0x2255 JUMPI PUSH2 0x2262 JUMP JUMPDEST DUP3 DUP1 PUSH1 0x1 ADD SWAP4 POP POP PUSH2 0x2129 JUMP JUMPDEST DUP4 SWAP4 POP POP POP POP SWAP4 SWAP3 POP POP POP JUMP JUMPDEST PUSH2 0x2277 PUSH2 0x53CA JUMP JUMPDEST PUSH1 0x0 DUP1 PUSH1 0x0 PUSH2 0x2284 PUSH2 0x53CA JUMP JUMPDEST PUSH1 0x0 SWAP4 POP JUMPDEST DUP8 MLOAD DUP5 LT ISZERO PUSH2 0x2405 JUMPI PUSH2 0x22D5 DUP9 DUP6 DUP2 MLOAD DUP2 LT ISZERO ISZERO PUSH2 0x22A3 JUMPI INVALID JUMPDEST SWAP1 PUSH1 0x20 ADD SWAP1 PUSH1 0x20 MUL ADD MLOAD PUSH2 0x140 ADD MLOAD DUP10 PUSH1 0x0 DUP2 MLOAD DUP2 LT ISZERO ISZERO PUSH2 0x22C1 JUMPI INVALID JUMPDEST SWAP1 PUSH1 0x20 ADD SWAP1 PUSH1 0x20 MUL ADD MLOAD PUSH2 0x140 ADD MLOAD PUSH2 0x3ECB JUMP JUMPDEST PUSH1 0x40 DUP1 MLOAD SWAP1 DUP2 ADD PUSH1 0x40 MSTORE DUP1 PUSH1 0x13 DUP2 MSTORE PUSH1 0x20 ADD PUSH32 0x41535345545F444154415F4D49534D4154434800000000000000000000000000 DUP2 MSTORE POP SWAP1 ISZERO ISZERO PUSH2 0x234E JUMPI PUSH1 0x40 MLOAD PUSH32 0x8C379A000000000000000000000000000000000000000000000000000000000 DUP2 MSTORE PUSH1 0x4 ADD PUSH2 0x2345 SWAP2 SWAP1 PUSH2 0x6436 JUMP JUMPDEST PUSH1 0x40 MLOAD DUP1 SWAP2 SUB SWAP1 REVERT JUMPDEST POP PUSH2 0x235D DUP8 DUP7 PUSH1 0x0 ADD MLOAD PUSH2 0x3F1E JUMP JUMPDEST SWAP3 POP PUSH2 0x23A0 DUP9 DUP6 DUP2 MLOAD DUP2 LT ISZERO ISZERO PUSH2 0x2370 JUMPI INVALID JUMPDEST SWAP1 PUSH1 0x20 ADD SWAP1 PUSH1 0x20 MUL ADD MLOAD PUSH1 0xA0 ADD MLOAD DUP10 DUP7 DUP2 MLOAD DUP2 LT ISZERO ISZERO PUSH2 0x238C JUMPI INVALID JUMPDEST SWAP1 PUSH1 0x20 ADD SWAP1 PUSH1 0x20 MUL ADD MLOAD PUSH1 0x80 ADD MLOAD DUP6 PUSH2 0x3FA7 JUMP JUMPDEST SWAP2 POP PUSH2 0x23DB DUP9 DUP6 DUP2 MLOAD DUP2 LT ISZERO ISZERO PUSH2 0x23B3 JUMPI INVALID JUMPDEST SWAP1 PUSH1 0x20 ADD SWAP1 PUSH1 0x20 MUL ADD MLOAD DUP4 DUP9 DUP8 DUP2 MLOAD DUP2 LT ISZERO ISZERO PUSH2 0x23CC JUMPI INVALID JUMPDEST SWAP1 PUSH1 0x20 ADD SWAP1 PUSH1 0x20 MUL ADD MLOAD PUSH2 0x1953 JUMP JUMPDEST SWAP1 POP PUSH2 0x23E7 DUP6 DUP3 PUSH2 0x3F37 JUMP JUMPDEST DUP7 DUP6 PUSH1 0x0 ADD MLOAD EQ ISZERO PUSH2 0x23F8 JUMPI PUSH2 0x2405 JUMP JUMPDEST DUP4 DUP1 PUSH1 0x1 ADD SWAP5 POP POP PUSH2 0x2289 JUMP JUMPDEST DUP5 SWAP5 POP POP POP POP POP SWAP4 SWAP3 POP POP POP JUMP JUMPDEST PUSH1 0x8 PUSH1 0x0 SWAP1 SLOAD SWAP1 PUSH2 0x100 EXP SWAP1 DIV PUSH20 0xFFFFFFFFFFFFFFFFFFFFFFFFFFFFFFFFFFFFFFFF AND DUP2 JUMP JUMPDEST PUSH1 0x0 DUP1 SWAP1 SLOAD SWAP1 PUSH2 0x100 EXP SWAP1 DIV PUSH20 0xFFFFFFFFFFFFFFFFFFFFFFFFFFFFFFFFFFFFFFFF AND PUSH20 0xFFFFFFFFFFFFFFFFFFFFFFFFFFFFFFFFFFFFFFFF AND CALLER PUSH20 0xFFFFFFFFFFFFFFFFFFFFFFFFFFFFFFFFFFFFFFFF AND EQ ISZERO ISZERO PUSH2 0x24CA JUMPI PUSH1 0x40 MLOAD PUSH32 0x8C379A000000000000000000000000000000000000000000000000000000000 DUP2 MSTORE PUSH1 0x4 ADD PUSH2 0x24C1 SWAP1 PUSH2 0x6458 JUMP JUMPDEST PUSH1 0x40 MLOAD DUP1 SWAP2 SUB SWAP1 REVERT JUMPDEST PUSH1 0x0 PUSH20 0xFFFFFFFFFFFFFFFFFFFFFFFFFFFFFFFFFFFFFFFF AND DUP2 PUSH20 0xFFFFFFFFFFFFFFFFFFFFFFFFFFFFFFFFFFFFFFFF AND EQ ISZERO ISZERO PUSH2 0x2541 JUMPI DUP1 PUSH1 0x0 DUP1 PUSH2 0x100 EXP DUP2 SLOAD DUP2 PUSH20 0xFFFFFFFFFFFFFFFFFFFFFFFFFFFFFFFFFFFFFFFF MUL NOT AND SWAP1 DUP4 PUSH20 0xFFFFFFFFFFFFFFFFFFFFFFFFFFFFFFFFFFFFFFFF AND MUL OR SWAP1 SSTORE POP JUMPDEST POP JUMP JUMPDEST PUSH1 0x40 DUP1 MLOAD SWAP1 DUP2 ADD PUSH1 0x40 MSTORE DUP1 PUSH1 0xB DUP2 MSTORE PUSH1 0x20 ADD PUSH32 0x322E302E312D616C706861000000000000000000000000000000000000000000 DUP2 MSTORE POP DUP2 JUMP JUMPDEST PUSH1 0x0 DUP1 PUSH1 0x0 DUP1 PUSH1 0x0 DUP1 PUSH1 0x0 DUP1 DUP9 MLOAD GT PUSH1 0x40 DUP1 MLOAD SWAP1 DUP2 ADD PUSH1 0x40 MSTORE DUP1 PUSH1 0x1E DUP2 MSTORE PUSH1 0x20 ADD PUSH32 0x4C454E4754485F475245415445525F5448414E5F305F52455155495245440000 DUP2 MSTORE POP SWAP1 ISZERO ISZERO PUSH2 0x2605 JUMPI PUSH1 0x40 MLOAD PUSH32 0x8C379A000000000000000000000000000000000000000000000000000000000 DUP2 MSTORE PUSH1 0x4 ADD PUSH2 0x25FC SWAP2 SWAP1 PUSH2 0x6436 JUMP JUMPDEST PUSH1 0x40 MLOAD DUP1 SWAP2 SUB SWAP1 REVERT JUMPDEST POP PUSH2 0x260F DUP9 PUSH2 0x4D79 JUMP JUMPDEST PUSH32 0x100000000000000000000000000000000000000000000000000000000000000 SWAP1 DIV PUSH1 0xFF AND PUSH1 0x8 DUP2 GT ISZERO PUSH2 0x2640 JUMPI INVALID JUMPDEST SWAP6 POP PUSH1 0x0 PUSH1 0x8 DUP2 GT ISZERO PUSH2 0x264F JUMPI INVALID JUMPDEST DUP7 PUSH1 0x8 DUP2 GT ISZERO PUSH2 0x265B JUMPI INVALID JUMPDEST EQ ISZERO PUSH2 0x26D3 JUMPI PUSH1 0x40 DUP1 MLOAD SWAP1 DUP2 ADD PUSH1 0x40 MSTORE DUP1 PUSH1 0x11 DUP2 MSTORE PUSH1 0x20 ADD PUSH32 0x5349474E41545552455F494C4C4547414C000000000000000000000000000000 DUP2 MSTORE POP PUSH1 0x40 MLOAD PUSH32 0x8C379A000000000000000000000000000000000000000000000000000000000 DUP2 MSTORE PUSH1 0x4 ADD PUSH2 0x26CA SWAP2 SWAP1 PUSH2 0x6436 JUMP JUMPDEST PUSH1 0x40 MLOAD DUP1 SWAP2 SUB SWAP1 REVERT JUMPDEST PUSH1 0x1 PUSH1 0x8 DUP2 GT ISZERO PUSH2 0x26E0 JUMPI INVALID JUMPDEST DUP7 PUSH1 0x8 DUP2 GT ISZERO PUSH2 0x26EC JUMPI INVALID JUMPDEST EQ ISZERO PUSH2 0x277D JUMPI PUSH1 0x0 DUP9 MLOAD EQ PUSH1 0x40 DUP1 MLOAD SWAP1 DUP2 ADD PUSH1 0x40 MSTORE DUP1 PUSH1 0x11 DUP2 MSTORE PUSH1 0x20 ADD PUSH32 0x4C454E4754485F315F5245515549524544000000000000000000000000000000 DUP2 MSTORE POP SWAP1 ISZERO ISZERO PUSH2 0x2770 JUMPI PUSH1 0x40 MLOAD PUSH32 0x8C379A000000000000000000000000000000000000000000000000000000000 DUP2 MSTORE PUSH1 0x4 ADD PUSH2 0x2767 SWAP2 SWAP1 PUSH2 0x6436 JUMP JUMPDEST PUSH1 0x40 MLOAD DUP1 SWAP2 SUB SWAP1 REVERT JUMPDEST POP PUSH1 0x0 SWAP7 POP DUP7 SWAP7 POP PUSH2 0x339C JUMP JUMPDEST PUSH1 0x2 PUSH1 0x8 DUP2 GT ISZERO PUSH2 0x278A JUMPI INVALID JUMPDEST DUP7 PUSH1 0x8 DUP2 GT ISZERO PUSH2 0x2796 JUMPI INVALID JUMPDEST EQ ISZERO PUSH2 0x2940 JUMPI PUSH1 0x41 DUP9 MLOAD EQ PUSH1 0x40 DUP1 MLOAD SWAP1 DUP2 ADD PUSH1 0x40 MSTORE DUP1 PUSH1 0x12 DUP2 MSTORE PUSH1 0x20 ADD PUSH32 0x4C454E4754485F36365F52455155495245440000000000000000000000000000 DUP2 MSTORE POP SWAP1 ISZERO ISZERO PUSH2 0x281A JUMPI PUSH1 0x40 MLOAD PUSH32 0x8C379A000000000000000000000000000000000000000000000000000000000 DUP2 MSTORE PUSH1 0x4 ADD PUSH2 0x2811 SWAP2 SWAP1 PUSH2 0x6436 JUMP JUMPDEST PUSH1 0x40 MLOAD DUP1 SWAP2 SUB SWAP1 REVERT JUMPDEST POP DUP8 PUSH1 0x0 DUP2 MLOAD DUP2 LT ISZERO ISZERO PUSH2 0x282A JUMPI INVALID JUMPDEST SWAP1 PUSH1 0x20 ADD ADD MLOAD PUSH32 0x100000000000000000000000000000000000000000000000000000000000000 SWAP1 DIV PUSH32 0x100000000000000000000000000000000000000000000000000000000000000 MUL PUSH32 0x100000000000000000000000000000000000000000000000000000000000000 SWAP1 DIV SWAP5 POP PUSH2 0x28A5 DUP9 PUSH1 0x1 PUSH2 0x4E69 JUMP JUMPDEST SWAP4 POP PUSH2 0x28B2 DUP9 PUSH1 0x21 PUSH2 0x4E69 JUMP JUMPDEST SWAP3 POP PUSH1 0x1 DUP11 DUP7 DUP7 DUP7 PUSH1 0x40 MLOAD PUSH1 0x0 DUP2 MSTORE PUSH1 0x20 ADD PUSH1 0x40 MSTORE PUSH1 0x40 MLOAD PUSH2 0x28D7 SWAP5 SWAP4 SWAP3 SWAP2 SWAP1 PUSH2 0x6331 JUMP JUMPDEST PUSH1 0x20 PUSH1 0x40 MLOAD PUSH1 0x20 DUP2 SUB SWAP1 DUP1 DUP5 SUB SWAP1 PUSH1 0x0 DUP7 GAS CALL ISZERO DUP1 ISZERO PUSH2 0x28FB JUMPI RETURNDATASIZE PUSH1 0x0 DUP1 RETURNDATACOPY RETURNDATASIZE PUSH1 0x0 REVERT JUMPDEST POP POP POP PUSH1 0x20 PUSH1 0x40 MLOAD SUB MLOAD SWAP2 POP DUP2 PUSH20 0xFFFFFFFFFFFFFFFFFFFFFFFFFFFFFFFFFFFFFFFF AND DUP10 PUSH20 0xFFFFFFFFFFFFFFFFFFFFFFFFFFFFFFFFFFFFFFFF AND EQ SWAP7 POP DUP7 SWAP7 POP PUSH2 0x339C JUMP JUMPDEST PUSH1 0x3 PUSH1 0x8 DUP2 GT ISZERO PUSH2 0x294D JUMPI INVALID JUMPDEST DUP7 PUSH1 0x8 DUP2 GT ISZERO PUSH2 0x2959 JUMPI INVALID JUMPDEST EQ ISZERO PUSH2 0x2C16 JUMPI PUSH1 0x41 DUP9 MLOAD EQ PUSH1 0x40 DUP1 MLOAD SWAP1 DUP2 ADD PUSH1 0x40 MSTORE DUP1 PUSH1 0x12 DUP2 MSTORE PUSH1 0x20 ADD PUSH32 0x4C454E4754485F36365F52455155495245440000000000000000000000000000 DUP2 MSTORE POP SWAP1 ISZERO ISZERO PUSH2 0x29DD JUMPI PUSH1 0x40 MLOAD PUSH32 0x8C379A000000000000000000000000000000000000000000000000000000000 DUP2 MSTORE PUSH1 0x4 ADD PUSH2 0x29D4 SWAP2 SWAP1 PUSH2 0x6436 JUMP JUMPDEST PUSH1 0x40 MLOAD DUP1 SWAP2 SUB SWAP1 REVERT JUMPDEST POP DUP8 PUSH1 0x0 DUP2 MLOAD DUP2 LT ISZERO ISZERO PUSH2 0x29ED JUMPI INVALID JUMPDEST SWAP1 PUSH1 0x20 ADD ADD MLOAD PUSH32 0x100000000000000000000000000000000000000000000000000000000000000 SWAP1 DIV PUSH32 0x100000000000000000000000000000000000000000000000000000000000000 MUL PUSH32 0x100000000000000000000000000000000000000000000000000000000000000 SWAP1 DIV SWAP5 POP PUSH2 0x2A68 DUP9 PUSH1 0x1 PUSH2 0x4E69 JUMP JUMPDEST SWAP4 POP PUSH2 0x2A75 DUP9 PUSH1 0x21 PUSH2 0x4E69 JUMP JUMPDEST SWAP3 POP PUSH1 0x1 PUSH1 0x40 DUP1 MLOAD SWAP1 DUP2 ADD PUSH1 0x40 MSTORE DUP1 PUSH1 0x1C DUP2 MSTORE PUSH1 0x20 ADD PUSH32 0x19457468657265756D205369676E6564204D6573736167653A0A333200000000 DUP2 MSTORE POP DUP12 PUSH1 0x40 MLOAD PUSH1 0x20 ADD DUP1 DUP4 DUP1 MLOAD SWAP1 PUSH1 0x20 ADD SWAP1 DUP1 DUP4 DUP4 JUMPDEST PUSH1 0x20 DUP4 LT ISZERO ISZERO PUSH2 0x2AE8 JUMPI DUP1 MLOAD DUP3 MSTORE PUSH1 0x20 DUP3 ADD SWAP2 POP PUSH1 0x20 DUP2 ADD SWAP1 POP PUSH1 0x20 DUP4 SUB SWAP3 POP PUSH2 0x2AC3 JUMP JUMPDEST PUSH1 0x1 DUP4 PUSH1 0x20 SUB PUSH2 0x100 EXP SUB DUP1 NOT DUP3 MLOAD AND DUP2 DUP5 MLOAD AND DUP1 DUP3 OR DUP6 MSTORE POP POP POP POP POP POP SWAP1 POP ADD DUP3 PUSH1 0x0 NOT AND PUSH1 0x0 NOT AND DUP2 MSTORE PUSH1 0x20 ADD SWAP3 POP POP POP PUSH1 0x40 MLOAD PUSH1 0x20 DUP2 DUP4 SUB SUB DUP2 MSTORE SWAP1 PUSH1 0x40 MSTORE PUSH1 0x40 MLOAD DUP1 DUP3 DUP1 MLOAD SWAP1 PUSH1 0x20 ADD SWAP1 DUP1 DUP4 DUP4 JUMPDEST PUSH1 0x20 DUP4 LT ISZERO ISZERO PUSH2 0x2B60 JUMPI DUP1 MLOAD DUP3 MSTORE PUSH1 0x20 DUP3 ADD SWAP2 POP PUSH1 0x20 DUP2 ADD SWAP1 POP PUSH1 0x20 DUP4 SUB SWAP3 POP PUSH2 0x2B3B JUMP JUMPDEST PUSH1 0x1 DUP4 PUSH1 0x20 SUB PUSH2 0x100 EXP SUB DUP1 NOT DUP3 MLOAD AND DUP2 DUP5 MLOAD AND DUP1 DUP3 OR DUP6 MSTORE POP POP POP POP POP POP SWAP1 POP ADD SWAP2 POP POP PUSH1 0x40 MLOAD DUP1 SWAP2 SUB SWAP1 KECCAK256 DUP7 DUP7 DUP7 PUSH1 0x40 MLOAD PUSH1 0x0 DUP2 MSTORE PUSH1 0x20 ADD PUSH1 0x40 MSTORE PUSH1 0x40 MLOAD PUSH2 0x2BAD SWAP5 SWAP4 SWAP3 SWAP2 SWAP1 PUSH2 0x6331 JUMP JUMPDEST PUSH1 0x20 PUSH1 0x40 MLOAD PUSH1 0x20 DUP2 SUB SWAP1 DUP1 DUP5 SUB SWAP1 PUSH1 0x0 DUP7 GAS CALL ISZERO DUP1 ISZERO PUSH2 0x2BD1 JUMPI RETURNDATASIZE PUSH1 0x0 DUP1 RETURNDATACOPY RETURNDATASIZE PUSH1 0x0 REVERT JUMPDEST POP POP POP PUSH1 0x20 PUSH1 0x40 MLOAD SUB MLOAD SWAP2 POP DUP2 PUSH20 0xFFFFFFFFFFFFFFFFFFFFFFFFFFFFFFFFFFFFFFFF AND DUP10 PUSH20 0xFFFFFFFFFFFFFFFFFFFFFFFFFFFFFFFFFFFFFFFF AND EQ SWAP7 POP DUP7 SWAP7 POP PUSH2 0x339C JUMP JUMPDEST PUSH1 0x4 PUSH1 0x8 DUP2 GT ISZERO PUSH2 0x2C23 JUMPI INVALID JUMPDEST DUP7 PUSH1 0x8 DUP2 GT ISZERO PUSH2 0x2C2F JUMPI INVALID JUMPDEST EQ ISZERO PUSH2 0x2CED JUMPI PUSH1 0x0 DUP9 MLOAD EQ PUSH1 0x40 DUP1 MLOAD SWAP1 DUP2 ADD PUSH1 0x40 MSTORE DUP1 PUSH1 0x11 DUP2 MSTORE PUSH1 0x20 ADD PUSH32 0x4C454E4754485F315F5245515549524544000000000000000000000000000000 DUP2 MSTORE POP SWAP1 ISZERO ISZERO PUSH2 0x2CB3 JUMPI PUSH1 0x40 MLOAD PUSH32 0x8C379A000000000000000000000000000000000000000000000000000000000 DUP2 MSTORE PUSH1 0x4 ADD PUSH2 0x2CAA SWAP2 SWAP1 PUSH2 0x6436 JUMP JUMPDEST PUSH1 0x40 MLOAD DUP1 SWAP2 SUB SWAP1 REVERT JUMPDEST POP CALLER PUSH20 0xFFFFFFFFFFFFFFFFFFFFFFFFFFFFFFFFFFFFFFFF AND DUP10 PUSH20 0xFFFFFFFFFFFFFFFFFFFFFFFFFFFFFFFFFFFFFFFF AND EQ SWAP7 POP DUP7 SWAP7 POP PUSH2 0x339C JUMP JUMPDEST PUSH1 0x5 PUSH1 0x8 DUP2 GT ISZERO PUSH2 0x2CFA JUMPI INVALID JUMPDEST DUP7 PUSH1 0x8 DUP2 GT ISZERO PUSH2 0x2D06 JUMPI INVALID JUMPDEST EQ ISZERO PUSH2 0x2DBF JUMPI DUP9 PUSH20 0xFFFFFFFFFFFFFFFFFFFFFFFFFFFFFFFFFFFFFFFF AND PUSH4 0x1626BA7E DUP12 DUP11 PUSH1 0x40 MLOAD DUP4 PUSH4 0xFFFFFFFF AND PUSH29 0x100000000000000000000000000000000000000000000000000000000 MUL DUP2 MSTORE PUSH1 0x4 ADD PUSH2 0x2D63 SWAP3 SWAP2 SWAP1 PUSH2 0x6301 JUMP JUMPDEST PUSH1 0x20 PUSH1 0x40 MLOAD DUP1 DUP4 SUB DUP2 PUSH1 0x0 DUP8 DUP1 EXTCODESIZE ISZERO DUP1 ISZERO PUSH2 0x2D7D JUMPI PUSH1 0x0 DUP1 REVERT JUMPDEST POP GAS CALL ISZERO DUP1 ISZERO PUSH2 0x2D91 JUMPI RETURNDATASIZE PUSH1 0x0 DUP1 RETURNDATACOPY RETURNDATASIZE PUSH1 0x0 REVERT JUMPDEST POP POP POP POP PUSH1 0x40 MLOAD RETURNDATASIZE PUSH1 0x1F NOT PUSH1 0x1F DUP3 ADD AND DUP3 ADD DUP1 PUSH1 0x40 MSTORE POP PUSH2 0x2DB5 SWAP2 SWAP1 DUP2 ADD SWAP1 PUSH2 0x5BA5 JUMP JUMPDEST SWAP7 POP DUP7 SWAP7 POP PUSH2 0x339C JUMP JUMPDEST PUSH1 0x6 PUSH1 0x8 DUP2 GT ISZERO PUSH2 0x2DCC JUMPI INVALID JUMPDEST DUP7 PUSH1 0x8 DUP2 GT ISZERO PUSH2 0x2DD8 JUMPI INVALID JUMPDEST EQ ISZERO PUSH2 0x2F37 JUMPI PUSH2 0x2DE7 DUP9 PUSH2 0x4F29 JUMP JUMPDEST SWAP1 POP PUSH1 0x6 PUSH1 0x0 DUP11 PUSH20 0xFFFFFFFFFFFFFFFFFFFFFFFFFFFFFFFFFFFFFFFF AND PUSH20 0xFFFFFFFFFFFFFFFFFFFFFFFFFFFFFFFFFFFFFFFF AND DUP2 MSTORE PUSH1 0x20 ADD SWAP1 DUP2 MSTORE PUSH1 0x20 ADD PUSH1 0x0 KECCAK256 PUSH1 0x0 DUP3 PUSH20 0xFFFFFFFFFFFFFFFFFFFFFFFFFFFFFFFFFFFFFFFF AND PUSH20 0xFFFFFFFFFFFFFFFFFFFFFFFFFFFFFFFFFFFFFFFF AND DUP2 MSTORE PUSH1 0x20 ADD SWAP1 DUP2 MSTORE PUSH1 0x20 ADD PUSH1 0x0 KECCAK256 PUSH1 0x0 SWAP1 SLOAD SWAP1 PUSH2 0x100 EXP SWAP1 DIV PUSH1 0xFF AND ISZERO ISZERO PUSH2 0x2E82 JUMPI PUSH1 0x0 SWAP7 POP PUSH2 0x339C JUMP JUMPDEST DUP1 PUSH20 0xFFFFFFFFFFFFFFFFFFFFFFFFFFFFFFFFFFFFFFFF AND PUSH4 0x93634702 DUP12 DUP12 DUP12 PUSH1 0x40 MLOAD DUP5 PUSH4 0xFFFFFFFF AND PUSH29 0x100000000000000000000000000000000000000000000000000000000 MUL DUP2 MSTORE PUSH1 0x4 ADD PUSH2 0x2EDB SWAP4 SWAP3 SWAP2 SWAP1 PUSH2 0x62C3 JUMP JUMPDEST PUSH1 0x20 PUSH1 0x40 MLOAD DUP1 DUP4 SUB DUP2 PUSH1 0x0 DUP8 DUP1 EXTCODESIZE ISZERO DUP1 ISZERO PUSH2 0x2EF5 JUMPI PUSH1 0x0 DUP1 REVERT JUMPDEST POP GAS CALL ISZERO DUP1 ISZERO PUSH2 0x2F09 JUMPI RETURNDATASIZE PUSH1 0x0 DUP1 RETURNDATACOPY RETURNDATASIZE PUSH1 0x0 REVERT JUMPDEST POP POP POP POP PUSH1 0x40 MLOAD RETURNDATASIZE PUSH1 0x1F NOT PUSH1 0x1F DUP3 ADD AND DUP3 ADD DUP1 PUSH1 0x40 MSTORE POP PUSH2 0x2F2D SWAP2 SWAP1 DUP2 ADD SWAP1 PUSH2 0x5BA5 JUMP JUMPDEST SWAP7 POP DUP7 SWAP7 POP PUSH2 0x339C JUMP JUMPDEST PUSH1 0x7 PUSH1 0x8 DUP2 GT ISZERO PUSH2 0x2F44 JUMPI INVALID JUMPDEST DUP7 PUSH1 0x8 DUP2 GT ISZERO PUSH2 0x2F50 JUMPI INVALID JUMPDEST EQ ISZERO PUSH2 0x2FC6 JUMPI PUSH1 0x5 PUSH1 0x0 DUP12 PUSH1 0x0 NOT AND PUSH1 0x0 NOT AND DUP2 MSTORE PUSH1 0x20 ADD SWAP1 DUP2 MSTORE PUSH1 0x20 ADD PUSH1 0x0 KECCAK256 PUSH1 0x0 DUP11 PUSH20 0xFFFFFFFFFFFFFFFFFFFFFFFFFFFFFFFFFFFFFFFF AND PUSH20 0xFFFFFFFFFFFFFFFFFFFFFFFFFFFFFFFFFFFFFFFF AND DUP2 MSTORE PUSH1 0x20 ADD SWAP1 DUP2 MSTORE PUSH1 0x20 ADD PUSH1 0x0 KECCAK256 PUSH1 0x0 SWAP1 SLOAD SWAP1 PUSH2 0x100 EXP SWAP1 DIV PUSH1 0xFF AND SWAP7 POP DUP7 SWAP7 POP PUSH2 0x339C JUMP JUMPDEST PUSH1 0x8 DUP1 DUP2 GT ISZERO PUSH2 0x2FD2 JUMPI INVALID JUMPDEST DUP7 PUSH1 0x8 DUP2 GT ISZERO PUSH2 0x2FDE JUMPI INVALID JUMPDEST EQ ISZERO PUSH2 0x329B JUMPI PUSH1 0x41 DUP9 MLOAD EQ PUSH1 0x40 DUP1 MLOAD SWAP1 DUP2 ADD PUSH1 0x40 MSTORE DUP1 PUSH1 0x12 DUP2 MSTORE PUSH1 0x20 ADD PUSH32 0x4C454E4754485F36365F52455155495245440000000000000000000000000000 DUP2 MSTORE POP SWAP1 ISZERO ISZERO PUSH2 0x3062 JUMPI PUSH1 0x40 MLOAD PUSH32 0x8C379A000000000000000000000000000000000000000000000000000000000 DUP2 MSTORE PUSH1 0x4 ADD PUSH2 0x3059 SWAP2 SWAP1 PUSH2 0x6436 JUMP JUMPDEST PUSH1 0x40 MLOAD DUP1 SWAP2 SUB SWAP1 REVERT JUMPDEST POP DUP8 PUSH1 0x0 DUP2 MLOAD DUP2 LT ISZERO ISZERO PUSH2 0x3072 JUMPI INVALID JUMPDEST SWAP1 PUSH1 0x20 ADD ADD MLOAD PUSH32 0x100000000000000000000000000000000000000000000000000000000000000 SWAP1 DIV PUSH32 0x100000000000000000000000000000000000000000000000000000000000000 MUL PUSH32 0x100000000000000000000000000000000000000000000000000000000000000 SWAP1 DIV SWAP5 POP PUSH2 0x30ED DUP9 PUSH1 0x1 PUSH2 0x4E69 JUMP JUMPDEST SWAP4 POP PUSH2 0x30FA DUP9 PUSH1 0x21 PUSH2 0x4E69 JUMP JUMPDEST SWAP3 POP PUSH1 0x1 PUSH1 0x40 DUP1 MLOAD SWAP1 DUP2 ADD PUSH1 0x40 MSTORE DUP1 PUSH1 0x1B DUP2 MSTORE PUSH1 0x20 ADD PUSH32 0x19457468657265756D205369676E6564204D6573736167653A0A410000000000 DUP2 MSTORE POP DUP12 PUSH1 0x40 MLOAD PUSH1 0x20 ADD DUP1 DUP4 DUP1 MLOAD SWAP1 PUSH1 0x20 ADD SWAP1 DUP1 DUP4 DUP4 JUMPDEST PUSH1 0x20 DUP4 LT ISZERO ISZERO PUSH2 0x316D JUMPI DUP1 MLOAD DUP3 MSTORE PUSH1 0x20 DUP3 ADD SWAP2 POP PUSH1 0x20 DUP2 ADD SWAP1 POP PUSH1 0x20 DUP4 SUB SWAP3 POP PUSH2 0x3148 JUMP JUMPDEST PUSH1 0x1 DUP4 PUSH1 0x20 SUB PUSH2 0x100 EXP SUB DUP1 NOT DUP3 MLOAD AND DUP2 DUP5 MLOAD AND DUP1 DUP3 OR DUP6 MSTORE POP POP POP POP POP POP SWAP1 POP ADD DUP3 PUSH1 0x0 NOT AND PUSH1 0x0 NOT AND DUP2 MSTORE PUSH1 0x20 ADD SWAP3 POP POP POP PUSH1 0x40 MLOAD PUSH1 0x20 DUP2 DUP4 SUB SUB DUP2 MSTORE SWAP1 PUSH1 0x40 MSTORE PUSH1 0x40 MLOAD DUP1 DUP3 DUP1 MLOAD SWAP1 PUSH1 0x20 ADD SWAP1 DUP1 DUP4 DUP4 JUMPDEST PUSH1 0x20 DUP4 LT ISZERO ISZERO PUSH2 0x31E5 JUMPI DUP1 MLOAD DUP3 MSTORE PUSH1 0x20 DUP3 ADD SWAP2 POP PUSH1 0x20 DUP2 ADD SWAP1 POP PUSH1 0x20 DUP4 SUB SWAP3 POP PUSH2 0x31C0 JUMP JUMPDEST PUSH1 0x1 DUP4 PUSH1 0x20 SUB PUSH2 0x100 EXP SUB DUP1 NOT DUP3 MLOAD AND DUP2 DUP5 MLOAD AND DUP1 DUP3 OR DUP6 MSTORE POP POP POP POP POP POP SWAP1 POP ADD SWAP2 POP POP PUSH1 0x40 MLOAD DUP1 SWAP2 SUB SWAP1 KECCAK256 DUP7 DUP7 DUP7 PUSH1 0x40 MLOAD PUSH1 0x0 DUP2 MSTORE PUSH1 0x20 ADD PUSH1 0x40 MSTORE PUSH1 0x40 MLOAD PUSH2 0x3232 SWAP5 SWAP4 SWAP3 SWAP2 SWAP1 PUSH2 0x6331 JUMP JUMPDEST PUSH1 0x20 PUSH1 0x40 MLOAD PUSH1 0x20 DUP2 SUB SWAP1 DUP1 DUP5 SUB SWAP1 PUSH1 0x0 DUP7 GAS CALL ISZERO DUP1 ISZERO PUSH2 0x3256 JUMPI RETURNDATASIZE PUSH1 0x0 DUP1 RETURNDATACOPY RETURNDATASIZE PUSH1 0x0 REVERT JUMPDEST POP POP POP PUSH1 0x20 PUSH1 0x40 MLOAD SUB MLOAD SWAP2 POP DUP2 PUSH20 0xFFFFFFFFFFFFFFFFFFFFFFFFFFFFFFFFFFFFFFFF AND DUP10 PUSH20 0xFFFFFFFFFFFFFFFFFFFFFFFFFFFFFFFFFFFFFFFF AND EQ SWAP7 POP DUP7 SWAP7 POP PUSH2 0x339C JUMP JUMPDEST PUSH1 0x7 PUSH1 0x8 DUP2 GT ISZERO PUSH2 0x32A8 JUMPI INVALID JUMPDEST DUP7 PUSH1 0x8 DUP2 GT ISZERO PUSH2 0x32B4 JUMPI INVALID JUMPDEST EQ ISZERO PUSH2 0x332A JUMPI PUSH1 0x5 PUSH1 0x0 DUP12 PUSH1 0x0 NOT AND PUSH1 0x0 NOT AND DUP2 MSTORE PUSH1 0x20 ADD SWAP1 DUP2 MSTORE PUSH1 0x20 ADD PUSH1 0x0 KECCAK256 PUSH1 0x0 DUP11 PUSH20 0xFFFFFFFFFFFFFFFFFFFFFFFFFFFFFFFFFFFFFFFF AND PUSH20 0xFFFFFFFFFFFFFFFFFFFFFFFFFFFFFFFFFFFFFFFF AND DUP2 MSTORE PUSH1 0x20 ADD SWAP1 DUP2 MSTORE PUSH1 0x20 ADD PUSH1 0x0 KECCAK256 PUSH1 0x0 SWAP1 SLOAD SWAP1 PUSH2 0x100 EXP SWAP1 DIV PUSH1 0xFF AND SWAP7 POP DUP7 SWAP7 POP PUSH2 0x339C JUMP JUMPDEST PUSH1 0x40 DUP1 MLOAD SWAP1 DUP2 ADD PUSH1 0x40 MSTORE DUP1 PUSH1 0x15 DUP2 MSTORE PUSH1 0x20 ADD PUSH32 0x5349474E41545552455F554E535550504F525445440000000000000000000000 DUP2 MSTORE POP PUSH1 0x40 MLOAD PUSH32 0x8C379A000000000000000000000000000000000000000000000000000000000 DUP2 MSTORE PUSH1 0x4 ADD PUSH2 0x3393 SWAP2 SWAP1 PUSH2 0x6436 JUMP JUMPDEST PUSH1 0x40 MLOAD DUP1 SWAP2 SUB SWAP1 REVERT JUMPDEST POP POP POP POP POP POP SWAP4 SWAP3 POP POP POP JUMP JUMPDEST PUSH1 0x0 DUP1 PUSH1 0x0 PUSH20 0xFFFFFFFFFFFFFFFFFFFFFFFFFFFFFFFFFFFFFFFF AND PUSH1 0x8 PUSH1 0x0 SWAP1 SLOAD SWAP1 PUSH2 0x100 EXP SWAP1 DIV PUSH20 0xFFFFFFFFFFFFFFFFFFFFFFFFFFFFFFFFFFFFFFFF AND PUSH20 0xFFFFFFFFFFFFFFFFFFFFFFFFFFFFFFFFFFFFFFFF AND EQ PUSH2 0x342A JUMPI PUSH1 0x8 PUSH1 0x0 SWAP1 SLOAD SWAP1 PUSH2 0x100 EXP SWAP1 DIV PUSH20 0xFFFFFFFFFFFFFFFFFFFFFFFFFFFFFFFFFFFFFFFF AND PUSH2 0x342C JUMP JUMPDEST CALLER JUMPDEST SWAP1 POP DUP1 SWAP2 POP POP SWAP1 JUMP JUMPDEST PUSH2 0x3447 DUP3 PUSH1 0xA0 ADD MLOAD DUP3 PUSH1 0xA0 ADD MLOAD PUSH2 0x4FF3 JUMP JUMPDEST PUSH2 0x3459 DUP4 PUSH1 0x80 ADD MLOAD DUP4 PUSH1 0x80 ADD MLOAD PUSH2 0x4FF3 JUMP JUMPDEST LT ISZERO PUSH1 0x40 DUP1 MLOAD SWAP1 DUP2 ADD PUSH1 0x40 MSTORE DUP1 PUSH1 0x18 DUP2 MSTORE PUSH1 0x20 ADD PUSH32 0x4E454741544956455F5350524541445F52455155495245440000000000000000 DUP2 MSTORE POP SWAP1 ISZERO ISZERO PUSH2 0x34D4 JUMPI PUSH1 0x40 MLOAD PUSH32 0x8C379A000000000000000000000000000000000000000000000000000000000 DUP2 MSTORE PUSH1 0x4 ADD PUSH2 0x34CB SWAP2 SWAP1 PUSH2 0x6436 JUMP JUMPDEST PUSH1 0x40 MLOAD DUP1 SWAP2 SUB SWAP1 REVERT JUMPDEST POP POP POP JUMP JUMPDEST PUSH2 0x34E1 PUSH2 0x5373 JUMP JUMPDEST PUSH1 0x0 DUP1 PUSH1 0x0 DUP1 PUSH2 0x34F5 DUP10 PUSH1 0xA0 ADD MLOAD DUP9 PUSH2 0x3F1E JUMP JUMPDEST SWAP4 POP PUSH2 0x3505 DUP9 PUSH1 0xA0 ADD MLOAD DUP8 PUSH2 0x3F1E JUMP JUMPDEST SWAP3 POP PUSH2 0x3515 DUP4 DUP10 PUSH1 0x80 ADD MLOAD PUSH2 0x4FF3 JUMP JUMPDEST PUSH2 0x3523 DUP6 DUP11 PUSH1 0xA0 ADD MLOAD PUSH2 0x4FF3 JUMP JUMPDEST GT ISZERO ISZERO PUSH2 0x3547 JUMPI DUP4 SWAP2 POP PUSH2 0x3540 DUP9 PUSH1 0xA0 ADD MLOAD DUP10 PUSH1 0x80 ADD MLOAD DUP5 PUSH2 0x3FA7 JUMP JUMPDEST SWAP1 POP PUSH2 0x3560 JUMP JUMPDEST DUP3 SWAP1 POP PUSH2 0x355D DUP9 PUSH1 0x80 ADD MLOAD DUP10 PUSH1 0xA0 ADD MLOAD DUP4 PUSH2 0x3FA7 JUMP JUMPDEST SWAP2 POP JUMPDEST PUSH2 0x356A DUP10 DUP4 PUSH2 0x3FE1 JUMP JUMPDEST DUP6 PUSH1 0x0 ADD DUP2 SWAP1 MSTORE POP PUSH2 0x357C DUP9 DUP3 PUSH2 0x3FE1 JUMP JUMPDEST DUP6 PUSH1 0x20 ADD DUP2 SWAP1 MSTORE POP PUSH2 0x359E DUP6 PUSH1 0x0 ADD MLOAD PUSH1 0x0 ADD MLOAD DUP7 PUSH1 0x20 ADD MLOAD PUSH1 0x20 ADD MLOAD PUSH2 0x3F1E JUMP JUMPDEST DUP6 PUSH1 0x40 ADD DUP2 DUP2 MSTORE POP POP DUP5 SWAP5 POP POP POP POP POP SWAP5 SWAP4 POP POP POP POP JUMP JUMPDEST PUSH1 0x3 PUSH1 0x6 DUP2 GT ISZERO PUSH2 0x35C3 JUMPI INVALID JUMPDEST PUSH1 0xFF AND DUP6 PUSH1 0x0 ADD MLOAD PUSH1 0xFF AND EQ PUSH1 0x40 DUP1 MLOAD SWAP1 DUP2 ADD PUSH1 0x40 MSTORE DUP1 PUSH1 0x10 DUP2 MSTORE PUSH1 0x20 ADD PUSH32 0x4F524445525F554E46494C4C41424C4500000000000000000000000000000000 DUP2 MSTORE POP SWAP1 ISZERO ISZERO PUSH2 0x3648 JUMPI PUSH1 0x40 MLOAD PUSH32 0x8C379A000000000000000000000000000000000000000000000000000000000 DUP2 MSTORE PUSH1 0x4 ADD PUSH2 0x363F SWAP2 SWAP1 PUSH2 0x6436 JUMP JUMPDEST PUSH1 0x40 MLOAD DUP1 SWAP2 SUB SWAP1 REVERT JUMPDEST POP PUSH1 0x0 DUP4 EQ ISZERO PUSH1 0x40 DUP1 MLOAD SWAP1 DUP2 ADD PUSH1 0x40 MSTORE DUP1 PUSH1 0x14 DUP2 MSTORE PUSH1 0x20 ADD PUSH32 0x494E56414C49445F54414B45525F414D4F554E54000000000000000000000000 DUP2 MSTORE POP SWAP1 ISZERO ISZERO PUSH2 0x36C7 JUMPI PUSH1 0x40 MLOAD PUSH32 0x8C379A000000000000000000000000000000000000000000000000000000000 DUP2 MSTORE PUSH1 0x4 ADD PUSH2 0x36BE SWAP2 SWAP1 PUSH2 0x6436 JUMP JUMPDEST PUSH1 0x40 MLOAD DUP1 SWAP2 SUB SWAP1 REVERT JUMPDEST POP PUSH1 0x0 PUSH20 0xFFFFFFFFFFFFFFFFFFFFFFFFFFFFFFFFFFFFFFFF AND DUP7 PUSH1 0x60 ADD MLOAD PUSH20 0xFFFFFFFFFFFFFFFFFFFFFFFFFFFFFFFFFFFFFFFF AND EQ ISZERO ISZERO PUSH2 0x37B0 JUMPI CALLER PUSH20 0xFFFFFFFFFFFFFFFFFFFFFFFFFFFFFFFFFFFFFFFF AND DUP7 PUSH1 0x60 ADD MLOAD PUSH20 0xFFFFFFFFFFFFFFFFFFFFFFFFFFFFFFFFFFFFFFFF AND EQ PUSH1 0x40 DUP1 MLOAD SWAP1 DUP2 ADD PUSH1 0x40 MSTORE DUP1 PUSH1 0xE DUP2 MSTORE PUSH1 0x20 ADD PUSH32 0x494E56414C49445F53454E444552000000000000000000000000000000000000 DUP2 MSTORE POP SWAP1 ISZERO ISZERO PUSH2 0x37AE JUMPI PUSH1 0x40 MLOAD PUSH32 0x8C379A000000000000000000000000000000000000000000000000000000000 DUP2 MSTORE PUSH1 0x4 ADD PUSH2 0x37A5 SWAP2 SWAP1 PUSH2 0x6436 JUMP JUMPDEST PUSH1 0x40 MLOAD DUP1 SWAP2 SUB SWAP1 REVERT JUMPDEST POP JUMPDEST PUSH1 0x0 PUSH20 0xFFFFFFFFFFFFFFFFFFFFFFFFFFFFFFFFFFFFFFFF AND DUP7 PUSH1 0x20 ADD MLOAD PUSH20 0xFFFFFFFFFFFFFFFFFFFFFFFFFFFFFFFFFFFFFFFF AND EQ ISZERO ISZERO PUSH2 0x3898 JUMPI DUP4 PUSH20 0xFFFFFFFFFFFFFFFFFFFFFFFFFFFFFFFFFFFFFFFF AND DUP7 PUSH1 0x20 ADD MLOAD PUSH20 0xFFFFFFFFFFFFFFFFFFFFFFFFFFFFFFFFFFFFFFFF AND EQ PUSH1 0x40 DUP1 MLOAD SWAP1 DUP2 ADD PUSH1 0x40 MSTORE DUP1 PUSH1 0xD DUP2 MSTORE PUSH1 0x20 ADD PUSH32 0x494E56414C49445F54414B455200000000000000000000000000000000000000 DUP2 MSTORE POP SWAP1 ISZERO ISZERO PUSH2 0x3896 JUMPI PUSH1 0x40 MLOAD PUSH32 0x8C379A000000000000000000000000000000000000000000000000000000000 DUP2 MSTORE PUSH1 0x4 ADD PUSH2 0x388D SWAP2 SWAP1 PUSH2 0x6436 JUMP JUMPDEST PUSH1 0x40 MLOAD DUP1 SWAP2 SUB SWAP1 REVERT JUMPDEST POP JUMPDEST PUSH1 0x0 DUP6 PUSH1 0x40 ADD MLOAD EQ ISZERO PUSH2 0x3933 JUMPI PUSH2 0x38B8 DUP6 PUSH1 0x20 ADD MLOAD DUP8 PUSH1 0x0 ADD MLOAD DUP4 PUSH2 0x257D JUMP JUMPDEST PUSH1 0x40 DUP1 MLOAD SWAP1 DUP2 ADD PUSH1 0x40 MSTORE DUP1 PUSH1 0x17 DUP2 MSTORE PUSH1 0x20 ADD PUSH32 0x494E56414C49445F4F524445525F5349474E4154555245000000000000000000 DUP2 MSTORE POP SWAP1 ISZERO ISZERO PUSH2 0x3931 JUMPI PUSH1 0x40 MLOAD PUSH32 0x8C379A000000000000000000000000000000000000000000000000000000000 DUP2 MSTORE PUSH1 0x4 ADD PUSH2 0x3928 SWAP2 SWAP1 PUSH2 0x6436 JUMP JUMPDEST PUSH1 0x40 MLOAD DUP1 SWAP2 SUB SWAP1 REVERT JUMPDEST POP JUMPDEST PUSH2 0x3946 DUP3 DUP8 PUSH1 0xA0 ADD MLOAD DUP9 PUSH1 0x80 ADD MLOAD PUSH2 0x5026 JUMP JUMPDEST ISZERO PUSH1 0x40 DUP1 MLOAD SWAP1 DUP2 ADD PUSH1 0x40 MSTORE DUP1 PUSH1 0xE DUP2 MSTORE PUSH1 0x20 ADD PUSH32 0x524F554E44494E475F4552524F52000000000000000000000000000000000000 DUP2 MSTORE POP SWAP1 ISZERO ISZERO PUSH2 0x39C0 JUMPI PUSH1 0x40 MLOAD PUSH32 0x8C379A000000000000000000000000000000000000000000000000000000000 DUP2 MSTORE PUSH1 0x4 ADD PUSH2 0x39B7 SWAP2 SWAP1 PUSH2 0x6436 JUMP JUMPDEST PUSH1 0x40 MLOAD DUP1 SWAP2 SUB SWAP1 REVERT JUMPDEST POP POP POP POP POP POP POP JUMP JUMPDEST PUSH2 0x39EA DUP5 PUSH2 0x140 ADD MLOAD DUP6 PUSH1 0x0 ADD MLOAD DUP6 PUSH1 0x0 ADD MLOAD DUP5 PUSH1 0x20 ADD MLOAD PUSH1 0x20 ADD MLOAD PUSH2 0x5081 JUMP JUMPDEST PUSH2 0x3A0B DUP4 PUSH2 0x140 ADD MLOAD DUP5 PUSH1 0x0 ADD MLOAD DUP7 PUSH1 0x0 ADD MLOAD DUP5 PUSH1 0x0 ADD MLOAD PUSH1 0x20 ADD MLOAD PUSH2 0x5081 JUMP JUMPDEST PUSH2 0x3A24 DUP5 PUSH2 0x140 ADD MLOAD DUP6 PUSH1 0x0 ADD MLOAD DUP5 DUP5 PUSH1 0x40 ADD MLOAD PUSH2 0x5081 JUMP JUMPDEST PUSH2 0x3ADA PUSH1 0x4 DUP1 SLOAD PUSH1 0x1 DUP2 PUSH1 0x1 AND ISZERO PUSH2 0x100 MUL SUB AND PUSH1 0x2 SWAP1 DIV DUP1 PUSH1 0x1F ADD PUSH1 0x20 DUP1 SWAP2 DIV MUL PUSH1 0x20 ADD PUSH1 0x40 MLOAD SWAP1 DUP2 ADD PUSH1 0x40 MSTORE DUP1 SWAP3 SWAP2 SWAP1 DUP2 DUP2 MSTORE PUSH1 0x20 ADD DUP3 DUP1 SLOAD PUSH1 0x1 DUP2 PUSH1 0x1 AND ISZERO PUSH2 0x100 MUL SUB AND PUSH1 0x2 SWAP1 DIV DUP1 ISZERO PUSH2 0x3ABD JUMPI DUP1 PUSH1 0x1F LT PUSH2 0x3A92 JUMPI PUSH2 0x100 DUP1 DUP4 SLOAD DIV MUL DUP4 MSTORE SWAP2 PUSH1 0x20 ADD SWAP2 PUSH2 0x3ABD JUMP JUMPDEST DUP3 ADD SWAP2 SWAP1 PUSH1 0x0 MSTORE PUSH1 0x20 PUSH1 0x0 KECCAK256 SWAP1 JUMPDEST DUP2 SLOAD DUP2 MSTORE SWAP1 PUSH1 0x1 ADD SWAP1 PUSH1 0x20 ADD DUP1 DUP4 GT PUSH2 0x3AA0 JUMPI DUP3 SWAP1 SUB PUSH1 0x1F AND DUP3 ADD SWAP2 JUMPDEST POP POP POP POP POP DUP6 PUSH1 0x0 ADD MLOAD DUP7 PUSH1 0x40 ADD MLOAD DUP5 PUSH1 0x0 ADD MLOAD PUSH1 0x40 ADD MLOAD PUSH2 0x5081 JUMP JUMPDEST PUSH2 0x3B90 PUSH1 0x4 DUP1 SLOAD PUSH1 0x1 DUP2 PUSH1 0x1 AND ISZERO PUSH2 0x100 MUL SUB AND PUSH1 0x2 SWAP1 DIV DUP1 PUSH1 0x1F ADD PUSH1 0x20 DUP1 SWAP2 DIV MUL PUSH1 0x20 ADD PUSH1 0x40 MLOAD SWAP1 DUP2 ADD PUSH1 0x40 MSTORE DUP1 SWAP3 SWAP2 SWAP1 DUP2 DUP2 MSTORE PUSH1 0x20 ADD DUP3 DUP1 SLOAD PUSH1 0x1 DUP2 PUSH1 0x1 AND ISZERO PUSH2 0x100 MUL SUB AND PUSH1 0x2 SWAP1 DIV DUP1 ISZERO PUSH2 0x3B73 JUMPI DUP1 PUSH1 0x1F LT PUSH2 0x3B48 JUMPI PUSH2 0x100 DUP1 DUP4 SLOAD DIV MUL DUP4 MSTORE SWAP2 PUSH1 0x20 ADD SWAP2 PUSH2 0x3B73 JUMP JUMPDEST DUP3 ADD SWAP2 SWAP1 PUSH1 0x0 MSTORE PUSH1 0x20 PUSH1 0x0 KECCAK256 SWAP1 JUMPDEST DUP2 SLOAD DUP2 MSTORE SWAP1 PUSH1 0x1 ADD SWAP1 PUSH1 0x20 ADD DUP1 DUP4 GT PUSH2 0x3B56 JUMPI DUP3 SWAP1 SUB PUSH1 0x1F AND DUP3 ADD SWAP2 JUMPDEST POP POP POP POP POP DUP5 PUSH1 0x0 ADD MLOAD DUP6 PUSH1 0x40 ADD MLOAD DUP5 PUSH1 0x20 ADD MLOAD PUSH1 0x40 ADD MLOAD PUSH2 0x5081 JUMP JUMPDEST DUP3 PUSH1 0x40 ADD MLOAD PUSH20 0xFFFFFFFFFFFFFFFFFFFFFFFFFFFFFFFFFFFFFFFF AND DUP5 PUSH1 0x40 ADD MLOAD PUSH20 0xFFFFFFFFFFFFFFFFFFFFFFFFFFFFFFFFFFFFFFFF AND EQ ISZERO PUSH2 0x3C94 JUMPI PUSH2 0x3C8F PUSH1 0x4 DUP1 SLOAD PUSH1 0x1 DUP2 PUSH1 0x1 AND ISZERO PUSH2 0x100 MUL SUB AND PUSH1 0x2 SWAP1 DIV DUP1 PUSH1 0x1F ADD PUSH1 0x20 DUP1 SWAP2 DIV MUL PUSH1 0x20 ADD PUSH1 0x40 MLOAD SWAP1 DUP2 ADD PUSH1 0x40 MSTORE DUP1 SWAP3 SWAP2 SWAP1 DUP2 DUP2 MSTORE PUSH1 0x20 ADD DUP3 DUP1 SLOAD PUSH1 0x1 DUP2 PUSH1 0x1 AND ISZERO PUSH2 0x100 MUL SUB AND PUSH1 0x2 SWAP1 DIV DUP1 ISZERO PUSH2 0x3C65 JUMPI DUP1 PUSH1 0x1F LT PUSH2 0x3C3A JUMPI PUSH2 0x100 DUP1 DUP4 SLOAD DIV MUL DUP4 MSTORE SWAP2 PUSH1 0x20 ADD SWAP2 PUSH2 0x3C65 JUMP JUMPDEST DUP3 ADD SWAP2 SWAP1 PUSH1 0x0 MSTORE PUSH1 0x20 PUSH1 0x0 KECCAK256 SWAP1 JUMPDEST DUP2 SLOAD DUP2 MSTORE SWAP1 PUSH1 0x1 ADD SWAP1 PUSH1 0x20 ADD DUP1 DUP4 GT PUSH2 0x3C48 JUMPI DUP3 SWAP1 SUB PUSH1 0x1F AND DUP3 ADD SWAP2 JUMPDEST POP POP POP POP POP DUP4 DUP7 PUSH1 0x40 ADD MLOAD PUSH2 0x3C8A DUP6 PUSH1 0x0 ADD MLOAD PUSH1 0x60 ADD MLOAD DUP7 PUSH1 0x20 ADD MLOAD PUSH1 0x60 ADD MLOAD PUSH2 0x5264 JUMP JUMPDEST PUSH2 0x5081 JUMP JUMPDEST PUSH2 0x3DF9 JUMP JUMPDEST PUSH2 0x3D46 PUSH1 0x4 DUP1 SLOAD PUSH1 0x1 DUP2 PUSH1 0x1 AND ISZERO PUSH2 0x100 MUL SUB AND PUSH1 0x2 SWAP1 DIV DUP1 PUSH1 0x1F ADD PUSH1 0x20 DUP1 SWAP2 DIV MUL PUSH1 0x20 ADD PUSH1 0x40 MLOAD SWAP1 DUP2 ADD PUSH1 0x40 MSTORE DUP1 SWAP3 SWAP2 SWAP1 DUP2 DUP2 MSTORE PUSH1 0x20 ADD DUP3 DUP1 SLOAD PUSH1 0x1 DUP2 PUSH1 0x1 AND ISZERO PUSH2 0x100 MUL SUB AND PUSH1 0x2 SWAP1 DIV DUP1 ISZERO PUSH2 0x3D2D JUMPI DUP1 PUSH1 0x1F LT PUSH2 0x3D02 JUMPI PUSH2 0x100 DUP1 DUP4 SLOAD DIV MUL DUP4 MSTORE SWAP2 PUSH1 0x20 ADD SWAP2 PUSH2 0x3D2D JUMP JUMPDEST DUP3 ADD SWAP2 SWAP1 PUSH1 0x0 MSTORE PUSH1 0x20 PUSH1 0x0 KECCAK256 SWAP1 JUMPDEST DUP2 SLOAD DUP2 MSTORE SWAP1 PUSH1 0x1 ADD SWAP1 PUSH1 0x20 ADD DUP1 DUP4 GT PUSH2 0x3D10 JUMPI DUP3 SWAP1 SUB PUSH1 0x1F AND DUP3 ADD SWAP2 JUMPDEST POP POP POP POP POP DUP4 DUP7 PUSH1 0x40 ADD MLOAD DUP5 PUSH1 0x0 ADD MLOAD PUSH1 0x60 ADD MLOAD PUSH2 0x5081 JUMP JUMPDEST PUSH2 0x3DF8 PUSH1 0x4 DUP1 SLOAD PUSH1 0x1 DUP2 PUSH1 0x1 AND ISZERO PUSH2 0x100 MUL SUB AND PUSH1 0x2 SWAP1 DIV DUP1 PUSH1 0x1F ADD PUSH1 0x20 DUP1 SWAP2 DIV MUL PUSH1 0x20 ADD PUSH1 0x40 MLOAD SWAP1 DUP2 ADD PUSH1 0x40 MSTORE DUP1 SWAP3 SWAP2 SWAP1 DUP2 DUP2 MSTORE PUSH1 0x20 ADD DUP3 DUP1 SLOAD PUSH1 0x1 DUP2 PUSH1 0x1 AND ISZERO PUSH2 0x100 MUL SUB AND PUSH1 0x2 SWAP1 DIV DUP1 ISZERO PUSH2 0x3DDF JUMPI DUP1 PUSH1 0x1F LT PUSH2 0x3DB4 JUMPI PUSH2 0x100 DUP1 DUP4 SLOAD DIV MUL DUP4 MSTORE SWAP2 PUSH1 0x20 ADD SWAP2 PUSH2 0x3DDF JUMP JUMPDEST DUP3 ADD SWAP2 SWAP1 PUSH1 0x0 MSTORE PUSH1 0x20 PUSH1 0x0 KECCAK256 SWAP1 JUMPDEST DUP2 SLOAD DUP2 MSTORE SWAP1 PUSH1 0x1 ADD SWAP1 PUSH1 0x20 ADD DUP1 DUP4 GT PUSH2 0x3DC2 JUMPI DUP3 SWAP1 SUB PUSH1 0x1F AND DUP3 ADD SWAP2 JUMPDEST POP POP POP POP POP DUP4 DUP6 PUSH1 0x40 ADD MLOAD DUP5 PUSH1 0x20 ADD MLOAD PUSH1 0x60 ADD MLOAD PUSH2 0x5081 JUMP JUMPDEST JUMPDEST POP POP POP POP JUMP JUMPDEST PUSH2 0x3E0D DUP3 DUP3 PUSH1 0x20 ADD MLOAD PUSH2 0x5264 JUMP JUMPDEST PUSH1 0x1 PUSH1 0x0 DUP6 PUSH1 0x0 NOT AND PUSH1 0x0 NOT AND DUP2 MSTORE PUSH1 0x20 ADD SWAP1 DUP2 MSTORE PUSH1 0x20 ADD PUSH1 0x0 KECCAK256 DUP2 SWAP1 SSTORE POP DUP3 PUSH1 0x0 NOT AND DUP6 PUSH1 0x40 ADD MLOAD PUSH20 0xFFFFFFFFFFFFFFFFFFFFFFFFFFFFFFFFFFFFFFFF AND DUP7 PUSH1 0x0 ADD MLOAD PUSH20 0xFFFFFFFFFFFFFFFFFFFFFFFFFFFFFFFFFFFFFFFF AND PUSH32 0xDE19F18E1B56E6EADA7ED95CCA8398B602BE32F5864640537EE9A9A3532BB29D DUP8 DUP6 PUSH1 0x0 ADD MLOAD DUP7 PUSH1 0x20 ADD MLOAD DUP8 PUSH1 0x40 ADD MLOAD DUP9 PUSH1 0x60 ADD MLOAD DUP14 PUSH2 0x140 ADD MLOAD DUP15 PUSH2 0x160 ADD MLOAD PUSH1 0x40 MLOAD PUSH2 0x3EBC SWAP8 SWAP7 SWAP6 SWAP5 SWAP4 SWAP3 SWAP2 SWAP1 PUSH2 0x622B JUMP JUMPDEST PUSH1 0x40 MLOAD DUP1 SWAP2 SUB SWAP1 LOG4 POP POP POP POP POP JUMP JUMPDEST PUSH1 0x0 PUSH1 0x20 PUSH1 0x1F DUP5 MLOAD ADD DIV PUSH1 0x1 DUP2 ADD SWAP1 POP PUSH1 0x0 JUMPDEST DUP2 DUP2 LT ISZERO PUSH2 0x3F13 JUMPI PUSH1 0x20 DUP2 MUL DUP6 ADD MLOAD PUSH1 0x20 DUP3 MUL DUP6 ADD MLOAD DUP1 DUP3 EQ SWAP5 POP PUSH1 0x0 DUP6 EQ ISZERO PUSH2 0x3F06 JUMPI DUP4 SWAP3 POP JUMPDEST POP POP PUSH1 0x1 DUP2 ADD SWAP1 POP PUSH2 0x3EDE JUMP JUMPDEST POP POP DUP1 SWAP1 POP SWAP3 SWAP2 POP POP JUMP JUMPDEST PUSH1 0x0 DUP3 DUP3 GT ISZERO ISZERO ISZERO PUSH2 0x3F2C JUMPI INVALID JUMPDEST DUP2 DUP4 SUB SWAP1 POP SWAP3 SWAP2 POP POP JUMP JUMPDEST PUSH2 0x3F49 DUP3 PUSH1 0x0 ADD MLOAD DUP3 PUSH1 0x0 ADD MLOAD PUSH2 0x5264 JUMP JUMPDEST DUP3 PUSH1 0x0 ADD DUP2 DUP2 MSTORE POP POP PUSH2 0x3F64 DUP3 PUSH1 0x20 ADD MLOAD DUP3 PUSH1 0x20 ADD MLOAD PUSH2 0x5264 JUMP JUMPDEST DUP3 PUSH1 0x20 ADD DUP2 DUP2 MSTORE POP POP PUSH2 0x3F7F DUP3 PUSH1 0x40 ADD MLOAD DUP3 PUSH1 0x40 ADD MLOAD PUSH2 0x5264 JUMP JUMPDEST DUP3 PUSH1 0x40 ADD DUP2 DUP2 MSTORE POP POP PUSH2 0x3F9A DUP3 PUSH1 0x60 ADD MLOAD DUP3 PUSH1 0x60 ADD MLOAD PUSH2 0x5264 JUMP JUMPDEST DUP3 PUSH1 0x60 ADD DUP2 DUP2 MSTORE POP POP POP POP JUMP JUMPDEST PUSH1 0x0 PUSH2 0x3FBC PUSH2 0x3FB6 DUP6 DUP5 PUSH2 0x4FF3 JUMP JUMPDEST DUP5 PUSH2 0x5282 JUMP JUMPDEST SWAP1 POP DUP1 SWAP1 POP SWAP4 SWAP3 POP POP POP JUMP JUMPDEST PUSH1 0x0 DUP2 DUP4 LT PUSH2 0x3FD7 JUMPI DUP2 PUSH2 0x3FD9 JUMP JUMPDEST DUP3 JUMPDEST SWAP1 POP SWAP3 SWAP2 POP POP JUMP JUMPDEST PUSH2 0x3FE9 PUSH2 0x53CA JUMP JUMPDEST DUP2 DUP2 PUSH1 0x20 ADD DUP2 DUP2 MSTORE POP POP PUSH2 0x400A DUP2 PUSH1 0x20 ADD MLOAD DUP5 PUSH1 0xA0 ADD MLOAD DUP6 PUSH1 0x80 ADD MLOAD PUSH2 0x3FA7 JUMP JUMPDEST DUP2 PUSH1 0x0 ADD DUP2 DUP2 MSTORE POP POP PUSH2 0x402A DUP2 PUSH1 0x20 ADD MLOAD DUP5 PUSH1 0xA0 ADD MLOAD DUP6 PUSH1 0xC0 ADD MLOAD PUSH2 0x3FA7 JUMP JUMPDEST DUP2 PUSH1 0x40 ADD DUP2 DUP2 MSTORE POP POP PUSH2 0x404A DUP2 PUSH1 0x20 ADD MLOAD DUP5 PUSH1 0xA0 ADD MLOAD DUP6 PUSH1 0xE0 ADD MLOAD PUSH2 0x3FA7 JUMP JUMPDEST DUP2 PUSH1 0x60 ADD DUP2 DUP2 MSTORE POP POP DUP1 SWAP1 POP SWAP3 SWAP2 POP POP JUMP JUMPDEST PUSH2 0x4075 DUP4 PUSH2 0x140 ADD MLOAD DUP5 PUSH1 0x0 ADD MLOAD DUP5 DUP5 PUSH1 0x0 ADD MLOAD PUSH2 0x5081 JUMP JUMPDEST PUSH2 0x408E DUP4 PUSH2 0x160 ADD MLOAD DUP4 DUP6 PUSH1 0x0 ADD MLOAD DUP5 PUSH1 0x20 ADD MLOAD PUSH2 0x5081 JUMP JUMPDEST PUSH2 0x4140 PUSH1 0x4 DUP1 SLOAD PUSH1 0x1 DUP2 PUSH1 0x1 AND ISZERO PUSH2 0x100 MUL SUB AND PUSH1 0x2 SWAP1 DIV DUP1 PUSH1 0x1F ADD PUSH1 0x20 DUP1 SWAP2 DIV MUL PUSH1 0x20 ADD PUSH1 0x40 MLOAD SWAP1 DUP2 ADD PUSH1 0x40 MSTORE DUP1 SWAP3 SWAP2 SWAP1 DUP2 DUP2 MSTORE PUSH1 0x20 ADD DUP3 DUP1 SLOAD PUSH1 0x1 DUP2 PUSH1 0x1 AND ISZERO PUSH2 0x100 MUL SUB AND PUSH1 0x2 SWAP1 DIV DUP1 ISZERO PUSH2 0x4127 JUMPI DUP1 PUSH1 0x1F LT PUSH2 0x40FC JUMPI PUSH2 0x100 DUP1 DUP4 SLOAD DIV MUL DUP4 MSTORE SWAP2 PUSH1 0x20 ADD SWAP2 PUSH2 0x4127 JUMP JUMPDEST DUP3 ADD SWAP2 SWAP1 PUSH1 0x0 MSTORE PUSH1 0x20 PUSH1 0x0 KECCAK256 SWAP1 JUMPDEST DUP2 SLOAD DUP2 MSTORE SWAP1 PUSH1 0x1 ADD SWAP1 PUSH1 0x20 ADD DUP1 DUP4 GT PUSH2 0x410A JUMPI DUP3 SWAP1 SUB PUSH1 0x1F AND DUP3 ADD SWAP2 JUMPDEST POP POP POP POP POP DUP5 PUSH1 0x0 ADD MLOAD DUP6 PUSH1 0x40 ADD MLOAD DUP5 PUSH1 0x40 ADD MLOAD PUSH2 0x5081 JUMP JUMPDEST PUSH2 0x41EE PUSH1 0x4 DUP1 SLOAD PUSH1 0x1 DUP2 PUSH1 0x1 AND ISZERO PUSH2 0x100 MUL SUB AND PUSH1 0x2 SWAP1 DIV DUP1 PUSH1 0x1F ADD PUSH1 0x20 DUP1 SWAP2 DIV MUL PUSH1 0x20 ADD PUSH1 0x40 MLOAD SWAP1 DUP2 ADD PUSH1 0x40 MSTORE DUP1 SWAP3 SWAP2 SWAP1 DUP2 DUP2 MSTORE PUSH1 0x20 ADD DUP3 DUP1 SLOAD PUSH1 0x1 DUP2 PUSH1 0x1 AND ISZERO PUSH2 0x100 MUL SUB AND PUSH1 0x2 SWAP1 DIV DUP1 ISZERO PUSH2 0x41D9 JUMPI DUP1 PUSH1 0x1F LT PUSH2 0x41AE JUMPI PUSH2 0x100 DUP1 DUP4 SLOAD DIV MUL DUP4 MSTORE SWAP2 PUSH1 0x20 ADD SWAP2 PUSH2 0x41D9 JUMP JUMPDEST DUP3 ADD SWAP2 SWAP1 PUSH1 0x0 MSTORE PUSH1 0x20 PUSH1 0x0 KECCAK256 SWAP1 JUMPDEST DUP2 SLOAD DUP2 MSTORE SWAP1 PUSH1 0x1 ADD SWAP1 PUSH1 0x20 ADD DUP1 DUP4 GT PUSH2 0x41BC JUMPI DUP3 SWAP1 SUB PUSH1 0x1F AND DUP3 ADD SWAP2 JUMPDEST POP POP POP POP POP DUP4 DUP6 PUSH1 0x40 ADD MLOAD DUP5 PUSH1 0x60 ADD MLOAD PUSH2 0x5081 JUMP JUMPDEST POP POP POP JUMP JUMPDEST PUSH1 0x0 PUSH1 0x40 MLOAD PUSH1 0x20 ADD DUP1 DUP1 PUSH32 0x446F6D61696E536570617261746F72286164647265737320636F6E7472616374 DUP2 MSTORE PUSH1 0x20 ADD PUSH32 0x2900000000000000000000000000000000000000000000000000000000000000 DUP2 MSTORE POP PUSH1 0x21 ADD SWAP1 POP PUSH1 0x40 MLOAD PUSH1 0x20 DUP2 DUP4 SUB SUB DUP2 MSTORE SWAP1 PUSH1 0x40 MSTORE PUSH1 0x40 MLOAD DUP1 DUP3 DUP1 MLOAD SWAP1 PUSH1 0x20 ADD SWAP1 DUP1 DUP4 DUP4 JUMPDEST PUSH1 0x20 DUP4 LT ISZERO ISZERO PUSH2 0x4290 JUMPI DUP1 MLOAD DUP3 MSTORE PUSH1 0x20 DUP3 ADD SWAP2 POP PUSH1 0x20 DUP2 ADD SWAP1 POP PUSH1 0x20 DUP4 SUB SWAP3 POP PUSH2 0x426B JUMP JUMPDEST PUSH1 0x1 DUP4 PUSH1 0x20 SUB PUSH2 0x100 EXP SUB DUP1 NOT DUP3 MLOAD AND DUP2 DUP5 MLOAD AND DUP1 DUP3 OR DUP6 MSTORE POP POP POP POP POP POP SWAP1 POP ADD SWAP2 POP POP PUSH1 0x40 MLOAD DUP1 SWAP2 SUB SWAP1 KECCAK256 ADDRESS PUSH1 0x40 MLOAD PUSH1 0x20 ADD DUP1 DUP3 PUSH20 0xFFFFFFFFFFFFFFFFFFFFFFFFFFFFFFFFFFFFFFFF AND PUSH20 0xFFFFFFFFFFFFFFFFFFFFFFFFFFFFFFFFFFFFFFFF AND PUSH13 0x1000000000000000000000000 MUL DUP2 MSTORE PUSH1 0x14 ADD SWAP2 POP POP PUSH1 0x40 MLOAD PUSH1 0x20 DUP2 DUP4 SUB SUB DUP2 MSTORE SWAP1 PUSH1 0x40 MSTORE PUSH1 0x40 MLOAD DUP1 DUP3 DUP1 MLOAD SWAP1 PUSH1 0x20 ADD SWAP1 DUP1 DUP4 DUP4 JUMPDEST PUSH1 0x20 DUP4 LT ISZERO ISZERO PUSH2 0x434D JUMPI DUP1 MLOAD DUP3 MSTORE PUSH1 0x20 DUP3 ADD SWAP2 POP PUSH1 0x20 DUP2 ADD SWAP1 POP PUSH1 0x20 DUP4 SUB SWAP3 POP PUSH2 0x4328 JUMP JUMPDEST PUSH1 0x1 DUP4 PUSH1 0x20 SUB PUSH2 0x100 EXP SUB DUP1 NOT DUP3 MLOAD AND DUP2 DUP5 MLOAD AND DUP1 DUP3 OR DUP6 MSTORE POP POP POP POP POP POP SWAP1 POP ADD SWAP2 POP POP PUSH1 0x40 MLOAD DUP1 SWAP2 SUB SWAP1 KECCAK256 PUSH1 0x40 MLOAD PUSH1 0x20 ADD DUP1 DUP1 PUSH32 0x4F72646572280000000000000000000000000000000000000000000000000000 DUP2 MSTORE POP PUSH1 0x6 ADD DUP1 PUSH32 0x61646472657373206D616B6572416464726573732C0000000000000000000000 DUP2 MSTORE POP PUSH1 0x15 ADD DUP1 PUSH32 0x616464726573732074616B6572416464726573732C0000000000000000000000 DUP2 MSTORE POP PUSH1 0x15 ADD DUP1 PUSH32 0x6164647265737320666565526563697069656E74416464726573732C00000000 DUP2 MSTORE POP PUSH1 0x1C ADD DUP1 PUSH32 0x616464726573732073656E646572416464726573732C00000000000000000000 DUP2 MSTORE POP PUSH1 0x16 ADD DUP1 PUSH32 0x75696E74323536206D616B65724173736574416D6F756E742C00000000000000 DUP2 MSTORE POP PUSH1 0x19 ADD DUP1 PUSH32 0x75696E743235362074616B65724173736574416D6F756E742C00000000000000 DUP2 MSTORE POP PUSH1 0x19 ADD DUP1 PUSH32 0x75696E74323536206D616B65724665652C000000000000000000000000000000 DUP2 MSTORE POP PUSH1 0x11 ADD DUP1 PUSH32 0x75696E743235362074616B65724665652C000000000000000000000000000000 DUP2 MSTORE POP PUSH1 0x11 ADD DUP1 PUSH32 0x75696E743235362065787069726174696F6E54696D655365636F6E64732C0000 DUP2 MSTORE POP PUSH1 0x1E ADD DUP1 PUSH32 0x75696E743235362073616C742C00000000000000000000000000000000000000 DUP2 MSTORE POP PUSH1 0xD ADD DUP1 PUSH32 0x6279746573206D616B65724173736574446174612C0000000000000000000000 DUP2 MSTORE POP PUSH1 0x15 ADD DUP1 PUSH32 0x62797465732074616B65724173736574446174612C0000000000000000000000 DUP2 MSTORE POP PUSH1 0x15 ADD DUP1 PUSH32 0x2900000000000000000000000000000000000000000000000000000000000000 DUP2 MSTORE POP PUSH1 0x1 ADD SWAP1 POP PUSH1 0x40 MLOAD PUSH1 0x20 DUP2 DUP4 SUB SUB DUP2 MSTORE SWAP1 PUSH1 0x40 MSTORE PUSH1 0x40 MLOAD DUP1 DUP3 DUP1 MLOAD SWAP1 PUSH1 0x20 ADD SWAP1 DUP1 DUP4 DUP4 JUMPDEST PUSH1 0x20 DUP4 LT ISZERO ISZERO PUSH2 0x45F7 JUMPI DUP1 MLOAD DUP3 MSTORE PUSH1 0x20 DUP3 ADD SWAP2 POP PUSH1 0x20 DUP2 ADD SWAP1 POP PUSH1 0x20 DUP4 SUB SWAP3 POP PUSH2 0x45D2 JUMP JUMPDEST PUSH1 0x1 DUP4 PUSH1 0x20 SUB PUSH2 0x100 EXP SUB DUP1 NOT DUP3 MLOAD AND DUP2 DUP5 MLOAD AND DUP1 DUP3 OR DUP6 MSTORE POP POP POP POP POP POP SWAP1 POP ADD SWAP2 POP POP PUSH1 0x40 MLOAD DUP1 SWAP2 SUB SWAP1 KECCAK256 DUP5 PUSH1 0x0 ADD MLOAD DUP6 PUSH1 0x20 ADD MLOAD DUP7 PUSH1 0x40 ADD MLOAD DUP8 PUSH1 0x60 ADD MLOAD DUP9 PUSH1 0x80 ADD MLOAD DUP10 PUSH1 0xA0 ADD MLOAD DUP11 PUSH1 0xC0 ADD MLOAD DUP12 PUSH1 0xE0 ADD MLOAD DUP13 PUSH2 0x100 ADD MLOAD DUP14 PUSH2 0x120 ADD MLOAD DUP15 PUSH2 0x140 ADD MLOAD PUSH1 0x40 MLOAD PUSH1 0x20 ADD DUP1 DUP3 DUP1 MLOAD SWAP1 PUSH1 0x20 ADD SWAP1 DUP1 DUP4 DUP4 JUMPDEST PUSH1 0x20 DUP4 LT ISZERO ISZERO PUSH2 0x4696 JUMPI DUP1 MLOAD DUP3 MSTORE PUSH1 0x20 DUP3 ADD SWAP2 POP PUSH1 0x20 DUP2 ADD SWAP1 POP PUSH1 0x20 DUP4 SUB SWAP3 POP PUSH2 0x4671 JUMP JUMPDEST PUSH1 0x1 DUP4 PUSH1 0x20 SUB PUSH2 0x100 EXP SUB DUP1 NOT DUP3 MLOAD AND DUP2 DUP5 MLOAD AND DUP1 DUP3 OR DUP6 MSTORE POP POP POP POP POP POP SWAP1 POP ADD SWAP2 POP POP PUSH1 0x40 MLOAD PUSH1 0x20 DUP2 DUP4 SUB SUB DUP2 MSTORE SWAP1 PUSH1 0x40 MSTORE PUSH1 0x40 MLOAD DUP1 DUP3 DUP1 MLOAD SWAP1 PUSH1 0x20 ADD SWAP1 DUP1 DUP4 DUP4 JUMPDEST PUSH1 0x20 DUP4 LT ISZERO ISZERO PUSH2 0x46FF JUMPI DUP1 MLOAD DUP3 MSTORE PUSH1 0x20 DUP3 ADD SWAP2 POP PUSH1 0x20 DUP2 ADD SWAP1 POP PUSH1 0x20 DUP4 SUB SWAP3 POP PUSH2 0x46DA JUMP JUMPDEST PUSH1 0x1 DUP4 PUSH1 0x20 SUB PUSH2 0x100 EXP SUB DUP1 NOT DUP3 MLOAD AND DUP2 DUP5 MLOAD AND DUP1 DUP3 OR DUP6 MSTORE POP POP POP POP POP POP SWAP1 POP ADD SWAP2 POP POP PUSH1 0x40 MLOAD DUP1 SWAP2 SUB SWAP1 KECCAK256 DUP16 PUSH2 0x160 ADD MLOAD PUSH1 0x40 MLOAD PUSH1 0x20 ADD DUP1 DUP3 DUP1 MLOAD SWAP1 PUSH1 0x20 ADD SWAP1 DUP1 DUP4 DUP4 JUMPDEST PUSH1 0x20 DUP4 LT ISZERO ISZERO PUSH2 0x476A JUMPI DUP1 MLOAD DUP3 MSTORE PUSH1 0x20 DUP3 ADD SWAP2 POP PUSH1 0x20 DUP2 ADD SWAP1 POP PUSH1 0x20 DUP4 SUB SWAP3 POP PUSH2 0x4745 JUMP JUMPDEST PUSH1 0x1 DUP4 PUSH1 0x20 SUB PUSH2 0x100 EXP SUB DUP1 NOT DUP3 MLOAD AND DUP2 DUP5 MLOAD AND DUP1 DUP3 OR DUP6 MSTORE POP POP POP POP POP POP SWAP1 POP ADD SWAP2 POP POP PUSH1 0x40 MLOAD PUSH1 0x20 DUP2 DUP4 SUB SUB DUP2 MSTORE SWAP1 PUSH1 0x40 MSTORE PUSH1 0x40 MLOAD DUP1 DUP3 DUP1 MLOAD SWAP1 PUSH1 0x20 ADD SWAP1 DUP1 DUP4 DUP4 JUMPDEST PUSH1 0x20 DUP4 LT ISZERO ISZERO PUSH2 0x47D3 JUMPI DUP1 MLOAD DUP3 MSTORE PUSH1 0x20 DUP3 ADD SWAP2 POP PUSH1 0x20 DUP2 ADD SWAP1 POP PUSH1 0x20 DUP4 SUB SWAP3 POP PUSH2 0x47AE JUMP JUMPDEST PUSH1 0x1 DUP4 PUSH1 0x20 SUB PUSH2 0x100 EXP SUB DUP1 NOT DUP3 MLOAD AND DUP2 DUP5 MLOAD AND DUP1 DUP3 OR DUP6 MSTORE POP POP POP POP POP POP SWAP1 POP ADD SWAP2 POP POP PUSH1 0x40 MLOAD DUP1 SWAP2 SUB SWAP1 KECCAK256 PUSH1 0x40 MLOAD PUSH1 0x20 ADD DUP1 DUP14 PUSH20 0xFFFFFFFFFFFFFFFFFFFFFFFFFFFFFFFFFFFFFFFF AND PUSH20 0xFFFFFFFFFFFFFFFFFFFFFFFFFFFFFFFFFFFFFFFF AND PUSH13 0x1000000000000000000000000 MUL DUP2 MSTORE PUSH1 0x14 ADD DUP13 PUSH20 0xFFFFFFFFFFFFFFFFFFFFFFFFFFFFFFFFFFFFFFFF AND PUSH20 0xFFFFFFFFFFFFFFFFFFFFFFFFFFFFFFFFFFFFFFFF AND PUSH13 0x1000000000000000000000000 MUL DUP2 MSTORE PUSH1 0x14 ADD DUP12 PUSH20 0xFFFFFFFFFFFFFFFFFFFFFFFFFFFFFFFFFFFFFFFF AND PUSH20 0xFFFFFFFFFFFFFFFFFFFFFFFFFFFFFFFFFFFFFFFF AND PUSH13 0x1000000000000000000000000 MUL DUP2 MSTORE PUSH1 0x14 ADD DUP11 PUSH20 0xFFFFFFFFFFFFFFFFFFFFFFFFFFFFFFFFFFFFFFFF AND PUSH20 0xFFFFFFFFFFFFFFFFFFFFFFFFFFFFFFFFFFFFFFFF AND PUSH13 0x1000000000000000000000000 MUL DUP2 MSTORE PUSH1 0x14 ADD DUP10 DUP2 MSTORE PUSH1 0x20 ADD DUP9 DUP2 MSTORE PUSH1 0x20 ADD DUP8 DUP2 MSTORE PUSH1 0x20 ADD DUP7 DUP2 MSTORE PUSH1 0x20 ADD DUP6 DUP2 MSTORE PUSH1 0x20 ADD DUP5 DUP2 MSTORE PUSH1 0x20 ADD DUP4 PUSH1 0x0 NOT AND PUSH1 0x0 NOT AND DUP2 MSTORE PUSH1 0x20 ADD DUP3 PUSH1 0x0 NOT AND PUSH1 0x0 NOT AND DUP2 MSTORE PUSH1 0x20 ADD SWAP13 POP POP POP POP POP POP POP POP POP POP POP POP POP PUSH1 0x40 MLOAD PUSH1 0x20 DUP2 DUP4 SUB SUB DUP2 MSTORE SWAP1 PUSH1 0x40 MSTORE PUSH1 0x40 MLOAD DUP1 DUP3 DUP1 MLOAD SWAP1 PUSH1 0x20 ADD SWAP1 DUP1 DUP4 DUP4 JUMPDEST PUSH1 0x20 DUP4 LT ISZERO ISZERO PUSH2 0x499D JUMPI DUP1 MLOAD DUP3 MSTORE PUSH1 0x20 DUP3 ADD SWAP2 POP PUSH1 0x20 DUP2 ADD SWAP1 POP PUSH1 0x20 DUP4 SUB SWAP3 POP PUSH2 0x4978 JUMP JUMPDEST PUSH1 0x1 DUP4 PUSH1 0x20 SUB PUSH2 0x100 EXP SUB DUP1 NOT DUP3 MLOAD AND DUP2 DUP5 MLOAD AND DUP1 DUP3 OR DUP6 MSTORE POP POP POP POP POP POP SWAP1 POP ADD SWAP2 POP POP PUSH1 0x40 MLOAD DUP1 SWAP2 SUB SWAP1 KECCAK256 PUSH1 0x40 MLOAD PUSH1 0x20 ADD DUP1 DUP6 PUSH1 0x0 NOT AND PUSH1 0x0 NOT AND DUP2 MSTORE PUSH1 0x20 ADD DUP5 PUSH1 0x0 NOT AND PUSH1 0x0 NOT AND DUP2 MSTORE PUSH1 0x20 ADD DUP4 PUSH1 0x0 NOT AND PUSH1 0x0 NOT AND DUP2 MSTORE PUSH1 0x20 ADD DUP3 PUSH1 0x0 NOT AND PUSH1 0x0 NOT AND DUP2 MSTORE PUSH1 0x20 ADD SWAP5 POP POP POP POP POP PUSH1 0x40 MLOAD PUSH1 0x20 DUP2 DUP4 SUB SUB DUP2 MSTORE SWAP1 PUSH1 0x40 MSTORE PUSH1 0x40 MLOAD DUP1 DUP3 DUP1 MLOAD SWAP1 PUSH1 0x20 ADD SWAP1 DUP1 DUP4 DUP4 JUMPDEST PUSH1 0x20 DUP4 LT ISZERO ISZERO PUSH2 0x4A53 JUMPI DUP1 MLOAD DUP3 MSTORE PUSH1 0x20 DUP3 ADD SWAP2 POP PUSH1 0x20 DUP2 ADD SWAP1 POP PUSH1 0x20 DUP4 SUB SWAP3 POP PUSH2 0x4A2E JUMP JUMPDEST PUSH1 0x1 DUP4 PUSH1 0x20 SUB PUSH2 0x100 EXP SUB DUP1 NOT DUP3 MLOAD AND DUP2 DUP5 MLOAD AND DUP1 DUP3 OR DUP6 MSTORE POP POP POP POP POP POP SWAP1 POP ADD SWAP2 POP POP PUSH1 0x40 MLOAD DUP1 SWAP2 SUB SWAP1 KECCAK256 SWAP1 POP DUP1 SWAP1 POP SWAP2 SWAP1 POP JUMP JUMPDEST PUSH1 0x0 PUSH1 0x3 PUSH1 0x6 DUP2 GT ISZERO PUSH2 0x4A99 JUMPI INVALID JUMPDEST PUSH1 0xFF AND DUP3 PUSH1 0x0 ADD MLOAD PUSH1 0xFF AND EQ PUSH1 0x40 DUP1 MLOAD SWAP1 DUP2 ADD PUSH1 0x40 MSTORE DUP1 PUSH1 0x10 DUP2 MSTORE PUSH1 0x20 ADD PUSH32 0x4F524445525F554E46494C4C41424C4500000000000000000000000000000000 DUP2 MSTORE POP SWAP1 ISZERO ISZERO PUSH2 0x4B1E JUMPI PUSH1 0x40 MLOAD PUSH32 0x8C379A000000000000000000000000000000000000000000000000000000000 DUP2 MSTORE PUSH1 0x4 ADD PUSH2 0x4B15 SWAP2 SWAP1 PUSH2 0x6436 JUMP JUMPDEST PUSH1 0x40 MLOAD DUP1 SWAP2 SUB SWAP1 REVERT JUMPDEST POP PUSH1 0x0 PUSH20 0xFFFFFFFFFFFFFFFFFFFFFFFFFFFFFFFFFFFFFFFF AND DUP4 PUSH1 0x60 ADD MLOAD PUSH20 0xFFFFFFFFFFFFFFFFFFFFFFFFFFFFFFFFFFFFFFFF AND EQ ISZERO ISZERO PUSH2 0x4C07 JUMPI CALLER PUSH20 0xFFFFFFFFFFFFFFFFFFFFFFFFFFFFFFFFFFFFFFFF AND DUP4 PUSH1 0x60 ADD MLOAD PUSH20 0xFFFFFFFFFFFFFFFFFFFFFFFFFFFFFFFFFFFFFFFF AND EQ PUSH1 0x40 DUP1 MLOAD SWAP1 DUP2 ADD PUSH1 0x40 MSTORE DUP1 PUSH1 0xE DUP2 MSTORE PUSH1 0x20 ADD PUSH32 0x494E56414C49445F53454E444552000000000000000000000000000000000000 DUP2 MSTORE POP SWAP1 ISZERO ISZERO PUSH2 0x4C05 JUMPI PUSH1 0x40 MLOAD PUSH32 0x8C379A000000000000000000000000000000000000000000000000000000000 DUP2 MSTORE PUSH1 0x4 ADD PUSH2 0x4BFC SWAP2 SWAP1 PUSH2 0x6436 JUMP JUMPDEST PUSH1 0x40 MLOAD DUP1 SWAP2 SUB SWAP1 REVERT JUMPDEST POP JUMPDEST PUSH2 0x4C0F PUSH2 0x33A9 JUMP JUMPDEST SWAP1 POP DUP1 PUSH20 0xFFFFFFFFFFFFFFFFFFFFFFFFFFFFFFFFFFFFFFFF AND DUP4 PUSH1 0x0 ADD MLOAD PUSH20 0xFFFFFFFFFFFFFFFFFFFFFFFFFFFFFFFFFFFFFFFF AND EQ PUSH1 0x40 DUP1 MLOAD SWAP1 DUP2 ADD PUSH1 0x40 MSTORE DUP1 PUSH1 0xD DUP2 MSTORE PUSH1 0x20 ADD PUSH32 0x494E56414C49445F4D414B455200000000000000000000000000000000000000 DUP2 MSTORE POP SWAP1 ISZERO ISZERO PUSH2 0x4CBD JUMPI PUSH1 0x40 MLOAD PUSH32 0x8C379A000000000000000000000000000000000000000000000000000000000 DUP2 MSTORE PUSH1 0x4 ADD PUSH2 0x4CB4 SWAP2 SWAP1 PUSH2 0x6436 JUMP JUMPDEST PUSH1 0x40 MLOAD DUP1 SWAP2 SUB SWAP1 REVERT JUMPDEST POP POP POP POP JUMP JUMPDEST PUSH1 0x1 PUSH1 0x2 PUSH1 0x0 DUP4 PUSH1 0x0 NOT AND PUSH1 0x0 NOT AND DUP2 MSTORE PUSH1 0x20 ADD SWAP1 DUP2 MSTORE PUSH1 0x20 ADD PUSH1 0x0 KECCAK256 PUSH1 0x0 PUSH2 0x100 EXP DUP2 SLOAD DUP2 PUSH1 0xFF MUL NOT AND SWAP1 DUP4 ISZERO ISZERO MUL OR SWAP1 SSTORE POP DUP1 PUSH1 0x0 NOT AND DUP3 PUSH1 0x40 ADD MLOAD PUSH20 0xFFFFFFFFFFFFFFFFFFFFFFFFFFFFFFFFFFFFFFFF AND DUP4 PUSH1 0x0 ADD MLOAD PUSH20 0xFFFFFFFFFFFFFFFFFFFFFFFFFFFFFFFFFFFFFFFF AND PUSH32 0xB1AD640E9E79B6FDBC3C415DC2914AB54E753D2971F51EAB910F7AA317A3163A DUP6 PUSH2 0x140 ADD MLOAD DUP7 PUSH2 0x160 ADD MLOAD PUSH1 0x40 MLOAD PUSH2 0x4D6D SWAP3 SWAP2 SWAP1 PUSH2 0x63E4 JUMP JUMPDEST PUSH1 0x40 MLOAD DUP1 SWAP2 SUB SWAP1 LOG4 POP POP JUMP JUMPDEST PUSH1 0x0 DUP1 DUP3 MLOAD GT PUSH1 0x40 DUP1 MLOAD SWAP1 DUP2 ADD PUSH1 0x40 MSTORE DUP1 PUSH1 0x1E DUP2 MSTORE PUSH1 0x20 ADD PUSH32 0x4C656E677468206D7573742062652067726561746572207468616E20302E0000 DUP2 MSTORE POP SWAP1 ISZERO ISZERO PUSH2 0x4DF8 JUMPI PUSH1 0x40 MLOAD PUSH32 0x8C379A000000000000000000000000000000000000000000000000000000000 DUP2 MSTORE PUSH1 0x4 ADD PUSH2 0x4DEF SWAP2 SWAP1 PUSH2 0x6436 JUMP JUMPDEST PUSH1 0x40 MLOAD DUP1 SWAP2 SUB SWAP1 REVERT JUMPDEST POP DUP2 PUSH1 0x1 DUP4 MLOAD SUB DUP2 MLOAD DUP2 LT ISZERO ISZERO PUSH2 0x4E0B JUMPI INVALID JUMPDEST SWAP1 PUSH1 0x20 ADD ADD MLOAD PUSH32 0x100000000000000000000000000000000000000000000000000000000000000 SWAP1 DIV PUSH32 0x100000000000000000000000000000000000000000000000000000000000000 MUL SWAP1 POP PUSH1 0x1 DUP3 MLOAD SUB DUP1 DUP4 MSTORE POP DUP1 SWAP1 POP SWAP2 SWAP1 POP JUMP JUMPDEST PUSH1 0x0 PUSH1 0x20 DUP3 ADD DUP4 MLOAD LT ISZERO PUSH1 0x60 PUSH1 0x40 MLOAD SWAP1 DUP2 ADD PUSH1 0x40 MSTORE DUP1 PUSH1 0x2B DUP2 MSTORE PUSH1 0x20 ADD PUSH32 0x4C656E677468206D7573742062652067726561746572207468616E206F722065 DUP2 MSTORE PUSH1 0x20 ADD PUSH32 0x7175616C20746F2033322E000000000000000000000000000000000000000000 DUP2 MSTORE POP SWAP1 ISZERO ISZERO PUSH2 0x4F13 JUMPI PUSH1 0x40 MLOAD PUSH32 0x8C379A000000000000000000000000000000000000000000000000000000000 DUP2 MSTORE PUSH1 0x4 ADD PUSH2 0x4F0A SWAP2 SWAP1 PUSH2 0x6436 JUMP JUMPDEST PUSH1 0x40 MLOAD DUP1 SWAP2 SUB SWAP1 REVERT JUMPDEST POP PUSH1 0x20 DUP3 ADD SWAP2 POP DUP2 DUP4 ADD MLOAD SWAP1 POP DUP1 SWAP1 POP SWAP3 SWAP2 POP POP JUMP JUMPDEST PUSH1 0x0 PUSH1 0x14 DUP3 MLOAD LT ISZERO PUSH1 0x60 PUSH1 0x40 MLOAD SWAP1 DUP2 ADD PUSH1 0x40 MSTORE DUP1 PUSH1 0x2B DUP2 MSTORE PUSH1 0x20 ADD PUSH32 0x4C656E677468206D7573742062652067726561746572207468616E206F722065 DUP2 MSTORE PUSH1 0x20 ADD PUSH32 0x7175616C20746F2032302E000000000000000000000000000000000000000000 DUP2 MSTORE POP SWAP1 ISZERO ISZERO PUSH2 0x4FD1 JUMPI PUSH1 0x40 MLOAD PUSH32 0x8C379A000000000000000000000000000000000000000000000000000000000 DUP2 MSTORE PUSH1 0x4 ADD PUSH2 0x4FC8 SWAP2 SWAP1 PUSH2 0x6436 JUMP JUMPDEST PUSH1 0x40 MLOAD DUP1 SWAP2 SUB SWAP1 REVERT JUMPDEST POP PUSH2 0x4FE0 DUP3 PUSH1 0x14 DUP5 MLOAD SUB PUSH2 0x529D JUMP JUMPDEST SWAP1 POP PUSH1 0x14 DUP3 MLOAD SUB DUP1 DUP4 MSTORE POP DUP1 SWAP1 POP SWAP2 SWAP1 POP JUMP JUMPDEST PUSH1 0x0 DUP1 DUP3 DUP5 MUL SWAP1 POP PUSH1 0x0 DUP5 EQ DUP1 PUSH2 0x5014 JUMPI POP DUP3 DUP5 DUP3 DUP2 ISZERO ISZERO PUSH2 0x5011 JUMPI INVALID JUMPDEST DIV EQ JUMPDEST ISZERO ISZERO PUSH2 0x501C JUMPI INVALID JUMPDEST DUP1 SWAP2 POP POP SWAP3 SWAP2 POP POP JUMP JUMPDEST PUSH1 0x0 DUP1 PUSH1 0x0 DUP5 DUP1 ISZERO ISZERO PUSH2 0x5035 JUMPI INVALID JUMPDEST DUP7 DUP6 MULMOD SWAP2 POP PUSH1 0x0 DUP3 EQ ISZERO PUSH2 0x504C JUMPI PUSH1 0x0 SWAP3 POP PUSH2 0x5078 JUMP JUMPDEST PUSH2 0x506B PUSH2 0x505C DUP4 PUSH3 0xF4240 PUSH2 0x4FF3 JUMP JUMPDEST PUSH2 0x5066 DUP9 DUP8 PUSH2 0x4FF3 JUMP JUMPDEST PUSH2 0x5282 JUMP JUMPDEST SWAP1 POP PUSH2 0x3E8 DUP2 GT SWAP3 POP DUP3 SWAP3 POP JUMPDEST POP POP SWAP4 SWAP3 POP POP POP JUMP JUMPDEST PUSH1 0x0 DUP1 PUSH1 0x0 DUP1 DUP5 GT ISZERO PUSH2 0x525B JUMPI DUP7 MLOAD SWAP3 POP PUSH1 0x0 DUP4 GT PUSH1 0x40 DUP1 MLOAD SWAP1 DUP2 ADD PUSH1 0x40 MSTORE DUP1 PUSH1 0x1E DUP2 MSTORE PUSH1 0x20 ADD PUSH32 0x4C454E4754485F475245415445525F5448414E5F305F52455155495245440000 DUP2 MSTORE POP SWAP1 ISZERO ISZERO PUSH2 0x510F JUMPI PUSH1 0x40 MLOAD PUSH32 0x8C379A000000000000000000000000000000000000000000000000000000000 DUP2 MSTORE PUSH1 0x4 ADD PUSH2 0x5106 SWAP2 SWAP1 PUSH2 0x6436 JUMP JUMPDEST PUSH1 0x40 MLOAD DUP1 SWAP2 SUB SWAP1 REVERT JUMPDEST POP DUP7 PUSH1 0x1 DUP5 SUB DUP2 MLOAD DUP2 LT ISZERO ISZERO PUSH2 0x5121 JUMPI INVALID JUMPDEST SWAP1 PUSH1 0x20 ADD ADD MLOAD PUSH32 0x100000000000000000000000000000000000000000000000000000000000000 SWAP1 DIV PUSH32 0x100000000000000000000000000000000000000000000000000000000000000 MUL PUSH32 0x100000000000000000000000000000000000000000000000000000000000000 SWAP1 DIV SWAP2 POP PUSH1 0x9 PUSH1 0x0 DUP4 PUSH1 0xFF AND PUSH1 0xFF AND DUP2 MSTORE PUSH1 0x20 ADD SWAP1 DUP2 MSTORE PUSH1 0x20 ADD PUSH1 0x0 KECCAK256 PUSH1 0x0 SWAP1 SLOAD SWAP1 PUSH2 0x100 EXP SWAP1 DIV PUSH20 0xFFFFFFFFFFFFFFFFFFFFFFFFFFFFFFFFFFFFFFFF AND SWAP1 POP DUP1 PUSH20 0xFFFFFFFFFFFFFFFFFFFFFFFFFFFFFFFFFFFFFFFF AND PUSH4 0xA85E59E4 DUP9 DUP9 DUP9 DUP9 PUSH1 0x40 MLOAD DUP6 PUSH4 0xFFFFFFFF AND PUSH29 0x100000000000000000000000000000000000000000000000000000000 MUL DUP2 MSTORE PUSH1 0x4 ADD PUSH2 0x5228 SWAP5 SWAP4 SWAP3 SWAP2 SWAP1 PUSH2 0x6398 JUMP JUMPDEST PUSH1 0x0 PUSH1 0x40 MLOAD DUP1 DUP4 SUB DUP2 PUSH1 0x0 DUP8 DUP1 EXTCODESIZE ISZERO DUP1 ISZERO PUSH2 0x5242 JUMPI PUSH1 0x0 DUP1 REVERT JUMPDEST POP GAS CALL ISZERO DUP1 ISZERO PUSH2 0x5256 JUMPI RETURNDATASIZE PUSH1 0x0 DUP1 RETURNDATACOPY RETURNDATASIZE PUSH1 0x0 REVERT JUMPDEST POP POP POP POP JUMPDEST POP POP POP POP POP POP POP JUMP JUMPDEST PUSH1 0x0 DUP1 DUP3 DUP5 ADD SWAP1 POP DUP4 DUP2 LT ISZERO ISZERO ISZERO PUSH2 0x5278 JUMPI INVALID JUMPDEST DUP1 SWAP2 POP POP SWAP3 SWAP2 POP POP JUMP JUMPDEST PUSH1 0x0 DUP1 DUP3 DUP5 DUP2 ISZERO ISZERO PUSH2 0x5290 JUMPI INVALID JUMPDEST DIV SWAP1 POP DUP1 SWAP2 POP POP SWAP3 SWAP2 POP POP JUMP JUMPDEST PUSH1 0x0 PUSH1 0x14 DUP3 ADD DUP4 MLOAD LT ISZERO PUSH1 0x60 PUSH1 0x40 MLOAD SWAP1 DUP2 ADD PUSH1 0x40 MSTORE DUP1 PUSH1 0x2B DUP2 MSTORE PUSH1 0x20 ADD PUSH32 0x4C656E677468206D7573742062652067726561746572207468616E206F722065 DUP2 MSTORE PUSH1 0x20 ADD PUSH32 0x7175616C20746F2032302E000000000000000000000000000000000000000000 DUP2 MSTORE POP SWAP1 ISZERO ISZERO PUSH2 0x5347 JUMPI PUSH1 0x40 MLOAD PUSH32 0x8C379A000000000000000000000000000000000000000000000000000000000 DUP2 MSTORE PUSH1 0x4 ADD PUSH2 0x533E SWAP2 SWAP1 PUSH2 0x6436 JUMP JUMPDEST PUSH1 0x40 MLOAD DUP1 SWAP2 SUB SWAP1 REVERT JUMPDEST POP PUSH1 0x14 DUP3 ADD SWAP2 POP PUSH20 0xFFFFFFFFFFFFFFFFFFFFFFFFFFFFFFFFFFFFFFFF DUP3 DUP5 ADD MLOAD AND SWAP1 POP DUP1 SWAP1 POP SWAP3 SWAP2 POP POP JUMP JUMPDEST PUSH2 0x120 PUSH1 0x40 MLOAD SWAP1 DUP2 ADD PUSH1 0x40 MSTORE DUP1 PUSH2 0x5388 PUSH2 0x53F3 JUMP JUMPDEST DUP2 MSTORE PUSH1 0x20 ADD PUSH2 0x5395 PUSH2 0x53F3 JUMP JUMPDEST DUP2 MSTORE PUSH1 0x20 ADD PUSH1 0x0 DUP2 MSTORE POP SWAP1 JUMP JUMPDEST PUSH1 0x60 PUSH1 0x40 MLOAD SWAP1 DUP2 ADD PUSH1 0x40 MSTORE DUP1 PUSH1 0x0 PUSH1 0xFF AND DUP2 MSTORE PUSH1 0x20 ADD PUSH1 0x0 DUP1 NOT AND DUP2 MSTORE PUSH1 0x20 ADD PUSH1 0x0 DUP2 MSTORE POP SWAP1 JUMP JUMPDEST PUSH1 0x80 PUSH1 0x40 MLOAD SWAP1 DUP2 ADD PUSH1 0x40 MSTORE DUP1 PUSH1 0x0 DUP2 MSTORE PUSH1 0x20 ADD PUSH1 0x0 DUP2 MSTORE PUSH1 0x20 ADD PUSH1 0x0 DUP2 MSTORE PUSH1 0x20 ADD PUSH1 0x0 DUP2 MSTORE POP SWAP1 JUMP JUMPDEST PUSH1 0x80 PUSH1 0x40 MLOAD SWAP1 DUP2 ADD PUSH1 0x40 MSTORE DUP1 PUSH1 0x0 DUP2 MSTORE PUSH1 0x20 ADD PUSH1 0x0 DUP2 MSTORE PUSH1 0x20 ADD PUSH1 0x0 DUP2 MSTORE PUSH1 0x20 ADD PUSH1 0x0 DUP2 MSTORE POP SWAP1 JUMP JUMPDEST PUSH1 0x0 PUSH2 0x5428 DUP3 CALLDATALOAD PUSH2 0x6687 JUMP JUMPDEST SWAP1 POP SWAP3 SWAP2 POP POP JUMP JUMPDEST PUSH1 0x0 DUP3 PUSH1 0x1F DUP4 ADD SLT ISZERO ISZERO PUSH2 0x5443 JUMPI PUSH1 0x0 DUP1 REVERT JUMPDEST DUP2 CALLDATALOAD PUSH2 0x5456 PUSH2 0x5451 DUP3 PUSH2 0x6549 JUMP JUMPDEST PUSH2 0x651C JUMP JUMPDEST SWAP2 POP DUP2 DUP2 DUP4 MSTORE PUSH1 0x20 DUP5 ADD SWAP4 POP PUSH1 0x20 DUP2 ADD SWAP1 POP DUP4 PUSH1 0x0 JUMPDEST DUP4 DUP2 LT ISZERO PUSH2 0x549C JUMPI DUP2 CALLDATALOAD DUP7 ADD PUSH2 0x5482 DUP9 DUP3 PUSH2 0x5629 JUMP JUMPDEST DUP5 MSTORE PUSH1 0x20 DUP5 ADD SWAP4 POP PUSH1 0x20 DUP4 ADD SWAP3 POP POP PUSH1 0x1 DUP2 ADD SWAP1 POP PUSH2 0x546C JUMP JUMPDEST POP POP POP POP SWAP3 SWAP2 POP POP JUMP JUMPDEST PUSH1 0x0 DUP3 PUSH1 0x1F DUP4 ADD SLT ISZERO ISZERO PUSH2 0x54B9 JUMPI PUSH1 0x0 DUP1 REVERT JUMPDEST DUP2 CALLDATALOAD PUSH2 0x54CC PUSH2 0x54C7 DUP3 PUSH2 0x6571 JUMP JUMPDEST PUSH2 0x651C JUMP JUMPDEST SWAP2 POP DUP2 DUP2 DUP4 MSTORE PUSH1 0x20 DUP5 ADD SWAP4 POP PUSH1 0x20 DUP2 ADD SWAP1 POP DUP4 PUSH1 0x0 JUMPDEST DUP4 DUP2 LT ISZERO PUSH2 0x5512 JUMPI DUP2 CALLDATALOAD DUP7 ADD PUSH2 0x54F8 DUP9 DUP3 PUSH2 0x56D5 JUMP JUMPDEST DUP5 MSTORE PUSH1 0x20 DUP5 ADD SWAP4 POP PUSH1 0x20 DUP4 ADD SWAP3 POP POP PUSH1 0x1 DUP2 ADD SWAP1 POP PUSH2 0x54E2 JUMP JUMPDEST POP POP POP POP SWAP3 SWAP2 POP POP JUMP JUMPDEST PUSH1 0x0 DUP3 PUSH1 0x1F DUP4 ADD SLT ISZERO ISZERO PUSH2 0x552F JUMPI PUSH1 0x0 DUP1 REVERT JUMPDEST DUP2 CALLDATALOAD PUSH2 0x5542 PUSH2 0x553D DUP3 PUSH2 0x6599 JUMP JUMPDEST PUSH2 0x651C JUMP JUMPDEST SWAP2 POP DUP2 DUP2 DUP4 MSTORE PUSH1 0x20 DUP5 ADD SWAP4 POP PUSH1 0x20 DUP2 ADD SWAP1 POP DUP4 DUP6 PUSH1 0x20 DUP5 MUL DUP3 ADD GT ISZERO PUSH2 0x5567 JUMPI PUSH1 0x0 DUP1 REVERT JUMPDEST PUSH1 0x0 JUMPDEST DUP4 DUP2 LT ISZERO PUSH2 0x5597 JUMPI DUP2 PUSH2 0x557D DUP9 DUP3 PUSH2 0x5971 JUMP JUMPDEST DUP5 MSTORE PUSH1 0x20 DUP5 ADD SWAP4 POP PUSH1 0x20 DUP4 ADD SWAP3 POP POP PUSH1 0x1 DUP2 ADD SWAP1 POP PUSH2 0x556A JUMP JUMPDEST POP POP POP POP SWAP3 SWAP2 POP POP JUMP JUMPDEST PUSH1 0x0 PUSH2 0x55AD DUP3 CALLDATALOAD PUSH2 0x66A7 JUMP JUMPDEST SWAP1 POP SWAP3 SWAP2 POP POP JUMP JUMPDEST PUSH1 0x0 PUSH2 0x55C1 DUP3 MLOAD PUSH2 0x66A7 JUMP JUMPDEST SWAP1 POP SWAP3 SWAP2 POP POP JUMP JUMPDEST PUSH1 0x0 PUSH2 0x55D5 DUP3 CALLDATALOAD PUSH2 0x66B3 JUMP JUMPDEST SWAP1 POP SWAP3 SWAP2 POP POP JUMP JUMPDEST PUSH1 0x0 DUP1 DUP4 PUSH1 0x1F DUP5 ADD SLT ISZERO ISZERO PUSH2 0x55F1 JUMPI PUSH1 0x0 DUP1 REVERT JUMPDEST DUP3 CALLDATALOAD SWAP1 POP PUSH8 0xFFFFFFFFFFFFFFFF DUP2 GT ISZERO PUSH2 0x560A JUMPI PUSH1 0x0 DUP1 REVERT JUMPDEST PUSH1 0x20 DUP4 ADD SWAP2 POP DUP4 PUSH1 0x1 DUP3 MUL DUP4 ADD GT ISZERO PUSH2 0x5622 JUMPI PUSH1 0x0 DUP1 REVERT JUMPDEST SWAP3 POP SWAP3 SWAP1 POP JUMP JUMPDEST PUSH1 0x0 DUP3 PUSH1 0x1F DUP4 ADD SLT ISZERO ISZERO PUSH2 0x563C JUMPI PUSH1 0x0 DUP1 REVERT JUMPDEST DUP2 CALLDATALOAD PUSH2 0x564F PUSH2 0x564A DUP3 PUSH2 0x65C1 JUMP JUMPDEST PUSH2 0x651C JUMP JUMPDEST SWAP2 POP DUP1 DUP3 MSTORE PUSH1 0x20 DUP4 ADD PUSH1 0x20 DUP4 ADD DUP6 DUP4 DUP4 ADD GT ISZERO PUSH2 0x566B JUMPI PUSH1 0x0 DUP1 REVERT JUMPDEST PUSH2 0x5676 DUP4 DUP3 DUP5 PUSH2 0x66E6 JUMP JUMPDEST POP POP POP SWAP3 SWAP2 POP POP JUMP JUMPDEST PUSH1 0x0 DUP3 PUSH1 0x1F DUP4 ADD SLT ISZERO ISZERO PUSH2 0x5692 JUMPI PUSH1 0x0 DUP1 REVERT JUMPDEST DUP2 CALLDATALOAD PUSH2 0x56A5 PUSH2 0x56A0 DUP3 PUSH2 0x65ED JUMP JUMPDEST PUSH2 0x651C JUMP JUMPDEST SWAP2 POP DUP1 DUP3 MSTORE PUSH1 0x20 DUP4 ADD PUSH1 0x20 DUP4 ADD DUP6 DUP4 DUP4 ADD GT ISZERO PUSH2 0x56C1 JUMPI PUSH1 0x0 DUP1 REVERT JUMPDEST PUSH2 0x56CC DUP4 DUP3 DUP5 PUSH2 0x66E6 JUMP JUMPDEST POP POP POP SWAP3 SWAP2 POP POP JUMP JUMPDEST PUSH1 0x0 PUSH2 0x180 DUP3 DUP5 SUB SLT ISZERO PUSH2 0x56E8 JUMPI PUSH1 0x0 DUP1 REVERT JUMPDEST PUSH2 0x56F3 PUSH2 0x180 PUSH2 0x651C JUMP JUMPDEST SWAP1 POP PUSH1 0x0 PUSH2 0x5703 DUP5 DUP3 DUP6 ADD PUSH2 0x541C JUMP JUMPDEST PUSH1 0x0 DUP4 ADD MSTORE POP PUSH1 0x20 PUSH2 0x5717 DUP5 DUP3 DUP6 ADD PUSH2 0x541C JUMP JUMPDEST PUSH1 0x20 DUP4 ADD MSTORE POP PUSH1 0x40 PUSH2 0x572B DUP5 DUP3 DUP6 ADD PUSH2 0x541C JUMP JUMPDEST PUSH1 0x40 DUP4 ADD MSTORE POP PUSH1 0x60 PUSH2 0x573F DUP5 DUP3 DUP6 ADD PUSH2 0x541C JUMP JUMPDEST PUSH1 0x60 DUP4 ADD MSTORE POP PUSH1 0x80 PUSH2 0x5753 DUP5 DUP3 DUP6 ADD PUSH2 0x5971 JUMP JUMPDEST PUSH1 0x80 DUP4 ADD MSTORE POP PUSH1 0xA0 PUSH2 0x5767 DUP5 DUP3 DUP6 ADD PUSH2 0x5971 JUMP JUMPDEST PUSH1 0xA0 DUP4 ADD MSTORE POP PUSH1 0xC0 PUSH2 0x577B DUP5 DUP3 DUP6 ADD PUSH2 0x5971 JUMP JUMPDEST PUSH1 0xC0 DUP4 ADD MSTORE POP PUSH1 0xE0 PUSH2 0x578F DUP5 DUP3 DUP6 ADD PUSH2 0x5971 JUMP JUMPDEST PUSH1 0xE0 DUP4 ADD MSTORE POP PUSH2 0x100 PUSH2 0x57A4 DUP5 DUP3 DUP6 ADD PUSH2 0x5971 JUMP JUMPDEST PUSH2 0x100 DUP4 ADD MSTORE POP PUSH2 0x120 PUSH2 0x57BA DUP5 DUP3 DUP6 ADD PUSH2 0x5971 JUMP JUMPDEST PUSH2 0x120 DUP4 ADD MSTORE POP PUSH2 0x140 DUP3 ADD CALLDATALOAD PUSH8 0xFFFFFFFFFFFFFFFF DUP2 GT ISZERO PUSH2 0x57DC JUMPI PUSH1 0x0 DUP1 REVERT JUMPDEST PUSH2 0x57E8 DUP5 DUP3 DUP6 ADD PUSH2 0x5629 JUMP JUMPDEST PUSH2 0x140 DUP4 ADD MSTORE POP PUSH2 0x160 DUP3 ADD CALLDATALOAD PUSH8 0xFFFFFFFFFFFFFFFF DUP2 GT ISZERO PUSH2 0x580A JUMPI PUSH1 0x0 DUP1 REVERT JUMPDEST PUSH2 0x5816 DUP5 DUP3 DUP6 ADD PUSH2 0x5629 JUMP JUMPDEST PUSH2 0x160 DUP4 ADD MSTORE POP SWAP3 SWAP2 POP POP JUMP JUMPDEST PUSH1 0x0 PUSH2 0x180 DUP3 DUP5 SUB SLT ISZERO PUSH2 0x5836 JUMPI PUSH1 0x0 DUP1 REVERT JUMPDEST PUSH2 0x5841 PUSH2 0x180 PUSH2 0x651C JUMP JUMPDEST SWAP1 POP PUSH1 0x0 PUSH2 0x5851 DUP5 DUP3 DUP6 ADD PUSH2 0x541C JUMP JUMPDEST PUSH1 0x0 DUP4 ADD MSTORE POP PUSH1 0x20 PUSH2 0x5865 DUP5 DUP3 DUP6 ADD PUSH2 0x541C JUMP JUMPDEST PUSH1 0x20 DUP4 ADD MSTORE POP PUSH1 0x40 PUSH2 0x5879 DUP5 DUP3 DUP6 ADD PUSH2 0x541C JUMP JUMPDEST PUSH1 0x40 DUP4 ADD MSTORE POP PUSH1 0x60 PUSH2 0x588D DUP5 DUP3 DUP6 ADD PUSH2 0x541C JUMP JUMPDEST PUSH1 0x60 DUP4 ADD MSTORE POP PUSH1 0x80 PUSH2 0x58A1 DUP5 DUP3 DUP6 ADD PUSH2 0x5971 JUMP JUMPDEST PUSH1 0x80 DUP4 ADD MSTORE POP PUSH1 0xA0 PUSH2 0x58B5 DUP5 DUP3 DUP6 ADD PUSH2 0x5971 JUMP JUMPDEST PUSH1 0xA0 DUP4 ADD MSTORE POP PUSH1 0xC0 PUSH2 0x58C9 DUP5 DUP3 DUP6 ADD PUSH2 0x5971 JUMP JUMPDEST PUSH1 0xC0 DUP4 ADD MSTORE POP PUSH1 0xE0 PUSH2 0x58DD DUP5 DUP3 DUP6 ADD PUSH2 0x5971 JUMP JUMPDEST PUSH1 0xE0 DUP4 ADD MSTORE POP PUSH2 0x100 PUSH2 0x58F2 DUP5 DUP3 DUP6 ADD PUSH2 0x5971 JUMP JUMPDEST PUSH2 0x100 DUP4 ADD MSTORE POP PUSH2 0x120 PUSH2 0x5908 DUP5 DUP3 DUP6 ADD PUSH2 0x5971 JUMP JUMPDEST PUSH2 0x120 DUP4 ADD MSTORE POP PUSH2 0x140 DUP3 ADD CALLDATALOAD PUSH8 0xFFFFFFFFFFFFFFFF DUP2 GT ISZERO PUSH2 0x592A JUMPI PUSH1 0x0 DUP1 REVERT JUMPDEST PUSH2 0x5936 DUP5 DUP3 DUP6 ADD PUSH2 0x5629 JUMP JUMPDEST PUSH2 0x140 DUP4 ADD MSTORE POP PUSH2 0x160 DUP3 ADD CALLDATALOAD PUSH8 0xFFFFFFFFFFFFFFFF DUP2 GT ISZERO PUSH2 0x5958 JUMPI PUSH1 0x0 DUP1 REVERT JUMPDEST PUSH2 0x5964 DUP5 DUP3 DUP6 ADD PUSH2 0x5629 JUMP JUMPDEST PUSH2 0x160 DUP4 ADD MSTORE POP SWAP3 SWAP2 POP POP JUMP JUMPDEST PUSH1 0x0 PUSH2 0x597D DUP3 CALLDATALOAD PUSH2 0x66BD JUMP JUMPDEST SWAP1 POP SWAP3 SWAP2 POP POP JUMP JUMPDEST PUSH1 0x0 PUSH2 0x5991 DUP3 CALLDATALOAD PUSH2 0x66C7 JUMP JUMPDEST SWAP1 POP SWAP3 SWAP2 POP POP JUMP JUMPDEST PUSH1 0x0 PUSH2 0x59A5 DUP3 MLOAD PUSH2 0x66C7 JUMP JUMPDEST SWAP1 POP SWAP3 SWAP2 POP POP JUMP JUMPDEST PUSH1 0x0 PUSH1 0x20 DUP3 DUP5 SUB SLT ISZERO PUSH2 0x59BF JUMPI PUSH1 0x0 DUP1 REVERT JUMPDEST PUSH1 0x0 PUSH2 0x59CD DUP5 DUP3 DUP6 ADD PUSH2 0x541C JUMP JUMPDEST SWAP2 POP POP SWAP3 SWAP2 POP POP JUMP JUMPDEST PUSH1 0x0 DUP1 PUSH1 0x40 DUP4 DUP6 SUB SLT ISZERO PUSH2 0x59E9 JUMPI PUSH1 0x0 DUP1 REVERT JUMPDEST PUSH1 0x0 PUSH2 0x59F7 DUP6 DUP3 DUP7 ADD PUSH2 0x541C JUMP JUMPDEST SWAP3 POP POP PUSH1 0x20 PUSH2 0x5A08 DUP6 DUP3 DUP7 ADD PUSH2 0x541C JUMP JUMPDEST SWAP2 POP POP SWAP3 POP SWAP3 SWAP1 POP JUMP JUMPDEST PUSH1 0x0 DUP1 PUSH1 0x40 DUP4 DUP6 SUB SLT ISZERO PUSH2 0x5A25 JUMPI PUSH1 0x0 DUP1 REVERT JUMPDEST PUSH1 0x0 PUSH2 0x5A33 DUP6 DUP3 DUP7 ADD PUSH2 0x541C JUMP JUMPDEST SWAP3 POP POP PUSH1 0x20 PUSH2 0x5A44 DUP6 DUP3 DUP7 ADD PUSH2 0x55A1 JUMP JUMPDEST SWAP2 POP POP SWAP3 POP SWAP3 SWAP1 POP JUMP JUMPDEST PUSH1 0x0 PUSH1 0x20 DUP3 DUP5 SUB SLT ISZERO PUSH2 0x5A60 JUMPI PUSH1 0x0 DUP1 REVERT JUMPDEST PUSH1 0x0 DUP3 ADD CALLDATALOAD PUSH8 0xFFFFFFFFFFFFFFFF DUP2 GT ISZERO PUSH2 0x5A7A JUMPI PUSH1 0x0 DUP1 REVERT JUMPDEST PUSH2 0x5A86 DUP5 DUP3 DUP6 ADD PUSH2 0x54A6 JUMP JUMPDEST SWAP2 POP POP SWAP3 SWAP2 POP POP JUMP JUMPDEST PUSH1 0x0 DUP1 PUSH1 0x0 PUSH1 0x60 DUP5 DUP7 SUB SLT ISZERO PUSH2 0x5AA4 JUMPI PUSH1 0x0 DUP1 REVERT JUMPDEST PUSH1 0x0 DUP5 ADD CALLDATALOAD PUSH8 0xFFFFFFFFFFFFFFFF DUP2 GT ISZERO PUSH2 0x5ABE JUMPI PUSH1 0x0 DUP1 REVERT JUMPDEST PUSH2 0x5ACA DUP7 DUP3 DUP8 ADD PUSH2 0x54A6 JUMP JUMPDEST SWAP4 POP POP PUSH1 0x20 DUP5 ADD CALLDATALOAD PUSH8 0xFFFFFFFFFFFFFFFF DUP2 GT ISZERO PUSH2 0x5AE7 JUMPI PUSH1 0x0 DUP1 REVERT JUMPDEST PUSH2 0x5AF3 DUP7 DUP3 DUP8 ADD PUSH2 0x551C JUMP JUMPDEST SWAP3 POP POP PUSH1 0x40 DUP5 ADD CALLDATALOAD PUSH8 0xFFFFFFFFFFFFFFFF DUP2 GT ISZERO PUSH2 0x5B10 JUMPI PUSH1 0x0 DUP1 REVERT JUMPDEST PUSH2 0x5B1C DUP7 DUP3 DUP8 ADD PUSH2 0x5430 JUMP JUMPDEST SWAP2 POP POP SWAP3 POP SWAP3 POP SWAP3 JUMP JUMPDEST PUSH1 0x0 DUP1 PUSH1 0x0 PUSH1 0x60 DUP5 DUP7 SUB SLT ISZERO PUSH2 0x5B3B JUMPI PUSH1 0x0 DUP1 REVERT JUMPDEST PUSH1 0x0 DUP5 ADD CALLDATALOAD PUSH8 0xFFFFFFFFFFFFFFFF DUP2 GT ISZERO PUSH2 0x5B55 JUMPI PUSH1 0x0 DUP1 REVERT JUMPDEST PUSH2 0x5B61 DUP7 DUP3 DUP8 ADD PUSH2 0x54A6 JUMP JUMPDEST SWAP4 POP POP PUSH1 0x20 PUSH2 0x5B72 DUP7 DUP3 DUP8 ADD PUSH2 0x5971 JUMP JUMPDEST SWAP3 POP POP PUSH1 0x40 DUP5 ADD CALLDATALOAD PUSH8 0xFFFFFFFFFFFFFFFF DUP2 GT ISZERO PUSH2 0x5B8F JUMPI PUSH1 0x0 DUP1 REVERT JUMPDEST PUSH2 0x5B9B DUP7 DUP3 DUP8 ADD PUSH2 0x5430 JUMP JUMPDEST SWAP2 POP POP SWAP3 POP SWAP3 POP SWAP3 JUMP JUMPDEST PUSH1 0x0 PUSH1 0x20 DUP3 DUP5 SUB SLT ISZERO PUSH2 0x5BB7 JUMPI PUSH1 0x0 DUP1 REVERT JUMPDEST PUSH1 0x0 PUSH2 0x5BC5 DUP5 DUP3 DUP6 ADD PUSH2 0x55B5 JUMP JUMPDEST SWAP2 POP POP SWAP3 SWAP2 POP POP JUMP JUMPDEST PUSH1 0x0 PUSH1 0x20 DUP3 DUP5 SUB SLT ISZERO PUSH2 0x5BE0 JUMPI PUSH1 0x0 DUP1 REVERT JUMPDEST PUSH1 0x0 PUSH2 0x5BEE DUP5 DUP3 DUP6 ADD PUSH2 0x55C9 JUMP JUMPDEST SWAP2 POP POP SWAP3 SWAP2 POP POP JUMP JUMPDEST PUSH1 0x0 DUP1 PUSH1 0x40 DUP4 DUP6 SUB SLT ISZERO PUSH2 0x5C0A JUMPI PUSH1 0x0 DUP1 REVERT JUMPDEST PUSH1 0x0 PUSH2 0x5C18 DUP6 DUP3 DUP7 ADD PUSH2 0x55C9 JUMP JUMPDEST SWAP3 POP POP PUSH1 0x20 PUSH2 0x5C29 DUP6 DUP3 DUP7 ADD PUSH2 0x541C JUMP JUMPDEST SWAP2 POP POP SWAP3 POP SWAP3 SWAP1 POP JUMP JUMPDEST PUSH1 0x0 DUP1 PUSH1 0x0 DUP1 PUSH1 0x60 DUP6 DUP8 SUB SLT ISZERO PUSH2 0x5C49 JUMPI PUSH1 0x0 DUP1 REVERT JUMPDEST PUSH1 0x0 PUSH2 0x5C57 DUP8 DUP3 DUP9 ADD PUSH2 0x55C9 JUMP JUMPDEST SWAP5 POP POP PUSH1 0x20 PUSH2 0x5C68 DUP8 DUP3 DUP9 ADD PUSH2 0x541C JUMP JUMPDEST SWAP4 POP POP PUSH1 0x40 DUP6 ADD CALLDATALOAD PUSH8 0xFFFFFFFFFFFFFFFF DUP2 GT ISZERO PUSH2 0x5C85 JUMPI PUSH1 0x0 DUP1 REVERT JUMPDEST PUSH2 0x5C91 DUP8 DUP3 DUP9 ADD PUSH2 0x55DD JUMP JUMPDEST SWAP3 POP SWAP3 POP POP SWAP3 SWAP6 SWAP2 SWAP5 POP SWAP3 POP JUMP JUMPDEST PUSH1 0x0 PUSH1 0x20 DUP3 DUP5 SUB SLT ISZERO PUSH2 0x5CB1 JUMPI PUSH1 0x0 DUP1 REVERT JUMPDEST PUSH1 0x0 DUP3 ADD CALLDATALOAD PUSH8 0xFFFFFFFFFFFFFFFF DUP2 GT ISZERO PUSH2 0x5CCB JUMPI PUSH1 0x0 DUP1 REVERT JUMPDEST PUSH2 0x5CD7 DUP5 DUP3 DUP6 ADD PUSH2 0x5823 JUMP JUMPDEST SWAP2 POP POP SWAP3 SWAP2 POP POP JUMP JUMPDEST PUSH1 0x0 DUP1 PUSH1 0x0 DUP1 PUSH1 0x80 DUP6 DUP8 SUB SLT ISZERO PUSH2 0x5CF6 JUMPI PUSH1 0x0 DUP1 REVERT JUMPDEST PUSH1 0x0 DUP6 ADD CALLDATALOAD PUSH8 0xFFFFFFFFFFFFFFFF DUP2 GT ISZERO PUSH2 0x5D10 JUMPI PUSH1 0x0 DUP1 REVERT JUMPDEST PUSH2 0x5D1C DUP8 DUP3 DUP9 ADD PUSH2 0x5823 JUMP JUMPDEST SWAP5 POP POP PUSH1 0x20 DUP6 ADD CALLDATALOAD PUSH8 0xFFFFFFFFFFFFFFFF DUP2 GT ISZERO PUSH2 0x5D39 JUMPI PUSH1 0x0 DUP1 REVERT JUMPDEST PUSH2 0x5D45 DUP8 DUP3 DUP9 ADD PUSH2 0x5823 JUMP JUMPDEST SWAP4 POP POP PUSH1 0x40 DUP6 ADD CALLDATALOAD PUSH8 0xFFFFFFFFFFFFFFFF DUP2 GT ISZERO PUSH2 0x5D62 JUMPI PUSH1 0x0 DUP1 REVERT JUMPDEST PUSH2 0x5D6E DUP8 DUP3 DUP9 ADD PUSH2 0x567F JUMP JUMPDEST SWAP3 POP POP PUSH1 0x60 DUP6 ADD CALLDATALOAD PUSH8 0xFFFFFFFFFFFFFFFF DUP2 GT ISZERO PUSH2 0x5D8B JUMPI PUSH1 0x0 DUP1 REVERT JUMPDEST PUSH2 0x5D97 DUP8 DUP3 DUP9 ADD PUSH2 0x567F JUMP JUMPDEST SWAP2 POP POP SWAP3 SWAP6 SWAP2 SWAP5 POP SWAP3 POP JUMP JUMPDEST PUSH1 0x0 DUP1 PUSH1 0x0 PUSH1 0x60 DUP5 DUP7 SUB SLT ISZERO PUSH2 0x5DB8 JUMPI PUSH1 0x0 DUP1 REVERT JUMPDEST PUSH1 0x0 DUP5 ADD CALLDATALOAD PUSH8 0xFFFFFFFFFFFFFFFF DUP2 GT ISZERO PUSH2 0x5DD2 JUMPI PUSH1 0x0 DUP1 REVERT JUMPDEST PUSH2 0x5DDE DUP7 DUP3 DUP8 ADD PUSH2 0x5823 JUMP JUMPDEST SWAP4 POP POP PUSH1 0x20 PUSH2 0x5DEF DUP7 DUP3 DUP8 ADD PUSH2 0x5971 JUMP JUMPDEST SWAP3 POP POP PUSH1 0x40 DUP5 ADD CALLDATALOAD PUSH8 0xFFFFFFFFFFFFFFFF DUP2 GT ISZERO PUSH2 0x5E0C JUMPI PUSH1 0x0 DUP1 REVERT JUMPDEST PUSH2 0x5E18 DUP7 DUP3 DUP8 ADD PUSH2 0x567F JUMP JUMPDEST SWAP2 POP POP SWAP3 POP SWAP3 POP SWAP3 JUMP JUMPDEST PUSH1 0x0 PUSH1 0x20 DUP3 DUP5 SUB SLT ISZERO PUSH2 0x5E34 JUMPI PUSH1 0x0 DUP1 REVERT JUMPDEST PUSH1 0x0 PUSH2 0x5E42 DUP5 DUP3 DUP6 ADD PUSH2 0x5971 JUMP JUMPDEST SWAP2 POP POP SWAP3 SWAP2 POP POP JUMP JUMPDEST PUSH1 0x0 DUP1 PUSH1 0x0 DUP1 PUSH1 0x0 DUP1 PUSH1 0x80 DUP8 DUP10 SUB SLT ISZERO PUSH2 0x5E64 JUMPI PUSH1 0x0 DUP1 REVERT JUMPDEST PUSH1 0x0 PUSH2 0x5E72 DUP10 DUP3 DUP11 ADD PUSH2 0x5971 JUMP JUMPDEST SWAP7 POP POP PUSH1 0x20 PUSH2 0x5E83 DUP10 DUP3 DUP11 ADD PUSH2 0x541C JUMP JUMPDEST SWAP6 POP POP PUSH1 0x40 DUP8 ADD CALLDATALOAD PUSH8 0xFFFFFFFFFFFFFFFF DUP2 GT ISZERO PUSH2 0x5EA0 JUMPI PUSH1 0x0 DUP1 REVERT JUMPDEST PUSH2 0x5EAC DUP10 DUP3 DUP11 ADD PUSH2 0x55DD JUMP JUMPDEST SWAP5 POP SWAP5 POP POP PUSH1 0x60 DUP8 ADD CALLDATALOAD PUSH8 0xFFFFFFFFFFFFFFFF DUP2 GT ISZERO PUSH2 0x5ECB JUMPI PUSH1 0x0 DUP1 REVERT JUMPDEST PUSH2 0x5ED7 DUP10 DUP3 DUP11 ADD PUSH2 0x55DD JUMP JUMPDEST SWAP3 POP SWAP3 POP POP SWAP3 SWAP6 POP SWAP3 SWAP6 POP SWAP3 SWAP6 JUMP JUMPDEST PUSH1 0x0 PUSH1 0x20 DUP3 DUP5 SUB SLT ISZERO PUSH2 0x5EF8 JUMPI PUSH1 0x0 DUP1 REVERT JUMPDEST PUSH1 0x0 PUSH2 0x5F06 DUP5 DUP3 DUP6 ADD PUSH2 0x5985 JUMP JUMPDEST SWAP2 POP POP SWAP3 SWAP2 POP POP JUMP JUMPDEST PUSH1 0x0 PUSH1 0x20 DUP3 DUP5 SUB SLT ISZERO PUSH2 0x5F21 JUMPI PUSH1 0x0 DUP1 REVERT JUMPDEST PUSH1 0x0 PUSH2 0x5F2F DUP5 DUP3 DUP6 ADD PUSH2 0x5999 JUMP JUMPDEST SWAP2 POP POP SWAP3 SWAP2 POP POP JUMP JUMPDEST PUSH1 0x0 DUP1 PUSH1 0x0 PUSH1 0x60 DUP5 DUP7 SUB SLT ISZERO PUSH2 0x5F4D JUMPI PUSH1 0x0 DUP1 REVERT JUMPDEST PUSH1 0x0 PUSH2 0x5F5B DUP7 DUP3 DUP8 ADD PUSH2 0x5985 JUMP JUMPDEST SWAP4 POP POP PUSH1 0x20 PUSH2 0x5F6C DUP7 DUP3 DUP8 ADD PUSH2 0x541C JUMP JUMPDEST SWAP3 POP POP PUSH1 0x40 PUSH2 0x5F7D DUP7 DUP3 DUP8 ADD PUSH2 0x541C JUMP JUMPDEST SWAP2 POP POP SWAP3 POP SWAP3 POP SWAP3 JUMP JUMPDEST PUSH2 0x5F90 DUP2 PUSH2 0x663A JUMP JUMPDEST DUP3 MSTORE POP POP JUMP JUMPDEST PUSH2 0x5F9F DUP2 PUSH2 0x665A JUMP JUMPDEST DUP3 MSTORE POP POP JUMP JUMPDEST PUSH2 0x5FAE DUP2 PUSH2 0x6666 JUMP JUMPDEST DUP3 MSTORE POP POP JUMP JUMPDEST PUSH1 0x0 PUSH2 0x5FBF DUP3 PUSH2 0x6624 JUMP JUMPDEST DUP1 DUP5 MSTORE PUSH2 0x5FD3 DUP2 PUSH1 0x20 DUP7 ADD PUSH1 0x20 DUP7 ADD PUSH2 0x66F5 JUMP JUMPDEST PUSH2 0x5FDC DUP2 PUSH2 0x6728 JUMP JUMPDEST PUSH1 0x20 DUP6 ADD ADD SWAP2 POP POP SWAP3 SWAP2 POP POP JUMP JUMPDEST PUSH1 0x0 PUSH2 0x5FF5 DUP3 PUSH2 0x6619 JUMP JUMPDEST DUP1 DUP5 MSTORE PUSH2 0x6009 DUP2 PUSH1 0x20 DUP7 ADD PUSH1 0x20 DUP7 ADD PUSH2 0x66F5 JUMP JUMPDEST PUSH2 0x6012 DUP2 PUSH2 0x6728 JUMP JUMPDEST PUSH1 0x20 DUP6 ADD ADD SWAP2 POP POP SWAP3 SWAP2 POP POP JUMP JUMPDEST PUSH2 0x6029 DUP2 PUSH2 0x66D4 JUMP JUMPDEST DUP3 MSTORE POP POP JUMP JUMPDEST PUSH1 0x0 PUSH2 0x603A DUP3 PUSH2 0x662F JUMP JUMPDEST DUP1 DUP5 MSTORE PUSH2 0x604E DUP2 PUSH1 0x20 DUP7 ADD PUSH1 0x20 DUP7 ADD PUSH2 0x66F5 JUMP JUMPDEST PUSH2 0x6057 DUP2 PUSH2 0x6728 JUMP JUMPDEST PUSH1 0x20 DUP6 ADD ADD SWAP2 POP POP SWAP3 SWAP2 POP POP JUMP JUMPDEST PUSH1 0x0 PUSH1 0x33 DUP3 MSTORE PUSH32 0x4F6E6C7920636F6E7472616374206F776E657220697320616C6C6F7765642074 PUSH1 0x20 DUP4 ADD MSTORE PUSH32 0x6F2063616C6C2074686973206D6574686F642E00000000000000000000000000 PUSH1 0x40 DUP4 ADD MSTORE PUSH1 0x60 DUP3 ADD SWAP1 POP SWAP2 SWAP1 POP JUMP JUMPDEST PUSH1 0x80 DUP3 ADD PUSH1 0x0 DUP3 ADD MLOAD PUSH2 0x60D8 PUSH1 0x0 DUP6 ADD DUP3 PUSH2 0x61F2 JUMP JUMPDEST POP PUSH1 0x20 DUP3 ADD MLOAD PUSH2 0x60EB PUSH1 0x20 DUP6 ADD DUP3 PUSH2 0x61F2 JUMP JUMPDEST POP PUSH1 0x40 DUP3 ADD MLOAD PUSH2 0x60FE PUSH1 0x40 DUP6 ADD DUP3 PUSH2 0x61F2 JUMP JUMPDEST POP PUSH1 0x60 DUP3 ADD MLOAD PUSH2 0x6111 PUSH1 0x60 DUP6 ADD DUP3 PUSH2 0x61F2 JUMP JUMPDEST POP POP POP POP JUMP JUMPDEST PUSH1 0x80 DUP3 ADD PUSH1 0x0 DUP3 ADD MLOAD PUSH2 0x612D PUSH1 0x0 DUP6 ADD DUP3 PUSH2 0x61F2 JUMP JUMPDEST POP PUSH1 0x20 DUP3 ADD MLOAD PUSH2 0x6140 PUSH1 0x20 DUP6 ADD DUP3 PUSH2 0x61F2 JUMP JUMPDEST POP PUSH1 0x40 DUP3 ADD MLOAD PUSH2 0x6153 PUSH1 0x40 DUP6 ADD DUP3 PUSH2 0x61F2 JUMP JUMPDEST POP PUSH1 0x60 DUP3 ADD MLOAD PUSH2 0x6166 PUSH1 0x60 DUP6 ADD DUP3 PUSH2 0x61F2 JUMP JUMPDEST POP POP POP POP JUMP JUMPDEST PUSH2 0x120 DUP3 ADD PUSH1 0x0 DUP3 ADD MLOAD PUSH2 0x6183 PUSH1 0x0 DUP6 ADD DUP3 PUSH2 0x6117 JUMP JUMPDEST POP PUSH1 0x20 DUP3 ADD MLOAD PUSH2 0x6196 PUSH1 0x80 DUP6 ADD DUP3 PUSH2 0x6117 JUMP JUMPDEST POP PUSH1 0x40 DUP3 ADD MLOAD PUSH2 0x61AA PUSH2 0x100 DUP6 ADD DUP3 PUSH2 0x61F2 JUMP JUMPDEST POP POP POP POP JUMP JUMPDEST PUSH1 0x60 DUP3 ADD PUSH1 0x0 DUP3 ADD MLOAD PUSH2 0x61C6 PUSH1 0x0 DUP6 ADD DUP3 PUSH2 0x6201 JUMP JUMPDEST POP PUSH1 0x20 DUP3 ADD MLOAD PUSH2 0x61D9 PUSH1 0x20 DUP6 ADD DUP3 PUSH2 0x5FA5 JUMP JUMPDEST POP PUSH1 0x40 DUP3 ADD MLOAD PUSH2 0x61EC PUSH1 0x40 DUP6 ADD DUP3 PUSH2 0x61F2 JUMP JUMPDEST POP POP POP POP JUMP JUMPDEST PUSH2 0x61FB DUP2 PUSH2 0x6670 JUMP JUMPDEST DUP3 MSTORE POP POP JUMP JUMPDEST PUSH2 0x620A DUP2 PUSH2 0x667A JUMP JUMPDEST DUP3 MSTORE POP POP JUMP JUMPDEST PUSH1 0x0 PUSH1 0x20 DUP3 ADD SWAP1 POP PUSH2 0x6225 PUSH1 0x0 DUP4 ADD DUP5 PUSH2 0x5F87 JUMP JUMPDEST SWAP3 SWAP2 POP POP JUMP JUMPDEST PUSH1 0x0 PUSH1 0xE0 DUP3 ADD SWAP1 POP PUSH2 0x6240 PUSH1 0x0 DUP4 ADD DUP11 PUSH2 0x5F87 JUMP JUMPDEST PUSH2 0x624D PUSH1 0x20 DUP4 ADD DUP10 PUSH2 0x61F2 JUMP JUMPDEST PUSH2 0x625A PUSH1 0x40 DUP4 ADD DUP9 PUSH2 0x61F2 JUMP JUMPDEST PUSH2 0x6267 PUSH1 0x60 DUP4 ADD DUP8 PUSH2 0x61F2 JUMP JUMPDEST PUSH2 0x6274 PUSH1 0x80 DUP4 ADD DUP7 PUSH2 0x61F2 JUMP JUMPDEST DUP2 DUP2 SUB PUSH1 0xA0 DUP4 ADD MSTORE PUSH2 0x6286 DUP2 DUP6 PUSH2 0x5FEA JUMP JUMPDEST SWAP1 POP DUP2 DUP2 SUB PUSH1 0xC0 DUP4 ADD MSTORE PUSH2 0x629A DUP2 DUP5 PUSH2 0x5FEA JUMP JUMPDEST SWAP1 POP SWAP9 SWAP8 POP POP POP POP POP POP POP POP JUMP JUMPDEST PUSH1 0x0 PUSH1 0x20 DUP3 ADD SWAP1 POP PUSH2 0x62BD PUSH1 0x0 DUP4 ADD DUP5 PUSH2 0x5F96 JUMP JUMPDEST SWAP3 SWAP2 POP POP JUMP JUMPDEST PUSH1 0x0 PUSH1 0x60 DUP3 ADD SWAP1 POP PUSH2 0x62D8 PUSH1 0x0 DUP4 ADD DUP7 PUSH2 0x5FA5 JUMP JUMPDEST PUSH2 0x62E5 PUSH1 0x20 DUP4 ADD DUP6 PUSH2 0x5F87 JUMP JUMPDEST DUP2 DUP2 SUB PUSH1 0x40 DUP4 ADD MSTORE PUSH2 0x62F7 DUP2 DUP5 PUSH2 0x5FB4 JUMP JUMPDEST SWAP1 POP SWAP5 SWAP4 POP POP POP POP JUMP JUMPDEST PUSH1 0x0 PUSH1 0x40 DUP3 ADD SWAP1 POP PUSH2 0x6316 PUSH1 0x0 DUP4 ADD DUP6 PUSH2 0x5FA5 JUMP JUMPDEST DUP2 DUP2 SUB PUSH1 0x20 DUP4 ADD MSTORE PUSH2 0x6328 DUP2 DUP5 PUSH2 0x5FB4 JUMP JUMPDEST SWAP1 POP SWAP4 SWAP3 POP POP POP JUMP JUMPDEST PUSH1 0x0 PUSH1 0x80 DUP3 ADD SWAP1 POP PUSH2 0x6346 PUSH1 0x0 DUP4 ADD DUP8 PUSH2 0x5FA5 JUMP JUMPDEST PUSH2 0x6353 PUSH1 0x20 DUP4 ADD DUP7 PUSH2 0x6201 JUMP JUMPDEST PUSH2 0x6360 PUSH1 0x40 DUP4 ADD DUP6 PUSH2 0x5FA5 JUMP JUMPDEST PUSH2 0x636D PUSH1 0x60 DUP4 ADD DUP5 PUSH2 0x5FA5 JUMP JUMPDEST SWAP6 SWAP5 POP POP POP POP POP JUMP JUMPDEST PUSH1 0x0 PUSH1 0x20 DUP3 ADD SWAP1 POP DUP2 DUP2 SUB PUSH1 0x0 DUP4 ADD MSTORE PUSH2 0x6390 DUP2 DUP5 PUSH2 0x5FB4 JUMP JUMPDEST SWAP1 POP SWAP3 SWAP2 POP POP JUMP JUMPDEST PUSH1 0x0 PUSH1 0x80 DUP3 ADD SWAP1 POP DUP2 DUP2 SUB PUSH1 0x0 DUP4 ADD MSTORE PUSH2 0x63B2 DUP2 DUP8 PUSH2 0x5FB4 JUMP JUMPDEST SWAP1 POP PUSH2 0x63C1 PUSH1 0x20 DUP4 ADD DUP7 PUSH2 0x5F87 JUMP JUMPDEST PUSH2 0x63CE PUSH1 0x40 DUP4 ADD DUP6 PUSH2 0x5F87 JUMP JUMPDEST PUSH2 0x63DB PUSH1 0x60 DUP4 ADD DUP5 PUSH2 0x61F2 JUMP JUMPDEST SWAP6 SWAP5 POP POP POP POP POP JUMP JUMPDEST PUSH1 0x0 PUSH1 0x40 DUP3 ADD SWAP1 POP DUP2 DUP2 SUB PUSH1 0x0 DUP4 ADD MSTORE PUSH2 0x63FE DUP2 DUP6 PUSH2 0x5FEA JUMP JUMPDEST SWAP1 POP DUP2 DUP2 SUB PUSH1 0x20 DUP4 ADD MSTORE PUSH2 0x6412 DUP2 DUP5 PUSH2 0x5FEA JUMP JUMPDEST SWAP1 POP SWAP4 SWAP3 POP POP POP JUMP JUMPDEST PUSH1 0x0 PUSH1 0x20 DUP3 ADD SWAP1 POP PUSH2 0x6430 PUSH1 0x0 DUP4 ADD DUP5 PUSH2 0x6020 JUMP JUMPDEST SWAP3 SWAP2 POP POP JUMP JUMPDEST PUSH1 0x0 PUSH1 0x20 DUP3 ADD SWAP1 POP DUP2 DUP2 SUB PUSH1 0x0 DUP4 ADD MSTORE PUSH2 0x6450 DUP2 DUP5 PUSH2 0x602F JUMP JUMPDEST SWAP1 POP SWAP3 SWAP2 POP POP JUMP JUMPDEST PUSH1 0x0 PUSH1 0x20 DUP3 ADD SWAP1 POP DUP2 DUP2 SUB PUSH1 0x0 DUP4 ADD MSTORE PUSH2 0x6471 DUP2 PUSH2 0x6065 JUMP JUMPDEST SWAP1 POP SWAP2 SWAP1 POP JUMP JUMPDEST PUSH1 0x0 PUSH1 0x80 DUP3 ADD SWAP1 POP PUSH2 0x648D PUSH1 0x0 DUP4 ADD DUP5 PUSH2 0x60C2 JUMP JUMPDEST SWAP3 SWAP2 POP POP JUMP JUMPDEST PUSH1 0x0 PUSH2 0x120 DUP3 ADD SWAP1 POP PUSH2 0x64A9 PUSH1 0x0 DUP4 ADD DUP5 PUSH2 0x616C JUMP JUMPDEST SWAP3 SWAP2 POP POP JUMP JUMPDEST PUSH1 0x0 PUSH1 0x60 DUP3 ADD SWAP1 POP PUSH2 0x64C4 PUSH1 0x0 DUP4 ADD DUP5 PUSH2 0x61B0 JUMP JUMPDEST SWAP3 SWAP2 POP POP JUMP JUMPDEST PUSH1 0x0 PUSH1 0x20 DUP3 ADD SWAP1 POP PUSH2 0x64DF PUSH1 0x0 DUP4 ADD DUP5 PUSH2 0x61F2 JUMP JUMPDEST SWAP3 SWAP2 POP POP JUMP JUMPDEST PUSH1 0x0 PUSH1 0x60 DUP3 ADD SWAP1 POP PUSH2 0x64FA PUSH1 0x0 DUP4 ADD DUP7 PUSH2 0x6201 JUMP JUMPDEST PUSH2 0x6507 PUSH1 0x20 DUP4 ADD DUP6 PUSH2 0x5F87 JUMP JUMPDEST PUSH2 0x6514 PUSH1 0x40 DUP4 ADD DUP5 PUSH2 0x5F87 JUMP JUMPDEST SWAP5 SWAP4 POP POP POP POP JUMP JUMPDEST PUSH1 0x0 PUSH1 0x40 MLOAD SWAP1 POP DUP2 DUP2 ADD DUP2 DUP2 LT PUSH8 0xFFFFFFFFFFFFFFFF DUP3 GT OR ISZERO PUSH2 0x653F JUMPI PUSH1 0x0 DUP1 REVERT JUMPDEST DUP1 PUSH1 0x40 MSTORE POP SWAP2 SWAP1 POP JUMP JUMPDEST PUSH1 0x0 PUSH8 0xFFFFFFFFFFFFFFFF DUP3 GT ISZERO PUSH2 0x6560 JUMPI PUSH1 0x0 DUP1 REVERT JUMPDEST PUSH1 0x20 DUP3 MUL SWAP1 POP PUSH1 0x20 DUP2 ADD SWAP1 POP SWAP2 SWAP1 POP JUMP JUMPDEST PUSH1 0x0 PUSH8 0xFFFFFFFFFFFFFFFF DUP3 GT ISZERO PUSH2 0x6588 JUMPI PUSH1 0x0 DUP1 REVERT JUMPDEST PUSH1 0x20 DUP3 MUL SWAP1 POP PUSH1 0x20 DUP2 ADD SWAP1 POP SWAP2 SWAP1 POP JUMP JUMPDEST PUSH1 0x0 PUSH8 0xFFFFFFFFFFFFFFFF DUP3 GT ISZERO PUSH2 0x65B0 JUMPI PUSH1 0x0 DUP1 REVERT JUMPDEST PUSH1 0x20 DUP3 MUL SWAP1 POP PUSH1 0x20 DUP2 ADD SWAP1 POP SWAP2 SWAP1 POP JUMP JUMPDEST PUSH1 0x0 PUSH8 0xFFFFFFFFFFFFFFFF DUP3 GT ISZERO PUSH2 0x65D8 JUMPI PUSH1 0x0 DUP1 REVERT JUMPDEST PUSH1 0x1F NOT PUSH1 0x1F DUP4 ADD AND SWAP1 POP PUSH1 0x20 DUP2 ADD SWAP1 POP SWAP2 SWAP1 POP JUMP JUMPDEST PUSH1 0x0 PUSH8 0xFFFFFFFFFFFFFFFF DUP3 GT ISZERO PUSH2 0x6604 JUMPI PUSH1 0x0 DUP1 REVERT JUMPDEST PUSH1 0x1F NOT PUSH1 0x1F DUP4 ADD AND SWAP1 POP PUSH1 0x20 DUP2 ADD SWAP1 POP SWAP2 SWAP1 POP JUMP JUMPDEST PUSH1 0x0 DUP2 MLOAD SWAP1 POP SWAP2 SWAP1 POP JUMP JUMPDEST PUSH1 0x0 DUP2 MLOAD SWAP1 POP SWAP2 SWAP1 POP JUMP JUMPDEST PUSH1 0x0 DUP2 MLOAD SWAP1 POP SWAP2 SWAP1 POP JUMP JUMPDEST PUSH1 0x0 PUSH20 0xFFFFFFFFFFFFFFFFFFFFFFFFFFFFFFFFFFFFFFFF DUP3 AND SWAP1 POP SWAP2 SWAP1 POP JUMP JUMPDEST PUSH1 0x0 DUP2 ISZERO ISZERO SWAP1 POP SWAP2 SWAP1 POP JUMP JUMPDEST PUSH1 0x0 DUP2 SWAP1 POP SWAP2 SWAP1 POP JUMP JUMPDEST PUSH1 0x0 DUP2 SWAP1 POP SWAP2 SWAP1 POP JUMP JUMPDEST PUSH1 0x0 PUSH1 0xFF DUP3 AND SWAP1 POP SWAP2 SWAP1 POP JUMP JUMPDEST PUSH1 0x0 PUSH20 0xFFFFFFFFFFFFFFFFFFFFFFFFFFFFFFFFFFFFFFFF DUP3 AND SWAP1 POP SWAP2 SWAP1 POP JUMP JUMPDEST PUSH1 0x0 DUP2 ISZERO ISZERO SWAP1 POP SWAP2 SWAP1 POP JUMP JUMPDEST PUSH1 0x0 DUP2 SWAP1 POP SWAP2 SWAP1 POP JUMP JUMPDEST PUSH1 0x0 DUP2 SWAP1 POP SWAP2 SWAP1 POP JUMP JUMPDEST PUSH1 0x0 PUSH1 0xFF DUP3 AND SWAP1 POP SWAP2 SWAP1 POP JUMP JUMPDEST PUSH1 0x0 PUSH2 0x66DF DUP3 PUSH2 0x663A JUMP JUMPDEST SWAP1 POP SWAP2 SWAP1 POP JUMP JUMPDEST DUP3 DUP2 DUP4 CALLDATACOPY PUSH1 0x0 DUP4 DUP4 ADD MSTORE POP POP POP JUMP JUMPDEST PUSH1 0x0 JUMPDEST DUP4 DUP2 LT ISZERO PUSH2 0x6713 JUMPI DUP1 DUP3 ADD MLOAD DUP2 DUP5 ADD MSTORE PUSH1 0x20 DUP2 ADD SWAP1 POP PUSH2 0x66F8 JUMP JUMPDEST DUP4 DUP2 GT ISZERO PUSH2 0x6722 JUMPI PUSH1 0x0 DUP5 DUP5 ADD MSTORE JUMPDEST POP POP POP POP JUMP JUMPDEST PUSH1 0x0 PUSH1 0x1F NOT PUSH1 0x1F DUP4 ADD AND SWAP1 POP SWAP2 SWAP1 POP JUMP STOP LOG2 PUSH6 0x627A7A723058 KECCAK256 0x22 SAR 0xe7 0xc0 0xc9 0x46 0xf6 PUSH18 0xCA09CB6F32C25564AB9CB754ED4E8567B79 SWAP10 MLOAD PUSH18 0x7F91656C6578706572696D656E74616CF500 CALLDATACOPY "
			}
		}
	},
	"sourceTreeHashHex": "0xb5f7e402ecc99f464cc5644640096306f0f026ab8a56f5b071712b527387557c",
	"compiler": {
		"name": "solc",
		"version": "soljson-v0.4.24+commit.e67f0147.js",
		"settings": {
			"outputSelection": {
				"*": {
					"*": [
						"abi",
						"evm.bytecode.object",
						"evm.bytecode.sourceMap",
						"evm.deployedBytecode.object",
						"evm.deployedBytecode.sourceMap"
					]
				}
			}
		}
	}
}