{
	"schemaVersion": "2.0.0",
	"contractName": "Exchange",
	"compilerOutput": {
		"abi": [
			{
				"constant": true,
				"inputs": [],
				"name": "EIP712_DOMAIN_SEPARATOR_SCHEMA_HASH",
				"outputs": [
					{
						"name": "",
						"type": "bytes32"
					}
				],
				"payable": false,
				"stateMutability": "view",
				"type": "function"
			},
			{
				"constant": true,
				"inputs": [
					{
						"name": "",
						"type": "bytes32"
					}
				],
				"name": "filled",
				"outputs": [
					{
						"name": "",
						"type": "uint256"
					}
				],
				"payable": false,
				"stateMutability": "view",
				"type": "function"
			},
			{
				"constant": false,
				"inputs": [
					{
						"components": [
							{
								"name": "makerAddress",
								"type": "address"
							},
							{
								"name": "takerAddress",
								"type": "address"
							},
							{
								"name": "feeRecipientAddress",
								"type": "address"
							},
							{
								"name": "senderAddress",
								"type": "address"
							},
							{
								"name": "makerAssetAmount",
								"type": "uint256"
							},
							{
								"name": "takerAssetAmount",
								"type": "uint256"
							},
							{
								"name": "makerFee",
								"type": "uint256"
							},
							{
								"name": "takerFee",
								"type": "uint256"
							},
							{
								"name": "expirationTimeSeconds",
								"type": "uint256"
							},
							{
								"name": "salt",
								"type": "uint256"
							},
							{
								"name": "makerAssetData",
								"type": "bytes"
							},
							{
								"name": "takerAssetData",
								"type": "bytes"
							}
						],
						"name": "orders",
						"type": "tuple[]"
					},
					{
						"name": "takerAssetFillAmounts",
						"type": "uint256[]"
					},
					{
						"name": "signatures",
						"type": "bytes[]"
					}
				],
				"name": "batchFillOrders",
				"outputs": [
					{
						"components": [
							{
								"name": "makerAssetFilledAmount",
								"type": "uint256"
							},
							{
								"name": "takerAssetFilledAmount",
								"type": "uint256"
							},
							{
								"name": "makerFeePaid",
								"type": "uint256"
							},
							{
								"name": "takerFeePaid",
								"type": "uint256"
							}
						],
						"name": "totalFillResults",
						"type": "tuple"
					}
				],
				"payable": false,
				"stateMutability": "nonpayable",
				"type": "function"
			},
			{
				"constant": true,
				"inputs": [
					{
						"name": "",
						"type": "bytes32"
					}
				],
				"name": "cancelled",
				"outputs": [
					{
						"name": "",
						"type": "bool"
					}
				],
				"payable": false,
				"stateMutability": "view",
				"type": "function"
			},
			{
				"constant": false,
				"inputs": [
					{
						"name": "hash",
						"type": "bytes32"
					},
					{
						"name": "signerAddress",
						"type": "address"
					},
					{
						"name": "signature",
						"type": "bytes"
					}
				],
				"name": "preSign",
				"outputs": [],
				"payable": false,
				"stateMutability": "nonpayable",
				"type": "function"
			},
			{
				"constant": false,
				"inputs": [
					{
						"components": [
							{
								"name": "makerAddress",
								"type": "address"
							},
							{
								"name": "takerAddress",
								"type": "address"
							},
							{
								"name": "feeRecipientAddress",
								"type": "address"
							},
							{
								"name": "senderAddress",
								"type": "address"
							},
							{
								"name": "makerAssetAmount",
								"type": "uint256"
							},
							{
								"name": "takerAssetAmount",
								"type": "uint256"
							},
							{
								"name": "makerFee",
								"type": "uint256"
							},
							{
								"name": "takerFee",
								"type": "uint256"
							},
							{
								"name": "expirationTimeSeconds",
								"type": "uint256"
							},
							{
								"name": "salt",
								"type": "uint256"
							},
							{
								"name": "makerAssetData",
								"type": "bytes"
							},
							{
								"name": "takerAssetData",
								"type": "bytes"
							}
						],
						"name": "leftOrder",
						"type": "tuple"
					},
					{
						"components": [
							{
								"name": "makerAddress",
								"type": "address"
							},
							{
								"name": "takerAddress",
								"type": "address"
							},
							{
								"name": "feeRecipientAddress",
								"type": "address"
							},
							{
								"name": "senderAddress",
								"type": "address"
							},
							{
								"name": "makerAssetAmount",
								"type": "uint256"
							},
							{
								"name": "takerAssetAmount",
								"type": "uint256"
							},
							{
								"name": "makerFee",
								"type": "uint256"
							},
							{
								"name": "takerFee",
								"type": "uint256"
							},
							{
								"name": "expirationTimeSeconds",
								"type": "uint256"
							},
							{
								"name": "salt",
								"type": "uint256"
							},
							{
								"name": "makerAssetData",
								"type": "bytes"
							},
							{
								"name": "takerAssetData",
								"type": "bytes"
							}
						],
						"name": "rightOrder",
						"type": "tuple"
					},
					{
						"name": "leftSignature",
						"type": "bytes"
					},
					{
						"name": "rightSignature",
						"type": "bytes"
					}
				],
				"name": "matchOrders",
				"outputs": [
					{
						"components": [
							{
								"components": [
									{
										"name": "makerAssetFilledAmount",
										"type": "uint256"
									},
									{
										"name": "takerAssetFilledAmount",
										"type": "uint256"
									},
									{
										"name": "makerFeePaid",
										"type": "uint256"
									},
									{
										"name": "takerFeePaid",
										"type": "uint256"
									}
								],
								"name": "left",
								"type": "tuple"
							},
							{
								"components": [
									{
										"name": "makerAssetFilledAmount",
										"type": "uint256"
									},
									{
										"name": "takerAssetFilledAmount",
										"type": "uint256"
									},
									{
										"name": "makerFeePaid",
										"type": "uint256"
									},
									{
										"name": "takerFeePaid",
										"type": "uint256"
									}
								],
								"name": "right",
								"type": "tuple"
							},
							{
								"name": "leftMakerAssetSpreadAmount",
								"type": "uint256"
							}
						],
						"name": "matchedFillResults",
						"type": "tuple"
					}
				],
				"payable": false,
				"stateMutability": "nonpayable",
				"type": "function"
			},
			{
				"constant": false,
				"inputs": [
					{
						"components": [
							{
								"name": "makerAddress",
								"type": "address"
							},
							{
								"name": "takerAddress",
								"type": "address"
							},
							{
								"name": "feeRecipientAddress",
								"type": "address"
							},
							{
								"name": "senderAddress",
								"type": "address"
							},
							{
								"name": "makerAssetAmount",
								"type": "uint256"
							},
							{
								"name": "takerAssetAmount",
								"type": "uint256"
							},
							{
								"name": "makerFee",
								"type": "uint256"
							},
							{
								"name": "takerFee",
								"type": "uint256"
							},
							{
								"name": "expirationTimeSeconds",
								"type": "uint256"
							},
							{
								"name": "salt",
								"type": "uint256"
							},
							{
								"name": "makerAssetData",
								"type": "bytes"
							},
							{
								"name": "takerAssetData",
								"type": "bytes"
							}
						],
						"name": "order",
						"type": "tuple"
					},
					{
						"name": "takerAssetFillAmount",
						"type": "uint256"
					},
					{
						"name": "signature",
						"type": "bytes"
					}
				],
				"name": "fillOrderNoThrow",
				"outputs": [
					{
						"components": [
							{
								"name": "makerAssetFilledAmount",
								"type": "uint256"
							},
							{
								"name": "takerAssetFilledAmount",
								"type": "uint256"
							},
							{
								"name": "makerFeePaid",
								"type": "uint256"
							},
							{
								"name": "takerFeePaid",
								"type": "uint256"
							}
						],
						"name": "fillResults",
						"type": "tuple"
					}
				],
				"payable": false,
				"stateMutability": "nonpayable",
				"type": "function"
			},
			{
				"constant": true,
				"inputs": [
					{
						"name": "",
						"type": "bytes4"
					}
				],
				"name": "assetProxies",
				"outputs": [
					{
						"name": "",
						"type": "address"
					}
				],
				"payable": false,
				"stateMutability": "view",
				"type": "function"
			},
			{
				"constant": false,
				"inputs": [
					{
						"components": [
							{
								"name": "makerAddress",
								"type": "address"
							},
							{
								"name": "takerAddress",
								"type": "address"
							},
							{
								"name": "feeRecipientAddress",
								"type": "address"
							},
							{
								"name": "senderAddress",
								"type": "address"
							},
							{
								"name": "makerAssetAmount",
								"type": "uint256"
							},
							{
								"name": "takerAssetAmount",
								"type": "uint256"
							},
							{
								"name": "makerFee",
								"type": "uint256"
							},
							{
								"name": "takerFee",
								"type": "uint256"
							},
							{
								"name": "expirationTimeSeconds",
								"type": "uint256"
							},
							{
								"name": "salt",
								"type": "uint256"
							},
							{
								"name": "makerAssetData",
								"type": "bytes"
							},
							{
								"name": "takerAssetData",
								"type": "bytes"
							}
						],
						"name": "orders",
						"type": "tuple[]"
					}
				],
				"name": "batchCancelOrders",
				"outputs": [],
				"payable": false,
				"stateMutability": "nonpayable",
				"type": "function"
			},
			{
				"constant": false,
				"inputs": [
					{
						"components": [
							{
								"name": "makerAddress",
								"type": "address"
							},
							{
								"name": "takerAddress",
								"type": "address"
							},
							{
								"name": "feeRecipientAddress",
								"type": "address"
							},
							{
								"name": "senderAddress",
								"type": "address"
							},
							{
								"name": "makerAssetAmount",
								"type": "uint256"
							},
							{
								"name": "takerAssetAmount",
								"type": "uint256"
							},
							{
								"name": "makerFee",
								"type": "uint256"
							},
							{
								"name": "takerFee",
								"type": "uint256"
							},
							{
								"name": "expirationTimeSeconds",
								"type": "uint256"
							},
							{
								"name": "salt",
								"type": "uint256"
							},
							{
								"name": "makerAssetData",
								"type": "bytes"
							},
							{
								"name": "takerAssetData",
								"type": "bytes"
							}
						],
						"name": "orders",
						"type": "tuple[]"
					},
					{
						"name": "takerAssetFillAmounts",
						"type": "uint256[]"
					},
					{
						"name": "signatures",
						"type": "bytes[]"
					}
				],
				"name": "batchFillOrKillOrders",
				"outputs": [
					{
						"components": [
							{
								"name": "makerAssetFilledAmount",
								"type": "uint256"
							},
							{
								"name": "takerAssetFilledAmount",
								"type": "uint256"
							},
							{
								"name": "makerFeePaid",
								"type": "uint256"
							},
							{
								"name": "takerFeePaid",
								"type": "uint256"
							}
						],
						"name": "totalFillResults",
						"type": "tuple"
					}
				],
				"payable": false,
				"stateMutability": "nonpayable",
				"type": "function"
			},
			{
				"constant": false,
				"inputs": [
					{
						"name": "targetOrderEpoch",
						"type": "uint256"
					}
				],
				"name": "cancelOrdersUpTo",
				"outputs": [],
				"payable": false,
				"stateMutability": "nonpayable",
				"type": "function"
			},
			{
				"constant": false,
				"inputs": [
					{
						"components": [
							{
								"name": "makerAddress",
								"type": "address"
							},
							{
								"name": "takerAddress",
								"type": "address"
							},
							{
								"name": "feeRecipientAddress",
								"type": "address"
							},
							{
								"name": "senderAddress",
								"type": "address"
							},
							{
								"name": "makerAssetAmount",
								"type": "uint256"
							},
							{
								"name": "takerAssetAmount",
								"type": "uint256"
							},
							{
								"name": "makerFee",
								"type": "uint256"
							},
							{
								"name": "takerFee",
								"type": "uint256"
							},
							{
								"name": "expirationTimeSeconds",
								"type": "uint256"
							},
							{
								"name": "salt",
								"type": "uint256"
							},
							{
								"name": "makerAssetData",
								"type": "bytes"
							},
							{
								"name": "takerAssetData",
								"type": "bytes"
							}
						],
						"name": "orders",
						"type": "tuple[]"
					},
					{
						"name": "takerAssetFillAmounts",
						"type": "uint256[]"
					},
					{
						"name": "signatures",
						"type": "bytes[]"
					}
				],
				"name": "batchFillOrdersNoThrow",
				"outputs": [
					{
						"components": [
							{
								"name": "makerAssetFilledAmount",
								"type": "uint256"
							},
							{
								"name": "takerAssetFilledAmount",
								"type": "uint256"
							},
							{
								"name": "makerFeePaid",
								"type": "uint256"
							},
							{
								"name": "takerFeePaid",
								"type": "uint256"
							}
						],
						"name": "totalFillResults",
						"type": "tuple"
					}
				],
				"payable": false,
				"stateMutability": "nonpayable",
				"type": "function"
			},
			{
				"constant": true,
				"inputs": [
					{
						"name": "assetProxyId",
						"type": "bytes4"
					}
				],
				"name": "getAssetProxy",
				"outputs": [
					{
						"name": "",
						"type": "address"
					}
				],
				"payable": false,
				"stateMutability": "view",
				"type": "function"
			},
			{
				"constant": true,
				"inputs": [
					{
						"name": "",
						"type": "bytes32"
					}
				],
				"name": "transactions",
				"outputs": [
					{
						"name": "",
						"type": "bool"
					}
				],
				"payable": false,
				"stateMutability": "view",
				"type": "function"
			},
			{
				"constant": false,
				"inputs": [
					{
						"components": [
							{
								"name": "makerAddress",
								"type": "address"
							},
							{
								"name": "takerAddress",
								"type": "address"
							},
							{
								"name": "feeRecipientAddress",
								"type": "address"
							},
							{
								"name": "senderAddress",
								"type": "address"
							},
							{
								"name": "makerAssetAmount",
								"type": "uint256"
							},
							{
								"name": "takerAssetAmount",
								"type": "uint256"
							},
							{
								"name": "makerFee",
								"type": "uint256"
							},
							{
								"name": "takerFee",
								"type": "uint256"
							},
							{
								"name": "expirationTimeSeconds",
								"type": "uint256"
							},
							{
								"name": "salt",
								"type": "uint256"
							},
							{
								"name": "makerAssetData",
								"type": "bytes"
							},
							{
								"name": "takerAssetData",
								"type": "bytes"
							}
						],
						"name": "order",
						"type": "tuple"
					},
					{
						"name": "takerAssetFillAmount",
						"type": "uint256"
					},
					{
						"name": "signature",
						"type": "bytes"
					}
				],
				"name": "fillOrKillOrder",
				"outputs": [
					{
						"components": [
							{
								"name": "makerAssetFilledAmount",
								"type": "uint256"
							},
							{
								"name": "takerAssetFilledAmount",
								"type": "uint256"
							},
							{
								"name": "makerFeePaid",
								"type": "uint256"
							},
							{
								"name": "takerFeePaid",
								"type": "uint256"
							}
						],
						"name": "fillResults",
						"type": "tuple"
					}
				],
				"payable": false,
				"stateMutability": "nonpayable",
				"type": "function"
			},
			{
				"constant": false,
				"inputs": [
					{
						"name": "validatorAddress",
						"type": "address"
					},
					{
						"name": "approval",
						"type": "bool"
					}
				],
				"name": "setSignatureValidatorApproval",
				"outputs": [],
				"payable": false,
				"stateMutability": "nonpayable",
				"type": "function"
			},
			{
				"constant": true,
				"inputs": [
					{
						"name": "",
						"type": "address"
					},
					{
						"name": "",
						"type": "address"
					}
				],
				"name": "allowedValidators",
				"outputs": [
					{
						"name": "",
						"type": "bool"
					}
				],
				"payable": false,
				"stateMutability": "view",
				"type": "function"
			},
			{
				"constant": false,
				"inputs": [
					{
						"components": [
							{
								"name": "makerAddress",
								"type": "address"
							},
							{
								"name": "takerAddress",
								"type": "address"
							},
							{
								"name": "feeRecipientAddress",
								"type": "address"
							},
							{
								"name": "senderAddress",
								"type": "address"
							},
							{
								"name": "makerAssetAmount",
								"type": "uint256"
							},
							{
								"name": "takerAssetAmount",
								"type": "uint256"
							},
							{
								"name": "makerFee",
								"type": "uint256"
							},
							{
								"name": "takerFee",
								"type": "uint256"
							},
							{
								"name": "expirationTimeSeconds",
								"type": "uint256"
							},
							{
								"name": "salt",
								"type": "uint256"
							},
							{
								"name": "makerAssetData",
								"type": "bytes"
							},
							{
								"name": "takerAssetData",
								"type": "bytes"
							}
						],
						"name": "orders",
						"type": "tuple[]"
					},
					{
						"name": "takerAssetFillAmount",
						"type": "uint256"
					},
					{
						"name": "signatures",
						"type": "bytes[]"
					}
				],
				"name": "marketSellOrders",
				"outputs": [
					{
						"components": [
							{
								"name": "makerAssetFilledAmount",
								"type": "uint256"
							},
							{
								"name": "takerAssetFilledAmount",
								"type": "uint256"
							},
							{
								"name": "makerFeePaid",
								"type": "uint256"
							},
							{
								"name": "takerFeePaid",
								"type": "uint256"
							}
						],
						"name": "totalFillResults",
						"type": "tuple"
					}
				],
				"payable": false,
				"stateMutability": "nonpayable",
				"type": "function"
			},
			{
				"constant": true,
				"inputs": [
					{
						"name": "",
						"type": "bytes32"
					},
					{
						"name": "",
						"type": "address"
					}
				],
				"name": "preSigned",
				"outputs": [
					{
						"name": "",
						"type": "bool"
					}
				],
				"payable": false,
				"stateMutability": "view",
				"type": "function"
			},
			{
				"constant": true,
				"inputs": [],
				"name": "owner",
				"outputs": [
					{
						"name": "",
						"type": "address"
					}
				],
				"payable": false,
				"stateMutability": "view",
				"type": "function"
			},
			{
				"constant": true,
				"inputs": [
					{
						"name": "hash",
						"type": "bytes32"
					},
					{
						"name": "signerAddress",
						"type": "address"
					},
					{
						"name": "signature",
						"type": "bytes"
					}
				],
				"name": "isValidSignature",
				"outputs": [
					{
						"name": "isValid",
						"type": "bool"
					}
				],
				"payable": false,
				"stateMutability": "view",
				"type": "function"
			},
			{
				"constant": false,
				"inputs": [
					{
						"components": [
							{
								"name": "makerAddress",
								"type": "address"
							},
							{
								"name": "takerAddress",
								"type": "address"
							},
							{
								"name": "feeRecipientAddress",
								"type": "address"
							},
							{
								"name": "senderAddress",
								"type": "address"
							},
							{
								"name": "makerAssetAmount",
								"type": "uint256"
							},
							{
								"name": "takerAssetAmount",
								"type": "uint256"
							},
							{
								"name": "makerFee",
								"type": "uint256"
							},
							{
								"name": "takerFee",
								"type": "uint256"
							},
							{
								"name": "expirationTimeSeconds",
								"type": "uint256"
							},
							{
								"name": "salt",
								"type": "uint256"
							},
							{
								"name": "makerAssetData",
								"type": "bytes"
							},
							{
								"name": "takerAssetData",
								"type": "bytes"
							}
						],
						"name": "orders",
						"type": "tuple[]"
					},
					{
						"name": "makerAssetFillAmount",
						"type": "uint256"
					},
					{
						"name": "signatures",
						"type": "bytes[]"
					}
				],
				"name": "marketBuyOrdersNoThrow",
				"outputs": [
					{
						"components": [
							{
								"name": "makerAssetFilledAmount",
								"type": "uint256"
							},
							{
								"name": "takerAssetFilledAmount",
								"type": "uint256"
							},
							{
								"name": "makerFeePaid",
								"type": "uint256"
							},
							{
								"name": "takerFeePaid",
								"type": "uint256"
							}
						],
						"name": "totalFillResults",
						"type": "tuple"
					}
				],
				"payable": false,
				"stateMutability": "nonpayable",
				"type": "function"
			},
			{
				"constant": false,
				"inputs": [
					{
						"components": [
							{
								"name": "makerAddress",
								"type": "address"
							},
							{
								"name": "takerAddress",
								"type": "address"
							},
							{
								"name": "feeRecipientAddress",
								"type": "address"
							},
							{
								"name": "senderAddress",
								"type": "address"
							},
							{
								"name": "makerAssetAmount",
								"type": "uint256"
							},
							{
								"name": "takerAssetAmount",
								"type": "uint256"
							},
							{
								"name": "makerFee",
								"type": "uint256"
							},
							{
								"name": "takerFee",
								"type": "uint256"
							},
							{
								"name": "expirationTimeSeconds",
								"type": "uint256"
							},
							{
								"name": "salt",
								"type": "uint256"
							},
							{
								"name": "makerAssetData",
								"type": "bytes"
							},
							{
								"name": "takerAssetData",
								"type": "bytes"
							}
						],
						"name": "order",
						"type": "tuple"
					},
					{
						"name": "takerAssetFillAmount",
						"type": "uint256"
					},
					{
						"name": "signature",
						"type": "bytes"
					}
				],
				"name": "fillOrder",
				"outputs": [
					{
						"components": [
							{
								"name": "makerAssetFilledAmount",
								"type": "uint256"
							},
							{
								"name": "takerAssetFilledAmount",
								"type": "uint256"
							},
							{
								"name": "makerFeePaid",
								"type": "uint256"
							},
							{
								"name": "takerFeePaid",
								"type": "uint256"
							}
						],
						"name": "fillResults",
						"type": "tuple"
					}
				],
				"payable": false,
				"stateMutability": "nonpayable",
				"type": "function"
			},
			{
				"constant": false,
				"inputs": [
					{
						"name": "salt",
						"type": "uint256"
					},
					{
						"name": "signerAddress",
						"type": "address"
					},
					{
						"name": "data",
						"type": "bytes"
					},
					{
						"name": "signature",
						"type": "bytes"
					}
				],
				"name": "executeTransaction",
				"outputs": [],
				"payable": false,
				"stateMutability": "nonpayable",
				"type": "function"
			},
			{
				"constant": false,
				"inputs": [
					{
						"name": "assetProxy",
						"type": "address"
					}
				],
				"name": "registerAssetProxy",
				"outputs": [],
				"payable": false,
				"stateMutability": "nonpayable",
				"type": "function"
			},
			{
				"constant": true,
				"inputs": [
					{
						"components": [
							{
								"name": "makerAddress",
								"type": "address"
							},
							{
								"name": "takerAddress",
								"type": "address"
							},
							{
								"name": "feeRecipientAddress",
								"type": "address"
							},
							{
								"name": "senderAddress",
								"type": "address"
							},
							{
								"name": "makerAssetAmount",
								"type": "uint256"
							},
							{
								"name": "takerAssetAmount",
								"type": "uint256"
							},
							{
								"name": "makerFee",
								"type": "uint256"
							},
							{
								"name": "takerFee",
								"type": "uint256"
							},
							{
								"name": "expirationTimeSeconds",
								"type": "uint256"
							},
							{
								"name": "salt",
								"type": "uint256"
							},
							{
								"name": "makerAssetData",
								"type": "bytes"
							},
							{
								"name": "takerAssetData",
								"type": "bytes"
							}
						],
						"name": "order",
						"type": "tuple"
					}
				],
				"name": "getOrderInfo",
				"outputs": [
					{
						"components": [
							{
								"name": "orderStatus",
								"type": "uint8"
							},
							{
								"name": "orderHash",
								"type": "bytes32"
							},
							{
								"name": "orderTakerAssetFilledAmount",
								"type": "uint256"
							}
						],
						"name": "orderInfo",
						"type": "tuple"
					}
				],
				"payable": false,
				"stateMutability": "view",
				"type": "function"
			},
			{
				"constant": false,
				"inputs": [
					{
						"components": [
							{
								"name": "makerAddress",
								"type": "address"
							},
							{
								"name": "takerAddress",
								"type": "address"
							},
							{
								"name": "feeRecipientAddress",
								"type": "address"
							},
							{
								"name": "senderAddress",
								"type": "address"
							},
							{
								"name": "makerAssetAmount",
								"type": "uint256"
							},
							{
								"name": "takerAssetAmount",
								"type": "uint256"
							},
							{
								"name": "makerFee",
								"type": "uint256"
							},
							{
								"name": "takerFee",
								"type": "uint256"
							},
							{
								"name": "expirationTimeSeconds",
								"type": "uint256"
							},
							{
								"name": "salt",
								"type": "uint256"
							},
							{
								"name": "makerAssetData",
								"type": "bytes"
							},
							{
								"name": "takerAssetData",
								"type": "bytes"
							}
						],
						"name": "order",
						"type": "tuple"
					}
				],
				"name": "cancelOrder",
				"outputs": [],
				"payable": false,
				"stateMutability": "nonpayable",
				"type": "function"
			},
			{
				"constant": true,
				"inputs": [
					{
						"name": "",
						"type": "address"
					},
					{
						"name": "",
						"type": "address"
					}
				],
				"name": "orderEpoch",
				"outputs": [
					{
						"name": "",
						"type": "uint256"
					}
				],
				"payable": false,
				"stateMutability": "view",
				"type": "function"
			},
			{
				"constant": true,
				"inputs": [],
				"name": "ZRX_ASSET_DATA",
				"outputs": [
					{
						"name": "",
						"type": "bytes"
					}
				],
				"payable": false,
				"stateMutability": "view",
				"type": "function"
			},
			{
				"constant": false,
				"inputs": [
					{
						"components": [
							{
								"name": "makerAddress",
								"type": "address"
							},
							{
								"name": "takerAddress",
								"type": "address"
							},
							{
								"name": "feeRecipientAddress",
								"type": "address"
							},
							{
								"name": "senderAddress",
								"type": "address"
							},
							{
								"name": "makerAssetAmount",
								"type": "uint256"
							},
							{
								"name": "takerAssetAmount",
								"type": "uint256"
							},
							{
								"name": "makerFee",
								"type": "uint256"
							},
							{
								"name": "takerFee",
								"type": "uint256"
							},
							{
								"name": "expirationTimeSeconds",
								"type": "uint256"
							},
							{
								"name": "salt",
								"type": "uint256"
							},
							{
								"name": "makerAssetData",
								"type": "bytes"
							},
							{
								"name": "takerAssetData",
								"type": "bytes"
							}
						],
						"name": "orders",
						"type": "tuple[]"
					},
					{
						"name": "takerAssetFillAmount",
						"type": "uint256"
					},
					{
						"name": "signatures",
						"type": "bytes[]"
					}
				],
				"name": "marketSellOrdersNoThrow",
				"outputs": [
					{
						"components": [
							{
								"name": "makerAssetFilledAmount",
								"type": "uint256"
							},
							{
								"name": "takerAssetFilledAmount",
								"type": "uint256"
							},
							{
								"name": "makerFeePaid",
								"type": "uint256"
							},
							{
								"name": "takerFeePaid",
								"type": "uint256"
							}
						],
						"name": "totalFillResults",
						"type": "tuple"
					}
				],
				"payable": false,
				"stateMutability": "nonpayable",
				"type": "function"
			},
			{
				"constant": true,
				"inputs": [],
				"name": "EIP712_DOMAIN_HASH",
				"outputs": [
					{
						"name": "",
						"type": "bytes32"
					}
				],
				"payable": false,
				"stateMutability": "view",
				"type": "function"
			},
			{
				"constant": false,
				"inputs": [
					{
						"components": [
							{
								"name": "makerAddress",
								"type": "address"
							},
							{
								"name": "takerAddress",
								"type": "address"
							},
							{
								"name": "feeRecipientAddress",
								"type": "address"
							},
							{
								"name": "senderAddress",
								"type": "address"
							},
							{
								"name": "makerAssetAmount",
								"type": "uint256"
							},
							{
								"name": "takerAssetAmount",
								"type": "uint256"
							},
							{
								"name": "makerFee",
								"type": "uint256"
							},
							{
								"name": "takerFee",
								"type": "uint256"
							},
							{
								"name": "expirationTimeSeconds",
								"type": "uint256"
							},
							{
								"name": "salt",
								"type": "uint256"
							},
							{
								"name": "makerAssetData",
								"type": "bytes"
							},
							{
								"name": "takerAssetData",
								"type": "bytes"
							}
						],
						"name": "orders",
						"type": "tuple[]"
					},
					{
						"name": "makerAssetFillAmount",
						"type": "uint256"
					},
					{
						"name": "signatures",
						"type": "bytes[]"
					}
				],
				"name": "marketBuyOrders",
				"outputs": [
					{
						"components": [
							{
								"name": "makerAssetFilledAmount",
								"type": "uint256"
							},
							{
								"name": "takerAssetFilledAmount",
								"type": "uint256"
							},
							{
								"name": "makerFeePaid",
								"type": "uint256"
							},
							{
								"name": "takerFeePaid",
								"type": "uint256"
							}
						],
						"name": "totalFillResults",
						"type": "tuple"
					}
				],
				"payable": false,
				"stateMutability": "nonpayable",
				"type": "function"
			},
			{
				"constant": true,
				"inputs": [],
				"name": "currentContextAddress",
				"outputs": [
					{
						"name": "",
						"type": "address"
					}
				],
				"payable": false,
				"stateMutability": "view",
				"type": "function"
			},
			{
				"constant": false,
				"inputs": [
					{
						"name": "newOwner",
						"type": "address"
					}
				],
				"name": "transferOwnership",
				"outputs": [],
				"payable": false,
				"stateMutability": "nonpayable",
				"type": "function"
			},
			{
				"constant": true,
				"inputs": [],
				"name": "VERSION",
				"outputs": [
					{
						"name": "",
						"type": "string"
					}
				],
				"payable": false,
				"stateMutability": "view",
				"type": "function"
			},
			{
				"inputs": [
					{
						"name": "_zrxAssetData",
						"type": "bytes"
					}
				],
				"payable": false,
				"stateMutability": "nonpayable",
				"type": "constructor"
			},
			{
				"anonymous": false,
				"inputs": [
					{
						"indexed": true,
						"name": "signerAddress",
						"type": "address"
					},
					{
						"indexed": true,
						"name": "validatorAddress",
						"type": "address"
					},
					{
						"indexed": false,
						"name": "approved",
						"type": "bool"
					}
				],
				"name": "SignatureValidatorApproval",
				"type": "event"
			},
			{
				"anonymous": false,
				"inputs": [
					{
						"indexed": true,
						"name": "makerAddress",
						"type": "address"
					},
					{
						"indexed": true,
						"name": "feeRecipientAddress",
						"type": "address"
					},
					{
						"indexed": false,
						"name": "takerAddress",
						"type": "address"
					},
					{
						"indexed": false,
						"name": "senderAddress",
						"type": "address"
					},
					{
						"indexed": false,
						"name": "makerAssetFilledAmount",
						"type": "uint256"
					},
					{
						"indexed": false,
						"name": "takerAssetFilledAmount",
						"type": "uint256"
					},
					{
						"indexed": false,
						"name": "makerFeePaid",
						"type": "uint256"
					},
					{
						"indexed": false,
						"name": "takerFeePaid",
						"type": "uint256"
					},
					{
						"indexed": true,
						"name": "orderHash",
						"type": "bytes32"
					},
					{
						"indexed": false,
						"name": "makerAssetData",
						"type": "bytes"
					},
					{
						"indexed": false,
						"name": "takerAssetData",
						"type": "bytes"
					}
				],
				"name": "Fill",
				"type": "event"
			},
			{
				"anonymous": false,
				"inputs": [
					{
						"indexed": true,
						"name": "makerAddress",
						"type": "address"
					},
					{
						"indexed": true,
						"name": "feeRecipientAddress",
						"type": "address"
					},
					{
						"indexed": false,
						"name": "senderAddress",
						"type": "address"
					},
					{
						"indexed": true,
						"name": "orderHash",
						"type": "bytes32"
					},
					{
						"indexed": false,
						"name": "makerAssetData",
						"type": "bytes"
					},
					{
						"indexed": false,
						"name": "takerAssetData",
						"type": "bytes"
					}
				],
				"name": "Cancel",
				"type": "event"
			},
			{
				"anonymous": false,
				"inputs": [
					{
						"indexed": true,
						"name": "makerAddress",
						"type": "address"
					},
					{
						"indexed": true,
						"name": "senderAddress",
						"type": "address"
					},
					{
						"indexed": false,
						"name": "orderEpoch",
						"type": "uint256"
					}
				],
				"name": "CancelUpTo",
				"type": "event"
			},
			{
				"anonymous": false,
				"inputs": [
					{
						"indexed": false,
						"name": "id",
						"type": "bytes4"
					},
					{
						"indexed": false,
						"name": "assetProxy",
						"type": "address"
					}
				],
				"name": "AssetProxyRegistered",
				"type": "event"
			}
		],
		"evm": {
			"bytecode": {
				"linkReferences": {},
				"object": "0x60806040523480156200001157600080fd5b506040516200544338038062005443833981018060405262000037919081019062000433565b805181906200004e90600090602084019062000332565b5050604080517f454950373132446f6d61696e28000000000000000000000000000000000000006020808301919091527f737472696e67206e616d652c0000000000000000000000000000000000000000602d8301527f737472696e672076657273696f6e2c000000000000000000000000000000000060398301527f6164647265737320766572696679696e67436f6e74726163740000000000000060488301527f2900000000000000000000000000000000000000000000000000000000000000606183015282516042818403018152606290920192839052815191929182918401908083835b60208310620001585780518252601f19909201916020918201910162000137565b51815160209384036101000a6000190180199092169116179052604080519290940182900382208285018552600b8084527f30782050726f746f636f6c000000000000000000000000000000000000000000928401928352945190965091945090928392508083835b60208310620001e25780518252601f199092019160209182019101620001c1565b51815160209384036101000a600019018019909216911617905260408051929094018290038220828501855260018084527f3200000000000000000000000000000000000000000000000000000000000000928401928352945190965091945090928392508083835b602083106200026c5780518252601f1990920191602091820191016200024b565b51815160209384036101000a6000190180199092169116179052604051919093018190038120620002a797969550935030920190506200048f565b6040516020818303038152906040526040518082805190602001908083835b60208310620002e75780518252601f199092019160209182019101620002c6565b5181516000196020949094036101000a939093019283169219169190911790526040519201829003909120600155505060028054600160a060020a0319163317905550620005639050565b828054600181600116156101000203166002900490600052602060002090601f016020900481019282601f106200037557805160ff1916838001178555620003a5565b82800160010185558215620003a5579182015b82811115620003a557825182559160200191906001019062000388565b50620003b3929150620003b7565b5090565b620003d491905b80821115620003b35760008155600101620003be565b90565b6000601f82018313620003e957600080fd5b815162000400620003fa82620004fc565b620004d5565b915080825260208301602083018583830111156200041d57600080fd5b6200042a83828462000530565b50505092915050565b6000602082840312156200044657600080fd5b81516001604060020a038111156200045d57600080fd5b6200046b84828501620003d7565b949350505050565b6200047e8162000524565b82525050565b6200047e81620003d4565b608081016200049f828762000484565b620004ae602083018662000484565b620004bd604083018562000484565b620004cc606083018462000473565b95945050505050565b6040518181016001604060020a0381118282101715620004f457600080fd5b604052919050565b60006001604060020a038211156200051357600080fd5b506020601f91909101601f19160190565b600160a060020a031690565b60005b838110156200054d57818101518382015260200162000533565b838111156200055d576000848401525b50505050565b614ed080620005736000396000f3006080604052600436106101b65763ffffffff7c01000000000000000000000000000000000000000000000000000000006000350416632624b2d981146101bb578063288cdc91146101e6578063297bb70b146102065780632ac12622146102335780633683ef8e146102605780633c28d861146102825780633e228bae146102af5780633fd3c997146102cf5780634ac14782146102fc5780634d0ae5461461031c5780634f9559b11461033c57806350dde1901461035c578063607041081461037c578063642f2eaf146103a957806364a3bc15146103c957806377fcce68146103e95780637b8e3514146104095780637e1d98081461042957806382c174d0146104495780638da5cb5b14610469578063936347021461047e578063a3e203801461049e578063b4be83d5146104be578063bfc8bfce146104de578063c585bb93146104fe578063c75e0a811461051e578063d46b02c31461054b578063d9bfa73e1461056b578063db123b1a1461058b578063dd1c7d18146105ad578063e306f779146105cd578063e5fa431b146105e2578063eea086ba14610602578063f2fde38b14610617578063ffa1ad7414610637575b600080fd5b3480156101c757600080fd5b506101d061064c565b6040516101dd9190614aa8565b60405180910390f35b3480156101f257600080fd5b506101d061020136600461400b565b6107a0565b34801561021257600080fd5b50610226610221366004613f10565b6107b2565b6040516101dd9190614d22565b34801561023f57600080fd5b5061025361024e36600461400b565b610842565b6040516101dd9190614a9a565b34801561026c57600080fd5b5061028061027b366004614048565b610857565b005b34801561028e57600080fd5b506102a261029d36600461417c565b610930565b6040516101dd9190614d30565b3480156102bb57600080fd5b506102266102ca36600461423c565b610a1c565b3480156102db57600080fd5b506102ef6102ea36600461410b565b610c2c565b6040516101dd9190614b64565b34801561030857600080fd5b50610280610317366004613edb565b610c54565b34801561032857600080fd5b50610226610337366004613f10565b610c8c565b34801561034857600080fd5b5061028061035736600461400b565b610d13565b34801561036857600080fd5b50610226610377366004613f10565b610e37565b34801561038857600080fd5b5061039c61039736600461410b565b610ebe565b6040516101dd91906149cb565b3480156103b557600080fd5b506102536103c436600461400b565b610f0c565b3480156103d557600080fd5b506102266103e436600461423c565b610f21565b3480156103f557600080fd5b50610280610404366004613eab565b610f7b565b34801561041557600080fd5b50610253610424366004613e71565b611026565b34801561043557600080fd5b50610226610444366004613fa4565b611046565b34801561045557600080fd5b50610253610464366004614029565b611117565b34801561047557600080fd5b5061039c611137565b34801561048a57600080fd5b506102536104993660046140b0565b611153565b3480156104aa57600080fd5b506102266104b9366004613fa4565b611979565b3480156104ca57600080fd5b506102266104d936600461423c565b611a89565b3480156104ea57600080fd5b506102806104f9366004614285565b611b0d565b34801561050a57600080fd5b50610280610519366004613e53565b611d88565b34801561052a57600080fd5b5061053e610539366004614147565b611fb3565b6040516101dd9190614d3f565b34801561055757600080fd5b50610280610566366004614147565b6120ae565b34801561057757600080fd5b506101d0610586366004613e71565b6120d9565b34801561059757600080fd5b506105a06120f6565b6040516101dd9190614b53565b3480156105b957600080fd5b506102266105c8366004613fa4565b6121a2565b3480156105d957600080fd5b506101d0612268565b3480156105ee57600080fd5b506102266105fd366004613fa4565b61226e565b34801561060e57600080fd5b5061039c612342565b34801561062357600080fd5b50610280610632366004613e53565b61235e565b34801561064357600080fd5b506105a061240f565b604080517f454950373132446f6d61696e28000000000000000000000000000000000000006020808301919091527f737472696e67206e616d652c0000000000000000000000000000000000000000602d8301527f737472696e672076657273696f6e2c000000000000000000000000000000000060398301527f6164647265737320766572696679696e67436f6e74726163740000000000000060488301527f2900000000000000000000000000000000000000000000000000000000000000606183015282516042818403018152606290920192839052815191929182918401908083835b6020831061077057805182527fffffffffffffffffffffffffffffffffffffffffffffffffffffffffffffffe09092019160209182019101610733565b6001836020036101000a038019825116818451168082178552505050505050905001915050604051809103902081565b60036020526000908152604090205481565b6107ba613a79565b60006107c4613a79565b600091505b85518210156108395761082286838151811015156107e357fe5b9060200190602002015186848151811015156107fb57fe5b90602001906020020151868581518110151561081357fe5b90602001906020020151611a89565b905061082e8382612446565b6001909101906107c9565b50509392505050565b60046020526000908152604090205460ff1681565b610892848484848080601f01602080910402602001604051908101604052809392919081815260200183838082843750611153945050505050565b15156108d3576040517f08c379a00000000000000000000000000000000000000000000000000000000081526004016108ca90614bf2565b60405180910390fd5b5050600091825260066020908152604080842073ffffffffffffffffffffffffffffffffffffffff9093168452919052902080547fffffffffffffffffffffffffffffffffffffffffffffffffffffffffffffff00166001179055565b610938613aa2565b610940613ad1565b610948613ad1565b610160808801516101408089019190915288015190870152600061096b88611fb3565b925061097687611fb3565b91506109806124a8565b905061098c88886124f1565b6109a088888560400151856040015161254d565b8051602001519094506109ba90899085908490808b612611565b60208085015101516109d390889084908490808a612611565b6109ec888285602001518660400151886000015161282e565b610a05878284602001518560400151886020015161282e565b610a11888883876128da565b505050949350505050565b610a24613a79565b604080517fb4be83d5000000000000000000000000000000000000000000000000000000008082526060600483018181528851606485019081526020808b01516084870152958a015160a48601529189015160c4850152608089015160e485015260a089015161010485015260c089015161012485015260e0890151610144850152610100890151610164850152610120890151610184850152610140890180516101a486019081526101608b01516101c487015261018090525180516101e48601819052939591938493926024870192849261020489019291820191601f82010460005b81811015610b27578351855260209485019490930192600101610b09565b50505050818103610160808401919091528c0151805180835260209283019291820191601f82010460005b81811015610b70578351855260209485019490930192600101610b52565b5050508b84525084810360209384019081528a518083529093918201918b81019190601f82010460005b81811015610bb8578351855260209485019490930192600101610b9a565b5060808a8b86038c305af4808015610bd75760018114610bf557610c18565b60008e52600060208f0152600060408f0152600060608f0152610c18565b8b518e5260208c015160208f015260408c015160408f015260608c015160608f01525b505050505050505050505050509392505050565b600a6020526000908152604090205473ffffffffffffffffffffffffffffffffffffffff1681565b60005b8151811015610c8857610c808282815181101515610c7157fe5b906020019060200201516120ae565b600101610c57565b5050565b610c94613a79565b6000610c9e613a79565b600091505b855182101561083957610cfc8683815181101515610cbd57fe5b906020019060200201518684815181101515610cd557fe5b906020019060200201518685815181101515610ced57fe5b90602001906020020151610f21565b9050610d088382612446565b600190910190610ca3565b600080600080610d216124a8565b935073ffffffffffffffffffffffffffffffffffffffff84163314610d465733610d49565b60005b73ffffffffffffffffffffffffffffffffffffffff8086166000908152600560209081526040808320938516835292905220549093506001860192509050808211610dc0576040517f08c379a00000000000000000000000000000000000000000000000000000000081526004016108ca90614c72565b73ffffffffffffffffffffffffffffffffffffffff80851660008181526005602090815260408083209488168084529490915290819020859055517f82af639571738f4ebd4268fb0363d8957ebe1bbb9e78dba5ebd69eed39b154f090610e28908690614aa8565b60405180910390a35050505050565b610e3f613a79565b6000610e49613a79565b600091505b855182101561083957610ea78683815181101515610e6857fe5b906020019060200201518684815181101515610e8057fe5b906020019060200201518685815181101515610e9857fe5b90602001906020020151610a1c565b9050610eb38382612446565b600190910190610e4e565b7fffffffff0000000000000000000000000000000000000000000000000000000081166000908152600a602052604090205473ffffffffffffffffffffffffffffffffffffffff165b919050565b60086020526000908152604090205460ff1681565b610f29613a79565b610f34848484611a89565b60208101519091508314610f74576040517f08c379a00000000000000000000000000000000000000000000000000000000081526004016108ca90614c92565b9392505050565b6000610f856124a8565b73ffffffffffffffffffffffffffffffffffffffff8181166000818152600760209081526040808320948916808452949091529081902080547fffffffffffffffffffffffffffffffffffffffffffffffffffffffffffffff00168715151790555192935090917fa8656e308026eeabce8f0bc18048433252318ab80ac79da0b3d3d8697dfba89190611019908690614a9a565b60405180910390a3505050565b600760209081526000928352604080842090915290825290205460ff1681565b61104e613a79565b606060008061105b613a79565b87600081518110151561106a57fe5b9060200190602002015161016001519350600092505b875183101561110c5783888481518110151561109857fe5b9060200190602002015161016001819052506110b8878660200151612aba565b91506110e488848151811015156110cb57fe5b9060200190602002015183888681518110151561081357fe5b90506110f08582612446565b86856020015114156111015761110c565b600190920191611080565b505050509392505050565b600660209081526000928352604080842090915290825290205460ff1681565b60025473ffffffffffffffffffffffffffffffffffffffff1681565b6000806000806000806000806000895111151561119c576040517f08c379a00000000000000000000000000000000000000000000000000000000081526004016108ca90614c62565b6111a589612acc565b7f010000000000000000000000000000000000000000000000000000000000000090049650600960ff881610611207576040517f08c379a00000000000000000000000000000000000000000000000000000000081526004016108ca90614bb2565b8660ff16600981111561121657fe5b9550600086600981111561122657fe5b141561125e576040517f08c379a00000000000000000000000000000000000000000000000000000000081526004016108ca90614c52565b600186600981111561126c57fe5b14156112b4578851156112ab576040517f08c379a00000000000000000000000000000000000000000000000000000000081526004016108ca90614d12565b6000975061196b565b60028660098111156112c257fe5b14156113fd578851604114611303576040517f08c379a00000000000000000000000000000000000000000000000000000000081526004016108ca90614b72565b88600081518110151561131257fe5b01602001517f010000000000000000000000000000000000000000000000000000000000000090819004810204945061135289600163ffffffff612b9016565b935061136589602163ffffffff612b9016565b925060018b8686866040516000815260200160405260405161138a9493929190614b03565b60206040516020810390808403906000865af11580156113ae573d6000803e3d6000fd5b50506040517fffffffffffffffffffffffffffffffffffffffffffffffffffffffffffffffe0015173ffffffffffffffffffffffffffffffffffffffff8c8116908216149950925061196b9050565b600386600981111561140b57fe5b14156115b157885160411461144c576040517f08c379a00000000000000000000000000000000000000000000000000000000081526004016108ca90614b72565b88600081518110151561145b57fe5b01602001517f010000000000000000000000000000000000000000000000000000000000000090819004810204945061149b89600163ffffffff612b9016565b93506114ae89602163ffffffff612b9016565b925060018b60405160200180807f19457468657265756d205369676e6564204d6573736167653a0a333200000000815250601c0182600019166000191681526020019150506040516020818303038152906040526040518082805190602001908083835b6020831061154f57805182527fffffffffffffffffffffffffffffffffffffffffffffffffffffffffffffffe09092019160209182019101611512565b51815160209384036101000a7fffffffffffffffffffffffffffffffffffffffffffffffffffffffffffffffff0180199092169116179052604080519290940182900382206000835291019283905261138a9450925089918991508890614b03565b60048660098111156115bf57fe5b141561161e578851156115fe576040517f08c379a00000000000000000000000000000000000000000000000000000000081526004016108ca90614d12565b73ffffffffffffffffffffffffffffffffffffffff8a163314975061196b565b600586600981111561162c57fe5b14156116df576040517f1626ba7e00000000000000000000000000000000000000000000000000000000815273ffffffffffffffffffffffffffffffffffffffff8b1690631626ba7e90611686908e908d90600401614ae3565b602060405180830381600087803b1580156116a057600080fd5b505af11580156116b4573d6000803e3d6000fd5b505050506040513d601f19601f820116820180604052506116d89190810190613fed565b975061196b565b60068660098111156116ed57fe5b141561179a576116fc89612bdb565b73ffffffffffffffffffffffffffffffffffffffff808c1660009081526007602090815260408083209385168352929052205490915060ff161515611744576000975061196b565b6040517f9363470200000000000000000000000000000000000000000000000000000000815273ffffffffffffffffffffffffffffffffffffffff821690639363470290611686908e908e908e90600401614ab6565b60078660098111156117a857fe5b14156117e85760008b815260066020908152604080832073ffffffffffffffffffffffffffffffffffffffff8e16845290915290205460ff16975061196b565b60088660098111156117f657fe5b1415611939578851604114611837576040517f08c379a00000000000000000000000000000000000000000000000000000000081526004016108ca90614b72565b88600081518110151561184657fe5b01602001517f010000000000000000000000000000000000000000000000000000000000000090819004810204945061188689600163ffffffff612b9016565b935061189989602163ffffffff612b9016565b925060018b60405160200180807f19457468657265756d205369676e6564204d6573736167653a0a200000000000815250601b0182600019166000191681526020019150506040516020818303038152906040526040518082805190602001908083836020831061154f57805182527fffffffffffffffffffffffffffffffffffffffffffffffffffffffffffffffe09092019160209182019101611512565b6040517f08c379a00000000000000000000000000000000000000000000000000000000081526004016108ca90614bb2565b505050505050509392505050565b611981613a79565b60606000806000611990613a79565b88600081518110151561199f57fe5b9060200190602002015161014001519450600093505b8851841015611a7d578489858151811015156119cd57fe5b60209081029091010151610140015285516119e9908990612aba565b9250611a2c89858151811015156119fc57fe5b9060200190602002015160a001518a86815181101515611a1857fe5b906020019060200201516080015185612c54565b9150611a588985815181101515611a3f57fe5b90602001906020020151838987815181101515610e9857fe5b9050611a648682612446565b8551881415611a7257611a7d565b6001909301926119b5565b50505050509392505050565b611a91613a79565b611a99613ad1565b6000806000611aa788611fb3565b9350611ab16124a8565b9250611ac58860a001518560400151612aba565b9150611ad18783612c71565b9050611ae18885858a858b612611565b611aeb8882612c87565b9450611b028884866020015187604001518961282e565b61110c888487612cf1565b60095460009073ffffffffffffffffffffffffffffffffffffffff1615611b60576040517f08c379a00000000000000000000000000000000000000000000000000000000081526004016108ca90614ca2565b611ba3611b9e888888888080601f01602080910402602001604051908101604052809392919081815260200183838082843750612e06945050505050565b613047565b60008181526008602052604090205490915060ff1615611bef576040517f08c379a00000000000000000000000000000000000000000000000000000000081526004016108ca90614be2565b73ffffffffffffffffffffffffffffffffffffffff86163314611cc057611c47818785858080601f01602080910402602001604051908101604052809392919081815260200183838082843750611153945050505050565b1515611c7f576040517f08c379a00000000000000000000000000000000000000000000000000000000081526004016108ca90614d02565b600980547fffffffffffffffffffffffff00000000000000000000000000000000000000001673ffffffffffffffffffffffffffffffffffffffff88161790555b6000818152600860205260409081902080547fffffffffffffffffffffffffffffffffffffffffffffffffffffffffffffff001660011790555130908690869080838380828437820191505092505050600060405180830381855af49150501515611d57576040517f08c379a00000000000000000000000000000000000000000000000000000000081526004016108ca90614c12565b5050600980547fffffffffffffffffffffffff00000000000000000000000000000000000000001690555050505050565b6002546000908190819073ffffffffffffffffffffffffffffffffffffffff163314611de0576040517f08c379a00000000000000000000000000000000000000000000000000000000081526004016108ca90614cb2565b8392508273ffffffffffffffffffffffffffffffffffffffff1663ae25532e6040518163ffffffff167c0100000000000000000000000000000000000000000000000000000000028152600401602060405180830381600087803b158015611e4757600080fd5b505af1158015611e5b573d6000803e3d6000fd5b505050506040513d601f19601f82011682018060405250611e7f9190810190614129565b7fffffffff0000000000000000000000000000000000000000000000000000000081166000908152600a602052604090205490925073ffffffffffffffffffffffffffffffffffffffff1690508015611f04576040517f08c379a00000000000000000000000000000000000000000000000000000000081526004016108ca90614b92565b7fffffffff0000000000000000000000000000000000000000000000000000000082166000908152600a60205260409081902080547fffffffffffffffffffffffff00000000000000000000000000000000000000001673ffffffffffffffffffffffffffffffffffffffff8616179055517fd2c6b762299c609bdb96520b58a49bfb80186934d4f71a86a367571a15c0319490611fa59084908790614b38565b60405180910390a150505050565b611fbb613ad1565b611fc4826131c7565b602082015260808201511515611fe15760015b60ff168152610f07565b60a08201511515611ff3576002611fd7565b6101008201514210612006576004611fd7565b60208082015160009081526004909152604090205460ff161561202a576006611fd7565b610120820151825173ffffffffffffffffffffffffffffffffffffffff90811660009081526005602090815260408083206060880151909416835292905220541115612077576006611fd7565b602080820151600090815260039091526040908190205490820181905260a0830151116120a5576005611fd7565b60038152919050565b6120b6613ad1565b6120bf82611fb3565b90506120cb82826131d5565b610c888282602001516132ec565b600560209081526000928352604080842090915290825290205481565b6000805460408051602060026001851615610100027fffffffffffffffffffffffffffffffffffffffffffffffffffffffffffffffff0190941693909304601f8101849004840282018401909252818152929183018282801561219a5780601f1061216f5761010080835404028352916020019161219a565b820191906000526020600020905b81548152906001019060200180831161217d57829003601f168201915b505050505081565b6121aa613a79565b60606000806121b7613a79565b8760008151811015156121c657fe5b9060200190602002015161016001519350600092505b875183101561110c578388848151811015156121f457fe5b906020019060200201516101600181905250612214878660200151612aba565b9150612240888481518110151561222757fe5b90602001906020020151838886815181101515610e9857fe5b905061224c8582612446565b868560200151141561225d5761110c565b6001909201916121dc565b60015481565b612276613a79565b60606000806000612285613a79565b88600081518110151561229457fe5b9060200190602002015161014001519450600093505b8851841015611a7d578489858151811015156122c257fe5b60209081029091010151610140015285516122de908990612aba565b92506122f189858151811015156119fc57fe5b915061231d898581518110151561230457fe5b9060200190602002015183898781518110151561081357fe5b90506123298682612446565b855188141561233757611a7d565b6001909301926122aa565b60095473ffffffffffffffffffffffffffffffffffffffff1681565b60025473ffffffffffffffffffffffffffffffffffffffff1633146123af576040517f08c379a00000000000000000000000000000000000000000000000000000000081526004016108ca90614cb2565b73ffffffffffffffffffffffffffffffffffffffff81161561240c57600280547fffffffffffffffffffffffff00000000000000000000000000000000000000001673ffffffffffffffffffffffffffffffffffffffff83161790555b50565b60408051808201909152600b81527f322e302e312d616c706861000000000000000000000000000000000000000000602082015281565b815181516124549190613393565b82526020808301519082015161246a9190613393565b6020830152604080830151908201516124839190613393565b60408301526060808301519082015161249c9190613393565b60609092019190915250565b600954600090819073ffffffffffffffffffffffffffffffffffffffff16156124e95760095473ffffffffffffffffffffffffffffffffffffffff166124eb565b335b92915050565b6125038260a001518260a001516133a2565b612515836080015183608001516133a2565b1015610c88576040517f08c379a00000000000000000000000000000000000000000000000000000000081526004016108ca90614cf2565b612555613aa2565b6000806000806125698960a0015188612aba565b93506125798860a0015187612aba565b92506125898389608001516133a2565b612597858a60a001516133a2565b116125b9578391506125b28860a00151896080015184612c54565b90506125d2565b8290506125cf88608001518960a0015183612c54565b91505b6125dc8983612c87565b85526125e88882612c87565b60208087018290528651519101516126009190612aba565b604086015250505050949350505050565b845160ff1660031461264f576040517f08c379a00000000000000000000000000000000000000000000000000000000081526004016108ca90614cd2565b821515612688576040517f08c379a00000000000000000000000000000000000000000000000000000000081526004016108ca90614c22565b606086015173ffffffffffffffffffffffffffffffffffffffff16156126fb57606086015173ffffffffffffffffffffffffffffffffffffffff1633146126fb576040517f08c379a00000000000000000000000000000000000000000000000000000000081526004016108ca90614ce2565b602086015173ffffffffffffffffffffffffffffffffffffffff1615612786578373ffffffffffffffffffffffffffffffffffffffff16866020015173ffffffffffffffffffffffffffffffffffffffff16141515612786576040517f08c379a00000000000000000000000000000000000000000000000000000000081526004016108ca90614b82565b604085015115156127dc576127a48560200151876000015183611153565b15156127dc576040517f08c379a00000000000000000000000000000000000000000000000000000000081526004016108ca90614bc2565b6127ef828760a0015188608001516133c6565b15612826576040517f08c379a00000000000000000000000000000000000000000000000000000000081526004016108ca90614c02565b505050505050565b61283c828260200151613393565b600084815260036020908152604091829020929092558681015187518451938501518584015160608701516101408c01516101608d015196518b9873ffffffffffffffffffffffffffffffffffffffff9788169897909616967f0bcc4c97732e47d9946f229edb95f5b6323f601300e4690de719993f3c371129966128cb968f963396929591949093906149d9565b60405180910390a45050505050565b60008054604080516020601f60027fffffffffffffffffffffffffffffffffffffffffffffffffffffffffffffffff6101006001881615020190951694909404938401819004810282018101909252828152606093909290918301828280156129845780601f1061295957610100808354040283529160200191612984565b820191906000526020600020905b81548152906001019060200180831161296757829003601f168201915b505050505090506129ac85610140015186600001518660000151856020015160200151613417565b610140840151845186518451602001516129c893929190613417565b6129e18561014001518660000151858560400151613417565b6129fd8186600001518760400151856000015160400151613417565b612a198185600001518660400151856020015160400151613417565b836040015173ffffffffffffffffffffffffffffffffffffffff16856040015173ffffffffffffffffffffffffffffffffffffffff161415612a8357612a7e81848760400151612a79866000015160600151876020015160600151613393565b613417565b612ab3565b612a9b81848760400151856000015160600151613417565b612ab381848660400151856020015160600151613417565b5050505050565b600082821115612ac657fe5b50900390565b6000808251111515612b0a576040517f08c379a00000000000000000000000000000000000000000000000000000000081526004016108ca90614c42565b815182907fffffffffffffffffffffffffffffffffffffffffffffffffffffffffffffffff8101908110612b3a57fe5b016020015182517fffffffffffffffffffffffffffffffffffffffffffffffffffffffffffffffff01909252507f0100000000000000000000000000000000000000000000000000000000000000908190040290565b600081602001835110151515612bd2576040517f08c379a00000000000000000000000000000000000000000000000000000000081526004016108ca90614ba2565b50016020015190565b60006014825110151515612c1b576040517f08c379a00000000000000000000000000000000000000000000000000000000081526004016108ca90614cc2565b612c298260148451036135a8565b82517fffffffffffffffffffffffffffffffffffffffffffffffffffffffffffffffec019092525090565b6000612c69612c6385846133a2565b84613609565b949350505050565b6000818310612c805781610f74565b5090919050565b612c8f613a79565b6020810182905260a08301516080840151612cab918491612c54565b8152602081015160a084015160c0850151612cc7929190612c54565b6040820152602081015160a084015160e0850151612ce6929190612c54565b606082015292915050565b60008054604080516020601f60027fffffffffffffffffffffffffffffffffffffffffffffffffffffffffffffffff610100600188161502019095169490940493840181900481028201810190925282815260609390929091830182828015612d9b5780601f10612d7057610100808354040283529160200191612d9b565b820191906000526020600020905b815481529060010190602001808311612d7e57829003601f168201915b50505050509050612dbb8461014001518560000151858560000151613417565b612dd48461016001518486600001518560200151613417565b612dec81856000015186604001518560400151613417565b612e00818486604001518560600151613417565b50505050565b604080517f5a65726f45785472616e73616374696f6e2800000000000000000000000000006020808301919091527f75696e743235362073616c742c0000000000000000000000000000000000000060328301527f61646472657373207369676e6572416464726573732c00000000000000000000603f8301527f627974657320646174610000000000000000000000000000000000000000000060558301527f2900000000000000000000000000000000000000000000000000000000000000605f830152825180830384018152606090920192839052815160009384938493909282918401908083835b60208310612f2f57805182527fffffffffffffffffffffffffffffffffffffffffffffffffffffffffffffffe09092019160209182019101612ef2565b51815160209384036101000a7fffffffffffffffffffffffffffffffffffffffffffffffffffffffffffffffff018019909216911617905260405191909301819003812089519097508995509093508392850191508083835b60208310612fc557805182527fffffffffffffffffffffffffffffffffffffffffffffffffffffffffffffffe09092019160209182019101612f88565b51815160209384036101000a7fffffffffffffffffffffffffffffffffffffffffffffffffffffffffffffffff01801990921691161790526040805192909401829003822097825281019a909a525073ffffffffffffffffffffffffffffffffffffffff97909716968801969096525050606085015250506080909120919050565b60006040805190810160405280600281526020017f1901000000000000000000000000000000000000000000000000000000000000815250600154836040516020018084805190602001908083835b602083106130d357805182527fffffffffffffffffffffffffffffffffffffffffffffffffffffffffffffffe09092019160209182019101613096565b51815160209384036101000a7fffffffffffffffffffffffffffffffffffffffffffffffffffffffffffffffff0180199092169116179052920194855250838101929092525060408051808403830181529281019081905282519293509182918401908083835b6020831061317757805182527fffffffffffffffffffffffffffffffffffffffffffffffffffffffffffffffe0909201916020918201910161313a565b5181516020939093036101000a7fffffffffffffffffffffffffffffffffffffffffffffffffffffffffffffffff0180199091169216919091179052604051920182900390912095945050505050565b60006124eb611b9e83613620565b805160009060ff16600314613216576040517f08c379a00000000000000000000000000000000000000000000000000000000081526004016108ca90614cd2565b606083015173ffffffffffffffffffffffffffffffffffffffff161561328957606083015173ffffffffffffffffffffffffffffffffffffffff163314613289576040517f08c379a00000000000000000000000000000000000000000000000000000000081526004016108ca90614ce2565b6132916124a8565b835190915073ffffffffffffffffffffffffffffffffffffffff8083169116146132e7576040517f08c379a00000000000000000000000000000000000000000000000000000000081526004016108ca90614bd2565b505050565b6000818152600460205260409081902080547fffffffffffffffffffffffffffffffffffffffffffffffffffffffffffffff001660011790558281015183516101408501516101608601519351859473ffffffffffffffffffffffffffffffffffffffff9485169493909316927fdc47b3613d9fe400085f6dbdc99453462279057e6207385042827ed6b1a62cf79261338792339290614a5d565b60405180910390a45050565b600082820183811015610f7457fe5b60008282028315806133be57508284828115156133bb57fe5b04145b1515610f7457fe5b6000806000848015156133d557fe5b86850991508115156133ea5760009250610839565b6134096133fa83620f42406133a2565b61340488876133a2565b613609565b6103e8109695505050505050565b600080600083111561282657855160031061345e576040517f08c379a00000000000000000000000000000000000000000000000000000000081526004016108ca90614c82565b50506020848101517fffffffff00000000000000000000000000000000000000000000000000000000166000818152600a90925260409091205473ffffffffffffffffffffffffffffffffffffffff168015156134e7576040517f08c379a00000000000000000000000000000000000000000000000000000000081526004016108ca90614c32565b604051660fffffffffffe0603f885101168060840182017fa85e59e40000000000000000000000000000000000000000000000000000000083526080600484015273ffffffffffffffffffffffffffffffffffffffff8816602484015273ffffffffffffffffffffffffffffffffffffffff87166044840152856064840152608483015b8181101561358357895181526020998a01990161356b565b61020084858403866000895af180151561359b573d85fd5b5050505050505050505050565b6000816014018351101515156135ea576040517f08c379a00000000000000000000000000000000000000000000000000000000081526004016108ca90614cc2565b50016014015173ffffffffffffffffffffffffffffffffffffffff1690565b600080828481151561361757fe5b04949350505050565b604080517f4f726465722800000000000000000000000000000000000000000000000000006020808301919091527f61646472657373206d616b6572416464726573732c000000000000000000000060268301527f616464726573732074616b6572416464726573732c0000000000000000000000603b8301527f6164647265737320666565526563697069656e74416464726573732c0000000060508301527f616464726573732073656e646572416464726573732c00000000000000000000606c8301527f75696e74323536206d616b65724173736574416d6f756e742c0000000000000060828301527f75696e743235362074616b65724173736574416d6f756e742c00000000000000609b8301527f75696e74323536206d616b65724665652c00000000000000000000000000000060b48301527f75696e743235362074616b65724665652c00000000000000000000000000000060c58301527f75696e743235362065787069726174696f6e54696d655365636f6e64732c000060d68301527f75696e743235362073616c742c0000000000000000000000000000000000000060f48301527f6279746573206d616b65724173736574446174612c00000000000000000000006101018301527f62797465732074616b65724173736574446174610000000000000000000000006101168301527f290000000000000000000000000000000000000000000000000000000000000061012a830152825161010b81840301815261012b90920192839052815160009384938493849391929182918401908083835b602083106138a857805182527fffffffffffffffffffffffffffffffffffffffffffffffffffffffffffffffe0909201916020918201910161386b565b51815160209384036101000a7fffffffffffffffffffffffffffffffffffffffffffffffffffffffffffffffff01801990921691161790526040519190930181900381206101408b0151805191995095509093508392850191508083835b6020831061394357805182527fffffffffffffffffffffffffffffffffffffffffffffffffffffffffffffffe09092019160209182019101613906565b51815160209384036101000a7fffffffffffffffffffffffffffffffffffffffffffffffffffffffffffffffff01801990921691161790526040519190930181900381206101608b0151805191985095509093508392850191508083835b602083106139de57805182527fffffffffffffffffffffffffffffffffffffffffffffffffffffffffffffffe090920191602091820191016139a1565b5181516020939093036101000a7fffffffffffffffffffffffffffffffffffffffffffffffffffffffffffffffff018019909116921691909117905260405192018290039091207fffffffffffffffffffffffffffffffffffffffffffffffffffffffffffffffe0890180516101408b018051610160909c0180519a84529881529288526101a0822091529890525050509190525090919050565b608060405190810160405280600081526020016000815260200160008152602001600081525090565b61012060405190810160405280613ab7613a79565b8152602001613ac4613a79565b8152602001600081525090565b604080516060810182526000808252602082018190529181019190915290565b6000610f748235614ddf565b6000601f82018313613b0e57600080fd5b8135613b21613b1c82614d74565b614d4d565b81815260209384019390925082018360005b83811015613b5f5781358601613b498882613cbb565b8452506020928301929190910190600101613b33565b5050505092915050565b6000601f82018313613b7a57600080fd5b8135613b88613b1c82614d74565b81815260209384019390925082018360005b83811015613b5f5781358601613bb08882613d0a565b8452506020928301929190910190600101613b9a565b6000601f82018313613bd757600080fd5b8135613be5613b1c82614d74565b91508181835260208401935060208101905083856020840282011115613c0a57600080fd5b60005b83811015613b5f5781613c208882613c4e565b8452506020928301929190910190600101613c0d565b6000610f748235614df8565b6000610f748251614df8565b6000610f748235614dfd565b6000610f748235614e00565b6000610f748251614e00565b600080601f83018413613c8457600080fd5b50813567ffffffffffffffff811115613c9c57600080fd5b602083019150836001820283011115613cb457600080fd5b9250929050565b6000601f82018313613ccc57600080fd5b8135613cda613b1c82614d95565b91508082526020830160208301858383011115613cf657600080fd5b613d01838284614e36565b50505092915050565b60006101808284031215613d1d57600080fd5b613d28610180614d4d565b90506000613d368484613af1565b8252506020613d4784848301613af1565b6020830152506040613d5b84828501613af1565b6040830152506060613d6f84828501613af1565b6060830152506080613d8384828501613c4e565b60808301525060a0613d9784828501613c4e565b60a08301525060c0613dab84828501613c4e565b60c08301525060e0613dbf84828501613c4e565b60e083015250610100613dd484828501613c4e565b61010083015250610120613dea84828501613c4e565b6101208301525061014082013567ffffffffffffffff811115613e0c57600080fd5b613e1884828501613cbb565b6101408301525061016082013567ffffffffffffffff811115613e3a57600080fd5b613e4684828501613cbb565b6101608301525092915050565b600060208284031215613e6557600080fd5b6000612c698484613af1565b60008060408385031215613e8457600080fd5b6000613e908585613af1565b9250506020613ea185828601613af1565b9150509250929050565b60008060408385031215613ebe57600080fd5b6000613eca8585613af1565b9250506020613ea185828601613c36565b600060208284031215613eed57600080fd5b813567ffffffffffffffff811115613f0457600080fd5b612c6984828501613b69565b600080600060608486031215613f2557600080fd5b833567ffffffffffffffff811115613f3c57600080fd5b613f4886828701613b69565b935050602084013567ffffffffffffffff811115613f6557600080fd5b613f7186828701613bc6565b925050604084013567ffffffffffffffff811115613f8e57600080fd5b613f9a86828701613afd565b9150509250925092565b600080600060608486031215613fb957600080fd5b833567ffffffffffffffff811115613fd057600080fd5b613fdc86828701613b69565b9350506020613f7186828701613c4e565b600060208284031215613fff57600080fd5b6000612c698484613c42565b60006020828403121561401d57600080fd5b6000612c698484613c4e565b6000806040838503121561403c57600080fd5b6000613e908585613c4e565b6000806000806060858703121561405e57600080fd5b600061406a8787613c4e565b945050602061407b87828801613af1565b935050604085013567ffffffffffffffff81111561409857600080fd5b6140a487828801613c72565b95989497509550505050565b6000806000606084860312156140c557600080fd5b60006140d18686613c4e565b93505060206140e286828701613af1565b925050604084013567ffffffffffffffff8111156140ff57600080fd5b613f9a86828701613cbb565b60006020828403121561411d57600080fd5b6000612c698484613c5a565b60006020828403121561413b57600080fd5b6000612c698484613c66565b60006020828403121561415957600080fd5b813567ffffffffffffffff81111561417057600080fd5b612c6984828501613d0a565b6000806000806080858703121561419257600080fd5b843567ffffffffffffffff8111156141a957600080fd5b6141b587828801613d0a565b945050602085013567ffffffffffffffff8111156141d257600080fd5b6141de87828801613d0a565b935050604085013567ffffffffffffffff8111156141fb57600080fd5b61420787828801613cbb565b925050606085013567ffffffffffffffff81111561422457600080fd5b61423087828801613cbb565b91505092959194509250565b60008060006060848603121561425157600080fd5b833567ffffffffffffffff81111561426857600080fd5b61427486828701613d0a565b93505060206140e286828701613c4e565b6000806000806000806080878903121561429e57600080fd5b60006142aa8989613c4e565b96505060206142bb89828a01613af1565b955050604087013567ffffffffffffffff8111156142d857600080fd5b6142e489828a01613c72565b9450945050606087013567ffffffffffffffff81111561430357600080fd5b61430f89828a01613c72565b92509250509295509295509295565b61432781614ddf565b82525050565b61432781614df8565b61432781614dfd565b61432781614e00565b600061435382614ddb565b808452614367816020860160208601614e42565b61437081614e6e565b9093016020019392505050565b61432781614e2b565b601281527f4c454e4754485f36355f52455155495245440000000000000000000000000000602082015260400190565b600d81527f494e56414c49445f54414b455200000000000000000000000000000000000000602082015260400190565b601a81527f41535345545f50524f58595f414c52454144595f455849535453000000000000602082015260400190565b602681527f475245415445525f4f525f455155414c5f544f5f33325f4c454e4754485f524560208201527f5155495245440000000000000000000000000000000000000000000000000000604082015260600190565b601581527f5349474e41545552455f554e535550504f525445440000000000000000000000602082015260400190565b601781527f494e56414c49445f4f524445525f5349474e4154555245000000000000000000602082015260400190565b600d81527f494e56414c49445f4d414b455200000000000000000000000000000000000000602082015260400190565b600f81527f494e56414c49445f54585f484153480000000000000000000000000000000000602082015260400190565b601181527f494e56414c49445f5349474e4154555245000000000000000000000000000000602082015260400190565b600e81527f524f554e44494e475f4552524f52000000000000000000000000000000000000602082015260400190565b601081527f4641494c45445f455845435554494f4e00000000000000000000000000000000602082015260400190565b601481527f494e56414c49445f54414b45525f414d4f554e54000000000000000000000000602082015260400190565b601a81527f41535345545f50524f58595f444f45535f4e4f545f4558495354000000000000602082015260400190565b602181527f475245415445525f5448414e5f5a45524f5f4c454e4754485f5245515549524560208201527f4400000000000000000000000000000000000000000000000000000000000000604082015260600190565b601181527f5349474e41545552455f494c4c4547414c000000000000000000000000000000602082015260400190565b601e81527f4c454e4754485f475245415445525f5448414e5f305f52455155495245440000602082015260400190565b601781527f494e56414c49445f4e45575f4f524445525f45504f4348000000000000000000602082015260400190565b601e81527f4c454e4754485f475245415445525f5448414e5f335f52455155495245440000602082015260400190565b601481527f434f4d504c4554455f46494c4c5f4641494c4544000000000000000000000000602082015260400190565b601281527f5245454e5452414e43595f494c4c4547414c0000000000000000000000000000602082015260400190565b601381527f4f4e4c595f434f4e54524143545f4f574e455200000000000000000000000000602082015260400190565b602681527f475245415445525f4f525f455155414c5f544f5f32305f4c454e4754485f524560208201527f5155495245440000000000000000000000000000000000000000000000000000604082015260600190565b601081527f4f524445525f554e46494c4c41424c4500000000000000000000000000000000602082015260400190565b600e81527f494e56414c49445f53454e444552000000000000000000000000000000000000602082015260400190565b601881527f4e454741544956455f5350524541445f52455155495245440000000000000000602082015260400190565b601481527f494e56414c49445f54585f5349474e4154555245000000000000000000000000602082015260400190565b601181527f4c454e4754485f305f5245515549524544000000000000000000000000000000602082015260400190565b805160808301906149198482614336565b50602082015161492c6020850182614336565b50604082015161493f6040850182614336565b506060820151612e006060850182614336565b80516101208301906149648482614908565b5060208201516149776080850182614908565b506040820151612e00610100850182614336565b8051606083019061499c84826149c2565b5060208201516149af6020850182614336565b506040820151612e006040850182614336565b61432781614e25565b602081016124eb828461431e565b61010081016149e8828b61431e565b6149f5602083018a61431e565b614a026040830189614336565b614a0f6060830188614336565b614a1c6080830187614336565b614a2960a0830186614336565b81810360c0830152614a3b8185614348565b905081810360e0830152614a4f8184614348565b9a9950505050505050505050565b60608101614a6b828661431e565b8181036020830152614a7d8185614348565b90508181036040830152614a918184614348565b95945050505050565b602081016124eb828461432d565b602081016124eb8284614336565b60608101614ac48286614336565b614ad1602083018561431e565b8181036040830152614a918184614348565b60408101614af18285614336565b8181036020830152612c698184614348565b60808101614b118287614336565b614b1e60208301866149c2565b614b2b6040830185614336565b614a916060830184614336565b60408101614b46828561433f565b610f74602083018461431e565b60208082528101610f748184614348565b602081016124eb828461437d565b602080825281016124eb81614386565b602080825281016124eb816143b6565b602080825281016124eb816143e6565b602080825281016124eb81614416565b602080825281016124eb8161446c565b602080825281016124eb8161449c565b602080825281016124eb816144cc565b602080825281016124eb816144fc565b602080825281016124eb8161452c565b602080825281016124eb8161455c565b602080825281016124eb8161458c565b602080825281016124eb816145bc565b602080825281016124eb816145ec565b602080825281016124eb8161461c565b602080825281016124eb81614672565b602080825281016124eb816146a2565b602080825281016124eb816146d2565b602080825281016124eb81614702565b602080825281016124eb81614732565b602080825281016124eb81614762565b602080825281016124eb81614792565b602080825281016124eb816147c2565b602080825281016124eb81614818565b602080825281016124eb81614848565b602080825281016124eb81614878565b602080825281016124eb816148a8565b602080825281016124eb816148d8565b608081016124eb8284614908565b61012081016124eb8284614952565b606081016124eb828461498b565b60405181810167ffffffffffffffff81118282101715614d6c57600080fd5b604052919050565b600067ffffffffffffffff821115614d8b57600080fd5b5060209081020190565b600067ffffffffffffffff821115614dac57600080fd5b506020601f919091017fffffffffffffffffffffffffffffffffffffffffffffffffffffffffffffffe0160190565b5190565b73ffffffffffffffffffffffffffffffffffffffff1690565b151590565b90565b7fffffffff000000000000000000000000000000000000000000000000000000001690565b60ff1690565b60006124eb82614ddf565b82818337506000910152565b60005b83811015614e5d578181015183820152602001614e45565b83811115612e005750506000910152565b601f017fffffffffffffffffffffffffffffffffffffffffffffffffffffffffffffffe016905600a265627a7a723058200bd2eaba4ff39a570e39f1d59c5028c5276506c4ca9f20566cd5328a8887d16a6c6578706572696d656e74616cf50037",
				"opcodes": "PUSH1 0x80 PUSH1 0x40 MSTORE CALLVALUE DUP1 ISZERO PUSH3 0x11 JUMPI PUSH1 0x0 DUP1 REVERT JUMPDEST POP PUSH1 0x40 MLOAD PUSH3 0x5443 CODESIZE SUB DUP1 PUSH3 0x5443 DUP4 CODECOPY DUP2 ADD DUP1 PUSH1 0x40 MSTORE PUSH3 0x37 SWAP2 SWAP1 DUP2 ADD SWAP1 PUSH3 0x433 JUMP JUMPDEST DUP1 MLOAD DUP2 SWAP1 PUSH3 0x4E SWAP1 PUSH1 0x0 SWAP1 PUSH1 0x20 DUP5 ADD SWAP1 PUSH3 0x332 JUMP JUMPDEST POP POP PUSH1 0x40 DUP1 MLOAD PUSH32 0x454950373132446F6D61696E2800000000000000000000000000000000000000 PUSH1 0x20 DUP1 DUP4 ADD SWAP2 SWAP1 SWAP2 MSTORE PUSH32 0x737472696E67206E616D652C0000000000000000000000000000000000000000 PUSH1 0x2D DUP4 ADD MSTORE PUSH32 0x737472696E672076657273696F6E2C0000000000000000000000000000000000 PUSH1 0x39 DUP4 ADD MSTORE PUSH32 0x6164647265737320766572696679696E67436F6E747261637400000000000000 PUSH1 0x48 DUP4 ADD MSTORE PUSH32 0x2900000000000000000000000000000000000000000000000000000000000000 PUSH1 0x61 DUP4 ADD MSTORE DUP3 MLOAD PUSH1 0x42 DUP2 DUP5 SUB ADD DUP2 MSTORE PUSH1 0x62 SWAP1 SWAP3 ADD SWAP3 DUP4 SWAP1 MSTORE DUP2 MLOAD SWAP2 SWAP3 SWAP2 DUP3 SWAP2 DUP5 ADD SWAP1 DUP1 DUP4 DUP4 JUMPDEST PUSH1 0x20 DUP4 LT PUSH3 0x158 JUMPI DUP1 MLOAD DUP3 MSTORE PUSH1 0x1F NOT SWAP1 SWAP3 ADD SWAP2 PUSH1 0x20 SWAP2 DUP3 ADD SWAP2 ADD PUSH3 0x137 JUMP JUMPDEST MLOAD DUP2 MLOAD PUSH1 0x20 SWAP4 DUP5 SUB PUSH2 0x100 EXP PUSH1 0x0 NOT ADD DUP1 NOT SWAP1 SWAP3 AND SWAP2 AND OR SWAP1 MSTORE PUSH1 0x40 DUP1 MLOAD SWAP3 SWAP1 SWAP5 ADD DUP3 SWAP1 SUB DUP3 KECCAK256 DUP3 DUP6 ADD DUP6 MSTORE PUSH1 0xB DUP1 DUP5 MSTORE PUSH32 0x30782050726F746F636F6C000000000000000000000000000000000000000000 SWAP3 DUP5 ADD SWAP3 DUP4 MSTORE SWAP5 MLOAD SWAP1 SWAP7 POP SWAP2 SWAP5 POP SWAP1 SWAP3 DUP4 SWAP3 POP DUP1 DUP4 DUP4 JUMPDEST PUSH1 0x20 DUP4 LT PUSH3 0x1E2 JUMPI DUP1 MLOAD DUP3 MSTORE PUSH1 0x1F NOT SWAP1 SWAP3 ADD SWAP2 PUSH1 0x20 SWAP2 DUP3 ADD SWAP2 ADD PUSH3 0x1C1 JUMP JUMPDEST MLOAD DUP2 MLOAD PUSH1 0x20 SWAP4 DUP5 SUB PUSH2 0x100 EXP PUSH1 0x0 NOT ADD DUP1 NOT SWAP1 SWAP3 AND SWAP2 AND OR SWAP1 MSTORE PUSH1 0x40 DUP1 MLOAD SWAP3 SWAP1 SWAP5 ADD DUP3 SWAP1 SUB DUP3 KECCAK256 DUP3 DUP6 ADD DUP6 MSTORE PUSH1 0x1 DUP1 DUP5 MSTORE PUSH32 0x3200000000000000000000000000000000000000000000000000000000000000 SWAP3 DUP5 ADD SWAP3 DUP4 MSTORE SWAP5 MLOAD SWAP1 SWAP7 POP SWAP2 SWAP5 POP SWAP1 SWAP3 DUP4 SWAP3 POP DUP1 DUP4 DUP4 JUMPDEST PUSH1 0x20 DUP4 LT PUSH3 0x26C JUMPI DUP1 MLOAD DUP3 MSTORE PUSH1 0x1F NOT SWAP1 SWAP3 ADD SWAP2 PUSH1 0x20 SWAP2 DUP3 ADD SWAP2 ADD PUSH3 0x24B JUMP JUMPDEST MLOAD DUP2 MLOAD PUSH1 0x20 SWAP4 DUP5 SUB PUSH2 0x100 EXP PUSH1 0x0 NOT ADD DUP1 NOT SWAP1 SWAP3 AND SWAP2 AND OR SWAP1 MSTORE PUSH1 0x40 MLOAD SWAP2 SWAP1 SWAP4 ADD DUP2 SWAP1 SUB DUP2 KECCAK256 PUSH3 0x2A7 SWAP8 SWAP7 SWAP6 POP SWAP4 POP ADDRESS SWAP3 ADD SWAP1 POP PUSH3 0x48F JUMP JUMPDEST PUSH1 0x40 MLOAD PUSH1 0x20 DUP2 DUP4 SUB SUB DUP2 MSTORE SWAP1 PUSH1 0x40 MSTORE PUSH1 0x40 MLOAD DUP1 DUP3 DUP1 MLOAD SWAP1 PUSH1 0x20 ADD SWAP1 DUP1 DUP4 DUP4 JUMPDEST PUSH1 0x20 DUP4 LT PUSH3 0x2E7 JUMPI DUP1 MLOAD DUP3 MSTORE PUSH1 0x1F NOT SWAP1 SWAP3 ADD SWAP2 PUSH1 0x20 SWAP2 DUP3 ADD SWAP2 ADD PUSH3 0x2C6 JUMP JUMPDEST MLOAD DUP2 MLOAD PUSH1 0x0 NOT PUSH1 0x20 SWAP5 SWAP1 SWAP5 SUB PUSH2 0x100 EXP SWAP4 SWAP1 SWAP4 ADD SWAP3 DUP4 AND SWAP3 NOT AND SWAP2 SWAP1 SWAP2 OR SWAP1 MSTORE PUSH1 0x40 MLOAD SWAP3 ADD DUP3 SWAP1 SUB SWAP1 SWAP2 KECCAK256 PUSH1 0x1 SSTORE POP POP PUSH1 0x2 DUP1 SLOAD PUSH1 0x1 PUSH1 0xA0 PUSH1 0x2 EXP SUB NOT AND CALLER OR SWAP1 SSTORE POP PUSH3 0x563 SWAP1 POP JUMP JUMPDEST DUP3 DUP1 SLOAD PUSH1 0x1 DUP2 PUSH1 0x1 AND ISZERO PUSH2 0x100 MUL SUB AND PUSH1 0x2 SWAP1 DIV SWAP1 PUSH1 0x0 MSTORE PUSH1 0x20 PUSH1 0x0 KECCAK256 SWAP1 PUSH1 0x1F ADD PUSH1 0x20 SWAP1 DIV DUP2 ADD SWAP3 DUP3 PUSH1 0x1F LT PUSH3 0x375 JUMPI DUP1 MLOAD PUSH1 0xFF NOT AND DUP4 DUP1 ADD OR DUP6 SSTORE PUSH3 0x3A5 JUMP JUMPDEST DUP3 DUP1 ADD PUSH1 0x1 ADD DUP6 SSTORE DUP3 ISZERO PUSH3 0x3A5 JUMPI SWAP2 DUP3 ADD JUMPDEST DUP3 DUP2 GT ISZERO PUSH3 0x3A5 JUMPI DUP3 MLOAD DUP3 SSTORE SWAP2 PUSH1 0x20 ADD SWAP2 SWAP1 PUSH1 0x1 ADD SWAP1 PUSH3 0x388 JUMP JUMPDEST POP PUSH3 0x3B3 SWAP3 SWAP2 POP PUSH3 0x3B7 JUMP JUMPDEST POP SWAP1 JUMP JUMPDEST PUSH3 0x3D4 SWAP2 SWAP1 JUMPDEST DUP1 DUP3 GT ISZERO PUSH3 0x3B3 JUMPI PUSH1 0x0 DUP2 SSTORE PUSH1 0x1 ADD PUSH3 0x3BE JUMP JUMPDEST SWAP1 JUMP JUMPDEST PUSH1 0x0 PUSH1 0x1F DUP3 ADD DUP4 SGT PUSH3 0x3E9 JUMPI PUSH1 0x0 DUP1 REVERT JUMPDEST DUP2 MLOAD PUSH3 0x400 PUSH3 0x3FA DUP3 PUSH3 0x4FC JUMP JUMPDEST PUSH3 0x4D5 JUMP JUMPDEST SWAP2 POP DUP1 DUP3 MSTORE PUSH1 0x20 DUP4 ADD PUSH1 0x20 DUP4 ADD DUP6 DUP4 DUP4 ADD GT ISZERO PUSH3 0x41D JUMPI PUSH1 0x0 DUP1 REVERT JUMPDEST PUSH3 0x42A DUP4 DUP3 DUP5 PUSH3 0x530 JUMP JUMPDEST POP POP POP SWAP3 SWAP2 POP POP JUMP JUMPDEST PUSH1 0x0 PUSH1 0x20 DUP3 DUP5 SUB SLT ISZERO PUSH3 0x446 JUMPI PUSH1 0x0 DUP1 REVERT JUMPDEST DUP2 MLOAD PUSH1 0x1 PUSH1 0x40 PUSH1 0x2 EXP SUB DUP2 GT ISZERO PUSH3 0x45D JUMPI PUSH1 0x0 DUP1 REVERT JUMPDEST PUSH3 0x46B DUP5 DUP3 DUP6 ADD PUSH3 0x3D7 JUMP JUMPDEST SWAP5 SWAP4 POP POP POP POP JUMP JUMPDEST PUSH3 0x47E DUP2 PUSH3 0x524 JUMP JUMPDEST DUP3 MSTORE POP POP JUMP JUMPDEST PUSH3 0x47E DUP2 PUSH3 0x3D4 JUMP JUMPDEST PUSH1 0x80 DUP2 ADD PUSH3 0x49F DUP3 DUP8 PUSH3 0x484 JUMP JUMPDEST PUSH3 0x4AE PUSH1 0x20 DUP4 ADD DUP7 PUSH3 0x484 JUMP JUMPDEST PUSH3 0x4BD PUSH1 0x40 DUP4 ADD DUP6 PUSH3 0x484 JUMP JUMPDEST PUSH3 0x4CC PUSH1 0x60 DUP4 ADD DUP5 PUSH3 0x473 JUMP JUMPDEST SWAP6 SWAP5 POP POP POP POP POP JUMP JUMPDEST PUSH1 0x40 MLOAD DUP2 DUP2 ADD PUSH1 0x1 PUSH1 0x40 PUSH1 0x2 EXP SUB DUP2 GT DUP3 DUP3 LT OR ISZERO PUSH3 0x4F4 JUMPI PUSH1 0x0 DUP1 REVERT JUMPDEST PUSH1 0x40 MSTORE SWAP2 SWAP1 POP JUMP JUMPDEST PUSH1 0x0 PUSH1 0x1 PUSH1 0x40 PUSH1 0x2 EXP SUB DUP3 GT ISZERO PUSH3 0x513 JUMPI PUSH1 0x0 DUP1 REVERT JUMPDEST POP PUSH1 0x20 PUSH1 0x1F SWAP2 SWAP1 SWAP2 ADD PUSH1 0x1F NOT AND ADD SWAP1 JUMP JUMPDEST PUSH1 0x1 PUSH1 0xA0 PUSH1 0x2 EXP SUB AND SWAP1 JUMP JUMPDEST PUSH1 0x0 JUMPDEST DUP4 DUP2 LT ISZERO PUSH3 0x54D JUMPI DUP2 DUP2 ADD MLOAD DUP4 DUP3 ADD MSTORE PUSH1 0x20 ADD PUSH3 0x533 JUMP JUMPDEST DUP4 DUP2 GT ISZERO PUSH3 0x55D JUMPI PUSH1 0x0 DUP5 DUP5 ADD MSTORE JUMPDEST POP POP POP POP JUMP JUMPDEST PUSH2 0x4ED0 DUP1 PUSH3 0x573 PUSH1 0x0 CODECOPY PUSH1 0x0 RETURN STOP PUSH1 0x80 PUSH1 0x40 MSTORE PUSH1 0x4 CALLDATASIZE LT PUSH2 0x1B6 JUMPI PUSH4 0xFFFFFFFF PUSH29 0x100000000000000000000000000000000000000000000000000000000 PUSH1 0x0 CALLDATALOAD DIV AND PUSH4 0x2624B2D9 DUP2 EQ PUSH2 0x1BB JUMPI DUP1 PUSH4 0x288CDC91 EQ PUSH2 0x1E6 JUMPI DUP1 PUSH4 0x297BB70B EQ PUSH2 0x206 JUMPI DUP1 PUSH4 0x2AC12622 EQ PUSH2 0x233 JUMPI DUP1 PUSH4 0x3683EF8E EQ PUSH2 0x260 JUMPI DUP1 PUSH4 0x3C28D861 EQ PUSH2 0x282 JUMPI DUP1 PUSH4 0x3E228BAE EQ PUSH2 0x2AF JUMPI DUP1 PUSH4 0x3FD3C997 EQ PUSH2 0x2CF JUMPI DUP1 PUSH4 0x4AC14782 EQ PUSH2 0x2FC JUMPI DUP1 PUSH4 0x4D0AE546 EQ PUSH2 0x31C JUMPI DUP1 PUSH4 0x4F9559B1 EQ PUSH2 0x33C JUMPI DUP1 PUSH4 0x50DDE190 EQ PUSH2 0x35C JUMPI DUP1 PUSH4 0x60704108 EQ PUSH2 0x37C JUMPI DUP1 PUSH4 0x642F2EAF EQ PUSH2 0x3A9 JUMPI DUP1 PUSH4 0x64A3BC15 EQ PUSH2 0x3C9 JUMPI DUP1 PUSH4 0x77FCCE68 EQ PUSH2 0x3E9 JUMPI DUP1 PUSH4 0x7B8E3514 EQ PUSH2 0x409 JUMPI DUP1 PUSH4 0x7E1D9808 EQ PUSH2 0x429 JUMPI DUP1 PUSH4 0x82C174D0 EQ PUSH2 0x449 JUMPI DUP1 PUSH4 0x8DA5CB5B EQ PUSH2 0x469 JUMPI DUP1 PUSH4 0x93634702 EQ PUSH2 0x47E JUMPI DUP1 PUSH4 0xA3E20380 EQ PUSH2 0x49E JUMPI DUP1 PUSH4 0xB4BE83D5 EQ PUSH2 0x4BE JUMPI DUP1 PUSH4 0xBFC8BFCE EQ PUSH2 0x4DE JUMPI DUP1 PUSH4 0xC585BB93 EQ PUSH2 0x4FE JUMPI DUP1 PUSH4 0xC75E0A81 EQ PUSH2 0x51E JUMPI DUP1 PUSH4 0xD46B02C3 EQ PUSH2 0x54B JUMPI DUP1 PUSH4 0xD9BFA73E EQ PUSH2 0x56B JUMPI DUP1 PUSH4 0xDB123B1A EQ PUSH2 0x58B JUMPI DUP1 PUSH4 0xDD1C7D18 EQ PUSH2 0x5AD JUMPI DUP1 PUSH4 0xE306F779 EQ PUSH2 0x5CD JUMPI DUP1 PUSH4 0xE5FA431B EQ PUSH2 0x5E2 JUMPI DUP1 PUSH4 0xEEA086BA EQ PUSH2 0x602 JUMPI DUP1 PUSH4 0xF2FDE38B EQ PUSH2 0x617 JUMPI DUP1 PUSH4 0xFFA1AD74 EQ PUSH2 0x637 JUMPI JUMPDEST PUSH1 0x0 DUP1 REVERT JUMPDEST CALLVALUE DUP1 ISZERO PUSH2 0x1C7 JUMPI PUSH1 0x0 DUP1 REVERT JUMPDEST POP PUSH2 0x1D0 PUSH2 0x64C JUMP JUMPDEST PUSH1 0x40 MLOAD PUSH2 0x1DD SWAP2 SWAP1 PUSH2 0x4AA8 JUMP JUMPDEST PUSH1 0x40 MLOAD DUP1 SWAP2 SUB SWAP1 RETURN JUMPDEST CALLVALUE DUP1 ISZERO PUSH2 0x1F2 JUMPI PUSH1 0x0 DUP1 REVERT JUMPDEST POP PUSH2 0x1D0 PUSH2 0x201 CALLDATASIZE PUSH1 0x4 PUSH2 0x400B JUMP JUMPDEST PUSH2 0x7A0 JUMP JUMPDEST CALLVALUE DUP1 ISZERO PUSH2 0x212 JUMPI PUSH1 0x0 DUP1 REVERT JUMPDEST POP PUSH2 0x226 PUSH2 0x221 CALLDATASIZE PUSH1 0x4 PUSH2 0x3F10 JUMP JUMPDEST PUSH2 0x7B2 JUMP JUMPDEST PUSH1 0x40 MLOAD PUSH2 0x1DD SWAP2 SWAP1 PUSH2 0x4D22 JUMP JUMPDEST CALLVALUE DUP1 ISZERO PUSH2 0x23F JUMPI PUSH1 0x0 DUP1 REVERT JUMPDEST POP PUSH2 0x253 PUSH2 0x24E CALLDATASIZE PUSH1 0x4 PUSH2 0x400B JUMP JUMPDEST PUSH2 0x842 JUMP JUMPDEST PUSH1 0x40 MLOAD PUSH2 0x1DD SWAP2 SWAP1 PUSH2 0x4A9A JUMP JUMPDEST CALLVALUE DUP1 ISZERO PUSH2 0x26C JUMPI PUSH1 0x0 DUP1 REVERT JUMPDEST POP PUSH2 0x280 PUSH2 0x27B CALLDATASIZE PUSH1 0x4 PUSH2 0x4048 JUMP JUMPDEST PUSH2 0x857 JUMP JUMPDEST STOP JUMPDEST CALLVALUE DUP1 ISZERO PUSH2 0x28E JUMPI PUSH1 0x0 DUP1 REVERT JUMPDEST POP PUSH2 0x2A2 PUSH2 0x29D CALLDATASIZE PUSH1 0x4 PUSH2 0x417C JUMP JUMPDEST PUSH2 0x930 JUMP JUMPDEST PUSH1 0x40 MLOAD PUSH2 0x1DD SWAP2 SWAP1 PUSH2 0x4D30 JUMP JUMPDEST CALLVALUE DUP1 ISZERO PUSH2 0x2BB JUMPI PUSH1 0x0 DUP1 REVERT JUMPDEST POP PUSH2 0x226 PUSH2 0x2CA CALLDATASIZE PUSH1 0x4 PUSH2 0x423C JUMP JUMPDEST PUSH2 0xA1C JUMP JUMPDEST CALLVALUE DUP1 ISZERO PUSH2 0x2DB JUMPI PUSH1 0x0 DUP1 REVERT JUMPDEST POP PUSH2 0x2EF PUSH2 0x2EA CALLDATASIZE PUSH1 0x4 PUSH2 0x410B JUMP JUMPDEST PUSH2 0xC2C JUMP JUMPDEST PUSH1 0x40 MLOAD PUSH2 0x1DD SWAP2 SWAP1 PUSH2 0x4B64 JUMP JUMPDEST CALLVALUE DUP1 ISZERO PUSH2 0x308 JUMPI PUSH1 0x0 DUP1 REVERT JUMPDEST POP PUSH2 0x280 PUSH2 0x317 CALLDATASIZE PUSH1 0x4 PUSH2 0x3EDB JUMP JUMPDEST PUSH2 0xC54 JUMP JUMPDEST CALLVALUE DUP1 ISZERO PUSH2 0x328 JUMPI PUSH1 0x0 DUP1 REVERT JUMPDEST POP PUSH2 0x226 PUSH2 0x337 CALLDATASIZE PUSH1 0x4 PUSH2 0x3F10 JUMP JUMPDEST PUSH2 0xC8C JUMP JUMPDEST CALLVALUE DUP1 ISZERO PUSH2 0x348 JUMPI PUSH1 0x0 DUP1 REVERT JUMPDEST POP PUSH2 0x280 PUSH2 0x357 CALLDATASIZE PUSH1 0x4 PUSH2 0x400B JUMP JUMPDEST PUSH2 0xD13 JUMP JUMPDEST CALLVALUE DUP1 ISZERO PUSH2 0x368 JUMPI PUSH1 0x0 DUP1 REVERT JUMPDEST POP PUSH2 0x226 PUSH2 0x377 CALLDATASIZE PUSH1 0x4 PUSH2 0x3F10 JUMP JUMPDEST PUSH2 0xE37 JUMP JUMPDEST CALLVALUE DUP1 ISZERO PUSH2 0x388 JUMPI PUSH1 0x0 DUP1 REVERT JUMPDEST POP PUSH2 0x39C PUSH2 0x397 CALLDATASIZE PUSH1 0x4 PUSH2 0x410B JUMP JUMPDEST PUSH2 0xEBE JUMP JUMPDEST PUSH1 0x40 MLOAD PUSH2 0x1DD SWAP2 SWAP1 PUSH2 0x49CB JUMP JUMPDEST CALLVALUE DUP1 ISZERO PUSH2 0x3B5 JUMPI PUSH1 0x0 DUP1 REVERT JUMPDEST POP PUSH2 0x253 PUSH2 0x3C4 CALLDATASIZE PUSH1 0x4 PUSH2 0x400B JUMP JUMPDEST PUSH2 0xF0C JUMP JUMPDEST CALLVALUE DUP1 ISZERO PUSH2 0x3D5 JUMPI PUSH1 0x0 DUP1 REVERT JUMPDEST POP PUSH2 0x226 PUSH2 0x3E4 CALLDATASIZE PUSH1 0x4 PUSH2 0x423C JUMP JUMPDEST PUSH2 0xF21 JUMP JUMPDEST CALLVALUE DUP1 ISZERO PUSH2 0x3F5 JUMPI PUSH1 0x0 DUP1 REVERT JUMPDEST POP PUSH2 0x280 PUSH2 0x404 CALLDATASIZE PUSH1 0x4 PUSH2 0x3EAB JUMP JUMPDEST PUSH2 0xF7B JUMP JUMPDEST CALLVALUE DUP1 ISZERO PUSH2 0x415 JUMPI PUSH1 0x0 DUP1 REVERT JUMPDEST POP PUSH2 0x253 PUSH2 0x424 CALLDATASIZE PUSH1 0x4 PUSH2 0x3E71 JUMP JUMPDEST PUSH2 0x1026 JUMP JUMPDEST CALLVALUE DUP1 ISZERO PUSH2 0x435 JUMPI PUSH1 0x0 DUP1 REVERT JUMPDEST POP PUSH2 0x226 PUSH2 0x444 CALLDATASIZE PUSH1 0x4 PUSH2 0x3FA4 JUMP JUMPDEST PUSH2 0x1046 JUMP JUMPDEST CALLVALUE DUP1 ISZERO PUSH2 0x455 JUMPI PUSH1 0x0 DUP1 REVERT JUMPDEST POP PUSH2 0x253 PUSH2 0x464 CALLDATASIZE PUSH1 0x4 PUSH2 0x4029 JUMP JUMPDEST PUSH2 0x1117 JUMP JUMPDEST CALLVALUE DUP1 ISZERO PUSH2 0x475 JUMPI PUSH1 0x0 DUP1 REVERT JUMPDEST POP PUSH2 0x39C PUSH2 0x1137 JUMP JUMPDEST CALLVALUE DUP1 ISZERO PUSH2 0x48A JUMPI PUSH1 0x0 DUP1 REVERT JUMPDEST POP PUSH2 0x253 PUSH2 0x499 CALLDATASIZE PUSH1 0x4 PUSH2 0x40B0 JUMP JUMPDEST PUSH2 0x1153 JUMP JUMPDEST CALLVALUE DUP1 ISZERO PUSH2 0x4AA JUMPI PUSH1 0x0 DUP1 REVERT JUMPDEST POP PUSH2 0x226 PUSH2 0x4B9 CALLDATASIZE PUSH1 0x4 PUSH2 0x3FA4 JUMP JUMPDEST PUSH2 0x1979 JUMP JUMPDEST CALLVALUE DUP1 ISZERO PUSH2 0x4CA JUMPI PUSH1 0x0 DUP1 REVERT JUMPDEST POP PUSH2 0x226 PUSH2 0x4D9 CALLDATASIZE PUSH1 0x4 PUSH2 0x423C JUMP JUMPDEST PUSH2 0x1A89 JUMP JUMPDEST CALLVALUE DUP1 ISZERO PUSH2 0x4EA JUMPI PUSH1 0x0 DUP1 REVERT JUMPDEST POP PUSH2 0x280 PUSH2 0x4F9 CALLDATASIZE PUSH1 0x4 PUSH2 0x4285 JUMP JUMPDEST PUSH2 0x1B0D JUMP JUMPDEST CALLVALUE DUP1 ISZERO PUSH2 0x50A JUMPI PUSH1 0x0 DUP1 REVERT JUMPDEST POP PUSH2 0x280 PUSH2 0x519 CALLDATASIZE PUSH1 0x4 PUSH2 0x3E53 JUMP JUMPDEST PUSH2 0x1D88 JUMP JUMPDEST CALLVALUE DUP1 ISZERO PUSH2 0x52A JUMPI PUSH1 0x0 DUP1 REVERT JUMPDEST POP PUSH2 0x53E PUSH2 0x539 CALLDATASIZE PUSH1 0x4 PUSH2 0x4147 JUMP JUMPDEST PUSH2 0x1FB3 JUMP JUMPDEST PUSH1 0x40 MLOAD PUSH2 0x1DD SWAP2 SWAP1 PUSH2 0x4D3F JUMP JUMPDEST CALLVALUE DUP1 ISZERO PUSH2 0x557 JUMPI PUSH1 0x0 DUP1 REVERT JUMPDEST POP PUSH2 0x280 PUSH2 0x566 CALLDATASIZE PUSH1 0x4 PUSH2 0x4147 JUMP JUMPDEST PUSH2 0x20AE JUMP JUMPDEST CALLVALUE DUP1 ISZERO PUSH2 0x577 JUMPI PUSH1 0x0 DUP1 REVERT JUMPDEST POP PUSH2 0x1D0 PUSH2 0x586 CALLDATASIZE PUSH1 0x4 PUSH2 0x3E71 JUMP JUMPDEST PUSH2 0x20D9 JUMP JUMPDEST CALLVALUE DUP1 ISZERO PUSH2 0x597 JUMPI PUSH1 0x0 DUP1 REVERT JUMPDEST POP PUSH2 0x5A0 PUSH2 0x20F6 JUMP JUMPDEST PUSH1 0x40 MLOAD PUSH2 0x1DD SWAP2 SWAP1 PUSH2 0x4B53 JUMP JUMPDEST CALLVALUE DUP1 ISZERO PUSH2 0x5B9 JUMPI PUSH1 0x0 DUP1 REVERT JUMPDEST POP PUSH2 0x226 PUSH2 0x5C8 CALLDATASIZE PUSH1 0x4 PUSH2 0x3FA4 JUMP JUMPDEST PUSH2 0x21A2 JUMP JUMPDEST CALLVALUE DUP1 ISZERO PUSH2 0x5D9 JUMPI PUSH1 0x0 DUP1 REVERT JUMPDEST POP PUSH2 0x1D0 PUSH2 0x2268 JUMP JUMPDEST CALLVALUE DUP1 ISZERO PUSH2 0x5EE JUMPI PUSH1 0x0 DUP1 REVERT JUMPDEST POP PUSH2 0x226 PUSH2 0x5FD CALLDATASIZE PUSH1 0x4 PUSH2 0x3FA4 JUMP JUMPDEST PUSH2 0x226E JUMP JUMPDEST CALLVALUE DUP1 ISZERO PUSH2 0x60E JUMPI PUSH1 0x0 DUP1 REVERT JUMPDEST POP PUSH2 0x39C PUSH2 0x2342 JUMP JUMPDEST CALLVALUE DUP1 ISZERO PUSH2 0x623 JUMPI PUSH1 0x0 DUP1 REVERT JUMPDEST POP PUSH2 0x280 PUSH2 0x632 CALLDATASIZE PUSH1 0x4 PUSH2 0x3E53 JUMP JUMPDEST PUSH2 0x235E JUMP JUMPDEST CALLVALUE DUP1 ISZERO PUSH2 0x643 JUMPI PUSH1 0x0 DUP1 REVERT JUMPDEST POP PUSH2 0x5A0 PUSH2 0x240F JUMP JUMPDEST PUSH1 0x40 DUP1 MLOAD PUSH32 0x454950373132446F6D61696E2800000000000000000000000000000000000000 PUSH1 0x20 DUP1 DUP4 ADD SWAP2 SWAP1 SWAP2 MSTORE PUSH32 0x737472696E67206E616D652C0000000000000000000000000000000000000000 PUSH1 0x2D DUP4 ADD MSTORE PUSH32 0x737472696E672076657273696F6E2C0000000000000000000000000000000000 PUSH1 0x39 DUP4 ADD MSTORE PUSH32 0x6164647265737320766572696679696E67436F6E747261637400000000000000 PUSH1 0x48 DUP4 ADD MSTORE PUSH32 0x2900000000000000000000000000000000000000000000000000000000000000 PUSH1 0x61 DUP4 ADD MSTORE DUP3 MLOAD PUSH1 0x42 DUP2 DUP5 SUB ADD DUP2 MSTORE PUSH1 0x62 SWAP1 SWAP3 ADD SWAP3 DUP4 SWAP1 MSTORE DUP2 MLOAD SWAP2 SWAP3 SWAP2 DUP3 SWAP2 DUP5 ADD SWAP1 DUP1 DUP4 DUP4 JUMPDEST PUSH1 0x20 DUP4 LT PUSH2 0x770 JUMPI DUP1 MLOAD DUP3 MSTORE PUSH32 0xFFFFFFFFFFFFFFFFFFFFFFFFFFFFFFFFFFFFFFFFFFFFFFFFFFFFFFFFFFFFFFE0 SWAP1 SWAP3 ADD SWAP2 PUSH1 0x20 SWAP2 DUP3 ADD SWAP2 ADD PUSH2 0x733 JUMP JUMPDEST PUSH1 0x1 DUP4 PUSH1 0x20 SUB PUSH2 0x100 EXP SUB DUP1 NOT DUP3 MLOAD AND DUP2 DUP5 MLOAD AND DUP1 DUP3 OR DUP6 MSTORE POP POP POP POP POP POP SWAP1 POP ADD SWAP2 POP POP PUSH1 0x40 MLOAD DUP1 SWAP2 SUB SWAP1 KECCAK256 DUP2 JUMP JUMPDEST PUSH1 0x3 PUSH1 0x20 MSTORE PUSH1 0x0 SWAP1 DUP2 MSTORE PUSH1 0x40 SWAP1 KECCAK256 SLOAD DUP2 JUMP JUMPDEST PUSH2 0x7BA PUSH2 0x3A79 JUMP JUMPDEST PUSH1 0x0 PUSH2 0x7C4 PUSH2 0x3A79 JUMP JUMPDEST PUSH1 0x0 SWAP2 POP JUMPDEST DUP6 MLOAD DUP3 LT ISZERO PUSH2 0x839 JUMPI PUSH2 0x822 DUP7 DUP4 DUP2 MLOAD DUP2 LT ISZERO ISZERO PUSH2 0x7E3 JUMPI INVALID JUMPDEST SWAP1 PUSH1 0x20 ADD SWAP1 PUSH1 0x20 MUL ADD MLOAD DUP7 DUP5 DUP2 MLOAD DUP2 LT ISZERO ISZERO PUSH2 0x7FB JUMPI INVALID JUMPDEST SWAP1 PUSH1 0x20 ADD SWAP1 PUSH1 0x20 MUL ADD MLOAD DUP7 DUP6 DUP2 MLOAD DUP2 LT ISZERO ISZERO PUSH2 0x813 JUMPI INVALID JUMPDEST SWAP1 PUSH1 0x20 ADD SWAP1 PUSH1 0x20 MUL ADD MLOAD PUSH2 0x1A89 JUMP JUMPDEST SWAP1 POP PUSH2 0x82E DUP4 DUP3 PUSH2 0x2446 JUMP JUMPDEST PUSH1 0x1 SWAP1 SWAP2 ADD SWAP1 PUSH2 0x7C9 JUMP JUMPDEST POP POP SWAP4 SWAP3 POP POP POP JUMP JUMPDEST PUSH1 0x4 PUSH1 0x20 MSTORE PUSH1 0x0 SWAP1 DUP2 MSTORE PUSH1 0x40 SWAP1 KECCAK256 SLOAD PUSH1 0xFF AND DUP2 JUMP JUMPDEST PUSH2 0x892 DUP5 DUP5 DUP5 DUP5 DUP1 DUP1 PUSH1 0x1F ADD PUSH1 0x20 DUP1 SWAP2 DIV MUL PUSH1 0x20 ADD PUSH1 0x40 MLOAD SWAP1 DUP2 ADD PUSH1 0x40 MSTORE DUP1 SWAP4 SWAP3 SWAP2 SWAP1 DUP2 DUP2 MSTORE PUSH1 0x20 ADD DUP4 DUP4 DUP1 DUP3 DUP5 CALLDATACOPY POP PUSH2 0x1153 SWAP5 POP POP POP POP POP JUMP JUMPDEST ISZERO ISZERO PUSH2 0x8D3 JUMPI PUSH1 0x40 MLOAD PUSH32 0x8C379A000000000000000000000000000000000000000000000000000000000 DUP2 MSTORE PUSH1 0x4 ADD PUSH2 0x8CA SWAP1 PUSH2 0x4BF2 JUMP JUMPDEST PUSH1 0x40 MLOAD DUP1 SWAP2 SUB SWAP1 REVERT JUMPDEST POP POP PUSH1 0x0 SWAP2 DUP3 MSTORE PUSH1 0x6 PUSH1 0x20 SWAP1 DUP2 MSTORE PUSH1 0x40 DUP1 DUP5 KECCAK256 PUSH20 0xFFFFFFFFFFFFFFFFFFFFFFFFFFFFFFFFFFFFFFFF SWAP1 SWAP4 AND DUP5 MSTORE SWAP2 SWAP1 MSTORE SWAP1 KECCAK256 DUP1 SLOAD PUSH32 0xFFFFFFFFFFFFFFFFFFFFFFFFFFFFFFFFFFFFFFFFFFFFFFFFFFFFFFFFFFFFFF00 AND PUSH1 0x1 OR SWAP1 SSTORE JUMP JUMPDEST PUSH2 0x938 PUSH2 0x3AA2 JUMP JUMPDEST PUSH2 0x940 PUSH2 0x3AD1 JUMP JUMPDEST PUSH2 0x948 PUSH2 0x3AD1 JUMP JUMPDEST PUSH2 0x160 DUP1 DUP9 ADD MLOAD PUSH2 0x140 DUP1 DUP10 ADD SWAP2 SWAP1 SWAP2 MSTORE DUP9 ADD MLOAD SWAP1 DUP8 ADD MSTORE PUSH1 0x0 PUSH2 0x96B DUP9 PUSH2 0x1FB3 JUMP JUMPDEST SWAP3 POP PUSH2 0x976 DUP8 PUSH2 0x1FB3 JUMP JUMPDEST SWAP2 POP PUSH2 0x980 PUSH2 0x24A8 JUMP JUMPDEST SWAP1 POP PUSH2 0x98C DUP9 DUP9 PUSH2 0x24F1 JUMP JUMPDEST PUSH2 0x9A0 DUP9 DUP9 DUP6 PUSH1 0x40 ADD MLOAD DUP6 PUSH1 0x40 ADD MLOAD PUSH2 0x254D JUMP JUMPDEST DUP1 MLOAD PUSH1 0x20 ADD MLOAD SWAP1 SWAP5 POP PUSH2 0x9BA SWAP1 DUP10 SWAP1 DUP6 SWAP1 DUP5 SWAP1 DUP1 DUP12 PUSH2 0x2611 JUMP JUMPDEST PUSH1 0x20 DUP1 DUP6 ADD MLOAD ADD MLOAD PUSH2 0x9D3 SWAP1 DUP9 SWAP1 DUP5 SWAP1 DUP5 SWAP1 DUP1 DUP11 PUSH2 0x2611 JUMP JUMPDEST PUSH2 0x9EC DUP9 DUP3 DUP6 PUSH1 0x20 ADD MLOAD DUP7 PUSH1 0x40 ADD MLOAD DUP9 PUSH1 0x0 ADD MLOAD PUSH2 0x282E JUMP JUMPDEST PUSH2 0xA05 DUP8 DUP3 DUP5 PUSH1 0x20 ADD MLOAD DUP6 PUSH1 0x40 ADD MLOAD DUP9 PUSH1 0x20 ADD MLOAD PUSH2 0x282E JUMP JUMPDEST PUSH2 0xA11 DUP9 DUP9 DUP4 DUP8 PUSH2 0x28DA JUMP JUMPDEST POP POP POP SWAP5 SWAP4 POP POP POP POP JUMP JUMPDEST PUSH2 0xA24 PUSH2 0x3A79 JUMP JUMPDEST PUSH1 0x40 DUP1 MLOAD PUSH32 0xB4BE83D500000000000000000000000000000000000000000000000000000000 DUP1 DUP3 MSTORE PUSH1 0x60 PUSH1 0x4 DUP4 ADD DUP2 DUP2 MSTORE DUP9 MLOAD PUSH1 0x64 DUP6 ADD SWAP1 DUP2 MSTORE PUSH1 0x20 DUP1 DUP12 ADD MLOAD PUSH1 0x84 DUP8 ADD MSTORE SWAP6 DUP11 ADD MLOAD PUSH1 0xA4 DUP7 ADD MSTORE SWAP2 DUP10 ADD MLOAD PUSH1 0xC4 DUP6 ADD MSTORE PUSH1 0x80 DUP10 ADD MLOAD PUSH1 0xE4 DUP6 ADD MSTORE PUSH1 0xA0 DUP10 ADD MLOAD PUSH2 0x104 DUP6 ADD MSTORE PUSH1 0xC0 DUP10 ADD MLOAD PUSH2 0x124 DUP6 ADD MSTORE PUSH1 0xE0 DUP10 ADD MLOAD PUSH2 0x144 DUP6 ADD MSTORE PUSH2 0x100 DUP10 ADD MLOAD PUSH2 0x164 DUP6 ADD MSTORE PUSH2 0x120 DUP10 ADD MLOAD PUSH2 0x184 DUP6 ADD MSTORE PUSH2 0x140 DUP10 ADD DUP1 MLOAD PUSH2 0x1A4 DUP7 ADD SWAP1 DUP2 MSTORE PUSH2 0x160 DUP12 ADD MLOAD PUSH2 0x1C4 DUP8 ADD MSTORE PUSH2 0x180 SWAP1 MSTORE MLOAD DUP1 MLOAD PUSH2 0x1E4 DUP7 ADD DUP2 SWAP1 MSTORE SWAP4 SWAP6 SWAP2 SWAP4 DUP5 SWAP4 SWAP3 PUSH1 0x24 DUP8 ADD SWAP3 DUP5 SWAP3 PUSH2 0x204 DUP10 ADD SWAP3 SWAP2 DUP3 ADD SWAP2 PUSH1 0x1F DUP3 ADD DIV PUSH1 0x0 JUMPDEST DUP2 DUP2 LT ISZERO PUSH2 0xB27 JUMPI DUP4 MLOAD DUP6 MSTORE PUSH1 0x20 SWAP5 DUP6 ADD SWAP5 SWAP1 SWAP4 ADD SWAP3 PUSH1 0x1 ADD PUSH2 0xB09 JUMP JUMPDEST POP POP POP POP DUP2 DUP2 SUB PUSH2 0x160 DUP1 DUP5 ADD SWAP2 SWAP1 SWAP2 MSTORE DUP13 ADD MLOAD DUP1 MLOAD DUP1 DUP4 MSTORE PUSH1 0x20 SWAP3 DUP4 ADD SWAP3 SWAP2 DUP3 ADD SWAP2 PUSH1 0x1F DUP3 ADD DIV PUSH1 0x0 JUMPDEST DUP2 DUP2 LT ISZERO PUSH2 0xB70 JUMPI DUP4 MLOAD DUP6 MSTORE PUSH1 0x20 SWAP5 DUP6 ADD SWAP5 SWAP1 SWAP4 ADD SWAP3 PUSH1 0x1 ADD PUSH2 0xB52 JUMP JUMPDEST POP POP POP DUP12 DUP5 MSTORE POP DUP5 DUP2 SUB PUSH1 0x20 SWAP4 DUP5 ADD SWAP1 DUP2 MSTORE DUP11 MLOAD DUP1 DUP4 MSTORE SWAP1 SWAP4 SWAP2 DUP3 ADD SWAP2 DUP12 DUP2 ADD SWAP2 SWAP1 PUSH1 0x1F DUP3 ADD DIV PUSH1 0x0 JUMPDEST DUP2 DUP2 LT ISZERO PUSH2 0xBB8 JUMPI DUP4 MLOAD DUP6 MSTORE PUSH1 0x20 SWAP5 DUP6 ADD SWAP5 SWAP1 SWAP4 ADD SWAP3 PUSH1 0x1 ADD PUSH2 0xB9A JUMP JUMPDEST POP PUSH1 0x80 DUP11 DUP12 DUP7 SUB DUP13 ADDRESS GAS DELEGATECALL DUP1 DUP1 ISZERO PUSH2 0xBD7 JUMPI PUSH1 0x1 DUP2 EQ PUSH2 0xBF5 JUMPI PUSH2 0xC18 JUMP JUMPDEST PUSH1 0x0 DUP15 MSTORE PUSH1 0x0 PUSH1 0x20 DUP16 ADD MSTORE PUSH1 0x0 PUSH1 0x40 DUP16 ADD MSTORE PUSH1 0x0 PUSH1 0x60 DUP16 ADD MSTORE PUSH2 0xC18 JUMP JUMPDEST DUP12 MLOAD DUP15 MSTORE PUSH1 0x20 DUP13 ADD MLOAD PUSH1 0x20 DUP16 ADD MSTORE PUSH1 0x40 DUP13 ADD MLOAD PUSH1 0x40 DUP16 ADD MSTORE PUSH1 0x60 DUP13 ADD MLOAD PUSH1 0x60 DUP16 ADD MSTORE JUMPDEST POP POP POP POP POP POP POP POP POP POP POP POP POP SWAP4 SWAP3 POP POP POP JUMP JUMPDEST PUSH1 0xA PUSH1 0x20 MSTORE PUSH1 0x0 SWAP1 DUP2 MSTORE PUSH1 0x40 SWAP1 KECCAK256 SLOAD PUSH20 0xFFFFFFFFFFFFFFFFFFFFFFFFFFFFFFFFFFFFFFFF AND DUP2 JUMP JUMPDEST PUSH1 0x0 JUMPDEST DUP2 MLOAD DUP2 LT ISZERO PUSH2 0xC88 JUMPI PUSH2 0xC80 DUP3 DUP3 DUP2 MLOAD DUP2 LT ISZERO ISZERO PUSH2 0xC71 JUMPI INVALID JUMPDEST SWAP1 PUSH1 0x20 ADD SWAP1 PUSH1 0x20 MUL ADD MLOAD PUSH2 0x20AE JUMP JUMPDEST PUSH1 0x1 ADD PUSH2 0xC57 JUMP JUMPDEST POP POP JUMP JUMPDEST PUSH2 0xC94 PUSH2 0x3A79 JUMP JUMPDEST PUSH1 0x0 PUSH2 0xC9E PUSH2 0x3A79 JUMP JUMPDEST PUSH1 0x0 SWAP2 POP JUMPDEST DUP6 MLOAD DUP3 LT ISZERO PUSH2 0x839 JUMPI PUSH2 0xCFC DUP7 DUP4 DUP2 MLOAD DUP2 LT ISZERO ISZERO PUSH2 0xCBD JUMPI INVALID JUMPDEST SWAP1 PUSH1 0x20 ADD SWAP1 PUSH1 0x20 MUL ADD MLOAD DUP7 DUP5 DUP2 MLOAD DUP2 LT ISZERO ISZERO PUSH2 0xCD5 JUMPI INVALID JUMPDEST SWAP1 PUSH1 0x20 ADD SWAP1 PUSH1 0x20 MUL ADD MLOAD DUP7 DUP6 DUP2 MLOAD DUP2 LT ISZERO ISZERO PUSH2 0xCED JUMPI INVALID JUMPDEST SWAP1 PUSH1 0x20 ADD SWAP1 PUSH1 0x20 MUL ADD MLOAD PUSH2 0xF21 JUMP JUMPDEST SWAP1 POP PUSH2 0xD08 DUP4 DUP3 PUSH2 0x2446 JUMP JUMPDEST PUSH1 0x1 SWAP1 SWAP2 ADD SWAP1 PUSH2 0xCA3 JUMP JUMPDEST PUSH1 0x0 DUP1 PUSH1 0x0 DUP1 PUSH2 0xD21 PUSH2 0x24A8 JUMP JUMPDEST SWAP4 POP PUSH20 0xFFFFFFFFFFFFFFFFFFFFFFFFFFFFFFFFFFFFFFFF DUP5 AND CALLER EQ PUSH2 0xD46 JUMPI CALLER PUSH2 0xD49 JUMP JUMPDEST PUSH1 0x0 JUMPDEST PUSH20 0xFFFFFFFFFFFFFFFFFFFFFFFFFFFFFFFFFFFFFFFF DUP1 DUP7 AND PUSH1 0x0 SWAP1 DUP2 MSTORE PUSH1 0x5 PUSH1 0x20 SWAP1 DUP2 MSTORE PUSH1 0x40 DUP1 DUP4 KECCAK256 SWAP4 DUP6 AND DUP4 MSTORE SWAP3 SWAP1 MSTORE KECCAK256 SLOAD SWAP1 SWAP4 POP PUSH1 0x1 DUP7 ADD SWAP3 POP SWAP1 POP DUP1 DUP3 GT PUSH2 0xDC0 JUMPI PUSH1 0x40 MLOAD PUSH32 0x8C379A000000000000000000000000000000000000000000000000000000000 DUP2 MSTORE PUSH1 0x4 ADD PUSH2 0x8CA SWAP1 PUSH2 0x4C72 JUMP JUMPDEST PUSH20 0xFFFFFFFFFFFFFFFFFFFFFFFFFFFFFFFFFFFFFFFF DUP1 DUP6 AND PUSH1 0x0 DUP2 DUP2 MSTORE PUSH1 0x5 PUSH1 0x20 SWAP1 DUP2 MSTORE PUSH1 0x40 DUP1 DUP4 KECCAK256 SWAP5 DUP9 AND DUP1 DUP5 MSTORE SWAP5 SWAP1 SWAP2 MSTORE SWAP1 DUP2 SWAP1 KECCAK256 DUP6 SWAP1 SSTORE MLOAD PUSH32 0x82AF639571738F4EBD4268FB0363D8957EBE1BBB9E78DBA5EBD69EED39B154F0 SWAP1 PUSH2 0xE28 SWAP1 DUP7 SWAP1 PUSH2 0x4AA8 JUMP JUMPDEST PUSH1 0x40 MLOAD DUP1 SWAP2 SUB SWAP1 LOG3 POP POP POP POP POP JUMP JUMPDEST PUSH2 0xE3F PUSH2 0x3A79 JUMP JUMPDEST PUSH1 0x0 PUSH2 0xE49 PUSH2 0x3A79 JUMP JUMPDEST PUSH1 0x0 SWAP2 POP JUMPDEST DUP6 MLOAD DUP3 LT ISZERO PUSH2 0x839 JUMPI PUSH2 0xEA7 DUP7 DUP4 DUP2 MLOAD DUP2 LT ISZERO ISZERO PUSH2 0xE68 JUMPI INVALID JUMPDEST SWAP1 PUSH1 0x20 ADD SWAP1 PUSH1 0x20 MUL ADD MLOAD DUP7 DUP5 DUP2 MLOAD DUP2 LT ISZERO ISZERO PUSH2 0xE80 JUMPI INVALID JUMPDEST SWAP1 PUSH1 0x20 ADD SWAP1 PUSH1 0x20 MUL ADD MLOAD DUP7 DUP6 DUP2 MLOAD DUP2 LT ISZERO ISZERO PUSH2 0xE98 JUMPI INVALID JUMPDEST SWAP1 PUSH1 0x20 ADD SWAP1 PUSH1 0x20 MUL ADD MLOAD PUSH2 0xA1C JUMP JUMPDEST SWAP1 POP PUSH2 0xEB3 DUP4 DUP3 PUSH2 0x2446 JUMP JUMPDEST PUSH1 0x1 SWAP1 SWAP2 ADD SWAP1 PUSH2 0xE4E JUMP JUMPDEST PUSH32 0xFFFFFFFF00000000000000000000000000000000000000000000000000000000 DUP2 AND PUSH1 0x0 SWAP1 DUP2 MSTORE PUSH1 0xA PUSH1 0x20 MSTORE PUSH1 0x40 SWAP1 KECCAK256 SLOAD PUSH20 0xFFFFFFFFFFFFFFFFFFFFFFFFFFFFFFFFFFFFFFFF AND JUMPDEST SWAP2 SWAP1 POP JUMP JUMPDEST PUSH1 0x8 PUSH1 0x20 MSTORE PUSH1 0x0 SWAP1 DUP2 MSTORE PUSH1 0x40 SWAP1 KECCAK256 SLOAD PUSH1 0xFF AND DUP2 JUMP JUMPDEST PUSH2 0xF29 PUSH2 0x3A79 JUMP JUMPDEST PUSH2 0xF34 DUP5 DUP5 DUP5 PUSH2 0x1A89 JUMP JUMPDEST PUSH1 0x20 DUP2 ADD MLOAD SWAP1 SWAP2 POP DUP4 EQ PUSH2 0xF74 JUMPI PUSH1 0x40 MLOAD PUSH32 0x8C379A000000000000000000000000000000000000000000000000000000000 DUP2 MSTORE PUSH1 0x4 ADD PUSH2 0x8CA SWAP1 PUSH2 0x4C92 JUMP JUMPDEST SWAP4 SWAP3 POP POP POP JUMP JUMPDEST PUSH1 0x0 PUSH2 0xF85 PUSH2 0x24A8 JUMP JUMPDEST PUSH20 0xFFFFFFFFFFFFFFFFFFFFFFFFFFFFFFFFFFFFFFFF DUP2 DUP2 AND PUSH1 0x0 DUP2 DUP2 MSTORE PUSH1 0x7 PUSH1 0x20 SWAP1 DUP2 MSTORE PUSH1 0x40 DUP1 DUP4 KECCAK256 SWAP5 DUP10 AND DUP1 DUP5 MSTORE SWAP5 SWAP1 SWAP2 MSTORE SWAP1 DUP2 SWAP1 KECCAK256 DUP1 SLOAD PUSH32 0xFFFFFFFFFFFFFFFFFFFFFFFFFFFFFFFFFFFFFFFFFFFFFFFFFFFFFFFFFFFFFF00 AND DUP8 ISZERO ISZERO OR SWAP1 SSTORE MLOAD SWAP3 SWAP4 POP SWAP1 SWAP2 PUSH32 0xA8656E308026EEABCE8F0BC18048433252318AB80AC79DA0B3D3D8697DFBA891 SWAP1 PUSH2 0x1019 SWAP1 DUP7 SWAP1 PUSH2 0x4A9A JUMP JUMPDEST PUSH1 0x40 MLOAD DUP1 SWAP2 SUB SWAP1 LOG3 POP POP POP JUMP JUMPDEST PUSH1 0x7 PUSH1 0x20 SWAP1 DUP2 MSTORE PUSH1 0x0 SWAP3 DUP4 MSTORE PUSH1 0x40 DUP1 DUP5 KECCAK256 SWAP1 SWAP2 MSTORE SWAP1 DUP3 MSTORE SWAP1 KECCAK256 SLOAD PUSH1 0xFF AND DUP2 JUMP JUMPDEST PUSH2 0x104E PUSH2 0x3A79 JUMP JUMPDEST PUSH1 0x60 PUSH1 0x0 DUP1 PUSH2 0x105B PUSH2 0x3A79 JUMP JUMPDEST DUP8 PUSH1 0x0 DUP2 MLOAD DUP2 LT ISZERO ISZERO PUSH2 0x106A JUMPI INVALID JUMPDEST SWAP1 PUSH1 0x20 ADD SWAP1 PUSH1 0x20 MUL ADD MLOAD PUSH2 0x160 ADD MLOAD SWAP4 POP PUSH1 0x0 SWAP3 POP JUMPDEST DUP8 MLOAD DUP4 LT ISZERO PUSH2 0x110C JUMPI DUP4 DUP9 DUP5 DUP2 MLOAD DUP2 LT ISZERO ISZERO PUSH2 0x1098 JUMPI INVALID JUMPDEST SWAP1 PUSH1 0x20 ADD SWAP1 PUSH1 0x20 MUL ADD MLOAD PUSH2 0x160 ADD DUP2 SWAP1 MSTORE POP PUSH2 0x10B8 DUP8 DUP7 PUSH1 0x20 ADD MLOAD PUSH2 0x2ABA JUMP JUMPDEST SWAP2 POP PUSH2 0x10E4 DUP9 DUP5 DUP2 MLOAD DUP2 LT ISZERO ISZERO PUSH2 0x10CB JUMPI INVALID JUMPDEST SWAP1 PUSH1 0x20 ADD SWAP1 PUSH1 0x20 MUL ADD MLOAD DUP4 DUP9 DUP7 DUP2 MLOAD DUP2 LT ISZERO ISZERO PUSH2 0x813 JUMPI INVALID JUMPDEST SWAP1 POP PUSH2 0x10F0 DUP6 DUP3 PUSH2 0x2446 JUMP JUMPDEST DUP7 DUP6 PUSH1 0x20 ADD MLOAD EQ ISZERO PUSH2 0x1101 JUMPI PUSH2 0x110C JUMP JUMPDEST PUSH1 0x1 SWAP1 SWAP3 ADD SWAP2 PUSH2 0x1080 JUMP JUMPDEST POP POP POP POP SWAP4 SWAP3 POP POP POP JUMP JUMPDEST PUSH1 0x6 PUSH1 0x20 SWAP1 DUP2 MSTORE PUSH1 0x0 SWAP3 DUP4 MSTORE PUSH1 0x40 DUP1 DUP5 KECCAK256 SWAP1 SWAP2 MSTORE SWAP1 DUP3 MSTORE SWAP1 KECCAK256 SLOAD PUSH1 0xFF AND DUP2 JUMP JUMPDEST PUSH1 0x2 SLOAD PUSH20 0xFFFFFFFFFFFFFFFFFFFFFFFFFFFFFFFFFFFFFFFF AND DUP2 JUMP JUMPDEST PUSH1 0x0 DUP1 PUSH1 0x0 DUP1 PUSH1 0x0 DUP1 PUSH1 0x0 DUP1 PUSH1 0x0 DUP10 MLOAD GT ISZERO ISZERO PUSH2 0x119C JUMPI PUSH1 0x40 MLOAD PUSH32 0x8C379A000000000000000000000000000000000000000000000000000000000 DUP2 MSTORE PUSH1 0x4 ADD PUSH2 0x8CA SWAP1 PUSH2 0x4C62 JUMP JUMPDEST PUSH2 0x11A5 DUP10 PUSH2 0x2ACC JUMP JUMPDEST PUSH32 0x100000000000000000000000000000000000000000000000000000000000000 SWAP1 DIV SWAP7 POP PUSH1 0x9 PUSH1 0xFF DUP9 AND LT PUSH2 0x1207 JUMPI PUSH1 0x40 MLOAD PUSH32 0x8C379A000000000000000000000000000000000000000000000000000000000 DUP2 MSTORE PUSH1 0x4 ADD PUSH2 0x8CA SWAP1 PUSH2 0x4BB2 JUMP JUMPDEST DUP7 PUSH1 0xFF AND PUSH1 0x9 DUP2 GT ISZERO PUSH2 0x1216 JUMPI INVALID JUMPDEST SWAP6 POP PUSH1 0x0 DUP7 PUSH1 0x9 DUP2 GT ISZERO PUSH2 0x1226 JUMPI INVALID JUMPDEST EQ ISZERO PUSH2 0x125E JUMPI PUSH1 0x40 MLOAD PUSH32 0x8C379A000000000000000000000000000000000000000000000000000000000 DUP2 MSTORE PUSH1 0x4 ADD PUSH2 0x8CA SWAP1 PUSH2 0x4C52 JUMP JUMPDEST PUSH1 0x1 DUP7 PUSH1 0x9 DUP2 GT ISZERO PUSH2 0x126C JUMPI INVALID JUMPDEST EQ ISZERO PUSH2 0x12B4 JUMPI DUP9 MLOAD ISZERO PUSH2 0x12AB JUMPI PUSH1 0x40 MLOAD PUSH32 0x8C379A000000000000000000000000000000000000000000000000000000000 DUP2 MSTORE PUSH1 0x4 ADD PUSH2 0x8CA SWAP1 PUSH2 0x4D12 JUMP JUMPDEST PUSH1 0x0 SWAP8 POP PUSH2 0x196B JUMP JUMPDEST PUSH1 0x2 DUP7 PUSH1 0x9 DUP2 GT ISZERO PUSH2 0x12C2 JUMPI INVALID JUMPDEST EQ ISZERO PUSH2 0x13FD JUMPI DUP9 MLOAD PUSH1 0x41 EQ PUSH2 0x1303 JUMPI PUSH1 0x40 MLOAD PUSH32 0x8C379A000000000000000000000000000000000000000000000000000000000 DUP2 MSTORE PUSH1 0x4 ADD PUSH2 0x8CA SWAP1 PUSH2 0x4B72 JUMP JUMPDEST DUP9 PUSH1 0x0 DUP2 MLOAD DUP2 LT ISZERO ISZERO PUSH2 0x1312 JUMPI INVALID JUMPDEST ADD PUSH1 0x20 ADD MLOAD PUSH32 0x100000000000000000000000000000000000000000000000000000000000000 SWAP1 DUP2 SWAP1 DIV DUP2 MUL DIV SWAP5 POP PUSH2 0x1352 DUP10 PUSH1 0x1 PUSH4 0xFFFFFFFF PUSH2 0x2B90 AND JUMP JUMPDEST SWAP4 POP PUSH2 0x1365 DUP10 PUSH1 0x21 PUSH4 0xFFFFFFFF PUSH2 0x2B90 AND JUMP JUMPDEST SWAP3 POP PUSH1 0x1 DUP12 DUP7 DUP7 DUP7 PUSH1 0x40 MLOAD PUSH1 0x0 DUP2 MSTORE PUSH1 0x20 ADD PUSH1 0x40 MSTORE PUSH1 0x40 MLOAD PUSH2 0x138A SWAP5 SWAP4 SWAP3 SWAP2 SWAP1 PUSH2 0x4B03 JUMP JUMPDEST PUSH1 0x20 PUSH1 0x40 MLOAD PUSH1 0x20 DUP2 SUB SWAP1 DUP1 DUP5 SUB SWAP1 PUSH1 0x0 DUP7 GAS CALL ISZERO DUP1 ISZERO PUSH2 0x13AE JUMPI RETURNDATASIZE PUSH1 0x0 DUP1 RETURNDATACOPY RETURNDATASIZE PUSH1 0x0 REVERT JUMPDEST POP POP PUSH1 0x40 MLOAD PUSH32 0xFFFFFFFFFFFFFFFFFFFFFFFFFFFFFFFFFFFFFFFFFFFFFFFFFFFFFFFFFFFFFFE0 ADD MLOAD PUSH20 0xFFFFFFFFFFFFFFFFFFFFFFFFFFFFFFFFFFFFFFFF DUP13 DUP2 AND SWAP1 DUP3 AND EQ SWAP10 POP SWAP3 POP PUSH2 0x196B SWAP1 POP JUMP JUMPDEST PUSH1 0x3 DUP7 PUSH1 0x9 DUP2 GT ISZERO PUSH2 0x140B JUMPI INVALID JUMPDEST EQ ISZERO PUSH2 0x15B1 JUMPI DUP9 MLOAD PUSH1 0x41 EQ PUSH2 0x144C JUMPI PUSH1 0x40 MLOAD PUSH32 0x8C379A000000000000000000000000000000000000000000000000000000000 DUP2 MSTORE PUSH1 0x4 ADD PUSH2 0x8CA SWAP1 PUSH2 0x4B72 JUMP JUMPDEST DUP9 PUSH1 0x0 DUP2 MLOAD DUP2 LT ISZERO ISZERO PUSH2 0x145B JUMPI INVALID JUMPDEST ADD PUSH1 0x20 ADD MLOAD PUSH32 0x100000000000000000000000000000000000000000000000000000000000000 SWAP1 DUP2 SWAP1 DIV DUP2 MUL DIV SWAP5 POP PUSH2 0x149B DUP10 PUSH1 0x1 PUSH4 0xFFFFFFFF PUSH2 0x2B90 AND JUMP JUMPDEST SWAP4 POP PUSH2 0x14AE DUP10 PUSH1 0x21 PUSH4 0xFFFFFFFF PUSH2 0x2B90 AND JUMP JUMPDEST SWAP3 POP PUSH1 0x1 DUP12 PUSH1 0x40 MLOAD PUSH1 0x20 ADD DUP1 DUP1 PUSH32 0x19457468657265756D205369676E6564204D6573736167653A0A333200000000 DUP2 MSTORE POP PUSH1 0x1C ADD DUP3 PUSH1 0x0 NOT AND PUSH1 0x0 NOT AND DUP2 MSTORE PUSH1 0x20 ADD SWAP2 POP POP PUSH1 0x40 MLOAD PUSH1 0x20 DUP2 DUP4 SUB SUB DUP2 MSTORE SWAP1 PUSH1 0x40 MSTORE PUSH1 0x40 MLOAD DUP1 DUP3 DUP1 MLOAD SWAP1 PUSH1 0x20 ADD SWAP1 DUP1 DUP4 DUP4 JUMPDEST PUSH1 0x20 DUP4 LT PUSH2 0x154F JUMPI DUP1 MLOAD DUP3 MSTORE PUSH32 0xFFFFFFFFFFFFFFFFFFFFFFFFFFFFFFFFFFFFFFFFFFFFFFFFFFFFFFFFFFFFFFE0 SWAP1 SWAP3 ADD SWAP2 PUSH1 0x20 SWAP2 DUP3 ADD SWAP2 ADD PUSH2 0x1512 JUMP JUMPDEST MLOAD DUP2 MLOAD PUSH1 0x20 SWAP4 DUP5 SUB PUSH2 0x100 EXP PUSH32 0xFFFFFFFFFFFFFFFFFFFFFFFFFFFFFFFFFFFFFFFFFFFFFFFFFFFFFFFFFFFFFFFF ADD DUP1 NOT SWAP1 SWAP3 AND SWAP2 AND OR SWAP1 MSTORE PUSH1 0x40 DUP1 MLOAD SWAP3 SWAP1 SWAP5 ADD DUP3 SWAP1 SUB DUP3 KECCAK256 PUSH1 0x0 DUP4 MSTORE SWAP2 ADD SWAP3 DUP4 SWAP1 MSTORE PUSH2 0x138A SWAP5 POP SWAP3 POP DUP10 SWAP2 DUP10 SWAP2 POP DUP9 SWAP1 PUSH2 0x4B03 JUMP JUMPDEST PUSH1 0x4 DUP7 PUSH1 0x9 DUP2 GT ISZERO PUSH2 0x15BF JUMPI INVALID JUMPDEST EQ ISZERO PUSH2 0x161E JUMPI DUP9 MLOAD ISZERO PUSH2 0x15FE JUMPI PUSH1 0x40 MLOAD PUSH32 0x8C379A000000000000000000000000000000000000000000000000000000000 DUP2 MSTORE PUSH1 0x4 ADD PUSH2 0x8CA SWAP1 PUSH2 0x4D12 JUMP JUMPDEST PUSH20 0xFFFFFFFFFFFFFFFFFFFFFFFFFFFFFFFFFFFFFFFF DUP11 AND CALLER EQ SWAP8 POP PUSH2 0x196B JUMP JUMPDEST PUSH1 0x5 DUP7 PUSH1 0x9 DUP2 GT ISZERO PUSH2 0x162C JUMPI INVALID JUMPDEST EQ ISZERO PUSH2 0x16DF JUMPI PUSH1 0x40 MLOAD PUSH32 0x1626BA7E00000000000000000000000000000000000000000000000000000000 DUP2 MSTORE PUSH20 0xFFFFFFFFFFFFFFFFFFFFFFFFFFFFFFFFFFFFFFFF DUP12 AND SWAP1 PUSH4 0x1626BA7E SWAP1 PUSH2 0x1686 SWAP1 DUP15 SWAP1 DUP14 SWAP1 PUSH1 0x4 ADD PUSH2 0x4AE3 JUMP JUMPDEST PUSH1 0x20 PUSH1 0x40 MLOAD DUP1 DUP4 SUB DUP2 PUSH1 0x0 DUP8 DUP1 EXTCODESIZE ISZERO DUP1 ISZERO PUSH2 0x16A0 JUMPI PUSH1 0x0 DUP1 REVERT JUMPDEST POP GAS CALL ISZERO DUP1 ISZERO PUSH2 0x16B4 JUMPI RETURNDATASIZE PUSH1 0x0 DUP1 RETURNDATACOPY RETURNDATASIZE PUSH1 0x0 REVERT JUMPDEST POP POP POP POP PUSH1 0x40 MLOAD RETURNDATASIZE PUSH1 0x1F NOT PUSH1 0x1F DUP3 ADD AND DUP3 ADD DUP1 PUSH1 0x40 MSTORE POP PUSH2 0x16D8 SWAP2 SWAP1 DUP2 ADD SWAP1 PUSH2 0x3FED JUMP JUMPDEST SWAP8 POP PUSH2 0x196B JUMP JUMPDEST PUSH1 0x6 DUP7 PUSH1 0x9 DUP2 GT ISZERO PUSH2 0x16ED JUMPI INVALID JUMPDEST EQ ISZERO PUSH2 0x179A JUMPI PUSH2 0x16FC DUP10 PUSH2 0x2BDB JUMP JUMPDEST PUSH20 0xFFFFFFFFFFFFFFFFFFFFFFFFFFFFFFFFFFFFFFFF DUP1 DUP13 AND PUSH1 0x0 SWAP1 DUP2 MSTORE PUSH1 0x7 PUSH1 0x20 SWAP1 DUP2 MSTORE PUSH1 0x40 DUP1 DUP4 KECCAK256 SWAP4 DUP6 AND DUP4 MSTORE SWAP3 SWAP1 MSTORE KECCAK256 SLOAD SWAP1 SWAP2 POP PUSH1 0xFF AND ISZERO ISZERO PUSH2 0x1744 JUMPI PUSH1 0x0 SWAP8 POP PUSH2 0x196B JUMP JUMPDEST PUSH1 0x40 MLOAD PUSH32 0x9363470200000000000000000000000000000000000000000000000000000000 DUP2 MSTORE PUSH20 0xFFFFFFFFFFFFFFFFFFFFFFFFFFFFFFFFFFFFFFFF DUP3 AND SWAP1 PUSH4 0x93634702 SWAP1 PUSH2 0x1686 SWAP1 DUP15 SWAP1 DUP15 SWAP1 DUP15 SWAP1 PUSH1 0x4 ADD PUSH2 0x4AB6 JUMP JUMPDEST PUSH1 0x7 DUP7 PUSH1 0x9 DUP2 GT ISZERO PUSH2 0x17A8 JUMPI INVALID JUMPDEST EQ ISZERO PUSH2 0x17E8 JUMPI PUSH1 0x0 DUP12 DUP2 MSTORE PUSH1 0x6 PUSH1 0x20 SWAP1 DUP2 MSTORE PUSH1 0x40 DUP1 DUP4 KECCAK256 PUSH20 0xFFFFFFFFFFFFFFFFFFFFFFFFFFFFFFFFFFFFFFFF DUP15 AND DUP5 MSTORE SWAP1 SWAP2 MSTORE SWAP1 KECCAK256 SLOAD PUSH1 0xFF AND SWAP8 POP PUSH2 0x196B JUMP JUMPDEST PUSH1 0x8 DUP7 PUSH1 0x9 DUP2 GT ISZERO PUSH2 0x17F6 JUMPI INVALID JUMPDEST EQ ISZERO PUSH2 0x1939 JUMPI DUP9 MLOAD PUSH1 0x41 EQ PUSH2 0x1837 JUMPI PUSH1 0x40 MLOAD PUSH32 0x8C379A000000000000000000000000000000000000000000000000000000000 DUP2 MSTORE PUSH1 0x4 ADD PUSH2 0x8CA SWAP1 PUSH2 0x4B72 JUMP JUMPDEST DUP9 PUSH1 0x0 DUP2 MLOAD DUP2 LT ISZERO ISZERO PUSH2 0x1846 JUMPI INVALID JUMPDEST ADD PUSH1 0x20 ADD MLOAD PUSH32 0x100000000000000000000000000000000000000000000000000000000000000 SWAP1 DUP2 SWAP1 DIV DUP2 MUL DIV SWAP5 POP PUSH2 0x1886 DUP10 PUSH1 0x1 PUSH4 0xFFFFFFFF PUSH2 0x2B90 AND JUMP JUMPDEST SWAP4 POP PUSH2 0x1899 DUP10 PUSH1 0x21 PUSH4 0xFFFFFFFF PUSH2 0x2B90 AND JUMP JUMPDEST SWAP3 POP PUSH1 0x1 DUP12 PUSH1 0x40 MLOAD PUSH1 0x20 ADD DUP1 DUP1 PUSH32 0x19457468657265756D205369676E6564204D6573736167653A0A200000000000 DUP2 MSTORE POP PUSH1 0x1B ADD DUP3 PUSH1 0x0 NOT AND PUSH1 0x0 NOT AND DUP2 MSTORE PUSH1 0x20 ADD SWAP2 POP POP PUSH1 0x40 MLOAD PUSH1 0x20 DUP2 DUP4 SUB SUB DUP2 MSTORE SWAP1 PUSH1 0x40 MSTORE PUSH1 0x40 MLOAD DUP1 DUP3 DUP1 MLOAD SWAP1 PUSH1 0x20 ADD SWAP1 DUP1 DUP4 DUP4 PUSH1 0x20 DUP4 LT PUSH2 0x154F JUMPI DUP1 MLOAD DUP3 MSTORE PUSH32 0xFFFFFFFFFFFFFFFFFFFFFFFFFFFFFFFFFFFFFFFFFFFFFFFFFFFFFFFFFFFFFFE0 SWAP1 SWAP3 ADD SWAP2 PUSH1 0x20 SWAP2 DUP3 ADD SWAP2 ADD PUSH2 0x1512 JUMP JUMPDEST PUSH1 0x40 MLOAD PUSH32 0x8C379A000000000000000000000000000000000000000000000000000000000 DUP2 MSTORE PUSH1 0x4 ADD PUSH2 0x8CA SWAP1 PUSH2 0x4BB2 JUMP JUMPDEST POP POP POP POP POP POP POP SWAP4 SWAP3 POP POP POP JUMP JUMPDEST PUSH2 0x1981 PUSH2 0x3A79 JUMP JUMPDEST PUSH1 0x60 PUSH1 0x0 DUP1 PUSH1 0x0 PUSH2 0x1990 PUSH2 0x3A79 JUMP JUMPDEST DUP9 PUSH1 0x0 DUP2 MLOAD DUP2 LT ISZERO ISZERO PUSH2 0x199F JUMPI INVALID JUMPDEST SWAP1 PUSH1 0x20 ADD SWAP1 PUSH1 0x20 MUL ADD MLOAD PUSH2 0x140 ADD MLOAD SWAP5 POP PUSH1 0x0 SWAP4 POP JUMPDEST DUP9 MLOAD DUP5 LT ISZERO PUSH2 0x1A7D JUMPI DUP5 DUP10 DUP6 DUP2 MLOAD DUP2 LT ISZERO ISZERO PUSH2 0x19CD JUMPI INVALID JUMPDEST PUSH1 0x20 SWAP1 DUP2 MUL SWAP1 SWAP2 ADD ADD MLOAD PUSH2 0x140 ADD MSTORE DUP6 MLOAD PUSH2 0x19E9 SWAP1 DUP10 SWAP1 PUSH2 0x2ABA JUMP JUMPDEST SWAP3 POP PUSH2 0x1A2C DUP10 DUP6 DUP2 MLOAD DUP2 LT ISZERO ISZERO PUSH2 0x19FC JUMPI INVALID JUMPDEST SWAP1 PUSH1 0x20 ADD SWAP1 PUSH1 0x20 MUL ADD MLOAD PUSH1 0xA0 ADD MLOAD DUP11 DUP7 DUP2 MLOAD DUP2 LT ISZERO ISZERO PUSH2 0x1A18 JUMPI INVALID JUMPDEST SWAP1 PUSH1 0x20 ADD SWAP1 PUSH1 0x20 MUL ADD MLOAD PUSH1 0x80 ADD MLOAD DUP6 PUSH2 0x2C54 JUMP JUMPDEST SWAP2 POP PUSH2 0x1A58 DUP10 DUP6 DUP2 MLOAD DUP2 LT ISZERO ISZERO PUSH2 0x1A3F JUMPI INVALID JUMPDEST SWAP1 PUSH1 0x20 ADD SWAP1 PUSH1 0x20 MUL ADD MLOAD DUP4 DUP10 DUP8 DUP2 MLOAD DUP2 LT ISZERO ISZERO PUSH2 0xE98 JUMPI INVALID JUMPDEST SWAP1 POP PUSH2 0x1A64 DUP7 DUP3 PUSH2 0x2446 JUMP JUMPDEST DUP6 MLOAD DUP9 EQ ISZERO PUSH2 0x1A72 JUMPI PUSH2 0x1A7D JUMP JUMPDEST PUSH1 0x1 SWAP1 SWAP4 ADD SWAP3 PUSH2 0x19B5 JUMP JUMPDEST POP POP POP POP POP SWAP4 SWAP3 POP POP POP JUMP JUMPDEST PUSH2 0x1A91 PUSH2 0x3A79 JUMP JUMPDEST PUSH2 0x1A99 PUSH2 0x3AD1 JUMP JUMPDEST PUSH1 0x0 DUP1 PUSH1 0x0 PUSH2 0x1AA7 DUP9 PUSH2 0x1FB3 JUMP JUMPDEST SWAP4 POP PUSH2 0x1AB1 PUSH2 0x24A8 JUMP JUMPDEST SWAP3 POP PUSH2 0x1AC5 DUP9 PUSH1 0xA0 ADD MLOAD DUP6 PUSH1 0x40 ADD MLOAD PUSH2 0x2ABA JUMP JUMPDEST SWAP2 POP PUSH2 0x1AD1 DUP8 DUP4 PUSH2 0x2C71 JUMP JUMPDEST SWAP1 POP PUSH2 0x1AE1 DUP9 DUP6 DUP6 DUP11 DUP6 DUP12 PUSH2 0x2611 JUMP JUMPDEST PUSH2 0x1AEB DUP9 DUP3 PUSH2 0x2C87 JUMP JUMPDEST SWAP5 POP PUSH2 0x1B02 DUP9 DUP5 DUP7 PUSH1 0x20 ADD MLOAD DUP8 PUSH1 0x40 ADD MLOAD DUP10 PUSH2 0x282E JUMP JUMPDEST PUSH2 0x110C DUP9 DUP5 DUP8 PUSH2 0x2CF1 JUMP JUMPDEST PUSH1 0x9 SLOAD PUSH1 0x0 SWAP1 PUSH20 0xFFFFFFFFFFFFFFFFFFFFFFFFFFFFFFFFFFFFFFFF AND ISZERO PUSH2 0x1B60 JUMPI PUSH1 0x40 MLOAD PUSH32 0x8C379A000000000000000000000000000000000000000000000000000000000 DUP2 MSTORE PUSH1 0x4 ADD PUSH2 0x8CA SWAP1 PUSH2 0x4CA2 JUMP JUMPDEST PUSH2 0x1BA3 PUSH2 0x1B9E DUP9 DUP9 DUP9 DUP9 DUP1 DUP1 PUSH1 0x1F ADD PUSH1 0x20 DUP1 SWAP2 DIV MUL PUSH1 0x20 ADD PUSH1 0x40 MLOAD SWAP1 DUP2 ADD PUSH1 0x40 MSTORE DUP1 SWAP4 SWAP3 SWAP2 SWAP1 DUP2 DUP2 MSTORE PUSH1 0x20 ADD DUP4 DUP4 DUP1 DUP3 DUP5 CALLDATACOPY POP PUSH2 0x2E06 SWAP5 POP POP POP POP POP JUMP JUMPDEST PUSH2 0x3047 JUMP JUMPDEST PUSH1 0x0 DUP2 DUP2 MSTORE PUSH1 0x8 PUSH1 0x20 MSTORE PUSH1 0x40 SWAP1 KECCAK256 SLOAD SWAP1 SWAP2 POP PUSH1 0xFF AND ISZERO PUSH2 0x1BEF JUMPI PUSH1 0x40 MLOAD PUSH32 0x8C379A000000000000000000000000000000000000000000000000000000000 DUP2 MSTORE PUSH1 0x4 ADD PUSH2 0x8CA SWAP1 PUSH2 0x4BE2 JUMP JUMPDEST PUSH20 0xFFFFFFFFFFFFFFFFFFFFFFFFFFFFFFFFFFFFFFFF DUP7 AND CALLER EQ PUSH2 0x1CC0 JUMPI PUSH2 0x1C47 DUP2 DUP8 DUP6 DUP6 DUP1 DUP1 PUSH1 0x1F ADD PUSH1 0x20 DUP1 SWAP2 DIV MUL PUSH1 0x20 ADD PUSH1 0x40 MLOAD SWAP1 DUP2 ADD PUSH1 0x40 MSTORE DUP1 SWAP4 SWAP3 SWAP2 SWAP1 DUP2 DUP2 MSTORE PUSH1 0x20 ADD DUP4 DUP4 DUP1 DUP3 DUP5 CALLDATACOPY POP PUSH2 0x1153 SWAP5 POP POP POP POP POP JUMP JUMPDEST ISZERO ISZERO PUSH2 0x1C7F JUMPI PUSH1 0x40 MLOAD PUSH32 0x8C379A000000000000000000000000000000000000000000000000000000000 DUP2 MSTORE PUSH1 0x4 ADD PUSH2 0x8CA SWAP1 PUSH2 0x4D02 JUMP JUMPDEST PUSH1 0x9 DUP1 SLOAD PUSH32 0xFFFFFFFFFFFFFFFFFFFFFFFF0000000000000000000000000000000000000000 AND PUSH20 0xFFFFFFFFFFFFFFFFFFFFFFFFFFFFFFFFFFFFFFFF DUP9 AND OR SWAP1 SSTORE JUMPDEST PUSH1 0x0 DUP2 DUP2 MSTORE PUSH1 0x8 PUSH1 0x20 MSTORE PUSH1 0x40 SWAP1 DUP2 SWAP1 KECCAK256 DUP1 SLOAD PUSH32 0xFFFFFFFFFFFFFFFFFFFFFFFFFFFFFFFFFFFFFFFFFFFFFFFFFFFFFFFFFFFFFF00 AND PUSH1 0x1 OR SWAP1 SSTORE MLOAD ADDRESS SWAP1 DUP7 SWAP1 DUP7 SWAP1 DUP1 DUP4 DUP4 DUP1 DUP3 DUP5 CALLDATACOPY DUP3 ADD SWAP2 POP POP SWAP3 POP POP POP PUSH1 0x0 PUSH1 0x40 MLOAD DUP1 DUP4 SUB DUP2 DUP6 GAS DELEGATECALL SWAP2 POP POP ISZERO ISZERO PUSH2 0x1D57 JUMPI PUSH1 0x40 MLOAD PUSH32 0x8C379A000000000000000000000000000000000000000000000000000000000 DUP2 MSTORE PUSH1 0x4 ADD PUSH2 0x8CA SWAP1 PUSH2 0x4C12 JUMP JUMPDEST POP POP PUSH1 0x9 DUP1 SLOAD PUSH32 0xFFFFFFFFFFFFFFFFFFFFFFFF0000000000000000000000000000000000000000 AND SWAP1 SSTORE POP POP POP POP POP JUMP JUMPDEST PUSH1 0x2 SLOAD PUSH1 0x0 SWAP1 DUP2 SWAP1 DUP2 SWAP1 PUSH20 0xFFFFFFFFFFFFFFFFFFFFFFFFFFFFFFFFFFFFFFFF AND CALLER EQ PUSH2 0x1DE0 JUMPI PUSH1 0x40 MLOAD PUSH32 0x8C379A000000000000000000000000000000000000000000000000000000000 DUP2 MSTORE PUSH1 0x4 ADD PUSH2 0x8CA SWAP1 PUSH2 0x4CB2 JUMP JUMPDEST DUP4 SWAP3 POP DUP3 PUSH20 0xFFFFFFFFFFFFFFFFFFFFFFFFFFFFFFFFFFFFFFFF AND PUSH4 0xAE25532E PUSH1 0x40 MLOAD DUP2 PUSH4 0xFFFFFFFF AND PUSH29 0x100000000000000000000000000000000000000000000000000000000 MUL DUP2 MSTORE PUSH1 0x4 ADD PUSH1 0x20 PUSH1 0x40 MLOAD DUP1 DUP4 SUB DUP2 PUSH1 0x0 DUP8 DUP1 EXTCODESIZE ISZERO DUP1 ISZERO PUSH2 0x1E47 JUMPI PUSH1 0x0 DUP1 REVERT JUMPDEST POP GAS CALL ISZERO DUP1 ISZERO PUSH2 0x1E5B JUMPI RETURNDATASIZE PUSH1 0x0 DUP1 RETURNDATACOPY RETURNDATASIZE PUSH1 0x0 REVERT JUMPDEST POP POP POP POP PUSH1 0x40 MLOAD RETURNDATASIZE PUSH1 0x1F NOT PUSH1 0x1F DUP3 ADD AND DUP3 ADD DUP1 PUSH1 0x40 MSTORE POP PUSH2 0x1E7F SWAP2 SWAP1 DUP2 ADD SWAP1 PUSH2 0x4129 JUMP JUMPDEST PUSH32 0xFFFFFFFF00000000000000000000000000000000000000000000000000000000 DUP2 AND PUSH1 0x0 SWAP1 DUP2 MSTORE PUSH1 0xA PUSH1 0x20 MSTORE PUSH1 0x40 SWAP1 KECCAK256 SLOAD SWAP1 SWAP3 POP PUSH20 0xFFFFFFFFFFFFFFFFFFFFFFFFFFFFFFFFFFFFFFFF AND SWAP1 POP DUP1 ISZERO PUSH2 0x1F04 JUMPI PUSH1 0x40 MLOAD PUSH32 0x8C379A000000000000000000000000000000000000000000000000000000000 DUP2 MSTORE PUSH1 0x4 ADD PUSH2 0x8CA SWAP1 PUSH2 0x4B92 JUMP JUMPDEST PUSH32 0xFFFFFFFF00000000000000000000000000000000000000000000000000000000 DUP3 AND PUSH1 0x0 SWAP1 DUP2 MSTORE PUSH1 0xA PUSH1 0x20 MSTORE PUSH1 0x40 SWAP1 DUP2 SWAP1 KECCAK256 DUP1 SLOAD PUSH32 0xFFFFFFFFFFFFFFFFFFFFFFFF0000000000000000000000000000000000000000 AND PUSH20 0xFFFFFFFFFFFFFFFFFFFFFFFFFFFFFFFFFFFFFFFF DUP7 AND OR SWAP1 SSTORE MLOAD PUSH32 0xD2C6B762299C609BDB96520B58A49BFB80186934D4F71A86A367571A15C03194 SWAP1 PUSH2 0x1FA5 SWAP1 DUP5 SWAP1 DUP8 SWAP1 PUSH2 0x4B38 JUMP JUMPDEST PUSH1 0x40 MLOAD DUP1 SWAP2 SUB SWAP1 LOG1 POP POP POP POP JUMP JUMPDEST PUSH2 0x1FBB PUSH2 0x3AD1 JUMP JUMPDEST PUSH2 0x1FC4 DUP3 PUSH2 0x31C7 JUMP JUMPDEST PUSH1 0x20 DUP3 ADD MSTORE PUSH1 0x80 DUP3 ADD MLOAD ISZERO ISZERO PUSH2 0x1FE1 JUMPI PUSH1 0x1 JUMPDEST PUSH1 0xFF AND DUP2 MSTORE PUSH2 0xF07 JUMP JUMPDEST PUSH1 0xA0 DUP3 ADD MLOAD ISZERO ISZERO PUSH2 0x1FF3 JUMPI PUSH1 0x2 PUSH2 0x1FD7 JUMP JUMPDEST PUSH2 0x100 DUP3 ADD MLOAD TIMESTAMP LT PUSH2 0x2006 JUMPI PUSH1 0x4 PUSH2 0x1FD7 JUMP JUMPDEST PUSH1 0x20 DUP1 DUP3 ADD MLOAD PUSH1 0x0 SWAP1 DUP2 MSTORE PUSH1 0x4 SWAP1 SWAP2 MSTORE PUSH1 0x40 SWAP1 KECCAK256 SLOAD PUSH1 0xFF AND ISZERO PUSH2 0x202A JUMPI PUSH1 0x6 PUSH2 0x1FD7 JUMP JUMPDEST PUSH2 0x120 DUP3 ADD MLOAD DUP3 MLOAD PUSH20 0xFFFFFFFFFFFFFFFFFFFFFFFFFFFFFFFFFFFFFFFF SWAP1 DUP2 AND PUSH1 0x0 SWAP1 DUP2 MSTORE PUSH1 0x5 PUSH1 0x20 SWAP1 DUP2 MSTORE PUSH1 0x40 DUP1 DUP4 KECCAK256 PUSH1 0x60 DUP9 ADD MLOAD SWAP1 SWAP5 AND DUP4 MSTORE SWAP3 SWAP1 MSTORE KECCAK256 SLOAD GT ISZERO PUSH2 0x2077 JUMPI PUSH1 0x6 PUSH2 0x1FD7 JUMP JUMPDEST PUSH1 0x20 DUP1 DUP3 ADD MLOAD PUSH1 0x0 SWAP1 DUP2 MSTORE PUSH1 0x3 SWAP1 SWAP2 MSTORE PUSH1 0x40 SWAP1 DUP2 SWAP1 KECCAK256 SLOAD SWAP1 DUP3 ADD DUP2 SWAP1 MSTORE PUSH1 0xA0 DUP4 ADD MLOAD GT PUSH2 0x20A5 JUMPI PUSH1 0x5 PUSH2 0x1FD7 JUMP JUMPDEST PUSH1 0x3 DUP2 MSTORE SWAP2 SWAP1 POP JUMP JUMPDEST PUSH2 0x20B6 PUSH2 0x3AD1 JUMP JUMPDEST PUSH2 0x20BF DUP3 PUSH2 0x1FB3 JUMP JUMPDEST SWAP1 POP PUSH2 0x20CB DUP3 DUP3 PUSH2 0x31D5 JUMP JUMPDEST PUSH2 0xC88 DUP3 DUP3 PUSH1 0x20 ADD MLOAD PUSH2 0x32EC JUMP JUMPDEST PUSH1 0x5 PUSH1 0x20 SWAP1 DUP2 MSTORE PUSH1 0x0 SWAP3 DUP4 MSTORE PUSH1 0x40 DUP1 DUP5 KECCAK256 SWAP1 SWAP2 MSTORE SWAP1 DUP3 MSTORE SWAP1 KECCAK256 SLOAD DUP2 JUMP JUMPDEST PUSH1 0x0 DUP1 SLOAD PUSH1 0x40 DUP1 MLOAD PUSH1 0x20 PUSH1 0x2 PUSH1 0x1 DUP6 AND ISZERO PUSH2 0x100 MUL PUSH32 0xFFFFFFFFFFFFFFFFFFFFFFFFFFFFFFFFFFFFFFFFFFFFFFFFFFFFFFFFFFFFFFFF ADD SWAP1 SWAP5 AND SWAP4 SWAP1 SWAP4 DIV PUSH1 0x1F DUP2 ADD DUP5 SWAP1 DIV DUP5 MUL DUP3 ADD DUP5 ADD SWAP1 SWAP3 MSTORE DUP2 DUP2 MSTORE SWAP3 SWAP2 DUP4 ADD DUP3 DUP3 DUP1 ISZERO PUSH2 0x219A JUMPI DUP1 PUSH1 0x1F LT PUSH2 0x216F JUMPI PUSH2 0x100 DUP1 DUP4 SLOAD DIV MUL DUP4 MSTORE SWAP2 PUSH1 0x20 ADD SWAP2 PUSH2 0x219A JUMP JUMPDEST DUP3 ADD SWAP2 SWAP1 PUSH1 0x0 MSTORE PUSH1 0x20 PUSH1 0x0 KECCAK256 SWAP1 JUMPDEST DUP2 SLOAD DUP2 MSTORE SWAP1 PUSH1 0x1 ADD SWAP1 PUSH1 0x20 ADD DUP1 DUP4 GT PUSH2 0x217D JUMPI DUP3 SWAP1 SUB PUSH1 0x1F AND DUP3 ADD SWAP2 JUMPDEST POP POP POP POP POP DUP2 JUMP JUMPDEST PUSH2 0x21AA PUSH2 0x3A79 JUMP JUMPDEST PUSH1 0x60 PUSH1 0x0 DUP1 PUSH2 0x21B7 PUSH2 0x3A79 JUMP JUMPDEST DUP8 PUSH1 0x0 DUP2 MLOAD DUP2 LT ISZERO ISZERO PUSH2 0x21C6 JUMPI INVALID JUMPDEST SWAP1 PUSH1 0x20 ADD SWAP1 PUSH1 0x20 MUL ADD MLOAD PUSH2 0x160 ADD MLOAD SWAP4 POP PUSH1 0x0 SWAP3 POP JUMPDEST DUP8 MLOAD DUP4 LT ISZERO PUSH2 0x110C JUMPI DUP4 DUP9 DUP5 DUP2 MLOAD DUP2 LT ISZERO ISZERO PUSH2 0x21F4 JUMPI INVALID JUMPDEST SWAP1 PUSH1 0x20 ADD SWAP1 PUSH1 0x20 MUL ADD MLOAD PUSH2 0x160 ADD DUP2 SWAP1 MSTORE POP PUSH2 0x2214 DUP8 DUP7 PUSH1 0x20 ADD MLOAD PUSH2 0x2ABA JUMP JUMPDEST SWAP2 POP PUSH2 0x2240 DUP9 DUP5 DUP2 MLOAD DUP2 LT ISZERO ISZERO PUSH2 0x2227 JUMPI INVALID JUMPDEST SWAP1 PUSH1 0x20 ADD SWAP1 PUSH1 0x20 MUL ADD MLOAD DUP4 DUP9 DUP7 DUP2 MLOAD DUP2 LT ISZERO ISZERO PUSH2 0xE98 JUMPI INVALID JUMPDEST SWAP1 POP PUSH2 0x224C DUP6 DUP3 PUSH2 0x2446 JUMP JUMPDEST DUP7 DUP6 PUSH1 0x20 ADD MLOAD EQ ISZERO PUSH2 0x225D JUMPI PUSH2 0x110C JUMP JUMPDEST PUSH1 0x1 SWAP1 SWAP3 ADD SWAP2 PUSH2 0x21DC JUMP JUMPDEST PUSH1 0x1 SLOAD DUP2 JUMP JUMPDEST PUSH2 0x2276 PUSH2 0x3A79 JUMP JUMPDEST PUSH1 0x60 PUSH1 0x0 DUP1 PUSH1 0x0 PUSH2 0x2285 PUSH2 0x3A79 JUMP JUMPDEST DUP9 PUSH1 0x0 DUP2 MLOAD DUP2 LT ISZERO ISZERO PUSH2 0x2294 JUMPI INVALID JUMPDEST SWAP1 PUSH1 0x20 ADD SWAP1 PUSH1 0x20 MUL ADD MLOAD PUSH2 0x140 ADD MLOAD SWAP5 POP PUSH1 0x0 SWAP4 POP JUMPDEST DUP9 MLOAD DUP5 LT ISZERO PUSH2 0x1A7D JUMPI DUP5 DUP10 DUP6 DUP2 MLOAD DUP2 LT ISZERO ISZERO PUSH2 0x22C2 JUMPI INVALID JUMPDEST PUSH1 0x20 SWAP1 DUP2 MUL SWAP1 SWAP2 ADD ADD MLOAD PUSH2 0x140 ADD MSTORE DUP6 MLOAD PUSH2 0x22DE SWAP1 DUP10 SWAP1 PUSH2 0x2ABA JUMP JUMPDEST SWAP3 POP PUSH2 0x22F1 DUP10 DUP6 DUP2 MLOAD DUP2 LT ISZERO ISZERO PUSH2 0x19FC JUMPI INVALID JUMPDEST SWAP2 POP PUSH2 0x231D DUP10 DUP6 DUP2 MLOAD DUP2 LT ISZERO ISZERO PUSH2 0x2304 JUMPI INVALID JUMPDEST SWAP1 PUSH1 0x20 ADD SWAP1 PUSH1 0x20 MUL ADD MLOAD DUP4 DUP10 DUP8 DUP2 MLOAD DUP2 LT ISZERO ISZERO PUSH2 0x813 JUMPI INVALID JUMPDEST SWAP1 POP PUSH2 0x2329 DUP7 DUP3 PUSH2 0x2446 JUMP JUMPDEST DUP6 MLOAD DUP9 EQ ISZERO PUSH2 0x2337 JUMPI PUSH2 0x1A7D JUMP JUMPDEST PUSH1 0x1 SWAP1 SWAP4 ADD SWAP3 PUSH2 0x22AA JUMP JUMPDEST PUSH1 0x9 SLOAD PUSH20 0xFFFFFFFFFFFFFFFFFFFFFFFFFFFFFFFFFFFFFFFF AND DUP2 JUMP JUMPDEST PUSH1 0x2 SLOAD PUSH20 0xFFFFFFFFFFFFFFFFFFFFFFFFFFFFFFFFFFFFFFFF AND CALLER EQ PUSH2 0x23AF JUMPI PUSH1 0x40 MLOAD PUSH32 0x8C379A000000000000000000000000000000000000000000000000000000000 DUP2 MSTORE PUSH1 0x4 ADD PUSH2 0x8CA SWAP1 PUSH2 0x4CB2 JUMP JUMPDEST PUSH20 0xFFFFFFFFFFFFFFFFFFFFFFFFFFFFFFFFFFFFFFFF DUP2 AND ISZERO PUSH2 0x240C JUMPI PUSH1 0x2 DUP1 SLOAD PUSH32 0xFFFFFFFFFFFFFFFFFFFFFFFF0000000000000000000000000000000000000000 AND PUSH20 0xFFFFFFFFFFFFFFFFFFFFFFFFFFFFFFFFFFFFFFFF DUP4 AND OR SWAP1 SSTORE JUMPDEST POP JUMP JUMPDEST PUSH1 0x40 DUP1 MLOAD DUP1 DUP3 ADD SWAP1 SWAP2 MSTORE PUSH1 0xB DUP2 MSTORE PUSH32 0x322E302E312D616C706861000000000000000000000000000000000000000000 PUSH1 0x20 DUP3 ADD MSTORE DUP2 JUMP JUMPDEST DUP2 MLOAD DUP2 MLOAD PUSH2 0x2454 SWAP2 SWAP1 PUSH2 0x3393 JUMP JUMPDEST DUP3 MSTORE PUSH1 0x20 DUP1 DUP4 ADD MLOAD SWAP1 DUP3 ADD MLOAD PUSH2 0x246A SWAP2 SWAP1 PUSH2 0x3393 JUMP JUMPDEST PUSH1 0x20 DUP4 ADD MSTORE PUSH1 0x40 DUP1 DUP4 ADD MLOAD SWAP1 DUP3 ADD MLOAD PUSH2 0x2483 SWAP2 SWAP1 PUSH2 0x3393 JUMP JUMPDEST PUSH1 0x40 DUP4 ADD MSTORE PUSH1 0x60 DUP1 DUP4 ADD MLOAD SWAP1 DUP3 ADD MLOAD PUSH2 0x249C SWAP2 SWAP1 PUSH2 0x3393 JUMP JUMPDEST PUSH1 0x60 SWAP1 SWAP3 ADD SWAP2 SWAP1 SWAP2 MSTORE POP JUMP JUMPDEST PUSH1 0x9 SLOAD PUSH1 0x0 SWAP1 DUP2 SWAP1 PUSH20 0xFFFFFFFFFFFFFFFFFFFFFFFFFFFFFFFFFFFFFFFF AND ISZERO PUSH2 0x24E9 JUMPI PUSH1 0x9 SLOAD PUSH20 0xFFFFFFFFFFFFFFFFFFFFFFFFFFFFFFFFFFFFFFFF AND PUSH2 0x24EB JUMP JUMPDEST CALLER JUMPDEST SWAP3 SWAP2 POP POP JUMP JUMPDEST PUSH2 0x2503 DUP3 PUSH1 0xA0 ADD MLOAD DUP3 PUSH1 0xA0 ADD MLOAD PUSH2 0x33A2 JUMP JUMPDEST PUSH2 0x2515 DUP4 PUSH1 0x80 ADD MLOAD DUP4 PUSH1 0x80 ADD MLOAD PUSH2 0x33A2 JUMP JUMPDEST LT ISZERO PUSH2 0xC88 JUMPI PUSH1 0x40 MLOAD PUSH32 0x8C379A000000000000000000000000000000000000000000000000000000000 DUP2 MSTORE PUSH1 0x4 ADD PUSH2 0x8CA SWAP1 PUSH2 0x4CF2 JUMP JUMPDEST PUSH2 0x2555 PUSH2 0x3AA2 JUMP JUMPDEST PUSH1 0x0 DUP1 PUSH1 0x0 DUP1 PUSH2 0x2569 DUP10 PUSH1 0xA0 ADD MLOAD DUP9 PUSH2 0x2ABA JUMP JUMPDEST SWAP4 POP PUSH2 0x2579 DUP9 PUSH1 0xA0 ADD MLOAD DUP8 PUSH2 0x2ABA JUMP JUMPDEST SWAP3 POP PUSH2 0x2589 DUP4 DUP10 PUSH1 0x80 ADD MLOAD PUSH2 0x33A2 JUMP JUMPDEST PUSH2 0x2597 DUP6 DUP11 PUSH1 0xA0 ADD MLOAD PUSH2 0x33A2 JUMP JUMPDEST GT PUSH2 0x25B9 JUMPI DUP4 SWAP2 POP PUSH2 0x25B2 DUP9 PUSH1 0xA0 ADD MLOAD DUP10 PUSH1 0x80 ADD MLOAD DUP5 PUSH2 0x2C54 JUMP JUMPDEST SWAP1 POP PUSH2 0x25D2 JUMP JUMPDEST DUP3 SWAP1 POP PUSH2 0x25CF DUP9 PUSH1 0x80 ADD MLOAD DUP10 PUSH1 0xA0 ADD MLOAD DUP4 PUSH2 0x2C54 JUMP JUMPDEST SWAP2 POP JUMPDEST PUSH2 0x25DC DUP10 DUP4 PUSH2 0x2C87 JUMP JUMPDEST DUP6 MSTORE PUSH2 0x25E8 DUP9 DUP3 PUSH2 0x2C87 JUMP JUMPDEST PUSH1 0x20 DUP1 DUP8 ADD DUP3 SWAP1 MSTORE DUP7 MLOAD MLOAD SWAP2 ADD MLOAD PUSH2 0x2600 SWAP2 SWAP1 PUSH2 0x2ABA JUMP JUMPDEST PUSH1 0x40 DUP7 ADD MSTORE POP POP POP POP SWAP5 SWAP4 POP POP POP POP JUMP JUMPDEST DUP5 MLOAD PUSH1 0xFF AND PUSH1 0x3 EQ PUSH2 0x264F JUMPI PUSH1 0x40 MLOAD PUSH32 0x8C379A000000000000000000000000000000000000000000000000000000000 DUP2 MSTORE PUSH1 0x4 ADD PUSH2 0x8CA SWAP1 PUSH2 0x4CD2 JUMP JUMPDEST DUP3 ISZERO ISZERO PUSH2 0x2688 JUMPI PUSH1 0x40 MLOAD PUSH32 0x8C379A000000000000000000000000000000000000000000000000000000000 DUP2 MSTORE PUSH1 0x4 ADD PUSH2 0x8CA SWAP1 PUSH2 0x4C22 JUMP JUMPDEST PUSH1 0x60 DUP7 ADD MLOAD PUSH20 0xFFFFFFFFFFFFFFFFFFFFFFFFFFFFFFFFFFFFFFFF AND ISZERO PUSH2 0x26FB JUMPI PUSH1 0x60 DUP7 ADD MLOAD PUSH20 0xFFFFFFFFFFFFFFFFFFFFFFFFFFFFFFFFFFFFFFFF AND CALLER EQ PUSH2 0x26FB JUMPI PUSH1 0x40 MLOAD PUSH32 0x8C379A000000000000000000000000000000000000000000000000000000000 DUP2 MSTORE PUSH1 0x4 ADD PUSH2 0x8CA SWAP1 PUSH2 0x4CE2 JUMP JUMPDEST PUSH1 0x20 DUP7 ADD MLOAD PUSH20 0xFFFFFFFFFFFFFFFFFFFFFFFFFFFFFFFFFFFFFFFF AND ISZERO PUSH2 0x2786 JUMPI DUP4 PUSH20 0xFFFFFFFFFFFFFFFFFFFFFFFFFFFFFFFFFFFFFFFF AND DUP7 PUSH1 0x20 ADD MLOAD PUSH20 0xFFFFFFFFFFFFFFFFFFFFFFFFFFFFFFFFFFFFFFFF AND EQ ISZERO ISZERO PUSH2 0x2786 JUMPI PUSH1 0x40 MLOAD PUSH32 0x8C379A000000000000000000000000000000000000000000000000000000000 DUP2 MSTORE PUSH1 0x4 ADD PUSH2 0x8CA SWAP1 PUSH2 0x4B82 JUMP JUMPDEST PUSH1 0x40 DUP6 ADD MLOAD ISZERO ISZERO PUSH2 0x27DC JUMPI PUSH2 0x27A4 DUP6 PUSH1 0x20 ADD MLOAD DUP8 PUSH1 0x0 ADD MLOAD DUP4 PUSH2 0x1153 JUMP JUMPDEST ISZERO ISZERO PUSH2 0x27DC JUMPI PUSH1 0x40 MLOAD PUSH32 0x8C379A000000000000000000000000000000000000000000000000000000000 DUP2 MSTORE PUSH1 0x4 ADD PUSH2 0x8CA SWAP1 PUSH2 0x4BC2 JUMP JUMPDEST PUSH2 0x27EF DUP3 DUP8 PUSH1 0xA0 ADD MLOAD DUP9 PUSH1 0x80 ADD MLOAD PUSH2 0x33C6 JUMP JUMPDEST ISZERO PUSH2 0x2826 JUMPI PUSH1 0x40 MLOAD PUSH32 0x8C379A000000000000000000000000000000000000000000000000000000000 DUP2 MSTORE PUSH1 0x4 ADD PUSH2 0x8CA SWAP1 PUSH2 0x4C02 JUMP JUMPDEST POP POP POP POP POP POP JUMP JUMPDEST PUSH2 0x283C DUP3 DUP3 PUSH1 0x20 ADD MLOAD PUSH2 0x3393 JUMP JUMPDEST PUSH1 0x0 DUP5 DUP2 MSTORE PUSH1 0x3 PUSH1 0x20 SWAP1 DUP2 MSTORE PUSH1 0x40 SWAP2 DUP3 SWAP1 KECCAK256 SWAP3 SWAP1 SWAP3 SSTORE DUP7 DUP2 ADD MLOAD DUP8 MLOAD DUP5 MLOAD SWAP4 DUP6 ADD MLOAD DUP6 DUP5 ADD MLOAD PUSH1 0x60 DUP8 ADD MLOAD PUSH2 0x140 DUP13 ADD MLOAD PUSH2 0x160 DUP14 ADD MLOAD SWAP7 MLOAD DUP12 SWAP9 PUSH20 0xFFFFFFFFFFFFFFFFFFFFFFFFFFFFFFFFFFFFFFFF SWAP8 DUP9 AND SWAP9 SWAP8 SWAP1 SWAP7 AND SWAP7 PUSH32 0xBCC4C97732E47D9946F229EDB95F5B6323F601300E4690DE719993F3C371129 SWAP7 PUSH2 0x28CB SWAP7 DUP16 SWAP7 CALLER SWAP7 SWAP3 SWAP6 SWAP2 SWAP5 SWAP1 SWAP4 SWAP1 PUSH2 0x49D9 JUMP JUMPDEST PUSH1 0x40 MLOAD DUP1 SWAP2 SUB SWAP1 LOG4 POP POP POP POP POP JUMP JUMPDEST PUSH1 0x0 DUP1 SLOAD PUSH1 0x40 DUP1 MLOAD PUSH1 0x20 PUSH1 0x1F PUSH1 0x2 PUSH32 0xFFFFFFFFFFFFFFFFFFFFFFFFFFFFFFFFFFFFFFFFFFFFFFFFFFFFFFFFFFFFFFFF PUSH2 0x100 PUSH1 0x1 DUP9 AND ISZERO MUL ADD SWAP1 SWAP6 AND SWAP5 SWAP1 SWAP5 DIV SWAP4 DUP5 ADD DUP2 SWAP1 DIV DUP2 MUL DUP3 ADD DUP2 ADD SWAP1 SWAP3 MSTORE DUP3 DUP2 MSTORE PUSH1 0x60 SWAP4 SWAP1 SWAP3 SWAP1 SWAP2 DUP4 ADD DUP3 DUP3 DUP1 ISZERO PUSH2 0x2984 JUMPI DUP1 PUSH1 0x1F LT PUSH2 0x2959 JUMPI PUSH2 0x100 DUP1 DUP4 SLOAD DIV MUL DUP4 MSTORE SWAP2 PUSH1 0x20 ADD SWAP2 PUSH2 0x2984 JUMP JUMPDEST DUP3 ADD SWAP2 SWAP1 PUSH1 0x0 MSTORE PUSH1 0x20 PUSH1 0x0 KECCAK256 SWAP1 JUMPDEST DUP2 SLOAD DUP2 MSTORE SWAP1 PUSH1 0x1 ADD SWAP1 PUSH1 0x20 ADD DUP1 DUP4 GT PUSH2 0x2967 JUMPI DUP3 SWAP1 SUB PUSH1 0x1F AND DUP3 ADD SWAP2 JUMPDEST POP POP POP POP POP SWAP1 POP PUSH2 0x29AC DUP6 PUSH2 0x140 ADD MLOAD DUP7 PUSH1 0x0 ADD MLOAD DUP7 PUSH1 0x0 ADD MLOAD DUP6 PUSH1 0x20 ADD MLOAD PUSH1 0x20 ADD MLOAD PUSH2 0x3417 JUMP JUMPDEST PUSH2 0x140 DUP5 ADD MLOAD DUP5 MLOAD DUP7 MLOAD DUP5 MLOAD PUSH1 0x20 ADD MLOAD PUSH2 0x29C8 SWAP4 SWAP3 SWAP2 SWAP1 PUSH2 0x3417 JUMP JUMPDEST PUSH2 0x29E1 DUP6 PUSH2 0x140 ADD MLOAD DUP7 PUSH1 0x0 ADD MLOAD DUP6 DUP6 PUSH1 0x40 ADD MLOAD PUSH2 0x3417 JUMP JUMPDEST PUSH2 0x29FD DUP2 DUP7 PUSH1 0x0 ADD MLOAD DUP8 PUSH1 0x40 ADD MLOAD DUP6 PUSH1 0x0 ADD MLOAD PUSH1 0x40 ADD MLOAD PUSH2 0x3417 JUMP JUMPDEST PUSH2 0x2A19 DUP2 DUP6 PUSH1 0x0 ADD MLOAD DUP7 PUSH1 0x40 ADD MLOAD DUP6 PUSH1 0x20 ADD MLOAD PUSH1 0x40 ADD MLOAD PUSH2 0x3417 JUMP JUMPDEST DUP4 PUSH1 0x40 ADD MLOAD PUSH20 0xFFFFFFFFFFFFFFFFFFFFFFFFFFFFFFFFFFFFFFFF AND DUP6 PUSH1 0x40 ADD MLOAD PUSH20 0xFFFFFFFFFFFFFFFFFFFFFFFFFFFFFFFFFFFFFFFF AND EQ ISZERO PUSH2 0x2A83 JUMPI PUSH2 0x2A7E DUP2 DUP5 DUP8 PUSH1 0x40 ADD MLOAD PUSH2 0x2A79 DUP7 PUSH1 0x0 ADD MLOAD PUSH1 0x60 ADD MLOAD DUP8 PUSH1 0x20 ADD MLOAD PUSH1 0x60 ADD MLOAD PUSH2 0x3393 JUMP JUMPDEST PUSH2 0x3417 JUMP JUMPDEST PUSH2 0x2AB3 JUMP JUMPDEST PUSH2 0x2A9B DUP2 DUP5 DUP8 PUSH1 0x40 ADD MLOAD DUP6 PUSH1 0x0 ADD MLOAD PUSH1 0x60 ADD MLOAD PUSH2 0x3417 JUMP JUMPDEST PUSH2 0x2AB3 DUP2 DUP5 DUP7 PUSH1 0x40 ADD MLOAD DUP6 PUSH1 0x20 ADD MLOAD PUSH1 0x60 ADD MLOAD PUSH2 0x3417 JUMP JUMPDEST POP POP POP POP POP JUMP JUMPDEST PUSH1 0x0 DUP3 DUP3 GT ISZERO PUSH2 0x2AC6 JUMPI INVALID JUMPDEST POP SWAP1 SUB SWAP1 JUMP JUMPDEST PUSH1 0x0 DUP1 DUP3 MLOAD GT ISZERO ISZERO PUSH2 0x2B0A JUMPI PUSH1 0x40 MLOAD PUSH32 0x8C379A000000000000000000000000000000000000000000000000000000000 DUP2 MSTORE PUSH1 0x4 ADD PUSH2 0x8CA SWAP1 PUSH2 0x4C42 JUMP JUMPDEST DUP2 MLOAD DUP3 SWAP1 PUSH32 0xFFFFFFFFFFFFFFFFFFFFFFFFFFFFFFFFFFFFFFFFFFFFFFFFFFFFFFFFFFFFFFFF DUP2 ADD SWAP1 DUP2 LT PUSH2 0x2B3A JUMPI INVALID JUMPDEST ADD PUSH1 0x20 ADD MLOAD DUP3 MLOAD PUSH32 0xFFFFFFFFFFFFFFFFFFFFFFFFFFFFFFFFFFFFFFFFFFFFFFFFFFFFFFFFFFFFFFFF ADD SWAP1 SWAP3 MSTORE POP PUSH32 0x100000000000000000000000000000000000000000000000000000000000000 SWAP1 DUP2 SWAP1 DIV MUL SWAP1 JUMP JUMPDEST PUSH1 0x0 DUP2 PUSH1 0x20 ADD DUP4 MLOAD LT ISZERO ISZERO ISZERO PUSH2 0x2BD2 JUMPI PUSH1 0x40 MLOAD PUSH32 0x8C379A000000000000000000000000000000000000000000000000000000000 DUP2 MSTORE PUSH1 0x4 ADD PUSH2 0x8CA SWAP1 PUSH2 0x4BA2 JUMP JUMPDEST POP ADD PUSH1 0x20 ADD MLOAD SWAP1 JUMP JUMPDEST PUSH1 0x0 PUSH1 0x14 DUP3 MLOAD LT ISZERO ISZERO ISZERO PUSH2 0x2C1B JUMPI PUSH1 0x40 MLOAD PUSH32 0x8C379A000000000000000000000000000000000000000000000000000000000 DUP2 MSTORE PUSH1 0x4 ADD PUSH2 0x8CA SWAP1 PUSH2 0x4CC2 JUMP JUMPDEST PUSH2 0x2C29 DUP3 PUSH1 0x14 DUP5 MLOAD SUB PUSH2 0x35A8 JUMP JUMPDEST DUP3 MLOAD PUSH32 0xFFFFFFFFFFFFFFFFFFFFFFFFFFFFFFFFFFFFFFFFFFFFFFFFFFFFFFFFFFFFFFEC ADD SWAP1 SWAP3 MSTORE POP SWAP1 JUMP JUMPDEST PUSH1 0x0 PUSH2 0x2C69 PUSH2 0x2C63 DUP6 DUP5 PUSH2 0x33A2 JUMP JUMPDEST DUP5 PUSH2 0x3609 JUMP JUMPDEST SWAP5 SWAP4 POP POP POP POP JUMP JUMPDEST PUSH1 0x0 DUP2 DUP4 LT PUSH2 0x2C80 JUMPI DUP2 PUSH2 0xF74 JUMP JUMPDEST POP SWAP1 SWAP2 SWAP1 POP JUMP JUMPDEST PUSH2 0x2C8F PUSH2 0x3A79 JUMP JUMPDEST PUSH1 0x20 DUP2 ADD DUP3 SWAP1 MSTORE PUSH1 0xA0 DUP4 ADD MLOAD PUSH1 0x80 DUP5 ADD MLOAD PUSH2 0x2CAB SWAP2 DUP5 SWAP2 PUSH2 0x2C54 JUMP JUMPDEST DUP2 MSTORE PUSH1 0x20 DUP2 ADD MLOAD PUSH1 0xA0 DUP5 ADD MLOAD PUSH1 0xC0 DUP6 ADD MLOAD PUSH2 0x2CC7 SWAP3 SWAP2 SWAP1 PUSH2 0x2C54 JUMP JUMPDEST PUSH1 0x40 DUP3 ADD MSTORE PUSH1 0x20 DUP2 ADD MLOAD PUSH1 0xA0 DUP5 ADD MLOAD PUSH1 0xE0 DUP6 ADD MLOAD PUSH2 0x2CE6 SWAP3 SWAP2 SWAP1 PUSH2 0x2C54 JUMP JUMPDEST PUSH1 0x60 DUP3 ADD MSTORE SWAP3 SWAP2 POP POP JUMP JUMPDEST PUSH1 0x0 DUP1 SLOAD PUSH1 0x40 DUP1 MLOAD PUSH1 0x20 PUSH1 0x1F PUSH1 0x2 PUSH32 0xFFFFFFFFFFFFFFFFFFFFFFFFFFFFFFFFFFFFFFFFFFFFFFFFFFFFFFFFFFFFFFFF PUSH2 0x100 PUSH1 0x1 DUP9 AND ISZERO MUL ADD SWAP1 SWAP6 AND SWAP5 SWAP1 SWAP5 DIV SWAP4 DUP5 ADD DUP2 SWAP1 DIV DUP2 MUL DUP3 ADD DUP2 ADD SWAP1 SWAP3 MSTORE DUP3 DUP2 MSTORE PUSH1 0x60 SWAP4 SWAP1 SWAP3 SWAP1 SWAP2 DUP4 ADD DUP3 DUP3 DUP1 ISZERO PUSH2 0x2D9B JUMPI DUP1 PUSH1 0x1F LT PUSH2 0x2D70 JUMPI PUSH2 0x100 DUP1 DUP4 SLOAD DIV MUL DUP4 MSTORE SWAP2 PUSH1 0x20 ADD SWAP2 PUSH2 0x2D9B JUMP JUMPDEST DUP3 ADD SWAP2 SWAP1 PUSH1 0x0 MSTORE PUSH1 0x20 PUSH1 0x0 KECCAK256 SWAP1 JUMPDEST DUP2 SLOAD DUP2 MSTORE SWAP1 PUSH1 0x1 ADD SWAP1 PUSH1 0x20 ADD DUP1 DUP4 GT PUSH2 0x2D7E JUMPI DUP3 SWAP1 SUB PUSH1 0x1F AND DUP3 ADD SWAP2 JUMPDEST POP POP POP POP POP SWAP1 POP PUSH2 0x2DBB DUP5 PUSH2 0x140 ADD MLOAD DUP6 PUSH1 0x0 ADD MLOAD DUP6 DUP6 PUSH1 0x0 ADD MLOAD PUSH2 0x3417 JUMP JUMPDEST PUSH2 0x2DD4 DUP5 PUSH2 0x160 ADD MLOAD DUP5 DUP7 PUSH1 0x0 ADD MLOAD DUP6 PUSH1 0x20 ADD MLOAD PUSH2 0x3417 JUMP JUMPDEST PUSH2 0x2DEC DUP2 DUP6 PUSH1 0x0 ADD MLOAD DUP7 PUSH1 0x40 ADD MLOAD DUP6 PUSH1 0x40 ADD MLOAD PUSH2 0x3417 JUMP JUMPDEST PUSH2 0x2E00 DUP2 DUP5 DUP7 PUSH1 0x40 ADD MLOAD DUP6 PUSH1 0x60 ADD MLOAD PUSH2 0x3417 JUMP JUMPDEST POP POP POP POP JUMP JUMPDEST PUSH1 0x40 DUP1 MLOAD PUSH32 0x5A65726F45785472616E73616374696F6E280000000000000000000000000000 PUSH1 0x20 DUP1 DUP4 ADD SWAP2 SWAP1 SWAP2 MSTORE PUSH32 0x75696E743235362073616C742C00000000000000000000000000000000000000 PUSH1 0x32 DUP4 ADD MSTORE PUSH32 0x61646472657373207369676E6572416464726573732C00000000000000000000 PUSH1 0x3F DUP4 ADD MSTORE PUSH32 0x6279746573206461746100000000000000000000000000000000000000000000 PUSH1 0x55 DUP4 ADD MSTORE PUSH32 0x2900000000000000000000000000000000000000000000000000000000000000 PUSH1 0x5F DUP4 ADD MSTORE DUP3 MLOAD DUP1 DUP4 SUB DUP5 ADD DUP2 MSTORE PUSH1 0x60 SWAP1 SWAP3 ADD SWAP3 DUP4 SWAP1 MSTORE DUP2 MLOAD PUSH1 0x0 SWAP4 DUP5 SWAP4 DUP5 SWAP4 SWAP1 SWAP3 DUP3 SWAP2 DUP5 ADD SWAP1 DUP1 DUP4 DUP4 JUMPDEST PUSH1 0x20 DUP4 LT PUSH2 0x2F2F JUMPI DUP1 MLOAD DUP3 MSTORE PUSH32 0xFFFFFFFFFFFFFFFFFFFFFFFFFFFFFFFFFFFFFFFFFFFFFFFFFFFFFFFFFFFFFFE0 SWAP1 SWAP3 ADD SWAP2 PUSH1 0x20 SWAP2 DUP3 ADD SWAP2 ADD PUSH2 0x2EF2 JUMP JUMPDEST MLOAD DUP2 MLOAD PUSH1 0x20 SWAP4 DUP5 SUB PUSH2 0x100 EXP PUSH32 0xFFFFFFFFFFFFFFFFFFFFFFFFFFFFFFFFFFFFFFFFFFFFFFFFFFFFFFFFFFFFFFFF ADD DUP1 NOT SWAP1 SWAP3 AND SWAP2 AND OR SWAP1 MSTORE PUSH1 0x40 MLOAD SWAP2 SWAP1 SWAP4 ADD DUP2 SWAP1 SUB DUP2 KECCAK256 DUP10 MLOAD SWAP1 SWAP8 POP DUP10 SWAP6 POP SWAP1 SWAP4 POP DUP4 SWAP3 DUP6 ADD SWAP2 POP DUP1 DUP4 DUP4 JUMPDEST PUSH1 0x20 DUP4 LT PUSH2 0x2FC5 JUMPI DUP1 MLOAD DUP3 MSTORE PUSH32 0xFFFFFFFFFFFFFFFFFFFFFFFFFFFFFFFFFFFFFFFFFFFFFFFFFFFFFFFFFFFFFFE0 SWAP1 SWAP3 ADD SWAP2 PUSH1 0x20 SWAP2 DUP3 ADD SWAP2 ADD PUSH2 0x2F88 JUMP JUMPDEST MLOAD DUP2 MLOAD PUSH1 0x20 SWAP4 DUP5 SUB PUSH2 0x100 EXP PUSH32 0xFFFFFFFFFFFFFFFFFFFFFFFFFFFFFFFFFFFFFFFFFFFFFFFFFFFFFFFFFFFFFFFF ADD DUP1 NOT SWAP1 SWAP3 AND SWAP2 AND OR SWAP1 MSTORE PUSH1 0x40 DUP1 MLOAD SWAP3 SWAP1 SWAP5 ADD DUP3 SWAP1 SUB DUP3 KECCAK256 SWAP8 DUP3 MSTORE DUP2 ADD SWAP11 SWAP1 SWAP11 MSTORE POP PUSH20 0xFFFFFFFFFFFFFFFFFFFFFFFFFFFFFFFFFFFFFFFF SWAP8 SWAP1 SWAP8 AND SWAP7 DUP9 ADD SWAP7 SWAP1 SWAP7 MSTORE POP POP PUSH1 0x60 DUP6 ADD MSTORE POP POP PUSH1 0x80 SWAP1 SWAP2 KECCAK256 SWAP2 SWAP1 POP JUMP JUMPDEST PUSH1 0x0 PUSH1 0x40 DUP1 MLOAD SWAP1 DUP2 ADD PUSH1 0x40 MSTORE DUP1 PUSH1 0x2 DUP2 MSTORE PUSH1 0x20 ADD PUSH32 0x1901000000000000000000000000000000000000000000000000000000000000 DUP2 MSTORE POP PUSH1 0x1 SLOAD DUP4 PUSH1 0x40 MLOAD PUSH1 0x20 ADD DUP1 DUP5 DUP1 MLOAD SWAP1 PUSH1 0x20 ADD SWAP1 DUP1 DUP4 DUP4 JUMPDEST PUSH1 0x20 DUP4 LT PUSH2 0x30D3 JUMPI DUP1 MLOAD DUP3 MSTORE PUSH32 0xFFFFFFFFFFFFFFFFFFFFFFFFFFFFFFFFFFFFFFFFFFFFFFFFFFFFFFFFFFFFFFE0 SWAP1 SWAP3 ADD SWAP2 PUSH1 0x20 SWAP2 DUP3 ADD SWAP2 ADD PUSH2 0x3096 JUMP JUMPDEST MLOAD DUP2 MLOAD PUSH1 0x20 SWAP4 DUP5 SUB PUSH2 0x100 EXP PUSH32 0xFFFFFFFFFFFFFFFFFFFFFFFFFFFFFFFFFFFFFFFFFFFFFFFFFFFFFFFFFFFFFFFF ADD DUP1 NOT SWAP1 SWAP3 AND SWAP2 AND OR SWAP1 MSTORE SWAP3 ADD SWAP5 DUP6 MSTORE POP DUP4 DUP2 ADD SWAP3 SWAP1 SWAP3 MSTORE POP PUSH1 0x40 DUP1 MLOAD DUP1 DUP5 SUB DUP4 ADD DUP2 MSTORE SWAP3 DUP2 ADD SWAP1 DUP2 SWAP1 MSTORE DUP3 MLOAD SWAP3 SWAP4 POP SWAP2 DUP3 SWAP2 DUP5 ADD SWAP1 DUP1 DUP4 DUP4 JUMPDEST PUSH1 0x20 DUP4 LT PUSH2 0x3177 JUMPI DUP1 MLOAD DUP3 MSTORE PUSH32 0xFFFFFFFFFFFFFFFFFFFFFFFFFFFFFFFFFFFFFFFFFFFFFFFFFFFFFFFFFFFFFFE0 SWAP1 SWAP3 ADD SWAP2 PUSH1 0x20 SWAP2 DUP3 ADD SWAP2 ADD PUSH2 0x313A JUMP JUMPDEST MLOAD DUP2 MLOAD PUSH1 0x20 SWAP4 SWAP1 SWAP4 SUB PUSH2 0x100 EXP PUSH32 0xFFFFFFFFFFFFFFFFFFFFFFFFFFFFFFFFFFFFFFFFFFFFFFFFFFFFFFFFFFFFFFFF ADD DUP1 NOT SWAP1 SWAP2 AND SWAP3 AND SWAP2 SWAP1 SWAP2 OR SWAP1 MSTORE PUSH1 0x40 MLOAD SWAP3 ADD DUP3 SWAP1 SUB SWAP1 SWAP2 KECCAK256 SWAP6 SWAP5 POP POP POP POP POP JUMP JUMPDEST PUSH1 0x0 PUSH2 0x24EB PUSH2 0x1B9E DUP4 PUSH2 0x3620 JUMP JUMPDEST DUP1 MLOAD PUSH1 0x0 SWAP1 PUSH1 0xFF AND PUSH1 0x3 EQ PUSH2 0x3216 JUMPI PUSH1 0x40 MLOAD PUSH32 0x8C379A000000000000000000000000000000000000000000000000000000000 DUP2 MSTORE PUSH1 0x4 ADD PUSH2 0x8CA SWAP1 PUSH2 0x4CD2 JUMP JUMPDEST PUSH1 0x60 DUP4 ADD MLOAD PUSH20 0xFFFFFFFFFFFFFFFFFFFFFFFFFFFFFFFFFFFFFFFF AND ISZERO PUSH2 0x3289 JUMPI PUSH1 0x60 DUP4 ADD MLOAD PUSH20 0xFFFFFFFFFFFFFFFFFFFFFFFFFFFFFFFFFFFFFFFF AND CALLER EQ PUSH2 0x3289 JUMPI PUSH1 0x40 MLOAD PUSH32 0x8C379A000000000000000000000000000000000000000000000000000000000 DUP2 MSTORE PUSH1 0x4 ADD PUSH2 0x8CA SWAP1 PUSH2 0x4CE2 JUMP JUMPDEST PUSH2 0x3291 PUSH2 0x24A8 JUMP JUMPDEST DUP4 MLOAD SWAP1 SWAP2 POP PUSH20 0xFFFFFFFFFFFFFFFFFFFFFFFFFFFFFFFFFFFFFFFF DUP1 DUP4 AND SWAP2 AND EQ PUSH2 0x32E7 JUMPI PUSH1 0x40 MLOAD PUSH32 0x8C379A000000000000000000000000000000000000000000000000000000000 DUP2 MSTORE PUSH1 0x4 ADD PUSH2 0x8CA SWAP1 PUSH2 0x4BD2 JUMP JUMPDEST POP POP POP JUMP JUMPDEST PUSH1 0x0 DUP2 DUP2 MSTORE PUSH1 0x4 PUSH1 0x20 MSTORE PUSH1 0x40 SWAP1 DUP2 SWAP1 KECCAK256 DUP1 SLOAD PUSH32 0xFFFFFFFFFFFFFFFFFFFFFFFFFFFFFFFFFFFFFFFFFFFFFFFFFFFFFFFFFFFFFF00 AND PUSH1 0x1 OR SWAP1 SSTORE DUP3 DUP2 ADD MLOAD DUP4 MLOAD PUSH2 0x140 DUP6 ADD MLOAD PUSH2 0x160 DUP7 ADD MLOAD SWAP4 MLOAD DUP6 SWAP5 PUSH20 0xFFFFFFFFFFFFFFFFFFFFFFFFFFFFFFFFFFFFFFFF SWAP5 DUP6 AND SWAP5 SWAP4 SWAP1 SWAP4 AND SWAP3 PUSH32 0xDC47B3613D9FE400085F6DBDC99453462279057E6207385042827ED6B1A62CF7 SWAP3 PUSH2 0x3387 SWAP3 CALLER SWAP3 SWAP1 PUSH2 0x4A5D JUMP JUMPDEST PUSH1 0x40 MLOAD DUP1 SWAP2 SUB SWAP1 LOG4 POP POP JUMP JUMPDEST PUSH1 0x0 DUP3 DUP3 ADD DUP4 DUP2 LT ISZERO PUSH2 0xF74 JUMPI INVALID JUMPDEST PUSH1 0x0 DUP3 DUP3 MUL DUP4 ISZERO DUP1 PUSH2 0x33BE JUMPI POP DUP3 DUP5 DUP3 DUP2 ISZERO ISZERO PUSH2 0x33BB JUMPI INVALID JUMPDEST DIV EQ JUMPDEST ISZERO ISZERO PUSH2 0xF74 JUMPI INVALID JUMPDEST PUSH1 0x0 DUP1 PUSH1 0x0 DUP5 DUP1 ISZERO ISZERO PUSH2 0x33D5 JUMPI INVALID JUMPDEST DUP7 DUP6 MULMOD SWAP2 POP DUP2 ISZERO ISZERO PUSH2 0x33EA JUMPI PUSH1 0x0 SWAP3 POP PUSH2 0x839 JUMP JUMPDEST PUSH2 0x3409 PUSH2 0x33FA DUP4 PUSH3 0xF4240 PUSH2 0x33A2 JUMP JUMPDEST PUSH2 0x3404 DUP9 DUP8 PUSH2 0x33A2 JUMP JUMPDEST PUSH2 0x3609 JUMP JUMPDEST PUSH2 0x3E8 LT SWAP7 SWAP6 POP POP POP POP POP POP JUMP JUMPDEST PUSH1 0x0 DUP1 PUSH1 0x0 DUP4 GT ISZERO PUSH2 0x2826 JUMPI DUP6 MLOAD PUSH1 0x3 LT PUSH2 0x345E JUMPI PUSH1 0x40 MLOAD PUSH32 0x8C379A000000000000000000000000000000000000000000000000000000000 DUP2 MSTORE PUSH1 0x4 ADD PUSH2 0x8CA SWAP1 PUSH2 0x4C82 JUMP JUMPDEST POP POP PUSH1 0x20 DUP5 DUP2 ADD MLOAD PUSH32 0xFFFFFFFF00000000000000000000000000000000000000000000000000000000 AND PUSH1 0x0 DUP2 DUP2 MSTORE PUSH1 0xA SWAP1 SWAP3 MSTORE PUSH1 0x40 SWAP1 SWAP2 KECCAK256 SLOAD PUSH20 0xFFFFFFFFFFFFFFFFFFFFFFFFFFFFFFFFFFFFFFFF AND DUP1 ISZERO ISZERO PUSH2 0x34E7 JUMPI PUSH1 0x40 MLOAD PUSH32 0x8C379A000000000000000000000000000000000000000000000000000000000 DUP2 MSTORE PUSH1 0x4 ADD PUSH2 0x8CA SWAP1 PUSH2 0x4C32 JUMP JUMPDEST PUSH1 0x40 MLOAD PUSH7 0xFFFFFFFFFFFE0 PUSH1 0x3F DUP9 MLOAD ADD AND DUP1 PUSH1 0x84 ADD DUP3 ADD PUSH32 0xA85E59E400000000000000000000000000000000000000000000000000000000 DUP4 MSTORE PUSH1 0x80 PUSH1 0x4 DUP5 ADD MSTORE PUSH20 0xFFFFFFFFFFFFFFFFFFFFFFFFFFFFFFFFFFFFFFFF DUP9 AND PUSH1 0x24 DUP5 ADD MSTORE PUSH20 0xFFFFFFFFFFFFFFFFFFFFFFFFFFFFFFFFFFFFFFFF DUP8 AND PUSH1 0x44 DUP5 ADD MSTORE DUP6 PUSH1 0x64 DUP5 ADD MSTORE PUSH1 0x84 DUP4 ADD JUMPDEST DUP2 DUP2 LT ISZERO PUSH2 0x3583 JUMPI DUP10 MLOAD DUP2 MSTORE PUSH1 0x20 SWAP10 DUP11 ADD SWAP10 ADD PUSH2 0x356B JUMP JUMPDEST PUSH2 0x200 DUP5 DUP6 DUP5 SUB DUP7 PUSH1 0x0 DUP10 GAS CALL DUP1 ISZERO ISZERO PUSH2 0x359B JUMPI RETURNDATASIZE DUP6 REVERT JUMPDEST POP POP POP POP POP POP POP POP POP POP POP JUMP JUMPDEST PUSH1 0x0 DUP2 PUSH1 0x14 ADD DUP4 MLOAD LT ISZERO ISZERO ISZERO PUSH2 0x35EA JUMPI PUSH1 0x40 MLOAD PUSH32 0x8C379A000000000000000000000000000000000000000000000000000000000 DUP2 MSTORE PUSH1 0x4 ADD PUSH2 0x8CA SWAP1 PUSH2 0x4CC2 JUMP JUMPDEST POP ADD PUSH1 0x14 ADD MLOAD PUSH20 0xFFFFFFFFFFFFFFFFFFFFFFFFFFFFFFFFFFFFFFFF AND SWAP1 JUMP JUMPDEST PUSH1 0x0 DUP1 DUP3 DUP5 DUP2 ISZERO ISZERO PUSH2 0x3617 JUMPI INVALID JUMPDEST DIV SWAP5 SWAP4 POP POP POP POP JUMP JUMPDEST PUSH1 0x40 DUP1 MLOAD PUSH32 0x4F72646572280000000000000000000000000000000000000000000000000000 PUSH1 0x20 DUP1 DUP4 ADD SWAP2 SWAP1 SWAP2 MSTORE PUSH32 0x61646472657373206D616B6572416464726573732C0000000000000000000000 PUSH1 0x26 DUP4 ADD MSTORE PUSH32 0x616464726573732074616B6572416464726573732C0000000000000000000000 PUSH1 0x3B DUP4 ADD MSTORE PUSH32 0x6164647265737320666565526563697069656E74416464726573732C00000000 PUSH1 0x50 DUP4 ADD MSTORE PUSH32 0x616464726573732073656E646572416464726573732C00000000000000000000 PUSH1 0x6C DUP4 ADD MSTORE PUSH32 0x75696E74323536206D616B65724173736574416D6F756E742C00000000000000 PUSH1 0x82 DUP4 ADD MSTORE PUSH32 0x75696E743235362074616B65724173736574416D6F756E742C00000000000000 PUSH1 0x9B DUP4 ADD MSTORE PUSH32 0x75696E74323536206D616B65724665652C000000000000000000000000000000 PUSH1 0xB4 DUP4 ADD MSTORE PUSH32 0x75696E743235362074616B65724665652C000000000000000000000000000000 PUSH1 0xC5 DUP4 ADD MSTORE PUSH32 0x75696E743235362065787069726174696F6E54696D655365636F6E64732C0000 PUSH1 0xD6 DUP4 ADD MSTORE PUSH32 0x75696E743235362073616C742C00000000000000000000000000000000000000 PUSH1 0xF4 DUP4 ADD MSTORE PUSH32 0x6279746573206D616B65724173736574446174612C0000000000000000000000 PUSH2 0x101 DUP4 ADD MSTORE PUSH32 0x62797465732074616B6572417373657444617461000000000000000000000000 PUSH2 0x116 DUP4 ADD MSTORE PUSH32 0x2900000000000000000000000000000000000000000000000000000000000000 PUSH2 0x12A DUP4 ADD MSTORE DUP3 MLOAD PUSH2 0x10B DUP2 DUP5 SUB ADD DUP2 MSTORE PUSH2 0x12B SWAP1 SWAP3 ADD SWAP3 DUP4 SWAP1 MSTORE DUP2 MLOAD PUSH1 0x0 SWAP4 DUP5 SWAP4 DUP5 SWAP4 DUP5 SWAP4 SWAP2 SWAP3 SWAP2 DUP3 SWAP2 DUP5 ADD SWAP1 DUP1 DUP4 DUP4 JUMPDEST PUSH1 0x20 DUP4 LT PUSH2 0x38A8 JUMPI DUP1 MLOAD DUP3 MSTORE PUSH32 0xFFFFFFFFFFFFFFFFFFFFFFFFFFFFFFFFFFFFFFFFFFFFFFFFFFFFFFFFFFFFFFE0 SWAP1 SWAP3 ADD SWAP2 PUSH1 0x20 SWAP2 DUP3 ADD SWAP2 ADD PUSH2 0x386B JUMP JUMPDEST MLOAD DUP2 MLOAD PUSH1 0x20 SWAP4 DUP5 SUB PUSH2 0x100 EXP PUSH32 0xFFFFFFFFFFFFFFFFFFFFFFFFFFFFFFFFFFFFFFFFFFFFFFFFFFFFFFFFFFFFFFFF ADD DUP1 NOT SWAP1 SWAP3 AND SWAP2 AND OR SWAP1 MSTORE PUSH1 0x40 MLOAD SWAP2 SWAP1 SWAP4 ADD DUP2 SWAP1 SUB DUP2 KECCAK256 PUSH2 0x140 DUP12 ADD MLOAD DUP1 MLOAD SWAP2 SWAP10 POP SWAP6 POP SWAP1 SWAP4 POP DUP4 SWAP3 DUP6 ADD SWAP2 POP DUP1 DUP4 DUP4 JUMPDEST PUSH1 0x20 DUP4 LT PUSH2 0x3943 JUMPI DUP1 MLOAD DUP3 MSTORE PUSH32 0xFFFFFFFFFFFFFFFFFFFFFFFFFFFFFFFFFFFFFFFFFFFFFFFFFFFFFFFFFFFFFFE0 SWAP1 SWAP3 ADD SWAP2 PUSH1 0x20 SWAP2 DUP3 ADD SWAP2 ADD PUSH2 0x3906 JUMP JUMPDEST MLOAD DUP2 MLOAD PUSH1 0x20 SWAP4 DUP5 SUB PUSH2 0x100 EXP PUSH32 0xFFFFFFFFFFFFFFFFFFFFFFFFFFFFFFFFFFFFFFFFFFFFFFFFFFFFFFFFFFFFFFFF ADD DUP1 NOT SWAP1 SWAP3 AND SWAP2 AND OR SWAP1 MSTORE PUSH1 0x40 MLOAD SWAP2 SWAP1 SWAP4 ADD DUP2 SWAP1 SUB DUP2 KECCAK256 PUSH2 0x160 DUP12 ADD MLOAD DUP1 MLOAD SWAP2 SWAP9 POP SWAP6 POP SWAP1 SWAP4 POP DUP4 SWAP3 DUP6 ADD SWAP2 POP DUP1 DUP4 DUP4 JUMPDEST PUSH1 0x20 DUP4 LT PUSH2 0x39DE JUMPI DUP1 MLOAD DUP3 MSTORE PUSH32 0xFFFFFFFFFFFFFFFFFFFFFFFFFFFFFFFFFFFFFFFFFFFFFFFFFFFFFFFFFFFFFFE0 SWAP1 SWAP3 ADD SWAP2 PUSH1 0x20 SWAP2 DUP3 ADD SWAP2 ADD PUSH2 0x39A1 JUMP JUMPDEST MLOAD DUP2 MLOAD PUSH1 0x20 SWAP4 SWAP1 SWAP4 SUB PUSH2 0x100 EXP PUSH32 0xFFFFFFFFFFFFFFFFFFFFFFFFFFFFFFFFFFFFFFFFFFFFFFFFFFFFFFFFFFFFFFFF ADD DUP1 NOT SWAP1 SWAP2 AND SWAP3 AND SWAP2 SWAP1 SWAP2 OR SWAP1 MSTORE PUSH1 0x40 MLOAD SWAP3 ADD DUP3 SWAP1 SUB SWAP1 SWAP2 KECCAK256 PUSH32 0xFFFFFFFFFFFFFFFFFFFFFFFFFFFFFFFFFFFFFFFFFFFFFFFFFFFFFFFFFFFFFFE0 DUP10 ADD DUP1 MLOAD PUSH2 0x140 DUP12 ADD DUP1 MLOAD PUSH2 0x160 SWAP1 SWAP13 ADD DUP1 MLOAD SWAP11 DUP5 MSTORE SWAP9 DUP2 MSTORE SWAP3 DUP9 MSTORE PUSH2 0x1A0 DUP3 KECCAK256 SWAP2 MSTORE SWAP9 SWAP1 MSTORE POP POP POP SWAP2 SWAP1 MSTORE POP SWAP1 SWAP2 SWAP1 POP JUMP JUMPDEST PUSH1 0x80 PUSH1 0x40 MLOAD SWAP1 DUP2 ADD PUSH1 0x40 MSTORE DUP1 PUSH1 0x0 DUP2 MSTORE PUSH1 0x20 ADD PUSH1 0x0 DUP2 MSTORE PUSH1 0x20 ADD PUSH1 0x0 DUP2 MSTORE PUSH1 0x20 ADD PUSH1 0x0 DUP2 MSTORE POP SWAP1 JUMP JUMPDEST PUSH2 0x120 PUSH1 0x40 MLOAD SWAP1 DUP2 ADD PUSH1 0x40 MSTORE DUP1 PUSH2 0x3AB7 PUSH2 0x3A79 JUMP JUMPDEST DUP2 MSTORE PUSH1 0x20 ADD PUSH2 0x3AC4 PUSH2 0x3A79 JUMP JUMPDEST DUP2 MSTORE PUSH1 0x20 ADD PUSH1 0x0 DUP2 MSTORE POP SWAP1 JUMP JUMPDEST PUSH1 0x40 DUP1 MLOAD PUSH1 0x60 DUP2 ADD DUP3 MSTORE PUSH1 0x0 DUP1 DUP3 MSTORE PUSH1 0x20 DUP3 ADD DUP2 SWAP1 MSTORE SWAP2 DUP2 ADD SWAP2 SWAP1 SWAP2 MSTORE SWAP1 JUMP JUMPDEST PUSH1 0x0 PUSH2 0xF74 DUP3 CALLDATALOAD PUSH2 0x4DDF JUMP JUMPDEST PUSH1 0x0 PUSH1 0x1F DUP3 ADD DUP4 SGT PUSH2 0x3B0E JUMPI PUSH1 0x0 DUP1 REVERT JUMPDEST DUP2 CALLDATALOAD PUSH2 0x3B21 PUSH2 0x3B1C DUP3 PUSH2 0x4D74 JUMP JUMPDEST PUSH2 0x4D4D JUMP JUMPDEST DUP2 DUP2 MSTORE PUSH1 0x20 SWAP4 DUP5 ADD SWAP4 SWAP1 SWAP3 POP DUP3 ADD DUP4 PUSH1 0x0 JUMPDEST DUP4 DUP2 LT ISZERO PUSH2 0x3B5F JUMPI DUP2 CALLDATALOAD DUP7 ADD PUSH2 0x3B49 DUP9 DUP3 PUSH2 0x3CBB JUMP JUMPDEST DUP5 MSTORE POP PUSH1 0x20 SWAP3 DUP4 ADD SWAP3 SWAP2 SWAP1 SWAP2 ADD SWAP1 PUSH1 0x1 ADD PUSH2 0x3B33 JUMP JUMPDEST POP POP POP POP SWAP3 SWAP2 POP POP JUMP JUMPDEST PUSH1 0x0 PUSH1 0x1F DUP3 ADD DUP4 SGT PUSH2 0x3B7A JUMPI PUSH1 0x0 DUP1 REVERT JUMPDEST DUP2 CALLDATALOAD PUSH2 0x3B88 PUSH2 0x3B1C DUP3 PUSH2 0x4D74 JUMP JUMPDEST DUP2 DUP2 MSTORE PUSH1 0x20 SWAP4 DUP5 ADD SWAP4 SWAP1 SWAP3 POP DUP3 ADD DUP4 PUSH1 0x0 JUMPDEST DUP4 DUP2 LT ISZERO PUSH2 0x3B5F JUMPI DUP2 CALLDATALOAD DUP7 ADD PUSH2 0x3BB0 DUP9 DUP3 PUSH2 0x3D0A JUMP JUMPDEST DUP5 MSTORE POP PUSH1 0x20 SWAP3 DUP4 ADD SWAP3 SWAP2 SWAP1 SWAP2 ADD SWAP1 PUSH1 0x1 ADD PUSH2 0x3B9A JUMP JUMPDEST PUSH1 0x0 PUSH1 0x1F DUP3 ADD DUP4 SGT PUSH2 0x3BD7 JUMPI PUSH1 0x0 DUP1 REVERT JUMPDEST DUP2 CALLDATALOAD PUSH2 0x3BE5 PUSH2 0x3B1C DUP3 PUSH2 0x4D74 JUMP JUMPDEST SWAP2 POP DUP2 DUP2 DUP4 MSTORE PUSH1 0x20 DUP5 ADD SWAP4 POP PUSH1 0x20 DUP2 ADD SWAP1 POP DUP4 DUP6 PUSH1 0x20 DUP5 MUL DUP3 ADD GT ISZERO PUSH2 0x3C0A JUMPI PUSH1 0x0 DUP1 REVERT JUMPDEST PUSH1 0x0 JUMPDEST DUP4 DUP2 LT ISZERO PUSH2 0x3B5F JUMPI DUP2 PUSH2 0x3C20 DUP9 DUP3 PUSH2 0x3C4E JUMP JUMPDEST DUP5 MSTORE POP PUSH1 0x20 SWAP3 DUP4 ADD SWAP3 SWAP2 SWAP1 SWAP2 ADD SWAP1 PUSH1 0x1 ADD PUSH2 0x3C0D JUMP JUMPDEST PUSH1 0x0 PUSH2 0xF74 DUP3 CALLDATALOAD PUSH2 0x4DF8 JUMP JUMPDEST PUSH1 0x0 PUSH2 0xF74 DUP3 MLOAD PUSH2 0x4DF8 JUMP JUMPDEST PUSH1 0x0 PUSH2 0xF74 DUP3 CALLDATALOAD PUSH2 0x4DFD JUMP JUMPDEST PUSH1 0x0 PUSH2 0xF74 DUP3 CALLDATALOAD PUSH2 0x4E00 JUMP JUMPDEST PUSH1 0x0 PUSH2 0xF74 DUP3 MLOAD PUSH2 0x4E00 JUMP JUMPDEST PUSH1 0x0 DUP1 PUSH1 0x1F DUP4 ADD DUP5 SGT PUSH2 0x3C84 JUMPI PUSH1 0x0 DUP1 REVERT JUMPDEST POP DUP2 CALLDATALOAD PUSH8 0xFFFFFFFFFFFFFFFF DUP2 GT ISZERO PUSH2 0x3C9C JUMPI PUSH1 0x0 DUP1 REVERT JUMPDEST PUSH1 0x20 DUP4 ADD SWAP2 POP DUP4 PUSH1 0x1 DUP3 MUL DUP4 ADD GT ISZERO PUSH2 0x3CB4 JUMPI PUSH1 0x0 DUP1 REVERT JUMPDEST SWAP3 POP SWAP3 SWAP1 POP JUMP JUMPDEST PUSH1 0x0 PUSH1 0x1F DUP3 ADD DUP4 SGT PUSH2 0x3CCC JUMPI PUSH1 0x0 DUP1 REVERT JUMPDEST DUP2 CALLDATALOAD PUSH2 0x3CDA PUSH2 0x3B1C DUP3 PUSH2 0x4D95 JUMP JUMPDEST SWAP2 POP DUP1 DUP3 MSTORE PUSH1 0x20 DUP4 ADD PUSH1 0x20 DUP4 ADD DUP6 DUP4 DUP4 ADD GT ISZERO PUSH2 0x3CF6 JUMPI PUSH1 0x0 DUP1 REVERT JUMPDEST PUSH2 0x3D01 DUP4 DUP3 DUP5 PUSH2 0x4E36 JUMP JUMPDEST POP POP POP SWAP3 SWAP2 POP POP JUMP JUMPDEST PUSH1 0x0 PUSH2 0x180 DUP3 DUP5 SUB SLT ISZERO PUSH2 0x3D1D JUMPI PUSH1 0x0 DUP1 REVERT JUMPDEST PUSH2 0x3D28 PUSH2 0x180 PUSH2 0x4D4D JUMP JUMPDEST SWAP1 POP PUSH1 0x0 PUSH2 0x3D36 DUP5 DUP5 PUSH2 0x3AF1 JUMP JUMPDEST DUP3 MSTORE POP PUSH1 0x20 PUSH2 0x3D47 DUP5 DUP5 DUP4 ADD PUSH2 0x3AF1 JUMP JUMPDEST PUSH1 0x20 DUP4 ADD MSTORE POP PUSH1 0x40 PUSH2 0x3D5B DUP5 DUP3 DUP6 ADD PUSH2 0x3AF1 JUMP JUMPDEST PUSH1 0x40 DUP4 ADD MSTORE POP PUSH1 0x60 PUSH2 0x3D6F DUP5 DUP3 DUP6 ADD PUSH2 0x3AF1 JUMP JUMPDEST PUSH1 0x60 DUP4 ADD MSTORE POP PUSH1 0x80 PUSH2 0x3D83 DUP5 DUP3 DUP6 ADD PUSH2 0x3C4E JUMP JUMPDEST PUSH1 0x80 DUP4 ADD MSTORE POP PUSH1 0xA0 PUSH2 0x3D97 DUP5 DUP3 DUP6 ADD PUSH2 0x3C4E JUMP JUMPDEST PUSH1 0xA0 DUP4 ADD MSTORE POP PUSH1 0xC0 PUSH2 0x3DAB DUP5 DUP3 DUP6 ADD PUSH2 0x3C4E JUMP JUMPDEST PUSH1 0xC0 DUP4 ADD MSTORE POP PUSH1 0xE0 PUSH2 0x3DBF DUP5 DUP3 DUP6 ADD PUSH2 0x3C4E JUMP JUMPDEST PUSH1 0xE0 DUP4 ADD MSTORE POP PUSH2 0x100 PUSH2 0x3DD4 DUP5 DUP3 DUP6 ADD PUSH2 0x3C4E JUMP JUMPDEST PUSH2 0x100 DUP4 ADD MSTORE POP PUSH2 0x120 PUSH2 0x3DEA DUP5 DUP3 DUP6 ADD PUSH2 0x3C4E JUMP JUMPDEST PUSH2 0x120 DUP4 ADD MSTORE POP PUSH2 0x140 DUP3 ADD CALLDATALOAD PUSH8 0xFFFFFFFFFFFFFFFF DUP2 GT ISZERO PUSH2 0x3E0C JUMPI PUSH1 0x0 DUP1 REVERT JUMPDEST PUSH2 0x3E18 DUP5 DUP3 DUP6 ADD PUSH2 0x3CBB JUMP JUMPDEST PUSH2 0x140 DUP4 ADD MSTORE POP PUSH2 0x160 DUP3 ADD CALLDATALOAD PUSH8 0xFFFFFFFFFFFFFFFF DUP2 GT ISZERO PUSH2 0x3E3A JUMPI PUSH1 0x0 DUP1 REVERT JUMPDEST PUSH2 0x3E46 DUP5 DUP3 DUP6 ADD PUSH2 0x3CBB JUMP JUMPDEST PUSH2 0x160 DUP4 ADD MSTORE POP SWAP3 SWAP2 POP POP JUMP JUMPDEST PUSH1 0x0 PUSH1 0x20 DUP3 DUP5 SUB SLT ISZERO PUSH2 0x3E65 JUMPI PUSH1 0x0 DUP1 REVERT JUMPDEST PUSH1 0x0 PUSH2 0x2C69 DUP5 DUP5 PUSH2 0x3AF1 JUMP JUMPDEST PUSH1 0x0 DUP1 PUSH1 0x40 DUP4 DUP6 SUB SLT ISZERO PUSH2 0x3E84 JUMPI PUSH1 0x0 DUP1 REVERT JUMPDEST PUSH1 0x0 PUSH2 0x3E90 DUP6 DUP6 PUSH2 0x3AF1 JUMP JUMPDEST SWAP3 POP POP PUSH1 0x20 PUSH2 0x3EA1 DUP6 DUP3 DUP7 ADD PUSH2 0x3AF1 JUMP JUMPDEST SWAP2 POP POP SWAP3 POP SWAP3 SWAP1 POP JUMP JUMPDEST PUSH1 0x0 DUP1 PUSH1 0x40 DUP4 DUP6 SUB SLT ISZERO PUSH2 0x3EBE JUMPI PUSH1 0x0 DUP1 REVERT JUMPDEST PUSH1 0x0 PUSH2 0x3ECA DUP6 DUP6 PUSH2 0x3AF1 JUMP JUMPDEST SWAP3 POP POP PUSH1 0x20 PUSH2 0x3EA1 DUP6 DUP3 DUP7 ADD PUSH2 0x3C36 JUMP JUMPDEST PUSH1 0x0 PUSH1 0x20 DUP3 DUP5 SUB SLT ISZERO PUSH2 0x3EED JUMPI PUSH1 0x0 DUP1 REVERT JUMPDEST DUP2 CALLDATALOAD PUSH8 0xFFFFFFFFFFFFFFFF DUP2 GT ISZERO PUSH2 0x3F04 JUMPI PUSH1 0x0 DUP1 REVERT JUMPDEST PUSH2 0x2C69 DUP5 DUP3 DUP6 ADD PUSH2 0x3B69 JUMP JUMPDEST PUSH1 0x0 DUP1 PUSH1 0x0 PUSH1 0x60 DUP5 DUP7 SUB SLT ISZERO PUSH2 0x3F25 JUMPI PUSH1 0x0 DUP1 REVERT JUMPDEST DUP4 CALLDATALOAD PUSH8 0xFFFFFFFFFFFFFFFF DUP2 GT ISZERO PUSH2 0x3F3C JUMPI PUSH1 0x0 DUP1 REVERT JUMPDEST PUSH2 0x3F48 DUP7 DUP3 DUP8 ADD PUSH2 0x3B69 JUMP JUMPDEST SWAP4 POP POP PUSH1 0x20 DUP5 ADD CALLDATALOAD PUSH8 0xFFFFFFFFFFFFFFFF DUP2 GT ISZERO PUSH2 0x3F65 JUMPI PUSH1 0x0 DUP1 REVERT JUMPDEST PUSH2 0x3F71 DUP7 DUP3 DUP8 ADD PUSH2 0x3BC6 JUMP JUMPDEST SWAP3 POP POP PUSH1 0x40 DUP5 ADD CALLDATALOAD PUSH8 0xFFFFFFFFFFFFFFFF DUP2 GT ISZERO PUSH2 0x3F8E JUMPI PUSH1 0x0 DUP1 REVERT JUMPDEST PUSH2 0x3F9A DUP7 DUP3 DUP8 ADD PUSH2 0x3AFD JUMP JUMPDEST SWAP2 POP POP SWAP3 POP SWAP3 POP SWAP3 JUMP JUMPDEST PUSH1 0x0 DUP1 PUSH1 0x0 PUSH1 0x60 DUP5 DUP7 SUB SLT ISZERO PUSH2 0x3FB9 JUMPI PUSH1 0x0 DUP1 REVERT JUMPDEST DUP4 CALLDATALOAD PUSH8 0xFFFFFFFFFFFFFFFF DUP2 GT ISZERO PUSH2 0x3FD0 JUMPI PUSH1 0x0 DUP1 REVERT JUMPDEST PUSH2 0x3FDC DUP7 DUP3 DUP8 ADD PUSH2 0x3B69 JUMP JUMPDEST SWAP4 POP POP PUSH1 0x20 PUSH2 0x3F71 DUP7 DUP3 DUP8 ADD PUSH2 0x3C4E JUMP JUMPDEST PUSH1 0x0 PUSH1 0x20 DUP3 DUP5 SUB SLT ISZERO PUSH2 0x3FFF JUMPI PUSH1 0x0 DUP1 REVERT JUMPDEST PUSH1 0x0 PUSH2 0x2C69 DUP5 DUP5 PUSH2 0x3C42 JUMP JUMPDEST PUSH1 0x0 PUSH1 0x20 DUP3 DUP5 SUB SLT ISZERO PUSH2 0x401D JUMPI PUSH1 0x0 DUP1 REVERT JUMPDEST PUSH1 0x0 PUSH2 0x2C69 DUP5 DUP5 PUSH2 0x3C4E JUMP JUMPDEST PUSH1 0x0 DUP1 PUSH1 0x40 DUP4 DUP6 SUB SLT ISZERO PUSH2 0x403C JUMPI PUSH1 0x0 DUP1 REVERT JUMPDEST PUSH1 0x0 PUSH2 0x3E90 DUP6 DUP6 PUSH2 0x3C4E JUMP JUMPDEST PUSH1 0x0 DUP1 PUSH1 0x0 DUP1 PUSH1 0x60 DUP6 DUP8 SUB SLT ISZERO PUSH2 0x405E JUMPI PUSH1 0x0 DUP1 REVERT JUMPDEST PUSH1 0x0 PUSH2 0x406A DUP8 DUP8 PUSH2 0x3C4E JUMP JUMPDEST SWAP5 POP POP PUSH1 0x20 PUSH2 0x407B DUP8 DUP3 DUP9 ADD PUSH2 0x3AF1 JUMP JUMPDEST SWAP4 POP POP PUSH1 0x40 DUP6 ADD CALLDATALOAD PUSH8 0xFFFFFFFFFFFFFFFF DUP2 GT ISZERO PUSH2 0x4098 JUMPI PUSH1 0x0 DUP1 REVERT JUMPDEST PUSH2 0x40A4 DUP8 DUP3 DUP9 ADD PUSH2 0x3C72 JUMP JUMPDEST SWAP6 SWAP9 SWAP5 SWAP8 POP SWAP6 POP POP POP POP JUMP JUMPDEST PUSH1 0x0 DUP1 PUSH1 0x0 PUSH1 0x60 DUP5 DUP7 SUB SLT ISZERO PUSH2 0x40C5 JUMPI PUSH1 0x0 DUP1 REVERT JUMPDEST PUSH1 0x0 PUSH2 0x40D1 DUP7 DUP7 PUSH2 0x3C4E JUMP JUMPDEST SWAP4 POP POP PUSH1 0x20 PUSH2 0x40E2 DUP7 DUP3 DUP8 ADD PUSH2 0x3AF1 JUMP JUMPDEST SWAP3 POP POP PUSH1 0x40 DUP5 ADD CALLDATALOAD PUSH8 0xFFFFFFFFFFFFFFFF DUP2 GT ISZERO PUSH2 0x40FF JUMPI PUSH1 0x0 DUP1 REVERT JUMPDEST PUSH2 0x3F9A DUP7 DUP3 DUP8 ADD PUSH2 0x3CBB JUMP JUMPDEST PUSH1 0x0 PUSH1 0x20 DUP3 DUP5 SUB SLT ISZERO PUSH2 0x411D JUMPI PUSH1 0x0 DUP1 REVERT JUMPDEST PUSH1 0x0 PUSH2 0x2C69 DUP5 DUP5 PUSH2 0x3C5A JUMP JUMPDEST PUSH1 0x0 PUSH1 0x20 DUP3 DUP5 SUB SLT ISZERO PUSH2 0x413B JUMPI PUSH1 0x0 DUP1 REVERT JUMPDEST PUSH1 0x0 PUSH2 0x2C69 DUP5 DUP5 PUSH2 0x3C66 JUMP JUMPDEST PUSH1 0x0 PUSH1 0x20 DUP3 DUP5 SUB SLT ISZERO PUSH2 0x4159 JUMPI PUSH1 0x0 DUP1 REVERT JUMPDEST DUP2 CALLDATALOAD PUSH8 0xFFFFFFFFFFFFFFFF DUP2 GT ISZERO PUSH2 0x4170 JUMPI PUSH1 0x0 DUP1 REVERT JUMPDEST PUSH2 0x2C69 DUP5 DUP3 DUP6 ADD PUSH2 0x3D0A JUMP JUMPDEST PUSH1 0x0 DUP1 PUSH1 0x0 DUP1 PUSH1 0x80 DUP6 DUP8 SUB SLT ISZERO PUSH2 0x4192 JUMPI PUSH1 0x0 DUP1 REVERT JUMPDEST DUP5 CALLDATALOAD PUSH8 0xFFFFFFFFFFFFFFFF DUP2 GT ISZERO PUSH2 0x41A9 JUMPI PUSH1 0x0 DUP1 REVERT JUMPDEST PUSH2 0x41B5 DUP8 DUP3 DUP9 ADD PUSH2 0x3D0A JUMP JUMPDEST SWAP5 POP POP PUSH1 0x20 DUP6 ADD CALLDATALOAD PUSH8 0xFFFFFFFFFFFFFFFF DUP2 GT ISZERO PUSH2 0x41D2 JUMPI PUSH1 0x0 DUP1 REVERT JUMPDEST PUSH2 0x41DE DUP8 DUP3 DUP9 ADD PUSH2 0x3D0A JUMP JUMPDEST SWAP4 POP POP PUSH1 0x40 DUP6 ADD CALLDATALOAD PUSH8 0xFFFFFFFFFFFFFFFF DUP2 GT ISZERO PUSH2 0x41FB JUMPI PUSH1 0x0 DUP1 REVERT JUMPDEST PUSH2 0x4207 DUP8 DUP3 DUP9 ADD PUSH2 0x3CBB JUMP JUMPDEST SWAP3 POP POP PUSH1 0x60 DUP6 ADD CALLDATALOAD PUSH8 0xFFFFFFFFFFFFFFFF DUP2 GT ISZERO PUSH2 0x4224 JUMPI PUSH1 0x0 DUP1 REVERT JUMPDEST PUSH2 0x4230 DUP8 DUP3 DUP9 ADD PUSH2 0x3CBB JUMP JUMPDEST SWAP2 POP POP SWAP3 SWAP6 SWAP2 SWAP5 POP SWAP3 POP JUMP JUMPDEST PUSH1 0x0 DUP1 PUSH1 0x0 PUSH1 0x60 DUP5 DUP7 SUB SLT ISZERO PUSH2 0x4251 JUMPI PUSH1 0x0 DUP1 REVERT JUMPDEST DUP4 CALLDATALOAD PUSH8 0xFFFFFFFFFFFFFFFF DUP2 GT ISZERO PUSH2 0x4268 JUMPI PUSH1 0x0 DUP1 REVERT JUMPDEST PUSH2 0x4274 DUP7 DUP3 DUP8 ADD PUSH2 0x3D0A JUMP JUMPDEST SWAP4 POP POP PUSH1 0x20 PUSH2 0x40E2 DUP7 DUP3 DUP8 ADD PUSH2 0x3C4E JUMP JUMPDEST PUSH1 0x0 DUP1 PUSH1 0x0 DUP1 PUSH1 0x0 DUP1 PUSH1 0x80 DUP8 DUP10 SUB SLT ISZERO PUSH2 0x429E JUMPI PUSH1 0x0 DUP1 REVERT JUMPDEST PUSH1 0x0 PUSH2 0x42AA DUP10 DUP10 PUSH2 0x3C4E JUMP JUMPDEST SWAP7 POP POP PUSH1 0x20 PUSH2 0x42BB DUP10 DUP3 DUP11 ADD PUSH2 0x3AF1 JUMP JUMPDEST SWAP6 POP POP PUSH1 0x40 DUP8 ADD CALLDATALOAD PUSH8 0xFFFFFFFFFFFFFFFF DUP2 GT ISZERO PUSH2 0x42D8 JUMPI PUSH1 0x0 DUP1 REVERT JUMPDEST PUSH2 0x42E4 DUP10 DUP3 DUP11 ADD PUSH2 0x3C72 JUMP JUMPDEST SWAP5 POP SWAP5 POP POP PUSH1 0x60 DUP8 ADD CALLDATALOAD PUSH8 0xFFFFFFFFFFFFFFFF DUP2 GT ISZERO PUSH2 0x4303 JUMPI PUSH1 0x0 DUP1 REVERT JUMPDEST PUSH2 0x430F DUP10 DUP3 DUP11 ADD PUSH2 0x3C72 JUMP JUMPDEST SWAP3 POP SWAP3 POP POP SWAP3 SWAP6 POP SWAP3 SWAP6 POP SWAP3 SWAP6 JUMP JUMPDEST PUSH2 0x4327 DUP2 PUSH2 0x4DDF JUMP JUMPDEST DUP3 MSTORE POP POP JUMP JUMPDEST PUSH2 0x4327 DUP2 PUSH2 0x4DF8 JUMP JUMPDEST PUSH2 0x4327 DUP2 PUSH2 0x4DFD JUMP JUMPDEST PUSH2 0x4327 DUP2 PUSH2 0x4E00 JUMP JUMPDEST PUSH1 0x0 PUSH2 0x4353 DUP3 PUSH2 0x4DDB JUMP JUMPDEST DUP1 DUP5 MSTORE PUSH2 0x4367 DUP2 PUSH1 0x20 DUP7 ADD PUSH1 0x20 DUP7 ADD PUSH2 0x4E42 JUMP JUMPDEST PUSH2 0x4370 DUP2 PUSH2 0x4E6E JUMP JUMPDEST SWAP1 SWAP4 ADD PUSH1 0x20 ADD SWAP4 SWAP3 POP POP POP JUMP JUMPDEST PUSH2 0x4327 DUP2 PUSH2 0x4E2B JUMP JUMPDEST PUSH1 0x12 DUP2 MSTORE PUSH32 0x4C454E4754485F36355F52455155495245440000000000000000000000000000 PUSH1 0x20 DUP3 ADD MSTORE PUSH1 0x40 ADD SWAP1 JUMP JUMPDEST PUSH1 0xD DUP2 MSTORE PUSH32 0x494E56414C49445F54414B455200000000000000000000000000000000000000 PUSH1 0x20 DUP3 ADD MSTORE PUSH1 0x40 ADD SWAP1 JUMP JUMPDEST PUSH1 0x1A DUP2 MSTORE PUSH32 0x41535345545F50524F58595F414C52454144595F455849535453000000000000 PUSH1 0x20 DUP3 ADD MSTORE PUSH1 0x40 ADD SWAP1 JUMP JUMPDEST PUSH1 0x26 DUP2 MSTORE PUSH32 0x475245415445525F4F525F455155414C5F544F5F33325F4C454E4754485F5245 PUSH1 0x20 DUP3 ADD MSTORE PUSH32 0x5155495245440000000000000000000000000000000000000000000000000000 PUSH1 0x40 DUP3 ADD MSTORE PUSH1 0x60 ADD SWAP1 JUMP JUMPDEST PUSH1 0x15 DUP2 MSTORE PUSH32 0x5349474E41545552455F554E535550504F525445440000000000000000000000 PUSH1 0x20 DUP3 ADD MSTORE PUSH1 0x40 ADD SWAP1 JUMP JUMPDEST PUSH1 0x17 DUP2 MSTORE PUSH32 0x494E56414C49445F4F524445525F5349474E4154555245000000000000000000 PUSH1 0x20 DUP3 ADD MSTORE PUSH1 0x40 ADD SWAP1 JUMP JUMPDEST PUSH1 0xD DUP2 MSTORE PUSH32 0x494E56414C49445F4D414B455200000000000000000000000000000000000000 PUSH1 0x20 DUP3 ADD MSTORE PUSH1 0x40 ADD SWAP1 JUMP JUMPDEST PUSH1 0xF DUP2 MSTORE PUSH32 0x494E56414C49445F54585F484153480000000000000000000000000000000000 PUSH1 0x20 DUP3 ADD MSTORE PUSH1 0x40 ADD SWAP1 JUMP JUMPDEST PUSH1 0x11 DUP2 MSTORE PUSH32 0x494E56414C49445F5349474E4154555245000000000000000000000000000000 PUSH1 0x20 DUP3 ADD MSTORE PUSH1 0x40 ADD SWAP1 JUMP JUMPDEST PUSH1 0xE DUP2 MSTORE PUSH32 0x524F554E44494E475F4552524F52000000000000000000000000000000000000 PUSH1 0x20 DUP3 ADD MSTORE PUSH1 0x40 ADD SWAP1 JUMP JUMPDEST PUSH1 0x10 DUP2 MSTORE PUSH32 0x4641494C45445F455845435554494F4E00000000000000000000000000000000 PUSH1 0x20 DUP3 ADD MSTORE PUSH1 0x40 ADD SWAP1 JUMP JUMPDEST PUSH1 0x14 DUP2 MSTORE PUSH32 0x494E56414C49445F54414B45525F414D4F554E54000000000000000000000000 PUSH1 0x20 DUP3 ADD MSTORE PUSH1 0x40 ADD SWAP1 JUMP JUMPDEST PUSH1 0x1A DUP2 MSTORE PUSH32 0x41535345545F50524F58595F444F45535F4E4F545F4558495354000000000000 PUSH1 0x20 DUP3 ADD MSTORE PUSH1 0x40 ADD SWAP1 JUMP JUMPDEST PUSH1 0x21 DUP2 MSTORE PUSH32 0x475245415445525F5448414E5F5A45524F5F4C454E4754485F52455155495245 PUSH1 0x20 DUP3 ADD MSTORE PUSH32 0x4400000000000000000000000000000000000000000000000000000000000000 PUSH1 0x40 DUP3 ADD MSTORE PUSH1 0x60 ADD SWAP1 JUMP JUMPDEST PUSH1 0x11 DUP2 MSTORE PUSH32 0x5349474E41545552455F494C4C4547414C000000000000000000000000000000 PUSH1 0x20 DUP3 ADD MSTORE PUSH1 0x40 ADD SWAP1 JUMP JUMPDEST PUSH1 0x1E DUP2 MSTORE PUSH32 0x4C454E4754485F475245415445525F5448414E5F305F52455155495245440000 PUSH1 0x20 DUP3 ADD MSTORE PUSH1 0x40 ADD SWAP1 JUMP JUMPDEST PUSH1 0x17 DUP2 MSTORE PUSH32 0x494E56414C49445F4E45575F4F524445525F45504F4348000000000000000000 PUSH1 0x20 DUP3 ADD MSTORE PUSH1 0x40 ADD SWAP1 JUMP JUMPDEST PUSH1 0x1E DUP2 MSTORE PUSH32 0x4C454E4754485F475245415445525F5448414E5F335F52455155495245440000 PUSH1 0x20 DUP3 ADD MSTORE PUSH1 0x40 ADD SWAP1 JUMP JUMPDEST PUSH1 0x14 DUP2 MSTORE PUSH32 0x434F4D504C4554455F46494C4C5F4641494C4544000000000000000000000000 PUSH1 0x20 DUP3 ADD MSTORE PUSH1 0x40 ADD SWAP1 JUMP JUMPDEST PUSH1 0x12 DUP2 MSTORE PUSH32 0x5245454E5452414E43595F494C4C4547414C0000000000000000000000000000 PUSH1 0x20 DUP3 ADD MSTORE PUSH1 0x40 ADD SWAP1 JUMP JUMPDEST PUSH1 0x13 DUP2 MSTORE PUSH32 0x4F4E4C595F434F4E54524143545F4F574E455200000000000000000000000000 PUSH1 0x20 DUP3 ADD MSTORE PUSH1 0x40 ADD SWAP1 JUMP JUMPDEST PUSH1 0x26 DUP2 MSTORE PUSH32 0x475245415445525F4F525F455155414C5F544F5F32305F4C454E4754485F5245 PUSH1 0x20 DUP3 ADD MSTORE PUSH32 0x5155495245440000000000000000000000000000000000000000000000000000 PUSH1 0x40 DUP3 ADD MSTORE PUSH1 0x60 ADD SWAP1 JUMP JUMPDEST PUSH1 0x10 DUP2 MSTORE PUSH32 0x4F524445525F554E46494C4C41424C4500000000000000000000000000000000 PUSH1 0x20 DUP3 ADD MSTORE PUSH1 0x40 ADD SWAP1 JUMP JUMPDEST PUSH1 0xE DUP2 MSTORE PUSH32 0x494E56414C49445F53454E444552000000000000000000000000000000000000 PUSH1 0x20 DUP3 ADD MSTORE PUSH1 0x40 ADD SWAP1 JUMP JUMPDEST PUSH1 0x18 DUP2 MSTORE PUSH32 0x4E454741544956455F5350524541445F52455155495245440000000000000000 PUSH1 0x20 DUP3 ADD MSTORE PUSH1 0x40 ADD SWAP1 JUMP JUMPDEST PUSH1 0x14 DUP2 MSTORE PUSH32 0x494E56414C49445F54585F5349474E4154555245000000000000000000000000 PUSH1 0x20 DUP3 ADD MSTORE PUSH1 0x40 ADD SWAP1 JUMP JUMPDEST PUSH1 0x11 DUP2 MSTORE PUSH32 0x4C454E4754485F305F5245515549524544000000000000000000000000000000 PUSH1 0x20 DUP3 ADD MSTORE PUSH1 0x40 ADD SWAP1 JUMP JUMPDEST DUP1 MLOAD PUSH1 0x80 DUP4 ADD SWAP1 PUSH2 0x4919 DUP5 DUP3 PUSH2 0x4336 JUMP JUMPDEST POP PUSH1 0x20 DUP3 ADD MLOAD PUSH2 0x492C PUSH1 0x20 DUP6 ADD DUP3 PUSH2 0x4336 JUMP JUMPDEST POP PUSH1 0x40 DUP3 ADD MLOAD PUSH2 0x493F PUSH1 0x40 DUP6 ADD DUP3 PUSH2 0x4336 JUMP JUMPDEST POP PUSH1 0x60 DUP3 ADD MLOAD PUSH2 0x2E00 PUSH1 0x60 DUP6 ADD DUP3 PUSH2 0x4336 JUMP JUMPDEST DUP1 MLOAD PUSH2 0x120 DUP4 ADD SWAP1 PUSH2 0x4964 DUP5 DUP3 PUSH2 0x4908 JUMP JUMPDEST POP PUSH1 0x20 DUP3 ADD MLOAD PUSH2 0x4977 PUSH1 0x80 DUP6 ADD DUP3 PUSH2 0x4908 JUMP JUMPDEST POP PUSH1 0x40 DUP3 ADD MLOAD PUSH2 0x2E00 PUSH2 0x100 DUP6 ADD DUP3 PUSH2 0x4336 JUMP JUMPDEST DUP1 MLOAD PUSH1 0x60 DUP4 ADD SWAP1 PUSH2 0x499C DUP5 DUP3 PUSH2 0x49C2 JUMP JUMPDEST POP PUSH1 0x20 DUP3 ADD MLOAD PUSH2 0x49AF PUSH1 0x20 DUP6 ADD DUP3 PUSH2 0x4336 JUMP JUMPDEST POP PUSH1 0x40 DUP3 ADD MLOAD PUSH2 0x2E00 PUSH1 0x40 DUP6 ADD DUP3 PUSH2 0x4336 JUMP JUMPDEST PUSH2 0x4327 DUP2 PUSH2 0x4E25 JUMP JUMPDEST PUSH1 0x20 DUP2 ADD PUSH2 0x24EB DUP3 DUP5 PUSH2 0x431E JUMP JUMPDEST PUSH2 0x100 DUP2 ADD PUSH2 0x49E8 DUP3 DUP12 PUSH2 0x431E JUMP JUMPDEST PUSH2 0x49F5 PUSH1 0x20 DUP4 ADD DUP11 PUSH2 0x431E JUMP JUMPDEST PUSH2 0x4A02 PUSH1 0x40 DUP4 ADD DUP10 PUSH2 0x4336 JUMP JUMPDEST PUSH2 0x4A0F PUSH1 0x60 DUP4 ADD DUP9 PUSH2 0x4336 JUMP JUMPDEST PUSH2 0x4A1C PUSH1 0x80 DUP4 ADD DUP8 PUSH2 0x4336 JUMP JUMPDEST PUSH2 0x4A29 PUSH1 0xA0 DUP4 ADD DUP7 PUSH2 0x4336 JUMP JUMPDEST DUP2 DUP2 SUB PUSH1 0xC0 DUP4 ADD MSTORE PUSH2 0x4A3B DUP2 DUP6 PUSH2 0x4348 JUMP JUMPDEST SWAP1 POP DUP2 DUP2 SUB PUSH1 0xE0 DUP4 ADD MSTORE PUSH2 0x4A4F DUP2 DUP5 PUSH2 0x4348 JUMP JUMPDEST SWAP11 SWAP10 POP POP POP POP POP POP POP POP POP POP JUMP JUMPDEST PUSH1 0x60 DUP2 ADD PUSH2 0x4A6B DUP3 DUP7 PUSH2 0x431E JUMP JUMPDEST DUP2 DUP2 SUB PUSH1 0x20 DUP4 ADD MSTORE PUSH2 0x4A7D DUP2 DUP6 PUSH2 0x4348 JUMP JUMPDEST SWAP1 POP DUP2 DUP2 SUB PUSH1 0x40 DUP4 ADD MSTORE PUSH2 0x4A91 DUP2 DUP5 PUSH2 0x4348 JUMP JUMPDEST SWAP6 SWAP5 POP POP POP POP POP JUMP JUMPDEST PUSH1 0x20 DUP2 ADD PUSH2 0x24EB DUP3 DUP5 PUSH2 0x432D JUMP JUMPDEST PUSH1 0x20 DUP2 ADD PUSH2 0x24EB DUP3 DUP5 PUSH2 0x4336 JUMP JUMPDEST PUSH1 0x60 DUP2 ADD PUSH2 0x4AC4 DUP3 DUP7 PUSH2 0x4336 JUMP JUMPDEST PUSH2 0x4AD1 PUSH1 0x20 DUP4 ADD DUP6 PUSH2 0x431E JUMP JUMPDEST DUP2 DUP2 SUB PUSH1 0x40 DUP4 ADD MSTORE PUSH2 0x4A91 DUP2 DUP5 PUSH2 0x4348 JUMP JUMPDEST PUSH1 0x40 DUP2 ADD PUSH2 0x4AF1 DUP3 DUP6 PUSH2 0x4336 JUMP JUMPDEST DUP2 DUP2 SUB PUSH1 0x20 DUP4 ADD MSTORE PUSH2 0x2C69 DUP2 DUP5 PUSH2 0x4348 JUMP JUMPDEST PUSH1 0x80 DUP2 ADD PUSH2 0x4B11 DUP3 DUP8 PUSH2 0x4336 JUMP JUMPDEST PUSH2 0x4B1E PUSH1 0x20 DUP4 ADD DUP7 PUSH2 0x49C2 JUMP JUMPDEST PUSH2 0x4B2B PUSH1 0x40 DUP4 ADD DUP6 PUSH2 0x4336 JUMP JUMPDEST PUSH2 0x4A91 PUSH1 0x60 DUP4 ADD DUP5 PUSH2 0x4336 JUMP JUMPDEST PUSH1 0x40 DUP2 ADD PUSH2 0x4B46 DUP3 DUP6 PUSH2 0x433F JUMP JUMPDEST PUSH2 0xF74 PUSH1 0x20 DUP4 ADD DUP5 PUSH2 0x431E JUMP JUMPDEST PUSH1 0x20 DUP1 DUP3 MSTORE DUP2 ADD PUSH2 0xF74 DUP2 DUP5 PUSH2 0x4348 JUMP JUMPDEST PUSH1 0x20 DUP2 ADD PUSH2 0x24EB DUP3 DUP5 PUSH2 0x437D JUMP JUMPDEST PUSH1 0x20 DUP1 DUP3 MSTORE DUP2 ADD PUSH2 0x24EB DUP2 PUSH2 0x4386 JUMP JUMPDEST PUSH1 0x20 DUP1 DUP3 MSTORE DUP2 ADD PUSH2 0x24EB DUP2 PUSH2 0x43B6 JUMP JUMPDEST PUSH1 0x20 DUP1 DUP3 MSTORE DUP2 ADD PUSH2 0x24EB DUP2 PUSH2 0x43E6 JUMP JUMPDEST PUSH1 0x20 DUP1 DUP3 MSTORE DUP2 ADD PUSH2 0x24EB DUP2 PUSH2 0x4416 JUMP JUMPDEST PUSH1 0x20 DUP1 DUP3 MSTORE DUP2 ADD PUSH2 0x24EB DUP2 PUSH2 0x446C JUMP JUMPDEST PUSH1 0x20 DUP1 DUP3 MSTORE DUP2 ADD PUSH2 0x24EB DUP2 PUSH2 0x449C JUMP JUMPDEST PUSH1 0x20 DUP1 DUP3 MSTORE DUP2 ADD PUSH2 0x24EB DUP2 PUSH2 0x44CC JUMP JUMPDEST PUSH1 0x20 DUP1 DUP3 MSTORE DUP2 ADD PUSH2 0x24EB DUP2 PUSH2 0x44FC JUMP JUMPDEST PUSH1 0x20 DUP1 DUP3 MSTORE DUP2 ADD PUSH2 0x24EB DUP2 PUSH2 0x452C JUMP JUMPDEST PUSH1 0x20 DUP1 DUP3 MSTORE DUP2 ADD PUSH2 0x24EB DUP2 PUSH2 0x455C JUMP JUMPDEST PUSH1 0x20 DUP1 DUP3 MSTORE DUP2 ADD PUSH2 0x24EB DUP2 PUSH2 0x458C JUMP JUMPDEST PUSH1 0x20 DUP1 DUP3 MSTORE DUP2 ADD PUSH2 0x24EB DUP2 PUSH2 0x45BC JUMP JUMPDEST PUSH1 0x20 DUP1 DUP3 MSTORE DUP2 ADD PUSH2 0x24EB DUP2 PUSH2 0x45EC JUMP JUMPDEST PUSH1 0x20 DUP1 DUP3 MSTORE DUP2 ADD PUSH2 0x24EB DUP2 PUSH2 0x461C JUMP JUMPDEST PUSH1 0x20 DUP1 DUP3 MSTORE DUP2 ADD PUSH2 0x24EB DUP2 PUSH2 0x4672 JUMP JUMPDEST PUSH1 0x20 DUP1 DUP3 MSTORE DUP2 ADD PUSH2 0x24EB DUP2 PUSH2 0x46A2 JUMP JUMPDEST PUSH1 0x20 DUP1 DUP3 MSTORE DUP2 ADD PUSH2 0x24EB DUP2 PUSH2 0x46D2 JUMP JUMPDEST PUSH1 0x20 DUP1 DUP3 MSTORE DUP2 ADD PUSH2 0x24EB DUP2 PUSH2 0x4702 JUMP JUMPDEST PUSH1 0x20 DUP1 DUP3 MSTORE DUP2 ADD PUSH2 0x24EB DUP2 PUSH2 0x4732 JUMP JUMPDEST PUSH1 0x20 DUP1 DUP3 MSTORE DUP2 ADD PUSH2 0x24EB DUP2 PUSH2 0x4762 JUMP JUMPDEST PUSH1 0x20 DUP1 DUP3 MSTORE DUP2 ADD PUSH2 0x24EB DUP2 PUSH2 0x4792 JUMP JUMPDEST PUSH1 0x20 DUP1 DUP3 MSTORE DUP2 ADD PUSH2 0x24EB DUP2 PUSH2 0x47C2 JUMP JUMPDEST PUSH1 0x20 DUP1 DUP3 MSTORE DUP2 ADD PUSH2 0x24EB DUP2 PUSH2 0x4818 JUMP JUMPDEST PUSH1 0x20 DUP1 DUP3 MSTORE DUP2 ADD PUSH2 0x24EB DUP2 PUSH2 0x4848 JUMP JUMPDEST PUSH1 0x20 DUP1 DUP3 MSTORE DUP2 ADD PUSH2 0x24EB DUP2 PUSH2 0x4878 JUMP JUMPDEST PUSH1 0x20 DUP1 DUP3 MSTORE DUP2 ADD PUSH2 0x24EB DUP2 PUSH2 0x48A8 JUMP JUMPDEST PUSH1 0x20 DUP1 DUP3 MSTORE DUP2 ADD PUSH2 0x24EB DUP2 PUSH2 0x48D8 JUMP JUMPDEST PUSH1 0x80 DUP2 ADD PUSH2 0x24EB DUP3 DUP5 PUSH2 0x4908 JUMP JUMPDEST PUSH2 0x120 DUP2 ADD PUSH2 0x24EB DUP3 DUP5 PUSH2 0x4952 JUMP JUMPDEST PUSH1 0x60 DUP2 ADD PUSH2 0x24EB DUP3 DUP5 PUSH2 0x498B JUMP JUMPDEST PUSH1 0x40 MLOAD DUP2 DUP2 ADD PUSH8 0xFFFFFFFFFFFFFFFF DUP2 GT DUP3 DUP3 LT OR ISZERO PUSH2 0x4D6C JUMPI PUSH1 0x0 DUP1 REVERT JUMPDEST PUSH1 0x40 MSTORE SWAP2 SWAP1 POP JUMP JUMPDEST PUSH1 0x0 PUSH8 0xFFFFFFFFFFFFFFFF DUP3 GT ISZERO PUSH2 0x4D8B JUMPI PUSH1 0x0 DUP1 REVERT JUMPDEST POP PUSH1 0x20 SWAP1 DUP2 MUL ADD SWAP1 JUMP JUMPDEST PUSH1 0x0 PUSH8 0xFFFFFFFFFFFFFFFF DUP3 GT ISZERO PUSH2 0x4DAC JUMPI PUSH1 0x0 DUP1 REVERT JUMPDEST POP PUSH1 0x20 PUSH1 0x1F SWAP2 SWAP1 SWAP2 ADD PUSH32 0xFFFFFFFFFFFFFFFFFFFFFFFFFFFFFFFFFFFFFFFFFFFFFFFFFFFFFFFFFFFFFFE0 AND ADD SWAP1 JUMP JUMPDEST MLOAD SWAP1 JUMP JUMPDEST PUSH20 0xFFFFFFFFFFFFFFFFFFFFFFFFFFFFFFFFFFFFFFFF AND SWAP1 JUMP JUMPDEST ISZERO ISZERO SWAP1 JUMP JUMPDEST SWAP1 JUMP JUMPDEST PUSH32 0xFFFFFFFF00000000000000000000000000000000000000000000000000000000 AND SWAP1 JUMP JUMPDEST PUSH1 0xFF AND SWAP1 JUMP JUMPDEST PUSH1 0x0 PUSH2 0x24EB DUP3 PUSH2 0x4DDF JUMP JUMPDEST DUP3 DUP2 DUP4 CALLDATACOPY POP PUSH1 0x0 SWAP2 ADD MSTORE JUMP JUMPDEST PUSH1 0x0 JUMPDEST DUP4 DUP2 LT ISZERO PUSH2 0x4E5D JUMPI DUP2 DUP2 ADD MLOAD DUP4 DUP3 ADD MSTORE PUSH1 0x20 ADD PUSH2 0x4E45 JUMP JUMPDEST DUP4 DUP2 GT ISZERO PUSH2 0x2E00 JUMPI POP POP PUSH1 0x0 SWAP2 ADD MSTORE JUMP JUMPDEST PUSH1 0x1F ADD PUSH32 0xFFFFFFFFFFFFFFFFFFFFFFFFFFFFFFFFFFFFFFFFFFFFFFFFFFFFFFFFFFFFFFE0 AND SWAP1 JUMP STOP LOG2 PUSH6 0x627A7A723058 KECCAK256 SIGNEXTEND 0xd2 0xea 0xba 0x4f RETURN SWAP11 JUMPI 0xe CODECOPY CALL 0xd5 SWAP13 POP 0x28 0xc5 0x27 PUSH6 0x6C4CA9F2056 PUSH13 0xD5328A8887D16A6C6578706572 PUSH10 0x6D656E74616CF5003700 "
			}
		}
	},
	"sourceTreeHashHex": "0xa862d06d390757b6ffa38da125eabc98e816c6e9467f6afd56ffb9f964da1733",
	"compiler": {
		"name": "solc",
		"version": "soljson-v0.4.24+commit.e67f0147.js",
		"settings": {
			"optimizer": {
				"enabled": true,
				"runs": 1000000
			},
			"outputSelection": {
				"*": {
					"*": [
						"abi",
						"evm.bytecode.object",
						"evm.bytecode.sourceMap",
						"evm.deployedBytecode.object",
						"evm.deployedBytecode.sourceMap"
					]
				}
			}
		}
	}
}