{
	"schemaVersion": "2.0.0",
	"contractName": "Exchange",
	"compilerOutput": {
		"abi": [
			{
				"constant": true,
				"inputs": [
					{
						"name": "",
						"type": "bytes32"
					}
				],
				"name": "filled",
				"outputs": [
					{
						"name": "",
						"type": "uint256"
					}
				],
				"payable": false,
				"stateMutability": "view",
				"type": "function"
			},
			{
				"constant": false,
				"inputs": [
					{
						"components": [
							{
								"name": "makerAddress",
								"type": "address"
							},
							{
								"name": "takerAddress",
								"type": "address"
							},
							{
								"name": "feeRecipientAddress",
								"type": "address"
							},
							{
								"name": "senderAddress",
								"type": "address"
							},
							{
								"name": "makerAssetAmount",
								"type": "uint256"
							},
							{
								"name": "takerAssetAmount",
								"type": "uint256"
							},
							{
								"name": "makerFee",
								"type": "uint256"
							},
							{
								"name": "takerFee",
								"type": "uint256"
							},
							{
								"name": "expirationTimeSeconds",
								"type": "uint256"
							},
							{
								"name": "salt",
								"type": "uint256"
							},
							{
								"name": "makerAssetData",
								"type": "bytes"
							},
							{
								"name": "takerAssetData",
								"type": "bytes"
							}
						],
						"name": "orders",
						"type": "tuple[]"
					},
					{
						"name": "takerAssetFillAmounts",
						"type": "uint256[]"
					},
					{
						"name": "signatures",
						"type": "bytes[]"
					}
				],
				"name": "batchFillOrders",
				"outputs": [
					{
						"components": [
							{
								"name": "makerAssetFilledAmount",
								"type": "uint256"
							},
							{
								"name": "takerAssetFilledAmount",
								"type": "uint256"
							},
							{
								"name": "makerFeePaid",
								"type": "uint256"
							},
							{
								"name": "takerFeePaid",
								"type": "uint256"
							}
						],
						"name": "totalFillResults",
						"type": "tuple"
					}
				],
				"payable": false,
				"stateMutability": "nonpayable",
				"type": "function"
			},
			{
				"constant": true,
				"inputs": [
					{
						"name": "",
						"type": "bytes32"
					}
				],
				"name": "cancelled",
				"outputs": [
					{
						"name": "",
						"type": "bool"
					}
				],
				"payable": false,
				"stateMutability": "view",
				"type": "function"
			},
			{
				"constant": false,
				"inputs": [
					{
						"name": "hash",
						"type": "bytes32"
					},
					{
						"name": "signerAddress",
						"type": "address"
					},
					{
						"name": "signature",
						"type": "bytes"
					}
				],
				"name": "preSign",
				"outputs": [],
				"payable": false,
				"stateMutability": "nonpayable",
				"type": "function"
			},
			{
				"constant": false,
				"inputs": [
					{
						"components": [
							{
								"name": "makerAddress",
								"type": "address"
							},
							{
								"name": "takerAddress",
								"type": "address"
							},
							{
								"name": "feeRecipientAddress",
								"type": "address"
							},
							{
								"name": "senderAddress",
								"type": "address"
							},
							{
								"name": "makerAssetAmount",
								"type": "uint256"
							},
							{
								"name": "takerAssetAmount",
								"type": "uint256"
							},
							{
								"name": "makerFee",
								"type": "uint256"
							},
							{
								"name": "takerFee",
								"type": "uint256"
							},
							{
								"name": "expirationTimeSeconds",
								"type": "uint256"
							},
							{
								"name": "salt",
								"type": "uint256"
							},
							{
								"name": "makerAssetData",
								"type": "bytes"
							},
							{
								"name": "takerAssetData",
								"type": "bytes"
							}
						],
						"name": "leftOrder",
						"type": "tuple"
					},
					{
						"components": [
							{
								"name": "makerAddress",
								"type": "address"
							},
							{
								"name": "takerAddress",
								"type": "address"
							},
							{
								"name": "feeRecipientAddress",
								"type": "address"
							},
							{
								"name": "senderAddress",
								"type": "address"
							},
							{
								"name": "makerAssetAmount",
								"type": "uint256"
							},
							{
								"name": "takerAssetAmount",
								"type": "uint256"
							},
							{
								"name": "makerFee",
								"type": "uint256"
							},
							{
								"name": "takerFee",
								"type": "uint256"
							},
							{
								"name": "expirationTimeSeconds",
								"type": "uint256"
							},
							{
								"name": "salt",
								"type": "uint256"
							},
							{
								"name": "makerAssetData",
								"type": "bytes"
							},
							{
								"name": "takerAssetData",
								"type": "bytes"
							}
						],
						"name": "rightOrder",
						"type": "tuple"
					},
					{
						"name": "leftSignature",
						"type": "bytes"
					},
					{
						"name": "rightSignature",
						"type": "bytes"
					}
				],
				"name": "matchOrders",
				"outputs": [
					{
						"components": [
							{
								"components": [
									{
										"name": "makerAssetFilledAmount",
										"type": "uint256"
									},
									{
										"name": "takerAssetFilledAmount",
										"type": "uint256"
									},
									{
										"name": "makerFeePaid",
										"type": "uint256"
									},
									{
										"name": "takerFeePaid",
										"type": "uint256"
									}
								],
								"name": "left",
								"type": "tuple"
							},
							{
								"components": [
									{
										"name": "makerAssetFilledAmount",
										"type": "uint256"
									},
									{
										"name": "takerAssetFilledAmount",
										"type": "uint256"
									},
									{
										"name": "makerFeePaid",
										"type": "uint256"
									},
									{
										"name": "takerFeePaid",
										"type": "uint256"
									}
								],
								"name": "right",
								"type": "tuple"
							},
							{
								"name": "leftMakerAssetSpreadAmount",
								"type": "uint256"
							}
						],
						"name": "matchedFillResults",
						"type": "tuple"
					}
				],
				"payable": false,
				"stateMutability": "nonpayable",
				"type": "function"
			},
			{
				"constant": false,
				"inputs": [
					{
						"components": [
							{
								"name": "makerAddress",
								"type": "address"
							},
							{
								"name": "takerAddress",
								"type": "address"
							},
							{
								"name": "feeRecipientAddress",
								"type": "address"
							},
							{
								"name": "senderAddress",
								"type": "address"
							},
							{
								"name": "makerAssetAmount",
								"type": "uint256"
							},
							{
								"name": "takerAssetAmount",
								"type": "uint256"
							},
							{
								"name": "makerFee",
								"type": "uint256"
							},
							{
								"name": "takerFee",
								"type": "uint256"
							},
							{
								"name": "expirationTimeSeconds",
								"type": "uint256"
							},
							{
								"name": "salt",
								"type": "uint256"
							},
							{
								"name": "makerAssetData",
								"type": "bytes"
							},
							{
								"name": "takerAssetData",
								"type": "bytes"
							}
						],
						"name": "order",
						"type": "tuple"
					},
					{
						"name": "takerAssetFillAmount",
						"type": "uint256"
					},
					{
						"name": "signature",
						"type": "bytes"
					}
				],
				"name": "fillOrderNoThrow",
				"outputs": [
					{
						"components": [
							{
								"name": "makerAssetFilledAmount",
								"type": "uint256"
							},
							{
								"name": "takerAssetFilledAmount",
								"type": "uint256"
							},
							{
								"name": "makerFeePaid",
								"type": "uint256"
							},
							{
								"name": "takerFeePaid",
								"type": "uint256"
							}
						],
						"name": "fillResults",
						"type": "tuple"
					}
				],
				"payable": false,
				"stateMutability": "nonpayable",
				"type": "function"
			},
			{
				"constant": true,
				"inputs": [
					{
						"name": "",
						"type": "bytes4"
					}
				],
				"name": "assetProxies",
				"outputs": [
					{
						"name": "",
						"type": "address"
					}
				],
				"payable": false,
				"stateMutability": "view",
				"type": "function"
			},
			{
				"constant": false,
				"inputs": [
					{
						"components": [
							{
								"name": "makerAddress",
								"type": "address"
							},
							{
								"name": "takerAddress",
								"type": "address"
							},
							{
								"name": "feeRecipientAddress",
								"type": "address"
							},
							{
								"name": "senderAddress",
								"type": "address"
							},
							{
								"name": "makerAssetAmount",
								"type": "uint256"
							},
							{
								"name": "takerAssetAmount",
								"type": "uint256"
							},
							{
								"name": "makerFee",
								"type": "uint256"
							},
							{
								"name": "takerFee",
								"type": "uint256"
							},
							{
								"name": "expirationTimeSeconds",
								"type": "uint256"
							},
							{
								"name": "salt",
								"type": "uint256"
							},
							{
								"name": "makerAssetData",
								"type": "bytes"
							},
							{
								"name": "takerAssetData",
								"type": "bytes"
							}
						],
						"name": "orders",
						"type": "tuple[]"
					}
				],
				"name": "batchCancelOrders",
				"outputs": [],
				"payable": false,
				"stateMutability": "nonpayable",
				"type": "function"
			},
			{
				"constant": false,
				"inputs": [
					{
						"components": [
							{
								"name": "makerAddress",
								"type": "address"
							},
							{
								"name": "takerAddress",
								"type": "address"
							},
							{
								"name": "feeRecipientAddress",
								"type": "address"
							},
							{
								"name": "senderAddress",
								"type": "address"
							},
							{
								"name": "makerAssetAmount",
								"type": "uint256"
							},
							{
								"name": "takerAssetAmount",
								"type": "uint256"
							},
							{
								"name": "makerFee",
								"type": "uint256"
							},
							{
								"name": "takerFee",
								"type": "uint256"
							},
							{
								"name": "expirationTimeSeconds",
								"type": "uint256"
							},
							{
								"name": "salt",
								"type": "uint256"
							},
							{
								"name": "makerAssetData",
								"type": "bytes"
							},
							{
								"name": "takerAssetData",
								"type": "bytes"
							}
						],
						"name": "orders",
						"type": "tuple[]"
					},
					{
						"name": "takerAssetFillAmounts",
						"type": "uint256[]"
					},
					{
						"name": "signatures",
						"type": "bytes[]"
					}
				],
				"name": "batchFillOrKillOrders",
				"outputs": [
					{
						"components": [
							{
								"name": "makerAssetFilledAmount",
								"type": "uint256"
							},
							{
								"name": "takerAssetFilledAmount",
								"type": "uint256"
							},
							{
								"name": "makerFeePaid",
								"type": "uint256"
							},
							{
								"name": "takerFeePaid",
								"type": "uint256"
							}
						],
						"name": "totalFillResults",
						"type": "tuple"
					}
				],
				"payable": false,
				"stateMutability": "nonpayable",
				"type": "function"
			},
			{
				"constant": false,
				"inputs": [
					{
						"name": "targetOrderEpoch",
						"type": "uint256"
					}
				],
				"name": "cancelOrdersUpTo",
				"outputs": [],
				"payable": false,
				"stateMutability": "nonpayable",
				"type": "function"
			},
			{
				"constant": false,
				"inputs": [
					{
						"components": [
							{
								"name": "makerAddress",
								"type": "address"
							},
							{
								"name": "takerAddress",
								"type": "address"
							},
							{
								"name": "feeRecipientAddress",
								"type": "address"
							},
							{
								"name": "senderAddress",
								"type": "address"
							},
							{
								"name": "makerAssetAmount",
								"type": "uint256"
							},
							{
								"name": "takerAssetAmount",
								"type": "uint256"
							},
							{
								"name": "makerFee",
								"type": "uint256"
							},
							{
								"name": "takerFee",
								"type": "uint256"
							},
							{
								"name": "expirationTimeSeconds",
								"type": "uint256"
							},
							{
								"name": "salt",
								"type": "uint256"
							},
							{
								"name": "makerAssetData",
								"type": "bytes"
							},
							{
								"name": "takerAssetData",
								"type": "bytes"
							}
						],
						"name": "orders",
						"type": "tuple[]"
					},
					{
						"name": "takerAssetFillAmounts",
						"type": "uint256[]"
					},
					{
						"name": "signatures",
						"type": "bytes[]"
					}
				],
				"name": "batchFillOrdersNoThrow",
				"outputs": [
					{
						"components": [
							{
								"name": "makerAssetFilledAmount",
								"type": "uint256"
							},
							{
								"name": "takerAssetFilledAmount",
								"type": "uint256"
							},
							{
								"name": "makerFeePaid",
								"type": "uint256"
							},
							{
								"name": "takerFeePaid",
								"type": "uint256"
							}
						],
						"name": "totalFillResults",
						"type": "tuple"
					}
				],
				"payable": false,
				"stateMutability": "nonpayable",
				"type": "function"
			},
			{
				"constant": true,
				"inputs": [
					{
						"name": "assetProxyId",
						"type": "bytes4"
					}
				],
				"name": "getAssetProxy",
				"outputs": [
					{
						"name": "",
						"type": "address"
					}
				],
				"payable": false,
				"stateMutability": "view",
				"type": "function"
			},
			{
				"constant": true,
				"inputs": [
					{
						"name": "",
						"type": "bytes32"
					}
				],
				"name": "transactions",
				"outputs": [
					{
						"name": "",
						"type": "bool"
					}
				],
				"payable": false,
				"stateMutability": "view",
				"type": "function"
			},
			{
				"constant": false,
				"inputs": [
					{
						"components": [
							{
								"name": "makerAddress",
								"type": "address"
							},
							{
								"name": "takerAddress",
								"type": "address"
							},
							{
								"name": "feeRecipientAddress",
								"type": "address"
							},
							{
								"name": "senderAddress",
								"type": "address"
							},
							{
								"name": "makerAssetAmount",
								"type": "uint256"
							},
							{
								"name": "takerAssetAmount",
								"type": "uint256"
							},
							{
								"name": "makerFee",
								"type": "uint256"
							},
							{
								"name": "takerFee",
								"type": "uint256"
							},
							{
								"name": "expirationTimeSeconds",
								"type": "uint256"
							},
							{
								"name": "salt",
								"type": "uint256"
							},
							{
								"name": "makerAssetData",
								"type": "bytes"
							},
							{
								"name": "takerAssetData",
								"type": "bytes"
							}
						],
						"name": "order",
						"type": "tuple"
					},
					{
						"name": "takerAssetFillAmount",
						"type": "uint256"
					},
					{
						"name": "signature",
						"type": "bytes"
					}
				],
				"name": "fillOrKillOrder",
				"outputs": [
					{
						"components": [
							{
								"name": "makerAssetFilledAmount",
								"type": "uint256"
							},
							{
								"name": "takerAssetFilledAmount",
								"type": "uint256"
							},
							{
								"name": "makerFeePaid",
								"type": "uint256"
							},
							{
								"name": "takerFeePaid",
								"type": "uint256"
							}
						],
						"name": "fillResults",
						"type": "tuple"
					}
				],
				"payable": false,
				"stateMutability": "nonpayable",
				"type": "function"
			},
			{
				"constant": false,
				"inputs": [
					{
						"name": "validatorAddress",
						"type": "address"
					},
					{
						"name": "approval",
						"type": "bool"
					}
				],
				"name": "setSignatureValidatorApproval",
				"outputs": [],
				"payable": false,
				"stateMutability": "nonpayable",
				"type": "function"
			},
			{
				"constant": true,
				"inputs": [
					{
						"name": "",
						"type": "address"
					},
					{
						"name": "",
						"type": "address"
					}
				],
				"name": "allowedValidators",
				"outputs": [
					{
						"name": "",
						"type": "bool"
					}
				],
				"payable": false,
				"stateMutability": "view",
				"type": "function"
			},
			{
				"constant": false,
				"inputs": [
					{
						"components": [
							{
								"name": "makerAddress",
								"type": "address"
							},
							{
								"name": "takerAddress",
								"type": "address"
							},
							{
								"name": "feeRecipientAddress",
								"type": "address"
							},
							{
								"name": "senderAddress",
								"type": "address"
							},
							{
								"name": "makerAssetAmount",
								"type": "uint256"
							},
							{
								"name": "takerAssetAmount",
								"type": "uint256"
							},
							{
								"name": "makerFee",
								"type": "uint256"
							},
							{
								"name": "takerFee",
								"type": "uint256"
							},
							{
								"name": "expirationTimeSeconds",
								"type": "uint256"
							},
							{
								"name": "salt",
								"type": "uint256"
							},
							{
								"name": "makerAssetData",
								"type": "bytes"
							},
							{
								"name": "takerAssetData",
								"type": "bytes"
							}
						],
						"name": "orders",
						"type": "tuple[]"
					},
					{
						"name": "takerAssetFillAmount",
						"type": "uint256"
					},
					{
						"name": "signatures",
						"type": "bytes[]"
					}
				],
				"name": "marketSellOrders",
				"outputs": [
					{
						"components": [
							{
								"name": "makerAssetFilledAmount",
								"type": "uint256"
							},
							{
								"name": "takerAssetFilledAmount",
								"type": "uint256"
							},
							{
								"name": "makerFeePaid",
								"type": "uint256"
							},
							{
								"name": "takerFeePaid",
								"type": "uint256"
							}
						],
						"name": "totalFillResults",
						"type": "tuple"
					}
				],
				"payable": false,
				"stateMutability": "nonpayable",
				"type": "function"
			},
			{
				"constant": true,
				"inputs": [
					{
						"components": [
							{
								"name": "makerAddress",
								"type": "address"
							},
							{
								"name": "takerAddress",
								"type": "address"
							},
							{
								"name": "feeRecipientAddress",
								"type": "address"
							},
							{
								"name": "senderAddress",
								"type": "address"
							},
							{
								"name": "makerAssetAmount",
								"type": "uint256"
							},
							{
								"name": "takerAssetAmount",
								"type": "uint256"
							},
							{
								"name": "makerFee",
								"type": "uint256"
							},
							{
								"name": "takerFee",
								"type": "uint256"
							},
							{
								"name": "expirationTimeSeconds",
								"type": "uint256"
							},
							{
								"name": "salt",
								"type": "uint256"
							},
							{
								"name": "makerAssetData",
								"type": "bytes"
							},
							{
								"name": "takerAssetData",
								"type": "bytes"
							}
						],
						"name": "orders",
						"type": "tuple[]"
					}
				],
				"name": "getOrdersInfo",
				"outputs": [
					{
						"components": [
							{
								"name": "orderStatus",
								"type": "uint8"
							},
							{
								"name": "orderHash",
								"type": "bytes32"
							},
							{
								"name": "orderTakerAssetFilledAmount",
								"type": "uint256"
							}
						],
						"name": "",
						"type": "tuple[]"
					}
				],
				"payable": false,
				"stateMutability": "view",
				"type": "function"
			},
			{
				"constant": true,
				"inputs": [
					{
						"name": "",
						"type": "bytes32"
					},
					{
						"name": "",
						"type": "address"
					}
				],
				"name": "preSigned",
				"outputs": [
					{
						"name": "",
						"type": "bool"
					}
				],
				"payable": false,
				"stateMutability": "view",
				"type": "function"
			},
			{
				"constant": true,
				"inputs": [],
				"name": "owner",
				"outputs": [
					{
						"name": "",
						"type": "address"
					}
				],
				"payable": false,
				"stateMutability": "view",
				"type": "function"
			},
			{
				"constant": true,
				"inputs": [
					{
						"name": "hash",
						"type": "bytes32"
					},
					{
						"name": "signerAddress",
						"type": "address"
					},
					{
						"name": "signature",
						"type": "bytes"
					}
				],
				"name": "isValidSignature",
				"outputs": [
					{
						"name": "isValid",
						"type": "bool"
					}
				],
				"payable": false,
				"stateMutability": "view",
				"type": "function"
			},
			{
				"constant": false,
				"inputs": [
					{
						"components": [
							{
								"name": "makerAddress",
								"type": "address"
							},
							{
								"name": "takerAddress",
								"type": "address"
							},
							{
								"name": "feeRecipientAddress",
								"type": "address"
							},
							{
								"name": "senderAddress",
								"type": "address"
							},
							{
								"name": "makerAssetAmount",
								"type": "uint256"
							},
							{
								"name": "takerAssetAmount",
								"type": "uint256"
							},
							{
								"name": "makerFee",
								"type": "uint256"
							},
							{
								"name": "takerFee",
								"type": "uint256"
							},
							{
								"name": "expirationTimeSeconds",
								"type": "uint256"
							},
							{
								"name": "salt",
								"type": "uint256"
							},
							{
								"name": "makerAssetData",
								"type": "bytes"
							},
							{
								"name": "takerAssetData",
								"type": "bytes"
							}
						],
						"name": "orders",
						"type": "tuple[]"
					},
					{
						"name": "makerAssetFillAmount",
						"type": "uint256"
					},
					{
						"name": "signatures",
						"type": "bytes[]"
					}
				],
				"name": "marketBuyOrdersNoThrow",
				"outputs": [
					{
						"components": [
							{
								"name": "makerAssetFilledAmount",
								"type": "uint256"
							},
							{
								"name": "takerAssetFilledAmount",
								"type": "uint256"
							},
							{
								"name": "makerFeePaid",
								"type": "uint256"
							},
							{
								"name": "takerFeePaid",
								"type": "uint256"
							}
						],
						"name": "totalFillResults",
						"type": "tuple"
					}
				],
				"payable": false,
				"stateMutability": "nonpayable",
				"type": "function"
			},
			{
				"constant": false,
				"inputs": [
					{
						"components": [
							{
								"name": "makerAddress",
								"type": "address"
							},
							{
								"name": "takerAddress",
								"type": "address"
							},
							{
								"name": "feeRecipientAddress",
								"type": "address"
							},
							{
								"name": "senderAddress",
								"type": "address"
							},
							{
								"name": "makerAssetAmount",
								"type": "uint256"
							},
							{
								"name": "takerAssetAmount",
								"type": "uint256"
							},
							{
								"name": "makerFee",
								"type": "uint256"
							},
							{
								"name": "takerFee",
								"type": "uint256"
							},
							{
								"name": "expirationTimeSeconds",
								"type": "uint256"
							},
							{
								"name": "salt",
								"type": "uint256"
							},
							{
								"name": "makerAssetData",
								"type": "bytes"
							},
							{
								"name": "takerAssetData",
								"type": "bytes"
							}
						],
						"name": "order",
						"type": "tuple"
					},
					{
						"name": "takerAssetFillAmount",
						"type": "uint256"
					},
					{
						"name": "signature",
						"type": "bytes"
					}
				],
				"name": "fillOrder",
				"outputs": [
					{
						"components": [
							{
								"name": "makerAssetFilledAmount",
								"type": "uint256"
							},
							{
								"name": "takerAssetFilledAmount",
								"type": "uint256"
							},
							{
								"name": "makerFeePaid",
								"type": "uint256"
							},
							{
								"name": "takerFeePaid",
								"type": "uint256"
							}
						],
						"name": "fillResults",
						"type": "tuple"
					}
				],
				"payable": false,
				"stateMutability": "nonpayable",
				"type": "function"
			},
			{
				"constant": false,
				"inputs": [
					{
						"name": "salt",
						"type": "uint256"
					},
					{
						"name": "signerAddress",
						"type": "address"
					},
					{
						"name": "data",
						"type": "bytes"
					},
					{
						"name": "signature",
						"type": "bytes"
					}
				],
				"name": "executeTransaction",
				"outputs": [],
				"payable": false,
				"stateMutability": "nonpayable",
				"type": "function"
			},
			{
				"constant": false,
				"inputs": [
					{
						"name": "assetProxy",
						"type": "address"
					}
				],
				"name": "registerAssetProxy",
				"outputs": [],
				"payable": false,
				"stateMutability": "nonpayable",
				"type": "function"
			},
			{
				"constant": true,
				"inputs": [
					{
						"components": [
							{
								"name": "makerAddress",
								"type": "address"
							},
							{
								"name": "takerAddress",
								"type": "address"
							},
							{
								"name": "feeRecipientAddress",
								"type": "address"
							},
							{
								"name": "senderAddress",
								"type": "address"
							},
							{
								"name": "makerAssetAmount",
								"type": "uint256"
							},
							{
								"name": "takerAssetAmount",
								"type": "uint256"
							},
							{
								"name": "makerFee",
								"type": "uint256"
							},
							{
								"name": "takerFee",
								"type": "uint256"
							},
							{
								"name": "expirationTimeSeconds",
								"type": "uint256"
							},
							{
								"name": "salt",
								"type": "uint256"
							},
							{
								"name": "makerAssetData",
								"type": "bytes"
							},
							{
								"name": "takerAssetData",
								"type": "bytes"
							}
						],
						"name": "order",
						"type": "tuple"
					}
				],
				"name": "getOrderInfo",
				"outputs": [
					{
						"components": [
							{
								"name": "orderStatus",
								"type": "uint8"
							},
							{
								"name": "orderHash",
								"type": "bytes32"
							},
							{
								"name": "orderTakerAssetFilledAmount",
								"type": "uint256"
							}
						],
						"name": "orderInfo",
						"type": "tuple"
					}
				],
				"payable": false,
				"stateMutability": "view",
				"type": "function"
			},
			{
				"constant": false,
				"inputs": [
					{
						"components": [
							{
								"name": "makerAddress",
								"type": "address"
							},
							{
								"name": "takerAddress",
								"type": "address"
							},
							{
								"name": "feeRecipientAddress",
								"type": "address"
							},
							{
								"name": "senderAddress",
								"type": "address"
							},
							{
								"name": "makerAssetAmount",
								"type": "uint256"
							},
							{
								"name": "takerAssetAmount",
								"type": "uint256"
							},
							{
								"name": "makerFee",
								"type": "uint256"
							},
							{
								"name": "takerFee",
								"type": "uint256"
							},
							{
								"name": "expirationTimeSeconds",
								"type": "uint256"
							},
							{
								"name": "salt",
								"type": "uint256"
							},
							{
								"name": "makerAssetData",
								"type": "bytes"
							},
							{
								"name": "takerAssetData",
								"type": "bytes"
							}
						],
						"name": "order",
						"type": "tuple"
					}
				],
				"name": "cancelOrder",
				"outputs": [],
				"payable": false,
				"stateMutability": "nonpayable",
				"type": "function"
			},
			{
				"constant": true,
				"inputs": [
					{
						"name": "",
						"type": "address"
					},
					{
						"name": "",
						"type": "address"
					}
				],
				"name": "orderEpoch",
				"outputs": [
					{
						"name": "",
						"type": "uint256"
					}
				],
				"payable": false,
				"stateMutability": "view",
				"type": "function"
			},
			{
				"constant": true,
				"inputs": [],
				"name": "ZRX_ASSET_DATA",
				"outputs": [
					{
						"name": "",
						"type": "bytes"
					}
				],
				"payable": false,
				"stateMutability": "view",
				"type": "function"
			},
			{
				"constant": false,
				"inputs": [
					{
						"components": [
							{
								"name": "makerAddress",
								"type": "address"
							},
							{
								"name": "takerAddress",
								"type": "address"
							},
							{
								"name": "feeRecipientAddress",
								"type": "address"
							},
							{
								"name": "senderAddress",
								"type": "address"
							},
							{
								"name": "makerAssetAmount",
								"type": "uint256"
							},
							{
								"name": "takerAssetAmount",
								"type": "uint256"
							},
							{
								"name": "makerFee",
								"type": "uint256"
							},
							{
								"name": "takerFee",
								"type": "uint256"
							},
							{
								"name": "expirationTimeSeconds",
								"type": "uint256"
							},
							{
								"name": "salt",
								"type": "uint256"
							},
							{
								"name": "makerAssetData",
								"type": "bytes"
							},
							{
								"name": "takerAssetData",
								"type": "bytes"
							}
						],
						"name": "orders",
						"type": "tuple[]"
					},
					{
						"name": "takerAssetFillAmount",
						"type": "uint256"
					},
					{
						"name": "signatures",
						"type": "bytes[]"
					}
				],
				"name": "marketSellOrdersNoThrow",
				"outputs": [
					{
						"components": [
							{
								"name": "makerAssetFilledAmount",
								"type": "uint256"
							},
							{
								"name": "takerAssetFilledAmount",
								"type": "uint256"
							},
							{
								"name": "makerFeePaid",
								"type": "uint256"
							},
							{
								"name": "takerFeePaid",
								"type": "uint256"
							}
						],
						"name": "totalFillResults",
						"type": "tuple"
					}
				],
				"payable": false,
				"stateMutability": "nonpayable",
				"type": "function"
			},
			{
				"constant": true,
				"inputs": [],
				"name": "EIP712_DOMAIN_HASH",
				"outputs": [
					{
						"name": "",
						"type": "bytes32"
					}
				],
				"payable": false,
				"stateMutability": "view",
				"type": "function"
			},
			{
				"constant": false,
				"inputs": [
					{
						"components": [
							{
								"name": "makerAddress",
								"type": "address"
							},
							{
								"name": "takerAddress",
								"type": "address"
							},
							{
								"name": "feeRecipientAddress",
								"type": "address"
							},
							{
								"name": "senderAddress",
								"type": "address"
							},
							{
								"name": "makerAssetAmount",
								"type": "uint256"
							},
							{
								"name": "takerAssetAmount",
								"type": "uint256"
							},
							{
								"name": "makerFee",
								"type": "uint256"
							},
							{
								"name": "takerFee",
								"type": "uint256"
							},
							{
								"name": "expirationTimeSeconds",
								"type": "uint256"
							},
							{
								"name": "salt",
								"type": "uint256"
							},
							{
								"name": "makerAssetData",
								"type": "bytes"
							},
							{
								"name": "takerAssetData",
								"type": "bytes"
							}
						],
						"name": "orders",
						"type": "tuple[]"
					},
					{
						"name": "makerAssetFillAmount",
						"type": "uint256"
					},
					{
						"name": "signatures",
						"type": "bytes[]"
					}
				],
				"name": "marketBuyOrders",
				"outputs": [
					{
						"components": [
							{
								"name": "makerAssetFilledAmount",
								"type": "uint256"
							},
							{
								"name": "takerAssetFilledAmount",
								"type": "uint256"
							},
							{
								"name": "makerFeePaid",
								"type": "uint256"
							},
							{
								"name": "takerFeePaid",
								"type": "uint256"
							}
						],
						"name": "totalFillResults",
						"type": "tuple"
					}
				],
				"payable": false,
				"stateMutability": "nonpayable",
				"type": "function"
			},
			{
				"constant": true,
				"inputs": [],
				"name": "currentContextAddress",
				"outputs": [
					{
						"name": "",
						"type": "address"
					}
				],
				"payable": false,
				"stateMutability": "view",
				"type": "function"
			},
			{
				"constant": false,
				"inputs": [
					{
						"name": "newOwner",
						"type": "address"
					}
				],
				"name": "transferOwnership",
				"outputs": [],
				"payable": false,
				"stateMutability": "nonpayable",
				"type": "function"
			},
			{
				"constant": true,
				"inputs": [],
				"name": "VERSION",
				"outputs": [
					{
						"name": "",
						"type": "string"
					}
				],
				"payable": false,
				"stateMutability": "view",
				"type": "function"
			},
			{
				"inputs": [],
				"payable": false,
				"stateMutability": "nonpayable",
				"type": "constructor"
			},
			{
				"anonymous": false,
				"inputs": [
					{
						"indexed": true,
						"name": "signerAddress",
						"type": "address"
					},
					{
						"indexed": true,
						"name": "validatorAddress",
						"type": "address"
					},
					{
						"indexed": false,
						"name": "approved",
						"type": "bool"
					}
				],
				"name": "SignatureValidatorApproval",
				"type": "event"
			},
			{
				"anonymous": false,
				"inputs": [
					{
						"indexed": true,
						"name": "makerAddress",
						"type": "address"
					},
					{
						"indexed": true,
						"name": "feeRecipientAddress",
						"type": "address"
					},
					{
						"indexed": false,
						"name": "takerAddress",
						"type": "address"
					},
					{
						"indexed": false,
						"name": "senderAddress",
						"type": "address"
					},
					{
						"indexed": false,
						"name": "makerAssetFilledAmount",
						"type": "uint256"
					},
					{
						"indexed": false,
						"name": "takerAssetFilledAmount",
						"type": "uint256"
					},
					{
						"indexed": false,
						"name": "makerFeePaid",
						"type": "uint256"
					},
					{
						"indexed": false,
						"name": "takerFeePaid",
						"type": "uint256"
					},
					{
						"indexed": true,
						"name": "orderHash",
						"type": "bytes32"
					},
					{
						"indexed": false,
						"name": "makerAssetData",
						"type": "bytes"
					},
					{
						"indexed": false,
						"name": "takerAssetData",
						"type": "bytes"
					}
				],
				"name": "Fill",
				"type": "event"
			},
			{
				"anonymous": false,
				"inputs": [
					{
						"indexed": true,
						"name": "makerAddress",
						"type": "address"
					},
					{
						"indexed": true,
						"name": "feeRecipientAddress",
						"type": "address"
					},
					{
						"indexed": false,
						"name": "senderAddress",
						"type": "address"
					},
					{
						"indexed": true,
						"name": "orderHash",
						"type": "bytes32"
					},
					{
						"indexed": false,
						"name": "makerAssetData",
						"type": "bytes"
					},
					{
						"indexed": false,
						"name": "takerAssetData",
						"type": "bytes"
					}
				],
				"name": "Cancel",
				"type": "event"
			},
			{
				"anonymous": false,
				"inputs": [
					{
						"indexed": true,
						"name": "makerAddress",
						"type": "address"
					},
					{
						"indexed": true,
						"name": "senderAddress",
						"type": "address"
					},
					{
						"indexed": false,
						"name": "orderEpoch",
						"type": "uint256"
					}
				],
				"name": "CancelUpTo",
				"type": "event"
			},
			{
				"anonymous": false,
				"inputs": [
					{
						"indexed": false,
						"name": "id",
						"type": "bytes4"
					},
					{
						"indexed": false,
						"name": "assetProxy",
						"type": "address"
					}
				],
				"name": "AssetProxyRegistered",
				"type": "event"
			}
		],
		"evm": {
			"bytecode": {
				"linkReferences": {},
				"object": "0x60806040526000805460ff191690553480156200001b57600080fd5b50604080517f454950373132446f6d61696e28000000000000000000000000000000000000006020808301919091527f737472696e67206e616d652c0000000000000000000000000000000000000000602d8301527f737472696e672076657273696f6e2c000000000000000000000000000000000060398301527f6164647265737320766572696679696e67436f6e74726163740000000000000060488301527f2900000000000000000000000000000000000000000000000000000000000000606183015282516042818403018152606290920192839052815191929182918401908083835b60208310620001245780518252601f19909201916020918201910162000103565b51815160209384036101000a6000190180199092169116179052604080519290940182900382208285018552600b8084527f30782050726f746f636f6c000000000000000000000000000000000000000000928401928352945190965091945090928392508083835b60208310620001ae5780518252601f1990920191602091820191016200018d565b51815160209384036101000a600019018019909216911617905260408051929094018290038220828501855260018084527f3200000000000000000000000000000000000000000000000000000000000000928401928352945190965091945090928392508083835b60208310620002385780518252601f19909201916020918201910162000217565b51815160209384036101000a6000190180199092169116179052604080519290940182900382208282019890985281840196909652606081019690965250306080808701919091528151808703909101815260a09095019081905284519093849350850191508083835b60208310620002c35780518252601f199092019160209182019101620002a2565b5181516000196020949094036101000a939093019283169219169190911790526040519201829003909120600155505060028054600160a060020a03191633179055506158b380620003166000396000f3006080604052600436106101b65763ffffffff7c0100000000000000000000000000000000000000000000000000000000600035041663288cdc9181146101bb578063297bb70b146101f15780632ac126221461021e5780633683ef8e1461024b5780633c28d8611461026d5780633e228bae1461029a5780633fd3c997146102ba5780634ac14782146102e75780634d0ae546146103075780634f9559b11461032757806350dde190146103475780636070410814610367578063642f2eaf1461039457806364a3bc15146103b457806377fcce68146103d45780637b8e3514146103f45780637e1d9808146104145780637e9d74dc1461043457806382c174d0146104615780638da5cb5b146104815780639363470214610496578063a3e20380146104b6578063b4be83d5146104d6578063bfc8bfce146104f6578063c585bb9314610516578063c75e0a8114610536578063d46b02c314610563578063d9bfa73e14610583578063db123b1a146105a3578063dd1c7d18146105c5578063e306f779146105e5578063e5fa431b146105fa578063eea086ba1461061a578063f2fde38b1461062f578063ffa1ad741461064f575b600080fd5b3480156101c757600080fd5b506101db6101d6366004614800565b610664565b6040516101e89190615425565b60405180910390f35b3480156101fd57600080fd5b5061021161020c366004614723565b610676565b6040516101e891906156ff565b34801561022a57600080fd5b5061023e610239366004614800565b6107a1565b6040516101e89190615417565b34801561025757600080fd5b5061026b61026636600461483d565b6107b6565b005b34801561027957600080fd5b5061028d610288366004614971565b6108a3565b6040516101e8919061570d565b3480156102a657600080fd5b506102116102b5366004614a31565b610a3a565b3480156102c657600080fd5b506102da6102d5366004614900565b610a90565b6040516101e891906154e1565b3480156102f357600080fd5b5061026b6103023660046146ee565b610ab8565b34801561031357600080fd5b50610211610322366004614723565b610b85565b34801561033357600080fd5b5061026b610342366004614800565b610c75565b34801561035357600080fd5b50610211610362366004614723565b610e2a565b34801561037357600080fd5b50610387610382366004614900565b610ebe565b6040516101e89190615337565b3480156103a057600080fd5b5061023e6103af366004614800565b610f0c565b3480156103c057600080fd5b506102116103cf366004614a31565b610f21565b3480156103e057600080fd5b5061026b6103ef3660046146be565b610fcc565b34801561040057600080fd5b5061023e61040f366004614684565b611106565b34801561042057600080fd5b5061021161042f3660046147b7565b611126565b34801561044057600080fd5b5061045461044f3660046146ee565b61128a565b6040516101e89190615406565b34801561046d57600080fd5b5061023e61047c36600461481e565b61131f565b34801561048d57600080fd5b5061038761133f565b3480156104a257600080fd5b5061023e6104b13660046148a5565b61135b565b3480156104c257600080fd5b506102116104d13660046147b7565b6118de565b3480156104e257600080fd5b506102116104f1366004614a31565b6119f1565b34801561050257600080fd5b5061026b610511366004614a7a565b611a6c565b34801561052257600080fd5b5061026b610531366004614666565b611d05565b34801561054257600080fd5b5061055661055136600461493c565b611f30565b6040516101e8919061571c565b34801561056f57600080fd5b5061026b61057e36600461493c565b61202a565b34801561058f57600080fd5b506101db61059e366004614684565b6120c6565b3480156105af57600080fd5b506105b86120e3565b6040516101e891906154d0565b3480156105d157600080fd5b506102116105e03660046147b7565b612143565b3480156105f157600080fd5b506101db612218565b34801561060657600080fd5b506102116106153660046147b7565b61221e565b34801561062657600080fd5b50610387612390565b34801561063b57600080fd5b5061026b61064a366004614666565b6123ac565b34801561065b57600080fd5b506105b861245d565b60036020526000908152604090205481565b61067e614298565b600080610689614298565b60005460ff16156106cf576040517f08c379a00000000000000000000000000000000000000000000000000000000081526004016106c69061567f565b60405180910390fd5b600080547fffffffffffffffffffffffffffffffffffffffffffffffffffffffffffffff001660011781558751935091505b81831461076f57610758878381518110151561071957fe5b90602001906020020151878481518110151561073157fe5b90602001906020020151878581518110151561074957fe5b90602001906020020151612494565b90506107648482612532565b600190910190610701565b5050600080547fffffffffffffffffffffffffffffffffffffffffffffffffffffffffffffff00169055509392505050565b60046020526000908152604090205460ff1681565b73ffffffffffffffffffffffffffffffffffffffff831633146108465761080e848484848080601f0160208091040260200160405190810160405280939291908181526020018383808284375061135b945050505050565b1515610846576040517f08c379a00000000000000000000000000000000000000000000000000000000081526004016106c6906155af565b5050600091825260066020908152604080842073ffffffffffffffffffffffffffffffffffffffff9093168452919052902080547fffffffffffffffffffffffffffffffffffffffffffffffffffffffffffffff00166001179055565b6108ab6142c1565b6108b36142f0565b6108bb6142f0565b6000805460ff16156108f9576040517f08c379a00000000000000000000000000000000000000000000000000000000081526004016106c69061567f565b600080547fffffffffffffffffffffffffffffffffffffffffffffffffffffffffffffff0016600117905561016080890151610140808a01919091528901519088015261094588611f30565b925061095087611f30565b915061095a612594565b9050610968888483896125c6565b610974878383886125c6565b61097e888861275e565b6109928888856040015185604001516127be565b8051602081015190519195506109ad918a9186918190612945565b6020808501519081015190516109c99189918591908190612945565b6109e28882856020015186604001518860000151612a5e565b6109fb8782846020015185604001518860200151612a5e565b610a0788888387612b0a565b5050600080547fffffffffffffffffffffffffffffffffffffffffffffffffffffffffffffff0016905550949350505050565b610a42614298565b6060610a4f858585612c92565b9050608081825160208401305af48015610a8657815183526020820151602084015260408201516040840152606082015160608401525b505b509392505050565b600a6020526000908152604090205473ffffffffffffffffffffffffffffffffffffffff1681565b60008054819060ff1615610af8576040517f08c379a00000000000000000000000000000000000000000000000000000000081526004016106c69061567f565b5050600080547fffffffffffffffffffffffffffffffffffffffffffffffffffffffffffffff001660011781558151905b808214610b5857610b508382815181101515610b4157fe5b90602001906020020151612e64565b600101610b29565b5050600080547fffffffffffffffffffffffffffffffffffffffffffffffffffffffffffffff0016905550565b610b8d614298565b600080610b98614298565b60005460ff1615610bd5576040517f08c379a00000000000000000000000000000000000000000000000000000000081526004016106c69061567f565b600080547fffffffffffffffffffffffffffffffffffffffffffffffffffffffffffffff001660011781558751935091505b81831461076f57610c5e8783815181101515610c1f57fe5b906020019060200201518784815181101515610c3757fe5b906020019060200201518785815181101515610c4f57fe5b90602001906020020151612e8f565b9050610c6a8482612532565b600190910190610c07565b6000805481908190819060ff1615610cb9576040517f08c379a00000000000000000000000000000000000000000000000000000000081526004016106c69061567f565b600080547fffffffffffffffffffffffffffffffffffffffffffffffffffffffffffffff00166001179055610cec612594565b935073ffffffffffffffffffffffffffffffffffffffff84163314610d115733610d14565b60005b73ffffffffffffffffffffffffffffffffffffffff8086166000908152600560209081526040808320938516835292905220549093506001860192509050808211610d8b576040517f08c379a00000000000000000000000000000000000000000000000000000000081526004016106c69061563f565b73ffffffffffffffffffffffffffffffffffffffff80851660008181526005602090815260408083209488168084529490915290819020859055517f82af639571738f4ebd4268fb0363d8957ebe1bbb9e78dba5ebd69eed39b154f090610df3908690615425565b60405180910390a35050600080547fffffffffffffffffffffffffffffffffffffffffffffffffffffffffffffff00169055505050565b610e32614298565b600080610e3d614298565b86519250600091505b818314610eb457610e9d8783815181101515610e5e57fe5b906020019060200201518784815181101515610e7657fe5b906020019060200201518785815181101515610e8e57fe5b90602001906020020151610a3a565b9050610ea98482612532565b600190910190610e46565b5050509392505050565b7fffffffff0000000000000000000000000000000000000000000000000000000081166000908152600a602052604090205473ffffffffffffffffffffffffffffffffffffffff165b919050565b60086020526000908152604090205460ff1681565b610f29614298565b60005460ff1615610f66576040517f08c379a00000000000000000000000000000000000000000000000000000000081526004016106c69061567f565b600080547fffffffffffffffffffffffffffffffffffffffffffffffffffffffffffffff00166001179055610f9c848484612e8f565b600080547fffffffffffffffffffffffffffffffffffffffffffffffffffffffffffffff00169055949350505050565b6000805460ff161561100a576040517f08c379a00000000000000000000000000000000000000000000000000000000081526004016106c69061567f565b600080547fffffffffffffffffffffffffffffffffffffffffffffffffffffffffffffff0016600117905561103d612594565b73ffffffffffffffffffffffffffffffffffffffff8181166000818152600760209081526040808320948916808452949091529081902080547fffffffffffffffffffffffffffffffffffffffffffffffffffffffffffffff00168715151790555192935090917fa8656e308026eeabce8f0bc18048433252318ab80ac79da0b3d3d8697dfba891906110d1908690615417565b60405180910390a35050600080547fffffffffffffffffffffffffffffffffffffffffffffffffffffffffffffff0016905550565b600760209081526000928352604080842090915290825290205460ff1681565b61112e614298565b6060600080600061113d614298565b60005460ff161561117a576040517f08c379a00000000000000000000000000000000000000000000000000000000081526004016106c69061567f565b600080547fffffffffffffffffffffffffffffffffffffffffffffffffffffffffffffff0016600117815589518a919081106111b257fe5b906020019060200201516101600151945088519350600092505b828414611255578489848151811015156111e257fe5b906020019060200201516101600181905250611202888760200151612ee2565b915061122e898481518110151561121557fe5b9060200190602002015183898681518110151561074957fe5b905061123a8682612532565b6020860151881161124a57611255565b6001909201916111cc565b5050600080547fffffffffffffffffffffffffffffffffffffffffffffffffffffffffffffff00169055509195945050505050565b606060006060600084519250826040519080825280602002602001820160405280156112d057816020015b6112bd6142f0565b8152602001906001900390816112b55790505b509150600090505b808314610a88576112ff85828151811015156112f057fe5b90602001906020020151611f30565b828281518110151561130d57fe5b602090810290910101526001016112d8565b600660209081526000928352604080842090915290825290205460ff1681565b60025473ffffffffffffffffffffffffffffffffffffffff1681565b600080600080600080600080600089511115156113a4576040517f08c379a00000000000000000000000000000000000000000000000000000000081526004016106c69061562f565b6113ad89612f29565b7f010000000000000000000000000000000000000000000000000000000000000090049650600760ff88161061140f576040517f08c379a00000000000000000000000000000000000000000000000000000000081526004016106c69061554f565b8660ff16600781111561141e57fe5b9550600086600781111561142e57fe5b1415611466576040517f08c379a00000000000000000000000000000000000000000000000000000000081526004016106c69061561f565b600186600781111561147457fe5b14156114bc578851156114b3576040517f08c379a00000000000000000000000000000000000000000000000000000000081526004016106c6906156ef565b600097506118d0565b60028660078111156114ca57fe5b141561160557885160411461150b576040517f08c379a00000000000000000000000000000000000000000000000000000000081526004016106c6906154ef565b88600081518110151561151a57fe5b01602001517f010000000000000000000000000000000000000000000000000000000000000090819004810204945061155a89600163ffffffff612fed16565b935061156d89602163ffffffff612fed16565b925060018b868686604051600081526020016040526040516115929493929190615480565b60206040516020810390808403906000865af11580156115b6573d6000803e3d6000fd5b50506040517fffffffffffffffffffffffffffffffffffffffffffffffffffffffffffffffe0015173ffffffffffffffffffffffffffffffffffffffff8c811690821614995092506118d09050565b600386600781111561161357fe5b14156117b9578851604114611654576040517f08c379a00000000000000000000000000000000000000000000000000000000081526004016106c6906154ef565b88600081518110151561166357fe5b01602001517f01000000000000000000000000000000000000000000000000000000000000009081900481020494506116a389600163ffffffff612fed16565b93506116b689602163ffffffff612fed16565b925060018b60405160200180807f19457468657265756d205369676e6564204d6573736167653a0a333200000000815250601c0182600019166000191681526020019150506040516020818303038152906040526040518082805190602001908083835b6020831061175757805182527fffffffffffffffffffffffffffffffffffffffffffffffffffffffffffffffe0909201916020918201910161171a565b51815160209384036101000a7fffffffffffffffffffffffffffffffffffffffffffffffffffffffffffffffff018019909216911617905260408051929094018290038220600083529101928390526115929450925089918991508890615480565b60048660078111156117c757fe5b14156117df576117d88b8b8b613038565b97506118d0565b60058660078111156117ed57fe5b1415611850576117fc8961318d565b73ffffffffffffffffffffffffffffffffffffffff808c1660009081526007602090815260408083209385168352929052205490915060ff16151561184457600097506118d0565b6117d8818c8c8c613206565b600686600781111561185e57fe5b141561189e5760008b815260066020908152604080832073ffffffffffffffffffffffffffffffffffffffff8e16845290915290205460ff1697506118d0565b6040517f08c379a00000000000000000000000000000000000000000000000000000000081526004016106c69061554f565b505050505050509392505050565b6118e6614298565b60606000806000806118f6614298565b89600081518110151561190557fe5b906020019060200201516101400151955089519450600093505b8385146119e457858a8581518110151561193557fe5b6020908102909101015161014001528651611951908a90612ee2565b92506119948a8581518110151561196457fe5b9060200190602002015160a001518b8681518110151561198057fe5b906020019060200201516080015185613362565b91506119c08a858151811015156119a757fe5b90602001906020020151838a87815181101515610e8e57fe5b90506119cc8782612532565b865189116119d9576119e4565b60019093019261191f565b5050505050509392505050565b6119f9614298565b60005460ff1615611a36576040517f08c379a00000000000000000000000000000000000000000000000000000000081526004016106c69061567f565b600080547fffffffffffffffffffffffffffffffffffffffffffffffffffffffffffffff00166001179055610f9c848484612494565b60095460009073ffffffffffffffffffffffffffffffffffffffff1615611abf576040517f08c379a00000000000000000000000000000000000000000000000000000000081526004016106c69061567f565b611b02611afd888888888080601f016020809104026020016040519081016040528093929190818152602001838380828437506133b8945050505050565b6135f9565b60008181526008602052604090205490915060ff1615611b4e576040517f08c379a00000000000000000000000000000000000000000000000000000000081526004016106c69061559f565b73ffffffffffffffffffffffffffffffffffffffff86163314611c1f57611ba6818785858080601f0160208091040260200160405190810160405280939291908181526020018383808284375061135b945050505050565b1515611bde576040517f08c379a00000000000000000000000000000000000000000000000000000000081526004016106c6906156df565b600980547fffffffffffffffffffffffff00000000000000000000000000000000000000001673ffffffffffffffffffffffffffffffffffffffff88161790555b6000818152600860205260409081902080547fffffffffffffffffffffffffffffffffffffffffffffffffffffffffffffff001660011790555130908690869080838380828437820191505092505050600060405180830381855af49150501515611cb6576040517f08c379a00000000000000000000000000000000000000000000000000000000081526004016106c6906155cf565b73ffffffffffffffffffffffffffffffffffffffff86163314611cfc57600980547fffffffffffffffffffffffff00000000000000000000000000000000000000001690555b50505050505050565b6002546000908190819073ffffffffffffffffffffffffffffffffffffffff163314611d5d576040517f08c379a00000000000000000000000000000000000000000000000000000000081526004016106c69061568f565b8392508273ffffffffffffffffffffffffffffffffffffffff1663ae25532e6040518163ffffffff167c0100000000000000000000000000000000000000000000000000000000028152600401602060405180830381600087803b158015611dc457600080fd5b505af1158015611dd8573d6000803e3d6000fd5b505050506040513d601f19601f82011682018060405250611dfc919081019061491e565b7fffffffff0000000000000000000000000000000000000000000000000000000081166000908152600a602052604090205490925073ffffffffffffffffffffffffffffffffffffffff1690508015611e81576040517f08c379a00000000000000000000000000000000000000000000000000000000081526004016106c69061552f565b7fffffffff0000000000000000000000000000000000000000000000000000000082166000908152600a60205260409081902080547fffffffffffffffffffffffff00000000000000000000000000000000000000001673ffffffffffffffffffffffffffffffffffffffff8616179055517fd2c6b762299c609bdb96520b58a49bfb80186934d4f71a86a367571a15c0319490611f2290849087906154b5565b60405180910390a150505050565b611f386142f0565b611f4182613639565b6020808301829052600091825260039052604090819020549082015260808201511515611f755760015b60ff168152610f07565b60a08201511515611f87576002611f6b565b60a0820151604082015110611f9d576005611f6b565b6101008201514210611fb0576004611f6b565b60208082015160009081526004909152604090205460ff1615611fd4576006611f6b565b610120820151825173ffffffffffffffffffffffffffffffffffffffff90811660009081526005602090815260408083206060880151909416835292905220541115612021576006611f6b565b60038152919050565b60005460ff1615612067576040517f08c379a00000000000000000000000000000000000000000000000000000000081526004016106c69061567f565b600080547fffffffffffffffffffffffffffffffffffffffffffffffffffffffffffffff0016600117905561209b81612e64565b50600080547fffffffffffffffffffffffffffffffffffffffffffffffffffffffffffffff00169055565b600560209081526000928352604080842090915290825290205481565b606060405190810160405280602481526020017ff47261b0000000000000000000000000e41d2489571d322189246dafa5ebde1f81526020017f4699f4980000000000000000000000000000000000000000000000000000000081525081565b61214b614298565b6060600080600061215a614298565b88600081518110151561216957fe5b906020019060200201516101600151945088519350600092505b82841461220c5784898481518110151561219957fe5b9060200190602002015161016001819052506121b9888760200151612ee2565b91506121e589848151811015156121cc57fe5b90602001906020020151838986815181101515610e8e57fe5b90506121f18682612532565b602086015188116122015761220c565b600190920191612183565b50505050509392505050565b60015481565b612226614298565b6060600080600080612236614298565b60005460ff1615612273576040517f08c379a00000000000000000000000000000000000000000000000000000000081526004016106c69061567f565b600080547fffffffffffffffffffffffffffffffffffffffffffffffffffffffffffffff001660011781558a518b919081106122ab57fe5b906020019060200201516101400151955089519450600093505b83851461235a57858a858151811015156122db57fe5b60209081029091010151610140015286516122f7908a90612ee2565b925061230a8a8581518110151561196457fe5b91506123368a8581518110151561231d57fe5b90602001906020020151838a8781518110151561074957fe5b90506123428782612532565b8651891161234f5761235a565b6001909301926122c5565b5050600080547fffffffffffffffffffffffffffffffffffffffffffffffffffffffffffffff0016905550929695505050505050565b60095473ffffffffffffffffffffffffffffffffffffffff1681565b60025473ffffffffffffffffffffffffffffffffffffffff1633146123fd576040517f08c379a00000000000000000000000000000000000000000000000000000000081526004016106c69061568f565b73ffffffffffffffffffffffffffffffffffffffff81161561245a57600280547fffffffffffffffffffffffff00000000000000000000000000000000000000001673ffffffffffffffffffffffffffffffffffffffff83161790555b50565b60408051808201909152600581527f322e302e30000000000000000000000000000000000000000000000000000000602082015281565b61249c614298565b6124a46142f0565b60008060006124b288611f30565b93506124bc612594565b92506124ca888585896125c6565b6124dc8860a001518560400151612ee2565b91506124e88783613647565b90506124fb888589848960000151612945565b612505888261365d565b945061251c88848660200151876040015189612a5e565b6125278884876136be565b505050509392505050565b815181516125409190613776565b8252602080830151908201516125569190613776565b60208301526040808301519082015161256f9190613776565b6040830152606080830151908201516125889190613776565b60609092019190915250565b60095460009073ffffffffffffffffffffffffffffffffffffffff168181156125bd57816125bf565b335b9392505050565b825160ff16600314612604576040517f08c379a00000000000000000000000000000000000000000000000000000000081526004016106c6906156af565b606084015173ffffffffffffffffffffffffffffffffffffffff161561267757606084015173ffffffffffffffffffffffffffffffffffffffff163314612677576040517f08c379a00000000000000000000000000000000000000000000000000000000081526004016106c6906156bf565b602084015173ffffffffffffffffffffffffffffffffffffffff1615612702578173ffffffffffffffffffffffffffffffffffffffff16846020015173ffffffffffffffffffffffffffffffffffffffff16141515612702576040517f08c379a00000000000000000000000000000000000000000000000000000000081526004016106c6906154ff565b6040830151151561275857612720836020015185600001518361135b565b1515612758576040517f08c379a00000000000000000000000000000000000000000000000000000000081526004016106c69061556f565b50505050565b6127708260a001518260a001516137c0565b612782836080015183608001516137c0565b10156127ba576040517f08c379a00000000000000000000000000000000000000000000000000000000081526004016106c6906156cf565b5050565b6127c66142c1565b6000806000806127da8960a0015188612ee2565b93506127ef89608001518a60a001518661381b565b92506127ff8860a0015187612ee2565b915061281488608001518960a001518461381b565b90508084106128575760208086018051839052805182018490525151865182015260808a015160a08b015187519092015161284f929061381b565b855152612894565b845183905284516020908101859052855181015190860180519190915260a089015160808a015191515161288b9290613898565b60208087015101525b84515160208087015101516128a99190612ee2565b604086015284515160808a015160c08b01516128c692919061381b565b85516040015284516020015160a08a015160e08b01516128e792919061381b565b855160600152602085015151608089015160c08a015161290892919061381b565b856020015160400181815250506129308560200151602001518960a001518a60e0015161381b565b60208601516060015250505050949350505050565b82151561297e576040517f08c379a00000000000000000000000000000000000000000000000000000000081526004016106c6906155ef565b828211156129b8576040517f08c379a00000000000000000000000000000000000000000000000000000000081526004016106c6906155df565b8460a001516129cb856040015184613776565b1115612a03576040517f08c379a00000000000000000000000000000000000000000000000000000000081526004016106c69061550f565b612a118560800151836137c0565b612a1f828760a001516137c0565b1115612a57576040517f08c379a00000000000000000000000000000000000000000000000000000000081526004016106c69061566f565b5050505050565b612a6c828260200151613776565b600084815260036020908152604091829020929092558681015187518451938501518584015160608701516101408c01516101608d015196518b9873ffffffffffffffffffffffffffffffffffffffff9788169897909616967f0bcc4c97732e47d9946f229edb95f5b6323f601300e4690de719993f3c37112996612afb968f96339692959194909390615345565b60405180910390a45050505050565b60608060405190810160405280602481526020017ff47261b0000000000000000000000000e41d2489571d322189246dafa5ebde1f81526020017f4699f498000000000000000000000000000000000000000000000000000000008152509050612b8b85610140015186600001518660000151856020015160200151613935565b61014084015184518651845160200151612ba793929190613935565b612bc08561014001518660000151858560400151613935565b612bdc8186600001518760400151856000015160400151613935565b612bf88185600001518660400151856020015160400151613935565b836040015173ffffffffffffffffffffffffffffffffffffffff16856040015173ffffffffffffffffffffffffffffffffffffffff161415612c6257612c5d81848760400151612c58866000015160600151876020015160600151613776565b613935565b612a57565b612c7a81848760400151856000015160600151613935565b612a5781848660400151856020015160600151613935565b604080517fb4be83d5000000000000000000000000000000000000000000000000000000006020808301919091526060602483018181528751608485019081528884015160a48601529488015160c48501529087015160e4840152608087015161010484015260a087015161012484015260c087015161014484015260e08701516101648401526101008701516101848401526101208701516101a4840152610140870180516101c485019081526101608901516101e4860152610180905251805161020485018190529394919384936044870192849261022489019291820191601f82010460005b81811015612d99578351855260209485019490930192600101612d7b565b50505050818103610160808401919091528a0151805180835260209283019291820191601f82010460005b81811015612de2578351855260209485019490930192600101612dc4565b50505089845250848103602093840190815288518083529093918201918981019190601f82010460005b81811015612e2a578351855260209485019490930192600101612e0c565b5050507fffffffffffffffffffffffffffffffffffffffffffffffffffffffffffffffe08883030188525060405250505050509392505050565b612e6c6142f0565b612e7582611f30565b9050612e818282613aff565b6127ba828260200151613c16565b612e97614298565b612ea2848484612494565b602081015190915083146125bf576040517f08c379a00000000000000000000000000000000000000000000000000000000081526004016106c69061565f565b600082821115612f1e576040517f08c379a00000000000000000000000000000000000000000000000000000000081526004016106c69061551f565b508082035b92915050565b6000808251111515612f67576040517f08c379a00000000000000000000000000000000000000000000000000000000081526004016106c69061560f565b815182907fffffffffffffffffffffffffffffffffffffffffffffffffffffffffffffffff8101908110612f9757fe5b016020015182517fffffffffffffffffffffffffffffffffffffffffffffffffffffffffffffffff01909252507f0100000000000000000000000000000000000000000000000000000000000000908190040290565b60008160200183511015151561302f576040517f08c379a00000000000000000000000000000000000000000000000000000000081526004016106c69061553f565b50016020015190565b6040516000906060907f1626ba7e00000000000000000000000000000000000000000000000000000000906130739087908690602401615460565b604080517fffffffffffffffffffffffffffffffffffffffffffffffffffffffffffffffe0818403018152919052602080820180517bffffffffffffffffffffffffffffffffffffffffffffffffffffffff167fffffffff00000000000000000000000000000000000000000000000000000000909416939093178352815191935090829081885afa808015613110576001811461318157612527565b7f08c379a0000000000000000000000000000000000000000000000000000000006000527c20000000000000000000000000000000000000000000000000000000006020527c0c57414c4c45545f4552524f5200000000000000000000000000000000604052600060605260646000fd5b50505195945050505050565b600060148251101515156131cd576040517f08c379a00000000000000000000000000000000000000000000000000000000081526004016106c69061569f565b6131db826014845103613cbd565b82517fffffffffffffffffffffffffffffffffffffffffffffffffffffffffffffffec019092525090565b6040516000906060907f93634702000000000000000000000000000000000000000000000000000000009061324390879087908790602401615433565b604080517fffffffffffffffffffffffffffffffffffffffffffffffffffffffffffffffe0818403018152919052602080820180517bffffffffffffffffffffffffffffffffffffffffffffffffffffffff167fffffffff000000000000000000000000000000000000000000000000000000009094169390931783528151919350908290818a5afa8080156132e0576001811461335157613356565b7f08c379a0000000000000000000000000000000000000000000000000000000006000527c20000000000000000000000000000000000000000000000000000000006020527c0f56414c494441544f525f4552524f5200000000000000000000000000604052600060605260646000fd5b825194505b50505050949350505050565b600080831161339d576040517f08c379a00000000000000000000000000000000000000000000000000000000081526004016106c69061555f565b6133b06133aa85846137c0565b84613d1e565b949350505050565b604080517f5a65726f45785472616e73616374696f6e2800000000000000000000000000006020808301919091527f75696e743235362073616c742c0000000000000000000000000000000000000060328301527f61646472657373207369676e6572416464726573732c00000000000000000000603f8301527f627974657320646174610000000000000000000000000000000000000000000060558301527f2900000000000000000000000000000000000000000000000000000000000000605f830152825180830384018152606090920192839052815160009384938493909282918401908083835b602083106134e157805182527fffffffffffffffffffffffffffffffffffffffffffffffffffffffffffffffe090920191602091820191016134a4565b51815160209384036101000a7fffffffffffffffffffffffffffffffffffffffffffffffffffffffffffffffff018019909216911617905260405191909301819003812089519097508995509093508392850191508083835b6020831061357757805182527fffffffffffffffffffffffffffffffffffffffffffffffffffffffffffffffe0909201916020918201910161353a565b51815160209384036101000a7fffffffffffffffffffffffffffffffffffffffffffffffffffffffffffffffff01801990921691161790526040805192909401829003822097825281019a909a525073ffffffffffffffffffffffffffffffffffffffff97909716968801969096525050606085015250506080909120919050565b6001546040517f19010000000000000000000000000000000000000000000000000000000000008152600281019190915260228101919091526042902090565b6000612f23611afd83613d35565b600081831061365657816125bf565b5090919050565b613665614298565b6020810182905260a0830151608084015161368191849161381b565b808252608084015160c085015161369992919061381b565b604082015260a083015160e08401516136b391849161381b565b606082015292915050565b60408051606081018252602481527ff47261b0000000000000000000000000e41d2489571d322189246dafa5ebde1f60208201527f4699f4980000000000000000000000000000000000000000000000000000000091810191909152610140840151845183516137319291908690613935565b61374a8461016001518486600001518560200151613935565b61376281856000015186604001518560400151613935565b612758818486604001518560600151613935565b6000828201838110156137b5576040517f08c379a00000000000000000000000000000000000000000000000000000000081526004016106c69061558f565b8091505b5092915050565b6000808315156137d357600091506137b9565b508282028284828115156137e357fe5b04146137b5576040517f08c379a00000000000000000000000000000000000000000000000000000000081526004016106c69061558f565b6000808311613856576040517f08c379a00000000000000000000000000000000000000000000000000000000081526004016106c69061555f565b61386184848461418e565b1561339d576040517f08c379a00000000000000000000000000000000000000000000000000000000081526004016106c6906155bf565b60008083116138d3576040517f08c379a00000000000000000000000000000000000000000000000000000000081526004016106c69061555f565b6138de848484614213565b15613915576040517f08c379a00000000000000000000000000000000000000000000000000000000081526004016106c6906155bf565b6133b06133aa61392586856137c0565b613930866001612ee2565b613776565b60008060008311801561397457508373ffffffffffffffffffffffffffffffffffffffff168573ffffffffffffffffffffffffffffffffffffffff1614155b15613af75785516003106139b4576040517f08c379a00000000000000000000000000000000000000000000000000000000081526004016106c69061564f565b50506020848101517fffffffff00000000000000000000000000000000000000000000000000000000166000818152600a90925260409091205473ffffffffffffffffffffffffffffffffffffffff16801515613a3d576040517f08c379a00000000000000000000000000000000000000000000000000000000081526004016106c6906155ff565b604051660fffffffffffe0603f885101168060840182017fa85e59e40000000000000000000000000000000000000000000000000000000083526080600484015273ffffffffffffffffffffffffffffffffffffffff8816602484015273ffffffffffffffffffffffffffffffffffffffff87166044840152856064840152608483015b81811015613ad957895181526020998a019901613ac1565b61020084858403866000895af1801515613af1573d85fd5b50505050505b505050505050565b805160009060ff16600314613b40576040517f08c379a00000000000000000000000000000000000000000000000000000000081526004016106c6906156af565b606083015173ffffffffffffffffffffffffffffffffffffffff1615613bb357606083015173ffffffffffffffffffffffffffffffffffffffff163314613bb3576040517f08c379a00000000000000000000000000000000000000000000000000000000081526004016106c6906156bf565b613bbb612594565b835190915073ffffffffffffffffffffffffffffffffffffffff808316911614613c11576040517f08c379a00000000000000000000000000000000000000000000000000000000081526004016106c69061557f565b505050565b6000818152600460205260409081902080547fffffffffffffffffffffffffffffffffffffffffffffffffffffffffffffff001660011790558281015183516101408501516101608601519351859473ffffffffffffffffffffffffffffffffffffffff9485169493909316927fdc47b3613d9fe400085f6dbdc99453462279057e6207385042827ed6b1a62cf792613cb1923392906153c9565b60405180910390a45050565b600081601401835110151515613cff576040517f08c379a00000000000000000000000000000000000000000000000000000000081526004016106c69061569f565b50016014015173ffffffffffffffffffffffffffffffffffffffff1690565b6000808284811515613d2c57fe5b04949350505050565b604080517f4f726465722800000000000000000000000000000000000000000000000000006020808301919091527f61646472657373206d616b6572416464726573732c000000000000000000000060268301527f616464726573732074616b6572416464726573732c0000000000000000000000603b8301527f6164647265737320666565526563697069656e74416464726573732c0000000060508301527f616464726573732073656e646572416464726573732c00000000000000000000606c8301527f75696e74323536206d616b65724173736574416d6f756e742c0000000000000060828301527f75696e743235362074616b65724173736574416d6f756e742c00000000000000609b8301527f75696e74323536206d616b65724665652c00000000000000000000000000000060b48301527f75696e743235362074616b65724665652c00000000000000000000000000000060c58301527f75696e743235362065787069726174696f6e54696d655365636f6e64732c000060d68301527f75696e743235362073616c742c0000000000000000000000000000000000000060f48301527f6279746573206d616b65724173736574446174612c00000000000000000000006101018301527f62797465732074616b65724173736574446174610000000000000000000000006101168301527f290000000000000000000000000000000000000000000000000000000000000061012a830152825161010b81840301815261012b90920192839052815160009384938493849391929182918401908083835b60208310613fbd57805182527fffffffffffffffffffffffffffffffffffffffffffffffffffffffffffffffe09092019160209182019101613f80565b51815160209384036101000a7fffffffffffffffffffffffffffffffffffffffffffffffffffffffffffffffff01801990921691161790526040519190930181900381206101408b0151805191995095509093508392850191508083835b6020831061405857805182527fffffffffffffffffffffffffffffffffffffffffffffffffffffffffffffffe0909201916020918201910161401b565b51815160209384036101000a7fffffffffffffffffffffffffffffffffffffffffffffffffffffffffffffffff01801990921691161790526040519190930181900381206101608b0151805191985095509093508392850191508083835b602083106140f357805182527fffffffffffffffffffffffffffffffffffffffffffffffffffffffffffffffe090920191602091820191016140b6565b5181516020939093036101000a7fffffffffffffffffffffffffffffffffffffffffffffffffffffffffffffffff018019909116921691909117905260405192018290039091207fffffffffffffffffffffffffffffffffffffffffffffffffffffffffffffffe0890180516101408b018051610160909c0180519a84529881529288526101a0822091529890525050509190525090919050565b6000808084116141ca576040517f08c379a00000000000000000000000000000000000000000000000000000000081526004016106c69061555f565b8215806141d5575084155b156141e35760009150610a88565b838015156141ed57fe5b85840990506141fc85846137c0565b6142086103e8836137c0565b101595945050505050565b60008080841161424f576040517f08c379a00000000000000000000000000000000000000000000000000000000081526004016106c69061555f565b82158061425a575084155b156142685760009150610a88565b8380151561427257fe5b8584099050836142828583612ee2565b81151561428b57fe5b0690506141fc85846137c0565b608060405190810160405280600081526020016000815260200160008152602001600081525090565b610120604051908101604052806142d6614298565b81526020016142e3614298565b8152602001600081525090565b604080516060810182526000808252602082018190529181019190915290565b60006125bf82356157c2565b6000601f8201831361432d57600080fd5b813561434061433b82615751565b61572a565b81815260209384019390925082018360005b8381101561437e578135860161436888826144ce565b8452506020928301929190910190600101614352565b5050505092915050565b6000601f8201831361439957600080fd5b81356143a761433b82615751565b81815260209384019390925082018360005b8381101561437e57813586016143cf888261451d565b84525060209283019291909101906001016143b9565b6000601f820183136143f657600080fd5b813561440461433b82615751565b9150818183526020840193506020810190508385602084028201111561442957600080fd5b60005b8381101561437e578161443f8882614461565b845250602092830192919091019060010161442c565b60006125bf82356157db565b60006125bf82356157e0565b60006125bf82356157e3565b60006125bf82516157e3565b600080601f8301841361449757600080fd5b50813567ffffffffffffffff8111156144af57600080fd5b6020830191508360018202830111156144c757600080fd5b9250929050565b6000601f820183136144df57600080fd5b81356144ed61433b82615772565b9150808252602083016020830185838301111561450957600080fd5b614514838284615819565b50505092915050565b6000610180828403121561453057600080fd5b61453b61018061572a565b905060006145498484614310565b825250602061455a84848301614310565b602083015250604061456e84828501614310565b604083015250606061458284828501614310565b606083015250608061459684828501614461565b60808301525060a06145aa84828501614461565b60a08301525060c06145be84828501614461565b60c08301525060e06145d284828501614461565b60e0830152506101006145e784828501614461565b610100830152506101206145fd84828501614461565b6101208301525061014082013567ffffffffffffffff81111561461f57600080fd5b61462b848285016144ce565b6101408301525061016082013567ffffffffffffffff81111561464d57600080fd5b614659848285016144ce565b6101608301525092915050565b60006020828403121561467857600080fd5b60006133b08484614310565b6000806040838503121561469757600080fd5b60006146a38585614310565b92505060206146b485828601614310565b9150509250929050565b600080604083850312156146d157600080fd5b60006146dd8585614310565b92505060206146b485828601614455565b60006020828403121561470057600080fd5b813567ffffffffffffffff81111561471757600080fd5b6133b084828501614388565b60008060006060848603121561473857600080fd5b833567ffffffffffffffff81111561474f57600080fd5b61475b86828701614388565b935050602084013567ffffffffffffffff81111561477857600080fd5b614784868287016143e5565b925050604084013567ffffffffffffffff8111156147a157600080fd5b6147ad8682870161431c565b9150509250925092565b6000806000606084860312156147cc57600080fd5b833567ffffffffffffffff8111156147e357600080fd5b6147ef86828701614388565b935050602061478486828701614461565b60006020828403121561481257600080fd5b60006133b08484614461565b6000806040838503121561483157600080fd5b60006146a38585614461565b6000806000806060858703121561485357600080fd5b600061485f8787614461565b945050602061487087828801614310565b935050604085013567ffffffffffffffff81111561488d57600080fd5b61489987828801614485565b95989497509550505050565b6000806000606084860312156148ba57600080fd5b60006148c68686614461565b93505060206148d786828701614310565b925050604084013567ffffffffffffffff8111156148f457600080fd5b6147ad868287016144ce565b60006020828403121561491257600080fd5b60006133b0848461446d565b60006020828403121561493057600080fd5b60006133b08484614479565b60006020828403121561494e57600080fd5b813567ffffffffffffffff81111561496557600080fd5b6133b08482850161451d565b6000806000806080858703121561498757600080fd5b843567ffffffffffffffff81111561499e57600080fd5b6149aa8782880161451d565b945050602085013567ffffffffffffffff8111156149c757600080fd5b6149d38782880161451d565b935050604085013567ffffffffffffffff8111156149f057600080fd5b6149fc878288016144ce565b925050606085013567ffffffffffffffff811115614a1957600080fd5b614a25878288016144ce565b91505092959194509250565b600080600060608486031215614a4657600080fd5b833567ffffffffffffffff811115614a5d57600080fd5b614a698682870161451d565b93505060206148d786828701614461565b60008060008060008060808789031215614a9357600080fd5b6000614a9f8989614461565b9650506020614ab089828a01614310565b955050604087013567ffffffffffffffff811115614acd57600080fd5b614ad989828a01614485565b9450945050606087013567ffffffffffffffff811115614af857600080fd5b614b0489828a01614485565b92509250509295509295509295565b614b1c816157c2565b82525050565b6000614b2d826157be565b808452602084019350614b3f836157b8565b60005b82811015614b6f57614b558683516152f7565b614b5e826157b8565b606096909601959150600101614b42565b5093949350505050565b614b1c816157db565b614b1c816157e0565b614b1c816157e3565b6000614b9f826157be565b808452614bb3816020860160208601615825565b614bbc81615851565b9093016020019392505050565b614b1c8161580e565b601281527f4c454e4754485f36355f52455155495245440000000000000000000000000000602082015260400190565b600d81527f494e56414c49445f54414b455200000000000000000000000000000000000000602082015260400190565b600e81527f4f524445525f4f56455246494c4c000000000000000000000000000000000000602082015260400190565b601181527f55494e543235365f554e444552464c4f57000000000000000000000000000000602082015260400190565b601a81527f41535345545f50524f58595f414c52454144595f455849535453000000000000602082015260400190565b602681527f475245415445525f4f525f455155414c5f544f5f33325f4c454e4754485f524560208201527f5155495245440000000000000000000000000000000000000000000000000000604082015260600190565b601581527f5349474e41545552455f554e535550504f525445440000000000000000000000602082015260400190565b601081527f4449564953494f4e5f42595f5a45524f00000000000000000000000000000000602082015260400190565b601781527f494e56414c49445f4f524445525f5349474e4154555245000000000000000000602082015260400190565b600d81527f494e56414c49445f4d414b455200000000000000000000000000000000000000602082015260400190565b601081527f55494e543235365f4f564552464c4f5700000000000000000000000000000000602082015260400190565b600f81527f494e56414c49445f54585f484153480000000000000000000000000000000000602082015260400190565b601181527f494e56414c49445f5349474e4154555245000000000000000000000000000000602082015260400190565b600e81527f524f554e44494e475f4552524f52000000000000000000000000000000000000602082015260400190565b601081527f4641494c45445f455845435554494f4e00000000000000000000000000000000602082015260400190565b600d81527f54414b45525f4f56455250415900000000000000000000000000000000000000602082015260400190565b601481527f494e56414c49445f54414b45525f414d4f554e54000000000000000000000000602082015260400190565b601a81527f41535345545f50524f58595f444f45535f4e4f545f4558495354000000000000602082015260400190565b602181527f475245415445525f5448414e5f5a45524f5f4c454e4754485f5245515549524560208201527f4400000000000000000000000000000000000000000000000000000000000000604082015260600190565b601181527f5349474e41545552455f494c4c4547414c000000000000000000000000000000602082015260400190565b601e81527f4c454e4754485f475245415445525f5448414e5f305f52455155495245440000602082015260400190565b601781527f494e56414c49445f4e45575f4f524445525f45504f4348000000000000000000602082015260400190565b601e81527f4c454e4754485f475245415445525f5448414e5f335f52455155495245440000602082015260400190565b601481527f434f4d504c4554455f46494c4c5f4641494c4544000000000000000000000000602082015260400190565b601281527f494e56414c49445f46494c4c5f50524943450000000000000000000000000000602082015260400190565b601281527f5245454e5452414e43595f494c4c4547414c0000000000000000000000000000602082015260400190565b601381527f4f4e4c595f434f4e54524143545f4f574e455200000000000000000000000000602082015260400190565b602681527f475245415445525f4f525f455155414c5f544f5f32305f4c454e4754485f524560208201527f5155495245440000000000000000000000000000000000000000000000000000604082015260600190565b601081527f4f524445525f554e46494c4c41424c4500000000000000000000000000000000602082015260400190565b600e81527f494e56414c49445f53454e444552000000000000000000000000000000000000602082015260400190565b601881527f4e454741544956455f5350524541445f52455155495245440000000000000000602082015260400190565b601481527f494e56414c49445f54585f5349474e4154555245000000000000000000000000602082015260400190565b601181527f4c454e4754485f305f5245515549524544000000000000000000000000000000602082015260400190565b805160808301906152858482614b82565b5060208201516152986020850182614b82565b5060408201516152ab6040850182614b82565b5060608201516127586060850182614b82565b80516101208301906152d08482615274565b5060208201516152e36080850182615274565b506040820151612758610100850182614b82565b80516060830190615308848261532e565b50602082015161531b6020850182614b82565b5060408201516127586040850182614b82565b614b1c81615808565b60208101612f238284614b13565b6101008101615354828b614b13565b615361602083018a614b13565b61536e6040830189614b82565b61537b6060830188614b82565b6153886080830187614b82565b61539560a0830186614b82565b81810360c08301526153a78185614b94565b905081810360e08301526153bb8184614b94565b9a9950505050505050505050565b606081016153d78286614b13565b81810360208301526153e98185614b94565b905081810360408301526153fd8184614b94565b95945050505050565b602080825281016125bf8184614b22565b60208101612f238284614b79565b60208101612f238284614b82565b606081016154418286614b82565b61544e6020830185614b13565b81810360408301526153fd8184614b94565b6040810161546e8285614b82565b81810360208301526133b08184614b94565b6080810161548e8287614b82565b61549b602083018661532e565b6154a86040830185614b82565b6153fd6060830184614b82565b604081016154c38285614b8b565b6125bf6020830184614b13565b602080825281016125bf8184614b94565b60208101612f238284614bc9565b60208082528101612f2381614bd2565b60208082528101612f2381614c02565b60208082528101612f2381614c32565b60208082528101612f2381614c62565b60208082528101612f2381614c92565b60208082528101612f2381614cc2565b60208082528101612f2381614d18565b60208082528101612f2381614d48565b60208082528101612f2381614d78565b60208082528101612f2381614da8565b60208082528101612f2381614dd8565b60208082528101612f2381614e08565b60208082528101612f2381614e38565b60208082528101612f2381614e68565b60208082528101612f2381614e98565b60208082528101612f2381614ec8565b60208082528101612f2381614ef8565b60208082528101612f2381614f28565b60208082528101612f2381614f58565b60208082528101612f2381614fae565b60208082528101612f2381614fde565b60208082528101612f238161500e565b60208082528101612f238161503e565b60208082528101612f238161506e565b60208082528101612f238161509e565b60208082528101612f23816150ce565b60208082528101612f23816150fe565b60208082528101612f238161512e565b60208082528101612f2381615184565b60208082528101612f23816151b4565b60208082528101612f23816151e4565b60208082528101612f2381615214565b60208082528101612f2381615244565b60808101612f238284615274565b6101208101612f2382846152be565b60608101612f2382846152f7565b60405181810167ffffffffffffffff8111828210171561574957600080fd5b604052919050565b600067ffffffffffffffff82111561576857600080fd5b5060209081020190565b600067ffffffffffffffff82111561578957600080fd5b506020601f919091017fffffffffffffffffffffffffffffffffffffffffffffffffffffffffffffffe0160190565b60200190565b5190565b73ffffffffffffffffffffffffffffffffffffffff1690565b151590565b90565b7fffffffff000000000000000000000000000000000000000000000000000000001690565b60ff1690565b6000612f23826157c2565b82818337506000910152565b60005b83811015615840578181015183820152602001615828565b838111156127585750506000910152565b601f017fffffffffffffffffffffffffffffffffffffffffffffffffffffffffffffffe016905600a265627a7a72305820b19c92201032603398c007dccf80930c626ef89fa6c848c8b7ef5267d07cd4ed6c6578706572696d656e74616cf50037",
				"opcodes": "PUSH1 0x80 PUSH1 0x40 MSTORE PUSH1 0x0 DUP1 SLOAD PUSH1 0xFF NOT AND SWAP1 SSTORE CALLVALUE DUP1 ISZERO PUSH3 0x1B JUMPI PUSH1 0x0 DUP1 REVERT JUMPDEST POP PUSH1 0x40 DUP1 MLOAD PUSH32 0x454950373132446F6D61696E2800000000000000000000000000000000000000 PUSH1 0x20 DUP1 DUP4 ADD SWAP2 SWAP1 SWAP2 MSTORE PUSH32 0x737472696E67206E616D652C0000000000000000000000000000000000000000 PUSH1 0x2D DUP4 ADD MSTORE PUSH32 0x737472696E672076657273696F6E2C0000000000000000000000000000000000 PUSH1 0x39 DUP4 ADD MSTORE PUSH32 0x6164647265737320766572696679696E67436F6E747261637400000000000000 PUSH1 0x48 DUP4 ADD MSTORE PUSH32 0x2900000000000000000000000000000000000000000000000000000000000000 PUSH1 0x61 DUP4 ADD MSTORE DUP3 MLOAD PUSH1 0x42 DUP2 DUP5 SUB ADD DUP2 MSTORE PUSH1 0x62 SWAP1 SWAP3 ADD SWAP3 DUP4 SWAP1 MSTORE DUP2 MLOAD SWAP2 SWAP3 SWAP2 DUP3 SWAP2 DUP5 ADD SWAP1 DUP1 DUP4 DUP4 JUMPDEST PUSH1 0x20 DUP4 LT PUSH3 0x124 JUMPI DUP1 MLOAD DUP3 MSTORE PUSH1 0x1F NOT SWAP1 SWAP3 ADD SWAP2 PUSH1 0x20 SWAP2 DUP3 ADD SWAP2 ADD PUSH3 0x103 JUMP JUMPDEST MLOAD DUP2 MLOAD PUSH1 0x20 SWAP4 DUP5 SUB PUSH2 0x100 EXP PUSH1 0x0 NOT ADD DUP1 NOT SWAP1 SWAP3 AND SWAP2 AND OR SWAP1 MSTORE PUSH1 0x40 DUP1 MLOAD SWAP3 SWAP1 SWAP5 ADD DUP3 SWAP1 SUB DUP3 KECCAK256 DUP3 DUP6 ADD DUP6 MSTORE PUSH1 0xB DUP1 DUP5 MSTORE PUSH32 0x30782050726F746F636F6C000000000000000000000000000000000000000000 SWAP3 DUP5 ADD SWAP3 DUP4 MSTORE SWAP5 MLOAD SWAP1 SWAP7 POP SWAP2 SWAP5 POP SWAP1 SWAP3 DUP4 SWAP3 POP DUP1 DUP4 DUP4 JUMPDEST PUSH1 0x20 DUP4 LT PUSH3 0x1AE JUMPI DUP1 MLOAD DUP3 MSTORE PUSH1 0x1F NOT SWAP1 SWAP3 ADD SWAP2 PUSH1 0x20 SWAP2 DUP3 ADD SWAP2 ADD PUSH3 0x18D JUMP JUMPDEST MLOAD DUP2 MLOAD PUSH1 0x20 SWAP4 DUP5 SUB PUSH2 0x100 EXP PUSH1 0x0 NOT ADD DUP1 NOT SWAP1 SWAP3 AND SWAP2 AND OR SWAP1 MSTORE PUSH1 0x40 DUP1 MLOAD SWAP3 SWAP1 SWAP5 ADD DUP3 SWAP1 SUB DUP3 KECCAK256 DUP3 DUP6 ADD DUP6 MSTORE PUSH1 0x1 DUP1 DUP5 MSTORE PUSH32 0x3200000000000000000000000000000000000000000000000000000000000000 SWAP3 DUP5 ADD SWAP3 DUP4 MSTORE SWAP5 MLOAD SWAP1 SWAP7 POP SWAP2 SWAP5 POP SWAP1 SWAP3 DUP4 SWAP3 POP DUP1 DUP4 DUP4 JUMPDEST PUSH1 0x20 DUP4 LT PUSH3 0x238 JUMPI DUP1 MLOAD DUP3 MSTORE PUSH1 0x1F NOT SWAP1 SWAP3 ADD SWAP2 PUSH1 0x20 SWAP2 DUP3 ADD SWAP2 ADD PUSH3 0x217 JUMP JUMPDEST MLOAD DUP2 MLOAD PUSH1 0x20 SWAP4 DUP5 SUB PUSH2 0x100 EXP PUSH1 0x0 NOT ADD DUP1 NOT SWAP1 SWAP3 AND SWAP2 AND OR SWAP1 MSTORE PUSH1 0x40 DUP1 MLOAD SWAP3 SWAP1 SWAP5 ADD DUP3 SWAP1 SUB DUP3 KECCAK256 DUP3 DUP3 ADD SWAP9 SWAP1 SWAP9 MSTORE DUP2 DUP5 ADD SWAP7 SWAP1 SWAP7 MSTORE PUSH1 0x60 DUP2 ADD SWAP7 SWAP1 SWAP7 MSTORE POP ADDRESS PUSH1 0x80 DUP1 DUP8 ADD SWAP2 SWAP1 SWAP2 MSTORE DUP2 MLOAD DUP1 DUP8 SUB SWAP1 SWAP2 ADD DUP2 MSTORE PUSH1 0xA0 SWAP1 SWAP6 ADD SWAP1 DUP2 SWAP1 MSTORE DUP5 MLOAD SWAP1 SWAP4 DUP5 SWAP4 POP DUP6 ADD SWAP2 POP DUP1 DUP4 DUP4 JUMPDEST PUSH1 0x20 DUP4 LT PUSH3 0x2C3 JUMPI DUP1 MLOAD DUP3 MSTORE PUSH1 0x1F NOT SWAP1 SWAP3 ADD SWAP2 PUSH1 0x20 SWAP2 DUP3 ADD SWAP2 ADD PUSH3 0x2A2 JUMP JUMPDEST MLOAD DUP2 MLOAD PUSH1 0x0 NOT PUSH1 0x20 SWAP5 SWAP1 SWAP5 SUB PUSH2 0x100 EXP SWAP4 SWAP1 SWAP4 ADD SWAP3 DUP4 AND SWAP3 NOT AND SWAP2 SWAP1 SWAP2 OR SWAP1 MSTORE PUSH1 0x40 MLOAD SWAP3 ADD DUP3 SWAP1 SUB SWAP1 SWAP2 KECCAK256 PUSH1 0x1 SSTORE POP POP PUSH1 0x2 DUP1 SLOAD PUSH1 0x1 PUSH1 0xA0 PUSH1 0x2 EXP SUB NOT AND CALLER OR SWAP1 SSTORE POP PUSH2 0x58B3 DUP1 PUSH3 0x316 PUSH1 0x0 CODECOPY PUSH1 0x0 RETURN STOP PUSH1 0x80 PUSH1 0x40 MSTORE PUSH1 0x4 CALLDATASIZE LT PUSH2 0x1B6 JUMPI PUSH4 0xFFFFFFFF PUSH29 0x100000000000000000000000000000000000000000000000000000000 PUSH1 0x0 CALLDATALOAD DIV AND PUSH4 0x288CDC91 DUP2 EQ PUSH2 0x1BB JUMPI DUP1 PUSH4 0x297BB70B EQ PUSH2 0x1F1 JUMPI DUP1 PUSH4 0x2AC12622 EQ PUSH2 0x21E JUMPI DUP1 PUSH4 0x3683EF8E EQ PUSH2 0x24B JUMPI DUP1 PUSH4 0x3C28D861 EQ PUSH2 0x26D JUMPI DUP1 PUSH4 0x3E228BAE EQ PUSH2 0x29A JUMPI DUP1 PUSH4 0x3FD3C997 EQ PUSH2 0x2BA JUMPI DUP1 PUSH4 0x4AC14782 EQ PUSH2 0x2E7 JUMPI DUP1 PUSH4 0x4D0AE546 EQ PUSH2 0x307 JUMPI DUP1 PUSH4 0x4F9559B1 EQ PUSH2 0x327 JUMPI DUP1 PUSH4 0x50DDE190 EQ PUSH2 0x347 JUMPI DUP1 PUSH4 0x60704108 EQ PUSH2 0x367 JUMPI DUP1 PUSH4 0x642F2EAF EQ PUSH2 0x394 JUMPI DUP1 PUSH4 0x64A3BC15 EQ PUSH2 0x3B4 JUMPI DUP1 PUSH4 0x77FCCE68 EQ PUSH2 0x3D4 JUMPI DUP1 PUSH4 0x7B8E3514 EQ PUSH2 0x3F4 JUMPI DUP1 PUSH4 0x7E1D9808 EQ PUSH2 0x414 JUMPI DUP1 PUSH4 0x7E9D74DC EQ PUSH2 0x434 JUMPI DUP1 PUSH4 0x82C174D0 EQ PUSH2 0x461 JUMPI DUP1 PUSH4 0x8DA5CB5B EQ PUSH2 0x481 JUMPI DUP1 PUSH4 0x93634702 EQ PUSH2 0x496 JUMPI DUP1 PUSH4 0xA3E20380 EQ PUSH2 0x4B6 JUMPI DUP1 PUSH4 0xB4BE83D5 EQ PUSH2 0x4D6 JUMPI DUP1 PUSH4 0xBFC8BFCE EQ PUSH2 0x4F6 JUMPI DUP1 PUSH4 0xC585BB93 EQ PUSH2 0x516 JUMPI DUP1 PUSH4 0xC75E0A81 EQ PUSH2 0x536 JUMPI DUP1 PUSH4 0xD46B02C3 EQ PUSH2 0x563 JUMPI DUP1 PUSH4 0xD9BFA73E EQ PUSH2 0x583 JUMPI DUP1 PUSH4 0xDB123B1A EQ PUSH2 0x5A3 JUMPI DUP1 PUSH4 0xDD1C7D18 EQ PUSH2 0x5C5 JUMPI DUP1 PUSH4 0xE306F779 EQ PUSH2 0x5E5 JUMPI DUP1 PUSH4 0xE5FA431B EQ PUSH2 0x5FA JUMPI DUP1 PUSH4 0xEEA086BA EQ PUSH2 0x61A JUMPI DUP1 PUSH4 0xF2FDE38B EQ PUSH2 0x62F JUMPI DUP1 PUSH4 0xFFA1AD74 EQ PUSH2 0x64F JUMPI JUMPDEST PUSH1 0x0 DUP1 REVERT JUMPDEST CALLVALUE DUP1 ISZERO PUSH2 0x1C7 JUMPI PUSH1 0x0 DUP1 REVERT JUMPDEST POP PUSH2 0x1DB PUSH2 0x1D6 CALLDATASIZE PUSH1 0x4 PUSH2 0x4800 JUMP JUMPDEST PUSH2 0x664 JUMP JUMPDEST PUSH1 0x40 MLOAD PUSH2 0x1E8 SWAP2 SWAP1 PUSH2 0x5425 JUMP JUMPDEST PUSH1 0x40 MLOAD DUP1 SWAP2 SUB SWAP1 RETURN JUMPDEST CALLVALUE DUP1 ISZERO PUSH2 0x1FD JUMPI PUSH1 0x0 DUP1 REVERT JUMPDEST POP PUSH2 0x211 PUSH2 0x20C CALLDATASIZE PUSH1 0x4 PUSH2 0x4723 JUMP JUMPDEST PUSH2 0x676 JUMP JUMPDEST PUSH1 0x40 MLOAD PUSH2 0x1E8 SWAP2 SWAP1 PUSH2 0x56FF JUMP JUMPDEST CALLVALUE DUP1 ISZERO PUSH2 0x22A JUMPI PUSH1 0x0 DUP1 REVERT JUMPDEST POP PUSH2 0x23E PUSH2 0x239 CALLDATASIZE PUSH1 0x4 PUSH2 0x4800 JUMP JUMPDEST PUSH2 0x7A1 JUMP JUMPDEST PUSH1 0x40 MLOAD PUSH2 0x1E8 SWAP2 SWAP1 PUSH2 0x5417 JUMP JUMPDEST CALLVALUE DUP1 ISZERO PUSH2 0x257 JUMPI PUSH1 0x0 DUP1 REVERT JUMPDEST POP PUSH2 0x26B PUSH2 0x266 CALLDATASIZE PUSH1 0x4 PUSH2 0x483D JUMP JUMPDEST PUSH2 0x7B6 JUMP JUMPDEST STOP JUMPDEST CALLVALUE DUP1 ISZERO PUSH2 0x279 JUMPI PUSH1 0x0 DUP1 REVERT JUMPDEST POP PUSH2 0x28D PUSH2 0x288 CALLDATASIZE PUSH1 0x4 PUSH2 0x4971 JUMP JUMPDEST PUSH2 0x8A3 JUMP JUMPDEST PUSH1 0x40 MLOAD PUSH2 0x1E8 SWAP2 SWAP1 PUSH2 0x570D JUMP JUMPDEST CALLVALUE DUP1 ISZERO PUSH2 0x2A6 JUMPI PUSH1 0x0 DUP1 REVERT JUMPDEST POP PUSH2 0x211 PUSH2 0x2B5 CALLDATASIZE PUSH1 0x4 PUSH2 0x4A31 JUMP JUMPDEST PUSH2 0xA3A JUMP JUMPDEST CALLVALUE DUP1 ISZERO PUSH2 0x2C6 JUMPI PUSH1 0x0 DUP1 REVERT JUMPDEST POP PUSH2 0x2DA PUSH2 0x2D5 CALLDATASIZE PUSH1 0x4 PUSH2 0x4900 JUMP JUMPDEST PUSH2 0xA90 JUMP JUMPDEST PUSH1 0x40 MLOAD PUSH2 0x1E8 SWAP2 SWAP1 PUSH2 0x54E1 JUMP JUMPDEST CALLVALUE DUP1 ISZERO PUSH2 0x2F3 JUMPI PUSH1 0x0 DUP1 REVERT JUMPDEST POP PUSH2 0x26B PUSH2 0x302 CALLDATASIZE PUSH1 0x4 PUSH2 0x46EE JUMP JUMPDEST PUSH2 0xAB8 JUMP JUMPDEST CALLVALUE DUP1 ISZERO PUSH2 0x313 JUMPI PUSH1 0x0 DUP1 REVERT JUMPDEST POP PUSH2 0x211 PUSH2 0x322 CALLDATASIZE PUSH1 0x4 PUSH2 0x4723 JUMP JUMPDEST PUSH2 0xB85 JUMP JUMPDEST CALLVALUE DUP1 ISZERO PUSH2 0x333 JUMPI PUSH1 0x0 DUP1 REVERT JUMPDEST POP PUSH2 0x26B PUSH2 0x342 CALLDATASIZE PUSH1 0x4 PUSH2 0x4800 JUMP JUMPDEST PUSH2 0xC75 JUMP JUMPDEST CALLVALUE DUP1 ISZERO PUSH2 0x353 JUMPI PUSH1 0x0 DUP1 REVERT JUMPDEST POP PUSH2 0x211 PUSH2 0x362 CALLDATASIZE PUSH1 0x4 PUSH2 0x4723 JUMP JUMPDEST PUSH2 0xE2A JUMP JUMPDEST CALLVALUE DUP1 ISZERO PUSH2 0x373 JUMPI PUSH1 0x0 DUP1 REVERT JUMPDEST POP PUSH2 0x387 PUSH2 0x382 CALLDATASIZE PUSH1 0x4 PUSH2 0x4900 JUMP JUMPDEST PUSH2 0xEBE JUMP JUMPDEST PUSH1 0x40 MLOAD PUSH2 0x1E8 SWAP2 SWAP1 PUSH2 0x5337 JUMP JUMPDEST CALLVALUE DUP1 ISZERO PUSH2 0x3A0 JUMPI PUSH1 0x0 DUP1 REVERT JUMPDEST POP PUSH2 0x23E PUSH2 0x3AF CALLDATASIZE PUSH1 0x4 PUSH2 0x4800 JUMP JUMPDEST PUSH2 0xF0C JUMP JUMPDEST CALLVALUE DUP1 ISZERO PUSH2 0x3C0 JUMPI PUSH1 0x0 DUP1 REVERT JUMPDEST POP PUSH2 0x211 PUSH2 0x3CF CALLDATASIZE PUSH1 0x4 PUSH2 0x4A31 JUMP JUMPDEST PUSH2 0xF21 JUMP JUMPDEST CALLVALUE DUP1 ISZERO PUSH2 0x3E0 JUMPI PUSH1 0x0 DUP1 REVERT JUMPDEST POP PUSH2 0x26B PUSH2 0x3EF CALLDATASIZE PUSH1 0x4 PUSH2 0x46BE JUMP JUMPDEST PUSH2 0xFCC JUMP JUMPDEST CALLVALUE DUP1 ISZERO PUSH2 0x400 JUMPI PUSH1 0x0 DUP1 REVERT JUMPDEST POP PUSH2 0x23E PUSH2 0x40F CALLDATASIZE PUSH1 0x4 PUSH2 0x4684 JUMP JUMPDEST PUSH2 0x1106 JUMP JUMPDEST CALLVALUE DUP1 ISZERO PUSH2 0x420 JUMPI PUSH1 0x0 DUP1 REVERT JUMPDEST POP PUSH2 0x211 PUSH2 0x42F CALLDATASIZE PUSH1 0x4 PUSH2 0x47B7 JUMP JUMPDEST PUSH2 0x1126 JUMP JUMPDEST CALLVALUE DUP1 ISZERO PUSH2 0x440 JUMPI PUSH1 0x0 DUP1 REVERT JUMPDEST POP PUSH2 0x454 PUSH2 0x44F CALLDATASIZE PUSH1 0x4 PUSH2 0x46EE JUMP JUMPDEST PUSH2 0x128A JUMP JUMPDEST PUSH1 0x40 MLOAD PUSH2 0x1E8 SWAP2 SWAP1 PUSH2 0x5406 JUMP JUMPDEST CALLVALUE DUP1 ISZERO PUSH2 0x46D JUMPI PUSH1 0x0 DUP1 REVERT JUMPDEST POP PUSH2 0x23E PUSH2 0x47C CALLDATASIZE PUSH1 0x4 PUSH2 0x481E JUMP JUMPDEST PUSH2 0x131F JUMP JUMPDEST CALLVALUE DUP1 ISZERO PUSH2 0x48D JUMPI PUSH1 0x0 DUP1 REVERT JUMPDEST POP PUSH2 0x387 PUSH2 0x133F JUMP JUMPDEST CALLVALUE DUP1 ISZERO PUSH2 0x4A2 JUMPI PUSH1 0x0 DUP1 REVERT JUMPDEST POP PUSH2 0x23E PUSH2 0x4B1 CALLDATASIZE PUSH1 0x4 PUSH2 0x48A5 JUMP JUMPDEST PUSH2 0x135B JUMP JUMPDEST CALLVALUE DUP1 ISZERO PUSH2 0x4C2 JUMPI PUSH1 0x0 DUP1 REVERT JUMPDEST POP PUSH2 0x211 PUSH2 0x4D1 CALLDATASIZE PUSH1 0x4 PUSH2 0x47B7 JUMP JUMPDEST PUSH2 0x18DE JUMP JUMPDEST CALLVALUE DUP1 ISZERO PUSH2 0x4E2 JUMPI PUSH1 0x0 DUP1 REVERT JUMPDEST POP PUSH2 0x211 PUSH2 0x4F1 CALLDATASIZE PUSH1 0x4 PUSH2 0x4A31 JUMP JUMPDEST PUSH2 0x19F1 JUMP JUMPDEST CALLVALUE DUP1 ISZERO PUSH2 0x502 JUMPI PUSH1 0x0 DUP1 REVERT JUMPDEST POP PUSH2 0x26B PUSH2 0x511 CALLDATASIZE PUSH1 0x4 PUSH2 0x4A7A JUMP JUMPDEST PUSH2 0x1A6C JUMP JUMPDEST CALLVALUE DUP1 ISZERO PUSH2 0x522 JUMPI PUSH1 0x0 DUP1 REVERT JUMPDEST POP PUSH2 0x26B PUSH2 0x531 CALLDATASIZE PUSH1 0x4 PUSH2 0x4666 JUMP JUMPDEST PUSH2 0x1D05 JUMP JUMPDEST CALLVALUE DUP1 ISZERO PUSH2 0x542 JUMPI PUSH1 0x0 DUP1 REVERT JUMPDEST POP PUSH2 0x556 PUSH2 0x551 CALLDATASIZE PUSH1 0x4 PUSH2 0x493C JUMP JUMPDEST PUSH2 0x1F30 JUMP JUMPDEST PUSH1 0x40 MLOAD PUSH2 0x1E8 SWAP2 SWAP1 PUSH2 0x571C JUMP JUMPDEST CALLVALUE DUP1 ISZERO PUSH2 0x56F JUMPI PUSH1 0x0 DUP1 REVERT JUMPDEST POP PUSH2 0x26B PUSH2 0x57E CALLDATASIZE PUSH1 0x4 PUSH2 0x493C JUMP JUMPDEST PUSH2 0x202A JUMP JUMPDEST CALLVALUE DUP1 ISZERO PUSH2 0x58F JUMPI PUSH1 0x0 DUP1 REVERT JUMPDEST POP PUSH2 0x1DB PUSH2 0x59E CALLDATASIZE PUSH1 0x4 PUSH2 0x4684 JUMP JUMPDEST PUSH2 0x20C6 JUMP JUMPDEST CALLVALUE DUP1 ISZERO PUSH2 0x5AF JUMPI PUSH1 0x0 DUP1 REVERT JUMPDEST POP PUSH2 0x5B8 PUSH2 0x20E3 JUMP JUMPDEST PUSH1 0x40 MLOAD PUSH2 0x1E8 SWAP2 SWAP1 PUSH2 0x54D0 JUMP JUMPDEST CALLVALUE DUP1 ISZERO PUSH2 0x5D1 JUMPI PUSH1 0x0 DUP1 REVERT JUMPDEST POP PUSH2 0x211 PUSH2 0x5E0 CALLDATASIZE PUSH1 0x4 PUSH2 0x47B7 JUMP JUMPDEST PUSH2 0x2143 JUMP JUMPDEST CALLVALUE DUP1 ISZERO PUSH2 0x5F1 JUMPI PUSH1 0x0 DUP1 REVERT JUMPDEST POP PUSH2 0x1DB PUSH2 0x2218 JUMP JUMPDEST CALLVALUE DUP1 ISZERO PUSH2 0x606 JUMPI PUSH1 0x0 DUP1 REVERT JUMPDEST POP PUSH2 0x211 PUSH2 0x615 CALLDATASIZE PUSH1 0x4 PUSH2 0x47B7 JUMP JUMPDEST PUSH2 0x221E JUMP JUMPDEST CALLVALUE DUP1 ISZERO PUSH2 0x626 JUMPI PUSH1 0x0 DUP1 REVERT JUMPDEST POP PUSH2 0x387 PUSH2 0x2390 JUMP JUMPDEST CALLVALUE DUP1 ISZERO PUSH2 0x63B JUMPI PUSH1 0x0 DUP1 REVERT JUMPDEST POP PUSH2 0x26B PUSH2 0x64A CALLDATASIZE PUSH1 0x4 PUSH2 0x4666 JUMP JUMPDEST PUSH2 0x23AC JUMP JUMPDEST CALLVALUE DUP1 ISZERO PUSH2 0x65B JUMPI PUSH1 0x0 DUP1 REVERT JUMPDEST POP PUSH2 0x5B8 PUSH2 0x245D JUMP JUMPDEST PUSH1 0x3 PUSH1 0x20 MSTORE PUSH1 0x0 SWAP1 DUP2 MSTORE PUSH1 0x40 SWAP1 KECCAK256 SLOAD DUP2 JUMP JUMPDEST PUSH2 0x67E PUSH2 0x4298 JUMP JUMPDEST PUSH1 0x0 DUP1 PUSH2 0x689 PUSH2 0x4298 JUMP JUMPDEST PUSH1 0x0 SLOAD PUSH1 0xFF AND ISZERO PUSH2 0x6CF JUMPI PUSH1 0x40 MLOAD PUSH32 0x8C379A000000000000000000000000000000000000000000000000000000000 DUP2 MSTORE PUSH1 0x4 ADD PUSH2 0x6C6 SWAP1 PUSH2 0x567F JUMP JUMPDEST PUSH1 0x40 MLOAD DUP1 SWAP2 SUB SWAP1 REVERT JUMPDEST PUSH1 0x0 DUP1 SLOAD PUSH32 0xFFFFFFFFFFFFFFFFFFFFFFFFFFFFFFFFFFFFFFFFFFFFFFFFFFFFFFFFFFFFFF00 AND PUSH1 0x1 OR DUP2 SSTORE DUP8 MLOAD SWAP4 POP SWAP2 POP JUMPDEST DUP2 DUP4 EQ PUSH2 0x76F JUMPI PUSH2 0x758 DUP8 DUP4 DUP2 MLOAD DUP2 LT ISZERO ISZERO PUSH2 0x719 JUMPI INVALID JUMPDEST SWAP1 PUSH1 0x20 ADD SWAP1 PUSH1 0x20 MUL ADD MLOAD DUP8 DUP5 DUP2 MLOAD DUP2 LT ISZERO ISZERO PUSH2 0x731 JUMPI INVALID JUMPDEST SWAP1 PUSH1 0x20 ADD SWAP1 PUSH1 0x20 MUL ADD MLOAD DUP8 DUP6 DUP2 MLOAD DUP2 LT ISZERO ISZERO PUSH2 0x749 JUMPI INVALID JUMPDEST SWAP1 PUSH1 0x20 ADD SWAP1 PUSH1 0x20 MUL ADD MLOAD PUSH2 0x2494 JUMP JUMPDEST SWAP1 POP PUSH2 0x764 DUP5 DUP3 PUSH2 0x2532 JUMP JUMPDEST PUSH1 0x1 SWAP1 SWAP2 ADD SWAP1 PUSH2 0x701 JUMP JUMPDEST POP POP PUSH1 0x0 DUP1 SLOAD PUSH32 0xFFFFFFFFFFFFFFFFFFFFFFFFFFFFFFFFFFFFFFFFFFFFFFFFFFFFFFFFFFFFFF00 AND SWAP1 SSTORE POP SWAP4 SWAP3 POP POP POP JUMP JUMPDEST PUSH1 0x4 PUSH1 0x20 MSTORE PUSH1 0x0 SWAP1 DUP2 MSTORE PUSH1 0x40 SWAP1 KECCAK256 SLOAD PUSH1 0xFF AND DUP2 JUMP JUMPDEST PUSH20 0xFFFFFFFFFFFFFFFFFFFFFFFFFFFFFFFFFFFFFFFF DUP4 AND CALLER EQ PUSH2 0x846 JUMPI PUSH2 0x80E DUP5 DUP5 DUP5 DUP5 DUP1 DUP1 PUSH1 0x1F ADD PUSH1 0x20 DUP1 SWAP2 DIV MUL PUSH1 0x20 ADD PUSH1 0x40 MLOAD SWAP1 DUP2 ADD PUSH1 0x40 MSTORE DUP1 SWAP4 SWAP3 SWAP2 SWAP1 DUP2 DUP2 MSTORE PUSH1 0x20 ADD DUP4 DUP4 DUP1 DUP3 DUP5 CALLDATACOPY POP PUSH2 0x135B SWAP5 POP POP POP POP POP JUMP JUMPDEST ISZERO ISZERO PUSH2 0x846 JUMPI PUSH1 0x40 MLOAD PUSH32 0x8C379A000000000000000000000000000000000000000000000000000000000 DUP2 MSTORE PUSH1 0x4 ADD PUSH2 0x6C6 SWAP1 PUSH2 0x55AF JUMP JUMPDEST POP POP PUSH1 0x0 SWAP2 DUP3 MSTORE PUSH1 0x6 PUSH1 0x20 SWAP1 DUP2 MSTORE PUSH1 0x40 DUP1 DUP5 KECCAK256 PUSH20 0xFFFFFFFFFFFFFFFFFFFFFFFFFFFFFFFFFFFFFFFF SWAP1 SWAP4 AND DUP5 MSTORE SWAP2 SWAP1 MSTORE SWAP1 KECCAK256 DUP1 SLOAD PUSH32 0xFFFFFFFFFFFFFFFFFFFFFFFFFFFFFFFFFFFFFFFFFFFFFFFFFFFFFFFFFFFFFF00 AND PUSH1 0x1 OR SWAP1 SSTORE JUMP JUMPDEST PUSH2 0x8AB PUSH2 0x42C1 JUMP JUMPDEST PUSH2 0x8B3 PUSH2 0x42F0 JUMP JUMPDEST PUSH2 0x8BB PUSH2 0x42F0 JUMP JUMPDEST PUSH1 0x0 DUP1 SLOAD PUSH1 0xFF AND ISZERO PUSH2 0x8F9 JUMPI PUSH1 0x40 MLOAD PUSH32 0x8C379A000000000000000000000000000000000000000000000000000000000 DUP2 MSTORE PUSH1 0x4 ADD PUSH2 0x6C6 SWAP1 PUSH2 0x567F JUMP JUMPDEST PUSH1 0x0 DUP1 SLOAD PUSH32 0xFFFFFFFFFFFFFFFFFFFFFFFFFFFFFFFFFFFFFFFFFFFFFFFFFFFFFFFFFFFFFF00 AND PUSH1 0x1 OR SWAP1 SSTORE PUSH2 0x160 DUP1 DUP10 ADD MLOAD PUSH2 0x140 DUP1 DUP11 ADD SWAP2 SWAP1 SWAP2 MSTORE DUP10 ADD MLOAD SWAP1 DUP9 ADD MSTORE PUSH2 0x945 DUP9 PUSH2 0x1F30 JUMP JUMPDEST SWAP3 POP PUSH2 0x950 DUP8 PUSH2 0x1F30 JUMP JUMPDEST SWAP2 POP PUSH2 0x95A PUSH2 0x2594 JUMP JUMPDEST SWAP1 POP PUSH2 0x968 DUP9 DUP5 DUP4 DUP10 PUSH2 0x25C6 JUMP JUMPDEST PUSH2 0x974 DUP8 DUP4 DUP4 DUP9 PUSH2 0x25C6 JUMP JUMPDEST PUSH2 0x97E DUP9 DUP9 PUSH2 0x275E JUMP JUMPDEST PUSH2 0x992 DUP9 DUP9 DUP6 PUSH1 0x40 ADD MLOAD DUP6 PUSH1 0x40 ADD MLOAD PUSH2 0x27BE JUMP JUMPDEST DUP1 MLOAD PUSH1 0x20 DUP2 ADD MLOAD SWAP1 MLOAD SWAP2 SWAP6 POP PUSH2 0x9AD SWAP2 DUP11 SWAP2 DUP7 SWAP2 DUP2 SWAP1 PUSH2 0x2945 JUMP JUMPDEST PUSH1 0x20 DUP1 DUP6 ADD MLOAD SWAP1 DUP2 ADD MLOAD SWAP1 MLOAD PUSH2 0x9C9 SWAP2 DUP10 SWAP2 DUP6 SWAP2 SWAP1 DUP2 SWAP1 PUSH2 0x2945 JUMP JUMPDEST PUSH2 0x9E2 DUP9 DUP3 DUP6 PUSH1 0x20 ADD MLOAD DUP7 PUSH1 0x40 ADD MLOAD DUP9 PUSH1 0x0 ADD MLOAD PUSH2 0x2A5E JUMP JUMPDEST PUSH2 0x9FB DUP8 DUP3 DUP5 PUSH1 0x20 ADD MLOAD DUP6 PUSH1 0x40 ADD MLOAD DUP9 PUSH1 0x20 ADD MLOAD PUSH2 0x2A5E JUMP JUMPDEST PUSH2 0xA07 DUP9 DUP9 DUP4 DUP8 PUSH2 0x2B0A JUMP JUMPDEST POP POP PUSH1 0x0 DUP1 SLOAD PUSH32 0xFFFFFFFFFFFFFFFFFFFFFFFFFFFFFFFFFFFFFFFFFFFFFFFFFFFFFFFFFFFFFF00 AND SWAP1 SSTORE POP SWAP5 SWAP4 POP POP POP POP JUMP JUMPDEST PUSH2 0xA42 PUSH2 0x4298 JUMP JUMPDEST PUSH1 0x60 PUSH2 0xA4F DUP6 DUP6 DUP6 PUSH2 0x2C92 JUMP JUMPDEST SWAP1 POP PUSH1 0x80 DUP2 DUP3 MLOAD PUSH1 0x20 DUP5 ADD ADDRESS GAS DELEGATECALL DUP1 ISZERO PUSH2 0xA86 JUMPI DUP2 MLOAD DUP4 MSTORE PUSH1 0x20 DUP3 ADD MLOAD PUSH1 0x20 DUP5 ADD MSTORE PUSH1 0x40 DUP3 ADD MLOAD PUSH1 0x40 DUP5 ADD MSTORE PUSH1 0x60 DUP3 ADD MLOAD PUSH1 0x60 DUP5 ADD MSTORE JUMPDEST POP JUMPDEST POP SWAP4 SWAP3 POP POP POP JUMP JUMPDEST PUSH1 0xA PUSH1 0x20 MSTORE PUSH1 0x0 SWAP1 DUP2 MSTORE PUSH1 0x40 SWAP1 KECCAK256 SLOAD PUSH20 0xFFFFFFFFFFFFFFFFFFFFFFFFFFFFFFFFFFFFFFFF AND DUP2 JUMP JUMPDEST PUSH1 0x0 DUP1 SLOAD DUP2 SWAP1 PUSH1 0xFF AND ISZERO PUSH2 0xAF8 JUMPI PUSH1 0x40 MLOAD PUSH32 0x8C379A000000000000000000000000000000000000000000000000000000000 DUP2 MSTORE PUSH1 0x4 ADD PUSH2 0x6C6 SWAP1 PUSH2 0x567F JUMP JUMPDEST POP POP PUSH1 0x0 DUP1 SLOAD PUSH32 0xFFFFFFFFFFFFFFFFFFFFFFFFFFFFFFFFFFFFFFFFFFFFFFFFFFFFFFFFFFFFFF00 AND PUSH1 0x1 OR DUP2 SSTORE DUP2 MLOAD SWAP1 JUMPDEST DUP1 DUP3 EQ PUSH2 0xB58 JUMPI PUSH2 0xB50 DUP4 DUP3 DUP2 MLOAD DUP2 LT ISZERO ISZERO PUSH2 0xB41 JUMPI INVALID JUMPDEST SWAP1 PUSH1 0x20 ADD SWAP1 PUSH1 0x20 MUL ADD MLOAD PUSH2 0x2E64 JUMP JUMPDEST PUSH1 0x1 ADD PUSH2 0xB29 JUMP JUMPDEST POP POP PUSH1 0x0 DUP1 SLOAD PUSH32 0xFFFFFFFFFFFFFFFFFFFFFFFFFFFFFFFFFFFFFFFFFFFFFFFFFFFFFFFFFFFFFF00 AND SWAP1 SSTORE POP JUMP JUMPDEST PUSH2 0xB8D PUSH2 0x4298 JUMP JUMPDEST PUSH1 0x0 DUP1 PUSH2 0xB98 PUSH2 0x4298 JUMP JUMPDEST PUSH1 0x0 SLOAD PUSH1 0xFF AND ISZERO PUSH2 0xBD5 JUMPI PUSH1 0x40 MLOAD PUSH32 0x8C379A000000000000000000000000000000000000000000000000000000000 DUP2 MSTORE PUSH1 0x4 ADD PUSH2 0x6C6 SWAP1 PUSH2 0x567F JUMP JUMPDEST PUSH1 0x0 DUP1 SLOAD PUSH32 0xFFFFFFFFFFFFFFFFFFFFFFFFFFFFFFFFFFFFFFFFFFFFFFFFFFFFFFFFFFFFFF00 AND PUSH1 0x1 OR DUP2 SSTORE DUP8 MLOAD SWAP4 POP SWAP2 POP JUMPDEST DUP2 DUP4 EQ PUSH2 0x76F JUMPI PUSH2 0xC5E DUP8 DUP4 DUP2 MLOAD DUP2 LT ISZERO ISZERO PUSH2 0xC1F JUMPI INVALID JUMPDEST SWAP1 PUSH1 0x20 ADD SWAP1 PUSH1 0x20 MUL ADD MLOAD DUP8 DUP5 DUP2 MLOAD DUP2 LT ISZERO ISZERO PUSH2 0xC37 JUMPI INVALID JUMPDEST SWAP1 PUSH1 0x20 ADD SWAP1 PUSH1 0x20 MUL ADD MLOAD DUP8 DUP6 DUP2 MLOAD DUP2 LT ISZERO ISZERO PUSH2 0xC4F JUMPI INVALID JUMPDEST SWAP1 PUSH1 0x20 ADD SWAP1 PUSH1 0x20 MUL ADD MLOAD PUSH2 0x2E8F JUMP JUMPDEST SWAP1 POP PUSH2 0xC6A DUP5 DUP3 PUSH2 0x2532 JUMP JUMPDEST PUSH1 0x1 SWAP1 SWAP2 ADD SWAP1 PUSH2 0xC07 JUMP JUMPDEST PUSH1 0x0 DUP1 SLOAD DUP2 SWAP1 DUP2 SWAP1 DUP2 SWAP1 PUSH1 0xFF AND ISZERO PUSH2 0xCB9 JUMPI PUSH1 0x40 MLOAD PUSH32 0x8C379A000000000000000000000000000000000000000000000000000000000 DUP2 MSTORE PUSH1 0x4 ADD PUSH2 0x6C6 SWAP1 PUSH2 0x567F JUMP JUMPDEST PUSH1 0x0 DUP1 SLOAD PUSH32 0xFFFFFFFFFFFFFFFFFFFFFFFFFFFFFFFFFFFFFFFFFFFFFFFFFFFFFFFFFFFFFF00 AND PUSH1 0x1 OR SWAP1 SSTORE PUSH2 0xCEC PUSH2 0x2594 JUMP JUMPDEST SWAP4 POP PUSH20 0xFFFFFFFFFFFFFFFFFFFFFFFFFFFFFFFFFFFFFFFF DUP5 AND CALLER EQ PUSH2 0xD11 JUMPI CALLER PUSH2 0xD14 JUMP JUMPDEST PUSH1 0x0 JUMPDEST PUSH20 0xFFFFFFFFFFFFFFFFFFFFFFFFFFFFFFFFFFFFFFFF DUP1 DUP7 AND PUSH1 0x0 SWAP1 DUP2 MSTORE PUSH1 0x5 PUSH1 0x20 SWAP1 DUP2 MSTORE PUSH1 0x40 DUP1 DUP4 KECCAK256 SWAP4 DUP6 AND DUP4 MSTORE SWAP3 SWAP1 MSTORE KECCAK256 SLOAD SWAP1 SWAP4 POP PUSH1 0x1 DUP7 ADD SWAP3 POP SWAP1 POP DUP1 DUP3 GT PUSH2 0xD8B JUMPI PUSH1 0x40 MLOAD PUSH32 0x8C379A000000000000000000000000000000000000000000000000000000000 DUP2 MSTORE PUSH1 0x4 ADD PUSH2 0x6C6 SWAP1 PUSH2 0x563F JUMP JUMPDEST PUSH20 0xFFFFFFFFFFFFFFFFFFFFFFFFFFFFFFFFFFFFFFFF DUP1 DUP6 AND PUSH1 0x0 DUP2 DUP2 MSTORE PUSH1 0x5 PUSH1 0x20 SWAP1 DUP2 MSTORE PUSH1 0x40 DUP1 DUP4 KECCAK256 SWAP5 DUP9 AND DUP1 DUP5 MSTORE SWAP5 SWAP1 SWAP2 MSTORE SWAP1 DUP2 SWAP1 KECCAK256 DUP6 SWAP1 SSTORE MLOAD PUSH32 0x82AF639571738F4EBD4268FB0363D8957EBE1BBB9E78DBA5EBD69EED39B154F0 SWAP1 PUSH2 0xDF3 SWAP1 DUP7 SWAP1 PUSH2 0x5425 JUMP JUMPDEST PUSH1 0x40 MLOAD DUP1 SWAP2 SUB SWAP1 LOG3 POP POP PUSH1 0x0 DUP1 SLOAD PUSH32 0xFFFFFFFFFFFFFFFFFFFFFFFFFFFFFFFFFFFFFFFFFFFFFFFFFFFFFFFFFFFFFF00 AND SWAP1 SSTORE POP POP POP JUMP JUMPDEST PUSH2 0xE32 PUSH2 0x4298 JUMP JUMPDEST PUSH1 0x0 DUP1 PUSH2 0xE3D PUSH2 0x4298 JUMP JUMPDEST DUP7 MLOAD SWAP3 POP PUSH1 0x0 SWAP2 POP JUMPDEST DUP2 DUP4 EQ PUSH2 0xEB4 JUMPI PUSH2 0xE9D DUP8 DUP4 DUP2 MLOAD DUP2 LT ISZERO ISZERO PUSH2 0xE5E JUMPI INVALID JUMPDEST SWAP1 PUSH1 0x20 ADD SWAP1 PUSH1 0x20 MUL ADD MLOAD DUP8 DUP5 DUP2 MLOAD DUP2 LT ISZERO ISZERO PUSH2 0xE76 JUMPI INVALID JUMPDEST SWAP1 PUSH1 0x20 ADD SWAP1 PUSH1 0x20 MUL ADD MLOAD DUP8 DUP6 DUP2 MLOAD DUP2 LT ISZERO ISZERO PUSH2 0xE8E JUMPI INVALID JUMPDEST SWAP1 PUSH1 0x20 ADD SWAP1 PUSH1 0x20 MUL ADD MLOAD PUSH2 0xA3A JUMP JUMPDEST SWAP1 POP PUSH2 0xEA9 DUP5 DUP3 PUSH2 0x2532 JUMP JUMPDEST PUSH1 0x1 SWAP1 SWAP2 ADD SWAP1 PUSH2 0xE46 JUMP JUMPDEST POP POP POP SWAP4 SWAP3 POP POP POP JUMP JUMPDEST PUSH32 0xFFFFFFFF00000000000000000000000000000000000000000000000000000000 DUP2 AND PUSH1 0x0 SWAP1 DUP2 MSTORE PUSH1 0xA PUSH1 0x20 MSTORE PUSH1 0x40 SWAP1 KECCAK256 SLOAD PUSH20 0xFFFFFFFFFFFFFFFFFFFFFFFFFFFFFFFFFFFFFFFF AND JUMPDEST SWAP2 SWAP1 POP JUMP JUMPDEST PUSH1 0x8 PUSH1 0x20 MSTORE PUSH1 0x0 SWAP1 DUP2 MSTORE PUSH1 0x40 SWAP1 KECCAK256 SLOAD PUSH1 0xFF AND DUP2 JUMP JUMPDEST PUSH2 0xF29 PUSH2 0x4298 JUMP JUMPDEST PUSH1 0x0 SLOAD PUSH1 0xFF AND ISZERO PUSH2 0xF66 JUMPI PUSH1 0x40 MLOAD PUSH32 0x8C379A000000000000000000000000000000000000000000000000000000000 DUP2 MSTORE PUSH1 0x4 ADD PUSH2 0x6C6 SWAP1 PUSH2 0x567F JUMP JUMPDEST PUSH1 0x0 DUP1 SLOAD PUSH32 0xFFFFFFFFFFFFFFFFFFFFFFFFFFFFFFFFFFFFFFFFFFFFFFFFFFFFFFFFFFFFFF00 AND PUSH1 0x1 OR SWAP1 SSTORE PUSH2 0xF9C DUP5 DUP5 DUP5 PUSH2 0x2E8F JUMP JUMPDEST PUSH1 0x0 DUP1 SLOAD PUSH32 0xFFFFFFFFFFFFFFFFFFFFFFFFFFFFFFFFFFFFFFFFFFFFFFFFFFFFFFFFFFFFFF00 AND SWAP1 SSTORE SWAP5 SWAP4 POP POP POP POP JUMP JUMPDEST PUSH1 0x0 DUP1 SLOAD PUSH1 0xFF AND ISZERO PUSH2 0x100A JUMPI PUSH1 0x40 MLOAD PUSH32 0x8C379A000000000000000000000000000000000000000000000000000000000 DUP2 MSTORE PUSH1 0x4 ADD PUSH2 0x6C6 SWAP1 PUSH2 0x567F JUMP JUMPDEST PUSH1 0x0 DUP1 SLOAD PUSH32 0xFFFFFFFFFFFFFFFFFFFFFFFFFFFFFFFFFFFFFFFFFFFFFFFFFFFFFFFFFFFFFF00 AND PUSH1 0x1 OR SWAP1 SSTORE PUSH2 0x103D PUSH2 0x2594 JUMP JUMPDEST PUSH20 0xFFFFFFFFFFFFFFFFFFFFFFFFFFFFFFFFFFFFFFFF DUP2 DUP2 AND PUSH1 0x0 DUP2 DUP2 MSTORE PUSH1 0x7 PUSH1 0x20 SWAP1 DUP2 MSTORE PUSH1 0x40 DUP1 DUP4 KECCAK256 SWAP5 DUP10 AND DUP1 DUP5 MSTORE SWAP5 SWAP1 SWAP2 MSTORE SWAP1 DUP2 SWAP1 KECCAK256 DUP1 SLOAD PUSH32 0xFFFFFFFFFFFFFFFFFFFFFFFFFFFFFFFFFFFFFFFFFFFFFFFFFFFFFFFFFFFFFF00 AND DUP8 ISZERO ISZERO OR SWAP1 SSTORE MLOAD SWAP3 SWAP4 POP SWAP1 SWAP2 PUSH32 0xA8656E308026EEABCE8F0BC18048433252318AB80AC79DA0B3D3D8697DFBA891 SWAP1 PUSH2 0x10D1 SWAP1 DUP7 SWAP1 PUSH2 0x5417 JUMP JUMPDEST PUSH1 0x40 MLOAD DUP1 SWAP2 SUB SWAP1 LOG3 POP POP PUSH1 0x0 DUP1 SLOAD PUSH32 0xFFFFFFFFFFFFFFFFFFFFFFFFFFFFFFFFFFFFFFFFFFFFFFFFFFFFFFFFFFFFFF00 AND SWAP1 SSTORE POP JUMP JUMPDEST PUSH1 0x7 PUSH1 0x20 SWAP1 DUP2 MSTORE PUSH1 0x0 SWAP3 DUP4 MSTORE PUSH1 0x40 DUP1 DUP5 KECCAK256 SWAP1 SWAP2 MSTORE SWAP1 DUP3 MSTORE SWAP1 KECCAK256 SLOAD PUSH1 0xFF AND DUP2 JUMP JUMPDEST PUSH2 0x112E PUSH2 0x4298 JUMP JUMPDEST PUSH1 0x60 PUSH1 0x0 DUP1 PUSH1 0x0 PUSH2 0x113D PUSH2 0x4298 JUMP JUMPDEST PUSH1 0x0 SLOAD PUSH1 0xFF AND ISZERO PUSH2 0x117A JUMPI PUSH1 0x40 MLOAD PUSH32 0x8C379A000000000000000000000000000000000000000000000000000000000 DUP2 MSTORE PUSH1 0x4 ADD PUSH2 0x6C6 SWAP1 PUSH2 0x567F JUMP JUMPDEST PUSH1 0x0 DUP1 SLOAD PUSH32 0xFFFFFFFFFFFFFFFFFFFFFFFFFFFFFFFFFFFFFFFFFFFFFFFFFFFFFFFFFFFFFF00 AND PUSH1 0x1 OR DUP2 SSTORE DUP10 MLOAD DUP11 SWAP2 SWAP1 DUP2 LT PUSH2 0x11B2 JUMPI INVALID JUMPDEST SWAP1 PUSH1 0x20 ADD SWAP1 PUSH1 0x20 MUL ADD MLOAD PUSH2 0x160 ADD MLOAD SWAP5 POP DUP9 MLOAD SWAP4 POP PUSH1 0x0 SWAP3 POP JUMPDEST DUP3 DUP5 EQ PUSH2 0x1255 JUMPI DUP5 DUP10 DUP5 DUP2 MLOAD DUP2 LT ISZERO ISZERO PUSH2 0x11E2 JUMPI INVALID JUMPDEST SWAP1 PUSH1 0x20 ADD SWAP1 PUSH1 0x20 MUL ADD MLOAD PUSH2 0x160 ADD DUP2 SWAP1 MSTORE POP PUSH2 0x1202 DUP9 DUP8 PUSH1 0x20 ADD MLOAD PUSH2 0x2EE2 JUMP JUMPDEST SWAP2 POP PUSH2 0x122E DUP10 DUP5 DUP2 MLOAD DUP2 LT ISZERO ISZERO PUSH2 0x1215 JUMPI INVALID JUMPDEST SWAP1 PUSH1 0x20 ADD SWAP1 PUSH1 0x20 MUL ADD MLOAD DUP4 DUP10 DUP7 DUP2 MLOAD DUP2 LT ISZERO ISZERO PUSH2 0x749 JUMPI INVALID JUMPDEST SWAP1 POP PUSH2 0x123A DUP7 DUP3 PUSH2 0x2532 JUMP JUMPDEST PUSH1 0x20 DUP7 ADD MLOAD DUP9 GT PUSH2 0x124A JUMPI PUSH2 0x1255 JUMP JUMPDEST PUSH1 0x1 SWAP1 SWAP3 ADD SWAP2 PUSH2 0x11CC JUMP JUMPDEST POP POP PUSH1 0x0 DUP1 SLOAD PUSH32 0xFFFFFFFFFFFFFFFFFFFFFFFFFFFFFFFFFFFFFFFFFFFFFFFFFFFFFFFFFFFFFF00 AND SWAP1 SSTORE POP SWAP2 SWAP6 SWAP5 POP POP POP POP POP JUMP JUMPDEST PUSH1 0x60 PUSH1 0x0 PUSH1 0x60 PUSH1 0x0 DUP5 MLOAD SWAP3 POP DUP3 PUSH1 0x40 MLOAD SWAP1 DUP1 DUP3 MSTORE DUP1 PUSH1 0x20 MUL PUSH1 0x20 ADD DUP3 ADD PUSH1 0x40 MSTORE DUP1 ISZERO PUSH2 0x12D0 JUMPI DUP2 PUSH1 0x20 ADD JUMPDEST PUSH2 0x12BD PUSH2 0x42F0 JUMP JUMPDEST DUP2 MSTORE PUSH1 0x20 ADD SWAP1 PUSH1 0x1 SWAP1 SUB SWAP1 DUP2 PUSH2 0x12B5 JUMPI SWAP1 POP JUMPDEST POP SWAP2 POP PUSH1 0x0 SWAP1 POP JUMPDEST DUP1 DUP4 EQ PUSH2 0xA88 JUMPI PUSH2 0x12FF DUP6 DUP3 DUP2 MLOAD DUP2 LT ISZERO ISZERO PUSH2 0x12F0 JUMPI INVALID JUMPDEST SWAP1 PUSH1 0x20 ADD SWAP1 PUSH1 0x20 MUL ADD MLOAD PUSH2 0x1F30 JUMP JUMPDEST DUP3 DUP3 DUP2 MLOAD DUP2 LT ISZERO ISZERO PUSH2 0x130D JUMPI INVALID JUMPDEST PUSH1 0x20 SWAP1 DUP2 MUL SWAP1 SWAP2 ADD ADD MSTORE PUSH1 0x1 ADD PUSH2 0x12D8 JUMP JUMPDEST PUSH1 0x6 PUSH1 0x20 SWAP1 DUP2 MSTORE PUSH1 0x0 SWAP3 DUP4 MSTORE PUSH1 0x40 DUP1 DUP5 KECCAK256 SWAP1 SWAP2 MSTORE SWAP1 DUP3 MSTORE SWAP1 KECCAK256 SLOAD PUSH1 0xFF AND DUP2 JUMP JUMPDEST PUSH1 0x2 SLOAD PUSH20 0xFFFFFFFFFFFFFFFFFFFFFFFFFFFFFFFFFFFFFFFF AND DUP2 JUMP JUMPDEST PUSH1 0x0 DUP1 PUSH1 0x0 DUP1 PUSH1 0x0 DUP1 PUSH1 0x0 DUP1 PUSH1 0x0 DUP10 MLOAD GT ISZERO ISZERO PUSH2 0x13A4 JUMPI PUSH1 0x40 MLOAD PUSH32 0x8C379A000000000000000000000000000000000000000000000000000000000 DUP2 MSTORE PUSH1 0x4 ADD PUSH2 0x6C6 SWAP1 PUSH2 0x562F JUMP JUMPDEST PUSH2 0x13AD DUP10 PUSH2 0x2F29 JUMP JUMPDEST PUSH32 0x100000000000000000000000000000000000000000000000000000000000000 SWAP1 DIV SWAP7 POP PUSH1 0x7 PUSH1 0xFF DUP9 AND LT PUSH2 0x140F JUMPI PUSH1 0x40 MLOAD PUSH32 0x8C379A000000000000000000000000000000000000000000000000000000000 DUP2 MSTORE PUSH1 0x4 ADD PUSH2 0x6C6 SWAP1 PUSH2 0x554F JUMP JUMPDEST DUP7 PUSH1 0xFF AND PUSH1 0x7 DUP2 GT ISZERO PUSH2 0x141E JUMPI INVALID JUMPDEST SWAP6 POP PUSH1 0x0 DUP7 PUSH1 0x7 DUP2 GT ISZERO PUSH2 0x142E JUMPI INVALID JUMPDEST EQ ISZERO PUSH2 0x1466 JUMPI PUSH1 0x40 MLOAD PUSH32 0x8C379A000000000000000000000000000000000000000000000000000000000 DUP2 MSTORE PUSH1 0x4 ADD PUSH2 0x6C6 SWAP1 PUSH2 0x561F JUMP JUMPDEST PUSH1 0x1 DUP7 PUSH1 0x7 DUP2 GT ISZERO PUSH2 0x1474 JUMPI INVALID JUMPDEST EQ ISZERO PUSH2 0x14BC JUMPI DUP9 MLOAD ISZERO PUSH2 0x14B3 JUMPI PUSH1 0x40 MLOAD PUSH32 0x8C379A000000000000000000000000000000000000000000000000000000000 DUP2 MSTORE PUSH1 0x4 ADD PUSH2 0x6C6 SWAP1 PUSH2 0x56EF JUMP JUMPDEST PUSH1 0x0 SWAP8 POP PUSH2 0x18D0 JUMP JUMPDEST PUSH1 0x2 DUP7 PUSH1 0x7 DUP2 GT ISZERO PUSH2 0x14CA JUMPI INVALID JUMPDEST EQ ISZERO PUSH2 0x1605 JUMPI DUP9 MLOAD PUSH1 0x41 EQ PUSH2 0x150B JUMPI PUSH1 0x40 MLOAD PUSH32 0x8C379A000000000000000000000000000000000000000000000000000000000 DUP2 MSTORE PUSH1 0x4 ADD PUSH2 0x6C6 SWAP1 PUSH2 0x54EF JUMP JUMPDEST DUP9 PUSH1 0x0 DUP2 MLOAD DUP2 LT ISZERO ISZERO PUSH2 0x151A JUMPI INVALID JUMPDEST ADD PUSH1 0x20 ADD MLOAD PUSH32 0x100000000000000000000000000000000000000000000000000000000000000 SWAP1 DUP2 SWAP1 DIV DUP2 MUL DIV SWAP5 POP PUSH2 0x155A DUP10 PUSH1 0x1 PUSH4 0xFFFFFFFF PUSH2 0x2FED AND JUMP JUMPDEST SWAP4 POP PUSH2 0x156D DUP10 PUSH1 0x21 PUSH4 0xFFFFFFFF PUSH2 0x2FED AND JUMP JUMPDEST SWAP3 POP PUSH1 0x1 DUP12 DUP7 DUP7 DUP7 PUSH1 0x40 MLOAD PUSH1 0x0 DUP2 MSTORE PUSH1 0x20 ADD PUSH1 0x40 MSTORE PUSH1 0x40 MLOAD PUSH2 0x1592 SWAP5 SWAP4 SWAP3 SWAP2 SWAP1 PUSH2 0x5480 JUMP JUMPDEST PUSH1 0x20 PUSH1 0x40 MLOAD PUSH1 0x20 DUP2 SUB SWAP1 DUP1 DUP5 SUB SWAP1 PUSH1 0x0 DUP7 GAS CALL ISZERO DUP1 ISZERO PUSH2 0x15B6 JUMPI RETURNDATASIZE PUSH1 0x0 DUP1 RETURNDATACOPY RETURNDATASIZE PUSH1 0x0 REVERT JUMPDEST POP POP PUSH1 0x40 MLOAD PUSH32 0xFFFFFFFFFFFFFFFFFFFFFFFFFFFFFFFFFFFFFFFFFFFFFFFFFFFFFFFFFFFFFFE0 ADD MLOAD PUSH20 0xFFFFFFFFFFFFFFFFFFFFFFFFFFFFFFFFFFFFFFFF DUP13 DUP2 AND SWAP1 DUP3 AND EQ SWAP10 POP SWAP3 POP PUSH2 0x18D0 SWAP1 POP JUMP JUMPDEST PUSH1 0x3 DUP7 PUSH1 0x7 DUP2 GT ISZERO PUSH2 0x1613 JUMPI INVALID JUMPDEST EQ ISZERO PUSH2 0x17B9 JUMPI DUP9 MLOAD PUSH1 0x41 EQ PUSH2 0x1654 JUMPI PUSH1 0x40 MLOAD PUSH32 0x8C379A000000000000000000000000000000000000000000000000000000000 DUP2 MSTORE PUSH1 0x4 ADD PUSH2 0x6C6 SWAP1 PUSH2 0x54EF JUMP JUMPDEST DUP9 PUSH1 0x0 DUP2 MLOAD DUP2 LT ISZERO ISZERO PUSH2 0x1663 JUMPI INVALID JUMPDEST ADD PUSH1 0x20 ADD MLOAD PUSH32 0x100000000000000000000000000000000000000000000000000000000000000 SWAP1 DUP2 SWAP1 DIV DUP2 MUL DIV SWAP5 POP PUSH2 0x16A3 DUP10 PUSH1 0x1 PUSH4 0xFFFFFFFF PUSH2 0x2FED AND JUMP JUMPDEST SWAP4 POP PUSH2 0x16B6 DUP10 PUSH1 0x21 PUSH4 0xFFFFFFFF PUSH2 0x2FED AND JUMP JUMPDEST SWAP3 POP PUSH1 0x1 DUP12 PUSH1 0x40 MLOAD PUSH1 0x20 ADD DUP1 DUP1 PUSH32 0x19457468657265756D205369676E6564204D6573736167653A0A333200000000 DUP2 MSTORE POP PUSH1 0x1C ADD DUP3 PUSH1 0x0 NOT AND PUSH1 0x0 NOT AND DUP2 MSTORE PUSH1 0x20 ADD SWAP2 POP POP PUSH1 0x40 MLOAD PUSH1 0x20 DUP2 DUP4 SUB SUB DUP2 MSTORE SWAP1 PUSH1 0x40 MSTORE PUSH1 0x40 MLOAD DUP1 DUP3 DUP1 MLOAD SWAP1 PUSH1 0x20 ADD SWAP1 DUP1 DUP4 DUP4 JUMPDEST PUSH1 0x20 DUP4 LT PUSH2 0x1757 JUMPI DUP1 MLOAD DUP3 MSTORE PUSH32 0xFFFFFFFFFFFFFFFFFFFFFFFFFFFFFFFFFFFFFFFFFFFFFFFFFFFFFFFFFFFFFFE0 SWAP1 SWAP3 ADD SWAP2 PUSH1 0x20 SWAP2 DUP3 ADD SWAP2 ADD PUSH2 0x171A JUMP JUMPDEST MLOAD DUP2 MLOAD PUSH1 0x20 SWAP4 DUP5 SUB PUSH2 0x100 EXP PUSH32 0xFFFFFFFFFFFFFFFFFFFFFFFFFFFFFFFFFFFFFFFFFFFFFFFFFFFFFFFFFFFFFFFF ADD DUP1 NOT SWAP1 SWAP3 AND SWAP2 AND OR SWAP1 MSTORE PUSH1 0x40 DUP1 MLOAD SWAP3 SWAP1 SWAP5 ADD DUP3 SWAP1 SUB DUP3 KECCAK256 PUSH1 0x0 DUP4 MSTORE SWAP2 ADD SWAP3 DUP4 SWAP1 MSTORE PUSH2 0x1592 SWAP5 POP SWAP3 POP DUP10 SWAP2 DUP10 SWAP2 POP DUP9 SWAP1 PUSH2 0x5480 JUMP JUMPDEST PUSH1 0x4 DUP7 PUSH1 0x7 DUP2 GT ISZERO PUSH2 0x17C7 JUMPI INVALID JUMPDEST EQ ISZERO PUSH2 0x17DF JUMPI PUSH2 0x17D8 DUP12 DUP12 DUP12 PUSH2 0x3038 JUMP JUMPDEST SWAP8 POP PUSH2 0x18D0 JUMP JUMPDEST PUSH1 0x5 DUP7 PUSH1 0x7 DUP2 GT ISZERO PUSH2 0x17ED JUMPI INVALID JUMPDEST EQ ISZERO PUSH2 0x1850 JUMPI PUSH2 0x17FC DUP10 PUSH2 0x318D JUMP JUMPDEST PUSH20 0xFFFFFFFFFFFFFFFFFFFFFFFFFFFFFFFFFFFFFFFF DUP1 DUP13 AND PUSH1 0x0 SWAP1 DUP2 MSTORE PUSH1 0x7 PUSH1 0x20 SWAP1 DUP2 MSTORE PUSH1 0x40 DUP1 DUP4 KECCAK256 SWAP4 DUP6 AND DUP4 MSTORE SWAP3 SWAP1 MSTORE KECCAK256 SLOAD SWAP1 SWAP2 POP PUSH1 0xFF AND ISZERO ISZERO PUSH2 0x1844 JUMPI PUSH1 0x0 SWAP8 POP PUSH2 0x18D0 JUMP JUMPDEST PUSH2 0x17D8 DUP2 DUP13 DUP13 DUP13 PUSH2 0x3206 JUMP JUMPDEST PUSH1 0x6 DUP7 PUSH1 0x7 DUP2 GT ISZERO PUSH2 0x185E JUMPI INVALID JUMPDEST EQ ISZERO PUSH2 0x189E JUMPI PUSH1 0x0 DUP12 DUP2 MSTORE PUSH1 0x6 PUSH1 0x20 SWAP1 DUP2 MSTORE PUSH1 0x40 DUP1 DUP4 KECCAK256 PUSH20 0xFFFFFFFFFFFFFFFFFFFFFFFFFFFFFFFFFFFFFFFF DUP15 AND DUP5 MSTORE SWAP1 SWAP2 MSTORE SWAP1 KECCAK256 SLOAD PUSH1 0xFF AND SWAP8 POP PUSH2 0x18D0 JUMP JUMPDEST PUSH1 0x40 MLOAD PUSH32 0x8C379A000000000000000000000000000000000000000000000000000000000 DUP2 MSTORE PUSH1 0x4 ADD PUSH2 0x6C6 SWAP1 PUSH2 0x554F JUMP JUMPDEST POP POP POP POP POP POP POP SWAP4 SWAP3 POP POP POP JUMP JUMPDEST PUSH2 0x18E6 PUSH2 0x4298 JUMP JUMPDEST PUSH1 0x60 PUSH1 0x0 DUP1 PUSH1 0x0 DUP1 PUSH2 0x18F6 PUSH2 0x4298 JUMP JUMPDEST DUP10 PUSH1 0x0 DUP2 MLOAD DUP2 LT ISZERO ISZERO PUSH2 0x1905 JUMPI INVALID JUMPDEST SWAP1 PUSH1 0x20 ADD SWAP1 PUSH1 0x20 MUL ADD MLOAD PUSH2 0x140 ADD MLOAD SWAP6 POP DUP10 MLOAD SWAP5 POP PUSH1 0x0 SWAP4 POP JUMPDEST DUP4 DUP6 EQ PUSH2 0x19E4 JUMPI DUP6 DUP11 DUP6 DUP2 MLOAD DUP2 LT ISZERO ISZERO PUSH2 0x1935 JUMPI INVALID JUMPDEST PUSH1 0x20 SWAP1 DUP2 MUL SWAP1 SWAP2 ADD ADD MLOAD PUSH2 0x140 ADD MSTORE DUP7 MLOAD PUSH2 0x1951 SWAP1 DUP11 SWAP1 PUSH2 0x2EE2 JUMP JUMPDEST SWAP3 POP PUSH2 0x1994 DUP11 DUP6 DUP2 MLOAD DUP2 LT ISZERO ISZERO PUSH2 0x1964 JUMPI INVALID JUMPDEST SWAP1 PUSH1 0x20 ADD SWAP1 PUSH1 0x20 MUL ADD MLOAD PUSH1 0xA0 ADD MLOAD DUP12 DUP7 DUP2 MLOAD DUP2 LT ISZERO ISZERO PUSH2 0x1980 JUMPI INVALID JUMPDEST SWAP1 PUSH1 0x20 ADD SWAP1 PUSH1 0x20 MUL ADD MLOAD PUSH1 0x80 ADD MLOAD DUP6 PUSH2 0x3362 JUMP JUMPDEST SWAP2 POP PUSH2 0x19C0 DUP11 DUP6 DUP2 MLOAD DUP2 LT ISZERO ISZERO PUSH2 0x19A7 JUMPI INVALID JUMPDEST SWAP1 PUSH1 0x20 ADD SWAP1 PUSH1 0x20 MUL ADD MLOAD DUP4 DUP11 DUP8 DUP2 MLOAD DUP2 LT ISZERO ISZERO PUSH2 0xE8E JUMPI INVALID JUMPDEST SWAP1 POP PUSH2 0x19CC DUP8 DUP3 PUSH2 0x2532 JUMP JUMPDEST DUP7 MLOAD DUP10 GT PUSH2 0x19D9 JUMPI PUSH2 0x19E4 JUMP JUMPDEST PUSH1 0x1 SWAP1 SWAP4 ADD SWAP3 PUSH2 0x191F JUMP JUMPDEST POP POP POP POP POP POP SWAP4 SWAP3 POP POP POP JUMP JUMPDEST PUSH2 0x19F9 PUSH2 0x4298 JUMP JUMPDEST PUSH1 0x0 SLOAD PUSH1 0xFF AND ISZERO PUSH2 0x1A36 JUMPI PUSH1 0x40 MLOAD PUSH32 0x8C379A000000000000000000000000000000000000000000000000000000000 DUP2 MSTORE PUSH1 0x4 ADD PUSH2 0x6C6 SWAP1 PUSH2 0x567F JUMP JUMPDEST PUSH1 0x0 DUP1 SLOAD PUSH32 0xFFFFFFFFFFFFFFFFFFFFFFFFFFFFFFFFFFFFFFFFFFFFFFFFFFFFFFFFFFFFFF00 AND PUSH1 0x1 OR SWAP1 SSTORE PUSH2 0xF9C DUP5 DUP5 DUP5 PUSH2 0x2494 JUMP JUMPDEST PUSH1 0x9 SLOAD PUSH1 0x0 SWAP1 PUSH20 0xFFFFFFFFFFFFFFFFFFFFFFFFFFFFFFFFFFFFFFFF AND ISZERO PUSH2 0x1ABF JUMPI PUSH1 0x40 MLOAD PUSH32 0x8C379A000000000000000000000000000000000000000000000000000000000 DUP2 MSTORE PUSH1 0x4 ADD PUSH2 0x6C6 SWAP1 PUSH2 0x567F JUMP JUMPDEST PUSH2 0x1B02 PUSH2 0x1AFD DUP9 DUP9 DUP9 DUP9 DUP1 DUP1 PUSH1 0x1F ADD PUSH1 0x20 DUP1 SWAP2 DIV MUL PUSH1 0x20 ADD PUSH1 0x40 MLOAD SWAP1 DUP2 ADD PUSH1 0x40 MSTORE DUP1 SWAP4 SWAP3 SWAP2 SWAP1 DUP2 DUP2 MSTORE PUSH1 0x20 ADD DUP4 DUP4 DUP1 DUP3 DUP5 CALLDATACOPY POP PUSH2 0x33B8 SWAP5 POP POP POP POP POP JUMP JUMPDEST PUSH2 0x35F9 JUMP JUMPDEST PUSH1 0x0 DUP2 DUP2 MSTORE PUSH1 0x8 PUSH1 0x20 MSTORE PUSH1 0x40 SWAP1 KECCAK256 SLOAD SWAP1 SWAP2 POP PUSH1 0xFF AND ISZERO PUSH2 0x1B4E JUMPI PUSH1 0x40 MLOAD PUSH32 0x8C379A000000000000000000000000000000000000000000000000000000000 DUP2 MSTORE PUSH1 0x4 ADD PUSH2 0x6C6 SWAP1 PUSH2 0x559F JUMP JUMPDEST PUSH20 0xFFFFFFFFFFFFFFFFFFFFFFFFFFFFFFFFFFFFFFFF DUP7 AND CALLER EQ PUSH2 0x1C1F JUMPI PUSH2 0x1BA6 DUP2 DUP8 DUP6 DUP6 DUP1 DUP1 PUSH1 0x1F ADD PUSH1 0x20 DUP1 SWAP2 DIV MUL PUSH1 0x20 ADD PUSH1 0x40 MLOAD SWAP1 DUP2 ADD PUSH1 0x40 MSTORE DUP1 SWAP4 SWAP3 SWAP2 SWAP1 DUP2 DUP2 MSTORE PUSH1 0x20 ADD DUP4 DUP4 DUP1 DUP3 DUP5 CALLDATACOPY POP PUSH2 0x135B SWAP5 POP POP POP POP POP JUMP JUMPDEST ISZERO ISZERO PUSH2 0x1BDE JUMPI PUSH1 0x40 MLOAD PUSH32 0x8C379A000000000000000000000000000000000000000000000000000000000 DUP2 MSTORE PUSH1 0x4 ADD PUSH2 0x6C6 SWAP1 PUSH2 0x56DF JUMP JUMPDEST PUSH1 0x9 DUP1 SLOAD PUSH32 0xFFFFFFFFFFFFFFFFFFFFFFFF0000000000000000000000000000000000000000 AND PUSH20 0xFFFFFFFFFFFFFFFFFFFFFFFFFFFFFFFFFFFFFFFF DUP9 AND OR SWAP1 SSTORE JUMPDEST PUSH1 0x0 DUP2 DUP2 MSTORE PUSH1 0x8 PUSH1 0x20 MSTORE PUSH1 0x40 SWAP1 DUP2 SWAP1 KECCAK256 DUP1 SLOAD PUSH32 0xFFFFFFFFFFFFFFFFFFFFFFFFFFFFFFFFFFFFFFFFFFFFFFFFFFFFFFFFFFFFFF00 AND PUSH1 0x1 OR SWAP1 SSTORE MLOAD ADDRESS SWAP1 DUP7 SWAP1 DUP7 SWAP1 DUP1 DUP4 DUP4 DUP1 DUP3 DUP5 CALLDATACOPY DUP3 ADD SWAP2 POP POP SWAP3 POP POP POP PUSH1 0x0 PUSH1 0x40 MLOAD DUP1 DUP4 SUB DUP2 DUP6 GAS DELEGATECALL SWAP2 POP POP ISZERO ISZERO PUSH2 0x1CB6 JUMPI PUSH1 0x40 MLOAD PUSH32 0x8C379A000000000000000000000000000000000000000000000000000000000 DUP2 MSTORE PUSH1 0x4 ADD PUSH2 0x6C6 SWAP1 PUSH2 0x55CF JUMP JUMPDEST PUSH20 0xFFFFFFFFFFFFFFFFFFFFFFFFFFFFFFFFFFFFFFFF DUP7 AND CALLER EQ PUSH2 0x1CFC JUMPI PUSH1 0x9 DUP1 SLOAD PUSH32 0xFFFFFFFFFFFFFFFFFFFFFFFF0000000000000000000000000000000000000000 AND SWAP1 SSTORE JUMPDEST POP POP POP POP POP POP POP JUMP JUMPDEST PUSH1 0x2 SLOAD PUSH1 0x0 SWAP1 DUP2 SWAP1 DUP2 SWAP1 PUSH20 0xFFFFFFFFFFFFFFFFFFFFFFFFFFFFFFFFFFFFFFFF AND CALLER EQ PUSH2 0x1D5D JUMPI PUSH1 0x40 MLOAD PUSH32 0x8C379A000000000000000000000000000000000000000000000000000000000 DUP2 MSTORE PUSH1 0x4 ADD PUSH2 0x6C6 SWAP1 PUSH2 0x568F JUMP JUMPDEST DUP4 SWAP3 POP DUP3 PUSH20 0xFFFFFFFFFFFFFFFFFFFFFFFFFFFFFFFFFFFFFFFF AND PUSH4 0xAE25532E PUSH1 0x40 MLOAD DUP2 PUSH4 0xFFFFFFFF AND PUSH29 0x100000000000000000000000000000000000000000000000000000000 MUL DUP2 MSTORE PUSH1 0x4 ADD PUSH1 0x20 PUSH1 0x40 MLOAD DUP1 DUP4 SUB DUP2 PUSH1 0x0 DUP8 DUP1 EXTCODESIZE ISZERO DUP1 ISZERO PUSH2 0x1DC4 JUMPI PUSH1 0x0 DUP1 REVERT JUMPDEST POP GAS CALL ISZERO DUP1 ISZERO PUSH2 0x1DD8 JUMPI RETURNDATASIZE PUSH1 0x0 DUP1 RETURNDATACOPY RETURNDATASIZE PUSH1 0x0 REVERT JUMPDEST POP POP POP POP PUSH1 0x40 MLOAD RETURNDATASIZE PUSH1 0x1F NOT PUSH1 0x1F DUP3 ADD AND DUP3 ADD DUP1 PUSH1 0x40 MSTORE POP PUSH2 0x1DFC SWAP2 SWAP1 DUP2 ADD SWAP1 PUSH2 0x491E JUMP JUMPDEST PUSH32 0xFFFFFFFF00000000000000000000000000000000000000000000000000000000 DUP2 AND PUSH1 0x0 SWAP1 DUP2 MSTORE PUSH1 0xA PUSH1 0x20 MSTORE PUSH1 0x40 SWAP1 KECCAK256 SLOAD SWAP1 SWAP3 POP PUSH20 0xFFFFFFFFFFFFFFFFFFFFFFFFFFFFFFFFFFFFFFFF AND SWAP1 POP DUP1 ISZERO PUSH2 0x1E81 JUMPI PUSH1 0x40 MLOAD PUSH32 0x8C379A000000000000000000000000000000000000000000000000000000000 DUP2 MSTORE PUSH1 0x4 ADD PUSH2 0x6C6 SWAP1 PUSH2 0x552F JUMP JUMPDEST PUSH32 0xFFFFFFFF00000000000000000000000000000000000000000000000000000000 DUP3 AND PUSH1 0x0 SWAP1 DUP2 MSTORE PUSH1 0xA PUSH1 0x20 MSTORE PUSH1 0x40 SWAP1 DUP2 SWAP1 KECCAK256 DUP1 SLOAD PUSH32 0xFFFFFFFFFFFFFFFFFFFFFFFF0000000000000000000000000000000000000000 AND PUSH20 0xFFFFFFFFFFFFFFFFFFFFFFFFFFFFFFFFFFFFFFFF DUP7 AND OR SWAP1 SSTORE MLOAD PUSH32 0xD2C6B762299C609BDB96520B58A49BFB80186934D4F71A86A367571A15C03194 SWAP1 PUSH2 0x1F22 SWAP1 DUP5 SWAP1 DUP8 SWAP1 PUSH2 0x54B5 JUMP JUMPDEST PUSH1 0x40 MLOAD DUP1 SWAP2 SUB SWAP1 LOG1 POP POP POP POP JUMP JUMPDEST PUSH2 0x1F38 PUSH2 0x42F0 JUMP JUMPDEST PUSH2 0x1F41 DUP3 PUSH2 0x3639 JUMP JUMPDEST PUSH1 0x20 DUP1 DUP4 ADD DUP3 SWAP1 MSTORE PUSH1 0x0 SWAP2 DUP3 MSTORE PUSH1 0x3 SWAP1 MSTORE PUSH1 0x40 SWAP1 DUP2 SWAP1 KECCAK256 SLOAD SWAP1 DUP3 ADD MSTORE PUSH1 0x80 DUP3 ADD MLOAD ISZERO ISZERO PUSH2 0x1F75 JUMPI PUSH1 0x1 JUMPDEST PUSH1 0xFF AND DUP2 MSTORE PUSH2 0xF07 JUMP JUMPDEST PUSH1 0xA0 DUP3 ADD MLOAD ISZERO ISZERO PUSH2 0x1F87 JUMPI PUSH1 0x2 PUSH2 0x1F6B JUMP JUMPDEST PUSH1 0xA0 DUP3 ADD MLOAD PUSH1 0x40 DUP3 ADD MLOAD LT PUSH2 0x1F9D JUMPI PUSH1 0x5 PUSH2 0x1F6B JUMP JUMPDEST PUSH2 0x100 DUP3 ADD MLOAD TIMESTAMP LT PUSH2 0x1FB0 JUMPI PUSH1 0x4 PUSH2 0x1F6B JUMP JUMPDEST PUSH1 0x20 DUP1 DUP3 ADD MLOAD PUSH1 0x0 SWAP1 DUP2 MSTORE PUSH1 0x4 SWAP1 SWAP2 MSTORE PUSH1 0x40 SWAP1 KECCAK256 SLOAD PUSH1 0xFF AND ISZERO PUSH2 0x1FD4 JUMPI PUSH1 0x6 PUSH2 0x1F6B JUMP JUMPDEST PUSH2 0x120 DUP3 ADD MLOAD DUP3 MLOAD PUSH20 0xFFFFFFFFFFFFFFFFFFFFFFFFFFFFFFFFFFFFFFFF SWAP1 DUP2 AND PUSH1 0x0 SWAP1 DUP2 MSTORE PUSH1 0x5 PUSH1 0x20 SWAP1 DUP2 MSTORE PUSH1 0x40 DUP1 DUP4 KECCAK256 PUSH1 0x60 DUP9 ADD MLOAD SWAP1 SWAP5 AND DUP4 MSTORE SWAP3 SWAP1 MSTORE KECCAK256 SLOAD GT ISZERO PUSH2 0x2021 JUMPI PUSH1 0x6 PUSH2 0x1F6B JUMP JUMPDEST PUSH1 0x3 DUP2 MSTORE SWAP2 SWAP1 POP JUMP JUMPDEST PUSH1 0x0 SLOAD PUSH1 0xFF AND ISZERO PUSH2 0x2067 JUMPI PUSH1 0x40 MLOAD PUSH32 0x8C379A000000000000000000000000000000000000000000000000000000000 DUP2 MSTORE PUSH1 0x4 ADD PUSH2 0x6C6 SWAP1 PUSH2 0x567F JUMP JUMPDEST PUSH1 0x0 DUP1 SLOAD PUSH32 0xFFFFFFFFFFFFFFFFFFFFFFFFFFFFFFFFFFFFFFFFFFFFFFFFFFFFFFFFFFFFFF00 AND PUSH1 0x1 OR SWAP1 SSTORE PUSH2 0x209B DUP2 PUSH2 0x2E64 JUMP JUMPDEST POP PUSH1 0x0 DUP1 SLOAD PUSH32 0xFFFFFFFFFFFFFFFFFFFFFFFFFFFFFFFFFFFFFFFFFFFFFFFFFFFFFFFFFFFFFF00 AND SWAP1 SSTORE JUMP JUMPDEST PUSH1 0x5 PUSH1 0x20 SWAP1 DUP2 MSTORE PUSH1 0x0 SWAP3 DUP4 MSTORE PUSH1 0x40 DUP1 DUP5 KECCAK256 SWAP1 SWAP2 MSTORE SWAP1 DUP3 MSTORE SWAP1 KECCAK256 SLOAD DUP2 JUMP JUMPDEST PUSH1 0x60 PUSH1 0x40 MLOAD SWAP1 DUP2 ADD PUSH1 0x40 MSTORE DUP1 PUSH1 0x24 DUP2 MSTORE PUSH1 0x20 ADD PUSH32 0xF47261B0000000000000000000000000E41D2489571D322189246DAFA5EBDE1F DUP2 MSTORE PUSH1 0x20 ADD PUSH32 0x4699F49800000000000000000000000000000000000000000000000000000000 DUP2 MSTORE POP DUP2 JUMP JUMPDEST PUSH2 0x214B PUSH2 0x4298 JUMP JUMPDEST PUSH1 0x60 PUSH1 0x0 DUP1 PUSH1 0x0 PUSH2 0x215A PUSH2 0x4298 JUMP JUMPDEST DUP9 PUSH1 0x0 DUP2 MLOAD DUP2 LT ISZERO ISZERO PUSH2 0x2169 JUMPI INVALID JUMPDEST SWAP1 PUSH1 0x20 ADD SWAP1 PUSH1 0x20 MUL ADD MLOAD PUSH2 0x160 ADD MLOAD SWAP5 POP DUP9 MLOAD SWAP4 POP PUSH1 0x0 SWAP3 POP JUMPDEST DUP3 DUP5 EQ PUSH2 0x220C JUMPI DUP5 DUP10 DUP5 DUP2 MLOAD DUP2 LT ISZERO ISZERO PUSH2 0x2199 JUMPI INVALID JUMPDEST SWAP1 PUSH1 0x20 ADD SWAP1 PUSH1 0x20 MUL ADD MLOAD PUSH2 0x160 ADD DUP2 SWAP1 MSTORE POP PUSH2 0x21B9 DUP9 DUP8 PUSH1 0x20 ADD MLOAD PUSH2 0x2EE2 JUMP JUMPDEST SWAP2 POP PUSH2 0x21E5 DUP10 DUP5 DUP2 MLOAD DUP2 LT ISZERO ISZERO PUSH2 0x21CC JUMPI INVALID JUMPDEST SWAP1 PUSH1 0x20 ADD SWAP1 PUSH1 0x20 MUL ADD MLOAD DUP4 DUP10 DUP7 DUP2 MLOAD DUP2 LT ISZERO ISZERO PUSH2 0xE8E JUMPI INVALID JUMPDEST SWAP1 POP PUSH2 0x21F1 DUP7 DUP3 PUSH2 0x2532 JUMP JUMPDEST PUSH1 0x20 DUP7 ADD MLOAD DUP9 GT PUSH2 0x2201 JUMPI PUSH2 0x220C JUMP JUMPDEST PUSH1 0x1 SWAP1 SWAP3 ADD SWAP2 PUSH2 0x2183 JUMP JUMPDEST POP POP POP POP POP SWAP4 SWAP3 POP POP POP JUMP JUMPDEST PUSH1 0x1 SLOAD DUP2 JUMP JUMPDEST PUSH2 0x2226 PUSH2 0x4298 JUMP JUMPDEST PUSH1 0x60 PUSH1 0x0 DUP1 PUSH1 0x0 DUP1 PUSH2 0x2236 PUSH2 0x4298 JUMP JUMPDEST PUSH1 0x0 SLOAD PUSH1 0xFF AND ISZERO PUSH2 0x2273 JUMPI PUSH1 0x40 MLOAD PUSH32 0x8C379A000000000000000000000000000000000000000000000000000000000 DUP2 MSTORE PUSH1 0x4 ADD PUSH2 0x6C6 SWAP1 PUSH2 0x567F JUMP JUMPDEST PUSH1 0x0 DUP1 SLOAD PUSH32 0xFFFFFFFFFFFFFFFFFFFFFFFFFFFFFFFFFFFFFFFFFFFFFFFFFFFFFFFFFFFFFF00 AND PUSH1 0x1 OR DUP2 SSTORE DUP11 MLOAD DUP12 SWAP2 SWAP1 DUP2 LT PUSH2 0x22AB JUMPI INVALID JUMPDEST SWAP1 PUSH1 0x20 ADD SWAP1 PUSH1 0x20 MUL ADD MLOAD PUSH2 0x140 ADD MLOAD SWAP6 POP DUP10 MLOAD SWAP5 POP PUSH1 0x0 SWAP4 POP JUMPDEST DUP4 DUP6 EQ PUSH2 0x235A JUMPI DUP6 DUP11 DUP6 DUP2 MLOAD DUP2 LT ISZERO ISZERO PUSH2 0x22DB JUMPI INVALID JUMPDEST PUSH1 0x20 SWAP1 DUP2 MUL SWAP1 SWAP2 ADD ADD MLOAD PUSH2 0x140 ADD MSTORE DUP7 MLOAD PUSH2 0x22F7 SWAP1 DUP11 SWAP1 PUSH2 0x2EE2 JUMP JUMPDEST SWAP3 POP PUSH2 0x230A DUP11 DUP6 DUP2 MLOAD DUP2 LT ISZERO ISZERO PUSH2 0x1964 JUMPI INVALID JUMPDEST SWAP2 POP PUSH2 0x2336 DUP11 DUP6 DUP2 MLOAD DUP2 LT ISZERO ISZERO PUSH2 0x231D JUMPI INVALID JUMPDEST SWAP1 PUSH1 0x20 ADD SWAP1 PUSH1 0x20 MUL ADD MLOAD DUP4 DUP11 DUP8 DUP2 MLOAD DUP2 LT ISZERO ISZERO PUSH2 0x749 JUMPI INVALID JUMPDEST SWAP1 POP PUSH2 0x2342 DUP8 DUP3 PUSH2 0x2532 JUMP JUMPDEST DUP7 MLOAD DUP10 GT PUSH2 0x234F JUMPI PUSH2 0x235A JUMP JUMPDEST PUSH1 0x1 SWAP1 SWAP4 ADD SWAP3 PUSH2 0x22C5 JUMP JUMPDEST POP POP PUSH1 0x0 DUP1 SLOAD PUSH32 0xFFFFFFFFFFFFFFFFFFFFFFFFFFFFFFFFFFFFFFFFFFFFFFFFFFFFFFFFFFFFFF00 AND SWAP1 SSTORE POP SWAP3 SWAP7 SWAP6 POP POP POP POP POP POP JUMP JUMPDEST PUSH1 0x9 SLOAD PUSH20 0xFFFFFFFFFFFFFFFFFFFFFFFFFFFFFFFFFFFFFFFF AND DUP2 JUMP JUMPDEST PUSH1 0x2 SLOAD PUSH20 0xFFFFFFFFFFFFFFFFFFFFFFFFFFFFFFFFFFFFFFFF AND CALLER EQ PUSH2 0x23FD JUMPI PUSH1 0x40 MLOAD PUSH32 0x8C379A000000000000000000000000000000000000000000000000000000000 DUP2 MSTORE PUSH1 0x4 ADD PUSH2 0x6C6 SWAP1 PUSH2 0x568F JUMP JUMPDEST PUSH20 0xFFFFFFFFFFFFFFFFFFFFFFFFFFFFFFFFFFFFFFFF DUP2 AND ISZERO PUSH2 0x245A JUMPI PUSH1 0x2 DUP1 SLOAD PUSH32 0xFFFFFFFFFFFFFFFFFFFFFFFF0000000000000000000000000000000000000000 AND PUSH20 0xFFFFFFFFFFFFFFFFFFFFFFFFFFFFFFFFFFFFFFFF DUP4 AND OR SWAP1 SSTORE JUMPDEST POP JUMP JUMPDEST PUSH1 0x40 DUP1 MLOAD DUP1 DUP3 ADD SWAP1 SWAP2 MSTORE PUSH1 0x5 DUP2 MSTORE PUSH32 0x322E302E30000000000000000000000000000000000000000000000000000000 PUSH1 0x20 DUP3 ADD MSTORE DUP2 JUMP JUMPDEST PUSH2 0x249C PUSH2 0x4298 JUMP JUMPDEST PUSH2 0x24A4 PUSH2 0x42F0 JUMP JUMPDEST PUSH1 0x0 DUP1 PUSH1 0x0 PUSH2 0x24B2 DUP9 PUSH2 0x1F30 JUMP JUMPDEST SWAP4 POP PUSH2 0x24BC PUSH2 0x2594 JUMP JUMPDEST SWAP3 POP PUSH2 0x24CA DUP9 DUP6 DUP6 DUP10 PUSH2 0x25C6 JUMP JUMPDEST PUSH2 0x24DC DUP9 PUSH1 0xA0 ADD MLOAD DUP6 PUSH1 0x40 ADD MLOAD PUSH2 0x2EE2 JUMP JUMPDEST SWAP2 POP PUSH2 0x24E8 DUP8 DUP4 PUSH2 0x3647 JUMP JUMPDEST SWAP1 POP PUSH2 0x24FB DUP9 DUP6 DUP10 DUP5 DUP10 PUSH1 0x0 ADD MLOAD PUSH2 0x2945 JUMP JUMPDEST PUSH2 0x2505 DUP9 DUP3 PUSH2 0x365D JUMP JUMPDEST SWAP5 POP PUSH2 0x251C DUP9 DUP5 DUP7 PUSH1 0x20 ADD MLOAD DUP8 PUSH1 0x40 ADD MLOAD DUP10 PUSH2 0x2A5E JUMP JUMPDEST PUSH2 0x2527 DUP9 DUP5 DUP8 PUSH2 0x36BE JUMP JUMPDEST POP POP POP POP SWAP4 SWAP3 POP POP POP JUMP JUMPDEST DUP2 MLOAD DUP2 MLOAD PUSH2 0x2540 SWAP2 SWAP1 PUSH2 0x3776 JUMP JUMPDEST DUP3 MSTORE PUSH1 0x20 DUP1 DUP4 ADD MLOAD SWAP1 DUP3 ADD MLOAD PUSH2 0x2556 SWAP2 SWAP1 PUSH2 0x3776 JUMP JUMPDEST PUSH1 0x20 DUP4 ADD MSTORE PUSH1 0x40 DUP1 DUP4 ADD MLOAD SWAP1 DUP3 ADD MLOAD PUSH2 0x256F SWAP2 SWAP1 PUSH2 0x3776 JUMP JUMPDEST PUSH1 0x40 DUP4 ADD MSTORE PUSH1 0x60 DUP1 DUP4 ADD MLOAD SWAP1 DUP3 ADD MLOAD PUSH2 0x2588 SWAP2 SWAP1 PUSH2 0x3776 JUMP JUMPDEST PUSH1 0x60 SWAP1 SWAP3 ADD SWAP2 SWAP1 SWAP2 MSTORE POP JUMP JUMPDEST PUSH1 0x9 SLOAD PUSH1 0x0 SWAP1 PUSH20 0xFFFFFFFFFFFFFFFFFFFFFFFFFFFFFFFFFFFFFFFF AND DUP2 DUP2 ISZERO PUSH2 0x25BD JUMPI DUP2 PUSH2 0x25BF JUMP JUMPDEST CALLER JUMPDEST SWAP4 SWAP3 POP POP POP JUMP JUMPDEST DUP3 MLOAD PUSH1 0xFF AND PUSH1 0x3 EQ PUSH2 0x2604 JUMPI PUSH1 0x40 MLOAD PUSH32 0x8C379A000000000000000000000000000000000000000000000000000000000 DUP2 MSTORE PUSH1 0x4 ADD PUSH2 0x6C6 SWAP1 PUSH2 0x56AF JUMP JUMPDEST PUSH1 0x60 DUP5 ADD MLOAD PUSH20 0xFFFFFFFFFFFFFFFFFFFFFFFFFFFFFFFFFFFFFFFF AND ISZERO PUSH2 0x2677 JUMPI PUSH1 0x60 DUP5 ADD MLOAD PUSH20 0xFFFFFFFFFFFFFFFFFFFFFFFFFFFFFFFFFFFFFFFF AND CALLER EQ PUSH2 0x2677 JUMPI PUSH1 0x40 MLOAD PUSH32 0x8C379A000000000000000000000000000000000000000000000000000000000 DUP2 MSTORE PUSH1 0x4 ADD PUSH2 0x6C6 SWAP1 PUSH2 0x56BF JUMP JUMPDEST PUSH1 0x20 DUP5 ADD MLOAD PUSH20 0xFFFFFFFFFFFFFFFFFFFFFFFFFFFFFFFFFFFFFFFF AND ISZERO PUSH2 0x2702 JUMPI DUP2 PUSH20 0xFFFFFFFFFFFFFFFFFFFFFFFFFFFFFFFFFFFFFFFF AND DUP5 PUSH1 0x20 ADD MLOAD PUSH20 0xFFFFFFFFFFFFFFFFFFFFFFFFFFFFFFFFFFFFFFFF AND EQ ISZERO ISZERO PUSH2 0x2702 JUMPI PUSH1 0x40 MLOAD PUSH32 0x8C379A000000000000000000000000000000000000000000000000000000000 DUP2 MSTORE PUSH1 0x4 ADD PUSH2 0x6C6 SWAP1 PUSH2 0x54FF JUMP JUMPDEST PUSH1 0x40 DUP4 ADD MLOAD ISZERO ISZERO PUSH2 0x2758 JUMPI PUSH2 0x2720 DUP4 PUSH1 0x20 ADD MLOAD DUP6 PUSH1 0x0 ADD MLOAD DUP4 PUSH2 0x135B JUMP JUMPDEST ISZERO ISZERO PUSH2 0x2758 JUMPI PUSH1 0x40 MLOAD PUSH32 0x8C379A000000000000000000000000000000000000000000000000000000000 DUP2 MSTORE PUSH1 0x4 ADD PUSH2 0x6C6 SWAP1 PUSH2 0x556F JUMP JUMPDEST POP POP POP POP JUMP JUMPDEST PUSH2 0x2770 DUP3 PUSH1 0xA0 ADD MLOAD DUP3 PUSH1 0xA0 ADD MLOAD PUSH2 0x37C0 JUMP JUMPDEST PUSH2 0x2782 DUP4 PUSH1 0x80 ADD MLOAD DUP4 PUSH1 0x80 ADD MLOAD PUSH2 0x37C0 JUMP JUMPDEST LT ISZERO PUSH2 0x27BA JUMPI PUSH1 0x40 MLOAD PUSH32 0x8C379A000000000000000000000000000000000000000000000000000000000 DUP2 MSTORE PUSH1 0x4 ADD PUSH2 0x6C6 SWAP1 PUSH2 0x56CF JUMP JUMPDEST POP POP JUMP JUMPDEST PUSH2 0x27C6 PUSH2 0x42C1 JUMP JUMPDEST PUSH1 0x0 DUP1 PUSH1 0x0 DUP1 PUSH2 0x27DA DUP10 PUSH1 0xA0 ADD MLOAD DUP9 PUSH2 0x2EE2 JUMP JUMPDEST SWAP4 POP PUSH2 0x27EF DUP10 PUSH1 0x80 ADD MLOAD DUP11 PUSH1 0xA0 ADD MLOAD DUP7 PUSH2 0x381B JUMP JUMPDEST SWAP3 POP PUSH2 0x27FF DUP9 PUSH1 0xA0 ADD MLOAD DUP8 PUSH2 0x2EE2 JUMP JUMPDEST SWAP2 POP PUSH2 0x2814 DUP9 PUSH1 0x80 ADD MLOAD DUP10 PUSH1 0xA0 ADD MLOAD DUP5 PUSH2 0x381B JUMP JUMPDEST SWAP1 POP DUP1 DUP5 LT PUSH2 0x2857 JUMPI PUSH1 0x20 DUP1 DUP7 ADD DUP1 MLOAD DUP4 SWAP1 MSTORE DUP1 MLOAD DUP3 ADD DUP5 SWAP1 MSTORE MLOAD MLOAD DUP7 MLOAD DUP3 ADD MSTORE PUSH1 0x80 DUP11 ADD MLOAD PUSH1 0xA0 DUP12 ADD MLOAD DUP8 MLOAD SWAP1 SWAP3 ADD MLOAD PUSH2 0x284F SWAP3 SWAP1 PUSH2 0x381B JUMP JUMPDEST DUP6 MLOAD MSTORE PUSH2 0x2894 JUMP JUMPDEST DUP5 MLOAD DUP4 SWAP1 MSTORE DUP5 MLOAD PUSH1 0x20 SWAP1 DUP2 ADD DUP6 SWAP1 MSTORE DUP6 MLOAD DUP2 ADD MLOAD SWAP1 DUP7 ADD DUP1 MLOAD SWAP2 SWAP1 SWAP2 MSTORE PUSH1 0xA0 DUP10 ADD MLOAD PUSH1 0x80 DUP11 ADD MLOAD SWAP2 MLOAD MLOAD PUSH2 0x288B SWAP3 SWAP1 PUSH2 0x3898 JUMP JUMPDEST PUSH1 0x20 DUP1 DUP8 ADD MLOAD ADD MSTORE JUMPDEST DUP5 MLOAD MLOAD PUSH1 0x20 DUP1 DUP8 ADD MLOAD ADD MLOAD PUSH2 0x28A9 SWAP2 SWAP1 PUSH2 0x2EE2 JUMP JUMPDEST PUSH1 0x40 DUP7 ADD MSTORE DUP5 MLOAD MLOAD PUSH1 0x80 DUP11 ADD MLOAD PUSH1 0xC0 DUP12 ADD MLOAD PUSH2 0x28C6 SWAP3 SWAP2 SWAP1 PUSH2 0x381B JUMP JUMPDEST DUP6 MLOAD PUSH1 0x40 ADD MSTORE DUP5 MLOAD PUSH1 0x20 ADD MLOAD PUSH1 0xA0 DUP11 ADD MLOAD PUSH1 0xE0 DUP12 ADD MLOAD PUSH2 0x28E7 SWAP3 SWAP2 SWAP1 PUSH2 0x381B JUMP JUMPDEST DUP6 MLOAD PUSH1 0x60 ADD MSTORE PUSH1 0x20 DUP6 ADD MLOAD MLOAD PUSH1 0x80 DUP10 ADD MLOAD PUSH1 0xC0 DUP11 ADD MLOAD PUSH2 0x2908 SWAP3 SWAP2 SWAP1 PUSH2 0x381B JUMP JUMPDEST DUP6 PUSH1 0x20 ADD MLOAD PUSH1 0x40 ADD DUP2 DUP2 MSTORE POP POP PUSH2 0x2930 DUP6 PUSH1 0x20 ADD MLOAD PUSH1 0x20 ADD MLOAD DUP10 PUSH1 0xA0 ADD MLOAD DUP11 PUSH1 0xE0 ADD MLOAD PUSH2 0x381B JUMP JUMPDEST PUSH1 0x20 DUP7 ADD MLOAD PUSH1 0x60 ADD MSTORE POP POP POP POP SWAP5 SWAP4 POP POP POP POP JUMP JUMPDEST DUP3 ISZERO ISZERO PUSH2 0x297E JUMPI PUSH1 0x40 MLOAD PUSH32 0x8C379A000000000000000000000000000000000000000000000000000000000 DUP2 MSTORE PUSH1 0x4 ADD PUSH2 0x6C6 SWAP1 PUSH2 0x55EF JUMP JUMPDEST DUP3 DUP3 GT ISZERO PUSH2 0x29B8 JUMPI PUSH1 0x40 MLOAD PUSH32 0x8C379A000000000000000000000000000000000000000000000000000000000 DUP2 MSTORE PUSH1 0x4 ADD PUSH2 0x6C6 SWAP1 PUSH2 0x55DF JUMP JUMPDEST DUP5 PUSH1 0xA0 ADD MLOAD PUSH2 0x29CB DUP6 PUSH1 0x40 ADD MLOAD DUP5 PUSH2 0x3776 JUMP JUMPDEST GT ISZERO PUSH2 0x2A03 JUMPI PUSH1 0x40 MLOAD PUSH32 0x8C379A000000000000000000000000000000000000000000000000000000000 DUP2 MSTORE PUSH1 0x4 ADD PUSH2 0x6C6 SWAP1 PUSH2 0x550F JUMP JUMPDEST PUSH2 0x2A11 DUP6 PUSH1 0x80 ADD MLOAD DUP4 PUSH2 0x37C0 JUMP JUMPDEST PUSH2 0x2A1F DUP3 DUP8 PUSH1 0xA0 ADD MLOAD PUSH2 0x37C0 JUMP JUMPDEST GT ISZERO PUSH2 0x2A57 JUMPI PUSH1 0x40 MLOAD PUSH32 0x8C379A000000000000000000000000000000000000000000000000000000000 DUP2 MSTORE PUSH1 0x4 ADD PUSH2 0x6C6 SWAP1 PUSH2 0x566F JUMP JUMPDEST POP POP POP POP POP JUMP JUMPDEST PUSH2 0x2A6C DUP3 DUP3 PUSH1 0x20 ADD MLOAD PUSH2 0x3776 JUMP JUMPDEST PUSH1 0x0 DUP5 DUP2 MSTORE PUSH1 0x3 PUSH1 0x20 SWAP1 DUP2 MSTORE PUSH1 0x40 SWAP2 DUP3 SWAP1 KECCAK256 SWAP3 SWAP1 SWAP3 SSTORE DUP7 DUP2 ADD MLOAD DUP8 MLOAD DUP5 MLOAD SWAP4 DUP6 ADD MLOAD DUP6 DUP5 ADD MLOAD PUSH1 0x60 DUP8 ADD MLOAD PUSH2 0x140 DUP13 ADD MLOAD PUSH2 0x160 DUP14 ADD MLOAD SWAP7 MLOAD DUP12 SWAP9 PUSH20 0xFFFFFFFFFFFFFFFFFFFFFFFFFFFFFFFFFFFFFFFF SWAP8 DUP9 AND SWAP9 SWAP8 SWAP1 SWAP7 AND SWAP7 PUSH32 0xBCC4C97732E47D9946F229EDB95F5B6323F601300E4690DE719993F3C371129 SWAP7 PUSH2 0x2AFB SWAP7 DUP16 SWAP7 CALLER SWAP7 SWAP3 SWAP6 SWAP2 SWAP5 SWAP1 SWAP4 SWAP1 PUSH2 0x5345 JUMP JUMPDEST PUSH1 0x40 MLOAD DUP1 SWAP2 SUB SWAP1 LOG4 POP POP POP POP POP JUMP JUMPDEST PUSH1 0x60 DUP1 PUSH1 0x40 MLOAD SWAP1 DUP2 ADD PUSH1 0x40 MSTORE DUP1 PUSH1 0x24 DUP2 MSTORE PUSH1 0x20 ADD PUSH32 0xF47261B0000000000000000000000000E41D2489571D322189246DAFA5EBDE1F DUP2 MSTORE PUSH1 0x20 ADD PUSH32 0x4699F49800000000000000000000000000000000000000000000000000000000 DUP2 MSTORE POP SWAP1 POP PUSH2 0x2B8B DUP6 PUSH2 0x140 ADD MLOAD DUP7 PUSH1 0x0 ADD MLOAD DUP7 PUSH1 0x0 ADD MLOAD DUP6 PUSH1 0x20 ADD MLOAD PUSH1 0x20 ADD MLOAD PUSH2 0x3935 JUMP JUMPDEST PUSH2 0x140 DUP5 ADD MLOAD DUP5 MLOAD DUP7 MLOAD DUP5 MLOAD PUSH1 0x20 ADD MLOAD PUSH2 0x2BA7 SWAP4 SWAP3 SWAP2 SWAP1 PUSH2 0x3935 JUMP JUMPDEST PUSH2 0x2BC0 DUP6 PUSH2 0x140 ADD MLOAD DUP7 PUSH1 0x0 ADD MLOAD DUP6 DUP6 PUSH1 0x40 ADD MLOAD PUSH2 0x3935 JUMP JUMPDEST PUSH2 0x2BDC DUP2 DUP7 PUSH1 0x0 ADD MLOAD DUP8 PUSH1 0x40 ADD MLOAD DUP6 PUSH1 0x0 ADD MLOAD PUSH1 0x40 ADD MLOAD PUSH2 0x3935 JUMP JUMPDEST PUSH2 0x2BF8 DUP2 DUP6 PUSH1 0x0 ADD MLOAD DUP7 PUSH1 0x40 ADD MLOAD DUP6 PUSH1 0x20 ADD MLOAD PUSH1 0x40 ADD MLOAD PUSH2 0x3935 JUMP JUMPDEST DUP4 PUSH1 0x40 ADD MLOAD PUSH20 0xFFFFFFFFFFFFFFFFFFFFFFFFFFFFFFFFFFFFFFFF AND DUP6 PUSH1 0x40 ADD MLOAD PUSH20 0xFFFFFFFFFFFFFFFFFFFFFFFFFFFFFFFFFFFFFFFF AND EQ ISZERO PUSH2 0x2C62 JUMPI PUSH2 0x2C5D DUP2 DUP5 DUP8 PUSH1 0x40 ADD MLOAD PUSH2 0x2C58 DUP7 PUSH1 0x0 ADD MLOAD PUSH1 0x60 ADD MLOAD DUP8 PUSH1 0x20 ADD MLOAD PUSH1 0x60 ADD MLOAD PUSH2 0x3776 JUMP JUMPDEST PUSH2 0x3935 JUMP JUMPDEST PUSH2 0x2A57 JUMP JUMPDEST PUSH2 0x2C7A DUP2 DUP5 DUP8 PUSH1 0x40 ADD MLOAD DUP6 PUSH1 0x0 ADD MLOAD PUSH1 0x60 ADD MLOAD PUSH2 0x3935 JUMP JUMPDEST PUSH2 0x2A57 DUP2 DUP5 DUP7 PUSH1 0x40 ADD MLOAD DUP6 PUSH1 0x20 ADD MLOAD PUSH1 0x60 ADD MLOAD PUSH2 0x3935 JUMP JUMPDEST PUSH1 0x40 DUP1 MLOAD PUSH32 0xB4BE83D500000000000000000000000000000000000000000000000000000000 PUSH1 0x20 DUP1 DUP4 ADD SWAP2 SWAP1 SWAP2 MSTORE PUSH1 0x60 PUSH1 0x24 DUP4 ADD DUP2 DUP2 MSTORE DUP8 MLOAD PUSH1 0x84 DUP6 ADD SWAP1 DUP2 MSTORE DUP9 DUP5 ADD MLOAD PUSH1 0xA4 DUP7 ADD MSTORE SWAP5 DUP9 ADD MLOAD PUSH1 0xC4 DUP6 ADD MSTORE SWAP1 DUP8 ADD MLOAD PUSH1 0xE4 DUP5 ADD MSTORE PUSH1 0x80 DUP8 ADD MLOAD PUSH2 0x104 DUP5 ADD MSTORE PUSH1 0xA0 DUP8 ADD MLOAD PUSH2 0x124 DUP5 ADD MSTORE PUSH1 0xC0 DUP8 ADD MLOAD PUSH2 0x144 DUP5 ADD MSTORE PUSH1 0xE0 DUP8 ADD MLOAD PUSH2 0x164 DUP5 ADD MSTORE PUSH2 0x100 DUP8 ADD MLOAD PUSH2 0x184 DUP5 ADD MSTORE PUSH2 0x120 DUP8 ADD MLOAD PUSH2 0x1A4 DUP5 ADD MSTORE PUSH2 0x140 DUP8 ADD DUP1 MLOAD PUSH2 0x1C4 DUP6 ADD SWAP1 DUP2 MSTORE PUSH2 0x160 DUP10 ADD MLOAD PUSH2 0x1E4 DUP7 ADD MSTORE PUSH2 0x180 SWAP1 MSTORE MLOAD DUP1 MLOAD PUSH2 0x204 DUP6 ADD DUP2 SWAP1 MSTORE SWAP4 SWAP5 SWAP2 SWAP4 DUP5 SWAP4 PUSH1 0x44 DUP8 ADD SWAP3 DUP5 SWAP3 PUSH2 0x224 DUP10 ADD SWAP3 SWAP2 DUP3 ADD SWAP2 PUSH1 0x1F DUP3 ADD DIV PUSH1 0x0 JUMPDEST DUP2 DUP2 LT ISZERO PUSH2 0x2D99 JUMPI DUP4 MLOAD DUP6 MSTORE PUSH1 0x20 SWAP5 DUP6 ADD SWAP5 SWAP1 SWAP4 ADD SWAP3 PUSH1 0x1 ADD PUSH2 0x2D7B JUMP JUMPDEST POP POP POP POP DUP2 DUP2 SUB PUSH2 0x160 DUP1 DUP5 ADD SWAP2 SWAP1 SWAP2 MSTORE DUP11 ADD MLOAD DUP1 MLOAD DUP1 DUP4 MSTORE PUSH1 0x20 SWAP3 DUP4 ADD SWAP3 SWAP2 DUP3 ADD SWAP2 PUSH1 0x1F DUP3 ADD DIV PUSH1 0x0 JUMPDEST DUP2 DUP2 LT ISZERO PUSH2 0x2DE2 JUMPI DUP4 MLOAD DUP6 MSTORE PUSH1 0x20 SWAP5 DUP6 ADD SWAP5 SWAP1 SWAP4 ADD SWAP3 PUSH1 0x1 ADD PUSH2 0x2DC4 JUMP JUMPDEST POP POP POP DUP10 DUP5 MSTORE POP DUP5 DUP2 SUB PUSH1 0x20 SWAP4 DUP5 ADD SWAP1 DUP2 MSTORE DUP9 MLOAD DUP1 DUP4 MSTORE SWAP1 SWAP4 SWAP2 DUP3 ADD SWAP2 DUP10 DUP2 ADD SWAP2 SWAP1 PUSH1 0x1F DUP3 ADD DIV PUSH1 0x0 JUMPDEST DUP2 DUP2 LT ISZERO PUSH2 0x2E2A JUMPI DUP4 MLOAD DUP6 MSTORE PUSH1 0x20 SWAP5 DUP6 ADD SWAP5 SWAP1 SWAP4 ADD SWAP3 PUSH1 0x1 ADD PUSH2 0x2E0C JUMP JUMPDEST POP POP POP PUSH32 0xFFFFFFFFFFFFFFFFFFFFFFFFFFFFFFFFFFFFFFFFFFFFFFFFFFFFFFFFFFFFFFE0 DUP9 DUP4 SUB ADD DUP9 MSTORE POP PUSH1 0x40 MSTORE POP POP POP POP POP SWAP4 SWAP3 POP POP POP JUMP JUMPDEST PUSH2 0x2E6C PUSH2 0x42F0 JUMP JUMPDEST PUSH2 0x2E75 DUP3 PUSH2 0x1F30 JUMP JUMPDEST SWAP1 POP PUSH2 0x2E81 DUP3 DUP3 PUSH2 0x3AFF JUMP JUMPDEST PUSH2 0x27BA DUP3 DUP3 PUSH1 0x20 ADD MLOAD PUSH2 0x3C16 JUMP JUMPDEST PUSH2 0x2E97 PUSH2 0x4298 JUMP JUMPDEST PUSH2 0x2EA2 DUP5 DUP5 DUP5 PUSH2 0x2494 JUMP JUMPDEST PUSH1 0x20 DUP2 ADD MLOAD SWAP1 SWAP2 POP DUP4 EQ PUSH2 0x25BF JUMPI PUSH1 0x40 MLOAD PUSH32 0x8C379A000000000000000000000000000000000000000000000000000000000 DUP2 MSTORE PUSH1 0x4 ADD PUSH2 0x6C6 SWAP1 PUSH2 0x565F JUMP JUMPDEST PUSH1 0x0 DUP3 DUP3 GT ISZERO PUSH2 0x2F1E JUMPI PUSH1 0x40 MLOAD PUSH32 0x8C379A000000000000000000000000000000000000000000000000000000000 DUP2 MSTORE PUSH1 0x4 ADD PUSH2 0x6C6 SWAP1 PUSH2 0x551F JUMP JUMPDEST POP DUP1 DUP3 SUB JUMPDEST SWAP3 SWAP2 POP POP JUMP JUMPDEST PUSH1 0x0 DUP1 DUP3 MLOAD GT ISZERO ISZERO PUSH2 0x2F67 JUMPI PUSH1 0x40 MLOAD PUSH32 0x8C379A000000000000000000000000000000000000000000000000000000000 DUP2 MSTORE PUSH1 0x4 ADD PUSH2 0x6C6 SWAP1 PUSH2 0x560F JUMP JUMPDEST DUP2 MLOAD DUP3 SWAP1 PUSH32 0xFFFFFFFFFFFFFFFFFFFFFFFFFFFFFFFFFFFFFFFFFFFFFFFFFFFFFFFFFFFFFFFF DUP2 ADD SWAP1 DUP2 LT PUSH2 0x2F97 JUMPI INVALID JUMPDEST ADD PUSH1 0x20 ADD MLOAD DUP3 MLOAD PUSH32 0xFFFFFFFFFFFFFFFFFFFFFFFFFFFFFFFFFFFFFFFFFFFFFFFFFFFFFFFFFFFFFFFF ADD SWAP1 SWAP3 MSTORE POP PUSH32 0x100000000000000000000000000000000000000000000000000000000000000 SWAP1 DUP2 SWAP1 DIV MUL SWAP1 JUMP JUMPDEST PUSH1 0x0 DUP2 PUSH1 0x20 ADD DUP4 MLOAD LT ISZERO ISZERO ISZERO PUSH2 0x302F JUMPI PUSH1 0x40 MLOAD PUSH32 0x8C379A000000000000000000000000000000000000000000000000000000000 DUP2 MSTORE PUSH1 0x4 ADD PUSH2 0x6C6 SWAP1 PUSH2 0x553F JUMP JUMPDEST POP ADD PUSH1 0x20 ADD MLOAD SWAP1 JUMP JUMPDEST PUSH1 0x40 MLOAD PUSH1 0x0 SWAP1 PUSH1 0x60 SWAP1 PUSH32 0x1626BA7E00000000000000000000000000000000000000000000000000000000 SWAP1 PUSH2 0x3073 SWAP1 DUP8 SWAP1 DUP7 SWAP1 PUSH1 0x24 ADD PUSH2 0x5460 JUMP JUMPDEST PUSH1 0x40 DUP1 MLOAD PUSH32 0xFFFFFFFFFFFFFFFFFFFFFFFFFFFFFFFFFFFFFFFFFFFFFFFFFFFFFFFFFFFFFFE0 DUP2 DUP5 SUB ADD DUP2 MSTORE SWAP2 SWAP1 MSTORE PUSH1 0x20 DUP1 DUP3 ADD DUP1 MLOAD PUSH28 0xFFFFFFFFFFFFFFFFFFFFFFFFFFFFFFFFFFFFFFFFFFFFFFFFFFFFFFFF AND PUSH32 0xFFFFFFFF00000000000000000000000000000000000000000000000000000000 SWAP1 SWAP5 AND SWAP4 SWAP1 SWAP4 OR DUP4 MSTORE DUP2 MLOAD SWAP2 SWAP4 POP SWAP1 DUP3 SWAP1 DUP2 DUP9 GAS STATICCALL DUP1 DUP1 ISZERO PUSH2 0x3110 JUMPI PUSH1 0x1 DUP2 EQ PUSH2 0x3181 JUMPI PUSH2 0x2527 JUMP JUMPDEST PUSH32 0x8C379A000000000000000000000000000000000000000000000000000000000 PUSH1 0x0 MSTORE PUSH29 0x2000000000000000000000000000000000000000000000000000000000 PUSH1 0x20 MSTORE PUSH29 0xC57414C4C45545F4552524F5200000000000000000000000000000000 PUSH1 0x40 MSTORE PUSH1 0x0 PUSH1 0x60 MSTORE PUSH1 0x64 PUSH1 0x0 REVERT JUMPDEST POP POP MLOAD SWAP6 SWAP5 POP POP POP POP POP JUMP JUMPDEST PUSH1 0x0 PUSH1 0x14 DUP3 MLOAD LT ISZERO ISZERO ISZERO PUSH2 0x31CD JUMPI PUSH1 0x40 MLOAD PUSH32 0x8C379A000000000000000000000000000000000000000000000000000000000 DUP2 MSTORE PUSH1 0x4 ADD PUSH2 0x6C6 SWAP1 PUSH2 0x569F JUMP JUMPDEST PUSH2 0x31DB DUP3 PUSH1 0x14 DUP5 MLOAD SUB PUSH2 0x3CBD JUMP JUMPDEST DUP3 MLOAD PUSH32 0xFFFFFFFFFFFFFFFFFFFFFFFFFFFFFFFFFFFFFFFFFFFFFFFFFFFFFFFFFFFFFFEC ADD SWAP1 SWAP3 MSTORE POP SWAP1 JUMP JUMPDEST PUSH1 0x40 MLOAD PUSH1 0x0 SWAP1 PUSH1 0x60 SWAP1 PUSH32 0x9363470200000000000000000000000000000000000000000000000000000000 SWAP1 PUSH2 0x3243 SWAP1 DUP8 SWAP1 DUP8 SWAP1 DUP8 SWAP1 PUSH1 0x24 ADD PUSH2 0x5433 JUMP JUMPDEST PUSH1 0x40 DUP1 MLOAD PUSH32 0xFFFFFFFFFFFFFFFFFFFFFFFFFFFFFFFFFFFFFFFFFFFFFFFFFFFFFFFFFFFFFFE0 DUP2 DUP5 SUB ADD DUP2 MSTORE SWAP2 SWAP1 MSTORE PUSH1 0x20 DUP1 DUP3 ADD DUP1 MLOAD PUSH28 0xFFFFFFFFFFFFFFFFFFFFFFFFFFFFFFFFFFFFFFFFFFFFFFFFFFFFFFFF AND PUSH32 0xFFFFFFFF00000000000000000000000000000000000000000000000000000000 SWAP1 SWAP5 AND SWAP4 SWAP1 SWAP4 OR DUP4 MSTORE DUP2 MLOAD SWAP2 SWAP4 POP SWAP1 DUP3 SWAP1 DUP2 DUP11 GAS STATICCALL DUP1 DUP1 ISZERO PUSH2 0x32E0 JUMPI PUSH1 0x1 DUP2 EQ PUSH2 0x3351 JUMPI PUSH2 0x3356 JUMP JUMPDEST PUSH32 0x8C379A000000000000000000000000000000000000000000000000000000000 PUSH1 0x0 MSTORE PUSH29 0x2000000000000000000000000000000000000000000000000000000000 PUSH1 0x20 MSTORE PUSH29 0xF56414C494441544F525F4552524F5200000000000000000000000000 PUSH1 0x40 MSTORE PUSH1 0x0 PUSH1 0x60 MSTORE PUSH1 0x64 PUSH1 0x0 REVERT JUMPDEST DUP3 MLOAD SWAP5 POP JUMPDEST POP POP POP POP SWAP5 SWAP4 POP POP POP POP JUMP JUMPDEST PUSH1 0x0 DUP1 DUP4 GT PUSH2 0x339D JUMPI PUSH1 0x40 MLOAD PUSH32 0x8C379A000000000000000000000000000000000000000000000000000000000 DUP2 MSTORE PUSH1 0x4 ADD PUSH2 0x6C6 SWAP1 PUSH2 0x555F JUMP JUMPDEST PUSH2 0x33B0 PUSH2 0x33AA DUP6 DUP5 PUSH2 0x37C0 JUMP JUMPDEST DUP5 PUSH2 0x3D1E JUMP JUMPDEST SWAP5 SWAP4 POP POP POP POP JUMP JUMPDEST PUSH1 0x40 DUP1 MLOAD PUSH32 0x5A65726F45785472616E73616374696F6E280000000000000000000000000000 PUSH1 0x20 DUP1 DUP4 ADD SWAP2 SWAP1 SWAP2 MSTORE PUSH32 0x75696E743235362073616C742C00000000000000000000000000000000000000 PUSH1 0x32 DUP4 ADD MSTORE PUSH32 0x61646472657373207369676E6572416464726573732C00000000000000000000 PUSH1 0x3F DUP4 ADD MSTORE PUSH32 0x6279746573206461746100000000000000000000000000000000000000000000 PUSH1 0x55 DUP4 ADD MSTORE PUSH32 0x2900000000000000000000000000000000000000000000000000000000000000 PUSH1 0x5F DUP4 ADD MSTORE DUP3 MLOAD DUP1 DUP4 SUB DUP5 ADD DUP2 MSTORE PUSH1 0x60 SWAP1 SWAP3 ADD SWAP3 DUP4 SWAP1 MSTORE DUP2 MLOAD PUSH1 0x0 SWAP4 DUP5 SWAP4 DUP5 SWAP4 SWAP1 SWAP3 DUP3 SWAP2 DUP5 ADD SWAP1 DUP1 DUP4 DUP4 JUMPDEST PUSH1 0x20 DUP4 LT PUSH2 0x34E1 JUMPI DUP1 MLOAD DUP3 MSTORE PUSH32 0xFFFFFFFFFFFFFFFFFFFFFFFFFFFFFFFFFFFFFFFFFFFFFFFFFFFFFFFFFFFFFFE0 SWAP1 SWAP3 ADD SWAP2 PUSH1 0x20 SWAP2 DUP3 ADD SWAP2 ADD PUSH2 0x34A4 JUMP JUMPDEST MLOAD DUP2 MLOAD PUSH1 0x20 SWAP4 DUP5 SUB PUSH2 0x100 EXP PUSH32 0xFFFFFFFFFFFFFFFFFFFFFFFFFFFFFFFFFFFFFFFFFFFFFFFFFFFFFFFFFFFFFFFF ADD DUP1 NOT SWAP1 SWAP3 AND SWAP2 AND OR SWAP1 MSTORE PUSH1 0x40 MLOAD SWAP2 SWAP1 SWAP4 ADD DUP2 SWAP1 SUB DUP2 KECCAK256 DUP10 MLOAD SWAP1 SWAP8 POP DUP10 SWAP6 POP SWAP1 SWAP4 POP DUP4 SWAP3 DUP6 ADD SWAP2 POP DUP1 DUP4 DUP4 JUMPDEST PUSH1 0x20 DUP4 LT PUSH2 0x3577 JUMPI DUP1 MLOAD DUP3 MSTORE PUSH32 0xFFFFFFFFFFFFFFFFFFFFFFFFFFFFFFFFFFFFFFFFFFFFFFFFFFFFFFFFFFFFFFE0 SWAP1 SWAP3 ADD SWAP2 PUSH1 0x20 SWAP2 DUP3 ADD SWAP2 ADD PUSH2 0x353A JUMP JUMPDEST MLOAD DUP2 MLOAD PUSH1 0x20 SWAP4 DUP5 SUB PUSH2 0x100 EXP PUSH32 0xFFFFFFFFFFFFFFFFFFFFFFFFFFFFFFFFFFFFFFFFFFFFFFFFFFFFFFFFFFFFFFFF ADD DUP1 NOT SWAP1 SWAP3 AND SWAP2 AND OR SWAP1 MSTORE PUSH1 0x40 DUP1 MLOAD SWAP3 SWAP1 SWAP5 ADD DUP3 SWAP1 SUB DUP3 KECCAK256 SWAP8 DUP3 MSTORE DUP2 ADD SWAP11 SWAP1 SWAP11 MSTORE POP PUSH20 0xFFFFFFFFFFFFFFFFFFFFFFFFFFFFFFFFFFFFFFFF SWAP8 SWAP1 SWAP8 AND SWAP7 DUP9 ADD SWAP7 SWAP1 SWAP7 MSTORE POP POP PUSH1 0x60 DUP6 ADD MSTORE POP POP PUSH1 0x80 SWAP1 SWAP2 KECCAK256 SWAP2 SWAP1 POP JUMP JUMPDEST PUSH1 0x1 SLOAD PUSH1 0x40 MLOAD PUSH32 0x1901000000000000000000000000000000000000000000000000000000000000 DUP2 MSTORE PUSH1 0x2 DUP2 ADD SWAP2 SWAP1 SWAP2 MSTORE PUSH1 0x22 DUP2 ADD SWAP2 SWAP1 SWAP2 MSTORE PUSH1 0x42 SWAP1 KECCAK256 SWAP1 JUMP JUMPDEST PUSH1 0x0 PUSH2 0x2F23 PUSH2 0x1AFD DUP4 PUSH2 0x3D35 JUMP JUMPDEST PUSH1 0x0 DUP2 DUP4 LT PUSH2 0x3656 JUMPI DUP2 PUSH2 0x25BF JUMP JUMPDEST POP SWAP1 SWAP2 SWAP1 POP JUMP JUMPDEST PUSH2 0x3665 PUSH2 0x4298 JUMP JUMPDEST PUSH1 0x20 DUP2 ADD DUP3 SWAP1 MSTORE PUSH1 0xA0 DUP4 ADD MLOAD PUSH1 0x80 DUP5 ADD MLOAD PUSH2 0x3681 SWAP2 DUP5 SWAP2 PUSH2 0x381B JUMP JUMPDEST DUP1 DUP3 MSTORE PUSH1 0x80 DUP5 ADD MLOAD PUSH1 0xC0 DUP6 ADD MLOAD PUSH2 0x3699 SWAP3 SWAP2 SWAP1 PUSH2 0x381B JUMP JUMPDEST PUSH1 0x40 DUP3 ADD MSTORE PUSH1 0xA0 DUP4 ADD MLOAD PUSH1 0xE0 DUP5 ADD MLOAD PUSH2 0x36B3 SWAP2 DUP5 SWAP2 PUSH2 0x381B JUMP JUMPDEST PUSH1 0x60 DUP3 ADD MSTORE SWAP3 SWAP2 POP POP JUMP JUMPDEST PUSH1 0x40 DUP1 MLOAD PUSH1 0x60 DUP2 ADD DUP3 MSTORE PUSH1 0x24 DUP2 MSTORE PUSH32 0xF47261B0000000000000000000000000E41D2489571D322189246DAFA5EBDE1F PUSH1 0x20 DUP3 ADD MSTORE PUSH32 0x4699F49800000000000000000000000000000000000000000000000000000000 SWAP2 DUP2 ADD SWAP2 SWAP1 SWAP2 MSTORE PUSH2 0x140 DUP5 ADD MLOAD DUP5 MLOAD DUP4 MLOAD PUSH2 0x3731 SWAP3 SWAP2 SWAP1 DUP7 SWAP1 PUSH2 0x3935 JUMP JUMPDEST PUSH2 0x374A DUP5 PUSH2 0x160 ADD MLOAD DUP5 DUP7 PUSH1 0x0 ADD MLOAD DUP6 PUSH1 0x20 ADD MLOAD PUSH2 0x3935 JUMP JUMPDEST PUSH2 0x3762 DUP2 DUP6 PUSH1 0x0 ADD MLOAD DUP7 PUSH1 0x40 ADD MLOAD DUP6 PUSH1 0x40 ADD MLOAD PUSH2 0x3935 JUMP JUMPDEST PUSH2 0x2758 DUP2 DUP5 DUP7 PUSH1 0x40 ADD MLOAD DUP6 PUSH1 0x60 ADD MLOAD PUSH2 0x3935 JUMP JUMPDEST PUSH1 0x0 DUP3 DUP3 ADD DUP4 DUP2 LT ISZERO PUSH2 0x37B5 JUMPI PUSH1 0x40 MLOAD PUSH32 0x8C379A000000000000000000000000000000000000000000000000000000000 DUP2 MSTORE PUSH1 0x4 ADD PUSH2 0x6C6 SWAP1 PUSH2 0x558F JUMP JUMPDEST DUP1 SWAP2 POP JUMPDEST POP SWAP3 SWAP2 POP POP JUMP JUMPDEST PUSH1 0x0 DUP1 DUP4 ISZERO ISZERO PUSH2 0x37D3 JUMPI PUSH1 0x0 SWAP2 POP PUSH2 0x37B9 JUMP JUMPDEST POP DUP3 DUP3 MUL DUP3 DUP5 DUP3 DUP2 ISZERO ISZERO PUSH2 0x37E3 JUMPI INVALID JUMPDEST DIV EQ PUSH2 0x37B5 JUMPI PUSH1 0x40 MLOAD PUSH32 0x8C379A000000000000000000000000000000000000000000000000000000000 DUP2 MSTORE PUSH1 0x4 ADD PUSH2 0x6C6 SWAP1 PUSH2 0x558F JUMP JUMPDEST PUSH1 0x0 DUP1 DUP4 GT PUSH2 0x3856 JUMPI PUSH1 0x40 MLOAD PUSH32 0x8C379A000000000000000000000000000000000000000000000000000000000 DUP2 MSTORE PUSH1 0x4 ADD PUSH2 0x6C6 SWAP1 PUSH2 0x555F JUMP JUMPDEST PUSH2 0x3861 DUP5 DUP5 DUP5 PUSH2 0x418E JUMP JUMPDEST ISZERO PUSH2 0x339D JUMPI PUSH1 0x40 MLOAD PUSH32 0x8C379A000000000000000000000000000000000000000000000000000000000 DUP2 MSTORE PUSH1 0x4 ADD PUSH2 0x6C6 SWAP1 PUSH2 0x55BF JUMP JUMPDEST PUSH1 0x0 DUP1 DUP4 GT PUSH2 0x38D3 JUMPI PUSH1 0x40 MLOAD PUSH32 0x8C379A000000000000000000000000000000000000000000000000000000000 DUP2 MSTORE PUSH1 0x4 ADD PUSH2 0x6C6 SWAP1 PUSH2 0x555F JUMP JUMPDEST PUSH2 0x38DE DUP5 DUP5 DUP5 PUSH2 0x4213 JUMP JUMPDEST ISZERO PUSH2 0x3915 JUMPI PUSH1 0x40 MLOAD PUSH32 0x8C379A000000000000000000000000000000000000000000000000000000000 DUP2 MSTORE PUSH1 0x4 ADD PUSH2 0x6C6 SWAP1 PUSH2 0x55BF JUMP JUMPDEST PUSH2 0x33B0 PUSH2 0x33AA PUSH2 0x3925 DUP7 DUP6 PUSH2 0x37C0 JUMP JUMPDEST PUSH2 0x3930 DUP7 PUSH1 0x1 PUSH2 0x2EE2 JUMP JUMPDEST PUSH2 0x3776 JUMP JUMPDEST PUSH1 0x0 DUP1 PUSH1 0x0 DUP4 GT DUP1 ISZERO PUSH2 0x3974 JUMPI POP DUP4 PUSH20 0xFFFFFFFFFFFFFFFFFFFFFFFFFFFFFFFFFFFFFFFF AND DUP6 PUSH20 0xFFFFFFFFFFFFFFFFFFFFFFFFFFFFFFFFFFFFFFFF AND EQ ISZERO JUMPDEST ISZERO PUSH2 0x3AF7 JUMPI DUP6 MLOAD PUSH1 0x3 LT PUSH2 0x39B4 JUMPI PUSH1 0x40 MLOAD PUSH32 0x8C379A000000000000000000000000000000000000000000000000000000000 DUP2 MSTORE PUSH1 0x4 ADD PUSH2 0x6C6 SWAP1 PUSH2 0x564F JUMP JUMPDEST POP POP PUSH1 0x20 DUP5 DUP2 ADD MLOAD PUSH32 0xFFFFFFFF00000000000000000000000000000000000000000000000000000000 AND PUSH1 0x0 DUP2 DUP2 MSTORE PUSH1 0xA SWAP1 SWAP3 MSTORE PUSH1 0x40 SWAP1 SWAP2 KECCAK256 SLOAD PUSH20 0xFFFFFFFFFFFFFFFFFFFFFFFFFFFFFFFFFFFFFFFF AND DUP1 ISZERO ISZERO PUSH2 0x3A3D JUMPI PUSH1 0x40 MLOAD PUSH32 0x8C379A000000000000000000000000000000000000000000000000000000000 DUP2 MSTORE PUSH1 0x4 ADD PUSH2 0x6C6 SWAP1 PUSH2 0x55FF JUMP JUMPDEST PUSH1 0x40 MLOAD PUSH7 0xFFFFFFFFFFFE0 PUSH1 0x3F DUP9 MLOAD ADD AND DUP1 PUSH1 0x84 ADD DUP3 ADD PUSH32 0xA85E59E400000000000000000000000000000000000000000000000000000000 DUP4 MSTORE PUSH1 0x80 PUSH1 0x4 DUP5 ADD MSTORE PUSH20 0xFFFFFFFFFFFFFFFFFFFFFFFFFFFFFFFFFFFFFFFF DUP9 AND PUSH1 0x24 DUP5 ADD MSTORE PUSH20 0xFFFFFFFFFFFFFFFFFFFFFFFFFFFFFFFFFFFFFFFF DUP8 AND PUSH1 0x44 DUP5 ADD MSTORE DUP6 PUSH1 0x64 DUP5 ADD MSTORE PUSH1 0x84 DUP4 ADD JUMPDEST DUP2 DUP2 LT ISZERO PUSH2 0x3AD9 JUMPI DUP10 MLOAD DUP2 MSTORE PUSH1 0x20 SWAP10 DUP11 ADD SWAP10 ADD PUSH2 0x3AC1 JUMP JUMPDEST PUSH2 0x200 DUP5 DUP6 DUP5 SUB DUP7 PUSH1 0x0 DUP10 GAS CALL DUP1 ISZERO ISZERO PUSH2 0x3AF1 JUMPI RETURNDATASIZE DUP6 REVERT JUMPDEST POP POP POP POP POP JUMPDEST POP POP POP POP POP POP JUMP JUMPDEST DUP1 MLOAD PUSH1 0x0 SWAP1 PUSH1 0xFF AND PUSH1 0x3 EQ PUSH2 0x3B40 JUMPI PUSH1 0x40 MLOAD PUSH32 0x8C379A000000000000000000000000000000000000000000000000000000000 DUP2 MSTORE PUSH1 0x4 ADD PUSH2 0x6C6 SWAP1 PUSH2 0x56AF JUMP JUMPDEST PUSH1 0x60 DUP4 ADD MLOAD PUSH20 0xFFFFFFFFFFFFFFFFFFFFFFFFFFFFFFFFFFFFFFFF AND ISZERO PUSH2 0x3BB3 JUMPI PUSH1 0x60 DUP4 ADD MLOAD PUSH20 0xFFFFFFFFFFFFFFFFFFFFFFFFFFFFFFFFFFFFFFFF AND CALLER EQ PUSH2 0x3BB3 JUMPI PUSH1 0x40 MLOAD PUSH32 0x8C379A000000000000000000000000000000000000000000000000000000000 DUP2 MSTORE PUSH1 0x4 ADD PUSH2 0x6C6 SWAP1 PUSH2 0x56BF JUMP JUMPDEST PUSH2 0x3BBB PUSH2 0x2594 JUMP JUMPDEST DUP4 MLOAD SWAP1 SWAP2 POP PUSH20 0xFFFFFFFFFFFFFFFFFFFFFFFFFFFFFFFFFFFFFFFF DUP1 DUP4 AND SWAP2 AND EQ PUSH2 0x3C11 JUMPI PUSH1 0x40 MLOAD PUSH32 0x8C379A000000000000000000000000000000000000000000000000000000000 DUP2 MSTORE PUSH1 0x4 ADD PUSH2 0x6C6 SWAP1 PUSH2 0x557F JUMP JUMPDEST POP POP POP JUMP JUMPDEST PUSH1 0x0 DUP2 DUP2 MSTORE PUSH1 0x4 PUSH1 0x20 MSTORE PUSH1 0x40 SWAP1 DUP2 SWAP1 KECCAK256 DUP1 SLOAD PUSH32 0xFFFFFFFFFFFFFFFFFFFFFFFFFFFFFFFFFFFFFFFFFFFFFFFFFFFFFFFFFFFFFF00 AND PUSH1 0x1 OR SWAP1 SSTORE DUP3 DUP2 ADD MLOAD DUP4 MLOAD PUSH2 0x140 DUP6 ADD MLOAD PUSH2 0x160 DUP7 ADD MLOAD SWAP4 MLOAD DUP6 SWAP5 PUSH20 0xFFFFFFFFFFFFFFFFFFFFFFFFFFFFFFFFFFFFFFFF SWAP5 DUP6 AND SWAP5 SWAP4 SWAP1 SWAP4 AND SWAP3 PUSH32 0xDC47B3613D9FE400085F6DBDC99453462279057E6207385042827ED6B1A62CF7 SWAP3 PUSH2 0x3CB1 SWAP3 CALLER SWAP3 SWAP1 PUSH2 0x53C9 JUMP JUMPDEST PUSH1 0x40 MLOAD DUP1 SWAP2 SUB SWAP1 LOG4 POP POP JUMP JUMPDEST PUSH1 0x0 DUP2 PUSH1 0x14 ADD DUP4 MLOAD LT ISZERO ISZERO ISZERO PUSH2 0x3CFF JUMPI PUSH1 0x40 MLOAD PUSH32 0x8C379A000000000000000000000000000000000000000000000000000000000 DUP2 MSTORE PUSH1 0x4 ADD PUSH2 0x6C6 SWAP1 PUSH2 0x569F JUMP JUMPDEST POP ADD PUSH1 0x14 ADD MLOAD PUSH20 0xFFFFFFFFFFFFFFFFFFFFFFFFFFFFFFFFFFFFFFFF AND SWAP1 JUMP JUMPDEST PUSH1 0x0 DUP1 DUP3 DUP5 DUP2 ISZERO ISZERO PUSH2 0x3D2C JUMPI INVALID JUMPDEST DIV SWAP5 SWAP4 POP POP POP POP JUMP JUMPDEST PUSH1 0x40 DUP1 MLOAD PUSH32 0x4F72646572280000000000000000000000000000000000000000000000000000 PUSH1 0x20 DUP1 DUP4 ADD SWAP2 SWAP1 SWAP2 MSTORE PUSH32 0x61646472657373206D616B6572416464726573732C0000000000000000000000 PUSH1 0x26 DUP4 ADD MSTORE PUSH32 0x616464726573732074616B6572416464726573732C0000000000000000000000 PUSH1 0x3B DUP4 ADD MSTORE PUSH32 0x6164647265737320666565526563697069656E74416464726573732C00000000 PUSH1 0x50 DUP4 ADD MSTORE PUSH32 0x616464726573732073656E646572416464726573732C00000000000000000000 PUSH1 0x6C DUP4 ADD MSTORE PUSH32 0x75696E74323536206D616B65724173736574416D6F756E742C00000000000000 PUSH1 0x82 DUP4 ADD MSTORE PUSH32 0x75696E743235362074616B65724173736574416D6F756E742C00000000000000 PUSH1 0x9B DUP4 ADD MSTORE PUSH32 0x75696E74323536206D616B65724665652C000000000000000000000000000000 PUSH1 0xB4 DUP4 ADD MSTORE PUSH32 0x75696E743235362074616B65724665652C000000000000000000000000000000 PUSH1 0xC5 DUP4 ADD MSTORE PUSH32 0x75696E743235362065787069726174696F6E54696D655365636F6E64732C0000 PUSH1 0xD6 DUP4 ADD MSTORE PUSH32 0x75696E743235362073616C742C00000000000000000000000000000000000000 PUSH1 0xF4 DUP4 ADD MSTORE PUSH32 0x6279746573206D616B65724173736574446174612C0000000000000000000000 PUSH2 0x101 DUP4 ADD MSTORE PUSH32 0x62797465732074616B6572417373657444617461000000000000000000000000 PUSH2 0x116 DUP4 ADD MSTORE PUSH32 0x2900000000000000000000000000000000000000000000000000000000000000 PUSH2 0x12A DUP4 ADD MSTORE DUP3 MLOAD PUSH2 0x10B DUP2 DUP5 SUB ADD DUP2 MSTORE PUSH2 0x12B SWAP1 SWAP3 ADD SWAP3 DUP4 SWAP1 MSTORE DUP2 MLOAD PUSH1 0x0 SWAP4 DUP5 SWAP4 DUP5 SWAP4 DUP5 SWAP4 SWAP2 SWAP3 SWAP2 DUP3 SWAP2 DUP5 ADD SWAP1 DUP1 DUP4 DUP4 JUMPDEST PUSH1 0x20 DUP4 LT PUSH2 0x3FBD JUMPI DUP1 MLOAD DUP3 MSTORE PUSH32 0xFFFFFFFFFFFFFFFFFFFFFFFFFFFFFFFFFFFFFFFFFFFFFFFFFFFFFFFFFFFFFFE0 SWAP1 SWAP3 ADD SWAP2 PUSH1 0x20 SWAP2 DUP3 ADD SWAP2 ADD PUSH2 0x3F80 JUMP JUMPDEST MLOAD DUP2 MLOAD PUSH1 0x20 SWAP4 DUP5 SUB PUSH2 0x100 EXP PUSH32 0xFFFFFFFFFFFFFFFFFFFFFFFFFFFFFFFFFFFFFFFFFFFFFFFFFFFFFFFFFFFFFFFF ADD DUP1 NOT SWAP1 SWAP3 AND SWAP2 AND OR SWAP1 MSTORE PUSH1 0x40 MLOAD SWAP2 SWAP1 SWAP4 ADD DUP2 SWAP1 SUB DUP2 KECCAK256 PUSH2 0x140 DUP12 ADD MLOAD DUP1 MLOAD SWAP2 SWAP10 POP SWAP6 POP SWAP1 SWAP4 POP DUP4 SWAP3 DUP6 ADD SWAP2 POP DUP1 DUP4 DUP4 JUMPDEST PUSH1 0x20 DUP4 LT PUSH2 0x4058 JUMPI DUP1 MLOAD DUP3 MSTORE PUSH32 0xFFFFFFFFFFFFFFFFFFFFFFFFFFFFFFFFFFFFFFFFFFFFFFFFFFFFFFFFFFFFFFE0 SWAP1 SWAP3 ADD SWAP2 PUSH1 0x20 SWAP2 DUP3 ADD SWAP2 ADD PUSH2 0x401B JUMP JUMPDEST MLOAD DUP2 MLOAD PUSH1 0x20 SWAP4 DUP5 SUB PUSH2 0x100 EXP PUSH32 0xFFFFFFFFFFFFFFFFFFFFFFFFFFFFFFFFFFFFFFFFFFFFFFFFFFFFFFFFFFFFFFFF ADD DUP1 NOT SWAP1 SWAP3 AND SWAP2 AND OR SWAP1 MSTORE PUSH1 0x40 MLOAD SWAP2 SWAP1 SWAP4 ADD DUP2 SWAP1 SUB DUP2 KECCAK256 PUSH2 0x160 DUP12 ADD MLOAD DUP1 MLOAD SWAP2 SWAP9 POP SWAP6 POP SWAP1 SWAP4 POP DUP4 SWAP3 DUP6 ADD SWAP2 POP DUP1 DUP4 DUP4 JUMPDEST PUSH1 0x20 DUP4 LT PUSH2 0x40F3 JUMPI DUP1 MLOAD DUP3 MSTORE PUSH32 0xFFFFFFFFFFFFFFFFFFFFFFFFFFFFFFFFFFFFFFFFFFFFFFFFFFFFFFFFFFFFFFE0 SWAP1 SWAP3 ADD SWAP2 PUSH1 0x20 SWAP2 DUP3 ADD SWAP2 ADD PUSH2 0x40B6 JUMP JUMPDEST MLOAD DUP2 MLOAD PUSH1 0x20 SWAP4 SWAP1 SWAP4 SUB PUSH2 0x100 EXP PUSH32 0xFFFFFFFFFFFFFFFFFFFFFFFFFFFFFFFFFFFFFFFFFFFFFFFFFFFFFFFFFFFFFFFF ADD DUP1 NOT SWAP1 SWAP2 AND SWAP3 AND SWAP2 SWAP1 SWAP2 OR SWAP1 MSTORE PUSH1 0x40 MLOAD SWAP3 ADD DUP3 SWAP1 SUB SWAP1 SWAP2 KECCAK256 PUSH32 0xFFFFFFFFFFFFFFFFFFFFFFFFFFFFFFFFFFFFFFFFFFFFFFFFFFFFFFFFFFFFFFE0 DUP10 ADD DUP1 MLOAD PUSH2 0x140 DUP12 ADD DUP1 MLOAD PUSH2 0x160 SWAP1 SWAP13 ADD DUP1 MLOAD SWAP11 DUP5 MSTORE SWAP9 DUP2 MSTORE SWAP3 DUP9 MSTORE PUSH2 0x1A0 DUP3 KECCAK256 SWAP2 MSTORE SWAP9 SWAP1 MSTORE POP POP POP SWAP2 SWAP1 MSTORE POP SWAP1 SWAP2 SWAP1 POP JUMP JUMPDEST PUSH1 0x0 DUP1 DUP1 DUP5 GT PUSH2 0x41CA JUMPI PUSH1 0x40 MLOAD PUSH32 0x8C379A000000000000000000000000000000000000000000000000000000000 DUP2 MSTORE PUSH1 0x4 ADD PUSH2 0x6C6 SWAP1 PUSH2 0x555F JUMP JUMPDEST DUP3 ISZERO DUP1 PUSH2 0x41D5 JUMPI POP DUP5 ISZERO JUMPDEST ISZERO PUSH2 0x41E3 JUMPI PUSH1 0x0 SWAP2 POP PUSH2 0xA88 JUMP JUMPDEST DUP4 DUP1 ISZERO ISZERO PUSH2 0x41ED JUMPI INVALID JUMPDEST DUP6 DUP5 MULMOD SWAP1 POP PUSH2 0x41FC DUP6 DUP5 PUSH2 0x37C0 JUMP JUMPDEST PUSH2 0x4208 PUSH2 0x3E8 DUP4 PUSH2 0x37C0 JUMP JUMPDEST LT ISZERO SWAP6 SWAP5 POP POP POP POP POP JUMP JUMPDEST PUSH1 0x0 DUP1 DUP1 DUP5 GT PUSH2 0x424F JUMPI PUSH1 0x40 MLOAD PUSH32 0x8C379A000000000000000000000000000000000000000000000000000000000 DUP2 MSTORE PUSH1 0x4 ADD PUSH2 0x6C6 SWAP1 PUSH2 0x555F JUMP JUMPDEST DUP3 ISZERO DUP1 PUSH2 0x425A JUMPI POP DUP5 ISZERO JUMPDEST ISZERO PUSH2 0x4268 JUMPI PUSH1 0x0 SWAP2 POP PUSH2 0xA88 JUMP JUMPDEST DUP4 DUP1 ISZERO ISZERO PUSH2 0x4272 JUMPI INVALID JUMPDEST DUP6 DUP5 MULMOD SWAP1 POP DUP4 PUSH2 0x4282 DUP6 DUP4 PUSH2 0x2EE2 JUMP JUMPDEST DUP2 ISZERO ISZERO PUSH2 0x428B JUMPI INVALID JUMPDEST MOD SWAP1 POP PUSH2 0x41FC DUP6 DUP5 PUSH2 0x37C0 JUMP JUMPDEST PUSH1 0x80 PUSH1 0x40 MLOAD SWAP1 DUP2 ADD PUSH1 0x40 MSTORE DUP1 PUSH1 0x0 DUP2 MSTORE PUSH1 0x20 ADD PUSH1 0x0 DUP2 MSTORE PUSH1 0x20 ADD PUSH1 0x0 DUP2 MSTORE PUSH1 0x20 ADD PUSH1 0x0 DUP2 MSTORE POP SWAP1 JUMP JUMPDEST PUSH2 0x120 PUSH1 0x40 MLOAD SWAP1 DUP2 ADD PUSH1 0x40 MSTORE DUP1 PUSH2 0x42D6 PUSH2 0x4298 JUMP JUMPDEST DUP2 MSTORE PUSH1 0x20 ADD PUSH2 0x42E3 PUSH2 0x4298 JUMP JUMPDEST DUP2 MSTORE PUSH1 0x20 ADD PUSH1 0x0 DUP2 MSTORE POP SWAP1 JUMP JUMPDEST PUSH1 0x40 DUP1 MLOAD PUSH1 0x60 DUP2 ADD DUP3 MSTORE PUSH1 0x0 DUP1 DUP3 MSTORE PUSH1 0x20 DUP3 ADD DUP2 SWAP1 MSTORE SWAP2 DUP2 ADD SWAP2 SWAP1 SWAP2 MSTORE SWAP1 JUMP JUMPDEST PUSH1 0x0 PUSH2 0x25BF DUP3 CALLDATALOAD PUSH2 0x57C2 JUMP JUMPDEST PUSH1 0x0 PUSH1 0x1F DUP3 ADD DUP4 SGT PUSH2 0x432D JUMPI PUSH1 0x0 DUP1 REVERT JUMPDEST DUP2 CALLDATALOAD PUSH2 0x4340 PUSH2 0x433B DUP3 PUSH2 0x5751 JUMP JUMPDEST PUSH2 0x572A JUMP JUMPDEST DUP2 DUP2 MSTORE PUSH1 0x20 SWAP4 DUP5 ADD SWAP4 SWAP1 SWAP3 POP DUP3 ADD DUP4 PUSH1 0x0 JUMPDEST DUP4 DUP2 LT ISZERO PUSH2 0x437E JUMPI DUP2 CALLDATALOAD DUP7 ADD PUSH2 0x4368 DUP9 DUP3 PUSH2 0x44CE JUMP JUMPDEST DUP5 MSTORE POP PUSH1 0x20 SWAP3 DUP4 ADD SWAP3 SWAP2 SWAP1 SWAP2 ADD SWAP1 PUSH1 0x1 ADD PUSH2 0x4352 JUMP JUMPDEST POP POP POP POP SWAP3 SWAP2 POP POP JUMP JUMPDEST PUSH1 0x0 PUSH1 0x1F DUP3 ADD DUP4 SGT PUSH2 0x4399 JUMPI PUSH1 0x0 DUP1 REVERT JUMPDEST DUP2 CALLDATALOAD PUSH2 0x43A7 PUSH2 0x433B DUP3 PUSH2 0x5751 JUMP JUMPDEST DUP2 DUP2 MSTORE PUSH1 0x20 SWAP4 DUP5 ADD SWAP4 SWAP1 SWAP3 POP DUP3 ADD DUP4 PUSH1 0x0 JUMPDEST DUP4 DUP2 LT ISZERO PUSH2 0x437E JUMPI DUP2 CALLDATALOAD DUP7 ADD PUSH2 0x43CF DUP9 DUP3 PUSH2 0x451D JUMP JUMPDEST DUP5 MSTORE POP PUSH1 0x20 SWAP3 DUP4 ADD SWAP3 SWAP2 SWAP1 SWAP2 ADD SWAP1 PUSH1 0x1 ADD PUSH2 0x43B9 JUMP JUMPDEST PUSH1 0x0 PUSH1 0x1F DUP3 ADD DUP4 SGT PUSH2 0x43F6 JUMPI PUSH1 0x0 DUP1 REVERT JUMPDEST DUP2 CALLDATALOAD PUSH2 0x4404 PUSH2 0x433B DUP3 PUSH2 0x5751 JUMP JUMPDEST SWAP2 POP DUP2 DUP2 DUP4 MSTORE PUSH1 0x20 DUP5 ADD SWAP4 POP PUSH1 0x20 DUP2 ADD SWAP1 POP DUP4 DUP6 PUSH1 0x20 DUP5 MUL DUP3 ADD GT ISZERO PUSH2 0x4429 JUMPI PUSH1 0x0 DUP1 REVERT JUMPDEST PUSH1 0x0 JUMPDEST DUP4 DUP2 LT ISZERO PUSH2 0x437E JUMPI DUP2 PUSH2 0x443F DUP9 DUP3 PUSH2 0x4461 JUMP JUMPDEST DUP5 MSTORE POP PUSH1 0x20 SWAP3 DUP4 ADD SWAP3 SWAP2 SWAP1 SWAP2 ADD SWAP1 PUSH1 0x1 ADD PUSH2 0x442C JUMP JUMPDEST PUSH1 0x0 PUSH2 0x25BF DUP3 CALLDATALOAD PUSH2 0x57DB JUMP JUMPDEST PUSH1 0x0 PUSH2 0x25BF DUP3 CALLDATALOAD PUSH2 0x57E0 JUMP JUMPDEST PUSH1 0x0 PUSH2 0x25BF DUP3 CALLDATALOAD PUSH2 0x57E3 JUMP JUMPDEST PUSH1 0x0 PUSH2 0x25BF DUP3 MLOAD PUSH2 0x57E3 JUMP JUMPDEST PUSH1 0x0 DUP1 PUSH1 0x1F DUP4 ADD DUP5 SGT PUSH2 0x4497 JUMPI PUSH1 0x0 DUP1 REVERT JUMPDEST POP DUP2 CALLDATALOAD PUSH8 0xFFFFFFFFFFFFFFFF DUP2 GT ISZERO PUSH2 0x44AF JUMPI PUSH1 0x0 DUP1 REVERT JUMPDEST PUSH1 0x20 DUP4 ADD SWAP2 POP DUP4 PUSH1 0x1 DUP3 MUL DUP4 ADD GT ISZERO PUSH2 0x44C7 JUMPI PUSH1 0x0 DUP1 REVERT JUMPDEST SWAP3 POP SWAP3 SWAP1 POP JUMP JUMPDEST PUSH1 0x0 PUSH1 0x1F DUP3 ADD DUP4 SGT PUSH2 0x44DF JUMPI PUSH1 0x0 DUP1 REVERT JUMPDEST DUP2 CALLDATALOAD PUSH2 0x44ED PUSH2 0x433B DUP3 PUSH2 0x5772 JUMP JUMPDEST SWAP2 POP DUP1 DUP3 MSTORE PUSH1 0x20 DUP4 ADD PUSH1 0x20 DUP4 ADD DUP6 DUP4 DUP4 ADD GT ISZERO PUSH2 0x4509 JUMPI PUSH1 0x0 DUP1 REVERT JUMPDEST PUSH2 0x4514 DUP4 DUP3 DUP5 PUSH2 0x5819 JUMP JUMPDEST POP POP POP SWAP3 SWAP2 POP POP JUMP JUMPDEST PUSH1 0x0 PUSH2 0x180 DUP3 DUP5 SUB SLT ISZERO PUSH2 0x4530 JUMPI PUSH1 0x0 DUP1 REVERT JUMPDEST PUSH2 0x453B PUSH2 0x180 PUSH2 0x572A JUMP JUMPDEST SWAP1 POP PUSH1 0x0 PUSH2 0x4549 DUP5 DUP5 PUSH2 0x4310 JUMP JUMPDEST DUP3 MSTORE POP PUSH1 0x20 PUSH2 0x455A DUP5 DUP5 DUP4 ADD PUSH2 0x4310 JUMP JUMPDEST PUSH1 0x20 DUP4 ADD MSTORE POP PUSH1 0x40 PUSH2 0x456E DUP5 DUP3 DUP6 ADD PUSH2 0x4310 JUMP JUMPDEST PUSH1 0x40 DUP4 ADD MSTORE POP PUSH1 0x60 PUSH2 0x4582 DUP5 DUP3 DUP6 ADD PUSH2 0x4310 JUMP JUMPDEST PUSH1 0x60 DUP4 ADD MSTORE POP PUSH1 0x80 PUSH2 0x4596 DUP5 DUP3 DUP6 ADD PUSH2 0x4461 JUMP JUMPDEST PUSH1 0x80 DUP4 ADD MSTORE POP PUSH1 0xA0 PUSH2 0x45AA DUP5 DUP3 DUP6 ADD PUSH2 0x4461 JUMP JUMPDEST PUSH1 0xA0 DUP4 ADD MSTORE POP PUSH1 0xC0 PUSH2 0x45BE DUP5 DUP3 DUP6 ADD PUSH2 0x4461 JUMP JUMPDEST PUSH1 0xC0 DUP4 ADD MSTORE POP PUSH1 0xE0 PUSH2 0x45D2 DUP5 DUP3 DUP6 ADD PUSH2 0x4461 JUMP JUMPDEST PUSH1 0xE0 DUP4 ADD MSTORE POP PUSH2 0x100 PUSH2 0x45E7 DUP5 DUP3 DUP6 ADD PUSH2 0x4461 JUMP JUMPDEST PUSH2 0x100 DUP4 ADD MSTORE POP PUSH2 0x120 PUSH2 0x45FD DUP5 DUP3 DUP6 ADD PUSH2 0x4461 JUMP JUMPDEST PUSH2 0x120 DUP4 ADD MSTORE POP PUSH2 0x140 DUP3 ADD CALLDATALOAD PUSH8 0xFFFFFFFFFFFFFFFF DUP2 GT ISZERO PUSH2 0x461F JUMPI PUSH1 0x0 DUP1 REVERT JUMPDEST PUSH2 0x462B DUP5 DUP3 DUP6 ADD PUSH2 0x44CE JUMP JUMPDEST PUSH2 0x140 DUP4 ADD MSTORE POP PUSH2 0x160 DUP3 ADD CALLDATALOAD PUSH8 0xFFFFFFFFFFFFFFFF DUP2 GT ISZERO PUSH2 0x464D JUMPI PUSH1 0x0 DUP1 REVERT JUMPDEST PUSH2 0x4659 DUP5 DUP3 DUP6 ADD PUSH2 0x44CE JUMP JUMPDEST PUSH2 0x160 DUP4 ADD MSTORE POP SWAP3 SWAP2 POP POP JUMP JUMPDEST PUSH1 0x0 PUSH1 0x20 DUP3 DUP5 SUB SLT ISZERO PUSH2 0x4678 JUMPI PUSH1 0x0 DUP1 REVERT JUMPDEST PUSH1 0x0 PUSH2 0x33B0 DUP5 DUP5 PUSH2 0x4310 JUMP JUMPDEST PUSH1 0x0 DUP1 PUSH1 0x40 DUP4 DUP6 SUB SLT ISZERO PUSH2 0x4697 JUMPI PUSH1 0x0 DUP1 REVERT JUMPDEST PUSH1 0x0 PUSH2 0x46A3 DUP6 DUP6 PUSH2 0x4310 JUMP JUMPDEST SWAP3 POP POP PUSH1 0x20 PUSH2 0x46B4 DUP6 DUP3 DUP7 ADD PUSH2 0x4310 JUMP JUMPDEST SWAP2 POP POP SWAP3 POP SWAP3 SWAP1 POP JUMP JUMPDEST PUSH1 0x0 DUP1 PUSH1 0x40 DUP4 DUP6 SUB SLT ISZERO PUSH2 0x46D1 JUMPI PUSH1 0x0 DUP1 REVERT JUMPDEST PUSH1 0x0 PUSH2 0x46DD DUP6 DUP6 PUSH2 0x4310 JUMP JUMPDEST SWAP3 POP POP PUSH1 0x20 PUSH2 0x46B4 DUP6 DUP3 DUP7 ADD PUSH2 0x4455 JUMP JUMPDEST PUSH1 0x0 PUSH1 0x20 DUP3 DUP5 SUB SLT ISZERO PUSH2 0x4700 JUMPI PUSH1 0x0 DUP1 REVERT JUMPDEST DUP2 CALLDATALOAD PUSH8 0xFFFFFFFFFFFFFFFF DUP2 GT ISZERO PUSH2 0x4717 JUMPI PUSH1 0x0 DUP1 REVERT JUMPDEST PUSH2 0x33B0 DUP5 DUP3 DUP6 ADD PUSH2 0x4388 JUMP JUMPDEST PUSH1 0x0 DUP1 PUSH1 0x0 PUSH1 0x60 DUP5 DUP7 SUB SLT ISZERO PUSH2 0x4738 JUMPI PUSH1 0x0 DUP1 REVERT JUMPDEST DUP4 CALLDATALOAD PUSH8 0xFFFFFFFFFFFFFFFF DUP2 GT ISZERO PUSH2 0x474F JUMPI PUSH1 0x0 DUP1 REVERT JUMPDEST PUSH2 0x475B DUP7 DUP3 DUP8 ADD PUSH2 0x4388 JUMP JUMPDEST SWAP4 POP POP PUSH1 0x20 DUP5 ADD CALLDATALOAD PUSH8 0xFFFFFFFFFFFFFFFF DUP2 GT ISZERO PUSH2 0x4778 JUMPI PUSH1 0x0 DUP1 REVERT JUMPDEST PUSH2 0x4784 DUP7 DUP3 DUP8 ADD PUSH2 0x43E5 JUMP JUMPDEST SWAP3 POP POP PUSH1 0x40 DUP5 ADD CALLDATALOAD PUSH8 0xFFFFFFFFFFFFFFFF DUP2 GT ISZERO PUSH2 0x47A1 JUMPI PUSH1 0x0 DUP1 REVERT JUMPDEST PUSH2 0x47AD DUP7 DUP3 DUP8 ADD PUSH2 0x431C JUMP JUMPDEST SWAP2 POP POP SWAP3 POP SWAP3 POP SWAP3 JUMP JUMPDEST PUSH1 0x0 DUP1 PUSH1 0x0 PUSH1 0x60 DUP5 DUP7 SUB SLT ISZERO PUSH2 0x47CC JUMPI PUSH1 0x0 DUP1 REVERT JUMPDEST DUP4 CALLDATALOAD PUSH8 0xFFFFFFFFFFFFFFFF DUP2 GT ISZERO PUSH2 0x47E3 JUMPI PUSH1 0x0 DUP1 REVERT JUMPDEST PUSH2 0x47EF DUP7 DUP3 DUP8 ADD PUSH2 0x4388 JUMP JUMPDEST SWAP4 POP POP PUSH1 0x20 PUSH2 0x4784 DUP7 DUP3 DUP8 ADD PUSH2 0x4461 JUMP JUMPDEST PUSH1 0x0 PUSH1 0x20 DUP3 DUP5 SUB SLT ISZERO PUSH2 0x4812 JUMPI PUSH1 0x0 DUP1 REVERT JUMPDEST PUSH1 0x0 PUSH2 0x33B0 DUP5 DUP5 PUSH2 0x4461 JUMP JUMPDEST PUSH1 0x0 DUP1 PUSH1 0x40 DUP4 DUP6 SUB SLT ISZERO PUSH2 0x4831 JUMPI PUSH1 0x0 DUP1 REVERT JUMPDEST PUSH1 0x0 PUSH2 0x46A3 DUP6 DUP6 PUSH2 0x4461 JUMP JUMPDEST PUSH1 0x0 DUP1 PUSH1 0x0 DUP1 PUSH1 0x60 DUP6 DUP8 SUB SLT ISZERO PUSH2 0x4853 JUMPI PUSH1 0x0 DUP1 REVERT JUMPDEST PUSH1 0x0 PUSH2 0x485F DUP8 DUP8 PUSH2 0x4461 JUMP JUMPDEST SWAP5 POP POP PUSH1 0x20 PUSH2 0x4870 DUP8 DUP3 DUP9 ADD PUSH2 0x4310 JUMP JUMPDEST SWAP4 POP POP PUSH1 0x40 DUP6 ADD CALLDATALOAD PUSH8 0xFFFFFFFFFFFFFFFF DUP2 GT ISZERO PUSH2 0x488D JUMPI PUSH1 0x0 DUP1 REVERT JUMPDEST PUSH2 0x4899 DUP8 DUP3 DUP9 ADD PUSH2 0x4485 JUMP JUMPDEST SWAP6 SWAP9 SWAP5 SWAP8 POP SWAP6 POP POP POP POP JUMP JUMPDEST PUSH1 0x0 DUP1 PUSH1 0x0 PUSH1 0x60 DUP5 DUP7 SUB SLT ISZERO PUSH2 0x48BA JUMPI PUSH1 0x0 DUP1 REVERT JUMPDEST PUSH1 0x0 PUSH2 0x48C6 DUP7 DUP7 PUSH2 0x4461 JUMP JUMPDEST SWAP4 POP POP PUSH1 0x20 PUSH2 0x48D7 DUP7 DUP3 DUP8 ADD PUSH2 0x4310 JUMP JUMPDEST SWAP3 POP POP PUSH1 0x40 DUP5 ADD CALLDATALOAD PUSH8 0xFFFFFFFFFFFFFFFF DUP2 GT ISZERO PUSH2 0x48F4 JUMPI PUSH1 0x0 DUP1 REVERT JUMPDEST PUSH2 0x47AD DUP7 DUP3 DUP8 ADD PUSH2 0x44CE JUMP JUMPDEST PUSH1 0x0 PUSH1 0x20 DUP3 DUP5 SUB SLT ISZERO PUSH2 0x4912 JUMPI PUSH1 0x0 DUP1 REVERT JUMPDEST PUSH1 0x0 PUSH2 0x33B0 DUP5 DUP5 PUSH2 0x446D JUMP JUMPDEST PUSH1 0x0 PUSH1 0x20 DUP3 DUP5 SUB SLT ISZERO PUSH2 0x4930 JUMPI PUSH1 0x0 DUP1 REVERT JUMPDEST PUSH1 0x0 PUSH2 0x33B0 DUP5 DUP5 PUSH2 0x4479 JUMP JUMPDEST PUSH1 0x0 PUSH1 0x20 DUP3 DUP5 SUB SLT ISZERO PUSH2 0x494E JUMPI PUSH1 0x0 DUP1 REVERT JUMPDEST DUP2 CALLDATALOAD PUSH8 0xFFFFFFFFFFFFFFFF DUP2 GT ISZERO PUSH2 0x4965 JUMPI PUSH1 0x0 DUP1 REVERT JUMPDEST PUSH2 0x33B0 DUP5 DUP3 DUP6 ADD PUSH2 0x451D JUMP JUMPDEST PUSH1 0x0 DUP1 PUSH1 0x0 DUP1 PUSH1 0x80 DUP6 DUP8 SUB SLT ISZERO PUSH2 0x4987 JUMPI PUSH1 0x0 DUP1 REVERT JUMPDEST DUP5 CALLDATALOAD PUSH8 0xFFFFFFFFFFFFFFFF DUP2 GT ISZERO PUSH2 0x499E JUMPI PUSH1 0x0 DUP1 REVERT JUMPDEST PUSH2 0x49AA DUP8 DUP3 DUP9 ADD PUSH2 0x451D JUMP JUMPDEST SWAP5 POP POP PUSH1 0x20 DUP6 ADD CALLDATALOAD PUSH8 0xFFFFFFFFFFFFFFFF DUP2 GT ISZERO PUSH2 0x49C7 JUMPI PUSH1 0x0 DUP1 REVERT JUMPDEST PUSH2 0x49D3 DUP8 DUP3 DUP9 ADD PUSH2 0x451D JUMP JUMPDEST SWAP4 POP POP PUSH1 0x40 DUP6 ADD CALLDATALOAD PUSH8 0xFFFFFFFFFFFFFFFF DUP2 GT ISZERO PUSH2 0x49F0 JUMPI PUSH1 0x0 DUP1 REVERT JUMPDEST PUSH2 0x49FC DUP8 DUP3 DUP9 ADD PUSH2 0x44CE JUMP JUMPDEST SWAP3 POP POP PUSH1 0x60 DUP6 ADD CALLDATALOAD PUSH8 0xFFFFFFFFFFFFFFFF DUP2 GT ISZERO PUSH2 0x4A19 JUMPI PUSH1 0x0 DUP1 REVERT JUMPDEST PUSH2 0x4A25 DUP8 DUP3 DUP9 ADD PUSH2 0x44CE JUMP JUMPDEST SWAP2 POP POP SWAP3 SWAP6 SWAP2 SWAP5 POP SWAP3 POP JUMP JUMPDEST PUSH1 0x0 DUP1 PUSH1 0x0 PUSH1 0x60 DUP5 DUP7 SUB SLT ISZERO PUSH2 0x4A46 JUMPI PUSH1 0x0 DUP1 REVERT JUMPDEST DUP4 CALLDATALOAD PUSH8 0xFFFFFFFFFFFFFFFF DUP2 GT ISZERO PUSH2 0x4A5D JUMPI PUSH1 0x0 DUP1 REVERT JUMPDEST PUSH2 0x4A69 DUP7 DUP3 DUP8 ADD PUSH2 0x451D JUMP JUMPDEST SWAP4 POP POP PUSH1 0x20 PUSH2 0x48D7 DUP7 DUP3 DUP8 ADD PUSH2 0x4461 JUMP JUMPDEST PUSH1 0x0 DUP1 PUSH1 0x0 DUP1 PUSH1 0x0 DUP1 PUSH1 0x80 DUP8 DUP10 SUB SLT ISZERO PUSH2 0x4A93 JUMPI PUSH1 0x0 DUP1 REVERT JUMPDEST PUSH1 0x0 PUSH2 0x4A9F DUP10 DUP10 PUSH2 0x4461 JUMP JUMPDEST SWAP7 POP POP PUSH1 0x20 PUSH2 0x4AB0 DUP10 DUP3 DUP11 ADD PUSH2 0x4310 JUMP JUMPDEST SWAP6 POP POP PUSH1 0x40 DUP8 ADD CALLDATALOAD PUSH8 0xFFFFFFFFFFFFFFFF DUP2 GT ISZERO PUSH2 0x4ACD JUMPI PUSH1 0x0 DUP1 REVERT JUMPDEST PUSH2 0x4AD9 DUP10 DUP3 DUP11 ADD PUSH2 0x4485 JUMP JUMPDEST SWAP5 POP SWAP5 POP POP PUSH1 0x60 DUP8 ADD CALLDATALOAD PUSH8 0xFFFFFFFFFFFFFFFF DUP2 GT ISZERO PUSH2 0x4AF8 JUMPI PUSH1 0x0 DUP1 REVERT JUMPDEST PUSH2 0x4B04 DUP10 DUP3 DUP11 ADD PUSH2 0x4485 JUMP JUMPDEST SWAP3 POP SWAP3 POP POP SWAP3 SWAP6 POP SWAP3 SWAP6 POP SWAP3 SWAP6 JUMP JUMPDEST PUSH2 0x4B1C DUP2 PUSH2 0x57C2 JUMP JUMPDEST DUP3 MSTORE POP POP JUMP JUMPDEST PUSH1 0x0 PUSH2 0x4B2D DUP3 PUSH2 0x57BE JUMP JUMPDEST DUP1 DUP5 MSTORE PUSH1 0x20 DUP5 ADD SWAP4 POP PUSH2 0x4B3F DUP4 PUSH2 0x57B8 JUMP JUMPDEST PUSH1 0x0 JUMPDEST DUP3 DUP2 LT ISZERO PUSH2 0x4B6F JUMPI PUSH2 0x4B55 DUP7 DUP4 MLOAD PUSH2 0x52F7 JUMP JUMPDEST PUSH2 0x4B5E DUP3 PUSH2 0x57B8 JUMP JUMPDEST PUSH1 0x60 SWAP7 SWAP1 SWAP7 ADD SWAP6 SWAP2 POP PUSH1 0x1 ADD PUSH2 0x4B42 JUMP JUMPDEST POP SWAP4 SWAP5 SWAP4 POP POP POP POP JUMP JUMPDEST PUSH2 0x4B1C DUP2 PUSH2 0x57DB JUMP JUMPDEST PUSH2 0x4B1C DUP2 PUSH2 0x57E0 JUMP JUMPDEST PUSH2 0x4B1C DUP2 PUSH2 0x57E3 JUMP JUMPDEST PUSH1 0x0 PUSH2 0x4B9F DUP3 PUSH2 0x57BE JUMP JUMPDEST DUP1 DUP5 MSTORE PUSH2 0x4BB3 DUP2 PUSH1 0x20 DUP7 ADD PUSH1 0x20 DUP7 ADD PUSH2 0x5825 JUMP JUMPDEST PUSH2 0x4BBC DUP2 PUSH2 0x5851 JUMP JUMPDEST SWAP1 SWAP4 ADD PUSH1 0x20 ADD SWAP4 SWAP3 POP POP POP JUMP JUMPDEST PUSH2 0x4B1C DUP2 PUSH2 0x580E JUMP JUMPDEST PUSH1 0x12 DUP2 MSTORE PUSH32 0x4C454E4754485F36355F52455155495245440000000000000000000000000000 PUSH1 0x20 DUP3 ADD MSTORE PUSH1 0x40 ADD SWAP1 JUMP JUMPDEST PUSH1 0xD DUP2 MSTORE PUSH32 0x494E56414C49445F54414B455200000000000000000000000000000000000000 PUSH1 0x20 DUP3 ADD MSTORE PUSH1 0x40 ADD SWAP1 JUMP JUMPDEST PUSH1 0xE DUP2 MSTORE PUSH32 0x4F524445525F4F56455246494C4C000000000000000000000000000000000000 PUSH1 0x20 DUP3 ADD MSTORE PUSH1 0x40 ADD SWAP1 JUMP JUMPDEST PUSH1 0x11 DUP2 MSTORE PUSH32 0x55494E543235365F554E444552464C4F57000000000000000000000000000000 PUSH1 0x20 DUP3 ADD MSTORE PUSH1 0x40 ADD SWAP1 JUMP JUMPDEST PUSH1 0x1A DUP2 MSTORE PUSH32 0x41535345545F50524F58595F414C52454144595F455849535453000000000000 PUSH1 0x20 DUP3 ADD MSTORE PUSH1 0x40 ADD SWAP1 JUMP JUMPDEST PUSH1 0x26 DUP2 MSTORE PUSH32 0x475245415445525F4F525F455155414C5F544F5F33325F4C454E4754485F5245 PUSH1 0x20 DUP3 ADD MSTORE PUSH32 0x5155495245440000000000000000000000000000000000000000000000000000 PUSH1 0x40 DUP3 ADD MSTORE PUSH1 0x60 ADD SWAP1 JUMP JUMPDEST PUSH1 0x15 DUP2 MSTORE PUSH32 0x5349474E41545552455F554E535550504F525445440000000000000000000000 PUSH1 0x20 DUP3 ADD MSTORE PUSH1 0x40 ADD SWAP1 JUMP JUMPDEST PUSH1 0x10 DUP2 MSTORE PUSH32 0x4449564953494F4E5F42595F5A45524F00000000000000000000000000000000 PUSH1 0x20 DUP3 ADD MSTORE PUSH1 0x40 ADD SWAP1 JUMP JUMPDEST PUSH1 0x17 DUP2 MSTORE PUSH32 0x494E56414C49445F4F524445525F5349474E4154555245000000000000000000 PUSH1 0x20 DUP3 ADD MSTORE PUSH1 0x40 ADD SWAP1 JUMP JUMPDEST PUSH1 0xD DUP2 MSTORE PUSH32 0x494E56414C49445F4D414B455200000000000000000000000000000000000000 PUSH1 0x20 DUP3 ADD MSTORE PUSH1 0x40 ADD SWAP1 JUMP JUMPDEST PUSH1 0x10 DUP2 MSTORE PUSH32 0x55494E543235365F4F564552464C4F5700000000000000000000000000000000 PUSH1 0x20 DUP3 ADD MSTORE PUSH1 0x40 ADD SWAP1 JUMP JUMPDEST PUSH1 0xF DUP2 MSTORE PUSH32 0x494E56414C49445F54585F484153480000000000000000000000000000000000 PUSH1 0x20 DUP3 ADD MSTORE PUSH1 0x40 ADD SWAP1 JUMP JUMPDEST PUSH1 0x11 DUP2 MSTORE PUSH32 0x494E56414C49445F5349474E4154555245000000000000000000000000000000 PUSH1 0x20 DUP3 ADD MSTORE PUSH1 0x40 ADD SWAP1 JUMP JUMPDEST PUSH1 0xE DUP2 MSTORE PUSH32 0x524F554E44494E475F4552524F52000000000000000000000000000000000000 PUSH1 0x20 DUP3 ADD MSTORE PUSH1 0x40 ADD SWAP1 JUMP JUMPDEST PUSH1 0x10 DUP2 MSTORE PUSH32 0x4641494C45445F455845435554494F4E00000000000000000000000000000000 PUSH1 0x20 DUP3 ADD MSTORE PUSH1 0x40 ADD SWAP1 JUMP JUMPDEST PUSH1 0xD DUP2 MSTORE PUSH32 0x54414B45525F4F56455250415900000000000000000000000000000000000000 PUSH1 0x20 DUP3 ADD MSTORE PUSH1 0x40 ADD SWAP1 JUMP JUMPDEST PUSH1 0x14 DUP2 MSTORE PUSH32 0x494E56414C49445F54414B45525F414D4F554E54000000000000000000000000 PUSH1 0x20 DUP3 ADD MSTORE PUSH1 0x40 ADD SWAP1 JUMP JUMPDEST PUSH1 0x1A DUP2 MSTORE PUSH32 0x41535345545F50524F58595F444F45535F4E4F545F4558495354000000000000 PUSH1 0x20 DUP3 ADD MSTORE PUSH1 0x40 ADD SWAP1 JUMP JUMPDEST PUSH1 0x21 DUP2 MSTORE PUSH32 0x475245415445525F5448414E5F5A45524F5F4C454E4754485F52455155495245 PUSH1 0x20 DUP3 ADD MSTORE PUSH32 0x4400000000000000000000000000000000000000000000000000000000000000 PUSH1 0x40 DUP3 ADD MSTORE PUSH1 0x60 ADD SWAP1 JUMP JUMPDEST PUSH1 0x11 DUP2 MSTORE PUSH32 0x5349474E41545552455F494C4C4547414C000000000000000000000000000000 PUSH1 0x20 DUP3 ADD MSTORE PUSH1 0x40 ADD SWAP1 JUMP JUMPDEST PUSH1 0x1E DUP2 MSTORE PUSH32 0x4C454E4754485F475245415445525F5448414E5F305F52455155495245440000 PUSH1 0x20 DUP3 ADD MSTORE PUSH1 0x40 ADD SWAP1 JUMP JUMPDEST PUSH1 0x17 DUP2 MSTORE PUSH32 0x494E56414C49445F4E45575F4F524445525F45504F4348000000000000000000 PUSH1 0x20 DUP3 ADD MSTORE PUSH1 0x40 ADD SWAP1 JUMP JUMPDEST PUSH1 0x1E DUP2 MSTORE PUSH32 0x4C454E4754485F475245415445525F5448414E5F335F52455155495245440000 PUSH1 0x20 DUP3 ADD MSTORE PUSH1 0x40 ADD SWAP1 JUMP JUMPDEST PUSH1 0x14 DUP2 MSTORE PUSH32 0x434F4D504C4554455F46494C4C5F4641494C4544000000000000000000000000 PUSH1 0x20 DUP3 ADD MSTORE PUSH1 0x40 ADD SWAP1 JUMP JUMPDEST PUSH1 0x12 DUP2 MSTORE PUSH32 0x494E56414C49445F46494C4C5F50524943450000000000000000000000000000 PUSH1 0x20 DUP3 ADD MSTORE PUSH1 0x40 ADD SWAP1 JUMP JUMPDEST PUSH1 0x12 DUP2 MSTORE PUSH32 0x5245454E5452414E43595F494C4C4547414C0000000000000000000000000000 PUSH1 0x20 DUP3 ADD MSTORE PUSH1 0x40 ADD SWAP1 JUMP JUMPDEST PUSH1 0x13 DUP2 MSTORE PUSH32 0x4F4E4C595F434F4E54524143545F4F574E455200000000000000000000000000 PUSH1 0x20 DUP3 ADD MSTORE PUSH1 0x40 ADD SWAP1 JUMP JUMPDEST PUSH1 0x26 DUP2 MSTORE PUSH32 0x475245415445525F4F525F455155414C5F544F5F32305F4C454E4754485F5245 PUSH1 0x20 DUP3 ADD MSTORE PUSH32 0x5155495245440000000000000000000000000000000000000000000000000000 PUSH1 0x40 DUP3 ADD MSTORE PUSH1 0x60 ADD SWAP1 JUMP JUMPDEST PUSH1 0x10 DUP2 MSTORE PUSH32 0x4F524445525F554E46494C4C41424C4500000000000000000000000000000000 PUSH1 0x20 DUP3 ADD MSTORE PUSH1 0x40 ADD SWAP1 JUMP JUMPDEST PUSH1 0xE DUP2 MSTORE PUSH32 0x494E56414C49445F53454E444552000000000000000000000000000000000000 PUSH1 0x20 DUP3 ADD MSTORE PUSH1 0x40 ADD SWAP1 JUMP JUMPDEST PUSH1 0x18 DUP2 MSTORE PUSH32 0x4E454741544956455F5350524541445F52455155495245440000000000000000 PUSH1 0x20 DUP3 ADD MSTORE PUSH1 0x40 ADD SWAP1 JUMP JUMPDEST PUSH1 0x14 DUP2 MSTORE PUSH32 0x494E56414C49445F54585F5349474E4154555245000000000000000000000000 PUSH1 0x20 DUP3 ADD MSTORE PUSH1 0x40 ADD SWAP1 JUMP JUMPDEST PUSH1 0x11 DUP2 MSTORE PUSH32 0x4C454E4754485F305F5245515549524544000000000000000000000000000000 PUSH1 0x20 DUP3 ADD MSTORE PUSH1 0x40 ADD SWAP1 JUMP JUMPDEST DUP1 MLOAD PUSH1 0x80 DUP4 ADD SWAP1 PUSH2 0x5285 DUP5 DUP3 PUSH2 0x4B82 JUMP JUMPDEST POP PUSH1 0x20 DUP3 ADD MLOAD PUSH2 0x5298 PUSH1 0x20 DUP6 ADD DUP3 PUSH2 0x4B82 JUMP JUMPDEST POP PUSH1 0x40 DUP3 ADD MLOAD PUSH2 0x52AB PUSH1 0x40 DUP6 ADD DUP3 PUSH2 0x4B82 JUMP JUMPDEST POP PUSH1 0x60 DUP3 ADD MLOAD PUSH2 0x2758 PUSH1 0x60 DUP6 ADD DUP3 PUSH2 0x4B82 JUMP JUMPDEST DUP1 MLOAD PUSH2 0x120 DUP4 ADD SWAP1 PUSH2 0x52D0 DUP5 DUP3 PUSH2 0x5274 JUMP JUMPDEST POP PUSH1 0x20 DUP3 ADD MLOAD PUSH2 0x52E3 PUSH1 0x80 DUP6 ADD DUP3 PUSH2 0x5274 JUMP JUMPDEST POP PUSH1 0x40 DUP3 ADD MLOAD PUSH2 0x2758 PUSH2 0x100 DUP6 ADD DUP3 PUSH2 0x4B82 JUMP JUMPDEST DUP1 MLOAD PUSH1 0x60 DUP4 ADD SWAP1 PUSH2 0x5308 DUP5 DUP3 PUSH2 0x532E JUMP JUMPDEST POP PUSH1 0x20 DUP3 ADD MLOAD PUSH2 0x531B PUSH1 0x20 DUP6 ADD DUP3 PUSH2 0x4B82 JUMP JUMPDEST POP PUSH1 0x40 DUP3 ADD MLOAD PUSH2 0x2758 PUSH1 0x40 DUP6 ADD DUP3 PUSH2 0x4B82 JUMP JUMPDEST PUSH2 0x4B1C DUP2 PUSH2 0x5808 JUMP JUMPDEST PUSH1 0x20 DUP2 ADD PUSH2 0x2F23 DUP3 DUP5 PUSH2 0x4B13 JUMP JUMPDEST PUSH2 0x100 DUP2 ADD PUSH2 0x5354 DUP3 DUP12 PUSH2 0x4B13 JUMP JUMPDEST PUSH2 0x5361 PUSH1 0x20 DUP4 ADD DUP11 PUSH2 0x4B13 JUMP JUMPDEST PUSH2 0x536E PUSH1 0x40 DUP4 ADD DUP10 PUSH2 0x4B82 JUMP JUMPDEST PUSH2 0x537B PUSH1 0x60 DUP4 ADD DUP9 PUSH2 0x4B82 JUMP JUMPDEST PUSH2 0x5388 PUSH1 0x80 DUP4 ADD DUP8 PUSH2 0x4B82 JUMP JUMPDEST PUSH2 0x5395 PUSH1 0xA0 DUP4 ADD DUP7 PUSH2 0x4B82 JUMP JUMPDEST DUP2 DUP2 SUB PUSH1 0xC0 DUP4 ADD MSTORE PUSH2 0x53A7 DUP2 DUP6 PUSH2 0x4B94 JUMP JUMPDEST SWAP1 POP DUP2 DUP2 SUB PUSH1 0xE0 DUP4 ADD MSTORE PUSH2 0x53BB DUP2 DUP5 PUSH2 0x4B94 JUMP JUMPDEST SWAP11 SWAP10 POP POP POP POP POP POP POP POP POP POP JUMP JUMPDEST PUSH1 0x60 DUP2 ADD PUSH2 0x53D7 DUP3 DUP7 PUSH2 0x4B13 JUMP JUMPDEST DUP2 DUP2 SUB PUSH1 0x20 DUP4 ADD MSTORE PUSH2 0x53E9 DUP2 DUP6 PUSH2 0x4B94 JUMP JUMPDEST SWAP1 POP DUP2 DUP2 SUB PUSH1 0x40 DUP4 ADD MSTORE PUSH2 0x53FD DUP2 DUP5 PUSH2 0x4B94 JUMP JUMPDEST SWAP6 SWAP5 POP POP POP POP POP JUMP JUMPDEST PUSH1 0x20 DUP1 DUP3 MSTORE DUP2 ADD PUSH2 0x25BF DUP2 DUP5 PUSH2 0x4B22 JUMP JUMPDEST PUSH1 0x20 DUP2 ADD PUSH2 0x2F23 DUP3 DUP5 PUSH2 0x4B79 JUMP JUMPDEST PUSH1 0x20 DUP2 ADD PUSH2 0x2F23 DUP3 DUP5 PUSH2 0x4B82 JUMP JUMPDEST PUSH1 0x60 DUP2 ADD PUSH2 0x5441 DUP3 DUP7 PUSH2 0x4B82 JUMP JUMPDEST PUSH2 0x544E PUSH1 0x20 DUP4 ADD DUP6 PUSH2 0x4B13 JUMP JUMPDEST DUP2 DUP2 SUB PUSH1 0x40 DUP4 ADD MSTORE PUSH2 0x53FD DUP2 DUP5 PUSH2 0x4B94 JUMP JUMPDEST PUSH1 0x40 DUP2 ADD PUSH2 0x546E DUP3 DUP6 PUSH2 0x4B82 JUMP JUMPDEST DUP2 DUP2 SUB PUSH1 0x20 DUP4 ADD MSTORE PUSH2 0x33B0 DUP2 DUP5 PUSH2 0x4B94 JUMP JUMPDEST PUSH1 0x80 DUP2 ADD PUSH2 0x548E DUP3 DUP8 PUSH2 0x4B82 JUMP JUMPDEST PUSH2 0x549B PUSH1 0x20 DUP4 ADD DUP7 PUSH2 0x532E JUMP JUMPDEST PUSH2 0x54A8 PUSH1 0x40 DUP4 ADD DUP6 PUSH2 0x4B82 JUMP JUMPDEST PUSH2 0x53FD PUSH1 0x60 DUP4 ADD DUP5 PUSH2 0x4B82 JUMP JUMPDEST PUSH1 0x40 DUP2 ADD PUSH2 0x54C3 DUP3 DUP6 PUSH2 0x4B8B JUMP JUMPDEST PUSH2 0x25BF PUSH1 0x20 DUP4 ADD DUP5 PUSH2 0x4B13 JUMP JUMPDEST PUSH1 0x20 DUP1 DUP3 MSTORE DUP2 ADD PUSH2 0x25BF DUP2 DUP5 PUSH2 0x4B94 JUMP JUMPDEST PUSH1 0x20 DUP2 ADD PUSH2 0x2F23 DUP3 DUP5 PUSH2 0x4BC9 JUMP JUMPDEST PUSH1 0x20 DUP1 DUP3 MSTORE DUP2 ADD PUSH2 0x2F23 DUP2 PUSH2 0x4BD2 JUMP JUMPDEST PUSH1 0x20 DUP1 DUP3 MSTORE DUP2 ADD PUSH2 0x2F23 DUP2 PUSH2 0x4C02 JUMP JUMPDEST PUSH1 0x20 DUP1 DUP3 MSTORE DUP2 ADD PUSH2 0x2F23 DUP2 PUSH2 0x4C32 JUMP JUMPDEST PUSH1 0x20 DUP1 DUP3 MSTORE DUP2 ADD PUSH2 0x2F23 DUP2 PUSH2 0x4C62 JUMP JUMPDEST PUSH1 0x20 DUP1 DUP3 MSTORE DUP2 ADD PUSH2 0x2F23 DUP2 PUSH2 0x4C92 JUMP JUMPDEST PUSH1 0x20 DUP1 DUP3 MSTORE DUP2 ADD PUSH2 0x2F23 DUP2 PUSH2 0x4CC2 JUMP JUMPDEST PUSH1 0x20 DUP1 DUP3 MSTORE DUP2 ADD PUSH2 0x2F23 DUP2 PUSH2 0x4D18 JUMP JUMPDEST PUSH1 0x20 DUP1 DUP3 MSTORE DUP2 ADD PUSH2 0x2F23 DUP2 PUSH2 0x4D48 JUMP JUMPDEST PUSH1 0x20 DUP1 DUP3 MSTORE DUP2 ADD PUSH2 0x2F23 DUP2 PUSH2 0x4D78 JUMP JUMPDEST PUSH1 0x20 DUP1 DUP3 MSTORE DUP2 ADD PUSH2 0x2F23 DUP2 PUSH2 0x4DA8 JUMP JUMPDEST PUSH1 0x20 DUP1 DUP3 MSTORE DUP2 ADD PUSH2 0x2F23 DUP2 PUSH2 0x4DD8 JUMP JUMPDEST PUSH1 0x20 DUP1 DUP3 MSTORE DUP2 ADD PUSH2 0x2F23 DUP2 PUSH2 0x4E08 JUMP JUMPDEST PUSH1 0x20 DUP1 DUP3 MSTORE DUP2 ADD PUSH2 0x2F23 DUP2 PUSH2 0x4E38 JUMP JUMPDEST PUSH1 0x20 DUP1 DUP3 MSTORE DUP2 ADD PUSH2 0x2F23 DUP2 PUSH2 0x4E68 JUMP JUMPDEST PUSH1 0x20 DUP1 DUP3 MSTORE DUP2 ADD PUSH2 0x2F23 DUP2 PUSH2 0x4E98 JUMP JUMPDEST PUSH1 0x20 DUP1 DUP3 MSTORE DUP2 ADD PUSH2 0x2F23 DUP2 PUSH2 0x4EC8 JUMP JUMPDEST PUSH1 0x20 DUP1 DUP3 MSTORE DUP2 ADD PUSH2 0x2F23 DUP2 PUSH2 0x4EF8 JUMP JUMPDEST PUSH1 0x20 DUP1 DUP3 MSTORE DUP2 ADD PUSH2 0x2F23 DUP2 PUSH2 0x4F28 JUMP JUMPDEST PUSH1 0x20 DUP1 DUP3 MSTORE DUP2 ADD PUSH2 0x2F23 DUP2 PUSH2 0x4F58 JUMP JUMPDEST PUSH1 0x20 DUP1 DUP3 MSTORE DUP2 ADD PUSH2 0x2F23 DUP2 PUSH2 0x4FAE JUMP JUMPDEST PUSH1 0x20 DUP1 DUP3 MSTORE DUP2 ADD PUSH2 0x2F23 DUP2 PUSH2 0x4FDE JUMP JUMPDEST PUSH1 0x20 DUP1 DUP3 MSTORE DUP2 ADD PUSH2 0x2F23 DUP2 PUSH2 0x500E JUMP JUMPDEST PUSH1 0x20 DUP1 DUP3 MSTORE DUP2 ADD PUSH2 0x2F23 DUP2 PUSH2 0x503E JUMP JUMPDEST PUSH1 0x20 DUP1 DUP3 MSTORE DUP2 ADD PUSH2 0x2F23 DUP2 PUSH2 0x506E JUMP JUMPDEST PUSH1 0x20 DUP1 DUP3 MSTORE DUP2 ADD PUSH2 0x2F23 DUP2 PUSH2 0x509E JUMP JUMPDEST PUSH1 0x20 DUP1 DUP3 MSTORE DUP2 ADD PUSH2 0x2F23 DUP2 PUSH2 0x50CE JUMP JUMPDEST PUSH1 0x20 DUP1 DUP3 MSTORE DUP2 ADD PUSH2 0x2F23 DUP2 PUSH2 0x50FE JUMP JUMPDEST PUSH1 0x20 DUP1 DUP3 MSTORE DUP2 ADD PUSH2 0x2F23 DUP2 PUSH2 0x512E JUMP JUMPDEST PUSH1 0x20 DUP1 DUP3 MSTORE DUP2 ADD PUSH2 0x2F23 DUP2 PUSH2 0x5184 JUMP JUMPDEST PUSH1 0x20 DUP1 DUP3 MSTORE DUP2 ADD PUSH2 0x2F23 DUP2 PUSH2 0x51B4 JUMP JUMPDEST PUSH1 0x20 DUP1 DUP3 MSTORE DUP2 ADD PUSH2 0x2F23 DUP2 PUSH2 0x51E4 JUMP JUMPDEST PUSH1 0x20 DUP1 DUP3 MSTORE DUP2 ADD PUSH2 0x2F23 DUP2 PUSH2 0x5214 JUMP JUMPDEST PUSH1 0x20 DUP1 DUP3 MSTORE DUP2 ADD PUSH2 0x2F23 DUP2 PUSH2 0x5244 JUMP JUMPDEST PUSH1 0x80 DUP2 ADD PUSH2 0x2F23 DUP3 DUP5 PUSH2 0x5274 JUMP JUMPDEST PUSH2 0x120 DUP2 ADD PUSH2 0x2F23 DUP3 DUP5 PUSH2 0x52BE JUMP JUMPDEST PUSH1 0x60 DUP2 ADD PUSH2 0x2F23 DUP3 DUP5 PUSH2 0x52F7 JUMP JUMPDEST PUSH1 0x40 MLOAD DUP2 DUP2 ADD PUSH8 0xFFFFFFFFFFFFFFFF DUP2 GT DUP3 DUP3 LT OR ISZERO PUSH2 0x5749 JUMPI PUSH1 0x0 DUP1 REVERT JUMPDEST PUSH1 0x40 MSTORE SWAP2 SWAP1 POP JUMP JUMPDEST PUSH1 0x0 PUSH8 0xFFFFFFFFFFFFFFFF DUP3 GT ISZERO PUSH2 0x5768 JUMPI PUSH1 0x0 DUP1 REVERT JUMPDEST POP PUSH1 0x20 SWAP1 DUP2 MUL ADD SWAP1 JUMP JUMPDEST PUSH1 0x0 PUSH8 0xFFFFFFFFFFFFFFFF DUP3 GT ISZERO PUSH2 0x5789 JUMPI PUSH1 0x0 DUP1 REVERT JUMPDEST POP PUSH1 0x20 PUSH1 0x1F SWAP2 SWAP1 SWAP2 ADD PUSH32 0xFFFFFFFFFFFFFFFFFFFFFFFFFFFFFFFFFFFFFFFFFFFFFFFFFFFFFFFFFFFFFFE0 AND ADD SWAP1 JUMP JUMPDEST PUSH1 0x20 ADD SWAP1 JUMP JUMPDEST MLOAD SWAP1 JUMP JUMPDEST PUSH20 0xFFFFFFFFFFFFFFFFFFFFFFFFFFFFFFFFFFFFFFFF AND SWAP1 JUMP JUMPDEST ISZERO ISZERO SWAP1 JUMP JUMPDEST SWAP1 JUMP JUMPDEST PUSH32 0xFFFFFFFF00000000000000000000000000000000000000000000000000000000 AND SWAP1 JUMP JUMPDEST PUSH1 0xFF AND SWAP1 JUMP JUMPDEST PUSH1 0x0 PUSH2 0x2F23 DUP3 PUSH2 0x57C2 JUMP JUMPDEST DUP3 DUP2 DUP4 CALLDATACOPY POP PUSH1 0x0 SWAP2 ADD MSTORE JUMP JUMPDEST PUSH1 0x0 JUMPDEST DUP4 DUP2 LT ISZERO PUSH2 0x5840 JUMPI DUP2 DUP2 ADD MLOAD DUP4 DUP3 ADD MSTORE PUSH1 0x20 ADD PUSH2 0x5828 JUMP JUMPDEST DUP4 DUP2 GT ISZERO PUSH2 0x2758 JUMPI POP POP PUSH1 0x0 SWAP2 ADD MSTORE JUMP JUMPDEST PUSH1 0x1F ADD PUSH32 0xFFFFFFFFFFFFFFFFFFFFFFFFFFFFFFFFFFFFFFFFFFFFFFFFFFFFFFFFFFFFFFE0 AND SWAP1 JUMP STOP LOG2 PUSH6 0x627A7A723058 KECCAK256 0xb1 SWAP13 SWAP3 KECCAK256 LT ORIGIN PUSH1 0x33 SWAP9 0xc0 SMOD 0xdc 0xcf DUP1 SWAP4 0xc PUSH3 0x6EF89F 0xa6 0xc8 0x48 0xc8 0xb7 0xef MSTORE PUSH8 0xD07CD4ED6C657870 PUSH6 0x72696D656E74 PUSH2 0x6CF5 STOP CALLDATACOPY "
			}
		}
	},
	"sourceTreeHashHex": "0xd4b411ae8c566bfc879b9880fcf5306a0b0b7051368f0c84ad27da6b5a6f0637",
	"compiler": {
		"name": "solc",
		"version": "soljson-v0.4.24+commit.e67f0147.js",
		"settings": {
			"optimizer": {
				"enabled": true,
				"runs": 1000000
			},
			"outputSelection": {
				"*": {
					"*": [
						"abi",
						"evm.bytecode.object",
						"evm.bytecode.sourceMap",
						"evm.deployedBytecode.object",
						"evm.deployedBytecode.sourceMap"
					]
				}
			}
		}
	}
}