{
	"schemaVersion": "2.0.0",
	"contractName": "Exchange",
	"compilerOutput": {
		"abi": [
			{
				"constant": true,
				"inputs": [
					{
						"name": "",
						"type": "bytes32"
					}
				],
				"name": "filled",
				"outputs": [
					{
						"name": "",
						"type": "uint256"
					}
				],
				"payable": false,
				"stateMutability": "view",
				"type": "function"
			},
			{
				"constant": false,
				"inputs": [
					{
						"components": [
							{
								"name": "makerAddress",
								"type": "address"
							},
							{
								"name": "takerAddress",
								"type": "address"
							},
							{
								"name": "feeRecipientAddress",
								"type": "address"
							},
							{
								"name": "senderAddress",
								"type": "address"
							},
							{
								"name": "makerAssetAmount",
								"type": "uint256"
							},
							{
								"name": "takerAssetAmount",
								"type": "uint256"
							},
							{
								"name": "makerFee",
								"type": "uint256"
							},
							{
								"name": "takerFee",
								"type": "uint256"
							},
							{
								"name": "expirationTimeSeconds",
								"type": "uint256"
							},
							{
								"name": "salt",
								"type": "uint256"
							},
							{
								"name": "makerAssetData",
								"type": "bytes"
							},
							{
								"name": "takerAssetData",
								"type": "bytes"
							}
						],
						"name": "orders",
						"type": "tuple[]"
					},
					{
						"name": "takerAssetFillAmounts",
						"type": "uint256[]"
					},
					{
						"name": "signatures",
						"type": "bytes[]"
					}
				],
				"name": "batchFillOrders",
				"outputs": [],
				"payable": false,
				"stateMutability": "nonpayable",
				"type": "function"
			},
			{
				"constant": true,
				"inputs": [
					{
						"name": "",
						"type": "bytes32"
					}
				],
				"name": "cancelled",
				"outputs": [
					{
						"name": "",
						"type": "bool"
					}
				],
				"payable": false,
				"stateMutability": "view",
				"type": "function"
			},
			{
				"constant": false,
				"inputs": [
					{
						"name": "hash",
						"type": "bytes32"
					},
					{
						"name": "signer",
						"type": "address"
					},
					{
						"name": "signature",
						"type": "bytes"
					}
				],
				"name": "preSign",
				"outputs": [],
				"payable": false,
				"stateMutability": "nonpayable",
				"type": "function"
			},
			{
				"constant": true,
				"inputs": [
					{
						"name": "",
						"type": "uint8"
					}
				],
				"name": "assetProxies",
				"outputs": [
					{
						"name": "",
						"type": "address"
					}
				],
				"payable": false,
				"stateMutability": "view",
				"type": "function"
			},
			{
				"constant": false,
				"inputs": [
					{
						"components": [
							{
								"name": "makerAddress",
								"type": "address"
							},
							{
								"name": "takerAddress",
								"type": "address"
							},
							{
								"name": "feeRecipientAddress",
								"type": "address"
							},
							{
								"name": "senderAddress",
								"type": "address"
							},
							{
								"name": "makerAssetAmount",
								"type": "uint256"
							},
							{
								"name": "takerAssetAmount",
								"type": "uint256"
							},
							{
								"name": "makerFee",
								"type": "uint256"
							},
							{
								"name": "takerFee",
								"type": "uint256"
							},
							{
								"name": "expirationTimeSeconds",
								"type": "uint256"
							},
							{
								"name": "salt",
								"type": "uint256"
							},
							{
								"name": "makerAssetData",
								"type": "bytes"
							},
							{
								"name": "takerAssetData",
								"type": "bytes"
							}
						],
						"name": "leftOrder",
						"type": "tuple"
					},
					{
						"components": [
							{
								"name": "makerAddress",
								"type": "address"
							},
							{
								"name": "takerAddress",
								"type": "address"
							},
							{
								"name": "feeRecipientAddress",
								"type": "address"
							},
							{
								"name": "senderAddress",
								"type": "address"
							},
							{
								"name": "makerAssetAmount",
								"type": "uint256"
							},
							{
								"name": "takerAssetAmount",
								"type": "uint256"
							},
							{
								"name": "makerFee",
								"type": "uint256"
							},
							{
								"name": "takerFee",
								"type": "uint256"
							},
							{
								"name": "expirationTimeSeconds",
								"type": "uint256"
							},
							{
								"name": "salt",
								"type": "uint256"
							},
							{
								"name": "makerAssetData",
								"type": "bytes"
							},
							{
								"name": "takerAssetData",
								"type": "bytes"
							}
						],
						"name": "rightOrder",
						"type": "tuple"
					},
					{
						"name": "leftSignature",
						"type": "bytes"
					},
					{
						"name": "rightSignature",
						"type": "bytes"
					}
				],
				"name": "matchOrders",
				"outputs": [
					{
						"components": [
							{
								"components": [
									{
										"name": "makerAssetFilledAmount",
										"type": "uint256"
									},
									{
										"name": "takerAssetFilledAmount",
										"type": "uint256"
									},
									{
										"name": "makerFeePaid",
										"type": "uint256"
									},
									{
										"name": "takerFeePaid",
										"type": "uint256"
									}
								],
								"name": "left",
								"type": "tuple"
							},
							{
								"components": [
									{
										"name": "makerAssetFilledAmount",
										"type": "uint256"
									},
									{
										"name": "takerAssetFilledAmount",
										"type": "uint256"
									},
									{
										"name": "makerFeePaid",
										"type": "uint256"
									},
									{
										"name": "takerFeePaid",
										"type": "uint256"
									}
								],
								"name": "right",
								"type": "tuple"
							},
							{
								"name": "takerFillAmount",
								"type": "uint256"
							}
						],
						"name": "matchedFillResults",
						"type": "tuple"
					}
				],
				"payable": false,
				"stateMutability": "nonpayable",
				"type": "function"
			},
			{
				"constant": false,
				"inputs": [
					{
						"components": [
							{
								"name": "makerAddress",
								"type": "address"
							},
							{
								"name": "takerAddress",
								"type": "address"
							},
							{
								"name": "feeRecipientAddress",
								"type": "address"
							},
							{
								"name": "senderAddress",
								"type": "address"
							},
							{
								"name": "makerAssetAmount",
								"type": "uint256"
							},
							{
								"name": "takerAssetAmount",
								"type": "uint256"
							},
							{
								"name": "makerFee",
								"type": "uint256"
							},
							{
								"name": "takerFee",
								"type": "uint256"
							},
							{
								"name": "expirationTimeSeconds",
								"type": "uint256"
							},
							{
								"name": "salt",
								"type": "uint256"
							},
							{
								"name": "makerAssetData",
								"type": "bytes"
							},
							{
								"name": "takerAssetData",
								"type": "bytes"
							}
						],
						"name": "order",
						"type": "tuple"
					},
					{
						"name": "takerAssetFillAmount",
						"type": "uint256"
					},
					{
						"name": "signature",
						"type": "bytes"
					}
				],
				"name": "fillOrderNoThrow",
				"outputs": [
					{
						"components": [
							{
								"name": "makerAssetFilledAmount",
								"type": "uint256"
							},
							{
								"name": "takerAssetFilledAmount",
								"type": "uint256"
							},
							{
								"name": "makerFeePaid",
								"type": "uint256"
							},
							{
								"name": "takerFeePaid",
								"type": "uint256"
							}
						],
						"name": "fillResults",
						"type": "tuple"
					}
				],
				"payable": false,
				"stateMutability": "nonpayable",
				"type": "function"
			},
			{
				"constant": false,
				"inputs": [
					{
						"components": [
							{
								"name": "makerAddress",
								"type": "address"
							},
							{
								"name": "takerAddress",
								"type": "address"
							},
							{
								"name": "feeRecipientAddress",
								"type": "address"
							},
							{
								"name": "senderAddress",
								"type": "address"
							},
							{
								"name": "makerAssetAmount",
								"type": "uint256"
							},
							{
								"name": "takerAssetAmount",
								"type": "uint256"
							},
							{
								"name": "makerFee",
								"type": "uint256"
							},
							{
								"name": "takerFee",
								"type": "uint256"
							},
							{
								"name": "expirationTimeSeconds",
								"type": "uint256"
							},
							{
								"name": "salt",
								"type": "uint256"
							},
							{
								"name": "makerAssetData",
								"type": "bytes"
							},
							{
								"name": "takerAssetData",
								"type": "bytes"
							}
						],
						"name": "orders",
						"type": "tuple[]"
					}
				],
				"name": "batchCancelOrders",
				"outputs": [],
				"payable": false,
				"stateMutability": "nonpayable",
				"type": "function"
			},
			{
				"constant": false,
				"inputs": [
					{
						"components": [
							{
								"name": "makerAddress",
								"type": "address"
							},
							{
								"name": "takerAddress",
								"type": "address"
							},
							{
								"name": "feeRecipientAddress",
								"type": "address"
							},
							{
								"name": "senderAddress",
								"type": "address"
							},
							{
								"name": "makerAssetAmount",
								"type": "uint256"
							},
							{
								"name": "takerAssetAmount",
								"type": "uint256"
							},
							{
								"name": "makerFee",
								"type": "uint256"
							},
							{
								"name": "takerFee",
								"type": "uint256"
							},
							{
								"name": "expirationTimeSeconds",
								"type": "uint256"
							},
							{
								"name": "salt",
								"type": "uint256"
							},
							{
								"name": "makerAssetData",
								"type": "bytes"
							},
							{
								"name": "takerAssetData",
								"type": "bytes"
							}
						],
						"name": "orders",
						"type": "tuple[]"
					},
					{
						"name": "takerAssetFillAmounts",
						"type": "uint256[]"
					},
					{
						"name": "signatures",
						"type": "bytes[]"
					}
				],
				"name": "batchFillOrKillOrders",
				"outputs": [],
				"payable": false,
				"stateMutability": "nonpayable",
				"type": "function"
			},
			{
				"constant": false,
				"inputs": [
					{
						"name": "salt",
						"type": "uint256"
					}
				],
				"name": "cancelOrdersUpTo",
				"outputs": [],
				"payable": false,
				"stateMutability": "nonpayable",
				"type": "function"
			},
			{
				"constant": false,
				"inputs": [
					{
						"components": [
							{
								"name": "makerAddress",
								"type": "address"
							},
							{
								"name": "takerAddress",
								"type": "address"
							},
							{
								"name": "feeRecipientAddress",
								"type": "address"
							},
							{
								"name": "senderAddress",
								"type": "address"
							},
							{
								"name": "makerAssetAmount",
								"type": "uint256"
							},
							{
								"name": "takerAssetAmount",
								"type": "uint256"
							},
							{
								"name": "makerFee",
								"type": "uint256"
							},
							{
								"name": "takerFee",
								"type": "uint256"
							},
							{
								"name": "expirationTimeSeconds",
								"type": "uint256"
							},
							{
								"name": "salt",
								"type": "uint256"
							},
							{
								"name": "makerAssetData",
								"type": "bytes"
							},
							{
								"name": "takerAssetData",
								"type": "bytes"
							}
						],
						"name": "orders",
						"type": "tuple[]"
					},
					{
						"name": "takerAssetFillAmounts",
						"type": "uint256[]"
					},
					{
						"name": "signatures",
						"type": "bytes[]"
					}
				],
				"name": "batchFillOrdersNoThrow",
				"outputs": [],
				"payable": false,
				"stateMutability": "nonpayable",
				"type": "function"
			},
			{
				"constant": false,
				"inputs": [
					{
						"name": "assetProxyId",
						"type": "uint8"
					},
					{
						"name": "newAssetProxy",
						"type": "address"
					},
					{
						"name": "oldAssetProxy",
						"type": "address"
					}
				],
				"name": "registerAssetProxy",
				"outputs": [],
				"payable": false,
				"stateMutability": "nonpayable",
				"type": "function"
			},
			{
				"constant": true,
				"inputs": [],
				"name": "zrxProxyData",
				"outputs": [
					{
						"name": "",
						"type": "bytes"
					}
				],
				"payable": false,
				"stateMutability": "view",
				"type": "function"
			},
			{
				"constant": true,
				"inputs": [
					{
						"name": "",
						"type": "bytes32"
					}
				],
				"name": "transactions",
				"outputs": [
					{
						"name": "",
						"type": "bool"
					}
				],
				"payable": false,
				"stateMutability": "view",
				"type": "function"
			},
			{
				"constant": false,
				"inputs": [
					{
						"components": [
							{
								"name": "makerAddress",
								"type": "address"
							},
							{
								"name": "takerAddress",
								"type": "address"
							},
							{
								"name": "feeRecipientAddress",
								"type": "address"
							},
							{
								"name": "senderAddress",
								"type": "address"
							},
							{
								"name": "makerAssetAmount",
								"type": "uint256"
							},
							{
								"name": "takerAssetAmount",
								"type": "uint256"
							},
							{
								"name": "makerFee",
								"type": "uint256"
							},
							{
								"name": "takerFee",
								"type": "uint256"
							},
							{
								"name": "expirationTimeSeconds",
								"type": "uint256"
							},
							{
								"name": "salt",
								"type": "uint256"
							},
							{
								"name": "makerAssetData",
								"type": "bytes"
							},
							{
								"name": "takerAssetData",
								"type": "bytes"
							}
						],
						"name": "order",
						"type": "tuple"
					},
					{
						"name": "takerAssetFillAmount",
						"type": "uint256"
					},
					{
						"name": "signature",
						"type": "bytes"
					}
				],
				"name": "fillOrKillOrder",
				"outputs": [
					{
						"components": [
							{
								"name": "makerAssetFilledAmount",
								"type": "uint256"
							},
							{
								"name": "takerAssetFilledAmount",
								"type": "uint256"
							},
							{
								"name": "makerFeePaid",
								"type": "uint256"
							},
							{
								"name": "takerFeePaid",
								"type": "uint256"
							}
						],
						"name": "fillResults",
						"type": "tuple"
					}
				],
				"payable": false,
				"stateMutability": "nonpayable",
				"type": "function"
			},
			{
				"constant": true,
				"inputs": [
					{
						"name": "",
						"type": "address"
					}
				],
				"name": "makerEpoch",
				"outputs": [
					{
						"name": "",
						"type": "uint256"
					}
				],
				"payable": false,
				"stateMutability": "view",
				"type": "function"
			},
			{
				"constant": true,
				"inputs": [
					{
						"components": [
							{
								"name": "makerAddress",
								"type": "address"
							},
							{
								"name": "takerAddress",
								"type": "address"
							},
							{
								"name": "feeRecipientAddress",
								"type": "address"
							},
							{
								"name": "senderAddress",
								"type": "address"
							},
							{
								"name": "makerAssetAmount",
								"type": "uint256"
							},
							{
								"name": "takerAssetAmount",
								"type": "uint256"
							},
							{
								"name": "makerFee",
								"type": "uint256"
							},
							{
								"name": "takerFee",
								"type": "uint256"
							},
							{
								"name": "expirationTimeSeconds",
								"type": "uint256"
							},
							{
								"name": "salt",
								"type": "uint256"
							},
							{
								"name": "makerAssetData",
								"type": "bytes"
							},
							{
								"name": "takerAssetData",
								"type": "bytes"
							}
						],
						"name": "order",
						"type": "tuple"
					},
					{
						"name": "orderStatus",
						"type": "uint8"
					},
					{
						"name": "orderTakerAssetFilledAmount",
						"type": "uint256"
					},
					{
						"name": "takerAssetFillAmount",
						"type": "uint256"
					}
				],
				"name": "calculateFillResults",
				"outputs": [
					{
						"name": "status",
						"type": "uint8"
					},
					{
						"components": [
							{
								"name": "makerAssetFilledAmount",
								"type": "uint256"
							},
							{
								"name": "takerAssetFilledAmount",
								"type": "uint256"
							},
							{
								"name": "makerFeePaid",
								"type": "uint256"
							},
							{
								"name": "takerFeePaid",
								"type": "uint256"
							}
						],
						"name": "fillResults",
						"type": "tuple"
					}
				],
				"payable": false,
				"stateMutability": "pure",
				"type": "function"
			},
			{
				"constant": false,
				"inputs": [
					{
						"name": "validator",
						"type": "address"
					},
					{
						"name": "approval",
						"type": "bool"
					}
				],
				"name": "setSignatureValidatorApproval",
				"outputs": [],
				"payable": false,
				"stateMutability": "nonpayable",
				"type": "function"
			},
			{
				"constant": true,
				"inputs": [
					{
						"name": "",
						"type": "address"
					},
					{
						"name": "",
						"type": "address"
					}
				],
				"name": "allowedValidators",
				"outputs": [
					{
						"name": "",
						"type": "bool"
					}
				],
				"payable": false,
				"stateMutability": "view",
				"type": "function"
			},
			{
				"constant": false,
				"inputs": [
					{
						"components": [
							{
								"name": "makerAddress",
								"type": "address"
							},
							{
								"name": "takerAddress",
								"type": "address"
							},
							{
								"name": "feeRecipientAddress",
								"type": "address"
							},
							{
								"name": "senderAddress",
								"type": "address"
							},
							{
								"name": "makerAssetAmount",
								"type": "uint256"
							},
							{
								"name": "takerAssetAmount",
								"type": "uint256"
							},
							{
								"name": "makerFee",
								"type": "uint256"
							},
							{
								"name": "takerFee",
								"type": "uint256"
							},
							{
								"name": "expirationTimeSeconds",
								"type": "uint256"
							},
							{
								"name": "salt",
								"type": "uint256"
							},
							{
								"name": "makerAssetData",
								"type": "bytes"
							},
							{
								"name": "takerAssetData",
								"type": "bytes"
							}
						],
						"name": "orders",
						"type": "tuple[]"
					},
					{
						"name": "takerAssetFillAmount",
						"type": "uint256"
					},
					{
						"name": "signatures",
						"type": "bytes[]"
					}
				],
				"name": "marketSellOrders",
				"outputs": [
					{
						"components": [
							{
								"name": "makerAssetFilledAmount",
								"type": "uint256"
							},
							{
								"name": "takerAssetFilledAmount",
								"type": "uint256"
							},
							{
								"name": "makerFeePaid",
								"type": "uint256"
							},
							{
								"name": "takerFeePaid",
								"type": "uint256"
							}
						],
						"name": "totalFillResults",
						"type": "tuple"
					}
				],
				"payable": false,
				"stateMutability": "nonpayable",
				"type": "function"
			},
			{
				"constant": true,
				"inputs": [
					{
						"name": "",
						"type": "bytes32"
					},
					{
						"name": "",
						"type": "address"
					}
				],
				"name": "preSigned",
				"outputs": [
					{
						"name": "",
						"type": "bool"
					}
				],
				"payable": false,
				"stateMutability": "view",
				"type": "function"
			},
			{
				"constant": true,
				"inputs": [],
				"name": "owner",
				"outputs": [
					{
						"name": "",
						"type": "address"
					}
				],
				"payable": false,
				"stateMutability": "view",
				"type": "function"
			},
			{
				"constant": true,
				"inputs": [
					{
						"name": "assetProxyId",
						"type": "uint8"
					}
				],
				"name": "getAssetProxy",
				"outputs": [
					{
						"name": "",
						"type": "address"
					}
				],
				"payable": false,
				"stateMutability": "view",
				"type": "function"
			},
			{
				"constant": false,
				"inputs": [
					{
						"components": [
							{
								"name": "makerAddress",
								"type": "address"
							},
							{
								"name": "takerAddress",
								"type": "address"
							},
							{
								"name": "feeRecipientAddress",
								"type": "address"
							},
							{
								"name": "senderAddress",
								"type": "address"
							},
							{
								"name": "makerAssetAmount",
								"type": "uint256"
							},
							{
								"name": "takerAssetAmount",
								"type": "uint256"
							},
							{
								"name": "makerFee",
								"type": "uint256"
							},
							{
								"name": "takerFee",
								"type": "uint256"
							},
							{
								"name": "expirationTimeSeconds",
								"type": "uint256"
							},
							{
								"name": "salt",
								"type": "uint256"
							},
							{
								"name": "makerAssetData",
								"type": "bytes"
							},
							{
								"name": "takerAssetData",
								"type": "bytes"
							}
						],
						"name": "orders",
						"type": "tuple[]"
					},
					{
						"name": "makerAssetFillAmount",
						"type": "uint256"
					},
					{
						"name": "signatures",
						"type": "bytes[]"
					}
				],
				"name": "marketBuyOrdersNoThrow",
				"outputs": [
					{
						"components": [
							{
								"name": "makerAssetFilledAmount",
								"type": "uint256"
							},
							{
								"name": "takerAssetFilledAmount",
								"type": "uint256"
							},
							{
								"name": "makerFeePaid",
								"type": "uint256"
							},
							{
								"name": "takerFeePaid",
								"type": "uint256"
							}
						],
						"name": "totalFillResults",
						"type": "tuple"
					}
				],
				"payable": false,
				"stateMutability": "nonpayable",
				"type": "function"
			},
			{
				"constant": false,
				"inputs": [
					{
						"components": [
							{
								"name": "makerAddress",
								"type": "address"
							},
							{
								"name": "takerAddress",
								"type": "address"
							},
							{
								"name": "feeRecipientAddress",
								"type": "address"
							},
							{
								"name": "senderAddress",
								"type": "address"
							},
							{
								"name": "makerAssetAmount",
								"type": "uint256"
							},
							{
								"name": "takerAssetAmount",
								"type": "uint256"
							},
							{
								"name": "makerFee",
								"type": "uint256"
							},
							{
								"name": "takerFee",
								"type": "uint256"
							},
							{
								"name": "expirationTimeSeconds",
								"type": "uint256"
							},
							{
								"name": "salt",
								"type": "uint256"
							},
							{
								"name": "makerAssetData",
								"type": "bytes"
							},
							{
								"name": "takerAssetData",
								"type": "bytes"
							}
						],
						"name": "order",
						"type": "tuple"
					},
					{
						"name": "takerAssetFillAmount",
						"type": "uint256"
					},
					{
						"name": "signature",
						"type": "bytes"
					}
				],
				"name": "fillOrder",
				"outputs": [
					{
						"components": [
							{
								"name": "makerAssetFilledAmount",
								"type": "uint256"
							},
							{
								"name": "takerAssetFilledAmount",
								"type": "uint256"
							},
							{
								"name": "makerFeePaid",
								"type": "uint256"
							},
							{
								"name": "takerFeePaid",
								"type": "uint256"
							}
						],
						"name": "fillResults",
						"type": "tuple"
					}
				],
				"payable": false,
				"stateMutability": "nonpayable",
				"type": "function"
			},
			{
				"constant": false,
				"inputs": [
					{
						"name": "salt",
						"type": "uint256"
					},
					{
						"name": "signer",
						"type": "address"
					},
					{
						"name": "data",
						"type": "bytes"
					},
					{
						"name": "signature",
						"type": "bytes"
					}
				],
				"name": "executeTransaction",
				"outputs": [],
				"payable": false,
				"stateMutability": "nonpayable",
				"type": "function"
			},
			{
				"constant": true,
				"inputs": [
					{
						"components": [
							{
								"name": "makerAddress",
								"type": "address"
							},
							{
								"name": "takerAddress",
								"type": "address"
							},
							{
								"name": "feeRecipientAddress",
								"type": "address"
							},
							{
								"name": "senderAddress",
								"type": "address"
							},
							{
								"name": "makerAssetAmount",
								"type": "uint256"
							},
							{
								"name": "takerAssetAmount",
								"type": "uint256"
							},
							{
								"name": "makerFee",
								"type": "uint256"
							},
							{
								"name": "takerFee",
								"type": "uint256"
							},
							{
								"name": "expirationTimeSeconds",
								"type": "uint256"
							},
							{
								"name": "salt",
								"type": "uint256"
							},
							{
								"name": "makerAssetData",
								"type": "bytes"
							},
							{
								"name": "takerAssetData",
								"type": "bytes"
							}
						],
						"name": "order",
						"type": "tuple"
					}
				],
				"name": "getOrderInfo",
				"outputs": [
					{
						"components": [
							{
								"name": "orderStatus",
								"type": "uint8"
							},
							{
								"name": "orderHash",
								"type": "bytes32"
							},
							{
								"name": "orderTakerAssetFilledAmount",
								"type": "uint256"
							}
						],
						"name": "orderInfo",
						"type": "tuple"
					}
				],
				"payable": false,
				"stateMutability": "view",
				"type": "function"
			},
			{
				"constant": false,
				"inputs": [
					{
						"components": [
							{
								"name": "makerAddress",
								"type": "address"
							},
							{
								"name": "takerAddress",
								"type": "address"
							},
							{
								"name": "feeRecipientAddress",
								"type": "address"
							},
							{
								"name": "senderAddress",
								"type": "address"
							},
							{
								"name": "makerAssetAmount",
								"type": "uint256"
							},
							{
								"name": "takerAssetAmount",
								"type": "uint256"
							},
							{
								"name": "makerFee",
								"type": "uint256"
							},
							{
								"name": "takerFee",
								"type": "uint256"
							},
							{
								"name": "expirationTimeSeconds",
								"type": "uint256"
							},
							{
								"name": "salt",
								"type": "uint256"
							},
							{
								"name": "makerAssetData",
								"type": "bytes"
							},
							{
								"name": "takerAssetData",
								"type": "bytes"
							}
						],
						"name": "order",
						"type": "tuple"
					}
				],
				"name": "cancelOrder",
				"outputs": [
					{
						"name": "",
						"type": "bool"
					}
				],
				"payable": false,
				"stateMutability": "nonpayable",
				"type": "function"
			},
			{
				"constant": false,
				"inputs": [
					{
						"components": [
							{
								"name": "makerAddress",
								"type": "address"
							},
							{
								"name": "takerAddress",
								"type": "address"
							},
							{
								"name": "feeRecipientAddress",
								"type": "address"
							},
							{
								"name": "senderAddress",
								"type": "address"
							},
							{
								"name": "makerAssetAmount",
								"type": "uint256"
							},
							{
								"name": "takerAssetAmount",
								"type": "uint256"
							},
							{
								"name": "makerFee",
								"type": "uint256"
							},
							{
								"name": "takerFee",
								"type": "uint256"
							},
							{
								"name": "expirationTimeSeconds",
								"type": "uint256"
							},
							{
								"name": "salt",
								"type": "uint256"
							},
							{
								"name": "makerAssetData",
								"type": "bytes"
							},
							{
								"name": "takerAssetData",
								"type": "bytes"
							}
						],
						"name": "orders",
						"type": "tuple[]"
					},
					{
						"name": "takerAssetFillAmount",
						"type": "uint256"
					},
					{
						"name": "signatures",
						"type": "bytes[]"
					}
				],
				"name": "marketSellOrdersNoThrow",
				"outputs": [
					{
						"components": [
							{
								"name": "makerAssetFilledAmount",
								"type": "uint256"
							},
							{
								"name": "takerAssetFilledAmount",
								"type": "uint256"
							},
							{
								"name": "makerFeePaid",
								"type": "uint256"
							},
							{
								"name": "takerFeePaid",
								"type": "uint256"
							}
						],
						"name": "totalFillResults",
						"type": "tuple"
					}
				],
				"payable": false,
				"stateMutability": "nonpayable",
				"type": "function"
			},
			{
				"constant": false,
				"inputs": [
					{
						"components": [
							{
								"name": "makerAddress",
								"type": "address"
							},
							{
								"name": "takerAddress",
								"type": "address"
							},
							{
								"name": "feeRecipientAddress",
								"type": "address"
							},
							{
								"name": "senderAddress",
								"type": "address"
							},
							{
								"name": "makerAssetAmount",
								"type": "uint256"
							},
							{
								"name": "takerAssetAmount",
								"type": "uint256"
							},
							{
								"name": "makerFee",
								"type": "uint256"
							},
							{
								"name": "takerFee",
								"type": "uint256"
							},
							{
								"name": "expirationTimeSeconds",
								"type": "uint256"
							},
							{
								"name": "salt",
								"type": "uint256"
							},
							{
								"name": "makerAssetData",
								"type": "bytes"
							},
							{
								"name": "takerAssetData",
								"type": "bytes"
							}
						],
						"name": "orders",
						"type": "tuple[]"
					},
					{
						"name": "makerAssetFillAmount",
						"type": "uint256"
					},
					{
						"name": "signatures",
						"type": "bytes[]"
					}
				],
				"name": "marketBuyOrders",
				"outputs": [
					{
						"components": [
							{
								"name": "makerAssetFilledAmount",
								"type": "uint256"
							},
							{
								"name": "takerAssetFilledAmount",
								"type": "uint256"
							},
							{
								"name": "makerFeePaid",
								"type": "uint256"
							},
							{
								"name": "takerFeePaid",
								"type": "uint256"
							}
						],
						"name": "totalFillResults",
						"type": "tuple"
					}
				],
				"payable": false,
				"stateMutability": "nonpayable",
				"type": "function"
			},
			{
				"constant": true,
				"inputs": [],
				"name": "currentContextAddress",
				"outputs": [
					{
						"name": "",
						"type": "address"
					}
				],
				"payable": false,
				"stateMutability": "view",
				"type": "function"
			},
			{
				"constant": false,
				"inputs": [
					{
						"name": "newOwner",
						"type": "address"
					}
				],
				"name": "transferOwnership",
				"outputs": [],
				"payable": false,
				"stateMutability": "nonpayable",
				"type": "function"
			},
			{
				"constant": true,
				"inputs": [],
				"name": "VERSION",
				"outputs": [
					{
						"name": "",
						"type": "string"
					}
				],
				"payable": false,
				"stateMutability": "view",
				"type": "function"
			},
			{
				"inputs": [
					{
						"name": "_zrxProxyData",
						"type": "bytes"
					}
				],
				"payable": false,
				"stateMutability": "nonpayable",
				"type": "constructor"
			},
			{
				"anonymous": false,
				"inputs": [
					{
						"indexed": false,
						"name": "id",
						"type": "uint8"
					},
					{
						"indexed": false,
						"name": "newAssetProxy",
						"type": "address"
					},
					{
						"indexed": false,
						"name": "oldAssetProxy",
						"type": "address"
					}
				],
				"name": "AssetProxySet",
				"type": "event"
			},
			{
				"anonymous": false,
				"inputs": [
					{
						"indexed": true,
						"name": "makerAddress",
						"type": "address"
					},
					{
						"indexed": false,
						"name": "takerAddress",
						"type": "address"
					},
					{
						"indexed": true,
						"name": "feeRecipientAddress",
						"type": "address"
					},
					{
						"indexed": false,
						"name": "makerAssetFilledAmount",
						"type": "uint256"
					},
					{
						"indexed": false,
						"name": "takerAssetFilledAmount",
						"type": "uint256"
					},
					{
						"indexed": false,
						"name": "makerFeePaid",
						"type": "uint256"
					},
					{
						"indexed": false,
						"name": "takerFeePaid",
						"type": "uint256"
					},
					{
						"indexed": true,
						"name": "orderHash",
						"type": "bytes32"
					},
					{
						"indexed": false,
						"name": "makerAssetData",
						"type": "bytes"
					},
					{
						"indexed": false,
						"name": "takerAssetData",
						"type": "bytes"
					}
				],
				"name": "Fill",
				"type": "event"
			},
			{
				"anonymous": false,
				"inputs": [
					{
						"indexed": true,
						"name": "makerAddress",
						"type": "address"
					},
					{
						"indexed": true,
						"name": "feeRecipientAddress",
						"type": "address"
					},
					{
						"indexed": true,
						"name": "orderHash",
						"type": "bytes32"
					},
					{
						"indexed": false,
						"name": "makerAssetData",
						"type": "bytes"
					},
					{
						"indexed": false,
						"name": "takerAssetData",
						"type": "bytes"
					}
				],
				"name": "Cancel",
				"type": "event"
			},
			{
				"anonymous": false,
				"inputs": [
					{
						"indexed": true,
						"name": "makerAddress",
						"type": "address"
					},
					{
						"indexed": false,
						"name": "makerEpoch",
						"type": "uint256"
					}
				],
				"name": "CancelUpTo",
				"type": "event"
			},
			{
				"anonymous": false,
				"inputs": [
					{
						"indexed": true,
						"name": "statusId",
						"type": "uint8"
					},
					{
						"indexed": true,
						"name": "orderHash",
						"type": "bytes32"
					}
				],
				"name": "ExchangeStatus",
				"type": "event"
			}
		],
		"evm": {
			"bytecode": {
				"linkReferences": {},
				"object": "0x60806040523480156200001157600080fd5b5060405162004cd938038062004cd983398101806040526200003791908101906200016a565b60038054600160a060020a03191633179055805181906200006090600490602084019062000069565b5050506200022c565b828054600181600116156101000203166002900490600052602060002090601f016020900481019282601f10620000ac57805160ff1916838001178555620000dc565b82800160010185558215620000dc579182015b82811115620000dc578251825591602001919060010190620000bf565b50620000ea929150620000ee565b5090565b6200010b91905b80821115620000ea5760008155600101620000f5565b90565b6000601f820183136200012057600080fd5b8151620001376200013182620001d1565b620001aa565b915080825260208301602083018583830111156200015457600080fd5b62000161838284620001f9565b50505092915050565b6000602082840312156200017d57600080fd5b81516001604060020a038111156200019457600080fd5b620001a2848285016200010e565b949350505050565b6040518181016001604060020a0381118282101715620001c957600080fd5b604052919050565b60006001604060020a03821115620001e857600080fd5b506020601f91909101601f19160190565b60005b8381101562000216578181015183820152602001620001fc565b8381111562000226576000848401525b50505050565b614a9d806200023c6000396000f3006080604052600436106101875763ffffffff60e060020a600035041663288cdc91811461018c578063297bb70b146101c25780632ac12622146101e45780633683ef8e1461021157806338077164146102315780633c28d8611461025e5780633e228bae1461028b5780634ac14782146102b85780634d0ae546146102d85780634f9559b1146102f857806350dde190146103185780635c78d0c7146103385780636358990514610358578063642f2eaf1461037a57806364a3bc151461039a5780636f3627f8146103ba578063704ed01c146103da57806377fcce68146104085780637b8e3514146104285780637e1d98081461044857806382c174d0146104685780638da5cb5b1461048857806392c1421e146104aa578063a3e20380146104ca578063b4be83d5146104ea578063bfc8bfce1461050a578063c75e0a811461052a578063d46b02c314610557578063dd1c7d1814610577578063e5fa431b14610597578063eea086ba146105b7578063f2fde38b146105cc578063ffa1ad74146105ec575b600080fd5b34801561019857600080fd5b506101ac6101a73660046140dc565b610601565b6040516101b9919061479a565b60405180910390f35b3480156101ce57600080fd5b506101e26101dd366004613fe5565b610613565b005b3480156101f057600080fd5b506102046101ff3660046140dc565b61067e565b6040516101b99190614655565b34801561021d57600080fd5b506101e261022c366004614119565b610693565b34801561023d57600080fd5b5061025161024c3660046143e2565b61074f565b6040516101b99190614751565b34801561026a57600080fd5b5061027e6102793660046141b4565b61076a565b6040516101b9919061477d565b34801561029757600080fd5b506102ab6102a6366004614270565b61085d565b6040516101b9919061476f565b3480156102c457600080fd5b506101e26102d3366004613fb1565b610a52565b3480156102e457600080fd5b506101e26102f3366004613fe5565b610a8b565b34801561030457600080fd5b506101e26103133660046140dc565b610af0565b34801561032457600080fd5b506101e2610333366004613fe5565b610be6565b34801561034457600080fd5b506101e261035336600461441e565b610c4b565b34801561036457600080fd5b5061036d610e91565b6040516101b991906146ee565b34801561038657600080fd5b506102046103953660046140dc565b610f27565b3480156103a657600080fd5b506102ab6103b5366004614270565b610f3c565b3480156103c657600080fd5b506101ac6103d5366004613f29565b610fda565b3480156103e657600080fd5b506103fa6103f53660046142e0565b610fec565b6040516101b99291906147d0565b34801561041457600080fd5b506101e2610423366004613f81565b6110c4565b34801561043457600080fd5b50610204610443366004613f47565b611109565b34801561045457600080fd5b506102ab610463366004614076565b611129565b34801561047457600080fd5b506102046104833660046140fa565b611259565b34801561049457600080fd5b5061049d611279565b6040516101b991906145d2565b3480156104b657600080fd5b5061049d6104c53660046143e2565b611288565b3480156104d657600080fd5b506102ab6104e5366004614076565b6112a6565b3480156104f657600080fd5b506102ab610505366004614270565b611419565b34801561051657600080fd5b506101e261052536600461434b565b6114cf565b34801561053657600080fd5b5061054a610545366004614180565b6117a1565b6040516101b9919061478c565b34801561056357600080fd5b50610204610572366004614180565b61187c565b34801561058357600080fd5b506102ab610592366004614076565b6118b7565b3480156105a357600080fd5b506102ab6105b2366004614076565b6119ab565b3480156105c357600080fd5b5061049d611ab1565b3480156105d857600080fd5b506101e26105e7366004613f29565b611ac0565b3480156105f857600080fd5b5061036d611b1b565b60006020819052908152604090205481565b60005b83518110156106785761066f848281518110151561063057fe5b90602001906020020151848381518110151561064857fe5b90602001906020020151848481518110151561066057fe5b90602001906020020151611419565b50600101610616565b50505050565b60016020526000908152604090205460ff1681565b6106ce848484848080601f01602080910402602001604051908101604052809392919081815260200183838082843750611b43945050505050565b60408051808201909152601c8152600080516020614964833981519152602082015290151561071c5760405160e560020a62461bcd02815260040161071391906146ee565b60405180910390fd5b5050506000918252600560209081526040808420600160a060020a0390931684529190529020805460ff19166001179055565b600960205260009081526040902054600160a060020a031681565b610772613b52565b61077a613b81565b610782613b81565b600061078d886117a1565b9250610798876117a1565b91506107a26121dd565b90506107ae888861220c565b6107cc888885600001518560000151876040015187604001516123ec565b93506107f188846000015185602001518487604001518960000151602001518c6125a1565b61081487836000015184602001518486604001518960200151602001518b6125a1565b6108208888838761281f565b6108398882856020015186604001518860000151612bf3565b6108528782846020015185604001518860200151612bf3565b505050949350505050565b610865613ba1565b6040805160e060020a63b4be83d5028082526060600483018181528851606485019081526020808b01516084870152958a015160a48601529189015160c4850152608089015160e485015260a089015161010485015260c089015161012485015260e08901516101448501526101008901516101648501526101208901516101848501526101408901516101a485019081526101608a01516101c4860152610180908190528901516101e4850181905292949092839291602486019183916102048801916101a08e0191601f82010460005b81811015610955578351855260209485019490930192600101610937565b505050828203610160840152805180835260209283019291820191601f82010460005b81811015610996578351855260209485019490930192600101610978565b5050508b84525084810360209384019081528a518083529093918201918b81019190601f82010460005b818110156109de5783518552602094850194909301926001016109c0565b5060808a8b86038c305af48080156109fd5760018114610a1b57610a3e565b60008e52600060208f0152600060408f0152600060608f0152610a3e565b8b518e5260208c015160208f015260408c015160408f015260608c015160608f01525b505050505050505050505050509392505050565b60005b8151811015610a8757610a7e8282815181101515610a6f57fe5b9060200190602002015161187c565b50600101610a55565b5050565b60005b835181101561067857610ae78482815181101515610aa857fe5b906020019060200201518483815181101515610ac057fe5b906020019060200201518484815181101515610ad857fe5b90602001906020020151610f3c565b50600101610a8e565b33600090815260026020908152604091829020548251608081018452604481527f5370656369666965642073616c74206d75737420626520677265617465722074928101929092527f68616e206f7220657175616c20746f206578697374696e67206d616b657245709282019290925260e160020a6337b1b41702606082015260018301918211610b975760405160e560020a62461bcd02815260040161071391906146ee565b503360008181526002602052604090819020839055517f666a5047451d0c744e58819166260f8048fe2786e33b3c1115af94887a451ca790610bda90849061479a565b60405180910390a25050565b60005b835181101561067857610c428482815181101515610c0357fe5b906020019060200201518483815181101515610c1b57fe5b906020019060200201518484815181101515610c3357fe5b9060200190602002015161085d565b50600101610be9565b6003546000908190600160a060020a03163314610c7d5760405160e560020a62461bcd0281526004016107139061475f565b60ff8516600090815260096020908152604091829020548251606081018452603781527f4f6c642061737365742070726f787920646f6573206e6f74206d61746368206192810192909252604960020a7639b9b2ba10383937bc3c9030ba1033b4bb32b71034b217029282019290925290600160a060020a03858116911614610d1c5760405160e560020a62461bcd02815260040161071391906146ee565b50839150600160a060020a03821615610e235781600160a060020a031663ae25532e6040518163ffffffff1660e060020a028152600401602060405180830381600087803b158015610d6d57600080fd5b505af1158015610d81573d6000803e3d6000fd5b505050506040513d601f19601f82011682018060405250610da59190810190614400565b90508460ff168160ff1614606060405190810160405280602b81526020017f4e65772061737365742070726f787920696420646f6573206e6f74206d617463815260200160a960020a6a341033b4bb32b71034b21702815250901515610e215760405160e560020a62461bcd02815260040161071391906146ee565b505b60ff8516600090815260096020526040908190208054600160a060020a031916600160a060020a038516179055517f27ef5f484e50f2daf7c2d82c60fe4ce409009541176eb64095beac369db1d26090610e82908790879087906147a8565b60405180910390a15050505050565b60048054604080516020601f6002600019610100600188161502019095169490940493840181900481028201810190925282815260609390929091830182828015610f1d5780601f10610ef257610100808354040283529160200191610f1d565b820191906000526020600020905b815481529060010190602001808311610f0057829003601f168201915b5050505050905090565b60076020526000908152604090205460ff1681565b610f44613ba1565b610f4f848484611419565b905082816020015114606060405190810160405280603381526020017f446573697265642066696c6c20616d6f756e7420636f756c64206e6f742062658152602001606960020a721031b7b6b83632ba32b63c903334b63632b21702815250901515610fd15760405160e560020a62461bcd02815260040161071391906146ee565b505b9392505050565b60026020526000908152604090205481565b6000610ff6613ba1565b60008084151561100a5760045b93506110b9565b60ff8716600b1461101d578693506110b9565b61102b8860a0015187612c90565b91506110378583612ca2565b905061104c818960a001518a60800151612cb8565b15611058576002611003565b6020830181905260a08801516080890151611074918391612d0e565b8352602083015160a089015160c08a0151611090929190612d0e565b6040840152602083015160a089015160e08a01516110af929190612d0e565b6060840152600193505b505094509492505050565b60006110ce6121dd565b600160a060020a03908116600090815260066020908152604080832096909316825294909452909220805460ff191691151591909117905550565b600660209081526000928352604080842090915290825290205460ff1681565b611131613ba1565b60008061113c613ba1565b600092505b865183101561124f5761118d878481518110151561115b57fe5b90602001906020020151610160015188600081518110151561117957fe5b906020019060200201516101600151612d2b565b606060405190810160405280602b81526020016000805160206149e4833981519152815260200160a960020a6a32b0b1b41037b93232b917028152509015156111ec5760405160e560020a62461bcd02815260040161071391906146ee565b506111fb868560200151612c90565b9150611227878481518110151561120e57fe5b9060200190602002015183878681518110151561066057fe5b90506112338482612d72565b85846020015114156112445761124f565b600190920191611141565b5050509392505050565b600560209081526000928352604080842090915290825290205460ff1681565b600354600160a060020a031681565b60ff16600090815260096020526040902054600160a060020a031690565b6112ae613ba1565b60008060006112bb613ba1565b600093505b875184101561140e5761130c88858151811015156112da57fe5b9060200190602002015161014001518960008151811015156112f857fe5b906020019060200201516101400151612d2b565b606060405190810160405280602b81526020016000805160206149e4833981519152815260200160a960020a6a32b0b1b41037b93232b9170281525090151561136b5760405160e560020a62461bcd02815260040161071391906146ee565b5061137a878660000151612c90565b92506113bd888581518110151561138d57fe5b9060200190602002015160a0015189868151811015156113a957fe5b906020019060200201516080015185612d0e565b91506113e988858151811015156113d057fe5b90602001906020020151838887815181101515610c3357fe5b90506113f58582612d72565b84518714156114035761140e565b6001909301926112c0565b505050509392505050565b611421613ba1565b611429613b81565b600080611435876117a1565b925061143f6121dd565b915061145c87846000015185602001518587604001518b8b6125a1565b611470878460000151856040015189610fec565b9450905060ff81166001146114af57602083015160405160ff831690600080516020614a0483398151915290600090a36114a8612dd4565b935061124f565b6114ba878386612e07565b61124f87838560200151866040015188612bf3565b60085460408051606081018252603f81527f60657865637574655472616e73616374696f6e60206973206e6f7420616c6c6f60208201527f77656420746f2063616c6c20697473656c66207265637572736976656c792e0091810191909152600091600160a060020a03161561155b5760405160e560020a62461bcd02815260040161071391906146ee565b5030868887876040518086600160a060020a0316600160a060020a0316606060020a02815260140185600160a060020a0316600160a060020a0316606060020a028152601401848152602001838380828437604080519190930181900381206000818152600760209081529085902054606084018652602684527f5472616e73616374696f6e2068617320616c7265616479206265656e206578659184019190915260d160020a6531baba32b2170294830194909452995097505060ff1615945061164193505050505760405160e560020a62461bcd02815260040161071391906146ee565b50600160a060020a03861633146116ef5761168d818785858080601f01602080910402602001604051908101604052809392919081815260200183838082843750611b43945050505050565b60408051808201909152601c815260008051602061496483398151915260208201529015156116d25760405160e560020a62461bcd02815260040161071391906146ee565b5060088054600160a060020a031916600160a060020a0388161790555b60008181526007602052604090819020805460ff191660011790555130908690869080838380828437820191505092505050600060405180830381855af460408051808201909152601d81527f5472616e73616374696f6e20657865637574696f6e206661696c65642e00000060208201529250151590506117875760405160e560020a62461bcd02815260040161071391906146ee565b505060088054600160a060020a0319169055505050505050565b6117a9613b81565b6117b282612f81565b6020820152608082015115156117cf5760095b60ff168152611877565b60a082015115156117e157600a6117c5565b61010082015142106117f457600c6117c5565b60208082015160009081526001909152604090205460ff161561181857600e6117c5565b6101208201518251600160a060020a0316600090815260026020526040902054111561184557600e6117c5565b6020808201516000908152908190526040908190205490820181905260a08301511161187257600d6117c5565b600b81525b919050565b6000611886613b81565b61188f836117a1565b90506118a483826000015183602001516133ea565b610fd3838260000151836020015161359b565b6118bf613ba1565b6000806118ca613ba1565b600092505b865183101561124f576118e9878481518110151561115b57fe5b606060405190810160405280602b81526020016000805160206149e4833981519152815260200160a960020a6a32b0b1b41037b93232b917028152509015156119485760405160e560020a62461bcd02815260040161071391906146ee565b50611957868560200151612c90565b9150611983878481518110151561196a57fe5b90602001906020020151838786815181101515610c3357fe5b905061198f8482612d72565b85846020015114156119a05761124f565b6001909201916118cf565b6119b3613ba1565b60008060006119c0613ba1565b600093505b875184101561140e576119df88858151811015156112da57fe5b606060405190810160405280602b81526020016000805160206149e4833981519152815260200160a960020a6a32b0b1b41037b93232b91702815250901515611a3e5760405160e560020a62461bcd02815260040161071391906146ee565b50611a4d878660000151612c90565b9250611a60888581518110151561138d57fe5b9150611a8c8885815181101515611a7357fe5b9060200190602002015183888781518110151561066057fe5b9050611a988582612d72565b8451871415611aa65761140e565b6001909301926119c5565b600854600160a060020a031681565b600354600160a060020a03163314611aed5760405160e560020a62461bcd0281526004016107139061475f565b600160a060020a03811615611b185760038054600160a060020a031916600160a060020a0383161790555b50565b60408051808201909152600b815260a860020a6a322e302e312d616c70686102602082015281565b6000806000806000806000600188511015604080519081016040528060198152602001600080516020614904833981519152815250901515611b9b5760405160e560020a62461bcd02815260040161071391906146ee565b50611ba58861364f565b60f860020a900460ff166008811115611bba57fe5b95506000866008811115611bca57fe5b1415611c1b5760408051808201825260178152604960020a7624b63632b3b0b61039b4b3b730ba3ab932903a3cb83297026020820152905160e560020a62461bcd02815261071391906004016146ee565b6001866008811115611c2957fe5b1415611c7f578751604080518082019091526019815260008051602061490483398151915260208201529015611c755760405160e560020a62461bcd02815260040161071391906146ee565b50600096506121d0565b6002866008811115611c8d57fe5b1415611d835787516040805180820190915260198152600080516020614904833981519152602082015290604114611cdb5760405160e560020a62461bcd02815260040161071391906146ee565b50876000815181101515611ceb57fe5b016020015160f860020a908190048102049450611d098860016136c7565b9350611d168860216136c7565b925060018a86868660405160008152602001604052604051611d3b94939291906146b9565b60206040516020810390808403906000865af1158015611d5f573d6000803e3d6000fd5b5050604051601f190151600160a060020a038b811690821614985092506121d09050565b6003866008811115611d9157fe5b1415611e765787516040805180820190915260198152600080516020614904833981519152602082015290604114611ddf5760405160e560020a62461bcd02815260040161071391906146ee565b50876000815181101515611def57fe5b016020015160f860020a908190048102049450611e0d8860016136c7565b9350611e1a8860216136c7565b604080517f19457468657265756d205369676e6564204d6573736167653a0a3332000000008152601c81018d9052815190819003603c0181206000825260209190910191829052919450600191611d3b918890889088906146b9565b6004866008811115611e8457fe5b1415611ee4578751604080518082019091526019815260008051602061490483398151915260208201529015611ed05760405160e560020a62461bcd02815260040161071391906146ee565b50600160a060020a038916331496506121d0565b6005866008811115611ef257fe5b1415611f825760405160e160020a630b135d3f028152600160a060020a038a1690631626ba7e90611f29908d908c90600401614699565b602060405180830381600087803b158015611f4357600080fd5b505af1158015611f57573d6000803e3d6000fd5b505050506040513d601f19601f82011682018060405250611f7b91908101906140be565b96506121d0565b6006866008811115611f9057fe5b141561200d57611f9f8861373a565b600160a060020a03808b1660009081526006602090815260408083209385168352929052205490915060ff161515611fda57600096506121d0565b60405160e160020a6349b1a381028152600160a060020a03821690639363470290611f29908d908d908d90600401614663565b600786600881111561201b57fe5b141561204e5760008a8152600560209081526040808320600160a060020a038d16845290915290205460ff1696506121d0565b600886600881111561205c57fe5b141561214157875160408051808201909152601981526000805160206149048339815191526020820152906041146120aa5760405160e560020a62461bcd02815260040161071391906146ee565b508760008151811015156120ba57fe5b016020015160f860020a9081900481020494506120d88860016136c7565b93506120e58860216136c7565b604080517f19457468657265756d205369676e6564204d6573736167653a0a4100000000008152601b81018d9052815190819003603b0181206000825260209190910191829052919450600191611d3b918890889088906146b9565b600786600881111561214f57fe5b14156121825760008a8152600560209081526040808320600160a060020a038d16845290915290205460ff1696506121d0565b604080518082018252601b81527f556e737570706f72746564207369676e617475726520747970652e00000000006020820152905160e560020a62461bcd02815261071391906004016146ee565b5050505050509392505050565b6008546000908190600160a060020a03161561220457600854600160a060020a0316612206565b335b92915050565b612220826101400151826101600151612d2b565b608060405190810160405280604181526020017f4c656674206f72646572206d616b65722061737365742069732064696666657281526020017f656e742066726f6d207269676874206f726465722074616b6572206173736574815260200160f960020a6017028152509015156122ad5760405160e560020a62461bcd02815260040161071391906146ee565b506122c2826101600151826101400151612d2b565b608060405190810160405280604181526020017f4c656674206f726465722074616b65722061737365742069732064696666657281526020017f656e742066726f6d207269676874206f72646572206d616b6572206173736574815260200160f960020a60170281525090151561234f5760405160e560020a62461bcd02815260040161071391906146ee565b506123628260a001518260a001516137bd565b612374836080015183608001516137bd565b1015606060405190810160405280602b81526020017f4d617463686564206f7264657273206d7573742068617665206120706f736974815260200160a960020a6a34bb329039b83932b0b217028152509015156123e75760405160e560020a62461bcd02815260040161071391906146ee565b505050565b6123f4613b52565b600080600080600061240a8b60a0015188612c90565b945061241a8c60a0015189612c90565b935061242a858c608001516137bd565b612438858d60a001516137bd565b1161245a578392506124538b60a001518c60800151856137e1565b9150612473565b8491506124708b608001518c60a00151846137e1565b92505b61247f8c8b8a86610fec565b875260408051606081018252603081526000805160206148c48339815191526020820152608160020a6f103337b9103632b33a1037b93232b917029181019190915290915060ff82166001146124eb5760405160e560020a62461bcd02815260040161071391906146ee565b506124f88b8a8985610fec565b60208801529050600160ff168160ff1614606060405190810160405280603181526020016000805160206148c48339815191528152602001607960020a70103337b9103934b3b43a1037b93232b9170281525090151561256e5760405160e560020a62461bcd02815260040161071391906146ee565b5085515160208088015101516125849190612c90565b604087015261259286613876565b50505050509695505050505050565b60408051606081018252603c81526000805160206149448339815191526020820152600080516020614a248339815191529181019190915260ff8716600914156126015760405160e560020a62461bcd02815260040161071391906146ee565b5060408051606081018252603c81526000805160206149848339815191526020820152600080516020614a248339815191529181019190915260ff8716600a14156126625760405160e560020a62461bcd02815260040161071391906146ee565b508215156126c05761267985886000015183611b43565b60408051808201909152601c815260008051602061496483398151915260208201529015156126be5760405160e560020a62461bcd02815260040161071391906146ee565b505b6060870151600160a060020a0316156127355760608701516040805180820190915260158152605960020a7424b73b30b634b2103036b9b39739b2b73232b9301702602082015290600160a060020a031633146127335760405160e560020a62461bcd02815260040161071391906146ee565b505b6020870151600160a060020a0316156127bd5783600160a060020a03168760200151600160a060020a031614606060405190810160405280602681526020016000805160206149a4833981519152815260200160d160020a65373a32bc3a17028152509015156127bb5760405160e560020a62461bcd02815260040161071391906146ee565b505b60408051808201909152601e81527f416d6f756e74206d7573742062652067726561746572207468616e20302e00006020820152600083116128155760405160e560020a62461bcd02815260040161071391906146ee565b5050505050505050565b612840846101400151856000015185600001518460200151602001516139a7565b6101408301518351855183516020015161285c939291906139a7565b61287584610140015185600001518484604001516139a7565b60048054604080516020601f6002600019610100600188161502019095169490940493840181900481028201810190925282815261291f93909290918301828280156129025780601f106128d757610100808354040283529160200191612902565b820191906000526020600020905b8154815290600101906020018083116128e557829003601f168201915b5050505050856000015186604001518460000151604001516139a7565b60048054604080516020601f600260001961010060018816150201909516949094049384018190048102820181019092528281526129c993909290918301828280156129ac5780601f10612981576101008083540402835291602001916129ac565b820191906000526020600020905b81548152906001019060200180831161298f57829003601f168201915b5050505050846000015185604001518460200151604001516139a7565b8260400151600160a060020a03168460400151600160a060020a03161415612aa75760048054604080516020601f60026000196101006001881615020190951694909404938401819004810282018101909252828152612aa29390929091830182828015612a785780601f10612a4d57610100808354040283529160200191612a78565b820191906000526020600020905b815481529060010190602001808311612a5b57829003601f168201915b5050505050838660400151612a9d856000015160600151866020015160600151613ab0565b6139a7565b610678565b60048054604080516020601f60026000196101006001881615020190951694909404938401819004810282018101909252828152612b4d9390929091830182828015612b345780601f10612b0957610100808354040283529160200191612b34565b820191906000526020600020905b815481529060010190602001808311612b1757829003601f168201915b50505050508386604001518460000151606001516139a7565b60048054604080516020601f600260001961010060018816150201909516949094049384018190048102820181019092528281526106789390929091830182828015612bda5780601f10612baf57610100808354040283529160200191612bda565b820191906000526020600020905b815481529060010190602001808311612bbd57829003601f168201915b50505050508385604001518460200151606001516139a7565b612c01828260200151613ab0565b60008481526020818152604091829020929092558681015187518451938501518584015160608701516101408c01516101608d015196518b98600160a060020a039788169897909616967fde19f18e1b56e6eada7ed95cca8398b602be32f5864640537ee9a9a3532bb29d96612c81968f969195909491939092906145e0565b60405180910390a45050505050565b600082821115612c9c57fe5b50900390565b6000818310612cb15781610fd3565b5090919050565b600080600084801515612cc757fe5b8685099150811515612cdc5760009250612d05565b612cfb612cec83620f42406137bd565b612cf688876137bd565b613abf565b6103e88111935090505b50509392505050565b6000612d23612d1d85846137bd565b84613abf565b949350505050565b60006020601f8451010460018101905060005b81811015612d6a57602081028581015190850151808214945084612d60578392505b5050600101612d3e565b505092915050565b81518151612d809190613ab0565b825260208083015190820151612d969190613ab0565b602083015260408083015190820151612daf9190613ab0565b604083015260608083015190820151612dc89190613ab0565b60609092019190915250565b612ddc613ba1565b6080604051908101604052806000815260200160008152602001600081526020016000815250905090565b612e2083610140015184600001518484600001516139a7565b612e3983610160015183856000015184602001516139a7565b60048054604080516020601f60026000196101006001881615020190951694909404938401819004810282018101909252828152612edf9390929091830182828015612ec65780601f10612e9b57610100808354040283529160200191612ec6565b820191906000526020600020905b815481529060010190602001808311612ea957829003601f168201915b50505050508460000151856040015184604001516139a7565b60048054604080516020601f600260001961010060018816150201909516949094049384018190048102820181019092528281526123e79390929091830182828015612f6c5780601f10612f4157610100808354040283529160200191612f6c565b820191906000526020600020905b815481529060010190602001808311612f4f57829003601f168201915b505050505083856040015184606001516139a7565b600060405180807f446f6d61696e536570617261746f72286164647265737320636f6e7472616374815260200160f860020a60290281525060210190506040518091039020306040518082600160a060020a0316600160a060020a0316606060020a0281526014019150506040518091039020604051808060d360020a6509ee4c8cae450281525060060180605a60020a741859191c995cdcc81b585ad95c9059191c995cdccb0281525060150180605a60020a741859191c995cdcc81d185ad95c9059191c995cdccb02815250601501807f6164647265737320666565526563697069656e74416464726573732c00000000815250601c0180605260020a751859191c995cdcc81cd95b99195c9059191c995cdccb0281525060160180603a60020a781d5a5b9d0c8d4d881b585ad95c905cdcd95d105b5bdd5b9d0b0281525060190180603a60020a781d5a5b9d0c8d4d881d185ad95c905cdcd95d105b5bdd5b9d0b0281525060190180607a60020a701d5a5b9d0c8d4d881b585ad95c9199594b0281525060110180607a60020a701d5a5b9d0c8d4d881d185ad95c9199594b02815250601101807f75696e743235362065787069726174696f6e54696d655365636f6e64732c0000815250601e0180609a60020a6c1d5a5b9d0c8d4d881cd85b1d0b02815250600d0180605a60020a74189e5d195cc81b585ad95c905cdcd95d11185d184b0281525060150180605a60020a74189e5d195cc81d185ad95c905cdcd95d11185d184b028152506015018060f860020a60290281525060010190506040518091039020846000015185602001518660400151876060015188608001518960a001518a60c001518b60e001518c61010001518d61012001518e61014001516040518082805190602001908083835b602083106132355780518252601f199092019160209182019101613216565b6001836020036101000a03801982511681845116808217855250505050505090500191505060405180910390208f61016001516040518082805190602001908083835b602083106132975780518252601f199092019160209182019101613278565b6001836020036101000a0380198251168184511680821785525050505050509050019150506040518091039020604051808d600160a060020a0316600160a060020a0316606060020a0281526014018c600160a060020a0316600160a060020a0316606060020a0281526014018b600160a060020a0316600160a060020a0316606060020a0281526014018a600160a060020a0316600160a060020a0316606060020a028152601401898152602001888152602001878152602001868152602001858152602001848152602001836000191660001916815260200182600019166000191681526020019c50505050505050505050505050604051809103902060405180856000191660001916815260200184600019166000191681526020018360001916600019168152602001826000191660001916815260200194505050505060405180910390209050809050919050565b60408051606081018252603c81526000805160206149448339815191526020820152600080516020614a248339815191529181019190915260009060ff84166009141561344d5760405160e560020a62461bcd02815260040161071391906146ee565b5060408051606081018252603c81526000805160206149848339815191526020820152600080516020614a248339815191529181019190915260ff8416600a14156134ae5760405160e560020a62461bcd02815260040161071391906146ee565b506134b76121dd565b845160408051606081018252602681526000805160206149a4833981519152602082015260d160020a65373a32bc3a170291810191909152919250600160a060020a038084169116146135205760405160e560020a62461bcd02815260040161071391906146ee565b506060840151600160a060020a0316156106785760608401516040805180820190915260158152605960020a7424b73b30b634b2103036b9b39739b2b73232b9301702602082015290600160a060020a031633146135945760405160e560020a62461bcd02815260040161071391906146ee565b5050505050565b600060ff8316600b146135ce57604051829060ff851690600080516020614a0483398151915290600090a3506000610fd3565b50600081815260016020819052604091829020805460ff191682179055848201518551610140870151610160880151945193948694600160a060020a0394851694909316927fb1ad640e9e79b6fdbc3c415dc2914ab54e753d2971f51eab910f7aa317a3163a9261364092909161472c565b60405180910390a49392505050565b805160408051808201909152601e8152600080516020614924833981519152602082015260009182106136985760405160e560020a62461bcd02815260040161071391906146ee565b508151829060001981019081106136ab57fe5b01602001518251600019019092525060f860020a908190040290565b60008160200183511015606060405190810160405280602b8152602001600080516020614a44833981519152815260200160a960020a6a38bab0b6103a3790199917028152509015156137305760405160e560020a62461bcd02815260040161071391906146ee565b5050016020015190565b6000601482511015606060405190810160405280602b8152602001600080516020614a44833981519152815260200160a960020a6a38bab0b6103a3790191817028152509015156137a15760405160e560020a62461bcd02815260040161071391906146ee565b506137b0826014845103613ad6565b8251601319019092525090565b60008282028315806137d957508284828115156137d657fe5b04145b1515610fd357fe5b60006137ee848484612cb8565b60408051608081018252604481526000805160206148e483398151915260208201527f616c63756c6174696e67207061727469616c207472616e7366657220616d6f759181019190915260e160020a63373a3997026060820152901561386a5760405160e560020a62461bcd02815260040161071391906146ee565b50612d23848484612d0e565b600061388e8260200151602001518360400151613ab0565b8251519091506138a090826001612cb8565b60408051608081018252604f81526000805160206148e483398151915260208201526000805160206149c483398151915291810191909152608960020a6e36b0ba31b432b21037b93232b9399702606082015290156139155760405160e560020a62461bcd02815260040161071391906146ee565b506139328260200151600001518360000151602001516001612cb8565b60408051608081018252604f81526000805160206148e483398151915260208201526000805160206149c483398151915291810191909152608960020a6e36b0ba31b432b21037b93232b9399702606082015290156123e75760405160e560020a62461bcd02815260040161071391906146ee565b600080600080841115613aa757865160408051808201909152601e81526000805160206149248339815191526020820152909350600084116139ff5760405160e560020a62461bcd02815260040161071391906146ee565b508660018403815181101515613a1157fe5b6020910181015160f860020a9081900481020460ff81166000908152600990925260409182902054915160e260020a632a179679028152909350600160a060020a039091169150819063a85e59e490613a74908a908a908a908a906004016146ff565b600060405180830381600087803b158015613a8e57600080fd5b505af1158015613aa2573d6000803e3d6000fd5b505050505b50505050505050565b600082820183811015610fd357fe5b6000808284811515613acd57fe5b04949350505050565b60008160140183511015606060405190810160405280602b8152602001600080516020614a44833981519152815260200160a960020a6a38bab0b6103a379019181702815250901515613b3f5760405160e560020a62461bcd02815260040161071391906146ee565b50500160140151600160a060020a031690565b61012060405190810160405280613b67613ba1565b8152602001613b74613ba1565b8152602001600081525090565b604080516060810182526000808252602082018190529181019190915290565b608060405190810160405280600081526020016000815260200160008152602001600081525090565b6000610fd3823561485c565b6000601f82018313613be757600080fd5b8135613bfa613bf582614811565b6147eb565b81815260209384019390925082018360005b83811015613c385781358601613c228882613d7b565b8452506020928301929190910190600101613c0c565b5050505092915050565b6000601f82018313613c5357600080fd5b8135613c61613bf582614811565b81815260209384019390925082018360005b83811015613c385781358601613c898882613dca565b8452506020928301929190910190600101613c73565b6000601f82018313613cb057600080fd5b8135613cbe613bf582614811565b91508181835260208401935060208101905083856020840282011115613ce357600080fd5b60005b83811015613c385781613cf98882613d27565b8452506020928301929190910190600101613ce6565b6000610fd38235614868565b6000610fd38251614868565b6000610fd3823561486d565b600080601f83018413613d4557600080fd5b5081356001604060020a03811115613d5c57600080fd5b602083019150836001820283011115613d7457600080fd5b9250929050565b6000601f82018313613d8c57600080fd5b8135613d9a613bf582614831565b91508082526020830160208301858383011115613db657600080fd5b613dc1838284614881565b50505092915050565b60006101808284031215613ddd57600080fd5b613de86101806147eb565b90506000613df68484613bca565b8252506020613e0784848301613bca565b6020830152506040613e1b84828501613bca565b6040830152506060613e2f84828501613bca565b6060830152506080613e4384828501613d27565b60808301525060a0613e5784828501613d27565b60a08301525060c0613e6b84828501613d27565b60c08301525060e0613e7f84828501613d27565b60e083015250610100613e9484828501613d27565b61010083015250610120613eaa84828501613d27565b610120830152506101408201356001604060020a03811115613ecb57600080fd5b613ed784828501613d7b565b610140830152506101608201356001604060020a03811115613ef857600080fd5b613f0484828501613d7b565b6101608301525092915050565b6000610fd38235614870565b6000610fd38251614870565b600060208284031215613f3b57600080fd5b6000612d238484613bca565b60008060408385031215613f5a57600080fd5b6000613f668585613bca565b9250506020613f7785828601613bca565b9150509250929050565b60008060408385031215613f9457600080fd5b6000613fa08585613bca565b9250506020613f7785828601613d0f565b600060208284031215613fc357600080fd5b81356001604060020a03811115613fd957600080fd5b612d2384828501613c42565b600080600060608486031215613ffa57600080fd5b83356001604060020a0381111561401057600080fd5b61401c86828701613c42565b93505060208401356001604060020a0381111561403857600080fd5b61404486828701613c9f565b92505060408401356001604060020a0381111561406057600080fd5b61406c86828701613bd6565b9150509250925092565b60008060006060848603121561408b57600080fd5b83356001604060020a038111156140a157600080fd5b6140ad86828701613c42565b935050602061404486828701613d27565b6000602082840312156140d057600080fd5b6000612d238484613d1b565b6000602082840312156140ee57600080fd5b6000612d238484613d27565b6000806040838503121561410d57600080fd5b6000613f668585613d27565b6000806000806060858703121561412f57600080fd5b600061413b8787613d27565b945050602061414c87828801613bca565b93505060408501356001604060020a0381111561416857600080fd5b61417487828801613d33565b95989497509550505050565b60006020828403121561419257600080fd5b81356001604060020a038111156141a857600080fd5b612d2384828501613dca565b600080600080608085870312156141ca57600080fd5b84356001604060020a038111156141e057600080fd5b6141ec87828801613dca565b94505060208501356001604060020a0381111561420857600080fd5b61421487828801613dca565b93505060408501356001604060020a0381111561423057600080fd5b61423c87828801613d7b565b92505060608501356001604060020a0381111561425857600080fd5b61426487828801613d7b565b91505092959194509250565b60008060006060848603121561428557600080fd5b83356001604060020a0381111561429b57600080fd5b6142a786828701613dca565b93505060206142b886828701613d27565b92505060408401356001604060020a038111156142d457600080fd5b61406c86828701613d7b565b600080600080608085870312156142f657600080fd5b84356001604060020a0381111561430c57600080fd5b61431887828801613dca565b945050602061432987828801613f11565b935050604061433a87828801613d27565b925050606061426487828801613d27565b6000806000806000806080878903121561436457600080fd5b60006143708989613d27565b965050602061438189828a01613bca565b95505060408701356001604060020a0381111561439d57600080fd5b6143a989828a01613d33565b945094505060608701356001604060020a038111156143c757600080fd5b6143d389828a01613d33565b92509250509295509295509295565b6000602082840312156143f457600080fd5b6000612d238484613f11565b60006020828403121561441257600080fd5b6000612d238484613f1d565b60008060006060848603121561443357600080fd5b600061443f8686613f11565b935050602061445086828701613bca565b925050604061406c86828701613bca565b61446a8161485c565b82525050565b61446a81614868565b61446a8161486d565b600061448d82614858565b8084526144a181602086016020860161488d565b6144aa816148b9565b9093016020019392505050565b61446a81614876565b603381527f4f6e6c7920636f6e7472616374206f776e657220697320616c6c6f77656420746020820152606960020a72379031b0b636103a3434b99036b2ba3437b21702604082015260600190565b805160808301906145208482614479565b5060208201516145336020850182614479565b5060408201516145466040850182614479565b5060608201516106786060850182614479565b805161012083019061456b848261450f565b50602082015161457e608085018261450f565b506040820151610678610100850182614479565b805160608301906145a384826145c9565b5060208201516145b66020850182614479565b5060408201516106786040850182614479565b61446a81614870565b602081016122068284614461565b60e081016145ee828a614461565b6145fb6020830189614479565b6146086040830188614479565b6146156060830187614479565b6146226080830186614479565b81810360a08301526146348185614482565b905081810360c08301526146488184614482565b9998505050505050505050565b602081016122068284614470565b606081016146718286614479565b61467e6020830185614461565b81810360408301526146908184614482565b95945050505050565b604081016146a78285614479565b8181036020830152612d238184614482565b608081016146c78287614479565b6146d460208301866145c9565b6146e16040830185614479565b6146906060830184614479565b60208082528101610fd38184614482565b608080825281016147108187614482565b905061471f6020830186614461565b6146e16040830185614461565b6040808252810161473d8185614482565b90508181036020830152612d238184614482565b6020810161220682846144b7565b60208082528101612206816144c0565b60808101612206828461450f565b61012081016122068284614559565b606081016122068284614592565b602081016122068284614479565b606081016147b682866145c9565b6147c36020830185614461565b612d236040830184614461565b60a081016147de82856145c9565b610fd3602083018461450f565b6040518181016001604060020a038111828210171561480957600080fd5b604052919050565b60006001604060020a0382111561482757600080fd5b5060209081020190565b60006001604060020a0382111561484757600080fd5b506020601f91909101601f19160190565b5190565b600160a060020a031690565b151590565b90565b60ff1690565b60006122068261485c565b82818337506000910152565b60005b838110156148a8578181015183820152602001614890565b838111156106785750506000910152565b601f01601f19169056004661696c656420746f2063616c63756c6174652066696c6c20726573756c74734120726f756e64696e67206572726f72206f63637572726564207768656e2063496e76616c6964207369676e6174757265206c656e6774682e000000000000004c656e677468206d7573742062652067726561746572207468616e20302e0000496e76616c6964206f72646572206d616b657220617373657420616d6f756e745369676e61747572652076616c69646174696f6e206661696c65642e00000000496e76616c6964206f726465722074616b657220617373657420616d6f756e7446756e6374696f6e2063616c6c656420696e20616e20696e76616c696420636f616c63756c6174696e67207472616e7366657220616d6f756e747320666f722041737365742064617461206d757374206265207468652073616d6520666f72207a2f932ac2b230b365b1cf3c91cf7f6bb97d4625011e0cf070ca1e0af0f1b39a3a2065787065637465642061206e6f6e2d7a65726f2076616c75652e000000004c656e677468206d7573742062652067726561746572207468616e206f722065a265627a7a7230582014c0844b7a6cf877b85d6b6e9f11deba59347acd93acdd4a4d07ba65c0af32136c6578706572696d656e74616cf50037",
				"opcodes": "PUSH1 0x80 PUSH1 0x40 MSTORE CALLVALUE DUP1 ISZERO PUSH3 0x11 JUMPI PUSH1 0x0 DUP1 REVERT JUMPDEST POP PUSH1 0x40 MLOAD PUSH3 0x4CD9 CODESIZE SUB DUP1 PUSH3 0x4CD9 DUP4 CODECOPY DUP2 ADD DUP1 PUSH1 0x40 MSTORE PUSH3 0x37 SWAP2 SWAP1 DUP2 ADD SWAP1 PUSH3 0x16A JUMP JUMPDEST PUSH1 0x3 DUP1 SLOAD PUSH1 0x1 PUSH1 0xA0 PUSH1 0x2 EXP SUB NOT AND CALLER OR SWAP1 SSTORE DUP1 MLOAD DUP2 SWAP1 PUSH3 0x60 SWAP1 PUSH1 0x4 SWAP1 PUSH1 0x20 DUP5 ADD SWAP1 PUSH3 0x69 JUMP JUMPDEST POP POP POP PUSH3 0x22C JUMP JUMPDEST DUP3 DUP1 SLOAD PUSH1 0x1 DUP2 PUSH1 0x1 AND ISZERO PUSH2 0x100 MUL SUB AND PUSH1 0x2 SWAP1 DIV SWAP1 PUSH1 0x0 MSTORE PUSH1 0x20 PUSH1 0x0 KECCAK256 SWAP1 PUSH1 0x1F ADD PUSH1 0x20 SWAP1 DIV DUP2 ADD SWAP3 DUP3 PUSH1 0x1F LT PUSH3 0xAC JUMPI DUP1 MLOAD PUSH1 0xFF NOT AND DUP4 DUP1 ADD OR DUP6 SSTORE PUSH3 0xDC JUMP JUMPDEST DUP3 DUP1 ADD PUSH1 0x1 ADD DUP6 SSTORE DUP3 ISZERO PUSH3 0xDC JUMPI SWAP2 DUP3 ADD JUMPDEST DUP3 DUP2 GT ISZERO PUSH3 0xDC JUMPI DUP3 MLOAD DUP3 SSTORE SWAP2 PUSH1 0x20 ADD SWAP2 SWAP1 PUSH1 0x1 ADD SWAP1 PUSH3 0xBF JUMP JUMPDEST POP PUSH3 0xEA SWAP3 SWAP2 POP PUSH3 0xEE JUMP JUMPDEST POP SWAP1 JUMP JUMPDEST PUSH3 0x10B SWAP2 SWAP1 JUMPDEST DUP1 DUP3 GT ISZERO PUSH3 0xEA JUMPI PUSH1 0x0 DUP2 SSTORE PUSH1 0x1 ADD PUSH3 0xF5 JUMP JUMPDEST SWAP1 JUMP JUMPDEST PUSH1 0x0 PUSH1 0x1F DUP3 ADD DUP4 SGT PUSH3 0x120 JUMPI PUSH1 0x0 DUP1 REVERT JUMPDEST DUP2 MLOAD PUSH3 0x137 PUSH3 0x131 DUP3 PUSH3 0x1D1 JUMP JUMPDEST PUSH3 0x1AA JUMP JUMPDEST SWAP2 POP DUP1 DUP3 MSTORE PUSH1 0x20 DUP4 ADD PUSH1 0x20 DUP4 ADD DUP6 DUP4 DUP4 ADD GT ISZERO PUSH3 0x154 JUMPI PUSH1 0x0 DUP1 REVERT JUMPDEST PUSH3 0x161 DUP4 DUP3 DUP5 PUSH3 0x1F9 JUMP JUMPDEST POP POP POP SWAP3 SWAP2 POP POP JUMP JUMPDEST PUSH1 0x0 PUSH1 0x20 DUP3 DUP5 SUB SLT ISZERO PUSH3 0x17D JUMPI PUSH1 0x0 DUP1 REVERT JUMPDEST DUP2 MLOAD PUSH1 0x1 PUSH1 0x40 PUSH1 0x2 EXP SUB DUP2 GT ISZERO PUSH3 0x194 JUMPI PUSH1 0x0 DUP1 REVERT JUMPDEST PUSH3 0x1A2 DUP5 DUP3 DUP6 ADD PUSH3 0x10E JUMP JUMPDEST SWAP5 SWAP4 POP POP POP POP JUMP JUMPDEST PUSH1 0x40 MLOAD DUP2 DUP2 ADD PUSH1 0x1 PUSH1 0x40 PUSH1 0x2 EXP SUB DUP2 GT DUP3 DUP3 LT OR ISZERO PUSH3 0x1C9 JUMPI PUSH1 0x0 DUP1 REVERT JUMPDEST PUSH1 0x40 MSTORE SWAP2 SWAP1 POP JUMP JUMPDEST PUSH1 0x0 PUSH1 0x1 PUSH1 0x40 PUSH1 0x2 EXP SUB DUP3 GT ISZERO PUSH3 0x1E8 JUMPI PUSH1 0x0 DUP1 REVERT JUMPDEST POP PUSH1 0x20 PUSH1 0x1F SWAP2 SWAP1 SWAP2 ADD PUSH1 0x1F NOT AND ADD SWAP1 JUMP JUMPDEST PUSH1 0x0 JUMPDEST DUP4 DUP2 LT ISZERO PUSH3 0x216 JUMPI DUP2 DUP2 ADD MLOAD DUP4 DUP3 ADD MSTORE PUSH1 0x20 ADD PUSH3 0x1FC JUMP JUMPDEST DUP4 DUP2 GT ISZERO PUSH3 0x226 JUMPI PUSH1 0x0 DUP5 DUP5 ADD MSTORE JUMPDEST POP POP POP POP JUMP JUMPDEST PUSH2 0x4A9D DUP1 PUSH3 0x23C PUSH1 0x0 CODECOPY PUSH1 0x0 RETURN STOP PUSH1 0x80 PUSH1 0x40 MSTORE PUSH1 0x4 CALLDATASIZE LT PUSH2 0x187 JUMPI PUSH4 0xFFFFFFFF PUSH1 0xE0 PUSH1 0x2 EXP PUSH1 0x0 CALLDATALOAD DIV AND PUSH4 0x288CDC91 DUP2 EQ PUSH2 0x18C JUMPI DUP1 PUSH4 0x297BB70B EQ PUSH2 0x1C2 JUMPI DUP1 PUSH4 0x2AC12622 EQ PUSH2 0x1E4 JUMPI DUP1 PUSH4 0x3683EF8E EQ PUSH2 0x211 JUMPI DUP1 PUSH4 0x38077164 EQ PUSH2 0x231 JUMPI DUP1 PUSH4 0x3C28D861 EQ PUSH2 0x25E JUMPI DUP1 PUSH4 0x3E228BAE EQ PUSH2 0x28B JUMPI DUP1 PUSH4 0x4AC14782 EQ PUSH2 0x2B8 JUMPI DUP1 PUSH4 0x4D0AE546 EQ PUSH2 0x2D8 JUMPI DUP1 PUSH4 0x4F9559B1 EQ PUSH2 0x2F8 JUMPI DUP1 PUSH4 0x50DDE190 EQ PUSH2 0x318 JUMPI DUP1 PUSH4 0x5C78D0C7 EQ PUSH2 0x338 JUMPI DUP1 PUSH4 0x63589905 EQ PUSH2 0x358 JUMPI DUP1 PUSH4 0x642F2EAF EQ PUSH2 0x37A JUMPI DUP1 PUSH4 0x64A3BC15 EQ PUSH2 0x39A JUMPI DUP1 PUSH4 0x6F3627F8 EQ PUSH2 0x3BA JUMPI DUP1 PUSH4 0x704ED01C EQ PUSH2 0x3DA JUMPI DUP1 PUSH4 0x77FCCE68 EQ PUSH2 0x408 JUMPI DUP1 PUSH4 0x7B8E3514 EQ PUSH2 0x428 JUMPI DUP1 PUSH4 0x7E1D9808 EQ PUSH2 0x448 JUMPI DUP1 PUSH4 0x82C174D0 EQ PUSH2 0x468 JUMPI DUP1 PUSH4 0x8DA5CB5B EQ PUSH2 0x488 JUMPI DUP1 PUSH4 0x92C1421E EQ PUSH2 0x4AA JUMPI DUP1 PUSH4 0xA3E20380 EQ PUSH2 0x4CA JUMPI DUP1 PUSH4 0xB4BE83D5 EQ PUSH2 0x4EA JUMPI DUP1 PUSH4 0xBFC8BFCE EQ PUSH2 0x50A JUMPI DUP1 PUSH4 0xC75E0A81 EQ PUSH2 0x52A JUMPI DUP1 PUSH4 0xD46B02C3 EQ PUSH2 0x557 JUMPI DUP1 PUSH4 0xDD1C7D18 EQ PUSH2 0x577 JUMPI DUP1 PUSH4 0xE5FA431B EQ PUSH2 0x597 JUMPI DUP1 PUSH4 0xEEA086BA EQ PUSH2 0x5B7 JUMPI DUP1 PUSH4 0xF2FDE38B EQ PUSH2 0x5CC JUMPI DUP1 PUSH4 0xFFA1AD74 EQ PUSH2 0x5EC JUMPI JUMPDEST PUSH1 0x0 DUP1 REVERT JUMPDEST CALLVALUE DUP1 ISZERO PUSH2 0x198 JUMPI PUSH1 0x0 DUP1 REVERT JUMPDEST POP PUSH2 0x1AC PUSH2 0x1A7 CALLDATASIZE PUSH1 0x4 PUSH2 0x40DC JUMP JUMPDEST PUSH2 0x601 JUMP JUMPDEST PUSH1 0x40 MLOAD PUSH2 0x1B9 SWAP2 SWAP1 PUSH2 0x479A JUMP JUMPDEST PUSH1 0x40 MLOAD DUP1 SWAP2 SUB SWAP1 RETURN JUMPDEST CALLVALUE DUP1 ISZERO PUSH2 0x1CE JUMPI PUSH1 0x0 DUP1 REVERT JUMPDEST POP PUSH2 0x1E2 PUSH2 0x1DD CALLDATASIZE PUSH1 0x4 PUSH2 0x3FE5 JUMP JUMPDEST PUSH2 0x613 JUMP JUMPDEST STOP JUMPDEST CALLVALUE DUP1 ISZERO PUSH2 0x1F0 JUMPI PUSH1 0x0 DUP1 REVERT JUMPDEST POP PUSH2 0x204 PUSH2 0x1FF CALLDATASIZE PUSH1 0x4 PUSH2 0x40DC JUMP JUMPDEST PUSH2 0x67E JUMP JUMPDEST PUSH1 0x40 MLOAD PUSH2 0x1B9 SWAP2 SWAP1 PUSH2 0x4655 JUMP JUMPDEST CALLVALUE DUP1 ISZERO PUSH2 0x21D JUMPI PUSH1 0x0 DUP1 REVERT JUMPDEST POP PUSH2 0x1E2 PUSH2 0x22C CALLDATASIZE PUSH1 0x4 PUSH2 0x4119 JUMP JUMPDEST PUSH2 0x693 JUMP JUMPDEST CALLVALUE DUP1 ISZERO PUSH2 0x23D JUMPI PUSH1 0x0 DUP1 REVERT JUMPDEST POP PUSH2 0x251 PUSH2 0x24C CALLDATASIZE PUSH1 0x4 PUSH2 0x43E2 JUMP JUMPDEST PUSH2 0x74F JUMP JUMPDEST PUSH1 0x40 MLOAD PUSH2 0x1B9 SWAP2 SWAP1 PUSH2 0x4751 JUMP JUMPDEST CALLVALUE DUP1 ISZERO PUSH2 0x26A JUMPI PUSH1 0x0 DUP1 REVERT JUMPDEST POP PUSH2 0x27E PUSH2 0x279 CALLDATASIZE PUSH1 0x4 PUSH2 0x41B4 JUMP JUMPDEST PUSH2 0x76A JUMP JUMPDEST PUSH1 0x40 MLOAD PUSH2 0x1B9 SWAP2 SWAP1 PUSH2 0x477D JUMP JUMPDEST CALLVALUE DUP1 ISZERO PUSH2 0x297 JUMPI PUSH1 0x0 DUP1 REVERT JUMPDEST POP PUSH2 0x2AB PUSH2 0x2A6 CALLDATASIZE PUSH1 0x4 PUSH2 0x4270 JUMP JUMPDEST PUSH2 0x85D JUMP JUMPDEST PUSH1 0x40 MLOAD PUSH2 0x1B9 SWAP2 SWAP1 PUSH2 0x476F JUMP JUMPDEST CALLVALUE DUP1 ISZERO PUSH2 0x2C4 JUMPI PUSH1 0x0 DUP1 REVERT JUMPDEST POP PUSH2 0x1E2 PUSH2 0x2D3 CALLDATASIZE PUSH1 0x4 PUSH2 0x3FB1 JUMP JUMPDEST PUSH2 0xA52 JUMP JUMPDEST CALLVALUE DUP1 ISZERO PUSH2 0x2E4 JUMPI PUSH1 0x0 DUP1 REVERT JUMPDEST POP PUSH2 0x1E2 PUSH2 0x2F3 CALLDATASIZE PUSH1 0x4 PUSH2 0x3FE5 JUMP JUMPDEST PUSH2 0xA8B JUMP JUMPDEST CALLVALUE DUP1 ISZERO PUSH2 0x304 JUMPI PUSH1 0x0 DUP1 REVERT JUMPDEST POP PUSH2 0x1E2 PUSH2 0x313 CALLDATASIZE PUSH1 0x4 PUSH2 0x40DC JUMP JUMPDEST PUSH2 0xAF0 JUMP JUMPDEST CALLVALUE DUP1 ISZERO PUSH2 0x324 JUMPI PUSH1 0x0 DUP1 REVERT JUMPDEST POP PUSH2 0x1E2 PUSH2 0x333 CALLDATASIZE PUSH1 0x4 PUSH2 0x3FE5 JUMP JUMPDEST PUSH2 0xBE6 JUMP JUMPDEST CALLVALUE DUP1 ISZERO PUSH2 0x344 JUMPI PUSH1 0x0 DUP1 REVERT JUMPDEST POP PUSH2 0x1E2 PUSH2 0x353 CALLDATASIZE PUSH1 0x4 PUSH2 0x441E JUMP JUMPDEST PUSH2 0xC4B JUMP JUMPDEST CALLVALUE DUP1 ISZERO PUSH2 0x364 JUMPI PUSH1 0x0 DUP1 REVERT JUMPDEST POP PUSH2 0x36D PUSH2 0xE91 JUMP JUMPDEST PUSH1 0x40 MLOAD PUSH2 0x1B9 SWAP2 SWAP1 PUSH2 0x46EE JUMP JUMPDEST CALLVALUE DUP1 ISZERO PUSH2 0x386 JUMPI PUSH1 0x0 DUP1 REVERT JUMPDEST POP PUSH2 0x204 PUSH2 0x395 CALLDATASIZE PUSH1 0x4 PUSH2 0x40DC JUMP JUMPDEST PUSH2 0xF27 JUMP JUMPDEST CALLVALUE DUP1 ISZERO PUSH2 0x3A6 JUMPI PUSH1 0x0 DUP1 REVERT JUMPDEST POP PUSH2 0x2AB PUSH2 0x3B5 CALLDATASIZE PUSH1 0x4 PUSH2 0x4270 JUMP JUMPDEST PUSH2 0xF3C JUMP JUMPDEST CALLVALUE DUP1 ISZERO PUSH2 0x3C6 JUMPI PUSH1 0x0 DUP1 REVERT JUMPDEST POP PUSH2 0x1AC PUSH2 0x3D5 CALLDATASIZE PUSH1 0x4 PUSH2 0x3F29 JUMP JUMPDEST PUSH2 0xFDA JUMP JUMPDEST CALLVALUE DUP1 ISZERO PUSH2 0x3E6 JUMPI PUSH1 0x0 DUP1 REVERT JUMPDEST POP PUSH2 0x3FA PUSH2 0x3F5 CALLDATASIZE PUSH1 0x4 PUSH2 0x42E0 JUMP JUMPDEST PUSH2 0xFEC JUMP JUMPDEST PUSH1 0x40 MLOAD PUSH2 0x1B9 SWAP3 SWAP2 SWAP1 PUSH2 0x47D0 JUMP JUMPDEST CALLVALUE DUP1 ISZERO PUSH2 0x414 JUMPI PUSH1 0x0 DUP1 REVERT JUMPDEST POP PUSH2 0x1E2 PUSH2 0x423 CALLDATASIZE PUSH1 0x4 PUSH2 0x3F81 JUMP JUMPDEST PUSH2 0x10C4 JUMP JUMPDEST CALLVALUE DUP1 ISZERO PUSH2 0x434 JUMPI PUSH1 0x0 DUP1 REVERT JUMPDEST POP PUSH2 0x204 PUSH2 0x443 CALLDATASIZE PUSH1 0x4 PUSH2 0x3F47 JUMP JUMPDEST PUSH2 0x1109 JUMP JUMPDEST CALLVALUE DUP1 ISZERO PUSH2 0x454 JUMPI PUSH1 0x0 DUP1 REVERT JUMPDEST POP PUSH2 0x2AB PUSH2 0x463 CALLDATASIZE PUSH1 0x4 PUSH2 0x4076 JUMP JUMPDEST PUSH2 0x1129 JUMP JUMPDEST CALLVALUE DUP1 ISZERO PUSH2 0x474 JUMPI PUSH1 0x0 DUP1 REVERT JUMPDEST POP PUSH2 0x204 PUSH2 0x483 CALLDATASIZE PUSH1 0x4 PUSH2 0x40FA JUMP JUMPDEST PUSH2 0x1259 JUMP JUMPDEST CALLVALUE DUP1 ISZERO PUSH2 0x494 JUMPI PUSH1 0x0 DUP1 REVERT JUMPDEST POP PUSH2 0x49D PUSH2 0x1279 JUMP JUMPDEST PUSH1 0x40 MLOAD PUSH2 0x1B9 SWAP2 SWAP1 PUSH2 0x45D2 JUMP JUMPDEST CALLVALUE DUP1 ISZERO PUSH2 0x4B6 JUMPI PUSH1 0x0 DUP1 REVERT JUMPDEST POP PUSH2 0x49D PUSH2 0x4C5 CALLDATASIZE PUSH1 0x4 PUSH2 0x43E2 JUMP JUMPDEST PUSH2 0x1288 JUMP JUMPDEST CALLVALUE DUP1 ISZERO PUSH2 0x4D6 JUMPI PUSH1 0x0 DUP1 REVERT JUMPDEST POP PUSH2 0x2AB PUSH2 0x4E5 CALLDATASIZE PUSH1 0x4 PUSH2 0x4076 JUMP JUMPDEST PUSH2 0x12A6 JUMP JUMPDEST CALLVALUE DUP1 ISZERO PUSH2 0x4F6 JUMPI PUSH1 0x0 DUP1 REVERT JUMPDEST POP PUSH2 0x2AB PUSH2 0x505 CALLDATASIZE PUSH1 0x4 PUSH2 0x4270 JUMP JUMPDEST PUSH2 0x1419 JUMP JUMPDEST CALLVALUE DUP1 ISZERO PUSH2 0x516 JUMPI PUSH1 0x0 DUP1 REVERT JUMPDEST POP PUSH2 0x1E2 PUSH2 0x525 CALLDATASIZE PUSH1 0x4 PUSH2 0x434B JUMP JUMPDEST PUSH2 0x14CF JUMP JUMPDEST CALLVALUE DUP1 ISZERO PUSH2 0x536 JUMPI PUSH1 0x0 DUP1 REVERT JUMPDEST POP PUSH2 0x54A PUSH2 0x545 CALLDATASIZE PUSH1 0x4 PUSH2 0x4180 JUMP JUMPDEST PUSH2 0x17A1 JUMP JUMPDEST PUSH1 0x40 MLOAD PUSH2 0x1B9 SWAP2 SWAP1 PUSH2 0x478C JUMP JUMPDEST CALLVALUE DUP1 ISZERO PUSH2 0x563 JUMPI PUSH1 0x0 DUP1 REVERT JUMPDEST POP PUSH2 0x204 PUSH2 0x572 CALLDATASIZE PUSH1 0x4 PUSH2 0x4180 JUMP JUMPDEST PUSH2 0x187C JUMP JUMPDEST CALLVALUE DUP1 ISZERO PUSH2 0x583 JUMPI PUSH1 0x0 DUP1 REVERT JUMPDEST POP PUSH2 0x2AB PUSH2 0x592 CALLDATASIZE PUSH1 0x4 PUSH2 0x4076 JUMP JUMPDEST PUSH2 0x18B7 JUMP JUMPDEST CALLVALUE DUP1 ISZERO PUSH2 0x5A3 JUMPI PUSH1 0x0 DUP1 REVERT JUMPDEST POP PUSH2 0x2AB PUSH2 0x5B2 CALLDATASIZE PUSH1 0x4 PUSH2 0x4076 JUMP JUMPDEST PUSH2 0x19AB JUMP JUMPDEST CALLVALUE DUP1 ISZERO PUSH2 0x5C3 JUMPI PUSH1 0x0 DUP1 REVERT JUMPDEST POP PUSH2 0x49D PUSH2 0x1AB1 JUMP JUMPDEST CALLVALUE DUP1 ISZERO PUSH2 0x5D8 JUMPI PUSH1 0x0 DUP1 REVERT JUMPDEST POP PUSH2 0x1E2 PUSH2 0x5E7 CALLDATASIZE PUSH1 0x4 PUSH2 0x3F29 JUMP JUMPDEST PUSH2 0x1AC0 JUMP JUMPDEST CALLVALUE DUP1 ISZERO PUSH2 0x5F8 JUMPI PUSH1 0x0 DUP1 REVERT JUMPDEST POP PUSH2 0x36D PUSH2 0x1B1B JUMP JUMPDEST PUSH1 0x0 PUSH1 0x20 DUP2 SWAP1 MSTORE SWAP1 DUP2 MSTORE PUSH1 0x40 SWAP1 KECCAK256 SLOAD DUP2 JUMP JUMPDEST PUSH1 0x0 JUMPDEST DUP4 MLOAD DUP2 LT ISZERO PUSH2 0x678 JUMPI PUSH2 0x66F DUP5 DUP3 DUP2 MLOAD DUP2 LT ISZERO ISZERO PUSH2 0x630 JUMPI INVALID JUMPDEST SWAP1 PUSH1 0x20 ADD SWAP1 PUSH1 0x20 MUL ADD MLOAD DUP5 DUP4 DUP2 MLOAD DUP2 LT ISZERO ISZERO PUSH2 0x648 JUMPI INVALID JUMPDEST SWAP1 PUSH1 0x20 ADD SWAP1 PUSH1 0x20 MUL ADD MLOAD DUP5 DUP5 DUP2 MLOAD DUP2 LT ISZERO ISZERO PUSH2 0x660 JUMPI INVALID JUMPDEST SWAP1 PUSH1 0x20 ADD SWAP1 PUSH1 0x20 MUL ADD MLOAD PUSH2 0x1419 JUMP JUMPDEST POP PUSH1 0x1 ADD PUSH2 0x616 JUMP JUMPDEST POP POP POP POP JUMP JUMPDEST PUSH1 0x1 PUSH1 0x20 MSTORE PUSH1 0x0 SWAP1 DUP2 MSTORE PUSH1 0x40 SWAP1 KECCAK256 SLOAD PUSH1 0xFF AND DUP2 JUMP JUMPDEST PUSH2 0x6CE DUP5 DUP5 DUP5 DUP5 DUP1 DUP1 PUSH1 0x1F ADD PUSH1 0x20 DUP1 SWAP2 DIV MUL PUSH1 0x20 ADD PUSH1 0x40 MLOAD SWAP1 DUP2 ADD PUSH1 0x40 MSTORE DUP1 SWAP4 SWAP3 SWAP2 SWAP1 DUP2 DUP2 MSTORE PUSH1 0x20 ADD DUP4 DUP4 DUP1 DUP3 DUP5 CALLDATACOPY POP PUSH2 0x1B43 SWAP5 POP POP POP POP POP JUMP JUMPDEST PUSH1 0x40 DUP1 MLOAD DUP1 DUP3 ADD SWAP1 SWAP2 MSTORE PUSH1 0x1C DUP2 MSTORE PUSH1 0x0 DUP1 MLOAD PUSH1 0x20 PUSH2 0x4964 DUP4 CODECOPY DUP2 MLOAD SWAP2 MSTORE PUSH1 0x20 DUP3 ADD MSTORE SWAP1 ISZERO ISZERO PUSH2 0x71C JUMPI PUSH1 0x40 MLOAD PUSH1 0xE5 PUSH1 0x2 EXP PUSH3 0x461BCD MUL DUP2 MSTORE PUSH1 0x4 ADD PUSH2 0x713 SWAP2 SWAP1 PUSH2 0x46EE JUMP JUMPDEST PUSH1 0x40 MLOAD DUP1 SWAP2 SUB SWAP1 REVERT JUMPDEST POP POP POP PUSH1 0x0 SWAP2 DUP3 MSTORE PUSH1 0x5 PUSH1 0x20 SWAP1 DUP2 MSTORE PUSH1 0x40 DUP1 DUP5 KECCAK256 PUSH1 0x1 PUSH1 0xA0 PUSH1 0x2 EXP SUB SWAP1 SWAP4 AND DUP5 MSTORE SWAP2 SWAP1 MSTORE SWAP1 KECCAK256 DUP1 SLOAD PUSH1 0xFF NOT AND PUSH1 0x1 OR SWAP1 SSTORE JUMP JUMPDEST PUSH1 0x9 PUSH1 0x20 MSTORE PUSH1 0x0 SWAP1 DUP2 MSTORE PUSH1 0x40 SWAP1 KECCAK256 SLOAD PUSH1 0x1 PUSH1 0xA0 PUSH1 0x2 EXP SUB AND DUP2 JUMP JUMPDEST PUSH2 0x772 PUSH2 0x3B52 JUMP JUMPDEST PUSH2 0x77A PUSH2 0x3B81 JUMP JUMPDEST PUSH2 0x782 PUSH2 0x3B81 JUMP JUMPDEST PUSH1 0x0 PUSH2 0x78D DUP9 PUSH2 0x17A1 JUMP JUMPDEST SWAP3 POP PUSH2 0x798 DUP8 PUSH2 0x17A1 JUMP JUMPDEST SWAP2 POP PUSH2 0x7A2 PUSH2 0x21DD JUMP JUMPDEST SWAP1 POP PUSH2 0x7AE DUP9 DUP9 PUSH2 0x220C JUMP JUMPDEST PUSH2 0x7CC DUP9 DUP9 DUP6 PUSH1 0x0 ADD MLOAD DUP6 PUSH1 0x0 ADD MLOAD DUP8 PUSH1 0x40 ADD MLOAD DUP8 PUSH1 0x40 ADD MLOAD PUSH2 0x23EC JUMP JUMPDEST SWAP4 POP PUSH2 0x7F1 DUP9 DUP5 PUSH1 0x0 ADD MLOAD DUP6 PUSH1 0x20 ADD MLOAD DUP5 DUP8 PUSH1 0x40 ADD MLOAD DUP10 PUSH1 0x0 ADD MLOAD PUSH1 0x20 ADD MLOAD DUP13 PUSH2 0x25A1 JUMP JUMPDEST PUSH2 0x814 DUP8 DUP4 PUSH1 0x0 ADD MLOAD DUP5 PUSH1 0x20 ADD MLOAD DUP5 DUP7 PUSH1 0x40 ADD MLOAD DUP10 PUSH1 0x20 ADD MLOAD PUSH1 0x20 ADD MLOAD DUP12 PUSH2 0x25A1 JUMP JUMPDEST PUSH2 0x820 DUP9 DUP9 DUP4 DUP8 PUSH2 0x281F JUMP JUMPDEST PUSH2 0x839 DUP9 DUP3 DUP6 PUSH1 0x20 ADD MLOAD DUP7 PUSH1 0x40 ADD MLOAD DUP9 PUSH1 0x0 ADD MLOAD PUSH2 0x2BF3 JUMP JUMPDEST PUSH2 0x852 DUP8 DUP3 DUP5 PUSH1 0x20 ADD MLOAD DUP6 PUSH1 0x40 ADD MLOAD DUP9 PUSH1 0x20 ADD MLOAD PUSH2 0x2BF3 JUMP JUMPDEST POP POP POP SWAP5 SWAP4 POP POP POP POP JUMP JUMPDEST PUSH2 0x865 PUSH2 0x3BA1 JUMP JUMPDEST PUSH1 0x40 DUP1 MLOAD PUSH1 0xE0 PUSH1 0x2 EXP PUSH4 0xB4BE83D5 MUL DUP1 DUP3 MSTORE PUSH1 0x60 PUSH1 0x4 DUP4 ADD DUP2 DUP2 MSTORE DUP9 MLOAD PUSH1 0x64 DUP6 ADD SWAP1 DUP2 MSTORE PUSH1 0x20 DUP1 DUP12 ADD MLOAD PUSH1 0x84 DUP8 ADD MSTORE SWAP6 DUP11 ADD MLOAD PUSH1 0xA4 DUP7 ADD MSTORE SWAP2 DUP10 ADD MLOAD PUSH1 0xC4 DUP6 ADD MSTORE PUSH1 0x80 DUP10 ADD MLOAD PUSH1 0xE4 DUP6 ADD MSTORE PUSH1 0xA0 DUP10 ADD MLOAD PUSH2 0x104 DUP6 ADD MSTORE PUSH1 0xC0 DUP10 ADD MLOAD PUSH2 0x124 DUP6 ADD MSTORE PUSH1 0xE0 DUP10 ADD MLOAD PUSH2 0x144 DUP6 ADD MSTORE PUSH2 0x100 DUP10 ADD MLOAD PUSH2 0x164 DUP6 ADD MSTORE PUSH2 0x120 DUP10 ADD MLOAD PUSH2 0x184 DUP6 ADD MSTORE PUSH2 0x140 DUP10 ADD MLOAD PUSH2 0x1A4 DUP6 ADD SWAP1 DUP2 MSTORE PUSH2 0x160 DUP11 ADD MLOAD PUSH2 0x1C4 DUP7 ADD MSTORE PUSH2 0x180 SWAP1 DUP2 SWAP1 MSTORE DUP10 ADD MLOAD PUSH2 0x1E4 DUP6 ADD DUP2 SWAP1 MSTORE SWAP3 SWAP5 SWAP1 SWAP3 DUP4 SWAP3 SWAP2 PUSH1 0x24 DUP7 ADD SWAP2 DUP4 SWAP2 PUSH2 0x204 DUP9 ADD SWAP2 PUSH2 0x1A0 DUP15 ADD SWAP2 PUSH1 0x1F DUP3 ADD DIV PUSH1 0x0 JUMPDEST DUP2 DUP2 LT ISZERO PUSH2 0x955 JUMPI DUP4 MLOAD DUP6 MSTORE PUSH1 0x20 SWAP5 DUP6 ADD SWAP5 SWAP1 SWAP4 ADD SWAP3 PUSH1 0x1 ADD PUSH2 0x937 JUMP JUMPDEST POP POP POP DUP3 DUP3 SUB PUSH2 0x160 DUP5 ADD MSTORE DUP1 MLOAD DUP1 DUP4 MSTORE PUSH1 0x20 SWAP3 DUP4 ADD SWAP3 SWAP2 DUP3 ADD SWAP2 PUSH1 0x1F DUP3 ADD DIV PUSH1 0x0 JUMPDEST DUP2 DUP2 LT ISZERO PUSH2 0x996 JUMPI DUP4 MLOAD DUP6 MSTORE PUSH1 0x20 SWAP5 DUP6 ADD SWAP5 SWAP1 SWAP4 ADD SWAP3 PUSH1 0x1 ADD PUSH2 0x978 JUMP JUMPDEST POP POP POP DUP12 DUP5 MSTORE POP DUP5 DUP2 SUB PUSH1 0x20 SWAP4 DUP5 ADD SWAP1 DUP2 MSTORE DUP11 MLOAD DUP1 DUP4 MSTORE SWAP1 SWAP4 SWAP2 DUP3 ADD SWAP2 DUP12 DUP2 ADD SWAP2 SWAP1 PUSH1 0x1F DUP3 ADD DIV PUSH1 0x0 JUMPDEST DUP2 DUP2 LT ISZERO PUSH2 0x9DE JUMPI DUP4 MLOAD DUP6 MSTORE PUSH1 0x20 SWAP5 DUP6 ADD SWAP5 SWAP1 SWAP4 ADD SWAP3 PUSH1 0x1 ADD PUSH2 0x9C0 JUMP JUMPDEST POP PUSH1 0x80 DUP11 DUP12 DUP7 SUB DUP13 ADDRESS GAS DELEGATECALL DUP1 DUP1 ISZERO PUSH2 0x9FD JUMPI PUSH1 0x1 DUP2 EQ PUSH2 0xA1B JUMPI PUSH2 0xA3E JUMP JUMPDEST PUSH1 0x0 DUP15 MSTORE PUSH1 0x0 PUSH1 0x20 DUP16 ADD MSTORE PUSH1 0x0 PUSH1 0x40 DUP16 ADD MSTORE PUSH1 0x0 PUSH1 0x60 DUP16 ADD MSTORE PUSH2 0xA3E JUMP JUMPDEST DUP12 MLOAD DUP15 MSTORE PUSH1 0x20 DUP13 ADD MLOAD PUSH1 0x20 DUP16 ADD MSTORE PUSH1 0x40 DUP13 ADD MLOAD PUSH1 0x40 DUP16 ADD MSTORE PUSH1 0x60 DUP13 ADD MLOAD PUSH1 0x60 DUP16 ADD MSTORE JUMPDEST POP POP POP POP POP POP POP POP POP POP POP POP POP SWAP4 SWAP3 POP POP POP JUMP JUMPDEST PUSH1 0x0 JUMPDEST DUP2 MLOAD DUP2 LT ISZERO PUSH2 0xA87 JUMPI PUSH2 0xA7E DUP3 DUP3 DUP2 MLOAD DUP2 LT ISZERO ISZERO PUSH2 0xA6F JUMPI INVALID JUMPDEST SWAP1 PUSH1 0x20 ADD SWAP1 PUSH1 0x20 MUL ADD MLOAD PUSH2 0x187C JUMP JUMPDEST POP PUSH1 0x1 ADD PUSH2 0xA55 JUMP JUMPDEST POP POP JUMP JUMPDEST PUSH1 0x0 JUMPDEST DUP4 MLOAD DUP2 LT ISZERO PUSH2 0x678 JUMPI PUSH2 0xAE7 DUP5 DUP3 DUP2 MLOAD DUP2 LT ISZERO ISZERO PUSH2 0xAA8 JUMPI INVALID JUMPDEST SWAP1 PUSH1 0x20 ADD SWAP1 PUSH1 0x20 MUL ADD MLOAD DUP5 DUP4 DUP2 MLOAD DUP2 LT ISZERO ISZERO PUSH2 0xAC0 JUMPI INVALID JUMPDEST SWAP1 PUSH1 0x20 ADD SWAP1 PUSH1 0x20 MUL ADD MLOAD DUP5 DUP5 DUP2 MLOAD DUP2 LT ISZERO ISZERO PUSH2 0xAD8 JUMPI INVALID JUMPDEST SWAP1 PUSH1 0x20 ADD SWAP1 PUSH1 0x20 MUL ADD MLOAD PUSH2 0xF3C JUMP JUMPDEST POP PUSH1 0x1 ADD PUSH2 0xA8E JUMP JUMPDEST CALLER PUSH1 0x0 SWAP1 DUP2 MSTORE PUSH1 0x2 PUSH1 0x20 SWAP1 DUP2 MSTORE PUSH1 0x40 SWAP2 DUP3 SWAP1 KECCAK256 SLOAD DUP3 MLOAD PUSH1 0x80 DUP2 ADD DUP5 MSTORE PUSH1 0x44 DUP2 MSTORE PUSH32 0x5370656369666965642073616C74206D75737420626520677265617465722074 SWAP3 DUP2 ADD SWAP3 SWAP1 SWAP3 MSTORE PUSH32 0x68616E206F7220657175616C20746F206578697374696E67206D616B65724570 SWAP3 DUP3 ADD SWAP3 SWAP1 SWAP3 MSTORE PUSH1 0xE1 PUSH1 0x2 EXP PUSH4 0x37B1B417 MUL PUSH1 0x60 DUP3 ADD MSTORE PUSH1 0x1 DUP4 ADD SWAP2 DUP3 GT PUSH2 0xB97 JUMPI PUSH1 0x40 MLOAD PUSH1 0xE5 PUSH1 0x2 EXP PUSH3 0x461BCD MUL DUP2 MSTORE PUSH1 0x4 ADD PUSH2 0x713 SWAP2 SWAP1 PUSH2 0x46EE JUMP JUMPDEST POP CALLER PUSH1 0x0 DUP2 DUP2 MSTORE PUSH1 0x2 PUSH1 0x20 MSTORE PUSH1 0x40 SWAP1 DUP2 SWAP1 KECCAK256 DUP4 SWAP1 SSTORE MLOAD PUSH32 0x666A5047451D0C744E58819166260F8048FE2786E33B3C1115AF94887A451CA7 SWAP1 PUSH2 0xBDA SWAP1 DUP5 SWAP1 PUSH2 0x479A JUMP JUMPDEST PUSH1 0x40 MLOAD DUP1 SWAP2 SUB SWAP1 LOG2 POP POP JUMP JUMPDEST PUSH1 0x0 JUMPDEST DUP4 MLOAD DUP2 LT ISZERO PUSH2 0x678 JUMPI PUSH2 0xC42 DUP5 DUP3 DUP2 MLOAD DUP2 LT ISZERO ISZERO PUSH2 0xC03 JUMPI INVALID JUMPDEST SWAP1 PUSH1 0x20 ADD SWAP1 PUSH1 0x20 MUL ADD MLOAD DUP5 DUP4 DUP2 MLOAD DUP2 LT ISZERO ISZERO PUSH2 0xC1B JUMPI INVALID JUMPDEST SWAP1 PUSH1 0x20 ADD SWAP1 PUSH1 0x20 MUL ADD MLOAD DUP5 DUP5 DUP2 MLOAD DUP2 LT ISZERO ISZERO PUSH2 0xC33 JUMPI INVALID JUMPDEST SWAP1 PUSH1 0x20 ADD SWAP1 PUSH1 0x20 MUL ADD MLOAD PUSH2 0x85D JUMP JUMPDEST POP PUSH1 0x1 ADD PUSH2 0xBE9 JUMP JUMPDEST PUSH1 0x3 SLOAD PUSH1 0x0 SWAP1 DUP2 SWAP1 PUSH1 0x1 PUSH1 0xA0 PUSH1 0x2 EXP SUB AND CALLER EQ PUSH2 0xC7D JUMPI PUSH1 0x40 MLOAD PUSH1 0xE5 PUSH1 0x2 EXP PUSH3 0x461BCD MUL DUP2 MSTORE PUSH1 0x4 ADD PUSH2 0x713 SWAP1 PUSH2 0x475F JUMP JUMPDEST PUSH1 0xFF DUP6 AND PUSH1 0x0 SWAP1 DUP2 MSTORE PUSH1 0x9 PUSH1 0x20 SWAP1 DUP2 MSTORE PUSH1 0x40 SWAP2 DUP3 SWAP1 KECCAK256 SLOAD DUP3 MLOAD PUSH1 0x60 DUP2 ADD DUP5 MSTORE PUSH1 0x37 DUP2 MSTORE PUSH32 0x4F6C642061737365742070726F787920646F6573206E6F74206D617463682061 SWAP3 DUP2 ADD SWAP3 SWAP1 SWAP3 MSTORE PUSH1 0x49 PUSH1 0x2 EXP PUSH23 0x39B9B2BA10383937BC3C9030BA1033B4BB32B71034B217 MUL SWAP3 DUP3 ADD SWAP3 SWAP1 SWAP3 MSTORE SWAP1 PUSH1 0x1 PUSH1 0xA0 PUSH1 0x2 EXP SUB DUP6 DUP2 AND SWAP2 AND EQ PUSH2 0xD1C JUMPI PUSH1 0x40 MLOAD PUSH1 0xE5 PUSH1 0x2 EXP PUSH3 0x461BCD MUL DUP2 MSTORE PUSH1 0x4 ADD PUSH2 0x713 SWAP2 SWAP1 PUSH2 0x46EE JUMP JUMPDEST POP DUP4 SWAP2 POP PUSH1 0x1 PUSH1 0xA0 PUSH1 0x2 EXP SUB DUP3 AND ISZERO PUSH2 0xE23 JUMPI DUP2 PUSH1 0x1 PUSH1 0xA0 PUSH1 0x2 EXP SUB AND PUSH4 0xAE25532E PUSH1 0x40 MLOAD DUP2 PUSH4 0xFFFFFFFF AND PUSH1 0xE0 PUSH1 0x2 EXP MUL DUP2 MSTORE PUSH1 0x4 ADD PUSH1 0x20 PUSH1 0x40 MLOAD DUP1 DUP4 SUB DUP2 PUSH1 0x0 DUP8 DUP1 EXTCODESIZE ISZERO DUP1 ISZERO PUSH2 0xD6D JUMPI PUSH1 0x0 DUP1 REVERT JUMPDEST POP GAS CALL ISZERO DUP1 ISZERO PUSH2 0xD81 JUMPI RETURNDATASIZE PUSH1 0x0 DUP1 RETURNDATACOPY RETURNDATASIZE PUSH1 0x0 REVERT JUMPDEST POP POP POP POP PUSH1 0x40 MLOAD RETURNDATASIZE PUSH1 0x1F NOT PUSH1 0x1F DUP3 ADD AND DUP3 ADD DUP1 PUSH1 0x40 MSTORE POP PUSH2 0xDA5 SWAP2 SWAP1 DUP2 ADD SWAP1 PUSH2 0x4400 JUMP JUMPDEST SWAP1 POP DUP5 PUSH1 0xFF AND DUP2 PUSH1 0xFF AND EQ PUSH1 0x60 PUSH1 0x40 MLOAD SWAP1 DUP2 ADD PUSH1 0x40 MSTORE DUP1 PUSH1 0x2B DUP2 MSTORE PUSH1 0x20 ADD PUSH32 0x4E65772061737365742070726F787920696420646F6573206E6F74206D617463 DUP2 MSTORE PUSH1 0x20 ADD PUSH1 0xA9 PUSH1 0x2 EXP PUSH11 0x341033B4BB32B71034B217 MUL DUP2 MSTORE POP SWAP1 ISZERO ISZERO PUSH2 0xE21 JUMPI PUSH1 0x40 MLOAD PUSH1 0xE5 PUSH1 0x2 EXP PUSH3 0x461BCD MUL DUP2 MSTORE PUSH1 0x4 ADD PUSH2 0x713 SWAP2 SWAP1 PUSH2 0x46EE JUMP JUMPDEST POP JUMPDEST PUSH1 0xFF DUP6 AND PUSH1 0x0 SWAP1 DUP2 MSTORE PUSH1 0x9 PUSH1 0x20 MSTORE PUSH1 0x40 SWAP1 DUP2 SWAP1 KECCAK256 DUP1 SLOAD PUSH1 0x1 PUSH1 0xA0 PUSH1 0x2 EXP SUB NOT AND PUSH1 0x1 PUSH1 0xA0 PUSH1 0x2 EXP SUB DUP6 AND OR SWAP1 SSTORE MLOAD PUSH32 0x27EF5F484E50F2DAF7C2D82C60FE4CE409009541176EB64095BEAC369DB1D260 SWAP1 PUSH2 0xE82 SWAP1 DUP8 SWAP1 DUP8 SWAP1 DUP8 SWAP1 PUSH2 0x47A8 JUMP JUMPDEST PUSH1 0x40 MLOAD DUP1 SWAP2 SUB SWAP1 LOG1 POP POP POP POP POP JUMP JUMPDEST PUSH1 0x4 DUP1 SLOAD PUSH1 0x40 DUP1 MLOAD PUSH1 0x20 PUSH1 0x1F PUSH1 0x2 PUSH1 0x0 NOT PUSH2 0x100 PUSH1 0x1 DUP9 AND ISZERO MUL ADD SWAP1 SWAP6 AND SWAP5 SWAP1 SWAP5 DIV SWAP4 DUP5 ADD DUP2 SWAP1 DIV DUP2 MUL DUP3 ADD DUP2 ADD SWAP1 SWAP3 MSTORE DUP3 DUP2 MSTORE PUSH1 0x60 SWAP4 SWAP1 SWAP3 SWAP1 SWAP2 DUP4 ADD DUP3 DUP3 DUP1 ISZERO PUSH2 0xF1D JUMPI DUP1 PUSH1 0x1F LT PUSH2 0xEF2 JUMPI PUSH2 0x100 DUP1 DUP4 SLOAD DIV MUL DUP4 MSTORE SWAP2 PUSH1 0x20 ADD SWAP2 PUSH2 0xF1D JUMP JUMPDEST DUP3 ADD SWAP2 SWAP1 PUSH1 0x0 MSTORE PUSH1 0x20 PUSH1 0x0 KECCAK256 SWAP1 JUMPDEST DUP2 SLOAD DUP2 MSTORE SWAP1 PUSH1 0x1 ADD SWAP1 PUSH1 0x20 ADD DUP1 DUP4 GT PUSH2 0xF00 JUMPI DUP3 SWAP1 SUB PUSH1 0x1F AND DUP3 ADD SWAP2 JUMPDEST POP POP POP POP POP SWAP1 POP SWAP1 JUMP JUMPDEST PUSH1 0x7 PUSH1 0x20 MSTORE PUSH1 0x0 SWAP1 DUP2 MSTORE PUSH1 0x40 SWAP1 KECCAK256 SLOAD PUSH1 0xFF AND DUP2 JUMP JUMPDEST PUSH2 0xF44 PUSH2 0x3BA1 JUMP JUMPDEST PUSH2 0xF4F DUP5 DUP5 DUP5 PUSH2 0x1419 JUMP JUMPDEST SWAP1 POP DUP3 DUP2 PUSH1 0x20 ADD MLOAD EQ PUSH1 0x60 PUSH1 0x40 MLOAD SWAP1 DUP2 ADD PUSH1 0x40 MSTORE DUP1 PUSH1 0x33 DUP2 MSTORE PUSH1 0x20 ADD PUSH32 0x446573697265642066696C6C20616D6F756E7420636F756C64206E6F74206265 DUP2 MSTORE PUSH1 0x20 ADD PUSH1 0x69 PUSH1 0x2 EXP PUSH19 0x1031B7B6B83632BA32B63C903334B63632B217 MUL DUP2 MSTORE POP SWAP1 ISZERO ISZERO PUSH2 0xFD1 JUMPI PUSH1 0x40 MLOAD PUSH1 0xE5 PUSH1 0x2 EXP PUSH3 0x461BCD MUL DUP2 MSTORE PUSH1 0x4 ADD PUSH2 0x713 SWAP2 SWAP1 PUSH2 0x46EE JUMP JUMPDEST POP JUMPDEST SWAP4 SWAP3 POP POP POP JUMP JUMPDEST PUSH1 0x2 PUSH1 0x20 MSTORE PUSH1 0x0 SWAP1 DUP2 MSTORE PUSH1 0x40 SWAP1 KECCAK256 SLOAD DUP2 JUMP JUMPDEST PUSH1 0x0 PUSH2 0xFF6 PUSH2 0x3BA1 JUMP JUMPDEST PUSH1 0x0 DUP1 DUP5 ISZERO ISZERO PUSH2 0x100A JUMPI PUSH1 0x4 JUMPDEST SWAP4 POP PUSH2 0x10B9 JUMP JUMPDEST PUSH1 0xFF DUP8 AND PUSH1 0xB EQ PUSH2 0x101D JUMPI DUP7 SWAP4 POP PUSH2 0x10B9 JUMP JUMPDEST PUSH2 0x102B DUP9 PUSH1 0xA0 ADD MLOAD DUP8 PUSH2 0x2C90 JUMP JUMPDEST SWAP2 POP PUSH2 0x1037 DUP6 DUP4 PUSH2 0x2CA2 JUMP JUMPDEST SWAP1 POP PUSH2 0x104C DUP2 DUP10 PUSH1 0xA0 ADD MLOAD DUP11 PUSH1 0x80 ADD MLOAD PUSH2 0x2CB8 JUMP JUMPDEST ISZERO PUSH2 0x1058 JUMPI PUSH1 0x2 PUSH2 0x1003 JUMP JUMPDEST PUSH1 0x20 DUP4 ADD DUP2 SWAP1 MSTORE PUSH1 0xA0 DUP9 ADD MLOAD PUSH1 0x80 DUP10 ADD MLOAD PUSH2 0x1074 SWAP2 DUP4 SWAP2 PUSH2 0x2D0E JUMP JUMPDEST DUP4 MSTORE PUSH1 0x20 DUP4 ADD MLOAD PUSH1 0xA0 DUP10 ADD MLOAD PUSH1 0xC0 DUP11 ADD MLOAD PUSH2 0x1090 SWAP3 SWAP2 SWAP1 PUSH2 0x2D0E JUMP JUMPDEST PUSH1 0x40 DUP5 ADD MSTORE PUSH1 0x20 DUP4 ADD MLOAD PUSH1 0xA0 DUP10 ADD MLOAD PUSH1 0xE0 DUP11 ADD MLOAD PUSH2 0x10AF SWAP3 SWAP2 SWAP1 PUSH2 0x2D0E JUMP JUMPDEST PUSH1 0x60 DUP5 ADD MSTORE PUSH1 0x1 SWAP4 POP JUMPDEST POP POP SWAP5 POP SWAP5 SWAP3 POP POP POP JUMP JUMPDEST PUSH1 0x0 PUSH2 0x10CE PUSH2 0x21DD JUMP JUMPDEST PUSH1 0x1 PUSH1 0xA0 PUSH1 0x2 EXP SUB SWAP1 DUP2 AND PUSH1 0x0 SWAP1 DUP2 MSTORE PUSH1 0x6 PUSH1 0x20 SWAP1 DUP2 MSTORE PUSH1 0x40 DUP1 DUP4 KECCAK256 SWAP7 SWAP1 SWAP4 AND DUP3 MSTORE SWAP5 SWAP1 SWAP5 MSTORE SWAP1 SWAP3 KECCAK256 DUP1 SLOAD PUSH1 0xFF NOT AND SWAP2 ISZERO ISZERO SWAP2 SWAP1 SWAP2 OR SWAP1 SSTORE POP JUMP JUMPDEST PUSH1 0x6 PUSH1 0x20 SWAP1 DUP2 MSTORE PUSH1 0x0 SWAP3 DUP4 MSTORE PUSH1 0x40 DUP1 DUP5 KECCAK256 SWAP1 SWAP2 MSTORE SWAP1 DUP3 MSTORE SWAP1 KECCAK256 SLOAD PUSH1 0xFF AND DUP2 JUMP JUMPDEST PUSH2 0x1131 PUSH2 0x3BA1 JUMP JUMPDEST PUSH1 0x0 DUP1 PUSH2 0x113C PUSH2 0x3BA1 JUMP JUMPDEST PUSH1 0x0 SWAP3 POP JUMPDEST DUP7 MLOAD DUP4 LT ISZERO PUSH2 0x124F JUMPI PUSH2 0x118D DUP8 DUP5 DUP2 MLOAD DUP2 LT ISZERO ISZERO PUSH2 0x115B JUMPI INVALID JUMPDEST SWAP1 PUSH1 0x20 ADD SWAP1 PUSH1 0x20 MUL ADD MLOAD PUSH2 0x160 ADD MLOAD DUP9 PUSH1 0x0 DUP2 MLOAD DUP2 LT ISZERO ISZERO PUSH2 0x1179 JUMPI INVALID JUMPDEST SWAP1 PUSH1 0x20 ADD SWAP1 PUSH1 0x20 MUL ADD MLOAD PUSH2 0x160 ADD MLOAD PUSH2 0x2D2B JUMP JUMPDEST PUSH1 0x60 PUSH1 0x40 MLOAD SWAP1 DUP2 ADD PUSH1 0x40 MSTORE DUP1 PUSH1 0x2B DUP2 MSTORE PUSH1 0x20 ADD PUSH1 0x0 DUP1 MLOAD PUSH1 0x20 PUSH2 0x49E4 DUP4 CODECOPY DUP2 MLOAD SWAP2 MSTORE DUP2 MSTORE PUSH1 0x20 ADD PUSH1 0xA9 PUSH1 0x2 EXP PUSH11 0x32B0B1B41037B93232B917 MUL DUP2 MSTORE POP SWAP1 ISZERO ISZERO PUSH2 0x11EC JUMPI PUSH1 0x40 MLOAD PUSH1 0xE5 PUSH1 0x2 EXP PUSH3 0x461BCD MUL DUP2 MSTORE PUSH1 0x4 ADD PUSH2 0x713 SWAP2 SWAP1 PUSH2 0x46EE JUMP JUMPDEST POP PUSH2 0x11FB DUP7 DUP6 PUSH1 0x20 ADD MLOAD PUSH2 0x2C90 JUMP JUMPDEST SWAP2 POP PUSH2 0x1227 DUP8 DUP5 DUP2 MLOAD DUP2 LT ISZERO ISZERO PUSH2 0x120E JUMPI INVALID JUMPDEST SWAP1 PUSH1 0x20 ADD SWAP1 PUSH1 0x20 MUL ADD MLOAD DUP4 DUP8 DUP7 DUP2 MLOAD DUP2 LT ISZERO ISZERO PUSH2 0x660 JUMPI INVALID JUMPDEST SWAP1 POP PUSH2 0x1233 DUP5 DUP3 PUSH2 0x2D72 JUMP JUMPDEST DUP6 DUP5 PUSH1 0x20 ADD MLOAD EQ ISZERO PUSH2 0x1244 JUMPI PUSH2 0x124F JUMP JUMPDEST PUSH1 0x1 SWAP1 SWAP3 ADD SWAP2 PUSH2 0x1141 JUMP JUMPDEST POP POP POP SWAP4 SWAP3 POP POP POP JUMP JUMPDEST PUSH1 0x5 PUSH1 0x20 SWAP1 DUP2 MSTORE PUSH1 0x0 SWAP3 DUP4 MSTORE PUSH1 0x40 DUP1 DUP5 KECCAK256 SWAP1 SWAP2 MSTORE SWAP1 DUP3 MSTORE SWAP1 KECCAK256 SLOAD PUSH1 0xFF AND DUP2 JUMP JUMPDEST PUSH1 0x3 SLOAD PUSH1 0x1 PUSH1 0xA0 PUSH1 0x2 EXP SUB AND DUP2 JUMP JUMPDEST PUSH1 0xFF AND PUSH1 0x0 SWAP1 DUP2 MSTORE PUSH1 0x9 PUSH1 0x20 MSTORE PUSH1 0x40 SWAP1 KECCAK256 SLOAD PUSH1 0x1 PUSH1 0xA0 PUSH1 0x2 EXP SUB AND SWAP1 JUMP JUMPDEST PUSH2 0x12AE PUSH2 0x3BA1 JUMP JUMPDEST PUSH1 0x0 DUP1 PUSH1 0x0 PUSH2 0x12BB PUSH2 0x3BA1 JUMP JUMPDEST PUSH1 0x0 SWAP4 POP JUMPDEST DUP8 MLOAD DUP5 LT ISZERO PUSH2 0x140E JUMPI PUSH2 0x130C DUP9 DUP6 DUP2 MLOAD DUP2 LT ISZERO ISZERO PUSH2 0x12DA JUMPI INVALID JUMPDEST SWAP1 PUSH1 0x20 ADD SWAP1 PUSH1 0x20 MUL ADD MLOAD PUSH2 0x140 ADD MLOAD DUP10 PUSH1 0x0 DUP2 MLOAD DUP2 LT ISZERO ISZERO PUSH2 0x12F8 JUMPI INVALID JUMPDEST SWAP1 PUSH1 0x20 ADD SWAP1 PUSH1 0x20 MUL ADD MLOAD PUSH2 0x140 ADD MLOAD PUSH2 0x2D2B JUMP JUMPDEST PUSH1 0x60 PUSH1 0x40 MLOAD SWAP1 DUP2 ADD PUSH1 0x40 MSTORE DUP1 PUSH1 0x2B DUP2 MSTORE PUSH1 0x20 ADD PUSH1 0x0 DUP1 MLOAD PUSH1 0x20 PUSH2 0x49E4 DUP4 CODECOPY DUP2 MLOAD SWAP2 MSTORE DUP2 MSTORE PUSH1 0x20 ADD PUSH1 0xA9 PUSH1 0x2 EXP PUSH11 0x32B0B1B41037B93232B917 MUL DUP2 MSTORE POP SWAP1 ISZERO ISZERO PUSH2 0x136B JUMPI PUSH1 0x40 MLOAD PUSH1 0xE5 PUSH1 0x2 EXP PUSH3 0x461BCD MUL DUP2 MSTORE PUSH1 0x4 ADD PUSH2 0x713 SWAP2 SWAP1 PUSH2 0x46EE JUMP JUMPDEST POP PUSH2 0x137A DUP8 DUP7 PUSH1 0x0 ADD MLOAD PUSH2 0x2C90 JUMP JUMPDEST SWAP3 POP PUSH2 0x13BD DUP9 DUP6 DUP2 MLOAD DUP2 LT ISZERO ISZERO PUSH2 0x138D JUMPI INVALID JUMPDEST SWAP1 PUSH1 0x20 ADD SWAP1 PUSH1 0x20 MUL ADD MLOAD PUSH1 0xA0 ADD MLOAD DUP10 DUP7 DUP2 MLOAD DUP2 LT ISZERO ISZERO PUSH2 0x13A9 JUMPI INVALID JUMPDEST SWAP1 PUSH1 0x20 ADD SWAP1 PUSH1 0x20 MUL ADD MLOAD PUSH1 0x80 ADD MLOAD DUP6 PUSH2 0x2D0E JUMP JUMPDEST SWAP2 POP PUSH2 0x13E9 DUP9 DUP6 DUP2 MLOAD DUP2 LT ISZERO ISZERO PUSH2 0x13D0 JUMPI INVALID JUMPDEST SWAP1 PUSH1 0x20 ADD SWAP1 PUSH1 0x20 MUL ADD MLOAD DUP4 DUP9 DUP8 DUP2 MLOAD DUP2 LT ISZERO ISZERO PUSH2 0xC33 JUMPI INVALID JUMPDEST SWAP1 POP PUSH2 0x13F5 DUP6 DUP3 PUSH2 0x2D72 JUMP JUMPDEST DUP5 MLOAD DUP8 EQ ISZERO PUSH2 0x1403 JUMPI PUSH2 0x140E JUMP JUMPDEST PUSH1 0x1 SWAP1 SWAP4 ADD SWAP3 PUSH2 0x12C0 JUMP JUMPDEST POP POP POP POP SWAP4 SWAP3 POP POP POP JUMP JUMPDEST PUSH2 0x1421 PUSH2 0x3BA1 JUMP JUMPDEST PUSH2 0x1429 PUSH2 0x3B81 JUMP JUMPDEST PUSH1 0x0 DUP1 PUSH2 0x1435 DUP8 PUSH2 0x17A1 JUMP JUMPDEST SWAP3 POP PUSH2 0x143F PUSH2 0x21DD JUMP JUMPDEST SWAP2 POP PUSH2 0x145C DUP8 DUP5 PUSH1 0x0 ADD MLOAD DUP6 PUSH1 0x20 ADD MLOAD DUP6 DUP8 PUSH1 0x40 ADD MLOAD DUP12 DUP12 PUSH2 0x25A1 JUMP JUMPDEST PUSH2 0x1470 DUP8 DUP5 PUSH1 0x0 ADD MLOAD DUP6 PUSH1 0x40 ADD MLOAD DUP10 PUSH2 0xFEC JUMP JUMPDEST SWAP5 POP SWAP1 POP PUSH1 0xFF DUP2 AND PUSH1 0x1 EQ PUSH2 0x14AF JUMPI PUSH1 0x20 DUP4 ADD MLOAD PUSH1 0x40 MLOAD PUSH1 0xFF DUP4 AND SWAP1 PUSH1 0x0 DUP1 MLOAD PUSH1 0x20 PUSH2 0x4A04 DUP4 CODECOPY DUP2 MLOAD SWAP2 MSTORE SWAP1 PUSH1 0x0 SWAP1 LOG3 PUSH2 0x14A8 PUSH2 0x2DD4 JUMP JUMPDEST SWAP4 POP PUSH2 0x124F JUMP JUMPDEST PUSH2 0x14BA DUP8 DUP4 DUP7 PUSH2 0x2E07 JUMP JUMPDEST PUSH2 0x124F DUP8 DUP4 DUP6 PUSH1 0x20 ADD MLOAD DUP7 PUSH1 0x40 ADD MLOAD DUP9 PUSH2 0x2BF3 JUMP JUMPDEST PUSH1 0x8 SLOAD PUSH1 0x40 DUP1 MLOAD PUSH1 0x60 DUP2 ADD DUP3 MSTORE PUSH1 0x3F DUP2 MSTORE PUSH32 0x60657865637574655472616E73616374696F6E60206973206E6F7420616C6C6F PUSH1 0x20 DUP3 ADD MSTORE PUSH32 0x77656420746F2063616C6C20697473656C66207265637572736976656C792E00 SWAP2 DUP2 ADD SWAP2 SWAP1 SWAP2 MSTORE PUSH1 0x0 SWAP2 PUSH1 0x1 PUSH1 0xA0 PUSH1 0x2 EXP SUB AND ISZERO PUSH2 0x155B JUMPI PUSH1 0x40 MLOAD PUSH1 0xE5 PUSH1 0x2 EXP PUSH3 0x461BCD MUL DUP2 MSTORE PUSH1 0x4 ADD PUSH2 0x713 SWAP2 SWAP1 PUSH2 0x46EE JUMP JUMPDEST POP ADDRESS DUP7 DUP9 DUP8 DUP8 PUSH1 0x40 MLOAD DUP1 DUP7 PUSH1 0x1 PUSH1 0xA0 PUSH1 0x2 EXP SUB AND PUSH1 0x1 PUSH1 0xA0 PUSH1 0x2 EXP SUB AND PUSH1 0x60 PUSH1 0x2 EXP MUL DUP2 MSTORE PUSH1 0x14 ADD DUP6 PUSH1 0x1 PUSH1 0xA0 PUSH1 0x2 EXP SUB AND PUSH1 0x1 PUSH1 0xA0 PUSH1 0x2 EXP SUB AND PUSH1 0x60 PUSH1 0x2 EXP MUL DUP2 MSTORE PUSH1 0x14 ADD DUP5 DUP2 MSTORE PUSH1 0x20 ADD DUP4 DUP4 DUP1 DUP3 DUP5 CALLDATACOPY PUSH1 0x40 DUP1 MLOAD SWAP2 SWAP1 SWAP4 ADD DUP2 SWAP1 SUB DUP2 KECCAK256 PUSH1 0x0 DUP2 DUP2 MSTORE PUSH1 0x7 PUSH1 0x20 SWAP1 DUP2 MSTORE SWAP1 DUP6 SWAP1 KECCAK256 SLOAD PUSH1 0x60 DUP5 ADD DUP7 MSTORE PUSH1 0x26 DUP5 MSTORE PUSH32 0x5472616E73616374696F6E2068617320616C7265616479206265656E20657865 SWAP2 DUP5 ADD SWAP2 SWAP1 SWAP2 MSTORE PUSH1 0xD1 PUSH1 0x2 EXP PUSH6 0x31BABA32B217 MUL SWAP5 DUP4 ADD SWAP5 SWAP1 SWAP5 MSTORE SWAP10 POP SWAP8 POP POP PUSH1 0xFF AND ISZERO SWAP5 POP PUSH2 0x1641 SWAP4 POP POP POP POP JUMPI PUSH1 0x40 MLOAD PUSH1 0xE5 PUSH1 0x2 EXP PUSH3 0x461BCD MUL DUP2 MSTORE PUSH1 0x4 ADD PUSH2 0x713 SWAP2 SWAP1 PUSH2 0x46EE JUMP JUMPDEST POP PUSH1 0x1 PUSH1 0xA0 PUSH1 0x2 EXP SUB DUP7 AND CALLER EQ PUSH2 0x16EF JUMPI PUSH2 0x168D DUP2 DUP8 DUP6 DUP6 DUP1 DUP1 PUSH1 0x1F ADD PUSH1 0x20 DUP1 SWAP2 DIV MUL PUSH1 0x20 ADD PUSH1 0x40 MLOAD SWAP1 DUP2 ADD PUSH1 0x40 MSTORE DUP1 SWAP4 SWAP3 SWAP2 SWAP1 DUP2 DUP2 MSTORE PUSH1 0x20 ADD DUP4 DUP4 DUP1 DUP3 DUP5 CALLDATACOPY POP PUSH2 0x1B43 SWAP5 POP POP POP POP POP JUMP JUMPDEST PUSH1 0x40 DUP1 MLOAD DUP1 DUP3 ADD SWAP1 SWAP2 MSTORE PUSH1 0x1C DUP2 MSTORE PUSH1 0x0 DUP1 MLOAD PUSH1 0x20 PUSH2 0x4964 DUP4 CODECOPY DUP2 MLOAD SWAP2 MSTORE PUSH1 0x20 DUP3 ADD MSTORE SWAP1 ISZERO ISZERO PUSH2 0x16D2 JUMPI PUSH1 0x40 MLOAD PUSH1 0xE5 PUSH1 0x2 EXP PUSH3 0x461BCD MUL DUP2 MSTORE PUSH1 0x4 ADD PUSH2 0x713 SWAP2 SWAP1 PUSH2 0x46EE JUMP JUMPDEST POP PUSH1 0x8 DUP1 SLOAD PUSH1 0x1 PUSH1 0xA0 PUSH1 0x2 EXP SUB NOT AND PUSH1 0x1 PUSH1 0xA0 PUSH1 0x2 EXP SUB DUP9 AND OR SWAP1 SSTORE JUMPDEST PUSH1 0x0 DUP2 DUP2 MSTORE PUSH1 0x7 PUSH1 0x20 MSTORE PUSH1 0x40 SWAP1 DUP2 SWAP1 KECCAK256 DUP1 SLOAD PUSH1 0xFF NOT AND PUSH1 0x1 OR SWAP1 SSTORE MLOAD ADDRESS SWAP1 DUP7 SWAP1 DUP7 SWAP1 DUP1 DUP4 DUP4 DUP1 DUP3 DUP5 CALLDATACOPY DUP3 ADD SWAP2 POP POP SWAP3 POP POP POP PUSH1 0x0 PUSH1 0x40 MLOAD DUP1 DUP4 SUB DUP2 DUP6 GAS DELEGATECALL PUSH1 0x40 DUP1 MLOAD DUP1 DUP3 ADD SWAP1 SWAP2 MSTORE PUSH1 0x1D DUP2 MSTORE PUSH32 0x5472616E73616374696F6E20657865637574696F6E206661696C65642E000000 PUSH1 0x20 DUP3 ADD MSTORE SWAP3 POP ISZERO ISZERO SWAP1 POP PUSH2 0x1787 JUMPI PUSH1 0x40 MLOAD PUSH1 0xE5 PUSH1 0x2 EXP PUSH3 0x461BCD MUL DUP2 MSTORE PUSH1 0x4 ADD PUSH2 0x713 SWAP2 SWAP1 PUSH2 0x46EE JUMP JUMPDEST POP POP PUSH1 0x8 DUP1 SLOAD PUSH1 0x1 PUSH1 0xA0 PUSH1 0x2 EXP SUB NOT AND SWAP1 SSTORE POP POP POP POP POP POP JUMP JUMPDEST PUSH2 0x17A9 PUSH2 0x3B81 JUMP JUMPDEST PUSH2 0x17B2 DUP3 PUSH2 0x2F81 JUMP JUMPDEST PUSH1 0x20 DUP3 ADD MSTORE PUSH1 0x80 DUP3 ADD MLOAD ISZERO ISZERO PUSH2 0x17CF JUMPI PUSH1 0x9 JUMPDEST PUSH1 0xFF AND DUP2 MSTORE PUSH2 0x1877 JUMP JUMPDEST PUSH1 0xA0 DUP3 ADD MLOAD ISZERO ISZERO PUSH2 0x17E1 JUMPI PUSH1 0xA PUSH2 0x17C5 JUMP JUMPDEST PUSH2 0x100 DUP3 ADD MLOAD TIMESTAMP LT PUSH2 0x17F4 JUMPI PUSH1 0xC PUSH2 0x17C5 JUMP JUMPDEST PUSH1 0x20 DUP1 DUP3 ADD MLOAD PUSH1 0x0 SWAP1 DUP2 MSTORE PUSH1 0x1 SWAP1 SWAP2 MSTORE PUSH1 0x40 SWAP1 KECCAK256 SLOAD PUSH1 0xFF AND ISZERO PUSH2 0x1818 JUMPI PUSH1 0xE PUSH2 0x17C5 JUMP JUMPDEST PUSH2 0x120 DUP3 ADD MLOAD DUP3 MLOAD PUSH1 0x1 PUSH1 0xA0 PUSH1 0x2 EXP SUB AND PUSH1 0x0 SWAP1 DUP2 MSTORE PUSH1 0x2 PUSH1 0x20 MSTORE PUSH1 0x40 SWAP1 KECCAK256 SLOAD GT ISZERO PUSH2 0x1845 JUMPI PUSH1 0xE PUSH2 0x17C5 JUMP JUMPDEST PUSH1 0x20 DUP1 DUP3 ADD MLOAD PUSH1 0x0 SWAP1 DUP2 MSTORE SWAP1 DUP2 SWAP1 MSTORE PUSH1 0x40 SWAP1 DUP2 SWAP1 KECCAK256 SLOAD SWAP1 DUP3 ADD DUP2 SWAP1 MSTORE PUSH1 0xA0 DUP4 ADD MLOAD GT PUSH2 0x1872 JUMPI PUSH1 0xD PUSH2 0x17C5 JUMP JUMPDEST PUSH1 0xB DUP2 MSTORE JUMPDEST SWAP2 SWAP1 POP JUMP JUMPDEST PUSH1 0x0 PUSH2 0x1886 PUSH2 0x3B81 JUMP JUMPDEST PUSH2 0x188F DUP4 PUSH2 0x17A1 JUMP JUMPDEST SWAP1 POP PUSH2 0x18A4 DUP4 DUP3 PUSH1 0x0 ADD MLOAD DUP4 PUSH1 0x20 ADD MLOAD PUSH2 0x33EA JUMP JUMPDEST PUSH2 0xFD3 DUP4 DUP3 PUSH1 0x0 ADD MLOAD DUP4 PUSH1 0x20 ADD MLOAD PUSH2 0x359B JUMP JUMPDEST PUSH2 0x18BF PUSH2 0x3BA1 JUMP JUMPDEST PUSH1 0x0 DUP1 PUSH2 0x18CA PUSH2 0x3BA1 JUMP JUMPDEST PUSH1 0x0 SWAP3 POP JUMPDEST DUP7 MLOAD DUP4 LT ISZERO PUSH2 0x124F JUMPI PUSH2 0x18E9 DUP8 DUP5 DUP2 MLOAD DUP2 LT ISZERO ISZERO PUSH2 0x115B JUMPI INVALID JUMPDEST PUSH1 0x60 PUSH1 0x40 MLOAD SWAP1 DUP2 ADD PUSH1 0x40 MSTORE DUP1 PUSH1 0x2B DUP2 MSTORE PUSH1 0x20 ADD PUSH1 0x0 DUP1 MLOAD PUSH1 0x20 PUSH2 0x49E4 DUP4 CODECOPY DUP2 MLOAD SWAP2 MSTORE DUP2 MSTORE PUSH1 0x20 ADD PUSH1 0xA9 PUSH1 0x2 EXP PUSH11 0x32B0B1B41037B93232B917 MUL DUP2 MSTORE POP SWAP1 ISZERO ISZERO PUSH2 0x1948 JUMPI PUSH1 0x40 MLOAD PUSH1 0xE5 PUSH1 0x2 EXP PUSH3 0x461BCD MUL DUP2 MSTORE PUSH1 0x4 ADD PUSH2 0x713 SWAP2 SWAP1 PUSH2 0x46EE JUMP JUMPDEST POP PUSH2 0x1957 DUP7 DUP6 PUSH1 0x20 ADD MLOAD PUSH2 0x2C90 JUMP JUMPDEST SWAP2 POP PUSH2 0x1983 DUP8 DUP5 DUP2 MLOAD DUP2 LT ISZERO ISZERO PUSH2 0x196A JUMPI INVALID JUMPDEST SWAP1 PUSH1 0x20 ADD SWAP1 PUSH1 0x20 MUL ADD MLOAD DUP4 DUP8 DUP7 DUP2 MLOAD DUP2 LT ISZERO ISZERO PUSH2 0xC33 JUMPI INVALID JUMPDEST SWAP1 POP PUSH2 0x198F DUP5 DUP3 PUSH2 0x2D72 JUMP JUMPDEST DUP6 DUP5 PUSH1 0x20 ADD MLOAD EQ ISZERO PUSH2 0x19A0 JUMPI PUSH2 0x124F JUMP JUMPDEST PUSH1 0x1 SWAP1 SWAP3 ADD SWAP2 PUSH2 0x18CF JUMP JUMPDEST PUSH2 0x19B3 PUSH2 0x3BA1 JUMP JUMPDEST PUSH1 0x0 DUP1 PUSH1 0x0 PUSH2 0x19C0 PUSH2 0x3BA1 JUMP JUMPDEST PUSH1 0x0 SWAP4 POP JUMPDEST DUP8 MLOAD DUP5 LT ISZERO PUSH2 0x140E JUMPI PUSH2 0x19DF DUP9 DUP6 DUP2 MLOAD DUP2 LT ISZERO ISZERO PUSH2 0x12DA JUMPI INVALID JUMPDEST PUSH1 0x60 PUSH1 0x40 MLOAD SWAP1 DUP2 ADD PUSH1 0x40 MSTORE DUP1 PUSH1 0x2B DUP2 MSTORE PUSH1 0x20 ADD PUSH1 0x0 DUP1 MLOAD PUSH1 0x20 PUSH2 0x49E4 DUP4 CODECOPY DUP2 MLOAD SWAP2 MSTORE DUP2 MSTORE PUSH1 0x20 ADD PUSH1 0xA9 PUSH1 0x2 EXP PUSH11 0x32B0B1B41037B93232B917 MUL DUP2 MSTORE POP SWAP1 ISZERO ISZERO PUSH2 0x1A3E JUMPI PUSH1 0x40 MLOAD PUSH1 0xE5 PUSH1 0x2 EXP PUSH3 0x461BCD MUL DUP2 MSTORE PUSH1 0x4 ADD PUSH2 0x713 SWAP2 SWAP1 PUSH2 0x46EE JUMP JUMPDEST POP PUSH2 0x1A4D DUP8 DUP7 PUSH1 0x0 ADD MLOAD PUSH2 0x2C90 JUMP JUMPDEST SWAP3 POP PUSH2 0x1A60 DUP9 DUP6 DUP2 MLOAD DUP2 LT ISZERO ISZERO PUSH2 0x138D JUMPI INVALID JUMPDEST SWAP2 POP PUSH2 0x1A8C DUP9 DUP6 DUP2 MLOAD DUP2 LT ISZERO ISZERO PUSH2 0x1A73 JUMPI INVALID JUMPDEST SWAP1 PUSH1 0x20 ADD SWAP1 PUSH1 0x20 MUL ADD MLOAD DUP4 DUP9 DUP8 DUP2 MLOAD DUP2 LT ISZERO ISZERO PUSH2 0x660 JUMPI INVALID JUMPDEST SWAP1 POP PUSH2 0x1A98 DUP6 DUP3 PUSH2 0x2D72 JUMP JUMPDEST DUP5 MLOAD DUP8 EQ ISZERO PUSH2 0x1AA6 JUMPI PUSH2 0x140E JUMP JUMPDEST PUSH1 0x1 SWAP1 SWAP4 ADD SWAP3 PUSH2 0x19C5 JUMP JUMPDEST PUSH1 0x8 SLOAD PUSH1 0x1 PUSH1 0xA0 PUSH1 0x2 EXP SUB AND DUP2 JUMP JUMPDEST PUSH1 0x3 SLOAD PUSH1 0x1 PUSH1 0xA0 PUSH1 0x2 EXP SUB AND CALLER EQ PUSH2 0x1AED JUMPI PUSH1 0x40 MLOAD PUSH1 0xE5 PUSH1 0x2 EXP PUSH3 0x461BCD MUL DUP2 MSTORE PUSH1 0x4 ADD PUSH2 0x713 SWAP1 PUSH2 0x475F JUMP JUMPDEST PUSH1 0x1 PUSH1 0xA0 PUSH1 0x2 EXP SUB DUP2 AND ISZERO PUSH2 0x1B18 JUMPI PUSH1 0x3 DUP1 SLOAD PUSH1 0x1 PUSH1 0xA0 PUSH1 0x2 EXP SUB NOT AND PUSH1 0x1 PUSH1 0xA0 PUSH1 0x2 EXP SUB DUP4 AND OR SWAP1 SSTORE JUMPDEST POP JUMP JUMPDEST PUSH1 0x40 DUP1 MLOAD DUP1 DUP3 ADD SWAP1 SWAP2 MSTORE PUSH1 0xB DUP2 MSTORE PUSH1 0xA8 PUSH1 0x2 EXP PUSH11 0x322E302E312D616C706861 MUL PUSH1 0x20 DUP3 ADD MSTORE DUP2 JUMP JUMPDEST PUSH1 0x0 DUP1 PUSH1 0x0 DUP1 PUSH1 0x0 DUP1 PUSH1 0x0 PUSH1 0x1 DUP9 MLOAD LT ISZERO PUSH1 0x40 DUP1 MLOAD SWAP1 DUP2 ADD PUSH1 0x40 MSTORE DUP1 PUSH1 0x19 DUP2 MSTORE PUSH1 0x20 ADD PUSH1 0x0 DUP1 MLOAD PUSH1 0x20 PUSH2 0x4904 DUP4 CODECOPY DUP2 MLOAD SWAP2 MSTORE DUP2 MSTORE POP SWAP1 ISZERO ISZERO PUSH2 0x1B9B JUMPI PUSH1 0x40 MLOAD PUSH1 0xE5 PUSH1 0x2 EXP PUSH3 0x461BCD MUL DUP2 MSTORE PUSH1 0x4 ADD PUSH2 0x713 SWAP2 SWAP1 PUSH2 0x46EE JUMP JUMPDEST POP PUSH2 0x1BA5 DUP9 PUSH2 0x364F JUMP JUMPDEST PUSH1 0xF8 PUSH1 0x2 EXP SWAP1 DIV PUSH1 0xFF AND PUSH1 0x8 DUP2 GT ISZERO PUSH2 0x1BBA JUMPI INVALID JUMPDEST SWAP6 POP PUSH1 0x0 DUP7 PUSH1 0x8 DUP2 GT ISZERO PUSH2 0x1BCA JUMPI INVALID JUMPDEST EQ ISZERO PUSH2 0x1C1B JUMPI PUSH1 0x40 DUP1 MLOAD DUP1 DUP3 ADD DUP3 MSTORE PUSH1 0x17 DUP2 MSTORE PUSH1 0x49 PUSH1 0x2 EXP PUSH23 0x24B63632B3B0B61039B4B3B730BA3AB932903A3CB83297 MUL PUSH1 0x20 DUP3 ADD MSTORE SWAP1 MLOAD PUSH1 0xE5 PUSH1 0x2 EXP PUSH3 0x461BCD MUL DUP2 MSTORE PUSH2 0x713 SWAP2 SWAP1 PUSH1 0x4 ADD PUSH2 0x46EE JUMP JUMPDEST PUSH1 0x1 DUP7 PUSH1 0x8 DUP2 GT ISZERO PUSH2 0x1C29 JUMPI INVALID JUMPDEST EQ ISZERO PUSH2 0x1C7F JUMPI DUP8 MLOAD PUSH1 0x40 DUP1 MLOAD DUP1 DUP3 ADD SWAP1 SWAP2 MSTORE PUSH1 0x19 DUP2 MSTORE PUSH1 0x0 DUP1 MLOAD PUSH1 0x20 PUSH2 0x4904 DUP4 CODECOPY DUP2 MLOAD SWAP2 MSTORE PUSH1 0x20 DUP3 ADD MSTORE SWAP1 ISZERO PUSH2 0x1C75 JUMPI PUSH1 0x40 MLOAD PUSH1 0xE5 PUSH1 0x2 EXP PUSH3 0x461BCD MUL DUP2 MSTORE PUSH1 0x4 ADD PUSH2 0x713 SWAP2 SWAP1 PUSH2 0x46EE JUMP JUMPDEST POP PUSH1 0x0 SWAP7 POP PUSH2 0x21D0 JUMP JUMPDEST PUSH1 0x2 DUP7 PUSH1 0x8 DUP2 GT ISZERO PUSH2 0x1C8D JUMPI INVALID JUMPDEST EQ ISZERO PUSH2 0x1D83 JUMPI DUP8 MLOAD PUSH1 0x40 DUP1 MLOAD DUP1 DUP3 ADD SWAP1 SWAP2 MSTORE PUSH1 0x19 DUP2 MSTORE PUSH1 0x0 DUP1 MLOAD PUSH1 0x20 PUSH2 0x4904 DUP4 CODECOPY DUP2 MLOAD SWAP2 MSTORE PUSH1 0x20 DUP3 ADD MSTORE SWAP1 PUSH1 0x41 EQ PUSH2 0x1CDB JUMPI PUSH1 0x40 MLOAD PUSH1 0xE5 PUSH1 0x2 EXP PUSH3 0x461BCD MUL DUP2 MSTORE PUSH1 0x4 ADD PUSH2 0x713 SWAP2 SWAP1 PUSH2 0x46EE JUMP JUMPDEST POP DUP8 PUSH1 0x0 DUP2 MLOAD DUP2 LT ISZERO ISZERO PUSH2 0x1CEB JUMPI INVALID JUMPDEST ADD PUSH1 0x20 ADD MLOAD PUSH1 0xF8 PUSH1 0x2 EXP SWAP1 DUP2 SWAP1 DIV DUP2 MUL DIV SWAP5 POP PUSH2 0x1D09 DUP9 PUSH1 0x1 PUSH2 0x36C7 JUMP JUMPDEST SWAP4 POP PUSH2 0x1D16 DUP9 PUSH1 0x21 PUSH2 0x36C7 JUMP JUMPDEST SWAP3 POP PUSH1 0x1 DUP11 DUP7 DUP7 DUP7 PUSH1 0x40 MLOAD PUSH1 0x0 DUP2 MSTORE PUSH1 0x20 ADD PUSH1 0x40 MSTORE PUSH1 0x40 MLOAD PUSH2 0x1D3B SWAP5 SWAP4 SWAP3 SWAP2 SWAP1 PUSH2 0x46B9 JUMP JUMPDEST PUSH1 0x20 PUSH1 0x40 MLOAD PUSH1 0x20 DUP2 SUB SWAP1 DUP1 DUP5 SUB SWAP1 PUSH1 0x0 DUP7 GAS CALL ISZERO DUP1 ISZERO PUSH2 0x1D5F JUMPI RETURNDATASIZE PUSH1 0x0 DUP1 RETURNDATACOPY RETURNDATASIZE PUSH1 0x0 REVERT JUMPDEST POP POP PUSH1 0x40 MLOAD PUSH1 0x1F NOT ADD MLOAD PUSH1 0x1 PUSH1 0xA0 PUSH1 0x2 EXP SUB DUP12 DUP2 AND SWAP1 DUP3 AND EQ SWAP9 POP SWAP3 POP PUSH2 0x21D0 SWAP1 POP JUMP JUMPDEST PUSH1 0x3 DUP7 PUSH1 0x8 DUP2 GT ISZERO PUSH2 0x1D91 JUMPI INVALID JUMPDEST EQ ISZERO PUSH2 0x1E76 JUMPI DUP8 MLOAD PUSH1 0x40 DUP1 MLOAD DUP1 DUP3 ADD SWAP1 SWAP2 MSTORE PUSH1 0x19 DUP2 MSTORE PUSH1 0x0 DUP1 MLOAD PUSH1 0x20 PUSH2 0x4904 DUP4 CODECOPY DUP2 MLOAD SWAP2 MSTORE PUSH1 0x20 DUP3 ADD MSTORE SWAP1 PUSH1 0x41 EQ PUSH2 0x1DDF JUMPI PUSH1 0x40 MLOAD PUSH1 0xE5 PUSH1 0x2 EXP PUSH3 0x461BCD MUL DUP2 MSTORE PUSH1 0x4 ADD PUSH2 0x713 SWAP2 SWAP1 PUSH2 0x46EE JUMP JUMPDEST POP DUP8 PUSH1 0x0 DUP2 MLOAD DUP2 LT ISZERO ISZERO PUSH2 0x1DEF JUMPI INVALID JUMPDEST ADD PUSH1 0x20 ADD MLOAD PUSH1 0xF8 PUSH1 0x2 EXP SWAP1 DUP2 SWAP1 DIV DUP2 MUL DIV SWAP5 POP PUSH2 0x1E0D DUP9 PUSH1 0x1 PUSH2 0x36C7 JUMP JUMPDEST SWAP4 POP PUSH2 0x1E1A DUP9 PUSH1 0x21 PUSH2 0x36C7 JUMP JUMPDEST PUSH1 0x40 DUP1 MLOAD PUSH32 0x19457468657265756D205369676E6564204D6573736167653A0A333200000000 DUP2 MSTORE PUSH1 0x1C DUP2 ADD DUP14 SWAP1 MSTORE DUP2 MLOAD SWAP1 DUP2 SWAP1 SUB PUSH1 0x3C ADD DUP2 KECCAK256 PUSH1 0x0 DUP3 MSTORE PUSH1 0x20 SWAP2 SWAP1 SWAP2 ADD SWAP2 DUP3 SWAP1 MSTORE SWAP2 SWAP5 POP PUSH1 0x1 SWAP2 PUSH2 0x1D3B SWAP2 DUP9 SWAP1 DUP9 SWAP1 DUP9 SWAP1 PUSH2 0x46B9 JUMP JUMPDEST PUSH1 0x4 DUP7 PUSH1 0x8 DUP2 GT ISZERO PUSH2 0x1E84 JUMPI INVALID JUMPDEST EQ ISZERO PUSH2 0x1EE4 JUMPI DUP8 MLOAD PUSH1 0x40 DUP1 MLOAD DUP1 DUP3 ADD SWAP1 SWAP2 MSTORE PUSH1 0x19 DUP2 MSTORE PUSH1 0x0 DUP1 MLOAD PUSH1 0x20 PUSH2 0x4904 DUP4 CODECOPY DUP2 MLOAD SWAP2 MSTORE PUSH1 0x20 DUP3 ADD MSTORE SWAP1 ISZERO PUSH2 0x1ED0 JUMPI PUSH1 0x40 MLOAD PUSH1 0xE5 PUSH1 0x2 EXP PUSH3 0x461BCD MUL DUP2 MSTORE PUSH1 0x4 ADD PUSH2 0x713 SWAP2 SWAP1 PUSH2 0x46EE JUMP JUMPDEST POP PUSH1 0x1 PUSH1 0xA0 PUSH1 0x2 EXP SUB DUP10 AND CALLER EQ SWAP7 POP PUSH2 0x21D0 JUMP JUMPDEST PUSH1 0x5 DUP7 PUSH1 0x8 DUP2 GT ISZERO PUSH2 0x1EF2 JUMPI INVALID JUMPDEST EQ ISZERO PUSH2 0x1F82 JUMPI PUSH1 0x40 MLOAD PUSH1 0xE1 PUSH1 0x2 EXP PUSH4 0xB135D3F MUL DUP2 MSTORE PUSH1 0x1 PUSH1 0xA0 PUSH1 0x2 EXP SUB DUP11 AND SWAP1 PUSH4 0x1626BA7E SWAP1 PUSH2 0x1F29 SWAP1 DUP14 SWAP1 DUP13 SWAP1 PUSH1 0x4 ADD PUSH2 0x4699 JUMP JUMPDEST PUSH1 0x20 PUSH1 0x40 MLOAD DUP1 DUP4 SUB DUP2 PUSH1 0x0 DUP8 DUP1 EXTCODESIZE ISZERO DUP1 ISZERO PUSH2 0x1F43 JUMPI PUSH1 0x0 DUP1 REVERT JUMPDEST POP GAS CALL ISZERO DUP1 ISZERO PUSH2 0x1F57 JUMPI RETURNDATASIZE PUSH1 0x0 DUP1 RETURNDATACOPY RETURNDATASIZE PUSH1 0x0 REVERT JUMPDEST POP POP POP POP PUSH1 0x40 MLOAD RETURNDATASIZE PUSH1 0x1F NOT PUSH1 0x1F DUP3 ADD AND DUP3 ADD DUP1 PUSH1 0x40 MSTORE POP PUSH2 0x1F7B SWAP2 SWAP1 DUP2 ADD SWAP1 PUSH2 0x40BE JUMP JUMPDEST SWAP7 POP PUSH2 0x21D0 JUMP JUMPDEST PUSH1 0x6 DUP7 PUSH1 0x8 DUP2 GT ISZERO PUSH2 0x1F90 JUMPI INVALID JUMPDEST EQ ISZERO PUSH2 0x200D JUMPI PUSH2 0x1F9F DUP9 PUSH2 0x373A JUMP JUMPDEST PUSH1 0x1 PUSH1 0xA0 PUSH1 0x2 EXP SUB DUP1 DUP12 AND PUSH1 0x0 SWAP1 DUP2 MSTORE PUSH1 0x6 PUSH1 0x20 SWAP1 DUP2 MSTORE PUSH1 0x40 DUP1 DUP4 KECCAK256 SWAP4 DUP6 AND DUP4 MSTORE SWAP3 SWAP1 MSTORE KECCAK256 SLOAD SWAP1 SWAP2 POP PUSH1 0xFF AND ISZERO ISZERO PUSH2 0x1FDA JUMPI PUSH1 0x0 SWAP7 POP PUSH2 0x21D0 JUMP JUMPDEST PUSH1 0x40 MLOAD PUSH1 0xE1 PUSH1 0x2 EXP PUSH4 0x49B1A381 MUL DUP2 MSTORE PUSH1 0x1 PUSH1 0xA0 PUSH1 0x2 EXP SUB DUP3 AND SWAP1 PUSH4 0x93634702 SWAP1 PUSH2 0x1F29 SWAP1 DUP14 SWAP1 DUP14 SWAP1 DUP14 SWAP1 PUSH1 0x4 ADD PUSH2 0x4663 JUMP JUMPDEST PUSH1 0x7 DUP7 PUSH1 0x8 DUP2 GT ISZERO PUSH2 0x201B JUMPI INVALID JUMPDEST EQ ISZERO PUSH2 0x204E JUMPI PUSH1 0x0 DUP11 DUP2 MSTORE PUSH1 0x5 PUSH1 0x20 SWAP1 DUP2 MSTORE PUSH1 0x40 DUP1 DUP4 KECCAK256 PUSH1 0x1 PUSH1 0xA0 PUSH1 0x2 EXP SUB DUP14 AND DUP5 MSTORE SWAP1 SWAP2 MSTORE SWAP1 KECCAK256 SLOAD PUSH1 0xFF AND SWAP7 POP PUSH2 0x21D0 JUMP JUMPDEST PUSH1 0x8 DUP7 PUSH1 0x8 DUP2 GT ISZERO PUSH2 0x205C JUMPI INVALID JUMPDEST EQ ISZERO PUSH2 0x2141 JUMPI DUP8 MLOAD PUSH1 0x40 DUP1 MLOAD DUP1 DUP3 ADD SWAP1 SWAP2 MSTORE PUSH1 0x19 DUP2 MSTORE PUSH1 0x0 DUP1 MLOAD PUSH1 0x20 PUSH2 0x4904 DUP4 CODECOPY DUP2 MLOAD SWAP2 MSTORE PUSH1 0x20 DUP3 ADD MSTORE SWAP1 PUSH1 0x41 EQ PUSH2 0x20AA JUMPI PUSH1 0x40 MLOAD PUSH1 0xE5 PUSH1 0x2 EXP PUSH3 0x461BCD MUL DUP2 MSTORE PUSH1 0x4 ADD PUSH2 0x713 SWAP2 SWAP1 PUSH2 0x46EE JUMP JUMPDEST POP DUP8 PUSH1 0x0 DUP2 MLOAD DUP2 LT ISZERO ISZERO PUSH2 0x20BA JUMPI INVALID JUMPDEST ADD PUSH1 0x20 ADD MLOAD PUSH1 0xF8 PUSH1 0x2 EXP SWAP1 DUP2 SWAP1 DIV DUP2 MUL DIV SWAP5 POP PUSH2 0x20D8 DUP9 PUSH1 0x1 PUSH2 0x36C7 JUMP JUMPDEST SWAP4 POP PUSH2 0x20E5 DUP9 PUSH1 0x21 PUSH2 0x36C7 JUMP JUMPDEST PUSH1 0x40 DUP1 MLOAD PUSH32 0x19457468657265756D205369676E6564204D6573736167653A0A410000000000 DUP2 MSTORE PUSH1 0x1B DUP2 ADD DUP14 SWAP1 MSTORE DUP2 MLOAD SWAP1 DUP2 SWAP1 SUB PUSH1 0x3B ADD DUP2 KECCAK256 PUSH1 0x0 DUP3 MSTORE PUSH1 0x20 SWAP2 SWAP1 SWAP2 ADD SWAP2 DUP3 SWAP1 MSTORE SWAP2 SWAP5 POP PUSH1 0x1 SWAP2 PUSH2 0x1D3B SWAP2 DUP9 SWAP1 DUP9 SWAP1 DUP9 SWAP1 PUSH2 0x46B9 JUMP JUMPDEST PUSH1 0x7 DUP7 PUSH1 0x8 DUP2 GT ISZERO PUSH2 0x214F JUMPI INVALID JUMPDEST EQ ISZERO PUSH2 0x2182 JUMPI PUSH1 0x0 DUP11 DUP2 MSTORE PUSH1 0x5 PUSH1 0x20 SWAP1 DUP2 MSTORE PUSH1 0x40 DUP1 DUP4 KECCAK256 PUSH1 0x1 PUSH1 0xA0 PUSH1 0x2 EXP SUB DUP14 AND DUP5 MSTORE SWAP1 SWAP2 MSTORE SWAP1 KECCAK256 SLOAD PUSH1 0xFF AND SWAP7 POP PUSH2 0x21D0 JUMP JUMPDEST PUSH1 0x40 DUP1 MLOAD DUP1 DUP3 ADD DUP3 MSTORE PUSH1 0x1B DUP2 MSTORE PUSH32 0x556E737570706F72746564207369676E617475726520747970652E0000000000 PUSH1 0x20 DUP3 ADD MSTORE SWAP1 MLOAD PUSH1 0xE5 PUSH1 0x2 EXP PUSH3 0x461BCD MUL DUP2 MSTORE PUSH2 0x713 SWAP2 SWAP1 PUSH1 0x4 ADD PUSH2 0x46EE JUMP JUMPDEST POP POP POP POP POP POP SWAP4 SWAP3 POP POP POP JUMP JUMPDEST PUSH1 0x8 SLOAD PUSH1 0x0 SWAP1 DUP2 SWAP1 PUSH1 0x1 PUSH1 0xA0 PUSH1 0x2 EXP SUB AND ISZERO PUSH2 0x2204 JUMPI PUSH1 0x8 SLOAD PUSH1 0x1 PUSH1 0xA0 PUSH1 0x2 EXP SUB AND PUSH2 0x2206 JUMP JUMPDEST CALLER JUMPDEST SWAP3 SWAP2 POP POP JUMP JUMPDEST PUSH2 0x2220 DUP3 PUSH2 0x140 ADD MLOAD DUP3 PUSH2 0x160 ADD MLOAD PUSH2 0x2D2B JUMP JUMPDEST PUSH1 0x80 PUSH1 0x40 MLOAD SWAP1 DUP2 ADD PUSH1 0x40 MSTORE DUP1 PUSH1 0x41 DUP2 MSTORE PUSH1 0x20 ADD PUSH32 0x4C656674206F72646572206D616B657220617373657420697320646966666572 DUP2 MSTORE PUSH1 0x20 ADD PUSH32 0x656E742066726F6D207269676874206F726465722074616B6572206173736574 DUP2 MSTORE PUSH1 0x20 ADD PUSH1 0xF9 PUSH1 0x2 EXP PUSH1 0x17 MUL DUP2 MSTORE POP SWAP1 ISZERO ISZERO PUSH2 0x22AD JUMPI PUSH1 0x40 MLOAD PUSH1 0xE5 PUSH1 0x2 EXP PUSH3 0x461BCD MUL DUP2 MSTORE PUSH1 0x4 ADD PUSH2 0x713 SWAP2 SWAP1 PUSH2 0x46EE JUMP JUMPDEST POP PUSH2 0x22C2 DUP3 PUSH2 0x160 ADD MLOAD DUP3 PUSH2 0x140 ADD MLOAD PUSH2 0x2D2B JUMP JUMPDEST PUSH1 0x80 PUSH1 0x40 MLOAD SWAP1 DUP2 ADD PUSH1 0x40 MSTORE DUP1 PUSH1 0x41 DUP2 MSTORE PUSH1 0x20 ADD PUSH32 0x4C656674206F726465722074616B657220617373657420697320646966666572 DUP2 MSTORE PUSH1 0x20 ADD PUSH32 0x656E742066726F6D207269676874206F72646572206D616B6572206173736574 DUP2 MSTORE PUSH1 0x20 ADD PUSH1 0xF9 PUSH1 0x2 EXP PUSH1 0x17 MUL DUP2 MSTORE POP SWAP1 ISZERO ISZERO PUSH2 0x234F JUMPI PUSH1 0x40 MLOAD PUSH1 0xE5 PUSH1 0x2 EXP PUSH3 0x461BCD MUL DUP2 MSTORE PUSH1 0x4 ADD PUSH2 0x713 SWAP2 SWAP1 PUSH2 0x46EE JUMP JUMPDEST POP PUSH2 0x2362 DUP3 PUSH1 0xA0 ADD MLOAD DUP3 PUSH1 0xA0 ADD MLOAD PUSH2 0x37BD JUMP JUMPDEST PUSH2 0x2374 DUP4 PUSH1 0x80 ADD MLOAD DUP4 PUSH1 0x80 ADD MLOAD PUSH2 0x37BD JUMP JUMPDEST LT ISZERO PUSH1 0x60 PUSH1 0x40 MLOAD SWAP1 DUP2 ADD PUSH1 0x40 MSTORE DUP1 PUSH1 0x2B DUP2 MSTORE PUSH1 0x20 ADD PUSH32 0x4D617463686564206F7264657273206D7573742068617665206120706F736974 DUP2 MSTORE PUSH1 0x20 ADD PUSH1 0xA9 PUSH1 0x2 EXP PUSH11 0x34BB329039B83932B0B217 MUL DUP2 MSTORE POP SWAP1 ISZERO ISZERO PUSH2 0x23E7 JUMPI PUSH1 0x40 MLOAD PUSH1 0xE5 PUSH1 0x2 EXP PUSH3 0x461BCD MUL DUP2 MSTORE PUSH1 0x4 ADD PUSH2 0x713 SWAP2 SWAP1 PUSH2 0x46EE JUMP JUMPDEST POP POP POP JUMP JUMPDEST PUSH2 0x23F4 PUSH2 0x3B52 JUMP JUMPDEST PUSH1 0x0 DUP1 PUSH1 0x0 DUP1 PUSH1 0x0 PUSH2 0x240A DUP12 PUSH1 0xA0 ADD MLOAD DUP9 PUSH2 0x2C90 JUMP JUMPDEST SWAP5 POP PUSH2 0x241A DUP13 PUSH1 0xA0 ADD MLOAD DUP10 PUSH2 0x2C90 JUMP JUMPDEST SWAP4 POP PUSH2 0x242A DUP6 DUP13 PUSH1 0x80 ADD MLOAD PUSH2 0x37BD JUMP JUMPDEST PUSH2 0x2438 DUP6 DUP14 PUSH1 0xA0 ADD MLOAD PUSH2 0x37BD JUMP JUMPDEST GT PUSH2 0x245A JUMPI DUP4 SWAP3 POP PUSH2 0x2453 DUP12 PUSH1 0xA0 ADD MLOAD DUP13 PUSH1 0x80 ADD MLOAD DUP6 PUSH2 0x37E1 JUMP JUMPDEST SWAP2 POP PUSH2 0x2473 JUMP JUMPDEST DUP5 SWAP2 POP PUSH2 0x2470 DUP12 PUSH1 0x80 ADD MLOAD DUP13 PUSH1 0xA0 ADD MLOAD DUP5 PUSH2 0x37E1 JUMP JUMPDEST SWAP3 POP JUMPDEST PUSH2 0x247F DUP13 DUP12 DUP11 DUP7 PUSH2 0xFEC JUMP JUMPDEST DUP8 MSTORE PUSH1 0x40 DUP1 MLOAD PUSH1 0x60 DUP2 ADD DUP3 MSTORE PUSH1 0x30 DUP2 MSTORE PUSH1 0x0 DUP1 MLOAD PUSH1 0x20 PUSH2 0x48C4 DUP4 CODECOPY DUP2 MLOAD SWAP2 MSTORE PUSH1 0x20 DUP3 ADD MSTORE PUSH1 0x81 PUSH1 0x2 EXP PUSH16 0x103337B9103632B33A1037B93232B917 MUL SWAP2 DUP2 ADD SWAP2 SWAP1 SWAP2 MSTORE SWAP1 SWAP2 POP PUSH1 0xFF DUP3 AND PUSH1 0x1 EQ PUSH2 0x24EB JUMPI PUSH1 0x40 MLOAD PUSH1 0xE5 PUSH1 0x2 EXP PUSH3 0x461BCD MUL DUP2 MSTORE PUSH1 0x4 ADD PUSH2 0x713 SWAP2 SWAP1 PUSH2 0x46EE JUMP JUMPDEST POP PUSH2 0x24F8 DUP12 DUP11 DUP10 DUP6 PUSH2 0xFEC JUMP JUMPDEST PUSH1 0x20 DUP9 ADD MSTORE SWAP1 POP PUSH1 0x1 PUSH1 0xFF AND DUP2 PUSH1 0xFF AND EQ PUSH1 0x60 PUSH1 0x40 MLOAD SWAP1 DUP2 ADD PUSH1 0x40 MSTORE DUP1 PUSH1 0x31 DUP2 MSTORE PUSH1 0x20 ADD PUSH1 0x0 DUP1 MLOAD PUSH1 0x20 PUSH2 0x48C4 DUP4 CODECOPY DUP2 MLOAD SWAP2 MSTORE DUP2 MSTORE PUSH1 0x20 ADD PUSH1 0x79 PUSH1 0x2 EXP PUSH17 0x103337B9103934B3B43A1037B93232B917 MUL DUP2 MSTORE POP SWAP1 ISZERO ISZERO PUSH2 0x256E JUMPI PUSH1 0x40 MLOAD PUSH1 0xE5 PUSH1 0x2 EXP PUSH3 0x461BCD MUL DUP2 MSTORE PUSH1 0x4 ADD PUSH2 0x713 SWAP2 SWAP1 PUSH2 0x46EE JUMP JUMPDEST POP DUP6 MLOAD MLOAD PUSH1 0x20 DUP1 DUP9 ADD MLOAD ADD MLOAD PUSH2 0x2584 SWAP2 SWAP1 PUSH2 0x2C90 JUMP JUMPDEST PUSH1 0x40 DUP8 ADD MSTORE PUSH2 0x2592 DUP7 PUSH2 0x3876 JUMP JUMPDEST POP POP POP POP POP SWAP7 SWAP6 POP POP POP POP POP POP JUMP JUMPDEST PUSH1 0x40 DUP1 MLOAD PUSH1 0x60 DUP2 ADD DUP3 MSTORE PUSH1 0x3C DUP2 MSTORE PUSH1 0x0 DUP1 MLOAD PUSH1 0x20 PUSH2 0x4944 DUP4 CODECOPY DUP2 MLOAD SWAP2 MSTORE PUSH1 0x20 DUP3 ADD MSTORE PUSH1 0x0 DUP1 MLOAD PUSH1 0x20 PUSH2 0x4A24 DUP4 CODECOPY DUP2 MLOAD SWAP2 MSTORE SWAP2 DUP2 ADD SWAP2 SWAP1 SWAP2 MSTORE PUSH1 0xFF DUP8 AND PUSH1 0x9 EQ ISZERO PUSH2 0x2601 JUMPI PUSH1 0x40 MLOAD PUSH1 0xE5 PUSH1 0x2 EXP PUSH3 0x461BCD MUL DUP2 MSTORE PUSH1 0x4 ADD PUSH2 0x713 SWAP2 SWAP1 PUSH2 0x46EE JUMP JUMPDEST POP PUSH1 0x40 DUP1 MLOAD PUSH1 0x60 DUP2 ADD DUP3 MSTORE PUSH1 0x3C DUP2 MSTORE PUSH1 0x0 DUP1 MLOAD PUSH1 0x20 PUSH2 0x4984 DUP4 CODECOPY DUP2 MLOAD SWAP2 MSTORE PUSH1 0x20 DUP3 ADD MSTORE PUSH1 0x0 DUP1 MLOAD PUSH1 0x20 PUSH2 0x4A24 DUP4 CODECOPY DUP2 MLOAD SWAP2 MSTORE SWAP2 DUP2 ADD SWAP2 SWAP1 SWAP2 MSTORE PUSH1 0xFF DUP8 AND PUSH1 0xA EQ ISZERO PUSH2 0x2662 JUMPI PUSH1 0x40 MLOAD PUSH1 0xE5 PUSH1 0x2 EXP PUSH3 0x461BCD MUL DUP2 MSTORE PUSH1 0x4 ADD PUSH2 0x713 SWAP2 SWAP1 PUSH2 0x46EE JUMP JUMPDEST POP DUP3 ISZERO ISZERO PUSH2 0x26C0 JUMPI PUSH2 0x2679 DUP6 DUP9 PUSH1 0x0 ADD MLOAD DUP4 PUSH2 0x1B43 JUMP JUMPDEST PUSH1 0x40 DUP1 MLOAD DUP1 DUP3 ADD SWAP1 SWAP2 MSTORE PUSH1 0x1C DUP2 MSTORE PUSH1 0x0 DUP1 MLOAD PUSH1 0x20 PUSH2 0x4964 DUP4 CODECOPY DUP2 MLOAD SWAP2 MSTORE PUSH1 0x20 DUP3 ADD MSTORE SWAP1 ISZERO ISZERO PUSH2 0x26BE JUMPI PUSH1 0x40 MLOAD PUSH1 0xE5 PUSH1 0x2 EXP PUSH3 0x461BCD MUL DUP2 MSTORE PUSH1 0x4 ADD PUSH2 0x713 SWAP2 SWAP1 PUSH2 0x46EE JUMP JUMPDEST POP JUMPDEST PUSH1 0x60 DUP8 ADD MLOAD PUSH1 0x1 PUSH1 0xA0 PUSH1 0x2 EXP SUB AND ISZERO PUSH2 0x2735 JUMPI PUSH1 0x60 DUP8 ADD MLOAD PUSH1 0x40 DUP1 MLOAD DUP1 DUP3 ADD SWAP1 SWAP2 MSTORE PUSH1 0x15 DUP2 MSTORE PUSH1 0x59 PUSH1 0x2 EXP PUSH21 0x24B73B30B634B2103036B9B39739B2B73232B93017 MUL PUSH1 0x20 DUP3 ADD MSTORE SWAP1 PUSH1 0x1 PUSH1 0xA0 PUSH1 0x2 EXP SUB AND CALLER EQ PUSH2 0x2733 JUMPI PUSH1 0x40 MLOAD PUSH1 0xE5 PUSH1 0x2 EXP PUSH3 0x461BCD MUL DUP2 MSTORE PUSH1 0x4 ADD PUSH2 0x713 SWAP2 SWAP1 PUSH2 0x46EE JUMP JUMPDEST POP JUMPDEST PUSH1 0x20 DUP8 ADD MLOAD PUSH1 0x1 PUSH1 0xA0 PUSH1 0x2 EXP SUB AND ISZERO PUSH2 0x27BD JUMPI DUP4 PUSH1 0x1 PUSH1 0xA0 PUSH1 0x2 EXP SUB AND DUP8 PUSH1 0x20 ADD MLOAD PUSH1 0x1 PUSH1 0xA0 PUSH1 0x2 EXP SUB AND EQ PUSH1 0x60 PUSH1 0x40 MLOAD SWAP1 DUP2 ADD PUSH1 0x40 MSTORE DUP1 PUSH1 0x26 DUP2 MSTORE PUSH1 0x20 ADD PUSH1 0x0 DUP1 MLOAD PUSH1 0x20 PUSH2 0x49A4 DUP4 CODECOPY DUP2 MLOAD SWAP2 MSTORE DUP2 MSTORE PUSH1 0x20 ADD PUSH1 0xD1 PUSH1 0x2 EXP PUSH6 0x373A32BC3A17 MUL DUP2 MSTORE POP SWAP1 ISZERO ISZERO PUSH2 0x27BB JUMPI PUSH1 0x40 MLOAD PUSH1 0xE5 PUSH1 0x2 EXP PUSH3 0x461BCD MUL DUP2 MSTORE PUSH1 0x4 ADD PUSH2 0x713 SWAP2 SWAP1 PUSH2 0x46EE JUMP JUMPDEST POP JUMPDEST PUSH1 0x40 DUP1 MLOAD DUP1 DUP3 ADD SWAP1 SWAP2 MSTORE PUSH1 0x1E DUP2 MSTORE PUSH32 0x416D6F756E74206D7573742062652067726561746572207468616E20302E0000 PUSH1 0x20 DUP3 ADD MSTORE PUSH1 0x0 DUP4 GT PUSH2 0x2815 JUMPI PUSH1 0x40 MLOAD PUSH1 0xE5 PUSH1 0x2 EXP PUSH3 0x461BCD MUL DUP2 MSTORE PUSH1 0x4 ADD PUSH2 0x713 SWAP2 SWAP1 PUSH2 0x46EE JUMP JUMPDEST POP POP POP POP POP POP POP POP JUMP JUMPDEST PUSH2 0x2840 DUP5 PUSH2 0x140 ADD MLOAD DUP6 PUSH1 0x0 ADD MLOAD DUP6 PUSH1 0x0 ADD MLOAD DUP5 PUSH1 0x20 ADD MLOAD PUSH1 0x20 ADD MLOAD PUSH2 0x39A7 JUMP JUMPDEST PUSH2 0x140 DUP4 ADD MLOAD DUP4 MLOAD DUP6 MLOAD DUP4 MLOAD PUSH1 0x20 ADD MLOAD PUSH2 0x285C SWAP4 SWAP3 SWAP2 SWAP1 PUSH2 0x39A7 JUMP JUMPDEST PUSH2 0x2875 DUP5 PUSH2 0x140 ADD MLOAD DUP6 PUSH1 0x0 ADD MLOAD DUP5 DUP5 PUSH1 0x40 ADD MLOAD PUSH2 0x39A7 JUMP JUMPDEST PUSH1 0x4 DUP1 SLOAD PUSH1 0x40 DUP1 MLOAD PUSH1 0x20 PUSH1 0x1F PUSH1 0x2 PUSH1 0x0 NOT PUSH2 0x100 PUSH1 0x1 DUP9 AND ISZERO MUL ADD SWAP1 SWAP6 AND SWAP5 SWAP1 SWAP5 DIV SWAP4 DUP5 ADD DUP2 SWAP1 DIV DUP2 MUL DUP3 ADD DUP2 ADD SWAP1 SWAP3 MSTORE DUP3 DUP2 MSTORE PUSH2 0x291F SWAP4 SWAP1 SWAP3 SWAP1 SWAP2 DUP4 ADD DUP3 DUP3 DUP1 ISZERO PUSH2 0x2902 JUMPI DUP1 PUSH1 0x1F LT PUSH2 0x28D7 JUMPI PUSH2 0x100 DUP1 DUP4 SLOAD DIV MUL DUP4 MSTORE SWAP2 PUSH1 0x20 ADD SWAP2 PUSH2 0x2902 JUMP JUMPDEST DUP3 ADD SWAP2 SWAP1 PUSH1 0x0 MSTORE PUSH1 0x20 PUSH1 0x0 KECCAK256 SWAP1 JUMPDEST DUP2 SLOAD DUP2 MSTORE SWAP1 PUSH1 0x1 ADD SWAP1 PUSH1 0x20 ADD DUP1 DUP4 GT PUSH2 0x28E5 JUMPI DUP3 SWAP1 SUB PUSH1 0x1F AND DUP3 ADD SWAP2 JUMPDEST POP POP POP POP POP DUP6 PUSH1 0x0 ADD MLOAD DUP7 PUSH1 0x40 ADD MLOAD DUP5 PUSH1 0x0 ADD MLOAD PUSH1 0x40 ADD MLOAD PUSH2 0x39A7 JUMP JUMPDEST PUSH1 0x4 DUP1 SLOAD PUSH1 0x40 DUP1 MLOAD PUSH1 0x20 PUSH1 0x1F PUSH1 0x2 PUSH1 0x0 NOT PUSH2 0x100 PUSH1 0x1 DUP9 AND ISZERO MUL ADD SWAP1 SWAP6 AND SWAP5 SWAP1 SWAP5 DIV SWAP4 DUP5 ADD DUP2 SWAP1 DIV DUP2 MUL DUP3 ADD DUP2 ADD SWAP1 SWAP3 MSTORE DUP3 DUP2 MSTORE PUSH2 0x29C9 SWAP4 SWAP1 SWAP3 SWAP1 SWAP2 DUP4 ADD DUP3 DUP3 DUP1 ISZERO PUSH2 0x29AC JUMPI DUP1 PUSH1 0x1F LT PUSH2 0x2981 JUMPI PUSH2 0x100 DUP1 DUP4 SLOAD DIV MUL DUP4 MSTORE SWAP2 PUSH1 0x20 ADD SWAP2 PUSH2 0x29AC JUMP JUMPDEST DUP3 ADD SWAP2 SWAP1 PUSH1 0x0 MSTORE PUSH1 0x20 PUSH1 0x0 KECCAK256 SWAP1 JUMPDEST DUP2 SLOAD DUP2 MSTORE SWAP1 PUSH1 0x1 ADD SWAP1 PUSH1 0x20 ADD DUP1 DUP4 GT PUSH2 0x298F JUMPI DUP3 SWAP1 SUB PUSH1 0x1F AND DUP3 ADD SWAP2 JUMPDEST POP POP POP POP POP DUP5 PUSH1 0x0 ADD MLOAD DUP6 PUSH1 0x40 ADD MLOAD DUP5 PUSH1 0x20 ADD MLOAD PUSH1 0x40 ADD MLOAD PUSH2 0x39A7 JUMP JUMPDEST DUP3 PUSH1 0x40 ADD MLOAD PUSH1 0x1 PUSH1 0xA0 PUSH1 0x2 EXP SUB AND DUP5 PUSH1 0x40 ADD MLOAD PUSH1 0x1 PUSH1 0xA0 PUSH1 0x2 EXP SUB AND EQ ISZERO PUSH2 0x2AA7 JUMPI PUSH1 0x4 DUP1 SLOAD PUSH1 0x40 DUP1 MLOAD PUSH1 0x20 PUSH1 0x1F PUSH1 0x2 PUSH1 0x0 NOT PUSH2 0x100 PUSH1 0x1 DUP9 AND ISZERO MUL ADD SWAP1 SWAP6 AND SWAP5 SWAP1 SWAP5 DIV SWAP4 DUP5 ADD DUP2 SWAP1 DIV DUP2 MUL DUP3 ADD DUP2 ADD SWAP1 SWAP3 MSTORE DUP3 DUP2 MSTORE PUSH2 0x2AA2 SWAP4 SWAP1 SWAP3 SWAP1 SWAP2 DUP4 ADD DUP3 DUP3 DUP1 ISZERO PUSH2 0x2A78 JUMPI DUP1 PUSH1 0x1F LT PUSH2 0x2A4D JUMPI PUSH2 0x100 DUP1 DUP4 SLOAD DIV MUL DUP4 MSTORE SWAP2 PUSH1 0x20 ADD SWAP2 PUSH2 0x2A78 JUMP JUMPDEST DUP3 ADD SWAP2 SWAP1 PUSH1 0x0 MSTORE PUSH1 0x20 PUSH1 0x0 KECCAK256 SWAP1 JUMPDEST DUP2 SLOAD DUP2 MSTORE SWAP1 PUSH1 0x1 ADD SWAP1 PUSH1 0x20 ADD DUP1 DUP4 GT PUSH2 0x2A5B JUMPI DUP3 SWAP1 SUB PUSH1 0x1F AND DUP3 ADD SWAP2 JUMPDEST POP POP POP POP POP DUP4 DUP7 PUSH1 0x40 ADD MLOAD PUSH2 0x2A9D DUP6 PUSH1 0x0 ADD MLOAD PUSH1 0x60 ADD MLOAD DUP7 PUSH1 0x20 ADD MLOAD PUSH1 0x60 ADD MLOAD PUSH2 0x3AB0 JUMP JUMPDEST PUSH2 0x39A7 JUMP JUMPDEST PUSH2 0x678 JUMP JUMPDEST PUSH1 0x4 DUP1 SLOAD PUSH1 0x40 DUP1 MLOAD PUSH1 0x20 PUSH1 0x1F PUSH1 0x2 PUSH1 0x0 NOT PUSH2 0x100 PUSH1 0x1 DUP9 AND ISZERO MUL ADD SWAP1 SWAP6 AND SWAP5 SWAP1 SWAP5 DIV SWAP4 DUP5 ADD DUP2 SWAP1 DIV DUP2 MUL DUP3 ADD DUP2 ADD SWAP1 SWAP3 MSTORE DUP3 DUP2 MSTORE PUSH2 0x2B4D SWAP4 SWAP1 SWAP3 SWAP1 SWAP2 DUP4 ADD DUP3 DUP3 DUP1 ISZERO PUSH2 0x2B34 JUMPI DUP1 PUSH1 0x1F LT PUSH2 0x2B09 JUMPI PUSH2 0x100 DUP1 DUP4 SLOAD DIV MUL DUP4 MSTORE SWAP2 PUSH1 0x20 ADD SWAP2 PUSH2 0x2B34 JUMP JUMPDEST DUP3 ADD SWAP2 SWAP1 PUSH1 0x0 MSTORE PUSH1 0x20 PUSH1 0x0 KECCAK256 SWAP1 JUMPDEST DUP2 SLOAD DUP2 MSTORE SWAP1 PUSH1 0x1 ADD SWAP1 PUSH1 0x20 ADD DUP1 DUP4 GT PUSH2 0x2B17 JUMPI DUP3 SWAP1 SUB PUSH1 0x1F AND DUP3 ADD SWAP2 JUMPDEST POP POP POP POP POP DUP4 DUP7 PUSH1 0x40 ADD MLOAD DUP5 PUSH1 0x0 ADD MLOAD PUSH1 0x60 ADD MLOAD PUSH2 0x39A7 JUMP JUMPDEST PUSH1 0x4 DUP1 SLOAD PUSH1 0x40 DUP1 MLOAD PUSH1 0x20 PUSH1 0x1F PUSH1 0x2 PUSH1 0x0 NOT PUSH2 0x100 PUSH1 0x1 DUP9 AND ISZERO MUL ADD SWAP1 SWAP6 AND SWAP5 SWAP1 SWAP5 DIV SWAP4 DUP5 ADD DUP2 SWAP1 DIV DUP2 MUL DUP3 ADD DUP2 ADD SWAP1 SWAP3 MSTORE DUP3 DUP2 MSTORE PUSH2 0x678 SWAP4 SWAP1 SWAP3 SWAP1 SWAP2 DUP4 ADD DUP3 DUP3 DUP1 ISZERO PUSH2 0x2BDA JUMPI DUP1 PUSH1 0x1F LT PUSH2 0x2BAF JUMPI PUSH2 0x100 DUP1 DUP4 SLOAD DIV MUL DUP4 MSTORE SWAP2 PUSH1 0x20 ADD SWAP2 PUSH2 0x2BDA JUMP JUMPDEST DUP3 ADD SWAP2 SWAP1 PUSH1 0x0 MSTORE PUSH1 0x20 PUSH1 0x0 KECCAK256 SWAP1 JUMPDEST DUP2 SLOAD DUP2 MSTORE SWAP1 PUSH1 0x1 ADD SWAP1 PUSH1 0x20 ADD DUP1 DUP4 GT PUSH2 0x2BBD JUMPI DUP3 SWAP1 SUB PUSH1 0x1F AND DUP3 ADD SWAP2 JUMPDEST POP POP POP POP POP DUP4 DUP6 PUSH1 0x40 ADD MLOAD DUP5 PUSH1 0x20 ADD MLOAD PUSH1 0x60 ADD MLOAD PUSH2 0x39A7 JUMP JUMPDEST PUSH2 0x2C01 DUP3 DUP3 PUSH1 0x20 ADD MLOAD PUSH2 0x3AB0 JUMP JUMPDEST PUSH1 0x0 DUP5 DUP2 MSTORE PUSH1 0x20 DUP2 DUP2 MSTORE PUSH1 0x40 SWAP2 DUP3 SWAP1 KECCAK256 SWAP3 SWAP1 SWAP3 SSTORE DUP7 DUP2 ADD MLOAD DUP8 MLOAD DUP5 MLOAD SWAP4 DUP6 ADD MLOAD DUP6 DUP5 ADD MLOAD PUSH1 0x60 DUP8 ADD MLOAD PUSH2 0x140 DUP13 ADD MLOAD PUSH2 0x160 DUP14 ADD MLOAD SWAP7 MLOAD DUP12 SWAP9 PUSH1 0x1 PUSH1 0xA0 PUSH1 0x2 EXP SUB SWAP8 DUP9 AND SWAP9 SWAP8 SWAP1 SWAP7 AND SWAP7 PUSH32 0xDE19F18E1B56E6EADA7ED95CCA8398B602BE32F5864640537EE9A9A3532BB29D SWAP7 PUSH2 0x2C81 SWAP7 DUP16 SWAP7 SWAP2 SWAP6 SWAP1 SWAP5 SWAP2 SWAP4 SWAP1 SWAP3 SWAP1 PUSH2 0x45E0 JUMP JUMPDEST PUSH1 0x40 MLOAD DUP1 SWAP2 SUB SWAP1 LOG4 POP POP POP POP POP JUMP JUMPDEST PUSH1 0x0 DUP3 DUP3 GT ISZERO PUSH2 0x2C9C JUMPI INVALID JUMPDEST POP SWAP1 SUB SWAP1 JUMP JUMPDEST PUSH1 0x0 DUP2 DUP4 LT PUSH2 0x2CB1 JUMPI DUP2 PUSH2 0xFD3 JUMP JUMPDEST POP SWAP1 SWAP2 SWAP1 POP JUMP JUMPDEST PUSH1 0x0 DUP1 PUSH1 0x0 DUP5 DUP1 ISZERO ISZERO PUSH2 0x2CC7 JUMPI INVALID JUMPDEST DUP7 DUP6 MULMOD SWAP2 POP DUP2 ISZERO ISZERO PUSH2 0x2CDC JUMPI PUSH1 0x0 SWAP3 POP PUSH2 0x2D05 JUMP JUMPDEST PUSH2 0x2CFB PUSH2 0x2CEC DUP4 PUSH3 0xF4240 PUSH2 0x37BD JUMP JUMPDEST PUSH2 0x2CF6 DUP9 DUP8 PUSH2 0x37BD JUMP JUMPDEST PUSH2 0x3ABF JUMP JUMPDEST PUSH2 0x3E8 DUP2 GT SWAP4 POP SWAP1 POP JUMPDEST POP POP SWAP4 SWAP3 POP POP POP JUMP JUMPDEST PUSH1 0x0 PUSH2 0x2D23 PUSH2 0x2D1D DUP6 DUP5 PUSH2 0x37BD JUMP JUMPDEST DUP5 PUSH2 0x3ABF JUMP JUMPDEST SWAP5 SWAP4 POP POP POP POP JUMP JUMPDEST PUSH1 0x0 PUSH1 0x20 PUSH1 0x1F DUP5 MLOAD ADD DIV PUSH1 0x1 DUP2 ADD SWAP1 POP PUSH1 0x0 JUMPDEST DUP2 DUP2 LT ISZERO PUSH2 0x2D6A JUMPI PUSH1 0x20 DUP2 MUL DUP6 DUP2 ADD MLOAD SWAP1 DUP6 ADD MLOAD DUP1 DUP3 EQ SWAP5 POP DUP5 PUSH2 0x2D60 JUMPI DUP4 SWAP3 POP JUMPDEST POP POP PUSH1 0x1 ADD PUSH2 0x2D3E JUMP JUMPDEST POP POP SWAP3 SWAP2 POP POP JUMP JUMPDEST DUP2 MLOAD DUP2 MLOAD PUSH2 0x2D80 SWAP2 SWAP1 PUSH2 0x3AB0 JUMP JUMPDEST DUP3 MSTORE PUSH1 0x20 DUP1 DUP4 ADD MLOAD SWAP1 DUP3 ADD MLOAD PUSH2 0x2D96 SWAP2 SWAP1 PUSH2 0x3AB0 JUMP JUMPDEST PUSH1 0x20 DUP4 ADD MSTORE PUSH1 0x40 DUP1 DUP4 ADD MLOAD SWAP1 DUP3 ADD MLOAD PUSH2 0x2DAF SWAP2 SWAP1 PUSH2 0x3AB0 JUMP JUMPDEST PUSH1 0x40 DUP4 ADD MSTORE PUSH1 0x60 DUP1 DUP4 ADD MLOAD SWAP1 DUP3 ADD MLOAD PUSH2 0x2DC8 SWAP2 SWAP1 PUSH2 0x3AB0 JUMP JUMPDEST PUSH1 0x60 SWAP1 SWAP3 ADD SWAP2 SWAP1 SWAP2 MSTORE POP JUMP JUMPDEST PUSH2 0x2DDC PUSH2 0x3BA1 JUMP JUMPDEST PUSH1 0x80 PUSH1 0x40 MLOAD SWAP1 DUP2 ADD PUSH1 0x40 MSTORE DUP1 PUSH1 0x0 DUP2 MSTORE PUSH1 0x20 ADD PUSH1 0x0 DUP2 MSTORE PUSH1 0x20 ADD PUSH1 0x0 DUP2 MSTORE PUSH1 0x20 ADD PUSH1 0x0 DUP2 MSTORE POP SWAP1 POP SWAP1 JUMP JUMPDEST PUSH2 0x2E20 DUP4 PUSH2 0x140 ADD MLOAD DUP5 PUSH1 0x0 ADD MLOAD DUP5 DUP5 PUSH1 0x0 ADD MLOAD PUSH2 0x39A7 JUMP JUMPDEST PUSH2 0x2E39 DUP4 PUSH2 0x160 ADD MLOAD DUP4 DUP6 PUSH1 0x0 ADD MLOAD DUP5 PUSH1 0x20 ADD MLOAD PUSH2 0x39A7 JUMP JUMPDEST PUSH1 0x4 DUP1 SLOAD PUSH1 0x40 DUP1 MLOAD PUSH1 0x20 PUSH1 0x1F PUSH1 0x2 PUSH1 0x0 NOT PUSH2 0x100 PUSH1 0x1 DUP9 AND ISZERO MUL ADD SWAP1 SWAP6 AND SWAP5 SWAP1 SWAP5 DIV SWAP4 DUP5 ADD DUP2 SWAP1 DIV DUP2 MUL DUP3 ADD DUP2 ADD SWAP1 SWAP3 MSTORE DUP3 DUP2 MSTORE PUSH2 0x2EDF SWAP4 SWAP1 SWAP3 SWAP1 SWAP2 DUP4 ADD DUP3 DUP3 DUP1 ISZERO PUSH2 0x2EC6 JUMPI DUP1 PUSH1 0x1F LT PUSH2 0x2E9B JUMPI PUSH2 0x100 DUP1 DUP4 SLOAD DIV MUL DUP4 MSTORE SWAP2 PUSH1 0x20 ADD SWAP2 PUSH2 0x2EC6 JUMP JUMPDEST DUP3 ADD SWAP2 SWAP1 PUSH1 0x0 MSTORE PUSH1 0x20 PUSH1 0x0 KECCAK256 SWAP1 JUMPDEST DUP2 SLOAD DUP2 MSTORE SWAP1 PUSH1 0x1 ADD SWAP1 PUSH1 0x20 ADD DUP1 DUP4 GT PUSH2 0x2EA9 JUMPI DUP3 SWAP1 SUB PUSH1 0x1F AND DUP3 ADD SWAP2 JUMPDEST POP POP POP POP POP DUP5 PUSH1 0x0 ADD MLOAD DUP6 PUSH1 0x40 ADD MLOAD DUP5 PUSH1 0x40 ADD MLOAD PUSH2 0x39A7 JUMP JUMPDEST PUSH1 0x4 DUP1 SLOAD PUSH1 0x40 DUP1 MLOAD PUSH1 0x20 PUSH1 0x1F PUSH1 0x2 PUSH1 0x0 NOT PUSH2 0x100 PUSH1 0x1 DUP9 AND ISZERO MUL ADD SWAP1 SWAP6 AND SWAP5 SWAP1 SWAP5 DIV SWAP4 DUP5 ADD DUP2 SWAP1 DIV DUP2 MUL DUP3 ADD DUP2 ADD SWAP1 SWAP3 MSTORE DUP3 DUP2 MSTORE PUSH2 0x23E7 SWAP4 SWAP1 SWAP3 SWAP1 SWAP2 DUP4 ADD DUP3 DUP3 DUP1 ISZERO PUSH2 0x2F6C JUMPI DUP1 PUSH1 0x1F LT PUSH2 0x2F41 JUMPI PUSH2 0x100 DUP1 DUP4 SLOAD DIV MUL DUP4 MSTORE SWAP2 PUSH1 0x20 ADD SWAP2 PUSH2 0x2F6C JUMP JUMPDEST DUP3 ADD SWAP2 SWAP1 PUSH1 0x0 MSTORE PUSH1 0x20 PUSH1 0x0 KECCAK256 SWAP1 JUMPDEST DUP2 SLOAD DUP2 MSTORE SWAP1 PUSH1 0x1 ADD SWAP1 PUSH1 0x20 ADD DUP1 DUP4 GT PUSH2 0x2F4F JUMPI DUP3 SWAP1 SUB PUSH1 0x1F AND DUP3 ADD SWAP2 JUMPDEST POP POP POP POP POP DUP4 DUP6 PUSH1 0x40 ADD MLOAD DUP5 PUSH1 0x60 ADD MLOAD PUSH2 0x39A7 JUMP JUMPDEST PUSH1 0x0 PUSH1 0x40 MLOAD DUP1 DUP1 PUSH32 0x446F6D61696E536570617261746F72286164647265737320636F6E7472616374 DUP2 MSTORE PUSH1 0x20 ADD PUSH1 0xF8 PUSH1 0x2 EXP PUSH1 0x29 MUL DUP2 MSTORE POP PUSH1 0x21 ADD SWAP1 POP PUSH1 0x40 MLOAD DUP1 SWAP2 SUB SWAP1 KECCAK256 ADDRESS PUSH1 0x40 MLOAD DUP1 DUP3 PUSH1 0x1 PUSH1 0xA0 PUSH1 0x2 EXP SUB AND PUSH1 0x1 PUSH1 0xA0 PUSH1 0x2 EXP SUB AND PUSH1 0x60 PUSH1 0x2 EXP MUL DUP2 MSTORE PUSH1 0x14 ADD SWAP2 POP POP PUSH1 0x40 MLOAD DUP1 SWAP2 SUB SWAP1 KECCAK256 PUSH1 0x40 MLOAD DUP1 DUP1 PUSH1 0xD3 PUSH1 0x2 EXP PUSH6 0x9EE4C8CAE45 MUL DUP2 MSTORE POP PUSH1 0x6 ADD DUP1 PUSH1 0x5A PUSH1 0x2 EXP PUSH21 0x1859191C995CDCC81B585AD95C9059191C995CDCCB MUL DUP2 MSTORE POP PUSH1 0x15 ADD DUP1 PUSH1 0x5A PUSH1 0x2 EXP PUSH21 0x1859191C995CDCC81D185AD95C9059191C995CDCCB MUL DUP2 MSTORE POP PUSH1 0x15 ADD DUP1 PUSH32 0x6164647265737320666565526563697069656E74416464726573732C00000000 DUP2 MSTORE POP PUSH1 0x1C ADD DUP1 PUSH1 0x52 PUSH1 0x2 EXP PUSH22 0x1859191C995CDCC81CD95B99195C9059191C995CDCCB MUL DUP2 MSTORE POP PUSH1 0x16 ADD DUP1 PUSH1 0x3A PUSH1 0x2 EXP PUSH25 0x1D5A5B9D0C8D4D881B585AD95C905CDCD95D105B5BDD5B9D0B MUL DUP2 MSTORE POP PUSH1 0x19 ADD DUP1 PUSH1 0x3A PUSH1 0x2 EXP PUSH25 0x1D5A5B9D0C8D4D881D185AD95C905CDCD95D105B5BDD5B9D0B MUL DUP2 MSTORE POP PUSH1 0x19 ADD DUP1 PUSH1 0x7A PUSH1 0x2 EXP PUSH17 0x1D5A5B9D0C8D4D881B585AD95C9199594B MUL DUP2 MSTORE POP PUSH1 0x11 ADD DUP1 PUSH1 0x7A PUSH1 0x2 EXP PUSH17 0x1D5A5B9D0C8D4D881D185AD95C9199594B MUL DUP2 MSTORE POP PUSH1 0x11 ADD DUP1 PUSH32 0x75696E743235362065787069726174696F6E54696D655365636F6E64732C0000 DUP2 MSTORE POP PUSH1 0x1E ADD DUP1 PUSH1 0x9A PUSH1 0x2 EXP PUSH13 0x1D5A5B9D0C8D4D881CD85B1D0B MUL DUP2 MSTORE POP PUSH1 0xD ADD DUP1 PUSH1 0x5A PUSH1 0x2 EXP PUSH21 0x189E5D195CC81B585AD95C905CDCD95D11185D184B MUL DUP2 MSTORE POP PUSH1 0x15 ADD DUP1 PUSH1 0x5A PUSH1 0x2 EXP PUSH21 0x189E5D195CC81D185AD95C905CDCD95D11185D184B MUL DUP2 MSTORE POP PUSH1 0x15 ADD DUP1 PUSH1 0xF8 PUSH1 0x2 EXP PUSH1 0x29 MUL DUP2 MSTORE POP PUSH1 0x1 ADD SWAP1 POP PUSH1 0x40 MLOAD DUP1 SWAP2 SUB SWAP1 KECCAK256 DUP5 PUSH1 0x0 ADD MLOAD DUP6 PUSH1 0x20 ADD MLOAD DUP7 PUSH1 0x40 ADD MLOAD DUP8 PUSH1 0x60 ADD MLOAD DUP9 PUSH1 0x80 ADD MLOAD DUP10 PUSH1 0xA0 ADD MLOAD DUP11 PUSH1 0xC0 ADD MLOAD DUP12 PUSH1 0xE0 ADD MLOAD DUP13 PUSH2 0x100 ADD MLOAD DUP14 PUSH2 0x120 ADD MLOAD DUP15 PUSH2 0x140 ADD MLOAD PUSH1 0x40 MLOAD DUP1 DUP3 DUP1 MLOAD SWAP1 PUSH1 0x20 ADD SWAP1 DUP1 DUP4 DUP4 JUMPDEST PUSH1 0x20 DUP4 LT PUSH2 0x3235 JUMPI DUP1 MLOAD DUP3 MSTORE PUSH1 0x1F NOT SWAP1 SWAP3 ADD SWAP2 PUSH1 0x20 SWAP2 DUP3 ADD SWAP2 ADD PUSH2 0x3216 JUMP JUMPDEST PUSH1 0x1 DUP4 PUSH1 0x20 SUB PUSH2 0x100 EXP SUB DUP1 NOT DUP3 MLOAD AND DUP2 DUP5 MLOAD AND DUP1 DUP3 OR DUP6 MSTORE POP POP POP POP POP POP SWAP1 POP ADD SWAP2 POP POP PUSH1 0x40 MLOAD DUP1 SWAP2 SUB SWAP1 KECCAK256 DUP16 PUSH2 0x160 ADD MLOAD PUSH1 0x40 MLOAD DUP1 DUP3 DUP1 MLOAD SWAP1 PUSH1 0x20 ADD SWAP1 DUP1 DUP4 DUP4 JUMPDEST PUSH1 0x20 DUP4 LT PUSH2 0x3297 JUMPI DUP1 MLOAD DUP3 MSTORE PUSH1 0x1F NOT SWAP1 SWAP3 ADD SWAP2 PUSH1 0x20 SWAP2 DUP3 ADD SWAP2 ADD PUSH2 0x3278 JUMP JUMPDEST PUSH1 0x1 DUP4 PUSH1 0x20 SUB PUSH2 0x100 EXP SUB DUP1 NOT DUP3 MLOAD AND DUP2 DUP5 MLOAD AND DUP1 DUP3 OR DUP6 MSTORE POP POP POP POP POP POP SWAP1 POP ADD SWAP2 POP POP PUSH1 0x40 MLOAD DUP1 SWAP2 SUB SWAP1 KECCAK256 PUSH1 0x40 MLOAD DUP1 DUP14 PUSH1 0x1 PUSH1 0xA0 PUSH1 0x2 EXP SUB AND PUSH1 0x1 PUSH1 0xA0 PUSH1 0x2 EXP SUB AND PUSH1 0x60 PUSH1 0x2 EXP MUL DUP2 MSTORE PUSH1 0x14 ADD DUP13 PUSH1 0x1 PUSH1 0xA0 PUSH1 0x2 EXP SUB AND PUSH1 0x1 PUSH1 0xA0 PUSH1 0x2 EXP SUB AND PUSH1 0x60 PUSH1 0x2 EXP MUL DUP2 MSTORE PUSH1 0x14 ADD DUP12 PUSH1 0x1 PUSH1 0xA0 PUSH1 0x2 EXP SUB AND PUSH1 0x1 PUSH1 0xA0 PUSH1 0x2 EXP SUB AND PUSH1 0x60 PUSH1 0x2 EXP MUL DUP2 MSTORE PUSH1 0x14 ADD DUP11 PUSH1 0x1 PUSH1 0xA0 PUSH1 0x2 EXP SUB AND PUSH1 0x1 PUSH1 0xA0 PUSH1 0x2 EXP SUB AND PUSH1 0x60 PUSH1 0x2 EXP MUL DUP2 MSTORE PUSH1 0x14 ADD DUP10 DUP2 MSTORE PUSH1 0x20 ADD DUP9 DUP2 MSTORE PUSH1 0x20 ADD DUP8 DUP2 MSTORE PUSH1 0x20 ADD DUP7 DUP2 MSTORE PUSH1 0x20 ADD DUP6 DUP2 MSTORE PUSH1 0x20 ADD DUP5 DUP2 MSTORE PUSH1 0x20 ADD DUP4 PUSH1 0x0 NOT AND PUSH1 0x0 NOT AND DUP2 MSTORE PUSH1 0x20 ADD DUP3 PUSH1 0x0 NOT AND PUSH1 0x0 NOT AND DUP2 MSTORE PUSH1 0x20 ADD SWAP13 POP POP POP POP POP POP POP POP POP POP POP POP POP PUSH1 0x40 MLOAD DUP1 SWAP2 SUB SWAP1 KECCAK256 PUSH1 0x40 MLOAD DUP1 DUP6 PUSH1 0x0 NOT AND PUSH1 0x0 NOT AND DUP2 MSTORE PUSH1 0x20 ADD DUP5 PUSH1 0x0 NOT AND PUSH1 0x0 NOT AND DUP2 MSTORE PUSH1 0x20 ADD DUP4 PUSH1 0x0 NOT AND PUSH1 0x0 NOT AND DUP2 MSTORE PUSH1 0x20 ADD DUP3 PUSH1 0x0 NOT AND PUSH1 0x0 NOT AND DUP2 MSTORE PUSH1 0x20 ADD SWAP5 POP POP POP POP POP PUSH1 0x40 MLOAD DUP1 SWAP2 SUB SWAP1 KECCAK256 SWAP1 POP DUP1 SWAP1 POP SWAP2 SWAP1 POP JUMP JUMPDEST PUSH1 0x40 DUP1 MLOAD PUSH1 0x60 DUP2 ADD DUP3 MSTORE PUSH1 0x3C DUP2 MSTORE PUSH1 0x0 DUP1 MLOAD PUSH1 0x20 PUSH2 0x4944 DUP4 CODECOPY DUP2 MLOAD SWAP2 MSTORE PUSH1 0x20 DUP3 ADD MSTORE PUSH1 0x0 DUP1 MLOAD PUSH1 0x20 PUSH2 0x4A24 DUP4 CODECOPY DUP2 MLOAD SWAP2 MSTORE SWAP2 DUP2 ADD SWAP2 SWAP1 SWAP2 MSTORE PUSH1 0x0 SWAP1 PUSH1 0xFF DUP5 AND PUSH1 0x9 EQ ISZERO PUSH2 0x344D JUMPI PUSH1 0x40 MLOAD PUSH1 0xE5 PUSH1 0x2 EXP PUSH3 0x461BCD MUL DUP2 MSTORE PUSH1 0x4 ADD PUSH2 0x713 SWAP2 SWAP1 PUSH2 0x46EE JUMP JUMPDEST POP PUSH1 0x40 DUP1 MLOAD PUSH1 0x60 DUP2 ADD DUP3 MSTORE PUSH1 0x3C DUP2 MSTORE PUSH1 0x0 DUP1 MLOAD PUSH1 0x20 PUSH2 0x4984 DUP4 CODECOPY DUP2 MLOAD SWAP2 MSTORE PUSH1 0x20 DUP3 ADD MSTORE PUSH1 0x0 DUP1 MLOAD PUSH1 0x20 PUSH2 0x4A24 DUP4 CODECOPY DUP2 MLOAD SWAP2 MSTORE SWAP2 DUP2 ADD SWAP2 SWAP1 SWAP2 MSTORE PUSH1 0xFF DUP5 AND PUSH1 0xA EQ ISZERO PUSH2 0x34AE JUMPI PUSH1 0x40 MLOAD PUSH1 0xE5 PUSH1 0x2 EXP PUSH3 0x461BCD MUL DUP2 MSTORE PUSH1 0x4 ADD PUSH2 0x713 SWAP2 SWAP1 PUSH2 0x46EE JUMP JUMPDEST POP PUSH2 0x34B7 PUSH2 0x21DD JUMP JUMPDEST DUP5 MLOAD PUSH1 0x40 DUP1 MLOAD PUSH1 0x60 DUP2 ADD DUP3 MSTORE PUSH1 0x26 DUP2 MSTORE PUSH1 0x0 DUP1 MLOAD PUSH1 0x20 PUSH2 0x49A4 DUP4 CODECOPY DUP2 MLOAD SWAP2 MSTORE PUSH1 0x20 DUP3 ADD MSTORE PUSH1 0xD1 PUSH1 0x2 EXP PUSH6 0x373A32BC3A17 MUL SWAP2 DUP2 ADD SWAP2 SWAP1 SWAP2 MSTORE SWAP2 SWAP3 POP PUSH1 0x1 PUSH1 0xA0 PUSH1 0x2 EXP SUB DUP1 DUP5 AND SWAP2 AND EQ PUSH2 0x3520 JUMPI PUSH1 0x40 MLOAD PUSH1 0xE5 PUSH1 0x2 EXP PUSH3 0x461BCD MUL DUP2 MSTORE PUSH1 0x4 ADD PUSH2 0x713 SWAP2 SWAP1 PUSH2 0x46EE JUMP JUMPDEST POP PUSH1 0x60 DUP5 ADD MLOAD PUSH1 0x1 PUSH1 0xA0 PUSH1 0x2 EXP SUB AND ISZERO PUSH2 0x678 JUMPI PUSH1 0x60 DUP5 ADD MLOAD PUSH1 0x40 DUP1 MLOAD DUP1 DUP3 ADD SWAP1 SWAP2 MSTORE PUSH1 0x15 DUP2 MSTORE PUSH1 0x59 PUSH1 0x2 EXP PUSH21 0x24B73B30B634B2103036B9B39739B2B73232B93017 MUL PUSH1 0x20 DUP3 ADD MSTORE SWAP1 PUSH1 0x1 PUSH1 0xA0 PUSH1 0x2 EXP SUB AND CALLER EQ PUSH2 0x3594 JUMPI PUSH1 0x40 MLOAD PUSH1 0xE5 PUSH1 0x2 EXP PUSH3 0x461BCD MUL DUP2 MSTORE PUSH1 0x4 ADD PUSH2 0x713 SWAP2 SWAP1 PUSH2 0x46EE JUMP JUMPDEST POP POP POP POP POP JUMP JUMPDEST PUSH1 0x0 PUSH1 0xFF DUP4 AND PUSH1 0xB EQ PUSH2 0x35CE JUMPI PUSH1 0x40 MLOAD DUP3 SWAP1 PUSH1 0xFF DUP6 AND SWAP1 PUSH1 0x0 DUP1 MLOAD PUSH1 0x20 PUSH2 0x4A04 DUP4 CODECOPY DUP2 MLOAD SWAP2 MSTORE SWAP1 PUSH1 0x0 SWAP1 LOG3 POP PUSH1 0x0 PUSH2 0xFD3 JUMP JUMPDEST POP PUSH1 0x0 DUP2 DUP2 MSTORE PUSH1 0x1 PUSH1 0x20 DUP2 SWAP1 MSTORE PUSH1 0x40 SWAP2 DUP3 SWAP1 KECCAK256 DUP1 SLOAD PUSH1 0xFF NOT AND DUP3 OR SWAP1 SSTORE DUP5 DUP3 ADD MLOAD DUP6 MLOAD PUSH2 0x140 DUP8 ADD MLOAD PUSH2 0x160 DUP9 ADD MLOAD SWAP5 MLOAD SWAP4 SWAP5 DUP7 SWAP5 PUSH1 0x1 PUSH1 0xA0 PUSH1 0x2 EXP SUB SWAP5 DUP6 AND SWAP5 SWAP1 SWAP4 AND SWAP3 PUSH32 0xB1AD640E9E79B6FDBC3C415DC2914AB54E753D2971F51EAB910F7AA317A3163A SWAP3 PUSH2 0x3640 SWAP3 SWAP1 SWAP2 PUSH2 0x472C JUMP JUMPDEST PUSH1 0x40 MLOAD DUP1 SWAP2 SUB SWAP1 LOG4 SWAP4 SWAP3 POP POP POP JUMP JUMPDEST DUP1 MLOAD PUSH1 0x40 DUP1 MLOAD DUP1 DUP3 ADD SWAP1 SWAP2 MSTORE PUSH1 0x1E DUP2 MSTORE PUSH1 0x0 DUP1 MLOAD PUSH1 0x20 PUSH2 0x4924 DUP4 CODECOPY DUP2 MLOAD SWAP2 MSTORE PUSH1 0x20 DUP3 ADD MSTORE PUSH1 0x0 SWAP2 DUP3 LT PUSH2 0x3698 JUMPI PUSH1 0x40 MLOAD PUSH1 0xE5 PUSH1 0x2 EXP PUSH3 0x461BCD MUL DUP2 MSTORE PUSH1 0x4 ADD PUSH2 0x713 SWAP2 SWAP1 PUSH2 0x46EE JUMP JUMPDEST POP DUP2 MLOAD DUP3 SWAP1 PUSH1 0x0 NOT DUP2 ADD SWAP1 DUP2 LT PUSH2 0x36AB JUMPI INVALID JUMPDEST ADD PUSH1 0x20 ADD MLOAD DUP3 MLOAD PUSH1 0x0 NOT ADD SWAP1 SWAP3 MSTORE POP PUSH1 0xF8 PUSH1 0x2 EXP SWAP1 DUP2 SWAP1 DIV MUL SWAP1 JUMP JUMPDEST PUSH1 0x0 DUP2 PUSH1 0x20 ADD DUP4 MLOAD LT ISZERO PUSH1 0x60 PUSH1 0x40 MLOAD SWAP1 DUP2 ADD PUSH1 0x40 MSTORE DUP1 PUSH1 0x2B DUP2 MSTORE PUSH1 0x20 ADD PUSH1 0x0 DUP1 MLOAD PUSH1 0x20 PUSH2 0x4A44 DUP4 CODECOPY DUP2 MLOAD SWAP2 MSTORE DUP2 MSTORE PUSH1 0x20 ADD PUSH1 0xA9 PUSH1 0x2 EXP PUSH11 0x38BAB0B6103A3790199917 MUL DUP2 MSTORE POP SWAP1 ISZERO ISZERO PUSH2 0x3730 JUMPI PUSH1 0x40 MLOAD PUSH1 0xE5 PUSH1 0x2 EXP PUSH3 0x461BCD MUL DUP2 MSTORE PUSH1 0x4 ADD PUSH2 0x713 SWAP2 SWAP1 PUSH2 0x46EE JUMP JUMPDEST POP POP ADD PUSH1 0x20 ADD MLOAD SWAP1 JUMP JUMPDEST PUSH1 0x0 PUSH1 0x14 DUP3 MLOAD LT ISZERO PUSH1 0x60 PUSH1 0x40 MLOAD SWAP1 DUP2 ADD PUSH1 0x40 MSTORE DUP1 PUSH1 0x2B DUP2 MSTORE PUSH1 0x20 ADD PUSH1 0x0 DUP1 MLOAD PUSH1 0x20 PUSH2 0x4A44 DUP4 CODECOPY DUP2 MLOAD SWAP2 MSTORE DUP2 MSTORE PUSH1 0x20 ADD PUSH1 0xA9 PUSH1 0x2 EXP PUSH11 0x38BAB0B6103A3790191817 MUL DUP2 MSTORE POP SWAP1 ISZERO ISZERO PUSH2 0x37A1 JUMPI PUSH1 0x40 MLOAD PUSH1 0xE5 PUSH1 0x2 EXP PUSH3 0x461BCD MUL DUP2 MSTORE PUSH1 0x4 ADD PUSH2 0x713 SWAP2 SWAP1 PUSH2 0x46EE JUMP JUMPDEST POP PUSH2 0x37B0 DUP3 PUSH1 0x14 DUP5 MLOAD SUB PUSH2 0x3AD6 JUMP JUMPDEST DUP3 MLOAD PUSH1 0x13 NOT ADD SWAP1 SWAP3 MSTORE POP SWAP1 JUMP JUMPDEST PUSH1 0x0 DUP3 DUP3 MUL DUP4 ISZERO DUP1 PUSH2 0x37D9 JUMPI POP DUP3 DUP5 DUP3 DUP2 ISZERO ISZERO PUSH2 0x37D6 JUMPI INVALID JUMPDEST DIV EQ JUMPDEST ISZERO ISZERO PUSH2 0xFD3 JUMPI INVALID JUMPDEST PUSH1 0x0 PUSH2 0x37EE DUP5 DUP5 DUP5 PUSH2 0x2CB8 JUMP JUMPDEST PUSH1 0x40 DUP1 MLOAD PUSH1 0x80 DUP2 ADD DUP3 MSTORE PUSH1 0x44 DUP2 MSTORE PUSH1 0x0 DUP1 MLOAD PUSH1 0x20 PUSH2 0x48E4 DUP4 CODECOPY DUP2 MLOAD SWAP2 MSTORE PUSH1 0x20 DUP3 ADD MSTORE PUSH32 0x616C63756C6174696E67207061727469616C207472616E7366657220616D6F75 SWAP2 DUP2 ADD SWAP2 SWAP1 SWAP2 MSTORE PUSH1 0xE1 PUSH1 0x2 EXP PUSH4 0x373A3997 MUL PUSH1 0x60 DUP3 ADD MSTORE SWAP1 ISZERO PUSH2 0x386A JUMPI PUSH1 0x40 MLOAD PUSH1 0xE5 PUSH1 0x2 EXP PUSH3 0x461BCD MUL DUP2 MSTORE PUSH1 0x4 ADD PUSH2 0x713 SWAP2 SWAP1 PUSH2 0x46EE JUMP JUMPDEST POP PUSH2 0x2D23 DUP5 DUP5 DUP5 PUSH2 0x2D0E JUMP JUMPDEST PUSH1 0x0 PUSH2 0x388E DUP3 PUSH1 0x20 ADD MLOAD PUSH1 0x20 ADD MLOAD DUP4 PUSH1 0x40 ADD MLOAD PUSH2 0x3AB0 JUMP JUMPDEST DUP3 MLOAD MLOAD SWAP1 SWAP2 POP PUSH2 0x38A0 SWAP1 DUP3 PUSH1 0x1 PUSH2 0x2CB8 JUMP JUMPDEST PUSH1 0x40 DUP1 MLOAD PUSH1 0x80 DUP2 ADD DUP3 MSTORE PUSH1 0x4F DUP2 MSTORE PUSH1 0x0 DUP1 MLOAD PUSH1 0x20 PUSH2 0x48E4 DUP4 CODECOPY DUP2 MLOAD SWAP2 MSTORE PUSH1 0x20 DUP3 ADD MSTORE PUSH1 0x0 DUP1 MLOAD PUSH1 0x20 PUSH2 0x49C4 DUP4 CODECOPY DUP2 MLOAD SWAP2 MSTORE SWAP2 DUP2 ADD SWAP2 SWAP1 SWAP2 MSTORE PUSH1 0x89 PUSH1 0x2 EXP PUSH15 0x36B0BA31B432B21037B93232B93997 MUL PUSH1 0x60 DUP3 ADD MSTORE SWAP1 ISZERO PUSH2 0x3915 JUMPI PUSH1 0x40 MLOAD PUSH1 0xE5 PUSH1 0x2 EXP PUSH3 0x461BCD MUL DUP2 MSTORE PUSH1 0x4 ADD PUSH2 0x713 SWAP2 SWAP1 PUSH2 0x46EE JUMP JUMPDEST POP PUSH2 0x3932 DUP3 PUSH1 0x20 ADD MLOAD PUSH1 0x0 ADD MLOAD DUP4 PUSH1 0x0 ADD MLOAD PUSH1 0x20 ADD MLOAD PUSH1 0x1 PUSH2 0x2CB8 JUMP JUMPDEST PUSH1 0x40 DUP1 MLOAD PUSH1 0x80 DUP2 ADD DUP3 MSTORE PUSH1 0x4F DUP2 MSTORE PUSH1 0x0 DUP1 MLOAD PUSH1 0x20 PUSH2 0x48E4 DUP4 CODECOPY DUP2 MLOAD SWAP2 MSTORE PUSH1 0x20 DUP3 ADD MSTORE PUSH1 0x0 DUP1 MLOAD PUSH1 0x20 PUSH2 0x49C4 DUP4 CODECOPY DUP2 MLOAD SWAP2 MSTORE SWAP2 DUP2 ADD SWAP2 SWAP1 SWAP2 MSTORE PUSH1 0x89 PUSH1 0x2 EXP PUSH15 0x36B0BA31B432B21037B93232B93997 MUL PUSH1 0x60 DUP3 ADD MSTORE SWAP1 ISZERO PUSH2 0x23E7 JUMPI PUSH1 0x40 MLOAD PUSH1 0xE5 PUSH1 0x2 EXP PUSH3 0x461BCD MUL DUP2 MSTORE PUSH1 0x4 ADD PUSH2 0x713 SWAP2 SWAP1 PUSH2 0x46EE JUMP JUMPDEST PUSH1 0x0 DUP1 PUSH1 0x0 DUP1 DUP5 GT ISZERO PUSH2 0x3AA7 JUMPI DUP7 MLOAD PUSH1 0x40 DUP1 MLOAD DUP1 DUP3 ADD SWAP1 SWAP2 MSTORE PUSH1 0x1E DUP2 MSTORE PUSH1 0x0 DUP1 MLOAD PUSH1 0x20 PUSH2 0x4924 DUP4 CODECOPY DUP2 MLOAD SWAP2 MSTORE PUSH1 0x20 DUP3 ADD MSTORE SWAP1 SWAP4 POP PUSH1 0x0 DUP5 GT PUSH2 0x39FF JUMPI PUSH1 0x40 MLOAD PUSH1 0xE5 PUSH1 0x2 EXP PUSH3 0x461BCD MUL DUP2 MSTORE PUSH1 0x4 ADD PUSH2 0x713 SWAP2 SWAP1 PUSH2 0x46EE JUMP JUMPDEST POP DUP7 PUSH1 0x1 DUP5 SUB DUP2 MLOAD DUP2 LT ISZERO ISZERO PUSH2 0x3A11 JUMPI INVALID JUMPDEST PUSH1 0x20 SWAP2 ADD DUP2 ADD MLOAD PUSH1 0xF8 PUSH1 0x2 EXP SWAP1 DUP2 SWAP1 DIV DUP2 MUL DIV PUSH1 0xFF DUP2 AND PUSH1 0x0 SWAP1 DUP2 MSTORE PUSH1 0x9 SWAP1 SWAP3 MSTORE PUSH1 0x40 SWAP2 DUP3 SWAP1 KECCAK256 SLOAD SWAP2 MLOAD PUSH1 0xE2 PUSH1 0x2 EXP PUSH4 0x2A179679 MUL DUP2 MSTORE SWAP1 SWAP4 POP PUSH1 0x1 PUSH1 0xA0 PUSH1 0x2 EXP SUB SWAP1 SWAP2 AND SWAP2 POP DUP2 SWAP1 PUSH4 0xA85E59E4 SWAP1 PUSH2 0x3A74 SWAP1 DUP11 SWAP1 DUP11 SWAP1 DUP11 SWAP1 DUP11 SWAP1 PUSH1 0x4 ADD PUSH2 0x46FF JUMP JUMPDEST PUSH1 0x0 PUSH1 0x40 MLOAD DUP1 DUP4 SUB DUP2 PUSH1 0x0 DUP8 DUP1 EXTCODESIZE ISZERO DUP1 ISZERO PUSH2 0x3A8E JUMPI PUSH1 0x0 DUP1 REVERT JUMPDEST POP GAS CALL ISZERO DUP1 ISZERO PUSH2 0x3AA2 JUMPI RETURNDATASIZE PUSH1 0x0 DUP1 RETURNDATACOPY RETURNDATASIZE PUSH1 0x0 REVERT JUMPDEST POP POP POP POP JUMPDEST POP POP POP POP POP POP POP JUMP JUMPDEST PUSH1 0x0 DUP3 DUP3 ADD DUP4 DUP2 LT ISZERO PUSH2 0xFD3 JUMPI INVALID JUMPDEST PUSH1 0x0 DUP1 DUP3 DUP5 DUP2 ISZERO ISZERO PUSH2 0x3ACD JUMPI INVALID JUMPDEST DIV SWAP5 SWAP4 POP POP POP POP JUMP JUMPDEST PUSH1 0x0 DUP2 PUSH1 0x14 ADD DUP4 MLOAD LT ISZERO PUSH1 0x60 PUSH1 0x40 MLOAD SWAP1 DUP2 ADD PUSH1 0x40 MSTORE DUP1 PUSH1 0x2B DUP2 MSTORE PUSH1 0x20 ADD PUSH1 0x0 DUP1 MLOAD PUSH1 0x20 PUSH2 0x4A44 DUP4 CODECOPY DUP2 MLOAD SWAP2 MSTORE DUP2 MSTORE PUSH1 0x20 ADD PUSH1 0xA9 PUSH1 0x2 EXP PUSH11 0x38BAB0B6103A3790191817 MUL DUP2 MSTORE POP SWAP1 ISZERO ISZERO PUSH2 0x3B3F JUMPI PUSH1 0x40 MLOAD PUSH1 0xE5 PUSH1 0x2 EXP PUSH3 0x461BCD MUL DUP2 MSTORE PUSH1 0x4 ADD PUSH2 0x713 SWAP2 SWAP1 PUSH2 0x46EE JUMP JUMPDEST POP POP ADD PUSH1 0x14 ADD MLOAD PUSH1 0x1 PUSH1 0xA0 PUSH1 0x2 EXP SUB AND SWAP1 JUMP JUMPDEST PUSH2 0x120 PUSH1 0x40 MLOAD SWAP1 DUP2 ADD PUSH1 0x40 MSTORE DUP1 PUSH2 0x3B67 PUSH2 0x3BA1 JUMP JUMPDEST DUP2 MSTORE PUSH1 0x20 ADD PUSH2 0x3B74 PUSH2 0x3BA1 JUMP JUMPDEST DUP2 MSTORE PUSH1 0x20 ADD PUSH1 0x0 DUP2 MSTORE POP SWAP1 JUMP JUMPDEST PUSH1 0x40 DUP1 MLOAD PUSH1 0x60 DUP2 ADD DUP3 MSTORE PUSH1 0x0 DUP1 DUP3 MSTORE PUSH1 0x20 DUP3 ADD DUP2 SWAP1 MSTORE SWAP2 DUP2 ADD SWAP2 SWAP1 SWAP2 MSTORE SWAP1 JUMP JUMPDEST PUSH1 0x80 PUSH1 0x40 MLOAD SWAP1 DUP2 ADD PUSH1 0x40 MSTORE DUP1 PUSH1 0x0 DUP2 MSTORE PUSH1 0x20 ADD PUSH1 0x0 DUP2 MSTORE PUSH1 0x20 ADD PUSH1 0x0 DUP2 MSTORE PUSH1 0x20 ADD PUSH1 0x0 DUP2 MSTORE POP SWAP1 JUMP JUMPDEST PUSH1 0x0 PUSH2 0xFD3 DUP3 CALLDATALOAD PUSH2 0x485C JUMP JUMPDEST PUSH1 0x0 PUSH1 0x1F DUP3 ADD DUP4 SGT PUSH2 0x3BE7 JUMPI PUSH1 0x0 DUP1 REVERT JUMPDEST DUP2 CALLDATALOAD PUSH2 0x3BFA PUSH2 0x3BF5 DUP3 PUSH2 0x4811 JUMP JUMPDEST PUSH2 0x47EB JUMP JUMPDEST DUP2 DUP2 MSTORE PUSH1 0x20 SWAP4 DUP5 ADD SWAP4 SWAP1 SWAP3 POP DUP3 ADD DUP4 PUSH1 0x0 JUMPDEST DUP4 DUP2 LT ISZERO PUSH2 0x3C38 JUMPI DUP2 CALLDATALOAD DUP7 ADD PUSH2 0x3C22 DUP9 DUP3 PUSH2 0x3D7B JUMP JUMPDEST DUP5 MSTORE POP PUSH1 0x20 SWAP3 DUP4 ADD SWAP3 SWAP2 SWAP1 SWAP2 ADD SWAP1 PUSH1 0x1 ADD PUSH2 0x3C0C JUMP JUMPDEST POP POP POP POP SWAP3 SWAP2 POP POP JUMP JUMPDEST PUSH1 0x0 PUSH1 0x1F DUP3 ADD DUP4 SGT PUSH2 0x3C53 JUMPI PUSH1 0x0 DUP1 REVERT JUMPDEST DUP2 CALLDATALOAD PUSH2 0x3C61 PUSH2 0x3BF5 DUP3 PUSH2 0x4811 JUMP JUMPDEST DUP2 DUP2 MSTORE PUSH1 0x20 SWAP4 DUP5 ADD SWAP4 SWAP1 SWAP3 POP DUP3 ADD DUP4 PUSH1 0x0 JUMPDEST DUP4 DUP2 LT ISZERO PUSH2 0x3C38 JUMPI DUP2 CALLDATALOAD DUP7 ADD PUSH2 0x3C89 DUP9 DUP3 PUSH2 0x3DCA JUMP JUMPDEST DUP5 MSTORE POP PUSH1 0x20 SWAP3 DUP4 ADD SWAP3 SWAP2 SWAP1 SWAP2 ADD SWAP1 PUSH1 0x1 ADD PUSH2 0x3C73 JUMP JUMPDEST PUSH1 0x0 PUSH1 0x1F DUP3 ADD DUP4 SGT PUSH2 0x3CB0 JUMPI PUSH1 0x0 DUP1 REVERT JUMPDEST DUP2 CALLDATALOAD PUSH2 0x3CBE PUSH2 0x3BF5 DUP3 PUSH2 0x4811 JUMP JUMPDEST SWAP2 POP DUP2 DUP2 DUP4 MSTORE PUSH1 0x20 DUP5 ADD SWAP4 POP PUSH1 0x20 DUP2 ADD SWAP1 POP DUP4 DUP6 PUSH1 0x20 DUP5 MUL DUP3 ADD GT ISZERO PUSH2 0x3CE3 JUMPI PUSH1 0x0 DUP1 REVERT JUMPDEST PUSH1 0x0 JUMPDEST DUP4 DUP2 LT ISZERO PUSH2 0x3C38 JUMPI DUP2 PUSH2 0x3CF9 DUP9 DUP3 PUSH2 0x3D27 JUMP JUMPDEST DUP5 MSTORE POP PUSH1 0x20 SWAP3 DUP4 ADD SWAP3 SWAP2 SWAP1 SWAP2 ADD SWAP1 PUSH1 0x1 ADD PUSH2 0x3CE6 JUMP JUMPDEST PUSH1 0x0 PUSH2 0xFD3 DUP3 CALLDATALOAD PUSH2 0x4868 JUMP JUMPDEST PUSH1 0x0 PUSH2 0xFD3 DUP3 MLOAD PUSH2 0x4868 JUMP JUMPDEST PUSH1 0x0 PUSH2 0xFD3 DUP3 CALLDATALOAD PUSH2 0x486D JUMP JUMPDEST PUSH1 0x0 DUP1 PUSH1 0x1F DUP4 ADD DUP5 SGT PUSH2 0x3D45 JUMPI PUSH1 0x0 DUP1 REVERT JUMPDEST POP DUP2 CALLDATALOAD PUSH1 0x1 PUSH1 0x40 PUSH1 0x2 EXP SUB DUP2 GT ISZERO PUSH2 0x3D5C JUMPI PUSH1 0x0 DUP1 REVERT JUMPDEST PUSH1 0x20 DUP4 ADD SWAP2 POP DUP4 PUSH1 0x1 DUP3 MUL DUP4 ADD GT ISZERO PUSH2 0x3D74 JUMPI PUSH1 0x0 DUP1 REVERT JUMPDEST SWAP3 POP SWAP3 SWAP1 POP JUMP JUMPDEST PUSH1 0x0 PUSH1 0x1F DUP3 ADD DUP4 SGT PUSH2 0x3D8C JUMPI PUSH1 0x0 DUP1 REVERT JUMPDEST DUP2 CALLDATALOAD PUSH2 0x3D9A PUSH2 0x3BF5 DUP3 PUSH2 0x4831 JUMP JUMPDEST SWAP2 POP DUP1 DUP3 MSTORE PUSH1 0x20 DUP4 ADD PUSH1 0x20 DUP4 ADD DUP6 DUP4 DUP4 ADD GT ISZERO PUSH2 0x3DB6 JUMPI PUSH1 0x0 DUP1 REVERT JUMPDEST PUSH2 0x3DC1 DUP4 DUP3 DUP5 PUSH2 0x4881 JUMP JUMPDEST POP POP POP SWAP3 SWAP2 POP POP JUMP JUMPDEST PUSH1 0x0 PUSH2 0x180 DUP3 DUP5 SUB SLT ISZERO PUSH2 0x3DDD JUMPI PUSH1 0x0 DUP1 REVERT JUMPDEST PUSH2 0x3DE8 PUSH2 0x180 PUSH2 0x47EB JUMP JUMPDEST SWAP1 POP PUSH1 0x0 PUSH2 0x3DF6 DUP5 DUP5 PUSH2 0x3BCA JUMP JUMPDEST DUP3 MSTORE POP PUSH1 0x20 PUSH2 0x3E07 DUP5 DUP5 DUP4 ADD PUSH2 0x3BCA JUMP JUMPDEST PUSH1 0x20 DUP4 ADD MSTORE POP PUSH1 0x40 PUSH2 0x3E1B DUP5 DUP3 DUP6 ADD PUSH2 0x3BCA JUMP JUMPDEST PUSH1 0x40 DUP4 ADD MSTORE POP PUSH1 0x60 PUSH2 0x3E2F DUP5 DUP3 DUP6 ADD PUSH2 0x3BCA JUMP JUMPDEST PUSH1 0x60 DUP4 ADD MSTORE POP PUSH1 0x80 PUSH2 0x3E43 DUP5 DUP3 DUP6 ADD PUSH2 0x3D27 JUMP JUMPDEST PUSH1 0x80 DUP4 ADD MSTORE POP PUSH1 0xA0 PUSH2 0x3E57 DUP5 DUP3 DUP6 ADD PUSH2 0x3D27 JUMP JUMPDEST PUSH1 0xA0 DUP4 ADD MSTORE POP PUSH1 0xC0 PUSH2 0x3E6B DUP5 DUP3 DUP6 ADD PUSH2 0x3D27 JUMP JUMPDEST PUSH1 0xC0 DUP4 ADD MSTORE POP PUSH1 0xE0 PUSH2 0x3E7F DUP5 DUP3 DUP6 ADD PUSH2 0x3D27 JUMP JUMPDEST PUSH1 0xE0 DUP4 ADD MSTORE POP PUSH2 0x100 PUSH2 0x3E94 DUP5 DUP3 DUP6 ADD PUSH2 0x3D27 JUMP JUMPDEST PUSH2 0x100 DUP4 ADD MSTORE POP PUSH2 0x120 PUSH2 0x3EAA DUP5 DUP3 DUP6 ADD PUSH2 0x3D27 JUMP JUMPDEST PUSH2 0x120 DUP4 ADD MSTORE POP PUSH2 0x140 DUP3 ADD CALLDATALOAD PUSH1 0x1 PUSH1 0x40 PUSH1 0x2 EXP SUB DUP2 GT ISZERO PUSH2 0x3ECB JUMPI PUSH1 0x0 DUP1 REVERT JUMPDEST PUSH2 0x3ED7 DUP5 DUP3 DUP6 ADD PUSH2 0x3D7B JUMP JUMPDEST PUSH2 0x140 DUP4 ADD MSTORE POP PUSH2 0x160 DUP3 ADD CALLDATALOAD PUSH1 0x1 PUSH1 0x40 PUSH1 0x2 EXP SUB DUP2 GT ISZERO PUSH2 0x3EF8 JUMPI PUSH1 0x0 DUP1 REVERT JUMPDEST PUSH2 0x3F04 DUP5 DUP3 DUP6 ADD PUSH2 0x3D7B JUMP JUMPDEST PUSH2 0x160 DUP4 ADD MSTORE POP SWAP3 SWAP2 POP POP JUMP JUMPDEST PUSH1 0x0 PUSH2 0xFD3 DUP3 CALLDATALOAD PUSH2 0x4870 JUMP JUMPDEST PUSH1 0x0 PUSH2 0xFD3 DUP3 MLOAD PUSH2 0x4870 JUMP JUMPDEST PUSH1 0x0 PUSH1 0x20 DUP3 DUP5 SUB SLT ISZERO PUSH2 0x3F3B JUMPI PUSH1 0x0 DUP1 REVERT JUMPDEST PUSH1 0x0 PUSH2 0x2D23 DUP5 DUP5 PUSH2 0x3BCA JUMP JUMPDEST PUSH1 0x0 DUP1 PUSH1 0x40 DUP4 DUP6 SUB SLT ISZERO PUSH2 0x3F5A JUMPI PUSH1 0x0 DUP1 REVERT JUMPDEST PUSH1 0x0 PUSH2 0x3F66 DUP6 DUP6 PUSH2 0x3BCA JUMP JUMPDEST SWAP3 POP POP PUSH1 0x20 PUSH2 0x3F77 DUP6 DUP3 DUP7 ADD PUSH2 0x3BCA JUMP JUMPDEST SWAP2 POP POP SWAP3 POP SWAP3 SWAP1 POP JUMP JUMPDEST PUSH1 0x0 DUP1 PUSH1 0x40 DUP4 DUP6 SUB SLT ISZERO PUSH2 0x3F94 JUMPI PUSH1 0x0 DUP1 REVERT JUMPDEST PUSH1 0x0 PUSH2 0x3FA0 DUP6 DUP6 PUSH2 0x3BCA JUMP JUMPDEST SWAP3 POP POP PUSH1 0x20 PUSH2 0x3F77 DUP6 DUP3 DUP7 ADD PUSH2 0x3D0F JUMP JUMPDEST PUSH1 0x0 PUSH1 0x20 DUP3 DUP5 SUB SLT ISZERO PUSH2 0x3FC3 JUMPI PUSH1 0x0 DUP1 REVERT JUMPDEST DUP2 CALLDATALOAD PUSH1 0x1 PUSH1 0x40 PUSH1 0x2 EXP SUB DUP2 GT ISZERO PUSH2 0x3FD9 JUMPI PUSH1 0x0 DUP1 REVERT JUMPDEST PUSH2 0x2D23 DUP5 DUP3 DUP6 ADD PUSH2 0x3C42 JUMP JUMPDEST PUSH1 0x0 DUP1 PUSH1 0x0 PUSH1 0x60 DUP5 DUP7 SUB SLT ISZERO PUSH2 0x3FFA JUMPI PUSH1 0x0 DUP1 REVERT JUMPDEST DUP4 CALLDATALOAD PUSH1 0x1 PUSH1 0x40 PUSH1 0x2 EXP SUB DUP2 GT ISZERO PUSH2 0x4010 JUMPI PUSH1 0x0 DUP1 REVERT JUMPDEST PUSH2 0x401C DUP7 DUP3 DUP8 ADD PUSH2 0x3C42 JUMP JUMPDEST SWAP4 POP POP PUSH1 0x20 DUP5 ADD CALLDATALOAD PUSH1 0x1 PUSH1 0x40 PUSH1 0x2 EXP SUB DUP2 GT ISZERO PUSH2 0x4038 JUMPI PUSH1 0x0 DUP1 REVERT JUMPDEST PUSH2 0x4044 DUP7 DUP3 DUP8 ADD PUSH2 0x3C9F JUMP JUMPDEST SWAP3 POP POP PUSH1 0x40 DUP5 ADD CALLDATALOAD PUSH1 0x1 PUSH1 0x40 PUSH1 0x2 EXP SUB DUP2 GT ISZERO PUSH2 0x4060 JUMPI PUSH1 0x0 DUP1 REVERT JUMPDEST PUSH2 0x406C DUP7 DUP3 DUP8 ADD PUSH2 0x3BD6 JUMP JUMPDEST SWAP2 POP POP SWAP3 POP SWAP3 POP SWAP3 JUMP JUMPDEST PUSH1 0x0 DUP1 PUSH1 0x0 PUSH1 0x60 DUP5 DUP7 SUB SLT ISZERO PUSH2 0x408B JUMPI PUSH1 0x0 DUP1 REVERT JUMPDEST DUP4 CALLDATALOAD PUSH1 0x1 PUSH1 0x40 PUSH1 0x2 EXP SUB DUP2 GT ISZERO PUSH2 0x40A1 JUMPI PUSH1 0x0 DUP1 REVERT JUMPDEST PUSH2 0x40AD DUP7 DUP3 DUP8 ADD PUSH2 0x3C42 JUMP JUMPDEST SWAP4 POP POP PUSH1 0x20 PUSH2 0x4044 DUP7 DUP3 DUP8 ADD PUSH2 0x3D27 JUMP JUMPDEST PUSH1 0x0 PUSH1 0x20 DUP3 DUP5 SUB SLT ISZERO PUSH2 0x40D0 JUMPI PUSH1 0x0 DUP1 REVERT JUMPDEST PUSH1 0x0 PUSH2 0x2D23 DUP5 DUP5 PUSH2 0x3D1B JUMP JUMPDEST PUSH1 0x0 PUSH1 0x20 DUP3 DUP5 SUB SLT ISZERO PUSH2 0x40EE JUMPI PUSH1 0x0 DUP1 REVERT JUMPDEST PUSH1 0x0 PUSH2 0x2D23 DUP5 DUP5 PUSH2 0x3D27 JUMP JUMPDEST PUSH1 0x0 DUP1 PUSH1 0x40 DUP4 DUP6 SUB SLT ISZERO PUSH2 0x410D JUMPI PUSH1 0x0 DUP1 REVERT JUMPDEST PUSH1 0x0 PUSH2 0x3F66 DUP6 DUP6 PUSH2 0x3D27 JUMP JUMPDEST PUSH1 0x0 DUP1 PUSH1 0x0 DUP1 PUSH1 0x60 DUP6 DUP8 SUB SLT ISZERO PUSH2 0x412F JUMPI PUSH1 0x0 DUP1 REVERT JUMPDEST PUSH1 0x0 PUSH2 0x413B DUP8 DUP8 PUSH2 0x3D27 JUMP JUMPDEST SWAP5 POP POP PUSH1 0x20 PUSH2 0x414C DUP8 DUP3 DUP9 ADD PUSH2 0x3BCA JUMP JUMPDEST SWAP4 POP POP PUSH1 0x40 DUP6 ADD CALLDATALOAD PUSH1 0x1 PUSH1 0x40 PUSH1 0x2 EXP SUB DUP2 GT ISZERO PUSH2 0x4168 JUMPI PUSH1 0x0 DUP1 REVERT JUMPDEST PUSH2 0x4174 DUP8 DUP3 DUP9 ADD PUSH2 0x3D33 JUMP JUMPDEST SWAP6 SWAP9 SWAP5 SWAP8 POP SWAP6 POP POP POP POP JUMP JUMPDEST PUSH1 0x0 PUSH1 0x20 DUP3 DUP5 SUB SLT ISZERO PUSH2 0x4192 JUMPI PUSH1 0x0 DUP1 REVERT JUMPDEST DUP2 CALLDATALOAD PUSH1 0x1 PUSH1 0x40 PUSH1 0x2 EXP SUB DUP2 GT ISZERO PUSH2 0x41A8 JUMPI PUSH1 0x0 DUP1 REVERT JUMPDEST PUSH2 0x2D23 DUP5 DUP3 DUP6 ADD PUSH2 0x3DCA JUMP JUMPDEST PUSH1 0x0 DUP1 PUSH1 0x0 DUP1 PUSH1 0x80 DUP6 DUP8 SUB SLT ISZERO PUSH2 0x41CA JUMPI PUSH1 0x0 DUP1 REVERT JUMPDEST DUP5 CALLDATALOAD PUSH1 0x1 PUSH1 0x40 PUSH1 0x2 EXP SUB DUP2 GT ISZERO PUSH2 0x41E0 JUMPI PUSH1 0x0 DUP1 REVERT JUMPDEST PUSH2 0x41EC DUP8 DUP3 DUP9 ADD PUSH2 0x3DCA JUMP JUMPDEST SWAP5 POP POP PUSH1 0x20 DUP6 ADD CALLDATALOAD PUSH1 0x1 PUSH1 0x40 PUSH1 0x2 EXP SUB DUP2 GT ISZERO PUSH2 0x4208 JUMPI PUSH1 0x0 DUP1 REVERT JUMPDEST PUSH2 0x4214 DUP8 DUP3 DUP9 ADD PUSH2 0x3DCA JUMP JUMPDEST SWAP4 POP POP PUSH1 0x40 DUP6 ADD CALLDATALOAD PUSH1 0x1 PUSH1 0x40 PUSH1 0x2 EXP SUB DUP2 GT ISZERO PUSH2 0x4230 JUMPI PUSH1 0x0 DUP1 REVERT JUMPDEST PUSH2 0x423C DUP8 DUP3 DUP9 ADD PUSH2 0x3D7B JUMP JUMPDEST SWAP3 POP POP PUSH1 0x60 DUP6 ADD CALLDATALOAD PUSH1 0x1 PUSH1 0x40 PUSH1 0x2 EXP SUB DUP2 GT ISZERO PUSH2 0x4258 JUMPI PUSH1 0x0 DUP1 REVERT JUMPDEST PUSH2 0x4264 DUP8 DUP3 DUP9 ADD PUSH2 0x3D7B JUMP JUMPDEST SWAP2 POP POP SWAP3 SWAP6 SWAP2 SWAP5 POP SWAP3 POP JUMP JUMPDEST PUSH1 0x0 DUP1 PUSH1 0x0 PUSH1 0x60 DUP5 DUP7 SUB SLT ISZERO PUSH2 0x4285 JUMPI PUSH1 0x0 DUP1 REVERT JUMPDEST DUP4 CALLDATALOAD PUSH1 0x1 PUSH1 0x40 PUSH1 0x2 EXP SUB DUP2 GT ISZERO PUSH2 0x429B JUMPI PUSH1 0x0 DUP1 REVERT JUMPDEST PUSH2 0x42A7 DUP7 DUP3 DUP8 ADD PUSH2 0x3DCA JUMP JUMPDEST SWAP4 POP POP PUSH1 0x20 PUSH2 0x42B8 DUP7 DUP3 DUP8 ADD PUSH2 0x3D27 JUMP JUMPDEST SWAP3 POP POP PUSH1 0x40 DUP5 ADD CALLDATALOAD PUSH1 0x1 PUSH1 0x40 PUSH1 0x2 EXP SUB DUP2 GT ISZERO PUSH2 0x42D4 JUMPI PUSH1 0x0 DUP1 REVERT JUMPDEST PUSH2 0x406C DUP7 DUP3 DUP8 ADD PUSH2 0x3D7B JUMP JUMPDEST PUSH1 0x0 DUP1 PUSH1 0x0 DUP1 PUSH1 0x80 DUP6 DUP8 SUB SLT ISZERO PUSH2 0x42F6 JUMPI PUSH1 0x0 DUP1 REVERT JUMPDEST DUP5 CALLDATALOAD PUSH1 0x1 PUSH1 0x40 PUSH1 0x2 EXP SUB DUP2 GT ISZERO PUSH2 0x430C JUMPI PUSH1 0x0 DUP1 REVERT JUMPDEST PUSH2 0x4318 DUP8 DUP3 DUP9 ADD PUSH2 0x3DCA JUMP JUMPDEST SWAP5 POP POP PUSH1 0x20 PUSH2 0x4329 DUP8 DUP3 DUP9 ADD PUSH2 0x3F11 JUMP JUMPDEST SWAP4 POP POP PUSH1 0x40 PUSH2 0x433A DUP8 DUP3 DUP9 ADD PUSH2 0x3D27 JUMP JUMPDEST SWAP3 POP POP PUSH1 0x60 PUSH2 0x4264 DUP8 DUP3 DUP9 ADD PUSH2 0x3D27 JUMP JUMPDEST PUSH1 0x0 DUP1 PUSH1 0x0 DUP1 PUSH1 0x0 DUP1 PUSH1 0x80 DUP8 DUP10 SUB SLT ISZERO PUSH2 0x4364 JUMPI PUSH1 0x0 DUP1 REVERT JUMPDEST PUSH1 0x0 PUSH2 0x4370 DUP10 DUP10 PUSH2 0x3D27 JUMP JUMPDEST SWAP7 POP POP PUSH1 0x20 PUSH2 0x4381 DUP10 DUP3 DUP11 ADD PUSH2 0x3BCA JUMP JUMPDEST SWAP6 POP POP PUSH1 0x40 DUP8 ADD CALLDATALOAD PUSH1 0x1 PUSH1 0x40 PUSH1 0x2 EXP SUB DUP2 GT ISZERO PUSH2 0x439D JUMPI PUSH1 0x0 DUP1 REVERT JUMPDEST PUSH2 0x43A9 DUP10 DUP3 DUP11 ADD PUSH2 0x3D33 JUMP JUMPDEST SWAP5 POP SWAP5 POP POP PUSH1 0x60 DUP8 ADD CALLDATALOAD PUSH1 0x1 PUSH1 0x40 PUSH1 0x2 EXP SUB DUP2 GT ISZERO PUSH2 0x43C7 JUMPI PUSH1 0x0 DUP1 REVERT JUMPDEST PUSH2 0x43D3 DUP10 DUP3 DUP11 ADD PUSH2 0x3D33 JUMP JUMPDEST SWAP3 POP SWAP3 POP POP SWAP3 SWAP6 POP SWAP3 SWAP6 POP SWAP3 SWAP6 JUMP JUMPDEST PUSH1 0x0 PUSH1 0x20 DUP3 DUP5 SUB SLT ISZERO PUSH2 0x43F4 JUMPI PUSH1 0x0 DUP1 REVERT JUMPDEST PUSH1 0x0 PUSH2 0x2D23 DUP5 DUP5 PUSH2 0x3F11 JUMP JUMPDEST PUSH1 0x0 PUSH1 0x20 DUP3 DUP5 SUB SLT ISZERO PUSH2 0x4412 JUMPI PUSH1 0x0 DUP1 REVERT JUMPDEST PUSH1 0x0 PUSH2 0x2D23 DUP5 DUP5 PUSH2 0x3F1D JUMP JUMPDEST PUSH1 0x0 DUP1 PUSH1 0x0 PUSH1 0x60 DUP5 DUP7 SUB SLT ISZERO PUSH2 0x4433 JUMPI PUSH1 0x0 DUP1 REVERT JUMPDEST PUSH1 0x0 PUSH2 0x443F DUP7 DUP7 PUSH2 0x3F11 JUMP JUMPDEST SWAP4 POP POP PUSH1 0x20 PUSH2 0x4450 DUP7 DUP3 DUP8 ADD PUSH2 0x3BCA JUMP JUMPDEST SWAP3 POP POP PUSH1 0x40 PUSH2 0x406C DUP7 DUP3 DUP8 ADD PUSH2 0x3BCA JUMP JUMPDEST PUSH2 0x446A DUP2 PUSH2 0x485C JUMP JUMPDEST DUP3 MSTORE POP POP JUMP JUMPDEST PUSH2 0x446A DUP2 PUSH2 0x4868 JUMP JUMPDEST PUSH2 0x446A DUP2 PUSH2 0x486D JUMP JUMPDEST PUSH1 0x0 PUSH2 0x448D DUP3 PUSH2 0x4858 JUMP JUMPDEST DUP1 DUP5 MSTORE PUSH2 0x44A1 DUP2 PUSH1 0x20 DUP7 ADD PUSH1 0x20 DUP7 ADD PUSH2 0x488D JUMP JUMPDEST PUSH2 0x44AA DUP2 PUSH2 0x48B9 JUMP JUMPDEST SWAP1 SWAP4 ADD PUSH1 0x20 ADD SWAP4 SWAP3 POP POP POP JUMP JUMPDEST PUSH2 0x446A DUP2 PUSH2 0x4876 JUMP JUMPDEST PUSH1 0x33 DUP2 MSTORE PUSH32 0x4F6E6C7920636F6E7472616374206F776E657220697320616C6C6F7765642074 PUSH1 0x20 DUP3 ADD MSTORE PUSH1 0x69 PUSH1 0x2 EXP PUSH19 0x379031B0B636103A3434B99036B2BA3437B217 MUL PUSH1 0x40 DUP3 ADD MSTORE PUSH1 0x60 ADD SWAP1 JUMP JUMPDEST DUP1 MLOAD PUSH1 0x80 DUP4 ADD SWAP1 PUSH2 0x4520 DUP5 DUP3 PUSH2 0x4479 JUMP JUMPDEST POP PUSH1 0x20 DUP3 ADD MLOAD PUSH2 0x4533 PUSH1 0x20 DUP6 ADD DUP3 PUSH2 0x4479 JUMP JUMPDEST POP PUSH1 0x40 DUP3 ADD MLOAD PUSH2 0x4546 PUSH1 0x40 DUP6 ADD DUP3 PUSH2 0x4479 JUMP JUMPDEST POP PUSH1 0x60 DUP3 ADD MLOAD PUSH2 0x678 PUSH1 0x60 DUP6 ADD DUP3 PUSH2 0x4479 JUMP JUMPDEST DUP1 MLOAD PUSH2 0x120 DUP4 ADD SWAP1 PUSH2 0x456B DUP5 DUP3 PUSH2 0x450F JUMP JUMPDEST POP PUSH1 0x20 DUP3 ADD MLOAD PUSH2 0x457E PUSH1 0x80 DUP6 ADD DUP3 PUSH2 0x450F JUMP JUMPDEST POP PUSH1 0x40 DUP3 ADD MLOAD PUSH2 0x678 PUSH2 0x100 DUP6 ADD DUP3 PUSH2 0x4479 JUMP JUMPDEST DUP1 MLOAD PUSH1 0x60 DUP4 ADD SWAP1 PUSH2 0x45A3 DUP5 DUP3 PUSH2 0x45C9 JUMP JUMPDEST POP PUSH1 0x20 DUP3 ADD MLOAD PUSH2 0x45B6 PUSH1 0x20 DUP6 ADD DUP3 PUSH2 0x4479 JUMP JUMPDEST POP PUSH1 0x40 DUP3 ADD MLOAD PUSH2 0x678 PUSH1 0x40 DUP6 ADD DUP3 PUSH2 0x4479 JUMP JUMPDEST PUSH2 0x446A DUP2 PUSH2 0x4870 JUMP JUMPDEST PUSH1 0x20 DUP2 ADD PUSH2 0x2206 DUP3 DUP5 PUSH2 0x4461 JUMP JUMPDEST PUSH1 0xE0 DUP2 ADD PUSH2 0x45EE DUP3 DUP11 PUSH2 0x4461 JUMP JUMPDEST PUSH2 0x45FB PUSH1 0x20 DUP4 ADD DUP10 PUSH2 0x4479 JUMP JUMPDEST PUSH2 0x4608 PUSH1 0x40 DUP4 ADD DUP9 PUSH2 0x4479 JUMP JUMPDEST PUSH2 0x4615 PUSH1 0x60 DUP4 ADD DUP8 PUSH2 0x4479 JUMP JUMPDEST PUSH2 0x4622 PUSH1 0x80 DUP4 ADD DUP7 PUSH2 0x4479 JUMP JUMPDEST DUP2 DUP2 SUB PUSH1 0xA0 DUP4 ADD MSTORE PUSH2 0x4634 DUP2 DUP6 PUSH2 0x4482 JUMP JUMPDEST SWAP1 POP DUP2 DUP2 SUB PUSH1 0xC0 DUP4 ADD MSTORE PUSH2 0x4648 DUP2 DUP5 PUSH2 0x4482 JUMP JUMPDEST SWAP10 SWAP9 POP POP POP POP POP POP POP POP POP JUMP JUMPDEST PUSH1 0x20 DUP2 ADD PUSH2 0x2206 DUP3 DUP5 PUSH2 0x4470 JUMP JUMPDEST PUSH1 0x60 DUP2 ADD PUSH2 0x4671 DUP3 DUP7 PUSH2 0x4479 JUMP JUMPDEST PUSH2 0x467E PUSH1 0x20 DUP4 ADD DUP6 PUSH2 0x4461 JUMP JUMPDEST DUP2 DUP2 SUB PUSH1 0x40 DUP4 ADD MSTORE PUSH2 0x4690 DUP2 DUP5 PUSH2 0x4482 JUMP JUMPDEST SWAP6 SWAP5 POP POP POP POP POP JUMP JUMPDEST PUSH1 0x40 DUP2 ADD PUSH2 0x46A7 DUP3 DUP6 PUSH2 0x4479 JUMP JUMPDEST DUP2 DUP2 SUB PUSH1 0x20 DUP4 ADD MSTORE PUSH2 0x2D23 DUP2 DUP5 PUSH2 0x4482 JUMP JUMPDEST PUSH1 0x80 DUP2 ADD PUSH2 0x46C7 DUP3 DUP8 PUSH2 0x4479 JUMP JUMPDEST PUSH2 0x46D4 PUSH1 0x20 DUP4 ADD DUP7 PUSH2 0x45C9 JUMP JUMPDEST PUSH2 0x46E1 PUSH1 0x40 DUP4 ADD DUP6 PUSH2 0x4479 JUMP JUMPDEST PUSH2 0x4690 PUSH1 0x60 DUP4 ADD DUP5 PUSH2 0x4479 JUMP JUMPDEST PUSH1 0x20 DUP1 DUP3 MSTORE DUP2 ADD PUSH2 0xFD3 DUP2 DUP5 PUSH2 0x4482 JUMP JUMPDEST PUSH1 0x80 DUP1 DUP3 MSTORE DUP2 ADD PUSH2 0x4710 DUP2 DUP8 PUSH2 0x4482 JUMP JUMPDEST SWAP1 POP PUSH2 0x471F PUSH1 0x20 DUP4 ADD DUP7 PUSH2 0x4461 JUMP JUMPDEST PUSH2 0x46E1 PUSH1 0x40 DUP4 ADD DUP6 PUSH2 0x4461 JUMP JUMPDEST PUSH1 0x40 DUP1 DUP3 MSTORE DUP2 ADD PUSH2 0x473D DUP2 DUP6 PUSH2 0x4482 JUMP JUMPDEST SWAP1 POP DUP2 DUP2 SUB PUSH1 0x20 DUP4 ADD MSTORE PUSH2 0x2D23 DUP2 DUP5 PUSH2 0x4482 JUMP JUMPDEST PUSH1 0x20 DUP2 ADD PUSH2 0x2206 DUP3 DUP5 PUSH2 0x44B7 JUMP JUMPDEST PUSH1 0x20 DUP1 DUP3 MSTORE DUP2 ADD PUSH2 0x2206 DUP2 PUSH2 0x44C0 JUMP JUMPDEST PUSH1 0x80 DUP2 ADD PUSH2 0x2206 DUP3 DUP5 PUSH2 0x450F JUMP JUMPDEST PUSH2 0x120 DUP2 ADD PUSH2 0x2206 DUP3 DUP5 PUSH2 0x4559 JUMP JUMPDEST PUSH1 0x60 DUP2 ADD PUSH2 0x2206 DUP3 DUP5 PUSH2 0x4592 JUMP JUMPDEST PUSH1 0x20 DUP2 ADD PUSH2 0x2206 DUP3 DUP5 PUSH2 0x4479 JUMP JUMPDEST PUSH1 0x60 DUP2 ADD PUSH2 0x47B6 DUP3 DUP7 PUSH2 0x45C9 JUMP JUMPDEST PUSH2 0x47C3 PUSH1 0x20 DUP4 ADD DUP6 PUSH2 0x4461 JUMP JUMPDEST PUSH2 0x2D23 PUSH1 0x40 DUP4 ADD DUP5 PUSH2 0x4461 JUMP JUMPDEST PUSH1 0xA0 DUP2 ADD PUSH2 0x47DE DUP3 DUP6 PUSH2 0x45C9 JUMP JUMPDEST PUSH2 0xFD3 PUSH1 0x20 DUP4 ADD DUP5 PUSH2 0x450F JUMP JUMPDEST PUSH1 0x40 MLOAD DUP2 DUP2 ADD PUSH1 0x1 PUSH1 0x40 PUSH1 0x2 EXP SUB DUP2 GT DUP3 DUP3 LT OR ISZERO PUSH2 0x4809 JUMPI PUSH1 0x0 DUP1 REVERT JUMPDEST PUSH1 0x40 MSTORE SWAP2 SWAP1 POP JUMP JUMPDEST PUSH1 0x0 PUSH1 0x1 PUSH1 0x40 PUSH1 0x2 EXP SUB DUP3 GT ISZERO PUSH2 0x4827 JUMPI PUSH1 0x0 DUP1 REVERT JUMPDEST POP PUSH1 0x20 SWAP1 DUP2 MUL ADD SWAP1 JUMP JUMPDEST PUSH1 0x0 PUSH1 0x1 PUSH1 0x40 PUSH1 0x2 EXP SUB DUP3 GT ISZERO PUSH2 0x4847 JUMPI PUSH1 0x0 DUP1 REVERT JUMPDEST POP PUSH1 0x20 PUSH1 0x1F SWAP2 SWAP1 SWAP2 ADD PUSH1 0x1F NOT AND ADD SWAP1 JUMP JUMPDEST MLOAD SWAP1 JUMP JUMPDEST PUSH1 0x1 PUSH1 0xA0 PUSH1 0x2 EXP SUB AND SWAP1 JUMP JUMPDEST ISZERO ISZERO SWAP1 JUMP JUMPDEST SWAP1 JUMP JUMPDEST PUSH1 0xFF AND SWAP1 JUMP JUMPDEST PUSH1 0x0 PUSH2 0x2206 DUP3 PUSH2 0x485C JUMP JUMPDEST DUP3 DUP2 DUP4 CALLDATACOPY POP PUSH1 0x0 SWAP2 ADD MSTORE JUMP JUMPDEST PUSH1 0x0 JUMPDEST DUP4 DUP2 LT ISZERO PUSH2 0x48A8 JUMPI DUP2 DUP2 ADD MLOAD DUP4 DUP3 ADD MSTORE PUSH1 0x20 ADD PUSH2 0x4890 JUMP JUMPDEST DUP4 DUP2 GT ISZERO PUSH2 0x678 JUMPI POP POP PUSH1 0x0 SWAP2 ADD MSTORE JUMP JUMPDEST PUSH1 0x1F ADD PUSH1 0x1F NOT AND SWAP1 JUMP STOP 0x46 PUSH2 0x696C PUSH6 0x6420746F2063 PUSH2 0x6C63 PUSH22 0x6C6174652066696C6C20726573756C74734120726F75 PUSH15 0x64696E67206572726F72206F636375 PUSH19 0x726564207768656E2063496E76616C69642073 PUSH10 0x676E6174757265206C65 PUSH15 0x6774682E000000000000004C656E67 PUSH21 0x68206D757374206265206772656174657220746861 PUSH15 0x20302E0000496E76616C6964206F72 PUSH5 0x6572206D61 PUSH12 0x657220617373657420616D6F PUSH22 0x6E745369676E61747572652076616C69646174696F6E KECCAK256 PUSH7 0x61696C65642E00 STOP STOP STOP 0x49 PUSH15 0x76616C6964206F726465722074616B PUSH6 0x722061737365 PUSH21 0x20616D6F756E7446756E6374696F6E2063616C6C65 PUSH5 0x20696E2061 PUSH15 0x20696E76616C696420636F616C6375 PUSH13 0x6174696E67207472616E736665 PUSH19 0x20616D6F756E747320666F7220417373657420 PUSH5 0x617461206D PUSH22 0x7374206265207468652073616D6520666F72207A2F93 0x2a 0xc2 0xb2 ADDRESS 0xb3 PUSH6 0xB1CF3C91CF7F PUSH12 0xB97D4625011E0CF070CA1E0A CREATE CALL 0xb3 SWAP11 GASPRICE KECCAK256 PUSH6 0x787065637465 PUSH5 0x2061206E6F PUSH15 0x2D7A65726F2076616C75652E000000 STOP 0x4c PUSH6 0x6E677468206D PUSH22 0x73742062652067726561746572207468616E206F7220 PUSH6 0xA265627A7A72 ADDRESS PC KECCAK256 EQ 0xc0 DUP5 0x4b PUSH27 0x6CF877B85D6B6E9F11DEBA59347ACD93ACDD4A4D07BA65C0AF3213 PUSH13 0x6578706572696D656E74616CF5 STOP CALLDATACOPY "
			}
		}
	},
	"sourceTreeHashHex": "0xe26b30c5df15642b088cdb6e967e3e51c002ce9d5c26b73e1fca9a14f7bc683c",
	"compiler": {
		"name": "solc",
		"version": "soljson-v0.4.24+commit.e67f0147.js",
		"settings": {
			"optimizer": {
				"enabled": true,
				"runs": 0
			},
			"outputSelection": {
				"*": {
					"*": [
						"abi",
						"evm.bytecode.object",
						"evm.bytecode.sourceMap",
						"evm.deployedBytecode.object",
						"evm.deployedBytecode.sourceMap"
					]
				}
			}
		}
	}
}