{
	"schemaVersion": "2.0.0",
	"contractName": "Forwarder",
	"compilerOutput": {
		"abi": [
			{
				"constant": true,
				"inputs": [
					{
						"name": "",
						"type": "address"
					},
					{
						"name": "",
						"type": "address"
					},
					{
						"name": "",
						"type": "uint256"
					},
					{
						"name": "",
						"type": "bytes"
					}
				],
				"name": "onERC721Received",
				"outputs": [
					{
						"name": "",
						"type": "bytes4"
					}
				],
				"payable": false,
				"stateMutability": "pure",
				"type": "function"
			},
			{
				"constant": false,
				"inputs": [
					{
						"components": [
							{
								"name": "makerAddress",
								"type": "address"
							},
							{
								"name": "takerAddress",
								"type": "address"
							},
							{
								"name": "feeRecipientAddress",
								"type": "address"
							},
							{
								"name": "senderAddress",
								"type": "address"
							},
							{
								"name": "makerAssetAmount",
								"type": "uint256"
							},
							{
								"name": "takerAssetAmount",
								"type": "uint256"
							},
							{
								"name": "makerFee",
								"type": "uint256"
							},
							{
								"name": "takerFee",
								"type": "uint256"
							},
							{
								"name": "expirationTimeSeconds",
								"type": "uint256"
							},
							{
								"name": "salt",
								"type": "uint256"
							},
							{
								"name": "makerAssetData",
								"type": "bytes"
							},
							{
								"name": "takerAssetData",
								"type": "bytes"
							}
						],
						"name": "orders",
						"type": "tuple[]"
					},
					{
						"name": "signatures",
						"type": "bytes[]"
					},
					{
						"components": [
							{
								"name": "makerAddress",
								"type": "address"
							},
							{
								"name": "takerAddress",
								"type": "address"
							},
							{
								"name": "feeRecipientAddress",
								"type": "address"
							},
							{
								"name": "senderAddress",
								"type": "address"
							},
							{
								"name": "makerAssetAmount",
								"type": "uint256"
							},
							{
								"name": "takerAssetAmount",
								"type": "uint256"
							},
							{
								"name": "makerFee",
								"type": "uint256"
							},
							{
								"name": "takerFee",
								"type": "uint256"
							},
							{
								"name": "expirationTimeSeconds",
								"type": "uint256"
							},
							{
								"name": "salt",
								"type": "uint256"
							},
							{
								"name": "makerAssetData",
								"type": "bytes"
							},
							{
								"name": "takerAssetData",
								"type": "bytes"
							}
						],
						"name": "feeOrders",
						"type": "tuple[]"
					},
					{
						"name": "feeSignatures",
						"type": "bytes[]"
					},
					{
						"name": "feeProportion",
						"type": "uint16"
					},
					{
						"name": "feeRecipient",
						"type": "address"
					}
				],
				"name": "marketSellEthForERC20",
				"outputs": [
					{
						"components": [
							{
								"name": "makerAssetFilledAmount",
								"type": "uint256"
							},
							{
								"name": "takerAssetFilledAmount",
								"type": "uint256"
							},
							{
								"name": "makerFeePaid",
								"type": "uint256"
							},
							{
								"name": "takerFeePaid",
								"type": "uint256"
							}
						],
						"name": "totalFillResults",
						"type": "tuple"
					}
				],
				"payable": true,
				"stateMutability": "payable",
				"type": "function"
			},
			{
				"constant": true,
				"inputs": [
					{
						"components": [
							{
								"name": "makerAddress",
								"type": "address"
							},
							{
								"name": "takerAddress",
								"type": "address"
							},
							{
								"name": "feeRecipientAddress",
								"type": "address"
							},
							{
								"name": "senderAddress",
								"type": "address"
							},
							{
								"name": "makerAssetAmount",
								"type": "uint256"
							},
							{
								"name": "takerAssetAmount",
								"type": "uint256"
							},
							{
								"name": "makerFee",
								"type": "uint256"
							},
							{
								"name": "takerFee",
								"type": "uint256"
							},
							{
								"name": "expirationTimeSeconds",
								"type": "uint256"
							},
							{
								"name": "salt",
								"type": "uint256"
							},
							{
								"name": "makerAssetData",
								"type": "bytes"
							},
							{
								"name": "takerAssetData",
								"type": "bytes"
							}
						],
						"name": "orders",
						"type": "tuple[]"
					},
					{
						"name": "makerAssetFillAmount",
						"type": "uint256"
					}
				],
				"name": "calculateMarketBuyResults",
				"outputs": [
					{
						"components": [
							{
								"name": "makerAssetFilledAmount",
								"type": "uint256"
							},
							{
								"name": "takerAssetFilledAmount",
								"type": "uint256"
							},
							{
								"name": "makerFeePaid",
								"type": "uint256"
							},
							{
								"name": "takerFeePaid",
								"type": "uint256"
							}
						],
						"name": "totalFillResults",
						"type": "tuple"
					}
				],
				"payable": false,
				"stateMutability": "view",
				"type": "function"
			},
			{
				"constant": true,
				"inputs": [],
				"name": "ALLOWABLE_EXCHANGE_PERCENTAGE",
				"outputs": [
					{
						"name": "",
						"type": "uint16"
					}
				],
				"payable": false,
				"stateMutability": "view",
				"type": "function"
			},
			{
				"constant": true,
				"inputs": [],
				"name": "ERC20_DATA_ID",
				"outputs": [
					{
						"name": "",
						"type": "bytes4"
					}
				],
				"payable": false,
				"stateMutability": "view",
				"type": "function"
			},
			{
				"constant": false,
				"inputs": [
					{
						"components": [
							{
								"name": "makerAddress",
								"type": "address"
							},
							{
								"name": "takerAddress",
								"type": "address"
							},
							{
								"name": "feeRecipientAddress",
								"type": "address"
							},
							{
								"name": "senderAddress",
								"type": "address"
							},
							{
								"name": "makerAssetAmount",
								"type": "uint256"
							},
							{
								"name": "takerAssetAmount",
								"type": "uint256"
							},
							{
								"name": "makerFee",
								"type": "uint256"
							},
							{
								"name": "takerFee",
								"type": "uint256"
							},
							{
								"name": "expirationTimeSeconds",
								"type": "uint256"
							},
							{
								"name": "salt",
								"type": "uint256"
							},
							{
								"name": "makerAssetData",
								"type": "bytes"
							},
							{
								"name": "takerAssetData",
								"type": "bytes"
							}
						],
						"name": "orders",
						"type": "tuple[]"
					},
					{
						"name": "signatures",
						"type": "bytes[]"
					},
					{
						"components": [
							{
								"name": "makerAddress",
								"type": "address"
							},
							{
								"name": "takerAddress",
								"type": "address"
							},
							{
								"name": "feeRecipientAddress",
								"type": "address"
							},
							{
								"name": "senderAddress",
								"type": "address"
							},
							{
								"name": "makerAssetAmount",
								"type": "uint256"
							},
							{
								"name": "takerAssetAmount",
								"type": "uint256"
							},
							{
								"name": "makerFee",
								"type": "uint256"
							},
							{
								"name": "takerFee",
								"type": "uint256"
							},
							{
								"name": "expirationTimeSeconds",
								"type": "uint256"
							},
							{
								"name": "salt",
								"type": "uint256"
							},
							{
								"name": "makerAssetData",
								"type": "bytes"
							},
							{
								"name": "takerAssetData",
								"type": "bytes"
							}
						],
						"name": "feeOrders",
						"type": "tuple[]"
					},
					{
						"name": "feeSignatures",
						"type": "bytes[]"
					},
					{
						"name": "makerTokenFillAmount",
						"type": "uint256"
					},
					{
						"name": "feeProportion",
						"type": "uint16"
					},
					{
						"name": "feeRecipient",
						"type": "address"
					}
				],
				"name": "marketBuyTokensWithEth",
				"outputs": [
					{
						"components": [
							{
								"name": "makerAssetFilledAmount",
								"type": "uint256"
							},
							{
								"name": "takerAssetFilledAmount",
								"type": "uint256"
							},
							{
								"name": "makerFeePaid",
								"type": "uint256"
							},
							{
								"name": "takerFeePaid",
								"type": "uint256"
							}
						],
						"name": "totalFillResults",
						"type": "tuple"
					}
				],
				"payable": true,
				"stateMutability": "payable",
				"type": "function"
			},
			{
				"constant": true,
				"inputs": [],
				"name": "owner",
				"outputs": [
					{
						"name": "",
						"type": "address"
					}
				],
				"payable": false,
				"stateMutability": "view",
				"type": "function"
			},
			{
				"constant": true,
				"inputs": [],
				"name": "PERCENTAGE_DENOMINATOR",
				"outputs": [
					{
						"name": "",
						"type": "uint16"
					}
				],
				"payable": false,
				"stateMutability": "view",
				"type": "function"
			},
			{
				"constant": true,
				"inputs": [],
				"name": "MAX_FEE",
				"outputs": [
					{
						"name": "",
						"type": "uint16"
					}
				],
				"payable": false,
				"stateMutability": "view",
				"type": "function"
			},
			{
				"constant": true,
				"inputs": [
					{
						"components": [
							{
								"name": "makerAddress",
								"type": "address"
							},
							{
								"name": "takerAddress",
								"type": "address"
							},
							{
								"name": "feeRecipientAddress",
								"type": "address"
							},
							{
								"name": "senderAddress",
								"type": "address"
							},
							{
								"name": "makerAssetAmount",
								"type": "uint256"
							},
							{
								"name": "takerAssetAmount",
								"type": "uint256"
							},
							{
								"name": "makerFee",
								"type": "uint256"
							},
							{
								"name": "takerFee",
								"type": "uint256"
							},
							{
								"name": "expirationTimeSeconds",
								"type": "uint256"
							},
							{
								"name": "salt",
								"type": "uint256"
							},
							{
								"name": "makerAssetData",
								"type": "bytes"
							},
							{
								"name": "takerAssetData",
								"type": "bytes"
							}
						],
						"name": "orders",
						"type": "tuple[]"
					},
					{
						"name": "zrxFillAmount",
						"type": "uint256"
					}
				],
				"name": "calculateMarketBuyZrxResults",
				"outputs": [
					{
						"components": [
							{
								"name": "makerAssetFilledAmount",
								"type": "uint256"
							},
							{
								"name": "takerAssetFilledAmount",
								"type": "uint256"
							},
							{
								"name": "makerFeePaid",
								"type": "uint256"
							},
							{
								"name": "takerFeePaid",
								"type": "uint256"
							}
						],
						"name": "totalFillResults",
						"type": "tuple"
					}
				],
				"payable": false,
				"stateMutability": "view",
				"type": "function"
			},
			{
				"constant": true,
				"inputs": [
					{
						"name": "",
						"type": "address"
					},
					{
						"name": "",
						"type": "uint256"
					},
					{
						"name": "",
						"type": "bytes"
					}
				],
				"name": "onERC721Received",
				"outputs": [
					{
						"name": "",
						"type": "bytes4"
					}
				],
				"payable": false,
				"stateMutability": "pure",
				"type": "function"
			},
			{
				"constant": false,
				"inputs": [
					{
						"name": "erc20AssetProxyId",
						"type": "bytes4"
					}
				],
				"name": "setERC20ProxyApproval",
				"outputs": [],
				"payable": false,
				"stateMutability": "nonpayable",
				"type": "function"
			},
			{
				"constant": false,
				"inputs": [
					{
						"name": "newOwner",
						"type": "address"
					}
				],
				"name": "transferOwnership",
				"outputs": [],
				"payable": false,
				"stateMutability": "nonpayable",
				"type": "function"
			},
			{
				"constant": true,
				"inputs": [],
				"name": "ERC721_DATA_ID",
				"outputs": [
					{
						"name": "",
						"type": "bytes4"
					}
				],
				"payable": false,
				"stateMutability": "view",
				"type": "function"
			},
			{
				"inputs": [
					{
						"name": "_exchange",
						"type": "address"
					},
					{
						"name": "_etherToken",
						"type": "address"
					},
					{
						"name": "_zrxToken",
						"type": "address"
					},
					{
						"name": "_erc20AssetProxyId",
						"type": "bytes4"
					},
					{
						"name": "_zrxAssetData",
						"type": "bytes"
					},
					{
						"name": "_wethAssetData",
						"type": "bytes"
					}
				],
				"payable": false,
				"stateMutability": "nonpayable",
				"type": "constructor"
			},
			{
				"payable": true,
				"stateMutability": "payable",
				"type": "fallback"
			}
		],
		"evm": {
			"bytecode": {
				"linkReferences": {},
				"object": "0x60806040526000196006553480156200001757600080fd5b5060405162003c7d38038062003c7d83398101806040526200003d919081019062000494565b6000805433600160a060020a031991821617909155600180548216600160a060020a038981169190911790915560028054831688831617905560038054909216908616179055815186908690869085908590620000a290600490602085019062000339565b508051620000b890600590602084019062000339565b505050505050620000d883620000e4640100000000026401000000009004565b505050505050620006cf565b60008054600160a060020a0316331462000135576040517f08c379a00000000000000000000000000000000000000000000000000000000081526004016200012c9062000605565b60405180910390fd5b6001546040517f60704108000000000000000000000000000000000000000000000000000000008152600160a060020a039091169063607041089062000180908590600401620005ef565b602060405180830381600087803b1580156200019b57600080fd5b505af1158015620001b0573d6000803e3d6000fd5b505050506040513d601f19601f82011682018060405250620001d691908101906200046b565b9050600160a060020a0381161562000335576002546006546040517f095ea7b3000000000000000000000000000000000000000000000000000000008152600160a060020a039092169163095ea7b3916200023791859190600401620005d0565b602060405180830381600087803b1580156200025257600080fd5b505af115801562000267573d6000803e3d6000fd5b505050506040513d601f19601f820116820180604052506200028d919081019062000558565b506003546006546040517f095ea7b3000000000000000000000000000000000000000000000000000000008152600160a060020a039092169163095ea7b391620002dd91859190600401620005d0565b602060405180830381600087803b158015620002f857600080fd5b505af11580156200030d573d6000803e3d6000fd5b505050506040513d601f19601f8201168201806040525062000333919081019062000558565b505b5050565b828054600181600116156101000203166002900490600052602060002090601f016020900481019282601f106200037c57805160ff1916838001178555620003ac565b82800160010185558215620003ac579182015b82811115620003ac5782518255916020019190600101906200038f565b50620003ba929150620003be565b5090565b620003db91905b80821115620003ba5760008155600101620003c5565b90565b6000620003ec825162000666565b9392505050565b6000620003ec825162000697565b6000620003ec825162000672565b6000601f820183136200042157600080fd5b81516200043862000432826200063e565b62000617565b915080825260208301602083018583830111156200045557600080fd5b620004628382846200069c565b50505092915050565b6000602082840312156200047e57600080fd5b60006200048c8484620003de565b949350505050565b60008060008060008060c08789031215620004ae57600080fd5b6000620004bc8989620003de565b9650506020620004cf89828a01620003de565b9550506040620004e289828a01620003de565b9450506060620004f589828a0162000401565b93505060808701516001604060020a038111156200051257600080fd5b6200052089828a016200040f565b92505060a08701516001604060020a038111156200053d57600080fd5b6200054b89828a016200040f565b9150509295509295509295565b6000602082840312156200056b57600080fd5b60006200048c8484620003f3565b620005848162000666565b82525050565b620005848162000672565b601381527f4f4e4c595f434f4e54524143545f4f574e455200000000000000000000000000602082015260400190565b6200058481620003db565b60408101620005e0828562000579565b620003ec6020830184620005c5565b60208101620005ff82846200058a565b92915050565b60208082528101620005ff8162000595565b6040518181016001604060020a03811182821017156200063657600080fd5b604052919050565b60006001604060020a038211156200065557600080fd5b506020601f91909101601f19160190565b600160a060020a031690565b7fffffffff000000000000000000000000000000000000000000000000000000001690565b151590565b60005b83811015620006b95781810151838201526020016200069f565b83811115620006c9576000848401525b50505050565b61359e80620006df6000396000f3006080604052600436106100cf5763ffffffff7c0100000000000000000000000000000000000000000000000000000000600035041663150b7a02811461012b578063169645f2146101615780631c5b1ec41461018157806320472cf7146101a15780634a00f7d5146101c3578063725cef06146101d85780638da5cb5b146101eb578063b3cd42541461020d578063bc063e1a14610222578063e58e9c1614610237578063f0b9e5ba14610257578063f2afd85a14610277578063f2fde38b14610297578063fb4f9087146102b7575b60025473ffffffffffffffffffffffffffffffffffffffff163314610129576040517f08c379a0000000000000000000000000000000000000000000000000000000008152600401610120906132ec565b60405180910390fd5b005b34801561013757600080fd5b5061014b6101463660046128bb565b6102cc565b60405161015891906132de565b60405180910390f35b61017461016f366004612999565b61032c565b60405161015891906133ac565b34801561018d57600080fd5b5061017461019c366004612b7a565b6105f8565b3480156101ad57600080fd5b506101b66106be565b60405161015891906133fd565b3480156101cf57600080fd5b5061014b6106c4565b6101746101e6366004612a7f565b6106f9565b3480156101f757600080fd5b50610200610ac7565b6040516101589190613206565b34801561021957600080fd5b506101b6610ae3565b34801561022e57600080fd5b506101b6610ae9565b34801561024357600080fd5b50610174610252366004612b7a565b610aef565b34801561026357600080fd5b5061014b610272366004612934565b610bec565b34801561028357600080fd5b50610129610292366004612be9565b610c4c565b3480156102a357600080fd5b506101296102b236600461287f565b610ec3565b3480156102c357600080fd5b5061014b610f74565b604080517f6f6e455243373231526563656976656428616464726573732c6164647265737381527f2c75696e743235362c62797465732900000000000000000000000000000000006020820152905190819003602f019020949350505050565b6103346124be565b3460008080808411610372576040517f08c379a00000000000000000000000000000000000000000000000000000000081526004016101209061331c565b61037d848888610fcf565b9250610389848461109d565b9150600260009054906101000a900473ffffffffffffffffffffffffffffffffffffffff1673ffffffffffffffffffffffffffffffffffffffff1663d0e30db0836040518263ffffffff167c01000000000000000000000000000000000000000000000000000000000281526004016000604051808303818588803b15801561041157600080fd5b505af1158015610425573d6000803e3d6000fd5b50505050506104528b600081518110151561043c57fe5b90602001906020020151610140015160106110b4565b60058054604080516020601f60027fffffffffffffffffffffffffffffffffffffffffffffffffffffffffffffffff61010060018816150201909516949094049384018190048102820181019092528281529394508301828280156104f85780601f106104cd576101008083540402835291602001916104f8565b820191906000526020600020905b8154815290600101906020018083116104db57829003601f168201915b50505050508b600081518110151561050c57fe5b60209081029091010151610160015260035473ffffffffffffffffffffffffffffffffffffffff82811691161415610550576105498b8b84611115565b9450610560565b61055d8b8b8b8b8661122f565b94505b602085015184101561059e576040517f08c379a0000000000000000000000000000000000000000000000000000000008152600401610120906132fc565b602085015182146105db576040517f08c379a00000000000000000000000000000000000000000000000000000000081526004016101209061335c565b6105ea813387600001516113b7565b505050509695505050505050565b6106006124be565b600080600061060d6124be565b600093505b86518410156106b45761062986866000015161109d565b925061066c878581518110151561063c57fe5b9060200190602002015160a00151888681518110151561065857fe5b906020019060200201516080015185611591565b915061068f878581518110151561067f57fe5b90602001906020020151836115ae565b905061069b8582611707565b84518614156106a9576106b4565b600190930192610612565b5050505092915050565b61251c81565b604080517f4552433230546f6b656e286164647265737329000000000000000000000000008152905190819003601301902081565b6107016124be565b34600080821161073d576040517f08c379a00000000000000000000000000000000000000000000000000000000081526004016101209061331c565b60008611610777576040517f08c379a00000000000000000000000000000000000000000000000000000000081526004016101209061331c565b61079f8a600081518110151561078957fe5b9060200190602002015161014001516000611769565b604080517f4552433230546f6b656e28616464726573732900000000000000000000000000815290519081900360130190209091507fffffffff00000000000000000000000000000000000000000000000000000000808316911614806108815750604080517f455243373231546f6b656e28616464726573732c75696e743235362c6279746581527f7329000000000000000000000000000000000000000000000000000000000000602082015290519081900360220190207fffffffff000000000000000000000000000000000000000000000000000000008281169116145b15156108b9576040517f08c379a00000000000000000000000000000000000000000000000000000000081526004016101209061338c565b600260009054906101000a900473ffffffffffffffffffffffffffffffffffffffff1673ffffffffffffffffffffffffffffffffffffffff1663d0e30db0836040518263ffffffff167c01000000000000000000000000000000000000000000000000000000000281526004016000604051808303818588803b15801561093f57600080fd5b505af1158015610953573d6000803e3d6000fd5b5050604080517f4552433230546f6b656e28616464726573732900000000000000000000000000815290519081900360130190207fffffffff000000000000000000000000000000000000000000000000000000008581169116141592506109cc915050576109c58a8a8a8a8a6117d6565b9250610a5f565b604080517f455243373231546f6b656e28616464726573732c75696e743235362c6279746581527f7329000000000000000000000000000000000000000000000000000000000000602082015290519081900360220190207fffffffff0000000000000000000000000000000000000000000000000000000082811691161415610a5f57610a5c8a8a8a8a611b2d565b92505b6020830151821015610a9d576040517f08c379a0000000000000000000000000000000000000000000000000000000008152600401610120906132fc565b610aba610aae83856020015161109d565b84602001518787611e2f565b5050979650505050505050565b60005473ffffffffffffffffffffffffffffffffffffffff1681565b61271081565b6103e881565b610af76124be565b6000806000610b046124be565b600093505b86518410156106b457610b2086866000015161109d565b9250610b878785815181101515610b3357fe5b9060200190602002015160a00151610b818987815181101515610b5257fe5b90602001906020020151608001518a88815181101515610b6e57fe5b9060200190602002015160e0015161109d565b85611591565b9150610bb48785815181101515610b9a57fe5b90602001906020020151610baf846001611f1c565b6115ae565b9050610bc88160000151826060015161109d565b8152610bd48582611707565b84518611610be1576106b4565b600190930192610b09565b604080517f6f6e455243373231526563656976656428616464726573732c75696e7432353681527f2c62797465732900000000000000000000000000000000000000000000000000602082015290519081900360270190205b9392505050565b6000805473ffffffffffffffffffffffffffffffffffffffff163314610c9e576040517f08c379a00000000000000000000000000000000000000000000000000000000081526004016101209061336c565b6001546040517f6070410800000000000000000000000000000000000000000000000000000000815273ffffffffffffffffffffffffffffffffffffffff90911690636070410890610cf49085906004016132de565b602060405180830381600087803b158015610d0e57600080fd5b505af1158015610d22573d6000803e3d6000fd5b505050506040513d601f19601f82011682018060405250610d46919081019061289d565b905073ffffffffffffffffffffffffffffffffffffffff811615610ebf576002546006546040517f095ea7b300000000000000000000000000000000000000000000000000000000815273ffffffffffffffffffffffffffffffffffffffff9092169163095ea7b391610dbe91859190600401613258565b602060405180830381600087803b158015610dd857600080fd5b505af1158015610dec573d6000803e3d6000fd5b505050506040513d601f19601f82011682018060405250610e109190810190612bcb565b506003546006546040517f095ea7b300000000000000000000000000000000000000000000000000000000815273ffffffffffffffffffffffffffffffffffffffff9092169163095ea7b391610e6b91859190600401613258565b602060405180830381600087803b158015610e8557600080fd5b505af1158015610e99573d6000803e3d6000fd5b505050506040513d601f19601f82011682018060405250610ebd9190810190612bcb565b505b5050565b60005473ffffffffffffffffffffffffffffffffffffffff163314610f14576040517f08c379a00000000000000000000000000000000000000000000000000000000081526004016101209061336c565b73ffffffffffffffffffffffffffffffffffffffff811615610f7157600080547fffffffffffffffffffffffff00000000000000000000000000000000000000001673ffffffffffffffffffffffffffffffffffffffff83161790555b50565b604080517f455243373231546f6b656e28616464726573732c75696e743235362c6279746581527f73290000000000000000000000000000000000000000000000000000000000006020820152905190819003602201902081565b6000808361ffff16118015610ff9575073ffffffffffffffffffffffffffffffffffffffff821615155b15610c45576103e861ffff8416111561103e576040517f08c379a00000000000000000000000000000000000000000000000000000000081526004016101209061333c565b61104f61ffff841661271086611591565b60405190915073ffffffffffffffffffffffffffffffffffffffff83169082156108fc029083906000818181858888f19350505050158015611095573d6000803e3d6000fd5b509392505050565b6000828211156110a957fe5b508082035b92915050565b6000816014018351101515156110f6576040517f08c379a00000000000000000000000000000000000000000000000000000000081526004016101209061337c565b50016014015173ffffffffffffffffffffffffffffffffffffffff1690565b61111d6124be565b6001546040517f7e1d980800000000000000000000000000000000000000000000000000000000815260009173ffffffffffffffffffffffffffffffffffffffff1690637e1d980890611178908890879089906004016132ac565b608060405180830381600087803b15801561119257600080fd5b505af11580156111a6573d6000803e3d6000fd5b505050506040513d601f19601f820116820180604052506111ca9190810190612c07565b91506111de8260000151836060015161109d565b90506111ee826000015182611f2b565b1515611226576040517f08c379a00000000000000000000000000000000000000000000000000000000081526004016101209061335c565b81529392505050565b6112376124be565b60006112416124be565b6112496124be565b6112516124be565b85935061125e8a87611f48565b92506000836060015111156112f25761127c88888560600151611fb2565b91506112958661129088856020015161109d565b611f2b565b15156112cd576040517f08c379a00000000000000000000000000000000000000000000000000000000081526004016101209061335c565b6112db84836020015161109d565b606080840151908701526020808401519087015293505b6001546040517f7e1d980800000000000000000000000000000000000000000000000000000000815273ffffffffffffffffffffffffffffffffffffffff90911690637e1d98089061134c908d9088908e906004016132ac565b608060405180830381600087803b15801561136657600080fd5b505af115801561137a573d6000803e3d6000fd5b505050506040513d601f19601f8201168201806040525061139e9190810190612c07565b90506113aa8582611707565b5050505095945050505050565b604080517f7472616e7366657228616464726573732c75696e7432353629000000000000008152905190819003601901812060009173ffffffffffffffffffffffffffffffffffffffff861691906114159086908690602401613258565b604080517fffffffffffffffffffffffffffffffffffffffffffffffffffffffffffffffe08184030181529181526020820180517bffffffffffffffffffffffffffffffffffffffffffffffffffffffff167fffffffff000000000000000000000000000000000000000000000000000000009094169390931783525181519192909182919080838360005b838110156114b95781810151838201526020016114a1565b50505050905090810190601f1680156114e65780820380516001836020036101000a031916815260200191505b509150506000604051808303816000865af192505050801515611535576040517f08c379a00000000000000000000000000000000000000000000000000000000081526004016101209061334c565b3d15611552575060003d602014156115525760206000803e506000515b80151561158b576040517f08c379a00000000000000000000000000000000000000000000000000000000081526004016101209061334c565b50505050565b60006115a66115a085846122eb565b8461230f565b949350505050565b6115b66124be565b6115be6124e7565b6001546040517fc75e0a81000000000000000000000000000000000000000000000000000000008152600091829173ffffffffffffffffffffffffffffffffffffffff9091169063c75e0a81906116199089906004016133ba565b606060405180830381600087803b15801561163357600080fd5b505af1158015611647573d6000803e3d6000fd5b505050506040513d601f19601f8201168201806040525061166b9190810190612c25565b805190935060ff1660031461167f576116fe565b6116918660a00151846040015161109d565b915061169d8583612326565b6020850181905260a087015160808801519192506116bd91839190611591565b8452602084015160a087015160c08801516116d9929190611591565b6040850152602084015160a087015160e08801516116f8929190611591565b60608501525b50505092915050565b815181516117159190611f1c565b82526020808301519082015161172b9190611f1c565b6020830152604080830151908201516117449190611f1c565b60408301526060808301519082015161175d9190611f1c565b60609092019190915250565b6000816004018351101515156117ab576040517f08c379a00000000000000000000000000000000000000000000000000000000081526004016101209061339c565b5050602001517fffffffff000000000000000000000000000000000000000000000000000000001690565b6117de6124be565b60006117e86124be565b6117f06124be565b6117f86124be565b61180a8a600081518110151561043c57fe5b60058054604080516020601f60027fffffffffffffffffffffffffffffffffffffffffffffffffffffffffffffffff61010060018816150201909516949094049384018190048102820181019092528281529397508301828280156118b05780601f10611885576101008083540402835291602001916118b0565b820191906000526020600020905b81548152906001019060200180831161189357829003601f168201915b50505050508a60008151811015156118c457fe5b60209081029091010151610160015260035473ffffffffffffffffffffffffffffffffffffffff858116911614156119a2576119018a8a88611fb2565b805190935086111561193f576040517f08c379a00000000000000000000000000000000000000000000000000000000081526004016101209061335c565b6119498584611707565b61196561195e86600001518760600151611f1c565b8651611f2b565b151561199d576040517f08c379a00000000000000000000000000000000000000000000000000000000081526004016101209061335c565b611b1e565b6119ac8a876105f8565b91506000826060015111156119e1576119ca88888460600151611fb2565b602080820151908701526060808201519087015290505b6001546040517fe5fa431b00000000000000000000000000000000000000000000000000000000815273ffffffffffffffffffffffffffffffffffffffff9091169063e5fa431b90611a3b908d908a908e906004016132ac565b608060405180830381600087803b158015611a5557600080fd5b505af1158015611a69573d6000803e3d6000fd5b505050506040513d601f19601f82011682018060405250611a8d9190810190612c07565b80519093508614611aca576040517f08c379a00000000000000000000000000000000000000000000000000000000081526004016101209061335c565b611ad48584611707565b611ae685602001518460200151611f2b565b1515611b1e576040517f08c379a00000000000000000000000000000000000000000000000000000000081526004016101209061335c565b6113aa843385600001516113b7565b611b356124be565b60008060606000611b446124be565b611b4c6124be565b8a51945084604051908082528060200260200182016040528015611b7a578160200160208202803883390190505b509350600092505b84831015611cb657611baf868c85815181101515611b9c57fe5b9060200190602002015160e00151611f1c565b60058054604080516020601f60027fffffffffffffffffffffffffffffffffffffffffffffffffffffffffffffffff6101006001881615020190951694909404938401819004810282018101909252828152939950830182828015611c555780601f10611c2a57610100808354040283529160200191611c55565b820191906000526020600020905b815481529060010190602001808311611c3857829003601f168201915b50505050508b84815181101515611c6857fe5b6020908102909101015161016001528a518b9084908110611c8557fe5b9060200190602002015160a001518484815181101515611ca157fe5b60209081029091010152600190920191611b82565b6000861115611ce157611cca898988611fb2565b606080820151908901526020808201519089015291505b6001546040517f4d0ae54600000000000000000000000000000000000000000000000000000000815273ffffffffffffffffffffffffffffffffffffffff90911690634d0ae54690611d3b908e9088908f90600401613273565b608060405180830381600087803b158015611d5557600080fd5b505af1158015611d69573d6000803e3d6000fd5b505050506040513d601f19601f82011682018060405250611d8d9190810190612c07565b9050611d998782611707565b611dab87602001518260200151611f2b565b1515611de3576040517f08c379a00000000000000000000000000000000000000000000000000000000081526004016101209061335c565b600092505b84831015611e2157611e168b84815181101515611e0157fe5b9060200190602002015161014001513361233c565b600190920191611de8565b505050505050949350505050565b6000806000861115611f14576002546040517f2e1a7d4d00000000000000000000000000000000000000000000000000000000815273ffffffffffffffffffffffffffffffffffffffff90911690632e1a7d4d90611e9190899060040161340b565b600060405180830381600087803b158015611eab57600080fd5b505af1158015611ebf573d6000803e3d6000fd5b50505050611ece858585610fcf565b9150611eda868361109d565b90506000811115611f1457604051339082156108fc029083906000818181858888f19350505050158015611f12573d6000803e3d6000fd5b505b505050505050565b600082820183811015610c4557fe5b600080611f3d61251c61271086611591565b909210159392505050565b611f506124be565b600080611f5b6124be565b600092505b85518310156116fe57611f7785856020015161109d565b9150611f8a868481518110151561067f57fe5b9050611f968482611707565b8484602001511415611fa7576116fe565b600190920191611f60565b611fba6124be565b6000806000611fc76124be565b600093505b87518410156122e0576004805460408051602060026001851615610100027fffffffffffffffffffffffffffffffffffffffffffffffffffffffffffffffff0190941693909304601f810184900484028201840190925281815292918301828280156120795780601f1061204e57610100808354040283529160200191612079565b820191906000526020600020905b81548152906001019060200180831161205c57829003601f168201915b5050505050888581518110151561208c57fe5b602090810290910181015161014001919091526005805460408051601f60027fffffffffffffffffffffffffffffffffffffffffffffffffffffffffffffffff6101006001871615020190941693909304928301859004850281018501909152818152928301828280156121415780601f1061211657610100808354040283529160200191612141565b820191906000526020600020905b81548152906001019060200180831161212457829003601f168201915b5050505050888581518110151561215457fe5b602090810290910101516101600152845161217090879061109d565b92506121be888581518110151561218357fe5b9060200190602002015160a00151610b818a878151811015156121a257fe5b90602001906020020151608001518b88815181101515610b6e57fe5b600154895191935073ffffffffffffffffffffffffffffffffffffffff169063b4be83d5908a90879081106121ef57fe5b90602001906020020151612204856001611f1c565b8a8881518110151561221257fe5b906020019060200201516040518463ffffffff167c0100000000000000000000000000000000000000000000000000000000028152600401612256939291906133cb565b608060405180830381600087803b15801561227057600080fd5b505af1158015612284573d6000803e3d6000fd5b505050506040513d601f19601f820116820180604052506122a89190810190612c07565b90506122bc8160000151826060015161109d565b81526122c88582611707565b845186116122d5576122e0565b600190930192611fcc565b505050509392505050565b6000828202831580612307575082848281151561230457fe5b04145b1515610c4557fe5b600080828481151561231d57fe5b04949350505050565b60008183106123355781610c45565b5090919050565b600080606061235285601063ffffffff6110b416565b925061236585602463ffffffff61240c16565b915061237885606463ffffffff61241816565b6040517fb88d4fde00000000000000000000000000000000000000000000000000000000815290915073ffffffffffffffffffffffffffffffffffffffff84169063b88d4fde906123d3903090889087908790600401613214565b600060405180830381600087803b1580156123ed57600080fd5b505af1158015612401573d6000803e3d6000fd5b505050505050505050565b6000610c458383612473565b60606000612426848461240c565b905060208301925080830184511015151561246d576040517f08c379a00000000000000000000000000000000000000000000000000000000081526004016101209061330c565b50500190565b6000816020018351101515156124b5576040517f08c379a00000000000000000000000000000000000000000000000000000000081526004016101209061332c565b50016020015190565b608060405190810160405280600081526020016000815260200160008152602001600081525090565b604080516060810182526000808252602082018190529181019190915290565b6000610c4582356134b1565b6000610c4582516134b1565b6000601f8201831361253057600080fd5b813561254361253e82613440565b613419565b81815260209384019390925082018360005b838110156106b4578135860161256b8882612602565b8452506020928301929190910190600101612555565b6000601f8201831361259257600080fd5b81356125a061253e82613440565b81815260209384019390925082018360005b838110156106b457813586016125c88882612712565b84525060209283019291909101906001016125b2565b6000610c4582516134f9565b6000610c4582516134f6565b6000610c4582356134ca565b6000601f8201831361261357600080fd5b813561262161253e82613461565b9150808252602083016020830185838301111561263d57600080fd5b6116fe838284613504565b60006080828403121561265a57600080fd5b6126646080613419565b9050600061267284846125ea565b8252506020612683848483016125ea565b6020830152506040612697848285016125ea565b60408301525060606126ab848285016125ea565b60608301525092915050565b6000606082840312156126c957600080fd5b6126d36060613419565b905060006126e18484612873565b82525060206126f2848483016125ea565b6020830152506040612706848285016125ea565b60408301525092915050565b6000610180828403121561272557600080fd5b612730610180613419565b9050600061273e8484612507565b825250602061274f84848301612507565b602083015250604061276384828501612507565b604083015250606061277784828501612507565b606083015250608061278b84828501612867565b60808301525060a061279f84828501612867565b60a08301525060c06127b384828501612867565b60c08301525060e06127c784828501612867565b60e0830152506101006127dc84828501612867565b610100830152506101206127f284828501612867565b6101208301525061014082013567ffffffffffffffff81111561281457600080fd5b61282084828501612602565b6101408301525061016082013567ffffffffffffffff81111561284257600080fd5b61284e84828501612602565b6101608301525092915050565b6000610c4582356134ef565b6000610c4582356134f6565b6000610c4582516134fe565b60006020828403121561289157600080fd5b60006115a68484612507565b6000602082840312156128af57600080fd5b60006115a68484612513565b600080600080608085870312156128d157600080fd5b60006128dd8787612507565b94505060206128ee87828801612507565b93505060406128ff87828801612867565b925050606085013567ffffffffffffffff81111561291c57600080fd5b61292887828801612602565b91505092959194509250565b60008060006060848603121561294957600080fd5b60006129558686612507565b935050602061296686828701612867565b925050604084013567ffffffffffffffff81111561298357600080fd5b61298f86828701612602565b9150509250925092565b60008060008060008060c087890312156129b257600080fd5b863567ffffffffffffffff8111156129c957600080fd5b6129d589828a01612581565b965050602087013567ffffffffffffffff8111156129f257600080fd5b6129fe89828a0161251f565b955050604087013567ffffffffffffffff811115612a1b57600080fd5b612a2789828a01612581565b945050606087013567ffffffffffffffff811115612a4457600080fd5b612a5089828a0161251f565b9350506080612a6189828a0161285b565b92505060a0612a7289828a01612507565b9150509295509295509295565b600080600080600080600060e0888a031215612a9a57600080fd5b873567ffffffffffffffff811115612ab157600080fd5b612abd8a828b01612581565b975050602088013567ffffffffffffffff811115612ada57600080fd5b612ae68a828b0161251f565b965050604088013567ffffffffffffffff811115612b0357600080fd5b612b0f8a828b01612581565b955050606088013567ffffffffffffffff811115612b2c57600080fd5b612b388a828b0161251f565b9450506080612b498a828b01612867565b93505060a0612b5a8a828b0161285b565b92505060c0612b6b8a828b01612507565b91505092959891949750929550565b60008060408385031215612b8d57600080fd5b823567ffffffffffffffff811115612ba457600080fd5b612bb085828601612581565b9250506020612bc185828601612867565b9150509250929050565b600060208284031215612bdd57600080fd5b60006115a684846125de565b600060208284031215612bfb57600080fd5b60006115a684846125f6565b600060808284031215612c1957600080fd5b60006115a68484612648565b600060608284031215612c3757600080fd5b60006115a684846126b7565b612c4c816134b1565b82525050565b6000612c5d826134ad565b80845260208401935083602082028501612c76856134a7565b60005b84811015612cad578383038852612c91838351612d74565b9250612c9c826134a7565b602098909801979150600101612c79565b50909695505050505050565b6000612cc4826134ad565b80845260208401935083602082028501612cdd856134a7565b60005b84811015612cad578383038852612cf88383516130f1565b9250612d03826134a7565b602098909801979150600101612ce0565b6000612d1f826134ad565b808452602084019350612d31836134a7565b60005b82811015612d6157612d478683516131fd565b612d50826134a7565b602096909601959150600101612d34565b5093949350505050565b612c4c816134ca565b6000612d7f826134ad565b808452612d93816020860160208601613510565b612d9c8161353c565b9093016020019392505050565b602381527f44454641554c545f46554e4354494f4e5f574554485f434f4e54524143545f4f60208201527f4e4c590000000000000000000000000000000000000000000000000000000000604082015260600190565b601181527f494e56414c49445f4d53475f56414c5545000000000000000000000000000000602082015260400190565b603081527f475245415445525f4f525f455155414c5f544f5f4e45535445445f425954455360208201527f5f4c454e4754485f524551554952454400000000000000000000000000000000604082015260600190565b601781527f56414c55455f475245415445525f5448414e5f5a45524f000000000000000000602082015260400190565b602681527f475245415445525f4f525f455155414c5f544f5f33325f4c454e4754485f524560208201527f5155495245440000000000000000000000000000000000000000000000000000604082015260600190565b601881527f4645455f50524f504f5254494f4e5f544f4f5f4c415247450000000000000000602082015260400190565b600f81527f5452414e534645525f4641494c45440000000000000000000000000000000000602082015260400190565b601681527f554e41434345505441424c455f5448524553484f4c4400000000000000000000602082015260400190565b601381527f4f4e4c595f434f4e54524143545f4f574e455200000000000000000000000000602082015260400190565b602681527f475245415445525f4f525f455155414c5f544f5f32305f4c454e4754485f524560208201527f5155495245440000000000000000000000000000000000000000000000000000604082015260600190565b601781527f554e535550504f525445445f544f4b454e5f50524f5859000000000000000000602082015260400190565b602581527f475245415445525f4f525f455155414c5f544f5f345f4c454e4754485f52455160208201527f5549524544000000000000000000000000000000000000000000000000000000604082015260600190565b805160808301906130b884826131fd565b5060208201516130cb60208501826131fd565b5060408201516130de60408501826131fd565b50606082015161158b60608501826131fd565b80516000906101808401906131068582612c43565b5060208301516131196020860182612c43565b50604083015161312c6040860182612c43565b50606083015161313f6060860182612c43565b50608083015161315260808601826131fd565b5060a083015161316560a08601826131fd565b5060c083015161317860c08601826131fd565b5060e083015161318b60e08601826131fd565b506101008301516131a06101008601826131fd565b506101208301516131b56101208601826131fd565b506101408301518482036101408601526131cf8282612d74565b9150506101608301518482036101608601526131eb8282612d74565b95945050505050565b612c4c816134ef565b612c4c816134f6565b602081016110ae8284612c43565b608081016132228287612c43565b61322f6020830186612c43565b61323c60408301856131fd565b818103606083015261324e8184612d74565b9695505050505050565b604081016132668285612c43565b610c4560208301846131fd565b606080825281016132848186612cb9565b905081810360208301526132988185612d14565b905081810360408301526131eb8184612c52565b606080825281016132bd8186612cb9565b90506132cc60208301856131fd565b81810360408301526131eb8184612c52565b602081016110ae8284612d6b565b602080825281016110ae81612da9565b602080825281016110ae81612dff565b602080825281016110ae81612e2f565b602080825281016110ae81612e85565b602080825281016110ae81612eb5565b602080825281016110ae81612f0b565b602080825281016110ae81612f3b565b602080825281016110ae81612f6b565b602080825281016110ae81612f9b565b602080825281016110ae81612fcb565b602080825281016110ae81613021565b602080825281016110ae81613051565b608081016110ae82846130a7565b60208082528101610c4581846130f1565b606080825281016133dc81866130f1565b90506133eb60208301856131fd565b81810360408301526131eb8184612d74565b602081016110ae82846131f4565b602081016110ae82846131fd565b60405181810167ffffffffffffffff8111828210171561343857600080fd5b604052919050565b600067ffffffffffffffff82111561345757600080fd5b5060209081020190565b600067ffffffffffffffff82111561347857600080fd5b506020601f919091017fffffffffffffffffffffffffffffffffffffffffffffffffffffffffffffffe0160190565b60200190565b5190565b73ffffffffffffffffffffffffffffffffffffffff1690565b7fffffffff000000000000000000000000000000000000000000000000000000001690565b61ffff1690565b90565b151590565b60ff1690565b82818337506000910152565b60005b8381101561352b578181015183820152602001613513565b8381111561158b5750506000910152565b601f017fffffffffffffffffffffffffffffffffffffffffffffffffffffffffffffffe016905600a265627a7a723058207797c5e4e7170c401c509a807353c0a60ad36b6f14cf1a605ddebbbf0b7ce3c36c6578706572696d656e74616cf50037",
				"opcodes": "PUSH1 0x80 PUSH1 0x40 MSTORE PUSH1 0x0 NOT PUSH1 0x6 SSTORE CALLVALUE DUP1 ISZERO PUSH3 0x17 JUMPI PUSH1 0x0 DUP1 REVERT JUMPDEST POP PUSH1 0x40 MLOAD PUSH3 0x3C7D CODESIZE SUB DUP1 PUSH3 0x3C7D DUP4 CODECOPY DUP2 ADD DUP1 PUSH1 0x40 MSTORE PUSH3 0x3D SWAP2 SWAP1 DUP2 ADD SWAP1 PUSH3 0x494 JUMP JUMPDEST PUSH1 0x0 DUP1 SLOAD CALLER PUSH1 0x1 PUSH1 0xA0 PUSH1 0x2 EXP SUB NOT SWAP2 DUP3 AND OR SWAP1 SWAP2 SSTORE PUSH1 0x1 DUP1 SLOAD DUP3 AND PUSH1 0x1 PUSH1 0xA0 PUSH1 0x2 EXP SUB DUP10 DUP2 AND SWAP2 SWAP1 SWAP2 OR SWAP1 SWAP2 SSTORE PUSH1 0x2 DUP1 SLOAD DUP4 AND DUP9 DUP4 AND OR SWAP1 SSTORE PUSH1 0x3 DUP1 SLOAD SWAP1 SWAP3 AND SWAP1 DUP7 AND OR SWAP1 SSTORE DUP2 MLOAD DUP7 SWAP1 DUP7 SWAP1 DUP7 SWAP1 DUP6 SWAP1 DUP6 SWAP1 PUSH3 0xA2 SWAP1 PUSH1 0x4 SWAP1 PUSH1 0x20 DUP6 ADD SWAP1 PUSH3 0x339 JUMP JUMPDEST POP DUP1 MLOAD PUSH3 0xB8 SWAP1 PUSH1 0x5 SWAP1 PUSH1 0x20 DUP5 ADD SWAP1 PUSH3 0x339 JUMP JUMPDEST POP POP POP POP POP POP PUSH3 0xD8 DUP4 PUSH3 0xE4 PUSH5 0x100000000 MUL PUSH5 0x100000000 SWAP1 DIV JUMP JUMPDEST POP POP POP POP POP POP PUSH3 0x6CF JUMP JUMPDEST PUSH1 0x0 DUP1 SLOAD PUSH1 0x1 PUSH1 0xA0 PUSH1 0x2 EXP SUB AND CALLER EQ PUSH3 0x135 JUMPI PUSH1 0x40 MLOAD PUSH32 0x8C379A000000000000000000000000000000000000000000000000000000000 DUP2 MSTORE PUSH1 0x4 ADD PUSH3 0x12C SWAP1 PUSH3 0x605 JUMP JUMPDEST PUSH1 0x40 MLOAD DUP1 SWAP2 SUB SWAP1 REVERT JUMPDEST PUSH1 0x1 SLOAD PUSH1 0x40 MLOAD PUSH32 0x6070410800000000000000000000000000000000000000000000000000000000 DUP2 MSTORE PUSH1 0x1 PUSH1 0xA0 PUSH1 0x2 EXP SUB SWAP1 SWAP2 AND SWAP1 PUSH4 0x60704108 SWAP1 PUSH3 0x180 SWAP1 DUP6 SWAP1 PUSH1 0x4 ADD PUSH3 0x5EF JUMP JUMPDEST PUSH1 0x20 PUSH1 0x40 MLOAD DUP1 DUP4 SUB DUP2 PUSH1 0x0 DUP8 DUP1 EXTCODESIZE ISZERO DUP1 ISZERO PUSH3 0x19B JUMPI PUSH1 0x0 DUP1 REVERT JUMPDEST POP GAS CALL ISZERO DUP1 ISZERO PUSH3 0x1B0 JUMPI RETURNDATASIZE PUSH1 0x0 DUP1 RETURNDATACOPY RETURNDATASIZE PUSH1 0x0 REVERT JUMPDEST POP POP POP POP PUSH1 0x40 MLOAD RETURNDATASIZE PUSH1 0x1F NOT PUSH1 0x1F DUP3 ADD AND DUP3 ADD DUP1 PUSH1 0x40 MSTORE POP PUSH3 0x1D6 SWAP2 SWAP1 DUP2 ADD SWAP1 PUSH3 0x46B JUMP JUMPDEST SWAP1 POP PUSH1 0x1 PUSH1 0xA0 PUSH1 0x2 EXP SUB DUP2 AND ISZERO PUSH3 0x335 JUMPI PUSH1 0x2 SLOAD PUSH1 0x6 SLOAD PUSH1 0x40 MLOAD PUSH32 0x95EA7B300000000000000000000000000000000000000000000000000000000 DUP2 MSTORE PUSH1 0x1 PUSH1 0xA0 PUSH1 0x2 EXP SUB SWAP1 SWAP3 AND SWAP2 PUSH4 0x95EA7B3 SWAP2 PUSH3 0x237 SWAP2 DUP6 SWAP2 SWAP1 PUSH1 0x4 ADD PUSH3 0x5D0 JUMP JUMPDEST PUSH1 0x20 PUSH1 0x40 MLOAD DUP1 DUP4 SUB DUP2 PUSH1 0x0 DUP8 DUP1 EXTCODESIZE ISZERO DUP1 ISZERO PUSH3 0x252 JUMPI PUSH1 0x0 DUP1 REVERT JUMPDEST POP GAS CALL ISZERO DUP1 ISZERO PUSH3 0x267 JUMPI RETURNDATASIZE PUSH1 0x0 DUP1 RETURNDATACOPY RETURNDATASIZE PUSH1 0x0 REVERT JUMPDEST POP POP POP POP PUSH1 0x40 MLOAD RETURNDATASIZE PUSH1 0x1F NOT PUSH1 0x1F DUP3 ADD AND DUP3 ADD DUP1 PUSH1 0x40 MSTORE POP PUSH3 0x28D SWAP2 SWAP1 DUP2 ADD SWAP1 PUSH3 0x558 JUMP JUMPDEST POP PUSH1 0x3 SLOAD PUSH1 0x6 SLOAD PUSH1 0x40 MLOAD PUSH32 0x95EA7B300000000000000000000000000000000000000000000000000000000 DUP2 MSTORE PUSH1 0x1 PUSH1 0xA0 PUSH1 0x2 EXP SUB SWAP1 SWAP3 AND SWAP2 PUSH4 0x95EA7B3 SWAP2 PUSH3 0x2DD SWAP2 DUP6 SWAP2 SWAP1 PUSH1 0x4 ADD PUSH3 0x5D0 JUMP JUMPDEST PUSH1 0x20 PUSH1 0x40 MLOAD DUP1 DUP4 SUB DUP2 PUSH1 0x0 DUP8 DUP1 EXTCODESIZE ISZERO DUP1 ISZERO PUSH3 0x2F8 JUMPI PUSH1 0x0 DUP1 REVERT JUMPDEST POP GAS CALL ISZERO DUP1 ISZERO PUSH3 0x30D JUMPI RETURNDATASIZE PUSH1 0x0 DUP1 RETURNDATACOPY RETURNDATASIZE PUSH1 0x0 REVERT JUMPDEST POP POP POP POP PUSH1 0x40 MLOAD RETURNDATASIZE PUSH1 0x1F NOT PUSH1 0x1F DUP3 ADD AND DUP3 ADD DUP1 PUSH1 0x40 MSTORE POP PUSH3 0x333 SWAP2 SWAP1 DUP2 ADD SWAP1 PUSH3 0x558 JUMP JUMPDEST POP JUMPDEST POP POP JUMP JUMPDEST DUP3 DUP1 SLOAD PUSH1 0x1 DUP2 PUSH1 0x1 AND ISZERO PUSH2 0x100 MUL SUB AND PUSH1 0x2 SWAP1 DIV SWAP1 PUSH1 0x0 MSTORE PUSH1 0x20 PUSH1 0x0 KECCAK256 SWAP1 PUSH1 0x1F ADD PUSH1 0x20 SWAP1 DIV DUP2 ADD SWAP3 DUP3 PUSH1 0x1F LT PUSH3 0x37C JUMPI DUP1 MLOAD PUSH1 0xFF NOT AND DUP4 DUP1 ADD OR DUP6 SSTORE PUSH3 0x3AC JUMP JUMPDEST DUP3 DUP1 ADD PUSH1 0x1 ADD DUP6 SSTORE DUP3 ISZERO PUSH3 0x3AC JUMPI SWAP2 DUP3 ADD JUMPDEST DUP3 DUP2 GT ISZERO PUSH3 0x3AC JUMPI DUP3 MLOAD DUP3 SSTORE SWAP2 PUSH1 0x20 ADD SWAP2 SWAP1 PUSH1 0x1 ADD SWAP1 PUSH3 0x38F JUMP JUMPDEST POP PUSH3 0x3BA SWAP3 SWAP2 POP PUSH3 0x3BE JUMP JUMPDEST POP SWAP1 JUMP JUMPDEST PUSH3 0x3DB SWAP2 SWAP1 JUMPDEST DUP1 DUP3 GT ISZERO PUSH3 0x3BA JUMPI PUSH1 0x0 DUP2 SSTORE PUSH1 0x1 ADD PUSH3 0x3C5 JUMP JUMPDEST SWAP1 JUMP JUMPDEST PUSH1 0x0 PUSH3 0x3EC DUP3 MLOAD PUSH3 0x666 JUMP JUMPDEST SWAP4 SWAP3 POP POP POP JUMP JUMPDEST PUSH1 0x0 PUSH3 0x3EC DUP3 MLOAD PUSH3 0x697 JUMP JUMPDEST PUSH1 0x0 PUSH3 0x3EC DUP3 MLOAD PUSH3 0x672 JUMP JUMPDEST PUSH1 0x0 PUSH1 0x1F DUP3 ADD DUP4 SGT PUSH3 0x421 JUMPI PUSH1 0x0 DUP1 REVERT JUMPDEST DUP2 MLOAD PUSH3 0x438 PUSH3 0x432 DUP3 PUSH3 0x63E JUMP JUMPDEST PUSH3 0x617 JUMP JUMPDEST SWAP2 POP DUP1 DUP3 MSTORE PUSH1 0x20 DUP4 ADD PUSH1 0x20 DUP4 ADD DUP6 DUP4 DUP4 ADD GT ISZERO PUSH3 0x455 JUMPI PUSH1 0x0 DUP1 REVERT JUMPDEST PUSH3 0x462 DUP4 DUP3 DUP5 PUSH3 0x69C JUMP JUMPDEST POP POP POP SWAP3 SWAP2 POP POP JUMP JUMPDEST PUSH1 0x0 PUSH1 0x20 DUP3 DUP5 SUB SLT ISZERO PUSH3 0x47E JUMPI PUSH1 0x0 DUP1 REVERT JUMPDEST PUSH1 0x0 PUSH3 0x48C DUP5 DUP5 PUSH3 0x3DE JUMP JUMPDEST SWAP5 SWAP4 POP POP POP POP JUMP JUMPDEST PUSH1 0x0 DUP1 PUSH1 0x0 DUP1 PUSH1 0x0 DUP1 PUSH1 0xC0 DUP8 DUP10 SUB SLT ISZERO PUSH3 0x4AE JUMPI PUSH1 0x0 DUP1 REVERT JUMPDEST PUSH1 0x0 PUSH3 0x4BC DUP10 DUP10 PUSH3 0x3DE JUMP JUMPDEST SWAP7 POP POP PUSH1 0x20 PUSH3 0x4CF DUP10 DUP3 DUP11 ADD PUSH3 0x3DE JUMP JUMPDEST SWAP6 POP POP PUSH1 0x40 PUSH3 0x4E2 DUP10 DUP3 DUP11 ADD PUSH3 0x3DE JUMP JUMPDEST SWAP5 POP POP PUSH1 0x60 PUSH3 0x4F5 DUP10 DUP3 DUP11 ADD PUSH3 0x401 JUMP JUMPDEST SWAP4 POP POP PUSH1 0x80 DUP8 ADD MLOAD PUSH1 0x1 PUSH1 0x40 PUSH1 0x2 EXP SUB DUP2 GT ISZERO PUSH3 0x512 JUMPI PUSH1 0x0 DUP1 REVERT JUMPDEST PUSH3 0x520 DUP10 DUP3 DUP11 ADD PUSH3 0x40F JUMP JUMPDEST SWAP3 POP POP PUSH1 0xA0 DUP8 ADD MLOAD PUSH1 0x1 PUSH1 0x40 PUSH1 0x2 EXP SUB DUP2 GT ISZERO PUSH3 0x53D JUMPI PUSH1 0x0 DUP1 REVERT JUMPDEST PUSH3 0x54B DUP10 DUP3 DUP11 ADD PUSH3 0x40F JUMP JUMPDEST SWAP2 POP POP SWAP3 SWAP6 POP SWAP3 SWAP6 POP SWAP3 SWAP6 JUMP JUMPDEST PUSH1 0x0 PUSH1 0x20 DUP3 DUP5 SUB SLT ISZERO PUSH3 0x56B JUMPI PUSH1 0x0 DUP1 REVERT JUMPDEST PUSH1 0x0 PUSH3 0x48C DUP5 DUP5 PUSH3 0x3F3 JUMP JUMPDEST PUSH3 0x584 DUP2 PUSH3 0x666 JUMP JUMPDEST DUP3 MSTORE POP POP JUMP JUMPDEST PUSH3 0x584 DUP2 PUSH3 0x672 JUMP JUMPDEST PUSH1 0x13 DUP2 MSTORE PUSH32 0x4F4E4C595F434F4E54524143545F4F574E455200000000000000000000000000 PUSH1 0x20 DUP3 ADD MSTORE PUSH1 0x40 ADD SWAP1 JUMP JUMPDEST PUSH3 0x584 DUP2 PUSH3 0x3DB JUMP JUMPDEST PUSH1 0x40 DUP2 ADD PUSH3 0x5E0 DUP3 DUP6 PUSH3 0x579 JUMP JUMPDEST PUSH3 0x3EC PUSH1 0x20 DUP4 ADD DUP5 PUSH3 0x5C5 JUMP JUMPDEST PUSH1 0x20 DUP2 ADD PUSH3 0x5FF DUP3 DUP5 PUSH3 0x58A JUMP JUMPDEST SWAP3 SWAP2 POP POP JUMP JUMPDEST PUSH1 0x20 DUP1 DUP3 MSTORE DUP2 ADD PUSH3 0x5FF DUP2 PUSH3 0x595 JUMP JUMPDEST PUSH1 0x40 MLOAD DUP2 DUP2 ADD PUSH1 0x1 PUSH1 0x40 PUSH1 0x2 EXP SUB DUP2 GT DUP3 DUP3 LT OR ISZERO PUSH3 0x636 JUMPI PUSH1 0x0 DUP1 REVERT JUMPDEST PUSH1 0x40 MSTORE SWAP2 SWAP1 POP JUMP JUMPDEST PUSH1 0x0 PUSH1 0x1 PUSH1 0x40 PUSH1 0x2 EXP SUB DUP3 GT ISZERO PUSH3 0x655 JUMPI PUSH1 0x0 DUP1 REVERT JUMPDEST POP PUSH1 0x20 PUSH1 0x1F SWAP2 SWAP1 SWAP2 ADD PUSH1 0x1F NOT AND ADD SWAP1 JUMP JUMPDEST PUSH1 0x1 PUSH1 0xA0 PUSH1 0x2 EXP SUB AND SWAP1 JUMP JUMPDEST PUSH32 0xFFFFFFFF00000000000000000000000000000000000000000000000000000000 AND SWAP1 JUMP JUMPDEST ISZERO ISZERO SWAP1 JUMP JUMPDEST PUSH1 0x0 JUMPDEST DUP4 DUP2 LT ISZERO PUSH3 0x6B9 JUMPI DUP2 DUP2 ADD MLOAD DUP4 DUP3 ADD MSTORE PUSH1 0x20 ADD PUSH3 0x69F JUMP JUMPDEST DUP4 DUP2 GT ISZERO PUSH3 0x6C9 JUMPI PUSH1 0x0 DUP5 DUP5 ADD MSTORE JUMPDEST POP POP POP POP JUMP JUMPDEST PUSH2 0x359E DUP1 PUSH3 0x6DF PUSH1 0x0 CODECOPY PUSH1 0x0 RETURN STOP PUSH1 0x80 PUSH1 0x40 MSTORE PUSH1 0x4 CALLDATASIZE LT PUSH2 0xCF JUMPI PUSH4 0xFFFFFFFF PUSH29 0x100000000000000000000000000000000000000000000000000000000 PUSH1 0x0 CALLDATALOAD DIV AND PUSH4 0x150B7A02 DUP2 EQ PUSH2 0x12B JUMPI DUP1 PUSH4 0x169645F2 EQ PUSH2 0x161 JUMPI DUP1 PUSH4 0x1C5B1EC4 EQ PUSH2 0x181 JUMPI DUP1 PUSH4 0x20472CF7 EQ PUSH2 0x1A1 JUMPI DUP1 PUSH4 0x4A00F7D5 EQ PUSH2 0x1C3 JUMPI DUP1 PUSH4 0x725CEF06 EQ PUSH2 0x1D8 JUMPI DUP1 PUSH4 0x8DA5CB5B EQ PUSH2 0x1EB JUMPI DUP1 PUSH4 0xB3CD4254 EQ PUSH2 0x20D JUMPI DUP1 PUSH4 0xBC063E1A EQ PUSH2 0x222 JUMPI DUP1 PUSH4 0xE58E9C16 EQ PUSH2 0x237 JUMPI DUP1 PUSH4 0xF0B9E5BA EQ PUSH2 0x257 JUMPI DUP1 PUSH4 0xF2AFD85A EQ PUSH2 0x277 JUMPI DUP1 PUSH4 0xF2FDE38B EQ PUSH2 0x297 JUMPI DUP1 PUSH4 0xFB4F9087 EQ PUSH2 0x2B7 JUMPI JUMPDEST PUSH1 0x2 SLOAD PUSH20 0xFFFFFFFFFFFFFFFFFFFFFFFFFFFFFFFFFFFFFFFF AND CALLER EQ PUSH2 0x129 JUMPI PUSH1 0x40 MLOAD PUSH32 0x8C379A000000000000000000000000000000000000000000000000000000000 DUP2 MSTORE PUSH1 0x4 ADD PUSH2 0x120 SWAP1 PUSH2 0x32EC JUMP JUMPDEST PUSH1 0x40 MLOAD DUP1 SWAP2 SUB SWAP1 REVERT JUMPDEST STOP JUMPDEST CALLVALUE DUP1 ISZERO PUSH2 0x137 JUMPI PUSH1 0x0 DUP1 REVERT JUMPDEST POP PUSH2 0x14B PUSH2 0x146 CALLDATASIZE PUSH1 0x4 PUSH2 0x28BB JUMP JUMPDEST PUSH2 0x2CC JUMP JUMPDEST PUSH1 0x40 MLOAD PUSH2 0x158 SWAP2 SWAP1 PUSH2 0x32DE JUMP JUMPDEST PUSH1 0x40 MLOAD DUP1 SWAP2 SUB SWAP1 RETURN JUMPDEST PUSH2 0x174 PUSH2 0x16F CALLDATASIZE PUSH1 0x4 PUSH2 0x2999 JUMP JUMPDEST PUSH2 0x32C JUMP JUMPDEST PUSH1 0x40 MLOAD PUSH2 0x158 SWAP2 SWAP1 PUSH2 0x33AC JUMP JUMPDEST CALLVALUE DUP1 ISZERO PUSH2 0x18D JUMPI PUSH1 0x0 DUP1 REVERT JUMPDEST POP PUSH2 0x174 PUSH2 0x19C CALLDATASIZE PUSH1 0x4 PUSH2 0x2B7A JUMP JUMPDEST PUSH2 0x5F8 JUMP JUMPDEST CALLVALUE DUP1 ISZERO PUSH2 0x1AD JUMPI PUSH1 0x0 DUP1 REVERT JUMPDEST POP PUSH2 0x1B6 PUSH2 0x6BE JUMP JUMPDEST PUSH1 0x40 MLOAD PUSH2 0x158 SWAP2 SWAP1 PUSH2 0x33FD JUMP JUMPDEST CALLVALUE DUP1 ISZERO PUSH2 0x1CF JUMPI PUSH1 0x0 DUP1 REVERT JUMPDEST POP PUSH2 0x14B PUSH2 0x6C4 JUMP JUMPDEST PUSH2 0x174 PUSH2 0x1E6 CALLDATASIZE PUSH1 0x4 PUSH2 0x2A7F JUMP JUMPDEST PUSH2 0x6F9 JUMP JUMPDEST CALLVALUE DUP1 ISZERO PUSH2 0x1F7 JUMPI PUSH1 0x0 DUP1 REVERT JUMPDEST POP PUSH2 0x200 PUSH2 0xAC7 JUMP JUMPDEST PUSH1 0x40 MLOAD PUSH2 0x158 SWAP2 SWAP1 PUSH2 0x3206 JUMP JUMPDEST CALLVALUE DUP1 ISZERO PUSH2 0x219 JUMPI PUSH1 0x0 DUP1 REVERT JUMPDEST POP PUSH2 0x1B6 PUSH2 0xAE3 JUMP JUMPDEST CALLVALUE DUP1 ISZERO PUSH2 0x22E JUMPI PUSH1 0x0 DUP1 REVERT JUMPDEST POP PUSH2 0x1B6 PUSH2 0xAE9 JUMP JUMPDEST CALLVALUE DUP1 ISZERO PUSH2 0x243 JUMPI PUSH1 0x0 DUP1 REVERT JUMPDEST POP PUSH2 0x174 PUSH2 0x252 CALLDATASIZE PUSH1 0x4 PUSH2 0x2B7A JUMP JUMPDEST PUSH2 0xAEF JUMP JUMPDEST CALLVALUE DUP1 ISZERO PUSH2 0x263 JUMPI PUSH1 0x0 DUP1 REVERT JUMPDEST POP PUSH2 0x14B PUSH2 0x272 CALLDATASIZE PUSH1 0x4 PUSH2 0x2934 JUMP JUMPDEST PUSH2 0xBEC JUMP JUMPDEST CALLVALUE DUP1 ISZERO PUSH2 0x283 JUMPI PUSH1 0x0 DUP1 REVERT JUMPDEST POP PUSH2 0x129 PUSH2 0x292 CALLDATASIZE PUSH1 0x4 PUSH2 0x2BE9 JUMP JUMPDEST PUSH2 0xC4C JUMP JUMPDEST CALLVALUE DUP1 ISZERO PUSH2 0x2A3 JUMPI PUSH1 0x0 DUP1 REVERT JUMPDEST POP PUSH2 0x129 PUSH2 0x2B2 CALLDATASIZE PUSH1 0x4 PUSH2 0x287F JUMP JUMPDEST PUSH2 0xEC3 JUMP JUMPDEST CALLVALUE DUP1 ISZERO PUSH2 0x2C3 JUMPI PUSH1 0x0 DUP1 REVERT JUMPDEST POP PUSH2 0x14B PUSH2 0xF74 JUMP JUMPDEST PUSH1 0x40 DUP1 MLOAD PUSH32 0x6F6E455243373231526563656976656428616464726573732C61646472657373 DUP2 MSTORE PUSH32 0x2C75696E743235362C6279746573290000000000000000000000000000000000 PUSH1 0x20 DUP3 ADD MSTORE SWAP1 MLOAD SWAP1 DUP2 SWAP1 SUB PUSH1 0x2F ADD SWAP1 KECCAK256 SWAP5 SWAP4 POP POP POP POP JUMP JUMPDEST PUSH2 0x334 PUSH2 0x24BE JUMP JUMPDEST CALLVALUE PUSH1 0x0 DUP1 DUP1 DUP1 DUP5 GT PUSH2 0x372 JUMPI PUSH1 0x40 MLOAD PUSH32 0x8C379A000000000000000000000000000000000000000000000000000000000 DUP2 MSTORE PUSH1 0x4 ADD PUSH2 0x120 SWAP1 PUSH2 0x331C JUMP JUMPDEST PUSH2 0x37D DUP5 DUP9 DUP9 PUSH2 0xFCF JUMP JUMPDEST SWAP3 POP PUSH2 0x389 DUP5 DUP5 PUSH2 0x109D JUMP JUMPDEST SWAP2 POP PUSH1 0x2 PUSH1 0x0 SWAP1 SLOAD SWAP1 PUSH2 0x100 EXP SWAP1 DIV PUSH20 0xFFFFFFFFFFFFFFFFFFFFFFFFFFFFFFFFFFFFFFFF AND PUSH20 0xFFFFFFFFFFFFFFFFFFFFFFFFFFFFFFFFFFFFFFFF AND PUSH4 0xD0E30DB0 DUP4 PUSH1 0x40 MLOAD DUP3 PUSH4 0xFFFFFFFF AND PUSH29 0x100000000000000000000000000000000000000000000000000000000 MUL DUP2 MSTORE PUSH1 0x4 ADD PUSH1 0x0 PUSH1 0x40 MLOAD DUP1 DUP4 SUB DUP2 DUP6 DUP9 DUP1 EXTCODESIZE ISZERO DUP1 ISZERO PUSH2 0x411 JUMPI PUSH1 0x0 DUP1 REVERT JUMPDEST POP GAS CALL ISZERO DUP1 ISZERO PUSH2 0x425 JUMPI RETURNDATASIZE PUSH1 0x0 DUP1 RETURNDATACOPY RETURNDATASIZE PUSH1 0x0 REVERT JUMPDEST POP POP POP POP POP PUSH2 0x452 DUP12 PUSH1 0x0 DUP2 MLOAD DUP2 LT ISZERO ISZERO PUSH2 0x43C JUMPI INVALID JUMPDEST SWAP1 PUSH1 0x20 ADD SWAP1 PUSH1 0x20 MUL ADD MLOAD PUSH2 0x140 ADD MLOAD PUSH1 0x10 PUSH2 0x10B4 JUMP JUMPDEST PUSH1 0x5 DUP1 SLOAD PUSH1 0x40 DUP1 MLOAD PUSH1 0x20 PUSH1 0x1F PUSH1 0x2 PUSH32 0xFFFFFFFFFFFFFFFFFFFFFFFFFFFFFFFFFFFFFFFFFFFFFFFFFFFFFFFFFFFFFFFF PUSH2 0x100 PUSH1 0x1 DUP9 AND ISZERO MUL ADD SWAP1 SWAP6 AND SWAP5 SWAP1 SWAP5 DIV SWAP4 DUP5 ADD DUP2 SWAP1 DIV DUP2 MUL DUP3 ADD DUP2 ADD SWAP1 SWAP3 MSTORE DUP3 DUP2 MSTORE SWAP4 SWAP5 POP DUP4 ADD DUP3 DUP3 DUP1 ISZERO PUSH2 0x4F8 JUMPI DUP1 PUSH1 0x1F LT PUSH2 0x4CD JUMPI PUSH2 0x100 DUP1 DUP4 SLOAD DIV MUL DUP4 MSTORE SWAP2 PUSH1 0x20 ADD SWAP2 PUSH2 0x4F8 JUMP JUMPDEST DUP3 ADD SWAP2 SWAP1 PUSH1 0x0 MSTORE PUSH1 0x20 PUSH1 0x0 KECCAK256 SWAP1 JUMPDEST DUP2 SLOAD DUP2 MSTORE SWAP1 PUSH1 0x1 ADD SWAP1 PUSH1 0x20 ADD DUP1 DUP4 GT PUSH2 0x4DB JUMPI DUP3 SWAP1 SUB PUSH1 0x1F AND DUP3 ADD SWAP2 JUMPDEST POP POP POP POP POP DUP12 PUSH1 0x0 DUP2 MLOAD DUP2 LT ISZERO ISZERO PUSH2 0x50C JUMPI INVALID JUMPDEST PUSH1 0x20 SWAP1 DUP2 MUL SWAP1 SWAP2 ADD ADD MLOAD PUSH2 0x160 ADD MSTORE PUSH1 0x3 SLOAD PUSH20 0xFFFFFFFFFFFFFFFFFFFFFFFFFFFFFFFFFFFFFFFF DUP3 DUP2 AND SWAP2 AND EQ ISZERO PUSH2 0x550 JUMPI PUSH2 0x549 DUP12 DUP12 DUP5 PUSH2 0x1115 JUMP JUMPDEST SWAP5 POP PUSH2 0x560 JUMP JUMPDEST PUSH2 0x55D DUP12 DUP12 DUP12 DUP12 DUP7 PUSH2 0x122F JUMP JUMPDEST SWAP5 POP JUMPDEST PUSH1 0x20 DUP6 ADD MLOAD DUP5 LT ISZERO PUSH2 0x59E JUMPI PUSH1 0x40 MLOAD PUSH32 0x8C379A000000000000000000000000000000000000000000000000000000000 DUP2 MSTORE PUSH1 0x4 ADD PUSH2 0x120 SWAP1 PUSH2 0x32FC JUMP JUMPDEST PUSH1 0x20 DUP6 ADD MLOAD DUP3 EQ PUSH2 0x5DB JUMPI PUSH1 0x40 MLOAD PUSH32 0x8C379A000000000000000000000000000000000000000000000000000000000 DUP2 MSTORE PUSH1 0x4 ADD PUSH2 0x120 SWAP1 PUSH2 0x335C JUMP JUMPDEST PUSH2 0x5EA DUP2 CALLER DUP8 PUSH1 0x0 ADD MLOAD PUSH2 0x13B7 JUMP JUMPDEST POP POP POP POP SWAP7 SWAP6 POP POP POP POP POP POP JUMP JUMPDEST PUSH2 0x600 PUSH2 0x24BE JUMP JUMPDEST PUSH1 0x0 DUP1 PUSH1 0x0 PUSH2 0x60D PUSH2 0x24BE JUMP JUMPDEST PUSH1 0x0 SWAP4 POP JUMPDEST DUP7 MLOAD DUP5 LT ISZERO PUSH2 0x6B4 JUMPI PUSH2 0x629 DUP7 DUP7 PUSH1 0x0 ADD MLOAD PUSH2 0x109D JUMP JUMPDEST SWAP3 POP PUSH2 0x66C DUP8 DUP6 DUP2 MLOAD DUP2 LT ISZERO ISZERO PUSH2 0x63C JUMPI INVALID JUMPDEST SWAP1 PUSH1 0x20 ADD SWAP1 PUSH1 0x20 MUL ADD MLOAD PUSH1 0xA0 ADD MLOAD DUP9 DUP7 DUP2 MLOAD DUP2 LT ISZERO ISZERO PUSH2 0x658 JUMPI INVALID JUMPDEST SWAP1 PUSH1 0x20 ADD SWAP1 PUSH1 0x20 MUL ADD MLOAD PUSH1 0x80 ADD MLOAD DUP6 PUSH2 0x1591 JUMP JUMPDEST SWAP2 POP PUSH2 0x68F DUP8 DUP6 DUP2 MLOAD DUP2 LT ISZERO ISZERO PUSH2 0x67F JUMPI INVALID JUMPDEST SWAP1 PUSH1 0x20 ADD SWAP1 PUSH1 0x20 MUL ADD MLOAD DUP4 PUSH2 0x15AE JUMP JUMPDEST SWAP1 POP PUSH2 0x69B DUP6 DUP3 PUSH2 0x1707 JUMP JUMPDEST DUP5 MLOAD DUP7 EQ ISZERO PUSH2 0x6A9 JUMPI PUSH2 0x6B4 JUMP JUMPDEST PUSH1 0x1 SWAP1 SWAP4 ADD SWAP3 PUSH2 0x612 JUMP JUMPDEST POP POP POP POP SWAP3 SWAP2 POP POP JUMP JUMPDEST PUSH2 0x251C DUP2 JUMP JUMPDEST PUSH1 0x40 DUP1 MLOAD PUSH32 0x4552433230546F6B656E28616464726573732900000000000000000000000000 DUP2 MSTORE SWAP1 MLOAD SWAP1 DUP2 SWAP1 SUB PUSH1 0x13 ADD SWAP1 KECCAK256 DUP2 JUMP JUMPDEST PUSH2 0x701 PUSH2 0x24BE JUMP JUMPDEST CALLVALUE PUSH1 0x0 DUP1 DUP3 GT PUSH2 0x73D JUMPI PUSH1 0x40 MLOAD PUSH32 0x8C379A000000000000000000000000000000000000000000000000000000000 DUP2 MSTORE PUSH1 0x4 ADD PUSH2 0x120 SWAP1 PUSH2 0x331C JUMP JUMPDEST PUSH1 0x0 DUP7 GT PUSH2 0x777 JUMPI PUSH1 0x40 MLOAD PUSH32 0x8C379A000000000000000000000000000000000000000000000000000000000 DUP2 MSTORE PUSH1 0x4 ADD PUSH2 0x120 SWAP1 PUSH2 0x331C JUMP JUMPDEST PUSH2 0x79F DUP11 PUSH1 0x0 DUP2 MLOAD DUP2 LT ISZERO ISZERO PUSH2 0x789 JUMPI INVALID JUMPDEST SWAP1 PUSH1 0x20 ADD SWAP1 PUSH1 0x20 MUL ADD MLOAD PUSH2 0x140 ADD MLOAD PUSH1 0x0 PUSH2 0x1769 JUMP JUMPDEST PUSH1 0x40 DUP1 MLOAD PUSH32 0x4552433230546F6B656E28616464726573732900000000000000000000000000 DUP2 MSTORE SWAP1 MLOAD SWAP1 DUP2 SWAP1 SUB PUSH1 0x13 ADD SWAP1 KECCAK256 SWAP1 SWAP2 POP PUSH32 0xFFFFFFFF00000000000000000000000000000000000000000000000000000000 DUP1 DUP4 AND SWAP2 AND EQ DUP1 PUSH2 0x881 JUMPI POP PUSH1 0x40 DUP1 MLOAD PUSH32 0x455243373231546F6B656E28616464726573732C75696E743235362C62797465 DUP2 MSTORE PUSH32 0x7329000000000000000000000000000000000000000000000000000000000000 PUSH1 0x20 DUP3 ADD MSTORE SWAP1 MLOAD SWAP1 DUP2 SWAP1 SUB PUSH1 0x22 ADD SWAP1 KECCAK256 PUSH32 0xFFFFFFFF00000000000000000000000000000000000000000000000000000000 DUP3 DUP2 AND SWAP2 AND EQ JUMPDEST ISZERO ISZERO PUSH2 0x8B9 JUMPI PUSH1 0x40 MLOAD PUSH32 0x8C379A000000000000000000000000000000000000000000000000000000000 DUP2 MSTORE PUSH1 0x4 ADD PUSH2 0x120 SWAP1 PUSH2 0x338C JUMP JUMPDEST PUSH1 0x2 PUSH1 0x0 SWAP1 SLOAD SWAP1 PUSH2 0x100 EXP SWAP1 DIV PUSH20 0xFFFFFFFFFFFFFFFFFFFFFFFFFFFFFFFFFFFFFFFF AND PUSH20 0xFFFFFFFFFFFFFFFFFFFFFFFFFFFFFFFFFFFFFFFF AND PUSH4 0xD0E30DB0 DUP4 PUSH1 0x40 MLOAD DUP3 PUSH4 0xFFFFFFFF AND PUSH29 0x100000000000000000000000000000000000000000000000000000000 MUL DUP2 MSTORE PUSH1 0x4 ADD PUSH1 0x0 PUSH1 0x40 MLOAD DUP1 DUP4 SUB DUP2 DUP6 DUP9 DUP1 EXTCODESIZE ISZERO DUP1 ISZERO PUSH2 0x93F JUMPI PUSH1 0x0 DUP1 REVERT JUMPDEST POP GAS CALL ISZERO DUP1 ISZERO PUSH2 0x953 JUMPI RETURNDATASIZE PUSH1 0x0 DUP1 RETURNDATACOPY RETURNDATASIZE PUSH1 0x0 REVERT JUMPDEST POP POP PUSH1 0x40 DUP1 MLOAD PUSH32 0x4552433230546F6B656E28616464726573732900000000000000000000000000 DUP2 MSTORE SWAP1 MLOAD SWAP1 DUP2 SWAP1 SUB PUSH1 0x13 ADD SWAP1 KECCAK256 PUSH32 0xFFFFFFFF00000000000000000000000000000000000000000000000000000000 DUP6 DUP2 AND SWAP2 AND EQ ISZERO SWAP3 POP PUSH2 0x9CC SWAP2 POP POP JUMPI PUSH2 0x9C5 DUP11 DUP11 DUP11 DUP11 DUP11 PUSH2 0x17D6 JUMP JUMPDEST SWAP3 POP PUSH2 0xA5F JUMP JUMPDEST PUSH1 0x40 DUP1 MLOAD PUSH32 0x455243373231546F6B656E28616464726573732C75696E743235362C62797465 DUP2 MSTORE PUSH32 0x7329000000000000000000000000000000000000000000000000000000000000 PUSH1 0x20 DUP3 ADD MSTORE SWAP1 MLOAD SWAP1 DUP2 SWAP1 SUB PUSH1 0x22 ADD SWAP1 KECCAK256 PUSH32 0xFFFFFFFF00000000000000000000000000000000000000000000000000000000 DUP3 DUP2 AND SWAP2 AND EQ ISZERO PUSH2 0xA5F JUMPI PUSH2 0xA5C DUP11 DUP11 DUP11 DUP11 PUSH2 0x1B2D JUMP JUMPDEST SWAP3 POP JUMPDEST PUSH1 0x20 DUP4 ADD MLOAD DUP3 LT ISZERO PUSH2 0xA9D JUMPI PUSH1 0x40 MLOAD PUSH32 0x8C379A000000000000000000000000000000000000000000000000000000000 DUP2 MSTORE PUSH1 0x4 ADD PUSH2 0x120 SWAP1 PUSH2 0x32FC JUMP JUMPDEST PUSH2 0xABA PUSH2 0xAAE DUP4 DUP6 PUSH1 0x20 ADD MLOAD PUSH2 0x109D JUMP JUMPDEST DUP5 PUSH1 0x20 ADD MLOAD DUP8 DUP8 PUSH2 0x1E2F JUMP JUMPDEST POP POP SWAP8 SWAP7 POP POP POP POP POP POP POP JUMP JUMPDEST PUSH1 0x0 SLOAD PUSH20 0xFFFFFFFFFFFFFFFFFFFFFFFFFFFFFFFFFFFFFFFF AND DUP2 JUMP JUMPDEST PUSH2 0x2710 DUP2 JUMP JUMPDEST PUSH2 0x3E8 DUP2 JUMP JUMPDEST PUSH2 0xAF7 PUSH2 0x24BE JUMP JUMPDEST PUSH1 0x0 DUP1 PUSH1 0x0 PUSH2 0xB04 PUSH2 0x24BE JUMP JUMPDEST PUSH1 0x0 SWAP4 POP JUMPDEST DUP7 MLOAD DUP5 LT ISZERO PUSH2 0x6B4 JUMPI PUSH2 0xB20 DUP7 DUP7 PUSH1 0x0 ADD MLOAD PUSH2 0x109D JUMP JUMPDEST SWAP3 POP PUSH2 0xB87 DUP8 DUP6 DUP2 MLOAD DUP2 LT ISZERO ISZERO PUSH2 0xB33 JUMPI INVALID JUMPDEST SWAP1 PUSH1 0x20 ADD SWAP1 PUSH1 0x20 MUL ADD MLOAD PUSH1 0xA0 ADD MLOAD PUSH2 0xB81 DUP10 DUP8 DUP2 MLOAD DUP2 LT ISZERO ISZERO PUSH2 0xB52 JUMPI INVALID JUMPDEST SWAP1 PUSH1 0x20 ADD SWAP1 PUSH1 0x20 MUL ADD MLOAD PUSH1 0x80 ADD MLOAD DUP11 DUP9 DUP2 MLOAD DUP2 LT ISZERO ISZERO PUSH2 0xB6E JUMPI INVALID JUMPDEST SWAP1 PUSH1 0x20 ADD SWAP1 PUSH1 0x20 MUL ADD MLOAD PUSH1 0xE0 ADD MLOAD PUSH2 0x109D JUMP JUMPDEST DUP6 PUSH2 0x1591 JUMP JUMPDEST SWAP2 POP PUSH2 0xBB4 DUP8 DUP6 DUP2 MLOAD DUP2 LT ISZERO ISZERO PUSH2 0xB9A JUMPI INVALID JUMPDEST SWAP1 PUSH1 0x20 ADD SWAP1 PUSH1 0x20 MUL ADD MLOAD PUSH2 0xBAF DUP5 PUSH1 0x1 PUSH2 0x1F1C JUMP JUMPDEST PUSH2 0x15AE JUMP JUMPDEST SWAP1 POP PUSH2 0xBC8 DUP2 PUSH1 0x0 ADD MLOAD DUP3 PUSH1 0x60 ADD MLOAD PUSH2 0x109D JUMP JUMPDEST DUP2 MSTORE PUSH2 0xBD4 DUP6 DUP3 PUSH2 0x1707 JUMP JUMPDEST DUP5 MLOAD DUP7 GT PUSH2 0xBE1 JUMPI PUSH2 0x6B4 JUMP JUMPDEST PUSH1 0x1 SWAP1 SWAP4 ADD SWAP3 PUSH2 0xB09 JUMP JUMPDEST PUSH1 0x40 DUP1 MLOAD PUSH32 0x6F6E455243373231526563656976656428616464726573732C75696E74323536 DUP2 MSTORE PUSH32 0x2C62797465732900000000000000000000000000000000000000000000000000 PUSH1 0x20 DUP3 ADD MSTORE SWAP1 MLOAD SWAP1 DUP2 SWAP1 SUB PUSH1 0x27 ADD SWAP1 KECCAK256 JUMPDEST SWAP4 SWAP3 POP POP POP JUMP JUMPDEST PUSH1 0x0 DUP1 SLOAD PUSH20 0xFFFFFFFFFFFFFFFFFFFFFFFFFFFFFFFFFFFFFFFF AND CALLER EQ PUSH2 0xC9E JUMPI PUSH1 0x40 MLOAD PUSH32 0x8C379A000000000000000000000000000000000000000000000000000000000 DUP2 MSTORE PUSH1 0x4 ADD PUSH2 0x120 SWAP1 PUSH2 0x336C JUMP JUMPDEST PUSH1 0x1 SLOAD PUSH1 0x40 MLOAD PUSH32 0x6070410800000000000000000000000000000000000000000000000000000000 DUP2 MSTORE PUSH20 0xFFFFFFFFFFFFFFFFFFFFFFFFFFFFFFFFFFFFFFFF SWAP1 SWAP2 AND SWAP1 PUSH4 0x60704108 SWAP1 PUSH2 0xCF4 SWAP1 DUP6 SWAP1 PUSH1 0x4 ADD PUSH2 0x32DE JUMP JUMPDEST PUSH1 0x20 PUSH1 0x40 MLOAD DUP1 DUP4 SUB DUP2 PUSH1 0x0 DUP8 DUP1 EXTCODESIZE ISZERO DUP1 ISZERO PUSH2 0xD0E JUMPI PUSH1 0x0 DUP1 REVERT JUMPDEST POP GAS CALL ISZERO DUP1 ISZERO PUSH2 0xD22 JUMPI RETURNDATASIZE PUSH1 0x0 DUP1 RETURNDATACOPY RETURNDATASIZE PUSH1 0x0 REVERT JUMPDEST POP POP POP POP PUSH1 0x40 MLOAD RETURNDATASIZE PUSH1 0x1F NOT PUSH1 0x1F DUP3 ADD AND DUP3 ADD DUP1 PUSH1 0x40 MSTORE POP PUSH2 0xD46 SWAP2 SWAP1 DUP2 ADD SWAP1 PUSH2 0x289D JUMP JUMPDEST SWAP1 POP PUSH20 0xFFFFFFFFFFFFFFFFFFFFFFFFFFFFFFFFFFFFFFFF DUP2 AND ISZERO PUSH2 0xEBF JUMPI PUSH1 0x2 SLOAD PUSH1 0x6 SLOAD PUSH1 0x40 MLOAD PUSH32 0x95EA7B300000000000000000000000000000000000000000000000000000000 DUP2 MSTORE PUSH20 0xFFFFFFFFFFFFFFFFFFFFFFFFFFFFFFFFFFFFFFFF SWAP1 SWAP3 AND SWAP2 PUSH4 0x95EA7B3 SWAP2 PUSH2 0xDBE SWAP2 DUP6 SWAP2 SWAP1 PUSH1 0x4 ADD PUSH2 0x3258 JUMP JUMPDEST PUSH1 0x20 PUSH1 0x40 MLOAD DUP1 DUP4 SUB DUP2 PUSH1 0x0 DUP8 DUP1 EXTCODESIZE ISZERO DUP1 ISZERO PUSH2 0xDD8 JUMPI PUSH1 0x0 DUP1 REVERT JUMPDEST POP GAS CALL ISZERO DUP1 ISZERO PUSH2 0xDEC JUMPI RETURNDATASIZE PUSH1 0x0 DUP1 RETURNDATACOPY RETURNDATASIZE PUSH1 0x0 REVERT JUMPDEST POP POP POP POP PUSH1 0x40 MLOAD RETURNDATASIZE PUSH1 0x1F NOT PUSH1 0x1F DUP3 ADD AND DUP3 ADD DUP1 PUSH1 0x40 MSTORE POP PUSH2 0xE10 SWAP2 SWAP1 DUP2 ADD SWAP1 PUSH2 0x2BCB JUMP JUMPDEST POP PUSH1 0x3 SLOAD PUSH1 0x6 SLOAD PUSH1 0x40 MLOAD PUSH32 0x95EA7B300000000000000000000000000000000000000000000000000000000 DUP2 MSTORE PUSH20 0xFFFFFFFFFFFFFFFFFFFFFFFFFFFFFFFFFFFFFFFF SWAP1 SWAP3 AND SWAP2 PUSH4 0x95EA7B3 SWAP2 PUSH2 0xE6B SWAP2 DUP6 SWAP2 SWAP1 PUSH1 0x4 ADD PUSH2 0x3258 JUMP JUMPDEST PUSH1 0x20 PUSH1 0x40 MLOAD DUP1 DUP4 SUB DUP2 PUSH1 0x0 DUP8 DUP1 EXTCODESIZE ISZERO DUP1 ISZERO PUSH2 0xE85 JUMPI PUSH1 0x0 DUP1 REVERT JUMPDEST POP GAS CALL ISZERO DUP1 ISZERO PUSH2 0xE99 JUMPI RETURNDATASIZE PUSH1 0x0 DUP1 RETURNDATACOPY RETURNDATASIZE PUSH1 0x0 REVERT JUMPDEST POP POP POP POP PUSH1 0x40 MLOAD RETURNDATASIZE PUSH1 0x1F NOT PUSH1 0x1F DUP3 ADD AND DUP3 ADD DUP1 PUSH1 0x40 MSTORE POP PUSH2 0xEBD SWAP2 SWAP1 DUP2 ADD SWAP1 PUSH2 0x2BCB JUMP JUMPDEST POP JUMPDEST POP POP JUMP JUMPDEST PUSH1 0x0 SLOAD PUSH20 0xFFFFFFFFFFFFFFFFFFFFFFFFFFFFFFFFFFFFFFFF AND CALLER EQ PUSH2 0xF14 JUMPI PUSH1 0x40 MLOAD PUSH32 0x8C379A000000000000000000000000000000000000000000000000000000000 DUP2 MSTORE PUSH1 0x4 ADD PUSH2 0x120 SWAP1 PUSH2 0x336C JUMP JUMPDEST PUSH20 0xFFFFFFFFFFFFFFFFFFFFFFFFFFFFFFFFFFFFFFFF DUP2 AND ISZERO PUSH2 0xF71 JUMPI PUSH1 0x0 DUP1 SLOAD PUSH32 0xFFFFFFFFFFFFFFFFFFFFFFFF0000000000000000000000000000000000000000 AND PUSH20 0xFFFFFFFFFFFFFFFFFFFFFFFFFFFFFFFFFFFFFFFF DUP4 AND OR SWAP1 SSTORE JUMPDEST POP JUMP JUMPDEST PUSH1 0x40 DUP1 MLOAD PUSH32 0x455243373231546F6B656E28616464726573732C75696E743235362C62797465 DUP2 MSTORE PUSH32 0x7329000000000000000000000000000000000000000000000000000000000000 PUSH1 0x20 DUP3 ADD MSTORE SWAP1 MLOAD SWAP1 DUP2 SWAP1 SUB PUSH1 0x22 ADD SWAP1 KECCAK256 DUP2 JUMP JUMPDEST PUSH1 0x0 DUP1 DUP4 PUSH2 0xFFFF AND GT DUP1 ISZERO PUSH2 0xFF9 JUMPI POP PUSH20 0xFFFFFFFFFFFFFFFFFFFFFFFFFFFFFFFFFFFFFFFF DUP3 AND ISZERO ISZERO JUMPDEST ISZERO PUSH2 0xC45 JUMPI PUSH2 0x3E8 PUSH2 0xFFFF DUP5 AND GT ISZERO PUSH2 0x103E JUMPI PUSH1 0x40 MLOAD PUSH32 0x8C379A000000000000000000000000000000000000000000000000000000000 DUP2 MSTORE PUSH1 0x4 ADD PUSH2 0x120 SWAP1 PUSH2 0x333C JUMP JUMPDEST PUSH2 0x104F PUSH2 0xFFFF DUP5 AND PUSH2 0x2710 DUP7 PUSH2 0x1591 JUMP JUMPDEST PUSH1 0x40 MLOAD SWAP1 SWAP2 POP PUSH20 0xFFFFFFFFFFFFFFFFFFFFFFFFFFFFFFFFFFFFFFFF DUP4 AND SWAP1 DUP3 ISZERO PUSH2 0x8FC MUL SWAP1 DUP4 SWAP1 PUSH1 0x0 DUP2 DUP2 DUP2 DUP6 DUP9 DUP9 CALL SWAP4 POP POP POP POP ISZERO DUP1 ISZERO PUSH2 0x1095 JUMPI RETURNDATASIZE PUSH1 0x0 DUP1 RETURNDATACOPY RETURNDATASIZE PUSH1 0x0 REVERT JUMPDEST POP SWAP4 SWAP3 POP POP POP JUMP JUMPDEST PUSH1 0x0 DUP3 DUP3 GT ISZERO PUSH2 0x10A9 JUMPI INVALID JUMPDEST POP DUP1 DUP3 SUB JUMPDEST SWAP3 SWAP2 POP POP JUMP JUMPDEST PUSH1 0x0 DUP2 PUSH1 0x14 ADD DUP4 MLOAD LT ISZERO ISZERO ISZERO PUSH2 0x10F6 JUMPI PUSH1 0x40 MLOAD PUSH32 0x8C379A000000000000000000000000000000000000000000000000000000000 DUP2 MSTORE PUSH1 0x4 ADD PUSH2 0x120 SWAP1 PUSH2 0x337C JUMP JUMPDEST POP ADD PUSH1 0x14 ADD MLOAD PUSH20 0xFFFFFFFFFFFFFFFFFFFFFFFFFFFFFFFFFFFFFFFF AND SWAP1 JUMP JUMPDEST PUSH2 0x111D PUSH2 0x24BE JUMP JUMPDEST PUSH1 0x1 SLOAD PUSH1 0x40 MLOAD PUSH32 0x7E1D980800000000000000000000000000000000000000000000000000000000 DUP2 MSTORE PUSH1 0x0 SWAP2 PUSH20 0xFFFFFFFFFFFFFFFFFFFFFFFFFFFFFFFFFFFFFFFF AND SWAP1 PUSH4 0x7E1D9808 SWAP1 PUSH2 0x1178 SWAP1 DUP9 SWAP1 DUP8 SWAP1 DUP10 SWAP1 PUSH1 0x4 ADD PUSH2 0x32AC JUMP JUMPDEST PUSH1 0x80 PUSH1 0x40 MLOAD DUP1 DUP4 SUB DUP2 PUSH1 0x0 DUP8 DUP1 EXTCODESIZE ISZERO DUP1 ISZERO PUSH2 0x1192 JUMPI PUSH1 0x0 DUP1 REVERT JUMPDEST POP GAS CALL ISZERO DUP1 ISZERO PUSH2 0x11A6 JUMPI RETURNDATASIZE PUSH1 0x0 DUP1 RETURNDATACOPY RETURNDATASIZE PUSH1 0x0 REVERT JUMPDEST POP POP POP POP PUSH1 0x40 MLOAD RETURNDATASIZE PUSH1 0x1F NOT PUSH1 0x1F DUP3 ADD AND DUP3 ADD DUP1 PUSH1 0x40 MSTORE POP PUSH2 0x11CA SWAP2 SWAP1 DUP2 ADD SWAP1 PUSH2 0x2C07 JUMP JUMPDEST SWAP2 POP PUSH2 0x11DE DUP3 PUSH1 0x0 ADD MLOAD DUP4 PUSH1 0x60 ADD MLOAD PUSH2 0x109D JUMP JUMPDEST SWAP1 POP PUSH2 0x11EE DUP3 PUSH1 0x0 ADD MLOAD DUP3 PUSH2 0x1F2B JUMP JUMPDEST ISZERO ISZERO PUSH2 0x1226 JUMPI PUSH1 0x40 MLOAD PUSH32 0x8C379A000000000000000000000000000000000000000000000000000000000 DUP2 MSTORE PUSH1 0x4 ADD PUSH2 0x120 SWAP1 PUSH2 0x335C JUMP JUMPDEST DUP2 MSTORE SWAP4 SWAP3 POP POP POP JUMP JUMPDEST PUSH2 0x1237 PUSH2 0x24BE JUMP JUMPDEST PUSH1 0x0 PUSH2 0x1241 PUSH2 0x24BE JUMP JUMPDEST PUSH2 0x1249 PUSH2 0x24BE JUMP JUMPDEST PUSH2 0x1251 PUSH2 0x24BE JUMP JUMPDEST DUP6 SWAP4 POP PUSH2 0x125E DUP11 DUP8 PUSH2 0x1F48 JUMP JUMPDEST SWAP3 POP PUSH1 0x0 DUP4 PUSH1 0x60 ADD MLOAD GT ISZERO PUSH2 0x12F2 JUMPI PUSH2 0x127C DUP9 DUP9 DUP6 PUSH1 0x60 ADD MLOAD PUSH2 0x1FB2 JUMP JUMPDEST SWAP2 POP PUSH2 0x1295 DUP7 PUSH2 0x1290 DUP9 DUP6 PUSH1 0x20 ADD MLOAD PUSH2 0x109D JUMP JUMPDEST PUSH2 0x1F2B JUMP JUMPDEST ISZERO ISZERO PUSH2 0x12CD JUMPI PUSH1 0x40 MLOAD PUSH32 0x8C379A000000000000000000000000000000000000000000000000000000000 DUP2 MSTORE PUSH1 0x4 ADD PUSH2 0x120 SWAP1 PUSH2 0x335C JUMP JUMPDEST PUSH2 0x12DB DUP5 DUP4 PUSH1 0x20 ADD MLOAD PUSH2 0x109D JUMP JUMPDEST PUSH1 0x60 DUP1 DUP5 ADD MLOAD SWAP1 DUP8 ADD MSTORE PUSH1 0x20 DUP1 DUP5 ADD MLOAD SWAP1 DUP8 ADD MSTORE SWAP4 POP JUMPDEST PUSH1 0x1 SLOAD PUSH1 0x40 MLOAD PUSH32 0x7E1D980800000000000000000000000000000000000000000000000000000000 DUP2 MSTORE PUSH20 0xFFFFFFFFFFFFFFFFFFFFFFFFFFFFFFFFFFFFFFFF SWAP1 SWAP2 AND SWAP1 PUSH4 0x7E1D9808 SWAP1 PUSH2 0x134C SWAP1 DUP14 SWAP1 DUP9 SWAP1 DUP15 SWAP1 PUSH1 0x4 ADD PUSH2 0x32AC JUMP JUMPDEST PUSH1 0x80 PUSH1 0x40 MLOAD DUP1 DUP4 SUB DUP2 PUSH1 0x0 DUP8 DUP1 EXTCODESIZE ISZERO DUP1 ISZERO PUSH2 0x1366 JUMPI PUSH1 0x0 DUP1 REVERT JUMPDEST POP GAS CALL ISZERO DUP1 ISZERO PUSH2 0x137A JUMPI RETURNDATASIZE PUSH1 0x0 DUP1 RETURNDATACOPY RETURNDATASIZE PUSH1 0x0 REVERT JUMPDEST POP POP POP POP PUSH1 0x40 MLOAD RETURNDATASIZE PUSH1 0x1F NOT PUSH1 0x1F DUP3 ADD AND DUP3 ADD DUP1 PUSH1 0x40 MSTORE POP PUSH2 0x139E SWAP2 SWAP1 DUP2 ADD SWAP1 PUSH2 0x2C07 JUMP JUMPDEST SWAP1 POP PUSH2 0x13AA DUP6 DUP3 PUSH2 0x1707 JUMP JUMPDEST POP POP POP POP SWAP6 SWAP5 POP POP POP POP POP JUMP JUMPDEST PUSH1 0x40 DUP1 MLOAD PUSH32 0x7472616E7366657228616464726573732C75696E743235362900000000000000 DUP2 MSTORE SWAP1 MLOAD SWAP1 DUP2 SWAP1 SUB PUSH1 0x19 ADD DUP2 KECCAK256 PUSH1 0x0 SWAP2 PUSH20 0xFFFFFFFFFFFFFFFFFFFFFFFFFFFFFFFFFFFFFFFF DUP7 AND SWAP2 SWAP1 PUSH2 0x1415 SWAP1 DUP7 SWAP1 DUP7 SWAP1 PUSH1 0x24 ADD PUSH2 0x3258 JUMP JUMPDEST PUSH1 0x40 DUP1 MLOAD PUSH32 0xFFFFFFFFFFFFFFFFFFFFFFFFFFFFFFFFFFFFFFFFFFFFFFFFFFFFFFFFFFFFFFE0 DUP2 DUP5 SUB ADD DUP2 MSTORE SWAP2 DUP2 MSTORE PUSH1 0x20 DUP3 ADD DUP1 MLOAD PUSH28 0xFFFFFFFFFFFFFFFFFFFFFFFFFFFFFFFFFFFFFFFFFFFFFFFFFFFFFFFF AND PUSH32 0xFFFFFFFF00000000000000000000000000000000000000000000000000000000 SWAP1 SWAP5 AND SWAP4 SWAP1 SWAP4 OR DUP4 MSTORE MLOAD DUP2 MLOAD SWAP2 SWAP3 SWAP1 SWAP2 DUP3 SWAP2 SWAP1 DUP1 DUP4 DUP4 PUSH1 0x0 JUMPDEST DUP4 DUP2 LT ISZERO PUSH2 0x14B9 JUMPI DUP2 DUP2 ADD MLOAD DUP4 DUP3 ADD MSTORE PUSH1 0x20 ADD PUSH2 0x14A1 JUMP JUMPDEST POP POP POP POP SWAP1 POP SWAP1 DUP2 ADD SWAP1 PUSH1 0x1F AND DUP1 ISZERO PUSH2 0x14E6 JUMPI DUP1 DUP3 SUB DUP1 MLOAD PUSH1 0x1 DUP4 PUSH1 0x20 SUB PUSH2 0x100 EXP SUB NOT AND DUP2 MSTORE PUSH1 0x20 ADD SWAP2 POP JUMPDEST POP SWAP2 POP POP PUSH1 0x0 PUSH1 0x40 MLOAD DUP1 DUP4 SUB DUP2 PUSH1 0x0 DUP7 GAS CALL SWAP3 POP POP POP DUP1 ISZERO ISZERO PUSH2 0x1535 JUMPI PUSH1 0x40 MLOAD PUSH32 0x8C379A000000000000000000000000000000000000000000000000000000000 DUP2 MSTORE PUSH1 0x4 ADD PUSH2 0x120 SWAP1 PUSH2 0x334C JUMP JUMPDEST RETURNDATASIZE ISZERO PUSH2 0x1552 JUMPI POP PUSH1 0x0 RETURNDATASIZE PUSH1 0x20 EQ ISZERO PUSH2 0x1552 JUMPI PUSH1 0x20 PUSH1 0x0 DUP1 RETURNDATACOPY POP PUSH1 0x0 MLOAD JUMPDEST DUP1 ISZERO ISZERO PUSH2 0x158B JUMPI PUSH1 0x40 MLOAD PUSH32 0x8C379A000000000000000000000000000000000000000000000000000000000 DUP2 MSTORE PUSH1 0x4 ADD PUSH2 0x120 SWAP1 PUSH2 0x334C JUMP JUMPDEST POP POP POP POP JUMP JUMPDEST PUSH1 0x0 PUSH2 0x15A6 PUSH2 0x15A0 DUP6 DUP5 PUSH2 0x22EB JUMP JUMPDEST DUP5 PUSH2 0x230F JUMP JUMPDEST SWAP5 SWAP4 POP POP POP POP JUMP JUMPDEST PUSH2 0x15B6 PUSH2 0x24BE JUMP JUMPDEST PUSH2 0x15BE PUSH2 0x24E7 JUMP JUMPDEST PUSH1 0x1 SLOAD PUSH1 0x40 MLOAD PUSH32 0xC75E0A8100000000000000000000000000000000000000000000000000000000 DUP2 MSTORE PUSH1 0x0 SWAP2 DUP3 SWAP2 PUSH20 0xFFFFFFFFFFFFFFFFFFFFFFFFFFFFFFFFFFFFFFFF SWAP1 SWAP2 AND SWAP1 PUSH4 0xC75E0A81 SWAP1 PUSH2 0x1619 SWAP1 DUP10 SWAP1 PUSH1 0x4 ADD PUSH2 0x33BA JUMP JUMPDEST PUSH1 0x60 PUSH1 0x40 MLOAD DUP1 DUP4 SUB DUP2 PUSH1 0x0 DUP8 DUP1 EXTCODESIZE ISZERO DUP1 ISZERO PUSH2 0x1633 JUMPI PUSH1 0x0 DUP1 REVERT JUMPDEST POP GAS CALL ISZERO DUP1 ISZERO PUSH2 0x1647 JUMPI RETURNDATASIZE PUSH1 0x0 DUP1 RETURNDATACOPY RETURNDATASIZE PUSH1 0x0 REVERT JUMPDEST POP POP POP POP PUSH1 0x40 MLOAD RETURNDATASIZE PUSH1 0x1F NOT PUSH1 0x1F DUP3 ADD AND DUP3 ADD DUP1 PUSH1 0x40 MSTORE POP PUSH2 0x166B SWAP2 SWAP1 DUP2 ADD SWAP1 PUSH2 0x2C25 JUMP JUMPDEST DUP1 MLOAD SWAP1 SWAP4 POP PUSH1 0xFF AND PUSH1 0x3 EQ PUSH2 0x167F JUMPI PUSH2 0x16FE JUMP JUMPDEST PUSH2 0x1691 DUP7 PUSH1 0xA0 ADD MLOAD DUP5 PUSH1 0x40 ADD MLOAD PUSH2 0x109D JUMP JUMPDEST SWAP2 POP PUSH2 0x169D DUP6 DUP4 PUSH2 0x2326 JUMP JUMPDEST PUSH1 0x20 DUP6 ADD DUP2 SWAP1 MSTORE PUSH1 0xA0 DUP8 ADD MLOAD PUSH1 0x80 DUP9 ADD MLOAD SWAP2 SWAP3 POP PUSH2 0x16BD SWAP2 DUP4 SWAP2 SWAP1 PUSH2 0x1591 JUMP JUMPDEST DUP5 MSTORE PUSH1 0x20 DUP5 ADD MLOAD PUSH1 0xA0 DUP8 ADD MLOAD PUSH1 0xC0 DUP9 ADD MLOAD PUSH2 0x16D9 SWAP3 SWAP2 SWAP1 PUSH2 0x1591 JUMP JUMPDEST PUSH1 0x40 DUP6 ADD MSTORE PUSH1 0x20 DUP5 ADD MLOAD PUSH1 0xA0 DUP8 ADD MLOAD PUSH1 0xE0 DUP9 ADD MLOAD PUSH2 0x16F8 SWAP3 SWAP2 SWAP1 PUSH2 0x1591 JUMP JUMPDEST PUSH1 0x60 DUP6 ADD MSTORE JUMPDEST POP POP POP SWAP3 SWAP2 POP POP JUMP JUMPDEST DUP2 MLOAD DUP2 MLOAD PUSH2 0x1715 SWAP2 SWAP1 PUSH2 0x1F1C JUMP JUMPDEST DUP3 MSTORE PUSH1 0x20 DUP1 DUP4 ADD MLOAD SWAP1 DUP3 ADD MLOAD PUSH2 0x172B SWAP2 SWAP1 PUSH2 0x1F1C JUMP JUMPDEST PUSH1 0x20 DUP4 ADD MSTORE PUSH1 0x40 DUP1 DUP4 ADD MLOAD SWAP1 DUP3 ADD MLOAD PUSH2 0x1744 SWAP2 SWAP1 PUSH2 0x1F1C JUMP JUMPDEST PUSH1 0x40 DUP4 ADD MSTORE PUSH1 0x60 DUP1 DUP4 ADD MLOAD SWAP1 DUP3 ADD MLOAD PUSH2 0x175D SWAP2 SWAP1 PUSH2 0x1F1C JUMP JUMPDEST PUSH1 0x60 SWAP1 SWAP3 ADD SWAP2 SWAP1 SWAP2 MSTORE POP JUMP JUMPDEST PUSH1 0x0 DUP2 PUSH1 0x4 ADD DUP4 MLOAD LT ISZERO ISZERO ISZERO PUSH2 0x17AB JUMPI PUSH1 0x40 MLOAD PUSH32 0x8C379A000000000000000000000000000000000000000000000000000000000 DUP2 MSTORE PUSH1 0x4 ADD PUSH2 0x120 SWAP1 PUSH2 0x339C JUMP JUMPDEST POP POP PUSH1 0x20 ADD MLOAD PUSH32 0xFFFFFFFF00000000000000000000000000000000000000000000000000000000 AND SWAP1 JUMP JUMPDEST PUSH2 0x17DE PUSH2 0x24BE JUMP JUMPDEST PUSH1 0x0 PUSH2 0x17E8 PUSH2 0x24BE JUMP JUMPDEST PUSH2 0x17F0 PUSH2 0x24BE JUMP JUMPDEST PUSH2 0x17F8 PUSH2 0x24BE JUMP JUMPDEST PUSH2 0x180A DUP11 PUSH1 0x0 DUP2 MLOAD DUP2 LT ISZERO ISZERO PUSH2 0x43C JUMPI INVALID JUMPDEST PUSH1 0x5 DUP1 SLOAD PUSH1 0x40 DUP1 MLOAD PUSH1 0x20 PUSH1 0x1F PUSH1 0x2 PUSH32 0xFFFFFFFFFFFFFFFFFFFFFFFFFFFFFFFFFFFFFFFFFFFFFFFFFFFFFFFFFFFFFFFF PUSH2 0x100 PUSH1 0x1 DUP9 AND ISZERO MUL ADD SWAP1 SWAP6 AND SWAP5 SWAP1 SWAP5 DIV SWAP4 DUP5 ADD DUP2 SWAP1 DIV DUP2 MUL DUP3 ADD DUP2 ADD SWAP1 SWAP3 MSTORE DUP3 DUP2 MSTORE SWAP4 SWAP8 POP DUP4 ADD DUP3 DUP3 DUP1 ISZERO PUSH2 0x18B0 JUMPI DUP1 PUSH1 0x1F LT PUSH2 0x1885 JUMPI PUSH2 0x100 DUP1 DUP4 SLOAD DIV MUL DUP4 MSTORE SWAP2 PUSH1 0x20 ADD SWAP2 PUSH2 0x18B0 JUMP JUMPDEST DUP3 ADD SWAP2 SWAP1 PUSH1 0x0 MSTORE PUSH1 0x20 PUSH1 0x0 KECCAK256 SWAP1 JUMPDEST DUP2 SLOAD DUP2 MSTORE SWAP1 PUSH1 0x1 ADD SWAP1 PUSH1 0x20 ADD DUP1 DUP4 GT PUSH2 0x1893 JUMPI DUP3 SWAP1 SUB PUSH1 0x1F AND DUP3 ADD SWAP2 JUMPDEST POP POP POP POP POP DUP11 PUSH1 0x0 DUP2 MLOAD DUP2 LT ISZERO ISZERO PUSH2 0x18C4 JUMPI INVALID JUMPDEST PUSH1 0x20 SWAP1 DUP2 MUL SWAP1 SWAP2 ADD ADD MLOAD PUSH2 0x160 ADD MSTORE PUSH1 0x3 SLOAD PUSH20 0xFFFFFFFFFFFFFFFFFFFFFFFFFFFFFFFFFFFFFFFF DUP6 DUP2 AND SWAP2 AND EQ ISZERO PUSH2 0x19A2 JUMPI PUSH2 0x1901 DUP11 DUP11 DUP9 PUSH2 0x1FB2 JUMP JUMPDEST DUP1 MLOAD SWAP1 SWAP4 POP DUP7 GT ISZERO PUSH2 0x193F JUMPI PUSH1 0x40 MLOAD PUSH32 0x8C379A000000000000000000000000000000000000000000000000000000000 DUP2 MSTORE PUSH1 0x4 ADD PUSH2 0x120 SWAP1 PUSH2 0x335C JUMP JUMPDEST PUSH2 0x1949 DUP6 DUP5 PUSH2 0x1707 JUMP JUMPDEST PUSH2 0x1965 PUSH2 0x195E DUP7 PUSH1 0x0 ADD MLOAD DUP8 PUSH1 0x60 ADD MLOAD PUSH2 0x1F1C JUMP JUMPDEST DUP7 MLOAD PUSH2 0x1F2B JUMP JUMPDEST ISZERO ISZERO PUSH2 0x199D JUMPI PUSH1 0x40 MLOAD PUSH32 0x8C379A000000000000000000000000000000000000000000000000000000000 DUP2 MSTORE PUSH1 0x4 ADD PUSH2 0x120 SWAP1 PUSH2 0x335C JUMP JUMPDEST PUSH2 0x1B1E JUMP JUMPDEST PUSH2 0x19AC DUP11 DUP8 PUSH2 0x5F8 JUMP JUMPDEST SWAP2 POP PUSH1 0x0 DUP3 PUSH1 0x60 ADD MLOAD GT ISZERO PUSH2 0x19E1 JUMPI PUSH2 0x19CA DUP9 DUP9 DUP5 PUSH1 0x60 ADD MLOAD PUSH2 0x1FB2 JUMP JUMPDEST PUSH1 0x20 DUP1 DUP3 ADD MLOAD SWAP1 DUP8 ADD MSTORE PUSH1 0x60 DUP1 DUP3 ADD MLOAD SWAP1 DUP8 ADD MSTORE SWAP1 POP JUMPDEST PUSH1 0x1 SLOAD PUSH1 0x40 MLOAD PUSH32 0xE5FA431B00000000000000000000000000000000000000000000000000000000 DUP2 MSTORE PUSH20 0xFFFFFFFFFFFFFFFFFFFFFFFFFFFFFFFFFFFFFFFF SWAP1 SWAP2 AND SWAP1 PUSH4 0xE5FA431B SWAP1 PUSH2 0x1A3B SWAP1 DUP14 SWAP1 DUP11 SWAP1 DUP15 SWAP1 PUSH1 0x4 ADD PUSH2 0x32AC JUMP JUMPDEST PUSH1 0x80 PUSH1 0x40 MLOAD DUP1 DUP4 SUB DUP2 PUSH1 0x0 DUP8 DUP1 EXTCODESIZE ISZERO DUP1 ISZERO PUSH2 0x1A55 JUMPI PUSH1 0x0 DUP1 REVERT JUMPDEST POP GAS CALL ISZERO DUP1 ISZERO PUSH2 0x1A69 JUMPI RETURNDATASIZE PUSH1 0x0 DUP1 RETURNDATACOPY RETURNDATASIZE PUSH1 0x0 REVERT JUMPDEST POP POP POP POP PUSH1 0x40 MLOAD RETURNDATASIZE PUSH1 0x1F NOT PUSH1 0x1F DUP3 ADD AND DUP3 ADD DUP1 PUSH1 0x40 MSTORE POP PUSH2 0x1A8D SWAP2 SWAP1 DUP2 ADD SWAP1 PUSH2 0x2C07 JUMP JUMPDEST DUP1 MLOAD SWAP1 SWAP4 POP DUP7 EQ PUSH2 0x1ACA JUMPI PUSH1 0x40 MLOAD PUSH32 0x8C379A000000000000000000000000000000000000000000000000000000000 DUP2 MSTORE PUSH1 0x4 ADD PUSH2 0x120 SWAP1 PUSH2 0x335C JUMP JUMPDEST PUSH2 0x1AD4 DUP6 DUP5 PUSH2 0x1707 JUMP JUMPDEST PUSH2 0x1AE6 DUP6 PUSH1 0x20 ADD MLOAD DUP5 PUSH1 0x20 ADD MLOAD PUSH2 0x1F2B JUMP JUMPDEST ISZERO ISZERO PUSH2 0x1B1E JUMPI PUSH1 0x40 MLOAD PUSH32 0x8C379A000000000000000000000000000000000000000000000000000000000 DUP2 MSTORE PUSH1 0x4 ADD PUSH2 0x120 SWAP1 PUSH2 0x335C JUMP JUMPDEST PUSH2 0x13AA DUP5 CALLER DUP6 PUSH1 0x0 ADD MLOAD PUSH2 0x13B7 JUMP JUMPDEST PUSH2 0x1B35 PUSH2 0x24BE JUMP JUMPDEST PUSH1 0x0 DUP1 PUSH1 0x60 PUSH1 0x0 PUSH2 0x1B44 PUSH2 0x24BE JUMP JUMPDEST PUSH2 0x1B4C PUSH2 0x24BE JUMP JUMPDEST DUP11 MLOAD SWAP5 POP DUP5 PUSH1 0x40 MLOAD SWAP1 DUP1 DUP3 MSTORE DUP1 PUSH1 0x20 MUL PUSH1 0x20 ADD DUP3 ADD PUSH1 0x40 MSTORE DUP1 ISZERO PUSH2 0x1B7A JUMPI DUP2 PUSH1 0x20 ADD PUSH1 0x20 DUP3 MUL DUP1 CODESIZE DUP4 CODECOPY ADD SWAP1 POP JUMPDEST POP SWAP4 POP PUSH1 0x0 SWAP3 POP JUMPDEST DUP5 DUP4 LT ISZERO PUSH2 0x1CB6 JUMPI PUSH2 0x1BAF DUP7 DUP13 DUP6 DUP2 MLOAD DUP2 LT ISZERO ISZERO PUSH2 0x1B9C JUMPI INVALID JUMPDEST SWAP1 PUSH1 0x20 ADD SWAP1 PUSH1 0x20 MUL ADD MLOAD PUSH1 0xE0 ADD MLOAD PUSH2 0x1F1C JUMP JUMPDEST PUSH1 0x5 DUP1 SLOAD PUSH1 0x40 DUP1 MLOAD PUSH1 0x20 PUSH1 0x1F PUSH1 0x2 PUSH32 0xFFFFFFFFFFFFFFFFFFFFFFFFFFFFFFFFFFFFFFFFFFFFFFFFFFFFFFFFFFFFFFFF PUSH2 0x100 PUSH1 0x1 DUP9 AND ISZERO MUL ADD SWAP1 SWAP6 AND SWAP5 SWAP1 SWAP5 DIV SWAP4 DUP5 ADD DUP2 SWAP1 DIV DUP2 MUL DUP3 ADD DUP2 ADD SWAP1 SWAP3 MSTORE DUP3 DUP2 MSTORE SWAP4 SWAP10 POP DUP4 ADD DUP3 DUP3 DUP1 ISZERO PUSH2 0x1C55 JUMPI DUP1 PUSH1 0x1F LT PUSH2 0x1C2A JUMPI PUSH2 0x100 DUP1 DUP4 SLOAD DIV MUL DUP4 MSTORE SWAP2 PUSH1 0x20 ADD SWAP2 PUSH2 0x1C55 JUMP JUMPDEST DUP3 ADD SWAP2 SWAP1 PUSH1 0x0 MSTORE PUSH1 0x20 PUSH1 0x0 KECCAK256 SWAP1 JUMPDEST DUP2 SLOAD DUP2 MSTORE SWAP1 PUSH1 0x1 ADD SWAP1 PUSH1 0x20 ADD DUP1 DUP4 GT PUSH2 0x1C38 JUMPI DUP3 SWAP1 SUB PUSH1 0x1F AND DUP3 ADD SWAP2 JUMPDEST POP POP POP POP POP DUP12 DUP5 DUP2 MLOAD DUP2 LT ISZERO ISZERO PUSH2 0x1C68 JUMPI INVALID JUMPDEST PUSH1 0x20 SWAP1 DUP2 MUL SWAP1 SWAP2 ADD ADD MLOAD PUSH2 0x160 ADD MSTORE DUP11 MLOAD DUP12 SWAP1 DUP5 SWAP1 DUP2 LT PUSH2 0x1C85 JUMPI INVALID JUMPDEST SWAP1 PUSH1 0x20 ADD SWAP1 PUSH1 0x20 MUL ADD MLOAD PUSH1 0xA0 ADD MLOAD DUP5 DUP5 DUP2 MLOAD DUP2 LT ISZERO ISZERO PUSH2 0x1CA1 JUMPI INVALID JUMPDEST PUSH1 0x20 SWAP1 DUP2 MUL SWAP1 SWAP2 ADD ADD MSTORE PUSH1 0x1 SWAP1 SWAP3 ADD SWAP2 PUSH2 0x1B82 JUMP JUMPDEST PUSH1 0x0 DUP7 GT ISZERO PUSH2 0x1CE1 JUMPI PUSH2 0x1CCA DUP10 DUP10 DUP9 PUSH2 0x1FB2 JUMP JUMPDEST PUSH1 0x60 DUP1 DUP3 ADD MLOAD SWAP1 DUP10 ADD MSTORE PUSH1 0x20 DUP1 DUP3 ADD MLOAD SWAP1 DUP10 ADD MSTORE SWAP2 POP JUMPDEST PUSH1 0x1 SLOAD PUSH1 0x40 MLOAD PUSH32 0x4D0AE54600000000000000000000000000000000000000000000000000000000 DUP2 MSTORE PUSH20 0xFFFFFFFFFFFFFFFFFFFFFFFFFFFFFFFFFFFFFFFF SWAP1 SWAP2 AND SWAP1 PUSH4 0x4D0AE546 SWAP1 PUSH2 0x1D3B SWAP1 DUP15 SWAP1 DUP9 SWAP1 DUP16 SWAP1 PUSH1 0x4 ADD PUSH2 0x3273 JUMP JUMPDEST PUSH1 0x80 PUSH1 0x40 MLOAD DUP1 DUP4 SUB DUP2 PUSH1 0x0 DUP8 DUP1 EXTCODESIZE ISZERO DUP1 ISZERO PUSH2 0x1D55 JUMPI PUSH1 0x0 DUP1 REVERT JUMPDEST POP GAS CALL ISZERO DUP1 ISZERO PUSH2 0x1D69 JUMPI RETURNDATASIZE PUSH1 0x0 DUP1 RETURNDATACOPY RETURNDATASIZE PUSH1 0x0 REVERT JUMPDEST POP POP POP POP PUSH1 0x40 MLOAD RETURNDATASIZE PUSH1 0x1F NOT PUSH1 0x1F DUP3 ADD AND DUP3 ADD DUP1 PUSH1 0x40 MSTORE POP PUSH2 0x1D8D SWAP2 SWAP1 DUP2 ADD SWAP1 PUSH2 0x2C07 JUMP JUMPDEST SWAP1 POP PUSH2 0x1D99 DUP8 DUP3 PUSH2 0x1707 JUMP JUMPDEST PUSH2 0x1DAB DUP8 PUSH1 0x20 ADD MLOAD DUP3 PUSH1 0x20 ADD MLOAD PUSH2 0x1F2B JUMP JUMPDEST ISZERO ISZERO PUSH2 0x1DE3 JUMPI PUSH1 0x40 MLOAD PUSH32 0x8C379A000000000000000000000000000000000000000000000000000000000 DUP2 MSTORE PUSH1 0x4 ADD PUSH2 0x120 SWAP1 PUSH2 0x335C JUMP JUMPDEST PUSH1 0x0 SWAP3 POP JUMPDEST DUP5 DUP4 LT ISZERO PUSH2 0x1E21 JUMPI PUSH2 0x1E16 DUP12 DUP5 DUP2 MLOAD DUP2 LT ISZERO ISZERO PUSH2 0x1E01 JUMPI INVALID JUMPDEST SWAP1 PUSH1 0x20 ADD SWAP1 PUSH1 0x20 MUL ADD MLOAD PUSH2 0x140 ADD MLOAD CALLER PUSH2 0x233C JUMP JUMPDEST PUSH1 0x1 SWAP1 SWAP3 ADD SWAP2 PUSH2 0x1DE8 JUMP JUMPDEST POP POP POP POP POP POP SWAP5 SWAP4 POP POP POP POP JUMP JUMPDEST PUSH1 0x0 DUP1 PUSH1 0x0 DUP7 GT ISZERO PUSH2 0x1F14 JUMPI PUSH1 0x2 SLOAD PUSH1 0x40 MLOAD PUSH32 0x2E1A7D4D00000000000000000000000000000000000000000000000000000000 DUP2 MSTORE PUSH20 0xFFFFFFFFFFFFFFFFFFFFFFFFFFFFFFFFFFFFFFFF SWAP1 SWAP2 AND SWAP1 PUSH4 0x2E1A7D4D SWAP1 PUSH2 0x1E91 SWAP1 DUP10 SWAP1 PUSH1 0x4 ADD PUSH2 0x340B JUMP JUMPDEST PUSH1 0x0 PUSH1 0x40 MLOAD DUP1 DUP4 SUB DUP2 PUSH1 0x0 DUP8 DUP1 EXTCODESIZE ISZERO DUP1 ISZERO PUSH2 0x1EAB JUMPI PUSH1 0x0 DUP1 REVERT JUMPDEST POP GAS CALL ISZERO DUP1 ISZERO PUSH2 0x1EBF JUMPI RETURNDATASIZE PUSH1 0x0 DUP1 RETURNDATACOPY RETURNDATASIZE PUSH1 0x0 REVERT JUMPDEST POP POP POP POP PUSH2 0x1ECE DUP6 DUP6 DUP6 PUSH2 0xFCF JUMP JUMPDEST SWAP2 POP PUSH2 0x1EDA DUP7 DUP4 PUSH2 0x109D JUMP JUMPDEST SWAP1 POP PUSH1 0x0 DUP2 GT ISZERO PUSH2 0x1F14 JUMPI PUSH1 0x40 MLOAD CALLER SWAP1 DUP3 ISZERO PUSH2 0x8FC MUL SWAP1 DUP4 SWAP1 PUSH1 0x0 DUP2 DUP2 DUP2 DUP6 DUP9 DUP9 CALL SWAP4 POP POP POP POP ISZERO DUP1 ISZERO PUSH2 0x1F12 JUMPI RETURNDATASIZE PUSH1 0x0 DUP1 RETURNDATACOPY RETURNDATASIZE PUSH1 0x0 REVERT JUMPDEST POP JUMPDEST POP POP POP POP POP POP JUMP JUMPDEST PUSH1 0x0 DUP3 DUP3 ADD DUP4 DUP2 LT ISZERO PUSH2 0xC45 JUMPI INVALID JUMPDEST PUSH1 0x0 DUP1 PUSH2 0x1F3D PUSH2 0x251C PUSH2 0x2710 DUP7 PUSH2 0x1591 JUMP JUMPDEST SWAP1 SWAP3 LT ISZERO SWAP4 SWAP3 POP POP POP JUMP JUMPDEST PUSH2 0x1F50 PUSH2 0x24BE JUMP JUMPDEST PUSH1 0x0 DUP1 PUSH2 0x1F5B PUSH2 0x24BE JUMP JUMPDEST PUSH1 0x0 SWAP3 POP JUMPDEST DUP6 MLOAD DUP4 LT ISZERO PUSH2 0x16FE JUMPI PUSH2 0x1F77 DUP6 DUP6 PUSH1 0x20 ADD MLOAD PUSH2 0x109D JUMP JUMPDEST SWAP2 POP PUSH2 0x1F8A DUP7 DUP5 DUP2 MLOAD DUP2 LT ISZERO ISZERO PUSH2 0x67F JUMPI INVALID JUMPDEST SWAP1 POP PUSH2 0x1F96 DUP5 DUP3 PUSH2 0x1707 JUMP JUMPDEST DUP5 DUP5 PUSH1 0x20 ADD MLOAD EQ ISZERO PUSH2 0x1FA7 JUMPI PUSH2 0x16FE JUMP JUMPDEST PUSH1 0x1 SWAP1 SWAP3 ADD SWAP2 PUSH2 0x1F60 JUMP JUMPDEST PUSH2 0x1FBA PUSH2 0x24BE JUMP JUMPDEST PUSH1 0x0 DUP1 PUSH1 0x0 PUSH2 0x1FC7 PUSH2 0x24BE JUMP JUMPDEST PUSH1 0x0 SWAP4 POP JUMPDEST DUP8 MLOAD DUP5 LT ISZERO PUSH2 0x22E0 JUMPI PUSH1 0x4 DUP1 SLOAD PUSH1 0x40 DUP1 MLOAD PUSH1 0x20 PUSH1 0x2 PUSH1 0x1 DUP6 AND ISZERO PUSH2 0x100 MUL PUSH32 0xFFFFFFFFFFFFFFFFFFFFFFFFFFFFFFFFFFFFFFFFFFFFFFFFFFFFFFFFFFFFFFFF ADD SWAP1 SWAP5 AND SWAP4 SWAP1 SWAP4 DIV PUSH1 0x1F DUP2 ADD DUP5 SWAP1 DIV DUP5 MUL DUP3 ADD DUP5 ADD SWAP1 SWAP3 MSTORE DUP2 DUP2 MSTORE SWAP3 SWAP2 DUP4 ADD DUP3 DUP3 DUP1 ISZERO PUSH2 0x2079 JUMPI DUP1 PUSH1 0x1F LT PUSH2 0x204E JUMPI PUSH2 0x100 DUP1 DUP4 SLOAD DIV MUL DUP4 MSTORE SWAP2 PUSH1 0x20 ADD SWAP2 PUSH2 0x2079 JUMP JUMPDEST DUP3 ADD SWAP2 SWAP1 PUSH1 0x0 MSTORE PUSH1 0x20 PUSH1 0x0 KECCAK256 SWAP1 JUMPDEST DUP2 SLOAD DUP2 MSTORE SWAP1 PUSH1 0x1 ADD SWAP1 PUSH1 0x20 ADD DUP1 DUP4 GT PUSH2 0x205C JUMPI DUP3 SWAP1 SUB PUSH1 0x1F AND DUP3 ADD SWAP2 JUMPDEST POP POP POP POP POP DUP9 DUP6 DUP2 MLOAD DUP2 LT ISZERO ISZERO PUSH2 0x208C JUMPI INVALID JUMPDEST PUSH1 0x20 SWAP1 DUP2 MUL SWAP1 SWAP2 ADD DUP2 ADD MLOAD PUSH2 0x140 ADD SWAP2 SWAP1 SWAP2 MSTORE PUSH1 0x5 DUP1 SLOAD PUSH1 0x40 DUP1 MLOAD PUSH1 0x1F PUSH1 0x2 PUSH32 0xFFFFFFFFFFFFFFFFFFFFFFFFFFFFFFFFFFFFFFFFFFFFFFFFFFFFFFFFFFFFFFFF PUSH2 0x100 PUSH1 0x1 DUP8 AND ISZERO MUL ADD SWAP1 SWAP5 AND SWAP4 SWAP1 SWAP4 DIV SWAP3 DUP4 ADD DUP6 SWAP1 DIV DUP6 MUL DUP2 ADD DUP6 ADD SWAP1 SWAP2 MSTORE DUP2 DUP2 MSTORE SWAP3 DUP4 ADD DUP3 DUP3 DUP1 ISZERO PUSH2 0x2141 JUMPI DUP1 PUSH1 0x1F LT PUSH2 0x2116 JUMPI PUSH2 0x100 DUP1 DUP4 SLOAD DIV MUL DUP4 MSTORE SWAP2 PUSH1 0x20 ADD SWAP2 PUSH2 0x2141 JUMP JUMPDEST DUP3 ADD SWAP2 SWAP1 PUSH1 0x0 MSTORE PUSH1 0x20 PUSH1 0x0 KECCAK256 SWAP1 JUMPDEST DUP2 SLOAD DUP2 MSTORE SWAP1 PUSH1 0x1 ADD SWAP1 PUSH1 0x20 ADD DUP1 DUP4 GT PUSH2 0x2124 JUMPI DUP3 SWAP1 SUB PUSH1 0x1F AND DUP3 ADD SWAP2 JUMPDEST POP POP POP POP POP DUP9 DUP6 DUP2 MLOAD DUP2 LT ISZERO ISZERO PUSH2 0x2154 JUMPI INVALID JUMPDEST PUSH1 0x20 SWAP1 DUP2 MUL SWAP1 SWAP2 ADD ADD MLOAD PUSH2 0x160 ADD MSTORE DUP5 MLOAD PUSH2 0x2170 SWAP1 DUP8 SWAP1 PUSH2 0x109D JUMP JUMPDEST SWAP3 POP PUSH2 0x21BE DUP9 DUP6 DUP2 MLOAD DUP2 LT ISZERO ISZERO PUSH2 0x2183 JUMPI INVALID JUMPDEST SWAP1 PUSH1 0x20 ADD SWAP1 PUSH1 0x20 MUL ADD MLOAD PUSH1 0xA0 ADD MLOAD PUSH2 0xB81 DUP11 DUP8 DUP2 MLOAD DUP2 LT ISZERO ISZERO PUSH2 0x21A2 JUMPI INVALID JUMPDEST SWAP1 PUSH1 0x20 ADD SWAP1 PUSH1 0x20 MUL ADD MLOAD PUSH1 0x80 ADD MLOAD DUP12 DUP9 DUP2 MLOAD DUP2 LT ISZERO ISZERO PUSH2 0xB6E JUMPI INVALID JUMPDEST PUSH1 0x1 SLOAD DUP10 MLOAD SWAP2 SWAP4 POP PUSH20 0xFFFFFFFFFFFFFFFFFFFFFFFFFFFFFFFFFFFFFFFF AND SWAP1 PUSH4 0xB4BE83D5 SWAP1 DUP11 SWAP1 DUP8 SWAP1 DUP2 LT PUSH2 0x21EF JUMPI INVALID JUMPDEST SWAP1 PUSH1 0x20 ADD SWAP1 PUSH1 0x20 MUL ADD MLOAD PUSH2 0x2204 DUP6 PUSH1 0x1 PUSH2 0x1F1C JUMP JUMPDEST DUP11 DUP9 DUP2 MLOAD DUP2 LT ISZERO ISZERO PUSH2 0x2212 JUMPI INVALID JUMPDEST SWAP1 PUSH1 0x20 ADD SWAP1 PUSH1 0x20 MUL ADD MLOAD PUSH1 0x40 MLOAD DUP5 PUSH4 0xFFFFFFFF AND PUSH29 0x100000000000000000000000000000000000000000000000000000000 MUL DUP2 MSTORE PUSH1 0x4 ADD PUSH2 0x2256 SWAP4 SWAP3 SWAP2 SWAP1 PUSH2 0x33CB JUMP JUMPDEST PUSH1 0x80 PUSH1 0x40 MLOAD DUP1 DUP4 SUB DUP2 PUSH1 0x0 DUP8 DUP1 EXTCODESIZE ISZERO DUP1 ISZERO PUSH2 0x2270 JUMPI PUSH1 0x0 DUP1 REVERT JUMPDEST POP GAS CALL ISZERO DUP1 ISZERO PUSH2 0x2284 JUMPI RETURNDATASIZE PUSH1 0x0 DUP1 RETURNDATACOPY RETURNDATASIZE PUSH1 0x0 REVERT JUMPDEST POP POP POP POP PUSH1 0x40 MLOAD RETURNDATASIZE PUSH1 0x1F NOT PUSH1 0x1F DUP3 ADD AND DUP3 ADD DUP1 PUSH1 0x40 MSTORE POP PUSH2 0x22A8 SWAP2 SWAP1 DUP2 ADD SWAP1 PUSH2 0x2C07 JUMP JUMPDEST SWAP1 POP PUSH2 0x22BC DUP2 PUSH1 0x0 ADD MLOAD DUP3 PUSH1 0x60 ADD MLOAD PUSH2 0x109D JUMP JUMPDEST DUP2 MSTORE PUSH2 0x22C8 DUP6 DUP3 PUSH2 0x1707 JUMP JUMPDEST DUP5 MLOAD DUP7 GT PUSH2 0x22D5 JUMPI PUSH2 0x22E0 JUMP JUMPDEST PUSH1 0x1 SWAP1 SWAP4 ADD SWAP3 PUSH2 0x1FCC JUMP JUMPDEST POP POP POP POP SWAP4 SWAP3 POP POP POP JUMP JUMPDEST PUSH1 0x0 DUP3 DUP3 MUL DUP4 ISZERO DUP1 PUSH2 0x2307 JUMPI POP DUP3 DUP5 DUP3 DUP2 ISZERO ISZERO PUSH2 0x2304 JUMPI INVALID JUMPDEST DIV EQ JUMPDEST ISZERO ISZERO PUSH2 0xC45 JUMPI INVALID JUMPDEST PUSH1 0x0 DUP1 DUP3 DUP5 DUP2 ISZERO ISZERO PUSH2 0x231D JUMPI INVALID JUMPDEST DIV SWAP5 SWAP4 POP POP POP POP JUMP JUMPDEST PUSH1 0x0 DUP2 DUP4 LT PUSH2 0x2335 JUMPI DUP2 PUSH2 0xC45 JUMP JUMPDEST POP SWAP1 SWAP2 SWAP1 POP JUMP JUMPDEST PUSH1 0x0 DUP1 PUSH1 0x60 PUSH2 0x2352 DUP6 PUSH1 0x10 PUSH4 0xFFFFFFFF PUSH2 0x10B4 AND JUMP JUMPDEST SWAP3 POP PUSH2 0x2365 DUP6 PUSH1 0x24 PUSH4 0xFFFFFFFF PUSH2 0x240C AND JUMP JUMPDEST SWAP2 POP PUSH2 0x2378 DUP6 PUSH1 0x64 PUSH4 0xFFFFFFFF PUSH2 0x2418 AND JUMP JUMPDEST PUSH1 0x40 MLOAD PUSH32 0xB88D4FDE00000000000000000000000000000000000000000000000000000000 DUP2 MSTORE SWAP1 SWAP2 POP PUSH20 0xFFFFFFFFFFFFFFFFFFFFFFFFFFFFFFFFFFFFFFFF DUP5 AND SWAP1 PUSH4 0xB88D4FDE SWAP1 PUSH2 0x23D3 SWAP1 ADDRESS SWAP1 DUP9 SWAP1 DUP8 SWAP1 DUP8 SWAP1 PUSH1 0x4 ADD PUSH2 0x3214 JUMP JUMPDEST PUSH1 0x0 PUSH1 0x40 MLOAD DUP1 DUP4 SUB DUP2 PUSH1 0x0 DUP8 DUP1 EXTCODESIZE ISZERO DUP1 ISZERO PUSH2 0x23ED JUMPI PUSH1 0x0 DUP1 REVERT JUMPDEST POP GAS CALL ISZERO DUP1 ISZERO PUSH2 0x2401 JUMPI RETURNDATASIZE PUSH1 0x0 DUP1 RETURNDATACOPY RETURNDATASIZE PUSH1 0x0 REVERT JUMPDEST POP POP POP POP POP POP POP POP POP JUMP JUMPDEST PUSH1 0x0 PUSH2 0xC45 DUP4 DUP4 PUSH2 0x2473 JUMP JUMPDEST PUSH1 0x60 PUSH1 0x0 PUSH2 0x2426 DUP5 DUP5 PUSH2 0x240C JUMP JUMPDEST SWAP1 POP PUSH1 0x20 DUP4 ADD SWAP3 POP DUP1 DUP4 ADD DUP5 MLOAD LT ISZERO ISZERO ISZERO PUSH2 0x246D JUMPI PUSH1 0x40 MLOAD PUSH32 0x8C379A000000000000000000000000000000000000000000000000000000000 DUP2 MSTORE PUSH1 0x4 ADD PUSH2 0x120 SWAP1 PUSH2 0x330C JUMP JUMPDEST POP POP ADD SWAP1 JUMP JUMPDEST PUSH1 0x0 DUP2 PUSH1 0x20 ADD DUP4 MLOAD LT ISZERO ISZERO ISZERO PUSH2 0x24B5 JUMPI PUSH1 0x40 MLOAD PUSH32 0x8C379A000000000000000000000000000000000000000000000000000000000 DUP2 MSTORE PUSH1 0x4 ADD PUSH2 0x120 SWAP1 PUSH2 0x332C JUMP JUMPDEST POP ADD PUSH1 0x20 ADD MLOAD SWAP1 JUMP JUMPDEST PUSH1 0x80 PUSH1 0x40 MLOAD SWAP1 DUP2 ADD PUSH1 0x40 MSTORE DUP1 PUSH1 0x0 DUP2 MSTORE PUSH1 0x20 ADD PUSH1 0x0 DUP2 MSTORE PUSH1 0x20 ADD PUSH1 0x0 DUP2 MSTORE PUSH1 0x20 ADD PUSH1 0x0 DUP2 MSTORE POP SWAP1 JUMP JUMPDEST PUSH1 0x40 DUP1 MLOAD PUSH1 0x60 DUP2 ADD DUP3 MSTORE PUSH1 0x0 DUP1 DUP3 MSTORE PUSH1 0x20 DUP3 ADD DUP2 SWAP1 MSTORE SWAP2 DUP2 ADD SWAP2 SWAP1 SWAP2 MSTORE SWAP1 JUMP JUMPDEST PUSH1 0x0 PUSH2 0xC45 DUP3 CALLDATALOAD PUSH2 0x34B1 JUMP JUMPDEST PUSH1 0x0 PUSH2 0xC45 DUP3 MLOAD PUSH2 0x34B1 JUMP JUMPDEST PUSH1 0x0 PUSH1 0x1F DUP3 ADD DUP4 SGT PUSH2 0x2530 JUMPI PUSH1 0x0 DUP1 REVERT JUMPDEST DUP2 CALLDATALOAD PUSH2 0x2543 PUSH2 0x253E DUP3 PUSH2 0x3440 JUMP JUMPDEST PUSH2 0x3419 JUMP JUMPDEST DUP2 DUP2 MSTORE PUSH1 0x20 SWAP4 DUP5 ADD SWAP4 SWAP1 SWAP3 POP DUP3 ADD DUP4 PUSH1 0x0 JUMPDEST DUP4 DUP2 LT ISZERO PUSH2 0x6B4 JUMPI DUP2 CALLDATALOAD DUP7 ADD PUSH2 0x256B DUP9 DUP3 PUSH2 0x2602 JUMP JUMPDEST DUP5 MSTORE POP PUSH1 0x20 SWAP3 DUP4 ADD SWAP3 SWAP2 SWAP1 SWAP2 ADD SWAP1 PUSH1 0x1 ADD PUSH2 0x2555 JUMP JUMPDEST PUSH1 0x0 PUSH1 0x1F DUP3 ADD DUP4 SGT PUSH2 0x2592 JUMPI PUSH1 0x0 DUP1 REVERT JUMPDEST DUP2 CALLDATALOAD PUSH2 0x25A0 PUSH2 0x253E DUP3 PUSH2 0x3440 JUMP JUMPDEST DUP2 DUP2 MSTORE PUSH1 0x20 SWAP4 DUP5 ADD SWAP4 SWAP1 SWAP3 POP DUP3 ADD DUP4 PUSH1 0x0 JUMPDEST DUP4 DUP2 LT ISZERO PUSH2 0x6B4 JUMPI DUP2 CALLDATALOAD DUP7 ADD PUSH2 0x25C8 DUP9 DUP3 PUSH2 0x2712 JUMP JUMPDEST DUP5 MSTORE POP PUSH1 0x20 SWAP3 DUP4 ADD SWAP3 SWAP2 SWAP1 SWAP2 ADD SWAP1 PUSH1 0x1 ADD PUSH2 0x25B2 JUMP JUMPDEST PUSH1 0x0 PUSH2 0xC45 DUP3 MLOAD PUSH2 0x34F9 JUMP JUMPDEST PUSH1 0x0 PUSH2 0xC45 DUP3 MLOAD PUSH2 0x34F6 JUMP JUMPDEST PUSH1 0x0 PUSH2 0xC45 DUP3 CALLDATALOAD PUSH2 0x34CA JUMP JUMPDEST PUSH1 0x0 PUSH1 0x1F DUP3 ADD DUP4 SGT PUSH2 0x2613 JUMPI PUSH1 0x0 DUP1 REVERT JUMPDEST DUP2 CALLDATALOAD PUSH2 0x2621 PUSH2 0x253E DUP3 PUSH2 0x3461 JUMP JUMPDEST SWAP2 POP DUP1 DUP3 MSTORE PUSH1 0x20 DUP4 ADD PUSH1 0x20 DUP4 ADD DUP6 DUP4 DUP4 ADD GT ISZERO PUSH2 0x263D JUMPI PUSH1 0x0 DUP1 REVERT JUMPDEST PUSH2 0x16FE DUP4 DUP3 DUP5 PUSH2 0x3504 JUMP JUMPDEST PUSH1 0x0 PUSH1 0x80 DUP3 DUP5 SUB SLT ISZERO PUSH2 0x265A JUMPI PUSH1 0x0 DUP1 REVERT JUMPDEST PUSH2 0x2664 PUSH1 0x80 PUSH2 0x3419 JUMP JUMPDEST SWAP1 POP PUSH1 0x0 PUSH2 0x2672 DUP5 DUP5 PUSH2 0x25EA JUMP JUMPDEST DUP3 MSTORE POP PUSH1 0x20 PUSH2 0x2683 DUP5 DUP5 DUP4 ADD PUSH2 0x25EA JUMP JUMPDEST PUSH1 0x20 DUP4 ADD MSTORE POP PUSH1 0x40 PUSH2 0x2697 DUP5 DUP3 DUP6 ADD PUSH2 0x25EA JUMP JUMPDEST PUSH1 0x40 DUP4 ADD MSTORE POP PUSH1 0x60 PUSH2 0x26AB DUP5 DUP3 DUP6 ADD PUSH2 0x25EA JUMP JUMPDEST PUSH1 0x60 DUP4 ADD MSTORE POP SWAP3 SWAP2 POP POP JUMP JUMPDEST PUSH1 0x0 PUSH1 0x60 DUP3 DUP5 SUB SLT ISZERO PUSH2 0x26C9 JUMPI PUSH1 0x0 DUP1 REVERT JUMPDEST PUSH2 0x26D3 PUSH1 0x60 PUSH2 0x3419 JUMP JUMPDEST SWAP1 POP PUSH1 0x0 PUSH2 0x26E1 DUP5 DUP5 PUSH2 0x2873 JUMP JUMPDEST DUP3 MSTORE POP PUSH1 0x20 PUSH2 0x26F2 DUP5 DUP5 DUP4 ADD PUSH2 0x25EA JUMP JUMPDEST PUSH1 0x20 DUP4 ADD MSTORE POP PUSH1 0x40 PUSH2 0x2706 DUP5 DUP3 DUP6 ADD PUSH2 0x25EA JUMP JUMPDEST PUSH1 0x40 DUP4 ADD MSTORE POP SWAP3 SWAP2 POP POP JUMP JUMPDEST PUSH1 0x0 PUSH2 0x180 DUP3 DUP5 SUB SLT ISZERO PUSH2 0x2725 JUMPI PUSH1 0x0 DUP1 REVERT JUMPDEST PUSH2 0x2730 PUSH2 0x180 PUSH2 0x3419 JUMP JUMPDEST SWAP1 POP PUSH1 0x0 PUSH2 0x273E DUP5 DUP5 PUSH2 0x2507 JUMP JUMPDEST DUP3 MSTORE POP PUSH1 0x20 PUSH2 0x274F DUP5 DUP5 DUP4 ADD PUSH2 0x2507 JUMP JUMPDEST PUSH1 0x20 DUP4 ADD MSTORE POP PUSH1 0x40 PUSH2 0x2763 DUP5 DUP3 DUP6 ADD PUSH2 0x2507 JUMP JUMPDEST PUSH1 0x40 DUP4 ADD MSTORE POP PUSH1 0x60 PUSH2 0x2777 DUP5 DUP3 DUP6 ADD PUSH2 0x2507 JUMP JUMPDEST PUSH1 0x60 DUP4 ADD MSTORE POP PUSH1 0x80 PUSH2 0x278B DUP5 DUP3 DUP6 ADD PUSH2 0x2867 JUMP JUMPDEST PUSH1 0x80 DUP4 ADD MSTORE POP PUSH1 0xA0 PUSH2 0x279F DUP5 DUP3 DUP6 ADD PUSH2 0x2867 JUMP JUMPDEST PUSH1 0xA0 DUP4 ADD MSTORE POP PUSH1 0xC0 PUSH2 0x27B3 DUP5 DUP3 DUP6 ADD PUSH2 0x2867 JUMP JUMPDEST PUSH1 0xC0 DUP4 ADD MSTORE POP PUSH1 0xE0 PUSH2 0x27C7 DUP5 DUP3 DUP6 ADD PUSH2 0x2867 JUMP JUMPDEST PUSH1 0xE0 DUP4 ADD MSTORE POP PUSH2 0x100 PUSH2 0x27DC DUP5 DUP3 DUP6 ADD PUSH2 0x2867 JUMP JUMPDEST PUSH2 0x100 DUP4 ADD MSTORE POP PUSH2 0x120 PUSH2 0x27F2 DUP5 DUP3 DUP6 ADD PUSH2 0x2867 JUMP JUMPDEST PUSH2 0x120 DUP4 ADD MSTORE POP PUSH2 0x140 DUP3 ADD CALLDATALOAD PUSH8 0xFFFFFFFFFFFFFFFF DUP2 GT ISZERO PUSH2 0x2814 JUMPI PUSH1 0x0 DUP1 REVERT JUMPDEST PUSH2 0x2820 DUP5 DUP3 DUP6 ADD PUSH2 0x2602 JUMP JUMPDEST PUSH2 0x140 DUP4 ADD MSTORE POP PUSH2 0x160 DUP3 ADD CALLDATALOAD PUSH8 0xFFFFFFFFFFFFFFFF DUP2 GT ISZERO PUSH2 0x2842 JUMPI PUSH1 0x0 DUP1 REVERT JUMPDEST PUSH2 0x284E DUP5 DUP3 DUP6 ADD PUSH2 0x2602 JUMP JUMPDEST PUSH2 0x160 DUP4 ADD MSTORE POP SWAP3 SWAP2 POP POP JUMP JUMPDEST PUSH1 0x0 PUSH2 0xC45 DUP3 CALLDATALOAD PUSH2 0x34EF JUMP JUMPDEST PUSH1 0x0 PUSH2 0xC45 DUP3 CALLDATALOAD PUSH2 0x34F6 JUMP JUMPDEST PUSH1 0x0 PUSH2 0xC45 DUP3 MLOAD PUSH2 0x34FE JUMP JUMPDEST PUSH1 0x0 PUSH1 0x20 DUP3 DUP5 SUB SLT ISZERO PUSH2 0x2891 JUMPI PUSH1 0x0 DUP1 REVERT JUMPDEST PUSH1 0x0 PUSH2 0x15A6 DUP5 DUP5 PUSH2 0x2507 JUMP JUMPDEST PUSH1 0x0 PUSH1 0x20 DUP3 DUP5 SUB SLT ISZERO PUSH2 0x28AF JUMPI PUSH1 0x0 DUP1 REVERT JUMPDEST PUSH1 0x0 PUSH2 0x15A6 DUP5 DUP5 PUSH2 0x2513 JUMP JUMPDEST PUSH1 0x0 DUP1 PUSH1 0x0 DUP1 PUSH1 0x80 DUP6 DUP8 SUB SLT ISZERO PUSH2 0x28D1 JUMPI PUSH1 0x0 DUP1 REVERT JUMPDEST PUSH1 0x0 PUSH2 0x28DD DUP8 DUP8 PUSH2 0x2507 JUMP JUMPDEST SWAP5 POP POP PUSH1 0x20 PUSH2 0x28EE DUP8 DUP3 DUP9 ADD PUSH2 0x2507 JUMP JUMPDEST SWAP4 POP POP PUSH1 0x40 PUSH2 0x28FF DUP8 DUP3 DUP9 ADD PUSH2 0x2867 JUMP JUMPDEST SWAP3 POP POP PUSH1 0x60 DUP6 ADD CALLDATALOAD PUSH8 0xFFFFFFFFFFFFFFFF DUP2 GT ISZERO PUSH2 0x291C JUMPI PUSH1 0x0 DUP1 REVERT JUMPDEST PUSH2 0x2928 DUP8 DUP3 DUP9 ADD PUSH2 0x2602 JUMP JUMPDEST SWAP2 POP POP SWAP3 SWAP6 SWAP2 SWAP5 POP SWAP3 POP JUMP JUMPDEST PUSH1 0x0 DUP1 PUSH1 0x0 PUSH1 0x60 DUP5 DUP7 SUB SLT ISZERO PUSH2 0x2949 JUMPI PUSH1 0x0 DUP1 REVERT JUMPDEST PUSH1 0x0 PUSH2 0x2955 DUP7 DUP7 PUSH2 0x2507 JUMP JUMPDEST SWAP4 POP POP PUSH1 0x20 PUSH2 0x2966 DUP7 DUP3 DUP8 ADD PUSH2 0x2867 JUMP JUMPDEST SWAP3 POP POP PUSH1 0x40 DUP5 ADD CALLDATALOAD PUSH8 0xFFFFFFFFFFFFFFFF DUP2 GT ISZERO PUSH2 0x2983 JUMPI PUSH1 0x0 DUP1 REVERT JUMPDEST PUSH2 0x298F DUP7 DUP3 DUP8 ADD PUSH2 0x2602 JUMP JUMPDEST SWAP2 POP POP SWAP3 POP SWAP3 POP SWAP3 JUMP JUMPDEST PUSH1 0x0 DUP1 PUSH1 0x0 DUP1 PUSH1 0x0 DUP1 PUSH1 0xC0 DUP8 DUP10 SUB SLT ISZERO PUSH2 0x29B2 JUMPI PUSH1 0x0 DUP1 REVERT JUMPDEST DUP7 CALLDATALOAD PUSH8 0xFFFFFFFFFFFFFFFF DUP2 GT ISZERO PUSH2 0x29C9 JUMPI PUSH1 0x0 DUP1 REVERT JUMPDEST PUSH2 0x29D5 DUP10 DUP3 DUP11 ADD PUSH2 0x2581 JUMP JUMPDEST SWAP7 POP POP PUSH1 0x20 DUP8 ADD CALLDATALOAD PUSH8 0xFFFFFFFFFFFFFFFF DUP2 GT ISZERO PUSH2 0x29F2 JUMPI PUSH1 0x0 DUP1 REVERT JUMPDEST PUSH2 0x29FE DUP10 DUP3 DUP11 ADD PUSH2 0x251F JUMP JUMPDEST SWAP6 POP POP PUSH1 0x40 DUP8 ADD CALLDATALOAD PUSH8 0xFFFFFFFFFFFFFFFF DUP2 GT ISZERO PUSH2 0x2A1B JUMPI PUSH1 0x0 DUP1 REVERT JUMPDEST PUSH2 0x2A27 DUP10 DUP3 DUP11 ADD PUSH2 0x2581 JUMP JUMPDEST SWAP5 POP POP PUSH1 0x60 DUP8 ADD CALLDATALOAD PUSH8 0xFFFFFFFFFFFFFFFF DUP2 GT ISZERO PUSH2 0x2A44 JUMPI PUSH1 0x0 DUP1 REVERT JUMPDEST PUSH2 0x2A50 DUP10 DUP3 DUP11 ADD PUSH2 0x251F JUMP JUMPDEST SWAP4 POP POP PUSH1 0x80 PUSH2 0x2A61 DUP10 DUP3 DUP11 ADD PUSH2 0x285B JUMP JUMPDEST SWAP3 POP POP PUSH1 0xA0 PUSH2 0x2A72 DUP10 DUP3 DUP11 ADD PUSH2 0x2507 JUMP JUMPDEST SWAP2 POP POP SWAP3 SWAP6 POP SWAP3 SWAP6 POP SWAP3 SWAP6 JUMP JUMPDEST PUSH1 0x0 DUP1 PUSH1 0x0 DUP1 PUSH1 0x0 DUP1 PUSH1 0x0 PUSH1 0xE0 DUP9 DUP11 SUB SLT ISZERO PUSH2 0x2A9A JUMPI PUSH1 0x0 DUP1 REVERT JUMPDEST DUP8 CALLDATALOAD PUSH8 0xFFFFFFFFFFFFFFFF DUP2 GT ISZERO PUSH2 0x2AB1 JUMPI PUSH1 0x0 DUP1 REVERT JUMPDEST PUSH2 0x2ABD DUP11 DUP3 DUP12 ADD PUSH2 0x2581 JUMP JUMPDEST SWAP8 POP POP PUSH1 0x20 DUP9 ADD CALLDATALOAD PUSH8 0xFFFFFFFFFFFFFFFF DUP2 GT ISZERO PUSH2 0x2ADA JUMPI PUSH1 0x0 DUP1 REVERT JUMPDEST PUSH2 0x2AE6 DUP11 DUP3 DUP12 ADD PUSH2 0x251F JUMP JUMPDEST SWAP7 POP POP PUSH1 0x40 DUP9 ADD CALLDATALOAD PUSH8 0xFFFFFFFFFFFFFFFF DUP2 GT ISZERO PUSH2 0x2B03 JUMPI PUSH1 0x0 DUP1 REVERT JUMPDEST PUSH2 0x2B0F DUP11 DUP3 DUP12 ADD PUSH2 0x2581 JUMP JUMPDEST SWAP6 POP POP PUSH1 0x60 DUP9 ADD CALLDATALOAD PUSH8 0xFFFFFFFFFFFFFFFF DUP2 GT ISZERO PUSH2 0x2B2C JUMPI PUSH1 0x0 DUP1 REVERT JUMPDEST PUSH2 0x2B38 DUP11 DUP3 DUP12 ADD PUSH2 0x251F JUMP JUMPDEST SWAP5 POP POP PUSH1 0x80 PUSH2 0x2B49 DUP11 DUP3 DUP12 ADD PUSH2 0x2867 JUMP JUMPDEST SWAP4 POP POP PUSH1 0xA0 PUSH2 0x2B5A DUP11 DUP3 DUP12 ADD PUSH2 0x285B JUMP JUMPDEST SWAP3 POP POP PUSH1 0xC0 PUSH2 0x2B6B DUP11 DUP3 DUP12 ADD PUSH2 0x2507 JUMP JUMPDEST SWAP2 POP POP SWAP3 SWAP6 SWAP9 SWAP2 SWAP5 SWAP8 POP SWAP3 SWAP6 POP JUMP JUMPDEST PUSH1 0x0 DUP1 PUSH1 0x40 DUP4 DUP6 SUB SLT ISZERO PUSH2 0x2B8D JUMPI PUSH1 0x0 DUP1 REVERT JUMPDEST DUP3 CALLDATALOAD PUSH8 0xFFFFFFFFFFFFFFFF DUP2 GT ISZERO PUSH2 0x2BA4 JUMPI PUSH1 0x0 DUP1 REVERT JUMPDEST PUSH2 0x2BB0 DUP6 DUP3 DUP7 ADD PUSH2 0x2581 JUMP JUMPDEST SWAP3 POP POP PUSH1 0x20 PUSH2 0x2BC1 DUP6 DUP3 DUP7 ADD PUSH2 0x2867 JUMP JUMPDEST SWAP2 POP POP SWAP3 POP SWAP3 SWAP1 POP JUMP JUMPDEST PUSH1 0x0 PUSH1 0x20 DUP3 DUP5 SUB SLT ISZERO PUSH2 0x2BDD JUMPI PUSH1 0x0 DUP1 REVERT JUMPDEST PUSH1 0x0 PUSH2 0x15A6 DUP5 DUP5 PUSH2 0x25DE JUMP JUMPDEST PUSH1 0x0 PUSH1 0x20 DUP3 DUP5 SUB SLT ISZERO PUSH2 0x2BFB JUMPI PUSH1 0x0 DUP1 REVERT JUMPDEST PUSH1 0x0 PUSH2 0x15A6 DUP5 DUP5 PUSH2 0x25F6 JUMP JUMPDEST PUSH1 0x0 PUSH1 0x80 DUP3 DUP5 SUB SLT ISZERO PUSH2 0x2C19 JUMPI PUSH1 0x0 DUP1 REVERT JUMPDEST PUSH1 0x0 PUSH2 0x15A6 DUP5 DUP5 PUSH2 0x2648 JUMP JUMPDEST PUSH1 0x0 PUSH1 0x60 DUP3 DUP5 SUB SLT ISZERO PUSH2 0x2C37 JUMPI PUSH1 0x0 DUP1 REVERT JUMPDEST PUSH1 0x0 PUSH2 0x15A6 DUP5 DUP5 PUSH2 0x26B7 JUMP JUMPDEST PUSH2 0x2C4C DUP2 PUSH2 0x34B1 JUMP JUMPDEST DUP3 MSTORE POP POP JUMP JUMPDEST PUSH1 0x0 PUSH2 0x2C5D DUP3 PUSH2 0x34AD JUMP JUMPDEST DUP1 DUP5 MSTORE PUSH1 0x20 DUP5 ADD SWAP4 POP DUP4 PUSH1 0x20 DUP3 MUL DUP6 ADD PUSH2 0x2C76 DUP6 PUSH2 0x34A7 JUMP JUMPDEST PUSH1 0x0 JUMPDEST DUP5 DUP2 LT ISZERO PUSH2 0x2CAD JUMPI DUP4 DUP4 SUB DUP9 MSTORE PUSH2 0x2C91 DUP4 DUP4 MLOAD PUSH2 0x2D74 JUMP JUMPDEST SWAP3 POP PUSH2 0x2C9C DUP3 PUSH2 0x34A7 JUMP JUMPDEST PUSH1 0x20 SWAP9 SWAP1 SWAP9 ADD SWAP8 SWAP2 POP PUSH1 0x1 ADD PUSH2 0x2C79 JUMP JUMPDEST POP SWAP1 SWAP7 SWAP6 POP POP POP POP POP POP JUMP JUMPDEST PUSH1 0x0 PUSH2 0x2CC4 DUP3 PUSH2 0x34AD JUMP JUMPDEST DUP1 DUP5 MSTORE PUSH1 0x20 DUP5 ADD SWAP4 POP DUP4 PUSH1 0x20 DUP3 MUL DUP6 ADD PUSH2 0x2CDD DUP6 PUSH2 0x34A7 JUMP JUMPDEST PUSH1 0x0 JUMPDEST DUP5 DUP2 LT ISZERO PUSH2 0x2CAD JUMPI DUP4 DUP4 SUB DUP9 MSTORE PUSH2 0x2CF8 DUP4 DUP4 MLOAD PUSH2 0x30F1 JUMP JUMPDEST SWAP3 POP PUSH2 0x2D03 DUP3 PUSH2 0x34A7 JUMP JUMPDEST PUSH1 0x20 SWAP9 SWAP1 SWAP9 ADD SWAP8 SWAP2 POP PUSH1 0x1 ADD PUSH2 0x2CE0 JUMP JUMPDEST PUSH1 0x0 PUSH2 0x2D1F DUP3 PUSH2 0x34AD JUMP JUMPDEST DUP1 DUP5 MSTORE PUSH1 0x20 DUP5 ADD SWAP4 POP PUSH2 0x2D31 DUP4 PUSH2 0x34A7 JUMP JUMPDEST PUSH1 0x0 JUMPDEST DUP3 DUP2 LT ISZERO PUSH2 0x2D61 JUMPI PUSH2 0x2D47 DUP7 DUP4 MLOAD PUSH2 0x31FD JUMP JUMPDEST PUSH2 0x2D50 DUP3 PUSH2 0x34A7 JUMP JUMPDEST PUSH1 0x20 SWAP7 SWAP1 SWAP7 ADD SWAP6 SWAP2 POP PUSH1 0x1 ADD PUSH2 0x2D34 JUMP JUMPDEST POP SWAP4 SWAP5 SWAP4 POP POP POP POP JUMP JUMPDEST PUSH2 0x2C4C DUP2 PUSH2 0x34CA JUMP JUMPDEST PUSH1 0x0 PUSH2 0x2D7F DUP3 PUSH2 0x34AD JUMP JUMPDEST DUP1 DUP5 MSTORE PUSH2 0x2D93 DUP2 PUSH1 0x20 DUP7 ADD PUSH1 0x20 DUP7 ADD PUSH2 0x3510 JUMP JUMPDEST PUSH2 0x2D9C DUP2 PUSH2 0x353C JUMP JUMPDEST SWAP1 SWAP4 ADD PUSH1 0x20 ADD SWAP4 SWAP3 POP POP POP JUMP JUMPDEST PUSH1 0x23 DUP2 MSTORE PUSH32 0x44454641554C545F46554E4354494F4E5F574554485F434F4E54524143545F4F PUSH1 0x20 DUP3 ADD MSTORE PUSH32 0x4E4C590000000000000000000000000000000000000000000000000000000000 PUSH1 0x40 DUP3 ADD MSTORE PUSH1 0x60 ADD SWAP1 JUMP JUMPDEST PUSH1 0x11 DUP2 MSTORE PUSH32 0x494E56414C49445F4D53475F56414C5545000000000000000000000000000000 PUSH1 0x20 DUP3 ADD MSTORE PUSH1 0x40 ADD SWAP1 JUMP JUMPDEST PUSH1 0x30 DUP2 MSTORE PUSH32 0x475245415445525F4F525F455155414C5F544F5F4E45535445445F4259544553 PUSH1 0x20 DUP3 ADD MSTORE PUSH32 0x5F4C454E4754485F524551554952454400000000000000000000000000000000 PUSH1 0x40 DUP3 ADD MSTORE PUSH1 0x60 ADD SWAP1 JUMP JUMPDEST PUSH1 0x17 DUP2 MSTORE PUSH32 0x56414C55455F475245415445525F5448414E5F5A45524F000000000000000000 PUSH1 0x20 DUP3 ADD MSTORE PUSH1 0x40 ADD SWAP1 JUMP JUMPDEST PUSH1 0x26 DUP2 MSTORE PUSH32 0x475245415445525F4F525F455155414C5F544F5F33325F4C454E4754485F5245 PUSH1 0x20 DUP3 ADD MSTORE PUSH32 0x5155495245440000000000000000000000000000000000000000000000000000 PUSH1 0x40 DUP3 ADD MSTORE PUSH1 0x60 ADD SWAP1 JUMP JUMPDEST PUSH1 0x18 DUP2 MSTORE PUSH32 0x4645455F50524F504F5254494F4E5F544F4F5F4C415247450000000000000000 PUSH1 0x20 DUP3 ADD MSTORE PUSH1 0x40 ADD SWAP1 JUMP JUMPDEST PUSH1 0xF DUP2 MSTORE PUSH32 0x5452414E534645525F4641494C45440000000000000000000000000000000000 PUSH1 0x20 DUP3 ADD MSTORE PUSH1 0x40 ADD SWAP1 JUMP JUMPDEST PUSH1 0x16 DUP2 MSTORE PUSH32 0x554E41434345505441424C455F5448524553484F4C4400000000000000000000 PUSH1 0x20 DUP3 ADD MSTORE PUSH1 0x40 ADD SWAP1 JUMP JUMPDEST PUSH1 0x13 DUP2 MSTORE PUSH32 0x4F4E4C595F434F4E54524143545F4F574E455200000000000000000000000000 PUSH1 0x20 DUP3 ADD MSTORE PUSH1 0x40 ADD SWAP1 JUMP JUMPDEST PUSH1 0x26 DUP2 MSTORE PUSH32 0x475245415445525F4F525F455155414C5F544F5F32305F4C454E4754485F5245 PUSH1 0x20 DUP3 ADD MSTORE PUSH32 0x5155495245440000000000000000000000000000000000000000000000000000 PUSH1 0x40 DUP3 ADD MSTORE PUSH1 0x60 ADD SWAP1 JUMP JUMPDEST PUSH1 0x17 DUP2 MSTORE PUSH32 0x554E535550504F525445445F544F4B454E5F50524F5859000000000000000000 PUSH1 0x20 DUP3 ADD MSTORE PUSH1 0x40 ADD SWAP1 JUMP JUMPDEST PUSH1 0x25 DUP2 MSTORE PUSH32 0x475245415445525F4F525F455155414C5F544F5F345F4C454E4754485F524551 PUSH1 0x20 DUP3 ADD MSTORE PUSH32 0x5549524544000000000000000000000000000000000000000000000000000000 PUSH1 0x40 DUP3 ADD MSTORE PUSH1 0x60 ADD SWAP1 JUMP JUMPDEST DUP1 MLOAD PUSH1 0x80 DUP4 ADD SWAP1 PUSH2 0x30B8 DUP5 DUP3 PUSH2 0x31FD JUMP JUMPDEST POP PUSH1 0x20 DUP3 ADD MLOAD PUSH2 0x30CB PUSH1 0x20 DUP6 ADD DUP3 PUSH2 0x31FD JUMP JUMPDEST POP PUSH1 0x40 DUP3 ADD MLOAD PUSH2 0x30DE PUSH1 0x40 DUP6 ADD DUP3 PUSH2 0x31FD JUMP JUMPDEST POP PUSH1 0x60 DUP3 ADD MLOAD PUSH2 0x158B PUSH1 0x60 DUP6 ADD DUP3 PUSH2 0x31FD JUMP JUMPDEST DUP1 MLOAD PUSH1 0x0 SWAP1 PUSH2 0x180 DUP5 ADD SWAP1 PUSH2 0x3106 DUP6 DUP3 PUSH2 0x2C43 JUMP JUMPDEST POP PUSH1 0x20 DUP4 ADD MLOAD PUSH2 0x3119 PUSH1 0x20 DUP7 ADD DUP3 PUSH2 0x2C43 JUMP JUMPDEST POP PUSH1 0x40 DUP4 ADD MLOAD PUSH2 0x312C PUSH1 0x40 DUP7 ADD DUP3 PUSH2 0x2C43 JUMP JUMPDEST POP PUSH1 0x60 DUP4 ADD MLOAD PUSH2 0x313F PUSH1 0x60 DUP7 ADD DUP3 PUSH2 0x2C43 JUMP JUMPDEST POP PUSH1 0x80 DUP4 ADD MLOAD PUSH2 0x3152 PUSH1 0x80 DUP7 ADD DUP3 PUSH2 0x31FD JUMP JUMPDEST POP PUSH1 0xA0 DUP4 ADD MLOAD PUSH2 0x3165 PUSH1 0xA0 DUP7 ADD DUP3 PUSH2 0x31FD JUMP JUMPDEST POP PUSH1 0xC0 DUP4 ADD MLOAD PUSH2 0x3178 PUSH1 0xC0 DUP7 ADD DUP3 PUSH2 0x31FD JUMP JUMPDEST POP PUSH1 0xE0 DUP4 ADD MLOAD PUSH2 0x318B PUSH1 0xE0 DUP7 ADD DUP3 PUSH2 0x31FD JUMP JUMPDEST POP PUSH2 0x100 DUP4 ADD MLOAD PUSH2 0x31A0 PUSH2 0x100 DUP7 ADD DUP3 PUSH2 0x31FD JUMP JUMPDEST POP PUSH2 0x120 DUP4 ADD MLOAD PUSH2 0x31B5 PUSH2 0x120 DUP7 ADD DUP3 PUSH2 0x31FD JUMP JUMPDEST POP PUSH2 0x140 DUP4 ADD MLOAD DUP5 DUP3 SUB PUSH2 0x140 DUP7 ADD MSTORE PUSH2 0x31CF DUP3 DUP3 PUSH2 0x2D74 JUMP JUMPDEST SWAP2 POP POP PUSH2 0x160 DUP4 ADD MLOAD DUP5 DUP3 SUB PUSH2 0x160 DUP7 ADD MSTORE PUSH2 0x31EB DUP3 DUP3 PUSH2 0x2D74 JUMP JUMPDEST SWAP6 SWAP5 POP POP POP POP POP JUMP JUMPDEST PUSH2 0x2C4C DUP2 PUSH2 0x34EF JUMP JUMPDEST PUSH2 0x2C4C DUP2 PUSH2 0x34F6 JUMP JUMPDEST PUSH1 0x20 DUP2 ADD PUSH2 0x10AE DUP3 DUP5 PUSH2 0x2C43 JUMP JUMPDEST PUSH1 0x80 DUP2 ADD PUSH2 0x3222 DUP3 DUP8 PUSH2 0x2C43 JUMP JUMPDEST PUSH2 0x322F PUSH1 0x20 DUP4 ADD DUP7 PUSH2 0x2C43 JUMP JUMPDEST PUSH2 0x323C PUSH1 0x40 DUP4 ADD DUP6 PUSH2 0x31FD JUMP JUMPDEST DUP2 DUP2 SUB PUSH1 0x60 DUP4 ADD MSTORE PUSH2 0x324E DUP2 DUP5 PUSH2 0x2D74 JUMP JUMPDEST SWAP7 SWAP6 POP POP POP POP POP POP JUMP JUMPDEST PUSH1 0x40 DUP2 ADD PUSH2 0x3266 DUP3 DUP6 PUSH2 0x2C43 JUMP JUMPDEST PUSH2 0xC45 PUSH1 0x20 DUP4 ADD DUP5 PUSH2 0x31FD JUMP JUMPDEST PUSH1 0x60 DUP1 DUP3 MSTORE DUP2 ADD PUSH2 0x3284 DUP2 DUP7 PUSH2 0x2CB9 JUMP JUMPDEST SWAP1 POP DUP2 DUP2 SUB PUSH1 0x20 DUP4 ADD MSTORE PUSH2 0x3298 DUP2 DUP6 PUSH2 0x2D14 JUMP JUMPDEST SWAP1 POP DUP2 DUP2 SUB PUSH1 0x40 DUP4 ADD MSTORE PUSH2 0x31EB DUP2 DUP5 PUSH2 0x2C52 JUMP JUMPDEST PUSH1 0x60 DUP1 DUP3 MSTORE DUP2 ADD PUSH2 0x32BD DUP2 DUP7 PUSH2 0x2CB9 JUMP JUMPDEST SWAP1 POP PUSH2 0x32CC PUSH1 0x20 DUP4 ADD DUP6 PUSH2 0x31FD JUMP JUMPDEST DUP2 DUP2 SUB PUSH1 0x40 DUP4 ADD MSTORE PUSH2 0x31EB DUP2 DUP5 PUSH2 0x2C52 JUMP JUMPDEST PUSH1 0x20 DUP2 ADD PUSH2 0x10AE DUP3 DUP5 PUSH2 0x2D6B JUMP JUMPDEST PUSH1 0x20 DUP1 DUP3 MSTORE DUP2 ADD PUSH2 0x10AE DUP2 PUSH2 0x2DA9 JUMP JUMPDEST PUSH1 0x20 DUP1 DUP3 MSTORE DUP2 ADD PUSH2 0x10AE DUP2 PUSH2 0x2DFF JUMP JUMPDEST PUSH1 0x20 DUP1 DUP3 MSTORE DUP2 ADD PUSH2 0x10AE DUP2 PUSH2 0x2E2F JUMP JUMPDEST PUSH1 0x20 DUP1 DUP3 MSTORE DUP2 ADD PUSH2 0x10AE DUP2 PUSH2 0x2E85 JUMP JUMPDEST PUSH1 0x20 DUP1 DUP3 MSTORE DUP2 ADD PUSH2 0x10AE DUP2 PUSH2 0x2EB5 JUMP JUMPDEST PUSH1 0x20 DUP1 DUP3 MSTORE DUP2 ADD PUSH2 0x10AE DUP2 PUSH2 0x2F0B JUMP JUMPDEST PUSH1 0x20 DUP1 DUP3 MSTORE DUP2 ADD PUSH2 0x10AE DUP2 PUSH2 0x2F3B JUMP JUMPDEST PUSH1 0x20 DUP1 DUP3 MSTORE DUP2 ADD PUSH2 0x10AE DUP2 PUSH2 0x2F6B JUMP JUMPDEST PUSH1 0x20 DUP1 DUP3 MSTORE DUP2 ADD PUSH2 0x10AE DUP2 PUSH2 0x2F9B JUMP JUMPDEST PUSH1 0x20 DUP1 DUP3 MSTORE DUP2 ADD PUSH2 0x10AE DUP2 PUSH2 0x2FCB JUMP JUMPDEST PUSH1 0x20 DUP1 DUP3 MSTORE DUP2 ADD PUSH2 0x10AE DUP2 PUSH2 0x3021 JUMP JUMPDEST PUSH1 0x20 DUP1 DUP3 MSTORE DUP2 ADD PUSH2 0x10AE DUP2 PUSH2 0x3051 JUMP JUMPDEST PUSH1 0x80 DUP2 ADD PUSH2 0x10AE DUP3 DUP5 PUSH2 0x30A7 JUMP JUMPDEST PUSH1 0x20 DUP1 DUP3 MSTORE DUP2 ADD PUSH2 0xC45 DUP2 DUP5 PUSH2 0x30F1 JUMP JUMPDEST PUSH1 0x60 DUP1 DUP3 MSTORE DUP2 ADD PUSH2 0x33DC DUP2 DUP7 PUSH2 0x30F1 JUMP JUMPDEST SWAP1 POP PUSH2 0x33EB PUSH1 0x20 DUP4 ADD DUP6 PUSH2 0x31FD JUMP JUMPDEST DUP2 DUP2 SUB PUSH1 0x40 DUP4 ADD MSTORE PUSH2 0x31EB DUP2 DUP5 PUSH2 0x2D74 JUMP JUMPDEST PUSH1 0x20 DUP2 ADD PUSH2 0x10AE DUP3 DUP5 PUSH2 0x31F4 JUMP JUMPDEST PUSH1 0x20 DUP2 ADD PUSH2 0x10AE DUP3 DUP5 PUSH2 0x31FD JUMP JUMPDEST PUSH1 0x40 MLOAD DUP2 DUP2 ADD PUSH8 0xFFFFFFFFFFFFFFFF DUP2 GT DUP3 DUP3 LT OR ISZERO PUSH2 0x3438 JUMPI PUSH1 0x0 DUP1 REVERT JUMPDEST PUSH1 0x40 MSTORE SWAP2 SWAP1 POP JUMP JUMPDEST PUSH1 0x0 PUSH8 0xFFFFFFFFFFFFFFFF DUP3 GT ISZERO PUSH2 0x3457 JUMPI PUSH1 0x0 DUP1 REVERT JUMPDEST POP PUSH1 0x20 SWAP1 DUP2 MUL ADD SWAP1 JUMP JUMPDEST PUSH1 0x0 PUSH8 0xFFFFFFFFFFFFFFFF DUP3 GT ISZERO PUSH2 0x3478 JUMPI PUSH1 0x0 DUP1 REVERT JUMPDEST POP PUSH1 0x20 PUSH1 0x1F SWAP2 SWAP1 SWAP2 ADD PUSH32 0xFFFFFFFFFFFFFFFFFFFFFFFFFFFFFFFFFFFFFFFFFFFFFFFFFFFFFFFFFFFFFFE0 AND ADD SWAP1 JUMP JUMPDEST PUSH1 0x20 ADD SWAP1 JUMP JUMPDEST MLOAD SWAP1 JUMP JUMPDEST PUSH20 0xFFFFFFFFFFFFFFFFFFFFFFFFFFFFFFFFFFFFFFFF AND SWAP1 JUMP JUMPDEST PUSH32 0xFFFFFFFF00000000000000000000000000000000000000000000000000000000 AND SWAP1 JUMP JUMPDEST PUSH2 0xFFFF AND SWAP1 JUMP JUMPDEST SWAP1 JUMP JUMPDEST ISZERO ISZERO SWAP1 JUMP JUMPDEST PUSH1 0xFF AND SWAP1 JUMP JUMPDEST DUP3 DUP2 DUP4 CALLDATACOPY POP PUSH1 0x0 SWAP2 ADD MSTORE JUMP JUMPDEST PUSH1 0x0 JUMPDEST DUP4 DUP2 LT ISZERO PUSH2 0x352B JUMPI DUP2 DUP2 ADD MLOAD DUP4 DUP3 ADD MSTORE PUSH1 0x20 ADD PUSH2 0x3513 JUMP JUMPDEST DUP4 DUP2 GT ISZERO PUSH2 0x158B JUMPI POP POP PUSH1 0x0 SWAP2 ADD MSTORE JUMP JUMPDEST PUSH1 0x1F ADD PUSH32 0xFFFFFFFFFFFFFFFFFFFFFFFFFFFFFFFFFFFFFFFFFFFFFFFFFFFFFFFFFFFFFFE0 AND SWAP1 JUMP STOP LOG2 PUSH6 0x627A7A723058 KECCAK256 PUSH24 0x97C5E4E7170C401C509A807353C0A60AD36B6F14CF1A605D 0xde 0xbb 0xbf SIGNEXTEND PUSH29 0xE3C36C6578706572696D656E74616CF500370000000000000000000000 "
			}
		}
	},
	"sourceTreeHashHex": "0x438775ab24f436321a39dfefe1ed794909a32cf6baf3086f9de3356a5d6ab47b",
	"compiler": {
		"name": "solc",
		"version": "soljson-v0.4.24+commit.e67f0147.js",
		"settings": {
			"optimizer": {
				"enabled": true,
				"runs": 1000000
			},
			"outputSelection": {
				"*": {
					"*": [
						"abi",
						"evm.bytecode.object",
						"evm.bytecode.sourceMap",
						"evm.deployedBytecode.object",
						"evm.deployedBytecode.sourceMap"
					]
				}
			}
		}
	}
}