{
	"schemaVersion": "2.0.0",
	"contractName": "Forwarder",
	"compilerOutput": {
		"abi": [
			{
				"constant": true,
				"inputs": [
					{
						"components": [
							{
								"name": "makerAddress",
								"type": "address"
							},
							{
								"name": "takerAddress",
								"type": "address"
							},
							{
								"name": "feeRecipientAddress",
								"type": "address"
							},
							{
								"name": "senderAddress",
								"type": "address"
							},
							{
								"name": "makerAssetAmount",
								"type": "uint256"
							},
							{
								"name": "takerAssetAmount",
								"type": "uint256"
							},
							{
								"name": "makerFee",
								"type": "uint256"
							},
							{
								"name": "takerFee",
								"type": "uint256"
							},
							{
								"name": "expirationTimeSeconds",
								"type": "uint256"
							},
							{
								"name": "salt",
								"type": "uint256"
							},
							{
								"name": "makerAssetData",
								"type": "bytes"
							},
							{
								"name": "takerAssetData",
								"type": "bytes"
							}
						],
						"name": "orders",
						"type": "tuple[]"
					},
					{
						"name": "makerAssetFillAmount",
						"type": "uint256"
					}
				],
				"name": "calculateMarketBuyFillResults",
				"outputs": [
					{
						"components": [
							{
								"name": "makerAssetFilledAmount",
								"type": "uint256"
							},
							{
								"name": "takerAssetFilledAmount",
								"type": "uint256"
							},
							{
								"name": "makerFeePaid",
								"type": "uint256"
							},
							{
								"name": "takerFeePaid",
								"type": "uint256"
							}
						],
						"name": "totalFillResults",
						"type": "tuple"
					}
				],
				"payable": false,
				"stateMutability": "view",
				"type": "function"
			},
			{
				"constant": true,
				"inputs": [],
				"name": "ALLOWABLE_EXCHANGE_PERCENTAGE",
				"outputs": [
					{
						"name": "",
						"type": "uint16"
					}
				],
				"payable": false,
				"stateMutability": "view",
				"type": "function"
			},
			{
				"constant": true,
				"inputs": [],
				"name": "EIP712_DOMAIN_SEPARATOR_SCHEMA_HASH",
				"outputs": [
					{
						"name": "",
						"type": "bytes32"
					}
				],
				"payable": false,
				"stateMutability": "view",
				"type": "function"
			},
			{
				"constant": true,
				"inputs": [
					{
						"components": [
							{
								"name": "makerAddress",
								"type": "address"
							},
							{
								"name": "takerAddress",
								"type": "address"
							},
							{
								"name": "feeRecipientAddress",
								"type": "address"
							},
							{
								"name": "senderAddress",
								"type": "address"
							},
							{
								"name": "makerAssetAmount",
								"type": "uint256"
							},
							{
								"name": "takerAssetAmount",
								"type": "uint256"
							},
							{
								"name": "makerFee",
								"type": "uint256"
							},
							{
								"name": "takerFee",
								"type": "uint256"
							},
							{
								"name": "expirationTimeSeconds",
								"type": "uint256"
							},
							{
								"name": "salt",
								"type": "uint256"
							},
							{
								"name": "makerAssetData",
								"type": "bytes"
							},
							{
								"name": "takerAssetData",
								"type": "bytes"
							}
						],
						"name": "order",
						"type": "tuple"
					},
					{
						"name": "takerAssetFillAmount",
						"type": "uint256"
					}
				],
				"name": "calculateFillOrderFillResults",
				"outputs": [
					{
						"components": [
							{
								"name": "makerAssetFilledAmount",
								"type": "uint256"
							},
							{
								"name": "takerAssetFilledAmount",
								"type": "uint256"
							},
							{
								"name": "makerFeePaid",
								"type": "uint256"
							},
							{
								"name": "takerFeePaid",
								"type": "uint256"
							}
						],
						"name": "fillResults",
						"type": "tuple"
					}
				],
				"payable": false,
				"stateMutability": "view",
				"type": "function"
			},
			{
				"constant": false,
				"inputs": [
					{
						"components": [
							{
								"name": "makerAddress",
								"type": "address"
							},
							{
								"name": "takerAddress",
								"type": "address"
							},
							{
								"name": "feeRecipientAddress",
								"type": "address"
							},
							{
								"name": "senderAddress",
								"type": "address"
							},
							{
								"name": "makerAssetAmount",
								"type": "uint256"
							},
							{
								"name": "takerAssetAmount",
								"type": "uint256"
							},
							{
								"name": "makerFee",
								"type": "uint256"
							},
							{
								"name": "takerFee",
								"type": "uint256"
							},
							{
								"name": "expirationTimeSeconds",
								"type": "uint256"
							},
							{
								"name": "salt",
								"type": "uint256"
							},
							{
								"name": "makerAssetData",
								"type": "bytes"
							},
							{
								"name": "takerAssetData",
								"type": "bytes"
							}
						],
						"name": "orders",
						"type": "tuple[]"
					},
					{
						"name": "signatures",
						"type": "bytes[]"
					},
					{
						"components": [
							{
								"name": "makerAddress",
								"type": "address"
							},
							{
								"name": "takerAddress",
								"type": "address"
							},
							{
								"name": "feeRecipientAddress",
								"type": "address"
							},
							{
								"name": "senderAddress",
								"type": "address"
							},
							{
								"name": "makerAssetAmount",
								"type": "uint256"
							},
							{
								"name": "takerAssetAmount",
								"type": "uint256"
							},
							{
								"name": "makerFee",
								"type": "uint256"
							},
							{
								"name": "takerFee",
								"type": "uint256"
							},
							{
								"name": "expirationTimeSeconds",
								"type": "uint256"
							},
							{
								"name": "salt",
								"type": "uint256"
							},
							{
								"name": "makerAssetData",
								"type": "bytes"
							},
							{
								"name": "takerAssetData",
								"type": "bytes"
							}
						],
						"name": "feeOrders",
						"type": "tuple[]"
					},
					{
						"name": "feeSignatures",
						"type": "bytes[]"
					},
					{
						"name": "feeProportion",
						"type": "uint16"
					},
					{
						"name": "feeRecipient",
						"type": "address"
					}
				],
				"name": "marketBuyTokens",
				"outputs": [
					{
						"components": [
							{
								"name": "makerAssetFilledAmount",
								"type": "uint256"
							},
							{
								"name": "takerAssetFilledAmount",
								"type": "uint256"
							},
							{
								"name": "makerFeePaid",
								"type": "uint256"
							},
							{
								"name": "takerFeePaid",
								"type": "uint256"
							}
						],
						"name": "totalFillResults",
						"type": "tuple"
					}
				],
				"payable": true,
				"stateMutability": "payable",
				"type": "function"
			},
			{
				"constant": true,
				"inputs": [],
				"name": "owner",
				"outputs": [
					{
						"name": "",
						"type": "address"
					}
				],
				"payable": false,
				"stateMutability": "view",
				"type": "function"
			},
			{
				"constant": true,
				"inputs": [],
				"name": "ERC20_PROXY_ID",
				"outputs": [
					{
						"name": "",
						"type": "bytes4"
					}
				],
				"payable": false,
				"stateMutability": "view",
				"type": "function"
			},
			{
				"constant": false,
				"inputs": [
					{
						"components": [
							{
								"name": "makerAddress",
								"type": "address"
							},
							{
								"name": "takerAddress",
								"type": "address"
							},
							{
								"name": "feeRecipientAddress",
								"type": "address"
							},
							{
								"name": "senderAddress",
								"type": "address"
							},
							{
								"name": "makerAssetAmount",
								"type": "uint256"
							},
							{
								"name": "takerAssetAmount",
								"type": "uint256"
							},
							{
								"name": "makerFee",
								"type": "uint256"
							},
							{
								"name": "takerFee",
								"type": "uint256"
							},
							{
								"name": "expirationTimeSeconds",
								"type": "uint256"
							},
							{
								"name": "salt",
								"type": "uint256"
							},
							{
								"name": "makerAssetData",
								"type": "bytes"
							},
							{
								"name": "takerAssetData",
								"type": "bytes"
							}
						],
						"name": "orders",
						"type": "tuple[]"
					},
					{
						"name": "signatures",
						"type": "bytes[]"
					},
					{
						"components": [
							{
								"name": "makerAddress",
								"type": "address"
							},
							{
								"name": "takerAddress",
								"type": "address"
							},
							{
								"name": "feeRecipientAddress",
								"type": "address"
							},
							{
								"name": "senderAddress",
								"type": "address"
							},
							{
								"name": "makerAssetAmount",
								"type": "uint256"
							},
							{
								"name": "takerAssetAmount",
								"type": "uint256"
							},
							{
								"name": "makerFee",
								"type": "uint256"
							},
							{
								"name": "takerFee",
								"type": "uint256"
							},
							{
								"name": "expirationTimeSeconds",
								"type": "uint256"
							},
							{
								"name": "salt",
								"type": "uint256"
							},
							{
								"name": "makerAssetData",
								"type": "bytes"
							},
							{
								"name": "takerAssetData",
								"type": "bytes"
							}
						],
						"name": "feeOrders",
						"type": "tuple[]"
					},
					{
						"name": "feeSignatures",
						"type": "bytes[]"
					},
					{
						"name": "makerAssetAmount",
						"type": "uint256"
					},
					{
						"name": "feeProportion",
						"type": "uint16"
					},
					{
						"name": "feeRecipient",
						"type": "address"
					}
				],
				"name": "buyExactAssets",
				"outputs": [
					{
						"components": [
							{
								"name": "makerAssetFilledAmount",
								"type": "uint256"
							},
							{
								"name": "takerAssetFilledAmount",
								"type": "uint256"
							},
							{
								"name": "makerFeePaid",
								"type": "uint256"
							},
							{
								"name": "takerFeePaid",
								"type": "uint256"
							}
						],
						"name": "totalFillResults",
						"type": "tuple"
					}
				],
				"payable": true,
				"stateMutability": "payable",
				"type": "function"
			},
			{
				"constant": true,
				"inputs": [],
				"name": "ERC721_PROXY_ID",
				"outputs": [
					{
						"name": "",
						"type": "bytes4"
					}
				],
				"payable": false,
				"stateMutability": "view",
				"type": "function"
			},
			{
				"constant": true,
				"inputs": [],
				"name": "PERCENTAGE_DENOMINATOR",
				"outputs": [
					{
						"name": "",
						"type": "uint16"
					}
				],
				"payable": false,
				"stateMutability": "view",
				"type": "function"
			},
			{
				"constant": true,
				"inputs": [],
				"name": "MAX_FEE",
				"outputs": [
					{
						"name": "",
						"type": "uint16"
					}
				],
				"payable": false,
				"stateMutability": "view",
				"type": "function"
			},
			{
				"constant": true,
				"inputs": [
					{
						"components": [
							{
								"name": "makerAddress",
								"type": "address"
							},
							{
								"name": "takerAddress",
								"type": "address"
							},
							{
								"name": "feeRecipientAddress",
								"type": "address"
							},
							{
								"name": "senderAddress",
								"type": "address"
							},
							{
								"name": "makerAssetAmount",
								"type": "uint256"
							},
							{
								"name": "takerAssetAmount",
								"type": "uint256"
							},
							{
								"name": "makerFee",
								"type": "uint256"
							},
							{
								"name": "takerFee",
								"type": "uint256"
							},
							{
								"name": "expirationTimeSeconds",
								"type": "uint256"
							},
							{
								"name": "salt",
								"type": "uint256"
							},
							{
								"name": "makerAssetData",
								"type": "bytes"
							},
							{
								"name": "takerAssetData",
								"type": "bytes"
							}
						],
						"name": "orders",
						"type": "tuple[]"
					},
					{
						"name": "zrxAmount",
						"type": "uint256"
					}
				],
				"name": "calculateBuyFeesFillResults",
				"outputs": [
					{
						"components": [
							{
								"name": "makerAssetFilledAmount",
								"type": "uint256"
							},
							{
								"name": "takerAssetFilledAmount",
								"type": "uint256"
							},
							{
								"name": "makerFeePaid",
								"type": "uint256"
							},
							{
								"name": "takerFeePaid",
								"type": "uint256"
							}
						],
						"name": "totalFillResults",
						"type": "tuple"
					}
				],
				"payable": false,
				"stateMutability": "view",
				"type": "function"
			},
			{
				"constant": true,
				"inputs": [],
				"name": "EIP712_DOMAIN_HASH",
				"outputs": [
					{
						"name": "",
						"type": "bytes32"
					}
				],
				"payable": false,
				"stateMutability": "view",
				"type": "function"
			},
			{
				"constant": true,
				"inputs": [
					{
						"name": "",
						"type": "address"
					},
					{
						"name": "",
						"type": "uint256"
					},
					{
						"name": "",
						"type": "bytes"
					}
				],
				"name": "onERC721Received",
				"outputs": [
					{
						"name": "",
						"type": "bytes4"
					}
				],
				"payable": false,
				"stateMutability": "pure",
				"type": "function"
			},
			{
				"constant": false,
				"inputs": [
					{
						"name": "erc20AssetProxyId",
						"type": "bytes4"
					}
				],
				"name": "setERC20ProxyApproval",
				"outputs": [],
				"payable": false,
				"stateMutability": "nonpayable",
				"type": "function"
			},
			{
				"constant": false,
				"inputs": [
					{
						"name": "newOwner",
						"type": "address"
					}
				],
				"name": "transferOwnership",
				"outputs": [],
				"payable": false,
				"stateMutability": "nonpayable",
				"type": "function"
			},
			{
				"inputs": [
					{
						"name": "_exchange",
						"type": "address"
					},
					{
						"name": "_etherToken",
						"type": "address"
					},
					{
						"name": "_zrxToken",
						"type": "address"
					},
					{
						"name": "_erc20AssetProxyId",
						"type": "bytes4"
					},
					{
						"name": "_zrxAssetData",
						"type": "bytes"
					},
					{
						"name": "_wethAssetData",
						"type": "bytes"
					}
				],
				"payable": false,
				"stateMutability": "nonpayable",
				"type": "constructor"
			},
			{
				"payable": true,
				"stateMutability": "payable",
				"type": "fallback"
			}
		],
		"evm": {
			"bytecode": {
				"linkReferences": {},
				"object": "0x60806040523480156200001157600080fd5b5060405162003f4138038062003f41833981018060405262000037919081019062000774565b60008054600160a060020a03191633179055604080517f454950373132446f6d61696e28000000000000000000000000000000000000006020808301919091527f737472696e67206e616d652c0000000000000000000000000000000000000000602d8301527f737472696e672076657273696f6e2c000000000000000000000000000000000060398301527f6164647265737320766572696679696e67436f6e74726163740000000000000060488301527f2900000000000000000000000000000000000000000000000000000000000000606183015282516042818403018152606290920192839052815191929182918401908083835b60208310620001515780518252601f19909201916020918201910162000130565b51815160209384036101000a6000190180199092169116179052604080519290940182900382208285018552600b8084527f30782050726f746f636f6c000000000000000000000000000000000000000000928401928352945190965091945090928392508083835b60208310620001db5780518252601f199092019160209182019101620001ba565b51815160209384036101000a600019018019909216911617905260408051929094018290038220828501855260018084527f3200000000000000000000000000000000000000000000000000000000000000928401928352945190965091945090928392508083835b60208310620002655780518252601f19909201916020918201910162000244565b51815160209384036101000a6000190180199092169116179052604051919093018190038120620002a09796955093503092019050620008ae565b6040516020818303038152906040526040518082805190602001908083835b60208310620002e05780518252601f199092019160209182019101620002bf565b51815160209384036101000a60001901801990921691161790526040519190930181900390206001555060028054600160a060020a0319908116600160a060020a038c8116919091179092556005805482168b84161790556006805490911691891691909117905584516200035e93506003925090850190620005ea565b50805162000374906004906020840190620005ea565b50620003898364010000000062000395810204565b505050505050620009e1565b60008054600160a060020a03163314620003e6576040517f08c379a0000000000000000000000000000000000000000000000000000000008152600401620003dd906200090a565b60405180910390fd5b6002546040517f60704108000000000000000000000000000000000000000000000000000000008152600160a060020a039091169063607041089062000431908590600401620008f4565b602060405180830381600087803b1580156200044c57600080fd5b505af115801562000461573d6000803e3d6000fd5b505050506040513d601f19601f820116820180604052506200048791908101906200072a565b9050600160a060020a03811615620005e6576005546040517f095ea7b3000000000000000000000000000000000000000000000000000000008152600160a060020a039091169063095ea7b390620004e8908490600019906004016200088f565b602060405180830381600087803b1580156200050357600080fd5b505af115801562000518573d6000803e3d6000fd5b505050506040513d601f19601f820116820180604052506200053e919081019062000753565b506006546040517f095ea7b3000000000000000000000000000000000000000000000000000000008152600160a060020a039091169063095ea7b3906200058e908490600019906004016200088f565b602060405180830381600087803b158015620005a957600080fd5b505af1158015620005be573d6000803e3d6000fd5b505050506040513d601f19601f82011682018060405250620005e4919081019062000753565b505b5050565b828054600181600116156101000203166002900490600052602060002090601f016020900481019282601f106200062d57805160ff19168380011785556200065d565b828001600101855582156200065d579182015b828111156200065d57825182559160200191906001019062000640565b506200066b9291506200066f565b5090565b6200068c91905b808211156200066b576000815560010162000676565b90565b60006200069d82516200096b565b9392505050565b60006200069d82516200099c565b60006200069d825162000977565b6000601f82018313620006d257600080fd5b8151620006e9620006e38262000943565b6200091c565b915080825260208301602083018583830111156200070657600080fd5b62000713838284620009ae565b50505092915050565b60006200069d8251620009a1565b6000602082840312156200073d57600080fd5b60006200074b84846200068f565b949350505050565b6000602082840312156200076657600080fd5b60006200074b8484620006a4565b60008060008060008060c087890312156200078e57600080fd5b60006200079c89896200071c565b9650506020620007af89828a016200071c565b9550506040620007c289828a016200071c565b9450506060620007d589828a01620006b2565b93505060808701516001604060020a03811115620007f257600080fd5b6200080089828a01620006c0565b92505060a08701516001604060020a038111156200081d57600080fd5b6200082b89828a01620006c0565b9150509295509295509295565b62000843816200096b565b82525050565b62000843816200068c565b620008438162000977565b601381527f4f4e4c595f434f4e54524143545f4f574e455200000000000000000000000000602082015260400190565b604081016200089f828562000838565b6200069d602083018462000849565b60808101620008be828762000849565b620008cd602083018662000849565b620008dc604083018562000849565b620008eb606083018462000838565b95945050505050565b6020810162000904828462000854565b92915050565b6020808252810162000904816200085f565b6040518181016001604060020a03811182821017156200093b57600080fd5b604052919050565b60006001604060020a038211156200095a57600080fd5b506020601f91909101601f19160190565b600160a060020a031690565b7fffffffff000000000000000000000000000000000000000000000000000000001690565b151590565b600062000904826200096b565b60005b83811015620009cb578181015183820152602001620009b1565b83811115620009db576000848401525b50505050565b61355080620009f16000396000f3006080604052600436106100e55763ffffffff7c01000000000000000000000000000000000000000000000000000000006000350416631b67ad7781146101a057806320472cf7146101d65780632624b2d9146101f85780634a23b67b1461021a5780638a637f3d1461023a5780638da5cb5b1461024d5780638ee1a6421461026f5780638fbb3ea614610291578063a28fe02e146102a4578063b3cd4254146102b9578063bc063e1a146102ce578063d3df5f2d146102e3578063e306f77914610303578063f0b9e5ba14610318578063f2afd85a14610338578063f2fde38b1461035a575b60055460408051606081018252602381527f44454641554c545f46554e4354494f4e5f574554485f434f4e54524143545f4f60208201527f4e4c590000000000000000000000000000000000000000000000000000000000918101919091529073ffffffffffffffffffffffffffffffffffffffff16331461019d576040517f08c379a00000000000000000000000000000000000000000000000000000000081526004016101949190613302565b60405180910390fd5b50005b3480156101ac57600080fd5b506101c06101bb366004612ce0565b61037a565b6040516101cd9190613363565b60405180910390f35b3480156101e257600080fd5b506101eb610440565b6040516101cd91906133c3565b34801561020457600080fd5b5061020d610446565b6040516101cd91906132e6565b34801561022657600080fd5b506101c0610235366004612d8b565b61059a565b6101c0610248366004612aff565b610655565b34801561025957600080fd5b50610262610946565b6040516101cd919061320e565b34801561027b57600080fd5b50610284610962565b6040516101cd91906132f4565b6101c061029f366004612be5565b610997565b3480156102b057600080fd5b50610284610de1565b3480156102c557600080fd5b506101eb610e3c565b3480156102da57600080fd5b506101eb610e42565b3480156102ef57600080fd5b506101c06102fe366004612ce0565b610e48565b34801561030f57600080fd5b5061020d610feb565b34801561032457600080fd5b50610284610333366004612a9a565b610ff1565b34801561034457600080fd5b50610358610353366004612d4f565b61101a565b005b34801561036657600080fd5b50610358610375366004612a5e565b6112cd565b610382612724565b600080600061038f612724565b600093505b8651841015610436576103ab86866000015161137e565b92506103ee87858151811015156103be57fe5b9060200190602002015160a0015188868151811015156103da57fe5b906020019060200201516080015185611390565b9150610411878581518110151561040157fe5b906020019060200201518361059a565b905061041d85826113ad565b845186141561042b57610436565b600190930192610394565b5050505092915050565b61251c81565b604080517f454950373132446f6d61696e28000000000000000000000000000000000000006020808301919091527f737472696e67206e616d652c0000000000000000000000000000000000000000602d8301527f737472696e672076657273696f6e2c000000000000000000000000000000000060398301527f6164647265737320766572696679696e67436f6e74726163740000000000000060488301527f2900000000000000000000000000000000000000000000000000000000000000606183015282516042818403018152606290920192839052815191929182918401908083835b6020831061056a57805182527fffffffffffffffffffffffffffffffffffffffffffffffffffffffffffffffe0909201916020918201910161052d565b6001836020036101000a038019825116818451168082178552505050505050905001915050604051809103902081565b6105a2612724565b6002546040517fad1876b500000000000000000000000000000000000000000000000000000000815273ffffffffffffffffffffffffffffffffffffffff9091169063ad1876b5906105fa9086908690600401613371565b608060405180830381600087803b15801561061457600080fd5b505af1158015610628573d6000803e3d6000fd5b505050506040513d601f19601f8201168201806040525061064c9190810190612d6d565b90505b92915050565b61065d612724565b60408051808201909152601781527f56414c55455f475245415445525f5448414e5f5a45524f000000000000000000602082015260009081903482106106d0576040517f08c379a00000000000000000000000000000000000000000000000000000000081526004016101949190613302565b506106dc34868661140f565b9150600560009054906101000a900473ffffffffffffffffffffffffffffffffffffffff1673ffffffffffffffffffffffffffffffffffffffff1663d0e30db0836040518263ffffffff167c01000000000000000000000000000000000000000000000000000000000281526004016000604051808303818588803b15801561076457600080fd5b505af1158015610778573d6000803e3d6000fd5b50505050506107a589600081518110151561078f57fe5b906020019060200201516101400151601061152a565b60048054604080516020601f60027fffffffffffffffffffffffffffffffffffffffffffffffffffffffffffffffff610100600188161502019095169490940493840181900481028201810190925282815293945083018282801561084b5780601f106108205761010080835404028352916020019161084b565b820191906000526020600020905b81548152906001019060200180831161082e57829003601f168201915b505050505089600081518110151561085f57fe5b60209081029091010151610160015260065473ffffffffffffffffffffffffffffffffffffffff828116911614156108a35761089c89898461158b565b92506108b3565b6108b089898989866116dc565b92505b826020015182146040805190810160405280601681526020017f554e41434345505441424c455f5448524553484f4c440000000000000000000081525090151561092a576040517f08c379a00000000000000000000000000000000000000000000000000000000081526004016101949190613302565b5061093a8133856000015161189b565b50509695505050505050565b60005473ffffffffffffffffffffffffffffffffffffffff1681565b604080517f4552433230546f6b656e286164647265737329000000000000000000000000008152905190819003601301902081565b61099f612724565b60408051808201909152601781527f56414c55455f475245415445525f5448414e5f5a45524f00000000000000000060208201526000908190348210610a12576040517f08c379a00000000000000000000000000000000000000000000000000000000081526004016101949190613302565b50349150610a3e8a6000815181101515610a2857fe5b90602001906020020151610140015160006119b5565b604080517f4552433230546f6b656e28616464726573732900000000000000000000000000815290519081900360130190209091507fffffffff0000000000000000000000000000000000000000000000000000000080831691161480610b205750604080517f455243373231546f6b656e28616464726573732c75696e743235362c6279746581527f7329000000000000000000000000000000000000000000000000000000000000602082015290519081900360220190207fffffffff000000000000000000000000000000000000000000000000000000008281169116145b60408051808201909152601781527f554e535550504f525445445f544f4b454e5f50524f58590000000000000000006020820152901515610b8e576040517f08c379a00000000000000000000000000000000000000000000000000000000081526004016101949190613302565b50600560009054906101000a900473ffffffffffffffffffffffffffffffffffffffff1673ffffffffffffffffffffffffffffffffffffffff1663d0e30db0836040518263ffffffff167c01000000000000000000000000000000000000000000000000000000000281526004016000604051808303818588803b158015610c1557600080fd5b505af1158015610c29573d6000803e3d6000fd5b5050604080517f4552433230546f6b656e28616464726573732900000000000000000000000000815290519081900360130190207fffffffff00000000000000000000000000000000000000000000000000000000858116911614159250610ca291505057610c9b8a8a8a8a8a611a22565b9250610d36565b604080517f455243373231546f6b656e28616464726573732c75696e743235362c6279746581527f7329000000000000000000000000000000000000000000000000000000000000602082015290519081900360220190207fffffffff0000000000000000000000000000000000000000000000000000000082811691161415610d3657610d338a8a8a8a8a611d3e565b92505b610d4482846020015161137e565b9150610d548284602001516120ce565b60408051808201909152601681527f554e41434345505441424c455f5448524553484f4c44000000000000000000006020820152901515610dc2576040517f08c379a00000000000000000000000000000000000000000000000000000000081526004016101949190613302565b50610dd382846020015187876120eb565b505050979650505050505050565b604080517f455243373231546f6b656e28616464726573732c75696e743235362c6279746581527f73290000000000000000000000000000000000000000000000000000000000006020820152905190819003602201902081565b61271081565b6103e881565b610e50612724565b600080600080610e5e612724565b610e7088600081518110151561078f57fe5b60065460408051808201909152601881527f54414b45525f41535345545f5a52585f52455155495245440000000000000000602082015291965073ffffffffffffffffffffffffffffffffffffffff808816911614610efc576040517f08c379a00000000000000000000000000000000000000000000000000000000081526004016101949190613302565b50600093505b8751841015610fe057610f1987876000015161137e565b9250610f808885815181101515610f2c57fe5b9060200190602002015160a00151610f7a8a87815181101515610f4b57fe5b90602001906020020151608001518b88815181101515610f6757fe5b9060200190602002015160e0015161137e565b85611390565b9150610fa88885815181101515610f9357fe5b906020019060200201516102358460016121e5565b9050610fbc8160000151826060015161137e565b8152610fc886826113ad565b85518711610fd557610fe0565b600190930192610f02565b505050505092915050565b60015481565b7ff0b9e5ba000000000000000000000000000000000000000000000000000000005b9392505050565b6000805473ffffffffffffffffffffffffffffffffffffffff16331461106c576040517f08c379a000000000000000000000000000000000000000000000000000000000815260040161019490613333565b6002546040517f6070410800000000000000000000000000000000000000000000000000000000815273ffffffffffffffffffffffffffffffffffffffff909116906360704108906110c29085906004016132f4565b602060405180830381600087803b1580156110dc57600080fd5b505af11580156110f0573d6000803e3d6000fd5b505050506040513d601f19601f820116820180604052506111149190810190612a7c565b905073ffffffffffffffffffffffffffffffffffffffff8116156112c9576005546040517f095ea7b300000000000000000000000000000000000000000000000000000000815273ffffffffffffffffffffffffffffffffffffffff9091169063095ea7b3906111aa9084907fffffffffffffffffffffffffffffffffffffffffffffffffffffffffffffffff90600401613260565b602060405180830381600087803b1580156111c457600080fd5b505af11580156111d8573d6000803e3d6000fd5b505050506040513d601f19601f820116820180604052506111fc9190810190612d31565b506006546040517f095ea7b300000000000000000000000000000000000000000000000000000000815273ffffffffffffffffffffffffffffffffffffffff9091169063095ea7b3906112759084907fffffffffffffffffffffffffffffffffffffffffffffffffffffffffffffffff90600401613260565b602060405180830381600087803b15801561128f57600080fd5b505af11580156112a3573d6000803e3d6000fd5b505050506040513d601f19601f820116820180604052506112c79190810190612d31565b505b5050565b60005473ffffffffffffffffffffffffffffffffffffffff16331461131e576040517f08c379a000000000000000000000000000000000000000000000000000000000815260040161019490613333565b73ffffffffffffffffffffffffffffffffffffffff81161561137b57600080547fffffffffffffffffffffffff00000000000000000000000000000000000000001673ffffffffffffffffffffffffffffffffffffffff83161790555b50565b60008282111561138a57fe5b50900390565b60006113a561139f85846121f4565b84612218565b949350505050565b815181516113bb91906121e5565b8252602080830151908201516113d191906121e5565b6020830152604080830151908201516113ea91906121e5565b60408301526060808301519082015161140391906121e5565b60609092019190915250565b82600061ffff84168110801561143a575073ffffffffffffffffffffffffffffffffffffffff831615155b156115225760408051808201909152601881527f4645455f50524f504f5254494f4e5f544f4f5f4c41524745000000000000000060208201526103e861ffff861611156114b4576040517f08c379a00000000000000000000000000000000000000000000000000000000081526004016101949190613302565b506114ce6114c6838661ffff166121f4565b612710612218565b90506114da828261137e565b60405190925073ffffffffffffffffffffffffffffffffffffffff84169082156108fc029083906000818181858888f19350505050158015611520573d6000803e3d6000fd5b505b509392505050565b60008160140183511015151561156c576040517f08c379a000000000000000000000000000000000000000000000000000000000815260040161019490613343565b50016014015173ffffffffffffffffffffffffffffffffffffffff1690565b611593612724565b6002546040517f7e1d980800000000000000000000000000000000000000000000000000000000815260009173ffffffffffffffffffffffffffffffffffffffff1690637e1d9808906115ee908890879089906004016132b4565b608060405180830381600087803b15801561160857600080fd5b505af115801561161c573d6000803e3d6000fd5b505050506040513d601f19601f820116820180604052506116409190810190612d6d565b91506116548260000151836060015161137e565b90506116648260000151826120ce565b60408051808201909152601681527f554e41434345505441424c455f5448524553484f4c440000000000000000000060208201529015156116d2576040517f08c379a00000000000000000000000000000000000000000000000000000000081526004016101949190613302565b5081529392505050565b6116e4612724565b60006116ee612724565b6116f6612724565b6116fe612724565b85935061170b8a8761222f565b92506000836060015111156117d657611729888885606001516122a2565b91506117428661173d88856020015161137e565b6120ce565b60408051808201909152601681527f554e41434345505441424c455f5448524553484f4c440000000000000000000060208201529015156117b0576040517f08c379a00000000000000000000000000000000000000000000000000000000081526004016101949190613302565b506117bf84836020015161137e565b606080840151908701526020808401519087015293505b6002546040517f7e1d980800000000000000000000000000000000000000000000000000000000815273ffffffffffffffffffffffffffffffffffffffff90911690637e1d980890611830908d9088908e906004016132b4565b608060405180830381600087803b15801561184a57600080fd5b505af115801561185e573d6000803e3d6000fd5b505050506040513d601f19601f820116820180604052506118829190810190612d6d565b905061188e85826113ad565b5050505095945050505050565b6040517fa9059cbb00000000000000000000000000000000000000000000000000000000815273ffffffffffffffffffffffffffffffffffffffff84169063a9059cbb906118ef9085908590600401613260565b602060405180830381600087803b15801561190957600080fd5b505af115801561191d573d6000803e3d6000fd5b505050506040513d601f19601f820116820180604052506119419190810190612d31565b60408051808201909152600f81527f5452414e534645525f4641494c4544000000000000000000000000000000000060208201529015156119af576040517f08c379a00000000000000000000000000000000000000000000000000000000081526004016101949190613302565b50505050565b6000816004018351101515156119f7576040517f08c379a000000000000000000000000000000000000000000000000000000000815260040161019490613353565b5050602001517fffffffff000000000000000000000000000000000000000000000000000000001690565b611a2a612724565b6000611a34612724565b611a3c612724565b611a44612724565b611a568a600081518110151561078f57fe5b60048054604080516020601f60027fffffffffffffffffffffffffffffffffffffffffffffffffffffffffffffffff6101006001881615020190951694909404938401819004810282018101909252828152939750830182828015611afc5780601f10611ad157610100808354040283529160200191611afc565b820191906000526020600020905b815481529060010190602001808311611adf57829003601f168201915b50505050508a6000815181101515611b1057fe5b60209081029091010151610160015260065473ffffffffffffffffffffffffffffffffffffffff85811691161415611bc657611b4d8a8a886122a2565b805160408051808201909152601681527f554e41434345505441424c455f5448524553484f4c44000000000000000000006020820152919450871115611bc0576040517f08c379a00000000000000000000000000000000000000000000000000000000081526004016101949190613302565b50611d25565b611bd08a8761037a565b9150600082606001511115611c0557611bee888884606001516122a2565b602080820151908701526060808201519087015290505b6002546040517fe5fa431b00000000000000000000000000000000000000000000000000000000815273ffffffffffffffffffffffffffffffffffffffff9091169063e5fa431b90611c5f908d908a908e906004016132b4565b608060405180830381600087803b158015611c7957600080fd5b505af1158015611c8d573d6000803e3d6000fd5b505050506040513d601f19601f82011682018060405250611cb19190810190612d6d565b805160408051808201909152601681527f554e41434345505441424c455f5448524553484f4c440000000000000000000060208201529194508714611d23576040517f08c379a00000000000000000000000000000000000000000000000000000000081526004016101949190613302565b505b611d2f85846113ad565b61188e8433856000015161189b565b611d46612724565b60008060606000611d55612724565b611d5d612724565b8b5160408051606081018252602281527f41535345545f414d4f554e545f4d5553545f4d415443485f4f524445525f534960208201527f5a4500000000000000000000000000000000000000000000000000000000000091810191909152908914611df5576040517f08c379a00000000000000000000000000000000000000000000000000000000081526004016101949190613302565b508b51945084604051908082528060200260200182016040528015611e24578160200160208202803883390190505b509350600092505b84831015611f6057611e59868d85815181101515611e4657fe5b9060200190602002015160e001516121e5565b60048054604080516020601f60027fffffffffffffffffffffffffffffffffffffffffffffffffffffffffffffffff6101006001881615020190951694909404938401819004810282018101909252828152939950830182828015611eff5780601f10611ed457610100808354040283529160200191611eff565b820191906000526020600020905b815481529060010190602001808311611ee257829003601f168201915b50505050508c84815181101515611f1257fe5b6020908102909101015161016001528b518c9084908110611f2f57fe5b9060200190602002015160a001518484815181101515611f4b57fe5b60209081029091010152600190920191611e2c565b6000861115611f8b57611f748a8a886122a2565b606080820151908901526020808201519089015291505b600260009054906101000a900473ffffffffffffffffffffffffffffffffffffffff1673ffffffffffffffffffffffffffffffffffffffff16634d0ae5468d868e6040518463ffffffff167c01000000000000000000000000000000000000000000000000000000000281526004016120069392919061327b565b608060405180830381600087803b15801561202057600080fd5b505af1158015612034573d6000803e3d6000fd5b505050506040513d601f19601f820116820180604052506120589190810190612d6d565b905061206487826113ad565b600092505b848310156120bf576120b48c8481518110151561208257fe5b90602001906020020151610140015130338f878151811015156120a157fe5b90602001906020020151608001516125a0565b600190920191612069565b50505050505095945050505050565b6000806120e06114c68561251c6121f4565b909210159392505050565b60008060008611156121dc576005546040517f2e1a7d4d00000000000000000000000000000000000000000000000000000000815273ffffffffffffffffffffffffffffffffffffffff90911690632e1a7d4d9061214d9089906004016132e6565b600060405180830381600087803b15801561216757600080fd5b505af115801561217b573d6000803e3d6000fd5b505050508591506121968561219187878761140f565b61137e565b90506121a2828261137e565b915060008211156121dc57604051339083156108fc029084906000818181858888f193505050501580156121da573d6000803e3d6000fd5b505b50949350505050565b60008282018381101561101357fe5b6000828202831580612210575082848281151561220d57fe5b04145b151561101357fe5b600080828481151561222657fe5b04949350505050565b612237612724565b600080612242612724565b600092505b85518310156122995761225e85856020015161137e565b9150612271868481518110151561040157fe5b905061227d84826113ad565b848460200151141561228e57612299565b600190920191612247565b50505092915050565b6122aa612724565b60008060006122b7612724565b600093505b8751841015612595576003805460408051602060026001851615610100027fffffffffffffffffffffffffffffffffffffffffffffffffffffffffffffffff0190941693909304601f810184900484028201840190925281815292918301828280156123695780601f1061233e57610100808354040283529160200191612369565b820191906000526020600020905b81548152906001019060200180831161234c57829003601f168201915b5050505050888581518110151561237c57fe5b602090810290910181015161014001919091526004805460408051601f60027fffffffffffffffffffffffffffffffffffffffffffffffffffffffffffffffff6101006001871615020190941693909304928301859004850281018501909152818152928301828280156124315780601f1061240657610100808354040283529160200191612431565b820191906000526020600020905b81548152906001019060200180831161241457829003601f168201915b5050505050888581518110151561244457fe5b602090810290910101516101600152845161246090879061137e565b92506124738885815181101515610f2c57fe5b600254895191935073ffffffffffffffffffffffffffffffffffffffff169063b4be83d5908a90879081106124a457fe5b906020019060200201516124b98560016121e5565b8a888151811015156124c757fe5b906020019060200201516040518463ffffffff167c010000000000000000000000000000000000000000000000000000000002815260040161250b93929190613391565b608060405180830381600087803b15801561252557600080fd5b505af1158015612539573d6000803e3d6000fd5b505050506040513d601f19601f8201168201806040525061255d9190810190612d6d565b90506125718160000151826060015161137e565b815261257d85826113ad565b8451861161258a57612595565b6001909301926122bc565b505050509392505050565b60008060606125b687601063ffffffff61152a16565b92506125c987602463ffffffff61267216565b91506125dc87606463ffffffff61267e16565b6040517fb88d4fde00000000000000000000000000000000000000000000000000000000815290915073ffffffffffffffffffffffffffffffffffffffff84169063b88d4fde9061263790899089908790879060040161321c565b600060405180830381600087803b15801561265157600080fd5b505af1158015612665573d6000803e3d6000fd5b5050505050505050505050565b600061064c83836126d9565b6060600061268c8484612672565b90506020830192508083018451101515156126d3576040517f08c379a000000000000000000000000000000000000000000000000000000000815260040161019490613313565b50500190565b60008160200183511015151561271b576040517f08c379a000000000000000000000000000000000000000000000000000000000815260040161019490613323565b50016020015190565b608060405190810160405280600081526020016000815260200160008152602001600081525090565b60006110138235613469565b60006110138251613469565b6000601f8201831361277657600080fd5b8135612789612784826133f8565b6133d1565b81815260209384019390925082018360005b8381101561043657813586016127b1888261283c565b845250602092830192919091019060010161279b565b6000601f820183136127d857600080fd5b81356127e6612784826133f8565b81815260209384019390925082018360005b83811015610436578135860161280e88826128f1565b84525060209283019291909101906001016127f8565b600061101382516134b1565b60006110138235613485565b6000601f8201831361284d57600080fd5b813561285b61278482613419565b9150808252602083016020830185838301111561287757600080fd5b6122998382846134b6565b60006080828403121561289457600080fd5b61289e60806133d1565b905060006128ac8484612a52565b82525060206128bd84848301612a52565b60208301525060406128d184828501612a52565b60408301525060606128e584828501612a52565b60608301525092915050565b6000610180828403121561290457600080fd5b61290f6101806133d1565b9050600061291d848461274d565b825250602061292e8484830161274d565b60208301525060406129428482850161274d565b60408301525060606129568482850161274d565b606083015250608061296a84828501612a46565b60808301525060a061297e84828501612a46565b60a08301525060c061299284828501612a46565b60c08301525060e06129a684828501612a46565b60e0830152506101006129bb84828501612a46565b610100830152506101206129d184828501612a46565b6101208301525061014082013567ffffffffffffffff8111156129f357600080fd5b6129ff8482850161283c565b6101408301525061016082013567ffffffffffffffff811115612a2157600080fd5b612a2d8482850161283c565b6101608301525092915050565b600061101382356134aa565b60006110138235613482565b60006110138251613482565b600060208284031215612a7057600080fd5b60006113a5848461274d565b600060208284031215612a8e57600080fd5b60006113a58484612759565b600080600060608486031215612aaf57600080fd5b6000612abb868661274d565b9350506020612acc86828701612a46565b925050604084013567ffffffffffffffff811115612ae957600080fd5b612af58682870161283c565b9150509250925092565b60008060008060008060c08789031215612b1857600080fd5b863567ffffffffffffffff811115612b2f57600080fd5b612b3b89828a016127c7565b965050602087013567ffffffffffffffff811115612b5857600080fd5b612b6489828a01612765565b955050604087013567ffffffffffffffff811115612b8157600080fd5b612b8d89828a016127c7565b945050606087013567ffffffffffffffff811115612baa57600080fd5b612bb689828a01612765565b9350506080612bc789828a01612a3a565b92505060a0612bd889828a0161274d565b9150509295509295509295565b600080600080600080600060e0888a031215612c0057600080fd5b873567ffffffffffffffff811115612c1757600080fd5b612c238a828b016127c7565b975050602088013567ffffffffffffffff811115612c4057600080fd5b612c4c8a828b01612765565b965050604088013567ffffffffffffffff811115612c6957600080fd5b612c758a828b016127c7565b955050606088013567ffffffffffffffff811115612c9257600080fd5b612c9e8a828b01612765565b9450506080612caf8a828b01612a46565b93505060a0612cc08a828b01612a3a565b92505060c0612cd18a828b0161274d565b91505092959891949750929550565b60008060408385031215612cf357600080fd5b823567ffffffffffffffff811115612d0a57600080fd5b612d16858286016127c7565b9250506020612d2785828601612a46565b9150509250929050565b600060208284031215612d4357600080fd5b60006113a58484612824565b600060208284031215612d6157600080fd5b60006113a58484612830565b600060808284031215612d7f57600080fd5b60006113a58484612882565b60008060408385031215612d9e57600080fd5b823567ffffffffffffffff811115612db557600080fd5b612d16858286016128f1565b612dca81613469565b82525050565b6000612ddb82613465565b80845260208401935083602082028501612df48561345f565b60005b84811015612e2b578383038852612e0f838351612efb565b9250612e1a8261345f565b602098909801979150600101612df7565b50909695505050505050565b6000612e4282613465565b80845260208401935083602082028501612e5b8561345f565b60005b84811015612e2b578383038852612e76838351613102565b9250612e818261345f565b602098909801979150600101612e5e565b6000612e9d82613465565b808452602084019350612eaf8361345f565b60005b82811015612edf57612ec5868351612ee9565b612ece8261345f565b602096909601959150600101612eb2565b5093949350505050565b612dca81613482565b612dca81613485565b6000612f0682613465565b808452612f1a8160208601602086016134c2565b612f23816134ee565b9093016020019392505050565b603081527f475245415445525f4f525f455155414c5f544f5f4e45535445445f425954455360208201527f5f4c454e4754485f524551554952454400000000000000000000000000000000604082015260600190565b602681527f475245415445525f4f525f455155414c5f544f5f33325f4c454e4754485f524560208201527f5155495245440000000000000000000000000000000000000000000000000000604082015260600190565b601381527f4f4e4c595f434f4e54524143545f4f574e455200000000000000000000000000602082015260400190565b602681527f475245415445525f4f525f455155414c5f544f5f32305f4c454e4754485f524560208201527f5155495245440000000000000000000000000000000000000000000000000000604082015260600190565b602581527f475245415445525f4f525f455155414c5f544f5f345f4c454e4754485f52455160208201527f5549524544000000000000000000000000000000000000000000000000000000604082015260600190565b805160808301906130c98482612ee9565b5060208201516130dc6020850182612ee9565b5060408201516130ef6040850182612ee9565b5060608201516119af6060850182612ee9565b80516000906101808401906131178582612dc1565b50602083015161312a6020860182612dc1565b50604083015161313d6040860182612dc1565b5060608301516131506060860182612dc1565b5060808301516131636080860182612ee9565b5060a083015161317660a0860182612ee9565b5060c083015161318960c0860182612ee9565b5060e083015161319c60e0860182612ee9565b506101008301516131b1610100860182612ee9565b506101208301516131c6610120860182612ee9565b506101408301518482036101408601526131e08282612efb565b9150506101608301518482036101608601526131fc8282612efb565b95945050505050565b612dca816134aa565b6020810161064f8284612dc1565b6080810161322a8287612dc1565b6132376020830186612dc1565b6132446040830185612ee9565b81810360608301526132568184612efb565b9695505050505050565b6040810161326e8285612dc1565b6110136020830184612ee9565b6060808252810161328c8186612e37565b905081810360208301526132a08185612e92565b905081810360408301526131fc8184612dd0565b606080825281016132c58186612e37565b90506132d46020830185612ee9565b81810360408301526131fc8184612dd0565b6020810161064f8284612ee9565b6020810161064f8284612ef2565b602080825281016110138184612efb565b6020808252810161064f81612f30565b6020808252810161064f81612f86565b6020808252810161064f81612fdc565b6020808252810161064f8161300c565b6020808252810161064f81613062565b6080810161064f82846130b8565b604080825281016133828185613102565b90506110136020830184612ee9565b606080825281016133a28186613102565b90506133b16020830185612ee9565b81810360408301526131fc8184612efb565b6020810161064f8284613205565b60405181810167ffffffffffffffff811182821017156133f057600080fd5b604052919050565b600067ffffffffffffffff82111561340f57600080fd5b5060209081020190565b600067ffffffffffffffff82111561343057600080fd5b506020601f919091017fffffffffffffffffffffffffffffffffffffffffffffffffffffffffffffffe0160190565b60200190565b5190565b73ffffffffffffffffffffffffffffffffffffffff1690565b90565b7fffffffff000000000000000000000000000000000000000000000000000000001690565b61ffff1690565b151590565b82818337506000910152565b60005b838110156134dd5781810151838201526020016134c5565b838111156119af5750506000910152565b601f017fffffffffffffffffffffffffffffffffffffffffffffffffffffffffffffffe016905600a265627a7a72305820aeac1789c0d5a5b1bd567e859915e810f5f86c6f738e64671642df3734dd15eb6c6578706572696d656e74616cf50037",
				"opcodes": "PUSH1 0x80 PUSH1 0x40 MSTORE CALLVALUE DUP1 ISZERO PUSH3 0x11 JUMPI PUSH1 0x0 DUP1 REVERT JUMPDEST POP PUSH1 0x40 MLOAD PUSH3 0x3F41 CODESIZE SUB DUP1 PUSH3 0x3F41 DUP4 CODECOPY DUP2 ADD DUP1 PUSH1 0x40 MSTORE PUSH3 0x37 SWAP2 SWAP1 DUP2 ADD SWAP1 PUSH3 0x774 JUMP JUMPDEST PUSH1 0x0 DUP1 SLOAD PUSH1 0x1 PUSH1 0xA0 PUSH1 0x2 EXP SUB NOT AND CALLER OR SWAP1 SSTORE PUSH1 0x40 DUP1 MLOAD PUSH32 0x454950373132446F6D61696E2800000000000000000000000000000000000000 PUSH1 0x20 DUP1 DUP4 ADD SWAP2 SWAP1 SWAP2 MSTORE PUSH32 0x737472696E67206E616D652C0000000000000000000000000000000000000000 PUSH1 0x2D DUP4 ADD MSTORE PUSH32 0x737472696E672076657273696F6E2C0000000000000000000000000000000000 PUSH1 0x39 DUP4 ADD MSTORE PUSH32 0x6164647265737320766572696679696E67436F6E747261637400000000000000 PUSH1 0x48 DUP4 ADD MSTORE PUSH32 0x2900000000000000000000000000000000000000000000000000000000000000 PUSH1 0x61 DUP4 ADD MSTORE DUP3 MLOAD PUSH1 0x42 DUP2 DUP5 SUB ADD DUP2 MSTORE PUSH1 0x62 SWAP1 SWAP3 ADD SWAP3 DUP4 SWAP1 MSTORE DUP2 MLOAD SWAP2 SWAP3 SWAP2 DUP3 SWAP2 DUP5 ADD SWAP1 DUP1 DUP4 DUP4 JUMPDEST PUSH1 0x20 DUP4 LT PUSH3 0x151 JUMPI DUP1 MLOAD DUP3 MSTORE PUSH1 0x1F NOT SWAP1 SWAP3 ADD SWAP2 PUSH1 0x20 SWAP2 DUP3 ADD SWAP2 ADD PUSH3 0x130 JUMP JUMPDEST MLOAD DUP2 MLOAD PUSH1 0x20 SWAP4 DUP5 SUB PUSH2 0x100 EXP PUSH1 0x0 NOT ADD DUP1 NOT SWAP1 SWAP3 AND SWAP2 AND OR SWAP1 MSTORE PUSH1 0x40 DUP1 MLOAD SWAP3 SWAP1 SWAP5 ADD DUP3 SWAP1 SUB DUP3 KECCAK256 DUP3 DUP6 ADD DUP6 MSTORE PUSH1 0xB DUP1 DUP5 MSTORE PUSH32 0x30782050726F746F636F6C000000000000000000000000000000000000000000 SWAP3 DUP5 ADD SWAP3 DUP4 MSTORE SWAP5 MLOAD SWAP1 SWAP7 POP SWAP2 SWAP5 POP SWAP1 SWAP3 DUP4 SWAP3 POP DUP1 DUP4 DUP4 JUMPDEST PUSH1 0x20 DUP4 LT PUSH3 0x1DB JUMPI DUP1 MLOAD DUP3 MSTORE PUSH1 0x1F NOT SWAP1 SWAP3 ADD SWAP2 PUSH1 0x20 SWAP2 DUP3 ADD SWAP2 ADD PUSH3 0x1BA JUMP JUMPDEST MLOAD DUP2 MLOAD PUSH1 0x20 SWAP4 DUP5 SUB PUSH2 0x100 EXP PUSH1 0x0 NOT ADD DUP1 NOT SWAP1 SWAP3 AND SWAP2 AND OR SWAP1 MSTORE PUSH1 0x40 DUP1 MLOAD SWAP3 SWAP1 SWAP5 ADD DUP3 SWAP1 SUB DUP3 KECCAK256 DUP3 DUP6 ADD DUP6 MSTORE PUSH1 0x1 DUP1 DUP5 MSTORE PUSH32 0x3200000000000000000000000000000000000000000000000000000000000000 SWAP3 DUP5 ADD SWAP3 DUP4 MSTORE SWAP5 MLOAD SWAP1 SWAP7 POP SWAP2 SWAP5 POP SWAP1 SWAP3 DUP4 SWAP3 POP DUP1 DUP4 DUP4 JUMPDEST PUSH1 0x20 DUP4 LT PUSH3 0x265 JUMPI DUP1 MLOAD DUP3 MSTORE PUSH1 0x1F NOT SWAP1 SWAP3 ADD SWAP2 PUSH1 0x20 SWAP2 DUP3 ADD SWAP2 ADD PUSH3 0x244 JUMP JUMPDEST MLOAD DUP2 MLOAD PUSH1 0x20 SWAP4 DUP5 SUB PUSH2 0x100 EXP PUSH1 0x0 NOT ADD DUP1 NOT SWAP1 SWAP3 AND SWAP2 AND OR SWAP1 MSTORE PUSH1 0x40 MLOAD SWAP2 SWAP1 SWAP4 ADD DUP2 SWAP1 SUB DUP2 KECCAK256 PUSH3 0x2A0 SWAP8 SWAP7 SWAP6 POP SWAP4 POP ADDRESS SWAP3 ADD SWAP1 POP PUSH3 0x8AE JUMP JUMPDEST PUSH1 0x40 MLOAD PUSH1 0x20 DUP2 DUP4 SUB SUB DUP2 MSTORE SWAP1 PUSH1 0x40 MSTORE PUSH1 0x40 MLOAD DUP1 DUP3 DUP1 MLOAD SWAP1 PUSH1 0x20 ADD SWAP1 DUP1 DUP4 DUP4 JUMPDEST PUSH1 0x20 DUP4 LT PUSH3 0x2E0 JUMPI DUP1 MLOAD DUP3 MSTORE PUSH1 0x1F NOT SWAP1 SWAP3 ADD SWAP2 PUSH1 0x20 SWAP2 DUP3 ADD SWAP2 ADD PUSH3 0x2BF JUMP JUMPDEST MLOAD DUP2 MLOAD PUSH1 0x20 SWAP4 DUP5 SUB PUSH2 0x100 EXP PUSH1 0x0 NOT ADD DUP1 NOT SWAP1 SWAP3 AND SWAP2 AND OR SWAP1 MSTORE PUSH1 0x40 MLOAD SWAP2 SWAP1 SWAP4 ADD DUP2 SWAP1 SUB SWAP1 KECCAK256 PUSH1 0x1 SSTORE POP PUSH1 0x2 DUP1 SLOAD PUSH1 0x1 PUSH1 0xA0 PUSH1 0x2 EXP SUB NOT SWAP1 DUP2 AND PUSH1 0x1 PUSH1 0xA0 PUSH1 0x2 EXP SUB DUP13 DUP2 AND SWAP2 SWAP1 SWAP2 OR SWAP1 SWAP3 SSTORE PUSH1 0x5 DUP1 SLOAD DUP3 AND DUP12 DUP5 AND OR SWAP1 SSTORE PUSH1 0x6 DUP1 SLOAD SWAP1 SWAP2 AND SWAP2 DUP10 AND SWAP2 SWAP1 SWAP2 OR SWAP1 SSTORE DUP5 MLOAD PUSH3 0x35E SWAP4 POP PUSH1 0x3 SWAP3 POP SWAP1 DUP6 ADD SWAP1 PUSH3 0x5EA JUMP JUMPDEST POP DUP1 MLOAD PUSH3 0x374 SWAP1 PUSH1 0x4 SWAP1 PUSH1 0x20 DUP5 ADD SWAP1 PUSH3 0x5EA JUMP JUMPDEST POP PUSH3 0x389 DUP4 PUSH5 0x100000000 PUSH3 0x395 DUP2 MUL DIV JUMP JUMPDEST POP POP POP POP POP POP PUSH3 0x9E1 JUMP JUMPDEST PUSH1 0x0 DUP1 SLOAD PUSH1 0x1 PUSH1 0xA0 PUSH1 0x2 EXP SUB AND CALLER EQ PUSH3 0x3E6 JUMPI PUSH1 0x40 MLOAD PUSH32 0x8C379A000000000000000000000000000000000000000000000000000000000 DUP2 MSTORE PUSH1 0x4 ADD PUSH3 0x3DD SWAP1 PUSH3 0x90A JUMP JUMPDEST PUSH1 0x40 MLOAD DUP1 SWAP2 SUB SWAP1 REVERT JUMPDEST PUSH1 0x2 SLOAD PUSH1 0x40 MLOAD PUSH32 0x6070410800000000000000000000000000000000000000000000000000000000 DUP2 MSTORE PUSH1 0x1 PUSH1 0xA0 PUSH1 0x2 EXP SUB SWAP1 SWAP2 AND SWAP1 PUSH4 0x60704108 SWAP1 PUSH3 0x431 SWAP1 DUP6 SWAP1 PUSH1 0x4 ADD PUSH3 0x8F4 JUMP JUMPDEST PUSH1 0x20 PUSH1 0x40 MLOAD DUP1 DUP4 SUB DUP2 PUSH1 0x0 DUP8 DUP1 EXTCODESIZE ISZERO DUP1 ISZERO PUSH3 0x44C JUMPI PUSH1 0x0 DUP1 REVERT JUMPDEST POP GAS CALL ISZERO DUP1 ISZERO PUSH3 0x461 JUMPI RETURNDATASIZE PUSH1 0x0 DUP1 RETURNDATACOPY RETURNDATASIZE PUSH1 0x0 REVERT JUMPDEST POP POP POP POP PUSH1 0x40 MLOAD RETURNDATASIZE PUSH1 0x1F NOT PUSH1 0x1F DUP3 ADD AND DUP3 ADD DUP1 PUSH1 0x40 MSTORE POP PUSH3 0x487 SWAP2 SWAP1 DUP2 ADD SWAP1 PUSH3 0x72A JUMP JUMPDEST SWAP1 POP PUSH1 0x1 PUSH1 0xA0 PUSH1 0x2 EXP SUB DUP2 AND ISZERO PUSH3 0x5E6 JUMPI PUSH1 0x5 SLOAD PUSH1 0x40 MLOAD PUSH32 0x95EA7B300000000000000000000000000000000000000000000000000000000 DUP2 MSTORE PUSH1 0x1 PUSH1 0xA0 PUSH1 0x2 EXP SUB SWAP1 SWAP2 AND SWAP1 PUSH4 0x95EA7B3 SWAP1 PUSH3 0x4E8 SWAP1 DUP5 SWAP1 PUSH1 0x0 NOT SWAP1 PUSH1 0x4 ADD PUSH3 0x88F JUMP JUMPDEST PUSH1 0x20 PUSH1 0x40 MLOAD DUP1 DUP4 SUB DUP2 PUSH1 0x0 DUP8 DUP1 EXTCODESIZE ISZERO DUP1 ISZERO PUSH3 0x503 JUMPI PUSH1 0x0 DUP1 REVERT JUMPDEST POP GAS CALL ISZERO DUP1 ISZERO PUSH3 0x518 JUMPI RETURNDATASIZE PUSH1 0x0 DUP1 RETURNDATACOPY RETURNDATASIZE PUSH1 0x0 REVERT JUMPDEST POP POP POP POP PUSH1 0x40 MLOAD RETURNDATASIZE PUSH1 0x1F NOT PUSH1 0x1F DUP3 ADD AND DUP3 ADD DUP1 PUSH1 0x40 MSTORE POP PUSH3 0x53E SWAP2 SWAP1 DUP2 ADD SWAP1 PUSH3 0x753 JUMP JUMPDEST POP PUSH1 0x6 SLOAD PUSH1 0x40 MLOAD PUSH32 0x95EA7B300000000000000000000000000000000000000000000000000000000 DUP2 MSTORE PUSH1 0x1 PUSH1 0xA0 PUSH1 0x2 EXP SUB SWAP1 SWAP2 AND SWAP1 PUSH4 0x95EA7B3 SWAP1 PUSH3 0x58E SWAP1 DUP5 SWAP1 PUSH1 0x0 NOT SWAP1 PUSH1 0x4 ADD PUSH3 0x88F JUMP JUMPDEST PUSH1 0x20 PUSH1 0x40 MLOAD DUP1 DUP4 SUB DUP2 PUSH1 0x0 DUP8 DUP1 EXTCODESIZE ISZERO DUP1 ISZERO PUSH3 0x5A9 JUMPI PUSH1 0x0 DUP1 REVERT JUMPDEST POP GAS CALL ISZERO DUP1 ISZERO PUSH3 0x5BE JUMPI RETURNDATASIZE PUSH1 0x0 DUP1 RETURNDATACOPY RETURNDATASIZE PUSH1 0x0 REVERT JUMPDEST POP POP POP POP PUSH1 0x40 MLOAD RETURNDATASIZE PUSH1 0x1F NOT PUSH1 0x1F DUP3 ADD AND DUP3 ADD DUP1 PUSH1 0x40 MSTORE POP PUSH3 0x5E4 SWAP2 SWAP1 DUP2 ADD SWAP1 PUSH3 0x753 JUMP JUMPDEST POP JUMPDEST POP POP JUMP JUMPDEST DUP3 DUP1 SLOAD PUSH1 0x1 DUP2 PUSH1 0x1 AND ISZERO PUSH2 0x100 MUL SUB AND PUSH1 0x2 SWAP1 DIV SWAP1 PUSH1 0x0 MSTORE PUSH1 0x20 PUSH1 0x0 KECCAK256 SWAP1 PUSH1 0x1F ADD PUSH1 0x20 SWAP1 DIV DUP2 ADD SWAP3 DUP3 PUSH1 0x1F LT PUSH3 0x62D JUMPI DUP1 MLOAD PUSH1 0xFF NOT AND DUP4 DUP1 ADD OR DUP6 SSTORE PUSH3 0x65D JUMP JUMPDEST DUP3 DUP1 ADD PUSH1 0x1 ADD DUP6 SSTORE DUP3 ISZERO PUSH3 0x65D JUMPI SWAP2 DUP3 ADD JUMPDEST DUP3 DUP2 GT ISZERO PUSH3 0x65D JUMPI DUP3 MLOAD DUP3 SSTORE SWAP2 PUSH1 0x20 ADD SWAP2 SWAP1 PUSH1 0x1 ADD SWAP1 PUSH3 0x640 JUMP JUMPDEST POP PUSH3 0x66B SWAP3 SWAP2 POP PUSH3 0x66F JUMP JUMPDEST POP SWAP1 JUMP JUMPDEST PUSH3 0x68C SWAP2 SWAP1 JUMPDEST DUP1 DUP3 GT ISZERO PUSH3 0x66B JUMPI PUSH1 0x0 DUP2 SSTORE PUSH1 0x1 ADD PUSH3 0x676 JUMP JUMPDEST SWAP1 JUMP JUMPDEST PUSH1 0x0 PUSH3 0x69D DUP3 MLOAD PUSH3 0x96B JUMP JUMPDEST SWAP4 SWAP3 POP POP POP JUMP JUMPDEST PUSH1 0x0 PUSH3 0x69D DUP3 MLOAD PUSH3 0x99C JUMP JUMPDEST PUSH1 0x0 PUSH3 0x69D DUP3 MLOAD PUSH3 0x977 JUMP JUMPDEST PUSH1 0x0 PUSH1 0x1F DUP3 ADD DUP4 SGT PUSH3 0x6D2 JUMPI PUSH1 0x0 DUP1 REVERT JUMPDEST DUP2 MLOAD PUSH3 0x6E9 PUSH3 0x6E3 DUP3 PUSH3 0x943 JUMP JUMPDEST PUSH3 0x91C JUMP JUMPDEST SWAP2 POP DUP1 DUP3 MSTORE PUSH1 0x20 DUP4 ADD PUSH1 0x20 DUP4 ADD DUP6 DUP4 DUP4 ADD GT ISZERO PUSH3 0x706 JUMPI PUSH1 0x0 DUP1 REVERT JUMPDEST PUSH3 0x713 DUP4 DUP3 DUP5 PUSH3 0x9AE JUMP JUMPDEST POP POP POP SWAP3 SWAP2 POP POP JUMP JUMPDEST PUSH1 0x0 PUSH3 0x69D DUP3 MLOAD PUSH3 0x9A1 JUMP JUMPDEST PUSH1 0x0 PUSH1 0x20 DUP3 DUP5 SUB SLT ISZERO PUSH3 0x73D JUMPI PUSH1 0x0 DUP1 REVERT JUMPDEST PUSH1 0x0 PUSH3 0x74B DUP5 DUP5 PUSH3 0x68F JUMP JUMPDEST SWAP5 SWAP4 POP POP POP POP JUMP JUMPDEST PUSH1 0x0 PUSH1 0x20 DUP3 DUP5 SUB SLT ISZERO PUSH3 0x766 JUMPI PUSH1 0x0 DUP1 REVERT JUMPDEST PUSH1 0x0 PUSH3 0x74B DUP5 DUP5 PUSH3 0x6A4 JUMP JUMPDEST PUSH1 0x0 DUP1 PUSH1 0x0 DUP1 PUSH1 0x0 DUP1 PUSH1 0xC0 DUP8 DUP10 SUB SLT ISZERO PUSH3 0x78E JUMPI PUSH1 0x0 DUP1 REVERT JUMPDEST PUSH1 0x0 PUSH3 0x79C DUP10 DUP10 PUSH3 0x71C JUMP JUMPDEST SWAP7 POP POP PUSH1 0x20 PUSH3 0x7AF DUP10 DUP3 DUP11 ADD PUSH3 0x71C JUMP JUMPDEST SWAP6 POP POP PUSH1 0x40 PUSH3 0x7C2 DUP10 DUP3 DUP11 ADD PUSH3 0x71C JUMP JUMPDEST SWAP5 POP POP PUSH1 0x60 PUSH3 0x7D5 DUP10 DUP3 DUP11 ADD PUSH3 0x6B2 JUMP JUMPDEST SWAP4 POP POP PUSH1 0x80 DUP8 ADD MLOAD PUSH1 0x1 PUSH1 0x40 PUSH1 0x2 EXP SUB DUP2 GT ISZERO PUSH3 0x7F2 JUMPI PUSH1 0x0 DUP1 REVERT JUMPDEST PUSH3 0x800 DUP10 DUP3 DUP11 ADD PUSH3 0x6C0 JUMP JUMPDEST SWAP3 POP POP PUSH1 0xA0 DUP8 ADD MLOAD PUSH1 0x1 PUSH1 0x40 PUSH1 0x2 EXP SUB DUP2 GT ISZERO PUSH3 0x81D JUMPI PUSH1 0x0 DUP1 REVERT JUMPDEST PUSH3 0x82B DUP10 DUP3 DUP11 ADD PUSH3 0x6C0 JUMP JUMPDEST SWAP2 POP POP SWAP3 SWAP6 POP SWAP3 SWAP6 POP SWAP3 SWAP6 JUMP JUMPDEST PUSH3 0x843 DUP2 PUSH3 0x96B JUMP JUMPDEST DUP3 MSTORE POP POP JUMP JUMPDEST PUSH3 0x843 DUP2 PUSH3 0x68C JUMP JUMPDEST PUSH3 0x843 DUP2 PUSH3 0x977 JUMP JUMPDEST PUSH1 0x13 DUP2 MSTORE PUSH32 0x4F4E4C595F434F4E54524143545F4F574E455200000000000000000000000000 PUSH1 0x20 DUP3 ADD MSTORE PUSH1 0x40 ADD SWAP1 JUMP JUMPDEST PUSH1 0x40 DUP2 ADD PUSH3 0x89F DUP3 DUP6 PUSH3 0x838 JUMP JUMPDEST PUSH3 0x69D PUSH1 0x20 DUP4 ADD DUP5 PUSH3 0x849 JUMP JUMPDEST PUSH1 0x80 DUP2 ADD PUSH3 0x8BE DUP3 DUP8 PUSH3 0x849 JUMP JUMPDEST PUSH3 0x8CD PUSH1 0x20 DUP4 ADD DUP7 PUSH3 0x849 JUMP JUMPDEST PUSH3 0x8DC PUSH1 0x40 DUP4 ADD DUP6 PUSH3 0x849 JUMP JUMPDEST PUSH3 0x8EB PUSH1 0x60 DUP4 ADD DUP5 PUSH3 0x838 JUMP JUMPDEST SWAP6 SWAP5 POP POP POP POP POP JUMP JUMPDEST PUSH1 0x20 DUP2 ADD PUSH3 0x904 DUP3 DUP5 PUSH3 0x854 JUMP JUMPDEST SWAP3 SWAP2 POP POP JUMP JUMPDEST PUSH1 0x20 DUP1 DUP3 MSTORE DUP2 ADD PUSH3 0x904 DUP2 PUSH3 0x85F JUMP JUMPDEST PUSH1 0x40 MLOAD DUP2 DUP2 ADD PUSH1 0x1 PUSH1 0x40 PUSH1 0x2 EXP SUB DUP2 GT DUP3 DUP3 LT OR ISZERO PUSH3 0x93B JUMPI PUSH1 0x0 DUP1 REVERT JUMPDEST PUSH1 0x40 MSTORE SWAP2 SWAP1 POP JUMP JUMPDEST PUSH1 0x0 PUSH1 0x1 PUSH1 0x40 PUSH1 0x2 EXP SUB DUP3 GT ISZERO PUSH3 0x95A JUMPI PUSH1 0x0 DUP1 REVERT JUMPDEST POP PUSH1 0x20 PUSH1 0x1F SWAP2 SWAP1 SWAP2 ADD PUSH1 0x1F NOT AND ADD SWAP1 JUMP JUMPDEST PUSH1 0x1 PUSH1 0xA0 PUSH1 0x2 EXP SUB AND SWAP1 JUMP JUMPDEST PUSH32 0xFFFFFFFF00000000000000000000000000000000000000000000000000000000 AND SWAP1 JUMP JUMPDEST ISZERO ISZERO SWAP1 JUMP JUMPDEST PUSH1 0x0 PUSH3 0x904 DUP3 PUSH3 0x96B JUMP JUMPDEST PUSH1 0x0 JUMPDEST DUP4 DUP2 LT ISZERO PUSH3 0x9CB JUMPI DUP2 DUP2 ADD MLOAD DUP4 DUP3 ADD MSTORE PUSH1 0x20 ADD PUSH3 0x9B1 JUMP JUMPDEST DUP4 DUP2 GT ISZERO PUSH3 0x9DB JUMPI PUSH1 0x0 DUP5 DUP5 ADD MSTORE JUMPDEST POP POP POP POP JUMP JUMPDEST PUSH2 0x3550 DUP1 PUSH3 0x9F1 PUSH1 0x0 CODECOPY PUSH1 0x0 RETURN STOP PUSH1 0x80 PUSH1 0x40 MSTORE PUSH1 0x4 CALLDATASIZE LT PUSH2 0xE5 JUMPI PUSH4 0xFFFFFFFF PUSH29 0x100000000000000000000000000000000000000000000000000000000 PUSH1 0x0 CALLDATALOAD DIV AND PUSH4 0x1B67AD77 DUP2 EQ PUSH2 0x1A0 JUMPI DUP1 PUSH4 0x20472CF7 EQ PUSH2 0x1D6 JUMPI DUP1 PUSH4 0x2624B2D9 EQ PUSH2 0x1F8 JUMPI DUP1 PUSH4 0x4A23B67B EQ PUSH2 0x21A JUMPI DUP1 PUSH4 0x8A637F3D EQ PUSH2 0x23A JUMPI DUP1 PUSH4 0x8DA5CB5B EQ PUSH2 0x24D JUMPI DUP1 PUSH4 0x8EE1A642 EQ PUSH2 0x26F JUMPI DUP1 PUSH4 0x8FBB3EA6 EQ PUSH2 0x291 JUMPI DUP1 PUSH4 0xA28FE02E EQ PUSH2 0x2A4 JUMPI DUP1 PUSH4 0xB3CD4254 EQ PUSH2 0x2B9 JUMPI DUP1 PUSH4 0xBC063E1A EQ PUSH2 0x2CE JUMPI DUP1 PUSH4 0xD3DF5F2D EQ PUSH2 0x2E3 JUMPI DUP1 PUSH4 0xE306F779 EQ PUSH2 0x303 JUMPI DUP1 PUSH4 0xF0B9E5BA EQ PUSH2 0x318 JUMPI DUP1 PUSH4 0xF2AFD85A EQ PUSH2 0x338 JUMPI DUP1 PUSH4 0xF2FDE38B EQ PUSH2 0x35A JUMPI JUMPDEST PUSH1 0x5 SLOAD PUSH1 0x40 DUP1 MLOAD PUSH1 0x60 DUP2 ADD DUP3 MSTORE PUSH1 0x23 DUP2 MSTORE PUSH32 0x44454641554C545F46554E4354494F4E5F574554485F434F4E54524143545F4F PUSH1 0x20 DUP3 ADD MSTORE PUSH32 0x4E4C590000000000000000000000000000000000000000000000000000000000 SWAP2 DUP2 ADD SWAP2 SWAP1 SWAP2 MSTORE SWAP1 PUSH20 0xFFFFFFFFFFFFFFFFFFFFFFFFFFFFFFFFFFFFFFFF AND CALLER EQ PUSH2 0x19D JUMPI PUSH1 0x40 MLOAD PUSH32 0x8C379A000000000000000000000000000000000000000000000000000000000 DUP2 MSTORE PUSH1 0x4 ADD PUSH2 0x194 SWAP2 SWAP1 PUSH2 0x3302 JUMP JUMPDEST PUSH1 0x40 MLOAD DUP1 SWAP2 SUB SWAP1 REVERT JUMPDEST POP STOP JUMPDEST CALLVALUE DUP1 ISZERO PUSH2 0x1AC JUMPI PUSH1 0x0 DUP1 REVERT JUMPDEST POP PUSH2 0x1C0 PUSH2 0x1BB CALLDATASIZE PUSH1 0x4 PUSH2 0x2CE0 JUMP JUMPDEST PUSH2 0x37A JUMP JUMPDEST PUSH1 0x40 MLOAD PUSH2 0x1CD SWAP2 SWAP1 PUSH2 0x3363 JUMP JUMPDEST PUSH1 0x40 MLOAD DUP1 SWAP2 SUB SWAP1 RETURN JUMPDEST CALLVALUE DUP1 ISZERO PUSH2 0x1E2 JUMPI PUSH1 0x0 DUP1 REVERT JUMPDEST POP PUSH2 0x1EB PUSH2 0x440 JUMP JUMPDEST PUSH1 0x40 MLOAD PUSH2 0x1CD SWAP2 SWAP1 PUSH2 0x33C3 JUMP JUMPDEST CALLVALUE DUP1 ISZERO PUSH2 0x204 JUMPI PUSH1 0x0 DUP1 REVERT JUMPDEST POP PUSH2 0x20D PUSH2 0x446 JUMP JUMPDEST PUSH1 0x40 MLOAD PUSH2 0x1CD SWAP2 SWAP1 PUSH2 0x32E6 JUMP JUMPDEST CALLVALUE DUP1 ISZERO PUSH2 0x226 JUMPI PUSH1 0x0 DUP1 REVERT JUMPDEST POP PUSH2 0x1C0 PUSH2 0x235 CALLDATASIZE PUSH1 0x4 PUSH2 0x2D8B JUMP JUMPDEST PUSH2 0x59A JUMP JUMPDEST PUSH2 0x1C0 PUSH2 0x248 CALLDATASIZE PUSH1 0x4 PUSH2 0x2AFF JUMP JUMPDEST PUSH2 0x655 JUMP JUMPDEST CALLVALUE DUP1 ISZERO PUSH2 0x259 JUMPI PUSH1 0x0 DUP1 REVERT JUMPDEST POP PUSH2 0x262 PUSH2 0x946 JUMP JUMPDEST PUSH1 0x40 MLOAD PUSH2 0x1CD SWAP2 SWAP1 PUSH2 0x320E JUMP JUMPDEST CALLVALUE DUP1 ISZERO PUSH2 0x27B JUMPI PUSH1 0x0 DUP1 REVERT JUMPDEST POP PUSH2 0x284 PUSH2 0x962 JUMP JUMPDEST PUSH1 0x40 MLOAD PUSH2 0x1CD SWAP2 SWAP1 PUSH2 0x32F4 JUMP JUMPDEST PUSH2 0x1C0 PUSH2 0x29F CALLDATASIZE PUSH1 0x4 PUSH2 0x2BE5 JUMP JUMPDEST PUSH2 0x997 JUMP JUMPDEST CALLVALUE DUP1 ISZERO PUSH2 0x2B0 JUMPI PUSH1 0x0 DUP1 REVERT JUMPDEST POP PUSH2 0x284 PUSH2 0xDE1 JUMP JUMPDEST CALLVALUE DUP1 ISZERO PUSH2 0x2C5 JUMPI PUSH1 0x0 DUP1 REVERT JUMPDEST POP PUSH2 0x1EB PUSH2 0xE3C JUMP JUMPDEST CALLVALUE DUP1 ISZERO PUSH2 0x2DA JUMPI PUSH1 0x0 DUP1 REVERT JUMPDEST POP PUSH2 0x1EB PUSH2 0xE42 JUMP JUMPDEST CALLVALUE DUP1 ISZERO PUSH2 0x2EF JUMPI PUSH1 0x0 DUP1 REVERT JUMPDEST POP PUSH2 0x1C0 PUSH2 0x2FE CALLDATASIZE PUSH1 0x4 PUSH2 0x2CE0 JUMP JUMPDEST PUSH2 0xE48 JUMP JUMPDEST CALLVALUE DUP1 ISZERO PUSH2 0x30F JUMPI PUSH1 0x0 DUP1 REVERT JUMPDEST POP PUSH2 0x20D PUSH2 0xFEB JUMP JUMPDEST CALLVALUE DUP1 ISZERO PUSH2 0x324 JUMPI PUSH1 0x0 DUP1 REVERT JUMPDEST POP PUSH2 0x284 PUSH2 0x333 CALLDATASIZE PUSH1 0x4 PUSH2 0x2A9A JUMP JUMPDEST PUSH2 0xFF1 JUMP JUMPDEST CALLVALUE DUP1 ISZERO PUSH2 0x344 JUMPI PUSH1 0x0 DUP1 REVERT JUMPDEST POP PUSH2 0x358 PUSH2 0x353 CALLDATASIZE PUSH1 0x4 PUSH2 0x2D4F JUMP JUMPDEST PUSH2 0x101A JUMP JUMPDEST STOP JUMPDEST CALLVALUE DUP1 ISZERO PUSH2 0x366 JUMPI PUSH1 0x0 DUP1 REVERT JUMPDEST POP PUSH2 0x358 PUSH2 0x375 CALLDATASIZE PUSH1 0x4 PUSH2 0x2A5E JUMP JUMPDEST PUSH2 0x12CD JUMP JUMPDEST PUSH2 0x382 PUSH2 0x2724 JUMP JUMPDEST PUSH1 0x0 DUP1 PUSH1 0x0 PUSH2 0x38F PUSH2 0x2724 JUMP JUMPDEST PUSH1 0x0 SWAP4 POP JUMPDEST DUP7 MLOAD DUP5 LT ISZERO PUSH2 0x436 JUMPI PUSH2 0x3AB DUP7 DUP7 PUSH1 0x0 ADD MLOAD PUSH2 0x137E JUMP JUMPDEST SWAP3 POP PUSH2 0x3EE DUP8 DUP6 DUP2 MLOAD DUP2 LT ISZERO ISZERO PUSH2 0x3BE JUMPI INVALID JUMPDEST SWAP1 PUSH1 0x20 ADD SWAP1 PUSH1 0x20 MUL ADD MLOAD PUSH1 0xA0 ADD MLOAD DUP9 DUP7 DUP2 MLOAD DUP2 LT ISZERO ISZERO PUSH2 0x3DA JUMPI INVALID JUMPDEST SWAP1 PUSH1 0x20 ADD SWAP1 PUSH1 0x20 MUL ADD MLOAD PUSH1 0x80 ADD MLOAD DUP6 PUSH2 0x1390 JUMP JUMPDEST SWAP2 POP PUSH2 0x411 DUP8 DUP6 DUP2 MLOAD DUP2 LT ISZERO ISZERO PUSH2 0x401 JUMPI INVALID JUMPDEST SWAP1 PUSH1 0x20 ADD SWAP1 PUSH1 0x20 MUL ADD MLOAD DUP4 PUSH2 0x59A JUMP JUMPDEST SWAP1 POP PUSH2 0x41D DUP6 DUP3 PUSH2 0x13AD JUMP JUMPDEST DUP5 MLOAD DUP7 EQ ISZERO PUSH2 0x42B JUMPI PUSH2 0x436 JUMP JUMPDEST PUSH1 0x1 SWAP1 SWAP4 ADD SWAP3 PUSH2 0x394 JUMP JUMPDEST POP POP POP POP SWAP3 SWAP2 POP POP JUMP JUMPDEST PUSH2 0x251C DUP2 JUMP JUMPDEST PUSH1 0x40 DUP1 MLOAD PUSH32 0x454950373132446F6D61696E2800000000000000000000000000000000000000 PUSH1 0x20 DUP1 DUP4 ADD SWAP2 SWAP1 SWAP2 MSTORE PUSH32 0x737472696E67206E616D652C0000000000000000000000000000000000000000 PUSH1 0x2D DUP4 ADD MSTORE PUSH32 0x737472696E672076657273696F6E2C0000000000000000000000000000000000 PUSH1 0x39 DUP4 ADD MSTORE PUSH32 0x6164647265737320766572696679696E67436F6E747261637400000000000000 PUSH1 0x48 DUP4 ADD MSTORE PUSH32 0x2900000000000000000000000000000000000000000000000000000000000000 PUSH1 0x61 DUP4 ADD MSTORE DUP3 MLOAD PUSH1 0x42 DUP2 DUP5 SUB ADD DUP2 MSTORE PUSH1 0x62 SWAP1 SWAP3 ADD SWAP3 DUP4 SWAP1 MSTORE DUP2 MLOAD SWAP2 SWAP3 SWAP2 DUP3 SWAP2 DUP5 ADD SWAP1 DUP1 DUP4 DUP4 JUMPDEST PUSH1 0x20 DUP4 LT PUSH2 0x56A JUMPI DUP1 MLOAD DUP3 MSTORE PUSH32 0xFFFFFFFFFFFFFFFFFFFFFFFFFFFFFFFFFFFFFFFFFFFFFFFFFFFFFFFFFFFFFFE0 SWAP1 SWAP3 ADD SWAP2 PUSH1 0x20 SWAP2 DUP3 ADD SWAP2 ADD PUSH2 0x52D JUMP JUMPDEST PUSH1 0x1 DUP4 PUSH1 0x20 SUB PUSH2 0x100 EXP SUB DUP1 NOT DUP3 MLOAD AND DUP2 DUP5 MLOAD AND DUP1 DUP3 OR DUP6 MSTORE POP POP POP POP POP POP SWAP1 POP ADD SWAP2 POP POP PUSH1 0x40 MLOAD DUP1 SWAP2 SUB SWAP1 KECCAK256 DUP2 JUMP JUMPDEST PUSH2 0x5A2 PUSH2 0x2724 JUMP JUMPDEST PUSH1 0x2 SLOAD PUSH1 0x40 MLOAD PUSH32 0xAD1876B500000000000000000000000000000000000000000000000000000000 DUP2 MSTORE PUSH20 0xFFFFFFFFFFFFFFFFFFFFFFFFFFFFFFFFFFFFFFFF SWAP1 SWAP2 AND SWAP1 PUSH4 0xAD1876B5 SWAP1 PUSH2 0x5FA SWAP1 DUP7 SWAP1 DUP7 SWAP1 PUSH1 0x4 ADD PUSH2 0x3371 JUMP JUMPDEST PUSH1 0x80 PUSH1 0x40 MLOAD DUP1 DUP4 SUB DUP2 PUSH1 0x0 DUP8 DUP1 EXTCODESIZE ISZERO DUP1 ISZERO PUSH2 0x614 JUMPI PUSH1 0x0 DUP1 REVERT JUMPDEST POP GAS CALL ISZERO DUP1 ISZERO PUSH2 0x628 JUMPI RETURNDATASIZE PUSH1 0x0 DUP1 RETURNDATACOPY RETURNDATASIZE PUSH1 0x0 REVERT JUMPDEST POP POP POP POP PUSH1 0x40 MLOAD RETURNDATASIZE PUSH1 0x1F NOT PUSH1 0x1F DUP3 ADD AND DUP3 ADD DUP1 PUSH1 0x40 MSTORE POP PUSH2 0x64C SWAP2 SWAP1 DUP2 ADD SWAP1 PUSH2 0x2D6D JUMP JUMPDEST SWAP1 POP JUMPDEST SWAP3 SWAP2 POP POP JUMP JUMPDEST PUSH2 0x65D PUSH2 0x2724 JUMP JUMPDEST PUSH1 0x40 DUP1 MLOAD DUP1 DUP3 ADD SWAP1 SWAP2 MSTORE PUSH1 0x17 DUP2 MSTORE PUSH32 0x56414C55455F475245415445525F5448414E5F5A45524F000000000000000000 PUSH1 0x20 DUP3 ADD MSTORE PUSH1 0x0 SWAP1 DUP2 SWAP1 CALLVALUE DUP3 LT PUSH2 0x6D0 JUMPI PUSH1 0x40 MLOAD PUSH32 0x8C379A000000000000000000000000000000000000000000000000000000000 DUP2 MSTORE PUSH1 0x4 ADD PUSH2 0x194 SWAP2 SWAP1 PUSH2 0x3302 JUMP JUMPDEST POP PUSH2 0x6DC CALLVALUE DUP7 DUP7 PUSH2 0x140F JUMP JUMPDEST SWAP2 POP PUSH1 0x5 PUSH1 0x0 SWAP1 SLOAD SWAP1 PUSH2 0x100 EXP SWAP1 DIV PUSH20 0xFFFFFFFFFFFFFFFFFFFFFFFFFFFFFFFFFFFFFFFF AND PUSH20 0xFFFFFFFFFFFFFFFFFFFFFFFFFFFFFFFFFFFFFFFF AND PUSH4 0xD0E30DB0 DUP4 PUSH1 0x40 MLOAD DUP3 PUSH4 0xFFFFFFFF AND PUSH29 0x100000000000000000000000000000000000000000000000000000000 MUL DUP2 MSTORE PUSH1 0x4 ADD PUSH1 0x0 PUSH1 0x40 MLOAD DUP1 DUP4 SUB DUP2 DUP6 DUP9 DUP1 EXTCODESIZE ISZERO DUP1 ISZERO PUSH2 0x764 JUMPI PUSH1 0x0 DUP1 REVERT JUMPDEST POP GAS CALL ISZERO DUP1 ISZERO PUSH2 0x778 JUMPI RETURNDATASIZE PUSH1 0x0 DUP1 RETURNDATACOPY RETURNDATASIZE PUSH1 0x0 REVERT JUMPDEST POP POP POP POP POP PUSH2 0x7A5 DUP10 PUSH1 0x0 DUP2 MLOAD DUP2 LT ISZERO ISZERO PUSH2 0x78F JUMPI INVALID JUMPDEST SWAP1 PUSH1 0x20 ADD SWAP1 PUSH1 0x20 MUL ADD MLOAD PUSH2 0x140 ADD MLOAD PUSH1 0x10 PUSH2 0x152A JUMP JUMPDEST PUSH1 0x4 DUP1 SLOAD PUSH1 0x40 DUP1 MLOAD PUSH1 0x20 PUSH1 0x1F PUSH1 0x2 PUSH32 0xFFFFFFFFFFFFFFFFFFFFFFFFFFFFFFFFFFFFFFFFFFFFFFFFFFFFFFFFFFFFFFFF PUSH2 0x100 PUSH1 0x1 DUP9 AND ISZERO MUL ADD SWAP1 SWAP6 AND SWAP5 SWAP1 SWAP5 DIV SWAP4 DUP5 ADD DUP2 SWAP1 DIV DUP2 MUL DUP3 ADD DUP2 ADD SWAP1 SWAP3 MSTORE DUP3 DUP2 MSTORE SWAP4 SWAP5 POP DUP4 ADD DUP3 DUP3 DUP1 ISZERO PUSH2 0x84B JUMPI DUP1 PUSH1 0x1F LT PUSH2 0x820 JUMPI PUSH2 0x100 DUP1 DUP4 SLOAD DIV MUL DUP4 MSTORE SWAP2 PUSH1 0x20 ADD SWAP2 PUSH2 0x84B JUMP JUMPDEST DUP3 ADD SWAP2 SWAP1 PUSH1 0x0 MSTORE PUSH1 0x20 PUSH1 0x0 KECCAK256 SWAP1 JUMPDEST DUP2 SLOAD DUP2 MSTORE SWAP1 PUSH1 0x1 ADD SWAP1 PUSH1 0x20 ADD DUP1 DUP4 GT PUSH2 0x82E JUMPI DUP3 SWAP1 SUB PUSH1 0x1F AND DUP3 ADD SWAP2 JUMPDEST POP POP POP POP POP DUP10 PUSH1 0x0 DUP2 MLOAD DUP2 LT ISZERO ISZERO PUSH2 0x85F JUMPI INVALID JUMPDEST PUSH1 0x20 SWAP1 DUP2 MUL SWAP1 SWAP2 ADD ADD MLOAD PUSH2 0x160 ADD MSTORE PUSH1 0x6 SLOAD PUSH20 0xFFFFFFFFFFFFFFFFFFFFFFFFFFFFFFFFFFFFFFFF DUP3 DUP2 AND SWAP2 AND EQ ISZERO PUSH2 0x8A3 JUMPI PUSH2 0x89C DUP10 DUP10 DUP5 PUSH2 0x158B JUMP JUMPDEST SWAP3 POP PUSH2 0x8B3 JUMP JUMPDEST PUSH2 0x8B0 DUP10 DUP10 DUP10 DUP10 DUP7 PUSH2 0x16DC JUMP JUMPDEST SWAP3 POP JUMPDEST DUP3 PUSH1 0x20 ADD MLOAD DUP3 EQ PUSH1 0x40 DUP1 MLOAD SWAP1 DUP2 ADD PUSH1 0x40 MSTORE DUP1 PUSH1 0x16 DUP2 MSTORE PUSH1 0x20 ADD PUSH32 0x554E41434345505441424C455F5448524553484F4C4400000000000000000000 DUP2 MSTORE POP SWAP1 ISZERO ISZERO PUSH2 0x92A JUMPI PUSH1 0x40 MLOAD PUSH32 0x8C379A000000000000000000000000000000000000000000000000000000000 DUP2 MSTORE PUSH1 0x4 ADD PUSH2 0x194 SWAP2 SWAP1 PUSH2 0x3302 JUMP JUMPDEST POP PUSH2 0x93A DUP2 CALLER DUP6 PUSH1 0x0 ADD MLOAD PUSH2 0x189B JUMP JUMPDEST POP POP SWAP7 SWAP6 POP POP POP POP POP POP JUMP JUMPDEST PUSH1 0x0 SLOAD PUSH20 0xFFFFFFFFFFFFFFFFFFFFFFFFFFFFFFFFFFFFFFFF AND DUP2 JUMP JUMPDEST PUSH1 0x40 DUP1 MLOAD PUSH32 0x4552433230546F6B656E28616464726573732900000000000000000000000000 DUP2 MSTORE SWAP1 MLOAD SWAP1 DUP2 SWAP1 SUB PUSH1 0x13 ADD SWAP1 KECCAK256 DUP2 JUMP JUMPDEST PUSH2 0x99F PUSH2 0x2724 JUMP JUMPDEST PUSH1 0x40 DUP1 MLOAD DUP1 DUP3 ADD SWAP1 SWAP2 MSTORE PUSH1 0x17 DUP2 MSTORE PUSH32 0x56414C55455F475245415445525F5448414E5F5A45524F000000000000000000 PUSH1 0x20 DUP3 ADD MSTORE PUSH1 0x0 SWAP1 DUP2 SWAP1 CALLVALUE DUP3 LT PUSH2 0xA12 JUMPI PUSH1 0x40 MLOAD PUSH32 0x8C379A000000000000000000000000000000000000000000000000000000000 DUP2 MSTORE PUSH1 0x4 ADD PUSH2 0x194 SWAP2 SWAP1 PUSH2 0x3302 JUMP JUMPDEST POP CALLVALUE SWAP2 POP PUSH2 0xA3E DUP11 PUSH1 0x0 DUP2 MLOAD DUP2 LT ISZERO ISZERO PUSH2 0xA28 JUMPI INVALID JUMPDEST SWAP1 PUSH1 0x20 ADD SWAP1 PUSH1 0x20 MUL ADD MLOAD PUSH2 0x140 ADD MLOAD PUSH1 0x0 PUSH2 0x19B5 JUMP JUMPDEST PUSH1 0x40 DUP1 MLOAD PUSH32 0x4552433230546F6B656E28616464726573732900000000000000000000000000 DUP2 MSTORE SWAP1 MLOAD SWAP1 DUP2 SWAP1 SUB PUSH1 0x13 ADD SWAP1 KECCAK256 SWAP1 SWAP2 POP PUSH32 0xFFFFFFFF00000000000000000000000000000000000000000000000000000000 DUP1 DUP4 AND SWAP2 AND EQ DUP1 PUSH2 0xB20 JUMPI POP PUSH1 0x40 DUP1 MLOAD PUSH32 0x455243373231546F6B656E28616464726573732C75696E743235362C62797465 DUP2 MSTORE PUSH32 0x7329000000000000000000000000000000000000000000000000000000000000 PUSH1 0x20 DUP3 ADD MSTORE SWAP1 MLOAD SWAP1 DUP2 SWAP1 SUB PUSH1 0x22 ADD SWAP1 KECCAK256 PUSH32 0xFFFFFFFF00000000000000000000000000000000000000000000000000000000 DUP3 DUP2 AND SWAP2 AND EQ JUMPDEST PUSH1 0x40 DUP1 MLOAD DUP1 DUP3 ADD SWAP1 SWAP2 MSTORE PUSH1 0x17 DUP2 MSTORE PUSH32 0x554E535550504F525445445F544F4B454E5F50524F5859000000000000000000 PUSH1 0x20 DUP3 ADD MSTORE SWAP1 ISZERO ISZERO PUSH2 0xB8E JUMPI PUSH1 0x40 MLOAD PUSH32 0x8C379A000000000000000000000000000000000000000000000000000000000 DUP2 MSTORE PUSH1 0x4 ADD PUSH2 0x194 SWAP2 SWAP1 PUSH2 0x3302 JUMP JUMPDEST POP PUSH1 0x5 PUSH1 0x0 SWAP1 SLOAD SWAP1 PUSH2 0x100 EXP SWAP1 DIV PUSH20 0xFFFFFFFFFFFFFFFFFFFFFFFFFFFFFFFFFFFFFFFF AND PUSH20 0xFFFFFFFFFFFFFFFFFFFFFFFFFFFFFFFFFFFFFFFF AND PUSH4 0xD0E30DB0 DUP4 PUSH1 0x40 MLOAD DUP3 PUSH4 0xFFFFFFFF AND PUSH29 0x100000000000000000000000000000000000000000000000000000000 MUL DUP2 MSTORE PUSH1 0x4 ADD PUSH1 0x0 PUSH1 0x40 MLOAD DUP1 DUP4 SUB DUP2 DUP6 DUP9 DUP1 EXTCODESIZE ISZERO DUP1 ISZERO PUSH2 0xC15 JUMPI PUSH1 0x0 DUP1 REVERT JUMPDEST POP GAS CALL ISZERO DUP1 ISZERO PUSH2 0xC29 JUMPI RETURNDATASIZE PUSH1 0x0 DUP1 RETURNDATACOPY RETURNDATASIZE PUSH1 0x0 REVERT JUMPDEST POP POP PUSH1 0x40 DUP1 MLOAD PUSH32 0x4552433230546F6B656E28616464726573732900000000000000000000000000 DUP2 MSTORE SWAP1 MLOAD SWAP1 DUP2 SWAP1 SUB PUSH1 0x13 ADD SWAP1 KECCAK256 PUSH32 0xFFFFFFFF00000000000000000000000000000000000000000000000000000000 DUP6 DUP2 AND SWAP2 AND EQ ISZERO SWAP3 POP PUSH2 0xCA2 SWAP2 POP POP JUMPI PUSH2 0xC9B DUP11 DUP11 DUP11 DUP11 DUP11 PUSH2 0x1A22 JUMP JUMPDEST SWAP3 POP PUSH2 0xD36 JUMP JUMPDEST PUSH1 0x40 DUP1 MLOAD PUSH32 0x455243373231546F6B656E28616464726573732C75696E743235362C62797465 DUP2 MSTORE PUSH32 0x7329000000000000000000000000000000000000000000000000000000000000 PUSH1 0x20 DUP3 ADD MSTORE SWAP1 MLOAD SWAP1 DUP2 SWAP1 SUB PUSH1 0x22 ADD SWAP1 KECCAK256 PUSH32 0xFFFFFFFF00000000000000000000000000000000000000000000000000000000 DUP3 DUP2 AND SWAP2 AND EQ ISZERO PUSH2 0xD36 JUMPI PUSH2 0xD33 DUP11 DUP11 DUP11 DUP11 DUP11 PUSH2 0x1D3E JUMP JUMPDEST SWAP3 POP JUMPDEST PUSH2 0xD44 DUP3 DUP5 PUSH1 0x20 ADD MLOAD PUSH2 0x137E JUMP JUMPDEST SWAP2 POP PUSH2 0xD54 DUP3 DUP5 PUSH1 0x20 ADD MLOAD PUSH2 0x20CE JUMP JUMPDEST PUSH1 0x40 DUP1 MLOAD DUP1 DUP3 ADD SWAP1 SWAP2 MSTORE PUSH1 0x16 DUP2 MSTORE PUSH32 0x554E41434345505441424C455F5448524553484F4C4400000000000000000000 PUSH1 0x20 DUP3 ADD MSTORE SWAP1 ISZERO ISZERO PUSH2 0xDC2 JUMPI PUSH1 0x40 MLOAD PUSH32 0x8C379A000000000000000000000000000000000000000000000000000000000 DUP2 MSTORE PUSH1 0x4 ADD PUSH2 0x194 SWAP2 SWAP1 PUSH2 0x3302 JUMP JUMPDEST POP PUSH2 0xDD3 DUP3 DUP5 PUSH1 0x20 ADD MLOAD DUP8 DUP8 PUSH2 0x20EB JUMP JUMPDEST POP POP POP SWAP8 SWAP7 POP POP POP POP POP POP POP JUMP JUMPDEST PUSH1 0x40 DUP1 MLOAD PUSH32 0x455243373231546F6B656E28616464726573732C75696E743235362C62797465 DUP2 MSTORE PUSH32 0x7329000000000000000000000000000000000000000000000000000000000000 PUSH1 0x20 DUP3 ADD MSTORE SWAP1 MLOAD SWAP1 DUP2 SWAP1 SUB PUSH1 0x22 ADD SWAP1 KECCAK256 DUP2 JUMP JUMPDEST PUSH2 0x2710 DUP2 JUMP JUMPDEST PUSH2 0x3E8 DUP2 JUMP JUMPDEST PUSH2 0xE50 PUSH2 0x2724 JUMP JUMPDEST PUSH1 0x0 DUP1 PUSH1 0x0 DUP1 PUSH2 0xE5E PUSH2 0x2724 JUMP JUMPDEST PUSH2 0xE70 DUP9 PUSH1 0x0 DUP2 MLOAD DUP2 LT ISZERO ISZERO PUSH2 0x78F JUMPI INVALID JUMPDEST PUSH1 0x6 SLOAD PUSH1 0x40 DUP1 MLOAD DUP1 DUP3 ADD SWAP1 SWAP2 MSTORE PUSH1 0x18 DUP2 MSTORE PUSH32 0x54414B45525F41535345545F5A52585F52455155495245440000000000000000 PUSH1 0x20 DUP3 ADD MSTORE SWAP2 SWAP7 POP PUSH20 0xFFFFFFFFFFFFFFFFFFFFFFFFFFFFFFFFFFFFFFFF DUP1 DUP9 AND SWAP2 AND EQ PUSH2 0xEFC JUMPI PUSH1 0x40 MLOAD PUSH32 0x8C379A000000000000000000000000000000000000000000000000000000000 DUP2 MSTORE PUSH1 0x4 ADD PUSH2 0x194 SWAP2 SWAP1 PUSH2 0x3302 JUMP JUMPDEST POP PUSH1 0x0 SWAP4 POP JUMPDEST DUP8 MLOAD DUP5 LT ISZERO PUSH2 0xFE0 JUMPI PUSH2 0xF19 DUP8 DUP8 PUSH1 0x0 ADD MLOAD PUSH2 0x137E JUMP JUMPDEST SWAP3 POP PUSH2 0xF80 DUP9 DUP6 DUP2 MLOAD DUP2 LT ISZERO ISZERO PUSH2 0xF2C JUMPI INVALID JUMPDEST SWAP1 PUSH1 0x20 ADD SWAP1 PUSH1 0x20 MUL ADD MLOAD PUSH1 0xA0 ADD MLOAD PUSH2 0xF7A DUP11 DUP8 DUP2 MLOAD DUP2 LT ISZERO ISZERO PUSH2 0xF4B JUMPI INVALID JUMPDEST SWAP1 PUSH1 0x20 ADD SWAP1 PUSH1 0x20 MUL ADD MLOAD PUSH1 0x80 ADD MLOAD DUP12 DUP9 DUP2 MLOAD DUP2 LT ISZERO ISZERO PUSH2 0xF67 JUMPI INVALID JUMPDEST SWAP1 PUSH1 0x20 ADD SWAP1 PUSH1 0x20 MUL ADD MLOAD PUSH1 0xE0 ADD MLOAD PUSH2 0x137E JUMP JUMPDEST DUP6 PUSH2 0x1390 JUMP JUMPDEST SWAP2 POP PUSH2 0xFA8 DUP9 DUP6 DUP2 MLOAD DUP2 LT ISZERO ISZERO PUSH2 0xF93 JUMPI INVALID JUMPDEST SWAP1 PUSH1 0x20 ADD SWAP1 PUSH1 0x20 MUL ADD MLOAD PUSH2 0x235 DUP5 PUSH1 0x1 PUSH2 0x21E5 JUMP JUMPDEST SWAP1 POP PUSH2 0xFBC DUP2 PUSH1 0x0 ADD MLOAD DUP3 PUSH1 0x60 ADD MLOAD PUSH2 0x137E JUMP JUMPDEST DUP2 MSTORE PUSH2 0xFC8 DUP7 DUP3 PUSH2 0x13AD JUMP JUMPDEST DUP6 MLOAD DUP8 GT PUSH2 0xFD5 JUMPI PUSH2 0xFE0 JUMP JUMPDEST PUSH1 0x1 SWAP1 SWAP4 ADD SWAP3 PUSH2 0xF02 JUMP JUMPDEST POP POP POP POP POP SWAP3 SWAP2 POP POP JUMP JUMPDEST PUSH1 0x1 SLOAD DUP2 JUMP JUMPDEST PUSH32 0xF0B9E5BA00000000000000000000000000000000000000000000000000000000 JUMPDEST SWAP4 SWAP3 POP POP POP JUMP JUMPDEST PUSH1 0x0 DUP1 SLOAD PUSH20 0xFFFFFFFFFFFFFFFFFFFFFFFFFFFFFFFFFFFFFFFF AND CALLER EQ PUSH2 0x106C JUMPI PUSH1 0x40 MLOAD PUSH32 0x8C379A000000000000000000000000000000000000000000000000000000000 DUP2 MSTORE PUSH1 0x4 ADD PUSH2 0x194 SWAP1 PUSH2 0x3333 JUMP JUMPDEST PUSH1 0x2 SLOAD PUSH1 0x40 MLOAD PUSH32 0x6070410800000000000000000000000000000000000000000000000000000000 DUP2 MSTORE PUSH20 0xFFFFFFFFFFFFFFFFFFFFFFFFFFFFFFFFFFFFFFFF SWAP1 SWAP2 AND SWAP1 PUSH4 0x60704108 SWAP1 PUSH2 0x10C2 SWAP1 DUP6 SWAP1 PUSH1 0x4 ADD PUSH2 0x32F4 JUMP JUMPDEST PUSH1 0x20 PUSH1 0x40 MLOAD DUP1 DUP4 SUB DUP2 PUSH1 0x0 DUP8 DUP1 EXTCODESIZE ISZERO DUP1 ISZERO PUSH2 0x10DC JUMPI PUSH1 0x0 DUP1 REVERT JUMPDEST POP GAS CALL ISZERO DUP1 ISZERO PUSH2 0x10F0 JUMPI RETURNDATASIZE PUSH1 0x0 DUP1 RETURNDATACOPY RETURNDATASIZE PUSH1 0x0 REVERT JUMPDEST POP POP POP POP PUSH1 0x40 MLOAD RETURNDATASIZE PUSH1 0x1F NOT PUSH1 0x1F DUP3 ADD AND DUP3 ADD DUP1 PUSH1 0x40 MSTORE POP PUSH2 0x1114 SWAP2 SWAP1 DUP2 ADD SWAP1 PUSH2 0x2A7C JUMP JUMPDEST SWAP1 POP PUSH20 0xFFFFFFFFFFFFFFFFFFFFFFFFFFFFFFFFFFFFFFFF DUP2 AND ISZERO PUSH2 0x12C9 JUMPI PUSH1 0x5 SLOAD PUSH1 0x40 MLOAD PUSH32 0x95EA7B300000000000000000000000000000000000000000000000000000000 DUP2 MSTORE PUSH20 0xFFFFFFFFFFFFFFFFFFFFFFFFFFFFFFFFFFFFFFFF SWAP1 SWAP2 AND SWAP1 PUSH4 0x95EA7B3 SWAP1 PUSH2 0x11AA SWAP1 DUP5 SWAP1 PUSH32 0xFFFFFFFFFFFFFFFFFFFFFFFFFFFFFFFFFFFFFFFFFFFFFFFFFFFFFFFFFFFFFFFF SWAP1 PUSH1 0x4 ADD PUSH2 0x3260 JUMP JUMPDEST PUSH1 0x20 PUSH1 0x40 MLOAD DUP1 DUP4 SUB DUP2 PUSH1 0x0 DUP8 DUP1 EXTCODESIZE ISZERO DUP1 ISZERO PUSH2 0x11C4 JUMPI PUSH1 0x0 DUP1 REVERT JUMPDEST POP GAS CALL ISZERO DUP1 ISZERO PUSH2 0x11D8 JUMPI RETURNDATASIZE PUSH1 0x0 DUP1 RETURNDATACOPY RETURNDATASIZE PUSH1 0x0 REVERT JUMPDEST POP POP POP POP PUSH1 0x40 MLOAD RETURNDATASIZE PUSH1 0x1F NOT PUSH1 0x1F DUP3 ADD AND DUP3 ADD DUP1 PUSH1 0x40 MSTORE POP PUSH2 0x11FC SWAP2 SWAP1 DUP2 ADD SWAP1 PUSH2 0x2D31 JUMP JUMPDEST POP PUSH1 0x6 SLOAD PUSH1 0x40 MLOAD PUSH32 0x95EA7B300000000000000000000000000000000000000000000000000000000 DUP2 MSTORE PUSH20 0xFFFFFFFFFFFFFFFFFFFFFFFFFFFFFFFFFFFFFFFF SWAP1 SWAP2 AND SWAP1 PUSH4 0x95EA7B3 SWAP1 PUSH2 0x1275 SWAP1 DUP5 SWAP1 PUSH32 0xFFFFFFFFFFFFFFFFFFFFFFFFFFFFFFFFFFFFFFFFFFFFFFFFFFFFFFFFFFFFFFFF SWAP1 PUSH1 0x4 ADD PUSH2 0x3260 JUMP JUMPDEST PUSH1 0x20 PUSH1 0x40 MLOAD DUP1 DUP4 SUB DUP2 PUSH1 0x0 DUP8 DUP1 EXTCODESIZE ISZERO DUP1 ISZERO PUSH2 0x128F JUMPI PUSH1 0x0 DUP1 REVERT JUMPDEST POP GAS CALL ISZERO DUP1 ISZERO PUSH2 0x12A3 JUMPI RETURNDATASIZE PUSH1 0x0 DUP1 RETURNDATACOPY RETURNDATASIZE PUSH1 0x0 REVERT JUMPDEST POP POP POP POP PUSH1 0x40 MLOAD RETURNDATASIZE PUSH1 0x1F NOT PUSH1 0x1F DUP3 ADD AND DUP3 ADD DUP1 PUSH1 0x40 MSTORE POP PUSH2 0x12C7 SWAP2 SWAP1 DUP2 ADD SWAP1 PUSH2 0x2D31 JUMP JUMPDEST POP JUMPDEST POP POP JUMP JUMPDEST PUSH1 0x0 SLOAD PUSH20 0xFFFFFFFFFFFFFFFFFFFFFFFFFFFFFFFFFFFFFFFF AND CALLER EQ PUSH2 0x131E JUMPI PUSH1 0x40 MLOAD PUSH32 0x8C379A000000000000000000000000000000000000000000000000000000000 DUP2 MSTORE PUSH1 0x4 ADD PUSH2 0x194 SWAP1 PUSH2 0x3333 JUMP JUMPDEST PUSH20 0xFFFFFFFFFFFFFFFFFFFFFFFFFFFFFFFFFFFFFFFF DUP2 AND ISZERO PUSH2 0x137B JUMPI PUSH1 0x0 DUP1 SLOAD PUSH32 0xFFFFFFFFFFFFFFFFFFFFFFFF0000000000000000000000000000000000000000 AND PUSH20 0xFFFFFFFFFFFFFFFFFFFFFFFFFFFFFFFFFFFFFFFF DUP4 AND OR SWAP1 SSTORE JUMPDEST POP JUMP JUMPDEST PUSH1 0x0 DUP3 DUP3 GT ISZERO PUSH2 0x138A JUMPI INVALID JUMPDEST POP SWAP1 SUB SWAP1 JUMP JUMPDEST PUSH1 0x0 PUSH2 0x13A5 PUSH2 0x139F DUP6 DUP5 PUSH2 0x21F4 JUMP JUMPDEST DUP5 PUSH2 0x2218 JUMP JUMPDEST SWAP5 SWAP4 POP POP POP POP JUMP JUMPDEST DUP2 MLOAD DUP2 MLOAD PUSH2 0x13BB SWAP2 SWAP1 PUSH2 0x21E5 JUMP JUMPDEST DUP3 MSTORE PUSH1 0x20 DUP1 DUP4 ADD MLOAD SWAP1 DUP3 ADD MLOAD PUSH2 0x13D1 SWAP2 SWAP1 PUSH2 0x21E5 JUMP JUMPDEST PUSH1 0x20 DUP4 ADD MSTORE PUSH1 0x40 DUP1 DUP4 ADD MLOAD SWAP1 DUP3 ADD MLOAD PUSH2 0x13EA SWAP2 SWAP1 PUSH2 0x21E5 JUMP JUMPDEST PUSH1 0x40 DUP4 ADD MSTORE PUSH1 0x60 DUP1 DUP4 ADD MLOAD SWAP1 DUP3 ADD MLOAD PUSH2 0x1403 SWAP2 SWAP1 PUSH2 0x21E5 JUMP JUMPDEST PUSH1 0x60 SWAP1 SWAP3 ADD SWAP2 SWAP1 SWAP2 MSTORE POP JUMP JUMPDEST DUP3 PUSH1 0x0 PUSH2 0xFFFF DUP5 AND DUP2 LT DUP1 ISZERO PUSH2 0x143A JUMPI POP PUSH20 0xFFFFFFFFFFFFFFFFFFFFFFFFFFFFFFFFFFFFFFFF DUP4 AND ISZERO ISZERO JUMPDEST ISZERO PUSH2 0x1522 JUMPI PUSH1 0x40 DUP1 MLOAD DUP1 DUP3 ADD SWAP1 SWAP2 MSTORE PUSH1 0x18 DUP2 MSTORE PUSH32 0x4645455F50524F504F5254494F4E5F544F4F5F4C415247450000000000000000 PUSH1 0x20 DUP3 ADD MSTORE PUSH2 0x3E8 PUSH2 0xFFFF DUP7 AND GT ISZERO PUSH2 0x14B4 JUMPI PUSH1 0x40 MLOAD PUSH32 0x8C379A000000000000000000000000000000000000000000000000000000000 DUP2 MSTORE PUSH1 0x4 ADD PUSH2 0x194 SWAP2 SWAP1 PUSH2 0x3302 JUMP JUMPDEST POP PUSH2 0x14CE PUSH2 0x14C6 DUP4 DUP7 PUSH2 0xFFFF AND PUSH2 0x21F4 JUMP JUMPDEST PUSH2 0x2710 PUSH2 0x2218 JUMP JUMPDEST SWAP1 POP PUSH2 0x14DA DUP3 DUP3 PUSH2 0x137E JUMP JUMPDEST PUSH1 0x40 MLOAD SWAP1 SWAP3 POP PUSH20 0xFFFFFFFFFFFFFFFFFFFFFFFFFFFFFFFFFFFFFFFF DUP5 AND SWAP1 DUP3 ISZERO PUSH2 0x8FC MUL SWAP1 DUP4 SWAP1 PUSH1 0x0 DUP2 DUP2 DUP2 DUP6 DUP9 DUP9 CALL SWAP4 POP POP POP POP ISZERO DUP1 ISZERO PUSH2 0x1520 JUMPI RETURNDATASIZE PUSH1 0x0 DUP1 RETURNDATACOPY RETURNDATASIZE PUSH1 0x0 REVERT JUMPDEST POP JUMPDEST POP SWAP4 SWAP3 POP POP POP JUMP JUMPDEST PUSH1 0x0 DUP2 PUSH1 0x14 ADD DUP4 MLOAD LT ISZERO ISZERO ISZERO PUSH2 0x156C JUMPI PUSH1 0x40 MLOAD PUSH32 0x8C379A000000000000000000000000000000000000000000000000000000000 DUP2 MSTORE PUSH1 0x4 ADD PUSH2 0x194 SWAP1 PUSH2 0x3343 JUMP JUMPDEST POP ADD PUSH1 0x14 ADD MLOAD PUSH20 0xFFFFFFFFFFFFFFFFFFFFFFFFFFFFFFFFFFFFFFFF AND SWAP1 JUMP JUMPDEST PUSH2 0x1593 PUSH2 0x2724 JUMP JUMPDEST PUSH1 0x2 SLOAD PUSH1 0x40 MLOAD PUSH32 0x7E1D980800000000000000000000000000000000000000000000000000000000 DUP2 MSTORE PUSH1 0x0 SWAP2 PUSH20 0xFFFFFFFFFFFFFFFFFFFFFFFFFFFFFFFFFFFFFFFF AND SWAP1 PUSH4 0x7E1D9808 SWAP1 PUSH2 0x15EE SWAP1 DUP9 SWAP1 DUP8 SWAP1 DUP10 SWAP1 PUSH1 0x4 ADD PUSH2 0x32B4 JUMP JUMPDEST PUSH1 0x80 PUSH1 0x40 MLOAD DUP1 DUP4 SUB DUP2 PUSH1 0x0 DUP8 DUP1 EXTCODESIZE ISZERO DUP1 ISZERO PUSH2 0x1608 JUMPI PUSH1 0x0 DUP1 REVERT JUMPDEST POP GAS CALL ISZERO DUP1 ISZERO PUSH2 0x161C JUMPI RETURNDATASIZE PUSH1 0x0 DUP1 RETURNDATACOPY RETURNDATASIZE PUSH1 0x0 REVERT JUMPDEST POP POP POP POP PUSH1 0x40 MLOAD RETURNDATASIZE PUSH1 0x1F NOT PUSH1 0x1F DUP3 ADD AND DUP3 ADD DUP1 PUSH1 0x40 MSTORE POP PUSH2 0x1640 SWAP2 SWAP1 DUP2 ADD SWAP1 PUSH2 0x2D6D JUMP JUMPDEST SWAP2 POP PUSH2 0x1654 DUP3 PUSH1 0x0 ADD MLOAD DUP4 PUSH1 0x60 ADD MLOAD PUSH2 0x137E JUMP JUMPDEST SWAP1 POP PUSH2 0x1664 DUP3 PUSH1 0x0 ADD MLOAD DUP3 PUSH2 0x20CE JUMP JUMPDEST PUSH1 0x40 DUP1 MLOAD DUP1 DUP3 ADD SWAP1 SWAP2 MSTORE PUSH1 0x16 DUP2 MSTORE PUSH32 0x554E41434345505441424C455F5448524553484F4C4400000000000000000000 PUSH1 0x20 DUP3 ADD MSTORE SWAP1 ISZERO ISZERO PUSH2 0x16D2 JUMPI PUSH1 0x40 MLOAD PUSH32 0x8C379A000000000000000000000000000000000000000000000000000000000 DUP2 MSTORE PUSH1 0x4 ADD PUSH2 0x194 SWAP2 SWAP1 PUSH2 0x3302 JUMP JUMPDEST POP DUP2 MSTORE SWAP4 SWAP3 POP POP POP JUMP JUMPDEST PUSH2 0x16E4 PUSH2 0x2724 JUMP JUMPDEST PUSH1 0x0 PUSH2 0x16EE PUSH2 0x2724 JUMP JUMPDEST PUSH2 0x16F6 PUSH2 0x2724 JUMP JUMPDEST PUSH2 0x16FE PUSH2 0x2724 JUMP JUMPDEST DUP6 SWAP4 POP PUSH2 0x170B DUP11 DUP8 PUSH2 0x222F JUMP JUMPDEST SWAP3 POP PUSH1 0x0 DUP4 PUSH1 0x60 ADD MLOAD GT ISZERO PUSH2 0x17D6 JUMPI PUSH2 0x1729 DUP9 DUP9 DUP6 PUSH1 0x60 ADD MLOAD PUSH2 0x22A2 JUMP JUMPDEST SWAP2 POP PUSH2 0x1742 DUP7 PUSH2 0x173D DUP9 DUP6 PUSH1 0x20 ADD MLOAD PUSH2 0x137E JUMP JUMPDEST PUSH2 0x20CE JUMP JUMPDEST PUSH1 0x40 DUP1 MLOAD DUP1 DUP3 ADD SWAP1 SWAP2 MSTORE PUSH1 0x16 DUP2 MSTORE PUSH32 0x554E41434345505441424C455F5448524553484F4C4400000000000000000000 PUSH1 0x20 DUP3 ADD MSTORE SWAP1 ISZERO ISZERO PUSH2 0x17B0 JUMPI PUSH1 0x40 MLOAD PUSH32 0x8C379A000000000000000000000000000000000000000000000000000000000 DUP2 MSTORE PUSH1 0x4 ADD PUSH2 0x194 SWAP2 SWAP1 PUSH2 0x3302 JUMP JUMPDEST POP PUSH2 0x17BF DUP5 DUP4 PUSH1 0x20 ADD MLOAD PUSH2 0x137E JUMP JUMPDEST PUSH1 0x60 DUP1 DUP5 ADD MLOAD SWAP1 DUP8 ADD MSTORE PUSH1 0x20 DUP1 DUP5 ADD MLOAD SWAP1 DUP8 ADD MSTORE SWAP4 POP JUMPDEST PUSH1 0x2 SLOAD PUSH1 0x40 MLOAD PUSH32 0x7E1D980800000000000000000000000000000000000000000000000000000000 DUP2 MSTORE PUSH20 0xFFFFFFFFFFFFFFFFFFFFFFFFFFFFFFFFFFFFFFFF SWAP1 SWAP2 AND SWAP1 PUSH4 0x7E1D9808 SWAP1 PUSH2 0x1830 SWAP1 DUP14 SWAP1 DUP9 SWAP1 DUP15 SWAP1 PUSH1 0x4 ADD PUSH2 0x32B4 JUMP JUMPDEST PUSH1 0x80 PUSH1 0x40 MLOAD DUP1 DUP4 SUB DUP2 PUSH1 0x0 DUP8 DUP1 EXTCODESIZE ISZERO DUP1 ISZERO PUSH2 0x184A JUMPI PUSH1 0x0 DUP1 REVERT JUMPDEST POP GAS CALL ISZERO DUP1 ISZERO PUSH2 0x185E JUMPI RETURNDATASIZE PUSH1 0x0 DUP1 RETURNDATACOPY RETURNDATASIZE PUSH1 0x0 REVERT JUMPDEST POP POP POP POP PUSH1 0x40 MLOAD RETURNDATASIZE PUSH1 0x1F NOT PUSH1 0x1F DUP3 ADD AND DUP3 ADD DUP1 PUSH1 0x40 MSTORE POP PUSH2 0x1882 SWAP2 SWAP1 DUP2 ADD SWAP1 PUSH2 0x2D6D JUMP JUMPDEST SWAP1 POP PUSH2 0x188E DUP6 DUP3 PUSH2 0x13AD JUMP JUMPDEST POP POP POP POP SWAP6 SWAP5 POP POP POP POP POP JUMP JUMPDEST PUSH1 0x40 MLOAD PUSH32 0xA9059CBB00000000000000000000000000000000000000000000000000000000 DUP2 MSTORE PUSH20 0xFFFFFFFFFFFFFFFFFFFFFFFFFFFFFFFFFFFFFFFF DUP5 AND SWAP1 PUSH4 0xA9059CBB SWAP1 PUSH2 0x18EF SWAP1 DUP6 SWAP1 DUP6 SWAP1 PUSH1 0x4 ADD PUSH2 0x3260 JUMP JUMPDEST PUSH1 0x20 PUSH1 0x40 MLOAD DUP1 DUP4 SUB DUP2 PUSH1 0x0 DUP8 DUP1 EXTCODESIZE ISZERO DUP1 ISZERO PUSH2 0x1909 JUMPI PUSH1 0x0 DUP1 REVERT JUMPDEST POP GAS CALL ISZERO DUP1 ISZERO PUSH2 0x191D JUMPI RETURNDATASIZE PUSH1 0x0 DUP1 RETURNDATACOPY RETURNDATASIZE PUSH1 0x0 REVERT JUMPDEST POP POP POP POP PUSH1 0x40 MLOAD RETURNDATASIZE PUSH1 0x1F NOT PUSH1 0x1F DUP3 ADD AND DUP3 ADD DUP1 PUSH1 0x40 MSTORE POP PUSH2 0x1941 SWAP2 SWAP1 DUP2 ADD SWAP1 PUSH2 0x2D31 JUMP JUMPDEST PUSH1 0x40 DUP1 MLOAD DUP1 DUP3 ADD SWAP1 SWAP2 MSTORE PUSH1 0xF DUP2 MSTORE PUSH32 0x5452414E534645525F4641494C45440000000000000000000000000000000000 PUSH1 0x20 DUP3 ADD MSTORE SWAP1 ISZERO ISZERO PUSH2 0x19AF JUMPI PUSH1 0x40 MLOAD PUSH32 0x8C379A000000000000000000000000000000000000000000000000000000000 DUP2 MSTORE PUSH1 0x4 ADD PUSH2 0x194 SWAP2 SWAP1 PUSH2 0x3302 JUMP JUMPDEST POP POP POP POP JUMP JUMPDEST PUSH1 0x0 DUP2 PUSH1 0x4 ADD DUP4 MLOAD LT ISZERO ISZERO ISZERO PUSH2 0x19F7 JUMPI PUSH1 0x40 MLOAD PUSH32 0x8C379A000000000000000000000000000000000000000000000000000000000 DUP2 MSTORE PUSH1 0x4 ADD PUSH2 0x194 SWAP1 PUSH2 0x3353 JUMP JUMPDEST POP POP PUSH1 0x20 ADD MLOAD PUSH32 0xFFFFFFFF00000000000000000000000000000000000000000000000000000000 AND SWAP1 JUMP JUMPDEST PUSH2 0x1A2A PUSH2 0x2724 JUMP JUMPDEST PUSH1 0x0 PUSH2 0x1A34 PUSH2 0x2724 JUMP JUMPDEST PUSH2 0x1A3C PUSH2 0x2724 JUMP JUMPDEST PUSH2 0x1A44 PUSH2 0x2724 JUMP JUMPDEST PUSH2 0x1A56 DUP11 PUSH1 0x0 DUP2 MLOAD DUP2 LT ISZERO ISZERO PUSH2 0x78F JUMPI INVALID JUMPDEST PUSH1 0x4 DUP1 SLOAD PUSH1 0x40 DUP1 MLOAD PUSH1 0x20 PUSH1 0x1F PUSH1 0x2 PUSH32 0xFFFFFFFFFFFFFFFFFFFFFFFFFFFFFFFFFFFFFFFFFFFFFFFFFFFFFFFFFFFFFFFF PUSH2 0x100 PUSH1 0x1 DUP9 AND ISZERO MUL ADD SWAP1 SWAP6 AND SWAP5 SWAP1 SWAP5 DIV SWAP4 DUP5 ADD DUP2 SWAP1 DIV DUP2 MUL DUP3 ADD DUP2 ADD SWAP1 SWAP3 MSTORE DUP3 DUP2 MSTORE SWAP4 SWAP8 POP DUP4 ADD DUP3 DUP3 DUP1 ISZERO PUSH2 0x1AFC JUMPI DUP1 PUSH1 0x1F LT PUSH2 0x1AD1 JUMPI PUSH2 0x100 DUP1 DUP4 SLOAD DIV MUL DUP4 MSTORE SWAP2 PUSH1 0x20 ADD SWAP2 PUSH2 0x1AFC JUMP JUMPDEST DUP3 ADD SWAP2 SWAP1 PUSH1 0x0 MSTORE PUSH1 0x20 PUSH1 0x0 KECCAK256 SWAP1 JUMPDEST DUP2 SLOAD DUP2 MSTORE SWAP1 PUSH1 0x1 ADD SWAP1 PUSH1 0x20 ADD DUP1 DUP4 GT PUSH2 0x1ADF JUMPI DUP3 SWAP1 SUB PUSH1 0x1F AND DUP3 ADD SWAP2 JUMPDEST POP POP POP POP POP DUP11 PUSH1 0x0 DUP2 MLOAD DUP2 LT ISZERO ISZERO PUSH2 0x1B10 JUMPI INVALID JUMPDEST PUSH1 0x20 SWAP1 DUP2 MUL SWAP1 SWAP2 ADD ADD MLOAD PUSH2 0x160 ADD MSTORE PUSH1 0x6 SLOAD PUSH20 0xFFFFFFFFFFFFFFFFFFFFFFFFFFFFFFFFFFFFFFFF DUP6 DUP2 AND SWAP2 AND EQ ISZERO PUSH2 0x1BC6 JUMPI PUSH2 0x1B4D DUP11 DUP11 DUP9 PUSH2 0x22A2 JUMP JUMPDEST DUP1 MLOAD PUSH1 0x40 DUP1 MLOAD DUP1 DUP3 ADD SWAP1 SWAP2 MSTORE PUSH1 0x16 DUP2 MSTORE PUSH32 0x554E41434345505441424C455F5448524553484F4C4400000000000000000000 PUSH1 0x20 DUP3 ADD MSTORE SWAP2 SWAP5 POP DUP8 GT ISZERO PUSH2 0x1BC0 JUMPI PUSH1 0x40 MLOAD PUSH32 0x8C379A000000000000000000000000000000000000000000000000000000000 DUP2 MSTORE PUSH1 0x4 ADD PUSH2 0x194 SWAP2 SWAP1 PUSH2 0x3302 JUMP JUMPDEST POP PUSH2 0x1D25 JUMP JUMPDEST PUSH2 0x1BD0 DUP11 DUP8 PUSH2 0x37A JUMP JUMPDEST SWAP2 POP PUSH1 0x0 DUP3 PUSH1 0x60 ADD MLOAD GT ISZERO PUSH2 0x1C05 JUMPI PUSH2 0x1BEE DUP9 DUP9 DUP5 PUSH1 0x60 ADD MLOAD PUSH2 0x22A2 JUMP JUMPDEST PUSH1 0x20 DUP1 DUP3 ADD MLOAD SWAP1 DUP8 ADD MSTORE PUSH1 0x60 DUP1 DUP3 ADD MLOAD SWAP1 DUP8 ADD MSTORE SWAP1 POP JUMPDEST PUSH1 0x2 SLOAD PUSH1 0x40 MLOAD PUSH32 0xE5FA431B00000000000000000000000000000000000000000000000000000000 DUP2 MSTORE PUSH20 0xFFFFFFFFFFFFFFFFFFFFFFFFFFFFFFFFFFFFFFFF SWAP1 SWAP2 AND SWAP1 PUSH4 0xE5FA431B SWAP1 PUSH2 0x1C5F SWAP1 DUP14 SWAP1 DUP11 SWAP1 DUP15 SWAP1 PUSH1 0x4 ADD PUSH2 0x32B4 JUMP JUMPDEST PUSH1 0x80 PUSH1 0x40 MLOAD DUP1 DUP4 SUB DUP2 PUSH1 0x0 DUP8 DUP1 EXTCODESIZE ISZERO DUP1 ISZERO PUSH2 0x1C79 JUMPI PUSH1 0x0 DUP1 REVERT JUMPDEST POP GAS CALL ISZERO DUP1 ISZERO PUSH2 0x1C8D JUMPI RETURNDATASIZE PUSH1 0x0 DUP1 RETURNDATACOPY RETURNDATASIZE PUSH1 0x0 REVERT JUMPDEST POP POP POP POP PUSH1 0x40 MLOAD RETURNDATASIZE PUSH1 0x1F NOT PUSH1 0x1F DUP3 ADD AND DUP3 ADD DUP1 PUSH1 0x40 MSTORE POP PUSH2 0x1CB1 SWAP2 SWAP1 DUP2 ADD SWAP1 PUSH2 0x2D6D JUMP JUMPDEST DUP1 MLOAD PUSH1 0x40 DUP1 MLOAD DUP1 DUP3 ADD SWAP1 SWAP2 MSTORE PUSH1 0x16 DUP2 MSTORE PUSH32 0x554E41434345505441424C455F5448524553484F4C4400000000000000000000 PUSH1 0x20 DUP3 ADD MSTORE SWAP2 SWAP5 POP DUP8 EQ PUSH2 0x1D23 JUMPI PUSH1 0x40 MLOAD PUSH32 0x8C379A000000000000000000000000000000000000000000000000000000000 DUP2 MSTORE PUSH1 0x4 ADD PUSH2 0x194 SWAP2 SWAP1 PUSH2 0x3302 JUMP JUMPDEST POP JUMPDEST PUSH2 0x1D2F DUP6 DUP5 PUSH2 0x13AD JUMP JUMPDEST PUSH2 0x188E DUP5 CALLER DUP6 PUSH1 0x0 ADD MLOAD PUSH2 0x189B JUMP JUMPDEST PUSH2 0x1D46 PUSH2 0x2724 JUMP JUMPDEST PUSH1 0x0 DUP1 PUSH1 0x60 PUSH1 0x0 PUSH2 0x1D55 PUSH2 0x2724 JUMP JUMPDEST PUSH2 0x1D5D PUSH2 0x2724 JUMP JUMPDEST DUP12 MLOAD PUSH1 0x40 DUP1 MLOAD PUSH1 0x60 DUP2 ADD DUP3 MSTORE PUSH1 0x22 DUP2 MSTORE PUSH32 0x41535345545F414D4F554E545F4D5553545F4D415443485F4F524445525F5349 PUSH1 0x20 DUP3 ADD MSTORE PUSH32 0x5A45000000000000000000000000000000000000000000000000000000000000 SWAP2 DUP2 ADD SWAP2 SWAP1 SWAP2 MSTORE SWAP1 DUP10 EQ PUSH2 0x1DF5 JUMPI PUSH1 0x40 MLOAD PUSH32 0x8C379A000000000000000000000000000000000000000000000000000000000 DUP2 MSTORE PUSH1 0x4 ADD PUSH2 0x194 SWAP2 SWAP1 PUSH2 0x3302 JUMP JUMPDEST POP DUP12 MLOAD SWAP5 POP DUP5 PUSH1 0x40 MLOAD SWAP1 DUP1 DUP3 MSTORE DUP1 PUSH1 0x20 MUL PUSH1 0x20 ADD DUP3 ADD PUSH1 0x40 MSTORE DUP1 ISZERO PUSH2 0x1E24 JUMPI DUP2 PUSH1 0x20 ADD PUSH1 0x20 DUP3 MUL DUP1 CODESIZE DUP4 CODECOPY ADD SWAP1 POP JUMPDEST POP SWAP4 POP PUSH1 0x0 SWAP3 POP JUMPDEST DUP5 DUP4 LT ISZERO PUSH2 0x1F60 JUMPI PUSH2 0x1E59 DUP7 DUP14 DUP6 DUP2 MLOAD DUP2 LT ISZERO ISZERO PUSH2 0x1E46 JUMPI INVALID JUMPDEST SWAP1 PUSH1 0x20 ADD SWAP1 PUSH1 0x20 MUL ADD MLOAD PUSH1 0xE0 ADD MLOAD PUSH2 0x21E5 JUMP JUMPDEST PUSH1 0x4 DUP1 SLOAD PUSH1 0x40 DUP1 MLOAD PUSH1 0x20 PUSH1 0x1F PUSH1 0x2 PUSH32 0xFFFFFFFFFFFFFFFFFFFFFFFFFFFFFFFFFFFFFFFFFFFFFFFFFFFFFFFFFFFFFFFF PUSH2 0x100 PUSH1 0x1 DUP9 AND ISZERO MUL ADD SWAP1 SWAP6 AND SWAP5 SWAP1 SWAP5 DIV SWAP4 DUP5 ADD DUP2 SWAP1 DIV DUP2 MUL DUP3 ADD DUP2 ADD SWAP1 SWAP3 MSTORE DUP3 DUP2 MSTORE SWAP4 SWAP10 POP DUP4 ADD DUP3 DUP3 DUP1 ISZERO PUSH2 0x1EFF JUMPI DUP1 PUSH1 0x1F LT PUSH2 0x1ED4 JUMPI PUSH2 0x100 DUP1 DUP4 SLOAD DIV MUL DUP4 MSTORE SWAP2 PUSH1 0x20 ADD SWAP2 PUSH2 0x1EFF JUMP JUMPDEST DUP3 ADD SWAP2 SWAP1 PUSH1 0x0 MSTORE PUSH1 0x20 PUSH1 0x0 KECCAK256 SWAP1 JUMPDEST DUP2 SLOAD DUP2 MSTORE SWAP1 PUSH1 0x1 ADD SWAP1 PUSH1 0x20 ADD DUP1 DUP4 GT PUSH2 0x1EE2 JUMPI DUP3 SWAP1 SUB PUSH1 0x1F AND DUP3 ADD SWAP2 JUMPDEST POP POP POP POP POP DUP13 DUP5 DUP2 MLOAD DUP2 LT ISZERO ISZERO PUSH2 0x1F12 JUMPI INVALID JUMPDEST PUSH1 0x20 SWAP1 DUP2 MUL SWAP1 SWAP2 ADD ADD MLOAD PUSH2 0x160 ADD MSTORE DUP12 MLOAD DUP13 SWAP1 DUP5 SWAP1 DUP2 LT PUSH2 0x1F2F JUMPI INVALID JUMPDEST SWAP1 PUSH1 0x20 ADD SWAP1 PUSH1 0x20 MUL ADD MLOAD PUSH1 0xA0 ADD MLOAD DUP5 DUP5 DUP2 MLOAD DUP2 LT ISZERO ISZERO PUSH2 0x1F4B JUMPI INVALID JUMPDEST PUSH1 0x20 SWAP1 DUP2 MUL SWAP1 SWAP2 ADD ADD MSTORE PUSH1 0x1 SWAP1 SWAP3 ADD SWAP2 PUSH2 0x1E2C JUMP JUMPDEST PUSH1 0x0 DUP7 GT ISZERO PUSH2 0x1F8B JUMPI PUSH2 0x1F74 DUP11 DUP11 DUP9 PUSH2 0x22A2 JUMP JUMPDEST PUSH1 0x60 DUP1 DUP3 ADD MLOAD SWAP1 DUP10 ADD MSTORE PUSH1 0x20 DUP1 DUP3 ADD MLOAD SWAP1 DUP10 ADD MSTORE SWAP2 POP JUMPDEST PUSH1 0x2 PUSH1 0x0 SWAP1 SLOAD SWAP1 PUSH2 0x100 EXP SWAP1 DIV PUSH20 0xFFFFFFFFFFFFFFFFFFFFFFFFFFFFFFFFFFFFFFFF AND PUSH20 0xFFFFFFFFFFFFFFFFFFFFFFFFFFFFFFFFFFFFFFFF AND PUSH4 0x4D0AE546 DUP14 DUP7 DUP15 PUSH1 0x40 MLOAD DUP5 PUSH4 0xFFFFFFFF AND PUSH29 0x100000000000000000000000000000000000000000000000000000000 MUL DUP2 MSTORE PUSH1 0x4 ADD PUSH2 0x2006 SWAP4 SWAP3 SWAP2 SWAP1 PUSH2 0x327B JUMP JUMPDEST PUSH1 0x80 PUSH1 0x40 MLOAD DUP1 DUP4 SUB DUP2 PUSH1 0x0 DUP8 DUP1 EXTCODESIZE ISZERO DUP1 ISZERO PUSH2 0x2020 JUMPI PUSH1 0x0 DUP1 REVERT JUMPDEST POP GAS CALL ISZERO DUP1 ISZERO PUSH2 0x2034 JUMPI RETURNDATASIZE PUSH1 0x0 DUP1 RETURNDATACOPY RETURNDATASIZE PUSH1 0x0 REVERT JUMPDEST POP POP POP POP PUSH1 0x40 MLOAD RETURNDATASIZE PUSH1 0x1F NOT PUSH1 0x1F DUP3 ADD AND DUP3 ADD DUP1 PUSH1 0x40 MSTORE POP PUSH2 0x2058 SWAP2 SWAP1 DUP2 ADD SWAP1 PUSH2 0x2D6D JUMP JUMPDEST SWAP1 POP PUSH2 0x2064 DUP8 DUP3 PUSH2 0x13AD JUMP JUMPDEST PUSH1 0x0 SWAP3 POP JUMPDEST DUP5 DUP4 LT ISZERO PUSH2 0x20BF JUMPI PUSH2 0x20B4 DUP13 DUP5 DUP2 MLOAD DUP2 LT ISZERO ISZERO PUSH2 0x2082 JUMPI INVALID JUMPDEST SWAP1 PUSH1 0x20 ADD SWAP1 PUSH1 0x20 MUL ADD MLOAD PUSH2 0x140 ADD MLOAD ADDRESS CALLER DUP16 DUP8 DUP2 MLOAD DUP2 LT ISZERO ISZERO PUSH2 0x20A1 JUMPI INVALID JUMPDEST SWAP1 PUSH1 0x20 ADD SWAP1 PUSH1 0x20 MUL ADD MLOAD PUSH1 0x80 ADD MLOAD PUSH2 0x25A0 JUMP JUMPDEST PUSH1 0x1 SWAP1 SWAP3 ADD SWAP2 PUSH2 0x2069 JUMP JUMPDEST POP POP POP POP POP POP SWAP6 SWAP5 POP POP POP POP POP JUMP JUMPDEST PUSH1 0x0 DUP1 PUSH2 0x20E0 PUSH2 0x14C6 DUP6 PUSH2 0x251C PUSH2 0x21F4 JUMP JUMPDEST SWAP1 SWAP3 LT ISZERO SWAP4 SWAP3 POP POP POP JUMP JUMPDEST PUSH1 0x0 DUP1 PUSH1 0x0 DUP7 GT ISZERO PUSH2 0x21DC JUMPI PUSH1 0x5 SLOAD PUSH1 0x40 MLOAD PUSH32 0x2E1A7D4D00000000000000000000000000000000000000000000000000000000 DUP2 MSTORE PUSH20 0xFFFFFFFFFFFFFFFFFFFFFFFFFFFFFFFFFFFFFFFF SWAP1 SWAP2 AND SWAP1 PUSH4 0x2E1A7D4D SWAP1 PUSH2 0x214D SWAP1 DUP10 SWAP1 PUSH1 0x4 ADD PUSH2 0x32E6 JUMP JUMPDEST PUSH1 0x0 PUSH1 0x40 MLOAD DUP1 DUP4 SUB DUP2 PUSH1 0x0 DUP8 DUP1 EXTCODESIZE ISZERO DUP1 ISZERO PUSH2 0x2167 JUMPI PUSH1 0x0 DUP1 REVERT JUMPDEST POP GAS CALL ISZERO DUP1 ISZERO PUSH2 0x217B JUMPI RETURNDATASIZE PUSH1 0x0 DUP1 RETURNDATACOPY RETURNDATASIZE PUSH1 0x0 REVERT JUMPDEST POP POP POP POP DUP6 SWAP2 POP PUSH2 0x2196 DUP6 PUSH2 0x2191 DUP8 DUP8 DUP8 PUSH2 0x140F JUMP JUMPDEST PUSH2 0x137E JUMP JUMPDEST SWAP1 POP PUSH2 0x21A2 DUP3 DUP3 PUSH2 0x137E JUMP JUMPDEST SWAP2 POP PUSH1 0x0 DUP3 GT ISZERO PUSH2 0x21DC JUMPI PUSH1 0x40 MLOAD CALLER SWAP1 DUP4 ISZERO PUSH2 0x8FC MUL SWAP1 DUP5 SWAP1 PUSH1 0x0 DUP2 DUP2 DUP2 DUP6 DUP9 DUP9 CALL SWAP4 POP POP POP POP ISZERO DUP1 ISZERO PUSH2 0x21DA JUMPI RETURNDATASIZE PUSH1 0x0 DUP1 RETURNDATACOPY RETURNDATASIZE PUSH1 0x0 REVERT JUMPDEST POP JUMPDEST POP SWAP5 SWAP4 POP POP POP POP JUMP JUMPDEST PUSH1 0x0 DUP3 DUP3 ADD DUP4 DUP2 LT ISZERO PUSH2 0x1013 JUMPI INVALID JUMPDEST PUSH1 0x0 DUP3 DUP3 MUL DUP4 ISZERO DUP1 PUSH2 0x2210 JUMPI POP DUP3 DUP5 DUP3 DUP2 ISZERO ISZERO PUSH2 0x220D JUMPI INVALID JUMPDEST DIV EQ JUMPDEST ISZERO ISZERO PUSH2 0x1013 JUMPI INVALID JUMPDEST PUSH1 0x0 DUP1 DUP3 DUP5 DUP2 ISZERO ISZERO PUSH2 0x2226 JUMPI INVALID JUMPDEST DIV SWAP5 SWAP4 POP POP POP POP JUMP JUMPDEST PUSH2 0x2237 PUSH2 0x2724 JUMP JUMPDEST PUSH1 0x0 DUP1 PUSH2 0x2242 PUSH2 0x2724 JUMP JUMPDEST PUSH1 0x0 SWAP3 POP JUMPDEST DUP6 MLOAD DUP4 LT ISZERO PUSH2 0x2299 JUMPI PUSH2 0x225E DUP6 DUP6 PUSH1 0x20 ADD MLOAD PUSH2 0x137E JUMP JUMPDEST SWAP2 POP PUSH2 0x2271 DUP7 DUP5 DUP2 MLOAD DUP2 LT ISZERO ISZERO PUSH2 0x401 JUMPI INVALID JUMPDEST SWAP1 POP PUSH2 0x227D DUP5 DUP3 PUSH2 0x13AD JUMP JUMPDEST DUP5 DUP5 PUSH1 0x20 ADD MLOAD EQ ISZERO PUSH2 0x228E JUMPI PUSH2 0x2299 JUMP JUMPDEST PUSH1 0x1 SWAP1 SWAP3 ADD SWAP2 PUSH2 0x2247 JUMP JUMPDEST POP POP POP SWAP3 SWAP2 POP POP JUMP JUMPDEST PUSH2 0x22AA PUSH2 0x2724 JUMP JUMPDEST PUSH1 0x0 DUP1 PUSH1 0x0 PUSH2 0x22B7 PUSH2 0x2724 JUMP JUMPDEST PUSH1 0x0 SWAP4 POP JUMPDEST DUP8 MLOAD DUP5 LT ISZERO PUSH2 0x2595 JUMPI PUSH1 0x3 DUP1 SLOAD PUSH1 0x40 DUP1 MLOAD PUSH1 0x20 PUSH1 0x2 PUSH1 0x1 DUP6 AND ISZERO PUSH2 0x100 MUL PUSH32 0xFFFFFFFFFFFFFFFFFFFFFFFFFFFFFFFFFFFFFFFFFFFFFFFFFFFFFFFFFFFFFFFF ADD SWAP1 SWAP5 AND SWAP4 SWAP1 SWAP4 DIV PUSH1 0x1F DUP2 ADD DUP5 SWAP1 DIV DUP5 MUL DUP3 ADD DUP5 ADD SWAP1 SWAP3 MSTORE DUP2 DUP2 MSTORE SWAP3 SWAP2 DUP4 ADD DUP3 DUP3 DUP1 ISZERO PUSH2 0x2369 JUMPI DUP1 PUSH1 0x1F LT PUSH2 0x233E JUMPI PUSH2 0x100 DUP1 DUP4 SLOAD DIV MUL DUP4 MSTORE SWAP2 PUSH1 0x20 ADD SWAP2 PUSH2 0x2369 JUMP JUMPDEST DUP3 ADD SWAP2 SWAP1 PUSH1 0x0 MSTORE PUSH1 0x20 PUSH1 0x0 KECCAK256 SWAP1 JUMPDEST DUP2 SLOAD DUP2 MSTORE SWAP1 PUSH1 0x1 ADD SWAP1 PUSH1 0x20 ADD DUP1 DUP4 GT PUSH2 0x234C JUMPI DUP3 SWAP1 SUB PUSH1 0x1F AND DUP3 ADD SWAP2 JUMPDEST POP POP POP POP POP DUP9 DUP6 DUP2 MLOAD DUP2 LT ISZERO ISZERO PUSH2 0x237C JUMPI INVALID JUMPDEST PUSH1 0x20 SWAP1 DUP2 MUL SWAP1 SWAP2 ADD DUP2 ADD MLOAD PUSH2 0x140 ADD SWAP2 SWAP1 SWAP2 MSTORE PUSH1 0x4 DUP1 SLOAD PUSH1 0x40 DUP1 MLOAD PUSH1 0x1F PUSH1 0x2 PUSH32 0xFFFFFFFFFFFFFFFFFFFFFFFFFFFFFFFFFFFFFFFFFFFFFFFFFFFFFFFFFFFFFFFF PUSH2 0x100 PUSH1 0x1 DUP8 AND ISZERO MUL ADD SWAP1 SWAP5 AND SWAP4 SWAP1 SWAP4 DIV SWAP3 DUP4 ADD DUP6 SWAP1 DIV DUP6 MUL DUP2 ADD DUP6 ADD SWAP1 SWAP2 MSTORE DUP2 DUP2 MSTORE SWAP3 DUP4 ADD DUP3 DUP3 DUP1 ISZERO PUSH2 0x2431 JUMPI DUP1 PUSH1 0x1F LT PUSH2 0x2406 JUMPI PUSH2 0x100 DUP1 DUP4 SLOAD DIV MUL DUP4 MSTORE SWAP2 PUSH1 0x20 ADD SWAP2 PUSH2 0x2431 JUMP JUMPDEST DUP3 ADD SWAP2 SWAP1 PUSH1 0x0 MSTORE PUSH1 0x20 PUSH1 0x0 KECCAK256 SWAP1 JUMPDEST DUP2 SLOAD DUP2 MSTORE SWAP1 PUSH1 0x1 ADD SWAP1 PUSH1 0x20 ADD DUP1 DUP4 GT PUSH2 0x2414 JUMPI DUP3 SWAP1 SUB PUSH1 0x1F AND DUP3 ADD SWAP2 JUMPDEST POP POP POP POP POP DUP9 DUP6 DUP2 MLOAD DUP2 LT ISZERO ISZERO PUSH2 0x2444 JUMPI INVALID JUMPDEST PUSH1 0x20 SWAP1 DUP2 MUL SWAP1 SWAP2 ADD ADD MLOAD PUSH2 0x160 ADD MSTORE DUP5 MLOAD PUSH2 0x2460 SWAP1 DUP8 SWAP1 PUSH2 0x137E JUMP JUMPDEST SWAP3 POP PUSH2 0x2473 DUP9 DUP6 DUP2 MLOAD DUP2 LT ISZERO ISZERO PUSH2 0xF2C JUMPI INVALID JUMPDEST PUSH1 0x2 SLOAD DUP10 MLOAD SWAP2 SWAP4 POP PUSH20 0xFFFFFFFFFFFFFFFFFFFFFFFFFFFFFFFFFFFFFFFF AND SWAP1 PUSH4 0xB4BE83D5 SWAP1 DUP11 SWAP1 DUP8 SWAP1 DUP2 LT PUSH2 0x24A4 JUMPI INVALID JUMPDEST SWAP1 PUSH1 0x20 ADD SWAP1 PUSH1 0x20 MUL ADD MLOAD PUSH2 0x24B9 DUP6 PUSH1 0x1 PUSH2 0x21E5 JUMP JUMPDEST DUP11 DUP9 DUP2 MLOAD DUP2 LT ISZERO ISZERO PUSH2 0x24C7 JUMPI INVALID JUMPDEST SWAP1 PUSH1 0x20 ADD SWAP1 PUSH1 0x20 MUL ADD MLOAD PUSH1 0x40 MLOAD DUP5 PUSH4 0xFFFFFFFF AND PUSH29 0x100000000000000000000000000000000000000000000000000000000 MUL DUP2 MSTORE PUSH1 0x4 ADD PUSH2 0x250B SWAP4 SWAP3 SWAP2 SWAP1 PUSH2 0x3391 JUMP JUMPDEST PUSH1 0x80 PUSH1 0x40 MLOAD DUP1 DUP4 SUB DUP2 PUSH1 0x0 DUP8 DUP1 EXTCODESIZE ISZERO DUP1 ISZERO PUSH2 0x2525 JUMPI PUSH1 0x0 DUP1 REVERT JUMPDEST POP GAS CALL ISZERO DUP1 ISZERO PUSH2 0x2539 JUMPI RETURNDATASIZE PUSH1 0x0 DUP1 RETURNDATACOPY RETURNDATASIZE PUSH1 0x0 REVERT JUMPDEST POP POP POP POP PUSH1 0x40 MLOAD RETURNDATASIZE PUSH1 0x1F NOT PUSH1 0x1F DUP3 ADD AND DUP3 ADD DUP1 PUSH1 0x40 MSTORE POP PUSH2 0x255D SWAP2 SWAP1 DUP2 ADD SWAP1 PUSH2 0x2D6D JUMP JUMPDEST SWAP1 POP PUSH2 0x2571 DUP2 PUSH1 0x0 ADD MLOAD DUP3 PUSH1 0x60 ADD MLOAD PUSH2 0x137E JUMP JUMPDEST DUP2 MSTORE PUSH2 0x257D DUP6 DUP3 PUSH2 0x13AD JUMP JUMPDEST DUP5 MLOAD DUP7 GT PUSH2 0x258A JUMPI PUSH2 0x2595 JUMP JUMPDEST PUSH1 0x1 SWAP1 SWAP4 ADD SWAP3 PUSH2 0x22BC JUMP JUMPDEST POP POP POP POP SWAP4 SWAP3 POP POP POP JUMP JUMPDEST PUSH1 0x0 DUP1 PUSH1 0x60 PUSH2 0x25B6 DUP8 PUSH1 0x10 PUSH4 0xFFFFFFFF PUSH2 0x152A AND JUMP JUMPDEST SWAP3 POP PUSH2 0x25C9 DUP8 PUSH1 0x24 PUSH4 0xFFFFFFFF PUSH2 0x2672 AND JUMP JUMPDEST SWAP2 POP PUSH2 0x25DC DUP8 PUSH1 0x64 PUSH4 0xFFFFFFFF PUSH2 0x267E AND JUMP JUMPDEST PUSH1 0x40 MLOAD PUSH32 0xB88D4FDE00000000000000000000000000000000000000000000000000000000 DUP2 MSTORE SWAP1 SWAP2 POP PUSH20 0xFFFFFFFFFFFFFFFFFFFFFFFFFFFFFFFFFFFFFFFF DUP5 AND SWAP1 PUSH4 0xB88D4FDE SWAP1 PUSH2 0x2637 SWAP1 DUP10 SWAP1 DUP10 SWAP1 DUP8 SWAP1 DUP8 SWAP1 PUSH1 0x4 ADD PUSH2 0x321C JUMP JUMPDEST PUSH1 0x0 PUSH1 0x40 MLOAD DUP1 DUP4 SUB DUP2 PUSH1 0x0 DUP8 DUP1 EXTCODESIZE ISZERO DUP1 ISZERO PUSH2 0x2651 JUMPI PUSH1 0x0 DUP1 REVERT JUMPDEST POP GAS CALL ISZERO DUP1 ISZERO PUSH2 0x2665 JUMPI RETURNDATASIZE PUSH1 0x0 DUP1 RETURNDATACOPY RETURNDATASIZE PUSH1 0x0 REVERT JUMPDEST POP POP POP POP POP POP POP POP POP POP POP JUMP JUMPDEST PUSH1 0x0 PUSH2 0x64C DUP4 DUP4 PUSH2 0x26D9 JUMP JUMPDEST PUSH1 0x60 PUSH1 0x0 PUSH2 0x268C DUP5 DUP5 PUSH2 0x2672 JUMP JUMPDEST SWAP1 POP PUSH1 0x20 DUP4 ADD SWAP3 POP DUP1 DUP4 ADD DUP5 MLOAD LT ISZERO ISZERO ISZERO PUSH2 0x26D3 JUMPI PUSH1 0x40 MLOAD PUSH32 0x8C379A000000000000000000000000000000000000000000000000000000000 DUP2 MSTORE PUSH1 0x4 ADD PUSH2 0x194 SWAP1 PUSH2 0x3313 JUMP JUMPDEST POP POP ADD SWAP1 JUMP JUMPDEST PUSH1 0x0 DUP2 PUSH1 0x20 ADD DUP4 MLOAD LT ISZERO ISZERO ISZERO PUSH2 0x271B JUMPI PUSH1 0x40 MLOAD PUSH32 0x8C379A000000000000000000000000000000000000000000000000000000000 DUP2 MSTORE PUSH1 0x4 ADD PUSH2 0x194 SWAP1 PUSH2 0x3323 JUMP JUMPDEST POP ADD PUSH1 0x20 ADD MLOAD SWAP1 JUMP JUMPDEST PUSH1 0x80 PUSH1 0x40 MLOAD SWAP1 DUP2 ADD PUSH1 0x40 MSTORE DUP1 PUSH1 0x0 DUP2 MSTORE PUSH1 0x20 ADD PUSH1 0x0 DUP2 MSTORE PUSH1 0x20 ADD PUSH1 0x0 DUP2 MSTORE PUSH1 0x20 ADD PUSH1 0x0 DUP2 MSTORE POP SWAP1 JUMP JUMPDEST PUSH1 0x0 PUSH2 0x1013 DUP3 CALLDATALOAD PUSH2 0x3469 JUMP JUMPDEST PUSH1 0x0 PUSH2 0x1013 DUP3 MLOAD PUSH2 0x3469 JUMP JUMPDEST PUSH1 0x0 PUSH1 0x1F DUP3 ADD DUP4 SGT PUSH2 0x2776 JUMPI PUSH1 0x0 DUP1 REVERT JUMPDEST DUP2 CALLDATALOAD PUSH2 0x2789 PUSH2 0x2784 DUP3 PUSH2 0x33F8 JUMP JUMPDEST PUSH2 0x33D1 JUMP JUMPDEST DUP2 DUP2 MSTORE PUSH1 0x20 SWAP4 DUP5 ADD SWAP4 SWAP1 SWAP3 POP DUP3 ADD DUP4 PUSH1 0x0 JUMPDEST DUP4 DUP2 LT ISZERO PUSH2 0x436 JUMPI DUP2 CALLDATALOAD DUP7 ADD PUSH2 0x27B1 DUP9 DUP3 PUSH2 0x283C JUMP JUMPDEST DUP5 MSTORE POP PUSH1 0x20 SWAP3 DUP4 ADD SWAP3 SWAP2 SWAP1 SWAP2 ADD SWAP1 PUSH1 0x1 ADD PUSH2 0x279B JUMP JUMPDEST PUSH1 0x0 PUSH1 0x1F DUP3 ADD DUP4 SGT PUSH2 0x27D8 JUMPI PUSH1 0x0 DUP1 REVERT JUMPDEST DUP2 CALLDATALOAD PUSH2 0x27E6 PUSH2 0x2784 DUP3 PUSH2 0x33F8 JUMP JUMPDEST DUP2 DUP2 MSTORE PUSH1 0x20 SWAP4 DUP5 ADD SWAP4 SWAP1 SWAP3 POP DUP3 ADD DUP4 PUSH1 0x0 JUMPDEST DUP4 DUP2 LT ISZERO PUSH2 0x436 JUMPI DUP2 CALLDATALOAD DUP7 ADD PUSH2 0x280E DUP9 DUP3 PUSH2 0x28F1 JUMP JUMPDEST DUP5 MSTORE POP PUSH1 0x20 SWAP3 DUP4 ADD SWAP3 SWAP2 SWAP1 SWAP2 ADD SWAP1 PUSH1 0x1 ADD PUSH2 0x27F8 JUMP JUMPDEST PUSH1 0x0 PUSH2 0x1013 DUP3 MLOAD PUSH2 0x34B1 JUMP JUMPDEST PUSH1 0x0 PUSH2 0x1013 DUP3 CALLDATALOAD PUSH2 0x3485 JUMP JUMPDEST PUSH1 0x0 PUSH1 0x1F DUP3 ADD DUP4 SGT PUSH2 0x284D JUMPI PUSH1 0x0 DUP1 REVERT JUMPDEST DUP2 CALLDATALOAD PUSH2 0x285B PUSH2 0x2784 DUP3 PUSH2 0x3419 JUMP JUMPDEST SWAP2 POP DUP1 DUP3 MSTORE PUSH1 0x20 DUP4 ADD PUSH1 0x20 DUP4 ADD DUP6 DUP4 DUP4 ADD GT ISZERO PUSH2 0x2877 JUMPI PUSH1 0x0 DUP1 REVERT JUMPDEST PUSH2 0x2299 DUP4 DUP3 DUP5 PUSH2 0x34B6 JUMP JUMPDEST PUSH1 0x0 PUSH1 0x80 DUP3 DUP5 SUB SLT ISZERO PUSH2 0x2894 JUMPI PUSH1 0x0 DUP1 REVERT JUMPDEST PUSH2 0x289E PUSH1 0x80 PUSH2 0x33D1 JUMP JUMPDEST SWAP1 POP PUSH1 0x0 PUSH2 0x28AC DUP5 DUP5 PUSH2 0x2A52 JUMP JUMPDEST DUP3 MSTORE POP PUSH1 0x20 PUSH2 0x28BD DUP5 DUP5 DUP4 ADD PUSH2 0x2A52 JUMP JUMPDEST PUSH1 0x20 DUP4 ADD MSTORE POP PUSH1 0x40 PUSH2 0x28D1 DUP5 DUP3 DUP6 ADD PUSH2 0x2A52 JUMP JUMPDEST PUSH1 0x40 DUP4 ADD MSTORE POP PUSH1 0x60 PUSH2 0x28E5 DUP5 DUP3 DUP6 ADD PUSH2 0x2A52 JUMP JUMPDEST PUSH1 0x60 DUP4 ADD MSTORE POP SWAP3 SWAP2 POP POP JUMP JUMPDEST PUSH1 0x0 PUSH2 0x180 DUP3 DUP5 SUB SLT ISZERO PUSH2 0x2904 JUMPI PUSH1 0x0 DUP1 REVERT JUMPDEST PUSH2 0x290F PUSH2 0x180 PUSH2 0x33D1 JUMP JUMPDEST SWAP1 POP PUSH1 0x0 PUSH2 0x291D DUP5 DUP5 PUSH2 0x274D JUMP JUMPDEST DUP3 MSTORE POP PUSH1 0x20 PUSH2 0x292E DUP5 DUP5 DUP4 ADD PUSH2 0x274D JUMP JUMPDEST PUSH1 0x20 DUP4 ADD MSTORE POP PUSH1 0x40 PUSH2 0x2942 DUP5 DUP3 DUP6 ADD PUSH2 0x274D JUMP JUMPDEST PUSH1 0x40 DUP4 ADD MSTORE POP PUSH1 0x60 PUSH2 0x2956 DUP5 DUP3 DUP6 ADD PUSH2 0x274D JUMP JUMPDEST PUSH1 0x60 DUP4 ADD MSTORE POP PUSH1 0x80 PUSH2 0x296A DUP5 DUP3 DUP6 ADD PUSH2 0x2A46 JUMP JUMPDEST PUSH1 0x80 DUP4 ADD MSTORE POP PUSH1 0xA0 PUSH2 0x297E DUP5 DUP3 DUP6 ADD PUSH2 0x2A46 JUMP JUMPDEST PUSH1 0xA0 DUP4 ADD MSTORE POP PUSH1 0xC0 PUSH2 0x2992 DUP5 DUP3 DUP6 ADD PUSH2 0x2A46 JUMP JUMPDEST PUSH1 0xC0 DUP4 ADD MSTORE POP PUSH1 0xE0 PUSH2 0x29A6 DUP5 DUP3 DUP6 ADD PUSH2 0x2A46 JUMP JUMPDEST PUSH1 0xE0 DUP4 ADD MSTORE POP PUSH2 0x100 PUSH2 0x29BB DUP5 DUP3 DUP6 ADD PUSH2 0x2A46 JUMP JUMPDEST PUSH2 0x100 DUP4 ADD MSTORE POP PUSH2 0x120 PUSH2 0x29D1 DUP5 DUP3 DUP6 ADD PUSH2 0x2A46 JUMP JUMPDEST PUSH2 0x120 DUP4 ADD MSTORE POP PUSH2 0x140 DUP3 ADD CALLDATALOAD PUSH8 0xFFFFFFFFFFFFFFFF DUP2 GT ISZERO PUSH2 0x29F3 JUMPI PUSH1 0x0 DUP1 REVERT JUMPDEST PUSH2 0x29FF DUP5 DUP3 DUP6 ADD PUSH2 0x283C JUMP JUMPDEST PUSH2 0x140 DUP4 ADD MSTORE POP PUSH2 0x160 DUP3 ADD CALLDATALOAD PUSH8 0xFFFFFFFFFFFFFFFF DUP2 GT ISZERO PUSH2 0x2A21 JUMPI PUSH1 0x0 DUP1 REVERT JUMPDEST PUSH2 0x2A2D DUP5 DUP3 DUP6 ADD PUSH2 0x283C JUMP JUMPDEST PUSH2 0x160 DUP4 ADD MSTORE POP SWAP3 SWAP2 POP POP JUMP JUMPDEST PUSH1 0x0 PUSH2 0x1013 DUP3 CALLDATALOAD PUSH2 0x34AA JUMP JUMPDEST PUSH1 0x0 PUSH2 0x1013 DUP3 CALLDATALOAD PUSH2 0x3482 JUMP JUMPDEST PUSH1 0x0 PUSH2 0x1013 DUP3 MLOAD PUSH2 0x3482 JUMP JUMPDEST PUSH1 0x0 PUSH1 0x20 DUP3 DUP5 SUB SLT ISZERO PUSH2 0x2A70 JUMPI PUSH1 0x0 DUP1 REVERT JUMPDEST PUSH1 0x0 PUSH2 0x13A5 DUP5 DUP5 PUSH2 0x274D JUMP JUMPDEST PUSH1 0x0 PUSH1 0x20 DUP3 DUP5 SUB SLT ISZERO PUSH2 0x2A8E JUMPI PUSH1 0x0 DUP1 REVERT JUMPDEST PUSH1 0x0 PUSH2 0x13A5 DUP5 DUP5 PUSH2 0x2759 JUMP JUMPDEST PUSH1 0x0 DUP1 PUSH1 0x0 PUSH1 0x60 DUP5 DUP7 SUB SLT ISZERO PUSH2 0x2AAF JUMPI PUSH1 0x0 DUP1 REVERT JUMPDEST PUSH1 0x0 PUSH2 0x2ABB DUP7 DUP7 PUSH2 0x274D JUMP JUMPDEST SWAP4 POP POP PUSH1 0x20 PUSH2 0x2ACC DUP7 DUP3 DUP8 ADD PUSH2 0x2A46 JUMP JUMPDEST SWAP3 POP POP PUSH1 0x40 DUP5 ADD CALLDATALOAD PUSH8 0xFFFFFFFFFFFFFFFF DUP2 GT ISZERO PUSH2 0x2AE9 JUMPI PUSH1 0x0 DUP1 REVERT JUMPDEST PUSH2 0x2AF5 DUP7 DUP3 DUP8 ADD PUSH2 0x283C JUMP JUMPDEST SWAP2 POP POP SWAP3 POP SWAP3 POP SWAP3 JUMP JUMPDEST PUSH1 0x0 DUP1 PUSH1 0x0 DUP1 PUSH1 0x0 DUP1 PUSH1 0xC0 DUP8 DUP10 SUB SLT ISZERO PUSH2 0x2B18 JUMPI PUSH1 0x0 DUP1 REVERT JUMPDEST DUP7 CALLDATALOAD PUSH8 0xFFFFFFFFFFFFFFFF DUP2 GT ISZERO PUSH2 0x2B2F JUMPI PUSH1 0x0 DUP1 REVERT JUMPDEST PUSH2 0x2B3B DUP10 DUP3 DUP11 ADD PUSH2 0x27C7 JUMP JUMPDEST SWAP7 POP POP PUSH1 0x20 DUP8 ADD CALLDATALOAD PUSH8 0xFFFFFFFFFFFFFFFF DUP2 GT ISZERO PUSH2 0x2B58 JUMPI PUSH1 0x0 DUP1 REVERT JUMPDEST PUSH2 0x2B64 DUP10 DUP3 DUP11 ADD PUSH2 0x2765 JUMP JUMPDEST SWAP6 POP POP PUSH1 0x40 DUP8 ADD CALLDATALOAD PUSH8 0xFFFFFFFFFFFFFFFF DUP2 GT ISZERO PUSH2 0x2B81 JUMPI PUSH1 0x0 DUP1 REVERT JUMPDEST PUSH2 0x2B8D DUP10 DUP3 DUP11 ADD PUSH2 0x27C7 JUMP JUMPDEST SWAP5 POP POP PUSH1 0x60 DUP8 ADD CALLDATALOAD PUSH8 0xFFFFFFFFFFFFFFFF DUP2 GT ISZERO PUSH2 0x2BAA JUMPI PUSH1 0x0 DUP1 REVERT JUMPDEST PUSH2 0x2BB6 DUP10 DUP3 DUP11 ADD PUSH2 0x2765 JUMP JUMPDEST SWAP4 POP POP PUSH1 0x80 PUSH2 0x2BC7 DUP10 DUP3 DUP11 ADD PUSH2 0x2A3A JUMP JUMPDEST SWAP3 POP POP PUSH1 0xA0 PUSH2 0x2BD8 DUP10 DUP3 DUP11 ADD PUSH2 0x274D JUMP JUMPDEST SWAP2 POP POP SWAP3 SWAP6 POP SWAP3 SWAP6 POP SWAP3 SWAP6 JUMP JUMPDEST PUSH1 0x0 DUP1 PUSH1 0x0 DUP1 PUSH1 0x0 DUP1 PUSH1 0x0 PUSH1 0xE0 DUP9 DUP11 SUB SLT ISZERO PUSH2 0x2C00 JUMPI PUSH1 0x0 DUP1 REVERT JUMPDEST DUP8 CALLDATALOAD PUSH8 0xFFFFFFFFFFFFFFFF DUP2 GT ISZERO PUSH2 0x2C17 JUMPI PUSH1 0x0 DUP1 REVERT JUMPDEST PUSH2 0x2C23 DUP11 DUP3 DUP12 ADD PUSH2 0x27C7 JUMP JUMPDEST SWAP8 POP POP PUSH1 0x20 DUP9 ADD CALLDATALOAD PUSH8 0xFFFFFFFFFFFFFFFF DUP2 GT ISZERO PUSH2 0x2C40 JUMPI PUSH1 0x0 DUP1 REVERT JUMPDEST PUSH2 0x2C4C DUP11 DUP3 DUP12 ADD PUSH2 0x2765 JUMP JUMPDEST SWAP7 POP POP PUSH1 0x40 DUP9 ADD CALLDATALOAD PUSH8 0xFFFFFFFFFFFFFFFF DUP2 GT ISZERO PUSH2 0x2C69 JUMPI PUSH1 0x0 DUP1 REVERT JUMPDEST PUSH2 0x2C75 DUP11 DUP3 DUP12 ADD PUSH2 0x27C7 JUMP JUMPDEST SWAP6 POP POP PUSH1 0x60 DUP9 ADD CALLDATALOAD PUSH8 0xFFFFFFFFFFFFFFFF DUP2 GT ISZERO PUSH2 0x2C92 JUMPI PUSH1 0x0 DUP1 REVERT JUMPDEST PUSH2 0x2C9E DUP11 DUP3 DUP12 ADD PUSH2 0x2765 JUMP JUMPDEST SWAP5 POP POP PUSH1 0x80 PUSH2 0x2CAF DUP11 DUP3 DUP12 ADD PUSH2 0x2A46 JUMP JUMPDEST SWAP4 POP POP PUSH1 0xA0 PUSH2 0x2CC0 DUP11 DUP3 DUP12 ADD PUSH2 0x2A3A JUMP JUMPDEST SWAP3 POP POP PUSH1 0xC0 PUSH2 0x2CD1 DUP11 DUP3 DUP12 ADD PUSH2 0x274D JUMP JUMPDEST SWAP2 POP POP SWAP3 SWAP6 SWAP9 SWAP2 SWAP5 SWAP8 POP SWAP3 SWAP6 POP JUMP JUMPDEST PUSH1 0x0 DUP1 PUSH1 0x40 DUP4 DUP6 SUB SLT ISZERO PUSH2 0x2CF3 JUMPI PUSH1 0x0 DUP1 REVERT JUMPDEST DUP3 CALLDATALOAD PUSH8 0xFFFFFFFFFFFFFFFF DUP2 GT ISZERO PUSH2 0x2D0A JUMPI PUSH1 0x0 DUP1 REVERT JUMPDEST PUSH2 0x2D16 DUP6 DUP3 DUP7 ADD PUSH2 0x27C7 JUMP JUMPDEST SWAP3 POP POP PUSH1 0x20 PUSH2 0x2D27 DUP6 DUP3 DUP7 ADD PUSH2 0x2A46 JUMP JUMPDEST SWAP2 POP POP SWAP3 POP SWAP3 SWAP1 POP JUMP JUMPDEST PUSH1 0x0 PUSH1 0x20 DUP3 DUP5 SUB SLT ISZERO PUSH2 0x2D43 JUMPI PUSH1 0x0 DUP1 REVERT JUMPDEST PUSH1 0x0 PUSH2 0x13A5 DUP5 DUP5 PUSH2 0x2824 JUMP JUMPDEST PUSH1 0x0 PUSH1 0x20 DUP3 DUP5 SUB SLT ISZERO PUSH2 0x2D61 JUMPI PUSH1 0x0 DUP1 REVERT JUMPDEST PUSH1 0x0 PUSH2 0x13A5 DUP5 DUP5 PUSH2 0x2830 JUMP JUMPDEST PUSH1 0x0 PUSH1 0x80 DUP3 DUP5 SUB SLT ISZERO PUSH2 0x2D7F JUMPI PUSH1 0x0 DUP1 REVERT JUMPDEST PUSH1 0x0 PUSH2 0x13A5 DUP5 DUP5 PUSH2 0x2882 JUMP JUMPDEST PUSH1 0x0 DUP1 PUSH1 0x40 DUP4 DUP6 SUB SLT ISZERO PUSH2 0x2D9E JUMPI PUSH1 0x0 DUP1 REVERT JUMPDEST DUP3 CALLDATALOAD PUSH8 0xFFFFFFFFFFFFFFFF DUP2 GT ISZERO PUSH2 0x2DB5 JUMPI PUSH1 0x0 DUP1 REVERT JUMPDEST PUSH2 0x2D16 DUP6 DUP3 DUP7 ADD PUSH2 0x28F1 JUMP JUMPDEST PUSH2 0x2DCA DUP2 PUSH2 0x3469 JUMP JUMPDEST DUP3 MSTORE POP POP JUMP JUMPDEST PUSH1 0x0 PUSH2 0x2DDB DUP3 PUSH2 0x3465 JUMP JUMPDEST DUP1 DUP5 MSTORE PUSH1 0x20 DUP5 ADD SWAP4 POP DUP4 PUSH1 0x20 DUP3 MUL DUP6 ADD PUSH2 0x2DF4 DUP6 PUSH2 0x345F JUMP JUMPDEST PUSH1 0x0 JUMPDEST DUP5 DUP2 LT ISZERO PUSH2 0x2E2B JUMPI DUP4 DUP4 SUB DUP9 MSTORE PUSH2 0x2E0F DUP4 DUP4 MLOAD PUSH2 0x2EFB JUMP JUMPDEST SWAP3 POP PUSH2 0x2E1A DUP3 PUSH2 0x345F JUMP JUMPDEST PUSH1 0x20 SWAP9 SWAP1 SWAP9 ADD SWAP8 SWAP2 POP PUSH1 0x1 ADD PUSH2 0x2DF7 JUMP JUMPDEST POP SWAP1 SWAP7 SWAP6 POP POP POP POP POP POP JUMP JUMPDEST PUSH1 0x0 PUSH2 0x2E42 DUP3 PUSH2 0x3465 JUMP JUMPDEST DUP1 DUP5 MSTORE PUSH1 0x20 DUP5 ADD SWAP4 POP DUP4 PUSH1 0x20 DUP3 MUL DUP6 ADD PUSH2 0x2E5B DUP6 PUSH2 0x345F JUMP JUMPDEST PUSH1 0x0 JUMPDEST DUP5 DUP2 LT ISZERO PUSH2 0x2E2B JUMPI DUP4 DUP4 SUB DUP9 MSTORE PUSH2 0x2E76 DUP4 DUP4 MLOAD PUSH2 0x3102 JUMP JUMPDEST SWAP3 POP PUSH2 0x2E81 DUP3 PUSH2 0x345F JUMP JUMPDEST PUSH1 0x20 SWAP9 SWAP1 SWAP9 ADD SWAP8 SWAP2 POP PUSH1 0x1 ADD PUSH2 0x2E5E JUMP JUMPDEST PUSH1 0x0 PUSH2 0x2E9D DUP3 PUSH2 0x3465 JUMP JUMPDEST DUP1 DUP5 MSTORE PUSH1 0x20 DUP5 ADD SWAP4 POP PUSH2 0x2EAF DUP4 PUSH2 0x345F JUMP JUMPDEST PUSH1 0x0 JUMPDEST DUP3 DUP2 LT ISZERO PUSH2 0x2EDF JUMPI PUSH2 0x2EC5 DUP7 DUP4 MLOAD PUSH2 0x2EE9 JUMP JUMPDEST PUSH2 0x2ECE DUP3 PUSH2 0x345F JUMP JUMPDEST PUSH1 0x20 SWAP7 SWAP1 SWAP7 ADD SWAP6 SWAP2 POP PUSH1 0x1 ADD PUSH2 0x2EB2 JUMP JUMPDEST POP SWAP4 SWAP5 SWAP4 POP POP POP POP JUMP JUMPDEST PUSH2 0x2DCA DUP2 PUSH2 0x3482 JUMP JUMPDEST PUSH2 0x2DCA DUP2 PUSH2 0x3485 JUMP JUMPDEST PUSH1 0x0 PUSH2 0x2F06 DUP3 PUSH2 0x3465 JUMP JUMPDEST DUP1 DUP5 MSTORE PUSH2 0x2F1A DUP2 PUSH1 0x20 DUP7 ADD PUSH1 0x20 DUP7 ADD PUSH2 0x34C2 JUMP JUMPDEST PUSH2 0x2F23 DUP2 PUSH2 0x34EE JUMP JUMPDEST SWAP1 SWAP4 ADD PUSH1 0x20 ADD SWAP4 SWAP3 POP POP POP JUMP JUMPDEST PUSH1 0x30 DUP2 MSTORE PUSH32 0x475245415445525F4F525F455155414C5F544F5F4E45535445445F4259544553 PUSH1 0x20 DUP3 ADD MSTORE PUSH32 0x5F4C454E4754485F524551554952454400000000000000000000000000000000 PUSH1 0x40 DUP3 ADD MSTORE PUSH1 0x60 ADD SWAP1 JUMP JUMPDEST PUSH1 0x26 DUP2 MSTORE PUSH32 0x475245415445525F4F525F455155414C5F544F5F33325F4C454E4754485F5245 PUSH1 0x20 DUP3 ADD MSTORE PUSH32 0x5155495245440000000000000000000000000000000000000000000000000000 PUSH1 0x40 DUP3 ADD MSTORE PUSH1 0x60 ADD SWAP1 JUMP JUMPDEST PUSH1 0x13 DUP2 MSTORE PUSH32 0x4F4E4C595F434F4E54524143545F4F574E455200000000000000000000000000 PUSH1 0x20 DUP3 ADD MSTORE PUSH1 0x40 ADD SWAP1 JUMP JUMPDEST PUSH1 0x26 DUP2 MSTORE PUSH32 0x475245415445525F4F525F455155414C5F544F5F32305F4C454E4754485F5245 PUSH1 0x20 DUP3 ADD MSTORE PUSH32 0x5155495245440000000000000000000000000000000000000000000000000000 PUSH1 0x40 DUP3 ADD MSTORE PUSH1 0x60 ADD SWAP1 JUMP JUMPDEST PUSH1 0x25 DUP2 MSTORE PUSH32 0x475245415445525F4F525F455155414C5F544F5F345F4C454E4754485F524551 PUSH1 0x20 DUP3 ADD MSTORE PUSH32 0x5549524544000000000000000000000000000000000000000000000000000000 PUSH1 0x40 DUP3 ADD MSTORE PUSH1 0x60 ADD SWAP1 JUMP JUMPDEST DUP1 MLOAD PUSH1 0x80 DUP4 ADD SWAP1 PUSH2 0x30C9 DUP5 DUP3 PUSH2 0x2EE9 JUMP JUMPDEST POP PUSH1 0x20 DUP3 ADD MLOAD PUSH2 0x30DC PUSH1 0x20 DUP6 ADD DUP3 PUSH2 0x2EE9 JUMP JUMPDEST POP PUSH1 0x40 DUP3 ADD MLOAD PUSH2 0x30EF PUSH1 0x40 DUP6 ADD DUP3 PUSH2 0x2EE9 JUMP JUMPDEST POP PUSH1 0x60 DUP3 ADD MLOAD PUSH2 0x19AF PUSH1 0x60 DUP6 ADD DUP3 PUSH2 0x2EE9 JUMP JUMPDEST DUP1 MLOAD PUSH1 0x0 SWAP1 PUSH2 0x180 DUP5 ADD SWAP1 PUSH2 0x3117 DUP6 DUP3 PUSH2 0x2DC1 JUMP JUMPDEST POP PUSH1 0x20 DUP4 ADD MLOAD PUSH2 0x312A PUSH1 0x20 DUP7 ADD DUP3 PUSH2 0x2DC1 JUMP JUMPDEST POP PUSH1 0x40 DUP4 ADD MLOAD PUSH2 0x313D PUSH1 0x40 DUP7 ADD DUP3 PUSH2 0x2DC1 JUMP JUMPDEST POP PUSH1 0x60 DUP4 ADD MLOAD PUSH2 0x3150 PUSH1 0x60 DUP7 ADD DUP3 PUSH2 0x2DC1 JUMP JUMPDEST POP PUSH1 0x80 DUP4 ADD MLOAD PUSH2 0x3163 PUSH1 0x80 DUP7 ADD DUP3 PUSH2 0x2EE9 JUMP JUMPDEST POP PUSH1 0xA0 DUP4 ADD MLOAD PUSH2 0x3176 PUSH1 0xA0 DUP7 ADD DUP3 PUSH2 0x2EE9 JUMP JUMPDEST POP PUSH1 0xC0 DUP4 ADD MLOAD PUSH2 0x3189 PUSH1 0xC0 DUP7 ADD DUP3 PUSH2 0x2EE9 JUMP JUMPDEST POP PUSH1 0xE0 DUP4 ADD MLOAD PUSH2 0x319C PUSH1 0xE0 DUP7 ADD DUP3 PUSH2 0x2EE9 JUMP JUMPDEST POP PUSH2 0x100 DUP4 ADD MLOAD PUSH2 0x31B1 PUSH2 0x100 DUP7 ADD DUP3 PUSH2 0x2EE9 JUMP JUMPDEST POP PUSH2 0x120 DUP4 ADD MLOAD PUSH2 0x31C6 PUSH2 0x120 DUP7 ADD DUP3 PUSH2 0x2EE9 JUMP JUMPDEST POP PUSH2 0x140 DUP4 ADD MLOAD DUP5 DUP3 SUB PUSH2 0x140 DUP7 ADD MSTORE PUSH2 0x31E0 DUP3 DUP3 PUSH2 0x2EFB JUMP JUMPDEST SWAP2 POP POP PUSH2 0x160 DUP4 ADD MLOAD DUP5 DUP3 SUB PUSH2 0x160 DUP7 ADD MSTORE PUSH2 0x31FC DUP3 DUP3 PUSH2 0x2EFB JUMP JUMPDEST SWAP6 SWAP5 POP POP POP POP POP JUMP JUMPDEST PUSH2 0x2DCA DUP2 PUSH2 0x34AA JUMP JUMPDEST PUSH1 0x20 DUP2 ADD PUSH2 0x64F DUP3 DUP5 PUSH2 0x2DC1 JUMP JUMPDEST PUSH1 0x80 DUP2 ADD PUSH2 0x322A DUP3 DUP8 PUSH2 0x2DC1 JUMP JUMPDEST PUSH2 0x3237 PUSH1 0x20 DUP4 ADD DUP7 PUSH2 0x2DC1 JUMP JUMPDEST PUSH2 0x3244 PUSH1 0x40 DUP4 ADD DUP6 PUSH2 0x2EE9 JUMP JUMPDEST DUP2 DUP2 SUB PUSH1 0x60 DUP4 ADD MSTORE PUSH2 0x3256 DUP2 DUP5 PUSH2 0x2EFB JUMP JUMPDEST SWAP7 SWAP6 POP POP POP POP POP POP JUMP JUMPDEST PUSH1 0x40 DUP2 ADD PUSH2 0x326E DUP3 DUP6 PUSH2 0x2DC1 JUMP JUMPDEST PUSH2 0x1013 PUSH1 0x20 DUP4 ADD DUP5 PUSH2 0x2EE9 JUMP JUMPDEST PUSH1 0x60 DUP1 DUP3 MSTORE DUP2 ADD PUSH2 0x328C DUP2 DUP7 PUSH2 0x2E37 JUMP JUMPDEST SWAP1 POP DUP2 DUP2 SUB PUSH1 0x20 DUP4 ADD MSTORE PUSH2 0x32A0 DUP2 DUP6 PUSH2 0x2E92 JUMP JUMPDEST SWAP1 POP DUP2 DUP2 SUB PUSH1 0x40 DUP4 ADD MSTORE PUSH2 0x31FC DUP2 DUP5 PUSH2 0x2DD0 JUMP JUMPDEST PUSH1 0x60 DUP1 DUP3 MSTORE DUP2 ADD PUSH2 0x32C5 DUP2 DUP7 PUSH2 0x2E37 JUMP JUMPDEST SWAP1 POP PUSH2 0x32D4 PUSH1 0x20 DUP4 ADD DUP6 PUSH2 0x2EE9 JUMP JUMPDEST DUP2 DUP2 SUB PUSH1 0x40 DUP4 ADD MSTORE PUSH2 0x31FC DUP2 DUP5 PUSH2 0x2DD0 JUMP JUMPDEST PUSH1 0x20 DUP2 ADD PUSH2 0x64F DUP3 DUP5 PUSH2 0x2EE9 JUMP JUMPDEST PUSH1 0x20 DUP2 ADD PUSH2 0x64F DUP3 DUP5 PUSH2 0x2EF2 JUMP JUMPDEST PUSH1 0x20 DUP1 DUP3 MSTORE DUP2 ADD PUSH2 0x1013 DUP2 DUP5 PUSH2 0x2EFB JUMP JUMPDEST PUSH1 0x20 DUP1 DUP3 MSTORE DUP2 ADD PUSH2 0x64F DUP2 PUSH2 0x2F30 JUMP JUMPDEST PUSH1 0x20 DUP1 DUP3 MSTORE DUP2 ADD PUSH2 0x64F DUP2 PUSH2 0x2F86 JUMP JUMPDEST PUSH1 0x20 DUP1 DUP3 MSTORE DUP2 ADD PUSH2 0x64F DUP2 PUSH2 0x2FDC JUMP JUMPDEST PUSH1 0x20 DUP1 DUP3 MSTORE DUP2 ADD PUSH2 0x64F DUP2 PUSH2 0x300C JUMP JUMPDEST PUSH1 0x20 DUP1 DUP3 MSTORE DUP2 ADD PUSH2 0x64F DUP2 PUSH2 0x3062 JUMP JUMPDEST PUSH1 0x80 DUP2 ADD PUSH2 0x64F DUP3 DUP5 PUSH2 0x30B8 JUMP JUMPDEST PUSH1 0x40 DUP1 DUP3 MSTORE DUP2 ADD PUSH2 0x3382 DUP2 DUP6 PUSH2 0x3102 JUMP JUMPDEST SWAP1 POP PUSH2 0x1013 PUSH1 0x20 DUP4 ADD DUP5 PUSH2 0x2EE9 JUMP JUMPDEST PUSH1 0x60 DUP1 DUP3 MSTORE DUP2 ADD PUSH2 0x33A2 DUP2 DUP7 PUSH2 0x3102 JUMP JUMPDEST SWAP1 POP PUSH2 0x33B1 PUSH1 0x20 DUP4 ADD DUP6 PUSH2 0x2EE9 JUMP JUMPDEST DUP2 DUP2 SUB PUSH1 0x40 DUP4 ADD MSTORE PUSH2 0x31FC DUP2 DUP5 PUSH2 0x2EFB JUMP JUMPDEST PUSH1 0x20 DUP2 ADD PUSH2 0x64F DUP3 DUP5 PUSH2 0x3205 JUMP JUMPDEST PUSH1 0x40 MLOAD DUP2 DUP2 ADD PUSH8 0xFFFFFFFFFFFFFFFF DUP2 GT DUP3 DUP3 LT OR ISZERO PUSH2 0x33F0 JUMPI PUSH1 0x0 DUP1 REVERT JUMPDEST PUSH1 0x40 MSTORE SWAP2 SWAP1 POP JUMP JUMPDEST PUSH1 0x0 PUSH8 0xFFFFFFFFFFFFFFFF DUP3 GT ISZERO PUSH2 0x340F JUMPI PUSH1 0x0 DUP1 REVERT JUMPDEST POP PUSH1 0x20 SWAP1 DUP2 MUL ADD SWAP1 JUMP JUMPDEST PUSH1 0x0 PUSH8 0xFFFFFFFFFFFFFFFF DUP3 GT ISZERO PUSH2 0x3430 JUMPI PUSH1 0x0 DUP1 REVERT JUMPDEST POP PUSH1 0x20 PUSH1 0x1F SWAP2 SWAP1 SWAP2 ADD PUSH32 0xFFFFFFFFFFFFFFFFFFFFFFFFFFFFFFFFFFFFFFFFFFFFFFFFFFFFFFFFFFFFFFE0 AND ADD SWAP1 JUMP JUMPDEST PUSH1 0x20 ADD SWAP1 JUMP JUMPDEST MLOAD SWAP1 JUMP JUMPDEST PUSH20 0xFFFFFFFFFFFFFFFFFFFFFFFFFFFFFFFFFFFFFFFF AND SWAP1 JUMP JUMPDEST SWAP1 JUMP JUMPDEST PUSH32 0xFFFFFFFF00000000000000000000000000000000000000000000000000000000 AND SWAP1 JUMP JUMPDEST PUSH2 0xFFFF AND SWAP1 JUMP JUMPDEST ISZERO ISZERO SWAP1 JUMP JUMPDEST DUP3 DUP2 DUP4 CALLDATACOPY POP PUSH1 0x0 SWAP2 ADD MSTORE JUMP JUMPDEST PUSH1 0x0 JUMPDEST DUP4 DUP2 LT ISZERO PUSH2 0x34DD JUMPI DUP2 DUP2 ADD MLOAD DUP4 DUP3 ADD MSTORE PUSH1 0x20 ADD PUSH2 0x34C5 JUMP JUMPDEST DUP4 DUP2 GT ISZERO PUSH2 0x19AF JUMPI POP POP PUSH1 0x0 SWAP2 ADD MSTORE JUMP JUMPDEST PUSH1 0x1F ADD PUSH32 0xFFFFFFFFFFFFFFFFFFFFFFFFFFFFFFFFFFFFFFFFFFFFFFFFFFFFFFFFFFFFFFE0 AND SWAP1 JUMP STOP LOG2 PUSH6 0x627A7A723058 KECCAK256 0xae 0xac OR DUP10 0xc0 0xd5 0xa5 0xb1 0xbd JUMP PUSH31 0x859915E810F5F86C6F738E64671642DF3734DD15EB6C6578706572696D656E PUSH21 0x616CF5003700000000000000000000000000000000 "
			}
		}
	},
	"sourceTreeHashHex": "0x80c8737f115d1d895b67460d4aafa91a4b8629ac3ce5f877fc2eed4e3a679f31",
	"compiler": {
		"name": "solc",
		"version": "soljson-v0.4.24+commit.e67f0147.js",
		"settings": {
			"optimizer": {
				"enabled": true,
				"runs": 1000000
			},
			"outputSelection": {
				"*": {
					"*": [
						"abi",
						"evm.bytecode.object",
						"evm.bytecode.sourceMap",
						"evm.deployedBytecode.object",
						"evm.deployedBytecode.sourceMap"
					]
				}
			}
		}
	}
}