{
	"schemaVersion": "2.0.0",
	"contractName": "Forwarder",
	"compilerOutput": {
		"abi": [
			{
				"constant": true,
				"inputs": [
					{
						"components": [
							{
								"name": "makerAddress",
								"type": "address"
							},
							{
								"name": "takerAddress",
								"type": "address"
							},
							{
								"name": "feeRecipientAddress",
								"type": "address"
							},
							{
								"name": "senderAddress",
								"type": "address"
							},
							{
								"name": "makerAssetAmount",
								"type": "uint256"
							},
							{
								"name": "takerAssetAmount",
								"type": "uint256"
							},
							{
								"name": "makerFee",
								"type": "uint256"
							},
							{
								"name": "takerFee",
								"type": "uint256"
							},
							{
								"name": "expirationTimeSeconds",
								"type": "uint256"
							},
							{
								"name": "salt",
								"type": "uint256"
							},
							{
								"name": "makerAssetData",
								"type": "bytes"
							},
							{
								"name": "takerAssetData",
								"type": "bytes"
							}
						],
						"name": "orders",
						"type": "tuple[]"
					},
					{
						"name": "makerAssetFillAmount",
						"type": "uint256"
					}
				],
				"name": "calculateMarketBuyFillResults",
				"outputs": [
					{
						"components": [
							{
								"name": "makerAssetFilledAmount",
								"type": "uint256"
							},
							{
								"name": "takerAssetFilledAmount",
								"type": "uint256"
							},
							{
								"name": "makerFeePaid",
								"type": "uint256"
							},
							{
								"name": "takerFeePaid",
								"type": "uint256"
							}
						],
						"name": "totalFillResults",
						"type": "tuple"
					}
				],
				"payable": false,
				"stateMutability": "view",
				"type": "function"
			},
			{
				"constant": true,
				"inputs": [],
				"name": "ALLOWABLE_EXCHANGE_PERCENTAGE",
				"outputs": [
					{
						"name": "",
						"type": "uint16"
					}
				],
				"payable": false,
				"stateMutability": "view",
				"type": "function"
			},
			{
				"constant": true,
				"inputs": [
					{
						"components": [
							{
								"name": "makerAddress",
								"type": "address"
							},
							{
								"name": "takerAddress",
								"type": "address"
							},
							{
								"name": "feeRecipientAddress",
								"type": "address"
							},
							{
								"name": "senderAddress",
								"type": "address"
							},
							{
								"name": "makerAssetAmount",
								"type": "uint256"
							},
							{
								"name": "takerAssetAmount",
								"type": "uint256"
							},
							{
								"name": "makerFee",
								"type": "uint256"
							},
							{
								"name": "takerFee",
								"type": "uint256"
							},
							{
								"name": "expirationTimeSeconds",
								"type": "uint256"
							},
							{
								"name": "salt",
								"type": "uint256"
							},
							{
								"name": "makerAssetData",
								"type": "bytes"
							},
							{
								"name": "takerAssetData",
								"type": "bytes"
							}
						],
						"name": "order",
						"type": "tuple"
					},
					{
						"name": "takerAssetFillAmount",
						"type": "uint256"
					}
				],
				"name": "calculateFillOrderFillResults",
				"outputs": [
					{
						"components": [
							{
								"name": "makerAssetFilledAmount",
								"type": "uint256"
							},
							{
								"name": "takerAssetFilledAmount",
								"type": "uint256"
							},
							{
								"name": "makerFeePaid",
								"type": "uint256"
							},
							{
								"name": "takerFeePaid",
								"type": "uint256"
							}
						],
						"name": "fillResults",
						"type": "tuple"
					}
				],
				"payable": false,
				"stateMutability": "view",
				"type": "function"
			},
			{
				"constant": false,
				"inputs": [
					{
						"components": [
							{
								"name": "makerAddress",
								"type": "address"
							},
							{
								"name": "takerAddress",
								"type": "address"
							},
							{
								"name": "feeRecipientAddress",
								"type": "address"
							},
							{
								"name": "senderAddress",
								"type": "address"
							},
							{
								"name": "makerAssetAmount",
								"type": "uint256"
							},
							{
								"name": "takerAssetAmount",
								"type": "uint256"
							},
							{
								"name": "makerFee",
								"type": "uint256"
							},
							{
								"name": "takerFee",
								"type": "uint256"
							},
							{
								"name": "expirationTimeSeconds",
								"type": "uint256"
							},
							{
								"name": "salt",
								"type": "uint256"
							},
							{
								"name": "makerAssetData",
								"type": "bytes"
							},
							{
								"name": "takerAssetData",
								"type": "bytes"
							}
						],
						"name": "orders",
						"type": "tuple[]"
					},
					{
						"name": "signatures",
						"type": "bytes[]"
					},
					{
						"components": [
							{
								"name": "makerAddress",
								"type": "address"
							},
							{
								"name": "takerAddress",
								"type": "address"
							},
							{
								"name": "feeRecipientAddress",
								"type": "address"
							},
							{
								"name": "senderAddress",
								"type": "address"
							},
							{
								"name": "makerAssetAmount",
								"type": "uint256"
							},
							{
								"name": "takerAssetAmount",
								"type": "uint256"
							},
							{
								"name": "makerFee",
								"type": "uint256"
							},
							{
								"name": "takerFee",
								"type": "uint256"
							},
							{
								"name": "expirationTimeSeconds",
								"type": "uint256"
							},
							{
								"name": "salt",
								"type": "uint256"
							},
							{
								"name": "makerAssetData",
								"type": "bytes"
							},
							{
								"name": "takerAssetData",
								"type": "bytes"
							}
						],
						"name": "feeOrders",
						"type": "tuple[]"
					},
					{
						"name": "feeSignatures",
						"type": "bytes[]"
					},
					{
						"name": "feeProportion",
						"type": "uint16"
					},
					{
						"name": "feeRecipient",
						"type": "address"
					}
				],
				"name": "marketBuyTokens",
				"outputs": [
					{
						"components": [
							{
								"name": "makerAssetFilledAmount",
								"type": "uint256"
							},
							{
								"name": "takerAssetFilledAmount",
								"type": "uint256"
							},
							{
								"name": "makerFeePaid",
								"type": "uint256"
							},
							{
								"name": "takerFeePaid",
								"type": "uint256"
							}
						],
						"name": "",
						"type": "tuple"
					}
				],
				"payable": true,
				"stateMutability": "payable",
				"type": "function"
			},
			{
				"constant": true,
				"inputs": [],
				"name": "owner",
				"outputs": [
					{
						"name": "",
						"type": "address"
					}
				],
				"payable": false,
				"stateMutability": "view",
				"type": "function"
			},
			{
				"constant": true,
				"inputs": [],
				"name": "ERC20_PROXY_ID",
				"outputs": [
					{
						"name": "",
						"type": "uint8"
					}
				],
				"payable": false,
				"stateMutability": "view",
				"type": "function"
			},
			{
				"constant": false,
				"inputs": [
					{
						"components": [
							{
								"name": "makerAddress",
								"type": "address"
							},
							{
								"name": "takerAddress",
								"type": "address"
							},
							{
								"name": "feeRecipientAddress",
								"type": "address"
							},
							{
								"name": "senderAddress",
								"type": "address"
							},
							{
								"name": "makerAssetAmount",
								"type": "uint256"
							},
							{
								"name": "takerAssetAmount",
								"type": "uint256"
							},
							{
								"name": "makerFee",
								"type": "uint256"
							},
							{
								"name": "takerFee",
								"type": "uint256"
							},
							{
								"name": "expirationTimeSeconds",
								"type": "uint256"
							},
							{
								"name": "salt",
								"type": "uint256"
							},
							{
								"name": "makerAssetData",
								"type": "bytes"
							},
							{
								"name": "takerAssetData",
								"type": "bytes"
							}
						],
						"name": "orders",
						"type": "tuple[]"
					},
					{
						"name": "signatures",
						"type": "bytes[]"
					},
					{
						"components": [
							{
								"name": "makerAddress",
								"type": "address"
							},
							{
								"name": "takerAddress",
								"type": "address"
							},
							{
								"name": "feeRecipientAddress",
								"type": "address"
							},
							{
								"name": "senderAddress",
								"type": "address"
							},
							{
								"name": "makerAssetAmount",
								"type": "uint256"
							},
							{
								"name": "takerAssetAmount",
								"type": "uint256"
							},
							{
								"name": "makerFee",
								"type": "uint256"
							},
							{
								"name": "takerFee",
								"type": "uint256"
							},
							{
								"name": "expirationTimeSeconds",
								"type": "uint256"
							},
							{
								"name": "salt",
								"type": "uint256"
							},
							{
								"name": "makerAssetData",
								"type": "bytes"
							},
							{
								"name": "takerAssetData",
								"type": "bytes"
							}
						],
						"name": "feeOrders",
						"type": "tuple[]"
					},
					{
						"name": "feeSignatures",
						"type": "bytes[]"
					},
					{
						"name": "makerAssetAmount",
						"type": "uint256"
					},
					{
						"name": "feeProportion",
						"type": "uint16"
					},
					{
						"name": "feeRecipient",
						"type": "address"
					}
				],
				"name": "buyExactAssets",
				"outputs": [
					{
						"components": [
							{
								"name": "makerAssetFilledAmount",
								"type": "uint256"
							},
							{
								"name": "takerAssetFilledAmount",
								"type": "uint256"
							},
							{
								"name": "makerFeePaid",
								"type": "uint256"
							},
							{
								"name": "takerFeePaid",
								"type": "uint256"
							}
						],
						"name": "totalFillResults",
						"type": "tuple"
					}
				],
				"payable": true,
				"stateMutability": "payable",
				"type": "function"
			},
			{
				"constant": true,
				"inputs": [],
				"name": "ERC721_PROXY_ID",
				"outputs": [
					{
						"name": "",
						"type": "uint8"
					}
				],
				"payable": false,
				"stateMutability": "view",
				"type": "function"
			},
			{
				"constant": true,
				"inputs": [],
				"name": "PERCENTAGE_DENOMINATOR",
				"outputs": [
					{
						"name": "",
						"type": "uint16"
					}
				],
				"payable": false,
				"stateMutability": "view",
				"type": "function"
			},
			{
				"constant": true,
				"inputs": [],
				"name": "MAX_FEE",
				"outputs": [
					{
						"name": "",
						"type": "uint16"
					}
				],
				"payable": false,
				"stateMutability": "view",
				"type": "function"
			},
			{
				"constant": true,
				"inputs": [
					{
						"components": [
							{
								"name": "makerAddress",
								"type": "address"
							},
							{
								"name": "takerAddress",
								"type": "address"
							},
							{
								"name": "feeRecipientAddress",
								"type": "address"
							},
							{
								"name": "senderAddress",
								"type": "address"
							},
							{
								"name": "makerAssetAmount",
								"type": "uint256"
							},
							{
								"name": "takerAssetAmount",
								"type": "uint256"
							},
							{
								"name": "makerFee",
								"type": "uint256"
							},
							{
								"name": "takerFee",
								"type": "uint256"
							},
							{
								"name": "expirationTimeSeconds",
								"type": "uint256"
							},
							{
								"name": "salt",
								"type": "uint256"
							},
							{
								"name": "makerAssetData",
								"type": "bytes"
							},
							{
								"name": "takerAssetData",
								"type": "bytes"
							}
						],
						"name": "orders",
						"type": "tuple[]"
					},
					{
						"name": "zrxAmount",
						"type": "uint256"
					}
				],
				"name": "calculateBuyFeesFillResults",
				"outputs": [
					{
						"components": [
							{
								"name": "makerAssetFilledAmount",
								"type": "uint256"
							},
							{
								"name": "takerAssetFilledAmount",
								"type": "uint256"
							},
							{
								"name": "makerFeePaid",
								"type": "uint256"
							},
							{
								"name": "takerFeePaid",
								"type": "uint256"
							}
						],
						"name": "totalFillResults",
						"type": "tuple"
					}
				],
				"payable": false,
				"stateMutability": "view",
				"type": "function"
			},
			{
				"constant": false,
				"inputs": [
					{
						"name": "erc20AssetProxyId",
						"type": "uint8"
					}
				],
				"name": "setERC20ProxyApproval",
				"outputs": [],
				"payable": false,
				"stateMutability": "nonpayable",
				"type": "function"
			},
			{
				"constant": true,
				"inputs": [
					{
						"name": "",
						"type": "address"
					},
					{
						"name": "",
						"type": "uint256"
					},
					{
						"name": "",
						"type": "bytes"
					}
				],
				"name": "onERC721Received",
				"outputs": [
					{
						"name": "",
						"type": "bytes4"
					}
				],
				"payable": false,
				"stateMutability": "pure",
				"type": "function"
			},
			{
				"constant": false,
				"inputs": [
					{
						"name": "newOwner",
						"type": "address"
					}
				],
				"name": "transferOwnership",
				"outputs": [],
				"payable": false,
				"stateMutability": "nonpayable",
				"type": "function"
			},
			{
				"inputs": [
					{
						"name": "_exchange",
						"type": "address"
					},
					{
						"name": "_etherToken",
						"type": "address"
					},
					{
						"name": "_zrxToken",
						"type": "address"
					},
					{
						"name": "_erc20AssetProxyId",
						"type": "uint8"
					},
					{
						"name": "_zrxAssetData",
						"type": "bytes"
					},
					{
						"name": "_wethAssetData",
						"type": "bytes"
					}
				],
				"payable": false,
				"stateMutability": "nonpayable",
				"type": "constructor"
			},
			{
				"payable": true,
				"stateMutability": "payable",
				"type": "fallback"
			}
		],
		"evm": {
			"bytecode": {
				"linkReferences": {},
				"object": "0x60806040523480156200001157600080fd5b506040516200344e3803806200344e8339810180604052620000379190810190620004a8565b6000805433600160a060020a031991821617909155600180548216600160a060020a0389811691909117909155600280548316888316179055600380549092169086161790558151620000929060049060208501906200031e565b508051620000a89060059060208401906200031e565b50620000bd83640100000000620000c9810204565b505050505050620006d6565b60008054600160a060020a031633146200011a576040517f08c379a0000000000000000000000000000000000000000000000000000000008152600401620001119062000608565b60405180910390fd5b6001546040517f92c1421e000000000000000000000000000000000000000000000000000000008152600160a060020a03909116906392c1421e906200016590859060040162000620565b602060405180830381600087803b1580156200018057600080fd5b505af115801562000195573d6000803e3d6000fd5b505050506040513d601f19601f82011682018060405250620001bb91908101906200045e565b9050600160a060020a038116156200031a576002546040517f095ea7b3000000000000000000000000000000000000000000000000000000008152600160a060020a039091169063095ea7b3906200021c90849060001990600401620005e9565b602060405180830381600087803b1580156200023757600080fd5b505af11580156200024c573d6000803e3d6000fd5b505050506040513d601f19601f8201168201806040525062000272919081019062000487565b506003546040517f095ea7b3000000000000000000000000000000000000000000000000000000008152600160a060020a039091169063095ea7b390620002c290849060001990600401620005e9565b602060405180830381600087803b158015620002dd57600080fd5b505af1158015620002f2573d6000803e3d6000fd5b505050506040513d601f19601f8201168201806040525062000318919081019062000487565b505b5050565b828054600181600116156101000203166002900490600052602060002090601f016020900481019282601f106200036157805160ff191683800117855562000391565b8280016001018555821562000391579182015b828111156200039157825182559160200191906001019062000374565b506200039f929150620003a3565b5090565b620003c091905b808211156200039f5760008155600101620003aa565b90565b6000620003d182516200067f565b9392505050565b6000620003d1825162000691565b6000601f82018313620003f857600080fd5b81516200040f620004098262000657565b62000630565b915080825260208301602083018583830111156200042c57600080fd5b62000439838284620006a3565b50505092915050565b6000620003d1825162000696565b6000620003d182516200068b565b6000602082840312156200047157600080fd5b60006200047f8484620003c3565b949350505050565b6000602082840312156200049a57600080fd5b60006200047f8484620003d8565b60008060008060008060c08789031215620004c257600080fd5b6000620004d0898962000442565b9650506020620004e389828a0162000442565b9550506040620004f689828a0162000442565b94505060606200050989828a0162000450565b93505060808701516001604060020a038111156200052657600080fd5b6200053489828a01620003e6565b92505060a08701516001604060020a038111156200055157600080fd5b6200055f89828a01620003e6565b9150509295509295509295565b62000577816200067f565b82525050565b603381527f4f6e6c7920636f6e7472616374206f776e657220697320616c6c6f776564207460208201527f6f2063616c6c2074686973206d6574686f642e00000000000000000000000000604082015260600190565b6200057781620003c0565b62000577816200068b565b60408101620005f982856200056c565b620003d16020830184620005d3565b602080825281016200061a816200057d565b92915050565b602081016200061a8284620005de565b6040518181016001604060020a03811182821017156200064f57600080fd5b604052919050565b60006001604060020a038211156200066e57600080fd5b506020601f91909101601f19160190565b600160a060020a031690565b60ff1690565b151590565b60006200061a826200067f565b60005b83811015620006c0578181015183820152602001620006a6565b83811115620006d0576000848401525b50505050565b612d6880620006e66000396000f3006080604052600436106100b65763ffffffff60e060020a6000350416631b67ad77811461014d57806320472cf7146101835780634a23b67b146101a55780638a637f3d146101c55780638da5cb5b146101d85780638ee1a642146101fa5780638fbb3ea61461021c578063a28fe02e1461022f578063b3cd425414610244578063bc063e1a14610259578063d3df5f2d1461026e578063de5f8e411461028e578063f0b9e5ba146102b0578063f2fde38b146102dd575b60025460408051606081018252602381527f44454641554c545f46554e4354494f4e5f574554485f434f4e54524143545f4f60208201527f4e4c5900000000000000000000000000000000000000000000000000000000009181019190915290600160a060020a0316331461014a5760405160e560020a62461bcd0281526004016101419190612b64565b60405180910390fd5b50005b34801561015957600080fd5b5061016d6101683660046126e1565b6102fd565b60405161017a9190612b85565b60405180910390f35b34801561018f57600080fd5b506101986103c3565b60405161017a9190612be5565b3480156101b157600080fd5b5061016d6101c036600461276e565b6103c9565b61016d6101d3366004612500565b610477565b3480156101e457600080fd5b506101ed61066d565b60405161017a9190612a8f565b34801561020657600080fd5b5061020f61067c565b60405161017a9190612c01565b61016d61022a3660046125e6565b610681565b34801561023b57600080fd5b5061020f6108fb565b34801561025057600080fd5b50610198610900565b34801561026557600080fd5b50610198610906565b34801561027a57600080fd5b5061016d6102893660046126e1565b61090c565b34801561029a57600080fd5b506102ae6102a93660046127a4565b610aa1565b005b3480156102bc57600080fd5b506102d06102cb36600461249b565b610cc0565b60405161017a9190612b56565b3480156102e957600080fd5b506102ae6102f836600461245f565b610ce9565b610305612125565b6000806000610312612125565b600093505b86518410156103b95761032e868660000151610d51565b9250610371878581518110151561034157fe5b9060200190602002015160a00151888681518110151561035d57fe5b906020019060200201516080015185610d63565b9150610394878581518110151561038457fe5b90602001906020020151836103c9565b90506103a08582610d80565b84518614156103ae576103b9565b600190930192610317565b5050505092915050565b61251c81565b6103d1612125565b6001546040517fad1876b5000000000000000000000000000000000000000000000000000000008152600160a060020a039091169063ad1876b59061041c9086908690600401612b93565b608060405180830381600087803b15801561043657600080fd5b505af115801561044a573d6000803e3d6000fd5b505050506040513d601f19601f8201168201806040525061046e9190810190612750565b90505b92915050565b61047f612125565b60408051808201909152601781527f56414c55455f475245415445525f5448414e5f5a45524f000000000000000000602082015260009081903482106104db5760405160e560020a62461bcd0281526004016101419190612b64565b50600091505b88518210156105da578860008151811015156104f957fe5b906020019060200201516101400151898381518110151561051657fe5b602090810290910181015161014001919091526005805460408051601f60026000196101006001871615020190941693909304928301859004850281018501909152818152928301828280156105ad5780601f10610582576101008083540402835291602001916105ad565b820191906000526020600020905b81548152906001019060200180831161059057829003601f168201915b505050505089838151811015156105c057fe5b6020908102909101015161016001526001909101906104e1565b6105e5348686610de2565b9050600260009054906101000a9004600160a060020a0316600160a060020a031663d0e30db0826040518263ffffffff1660e060020a0281526004016000604051808303818588803b15801561063a57600080fd5b505af115801561064e573d6000803e3d6000fd5b50505050506106608989898985610ecc565b9998505050505050505050565b600054600160a060020a031681565b600181565b610689612125565b60408051808201909152601781527f56414c55455f475245415445525f5448414e5f5a45524f000000000000000000602082015260009081903482106106e55760405160e560020a62461bcd0281526004016101419190612b64565b503491508960008151811015156106f857fe5b90602001906020020151610140015160018b600081518110151561071857fe5b906020019060200201516101400151510381518110151561073557fe5b01602001517f010000000000000000000000000000000000000000000000000000000000000090819004810204905060ff811660011480610779575060ff81166002145b60408051808201909152601781527f554e535550504f525445445f544f4b454e5f50524f585900000000000000000060208201529015156107d05760405160e560020a62461bcd0281526004016101419190612b64565b50600260009054906101000a9004600160a060020a0316600160a060020a031663d0e30db0836040518263ffffffff1660e060020a0281526004016000604051808303818588803b15801561082457600080fd5b505af1158015610838573d6000803e3d6000fd5b505050505060ff81166001141561085d576108568a8a8a8a8a611067565b9250610879565b60ff811660021415610879576108768a8a8a8a8a61134f565b92505b610887828460200151610d51565b9150610897828460200151611631565b6040805180820190915260168152600080516020612d0f83398151915260208201529015156108dc5760405160e560020a62461bcd0281526004016101419190612b64565b506108ed828460200151878761164e565b505050979650505050505050565b600281565b61271081565b6103e881565b610914612125565b600080600080610922612125565b61094a88600081518110151561093457fe5b906020019060200201516101400151600061173b565b60035460408051808201909152601881527f54414b45525f41535345545f5a52585f524551554952454400000000000000006020820152919650600160a060020a038088169116146109b25760405160e560020a62461bcd0281526004016101419190612b64565b50600093505b8751841015610a96576109cf878760000151610d51565b9250610a3688858151811015156109e257fe5b9060200190602002015160a00151610a308a87815181101515610a0157fe5b90602001906020020151608001518b88815181101515610a1d57fe5b9060200190602002015160e00151610d51565b85610d63565b9150610a5e8885815181101515610a4957fe5b906020019060200201516101c08460016117d8565b9050610a7281600001518260600151610d51565b8152610a7e8682610d80565b85518711610a8b57610a96565b6001909301926109b8565b505050505092915050565b60008054600160a060020a03163314610acf5760405160e560020a62461bcd02815260040161014190612b75565b6001546040517f92c1421e000000000000000000000000000000000000000000000000000000008152600160a060020a03909116906392c1421e90610b18908590600401612c01565b602060405180830381600087803b158015610b3257600080fd5b505af1158015610b46573d6000803e3d6000fd5b505050506040513d601f19601f82011682018060405250610b6a919081019061247d565b9050600160a060020a03811615610cbc576002546040517f095ea7b3000000000000000000000000000000000000000000000000000000008152600160a060020a039091169063095ea7b390610bc890849060001990600401612b09565b602060405180830381600087803b158015610be257600080fd5b505af1158015610bf6573d6000803e3d6000fd5b505050506040513d601f19601f82011682018060405250610c1a9190810190612732565b506003546040517f095ea7b3000000000000000000000000000000000000000000000000000000008152600160a060020a039091169063095ea7b390610c6890849060001990600401612b09565b602060405180830381600087803b158015610c8257600080fd5b505af1158015610c96573d6000803e3d6000fd5b505050506040513d601f19601f82011682018060405250610cba9190810190612732565b505b5050565b7ff0b9e5ba000000000000000000000000000000000000000000000000000000005b9392505050565b600054600160a060020a03163314610d165760405160e560020a62461bcd02815260040161014190612b75565b600160a060020a03811615610d4e576000805473ffffffffffffffffffffffffffffffffffffffff1916600160a060020a0383161790555b50565b600082821115610d5d57fe5b50900390565b6000610d78610d7285846117e7565b8461180b565b949350505050565b81518151610d8e91906117d8565b825260208083015190820151610da491906117d8565b602083015260408083015190820151610dbd91906117d8565b604083015260608083015190820151610dd691906117d8565b60609092019190915250565b82600061ffff841681108015610e005750600160a060020a03831615155b15610ec45760408051808201909152601881527f4645455f50524f504f5254494f4e5f544f4f5f4c41524745000000000000000060208201526103e861ffff86161115610e635760405160e560020a62461bcd0281526004016101419190612b64565b50610e7d610e75838661ffff166117e7565b61271061180b565b9050610e898282610d51565b604051909250600160a060020a0384169082156108fc029083906000818181858888f19350505050158015610ec2573d6000803e3d6000fd5b505b509392505050565b610ed4612125565b600080610edf612125565b610ee7612125565b610eef612125565b869450610f048b600081518110151561093457fe5b9350610f108b88611822565b9250600083606001511115610f4b57610f2e89898560600151611895565b9150610f3e858360200151610d51565b6060808401519088015294505b6001546040517f7e1d9808000000000000000000000000000000000000000000000000000000008152600160a060020a0390911690637e1d980890610f98908e9089908f90600401612b24565b608060405180830381600087803b158015610fb257600080fd5b505af1158015610fc6573d6000803e3d6000fd5b505050506040513d601f19601f82011682018060405250610fea9190810190612750565b9050610ff68682610d80565b611004878260200151611631565b6040805180820190915260168152600080516020612d0f83398151915260208201529015156110495760405160e560020a62461bcd0281526004016101419190612b64565b5061105984338360000151611b31565b505050505095945050505050565b61106f612125565b60008061107a612125565b611082612125565b61108a612125565b61109c8b600081518110151561093457fe5b9450600093505b8a5184101561119c578a60008151811015156110bb57fe5b9060200190602002015161014001518b858151811015156110d857fe5b602090810290910181015161014001919091526005805460408051601f600260001961010060018716150201909416939093049283018590048502810185019091528181529283018282801561116f5780601f106111445761010080835404028352916020019161116f565b820191906000526020600020905b81548152906001019060200180831161115257829003601f168201915b50505050508b8581518110151561118257fe5b6020908102909101015161016001526001909301926110a3565b600354600160a060020a038681169116141561120d576111bd8b8b89611895565b80516040805180820190915260168152600080516020612d0f83398151915260208201529194508811156112075760405160e560020a62461bcd0281526004016101419190612b64565b50611336565b6112178b886102fd565b915060008260600151111561124c5761123589898460600151611895565b602080820151908801526060808201519088015290505b6001546040517fe5fa431b000000000000000000000000000000000000000000000000000000008152600160a060020a039091169063e5fa431b90611299908e908b908f90600401612b24565b608060405180830381600087803b1580156112b357600080fd5b505af11580156112c7573d6000803e3d6000fd5b505050506040513d601f19601f820116820180604052506112eb9190810190612750565b80516040805180820190915260168152600080516020612d0f833981519152602082015291945088146113345760405160e560020a62461bcd0281526004016101419190612b64565b505b6113408684610d80565b61105985338560000151611b31565b611357612125565b600080611362612125565b61136a612125565b895160408051606081018252602281527f41535345545f414d4f554e545f4d5553545f4d415443485f4f524445525f534960208201527f5a45000000000000000000000000000000000000000000000000000000000000918101919091529087146113eb5760405160e560020a62461bcd0281526004016101419190612b64565b50600092505b895183101561142c5761141f848b8581518110151561140c57fe5b9060200190602002015160e001516117d8565b93506001909201916113f1565b600084111561145757611440888886611895565b606080820151908701526020808201519087015291505b600092505b8951831015611624576005805460408051602060026001851615610100026000190190941693909304601f810184900484028201840190925281815292918301828280156114eb5780601f106114c0576101008083540402835291602001916114eb565b820191906000526020600020905b8154815290600101906020018083116114ce57829003601f168201915b50505050508a848151811015156114fe57fe5b6020908102909101015161016001526001548a51600160a060020a03909116906364a3bc15908c908690811061153057fe5b906020019060200201518c8681518110151561154857fe5b9060200190602002015160a001518c8781518110151561156457fe5b906020019060200201516040518463ffffffff1660e060020a02815260040161158f93929190612bb3565b608060405180830381600087803b1580156115a957600080fd5b505af11580156115bd573d6000803e3d6000fd5b505050506040513d601f19601f820116820180604052506115e19190810190612750565b90506115ed8582610d80565b6116198a848151811015156115fe57fe5b90602001906020020151610140015130338460000151611c27565b60019092019161145c565b5050505095945050505050565b600080611643610e758561251c6117e7565b909210159392505050565b6000806000861115611732576002546040517f2e1a7d4d000000000000000000000000000000000000000000000000000000008152600160a060020a0390911690632e1a7d4d906116a3908990600401612bf3565b600060405180830381600087803b1580156116bd57600080fd5b505af11580156116d1573d6000803e3d6000fd5b505050508591506116ec856116e7878787610de2565b610d51565b90506116f88282610d51565b9150600082111561173257604051339083156108fc029084906000818181858888f19350505050158015611730573d6000803e3d6000fd5b505b50949350505050565b60008160140183511015606060405190810160405280602681526020017f475245415445525f4f525f455155414c5f544f5f32305f4c454e4754485f524581526020017f51554952454400000000000000000000000000000000000000000000000000008152509015156117c55760405160e560020a62461bcd0281526004016101419190612b64565b50500160140151600160a060020a031690565b600082820183811015610ce257fe5b6000828202831580611803575082848281151561180057fe5b04145b1515610ce257fe5b600080828481151561181957fe5b04949350505050565b61182a612125565b600080611835612125565b600092505b855183101561188c57611851858560200151610d51565b9150611864868481518110151561038457fe5b90506118708482610d80565b84846020015114156118815761188c565b60019092019161183a565b50505092915050565b61189d612125565b60008060006118aa612125565b600093505b8751841015611b26576004805460408051602060026001851615610100026000190190941693909304601f8101849004840282018401909252818152929183018282801561193e5780601f106119135761010080835404028352916020019161193e565b820191906000526020600020905b81548152906001019060200180831161192157829003601f168201915b5050505050888581518110151561195157fe5b602090810290910181015161014001919091526005805460408051601f60026000196101006001871615020190941693909304928301859004850281018501909152818152928301828280156119e85780601f106119bd576101008083540402835291602001916119e8565b820191906000526020600020905b8154815290600101906020018083116119cb57829003601f168201915b505050505088858151811015156119fb57fe5b6020908102909101015161016001528451611a17908790610d51565b9250611a2a88858151811015156109e257fe5b6001548951919350600160a060020a03169063b4be83d5908a9087908110611a4e57fe5b90602001906020020151611a638560016117d8565b8a88815181101515611a7157fe5b906020019060200201516040518463ffffffff1660e060020a028152600401611a9c93929190612bb3565b608060405180830381600087803b158015611ab657600080fd5b505af1158015611aca573d6000803e3d6000fd5b505050506040513d601f19601f82011682018060405250611aee9190810190612750565b9050611b0281600001518260600151610d51565b8152611b0e8582610d80565b84518611611b1b57611b26565b6001909301926118af565b505050509392505050565b6040517fa9059cbb000000000000000000000000000000000000000000000000000000008152600160a060020a0384169063a9059cbb90611b789085908590600401612b09565b602060405180830381600087803b158015611b9257600080fd5b505af1158015611ba6573d6000803e3d6000fd5b505050506040513d601f19601f82011682018060405250611bca9190810190612732565b60408051808201909152600f81527f5452414e534645525f4641494c454400000000000000000000000000000000006020820152901515611c215760405160e560020a62461bcd0281526004016101419190612b64565b50505050565b611c3084611c3d565b50611c2184848484611d0e565b600080825111606060405190810160405280602181526020017f475245415445525f5448414e5f5a45524f5f4c454e4754485f5245515549524581526020017f4400000000000000000000000000000000000000000000000000000000000000815250901515611cc35760405160e560020a62461bcd0281526004016101419190612b64565b50815182906000198101908110611cd657fe5b0160200151825160001901909252507f0100000000000000000000000000000000000000000000000000000000000000908190040290565b60408051808201909152600e81527f494e56414c49445f414d4f554e540000000000000000000000000000000000006020820152600090819060609060018514611d6e5760405160e560020a62461bcd0281526004016101419190612b64565b50611d7887611e8f565b925092509250600081511115611e0a576040517fb88d4fde000000000000000000000000000000000000000000000000000000008152600160a060020a0384169063b88d4fde90611dd3908990899087908790600401612ac5565b600060405180830381600087803b158015611ded57600080fd5b505af1158015611e01573d6000803e3d6000fd5b50505050611e86565b6040517f23b872dd000000000000000000000000000000000000000000000000000000008152600160a060020a038416906323b872dd90611e5390899089908790600401612a9d565b600060405180830381600087803b158015611e6d57600080fd5b505af1158015611e81573d6000803e3d6000fd5b505050505b50505050505050565b6000806060611e9f84600061173b565b9250611eac846014611ecd565b9150603484511115611ec657611ec3846034611ed9565b90505b9193909250565b600061046e8383611fd2565b60606000611ee78484611ecd565b905060208301925080830184511015606060405190810160405280603081526020017f475245415445525f4f525f455155414c5f544f5f4e45535445445f425954455381526020017f5f4c454e4754485f524551554952454400000000000000000000000000000000815250901515611f765760405160e560020a62461bcd0281526004016101419190612b64565b50806040519080825280601f01601f191660200182016040528015611fa5578160200160208202803883390190505b509150611fcb611fb483612066565b60200184611fc187612066565b0160200183612069565b5092915050565b60008160200183511015606060405190810160405280602681526020017f475245415445525f4f525f455155414c5f544f5f33325f4c454e4754485f524581526020017f515549524544000000000000000000000000000000000000000000000000000081525090151561205c5760405160e560020a62461bcd0281526004016101419190612b64565b5050016020015190565b90565b6020811015612093576001816020036101000a038019835116818551168082178652505050610cba565b828214156120a057610cba565b828211156120e65760208104602082039150818301828501815160005b848110156120db5786518852602097880197909601956001016120bd565b50905250610cba9050565b60208104602082039150818301828501845160005b8481101561211a5783518352601f1993840193909201916001016120fb565b508652505050505050565b608060405190810160405280600081526020016000815260200160008152602001600081525090565b6000610ce28235612c89565b6000610ce28251612c89565b6000601f8201831361217757600080fd5b813561218a61218582612c36565b612c0f565b81815260209384019390925082018360005b838110156103b957813586016121b28882612231565b845250602092830192919091019060010161219c565b6000601f820183136121d957600080fd5b81356121e761218582612c36565b81815260209384019390925082018360005b838110156103b9578135860161220f88826122e6565b84525060209283019291909101906001016121f9565b6000610ce28251612cc7565b6000601f8201831361224257600080fd5b813561225061218582612c57565b9150808252602083016020830185838301111561226c57600080fd5b61188c838284612ccc565b60006080828403121561228957600080fd5b6122936080612c0f565b905060006122a18484612447565b82525060206122b284848301612447565b60208301525060406122c684828501612447565b60408301525060606122da84828501612447565b60608301525092915050565b600061018082840312156122f957600080fd5b612304610180612c0f565b90506000612312848461214e565b82525060206123238484830161214e565b60208301525060406123378482850161214e565b604083015250606061234b8482850161214e565b606083015250608061235f8482850161243b565b60808301525060a06123738482850161243b565b60a08301525060c06123878482850161243b565b60c08301525060e061239b8482850161243b565b60e0830152506101006123b08482850161243b565b610100830152506101206123c68482850161243b565b6101208301525061014082013567ffffffffffffffff8111156123e857600080fd5b6123f484828501612231565b6101408301525061016082013567ffffffffffffffff81111561241657600080fd5b61242284828501612231565b6101608301525092915050565b6000610ce28235612cba565b6000610ce28235612066565b6000610ce28251612066565b6000610ce28235612cc1565b60006020828403121561247157600080fd5b6000610d78848461214e565b60006020828403121561248f57600080fd5b6000610d78848461215a565b6000806000606084860312156124b057600080fd5b60006124bc868661214e565b93505060206124cd8682870161243b565b925050604084013567ffffffffffffffff8111156124ea57600080fd5b6124f686828701612231565b9150509250925092565b60008060008060008060c0878903121561251957600080fd5b863567ffffffffffffffff81111561253057600080fd5b61253c89828a016121c8565b965050602087013567ffffffffffffffff81111561255957600080fd5b61256589828a01612166565b955050604087013567ffffffffffffffff81111561258257600080fd5b61258e89828a016121c8565b945050606087013567ffffffffffffffff8111156125ab57600080fd5b6125b789828a01612166565b93505060806125c889828a0161242f565b92505060a06125d989828a0161214e565b9150509295509295509295565b600080600080600080600060e0888a03121561260157600080fd5b873567ffffffffffffffff81111561261857600080fd5b6126248a828b016121c8565b975050602088013567ffffffffffffffff81111561264157600080fd5b61264d8a828b01612166565b965050604088013567ffffffffffffffff81111561266a57600080fd5b6126768a828b016121c8565b955050606088013567ffffffffffffffff81111561269357600080fd5b61269f8a828b01612166565b94505060806126b08a828b0161243b565b93505060a06126c18a828b0161242f565b92505060c06126d28a828b0161214e565b91505092959891949750929550565b600080604083850312156126f457600080fd5b823567ffffffffffffffff81111561270b57600080fd5b612717858286016121c8565b92505060206127288582860161243b565b9150509250929050565b60006020828403121561274457600080fd5b6000610d788484612225565b60006080828403121561276257600080fd5b6000610d788484612277565b6000806040838503121561278157600080fd5b823567ffffffffffffffff81111561279857600080fd5b612717858286016122e6565b6000602082840312156127b657600080fd5b6000610d788484612453565b6127cb81612c89565b82525050565b60006127dc82612c85565b808452602084019350836020820285016127f585612c7f565b60005b8481101561282c57838303885261281083835161289c565b925061281b82612c7f565b6020989098019791506001016127f8565b50909695505050505050565b600061284382612c85565b8084526020840193508360208202850161285c85612c7f565b60005b8481101561282c578383038852612877838351612971565b925061288282612c7f565b60209890980197915060010161285f565b6127cb81612c95565b60006128a782612c85565b8084526128bb816020860160208601612cd8565b6128c481612d04565b9093016020019392505050565b603381527f4f6e6c7920636f6e7472616374206f776e657220697320616c6c6f776564207460208201527f6f2063616c6c2074686973206d6574686f642e00000000000000000000000000604082015260600190565b805160808301906129388482612a7d565b50602082015161294b6020850182612a7d565b50604082015161295e6040850182612a7d565b506060820151611c216060850182612a7d565b805160009061018084019061298685826127c2565b50602083015161299960208601826127c2565b5060408301516129ac60408601826127c2565b5060608301516129bf60608601826127c2565b5060808301516129d26080860182612a7d565b5060a08301516129e560a0860182612a7d565b5060c08301516129f860c0860182612a7d565b5060e0830151612a0b60e0860182612a7d565b50610100830151612a20610100860182612a7d565b50610120830151612a35610120860182612a7d565b50610140830151848203610140860152612a4f828261289c565b915050610160830151848203610160860152612a6b828261289c565b95945050505050565b6127cb81612cba565b6127cb81612066565b6127cb81612cc1565b6020810161047182846127c2565b60608101612aab82866127c2565b612ab860208301856127c2565b610d786040830184612a7d565b60808101612ad382876127c2565b612ae060208301866127c2565b612aed6040830185612a7d565b8181036060830152612aff818461289c565b9695505050505050565b60408101612b1782856127c2565b610ce26020830184612a7d565b60608082528101612b358186612838565b9050612b446020830185612a7d565b8181036040830152612a6b81846127d1565b602081016104718284612893565b60208082528101610ce2818461289c565b60208082528101610471816128d1565b608081016104718284612927565b60408082528101612ba48185612971565b9050610ce26020830184612a7d565b60608082528101612bc48186612971565b9050612bd36020830185612a7d565b8181036040830152612a6b818461289c565b602081016104718284612a74565b602081016104718284612a7d565b602081016104718284612a86565b60405181810167ffffffffffffffff81118282101715612c2e57600080fd5b604052919050565b600067ffffffffffffffff821115612c4d57600080fd5b5060209081020190565b600067ffffffffffffffff821115612c6e57600080fd5b506020601f91909101601f19160190565b60200190565b5190565b600160a060020a031690565b7fffffffff000000000000000000000000000000000000000000000000000000001690565b61ffff1690565b60ff1690565b151590565b82818337506000910152565b60005b83811015612cf3578181015183820152602001612cdb565b83811115611c215750506000910152565b601f01601f1916905600554e41434345505441424c455f5448524553484f4c4400000000000000000000a265627a7a72305820638a2f22bbc81361752235990105aad562a83b0fbbf2599c3f301b6344092af46c6578706572696d656e74616cf50037",
				"opcodes": "PUSH1 0x80 PUSH1 0x40 MSTORE CALLVALUE DUP1 ISZERO PUSH3 0x11 JUMPI PUSH1 0x0 DUP1 REVERT JUMPDEST POP PUSH1 0x40 MLOAD PUSH3 0x344E CODESIZE SUB DUP1 PUSH3 0x344E DUP4 CODECOPY DUP2 ADD DUP1 PUSH1 0x40 MSTORE PUSH3 0x37 SWAP2 SWAP1 DUP2 ADD SWAP1 PUSH3 0x4A8 JUMP JUMPDEST PUSH1 0x0 DUP1 SLOAD CALLER PUSH1 0x1 PUSH1 0xA0 PUSH1 0x2 EXP SUB NOT SWAP2 DUP3 AND OR SWAP1 SWAP2 SSTORE PUSH1 0x1 DUP1 SLOAD DUP3 AND PUSH1 0x1 PUSH1 0xA0 PUSH1 0x2 EXP SUB DUP10 DUP2 AND SWAP2 SWAP1 SWAP2 OR SWAP1 SWAP2 SSTORE PUSH1 0x2 DUP1 SLOAD DUP4 AND DUP9 DUP4 AND OR SWAP1 SSTORE PUSH1 0x3 DUP1 SLOAD SWAP1 SWAP3 AND SWAP1 DUP7 AND OR SWAP1 SSTORE DUP2 MLOAD PUSH3 0x92 SWAP1 PUSH1 0x4 SWAP1 PUSH1 0x20 DUP6 ADD SWAP1 PUSH3 0x31E JUMP JUMPDEST POP DUP1 MLOAD PUSH3 0xA8 SWAP1 PUSH1 0x5 SWAP1 PUSH1 0x20 DUP5 ADD SWAP1 PUSH3 0x31E JUMP JUMPDEST POP PUSH3 0xBD DUP4 PUSH5 0x100000000 PUSH3 0xC9 DUP2 MUL DIV JUMP JUMPDEST POP POP POP POP POP POP PUSH3 0x6D6 JUMP JUMPDEST PUSH1 0x0 DUP1 SLOAD PUSH1 0x1 PUSH1 0xA0 PUSH1 0x2 EXP SUB AND CALLER EQ PUSH3 0x11A JUMPI PUSH1 0x40 MLOAD PUSH32 0x8C379A000000000000000000000000000000000000000000000000000000000 DUP2 MSTORE PUSH1 0x4 ADD PUSH3 0x111 SWAP1 PUSH3 0x608 JUMP JUMPDEST PUSH1 0x40 MLOAD DUP1 SWAP2 SUB SWAP1 REVERT JUMPDEST PUSH1 0x1 SLOAD PUSH1 0x40 MLOAD PUSH32 0x92C1421E00000000000000000000000000000000000000000000000000000000 DUP2 MSTORE PUSH1 0x1 PUSH1 0xA0 PUSH1 0x2 EXP SUB SWAP1 SWAP2 AND SWAP1 PUSH4 0x92C1421E SWAP1 PUSH3 0x165 SWAP1 DUP6 SWAP1 PUSH1 0x4 ADD PUSH3 0x620 JUMP JUMPDEST PUSH1 0x20 PUSH1 0x40 MLOAD DUP1 DUP4 SUB DUP2 PUSH1 0x0 DUP8 DUP1 EXTCODESIZE ISZERO DUP1 ISZERO PUSH3 0x180 JUMPI PUSH1 0x0 DUP1 REVERT JUMPDEST POP GAS CALL ISZERO DUP1 ISZERO PUSH3 0x195 JUMPI RETURNDATASIZE PUSH1 0x0 DUP1 RETURNDATACOPY RETURNDATASIZE PUSH1 0x0 REVERT JUMPDEST POP POP POP POP PUSH1 0x40 MLOAD RETURNDATASIZE PUSH1 0x1F NOT PUSH1 0x1F DUP3 ADD AND DUP3 ADD DUP1 PUSH1 0x40 MSTORE POP PUSH3 0x1BB SWAP2 SWAP1 DUP2 ADD SWAP1 PUSH3 0x45E JUMP JUMPDEST SWAP1 POP PUSH1 0x1 PUSH1 0xA0 PUSH1 0x2 EXP SUB DUP2 AND ISZERO PUSH3 0x31A JUMPI PUSH1 0x2 SLOAD PUSH1 0x40 MLOAD PUSH32 0x95EA7B300000000000000000000000000000000000000000000000000000000 DUP2 MSTORE PUSH1 0x1 PUSH1 0xA0 PUSH1 0x2 EXP SUB SWAP1 SWAP2 AND SWAP1 PUSH4 0x95EA7B3 SWAP1 PUSH3 0x21C SWAP1 DUP5 SWAP1 PUSH1 0x0 NOT SWAP1 PUSH1 0x4 ADD PUSH3 0x5E9 JUMP JUMPDEST PUSH1 0x20 PUSH1 0x40 MLOAD DUP1 DUP4 SUB DUP2 PUSH1 0x0 DUP8 DUP1 EXTCODESIZE ISZERO DUP1 ISZERO PUSH3 0x237 JUMPI PUSH1 0x0 DUP1 REVERT JUMPDEST POP GAS CALL ISZERO DUP1 ISZERO PUSH3 0x24C JUMPI RETURNDATASIZE PUSH1 0x0 DUP1 RETURNDATACOPY RETURNDATASIZE PUSH1 0x0 REVERT JUMPDEST POP POP POP POP PUSH1 0x40 MLOAD RETURNDATASIZE PUSH1 0x1F NOT PUSH1 0x1F DUP3 ADD AND DUP3 ADD DUP1 PUSH1 0x40 MSTORE POP PUSH3 0x272 SWAP2 SWAP1 DUP2 ADD SWAP1 PUSH3 0x487 JUMP JUMPDEST POP PUSH1 0x3 SLOAD PUSH1 0x40 MLOAD PUSH32 0x95EA7B300000000000000000000000000000000000000000000000000000000 DUP2 MSTORE PUSH1 0x1 PUSH1 0xA0 PUSH1 0x2 EXP SUB SWAP1 SWAP2 AND SWAP1 PUSH4 0x95EA7B3 SWAP1 PUSH3 0x2C2 SWAP1 DUP5 SWAP1 PUSH1 0x0 NOT SWAP1 PUSH1 0x4 ADD PUSH3 0x5E9 JUMP JUMPDEST PUSH1 0x20 PUSH1 0x40 MLOAD DUP1 DUP4 SUB DUP2 PUSH1 0x0 DUP8 DUP1 EXTCODESIZE ISZERO DUP1 ISZERO PUSH3 0x2DD JUMPI PUSH1 0x0 DUP1 REVERT JUMPDEST POP GAS CALL ISZERO DUP1 ISZERO PUSH3 0x2F2 JUMPI RETURNDATASIZE PUSH1 0x0 DUP1 RETURNDATACOPY RETURNDATASIZE PUSH1 0x0 REVERT JUMPDEST POP POP POP POP PUSH1 0x40 MLOAD RETURNDATASIZE PUSH1 0x1F NOT PUSH1 0x1F DUP3 ADD AND DUP3 ADD DUP1 PUSH1 0x40 MSTORE POP PUSH3 0x318 SWAP2 SWAP1 DUP2 ADD SWAP1 PUSH3 0x487 JUMP JUMPDEST POP JUMPDEST POP POP JUMP JUMPDEST DUP3 DUP1 SLOAD PUSH1 0x1 DUP2 PUSH1 0x1 AND ISZERO PUSH2 0x100 MUL SUB AND PUSH1 0x2 SWAP1 DIV SWAP1 PUSH1 0x0 MSTORE PUSH1 0x20 PUSH1 0x0 KECCAK256 SWAP1 PUSH1 0x1F ADD PUSH1 0x20 SWAP1 DIV DUP2 ADD SWAP3 DUP3 PUSH1 0x1F LT PUSH3 0x361 JUMPI DUP1 MLOAD PUSH1 0xFF NOT AND DUP4 DUP1 ADD OR DUP6 SSTORE PUSH3 0x391 JUMP JUMPDEST DUP3 DUP1 ADD PUSH1 0x1 ADD DUP6 SSTORE DUP3 ISZERO PUSH3 0x391 JUMPI SWAP2 DUP3 ADD JUMPDEST DUP3 DUP2 GT ISZERO PUSH3 0x391 JUMPI DUP3 MLOAD DUP3 SSTORE SWAP2 PUSH1 0x20 ADD SWAP2 SWAP1 PUSH1 0x1 ADD SWAP1 PUSH3 0x374 JUMP JUMPDEST POP PUSH3 0x39F SWAP3 SWAP2 POP PUSH3 0x3A3 JUMP JUMPDEST POP SWAP1 JUMP JUMPDEST PUSH3 0x3C0 SWAP2 SWAP1 JUMPDEST DUP1 DUP3 GT ISZERO PUSH3 0x39F JUMPI PUSH1 0x0 DUP2 SSTORE PUSH1 0x1 ADD PUSH3 0x3AA JUMP JUMPDEST SWAP1 JUMP JUMPDEST PUSH1 0x0 PUSH3 0x3D1 DUP3 MLOAD PUSH3 0x67F JUMP JUMPDEST SWAP4 SWAP3 POP POP POP JUMP JUMPDEST PUSH1 0x0 PUSH3 0x3D1 DUP3 MLOAD PUSH3 0x691 JUMP JUMPDEST PUSH1 0x0 PUSH1 0x1F DUP3 ADD DUP4 SGT PUSH3 0x3F8 JUMPI PUSH1 0x0 DUP1 REVERT JUMPDEST DUP2 MLOAD PUSH3 0x40F PUSH3 0x409 DUP3 PUSH3 0x657 JUMP JUMPDEST PUSH3 0x630 JUMP JUMPDEST SWAP2 POP DUP1 DUP3 MSTORE PUSH1 0x20 DUP4 ADD PUSH1 0x20 DUP4 ADD DUP6 DUP4 DUP4 ADD GT ISZERO PUSH3 0x42C JUMPI PUSH1 0x0 DUP1 REVERT JUMPDEST PUSH3 0x439 DUP4 DUP3 DUP5 PUSH3 0x6A3 JUMP JUMPDEST POP POP POP SWAP3 SWAP2 POP POP JUMP JUMPDEST PUSH1 0x0 PUSH3 0x3D1 DUP3 MLOAD PUSH3 0x696 JUMP JUMPDEST PUSH1 0x0 PUSH3 0x3D1 DUP3 MLOAD PUSH3 0x68B JUMP JUMPDEST PUSH1 0x0 PUSH1 0x20 DUP3 DUP5 SUB SLT ISZERO PUSH3 0x471 JUMPI PUSH1 0x0 DUP1 REVERT JUMPDEST PUSH1 0x0 PUSH3 0x47F DUP5 DUP5 PUSH3 0x3C3 JUMP JUMPDEST SWAP5 SWAP4 POP POP POP POP JUMP JUMPDEST PUSH1 0x0 PUSH1 0x20 DUP3 DUP5 SUB SLT ISZERO PUSH3 0x49A JUMPI PUSH1 0x0 DUP1 REVERT JUMPDEST PUSH1 0x0 PUSH3 0x47F DUP5 DUP5 PUSH3 0x3D8 JUMP JUMPDEST PUSH1 0x0 DUP1 PUSH1 0x0 DUP1 PUSH1 0x0 DUP1 PUSH1 0xC0 DUP8 DUP10 SUB SLT ISZERO PUSH3 0x4C2 JUMPI PUSH1 0x0 DUP1 REVERT JUMPDEST PUSH1 0x0 PUSH3 0x4D0 DUP10 DUP10 PUSH3 0x442 JUMP JUMPDEST SWAP7 POP POP PUSH1 0x20 PUSH3 0x4E3 DUP10 DUP3 DUP11 ADD PUSH3 0x442 JUMP JUMPDEST SWAP6 POP POP PUSH1 0x40 PUSH3 0x4F6 DUP10 DUP3 DUP11 ADD PUSH3 0x442 JUMP JUMPDEST SWAP5 POP POP PUSH1 0x60 PUSH3 0x509 DUP10 DUP3 DUP11 ADD PUSH3 0x450 JUMP JUMPDEST SWAP4 POP POP PUSH1 0x80 DUP8 ADD MLOAD PUSH1 0x1 PUSH1 0x40 PUSH1 0x2 EXP SUB DUP2 GT ISZERO PUSH3 0x526 JUMPI PUSH1 0x0 DUP1 REVERT JUMPDEST PUSH3 0x534 DUP10 DUP3 DUP11 ADD PUSH3 0x3E6 JUMP JUMPDEST SWAP3 POP POP PUSH1 0xA0 DUP8 ADD MLOAD PUSH1 0x1 PUSH1 0x40 PUSH1 0x2 EXP SUB DUP2 GT ISZERO PUSH3 0x551 JUMPI PUSH1 0x0 DUP1 REVERT JUMPDEST PUSH3 0x55F DUP10 DUP3 DUP11 ADD PUSH3 0x3E6 JUMP JUMPDEST SWAP2 POP POP SWAP3 SWAP6 POP SWAP3 SWAP6 POP SWAP3 SWAP6 JUMP JUMPDEST PUSH3 0x577 DUP2 PUSH3 0x67F JUMP JUMPDEST DUP3 MSTORE POP POP JUMP JUMPDEST PUSH1 0x33 DUP2 MSTORE PUSH32 0x4F6E6C7920636F6E7472616374206F776E657220697320616C6C6F7765642074 PUSH1 0x20 DUP3 ADD MSTORE PUSH32 0x6F2063616C6C2074686973206D6574686F642E00000000000000000000000000 PUSH1 0x40 DUP3 ADD MSTORE PUSH1 0x60 ADD SWAP1 JUMP JUMPDEST PUSH3 0x577 DUP2 PUSH3 0x3C0 JUMP JUMPDEST PUSH3 0x577 DUP2 PUSH3 0x68B JUMP JUMPDEST PUSH1 0x40 DUP2 ADD PUSH3 0x5F9 DUP3 DUP6 PUSH3 0x56C JUMP JUMPDEST PUSH3 0x3D1 PUSH1 0x20 DUP4 ADD DUP5 PUSH3 0x5D3 JUMP JUMPDEST PUSH1 0x20 DUP1 DUP3 MSTORE DUP2 ADD PUSH3 0x61A DUP2 PUSH3 0x57D JUMP JUMPDEST SWAP3 SWAP2 POP POP JUMP JUMPDEST PUSH1 0x20 DUP2 ADD PUSH3 0x61A DUP3 DUP5 PUSH3 0x5DE JUMP JUMPDEST PUSH1 0x40 MLOAD DUP2 DUP2 ADD PUSH1 0x1 PUSH1 0x40 PUSH1 0x2 EXP SUB DUP2 GT DUP3 DUP3 LT OR ISZERO PUSH3 0x64F JUMPI PUSH1 0x0 DUP1 REVERT JUMPDEST PUSH1 0x40 MSTORE SWAP2 SWAP1 POP JUMP JUMPDEST PUSH1 0x0 PUSH1 0x1 PUSH1 0x40 PUSH1 0x2 EXP SUB DUP3 GT ISZERO PUSH3 0x66E JUMPI PUSH1 0x0 DUP1 REVERT JUMPDEST POP PUSH1 0x20 PUSH1 0x1F SWAP2 SWAP1 SWAP2 ADD PUSH1 0x1F NOT AND ADD SWAP1 JUMP JUMPDEST PUSH1 0x1 PUSH1 0xA0 PUSH1 0x2 EXP SUB AND SWAP1 JUMP JUMPDEST PUSH1 0xFF AND SWAP1 JUMP JUMPDEST ISZERO ISZERO SWAP1 JUMP JUMPDEST PUSH1 0x0 PUSH3 0x61A DUP3 PUSH3 0x67F JUMP JUMPDEST PUSH1 0x0 JUMPDEST DUP4 DUP2 LT ISZERO PUSH3 0x6C0 JUMPI DUP2 DUP2 ADD MLOAD DUP4 DUP3 ADD MSTORE PUSH1 0x20 ADD PUSH3 0x6A6 JUMP JUMPDEST DUP4 DUP2 GT ISZERO PUSH3 0x6D0 JUMPI PUSH1 0x0 DUP5 DUP5 ADD MSTORE JUMPDEST POP POP POP POP JUMP JUMPDEST PUSH2 0x2D68 DUP1 PUSH3 0x6E6 PUSH1 0x0 CODECOPY PUSH1 0x0 RETURN STOP PUSH1 0x80 PUSH1 0x40 MSTORE PUSH1 0x4 CALLDATASIZE LT PUSH2 0xB6 JUMPI PUSH4 0xFFFFFFFF PUSH1 0xE0 PUSH1 0x2 EXP PUSH1 0x0 CALLDATALOAD DIV AND PUSH4 0x1B67AD77 DUP2 EQ PUSH2 0x14D JUMPI DUP1 PUSH4 0x20472CF7 EQ PUSH2 0x183 JUMPI DUP1 PUSH4 0x4A23B67B EQ PUSH2 0x1A5 JUMPI DUP1 PUSH4 0x8A637F3D EQ PUSH2 0x1C5 JUMPI DUP1 PUSH4 0x8DA5CB5B EQ PUSH2 0x1D8 JUMPI DUP1 PUSH4 0x8EE1A642 EQ PUSH2 0x1FA JUMPI DUP1 PUSH4 0x8FBB3EA6 EQ PUSH2 0x21C JUMPI DUP1 PUSH4 0xA28FE02E EQ PUSH2 0x22F JUMPI DUP1 PUSH4 0xB3CD4254 EQ PUSH2 0x244 JUMPI DUP1 PUSH4 0xBC063E1A EQ PUSH2 0x259 JUMPI DUP1 PUSH4 0xD3DF5F2D EQ PUSH2 0x26E JUMPI DUP1 PUSH4 0xDE5F8E41 EQ PUSH2 0x28E JUMPI DUP1 PUSH4 0xF0B9E5BA EQ PUSH2 0x2B0 JUMPI DUP1 PUSH4 0xF2FDE38B EQ PUSH2 0x2DD JUMPI JUMPDEST PUSH1 0x2 SLOAD PUSH1 0x40 DUP1 MLOAD PUSH1 0x60 DUP2 ADD DUP3 MSTORE PUSH1 0x23 DUP2 MSTORE PUSH32 0x44454641554C545F46554E4354494F4E5F574554485F434F4E54524143545F4F PUSH1 0x20 DUP3 ADD MSTORE PUSH32 0x4E4C590000000000000000000000000000000000000000000000000000000000 SWAP2 DUP2 ADD SWAP2 SWAP1 SWAP2 MSTORE SWAP1 PUSH1 0x1 PUSH1 0xA0 PUSH1 0x2 EXP SUB AND CALLER EQ PUSH2 0x14A JUMPI PUSH1 0x40 MLOAD PUSH1 0xE5 PUSH1 0x2 EXP PUSH3 0x461BCD MUL DUP2 MSTORE PUSH1 0x4 ADD PUSH2 0x141 SWAP2 SWAP1 PUSH2 0x2B64 JUMP JUMPDEST PUSH1 0x40 MLOAD DUP1 SWAP2 SUB SWAP1 REVERT JUMPDEST POP STOP JUMPDEST CALLVALUE DUP1 ISZERO PUSH2 0x159 JUMPI PUSH1 0x0 DUP1 REVERT JUMPDEST POP PUSH2 0x16D PUSH2 0x168 CALLDATASIZE PUSH1 0x4 PUSH2 0x26E1 JUMP JUMPDEST PUSH2 0x2FD JUMP JUMPDEST PUSH1 0x40 MLOAD PUSH2 0x17A SWAP2 SWAP1 PUSH2 0x2B85 JUMP JUMPDEST PUSH1 0x40 MLOAD DUP1 SWAP2 SUB SWAP1 RETURN JUMPDEST CALLVALUE DUP1 ISZERO PUSH2 0x18F JUMPI PUSH1 0x0 DUP1 REVERT JUMPDEST POP PUSH2 0x198 PUSH2 0x3C3 JUMP JUMPDEST PUSH1 0x40 MLOAD PUSH2 0x17A SWAP2 SWAP1 PUSH2 0x2BE5 JUMP JUMPDEST CALLVALUE DUP1 ISZERO PUSH2 0x1B1 JUMPI PUSH1 0x0 DUP1 REVERT JUMPDEST POP PUSH2 0x16D PUSH2 0x1C0 CALLDATASIZE PUSH1 0x4 PUSH2 0x276E JUMP JUMPDEST PUSH2 0x3C9 JUMP JUMPDEST PUSH2 0x16D PUSH2 0x1D3 CALLDATASIZE PUSH1 0x4 PUSH2 0x2500 JUMP JUMPDEST PUSH2 0x477 JUMP JUMPDEST CALLVALUE DUP1 ISZERO PUSH2 0x1E4 JUMPI PUSH1 0x0 DUP1 REVERT JUMPDEST POP PUSH2 0x1ED PUSH2 0x66D JUMP JUMPDEST PUSH1 0x40 MLOAD PUSH2 0x17A SWAP2 SWAP1 PUSH2 0x2A8F JUMP JUMPDEST CALLVALUE DUP1 ISZERO PUSH2 0x206 JUMPI PUSH1 0x0 DUP1 REVERT JUMPDEST POP PUSH2 0x20F PUSH2 0x67C JUMP JUMPDEST PUSH1 0x40 MLOAD PUSH2 0x17A SWAP2 SWAP1 PUSH2 0x2C01 JUMP JUMPDEST PUSH2 0x16D PUSH2 0x22A CALLDATASIZE PUSH1 0x4 PUSH2 0x25E6 JUMP JUMPDEST PUSH2 0x681 JUMP JUMPDEST CALLVALUE DUP1 ISZERO PUSH2 0x23B JUMPI PUSH1 0x0 DUP1 REVERT JUMPDEST POP PUSH2 0x20F PUSH2 0x8FB JUMP JUMPDEST CALLVALUE DUP1 ISZERO PUSH2 0x250 JUMPI PUSH1 0x0 DUP1 REVERT JUMPDEST POP PUSH2 0x198 PUSH2 0x900 JUMP JUMPDEST CALLVALUE DUP1 ISZERO PUSH2 0x265 JUMPI PUSH1 0x0 DUP1 REVERT JUMPDEST POP PUSH2 0x198 PUSH2 0x906 JUMP JUMPDEST CALLVALUE DUP1 ISZERO PUSH2 0x27A JUMPI PUSH1 0x0 DUP1 REVERT JUMPDEST POP PUSH2 0x16D PUSH2 0x289 CALLDATASIZE PUSH1 0x4 PUSH2 0x26E1 JUMP JUMPDEST PUSH2 0x90C JUMP JUMPDEST CALLVALUE DUP1 ISZERO PUSH2 0x29A JUMPI PUSH1 0x0 DUP1 REVERT JUMPDEST POP PUSH2 0x2AE PUSH2 0x2A9 CALLDATASIZE PUSH1 0x4 PUSH2 0x27A4 JUMP JUMPDEST PUSH2 0xAA1 JUMP JUMPDEST STOP JUMPDEST CALLVALUE DUP1 ISZERO PUSH2 0x2BC JUMPI PUSH1 0x0 DUP1 REVERT JUMPDEST POP PUSH2 0x2D0 PUSH2 0x2CB CALLDATASIZE PUSH1 0x4 PUSH2 0x249B JUMP JUMPDEST PUSH2 0xCC0 JUMP JUMPDEST PUSH1 0x40 MLOAD PUSH2 0x17A SWAP2 SWAP1 PUSH2 0x2B56 JUMP JUMPDEST CALLVALUE DUP1 ISZERO PUSH2 0x2E9 JUMPI PUSH1 0x0 DUP1 REVERT JUMPDEST POP PUSH2 0x2AE PUSH2 0x2F8 CALLDATASIZE PUSH1 0x4 PUSH2 0x245F JUMP JUMPDEST PUSH2 0xCE9 JUMP JUMPDEST PUSH2 0x305 PUSH2 0x2125 JUMP JUMPDEST PUSH1 0x0 DUP1 PUSH1 0x0 PUSH2 0x312 PUSH2 0x2125 JUMP JUMPDEST PUSH1 0x0 SWAP4 POP JUMPDEST DUP7 MLOAD DUP5 LT ISZERO PUSH2 0x3B9 JUMPI PUSH2 0x32E DUP7 DUP7 PUSH1 0x0 ADD MLOAD PUSH2 0xD51 JUMP JUMPDEST SWAP3 POP PUSH2 0x371 DUP8 DUP6 DUP2 MLOAD DUP2 LT ISZERO ISZERO PUSH2 0x341 JUMPI INVALID JUMPDEST SWAP1 PUSH1 0x20 ADD SWAP1 PUSH1 0x20 MUL ADD MLOAD PUSH1 0xA0 ADD MLOAD DUP9 DUP7 DUP2 MLOAD DUP2 LT ISZERO ISZERO PUSH2 0x35D JUMPI INVALID JUMPDEST SWAP1 PUSH1 0x20 ADD SWAP1 PUSH1 0x20 MUL ADD MLOAD PUSH1 0x80 ADD MLOAD DUP6 PUSH2 0xD63 JUMP JUMPDEST SWAP2 POP PUSH2 0x394 DUP8 DUP6 DUP2 MLOAD DUP2 LT ISZERO ISZERO PUSH2 0x384 JUMPI INVALID JUMPDEST SWAP1 PUSH1 0x20 ADD SWAP1 PUSH1 0x20 MUL ADD MLOAD DUP4 PUSH2 0x3C9 JUMP JUMPDEST SWAP1 POP PUSH2 0x3A0 DUP6 DUP3 PUSH2 0xD80 JUMP JUMPDEST DUP5 MLOAD DUP7 EQ ISZERO PUSH2 0x3AE JUMPI PUSH2 0x3B9 JUMP JUMPDEST PUSH1 0x1 SWAP1 SWAP4 ADD SWAP3 PUSH2 0x317 JUMP JUMPDEST POP POP POP POP SWAP3 SWAP2 POP POP JUMP JUMPDEST PUSH2 0x251C DUP2 JUMP JUMPDEST PUSH2 0x3D1 PUSH2 0x2125 JUMP JUMPDEST PUSH1 0x1 SLOAD PUSH1 0x40 MLOAD PUSH32 0xAD1876B500000000000000000000000000000000000000000000000000000000 DUP2 MSTORE PUSH1 0x1 PUSH1 0xA0 PUSH1 0x2 EXP SUB SWAP1 SWAP2 AND SWAP1 PUSH4 0xAD1876B5 SWAP1 PUSH2 0x41C SWAP1 DUP7 SWAP1 DUP7 SWAP1 PUSH1 0x4 ADD PUSH2 0x2B93 JUMP JUMPDEST PUSH1 0x80 PUSH1 0x40 MLOAD DUP1 DUP4 SUB DUP2 PUSH1 0x0 DUP8 DUP1 EXTCODESIZE ISZERO DUP1 ISZERO PUSH2 0x436 JUMPI PUSH1 0x0 DUP1 REVERT JUMPDEST POP GAS CALL ISZERO DUP1 ISZERO PUSH2 0x44A JUMPI RETURNDATASIZE PUSH1 0x0 DUP1 RETURNDATACOPY RETURNDATASIZE PUSH1 0x0 REVERT JUMPDEST POP POP POP POP PUSH1 0x40 MLOAD RETURNDATASIZE PUSH1 0x1F NOT PUSH1 0x1F DUP3 ADD AND DUP3 ADD DUP1 PUSH1 0x40 MSTORE POP PUSH2 0x46E SWAP2 SWAP1 DUP2 ADD SWAP1 PUSH2 0x2750 JUMP JUMPDEST SWAP1 POP JUMPDEST SWAP3 SWAP2 POP POP JUMP JUMPDEST PUSH2 0x47F PUSH2 0x2125 JUMP JUMPDEST PUSH1 0x40 DUP1 MLOAD DUP1 DUP3 ADD SWAP1 SWAP2 MSTORE PUSH1 0x17 DUP2 MSTORE PUSH32 0x56414C55455F475245415445525F5448414E5F5A45524F000000000000000000 PUSH1 0x20 DUP3 ADD MSTORE PUSH1 0x0 SWAP1 DUP2 SWAP1 CALLVALUE DUP3 LT PUSH2 0x4DB JUMPI PUSH1 0x40 MLOAD PUSH1 0xE5 PUSH1 0x2 EXP PUSH3 0x461BCD MUL DUP2 MSTORE PUSH1 0x4 ADD PUSH2 0x141 SWAP2 SWAP1 PUSH2 0x2B64 JUMP JUMPDEST POP PUSH1 0x0 SWAP2 POP JUMPDEST DUP9 MLOAD DUP3 LT ISZERO PUSH2 0x5DA JUMPI DUP9 PUSH1 0x0 DUP2 MLOAD DUP2 LT ISZERO ISZERO PUSH2 0x4F9 JUMPI INVALID JUMPDEST SWAP1 PUSH1 0x20 ADD SWAP1 PUSH1 0x20 MUL ADD MLOAD PUSH2 0x140 ADD MLOAD DUP10 DUP4 DUP2 MLOAD DUP2 LT ISZERO ISZERO PUSH2 0x516 JUMPI INVALID JUMPDEST PUSH1 0x20 SWAP1 DUP2 MUL SWAP1 SWAP2 ADD DUP2 ADD MLOAD PUSH2 0x140 ADD SWAP2 SWAP1 SWAP2 MSTORE PUSH1 0x5 DUP1 SLOAD PUSH1 0x40 DUP1 MLOAD PUSH1 0x1F PUSH1 0x2 PUSH1 0x0 NOT PUSH2 0x100 PUSH1 0x1 DUP8 AND ISZERO MUL ADD SWAP1 SWAP5 AND SWAP4 SWAP1 SWAP4 DIV SWAP3 DUP4 ADD DUP6 SWAP1 DIV DUP6 MUL DUP2 ADD DUP6 ADD SWAP1 SWAP2 MSTORE DUP2 DUP2 MSTORE SWAP3 DUP4 ADD DUP3 DUP3 DUP1 ISZERO PUSH2 0x5AD JUMPI DUP1 PUSH1 0x1F LT PUSH2 0x582 JUMPI PUSH2 0x100 DUP1 DUP4 SLOAD DIV MUL DUP4 MSTORE SWAP2 PUSH1 0x20 ADD SWAP2 PUSH2 0x5AD JUMP JUMPDEST DUP3 ADD SWAP2 SWAP1 PUSH1 0x0 MSTORE PUSH1 0x20 PUSH1 0x0 KECCAK256 SWAP1 JUMPDEST DUP2 SLOAD DUP2 MSTORE SWAP1 PUSH1 0x1 ADD SWAP1 PUSH1 0x20 ADD DUP1 DUP4 GT PUSH2 0x590 JUMPI DUP3 SWAP1 SUB PUSH1 0x1F AND DUP3 ADD SWAP2 JUMPDEST POP POP POP POP POP DUP10 DUP4 DUP2 MLOAD DUP2 LT ISZERO ISZERO PUSH2 0x5C0 JUMPI INVALID JUMPDEST PUSH1 0x20 SWAP1 DUP2 MUL SWAP1 SWAP2 ADD ADD MLOAD PUSH2 0x160 ADD MSTORE PUSH1 0x1 SWAP1 SWAP2 ADD SWAP1 PUSH2 0x4E1 JUMP JUMPDEST PUSH2 0x5E5 CALLVALUE DUP7 DUP7 PUSH2 0xDE2 JUMP JUMPDEST SWAP1 POP PUSH1 0x2 PUSH1 0x0 SWAP1 SLOAD SWAP1 PUSH2 0x100 EXP SWAP1 DIV PUSH1 0x1 PUSH1 0xA0 PUSH1 0x2 EXP SUB AND PUSH1 0x1 PUSH1 0xA0 PUSH1 0x2 EXP SUB AND PUSH4 0xD0E30DB0 DUP3 PUSH1 0x40 MLOAD DUP3 PUSH4 0xFFFFFFFF AND PUSH1 0xE0 PUSH1 0x2 EXP MUL DUP2 MSTORE PUSH1 0x4 ADD PUSH1 0x0 PUSH1 0x40 MLOAD DUP1 DUP4 SUB DUP2 DUP6 DUP9 DUP1 EXTCODESIZE ISZERO DUP1 ISZERO PUSH2 0x63A JUMPI PUSH1 0x0 DUP1 REVERT JUMPDEST POP GAS CALL ISZERO DUP1 ISZERO PUSH2 0x64E JUMPI RETURNDATASIZE PUSH1 0x0 DUP1 RETURNDATACOPY RETURNDATASIZE PUSH1 0x0 REVERT JUMPDEST POP POP POP POP POP PUSH2 0x660 DUP10 DUP10 DUP10 DUP10 DUP6 PUSH2 0xECC JUMP JUMPDEST SWAP10 SWAP9 POP POP POP POP POP POP POP POP POP JUMP JUMPDEST PUSH1 0x0 SLOAD PUSH1 0x1 PUSH1 0xA0 PUSH1 0x2 EXP SUB AND DUP2 JUMP JUMPDEST PUSH1 0x1 DUP2 JUMP JUMPDEST PUSH2 0x689 PUSH2 0x2125 JUMP JUMPDEST PUSH1 0x40 DUP1 MLOAD DUP1 DUP3 ADD SWAP1 SWAP2 MSTORE PUSH1 0x17 DUP2 MSTORE PUSH32 0x56414C55455F475245415445525F5448414E5F5A45524F000000000000000000 PUSH1 0x20 DUP3 ADD MSTORE PUSH1 0x0 SWAP1 DUP2 SWAP1 CALLVALUE DUP3 LT PUSH2 0x6E5 JUMPI PUSH1 0x40 MLOAD PUSH1 0xE5 PUSH1 0x2 EXP PUSH3 0x461BCD MUL DUP2 MSTORE PUSH1 0x4 ADD PUSH2 0x141 SWAP2 SWAP1 PUSH2 0x2B64 JUMP JUMPDEST POP CALLVALUE SWAP2 POP DUP10 PUSH1 0x0 DUP2 MLOAD DUP2 LT ISZERO ISZERO PUSH2 0x6F8 JUMPI INVALID JUMPDEST SWAP1 PUSH1 0x20 ADD SWAP1 PUSH1 0x20 MUL ADD MLOAD PUSH2 0x140 ADD MLOAD PUSH1 0x1 DUP12 PUSH1 0x0 DUP2 MLOAD DUP2 LT ISZERO ISZERO PUSH2 0x718 JUMPI INVALID JUMPDEST SWAP1 PUSH1 0x20 ADD SWAP1 PUSH1 0x20 MUL ADD MLOAD PUSH2 0x140 ADD MLOAD MLOAD SUB DUP2 MLOAD DUP2 LT ISZERO ISZERO PUSH2 0x735 JUMPI INVALID JUMPDEST ADD PUSH1 0x20 ADD MLOAD PUSH32 0x100000000000000000000000000000000000000000000000000000000000000 SWAP1 DUP2 SWAP1 DIV DUP2 MUL DIV SWAP1 POP PUSH1 0xFF DUP2 AND PUSH1 0x1 EQ DUP1 PUSH2 0x779 JUMPI POP PUSH1 0xFF DUP2 AND PUSH1 0x2 EQ JUMPDEST PUSH1 0x40 DUP1 MLOAD DUP1 DUP3 ADD SWAP1 SWAP2 MSTORE PUSH1 0x17 DUP2 MSTORE PUSH32 0x554E535550504F525445445F544F4B454E5F50524F5859000000000000000000 PUSH1 0x20 DUP3 ADD MSTORE SWAP1 ISZERO ISZERO PUSH2 0x7D0 JUMPI PUSH1 0x40 MLOAD PUSH1 0xE5 PUSH1 0x2 EXP PUSH3 0x461BCD MUL DUP2 MSTORE PUSH1 0x4 ADD PUSH2 0x141 SWAP2 SWAP1 PUSH2 0x2B64 JUMP JUMPDEST POP PUSH1 0x2 PUSH1 0x0 SWAP1 SLOAD SWAP1 PUSH2 0x100 EXP SWAP1 DIV PUSH1 0x1 PUSH1 0xA0 PUSH1 0x2 EXP SUB AND PUSH1 0x1 PUSH1 0xA0 PUSH1 0x2 EXP SUB AND PUSH4 0xD0E30DB0 DUP4 PUSH1 0x40 MLOAD DUP3 PUSH4 0xFFFFFFFF AND PUSH1 0xE0 PUSH1 0x2 EXP MUL DUP2 MSTORE PUSH1 0x4 ADD PUSH1 0x0 PUSH1 0x40 MLOAD DUP1 DUP4 SUB DUP2 DUP6 DUP9 DUP1 EXTCODESIZE ISZERO DUP1 ISZERO PUSH2 0x824 JUMPI PUSH1 0x0 DUP1 REVERT JUMPDEST POP GAS CALL ISZERO DUP1 ISZERO PUSH2 0x838 JUMPI RETURNDATASIZE PUSH1 0x0 DUP1 RETURNDATACOPY RETURNDATASIZE PUSH1 0x0 REVERT JUMPDEST POP POP POP POP POP PUSH1 0xFF DUP2 AND PUSH1 0x1 EQ ISZERO PUSH2 0x85D JUMPI PUSH2 0x856 DUP11 DUP11 DUP11 DUP11 DUP11 PUSH2 0x1067 JUMP JUMPDEST SWAP3 POP PUSH2 0x879 JUMP JUMPDEST PUSH1 0xFF DUP2 AND PUSH1 0x2 EQ ISZERO PUSH2 0x879 JUMPI PUSH2 0x876 DUP11 DUP11 DUP11 DUP11 DUP11 PUSH2 0x134F JUMP JUMPDEST SWAP3 POP JUMPDEST PUSH2 0x887 DUP3 DUP5 PUSH1 0x20 ADD MLOAD PUSH2 0xD51 JUMP JUMPDEST SWAP2 POP PUSH2 0x897 DUP3 DUP5 PUSH1 0x20 ADD MLOAD PUSH2 0x1631 JUMP JUMPDEST PUSH1 0x40 DUP1 MLOAD DUP1 DUP3 ADD SWAP1 SWAP2 MSTORE PUSH1 0x16 DUP2 MSTORE PUSH1 0x0 DUP1 MLOAD PUSH1 0x20 PUSH2 0x2D0F DUP4 CODECOPY DUP2 MLOAD SWAP2 MSTORE PUSH1 0x20 DUP3 ADD MSTORE SWAP1 ISZERO ISZERO PUSH2 0x8DC JUMPI PUSH1 0x40 MLOAD PUSH1 0xE5 PUSH1 0x2 EXP PUSH3 0x461BCD MUL DUP2 MSTORE PUSH1 0x4 ADD PUSH2 0x141 SWAP2 SWAP1 PUSH2 0x2B64 JUMP JUMPDEST POP PUSH2 0x8ED DUP3 DUP5 PUSH1 0x20 ADD MLOAD DUP8 DUP8 PUSH2 0x164E JUMP JUMPDEST POP POP POP SWAP8 SWAP7 POP POP POP POP POP POP POP JUMP JUMPDEST PUSH1 0x2 DUP2 JUMP JUMPDEST PUSH2 0x2710 DUP2 JUMP JUMPDEST PUSH2 0x3E8 DUP2 JUMP JUMPDEST PUSH2 0x914 PUSH2 0x2125 JUMP JUMPDEST PUSH1 0x0 DUP1 PUSH1 0x0 DUP1 PUSH2 0x922 PUSH2 0x2125 JUMP JUMPDEST PUSH2 0x94A DUP9 PUSH1 0x0 DUP2 MLOAD DUP2 LT ISZERO ISZERO PUSH2 0x934 JUMPI INVALID JUMPDEST SWAP1 PUSH1 0x20 ADD SWAP1 PUSH1 0x20 MUL ADD MLOAD PUSH2 0x140 ADD MLOAD PUSH1 0x0 PUSH2 0x173B JUMP JUMPDEST PUSH1 0x3 SLOAD PUSH1 0x40 DUP1 MLOAD DUP1 DUP3 ADD SWAP1 SWAP2 MSTORE PUSH1 0x18 DUP2 MSTORE PUSH32 0x54414B45525F41535345545F5A52585F52455155495245440000000000000000 PUSH1 0x20 DUP3 ADD MSTORE SWAP2 SWAP7 POP PUSH1 0x1 PUSH1 0xA0 PUSH1 0x2 EXP SUB DUP1 DUP9 AND SWAP2 AND EQ PUSH2 0x9B2 JUMPI PUSH1 0x40 MLOAD PUSH1 0xE5 PUSH1 0x2 EXP PUSH3 0x461BCD MUL DUP2 MSTORE PUSH1 0x4 ADD PUSH2 0x141 SWAP2 SWAP1 PUSH2 0x2B64 JUMP JUMPDEST POP PUSH1 0x0 SWAP4 POP JUMPDEST DUP8 MLOAD DUP5 LT ISZERO PUSH2 0xA96 JUMPI PUSH2 0x9CF DUP8 DUP8 PUSH1 0x0 ADD MLOAD PUSH2 0xD51 JUMP JUMPDEST SWAP3 POP PUSH2 0xA36 DUP9 DUP6 DUP2 MLOAD DUP2 LT ISZERO ISZERO PUSH2 0x9E2 JUMPI INVALID JUMPDEST SWAP1 PUSH1 0x20 ADD SWAP1 PUSH1 0x20 MUL ADD MLOAD PUSH1 0xA0 ADD MLOAD PUSH2 0xA30 DUP11 DUP8 DUP2 MLOAD DUP2 LT ISZERO ISZERO PUSH2 0xA01 JUMPI INVALID JUMPDEST SWAP1 PUSH1 0x20 ADD SWAP1 PUSH1 0x20 MUL ADD MLOAD PUSH1 0x80 ADD MLOAD DUP12 DUP9 DUP2 MLOAD DUP2 LT ISZERO ISZERO PUSH2 0xA1D JUMPI INVALID JUMPDEST SWAP1 PUSH1 0x20 ADD SWAP1 PUSH1 0x20 MUL ADD MLOAD PUSH1 0xE0 ADD MLOAD PUSH2 0xD51 JUMP JUMPDEST DUP6 PUSH2 0xD63 JUMP JUMPDEST SWAP2 POP PUSH2 0xA5E DUP9 DUP6 DUP2 MLOAD DUP2 LT ISZERO ISZERO PUSH2 0xA49 JUMPI INVALID JUMPDEST SWAP1 PUSH1 0x20 ADD SWAP1 PUSH1 0x20 MUL ADD MLOAD PUSH2 0x1C0 DUP5 PUSH1 0x1 PUSH2 0x17D8 JUMP JUMPDEST SWAP1 POP PUSH2 0xA72 DUP2 PUSH1 0x0 ADD MLOAD DUP3 PUSH1 0x60 ADD MLOAD PUSH2 0xD51 JUMP JUMPDEST DUP2 MSTORE PUSH2 0xA7E DUP7 DUP3 PUSH2 0xD80 JUMP JUMPDEST DUP6 MLOAD DUP8 GT PUSH2 0xA8B JUMPI PUSH2 0xA96 JUMP JUMPDEST PUSH1 0x1 SWAP1 SWAP4 ADD SWAP3 PUSH2 0x9B8 JUMP JUMPDEST POP POP POP POP POP SWAP3 SWAP2 POP POP JUMP JUMPDEST PUSH1 0x0 DUP1 SLOAD PUSH1 0x1 PUSH1 0xA0 PUSH1 0x2 EXP SUB AND CALLER EQ PUSH2 0xACF JUMPI PUSH1 0x40 MLOAD PUSH1 0xE5 PUSH1 0x2 EXP PUSH3 0x461BCD MUL DUP2 MSTORE PUSH1 0x4 ADD PUSH2 0x141 SWAP1 PUSH2 0x2B75 JUMP JUMPDEST PUSH1 0x1 SLOAD PUSH1 0x40 MLOAD PUSH32 0x92C1421E00000000000000000000000000000000000000000000000000000000 DUP2 MSTORE PUSH1 0x1 PUSH1 0xA0 PUSH1 0x2 EXP SUB SWAP1 SWAP2 AND SWAP1 PUSH4 0x92C1421E SWAP1 PUSH2 0xB18 SWAP1 DUP6 SWAP1 PUSH1 0x4 ADD PUSH2 0x2C01 JUMP JUMPDEST PUSH1 0x20 PUSH1 0x40 MLOAD DUP1 DUP4 SUB DUP2 PUSH1 0x0 DUP8 DUP1 EXTCODESIZE ISZERO DUP1 ISZERO PUSH2 0xB32 JUMPI PUSH1 0x0 DUP1 REVERT JUMPDEST POP GAS CALL ISZERO DUP1 ISZERO PUSH2 0xB46 JUMPI RETURNDATASIZE PUSH1 0x0 DUP1 RETURNDATACOPY RETURNDATASIZE PUSH1 0x0 REVERT JUMPDEST POP POP POP POP PUSH1 0x40 MLOAD RETURNDATASIZE PUSH1 0x1F NOT PUSH1 0x1F DUP3 ADD AND DUP3 ADD DUP1 PUSH1 0x40 MSTORE POP PUSH2 0xB6A SWAP2 SWAP1 DUP2 ADD SWAP1 PUSH2 0x247D JUMP JUMPDEST SWAP1 POP PUSH1 0x1 PUSH1 0xA0 PUSH1 0x2 EXP SUB DUP2 AND ISZERO PUSH2 0xCBC JUMPI PUSH1 0x2 SLOAD PUSH1 0x40 MLOAD PUSH32 0x95EA7B300000000000000000000000000000000000000000000000000000000 DUP2 MSTORE PUSH1 0x1 PUSH1 0xA0 PUSH1 0x2 EXP SUB SWAP1 SWAP2 AND SWAP1 PUSH4 0x95EA7B3 SWAP1 PUSH2 0xBC8 SWAP1 DUP5 SWAP1 PUSH1 0x0 NOT SWAP1 PUSH1 0x4 ADD PUSH2 0x2B09 JUMP JUMPDEST PUSH1 0x20 PUSH1 0x40 MLOAD DUP1 DUP4 SUB DUP2 PUSH1 0x0 DUP8 DUP1 EXTCODESIZE ISZERO DUP1 ISZERO PUSH2 0xBE2 JUMPI PUSH1 0x0 DUP1 REVERT JUMPDEST POP GAS CALL ISZERO DUP1 ISZERO PUSH2 0xBF6 JUMPI RETURNDATASIZE PUSH1 0x0 DUP1 RETURNDATACOPY RETURNDATASIZE PUSH1 0x0 REVERT JUMPDEST POP POP POP POP PUSH1 0x40 MLOAD RETURNDATASIZE PUSH1 0x1F NOT PUSH1 0x1F DUP3 ADD AND DUP3 ADD DUP1 PUSH1 0x40 MSTORE POP PUSH2 0xC1A SWAP2 SWAP1 DUP2 ADD SWAP1 PUSH2 0x2732 JUMP JUMPDEST POP PUSH1 0x3 SLOAD PUSH1 0x40 MLOAD PUSH32 0x95EA7B300000000000000000000000000000000000000000000000000000000 DUP2 MSTORE PUSH1 0x1 PUSH1 0xA0 PUSH1 0x2 EXP SUB SWAP1 SWAP2 AND SWAP1 PUSH4 0x95EA7B3 SWAP1 PUSH2 0xC68 SWAP1 DUP5 SWAP1 PUSH1 0x0 NOT SWAP1 PUSH1 0x4 ADD PUSH2 0x2B09 JUMP JUMPDEST PUSH1 0x20 PUSH1 0x40 MLOAD DUP1 DUP4 SUB DUP2 PUSH1 0x0 DUP8 DUP1 EXTCODESIZE ISZERO DUP1 ISZERO PUSH2 0xC82 JUMPI PUSH1 0x0 DUP1 REVERT JUMPDEST POP GAS CALL ISZERO DUP1 ISZERO PUSH2 0xC96 JUMPI RETURNDATASIZE PUSH1 0x0 DUP1 RETURNDATACOPY RETURNDATASIZE PUSH1 0x0 REVERT JUMPDEST POP POP POP POP PUSH1 0x40 MLOAD RETURNDATASIZE PUSH1 0x1F NOT PUSH1 0x1F DUP3 ADD AND DUP3 ADD DUP1 PUSH1 0x40 MSTORE POP PUSH2 0xCBA SWAP2 SWAP1 DUP2 ADD SWAP1 PUSH2 0x2732 JUMP JUMPDEST POP JUMPDEST POP POP JUMP JUMPDEST PUSH32 0xF0B9E5BA00000000000000000000000000000000000000000000000000000000 JUMPDEST SWAP4 SWAP3 POP POP POP JUMP JUMPDEST PUSH1 0x0 SLOAD PUSH1 0x1 PUSH1 0xA0 PUSH1 0x2 EXP SUB AND CALLER EQ PUSH2 0xD16 JUMPI PUSH1 0x40 MLOAD PUSH1 0xE5 PUSH1 0x2 EXP PUSH3 0x461BCD MUL DUP2 MSTORE PUSH1 0x4 ADD PUSH2 0x141 SWAP1 PUSH2 0x2B75 JUMP JUMPDEST PUSH1 0x1 PUSH1 0xA0 PUSH1 0x2 EXP SUB DUP2 AND ISZERO PUSH2 0xD4E JUMPI PUSH1 0x0 DUP1 SLOAD PUSH20 0xFFFFFFFFFFFFFFFFFFFFFFFFFFFFFFFFFFFFFFFF NOT AND PUSH1 0x1 PUSH1 0xA0 PUSH1 0x2 EXP SUB DUP4 AND OR SWAP1 SSTORE JUMPDEST POP JUMP JUMPDEST PUSH1 0x0 DUP3 DUP3 GT ISZERO PUSH2 0xD5D JUMPI INVALID JUMPDEST POP SWAP1 SUB SWAP1 JUMP JUMPDEST PUSH1 0x0 PUSH2 0xD78 PUSH2 0xD72 DUP6 DUP5 PUSH2 0x17E7 JUMP JUMPDEST DUP5 PUSH2 0x180B JUMP JUMPDEST SWAP5 SWAP4 POP POP POP POP JUMP JUMPDEST DUP2 MLOAD DUP2 MLOAD PUSH2 0xD8E SWAP2 SWAP1 PUSH2 0x17D8 JUMP JUMPDEST DUP3 MSTORE PUSH1 0x20 DUP1 DUP4 ADD MLOAD SWAP1 DUP3 ADD MLOAD PUSH2 0xDA4 SWAP2 SWAP1 PUSH2 0x17D8 JUMP JUMPDEST PUSH1 0x20 DUP4 ADD MSTORE PUSH1 0x40 DUP1 DUP4 ADD MLOAD SWAP1 DUP3 ADD MLOAD PUSH2 0xDBD SWAP2 SWAP1 PUSH2 0x17D8 JUMP JUMPDEST PUSH1 0x40 DUP4 ADD MSTORE PUSH1 0x60 DUP1 DUP4 ADD MLOAD SWAP1 DUP3 ADD MLOAD PUSH2 0xDD6 SWAP2 SWAP1 PUSH2 0x17D8 JUMP JUMPDEST PUSH1 0x60 SWAP1 SWAP3 ADD SWAP2 SWAP1 SWAP2 MSTORE POP JUMP JUMPDEST DUP3 PUSH1 0x0 PUSH2 0xFFFF DUP5 AND DUP2 LT DUP1 ISZERO PUSH2 0xE00 JUMPI POP PUSH1 0x1 PUSH1 0xA0 PUSH1 0x2 EXP SUB DUP4 AND ISZERO ISZERO JUMPDEST ISZERO PUSH2 0xEC4 JUMPI PUSH1 0x40 DUP1 MLOAD DUP1 DUP3 ADD SWAP1 SWAP2 MSTORE PUSH1 0x18 DUP2 MSTORE PUSH32 0x4645455F50524F504F5254494F4E5F544F4F5F4C415247450000000000000000 PUSH1 0x20 DUP3 ADD MSTORE PUSH2 0x3E8 PUSH2 0xFFFF DUP7 AND GT ISZERO PUSH2 0xE63 JUMPI PUSH1 0x40 MLOAD PUSH1 0xE5 PUSH1 0x2 EXP PUSH3 0x461BCD MUL DUP2 MSTORE PUSH1 0x4 ADD PUSH2 0x141 SWAP2 SWAP1 PUSH2 0x2B64 JUMP JUMPDEST POP PUSH2 0xE7D PUSH2 0xE75 DUP4 DUP7 PUSH2 0xFFFF AND PUSH2 0x17E7 JUMP JUMPDEST PUSH2 0x2710 PUSH2 0x180B JUMP JUMPDEST SWAP1 POP PUSH2 0xE89 DUP3 DUP3 PUSH2 0xD51 JUMP JUMPDEST PUSH1 0x40 MLOAD SWAP1 SWAP3 POP PUSH1 0x1 PUSH1 0xA0 PUSH1 0x2 EXP SUB DUP5 AND SWAP1 DUP3 ISZERO PUSH2 0x8FC MUL SWAP1 DUP4 SWAP1 PUSH1 0x0 DUP2 DUP2 DUP2 DUP6 DUP9 DUP9 CALL SWAP4 POP POP POP POP ISZERO DUP1 ISZERO PUSH2 0xEC2 JUMPI RETURNDATASIZE PUSH1 0x0 DUP1 RETURNDATACOPY RETURNDATASIZE PUSH1 0x0 REVERT JUMPDEST POP JUMPDEST POP SWAP4 SWAP3 POP POP POP JUMP JUMPDEST PUSH2 0xED4 PUSH2 0x2125 JUMP JUMPDEST PUSH1 0x0 DUP1 PUSH2 0xEDF PUSH2 0x2125 JUMP JUMPDEST PUSH2 0xEE7 PUSH2 0x2125 JUMP JUMPDEST PUSH2 0xEEF PUSH2 0x2125 JUMP JUMPDEST DUP7 SWAP5 POP PUSH2 0xF04 DUP12 PUSH1 0x0 DUP2 MLOAD DUP2 LT ISZERO ISZERO PUSH2 0x934 JUMPI INVALID JUMPDEST SWAP4 POP PUSH2 0xF10 DUP12 DUP9 PUSH2 0x1822 JUMP JUMPDEST SWAP3 POP PUSH1 0x0 DUP4 PUSH1 0x60 ADD MLOAD GT ISZERO PUSH2 0xF4B JUMPI PUSH2 0xF2E DUP10 DUP10 DUP6 PUSH1 0x60 ADD MLOAD PUSH2 0x1895 JUMP JUMPDEST SWAP2 POP PUSH2 0xF3E DUP6 DUP4 PUSH1 0x20 ADD MLOAD PUSH2 0xD51 JUMP JUMPDEST PUSH1 0x60 DUP1 DUP5 ADD MLOAD SWAP1 DUP9 ADD MSTORE SWAP5 POP JUMPDEST PUSH1 0x1 SLOAD PUSH1 0x40 MLOAD PUSH32 0x7E1D980800000000000000000000000000000000000000000000000000000000 DUP2 MSTORE PUSH1 0x1 PUSH1 0xA0 PUSH1 0x2 EXP SUB SWAP1 SWAP2 AND SWAP1 PUSH4 0x7E1D9808 SWAP1 PUSH2 0xF98 SWAP1 DUP15 SWAP1 DUP10 SWAP1 DUP16 SWAP1 PUSH1 0x4 ADD PUSH2 0x2B24 JUMP JUMPDEST PUSH1 0x80 PUSH1 0x40 MLOAD DUP1 DUP4 SUB DUP2 PUSH1 0x0 DUP8 DUP1 EXTCODESIZE ISZERO DUP1 ISZERO PUSH2 0xFB2 JUMPI PUSH1 0x0 DUP1 REVERT JUMPDEST POP GAS CALL ISZERO DUP1 ISZERO PUSH2 0xFC6 JUMPI RETURNDATASIZE PUSH1 0x0 DUP1 RETURNDATACOPY RETURNDATASIZE PUSH1 0x0 REVERT JUMPDEST POP POP POP POP PUSH1 0x40 MLOAD RETURNDATASIZE PUSH1 0x1F NOT PUSH1 0x1F DUP3 ADD AND DUP3 ADD DUP1 PUSH1 0x40 MSTORE POP PUSH2 0xFEA SWAP2 SWAP1 DUP2 ADD SWAP1 PUSH2 0x2750 JUMP JUMPDEST SWAP1 POP PUSH2 0xFF6 DUP7 DUP3 PUSH2 0xD80 JUMP JUMPDEST PUSH2 0x1004 DUP8 DUP3 PUSH1 0x20 ADD MLOAD PUSH2 0x1631 JUMP JUMPDEST PUSH1 0x40 DUP1 MLOAD DUP1 DUP3 ADD SWAP1 SWAP2 MSTORE PUSH1 0x16 DUP2 MSTORE PUSH1 0x0 DUP1 MLOAD PUSH1 0x20 PUSH2 0x2D0F DUP4 CODECOPY DUP2 MLOAD SWAP2 MSTORE PUSH1 0x20 DUP3 ADD MSTORE SWAP1 ISZERO ISZERO PUSH2 0x1049 JUMPI PUSH1 0x40 MLOAD PUSH1 0xE5 PUSH1 0x2 EXP PUSH3 0x461BCD MUL DUP2 MSTORE PUSH1 0x4 ADD PUSH2 0x141 SWAP2 SWAP1 PUSH2 0x2B64 JUMP JUMPDEST POP PUSH2 0x1059 DUP5 CALLER DUP4 PUSH1 0x0 ADD MLOAD PUSH2 0x1B31 JUMP JUMPDEST POP POP POP POP POP SWAP6 SWAP5 POP POP POP POP POP JUMP JUMPDEST PUSH2 0x106F PUSH2 0x2125 JUMP JUMPDEST PUSH1 0x0 DUP1 PUSH2 0x107A PUSH2 0x2125 JUMP JUMPDEST PUSH2 0x1082 PUSH2 0x2125 JUMP JUMPDEST PUSH2 0x108A PUSH2 0x2125 JUMP JUMPDEST PUSH2 0x109C DUP12 PUSH1 0x0 DUP2 MLOAD DUP2 LT ISZERO ISZERO PUSH2 0x934 JUMPI INVALID JUMPDEST SWAP5 POP PUSH1 0x0 SWAP4 POP JUMPDEST DUP11 MLOAD DUP5 LT ISZERO PUSH2 0x119C JUMPI DUP11 PUSH1 0x0 DUP2 MLOAD DUP2 LT ISZERO ISZERO PUSH2 0x10BB JUMPI INVALID JUMPDEST SWAP1 PUSH1 0x20 ADD SWAP1 PUSH1 0x20 MUL ADD MLOAD PUSH2 0x140 ADD MLOAD DUP12 DUP6 DUP2 MLOAD DUP2 LT ISZERO ISZERO PUSH2 0x10D8 JUMPI INVALID JUMPDEST PUSH1 0x20 SWAP1 DUP2 MUL SWAP1 SWAP2 ADD DUP2 ADD MLOAD PUSH2 0x140 ADD SWAP2 SWAP1 SWAP2 MSTORE PUSH1 0x5 DUP1 SLOAD PUSH1 0x40 DUP1 MLOAD PUSH1 0x1F PUSH1 0x2 PUSH1 0x0 NOT PUSH2 0x100 PUSH1 0x1 DUP8 AND ISZERO MUL ADD SWAP1 SWAP5 AND SWAP4 SWAP1 SWAP4 DIV SWAP3 DUP4 ADD DUP6 SWAP1 DIV DUP6 MUL DUP2 ADD DUP6 ADD SWAP1 SWAP2 MSTORE DUP2 DUP2 MSTORE SWAP3 DUP4 ADD DUP3 DUP3 DUP1 ISZERO PUSH2 0x116F JUMPI DUP1 PUSH1 0x1F LT PUSH2 0x1144 JUMPI PUSH2 0x100 DUP1 DUP4 SLOAD DIV MUL DUP4 MSTORE SWAP2 PUSH1 0x20 ADD SWAP2 PUSH2 0x116F JUMP JUMPDEST DUP3 ADD SWAP2 SWAP1 PUSH1 0x0 MSTORE PUSH1 0x20 PUSH1 0x0 KECCAK256 SWAP1 JUMPDEST DUP2 SLOAD DUP2 MSTORE SWAP1 PUSH1 0x1 ADD SWAP1 PUSH1 0x20 ADD DUP1 DUP4 GT PUSH2 0x1152 JUMPI DUP3 SWAP1 SUB PUSH1 0x1F AND DUP3 ADD SWAP2 JUMPDEST POP POP POP POP POP DUP12 DUP6 DUP2 MLOAD DUP2 LT ISZERO ISZERO PUSH2 0x1182 JUMPI INVALID JUMPDEST PUSH1 0x20 SWAP1 DUP2 MUL SWAP1 SWAP2 ADD ADD MLOAD PUSH2 0x160 ADD MSTORE PUSH1 0x1 SWAP1 SWAP4 ADD SWAP3 PUSH2 0x10A3 JUMP JUMPDEST PUSH1 0x3 SLOAD PUSH1 0x1 PUSH1 0xA0 PUSH1 0x2 EXP SUB DUP7 DUP2 AND SWAP2 AND EQ ISZERO PUSH2 0x120D JUMPI PUSH2 0x11BD DUP12 DUP12 DUP10 PUSH2 0x1895 JUMP JUMPDEST DUP1 MLOAD PUSH1 0x40 DUP1 MLOAD DUP1 DUP3 ADD SWAP1 SWAP2 MSTORE PUSH1 0x16 DUP2 MSTORE PUSH1 0x0 DUP1 MLOAD PUSH1 0x20 PUSH2 0x2D0F DUP4 CODECOPY DUP2 MLOAD SWAP2 MSTORE PUSH1 0x20 DUP3 ADD MSTORE SWAP2 SWAP5 POP DUP9 GT ISZERO PUSH2 0x1207 JUMPI PUSH1 0x40 MLOAD PUSH1 0xE5 PUSH1 0x2 EXP PUSH3 0x461BCD MUL DUP2 MSTORE PUSH1 0x4 ADD PUSH2 0x141 SWAP2 SWAP1 PUSH2 0x2B64 JUMP JUMPDEST POP PUSH2 0x1336 JUMP JUMPDEST PUSH2 0x1217 DUP12 DUP9 PUSH2 0x2FD JUMP JUMPDEST SWAP2 POP PUSH1 0x0 DUP3 PUSH1 0x60 ADD MLOAD GT ISZERO PUSH2 0x124C JUMPI PUSH2 0x1235 DUP10 DUP10 DUP5 PUSH1 0x60 ADD MLOAD PUSH2 0x1895 JUMP JUMPDEST PUSH1 0x20 DUP1 DUP3 ADD MLOAD SWAP1 DUP9 ADD MSTORE PUSH1 0x60 DUP1 DUP3 ADD MLOAD SWAP1 DUP9 ADD MSTORE SWAP1 POP JUMPDEST PUSH1 0x1 SLOAD PUSH1 0x40 MLOAD PUSH32 0xE5FA431B00000000000000000000000000000000000000000000000000000000 DUP2 MSTORE PUSH1 0x1 PUSH1 0xA0 PUSH1 0x2 EXP SUB SWAP1 SWAP2 AND SWAP1 PUSH4 0xE5FA431B SWAP1 PUSH2 0x1299 SWAP1 DUP15 SWAP1 DUP12 SWAP1 DUP16 SWAP1 PUSH1 0x4 ADD PUSH2 0x2B24 JUMP JUMPDEST PUSH1 0x80 PUSH1 0x40 MLOAD DUP1 DUP4 SUB DUP2 PUSH1 0x0 DUP8 DUP1 EXTCODESIZE ISZERO DUP1 ISZERO PUSH2 0x12B3 JUMPI PUSH1 0x0 DUP1 REVERT JUMPDEST POP GAS CALL ISZERO DUP1 ISZERO PUSH2 0x12C7 JUMPI RETURNDATASIZE PUSH1 0x0 DUP1 RETURNDATACOPY RETURNDATASIZE PUSH1 0x0 REVERT JUMPDEST POP POP POP POP PUSH1 0x40 MLOAD RETURNDATASIZE PUSH1 0x1F NOT PUSH1 0x1F DUP3 ADD AND DUP3 ADD DUP1 PUSH1 0x40 MSTORE POP PUSH2 0x12EB SWAP2 SWAP1 DUP2 ADD SWAP1 PUSH2 0x2750 JUMP JUMPDEST DUP1 MLOAD PUSH1 0x40 DUP1 MLOAD DUP1 DUP3 ADD SWAP1 SWAP2 MSTORE PUSH1 0x16 DUP2 MSTORE PUSH1 0x0 DUP1 MLOAD PUSH1 0x20 PUSH2 0x2D0F DUP4 CODECOPY DUP2 MLOAD SWAP2 MSTORE PUSH1 0x20 DUP3 ADD MSTORE SWAP2 SWAP5 POP DUP9 EQ PUSH2 0x1334 JUMPI PUSH1 0x40 MLOAD PUSH1 0xE5 PUSH1 0x2 EXP PUSH3 0x461BCD MUL DUP2 MSTORE PUSH1 0x4 ADD PUSH2 0x141 SWAP2 SWAP1 PUSH2 0x2B64 JUMP JUMPDEST POP JUMPDEST PUSH2 0x1340 DUP7 DUP5 PUSH2 0xD80 JUMP JUMPDEST PUSH2 0x1059 DUP6 CALLER DUP6 PUSH1 0x0 ADD MLOAD PUSH2 0x1B31 JUMP JUMPDEST PUSH2 0x1357 PUSH2 0x2125 JUMP JUMPDEST PUSH1 0x0 DUP1 PUSH2 0x1362 PUSH2 0x2125 JUMP JUMPDEST PUSH2 0x136A PUSH2 0x2125 JUMP JUMPDEST DUP10 MLOAD PUSH1 0x40 DUP1 MLOAD PUSH1 0x60 DUP2 ADD DUP3 MSTORE PUSH1 0x22 DUP2 MSTORE PUSH32 0x41535345545F414D4F554E545F4D5553545F4D415443485F4F524445525F5349 PUSH1 0x20 DUP3 ADD MSTORE PUSH32 0x5A45000000000000000000000000000000000000000000000000000000000000 SWAP2 DUP2 ADD SWAP2 SWAP1 SWAP2 MSTORE SWAP1 DUP8 EQ PUSH2 0x13EB JUMPI PUSH1 0x40 MLOAD PUSH1 0xE5 PUSH1 0x2 EXP PUSH3 0x461BCD MUL DUP2 MSTORE PUSH1 0x4 ADD PUSH2 0x141 SWAP2 SWAP1 PUSH2 0x2B64 JUMP JUMPDEST POP PUSH1 0x0 SWAP3 POP JUMPDEST DUP10 MLOAD DUP4 LT ISZERO PUSH2 0x142C JUMPI PUSH2 0x141F DUP5 DUP12 DUP6 DUP2 MLOAD DUP2 LT ISZERO ISZERO PUSH2 0x140C JUMPI INVALID JUMPDEST SWAP1 PUSH1 0x20 ADD SWAP1 PUSH1 0x20 MUL ADD MLOAD PUSH1 0xE0 ADD MLOAD PUSH2 0x17D8 JUMP JUMPDEST SWAP4 POP PUSH1 0x1 SWAP1 SWAP3 ADD SWAP2 PUSH2 0x13F1 JUMP JUMPDEST PUSH1 0x0 DUP5 GT ISZERO PUSH2 0x1457 JUMPI PUSH2 0x1440 DUP9 DUP9 DUP7 PUSH2 0x1895 JUMP JUMPDEST PUSH1 0x60 DUP1 DUP3 ADD MLOAD SWAP1 DUP8 ADD MSTORE PUSH1 0x20 DUP1 DUP3 ADD MLOAD SWAP1 DUP8 ADD MSTORE SWAP2 POP JUMPDEST PUSH1 0x0 SWAP3 POP JUMPDEST DUP10 MLOAD DUP4 LT ISZERO PUSH2 0x1624 JUMPI PUSH1 0x5 DUP1 SLOAD PUSH1 0x40 DUP1 MLOAD PUSH1 0x20 PUSH1 0x2 PUSH1 0x1 DUP6 AND ISZERO PUSH2 0x100 MUL PUSH1 0x0 NOT ADD SWAP1 SWAP5 AND SWAP4 SWAP1 SWAP4 DIV PUSH1 0x1F DUP2 ADD DUP5 SWAP1 DIV DUP5 MUL DUP3 ADD DUP5 ADD SWAP1 SWAP3 MSTORE DUP2 DUP2 MSTORE SWAP3 SWAP2 DUP4 ADD DUP3 DUP3 DUP1 ISZERO PUSH2 0x14EB JUMPI DUP1 PUSH1 0x1F LT PUSH2 0x14C0 JUMPI PUSH2 0x100 DUP1 DUP4 SLOAD DIV MUL DUP4 MSTORE SWAP2 PUSH1 0x20 ADD SWAP2 PUSH2 0x14EB JUMP JUMPDEST DUP3 ADD SWAP2 SWAP1 PUSH1 0x0 MSTORE PUSH1 0x20 PUSH1 0x0 KECCAK256 SWAP1 JUMPDEST DUP2 SLOAD DUP2 MSTORE SWAP1 PUSH1 0x1 ADD SWAP1 PUSH1 0x20 ADD DUP1 DUP4 GT PUSH2 0x14CE JUMPI DUP3 SWAP1 SUB PUSH1 0x1F AND DUP3 ADD SWAP2 JUMPDEST POP POP POP POP POP DUP11 DUP5 DUP2 MLOAD DUP2 LT ISZERO ISZERO PUSH2 0x14FE JUMPI INVALID JUMPDEST PUSH1 0x20 SWAP1 DUP2 MUL SWAP1 SWAP2 ADD ADD MLOAD PUSH2 0x160 ADD MSTORE PUSH1 0x1 SLOAD DUP11 MLOAD PUSH1 0x1 PUSH1 0xA0 PUSH1 0x2 EXP SUB SWAP1 SWAP2 AND SWAP1 PUSH4 0x64A3BC15 SWAP1 DUP13 SWAP1 DUP7 SWAP1 DUP2 LT PUSH2 0x1530 JUMPI INVALID JUMPDEST SWAP1 PUSH1 0x20 ADD SWAP1 PUSH1 0x20 MUL ADD MLOAD DUP13 DUP7 DUP2 MLOAD DUP2 LT ISZERO ISZERO PUSH2 0x1548 JUMPI INVALID JUMPDEST SWAP1 PUSH1 0x20 ADD SWAP1 PUSH1 0x20 MUL ADD MLOAD PUSH1 0xA0 ADD MLOAD DUP13 DUP8 DUP2 MLOAD DUP2 LT ISZERO ISZERO PUSH2 0x1564 JUMPI INVALID JUMPDEST SWAP1 PUSH1 0x20 ADD SWAP1 PUSH1 0x20 MUL ADD MLOAD PUSH1 0x40 MLOAD DUP5 PUSH4 0xFFFFFFFF AND PUSH1 0xE0 PUSH1 0x2 EXP MUL DUP2 MSTORE PUSH1 0x4 ADD PUSH2 0x158F SWAP4 SWAP3 SWAP2 SWAP1 PUSH2 0x2BB3 JUMP JUMPDEST PUSH1 0x80 PUSH1 0x40 MLOAD DUP1 DUP4 SUB DUP2 PUSH1 0x0 DUP8 DUP1 EXTCODESIZE ISZERO DUP1 ISZERO PUSH2 0x15A9 JUMPI PUSH1 0x0 DUP1 REVERT JUMPDEST POP GAS CALL ISZERO DUP1 ISZERO PUSH2 0x15BD JUMPI RETURNDATASIZE PUSH1 0x0 DUP1 RETURNDATACOPY RETURNDATASIZE PUSH1 0x0 REVERT JUMPDEST POP POP POP POP PUSH1 0x40 MLOAD RETURNDATASIZE PUSH1 0x1F NOT PUSH1 0x1F DUP3 ADD AND DUP3 ADD DUP1 PUSH1 0x40 MSTORE POP PUSH2 0x15E1 SWAP2 SWAP1 DUP2 ADD SWAP1 PUSH2 0x2750 JUMP JUMPDEST SWAP1 POP PUSH2 0x15ED DUP6 DUP3 PUSH2 0xD80 JUMP JUMPDEST PUSH2 0x1619 DUP11 DUP5 DUP2 MLOAD DUP2 LT ISZERO ISZERO PUSH2 0x15FE JUMPI INVALID JUMPDEST SWAP1 PUSH1 0x20 ADD SWAP1 PUSH1 0x20 MUL ADD MLOAD PUSH2 0x140 ADD MLOAD ADDRESS CALLER DUP5 PUSH1 0x0 ADD MLOAD PUSH2 0x1C27 JUMP JUMPDEST PUSH1 0x1 SWAP1 SWAP3 ADD SWAP2 PUSH2 0x145C JUMP JUMPDEST POP POP POP POP SWAP6 SWAP5 POP POP POP POP POP JUMP JUMPDEST PUSH1 0x0 DUP1 PUSH2 0x1643 PUSH2 0xE75 DUP6 PUSH2 0x251C PUSH2 0x17E7 JUMP JUMPDEST SWAP1 SWAP3 LT ISZERO SWAP4 SWAP3 POP POP POP JUMP JUMPDEST PUSH1 0x0 DUP1 PUSH1 0x0 DUP7 GT ISZERO PUSH2 0x1732 JUMPI PUSH1 0x2 SLOAD PUSH1 0x40 MLOAD PUSH32 0x2E1A7D4D00000000000000000000000000000000000000000000000000000000 DUP2 MSTORE PUSH1 0x1 PUSH1 0xA0 PUSH1 0x2 EXP SUB SWAP1 SWAP2 AND SWAP1 PUSH4 0x2E1A7D4D SWAP1 PUSH2 0x16A3 SWAP1 DUP10 SWAP1 PUSH1 0x4 ADD PUSH2 0x2BF3 JUMP JUMPDEST PUSH1 0x0 PUSH1 0x40 MLOAD DUP1 DUP4 SUB DUP2 PUSH1 0x0 DUP8 DUP1 EXTCODESIZE ISZERO DUP1 ISZERO PUSH2 0x16BD JUMPI PUSH1 0x0 DUP1 REVERT JUMPDEST POP GAS CALL ISZERO DUP1 ISZERO PUSH2 0x16D1 JUMPI RETURNDATASIZE PUSH1 0x0 DUP1 RETURNDATACOPY RETURNDATASIZE PUSH1 0x0 REVERT JUMPDEST POP POP POP POP DUP6 SWAP2 POP PUSH2 0x16EC DUP6 PUSH2 0x16E7 DUP8 DUP8 DUP8 PUSH2 0xDE2 JUMP JUMPDEST PUSH2 0xD51 JUMP JUMPDEST SWAP1 POP PUSH2 0x16F8 DUP3 DUP3 PUSH2 0xD51 JUMP JUMPDEST SWAP2 POP PUSH1 0x0 DUP3 GT ISZERO PUSH2 0x1732 JUMPI PUSH1 0x40 MLOAD CALLER SWAP1 DUP4 ISZERO PUSH2 0x8FC MUL SWAP1 DUP5 SWAP1 PUSH1 0x0 DUP2 DUP2 DUP2 DUP6 DUP9 DUP9 CALL SWAP4 POP POP POP POP ISZERO DUP1 ISZERO PUSH2 0x1730 JUMPI RETURNDATASIZE PUSH1 0x0 DUP1 RETURNDATACOPY RETURNDATASIZE PUSH1 0x0 REVERT JUMPDEST POP JUMPDEST POP SWAP5 SWAP4 POP POP POP POP JUMP JUMPDEST PUSH1 0x0 DUP2 PUSH1 0x14 ADD DUP4 MLOAD LT ISZERO PUSH1 0x60 PUSH1 0x40 MLOAD SWAP1 DUP2 ADD PUSH1 0x40 MSTORE DUP1 PUSH1 0x26 DUP2 MSTORE PUSH1 0x20 ADD PUSH32 0x475245415445525F4F525F455155414C5F544F5F32305F4C454E4754485F5245 DUP2 MSTORE PUSH1 0x20 ADD PUSH32 0x5155495245440000000000000000000000000000000000000000000000000000 DUP2 MSTORE POP SWAP1 ISZERO ISZERO PUSH2 0x17C5 JUMPI PUSH1 0x40 MLOAD PUSH1 0xE5 PUSH1 0x2 EXP PUSH3 0x461BCD MUL DUP2 MSTORE PUSH1 0x4 ADD PUSH2 0x141 SWAP2 SWAP1 PUSH2 0x2B64 JUMP JUMPDEST POP POP ADD PUSH1 0x14 ADD MLOAD PUSH1 0x1 PUSH1 0xA0 PUSH1 0x2 EXP SUB AND SWAP1 JUMP JUMPDEST PUSH1 0x0 DUP3 DUP3 ADD DUP4 DUP2 LT ISZERO PUSH2 0xCE2 JUMPI INVALID JUMPDEST PUSH1 0x0 DUP3 DUP3 MUL DUP4 ISZERO DUP1 PUSH2 0x1803 JUMPI POP DUP3 DUP5 DUP3 DUP2 ISZERO ISZERO PUSH2 0x1800 JUMPI INVALID JUMPDEST DIV EQ JUMPDEST ISZERO ISZERO PUSH2 0xCE2 JUMPI INVALID JUMPDEST PUSH1 0x0 DUP1 DUP3 DUP5 DUP2 ISZERO ISZERO PUSH2 0x1819 JUMPI INVALID JUMPDEST DIV SWAP5 SWAP4 POP POP POP POP JUMP JUMPDEST PUSH2 0x182A PUSH2 0x2125 JUMP JUMPDEST PUSH1 0x0 DUP1 PUSH2 0x1835 PUSH2 0x2125 JUMP JUMPDEST PUSH1 0x0 SWAP3 POP JUMPDEST DUP6 MLOAD DUP4 LT ISZERO PUSH2 0x188C JUMPI PUSH2 0x1851 DUP6 DUP6 PUSH1 0x20 ADD MLOAD PUSH2 0xD51 JUMP JUMPDEST SWAP2 POP PUSH2 0x1864 DUP7 DUP5 DUP2 MLOAD DUP2 LT ISZERO ISZERO PUSH2 0x384 JUMPI INVALID JUMPDEST SWAP1 POP PUSH2 0x1870 DUP5 DUP3 PUSH2 0xD80 JUMP JUMPDEST DUP5 DUP5 PUSH1 0x20 ADD MLOAD EQ ISZERO PUSH2 0x1881 JUMPI PUSH2 0x188C JUMP JUMPDEST PUSH1 0x1 SWAP1 SWAP3 ADD SWAP2 PUSH2 0x183A JUMP JUMPDEST POP POP POP SWAP3 SWAP2 POP POP JUMP JUMPDEST PUSH2 0x189D PUSH2 0x2125 JUMP JUMPDEST PUSH1 0x0 DUP1 PUSH1 0x0 PUSH2 0x18AA PUSH2 0x2125 JUMP JUMPDEST PUSH1 0x0 SWAP4 POP JUMPDEST DUP8 MLOAD DUP5 LT ISZERO PUSH2 0x1B26 JUMPI PUSH1 0x4 DUP1 SLOAD PUSH1 0x40 DUP1 MLOAD PUSH1 0x20 PUSH1 0x2 PUSH1 0x1 DUP6 AND ISZERO PUSH2 0x100 MUL PUSH1 0x0 NOT ADD SWAP1 SWAP5 AND SWAP4 SWAP1 SWAP4 DIV PUSH1 0x1F DUP2 ADD DUP5 SWAP1 DIV DUP5 MUL DUP3 ADD DUP5 ADD SWAP1 SWAP3 MSTORE DUP2 DUP2 MSTORE SWAP3 SWAP2 DUP4 ADD DUP3 DUP3 DUP1 ISZERO PUSH2 0x193E JUMPI DUP1 PUSH1 0x1F LT PUSH2 0x1913 JUMPI PUSH2 0x100 DUP1 DUP4 SLOAD DIV MUL DUP4 MSTORE SWAP2 PUSH1 0x20 ADD SWAP2 PUSH2 0x193E JUMP JUMPDEST DUP3 ADD SWAP2 SWAP1 PUSH1 0x0 MSTORE PUSH1 0x20 PUSH1 0x0 KECCAK256 SWAP1 JUMPDEST DUP2 SLOAD DUP2 MSTORE SWAP1 PUSH1 0x1 ADD SWAP1 PUSH1 0x20 ADD DUP1 DUP4 GT PUSH2 0x1921 JUMPI DUP3 SWAP1 SUB PUSH1 0x1F AND DUP3 ADD SWAP2 JUMPDEST POP POP POP POP POP DUP9 DUP6 DUP2 MLOAD DUP2 LT ISZERO ISZERO PUSH2 0x1951 JUMPI INVALID JUMPDEST PUSH1 0x20 SWAP1 DUP2 MUL SWAP1 SWAP2 ADD DUP2 ADD MLOAD PUSH2 0x140 ADD SWAP2 SWAP1 SWAP2 MSTORE PUSH1 0x5 DUP1 SLOAD PUSH1 0x40 DUP1 MLOAD PUSH1 0x1F PUSH1 0x2 PUSH1 0x0 NOT PUSH2 0x100 PUSH1 0x1 DUP8 AND ISZERO MUL ADD SWAP1 SWAP5 AND SWAP4 SWAP1 SWAP4 DIV SWAP3 DUP4 ADD DUP6 SWAP1 DIV DUP6 MUL DUP2 ADD DUP6 ADD SWAP1 SWAP2 MSTORE DUP2 DUP2 MSTORE SWAP3 DUP4 ADD DUP3 DUP3 DUP1 ISZERO PUSH2 0x19E8 JUMPI DUP1 PUSH1 0x1F LT PUSH2 0x19BD JUMPI PUSH2 0x100 DUP1 DUP4 SLOAD DIV MUL DUP4 MSTORE SWAP2 PUSH1 0x20 ADD SWAP2 PUSH2 0x19E8 JUMP JUMPDEST DUP3 ADD SWAP2 SWAP1 PUSH1 0x0 MSTORE PUSH1 0x20 PUSH1 0x0 KECCAK256 SWAP1 JUMPDEST DUP2 SLOAD DUP2 MSTORE SWAP1 PUSH1 0x1 ADD SWAP1 PUSH1 0x20 ADD DUP1 DUP4 GT PUSH2 0x19CB JUMPI DUP3 SWAP1 SUB PUSH1 0x1F AND DUP3 ADD SWAP2 JUMPDEST POP POP POP POP POP DUP9 DUP6 DUP2 MLOAD DUP2 LT ISZERO ISZERO PUSH2 0x19FB JUMPI INVALID JUMPDEST PUSH1 0x20 SWAP1 DUP2 MUL SWAP1 SWAP2 ADD ADD MLOAD PUSH2 0x160 ADD MSTORE DUP5 MLOAD PUSH2 0x1A17 SWAP1 DUP8 SWAP1 PUSH2 0xD51 JUMP JUMPDEST SWAP3 POP PUSH2 0x1A2A DUP9 DUP6 DUP2 MLOAD DUP2 LT ISZERO ISZERO PUSH2 0x9E2 JUMPI INVALID JUMPDEST PUSH1 0x1 SLOAD DUP10 MLOAD SWAP2 SWAP4 POP PUSH1 0x1 PUSH1 0xA0 PUSH1 0x2 EXP SUB AND SWAP1 PUSH4 0xB4BE83D5 SWAP1 DUP11 SWAP1 DUP8 SWAP1 DUP2 LT PUSH2 0x1A4E JUMPI INVALID JUMPDEST SWAP1 PUSH1 0x20 ADD SWAP1 PUSH1 0x20 MUL ADD MLOAD PUSH2 0x1A63 DUP6 PUSH1 0x1 PUSH2 0x17D8 JUMP JUMPDEST DUP11 DUP9 DUP2 MLOAD DUP2 LT ISZERO ISZERO PUSH2 0x1A71 JUMPI INVALID JUMPDEST SWAP1 PUSH1 0x20 ADD SWAP1 PUSH1 0x20 MUL ADD MLOAD PUSH1 0x40 MLOAD DUP5 PUSH4 0xFFFFFFFF AND PUSH1 0xE0 PUSH1 0x2 EXP MUL DUP2 MSTORE PUSH1 0x4 ADD PUSH2 0x1A9C SWAP4 SWAP3 SWAP2 SWAP1 PUSH2 0x2BB3 JUMP JUMPDEST PUSH1 0x80 PUSH1 0x40 MLOAD DUP1 DUP4 SUB DUP2 PUSH1 0x0 DUP8 DUP1 EXTCODESIZE ISZERO DUP1 ISZERO PUSH2 0x1AB6 JUMPI PUSH1 0x0 DUP1 REVERT JUMPDEST POP GAS CALL ISZERO DUP1 ISZERO PUSH2 0x1ACA JUMPI RETURNDATASIZE PUSH1 0x0 DUP1 RETURNDATACOPY RETURNDATASIZE PUSH1 0x0 REVERT JUMPDEST POP POP POP POP PUSH1 0x40 MLOAD RETURNDATASIZE PUSH1 0x1F NOT PUSH1 0x1F DUP3 ADD AND DUP3 ADD DUP1 PUSH1 0x40 MSTORE POP PUSH2 0x1AEE SWAP2 SWAP1 DUP2 ADD SWAP1 PUSH2 0x2750 JUMP JUMPDEST SWAP1 POP PUSH2 0x1B02 DUP2 PUSH1 0x0 ADD MLOAD DUP3 PUSH1 0x60 ADD MLOAD PUSH2 0xD51 JUMP JUMPDEST DUP2 MSTORE PUSH2 0x1B0E DUP6 DUP3 PUSH2 0xD80 JUMP JUMPDEST DUP5 MLOAD DUP7 GT PUSH2 0x1B1B JUMPI PUSH2 0x1B26 JUMP JUMPDEST PUSH1 0x1 SWAP1 SWAP4 ADD SWAP3 PUSH2 0x18AF JUMP JUMPDEST POP POP POP POP SWAP4 SWAP3 POP POP POP JUMP JUMPDEST PUSH1 0x40 MLOAD PUSH32 0xA9059CBB00000000000000000000000000000000000000000000000000000000 DUP2 MSTORE PUSH1 0x1 PUSH1 0xA0 PUSH1 0x2 EXP SUB DUP5 AND SWAP1 PUSH4 0xA9059CBB SWAP1 PUSH2 0x1B78 SWAP1 DUP6 SWAP1 DUP6 SWAP1 PUSH1 0x4 ADD PUSH2 0x2B09 JUMP JUMPDEST PUSH1 0x20 PUSH1 0x40 MLOAD DUP1 DUP4 SUB DUP2 PUSH1 0x0 DUP8 DUP1 EXTCODESIZE ISZERO DUP1 ISZERO PUSH2 0x1B92 JUMPI PUSH1 0x0 DUP1 REVERT JUMPDEST POP GAS CALL ISZERO DUP1 ISZERO PUSH2 0x1BA6 JUMPI RETURNDATASIZE PUSH1 0x0 DUP1 RETURNDATACOPY RETURNDATASIZE PUSH1 0x0 REVERT JUMPDEST POP POP POP POP PUSH1 0x40 MLOAD RETURNDATASIZE PUSH1 0x1F NOT PUSH1 0x1F DUP3 ADD AND DUP3 ADD DUP1 PUSH1 0x40 MSTORE POP PUSH2 0x1BCA SWAP2 SWAP1 DUP2 ADD SWAP1 PUSH2 0x2732 JUMP JUMPDEST PUSH1 0x40 DUP1 MLOAD DUP1 DUP3 ADD SWAP1 SWAP2 MSTORE PUSH1 0xF DUP2 MSTORE PUSH32 0x5452414E534645525F4641494C45440000000000000000000000000000000000 PUSH1 0x20 DUP3 ADD MSTORE SWAP1 ISZERO ISZERO PUSH2 0x1C21 JUMPI PUSH1 0x40 MLOAD PUSH1 0xE5 PUSH1 0x2 EXP PUSH3 0x461BCD MUL DUP2 MSTORE PUSH1 0x4 ADD PUSH2 0x141 SWAP2 SWAP1 PUSH2 0x2B64 JUMP JUMPDEST POP POP POP POP JUMP JUMPDEST PUSH2 0x1C30 DUP5 PUSH2 0x1C3D JUMP JUMPDEST POP PUSH2 0x1C21 DUP5 DUP5 DUP5 DUP5 PUSH2 0x1D0E JUMP JUMPDEST PUSH1 0x0 DUP1 DUP3 MLOAD GT PUSH1 0x60 PUSH1 0x40 MLOAD SWAP1 DUP2 ADD PUSH1 0x40 MSTORE DUP1 PUSH1 0x21 DUP2 MSTORE PUSH1 0x20 ADD PUSH32 0x475245415445525F5448414E5F5A45524F5F4C454E4754485F52455155495245 DUP2 MSTORE PUSH1 0x20 ADD PUSH32 0x4400000000000000000000000000000000000000000000000000000000000000 DUP2 MSTORE POP SWAP1 ISZERO ISZERO PUSH2 0x1CC3 JUMPI PUSH1 0x40 MLOAD PUSH1 0xE5 PUSH1 0x2 EXP PUSH3 0x461BCD MUL DUP2 MSTORE PUSH1 0x4 ADD PUSH2 0x141 SWAP2 SWAP1 PUSH2 0x2B64 JUMP JUMPDEST POP DUP2 MLOAD DUP3 SWAP1 PUSH1 0x0 NOT DUP2 ADD SWAP1 DUP2 LT PUSH2 0x1CD6 JUMPI INVALID JUMPDEST ADD PUSH1 0x20 ADD MLOAD DUP3 MLOAD PUSH1 0x0 NOT ADD SWAP1 SWAP3 MSTORE POP PUSH32 0x100000000000000000000000000000000000000000000000000000000000000 SWAP1 DUP2 SWAP1 DIV MUL SWAP1 JUMP JUMPDEST PUSH1 0x40 DUP1 MLOAD DUP1 DUP3 ADD SWAP1 SWAP2 MSTORE PUSH1 0xE DUP2 MSTORE PUSH32 0x494E56414C49445F414D4F554E54000000000000000000000000000000000000 PUSH1 0x20 DUP3 ADD MSTORE PUSH1 0x0 SWAP1 DUP2 SWAP1 PUSH1 0x60 SWAP1 PUSH1 0x1 DUP6 EQ PUSH2 0x1D6E JUMPI PUSH1 0x40 MLOAD PUSH1 0xE5 PUSH1 0x2 EXP PUSH3 0x461BCD MUL DUP2 MSTORE PUSH1 0x4 ADD PUSH2 0x141 SWAP2 SWAP1 PUSH2 0x2B64 JUMP JUMPDEST POP PUSH2 0x1D78 DUP8 PUSH2 0x1E8F JUMP JUMPDEST SWAP3 POP SWAP3 POP SWAP3 POP PUSH1 0x0 DUP2 MLOAD GT ISZERO PUSH2 0x1E0A JUMPI PUSH1 0x40 MLOAD PUSH32 0xB88D4FDE00000000000000000000000000000000000000000000000000000000 DUP2 MSTORE PUSH1 0x1 PUSH1 0xA0 PUSH1 0x2 EXP SUB DUP5 AND SWAP1 PUSH4 0xB88D4FDE SWAP1 PUSH2 0x1DD3 SWAP1 DUP10 SWAP1 DUP10 SWAP1 DUP8 SWAP1 DUP8 SWAP1 PUSH1 0x4 ADD PUSH2 0x2AC5 JUMP JUMPDEST PUSH1 0x0 PUSH1 0x40 MLOAD DUP1 DUP4 SUB DUP2 PUSH1 0x0 DUP8 DUP1 EXTCODESIZE ISZERO DUP1 ISZERO PUSH2 0x1DED JUMPI PUSH1 0x0 DUP1 REVERT JUMPDEST POP GAS CALL ISZERO DUP1 ISZERO PUSH2 0x1E01 JUMPI RETURNDATASIZE PUSH1 0x0 DUP1 RETURNDATACOPY RETURNDATASIZE PUSH1 0x0 REVERT JUMPDEST POP POP POP POP PUSH2 0x1E86 JUMP JUMPDEST PUSH1 0x40 MLOAD PUSH32 0x23B872DD00000000000000000000000000000000000000000000000000000000 DUP2 MSTORE PUSH1 0x1 PUSH1 0xA0 PUSH1 0x2 EXP SUB DUP5 AND SWAP1 PUSH4 0x23B872DD SWAP1 PUSH2 0x1E53 SWAP1 DUP10 SWAP1 DUP10 SWAP1 DUP8 SWAP1 PUSH1 0x4 ADD PUSH2 0x2A9D JUMP JUMPDEST PUSH1 0x0 PUSH1 0x40 MLOAD DUP1 DUP4 SUB DUP2 PUSH1 0x0 DUP8 DUP1 EXTCODESIZE ISZERO DUP1 ISZERO PUSH2 0x1E6D JUMPI PUSH1 0x0 DUP1 REVERT JUMPDEST POP GAS CALL ISZERO DUP1 ISZERO PUSH2 0x1E81 JUMPI RETURNDATASIZE PUSH1 0x0 DUP1 RETURNDATACOPY RETURNDATASIZE PUSH1 0x0 REVERT JUMPDEST POP POP POP POP JUMPDEST POP POP POP POP POP POP POP JUMP JUMPDEST PUSH1 0x0 DUP1 PUSH1 0x60 PUSH2 0x1E9F DUP5 PUSH1 0x0 PUSH2 0x173B JUMP JUMPDEST SWAP3 POP PUSH2 0x1EAC DUP5 PUSH1 0x14 PUSH2 0x1ECD JUMP JUMPDEST SWAP2 POP PUSH1 0x34 DUP5 MLOAD GT ISZERO PUSH2 0x1EC6 JUMPI PUSH2 0x1EC3 DUP5 PUSH1 0x34 PUSH2 0x1ED9 JUMP JUMPDEST SWAP1 POP JUMPDEST SWAP2 SWAP4 SWAP1 SWAP3 POP JUMP JUMPDEST PUSH1 0x0 PUSH2 0x46E DUP4 DUP4 PUSH2 0x1FD2 JUMP JUMPDEST PUSH1 0x60 PUSH1 0x0 PUSH2 0x1EE7 DUP5 DUP5 PUSH2 0x1ECD JUMP JUMPDEST SWAP1 POP PUSH1 0x20 DUP4 ADD SWAP3 POP DUP1 DUP4 ADD DUP5 MLOAD LT ISZERO PUSH1 0x60 PUSH1 0x40 MLOAD SWAP1 DUP2 ADD PUSH1 0x40 MSTORE DUP1 PUSH1 0x30 DUP2 MSTORE PUSH1 0x20 ADD PUSH32 0x475245415445525F4F525F455155414C5F544F5F4E45535445445F4259544553 DUP2 MSTORE PUSH1 0x20 ADD PUSH32 0x5F4C454E4754485F524551554952454400000000000000000000000000000000 DUP2 MSTORE POP SWAP1 ISZERO ISZERO PUSH2 0x1F76 JUMPI PUSH1 0x40 MLOAD PUSH1 0xE5 PUSH1 0x2 EXP PUSH3 0x461BCD MUL DUP2 MSTORE PUSH1 0x4 ADD PUSH2 0x141 SWAP2 SWAP1 PUSH2 0x2B64 JUMP JUMPDEST POP DUP1 PUSH1 0x40 MLOAD SWAP1 DUP1 DUP3 MSTORE DUP1 PUSH1 0x1F ADD PUSH1 0x1F NOT AND PUSH1 0x20 ADD DUP3 ADD PUSH1 0x40 MSTORE DUP1 ISZERO PUSH2 0x1FA5 JUMPI DUP2 PUSH1 0x20 ADD PUSH1 0x20 DUP3 MUL DUP1 CODESIZE DUP4 CODECOPY ADD SWAP1 POP JUMPDEST POP SWAP2 POP PUSH2 0x1FCB PUSH2 0x1FB4 DUP4 PUSH2 0x2066 JUMP JUMPDEST PUSH1 0x20 ADD DUP5 PUSH2 0x1FC1 DUP8 PUSH2 0x2066 JUMP JUMPDEST ADD PUSH1 0x20 ADD DUP4 PUSH2 0x2069 JUMP JUMPDEST POP SWAP3 SWAP2 POP POP JUMP JUMPDEST PUSH1 0x0 DUP2 PUSH1 0x20 ADD DUP4 MLOAD LT ISZERO PUSH1 0x60 PUSH1 0x40 MLOAD SWAP1 DUP2 ADD PUSH1 0x40 MSTORE DUP1 PUSH1 0x26 DUP2 MSTORE PUSH1 0x20 ADD PUSH32 0x475245415445525F4F525F455155414C5F544F5F33325F4C454E4754485F5245 DUP2 MSTORE PUSH1 0x20 ADD PUSH32 0x5155495245440000000000000000000000000000000000000000000000000000 DUP2 MSTORE POP SWAP1 ISZERO ISZERO PUSH2 0x205C JUMPI PUSH1 0x40 MLOAD PUSH1 0xE5 PUSH1 0x2 EXP PUSH3 0x461BCD MUL DUP2 MSTORE PUSH1 0x4 ADD PUSH2 0x141 SWAP2 SWAP1 PUSH2 0x2B64 JUMP JUMPDEST POP POP ADD PUSH1 0x20 ADD MLOAD SWAP1 JUMP JUMPDEST SWAP1 JUMP JUMPDEST PUSH1 0x20 DUP2 LT ISZERO PUSH2 0x2093 JUMPI PUSH1 0x1 DUP2 PUSH1 0x20 SUB PUSH2 0x100 EXP SUB DUP1 NOT DUP4 MLOAD AND DUP2 DUP6 MLOAD AND DUP1 DUP3 OR DUP7 MSTORE POP POP POP PUSH2 0xCBA JUMP JUMPDEST DUP3 DUP3 EQ ISZERO PUSH2 0x20A0 JUMPI PUSH2 0xCBA JUMP JUMPDEST DUP3 DUP3 GT ISZERO PUSH2 0x20E6 JUMPI PUSH1 0x20 DUP2 DIV PUSH1 0x20 DUP3 SUB SWAP2 POP DUP2 DUP4 ADD DUP3 DUP6 ADD DUP2 MLOAD PUSH1 0x0 JUMPDEST DUP5 DUP2 LT ISZERO PUSH2 0x20DB JUMPI DUP7 MLOAD DUP9 MSTORE PUSH1 0x20 SWAP8 DUP9 ADD SWAP8 SWAP1 SWAP7 ADD SWAP6 PUSH1 0x1 ADD PUSH2 0x20BD JUMP JUMPDEST POP SWAP1 MSTORE POP PUSH2 0xCBA SWAP1 POP JUMP JUMPDEST PUSH1 0x20 DUP2 DIV PUSH1 0x20 DUP3 SUB SWAP2 POP DUP2 DUP4 ADD DUP3 DUP6 ADD DUP5 MLOAD PUSH1 0x0 JUMPDEST DUP5 DUP2 LT ISZERO PUSH2 0x211A JUMPI DUP4 MLOAD DUP4 MSTORE PUSH1 0x1F NOT SWAP4 DUP5 ADD SWAP4 SWAP1 SWAP3 ADD SWAP2 PUSH1 0x1 ADD PUSH2 0x20FB JUMP JUMPDEST POP DUP7 MSTORE POP POP POP POP POP POP JUMP JUMPDEST PUSH1 0x80 PUSH1 0x40 MLOAD SWAP1 DUP2 ADD PUSH1 0x40 MSTORE DUP1 PUSH1 0x0 DUP2 MSTORE PUSH1 0x20 ADD PUSH1 0x0 DUP2 MSTORE PUSH1 0x20 ADD PUSH1 0x0 DUP2 MSTORE PUSH1 0x20 ADD PUSH1 0x0 DUP2 MSTORE POP SWAP1 JUMP JUMPDEST PUSH1 0x0 PUSH2 0xCE2 DUP3 CALLDATALOAD PUSH2 0x2C89 JUMP JUMPDEST PUSH1 0x0 PUSH2 0xCE2 DUP3 MLOAD PUSH2 0x2C89 JUMP JUMPDEST PUSH1 0x0 PUSH1 0x1F DUP3 ADD DUP4 SGT PUSH2 0x2177 JUMPI PUSH1 0x0 DUP1 REVERT JUMPDEST DUP2 CALLDATALOAD PUSH2 0x218A PUSH2 0x2185 DUP3 PUSH2 0x2C36 JUMP JUMPDEST PUSH2 0x2C0F JUMP JUMPDEST DUP2 DUP2 MSTORE PUSH1 0x20 SWAP4 DUP5 ADD SWAP4 SWAP1 SWAP3 POP DUP3 ADD DUP4 PUSH1 0x0 JUMPDEST DUP4 DUP2 LT ISZERO PUSH2 0x3B9 JUMPI DUP2 CALLDATALOAD DUP7 ADD PUSH2 0x21B2 DUP9 DUP3 PUSH2 0x2231 JUMP JUMPDEST DUP5 MSTORE POP PUSH1 0x20 SWAP3 DUP4 ADD SWAP3 SWAP2 SWAP1 SWAP2 ADD SWAP1 PUSH1 0x1 ADD PUSH2 0x219C JUMP JUMPDEST PUSH1 0x0 PUSH1 0x1F DUP3 ADD DUP4 SGT PUSH2 0x21D9 JUMPI PUSH1 0x0 DUP1 REVERT JUMPDEST DUP2 CALLDATALOAD PUSH2 0x21E7 PUSH2 0x2185 DUP3 PUSH2 0x2C36 JUMP JUMPDEST DUP2 DUP2 MSTORE PUSH1 0x20 SWAP4 DUP5 ADD SWAP4 SWAP1 SWAP3 POP DUP3 ADD DUP4 PUSH1 0x0 JUMPDEST DUP4 DUP2 LT ISZERO PUSH2 0x3B9 JUMPI DUP2 CALLDATALOAD DUP7 ADD PUSH2 0x220F DUP9 DUP3 PUSH2 0x22E6 JUMP JUMPDEST DUP5 MSTORE POP PUSH1 0x20 SWAP3 DUP4 ADD SWAP3 SWAP2 SWAP1 SWAP2 ADD SWAP1 PUSH1 0x1 ADD PUSH2 0x21F9 JUMP JUMPDEST PUSH1 0x0 PUSH2 0xCE2 DUP3 MLOAD PUSH2 0x2CC7 JUMP JUMPDEST PUSH1 0x0 PUSH1 0x1F DUP3 ADD DUP4 SGT PUSH2 0x2242 JUMPI PUSH1 0x0 DUP1 REVERT JUMPDEST DUP2 CALLDATALOAD PUSH2 0x2250 PUSH2 0x2185 DUP3 PUSH2 0x2C57 JUMP JUMPDEST SWAP2 POP DUP1 DUP3 MSTORE PUSH1 0x20 DUP4 ADD PUSH1 0x20 DUP4 ADD DUP6 DUP4 DUP4 ADD GT ISZERO PUSH2 0x226C JUMPI PUSH1 0x0 DUP1 REVERT JUMPDEST PUSH2 0x188C DUP4 DUP3 DUP5 PUSH2 0x2CCC JUMP JUMPDEST PUSH1 0x0 PUSH1 0x80 DUP3 DUP5 SUB SLT ISZERO PUSH2 0x2289 JUMPI PUSH1 0x0 DUP1 REVERT JUMPDEST PUSH2 0x2293 PUSH1 0x80 PUSH2 0x2C0F JUMP JUMPDEST SWAP1 POP PUSH1 0x0 PUSH2 0x22A1 DUP5 DUP5 PUSH2 0x2447 JUMP JUMPDEST DUP3 MSTORE POP PUSH1 0x20 PUSH2 0x22B2 DUP5 DUP5 DUP4 ADD PUSH2 0x2447 JUMP JUMPDEST PUSH1 0x20 DUP4 ADD MSTORE POP PUSH1 0x40 PUSH2 0x22C6 DUP5 DUP3 DUP6 ADD PUSH2 0x2447 JUMP JUMPDEST PUSH1 0x40 DUP4 ADD MSTORE POP PUSH1 0x60 PUSH2 0x22DA DUP5 DUP3 DUP6 ADD PUSH2 0x2447 JUMP JUMPDEST PUSH1 0x60 DUP4 ADD MSTORE POP SWAP3 SWAP2 POP POP JUMP JUMPDEST PUSH1 0x0 PUSH2 0x180 DUP3 DUP5 SUB SLT ISZERO PUSH2 0x22F9 JUMPI PUSH1 0x0 DUP1 REVERT JUMPDEST PUSH2 0x2304 PUSH2 0x180 PUSH2 0x2C0F JUMP JUMPDEST SWAP1 POP PUSH1 0x0 PUSH2 0x2312 DUP5 DUP5 PUSH2 0x214E JUMP JUMPDEST DUP3 MSTORE POP PUSH1 0x20 PUSH2 0x2323 DUP5 DUP5 DUP4 ADD PUSH2 0x214E JUMP JUMPDEST PUSH1 0x20 DUP4 ADD MSTORE POP PUSH1 0x40 PUSH2 0x2337 DUP5 DUP3 DUP6 ADD PUSH2 0x214E JUMP JUMPDEST PUSH1 0x40 DUP4 ADD MSTORE POP PUSH1 0x60 PUSH2 0x234B DUP5 DUP3 DUP6 ADD PUSH2 0x214E JUMP JUMPDEST PUSH1 0x60 DUP4 ADD MSTORE POP PUSH1 0x80 PUSH2 0x235F DUP5 DUP3 DUP6 ADD PUSH2 0x243B JUMP JUMPDEST PUSH1 0x80 DUP4 ADD MSTORE POP PUSH1 0xA0 PUSH2 0x2373 DUP5 DUP3 DUP6 ADD PUSH2 0x243B JUMP JUMPDEST PUSH1 0xA0 DUP4 ADD MSTORE POP PUSH1 0xC0 PUSH2 0x2387 DUP5 DUP3 DUP6 ADD PUSH2 0x243B JUMP JUMPDEST PUSH1 0xC0 DUP4 ADD MSTORE POP PUSH1 0xE0 PUSH2 0x239B DUP5 DUP3 DUP6 ADD PUSH2 0x243B JUMP JUMPDEST PUSH1 0xE0 DUP4 ADD MSTORE POP PUSH2 0x100 PUSH2 0x23B0 DUP5 DUP3 DUP6 ADD PUSH2 0x243B JUMP JUMPDEST PUSH2 0x100 DUP4 ADD MSTORE POP PUSH2 0x120 PUSH2 0x23C6 DUP5 DUP3 DUP6 ADD PUSH2 0x243B JUMP JUMPDEST PUSH2 0x120 DUP4 ADD MSTORE POP PUSH2 0x140 DUP3 ADD CALLDATALOAD PUSH8 0xFFFFFFFFFFFFFFFF DUP2 GT ISZERO PUSH2 0x23E8 JUMPI PUSH1 0x0 DUP1 REVERT JUMPDEST PUSH2 0x23F4 DUP5 DUP3 DUP6 ADD PUSH2 0x2231 JUMP JUMPDEST PUSH2 0x140 DUP4 ADD MSTORE POP PUSH2 0x160 DUP3 ADD CALLDATALOAD PUSH8 0xFFFFFFFFFFFFFFFF DUP2 GT ISZERO PUSH2 0x2416 JUMPI PUSH1 0x0 DUP1 REVERT JUMPDEST PUSH2 0x2422 DUP5 DUP3 DUP6 ADD PUSH2 0x2231 JUMP JUMPDEST PUSH2 0x160 DUP4 ADD MSTORE POP SWAP3 SWAP2 POP POP JUMP JUMPDEST PUSH1 0x0 PUSH2 0xCE2 DUP3 CALLDATALOAD PUSH2 0x2CBA JUMP JUMPDEST PUSH1 0x0 PUSH2 0xCE2 DUP3 CALLDATALOAD PUSH2 0x2066 JUMP JUMPDEST PUSH1 0x0 PUSH2 0xCE2 DUP3 MLOAD PUSH2 0x2066 JUMP JUMPDEST PUSH1 0x0 PUSH2 0xCE2 DUP3 CALLDATALOAD PUSH2 0x2CC1 JUMP JUMPDEST PUSH1 0x0 PUSH1 0x20 DUP3 DUP5 SUB SLT ISZERO PUSH2 0x2471 JUMPI PUSH1 0x0 DUP1 REVERT JUMPDEST PUSH1 0x0 PUSH2 0xD78 DUP5 DUP5 PUSH2 0x214E JUMP JUMPDEST PUSH1 0x0 PUSH1 0x20 DUP3 DUP5 SUB SLT ISZERO PUSH2 0x248F JUMPI PUSH1 0x0 DUP1 REVERT JUMPDEST PUSH1 0x0 PUSH2 0xD78 DUP5 DUP5 PUSH2 0x215A JUMP JUMPDEST PUSH1 0x0 DUP1 PUSH1 0x0 PUSH1 0x60 DUP5 DUP7 SUB SLT ISZERO PUSH2 0x24B0 JUMPI PUSH1 0x0 DUP1 REVERT JUMPDEST PUSH1 0x0 PUSH2 0x24BC DUP7 DUP7 PUSH2 0x214E JUMP JUMPDEST SWAP4 POP POP PUSH1 0x20 PUSH2 0x24CD DUP7 DUP3 DUP8 ADD PUSH2 0x243B JUMP JUMPDEST SWAP3 POP POP PUSH1 0x40 DUP5 ADD CALLDATALOAD PUSH8 0xFFFFFFFFFFFFFFFF DUP2 GT ISZERO PUSH2 0x24EA JUMPI PUSH1 0x0 DUP1 REVERT JUMPDEST PUSH2 0x24F6 DUP7 DUP3 DUP8 ADD PUSH2 0x2231 JUMP JUMPDEST SWAP2 POP POP SWAP3 POP SWAP3 POP SWAP3 JUMP JUMPDEST PUSH1 0x0 DUP1 PUSH1 0x0 DUP1 PUSH1 0x0 DUP1 PUSH1 0xC0 DUP8 DUP10 SUB SLT ISZERO PUSH2 0x2519 JUMPI PUSH1 0x0 DUP1 REVERT JUMPDEST DUP7 CALLDATALOAD PUSH8 0xFFFFFFFFFFFFFFFF DUP2 GT ISZERO PUSH2 0x2530 JUMPI PUSH1 0x0 DUP1 REVERT JUMPDEST PUSH2 0x253C DUP10 DUP3 DUP11 ADD PUSH2 0x21C8 JUMP JUMPDEST SWAP7 POP POP PUSH1 0x20 DUP8 ADD CALLDATALOAD PUSH8 0xFFFFFFFFFFFFFFFF DUP2 GT ISZERO PUSH2 0x2559 JUMPI PUSH1 0x0 DUP1 REVERT JUMPDEST PUSH2 0x2565 DUP10 DUP3 DUP11 ADD PUSH2 0x2166 JUMP JUMPDEST SWAP6 POP POP PUSH1 0x40 DUP8 ADD CALLDATALOAD PUSH8 0xFFFFFFFFFFFFFFFF DUP2 GT ISZERO PUSH2 0x2582 JUMPI PUSH1 0x0 DUP1 REVERT JUMPDEST PUSH2 0x258E DUP10 DUP3 DUP11 ADD PUSH2 0x21C8 JUMP JUMPDEST SWAP5 POP POP PUSH1 0x60 DUP8 ADD CALLDATALOAD PUSH8 0xFFFFFFFFFFFFFFFF DUP2 GT ISZERO PUSH2 0x25AB JUMPI PUSH1 0x0 DUP1 REVERT JUMPDEST PUSH2 0x25B7 DUP10 DUP3 DUP11 ADD PUSH2 0x2166 JUMP JUMPDEST SWAP4 POP POP PUSH1 0x80 PUSH2 0x25C8 DUP10 DUP3 DUP11 ADD PUSH2 0x242F JUMP JUMPDEST SWAP3 POP POP PUSH1 0xA0 PUSH2 0x25D9 DUP10 DUP3 DUP11 ADD PUSH2 0x214E JUMP JUMPDEST SWAP2 POP POP SWAP3 SWAP6 POP SWAP3 SWAP6 POP SWAP3 SWAP6 JUMP JUMPDEST PUSH1 0x0 DUP1 PUSH1 0x0 DUP1 PUSH1 0x0 DUP1 PUSH1 0x0 PUSH1 0xE0 DUP9 DUP11 SUB SLT ISZERO PUSH2 0x2601 JUMPI PUSH1 0x0 DUP1 REVERT JUMPDEST DUP8 CALLDATALOAD PUSH8 0xFFFFFFFFFFFFFFFF DUP2 GT ISZERO PUSH2 0x2618 JUMPI PUSH1 0x0 DUP1 REVERT JUMPDEST PUSH2 0x2624 DUP11 DUP3 DUP12 ADD PUSH2 0x21C8 JUMP JUMPDEST SWAP8 POP POP PUSH1 0x20 DUP9 ADD CALLDATALOAD PUSH8 0xFFFFFFFFFFFFFFFF DUP2 GT ISZERO PUSH2 0x2641 JUMPI PUSH1 0x0 DUP1 REVERT JUMPDEST PUSH2 0x264D DUP11 DUP3 DUP12 ADD PUSH2 0x2166 JUMP JUMPDEST SWAP7 POP POP PUSH1 0x40 DUP9 ADD CALLDATALOAD PUSH8 0xFFFFFFFFFFFFFFFF DUP2 GT ISZERO PUSH2 0x266A JUMPI PUSH1 0x0 DUP1 REVERT JUMPDEST PUSH2 0x2676 DUP11 DUP3 DUP12 ADD PUSH2 0x21C8 JUMP JUMPDEST SWAP6 POP POP PUSH1 0x60 DUP9 ADD CALLDATALOAD PUSH8 0xFFFFFFFFFFFFFFFF DUP2 GT ISZERO PUSH2 0x2693 JUMPI PUSH1 0x0 DUP1 REVERT JUMPDEST PUSH2 0x269F DUP11 DUP3 DUP12 ADD PUSH2 0x2166 JUMP JUMPDEST SWAP5 POP POP PUSH1 0x80 PUSH2 0x26B0 DUP11 DUP3 DUP12 ADD PUSH2 0x243B JUMP JUMPDEST SWAP4 POP POP PUSH1 0xA0 PUSH2 0x26C1 DUP11 DUP3 DUP12 ADD PUSH2 0x242F JUMP JUMPDEST SWAP3 POP POP PUSH1 0xC0 PUSH2 0x26D2 DUP11 DUP3 DUP12 ADD PUSH2 0x214E JUMP JUMPDEST SWAP2 POP POP SWAP3 SWAP6 SWAP9 SWAP2 SWAP5 SWAP8 POP SWAP3 SWAP6 POP JUMP JUMPDEST PUSH1 0x0 DUP1 PUSH1 0x40 DUP4 DUP6 SUB SLT ISZERO PUSH2 0x26F4 JUMPI PUSH1 0x0 DUP1 REVERT JUMPDEST DUP3 CALLDATALOAD PUSH8 0xFFFFFFFFFFFFFFFF DUP2 GT ISZERO PUSH2 0x270B JUMPI PUSH1 0x0 DUP1 REVERT JUMPDEST PUSH2 0x2717 DUP6 DUP3 DUP7 ADD PUSH2 0x21C8 JUMP JUMPDEST SWAP3 POP POP PUSH1 0x20 PUSH2 0x2728 DUP6 DUP3 DUP7 ADD PUSH2 0x243B JUMP JUMPDEST SWAP2 POP POP SWAP3 POP SWAP3 SWAP1 POP JUMP JUMPDEST PUSH1 0x0 PUSH1 0x20 DUP3 DUP5 SUB SLT ISZERO PUSH2 0x2744 JUMPI PUSH1 0x0 DUP1 REVERT JUMPDEST PUSH1 0x0 PUSH2 0xD78 DUP5 DUP5 PUSH2 0x2225 JUMP JUMPDEST PUSH1 0x0 PUSH1 0x80 DUP3 DUP5 SUB SLT ISZERO PUSH2 0x2762 JUMPI PUSH1 0x0 DUP1 REVERT JUMPDEST PUSH1 0x0 PUSH2 0xD78 DUP5 DUP5 PUSH2 0x2277 JUMP JUMPDEST PUSH1 0x0 DUP1 PUSH1 0x40 DUP4 DUP6 SUB SLT ISZERO PUSH2 0x2781 JUMPI PUSH1 0x0 DUP1 REVERT JUMPDEST DUP3 CALLDATALOAD PUSH8 0xFFFFFFFFFFFFFFFF DUP2 GT ISZERO PUSH2 0x2798 JUMPI PUSH1 0x0 DUP1 REVERT JUMPDEST PUSH2 0x2717 DUP6 DUP3 DUP7 ADD PUSH2 0x22E6 JUMP JUMPDEST PUSH1 0x0 PUSH1 0x20 DUP3 DUP5 SUB SLT ISZERO PUSH2 0x27B6 JUMPI PUSH1 0x0 DUP1 REVERT JUMPDEST PUSH1 0x0 PUSH2 0xD78 DUP5 DUP5 PUSH2 0x2453 JUMP JUMPDEST PUSH2 0x27CB DUP2 PUSH2 0x2C89 JUMP JUMPDEST DUP3 MSTORE POP POP JUMP JUMPDEST PUSH1 0x0 PUSH2 0x27DC DUP3 PUSH2 0x2C85 JUMP JUMPDEST DUP1 DUP5 MSTORE PUSH1 0x20 DUP5 ADD SWAP4 POP DUP4 PUSH1 0x20 DUP3 MUL DUP6 ADD PUSH2 0x27F5 DUP6 PUSH2 0x2C7F JUMP JUMPDEST PUSH1 0x0 JUMPDEST DUP5 DUP2 LT ISZERO PUSH2 0x282C JUMPI DUP4 DUP4 SUB DUP9 MSTORE PUSH2 0x2810 DUP4 DUP4 MLOAD PUSH2 0x289C JUMP JUMPDEST SWAP3 POP PUSH2 0x281B DUP3 PUSH2 0x2C7F JUMP JUMPDEST PUSH1 0x20 SWAP9 SWAP1 SWAP9 ADD SWAP8 SWAP2 POP PUSH1 0x1 ADD PUSH2 0x27F8 JUMP JUMPDEST POP SWAP1 SWAP7 SWAP6 POP POP POP POP POP POP JUMP JUMPDEST PUSH1 0x0 PUSH2 0x2843 DUP3 PUSH2 0x2C85 JUMP JUMPDEST DUP1 DUP5 MSTORE PUSH1 0x20 DUP5 ADD SWAP4 POP DUP4 PUSH1 0x20 DUP3 MUL DUP6 ADD PUSH2 0x285C DUP6 PUSH2 0x2C7F JUMP JUMPDEST PUSH1 0x0 JUMPDEST DUP5 DUP2 LT ISZERO PUSH2 0x282C JUMPI DUP4 DUP4 SUB DUP9 MSTORE PUSH2 0x2877 DUP4 DUP4 MLOAD PUSH2 0x2971 JUMP JUMPDEST SWAP3 POP PUSH2 0x2882 DUP3 PUSH2 0x2C7F JUMP JUMPDEST PUSH1 0x20 SWAP9 SWAP1 SWAP9 ADD SWAP8 SWAP2 POP PUSH1 0x1 ADD PUSH2 0x285F JUMP JUMPDEST PUSH2 0x27CB DUP2 PUSH2 0x2C95 JUMP JUMPDEST PUSH1 0x0 PUSH2 0x28A7 DUP3 PUSH2 0x2C85 JUMP JUMPDEST DUP1 DUP5 MSTORE PUSH2 0x28BB DUP2 PUSH1 0x20 DUP7 ADD PUSH1 0x20 DUP7 ADD PUSH2 0x2CD8 JUMP JUMPDEST PUSH2 0x28C4 DUP2 PUSH2 0x2D04 JUMP JUMPDEST SWAP1 SWAP4 ADD PUSH1 0x20 ADD SWAP4 SWAP3 POP POP POP JUMP JUMPDEST PUSH1 0x33 DUP2 MSTORE PUSH32 0x4F6E6C7920636F6E7472616374206F776E657220697320616C6C6F7765642074 PUSH1 0x20 DUP3 ADD MSTORE PUSH32 0x6F2063616C6C2074686973206D6574686F642E00000000000000000000000000 PUSH1 0x40 DUP3 ADD MSTORE PUSH1 0x60 ADD SWAP1 JUMP JUMPDEST DUP1 MLOAD PUSH1 0x80 DUP4 ADD SWAP1 PUSH2 0x2938 DUP5 DUP3 PUSH2 0x2A7D JUMP JUMPDEST POP PUSH1 0x20 DUP3 ADD MLOAD PUSH2 0x294B PUSH1 0x20 DUP6 ADD DUP3 PUSH2 0x2A7D JUMP JUMPDEST POP PUSH1 0x40 DUP3 ADD MLOAD PUSH2 0x295E PUSH1 0x40 DUP6 ADD DUP3 PUSH2 0x2A7D JUMP JUMPDEST POP PUSH1 0x60 DUP3 ADD MLOAD PUSH2 0x1C21 PUSH1 0x60 DUP6 ADD DUP3 PUSH2 0x2A7D JUMP JUMPDEST DUP1 MLOAD PUSH1 0x0 SWAP1 PUSH2 0x180 DUP5 ADD SWAP1 PUSH2 0x2986 DUP6 DUP3 PUSH2 0x27C2 JUMP JUMPDEST POP PUSH1 0x20 DUP4 ADD MLOAD PUSH2 0x2999 PUSH1 0x20 DUP7 ADD DUP3 PUSH2 0x27C2 JUMP JUMPDEST POP PUSH1 0x40 DUP4 ADD MLOAD PUSH2 0x29AC PUSH1 0x40 DUP7 ADD DUP3 PUSH2 0x27C2 JUMP JUMPDEST POP PUSH1 0x60 DUP4 ADD MLOAD PUSH2 0x29BF PUSH1 0x60 DUP7 ADD DUP3 PUSH2 0x27C2 JUMP JUMPDEST POP PUSH1 0x80 DUP4 ADD MLOAD PUSH2 0x29D2 PUSH1 0x80 DUP7 ADD DUP3 PUSH2 0x2A7D JUMP JUMPDEST POP PUSH1 0xA0 DUP4 ADD MLOAD PUSH2 0x29E5 PUSH1 0xA0 DUP7 ADD DUP3 PUSH2 0x2A7D JUMP JUMPDEST POP PUSH1 0xC0 DUP4 ADD MLOAD PUSH2 0x29F8 PUSH1 0xC0 DUP7 ADD DUP3 PUSH2 0x2A7D JUMP JUMPDEST POP PUSH1 0xE0 DUP4 ADD MLOAD PUSH2 0x2A0B PUSH1 0xE0 DUP7 ADD DUP3 PUSH2 0x2A7D JUMP JUMPDEST POP PUSH2 0x100 DUP4 ADD MLOAD PUSH2 0x2A20 PUSH2 0x100 DUP7 ADD DUP3 PUSH2 0x2A7D JUMP JUMPDEST POP PUSH2 0x120 DUP4 ADD MLOAD PUSH2 0x2A35 PUSH2 0x120 DUP7 ADD DUP3 PUSH2 0x2A7D JUMP JUMPDEST POP PUSH2 0x140 DUP4 ADD MLOAD DUP5 DUP3 SUB PUSH2 0x140 DUP7 ADD MSTORE PUSH2 0x2A4F DUP3 DUP3 PUSH2 0x289C JUMP JUMPDEST SWAP2 POP POP PUSH2 0x160 DUP4 ADD MLOAD DUP5 DUP3 SUB PUSH2 0x160 DUP7 ADD MSTORE PUSH2 0x2A6B DUP3 DUP3 PUSH2 0x289C JUMP JUMPDEST SWAP6 SWAP5 POP POP POP POP POP JUMP JUMPDEST PUSH2 0x27CB DUP2 PUSH2 0x2CBA JUMP JUMPDEST PUSH2 0x27CB DUP2 PUSH2 0x2066 JUMP JUMPDEST PUSH2 0x27CB DUP2 PUSH2 0x2CC1 JUMP JUMPDEST PUSH1 0x20 DUP2 ADD PUSH2 0x471 DUP3 DUP5 PUSH2 0x27C2 JUMP JUMPDEST PUSH1 0x60 DUP2 ADD PUSH2 0x2AAB DUP3 DUP7 PUSH2 0x27C2 JUMP JUMPDEST PUSH2 0x2AB8 PUSH1 0x20 DUP4 ADD DUP6 PUSH2 0x27C2 JUMP JUMPDEST PUSH2 0xD78 PUSH1 0x40 DUP4 ADD DUP5 PUSH2 0x2A7D JUMP JUMPDEST PUSH1 0x80 DUP2 ADD PUSH2 0x2AD3 DUP3 DUP8 PUSH2 0x27C2 JUMP JUMPDEST PUSH2 0x2AE0 PUSH1 0x20 DUP4 ADD DUP7 PUSH2 0x27C2 JUMP JUMPDEST PUSH2 0x2AED PUSH1 0x40 DUP4 ADD DUP6 PUSH2 0x2A7D JUMP JUMPDEST DUP2 DUP2 SUB PUSH1 0x60 DUP4 ADD MSTORE PUSH2 0x2AFF DUP2 DUP5 PUSH2 0x289C JUMP JUMPDEST SWAP7 SWAP6 POP POP POP POP POP POP JUMP JUMPDEST PUSH1 0x40 DUP2 ADD PUSH2 0x2B17 DUP3 DUP6 PUSH2 0x27C2 JUMP JUMPDEST PUSH2 0xCE2 PUSH1 0x20 DUP4 ADD DUP5 PUSH2 0x2A7D JUMP JUMPDEST PUSH1 0x60 DUP1 DUP3 MSTORE DUP2 ADD PUSH2 0x2B35 DUP2 DUP7 PUSH2 0x2838 JUMP JUMPDEST SWAP1 POP PUSH2 0x2B44 PUSH1 0x20 DUP4 ADD DUP6 PUSH2 0x2A7D JUMP JUMPDEST DUP2 DUP2 SUB PUSH1 0x40 DUP4 ADD MSTORE PUSH2 0x2A6B DUP2 DUP5 PUSH2 0x27D1 JUMP JUMPDEST PUSH1 0x20 DUP2 ADD PUSH2 0x471 DUP3 DUP5 PUSH2 0x2893 JUMP JUMPDEST PUSH1 0x20 DUP1 DUP3 MSTORE DUP2 ADD PUSH2 0xCE2 DUP2 DUP5 PUSH2 0x289C JUMP JUMPDEST PUSH1 0x20 DUP1 DUP3 MSTORE DUP2 ADD PUSH2 0x471 DUP2 PUSH2 0x28D1 JUMP JUMPDEST PUSH1 0x80 DUP2 ADD PUSH2 0x471 DUP3 DUP5 PUSH2 0x2927 JUMP JUMPDEST PUSH1 0x40 DUP1 DUP3 MSTORE DUP2 ADD PUSH2 0x2BA4 DUP2 DUP6 PUSH2 0x2971 JUMP JUMPDEST SWAP1 POP PUSH2 0xCE2 PUSH1 0x20 DUP4 ADD DUP5 PUSH2 0x2A7D JUMP JUMPDEST PUSH1 0x60 DUP1 DUP3 MSTORE DUP2 ADD PUSH2 0x2BC4 DUP2 DUP7 PUSH2 0x2971 JUMP JUMPDEST SWAP1 POP PUSH2 0x2BD3 PUSH1 0x20 DUP4 ADD DUP6 PUSH2 0x2A7D JUMP JUMPDEST DUP2 DUP2 SUB PUSH1 0x40 DUP4 ADD MSTORE PUSH2 0x2A6B DUP2 DUP5 PUSH2 0x289C JUMP JUMPDEST PUSH1 0x20 DUP2 ADD PUSH2 0x471 DUP3 DUP5 PUSH2 0x2A74 JUMP JUMPDEST PUSH1 0x20 DUP2 ADD PUSH2 0x471 DUP3 DUP5 PUSH2 0x2A7D JUMP JUMPDEST PUSH1 0x20 DUP2 ADD PUSH2 0x471 DUP3 DUP5 PUSH2 0x2A86 JUMP JUMPDEST PUSH1 0x40 MLOAD DUP2 DUP2 ADD PUSH8 0xFFFFFFFFFFFFFFFF DUP2 GT DUP3 DUP3 LT OR ISZERO PUSH2 0x2C2E JUMPI PUSH1 0x0 DUP1 REVERT JUMPDEST PUSH1 0x40 MSTORE SWAP2 SWAP1 POP JUMP JUMPDEST PUSH1 0x0 PUSH8 0xFFFFFFFFFFFFFFFF DUP3 GT ISZERO PUSH2 0x2C4D JUMPI PUSH1 0x0 DUP1 REVERT JUMPDEST POP PUSH1 0x20 SWAP1 DUP2 MUL ADD SWAP1 JUMP JUMPDEST PUSH1 0x0 PUSH8 0xFFFFFFFFFFFFFFFF DUP3 GT ISZERO PUSH2 0x2C6E JUMPI PUSH1 0x0 DUP1 REVERT JUMPDEST POP PUSH1 0x20 PUSH1 0x1F SWAP2 SWAP1 SWAP2 ADD PUSH1 0x1F NOT AND ADD SWAP1 JUMP JUMPDEST PUSH1 0x20 ADD SWAP1 JUMP JUMPDEST MLOAD SWAP1 JUMP JUMPDEST PUSH1 0x1 PUSH1 0xA0 PUSH1 0x2 EXP SUB AND SWAP1 JUMP JUMPDEST PUSH32 0xFFFFFFFF00000000000000000000000000000000000000000000000000000000 AND SWAP1 JUMP JUMPDEST PUSH2 0xFFFF AND SWAP1 JUMP JUMPDEST PUSH1 0xFF AND SWAP1 JUMP JUMPDEST ISZERO ISZERO SWAP1 JUMP JUMPDEST DUP3 DUP2 DUP4 CALLDATACOPY POP PUSH1 0x0 SWAP2 ADD MSTORE JUMP JUMPDEST PUSH1 0x0 JUMPDEST DUP4 DUP2 LT ISZERO PUSH2 0x2CF3 JUMPI DUP2 DUP2 ADD MLOAD DUP4 DUP3 ADD MSTORE PUSH1 0x20 ADD PUSH2 0x2CDB JUMP JUMPDEST DUP4 DUP2 GT ISZERO PUSH2 0x1C21 JUMPI POP POP PUSH1 0x0 SWAP2 ADD MSTORE JUMP JUMPDEST PUSH1 0x1F ADD PUSH1 0x1F NOT AND SWAP1 JUMP STOP SSTORE 0x4e COINBASE NUMBER NUMBER GASLIMIT POP SLOAD COINBASE TIMESTAMP 0x4c GASLIMIT 0x5f SLOAD 0x48 MSTORE GASLIMIT MSTORE8 0x48 0x4f 0x4c DIFFICULTY STOP STOP STOP STOP STOP STOP STOP STOP STOP STOP LOG2 PUSH6 0x627A7A723058 KECCAK256 PUSH4 0x8A2F22BB 0xc8 SGT PUSH2 0x7522 CALLDATALOAD SWAP10 ADD SDIV 0xaa 0xd5 PUSH3 0xA83B0F 0xbb CALLCODE MSIZE SWAP13 0x3f ADDRESS SHL PUSH4 0x44092AF4 PUSH13 0x6578706572696D656E74616CF5 STOP CALLDATACOPY "
			}
		}
	},
	"sourceTreeHashHex": "0x9d165a19379567e098107918d2587e1f6f2f1bbff3b7effadc4055e6b992a9a2",
	"compiler": {
		"name": "solc",
		"version": "soljson-v0.4.24+commit.e67f0147.js",
		"settings": {
			"optimizer": {
				"enabled": true,
				"runs": 200
			},
			"outputSelection": {
				"*": {
					"*": [
						"abi",
						"evm.bytecode.object",
						"evm.bytecode.sourceMap",
						"evm.deployedBytecode.object",
						"evm.deployedBytecode.sourceMap"
					]
				}
			}
		}
	}
}