{
	"schemaVersion": "2.0.0",
	"contractName": "Forwarder",
	"compilerOutput": {
		"abi": [
			{
				"constant": true,
				"inputs": [
					{
						"components": [
							{
								"name": "makerAddress",
								"type": "address"
							},
							{
								"name": "takerAddress",
								"type": "address"
							},
							{
								"name": "feeRecipientAddress",
								"type": "address"
							},
							{
								"name": "senderAddress",
								"type": "address"
							},
							{
								"name": "makerAssetAmount",
								"type": "uint256"
							},
							{
								"name": "takerAssetAmount",
								"type": "uint256"
							},
							{
								"name": "makerFee",
								"type": "uint256"
							},
							{
								"name": "takerFee",
								"type": "uint256"
							},
							{
								"name": "expirationTimeSeconds",
								"type": "uint256"
							},
							{
								"name": "salt",
								"type": "uint256"
							},
							{
								"name": "makerAssetData",
								"type": "bytes"
							},
							{
								"name": "takerAssetData",
								"type": "bytes"
							}
						],
						"name": "orders",
						"type": "tuple[]"
					},
					{
						"name": "makerAssetFillAmount",
						"type": "uint256"
					}
				],
				"name": "calculateMarketBuyFillResults",
				"outputs": [
					{
						"components": [
							{
								"name": "makerAssetFilledAmount",
								"type": "uint256"
							},
							{
								"name": "takerAssetFilledAmount",
								"type": "uint256"
							},
							{
								"name": "makerFeePaid",
								"type": "uint256"
							},
							{
								"name": "takerFeePaid",
								"type": "uint256"
							}
						],
						"name": "totalFillResults",
						"type": "tuple"
					}
				],
				"payable": false,
				"stateMutability": "view",
				"type": "function"
			},
			{
				"constant": true,
				"inputs": [],
				"name": "ALLOWABLE_EXCHANGE_PERCENTAGE",
				"outputs": [
					{
						"name": "",
						"type": "uint16"
					}
				],
				"payable": false,
				"stateMutability": "view",
				"type": "function"
			},
			{
				"constant": true,
				"inputs": [
					{
						"components": [
							{
								"name": "makerAddress",
								"type": "address"
							},
							{
								"name": "takerAddress",
								"type": "address"
							},
							{
								"name": "feeRecipientAddress",
								"type": "address"
							},
							{
								"name": "senderAddress",
								"type": "address"
							},
							{
								"name": "makerAssetAmount",
								"type": "uint256"
							},
							{
								"name": "takerAssetAmount",
								"type": "uint256"
							},
							{
								"name": "makerFee",
								"type": "uint256"
							},
							{
								"name": "takerFee",
								"type": "uint256"
							},
							{
								"name": "expirationTimeSeconds",
								"type": "uint256"
							},
							{
								"name": "salt",
								"type": "uint256"
							},
							{
								"name": "makerAssetData",
								"type": "bytes"
							},
							{
								"name": "takerAssetData",
								"type": "bytes"
							}
						],
						"name": "order",
						"type": "tuple"
					},
					{
						"name": "takerAssetFillAmount",
						"type": "uint256"
					}
				],
				"name": "calculateFillOrderFillResults",
				"outputs": [
					{
						"components": [
							{
								"name": "makerAssetFilledAmount",
								"type": "uint256"
							},
							{
								"name": "takerAssetFilledAmount",
								"type": "uint256"
							},
							{
								"name": "makerFeePaid",
								"type": "uint256"
							},
							{
								"name": "takerFeePaid",
								"type": "uint256"
							}
						],
						"name": "fillResults",
						"type": "tuple"
					}
				],
				"payable": false,
				"stateMutability": "view",
				"type": "function"
			},
			{
				"constant": false,
				"inputs": [
					{
						"components": [
							{
								"name": "makerAddress",
								"type": "address"
							},
							{
								"name": "takerAddress",
								"type": "address"
							},
							{
								"name": "feeRecipientAddress",
								"type": "address"
							},
							{
								"name": "senderAddress",
								"type": "address"
							},
							{
								"name": "makerAssetAmount",
								"type": "uint256"
							},
							{
								"name": "takerAssetAmount",
								"type": "uint256"
							},
							{
								"name": "makerFee",
								"type": "uint256"
							},
							{
								"name": "takerFee",
								"type": "uint256"
							},
							{
								"name": "expirationTimeSeconds",
								"type": "uint256"
							},
							{
								"name": "salt",
								"type": "uint256"
							},
							{
								"name": "makerAssetData",
								"type": "bytes"
							},
							{
								"name": "takerAssetData",
								"type": "bytes"
							}
						],
						"name": "orders",
						"type": "tuple[]"
					},
					{
						"name": "signatures",
						"type": "bytes[]"
					},
					{
						"components": [
							{
								"name": "makerAddress",
								"type": "address"
							},
							{
								"name": "takerAddress",
								"type": "address"
							},
							{
								"name": "feeRecipientAddress",
								"type": "address"
							},
							{
								"name": "senderAddress",
								"type": "address"
							},
							{
								"name": "makerAssetAmount",
								"type": "uint256"
							},
							{
								"name": "takerAssetAmount",
								"type": "uint256"
							},
							{
								"name": "makerFee",
								"type": "uint256"
							},
							{
								"name": "takerFee",
								"type": "uint256"
							},
							{
								"name": "expirationTimeSeconds",
								"type": "uint256"
							},
							{
								"name": "salt",
								"type": "uint256"
							},
							{
								"name": "makerAssetData",
								"type": "bytes"
							},
							{
								"name": "takerAssetData",
								"type": "bytes"
							}
						],
						"name": "feeOrders",
						"type": "tuple[]"
					},
					{
						"name": "feeSignatures",
						"type": "bytes[]"
					},
					{
						"name": "feeProportion",
						"type": "uint16"
					},
					{
						"name": "feeRecipient",
						"type": "address"
					}
				],
				"name": "marketBuyTokens",
				"outputs": [
					{
						"components": [
							{
								"name": "makerAssetFilledAmount",
								"type": "uint256"
							},
							{
								"name": "takerAssetFilledAmount",
								"type": "uint256"
							},
							{
								"name": "makerFeePaid",
								"type": "uint256"
							},
							{
								"name": "takerFeePaid",
								"type": "uint256"
							}
						],
						"name": "",
						"type": "tuple"
					}
				],
				"payable": true,
				"stateMutability": "payable",
				"type": "function"
			},
			{
				"constant": true,
				"inputs": [],
				"name": "owner",
				"outputs": [
					{
						"name": "",
						"type": "address"
					}
				],
				"payable": false,
				"stateMutability": "view",
				"type": "function"
			},
			{
				"constant": true,
				"inputs": [],
				"name": "ERC20_PROXY_ID",
				"outputs": [
					{
						"name": "",
						"type": "uint8"
					}
				],
				"payable": false,
				"stateMutability": "view",
				"type": "function"
			},
			{
				"constant": false,
				"inputs": [
					{
						"components": [
							{
								"name": "makerAddress",
								"type": "address"
							},
							{
								"name": "takerAddress",
								"type": "address"
							},
							{
								"name": "feeRecipientAddress",
								"type": "address"
							},
							{
								"name": "senderAddress",
								"type": "address"
							},
							{
								"name": "makerAssetAmount",
								"type": "uint256"
							},
							{
								"name": "takerAssetAmount",
								"type": "uint256"
							},
							{
								"name": "makerFee",
								"type": "uint256"
							},
							{
								"name": "takerFee",
								"type": "uint256"
							},
							{
								"name": "expirationTimeSeconds",
								"type": "uint256"
							},
							{
								"name": "salt",
								"type": "uint256"
							},
							{
								"name": "makerAssetData",
								"type": "bytes"
							},
							{
								"name": "takerAssetData",
								"type": "bytes"
							}
						],
						"name": "orders",
						"type": "tuple[]"
					},
					{
						"name": "signatures",
						"type": "bytes[]"
					},
					{
						"components": [
							{
								"name": "makerAddress",
								"type": "address"
							},
							{
								"name": "takerAddress",
								"type": "address"
							},
							{
								"name": "feeRecipientAddress",
								"type": "address"
							},
							{
								"name": "senderAddress",
								"type": "address"
							},
							{
								"name": "makerAssetAmount",
								"type": "uint256"
							},
							{
								"name": "takerAssetAmount",
								"type": "uint256"
							},
							{
								"name": "makerFee",
								"type": "uint256"
							},
							{
								"name": "takerFee",
								"type": "uint256"
							},
							{
								"name": "expirationTimeSeconds",
								"type": "uint256"
							},
							{
								"name": "salt",
								"type": "uint256"
							},
							{
								"name": "makerAssetData",
								"type": "bytes"
							},
							{
								"name": "takerAssetData",
								"type": "bytes"
							}
						],
						"name": "feeOrders",
						"type": "tuple[]"
					},
					{
						"name": "feeSignatures",
						"type": "bytes[]"
					},
					{
						"name": "assetAmount",
						"type": "uint256"
					},
					{
						"name": "feeProportion",
						"type": "uint16"
					},
					{
						"name": "feeRecipient",
						"type": "address"
					}
				],
				"name": "buyExactAssets",
				"outputs": [
					{
						"components": [
							{
								"name": "makerAssetFilledAmount",
								"type": "uint256"
							},
							{
								"name": "takerAssetFilledAmount",
								"type": "uint256"
							},
							{
								"name": "makerFeePaid",
								"type": "uint256"
							},
							{
								"name": "takerFeePaid",
								"type": "uint256"
							}
						],
						"name": "totalFillResults",
						"type": "tuple"
					}
				],
				"payable": true,
				"stateMutability": "payable",
				"type": "function"
			},
			{
				"constant": true,
				"inputs": [],
				"name": "ERC721_PROXY_ID",
				"outputs": [
					{
						"name": "",
						"type": "uint8"
					}
				],
				"payable": false,
				"stateMutability": "view",
				"type": "function"
			},
			{
				"constant": true,
				"inputs": [],
				"name": "PERCENTAGE_DENOMINATOR",
				"outputs": [
					{
						"name": "",
						"type": "uint16"
					}
				],
				"payable": false,
				"stateMutability": "view",
				"type": "function"
			},
			{
				"constant": true,
				"inputs": [],
				"name": "MAX_FEE",
				"outputs": [
					{
						"name": "",
						"type": "uint16"
					}
				],
				"payable": false,
				"stateMutability": "view",
				"type": "function"
			},
			{
				"constant": true,
				"inputs": [
					{
						"components": [
							{
								"name": "makerAddress",
								"type": "address"
							},
							{
								"name": "takerAddress",
								"type": "address"
							},
							{
								"name": "feeRecipientAddress",
								"type": "address"
							},
							{
								"name": "senderAddress",
								"type": "address"
							},
							{
								"name": "makerAssetAmount",
								"type": "uint256"
							},
							{
								"name": "takerAssetAmount",
								"type": "uint256"
							},
							{
								"name": "makerFee",
								"type": "uint256"
							},
							{
								"name": "takerFee",
								"type": "uint256"
							},
							{
								"name": "expirationTimeSeconds",
								"type": "uint256"
							},
							{
								"name": "salt",
								"type": "uint256"
							},
							{
								"name": "makerAssetData",
								"type": "bytes"
							},
							{
								"name": "takerAssetData",
								"type": "bytes"
							}
						],
						"name": "orders",
						"type": "tuple[]"
					},
					{
						"name": "zrxAmount",
						"type": "uint256"
					}
				],
				"name": "calculateBuyFeesFillResults",
				"outputs": [
					{
						"components": [
							{
								"name": "makerAssetFilledAmount",
								"type": "uint256"
							},
							{
								"name": "takerAssetFilledAmount",
								"type": "uint256"
							},
							{
								"name": "makerFeePaid",
								"type": "uint256"
							},
							{
								"name": "takerFeePaid",
								"type": "uint256"
							}
						],
						"name": "totalFillResults",
						"type": "tuple"
					}
				],
				"payable": false,
				"stateMutability": "view",
				"type": "function"
			},
			{
				"constant": false,
				"inputs": [
					{
						"name": "erc20AssetProxyId",
						"type": "uint8"
					}
				],
				"name": "setERC20ProxyApproval",
				"outputs": [],
				"payable": false,
				"stateMutability": "nonpayable",
				"type": "function"
			},
			{
				"constant": true,
				"inputs": [
					{
						"name": "",
						"type": "address"
					},
					{
						"name": "",
						"type": "uint256"
					},
					{
						"name": "",
						"type": "bytes"
					}
				],
				"name": "onERC721Received",
				"outputs": [
					{
						"name": "",
						"type": "bytes4"
					}
				],
				"payable": false,
				"stateMutability": "pure",
				"type": "function"
			},
			{
				"constant": false,
				"inputs": [
					{
						"name": "newOwner",
						"type": "address"
					}
				],
				"name": "transferOwnership",
				"outputs": [],
				"payable": false,
				"stateMutability": "nonpayable",
				"type": "function"
			},
			{
				"inputs": [
					{
						"name": "_exchange",
						"type": "address"
					},
					{
						"name": "_etherToken",
						"type": "address"
					},
					{
						"name": "_zrxToken",
						"type": "address"
					},
					{
						"name": "erc20AssetProxyId",
						"type": "uint8"
					}
				],
				"payable": false,
				"stateMutability": "nonpayable",
				"type": "constructor"
			},
			{
				"payable": true,
				"stateMutability": "payable",
				"type": "fallback"
			}
		],
		"evm": {
			"bytecode": {
				"linkReferences": {},
				"object": "0x60806040523480156200001157600080fd5b5060405160808062002e6e833981018060405262000033919081019062000377565b6003805433600160a060020a031991821617909155600080548216600160a060020a0387811691909117909155600180548316868316179055600280549092169084161790556200008d8164010000000062000097810204565b50505050620004cc565b600354600090600160a060020a03163314620000ea576040517f08c379a0000000000000000000000000000000000000000000000000000000008152600401620000e1906200047d565b60405180910390fd5b6000546040517f92c1421e000000000000000000000000000000000000000000000000000000008152600160a060020a03909116906392c1421e906200013590859060040162000495565b602060405180830381600087803b1580156200015057600080fd5b505af115801562000165573d6000803e3d6000fd5b505050506040513d601f19601f820116820180604052506200018b91908101906200032d565b9050600160a060020a03811615620002ea576001546040517f095ea7b3000000000000000000000000000000000000000000000000000000008152600160a060020a039091169063095ea7b390620001ec908490600019906004016200045e565b602060405180830381600087803b1580156200020757600080fd5b505af11580156200021c573d6000803e3d6000fd5b505050506040513d601f19601f8201168201806040525062000242919081019062000356565b506002546040517f095ea7b3000000000000000000000000000000000000000000000000000000008152600160a060020a039091169063095ea7b39062000292908490600019906004016200045e565b602060405180830381600087803b158015620002ad57600080fd5b505af1158015620002c2573d6000803e3d6000fd5b505050506040513d601f19601f82011682018060405250620002e8919081019062000356565b505b5050565b6000620002fc8251620004a5565b9392505050565b6000620002fc8251620004ba565b6000620002fc8251620004bf565b6000620002fc8251620004b4565b6000602082840312156200034057600080fd5b60006200034e8484620002ee565b949350505050565b6000602082840312156200036957600080fd5b60006200034e848462000303565b600080600080608085870312156200038e57600080fd5b60006200039c878762000311565b9450506020620003af8782880162000311565b9350506040620003c28782880162000311565b9250506060620003d5878288016200031f565b91505092959194509250565b620003ec81620004a5565b82525050565b603381527f4f6e6c7920636f6e7472616374206f776e657220697320616c6c6f776564207460208201527f6f2063616c6c2074686973206d6574686f642e00000000000000000000000000604082015260600190565b620003ec81620004b1565b620003ec81620004b4565b604081016200046e8285620003e1565b620002fc602083018462000448565b602080825281016200048f81620003f2565b92915050565b602081016200048f828462000453565b600160a060020a031690565b90565b60ff1690565b151590565b60006200048f82620004a5565b61299280620004dc6000396000f3006080604052600436106100b65763ffffffff60e060020a6000350416631b67ad77811461013657806320472cf71461016c5780634a23b67b1461018e5780638a637f3d146101ae5780638da5cb5b146101c15780638ee1a642146101e35780638fbb3ea614610205578063a28fe02e14610218578063b3cd42541461022d578063bc063e1a14610242578063d3df5f2d14610257578063de5f8e4114610277578063f0b9e5ba14610299578063f2fde38b146102c6575b60015460408051606081018252602381527f44454641554c545f46554e4354494f4e5f574554485f434f4e54524143545f4f602082015260e860020a624e4c59029181019190915290600160a060020a031633146101335760405160e560020a62461bcd02815260040161012a919061273b565b60405180910390fd5b50005b34801561014257600080fd5b506101566101513660046122b7565b6102e6565b604051610163919061275c565b60405180910390f35b34801561017857600080fd5b50610181610435565b60405161016391906127e7565b34801561019a57600080fd5b506101566101a9366004612361565b61043b565b6101566101bc3660046120de565b61056f565b3480156101cd57600080fd5b506101d66106f4565b60405161016391906126aa565b3480156101ef57600080fd5b506101f8610703565b6040516101639190612803565b6101566102133660046121c0565b610708565b34801561022457600080fd5b506101f86109d6565b34801561023957600080fd5b506101816109db565b34801561024e57600080fd5b506101816109e1565b34801561026357600080fd5b506101566102723660046122b7565b6109e7565b34801561028357600080fd5b50610297610292366004612396565b610bef565b005b3480156102a557600080fd5b506102b96102b436600461207a565b610dce565b604051610163919061272d565b3480156102d257600080fd5b506102976102e136600461203e565b610de1565b6102ee611c7f565b60008060006102fb611c7f565b600093505b865184101561042b5761034c878581518110151561031a57fe5b90602001906020020151610140015188600081518110151561033857fe5b906020019060200201516101400151610e3c565b60408051808201909152601881526000805160206128f983398151915260208201529015156103915760405160e560020a62461bcd02815260040161012a919061273b565b506103a0868660000151610e84565b92506103e387858151811015156103b357fe5b9060200190602002015160a0015188868151811015156103cf57fe5b906020019060200201516080015185610e96565b915061040687858151811015156103f657fe5b906020019060200201518361043b565b90506104128582610eb3565b84518614156104205761042b565b600190930192610300565b5050505092915050565b61251c81565b610443611c7f565b61044b611ca8565b6000805460405160e060020a63c75e0a81028152600160a060020a039091169063c75e0a819061047f90889060040161276a565b606060405180830381600087803b15801561049957600080fd5b505af11580156104ad573d6000803e3d6000fd5b505050506040513d601f19601f820116820180604052506104d19190810190612343565b6000548151604080840151905160e260020a631c13b407028152939550600160a060020a039092169263704ed01c92610513928a929091908a9060040161277b565b60a060405180830381600087803b15801561052d57600080fd5b505af1158015610541573d6000803e3d6000fd5b505050506040513d601f19601f8201168201806040525061056591908101906123b4565b9695505050505050565b610577611c7f565b6040805180820190915260178152604860020a7656414c55455f475245415445525f5448414e5f5a45524f02602082015260009081903482106105d05760405160e560020a62461bcd02815260040161012a919061273b565b506105f98960008151811015156105e357fe5b9060200190602002015161016001516000610f15565b6001546040805180820190915260198152603a60020a78151052d15497d054d4d15517d5d1551217d491545552549151026020820152919350600160a060020a038085169116146106605760405160e560020a62461bcd02815260040161012a919061273b565b5061066c348686610f91565b9050600160009054906101000a9004600160a060020a0316600160a060020a031663d0e30db0826040518263ffffffff1660e060020a0281526004016000604051808303818588803b1580156106c157600080fd5b505af11580156106d5573d6000803e3d6000fd5b50505050506106e78989898985611079565b9998505050505050505050565b600354600160a060020a031681565b600181565b610710611c7f565b6000806000803411604080519081016040528060178152602001604860020a7656414c55455f475245415445525f5448414e5f5a45524f0281525090151561076e5760405160e560020a62461bcd02815260040161012a919061273b565b506107818b60008151811015156105e357fe5b6001546040805180820190915260198152603a60020a78151052d15497d054d4d15517d5d1551217d491545552549151026020820152919450600160a060020a038086169116146107e85760405160e560020a62461bcd02815260040161012a919061273b565b508a60008151811015156107f857fe5b90602001906020020151610140015160018c600081518110151561081857fe5b906020019060200201516101400151510381518110151561083557fe5b016020015160f860020a90819004810204915060ff82166001148061085d575060ff82166002145b6040805180820190915260178152604860020a76554e535550504f525445445f544f4b454e5f50524f58590260208201529015156108b15760405160e560020a62461bcd02815260040161012a919061273b565b50506001546040805160e460020a630d0e30db02815290513492600160a060020a03169163d0e30db091849160048082019260009290919082900301818588803b1580156108fe57600080fd5b505af1158015610912573d6000803e3d6000fd5b505050505060ff821660011415610937576109308b8b8b8b8b6111fe565b9350610953565b60ff821660021415610953576109508b8b8b8b8b6113df565b93505b610961818560200151610e84565b9050610971818560200151611625565b604080518082019091526016815260008051602061291983398151915260208201529015156109b65760405160e560020a62461bcd02815260040161012a919061273b565b506109c78185602001518888611642565b50505050979650505050505050565b600281565b61271081565b6103e881565b6109ef611c7f565b6000806000806109fd611c7f565b610a25886000815181101515610a0f57fe5b9060200190602002015161014001516000610f15565b6002546040805180820190915260188152604260020a77151052d15497d054d4d15517d6949617d491545552549151026020820152919650600160a060020a03808816911614610a8b5760405160e560020a62461bcd02815260040161012a919061273b565b50600093505b8751841015610be457610ac98885815181101515610aab57fe5b90602001906020020151610140015189600081518110151561033857fe5b60408051808201909152601881526000805160206128f98339815191526020820152901515610b0e5760405160e560020a62461bcd02815260040161012a919061273b565b50610b1d878760000151610e84565b9250610b848885815181101515610b3057fe5b9060200190602002015160a00151610b7e8a87815181101515610b4f57fe5b90602001906020020151608001518b88815181101515610b6b57fe5b9060200190602002015160e00151610e84565b85610e96565b9150610bac8885815181101515610b9757fe5b906020019060200201516101a9846001611719565b9050610bc081600001518260600151610e84565b8152610bcc8682610eb3565b85518711610bd957610be4565b600190930192610a91565b505050505092915050565b600354600090600160a060020a03163314610c1f5760405160e560020a62461bcd02815260040161012a9061274c565b60005460405160e160020a634960a10f028152600160a060020a03909116906392c1421e90610c52908590600401612803565b602060405180830381600087803b158015610c6c57600080fd5b505af1158015610c80573d6000803e3d6000fd5b505050506040513d601f19601f82011682018060405250610ca4919081019061205c565b9050600160a060020a03811615610dca5760015460405160e060020a63095ea7b3028152600160a060020a039091169063095ea7b390610cec908490600019906004016126e0565b602060405180830381600087803b158015610d0657600080fd5b505af1158015610d1a573d6000803e3d6000fd5b505050506040513d601f19601f82011682018060405250610d3e9190810190612307565b5060025460405160e060020a63095ea7b3028152600160a060020a039091169063095ea7b390610d76908490600019906004016126e0565b602060405180830381600087803b158015610d9057600080fd5b505af1158015610da4573d6000803e3d6000fd5b505050506040513d601f19601f82011682018060405250610dc89190810190612307565b505b5050565b60e160020a63785cf2dd025b9392505050565b600354600160a060020a03163314610e0e5760405160e560020a62461bcd02815260040161012a9061274c565b600160a060020a03811615610e395760038054600160a060020a031916600160a060020a0383161790555b50565b60006020601f8451010460018101905060005b81811015610e7b57602081028581015190850151808214945084610e71578392505b5050600101610e4f565b50505b92915050565b600082821115610e9057fe5b50900390565b6000610eab610ea58584611728565b8461174c565b949350505050565b81518151610ec19190611719565b825260208083015190820151610ed79190611719565b602083015260408083015190820151610ef09190611719565b604083015260608083015190820151610f099190611719565b60609092019190915250565b60008160140183511015606060405190810160405280602b8152602001600080516020612939833981519152815260200160a960020a6a38bab0b6103a379019181702815250901515610f7e5760405160e560020a62461bcd02815260040161012a919061273b565b50500160140151600160a060020a031690565b82600061ffff841681108015610faf5750600160a060020a03831615155b15611071576040805180820190915260188152604060020a774645455f50524f504f5254494f4e5f544f4f5f4c415247450260208201526103e861ffff861611156110105760405160e560020a62461bcd02815260040161012a919061273b565b5061102a611022838661ffff16611728565b61271061174c565b90506110368282610e84565b604051909250600160a060020a0384169082156108fc029083906000818181858888f1935050505015801561106f573d6000803e3d6000fd5b505b509392505050565b611081611c7f565b60008061108c611c7f565b611094611c7f565b61109c611c7f565b8694506110b18b6000815181101515610a0f57fe5b93506110bd8b88611763565b92506000836060015111156110f8576110db8989856060015161184b565b91506110eb858360200151610e84565b6060808401519088015294505b60005460405160e360020a630fc3b301028152600160a060020a0390911690637e1d98089061112f908e9089908f906004016126fb565b608060405180830381600087803b15801561114957600080fd5b505af115801561115d573d6000803e3d6000fd5b505050506040513d601f19601f820116820180604052506111819190810190612325565b905061118d8682610eb3565b61119b878260200151611625565b604080518082019091526016815260008051602061291983398151915260208201529015156111e05760405160e560020a62461bcd02815260040161012a919061273b565b506111f084338360000151611ac1565b505050505095945050505050565b611206611c7f565b6000611210611c7f565b611218611c7f565b611220611c7f565b6112328a6000815181101515610a0f57fe5b600254909450600160a060020a03808616911614156112a6576112568a8a8861184b565b8051604080518082019091526016815260008051602061291983398151915260208201529194508711156112a05760405160e560020a62461bcd02815260040161012a919061273b565b506113b9565b6112b08a876102e6565b91506000826060015111156112e5576112ce8888846060015161184b565b602080820151908701526060808201519087015290505b60005460405160e060020a63e5fa431b028152600160a060020a039091169063e5fa431b9061131c908d908a908e906004016126fb565b608060405180830381600087803b15801561133657600080fd5b505af115801561134a573d6000803e3d6000fd5b505050506040513d601f19601f8201168201806040525061136e9190810190612325565b80516040805180820190915260168152600080516020612919833981519152602082015291945087146113b75760405160e560020a62461bcd02815260040161012a919061273b565b505b6113c38584610eb3565b6113d284338760000151611ac1565b5050505095945050505050565b6113e7611c7f565b6000806113f2611c7f565b6000806113fd611c7f565b8b5160408051606081018252602281527f41535345545f414d4f554e545f4d5553545f4d415443485f4f524445525f5349602082015260f060020a615a4502918101919091526000918a146114685760405160e560020a62461bcd02815260040161012a919061273b565b50600095505b8c518610156114a95761149c878e8881518110151561148957fe5b9060200190602002015160e00151611719565b965060019095019461146e565b60008711156114d4576114bd8b8b8961184b565b606080820151908a0152602080820151908a015294505b6114e68d6000815181101515610a0f57fe5b9350600092505b8c51831015611615576000548d51600160a060020a03909116906364a3bc15908f908690811061151957fe5b906020019060200201518f8681518110151561153157fe5b9060200190602002015160a001518f8781518110151561154d57fe5b906020019060200201516040518463ffffffff1660e060020a028152600401611578939291906127b5565b608060405180830381600087803b15801561159257600080fd5b505af11580156115a6573d6000803e3d6000fd5b505050506040513d601f19601f820116820180604052506115ca9190810190612325565b91506115d68883610eb3565b6115fd8d848151811015156115e757fe5b9060200190602002015161014001516014611b96565b905061160a843383611ba2565b6001909201916114ed565b5050505050505095945050505050565b6000806116376110228561251c611728565b909210159392505050565b60008060008611156117105760015460405160e060020a632e1a7d4d028152600160a060020a0390911690632e1a7d4d906116819089906004016127f5565b600060405180830381600087803b15801561169b57600080fd5b505af11580156116af573d6000803e3d6000fd5b505050508591506116ca856116c5878787610f91565b610e84565b90506116d68282610e84565b9150600082111561171057604051339083156108fc029084906000818181858888f1935050505015801561170e573d6000803e3d6000fd5b505b50949350505050565b600082820183811015610dda57fe5b6000828202831580611744575082848281151561174157fe5b04145b1515610dda57fe5b600080828481151561175a57fe5b04949350505050565b61176b611c7f565b600080611776611c7f565b600092505b8551831015611842576117b3868481518110151561179557fe5b90602001906020020151610140015187600081518110151561033857fe5b60408051808201909152601881526000805160206128f983398151915260208201529015156117f85760405160e560020a62461bcd02815260040161012a919061273b565b50611807858560200151610e84565b915061181a86848151811015156103f657fe5b90506118268482610eb3565b848460200151141561183757611842565b60019092019161177b565b50505092915050565b611853611c7f565b600080600080611861611c7f565b611873896000815181101515610a0f57fe5b6002546040805180820190915260188152604260020a77151052d15497d054d4d15517d6949617d491545552549151026020820152919650600160a060020a038088169116146118d95760405160e560020a62461bcd02815260040161012a919061273b565b50600093505b8851841015611ab55761191789858151811015156118f957fe5b9060200190602002015161014001518a600081518110151561033857fe5b60408051808201909152601881526000805160206128f9833981519152602082015290151561195c5760405160e560020a62461bcd02815260040161012a919061273b565b5061196b878760000151610e84565b92506119b9898581518110151561197e57fe5b9060200190602002015160a00151610b7e8b8781518110151561199d57fe5b90602001906020020151608001518c88815181101515610b6b57fe5b6000548a51919350600160a060020a03169063b4be83d5908b90879081106119dd57fe5b906020019060200201516119f2856001611719565b8b88815181101515611a0057fe5b906020019060200201516040518463ffffffff1660e060020a028152600401611a2b939291906127b5565b608060405180830381600087803b158015611a4557600080fd5b505af1158015611a59573d6000803e3d6000fd5b505050506040513d601f19601f82011682018060405250611a7d9190810190612325565b9050611a9181600001518260600151610e84565b8152611a9d8682610eb3565b85518711611aaa57611ab5565b6001909301926118df565b50505050509392505050565b60405160e060020a63a9059cbb028152600160a060020a0384169063a9059cbb90611af290859085906004016126e0565b602060405180830381600087803b158015611b0c57600080fd5b505af1158015611b20573d6000803e3d6000fd5b505050506040513d601f19601f82011682018060405250611b449190810190612307565b60408051808201909152600f8152608a60020a6e1514905394d1915497d19052531151026020820152901515611b905760405160e560020a62461bcd02815260040161012a919061273b565b50505050565b6000610dda8383611c0c565b60405160e060020a6323b872dd028152600160a060020a038416906323b872dd90611bd5903090869086906004016126b8565b600060405180830381600087803b158015611bef57600080fd5b505af1158015611c03573d6000803e3d6000fd5b50505050505050565b60008160200183511015606060405190810160405280602b8152602001600080516020612939833981519152815260200160a960020a6a38bab0b6103a379019991702815250901515611c755760405160e560020a62461bcd02815260040161012a919061273b565b5050016020015190565b608060405190810160405280600081526020016000815260200160008152602001600081525090565b604080516060810182526000808252602082018190529181019190915290565b6000610dda8235612888565b6000610dda8251612888565b6000601f82018313611cf157600080fd5b8135611d04611cff82612837565b612811565b81815260209384019390925082018360005b8381101561042b5781358601611d2c8882611db7565b8452506020928301929190910190600101611d16565b6000601f82018313611d5357600080fd5b8135611d61611cff82612837565b81815260209384019390925082018360005b8381101561042b5781358601611d898882611ec7565b8452506020928301929190910190600101611d73565b6000610dda82516128b1565b6000610dda82516128a8565b6000601f82018313611dc857600080fd5b8135611dd6611cff82612857565b91508082526020830160208301858383011115611df257600080fd5b6118428382846128b6565b600060808284031215611e0f57600080fd5b611e196080612811565b90506000611e278484611dab565b8252506020611e3884848301611dab565b6020830152506040611e4c84828501611dab565b6040830152506060611e6084828501611dab565b60608301525092915050565b600060608284031215611e7e57600080fd5b611e886060612811565b90506000611e968484612032565b8252506020611ea784848301611dab565b6020830152506040611ebb84828501611dab565b60408301525092915050565b60006101808284031215611eda57600080fd5b611ee5610180612811565b90506000611ef38484611cc8565b8252506020611f0484848301611cc8565b6020830152506040611f1884828501611cc8565b6040830152506060611f2c84828501611cc8565b6060830152506080611f408482850161201a565b60808301525060a0611f548482850161201a565b60a08301525060c0611f688482850161201a565b60c08301525060e0611f7c8482850161201a565b60e083015250610100611f918482850161201a565b61010083015250610120611fa78482850161201a565b610120830152506101408201356001604060020a03811115611fc857600080fd5b611fd484828501611db7565b610140830152506101608201356001604060020a03811115611ff557600080fd5b61200184828501611db7565b6101608301525092915050565b6000610dda82356128a1565b6000610dda82356128a8565b6000610dda82356128ab565b6000610dda82516128ab565b60006020828403121561205057600080fd5b6000610eab8484611cc8565b60006020828403121561206e57600080fd5b6000610eab8484611cd4565b60008060006060848603121561208f57600080fd5b600061209b8686611cc8565b93505060206120ac8682870161201a565b92505060408401356001604060020a038111156120c857600080fd5b6120d486828701611db7565b9150509250925092565b60008060008060008060c087890312156120f757600080fd5b86356001604060020a0381111561210d57600080fd5b61211989828a01611d42565b96505060208701356001604060020a0381111561213557600080fd5b61214189828a01611ce0565b95505060408701356001604060020a0381111561215d57600080fd5b61216989828a01611d42565b94505060608701356001604060020a0381111561218557600080fd5b61219189828a01611ce0565b93505060806121a289828a0161200e565b92505060a06121b389828a01611cc8565b9150509295509295509295565b600080600080600080600060e0888a0312156121db57600080fd5b87356001604060020a038111156121f157600080fd5b6121fd8a828b01611d42565b97505060208801356001604060020a0381111561221957600080fd5b6122258a828b01611ce0565b96505060408801356001604060020a0381111561224157600080fd5b61224d8a828b01611d42565b95505060608801356001604060020a0381111561226957600080fd5b6122758a828b01611ce0565b94505060806122868a828b0161201a565b93505060a06122978a828b0161200e565b92505060c06122a88a828b01611cc8565b91505092959891949750929550565b600080604083850312156122ca57600080fd5b82356001604060020a038111156122e057600080fd5b6122ec85828601611d42565b92505060206122fd8582860161201a565b9150509250929050565b60006020828403121561231957600080fd5b6000610eab8484611d9f565b60006080828403121561233757600080fd5b6000610eab8484611dfd565b60006060828403121561235557600080fd5b6000610eab8484611e6c565b6000806040838503121561237457600080fd5b82356001604060020a0381111561238a57600080fd5b6122ec85828601611ec7565b6000602082840312156123a857600080fd5b6000610eab8484612026565b60008060a083850312156123c757600080fd5b60006123d38585612032565b92505060206122fd85828601611dfd565b6123ed81612888565b82525050565b60006123fe82612884565b808452602084019350836020820285016124178561287e565b60005b8481101561244e5783830388526124328383516124be565b925061243d8261287e565b60209890980197915060010161241a565b50909695505050505050565b600061246582612884565b8084526020840193508360208202850161247e8561287e565b60005b8481101561244e57838303885261249983835161258c565b92506124a48261287e565b602098909801979150600101612481565b6123ed81612894565b60006124c982612884565b8084526124dd8160208601602086016128c2565b6124e6816128ee565b9093016020019392505050565b603381527f4f6e6c7920636f6e7472616374206f776e657220697320616c6c6f77656420746020820152606960020a72379031b0b636103a3434b99036b2ba3437b21702604082015260600190565b805160808301906125538482612698565b5060208201516125666020850182612698565b5060408201516125796040850182612698565b506060820151611b906060850182612698565b80516000906101808401906125a185826123e4565b5060208301516125b460208601826123e4565b5060408301516125c760408601826123e4565b5060608301516125da60608601826123e4565b5060808301516125ed6080860182612698565b5060a083015161260060a0860182612698565b5060c083015161261360c0860182612698565b5060e083015161262660e0860182612698565b5061010083015161263b610100860182612698565b50610120830151612650610120860182612698565b5061014083015184820361014086015261266a82826124be565b91505061016083015184820361016086015261268682826124be565b95945050505050565b6123ed816128a1565b6123ed816128a8565b6123ed816128ab565b60208101610e7e82846123e4565b606081016126c682866123e4565b6126d360208301856123e4565b610eab6040830184612698565b604081016126ee82856123e4565b610dda6020830184612698565b6060808252810161270c818661245a565b905061271b6020830185612698565b818103604083015261268681846123f3565b60208101610e7e82846124b5565b60208082528101610dda81846124be565b60208082528101610e7e816124f3565b60808101610e7e8284612542565b60208082528101610dda818461258c565b6080808252810161278c818761258c565b905061279b60208301866126a1565b6127a86040830185612698565b6126866060830184612698565b606080825281016127c6818661258c565b90506127d56020830185612698565b818103604083015261268681846124be565b60208101610e7e828461268f565b60208101610e7e8284612698565b60208101610e7e82846126a1565b6040518181016001604060020a038111828210171561282f57600080fd5b604052919050565b60006001604060020a0382111561284d57600080fd5b5060209081020190565b60006001604060020a0382111561286d57600080fd5b506020601f91909101601f19160190565b60200190565b5190565b600160a060020a031690565b600160e060020a03191690565b61ffff1690565b90565b60ff1690565b151590565b82818337506000910152565b60005b838110156128dd5781810151838201526020016128c5565b83811115611b905750506000910152565b601f01601f191690560053414d455f41535345545f545950455f52455155495245440000000000000000554e41434345505441424c455f5448524553484f4c44000000000000000000004c656e677468206d7573742062652067726561746572207468616e206f722065a265627a7a723058200e9f523d51f5458015b1eaa853ad5330403d8668a3e5b85b2c2e34302e56a3376c6578706572696d656e74616cf50037",
				"opcodes": "PUSH1 0x80 PUSH1 0x40 MSTORE CALLVALUE DUP1 ISZERO PUSH3 0x11 JUMPI PUSH1 0x0 DUP1 REVERT JUMPDEST POP PUSH1 0x40 MLOAD PUSH1 0x80 DUP1 PUSH3 0x2E6E DUP4 CODECOPY DUP2 ADD DUP1 PUSH1 0x40 MSTORE PUSH3 0x33 SWAP2 SWAP1 DUP2 ADD SWAP1 PUSH3 0x377 JUMP JUMPDEST PUSH1 0x3 DUP1 SLOAD CALLER PUSH1 0x1 PUSH1 0xA0 PUSH1 0x2 EXP SUB NOT SWAP2 DUP3 AND OR SWAP1 SWAP2 SSTORE PUSH1 0x0 DUP1 SLOAD DUP3 AND PUSH1 0x1 PUSH1 0xA0 PUSH1 0x2 EXP SUB DUP8 DUP2 AND SWAP2 SWAP1 SWAP2 OR SWAP1 SWAP2 SSTORE PUSH1 0x1 DUP1 SLOAD DUP4 AND DUP7 DUP4 AND OR SWAP1 SSTORE PUSH1 0x2 DUP1 SLOAD SWAP1 SWAP3 AND SWAP1 DUP5 AND OR SWAP1 SSTORE PUSH3 0x8D DUP2 PUSH5 0x100000000 PUSH3 0x97 DUP2 MUL DIV JUMP JUMPDEST POP POP POP POP PUSH3 0x4CC JUMP JUMPDEST PUSH1 0x3 SLOAD PUSH1 0x0 SWAP1 PUSH1 0x1 PUSH1 0xA0 PUSH1 0x2 EXP SUB AND CALLER EQ PUSH3 0xEA JUMPI PUSH1 0x40 MLOAD PUSH32 0x8C379A000000000000000000000000000000000000000000000000000000000 DUP2 MSTORE PUSH1 0x4 ADD PUSH3 0xE1 SWAP1 PUSH3 0x47D JUMP JUMPDEST PUSH1 0x40 MLOAD DUP1 SWAP2 SUB SWAP1 REVERT JUMPDEST PUSH1 0x0 SLOAD PUSH1 0x40 MLOAD PUSH32 0x92C1421E00000000000000000000000000000000000000000000000000000000 DUP2 MSTORE PUSH1 0x1 PUSH1 0xA0 PUSH1 0x2 EXP SUB SWAP1 SWAP2 AND SWAP1 PUSH4 0x92C1421E SWAP1 PUSH3 0x135 SWAP1 DUP6 SWAP1 PUSH1 0x4 ADD PUSH3 0x495 JUMP JUMPDEST PUSH1 0x20 PUSH1 0x40 MLOAD DUP1 DUP4 SUB DUP2 PUSH1 0x0 DUP8 DUP1 EXTCODESIZE ISZERO DUP1 ISZERO PUSH3 0x150 JUMPI PUSH1 0x0 DUP1 REVERT JUMPDEST POP GAS CALL ISZERO DUP1 ISZERO PUSH3 0x165 JUMPI RETURNDATASIZE PUSH1 0x0 DUP1 RETURNDATACOPY RETURNDATASIZE PUSH1 0x0 REVERT JUMPDEST POP POP POP POP PUSH1 0x40 MLOAD RETURNDATASIZE PUSH1 0x1F NOT PUSH1 0x1F DUP3 ADD AND DUP3 ADD DUP1 PUSH1 0x40 MSTORE POP PUSH3 0x18B SWAP2 SWAP1 DUP2 ADD SWAP1 PUSH3 0x32D JUMP JUMPDEST SWAP1 POP PUSH1 0x1 PUSH1 0xA0 PUSH1 0x2 EXP SUB DUP2 AND ISZERO PUSH3 0x2EA JUMPI PUSH1 0x1 SLOAD PUSH1 0x40 MLOAD PUSH32 0x95EA7B300000000000000000000000000000000000000000000000000000000 DUP2 MSTORE PUSH1 0x1 PUSH1 0xA0 PUSH1 0x2 EXP SUB SWAP1 SWAP2 AND SWAP1 PUSH4 0x95EA7B3 SWAP1 PUSH3 0x1EC SWAP1 DUP5 SWAP1 PUSH1 0x0 NOT SWAP1 PUSH1 0x4 ADD PUSH3 0x45E JUMP JUMPDEST PUSH1 0x20 PUSH1 0x40 MLOAD DUP1 DUP4 SUB DUP2 PUSH1 0x0 DUP8 DUP1 EXTCODESIZE ISZERO DUP1 ISZERO PUSH3 0x207 JUMPI PUSH1 0x0 DUP1 REVERT JUMPDEST POP GAS CALL ISZERO DUP1 ISZERO PUSH3 0x21C JUMPI RETURNDATASIZE PUSH1 0x0 DUP1 RETURNDATACOPY RETURNDATASIZE PUSH1 0x0 REVERT JUMPDEST POP POP POP POP PUSH1 0x40 MLOAD RETURNDATASIZE PUSH1 0x1F NOT PUSH1 0x1F DUP3 ADD AND DUP3 ADD DUP1 PUSH1 0x40 MSTORE POP PUSH3 0x242 SWAP2 SWAP1 DUP2 ADD SWAP1 PUSH3 0x356 JUMP JUMPDEST POP PUSH1 0x2 SLOAD PUSH1 0x40 MLOAD PUSH32 0x95EA7B300000000000000000000000000000000000000000000000000000000 DUP2 MSTORE PUSH1 0x1 PUSH1 0xA0 PUSH1 0x2 EXP SUB SWAP1 SWAP2 AND SWAP1 PUSH4 0x95EA7B3 SWAP1 PUSH3 0x292 SWAP1 DUP5 SWAP1 PUSH1 0x0 NOT SWAP1 PUSH1 0x4 ADD PUSH3 0x45E JUMP JUMPDEST PUSH1 0x20 PUSH1 0x40 MLOAD DUP1 DUP4 SUB DUP2 PUSH1 0x0 DUP8 DUP1 EXTCODESIZE ISZERO DUP1 ISZERO PUSH3 0x2AD JUMPI PUSH1 0x0 DUP1 REVERT JUMPDEST POP GAS CALL ISZERO DUP1 ISZERO PUSH3 0x2C2 JUMPI RETURNDATASIZE PUSH1 0x0 DUP1 RETURNDATACOPY RETURNDATASIZE PUSH1 0x0 REVERT JUMPDEST POP POP POP POP PUSH1 0x40 MLOAD RETURNDATASIZE PUSH1 0x1F NOT PUSH1 0x1F DUP3 ADD AND DUP3 ADD DUP1 PUSH1 0x40 MSTORE POP PUSH3 0x2E8 SWAP2 SWAP1 DUP2 ADD SWAP1 PUSH3 0x356 JUMP JUMPDEST POP JUMPDEST POP POP JUMP JUMPDEST PUSH1 0x0 PUSH3 0x2FC DUP3 MLOAD PUSH3 0x4A5 JUMP JUMPDEST SWAP4 SWAP3 POP POP POP JUMP JUMPDEST PUSH1 0x0 PUSH3 0x2FC DUP3 MLOAD PUSH3 0x4BA JUMP JUMPDEST PUSH1 0x0 PUSH3 0x2FC DUP3 MLOAD PUSH3 0x4BF JUMP JUMPDEST PUSH1 0x0 PUSH3 0x2FC DUP3 MLOAD PUSH3 0x4B4 JUMP JUMPDEST PUSH1 0x0 PUSH1 0x20 DUP3 DUP5 SUB SLT ISZERO PUSH3 0x340 JUMPI PUSH1 0x0 DUP1 REVERT JUMPDEST PUSH1 0x0 PUSH3 0x34E DUP5 DUP5 PUSH3 0x2EE JUMP JUMPDEST SWAP5 SWAP4 POP POP POP POP JUMP JUMPDEST PUSH1 0x0 PUSH1 0x20 DUP3 DUP5 SUB SLT ISZERO PUSH3 0x369 JUMPI PUSH1 0x0 DUP1 REVERT JUMPDEST PUSH1 0x0 PUSH3 0x34E DUP5 DUP5 PUSH3 0x303 JUMP JUMPDEST PUSH1 0x0 DUP1 PUSH1 0x0 DUP1 PUSH1 0x80 DUP6 DUP8 SUB SLT ISZERO PUSH3 0x38E JUMPI PUSH1 0x0 DUP1 REVERT JUMPDEST PUSH1 0x0 PUSH3 0x39C DUP8 DUP8 PUSH3 0x311 JUMP JUMPDEST SWAP5 POP POP PUSH1 0x20 PUSH3 0x3AF DUP8 DUP3 DUP9 ADD PUSH3 0x311 JUMP JUMPDEST SWAP4 POP POP PUSH1 0x40 PUSH3 0x3C2 DUP8 DUP3 DUP9 ADD PUSH3 0x311 JUMP JUMPDEST SWAP3 POP POP PUSH1 0x60 PUSH3 0x3D5 DUP8 DUP3 DUP9 ADD PUSH3 0x31F JUMP JUMPDEST SWAP2 POP POP SWAP3 SWAP6 SWAP2 SWAP5 POP SWAP3 POP JUMP JUMPDEST PUSH3 0x3EC DUP2 PUSH3 0x4A5 JUMP JUMPDEST DUP3 MSTORE POP POP JUMP JUMPDEST PUSH1 0x33 DUP2 MSTORE PUSH32 0x4F6E6C7920636F6E7472616374206F776E657220697320616C6C6F7765642074 PUSH1 0x20 DUP3 ADD MSTORE PUSH32 0x6F2063616C6C2074686973206D6574686F642E00000000000000000000000000 PUSH1 0x40 DUP3 ADD MSTORE PUSH1 0x60 ADD SWAP1 JUMP JUMPDEST PUSH3 0x3EC DUP2 PUSH3 0x4B1 JUMP JUMPDEST PUSH3 0x3EC DUP2 PUSH3 0x4B4 JUMP JUMPDEST PUSH1 0x40 DUP2 ADD PUSH3 0x46E DUP3 DUP6 PUSH3 0x3E1 JUMP JUMPDEST PUSH3 0x2FC PUSH1 0x20 DUP4 ADD DUP5 PUSH3 0x448 JUMP JUMPDEST PUSH1 0x20 DUP1 DUP3 MSTORE DUP2 ADD PUSH3 0x48F DUP2 PUSH3 0x3F2 JUMP JUMPDEST SWAP3 SWAP2 POP POP JUMP JUMPDEST PUSH1 0x20 DUP2 ADD PUSH3 0x48F DUP3 DUP5 PUSH3 0x453 JUMP JUMPDEST PUSH1 0x1 PUSH1 0xA0 PUSH1 0x2 EXP SUB AND SWAP1 JUMP JUMPDEST SWAP1 JUMP JUMPDEST PUSH1 0xFF AND SWAP1 JUMP JUMPDEST ISZERO ISZERO SWAP1 JUMP JUMPDEST PUSH1 0x0 PUSH3 0x48F DUP3 PUSH3 0x4A5 JUMP JUMPDEST PUSH2 0x2992 DUP1 PUSH3 0x4DC PUSH1 0x0 CODECOPY PUSH1 0x0 RETURN STOP PUSH1 0x80 PUSH1 0x40 MSTORE PUSH1 0x4 CALLDATASIZE LT PUSH2 0xB6 JUMPI PUSH4 0xFFFFFFFF PUSH1 0xE0 PUSH1 0x2 EXP PUSH1 0x0 CALLDATALOAD DIV AND PUSH4 0x1B67AD77 DUP2 EQ PUSH2 0x136 JUMPI DUP1 PUSH4 0x20472CF7 EQ PUSH2 0x16C JUMPI DUP1 PUSH4 0x4A23B67B EQ PUSH2 0x18E JUMPI DUP1 PUSH4 0x8A637F3D EQ PUSH2 0x1AE JUMPI DUP1 PUSH4 0x8DA5CB5B EQ PUSH2 0x1C1 JUMPI DUP1 PUSH4 0x8EE1A642 EQ PUSH2 0x1E3 JUMPI DUP1 PUSH4 0x8FBB3EA6 EQ PUSH2 0x205 JUMPI DUP1 PUSH4 0xA28FE02E EQ PUSH2 0x218 JUMPI DUP1 PUSH4 0xB3CD4254 EQ PUSH2 0x22D JUMPI DUP1 PUSH4 0xBC063E1A EQ PUSH2 0x242 JUMPI DUP1 PUSH4 0xD3DF5F2D EQ PUSH2 0x257 JUMPI DUP1 PUSH4 0xDE5F8E41 EQ PUSH2 0x277 JUMPI DUP1 PUSH4 0xF0B9E5BA EQ PUSH2 0x299 JUMPI DUP1 PUSH4 0xF2FDE38B EQ PUSH2 0x2C6 JUMPI JUMPDEST PUSH1 0x1 SLOAD PUSH1 0x40 DUP1 MLOAD PUSH1 0x60 DUP2 ADD DUP3 MSTORE PUSH1 0x23 DUP2 MSTORE PUSH32 0x44454641554C545F46554E4354494F4E5F574554485F434F4E54524143545F4F PUSH1 0x20 DUP3 ADD MSTORE PUSH1 0xE8 PUSH1 0x2 EXP PUSH3 0x4E4C59 MUL SWAP2 DUP2 ADD SWAP2 SWAP1 SWAP2 MSTORE SWAP1 PUSH1 0x1 PUSH1 0xA0 PUSH1 0x2 EXP SUB AND CALLER EQ PUSH2 0x133 JUMPI PUSH1 0x40 MLOAD PUSH1 0xE5 PUSH1 0x2 EXP PUSH3 0x461BCD MUL DUP2 MSTORE PUSH1 0x4 ADD PUSH2 0x12A SWAP2 SWAP1 PUSH2 0x273B JUMP JUMPDEST PUSH1 0x40 MLOAD DUP1 SWAP2 SUB SWAP1 REVERT JUMPDEST POP STOP JUMPDEST CALLVALUE DUP1 ISZERO PUSH2 0x142 JUMPI PUSH1 0x0 DUP1 REVERT JUMPDEST POP PUSH2 0x156 PUSH2 0x151 CALLDATASIZE PUSH1 0x4 PUSH2 0x22B7 JUMP JUMPDEST PUSH2 0x2E6 JUMP JUMPDEST PUSH1 0x40 MLOAD PUSH2 0x163 SWAP2 SWAP1 PUSH2 0x275C JUMP JUMPDEST PUSH1 0x40 MLOAD DUP1 SWAP2 SUB SWAP1 RETURN JUMPDEST CALLVALUE DUP1 ISZERO PUSH2 0x178 JUMPI PUSH1 0x0 DUP1 REVERT JUMPDEST POP PUSH2 0x181 PUSH2 0x435 JUMP JUMPDEST PUSH1 0x40 MLOAD PUSH2 0x163 SWAP2 SWAP1 PUSH2 0x27E7 JUMP JUMPDEST CALLVALUE DUP1 ISZERO PUSH2 0x19A JUMPI PUSH1 0x0 DUP1 REVERT JUMPDEST POP PUSH2 0x156 PUSH2 0x1A9 CALLDATASIZE PUSH1 0x4 PUSH2 0x2361 JUMP JUMPDEST PUSH2 0x43B JUMP JUMPDEST PUSH2 0x156 PUSH2 0x1BC CALLDATASIZE PUSH1 0x4 PUSH2 0x20DE JUMP JUMPDEST PUSH2 0x56F JUMP JUMPDEST CALLVALUE DUP1 ISZERO PUSH2 0x1CD JUMPI PUSH1 0x0 DUP1 REVERT JUMPDEST POP PUSH2 0x1D6 PUSH2 0x6F4 JUMP JUMPDEST PUSH1 0x40 MLOAD PUSH2 0x163 SWAP2 SWAP1 PUSH2 0x26AA JUMP JUMPDEST CALLVALUE DUP1 ISZERO PUSH2 0x1EF JUMPI PUSH1 0x0 DUP1 REVERT JUMPDEST POP PUSH2 0x1F8 PUSH2 0x703 JUMP JUMPDEST PUSH1 0x40 MLOAD PUSH2 0x163 SWAP2 SWAP1 PUSH2 0x2803 JUMP JUMPDEST PUSH2 0x156 PUSH2 0x213 CALLDATASIZE PUSH1 0x4 PUSH2 0x21C0 JUMP JUMPDEST PUSH2 0x708 JUMP JUMPDEST CALLVALUE DUP1 ISZERO PUSH2 0x224 JUMPI PUSH1 0x0 DUP1 REVERT JUMPDEST POP PUSH2 0x1F8 PUSH2 0x9D6 JUMP JUMPDEST CALLVALUE DUP1 ISZERO PUSH2 0x239 JUMPI PUSH1 0x0 DUP1 REVERT JUMPDEST POP PUSH2 0x181 PUSH2 0x9DB JUMP JUMPDEST CALLVALUE DUP1 ISZERO PUSH2 0x24E JUMPI PUSH1 0x0 DUP1 REVERT JUMPDEST POP PUSH2 0x181 PUSH2 0x9E1 JUMP JUMPDEST CALLVALUE DUP1 ISZERO PUSH2 0x263 JUMPI PUSH1 0x0 DUP1 REVERT JUMPDEST POP PUSH2 0x156 PUSH2 0x272 CALLDATASIZE PUSH1 0x4 PUSH2 0x22B7 JUMP JUMPDEST PUSH2 0x9E7 JUMP JUMPDEST CALLVALUE DUP1 ISZERO PUSH2 0x283 JUMPI PUSH1 0x0 DUP1 REVERT JUMPDEST POP PUSH2 0x297 PUSH2 0x292 CALLDATASIZE PUSH1 0x4 PUSH2 0x2396 JUMP JUMPDEST PUSH2 0xBEF JUMP JUMPDEST STOP JUMPDEST CALLVALUE DUP1 ISZERO PUSH2 0x2A5 JUMPI PUSH1 0x0 DUP1 REVERT JUMPDEST POP PUSH2 0x2B9 PUSH2 0x2B4 CALLDATASIZE PUSH1 0x4 PUSH2 0x207A JUMP JUMPDEST PUSH2 0xDCE JUMP JUMPDEST PUSH1 0x40 MLOAD PUSH2 0x163 SWAP2 SWAP1 PUSH2 0x272D JUMP JUMPDEST CALLVALUE DUP1 ISZERO PUSH2 0x2D2 JUMPI PUSH1 0x0 DUP1 REVERT JUMPDEST POP PUSH2 0x297 PUSH2 0x2E1 CALLDATASIZE PUSH1 0x4 PUSH2 0x203E JUMP JUMPDEST PUSH2 0xDE1 JUMP JUMPDEST PUSH2 0x2EE PUSH2 0x1C7F JUMP JUMPDEST PUSH1 0x0 DUP1 PUSH1 0x0 PUSH2 0x2FB PUSH2 0x1C7F JUMP JUMPDEST PUSH1 0x0 SWAP4 POP JUMPDEST DUP7 MLOAD DUP5 LT ISZERO PUSH2 0x42B JUMPI PUSH2 0x34C DUP8 DUP6 DUP2 MLOAD DUP2 LT ISZERO ISZERO PUSH2 0x31A JUMPI INVALID JUMPDEST SWAP1 PUSH1 0x20 ADD SWAP1 PUSH1 0x20 MUL ADD MLOAD PUSH2 0x140 ADD MLOAD DUP9 PUSH1 0x0 DUP2 MLOAD DUP2 LT ISZERO ISZERO PUSH2 0x338 JUMPI INVALID JUMPDEST SWAP1 PUSH1 0x20 ADD SWAP1 PUSH1 0x20 MUL ADD MLOAD PUSH2 0x140 ADD MLOAD PUSH2 0xE3C JUMP JUMPDEST PUSH1 0x40 DUP1 MLOAD DUP1 DUP3 ADD SWAP1 SWAP2 MSTORE PUSH1 0x18 DUP2 MSTORE PUSH1 0x0 DUP1 MLOAD PUSH1 0x20 PUSH2 0x28F9 DUP4 CODECOPY DUP2 MLOAD SWAP2 MSTORE PUSH1 0x20 DUP3 ADD MSTORE SWAP1 ISZERO ISZERO PUSH2 0x391 JUMPI PUSH1 0x40 MLOAD PUSH1 0xE5 PUSH1 0x2 EXP PUSH3 0x461BCD MUL DUP2 MSTORE PUSH1 0x4 ADD PUSH2 0x12A SWAP2 SWAP1 PUSH2 0x273B JUMP JUMPDEST POP PUSH2 0x3A0 DUP7 DUP7 PUSH1 0x0 ADD MLOAD PUSH2 0xE84 JUMP JUMPDEST SWAP3 POP PUSH2 0x3E3 DUP8 DUP6 DUP2 MLOAD DUP2 LT ISZERO ISZERO PUSH2 0x3B3 JUMPI INVALID JUMPDEST SWAP1 PUSH1 0x20 ADD SWAP1 PUSH1 0x20 MUL ADD MLOAD PUSH1 0xA0 ADD MLOAD DUP9 DUP7 DUP2 MLOAD DUP2 LT ISZERO ISZERO PUSH2 0x3CF JUMPI INVALID JUMPDEST SWAP1 PUSH1 0x20 ADD SWAP1 PUSH1 0x20 MUL ADD MLOAD PUSH1 0x80 ADD MLOAD DUP6 PUSH2 0xE96 JUMP JUMPDEST SWAP2 POP PUSH2 0x406 DUP8 DUP6 DUP2 MLOAD DUP2 LT ISZERO ISZERO PUSH2 0x3F6 JUMPI INVALID JUMPDEST SWAP1 PUSH1 0x20 ADD SWAP1 PUSH1 0x20 MUL ADD MLOAD DUP4 PUSH2 0x43B JUMP JUMPDEST SWAP1 POP PUSH2 0x412 DUP6 DUP3 PUSH2 0xEB3 JUMP JUMPDEST DUP5 MLOAD DUP7 EQ ISZERO PUSH2 0x420 JUMPI PUSH2 0x42B JUMP JUMPDEST PUSH1 0x1 SWAP1 SWAP4 ADD SWAP3 PUSH2 0x300 JUMP JUMPDEST POP POP POP POP SWAP3 SWAP2 POP POP JUMP JUMPDEST PUSH2 0x251C DUP2 JUMP JUMPDEST PUSH2 0x443 PUSH2 0x1C7F JUMP JUMPDEST PUSH2 0x44B PUSH2 0x1CA8 JUMP JUMPDEST PUSH1 0x0 DUP1 SLOAD PUSH1 0x40 MLOAD PUSH1 0xE0 PUSH1 0x2 EXP PUSH4 0xC75E0A81 MUL DUP2 MSTORE PUSH1 0x1 PUSH1 0xA0 PUSH1 0x2 EXP SUB SWAP1 SWAP2 AND SWAP1 PUSH4 0xC75E0A81 SWAP1 PUSH2 0x47F SWAP1 DUP9 SWAP1 PUSH1 0x4 ADD PUSH2 0x276A JUMP JUMPDEST PUSH1 0x60 PUSH1 0x40 MLOAD DUP1 DUP4 SUB DUP2 PUSH1 0x0 DUP8 DUP1 EXTCODESIZE ISZERO DUP1 ISZERO PUSH2 0x499 JUMPI PUSH1 0x0 DUP1 REVERT JUMPDEST POP GAS CALL ISZERO DUP1 ISZERO PUSH2 0x4AD JUMPI RETURNDATASIZE PUSH1 0x0 DUP1 RETURNDATACOPY RETURNDATASIZE PUSH1 0x0 REVERT JUMPDEST POP POP POP POP PUSH1 0x40 MLOAD RETURNDATASIZE PUSH1 0x1F NOT PUSH1 0x1F DUP3 ADD AND DUP3 ADD DUP1 PUSH1 0x40 MSTORE POP PUSH2 0x4D1 SWAP2 SWAP1 DUP2 ADD SWAP1 PUSH2 0x2343 JUMP JUMPDEST PUSH1 0x0 SLOAD DUP2 MLOAD PUSH1 0x40 DUP1 DUP5 ADD MLOAD SWAP1 MLOAD PUSH1 0xE2 PUSH1 0x2 EXP PUSH4 0x1C13B407 MUL DUP2 MSTORE SWAP4 SWAP6 POP PUSH1 0x1 PUSH1 0xA0 PUSH1 0x2 EXP SUB SWAP1 SWAP3 AND SWAP3 PUSH4 0x704ED01C SWAP3 PUSH2 0x513 SWAP3 DUP11 SWAP3 SWAP1 SWAP2 SWAP1 DUP11 SWAP1 PUSH1 0x4 ADD PUSH2 0x277B JUMP JUMPDEST PUSH1 0xA0 PUSH1 0x40 MLOAD DUP1 DUP4 SUB DUP2 PUSH1 0x0 DUP8 DUP1 EXTCODESIZE ISZERO DUP1 ISZERO PUSH2 0x52D JUMPI PUSH1 0x0 DUP1 REVERT JUMPDEST POP GAS CALL ISZERO DUP1 ISZERO PUSH2 0x541 JUMPI RETURNDATASIZE PUSH1 0x0 DUP1 RETURNDATACOPY RETURNDATASIZE PUSH1 0x0 REVERT JUMPDEST POP POP POP POP PUSH1 0x40 MLOAD RETURNDATASIZE PUSH1 0x1F NOT PUSH1 0x1F DUP3 ADD AND DUP3 ADD DUP1 PUSH1 0x40 MSTORE POP PUSH2 0x565 SWAP2 SWAP1 DUP2 ADD SWAP1 PUSH2 0x23B4 JUMP JUMPDEST SWAP7 SWAP6 POP POP POP POP POP POP JUMP JUMPDEST PUSH2 0x577 PUSH2 0x1C7F JUMP JUMPDEST PUSH1 0x40 DUP1 MLOAD DUP1 DUP3 ADD SWAP1 SWAP2 MSTORE PUSH1 0x17 DUP2 MSTORE PUSH1 0x48 PUSH1 0x2 EXP PUSH23 0x56414C55455F475245415445525F5448414E5F5A45524F MUL PUSH1 0x20 DUP3 ADD MSTORE PUSH1 0x0 SWAP1 DUP2 SWAP1 CALLVALUE DUP3 LT PUSH2 0x5D0 JUMPI PUSH1 0x40 MLOAD PUSH1 0xE5 PUSH1 0x2 EXP PUSH3 0x461BCD MUL DUP2 MSTORE PUSH1 0x4 ADD PUSH2 0x12A SWAP2 SWAP1 PUSH2 0x273B JUMP JUMPDEST POP PUSH2 0x5F9 DUP10 PUSH1 0x0 DUP2 MLOAD DUP2 LT ISZERO ISZERO PUSH2 0x5E3 JUMPI INVALID JUMPDEST SWAP1 PUSH1 0x20 ADD SWAP1 PUSH1 0x20 MUL ADD MLOAD PUSH2 0x160 ADD MLOAD PUSH1 0x0 PUSH2 0xF15 JUMP JUMPDEST PUSH1 0x1 SLOAD PUSH1 0x40 DUP1 MLOAD DUP1 DUP3 ADD SWAP1 SWAP2 MSTORE PUSH1 0x19 DUP2 MSTORE PUSH1 0x3A PUSH1 0x2 EXP PUSH25 0x151052D15497D054D4D15517D5D1551217D491545552549151 MUL PUSH1 0x20 DUP3 ADD MSTORE SWAP2 SWAP4 POP PUSH1 0x1 PUSH1 0xA0 PUSH1 0x2 EXP SUB DUP1 DUP6 AND SWAP2 AND EQ PUSH2 0x660 JUMPI PUSH1 0x40 MLOAD PUSH1 0xE5 PUSH1 0x2 EXP PUSH3 0x461BCD MUL DUP2 MSTORE PUSH1 0x4 ADD PUSH2 0x12A SWAP2 SWAP1 PUSH2 0x273B JUMP JUMPDEST POP PUSH2 0x66C CALLVALUE DUP7 DUP7 PUSH2 0xF91 JUMP JUMPDEST SWAP1 POP PUSH1 0x1 PUSH1 0x0 SWAP1 SLOAD SWAP1 PUSH2 0x100 EXP SWAP1 DIV PUSH1 0x1 PUSH1 0xA0 PUSH1 0x2 EXP SUB AND PUSH1 0x1 PUSH1 0xA0 PUSH1 0x2 EXP SUB AND PUSH4 0xD0E30DB0 DUP3 PUSH1 0x40 MLOAD DUP3 PUSH4 0xFFFFFFFF AND PUSH1 0xE0 PUSH1 0x2 EXP MUL DUP2 MSTORE PUSH1 0x4 ADD PUSH1 0x0 PUSH1 0x40 MLOAD DUP1 DUP4 SUB DUP2 DUP6 DUP9 DUP1 EXTCODESIZE ISZERO DUP1 ISZERO PUSH2 0x6C1 JUMPI PUSH1 0x0 DUP1 REVERT JUMPDEST POP GAS CALL ISZERO DUP1 ISZERO PUSH2 0x6D5 JUMPI RETURNDATASIZE PUSH1 0x0 DUP1 RETURNDATACOPY RETURNDATASIZE PUSH1 0x0 REVERT JUMPDEST POP POP POP POP POP PUSH2 0x6E7 DUP10 DUP10 DUP10 DUP10 DUP6 PUSH2 0x1079 JUMP JUMPDEST SWAP10 SWAP9 POP POP POP POP POP POP POP POP POP JUMP JUMPDEST PUSH1 0x3 SLOAD PUSH1 0x1 PUSH1 0xA0 PUSH1 0x2 EXP SUB AND DUP2 JUMP JUMPDEST PUSH1 0x1 DUP2 JUMP JUMPDEST PUSH2 0x710 PUSH2 0x1C7F JUMP JUMPDEST PUSH1 0x0 DUP1 PUSH1 0x0 DUP1 CALLVALUE GT PUSH1 0x40 DUP1 MLOAD SWAP1 DUP2 ADD PUSH1 0x40 MSTORE DUP1 PUSH1 0x17 DUP2 MSTORE PUSH1 0x20 ADD PUSH1 0x48 PUSH1 0x2 EXP PUSH23 0x56414C55455F475245415445525F5448414E5F5A45524F MUL DUP2 MSTORE POP SWAP1 ISZERO ISZERO PUSH2 0x76E JUMPI PUSH1 0x40 MLOAD PUSH1 0xE5 PUSH1 0x2 EXP PUSH3 0x461BCD MUL DUP2 MSTORE PUSH1 0x4 ADD PUSH2 0x12A SWAP2 SWAP1 PUSH2 0x273B JUMP JUMPDEST POP PUSH2 0x781 DUP12 PUSH1 0x0 DUP2 MLOAD DUP2 LT ISZERO ISZERO PUSH2 0x5E3 JUMPI INVALID JUMPDEST PUSH1 0x1 SLOAD PUSH1 0x40 DUP1 MLOAD DUP1 DUP3 ADD SWAP1 SWAP2 MSTORE PUSH1 0x19 DUP2 MSTORE PUSH1 0x3A PUSH1 0x2 EXP PUSH25 0x151052D15497D054D4D15517D5D1551217D491545552549151 MUL PUSH1 0x20 DUP3 ADD MSTORE SWAP2 SWAP5 POP PUSH1 0x1 PUSH1 0xA0 PUSH1 0x2 EXP SUB DUP1 DUP7 AND SWAP2 AND EQ PUSH2 0x7E8 JUMPI PUSH1 0x40 MLOAD PUSH1 0xE5 PUSH1 0x2 EXP PUSH3 0x461BCD MUL DUP2 MSTORE PUSH1 0x4 ADD PUSH2 0x12A SWAP2 SWAP1 PUSH2 0x273B JUMP JUMPDEST POP DUP11 PUSH1 0x0 DUP2 MLOAD DUP2 LT ISZERO ISZERO PUSH2 0x7F8 JUMPI INVALID JUMPDEST SWAP1 PUSH1 0x20 ADD SWAP1 PUSH1 0x20 MUL ADD MLOAD PUSH2 0x140 ADD MLOAD PUSH1 0x1 DUP13 PUSH1 0x0 DUP2 MLOAD DUP2 LT ISZERO ISZERO PUSH2 0x818 JUMPI INVALID JUMPDEST SWAP1 PUSH1 0x20 ADD SWAP1 PUSH1 0x20 MUL ADD MLOAD PUSH2 0x140 ADD MLOAD MLOAD SUB DUP2 MLOAD DUP2 LT ISZERO ISZERO PUSH2 0x835 JUMPI INVALID JUMPDEST ADD PUSH1 0x20 ADD MLOAD PUSH1 0xF8 PUSH1 0x2 EXP SWAP1 DUP2 SWAP1 DIV DUP2 MUL DIV SWAP2 POP PUSH1 0xFF DUP3 AND PUSH1 0x1 EQ DUP1 PUSH2 0x85D JUMPI POP PUSH1 0xFF DUP3 AND PUSH1 0x2 EQ JUMPDEST PUSH1 0x40 DUP1 MLOAD DUP1 DUP3 ADD SWAP1 SWAP2 MSTORE PUSH1 0x17 DUP2 MSTORE PUSH1 0x48 PUSH1 0x2 EXP PUSH23 0x554E535550504F525445445F544F4B454E5F50524F5859 MUL PUSH1 0x20 DUP3 ADD MSTORE SWAP1 ISZERO ISZERO PUSH2 0x8B1 JUMPI PUSH1 0x40 MLOAD PUSH1 0xE5 PUSH1 0x2 EXP PUSH3 0x461BCD MUL DUP2 MSTORE PUSH1 0x4 ADD PUSH2 0x12A SWAP2 SWAP1 PUSH2 0x273B JUMP JUMPDEST POP POP PUSH1 0x1 SLOAD PUSH1 0x40 DUP1 MLOAD PUSH1 0xE4 PUSH1 0x2 EXP PUSH4 0xD0E30DB MUL DUP2 MSTORE SWAP1 MLOAD CALLVALUE SWAP3 PUSH1 0x1 PUSH1 0xA0 PUSH1 0x2 EXP SUB AND SWAP2 PUSH4 0xD0E30DB0 SWAP2 DUP5 SWAP2 PUSH1 0x4 DUP1 DUP3 ADD SWAP3 PUSH1 0x0 SWAP3 SWAP1 SWAP2 SWAP1 DUP3 SWAP1 SUB ADD DUP2 DUP6 DUP9 DUP1 EXTCODESIZE ISZERO DUP1 ISZERO PUSH2 0x8FE JUMPI PUSH1 0x0 DUP1 REVERT JUMPDEST POP GAS CALL ISZERO DUP1 ISZERO PUSH2 0x912 JUMPI RETURNDATASIZE PUSH1 0x0 DUP1 RETURNDATACOPY RETURNDATASIZE PUSH1 0x0 REVERT JUMPDEST POP POP POP POP POP PUSH1 0xFF DUP3 AND PUSH1 0x1 EQ ISZERO PUSH2 0x937 JUMPI PUSH2 0x930 DUP12 DUP12 DUP12 DUP12 DUP12 PUSH2 0x11FE JUMP JUMPDEST SWAP4 POP PUSH2 0x953 JUMP JUMPDEST PUSH1 0xFF DUP3 AND PUSH1 0x2 EQ ISZERO PUSH2 0x953 JUMPI PUSH2 0x950 DUP12 DUP12 DUP12 DUP12 DUP12 PUSH2 0x13DF JUMP JUMPDEST SWAP4 POP JUMPDEST PUSH2 0x961 DUP2 DUP6 PUSH1 0x20 ADD MLOAD PUSH2 0xE84 JUMP JUMPDEST SWAP1 POP PUSH2 0x971 DUP2 DUP6 PUSH1 0x20 ADD MLOAD PUSH2 0x1625 JUMP JUMPDEST PUSH1 0x40 DUP1 MLOAD DUP1 DUP3 ADD SWAP1 SWAP2 MSTORE PUSH1 0x16 DUP2 MSTORE PUSH1 0x0 DUP1 MLOAD PUSH1 0x20 PUSH2 0x2919 DUP4 CODECOPY DUP2 MLOAD SWAP2 MSTORE PUSH1 0x20 DUP3 ADD MSTORE SWAP1 ISZERO ISZERO PUSH2 0x9B6 JUMPI PUSH1 0x40 MLOAD PUSH1 0xE5 PUSH1 0x2 EXP PUSH3 0x461BCD MUL DUP2 MSTORE PUSH1 0x4 ADD PUSH2 0x12A SWAP2 SWAP1 PUSH2 0x273B JUMP JUMPDEST POP PUSH2 0x9C7 DUP2 DUP6 PUSH1 0x20 ADD MLOAD DUP9 DUP9 PUSH2 0x1642 JUMP JUMPDEST POP POP POP POP SWAP8 SWAP7 POP POP POP POP POP POP POP JUMP JUMPDEST PUSH1 0x2 DUP2 JUMP JUMPDEST PUSH2 0x2710 DUP2 JUMP JUMPDEST PUSH2 0x3E8 DUP2 JUMP JUMPDEST PUSH2 0x9EF PUSH2 0x1C7F JUMP JUMPDEST PUSH1 0x0 DUP1 PUSH1 0x0 DUP1 PUSH2 0x9FD PUSH2 0x1C7F JUMP JUMPDEST PUSH2 0xA25 DUP9 PUSH1 0x0 DUP2 MLOAD DUP2 LT ISZERO ISZERO PUSH2 0xA0F JUMPI INVALID JUMPDEST SWAP1 PUSH1 0x20 ADD SWAP1 PUSH1 0x20 MUL ADD MLOAD PUSH2 0x140 ADD MLOAD PUSH1 0x0 PUSH2 0xF15 JUMP JUMPDEST PUSH1 0x2 SLOAD PUSH1 0x40 DUP1 MLOAD DUP1 DUP3 ADD SWAP1 SWAP2 MSTORE PUSH1 0x18 DUP2 MSTORE PUSH1 0x42 PUSH1 0x2 EXP PUSH24 0x151052D15497D054D4D15517D6949617D491545552549151 MUL PUSH1 0x20 DUP3 ADD MSTORE SWAP2 SWAP7 POP PUSH1 0x1 PUSH1 0xA0 PUSH1 0x2 EXP SUB DUP1 DUP9 AND SWAP2 AND EQ PUSH2 0xA8B JUMPI PUSH1 0x40 MLOAD PUSH1 0xE5 PUSH1 0x2 EXP PUSH3 0x461BCD MUL DUP2 MSTORE PUSH1 0x4 ADD PUSH2 0x12A SWAP2 SWAP1 PUSH2 0x273B JUMP JUMPDEST POP PUSH1 0x0 SWAP4 POP JUMPDEST DUP8 MLOAD DUP5 LT ISZERO PUSH2 0xBE4 JUMPI PUSH2 0xAC9 DUP9 DUP6 DUP2 MLOAD DUP2 LT ISZERO ISZERO PUSH2 0xAAB JUMPI INVALID JUMPDEST SWAP1 PUSH1 0x20 ADD SWAP1 PUSH1 0x20 MUL ADD MLOAD PUSH2 0x140 ADD MLOAD DUP10 PUSH1 0x0 DUP2 MLOAD DUP2 LT ISZERO ISZERO PUSH2 0x338 JUMPI INVALID JUMPDEST PUSH1 0x40 DUP1 MLOAD DUP1 DUP3 ADD SWAP1 SWAP2 MSTORE PUSH1 0x18 DUP2 MSTORE PUSH1 0x0 DUP1 MLOAD PUSH1 0x20 PUSH2 0x28F9 DUP4 CODECOPY DUP2 MLOAD SWAP2 MSTORE PUSH1 0x20 DUP3 ADD MSTORE SWAP1 ISZERO ISZERO PUSH2 0xB0E JUMPI PUSH1 0x40 MLOAD PUSH1 0xE5 PUSH1 0x2 EXP PUSH3 0x461BCD MUL DUP2 MSTORE PUSH1 0x4 ADD PUSH2 0x12A SWAP2 SWAP1 PUSH2 0x273B JUMP JUMPDEST POP PUSH2 0xB1D DUP8 DUP8 PUSH1 0x0 ADD MLOAD PUSH2 0xE84 JUMP JUMPDEST SWAP3 POP PUSH2 0xB84 DUP9 DUP6 DUP2 MLOAD DUP2 LT ISZERO ISZERO PUSH2 0xB30 JUMPI INVALID JUMPDEST SWAP1 PUSH1 0x20 ADD SWAP1 PUSH1 0x20 MUL ADD MLOAD PUSH1 0xA0 ADD MLOAD PUSH2 0xB7E DUP11 DUP8 DUP2 MLOAD DUP2 LT ISZERO ISZERO PUSH2 0xB4F JUMPI INVALID JUMPDEST SWAP1 PUSH1 0x20 ADD SWAP1 PUSH1 0x20 MUL ADD MLOAD PUSH1 0x80 ADD MLOAD DUP12 DUP9 DUP2 MLOAD DUP2 LT ISZERO ISZERO PUSH2 0xB6B JUMPI INVALID JUMPDEST SWAP1 PUSH1 0x20 ADD SWAP1 PUSH1 0x20 MUL ADD MLOAD PUSH1 0xE0 ADD MLOAD PUSH2 0xE84 JUMP JUMPDEST DUP6 PUSH2 0xE96 JUMP JUMPDEST SWAP2 POP PUSH2 0xBAC DUP9 DUP6 DUP2 MLOAD DUP2 LT ISZERO ISZERO PUSH2 0xB97 JUMPI INVALID JUMPDEST SWAP1 PUSH1 0x20 ADD SWAP1 PUSH1 0x20 MUL ADD MLOAD PUSH2 0x1A9 DUP5 PUSH1 0x1 PUSH2 0x1719 JUMP JUMPDEST SWAP1 POP PUSH2 0xBC0 DUP2 PUSH1 0x0 ADD MLOAD DUP3 PUSH1 0x60 ADD MLOAD PUSH2 0xE84 JUMP JUMPDEST DUP2 MSTORE PUSH2 0xBCC DUP7 DUP3 PUSH2 0xEB3 JUMP JUMPDEST DUP6 MLOAD DUP8 GT PUSH2 0xBD9 JUMPI PUSH2 0xBE4 JUMP JUMPDEST PUSH1 0x1 SWAP1 SWAP4 ADD SWAP3 PUSH2 0xA91 JUMP JUMPDEST POP POP POP POP POP SWAP3 SWAP2 POP POP JUMP JUMPDEST PUSH1 0x3 SLOAD PUSH1 0x0 SWAP1 PUSH1 0x1 PUSH1 0xA0 PUSH1 0x2 EXP SUB AND CALLER EQ PUSH2 0xC1F JUMPI PUSH1 0x40 MLOAD PUSH1 0xE5 PUSH1 0x2 EXP PUSH3 0x461BCD MUL DUP2 MSTORE PUSH1 0x4 ADD PUSH2 0x12A SWAP1 PUSH2 0x274C JUMP JUMPDEST PUSH1 0x0 SLOAD PUSH1 0x40 MLOAD PUSH1 0xE1 PUSH1 0x2 EXP PUSH4 0x4960A10F MUL DUP2 MSTORE PUSH1 0x1 PUSH1 0xA0 PUSH1 0x2 EXP SUB SWAP1 SWAP2 AND SWAP1 PUSH4 0x92C1421E SWAP1 PUSH2 0xC52 SWAP1 DUP6 SWAP1 PUSH1 0x4 ADD PUSH2 0x2803 JUMP JUMPDEST PUSH1 0x20 PUSH1 0x40 MLOAD DUP1 DUP4 SUB DUP2 PUSH1 0x0 DUP8 DUP1 EXTCODESIZE ISZERO DUP1 ISZERO PUSH2 0xC6C JUMPI PUSH1 0x0 DUP1 REVERT JUMPDEST POP GAS CALL ISZERO DUP1 ISZERO PUSH2 0xC80 JUMPI RETURNDATASIZE PUSH1 0x0 DUP1 RETURNDATACOPY RETURNDATASIZE PUSH1 0x0 REVERT JUMPDEST POP POP POP POP PUSH1 0x40 MLOAD RETURNDATASIZE PUSH1 0x1F NOT PUSH1 0x1F DUP3 ADD AND DUP3 ADD DUP1 PUSH1 0x40 MSTORE POP PUSH2 0xCA4 SWAP2 SWAP1 DUP2 ADD SWAP1 PUSH2 0x205C JUMP JUMPDEST SWAP1 POP PUSH1 0x1 PUSH1 0xA0 PUSH1 0x2 EXP SUB DUP2 AND ISZERO PUSH2 0xDCA JUMPI PUSH1 0x1 SLOAD PUSH1 0x40 MLOAD PUSH1 0xE0 PUSH1 0x2 EXP PUSH4 0x95EA7B3 MUL DUP2 MSTORE PUSH1 0x1 PUSH1 0xA0 PUSH1 0x2 EXP SUB SWAP1 SWAP2 AND SWAP1 PUSH4 0x95EA7B3 SWAP1 PUSH2 0xCEC SWAP1 DUP5 SWAP1 PUSH1 0x0 NOT SWAP1 PUSH1 0x4 ADD PUSH2 0x26E0 JUMP JUMPDEST PUSH1 0x20 PUSH1 0x40 MLOAD DUP1 DUP4 SUB DUP2 PUSH1 0x0 DUP8 DUP1 EXTCODESIZE ISZERO DUP1 ISZERO PUSH2 0xD06 JUMPI PUSH1 0x0 DUP1 REVERT JUMPDEST POP GAS CALL ISZERO DUP1 ISZERO PUSH2 0xD1A JUMPI RETURNDATASIZE PUSH1 0x0 DUP1 RETURNDATACOPY RETURNDATASIZE PUSH1 0x0 REVERT JUMPDEST POP POP POP POP PUSH1 0x40 MLOAD RETURNDATASIZE PUSH1 0x1F NOT PUSH1 0x1F DUP3 ADD AND DUP3 ADD DUP1 PUSH1 0x40 MSTORE POP PUSH2 0xD3E SWAP2 SWAP1 DUP2 ADD SWAP1 PUSH2 0x2307 JUMP JUMPDEST POP PUSH1 0x2 SLOAD PUSH1 0x40 MLOAD PUSH1 0xE0 PUSH1 0x2 EXP PUSH4 0x95EA7B3 MUL DUP2 MSTORE PUSH1 0x1 PUSH1 0xA0 PUSH1 0x2 EXP SUB SWAP1 SWAP2 AND SWAP1 PUSH4 0x95EA7B3 SWAP1 PUSH2 0xD76 SWAP1 DUP5 SWAP1 PUSH1 0x0 NOT SWAP1 PUSH1 0x4 ADD PUSH2 0x26E0 JUMP JUMPDEST PUSH1 0x20 PUSH1 0x40 MLOAD DUP1 DUP4 SUB DUP2 PUSH1 0x0 DUP8 DUP1 EXTCODESIZE ISZERO DUP1 ISZERO PUSH2 0xD90 JUMPI PUSH1 0x0 DUP1 REVERT JUMPDEST POP GAS CALL ISZERO DUP1 ISZERO PUSH2 0xDA4 JUMPI RETURNDATASIZE PUSH1 0x0 DUP1 RETURNDATACOPY RETURNDATASIZE PUSH1 0x0 REVERT JUMPDEST POP POP POP POP PUSH1 0x40 MLOAD RETURNDATASIZE PUSH1 0x1F NOT PUSH1 0x1F DUP3 ADD AND DUP3 ADD DUP1 PUSH1 0x40 MSTORE POP PUSH2 0xDC8 SWAP2 SWAP1 DUP2 ADD SWAP1 PUSH2 0x2307 JUMP JUMPDEST POP JUMPDEST POP POP JUMP JUMPDEST PUSH1 0xE1 PUSH1 0x2 EXP PUSH4 0x785CF2DD MUL JUMPDEST SWAP4 SWAP3 POP POP POP JUMP JUMPDEST PUSH1 0x3 SLOAD PUSH1 0x1 PUSH1 0xA0 PUSH1 0x2 EXP SUB AND CALLER EQ PUSH2 0xE0E JUMPI PUSH1 0x40 MLOAD PUSH1 0xE5 PUSH1 0x2 EXP PUSH3 0x461BCD MUL DUP2 MSTORE PUSH1 0x4 ADD PUSH2 0x12A SWAP1 PUSH2 0x274C JUMP JUMPDEST PUSH1 0x1 PUSH1 0xA0 PUSH1 0x2 EXP SUB DUP2 AND ISZERO PUSH2 0xE39 JUMPI PUSH1 0x3 DUP1 SLOAD PUSH1 0x1 PUSH1 0xA0 PUSH1 0x2 EXP SUB NOT AND PUSH1 0x1 PUSH1 0xA0 PUSH1 0x2 EXP SUB DUP4 AND OR SWAP1 SSTORE JUMPDEST POP JUMP JUMPDEST PUSH1 0x0 PUSH1 0x20 PUSH1 0x1F DUP5 MLOAD ADD DIV PUSH1 0x1 DUP2 ADD SWAP1 POP PUSH1 0x0 JUMPDEST DUP2 DUP2 LT ISZERO PUSH2 0xE7B JUMPI PUSH1 0x20 DUP2 MUL DUP6 DUP2 ADD MLOAD SWAP1 DUP6 ADD MLOAD DUP1 DUP3 EQ SWAP5 POP DUP5 PUSH2 0xE71 JUMPI DUP4 SWAP3 POP JUMPDEST POP POP PUSH1 0x1 ADD PUSH2 0xE4F JUMP JUMPDEST POP POP JUMPDEST SWAP3 SWAP2 POP POP JUMP JUMPDEST PUSH1 0x0 DUP3 DUP3 GT ISZERO PUSH2 0xE90 JUMPI INVALID JUMPDEST POP SWAP1 SUB SWAP1 JUMP JUMPDEST PUSH1 0x0 PUSH2 0xEAB PUSH2 0xEA5 DUP6 DUP5 PUSH2 0x1728 JUMP JUMPDEST DUP5 PUSH2 0x174C JUMP JUMPDEST SWAP5 SWAP4 POP POP POP POP JUMP JUMPDEST DUP2 MLOAD DUP2 MLOAD PUSH2 0xEC1 SWAP2 SWAP1 PUSH2 0x1719 JUMP JUMPDEST DUP3 MSTORE PUSH1 0x20 DUP1 DUP4 ADD MLOAD SWAP1 DUP3 ADD MLOAD PUSH2 0xED7 SWAP2 SWAP1 PUSH2 0x1719 JUMP JUMPDEST PUSH1 0x20 DUP4 ADD MSTORE PUSH1 0x40 DUP1 DUP4 ADD MLOAD SWAP1 DUP3 ADD MLOAD PUSH2 0xEF0 SWAP2 SWAP1 PUSH2 0x1719 JUMP JUMPDEST PUSH1 0x40 DUP4 ADD MSTORE PUSH1 0x60 DUP1 DUP4 ADD MLOAD SWAP1 DUP3 ADD MLOAD PUSH2 0xF09 SWAP2 SWAP1 PUSH2 0x1719 JUMP JUMPDEST PUSH1 0x60 SWAP1 SWAP3 ADD SWAP2 SWAP1 SWAP2 MSTORE POP JUMP JUMPDEST PUSH1 0x0 DUP2 PUSH1 0x14 ADD DUP4 MLOAD LT ISZERO PUSH1 0x60 PUSH1 0x40 MLOAD SWAP1 DUP2 ADD PUSH1 0x40 MSTORE DUP1 PUSH1 0x2B DUP2 MSTORE PUSH1 0x20 ADD PUSH1 0x0 DUP1 MLOAD PUSH1 0x20 PUSH2 0x2939 DUP4 CODECOPY DUP2 MLOAD SWAP2 MSTORE DUP2 MSTORE PUSH1 0x20 ADD PUSH1 0xA9 PUSH1 0x2 EXP PUSH11 0x38BAB0B6103A3790191817 MUL DUP2 MSTORE POP SWAP1 ISZERO ISZERO PUSH2 0xF7E JUMPI PUSH1 0x40 MLOAD PUSH1 0xE5 PUSH1 0x2 EXP PUSH3 0x461BCD MUL DUP2 MSTORE PUSH1 0x4 ADD PUSH2 0x12A SWAP2 SWAP1 PUSH2 0x273B JUMP JUMPDEST POP POP ADD PUSH1 0x14 ADD MLOAD PUSH1 0x1 PUSH1 0xA0 PUSH1 0x2 EXP SUB AND SWAP1 JUMP JUMPDEST DUP3 PUSH1 0x0 PUSH2 0xFFFF DUP5 AND DUP2 LT DUP1 ISZERO PUSH2 0xFAF JUMPI POP PUSH1 0x1 PUSH1 0xA0 PUSH1 0x2 EXP SUB DUP4 AND ISZERO ISZERO JUMPDEST ISZERO PUSH2 0x1071 JUMPI PUSH1 0x40 DUP1 MLOAD DUP1 DUP3 ADD SWAP1 SWAP2 MSTORE PUSH1 0x18 DUP2 MSTORE PUSH1 0x40 PUSH1 0x2 EXP PUSH24 0x4645455F50524F504F5254494F4E5F544F4F5F4C41524745 MUL PUSH1 0x20 DUP3 ADD MSTORE PUSH2 0x3E8 PUSH2 0xFFFF DUP7 AND GT ISZERO PUSH2 0x1010 JUMPI PUSH1 0x40 MLOAD PUSH1 0xE5 PUSH1 0x2 EXP PUSH3 0x461BCD MUL DUP2 MSTORE PUSH1 0x4 ADD PUSH2 0x12A SWAP2 SWAP1 PUSH2 0x273B JUMP JUMPDEST POP PUSH2 0x102A PUSH2 0x1022 DUP4 DUP7 PUSH2 0xFFFF AND PUSH2 0x1728 JUMP JUMPDEST PUSH2 0x2710 PUSH2 0x174C JUMP JUMPDEST SWAP1 POP PUSH2 0x1036 DUP3 DUP3 PUSH2 0xE84 JUMP JUMPDEST PUSH1 0x40 MLOAD SWAP1 SWAP3 POP PUSH1 0x1 PUSH1 0xA0 PUSH1 0x2 EXP SUB DUP5 AND SWAP1 DUP3 ISZERO PUSH2 0x8FC MUL SWAP1 DUP4 SWAP1 PUSH1 0x0 DUP2 DUP2 DUP2 DUP6 DUP9 DUP9 CALL SWAP4 POP POP POP POP ISZERO DUP1 ISZERO PUSH2 0x106F JUMPI RETURNDATASIZE PUSH1 0x0 DUP1 RETURNDATACOPY RETURNDATASIZE PUSH1 0x0 REVERT JUMPDEST POP JUMPDEST POP SWAP4 SWAP3 POP POP POP JUMP JUMPDEST PUSH2 0x1081 PUSH2 0x1C7F JUMP JUMPDEST PUSH1 0x0 DUP1 PUSH2 0x108C PUSH2 0x1C7F JUMP JUMPDEST PUSH2 0x1094 PUSH2 0x1C7F JUMP JUMPDEST PUSH2 0x109C PUSH2 0x1C7F JUMP JUMPDEST DUP7 SWAP5 POP PUSH2 0x10B1 DUP12 PUSH1 0x0 DUP2 MLOAD DUP2 LT ISZERO ISZERO PUSH2 0xA0F JUMPI INVALID JUMPDEST SWAP4 POP PUSH2 0x10BD DUP12 DUP9 PUSH2 0x1763 JUMP JUMPDEST SWAP3 POP PUSH1 0x0 DUP4 PUSH1 0x60 ADD MLOAD GT ISZERO PUSH2 0x10F8 JUMPI PUSH2 0x10DB DUP10 DUP10 DUP6 PUSH1 0x60 ADD MLOAD PUSH2 0x184B JUMP JUMPDEST SWAP2 POP PUSH2 0x10EB DUP6 DUP4 PUSH1 0x20 ADD MLOAD PUSH2 0xE84 JUMP JUMPDEST PUSH1 0x60 DUP1 DUP5 ADD MLOAD SWAP1 DUP9 ADD MSTORE SWAP5 POP JUMPDEST PUSH1 0x0 SLOAD PUSH1 0x40 MLOAD PUSH1 0xE3 PUSH1 0x2 EXP PUSH4 0xFC3B301 MUL DUP2 MSTORE PUSH1 0x1 PUSH1 0xA0 PUSH1 0x2 EXP SUB SWAP1 SWAP2 AND SWAP1 PUSH4 0x7E1D9808 SWAP1 PUSH2 0x112F SWAP1 DUP15 SWAP1 DUP10 SWAP1 DUP16 SWAP1 PUSH1 0x4 ADD PUSH2 0x26FB JUMP JUMPDEST PUSH1 0x80 PUSH1 0x40 MLOAD DUP1 DUP4 SUB DUP2 PUSH1 0x0 DUP8 DUP1 EXTCODESIZE ISZERO DUP1 ISZERO PUSH2 0x1149 JUMPI PUSH1 0x0 DUP1 REVERT JUMPDEST POP GAS CALL ISZERO DUP1 ISZERO PUSH2 0x115D JUMPI RETURNDATASIZE PUSH1 0x0 DUP1 RETURNDATACOPY RETURNDATASIZE PUSH1 0x0 REVERT JUMPDEST POP POP POP POP PUSH1 0x40 MLOAD RETURNDATASIZE PUSH1 0x1F NOT PUSH1 0x1F DUP3 ADD AND DUP3 ADD DUP1 PUSH1 0x40 MSTORE POP PUSH2 0x1181 SWAP2 SWAP1 DUP2 ADD SWAP1 PUSH2 0x2325 JUMP JUMPDEST SWAP1 POP PUSH2 0x118D DUP7 DUP3 PUSH2 0xEB3 JUMP JUMPDEST PUSH2 0x119B DUP8 DUP3 PUSH1 0x20 ADD MLOAD PUSH2 0x1625 JUMP JUMPDEST PUSH1 0x40 DUP1 MLOAD DUP1 DUP3 ADD SWAP1 SWAP2 MSTORE PUSH1 0x16 DUP2 MSTORE PUSH1 0x0 DUP1 MLOAD PUSH1 0x20 PUSH2 0x2919 DUP4 CODECOPY DUP2 MLOAD SWAP2 MSTORE PUSH1 0x20 DUP3 ADD MSTORE SWAP1 ISZERO ISZERO PUSH2 0x11E0 JUMPI PUSH1 0x40 MLOAD PUSH1 0xE5 PUSH1 0x2 EXP PUSH3 0x461BCD MUL DUP2 MSTORE PUSH1 0x4 ADD PUSH2 0x12A SWAP2 SWAP1 PUSH2 0x273B JUMP JUMPDEST POP PUSH2 0x11F0 DUP5 CALLER DUP4 PUSH1 0x0 ADD MLOAD PUSH2 0x1AC1 JUMP JUMPDEST POP POP POP POP POP SWAP6 SWAP5 POP POP POP POP POP JUMP JUMPDEST PUSH2 0x1206 PUSH2 0x1C7F JUMP JUMPDEST PUSH1 0x0 PUSH2 0x1210 PUSH2 0x1C7F JUMP JUMPDEST PUSH2 0x1218 PUSH2 0x1C7F JUMP JUMPDEST PUSH2 0x1220 PUSH2 0x1C7F JUMP JUMPDEST PUSH2 0x1232 DUP11 PUSH1 0x0 DUP2 MLOAD DUP2 LT ISZERO ISZERO PUSH2 0xA0F JUMPI INVALID JUMPDEST PUSH1 0x2 SLOAD SWAP1 SWAP5 POP PUSH1 0x1 PUSH1 0xA0 PUSH1 0x2 EXP SUB DUP1 DUP7 AND SWAP2 AND EQ ISZERO PUSH2 0x12A6 JUMPI PUSH2 0x1256 DUP11 DUP11 DUP9 PUSH2 0x184B JUMP JUMPDEST DUP1 MLOAD PUSH1 0x40 DUP1 MLOAD DUP1 DUP3 ADD SWAP1 SWAP2 MSTORE PUSH1 0x16 DUP2 MSTORE PUSH1 0x0 DUP1 MLOAD PUSH1 0x20 PUSH2 0x2919 DUP4 CODECOPY DUP2 MLOAD SWAP2 MSTORE PUSH1 0x20 DUP3 ADD MSTORE SWAP2 SWAP5 POP DUP8 GT ISZERO PUSH2 0x12A0 JUMPI PUSH1 0x40 MLOAD PUSH1 0xE5 PUSH1 0x2 EXP PUSH3 0x461BCD MUL DUP2 MSTORE PUSH1 0x4 ADD PUSH2 0x12A SWAP2 SWAP1 PUSH2 0x273B JUMP JUMPDEST POP PUSH2 0x13B9 JUMP JUMPDEST PUSH2 0x12B0 DUP11 DUP8 PUSH2 0x2E6 JUMP JUMPDEST SWAP2 POP PUSH1 0x0 DUP3 PUSH1 0x60 ADD MLOAD GT ISZERO PUSH2 0x12E5 JUMPI PUSH2 0x12CE DUP9 DUP9 DUP5 PUSH1 0x60 ADD MLOAD PUSH2 0x184B JUMP JUMPDEST PUSH1 0x20 DUP1 DUP3 ADD MLOAD SWAP1 DUP8 ADD MSTORE PUSH1 0x60 DUP1 DUP3 ADD MLOAD SWAP1 DUP8 ADD MSTORE SWAP1 POP JUMPDEST PUSH1 0x0 SLOAD PUSH1 0x40 MLOAD PUSH1 0xE0 PUSH1 0x2 EXP PUSH4 0xE5FA431B MUL DUP2 MSTORE PUSH1 0x1 PUSH1 0xA0 PUSH1 0x2 EXP SUB SWAP1 SWAP2 AND SWAP1 PUSH4 0xE5FA431B SWAP1 PUSH2 0x131C SWAP1 DUP14 SWAP1 DUP11 SWAP1 DUP15 SWAP1 PUSH1 0x4 ADD PUSH2 0x26FB JUMP JUMPDEST PUSH1 0x80 PUSH1 0x40 MLOAD DUP1 DUP4 SUB DUP2 PUSH1 0x0 DUP8 DUP1 EXTCODESIZE ISZERO DUP1 ISZERO PUSH2 0x1336 JUMPI PUSH1 0x0 DUP1 REVERT JUMPDEST POP GAS CALL ISZERO DUP1 ISZERO PUSH2 0x134A JUMPI RETURNDATASIZE PUSH1 0x0 DUP1 RETURNDATACOPY RETURNDATASIZE PUSH1 0x0 REVERT JUMPDEST POP POP POP POP PUSH1 0x40 MLOAD RETURNDATASIZE PUSH1 0x1F NOT PUSH1 0x1F DUP3 ADD AND DUP3 ADD DUP1 PUSH1 0x40 MSTORE POP PUSH2 0x136E SWAP2 SWAP1 DUP2 ADD SWAP1 PUSH2 0x2325 JUMP JUMPDEST DUP1 MLOAD PUSH1 0x40 DUP1 MLOAD DUP1 DUP3 ADD SWAP1 SWAP2 MSTORE PUSH1 0x16 DUP2 MSTORE PUSH1 0x0 DUP1 MLOAD PUSH1 0x20 PUSH2 0x2919 DUP4 CODECOPY DUP2 MLOAD SWAP2 MSTORE PUSH1 0x20 DUP3 ADD MSTORE SWAP2 SWAP5 POP DUP8 EQ PUSH2 0x13B7 JUMPI PUSH1 0x40 MLOAD PUSH1 0xE5 PUSH1 0x2 EXP PUSH3 0x461BCD MUL DUP2 MSTORE PUSH1 0x4 ADD PUSH2 0x12A SWAP2 SWAP1 PUSH2 0x273B JUMP JUMPDEST POP JUMPDEST PUSH2 0x13C3 DUP6 DUP5 PUSH2 0xEB3 JUMP JUMPDEST PUSH2 0x13D2 DUP5 CALLER DUP8 PUSH1 0x0 ADD MLOAD PUSH2 0x1AC1 JUMP JUMPDEST POP POP POP POP SWAP6 SWAP5 POP POP POP POP POP JUMP JUMPDEST PUSH2 0x13E7 PUSH2 0x1C7F JUMP JUMPDEST PUSH1 0x0 DUP1 PUSH2 0x13F2 PUSH2 0x1C7F JUMP JUMPDEST PUSH1 0x0 DUP1 PUSH2 0x13FD PUSH2 0x1C7F JUMP JUMPDEST DUP12 MLOAD PUSH1 0x40 DUP1 MLOAD PUSH1 0x60 DUP2 ADD DUP3 MSTORE PUSH1 0x22 DUP2 MSTORE PUSH32 0x41535345545F414D4F554E545F4D5553545F4D415443485F4F524445525F5349 PUSH1 0x20 DUP3 ADD MSTORE PUSH1 0xF0 PUSH1 0x2 EXP PUSH2 0x5A45 MUL SWAP2 DUP2 ADD SWAP2 SWAP1 SWAP2 MSTORE PUSH1 0x0 SWAP2 DUP11 EQ PUSH2 0x1468 JUMPI PUSH1 0x40 MLOAD PUSH1 0xE5 PUSH1 0x2 EXP PUSH3 0x461BCD MUL DUP2 MSTORE PUSH1 0x4 ADD PUSH2 0x12A SWAP2 SWAP1 PUSH2 0x273B JUMP JUMPDEST POP PUSH1 0x0 SWAP6 POP JUMPDEST DUP13 MLOAD DUP7 LT ISZERO PUSH2 0x14A9 JUMPI PUSH2 0x149C DUP8 DUP15 DUP9 DUP2 MLOAD DUP2 LT ISZERO ISZERO PUSH2 0x1489 JUMPI INVALID JUMPDEST SWAP1 PUSH1 0x20 ADD SWAP1 PUSH1 0x20 MUL ADD MLOAD PUSH1 0xE0 ADD MLOAD PUSH2 0x1719 JUMP JUMPDEST SWAP7 POP PUSH1 0x1 SWAP1 SWAP6 ADD SWAP5 PUSH2 0x146E JUMP JUMPDEST PUSH1 0x0 DUP8 GT ISZERO PUSH2 0x14D4 JUMPI PUSH2 0x14BD DUP12 DUP12 DUP10 PUSH2 0x184B JUMP JUMPDEST PUSH1 0x60 DUP1 DUP3 ADD MLOAD SWAP1 DUP11 ADD MSTORE PUSH1 0x20 DUP1 DUP3 ADD MLOAD SWAP1 DUP11 ADD MSTORE SWAP5 POP JUMPDEST PUSH2 0x14E6 DUP14 PUSH1 0x0 DUP2 MLOAD DUP2 LT ISZERO ISZERO PUSH2 0xA0F JUMPI INVALID JUMPDEST SWAP4 POP PUSH1 0x0 SWAP3 POP JUMPDEST DUP13 MLOAD DUP4 LT ISZERO PUSH2 0x1615 JUMPI PUSH1 0x0 SLOAD DUP14 MLOAD PUSH1 0x1 PUSH1 0xA0 PUSH1 0x2 EXP SUB SWAP1 SWAP2 AND SWAP1 PUSH4 0x64A3BC15 SWAP1 DUP16 SWAP1 DUP7 SWAP1 DUP2 LT PUSH2 0x1519 JUMPI INVALID JUMPDEST SWAP1 PUSH1 0x20 ADD SWAP1 PUSH1 0x20 MUL ADD MLOAD DUP16 DUP7 DUP2 MLOAD DUP2 LT ISZERO ISZERO PUSH2 0x1531 JUMPI INVALID JUMPDEST SWAP1 PUSH1 0x20 ADD SWAP1 PUSH1 0x20 MUL ADD MLOAD PUSH1 0xA0 ADD MLOAD DUP16 DUP8 DUP2 MLOAD DUP2 LT ISZERO ISZERO PUSH2 0x154D JUMPI INVALID JUMPDEST SWAP1 PUSH1 0x20 ADD SWAP1 PUSH1 0x20 MUL ADD MLOAD PUSH1 0x40 MLOAD DUP5 PUSH4 0xFFFFFFFF AND PUSH1 0xE0 PUSH1 0x2 EXP MUL DUP2 MSTORE PUSH1 0x4 ADD PUSH2 0x1578 SWAP4 SWAP3 SWAP2 SWAP1 PUSH2 0x27B5 JUMP JUMPDEST PUSH1 0x80 PUSH1 0x40 MLOAD DUP1 DUP4 SUB DUP2 PUSH1 0x0 DUP8 DUP1 EXTCODESIZE ISZERO DUP1 ISZERO PUSH2 0x1592 JUMPI PUSH1 0x0 DUP1 REVERT JUMPDEST POP GAS CALL ISZERO DUP1 ISZERO PUSH2 0x15A6 JUMPI RETURNDATASIZE PUSH1 0x0 DUP1 RETURNDATACOPY RETURNDATASIZE PUSH1 0x0 REVERT JUMPDEST POP POP POP POP PUSH1 0x40 MLOAD RETURNDATASIZE PUSH1 0x1F NOT PUSH1 0x1F DUP3 ADD AND DUP3 ADD DUP1 PUSH1 0x40 MSTORE POP PUSH2 0x15CA SWAP2 SWAP1 DUP2 ADD SWAP1 PUSH2 0x2325 JUMP JUMPDEST SWAP2 POP PUSH2 0x15D6 DUP9 DUP4 PUSH2 0xEB3 JUMP JUMPDEST PUSH2 0x15FD DUP14 DUP5 DUP2 MLOAD DUP2 LT ISZERO ISZERO PUSH2 0x15E7 JUMPI INVALID JUMPDEST SWAP1 PUSH1 0x20 ADD SWAP1 PUSH1 0x20 MUL ADD MLOAD PUSH2 0x140 ADD MLOAD PUSH1 0x14 PUSH2 0x1B96 JUMP JUMPDEST SWAP1 POP PUSH2 0x160A DUP5 CALLER DUP4 PUSH2 0x1BA2 JUMP JUMPDEST PUSH1 0x1 SWAP1 SWAP3 ADD SWAP2 PUSH2 0x14ED JUMP JUMPDEST POP POP POP POP POP POP POP SWAP6 SWAP5 POP POP POP POP POP JUMP JUMPDEST PUSH1 0x0 DUP1 PUSH2 0x1637 PUSH2 0x1022 DUP6 PUSH2 0x251C PUSH2 0x1728 JUMP JUMPDEST SWAP1 SWAP3 LT ISZERO SWAP4 SWAP3 POP POP POP JUMP JUMPDEST PUSH1 0x0 DUP1 PUSH1 0x0 DUP7 GT ISZERO PUSH2 0x1710 JUMPI PUSH1 0x1 SLOAD PUSH1 0x40 MLOAD PUSH1 0xE0 PUSH1 0x2 EXP PUSH4 0x2E1A7D4D MUL DUP2 MSTORE PUSH1 0x1 PUSH1 0xA0 PUSH1 0x2 EXP SUB SWAP1 SWAP2 AND SWAP1 PUSH4 0x2E1A7D4D SWAP1 PUSH2 0x1681 SWAP1 DUP10 SWAP1 PUSH1 0x4 ADD PUSH2 0x27F5 JUMP JUMPDEST PUSH1 0x0 PUSH1 0x40 MLOAD DUP1 DUP4 SUB DUP2 PUSH1 0x0 DUP8 DUP1 EXTCODESIZE ISZERO DUP1 ISZERO PUSH2 0x169B JUMPI PUSH1 0x0 DUP1 REVERT JUMPDEST POP GAS CALL ISZERO DUP1 ISZERO PUSH2 0x16AF JUMPI RETURNDATASIZE PUSH1 0x0 DUP1 RETURNDATACOPY RETURNDATASIZE PUSH1 0x0 REVERT JUMPDEST POP POP POP POP DUP6 SWAP2 POP PUSH2 0x16CA DUP6 PUSH2 0x16C5 DUP8 DUP8 DUP8 PUSH2 0xF91 JUMP JUMPDEST PUSH2 0xE84 JUMP JUMPDEST SWAP1 POP PUSH2 0x16D6 DUP3 DUP3 PUSH2 0xE84 JUMP JUMPDEST SWAP2 POP PUSH1 0x0 DUP3 GT ISZERO PUSH2 0x1710 JUMPI PUSH1 0x40 MLOAD CALLER SWAP1 DUP4 ISZERO PUSH2 0x8FC MUL SWAP1 DUP5 SWAP1 PUSH1 0x0 DUP2 DUP2 DUP2 DUP6 DUP9 DUP9 CALL SWAP4 POP POP POP POP ISZERO DUP1 ISZERO PUSH2 0x170E JUMPI RETURNDATASIZE PUSH1 0x0 DUP1 RETURNDATACOPY RETURNDATASIZE PUSH1 0x0 REVERT JUMPDEST POP JUMPDEST POP SWAP5 SWAP4 POP POP POP POP JUMP JUMPDEST PUSH1 0x0 DUP3 DUP3 ADD DUP4 DUP2 LT ISZERO PUSH2 0xDDA JUMPI INVALID JUMPDEST PUSH1 0x0 DUP3 DUP3 MUL DUP4 ISZERO DUP1 PUSH2 0x1744 JUMPI POP DUP3 DUP5 DUP3 DUP2 ISZERO ISZERO PUSH2 0x1741 JUMPI INVALID JUMPDEST DIV EQ JUMPDEST ISZERO ISZERO PUSH2 0xDDA JUMPI INVALID JUMPDEST PUSH1 0x0 DUP1 DUP3 DUP5 DUP2 ISZERO ISZERO PUSH2 0x175A JUMPI INVALID JUMPDEST DIV SWAP5 SWAP4 POP POP POP POP JUMP JUMPDEST PUSH2 0x176B PUSH2 0x1C7F JUMP JUMPDEST PUSH1 0x0 DUP1 PUSH2 0x1776 PUSH2 0x1C7F JUMP JUMPDEST PUSH1 0x0 SWAP3 POP JUMPDEST DUP6 MLOAD DUP4 LT ISZERO PUSH2 0x1842 JUMPI PUSH2 0x17B3 DUP7 DUP5 DUP2 MLOAD DUP2 LT ISZERO ISZERO PUSH2 0x1795 JUMPI INVALID JUMPDEST SWAP1 PUSH1 0x20 ADD SWAP1 PUSH1 0x20 MUL ADD MLOAD PUSH2 0x140 ADD MLOAD DUP8 PUSH1 0x0 DUP2 MLOAD DUP2 LT ISZERO ISZERO PUSH2 0x338 JUMPI INVALID JUMPDEST PUSH1 0x40 DUP1 MLOAD DUP1 DUP3 ADD SWAP1 SWAP2 MSTORE PUSH1 0x18 DUP2 MSTORE PUSH1 0x0 DUP1 MLOAD PUSH1 0x20 PUSH2 0x28F9 DUP4 CODECOPY DUP2 MLOAD SWAP2 MSTORE PUSH1 0x20 DUP3 ADD MSTORE SWAP1 ISZERO ISZERO PUSH2 0x17F8 JUMPI PUSH1 0x40 MLOAD PUSH1 0xE5 PUSH1 0x2 EXP PUSH3 0x461BCD MUL DUP2 MSTORE PUSH1 0x4 ADD PUSH2 0x12A SWAP2 SWAP1 PUSH2 0x273B JUMP JUMPDEST POP PUSH2 0x1807 DUP6 DUP6 PUSH1 0x20 ADD MLOAD PUSH2 0xE84 JUMP JUMPDEST SWAP2 POP PUSH2 0x181A DUP7 DUP5 DUP2 MLOAD DUP2 LT ISZERO ISZERO PUSH2 0x3F6 JUMPI INVALID JUMPDEST SWAP1 POP PUSH2 0x1826 DUP5 DUP3 PUSH2 0xEB3 JUMP JUMPDEST DUP5 DUP5 PUSH1 0x20 ADD MLOAD EQ ISZERO PUSH2 0x1837 JUMPI PUSH2 0x1842 JUMP JUMPDEST PUSH1 0x1 SWAP1 SWAP3 ADD SWAP2 PUSH2 0x177B JUMP JUMPDEST POP POP POP SWAP3 SWAP2 POP POP JUMP JUMPDEST PUSH2 0x1853 PUSH2 0x1C7F JUMP JUMPDEST PUSH1 0x0 DUP1 PUSH1 0x0 DUP1 PUSH2 0x1861 PUSH2 0x1C7F JUMP JUMPDEST PUSH2 0x1873 DUP10 PUSH1 0x0 DUP2 MLOAD DUP2 LT ISZERO ISZERO PUSH2 0xA0F JUMPI INVALID JUMPDEST PUSH1 0x2 SLOAD PUSH1 0x40 DUP1 MLOAD DUP1 DUP3 ADD SWAP1 SWAP2 MSTORE PUSH1 0x18 DUP2 MSTORE PUSH1 0x42 PUSH1 0x2 EXP PUSH24 0x151052D15497D054D4D15517D6949617D491545552549151 MUL PUSH1 0x20 DUP3 ADD MSTORE SWAP2 SWAP7 POP PUSH1 0x1 PUSH1 0xA0 PUSH1 0x2 EXP SUB DUP1 DUP9 AND SWAP2 AND EQ PUSH2 0x18D9 JUMPI PUSH1 0x40 MLOAD PUSH1 0xE5 PUSH1 0x2 EXP PUSH3 0x461BCD MUL DUP2 MSTORE PUSH1 0x4 ADD PUSH2 0x12A SWAP2 SWAP1 PUSH2 0x273B JUMP JUMPDEST POP PUSH1 0x0 SWAP4 POP JUMPDEST DUP9 MLOAD DUP5 LT ISZERO PUSH2 0x1AB5 JUMPI PUSH2 0x1917 DUP10 DUP6 DUP2 MLOAD DUP2 LT ISZERO ISZERO PUSH2 0x18F9 JUMPI INVALID JUMPDEST SWAP1 PUSH1 0x20 ADD SWAP1 PUSH1 0x20 MUL ADD MLOAD PUSH2 0x140 ADD MLOAD DUP11 PUSH1 0x0 DUP2 MLOAD DUP2 LT ISZERO ISZERO PUSH2 0x338 JUMPI INVALID JUMPDEST PUSH1 0x40 DUP1 MLOAD DUP1 DUP3 ADD SWAP1 SWAP2 MSTORE PUSH1 0x18 DUP2 MSTORE PUSH1 0x0 DUP1 MLOAD PUSH1 0x20 PUSH2 0x28F9 DUP4 CODECOPY DUP2 MLOAD SWAP2 MSTORE PUSH1 0x20 DUP3 ADD MSTORE SWAP1 ISZERO ISZERO PUSH2 0x195C JUMPI PUSH1 0x40 MLOAD PUSH1 0xE5 PUSH1 0x2 EXP PUSH3 0x461BCD MUL DUP2 MSTORE PUSH1 0x4 ADD PUSH2 0x12A SWAP2 SWAP1 PUSH2 0x273B JUMP JUMPDEST POP PUSH2 0x196B DUP8 DUP8 PUSH1 0x0 ADD MLOAD PUSH2 0xE84 JUMP JUMPDEST SWAP3 POP PUSH2 0x19B9 DUP10 DUP6 DUP2 MLOAD DUP2 LT ISZERO ISZERO PUSH2 0x197E JUMPI INVALID JUMPDEST SWAP1 PUSH1 0x20 ADD SWAP1 PUSH1 0x20 MUL ADD MLOAD PUSH1 0xA0 ADD MLOAD PUSH2 0xB7E DUP12 DUP8 DUP2 MLOAD DUP2 LT ISZERO ISZERO PUSH2 0x199D JUMPI INVALID JUMPDEST SWAP1 PUSH1 0x20 ADD SWAP1 PUSH1 0x20 MUL ADD MLOAD PUSH1 0x80 ADD MLOAD DUP13 DUP9 DUP2 MLOAD DUP2 LT ISZERO ISZERO PUSH2 0xB6B JUMPI INVALID JUMPDEST PUSH1 0x0 SLOAD DUP11 MLOAD SWAP2 SWAP4 POP PUSH1 0x1 PUSH1 0xA0 PUSH1 0x2 EXP SUB AND SWAP1 PUSH4 0xB4BE83D5 SWAP1 DUP12 SWAP1 DUP8 SWAP1 DUP2 LT PUSH2 0x19DD JUMPI INVALID JUMPDEST SWAP1 PUSH1 0x20 ADD SWAP1 PUSH1 0x20 MUL ADD MLOAD PUSH2 0x19F2 DUP6 PUSH1 0x1 PUSH2 0x1719 JUMP JUMPDEST DUP12 DUP9 DUP2 MLOAD DUP2 LT ISZERO ISZERO PUSH2 0x1A00 JUMPI INVALID JUMPDEST SWAP1 PUSH1 0x20 ADD SWAP1 PUSH1 0x20 MUL ADD MLOAD PUSH1 0x40 MLOAD DUP5 PUSH4 0xFFFFFFFF AND PUSH1 0xE0 PUSH1 0x2 EXP MUL DUP2 MSTORE PUSH1 0x4 ADD PUSH2 0x1A2B SWAP4 SWAP3 SWAP2 SWAP1 PUSH2 0x27B5 JUMP JUMPDEST PUSH1 0x80 PUSH1 0x40 MLOAD DUP1 DUP4 SUB DUP2 PUSH1 0x0 DUP8 DUP1 EXTCODESIZE ISZERO DUP1 ISZERO PUSH2 0x1A45 JUMPI PUSH1 0x0 DUP1 REVERT JUMPDEST POP GAS CALL ISZERO DUP1 ISZERO PUSH2 0x1A59 JUMPI RETURNDATASIZE PUSH1 0x0 DUP1 RETURNDATACOPY RETURNDATASIZE PUSH1 0x0 REVERT JUMPDEST POP POP POP POP PUSH1 0x40 MLOAD RETURNDATASIZE PUSH1 0x1F NOT PUSH1 0x1F DUP3 ADD AND DUP3 ADD DUP1 PUSH1 0x40 MSTORE POP PUSH2 0x1A7D SWAP2 SWAP1 DUP2 ADD SWAP1 PUSH2 0x2325 JUMP JUMPDEST SWAP1 POP PUSH2 0x1A91 DUP2 PUSH1 0x0 ADD MLOAD DUP3 PUSH1 0x60 ADD MLOAD PUSH2 0xE84 JUMP JUMPDEST DUP2 MSTORE PUSH2 0x1A9D DUP7 DUP3 PUSH2 0xEB3 JUMP JUMPDEST DUP6 MLOAD DUP8 GT PUSH2 0x1AAA JUMPI PUSH2 0x1AB5 JUMP JUMPDEST PUSH1 0x1 SWAP1 SWAP4 ADD SWAP3 PUSH2 0x18DF JUMP JUMPDEST POP POP POP POP POP SWAP4 SWAP3 POP POP POP JUMP JUMPDEST PUSH1 0x40 MLOAD PUSH1 0xE0 PUSH1 0x2 EXP PUSH4 0xA9059CBB MUL DUP2 MSTORE PUSH1 0x1 PUSH1 0xA0 PUSH1 0x2 EXP SUB DUP5 AND SWAP1 PUSH4 0xA9059CBB SWAP1 PUSH2 0x1AF2 SWAP1 DUP6 SWAP1 DUP6 SWAP1 PUSH1 0x4 ADD PUSH2 0x26E0 JUMP JUMPDEST PUSH1 0x20 PUSH1 0x40 MLOAD DUP1 DUP4 SUB DUP2 PUSH1 0x0 DUP8 DUP1 EXTCODESIZE ISZERO DUP1 ISZERO PUSH2 0x1B0C JUMPI PUSH1 0x0 DUP1 REVERT JUMPDEST POP GAS CALL ISZERO DUP1 ISZERO PUSH2 0x1B20 JUMPI RETURNDATASIZE PUSH1 0x0 DUP1 RETURNDATACOPY RETURNDATASIZE PUSH1 0x0 REVERT JUMPDEST POP POP POP POP PUSH1 0x40 MLOAD RETURNDATASIZE PUSH1 0x1F NOT PUSH1 0x1F DUP3 ADD AND DUP3 ADD DUP1 PUSH1 0x40 MSTORE POP PUSH2 0x1B44 SWAP2 SWAP1 DUP2 ADD SWAP1 PUSH2 0x2307 JUMP JUMPDEST PUSH1 0x40 DUP1 MLOAD DUP1 DUP3 ADD SWAP1 SWAP2 MSTORE PUSH1 0xF DUP2 MSTORE PUSH1 0x8A PUSH1 0x2 EXP PUSH15 0x1514905394D1915497D19052531151 MUL PUSH1 0x20 DUP3 ADD MSTORE SWAP1 ISZERO ISZERO PUSH2 0x1B90 JUMPI PUSH1 0x40 MLOAD PUSH1 0xE5 PUSH1 0x2 EXP PUSH3 0x461BCD MUL DUP2 MSTORE PUSH1 0x4 ADD PUSH2 0x12A SWAP2 SWAP1 PUSH2 0x273B JUMP JUMPDEST POP POP POP POP JUMP JUMPDEST PUSH1 0x0 PUSH2 0xDDA DUP4 DUP4 PUSH2 0x1C0C JUMP JUMPDEST PUSH1 0x40 MLOAD PUSH1 0xE0 PUSH1 0x2 EXP PUSH4 0x23B872DD MUL DUP2 MSTORE PUSH1 0x1 PUSH1 0xA0 PUSH1 0x2 EXP SUB DUP5 AND SWAP1 PUSH4 0x23B872DD SWAP1 PUSH2 0x1BD5 SWAP1 ADDRESS SWAP1 DUP7 SWAP1 DUP7 SWAP1 PUSH1 0x4 ADD PUSH2 0x26B8 JUMP JUMPDEST PUSH1 0x0 PUSH1 0x40 MLOAD DUP1 DUP4 SUB DUP2 PUSH1 0x0 DUP8 DUP1 EXTCODESIZE ISZERO DUP1 ISZERO PUSH2 0x1BEF JUMPI PUSH1 0x0 DUP1 REVERT JUMPDEST POP GAS CALL ISZERO DUP1 ISZERO PUSH2 0x1C03 JUMPI RETURNDATASIZE PUSH1 0x0 DUP1 RETURNDATACOPY RETURNDATASIZE PUSH1 0x0 REVERT JUMPDEST POP POP POP POP POP POP POP JUMP JUMPDEST PUSH1 0x0 DUP2 PUSH1 0x20 ADD DUP4 MLOAD LT ISZERO PUSH1 0x60 PUSH1 0x40 MLOAD SWAP1 DUP2 ADD PUSH1 0x40 MSTORE DUP1 PUSH1 0x2B DUP2 MSTORE PUSH1 0x20 ADD PUSH1 0x0 DUP1 MLOAD PUSH1 0x20 PUSH2 0x2939 DUP4 CODECOPY DUP2 MLOAD SWAP2 MSTORE DUP2 MSTORE PUSH1 0x20 ADD PUSH1 0xA9 PUSH1 0x2 EXP PUSH11 0x38BAB0B6103A3790199917 MUL DUP2 MSTORE POP SWAP1 ISZERO ISZERO PUSH2 0x1C75 JUMPI PUSH1 0x40 MLOAD PUSH1 0xE5 PUSH1 0x2 EXP PUSH3 0x461BCD MUL DUP2 MSTORE PUSH1 0x4 ADD PUSH2 0x12A SWAP2 SWAP1 PUSH2 0x273B JUMP JUMPDEST POP POP ADD PUSH1 0x20 ADD MLOAD SWAP1 JUMP JUMPDEST PUSH1 0x80 PUSH1 0x40 MLOAD SWAP1 DUP2 ADD PUSH1 0x40 MSTORE DUP1 PUSH1 0x0 DUP2 MSTORE PUSH1 0x20 ADD PUSH1 0x0 DUP2 MSTORE PUSH1 0x20 ADD PUSH1 0x0 DUP2 MSTORE PUSH1 0x20 ADD PUSH1 0x0 DUP2 MSTORE POP SWAP1 JUMP JUMPDEST PUSH1 0x40 DUP1 MLOAD PUSH1 0x60 DUP2 ADD DUP3 MSTORE PUSH1 0x0 DUP1 DUP3 MSTORE PUSH1 0x20 DUP3 ADD DUP2 SWAP1 MSTORE SWAP2 DUP2 ADD SWAP2 SWAP1 SWAP2 MSTORE SWAP1 JUMP JUMPDEST PUSH1 0x0 PUSH2 0xDDA DUP3 CALLDATALOAD PUSH2 0x2888 JUMP JUMPDEST PUSH1 0x0 PUSH2 0xDDA DUP3 MLOAD PUSH2 0x2888 JUMP JUMPDEST PUSH1 0x0 PUSH1 0x1F DUP3 ADD DUP4 SGT PUSH2 0x1CF1 JUMPI PUSH1 0x0 DUP1 REVERT JUMPDEST DUP2 CALLDATALOAD PUSH2 0x1D04 PUSH2 0x1CFF DUP3 PUSH2 0x2837 JUMP JUMPDEST PUSH2 0x2811 JUMP JUMPDEST DUP2 DUP2 MSTORE PUSH1 0x20 SWAP4 DUP5 ADD SWAP4 SWAP1 SWAP3 POP DUP3 ADD DUP4 PUSH1 0x0 JUMPDEST DUP4 DUP2 LT ISZERO PUSH2 0x42B JUMPI DUP2 CALLDATALOAD DUP7 ADD PUSH2 0x1D2C DUP9 DUP3 PUSH2 0x1DB7 JUMP JUMPDEST DUP5 MSTORE POP PUSH1 0x20 SWAP3 DUP4 ADD SWAP3 SWAP2 SWAP1 SWAP2 ADD SWAP1 PUSH1 0x1 ADD PUSH2 0x1D16 JUMP JUMPDEST PUSH1 0x0 PUSH1 0x1F DUP3 ADD DUP4 SGT PUSH2 0x1D53 JUMPI PUSH1 0x0 DUP1 REVERT JUMPDEST DUP2 CALLDATALOAD PUSH2 0x1D61 PUSH2 0x1CFF DUP3 PUSH2 0x2837 JUMP JUMPDEST DUP2 DUP2 MSTORE PUSH1 0x20 SWAP4 DUP5 ADD SWAP4 SWAP1 SWAP3 POP DUP3 ADD DUP4 PUSH1 0x0 JUMPDEST DUP4 DUP2 LT ISZERO PUSH2 0x42B JUMPI DUP2 CALLDATALOAD DUP7 ADD PUSH2 0x1D89 DUP9 DUP3 PUSH2 0x1EC7 JUMP JUMPDEST DUP5 MSTORE POP PUSH1 0x20 SWAP3 DUP4 ADD SWAP3 SWAP2 SWAP1 SWAP2 ADD SWAP1 PUSH1 0x1 ADD PUSH2 0x1D73 JUMP JUMPDEST PUSH1 0x0 PUSH2 0xDDA DUP3 MLOAD PUSH2 0x28B1 JUMP JUMPDEST PUSH1 0x0 PUSH2 0xDDA DUP3 MLOAD PUSH2 0x28A8 JUMP JUMPDEST PUSH1 0x0 PUSH1 0x1F DUP3 ADD DUP4 SGT PUSH2 0x1DC8 JUMPI PUSH1 0x0 DUP1 REVERT JUMPDEST DUP2 CALLDATALOAD PUSH2 0x1DD6 PUSH2 0x1CFF DUP3 PUSH2 0x2857 JUMP JUMPDEST SWAP2 POP DUP1 DUP3 MSTORE PUSH1 0x20 DUP4 ADD PUSH1 0x20 DUP4 ADD DUP6 DUP4 DUP4 ADD GT ISZERO PUSH2 0x1DF2 JUMPI PUSH1 0x0 DUP1 REVERT JUMPDEST PUSH2 0x1842 DUP4 DUP3 DUP5 PUSH2 0x28B6 JUMP JUMPDEST PUSH1 0x0 PUSH1 0x80 DUP3 DUP5 SUB SLT ISZERO PUSH2 0x1E0F JUMPI PUSH1 0x0 DUP1 REVERT JUMPDEST PUSH2 0x1E19 PUSH1 0x80 PUSH2 0x2811 JUMP JUMPDEST SWAP1 POP PUSH1 0x0 PUSH2 0x1E27 DUP5 DUP5 PUSH2 0x1DAB JUMP JUMPDEST DUP3 MSTORE POP PUSH1 0x20 PUSH2 0x1E38 DUP5 DUP5 DUP4 ADD PUSH2 0x1DAB JUMP JUMPDEST PUSH1 0x20 DUP4 ADD MSTORE POP PUSH1 0x40 PUSH2 0x1E4C DUP5 DUP3 DUP6 ADD PUSH2 0x1DAB JUMP JUMPDEST PUSH1 0x40 DUP4 ADD MSTORE POP PUSH1 0x60 PUSH2 0x1E60 DUP5 DUP3 DUP6 ADD PUSH2 0x1DAB JUMP JUMPDEST PUSH1 0x60 DUP4 ADD MSTORE POP SWAP3 SWAP2 POP POP JUMP JUMPDEST PUSH1 0x0 PUSH1 0x60 DUP3 DUP5 SUB SLT ISZERO PUSH2 0x1E7E JUMPI PUSH1 0x0 DUP1 REVERT JUMPDEST PUSH2 0x1E88 PUSH1 0x60 PUSH2 0x2811 JUMP JUMPDEST SWAP1 POP PUSH1 0x0 PUSH2 0x1E96 DUP5 DUP5 PUSH2 0x2032 JUMP JUMPDEST DUP3 MSTORE POP PUSH1 0x20 PUSH2 0x1EA7 DUP5 DUP5 DUP4 ADD PUSH2 0x1DAB JUMP JUMPDEST PUSH1 0x20 DUP4 ADD MSTORE POP PUSH1 0x40 PUSH2 0x1EBB DUP5 DUP3 DUP6 ADD PUSH2 0x1DAB JUMP JUMPDEST PUSH1 0x40 DUP4 ADD MSTORE POP SWAP3 SWAP2 POP POP JUMP JUMPDEST PUSH1 0x0 PUSH2 0x180 DUP3 DUP5 SUB SLT ISZERO PUSH2 0x1EDA JUMPI PUSH1 0x0 DUP1 REVERT JUMPDEST PUSH2 0x1EE5 PUSH2 0x180 PUSH2 0x2811 JUMP JUMPDEST SWAP1 POP PUSH1 0x0 PUSH2 0x1EF3 DUP5 DUP5 PUSH2 0x1CC8 JUMP JUMPDEST DUP3 MSTORE POP PUSH1 0x20 PUSH2 0x1F04 DUP5 DUP5 DUP4 ADD PUSH2 0x1CC8 JUMP JUMPDEST PUSH1 0x20 DUP4 ADD MSTORE POP PUSH1 0x40 PUSH2 0x1F18 DUP5 DUP3 DUP6 ADD PUSH2 0x1CC8 JUMP JUMPDEST PUSH1 0x40 DUP4 ADD MSTORE POP PUSH1 0x60 PUSH2 0x1F2C DUP5 DUP3 DUP6 ADD PUSH2 0x1CC8 JUMP JUMPDEST PUSH1 0x60 DUP4 ADD MSTORE POP PUSH1 0x80 PUSH2 0x1F40 DUP5 DUP3 DUP6 ADD PUSH2 0x201A JUMP JUMPDEST PUSH1 0x80 DUP4 ADD MSTORE POP PUSH1 0xA0 PUSH2 0x1F54 DUP5 DUP3 DUP6 ADD PUSH2 0x201A JUMP JUMPDEST PUSH1 0xA0 DUP4 ADD MSTORE POP PUSH1 0xC0 PUSH2 0x1F68 DUP5 DUP3 DUP6 ADD PUSH2 0x201A JUMP JUMPDEST PUSH1 0xC0 DUP4 ADD MSTORE POP PUSH1 0xE0 PUSH2 0x1F7C DUP5 DUP3 DUP6 ADD PUSH2 0x201A JUMP JUMPDEST PUSH1 0xE0 DUP4 ADD MSTORE POP PUSH2 0x100 PUSH2 0x1F91 DUP5 DUP3 DUP6 ADD PUSH2 0x201A JUMP JUMPDEST PUSH2 0x100 DUP4 ADD MSTORE POP PUSH2 0x120 PUSH2 0x1FA7 DUP5 DUP3 DUP6 ADD PUSH2 0x201A JUMP JUMPDEST PUSH2 0x120 DUP4 ADD MSTORE POP PUSH2 0x140 DUP3 ADD CALLDATALOAD PUSH1 0x1 PUSH1 0x40 PUSH1 0x2 EXP SUB DUP2 GT ISZERO PUSH2 0x1FC8 JUMPI PUSH1 0x0 DUP1 REVERT JUMPDEST PUSH2 0x1FD4 DUP5 DUP3 DUP6 ADD PUSH2 0x1DB7 JUMP JUMPDEST PUSH2 0x140 DUP4 ADD MSTORE POP PUSH2 0x160 DUP3 ADD CALLDATALOAD PUSH1 0x1 PUSH1 0x40 PUSH1 0x2 EXP SUB DUP2 GT ISZERO PUSH2 0x1FF5 JUMPI PUSH1 0x0 DUP1 REVERT JUMPDEST PUSH2 0x2001 DUP5 DUP3 DUP6 ADD PUSH2 0x1DB7 JUMP JUMPDEST PUSH2 0x160 DUP4 ADD MSTORE POP SWAP3 SWAP2 POP POP JUMP JUMPDEST PUSH1 0x0 PUSH2 0xDDA DUP3 CALLDATALOAD PUSH2 0x28A1 JUMP JUMPDEST PUSH1 0x0 PUSH2 0xDDA DUP3 CALLDATALOAD PUSH2 0x28A8 JUMP JUMPDEST PUSH1 0x0 PUSH2 0xDDA DUP3 CALLDATALOAD PUSH2 0x28AB JUMP JUMPDEST PUSH1 0x0 PUSH2 0xDDA DUP3 MLOAD PUSH2 0x28AB JUMP JUMPDEST PUSH1 0x0 PUSH1 0x20 DUP3 DUP5 SUB SLT ISZERO PUSH2 0x2050 JUMPI PUSH1 0x0 DUP1 REVERT JUMPDEST PUSH1 0x0 PUSH2 0xEAB DUP5 DUP5 PUSH2 0x1CC8 JUMP JUMPDEST PUSH1 0x0 PUSH1 0x20 DUP3 DUP5 SUB SLT ISZERO PUSH2 0x206E JUMPI PUSH1 0x0 DUP1 REVERT JUMPDEST PUSH1 0x0 PUSH2 0xEAB DUP5 DUP5 PUSH2 0x1CD4 JUMP JUMPDEST PUSH1 0x0 DUP1 PUSH1 0x0 PUSH1 0x60 DUP5 DUP7 SUB SLT ISZERO PUSH2 0x208F JUMPI PUSH1 0x0 DUP1 REVERT JUMPDEST PUSH1 0x0 PUSH2 0x209B DUP7 DUP7 PUSH2 0x1CC8 JUMP JUMPDEST SWAP4 POP POP PUSH1 0x20 PUSH2 0x20AC DUP7 DUP3 DUP8 ADD PUSH2 0x201A JUMP JUMPDEST SWAP3 POP POP PUSH1 0x40 DUP5 ADD CALLDATALOAD PUSH1 0x1 PUSH1 0x40 PUSH1 0x2 EXP SUB DUP2 GT ISZERO PUSH2 0x20C8 JUMPI PUSH1 0x0 DUP1 REVERT JUMPDEST PUSH2 0x20D4 DUP7 DUP3 DUP8 ADD PUSH2 0x1DB7 JUMP JUMPDEST SWAP2 POP POP SWAP3 POP SWAP3 POP SWAP3 JUMP JUMPDEST PUSH1 0x0 DUP1 PUSH1 0x0 DUP1 PUSH1 0x0 DUP1 PUSH1 0xC0 DUP8 DUP10 SUB SLT ISZERO PUSH2 0x20F7 JUMPI PUSH1 0x0 DUP1 REVERT JUMPDEST DUP7 CALLDATALOAD PUSH1 0x1 PUSH1 0x40 PUSH1 0x2 EXP SUB DUP2 GT ISZERO PUSH2 0x210D JUMPI PUSH1 0x0 DUP1 REVERT JUMPDEST PUSH2 0x2119 DUP10 DUP3 DUP11 ADD PUSH2 0x1D42 JUMP JUMPDEST SWAP7 POP POP PUSH1 0x20 DUP8 ADD CALLDATALOAD PUSH1 0x1 PUSH1 0x40 PUSH1 0x2 EXP SUB DUP2 GT ISZERO PUSH2 0x2135 JUMPI PUSH1 0x0 DUP1 REVERT JUMPDEST PUSH2 0x2141 DUP10 DUP3 DUP11 ADD PUSH2 0x1CE0 JUMP JUMPDEST SWAP6 POP POP PUSH1 0x40 DUP8 ADD CALLDATALOAD PUSH1 0x1 PUSH1 0x40 PUSH1 0x2 EXP SUB DUP2 GT ISZERO PUSH2 0x215D JUMPI PUSH1 0x0 DUP1 REVERT JUMPDEST PUSH2 0x2169 DUP10 DUP3 DUP11 ADD PUSH2 0x1D42 JUMP JUMPDEST SWAP5 POP POP PUSH1 0x60 DUP8 ADD CALLDATALOAD PUSH1 0x1 PUSH1 0x40 PUSH1 0x2 EXP SUB DUP2 GT ISZERO PUSH2 0x2185 JUMPI PUSH1 0x0 DUP1 REVERT JUMPDEST PUSH2 0x2191 DUP10 DUP3 DUP11 ADD PUSH2 0x1CE0 JUMP JUMPDEST SWAP4 POP POP PUSH1 0x80 PUSH2 0x21A2 DUP10 DUP3 DUP11 ADD PUSH2 0x200E JUMP JUMPDEST SWAP3 POP POP PUSH1 0xA0 PUSH2 0x21B3 DUP10 DUP3 DUP11 ADD PUSH2 0x1CC8 JUMP JUMPDEST SWAP2 POP POP SWAP3 SWAP6 POP SWAP3 SWAP6 POP SWAP3 SWAP6 JUMP JUMPDEST PUSH1 0x0 DUP1 PUSH1 0x0 DUP1 PUSH1 0x0 DUP1 PUSH1 0x0 PUSH1 0xE0 DUP9 DUP11 SUB SLT ISZERO PUSH2 0x21DB JUMPI PUSH1 0x0 DUP1 REVERT JUMPDEST DUP8 CALLDATALOAD PUSH1 0x1 PUSH1 0x40 PUSH1 0x2 EXP SUB DUP2 GT ISZERO PUSH2 0x21F1 JUMPI PUSH1 0x0 DUP1 REVERT JUMPDEST PUSH2 0x21FD DUP11 DUP3 DUP12 ADD PUSH2 0x1D42 JUMP JUMPDEST SWAP8 POP POP PUSH1 0x20 DUP9 ADD CALLDATALOAD PUSH1 0x1 PUSH1 0x40 PUSH1 0x2 EXP SUB DUP2 GT ISZERO PUSH2 0x2219 JUMPI PUSH1 0x0 DUP1 REVERT JUMPDEST PUSH2 0x2225 DUP11 DUP3 DUP12 ADD PUSH2 0x1CE0 JUMP JUMPDEST SWAP7 POP POP PUSH1 0x40 DUP9 ADD CALLDATALOAD PUSH1 0x1 PUSH1 0x40 PUSH1 0x2 EXP SUB DUP2 GT ISZERO PUSH2 0x2241 JUMPI PUSH1 0x0 DUP1 REVERT JUMPDEST PUSH2 0x224D DUP11 DUP3 DUP12 ADD PUSH2 0x1D42 JUMP JUMPDEST SWAP6 POP POP PUSH1 0x60 DUP9 ADD CALLDATALOAD PUSH1 0x1 PUSH1 0x40 PUSH1 0x2 EXP SUB DUP2 GT ISZERO PUSH2 0x2269 JUMPI PUSH1 0x0 DUP1 REVERT JUMPDEST PUSH2 0x2275 DUP11 DUP3 DUP12 ADD PUSH2 0x1CE0 JUMP JUMPDEST SWAP5 POP POP PUSH1 0x80 PUSH2 0x2286 DUP11 DUP3 DUP12 ADD PUSH2 0x201A JUMP JUMPDEST SWAP4 POP POP PUSH1 0xA0 PUSH2 0x2297 DUP11 DUP3 DUP12 ADD PUSH2 0x200E JUMP JUMPDEST SWAP3 POP POP PUSH1 0xC0 PUSH2 0x22A8 DUP11 DUP3 DUP12 ADD PUSH2 0x1CC8 JUMP JUMPDEST SWAP2 POP POP SWAP3 SWAP6 SWAP9 SWAP2 SWAP5 SWAP8 POP SWAP3 SWAP6 POP JUMP JUMPDEST PUSH1 0x0 DUP1 PUSH1 0x40 DUP4 DUP6 SUB SLT ISZERO PUSH2 0x22CA JUMPI PUSH1 0x0 DUP1 REVERT JUMPDEST DUP3 CALLDATALOAD PUSH1 0x1 PUSH1 0x40 PUSH1 0x2 EXP SUB DUP2 GT ISZERO PUSH2 0x22E0 JUMPI PUSH1 0x0 DUP1 REVERT JUMPDEST PUSH2 0x22EC DUP6 DUP3 DUP7 ADD PUSH2 0x1D42 JUMP JUMPDEST SWAP3 POP POP PUSH1 0x20 PUSH2 0x22FD DUP6 DUP3 DUP7 ADD PUSH2 0x201A JUMP JUMPDEST SWAP2 POP POP SWAP3 POP SWAP3 SWAP1 POP JUMP JUMPDEST PUSH1 0x0 PUSH1 0x20 DUP3 DUP5 SUB SLT ISZERO PUSH2 0x2319 JUMPI PUSH1 0x0 DUP1 REVERT JUMPDEST PUSH1 0x0 PUSH2 0xEAB DUP5 DUP5 PUSH2 0x1D9F JUMP JUMPDEST PUSH1 0x0 PUSH1 0x80 DUP3 DUP5 SUB SLT ISZERO PUSH2 0x2337 JUMPI PUSH1 0x0 DUP1 REVERT JUMPDEST PUSH1 0x0 PUSH2 0xEAB DUP5 DUP5 PUSH2 0x1DFD JUMP JUMPDEST PUSH1 0x0 PUSH1 0x60 DUP3 DUP5 SUB SLT ISZERO PUSH2 0x2355 JUMPI PUSH1 0x0 DUP1 REVERT JUMPDEST PUSH1 0x0 PUSH2 0xEAB DUP5 DUP5 PUSH2 0x1E6C JUMP JUMPDEST PUSH1 0x0 DUP1 PUSH1 0x40 DUP4 DUP6 SUB SLT ISZERO PUSH2 0x2374 JUMPI PUSH1 0x0 DUP1 REVERT JUMPDEST DUP3 CALLDATALOAD PUSH1 0x1 PUSH1 0x40 PUSH1 0x2 EXP SUB DUP2 GT ISZERO PUSH2 0x238A JUMPI PUSH1 0x0 DUP1 REVERT JUMPDEST PUSH2 0x22EC DUP6 DUP3 DUP7 ADD PUSH2 0x1EC7 JUMP JUMPDEST PUSH1 0x0 PUSH1 0x20 DUP3 DUP5 SUB SLT ISZERO PUSH2 0x23A8 JUMPI PUSH1 0x0 DUP1 REVERT JUMPDEST PUSH1 0x0 PUSH2 0xEAB DUP5 DUP5 PUSH2 0x2026 JUMP JUMPDEST PUSH1 0x0 DUP1 PUSH1 0xA0 DUP4 DUP6 SUB SLT ISZERO PUSH2 0x23C7 JUMPI PUSH1 0x0 DUP1 REVERT JUMPDEST PUSH1 0x0 PUSH2 0x23D3 DUP6 DUP6 PUSH2 0x2032 JUMP JUMPDEST SWAP3 POP POP PUSH1 0x20 PUSH2 0x22FD DUP6 DUP3 DUP7 ADD PUSH2 0x1DFD JUMP JUMPDEST PUSH2 0x23ED DUP2 PUSH2 0x2888 JUMP JUMPDEST DUP3 MSTORE POP POP JUMP JUMPDEST PUSH1 0x0 PUSH2 0x23FE DUP3 PUSH2 0x2884 JUMP JUMPDEST DUP1 DUP5 MSTORE PUSH1 0x20 DUP5 ADD SWAP4 POP DUP4 PUSH1 0x20 DUP3 MUL DUP6 ADD PUSH2 0x2417 DUP6 PUSH2 0x287E JUMP JUMPDEST PUSH1 0x0 JUMPDEST DUP5 DUP2 LT ISZERO PUSH2 0x244E JUMPI DUP4 DUP4 SUB DUP9 MSTORE PUSH2 0x2432 DUP4 DUP4 MLOAD PUSH2 0x24BE JUMP JUMPDEST SWAP3 POP PUSH2 0x243D DUP3 PUSH2 0x287E JUMP JUMPDEST PUSH1 0x20 SWAP9 SWAP1 SWAP9 ADD SWAP8 SWAP2 POP PUSH1 0x1 ADD PUSH2 0x241A JUMP JUMPDEST POP SWAP1 SWAP7 SWAP6 POP POP POP POP POP POP JUMP JUMPDEST PUSH1 0x0 PUSH2 0x2465 DUP3 PUSH2 0x2884 JUMP JUMPDEST DUP1 DUP5 MSTORE PUSH1 0x20 DUP5 ADD SWAP4 POP DUP4 PUSH1 0x20 DUP3 MUL DUP6 ADD PUSH2 0x247E DUP6 PUSH2 0x287E JUMP JUMPDEST PUSH1 0x0 JUMPDEST DUP5 DUP2 LT ISZERO PUSH2 0x244E JUMPI DUP4 DUP4 SUB DUP9 MSTORE PUSH2 0x2499 DUP4 DUP4 MLOAD PUSH2 0x258C JUMP JUMPDEST SWAP3 POP PUSH2 0x24A4 DUP3 PUSH2 0x287E JUMP JUMPDEST PUSH1 0x20 SWAP9 SWAP1 SWAP9 ADD SWAP8 SWAP2 POP PUSH1 0x1 ADD PUSH2 0x2481 JUMP JUMPDEST PUSH2 0x23ED DUP2 PUSH2 0x2894 JUMP JUMPDEST PUSH1 0x0 PUSH2 0x24C9 DUP3 PUSH2 0x2884 JUMP JUMPDEST DUP1 DUP5 MSTORE PUSH2 0x24DD DUP2 PUSH1 0x20 DUP7 ADD PUSH1 0x20 DUP7 ADD PUSH2 0x28C2 JUMP JUMPDEST PUSH2 0x24E6 DUP2 PUSH2 0x28EE JUMP JUMPDEST SWAP1 SWAP4 ADD PUSH1 0x20 ADD SWAP4 SWAP3 POP POP POP JUMP JUMPDEST PUSH1 0x33 DUP2 MSTORE PUSH32 0x4F6E6C7920636F6E7472616374206F776E657220697320616C6C6F7765642074 PUSH1 0x20 DUP3 ADD MSTORE PUSH1 0x69 PUSH1 0x2 EXP PUSH19 0x379031B0B636103A3434B99036B2BA3437B217 MUL PUSH1 0x40 DUP3 ADD MSTORE PUSH1 0x60 ADD SWAP1 JUMP JUMPDEST DUP1 MLOAD PUSH1 0x80 DUP4 ADD SWAP1 PUSH2 0x2553 DUP5 DUP3 PUSH2 0x2698 JUMP JUMPDEST POP PUSH1 0x20 DUP3 ADD MLOAD PUSH2 0x2566 PUSH1 0x20 DUP6 ADD DUP3 PUSH2 0x2698 JUMP JUMPDEST POP PUSH1 0x40 DUP3 ADD MLOAD PUSH2 0x2579 PUSH1 0x40 DUP6 ADD DUP3 PUSH2 0x2698 JUMP JUMPDEST POP PUSH1 0x60 DUP3 ADD MLOAD PUSH2 0x1B90 PUSH1 0x60 DUP6 ADD DUP3 PUSH2 0x2698 JUMP JUMPDEST DUP1 MLOAD PUSH1 0x0 SWAP1 PUSH2 0x180 DUP5 ADD SWAP1 PUSH2 0x25A1 DUP6 DUP3 PUSH2 0x23E4 JUMP JUMPDEST POP PUSH1 0x20 DUP4 ADD MLOAD PUSH2 0x25B4 PUSH1 0x20 DUP7 ADD DUP3 PUSH2 0x23E4 JUMP JUMPDEST POP PUSH1 0x40 DUP4 ADD MLOAD PUSH2 0x25C7 PUSH1 0x40 DUP7 ADD DUP3 PUSH2 0x23E4 JUMP JUMPDEST POP PUSH1 0x60 DUP4 ADD MLOAD PUSH2 0x25DA PUSH1 0x60 DUP7 ADD DUP3 PUSH2 0x23E4 JUMP JUMPDEST POP PUSH1 0x80 DUP4 ADD MLOAD PUSH2 0x25ED PUSH1 0x80 DUP7 ADD DUP3 PUSH2 0x2698 JUMP JUMPDEST POP PUSH1 0xA0 DUP4 ADD MLOAD PUSH2 0x2600 PUSH1 0xA0 DUP7 ADD DUP3 PUSH2 0x2698 JUMP JUMPDEST POP PUSH1 0xC0 DUP4 ADD MLOAD PUSH2 0x2613 PUSH1 0xC0 DUP7 ADD DUP3 PUSH2 0x2698 JUMP JUMPDEST POP PUSH1 0xE0 DUP4 ADD MLOAD PUSH2 0x2626 PUSH1 0xE0 DUP7 ADD DUP3 PUSH2 0x2698 JUMP JUMPDEST POP PUSH2 0x100 DUP4 ADD MLOAD PUSH2 0x263B PUSH2 0x100 DUP7 ADD DUP3 PUSH2 0x2698 JUMP JUMPDEST POP PUSH2 0x120 DUP4 ADD MLOAD PUSH2 0x2650 PUSH2 0x120 DUP7 ADD DUP3 PUSH2 0x2698 JUMP JUMPDEST POP PUSH2 0x140 DUP4 ADD MLOAD DUP5 DUP3 SUB PUSH2 0x140 DUP7 ADD MSTORE PUSH2 0x266A DUP3 DUP3 PUSH2 0x24BE JUMP JUMPDEST SWAP2 POP POP PUSH2 0x160 DUP4 ADD MLOAD DUP5 DUP3 SUB PUSH2 0x160 DUP7 ADD MSTORE PUSH2 0x2686 DUP3 DUP3 PUSH2 0x24BE JUMP JUMPDEST SWAP6 SWAP5 POP POP POP POP POP JUMP JUMPDEST PUSH2 0x23ED DUP2 PUSH2 0x28A1 JUMP JUMPDEST PUSH2 0x23ED DUP2 PUSH2 0x28A8 JUMP JUMPDEST PUSH2 0x23ED DUP2 PUSH2 0x28AB JUMP JUMPDEST PUSH1 0x20 DUP2 ADD PUSH2 0xE7E DUP3 DUP5 PUSH2 0x23E4 JUMP JUMPDEST PUSH1 0x60 DUP2 ADD PUSH2 0x26C6 DUP3 DUP7 PUSH2 0x23E4 JUMP JUMPDEST PUSH2 0x26D3 PUSH1 0x20 DUP4 ADD DUP6 PUSH2 0x23E4 JUMP JUMPDEST PUSH2 0xEAB PUSH1 0x40 DUP4 ADD DUP5 PUSH2 0x2698 JUMP JUMPDEST PUSH1 0x40 DUP2 ADD PUSH2 0x26EE DUP3 DUP6 PUSH2 0x23E4 JUMP JUMPDEST PUSH2 0xDDA PUSH1 0x20 DUP4 ADD DUP5 PUSH2 0x2698 JUMP JUMPDEST PUSH1 0x60 DUP1 DUP3 MSTORE DUP2 ADD PUSH2 0x270C DUP2 DUP7 PUSH2 0x245A JUMP JUMPDEST SWAP1 POP PUSH2 0x271B PUSH1 0x20 DUP4 ADD DUP6 PUSH2 0x2698 JUMP JUMPDEST DUP2 DUP2 SUB PUSH1 0x40 DUP4 ADD MSTORE PUSH2 0x2686 DUP2 DUP5 PUSH2 0x23F3 JUMP JUMPDEST PUSH1 0x20 DUP2 ADD PUSH2 0xE7E DUP3 DUP5 PUSH2 0x24B5 JUMP JUMPDEST PUSH1 0x20 DUP1 DUP3 MSTORE DUP2 ADD PUSH2 0xDDA DUP2 DUP5 PUSH2 0x24BE JUMP JUMPDEST PUSH1 0x20 DUP1 DUP3 MSTORE DUP2 ADD PUSH2 0xE7E DUP2 PUSH2 0x24F3 JUMP JUMPDEST PUSH1 0x80 DUP2 ADD PUSH2 0xE7E DUP3 DUP5 PUSH2 0x2542 JUMP JUMPDEST PUSH1 0x20 DUP1 DUP3 MSTORE DUP2 ADD PUSH2 0xDDA DUP2 DUP5 PUSH2 0x258C JUMP JUMPDEST PUSH1 0x80 DUP1 DUP3 MSTORE DUP2 ADD PUSH2 0x278C DUP2 DUP8 PUSH2 0x258C JUMP JUMPDEST SWAP1 POP PUSH2 0x279B PUSH1 0x20 DUP4 ADD DUP7 PUSH2 0x26A1 JUMP JUMPDEST PUSH2 0x27A8 PUSH1 0x40 DUP4 ADD DUP6 PUSH2 0x2698 JUMP JUMPDEST PUSH2 0x2686 PUSH1 0x60 DUP4 ADD DUP5 PUSH2 0x2698 JUMP JUMPDEST PUSH1 0x60 DUP1 DUP3 MSTORE DUP2 ADD PUSH2 0x27C6 DUP2 DUP7 PUSH2 0x258C JUMP JUMPDEST SWAP1 POP PUSH2 0x27D5 PUSH1 0x20 DUP4 ADD DUP6 PUSH2 0x2698 JUMP JUMPDEST DUP2 DUP2 SUB PUSH1 0x40 DUP4 ADD MSTORE PUSH2 0x2686 DUP2 DUP5 PUSH2 0x24BE JUMP JUMPDEST PUSH1 0x20 DUP2 ADD PUSH2 0xE7E DUP3 DUP5 PUSH2 0x268F JUMP JUMPDEST PUSH1 0x20 DUP2 ADD PUSH2 0xE7E DUP3 DUP5 PUSH2 0x2698 JUMP JUMPDEST PUSH1 0x20 DUP2 ADD PUSH2 0xE7E DUP3 DUP5 PUSH2 0x26A1 JUMP JUMPDEST PUSH1 0x40 MLOAD DUP2 DUP2 ADD PUSH1 0x1 PUSH1 0x40 PUSH1 0x2 EXP SUB DUP2 GT DUP3 DUP3 LT OR ISZERO PUSH2 0x282F JUMPI PUSH1 0x0 DUP1 REVERT JUMPDEST PUSH1 0x40 MSTORE SWAP2 SWAP1 POP JUMP JUMPDEST PUSH1 0x0 PUSH1 0x1 PUSH1 0x40 PUSH1 0x2 EXP SUB DUP3 GT ISZERO PUSH2 0x284D JUMPI PUSH1 0x0 DUP1 REVERT JUMPDEST POP PUSH1 0x20 SWAP1 DUP2 MUL ADD SWAP1 JUMP JUMPDEST PUSH1 0x0 PUSH1 0x1 PUSH1 0x40 PUSH1 0x2 EXP SUB DUP3 GT ISZERO PUSH2 0x286D JUMPI PUSH1 0x0 DUP1 REVERT JUMPDEST POP PUSH1 0x20 PUSH1 0x1F SWAP2 SWAP1 SWAP2 ADD PUSH1 0x1F NOT AND ADD SWAP1 JUMP JUMPDEST PUSH1 0x20 ADD SWAP1 JUMP JUMPDEST MLOAD SWAP1 JUMP JUMPDEST PUSH1 0x1 PUSH1 0xA0 PUSH1 0x2 EXP SUB AND SWAP1 JUMP JUMPDEST PUSH1 0x1 PUSH1 0xE0 PUSH1 0x2 EXP SUB NOT AND SWAP1 JUMP JUMPDEST PUSH2 0xFFFF AND SWAP1 JUMP JUMPDEST SWAP1 JUMP JUMPDEST PUSH1 0xFF AND SWAP1 JUMP JUMPDEST ISZERO ISZERO SWAP1 JUMP JUMPDEST DUP3 DUP2 DUP4 CALLDATACOPY POP PUSH1 0x0 SWAP2 ADD MSTORE JUMP JUMPDEST PUSH1 0x0 JUMPDEST DUP4 DUP2 LT ISZERO PUSH2 0x28DD JUMPI DUP2 DUP2 ADD MLOAD DUP4 DUP3 ADD MSTORE PUSH1 0x20 ADD PUSH2 0x28C5 JUMP JUMPDEST DUP4 DUP2 GT ISZERO PUSH2 0x1B90 JUMPI POP POP PUSH1 0x0 SWAP2 ADD MSTORE JUMP JUMPDEST PUSH1 0x1F ADD PUSH1 0x1F NOT AND SWAP1 JUMP STOP MSTORE8 COINBASE 0x4d GASLIMIT 0x5f COINBASE MSTORE8 MSTORE8 GASLIMIT SLOAD 0x5f SLOAD MSIZE POP GASLIMIT 0x5f MSTORE GASLIMIT MLOAD SSTORE 0x49 MSTORE GASLIMIT DIFFICULTY STOP STOP STOP STOP STOP STOP STOP STOP SSTORE 0x4e COINBASE NUMBER NUMBER GASLIMIT POP SLOAD COINBASE TIMESTAMP 0x4c GASLIMIT 0x5f SLOAD 0x48 MSTORE GASLIMIT MSTORE8 0x48 0x4f 0x4c DIFFICULTY STOP STOP STOP STOP STOP STOP STOP STOP STOP STOP 0x4c PUSH6 0x6E677468206D PUSH22 0x73742062652067726561746572207468616E206F7220 PUSH6 0xA265627A7A72 ADDRESS PC KECCAK256 0xe SWAP16 MSTORE RETURNDATASIZE MLOAD 0xf5 GASLIMIT DUP1 ISZERO 0xb1 0xea 0xa8 MSTORE8 0xad MSTORE8 ADDRESS BLOCKHASH RETURNDATASIZE DUP7 PUSH9 0xA3E5B85B2C2E34302E JUMP LOG3 CALLDATACOPY PUSH13 0x6578706572696D656E74616CF5 STOP CALLDATACOPY "
			}
		}
	},
	"sourceTreeHashHex": "0x942a44856e8e17b5bd08e6d944233b74b0aa11aa5868f8231308c2eedc29614d",
	"compiler": {
		"name": "solc",
		"version": "soljson-v0.4.24+commit.e67f0147.js",
		"settings": {
			"optimizer": {
				"enabled": true,
				"runs": 0
			},
			"outputSelection": {
				"*": {
					"*": [
						"abi",
						"evm.bytecode.object",
						"evm.bytecode.sourceMap",
						"evm.deployedBytecode.object",
						"evm.deployedBytecode.sourceMap"
					]
				}
			}
		}
	}
}