{
	"schemaVersion": "2.0.0",
	"contractName": "Forwarder",
	"compilerOutput": {
		"abi": [
			{
				"constant": true,
				"inputs": [
					{
						"name": "",
						"type": "address"
					},
					{
						"name": "",
						"type": "address"
					},
					{
						"name": "",
						"type": "uint256"
					},
					{
						"name": "",
						"type": "bytes"
					}
				],
				"name": "onERC721Received",
				"outputs": [
					{
						"name": "",
						"type": "bytes4"
					}
				],
				"payable": false,
				"stateMutability": "pure",
				"type": "function"
			},
			{
				"constant": false,
				"inputs": [
					{
						"components": [
							{
								"name": "makerAddress",
								"type": "address"
							},
							{
								"name": "takerAddress",
								"type": "address"
							},
							{
								"name": "feeRecipientAddress",
								"type": "address"
							},
							{
								"name": "senderAddress",
								"type": "address"
							},
							{
								"name": "makerAssetAmount",
								"type": "uint256"
							},
							{
								"name": "takerAssetAmount",
								"type": "uint256"
							},
							{
								"name": "makerFee",
								"type": "uint256"
							},
							{
								"name": "takerFee",
								"type": "uint256"
							},
							{
								"name": "expirationTimeSeconds",
								"type": "uint256"
							},
							{
								"name": "salt",
								"type": "uint256"
							},
							{
								"name": "makerAssetData",
								"type": "bytes"
							},
							{
								"name": "takerAssetData",
								"type": "bytes"
							}
						],
						"name": "orders",
						"type": "tuple[]"
					},
					{
						"name": "signatures",
						"type": "bytes[]"
					},
					{
						"components": [
							{
								"name": "makerAddress",
								"type": "address"
							},
							{
								"name": "takerAddress",
								"type": "address"
							},
							{
								"name": "feeRecipientAddress",
								"type": "address"
							},
							{
								"name": "senderAddress",
								"type": "address"
							},
							{
								"name": "makerAssetAmount",
								"type": "uint256"
							},
							{
								"name": "takerAssetAmount",
								"type": "uint256"
							},
							{
								"name": "makerFee",
								"type": "uint256"
							},
							{
								"name": "takerFee",
								"type": "uint256"
							},
							{
								"name": "expirationTimeSeconds",
								"type": "uint256"
							},
							{
								"name": "salt",
								"type": "uint256"
							},
							{
								"name": "makerAssetData",
								"type": "bytes"
							},
							{
								"name": "takerAssetData",
								"type": "bytes"
							}
						],
						"name": "feeOrders",
						"type": "tuple[]"
					},
					{
						"name": "feeSignatures",
						"type": "bytes[]"
					},
					{
						"name": "feeProportion",
						"type": "uint16"
					},
					{
						"name": "feeRecipient",
						"type": "address"
					}
				],
				"name": "marketSellEthForERC20",
				"outputs": [
					{
						"components": [
							{
								"name": "makerAssetFilledAmount",
								"type": "uint256"
							},
							{
								"name": "takerAssetFilledAmount",
								"type": "uint256"
							},
							{
								"name": "makerFeePaid",
								"type": "uint256"
							},
							{
								"name": "takerFeePaid",
								"type": "uint256"
							}
						],
						"name": "totalFillResults",
						"type": "tuple"
					}
				],
				"payable": true,
				"stateMutability": "payable",
				"type": "function"
			},
			{
				"constant": true,
				"inputs": [
					{
						"components": [
							{
								"name": "makerAddress",
								"type": "address"
							},
							{
								"name": "takerAddress",
								"type": "address"
							},
							{
								"name": "feeRecipientAddress",
								"type": "address"
							},
							{
								"name": "senderAddress",
								"type": "address"
							},
							{
								"name": "makerAssetAmount",
								"type": "uint256"
							},
							{
								"name": "takerAssetAmount",
								"type": "uint256"
							},
							{
								"name": "makerFee",
								"type": "uint256"
							},
							{
								"name": "takerFee",
								"type": "uint256"
							},
							{
								"name": "expirationTimeSeconds",
								"type": "uint256"
							},
							{
								"name": "salt",
								"type": "uint256"
							},
							{
								"name": "makerAssetData",
								"type": "bytes"
							},
							{
								"name": "takerAssetData",
								"type": "bytes"
							}
						],
						"name": "orders",
						"type": "tuple[]"
					},
					{
						"name": "makerAssetFillAmount",
						"type": "uint256"
					}
				],
				"name": "calculateMarketBuyResults",
				"outputs": [
					{
						"components": [
							{
								"name": "makerAssetFilledAmount",
								"type": "uint256"
							},
							{
								"name": "takerAssetFilledAmount",
								"type": "uint256"
							},
							{
								"name": "makerFeePaid",
								"type": "uint256"
							},
							{
								"name": "takerFeePaid",
								"type": "uint256"
							}
						],
						"name": "totalFillResults",
						"type": "tuple"
					}
				],
				"payable": false,
				"stateMutability": "view",
				"type": "function"
			},
			{
				"constant": true,
				"inputs": [],
				"name": "ALLOWABLE_EXCHANGE_PERCENTAGE",
				"outputs": [
					{
						"name": "",
						"type": "uint16"
					}
				],
				"payable": false,
				"stateMutability": "view",
				"type": "function"
			},
			{
				"constant": false,
				"inputs": [
					{
						"components": [
							{
								"name": "makerAddress",
								"type": "address"
							},
							{
								"name": "takerAddress",
								"type": "address"
							},
							{
								"name": "feeRecipientAddress",
								"type": "address"
							},
							{
								"name": "senderAddress",
								"type": "address"
							},
							{
								"name": "makerAssetAmount",
								"type": "uint256"
							},
							{
								"name": "takerAssetAmount",
								"type": "uint256"
							},
							{
								"name": "makerFee",
								"type": "uint256"
							},
							{
								"name": "takerFee",
								"type": "uint256"
							},
							{
								"name": "expirationTimeSeconds",
								"type": "uint256"
							},
							{
								"name": "salt",
								"type": "uint256"
							},
							{
								"name": "makerAssetData",
								"type": "bytes"
							},
							{
								"name": "takerAssetData",
								"type": "bytes"
							}
						],
						"name": "orders",
						"type": "tuple[]"
					},
					{
						"name": "signatures",
						"type": "bytes[]"
					},
					{
						"components": [
							{
								"name": "makerAddress",
								"type": "address"
							},
							{
								"name": "takerAddress",
								"type": "address"
							},
							{
								"name": "feeRecipientAddress",
								"type": "address"
							},
							{
								"name": "senderAddress",
								"type": "address"
							},
							{
								"name": "makerAssetAmount",
								"type": "uint256"
							},
							{
								"name": "takerAssetAmount",
								"type": "uint256"
							},
							{
								"name": "makerFee",
								"type": "uint256"
							},
							{
								"name": "takerFee",
								"type": "uint256"
							},
							{
								"name": "expirationTimeSeconds",
								"type": "uint256"
							},
							{
								"name": "salt",
								"type": "uint256"
							},
							{
								"name": "makerAssetData",
								"type": "bytes"
							},
							{
								"name": "takerAssetData",
								"type": "bytes"
							}
						],
						"name": "feeOrders",
						"type": "tuple[]"
					},
					{
						"name": "feeSignatures",
						"type": "bytes[]"
					},
					{
						"name": "makerTokenFillAmount",
						"type": "uint256"
					},
					{
						"name": "feeProportion",
						"type": "uint16"
					},
					{
						"name": "feeRecipient",
						"type": "address"
					}
				],
				"name": "marketBuyTokensWithEth",
				"outputs": [
					{
						"components": [
							{
								"name": "makerAssetFilledAmount",
								"type": "uint256"
							},
							{
								"name": "takerAssetFilledAmount",
								"type": "uint256"
							},
							{
								"name": "makerFeePaid",
								"type": "uint256"
							},
							{
								"name": "takerFeePaid",
								"type": "uint256"
							}
						],
						"name": "totalFillResults",
						"type": "tuple"
					}
				],
				"payable": true,
				"stateMutability": "payable",
				"type": "function"
			},
			{
				"constant": true,
				"inputs": [],
				"name": "PERCENTAGE_DENOMINATOR",
				"outputs": [
					{
						"name": "",
						"type": "uint16"
					}
				],
				"payable": false,
				"stateMutability": "view",
				"type": "function"
			},
			{
				"constant": true,
				"inputs": [],
				"name": "MAX_FEE",
				"outputs": [
					{
						"name": "",
						"type": "uint16"
					}
				],
				"payable": false,
				"stateMutability": "view",
				"type": "function"
			},
			{
				"constant": true,
				"inputs": [
					{
						"components": [
							{
								"name": "makerAddress",
								"type": "address"
							},
							{
								"name": "takerAddress",
								"type": "address"
							},
							{
								"name": "feeRecipientAddress",
								"type": "address"
							},
							{
								"name": "senderAddress",
								"type": "address"
							},
							{
								"name": "makerAssetAmount",
								"type": "uint256"
							},
							{
								"name": "takerAssetAmount",
								"type": "uint256"
							},
							{
								"name": "makerFee",
								"type": "uint256"
							},
							{
								"name": "takerFee",
								"type": "uint256"
							},
							{
								"name": "expirationTimeSeconds",
								"type": "uint256"
							},
							{
								"name": "salt",
								"type": "uint256"
							},
							{
								"name": "makerAssetData",
								"type": "bytes"
							},
							{
								"name": "takerAssetData",
								"type": "bytes"
							}
						],
						"name": "orders",
						"type": "tuple[]"
					},
					{
						"name": "takerAssetFillAmount",
						"type": "uint256"
					}
				],
				"name": "calculateMarketSellResults",
				"outputs": [
					{
						"components": [
							{
								"name": "makerAssetFilledAmount",
								"type": "uint256"
							},
							{
								"name": "takerAssetFilledAmount",
								"type": "uint256"
							},
							{
								"name": "makerFeePaid",
								"type": "uint256"
							},
							{
								"name": "takerFeePaid",
								"type": "uint256"
							}
						],
						"name": "totalFillResults",
						"type": "tuple"
					}
				],
				"payable": false,
				"stateMutability": "view",
				"type": "function"
			},
			{
				"constant": true,
				"inputs": [
					{
						"components": [
							{
								"name": "makerAddress",
								"type": "address"
							},
							{
								"name": "takerAddress",
								"type": "address"
							},
							{
								"name": "feeRecipientAddress",
								"type": "address"
							},
							{
								"name": "senderAddress",
								"type": "address"
							},
							{
								"name": "makerAssetAmount",
								"type": "uint256"
							},
							{
								"name": "takerAssetAmount",
								"type": "uint256"
							},
							{
								"name": "makerFee",
								"type": "uint256"
							},
							{
								"name": "takerFee",
								"type": "uint256"
							},
							{
								"name": "expirationTimeSeconds",
								"type": "uint256"
							},
							{
								"name": "salt",
								"type": "uint256"
							},
							{
								"name": "makerAssetData",
								"type": "bytes"
							},
							{
								"name": "takerAssetData",
								"type": "bytes"
							}
						],
						"name": "orders",
						"type": "tuple[]"
					},
					{
						"name": "zrxFillAmount",
						"type": "uint256"
					}
				],
				"name": "calculateMarketBuyZrxResults",
				"outputs": [
					{
						"components": [
							{
								"name": "makerAssetFilledAmount",
								"type": "uint256"
							},
							{
								"name": "takerAssetFilledAmount",
								"type": "uint256"
							},
							{
								"name": "makerFeePaid",
								"type": "uint256"
							},
							{
								"name": "takerFeePaid",
								"type": "uint256"
							}
						],
						"name": "totalFillResults",
						"type": "tuple"
					}
				],
				"payable": false,
				"stateMutability": "view",
				"type": "function"
			},
			{
				"constant": true,
				"inputs": [
					{
						"name": "",
						"type": "address"
					},
					{
						"name": "",
						"type": "uint256"
					},
					{
						"name": "",
						"type": "bytes"
					}
				],
				"name": "onERC721Received",
				"outputs": [
					{
						"name": "",
						"type": "bytes4"
					}
				],
				"payable": false,
				"stateMutability": "pure",
				"type": "function"
			},
			{
				"inputs": [
					{
						"name": "_exchange",
						"type": "address"
					},
					{
						"name": "_etherToken",
						"type": "address"
					},
					{
						"name": "_zrxToken",
						"type": "address"
					},
					{
						"name": "_zrxAssetData",
						"type": "bytes"
					},
					{
						"name": "_wethAssetData",
						"type": "bytes"
					}
				],
				"payable": false,
				"stateMutability": "nonpayable",
				"type": "constructor"
			},
			{
				"payable": true,
				"stateMutability": "payable",
				"type": "fallback"
			}
		],
		"evm": {
			"bytecode": {
				"linkReferences": {},
				"object": "0x60806040523480156200001157600080fd5b50604051620035f9380380620035f9833981018060405262000037919081019062000433565b60008054600160a060020a03808816600160a060020a03199283161783556001805482891690841617905560028054918716919092161790558251869086908690869086906200008f906003906020850190620002e6565b508051620000a5906004906020840190620002e6565b5050600054604080517f4552433230546f6b656e28616464726573732900000000000000000000000000815290519081900360130181207f60704108000000000000000000000000000000000000000000000000000000008252600160a060020a039092169550636070410894506200012593509091506004016200054a565b602060405180830381600087803b1580156200014057600080fd5b505af115801562000155573d6000803e3d6000fd5b505050506040513d601f19601f820116820180604052506200017b91908101906200040a565b9050600160a060020a03811615620002da576001546040517f095ea7b3000000000000000000000000000000000000000000000000000000008152600160a060020a039091169063095ea7b390620001dc908490600019906004016200052b565b602060405180830381600087803b158015620001f757600080fd5b505af11580156200020c573d6000803e3d6000fd5b505050506040513d601f19601f82011682018060405250620002329190810190620004e3565b506002546040517f095ea7b3000000000000000000000000000000000000000000000000000000008152600160a060020a039091169063095ea7b39062000282908490600019906004016200052b565b602060405180830381600087803b1580156200029d57600080fd5b505af1158015620002b2573d6000803e3d6000fd5b505050506040513d601f19601f82011682018060405250620002d89190810190620004e3565b505b50505050505062000618565b828054600181600116156101000203166002900490600052602060002090601f016020900481019282601f106200032957805160ff191683800117855562000359565b8280016001018555821562000359579182015b82811115620003595782518255916020019190600101906200033c565b50620003679291506200036b565b5090565b6200038891905b8082111562000367576000815560010162000372565b90565b6000620003998251620005af565b9392505050565b6000620003998251620005e0565b6000601f82018313620003c057600080fd5b8151620003d7620003d18262000587565b62000560565b91508082526020830160208301858383011115620003f457600080fd5b62000401838284620005e5565b50505092915050565b6000602082840312156200041d57600080fd5b60006200042b84846200038b565b949350505050565b600080600080600060a086880312156200044c57600080fd5b60006200045a88886200038b565b95505060206200046d888289016200038b565b945050604062000480888289016200038b565b93505060608601516001604060020a038111156200049d57600080fd5b620004ab88828901620003ae565b92505060808601516001604060020a03811115620004c857600080fd5b620004d688828901620003ae565b9150509295509295909350565b600060208284031215620004f657600080fd5b60006200042b8484620003a0565b6200050f81620005af565b82525050565b6200050f81620005bb565b6200050f8162000388565b604081016200053b828562000504565b62000399602083018462000520565b602081016200055a828462000515565b92915050565b6040518181016001604060020a03811182821017156200057f57600080fd5b604052919050565b60006001604060020a038211156200059e57600080fd5b506020601f91909101601f19160190565b600160a060020a031690565b7fffffffff000000000000000000000000000000000000000000000000000000001690565b151590565b60005b8381101562000602578181015183820152602001620005e8565b8381111562000612576000848401525b50505050565b612fd180620006286000396000f3006080604052600436106100a35763ffffffff7c0100000000000000000000000000000000000000000000000000000000600035041663150b7a0281146100ff578063169645f2146101355780631c5b1ec41461015557806320472cf714610175578063725cef0614610197578063b3cd4254146101aa578063bc063e1a146101bf578063c5e6e6ac146101d4578063e58e9c16146101f4578063f0b9e5ba14610214575b60015473ffffffffffffffffffffffffffffffffffffffff1633146100fd576040517f08c379a00000000000000000000000000000000000000000000000000000000081526004016100f490612d34565b60405180910390fd5b005b34801561010b57600080fd5b5061011f61011a3660046123bf565b610234565b60405161012c9190612d26565b60405180910390f35b61014861014336600461249d565b610295565b60405161012c9190612de4565b34801561016157600080fd5b5061014861017036600461267e565b610561565b34801561018157600080fd5b5061018a610627565b60405161012c9190612e35565b6101486101a5366004612583565b61062d565b3480156101b657600080fd5b5061018a6109af565b3480156101cb57600080fd5b5061018a6109b5565b3480156101e057600080fd5b506101486101ef36600461267e565b6109bb565b34801561020057600080fd5b5061014861020f36600461267e565b610a2e565b34801561022057600080fd5b5061011f61022f366004612438565b610b2b565b604080517f6f6e455243373231526563656976656428616464726573732c6164647265737381527f2c75696e743235362c62797465732900000000000000000000000000000000006020820152905190819003602f0190205b949350505050565b61029d612022565b34600080808084116102db576040517f08c379a00000000000000000000000000000000000000000000000000000000081526004016100f490612d54565b6102e6848888610b8b565b92506102f28484610c59565b9150600160009054906101000a900473ffffffffffffffffffffffffffffffffffffffff1673ffffffffffffffffffffffffffffffffffffffff1663d0e30db0836040518263ffffffff167c01000000000000000000000000000000000000000000000000000000000281526004016000604051808303818588803b15801561037a57600080fd5b505af115801561038e573d6000803e3d6000fd5b50505050506103bb8b60008151811015156103a557fe5b9060200190602002015161014001516010610ca0565b60048054604080516020601f60027fffffffffffffffffffffffffffffffffffffffffffffffffffffffffffffffff61010060018816150201909516949094049384018190048102820181019092528281529394508301828280156104615780601f1061043657610100808354040283529160200191610461565b820191906000526020600020905b81548152906001019060200180831161044457829003601f168201915b50505050508b600081518110151561047557fe5b60209081029091010151610160015260025473ffffffffffffffffffffffffffffffffffffffff828116911614156104b9576104b28b8b84610d01565b94506104c9565b6104c68b8b8b8b86610e1b565b94505b6020850151841015610507576040517f08c379a00000000000000000000000000000000000000000000000000000000081526004016100f490612d44565b60208501518214610544576040517f08c379a00000000000000000000000000000000000000000000000000000000081526004016100f490612da4565b61055381338760000151610fa3565b505050509695505050505050565b610569612022565b6000806000610576612022565b600093505b865184101561061d57610592868660000151610c59565b92506105d587858151811015156105a557fe5b9060200190602002015160a0015188868151811015156105c157fe5b90602001906020020151608001518561117d565b91506105f887858151811015156105e857fe5b9060200190602002015183611192565b905061060485826112db565b84518614156106125761061d565b60019093019261057b565b5050505092915050565b61251c81565b610635612022565b346000808211610671576040517f08c379a00000000000000000000000000000000000000000000000000000000081526004016100f490612d54565b600086116106ab576040517f08c379a00000000000000000000000000000000000000000000000000000000081526004016100f490612d54565b6106d38a60008151811015156106bd57fe5b906020019060200201516101400151600061133d565b604080517f4552433230546f6b656e28616464726573732900000000000000000000000000815290519081900360130190209091507fffffffff000000000000000000000000000000000000000000000000000000008083169116148061078f5750604080517f455243373231546f6b656e28616464726573732c75696e7432353629000000008152905190819003601c0190207fffffffff000000000000000000000000000000000000000000000000000000008281169116145b15156107c7576040517f08c379a00000000000000000000000000000000000000000000000000000000081526004016100f490612dc4565b600160009054906101000a900473ffffffffffffffffffffffffffffffffffffffff1673ffffffffffffffffffffffffffffffffffffffff1663d0e30db0836040518263ffffffff167c01000000000000000000000000000000000000000000000000000000000281526004016000604051808303818588803b15801561084d57600080fd5b505af1158015610861573d6000803e3d6000fd5b5050604080517f4552433230546f6b656e28616464726573732900000000000000000000000000815290519081900360130190207fffffffff000000000000000000000000000000000000000000000000000000008581169116141592506108da915050576108d38a8a8a8a8a6113aa565b9250610947565b604080517f455243373231546f6b656e28616464726573732c75696e7432353629000000008152905190819003601c0190207fffffffff0000000000000000000000000000000000000000000000000000000082811691161415610947576109448a8a8a8a611701565b92505b6020830151821015610985576040517f08c379a00000000000000000000000000000000000000000000000000000000081526004016100f490612d44565b6109a2610996838560200151610c59565b84602001518787611a03565b5050979650505050505050565b61271081565b6103e881565b6109c3612022565b6000806109ce612022565b600092505b8551831015610a25576109ea858560200151610c59565b91506109fd86848151811015156105e857fe5b9050610a0984826112db565b8484602001511415610a1a57610a25565b6001909201916109d3565b50505092915050565b610a36612022565b6000806000610a43612022565b600093505b865184101561061d57610a5f868660000151610c59565b9250610ac68785815181101515610a7257fe5b9060200190602002015160a00151610ac08987815181101515610a9157fe5b90602001906020020151608001518a88815181101515610aad57fe5b9060200190602002015160e00151610c59565b8561117d565b9150610af38785815181101515610ad957fe5b90602001906020020151610aee846001611af0565b611192565b9050610b0781600001518260600151610c59565b8152610b1385826112db565b84518611610b205761061d565b600190930192610a48565b604080517f6f6e455243373231526563656976656428616464726573732c75696e7432353681527f2c62797465732900000000000000000000000000000000000000000000000000602082015290519081900360270190205b9392505050565b6000808361ffff16118015610bb5575073ffffffffffffffffffffffffffffffffffffffff821615155b15610b84576103e861ffff84161115610bfa576040517f08c379a00000000000000000000000000000000000000000000000000000000081526004016100f490612d84565b610c0b61ffff84166127108661117d565b60405190915073ffffffffffffffffffffffffffffffffffffffff83169082156108fc029083906000818181858888f19350505050158015610c51573d6000803e3d6000fd5b509392505050565b600082821115610c95576040517f08c379a00000000000000000000000000000000000000000000000000000000081526004016100f490612d74565b508082035b92915050565b600081601401835110151515610ce2576040517f08c379a00000000000000000000000000000000000000000000000000000000081526004016100f490612db4565b50016014015173ffffffffffffffffffffffffffffffffffffffff1690565b610d09612022565b600080546040517f7e1d980800000000000000000000000000000000000000000000000000000000815273ffffffffffffffffffffffffffffffffffffffff90911690637e1d980890610d6490889087908990600401612cf4565b608060405180830381600087803b158015610d7e57600080fd5b505af1158015610d92573d6000803e3d6000fd5b505050506040513d601f19601f82011682018060405250610db691908101906126cf565b9150610dca82600001518360600151610c59565b9050610dda826000015182611b3a565b1515610e12576040517f08c379a00000000000000000000000000000000000000000000000000000000081526004016100f490612da4565b81529392505050565b610e23612022565b6000610e2d612022565b610e35612022565b610e3d612022565b859350610e4a8a876109bb565b9250600083606001511115610ede57610e6888888560600151611b57565b9150610e8186610e7c888560200151610c59565b611b3a565b1515610eb9576040517f08c379a00000000000000000000000000000000000000000000000000000000081526004016100f490612da4565b610ec7848360200151610c59565b606080840151908701526020808401519087015293505b6000546040517f7e1d980800000000000000000000000000000000000000000000000000000000815273ffffffffffffffffffffffffffffffffffffffff90911690637e1d980890610f38908d9088908e90600401612cf4565b608060405180830381600087803b158015610f5257600080fd5b505af1158015610f66573d6000803e3d6000fd5b505050506040513d601f19601f82011682018060405250610f8a91908101906126cf565b9050610f9685826112db565b5050505095945050505050565b604080517f7472616e7366657228616464726573732c75696e7432353629000000000000008152905190819003601901812060009173ffffffffffffffffffffffffffffffffffffffff861691906110019086908690602401612ca0565b604080517fffffffffffffffffffffffffffffffffffffffffffffffffffffffffffffffe08184030181529181526020820180517bffffffffffffffffffffffffffffffffffffffffffffffffffffffff167fffffffff000000000000000000000000000000000000000000000000000000009094169390931783525181519192909182919080838360005b838110156110a557818101518382015260200161108d565b50505050905090810190601f1680156110d25780820380516001836020036101000a031916815260200191505b509150506000604051808303816000865af192505050801515611121576040517f08c379a00000000000000000000000000000000000000000000000000000000081526004016100f490612d94565b3d1561113e575060003d6020141561113e5760206000803e506000515b801515611177576040517f08c379a00000000000000000000000000000000000000000000000000000000081526004016100f490612d94565b50505050565b600061028d61118c8584611e90565b84611eeb565b61119a612022565b6111a261204b565b600080546040517fc75e0a81000000000000000000000000000000000000000000000000000000008152829173ffffffffffffffffffffffffffffffffffffffff169063c75e0a81906111f9908990600401612df2565b606060405180830381600087803b15801561121357600080fd5b505af1158015611227573d6000803e3d6000fd5b505050506040513d601f19601f8201168201806040525061124b91908101906126ed565b805190935060ff1660031461125f57610a25565b6112718660a001518460400151610c59565b915061127d8583611f02565b90508084602001818152505061129c818760a00151886080015161117d565b845260a086015160c08701516112b391839161117d565b604085015260a086015160e08701516112cd91839161117d565b606085015250505092915050565b815181516112e99190611af0565b8252602080830151908201516112ff9190611af0565b6020830152604080830151908201516113189190611af0565b6040830152606080830151908201516113319190611af0565b60609092019190915250565b60008160040183511015151561137f576040517f08c379a00000000000000000000000000000000000000000000000000000000081526004016100f490612dd4565b5050602001517fffffffff000000000000000000000000000000000000000000000000000000001690565b6113b2612022565b60006113bc612022565b6113c4612022565b6113cc612022565b6113de8a60008151811015156103a557fe5b60048054604080516020601f60027fffffffffffffffffffffffffffffffffffffffffffffffffffffffffffffffff61010060018816150201909516949094049384018190048102820181019092528281529397508301828280156114845780601f1061145957610100808354040283529160200191611484565b820191906000526020600020905b81548152906001019060200180831161146757829003601f168201915b50505050508a600081518110151561149857fe5b60209081029091010151610160015260025473ffffffffffffffffffffffffffffffffffffffff85811691161415611576576114d58a8a88611b57565b8051909350861115611513576040517f08c379a00000000000000000000000000000000000000000000000000000000081526004016100f490612da4565b61151d85846112db565b61153961153286600001518760600151611af0565b8651611b3a565b1515611571576040517f08c379a00000000000000000000000000000000000000000000000000000000081526004016100f490612da4565b6116f2565b6115808a87610561565b91506000826060015111156115b55761159e88888460600151611b57565b602080820151908701526060808201519087015290505b6000546040517fe5fa431b00000000000000000000000000000000000000000000000000000000815273ffffffffffffffffffffffffffffffffffffffff9091169063e5fa431b9061160f908d908a908e90600401612cf4565b608060405180830381600087803b15801561162957600080fd5b505af115801561163d573d6000803e3d6000fd5b505050506040513d601f19601f8201168201806040525061166191908101906126cf565b8051909350861461169e576040517f08c379a00000000000000000000000000000000000000000000000000000000081526004016100f490612da4565b6116a885846112db565b6116ba85602001518460200151611b3a565b15156116f2576040517f08c379a00000000000000000000000000000000000000000000000000000000081526004016100f490612da4565b610f9684338560000151610fa3565b611709612022565b60008060606000611718612022565b611720612022565b8a5194508460405190808252806020026020018201604052801561174e578160200160208202803883390190505b509350600092505b8483101561188a57611783868c8581518110151561177057fe5b9060200190602002015160e00151611af0565b60048054604080516020601f60027fffffffffffffffffffffffffffffffffffffffffffffffffffffffffffffffff61010060018816150201909516949094049384018190048102820181019092528281529399508301828280156118295780601f106117fe57610100808354040283529160200191611829565b820191906000526020600020905b81548152906001019060200180831161180c57829003601f168201915b50505050508b8481518110151561183c57fe5b6020908102909101015161016001528a518b908490811061185957fe5b9060200190602002015160a00151848481518110151561187557fe5b60209081029091010152600190920191611756565b60008611156118b55761189e898988611b57565b606080820151908901526020808201519089015291505b6000546040517f4d0ae54600000000000000000000000000000000000000000000000000000000815273ffffffffffffffffffffffffffffffffffffffff90911690634d0ae5469061190f908e9088908f90600401612cbb565b608060405180830381600087803b15801561192957600080fd5b505af115801561193d573d6000803e3d6000fd5b505050506040513d601f19601f8201168201806040525061196191908101906126cf565b905061196d87826112db565b61197f87602001518260200151611b3a565b15156119b7576040517f08c379a00000000000000000000000000000000000000000000000000000000081526004016100f490612da4565b600092505b848310156119f5576119ea8b848151811015156119d557fe5b90602001906020020151610140015133611f18565b6001909201916119bc565b505050505050949350505050565b6000806000861115611ae8576001546040517f2e1a7d4d00000000000000000000000000000000000000000000000000000000815273ffffffffffffffffffffffffffffffffffffffff90911690632e1a7d4d90611a65908990600401612e43565b600060405180830381600087803b158015611a7f57600080fd5b505af1158015611a93573d6000803e3d6000fd5b50505050611aa2858585610b8b565b9150611aae8683610c59565b90506000811115611ae857604051339082156108fc029083906000818181858888f19350505050158015611ae6573d6000803e3d6000fd5b505b505050505050565b600082820183811015611b2f576040517f08c379a00000000000000000000000000000000000000000000000000000000081526004016100f490612d74565b8091505b5092915050565b600080611b4c61251c6127108661117d565b909210159392505050565b611b5f612022565b6000806000611b6c612022565b600093505b8751841015611e85576003805460408051602060026001851615610100027fffffffffffffffffffffffffffffffffffffffffffffffffffffffffffffffff0190941693909304601f81018490048402820184019092528181529291830182828015611c1e5780601f10611bf357610100808354040283529160200191611c1e565b820191906000526020600020905b815481529060010190602001808311611c0157829003601f168201915b50505050508885815181101515611c3157fe5b602090810290910181015161014001919091526004805460408051601f60027fffffffffffffffffffffffffffffffffffffffffffffffffffffffffffffffff610100600187161502019094169390930492830185900485028101850190915281815292830182828015611ce65780601f10611cbb57610100808354040283529160200191611ce6565b820191906000526020600020905b815481529060010190602001808311611cc957829003601f168201915b50505050508885815181101515611cf957fe5b6020908102909101015161016001528451611d15908790610c59565b9250611d638885815181101515611d2857fe5b9060200190602002015160a00151610ac08a87815181101515611d4757fe5b90602001906020020151608001518b88815181101515610aad57fe5b600054895191935073ffffffffffffffffffffffffffffffffffffffff169063b4be83d5908a9087908110611d9457fe5b90602001906020020151611da9856001611af0565b8a88815181101515611db757fe5b906020019060200201516040518463ffffffff167c0100000000000000000000000000000000000000000000000000000000028152600401611dfb93929190612e03565b608060405180830381600087803b158015611e1557600080fd5b505af1158015611e29573d6000803e3d6000fd5b505050506040513d601f19601f82011682018060405250611e4d91908101906126cf565b9050611e6181600001518260600151610c59565b8152611e6d85826112db565b84518611611e7a57611e85565b600190930192611b71565b505050509392505050565b600080831515611ea35760009150611b33565b50828202828482811515611eb357fe5b0414611b2f576040517f08c379a00000000000000000000000000000000000000000000000000000000081526004016100f490612d74565b6000808284811515611ef957fe5b04949350505050565b6000818310611f115781610b84565b5090919050565b600080611f2c84601063ffffffff610ca016565b9150611f3f84602463ffffffff611fd016565b6040517f23b872dd00000000000000000000000000000000000000000000000000000000815290915073ffffffffffffffffffffffffffffffffffffffff8316906323b872dd90611f9890309087908690600401612c78565b600060405180830381600087803b158015611fb257600080fd5b505af1158015611fc6573d6000803e3d6000fd5b5050505050505050565b6000610b848383600081602001835110151515612019576040517f08c379a00000000000000000000000000000000000000000000000000000000081526004016100f490612d64565b50016020015190565b608060405190810160405280600081526020016000815260200160008152602001600081525090565b604080516060810182526000808252602082018190529181019190915290565b6000610b848235612ee9565b6000601f8201831361208857600080fd5b813561209b61209682612e78565b612e51565b81815260209384019390925082018360005b8381101561061d57813586016120c38882612142565b84525060209283019291909101906001016120ad565b6000601f820183136120ea57600080fd5b81356120f861209682612e78565b81815260209384019390925082018360005b8381101561061d57813586016121208882612252565b845250602092830192919091019060010161210a565b6000610b848251612f2e565b6000601f8201831361215357600080fd5b813561216161209682612e99565b9150808252602083016020830185838301111561217d57600080fd5b610a25838284612f37565b60006080828403121561219a57600080fd5b6121a46080612e51565b905060006121b28484612136565b82525060206121c384848301612136565b60208301525060406121d784828501612136565b60408301525060606121eb84828501612136565b60608301525092915050565b60006060828403121561220957600080fd5b6122136060612e51565b9050600061222184846123b3565b825250602061223284848301612136565b602083015250604061224684828501612136565b60408301525092915050565b6000610180828403121561226557600080fd5b612270610180612e51565b9050600061227e848461206b565b825250602061228f8484830161206b565b60208301525060406122a38482850161206b565b60408301525060606122b78482850161206b565b60608301525060806122cb848285016123a7565b60808301525060a06122df848285016123a7565b60a08301525060c06122f3848285016123a7565b60c08301525060e0612307848285016123a7565b60e08301525061010061231c848285016123a7565b61010083015250610120612332848285016123a7565b6101208301525061014082013567ffffffffffffffff81111561235457600080fd5b61236084828501612142565b6101408301525061016082013567ffffffffffffffff81111561238257600080fd5b61238e84828501612142565b6101608301525092915050565b6000610b848235612f27565b6000610b848235612f2e565b6000610b848251612f31565b600080600080608085870312156123d557600080fd5b60006123e1878761206b565b94505060206123f28782880161206b565b9350506040612403878288016123a7565b925050606085013567ffffffffffffffff81111561242057600080fd5b61242c87828801612142565b91505092959194509250565b60008060006060848603121561244d57600080fd5b6000612459868661206b565b935050602061246a868287016123a7565b925050604084013567ffffffffffffffff81111561248757600080fd5b61249386828701612142565b9150509250925092565b60008060008060008060c087890312156124b657600080fd5b863567ffffffffffffffff8111156124cd57600080fd5b6124d989828a016120d9565b965050602087013567ffffffffffffffff8111156124f657600080fd5b61250289828a01612077565b955050604087013567ffffffffffffffff81111561251f57600080fd5b61252b89828a016120d9565b945050606087013567ffffffffffffffff81111561254857600080fd5b61255489828a01612077565b935050608061256589828a0161239b565b92505060a061257689828a0161206b565b9150509295509295509295565b600080600080600080600060e0888a03121561259e57600080fd5b873567ffffffffffffffff8111156125b557600080fd5b6125c18a828b016120d9565b975050602088013567ffffffffffffffff8111156125de57600080fd5b6125ea8a828b01612077565b965050604088013567ffffffffffffffff81111561260757600080fd5b6126138a828b016120d9565b955050606088013567ffffffffffffffff81111561263057600080fd5b61263c8a828b01612077565b945050608061264d8a828b016123a7565b93505060a061265e8a828b0161239b565b92505060c061266f8a828b0161206b565b91505092959891949750929550565b6000806040838503121561269157600080fd5b823567ffffffffffffffff8111156126a857600080fd5b6126b4858286016120d9565b92505060206126c5858286016123a7565b9150509250929050565b6000608082840312156126e157600080fd5b600061028d8484612188565b6000606082840312156126ff57600080fd5b600061028d84846121f7565b61271481612ee9565b82525050565b600061272582612ee5565b8084526020840193508360208202850161273e85612edf565b60005b8481101561277557838303885261275983835161283c565b925061276482612edf565b602098909801979150600101612741565b50909695505050505050565b600061278c82612ee5565b808452602084019350836020820285016127a585612edf565b60005b848110156127755783830388526127c0838351612b63565b92506127cb82612edf565b6020989098019791506001016127a8565b60006127e782612ee5565b8084526020840193506127f983612edf565b60005b828110156128295761280f868351612c6f565b61281882612edf565b6020969096019591506001016127fc565b5093949350505050565b61271481612f02565b600061284782612ee5565b80845261285b816020860160208601612f43565b61286481612f6f565b9093016020019392505050565b602381527f44454641554c545f46554e4354494f4e5f574554485f434f4e54524143545f4f60208201527f4e4c590000000000000000000000000000000000000000000000000000000000604082015260600190565b601181527f494e56414c49445f4d53475f56414c5545000000000000000000000000000000602082015260400190565b601781527f56414c55455f475245415445525f5448414e5f5a45524f000000000000000000602082015260400190565b602681527f475245415445525f4f525f455155414c5f544f5f33325f4c454e4754485f524560208201527f5155495245440000000000000000000000000000000000000000000000000000604082015260600190565b601081527f55494e543235365f4f564552464c4f5700000000000000000000000000000000602082015260400190565b601881527f4645455f50524f504f5254494f4e5f544f4f5f4c415247450000000000000000602082015260400190565b600f81527f5452414e534645525f4641494c45440000000000000000000000000000000000602082015260400190565b601681527f554e41434345505441424c455f5448524553484f4c4400000000000000000000602082015260400190565b602681527f475245415445525f4f525f455155414c5f544f5f32305f4c454e4754485f524560208201527f5155495245440000000000000000000000000000000000000000000000000000604082015260600190565b601781527f554e535550504f525445445f544f4b454e5f50524f5859000000000000000000602082015260400190565b602581527f475245415445525f4f525f455155414c5f544f5f345f4c454e4754485f52455160208201527f5549524544000000000000000000000000000000000000000000000000000000604082015260600190565b80516080830190612b2a8482612c6f565b506020820151612b3d6020850182612c6f565b506040820151612b506040850182612c6f565b5060608201516111776060850182612c6f565b8051600090610180840190612b78858261270b565b506020830151612b8b602086018261270b565b506040830151612b9e604086018261270b565b506060830151612bb1606086018261270b565b506080830151612bc46080860182612c6f565b5060a0830151612bd760a0860182612c6f565b5060c0830151612bea60c0860182612c6f565b5060e0830151612bfd60e0860182612c6f565b50610100830151612c12610100860182612c6f565b50610120830151612c27610120860182612c6f565b50610140830151848203610140860152612c41828261283c565b915050610160830151848203610160860152612c5d828261283c565b95945050505050565b61271481612f27565b61271481612f2e565b60608101612c86828661270b565b612c93602083018561270b565b61028d6040830184612c6f565b60408101612cae828561270b565b610b846020830184612c6f565b60608082528101612ccc8186612781565b90508181036020830152612ce081856127dc565b90508181036040830152612c5d818461271a565b60608082528101612d058186612781565b9050612d146020830185612c6f565b8181036040830152612c5d818461271a565b60208101610c9a8284612833565b60208082528101610c9a81612871565b60208082528101610c9a816128c7565b60208082528101610c9a816128f7565b60208082528101610c9a81612927565b60208082528101610c9a8161297d565b60208082528101610c9a816129ad565b60208082528101610c9a816129dd565b60208082528101610c9a81612a0d565b60208082528101610c9a81612a3d565b60208082528101610c9a81612a93565b60208082528101610c9a81612ac3565b60808101610c9a8284612b19565b60208082528101610b848184612b63565b60608082528101612e148186612b63565b9050612e236020830185612c6f565b8181036040830152612c5d818461283c565b60208101610c9a8284612c66565b60208101610c9a8284612c6f565b60405181810167ffffffffffffffff81118282101715612e7057600080fd5b604052919050565b600067ffffffffffffffff821115612e8f57600080fd5b5060209081020190565b600067ffffffffffffffff821115612eb057600080fd5b506020601f919091017fffffffffffffffffffffffffffffffffffffffffffffffffffffffffffffffe0160190565b60200190565b5190565b73ffffffffffffffffffffffffffffffffffffffff1690565b7fffffffff000000000000000000000000000000000000000000000000000000001690565b61ffff1690565b90565b60ff1690565b82818337506000910152565b60005b83811015612f5e578181015183820152602001612f46565b838111156111775750506000910152565b601f017fffffffffffffffffffffffffffffffffffffffffffffffffffffffffffffffe016905600a265627a7a723058208489db9498c397b472d53b1a17ffb22e708fa9c873a4adac874bc0843cb5a01d6c6578706572696d656e74616cf50037",
				"opcodes": "PUSH1 0x80 PUSH1 0x40 MSTORE CALLVALUE DUP1 ISZERO PUSH3 0x11 JUMPI PUSH1 0x0 DUP1 REVERT JUMPDEST POP PUSH1 0x40 MLOAD PUSH3 0x35F9 CODESIZE SUB DUP1 PUSH3 0x35F9 DUP4 CODECOPY DUP2 ADD DUP1 PUSH1 0x40 MSTORE PUSH3 0x37 SWAP2 SWAP1 DUP2 ADD SWAP1 PUSH3 0x433 JUMP JUMPDEST PUSH1 0x0 DUP1 SLOAD PUSH1 0x1 PUSH1 0xA0 PUSH1 0x2 EXP SUB DUP1 DUP9 AND PUSH1 0x1 PUSH1 0xA0 PUSH1 0x2 EXP SUB NOT SWAP3 DUP4 AND OR DUP4 SSTORE PUSH1 0x1 DUP1 SLOAD DUP3 DUP10 AND SWAP1 DUP5 AND OR SWAP1 SSTORE PUSH1 0x2 DUP1 SLOAD SWAP2 DUP8 AND SWAP2 SWAP1 SWAP3 AND OR SWAP1 SSTORE DUP3 MLOAD DUP7 SWAP1 DUP7 SWAP1 DUP7 SWAP1 DUP7 SWAP1 DUP7 SWAP1 PUSH3 0x8F SWAP1 PUSH1 0x3 SWAP1 PUSH1 0x20 DUP6 ADD SWAP1 PUSH3 0x2E6 JUMP JUMPDEST POP DUP1 MLOAD PUSH3 0xA5 SWAP1 PUSH1 0x4 SWAP1 PUSH1 0x20 DUP5 ADD SWAP1 PUSH3 0x2E6 JUMP JUMPDEST POP POP PUSH1 0x0 SLOAD PUSH1 0x40 DUP1 MLOAD PUSH32 0x4552433230546F6B656E28616464726573732900000000000000000000000000 DUP2 MSTORE SWAP1 MLOAD SWAP1 DUP2 SWAP1 SUB PUSH1 0x13 ADD DUP2 KECCAK256 PUSH32 0x6070410800000000000000000000000000000000000000000000000000000000 DUP3 MSTORE PUSH1 0x1 PUSH1 0xA0 PUSH1 0x2 EXP SUB SWAP1 SWAP3 AND SWAP6 POP PUSH4 0x60704108 SWAP5 POP PUSH3 0x125 SWAP4 POP SWAP1 SWAP2 POP PUSH1 0x4 ADD PUSH3 0x54A JUMP JUMPDEST PUSH1 0x20 PUSH1 0x40 MLOAD DUP1 DUP4 SUB DUP2 PUSH1 0x0 DUP8 DUP1 EXTCODESIZE ISZERO DUP1 ISZERO PUSH3 0x140 JUMPI PUSH1 0x0 DUP1 REVERT JUMPDEST POP GAS CALL ISZERO DUP1 ISZERO PUSH3 0x155 JUMPI RETURNDATASIZE PUSH1 0x0 DUP1 RETURNDATACOPY RETURNDATASIZE PUSH1 0x0 REVERT JUMPDEST POP POP POP POP PUSH1 0x40 MLOAD RETURNDATASIZE PUSH1 0x1F NOT PUSH1 0x1F DUP3 ADD AND DUP3 ADD DUP1 PUSH1 0x40 MSTORE POP PUSH3 0x17B SWAP2 SWAP1 DUP2 ADD SWAP1 PUSH3 0x40A JUMP JUMPDEST SWAP1 POP PUSH1 0x1 PUSH1 0xA0 PUSH1 0x2 EXP SUB DUP2 AND ISZERO PUSH3 0x2DA JUMPI PUSH1 0x1 SLOAD PUSH1 0x40 MLOAD PUSH32 0x95EA7B300000000000000000000000000000000000000000000000000000000 DUP2 MSTORE PUSH1 0x1 PUSH1 0xA0 PUSH1 0x2 EXP SUB SWAP1 SWAP2 AND SWAP1 PUSH4 0x95EA7B3 SWAP1 PUSH3 0x1DC SWAP1 DUP5 SWAP1 PUSH1 0x0 NOT SWAP1 PUSH1 0x4 ADD PUSH3 0x52B JUMP JUMPDEST PUSH1 0x20 PUSH1 0x40 MLOAD DUP1 DUP4 SUB DUP2 PUSH1 0x0 DUP8 DUP1 EXTCODESIZE ISZERO DUP1 ISZERO PUSH3 0x1F7 JUMPI PUSH1 0x0 DUP1 REVERT JUMPDEST POP GAS CALL ISZERO DUP1 ISZERO PUSH3 0x20C JUMPI RETURNDATASIZE PUSH1 0x0 DUP1 RETURNDATACOPY RETURNDATASIZE PUSH1 0x0 REVERT JUMPDEST POP POP POP POP PUSH1 0x40 MLOAD RETURNDATASIZE PUSH1 0x1F NOT PUSH1 0x1F DUP3 ADD AND DUP3 ADD DUP1 PUSH1 0x40 MSTORE POP PUSH3 0x232 SWAP2 SWAP1 DUP2 ADD SWAP1 PUSH3 0x4E3 JUMP JUMPDEST POP PUSH1 0x2 SLOAD PUSH1 0x40 MLOAD PUSH32 0x95EA7B300000000000000000000000000000000000000000000000000000000 DUP2 MSTORE PUSH1 0x1 PUSH1 0xA0 PUSH1 0x2 EXP SUB SWAP1 SWAP2 AND SWAP1 PUSH4 0x95EA7B3 SWAP1 PUSH3 0x282 SWAP1 DUP5 SWAP1 PUSH1 0x0 NOT SWAP1 PUSH1 0x4 ADD PUSH3 0x52B JUMP JUMPDEST PUSH1 0x20 PUSH1 0x40 MLOAD DUP1 DUP4 SUB DUP2 PUSH1 0x0 DUP8 DUP1 EXTCODESIZE ISZERO DUP1 ISZERO PUSH3 0x29D JUMPI PUSH1 0x0 DUP1 REVERT JUMPDEST POP GAS CALL ISZERO DUP1 ISZERO PUSH3 0x2B2 JUMPI RETURNDATASIZE PUSH1 0x0 DUP1 RETURNDATACOPY RETURNDATASIZE PUSH1 0x0 REVERT JUMPDEST POP POP POP POP PUSH1 0x40 MLOAD RETURNDATASIZE PUSH1 0x1F NOT PUSH1 0x1F DUP3 ADD AND DUP3 ADD DUP1 PUSH1 0x40 MSTORE POP PUSH3 0x2D8 SWAP2 SWAP1 DUP2 ADD SWAP1 PUSH3 0x4E3 JUMP JUMPDEST POP JUMPDEST POP POP POP POP POP POP PUSH3 0x618 JUMP JUMPDEST DUP3 DUP1 SLOAD PUSH1 0x1 DUP2 PUSH1 0x1 AND ISZERO PUSH2 0x100 MUL SUB AND PUSH1 0x2 SWAP1 DIV SWAP1 PUSH1 0x0 MSTORE PUSH1 0x20 PUSH1 0x0 KECCAK256 SWAP1 PUSH1 0x1F ADD PUSH1 0x20 SWAP1 DIV DUP2 ADD SWAP3 DUP3 PUSH1 0x1F LT PUSH3 0x329 JUMPI DUP1 MLOAD PUSH1 0xFF NOT AND DUP4 DUP1 ADD OR DUP6 SSTORE PUSH3 0x359 JUMP JUMPDEST DUP3 DUP1 ADD PUSH1 0x1 ADD DUP6 SSTORE DUP3 ISZERO PUSH3 0x359 JUMPI SWAP2 DUP3 ADD JUMPDEST DUP3 DUP2 GT ISZERO PUSH3 0x359 JUMPI DUP3 MLOAD DUP3 SSTORE SWAP2 PUSH1 0x20 ADD SWAP2 SWAP1 PUSH1 0x1 ADD SWAP1 PUSH3 0x33C JUMP JUMPDEST POP PUSH3 0x367 SWAP3 SWAP2 POP PUSH3 0x36B JUMP JUMPDEST POP SWAP1 JUMP JUMPDEST PUSH3 0x388 SWAP2 SWAP1 JUMPDEST DUP1 DUP3 GT ISZERO PUSH3 0x367 JUMPI PUSH1 0x0 DUP2 SSTORE PUSH1 0x1 ADD PUSH3 0x372 JUMP JUMPDEST SWAP1 JUMP JUMPDEST PUSH1 0x0 PUSH3 0x399 DUP3 MLOAD PUSH3 0x5AF JUMP JUMPDEST SWAP4 SWAP3 POP POP POP JUMP JUMPDEST PUSH1 0x0 PUSH3 0x399 DUP3 MLOAD PUSH3 0x5E0 JUMP JUMPDEST PUSH1 0x0 PUSH1 0x1F DUP3 ADD DUP4 SGT PUSH3 0x3C0 JUMPI PUSH1 0x0 DUP1 REVERT JUMPDEST DUP2 MLOAD PUSH3 0x3D7 PUSH3 0x3D1 DUP3 PUSH3 0x587 JUMP JUMPDEST PUSH3 0x560 JUMP JUMPDEST SWAP2 POP DUP1 DUP3 MSTORE PUSH1 0x20 DUP4 ADD PUSH1 0x20 DUP4 ADD DUP6 DUP4 DUP4 ADD GT ISZERO PUSH3 0x3F4 JUMPI PUSH1 0x0 DUP1 REVERT JUMPDEST PUSH3 0x401 DUP4 DUP3 DUP5 PUSH3 0x5E5 JUMP JUMPDEST POP POP POP SWAP3 SWAP2 POP POP JUMP JUMPDEST PUSH1 0x0 PUSH1 0x20 DUP3 DUP5 SUB SLT ISZERO PUSH3 0x41D JUMPI PUSH1 0x0 DUP1 REVERT JUMPDEST PUSH1 0x0 PUSH3 0x42B DUP5 DUP5 PUSH3 0x38B JUMP JUMPDEST SWAP5 SWAP4 POP POP POP POP JUMP JUMPDEST PUSH1 0x0 DUP1 PUSH1 0x0 DUP1 PUSH1 0x0 PUSH1 0xA0 DUP7 DUP9 SUB SLT ISZERO PUSH3 0x44C JUMPI PUSH1 0x0 DUP1 REVERT JUMPDEST PUSH1 0x0 PUSH3 0x45A DUP9 DUP9 PUSH3 0x38B JUMP JUMPDEST SWAP6 POP POP PUSH1 0x20 PUSH3 0x46D DUP9 DUP3 DUP10 ADD PUSH3 0x38B JUMP JUMPDEST SWAP5 POP POP PUSH1 0x40 PUSH3 0x480 DUP9 DUP3 DUP10 ADD PUSH3 0x38B JUMP JUMPDEST SWAP4 POP POP PUSH1 0x60 DUP7 ADD MLOAD PUSH1 0x1 PUSH1 0x40 PUSH1 0x2 EXP SUB DUP2 GT ISZERO PUSH3 0x49D JUMPI PUSH1 0x0 DUP1 REVERT JUMPDEST PUSH3 0x4AB DUP9 DUP3 DUP10 ADD PUSH3 0x3AE JUMP JUMPDEST SWAP3 POP POP PUSH1 0x80 DUP7 ADD MLOAD PUSH1 0x1 PUSH1 0x40 PUSH1 0x2 EXP SUB DUP2 GT ISZERO PUSH3 0x4C8 JUMPI PUSH1 0x0 DUP1 REVERT JUMPDEST PUSH3 0x4D6 DUP9 DUP3 DUP10 ADD PUSH3 0x3AE JUMP JUMPDEST SWAP2 POP POP SWAP3 SWAP6 POP SWAP3 SWAP6 SWAP1 SWAP4 POP JUMP JUMPDEST PUSH1 0x0 PUSH1 0x20 DUP3 DUP5 SUB SLT ISZERO PUSH3 0x4F6 JUMPI PUSH1 0x0 DUP1 REVERT JUMPDEST PUSH1 0x0 PUSH3 0x42B DUP5 DUP5 PUSH3 0x3A0 JUMP JUMPDEST PUSH3 0x50F DUP2 PUSH3 0x5AF JUMP JUMPDEST DUP3 MSTORE POP POP JUMP JUMPDEST PUSH3 0x50F DUP2 PUSH3 0x5BB JUMP JUMPDEST PUSH3 0x50F DUP2 PUSH3 0x388 JUMP JUMPDEST PUSH1 0x40 DUP2 ADD PUSH3 0x53B DUP3 DUP6 PUSH3 0x504 JUMP JUMPDEST PUSH3 0x399 PUSH1 0x20 DUP4 ADD DUP5 PUSH3 0x520 JUMP JUMPDEST PUSH1 0x20 DUP2 ADD PUSH3 0x55A DUP3 DUP5 PUSH3 0x515 JUMP JUMPDEST SWAP3 SWAP2 POP POP JUMP JUMPDEST PUSH1 0x40 MLOAD DUP2 DUP2 ADD PUSH1 0x1 PUSH1 0x40 PUSH1 0x2 EXP SUB DUP2 GT DUP3 DUP3 LT OR ISZERO PUSH3 0x57F JUMPI PUSH1 0x0 DUP1 REVERT JUMPDEST PUSH1 0x40 MSTORE SWAP2 SWAP1 POP JUMP JUMPDEST PUSH1 0x0 PUSH1 0x1 PUSH1 0x40 PUSH1 0x2 EXP SUB DUP3 GT ISZERO PUSH3 0x59E JUMPI PUSH1 0x0 DUP1 REVERT JUMPDEST POP PUSH1 0x20 PUSH1 0x1F SWAP2 SWAP1 SWAP2 ADD PUSH1 0x1F NOT AND ADD SWAP1 JUMP JUMPDEST PUSH1 0x1 PUSH1 0xA0 PUSH1 0x2 EXP SUB AND SWAP1 JUMP JUMPDEST PUSH32 0xFFFFFFFF00000000000000000000000000000000000000000000000000000000 AND SWAP1 JUMP JUMPDEST ISZERO ISZERO SWAP1 JUMP JUMPDEST PUSH1 0x0 JUMPDEST DUP4 DUP2 LT ISZERO PUSH3 0x602 JUMPI DUP2 DUP2 ADD MLOAD DUP4 DUP3 ADD MSTORE PUSH1 0x20 ADD PUSH3 0x5E8 JUMP JUMPDEST DUP4 DUP2 GT ISZERO PUSH3 0x612 JUMPI PUSH1 0x0 DUP5 DUP5 ADD MSTORE JUMPDEST POP POP POP POP JUMP JUMPDEST PUSH2 0x2FD1 DUP1 PUSH3 0x628 PUSH1 0x0 CODECOPY PUSH1 0x0 RETURN STOP PUSH1 0x80 PUSH1 0x40 MSTORE PUSH1 0x4 CALLDATASIZE LT PUSH2 0xA3 JUMPI PUSH4 0xFFFFFFFF PUSH29 0x100000000000000000000000000000000000000000000000000000000 PUSH1 0x0 CALLDATALOAD DIV AND PUSH4 0x150B7A02 DUP2 EQ PUSH2 0xFF JUMPI DUP1 PUSH4 0x169645F2 EQ PUSH2 0x135 JUMPI DUP1 PUSH4 0x1C5B1EC4 EQ PUSH2 0x155 JUMPI DUP1 PUSH4 0x20472CF7 EQ PUSH2 0x175 JUMPI DUP1 PUSH4 0x725CEF06 EQ PUSH2 0x197 JUMPI DUP1 PUSH4 0xB3CD4254 EQ PUSH2 0x1AA JUMPI DUP1 PUSH4 0xBC063E1A EQ PUSH2 0x1BF JUMPI DUP1 PUSH4 0xC5E6E6AC EQ PUSH2 0x1D4 JUMPI DUP1 PUSH4 0xE58E9C16 EQ PUSH2 0x1F4 JUMPI DUP1 PUSH4 0xF0B9E5BA EQ PUSH2 0x214 JUMPI JUMPDEST PUSH1 0x1 SLOAD PUSH20 0xFFFFFFFFFFFFFFFFFFFFFFFFFFFFFFFFFFFFFFFF AND CALLER EQ PUSH2 0xFD JUMPI PUSH1 0x40 MLOAD PUSH32 0x8C379A000000000000000000000000000000000000000000000000000000000 DUP2 MSTORE PUSH1 0x4 ADD PUSH2 0xF4 SWAP1 PUSH2 0x2D34 JUMP JUMPDEST PUSH1 0x40 MLOAD DUP1 SWAP2 SUB SWAP1 REVERT JUMPDEST STOP JUMPDEST CALLVALUE DUP1 ISZERO PUSH2 0x10B JUMPI PUSH1 0x0 DUP1 REVERT JUMPDEST POP PUSH2 0x11F PUSH2 0x11A CALLDATASIZE PUSH1 0x4 PUSH2 0x23BF JUMP JUMPDEST PUSH2 0x234 JUMP JUMPDEST PUSH1 0x40 MLOAD PUSH2 0x12C SWAP2 SWAP1 PUSH2 0x2D26 JUMP JUMPDEST PUSH1 0x40 MLOAD DUP1 SWAP2 SUB SWAP1 RETURN JUMPDEST PUSH2 0x148 PUSH2 0x143 CALLDATASIZE PUSH1 0x4 PUSH2 0x249D JUMP JUMPDEST PUSH2 0x295 JUMP JUMPDEST PUSH1 0x40 MLOAD PUSH2 0x12C SWAP2 SWAP1 PUSH2 0x2DE4 JUMP JUMPDEST CALLVALUE DUP1 ISZERO PUSH2 0x161 JUMPI PUSH1 0x0 DUP1 REVERT JUMPDEST POP PUSH2 0x148 PUSH2 0x170 CALLDATASIZE PUSH1 0x4 PUSH2 0x267E JUMP JUMPDEST PUSH2 0x561 JUMP JUMPDEST CALLVALUE DUP1 ISZERO PUSH2 0x181 JUMPI PUSH1 0x0 DUP1 REVERT JUMPDEST POP PUSH2 0x18A PUSH2 0x627 JUMP JUMPDEST PUSH1 0x40 MLOAD PUSH2 0x12C SWAP2 SWAP1 PUSH2 0x2E35 JUMP JUMPDEST PUSH2 0x148 PUSH2 0x1A5 CALLDATASIZE PUSH1 0x4 PUSH2 0x2583 JUMP JUMPDEST PUSH2 0x62D JUMP JUMPDEST CALLVALUE DUP1 ISZERO PUSH2 0x1B6 JUMPI PUSH1 0x0 DUP1 REVERT JUMPDEST POP PUSH2 0x18A PUSH2 0x9AF JUMP JUMPDEST CALLVALUE DUP1 ISZERO PUSH2 0x1CB JUMPI PUSH1 0x0 DUP1 REVERT JUMPDEST POP PUSH2 0x18A PUSH2 0x9B5 JUMP JUMPDEST CALLVALUE DUP1 ISZERO PUSH2 0x1E0 JUMPI PUSH1 0x0 DUP1 REVERT JUMPDEST POP PUSH2 0x148 PUSH2 0x1EF CALLDATASIZE PUSH1 0x4 PUSH2 0x267E JUMP JUMPDEST PUSH2 0x9BB JUMP JUMPDEST CALLVALUE DUP1 ISZERO PUSH2 0x200 JUMPI PUSH1 0x0 DUP1 REVERT JUMPDEST POP PUSH2 0x148 PUSH2 0x20F CALLDATASIZE PUSH1 0x4 PUSH2 0x267E JUMP JUMPDEST PUSH2 0xA2E JUMP JUMPDEST CALLVALUE DUP1 ISZERO PUSH2 0x220 JUMPI PUSH1 0x0 DUP1 REVERT JUMPDEST POP PUSH2 0x11F PUSH2 0x22F CALLDATASIZE PUSH1 0x4 PUSH2 0x2438 JUMP JUMPDEST PUSH2 0xB2B JUMP JUMPDEST PUSH1 0x40 DUP1 MLOAD PUSH32 0x6F6E455243373231526563656976656428616464726573732C61646472657373 DUP2 MSTORE PUSH32 0x2C75696E743235362C6279746573290000000000000000000000000000000000 PUSH1 0x20 DUP3 ADD MSTORE SWAP1 MLOAD SWAP1 DUP2 SWAP1 SUB PUSH1 0x2F ADD SWAP1 KECCAK256 JUMPDEST SWAP5 SWAP4 POP POP POP POP JUMP JUMPDEST PUSH2 0x29D PUSH2 0x2022 JUMP JUMPDEST CALLVALUE PUSH1 0x0 DUP1 DUP1 DUP1 DUP5 GT PUSH2 0x2DB JUMPI PUSH1 0x40 MLOAD PUSH32 0x8C379A000000000000000000000000000000000000000000000000000000000 DUP2 MSTORE PUSH1 0x4 ADD PUSH2 0xF4 SWAP1 PUSH2 0x2D54 JUMP JUMPDEST PUSH2 0x2E6 DUP5 DUP9 DUP9 PUSH2 0xB8B JUMP JUMPDEST SWAP3 POP PUSH2 0x2F2 DUP5 DUP5 PUSH2 0xC59 JUMP JUMPDEST SWAP2 POP PUSH1 0x1 PUSH1 0x0 SWAP1 SLOAD SWAP1 PUSH2 0x100 EXP SWAP1 DIV PUSH20 0xFFFFFFFFFFFFFFFFFFFFFFFFFFFFFFFFFFFFFFFF AND PUSH20 0xFFFFFFFFFFFFFFFFFFFFFFFFFFFFFFFFFFFFFFFF AND PUSH4 0xD0E30DB0 DUP4 PUSH1 0x40 MLOAD DUP3 PUSH4 0xFFFFFFFF AND PUSH29 0x100000000000000000000000000000000000000000000000000000000 MUL DUP2 MSTORE PUSH1 0x4 ADD PUSH1 0x0 PUSH1 0x40 MLOAD DUP1 DUP4 SUB DUP2 DUP6 DUP9 DUP1 EXTCODESIZE ISZERO DUP1 ISZERO PUSH2 0x37A JUMPI PUSH1 0x0 DUP1 REVERT JUMPDEST POP GAS CALL ISZERO DUP1 ISZERO PUSH2 0x38E JUMPI RETURNDATASIZE PUSH1 0x0 DUP1 RETURNDATACOPY RETURNDATASIZE PUSH1 0x0 REVERT JUMPDEST POP POP POP POP POP PUSH2 0x3BB DUP12 PUSH1 0x0 DUP2 MLOAD DUP2 LT ISZERO ISZERO PUSH2 0x3A5 JUMPI INVALID JUMPDEST SWAP1 PUSH1 0x20 ADD SWAP1 PUSH1 0x20 MUL ADD MLOAD PUSH2 0x140 ADD MLOAD PUSH1 0x10 PUSH2 0xCA0 JUMP JUMPDEST PUSH1 0x4 DUP1 SLOAD PUSH1 0x40 DUP1 MLOAD PUSH1 0x20 PUSH1 0x1F PUSH1 0x2 PUSH32 0xFFFFFFFFFFFFFFFFFFFFFFFFFFFFFFFFFFFFFFFFFFFFFFFFFFFFFFFFFFFFFFFF PUSH2 0x100 PUSH1 0x1 DUP9 AND ISZERO MUL ADD SWAP1 SWAP6 AND SWAP5 SWAP1 SWAP5 DIV SWAP4 DUP5 ADD DUP2 SWAP1 DIV DUP2 MUL DUP3 ADD DUP2 ADD SWAP1 SWAP3 MSTORE DUP3 DUP2 MSTORE SWAP4 SWAP5 POP DUP4 ADD DUP3 DUP3 DUP1 ISZERO PUSH2 0x461 JUMPI DUP1 PUSH1 0x1F LT PUSH2 0x436 JUMPI PUSH2 0x100 DUP1 DUP4 SLOAD DIV MUL DUP4 MSTORE SWAP2 PUSH1 0x20 ADD SWAP2 PUSH2 0x461 JUMP JUMPDEST DUP3 ADD SWAP2 SWAP1 PUSH1 0x0 MSTORE PUSH1 0x20 PUSH1 0x0 KECCAK256 SWAP1 JUMPDEST DUP2 SLOAD DUP2 MSTORE SWAP1 PUSH1 0x1 ADD SWAP1 PUSH1 0x20 ADD DUP1 DUP4 GT PUSH2 0x444 JUMPI DUP3 SWAP1 SUB PUSH1 0x1F AND DUP3 ADD SWAP2 JUMPDEST POP POP POP POP POP DUP12 PUSH1 0x0 DUP2 MLOAD DUP2 LT ISZERO ISZERO PUSH2 0x475 JUMPI INVALID JUMPDEST PUSH1 0x20 SWAP1 DUP2 MUL SWAP1 SWAP2 ADD ADD MLOAD PUSH2 0x160 ADD MSTORE PUSH1 0x2 SLOAD PUSH20 0xFFFFFFFFFFFFFFFFFFFFFFFFFFFFFFFFFFFFFFFF DUP3 DUP2 AND SWAP2 AND EQ ISZERO PUSH2 0x4B9 JUMPI PUSH2 0x4B2 DUP12 DUP12 DUP5 PUSH2 0xD01 JUMP JUMPDEST SWAP5 POP PUSH2 0x4C9 JUMP JUMPDEST PUSH2 0x4C6 DUP12 DUP12 DUP12 DUP12 DUP7 PUSH2 0xE1B JUMP JUMPDEST SWAP5 POP JUMPDEST PUSH1 0x20 DUP6 ADD MLOAD DUP5 LT ISZERO PUSH2 0x507 JUMPI PUSH1 0x40 MLOAD PUSH32 0x8C379A000000000000000000000000000000000000000000000000000000000 DUP2 MSTORE PUSH1 0x4 ADD PUSH2 0xF4 SWAP1 PUSH2 0x2D44 JUMP JUMPDEST PUSH1 0x20 DUP6 ADD MLOAD DUP3 EQ PUSH2 0x544 JUMPI PUSH1 0x40 MLOAD PUSH32 0x8C379A000000000000000000000000000000000000000000000000000000000 DUP2 MSTORE PUSH1 0x4 ADD PUSH2 0xF4 SWAP1 PUSH2 0x2DA4 JUMP JUMPDEST PUSH2 0x553 DUP2 CALLER DUP8 PUSH1 0x0 ADD MLOAD PUSH2 0xFA3 JUMP JUMPDEST POP POP POP POP SWAP7 SWAP6 POP POP POP POP POP POP JUMP JUMPDEST PUSH2 0x569 PUSH2 0x2022 JUMP JUMPDEST PUSH1 0x0 DUP1 PUSH1 0x0 PUSH2 0x576 PUSH2 0x2022 JUMP JUMPDEST PUSH1 0x0 SWAP4 POP JUMPDEST DUP7 MLOAD DUP5 LT ISZERO PUSH2 0x61D JUMPI PUSH2 0x592 DUP7 DUP7 PUSH1 0x0 ADD MLOAD PUSH2 0xC59 JUMP JUMPDEST SWAP3 POP PUSH2 0x5D5 DUP8 DUP6 DUP2 MLOAD DUP2 LT ISZERO ISZERO PUSH2 0x5A5 JUMPI INVALID JUMPDEST SWAP1 PUSH1 0x20 ADD SWAP1 PUSH1 0x20 MUL ADD MLOAD PUSH1 0xA0 ADD MLOAD DUP9 DUP7 DUP2 MLOAD DUP2 LT ISZERO ISZERO PUSH2 0x5C1 JUMPI INVALID JUMPDEST SWAP1 PUSH1 0x20 ADD SWAP1 PUSH1 0x20 MUL ADD MLOAD PUSH1 0x80 ADD MLOAD DUP6 PUSH2 0x117D JUMP JUMPDEST SWAP2 POP PUSH2 0x5F8 DUP8 DUP6 DUP2 MLOAD DUP2 LT ISZERO ISZERO PUSH2 0x5E8 JUMPI INVALID JUMPDEST SWAP1 PUSH1 0x20 ADD SWAP1 PUSH1 0x20 MUL ADD MLOAD DUP4 PUSH2 0x1192 JUMP JUMPDEST SWAP1 POP PUSH2 0x604 DUP6 DUP3 PUSH2 0x12DB JUMP JUMPDEST DUP5 MLOAD DUP7 EQ ISZERO PUSH2 0x612 JUMPI PUSH2 0x61D JUMP JUMPDEST PUSH1 0x1 SWAP1 SWAP4 ADD SWAP3 PUSH2 0x57B JUMP JUMPDEST POP POP POP POP SWAP3 SWAP2 POP POP JUMP JUMPDEST PUSH2 0x251C DUP2 JUMP JUMPDEST PUSH2 0x635 PUSH2 0x2022 JUMP JUMPDEST CALLVALUE PUSH1 0x0 DUP1 DUP3 GT PUSH2 0x671 JUMPI PUSH1 0x40 MLOAD PUSH32 0x8C379A000000000000000000000000000000000000000000000000000000000 DUP2 MSTORE PUSH1 0x4 ADD PUSH2 0xF4 SWAP1 PUSH2 0x2D54 JUMP JUMPDEST PUSH1 0x0 DUP7 GT PUSH2 0x6AB JUMPI PUSH1 0x40 MLOAD PUSH32 0x8C379A000000000000000000000000000000000000000000000000000000000 DUP2 MSTORE PUSH1 0x4 ADD PUSH2 0xF4 SWAP1 PUSH2 0x2D54 JUMP JUMPDEST PUSH2 0x6D3 DUP11 PUSH1 0x0 DUP2 MLOAD DUP2 LT ISZERO ISZERO PUSH2 0x6BD JUMPI INVALID JUMPDEST SWAP1 PUSH1 0x20 ADD SWAP1 PUSH1 0x20 MUL ADD MLOAD PUSH2 0x140 ADD MLOAD PUSH1 0x0 PUSH2 0x133D JUMP JUMPDEST PUSH1 0x40 DUP1 MLOAD PUSH32 0x4552433230546F6B656E28616464726573732900000000000000000000000000 DUP2 MSTORE SWAP1 MLOAD SWAP1 DUP2 SWAP1 SUB PUSH1 0x13 ADD SWAP1 KECCAK256 SWAP1 SWAP2 POP PUSH32 0xFFFFFFFF00000000000000000000000000000000000000000000000000000000 DUP1 DUP4 AND SWAP2 AND EQ DUP1 PUSH2 0x78F JUMPI POP PUSH1 0x40 DUP1 MLOAD PUSH32 0x455243373231546F6B656E28616464726573732C75696E743235362900000000 DUP2 MSTORE SWAP1 MLOAD SWAP1 DUP2 SWAP1 SUB PUSH1 0x1C ADD SWAP1 KECCAK256 PUSH32 0xFFFFFFFF00000000000000000000000000000000000000000000000000000000 DUP3 DUP2 AND SWAP2 AND EQ JUMPDEST ISZERO ISZERO PUSH2 0x7C7 JUMPI PUSH1 0x40 MLOAD PUSH32 0x8C379A000000000000000000000000000000000000000000000000000000000 DUP2 MSTORE PUSH1 0x4 ADD PUSH2 0xF4 SWAP1 PUSH2 0x2DC4 JUMP JUMPDEST PUSH1 0x1 PUSH1 0x0 SWAP1 SLOAD SWAP1 PUSH2 0x100 EXP SWAP1 DIV PUSH20 0xFFFFFFFFFFFFFFFFFFFFFFFFFFFFFFFFFFFFFFFF AND PUSH20 0xFFFFFFFFFFFFFFFFFFFFFFFFFFFFFFFFFFFFFFFF AND PUSH4 0xD0E30DB0 DUP4 PUSH1 0x40 MLOAD DUP3 PUSH4 0xFFFFFFFF AND PUSH29 0x100000000000000000000000000000000000000000000000000000000 MUL DUP2 MSTORE PUSH1 0x4 ADD PUSH1 0x0 PUSH1 0x40 MLOAD DUP1 DUP4 SUB DUP2 DUP6 DUP9 DUP1 EXTCODESIZE ISZERO DUP1 ISZERO PUSH2 0x84D JUMPI PUSH1 0x0 DUP1 REVERT JUMPDEST POP GAS CALL ISZERO DUP1 ISZERO PUSH2 0x861 JUMPI RETURNDATASIZE PUSH1 0x0 DUP1 RETURNDATACOPY RETURNDATASIZE PUSH1 0x0 REVERT JUMPDEST POP POP PUSH1 0x40 DUP1 MLOAD PUSH32 0x4552433230546F6B656E28616464726573732900000000000000000000000000 DUP2 MSTORE SWAP1 MLOAD SWAP1 DUP2 SWAP1 SUB PUSH1 0x13 ADD SWAP1 KECCAK256 PUSH32 0xFFFFFFFF00000000000000000000000000000000000000000000000000000000 DUP6 DUP2 AND SWAP2 AND EQ ISZERO SWAP3 POP PUSH2 0x8DA SWAP2 POP POP JUMPI PUSH2 0x8D3 DUP11 DUP11 DUP11 DUP11 DUP11 PUSH2 0x13AA JUMP JUMPDEST SWAP3 POP PUSH2 0x947 JUMP JUMPDEST PUSH1 0x40 DUP1 MLOAD PUSH32 0x455243373231546F6B656E28616464726573732C75696E743235362900000000 DUP2 MSTORE SWAP1 MLOAD SWAP1 DUP2 SWAP1 SUB PUSH1 0x1C ADD SWAP1 KECCAK256 PUSH32 0xFFFFFFFF00000000000000000000000000000000000000000000000000000000 DUP3 DUP2 AND SWAP2 AND EQ ISZERO PUSH2 0x947 JUMPI PUSH2 0x944 DUP11 DUP11 DUP11 DUP11 PUSH2 0x1701 JUMP JUMPDEST SWAP3 POP JUMPDEST PUSH1 0x20 DUP4 ADD MLOAD DUP3 LT ISZERO PUSH2 0x985 JUMPI PUSH1 0x40 MLOAD PUSH32 0x8C379A000000000000000000000000000000000000000000000000000000000 DUP2 MSTORE PUSH1 0x4 ADD PUSH2 0xF4 SWAP1 PUSH2 0x2D44 JUMP JUMPDEST PUSH2 0x9A2 PUSH2 0x996 DUP4 DUP6 PUSH1 0x20 ADD MLOAD PUSH2 0xC59 JUMP JUMPDEST DUP5 PUSH1 0x20 ADD MLOAD DUP8 DUP8 PUSH2 0x1A03 JUMP JUMPDEST POP POP SWAP8 SWAP7 POP POP POP POP POP POP POP JUMP JUMPDEST PUSH2 0x2710 DUP2 JUMP JUMPDEST PUSH2 0x3E8 DUP2 JUMP JUMPDEST PUSH2 0x9C3 PUSH2 0x2022 JUMP JUMPDEST PUSH1 0x0 DUP1 PUSH2 0x9CE PUSH2 0x2022 JUMP JUMPDEST PUSH1 0x0 SWAP3 POP JUMPDEST DUP6 MLOAD DUP4 LT ISZERO PUSH2 0xA25 JUMPI PUSH2 0x9EA DUP6 DUP6 PUSH1 0x20 ADD MLOAD PUSH2 0xC59 JUMP JUMPDEST SWAP2 POP PUSH2 0x9FD DUP7 DUP5 DUP2 MLOAD DUP2 LT ISZERO ISZERO PUSH2 0x5E8 JUMPI INVALID JUMPDEST SWAP1 POP PUSH2 0xA09 DUP5 DUP3 PUSH2 0x12DB JUMP JUMPDEST DUP5 DUP5 PUSH1 0x20 ADD MLOAD EQ ISZERO PUSH2 0xA1A JUMPI PUSH2 0xA25 JUMP JUMPDEST PUSH1 0x1 SWAP1 SWAP3 ADD SWAP2 PUSH2 0x9D3 JUMP JUMPDEST POP POP POP SWAP3 SWAP2 POP POP JUMP JUMPDEST PUSH2 0xA36 PUSH2 0x2022 JUMP JUMPDEST PUSH1 0x0 DUP1 PUSH1 0x0 PUSH2 0xA43 PUSH2 0x2022 JUMP JUMPDEST PUSH1 0x0 SWAP4 POP JUMPDEST DUP7 MLOAD DUP5 LT ISZERO PUSH2 0x61D JUMPI PUSH2 0xA5F DUP7 DUP7 PUSH1 0x0 ADD MLOAD PUSH2 0xC59 JUMP JUMPDEST SWAP3 POP PUSH2 0xAC6 DUP8 DUP6 DUP2 MLOAD DUP2 LT ISZERO ISZERO PUSH2 0xA72 JUMPI INVALID JUMPDEST SWAP1 PUSH1 0x20 ADD SWAP1 PUSH1 0x20 MUL ADD MLOAD PUSH1 0xA0 ADD MLOAD PUSH2 0xAC0 DUP10 DUP8 DUP2 MLOAD DUP2 LT ISZERO ISZERO PUSH2 0xA91 JUMPI INVALID JUMPDEST SWAP1 PUSH1 0x20 ADD SWAP1 PUSH1 0x20 MUL ADD MLOAD PUSH1 0x80 ADD MLOAD DUP11 DUP9 DUP2 MLOAD DUP2 LT ISZERO ISZERO PUSH2 0xAAD JUMPI INVALID JUMPDEST SWAP1 PUSH1 0x20 ADD SWAP1 PUSH1 0x20 MUL ADD MLOAD PUSH1 0xE0 ADD MLOAD PUSH2 0xC59 JUMP JUMPDEST DUP6 PUSH2 0x117D JUMP JUMPDEST SWAP2 POP PUSH2 0xAF3 DUP8 DUP6 DUP2 MLOAD DUP2 LT ISZERO ISZERO PUSH2 0xAD9 JUMPI INVALID JUMPDEST SWAP1 PUSH1 0x20 ADD SWAP1 PUSH1 0x20 MUL ADD MLOAD PUSH2 0xAEE DUP5 PUSH1 0x1 PUSH2 0x1AF0 JUMP JUMPDEST PUSH2 0x1192 JUMP JUMPDEST SWAP1 POP PUSH2 0xB07 DUP2 PUSH1 0x0 ADD MLOAD DUP3 PUSH1 0x60 ADD MLOAD PUSH2 0xC59 JUMP JUMPDEST DUP2 MSTORE PUSH2 0xB13 DUP6 DUP3 PUSH2 0x12DB JUMP JUMPDEST DUP5 MLOAD DUP7 GT PUSH2 0xB20 JUMPI PUSH2 0x61D JUMP JUMPDEST PUSH1 0x1 SWAP1 SWAP4 ADD SWAP3 PUSH2 0xA48 JUMP JUMPDEST PUSH1 0x40 DUP1 MLOAD PUSH32 0x6F6E455243373231526563656976656428616464726573732C75696E74323536 DUP2 MSTORE PUSH32 0x2C62797465732900000000000000000000000000000000000000000000000000 PUSH1 0x20 DUP3 ADD MSTORE SWAP1 MLOAD SWAP1 DUP2 SWAP1 SUB PUSH1 0x27 ADD SWAP1 KECCAK256 JUMPDEST SWAP4 SWAP3 POP POP POP JUMP JUMPDEST PUSH1 0x0 DUP1 DUP4 PUSH2 0xFFFF AND GT DUP1 ISZERO PUSH2 0xBB5 JUMPI POP PUSH20 0xFFFFFFFFFFFFFFFFFFFFFFFFFFFFFFFFFFFFFFFF DUP3 AND ISZERO ISZERO JUMPDEST ISZERO PUSH2 0xB84 JUMPI PUSH2 0x3E8 PUSH2 0xFFFF DUP5 AND GT ISZERO PUSH2 0xBFA JUMPI PUSH1 0x40 MLOAD PUSH32 0x8C379A000000000000000000000000000000000000000000000000000000000 DUP2 MSTORE PUSH1 0x4 ADD PUSH2 0xF4 SWAP1 PUSH2 0x2D84 JUMP JUMPDEST PUSH2 0xC0B PUSH2 0xFFFF DUP5 AND PUSH2 0x2710 DUP7 PUSH2 0x117D JUMP JUMPDEST PUSH1 0x40 MLOAD SWAP1 SWAP2 POP PUSH20 0xFFFFFFFFFFFFFFFFFFFFFFFFFFFFFFFFFFFFFFFF DUP4 AND SWAP1 DUP3 ISZERO PUSH2 0x8FC MUL SWAP1 DUP4 SWAP1 PUSH1 0x0 DUP2 DUP2 DUP2 DUP6 DUP9 DUP9 CALL SWAP4 POP POP POP POP ISZERO DUP1 ISZERO PUSH2 0xC51 JUMPI RETURNDATASIZE PUSH1 0x0 DUP1 RETURNDATACOPY RETURNDATASIZE PUSH1 0x0 REVERT JUMPDEST POP SWAP4 SWAP3 POP POP POP JUMP JUMPDEST PUSH1 0x0 DUP3 DUP3 GT ISZERO PUSH2 0xC95 JUMPI PUSH1 0x40 MLOAD PUSH32 0x8C379A000000000000000000000000000000000000000000000000000000000 DUP2 MSTORE PUSH1 0x4 ADD PUSH2 0xF4 SWAP1 PUSH2 0x2D74 JUMP JUMPDEST POP DUP1 DUP3 SUB JUMPDEST SWAP3 SWAP2 POP POP JUMP JUMPDEST PUSH1 0x0 DUP2 PUSH1 0x14 ADD DUP4 MLOAD LT ISZERO ISZERO ISZERO PUSH2 0xCE2 JUMPI PUSH1 0x40 MLOAD PUSH32 0x8C379A000000000000000000000000000000000000000000000000000000000 DUP2 MSTORE PUSH1 0x4 ADD PUSH2 0xF4 SWAP1 PUSH2 0x2DB4 JUMP JUMPDEST POP ADD PUSH1 0x14 ADD MLOAD PUSH20 0xFFFFFFFFFFFFFFFFFFFFFFFFFFFFFFFFFFFFFFFF AND SWAP1 JUMP JUMPDEST PUSH2 0xD09 PUSH2 0x2022 JUMP JUMPDEST PUSH1 0x0 DUP1 SLOAD PUSH1 0x40 MLOAD PUSH32 0x7E1D980800000000000000000000000000000000000000000000000000000000 DUP2 MSTORE PUSH20 0xFFFFFFFFFFFFFFFFFFFFFFFFFFFFFFFFFFFFFFFF SWAP1 SWAP2 AND SWAP1 PUSH4 0x7E1D9808 SWAP1 PUSH2 0xD64 SWAP1 DUP9 SWAP1 DUP8 SWAP1 DUP10 SWAP1 PUSH1 0x4 ADD PUSH2 0x2CF4 JUMP JUMPDEST PUSH1 0x80 PUSH1 0x40 MLOAD DUP1 DUP4 SUB DUP2 PUSH1 0x0 DUP8 DUP1 EXTCODESIZE ISZERO DUP1 ISZERO PUSH2 0xD7E JUMPI PUSH1 0x0 DUP1 REVERT JUMPDEST POP GAS CALL ISZERO DUP1 ISZERO PUSH2 0xD92 JUMPI RETURNDATASIZE PUSH1 0x0 DUP1 RETURNDATACOPY RETURNDATASIZE PUSH1 0x0 REVERT JUMPDEST POP POP POP POP PUSH1 0x40 MLOAD RETURNDATASIZE PUSH1 0x1F NOT PUSH1 0x1F DUP3 ADD AND DUP3 ADD DUP1 PUSH1 0x40 MSTORE POP PUSH2 0xDB6 SWAP2 SWAP1 DUP2 ADD SWAP1 PUSH2 0x26CF JUMP JUMPDEST SWAP2 POP PUSH2 0xDCA DUP3 PUSH1 0x0 ADD MLOAD DUP4 PUSH1 0x60 ADD MLOAD PUSH2 0xC59 JUMP JUMPDEST SWAP1 POP PUSH2 0xDDA DUP3 PUSH1 0x0 ADD MLOAD DUP3 PUSH2 0x1B3A JUMP JUMPDEST ISZERO ISZERO PUSH2 0xE12 JUMPI PUSH1 0x40 MLOAD PUSH32 0x8C379A000000000000000000000000000000000000000000000000000000000 DUP2 MSTORE PUSH1 0x4 ADD PUSH2 0xF4 SWAP1 PUSH2 0x2DA4 JUMP JUMPDEST DUP2 MSTORE SWAP4 SWAP3 POP POP POP JUMP JUMPDEST PUSH2 0xE23 PUSH2 0x2022 JUMP JUMPDEST PUSH1 0x0 PUSH2 0xE2D PUSH2 0x2022 JUMP JUMPDEST PUSH2 0xE35 PUSH2 0x2022 JUMP JUMPDEST PUSH2 0xE3D PUSH2 0x2022 JUMP JUMPDEST DUP6 SWAP4 POP PUSH2 0xE4A DUP11 DUP8 PUSH2 0x9BB JUMP JUMPDEST SWAP3 POP PUSH1 0x0 DUP4 PUSH1 0x60 ADD MLOAD GT ISZERO PUSH2 0xEDE JUMPI PUSH2 0xE68 DUP9 DUP9 DUP6 PUSH1 0x60 ADD MLOAD PUSH2 0x1B57 JUMP JUMPDEST SWAP2 POP PUSH2 0xE81 DUP7 PUSH2 0xE7C DUP9 DUP6 PUSH1 0x20 ADD MLOAD PUSH2 0xC59 JUMP JUMPDEST PUSH2 0x1B3A JUMP JUMPDEST ISZERO ISZERO PUSH2 0xEB9 JUMPI PUSH1 0x40 MLOAD PUSH32 0x8C379A000000000000000000000000000000000000000000000000000000000 DUP2 MSTORE PUSH1 0x4 ADD PUSH2 0xF4 SWAP1 PUSH2 0x2DA4 JUMP JUMPDEST PUSH2 0xEC7 DUP5 DUP4 PUSH1 0x20 ADD MLOAD PUSH2 0xC59 JUMP JUMPDEST PUSH1 0x60 DUP1 DUP5 ADD MLOAD SWAP1 DUP8 ADD MSTORE PUSH1 0x20 DUP1 DUP5 ADD MLOAD SWAP1 DUP8 ADD MSTORE SWAP4 POP JUMPDEST PUSH1 0x0 SLOAD PUSH1 0x40 MLOAD PUSH32 0x7E1D980800000000000000000000000000000000000000000000000000000000 DUP2 MSTORE PUSH20 0xFFFFFFFFFFFFFFFFFFFFFFFFFFFFFFFFFFFFFFFF SWAP1 SWAP2 AND SWAP1 PUSH4 0x7E1D9808 SWAP1 PUSH2 0xF38 SWAP1 DUP14 SWAP1 DUP9 SWAP1 DUP15 SWAP1 PUSH1 0x4 ADD PUSH2 0x2CF4 JUMP JUMPDEST PUSH1 0x80 PUSH1 0x40 MLOAD DUP1 DUP4 SUB DUP2 PUSH1 0x0 DUP8 DUP1 EXTCODESIZE ISZERO DUP1 ISZERO PUSH2 0xF52 JUMPI PUSH1 0x0 DUP1 REVERT JUMPDEST POP GAS CALL ISZERO DUP1 ISZERO PUSH2 0xF66 JUMPI RETURNDATASIZE PUSH1 0x0 DUP1 RETURNDATACOPY RETURNDATASIZE PUSH1 0x0 REVERT JUMPDEST POP POP POP POP PUSH1 0x40 MLOAD RETURNDATASIZE PUSH1 0x1F NOT PUSH1 0x1F DUP3 ADD AND DUP3 ADD DUP1 PUSH1 0x40 MSTORE POP PUSH2 0xF8A SWAP2 SWAP1 DUP2 ADD SWAP1 PUSH2 0x26CF JUMP JUMPDEST SWAP1 POP PUSH2 0xF96 DUP6 DUP3 PUSH2 0x12DB JUMP JUMPDEST POP POP POP POP SWAP6 SWAP5 POP POP POP POP POP JUMP JUMPDEST PUSH1 0x40 DUP1 MLOAD PUSH32 0x7472616E7366657228616464726573732C75696E743235362900000000000000 DUP2 MSTORE SWAP1 MLOAD SWAP1 DUP2 SWAP1 SUB PUSH1 0x19 ADD DUP2 KECCAK256 PUSH1 0x0 SWAP2 PUSH20 0xFFFFFFFFFFFFFFFFFFFFFFFFFFFFFFFFFFFFFFFF DUP7 AND SWAP2 SWAP1 PUSH2 0x1001 SWAP1 DUP7 SWAP1 DUP7 SWAP1 PUSH1 0x24 ADD PUSH2 0x2CA0 JUMP JUMPDEST PUSH1 0x40 DUP1 MLOAD PUSH32 0xFFFFFFFFFFFFFFFFFFFFFFFFFFFFFFFFFFFFFFFFFFFFFFFFFFFFFFFFFFFFFFE0 DUP2 DUP5 SUB ADD DUP2 MSTORE SWAP2 DUP2 MSTORE PUSH1 0x20 DUP3 ADD DUP1 MLOAD PUSH28 0xFFFFFFFFFFFFFFFFFFFFFFFFFFFFFFFFFFFFFFFFFFFFFFFFFFFFFFFF AND PUSH32 0xFFFFFFFF00000000000000000000000000000000000000000000000000000000 SWAP1 SWAP5 AND SWAP4 SWAP1 SWAP4 OR DUP4 MSTORE MLOAD DUP2 MLOAD SWAP2 SWAP3 SWAP1 SWAP2 DUP3 SWAP2 SWAP1 DUP1 DUP4 DUP4 PUSH1 0x0 JUMPDEST DUP4 DUP2 LT ISZERO PUSH2 0x10A5 JUMPI DUP2 DUP2 ADD MLOAD DUP4 DUP3 ADD MSTORE PUSH1 0x20 ADD PUSH2 0x108D JUMP JUMPDEST POP POP POP POP SWAP1 POP SWAP1 DUP2 ADD SWAP1 PUSH1 0x1F AND DUP1 ISZERO PUSH2 0x10D2 JUMPI DUP1 DUP3 SUB DUP1 MLOAD PUSH1 0x1 DUP4 PUSH1 0x20 SUB PUSH2 0x100 EXP SUB NOT AND DUP2 MSTORE PUSH1 0x20 ADD SWAP2 POP JUMPDEST POP SWAP2 POP POP PUSH1 0x0 PUSH1 0x40 MLOAD DUP1 DUP4 SUB DUP2 PUSH1 0x0 DUP7 GAS CALL SWAP3 POP POP POP DUP1 ISZERO ISZERO PUSH2 0x1121 JUMPI PUSH1 0x40 MLOAD PUSH32 0x8C379A000000000000000000000000000000000000000000000000000000000 DUP2 MSTORE PUSH1 0x4 ADD PUSH2 0xF4 SWAP1 PUSH2 0x2D94 JUMP JUMPDEST RETURNDATASIZE ISZERO PUSH2 0x113E JUMPI POP PUSH1 0x0 RETURNDATASIZE PUSH1 0x20 EQ ISZERO PUSH2 0x113E JUMPI PUSH1 0x20 PUSH1 0x0 DUP1 RETURNDATACOPY POP PUSH1 0x0 MLOAD JUMPDEST DUP1 ISZERO ISZERO PUSH2 0x1177 JUMPI PUSH1 0x40 MLOAD PUSH32 0x8C379A000000000000000000000000000000000000000000000000000000000 DUP2 MSTORE PUSH1 0x4 ADD PUSH2 0xF4 SWAP1 PUSH2 0x2D94 JUMP JUMPDEST POP POP POP POP JUMP JUMPDEST PUSH1 0x0 PUSH2 0x28D PUSH2 0x118C DUP6 DUP5 PUSH2 0x1E90 JUMP JUMPDEST DUP5 PUSH2 0x1EEB JUMP JUMPDEST PUSH2 0x119A PUSH2 0x2022 JUMP JUMPDEST PUSH2 0x11A2 PUSH2 0x204B JUMP JUMPDEST PUSH1 0x0 DUP1 SLOAD PUSH1 0x40 MLOAD PUSH32 0xC75E0A8100000000000000000000000000000000000000000000000000000000 DUP2 MSTORE DUP3 SWAP2 PUSH20 0xFFFFFFFFFFFFFFFFFFFFFFFFFFFFFFFFFFFFFFFF AND SWAP1 PUSH4 0xC75E0A81 SWAP1 PUSH2 0x11F9 SWAP1 DUP10 SWAP1 PUSH1 0x4 ADD PUSH2 0x2DF2 JUMP JUMPDEST PUSH1 0x60 PUSH1 0x40 MLOAD DUP1 DUP4 SUB DUP2 PUSH1 0x0 DUP8 DUP1 EXTCODESIZE ISZERO DUP1 ISZERO PUSH2 0x1213 JUMPI PUSH1 0x0 DUP1 REVERT JUMPDEST POP GAS CALL ISZERO DUP1 ISZERO PUSH2 0x1227 JUMPI RETURNDATASIZE PUSH1 0x0 DUP1 RETURNDATACOPY RETURNDATASIZE PUSH1 0x0 REVERT JUMPDEST POP POP POP POP PUSH1 0x40 MLOAD RETURNDATASIZE PUSH1 0x1F NOT PUSH1 0x1F DUP3 ADD AND DUP3 ADD DUP1 PUSH1 0x40 MSTORE POP PUSH2 0x124B SWAP2 SWAP1 DUP2 ADD SWAP1 PUSH2 0x26ED JUMP JUMPDEST DUP1 MLOAD SWAP1 SWAP4 POP PUSH1 0xFF AND PUSH1 0x3 EQ PUSH2 0x125F JUMPI PUSH2 0xA25 JUMP JUMPDEST PUSH2 0x1271 DUP7 PUSH1 0xA0 ADD MLOAD DUP5 PUSH1 0x40 ADD MLOAD PUSH2 0xC59 JUMP JUMPDEST SWAP2 POP PUSH2 0x127D DUP6 DUP4 PUSH2 0x1F02 JUMP JUMPDEST SWAP1 POP DUP1 DUP5 PUSH1 0x20 ADD DUP2 DUP2 MSTORE POP POP PUSH2 0x129C DUP2 DUP8 PUSH1 0xA0 ADD MLOAD DUP9 PUSH1 0x80 ADD MLOAD PUSH2 0x117D JUMP JUMPDEST DUP5 MSTORE PUSH1 0xA0 DUP7 ADD MLOAD PUSH1 0xC0 DUP8 ADD MLOAD PUSH2 0x12B3 SWAP2 DUP4 SWAP2 PUSH2 0x117D JUMP JUMPDEST PUSH1 0x40 DUP6 ADD MSTORE PUSH1 0xA0 DUP7 ADD MLOAD PUSH1 0xE0 DUP8 ADD MLOAD PUSH2 0x12CD SWAP2 DUP4 SWAP2 PUSH2 0x117D JUMP JUMPDEST PUSH1 0x60 DUP6 ADD MSTORE POP POP POP SWAP3 SWAP2 POP POP JUMP JUMPDEST DUP2 MLOAD DUP2 MLOAD PUSH2 0x12E9 SWAP2 SWAP1 PUSH2 0x1AF0 JUMP JUMPDEST DUP3 MSTORE PUSH1 0x20 DUP1 DUP4 ADD MLOAD SWAP1 DUP3 ADD MLOAD PUSH2 0x12FF SWAP2 SWAP1 PUSH2 0x1AF0 JUMP JUMPDEST PUSH1 0x20 DUP4 ADD MSTORE PUSH1 0x40 DUP1 DUP4 ADD MLOAD SWAP1 DUP3 ADD MLOAD PUSH2 0x1318 SWAP2 SWAP1 PUSH2 0x1AF0 JUMP JUMPDEST PUSH1 0x40 DUP4 ADD MSTORE PUSH1 0x60 DUP1 DUP4 ADD MLOAD SWAP1 DUP3 ADD MLOAD PUSH2 0x1331 SWAP2 SWAP1 PUSH2 0x1AF0 JUMP JUMPDEST PUSH1 0x60 SWAP1 SWAP3 ADD SWAP2 SWAP1 SWAP2 MSTORE POP JUMP JUMPDEST PUSH1 0x0 DUP2 PUSH1 0x4 ADD DUP4 MLOAD LT ISZERO ISZERO ISZERO PUSH2 0x137F JUMPI PUSH1 0x40 MLOAD PUSH32 0x8C379A000000000000000000000000000000000000000000000000000000000 DUP2 MSTORE PUSH1 0x4 ADD PUSH2 0xF4 SWAP1 PUSH2 0x2DD4 JUMP JUMPDEST POP POP PUSH1 0x20 ADD MLOAD PUSH32 0xFFFFFFFF00000000000000000000000000000000000000000000000000000000 AND SWAP1 JUMP JUMPDEST PUSH2 0x13B2 PUSH2 0x2022 JUMP JUMPDEST PUSH1 0x0 PUSH2 0x13BC PUSH2 0x2022 JUMP JUMPDEST PUSH2 0x13C4 PUSH2 0x2022 JUMP JUMPDEST PUSH2 0x13CC PUSH2 0x2022 JUMP JUMPDEST PUSH2 0x13DE DUP11 PUSH1 0x0 DUP2 MLOAD DUP2 LT ISZERO ISZERO PUSH2 0x3A5 JUMPI INVALID JUMPDEST PUSH1 0x4 DUP1 SLOAD PUSH1 0x40 DUP1 MLOAD PUSH1 0x20 PUSH1 0x1F PUSH1 0x2 PUSH32 0xFFFFFFFFFFFFFFFFFFFFFFFFFFFFFFFFFFFFFFFFFFFFFFFFFFFFFFFFFFFFFFFF PUSH2 0x100 PUSH1 0x1 DUP9 AND ISZERO MUL ADD SWAP1 SWAP6 AND SWAP5 SWAP1 SWAP5 DIV SWAP4 DUP5 ADD DUP2 SWAP1 DIV DUP2 MUL DUP3 ADD DUP2 ADD SWAP1 SWAP3 MSTORE DUP3 DUP2 MSTORE SWAP4 SWAP8 POP DUP4 ADD DUP3 DUP3 DUP1 ISZERO PUSH2 0x1484 JUMPI DUP1 PUSH1 0x1F LT PUSH2 0x1459 JUMPI PUSH2 0x100 DUP1 DUP4 SLOAD DIV MUL DUP4 MSTORE SWAP2 PUSH1 0x20 ADD SWAP2 PUSH2 0x1484 JUMP JUMPDEST DUP3 ADD SWAP2 SWAP1 PUSH1 0x0 MSTORE PUSH1 0x20 PUSH1 0x0 KECCAK256 SWAP1 JUMPDEST DUP2 SLOAD DUP2 MSTORE SWAP1 PUSH1 0x1 ADD SWAP1 PUSH1 0x20 ADD DUP1 DUP4 GT PUSH2 0x1467 JUMPI DUP3 SWAP1 SUB PUSH1 0x1F AND DUP3 ADD SWAP2 JUMPDEST POP POP POP POP POP DUP11 PUSH1 0x0 DUP2 MLOAD DUP2 LT ISZERO ISZERO PUSH2 0x1498 JUMPI INVALID JUMPDEST PUSH1 0x20 SWAP1 DUP2 MUL SWAP1 SWAP2 ADD ADD MLOAD PUSH2 0x160 ADD MSTORE PUSH1 0x2 SLOAD PUSH20 0xFFFFFFFFFFFFFFFFFFFFFFFFFFFFFFFFFFFFFFFF DUP6 DUP2 AND SWAP2 AND EQ ISZERO PUSH2 0x1576 JUMPI PUSH2 0x14D5 DUP11 DUP11 DUP9 PUSH2 0x1B57 JUMP JUMPDEST DUP1 MLOAD SWAP1 SWAP4 POP DUP7 GT ISZERO PUSH2 0x1513 JUMPI PUSH1 0x40 MLOAD PUSH32 0x8C379A000000000000000000000000000000000000000000000000000000000 DUP2 MSTORE PUSH1 0x4 ADD PUSH2 0xF4 SWAP1 PUSH2 0x2DA4 JUMP JUMPDEST PUSH2 0x151D DUP6 DUP5 PUSH2 0x12DB JUMP JUMPDEST PUSH2 0x1539 PUSH2 0x1532 DUP7 PUSH1 0x0 ADD MLOAD DUP8 PUSH1 0x60 ADD MLOAD PUSH2 0x1AF0 JUMP JUMPDEST DUP7 MLOAD PUSH2 0x1B3A JUMP JUMPDEST ISZERO ISZERO PUSH2 0x1571 JUMPI PUSH1 0x40 MLOAD PUSH32 0x8C379A000000000000000000000000000000000000000000000000000000000 DUP2 MSTORE PUSH1 0x4 ADD PUSH2 0xF4 SWAP1 PUSH2 0x2DA4 JUMP JUMPDEST PUSH2 0x16F2 JUMP JUMPDEST PUSH2 0x1580 DUP11 DUP8 PUSH2 0x561 JUMP JUMPDEST SWAP2 POP PUSH1 0x0 DUP3 PUSH1 0x60 ADD MLOAD GT ISZERO PUSH2 0x15B5 JUMPI PUSH2 0x159E DUP9 DUP9 DUP5 PUSH1 0x60 ADD MLOAD PUSH2 0x1B57 JUMP JUMPDEST PUSH1 0x20 DUP1 DUP3 ADD MLOAD SWAP1 DUP8 ADD MSTORE PUSH1 0x60 DUP1 DUP3 ADD MLOAD SWAP1 DUP8 ADD MSTORE SWAP1 POP JUMPDEST PUSH1 0x0 SLOAD PUSH1 0x40 MLOAD PUSH32 0xE5FA431B00000000000000000000000000000000000000000000000000000000 DUP2 MSTORE PUSH20 0xFFFFFFFFFFFFFFFFFFFFFFFFFFFFFFFFFFFFFFFF SWAP1 SWAP2 AND SWAP1 PUSH4 0xE5FA431B SWAP1 PUSH2 0x160F SWAP1 DUP14 SWAP1 DUP11 SWAP1 DUP15 SWAP1 PUSH1 0x4 ADD PUSH2 0x2CF4 JUMP JUMPDEST PUSH1 0x80 PUSH1 0x40 MLOAD DUP1 DUP4 SUB DUP2 PUSH1 0x0 DUP8 DUP1 EXTCODESIZE ISZERO DUP1 ISZERO PUSH2 0x1629 JUMPI PUSH1 0x0 DUP1 REVERT JUMPDEST POP GAS CALL ISZERO DUP1 ISZERO PUSH2 0x163D JUMPI RETURNDATASIZE PUSH1 0x0 DUP1 RETURNDATACOPY RETURNDATASIZE PUSH1 0x0 REVERT JUMPDEST POP POP POP POP PUSH1 0x40 MLOAD RETURNDATASIZE PUSH1 0x1F NOT PUSH1 0x1F DUP3 ADD AND DUP3 ADD DUP1 PUSH1 0x40 MSTORE POP PUSH2 0x1661 SWAP2 SWAP1 DUP2 ADD SWAP1 PUSH2 0x26CF JUMP JUMPDEST DUP1 MLOAD SWAP1 SWAP4 POP DUP7 EQ PUSH2 0x169E JUMPI PUSH1 0x40 MLOAD PUSH32 0x8C379A000000000000000000000000000000000000000000000000000000000 DUP2 MSTORE PUSH1 0x4 ADD PUSH2 0xF4 SWAP1 PUSH2 0x2DA4 JUMP JUMPDEST PUSH2 0x16A8 DUP6 DUP5 PUSH2 0x12DB JUMP JUMPDEST PUSH2 0x16BA DUP6 PUSH1 0x20 ADD MLOAD DUP5 PUSH1 0x20 ADD MLOAD PUSH2 0x1B3A JUMP JUMPDEST ISZERO ISZERO PUSH2 0x16F2 JUMPI PUSH1 0x40 MLOAD PUSH32 0x8C379A000000000000000000000000000000000000000000000000000000000 DUP2 MSTORE PUSH1 0x4 ADD PUSH2 0xF4 SWAP1 PUSH2 0x2DA4 JUMP JUMPDEST PUSH2 0xF96 DUP5 CALLER DUP6 PUSH1 0x0 ADD MLOAD PUSH2 0xFA3 JUMP JUMPDEST PUSH2 0x1709 PUSH2 0x2022 JUMP JUMPDEST PUSH1 0x0 DUP1 PUSH1 0x60 PUSH1 0x0 PUSH2 0x1718 PUSH2 0x2022 JUMP JUMPDEST PUSH2 0x1720 PUSH2 0x2022 JUMP JUMPDEST DUP11 MLOAD SWAP5 POP DUP5 PUSH1 0x40 MLOAD SWAP1 DUP1 DUP3 MSTORE DUP1 PUSH1 0x20 MUL PUSH1 0x20 ADD DUP3 ADD PUSH1 0x40 MSTORE DUP1 ISZERO PUSH2 0x174E JUMPI DUP2 PUSH1 0x20 ADD PUSH1 0x20 DUP3 MUL DUP1 CODESIZE DUP4 CODECOPY ADD SWAP1 POP JUMPDEST POP SWAP4 POP PUSH1 0x0 SWAP3 POP JUMPDEST DUP5 DUP4 LT ISZERO PUSH2 0x188A JUMPI PUSH2 0x1783 DUP7 DUP13 DUP6 DUP2 MLOAD DUP2 LT ISZERO ISZERO PUSH2 0x1770 JUMPI INVALID JUMPDEST SWAP1 PUSH1 0x20 ADD SWAP1 PUSH1 0x20 MUL ADD MLOAD PUSH1 0xE0 ADD MLOAD PUSH2 0x1AF0 JUMP JUMPDEST PUSH1 0x4 DUP1 SLOAD PUSH1 0x40 DUP1 MLOAD PUSH1 0x20 PUSH1 0x1F PUSH1 0x2 PUSH32 0xFFFFFFFFFFFFFFFFFFFFFFFFFFFFFFFFFFFFFFFFFFFFFFFFFFFFFFFFFFFFFFFF PUSH2 0x100 PUSH1 0x1 DUP9 AND ISZERO MUL ADD SWAP1 SWAP6 AND SWAP5 SWAP1 SWAP5 DIV SWAP4 DUP5 ADD DUP2 SWAP1 DIV DUP2 MUL DUP3 ADD DUP2 ADD SWAP1 SWAP3 MSTORE DUP3 DUP2 MSTORE SWAP4 SWAP10 POP DUP4 ADD DUP3 DUP3 DUP1 ISZERO PUSH2 0x1829 JUMPI DUP1 PUSH1 0x1F LT PUSH2 0x17FE JUMPI PUSH2 0x100 DUP1 DUP4 SLOAD DIV MUL DUP4 MSTORE SWAP2 PUSH1 0x20 ADD SWAP2 PUSH2 0x1829 JUMP JUMPDEST DUP3 ADD SWAP2 SWAP1 PUSH1 0x0 MSTORE PUSH1 0x20 PUSH1 0x0 KECCAK256 SWAP1 JUMPDEST DUP2 SLOAD DUP2 MSTORE SWAP1 PUSH1 0x1 ADD SWAP1 PUSH1 0x20 ADD DUP1 DUP4 GT PUSH2 0x180C JUMPI DUP3 SWAP1 SUB PUSH1 0x1F AND DUP3 ADD SWAP2 JUMPDEST POP POP POP POP POP DUP12 DUP5 DUP2 MLOAD DUP2 LT ISZERO ISZERO PUSH2 0x183C JUMPI INVALID JUMPDEST PUSH1 0x20 SWAP1 DUP2 MUL SWAP1 SWAP2 ADD ADD MLOAD PUSH2 0x160 ADD MSTORE DUP11 MLOAD DUP12 SWAP1 DUP5 SWAP1 DUP2 LT PUSH2 0x1859 JUMPI INVALID JUMPDEST SWAP1 PUSH1 0x20 ADD SWAP1 PUSH1 0x20 MUL ADD MLOAD PUSH1 0xA0 ADD MLOAD DUP5 DUP5 DUP2 MLOAD DUP2 LT ISZERO ISZERO PUSH2 0x1875 JUMPI INVALID JUMPDEST PUSH1 0x20 SWAP1 DUP2 MUL SWAP1 SWAP2 ADD ADD MSTORE PUSH1 0x1 SWAP1 SWAP3 ADD SWAP2 PUSH2 0x1756 JUMP JUMPDEST PUSH1 0x0 DUP7 GT ISZERO PUSH2 0x18B5 JUMPI PUSH2 0x189E DUP10 DUP10 DUP9 PUSH2 0x1B57 JUMP JUMPDEST PUSH1 0x60 DUP1 DUP3 ADD MLOAD SWAP1 DUP10 ADD MSTORE PUSH1 0x20 DUP1 DUP3 ADD MLOAD SWAP1 DUP10 ADD MSTORE SWAP2 POP JUMPDEST PUSH1 0x0 SLOAD PUSH1 0x40 MLOAD PUSH32 0x4D0AE54600000000000000000000000000000000000000000000000000000000 DUP2 MSTORE PUSH20 0xFFFFFFFFFFFFFFFFFFFFFFFFFFFFFFFFFFFFFFFF SWAP1 SWAP2 AND SWAP1 PUSH4 0x4D0AE546 SWAP1 PUSH2 0x190F SWAP1 DUP15 SWAP1 DUP9 SWAP1 DUP16 SWAP1 PUSH1 0x4 ADD PUSH2 0x2CBB JUMP JUMPDEST PUSH1 0x80 PUSH1 0x40 MLOAD DUP1 DUP4 SUB DUP2 PUSH1 0x0 DUP8 DUP1 EXTCODESIZE ISZERO DUP1 ISZERO PUSH2 0x1929 JUMPI PUSH1 0x0 DUP1 REVERT JUMPDEST POP GAS CALL ISZERO DUP1 ISZERO PUSH2 0x193D JUMPI RETURNDATASIZE PUSH1 0x0 DUP1 RETURNDATACOPY RETURNDATASIZE PUSH1 0x0 REVERT JUMPDEST POP POP POP POP PUSH1 0x40 MLOAD RETURNDATASIZE PUSH1 0x1F NOT PUSH1 0x1F DUP3 ADD AND DUP3 ADD DUP1 PUSH1 0x40 MSTORE POP PUSH2 0x1961 SWAP2 SWAP1 DUP2 ADD SWAP1 PUSH2 0x26CF JUMP JUMPDEST SWAP1 POP PUSH2 0x196D DUP8 DUP3 PUSH2 0x12DB JUMP JUMPDEST PUSH2 0x197F DUP8 PUSH1 0x20 ADD MLOAD DUP3 PUSH1 0x20 ADD MLOAD PUSH2 0x1B3A JUMP JUMPDEST ISZERO ISZERO PUSH2 0x19B7 JUMPI PUSH1 0x40 MLOAD PUSH32 0x8C379A000000000000000000000000000000000000000000000000000000000 DUP2 MSTORE PUSH1 0x4 ADD PUSH2 0xF4 SWAP1 PUSH2 0x2DA4 JUMP JUMPDEST PUSH1 0x0 SWAP3 POP JUMPDEST DUP5 DUP4 LT ISZERO PUSH2 0x19F5 JUMPI PUSH2 0x19EA DUP12 DUP5 DUP2 MLOAD DUP2 LT ISZERO ISZERO PUSH2 0x19D5 JUMPI INVALID JUMPDEST SWAP1 PUSH1 0x20 ADD SWAP1 PUSH1 0x20 MUL ADD MLOAD PUSH2 0x140 ADD MLOAD CALLER PUSH2 0x1F18 JUMP JUMPDEST PUSH1 0x1 SWAP1 SWAP3 ADD SWAP2 PUSH2 0x19BC JUMP JUMPDEST POP POP POP POP POP POP SWAP5 SWAP4 POP POP POP POP JUMP JUMPDEST PUSH1 0x0 DUP1 PUSH1 0x0 DUP7 GT ISZERO PUSH2 0x1AE8 JUMPI PUSH1 0x1 SLOAD PUSH1 0x40 MLOAD PUSH32 0x2E1A7D4D00000000000000000000000000000000000000000000000000000000 DUP2 MSTORE PUSH20 0xFFFFFFFFFFFFFFFFFFFFFFFFFFFFFFFFFFFFFFFF SWAP1 SWAP2 AND SWAP1 PUSH4 0x2E1A7D4D SWAP1 PUSH2 0x1A65 SWAP1 DUP10 SWAP1 PUSH1 0x4 ADD PUSH2 0x2E43 JUMP JUMPDEST PUSH1 0x0 PUSH1 0x40 MLOAD DUP1 DUP4 SUB DUP2 PUSH1 0x0 DUP8 DUP1 EXTCODESIZE ISZERO DUP1 ISZERO PUSH2 0x1A7F JUMPI PUSH1 0x0 DUP1 REVERT JUMPDEST POP GAS CALL ISZERO DUP1 ISZERO PUSH2 0x1A93 JUMPI RETURNDATASIZE PUSH1 0x0 DUP1 RETURNDATACOPY RETURNDATASIZE PUSH1 0x0 REVERT JUMPDEST POP POP POP POP PUSH2 0x1AA2 DUP6 DUP6 DUP6 PUSH2 0xB8B JUMP JUMPDEST SWAP2 POP PUSH2 0x1AAE DUP7 DUP4 PUSH2 0xC59 JUMP JUMPDEST SWAP1 POP PUSH1 0x0 DUP2 GT ISZERO PUSH2 0x1AE8 JUMPI PUSH1 0x40 MLOAD CALLER SWAP1 DUP3 ISZERO PUSH2 0x8FC MUL SWAP1 DUP4 SWAP1 PUSH1 0x0 DUP2 DUP2 DUP2 DUP6 DUP9 DUP9 CALL SWAP4 POP POP POP POP ISZERO DUP1 ISZERO PUSH2 0x1AE6 JUMPI RETURNDATASIZE PUSH1 0x0 DUP1 RETURNDATACOPY RETURNDATASIZE PUSH1 0x0 REVERT JUMPDEST POP JUMPDEST POP POP POP POP POP POP JUMP JUMPDEST PUSH1 0x0 DUP3 DUP3 ADD DUP4 DUP2 LT ISZERO PUSH2 0x1B2F JUMPI PUSH1 0x40 MLOAD PUSH32 0x8C379A000000000000000000000000000000000000000000000000000000000 DUP2 MSTORE PUSH1 0x4 ADD PUSH2 0xF4 SWAP1 PUSH2 0x2D74 JUMP JUMPDEST DUP1 SWAP2 POP JUMPDEST POP SWAP3 SWAP2 POP POP JUMP JUMPDEST PUSH1 0x0 DUP1 PUSH2 0x1B4C PUSH2 0x251C PUSH2 0x2710 DUP7 PUSH2 0x117D JUMP JUMPDEST SWAP1 SWAP3 LT ISZERO SWAP4 SWAP3 POP POP POP JUMP JUMPDEST PUSH2 0x1B5F PUSH2 0x2022 JUMP JUMPDEST PUSH1 0x0 DUP1 PUSH1 0x0 PUSH2 0x1B6C PUSH2 0x2022 JUMP JUMPDEST PUSH1 0x0 SWAP4 POP JUMPDEST DUP8 MLOAD DUP5 LT ISZERO PUSH2 0x1E85 JUMPI PUSH1 0x3 DUP1 SLOAD PUSH1 0x40 DUP1 MLOAD PUSH1 0x20 PUSH1 0x2 PUSH1 0x1 DUP6 AND ISZERO PUSH2 0x100 MUL PUSH32 0xFFFFFFFFFFFFFFFFFFFFFFFFFFFFFFFFFFFFFFFFFFFFFFFFFFFFFFFFFFFFFFFF ADD SWAP1 SWAP5 AND SWAP4 SWAP1 SWAP4 DIV PUSH1 0x1F DUP2 ADD DUP5 SWAP1 DIV DUP5 MUL DUP3 ADD DUP5 ADD SWAP1 SWAP3 MSTORE DUP2 DUP2 MSTORE SWAP3 SWAP2 DUP4 ADD DUP3 DUP3 DUP1 ISZERO PUSH2 0x1C1E JUMPI DUP1 PUSH1 0x1F LT PUSH2 0x1BF3 JUMPI PUSH2 0x100 DUP1 DUP4 SLOAD DIV MUL DUP4 MSTORE SWAP2 PUSH1 0x20 ADD SWAP2 PUSH2 0x1C1E JUMP JUMPDEST DUP3 ADD SWAP2 SWAP1 PUSH1 0x0 MSTORE PUSH1 0x20 PUSH1 0x0 KECCAK256 SWAP1 JUMPDEST DUP2 SLOAD DUP2 MSTORE SWAP1 PUSH1 0x1 ADD SWAP1 PUSH1 0x20 ADD DUP1 DUP4 GT PUSH2 0x1C01 JUMPI DUP3 SWAP1 SUB PUSH1 0x1F AND DUP3 ADD SWAP2 JUMPDEST POP POP POP POP POP DUP9 DUP6 DUP2 MLOAD DUP2 LT ISZERO ISZERO PUSH2 0x1C31 JUMPI INVALID JUMPDEST PUSH1 0x20 SWAP1 DUP2 MUL SWAP1 SWAP2 ADD DUP2 ADD MLOAD PUSH2 0x140 ADD SWAP2 SWAP1 SWAP2 MSTORE PUSH1 0x4 DUP1 SLOAD PUSH1 0x40 DUP1 MLOAD PUSH1 0x1F PUSH1 0x2 PUSH32 0xFFFFFFFFFFFFFFFFFFFFFFFFFFFFFFFFFFFFFFFFFFFFFFFFFFFFFFFFFFFFFFFF PUSH2 0x100 PUSH1 0x1 DUP8 AND ISZERO MUL ADD SWAP1 SWAP5 AND SWAP4 SWAP1 SWAP4 DIV SWAP3 DUP4 ADD DUP6 SWAP1 DIV DUP6 MUL DUP2 ADD DUP6 ADD SWAP1 SWAP2 MSTORE DUP2 DUP2 MSTORE SWAP3 DUP4 ADD DUP3 DUP3 DUP1 ISZERO PUSH2 0x1CE6 JUMPI DUP1 PUSH1 0x1F LT PUSH2 0x1CBB JUMPI PUSH2 0x100 DUP1 DUP4 SLOAD DIV MUL DUP4 MSTORE SWAP2 PUSH1 0x20 ADD SWAP2 PUSH2 0x1CE6 JUMP JUMPDEST DUP3 ADD SWAP2 SWAP1 PUSH1 0x0 MSTORE PUSH1 0x20 PUSH1 0x0 KECCAK256 SWAP1 JUMPDEST DUP2 SLOAD DUP2 MSTORE SWAP1 PUSH1 0x1 ADD SWAP1 PUSH1 0x20 ADD DUP1 DUP4 GT PUSH2 0x1CC9 JUMPI DUP3 SWAP1 SUB PUSH1 0x1F AND DUP3 ADD SWAP2 JUMPDEST POP POP POP POP POP DUP9 DUP6 DUP2 MLOAD DUP2 LT ISZERO ISZERO PUSH2 0x1CF9 JUMPI INVALID JUMPDEST PUSH1 0x20 SWAP1 DUP2 MUL SWAP1 SWAP2 ADD ADD MLOAD PUSH2 0x160 ADD MSTORE DUP5 MLOAD PUSH2 0x1D15 SWAP1 DUP8 SWAP1 PUSH2 0xC59 JUMP JUMPDEST SWAP3 POP PUSH2 0x1D63 DUP9 DUP6 DUP2 MLOAD DUP2 LT ISZERO ISZERO PUSH2 0x1D28 JUMPI INVALID JUMPDEST SWAP1 PUSH1 0x20 ADD SWAP1 PUSH1 0x20 MUL ADD MLOAD PUSH1 0xA0 ADD MLOAD PUSH2 0xAC0 DUP11 DUP8 DUP2 MLOAD DUP2 LT ISZERO ISZERO PUSH2 0x1D47 JUMPI INVALID JUMPDEST SWAP1 PUSH1 0x20 ADD SWAP1 PUSH1 0x20 MUL ADD MLOAD PUSH1 0x80 ADD MLOAD DUP12 DUP9 DUP2 MLOAD DUP2 LT ISZERO ISZERO PUSH2 0xAAD JUMPI INVALID JUMPDEST PUSH1 0x0 SLOAD DUP10 MLOAD SWAP2 SWAP4 POP PUSH20 0xFFFFFFFFFFFFFFFFFFFFFFFFFFFFFFFFFFFFFFFF AND SWAP1 PUSH4 0xB4BE83D5 SWAP1 DUP11 SWAP1 DUP8 SWAP1 DUP2 LT PUSH2 0x1D94 JUMPI INVALID JUMPDEST SWAP1 PUSH1 0x20 ADD SWAP1 PUSH1 0x20 MUL ADD MLOAD PUSH2 0x1DA9 DUP6 PUSH1 0x1 PUSH2 0x1AF0 JUMP JUMPDEST DUP11 DUP9 DUP2 MLOAD DUP2 LT ISZERO ISZERO PUSH2 0x1DB7 JUMPI INVALID JUMPDEST SWAP1 PUSH1 0x20 ADD SWAP1 PUSH1 0x20 MUL ADD MLOAD PUSH1 0x40 MLOAD DUP5 PUSH4 0xFFFFFFFF AND PUSH29 0x100000000000000000000000000000000000000000000000000000000 MUL DUP2 MSTORE PUSH1 0x4 ADD PUSH2 0x1DFB SWAP4 SWAP3 SWAP2 SWAP1 PUSH2 0x2E03 JUMP JUMPDEST PUSH1 0x80 PUSH1 0x40 MLOAD DUP1 DUP4 SUB DUP2 PUSH1 0x0 DUP8 DUP1 EXTCODESIZE ISZERO DUP1 ISZERO PUSH2 0x1E15 JUMPI PUSH1 0x0 DUP1 REVERT JUMPDEST POP GAS CALL ISZERO DUP1 ISZERO PUSH2 0x1E29 JUMPI RETURNDATASIZE PUSH1 0x0 DUP1 RETURNDATACOPY RETURNDATASIZE PUSH1 0x0 REVERT JUMPDEST POP POP POP POP PUSH1 0x40 MLOAD RETURNDATASIZE PUSH1 0x1F NOT PUSH1 0x1F DUP3 ADD AND DUP3 ADD DUP1 PUSH1 0x40 MSTORE POP PUSH2 0x1E4D SWAP2 SWAP1 DUP2 ADD SWAP1 PUSH2 0x26CF JUMP JUMPDEST SWAP1 POP PUSH2 0x1E61 DUP2 PUSH1 0x0 ADD MLOAD DUP3 PUSH1 0x60 ADD MLOAD PUSH2 0xC59 JUMP JUMPDEST DUP2 MSTORE PUSH2 0x1E6D DUP6 DUP3 PUSH2 0x12DB JUMP JUMPDEST DUP5 MLOAD DUP7 GT PUSH2 0x1E7A JUMPI PUSH2 0x1E85 JUMP JUMPDEST PUSH1 0x1 SWAP1 SWAP4 ADD SWAP3 PUSH2 0x1B71 JUMP JUMPDEST POP POP POP POP SWAP4 SWAP3 POP POP POP JUMP JUMPDEST PUSH1 0x0 DUP1 DUP4 ISZERO ISZERO PUSH2 0x1EA3 JUMPI PUSH1 0x0 SWAP2 POP PUSH2 0x1B33 JUMP JUMPDEST POP DUP3 DUP3 MUL DUP3 DUP5 DUP3 DUP2 ISZERO ISZERO PUSH2 0x1EB3 JUMPI INVALID JUMPDEST DIV EQ PUSH2 0x1B2F JUMPI PUSH1 0x40 MLOAD PUSH32 0x8C379A000000000000000000000000000000000000000000000000000000000 DUP2 MSTORE PUSH1 0x4 ADD PUSH2 0xF4 SWAP1 PUSH2 0x2D74 JUMP JUMPDEST PUSH1 0x0 DUP1 DUP3 DUP5 DUP2 ISZERO ISZERO PUSH2 0x1EF9 JUMPI INVALID JUMPDEST DIV SWAP5 SWAP4 POP POP POP POP JUMP JUMPDEST PUSH1 0x0 DUP2 DUP4 LT PUSH2 0x1F11 JUMPI DUP2 PUSH2 0xB84 JUMP JUMPDEST POP SWAP1 SWAP2 SWAP1 POP JUMP JUMPDEST PUSH1 0x0 DUP1 PUSH2 0x1F2C DUP5 PUSH1 0x10 PUSH4 0xFFFFFFFF PUSH2 0xCA0 AND JUMP JUMPDEST SWAP2 POP PUSH2 0x1F3F DUP5 PUSH1 0x24 PUSH4 0xFFFFFFFF PUSH2 0x1FD0 AND JUMP JUMPDEST PUSH1 0x40 MLOAD PUSH32 0x23B872DD00000000000000000000000000000000000000000000000000000000 DUP2 MSTORE SWAP1 SWAP2 POP PUSH20 0xFFFFFFFFFFFFFFFFFFFFFFFFFFFFFFFFFFFFFFFF DUP4 AND SWAP1 PUSH4 0x23B872DD SWAP1 PUSH2 0x1F98 SWAP1 ADDRESS SWAP1 DUP8 SWAP1 DUP7 SWAP1 PUSH1 0x4 ADD PUSH2 0x2C78 JUMP JUMPDEST PUSH1 0x0 PUSH1 0x40 MLOAD DUP1 DUP4 SUB DUP2 PUSH1 0x0 DUP8 DUP1 EXTCODESIZE ISZERO DUP1 ISZERO PUSH2 0x1FB2 JUMPI PUSH1 0x0 DUP1 REVERT JUMPDEST POP GAS CALL ISZERO DUP1 ISZERO PUSH2 0x1FC6 JUMPI RETURNDATASIZE PUSH1 0x0 DUP1 RETURNDATACOPY RETURNDATASIZE PUSH1 0x0 REVERT JUMPDEST POP POP POP POP POP POP POP POP JUMP JUMPDEST PUSH1 0x0 PUSH2 0xB84 DUP4 DUP4 PUSH1 0x0 DUP2 PUSH1 0x20 ADD DUP4 MLOAD LT ISZERO ISZERO ISZERO PUSH2 0x2019 JUMPI PUSH1 0x40 MLOAD PUSH32 0x8C379A000000000000000000000000000000000000000000000000000000000 DUP2 MSTORE PUSH1 0x4 ADD PUSH2 0xF4 SWAP1 PUSH2 0x2D64 JUMP JUMPDEST POP ADD PUSH1 0x20 ADD MLOAD SWAP1 JUMP JUMPDEST PUSH1 0x80 PUSH1 0x40 MLOAD SWAP1 DUP2 ADD PUSH1 0x40 MSTORE DUP1 PUSH1 0x0 DUP2 MSTORE PUSH1 0x20 ADD PUSH1 0x0 DUP2 MSTORE PUSH1 0x20 ADD PUSH1 0x0 DUP2 MSTORE PUSH1 0x20 ADD PUSH1 0x0 DUP2 MSTORE POP SWAP1 JUMP JUMPDEST PUSH1 0x40 DUP1 MLOAD PUSH1 0x60 DUP2 ADD DUP3 MSTORE PUSH1 0x0 DUP1 DUP3 MSTORE PUSH1 0x20 DUP3 ADD DUP2 SWAP1 MSTORE SWAP2 DUP2 ADD SWAP2 SWAP1 SWAP2 MSTORE SWAP1 JUMP JUMPDEST PUSH1 0x0 PUSH2 0xB84 DUP3 CALLDATALOAD PUSH2 0x2EE9 JUMP JUMPDEST PUSH1 0x0 PUSH1 0x1F DUP3 ADD DUP4 SGT PUSH2 0x2088 JUMPI PUSH1 0x0 DUP1 REVERT JUMPDEST DUP2 CALLDATALOAD PUSH2 0x209B PUSH2 0x2096 DUP3 PUSH2 0x2E78 JUMP JUMPDEST PUSH2 0x2E51 JUMP JUMPDEST DUP2 DUP2 MSTORE PUSH1 0x20 SWAP4 DUP5 ADD SWAP4 SWAP1 SWAP3 POP DUP3 ADD DUP4 PUSH1 0x0 JUMPDEST DUP4 DUP2 LT ISZERO PUSH2 0x61D JUMPI DUP2 CALLDATALOAD DUP7 ADD PUSH2 0x20C3 DUP9 DUP3 PUSH2 0x2142 JUMP JUMPDEST DUP5 MSTORE POP PUSH1 0x20 SWAP3 DUP4 ADD SWAP3 SWAP2 SWAP1 SWAP2 ADD SWAP1 PUSH1 0x1 ADD PUSH2 0x20AD JUMP JUMPDEST PUSH1 0x0 PUSH1 0x1F DUP3 ADD DUP4 SGT PUSH2 0x20EA JUMPI PUSH1 0x0 DUP1 REVERT JUMPDEST DUP2 CALLDATALOAD PUSH2 0x20F8 PUSH2 0x2096 DUP3 PUSH2 0x2E78 JUMP JUMPDEST DUP2 DUP2 MSTORE PUSH1 0x20 SWAP4 DUP5 ADD SWAP4 SWAP1 SWAP3 POP DUP3 ADD DUP4 PUSH1 0x0 JUMPDEST DUP4 DUP2 LT ISZERO PUSH2 0x61D JUMPI DUP2 CALLDATALOAD DUP7 ADD PUSH2 0x2120 DUP9 DUP3 PUSH2 0x2252 JUMP JUMPDEST DUP5 MSTORE POP PUSH1 0x20 SWAP3 DUP4 ADD SWAP3 SWAP2 SWAP1 SWAP2 ADD SWAP1 PUSH1 0x1 ADD PUSH2 0x210A JUMP JUMPDEST PUSH1 0x0 PUSH2 0xB84 DUP3 MLOAD PUSH2 0x2F2E JUMP JUMPDEST PUSH1 0x0 PUSH1 0x1F DUP3 ADD DUP4 SGT PUSH2 0x2153 JUMPI PUSH1 0x0 DUP1 REVERT JUMPDEST DUP2 CALLDATALOAD PUSH2 0x2161 PUSH2 0x2096 DUP3 PUSH2 0x2E99 JUMP JUMPDEST SWAP2 POP DUP1 DUP3 MSTORE PUSH1 0x20 DUP4 ADD PUSH1 0x20 DUP4 ADD DUP6 DUP4 DUP4 ADD GT ISZERO PUSH2 0x217D JUMPI PUSH1 0x0 DUP1 REVERT JUMPDEST PUSH2 0xA25 DUP4 DUP3 DUP5 PUSH2 0x2F37 JUMP JUMPDEST PUSH1 0x0 PUSH1 0x80 DUP3 DUP5 SUB SLT ISZERO PUSH2 0x219A JUMPI PUSH1 0x0 DUP1 REVERT JUMPDEST PUSH2 0x21A4 PUSH1 0x80 PUSH2 0x2E51 JUMP JUMPDEST SWAP1 POP PUSH1 0x0 PUSH2 0x21B2 DUP5 DUP5 PUSH2 0x2136 JUMP JUMPDEST DUP3 MSTORE POP PUSH1 0x20 PUSH2 0x21C3 DUP5 DUP5 DUP4 ADD PUSH2 0x2136 JUMP JUMPDEST PUSH1 0x20 DUP4 ADD MSTORE POP PUSH1 0x40 PUSH2 0x21D7 DUP5 DUP3 DUP6 ADD PUSH2 0x2136 JUMP JUMPDEST PUSH1 0x40 DUP4 ADD MSTORE POP PUSH1 0x60 PUSH2 0x21EB DUP5 DUP3 DUP6 ADD PUSH2 0x2136 JUMP JUMPDEST PUSH1 0x60 DUP4 ADD MSTORE POP SWAP3 SWAP2 POP POP JUMP JUMPDEST PUSH1 0x0 PUSH1 0x60 DUP3 DUP5 SUB SLT ISZERO PUSH2 0x2209 JUMPI PUSH1 0x0 DUP1 REVERT JUMPDEST PUSH2 0x2213 PUSH1 0x60 PUSH2 0x2E51 JUMP JUMPDEST SWAP1 POP PUSH1 0x0 PUSH2 0x2221 DUP5 DUP5 PUSH2 0x23B3 JUMP JUMPDEST DUP3 MSTORE POP PUSH1 0x20 PUSH2 0x2232 DUP5 DUP5 DUP4 ADD PUSH2 0x2136 JUMP JUMPDEST PUSH1 0x20 DUP4 ADD MSTORE POP PUSH1 0x40 PUSH2 0x2246 DUP5 DUP3 DUP6 ADD PUSH2 0x2136 JUMP JUMPDEST PUSH1 0x40 DUP4 ADD MSTORE POP SWAP3 SWAP2 POP POP JUMP JUMPDEST PUSH1 0x0 PUSH2 0x180 DUP3 DUP5 SUB SLT ISZERO PUSH2 0x2265 JUMPI PUSH1 0x0 DUP1 REVERT JUMPDEST PUSH2 0x2270 PUSH2 0x180 PUSH2 0x2E51 JUMP JUMPDEST SWAP1 POP PUSH1 0x0 PUSH2 0x227E DUP5 DUP5 PUSH2 0x206B JUMP JUMPDEST DUP3 MSTORE POP PUSH1 0x20 PUSH2 0x228F DUP5 DUP5 DUP4 ADD PUSH2 0x206B JUMP JUMPDEST PUSH1 0x20 DUP4 ADD MSTORE POP PUSH1 0x40 PUSH2 0x22A3 DUP5 DUP3 DUP6 ADD PUSH2 0x206B JUMP JUMPDEST PUSH1 0x40 DUP4 ADD MSTORE POP PUSH1 0x60 PUSH2 0x22B7 DUP5 DUP3 DUP6 ADD PUSH2 0x206B JUMP JUMPDEST PUSH1 0x60 DUP4 ADD MSTORE POP PUSH1 0x80 PUSH2 0x22CB DUP5 DUP3 DUP6 ADD PUSH2 0x23A7 JUMP JUMPDEST PUSH1 0x80 DUP4 ADD MSTORE POP PUSH1 0xA0 PUSH2 0x22DF DUP5 DUP3 DUP6 ADD PUSH2 0x23A7 JUMP JUMPDEST PUSH1 0xA0 DUP4 ADD MSTORE POP PUSH1 0xC0 PUSH2 0x22F3 DUP5 DUP3 DUP6 ADD PUSH2 0x23A7 JUMP JUMPDEST PUSH1 0xC0 DUP4 ADD MSTORE POP PUSH1 0xE0 PUSH2 0x2307 DUP5 DUP3 DUP6 ADD PUSH2 0x23A7 JUMP JUMPDEST PUSH1 0xE0 DUP4 ADD MSTORE POP PUSH2 0x100 PUSH2 0x231C DUP5 DUP3 DUP6 ADD PUSH2 0x23A7 JUMP JUMPDEST PUSH2 0x100 DUP4 ADD MSTORE POP PUSH2 0x120 PUSH2 0x2332 DUP5 DUP3 DUP6 ADD PUSH2 0x23A7 JUMP JUMPDEST PUSH2 0x120 DUP4 ADD MSTORE POP PUSH2 0x140 DUP3 ADD CALLDATALOAD PUSH8 0xFFFFFFFFFFFFFFFF DUP2 GT ISZERO PUSH2 0x2354 JUMPI PUSH1 0x0 DUP1 REVERT JUMPDEST PUSH2 0x2360 DUP5 DUP3 DUP6 ADD PUSH2 0x2142 JUMP JUMPDEST PUSH2 0x140 DUP4 ADD MSTORE POP PUSH2 0x160 DUP3 ADD CALLDATALOAD PUSH8 0xFFFFFFFFFFFFFFFF DUP2 GT ISZERO PUSH2 0x2382 JUMPI PUSH1 0x0 DUP1 REVERT JUMPDEST PUSH2 0x238E DUP5 DUP3 DUP6 ADD PUSH2 0x2142 JUMP JUMPDEST PUSH2 0x160 DUP4 ADD MSTORE POP SWAP3 SWAP2 POP POP JUMP JUMPDEST PUSH1 0x0 PUSH2 0xB84 DUP3 CALLDATALOAD PUSH2 0x2F27 JUMP JUMPDEST PUSH1 0x0 PUSH2 0xB84 DUP3 CALLDATALOAD PUSH2 0x2F2E JUMP JUMPDEST PUSH1 0x0 PUSH2 0xB84 DUP3 MLOAD PUSH2 0x2F31 JUMP JUMPDEST PUSH1 0x0 DUP1 PUSH1 0x0 DUP1 PUSH1 0x80 DUP6 DUP8 SUB SLT ISZERO PUSH2 0x23D5 JUMPI PUSH1 0x0 DUP1 REVERT JUMPDEST PUSH1 0x0 PUSH2 0x23E1 DUP8 DUP8 PUSH2 0x206B JUMP JUMPDEST SWAP5 POP POP PUSH1 0x20 PUSH2 0x23F2 DUP8 DUP3 DUP9 ADD PUSH2 0x206B JUMP JUMPDEST SWAP4 POP POP PUSH1 0x40 PUSH2 0x2403 DUP8 DUP3 DUP9 ADD PUSH2 0x23A7 JUMP JUMPDEST SWAP3 POP POP PUSH1 0x60 DUP6 ADD CALLDATALOAD PUSH8 0xFFFFFFFFFFFFFFFF DUP2 GT ISZERO PUSH2 0x2420 JUMPI PUSH1 0x0 DUP1 REVERT JUMPDEST PUSH2 0x242C DUP8 DUP3 DUP9 ADD PUSH2 0x2142 JUMP JUMPDEST SWAP2 POP POP SWAP3 SWAP6 SWAP2 SWAP5 POP SWAP3 POP JUMP JUMPDEST PUSH1 0x0 DUP1 PUSH1 0x0 PUSH1 0x60 DUP5 DUP7 SUB SLT ISZERO PUSH2 0x244D JUMPI PUSH1 0x0 DUP1 REVERT JUMPDEST PUSH1 0x0 PUSH2 0x2459 DUP7 DUP7 PUSH2 0x206B JUMP JUMPDEST SWAP4 POP POP PUSH1 0x20 PUSH2 0x246A DUP7 DUP3 DUP8 ADD PUSH2 0x23A7 JUMP JUMPDEST SWAP3 POP POP PUSH1 0x40 DUP5 ADD CALLDATALOAD PUSH8 0xFFFFFFFFFFFFFFFF DUP2 GT ISZERO PUSH2 0x2487 JUMPI PUSH1 0x0 DUP1 REVERT JUMPDEST PUSH2 0x2493 DUP7 DUP3 DUP8 ADD PUSH2 0x2142 JUMP JUMPDEST SWAP2 POP POP SWAP3 POP SWAP3 POP SWAP3 JUMP JUMPDEST PUSH1 0x0 DUP1 PUSH1 0x0 DUP1 PUSH1 0x0 DUP1 PUSH1 0xC0 DUP8 DUP10 SUB SLT ISZERO PUSH2 0x24B6 JUMPI PUSH1 0x0 DUP1 REVERT JUMPDEST DUP7 CALLDATALOAD PUSH8 0xFFFFFFFFFFFFFFFF DUP2 GT ISZERO PUSH2 0x24CD JUMPI PUSH1 0x0 DUP1 REVERT JUMPDEST PUSH2 0x24D9 DUP10 DUP3 DUP11 ADD PUSH2 0x20D9 JUMP JUMPDEST SWAP7 POP POP PUSH1 0x20 DUP8 ADD CALLDATALOAD PUSH8 0xFFFFFFFFFFFFFFFF DUP2 GT ISZERO PUSH2 0x24F6 JUMPI PUSH1 0x0 DUP1 REVERT JUMPDEST PUSH2 0x2502 DUP10 DUP3 DUP11 ADD PUSH2 0x2077 JUMP JUMPDEST SWAP6 POP POP PUSH1 0x40 DUP8 ADD CALLDATALOAD PUSH8 0xFFFFFFFFFFFFFFFF DUP2 GT ISZERO PUSH2 0x251F JUMPI PUSH1 0x0 DUP1 REVERT JUMPDEST PUSH2 0x252B DUP10 DUP3 DUP11 ADD PUSH2 0x20D9 JUMP JUMPDEST SWAP5 POP POP PUSH1 0x60 DUP8 ADD CALLDATALOAD PUSH8 0xFFFFFFFFFFFFFFFF DUP2 GT ISZERO PUSH2 0x2548 JUMPI PUSH1 0x0 DUP1 REVERT JUMPDEST PUSH2 0x2554 DUP10 DUP3 DUP11 ADD PUSH2 0x2077 JUMP JUMPDEST SWAP4 POP POP PUSH1 0x80 PUSH2 0x2565 DUP10 DUP3 DUP11 ADD PUSH2 0x239B JUMP JUMPDEST SWAP3 POP POP PUSH1 0xA0 PUSH2 0x2576 DUP10 DUP3 DUP11 ADD PUSH2 0x206B JUMP JUMPDEST SWAP2 POP POP SWAP3 SWAP6 POP SWAP3 SWAP6 POP SWAP3 SWAP6 JUMP JUMPDEST PUSH1 0x0 DUP1 PUSH1 0x0 DUP1 PUSH1 0x0 DUP1 PUSH1 0x0 PUSH1 0xE0 DUP9 DUP11 SUB SLT ISZERO PUSH2 0x259E JUMPI PUSH1 0x0 DUP1 REVERT JUMPDEST DUP8 CALLDATALOAD PUSH8 0xFFFFFFFFFFFFFFFF DUP2 GT ISZERO PUSH2 0x25B5 JUMPI PUSH1 0x0 DUP1 REVERT JUMPDEST PUSH2 0x25C1 DUP11 DUP3 DUP12 ADD PUSH2 0x20D9 JUMP JUMPDEST SWAP8 POP POP PUSH1 0x20 DUP9 ADD CALLDATALOAD PUSH8 0xFFFFFFFFFFFFFFFF DUP2 GT ISZERO PUSH2 0x25DE JUMPI PUSH1 0x0 DUP1 REVERT JUMPDEST PUSH2 0x25EA DUP11 DUP3 DUP12 ADD PUSH2 0x2077 JUMP JUMPDEST SWAP7 POP POP PUSH1 0x40 DUP9 ADD CALLDATALOAD PUSH8 0xFFFFFFFFFFFFFFFF DUP2 GT ISZERO PUSH2 0x2607 JUMPI PUSH1 0x0 DUP1 REVERT JUMPDEST PUSH2 0x2613 DUP11 DUP3 DUP12 ADD PUSH2 0x20D9 JUMP JUMPDEST SWAP6 POP POP PUSH1 0x60 DUP9 ADD CALLDATALOAD PUSH8 0xFFFFFFFFFFFFFFFF DUP2 GT ISZERO PUSH2 0x2630 JUMPI PUSH1 0x0 DUP1 REVERT JUMPDEST PUSH2 0x263C DUP11 DUP3 DUP12 ADD PUSH2 0x2077 JUMP JUMPDEST SWAP5 POP POP PUSH1 0x80 PUSH2 0x264D DUP11 DUP3 DUP12 ADD PUSH2 0x23A7 JUMP JUMPDEST SWAP4 POP POP PUSH1 0xA0 PUSH2 0x265E DUP11 DUP3 DUP12 ADD PUSH2 0x239B JUMP JUMPDEST SWAP3 POP POP PUSH1 0xC0 PUSH2 0x266F DUP11 DUP3 DUP12 ADD PUSH2 0x206B JUMP JUMPDEST SWAP2 POP POP SWAP3 SWAP6 SWAP9 SWAP2 SWAP5 SWAP8 POP SWAP3 SWAP6 POP JUMP JUMPDEST PUSH1 0x0 DUP1 PUSH1 0x40 DUP4 DUP6 SUB SLT ISZERO PUSH2 0x2691 JUMPI PUSH1 0x0 DUP1 REVERT JUMPDEST DUP3 CALLDATALOAD PUSH8 0xFFFFFFFFFFFFFFFF DUP2 GT ISZERO PUSH2 0x26A8 JUMPI PUSH1 0x0 DUP1 REVERT JUMPDEST PUSH2 0x26B4 DUP6 DUP3 DUP7 ADD PUSH2 0x20D9 JUMP JUMPDEST SWAP3 POP POP PUSH1 0x20 PUSH2 0x26C5 DUP6 DUP3 DUP7 ADD PUSH2 0x23A7 JUMP JUMPDEST SWAP2 POP POP SWAP3 POP SWAP3 SWAP1 POP JUMP JUMPDEST PUSH1 0x0 PUSH1 0x80 DUP3 DUP5 SUB SLT ISZERO PUSH2 0x26E1 JUMPI PUSH1 0x0 DUP1 REVERT JUMPDEST PUSH1 0x0 PUSH2 0x28D DUP5 DUP5 PUSH2 0x2188 JUMP JUMPDEST PUSH1 0x0 PUSH1 0x60 DUP3 DUP5 SUB SLT ISZERO PUSH2 0x26FF JUMPI PUSH1 0x0 DUP1 REVERT JUMPDEST PUSH1 0x0 PUSH2 0x28D DUP5 DUP5 PUSH2 0x21F7 JUMP JUMPDEST PUSH2 0x2714 DUP2 PUSH2 0x2EE9 JUMP JUMPDEST DUP3 MSTORE POP POP JUMP JUMPDEST PUSH1 0x0 PUSH2 0x2725 DUP3 PUSH2 0x2EE5 JUMP JUMPDEST DUP1 DUP5 MSTORE PUSH1 0x20 DUP5 ADD SWAP4 POP DUP4 PUSH1 0x20 DUP3 MUL DUP6 ADD PUSH2 0x273E DUP6 PUSH2 0x2EDF JUMP JUMPDEST PUSH1 0x0 JUMPDEST DUP5 DUP2 LT ISZERO PUSH2 0x2775 JUMPI DUP4 DUP4 SUB DUP9 MSTORE PUSH2 0x2759 DUP4 DUP4 MLOAD PUSH2 0x283C JUMP JUMPDEST SWAP3 POP PUSH2 0x2764 DUP3 PUSH2 0x2EDF JUMP JUMPDEST PUSH1 0x20 SWAP9 SWAP1 SWAP9 ADD SWAP8 SWAP2 POP PUSH1 0x1 ADD PUSH2 0x2741 JUMP JUMPDEST POP SWAP1 SWAP7 SWAP6 POP POP POP POP POP POP JUMP JUMPDEST PUSH1 0x0 PUSH2 0x278C DUP3 PUSH2 0x2EE5 JUMP JUMPDEST DUP1 DUP5 MSTORE PUSH1 0x20 DUP5 ADD SWAP4 POP DUP4 PUSH1 0x20 DUP3 MUL DUP6 ADD PUSH2 0x27A5 DUP6 PUSH2 0x2EDF JUMP JUMPDEST PUSH1 0x0 JUMPDEST DUP5 DUP2 LT ISZERO PUSH2 0x2775 JUMPI DUP4 DUP4 SUB DUP9 MSTORE PUSH2 0x27C0 DUP4 DUP4 MLOAD PUSH2 0x2B63 JUMP JUMPDEST SWAP3 POP PUSH2 0x27CB DUP3 PUSH2 0x2EDF JUMP JUMPDEST PUSH1 0x20 SWAP9 SWAP1 SWAP9 ADD SWAP8 SWAP2 POP PUSH1 0x1 ADD PUSH2 0x27A8 JUMP JUMPDEST PUSH1 0x0 PUSH2 0x27E7 DUP3 PUSH2 0x2EE5 JUMP JUMPDEST DUP1 DUP5 MSTORE PUSH1 0x20 DUP5 ADD SWAP4 POP PUSH2 0x27F9 DUP4 PUSH2 0x2EDF JUMP JUMPDEST PUSH1 0x0 JUMPDEST DUP3 DUP2 LT ISZERO PUSH2 0x2829 JUMPI PUSH2 0x280F DUP7 DUP4 MLOAD PUSH2 0x2C6F JUMP JUMPDEST PUSH2 0x2818 DUP3 PUSH2 0x2EDF JUMP JUMPDEST PUSH1 0x20 SWAP7 SWAP1 SWAP7 ADD SWAP6 SWAP2 POP PUSH1 0x1 ADD PUSH2 0x27FC JUMP JUMPDEST POP SWAP4 SWAP5 SWAP4 POP POP POP POP JUMP JUMPDEST PUSH2 0x2714 DUP2 PUSH2 0x2F02 JUMP JUMPDEST PUSH1 0x0 PUSH2 0x2847 DUP3 PUSH2 0x2EE5 JUMP JUMPDEST DUP1 DUP5 MSTORE PUSH2 0x285B DUP2 PUSH1 0x20 DUP7 ADD PUSH1 0x20 DUP7 ADD PUSH2 0x2F43 JUMP JUMPDEST PUSH2 0x2864 DUP2 PUSH2 0x2F6F JUMP JUMPDEST SWAP1 SWAP4 ADD PUSH1 0x20 ADD SWAP4 SWAP3 POP POP POP JUMP JUMPDEST PUSH1 0x23 DUP2 MSTORE PUSH32 0x44454641554C545F46554E4354494F4E5F574554485F434F4E54524143545F4F PUSH1 0x20 DUP3 ADD MSTORE PUSH32 0x4E4C590000000000000000000000000000000000000000000000000000000000 PUSH1 0x40 DUP3 ADD MSTORE PUSH1 0x60 ADD SWAP1 JUMP JUMPDEST PUSH1 0x11 DUP2 MSTORE PUSH32 0x494E56414C49445F4D53475F56414C5545000000000000000000000000000000 PUSH1 0x20 DUP3 ADD MSTORE PUSH1 0x40 ADD SWAP1 JUMP JUMPDEST PUSH1 0x17 DUP2 MSTORE PUSH32 0x56414C55455F475245415445525F5448414E5F5A45524F000000000000000000 PUSH1 0x20 DUP3 ADD MSTORE PUSH1 0x40 ADD SWAP1 JUMP JUMPDEST PUSH1 0x26 DUP2 MSTORE PUSH32 0x475245415445525F4F525F455155414C5F544F5F33325F4C454E4754485F5245 PUSH1 0x20 DUP3 ADD MSTORE PUSH32 0x5155495245440000000000000000000000000000000000000000000000000000 PUSH1 0x40 DUP3 ADD MSTORE PUSH1 0x60 ADD SWAP1 JUMP JUMPDEST PUSH1 0x10 DUP2 MSTORE PUSH32 0x55494E543235365F4F564552464C4F5700000000000000000000000000000000 PUSH1 0x20 DUP3 ADD MSTORE PUSH1 0x40 ADD SWAP1 JUMP JUMPDEST PUSH1 0x18 DUP2 MSTORE PUSH32 0x4645455F50524F504F5254494F4E5F544F4F5F4C415247450000000000000000 PUSH1 0x20 DUP3 ADD MSTORE PUSH1 0x40 ADD SWAP1 JUMP JUMPDEST PUSH1 0xF DUP2 MSTORE PUSH32 0x5452414E534645525F4641494C45440000000000000000000000000000000000 PUSH1 0x20 DUP3 ADD MSTORE PUSH1 0x40 ADD SWAP1 JUMP JUMPDEST PUSH1 0x16 DUP2 MSTORE PUSH32 0x554E41434345505441424C455F5448524553484F4C4400000000000000000000 PUSH1 0x20 DUP3 ADD MSTORE PUSH1 0x40 ADD SWAP1 JUMP JUMPDEST PUSH1 0x26 DUP2 MSTORE PUSH32 0x475245415445525F4F525F455155414C5F544F5F32305F4C454E4754485F5245 PUSH1 0x20 DUP3 ADD MSTORE PUSH32 0x5155495245440000000000000000000000000000000000000000000000000000 PUSH1 0x40 DUP3 ADD MSTORE PUSH1 0x60 ADD SWAP1 JUMP JUMPDEST PUSH1 0x17 DUP2 MSTORE PUSH32 0x554E535550504F525445445F544F4B454E5F50524F5859000000000000000000 PUSH1 0x20 DUP3 ADD MSTORE PUSH1 0x40 ADD SWAP1 JUMP JUMPDEST PUSH1 0x25 DUP2 MSTORE PUSH32 0x475245415445525F4F525F455155414C5F544F5F345F4C454E4754485F524551 PUSH1 0x20 DUP3 ADD MSTORE PUSH32 0x5549524544000000000000000000000000000000000000000000000000000000 PUSH1 0x40 DUP3 ADD MSTORE PUSH1 0x60 ADD SWAP1 JUMP JUMPDEST DUP1 MLOAD PUSH1 0x80 DUP4 ADD SWAP1 PUSH2 0x2B2A DUP5 DUP3 PUSH2 0x2C6F JUMP JUMPDEST POP PUSH1 0x20 DUP3 ADD MLOAD PUSH2 0x2B3D PUSH1 0x20 DUP6 ADD DUP3 PUSH2 0x2C6F JUMP JUMPDEST POP PUSH1 0x40 DUP3 ADD MLOAD PUSH2 0x2B50 PUSH1 0x40 DUP6 ADD DUP3 PUSH2 0x2C6F JUMP JUMPDEST POP PUSH1 0x60 DUP3 ADD MLOAD PUSH2 0x1177 PUSH1 0x60 DUP6 ADD DUP3 PUSH2 0x2C6F JUMP JUMPDEST DUP1 MLOAD PUSH1 0x0 SWAP1 PUSH2 0x180 DUP5 ADD SWAP1 PUSH2 0x2B78 DUP6 DUP3 PUSH2 0x270B JUMP JUMPDEST POP PUSH1 0x20 DUP4 ADD MLOAD PUSH2 0x2B8B PUSH1 0x20 DUP7 ADD DUP3 PUSH2 0x270B JUMP JUMPDEST POP PUSH1 0x40 DUP4 ADD MLOAD PUSH2 0x2B9E PUSH1 0x40 DUP7 ADD DUP3 PUSH2 0x270B JUMP JUMPDEST POP PUSH1 0x60 DUP4 ADD MLOAD PUSH2 0x2BB1 PUSH1 0x60 DUP7 ADD DUP3 PUSH2 0x270B JUMP JUMPDEST POP PUSH1 0x80 DUP4 ADD MLOAD PUSH2 0x2BC4 PUSH1 0x80 DUP7 ADD DUP3 PUSH2 0x2C6F JUMP JUMPDEST POP PUSH1 0xA0 DUP4 ADD MLOAD PUSH2 0x2BD7 PUSH1 0xA0 DUP7 ADD DUP3 PUSH2 0x2C6F JUMP JUMPDEST POP PUSH1 0xC0 DUP4 ADD MLOAD PUSH2 0x2BEA PUSH1 0xC0 DUP7 ADD DUP3 PUSH2 0x2C6F JUMP JUMPDEST POP PUSH1 0xE0 DUP4 ADD MLOAD PUSH2 0x2BFD PUSH1 0xE0 DUP7 ADD DUP3 PUSH2 0x2C6F JUMP JUMPDEST POP PUSH2 0x100 DUP4 ADD MLOAD PUSH2 0x2C12 PUSH2 0x100 DUP7 ADD DUP3 PUSH2 0x2C6F JUMP JUMPDEST POP PUSH2 0x120 DUP4 ADD MLOAD PUSH2 0x2C27 PUSH2 0x120 DUP7 ADD DUP3 PUSH2 0x2C6F JUMP JUMPDEST POP PUSH2 0x140 DUP4 ADD MLOAD DUP5 DUP3 SUB PUSH2 0x140 DUP7 ADD MSTORE PUSH2 0x2C41 DUP3 DUP3 PUSH2 0x283C JUMP JUMPDEST SWAP2 POP POP PUSH2 0x160 DUP4 ADD MLOAD DUP5 DUP3 SUB PUSH2 0x160 DUP7 ADD MSTORE PUSH2 0x2C5D DUP3 DUP3 PUSH2 0x283C JUMP JUMPDEST SWAP6 SWAP5 POP POP POP POP POP JUMP JUMPDEST PUSH2 0x2714 DUP2 PUSH2 0x2F27 JUMP JUMPDEST PUSH2 0x2714 DUP2 PUSH2 0x2F2E JUMP JUMPDEST PUSH1 0x60 DUP2 ADD PUSH2 0x2C86 DUP3 DUP7 PUSH2 0x270B JUMP JUMPDEST PUSH2 0x2C93 PUSH1 0x20 DUP4 ADD DUP6 PUSH2 0x270B JUMP JUMPDEST PUSH2 0x28D PUSH1 0x40 DUP4 ADD DUP5 PUSH2 0x2C6F JUMP JUMPDEST PUSH1 0x40 DUP2 ADD PUSH2 0x2CAE DUP3 DUP6 PUSH2 0x270B JUMP JUMPDEST PUSH2 0xB84 PUSH1 0x20 DUP4 ADD DUP5 PUSH2 0x2C6F JUMP JUMPDEST PUSH1 0x60 DUP1 DUP3 MSTORE DUP2 ADD PUSH2 0x2CCC DUP2 DUP7 PUSH2 0x2781 JUMP JUMPDEST SWAP1 POP DUP2 DUP2 SUB PUSH1 0x20 DUP4 ADD MSTORE PUSH2 0x2CE0 DUP2 DUP6 PUSH2 0x27DC JUMP JUMPDEST SWAP1 POP DUP2 DUP2 SUB PUSH1 0x40 DUP4 ADD MSTORE PUSH2 0x2C5D DUP2 DUP5 PUSH2 0x271A JUMP JUMPDEST PUSH1 0x60 DUP1 DUP3 MSTORE DUP2 ADD PUSH2 0x2D05 DUP2 DUP7 PUSH2 0x2781 JUMP JUMPDEST SWAP1 POP PUSH2 0x2D14 PUSH1 0x20 DUP4 ADD DUP6 PUSH2 0x2C6F JUMP JUMPDEST DUP2 DUP2 SUB PUSH1 0x40 DUP4 ADD MSTORE PUSH2 0x2C5D DUP2 DUP5 PUSH2 0x271A JUMP JUMPDEST PUSH1 0x20 DUP2 ADD PUSH2 0xC9A DUP3 DUP5 PUSH2 0x2833 JUMP JUMPDEST PUSH1 0x20 DUP1 DUP3 MSTORE DUP2 ADD PUSH2 0xC9A DUP2 PUSH2 0x2871 JUMP JUMPDEST PUSH1 0x20 DUP1 DUP3 MSTORE DUP2 ADD PUSH2 0xC9A DUP2 PUSH2 0x28C7 JUMP JUMPDEST PUSH1 0x20 DUP1 DUP3 MSTORE DUP2 ADD PUSH2 0xC9A DUP2 PUSH2 0x28F7 JUMP JUMPDEST PUSH1 0x20 DUP1 DUP3 MSTORE DUP2 ADD PUSH2 0xC9A DUP2 PUSH2 0x2927 JUMP JUMPDEST PUSH1 0x20 DUP1 DUP3 MSTORE DUP2 ADD PUSH2 0xC9A DUP2 PUSH2 0x297D JUMP JUMPDEST PUSH1 0x20 DUP1 DUP3 MSTORE DUP2 ADD PUSH2 0xC9A DUP2 PUSH2 0x29AD JUMP JUMPDEST PUSH1 0x20 DUP1 DUP3 MSTORE DUP2 ADD PUSH2 0xC9A DUP2 PUSH2 0x29DD JUMP JUMPDEST PUSH1 0x20 DUP1 DUP3 MSTORE DUP2 ADD PUSH2 0xC9A DUP2 PUSH2 0x2A0D JUMP JUMPDEST PUSH1 0x20 DUP1 DUP3 MSTORE DUP2 ADD PUSH2 0xC9A DUP2 PUSH2 0x2A3D JUMP JUMPDEST PUSH1 0x20 DUP1 DUP3 MSTORE DUP2 ADD PUSH2 0xC9A DUP2 PUSH2 0x2A93 JUMP JUMPDEST PUSH1 0x20 DUP1 DUP3 MSTORE DUP2 ADD PUSH2 0xC9A DUP2 PUSH2 0x2AC3 JUMP JUMPDEST PUSH1 0x80 DUP2 ADD PUSH2 0xC9A DUP3 DUP5 PUSH2 0x2B19 JUMP JUMPDEST PUSH1 0x20 DUP1 DUP3 MSTORE DUP2 ADD PUSH2 0xB84 DUP2 DUP5 PUSH2 0x2B63 JUMP JUMPDEST PUSH1 0x60 DUP1 DUP3 MSTORE DUP2 ADD PUSH2 0x2E14 DUP2 DUP7 PUSH2 0x2B63 JUMP JUMPDEST SWAP1 POP PUSH2 0x2E23 PUSH1 0x20 DUP4 ADD DUP6 PUSH2 0x2C6F JUMP JUMPDEST DUP2 DUP2 SUB PUSH1 0x40 DUP4 ADD MSTORE PUSH2 0x2C5D DUP2 DUP5 PUSH2 0x283C JUMP JUMPDEST PUSH1 0x20 DUP2 ADD PUSH2 0xC9A DUP3 DUP5 PUSH2 0x2C66 JUMP JUMPDEST PUSH1 0x20 DUP2 ADD PUSH2 0xC9A DUP3 DUP5 PUSH2 0x2C6F JUMP JUMPDEST PUSH1 0x40 MLOAD DUP2 DUP2 ADD PUSH8 0xFFFFFFFFFFFFFFFF DUP2 GT DUP3 DUP3 LT OR ISZERO PUSH2 0x2E70 JUMPI PUSH1 0x0 DUP1 REVERT JUMPDEST PUSH1 0x40 MSTORE SWAP2 SWAP1 POP JUMP JUMPDEST PUSH1 0x0 PUSH8 0xFFFFFFFFFFFFFFFF DUP3 GT ISZERO PUSH2 0x2E8F JUMPI PUSH1 0x0 DUP1 REVERT JUMPDEST POP PUSH1 0x20 SWAP1 DUP2 MUL ADD SWAP1 JUMP JUMPDEST PUSH1 0x0 PUSH8 0xFFFFFFFFFFFFFFFF DUP3 GT ISZERO PUSH2 0x2EB0 JUMPI PUSH1 0x0 DUP1 REVERT JUMPDEST POP PUSH1 0x20 PUSH1 0x1F SWAP2 SWAP1 SWAP2 ADD PUSH32 0xFFFFFFFFFFFFFFFFFFFFFFFFFFFFFFFFFFFFFFFFFFFFFFFFFFFFFFFFFFFFFFE0 AND ADD SWAP1 JUMP JUMPDEST PUSH1 0x20 ADD SWAP1 JUMP JUMPDEST MLOAD SWAP1 JUMP JUMPDEST PUSH20 0xFFFFFFFFFFFFFFFFFFFFFFFFFFFFFFFFFFFFFFFF AND SWAP1 JUMP JUMPDEST PUSH32 0xFFFFFFFF00000000000000000000000000000000000000000000000000000000 AND SWAP1 JUMP JUMPDEST PUSH2 0xFFFF AND SWAP1 JUMP JUMPDEST SWAP1 JUMP JUMPDEST PUSH1 0xFF AND SWAP1 JUMP JUMPDEST DUP3 DUP2 DUP4 CALLDATACOPY POP PUSH1 0x0 SWAP2 ADD MSTORE JUMP JUMPDEST PUSH1 0x0 JUMPDEST DUP4 DUP2 LT ISZERO PUSH2 0x2F5E JUMPI DUP2 DUP2 ADD MLOAD DUP4 DUP3 ADD MSTORE PUSH1 0x20 ADD PUSH2 0x2F46 JUMP JUMPDEST DUP4 DUP2 GT ISZERO PUSH2 0x1177 JUMPI POP POP PUSH1 0x0 SWAP2 ADD MSTORE JUMP JUMPDEST PUSH1 0x1F ADD PUSH32 0xFFFFFFFFFFFFFFFFFFFFFFFFFFFFFFFFFFFFFFFFFFFFFFFFFFFFFFFFFFFFFFE0 AND SWAP1 JUMP STOP LOG2 PUSH6 0x627A7A723058 KECCAK256 DUP5 DUP10 0xdb SWAP5 SWAP9 0xc3 SWAP8 0xb4 PUSH19 0xD53B1A17FFB22E708FA9C873A4ADAC874BC084 EXTCODECOPY 0xb5 LOG0 SAR PUSH13 0x6578706572696D656E74616CF5 STOP CALLDATACOPY "
			}
		}
	},
	"sourceTreeHashHex": "0x030f2105dbf8b22d470b03034aa0d4e97ff0e9db0ab2aec798b8c1271d71f16f",
	"compiler": {
		"name": "solc",
		"version": "soljson-v0.4.24+commit.e67f0147.js",
		"settings": {
			"optimizer": {
				"enabled": true,
				"runs": 1000000
			},
			"outputSelection": {
				"*": {
					"*": [
						"abi",
						"evm.bytecode.object",
						"evm.bytecode.sourceMap",
						"evm.deployedBytecode.object",
						"evm.deployedBytecode.sourceMap"
					]
				}
			}
		}
	}
}