{
	"schemaVersion": "2.0.0",
	"contractName": "MixinAuthorizable",
	"compilerOutput": {
		"abi": [
			{
				"constant": false,
				"inputs": [
					{
						"name": "target",
						"type": "address"
					}
				],
				"name": "addAuthorizedAddress",
				"outputs": [],
				"payable": false,
				"stateMutability": "nonpayable",
				"type": "function"
			},
			{
				"constant": true,
				"inputs": [
					{
						"name": "",
						"type": "uint256"
					}
				],
				"name": "authorities",
				"outputs": [
					{
						"name": "",
						"type": "address"
					}
				],
				"payable": false,
				"stateMutability": "view",
				"type": "function"
			},
			{
				"constant": false,
				"inputs": [
					{
						"name": "target",
						"type": "address"
					}
				],
				"name": "removeAuthorizedAddress",
				"outputs": [],
				"payable": false,
				"stateMutability": "nonpayable",
				"type": "function"
			},
			{
				"constant": true,
				"inputs": [],
				"name": "owner",
				"outputs": [
					{
						"name": "",
						"type": "address"
					}
				],
				"payable": false,
				"stateMutability": "view",
				"type": "function"
			},
			{
				"constant": false,
				"inputs": [
					{
						"name": "target",
						"type": "address"
					},
					{
						"name": "index",
						"type": "uint256"
					}
				],
				"name": "removeAuthorizedAddressAtIndex",
				"outputs": [],
				"payable": false,
				"stateMutability": "nonpayable",
				"type": "function"
			},
			{
				"constant": true,
				"inputs": [
					{
						"name": "",
						"type": "address"
					}
				],
				"name": "authorized",
				"outputs": [
					{
						"name": "",
						"type": "bool"
					}
				],
				"payable": false,
				"stateMutability": "view",
				"type": "function"
			},
			{
				"constant": true,
				"inputs": [],
				"name": "getAuthorizedAddresses",
				"outputs": [
					{
						"name": "",
						"type": "address[]"
					}
				],
				"payable": false,
				"stateMutability": "view",
				"type": "function"
			},
			{
				"constant": false,
				"inputs": [
					{
						"name": "newOwner",
						"type": "address"
					}
				],
				"name": "transferOwnership",
				"outputs": [],
				"payable": false,
				"stateMutability": "nonpayable",
				"type": "function"
			},
			{
				"anonymous": false,
				"inputs": [
					{
						"indexed": true,
						"name": "target",
						"type": "address"
					},
					{
						"indexed": true,
						"name": "caller",
						"type": "address"
					}
				],
				"name": "AuthorizedAddressAdded",
				"type": "event"
			},
			{
				"anonymous": false,
				"inputs": [
					{
						"indexed": true,
						"name": "target",
						"type": "address"
					},
					{
						"indexed": true,
						"name": "caller",
						"type": "address"
					}
				],
				"name": "AuthorizedAddressRemoved",
				"type": "event"
			}
		],
		"evm": {
			"bytecode": {
				"linkReferences": {},
				"object": "0x608060405260008054600160a060020a03191633179055610a60806100256000396000f3006080604052600436106100745763ffffffff60e060020a60003504166342f1181e8114610079578063494503d41461009b57806370712939146100d15780638da5cb5b146100f15780639ad2674414610106578063b918161114610126578063d39de6e914610153578063f2fde38b14610175575b600080fd5b34801561008557600080fd5b506100996100943660046107ec565b610195565b005b3480156100a757600080fd5b506100bb6100b636600461084c565b6102e4565b6040516100c8919061095d565b60405180910390f35b3480156100dd57600080fd5b506100996100ec3660046107ec565b61030c565b3480156100fd57600080fd5b506100bb6104cc565b34801561011257600080fd5b50610099610121366004610812565b6104db565b34801561013257600080fd5b506101466101413660046107ec565b6106b3565b6040516100c89190610982565b34801561015f57600080fd5b506101686106c8565b6040516100c89190610971565b34801561018157600080fd5b506100996101903660046107ec565b61072b565b600054600160a060020a031633146101cb5760405160e560020a62461bcd0281526004016101c2906109a1565b60405180910390fd5b600160a060020a038116600090815260016020908152604091829020548251606081018452602681527f546172676574206d757374206e6f7420616c726561647920626520617574686f9281019290925260d160020a653934bd32b21702928201929092529060ff16156102555760405160e560020a62461bcd0281526004016101c29190610990565b50600160a060020a0381166000818152600160208190526040808320805460ff19168317905560028054928301815583527f405787fa12a823e0f2b7631cc41b3ba8828b3321ca811111fa75cd3aa3bb5ace9091018054600160a060020a03191684179055513392917f3147867c59d17e8fa9d522465651d44aae0a9e38f902f3475b97e58072f0ed4c91a350565b60028054829081106102f257fe5b600091825260209091200154600160a060020a0316905081565b60008054600160a060020a0316331461033a5760405160e560020a62461bcd0281526004016101c2906109a1565b600160a060020a038216600090815260016020908152604091829020548251606081018452602281527f5461726765742061646472657373206d75737420626520617574686f72697a659281019290925260f160020a61321702928201929092529060ff1615156103c15760405160e560020a62461bcd0281526004016101c29190610990565b5050600160a060020a0381166000908152600160205260408120805460ff191690555b6002548110156104a45781600160a060020a031660028281548110151561040757fe5b600091825260209091200154600160a060020a0316141561049c5760028054600019810190811061043457fe5b60009182526020909120015460028054600160a060020a03909216918390811061045a57fe5b60009182526020909120018054600160a060020a031916600160a060020a03929092169190911790556002805460001901906104969082610786565b506104a4565b6001016103e4565b6040513390600160a060020a03841690600080516020610a0783398151915290600090a35050565b600054600160a060020a031681565b60025460408051606081018252602781527f53706563696669656420617272617920696e646578206973206f7574206f6620602082015260c960020a663137bab7323997029181019190915290821061054a5760405160e560020a62461bcd0281526004016101c29190610990565b5081600160a060020a031660028281548110151561056457fe5b6000918252602091829020015460408051606081018252603581527f4164647265737320666f756e6420617420696e64657820646f6573206e6f742093810193909352605960020a7436b0ba31b4103a30b933b2ba1030b2323932b9b99702908301529091600160a060020a03909116146105f55760405160e560020a62461bcd0281526004016101c29190610990565b50600160a060020a0382166000908152600160205260409020805460ff1916905560028054600019810190811061062857fe5b60009182526020909120015460028054600160a060020a03909216918390811061064e57fe5b60009182526020909120018054600160a060020a031916600160a060020a039290921691909117905560028054600019019061068a9082610786565b506040513390600160a060020a03841690600080516020610a0783398151915290600090a35050565b60016020526000908152604090205460ff1681565b6060600280548060200260200160405190810160405280929190818152602001828054801561072057602002820191906000526020600020905b8154600160a060020a03168152600190910190602001808311610702575b505050505090505b90565b600054600160a060020a031633146107585760405160e560020a62461bcd0281526004016101c2906109a1565b600160a060020a038116156107835760008054600160a060020a031916600160a060020a0383161790555b50565b8154818355818111156107aa576000838152602090206107aa9181019083016107af565b505050565b61072891905b808211156107c957600081556001016107b5565b5090565b60006107d982356109bb565b9392505050565b60006107d98235610728565b6000602082840312156107fe57600080fd5b600061080a84846107cd565b949350505050565b6000806040838503121561082557600080fd5b600061083185856107cd565b9250506020610842858286016107e0565b9150509250929050565b60006020828403121561085e57600080fd5b600061080a84846107e0565b610873816109bb565b82525050565b6000610884826109b7565b808452602084019350610896836109b1565b60005b828110156108c6576108ac86835161086a565b6108b5826109b1565b602096909601959150600101610899565b5093949350505050565b610873816109c7565b60006108e4826109b7565b8084526108f88160208601602086016109cc565b610901816109fc565b9093016020019392505050565b603381527f4f6e6c7920636f6e7472616374206f776e657220697320616c6c6f77656420746020820152606960020a72379031b0b636103a3434b99036b2ba3437b21702604082015260600190565b6020810161096b828461086a565b92915050565b602080825281016107d98184610879565b6020810161096b82846108d0565b602080825281016107d981846108d9565b6020808252810161096b8161090e565b60200190565b5190565b600160a060020a031690565b151590565b60005b838110156109e75781810151838201526020016109cf565b838111156109f6576000848401525b50505050565b601f01601f19169056001f32c1b084e2de0713b8fb16bd46bb9df710a3dbeae2f3ca93af46e016dcc6b0a265627a7a723058206979405867fa90d243aed5df09f2d02b842939e31a3e308563d02e25800a6fc56c6578706572696d656e74616cf50037",
				"opcodes": "PUSH1 0x80 PUSH1 0x40 MSTORE PUSH1 0x0 DUP1 SLOAD PUSH1 0x1 PUSH1 0xA0 PUSH1 0x2 EXP SUB NOT AND CALLER OR SWAP1 SSTORE PUSH2 0xA60 DUP1 PUSH2 0x25 PUSH1 0x0 CODECOPY PUSH1 0x0 RETURN STOP PUSH1 0x80 PUSH1 0x40 MSTORE PUSH1 0x4 CALLDATASIZE LT PUSH2 0x74 JUMPI PUSH4 0xFFFFFFFF PUSH1 0xE0 PUSH1 0x2 EXP PUSH1 0x0 CALLDATALOAD DIV AND PUSH4 0x42F1181E DUP2 EQ PUSH2 0x79 JUMPI DUP1 PUSH4 0x494503D4 EQ PUSH2 0x9B JUMPI DUP1 PUSH4 0x70712939 EQ PUSH2 0xD1 JUMPI DUP1 PUSH4 0x8DA5CB5B EQ PUSH2 0xF1 JUMPI DUP1 PUSH4 0x9AD26744 EQ PUSH2 0x106 JUMPI DUP1 PUSH4 0xB9181611 EQ PUSH2 0x126 JUMPI DUP1 PUSH4 0xD39DE6E9 EQ PUSH2 0x153 JUMPI DUP1 PUSH4 0xF2FDE38B EQ PUSH2 0x175 JUMPI JUMPDEST PUSH1 0x0 DUP1 REVERT JUMPDEST CALLVALUE DUP1 ISZERO PUSH2 0x85 JUMPI PUSH1 0x0 DUP1 REVERT JUMPDEST POP PUSH2 0x99 PUSH2 0x94 CALLDATASIZE PUSH1 0x4 PUSH2 0x7EC JUMP JUMPDEST PUSH2 0x195 JUMP JUMPDEST STOP JUMPDEST CALLVALUE DUP1 ISZERO PUSH2 0xA7 JUMPI PUSH1 0x0 DUP1 REVERT JUMPDEST POP PUSH2 0xBB PUSH2 0xB6 CALLDATASIZE PUSH1 0x4 PUSH2 0x84C JUMP JUMPDEST PUSH2 0x2E4 JUMP JUMPDEST PUSH1 0x40 MLOAD PUSH2 0xC8 SWAP2 SWAP1 PUSH2 0x95D JUMP JUMPDEST PUSH1 0x40 MLOAD DUP1 SWAP2 SUB SWAP1 RETURN JUMPDEST CALLVALUE DUP1 ISZERO PUSH2 0xDD JUMPI PUSH1 0x0 DUP1 REVERT JUMPDEST POP PUSH2 0x99 PUSH2 0xEC CALLDATASIZE PUSH1 0x4 PUSH2 0x7EC JUMP JUMPDEST PUSH2 0x30C JUMP JUMPDEST CALLVALUE DUP1 ISZERO PUSH2 0xFD JUMPI PUSH1 0x0 DUP1 REVERT JUMPDEST POP PUSH2 0xBB PUSH2 0x4CC JUMP JUMPDEST CALLVALUE DUP1 ISZERO PUSH2 0x112 JUMPI PUSH1 0x0 DUP1 REVERT JUMPDEST POP PUSH2 0x99 PUSH2 0x121 CALLDATASIZE PUSH1 0x4 PUSH2 0x812 JUMP JUMPDEST PUSH2 0x4DB JUMP JUMPDEST CALLVALUE DUP1 ISZERO PUSH2 0x132 JUMPI PUSH1 0x0 DUP1 REVERT JUMPDEST POP PUSH2 0x146 PUSH2 0x141 CALLDATASIZE PUSH1 0x4 PUSH2 0x7EC JUMP JUMPDEST PUSH2 0x6B3 JUMP JUMPDEST PUSH1 0x40 MLOAD PUSH2 0xC8 SWAP2 SWAP1 PUSH2 0x982 JUMP JUMPDEST CALLVALUE DUP1 ISZERO PUSH2 0x15F JUMPI PUSH1 0x0 DUP1 REVERT JUMPDEST POP PUSH2 0x168 PUSH2 0x6C8 JUMP JUMPDEST PUSH1 0x40 MLOAD PUSH2 0xC8 SWAP2 SWAP1 PUSH2 0x971 JUMP JUMPDEST CALLVALUE DUP1 ISZERO PUSH2 0x181 JUMPI PUSH1 0x0 DUP1 REVERT JUMPDEST POP PUSH2 0x99 PUSH2 0x190 CALLDATASIZE PUSH1 0x4 PUSH2 0x7EC JUMP JUMPDEST PUSH2 0x72B JUMP JUMPDEST PUSH1 0x0 SLOAD PUSH1 0x1 PUSH1 0xA0 PUSH1 0x2 EXP SUB AND CALLER EQ PUSH2 0x1CB JUMPI PUSH1 0x40 MLOAD PUSH1 0xE5 PUSH1 0x2 EXP PUSH3 0x461BCD MUL DUP2 MSTORE PUSH1 0x4 ADD PUSH2 0x1C2 SWAP1 PUSH2 0x9A1 JUMP JUMPDEST PUSH1 0x40 MLOAD DUP1 SWAP2 SUB SWAP1 REVERT JUMPDEST PUSH1 0x1 PUSH1 0xA0 PUSH1 0x2 EXP SUB DUP2 AND PUSH1 0x0 SWAP1 DUP2 MSTORE PUSH1 0x1 PUSH1 0x20 SWAP1 DUP2 MSTORE PUSH1 0x40 SWAP2 DUP3 SWAP1 KECCAK256 SLOAD DUP3 MLOAD PUSH1 0x60 DUP2 ADD DUP5 MSTORE PUSH1 0x26 DUP2 MSTORE PUSH32 0x546172676574206D757374206E6F7420616C726561647920626520617574686F SWAP3 DUP2 ADD SWAP3 SWAP1 SWAP3 MSTORE PUSH1 0xD1 PUSH1 0x2 EXP PUSH6 0x3934BD32B217 MUL SWAP3 DUP3 ADD SWAP3 SWAP1 SWAP3 MSTORE SWAP1 PUSH1 0xFF AND ISZERO PUSH2 0x255 JUMPI PUSH1 0x40 MLOAD PUSH1 0xE5 PUSH1 0x2 EXP PUSH3 0x461BCD MUL DUP2 MSTORE PUSH1 0x4 ADD PUSH2 0x1C2 SWAP2 SWAP1 PUSH2 0x990 JUMP JUMPDEST POP PUSH1 0x1 PUSH1 0xA0 PUSH1 0x2 EXP SUB DUP2 AND PUSH1 0x0 DUP2 DUP2 MSTORE PUSH1 0x1 PUSH1 0x20 DUP2 SWAP1 MSTORE PUSH1 0x40 DUP1 DUP4 KECCAK256 DUP1 SLOAD PUSH1 0xFF NOT AND DUP4 OR SWAP1 SSTORE PUSH1 0x2 DUP1 SLOAD SWAP3 DUP4 ADD DUP2 SSTORE DUP4 MSTORE PUSH32 0x405787FA12A823E0F2B7631CC41B3BA8828B3321CA811111FA75CD3AA3BB5ACE SWAP1 SWAP2 ADD DUP1 SLOAD PUSH1 0x1 PUSH1 0xA0 PUSH1 0x2 EXP SUB NOT AND DUP5 OR SWAP1 SSTORE MLOAD CALLER SWAP3 SWAP2 PUSH32 0x3147867C59D17E8FA9D522465651D44AAE0A9E38F902F3475B97E58072F0ED4C SWAP2 LOG3 POP JUMP JUMPDEST PUSH1 0x2 DUP1 SLOAD DUP3 SWAP1 DUP2 LT PUSH2 0x2F2 JUMPI INVALID JUMPDEST PUSH1 0x0 SWAP2 DUP3 MSTORE PUSH1 0x20 SWAP1 SWAP2 KECCAK256 ADD SLOAD PUSH1 0x1 PUSH1 0xA0 PUSH1 0x2 EXP SUB AND SWAP1 POP DUP2 JUMP JUMPDEST PUSH1 0x0 DUP1 SLOAD PUSH1 0x1 PUSH1 0xA0 PUSH1 0x2 EXP SUB AND CALLER EQ PUSH2 0x33A JUMPI PUSH1 0x40 MLOAD PUSH1 0xE5 PUSH1 0x2 EXP PUSH3 0x461BCD MUL DUP2 MSTORE PUSH1 0x4 ADD PUSH2 0x1C2 SWAP1 PUSH2 0x9A1 JUMP JUMPDEST PUSH1 0x1 PUSH1 0xA0 PUSH1 0x2 EXP SUB DUP3 AND PUSH1 0x0 SWAP1 DUP2 MSTORE PUSH1 0x1 PUSH1 0x20 SWAP1 DUP2 MSTORE PUSH1 0x40 SWAP2 DUP3 SWAP1 KECCAK256 SLOAD DUP3 MLOAD PUSH1 0x60 DUP2 ADD DUP5 MSTORE PUSH1 0x22 DUP2 MSTORE PUSH32 0x5461726765742061646472657373206D75737420626520617574686F72697A65 SWAP3 DUP2 ADD SWAP3 SWAP1 SWAP3 MSTORE PUSH1 0xF1 PUSH1 0x2 EXP PUSH2 0x3217 MUL SWAP3 DUP3 ADD SWAP3 SWAP1 SWAP3 MSTORE SWAP1 PUSH1 0xFF AND ISZERO ISZERO PUSH2 0x3C1 JUMPI PUSH1 0x40 MLOAD PUSH1 0xE5 PUSH1 0x2 EXP PUSH3 0x461BCD MUL DUP2 MSTORE PUSH1 0x4 ADD PUSH2 0x1C2 SWAP2 SWAP1 PUSH2 0x990 JUMP JUMPDEST POP POP PUSH1 0x1 PUSH1 0xA0 PUSH1 0x2 EXP SUB DUP2 AND PUSH1 0x0 SWAP1 DUP2 MSTORE PUSH1 0x1 PUSH1 0x20 MSTORE PUSH1 0x40 DUP2 KECCAK256 DUP1 SLOAD PUSH1 0xFF NOT AND SWAP1 SSTORE JUMPDEST PUSH1 0x2 SLOAD DUP2 LT ISZERO PUSH2 0x4A4 JUMPI DUP2 PUSH1 0x1 PUSH1 0xA0 PUSH1 0x2 EXP SUB AND PUSH1 0x2 DUP3 DUP2 SLOAD DUP2 LT ISZERO ISZERO PUSH2 0x407 JUMPI INVALID JUMPDEST PUSH1 0x0 SWAP2 DUP3 MSTORE PUSH1 0x20 SWAP1 SWAP2 KECCAK256 ADD SLOAD PUSH1 0x1 PUSH1 0xA0 PUSH1 0x2 EXP SUB AND EQ ISZERO PUSH2 0x49C JUMPI PUSH1 0x2 DUP1 SLOAD PUSH1 0x0 NOT DUP2 ADD SWAP1 DUP2 LT PUSH2 0x434 JUMPI INVALID JUMPDEST PUSH1 0x0 SWAP2 DUP3 MSTORE PUSH1 0x20 SWAP1 SWAP2 KECCAK256 ADD SLOAD PUSH1 0x2 DUP1 SLOAD PUSH1 0x1 PUSH1 0xA0 PUSH1 0x2 EXP SUB SWAP1 SWAP3 AND SWAP2 DUP4 SWAP1 DUP2 LT PUSH2 0x45A JUMPI INVALID JUMPDEST PUSH1 0x0 SWAP2 DUP3 MSTORE PUSH1 0x20 SWAP1 SWAP2 KECCAK256 ADD DUP1 SLOAD PUSH1 0x1 PUSH1 0xA0 PUSH1 0x2 EXP SUB NOT AND PUSH1 0x1 PUSH1 0xA0 PUSH1 0x2 EXP SUB SWAP3 SWAP1 SWAP3 AND SWAP2 SWAP1 SWAP2 OR SWAP1 SSTORE PUSH1 0x2 DUP1 SLOAD PUSH1 0x0 NOT ADD SWAP1 PUSH2 0x496 SWAP1 DUP3 PUSH2 0x786 JUMP JUMPDEST POP PUSH2 0x4A4 JUMP JUMPDEST PUSH1 0x1 ADD PUSH2 0x3E4 JUMP JUMPDEST PUSH1 0x40 MLOAD CALLER SWAP1 PUSH1 0x1 PUSH1 0xA0 PUSH1 0x2 EXP SUB DUP5 AND SWAP1 PUSH1 0x0 DUP1 MLOAD PUSH1 0x20 PUSH2 0xA07 DUP4 CODECOPY DUP2 MLOAD SWAP2 MSTORE SWAP1 PUSH1 0x0 SWAP1 LOG3 POP POP JUMP JUMPDEST PUSH1 0x0 SLOAD PUSH1 0x1 PUSH1 0xA0 PUSH1 0x2 EXP SUB AND DUP2 JUMP JUMPDEST PUSH1 0x2 SLOAD PUSH1 0x40 DUP1 MLOAD PUSH1 0x60 DUP2 ADD DUP3 MSTORE PUSH1 0x27 DUP2 MSTORE PUSH32 0x53706563696669656420617272617920696E646578206973206F7574206F6620 PUSH1 0x20 DUP3 ADD MSTORE PUSH1 0xC9 PUSH1 0x2 EXP PUSH7 0x3137BAB7323997 MUL SWAP2 DUP2 ADD SWAP2 SWAP1 SWAP2 MSTORE SWAP1 DUP3 LT PUSH2 0x54A JUMPI PUSH1 0x40 MLOAD PUSH1 0xE5 PUSH1 0x2 EXP PUSH3 0x461BCD MUL DUP2 MSTORE PUSH1 0x4 ADD PUSH2 0x1C2 SWAP2 SWAP1 PUSH2 0x990 JUMP JUMPDEST POP DUP2 PUSH1 0x1 PUSH1 0xA0 PUSH1 0x2 EXP SUB AND PUSH1 0x2 DUP3 DUP2 SLOAD DUP2 LT ISZERO ISZERO PUSH2 0x564 JUMPI INVALID JUMPDEST PUSH1 0x0 SWAP2 DUP3 MSTORE PUSH1 0x20 SWAP2 DUP3 SWAP1 KECCAK256 ADD SLOAD PUSH1 0x40 DUP1 MLOAD PUSH1 0x60 DUP2 ADD DUP3 MSTORE PUSH1 0x35 DUP2 MSTORE PUSH32 0x4164647265737320666F756E6420617420696E64657820646F6573206E6F7420 SWAP4 DUP2 ADD SWAP4 SWAP1 SWAP4 MSTORE PUSH1 0x59 PUSH1 0x2 EXP PUSH21 0x36B0BA31B4103A30B933B2BA1030B2323932B9B997 MUL SWAP1 DUP4 ADD MSTORE SWAP1 SWAP2 PUSH1 0x1 PUSH1 0xA0 PUSH1 0x2 EXP SUB SWAP1 SWAP2 AND EQ PUSH2 0x5F5 JUMPI PUSH1 0x40 MLOAD PUSH1 0xE5 PUSH1 0x2 EXP PUSH3 0x461BCD MUL DUP2 MSTORE PUSH1 0x4 ADD PUSH2 0x1C2 SWAP2 SWAP1 PUSH2 0x990 JUMP JUMPDEST POP PUSH1 0x1 PUSH1 0xA0 PUSH1 0x2 EXP SUB DUP3 AND PUSH1 0x0 SWAP1 DUP2 MSTORE PUSH1 0x1 PUSH1 0x20 MSTORE PUSH1 0x40 SWAP1 KECCAK256 DUP1 SLOAD PUSH1 0xFF NOT AND SWAP1 SSTORE PUSH1 0x2 DUP1 SLOAD PUSH1 0x0 NOT DUP2 ADD SWAP1 DUP2 LT PUSH2 0x628 JUMPI INVALID JUMPDEST PUSH1 0x0 SWAP2 DUP3 MSTORE PUSH1 0x20 SWAP1 SWAP2 KECCAK256 ADD SLOAD PUSH1 0x2 DUP1 SLOAD PUSH1 0x1 PUSH1 0xA0 PUSH1 0x2 EXP SUB SWAP1 SWAP3 AND SWAP2 DUP4 SWAP1 DUP2 LT PUSH2 0x64E JUMPI INVALID JUMPDEST PUSH1 0x0 SWAP2 DUP3 MSTORE PUSH1 0x20 SWAP1 SWAP2 KECCAK256 ADD DUP1 SLOAD PUSH1 0x1 PUSH1 0xA0 PUSH1 0x2 EXP SUB NOT AND PUSH1 0x1 PUSH1 0xA0 PUSH1 0x2 EXP SUB SWAP3 SWAP1 SWAP3 AND SWAP2 SWAP1 SWAP2 OR SWAP1 SSTORE PUSH1 0x2 DUP1 SLOAD PUSH1 0x0 NOT ADD SWAP1 PUSH2 0x68A SWAP1 DUP3 PUSH2 0x786 JUMP JUMPDEST POP PUSH1 0x40 MLOAD CALLER SWAP1 PUSH1 0x1 PUSH1 0xA0 PUSH1 0x2 EXP SUB DUP5 AND SWAP1 PUSH1 0x0 DUP1 MLOAD PUSH1 0x20 PUSH2 0xA07 DUP4 CODECOPY DUP2 MLOAD SWAP2 MSTORE SWAP1 PUSH1 0x0 SWAP1 LOG3 POP POP JUMP JUMPDEST PUSH1 0x1 PUSH1 0x20 MSTORE PUSH1 0x0 SWAP1 DUP2 MSTORE PUSH1 0x40 SWAP1 KECCAK256 SLOAD PUSH1 0xFF AND DUP2 JUMP JUMPDEST PUSH1 0x60 PUSH1 0x2 DUP1 SLOAD DUP1 PUSH1 0x20 MUL PUSH1 0x20 ADD PUSH1 0x40 MLOAD SWAP1 DUP2 ADD PUSH1 0x40 MSTORE DUP1 SWAP3 SWAP2 SWAP1 DUP2 DUP2 MSTORE PUSH1 0x20 ADD DUP3 DUP1 SLOAD DUP1 ISZERO PUSH2 0x720 JUMPI PUSH1 0x20 MUL DUP3 ADD SWAP2 SWAP1 PUSH1 0x0 MSTORE PUSH1 0x20 PUSH1 0x0 KECCAK256 SWAP1 JUMPDEST DUP2 SLOAD PUSH1 0x1 PUSH1 0xA0 PUSH1 0x2 EXP SUB AND DUP2 MSTORE PUSH1 0x1 SWAP1 SWAP2 ADD SWAP1 PUSH1 0x20 ADD DUP1 DUP4 GT PUSH2 0x702 JUMPI JUMPDEST POP POP POP POP POP SWAP1 POP JUMPDEST SWAP1 JUMP JUMPDEST PUSH1 0x0 SLOAD PUSH1 0x1 PUSH1 0xA0 PUSH1 0x2 EXP SUB AND CALLER EQ PUSH2 0x758 JUMPI PUSH1 0x40 MLOAD PUSH1 0xE5 PUSH1 0x2 EXP PUSH3 0x461BCD MUL DUP2 MSTORE PUSH1 0x4 ADD PUSH2 0x1C2 SWAP1 PUSH2 0x9A1 JUMP JUMPDEST PUSH1 0x1 PUSH1 0xA0 PUSH1 0x2 EXP SUB DUP2 AND ISZERO PUSH2 0x783 JUMPI PUSH1 0x0 DUP1 SLOAD PUSH1 0x1 PUSH1 0xA0 PUSH1 0x2 EXP SUB NOT AND PUSH1 0x1 PUSH1 0xA0 PUSH1 0x2 EXP SUB DUP4 AND OR SWAP1 SSTORE JUMPDEST POP JUMP JUMPDEST DUP2 SLOAD DUP2 DUP4 SSTORE DUP2 DUP2 GT ISZERO PUSH2 0x7AA JUMPI PUSH1 0x0 DUP4 DUP2 MSTORE PUSH1 0x20 SWAP1 KECCAK256 PUSH2 0x7AA SWAP2 DUP2 ADD SWAP1 DUP4 ADD PUSH2 0x7AF JUMP JUMPDEST POP POP POP JUMP JUMPDEST PUSH2 0x728 SWAP2 SWAP1 JUMPDEST DUP1 DUP3 GT ISZERO PUSH2 0x7C9 JUMPI PUSH1 0x0 DUP2 SSTORE PUSH1 0x1 ADD PUSH2 0x7B5 JUMP JUMPDEST POP SWAP1 JUMP JUMPDEST PUSH1 0x0 PUSH2 0x7D9 DUP3 CALLDATALOAD PUSH2 0x9BB JUMP JUMPDEST SWAP4 SWAP3 POP POP POP JUMP JUMPDEST PUSH1 0x0 PUSH2 0x7D9 DUP3 CALLDATALOAD PUSH2 0x728 JUMP JUMPDEST PUSH1 0x0 PUSH1 0x20 DUP3 DUP5 SUB SLT ISZERO PUSH2 0x7FE JUMPI PUSH1 0x0 DUP1 REVERT JUMPDEST PUSH1 0x0 PUSH2 0x80A DUP5 DUP5 PUSH2 0x7CD JUMP JUMPDEST SWAP5 SWAP4 POP POP POP POP JUMP JUMPDEST PUSH1 0x0 DUP1 PUSH1 0x40 DUP4 DUP6 SUB SLT ISZERO PUSH2 0x825 JUMPI PUSH1 0x0 DUP1 REVERT JUMPDEST PUSH1 0x0 PUSH2 0x831 DUP6 DUP6 PUSH2 0x7CD JUMP JUMPDEST SWAP3 POP POP PUSH1 0x20 PUSH2 0x842 DUP6 DUP3 DUP7 ADD PUSH2 0x7E0 JUMP JUMPDEST SWAP2 POP POP SWAP3 POP SWAP3 SWAP1 POP JUMP JUMPDEST PUSH1 0x0 PUSH1 0x20 DUP3 DUP5 SUB SLT ISZERO PUSH2 0x85E JUMPI PUSH1 0x0 DUP1 REVERT JUMPDEST PUSH1 0x0 PUSH2 0x80A DUP5 DUP5 PUSH2 0x7E0 JUMP JUMPDEST PUSH2 0x873 DUP2 PUSH2 0x9BB JUMP JUMPDEST DUP3 MSTORE POP POP JUMP JUMPDEST PUSH1 0x0 PUSH2 0x884 DUP3 PUSH2 0x9B7 JUMP JUMPDEST DUP1 DUP5 MSTORE PUSH1 0x20 DUP5 ADD SWAP4 POP PUSH2 0x896 DUP4 PUSH2 0x9B1 JUMP JUMPDEST PUSH1 0x0 JUMPDEST DUP3 DUP2 LT ISZERO PUSH2 0x8C6 JUMPI PUSH2 0x8AC DUP7 DUP4 MLOAD PUSH2 0x86A JUMP JUMPDEST PUSH2 0x8B5 DUP3 PUSH2 0x9B1 JUMP JUMPDEST PUSH1 0x20 SWAP7 SWAP1 SWAP7 ADD SWAP6 SWAP2 POP PUSH1 0x1 ADD PUSH2 0x899 JUMP JUMPDEST POP SWAP4 SWAP5 SWAP4 POP POP POP POP JUMP JUMPDEST PUSH2 0x873 DUP2 PUSH2 0x9C7 JUMP JUMPDEST PUSH1 0x0 PUSH2 0x8E4 DUP3 PUSH2 0x9B7 JUMP JUMPDEST DUP1 DUP5 MSTORE PUSH2 0x8F8 DUP2 PUSH1 0x20 DUP7 ADD PUSH1 0x20 DUP7 ADD PUSH2 0x9CC JUMP JUMPDEST PUSH2 0x901 DUP2 PUSH2 0x9FC JUMP JUMPDEST SWAP1 SWAP4 ADD PUSH1 0x20 ADD SWAP4 SWAP3 POP POP POP JUMP JUMPDEST PUSH1 0x33 DUP2 MSTORE PUSH32 0x4F6E6C7920636F6E7472616374206F776E657220697320616C6C6F7765642074 PUSH1 0x20 DUP3 ADD MSTORE PUSH1 0x69 PUSH1 0x2 EXP PUSH19 0x379031B0B636103A3434B99036B2BA3437B217 MUL PUSH1 0x40 DUP3 ADD MSTORE PUSH1 0x60 ADD SWAP1 JUMP JUMPDEST PUSH1 0x20 DUP2 ADD PUSH2 0x96B DUP3 DUP5 PUSH2 0x86A JUMP JUMPDEST SWAP3 SWAP2 POP POP JUMP JUMPDEST PUSH1 0x20 DUP1 DUP3 MSTORE DUP2 ADD PUSH2 0x7D9 DUP2 DUP5 PUSH2 0x879 JUMP JUMPDEST PUSH1 0x20 DUP2 ADD PUSH2 0x96B DUP3 DUP5 PUSH2 0x8D0 JUMP JUMPDEST PUSH1 0x20 DUP1 DUP3 MSTORE DUP2 ADD PUSH2 0x7D9 DUP2 DUP5 PUSH2 0x8D9 JUMP JUMPDEST PUSH1 0x20 DUP1 DUP3 MSTORE DUP2 ADD PUSH2 0x96B DUP2 PUSH2 0x90E JUMP JUMPDEST PUSH1 0x20 ADD SWAP1 JUMP JUMPDEST MLOAD SWAP1 JUMP JUMPDEST PUSH1 0x1 PUSH1 0xA0 PUSH1 0x2 EXP SUB AND SWAP1 JUMP JUMPDEST ISZERO ISZERO SWAP1 JUMP JUMPDEST PUSH1 0x0 JUMPDEST DUP4 DUP2 LT ISZERO PUSH2 0x9E7 JUMPI DUP2 DUP2 ADD MLOAD DUP4 DUP3 ADD MSTORE PUSH1 0x20 ADD PUSH2 0x9CF JUMP JUMPDEST DUP4 DUP2 GT ISZERO PUSH2 0x9F6 JUMPI PUSH1 0x0 DUP5 DUP5 ADD MSTORE JUMPDEST POP POP POP POP JUMP JUMPDEST PUSH1 0x1F ADD PUSH1 0x1F NOT AND SWAP1 JUMP STOP 0x1f ORIGIN 0xc1 0xb0 DUP5 0xe2 0xde SMOD SGT 0xb8 CREATE2 AND 0xbd 0x46 0xbb SWAP14 0xf7 LT LOG3 0xdb 0xea 0xe2 RETURN 0xca SWAP4 0xaf 0x46 0xe0 AND 0xdc 0xc6 0xb0 LOG2 PUSH6 0x627A7A723058 KECCAK256 PUSH10 0x79405867FA90D243AED5 0xdf MULMOD CALLCODE 0xd0 0x2b DUP5 0x29 CODECOPY 0xe3 BYTE RETURNDATACOPY ADDRESS DUP6 PUSH4 0xD02E2580 EXP PUSH16 0xC56C6578706572696D656E74616CF500 CALLDATACOPY "
			}
		}
	},
	"sourceTreeHashHex": "0xa61b1c24ef5cac2a4b60e74197ea96f6cd9a5071a480ac62218c9e5f4e0773fc",
	"compiler": {
		"name": "solc",
		"version": "soljson-v0.4.24+commit.e67f0147.js",
		"settings": {
			"optimizer": {
				"enabled": true,
				"runs": 0
			},
			"outputSelection": {
				"*": {
					"*": [
						"abi",
						"evm.bytecode.object",
						"evm.bytecode.sourceMap",
						"evm.deployedBytecode.object",
						"evm.deployedBytecode.sourceMap"
					]
				}
			}
		}
	}
}