{
	"schemaVersion": "2.0.0",
	"contractName": "MultiSigWalletWithTimeLockExceptRemoveAuthorizedAddress",
	"compilerOutput": {
		"abi": [
			{
				"constant": true,
				"inputs": [
					{
						"name": "",
						"type": "uint256"
					}
				],
				"name": "owners",
				"outputs": [
					{
						"name": "",
						"type": "address"
					}
				],
				"payable": false,
				"stateMutability": "view",
				"type": "function"
			},
			{
				"constant": false,
				"inputs": [
					{
						"name": "owner",
						"type": "address"
					}
				],
				"name": "removeOwner",
				"outputs": [],
				"payable": false,
				"stateMutability": "nonpayable",
				"type": "function"
			},
			{
				"constant": false,
				"inputs": [
					{
						"name": "transactionId",
						"type": "uint256"
					}
				],
				"name": "revokeConfirmation",
				"outputs": [],
				"payable": false,
				"stateMutability": "nonpayable",
				"type": "function"
			},
			{
				"constant": true,
				"inputs": [
					{
						"name": "",
						"type": "address"
					}
				],
				"name": "isOwner",
				"outputs": [
					{
						"name": "",
						"type": "bool"
					}
				],
				"payable": false,
				"stateMutability": "view",
				"type": "function"
			},
			{
				"constant": true,
				"inputs": [
					{
						"name": "",
						"type": "uint256"
					},
					{
						"name": "",
						"type": "address"
					}
				],
				"name": "confirmations",
				"outputs": [
					{
						"name": "",
						"type": "bool"
					}
				],
				"payable": false,
				"stateMutability": "view",
				"type": "function"
			},
			{
				"constant": true,
				"inputs": [],
				"name": "secondsTimeLocked",
				"outputs": [
					{
						"name": "",
						"type": "uint256"
					}
				],
				"payable": false,
				"stateMutability": "view",
				"type": "function"
			},
			{
				"constant": true,
				"inputs": [
					{
						"name": "pending",
						"type": "bool"
					},
					{
						"name": "executed",
						"type": "bool"
					}
				],
				"name": "getTransactionCount",
				"outputs": [
					{
						"name": "count",
						"type": "uint256"
					}
				],
				"payable": false,
				"stateMutability": "view",
				"type": "function"
			},
			{
				"constant": true,
				"inputs": [
					{
						"name": "data",
						"type": "bytes"
					}
				],
				"name": "isFunctionRemoveAuthorizedAddress",
				"outputs": [
					{
						"name": "",
						"type": "bool"
					}
				],
				"payable": false,
				"stateMutability": "view",
				"type": "function"
			},
			{
				"constant": false,
				"inputs": [
					{
						"name": "transactionId",
						"type": "uint256"
					}
				],
				"name": "executeRemoveAuthorizedAddress",
				"outputs": [],
				"payable": false,
				"stateMutability": "nonpayable",
				"type": "function"
			},
			{
				"constant": false,
				"inputs": [
					{
						"name": "owner",
						"type": "address"
					}
				],
				"name": "addOwner",
				"outputs": [],
				"payable": false,
				"stateMutability": "nonpayable",
				"type": "function"
			},
			{
				"constant": true,
				"inputs": [
					{
						"name": "transactionId",
						"type": "uint256"
					}
				],
				"name": "isConfirmed",
				"outputs": [
					{
						"name": "",
						"type": "bool"
					}
				],
				"payable": false,
				"stateMutability": "view",
				"type": "function"
			},
			{
				"constant": false,
				"inputs": [
					{
						"name": "_secondsTimeLocked",
						"type": "uint256"
					}
				],
				"name": "changeTimeLock",
				"outputs": [],
				"payable": false,
				"stateMutability": "nonpayable",
				"type": "function"
			},
			{
				"constant": true,
				"inputs": [
					{
						"name": "transactionId",
						"type": "uint256"
					}
				],
				"name": "getConfirmationCount",
				"outputs": [
					{
						"name": "count",
						"type": "uint256"
					}
				],
				"payable": false,
				"stateMutability": "view",
				"type": "function"
			},
			{
				"constant": true,
				"inputs": [
					{
						"name": "",
						"type": "uint256"
					}
				],
				"name": "transactions",
				"outputs": [
					{
						"name": "destination",
						"type": "address"
					},
					{
						"name": "value",
						"type": "uint256"
					},
					{
						"name": "data",
						"type": "bytes"
					},
					{
						"name": "executed",
						"type": "bool"
					}
				],
				"payable": false,
				"stateMutability": "view",
				"type": "function"
			},
			{
				"constant": true,
				"inputs": [],
				"name": "getOwners",
				"outputs": [
					{
						"name": "",
						"type": "address[]"
					}
				],
				"payable": false,
				"stateMutability": "view",
				"type": "function"
			},
			{
				"constant": true,
				"inputs": [
					{
						"name": "from",
						"type": "uint256"
					},
					{
						"name": "to",
						"type": "uint256"
					},
					{
						"name": "pending",
						"type": "bool"
					},
					{
						"name": "executed",
						"type": "bool"
					}
				],
				"name": "getTransactionIds",
				"outputs": [
					{
						"name": "_transactionIds",
						"type": "uint256[]"
					}
				],
				"payable": false,
				"stateMutability": "view",
				"type": "function"
			},
			{
				"constant": true,
				"inputs": [],
				"name": "TOKEN_TRANSFER_PROXY_CONTRACT",
				"outputs": [
					{
						"name": "",
						"type": "address"
					}
				],
				"payable": false,
				"stateMutability": "view",
				"type": "function"
			},
			{
				"constant": true,
				"inputs": [
					{
						"name": "transactionId",
						"type": "uint256"
					}
				],
				"name": "getConfirmations",
				"outputs": [
					{
						"name": "_confirmations",
						"type": "address[]"
					}
				],
				"payable": false,
				"stateMutability": "view",
				"type": "function"
			},
			{
				"constant": true,
				"inputs": [],
				"name": "transactionCount",
				"outputs": [
					{
						"name": "",
						"type": "uint256"
					}
				],
				"payable": false,
				"stateMutability": "view",
				"type": "function"
			},
			{
				"constant": false,
				"inputs": [
					{
						"name": "_required",
						"type": "uint256"
					}
				],
				"name": "changeRequirement",
				"outputs": [],
				"payable": false,
				"stateMutability": "nonpayable",
				"type": "function"
			},
			{
				"constant": false,
				"inputs": [
					{
						"name": "transactionId",
						"type": "uint256"
					}
				],
				"name": "confirmTransaction",
				"outputs": [],
				"payable": false,
				"stateMutability": "nonpayable",
				"type": "function"
			},
			{
				"constant": false,
				"inputs": [
					{
						"name": "destination",
						"type": "address"
					},
					{
						"name": "value",
						"type": "uint256"
					},
					{
						"name": "data",
						"type": "bytes"
					}
				],
				"name": "submitTransaction",
				"outputs": [
					{
						"name": "transactionId",
						"type": "uint256"
					}
				],
				"payable": false,
				"stateMutability": "nonpayable",
				"type": "function"
			},
			{
				"constant": true,
				"inputs": [
					{
						"name": "",
						"type": "uint256"
					}
				],
				"name": "confirmationTimes",
				"outputs": [
					{
						"name": "",
						"type": "uint256"
					}
				],
				"payable": false,
				"stateMutability": "view",
				"type": "function"
			},
			{
				"constant": true,
				"inputs": [],
				"name": "MAX_OWNER_COUNT",
				"outputs": [
					{
						"name": "",
						"type": "uint256"
					}
				],
				"payable": false,
				"stateMutability": "view",
				"type": "function"
			},
			{
				"constant": true,
				"inputs": [],
				"name": "required",
				"outputs": [
					{
						"name": "",
						"type": "uint256"
					}
				],
				"payable": false,
				"stateMutability": "view",
				"type": "function"
			},
			{
				"constant": false,
				"inputs": [
					{
						"name": "owner",
						"type": "address"
					},
					{
						"name": "newOwner",
						"type": "address"
					}
				],
				"name": "replaceOwner",
				"outputs": [],
				"payable": false,
				"stateMutability": "nonpayable",
				"type": "function"
			},
			{
				"constant": false,
				"inputs": [
					{
						"name": "transactionId",
						"type": "uint256"
					}
				],
				"name": "executeTransaction",
				"outputs": [],
				"payable": false,
				"stateMutability": "nonpayable",
				"type": "function"
			},
			{
				"inputs": [
					{
						"name": "_owners",
						"type": "address[]"
					},
					{
						"name": "_required",
						"type": "uint256"
					},
					{
						"name": "_secondsTimeLocked",
						"type": "uint256"
					},
					{
						"name": "_tokenTransferProxy",
						"type": "address"
					}
				],
				"payable": false,
				"stateMutability": "nonpayable",
				"type": "constructor"
			},
			{
				"payable": true,
				"stateMutability": "payable",
				"type": "fallback"
			},
			{
				"anonymous": false,
				"inputs": [
					{
						"indexed": true,
						"name": "transactionId",
						"type": "uint256"
					},
					{
						"indexed": false,
						"name": "confirmationTime",
						"type": "uint256"
					}
				],
				"name": "ConfirmationTimeSet",
				"type": "event"
			},
			{
				"anonymous": false,
				"inputs": [
					{
						"indexed": false,
						"name": "secondsTimeLocked",
						"type": "uint256"
					}
				],
				"name": "TimeLockChange",
				"type": "event"
			},
			{
				"anonymous": false,
				"inputs": [
					{
						"indexed": true,
						"name": "sender",
						"type": "address"
					},
					{
						"indexed": true,
						"name": "transactionId",
						"type": "uint256"
					}
				],
				"name": "Confirmation",
				"type": "event"
			},
			{
				"anonymous": false,
				"inputs": [
					{
						"indexed": true,
						"name": "sender",
						"type": "address"
					},
					{
						"indexed": true,
						"name": "transactionId",
						"type": "uint256"
					}
				],
				"name": "Revocation",
				"type": "event"
			},
			{
				"anonymous": false,
				"inputs": [
					{
						"indexed": true,
						"name": "transactionId",
						"type": "uint256"
					}
				],
				"name": "Submission",
				"type": "event"
			},
			{
				"anonymous": false,
				"inputs": [
					{
						"indexed": true,
						"name": "transactionId",
						"type": "uint256"
					}
				],
				"name": "Execution",
				"type": "event"
			},
			{
				"anonymous": false,
				"inputs": [
					{
						"indexed": true,
						"name": "transactionId",
						"type": "uint256"
					}
				],
				"name": "ExecutionFailure",
				"type": "event"
			},
			{
				"anonymous": false,
				"inputs": [
					{
						"indexed": true,
						"name": "sender",
						"type": "address"
					},
					{
						"indexed": false,
						"name": "value",
						"type": "uint256"
					}
				],
				"name": "Deposit",
				"type": "event"
			},
			{
				"anonymous": false,
				"inputs": [
					{
						"indexed": true,
						"name": "owner",
						"type": "address"
					}
				],
				"name": "OwnerAddition",
				"type": "event"
			},
			{
				"anonymous": false,
				"inputs": [
					{
						"indexed": true,
						"name": "owner",
						"type": "address"
					}
				],
				"name": "OwnerRemoval",
				"type": "event"
			},
			{
				"anonymous": false,
				"inputs": [
					{
						"indexed": false,
						"name": "required",
						"type": "uint256"
					}
				],
				"name": "RequirementChange",
				"type": "event"
			}
		],
		"evm": {
			"bytecode": {
				"linkReferences": {},
				"object": "0x60806040523480156200001157600080fd5b5060405162001c7738038062001c778339810160409081528151602083015191830151606084015191909301805190939190849084908490839083906000908260328211806200006057508181115b806200006a575080155b8062000074575081155b156200007f57600080fd5b600092505b84518310156200015357600260008685815181101515620000a157fe5b6020908102909101810151600160a060020a031682528101919091526040016000205460ff1680620000f457508483815181101515620000dd57fe5b90602001906020020151600160a060020a03166000145b15620000ff57600080fd5b60016002600087868151811015156200011457fe5b602090810291909101810151600160a060020a03168252810191909152604001600020805460ff19169115159190911790556001929092019162000084565b845162000168906003906020880190620001a2565b5050506004919091555050600655505060088054600160a060020a031916600160a060020a03929092169190911790555062000236915050565b828054828255906000526020600020908101928215620001fa579160200282015b82811115620001fa5782518254600160a060020a031916600160a060020a03909116178255602090920191600190910190620001c3565b50620002089291506200020c565b5090565b6200023391905b8082111562000208578054600160a060020a031916815560010162000213565b90565b611a3180620002466000396000f30060806040526004361061015e5763ffffffff7c0100000000000000000000000000000000000000000000000000000000600035041663025e7c2781146101a9578063173825d9146101dd57806320ea8d86146101fe5780632f54bf6e146102165780633411c81c1461024b57806337bd78a01461026f5780635474152514610296578063553a48fd146102b55780635711b3111461030e5780637065cb4814610326578063784547a7146103475780637ad28c511461035f5780638b51d13f146103775780639ace38c21461038f578063a0e67e2b1461044a578063a8abe69a146104af578063add1cbc5146104d4578063b5dc40c3146104e9578063b77bf60014610501578063ba51a6df14610516578063c01a8c841461052e578063c642747414610546578063d38f2d82146105af578063d74f8edd146105c7578063dc8452cd146105dc578063e20056e6146105f1578063ee22610b14610618575b60003411156101a757604080513481529051600160a060020a033316917fe1fffcc4923d04b559f4d29a8bfc6cda04eb5b0d3c460751c2402c5c5cc9109c919081900360200190a25b005b3480156101b557600080fd5b506101c1600435610630565b60408051600160a060020a039092168252519081900360200190f35b3480156101e957600080fd5b506101a7600160a060020a0360043516610658565b34801561020a57600080fd5b506101a76004356107e3565b34801561022257600080fd5b50610237600160a060020a03600435166108ce565b604080519115158252519081900360200190f35b34801561025757600080fd5b50610237600435600160a060020a03602435166108e3565b34801561027b57600080fd5b50610284610903565b60408051918252519081900360200190f35b3480156102a257600080fd5b5061028460043515156024351515610909565b3480156102c157600080fd5b506040805160206004803580820135601f81018490048402850184019095528484526102379436949293602493928401919081908401838280828437509497506109759650505050505050565b34801561031a57600080fd5b506101a7600435610a80565b34801561033257600080fd5b506101a7600160a060020a0360043516610cb7565b34801561035357600080fd5b50610237600435610de8565b34801561036b57600080fd5b506101a7600435610e65565b34801561038357600080fd5b50610284600435610ec0565b34801561039b57600080fd5b506103a7600435610f2f565b6040518085600160a060020a0316600160a060020a031681526020018481526020018060200183151515158152602001828103825284818151815260200191508051906020019080838360005b8381101561040c5781810151838201526020016103f4565b50505050905090810190601f1680156104395780820380516001836020036101000a031916815260200191505b509550505050505060405180910390f35b34801561045657600080fd5b5061045f610fed565b60408051602080825283518183015283519192839290830191858101910280838360005b8381101561049b578181015183820152602001610483565b505050509050019250505060405180910390f35b3480156104bb57600080fd5b5061045f60043560243560443515156064351515611050565b3480156104e057600080fd5b506101c1611189565b3480156104f557600080fd5b5061045f600435611198565b34801561050d57600080fd5b50610284611311565b34801561052257600080fd5b506101a7600435611317565b34801561053a57600080fd5b506101a76004356113a2565b34801561055257600080fd5b50604080516020600460443581810135601f8101849004840285018401909552848452610284948235600160a060020a03169460248035953695946064949201919081908401838280828437509497506114a59650505050505050565b3480156105bb57600080fd5b506102846004356114c4565b3480156105d357600080fd5b506102846114d6565b3480156105e857600080fd5b506102846114db565b3480156105fd57600080fd5b506101a7600160a060020a03600435811690602435166114e1565b34801561062457600080fd5b506101a760043561167f565b600380548290811061063e57fe5b600091825260209091200154600160a060020a0316905081565b600030600160a060020a031633600160a060020a031614151561067a57600080fd5b600160a060020a038216600090815260026020526040902054829060ff1615156106a357600080fd5b600160a060020a0383166000908152600260205260408120805460ff1916905591505b6003546000190182101561077e5782600160a060020a03166003838154811015156106ed57fe5b600091825260209091200154600160a060020a031614156107735760038054600019810190811061071a57fe5b60009182526020909120015460038054600160a060020a03909216918490811061074057fe5b9060005260206000200160006101000a815481600160a060020a030219169083600160a060020a0316021790555061077e565b6001909101906106c6565b6003805460001901906107919082611944565b5060035460045411156107aa576003546107aa90611317565b604051600160a060020a038416907f8001553a916ef2f495d26a907cc54d96ed840d7bda71e73194bf5a9df7a76b9090600090a2505050565b33600160a060020a03811660009081526002602052604090205460ff16151561080b57600080fd5b600082815260016020908152604080832033600160a060020a038116855292529091205483919060ff16151561084057600080fd5b600084815260208190526040902060030154849060ff161561086157600080fd5b8461086b81610de8565b1561087557600080fd5b6000868152600160209081526040808320600160a060020a0333168085529252808320805460ff191690555188927ff6a317157440607f36269043eb55f1287a5a19ba2216afeab88cd46cbcfb88e991a3505050505050565b60026020526000908152604090205460ff1681565b600160209081526000928352604080842090915290825290205460ff1681565b60065481565b6000805b60055481101561096e57838015610936575060008181526020819052604090206003015460ff16155b8061095a575082801561095a575060008181526020819052604090206003015460ff165b15610966576001820191505b60010161090d565b5092915050565b604080517f72656d6f7665417574686f72697a65644164647265737328616464726573732981529051908190036020019020600090815b6004811015610a74578181600481106109c157fe5b1a7f0100000000000000000000000000000000000000000000000000000000000000027effffffffffffffffffffffffffffffffffffffffffffffffffffffffffffff19168482815181101515610a1457fe5b6020910101517f010000000000000000000000000000000000000000000000000000000000000090819004027fff000000000000000000000000000000000000000000000000000000000000001614610a6c57600080fd5b6001016109ac565b600192505b5050919050565b600081815260208190526040812060030154829060ff1615610aa157600080fd5b82610aab81610de8565b1515610ab657600080fd5b60008481526020819052604090206008548154869291600160a060020a03918216911614610ae357600080fd5b600281810180546040805160206001841615610100026000190190931694909404601f8101839004830285018301909152808452610b78939291830182828015610b6e5780601f10610b4357610100808354040283529160200191610b6e565b820191906000526020600020905b815481529060010190602001808311610b5157829003601f168201915b5050505050610975565b1515610b8357600080fd5b6000868152602081905260409081902060038101805460ff19166001908117909155815481830154935160028085018054959b50600160a060020a0390931695949293919283928592600019918316156101000291909101909116048015610c2c5780601f10610c0157610100808354040283529160200191610c2c565b820191906000526020600020905b815481529060010190602001808311610c0f57829003601f168201915b505091505060006040518083038185875af19250505015610c775760405186907f33e13ecb54c3076d8e8bb8c2881800a4d972b792045ffae98fdf46df365fed7590600090a2610caf565b60405186907f526441bb6c1aba3c9a4a6ca1d6545da9c2333c8c48343ef398eb858d72b7923690600090a260038501805460ff191690555b505050505050565b30600160a060020a031633600160a060020a0316141515610cd757600080fd5b600160a060020a038116600090815260026020526040902054819060ff1615610cff57600080fd5b81600160a060020a0381161515610d1557600080fd5b6003805490506001016004546032821180610d2f57508181115b80610d38575080155b80610d41575081155b15610d4b57600080fd5b600160a060020a038516600081815260026020526040808220805460ff1916600190811790915560038054918201815583527fc2575a0e9e593c00f959f8c92f12db2869c3395a3b0502d05e2516446f71f85b01805473ffffffffffffffffffffffffffffffffffffffff191684179055517ff39e6e1eb0edcf53c221607b54b00cd28f3196fed0a24994dc308b8f611b682d9190a25050505050565b600080805b600354811015610a795760008481526001602052604081206003805491929184908110610e1657fe5b6000918252602080832090910154600160a060020a0316835282019290925260400190205460ff1615610e4a576001820191505b600454821415610e5d5760019250610a79565b600101610ded565b30600160a060020a031633600160a060020a0316141515610e8557600080fd5b60068190556040805182815290517fd1c9101a34feff75cccef14a28785a0279cb0b49c1f321f21f5f422e746b43779181900360200190a150565b6000805b600354811015610f295760008381526001602052604081206003805491929184908110610eed57fe5b6000918252602080832090910154600160a060020a0316835282019290925260400190205460ff1615610f21576001820191505b600101610ec4565b50919050565b6000602081815291815260409081902080546001808301546002808501805487516101009582161595909502600019011691909104601f8101889004880284018801909652858352600160a060020a0390931695909491929190830182828015610fda5780601f10610faf57610100808354040283529160200191610fda565b820191906000526020600020905b815481529060010190602001808311610fbd57829003601f168201915b5050506003909301549192505060ff1684565b6060600380548060200260200160405190810160405280929190818152602001828054801561104557602002820191906000526020600020905b8154600160a060020a03168152600190910190602001808311611027575b505050505090505b90565b606080600080600554604051908082528060200260200182016040528015611082578160200160208202803883390190505b50925060009150600090505b600554811015611109578580156110b7575060008181526020819052604090206003015460ff16155b806110db57508480156110db575060008181526020819052604090206003015460ff165b15611101578083838151811015156110ef57fe5b60209081029091010152600191909101905b60010161108e565b878703604051908082528060200260200182016040528015611135578160200160208202803883390190505b5093508790505b8681101561117e57828181518110151561115257fe5b906020019060200201518489830381518110151561116c57fe5b6020908102909101015260010161113c565b505050949350505050565b600854600160a060020a031681565b6060806000806003805490506040519080825280602002602001820160405280156111cd578160200160208202803883390190505b50925060009150600090505b60035481101561128a576000858152600160205260408120600380549192918490811061120257fe5b6000918252602080832090910154600160a060020a0316835282019290925260400190205460ff161561128257600380548290811061123d57fe5b6000918252602090912001548351600160a060020a039091169084908490811061126357fe5b600160a060020a03909216602092830290910190910152600191909101905b6001016111d9565b816040519080825280602002602001820160405280156112b4578160200160208202803883390190505b509350600090505b818110156113095782818151811015156112d257fe5b9060200190602002015184828151811015156112ea57fe5b600160a060020a039092166020928302909101909101526001016112bc565b505050919050565b60055481565b30600160a060020a031633600160a060020a031614151561133757600080fd5b60035481603282118061134957508181115b80611352575080155b8061135b575081155b1561136557600080fd5b60048390556040805184815290517fa3f1ee9126a074d9326c682f561767f710e927faa811f7a99829d49dc421797a9181900360200190a1505050565b33600160a060020a03811660009081526002602052604090205460ff1615156113ca57600080fd5b6000828152602081905260409020548290600160a060020a031615156113ef57600080fd5b600083815260016020908152604080832033600160a060020a038116855292529091205484919060ff161561142357600080fd5b8461142d81610de8565b1561143757600080fd5b6000868152600160208181526040808420600160a060020a0333168086529252808420805460ff1916909317909255905188927f4a504a94899432a9846e1aa406dceb1bcfd538bb839071d49d1e5e23f5be30ef91a361149686610de8565b15610caf57610caf8642611809565b60006114b2848484611854565b90506114bd816113a2565b9392505050565b60076020526000908152604090205481565b603281565b60045481565b600030600160a060020a031633600160a060020a031614151561150357600080fd5b600160a060020a038316600090815260026020526040902054839060ff16151561152c57600080fd5b600160a060020a038316600090815260026020526040902054839060ff161561155457600080fd5b600092505b6003548310156115e55784600160a060020a031660038481548110151561157c57fe5b600091825260209091200154600160a060020a031614156115da57836003848154811015156115a757fe5b9060005260206000200160006101000a815481600160a060020a030219169083600160a060020a031602179055506115e5565b600190920191611559565b600160a060020a03808616600081815260026020526040808220805460ff1990811690915593881682528082208054909416600117909355915190917f8001553a916ef2f495d26a907cc54d96ed840d7bda71e73194bf5a9df7a76b9091a2604051600160a060020a038516907ff39e6e1eb0edcf53c221607b54b00cd28f3196fed0a24994dc308b8f611b682d90600090a25050505050565b600081815260208190526040812060030154829060ff16156116a057600080fd5b826116aa81610de8565b15156116b557600080fd5b6006546000858152600760205260409020548591014210156116d657600080fd5b6000858152602081905260409081902060038101805460ff19166001908117909155815481830154935160028085018054959a50600160a060020a039093169594929391928392859260001991831615610100029190910190911604801561177f5780601f106117545761010080835404028352916020019161177f565b820191906000526020600020905b81548152906001019060200180831161176257829003601f168201915b505091505060006040518083038185875af192505050156117ca5760405185907f33e13ecb54c3076d8e8bb8c2881800a4d972b792045ffae98fdf46df365fed7590600090a2611802565b60405185907f526441bb6c1aba3c9a4a6ca1d6545da9c2333c8c48343ef398eb858d72b7923690600090a260038401805460ff191690555b5050505050565b6000828152600760209081526040918290208390558151838152915184927f0b237afe65f1514fd7ea3f923ea4fe792bdd07000a912b6cd1602a8e7f573c8d92908290030190a25050565b600083600160a060020a038116151561186c57600080fd5b60055460408051608081018252600160a060020a0388811682526020808301898152838501898152600060608601819052878152808452959095208451815473ffffffffffffffffffffffffffffffffffffffff1916941693909317835551600183015592518051949650919390926118ec92600285019291019061196d565b50606091909101516003909101805460ff191691151591909117905560058054600101905560405182907fc0ba8fe4b176c1714197d43b9cc6bcf797a4a7461c5fe8d0ef6e184ae7601e5190600090a2509392505050565b815481835581811115611968576000838152602090206119689181019083016119eb565b505050565b828054600181600116156101000203166002900490600052602060002090601f016020900481019282601f106119ae57805160ff19168380011785556119db565b828001600101855582156119db579182015b828111156119db5782518255916020019190600101906119c0565b506119e79291506119eb565b5090565b61104d91905b808211156119e757600081556001016119f15600a165627a7a7230582018f04e48c88e6369e814b3118e23bbe30a139bce55d35ff027a7d45d5d40dae60029",
				"opcodes": "PUSH1 0x80 PUSH1 0x40 MSTORE CALLVALUE DUP1 ISZERO PUSH3 0x11 JUMPI PUSH1 0x0 DUP1 REVERT JUMPDEST POP PUSH1 0x40 MLOAD PUSH3 0x1C77 CODESIZE SUB DUP1 PUSH3 0x1C77 DUP4 CODECOPY DUP2 ADD PUSH1 0x40 SWAP1 DUP2 MSTORE DUP2 MLOAD PUSH1 0x20 DUP4 ADD MLOAD SWAP2 DUP4 ADD MLOAD PUSH1 0x60 DUP5 ADD MLOAD SWAP2 SWAP1 SWAP4 ADD DUP1 MLOAD SWAP1 SWAP4 SWAP2 SWAP1 DUP5 SWAP1 DUP5 SWAP1 DUP5 SWAP1 DUP4 SWAP1 DUP4 SWAP1 PUSH1 0x0 SWAP1 DUP3 PUSH1 0x32 DUP3 GT DUP1 PUSH3 0x60 JUMPI POP DUP2 DUP2 GT JUMPDEST DUP1 PUSH3 0x6A JUMPI POP DUP1 ISZERO JUMPDEST DUP1 PUSH3 0x74 JUMPI POP DUP2 ISZERO JUMPDEST ISZERO PUSH3 0x7F JUMPI PUSH1 0x0 DUP1 REVERT JUMPDEST PUSH1 0x0 SWAP3 POP JUMPDEST DUP5 MLOAD DUP4 LT ISZERO PUSH3 0x153 JUMPI PUSH1 0x2 PUSH1 0x0 DUP7 DUP6 DUP2 MLOAD DUP2 LT ISZERO ISZERO PUSH3 0xA1 JUMPI INVALID JUMPDEST PUSH1 0x20 SWAP1 DUP2 MUL SWAP1 SWAP2 ADD DUP2 ADD MLOAD PUSH1 0x1 PUSH1 0xA0 PUSH1 0x2 EXP SUB AND DUP3 MSTORE DUP2 ADD SWAP2 SWAP1 SWAP2 MSTORE PUSH1 0x40 ADD PUSH1 0x0 KECCAK256 SLOAD PUSH1 0xFF AND DUP1 PUSH3 0xF4 JUMPI POP DUP5 DUP4 DUP2 MLOAD DUP2 LT ISZERO ISZERO PUSH3 0xDD JUMPI INVALID JUMPDEST SWAP1 PUSH1 0x20 ADD SWAP1 PUSH1 0x20 MUL ADD MLOAD PUSH1 0x1 PUSH1 0xA0 PUSH1 0x2 EXP SUB AND PUSH1 0x0 EQ JUMPDEST ISZERO PUSH3 0xFF JUMPI PUSH1 0x0 DUP1 REVERT JUMPDEST PUSH1 0x1 PUSH1 0x2 PUSH1 0x0 DUP8 DUP7 DUP2 MLOAD DUP2 LT ISZERO ISZERO PUSH3 0x114 JUMPI INVALID JUMPDEST PUSH1 0x20 SWAP1 DUP2 MUL SWAP2 SWAP1 SWAP2 ADD DUP2 ADD MLOAD PUSH1 0x1 PUSH1 0xA0 PUSH1 0x2 EXP SUB AND DUP3 MSTORE DUP2 ADD SWAP2 SWAP1 SWAP2 MSTORE PUSH1 0x40 ADD PUSH1 0x0 KECCAK256 DUP1 SLOAD PUSH1 0xFF NOT AND SWAP2 ISZERO ISZERO SWAP2 SWAP1 SWAP2 OR SWAP1 SSTORE PUSH1 0x1 SWAP3 SWAP1 SWAP3 ADD SWAP2 PUSH3 0x84 JUMP JUMPDEST DUP5 MLOAD PUSH3 0x168 SWAP1 PUSH1 0x3 SWAP1 PUSH1 0x20 DUP9 ADD SWAP1 PUSH3 0x1A2 JUMP JUMPDEST POP POP POP PUSH1 0x4 SWAP2 SWAP1 SWAP2 SSTORE POP POP PUSH1 0x6 SSTORE POP POP PUSH1 0x8 DUP1 SLOAD PUSH1 0x1 PUSH1 0xA0 PUSH1 0x2 EXP SUB NOT AND PUSH1 0x1 PUSH1 0xA0 PUSH1 0x2 EXP SUB SWAP3 SWAP1 SWAP3 AND SWAP2 SWAP1 SWAP2 OR SWAP1 SSTORE POP PUSH3 0x236 SWAP2 POP POP JUMP JUMPDEST DUP3 DUP1 SLOAD DUP3 DUP3 SSTORE SWAP1 PUSH1 0x0 MSTORE PUSH1 0x20 PUSH1 0x0 KECCAK256 SWAP1 DUP2 ADD SWAP3 DUP3 ISZERO PUSH3 0x1FA JUMPI SWAP2 PUSH1 0x20 MUL DUP3 ADD JUMPDEST DUP3 DUP2 GT ISZERO PUSH3 0x1FA JUMPI DUP3 MLOAD DUP3 SLOAD PUSH1 0x1 PUSH1 0xA0 PUSH1 0x2 EXP SUB NOT AND PUSH1 0x1 PUSH1 0xA0 PUSH1 0x2 EXP SUB SWAP1 SWAP2 AND OR DUP3 SSTORE PUSH1 0x20 SWAP1 SWAP3 ADD SWAP2 PUSH1 0x1 SWAP1 SWAP2 ADD SWAP1 PUSH3 0x1C3 JUMP JUMPDEST POP PUSH3 0x208 SWAP3 SWAP2 POP PUSH3 0x20C JUMP JUMPDEST POP SWAP1 JUMP JUMPDEST PUSH3 0x233 SWAP2 SWAP1 JUMPDEST DUP1 DUP3 GT ISZERO PUSH3 0x208 JUMPI DUP1 SLOAD PUSH1 0x1 PUSH1 0xA0 PUSH1 0x2 EXP SUB NOT AND DUP2 SSTORE PUSH1 0x1 ADD PUSH3 0x213 JUMP JUMPDEST SWAP1 JUMP JUMPDEST PUSH2 0x1A31 DUP1 PUSH3 0x246 PUSH1 0x0 CODECOPY PUSH1 0x0 RETURN STOP PUSH1 0x80 PUSH1 0x40 MSTORE PUSH1 0x4 CALLDATASIZE LT PUSH2 0x15E JUMPI PUSH4 0xFFFFFFFF PUSH29 0x100000000000000000000000000000000000000000000000000000000 PUSH1 0x0 CALLDATALOAD DIV AND PUSH4 0x25E7C27 DUP2 EQ PUSH2 0x1A9 JUMPI DUP1 PUSH4 0x173825D9 EQ PUSH2 0x1DD JUMPI DUP1 PUSH4 0x20EA8D86 EQ PUSH2 0x1FE JUMPI DUP1 PUSH4 0x2F54BF6E EQ PUSH2 0x216 JUMPI DUP1 PUSH4 0x3411C81C EQ PUSH2 0x24B JUMPI DUP1 PUSH4 0x37BD78A0 EQ PUSH2 0x26F JUMPI DUP1 PUSH4 0x54741525 EQ PUSH2 0x296 JUMPI DUP1 PUSH4 0x553A48FD EQ PUSH2 0x2B5 JUMPI DUP1 PUSH4 0x5711B311 EQ PUSH2 0x30E JUMPI DUP1 PUSH4 0x7065CB48 EQ PUSH2 0x326 JUMPI DUP1 PUSH4 0x784547A7 EQ PUSH2 0x347 JUMPI DUP1 PUSH4 0x7AD28C51 EQ PUSH2 0x35F JUMPI DUP1 PUSH4 0x8B51D13F EQ PUSH2 0x377 JUMPI DUP1 PUSH4 0x9ACE38C2 EQ PUSH2 0x38F JUMPI DUP1 PUSH4 0xA0E67E2B EQ PUSH2 0x44A JUMPI DUP1 PUSH4 0xA8ABE69A EQ PUSH2 0x4AF JUMPI DUP1 PUSH4 0xADD1CBC5 EQ PUSH2 0x4D4 JUMPI DUP1 PUSH4 0xB5DC40C3 EQ PUSH2 0x4E9 JUMPI DUP1 PUSH4 0xB77BF600 EQ PUSH2 0x501 JUMPI DUP1 PUSH4 0xBA51A6DF EQ PUSH2 0x516 JUMPI DUP1 PUSH4 0xC01A8C84 EQ PUSH2 0x52E JUMPI DUP1 PUSH4 0xC6427474 EQ PUSH2 0x546 JUMPI DUP1 PUSH4 0xD38F2D82 EQ PUSH2 0x5AF JUMPI DUP1 PUSH4 0xD74F8EDD EQ PUSH2 0x5C7 JUMPI DUP1 PUSH4 0xDC8452CD EQ PUSH2 0x5DC JUMPI DUP1 PUSH4 0xE20056E6 EQ PUSH2 0x5F1 JUMPI DUP1 PUSH4 0xEE22610B EQ PUSH2 0x618 JUMPI JUMPDEST PUSH1 0x0 CALLVALUE GT ISZERO PUSH2 0x1A7 JUMPI PUSH1 0x40 DUP1 MLOAD CALLVALUE DUP2 MSTORE SWAP1 MLOAD PUSH1 0x1 PUSH1 0xA0 PUSH1 0x2 EXP SUB CALLER AND SWAP2 PUSH32 0xE1FFFCC4923D04B559F4D29A8BFC6CDA04EB5B0D3C460751C2402C5C5CC9109C SWAP2 SWAP1 DUP2 SWAP1 SUB PUSH1 0x20 ADD SWAP1 LOG2 JUMPDEST STOP JUMPDEST CALLVALUE DUP1 ISZERO PUSH2 0x1B5 JUMPI PUSH1 0x0 DUP1 REVERT JUMPDEST POP PUSH2 0x1C1 PUSH1 0x4 CALLDATALOAD PUSH2 0x630 JUMP JUMPDEST PUSH1 0x40 DUP1 MLOAD PUSH1 0x1 PUSH1 0xA0 PUSH1 0x2 EXP SUB SWAP1 SWAP3 AND DUP3 MSTORE MLOAD SWAP1 DUP2 SWAP1 SUB PUSH1 0x20 ADD SWAP1 RETURN JUMPDEST CALLVALUE DUP1 ISZERO PUSH2 0x1E9 JUMPI PUSH1 0x0 DUP1 REVERT JUMPDEST POP PUSH2 0x1A7 PUSH1 0x1 PUSH1 0xA0 PUSH1 0x2 EXP SUB PUSH1 0x4 CALLDATALOAD AND PUSH2 0x658 JUMP JUMPDEST CALLVALUE DUP1 ISZERO PUSH2 0x20A JUMPI PUSH1 0x0 DUP1 REVERT JUMPDEST POP PUSH2 0x1A7 PUSH1 0x4 CALLDATALOAD PUSH2 0x7E3 JUMP JUMPDEST CALLVALUE DUP1 ISZERO PUSH2 0x222 JUMPI PUSH1 0x0 DUP1 REVERT JUMPDEST POP PUSH2 0x237 PUSH1 0x1 PUSH1 0xA0 PUSH1 0x2 EXP SUB PUSH1 0x4 CALLDATALOAD AND PUSH2 0x8CE JUMP JUMPDEST PUSH1 0x40 DUP1 MLOAD SWAP2 ISZERO ISZERO DUP3 MSTORE MLOAD SWAP1 DUP2 SWAP1 SUB PUSH1 0x20 ADD SWAP1 RETURN JUMPDEST CALLVALUE DUP1 ISZERO PUSH2 0x257 JUMPI PUSH1 0x0 DUP1 REVERT JUMPDEST POP PUSH2 0x237 PUSH1 0x4 CALLDATALOAD PUSH1 0x1 PUSH1 0xA0 PUSH1 0x2 EXP SUB PUSH1 0x24 CALLDATALOAD AND PUSH2 0x8E3 JUMP JUMPDEST CALLVALUE DUP1 ISZERO PUSH2 0x27B JUMPI PUSH1 0x0 DUP1 REVERT JUMPDEST POP PUSH2 0x284 PUSH2 0x903 JUMP JUMPDEST PUSH1 0x40 DUP1 MLOAD SWAP2 DUP3 MSTORE MLOAD SWAP1 DUP2 SWAP1 SUB PUSH1 0x20 ADD SWAP1 RETURN JUMPDEST CALLVALUE DUP1 ISZERO PUSH2 0x2A2 JUMPI PUSH1 0x0 DUP1 REVERT JUMPDEST POP PUSH2 0x284 PUSH1 0x4 CALLDATALOAD ISZERO ISZERO PUSH1 0x24 CALLDATALOAD ISZERO ISZERO PUSH2 0x909 JUMP JUMPDEST CALLVALUE DUP1 ISZERO PUSH2 0x2C1 JUMPI PUSH1 0x0 DUP1 REVERT JUMPDEST POP PUSH1 0x40 DUP1 MLOAD PUSH1 0x20 PUSH1 0x4 DUP1 CALLDATALOAD DUP1 DUP3 ADD CALLDATALOAD PUSH1 0x1F DUP2 ADD DUP5 SWAP1 DIV DUP5 MUL DUP6 ADD DUP5 ADD SWAP1 SWAP6 MSTORE DUP5 DUP5 MSTORE PUSH2 0x237 SWAP5 CALLDATASIZE SWAP5 SWAP3 SWAP4 PUSH1 0x24 SWAP4 SWAP3 DUP5 ADD SWAP2 SWAP1 DUP2 SWAP1 DUP5 ADD DUP4 DUP3 DUP1 DUP3 DUP5 CALLDATACOPY POP SWAP5 SWAP8 POP PUSH2 0x975 SWAP7 POP POP POP POP POP POP POP JUMP JUMPDEST CALLVALUE DUP1 ISZERO PUSH2 0x31A JUMPI PUSH1 0x0 DUP1 REVERT JUMPDEST POP PUSH2 0x1A7 PUSH1 0x4 CALLDATALOAD PUSH2 0xA80 JUMP JUMPDEST CALLVALUE DUP1 ISZERO PUSH2 0x332 JUMPI PUSH1 0x0 DUP1 REVERT JUMPDEST POP PUSH2 0x1A7 PUSH1 0x1 PUSH1 0xA0 PUSH1 0x2 EXP SUB PUSH1 0x4 CALLDATALOAD AND PUSH2 0xCB7 JUMP JUMPDEST CALLVALUE DUP1 ISZERO PUSH2 0x353 JUMPI PUSH1 0x0 DUP1 REVERT JUMPDEST POP PUSH2 0x237 PUSH1 0x4 CALLDATALOAD PUSH2 0xDE8 JUMP JUMPDEST CALLVALUE DUP1 ISZERO PUSH2 0x36B JUMPI PUSH1 0x0 DUP1 REVERT JUMPDEST POP PUSH2 0x1A7 PUSH1 0x4 CALLDATALOAD PUSH2 0xE65 JUMP JUMPDEST CALLVALUE DUP1 ISZERO PUSH2 0x383 JUMPI PUSH1 0x0 DUP1 REVERT JUMPDEST POP PUSH2 0x284 PUSH1 0x4 CALLDATALOAD PUSH2 0xEC0 JUMP JUMPDEST CALLVALUE DUP1 ISZERO PUSH2 0x39B JUMPI PUSH1 0x0 DUP1 REVERT JUMPDEST POP PUSH2 0x3A7 PUSH1 0x4 CALLDATALOAD PUSH2 0xF2F JUMP JUMPDEST PUSH1 0x40 MLOAD DUP1 DUP6 PUSH1 0x1 PUSH1 0xA0 PUSH1 0x2 EXP SUB AND PUSH1 0x1 PUSH1 0xA0 PUSH1 0x2 EXP SUB AND DUP2 MSTORE PUSH1 0x20 ADD DUP5 DUP2 MSTORE PUSH1 0x20 ADD DUP1 PUSH1 0x20 ADD DUP4 ISZERO ISZERO ISZERO ISZERO DUP2 MSTORE PUSH1 0x20 ADD DUP3 DUP2 SUB DUP3 MSTORE DUP5 DUP2 DUP2 MLOAD DUP2 MSTORE PUSH1 0x20 ADD SWAP2 POP DUP1 MLOAD SWAP1 PUSH1 0x20 ADD SWAP1 DUP1 DUP4 DUP4 PUSH1 0x0 JUMPDEST DUP4 DUP2 LT ISZERO PUSH2 0x40C JUMPI DUP2 DUP2 ADD MLOAD DUP4 DUP3 ADD MSTORE PUSH1 0x20 ADD PUSH2 0x3F4 JUMP JUMPDEST POP POP POP POP SWAP1 POP SWAP1 DUP2 ADD SWAP1 PUSH1 0x1F AND DUP1 ISZERO PUSH2 0x439 JUMPI DUP1 DUP3 SUB DUP1 MLOAD PUSH1 0x1 DUP4 PUSH1 0x20 SUB PUSH2 0x100 EXP SUB NOT AND DUP2 MSTORE PUSH1 0x20 ADD SWAP2 POP JUMPDEST POP SWAP6 POP POP POP POP POP POP PUSH1 0x40 MLOAD DUP1 SWAP2 SUB SWAP1 RETURN JUMPDEST CALLVALUE DUP1 ISZERO PUSH2 0x456 JUMPI PUSH1 0x0 DUP1 REVERT JUMPDEST POP PUSH2 0x45F PUSH2 0xFED JUMP JUMPDEST PUSH1 0x40 DUP1 MLOAD PUSH1 0x20 DUP1 DUP3 MSTORE DUP4 MLOAD DUP2 DUP4 ADD MSTORE DUP4 MLOAD SWAP2 SWAP3 DUP4 SWAP3 SWAP1 DUP4 ADD SWAP2 DUP6 DUP2 ADD SWAP2 MUL DUP1 DUP4 DUP4 PUSH1 0x0 JUMPDEST DUP4 DUP2 LT ISZERO PUSH2 0x49B JUMPI DUP2 DUP2 ADD MLOAD DUP4 DUP3 ADD MSTORE PUSH1 0x20 ADD PUSH2 0x483 JUMP JUMPDEST POP POP POP POP SWAP1 POP ADD SWAP3 POP POP POP PUSH1 0x40 MLOAD DUP1 SWAP2 SUB SWAP1 RETURN JUMPDEST CALLVALUE DUP1 ISZERO PUSH2 0x4BB JUMPI PUSH1 0x0 DUP1 REVERT JUMPDEST POP PUSH2 0x45F PUSH1 0x4 CALLDATALOAD PUSH1 0x24 CALLDATALOAD PUSH1 0x44 CALLDATALOAD ISZERO ISZERO PUSH1 0x64 CALLDATALOAD ISZERO ISZERO PUSH2 0x1050 JUMP JUMPDEST CALLVALUE DUP1 ISZERO PUSH2 0x4E0 JUMPI PUSH1 0x0 DUP1 REVERT JUMPDEST POP PUSH2 0x1C1 PUSH2 0x1189 JUMP JUMPDEST CALLVALUE DUP1 ISZERO PUSH2 0x4F5 JUMPI PUSH1 0x0 DUP1 REVERT JUMPDEST POP PUSH2 0x45F PUSH1 0x4 CALLDATALOAD PUSH2 0x1198 JUMP JUMPDEST CALLVALUE DUP1 ISZERO PUSH2 0x50D JUMPI PUSH1 0x0 DUP1 REVERT JUMPDEST POP PUSH2 0x284 PUSH2 0x1311 JUMP JUMPDEST CALLVALUE DUP1 ISZERO PUSH2 0x522 JUMPI PUSH1 0x0 DUP1 REVERT JUMPDEST POP PUSH2 0x1A7 PUSH1 0x4 CALLDATALOAD PUSH2 0x1317 JUMP JUMPDEST CALLVALUE DUP1 ISZERO PUSH2 0x53A JUMPI PUSH1 0x0 DUP1 REVERT JUMPDEST POP PUSH2 0x1A7 PUSH1 0x4 CALLDATALOAD PUSH2 0x13A2 JUMP JUMPDEST CALLVALUE DUP1 ISZERO PUSH2 0x552 JUMPI PUSH1 0x0 DUP1 REVERT JUMPDEST POP PUSH1 0x40 DUP1 MLOAD PUSH1 0x20 PUSH1 0x4 PUSH1 0x44 CALLDATALOAD DUP2 DUP2 ADD CALLDATALOAD PUSH1 0x1F DUP2 ADD DUP5 SWAP1 DIV DUP5 MUL DUP6 ADD DUP5 ADD SWAP1 SWAP6 MSTORE DUP5 DUP5 MSTORE PUSH2 0x284 SWAP5 DUP3 CALLDATALOAD PUSH1 0x1 PUSH1 0xA0 PUSH1 0x2 EXP SUB AND SWAP5 PUSH1 0x24 DUP1 CALLDATALOAD SWAP6 CALLDATASIZE SWAP6 SWAP5 PUSH1 0x64 SWAP5 SWAP3 ADD SWAP2 SWAP1 DUP2 SWAP1 DUP5 ADD DUP4 DUP3 DUP1 DUP3 DUP5 CALLDATACOPY POP SWAP5 SWAP8 POP PUSH2 0x14A5 SWAP7 POP POP POP POP POP POP POP JUMP JUMPDEST CALLVALUE DUP1 ISZERO PUSH2 0x5BB JUMPI PUSH1 0x0 DUP1 REVERT JUMPDEST POP PUSH2 0x284 PUSH1 0x4 CALLDATALOAD PUSH2 0x14C4 JUMP JUMPDEST CALLVALUE DUP1 ISZERO PUSH2 0x5D3 JUMPI PUSH1 0x0 DUP1 REVERT JUMPDEST POP PUSH2 0x284 PUSH2 0x14D6 JUMP JUMPDEST CALLVALUE DUP1 ISZERO PUSH2 0x5E8 JUMPI PUSH1 0x0 DUP1 REVERT JUMPDEST POP PUSH2 0x284 PUSH2 0x14DB JUMP JUMPDEST CALLVALUE DUP1 ISZERO PUSH2 0x5FD JUMPI PUSH1 0x0 DUP1 REVERT JUMPDEST POP PUSH2 0x1A7 PUSH1 0x1 PUSH1 0xA0 PUSH1 0x2 EXP SUB PUSH1 0x4 CALLDATALOAD DUP2 AND SWAP1 PUSH1 0x24 CALLDATALOAD AND PUSH2 0x14E1 JUMP JUMPDEST CALLVALUE DUP1 ISZERO PUSH2 0x624 JUMPI PUSH1 0x0 DUP1 REVERT JUMPDEST POP PUSH2 0x1A7 PUSH1 0x4 CALLDATALOAD PUSH2 0x167F JUMP JUMPDEST PUSH1 0x3 DUP1 SLOAD DUP3 SWAP1 DUP2 LT PUSH2 0x63E JUMPI INVALID JUMPDEST PUSH1 0x0 SWAP2 DUP3 MSTORE PUSH1 0x20 SWAP1 SWAP2 KECCAK256 ADD SLOAD PUSH1 0x1 PUSH1 0xA0 PUSH1 0x2 EXP SUB AND SWAP1 POP DUP2 JUMP JUMPDEST PUSH1 0x0 ADDRESS PUSH1 0x1 PUSH1 0xA0 PUSH1 0x2 EXP SUB AND CALLER PUSH1 0x1 PUSH1 0xA0 PUSH1 0x2 EXP SUB AND EQ ISZERO ISZERO PUSH2 0x67A JUMPI PUSH1 0x0 DUP1 REVERT JUMPDEST PUSH1 0x1 PUSH1 0xA0 PUSH1 0x2 EXP SUB DUP3 AND PUSH1 0x0 SWAP1 DUP2 MSTORE PUSH1 0x2 PUSH1 0x20 MSTORE PUSH1 0x40 SWAP1 KECCAK256 SLOAD DUP3 SWAP1 PUSH1 0xFF AND ISZERO ISZERO PUSH2 0x6A3 JUMPI PUSH1 0x0 DUP1 REVERT JUMPDEST PUSH1 0x1 PUSH1 0xA0 PUSH1 0x2 EXP SUB DUP4 AND PUSH1 0x0 SWAP1 DUP2 MSTORE PUSH1 0x2 PUSH1 0x20 MSTORE PUSH1 0x40 DUP2 KECCAK256 DUP1 SLOAD PUSH1 0xFF NOT AND SWAP1 SSTORE SWAP2 POP JUMPDEST PUSH1 0x3 SLOAD PUSH1 0x0 NOT ADD DUP3 LT ISZERO PUSH2 0x77E JUMPI DUP3 PUSH1 0x1 PUSH1 0xA0 PUSH1 0x2 EXP SUB AND PUSH1 0x3 DUP4 DUP2 SLOAD DUP2 LT ISZERO ISZERO PUSH2 0x6ED JUMPI INVALID JUMPDEST PUSH1 0x0 SWAP2 DUP3 MSTORE PUSH1 0x20 SWAP1 SWAP2 KECCAK256 ADD SLOAD PUSH1 0x1 PUSH1 0xA0 PUSH1 0x2 EXP SUB AND EQ ISZERO PUSH2 0x773 JUMPI PUSH1 0x3 DUP1 SLOAD PUSH1 0x0 NOT DUP2 ADD SWAP1 DUP2 LT PUSH2 0x71A JUMPI INVALID JUMPDEST PUSH1 0x0 SWAP2 DUP3 MSTORE PUSH1 0x20 SWAP1 SWAP2 KECCAK256 ADD SLOAD PUSH1 0x3 DUP1 SLOAD PUSH1 0x1 PUSH1 0xA0 PUSH1 0x2 EXP SUB SWAP1 SWAP3 AND SWAP2 DUP5 SWAP1 DUP2 LT PUSH2 0x740 JUMPI INVALID JUMPDEST SWAP1 PUSH1 0x0 MSTORE PUSH1 0x20 PUSH1 0x0 KECCAK256 ADD PUSH1 0x0 PUSH2 0x100 EXP DUP2 SLOAD DUP2 PUSH1 0x1 PUSH1 0xA0 PUSH1 0x2 EXP SUB MUL NOT AND SWAP1 DUP4 PUSH1 0x1 PUSH1 0xA0 PUSH1 0x2 EXP SUB AND MUL OR SWAP1 SSTORE POP PUSH2 0x77E JUMP JUMPDEST PUSH1 0x1 SWAP1 SWAP2 ADD SWAP1 PUSH2 0x6C6 JUMP JUMPDEST PUSH1 0x3 DUP1 SLOAD PUSH1 0x0 NOT ADD SWAP1 PUSH2 0x791 SWAP1 DUP3 PUSH2 0x1944 JUMP JUMPDEST POP PUSH1 0x3 SLOAD PUSH1 0x4 SLOAD GT ISZERO PUSH2 0x7AA JUMPI PUSH1 0x3 SLOAD PUSH2 0x7AA SWAP1 PUSH2 0x1317 JUMP JUMPDEST PUSH1 0x40 MLOAD PUSH1 0x1 PUSH1 0xA0 PUSH1 0x2 EXP SUB DUP5 AND SWAP1 PUSH32 0x8001553A916EF2F495D26A907CC54D96ED840D7BDA71E73194BF5A9DF7A76B90 SWAP1 PUSH1 0x0 SWAP1 LOG2 POP POP POP JUMP JUMPDEST CALLER PUSH1 0x1 PUSH1 0xA0 PUSH1 0x2 EXP SUB DUP2 AND PUSH1 0x0 SWAP1 DUP2 MSTORE PUSH1 0x2 PUSH1 0x20 MSTORE PUSH1 0x40 SWAP1 KECCAK256 SLOAD PUSH1 0xFF AND ISZERO ISZERO PUSH2 0x80B JUMPI PUSH1 0x0 DUP1 REVERT JUMPDEST PUSH1 0x0 DUP3 DUP2 MSTORE PUSH1 0x1 PUSH1 0x20 SWAP1 DUP2 MSTORE PUSH1 0x40 DUP1 DUP4 KECCAK256 CALLER PUSH1 0x1 PUSH1 0xA0 PUSH1 0x2 EXP SUB DUP2 AND DUP6 MSTORE SWAP3 MSTORE SWAP1 SWAP2 KECCAK256 SLOAD DUP4 SWAP2 SWAP1 PUSH1 0xFF AND ISZERO ISZERO PUSH2 0x840 JUMPI PUSH1 0x0 DUP1 REVERT JUMPDEST PUSH1 0x0 DUP5 DUP2 MSTORE PUSH1 0x20 DUP2 SWAP1 MSTORE PUSH1 0x40 SWAP1 KECCAK256 PUSH1 0x3 ADD SLOAD DUP5 SWAP1 PUSH1 0xFF AND ISZERO PUSH2 0x861 JUMPI PUSH1 0x0 DUP1 REVERT JUMPDEST DUP5 PUSH2 0x86B DUP2 PUSH2 0xDE8 JUMP JUMPDEST ISZERO PUSH2 0x875 JUMPI PUSH1 0x0 DUP1 REVERT JUMPDEST PUSH1 0x0 DUP7 DUP2 MSTORE PUSH1 0x1 PUSH1 0x20 SWAP1 DUP2 MSTORE PUSH1 0x40 DUP1 DUP4 KECCAK256 PUSH1 0x1 PUSH1 0xA0 PUSH1 0x2 EXP SUB CALLER AND DUP1 DUP6 MSTORE SWAP3 MSTORE DUP1 DUP4 KECCAK256 DUP1 SLOAD PUSH1 0xFF NOT AND SWAP1 SSTORE MLOAD DUP9 SWAP3 PUSH32 0xF6A317157440607F36269043EB55F1287A5A19BA2216AFEAB88CD46CBCFB88E9 SWAP2 LOG3 POP POP POP POP POP POP JUMP JUMPDEST PUSH1 0x2 PUSH1 0x20 MSTORE PUSH1 0x0 SWAP1 DUP2 MSTORE PUSH1 0x40 SWAP1 KECCAK256 SLOAD PUSH1 0xFF AND DUP2 JUMP JUMPDEST PUSH1 0x1 PUSH1 0x20 SWAP1 DUP2 MSTORE PUSH1 0x0 SWAP3 DUP4 MSTORE PUSH1 0x40 DUP1 DUP5 KECCAK256 SWAP1 SWAP2 MSTORE SWAP1 DUP3 MSTORE SWAP1 KECCAK256 SLOAD PUSH1 0xFF AND DUP2 JUMP JUMPDEST PUSH1 0x6 SLOAD DUP2 JUMP JUMPDEST PUSH1 0x0 DUP1 JUMPDEST PUSH1 0x5 SLOAD DUP2 LT ISZERO PUSH2 0x96E JUMPI DUP4 DUP1 ISZERO PUSH2 0x936 JUMPI POP PUSH1 0x0 DUP2 DUP2 MSTORE PUSH1 0x20 DUP2 SWAP1 MSTORE PUSH1 0x40 SWAP1 KECCAK256 PUSH1 0x3 ADD SLOAD PUSH1 0xFF AND ISZERO JUMPDEST DUP1 PUSH2 0x95A JUMPI POP DUP3 DUP1 ISZERO PUSH2 0x95A JUMPI POP PUSH1 0x0 DUP2 DUP2 MSTORE PUSH1 0x20 DUP2 SWAP1 MSTORE PUSH1 0x40 SWAP1 KECCAK256 PUSH1 0x3 ADD SLOAD PUSH1 0xFF AND JUMPDEST ISZERO PUSH2 0x966 JUMPI PUSH1 0x1 DUP3 ADD SWAP2 POP JUMPDEST PUSH1 0x1 ADD PUSH2 0x90D JUMP JUMPDEST POP SWAP3 SWAP2 POP POP JUMP JUMPDEST PUSH1 0x40 DUP1 MLOAD PUSH32 0x72656D6F7665417574686F72697A656441646472657373286164647265737329 DUP2 MSTORE SWAP1 MLOAD SWAP1 DUP2 SWAP1 SUB PUSH1 0x20 ADD SWAP1 KECCAK256 PUSH1 0x0 SWAP1 DUP2 JUMPDEST PUSH1 0x4 DUP2 LT ISZERO PUSH2 0xA74 JUMPI DUP2 DUP2 PUSH1 0x4 DUP2 LT PUSH2 0x9C1 JUMPI INVALID JUMPDEST BYTE PUSH32 0x100000000000000000000000000000000000000000000000000000000000000 MUL PUSH31 0xFFFFFFFFFFFFFFFFFFFFFFFFFFFFFFFFFFFFFFFFFFFFFFFFFFFFFFFFFFFFFF NOT AND DUP5 DUP3 DUP2 MLOAD DUP2 LT ISZERO ISZERO PUSH2 0xA14 JUMPI INVALID JUMPDEST PUSH1 0x20 SWAP2 ADD ADD MLOAD PUSH32 0x100000000000000000000000000000000000000000000000000000000000000 SWAP1 DUP2 SWAP1 DIV MUL PUSH32 0xFF00000000000000000000000000000000000000000000000000000000000000 AND EQ PUSH2 0xA6C JUMPI PUSH1 0x0 DUP1 REVERT JUMPDEST PUSH1 0x1 ADD PUSH2 0x9AC JUMP JUMPDEST PUSH1 0x1 SWAP3 POP JUMPDEST POP POP SWAP2 SWAP1 POP JUMP JUMPDEST PUSH1 0x0 DUP2 DUP2 MSTORE PUSH1 0x20 DUP2 SWAP1 MSTORE PUSH1 0x40 DUP2 KECCAK256 PUSH1 0x3 ADD SLOAD DUP3 SWAP1 PUSH1 0xFF AND ISZERO PUSH2 0xAA1 JUMPI PUSH1 0x0 DUP1 REVERT JUMPDEST DUP3 PUSH2 0xAAB DUP2 PUSH2 0xDE8 JUMP JUMPDEST ISZERO ISZERO PUSH2 0xAB6 JUMPI PUSH1 0x0 DUP1 REVERT JUMPDEST PUSH1 0x0 DUP5 DUP2 MSTORE PUSH1 0x20 DUP2 SWAP1 MSTORE PUSH1 0x40 SWAP1 KECCAK256 PUSH1 0x8 SLOAD DUP2 SLOAD DUP7 SWAP3 SWAP2 PUSH1 0x1 PUSH1 0xA0 PUSH1 0x2 EXP SUB SWAP2 DUP3 AND SWAP2 AND EQ PUSH2 0xAE3 JUMPI PUSH1 0x0 DUP1 REVERT JUMPDEST PUSH1 0x2 DUP2 DUP2 ADD DUP1 SLOAD PUSH1 0x40 DUP1 MLOAD PUSH1 0x20 PUSH1 0x1 DUP5 AND ISZERO PUSH2 0x100 MUL PUSH1 0x0 NOT ADD SWAP1 SWAP4 AND SWAP5 SWAP1 SWAP5 DIV PUSH1 0x1F DUP2 ADD DUP4 SWAP1 DIV DUP4 MUL DUP6 ADD DUP4 ADD SWAP1 SWAP2 MSTORE DUP1 DUP5 MSTORE PUSH2 0xB78 SWAP4 SWAP3 SWAP2 DUP4 ADD DUP3 DUP3 DUP1 ISZERO PUSH2 0xB6E JUMPI DUP1 PUSH1 0x1F LT PUSH2 0xB43 JUMPI PUSH2 0x100 DUP1 DUP4 SLOAD DIV MUL DUP4 MSTORE SWAP2 PUSH1 0x20 ADD SWAP2 PUSH2 0xB6E JUMP JUMPDEST DUP3 ADD SWAP2 SWAP1 PUSH1 0x0 MSTORE PUSH1 0x20 PUSH1 0x0 KECCAK256 SWAP1 JUMPDEST DUP2 SLOAD DUP2 MSTORE SWAP1 PUSH1 0x1 ADD SWAP1 PUSH1 0x20 ADD DUP1 DUP4 GT PUSH2 0xB51 JUMPI DUP3 SWAP1 SUB PUSH1 0x1F AND DUP3 ADD SWAP2 JUMPDEST POP POP POP POP POP PUSH2 0x975 JUMP JUMPDEST ISZERO ISZERO PUSH2 0xB83 JUMPI PUSH1 0x0 DUP1 REVERT JUMPDEST PUSH1 0x0 DUP7 DUP2 MSTORE PUSH1 0x20 DUP2 SWAP1 MSTORE PUSH1 0x40 SWAP1 DUP2 SWAP1 KECCAK256 PUSH1 0x3 DUP2 ADD DUP1 SLOAD PUSH1 0xFF NOT AND PUSH1 0x1 SWAP1 DUP2 OR SWAP1 SWAP2 SSTORE DUP2 SLOAD DUP2 DUP4 ADD SLOAD SWAP4 MLOAD PUSH1 0x2 DUP1 DUP6 ADD DUP1 SLOAD SWAP6 SWAP12 POP PUSH1 0x1 PUSH1 0xA0 PUSH1 0x2 EXP SUB SWAP1 SWAP4 AND SWAP6 SWAP5 SWAP3 SWAP4 SWAP2 SWAP3 DUP4 SWAP3 DUP6 SWAP3 PUSH1 0x0 NOT SWAP2 DUP4 AND ISZERO PUSH2 0x100 MUL SWAP2 SWAP1 SWAP2 ADD SWAP1 SWAP2 AND DIV DUP1 ISZERO PUSH2 0xC2C JUMPI DUP1 PUSH1 0x1F LT PUSH2 0xC01 JUMPI PUSH2 0x100 DUP1 DUP4 SLOAD DIV MUL DUP4 MSTORE SWAP2 PUSH1 0x20 ADD SWAP2 PUSH2 0xC2C JUMP JUMPDEST DUP3 ADD SWAP2 SWAP1 PUSH1 0x0 MSTORE PUSH1 0x20 PUSH1 0x0 KECCAK256 SWAP1 JUMPDEST DUP2 SLOAD DUP2 MSTORE SWAP1 PUSH1 0x1 ADD SWAP1 PUSH1 0x20 ADD DUP1 DUP4 GT PUSH2 0xC0F JUMPI DUP3 SWAP1 SUB PUSH1 0x1F AND DUP3 ADD SWAP2 JUMPDEST POP POP SWAP2 POP POP PUSH1 0x0 PUSH1 0x40 MLOAD DUP1 DUP4 SUB DUP2 DUP6 DUP8 GAS CALL SWAP3 POP POP POP ISZERO PUSH2 0xC77 JUMPI PUSH1 0x40 MLOAD DUP7 SWAP1 PUSH32 0x33E13ECB54C3076D8E8BB8C2881800A4D972B792045FFAE98FDF46DF365FED75 SWAP1 PUSH1 0x0 SWAP1 LOG2 PUSH2 0xCAF JUMP JUMPDEST PUSH1 0x40 MLOAD DUP7 SWAP1 PUSH32 0x526441BB6C1ABA3C9A4A6CA1D6545DA9C2333C8C48343EF398EB858D72B79236 SWAP1 PUSH1 0x0 SWAP1 LOG2 PUSH1 0x3 DUP6 ADD DUP1 SLOAD PUSH1 0xFF NOT AND SWAP1 SSTORE JUMPDEST POP POP POP POP POP POP JUMP JUMPDEST ADDRESS PUSH1 0x1 PUSH1 0xA0 PUSH1 0x2 EXP SUB AND CALLER PUSH1 0x1 PUSH1 0xA0 PUSH1 0x2 EXP SUB AND EQ ISZERO ISZERO PUSH2 0xCD7 JUMPI PUSH1 0x0 DUP1 REVERT JUMPDEST PUSH1 0x1 PUSH1 0xA0 PUSH1 0x2 EXP SUB DUP2 AND PUSH1 0x0 SWAP1 DUP2 MSTORE PUSH1 0x2 PUSH1 0x20 MSTORE PUSH1 0x40 SWAP1 KECCAK256 SLOAD DUP2 SWAP1 PUSH1 0xFF AND ISZERO PUSH2 0xCFF JUMPI PUSH1 0x0 DUP1 REVERT JUMPDEST DUP2 PUSH1 0x1 PUSH1 0xA0 PUSH1 0x2 EXP SUB DUP2 AND ISZERO ISZERO PUSH2 0xD15 JUMPI PUSH1 0x0 DUP1 REVERT JUMPDEST PUSH1 0x3 DUP1 SLOAD SWAP1 POP PUSH1 0x1 ADD PUSH1 0x4 SLOAD PUSH1 0x32 DUP3 GT DUP1 PUSH2 0xD2F JUMPI POP DUP2 DUP2 GT JUMPDEST DUP1 PUSH2 0xD38 JUMPI POP DUP1 ISZERO JUMPDEST DUP1 PUSH2 0xD41 JUMPI POP DUP2 ISZERO JUMPDEST ISZERO PUSH2 0xD4B JUMPI PUSH1 0x0 DUP1 REVERT JUMPDEST PUSH1 0x1 PUSH1 0xA0 PUSH1 0x2 EXP SUB DUP6 AND PUSH1 0x0 DUP2 DUP2 MSTORE PUSH1 0x2 PUSH1 0x20 MSTORE PUSH1 0x40 DUP1 DUP3 KECCAK256 DUP1 SLOAD PUSH1 0xFF NOT AND PUSH1 0x1 SWAP1 DUP2 OR SWAP1 SWAP2 SSTORE PUSH1 0x3 DUP1 SLOAD SWAP2 DUP3 ADD DUP2 SSTORE DUP4 MSTORE PUSH32 0xC2575A0E9E593C00F959F8C92F12DB2869C3395A3B0502D05E2516446F71F85B ADD DUP1 SLOAD PUSH20 0xFFFFFFFFFFFFFFFFFFFFFFFFFFFFFFFFFFFFFFFF NOT AND DUP5 OR SWAP1 SSTORE MLOAD PUSH32 0xF39E6E1EB0EDCF53C221607B54B00CD28F3196FED0A24994DC308B8F611B682D SWAP2 SWAP1 LOG2 POP POP POP POP POP JUMP JUMPDEST PUSH1 0x0 DUP1 DUP1 JUMPDEST PUSH1 0x3 SLOAD DUP2 LT ISZERO PUSH2 0xA79 JUMPI PUSH1 0x0 DUP5 DUP2 MSTORE PUSH1 0x1 PUSH1 0x20 MSTORE PUSH1 0x40 DUP2 KECCAK256 PUSH1 0x3 DUP1 SLOAD SWAP2 SWAP3 SWAP2 DUP5 SWAP1 DUP2 LT PUSH2 0xE16 JUMPI INVALID JUMPDEST PUSH1 0x0 SWAP2 DUP3 MSTORE PUSH1 0x20 DUP1 DUP4 KECCAK256 SWAP1 SWAP2 ADD SLOAD PUSH1 0x1 PUSH1 0xA0 PUSH1 0x2 EXP SUB AND DUP4 MSTORE DUP3 ADD SWAP3 SWAP1 SWAP3 MSTORE PUSH1 0x40 ADD SWAP1 KECCAK256 SLOAD PUSH1 0xFF AND ISZERO PUSH2 0xE4A JUMPI PUSH1 0x1 DUP3 ADD SWAP2 POP JUMPDEST PUSH1 0x4 SLOAD DUP3 EQ ISZERO PUSH2 0xE5D JUMPI PUSH1 0x1 SWAP3 POP PUSH2 0xA79 JUMP JUMPDEST PUSH1 0x1 ADD PUSH2 0xDED JUMP JUMPDEST ADDRESS PUSH1 0x1 PUSH1 0xA0 PUSH1 0x2 EXP SUB AND CALLER PUSH1 0x1 PUSH1 0xA0 PUSH1 0x2 EXP SUB AND EQ ISZERO ISZERO PUSH2 0xE85 JUMPI PUSH1 0x0 DUP1 REVERT JUMPDEST PUSH1 0x6 DUP2 SWAP1 SSTORE PUSH1 0x40 DUP1 MLOAD DUP3 DUP2 MSTORE SWAP1 MLOAD PUSH32 0xD1C9101A34FEFF75CCCEF14A28785A0279CB0B49C1F321F21F5F422E746B4377 SWAP2 DUP2 SWAP1 SUB PUSH1 0x20 ADD SWAP1 LOG1 POP JUMP JUMPDEST PUSH1 0x0 DUP1 JUMPDEST PUSH1 0x3 SLOAD DUP2 LT ISZERO PUSH2 0xF29 JUMPI PUSH1 0x0 DUP4 DUP2 MSTORE PUSH1 0x1 PUSH1 0x20 MSTORE PUSH1 0x40 DUP2 KECCAK256 PUSH1 0x3 DUP1 SLOAD SWAP2 SWAP3 SWAP2 DUP5 SWAP1 DUP2 LT PUSH2 0xEED JUMPI INVALID JUMPDEST PUSH1 0x0 SWAP2 DUP3 MSTORE PUSH1 0x20 DUP1 DUP4 KECCAK256 SWAP1 SWAP2 ADD SLOAD PUSH1 0x1 PUSH1 0xA0 PUSH1 0x2 EXP SUB AND DUP4 MSTORE DUP3 ADD SWAP3 SWAP1 SWAP3 MSTORE PUSH1 0x40 ADD SWAP1 KECCAK256 SLOAD PUSH1 0xFF AND ISZERO PUSH2 0xF21 JUMPI PUSH1 0x1 DUP3 ADD SWAP2 POP JUMPDEST PUSH1 0x1 ADD PUSH2 0xEC4 JUMP JUMPDEST POP SWAP2 SWAP1 POP JUMP JUMPDEST PUSH1 0x0 PUSH1 0x20 DUP2 DUP2 MSTORE SWAP2 DUP2 MSTORE PUSH1 0x40 SWAP1 DUP2 SWAP1 KECCAK256 DUP1 SLOAD PUSH1 0x1 DUP1 DUP4 ADD SLOAD PUSH1 0x2 DUP1 DUP6 ADD DUP1 SLOAD DUP8 MLOAD PUSH2 0x100 SWAP6 DUP3 AND ISZERO SWAP6 SWAP1 SWAP6 MUL PUSH1 0x0 NOT ADD AND SWAP2 SWAP1 SWAP2 DIV PUSH1 0x1F DUP2 ADD DUP9 SWAP1 DIV DUP9 MUL DUP5 ADD DUP9 ADD SWAP1 SWAP7 MSTORE DUP6 DUP4 MSTORE PUSH1 0x1 PUSH1 0xA0 PUSH1 0x2 EXP SUB SWAP1 SWAP4 AND SWAP6 SWAP1 SWAP5 SWAP2 SWAP3 SWAP2 SWAP1 DUP4 ADD DUP3 DUP3 DUP1 ISZERO PUSH2 0xFDA JUMPI DUP1 PUSH1 0x1F LT PUSH2 0xFAF JUMPI PUSH2 0x100 DUP1 DUP4 SLOAD DIV MUL DUP4 MSTORE SWAP2 PUSH1 0x20 ADD SWAP2 PUSH2 0xFDA JUMP JUMPDEST DUP3 ADD SWAP2 SWAP1 PUSH1 0x0 MSTORE PUSH1 0x20 PUSH1 0x0 KECCAK256 SWAP1 JUMPDEST DUP2 SLOAD DUP2 MSTORE SWAP1 PUSH1 0x1 ADD SWAP1 PUSH1 0x20 ADD DUP1 DUP4 GT PUSH2 0xFBD JUMPI DUP3 SWAP1 SUB PUSH1 0x1F AND DUP3 ADD SWAP2 JUMPDEST POP POP POP PUSH1 0x3 SWAP1 SWAP4 ADD SLOAD SWAP2 SWAP3 POP POP PUSH1 0xFF AND DUP5 JUMP JUMPDEST PUSH1 0x60 PUSH1 0x3 DUP1 SLOAD DUP1 PUSH1 0x20 MUL PUSH1 0x20 ADD PUSH1 0x40 MLOAD SWAP1 DUP2 ADD PUSH1 0x40 MSTORE DUP1 SWAP3 SWAP2 SWAP1 DUP2 DUP2 MSTORE PUSH1 0x20 ADD DUP3 DUP1 SLOAD DUP1 ISZERO PUSH2 0x1045 JUMPI PUSH1 0x20 MUL DUP3 ADD SWAP2 SWAP1 PUSH1 0x0 MSTORE PUSH1 0x20 PUSH1 0x0 KECCAK256 SWAP1 JUMPDEST DUP2 SLOAD PUSH1 0x1 PUSH1 0xA0 PUSH1 0x2 EXP SUB AND DUP2 MSTORE PUSH1 0x1 SWAP1 SWAP2 ADD SWAP1 PUSH1 0x20 ADD DUP1 DUP4 GT PUSH2 0x1027 JUMPI JUMPDEST POP POP POP POP POP SWAP1 POP JUMPDEST SWAP1 JUMP JUMPDEST PUSH1 0x60 DUP1 PUSH1 0x0 DUP1 PUSH1 0x5 SLOAD PUSH1 0x40 MLOAD SWAP1 DUP1 DUP3 MSTORE DUP1 PUSH1 0x20 MUL PUSH1 0x20 ADD DUP3 ADD PUSH1 0x40 MSTORE DUP1 ISZERO PUSH2 0x1082 JUMPI DUP2 PUSH1 0x20 ADD PUSH1 0x20 DUP3 MUL DUP1 CODESIZE DUP4 CODECOPY ADD SWAP1 POP JUMPDEST POP SWAP3 POP PUSH1 0x0 SWAP2 POP PUSH1 0x0 SWAP1 POP JUMPDEST PUSH1 0x5 SLOAD DUP2 LT ISZERO PUSH2 0x1109 JUMPI DUP6 DUP1 ISZERO PUSH2 0x10B7 JUMPI POP PUSH1 0x0 DUP2 DUP2 MSTORE PUSH1 0x20 DUP2 SWAP1 MSTORE PUSH1 0x40 SWAP1 KECCAK256 PUSH1 0x3 ADD SLOAD PUSH1 0xFF AND ISZERO JUMPDEST DUP1 PUSH2 0x10DB JUMPI POP DUP5 DUP1 ISZERO PUSH2 0x10DB JUMPI POP PUSH1 0x0 DUP2 DUP2 MSTORE PUSH1 0x20 DUP2 SWAP1 MSTORE PUSH1 0x40 SWAP1 KECCAK256 PUSH1 0x3 ADD SLOAD PUSH1 0xFF AND JUMPDEST ISZERO PUSH2 0x1101 JUMPI DUP1 DUP4 DUP4 DUP2 MLOAD DUP2 LT ISZERO ISZERO PUSH2 0x10EF JUMPI INVALID JUMPDEST PUSH1 0x20 SWAP1 DUP2 MUL SWAP1 SWAP2 ADD ADD MSTORE PUSH1 0x1 SWAP2 SWAP1 SWAP2 ADD SWAP1 JUMPDEST PUSH1 0x1 ADD PUSH2 0x108E JUMP JUMPDEST DUP8 DUP8 SUB PUSH1 0x40 MLOAD SWAP1 DUP1 DUP3 MSTORE DUP1 PUSH1 0x20 MUL PUSH1 0x20 ADD DUP3 ADD PUSH1 0x40 MSTORE DUP1 ISZERO PUSH2 0x1135 JUMPI DUP2 PUSH1 0x20 ADD PUSH1 0x20 DUP3 MUL DUP1 CODESIZE DUP4 CODECOPY ADD SWAP1 POP JUMPDEST POP SWAP4 POP DUP8 SWAP1 POP JUMPDEST DUP7 DUP2 LT ISZERO PUSH2 0x117E JUMPI DUP3 DUP2 DUP2 MLOAD DUP2 LT ISZERO ISZERO PUSH2 0x1152 JUMPI INVALID JUMPDEST SWAP1 PUSH1 0x20 ADD SWAP1 PUSH1 0x20 MUL ADD MLOAD DUP5 DUP10 DUP4 SUB DUP2 MLOAD DUP2 LT ISZERO ISZERO PUSH2 0x116C JUMPI INVALID JUMPDEST PUSH1 0x20 SWAP1 DUP2 MUL SWAP1 SWAP2 ADD ADD MSTORE PUSH1 0x1 ADD PUSH2 0x113C JUMP JUMPDEST POP POP POP SWAP5 SWAP4 POP POP POP POP JUMP JUMPDEST PUSH1 0x8 SLOAD PUSH1 0x1 PUSH1 0xA0 PUSH1 0x2 EXP SUB AND DUP2 JUMP JUMPDEST PUSH1 0x60 DUP1 PUSH1 0x0 DUP1 PUSH1 0x3 DUP1 SLOAD SWAP1 POP PUSH1 0x40 MLOAD SWAP1 DUP1 DUP3 MSTORE DUP1 PUSH1 0x20 MUL PUSH1 0x20 ADD DUP3 ADD PUSH1 0x40 MSTORE DUP1 ISZERO PUSH2 0x11CD JUMPI DUP2 PUSH1 0x20 ADD PUSH1 0x20 DUP3 MUL DUP1 CODESIZE DUP4 CODECOPY ADD SWAP1 POP JUMPDEST POP SWAP3 POP PUSH1 0x0 SWAP2 POP PUSH1 0x0 SWAP1 POP JUMPDEST PUSH1 0x3 SLOAD DUP2 LT ISZERO PUSH2 0x128A JUMPI PUSH1 0x0 DUP6 DUP2 MSTORE PUSH1 0x1 PUSH1 0x20 MSTORE PUSH1 0x40 DUP2 KECCAK256 PUSH1 0x3 DUP1 SLOAD SWAP2 SWAP3 SWAP2 DUP5 SWAP1 DUP2 LT PUSH2 0x1202 JUMPI INVALID JUMPDEST PUSH1 0x0 SWAP2 DUP3 MSTORE PUSH1 0x20 DUP1 DUP4 KECCAK256 SWAP1 SWAP2 ADD SLOAD PUSH1 0x1 PUSH1 0xA0 PUSH1 0x2 EXP SUB AND DUP4 MSTORE DUP3 ADD SWAP3 SWAP1 SWAP3 MSTORE PUSH1 0x40 ADD SWAP1 KECCAK256 SLOAD PUSH1 0xFF AND ISZERO PUSH2 0x1282 JUMPI PUSH1 0x3 DUP1 SLOAD DUP3 SWAP1 DUP2 LT PUSH2 0x123D JUMPI INVALID JUMPDEST PUSH1 0x0 SWAP2 DUP3 MSTORE PUSH1 0x20 SWAP1 SWAP2 KECCAK256 ADD SLOAD DUP4 MLOAD PUSH1 0x1 PUSH1 0xA0 PUSH1 0x2 EXP SUB SWAP1 SWAP2 AND SWAP1 DUP5 SWAP1 DUP5 SWAP1 DUP2 LT PUSH2 0x1263 JUMPI INVALID JUMPDEST PUSH1 0x1 PUSH1 0xA0 PUSH1 0x2 EXP SUB SWAP1 SWAP3 AND PUSH1 0x20 SWAP3 DUP4 MUL SWAP1 SWAP2 ADD SWAP1 SWAP2 ADD MSTORE PUSH1 0x1 SWAP2 SWAP1 SWAP2 ADD SWAP1 JUMPDEST PUSH1 0x1 ADD PUSH2 0x11D9 JUMP JUMPDEST DUP2 PUSH1 0x40 MLOAD SWAP1 DUP1 DUP3 MSTORE DUP1 PUSH1 0x20 MUL PUSH1 0x20 ADD DUP3 ADD PUSH1 0x40 MSTORE DUP1 ISZERO PUSH2 0x12B4 JUMPI DUP2 PUSH1 0x20 ADD PUSH1 0x20 DUP3 MUL DUP1 CODESIZE DUP4 CODECOPY ADD SWAP1 POP JUMPDEST POP SWAP4 POP PUSH1 0x0 SWAP1 POP JUMPDEST DUP2 DUP2 LT ISZERO PUSH2 0x1309 JUMPI DUP3 DUP2 DUP2 MLOAD DUP2 LT ISZERO ISZERO PUSH2 0x12D2 JUMPI INVALID JUMPDEST SWAP1 PUSH1 0x20 ADD SWAP1 PUSH1 0x20 MUL ADD MLOAD DUP5 DUP3 DUP2 MLOAD DUP2 LT ISZERO ISZERO PUSH2 0x12EA JUMPI INVALID JUMPDEST PUSH1 0x1 PUSH1 0xA0 PUSH1 0x2 EXP SUB SWAP1 SWAP3 AND PUSH1 0x20 SWAP3 DUP4 MUL SWAP1 SWAP2 ADD SWAP1 SWAP2 ADD MSTORE PUSH1 0x1 ADD PUSH2 0x12BC JUMP JUMPDEST POP POP POP SWAP2 SWAP1 POP JUMP JUMPDEST PUSH1 0x5 SLOAD DUP2 JUMP JUMPDEST ADDRESS PUSH1 0x1 PUSH1 0xA0 PUSH1 0x2 EXP SUB AND CALLER PUSH1 0x1 PUSH1 0xA0 PUSH1 0x2 EXP SUB AND EQ ISZERO ISZERO PUSH2 0x1337 JUMPI PUSH1 0x0 DUP1 REVERT JUMPDEST PUSH1 0x3 SLOAD DUP2 PUSH1 0x32 DUP3 GT DUP1 PUSH2 0x1349 JUMPI POP DUP2 DUP2 GT JUMPDEST DUP1 PUSH2 0x1352 JUMPI POP DUP1 ISZERO JUMPDEST DUP1 PUSH2 0x135B JUMPI POP DUP2 ISZERO JUMPDEST ISZERO PUSH2 0x1365 JUMPI PUSH1 0x0 DUP1 REVERT JUMPDEST PUSH1 0x4 DUP4 SWAP1 SSTORE PUSH1 0x40 DUP1 MLOAD DUP5 DUP2 MSTORE SWAP1 MLOAD PUSH32 0xA3F1EE9126A074D9326C682F561767F710E927FAA811F7A99829D49DC421797A SWAP2 DUP2 SWAP1 SUB PUSH1 0x20 ADD SWAP1 LOG1 POP POP POP JUMP JUMPDEST CALLER PUSH1 0x1 PUSH1 0xA0 PUSH1 0x2 EXP SUB DUP2 AND PUSH1 0x0 SWAP1 DUP2 MSTORE PUSH1 0x2 PUSH1 0x20 MSTORE PUSH1 0x40 SWAP1 KECCAK256 SLOAD PUSH1 0xFF AND ISZERO ISZERO PUSH2 0x13CA JUMPI PUSH1 0x0 DUP1 REVERT JUMPDEST PUSH1 0x0 DUP3 DUP2 MSTORE PUSH1 0x20 DUP2 SWAP1 MSTORE PUSH1 0x40 SWAP1 KECCAK256 SLOAD DUP3 SWAP1 PUSH1 0x1 PUSH1 0xA0 PUSH1 0x2 EXP SUB AND ISZERO ISZERO PUSH2 0x13EF JUMPI PUSH1 0x0 DUP1 REVERT JUMPDEST PUSH1 0x0 DUP4 DUP2 MSTORE PUSH1 0x1 PUSH1 0x20 SWAP1 DUP2 MSTORE PUSH1 0x40 DUP1 DUP4 KECCAK256 CALLER PUSH1 0x1 PUSH1 0xA0 PUSH1 0x2 EXP SUB DUP2 AND DUP6 MSTORE SWAP3 MSTORE SWAP1 SWAP2 KECCAK256 SLOAD DUP5 SWAP2 SWAP1 PUSH1 0xFF AND ISZERO PUSH2 0x1423 JUMPI PUSH1 0x0 DUP1 REVERT JUMPDEST DUP5 PUSH2 0x142D DUP2 PUSH2 0xDE8 JUMP JUMPDEST ISZERO PUSH2 0x1437 JUMPI PUSH1 0x0 DUP1 REVERT JUMPDEST PUSH1 0x0 DUP7 DUP2 MSTORE PUSH1 0x1 PUSH1 0x20 DUP2 DUP2 MSTORE PUSH1 0x40 DUP1 DUP5 KECCAK256 PUSH1 0x1 PUSH1 0xA0 PUSH1 0x2 EXP SUB CALLER AND DUP1 DUP7 MSTORE SWAP3 MSTORE DUP1 DUP5 KECCAK256 DUP1 SLOAD PUSH1 0xFF NOT AND SWAP1 SWAP4 OR SWAP1 SWAP3 SSTORE SWAP1 MLOAD DUP9 SWAP3 PUSH32 0x4A504A94899432A9846E1AA406DCEB1BCFD538BB839071D49D1E5E23F5BE30EF SWAP2 LOG3 PUSH2 0x1496 DUP7 PUSH2 0xDE8 JUMP JUMPDEST ISZERO PUSH2 0xCAF JUMPI PUSH2 0xCAF DUP7 TIMESTAMP PUSH2 0x1809 JUMP JUMPDEST PUSH1 0x0 PUSH2 0x14B2 DUP5 DUP5 DUP5 PUSH2 0x1854 JUMP JUMPDEST SWAP1 POP PUSH2 0x14BD DUP2 PUSH2 0x13A2 JUMP JUMPDEST SWAP4 SWAP3 POP POP POP JUMP JUMPDEST PUSH1 0x7 PUSH1 0x20 MSTORE PUSH1 0x0 SWAP1 DUP2 MSTORE PUSH1 0x40 SWAP1 KECCAK256 SLOAD DUP2 JUMP JUMPDEST PUSH1 0x32 DUP2 JUMP JUMPDEST PUSH1 0x4 SLOAD DUP2 JUMP JUMPDEST PUSH1 0x0 ADDRESS PUSH1 0x1 PUSH1 0xA0 PUSH1 0x2 EXP SUB AND CALLER PUSH1 0x1 PUSH1 0xA0 PUSH1 0x2 EXP SUB AND EQ ISZERO ISZERO PUSH2 0x1503 JUMPI PUSH1 0x0 DUP1 REVERT JUMPDEST PUSH1 0x1 PUSH1 0xA0 PUSH1 0x2 EXP SUB DUP4 AND PUSH1 0x0 SWAP1 DUP2 MSTORE PUSH1 0x2 PUSH1 0x20 MSTORE PUSH1 0x40 SWAP1 KECCAK256 SLOAD DUP4 SWAP1 PUSH1 0xFF AND ISZERO ISZERO PUSH2 0x152C JUMPI PUSH1 0x0 DUP1 REVERT JUMPDEST PUSH1 0x1 PUSH1 0xA0 PUSH1 0x2 EXP SUB DUP4 AND PUSH1 0x0 SWAP1 DUP2 MSTORE PUSH1 0x2 PUSH1 0x20 MSTORE PUSH1 0x40 SWAP1 KECCAK256 SLOAD DUP4 SWAP1 PUSH1 0xFF AND ISZERO PUSH2 0x1554 JUMPI PUSH1 0x0 DUP1 REVERT JUMPDEST PUSH1 0x0 SWAP3 POP JUMPDEST PUSH1 0x3 SLOAD DUP4 LT ISZERO PUSH2 0x15E5 JUMPI DUP5 PUSH1 0x1 PUSH1 0xA0 PUSH1 0x2 EXP SUB AND PUSH1 0x3 DUP5 DUP2 SLOAD DUP2 LT ISZERO ISZERO PUSH2 0x157C JUMPI INVALID JUMPDEST PUSH1 0x0 SWAP2 DUP3 MSTORE PUSH1 0x20 SWAP1 SWAP2 KECCAK256 ADD SLOAD PUSH1 0x1 PUSH1 0xA0 PUSH1 0x2 EXP SUB AND EQ ISZERO PUSH2 0x15DA JUMPI DUP4 PUSH1 0x3 DUP5 DUP2 SLOAD DUP2 LT ISZERO ISZERO PUSH2 0x15A7 JUMPI INVALID JUMPDEST SWAP1 PUSH1 0x0 MSTORE PUSH1 0x20 PUSH1 0x0 KECCAK256 ADD PUSH1 0x0 PUSH2 0x100 EXP DUP2 SLOAD DUP2 PUSH1 0x1 PUSH1 0xA0 PUSH1 0x2 EXP SUB MUL NOT AND SWAP1 DUP4 PUSH1 0x1 PUSH1 0xA0 PUSH1 0x2 EXP SUB AND MUL OR SWAP1 SSTORE POP PUSH2 0x15E5 JUMP JUMPDEST PUSH1 0x1 SWAP1 SWAP3 ADD SWAP2 PUSH2 0x1559 JUMP JUMPDEST PUSH1 0x1 PUSH1 0xA0 PUSH1 0x2 EXP SUB DUP1 DUP7 AND PUSH1 0x0 DUP2 DUP2 MSTORE PUSH1 0x2 PUSH1 0x20 MSTORE PUSH1 0x40 DUP1 DUP3 KECCAK256 DUP1 SLOAD PUSH1 0xFF NOT SWAP1 DUP2 AND SWAP1 SWAP2 SSTORE SWAP4 DUP9 AND DUP3 MSTORE DUP1 DUP3 KECCAK256 DUP1 SLOAD SWAP1 SWAP5 AND PUSH1 0x1 OR SWAP1 SWAP4 SSTORE SWAP2 MLOAD SWAP1 SWAP2 PUSH32 0x8001553A916EF2F495D26A907CC54D96ED840D7BDA71E73194BF5A9DF7A76B90 SWAP2 LOG2 PUSH1 0x40 MLOAD PUSH1 0x1 PUSH1 0xA0 PUSH1 0x2 EXP SUB DUP6 AND SWAP1 PUSH32 0xF39E6E1EB0EDCF53C221607B54B00CD28F3196FED0A24994DC308B8F611B682D SWAP1 PUSH1 0x0 SWAP1 LOG2 POP POP POP POP POP JUMP JUMPDEST PUSH1 0x0 DUP2 DUP2 MSTORE PUSH1 0x20 DUP2 SWAP1 MSTORE PUSH1 0x40 DUP2 KECCAK256 PUSH1 0x3 ADD SLOAD DUP3 SWAP1 PUSH1 0xFF AND ISZERO PUSH2 0x16A0 JUMPI PUSH1 0x0 DUP1 REVERT JUMPDEST DUP3 PUSH2 0x16AA DUP2 PUSH2 0xDE8 JUMP JUMPDEST ISZERO ISZERO PUSH2 0x16B5 JUMPI PUSH1 0x0 DUP1 REVERT JUMPDEST PUSH1 0x6 SLOAD PUSH1 0x0 DUP6 DUP2 MSTORE PUSH1 0x7 PUSH1 0x20 MSTORE PUSH1 0x40 SWAP1 KECCAK256 SLOAD DUP6 SWAP2 ADD TIMESTAMP LT ISZERO PUSH2 0x16D6 JUMPI PUSH1 0x0 DUP1 REVERT JUMPDEST PUSH1 0x0 DUP6 DUP2 MSTORE PUSH1 0x20 DUP2 SWAP1 MSTORE PUSH1 0x40 SWAP1 DUP2 SWAP1 KECCAK256 PUSH1 0x3 DUP2 ADD DUP1 SLOAD PUSH1 0xFF NOT AND PUSH1 0x1 SWAP1 DUP2 OR SWAP1 SWAP2 SSTORE DUP2 SLOAD DUP2 DUP4 ADD SLOAD SWAP4 MLOAD PUSH1 0x2 DUP1 DUP6 ADD DUP1 SLOAD SWAP6 SWAP11 POP PUSH1 0x1 PUSH1 0xA0 PUSH1 0x2 EXP SUB SWAP1 SWAP4 AND SWAP6 SWAP5 SWAP3 SWAP4 SWAP2 SWAP3 DUP4 SWAP3 DUP6 SWAP3 PUSH1 0x0 NOT SWAP2 DUP4 AND ISZERO PUSH2 0x100 MUL SWAP2 SWAP1 SWAP2 ADD SWAP1 SWAP2 AND DIV DUP1 ISZERO PUSH2 0x177F JUMPI DUP1 PUSH1 0x1F LT PUSH2 0x1754 JUMPI PUSH2 0x100 DUP1 DUP4 SLOAD DIV MUL DUP4 MSTORE SWAP2 PUSH1 0x20 ADD SWAP2 PUSH2 0x177F JUMP JUMPDEST DUP3 ADD SWAP2 SWAP1 PUSH1 0x0 MSTORE PUSH1 0x20 PUSH1 0x0 KECCAK256 SWAP1 JUMPDEST DUP2 SLOAD DUP2 MSTORE SWAP1 PUSH1 0x1 ADD SWAP1 PUSH1 0x20 ADD DUP1 DUP4 GT PUSH2 0x1762 JUMPI DUP3 SWAP1 SUB PUSH1 0x1F AND DUP3 ADD SWAP2 JUMPDEST POP POP SWAP2 POP POP PUSH1 0x0 PUSH1 0x40 MLOAD DUP1 DUP4 SUB DUP2 DUP6 DUP8 GAS CALL SWAP3 POP POP POP ISZERO PUSH2 0x17CA JUMPI PUSH1 0x40 MLOAD DUP6 SWAP1 PUSH32 0x33E13ECB54C3076D8E8BB8C2881800A4D972B792045FFAE98FDF46DF365FED75 SWAP1 PUSH1 0x0 SWAP1 LOG2 PUSH2 0x1802 JUMP JUMPDEST PUSH1 0x40 MLOAD DUP6 SWAP1 PUSH32 0x526441BB6C1ABA3C9A4A6CA1D6545DA9C2333C8C48343EF398EB858D72B79236 SWAP1 PUSH1 0x0 SWAP1 LOG2 PUSH1 0x3 DUP5 ADD DUP1 SLOAD PUSH1 0xFF NOT AND SWAP1 SSTORE JUMPDEST POP POP POP POP POP JUMP JUMPDEST PUSH1 0x0 DUP3 DUP2 MSTORE PUSH1 0x7 PUSH1 0x20 SWAP1 DUP2 MSTORE PUSH1 0x40 SWAP2 DUP3 SWAP1 KECCAK256 DUP4 SWAP1 SSTORE DUP2 MLOAD DUP4 DUP2 MSTORE SWAP2 MLOAD DUP5 SWAP3 PUSH32 0xB237AFE65F1514FD7EA3F923EA4FE792BDD07000A912B6CD1602A8E7F573C8D SWAP3 SWAP1 DUP3 SWAP1 SUB ADD SWAP1 LOG2 POP POP JUMP JUMPDEST PUSH1 0x0 DUP4 PUSH1 0x1 PUSH1 0xA0 PUSH1 0x2 EXP SUB DUP2 AND ISZERO ISZERO PUSH2 0x186C JUMPI PUSH1 0x0 DUP1 REVERT JUMPDEST PUSH1 0x5 SLOAD PUSH1 0x40 DUP1 MLOAD PUSH1 0x80 DUP2 ADD DUP3 MSTORE PUSH1 0x1 PUSH1 0xA0 PUSH1 0x2 EXP SUB DUP9 DUP2 AND DUP3 MSTORE PUSH1 0x20 DUP1 DUP4 ADD DUP10 DUP2 MSTORE DUP4 DUP6 ADD DUP10 DUP2 MSTORE PUSH1 0x0 PUSH1 0x60 DUP7 ADD DUP2 SWAP1 MSTORE DUP8 DUP2 MSTORE DUP1 DUP5 MSTORE SWAP6 SWAP1 SWAP6 KECCAK256 DUP5 MLOAD DUP2 SLOAD PUSH20 0xFFFFFFFFFFFFFFFFFFFFFFFFFFFFFFFFFFFFFFFF NOT AND SWAP5 AND SWAP4 SWAP1 SWAP4 OR DUP4 SSTORE MLOAD PUSH1 0x1 DUP4 ADD SSTORE SWAP3 MLOAD DUP1 MLOAD SWAP5 SWAP7 POP SWAP2 SWAP4 SWAP1 SWAP3 PUSH2 0x18EC SWAP3 PUSH1 0x2 DUP6 ADD SWAP3 SWAP2 ADD SWAP1 PUSH2 0x196D JUMP JUMPDEST POP PUSH1 0x60 SWAP2 SWAP1 SWAP2 ADD MLOAD PUSH1 0x3 SWAP1 SWAP2 ADD DUP1 SLOAD PUSH1 0xFF NOT AND SWAP2 ISZERO ISZERO SWAP2 SWAP1 SWAP2 OR SWAP1 SSTORE PUSH1 0x5 DUP1 SLOAD PUSH1 0x1 ADD SWAP1 SSTORE PUSH1 0x40 MLOAD DUP3 SWAP1 PUSH32 0xC0BA8FE4B176C1714197D43B9CC6BCF797A4A7461C5FE8D0EF6E184AE7601E51 SWAP1 PUSH1 0x0 SWAP1 LOG2 POP SWAP4 SWAP3 POP POP POP JUMP JUMPDEST DUP2 SLOAD DUP2 DUP4 SSTORE DUP2 DUP2 GT ISZERO PUSH2 0x1968 JUMPI PUSH1 0x0 DUP4 DUP2 MSTORE PUSH1 0x20 SWAP1 KECCAK256 PUSH2 0x1968 SWAP2 DUP2 ADD SWAP1 DUP4 ADD PUSH2 0x19EB JUMP JUMPDEST POP POP POP JUMP JUMPDEST DUP3 DUP1 SLOAD PUSH1 0x1 DUP2 PUSH1 0x1 AND ISZERO PUSH2 0x100 MUL SUB AND PUSH1 0x2 SWAP1 DIV SWAP1 PUSH1 0x0 MSTORE PUSH1 0x20 PUSH1 0x0 KECCAK256 SWAP1 PUSH1 0x1F ADD PUSH1 0x20 SWAP1 DIV DUP2 ADD SWAP3 DUP3 PUSH1 0x1F LT PUSH2 0x19AE JUMPI DUP1 MLOAD PUSH1 0xFF NOT AND DUP4 DUP1 ADD OR DUP6 SSTORE PUSH2 0x19DB JUMP JUMPDEST DUP3 DUP1 ADD PUSH1 0x1 ADD DUP6 SSTORE DUP3 ISZERO PUSH2 0x19DB JUMPI SWAP2 DUP3 ADD JUMPDEST DUP3 DUP2 GT ISZERO PUSH2 0x19DB JUMPI DUP3 MLOAD DUP3 SSTORE SWAP2 PUSH1 0x20 ADD SWAP2 SWAP1 PUSH1 0x1 ADD SWAP1 PUSH2 0x19C0 JUMP JUMPDEST POP PUSH2 0x19E7 SWAP3 SWAP2 POP PUSH2 0x19EB JUMP JUMPDEST POP SWAP1 JUMP JUMPDEST PUSH2 0x104D SWAP2 SWAP1 JUMPDEST DUP1 DUP3 GT ISZERO PUSH2 0x19E7 JUMPI PUSH1 0x0 DUP2 SSTORE PUSH1 0x1 ADD PUSH2 0x19F1 JUMP STOP LOG1 PUSH6 0x627A7A723058 KECCAK256 XOR CREATE 0x4e 0x48 0xc8 DUP15 PUSH4 0x69E814B3 GT DUP15 0x23 0xbb 0xe3 EXP SGT SWAP12 0xce SSTORE 0xd3 0x5f CREATE 0x27 0xa7 0xd4 0x5d 0x5d BLOCKHASH 0xda 0xe6 STOP 0x29 "
			}
		}
	},
	"sourceTreeHashHex": "0xdac022bb4f4cd50563fb21da8efb584e698d76b401d3c823cf757a1a2da3aea0",
	"compiler": {
		"name": "solc",
		"version": "0.4.23",
		"settings": {
			"optimizer": {
				"enabled": true,
				"runs": 200
			},
			"outputSelection": {
				"*": {
					"*": [
						"abi",
						"evm.bytecode.object",
						"evm.bytecode.sourceMap",
						"evm.deployedBytecode.object",
						"evm.deployedBytecode.sourceMap"
					]
				}
			}
		}
	}
}