{
	"schemaVersion": "2.0.0",
	"contractName": "TestAssetProxyDispatcher",
	"compilerOutput": {
		"abi": [
			{
				"constant": true,
				"inputs": [
					{
						"name": "",
						"type": "uint8"
					}
				],
				"name": "assetProxies",
				"outputs": [
					{
						"name": "",
						"type": "address"
					}
				],
				"payable": false,
				"stateMutability": "view",
				"type": "function"
			},
			{
				"constant": false,
				"inputs": [
					{
						"name": "assetProxyId",
						"type": "uint8"
					},
					{
						"name": "newAssetProxy",
						"type": "address"
					},
					{
						"name": "oldAssetProxy",
						"type": "address"
					}
				],
				"name": "registerAssetProxy",
				"outputs": [],
				"payable": false,
				"stateMutability": "nonpayable",
				"type": "function"
			},
			{
				"constant": false,
				"inputs": [
					{
						"name": "assetMetadata",
						"type": "bytes"
					},
					{
						"name": "from",
						"type": "address"
					},
					{
						"name": "to",
						"type": "address"
					},
					{
						"name": "amount",
						"type": "uint256"
					}
				],
				"name": "publicDispatchTransferFrom",
				"outputs": [],
				"payable": false,
				"stateMutability": "nonpayable",
				"type": "function"
			},
			{
				"constant": true,
				"inputs": [],
				"name": "owner",
				"outputs": [
					{
						"name": "",
						"type": "address"
					}
				],
				"payable": false,
				"stateMutability": "view",
				"type": "function"
			},
			{
				"constant": true,
				"inputs": [
					{
						"name": "assetProxyId",
						"type": "uint8"
					}
				],
				"name": "getAssetProxy",
				"outputs": [
					{
						"name": "",
						"type": "address"
					}
				],
				"payable": false,
				"stateMutability": "view",
				"type": "function"
			},
			{
				"constant": false,
				"inputs": [
					{
						"name": "newOwner",
						"type": "address"
					}
				],
				"name": "transferOwnership",
				"outputs": [],
				"payable": false,
				"stateMutability": "nonpayable",
				"type": "function"
			},
			{
				"anonymous": false,
				"inputs": [
					{
						"indexed": false,
						"name": "id",
						"type": "uint8"
					},
					{
						"indexed": false,
						"name": "newAssetProxy",
						"type": "address"
					},
					{
						"indexed": false,
						"name": "oldAssetProxy",
						"type": "address"
					}
				],
				"name": "AssetProxySet",
				"type": "event"
			}
		],
		"evm": {
			"bytecode": {
				"linkReferences": {},
				"object": "0x608060405260008054600160a060020a03191633179055610954806100256000396000f30060806040526004361061005e5763ffffffff60e060020a6000350416633807716481146100635780635c78d0c714610099578063889b6d8d146100bb5780638da5cb5b146100db57806392c1421e146100fd578063f2fde38b1461011d575b600080fd5b34801561006f57600080fd5b5061008361007e366004610682565b61013d565b6040516100909190610810565b60405180910390f35b3480156100a557600080fd5b506100b96100b43660046106be565b610158565b005b3480156100c757600080fd5b506100b96100d636600461060b565b6103a5565b3480156100e757600080fd5b506100f06103b7565b60405161009091906107b9565b34801561010957600080fd5b506100f0610118366004610682565b6103c6565b34801561012957600080fd5b506100b96101383660046105e5565b6103e4565b600160205260009081526040902054600160a060020a031681565b600080548190600160a060020a031633146101915760405160e560020a62461bcd0281526004016101889061082f565b60405180910390fd5b60ff8516600090815260016020908152604091829020548251606081018452603781527f4f6c642061737365742070726f787920646f6573206e6f74206d61746368206192810192909252604960020a7639b9b2ba10383937bc3c9030ba1033b4bb32b71034b217029282019290925290600160a060020a038581169116146102305760405160e560020a62461bcd028152600401610188919061081e565b50839150600160a060020a038216156103375781600160a060020a031663ae25532e6040518163ffffffff1660e060020a028152600401602060405180830381600087803b15801561028157600080fd5b505af1158015610295573d6000803e3d6000fd5b505050506040513d601f19601f820116820180604052506102b991908101906106a0565b90508460ff168160ff1614606060405190810160405280602b81526020017f4e65772061737365742070726f787920696420646f6573206e6f74206d617463815260200160a960020a6a341033b4bb32b71034b217028152509015156103355760405160e560020a62461bcd028152600401610188919061081e565b505b60ff8516600090815260016020526040908190208054600160a060020a031916600160a060020a038516179055517f27ef5f484e50f2daf7c2d82c60fe4ce409009541176eb64095beac369db1d260906103969087908790879061083f565b60405180910390a15050505050565b6103b18484848461043f565b50505050565b600054600160a060020a031681565b60ff16600090815260016020526040902054600160a060020a031690565b600054600160a060020a031633146104115760405160e560020a62461bcd0281526004016101889061082f565b600160a060020a0381161561043c5760008054600160a060020a031916600160a060020a0383161790555b50565b60008060008084111561055157865160408051808201909152601e81527f4c656e677468206d7573742062652067726561746572207468616e20302e00006020820152909350600084116104a95760405160e560020a62461bcd028152600401610188919061081e565b5086600184038151811015156104bb57fe5b6020910181015160f860020a9081900481020460ff81166000908152600190925260409182902054915160e260020a632a179679028152909350600160a060020a039091169150819063a85e59e49061051e908a908a908a908a906004016107cd565b600060405180830381600087803b15801561053857600080fd5b505af115801561054c573d6000803e3d6000fd5b505050505b50505050505050565b600061056682356108b8565b9392505050565b6000601f8201831361057e57600080fd5b813561059161058c8261088d565b610867565b915080825260208301602083018583830111156105ad57600080fd5b6105b88382846108d8565b50505092915050565b600061056682356108c4565b600061056682356108c7565b600061056682516108c7565b6000602082840312156105f757600080fd5b6000610603848461055a565b949350505050565b6000806000806080858703121561062157600080fd5b84356001604060020a0381111561063757600080fd5b6106438782880161056d565b94505060206106548782880161055a565b93505060406106658782880161055a565b9250506060610676878288016105c1565b91505092959194509250565b60006020828403121561069457600080fd5b600061060384846105cd565b6000602082840312156106b257600080fd5b600061060384846105d9565b6000806000606084860312156106d357600080fd5b60006106df86866105cd565b93505060206106f08682870161055a565b92505060406107018682870161055a565b9150509250925092565b610714816108b8565b82525050565b6000610725826108b4565b8084526107398160208601602086016108e4565b61074281610910565b9093016020019392505050565b610714816108cd565b603381527f4f6e6c7920636f6e7472616374206f776e657220697320616c6c6f77656420746020820152606960020a72379031b0b636103a3434b99036b2ba3437b21702604082015260600190565b610714816108c4565b610714816108c7565b602081016107c7828461070b565b92915050565b608080825281016107de818761071a565b90506107ed602083018661070b565b6107fa604083018561070b565b61080760608301846107a7565b95945050505050565b602081016107c7828461074f565b60208082528101610566818461071a565b602080825281016107c781610758565b6060810161084d82866107b0565b61085a602083018561070b565b610603604083018461070b565b6040518181016001604060020a038111828210171561088557600080fd5b604052919050565b60006001604060020a038211156108a357600080fd5b506020601f91909101601f19160190565b5190565b600160a060020a031690565b90565b60ff1690565b60006107c7826108b8565b82818337506000910152565b60005b838110156108ff5781810151838201526020016108e7565b838111156103b15750506000910152565b601f01601f1916905600a265627a7a72305820002e7a16aecf4bbd459cac22f8240c256d43cbbcdb00f256bcae77981a49f6a86c6578706572696d656e74616cf50037",
				"opcodes": "PUSH1 0x80 PUSH1 0x40 MSTORE PUSH1 0x0 DUP1 SLOAD PUSH1 0x1 PUSH1 0xA0 PUSH1 0x2 EXP SUB NOT AND CALLER OR SWAP1 SSTORE PUSH2 0x954 DUP1 PUSH2 0x25 PUSH1 0x0 CODECOPY PUSH1 0x0 RETURN STOP PUSH1 0x80 PUSH1 0x40 MSTORE PUSH1 0x4 CALLDATASIZE LT PUSH2 0x5E JUMPI PUSH4 0xFFFFFFFF PUSH1 0xE0 PUSH1 0x2 EXP PUSH1 0x0 CALLDATALOAD DIV AND PUSH4 0x38077164 DUP2 EQ PUSH2 0x63 JUMPI DUP1 PUSH4 0x5C78D0C7 EQ PUSH2 0x99 JUMPI DUP1 PUSH4 0x889B6D8D EQ PUSH2 0xBB JUMPI DUP1 PUSH4 0x8DA5CB5B EQ PUSH2 0xDB JUMPI DUP1 PUSH4 0x92C1421E EQ PUSH2 0xFD JUMPI DUP1 PUSH4 0xF2FDE38B EQ PUSH2 0x11D JUMPI JUMPDEST PUSH1 0x0 DUP1 REVERT JUMPDEST CALLVALUE DUP1 ISZERO PUSH2 0x6F JUMPI PUSH1 0x0 DUP1 REVERT JUMPDEST POP PUSH2 0x83 PUSH2 0x7E CALLDATASIZE PUSH1 0x4 PUSH2 0x682 JUMP JUMPDEST PUSH2 0x13D JUMP JUMPDEST PUSH1 0x40 MLOAD PUSH2 0x90 SWAP2 SWAP1 PUSH2 0x810 JUMP JUMPDEST PUSH1 0x40 MLOAD DUP1 SWAP2 SUB SWAP1 RETURN JUMPDEST CALLVALUE DUP1 ISZERO PUSH2 0xA5 JUMPI PUSH1 0x0 DUP1 REVERT JUMPDEST POP PUSH2 0xB9 PUSH2 0xB4 CALLDATASIZE PUSH1 0x4 PUSH2 0x6BE JUMP JUMPDEST PUSH2 0x158 JUMP JUMPDEST STOP JUMPDEST CALLVALUE DUP1 ISZERO PUSH2 0xC7 JUMPI PUSH1 0x0 DUP1 REVERT JUMPDEST POP PUSH2 0xB9 PUSH2 0xD6 CALLDATASIZE PUSH1 0x4 PUSH2 0x60B JUMP JUMPDEST PUSH2 0x3A5 JUMP JUMPDEST CALLVALUE DUP1 ISZERO PUSH2 0xE7 JUMPI PUSH1 0x0 DUP1 REVERT JUMPDEST POP PUSH2 0xF0 PUSH2 0x3B7 JUMP JUMPDEST PUSH1 0x40 MLOAD PUSH2 0x90 SWAP2 SWAP1 PUSH2 0x7B9 JUMP JUMPDEST CALLVALUE DUP1 ISZERO PUSH2 0x109 JUMPI PUSH1 0x0 DUP1 REVERT JUMPDEST POP PUSH2 0xF0 PUSH2 0x118 CALLDATASIZE PUSH1 0x4 PUSH2 0x682 JUMP JUMPDEST PUSH2 0x3C6 JUMP JUMPDEST CALLVALUE DUP1 ISZERO PUSH2 0x129 JUMPI PUSH1 0x0 DUP1 REVERT JUMPDEST POP PUSH2 0xB9 PUSH2 0x138 CALLDATASIZE PUSH1 0x4 PUSH2 0x5E5 JUMP JUMPDEST PUSH2 0x3E4 JUMP JUMPDEST PUSH1 0x1 PUSH1 0x20 MSTORE PUSH1 0x0 SWAP1 DUP2 MSTORE PUSH1 0x40 SWAP1 KECCAK256 SLOAD PUSH1 0x1 PUSH1 0xA0 PUSH1 0x2 EXP SUB AND DUP2 JUMP JUMPDEST PUSH1 0x0 DUP1 SLOAD DUP2 SWAP1 PUSH1 0x1 PUSH1 0xA0 PUSH1 0x2 EXP SUB AND CALLER EQ PUSH2 0x191 JUMPI PUSH1 0x40 MLOAD PUSH1 0xE5 PUSH1 0x2 EXP PUSH3 0x461BCD MUL DUP2 MSTORE PUSH1 0x4 ADD PUSH2 0x188 SWAP1 PUSH2 0x82F JUMP JUMPDEST PUSH1 0x40 MLOAD DUP1 SWAP2 SUB SWAP1 REVERT JUMPDEST PUSH1 0xFF DUP6 AND PUSH1 0x0 SWAP1 DUP2 MSTORE PUSH1 0x1 PUSH1 0x20 SWAP1 DUP2 MSTORE PUSH1 0x40 SWAP2 DUP3 SWAP1 KECCAK256 SLOAD DUP3 MLOAD PUSH1 0x60 DUP2 ADD DUP5 MSTORE PUSH1 0x37 DUP2 MSTORE PUSH32 0x4F6C642061737365742070726F787920646F6573206E6F74206D617463682061 SWAP3 DUP2 ADD SWAP3 SWAP1 SWAP3 MSTORE PUSH1 0x49 PUSH1 0x2 EXP PUSH23 0x39B9B2BA10383937BC3C9030BA1033B4BB32B71034B217 MUL SWAP3 DUP3 ADD SWAP3 SWAP1 SWAP3 MSTORE SWAP1 PUSH1 0x1 PUSH1 0xA0 PUSH1 0x2 EXP SUB DUP6 DUP2 AND SWAP2 AND EQ PUSH2 0x230 JUMPI PUSH1 0x40 MLOAD PUSH1 0xE5 PUSH1 0x2 EXP PUSH3 0x461BCD MUL DUP2 MSTORE PUSH1 0x4 ADD PUSH2 0x188 SWAP2 SWAP1 PUSH2 0x81E JUMP JUMPDEST POP DUP4 SWAP2 POP PUSH1 0x1 PUSH1 0xA0 PUSH1 0x2 EXP SUB DUP3 AND ISZERO PUSH2 0x337 JUMPI DUP2 PUSH1 0x1 PUSH1 0xA0 PUSH1 0x2 EXP SUB AND PUSH4 0xAE25532E PUSH1 0x40 MLOAD DUP2 PUSH4 0xFFFFFFFF AND PUSH1 0xE0 PUSH1 0x2 EXP MUL DUP2 MSTORE PUSH1 0x4 ADD PUSH1 0x20 PUSH1 0x40 MLOAD DUP1 DUP4 SUB DUP2 PUSH1 0x0 DUP8 DUP1 EXTCODESIZE ISZERO DUP1 ISZERO PUSH2 0x281 JUMPI PUSH1 0x0 DUP1 REVERT JUMPDEST POP GAS CALL ISZERO DUP1 ISZERO PUSH2 0x295 JUMPI RETURNDATASIZE PUSH1 0x0 DUP1 RETURNDATACOPY RETURNDATASIZE PUSH1 0x0 REVERT JUMPDEST POP POP POP POP PUSH1 0x40 MLOAD RETURNDATASIZE PUSH1 0x1F NOT PUSH1 0x1F DUP3 ADD AND DUP3 ADD DUP1 PUSH1 0x40 MSTORE POP PUSH2 0x2B9 SWAP2 SWAP1 DUP2 ADD SWAP1 PUSH2 0x6A0 JUMP JUMPDEST SWAP1 POP DUP5 PUSH1 0xFF AND DUP2 PUSH1 0xFF AND EQ PUSH1 0x60 PUSH1 0x40 MLOAD SWAP1 DUP2 ADD PUSH1 0x40 MSTORE DUP1 PUSH1 0x2B DUP2 MSTORE PUSH1 0x20 ADD PUSH32 0x4E65772061737365742070726F787920696420646F6573206E6F74206D617463 DUP2 MSTORE PUSH1 0x20 ADD PUSH1 0xA9 PUSH1 0x2 EXP PUSH11 0x341033B4BB32B71034B217 MUL DUP2 MSTORE POP SWAP1 ISZERO ISZERO PUSH2 0x335 JUMPI PUSH1 0x40 MLOAD PUSH1 0xE5 PUSH1 0x2 EXP PUSH3 0x461BCD MUL DUP2 MSTORE PUSH1 0x4 ADD PUSH2 0x188 SWAP2 SWAP1 PUSH2 0x81E JUMP JUMPDEST POP JUMPDEST PUSH1 0xFF DUP6 AND PUSH1 0x0 SWAP1 DUP2 MSTORE PUSH1 0x1 PUSH1 0x20 MSTORE PUSH1 0x40 SWAP1 DUP2 SWAP1 KECCAK256 DUP1 SLOAD PUSH1 0x1 PUSH1 0xA0 PUSH1 0x2 EXP SUB NOT AND PUSH1 0x1 PUSH1 0xA0 PUSH1 0x2 EXP SUB DUP6 AND OR SWAP1 SSTORE MLOAD PUSH32 0x27EF5F484E50F2DAF7C2D82C60FE4CE409009541176EB64095BEAC369DB1D260 SWAP1 PUSH2 0x396 SWAP1 DUP8 SWAP1 DUP8 SWAP1 DUP8 SWAP1 PUSH2 0x83F JUMP JUMPDEST PUSH1 0x40 MLOAD DUP1 SWAP2 SUB SWAP1 LOG1 POP POP POP POP POP JUMP JUMPDEST PUSH2 0x3B1 DUP5 DUP5 DUP5 DUP5 PUSH2 0x43F JUMP JUMPDEST POP POP POP POP JUMP JUMPDEST PUSH1 0x0 SLOAD PUSH1 0x1 PUSH1 0xA0 PUSH1 0x2 EXP SUB AND DUP2 JUMP JUMPDEST PUSH1 0xFF AND PUSH1 0x0 SWAP1 DUP2 MSTORE PUSH1 0x1 PUSH1 0x20 MSTORE PUSH1 0x40 SWAP1 KECCAK256 SLOAD PUSH1 0x1 PUSH1 0xA0 PUSH1 0x2 EXP SUB AND SWAP1 JUMP JUMPDEST PUSH1 0x0 SLOAD PUSH1 0x1 PUSH1 0xA0 PUSH1 0x2 EXP SUB AND CALLER EQ PUSH2 0x411 JUMPI PUSH1 0x40 MLOAD PUSH1 0xE5 PUSH1 0x2 EXP PUSH3 0x461BCD MUL DUP2 MSTORE PUSH1 0x4 ADD PUSH2 0x188 SWAP1 PUSH2 0x82F JUMP JUMPDEST PUSH1 0x1 PUSH1 0xA0 PUSH1 0x2 EXP SUB DUP2 AND ISZERO PUSH2 0x43C JUMPI PUSH1 0x0 DUP1 SLOAD PUSH1 0x1 PUSH1 0xA0 PUSH1 0x2 EXP SUB NOT AND PUSH1 0x1 PUSH1 0xA0 PUSH1 0x2 EXP SUB DUP4 AND OR SWAP1 SSTORE JUMPDEST POP JUMP JUMPDEST PUSH1 0x0 DUP1 PUSH1 0x0 DUP1 DUP5 GT ISZERO PUSH2 0x551 JUMPI DUP7 MLOAD PUSH1 0x40 DUP1 MLOAD DUP1 DUP3 ADD SWAP1 SWAP2 MSTORE PUSH1 0x1E DUP2 MSTORE PUSH32 0x4C656E677468206D7573742062652067726561746572207468616E20302E0000 PUSH1 0x20 DUP3 ADD MSTORE SWAP1 SWAP4 POP PUSH1 0x0 DUP5 GT PUSH2 0x4A9 JUMPI PUSH1 0x40 MLOAD PUSH1 0xE5 PUSH1 0x2 EXP PUSH3 0x461BCD MUL DUP2 MSTORE PUSH1 0x4 ADD PUSH2 0x188 SWAP2 SWAP1 PUSH2 0x81E JUMP JUMPDEST POP DUP7 PUSH1 0x1 DUP5 SUB DUP2 MLOAD DUP2 LT ISZERO ISZERO PUSH2 0x4BB JUMPI INVALID JUMPDEST PUSH1 0x20 SWAP2 ADD DUP2 ADD MLOAD PUSH1 0xF8 PUSH1 0x2 EXP SWAP1 DUP2 SWAP1 DIV DUP2 MUL DIV PUSH1 0xFF DUP2 AND PUSH1 0x0 SWAP1 DUP2 MSTORE PUSH1 0x1 SWAP1 SWAP3 MSTORE PUSH1 0x40 SWAP2 DUP3 SWAP1 KECCAK256 SLOAD SWAP2 MLOAD PUSH1 0xE2 PUSH1 0x2 EXP PUSH4 0x2A179679 MUL DUP2 MSTORE SWAP1 SWAP4 POP PUSH1 0x1 PUSH1 0xA0 PUSH1 0x2 EXP SUB SWAP1 SWAP2 AND SWAP2 POP DUP2 SWAP1 PUSH4 0xA85E59E4 SWAP1 PUSH2 0x51E SWAP1 DUP11 SWAP1 DUP11 SWAP1 DUP11 SWAP1 DUP11 SWAP1 PUSH1 0x4 ADD PUSH2 0x7CD JUMP JUMPDEST PUSH1 0x0 PUSH1 0x40 MLOAD DUP1 DUP4 SUB DUP2 PUSH1 0x0 DUP8 DUP1 EXTCODESIZE ISZERO DUP1 ISZERO PUSH2 0x538 JUMPI PUSH1 0x0 DUP1 REVERT JUMPDEST POP GAS CALL ISZERO DUP1 ISZERO PUSH2 0x54C JUMPI RETURNDATASIZE PUSH1 0x0 DUP1 RETURNDATACOPY RETURNDATASIZE PUSH1 0x0 REVERT JUMPDEST POP POP POP POP JUMPDEST POP POP POP POP POP POP POP JUMP JUMPDEST PUSH1 0x0 PUSH2 0x566 DUP3 CALLDATALOAD PUSH2 0x8B8 JUMP JUMPDEST SWAP4 SWAP3 POP POP POP JUMP JUMPDEST PUSH1 0x0 PUSH1 0x1F DUP3 ADD DUP4 SGT PUSH2 0x57E JUMPI PUSH1 0x0 DUP1 REVERT JUMPDEST DUP2 CALLDATALOAD PUSH2 0x591 PUSH2 0x58C DUP3 PUSH2 0x88D JUMP JUMPDEST PUSH2 0x867 JUMP JUMPDEST SWAP2 POP DUP1 DUP3 MSTORE PUSH1 0x20 DUP4 ADD PUSH1 0x20 DUP4 ADD DUP6 DUP4 DUP4 ADD GT ISZERO PUSH2 0x5AD JUMPI PUSH1 0x0 DUP1 REVERT JUMPDEST PUSH2 0x5B8 DUP4 DUP3 DUP5 PUSH2 0x8D8 JUMP JUMPDEST POP POP POP SWAP3 SWAP2 POP POP JUMP JUMPDEST PUSH1 0x0 PUSH2 0x566 DUP3 CALLDATALOAD PUSH2 0x8C4 JUMP JUMPDEST PUSH1 0x0 PUSH2 0x566 DUP3 CALLDATALOAD PUSH2 0x8C7 JUMP JUMPDEST PUSH1 0x0 PUSH2 0x566 DUP3 MLOAD PUSH2 0x8C7 JUMP JUMPDEST PUSH1 0x0 PUSH1 0x20 DUP3 DUP5 SUB SLT ISZERO PUSH2 0x5F7 JUMPI PUSH1 0x0 DUP1 REVERT JUMPDEST PUSH1 0x0 PUSH2 0x603 DUP5 DUP5 PUSH2 0x55A JUMP JUMPDEST SWAP5 SWAP4 POP POP POP POP JUMP JUMPDEST PUSH1 0x0 DUP1 PUSH1 0x0 DUP1 PUSH1 0x80 DUP6 DUP8 SUB SLT ISZERO PUSH2 0x621 JUMPI PUSH1 0x0 DUP1 REVERT JUMPDEST DUP5 CALLDATALOAD PUSH1 0x1 PUSH1 0x40 PUSH1 0x2 EXP SUB DUP2 GT ISZERO PUSH2 0x637 JUMPI PUSH1 0x0 DUP1 REVERT JUMPDEST PUSH2 0x643 DUP8 DUP3 DUP9 ADD PUSH2 0x56D JUMP JUMPDEST SWAP5 POP POP PUSH1 0x20 PUSH2 0x654 DUP8 DUP3 DUP9 ADD PUSH2 0x55A JUMP JUMPDEST SWAP4 POP POP PUSH1 0x40 PUSH2 0x665 DUP8 DUP3 DUP9 ADD PUSH2 0x55A JUMP JUMPDEST SWAP3 POP POP PUSH1 0x60 PUSH2 0x676 DUP8 DUP3 DUP9 ADD PUSH2 0x5C1 JUMP JUMPDEST SWAP2 POP POP SWAP3 SWAP6 SWAP2 SWAP5 POP SWAP3 POP JUMP JUMPDEST PUSH1 0x0 PUSH1 0x20 DUP3 DUP5 SUB SLT ISZERO PUSH2 0x694 JUMPI PUSH1 0x0 DUP1 REVERT JUMPDEST PUSH1 0x0 PUSH2 0x603 DUP5 DUP5 PUSH2 0x5CD JUMP JUMPDEST PUSH1 0x0 PUSH1 0x20 DUP3 DUP5 SUB SLT ISZERO PUSH2 0x6B2 JUMPI PUSH1 0x0 DUP1 REVERT JUMPDEST PUSH1 0x0 PUSH2 0x603 DUP5 DUP5 PUSH2 0x5D9 JUMP JUMPDEST PUSH1 0x0 DUP1 PUSH1 0x0 PUSH1 0x60 DUP5 DUP7 SUB SLT ISZERO PUSH2 0x6D3 JUMPI PUSH1 0x0 DUP1 REVERT JUMPDEST PUSH1 0x0 PUSH2 0x6DF DUP7 DUP7 PUSH2 0x5CD JUMP JUMPDEST SWAP4 POP POP PUSH1 0x20 PUSH2 0x6F0 DUP7 DUP3 DUP8 ADD PUSH2 0x55A JUMP JUMPDEST SWAP3 POP POP PUSH1 0x40 PUSH2 0x701 DUP7 DUP3 DUP8 ADD PUSH2 0x55A JUMP JUMPDEST SWAP2 POP POP SWAP3 POP SWAP3 POP SWAP3 JUMP JUMPDEST PUSH2 0x714 DUP2 PUSH2 0x8B8 JUMP JUMPDEST DUP3 MSTORE POP POP JUMP JUMPDEST PUSH1 0x0 PUSH2 0x725 DUP3 PUSH2 0x8B4 JUMP JUMPDEST DUP1 DUP5 MSTORE PUSH2 0x739 DUP2 PUSH1 0x20 DUP7 ADD PUSH1 0x20 DUP7 ADD PUSH2 0x8E4 JUMP JUMPDEST PUSH2 0x742 DUP2 PUSH2 0x910 JUMP JUMPDEST SWAP1 SWAP4 ADD PUSH1 0x20 ADD SWAP4 SWAP3 POP POP POP JUMP JUMPDEST PUSH2 0x714 DUP2 PUSH2 0x8CD JUMP JUMPDEST PUSH1 0x33 DUP2 MSTORE PUSH32 0x4F6E6C7920636F6E7472616374206F776E657220697320616C6C6F7765642074 PUSH1 0x20 DUP3 ADD MSTORE PUSH1 0x69 PUSH1 0x2 EXP PUSH19 0x379031B0B636103A3434B99036B2BA3437B217 MUL PUSH1 0x40 DUP3 ADD MSTORE PUSH1 0x60 ADD SWAP1 JUMP JUMPDEST PUSH2 0x714 DUP2 PUSH2 0x8C4 JUMP JUMPDEST PUSH2 0x714 DUP2 PUSH2 0x8C7 JUMP JUMPDEST PUSH1 0x20 DUP2 ADD PUSH2 0x7C7 DUP3 DUP5 PUSH2 0x70B JUMP JUMPDEST SWAP3 SWAP2 POP POP JUMP JUMPDEST PUSH1 0x80 DUP1 DUP3 MSTORE DUP2 ADD PUSH2 0x7DE DUP2 DUP8 PUSH2 0x71A JUMP JUMPDEST SWAP1 POP PUSH2 0x7ED PUSH1 0x20 DUP4 ADD DUP7 PUSH2 0x70B JUMP JUMPDEST PUSH2 0x7FA PUSH1 0x40 DUP4 ADD DUP6 PUSH2 0x70B JUMP JUMPDEST PUSH2 0x807 PUSH1 0x60 DUP4 ADD DUP5 PUSH2 0x7A7 JUMP JUMPDEST SWAP6 SWAP5 POP POP POP POP POP JUMP JUMPDEST PUSH1 0x20 DUP2 ADD PUSH2 0x7C7 DUP3 DUP5 PUSH2 0x74F JUMP JUMPDEST PUSH1 0x20 DUP1 DUP3 MSTORE DUP2 ADD PUSH2 0x566 DUP2 DUP5 PUSH2 0x71A JUMP JUMPDEST PUSH1 0x20 DUP1 DUP3 MSTORE DUP2 ADD PUSH2 0x7C7 DUP2 PUSH2 0x758 JUMP JUMPDEST PUSH1 0x60 DUP2 ADD PUSH2 0x84D DUP3 DUP7 PUSH2 0x7B0 JUMP JUMPDEST PUSH2 0x85A PUSH1 0x20 DUP4 ADD DUP6 PUSH2 0x70B JUMP JUMPDEST PUSH2 0x603 PUSH1 0x40 DUP4 ADD DUP5 PUSH2 0x70B JUMP JUMPDEST PUSH1 0x40 MLOAD DUP2 DUP2 ADD PUSH1 0x1 PUSH1 0x40 PUSH1 0x2 EXP SUB DUP2 GT DUP3 DUP3 LT OR ISZERO PUSH2 0x885 JUMPI PUSH1 0x0 DUP1 REVERT JUMPDEST PUSH1 0x40 MSTORE SWAP2 SWAP1 POP JUMP JUMPDEST PUSH1 0x0 PUSH1 0x1 PUSH1 0x40 PUSH1 0x2 EXP SUB DUP3 GT ISZERO PUSH2 0x8A3 JUMPI PUSH1 0x0 DUP1 REVERT JUMPDEST POP PUSH1 0x20 PUSH1 0x1F SWAP2 SWAP1 SWAP2 ADD PUSH1 0x1F NOT AND ADD SWAP1 JUMP JUMPDEST MLOAD SWAP1 JUMP JUMPDEST PUSH1 0x1 PUSH1 0xA0 PUSH1 0x2 EXP SUB AND SWAP1 JUMP JUMPDEST SWAP1 JUMP JUMPDEST PUSH1 0xFF AND SWAP1 JUMP JUMPDEST PUSH1 0x0 PUSH2 0x7C7 DUP3 PUSH2 0x8B8 JUMP JUMPDEST DUP3 DUP2 DUP4 CALLDATACOPY POP PUSH1 0x0 SWAP2 ADD MSTORE JUMP JUMPDEST PUSH1 0x0 JUMPDEST DUP4 DUP2 LT ISZERO PUSH2 0x8FF JUMPI DUP2 DUP2 ADD MLOAD DUP4 DUP3 ADD MSTORE PUSH1 0x20 ADD PUSH2 0x8E7 JUMP JUMPDEST DUP4 DUP2 GT ISZERO PUSH2 0x3B1 JUMPI POP POP PUSH1 0x0 SWAP2 ADD MSTORE JUMP JUMPDEST PUSH1 0x1F ADD PUSH1 0x1F NOT AND SWAP1 JUMP STOP LOG2 PUSH6 0x627A7A723058 KECCAK256 STOP 0x2e PUSH27 0x16AECF4BBD459CAC22F8240C256D43CBBCDB00F256BCAE77981A49 0xf6 0xa8 PUSH13 0x6578706572696D656E74616CF5 STOP CALLDATACOPY "
			}
		}
	},
	"sourceTreeHashHex": "0xa2e645046697a241b3f8b054aa04d11222a04109a1fddd4645650c91c0e6a95f",
	"compiler": {
		"name": "solc",
		"version": "soljson-v0.4.24+commit.e67f0147.js",
		"settings": {
			"optimizer": {
				"enabled": true,
				"runs": 0
			},
			"outputSelection": {
				"*": {
					"*": [
						"abi",
						"evm.bytecode.object",
						"evm.bytecode.sourceMap",
						"evm.deployedBytecode.object",
						"evm.deployedBytecode.sourceMap"
					]
				}
			}
		}
	}
}