{
	"schemaVersion": "2.0.0",
	"contractName": "TestLibAssetProxyDecoder",
	"compilerOutput": {
		"abi": [
			{
				"constant": true,
				"inputs": [
					{
						"name": "proxyData",
						"type": "bytes"
					}
				],
				"name": "publicDecodeERC721Data",
				"outputs": [
					{
						"name": "",
						"type": "uint8"
					},
					{
						"name": "",
						"type": "address"
					},
					{
						"name": "",
						"type": "uint256"
					},
					{
						"name": "",
						"type": "bytes"
					}
				],
				"payable": false,
				"stateMutability": "pure",
				"type": "function"
			},
			{
				"constant": true,
				"inputs": [
					{
						"name": "proxyData",
						"type": "bytes"
					}
				],
				"name": "publicDecodeERC20Data",
				"outputs": [
					{
						"name": "",
						"type": "uint8"
					},
					{
						"name": "",
						"type": "address"
					}
				],
				"payable": false,
				"stateMutability": "pure",
				"type": "function"
			}
		],
		"evm": {
			"bytecode": {
				"linkReferences": {},
				"object": "0x608060405234801561001057600080fd5b5061072c806100206000396000f3006080604052600436106100325763ffffffff60e060020a60003504166372c2f5278114610037578063bd27c22d14610070575b600080fd5b34801561004357600080fd5b50610057610052366004610527565b61009e565b60405161006794939291906105e5565b60405180910390f35b34801561007c57600080fd5b5061009061008b366004610527565b6100bd565b6040516100679291906105ca565b600080600060606100ae856100d2565b93509350935093509193509193565b6000806100c9836101b5565b91509150915091565b60008060006060603585511015606060405190810160405280602b81526020017f4d65746164617461206d75737420686176652061206c656e677468206f662061815260200160a960020a6a3a103632b0b9ba101a9997028152509015156101595760405160e560020a62461bcd02815260040161015091906105b9565b60405180910390fd5b5084600081518110151561016957fe5b016020015160f860020a90819004810204935061018785600161025a565b92506101948560156102d6565b91506035855111156101ae576101ab8560356102e9565b90505b9193509193565b6000808251601514606060405190810160405280602281526020017f4d65746164617461206d75737420686176652061206c656e677468206f662032815260200160f160020a611897028152509015156102255760405160e560020a62461bcd02815260040161015091906105b9565b5082600081518110151561023557fe5b016020015160f860020a90819004810204915061025383600161025a565b9050915091565b60008160140183511015606060405190810160405280602b81526020016000805160206106d3833981519152815260200160a960020a6a38bab0b6103a3790191817028152509015156102c35760405160e560020a62461bcd02815260040161015091906105b9565b50500160140151600160a060020a031690565b60006102e283836103c1565b9392505050565b606060006102f784846102d6565b905060208301925080830184511015606060405190810160405280602b81526020016000805160206106d3833981519152815260200160a960020a6a38bab0b6103a3790199917028152509015156103655760405160e560020a62461bcd02815260040161015091906105b9565b50806040519080825280601f01601f191660200182016040528015610394578160200160208202803883390190505b5091506103ba6103a383610434565b602001846103b087610434565b0160200183610437565b5092915050565b60008160200183511015606060405190810160405280602b81526020016000805160206106d3833981519152815260200160a960020a6a38bab0b6103a37901999170281525090151561042a5760405160e560020a62461bcd02815260040161015091906105b9565b5050016020015190565b90565b801515610443576104ce565b82821415610450576104ce565b6020601f82010460208206600081111561046b576001820391505b6000602083025b8082101561048d578186015182880152602082019150610472565b60008311156104c9578260200360080260020a8287015181828204028560080260020a858b0151818282020480841780898f0152505050505050505b505050505b505050565b6000601f820183136104e457600080fd5b81356104f76104f28261064f565b610629565b9150808252602083016020830185838301111561051357600080fd5b61051e83828461068c565b50505092915050565b60006020828403121561053957600080fd5b81356001604060020a0381111561054f57600080fd5b61055b848285016104d3565b949350505050565b61056c8161067a565b82525050565b600061057d82610676565b808452610591816020860160208601610698565b61059a816106c8565b9093016020019392505050565b61056c81610434565b61056c81610686565b602080825281016102e28184610572565b604081016105d882856105b0565b6102e26020830184610563565b608081016105f382876105b0565b6106006020830186610563565b61060d60408301856105a7565b818103606083015261061f8184610572565b9695505050505050565b6040518181016001604060020a038111828210171561064757600080fd5b604052919050565b60006001604060020a0382111561066557600080fd5b506020601f91909101601f19160190565b5190565b600160a060020a031690565b60ff1690565b82818337506000910152565b60005b838110156106b357818101518382015260200161069b565b838111156106c2576000848401525b50505050565b601f01601f19169056004c656e677468206d7573742062652067726561746572207468616e206f722065a265627a7a72305820a504f73334eb65aa84c6f007271f361f1d9710a308c4839ede8ae346e34b6b906c6578706572696d656e74616cf50037",
				"opcodes": "PUSH1 0x80 PUSH1 0x40 MSTORE CALLVALUE DUP1 ISZERO PUSH2 0x10 JUMPI PUSH1 0x0 DUP1 REVERT JUMPDEST POP PUSH2 0x72C DUP1 PUSH2 0x20 PUSH1 0x0 CODECOPY PUSH1 0x0 RETURN STOP PUSH1 0x80 PUSH1 0x40 MSTORE PUSH1 0x4 CALLDATASIZE LT PUSH2 0x32 JUMPI PUSH4 0xFFFFFFFF PUSH1 0xE0 PUSH1 0x2 EXP PUSH1 0x0 CALLDATALOAD DIV AND PUSH4 0x72C2F527 DUP2 EQ PUSH2 0x37 JUMPI DUP1 PUSH4 0xBD27C22D EQ PUSH2 0x70 JUMPI JUMPDEST PUSH1 0x0 DUP1 REVERT JUMPDEST CALLVALUE DUP1 ISZERO PUSH2 0x43 JUMPI PUSH1 0x0 DUP1 REVERT JUMPDEST POP PUSH2 0x57 PUSH2 0x52 CALLDATASIZE PUSH1 0x4 PUSH2 0x527 JUMP JUMPDEST PUSH2 0x9E JUMP JUMPDEST PUSH1 0x40 MLOAD PUSH2 0x67 SWAP5 SWAP4 SWAP3 SWAP2 SWAP1 PUSH2 0x5E5 JUMP JUMPDEST PUSH1 0x40 MLOAD DUP1 SWAP2 SUB SWAP1 RETURN JUMPDEST CALLVALUE DUP1 ISZERO PUSH2 0x7C JUMPI PUSH1 0x0 DUP1 REVERT JUMPDEST POP PUSH2 0x90 PUSH2 0x8B CALLDATASIZE PUSH1 0x4 PUSH2 0x527 JUMP JUMPDEST PUSH2 0xBD JUMP JUMPDEST PUSH1 0x40 MLOAD PUSH2 0x67 SWAP3 SWAP2 SWAP1 PUSH2 0x5CA JUMP JUMPDEST PUSH1 0x0 DUP1 PUSH1 0x0 PUSH1 0x60 PUSH2 0xAE DUP6 PUSH2 0xD2 JUMP JUMPDEST SWAP4 POP SWAP4 POP SWAP4 POP SWAP4 POP SWAP2 SWAP4 POP SWAP2 SWAP4 JUMP JUMPDEST PUSH1 0x0 DUP1 PUSH2 0xC9 DUP4 PUSH2 0x1B5 JUMP JUMPDEST SWAP2 POP SWAP2 POP SWAP2 POP SWAP2 JUMP JUMPDEST PUSH1 0x0 DUP1 PUSH1 0x0 PUSH1 0x60 PUSH1 0x35 DUP6 MLOAD LT ISZERO PUSH1 0x60 PUSH1 0x40 MLOAD SWAP1 DUP2 ADD PUSH1 0x40 MSTORE DUP1 PUSH1 0x2B DUP2 MSTORE PUSH1 0x20 ADD PUSH32 0x4D65746164617461206D75737420686176652061206C656E677468206F662061 DUP2 MSTORE PUSH1 0x20 ADD PUSH1 0xA9 PUSH1 0x2 EXP PUSH11 0x3A103632B0B9BA101A9997 MUL DUP2 MSTORE POP SWAP1 ISZERO ISZERO PUSH2 0x159 JUMPI PUSH1 0x40 MLOAD PUSH1 0xE5 PUSH1 0x2 EXP PUSH3 0x461BCD MUL DUP2 MSTORE PUSH1 0x4 ADD PUSH2 0x150 SWAP2 SWAP1 PUSH2 0x5B9 JUMP JUMPDEST PUSH1 0x40 MLOAD DUP1 SWAP2 SUB SWAP1 REVERT JUMPDEST POP DUP5 PUSH1 0x0 DUP2 MLOAD DUP2 LT ISZERO ISZERO PUSH2 0x169 JUMPI INVALID JUMPDEST ADD PUSH1 0x20 ADD MLOAD PUSH1 0xF8 PUSH1 0x2 EXP SWAP1 DUP2 SWAP1 DIV DUP2 MUL DIV SWAP4 POP PUSH2 0x187 DUP6 PUSH1 0x1 PUSH2 0x25A JUMP JUMPDEST SWAP3 POP PUSH2 0x194 DUP6 PUSH1 0x15 PUSH2 0x2D6 JUMP JUMPDEST SWAP2 POP PUSH1 0x35 DUP6 MLOAD GT ISZERO PUSH2 0x1AE JUMPI PUSH2 0x1AB DUP6 PUSH1 0x35 PUSH2 0x2E9 JUMP JUMPDEST SWAP1 POP JUMPDEST SWAP2 SWAP4 POP SWAP2 SWAP4 JUMP JUMPDEST PUSH1 0x0 DUP1 DUP3 MLOAD PUSH1 0x15 EQ PUSH1 0x60 PUSH1 0x40 MLOAD SWAP1 DUP2 ADD PUSH1 0x40 MSTORE DUP1 PUSH1 0x22 DUP2 MSTORE PUSH1 0x20 ADD PUSH32 0x4D65746164617461206D75737420686176652061206C656E677468206F662032 DUP2 MSTORE PUSH1 0x20 ADD PUSH1 0xF1 PUSH1 0x2 EXP PUSH2 0x1897 MUL DUP2 MSTORE POP SWAP1 ISZERO ISZERO PUSH2 0x225 JUMPI PUSH1 0x40 MLOAD PUSH1 0xE5 PUSH1 0x2 EXP PUSH3 0x461BCD MUL DUP2 MSTORE PUSH1 0x4 ADD PUSH2 0x150 SWAP2 SWAP1 PUSH2 0x5B9 JUMP JUMPDEST POP DUP3 PUSH1 0x0 DUP2 MLOAD DUP2 LT ISZERO ISZERO PUSH2 0x235 JUMPI INVALID JUMPDEST ADD PUSH1 0x20 ADD MLOAD PUSH1 0xF8 PUSH1 0x2 EXP SWAP1 DUP2 SWAP1 DIV DUP2 MUL DIV SWAP2 POP PUSH2 0x253 DUP4 PUSH1 0x1 PUSH2 0x25A JUMP JUMPDEST SWAP1 POP SWAP2 POP SWAP2 JUMP JUMPDEST PUSH1 0x0 DUP2 PUSH1 0x14 ADD DUP4 MLOAD LT ISZERO PUSH1 0x60 PUSH1 0x40 MLOAD SWAP1 DUP2 ADD PUSH1 0x40 MSTORE DUP1 PUSH1 0x2B DUP2 MSTORE PUSH1 0x20 ADD PUSH1 0x0 DUP1 MLOAD PUSH1 0x20 PUSH2 0x6D3 DUP4 CODECOPY DUP2 MLOAD SWAP2 MSTORE DUP2 MSTORE PUSH1 0x20 ADD PUSH1 0xA9 PUSH1 0x2 EXP PUSH11 0x38BAB0B6103A3790191817 MUL DUP2 MSTORE POP SWAP1 ISZERO ISZERO PUSH2 0x2C3 JUMPI PUSH1 0x40 MLOAD PUSH1 0xE5 PUSH1 0x2 EXP PUSH3 0x461BCD MUL DUP2 MSTORE PUSH1 0x4 ADD PUSH2 0x150 SWAP2 SWAP1 PUSH2 0x5B9 JUMP JUMPDEST POP POP ADD PUSH1 0x14 ADD MLOAD PUSH1 0x1 PUSH1 0xA0 PUSH1 0x2 EXP SUB AND SWAP1 JUMP JUMPDEST PUSH1 0x0 PUSH2 0x2E2 DUP4 DUP4 PUSH2 0x3C1 JUMP JUMPDEST SWAP4 SWAP3 POP POP POP JUMP JUMPDEST PUSH1 0x60 PUSH1 0x0 PUSH2 0x2F7 DUP5 DUP5 PUSH2 0x2D6 JUMP JUMPDEST SWAP1 POP PUSH1 0x20 DUP4 ADD SWAP3 POP DUP1 DUP4 ADD DUP5 MLOAD LT ISZERO PUSH1 0x60 PUSH1 0x40 MLOAD SWAP1 DUP2 ADD PUSH1 0x40 MSTORE DUP1 PUSH1 0x2B DUP2 MSTORE PUSH1 0x20 ADD PUSH1 0x0 DUP1 MLOAD PUSH1 0x20 PUSH2 0x6D3 DUP4 CODECOPY DUP2 MLOAD SWAP2 MSTORE DUP2 MSTORE PUSH1 0x20 ADD PUSH1 0xA9 PUSH1 0x2 EXP PUSH11 0x38BAB0B6103A3790199917 MUL DUP2 MSTORE POP SWAP1 ISZERO ISZERO PUSH2 0x365 JUMPI PUSH1 0x40 MLOAD PUSH1 0xE5 PUSH1 0x2 EXP PUSH3 0x461BCD MUL DUP2 MSTORE PUSH1 0x4 ADD PUSH2 0x150 SWAP2 SWAP1 PUSH2 0x5B9 JUMP JUMPDEST POP DUP1 PUSH1 0x40 MLOAD SWAP1 DUP1 DUP3 MSTORE DUP1 PUSH1 0x1F ADD PUSH1 0x1F NOT AND PUSH1 0x20 ADD DUP3 ADD PUSH1 0x40 MSTORE DUP1 ISZERO PUSH2 0x394 JUMPI DUP2 PUSH1 0x20 ADD PUSH1 0x20 DUP3 MUL DUP1 CODESIZE DUP4 CODECOPY ADD SWAP1 POP JUMPDEST POP SWAP2 POP PUSH2 0x3BA PUSH2 0x3A3 DUP4 PUSH2 0x434 JUMP JUMPDEST PUSH1 0x20 ADD DUP5 PUSH2 0x3B0 DUP8 PUSH2 0x434 JUMP JUMPDEST ADD PUSH1 0x20 ADD DUP4 PUSH2 0x437 JUMP JUMPDEST POP SWAP3 SWAP2 POP POP JUMP JUMPDEST PUSH1 0x0 DUP2 PUSH1 0x20 ADD DUP4 MLOAD LT ISZERO PUSH1 0x60 PUSH1 0x40 MLOAD SWAP1 DUP2 ADD PUSH1 0x40 MSTORE DUP1 PUSH1 0x2B DUP2 MSTORE PUSH1 0x20 ADD PUSH1 0x0 DUP1 MLOAD PUSH1 0x20 PUSH2 0x6D3 DUP4 CODECOPY DUP2 MLOAD SWAP2 MSTORE DUP2 MSTORE PUSH1 0x20 ADD PUSH1 0xA9 PUSH1 0x2 EXP PUSH11 0x38BAB0B6103A3790199917 MUL DUP2 MSTORE POP SWAP1 ISZERO ISZERO PUSH2 0x42A JUMPI PUSH1 0x40 MLOAD PUSH1 0xE5 PUSH1 0x2 EXP PUSH3 0x461BCD MUL DUP2 MSTORE PUSH1 0x4 ADD PUSH2 0x150 SWAP2 SWAP1 PUSH2 0x5B9 JUMP JUMPDEST POP POP ADD PUSH1 0x20 ADD MLOAD SWAP1 JUMP JUMPDEST SWAP1 JUMP JUMPDEST DUP1 ISZERO ISZERO PUSH2 0x443 JUMPI PUSH2 0x4CE JUMP JUMPDEST DUP3 DUP3 EQ ISZERO PUSH2 0x450 JUMPI PUSH2 0x4CE JUMP JUMPDEST PUSH1 0x20 PUSH1 0x1F DUP3 ADD DIV PUSH1 0x20 DUP3 MOD PUSH1 0x0 DUP2 GT ISZERO PUSH2 0x46B JUMPI PUSH1 0x1 DUP3 SUB SWAP2 POP JUMPDEST PUSH1 0x0 PUSH1 0x20 DUP4 MUL JUMPDEST DUP1 DUP3 LT ISZERO PUSH2 0x48D JUMPI DUP2 DUP7 ADD MLOAD DUP3 DUP9 ADD MSTORE PUSH1 0x20 DUP3 ADD SWAP2 POP PUSH2 0x472 JUMP JUMPDEST PUSH1 0x0 DUP4 GT ISZERO PUSH2 0x4C9 JUMPI DUP3 PUSH1 0x20 SUB PUSH1 0x8 MUL PUSH1 0x2 EXP DUP3 DUP8 ADD MLOAD DUP2 DUP3 DUP3 DIV MUL DUP6 PUSH1 0x8 MUL PUSH1 0x2 EXP DUP6 DUP12 ADD MLOAD DUP2 DUP3 DUP3 MUL DIV DUP1 DUP5 OR DUP1 DUP10 DUP16 ADD MSTORE POP POP POP POP POP POP POP JUMPDEST POP POP POP POP JUMPDEST POP POP POP JUMP JUMPDEST PUSH1 0x0 PUSH1 0x1F DUP3 ADD DUP4 SGT PUSH2 0x4E4 JUMPI PUSH1 0x0 DUP1 REVERT JUMPDEST DUP2 CALLDATALOAD PUSH2 0x4F7 PUSH2 0x4F2 DUP3 PUSH2 0x64F JUMP JUMPDEST PUSH2 0x629 JUMP JUMPDEST SWAP2 POP DUP1 DUP3 MSTORE PUSH1 0x20 DUP4 ADD PUSH1 0x20 DUP4 ADD DUP6 DUP4 DUP4 ADD GT ISZERO PUSH2 0x513 JUMPI PUSH1 0x0 DUP1 REVERT JUMPDEST PUSH2 0x51E DUP4 DUP3 DUP5 PUSH2 0x68C JUMP JUMPDEST POP POP POP SWAP3 SWAP2 POP POP JUMP JUMPDEST PUSH1 0x0 PUSH1 0x20 DUP3 DUP5 SUB SLT ISZERO PUSH2 0x539 JUMPI PUSH1 0x0 DUP1 REVERT JUMPDEST DUP2 CALLDATALOAD PUSH1 0x1 PUSH1 0x40 PUSH1 0x2 EXP SUB DUP2 GT ISZERO PUSH2 0x54F JUMPI PUSH1 0x0 DUP1 REVERT JUMPDEST PUSH2 0x55B DUP5 DUP3 DUP6 ADD PUSH2 0x4D3 JUMP JUMPDEST SWAP5 SWAP4 POP POP POP POP JUMP JUMPDEST PUSH2 0x56C DUP2 PUSH2 0x67A JUMP JUMPDEST DUP3 MSTORE POP POP JUMP JUMPDEST PUSH1 0x0 PUSH2 0x57D DUP3 PUSH2 0x676 JUMP JUMPDEST DUP1 DUP5 MSTORE PUSH2 0x591 DUP2 PUSH1 0x20 DUP7 ADD PUSH1 0x20 DUP7 ADD PUSH2 0x698 JUMP JUMPDEST PUSH2 0x59A DUP2 PUSH2 0x6C8 JUMP JUMPDEST SWAP1 SWAP4 ADD PUSH1 0x20 ADD SWAP4 SWAP3 POP POP POP JUMP JUMPDEST PUSH2 0x56C DUP2 PUSH2 0x434 JUMP JUMPDEST PUSH2 0x56C DUP2 PUSH2 0x686 JUMP JUMPDEST PUSH1 0x20 DUP1 DUP3 MSTORE DUP2 ADD PUSH2 0x2E2 DUP2 DUP5 PUSH2 0x572 JUMP JUMPDEST PUSH1 0x40 DUP2 ADD PUSH2 0x5D8 DUP3 DUP6 PUSH2 0x5B0 JUMP JUMPDEST PUSH2 0x2E2 PUSH1 0x20 DUP4 ADD DUP5 PUSH2 0x563 JUMP JUMPDEST PUSH1 0x80 DUP2 ADD PUSH2 0x5F3 DUP3 DUP8 PUSH2 0x5B0 JUMP JUMPDEST PUSH2 0x600 PUSH1 0x20 DUP4 ADD DUP7 PUSH2 0x563 JUMP JUMPDEST PUSH2 0x60D PUSH1 0x40 DUP4 ADD DUP6 PUSH2 0x5A7 JUMP JUMPDEST DUP2 DUP2 SUB PUSH1 0x60 DUP4 ADD MSTORE PUSH2 0x61F DUP2 DUP5 PUSH2 0x572 JUMP JUMPDEST SWAP7 SWAP6 POP POP POP POP POP POP JUMP JUMPDEST PUSH1 0x40 MLOAD DUP2 DUP2 ADD PUSH1 0x1 PUSH1 0x40 PUSH1 0x2 EXP SUB DUP2 GT DUP3 DUP3 LT OR ISZERO PUSH2 0x647 JUMPI PUSH1 0x0 DUP1 REVERT JUMPDEST PUSH1 0x40 MSTORE SWAP2 SWAP1 POP JUMP JUMPDEST PUSH1 0x0 PUSH1 0x1 PUSH1 0x40 PUSH1 0x2 EXP SUB DUP3 GT ISZERO PUSH2 0x665 JUMPI PUSH1 0x0 DUP1 REVERT JUMPDEST POP PUSH1 0x20 PUSH1 0x1F SWAP2 SWAP1 SWAP2 ADD PUSH1 0x1F NOT AND ADD SWAP1 JUMP JUMPDEST MLOAD SWAP1 JUMP JUMPDEST PUSH1 0x1 PUSH1 0xA0 PUSH1 0x2 EXP SUB AND SWAP1 JUMP JUMPDEST PUSH1 0xFF AND SWAP1 JUMP JUMPDEST DUP3 DUP2 DUP4 CALLDATACOPY POP PUSH1 0x0 SWAP2 ADD MSTORE JUMP JUMPDEST PUSH1 0x0 JUMPDEST DUP4 DUP2 LT ISZERO PUSH2 0x6B3 JUMPI DUP2 DUP2 ADD MLOAD DUP4 DUP3 ADD MSTORE PUSH1 0x20 ADD PUSH2 0x69B JUMP JUMPDEST DUP4 DUP2 GT ISZERO PUSH2 0x6C2 JUMPI PUSH1 0x0 DUP5 DUP5 ADD MSTORE JUMPDEST POP POP POP POP JUMP JUMPDEST PUSH1 0x1F ADD PUSH1 0x1F NOT AND SWAP1 JUMP STOP 0x4c PUSH6 0x6E677468206D PUSH22 0x73742062652067726561746572207468616E206F7220 PUSH6 0xA265627A7A72 ADDRESS PC KECCAK256 0xa5 DIV 0xf7 CALLER CALLVALUE 0xeb PUSH6 0xAA84C6F00727 0x1f CALLDATASIZE 0x1f SAR SWAP8 LT LOG3 ADDMOD 0xc4 DUP4 SWAP15 0xde DUP11 0xe3 0x46 0xe3 0x4b PUSH12 0x906C6578706572696D656E74 PUSH2 0x6CF5 STOP CALLDATACOPY "
			}
		}
	},
	"sourceTreeHashHex": "0x090119618f1378e3f34fb55f7de6c5d8a7d4c3060d9c519df1d1e9886ab02f6f",
	"compiler": {
		"name": "solc",
		"version": "0.4.24",
		"settings": {
			"optimizer": {
				"enabled": true,
				"runs": 0
			},
			"outputSelection": {
				"*": {
					"*": [
						"abi",
						"evm.bytecode.object",
						"evm.bytecode.sourceMap",
						"evm.deployedBytecode.object",
						"evm.deployedBytecode.sourceMap"
					]
				}
			}
		}
	}
}