{
	"schemaVersion": "2.0.0",
	"contractName": "TestAssetProxyDispatcher",
	"compilerOutput": {
		"abi": [
			{
				"constant": true,
				"inputs": [
					{
						"name": "",
						"type": "uint8"
					}
				],
				"name": "assetProxies",
				"outputs": [
					{
						"name": "",
						"type": "address"
					}
				],
				"payable": false,
				"stateMutability": "view",
				"type": "function"
			},
			{
				"constant": false,
				"inputs": [
					{
						"name": "assetProxyId",
						"type": "uint8"
					},
					{
						"name": "newAssetProxy",
						"type": "address"
					},
					{
						"name": "oldAssetProxy",
						"type": "address"
					}
				],
				"name": "registerAssetProxy",
				"outputs": [],
				"payable": false,
				"stateMutability": "nonpayable",
				"type": "function"
			},
			{
				"constant": false,
				"inputs": [
					{
						"name": "assetMetadata",
						"type": "bytes"
					},
					{
						"name": "from",
						"type": "address"
					},
					{
						"name": "to",
						"type": "address"
					},
					{
						"name": "amount",
						"type": "uint256"
					}
				],
				"name": "publicDispatchTransferFrom",
				"outputs": [],
				"payable": false,
				"stateMutability": "nonpayable",
				"type": "function"
			},
			{
				"constant": true,
				"inputs": [],
				"name": "owner",
				"outputs": [
					{
						"name": "",
						"type": "address"
					}
				],
				"payable": false,
				"stateMutability": "view",
				"type": "function"
			},
			{
				"constant": true,
				"inputs": [
					{
						"name": "assetProxyId",
						"type": "uint8"
					}
				],
				"name": "getAssetProxy",
				"outputs": [
					{
						"name": "",
						"type": "address"
					}
				],
				"payable": false,
				"stateMutability": "view",
				"type": "function"
			},
			{
				"constant": false,
				"inputs": [
					{
						"name": "newOwner",
						"type": "address"
					}
				],
				"name": "transferOwnership",
				"outputs": [],
				"payable": false,
				"stateMutability": "nonpayable",
				"type": "function"
			},
			{
				"anonymous": false,
				"inputs": [
					{
						"indexed": false,
						"name": "id",
						"type": "uint8"
					},
					{
						"indexed": false,
						"name": "newAssetProxy",
						"type": "address"
					},
					{
						"indexed": false,
						"name": "oldAssetProxy",
						"type": "address"
					}
				],
				"name": "AssetProxySet",
				"type": "event"
			},
			{
				"anonymous": false,
				"inputs": [
					{
						"indexed": true,
						"name": "errorId",
						"type": "uint8"
					},
					{
						"indexed": true,
						"name": "orderHash",
						"type": "bytes32"
					}
				],
				"name": "ExchangeError",
				"type": "event"
			}
		],
		"evm": {
			"bytecode": {
				"linkReferences": {},
				"object": "0x608060405260008054600160a060020a033316600160a060020a03199091161790556109f0806100306000396000f3006080604052600436106100775763ffffffff7c010000000000000000000000000000000000000000000000000000000060003504166338077164811461007c5780635c78d0c7146100b2578063889b6d8d146100d45780638da5cb5b146100f457806392c1421e14610116578063f2fde38b14610136575b600080fd5b34801561008857600080fd5b5061009c610097366004610715565b610156565b6040516100a991906108aa565b60405180910390f35b3480156100be57600080fd5b506100d26100cd366004610751565b610171565b005b3480156100e057600080fd5b506100d26100ef36600461069d565b6103fa565b34801561010057600080fd5b5061010961040c565b6040516100a99190610853565b34801561012257600080fd5b50610109610131366004610715565b61041b565b34801561014257600080fd5b506100d2610151366004610677565b610439565b600160205260009081526040902054600160a060020a031681565b60008054819033600160a060020a039081169116146101ae5760405160e560020a62461bcd0281526004016101a5906108c9565b60405180910390fd5b60ff8516600090815260016020908152604091829020548251606081018452603781527f4f6c642061737365742070726f787920646f6573206e6f74206d617463682061928101929092527f737365742070726f787920617420676976656e2069642e0000000000000000009282019290925290600160a060020a038581169116146102505760405160e560020a62461bcd0281526004016101a591906108b8565b50839150600160a060020a0382161561037f5781600160a060020a031663ae25532e6040518163ffffffff167c0100000000000000000000000000000000000000000000000000000000028152600401602060405180830381600087803b1580156102ba57600080fd5b505af11580156102ce573d6000803e3d6000fd5b505050506040513d601f19601f820116820180604052506102f29190810190610733565b90508460ff168160ff1614606060405190810160405280602b81526020017f4e65772061737365742070726f787920696420646f6573206e6f74206d61746381526020017f6820676976656e2069642e00000000000000000000000000000000000000000081525090151561037d5760405160e560020a62461bcd0281526004016101a591906108b8565b505b60ff851660009081526001602052604090819020805473ffffffffffffffffffffffffffffffffffffffff1916600160a060020a038516179055517f27ef5f484e50f2daf7c2d82c60fe4ce409009541176eb64095beac369db1d260906103eb908790879087906108d9565b60405180910390a15050505050565b610406848484846104a5565b50505050565b600054600160a060020a031681565b60ff16600090815260016020526040902054600160a060020a031690565b60005433600160a060020a0390811691161461046a5760405160e560020a62461bcd0281526004016101a5906108c9565b600160a060020a038116156104a2576000805473ffffffffffffffffffffffffffffffffffffffff1916600160a060020a0383161790555b50565b60008060008311156105e457855160408051808201909152601e81527f4c656e677468206d7573742062652067726561746572207468616e20302e00006020820152906001111561050c5760405160e560020a62461bcd0281526004016101a591906108b8565b5085600081518110151561051c57fe5b602091018101517f01000000000000000000000000000000000000000000000000000000000000009081900481020460ff8116600090815260019092526040918290205491517fa85e59e4000000000000000000000000000000000000000000000000000000008152909350600160a060020a039091169150819063a85e59e4906105b1908990899089908990600401610867565b600060405180830381600087803b1580156105cb57600080fd5b505af11580156105df573d6000803e3d6000fd5b505050505b505050505050565b60006105f88235610954565b9392505050565b6000601f8201831361061057600080fd5b813561062361061e82610928565b610901565b9150808252602083016020830185838301111561063f57600080fd5b61064a838284610974565b50505092915050565b60006105f88235610960565b60006105f88235610963565b60006105f88251610963565b60006020828403121561068957600080fd5b600061069584846105ec565b949350505050565b600080600080608085870312156106b357600080fd5b843567ffffffffffffffff8111156106ca57600080fd5b6106d6878288016105ff565b94505060206106e7878288016105ec565b93505060406106f8878288016105ec565b925050606061070987828801610653565b91505092959194509250565b60006020828403121561072757600080fd5b6000610695848461065f565b60006020828403121561074557600080fd5b6000610695848461066b565b60008060006060848603121561076657600080fd5b6000610772868661065f565b9350506020610783868287016105ec565b9250506040610794868287016105ec565b9150509250925092565b6107a781610954565b82525050565b60006107b882610950565b8084526107cc816020860160208601610980565b6107d5816109ac565b9093016020019392505050565b6107a781610969565b603381527f4f6e6c7920636f6e7472616374206f776e657220697320616c6c6f776564207460208201527f6f2063616c6c2074686973206d6574686f642e00000000000000000000000000604082015260600190565b6107a781610960565b6107a781610963565b60208101610861828461079e565b92915050565b6080808252810161087881876107ad565b9050610887602083018661079e565b610894604083018561079e565b6108a16060830184610841565b95945050505050565b6020810161086182846107e2565b602080825281016105f881846107ad565b60208082528101610861816107eb565b606081016108e7828661084a565b6108f4602083018561079e565b610695604083018461079e565b60405181810167ffffffffffffffff8111828210171561092057600080fd5b604052919050565b600067ffffffffffffffff82111561093f57600080fd5b506020601f91909101601f19160190565b5190565b600160a060020a031690565b90565b60ff1690565b600061086182610954565b82818337506000910152565b60005b8381101561099b578181015183820152602001610983565b838111156104065750506000910152565b601f01601f1916905600a265627a7a7230582021508317d95b4f5cfac8fe1e90b2641f767cfaf033da09b914942f838c8979346c6578706572696d656e74616cf50037",
				"opcodes": "PUSH1 0x80 PUSH1 0x40 MSTORE PUSH1 0x0 DUP1 SLOAD PUSH1 0x1 PUSH1 0xA0 PUSH1 0x2 EXP SUB CALLER AND PUSH1 0x1 PUSH1 0xA0 PUSH1 0x2 EXP SUB NOT SWAP1 SWAP2 AND OR SWAP1 SSTORE PUSH2 0x9F0 DUP1 PUSH2 0x30 PUSH1 0x0 CODECOPY PUSH1 0x0 RETURN STOP PUSH1 0x80 PUSH1 0x40 MSTORE PUSH1 0x4 CALLDATASIZE LT PUSH2 0x77 JUMPI PUSH4 0xFFFFFFFF PUSH29 0x100000000000000000000000000000000000000000000000000000000 PUSH1 0x0 CALLDATALOAD DIV AND PUSH4 0x38077164 DUP2 EQ PUSH2 0x7C JUMPI DUP1 PUSH4 0x5C78D0C7 EQ PUSH2 0xB2 JUMPI DUP1 PUSH4 0x889B6D8D EQ PUSH2 0xD4 JUMPI DUP1 PUSH4 0x8DA5CB5B EQ PUSH2 0xF4 JUMPI DUP1 PUSH4 0x92C1421E EQ PUSH2 0x116 JUMPI DUP1 PUSH4 0xF2FDE38B EQ PUSH2 0x136 JUMPI JUMPDEST PUSH1 0x0 DUP1 REVERT JUMPDEST CALLVALUE DUP1 ISZERO PUSH2 0x88 JUMPI PUSH1 0x0 DUP1 REVERT JUMPDEST POP PUSH2 0x9C PUSH2 0x97 CALLDATASIZE PUSH1 0x4 PUSH2 0x715 JUMP JUMPDEST PUSH2 0x156 JUMP JUMPDEST PUSH1 0x40 MLOAD PUSH2 0xA9 SWAP2 SWAP1 PUSH2 0x8AA JUMP JUMPDEST PUSH1 0x40 MLOAD DUP1 SWAP2 SUB SWAP1 RETURN JUMPDEST CALLVALUE DUP1 ISZERO PUSH2 0xBE JUMPI PUSH1 0x0 DUP1 REVERT JUMPDEST POP PUSH2 0xD2 PUSH2 0xCD CALLDATASIZE PUSH1 0x4 PUSH2 0x751 JUMP JUMPDEST PUSH2 0x171 JUMP JUMPDEST STOP JUMPDEST CALLVALUE DUP1 ISZERO PUSH2 0xE0 JUMPI PUSH1 0x0 DUP1 REVERT JUMPDEST POP PUSH2 0xD2 PUSH2 0xEF CALLDATASIZE PUSH1 0x4 PUSH2 0x69D JUMP JUMPDEST PUSH2 0x3FA JUMP JUMPDEST CALLVALUE DUP1 ISZERO PUSH2 0x100 JUMPI PUSH1 0x0 DUP1 REVERT JUMPDEST POP PUSH2 0x109 PUSH2 0x40C JUMP JUMPDEST PUSH1 0x40 MLOAD PUSH2 0xA9 SWAP2 SWAP1 PUSH2 0x853 JUMP JUMPDEST CALLVALUE DUP1 ISZERO PUSH2 0x122 JUMPI PUSH1 0x0 DUP1 REVERT JUMPDEST POP PUSH2 0x109 PUSH2 0x131 CALLDATASIZE PUSH1 0x4 PUSH2 0x715 JUMP JUMPDEST PUSH2 0x41B JUMP JUMPDEST CALLVALUE DUP1 ISZERO PUSH2 0x142 JUMPI PUSH1 0x0 DUP1 REVERT JUMPDEST POP PUSH2 0xD2 PUSH2 0x151 CALLDATASIZE PUSH1 0x4 PUSH2 0x677 JUMP JUMPDEST PUSH2 0x439 JUMP JUMPDEST PUSH1 0x1 PUSH1 0x20 MSTORE PUSH1 0x0 SWAP1 DUP2 MSTORE PUSH1 0x40 SWAP1 KECCAK256 SLOAD PUSH1 0x1 PUSH1 0xA0 PUSH1 0x2 EXP SUB AND DUP2 JUMP JUMPDEST PUSH1 0x0 DUP1 SLOAD DUP2 SWAP1 CALLER PUSH1 0x1 PUSH1 0xA0 PUSH1 0x2 EXP SUB SWAP1 DUP2 AND SWAP2 AND EQ PUSH2 0x1AE JUMPI PUSH1 0x40 MLOAD PUSH1 0xE5 PUSH1 0x2 EXP PUSH3 0x461BCD MUL DUP2 MSTORE PUSH1 0x4 ADD PUSH2 0x1A5 SWAP1 PUSH2 0x8C9 JUMP JUMPDEST PUSH1 0x40 MLOAD DUP1 SWAP2 SUB SWAP1 REVERT JUMPDEST PUSH1 0xFF DUP6 AND PUSH1 0x0 SWAP1 DUP2 MSTORE PUSH1 0x1 PUSH1 0x20 SWAP1 DUP2 MSTORE PUSH1 0x40 SWAP2 DUP3 SWAP1 KECCAK256 SLOAD DUP3 MLOAD PUSH1 0x60 DUP2 ADD DUP5 MSTORE PUSH1 0x37 DUP2 MSTORE PUSH32 0x4F6C642061737365742070726F787920646F6573206E6F74206D617463682061 SWAP3 DUP2 ADD SWAP3 SWAP1 SWAP3 MSTORE PUSH32 0x737365742070726F787920617420676976656E2069642E000000000000000000 SWAP3 DUP3 ADD SWAP3 SWAP1 SWAP3 MSTORE SWAP1 PUSH1 0x1 PUSH1 0xA0 PUSH1 0x2 EXP SUB DUP6 DUP2 AND SWAP2 AND EQ PUSH2 0x250 JUMPI PUSH1 0x40 MLOAD PUSH1 0xE5 PUSH1 0x2 EXP PUSH3 0x461BCD MUL DUP2 MSTORE PUSH1 0x4 ADD PUSH2 0x1A5 SWAP2 SWAP1 PUSH2 0x8B8 JUMP JUMPDEST POP DUP4 SWAP2 POP PUSH1 0x1 PUSH1 0xA0 PUSH1 0x2 EXP SUB DUP3 AND ISZERO PUSH2 0x37F JUMPI DUP2 PUSH1 0x1 PUSH1 0xA0 PUSH1 0x2 EXP SUB AND PUSH4 0xAE25532E PUSH1 0x40 MLOAD DUP2 PUSH4 0xFFFFFFFF AND PUSH29 0x100000000000000000000000000000000000000000000000000000000 MUL DUP2 MSTORE PUSH1 0x4 ADD PUSH1 0x20 PUSH1 0x40 MLOAD DUP1 DUP4 SUB DUP2 PUSH1 0x0 DUP8 DUP1 EXTCODESIZE ISZERO DUP1 ISZERO PUSH2 0x2BA JUMPI PUSH1 0x0 DUP1 REVERT JUMPDEST POP GAS CALL ISZERO DUP1 ISZERO PUSH2 0x2CE JUMPI RETURNDATASIZE PUSH1 0x0 DUP1 RETURNDATACOPY RETURNDATASIZE PUSH1 0x0 REVERT JUMPDEST POP POP POP POP PUSH1 0x40 MLOAD RETURNDATASIZE PUSH1 0x1F NOT PUSH1 0x1F DUP3 ADD AND DUP3 ADD DUP1 PUSH1 0x40 MSTORE POP PUSH2 0x2F2 SWAP2 SWAP1 DUP2 ADD SWAP1 PUSH2 0x733 JUMP JUMPDEST SWAP1 POP DUP5 PUSH1 0xFF AND DUP2 PUSH1 0xFF AND EQ PUSH1 0x60 PUSH1 0x40 MLOAD SWAP1 DUP2 ADD PUSH1 0x40 MSTORE DUP1 PUSH1 0x2B DUP2 MSTORE PUSH1 0x20 ADD PUSH32 0x4E65772061737365742070726F787920696420646F6573206E6F74206D617463 DUP2 MSTORE PUSH1 0x20 ADD PUSH32 0x6820676976656E2069642E000000000000000000000000000000000000000000 DUP2 MSTORE POP SWAP1 ISZERO ISZERO PUSH2 0x37D JUMPI PUSH1 0x40 MLOAD PUSH1 0xE5 PUSH1 0x2 EXP PUSH3 0x461BCD MUL DUP2 MSTORE PUSH1 0x4 ADD PUSH2 0x1A5 SWAP2 SWAP1 PUSH2 0x8B8 JUMP JUMPDEST POP JUMPDEST PUSH1 0xFF DUP6 AND PUSH1 0x0 SWAP1 DUP2 MSTORE PUSH1 0x1 PUSH1 0x20 MSTORE PUSH1 0x40 SWAP1 DUP2 SWAP1 KECCAK256 DUP1 SLOAD PUSH20 0xFFFFFFFFFFFFFFFFFFFFFFFFFFFFFFFFFFFFFFFF NOT AND PUSH1 0x1 PUSH1 0xA0 PUSH1 0x2 EXP SUB DUP6 AND OR SWAP1 SSTORE MLOAD PUSH32 0x27EF5F484E50F2DAF7C2D82C60FE4CE409009541176EB64095BEAC369DB1D260 SWAP1 PUSH2 0x3EB SWAP1 DUP8 SWAP1 DUP8 SWAP1 DUP8 SWAP1 PUSH2 0x8D9 JUMP JUMPDEST PUSH1 0x40 MLOAD DUP1 SWAP2 SUB SWAP1 LOG1 POP POP POP POP POP JUMP JUMPDEST PUSH2 0x406 DUP5 DUP5 DUP5 DUP5 PUSH2 0x4A5 JUMP JUMPDEST POP POP POP POP JUMP JUMPDEST PUSH1 0x0 SLOAD PUSH1 0x1 PUSH1 0xA0 PUSH1 0x2 EXP SUB AND DUP2 JUMP JUMPDEST PUSH1 0xFF AND PUSH1 0x0 SWAP1 DUP2 MSTORE PUSH1 0x1 PUSH1 0x20 MSTORE PUSH1 0x40 SWAP1 KECCAK256 SLOAD PUSH1 0x1 PUSH1 0xA0 PUSH1 0x2 EXP SUB AND SWAP1 JUMP JUMPDEST PUSH1 0x0 SLOAD CALLER PUSH1 0x1 PUSH1 0xA0 PUSH1 0x2 EXP SUB SWAP1 DUP2 AND SWAP2 AND EQ PUSH2 0x46A JUMPI PUSH1 0x40 MLOAD PUSH1 0xE5 PUSH1 0x2 EXP PUSH3 0x461BCD MUL DUP2 MSTORE PUSH1 0x4 ADD PUSH2 0x1A5 SWAP1 PUSH2 0x8C9 JUMP JUMPDEST PUSH1 0x1 PUSH1 0xA0 PUSH1 0x2 EXP SUB DUP2 AND ISZERO PUSH2 0x4A2 JUMPI PUSH1 0x0 DUP1 SLOAD PUSH20 0xFFFFFFFFFFFFFFFFFFFFFFFFFFFFFFFFFFFFFFFF NOT AND PUSH1 0x1 PUSH1 0xA0 PUSH1 0x2 EXP SUB DUP4 AND OR SWAP1 SSTORE JUMPDEST POP JUMP JUMPDEST PUSH1 0x0 DUP1 PUSH1 0x0 DUP4 GT ISZERO PUSH2 0x5E4 JUMPI DUP6 MLOAD PUSH1 0x40 DUP1 MLOAD DUP1 DUP3 ADD SWAP1 SWAP2 MSTORE PUSH1 0x1E DUP2 MSTORE PUSH32 0x4C656E677468206D7573742062652067726561746572207468616E20302E0000 PUSH1 0x20 DUP3 ADD MSTORE SWAP1 PUSH1 0x1 GT ISZERO PUSH2 0x50C JUMPI PUSH1 0x40 MLOAD PUSH1 0xE5 PUSH1 0x2 EXP PUSH3 0x461BCD MUL DUP2 MSTORE PUSH1 0x4 ADD PUSH2 0x1A5 SWAP2 SWAP1 PUSH2 0x8B8 JUMP JUMPDEST POP DUP6 PUSH1 0x0 DUP2 MLOAD DUP2 LT ISZERO ISZERO PUSH2 0x51C JUMPI INVALID JUMPDEST PUSH1 0x20 SWAP2 ADD DUP2 ADD MLOAD PUSH32 0x100000000000000000000000000000000000000000000000000000000000000 SWAP1 DUP2 SWAP1 DIV DUP2 MUL DIV PUSH1 0xFF DUP2 AND PUSH1 0x0 SWAP1 DUP2 MSTORE PUSH1 0x1 SWAP1 SWAP3 MSTORE PUSH1 0x40 SWAP2 DUP3 SWAP1 KECCAK256 SLOAD SWAP2 MLOAD PUSH32 0xA85E59E400000000000000000000000000000000000000000000000000000000 DUP2 MSTORE SWAP1 SWAP4 POP PUSH1 0x1 PUSH1 0xA0 PUSH1 0x2 EXP SUB SWAP1 SWAP2 AND SWAP2 POP DUP2 SWAP1 PUSH4 0xA85E59E4 SWAP1 PUSH2 0x5B1 SWAP1 DUP10 SWAP1 DUP10 SWAP1 DUP10 SWAP1 DUP10 SWAP1 PUSH1 0x4 ADD PUSH2 0x867 JUMP JUMPDEST PUSH1 0x0 PUSH1 0x40 MLOAD DUP1 DUP4 SUB DUP2 PUSH1 0x0 DUP8 DUP1 EXTCODESIZE ISZERO DUP1 ISZERO PUSH2 0x5CB JUMPI PUSH1 0x0 DUP1 REVERT JUMPDEST POP GAS CALL ISZERO DUP1 ISZERO PUSH2 0x5DF JUMPI RETURNDATASIZE PUSH1 0x0 DUP1 RETURNDATACOPY RETURNDATASIZE PUSH1 0x0 REVERT JUMPDEST POP POP POP POP JUMPDEST POP POP POP POP POP POP JUMP JUMPDEST PUSH1 0x0 PUSH2 0x5F8 DUP3 CALLDATALOAD PUSH2 0x954 JUMP JUMPDEST SWAP4 SWAP3 POP POP POP JUMP JUMPDEST PUSH1 0x0 PUSH1 0x1F DUP3 ADD DUP4 SGT PUSH2 0x610 JUMPI PUSH1 0x0 DUP1 REVERT JUMPDEST DUP2 CALLDATALOAD PUSH2 0x623 PUSH2 0x61E DUP3 PUSH2 0x928 JUMP JUMPDEST PUSH2 0x901 JUMP JUMPDEST SWAP2 POP DUP1 DUP3 MSTORE PUSH1 0x20 DUP4 ADD PUSH1 0x20 DUP4 ADD DUP6 DUP4 DUP4 ADD GT ISZERO PUSH2 0x63F JUMPI PUSH1 0x0 DUP1 REVERT JUMPDEST PUSH2 0x64A DUP4 DUP3 DUP5 PUSH2 0x974 JUMP JUMPDEST POP POP POP SWAP3 SWAP2 POP POP JUMP JUMPDEST PUSH1 0x0 PUSH2 0x5F8 DUP3 CALLDATALOAD PUSH2 0x960 JUMP JUMPDEST PUSH1 0x0 PUSH2 0x5F8 DUP3 CALLDATALOAD PUSH2 0x963 JUMP JUMPDEST PUSH1 0x0 PUSH2 0x5F8 DUP3 MLOAD PUSH2 0x963 JUMP JUMPDEST PUSH1 0x0 PUSH1 0x20 DUP3 DUP5 SUB SLT ISZERO PUSH2 0x689 JUMPI PUSH1 0x0 DUP1 REVERT JUMPDEST PUSH1 0x0 PUSH2 0x695 DUP5 DUP5 PUSH2 0x5EC JUMP JUMPDEST SWAP5 SWAP4 POP POP POP POP JUMP JUMPDEST PUSH1 0x0 DUP1 PUSH1 0x0 DUP1 PUSH1 0x80 DUP6 DUP8 SUB SLT ISZERO PUSH2 0x6B3 JUMPI PUSH1 0x0 DUP1 REVERT JUMPDEST DUP5 CALLDATALOAD PUSH8 0xFFFFFFFFFFFFFFFF DUP2 GT ISZERO PUSH2 0x6CA JUMPI PUSH1 0x0 DUP1 REVERT JUMPDEST PUSH2 0x6D6 DUP8 DUP3 DUP9 ADD PUSH2 0x5FF JUMP JUMPDEST SWAP5 POP POP PUSH1 0x20 PUSH2 0x6E7 DUP8 DUP3 DUP9 ADD PUSH2 0x5EC JUMP JUMPDEST SWAP4 POP POP PUSH1 0x40 PUSH2 0x6F8 DUP8 DUP3 DUP9 ADD PUSH2 0x5EC JUMP JUMPDEST SWAP3 POP POP PUSH1 0x60 PUSH2 0x709 DUP8 DUP3 DUP9 ADD PUSH2 0x653 JUMP JUMPDEST SWAP2 POP POP SWAP3 SWAP6 SWAP2 SWAP5 POP SWAP3 POP JUMP JUMPDEST PUSH1 0x0 PUSH1 0x20 DUP3 DUP5 SUB SLT ISZERO PUSH2 0x727 JUMPI PUSH1 0x0 DUP1 REVERT JUMPDEST PUSH1 0x0 PUSH2 0x695 DUP5 DUP5 PUSH2 0x65F JUMP JUMPDEST PUSH1 0x0 PUSH1 0x20 DUP3 DUP5 SUB SLT ISZERO PUSH2 0x745 JUMPI PUSH1 0x0 DUP1 REVERT JUMPDEST PUSH1 0x0 PUSH2 0x695 DUP5 DUP5 PUSH2 0x66B JUMP JUMPDEST PUSH1 0x0 DUP1 PUSH1 0x0 PUSH1 0x60 DUP5 DUP7 SUB SLT ISZERO PUSH2 0x766 JUMPI PUSH1 0x0 DUP1 REVERT JUMPDEST PUSH1 0x0 PUSH2 0x772 DUP7 DUP7 PUSH2 0x65F JUMP JUMPDEST SWAP4 POP POP PUSH1 0x20 PUSH2 0x783 DUP7 DUP3 DUP8 ADD PUSH2 0x5EC JUMP JUMPDEST SWAP3 POP POP PUSH1 0x40 PUSH2 0x794 DUP7 DUP3 DUP8 ADD PUSH2 0x5EC JUMP JUMPDEST SWAP2 POP POP SWAP3 POP SWAP3 POP SWAP3 JUMP JUMPDEST PUSH2 0x7A7 DUP2 PUSH2 0x954 JUMP JUMPDEST DUP3 MSTORE POP POP JUMP JUMPDEST PUSH1 0x0 PUSH2 0x7B8 DUP3 PUSH2 0x950 JUMP JUMPDEST DUP1 DUP5 MSTORE PUSH2 0x7CC DUP2 PUSH1 0x20 DUP7 ADD PUSH1 0x20 DUP7 ADD PUSH2 0x980 JUMP JUMPDEST PUSH2 0x7D5 DUP2 PUSH2 0x9AC JUMP JUMPDEST SWAP1 SWAP4 ADD PUSH1 0x20 ADD SWAP4 SWAP3 POP POP POP JUMP JUMPDEST PUSH2 0x7A7 DUP2 PUSH2 0x969 JUMP JUMPDEST PUSH1 0x33 DUP2 MSTORE PUSH32 0x4F6E6C7920636F6E7472616374206F776E657220697320616C6C6F7765642074 PUSH1 0x20 DUP3 ADD MSTORE PUSH32 0x6F2063616C6C2074686973206D6574686F642E00000000000000000000000000 PUSH1 0x40 DUP3 ADD MSTORE PUSH1 0x60 ADD SWAP1 JUMP JUMPDEST PUSH2 0x7A7 DUP2 PUSH2 0x960 JUMP JUMPDEST PUSH2 0x7A7 DUP2 PUSH2 0x963 JUMP JUMPDEST PUSH1 0x20 DUP2 ADD PUSH2 0x861 DUP3 DUP5 PUSH2 0x79E JUMP JUMPDEST SWAP3 SWAP2 POP POP JUMP JUMPDEST PUSH1 0x80 DUP1 DUP3 MSTORE DUP2 ADD PUSH2 0x878 DUP2 DUP8 PUSH2 0x7AD JUMP JUMPDEST SWAP1 POP PUSH2 0x887 PUSH1 0x20 DUP4 ADD DUP7 PUSH2 0x79E JUMP JUMPDEST PUSH2 0x894 PUSH1 0x40 DUP4 ADD DUP6 PUSH2 0x79E JUMP JUMPDEST PUSH2 0x8A1 PUSH1 0x60 DUP4 ADD DUP5 PUSH2 0x841 JUMP JUMPDEST SWAP6 SWAP5 POP POP POP POP POP JUMP JUMPDEST PUSH1 0x20 DUP2 ADD PUSH2 0x861 DUP3 DUP5 PUSH2 0x7E2 JUMP JUMPDEST PUSH1 0x20 DUP1 DUP3 MSTORE DUP2 ADD PUSH2 0x5F8 DUP2 DUP5 PUSH2 0x7AD JUMP JUMPDEST PUSH1 0x20 DUP1 DUP3 MSTORE DUP2 ADD PUSH2 0x861 DUP2 PUSH2 0x7EB JUMP JUMPDEST PUSH1 0x60 DUP2 ADD PUSH2 0x8E7 DUP3 DUP7 PUSH2 0x84A JUMP JUMPDEST PUSH2 0x8F4 PUSH1 0x20 DUP4 ADD DUP6 PUSH2 0x79E JUMP JUMPDEST PUSH2 0x695 PUSH1 0x40 DUP4 ADD DUP5 PUSH2 0x79E JUMP JUMPDEST PUSH1 0x40 MLOAD DUP2 DUP2 ADD PUSH8 0xFFFFFFFFFFFFFFFF DUP2 GT DUP3 DUP3 LT OR ISZERO PUSH2 0x920 JUMPI PUSH1 0x0 DUP1 REVERT JUMPDEST PUSH1 0x40 MSTORE SWAP2 SWAP1 POP JUMP JUMPDEST PUSH1 0x0 PUSH8 0xFFFFFFFFFFFFFFFF DUP3 GT ISZERO PUSH2 0x93F JUMPI PUSH1 0x0 DUP1 REVERT JUMPDEST POP PUSH1 0x20 PUSH1 0x1F SWAP2 SWAP1 SWAP2 ADD PUSH1 0x1F NOT AND ADD SWAP1 JUMP JUMPDEST MLOAD SWAP1 JUMP JUMPDEST PUSH1 0x1 PUSH1 0xA0 PUSH1 0x2 EXP SUB AND SWAP1 JUMP JUMPDEST SWAP1 JUMP JUMPDEST PUSH1 0xFF AND SWAP1 JUMP JUMPDEST PUSH1 0x0 PUSH2 0x861 DUP3 PUSH2 0x954 JUMP JUMPDEST DUP3 DUP2 DUP4 CALLDATACOPY POP PUSH1 0x0 SWAP2 ADD MSTORE JUMP JUMPDEST PUSH1 0x0 JUMPDEST DUP4 DUP2 LT ISZERO PUSH2 0x99B JUMPI DUP2 DUP2 ADD MLOAD DUP4 DUP3 ADD MSTORE PUSH1 0x20 ADD PUSH2 0x983 JUMP JUMPDEST DUP4 DUP2 GT ISZERO PUSH2 0x406 JUMPI POP POP PUSH1 0x0 SWAP2 ADD MSTORE JUMP JUMPDEST PUSH1 0x1F ADD PUSH1 0x1F NOT AND SWAP1 JUMP STOP LOG2 PUSH6 0x627A7A723058 KECCAK256 0x21 POP DUP4 OR 0xd9 JUMPDEST 0x4f 0x5c STATICCALL 0xc8 INVALID 0x1e SWAP1 0xb2 PUSH5 0x1F767CFAF0 CALLER 0xda MULMOD 0xb9 EQ SWAP5 0x2f DUP4 DUP13 DUP10 PUSH26 0x346C6578706572696D656E74616CF50037000000000000000000 "
			}
		}
	},
	"sourceTreeHashHex": "0xca98b412fdf7ee1fd12cde7da977940083a8664ee66968873946219a74acd033",
	"compiler": {
		"name": "solc",
		"version": "0.4.23",
		"settings": {
			"optimizer": {
				"enabled": true,
				"runs": 200
			},
			"outputSelection": {
				"*": {
					"*": [
						"abi",
						"evm.bytecode.object",
						"evm.bytecode.sourceMap",
						"evm.deployedBytecode.object",
						"evm.deployedBytecode.sourceMap"
					]
				}
			}
		}
	}
}