{
	"schemaVersion": "2.0.0",
	"contractName": "TestAssetDataDecoders",
	"compilerOutput": {
		"abi": [
			{
				"constant": false,
				"inputs": [
					{
						"name": "target",
						"type": "address"
					}
				],
				"name": "addAuthorizedAddress",
				"outputs": [],
				"payable": false,
				"stateMutability": "nonpayable",
				"type": "function"
			},
			{
				"constant": true,
				"inputs": [
					{
						"name": "",
						"type": "uint256"
					}
				],
				"name": "authorities",
				"outputs": [
					{
						"name": "",
						"type": "address"
					}
				],
				"payable": false,
				"stateMutability": "view",
				"type": "function"
			},
			{
				"constant": false,
				"inputs": [
					{
						"name": "assetData",
						"type": "bytes[]"
					},
					{
						"name": "from",
						"type": "address[]"
					},
					{
						"name": "to",
						"type": "address[]"
					},
					{
						"name": "amounts",
						"type": "uint256[]"
					}
				],
				"name": "batchTransferFrom",
				"outputs": [],
				"payable": false,
				"stateMutability": "nonpayable",
				"type": "function"
			},
			{
				"constant": false,
				"inputs": [
					{
						"name": "target",
						"type": "address"
					}
				],
				"name": "removeAuthorizedAddress",
				"outputs": [],
				"payable": false,
				"stateMutability": "nonpayable",
				"type": "function"
			},
			{
				"constant": true,
				"inputs": [
					{
						"name": "assetData",
						"type": "bytes"
					}
				],
				"name": "publicDecodeERC721Data",
				"outputs": [
					{
						"name": "token",
						"type": "address"
					},
					{
						"name": "tokenId",
						"type": "uint256"
					},
					{
						"name": "receiverData",
						"type": "bytes"
					}
				],
				"payable": false,
				"stateMutability": "pure",
				"type": "function"
			},
			{
				"constant": true,
				"inputs": [],
				"name": "owner",
				"outputs": [
					{
						"name": "",
						"type": "address"
					}
				],
				"payable": false,
				"stateMutability": "view",
				"type": "function"
			},
			{
				"constant": false,
				"inputs": [
					{
						"name": "target",
						"type": "address"
					},
					{
						"name": "index",
						"type": "uint256"
					}
				],
				"name": "removeAuthorizedAddressAtIndex",
				"outputs": [],
				"payable": false,
				"stateMutability": "nonpayable",
				"type": "function"
			},
			{
				"constant": false,
				"inputs": [
					{
						"name": "assetData",
						"type": "bytes"
					},
					{
						"name": "from",
						"type": "address"
					},
					{
						"name": "to",
						"type": "address"
					},
					{
						"name": "amount",
						"type": "uint256"
					}
				],
				"name": "transferFrom",
				"outputs": [],
				"payable": false,
				"stateMutability": "nonpayable",
				"type": "function"
			},
			{
				"constant": true,
				"inputs": [],
				"name": "getProxyId",
				"outputs": [
					{
						"name": "",
						"type": "uint8"
					}
				],
				"payable": false,
				"stateMutability": "view",
				"type": "function"
			},
			{
				"constant": true,
				"inputs": [
					{
						"name": "",
						"type": "address"
					}
				],
				"name": "authorized",
				"outputs": [
					{
						"name": "",
						"type": "bool"
					}
				],
				"payable": false,
				"stateMutability": "view",
				"type": "function"
			},
			{
				"constant": true,
				"inputs": [],
				"name": "getAuthorizedAddresses",
				"outputs": [
					{
						"name": "",
						"type": "address[]"
					}
				],
				"payable": false,
				"stateMutability": "view",
				"type": "function"
			},
			{
				"constant": false,
				"inputs": [
					{
						"name": "newOwner",
						"type": "address"
					}
				],
				"name": "transferOwnership",
				"outputs": [],
				"payable": false,
				"stateMutability": "nonpayable",
				"type": "function"
			},
			{
				"anonymous": false,
				"inputs": [
					{
						"indexed": true,
						"name": "target",
						"type": "address"
					},
					{
						"indexed": true,
						"name": "caller",
						"type": "address"
					}
				],
				"name": "AuthorizedAddressAdded",
				"type": "event"
			},
			{
				"anonymous": false,
				"inputs": [
					{
						"indexed": true,
						"name": "target",
						"type": "address"
					},
					{
						"indexed": true,
						"name": "caller",
						"type": "address"
					}
				],
				"name": "AuthorizedAddressRemoved",
				"type": "event"
			}
		],
		"evm": {
			"bytecode": {
				"linkReferences": {},
				"object": "0x608060405260008054600160a060020a03191633179055611558806100256000396000f3006080604052600436106100b95763ffffffff7c010000000000000000000000000000000000000000000000000000000060003504166342f1181e81146100be578063494503d4146100e0578063563c875d14610116578063707129391461013657806372c2f527146101565780638da5cb5b146101855780639ad267441461019a578063a85e59e4146101ba578063ae25532e146101da578063b9181611146101fc578063d39de6e914610229578063f2fde38b1461024b575b600080fd5b3480156100ca57600080fd5b506100de6100d9366004611075565b61026b565b005b3480156100ec57600080fd5b506101006100fb366004611247565b6103b2565b60405161010d9190611371565b60405180910390f35b34801561012257600080fd5b506100de6101313660046110d5565b6103da565b34801561014257600080fd5b506100de610151366004611075565b6104cd565b34801561016257600080fd5b50610176610171366004611212565b61069b565b60405161010d939291906113c3565b34801561019157600080fd5b506101006106b6565b3480156101a657600080fd5b506100de6101b536600461109b565b6106c5565b3480156101c657600080fd5b506100de6101d5366004611195565b610887565b3480156101e657600080fd5b506101ef610933565b60405161010d9190611439565b34801561020857600080fd5b5061021c610217366004611075565b610939565b60405161010d919061140a565b34801561023557600080fd5b5061023e61094e565b60405161010d91906113f9565b34801561025757600080fd5b506100de610266366004611075565b6109b0565b600054600160a060020a031633146102a15760405160e560020a62461bcd02815260040161029890611429565b60405180910390fd5b600160a060020a038116600090815260016020908152604091829020548251808401909352601983527f5441524745545f414c52454144595f415554484f52495a4544000000000000009183019190915260ff16156103165760405160e560020a62461bcd0281526004016102989190611418565b50600160a060020a0381166000818152600160208190526040808320805460ff19168317905560028054928301815583527f405787fa12a823e0f2b7631cc41b3ba8828b3321ca811111fa75cd3aa3bb5ace909101805473ffffffffffffffffffffffffffffffffffffffff191684179055513392917f3147867c59d17e8fa9d522465651d44aae0a9e38f902f3475b97e58072f0ed4c91a350565b60028054829081106103c057fe5b600091825260209091200154600160a060020a0316905081565b336000908152600160209081526040808320548151808301909252601582527f53454e4445525f4e4f545f415554484f52495a45440000000000000000000000928201929092529060ff1615156104475760405160e560020a62461bcd0281526004016102989190611418565b50600090505b84518110156104c6576104be858281518110151561046757fe5b90602001906020020151858381518110151561047f57fe5b90602001906020020151858481518110151561049757fe5b9060200190602002015185858151811015156104af57fe5b90602001906020020151610a18565b60010161044d565b5050505050565b60008054600160a060020a031633146104fb5760405160e560020a62461bcd02815260040161029890611429565b600160a060020a038216600090815260016020908152604091829020548251808401909352601583527f5441524745545f4e4f545f415554484f52495a454400000000000000000000009183019190915260ff1615156105715760405160e560020a62461bcd0281526004016102989190611418565b5050600160a060020a0381166000908152600160205260408120805460ff191690555b6002548110156106615781600160a060020a03166002828154811015156105b757fe5b600091825260209091200154600160a060020a03161415610659576002805460001981019081106105e457fe5b60009182526020909120015460028054600160a060020a03909216918390811061060a57fe5b6000918252602090912001805473ffffffffffffffffffffffffffffffffffffffff1916600160a060020a03929092169190911790556002805460001901906106539082610e3c565b50610661565b600101610594565b6040513390600160a060020a038416907f1f32c1b084e2de0713b8fb16bd46bb9df710a3dbeae2f3ca93af46e016dcc6b090600090a35050565b60008060606106a984610b11565b9196909550909350915050565b600054600160a060020a031681565b60025460408051808201909152601381527f494e4445585f4f55545f4f465f424f554e445300000000000000000000000000602082015290821061071f5760405160e560020a62461bcd0281526004016102989190611418565b5081600160a060020a031660028281548110151561073957fe5b6000918252602091829020015460408051808201909152601b81527f415554484f52495a45445f414444524553535f4d49534d415443480000000000928101929092529091600160a060020a03909116146107aa5760405160e560020a62461bcd0281526004016102989190611418565b50600160a060020a0382166000908152600160205260409020805460ff191690556002805460001981019081106107dd57fe5b60009182526020909120015460028054600160a060020a03909216918390811061080357fe5b6000918252602090912001805473ffffffffffffffffffffffffffffffffffffffff1916600160a060020a039290921691909117905560028054600019019061084c9082610e3c565b506040513390600160a060020a038416907f1f32c1b084e2de0713b8fb16bd46bb9df710a3dbeae2f3ca93af46e016dcc6b090600090a35050565b33600090815260016020908152604091829020548251808401909352601583527f53454e4445525f4e4f545f415554484f52495a454400000000000000000000009183019190915260ff1615156108f45760405160e560020a62461bcd0281526004016102989190611418565b506104c685858080601f016020809104026020016040519081016040528093929190818152602001838380828437820191505050505050848484610a18565b60025b90565b60016020526000908152604090205460ff1681565b606060028054806020026020016040519081016040528092919081815260200182805480156109a657602002820191906000526020600020905b8154600160a060020a03168152600190910190602001808311610988575b5050505050905090565b600054600160a060020a031633146109dd5760405160e560020a62461bcd02815260040161029890611429565b600160a060020a03811615610a15576000805473ffffffffffffffffffffffffffffffffffffffff1916600160a060020a0383161790555b50565b60408051808201909152600e81527f494e56414c49445f414d4f554e540000000000000000000000000000000000006020820152600090819060609060018514610a785760405160e560020a62461bcd0281526004016102989190611418565b50610a8287610b11565b92509250925082600160a060020a031663b88d4fde878785856040518563ffffffff167c0100000000000000000000000000000000000000000000000000000000028152600401610ad6949392919061137f565b600060405180830381600087803b158015610af057600080fd5b505af1158015610b04573d6000803e3d6000fd5b5050505050505050505050565b6000806060610b21846000610b4f565b9250610b2e846014610bf6565b9150603484511115610b4857610b45846034610c09565b90505b9193909250565b60008160140183511015606060405190810160405280602681526020017f475245415445525f4f525f455155414c5f544f5f32305f4c454e4754485f524581526020017f5155495245440000000000000000000000000000000000000000000000000000815250901515610bd95760405160e560020a62461bcd0281526004016102989190611418565b50506014818301810151910190600160a060020a03165b92915050565b6000610c028383610d02565b9392505050565b60606000610c178484610bf6565b905060208301925080830184511015606060405190810160405280603081526020017f475245415445525f4f525f455155414c5f544f5f4e45535445445f425954455381526020017f5f4c454e4754485f524551554952454400000000000000000000000000000000815250901515610ca65760405160e560020a62461bcd0281526004016102989190611418565b50806040519080825280601f01601f191660200182016040528015610cd5578160200160208202803883390190505b509150610cfb610ce483610936565b60200184610cf187610936565b0160200183610d96565b5092915050565b60008160200183511015606060405190810160405280602681526020017f475245415445525f4f525f455155414c5f544f5f33325f4c454e4754485f524581526020017f5155495245440000000000000000000000000000000000000000000000000000815250901515610d8c5760405160e560020a62461bcd0281526004016102989190611418565b5050016020015190565b6020811015610dc0576001816020036101000a038019835116818551168082178652505050610e37565b82821415610dcd57610e37565b82821115610e075760208103905080820181840181515b82851015610dff578451865260209586019590940193610de4565b905250610e37565b60208103905080820181840183515b81861215610e325782518252601f199283019290910190610e16565b855250505b505050565b815481835581811115610e3757600083815260209020610e3791810190830161093691905b80821115610e755760008155600101610e61565b5090565b6000610c0282356114c1565b6000601f82018313610e9657600080fd5b8135610ea9610ea48261146e565b611447565b91508181835260208401935060208101905083856020840282011115610ece57600080fd5b60005b83811015610efa5781610ee48882610e79565b8452506020928301929190910190600101610ed1565b5050505092915050565b6000601f82018313610f1557600080fd5b8135610f23610ea48261146e565b81815260209384019390925082018360005b83811015610efa5781358601610f4b888261101a565b8452506020928301929190910190600101610f35565b6000601f82018313610f7257600080fd5b8135610f80610ea48261146e565b91508181835260208401935060208101905083856020840282011115610fa557600080fd5b60005b83811015610efa5781610fbb8882611069565b8452506020928301929190910190600101610fa8565b600080601f83018413610fe357600080fd5b50813567ffffffffffffffff811115610ffb57600080fd5b60208301915083600182028301111561101357600080fd5b9250929050565b6000601f8201831361102b57600080fd5b8135611039610ea48261148f565b9150808252602083016020830185838301111561105557600080fd5b6110608382846114d8565b50505092915050565b6000610c028235610936565b60006020828403121561108757600080fd5b60006110938484610e79565b949350505050565b600080604083850312156110ae57600080fd5b60006110ba8585610e79565b92505060206110cb85828601611069565b9150509250929050565b600080600080608085870312156110eb57600080fd5b843567ffffffffffffffff81111561110257600080fd5b61110e87828801610f04565b945050602085013567ffffffffffffffff81111561112b57600080fd5b61113787828801610e85565b935050604085013567ffffffffffffffff81111561115457600080fd5b61116087828801610e85565b925050606085013567ffffffffffffffff81111561117d57600080fd5b61118987828801610f61565b91505092959194509250565b6000806000806000608086880312156111ad57600080fd5b853567ffffffffffffffff8111156111c457600080fd5b6111d088828901610fd1565b955095505060206111e388828901610e79565b93505060406111f488828901610e79565b925050606061120588828901611069565b9150509295509295909350565b60006020828403121561122457600080fd5b813567ffffffffffffffff81111561123b57600080fd5b6110938482850161101a565b60006020828403121561125957600080fd5b60006110938484611069565b61126e816114c1565b82525050565b600061127f826114bd565b808452602084019350611291836114b7565b60005b828110156112c1576112a7868351611265565b6112b0826114b7565b602096909601959150600101611294565b5093949350505050565b61126e816114cd565b60006112df826114bd565b8084526112f38160208601602086016114e4565b6112fc81611514565b9093016020019392505050565b603381527f4f6e6c7920636f6e7472616374206f776e657220697320616c6c6f776564207460208201527f6f2063616c6c2074686973206d6574686f642e00000000000000000000000000604082015260600190565b61126e81610936565b61126e816114d2565b60208101610bf08284611265565b6080810161138d8287611265565b61139a6020830186611265565b6113a7604083018561135f565b81810360608301526113b981846112d4565b9695505050505050565b606081016113d18286611265565b6113de602083018561135f565b81810360408301526113f081846112d4565b95945050505050565b60208082528101610c028184611274565b60208101610bf082846112cb565b60208082528101610c0281846112d4565b60208082528101610bf081611309565b60208101610bf08284611368565b60405181810167ffffffffffffffff8111828210171561146657600080fd5b604052919050565b600067ffffffffffffffff82111561148557600080fd5b5060209081020190565b600067ffffffffffffffff8211156114a657600080fd5b506020601f91909101601f19160190565b60200190565b5190565b600160a060020a031690565b151590565b60ff1690565b82818337506000910152565b60005b838110156114ff5781810151838201526020016114e7565b8381111561150e576000848401525b50505050565b601f01601f1916905600a265627a7a72305820c0e1254b6a6e47d3753fadf9b2ee898bdfcee2a2593be86be1ecad7c815324356c6578706572696d656e74616cf50037",
				"opcodes": "PUSH1 0x80 PUSH1 0x40 MSTORE PUSH1 0x0 DUP1 SLOAD PUSH1 0x1 PUSH1 0xA0 PUSH1 0x2 EXP SUB NOT AND CALLER OR SWAP1 SSTORE PUSH2 0x1558 DUP1 PUSH2 0x25 PUSH1 0x0 CODECOPY PUSH1 0x0 RETURN STOP PUSH1 0x80 PUSH1 0x40 MSTORE PUSH1 0x4 CALLDATASIZE LT PUSH2 0xB9 JUMPI PUSH4 0xFFFFFFFF PUSH29 0x100000000000000000000000000000000000000000000000000000000 PUSH1 0x0 CALLDATALOAD DIV AND PUSH4 0x42F1181E DUP2 EQ PUSH2 0xBE JUMPI DUP1 PUSH4 0x494503D4 EQ PUSH2 0xE0 JUMPI DUP1 PUSH4 0x563C875D EQ PUSH2 0x116 JUMPI DUP1 PUSH4 0x70712939 EQ PUSH2 0x136 JUMPI DUP1 PUSH4 0x72C2F527 EQ PUSH2 0x156 JUMPI DUP1 PUSH4 0x8DA5CB5B EQ PUSH2 0x185 JUMPI DUP1 PUSH4 0x9AD26744 EQ PUSH2 0x19A JUMPI DUP1 PUSH4 0xA85E59E4 EQ PUSH2 0x1BA JUMPI DUP1 PUSH4 0xAE25532E EQ PUSH2 0x1DA JUMPI DUP1 PUSH4 0xB9181611 EQ PUSH2 0x1FC JUMPI DUP1 PUSH4 0xD39DE6E9 EQ PUSH2 0x229 JUMPI DUP1 PUSH4 0xF2FDE38B EQ PUSH2 0x24B JUMPI JUMPDEST PUSH1 0x0 DUP1 REVERT JUMPDEST CALLVALUE DUP1 ISZERO PUSH2 0xCA JUMPI PUSH1 0x0 DUP1 REVERT JUMPDEST POP PUSH2 0xDE PUSH2 0xD9 CALLDATASIZE PUSH1 0x4 PUSH2 0x1075 JUMP JUMPDEST PUSH2 0x26B JUMP JUMPDEST STOP JUMPDEST CALLVALUE DUP1 ISZERO PUSH2 0xEC JUMPI PUSH1 0x0 DUP1 REVERT JUMPDEST POP PUSH2 0x100 PUSH2 0xFB CALLDATASIZE PUSH1 0x4 PUSH2 0x1247 JUMP JUMPDEST PUSH2 0x3B2 JUMP JUMPDEST PUSH1 0x40 MLOAD PUSH2 0x10D SWAP2 SWAP1 PUSH2 0x1371 JUMP JUMPDEST PUSH1 0x40 MLOAD DUP1 SWAP2 SUB SWAP1 RETURN JUMPDEST CALLVALUE DUP1 ISZERO PUSH2 0x122 JUMPI PUSH1 0x0 DUP1 REVERT JUMPDEST POP PUSH2 0xDE PUSH2 0x131 CALLDATASIZE PUSH1 0x4 PUSH2 0x10D5 JUMP JUMPDEST PUSH2 0x3DA JUMP JUMPDEST CALLVALUE DUP1 ISZERO PUSH2 0x142 JUMPI PUSH1 0x0 DUP1 REVERT JUMPDEST POP PUSH2 0xDE PUSH2 0x151 CALLDATASIZE PUSH1 0x4 PUSH2 0x1075 JUMP JUMPDEST PUSH2 0x4CD JUMP JUMPDEST CALLVALUE DUP1 ISZERO PUSH2 0x162 JUMPI PUSH1 0x0 DUP1 REVERT JUMPDEST POP PUSH2 0x176 PUSH2 0x171 CALLDATASIZE PUSH1 0x4 PUSH2 0x1212 JUMP JUMPDEST PUSH2 0x69B JUMP JUMPDEST PUSH1 0x40 MLOAD PUSH2 0x10D SWAP4 SWAP3 SWAP2 SWAP1 PUSH2 0x13C3 JUMP JUMPDEST CALLVALUE DUP1 ISZERO PUSH2 0x191 JUMPI PUSH1 0x0 DUP1 REVERT JUMPDEST POP PUSH2 0x100 PUSH2 0x6B6 JUMP JUMPDEST CALLVALUE DUP1 ISZERO PUSH2 0x1A6 JUMPI PUSH1 0x0 DUP1 REVERT JUMPDEST POP PUSH2 0xDE PUSH2 0x1B5 CALLDATASIZE PUSH1 0x4 PUSH2 0x109B JUMP JUMPDEST PUSH2 0x6C5 JUMP JUMPDEST CALLVALUE DUP1 ISZERO PUSH2 0x1C6 JUMPI PUSH1 0x0 DUP1 REVERT JUMPDEST POP PUSH2 0xDE PUSH2 0x1D5 CALLDATASIZE PUSH1 0x4 PUSH2 0x1195 JUMP JUMPDEST PUSH2 0x887 JUMP JUMPDEST CALLVALUE DUP1 ISZERO PUSH2 0x1E6 JUMPI PUSH1 0x0 DUP1 REVERT JUMPDEST POP PUSH2 0x1EF PUSH2 0x933 JUMP JUMPDEST PUSH1 0x40 MLOAD PUSH2 0x10D SWAP2 SWAP1 PUSH2 0x1439 JUMP JUMPDEST CALLVALUE DUP1 ISZERO PUSH2 0x208 JUMPI PUSH1 0x0 DUP1 REVERT JUMPDEST POP PUSH2 0x21C PUSH2 0x217 CALLDATASIZE PUSH1 0x4 PUSH2 0x1075 JUMP JUMPDEST PUSH2 0x939 JUMP JUMPDEST PUSH1 0x40 MLOAD PUSH2 0x10D SWAP2 SWAP1 PUSH2 0x140A JUMP JUMPDEST CALLVALUE DUP1 ISZERO PUSH2 0x235 JUMPI PUSH1 0x0 DUP1 REVERT JUMPDEST POP PUSH2 0x23E PUSH2 0x94E JUMP JUMPDEST PUSH1 0x40 MLOAD PUSH2 0x10D SWAP2 SWAP1 PUSH2 0x13F9 JUMP JUMPDEST CALLVALUE DUP1 ISZERO PUSH2 0x257 JUMPI PUSH1 0x0 DUP1 REVERT JUMPDEST POP PUSH2 0xDE PUSH2 0x266 CALLDATASIZE PUSH1 0x4 PUSH2 0x1075 JUMP JUMPDEST PUSH2 0x9B0 JUMP JUMPDEST PUSH1 0x0 SLOAD PUSH1 0x1 PUSH1 0xA0 PUSH1 0x2 EXP SUB AND CALLER EQ PUSH2 0x2A1 JUMPI PUSH1 0x40 MLOAD PUSH1 0xE5 PUSH1 0x2 EXP PUSH3 0x461BCD MUL DUP2 MSTORE PUSH1 0x4 ADD PUSH2 0x298 SWAP1 PUSH2 0x1429 JUMP JUMPDEST PUSH1 0x40 MLOAD DUP1 SWAP2 SUB SWAP1 REVERT JUMPDEST PUSH1 0x1 PUSH1 0xA0 PUSH1 0x2 EXP SUB DUP2 AND PUSH1 0x0 SWAP1 DUP2 MSTORE PUSH1 0x1 PUSH1 0x20 SWAP1 DUP2 MSTORE PUSH1 0x40 SWAP2 DUP3 SWAP1 KECCAK256 SLOAD DUP3 MLOAD DUP1 DUP5 ADD SWAP1 SWAP4 MSTORE PUSH1 0x19 DUP4 MSTORE PUSH32 0x5441524745545F414C52454144595F415554484F52495A454400000000000000 SWAP2 DUP4 ADD SWAP2 SWAP1 SWAP2 MSTORE PUSH1 0xFF AND ISZERO PUSH2 0x316 JUMPI PUSH1 0x40 MLOAD PUSH1 0xE5 PUSH1 0x2 EXP PUSH3 0x461BCD MUL DUP2 MSTORE PUSH1 0x4 ADD PUSH2 0x298 SWAP2 SWAP1 PUSH2 0x1418 JUMP JUMPDEST POP PUSH1 0x1 PUSH1 0xA0 PUSH1 0x2 EXP SUB DUP2 AND PUSH1 0x0 DUP2 DUP2 MSTORE PUSH1 0x1 PUSH1 0x20 DUP2 SWAP1 MSTORE PUSH1 0x40 DUP1 DUP4 KECCAK256 DUP1 SLOAD PUSH1 0xFF NOT AND DUP4 OR SWAP1 SSTORE PUSH1 0x2 DUP1 SLOAD SWAP3 DUP4 ADD DUP2 SSTORE DUP4 MSTORE PUSH32 0x405787FA12A823E0F2B7631CC41B3BA8828B3321CA811111FA75CD3AA3BB5ACE SWAP1 SWAP2 ADD DUP1 SLOAD PUSH20 0xFFFFFFFFFFFFFFFFFFFFFFFFFFFFFFFFFFFFFFFF NOT AND DUP5 OR SWAP1 SSTORE MLOAD CALLER SWAP3 SWAP2 PUSH32 0x3147867C59D17E8FA9D522465651D44AAE0A9E38F902F3475B97E58072F0ED4C SWAP2 LOG3 POP JUMP JUMPDEST PUSH1 0x2 DUP1 SLOAD DUP3 SWAP1 DUP2 LT PUSH2 0x3C0 JUMPI INVALID JUMPDEST PUSH1 0x0 SWAP2 DUP3 MSTORE PUSH1 0x20 SWAP1 SWAP2 KECCAK256 ADD SLOAD PUSH1 0x1 PUSH1 0xA0 PUSH1 0x2 EXP SUB AND SWAP1 POP DUP2 JUMP JUMPDEST CALLER PUSH1 0x0 SWAP1 DUP2 MSTORE PUSH1 0x1 PUSH1 0x20 SWAP1 DUP2 MSTORE PUSH1 0x40 DUP1 DUP4 KECCAK256 SLOAD DUP2 MLOAD DUP1 DUP4 ADD SWAP1 SWAP3 MSTORE PUSH1 0x15 DUP3 MSTORE PUSH32 0x53454E4445525F4E4F545F415554484F52495A45440000000000000000000000 SWAP3 DUP3 ADD SWAP3 SWAP1 SWAP3 MSTORE SWAP1 PUSH1 0xFF AND ISZERO ISZERO PUSH2 0x447 JUMPI PUSH1 0x40 MLOAD PUSH1 0xE5 PUSH1 0x2 EXP PUSH3 0x461BCD MUL DUP2 MSTORE PUSH1 0x4 ADD PUSH2 0x298 SWAP2 SWAP1 PUSH2 0x1418 JUMP JUMPDEST POP PUSH1 0x0 SWAP1 POP JUMPDEST DUP5 MLOAD DUP2 LT ISZERO PUSH2 0x4C6 JUMPI PUSH2 0x4BE DUP6 DUP3 DUP2 MLOAD DUP2 LT ISZERO ISZERO PUSH2 0x467 JUMPI INVALID JUMPDEST SWAP1 PUSH1 0x20 ADD SWAP1 PUSH1 0x20 MUL ADD MLOAD DUP6 DUP4 DUP2 MLOAD DUP2 LT ISZERO ISZERO PUSH2 0x47F JUMPI INVALID JUMPDEST SWAP1 PUSH1 0x20 ADD SWAP1 PUSH1 0x20 MUL ADD MLOAD DUP6 DUP5 DUP2 MLOAD DUP2 LT ISZERO ISZERO PUSH2 0x497 JUMPI INVALID JUMPDEST SWAP1 PUSH1 0x20 ADD SWAP1 PUSH1 0x20 MUL ADD MLOAD DUP6 DUP6 DUP2 MLOAD DUP2 LT ISZERO ISZERO PUSH2 0x4AF JUMPI INVALID JUMPDEST SWAP1 PUSH1 0x20 ADD SWAP1 PUSH1 0x20 MUL ADD MLOAD PUSH2 0xA18 JUMP JUMPDEST PUSH1 0x1 ADD PUSH2 0x44D JUMP JUMPDEST POP POP POP POP POP JUMP JUMPDEST PUSH1 0x0 DUP1 SLOAD PUSH1 0x1 PUSH1 0xA0 PUSH1 0x2 EXP SUB AND CALLER EQ PUSH2 0x4FB JUMPI PUSH1 0x40 MLOAD PUSH1 0xE5 PUSH1 0x2 EXP PUSH3 0x461BCD MUL DUP2 MSTORE PUSH1 0x4 ADD PUSH2 0x298 SWAP1 PUSH2 0x1429 JUMP JUMPDEST PUSH1 0x1 PUSH1 0xA0 PUSH1 0x2 EXP SUB DUP3 AND PUSH1 0x0 SWAP1 DUP2 MSTORE PUSH1 0x1 PUSH1 0x20 SWAP1 DUP2 MSTORE PUSH1 0x40 SWAP2 DUP3 SWAP1 KECCAK256 SLOAD DUP3 MLOAD DUP1 DUP5 ADD SWAP1 SWAP4 MSTORE PUSH1 0x15 DUP4 MSTORE PUSH32 0x5441524745545F4E4F545F415554484F52495A45440000000000000000000000 SWAP2 DUP4 ADD SWAP2 SWAP1 SWAP2 MSTORE PUSH1 0xFF AND ISZERO ISZERO PUSH2 0x571 JUMPI PUSH1 0x40 MLOAD PUSH1 0xE5 PUSH1 0x2 EXP PUSH3 0x461BCD MUL DUP2 MSTORE PUSH1 0x4 ADD PUSH2 0x298 SWAP2 SWAP1 PUSH2 0x1418 JUMP JUMPDEST POP POP PUSH1 0x1 PUSH1 0xA0 PUSH1 0x2 EXP SUB DUP2 AND PUSH1 0x0 SWAP1 DUP2 MSTORE PUSH1 0x1 PUSH1 0x20 MSTORE PUSH1 0x40 DUP2 KECCAK256 DUP1 SLOAD PUSH1 0xFF NOT AND SWAP1 SSTORE JUMPDEST PUSH1 0x2 SLOAD DUP2 LT ISZERO PUSH2 0x661 JUMPI DUP2 PUSH1 0x1 PUSH1 0xA0 PUSH1 0x2 EXP SUB AND PUSH1 0x2 DUP3 DUP2 SLOAD DUP2 LT ISZERO ISZERO PUSH2 0x5B7 JUMPI INVALID JUMPDEST PUSH1 0x0 SWAP2 DUP3 MSTORE PUSH1 0x20 SWAP1 SWAP2 KECCAK256 ADD SLOAD PUSH1 0x1 PUSH1 0xA0 PUSH1 0x2 EXP SUB AND EQ ISZERO PUSH2 0x659 JUMPI PUSH1 0x2 DUP1 SLOAD PUSH1 0x0 NOT DUP2 ADD SWAP1 DUP2 LT PUSH2 0x5E4 JUMPI INVALID JUMPDEST PUSH1 0x0 SWAP2 DUP3 MSTORE PUSH1 0x20 SWAP1 SWAP2 KECCAK256 ADD SLOAD PUSH1 0x2 DUP1 SLOAD PUSH1 0x1 PUSH1 0xA0 PUSH1 0x2 EXP SUB SWAP1 SWAP3 AND SWAP2 DUP4 SWAP1 DUP2 LT PUSH2 0x60A JUMPI INVALID JUMPDEST PUSH1 0x0 SWAP2 DUP3 MSTORE PUSH1 0x20 SWAP1 SWAP2 KECCAK256 ADD DUP1 SLOAD PUSH20 0xFFFFFFFFFFFFFFFFFFFFFFFFFFFFFFFFFFFFFFFF NOT AND PUSH1 0x1 PUSH1 0xA0 PUSH1 0x2 EXP SUB SWAP3 SWAP1 SWAP3 AND SWAP2 SWAP1 SWAP2 OR SWAP1 SSTORE PUSH1 0x2 DUP1 SLOAD PUSH1 0x0 NOT ADD SWAP1 PUSH2 0x653 SWAP1 DUP3 PUSH2 0xE3C JUMP JUMPDEST POP PUSH2 0x661 JUMP JUMPDEST PUSH1 0x1 ADD PUSH2 0x594 JUMP JUMPDEST PUSH1 0x40 MLOAD CALLER SWAP1 PUSH1 0x1 PUSH1 0xA0 PUSH1 0x2 EXP SUB DUP5 AND SWAP1 PUSH32 0x1F32C1B084E2DE0713B8FB16BD46BB9DF710A3DBEAE2F3CA93AF46E016DCC6B0 SWAP1 PUSH1 0x0 SWAP1 LOG3 POP POP JUMP JUMPDEST PUSH1 0x0 DUP1 PUSH1 0x60 PUSH2 0x6A9 DUP5 PUSH2 0xB11 JUMP JUMPDEST SWAP2 SWAP7 SWAP1 SWAP6 POP SWAP1 SWAP4 POP SWAP2 POP POP JUMP JUMPDEST PUSH1 0x0 SLOAD PUSH1 0x1 PUSH1 0xA0 PUSH1 0x2 EXP SUB AND DUP2 JUMP JUMPDEST PUSH1 0x2 SLOAD PUSH1 0x40 DUP1 MLOAD DUP1 DUP3 ADD SWAP1 SWAP2 MSTORE PUSH1 0x13 DUP2 MSTORE PUSH32 0x494E4445585F4F55545F4F465F424F554E445300000000000000000000000000 PUSH1 0x20 DUP3 ADD MSTORE SWAP1 DUP3 LT PUSH2 0x71F JUMPI PUSH1 0x40 MLOAD PUSH1 0xE5 PUSH1 0x2 EXP PUSH3 0x461BCD MUL DUP2 MSTORE PUSH1 0x4 ADD PUSH2 0x298 SWAP2 SWAP1 PUSH2 0x1418 JUMP JUMPDEST POP DUP2 PUSH1 0x1 PUSH1 0xA0 PUSH1 0x2 EXP SUB AND PUSH1 0x2 DUP3 DUP2 SLOAD DUP2 LT ISZERO ISZERO PUSH2 0x739 JUMPI INVALID JUMPDEST PUSH1 0x0 SWAP2 DUP3 MSTORE PUSH1 0x20 SWAP2 DUP3 SWAP1 KECCAK256 ADD SLOAD PUSH1 0x40 DUP1 MLOAD DUP1 DUP3 ADD SWAP1 SWAP2 MSTORE PUSH1 0x1B DUP2 MSTORE PUSH32 0x415554484F52495A45445F414444524553535F4D49534D415443480000000000 SWAP3 DUP2 ADD SWAP3 SWAP1 SWAP3 MSTORE SWAP1 SWAP2 PUSH1 0x1 PUSH1 0xA0 PUSH1 0x2 EXP SUB SWAP1 SWAP2 AND EQ PUSH2 0x7AA JUMPI PUSH1 0x40 MLOAD PUSH1 0xE5 PUSH1 0x2 EXP PUSH3 0x461BCD MUL DUP2 MSTORE PUSH1 0x4 ADD PUSH2 0x298 SWAP2 SWAP1 PUSH2 0x1418 JUMP JUMPDEST POP PUSH1 0x1 PUSH1 0xA0 PUSH1 0x2 EXP SUB DUP3 AND PUSH1 0x0 SWAP1 DUP2 MSTORE PUSH1 0x1 PUSH1 0x20 MSTORE PUSH1 0x40 SWAP1 KECCAK256 DUP1 SLOAD PUSH1 0xFF NOT AND SWAP1 SSTORE PUSH1 0x2 DUP1 SLOAD PUSH1 0x0 NOT DUP2 ADD SWAP1 DUP2 LT PUSH2 0x7DD JUMPI INVALID JUMPDEST PUSH1 0x0 SWAP2 DUP3 MSTORE PUSH1 0x20 SWAP1 SWAP2 KECCAK256 ADD SLOAD PUSH1 0x2 DUP1 SLOAD PUSH1 0x1 PUSH1 0xA0 PUSH1 0x2 EXP SUB SWAP1 SWAP3 AND SWAP2 DUP4 SWAP1 DUP2 LT PUSH2 0x803 JUMPI INVALID JUMPDEST PUSH1 0x0 SWAP2 DUP3 MSTORE PUSH1 0x20 SWAP1 SWAP2 KECCAK256 ADD DUP1 SLOAD PUSH20 0xFFFFFFFFFFFFFFFFFFFFFFFFFFFFFFFFFFFFFFFF NOT AND PUSH1 0x1 PUSH1 0xA0 PUSH1 0x2 EXP SUB SWAP3 SWAP1 SWAP3 AND SWAP2 SWAP1 SWAP2 OR SWAP1 SSTORE PUSH1 0x2 DUP1 SLOAD PUSH1 0x0 NOT ADD SWAP1 PUSH2 0x84C SWAP1 DUP3 PUSH2 0xE3C JUMP JUMPDEST POP PUSH1 0x40 MLOAD CALLER SWAP1 PUSH1 0x1 PUSH1 0xA0 PUSH1 0x2 EXP SUB DUP5 AND SWAP1 PUSH32 0x1F32C1B084E2DE0713B8FB16BD46BB9DF710A3DBEAE2F3CA93AF46E016DCC6B0 SWAP1 PUSH1 0x0 SWAP1 LOG3 POP POP JUMP JUMPDEST CALLER PUSH1 0x0 SWAP1 DUP2 MSTORE PUSH1 0x1 PUSH1 0x20 SWAP1 DUP2 MSTORE PUSH1 0x40 SWAP2 DUP3 SWAP1 KECCAK256 SLOAD DUP3 MLOAD DUP1 DUP5 ADD SWAP1 SWAP4 MSTORE PUSH1 0x15 DUP4 MSTORE PUSH32 0x53454E4445525F4E4F545F415554484F52495A45440000000000000000000000 SWAP2 DUP4 ADD SWAP2 SWAP1 SWAP2 MSTORE PUSH1 0xFF AND ISZERO ISZERO PUSH2 0x8F4 JUMPI PUSH1 0x40 MLOAD PUSH1 0xE5 PUSH1 0x2 EXP PUSH3 0x461BCD MUL DUP2 MSTORE PUSH1 0x4 ADD PUSH2 0x298 SWAP2 SWAP1 PUSH2 0x1418 JUMP JUMPDEST POP PUSH2 0x4C6 DUP6 DUP6 DUP1 DUP1 PUSH1 0x1F ADD PUSH1 0x20 DUP1 SWAP2 DIV MUL PUSH1 0x20 ADD PUSH1 0x40 MLOAD SWAP1 DUP2 ADD PUSH1 0x40 MSTORE DUP1 SWAP4 SWAP3 SWAP2 SWAP1 DUP2 DUP2 MSTORE PUSH1 0x20 ADD DUP4 DUP4 DUP1 DUP3 DUP5 CALLDATACOPY DUP3 ADD SWAP2 POP POP POP POP POP POP DUP5 DUP5 DUP5 PUSH2 0xA18 JUMP JUMPDEST PUSH1 0x2 JUMPDEST SWAP1 JUMP JUMPDEST PUSH1 0x1 PUSH1 0x20 MSTORE PUSH1 0x0 SWAP1 DUP2 MSTORE PUSH1 0x40 SWAP1 KECCAK256 SLOAD PUSH1 0xFF AND DUP2 JUMP JUMPDEST PUSH1 0x60 PUSH1 0x2 DUP1 SLOAD DUP1 PUSH1 0x20 MUL PUSH1 0x20 ADD PUSH1 0x40 MLOAD SWAP1 DUP2 ADD PUSH1 0x40 MSTORE DUP1 SWAP3 SWAP2 SWAP1 DUP2 DUP2 MSTORE PUSH1 0x20 ADD DUP3 DUP1 SLOAD DUP1 ISZERO PUSH2 0x9A6 JUMPI PUSH1 0x20 MUL DUP3 ADD SWAP2 SWAP1 PUSH1 0x0 MSTORE PUSH1 0x20 PUSH1 0x0 KECCAK256 SWAP1 JUMPDEST DUP2 SLOAD PUSH1 0x1 PUSH1 0xA0 PUSH1 0x2 EXP SUB AND DUP2 MSTORE PUSH1 0x1 SWAP1 SWAP2 ADD SWAP1 PUSH1 0x20 ADD DUP1 DUP4 GT PUSH2 0x988 JUMPI JUMPDEST POP POP POP POP POP SWAP1 POP SWAP1 JUMP JUMPDEST PUSH1 0x0 SLOAD PUSH1 0x1 PUSH1 0xA0 PUSH1 0x2 EXP SUB AND CALLER EQ PUSH2 0x9DD JUMPI PUSH1 0x40 MLOAD PUSH1 0xE5 PUSH1 0x2 EXP PUSH3 0x461BCD MUL DUP2 MSTORE PUSH1 0x4 ADD PUSH2 0x298 SWAP1 PUSH2 0x1429 JUMP JUMPDEST PUSH1 0x1 PUSH1 0xA0 PUSH1 0x2 EXP SUB DUP2 AND ISZERO PUSH2 0xA15 JUMPI PUSH1 0x0 DUP1 SLOAD PUSH20 0xFFFFFFFFFFFFFFFFFFFFFFFFFFFFFFFFFFFFFFFF NOT AND PUSH1 0x1 PUSH1 0xA0 PUSH1 0x2 EXP SUB DUP4 AND OR SWAP1 SSTORE JUMPDEST POP JUMP JUMPDEST PUSH1 0x40 DUP1 MLOAD DUP1 DUP3 ADD SWAP1 SWAP2 MSTORE PUSH1 0xE DUP2 MSTORE PUSH32 0x494E56414C49445F414D4F554E54000000000000000000000000000000000000 PUSH1 0x20 DUP3 ADD MSTORE PUSH1 0x0 SWAP1 DUP2 SWAP1 PUSH1 0x60 SWAP1 PUSH1 0x1 DUP6 EQ PUSH2 0xA78 JUMPI PUSH1 0x40 MLOAD PUSH1 0xE5 PUSH1 0x2 EXP PUSH3 0x461BCD MUL DUP2 MSTORE PUSH1 0x4 ADD PUSH2 0x298 SWAP2 SWAP1 PUSH2 0x1418 JUMP JUMPDEST POP PUSH2 0xA82 DUP8 PUSH2 0xB11 JUMP JUMPDEST SWAP3 POP SWAP3 POP SWAP3 POP DUP3 PUSH1 0x1 PUSH1 0xA0 PUSH1 0x2 EXP SUB AND PUSH4 0xB88D4FDE DUP8 DUP8 DUP6 DUP6 PUSH1 0x40 MLOAD DUP6 PUSH4 0xFFFFFFFF AND PUSH29 0x100000000000000000000000000000000000000000000000000000000 MUL DUP2 MSTORE PUSH1 0x4 ADD PUSH2 0xAD6 SWAP5 SWAP4 SWAP3 SWAP2 SWAP1 PUSH2 0x137F JUMP JUMPDEST PUSH1 0x0 PUSH1 0x40 MLOAD DUP1 DUP4 SUB DUP2 PUSH1 0x0 DUP8 DUP1 EXTCODESIZE ISZERO DUP1 ISZERO PUSH2 0xAF0 JUMPI PUSH1 0x0 DUP1 REVERT JUMPDEST POP GAS CALL ISZERO DUP1 ISZERO PUSH2 0xB04 JUMPI RETURNDATASIZE PUSH1 0x0 DUP1 RETURNDATACOPY RETURNDATASIZE PUSH1 0x0 REVERT JUMPDEST POP POP POP POP POP POP POP POP POP POP POP JUMP JUMPDEST PUSH1 0x0 DUP1 PUSH1 0x60 PUSH2 0xB21 DUP5 PUSH1 0x0 PUSH2 0xB4F JUMP JUMPDEST SWAP3 POP PUSH2 0xB2E DUP5 PUSH1 0x14 PUSH2 0xBF6 JUMP JUMPDEST SWAP2 POP PUSH1 0x34 DUP5 MLOAD GT ISZERO PUSH2 0xB48 JUMPI PUSH2 0xB45 DUP5 PUSH1 0x34 PUSH2 0xC09 JUMP JUMPDEST SWAP1 POP JUMPDEST SWAP2 SWAP4 SWAP1 SWAP3 POP JUMP JUMPDEST PUSH1 0x0 DUP2 PUSH1 0x14 ADD DUP4 MLOAD LT ISZERO PUSH1 0x60 PUSH1 0x40 MLOAD SWAP1 DUP2 ADD PUSH1 0x40 MSTORE DUP1 PUSH1 0x26 DUP2 MSTORE PUSH1 0x20 ADD PUSH32 0x475245415445525F4F525F455155414C5F544F5F32305F4C454E4754485F5245 DUP2 MSTORE PUSH1 0x20 ADD PUSH32 0x5155495245440000000000000000000000000000000000000000000000000000 DUP2 MSTORE POP SWAP1 ISZERO ISZERO PUSH2 0xBD9 JUMPI PUSH1 0x40 MLOAD PUSH1 0xE5 PUSH1 0x2 EXP PUSH3 0x461BCD MUL DUP2 MSTORE PUSH1 0x4 ADD PUSH2 0x298 SWAP2 SWAP1 PUSH2 0x1418 JUMP JUMPDEST POP POP PUSH1 0x14 DUP2 DUP4 ADD DUP2 ADD MLOAD SWAP2 ADD SWAP1 PUSH1 0x1 PUSH1 0xA0 PUSH1 0x2 EXP SUB AND JUMPDEST SWAP3 SWAP2 POP POP JUMP JUMPDEST PUSH1 0x0 PUSH2 0xC02 DUP4 DUP4 PUSH2 0xD02 JUMP JUMPDEST SWAP4 SWAP3 POP POP POP JUMP JUMPDEST PUSH1 0x60 PUSH1 0x0 PUSH2 0xC17 DUP5 DUP5 PUSH2 0xBF6 JUMP JUMPDEST SWAP1 POP PUSH1 0x20 DUP4 ADD SWAP3 POP DUP1 DUP4 ADD DUP5 MLOAD LT ISZERO PUSH1 0x60 PUSH1 0x40 MLOAD SWAP1 DUP2 ADD PUSH1 0x40 MSTORE DUP1 PUSH1 0x30 DUP2 MSTORE PUSH1 0x20 ADD PUSH32 0x475245415445525F4F525F455155414C5F544F5F4E45535445445F4259544553 DUP2 MSTORE PUSH1 0x20 ADD PUSH32 0x5F4C454E4754485F524551554952454400000000000000000000000000000000 DUP2 MSTORE POP SWAP1 ISZERO ISZERO PUSH2 0xCA6 JUMPI PUSH1 0x40 MLOAD PUSH1 0xE5 PUSH1 0x2 EXP PUSH3 0x461BCD MUL DUP2 MSTORE PUSH1 0x4 ADD PUSH2 0x298 SWAP2 SWAP1 PUSH2 0x1418 JUMP JUMPDEST POP DUP1 PUSH1 0x40 MLOAD SWAP1 DUP1 DUP3 MSTORE DUP1 PUSH1 0x1F ADD PUSH1 0x1F NOT AND PUSH1 0x20 ADD DUP3 ADD PUSH1 0x40 MSTORE DUP1 ISZERO PUSH2 0xCD5 JUMPI DUP2 PUSH1 0x20 ADD PUSH1 0x20 DUP3 MUL DUP1 CODESIZE DUP4 CODECOPY ADD SWAP1 POP JUMPDEST POP SWAP2 POP PUSH2 0xCFB PUSH2 0xCE4 DUP4 PUSH2 0x936 JUMP JUMPDEST PUSH1 0x20 ADD DUP5 PUSH2 0xCF1 DUP8 PUSH2 0x936 JUMP JUMPDEST ADD PUSH1 0x20 ADD DUP4 PUSH2 0xD96 JUMP JUMPDEST POP SWAP3 SWAP2 POP POP JUMP JUMPDEST PUSH1 0x0 DUP2 PUSH1 0x20 ADD DUP4 MLOAD LT ISZERO PUSH1 0x60 PUSH1 0x40 MLOAD SWAP1 DUP2 ADD PUSH1 0x40 MSTORE DUP1 PUSH1 0x26 DUP2 MSTORE PUSH1 0x20 ADD PUSH32 0x475245415445525F4F525F455155414C5F544F5F33325F4C454E4754485F5245 DUP2 MSTORE PUSH1 0x20 ADD PUSH32 0x5155495245440000000000000000000000000000000000000000000000000000 DUP2 MSTORE POP SWAP1 ISZERO ISZERO PUSH2 0xD8C JUMPI PUSH1 0x40 MLOAD PUSH1 0xE5 PUSH1 0x2 EXP PUSH3 0x461BCD MUL DUP2 MSTORE PUSH1 0x4 ADD PUSH2 0x298 SWAP2 SWAP1 PUSH2 0x1418 JUMP JUMPDEST POP POP ADD PUSH1 0x20 ADD MLOAD SWAP1 JUMP JUMPDEST PUSH1 0x20 DUP2 LT ISZERO PUSH2 0xDC0 JUMPI PUSH1 0x1 DUP2 PUSH1 0x20 SUB PUSH2 0x100 EXP SUB DUP1 NOT DUP4 MLOAD AND DUP2 DUP6 MLOAD AND DUP1 DUP3 OR DUP7 MSTORE POP POP POP PUSH2 0xE37 JUMP JUMPDEST DUP3 DUP3 EQ ISZERO PUSH2 0xDCD JUMPI PUSH2 0xE37 JUMP JUMPDEST DUP3 DUP3 GT ISZERO PUSH2 0xE07 JUMPI PUSH1 0x20 DUP2 SUB SWAP1 POP DUP1 DUP3 ADD DUP2 DUP5 ADD DUP2 MLOAD JUMPDEST DUP3 DUP6 LT ISZERO PUSH2 0xDFF JUMPI DUP5 MLOAD DUP7 MSTORE PUSH1 0x20 SWAP6 DUP7 ADD SWAP6 SWAP1 SWAP5 ADD SWAP4 PUSH2 0xDE4 JUMP JUMPDEST SWAP1 MSTORE POP PUSH2 0xE37 JUMP JUMPDEST PUSH1 0x20 DUP2 SUB SWAP1 POP DUP1 DUP3 ADD DUP2 DUP5 ADD DUP4 MLOAD JUMPDEST DUP2 DUP7 SLT ISZERO PUSH2 0xE32 JUMPI DUP3 MLOAD DUP3 MSTORE PUSH1 0x1F NOT SWAP3 DUP4 ADD SWAP3 SWAP1 SWAP2 ADD SWAP1 PUSH2 0xE16 JUMP JUMPDEST DUP6 MSTORE POP POP JUMPDEST POP POP POP JUMP JUMPDEST DUP2 SLOAD DUP2 DUP4 SSTORE DUP2 DUP2 GT ISZERO PUSH2 0xE37 JUMPI PUSH1 0x0 DUP4 DUP2 MSTORE PUSH1 0x20 SWAP1 KECCAK256 PUSH2 0xE37 SWAP2 DUP2 ADD SWAP1 DUP4 ADD PUSH2 0x936 SWAP2 SWAP1 JUMPDEST DUP1 DUP3 GT ISZERO PUSH2 0xE75 JUMPI PUSH1 0x0 DUP2 SSTORE PUSH1 0x1 ADD PUSH2 0xE61 JUMP JUMPDEST POP SWAP1 JUMP JUMPDEST PUSH1 0x0 PUSH2 0xC02 DUP3 CALLDATALOAD PUSH2 0x14C1 JUMP JUMPDEST PUSH1 0x0 PUSH1 0x1F DUP3 ADD DUP4 SGT PUSH2 0xE96 JUMPI PUSH1 0x0 DUP1 REVERT JUMPDEST DUP2 CALLDATALOAD PUSH2 0xEA9 PUSH2 0xEA4 DUP3 PUSH2 0x146E JUMP JUMPDEST PUSH2 0x1447 JUMP JUMPDEST SWAP2 POP DUP2 DUP2 DUP4 MSTORE PUSH1 0x20 DUP5 ADD SWAP4 POP PUSH1 0x20 DUP2 ADD SWAP1 POP DUP4 DUP6 PUSH1 0x20 DUP5 MUL DUP3 ADD GT ISZERO PUSH2 0xECE JUMPI PUSH1 0x0 DUP1 REVERT JUMPDEST PUSH1 0x0 JUMPDEST DUP4 DUP2 LT ISZERO PUSH2 0xEFA JUMPI DUP2 PUSH2 0xEE4 DUP9 DUP3 PUSH2 0xE79 JUMP JUMPDEST DUP5 MSTORE POP PUSH1 0x20 SWAP3 DUP4 ADD SWAP3 SWAP2 SWAP1 SWAP2 ADD SWAP1 PUSH1 0x1 ADD PUSH2 0xED1 JUMP JUMPDEST POP POP POP POP SWAP3 SWAP2 POP POP JUMP JUMPDEST PUSH1 0x0 PUSH1 0x1F DUP3 ADD DUP4 SGT PUSH2 0xF15 JUMPI PUSH1 0x0 DUP1 REVERT JUMPDEST DUP2 CALLDATALOAD PUSH2 0xF23 PUSH2 0xEA4 DUP3 PUSH2 0x146E JUMP JUMPDEST DUP2 DUP2 MSTORE PUSH1 0x20 SWAP4 DUP5 ADD SWAP4 SWAP1 SWAP3 POP DUP3 ADD DUP4 PUSH1 0x0 JUMPDEST DUP4 DUP2 LT ISZERO PUSH2 0xEFA JUMPI DUP2 CALLDATALOAD DUP7 ADD PUSH2 0xF4B DUP9 DUP3 PUSH2 0x101A JUMP JUMPDEST DUP5 MSTORE POP PUSH1 0x20 SWAP3 DUP4 ADD SWAP3 SWAP2 SWAP1 SWAP2 ADD SWAP1 PUSH1 0x1 ADD PUSH2 0xF35 JUMP JUMPDEST PUSH1 0x0 PUSH1 0x1F DUP3 ADD DUP4 SGT PUSH2 0xF72 JUMPI PUSH1 0x0 DUP1 REVERT JUMPDEST DUP2 CALLDATALOAD PUSH2 0xF80 PUSH2 0xEA4 DUP3 PUSH2 0x146E JUMP JUMPDEST SWAP2 POP DUP2 DUP2 DUP4 MSTORE PUSH1 0x20 DUP5 ADD SWAP4 POP PUSH1 0x20 DUP2 ADD SWAP1 POP DUP4 DUP6 PUSH1 0x20 DUP5 MUL DUP3 ADD GT ISZERO PUSH2 0xFA5 JUMPI PUSH1 0x0 DUP1 REVERT JUMPDEST PUSH1 0x0 JUMPDEST DUP4 DUP2 LT ISZERO PUSH2 0xEFA JUMPI DUP2 PUSH2 0xFBB DUP9 DUP3 PUSH2 0x1069 JUMP JUMPDEST DUP5 MSTORE POP PUSH1 0x20 SWAP3 DUP4 ADD SWAP3 SWAP2 SWAP1 SWAP2 ADD SWAP1 PUSH1 0x1 ADD PUSH2 0xFA8 JUMP JUMPDEST PUSH1 0x0 DUP1 PUSH1 0x1F DUP4 ADD DUP5 SGT PUSH2 0xFE3 JUMPI PUSH1 0x0 DUP1 REVERT JUMPDEST POP DUP2 CALLDATALOAD PUSH8 0xFFFFFFFFFFFFFFFF DUP2 GT ISZERO PUSH2 0xFFB JUMPI PUSH1 0x0 DUP1 REVERT JUMPDEST PUSH1 0x20 DUP4 ADD SWAP2 POP DUP4 PUSH1 0x1 DUP3 MUL DUP4 ADD GT ISZERO PUSH2 0x1013 JUMPI PUSH1 0x0 DUP1 REVERT JUMPDEST SWAP3 POP SWAP3 SWAP1 POP JUMP JUMPDEST PUSH1 0x0 PUSH1 0x1F DUP3 ADD DUP4 SGT PUSH2 0x102B JUMPI PUSH1 0x0 DUP1 REVERT JUMPDEST DUP2 CALLDATALOAD PUSH2 0x1039 PUSH2 0xEA4 DUP3 PUSH2 0x148F JUMP JUMPDEST SWAP2 POP DUP1 DUP3 MSTORE PUSH1 0x20 DUP4 ADD PUSH1 0x20 DUP4 ADD DUP6 DUP4 DUP4 ADD GT ISZERO PUSH2 0x1055 JUMPI PUSH1 0x0 DUP1 REVERT JUMPDEST PUSH2 0x1060 DUP4 DUP3 DUP5 PUSH2 0x14D8 JUMP JUMPDEST POP POP POP SWAP3 SWAP2 POP POP JUMP JUMPDEST PUSH1 0x0 PUSH2 0xC02 DUP3 CALLDATALOAD PUSH2 0x936 JUMP JUMPDEST PUSH1 0x0 PUSH1 0x20 DUP3 DUP5 SUB SLT ISZERO PUSH2 0x1087 JUMPI PUSH1 0x0 DUP1 REVERT JUMPDEST PUSH1 0x0 PUSH2 0x1093 DUP5 DUP5 PUSH2 0xE79 JUMP JUMPDEST SWAP5 SWAP4 POP POP POP POP JUMP JUMPDEST PUSH1 0x0 DUP1 PUSH1 0x40 DUP4 DUP6 SUB SLT ISZERO PUSH2 0x10AE JUMPI PUSH1 0x0 DUP1 REVERT JUMPDEST PUSH1 0x0 PUSH2 0x10BA DUP6 DUP6 PUSH2 0xE79 JUMP JUMPDEST SWAP3 POP POP PUSH1 0x20 PUSH2 0x10CB DUP6 DUP3 DUP7 ADD PUSH2 0x1069 JUMP JUMPDEST SWAP2 POP POP SWAP3 POP SWAP3 SWAP1 POP JUMP JUMPDEST PUSH1 0x0 DUP1 PUSH1 0x0 DUP1 PUSH1 0x80 DUP6 DUP8 SUB SLT ISZERO PUSH2 0x10EB JUMPI PUSH1 0x0 DUP1 REVERT JUMPDEST DUP5 CALLDATALOAD PUSH8 0xFFFFFFFFFFFFFFFF DUP2 GT ISZERO PUSH2 0x1102 JUMPI PUSH1 0x0 DUP1 REVERT JUMPDEST PUSH2 0x110E DUP8 DUP3 DUP9 ADD PUSH2 0xF04 JUMP JUMPDEST SWAP5 POP POP PUSH1 0x20 DUP6 ADD CALLDATALOAD PUSH8 0xFFFFFFFFFFFFFFFF DUP2 GT ISZERO PUSH2 0x112B JUMPI PUSH1 0x0 DUP1 REVERT JUMPDEST PUSH2 0x1137 DUP8 DUP3 DUP9 ADD PUSH2 0xE85 JUMP JUMPDEST SWAP4 POP POP PUSH1 0x40 DUP6 ADD CALLDATALOAD PUSH8 0xFFFFFFFFFFFFFFFF DUP2 GT ISZERO PUSH2 0x1154 JUMPI PUSH1 0x0 DUP1 REVERT JUMPDEST PUSH2 0x1160 DUP8 DUP3 DUP9 ADD PUSH2 0xE85 JUMP JUMPDEST SWAP3 POP POP PUSH1 0x60 DUP6 ADD CALLDATALOAD PUSH8 0xFFFFFFFFFFFFFFFF DUP2 GT ISZERO PUSH2 0x117D JUMPI PUSH1 0x0 DUP1 REVERT JUMPDEST PUSH2 0x1189 DUP8 DUP3 DUP9 ADD PUSH2 0xF61 JUMP JUMPDEST SWAP2 POP POP SWAP3 SWAP6 SWAP2 SWAP5 POP SWAP3 POP JUMP JUMPDEST PUSH1 0x0 DUP1 PUSH1 0x0 DUP1 PUSH1 0x0 PUSH1 0x80 DUP7 DUP9 SUB SLT ISZERO PUSH2 0x11AD JUMPI PUSH1 0x0 DUP1 REVERT JUMPDEST DUP6 CALLDATALOAD PUSH8 0xFFFFFFFFFFFFFFFF DUP2 GT ISZERO PUSH2 0x11C4 JUMPI PUSH1 0x0 DUP1 REVERT JUMPDEST PUSH2 0x11D0 DUP9 DUP3 DUP10 ADD PUSH2 0xFD1 JUMP JUMPDEST SWAP6 POP SWAP6 POP POP PUSH1 0x20 PUSH2 0x11E3 DUP9 DUP3 DUP10 ADD PUSH2 0xE79 JUMP JUMPDEST SWAP4 POP POP PUSH1 0x40 PUSH2 0x11F4 DUP9 DUP3 DUP10 ADD PUSH2 0xE79 JUMP JUMPDEST SWAP3 POP POP PUSH1 0x60 PUSH2 0x1205 DUP9 DUP3 DUP10 ADD PUSH2 0x1069 JUMP JUMPDEST SWAP2 POP POP SWAP3 SWAP6 POP SWAP3 SWAP6 SWAP1 SWAP4 POP JUMP JUMPDEST PUSH1 0x0 PUSH1 0x20 DUP3 DUP5 SUB SLT ISZERO PUSH2 0x1224 JUMPI PUSH1 0x0 DUP1 REVERT JUMPDEST DUP2 CALLDATALOAD PUSH8 0xFFFFFFFFFFFFFFFF DUP2 GT ISZERO PUSH2 0x123B JUMPI PUSH1 0x0 DUP1 REVERT JUMPDEST PUSH2 0x1093 DUP5 DUP3 DUP6 ADD PUSH2 0x101A JUMP JUMPDEST PUSH1 0x0 PUSH1 0x20 DUP3 DUP5 SUB SLT ISZERO PUSH2 0x1259 JUMPI PUSH1 0x0 DUP1 REVERT JUMPDEST PUSH1 0x0 PUSH2 0x1093 DUP5 DUP5 PUSH2 0x1069 JUMP JUMPDEST PUSH2 0x126E DUP2 PUSH2 0x14C1 JUMP JUMPDEST DUP3 MSTORE POP POP JUMP JUMPDEST PUSH1 0x0 PUSH2 0x127F DUP3 PUSH2 0x14BD JUMP JUMPDEST DUP1 DUP5 MSTORE PUSH1 0x20 DUP5 ADD SWAP4 POP PUSH2 0x1291 DUP4 PUSH2 0x14B7 JUMP JUMPDEST PUSH1 0x0 JUMPDEST DUP3 DUP2 LT ISZERO PUSH2 0x12C1 JUMPI PUSH2 0x12A7 DUP7 DUP4 MLOAD PUSH2 0x1265 JUMP JUMPDEST PUSH2 0x12B0 DUP3 PUSH2 0x14B7 JUMP JUMPDEST PUSH1 0x20 SWAP7 SWAP1 SWAP7 ADD SWAP6 SWAP2 POP PUSH1 0x1 ADD PUSH2 0x1294 JUMP JUMPDEST POP SWAP4 SWAP5 SWAP4 POP POP POP POP JUMP JUMPDEST PUSH2 0x126E DUP2 PUSH2 0x14CD JUMP JUMPDEST PUSH1 0x0 PUSH2 0x12DF DUP3 PUSH2 0x14BD JUMP JUMPDEST DUP1 DUP5 MSTORE PUSH2 0x12F3 DUP2 PUSH1 0x20 DUP7 ADD PUSH1 0x20 DUP7 ADD PUSH2 0x14E4 JUMP JUMPDEST PUSH2 0x12FC DUP2 PUSH2 0x1514 JUMP JUMPDEST SWAP1 SWAP4 ADD PUSH1 0x20 ADD SWAP4 SWAP3 POP POP POP JUMP JUMPDEST PUSH1 0x33 DUP2 MSTORE PUSH32 0x4F6E6C7920636F6E7472616374206F776E657220697320616C6C6F7765642074 PUSH1 0x20 DUP3 ADD MSTORE PUSH32 0x6F2063616C6C2074686973206D6574686F642E00000000000000000000000000 PUSH1 0x40 DUP3 ADD MSTORE PUSH1 0x60 ADD SWAP1 JUMP JUMPDEST PUSH2 0x126E DUP2 PUSH2 0x936 JUMP JUMPDEST PUSH2 0x126E DUP2 PUSH2 0x14D2 JUMP JUMPDEST PUSH1 0x20 DUP2 ADD PUSH2 0xBF0 DUP3 DUP5 PUSH2 0x1265 JUMP JUMPDEST PUSH1 0x80 DUP2 ADD PUSH2 0x138D DUP3 DUP8 PUSH2 0x1265 JUMP JUMPDEST PUSH2 0x139A PUSH1 0x20 DUP4 ADD DUP7 PUSH2 0x1265 JUMP JUMPDEST PUSH2 0x13A7 PUSH1 0x40 DUP4 ADD DUP6 PUSH2 0x135F JUMP JUMPDEST DUP2 DUP2 SUB PUSH1 0x60 DUP4 ADD MSTORE PUSH2 0x13B9 DUP2 DUP5 PUSH2 0x12D4 JUMP JUMPDEST SWAP7 SWAP6 POP POP POP POP POP POP JUMP JUMPDEST PUSH1 0x60 DUP2 ADD PUSH2 0x13D1 DUP3 DUP7 PUSH2 0x1265 JUMP JUMPDEST PUSH2 0x13DE PUSH1 0x20 DUP4 ADD DUP6 PUSH2 0x135F JUMP JUMPDEST DUP2 DUP2 SUB PUSH1 0x40 DUP4 ADD MSTORE PUSH2 0x13F0 DUP2 DUP5 PUSH2 0x12D4 JUMP JUMPDEST SWAP6 SWAP5 POP POP POP POP POP JUMP JUMPDEST PUSH1 0x20 DUP1 DUP3 MSTORE DUP2 ADD PUSH2 0xC02 DUP2 DUP5 PUSH2 0x1274 JUMP JUMPDEST PUSH1 0x20 DUP2 ADD PUSH2 0xBF0 DUP3 DUP5 PUSH2 0x12CB JUMP JUMPDEST PUSH1 0x20 DUP1 DUP3 MSTORE DUP2 ADD PUSH2 0xC02 DUP2 DUP5 PUSH2 0x12D4 JUMP JUMPDEST PUSH1 0x20 DUP1 DUP3 MSTORE DUP2 ADD PUSH2 0xBF0 DUP2 PUSH2 0x1309 JUMP JUMPDEST PUSH1 0x20 DUP2 ADD PUSH2 0xBF0 DUP3 DUP5 PUSH2 0x1368 JUMP JUMPDEST PUSH1 0x40 MLOAD DUP2 DUP2 ADD PUSH8 0xFFFFFFFFFFFFFFFF DUP2 GT DUP3 DUP3 LT OR ISZERO PUSH2 0x1466 JUMPI PUSH1 0x0 DUP1 REVERT JUMPDEST PUSH1 0x40 MSTORE SWAP2 SWAP1 POP JUMP JUMPDEST PUSH1 0x0 PUSH8 0xFFFFFFFFFFFFFFFF DUP3 GT ISZERO PUSH2 0x1485 JUMPI PUSH1 0x0 DUP1 REVERT JUMPDEST POP PUSH1 0x20 SWAP1 DUP2 MUL ADD SWAP1 JUMP JUMPDEST PUSH1 0x0 PUSH8 0xFFFFFFFFFFFFFFFF DUP3 GT ISZERO PUSH2 0x14A6 JUMPI PUSH1 0x0 DUP1 REVERT JUMPDEST POP PUSH1 0x20 PUSH1 0x1F SWAP2 SWAP1 SWAP2 ADD PUSH1 0x1F NOT AND ADD SWAP1 JUMP JUMPDEST PUSH1 0x20 ADD SWAP1 JUMP JUMPDEST MLOAD SWAP1 JUMP JUMPDEST PUSH1 0x1 PUSH1 0xA0 PUSH1 0x2 EXP SUB AND SWAP1 JUMP JUMPDEST ISZERO ISZERO SWAP1 JUMP JUMPDEST PUSH1 0xFF AND SWAP1 JUMP JUMPDEST DUP3 DUP2 DUP4 CALLDATACOPY POP PUSH1 0x0 SWAP2 ADD MSTORE JUMP JUMPDEST PUSH1 0x0 JUMPDEST DUP4 DUP2 LT ISZERO PUSH2 0x14FF JUMPI DUP2 DUP2 ADD MLOAD DUP4 DUP3 ADD MSTORE PUSH1 0x20 ADD PUSH2 0x14E7 JUMP JUMPDEST DUP4 DUP2 GT ISZERO PUSH2 0x150E JUMPI PUSH1 0x0 DUP5 DUP5 ADD MSTORE JUMPDEST POP POP POP POP JUMP JUMPDEST PUSH1 0x1F ADD PUSH1 0x1F NOT AND SWAP1 JUMP STOP LOG2 PUSH6 0x627A7A723058 KECCAK256 0xc0 0xe1 0x25 0x4b PUSH11 0x6E47D3753FADF9B2EE898B 0xdf 0xce 0xe2 LOG2 MSIZE EXTCODESIZE 0xe8 PUSH12 0xE1ECAD7C815324356C657870 PUSH6 0x72696D656E74 PUSH2 0x6CF5 STOP CALLDATACOPY "
			}
		}
	},
	"sourceTreeHashHex": "0x94c2c56bca5e65c7e7c77dbcf4a179f874d7608b2ade43fd78962ab1caa81656",
	"compiler": {
		"name": "solc",
		"version": "soljson-v0.4.24+commit.e67f0147.js",
		"settings": {
			"optimizer": {
				"enabled": true,
				"runs": 200
			},
			"outputSelection": {
				"*": {
					"*": [
						"abi",
						"evm.bytecode.object",
						"evm.bytecode.sourceMap",
						"evm.deployedBytecode.object",
						"evm.deployedBytecode.sourceMap"
					]
				}
			}
		}
	}
}