{
	"schemaVersion": "2.0.0",
	"contractName": "TestAssetProxyDispatcher",
	"compilerOutput": {
		"abi": [
			{
				"constant": true,
				"inputs": [
					{
						"name": "",
						"type": "bytes4"
					}
				],
				"name": "assetProxies",
				"outputs": [
					{
						"name": "",
						"type": "address"
					}
				],
				"payable": false,
				"stateMutability": "view",
				"type": "function"
			},
			{
				"constant": true,
				"inputs": [
					{
						"name": "assetProxyId",
						"type": "bytes4"
					}
				],
				"name": "getAssetProxy",
				"outputs": [
					{
						"name": "",
						"type": "address"
					}
				],
				"payable": false,
				"stateMutability": "view",
				"type": "function"
			},
			{
				"constant": false,
				"inputs": [
					{
						"name": "assetProxyId",
						"type": "bytes4"
					},
					{
						"name": "newAssetProxy",
						"type": "address"
					},
					{
						"name": "oldAssetProxy",
						"type": "address"
					}
				],
				"name": "registerAssetProxy",
				"outputs": [],
				"payable": false,
				"stateMutability": "nonpayable",
				"type": "function"
			},
			{
				"constant": false,
				"inputs": [
					{
						"name": "assetData",
						"type": "bytes"
					},
					{
						"name": "from",
						"type": "address"
					},
					{
						"name": "to",
						"type": "address"
					},
					{
						"name": "amount",
						"type": "uint256"
					}
				],
				"name": "publicDispatchTransferFrom",
				"outputs": [],
				"payable": false,
				"stateMutability": "nonpayable",
				"type": "function"
			},
			{
				"constant": true,
				"inputs": [],
				"name": "owner",
				"outputs": [
					{
						"name": "",
						"type": "address"
					}
				],
				"payable": false,
				"stateMutability": "view",
				"type": "function"
			},
			{
				"constant": false,
				"inputs": [
					{
						"name": "newOwner",
						"type": "address"
					}
				],
				"name": "transferOwnership",
				"outputs": [],
				"payable": false,
				"stateMutability": "nonpayable",
				"type": "function"
			},
			{
				"anonymous": false,
				"inputs": [
					{
						"indexed": false,
						"name": "id",
						"type": "bytes4"
					},
					{
						"indexed": false,
						"name": "newAssetProxy",
						"type": "address"
					},
					{
						"indexed": false,
						"name": "oldAssetProxy",
						"type": "address"
					}
				],
				"name": "AssetProxySet",
				"type": "event"
			}
		],
		"evm": {
			"bytecode": {
				"linkReferences": {},
				"object": "0x608060405260008054600160a060020a03191633179055610b4e806100256000396000f3006080604052600436106100775763ffffffff7c01000000000000000000000000000000000000000000000000000000006000350416633fd3c997811461007c57806360704108146100b2578063833abf3a146100df578063889b6d8d146101015780638da5cb5b14610121578063f2fde38b14610136575b600080fd5b34801561008857600080fd5b5061009c6100973660046107a3565b610156565b6040516100a991906109f1565b60405180910390f35b3480156100be57600080fd5b506100d26100cd3660046107a3565b61017e565b6040516100a991906109b5565b3480156100eb57600080fd5b506100ff6100fa3660046107df565b6101c8565b005b34801561010d57600080fd5b506100ff61011c36600461082c565b61047b565b34801561012d57600080fd5b506100d261048d565b34801561014257600080fd5b506100ff61015136600461077d565b6104a9565b60016020526000908152604090205473ffffffffffffffffffffffffffffffffffffffff1681565b7fffffffff000000000000000000000000000000000000000000000000000000001660009081526001602052604090205473ffffffffffffffffffffffffffffffffffffffff1690565b600080548190819073ffffffffffffffffffffffffffffffffffffffff163314610227576040517f08c379a000000000000000000000000000000000000000000000000000000000815260040161021e90610a2f565b60405180910390fd5b7fffffffff00000000000000000000000000000000000000000000000000000000861660009081526001602052604090205473ffffffffffffffffffffffffffffffffffffffff9081169350841683146102ad576040517f08c379a000000000000000000000000000000000000000000000000000000000815260040161021e90610a3f565b84915073ffffffffffffffffffffffffffffffffffffffff8216156103c8578173ffffffffffffffffffffffffffffffffffffffff1663ae25532e6040518163ffffffff167c0100000000000000000000000000000000000000000000000000000000028152600401602060405180830381600087803b15801561033057600080fd5b505af1158015610344573d6000803e3d6000fd5b505050506040513d601f19601f8201168201806040525061036891908101906107c1565b90507fffffffff00000000000000000000000000000000000000000000000000000000808216908716146103c8576040517f08c379a000000000000000000000000000000000000000000000000000000000815260040161021e90610a0f565b7fffffffff0000000000000000000000000000000000000000000000000000000086166000908152600160205260409081902080547fffffffffffffffffffffffff00000000000000000000000000000000000000001673ffffffffffffffffffffffffffffffffffffffff8516179055517f8a2dd3a51ca5ffc0567e29c662be273787eba535497a208f9ef15bc4652f12149061046b908890889088906109c9565b60405180910390a1505050505050565b6104878484848461055a565b50505050565b60005473ffffffffffffffffffffffffffffffffffffffff1681565b60005473ffffffffffffffffffffffffffffffffffffffff1633146104fa576040517f08c379a000000000000000000000000000000000000000000000000000000000815260040161021e90610a2f565b73ffffffffffffffffffffffffffffffffffffffff81161561055757600080547fffffffffffffffffffffffff00000000000000000000000000000000000000001673ffffffffffffffffffffffffffffffffffffffff83161790555b50565b6000806000808411156106e95786516003106105a2576040517f08c379a000000000000000000000000000000000000000000000000000000000815260040161021e90610a1f565b6020878101517fffffffff00000000000000000000000000000000000000000000000000000000166000818152600190925260409091205490935073ffffffffffffffffffffffffffffffffffffffff16915081151561062e576040517f08c379a000000000000000000000000000000000000000000000000000000000815260040161021e906109ff565b604051660fffffffffffe0603f895101168060840182017fa85e59e40000000000000000000000000000000000000000000000000000000083526080600484015273ffffffffffffffffffffffffffffffffffffffff8916602484015273ffffffffffffffffffffffffffffffffffffffff88166044840152866064840152608483015b818110156106ca578a51815260209a8b019a016106b2565b610200848584038660008a5af194508415156106e4573d84fd5b505050505b50505050505050565b60006106fe8235610abc565b9392505050565b60006106fe8235610ad5565b60006106fe8251610ad5565b6000601f8201831361072e57600080fd5b813561074161073c82610a76565b610a4f565b9150808252602083016020830185838301111561075d57600080fd5b610768838284610b08565b50505092915050565b60006106fe8235610afa565b60006020828403121561078f57600080fd5b600061079b84846106f2565b949350505050565b6000602082840312156107b557600080fd5b600061079b8484610705565b6000602082840312156107d357600080fd5b600061079b8484610711565b6000806000606084860312156107f457600080fd5b60006108008686610705565b9350506020610811868287016106f2565b9250506040610822868287016106f2565b9150509250925092565b6000806000806080858703121561084257600080fd5b843567ffffffffffffffff81111561085957600080fd5b6108658782880161071d565b9450506020610876878288016106f2565b9350506040610887878288016106f2565b925050606061089887828801610771565b91505092959194509250565b6108ad81610abc565b82525050565b6108ad81610ad5565b6108ad81610afd565b601a81527f41535345545f50524f58595f444f45535f4e4f545f4558495354000000000000602082015260400190565b601781527f41535345545f50524f58595f49445f4d49534d41544348000000000000000000602082015260400190565b601e81527f4c454e4754485f475245415445525f5448414e5f335f52455155495245440000602082015260400190565b601381527f4f4e4c595f434f4e54524143545f4f574e455200000000000000000000000000602082015260400190565b601481527f41535345545f50524f58595f4d49534d41544348000000000000000000000000602082015260400190565b602081016109c382846108a4565b92915050565b606081016109d782866108b3565b6109e460208301856108a4565b61079b60408301846108a4565b602081016109c382846108bc565b602080825281016109c3816108c5565b602080825281016109c3816108f5565b602080825281016109c381610925565b602080825281016109c381610955565b602080825281016109c381610985565b60405181810167ffffffffffffffff81118282101715610a6e57600080fd5b604052919050565b600067ffffffffffffffff821115610a8d57600080fd5b506020601f919091017fffffffffffffffffffffffffffffffffffffffffffffffffffffffffffffffe0160190565b73ffffffffffffffffffffffffffffffffffffffff1690565b7fffffffff000000000000000000000000000000000000000000000000000000001690565b90565b60006109c382610abc565b828183375060009101525600a265627a7a723058205306f3d1d10ddc7abcb2d07cd4ced5aef2819c6060050482b7c9e8a6e1c884e96c6578706572696d656e74616cf50037",
				"opcodes": "PUSH1 0x80 PUSH1 0x40 MSTORE PUSH1 0x0 DUP1 SLOAD PUSH1 0x1 PUSH1 0xA0 PUSH1 0x2 EXP SUB NOT AND CALLER OR SWAP1 SSTORE PUSH2 0xB4E DUP1 PUSH2 0x25 PUSH1 0x0 CODECOPY PUSH1 0x0 RETURN STOP PUSH1 0x80 PUSH1 0x40 MSTORE PUSH1 0x4 CALLDATASIZE LT PUSH2 0x77 JUMPI PUSH4 0xFFFFFFFF PUSH29 0x100000000000000000000000000000000000000000000000000000000 PUSH1 0x0 CALLDATALOAD DIV AND PUSH4 0x3FD3C997 DUP2 EQ PUSH2 0x7C JUMPI DUP1 PUSH4 0x60704108 EQ PUSH2 0xB2 JUMPI DUP1 PUSH4 0x833ABF3A EQ PUSH2 0xDF JUMPI DUP1 PUSH4 0x889B6D8D EQ PUSH2 0x101 JUMPI DUP1 PUSH4 0x8DA5CB5B EQ PUSH2 0x121 JUMPI DUP1 PUSH4 0xF2FDE38B EQ PUSH2 0x136 JUMPI JUMPDEST PUSH1 0x0 DUP1 REVERT JUMPDEST CALLVALUE DUP1 ISZERO PUSH2 0x88 JUMPI PUSH1 0x0 DUP1 REVERT JUMPDEST POP PUSH2 0x9C PUSH2 0x97 CALLDATASIZE PUSH1 0x4 PUSH2 0x7A3 JUMP JUMPDEST PUSH2 0x156 JUMP JUMPDEST PUSH1 0x40 MLOAD PUSH2 0xA9 SWAP2 SWAP1 PUSH2 0x9F1 JUMP JUMPDEST PUSH1 0x40 MLOAD DUP1 SWAP2 SUB SWAP1 RETURN JUMPDEST CALLVALUE DUP1 ISZERO PUSH2 0xBE JUMPI PUSH1 0x0 DUP1 REVERT JUMPDEST POP PUSH2 0xD2 PUSH2 0xCD CALLDATASIZE PUSH1 0x4 PUSH2 0x7A3 JUMP JUMPDEST PUSH2 0x17E JUMP JUMPDEST PUSH1 0x40 MLOAD PUSH2 0xA9 SWAP2 SWAP1 PUSH2 0x9B5 JUMP JUMPDEST CALLVALUE DUP1 ISZERO PUSH2 0xEB JUMPI PUSH1 0x0 DUP1 REVERT JUMPDEST POP PUSH2 0xFF PUSH2 0xFA CALLDATASIZE PUSH1 0x4 PUSH2 0x7DF JUMP JUMPDEST PUSH2 0x1C8 JUMP JUMPDEST STOP JUMPDEST CALLVALUE DUP1 ISZERO PUSH2 0x10D JUMPI PUSH1 0x0 DUP1 REVERT JUMPDEST POP PUSH2 0xFF PUSH2 0x11C CALLDATASIZE PUSH1 0x4 PUSH2 0x82C JUMP JUMPDEST PUSH2 0x47B JUMP JUMPDEST CALLVALUE DUP1 ISZERO PUSH2 0x12D JUMPI PUSH1 0x0 DUP1 REVERT JUMPDEST POP PUSH2 0xD2 PUSH2 0x48D JUMP JUMPDEST CALLVALUE DUP1 ISZERO PUSH2 0x142 JUMPI PUSH1 0x0 DUP1 REVERT JUMPDEST POP PUSH2 0xFF PUSH2 0x151 CALLDATASIZE PUSH1 0x4 PUSH2 0x77D JUMP JUMPDEST PUSH2 0x4A9 JUMP JUMPDEST PUSH1 0x1 PUSH1 0x20 MSTORE PUSH1 0x0 SWAP1 DUP2 MSTORE PUSH1 0x40 SWAP1 KECCAK256 SLOAD PUSH20 0xFFFFFFFFFFFFFFFFFFFFFFFFFFFFFFFFFFFFFFFF AND DUP2 JUMP JUMPDEST PUSH32 0xFFFFFFFF00000000000000000000000000000000000000000000000000000000 AND PUSH1 0x0 SWAP1 DUP2 MSTORE PUSH1 0x1 PUSH1 0x20 MSTORE PUSH1 0x40 SWAP1 KECCAK256 SLOAD PUSH20 0xFFFFFFFFFFFFFFFFFFFFFFFFFFFFFFFFFFFFFFFF AND SWAP1 JUMP JUMPDEST PUSH1 0x0 DUP1 SLOAD DUP2 SWAP1 DUP2 SWAP1 PUSH20 0xFFFFFFFFFFFFFFFFFFFFFFFFFFFFFFFFFFFFFFFF AND CALLER EQ PUSH2 0x227 JUMPI PUSH1 0x40 MLOAD PUSH32 0x8C379A000000000000000000000000000000000000000000000000000000000 DUP2 MSTORE PUSH1 0x4 ADD PUSH2 0x21E SWAP1 PUSH2 0xA2F JUMP JUMPDEST PUSH1 0x40 MLOAD DUP1 SWAP2 SUB SWAP1 REVERT JUMPDEST PUSH32 0xFFFFFFFF00000000000000000000000000000000000000000000000000000000 DUP7 AND PUSH1 0x0 SWAP1 DUP2 MSTORE PUSH1 0x1 PUSH1 0x20 MSTORE PUSH1 0x40 SWAP1 KECCAK256 SLOAD PUSH20 0xFFFFFFFFFFFFFFFFFFFFFFFFFFFFFFFFFFFFFFFF SWAP1 DUP2 AND SWAP4 POP DUP5 AND DUP4 EQ PUSH2 0x2AD JUMPI PUSH1 0x40 MLOAD PUSH32 0x8C379A000000000000000000000000000000000000000000000000000000000 DUP2 MSTORE PUSH1 0x4 ADD PUSH2 0x21E SWAP1 PUSH2 0xA3F JUMP JUMPDEST DUP5 SWAP2 POP PUSH20 0xFFFFFFFFFFFFFFFFFFFFFFFFFFFFFFFFFFFFFFFF DUP3 AND ISZERO PUSH2 0x3C8 JUMPI DUP2 PUSH20 0xFFFFFFFFFFFFFFFFFFFFFFFFFFFFFFFFFFFFFFFF AND PUSH4 0xAE25532E PUSH1 0x40 MLOAD DUP2 PUSH4 0xFFFFFFFF AND PUSH29 0x100000000000000000000000000000000000000000000000000000000 MUL DUP2 MSTORE PUSH1 0x4 ADD PUSH1 0x20 PUSH1 0x40 MLOAD DUP1 DUP4 SUB DUP2 PUSH1 0x0 DUP8 DUP1 EXTCODESIZE ISZERO DUP1 ISZERO PUSH2 0x330 JUMPI PUSH1 0x0 DUP1 REVERT JUMPDEST POP GAS CALL ISZERO DUP1 ISZERO PUSH2 0x344 JUMPI RETURNDATASIZE PUSH1 0x0 DUP1 RETURNDATACOPY RETURNDATASIZE PUSH1 0x0 REVERT JUMPDEST POP POP POP POP PUSH1 0x40 MLOAD RETURNDATASIZE PUSH1 0x1F NOT PUSH1 0x1F DUP3 ADD AND DUP3 ADD DUP1 PUSH1 0x40 MSTORE POP PUSH2 0x368 SWAP2 SWAP1 DUP2 ADD SWAP1 PUSH2 0x7C1 JUMP JUMPDEST SWAP1 POP PUSH32 0xFFFFFFFF00000000000000000000000000000000000000000000000000000000 DUP1 DUP3 AND SWAP1 DUP8 AND EQ PUSH2 0x3C8 JUMPI PUSH1 0x40 MLOAD PUSH32 0x8C379A000000000000000000000000000000000000000000000000000000000 DUP2 MSTORE PUSH1 0x4 ADD PUSH2 0x21E SWAP1 PUSH2 0xA0F JUMP JUMPDEST PUSH32 0xFFFFFFFF00000000000000000000000000000000000000000000000000000000 DUP7 AND PUSH1 0x0 SWAP1 DUP2 MSTORE PUSH1 0x1 PUSH1 0x20 MSTORE PUSH1 0x40 SWAP1 DUP2 SWAP1 KECCAK256 DUP1 SLOAD PUSH32 0xFFFFFFFFFFFFFFFFFFFFFFFF0000000000000000000000000000000000000000 AND PUSH20 0xFFFFFFFFFFFFFFFFFFFFFFFFFFFFFFFFFFFFFFFF DUP6 AND OR SWAP1 SSTORE MLOAD PUSH32 0x8A2DD3A51CA5FFC0567E29C662BE273787EBA535497A208F9EF15BC4652F1214 SWAP1 PUSH2 0x46B SWAP1 DUP9 SWAP1 DUP9 SWAP1 DUP9 SWAP1 PUSH2 0x9C9 JUMP JUMPDEST PUSH1 0x40 MLOAD DUP1 SWAP2 SUB SWAP1 LOG1 POP POP POP POP POP POP JUMP JUMPDEST PUSH2 0x487 DUP5 DUP5 DUP5 DUP5 PUSH2 0x55A JUMP JUMPDEST POP POP POP POP JUMP JUMPDEST PUSH1 0x0 SLOAD PUSH20 0xFFFFFFFFFFFFFFFFFFFFFFFFFFFFFFFFFFFFFFFF AND DUP2 JUMP JUMPDEST PUSH1 0x0 SLOAD PUSH20 0xFFFFFFFFFFFFFFFFFFFFFFFFFFFFFFFFFFFFFFFF AND CALLER EQ PUSH2 0x4FA JUMPI PUSH1 0x40 MLOAD PUSH32 0x8C379A000000000000000000000000000000000000000000000000000000000 DUP2 MSTORE PUSH1 0x4 ADD PUSH2 0x21E SWAP1 PUSH2 0xA2F JUMP JUMPDEST PUSH20 0xFFFFFFFFFFFFFFFFFFFFFFFFFFFFFFFFFFFFFFFF DUP2 AND ISZERO PUSH2 0x557 JUMPI PUSH1 0x0 DUP1 SLOAD PUSH32 0xFFFFFFFFFFFFFFFFFFFFFFFF0000000000000000000000000000000000000000 AND PUSH20 0xFFFFFFFFFFFFFFFFFFFFFFFFFFFFFFFFFFFFFFFF DUP4 AND OR SWAP1 SSTORE JUMPDEST POP JUMP JUMPDEST PUSH1 0x0 DUP1 PUSH1 0x0 DUP1 DUP5 GT ISZERO PUSH2 0x6E9 JUMPI DUP7 MLOAD PUSH1 0x3 LT PUSH2 0x5A2 JUMPI PUSH1 0x40 MLOAD PUSH32 0x8C379A000000000000000000000000000000000000000000000000000000000 DUP2 MSTORE PUSH1 0x4 ADD PUSH2 0x21E SWAP1 PUSH2 0xA1F JUMP JUMPDEST PUSH1 0x20 DUP8 DUP2 ADD MLOAD PUSH32 0xFFFFFFFF00000000000000000000000000000000000000000000000000000000 AND PUSH1 0x0 DUP2 DUP2 MSTORE PUSH1 0x1 SWAP1 SWAP3 MSTORE PUSH1 0x40 SWAP1 SWAP2 KECCAK256 SLOAD SWAP1 SWAP4 POP PUSH20 0xFFFFFFFFFFFFFFFFFFFFFFFFFFFFFFFFFFFFFFFF AND SWAP2 POP DUP2 ISZERO ISZERO PUSH2 0x62E JUMPI PUSH1 0x40 MLOAD PUSH32 0x8C379A000000000000000000000000000000000000000000000000000000000 DUP2 MSTORE PUSH1 0x4 ADD PUSH2 0x21E SWAP1 PUSH2 0x9FF JUMP JUMPDEST PUSH1 0x40 MLOAD PUSH7 0xFFFFFFFFFFFE0 PUSH1 0x3F DUP10 MLOAD ADD AND DUP1 PUSH1 0x84 ADD DUP3 ADD PUSH32 0xA85E59E400000000000000000000000000000000000000000000000000000000 DUP4 MSTORE PUSH1 0x80 PUSH1 0x4 DUP5 ADD MSTORE PUSH20 0xFFFFFFFFFFFFFFFFFFFFFFFFFFFFFFFFFFFFFFFF DUP10 AND PUSH1 0x24 DUP5 ADD MSTORE PUSH20 0xFFFFFFFFFFFFFFFFFFFFFFFFFFFFFFFFFFFFFFFF DUP9 AND PUSH1 0x44 DUP5 ADD MSTORE DUP7 PUSH1 0x64 DUP5 ADD MSTORE PUSH1 0x84 DUP4 ADD JUMPDEST DUP2 DUP2 LT ISZERO PUSH2 0x6CA JUMPI DUP11 MLOAD DUP2 MSTORE PUSH1 0x20 SWAP11 DUP12 ADD SWAP11 ADD PUSH2 0x6B2 JUMP JUMPDEST PUSH2 0x200 DUP5 DUP6 DUP5 SUB DUP7 PUSH1 0x0 DUP11 GAS CALL SWAP5 POP DUP5 ISZERO ISZERO PUSH2 0x6E4 JUMPI RETURNDATASIZE DUP5 REVERT JUMPDEST POP POP POP POP JUMPDEST POP POP POP POP POP POP POP JUMP JUMPDEST PUSH1 0x0 PUSH2 0x6FE DUP3 CALLDATALOAD PUSH2 0xABC JUMP JUMPDEST SWAP4 SWAP3 POP POP POP JUMP JUMPDEST PUSH1 0x0 PUSH2 0x6FE DUP3 CALLDATALOAD PUSH2 0xAD5 JUMP JUMPDEST PUSH1 0x0 PUSH2 0x6FE DUP3 MLOAD PUSH2 0xAD5 JUMP JUMPDEST PUSH1 0x0 PUSH1 0x1F DUP3 ADD DUP4 SGT PUSH2 0x72E JUMPI PUSH1 0x0 DUP1 REVERT JUMPDEST DUP2 CALLDATALOAD PUSH2 0x741 PUSH2 0x73C DUP3 PUSH2 0xA76 JUMP JUMPDEST PUSH2 0xA4F JUMP JUMPDEST SWAP2 POP DUP1 DUP3 MSTORE PUSH1 0x20 DUP4 ADD PUSH1 0x20 DUP4 ADD DUP6 DUP4 DUP4 ADD GT ISZERO PUSH2 0x75D JUMPI PUSH1 0x0 DUP1 REVERT JUMPDEST PUSH2 0x768 DUP4 DUP3 DUP5 PUSH2 0xB08 JUMP JUMPDEST POP POP POP SWAP3 SWAP2 POP POP JUMP JUMPDEST PUSH1 0x0 PUSH2 0x6FE DUP3 CALLDATALOAD PUSH2 0xAFA JUMP JUMPDEST PUSH1 0x0 PUSH1 0x20 DUP3 DUP5 SUB SLT ISZERO PUSH2 0x78F JUMPI PUSH1 0x0 DUP1 REVERT JUMPDEST PUSH1 0x0 PUSH2 0x79B DUP5 DUP5 PUSH2 0x6F2 JUMP JUMPDEST SWAP5 SWAP4 POP POP POP POP JUMP JUMPDEST PUSH1 0x0 PUSH1 0x20 DUP3 DUP5 SUB SLT ISZERO PUSH2 0x7B5 JUMPI PUSH1 0x0 DUP1 REVERT JUMPDEST PUSH1 0x0 PUSH2 0x79B DUP5 DUP5 PUSH2 0x705 JUMP JUMPDEST PUSH1 0x0 PUSH1 0x20 DUP3 DUP5 SUB SLT ISZERO PUSH2 0x7D3 JUMPI PUSH1 0x0 DUP1 REVERT JUMPDEST PUSH1 0x0 PUSH2 0x79B DUP5 DUP5 PUSH2 0x711 JUMP JUMPDEST PUSH1 0x0 DUP1 PUSH1 0x0 PUSH1 0x60 DUP5 DUP7 SUB SLT ISZERO PUSH2 0x7F4 JUMPI PUSH1 0x0 DUP1 REVERT JUMPDEST PUSH1 0x0 PUSH2 0x800 DUP7 DUP7 PUSH2 0x705 JUMP JUMPDEST SWAP4 POP POP PUSH1 0x20 PUSH2 0x811 DUP7 DUP3 DUP8 ADD PUSH2 0x6F2 JUMP JUMPDEST SWAP3 POP POP PUSH1 0x40 PUSH2 0x822 DUP7 DUP3 DUP8 ADD PUSH2 0x6F2 JUMP JUMPDEST SWAP2 POP POP SWAP3 POP SWAP3 POP SWAP3 JUMP JUMPDEST PUSH1 0x0 DUP1 PUSH1 0x0 DUP1 PUSH1 0x80 DUP6 DUP8 SUB SLT ISZERO PUSH2 0x842 JUMPI PUSH1 0x0 DUP1 REVERT JUMPDEST DUP5 CALLDATALOAD PUSH8 0xFFFFFFFFFFFFFFFF DUP2 GT ISZERO PUSH2 0x859 JUMPI PUSH1 0x0 DUP1 REVERT JUMPDEST PUSH2 0x865 DUP8 DUP3 DUP9 ADD PUSH2 0x71D JUMP JUMPDEST SWAP5 POP POP PUSH1 0x20 PUSH2 0x876 DUP8 DUP3 DUP9 ADD PUSH2 0x6F2 JUMP JUMPDEST SWAP4 POP POP PUSH1 0x40 PUSH2 0x887 DUP8 DUP3 DUP9 ADD PUSH2 0x6F2 JUMP JUMPDEST SWAP3 POP POP PUSH1 0x60 PUSH2 0x898 DUP8 DUP3 DUP9 ADD PUSH2 0x771 JUMP JUMPDEST SWAP2 POP POP SWAP3 SWAP6 SWAP2 SWAP5 POP SWAP3 POP JUMP JUMPDEST PUSH2 0x8AD DUP2 PUSH2 0xABC JUMP JUMPDEST DUP3 MSTORE POP POP JUMP JUMPDEST PUSH2 0x8AD DUP2 PUSH2 0xAD5 JUMP JUMPDEST PUSH2 0x8AD DUP2 PUSH2 0xAFD JUMP JUMPDEST PUSH1 0x1A DUP2 MSTORE PUSH32 0x41535345545F50524F58595F444F45535F4E4F545F4558495354000000000000 PUSH1 0x20 DUP3 ADD MSTORE PUSH1 0x40 ADD SWAP1 JUMP JUMPDEST PUSH1 0x17 DUP2 MSTORE PUSH32 0x41535345545F50524F58595F49445F4D49534D41544348000000000000000000 PUSH1 0x20 DUP3 ADD MSTORE PUSH1 0x40 ADD SWAP1 JUMP JUMPDEST PUSH1 0x1E DUP2 MSTORE PUSH32 0x4C454E4754485F475245415445525F5448414E5F335F52455155495245440000 PUSH1 0x20 DUP3 ADD MSTORE PUSH1 0x40 ADD SWAP1 JUMP JUMPDEST PUSH1 0x13 DUP2 MSTORE PUSH32 0x4F4E4C595F434F4E54524143545F4F574E455200000000000000000000000000 PUSH1 0x20 DUP3 ADD MSTORE PUSH1 0x40 ADD SWAP1 JUMP JUMPDEST PUSH1 0x14 DUP2 MSTORE PUSH32 0x41535345545F50524F58595F4D49534D41544348000000000000000000000000 PUSH1 0x20 DUP3 ADD MSTORE PUSH1 0x40 ADD SWAP1 JUMP JUMPDEST PUSH1 0x20 DUP2 ADD PUSH2 0x9C3 DUP3 DUP5 PUSH2 0x8A4 JUMP JUMPDEST SWAP3 SWAP2 POP POP JUMP JUMPDEST PUSH1 0x60 DUP2 ADD PUSH2 0x9D7 DUP3 DUP7 PUSH2 0x8B3 JUMP JUMPDEST PUSH2 0x9E4 PUSH1 0x20 DUP4 ADD DUP6 PUSH2 0x8A4 JUMP JUMPDEST PUSH2 0x79B PUSH1 0x40 DUP4 ADD DUP5 PUSH2 0x8A4 JUMP JUMPDEST PUSH1 0x20 DUP2 ADD PUSH2 0x9C3 DUP3 DUP5 PUSH2 0x8BC JUMP JUMPDEST PUSH1 0x20 DUP1 DUP3 MSTORE DUP2 ADD PUSH2 0x9C3 DUP2 PUSH2 0x8C5 JUMP JUMPDEST PUSH1 0x20 DUP1 DUP3 MSTORE DUP2 ADD PUSH2 0x9C3 DUP2 PUSH2 0x8F5 JUMP JUMPDEST PUSH1 0x20 DUP1 DUP3 MSTORE DUP2 ADD PUSH2 0x9C3 DUP2 PUSH2 0x925 JUMP JUMPDEST PUSH1 0x20 DUP1 DUP3 MSTORE DUP2 ADD PUSH2 0x9C3 DUP2 PUSH2 0x955 JUMP JUMPDEST PUSH1 0x20 DUP1 DUP3 MSTORE DUP2 ADD PUSH2 0x9C3 DUP2 PUSH2 0x985 JUMP JUMPDEST PUSH1 0x40 MLOAD DUP2 DUP2 ADD PUSH8 0xFFFFFFFFFFFFFFFF DUP2 GT DUP3 DUP3 LT OR ISZERO PUSH2 0xA6E JUMPI PUSH1 0x0 DUP1 REVERT JUMPDEST PUSH1 0x40 MSTORE SWAP2 SWAP1 POP JUMP JUMPDEST PUSH1 0x0 PUSH8 0xFFFFFFFFFFFFFFFF DUP3 GT ISZERO PUSH2 0xA8D JUMPI PUSH1 0x0 DUP1 REVERT JUMPDEST POP PUSH1 0x20 PUSH1 0x1F SWAP2 SWAP1 SWAP2 ADD PUSH32 0xFFFFFFFFFFFFFFFFFFFFFFFFFFFFFFFFFFFFFFFFFFFFFFFFFFFFFFFFFFFFFFE0 AND ADD SWAP1 JUMP JUMPDEST PUSH20 0xFFFFFFFFFFFFFFFFFFFFFFFFFFFFFFFFFFFFFFFF AND SWAP1 JUMP JUMPDEST PUSH32 0xFFFFFFFF00000000000000000000000000000000000000000000000000000000 AND SWAP1 JUMP JUMPDEST SWAP1 JUMP JUMPDEST PUSH1 0x0 PUSH2 0x9C3 DUP3 PUSH2 0xABC JUMP JUMPDEST DUP3 DUP2 DUP4 CALLDATACOPY POP PUSH1 0x0 SWAP2 ADD MSTORE JUMP STOP LOG2 PUSH6 0x627A7A723058 KECCAK256 MSTORE8 MOD RETURN 0xd1 0xd1 0xd 0xdc PUSH27 0xBCB2D07CD4CED5AEF2819C6060050482B7C9E8A6E1C884E96C6578 PUSH17 0x6572696D656E74616CF500370000000000 "
			}
		}
	},
	"sourceTreeHashHex": "0x330a1f9a7d36ec85389d72ba80c5854804abb468c98cc3971c8f6ba286101cd5",
	"compiler": {
		"name": "solc",
		"version": "soljson-v0.4.24+commit.e67f0147.js",
		"settings": {
			"optimizer": {
				"enabled": true,
				"runs": 1000000
			},
			"outputSelection": {
				"*": {
					"*": [
						"abi",
						"evm.bytecode.object",
						"evm.bytecode.sourceMap",
						"evm.deployedBytecode.object",
						"evm.deployedBytecode.sourceMap"
					]
				}
			}
		}
	}
}