{
	"schemaVersion": "2.0.0",
	"contractName": "TestLibBytes",
	"compilerOutput": {
		"abi": [
			{
				"constant": true,
				"inputs": [
					{
						"name": "lhs",
						"type": "bytes"
					},
					{
						"name": "rhs",
						"type": "bytes"
					}
				],
				"name": "publicAreBytesEqual",
				"outputs": [
					{
						"name": "equal",
						"type": "bool"
					}
				],
				"payable": false,
				"stateMutability": "pure",
				"type": "function"
			},
			{
				"constant": true,
				"inputs": [
					{
						"name": "b",
						"type": "bytes"
					}
				],
				"name": "publicPopAddress",
				"outputs": [
					{
						"name": "",
						"type": "bytes"
					},
					{
						"name": "result",
						"type": "address"
					}
				],
				"payable": false,
				"stateMutability": "pure",
				"type": "function"
			},
			{
				"constant": true,
				"inputs": [
					{
						"name": "b",
						"type": "bytes"
					},
					{
						"name": "index",
						"type": "uint256"
					}
				],
				"name": "publicReadBytes",
				"outputs": [
					{
						"name": "result",
						"type": "bytes"
					}
				],
				"payable": false,
				"stateMutability": "pure",
				"type": "function"
			},
			{
				"constant": true,
				"inputs": [
					{
						"name": "b",
						"type": "bytes"
					},
					{
						"name": "index",
						"type": "uint256"
					},
					{
						"name": "input",
						"type": "address"
					}
				],
				"name": "publicWriteAddress",
				"outputs": [
					{
						"name": "",
						"type": "bytes"
					}
				],
				"payable": false,
				"stateMutability": "pure",
				"type": "function"
			},
			{
				"constant": true,
				"inputs": [
					{
						"name": "b",
						"type": "bytes"
					}
				],
				"name": "publicReadFirst4",
				"outputs": [
					{
						"name": "result",
						"type": "bytes4"
					}
				],
				"payable": false,
				"stateMutability": "pure",
				"type": "function"
			},
			{
				"constant": true,
				"inputs": [
					{
						"name": "b",
						"type": "bytes"
					}
				],
				"name": "publicPopByte",
				"outputs": [
					{
						"name": "",
						"type": "bytes"
					},
					{
						"name": "result",
						"type": "bytes1"
					}
				],
				"payable": false,
				"stateMutability": "pure",
				"type": "function"
			},
			{
				"constant": true,
				"inputs": [
					{
						"name": "b",
						"type": "bytes"
					},
					{
						"name": "index",
						"type": "uint256"
					},
					{
						"name": "input",
						"type": "bytes"
					}
				],
				"name": "publicWriteBytes",
				"outputs": [
					{
						"name": "",
						"type": "bytes"
					}
				],
				"payable": false,
				"stateMutability": "pure",
				"type": "function"
			},
			{
				"constant": true,
				"inputs": [
					{
						"name": "b",
						"type": "bytes"
					},
					{
						"name": "index",
						"type": "uint256"
					}
				],
				"name": "publicReadAddress",
				"outputs": [
					{
						"name": "result",
						"type": "address"
					}
				],
				"payable": false,
				"stateMutability": "pure",
				"type": "function"
			},
			{
				"constant": true,
				"inputs": [
					{
						"name": "b",
						"type": "bytes"
					},
					{
						"name": "index",
						"type": "uint256"
					},
					{
						"name": "input",
						"type": "bytes32"
					}
				],
				"name": "publicWriteBytes32",
				"outputs": [
					{
						"name": "",
						"type": "bytes"
					}
				],
				"payable": false,
				"stateMutability": "pure",
				"type": "function"
			},
			{
				"constant": true,
				"inputs": [
					{
						"name": "b",
						"type": "bytes"
					},
					{
						"name": "index",
						"type": "uint256"
					},
					{
						"name": "input",
						"type": "uint256"
					}
				],
				"name": "publicWriteUint256",
				"outputs": [
					{
						"name": "",
						"type": "bytes"
					}
				],
				"payable": false,
				"stateMutability": "pure",
				"type": "function"
			},
			{
				"constant": true,
				"inputs": [
					{
						"name": "b",
						"type": "bytes"
					},
					{
						"name": "index",
						"type": "uint256"
					}
				],
				"name": "publicReadBytes32",
				"outputs": [
					{
						"name": "result",
						"type": "bytes32"
					}
				],
				"payable": false,
				"stateMutability": "pure",
				"type": "function"
			},
			{
				"constant": true,
				"inputs": [
					{
						"name": "b",
						"type": "bytes"
					},
					{
						"name": "index",
						"type": "uint256"
					}
				],
				"name": "publicReadUint256",
				"outputs": [
					{
						"name": "result",
						"type": "uint256"
					}
				],
				"payable": false,
				"stateMutability": "pure",
				"type": "function"
			}
		],
		"evm": {
			"bytecode": {
				"linkReferences": {},
				"object": "0x608060405234801561001057600080fd5b50610f1a806100206000396000f3006080604052600436106100b95763ffffffff7c01000000000000000000000000000000000000000000000000000000006000350416630945c63b81146100be57806329f00d5c146100f457806335997eaf146101225780633f2a25ec1461014f578063595fe5471461016f5780637356f5f31461019c5780637d0d772f146101ca57806382e2fa24146101ea57806384f8775814610217578063b79650a414610237578063be766f1b14610257578063e3a85ce414610284575b600080fd5b3480156100ca57600080fd5b506100de6100d9366004610aee565b6102a4565b6040516100eb9190610d44565b60405180910390f35b34801561010057600080fd5b5061011461010f366004610ab1565b6102b9565b6040516100eb929190610d7f565b34801561012e57600080fd5b5061014261013d366004610b57565b6102cd565b6040516100eb9190610d6e565b34801561015b57600080fd5b5061014261016a366004610b9e565b6102d9565b34801561017b57600080fd5b5061018f61018a366004610ab1565b6102f0565b6040516100eb9190610d60565b3480156101a857600080fd5b506101bc6101b7366004610ab1565b6102fb565b6040516100eb929190610d9f565b3480156101d657600080fd5b506101426101e5366004610c5c565b610308565b3480156101f657600080fd5b5061020a610205366004610b57565b610315565b6040516100eb9190610d36565b34801561022357600080fd5b50610142610232366004610c02565b610321565b34801561024357600080fd5b50610142610252366004610c02565b61032e565b34801561026357600080fd5b50610277610272366004610b57565b61033b565b6040516100eb9190610d52565b34801561029057600080fd5b5061027761029f366004610b57565b610347565b60006102b08383610353565b90505b92915050565b606060006102c68361039a565b9293915050565b60606102b08383610435565b60606102e684848461052e565b50825b9392505050565b60006102b3826105cb565b606060006102c68361065c565b60606102e684848461072d565b60006102b083836107e2565b60606102e684848461087a565b60606102e68484846108f9565b60006102b08383610904565b60006102b0838361033b565b60006020601f8451010460018101905060005b8181101561039257602081028581015190850151808214945084610388578392505b5050600101610366565b505092915050565b6000601482511015606060405190810160405280602681526020017f475245415445525f4f525f455155414c5f544f5f32305f4c454e4754485f52458152602001600080516020610ec18339815191528152509015156104195760405160e560020a62461bcd0281526004016104109190610d6e565b60405180910390fd5b506104288260148451036107e2565b8251601319019092525090565b60606000610443848461033b565b905060208301925080830184511015606060405190810160405280603081526020017f475245415445525f4f525f455155414c5f544f5f4e45535445445f425954455381526020017f5f4c454e4754485f5245515549524544000000000000000000000000000000008152509015156104d25760405160e560020a62461bcd0281526004016104109190610d6e565b50806040519080825280601f01601f191660200182016040528015610501578160200160208202803883390190505b50915061052761051083610986565b6020018461051d87610986565b0160200183610989565b5092915050565b8160140183511015606060405190810160405280602681526020017f475245415445525f4f525f455155414c5f544f5f32305f4c454e4754485f52458152602001600080516020610ec18339815191528152509015156105a45760405160e560020a62461bcd0281526004016104109190610d6e565b509101601401805173ffffffffffffffffffffffffffffffffffffffff1916919091189052565b6000600482511015606060405190810160405280602581526020017f475245415445525f4f525f455155414c5f544f5f345f4c454e4754485f52455181526020017f55495245440000000000000000000000000000000000000000000000000000008152509015156106535760405160e560020a62461bcd0281526004016104109190610d6e565b50506020015190565b600080825111606060405190810160405280602181526020017f475245415445525f5448414e5f5a45524f5f4c454e4754485f5245515549524581526020017f44000000000000000000000000000000000000000000000000000000000000008152509015156106e25760405160e560020a62461bcd0281526004016104109190610d6e565b508151829060001981019081106106f557fe5b0160200151825160001901909252507f0100000000000000000000000000000000000000000000000000000000000000908190040290565b8051826020010183511015606060405190810160405280603081526020017f475245415445525f4f525f455155414c5f544f5f4e45535445445f425954455381526020017f5f4c454e4754485f5245515549524544000000000000000000000000000000008152509015156107b85760405160e560020a62461bcd0281526004016104109190610d6e565b506107dd826107c685610986565b602001016107d383610986565b8351602001610989565b505050565b60008160140183511015606060405190810160405280602681526020017f475245415445525f4f525f455155414c5f544f5f32305f4c454e4754485f52458152602001600080516020610ec183398151915281525090151561085a5760405160e560020a62461bcd0281526004016104109190610d6e565b5050016014015173ffffffffffffffffffffffffffffffffffffffff1690565b8160200183511015606060405190810160405280602681526020017f475245415445525f4f525f455155414c5f544f5f33325f4c454e4754485f52458152602001600080516020610ec18339815191528152509015156108f05760405160e560020a62461bcd0281526004016104109190610d6e565b50910160200152565b6107dd83838361087a565b60008160200183511015606060405190810160405280602681526020017f475245415445525f4f525f455155414c5f544f5f33325f4c454e4754485f52458152602001600080516020610ec183398151915281525090151561097c5760405160e560020a62461bcd0281526004016104109190610d6e565b5050016020015190565b90565b60208110156109b3576001816020036101000a0380198351168185511680821786525050506107dd565b828214156109c0576107dd565b82821115610a065760208104602082039150818301828501815160005b848110156109fb5786518852602097880197909601956001016109dd565b509052506107dd9050565b60208104602082039150818301828501845160005b84811015610a3a5783518352601f199384019390920191600101610a1b565b508652505050505050565b60006102e98235610e12565b60006102e98235610986565b6000601f82018313610a6e57600080fd5b8135610a81610a7c82610de6565b610dbf565b91508082526020830160208301858383011115610a9d57600080fd5b610aa8838284610e7a565b50505092915050565b600060208284031215610ac357600080fd5b813567ffffffffffffffff811115610ada57600080fd5b610ae684828501610a5d565b949350505050565b60008060408385031215610b0157600080fd5b823567ffffffffffffffff811115610b1857600080fd5b610b2485828601610a5d565b925050602083013567ffffffffffffffff811115610b4157600080fd5b610b4d85828601610a5d565b9150509250929050565b60008060408385031215610b6a57600080fd5b823567ffffffffffffffff811115610b8157600080fd5b610b8d85828601610a5d565b9250506020610b4d85828601610a51565b600080600060608486031215610bb357600080fd5b833567ffffffffffffffff811115610bca57600080fd5b610bd686828701610a5d565b9350506020610be786828701610a51565b9250506040610bf886828701610a45565b9150509250925092565b600080600060608486031215610c1757600080fd5b833567ffffffffffffffff811115610c2e57600080fd5b610c3a86828701610a5d565b9350506020610c4b86828701610a51565b9250506040610bf886828701610a51565b600080600060608486031215610c7157600080fd5b833567ffffffffffffffff811115610c8857600080fd5b610c9486828701610a5d565b9350506020610ca586828701610a51565b925050604084013567ffffffffffffffff811115610cc257600080fd5b610bf886828701610a5d565b610cd781610e12565b82525050565b610cd781610e2b565b610cd781610e30565b610cd781610986565b610cd781610e55565b6000610d0c82610e0e565b808452610d20816020860160208601610e86565b610d2981610eb6565b9093016020019392505050565b602081016102b38284610cce565b602081016102b38284610cdd565b602081016102b38284610cef565b602081016102b38284610cf8565b602080825281016102e98184610d01565b60408082528101610d908185610d01565b90506102e96020830184610cce565b60408082528101610db08185610d01565b90506102e96020830184610ce6565b60405181810167ffffffffffffffff81118282101715610dde57600080fd5b604052919050565b600067ffffffffffffffff821115610dfd57600080fd5b506020601f91909101601f19160190565b5190565b73ffffffffffffffffffffffffffffffffffffffff1690565b151590565b7fff000000000000000000000000000000000000000000000000000000000000001690565b7fffffffff000000000000000000000000000000000000000000000000000000001690565b82818337506000910152565b60005b83811015610ea1578181015183820152602001610e89565b83811115610eb0576000848401525b50505050565b601f01601f19169056005155495245440000000000000000000000000000000000000000000000000000a265627a7a723058205e0fdb9040b2c6b1949cbd16633e85fd889010f1e1d3f92e2e3937bcaf0d57816c6578706572696d656e74616cf50037",
				"opcodes": "PUSH1 0x80 PUSH1 0x40 MSTORE CALLVALUE DUP1 ISZERO PUSH2 0x10 JUMPI PUSH1 0x0 DUP1 REVERT JUMPDEST POP PUSH2 0xF1A DUP1 PUSH2 0x20 PUSH1 0x0 CODECOPY PUSH1 0x0 RETURN STOP PUSH1 0x80 PUSH1 0x40 MSTORE PUSH1 0x4 CALLDATASIZE LT PUSH2 0xB9 JUMPI PUSH4 0xFFFFFFFF PUSH29 0x100000000000000000000000000000000000000000000000000000000 PUSH1 0x0 CALLDATALOAD DIV AND PUSH4 0x945C63B DUP2 EQ PUSH2 0xBE JUMPI DUP1 PUSH4 0x29F00D5C EQ PUSH2 0xF4 JUMPI DUP1 PUSH4 0x35997EAF EQ PUSH2 0x122 JUMPI DUP1 PUSH4 0x3F2A25EC EQ PUSH2 0x14F JUMPI DUP1 PUSH4 0x595FE547 EQ PUSH2 0x16F JUMPI DUP1 PUSH4 0x7356F5F3 EQ PUSH2 0x19C JUMPI DUP1 PUSH4 0x7D0D772F EQ PUSH2 0x1CA JUMPI DUP1 PUSH4 0x82E2FA24 EQ PUSH2 0x1EA JUMPI DUP1 PUSH4 0x84F87758 EQ PUSH2 0x217 JUMPI DUP1 PUSH4 0xB79650A4 EQ PUSH2 0x237 JUMPI DUP1 PUSH4 0xBE766F1B EQ PUSH2 0x257 JUMPI DUP1 PUSH4 0xE3A85CE4 EQ PUSH2 0x284 JUMPI JUMPDEST PUSH1 0x0 DUP1 REVERT JUMPDEST CALLVALUE DUP1 ISZERO PUSH2 0xCA JUMPI PUSH1 0x0 DUP1 REVERT JUMPDEST POP PUSH2 0xDE PUSH2 0xD9 CALLDATASIZE PUSH1 0x4 PUSH2 0xAEE JUMP JUMPDEST PUSH2 0x2A4 JUMP JUMPDEST PUSH1 0x40 MLOAD PUSH2 0xEB SWAP2 SWAP1 PUSH2 0xD44 JUMP JUMPDEST PUSH1 0x40 MLOAD DUP1 SWAP2 SUB SWAP1 RETURN JUMPDEST CALLVALUE DUP1 ISZERO PUSH2 0x100 JUMPI PUSH1 0x0 DUP1 REVERT JUMPDEST POP PUSH2 0x114 PUSH2 0x10F CALLDATASIZE PUSH1 0x4 PUSH2 0xAB1 JUMP JUMPDEST PUSH2 0x2B9 JUMP JUMPDEST PUSH1 0x40 MLOAD PUSH2 0xEB SWAP3 SWAP2 SWAP1 PUSH2 0xD7F JUMP JUMPDEST CALLVALUE DUP1 ISZERO PUSH2 0x12E JUMPI PUSH1 0x0 DUP1 REVERT JUMPDEST POP PUSH2 0x142 PUSH2 0x13D CALLDATASIZE PUSH1 0x4 PUSH2 0xB57 JUMP JUMPDEST PUSH2 0x2CD JUMP JUMPDEST PUSH1 0x40 MLOAD PUSH2 0xEB SWAP2 SWAP1 PUSH2 0xD6E JUMP JUMPDEST CALLVALUE DUP1 ISZERO PUSH2 0x15B JUMPI PUSH1 0x0 DUP1 REVERT JUMPDEST POP PUSH2 0x142 PUSH2 0x16A CALLDATASIZE PUSH1 0x4 PUSH2 0xB9E JUMP JUMPDEST PUSH2 0x2D9 JUMP JUMPDEST CALLVALUE DUP1 ISZERO PUSH2 0x17B JUMPI PUSH1 0x0 DUP1 REVERT JUMPDEST POP PUSH2 0x18F PUSH2 0x18A CALLDATASIZE PUSH1 0x4 PUSH2 0xAB1 JUMP JUMPDEST PUSH2 0x2F0 JUMP JUMPDEST PUSH1 0x40 MLOAD PUSH2 0xEB SWAP2 SWAP1 PUSH2 0xD60 JUMP JUMPDEST CALLVALUE DUP1 ISZERO PUSH2 0x1A8 JUMPI PUSH1 0x0 DUP1 REVERT JUMPDEST POP PUSH2 0x1BC PUSH2 0x1B7 CALLDATASIZE PUSH1 0x4 PUSH2 0xAB1 JUMP JUMPDEST PUSH2 0x2FB JUMP JUMPDEST PUSH1 0x40 MLOAD PUSH2 0xEB SWAP3 SWAP2 SWAP1 PUSH2 0xD9F JUMP JUMPDEST CALLVALUE DUP1 ISZERO PUSH2 0x1D6 JUMPI PUSH1 0x0 DUP1 REVERT JUMPDEST POP PUSH2 0x142 PUSH2 0x1E5 CALLDATASIZE PUSH1 0x4 PUSH2 0xC5C JUMP JUMPDEST PUSH2 0x308 JUMP JUMPDEST CALLVALUE DUP1 ISZERO PUSH2 0x1F6 JUMPI PUSH1 0x0 DUP1 REVERT JUMPDEST POP PUSH2 0x20A PUSH2 0x205 CALLDATASIZE PUSH1 0x4 PUSH2 0xB57 JUMP JUMPDEST PUSH2 0x315 JUMP JUMPDEST PUSH1 0x40 MLOAD PUSH2 0xEB SWAP2 SWAP1 PUSH2 0xD36 JUMP JUMPDEST CALLVALUE DUP1 ISZERO PUSH2 0x223 JUMPI PUSH1 0x0 DUP1 REVERT JUMPDEST POP PUSH2 0x142 PUSH2 0x232 CALLDATASIZE PUSH1 0x4 PUSH2 0xC02 JUMP JUMPDEST PUSH2 0x321 JUMP JUMPDEST CALLVALUE DUP1 ISZERO PUSH2 0x243 JUMPI PUSH1 0x0 DUP1 REVERT JUMPDEST POP PUSH2 0x142 PUSH2 0x252 CALLDATASIZE PUSH1 0x4 PUSH2 0xC02 JUMP JUMPDEST PUSH2 0x32E JUMP JUMPDEST CALLVALUE DUP1 ISZERO PUSH2 0x263 JUMPI PUSH1 0x0 DUP1 REVERT JUMPDEST POP PUSH2 0x277 PUSH2 0x272 CALLDATASIZE PUSH1 0x4 PUSH2 0xB57 JUMP JUMPDEST PUSH2 0x33B JUMP JUMPDEST PUSH1 0x40 MLOAD PUSH2 0xEB SWAP2 SWAP1 PUSH2 0xD52 JUMP JUMPDEST CALLVALUE DUP1 ISZERO PUSH2 0x290 JUMPI PUSH1 0x0 DUP1 REVERT JUMPDEST POP PUSH2 0x277 PUSH2 0x29F CALLDATASIZE PUSH1 0x4 PUSH2 0xB57 JUMP JUMPDEST PUSH2 0x347 JUMP JUMPDEST PUSH1 0x0 PUSH2 0x2B0 DUP4 DUP4 PUSH2 0x353 JUMP JUMPDEST SWAP1 POP JUMPDEST SWAP3 SWAP2 POP POP JUMP JUMPDEST PUSH1 0x60 PUSH1 0x0 PUSH2 0x2C6 DUP4 PUSH2 0x39A JUMP JUMPDEST SWAP3 SWAP4 SWAP2 POP POP JUMP JUMPDEST PUSH1 0x60 PUSH2 0x2B0 DUP4 DUP4 PUSH2 0x435 JUMP JUMPDEST PUSH1 0x60 PUSH2 0x2E6 DUP5 DUP5 DUP5 PUSH2 0x52E JUMP JUMPDEST POP DUP3 JUMPDEST SWAP4 SWAP3 POP POP POP JUMP JUMPDEST PUSH1 0x0 PUSH2 0x2B3 DUP3 PUSH2 0x5CB JUMP JUMPDEST PUSH1 0x60 PUSH1 0x0 PUSH2 0x2C6 DUP4 PUSH2 0x65C JUMP JUMPDEST PUSH1 0x60 PUSH2 0x2E6 DUP5 DUP5 DUP5 PUSH2 0x72D JUMP JUMPDEST PUSH1 0x0 PUSH2 0x2B0 DUP4 DUP4 PUSH2 0x7E2 JUMP JUMPDEST PUSH1 0x60 PUSH2 0x2E6 DUP5 DUP5 DUP5 PUSH2 0x87A JUMP JUMPDEST PUSH1 0x60 PUSH2 0x2E6 DUP5 DUP5 DUP5 PUSH2 0x8F9 JUMP JUMPDEST PUSH1 0x0 PUSH2 0x2B0 DUP4 DUP4 PUSH2 0x904 JUMP JUMPDEST PUSH1 0x0 PUSH2 0x2B0 DUP4 DUP4 PUSH2 0x33B JUMP JUMPDEST PUSH1 0x0 PUSH1 0x20 PUSH1 0x1F DUP5 MLOAD ADD DIV PUSH1 0x1 DUP2 ADD SWAP1 POP PUSH1 0x0 JUMPDEST DUP2 DUP2 LT ISZERO PUSH2 0x392 JUMPI PUSH1 0x20 DUP2 MUL DUP6 DUP2 ADD MLOAD SWAP1 DUP6 ADD MLOAD DUP1 DUP3 EQ SWAP5 POP DUP5 PUSH2 0x388 JUMPI DUP4 SWAP3 POP JUMPDEST POP POP PUSH1 0x1 ADD PUSH2 0x366 JUMP JUMPDEST POP POP SWAP3 SWAP2 POP POP JUMP JUMPDEST PUSH1 0x0 PUSH1 0x14 DUP3 MLOAD LT ISZERO PUSH1 0x60 PUSH1 0x40 MLOAD SWAP1 DUP2 ADD PUSH1 0x40 MSTORE DUP1 PUSH1 0x26 DUP2 MSTORE PUSH1 0x20 ADD PUSH32 0x475245415445525F4F525F455155414C5F544F5F32305F4C454E4754485F5245 DUP2 MSTORE PUSH1 0x20 ADD PUSH1 0x0 DUP1 MLOAD PUSH1 0x20 PUSH2 0xEC1 DUP4 CODECOPY DUP2 MLOAD SWAP2 MSTORE DUP2 MSTORE POP SWAP1 ISZERO ISZERO PUSH2 0x419 JUMPI PUSH1 0x40 MLOAD PUSH1 0xE5 PUSH1 0x2 EXP PUSH3 0x461BCD MUL DUP2 MSTORE PUSH1 0x4 ADD PUSH2 0x410 SWAP2 SWAP1 PUSH2 0xD6E JUMP JUMPDEST PUSH1 0x40 MLOAD DUP1 SWAP2 SUB SWAP1 REVERT JUMPDEST POP PUSH2 0x428 DUP3 PUSH1 0x14 DUP5 MLOAD SUB PUSH2 0x7E2 JUMP JUMPDEST DUP3 MLOAD PUSH1 0x13 NOT ADD SWAP1 SWAP3 MSTORE POP SWAP1 JUMP JUMPDEST PUSH1 0x60 PUSH1 0x0 PUSH2 0x443 DUP5 DUP5 PUSH2 0x33B JUMP JUMPDEST SWAP1 POP PUSH1 0x20 DUP4 ADD SWAP3 POP DUP1 DUP4 ADD DUP5 MLOAD LT ISZERO PUSH1 0x60 PUSH1 0x40 MLOAD SWAP1 DUP2 ADD PUSH1 0x40 MSTORE DUP1 PUSH1 0x30 DUP2 MSTORE PUSH1 0x20 ADD PUSH32 0x475245415445525F4F525F455155414C5F544F5F4E45535445445F4259544553 DUP2 MSTORE PUSH1 0x20 ADD PUSH32 0x5F4C454E4754485F524551554952454400000000000000000000000000000000 DUP2 MSTORE POP SWAP1 ISZERO ISZERO PUSH2 0x4D2 JUMPI PUSH1 0x40 MLOAD PUSH1 0xE5 PUSH1 0x2 EXP PUSH3 0x461BCD MUL DUP2 MSTORE PUSH1 0x4 ADD PUSH2 0x410 SWAP2 SWAP1 PUSH2 0xD6E JUMP JUMPDEST POP DUP1 PUSH1 0x40 MLOAD SWAP1 DUP1 DUP3 MSTORE DUP1 PUSH1 0x1F ADD PUSH1 0x1F NOT AND PUSH1 0x20 ADD DUP3 ADD PUSH1 0x40 MSTORE DUP1 ISZERO PUSH2 0x501 JUMPI DUP2 PUSH1 0x20 ADD PUSH1 0x20 DUP3 MUL DUP1 CODESIZE DUP4 CODECOPY ADD SWAP1 POP JUMPDEST POP SWAP2 POP PUSH2 0x527 PUSH2 0x510 DUP4 PUSH2 0x986 JUMP JUMPDEST PUSH1 0x20 ADD DUP5 PUSH2 0x51D DUP8 PUSH2 0x986 JUMP JUMPDEST ADD PUSH1 0x20 ADD DUP4 PUSH2 0x989 JUMP JUMPDEST POP SWAP3 SWAP2 POP POP JUMP JUMPDEST DUP2 PUSH1 0x14 ADD DUP4 MLOAD LT ISZERO PUSH1 0x60 PUSH1 0x40 MLOAD SWAP1 DUP2 ADD PUSH1 0x40 MSTORE DUP1 PUSH1 0x26 DUP2 MSTORE PUSH1 0x20 ADD PUSH32 0x475245415445525F4F525F455155414C5F544F5F32305F4C454E4754485F5245 DUP2 MSTORE PUSH1 0x20 ADD PUSH1 0x0 DUP1 MLOAD PUSH1 0x20 PUSH2 0xEC1 DUP4 CODECOPY DUP2 MLOAD SWAP2 MSTORE DUP2 MSTORE POP SWAP1 ISZERO ISZERO PUSH2 0x5A4 JUMPI PUSH1 0x40 MLOAD PUSH1 0xE5 PUSH1 0x2 EXP PUSH3 0x461BCD MUL DUP2 MSTORE PUSH1 0x4 ADD PUSH2 0x410 SWAP2 SWAP1 PUSH2 0xD6E JUMP JUMPDEST POP SWAP2 ADD PUSH1 0x14 ADD DUP1 MLOAD PUSH20 0xFFFFFFFFFFFFFFFFFFFFFFFFFFFFFFFFFFFFFFFF NOT AND SWAP2 SWAP1 SWAP2 XOR SWAP1 MSTORE JUMP JUMPDEST PUSH1 0x0 PUSH1 0x4 DUP3 MLOAD LT ISZERO PUSH1 0x60 PUSH1 0x40 MLOAD SWAP1 DUP2 ADD PUSH1 0x40 MSTORE DUP1 PUSH1 0x25 DUP2 MSTORE PUSH1 0x20 ADD PUSH32 0x475245415445525F4F525F455155414C5F544F5F345F4C454E4754485F524551 DUP2 MSTORE PUSH1 0x20 ADD PUSH32 0x5549524544000000000000000000000000000000000000000000000000000000 DUP2 MSTORE POP SWAP1 ISZERO ISZERO PUSH2 0x653 JUMPI PUSH1 0x40 MLOAD PUSH1 0xE5 PUSH1 0x2 EXP PUSH3 0x461BCD MUL DUP2 MSTORE PUSH1 0x4 ADD PUSH2 0x410 SWAP2 SWAP1 PUSH2 0xD6E JUMP JUMPDEST POP POP PUSH1 0x20 ADD MLOAD SWAP1 JUMP JUMPDEST PUSH1 0x0 DUP1 DUP3 MLOAD GT PUSH1 0x60 PUSH1 0x40 MLOAD SWAP1 DUP2 ADD PUSH1 0x40 MSTORE DUP1 PUSH1 0x21 DUP2 MSTORE PUSH1 0x20 ADD PUSH32 0x475245415445525F5448414E5F5A45524F5F4C454E4754485F52455155495245 DUP2 MSTORE PUSH1 0x20 ADD PUSH32 0x4400000000000000000000000000000000000000000000000000000000000000 DUP2 MSTORE POP SWAP1 ISZERO ISZERO PUSH2 0x6E2 JUMPI PUSH1 0x40 MLOAD PUSH1 0xE5 PUSH1 0x2 EXP PUSH3 0x461BCD MUL DUP2 MSTORE PUSH1 0x4 ADD PUSH2 0x410 SWAP2 SWAP1 PUSH2 0xD6E JUMP JUMPDEST POP DUP2 MLOAD DUP3 SWAP1 PUSH1 0x0 NOT DUP2 ADD SWAP1 DUP2 LT PUSH2 0x6F5 JUMPI INVALID JUMPDEST ADD PUSH1 0x20 ADD MLOAD DUP3 MLOAD PUSH1 0x0 NOT ADD SWAP1 SWAP3 MSTORE POP PUSH32 0x100000000000000000000000000000000000000000000000000000000000000 SWAP1 DUP2 SWAP1 DIV MUL SWAP1 JUMP JUMPDEST DUP1 MLOAD DUP3 PUSH1 0x20 ADD ADD DUP4 MLOAD LT ISZERO PUSH1 0x60 PUSH1 0x40 MLOAD SWAP1 DUP2 ADD PUSH1 0x40 MSTORE DUP1 PUSH1 0x30 DUP2 MSTORE PUSH1 0x20 ADD PUSH32 0x475245415445525F4F525F455155414C5F544F5F4E45535445445F4259544553 DUP2 MSTORE PUSH1 0x20 ADD PUSH32 0x5F4C454E4754485F524551554952454400000000000000000000000000000000 DUP2 MSTORE POP SWAP1 ISZERO ISZERO PUSH2 0x7B8 JUMPI PUSH1 0x40 MLOAD PUSH1 0xE5 PUSH1 0x2 EXP PUSH3 0x461BCD MUL DUP2 MSTORE PUSH1 0x4 ADD PUSH2 0x410 SWAP2 SWAP1 PUSH2 0xD6E JUMP JUMPDEST POP PUSH2 0x7DD DUP3 PUSH2 0x7C6 DUP6 PUSH2 0x986 JUMP JUMPDEST PUSH1 0x20 ADD ADD PUSH2 0x7D3 DUP4 PUSH2 0x986 JUMP JUMPDEST DUP4 MLOAD PUSH1 0x20 ADD PUSH2 0x989 JUMP JUMPDEST POP POP POP JUMP JUMPDEST PUSH1 0x0 DUP2 PUSH1 0x14 ADD DUP4 MLOAD LT ISZERO PUSH1 0x60 PUSH1 0x40 MLOAD SWAP1 DUP2 ADD PUSH1 0x40 MSTORE DUP1 PUSH1 0x26 DUP2 MSTORE PUSH1 0x20 ADD PUSH32 0x475245415445525F4F525F455155414C5F544F5F32305F4C454E4754485F5245 DUP2 MSTORE PUSH1 0x20 ADD PUSH1 0x0 DUP1 MLOAD PUSH1 0x20 PUSH2 0xEC1 DUP4 CODECOPY DUP2 MLOAD SWAP2 MSTORE DUP2 MSTORE POP SWAP1 ISZERO ISZERO PUSH2 0x85A JUMPI PUSH1 0x40 MLOAD PUSH1 0xE5 PUSH1 0x2 EXP PUSH3 0x461BCD MUL DUP2 MSTORE PUSH1 0x4 ADD PUSH2 0x410 SWAP2 SWAP1 PUSH2 0xD6E JUMP JUMPDEST POP POP ADD PUSH1 0x14 ADD MLOAD PUSH20 0xFFFFFFFFFFFFFFFFFFFFFFFFFFFFFFFFFFFFFFFF AND SWAP1 JUMP JUMPDEST DUP2 PUSH1 0x20 ADD DUP4 MLOAD LT ISZERO PUSH1 0x60 PUSH1 0x40 MLOAD SWAP1 DUP2 ADD PUSH1 0x40 MSTORE DUP1 PUSH1 0x26 DUP2 MSTORE PUSH1 0x20 ADD PUSH32 0x475245415445525F4F525F455155414C5F544F5F33325F4C454E4754485F5245 DUP2 MSTORE PUSH1 0x20 ADD PUSH1 0x0 DUP1 MLOAD PUSH1 0x20 PUSH2 0xEC1 DUP4 CODECOPY DUP2 MLOAD SWAP2 MSTORE DUP2 MSTORE POP SWAP1 ISZERO ISZERO PUSH2 0x8F0 JUMPI PUSH1 0x40 MLOAD PUSH1 0xE5 PUSH1 0x2 EXP PUSH3 0x461BCD MUL DUP2 MSTORE PUSH1 0x4 ADD PUSH2 0x410 SWAP2 SWAP1 PUSH2 0xD6E JUMP JUMPDEST POP SWAP2 ADD PUSH1 0x20 ADD MSTORE JUMP JUMPDEST PUSH2 0x7DD DUP4 DUP4 DUP4 PUSH2 0x87A JUMP JUMPDEST PUSH1 0x0 DUP2 PUSH1 0x20 ADD DUP4 MLOAD LT ISZERO PUSH1 0x60 PUSH1 0x40 MLOAD SWAP1 DUP2 ADD PUSH1 0x40 MSTORE DUP1 PUSH1 0x26 DUP2 MSTORE PUSH1 0x20 ADD PUSH32 0x475245415445525F4F525F455155414C5F544F5F33325F4C454E4754485F5245 DUP2 MSTORE PUSH1 0x20 ADD PUSH1 0x0 DUP1 MLOAD PUSH1 0x20 PUSH2 0xEC1 DUP4 CODECOPY DUP2 MLOAD SWAP2 MSTORE DUP2 MSTORE POP SWAP1 ISZERO ISZERO PUSH2 0x97C JUMPI PUSH1 0x40 MLOAD PUSH1 0xE5 PUSH1 0x2 EXP PUSH3 0x461BCD MUL DUP2 MSTORE PUSH1 0x4 ADD PUSH2 0x410 SWAP2 SWAP1 PUSH2 0xD6E JUMP JUMPDEST POP POP ADD PUSH1 0x20 ADD MLOAD SWAP1 JUMP JUMPDEST SWAP1 JUMP JUMPDEST PUSH1 0x20 DUP2 LT ISZERO PUSH2 0x9B3 JUMPI PUSH1 0x1 DUP2 PUSH1 0x20 SUB PUSH2 0x100 EXP SUB DUP1 NOT DUP4 MLOAD AND DUP2 DUP6 MLOAD AND DUP1 DUP3 OR DUP7 MSTORE POP POP POP PUSH2 0x7DD JUMP JUMPDEST DUP3 DUP3 EQ ISZERO PUSH2 0x9C0 JUMPI PUSH2 0x7DD JUMP JUMPDEST DUP3 DUP3 GT ISZERO PUSH2 0xA06 JUMPI PUSH1 0x20 DUP2 DIV PUSH1 0x20 DUP3 SUB SWAP2 POP DUP2 DUP4 ADD DUP3 DUP6 ADD DUP2 MLOAD PUSH1 0x0 JUMPDEST DUP5 DUP2 LT ISZERO PUSH2 0x9FB JUMPI DUP7 MLOAD DUP9 MSTORE PUSH1 0x20 SWAP8 DUP9 ADD SWAP8 SWAP1 SWAP7 ADD SWAP6 PUSH1 0x1 ADD PUSH2 0x9DD JUMP JUMPDEST POP SWAP1 MSTORE POP PUSH2 0x7DD SWAP1 POP JUMP JUMPDEST PUSH1 0x20 DUP2 DIV PUSH1 0x20 DUP3 SUB SWAP2 POP DUP2 DUP4 ADD DUP3 DUP6 ADD DUP5 MLOAD PUSH1 0x0 JUMPDEST DUP5 DUP2 LT ISZERO PUSH2 0xA3A JUMPI DUP4 MLOAD DUP4 MSTORE PUSH1 0x1F NOT SWAP4 DUP5 ADD SWAP4 SWAP1 SWAP3 ADD SWAP2 PUSH1 0x1 ADD PUSH2 0xA1B JUMP JUMPDEST POP DUP7 MSTORE POP POP POP POP POP POP JUMP JUMPDEST PUSH1 0x0 PUSH2 0x2E9 DUP3 CALLDATALOAD PUSH2 0xE12 JUMP JUMPDEST PUSH1 0x0 PUSH2 0x2E9 DUP3 CALLDATALOAD PUSH2 0x986 JUMP JUMPDEST PUSH1 0x0 PUSH1 0x1F DUP3 ADD DUP4 SGT PUSH2 0xA6E JUMPI PUSH1 0x0 DUP1 REVERT JUMPDEST DUP2 CALLDATALOAD PUSH2 0xA81 PUSH2 0xA7C DUP3 PUSH2 0xDE6 JUMP JUMPDEST PUSH2 0xDBF JUMP JUMPDEST SWAP2 POP DUP1 DUP3 MSTORE PUSH1 0x20 DUP4 ADD PUSH1 0x20 DUP4 ADD DUP6 DUP4 DUP4 ADD GT ISZERO PUSH2 0xA9D JUMPI PUSH1 0x0 DUP1 REVERT JUMPDEST PUSH2 0xAA8 DUP4 DUP3 DUP5 PUSH2 0xE7A JUMP JUMPDEST POP POP POP SWAP3 SWAP2 POP POP JUMP JUMPDEST PUSH1 0x0 PUSH1 0x20 DUP3 DUP5 SUB SLT ISZERO PUSH2 0xAC3 JUMPI PUSH1 0x0 DUP1 REVERT JUMPDEST DUP2 CALLDATALOAD PUSH8 0xFFFFFFFFFFFFFFFF DUP2 GT ISZERO PUSH2 0xADA JUMPI PUSH1 0x0 DUP1 REVERT JUMPDEST PUSH2 0xAE6 DUP5 DUP3 DUP6 ADD PUSH2 0xA5D JUMP JUMPDEST SWAP5 SWAP4 POP POP POP POP JUMP JUMPDEST PUSH1 0x0 DUP1 PUSH1 0x40 DUP4 DUP6 SUB SLT ISZERO PUSH2 0xB01 JUMPI PUSH1 0x0 DUP1 REVERT JUMPDEST DUP3 CALLDATALOAD PUSH8 0xFFFFFFFFFFFFFFFF DUP2 GT ISZERO PUSH2 0xB18 JUMPI PUSH1 0x0 DUP1 REVERT JUMPDEST PUSH2 0xB24 DUP6 DUP3 DUP7 ADD PUSH2 0xA5D JUMP JUMPDEST SWAP3 POP POP PUSH1 0x20 DUP4 ADD CALLDATALOAD PUSH8 0xFFFFFFFFFFFFFFFF DUP2 GT ISZERO PUSH2 0xB41 JUMPI PUSH1 0x0 DUP1 REVERT JUMPDEST PUSH2 0xB4D DUP6 DUP3 DUP7 ADD PUSH2 0xA5D JUMP JUMPDEST SWAP2 POP POP SWAP3 POP SWAP3 SWAP1 POP JUMP JUMPDEST PUSH1 0x0 DUP1 PUSH1 0x40 DUP4 DUP6 SUB SLT ISZERO PUSH2 0xB6A JUMPI PUSH1 0x0 DUP1 REVERT JUMPDEST DUP3 CALLDATALOAD PUSH8 0xFFFFFFFFFFFFFFFF DUP2 GT ISZERO PUSH2 0xB81 JUMPI PUSH1 0x0 DUP1 REVERT JUMPDEST PUSH2 0xB8D DUP6 DUP3 DUP7 ADD PUSH2 0xA5D JUMP JUMPDEST SWAP3 POP POP PUSH1 0x20 PUSH2 0xB4D DUP6 DUP3 DUP7 ADD PUSH2 0xA51 JUMP JUMPDEST PUSH1 0x0 DUP1 PUSH1 0x0 PUSH1 0x60 DUP5 DUP7 SUB SLT ISZERO PUSH2 0xBB3 JUMPI PUSH1 0x0 DUP1 REVERT JUMPDEST DUP4 CALLDATALOAD PUSH8 0xFFFFFFFFFFFFFFFF DUP2 GT ISZERO PUSH2 0xBCA JUMPI PUSH1 0x0 DUP1 REVERT JUMPDEST PUSH2 0xBD6 DUP7 DUP3 DUP8 ADD PUSH2 0xA5D JUMP JUMPDEST SWAP4 POP POP PUSH1 0x20 PUSH2 0xBE7 DUP7 DUP3 DUP8 ADD PUSH2 0xA51 JUMP JUMPDEST SWAP3 POP POP PUSH1 0x40 PUSH2 0xBF8 DUP7 DUP3 DUP8 ADD PUSH2 0xA45 JUMP JUMPDEST SWAP2 POP POP SWAP3 POP SWAP3 POP SWAP3 JUMP JUMPDEST PUSH1 0x0 DUP1 PUSH1 0x0 PUSH1 0x60 DUP5 DUP7 SUB SLT ISZERO PUSH2 0xC17 JUMPI PUSH1 0x0 DUP1 REVERT JUMPDEST DUP4 CALLDATALOAD PUSH8 0xFFFFFFFFFFFFFFFF DUP2 GT ISZERO PUSH2 0xC2E JUMPI PUSH1 0x0 DUP1 REVERT JUMPDEST PUSH2 0xC3A DUP7 DUP3 DUP8 ADD PUSH2 0xA5D JUMP JUMPDEST SWAP4 POP POP PUSH1 0x20 PUSH2 0xC4B DUP7 DUP3 DUP8 ADD PUSH2 0xA51 JUMP JUMPDEST SWAP3 POP POP PUSH1 0x40 PUSH2 0xBF8 DUP7 DUP3 DUP8 ADD PUSH2 0xA51 JUMP JUMPDEST PUSH1 0x0 DUP1 PUSH1 0x0 PUSH1 0x60 DUP5 DUP7 SUB SLT ISZERO PUSH2 0xC71 JUMPI PUSH1 0x0 DUP1 REVERT JUMPDEST DUP4 CALLDATALOAD PUSH8 0xFFFFFFFFFFFFFFFF DUP2 GT ISZERO PUSH2 0xC88 JUMPI PUSH1 0x0 DUP1 REVERT JUMPDEST PUSH2 0xC94 DUP7 DUP3 DUP8 ADD PUSH2 0xA5D JUMP JUMPDEST SWAP4 POP POP PUSH1 0x20 PUSH2 0xCA5 DUP7 DUP3 DUP8 ADD PUSH2 0xA51 JUMP JUMPDEST SWAP3 POP POP PUSH1 0x40 DUP5 ADD CALLDATALOAD PUSH8 0xFFFFFFFFFFFFFFFF DUP2 GT ISZERO PUSH2 0xCC2 JUMPI PUSH1 0x0 DUP1 REVERT JUMPDEST PUSH2 0xBF8 DUP7 DUP3 DUP8 ADD PUSH2 0xA5D JUMP JUMPDEST PUSH2 0xCD7 DUP2 PUSH2 0xE12 JUMP JUMPDEST DUP3 MSTORE POP POP JUMP JUMPDEST PUSH2 0xCD7 DUP2 PUSH2 0xE2B JUMP JUMPDEST PUSH2 0xCD7 DUP2 PUSH2 0xE30 JUMP JUMPDEST PUSH2 0xCD7 DUP2 PUSH2 0x986 JUMP JUMPDEST PUSH2 0xCD7 DUP2 PUSH2 0xE55 JUMP JUMPDEST PUSH1 0x0 PUSH2 0xD0C DUP3 PUSH2 0xE0E JUMP JUMPDEST DUP1 DUP5 MSTORE PUSH2 0xD20 DUP2 PUSH1 0x20 DUP7 ADD PUSH1 0x20 DUP7 ADD PUSH2 0xE86 JUMP JUMPDEST PUSH2 0xD29 DUP2 PUSH2 0xEB6 JUMP JUMPDEST SWAP1 SWAP4 ADD PUSH1 0x20 ADD SWAP4 SWAP3 POP POP POP JUMP JUMPDEST PUSH1 0x20 DUP2 ADD PUSH2 0x2B3 DUP3 DUP5 PUSH2 0xCCE JUMP JUMPDEST PUSH1 0x20 DUP2 ADD PUSH2 0x2B3 DUP3 DUP5 PUSH2 0xCDD JUMP JUMPDEST PUSH1 0x20 DUP2 ADD PUSH2 0x2B3 DUP3 DUP5 PUSH2 0xCEF JUMP JUMPDEST PUSH1 0x20 DUP2 ADD PUSH2 0x2B3 DUP3 DUP5 PUSH2 0xCF8 JUMP JUMPDEST PUSH1 0x20 DUP1 DUP3 MSTORE DUP2 ADD PUSH2 0x2E9 DUP2 DUP5 PUSH2 0xD01 JUMP JUMPDEST PUSH1 0x40 DUP1 DUP3 MSTORE DUP2 ADD PUSH2 0xD90 DUP2 DUP6 PUSH2 0xD01 JUMP JUMPDEST SWAP1 POP PUSH2 0x2E9 PUSH1 0x20 DUP4 ADD DUP5 PUSH2 0xCCE JUMP JUMPDEST PUSH1 0x40 DUP1 DUP3 MSTORE DUP2 ADD PUSH2 0xDB0 DUP2 DUP6 PUSH2 0xD01 JUMP JUMPDEST SWAP1 POP PUSH2 0x2E9 PUSH1 0x20 DUP4 ADD DUP5 PUSH2 0xCE6 JUMP JUMPDEST PUSH1 0x40 MLOAD DUP2 DUP2 ADD PUSH8 0xFFFFFFFFFFFFFFFF DUP2 GT DUP3 DUP3 LT OR ISZERO PUSH2 0xDDE JUMPI PUSH1 0x0 DUP1 REVERT JUMPDEST PUSH1 0x40 MSTORE SWAP2 SWAP1 POP JUMP JUMPDEST PUSH1 0x0 PUSH8 0xFFFFFFFFFFFFFFFF DUP3 GT ISZERO PUSH2 0xDFD JUMPI PUSH1 0x0 DUP1 REVERT JUMPDEST POP PUSH1 0x20 PUSH1 0x1F SWAP2 SWAP1 SWAP2 ADD PUSH1 0x1F NOT AND ADD SWAP1 JUMP JUMPDEST MLOAD SWAP1 JUMP JUMPDEST PUSH20 0xFFFFFFFFFFFFFFFFFFFFFFFFFFFFFFFFFFFFFFFF AND SWAP1 JUMP JUMPDEST ISZERO ISZERO SWAP1 JUMP JUMPDEST PUSH32 0xFF00000000000000000000000000000000000000000000000000000000000000 AND SWAP1 JUMP JUMPDEST PUSH32 0xFFFFFFFF00000000000000000000000000000000000000000000000000000000 AND SWAP1 JUMP JUMPDEST DUP3 DUP2 DUP4 CALLDATACOPY POP PUSH1 0x0 SWAP2 ADD MSTORE JUMP JUMPDEST PUSH1 0x0 JUMPDEST DUP4 DUP2 LT ISZERO PUSH2 0xEA1 JUMPI DUP2 DUP2 ADD MLOAD DUP4 DUP3 ADD MSTORE PUSH1 0x20 ADD PUSH2 0xE89 JUMP JUMPDEST DUP4 DUP2 GT ISZERO PUSH2 0xEB0 JUMPI PUSH1 0x0 DUP5 DUP5 ADD MSTORE JUMPDEST POP POP POP POP JUMP JUMPDEST PUSH1 0x1F ADD PUSH1 0x1F NOT AND SWAP1 JUMP STOP MLOAD SSTORE 0x49 MSTORE GASLIMIT DIFFICULTY STOP STOP STOP STOP STOP STOP STOP STOP STOP STOP STOP STOP STOP STOP STOP STOP STOP STOP STOP STOP STOP STOP STOP STOP STOP STOP LOG2 PUSH6 0x627A7A723058 KECCAK256 0x5e 0xf 0xdb SWAP1 BLOCKHASH 0xb2 0xc6 0xb1 SWAP5 SWAP13 0xbd AND PUSH4 0x3E85FD88 SWAP1 LT CALL 0xe1 0xd3 0xf9 0x2e 0x2e CODECOPY CALLDATACOPY 0xbc 0xaf 0xd JUMPI DUP2 PUSH13 0x6578706572696D656E74616CF5 STOP CALLDATACOPY "
			}
		}
	},
	"sourceTreeHashHex": "0x6e06fbbf9746c25efd57166887cf87cfb59d9d78a92071fdd2700217165ebb99",
	"compiler": {
		"name": "solc",
		"version": "soljson-v0.4.24+commit.e67f0147.js",
		"settings": {
			"optimizer": {
				"enabled": true,
				"runs": 200
			},
			"outputSelection": {
				"*": {
					"*": [
						"abi",
						"evm.bytecode.object",
						"evm.bytecode.sourceMap",
						"evm.deployedBytecode.object",
						"evm.deployedBytecode.sourceMap"
					]
				}
			}
		}
	}
}