{
	"schemaVersion": "2.0.0",
	"contractName": "TestSignatureValidator",
	"compilerOutput": {
		"abi": [
			{
				"constant": true,
				"inputs": [],
				"name": "EIP712_DOMAIN_SEPARATOR_SCHEMA_HASH",
				"outputs": [
					{
						"name": "",
						"type": "bytes32"
					}
				],
				"payable": false,
				"stateMutability": "view",
				"type": "function"
			},
			{
				"constant": false,
				"inputs": [
					{
						"name": "hash",
						"type": "bytes32"
					},
					{
						"name": "signerAddress",
						"type": "address"
					},
					{
						"name": "signature",
						"type": "bytes"
					}
				],
				"name": "preSign",
				"outputs": [],
				"payable": false,
				"stateMutability": "nonpayable",
				"type": "function"
			},
			{
				"constant": true,
				"inputs": [
					{
						"name": "",
						"type": "bytes32"
					}
				],
				"name": "transactions",
				"outputs": [
					{
						"name": "",
						"type": "bool"
					}
				],
				"payable": false,
				"stateMutability": "view",
				"type": "function"
			},
			{
				"constant": false,
				"inputs": [
					{
						"name": "validatorAddress",
						"type": "address"
					},
					{
						"name": "approval",
						"type": "bool"
					}
				],
				"name": "setSignatureValidatorApproval",
				"outputs": [],
				"payable": false,
				"stateMutability": "nonpayable",
				"type": "function"
			},
			{
				"constant": true,
				"inputs": [
					{
						"name": "",
						"type": "address"
					},
					{
						"name": "",
						"type": "address"
					}
				],
				"name": "allowedValidators",
				"outputs": [
					{
						"name": "",
						"type": "bool"
					}
				],
				"payable": false,
				"stateMutability": "view",
				"type": "function"
			},
			{
				"constant": true,
				"inputs": [
					{
						"name": "",
						"type": "bytes32"
					},
					{
						"name": "",
						"type": "address"
					}
				],
				"name": "preSigned",
				"outputs": [
					{
						"name": "",
						"type": "bool"
					}
				],
				"payable": false,
				"stateMutability": "view",
				"type": "function"
			},
			{
				"constant": true,
				"inputs": [
					{
						"name": "hash",
						"type": "bytes32"
					},
					{
						"name": "signerAddress",
						"type": "address"
					},
					{
						"name": "signature",
						"type": "bytes"
					}
				],
				"name": "isValidSignature",
				"outputs": [
					{
						"name": "isValid",
						"type": "bool"
					}
				],
				"payable": false,
				"stateMutability": "view",
				"type": "function"
			},
			{
				"constant": true,
				"inputs": [
					{
						"name": "hash",
						"type": "bytes32"
					},
					{
						"name": "signer",
						"type": "address"
					},
					{
						"name": "signature",
						"type": "bytes"
					}
				],
				"name": "publicIsValidSignature",
				"outputs": [
					{
						"name": "isValid",
						"type": "bool"
					}
				],
				"payable": false,
				"stateMutability": "view",
				"type": "function"
			},
			{
				"constant": false,
				"inputs": [
					{
						"name": "salt",
						"type": "uint256"
					},
					{
						"name": "signerAddress",
						"type": "address"
					},
					{
						"name": "data",
						"type": "bytes"
					},
					{
						"name": "signature",
						"type": "bytes"
					}
				],
				"name": "executeTransaction",
				"outputs": [],
				"payable": false,
				"stateMutability": "nonpayable",
				"type": "function"
			},
			{
				"constant": true,
				"inputs": [],
				"name": "EIP712_DOMAIN_HASH",
				"outputs": [
					{
						"name": "",
						"type": "bytes32"
					}
				],
				"payable": false,
				"stateMutability": "view",
				"type": "function"
			},
			{
				"constant": true,
				"inputs": [],
				"name": "currentContextAddress",
				"outputs": [
					{
						"name": "",
						"type": "address"
					}
				],
				"payable": false,
				"stateMutability": "view",
				"type": "function"
			},
			{
				"anonymous": false,
				"inputs": [
					{
						"indexed": true,
						"name": "signerAddress",
						"type": "address"
					},
					{
						"indexed": true,
						"name": "validatorAddress",
						"type": "address"
					},
					{
						"indexed": false,
						"name": "approved",
						"type": "bool"
					}
				],
				"name": "SignatureValidatorApproval",
				"type": "event"
			}
		],
		"evm": {
			"bytecode": {
				"linkReferences": {},
				"object": "0x7f454950373132446f6d61696e280000000000000000000000000000000000000060a09081527f737472696e67206e616d652c000000000000000000000000000000000000000060ad527f737472696e672076657273696f6e2c000000000000000000000000000000000060b9527f6164647265737320766572696679696e67436f6e74726163740000000000000060c8527f290000000000000000000000000000000000000000000000000000000000000060e1526042608081815260e26040819052909290918291908083835b60208310620000ef5780518252601f199092019160209182019101620000ce565b51815160209384036101000a6000190180199092169116179052604080519290940182900382208285018552600b8084527f30782050726f746f636f6c000000000000000000000000000000000000000000928401928352945190965091945090928392508083835b60208310620001795780518252601f19909201916020918201910162000158565b51815160209384036101000a600019018019909216911617905260408051929094018290038220828501855260018084527f3200000000000000000000000000000000000000000000000000000000000000928401928352945190965091945090928392508083835b60208310620002035780518252601f199092019160209182019101620001e2565b51815160209384036101000a60001901801990921691161790526040519190930181900381206200023e9796955093503092019050620002d0565b6040516020818303038152906040526040518082805190602001908083835b602083106200027e5780518252601f1990920191602091820191016200025d565b5181516020939093036101000a600019018019909116921691909117905260405192018290039091206000555062000325915050565b620002bf8162000316565b82525050565b620002bf8162000322565b60808101620002e08287620002c5565b620002ef6020830186620002c5565b620002fe6040830185620002c5565b6200030d6060830184620002b4565b95945050505050565b600160a060020a031690565b90565b6120d080620003356000396000f3006080604052600436106100ae5763ffffffff7c01000000000000000000000000000000000000000000000000000000006000350416632624b2d981146100b35780633683ef8e146100de578063642f2eaf1461010057806377fcce681461012d5780637b8e35141461014d57806382c174d01461016d578063936347021461018d578063abba41cc146101ad578063bfc8bfce146101cd578063e306f779146101ed578063eea086ba14610202575b600080fd5b3480156100bf57600080fd5b506100c8610224565b6040516100d59190611ec8565b60405180910390f35b3480156100ea57600080fd5b506100fe6100f9366004611ce7565b610378565b005b34801561010c57600080fd5b5061012061011b366004611caa565b610488565b6040516100d59190611eba565b34801561013957600080fd5b506100fe610148366004611c5c565b61049d565b34801561015957600080fd5b50610120610168366004611c22565b610548565b34801561017957600080fd5b50610120610188366004611cc8565b610568565b34801561019957600080fd5b506101206101a8366004611d4f565b610588565b3480156101b957600080fd5b506101206101c8366004611d4f565b610fe3565b3480156101d957600080fd5b506100fe6101e8366004611db4565b610ff8565b3480156101f957600080fd5b506100c8611352565b34801561020e57600080fd5b50610217611358565b6040516100d59190611eac565b604080517f454950373132446f6d61696e28000000000000000000000000000000000000006020808301919091527f737472696e67206e616d652c0000000000000000000000000000000000000000602d8301527f737472696e672076657273696f6e2c000000000000000000000000000000000060398301527f6164647265737320766572696679696e67436f6e74726163740000000000000060488301527f2900000000000000000000000000000000000000000000000000000000000000606183015282516042818403018152606290920192839052815191929182918401908083835b6020831061034857805182527fffffffffffffffffffffffffffffffffffffffffffffffffffffffffffffffe0909201916020918201910161030b565b6001836020036101000a038019825116818451168082178552505050505050905001915050604051809103902081565b6103b3848484848080601f01602080910402602001604051908101604052809392919081815260200183838082843750610588945050505050565b60408051808201909152601181527f494e56414c49445f5349474e4154555245000000000000000000000000000000602082015290151561042a576040517f08c379a00000000000000000000000000000000000000000000000000000000081526004016104219190611f89565b60405180910390fd5b505050600091825260016020818152604080852073ffffffffffffffffffffffffffffffffffffffff9094168552929052912080547fffffffffffffffffffffffffffffffffffffffffffffffffffffffffffffff00169091179055565b60036020526000908152604090205460ff1681565b60006104a7611374565b73ffffffffffffffffffffffffffffffffffffffff8181166000818152600260209081526040808320948916808452949091529081902080547fffffffffffffffffffffffffffffffffffffffffffffffffffffffffffffff00168715151790555192935090917fa8656e308026eeabce8f0bc18048433252318ab80ac79da0b3d3d8697dfba8919061053b908690611eba565b60405180910390a3505050565b600260209081526000928352604080842090915290825290205460ff1681565b600160209081526000928352604080842090915290825290205460ff1681565b60008060008060008060008060008951116040805190810160405280601e81526020017f4c454e4754485f475245415445525f5448414e5f305f52455155495245440000815250901515610609576040517f08c379a00000000000000000000000000000000000000000000000000000000081526004016104219190611f89565b50610613896113bd565b60408051808201909152601581527f5349474e41545552455f554e535550504f52544544000000000000000000000060208201527f01000000000000000000000000000000000000000000000000000000000000009091049750600960ff8916106106ab576040517f08c379a00000000000000000000000000000000000000000000000000000000081526004016104219190611f89565b508660ff1660098111156106bb57fe5b955060008660098111156106cb57fe5b141561073657604080518082018252601181527f5349474e41545552455f494c4c4547414c000000000000000000000000000000602082015290517f08c379a00000000000000000000000000000000000000000000000000000000081526104219190600401611f89565b600186600981111561074457fe5b14156107c357885160408051808201909152601181527f4c454e4754485f305f5245515549524544000000000000000000000000000000602082015290156107b9576040517f08c379a00000000000000000000000000000000000000000000000000000000081526004016104219190611f89565b5060009750610fd5565b60028660098111156107d157fe5b141561093757885160408051808201909152601281527f4c454e4754485f36355f52455155495245440000000000000000000000000000602082015290604114610848576040517f08c379a00000000000000000000000000000000000000000000000000000000081526004016104219190611f89565b5088600081518110151561085857fe5b01602001517f01000000000000000000000000000000000000000000000000000000000000009081900481020494506108928960016114e1565b935061089f8960216114e1565b925060018b868686604051600081526020016040526040516108c49493929190611f61565b60206040516020810390808403906000865af11580156108e8573d6000803e3d6000fd5b50506040517fffffffffffffffffffffffffffffffffffffffffffffffffffffffffffffffe0015173ffffffffffffffffffffffffffffffffffffffff8c81169082161499509250610fd59050565b600386600981111561094557fe5b1415610b9c57885160408051808201909152601281527f4c454e4754485f36355f524551554952454400000000000000000000000000006020820152906041146109bc576040517f08c379a00000000000000000000000000000000000000000000000000000000081526004016104219190611f89565b508860008151811015156109cc57fe5b01602001517f0100000000000000000000000000000000000000000000000000000000000000908190048102049450610a068960016114e1565b9350610a138960216114e1565b925060016040805190810160405280601c81526020017f19457468657265756d205369676e6564204d6573736167653a0a3332000000008152508c6040516020018083805190602001908083835b60208310610a9e57805182527fffffffffffffffffffffffffffffffffffffffffffffffffffffffffffffffe09092019160209182019101610a61565b51815160209384036101000a7fffffffffffffffffffffffffffffffffffffffffffffffffffffffffffffffff018019909216911617905292019384525060408051808503815293820190819052835193945092839250908401908083835b60208310610b3a57805182527fffffffffffffffffffffffffffffffffffffffffffffffffffffffffffffffe09092019160209182019101610afd565b51815160209384036101000a7fffffffffffffffffffffffffffffffffffffffffffffffffffffffffffffffff018019909216911617905260408051929094018290038220600083529101928390526108c49450925089918991508890611f61565b6004866009811115610baa57fe5b1415610c4057885160408051808201909152601181527f4c454e4754485f305f524551554952454400000000000000000000000000000060208201529015610c1f576040517f08c379a00000000000000000000000000000000000000000000000000000000081526004016104219190611f89565b5073ffffffffffffffffffffffffffffffffffffffff8a1633149750610fd5565b6005866009811115610c4e57fe5b1415610d01576040517f1626ba7e00000000000000000000000000000000000000000000000000000000815273ffffffffffffffffffffffffffffffffffffffff8b1690631626ba7e90610ca8908e908d90600401611f0c565b602060405180830381600087803b158015610cc257600080fd5b505af1158015610cd6573d6000803e3d6000fd5b505050506040513d601f19601f82011682018060405250610cfa9190810190611c8c565b9750610fd5565b6006866009811115610d0f57fe5b1415610dbc57610d1e8961158c565b73ffffffffffffffffffffffffffffffffffffffff808c1660009081526002602090815260408083209385168352929052205490915060ff161515610d665760009750610fd5565b6040517f9363470200000000000000000000000000000000000000000000000000000000815273ffffffffffffffffffffffffffffffffffffffff821690639363470290610ca8908e908e908e90600401611ed6565b6007866009811115610dca57fe5b1415610e0a5760008b815260016020908152604080832073ffffffffffffffffffffffffffffffffffffffff8e16845290915290205460ff169750610fd5565b6008866009811115610e1857fe5b1415610f7057885160408051808201909152601281527f4c454e4754485f36355f52455155495245440000000000000000000000000000602082015290604114610e8f576040517f08c379a00000000000000000000000000000000000000000000000000000000081526004016104219190611f89565b50886000815181101515610e9f57fe5b01602001517f0100000000000000000000000000000000000000000000000000000000000000908190048102049450610ed98960016114e1565b9350610ee68960216114e1565b925060016040805190810160405280601b81526020017f19457468657265756d205369676e6564204d6573736167653a0a2000000000008152508c60405160200180838051906020019080838360208310610a9e57805182527fffffffffffffffffffffffffffffffffffffffffffffffffffffffffffffffe09092019160209182019101610a61565b604080518082018252601581527f5349474e41545552455f554e535550504f525445440000000000000000000000602082015290517f08c379a00000000000000000000000000000000000000000000000000000000081526104219190600401611f89565b505050505050509392505050565b6000610ff0848484610588565b949350505050565b60045460408051808201909152601281527f5245454e5452414e43595f494c4c4547414c0000000000000000000000000000602082015260009173ffffffffffffffffffffffffffffffffffffffff1615611080576040517f08c379a00000000000000000000000000000000000000000000000000000000081526004016104219190611f89565b506110c46110bf888888888080601f01602080910402602001604051908101604052809392919081815260200183838082843750611665945050505050565b61190d565b600081815260036020908152604091829020548251808401909352600f83527f494e56414c49445f54585f484153480000000000000000000000000000000000918301919091529192509060ff161561114a576040517f08c379a00000000000000000000000000000000000000000000000000000000081526004016104219190611f89565b5073ffffffffffffffffffffffffffffffffffffffff86163314611253576111a3818785858080601f01602080910402602001604051908101604052809392919081815260200183838082843750610588945050505050565b60408051808201909152601481527f494e56414c49445f54585f5349474e41545552450000000000000000000000006020820152901515611211576040517f08c379a00000000000000000000000000000000000000000000000000000000081526004016104219190611f89565b50600480547fffffffffffffffffffffffff00000000000000000000000000000000000000001673ffffffffffffffffffffffffffffffffffffffff88161790555b6000818152600360205260409081902080547fffffffffffffffffffffffffffffffffffffffffffffffffffffffffffffff001660011790555130908690869080838380828437820191505092505050600060405180830381855af460408051808201909152601081527f4641494c45445f455845435554494f4e000000000000000000000000000000006020820152925015159050611320576040517f08c379a00000000000000000000000000000000000000000000000000000000081526004016104219190611f89565b5050600480547fffffffffffffffffffffffff0000000000000000000000000000000000000000169055505050505050565b60005481565b60045473ffffffffffffffffffffffffffffffffffffffff1681565b600454600090819073ffffffffffffffffffffffffffffffffffffffff16156113b55760045473ffffffffffffffffffffffffffffffffffffffff166113b7565b335b92915050565b600080825111606060405190810160405280602181526020017f475245415445525f5448414e5f5a45524f5f4c454e4754485f5245515549524581526020017f440000000000000000000000000000000000000000000000000000000000000081525090151561145a576040517f08c379a00000000000000000000000000000000000000000000000000000000081526004016104219190611f89565b50815182907fffffffffffffffffffffffffffffffffffffffffffffffffffffffffffffffff810190811061148b57fe5b016020015182517fffffffffffffffffffffffffffffffffffffffffffffffffffffffffffffffff01909252507f0100000000000000000000000000000000000000000000000000000000000000908190040290565b60008160200183511015606060405190810160405280602681526020017f475245415445525f4f525f455155414c5f544f5f33325f4c454e4754485f524581526020017f5155495245440000000000000000000000000000000000000000000000000000815250901515611582576040517f08c379a00000000000000000000000000000000000000000000000000000000081526004016104219190611f89565b5050016020015190565b6000601482511015606060405190810160405280602681526020017f475245415445525f4f525f455155414c5f544f5f32305f4c454e4754485f524581526020017f515549524544000000000000000000000000000000000000000000000000000081525090151561162b576040517f08c379a00000000000000000000000000000000000000000000000000000000081526004016104219190611f89565b5061163a826014845103611a8d565b82517fffffffffffffffffffffffffffffffffffffffffffffffffffffffffffffffec019092525090565b604080517f5a65726f45785472616e73616374696f6e2800000000000000000000000000006020808301919091527f75696e743235362073616c742c0000000000000000000000000000000000000060328301527f61646472657373207369676e6572416464726573732c00000000000000000000603f8301527f627974657320646174610000000000000000000000000000000000000000000060558301527f2900000000000000000000000000000000000000000000000000000000000000605f8301528251808303840181526060909201928390528151600093918291908401908083835b6020831061178a57805182527fffffffffffffffffffffffffffffffffffffffffffffffffffffffffffffffe0909201916020918201910161174d565b6001836020036101000a03801982511681845116808217855250505050505090500191505060405180910390208484846040518082805190602001908083835b6020831061180757805182527fffffffffffffffffffffffffffffffffffffffffffffffffffffffffffffffe090920191602091820191016117ca565b51815160209384036101000a7fffffffffffffffffffffffffffffffffffffffffffffffffffffffffffffffff018019909216911617905260405191909301819003812061185f989796955093509091019050611f2c565b6040516020818303038152906040526040518082805190602001908083835b602083106118bb57805182527fffffffffffffffffffffffffffffffffffffffffffffffffffffffffffffffe0909201916020918201910161187e565b5181516020939093036101000a7fffffffffffffffffffffffffffffffffffffffffffffffffffffffffffffffff01801990911692169190911790526040519201829003909120979650505050505050565b60006040805190810160405280600281526020017f1901000000000000000000000000000000000000000000000000000000000000815250600054836040516020018084805190602001908083835b6020831061199957805182527fffffffffffffffffffffffffffffffffffffffffffffffffffffffffffffffe0909201916020918201910161195c565b51815160209384036101000a7fffffffffffffffffffffffffffffffffffffffffffffffffffffffffffffffff0180199092169116179052920194855250838101929092525060408051808403830181529281019081905282519293509182918401908083835b60208310611a3d57805182527fffffffffffffffffffffffffffffffffffffffffffffffffffffffffffffffe09092019160209182019101611a00565b5181516020939093036101000a7fffffffffffffffffffffffffffffffffffffffffffffffffffffffffffffffff0180199091169216919091179052604051920182900390912095945050505050565b60008160140183511015606060405190810160405280602681526020017f475245415445525f4f525f455155414c5f544f5f32305f4c454e4754485f524581526020017f5155495245440000000000000000000000000000000000000000000000000000815250901515611b2e576040517f08c379a00000000000000000000000000000000000000000000000000000000081526004016104219190611f89565b5050016014015173ffffffffffffffffffffffffffffffffffffffff1690565b6000611b5a823561200b565b9392505050565b6000611b5a8235612024565b6000611b5a8251612024565b6000611b5a8235612029565b600080601f83018413611b9757600080fd5b50813567ffffffffffffffff811115611baf57600080fd5b602083019150836001820283011115611bc757600080fd5b9250929050565b6000601f82018313611bdf57600080fd5b8135611bf2611bed82611fc1565b611f9a565b91508082526020830160208301858383011115611c0e57600080fd5b611c19838284612032565b50505092915050565b60008060408385031215611c3557600080fd5b6000611c418585611b4e565b9250506020611c5285828601611b4e565b9150509250929050565b60008060408385031215611c6f57600080fd5b6000611c7b8585611b4e565b9250506020611c5285828601611b61565b600060208284031215611c9e57600080fd5b6000610ff08484611b6d565b600060208284031215611cbc57600080fd5b6000610ff08484611b79565b60008060408385031215611cdb57600080fd5b6000611c418585611b79565b60008060008060608587031215611cfd57600080fd5b6000611d098787611b79565b9450506020611d1a87828801611b4e565b935050604085013567ffffffffffffffff811115611d3757600080fd5b611d4387828801611b85565b95989497509550505050565b600080600060608486031215611d6457600080fd5b6000611d708686611b79565b9350506020611d8186828701611b4e565b925050604084013567ffffffffffffffff811115611d9e57600080fd5b611daa86828701611bce565b9150509250925092565b60008060008060008060808789031215611dcd57600080fd5b6000611dd98989611b79565b9650506020611dea89828a01611b4e565b955050604087013567ffffffffffffffff811115611e0757600080fd5b611e1389828a01611b85565b9450945050606087013567ffffffffffffffff811115611e3257600080fd5b611e3e89828a01611b85565b92509250509295509295509295565b611e568161200b565b82525050565b611e5681612024565b611e5681612029565b6000611e7982612007565b808452611e8d81602086016020860161203e565b611e968161206e565b9093016020019392505050565b611e568161202c565b602081016113b78284611e4d565b602081016113b78284611e5c565b602081016113b78284611e65565b60608101611ee48286611e65565b611ef16020830185611e4d565b8181036040830152611f038184611e6e565b95945050505050565b60408101611f1a8285611e65565b8181036020830152610ff08184611e6e565b60808101611f3a8287611e65565b611f476020830186611e65565b611f546040830185611e4d565b611f036060830184611e65565b60808101611f6f8287611e65565b611f7c6020830186611ea3565b611f546040830185611e65565b60208082528101611b5a8184611e6e565b60405181810167ffffffffffffffff81118282101715611fb957600080fd5b604052919050565b600067ffffffffffffffff821115611fd857600080fd5b506020601f919091017fffffffffffffffffffffffffffffffffffffffffffffffffffffffffffffffe0160190565b5190565b73ffffffffffffffffffffffffffffffffffffffff1690565b151590565b90565b60ff1690565b82818337506000910152565b60005b83811015612059578181015183820152602001612041565b83811115612068576000848401525b50505050565b601f017fffffffffffffffffffffffffffffffffffffffffffffffffffffffffffffffe016905600a265627a7a72305820a2d73016bd3f058d11e275435d0070e510aeab6b8cee48c1078a9911d1eeb7106c6578706572696d656e74616cf50037",
				"opcodes": "PUSH32 0x454950373132446F6D61696E2800000000000000000000000000000000000000 PUSH1 0xA0 SWAP1 DUP2 MSTORE PUSH32 0x737472696E67206E616D652C0000000000000000000000000000000000000000 PUSH1 0xAD MSTORE PUSH32 0x737472696E672076657273696F6E2C0000000000000000000000000000000000 PUSH1 0xB9 MSTORE PUSH32 0x6164647265737320766572696679696E67436F6E747261637400000000000000 PUSH1 0xC8 MSTORE PUSH32 0x2900000000000000000000000000000000000000000000000000000000000000 PUSH1 0xE1 MSTORE PUSH1 0x42 PUSH1 0x80 DUP2 DUP2 MSTORE PUSH1 0xE2 PUSH1 0x40 DUP2 SWAP1 MSTORE SWAP1 SWAP3 SWAP1 SWAP2 DUP3 SWAP2 SWAP1 DUP1 DUP4 DUP4 JUMPDEST PUSH1 0x20 DUP4 LT PUSH3 0xEF JUMPI DUP1 MLOAD DUP3 MSTORE PUSH1 0x1F NOT SWAP1 SWAP3 ADD SWAP2 PUSH1 0x20 SWAP2 DUP3 ADD SWAP2 ADD PUSH3 0xCE JUMP JUMPDEST MLOAD DUP2 MLOAD PUSH1 0x20 SWAP4 DUP5 SUB PUSH2 0x100 EXP PUSH1 0x0 NOT ADD DUP1 NOT SWAP1 SWAP3 AND SWAP2 AND OR SWAP1 MSTORE PUSH1 0x40 DUP1 MLOAD SWAP3 SWAP1 SWAP5 ADD DUP3 SWAP1 SUB DUP3 KECCAK256 DUP3 DUP6 ADD DUP6 MSTORE PUSH1 0xB DUP1 DUP5 MSTORE PUSH32 0x30782050726F746F636F6C000000000000000000000000000000000000000000 SWAP3 DUP5 ADD SWAP3 DUP4 MSTORE SWAP5 MLOAD SWAP1 SWAP7 POP SWAP2 SWAP5 POP SWAP1 SWAP3 DUP4 SWAP3 POP DUP1 DUP4 DUP4 JUMPDEST PUSH1 0x20 DUP4 LT PUSH3 0x179 JUMPI DUP1 MLOAD DUP3 MSTORE PUSH1 0x1F NOT SWAP1 SWAP3 ADD SWAP2 PUSH1 0x20 SWAP2 DUP3 ADD SWAP2 ADD PUSH3 0x158 JUMP JUMPDEST MLOAD DUP2 MLOAD PUSH1 0x20 SWAP4 DUP5 SUB PUSH2 0x100 EXP PUSH1 0x0 NOT ADD DUP1 NOT SWAP1 SWAP3 AND SWAP2 AND OR SWAP1 MSTORE PUSH1 0x40 DUP1 MLOAD SWAP3 SWAP1 SWAP5 ADD DUP3 SWAP1 SUB DUP3 KECCAK256 DUP3 DUP6 ADD DUP6 MSTORE PUSH1 0x1 DUP1 DUP5 MSTORE PUSH32 0x3200000000000000000000000000000000000000000000000000000000000000 SWAP3 DUP5 ADD SWAP3 DUP4 MSTORE SWAP5 MLOAD SWAP1 SWAP7 POP SWAP2 SWAP5 POP SWAP1 SWAP3 DUP4 SWAP3 POP DUP1 DUP4 DUP4 JUMPDEST PUSH1 0x20 DUP4 LT PUSH3 0x203 JUMPI DUP1 MLOAD DUP3 MSTORE PUSH1 0x1F NOT SWAP1 SWAP3 ADD SWAP2 PUSH1 0x20 SWAP2 DUP3 ADD SWAP2 ADD PUSH3 0x1E2 JUMP JUMPDEST MLOAD DUP2 MLOAD PUSH1 0x20 SWAP4 DUP5 SUB PUSH2 0x100 EXP PUSH1 0x0 NOT ADD DUP1 NOT SWAP1 SWAP3 AND SWAP2 AND OR SWAP1 MSTORE PUSH1 0x40 MLOAD SWAP2 SWAP1 SWAP4 ADD DUP2 SWAP1 SUB DUP2 KECCAK256 PUSH3 0x23E SWAP8 SWAP7 SWAP6 POP SWAP4 POP ADDRESS SWAP3 ADD SWAP1 POP PUSH3 0x2D0 JUMP JUMPDEST PUSH1 0x40 MLOAD PUSH1 0x20 DUP2 DUP4 SUB SUB DUP2 MSTORE SWAP1 PUSH1 0x40 MSTORE PUSH1 0x40 MLOAD DUP1 DUP3 DUP1 MLOAD SWAP1 PUSH1 0x20 ADD SWAP1 DUP1 DUP4 DUP4 JUMPDEST PUSH1 0x20 DUP4 LT PUSH3 0x27E JUMPI DUP1 MLOAD DUP3 MSTORE PUSH1 0x1F NOT SWAP1 SWAP3 ADD SWAP2 PUSH1 0x20 SWAP2 DUP3 ADD SWAP2 ADD PUSH3 0x25D JUMP JUMPDEST MLOAD DUP2 MLOAD PUSH1 0x20 SWAP4 SWAP1 SWAP4 SUB PUSH2 0x100 EXP PUSH1 0x0 NOT ADD DUP1 NOT SWAP1 SWAP2 AND SWAP3 AND SWAP2 SWAP1 SWAP2 OR SWAP1 MSTORE PUSH1 0x40 MLOAD SWAP3 ADD DUP3 SWAP1 SUB SWAP1 SWAP2 KECCAK256 PUSH1 0x0 SSTORE POP PUSH3 0x325 SWAP2 POP POP JUMP JUMPDEST PUSH3 0x2BF DUP2 PUSH3 0x316 JUMP JUMPDEST DUP3 MSTORE POP POP JUMP JUMPDEST PUSH3 0x2BF DUP2 PUSH3 0x322 JUMP JUMPDEST PUSH1 0x80 DUP2 ADD PUSH3 0x2E0 DUP3 DUP8 PUSH3 0x2C5 JUMP JUMPDEST PUSH3 0x2EF PUSH1 0x20 DUP4 ADD DUP7 PUSH3 0x2C5 JUMP JUMPDEST PUSH3 0x2FE PUSH1 0x40 DUP4 ADD DUP6 PUSH3 0x2C5 JUMP JUMPDEST PUSH3 0x30D PUSH1 0x60 DUP4 ADD DUP5 PUSH3 0x2B4 JUMP JUMPDEST SWAP6 SWAP5 POP POP POP POP POP JUMP JUMPDEST PUSH1 0x1 PUSH1 0xA0 PUSH1 0x2 EXP SUB AND SWAP1 JUMP JUMPDEST SWAP1 JUMP JUMPDEST PUSH2 0x20D0 DUP1 PUSH3 0x335 PUSH1 0x0 CODECOPY PUSH1 0x0 RETURN STOP PUSH1 0x80 PUSH1 0x40 MSTORE PUSH1 0x4 CALLDATASIZE LT PUSH2 0xAE JUMPI PUSH4 0xFFFFFFFF PUSH29 0x100000000000000000000000000000000000000000000000000000000 PUSH1 0x0 CALLDATALOAD DIV AND PUSH4 0x2624B2D9 DUP2 EQ PUSH2 0xB3 JUMPI DUP1 PUSH4 0x3683EF8E EQ PUSH2 0xDE JUMPI DUP1 PUSH4 0x642F2EAF EQ PUSH2 0x100 JUMPI DUP1 PUSH4 0x77FCCE68 EQ PUSH2 0x12D JUMPI DUP1 PUSH4 0x7B8E3514 EQ PUSH2 0x14D JUMPI DUP1 PUSH4 0x82C174D0 EQ PUSH2 0x16D JUMPI DUP1 PUSH4 0x93634702 EQ PUSH2 0x18D JUMPI DUP1 PUSH4 0xABBA41CC EQ PUSH2 0x1AD JUMPI DUP1 PUSH4 0xBFC8BFCE EQ PUSH2 0x1CD JUMPI DUP1 PUSH4 0xE306F779 EQ PUSH2 0x1ED JUMPI DUP1 PUSH4 0xEEA086BA EQ PUSH2 0x202 JUMPI JUMPDEST PUSH1 0x0 DUP1 REVERT JUMPDEST CALLVALUE DUP1 ISZERO PUSH2 0xBF JUMPI PUSH1 0x0 DUP1 REVERT JUMPDEST POP PUSH2 0xC8 PUSH2 0x224 JUMP JUMPDEST PUSH1 0x40 MLOAD PUSH2 0xD5 SWAP2 SWAP1 PUSH2 0x1EC8 JUMP JUMPDEST PUSH1 0x40 MLOAD DUP1 SWAP2 SUB SWAP1 RETURN JUMPDEST CALLVALUE DUP1 ISZERO PUSH2 0xEA JUMPI PUSH1 0x0 DUP1 REVERT JUMPDEST POP PUSH2 0xFE PUSH2 0xF9 CALLDATASIZE PUSH1 0x4 PUSH2 0x1CE7 JUMP JUMPDEST PUSH2 0x378 JUMP JUMPDEST STOP JUMPDEST CALLVALUE DUP1 ISZERO PUSH2 0x10C JUMPI PUSH1 0x0 DUP1 REVERT JUMPDEST POP PUSH2 0x120 PUSH2 0x11B CALLDATASIZE PUSH1 0x4 PUSH2 0x1CAA JUMP JUMPDEST PUSH2 0x488 JUMP JUMPDEST PUSH1 0x40 MLOAD PUSH2 0xD5 SWAP2 SWAP1 PUSH2 0x1EBA JUMP JUMPDEST CALLVALUE DUP1 ISZERO PUSH2 0x139 JUMPI PUSH1 0x0 DUP1 REVERT JUMPDEST POP PUSH2 0xFE PUSH2 0x148 CALLDATASIZE PUSH1 0x4 PUSH2 0x1C5C JUMP JUMPDEST PUSH2 0x49D JUMP JUMPDEST CALLVALUE DUP1 ISZERO PUSH2 0x159 JUMPI PUSH1 0x0 DUP1 REVERT JUMPDEST POP PUSH2 0x120 PUSH2 0x168 CALLDATASIZE PUSH1 0x4 PUSH2 0x1C22 JUMP JUMPDEST PUSH2 0x548 JUMP JUMPDEST CALLVALUE DUP1 ISZERO PUSH2 0x179 JUMPI PUSH1 0x0 DUP1 REVERT JUMPDEST POP PUSH2 0x120 PUSH2 0x188 CALLDATASIZE PUSH1 0x4 PUSH2 0x1CC8 JUMP JUMPDEST PUSH2 0x568 JUMP JUMPDEST CALLVALUE DUP1 ISZERO PUSH2 0x199 JUMPI PUSH1 0x0 DUP1 REVERT JUMPDEST POP PUSH2 0x120 PUSH2 0x1A8 CALLDATASIZE PUSH1 0x4 PUSH2 0x1D4F JUMP JUMPDEST PUSH2 0x588 JUMP JUMPDEST CALLVALUE DUP1 ISZERO PUSH2 0x1B9 JUMPI PUSH1 0x0 DUP1 REVERT JUMPDEST POP PUSH2 0x120 PUSH2 0x1C8 CALLDATASIZE PUSH1 0x4 PUSH2 0x1D4F JUMP JUMPDEST PUSH2 0xFE3 JUMP JUMPDEST CALLVALUE DUP1 ISZERO PUSH2 0x1D9 JUMPI PUSH1 0x0 DUP1 REVERT JUMPDEST POP PUSH2 0xFE PUSH2 0x1E8 CALLDATASIZE PUSH1 0x4 PUSH2 0x1DB4 JUMP JUMPDEST PUSH2 0xFF8 JUMP JUMPDEST CALLVALUE DUP1 ISZERO PUSH2 0x1F9 JUMPI PUSH1 0x0 DUP1 REVERT JUMPDEST POP PUSH2 0xC8 PUSH2 0x1352 JUMP JUMPDEST CALLVALUE DUP1 ISZERO PUSH2 0x20E JUMPI PUSH1 0x0 DUP1 REVERT JUMPDEST POP PUSH2 0x217 PUSH2 0x1358 JUMP JUMPDEST PUSH1 0x40 MLOAD PUSH2 0xD5 SWAP2 SWAP1 PUSH2 0x1EAC JUMP JUMPDEST PUSH1 0x40 DUP1 MLOAD PUSH32 0x454950373132446F6D61696E2800000000000000000000000000000000000000 PUSH1 0x20 DUP1 DUP4 ADD SWAP2 SWAP1 SWAP2 MSTORE PUSH32 0x737472696E67206E616D652C0000000000000000000000000000000000000000 PUSH1 0x2D DUP4 ADD MSTORE PUSH32 0x737472696E672076657273696F6E2C0000000000000000000000000000000000 PUSH1 0x39 DUP4 ADD MSTORE PUSH32 0x6164647265737320766572696679696E67436F6E747261637400000000000000 PUSH1 0x48 DUP4 ADD MSTORE PUSH32 0x2900000000000000000000000000000000000000000000000000000000000000 PUSH1 0x61 DUP4 ADD MSTORE DUP3 MLOAD PUSH1 0x42 DUP2 DUP5 SUB ADD DUP2 MSTORE PUSH1 0x62 SWAP1 SWAP3 ADD SWAP3 DUP4 SWAP1 MSTORE DUP2 MLOAD SWAP2 SWAP3 SWAP2 DUP3 SWAP2 DUP5 ADD SWAP1 DUP1 DUP4 DUP4 JUMPDEST PUSH1 0x20 DUP4 LT PUSH2 0x348 JUMPI DUP1 MLOAD DUP3 MSTORE PUSH32 0xFFFFFFFFFFFFFFFFFFFFFFFFFFFFFFFFFFFFFFFFFFFFFFFFFFFFFFFFFFFFFFE0 SWAP1 SWAP3 ADD SWAP2 PUSH1 0x20 SWAP2 DUP3 ADD SWAP2 ADD PUSH2 0x30B JUMP JUMPDEST PUSH1 0x1 DUP4 PUSH1 0x20 SUB PUSH2 0x100 EXP SUB DUP1 NOT DUP3 MLOAD AND DUP2 DUP5 MLOAD AND DUP1 DUP3 OR DUP6 MSTORE POP POP POP POP POP POP SWAP1 POP ADD SWAP2 POP POP PUSH1 0x40 MLOAD DUP1 SWAP2 SUB SWAP1 KECCAK256 DUP2 JUMP JUMPDEST PUSH2 0x3B3 DUP5 DUP5 DUP5 DUP5 DUP1 DUP1 PUSH1 0x1F ADD PUSH1 0x20 DUP1 SWAP2 DIV MUL PUSH1 0x20 ADD PUSH1 0x40 MLOAD SWAP1 DUP2 ADD PUSH1 0x40 MSTORE DUP1 SWAP4 SWAP3 SWAP2 SWAP1 DUP2 DUP2 MSTORE PUSH1 0x20 ADD DUP4 DUP4 DUP1 DUP3 DUP5 CALLDATACOPY POP PUSH2 0x588 SWAP5 POP POP POP POP POP JUMP JUMPDEST PUSH1 0x40 DUP1 MLOAD DUP1 DUP3 ADD SWAP1 SWAP2 MSTORE PUSH1 0x11 DUP2 MSTORE PUSH32 0x494E56414C49445F5349474E4154555245000000000000000000000000000000 PUSH1 0x20 DUP3 ADD MSTORE SWAP1 ISZERO ISZERO PUSH2 0x42A JUMPI PUSH1 0x40 MLOAD PUSH32 0x8C379A000000000000000000000000000000000000000000000000000000000 DUP2 MSTORE PUSH1 0x4 ADD PUSH2 0x421 SWAP2 SWAP1 PUSH2 0x1F89 JUMP JUMPDEST PUSH1 0x40 MLOAD DUP1 SWAP2 SUB SWAP1 REVERT JUMPDEST POP POP POP PUSH1 0x0 SWAP2 DUP3 MSTORE PUSH1 0x1 PUSH1 0x20 DUP2 DUP2 MSTORE PUSH1 0x40 DUP1 DUP6 KECCAK256 PUSH20 0xFFFFFFFFFFFFFFFFFFFFFFFFFFFFFFFFFFFFFFFF SWAP1 SWAP5 AND DUP6 MSTORE SWAP3 SWAP1 MSTORE SWAP2 KECCAK256 DUP1 SLOAD PUSH32 0xFFFFFFFFFFFFFFFFFFFFFFFFFFFFFFFFFFFFFFFFFFFFFFFFFFFFFFFFFFFFFF00 AND SWAP1 SWAP2 OR SWAP1 SSTORE JUMP JUMPDEST PUSH1 0x3 PUSH1 0x20 MSTORE PUSH1 0x0 SWAP1 DUP2 MSTORE PUSH1 0x40 SWAP1 KECCAK256 SLOAD PUSH1 0xFF AND DUP2 JUMP JUMPDEST PUSH1 0x0 PUSH2 0x4A7 PUSH2 0x1374 JUMP JUMPDEST PUSH20 0xFFFFFFFFFFFFFFFFFFFFFFFFFFFFFFFFFFFFFFFF DUP2 DUP2 AND PUSH1 0x0 DUP2 DUP2 MSTORE PUSH1 0x2 PUSH1 0x20 SWAP1 DUP2 MSTORE PUSH1 0x40 DUP1 DUP4 KECCAK256 SWAP5 DUP10 AND DUP1 DUP5 MSTORE SWAP5 SWAP1 SWAP2 MSTORE SWAP1 DUP2 SWAP1 KECCAK256 DUP1 SLOAD PUSH32 0xFFFFFFFFFFFFFFFFFFFFFFFFFFFFFFFFFFFFFFFFFFFFFFFFFFFFFFFFFFFFFF00 AND DUP8 ISZERO ISZERO OR SWAP1 SSTORE MLOAD SWAP3 SWAP4 POP SWAP1 SWAP2 PUSH32 0xA8656E308026EEABCE8F0BC18048433252318AB80AC79DA0B3D3D8697DFBA891 SWAP1 PUSH2 0x53B SWAP1 DUP7 SWAP1 PUSH2 0x1EBA JUMP JUMPDEST PUSH1 0x40 MLOAD DUP1 SWAP2 SUB SWAP1 LOG3 POP POP POP JUMP JUMPDEST PUSH1 0x2 PUSH1 0x20 SWAP1 DUP2 MSTORE PUSH1 0x0 SWAP3 DUP4 MSTORE PUSH1 0x40 DUP1 DUP5 KECCAK256 SWAP1 SWAP2 MSTORE SWAP1 DUP3 MSTORE SWAP1 KECCAK256 SLOAD PUSH1 0xFF AND DUP2 JUMP JUMPDEST PUSH1 0x1 PUSH1 0x20 SWAP1 DUP2 MSTORE PUSH1 0x0 SWAP3 DUP4 MSTORE PUSH1 0x40 DUP1 DUP5 KECCAK256 SWAP1 SWAP2 MSTORE SWAP1 DUP3 MSTORE SWAP1 KECCAK256 SLOAD PUSH1 0xFF AND DUP2 JUMP JUMPDEST PUSH1 0x0 DUP1 PUSH1 0x0 DUP1 PUSH1 0x0 DUP1 PUSH1 0x0 DUP1 PUSH1 0x0 DUP10 MLOAD GT PUSH1 0x40 DUP1 MLOAD SWAP1 DUP2 ADD PUSH1 0x40 MSTORE DUP1 PUSH1 0x1E DUP2 MSTORE PUSH1 0x20 ADD PUSH32 0x4C454E4754485F475245415445525F5448414E5F305F52455155495245440000 DUP2 MSTORE POP SWAP1 ISZERO ISZERO PUSH2 0x609 JUMPI PUSH1 0x40 MLOAD PUSH32 0x8C379A000000000000000000000000000000000000000000000000000000000 DUP2 MSTORE PUSH1 0x4 ADD PUSH2 0x421 SWAP2 SWAP1 PUSH2 0x1F89 JUMP JUMPDEST POP PUSH2 0x613 DUP10 PUSH2 0x13BD JUMP JUMPDEST PUSH1 0x40 DUP1 MLOAD DUP1 DUP3 ADD SWAP1 SWAP2 MSTORE PUSH1 0x15 DUP2 MSTORE PUSH32 0x5349474E41545552455F554E535550504F525445440000000000000000000000 PUSH1 0x20 DUP3 ADD MSTORE PUSH32 0x100000000000000000000000000000000000000000000000000000000000000 SWAP1 SWAP2 DIV SWAP8 POP PUSH1 0x9 PUSH1 0xFF DUP10 AND LT PUSH2 0x6AB JUMPI PUSH1 0x40 MLOAD PUSH32 0x8C379A000000000000000000000000000000000000000000000000000000000 DUP2 MSTORE PUSH1 0x4 ADD PUSH2 0x421 SWAP2 SWAP1 PUSH2 0x1F89 JUMP JUMPDEST POP DUP7 PUSH1 0xFF AND PUSH1 0x9 DUP2 GT ISZERO PUSH2 0x6BB JUMPI INVALID JUMPDEST SWAP6 POP PUSH1 0x0 DUP7 PUSH1 0x9 DUP2 GT ISZERO PUSH2 0x6CB JUMPI INVALID JUMPDEST EQ ISZERO PUSH2 0x736 JUMPI PUSH1 0x40 DUP1 MLOAD DUP1 DUP3 ADD DUP3 MSTORE PUSH1 0x11 DUP2 MSTORE PUSH32 0x5349474E41545552455F494C4C4547414C000000000000000000000000000000 PUSH1 0x20 DUP3 ADD MSTORE SWAP1 MLOAD PUSH32 0x8C379A000000000000000000000000000000000000000000000000000000000 DUP2 MSTORE PUSH2 0x421 SWAP2 SWAP1 PUSH1 0x4 ADD PUSH2 0x1F89 JUMP JUMPDEST PUSH1 0x1 DUP7 PUSH1 0x9 DUP2 GT ISZERO PUSH2 0x744 JUMPI INVALID JUMPDEST EQ ISZERO PUSH2 0x7C3 JUMPI DUP9 MLOAD PUSH1 0x40 DUP1 MLOAD DUP1 DUP3 ADD SWAP1 SWAP2 MSTORE PUSH1 0x11 DUP2 MSTORE PUSH32 0x4C454E4754485F305F5245515549524544000000000000000000000000000000 PUSH1 0x20 DUP3 ADD MSTORE SWAP1 ISZERO PUSH2 0x7B9 JUMPI PUSH1 0x40 MLOAD PUSH32 0x8C379A000000000000000000000000000000000000000000000000000000000 DUP2 MSTORE PUSH1 0x4 ADD PUSH2 0x421 SWAP2 SWAP1 PUSH2 0x1F89 JUMP JUMPDEST POP PUSH1 0x0 SWAP8 POP PUSH2 0xFD5 JUMP JUMPDEST PUSH1 0x2 DUP7 PUSH1 0x9 DUP2 GT ISZERO PUSH2 0x7D1 JUMPI INVALID JUMPDEST EQ ISZERO PUSH2 0x937 JUMPI DUP9 MLOAD PUSH1 0x40 DUP1 MLOAD DUP1 DUP3 ADD SWAP1 SWAP2 MSTORE PUSH1 0x12 DUP2 MSTORE PUSH32 0x4C454E4754485F36355F52455155495245440000000000000000000000000000 PUSH1 0x20 DUP3 ADD MSTORE SWAP1 PUSH1 0x41 EQ PUSH2 0x848 JUMPI PUSH1 0x40 MLOAD PUSH32 0x8C379A000000000000000000000000000000000000000000000000000000000 DUP2 MSTORE PUSH1 0x4 ADD PUSH2 0x421 SWAP2 SWAP1 PUSH2 0x1F89 JUMP JUMPDEST POP DUP9 PUSH1 0x0 DUP2 MLOAD DUP2 LT ISZERO ISZERO PUSH2 0x858 JUMPI INVALID JUMPDEST ADD PUSH1 0x20 ADD MLOAD PUSH32 0x100000000000000000000000000000000000000000000000000000000000000 SWAP1 DUP2 SWAP1 DIV DUP2 MUL DIV SWAP5 POP PUSH2 0x892 DUP10 PUSH1 0x1 PUSH2 0x14E1 JUMP JUMPDEST SWAP4 POP PUSH2 0x89F DUP10 PUSH1 0x21 PUSH2 0x14E1 JUMP JUMPDEST SWAP3 POP PUSH1 0x1 DUP12 DUP7 DUP7 DUP7 PUSH1 0x40 MLOAD PUSH1 0x0 DUP2 MSTORE PUSH1 0x20 ADD PUSH1 0x40 MSTORE PUSH1 0x40 MLOAD PUSH2 0x8C4 SWAP5 SWAP4 SWAP3 SWAP2 SWAP1 PUSH2 0x1F61 JUMP JUMPDEST PUSH1 0x20 PUSH1 0x40 MLOAD PUSH1 0x20 DUP2 SUB SWAP1 DUP1 DUP5 SUB SWAP1 PUSH1 0x0 DUP7 GAS CALL ISZERO DUP1 ISZERO PUSH2 0x8E8 JUMPI RETURNDATASIZE PUSH1 0x0 DUP1 RETURNDATACOPY RETURNDATASIZE PUSH1 0x0 REVERT JUMPDEST POP POP PUSH1 0x40 MLOAD PUSH32 0xFFFFFFFFFFFFFFFFFFFFFFFFFFFFFFFFFFFFFFFFFFFFFFFFFFFFFFFFFFFFFFE0 ADD MLOAD PUSH20 0xFFFFFFFFFFFFFFFFFFFFFFFFFFFFFFFFFFFFFFFF DUP13 DUP2 AND SWAP1 DUP3 AND EQ SWAP10 POP SWAP3 POP PUSH2 0xFD5 SWAP1 POP JUMP JUMPDEST PUSH1 0x3 DUP7 PUSH1 0x9 DUP2 GT ISZERO PUSH2 0x945 JUMPI INVALID JUMPDEST EQ ISZERO PUSH2 0xB9C JUMPI DUP9 MLOAD PUSH1 0x40 DUP1 MLOAD DUP1 DUP3 ADD SWAP1 SWAP2 MSTORE PUSH1 0x12 DUP2 MSTORE PUSH32 0x4C454E4754485F36355F52455155495245440000000000000000000000000000 PUSH1 0x20 DUP3 ADD MSTORE SWAP1 PUSH1 0x41 EQ PUSH2 0x9BC JUMPI PUSH1 0x40 MLOAD PUSH32 0x8C379A000000000000000000000000000000000000000000000000000000000 DUP2 MSTORE PUSH1 0x4 ADD PUSH2 0x421 SWAP2 SWAP1 PUSH2 0x1F89 JUMP JUMPDEST POP DUP9 PUSH1 0x0 DUP2 MLOAD DUP2 LT ISZERO ISZERO PUSH2 0x9CC JUMPI INVALID JUMPDEST ADD PUSH1 0x20 ADD MLOAD PUSH32 0x100000000000000000000000000000000000000000000000000000000000000 SWAP1 DUP2 SWAP1 DIV DUP2 MUL DIV SWAP5 POP PUSH2 0xA06 DUP10 PUSH1 0x1 PUSH2 0x14E1 JUMP JUMPDEST SWAP4 POP PUSH2 0xA13 DUP10 PUSH1 0x21 PUSH2 0x14E1 JUMP JUMPDEST SWAP3 POP PUSH1 0x1 PUSH1 0x40 DUP1 MLOAD SWAP1 DUP2 ADD PUSH1 0x40 MSTORE DUP1 PUSH1 0x1C DUP2 MSTORE PUSH1 0x20 ADD PUSH32 0x19457468657265756D205369676E6564204D6573736167653A0A333200000000 DUP2 MSTORE POP DUP13 PUSH1 0x40 MLOAD PUSH1 0x20 ADD DUP1 DUP4 DUP1 MLOAD SWAP1 PUSH1 0x20 ADD SWAP1 DUP1 DUP4 DUP4 JUMPDEST PUSH1 0x20 DUP4 LT PUSH2 0xA9E JUMPI DUP1 MLOAD DUP3 MSTORE PUSH32 0xFFFFFFFFFFFFFFFFFFFFFFFFFFFFFFFFFFFFFFFFFFFFFFFFFFFFFFFFFFFFFFE0 SWAP1 SWAP3 ADD SWAP2 PUSH1 0x20 SWAP2 DUP3 ADD SWAP2 ADD PUSH2 0xA61 JUMP JUMPDEST MLOAD DUP2 MLOAD PUSH1 0x20 SWAP4 DUP5 SUB PUSH2 0x100 EXP PUSH32 0xFFFFFFFFFFFFFFFFFFFFFFFFFFFFFFFFFFFFFFFFFFFFFFFFFFFFFFFFFFFFFFFF ADD DUP1 NOT SWAP1 SWAP3 AND SWAP2 AND OR SWAP1 MSTORE SWAP3 ADD SWAP4 DUP5 MSTORE POP PUSH1 0x40 DUP1 MLOAD DUP1 DUP6 SUB DUP2 MSTORE SWAP4 DUP3 ADD SWAP1 DUP2 SWAP1 MSTORE DUP4 MLOAD SWAP4 SWAP5 POP SWAP3 DUP4 SWAP3 POP SWAP1 DUP5 ADD SWAP1 DUP1 DUP4 DUP4 JUMPDEST PUSH1 0x20 DUP4 LT PUSH2 0xB3A JUMPI DUP1 MLOAD DUP3 MSTORE PUSH32 0xFFFFFFFFFFFFFFFFFFFFFFFFFFFFFFFFFFFFFFFFFFFFFFFFFFFFFFFFFFFFFFE0 SWAP1 SWAP3 ADD SWAP2 PUSH1 0x20 SWAP2 DUP3 ADD SWAP2 ADD PUSH2 0xAFD JUMP JUMPDEST MLOAD DUP2 MLOAD PUSH1 0x20 SWAP4 DUP5 SUB PUSH2 0x100 EXP PUSH32 0xFFFFFFFFFFFFFFFFFFFFFFFFFFFFFFFFFFFFFFFFFFFFFFFFFFFFFFFFFFFFFFFF ADD DUP1 NOT SWAP1 SWAP3 AND SWAP2 AND OR SWAP1 MSTORE PUSH1 0x40 DUP1 MLOAD SWAP3 SWAP1 SWAP5 ADD DUP3 SWAP1 SUB DUP3 KECCAK256 PUSH1 0x0 DUP4 MSTORE SWAP2 ADD SWAP3 DUP4 SWAP1 MSTORE PUSH2 0x8C4 SWAP5 POP SWAP3 POP DUP10 SWAP2 DUP10 SWAP2 POP DUP9 SWAP1 PUSH2 0x1F61 JUMP JUMPDEST PUSH1 0x4 DUP7 PUSH1 0x9 DUP2 GT ISZERO PUSH2 0xBAA JUMPI INVALID JUMPDEST EQ ISZERO PUSH2 0xC40 JUMPI DUP9 MLOAD PUSH1 0x40 DUP1 MLOAD DUP1 DUP3 ADD SWAP1 SWAP2 MSTORE PUSH1 0x11 DUP2 MSTORE PUSH32 0x4C454E4754485F305F5245515549524544000000000000000000000000000000 PUSH1 0x20 DUP3 ADD MSTORE SWAP1 ISZERO PUSH2 0xC1F JUMPI PUSH1 0x40 MLOAD PUSH32 0x8C379A000000000000000000000000000000000000000000000000000000000 DUP2 MSTORE PUSH1 0x4 ADD PUSH2 0x421 SWAP2 SWAP1 PUSH2 0x1F89 JUMP JUMPDEST POP PUSH20 0xFFFFFFFFFFFFFFFFFFFFFFFFFFFFFFFFFFFFFFFF DUP11 AND CALLER EQ SWAP8 POP PUSH2 0xFD5 JUMP JUMPDEST PUSH1 0x5 DUP7 PUSH1 0x9 DUP2 GT ISZERO PUSH2 0xC4E JUMPI INVALID JUMPDEST EQ ISZERO PUSH2 0xD01 JUMPI PUSH1 0x40 MLOAD PUSH32 0x1626BA7E00000000000000000000000000000000000000000000000000000000 DUP2 MSTORE PUSH20 0xFFFFFFFFFFFFFFFFFFFFFFFFFFFFFFFFFFFFFFFF DUP12 AND SWAP1 PUSH4 0x1626BA7E SWAP1 PUSH2 0xCA8 SWAP1 DUP15 SWAP1 DUP14 SWAP1 PUSH1 0x4 ADD PUSH2 0x1F0C JUMP JUMPDEST PUSH1 0x20 PUSH1 0x40 MLOAD DUP1 DUP4 SUB DUP2 PUSH1 0x0 DUP8 DUP1 EXTCODESIZE ISZERO DUP1 ISZERO PUSH2 0xCC2 JUMPI PUSH1 0x0 DUP1 REVERT JUMPDEST POP GAS CALL ISZERO DUP1 ISZERO PUSH2 0xCD6 JUMPI RETURNDATASIZE PUSH1 0x0 DUP1 RETURNDATACOPY RETURNDATASIZE PUSH1 0x0 REVERT JUMPDEST POP POP POP POP PUSH1 0x40 MLOAD RETURNDATASIZE PUSH1 0x1F NOT PUSH1 0x1F DUP3 ADD AND DUP3 ADD DUP1 PUSH1 0x40 MSTORE POP PUSH2 0xCFA SWAP2 SWAP1 DUP2 ADD SWAP1 PUSH2 0x1C8C JUMP JUMPDEST SWAP8 POP PUSH2 0xFD5 JUMP JUMPDEST PUSH1 0x6 DUP7 PUSH1 0x9 DUP2 GT ISZERO PUSH2 0xD0F JUMPI INVALID JUMPDEST EQ ISZERO PUSH2 0xDBC JUMPI PUSH2 0xD1E DUP10 PUSH2 0x158C JUMP JUMPDEST PUSH20 0xFFFFFFFFFFFFFFFFFFFFFFFFFFFFFFFFFFFFFFFF DUP1 DUP13 AND PUSH1 0x0 SWAP1 DUP2 MSTORE PUSH1 0x2 PUSH1 0x20 SWAP1 DUP2 MSTORE PUSH1 0x40 DUP1 DUP4 KECCAK256 SWAP4 DUP6 AND DUP4 MSTORE SWAP3 SWAP1 MSTORE KECCAK256 SLOAD SWAP1 SWAP2 POP PUSH1 0xFF AND ISZERO ISZERO PUSH2 0xD66 JUMPI PUSH1 0x0 SWAP8 POP PUSH2 0xFD5 JUMP JUMPDEST PUSH1 0x40 MLOAD PUSH32 0x9363470200000000000000000000000000000000000000000000000000000000 DUP2 MSTORE PUSH20 0xFFFFFFFFFFFFFFFFFFFFFFFFFFFFFFFFFFFFFFFF DUP3 AND SWAP1 PUSH4 0x93634702 SWAP1 PUSH2 0xCA8 SWAP1 DUP15 SWAP1 DUP15 SWAP1 DUP15 SWAP1 PUSH1 0x4 ADD PUSH2 0x1ED6 JUMP JUMPDEST PUSH1 0x7 DUP7 PUSH1 0x9 DUP2 GT ISZERO PUSH2 0xDCA JUMPI INVALID JUMPDEST EQ ISZERO PUSH2 0xE0A JUMPI PUSH1 0x0 DUP12 DUP2 MSTORE PUSH1 0x1 PUSH1 0x20 SWAP1 DUP2 MSTORE PUSH1 0x40 DUP1 DUP4 KECCAK256 PUSH20 0xFFFFFFFFFFFFFFFFFFFFFFFFFFFFFFFFFFFFFFFF DUP15 AND DUP5 MSTORE SWAP1 SWAP2 MSTORE SWAP1 KECCAK256 SLOAD PUSH1 0xFF AND SWAP8 POP PUSH2 0xFD5 JUMP JUMPDEST PUSH1 0x8 DUP7 PUSH1 0x9 DUP2 GT ISZERO PUSH2 0xE18 JUMPI INVALID JUMPDEST EQ ISZERO PUSH2 0xF70 JUMPI DUP9 MLOAD PUSH1 0x40 DUP1 MLOAD DUP1 DUP3 ADD SWAP1 SWAP2 MSTORE PUSH1 0x12 DUP2 MSTORE PUSH32 0x4C454E4754485F36355F52455155495245440000000000000000000000000000 PUSH1 0x20 DUP3 ADD MSTORE SWAP1 PUSH1 0x41 EQ PUSH2 0xE8F JUMPI PUSH1 0x40 MLOAD PUSH32 0x8C379A000000000000000000000000000000000000000000000000000000000 DUP2 MSTORE PUSH1 0x4 ADD PUSH2 0x421 SWAP2 SWAP1 PUSH2 0x1F89 JUMP JUMPDEST POP DUP9 PUSH1 0x0 DUP2 MLOAD DUP2 LT ISZERO ISZERO PUSH2 0xE9F JUMPI INVALID JUMPDEST ADD PUSH1 0x20 ADD MLOAD PUSH32 0x100000000000000000000000000000000000000000000000000000000000000 SWAP1 DUP2 SWAP1 DIV DUP2 MUL DIV SWAP5 POP PUSH2 0xED9 DUP10 PUSH1 0x1 PUSH2 0x14E1 JUMP JUMPDEST SWAP4 POP PUSH2 0xEE6 DUP10 PUSH1 0x21 PUSH2 0x14E1 JUMP JUMPDEST SWAP3 POP PUSH1 0x1 PUSH1 0x40 DUP1 MLOAD SWAP1 DUP2 ADD PUSH1 0x40 MSTORE DUP1 PUSH1 0x1B DUP2 MSTORE PUSH1 0x20 ADD PUSH32 0x19457468657265756D205369676E6564204D6573736167653A0A200000000000 DUP2 MSTORE POP DUP13 PUSH1 0x40 MLOAD PUSH1 0x20 ADD DUP1 DUP4 DUP1 MLOAD SWAP1 PUSH1 0x20 ADD SWAP1 DUP1 DUP4 DUP4 PUSH1 0x20 DUP4 LT PUSH2 0xA9E JUMPI DUP1 MLOAD DUP3 MSTORE PUSH32 0xFFFFFFFFFFFFFFFFFFFFFFFFFFFFFFFFFFFFFFFFFFFFFFFFFFFFFFFFFFFFFFE0 SWAP1 SWAP3 ADD SWAP2 PUSH1 0x20 SWAP2 DUP3 ADD SWAP2 ADD PUSH2 0xA61 JUMP JUMPDEST PUSH1 0x40 DUP1 MLOAD DUP1 DUP3 ADD DUP3 MSTORE PUSH1 0x15 DUP2 MSTORE PUSH32 0x5349474E41545552455F554E535550504F525445440000000000000000000000 PUSH1 0x20 DUP3 ADD MSTORE SWAP1 MLOAD PUSH32 0x8C379A000000000000000000000000000000000000000000000000000000000 DUP2 MSTORE PUSH2 0x421 SWAP2 SWAP1 PUSH1 0x4 ADD PUSH2 0x1F89 JUMP JUMPDEST POP POP POP POP POP POP POP SWAP4 SWAP3 POP POP POP JUMP JUMPDEST PUSH1 0x0 PUSH2 0xFF0 DUP5 DUP5 DUP5 PUSH2 0x588 JUMP JUMPDEST SWAP5 SWAP4 POP POP POP POP JUMP JUMPDEST PUSH1 0x4 SLOAD PUSH1 0x40 DUP1 MLOAD DUP1 DUP3 ADD SWAP1 SWAP2 MSTORE PUSH1 0x12 DUP2 MSTORE PUSH32 0x5245454E5452414E43595F494C4C4547414C0000000000000000000000000000 PUSH1 0x20 DUP3 ADD MSTORE PUSH1 0x0 SWAP2 PUSH20 0xFFFFFFFFFFFFFFFFFFFFFFFFFFFFFFFFFFFFFFFF AND ISZERO PUSH2 0x1080 JUMPI PUSH1 0x40 MLOAD PUSH32 0x8C379A000000000000000000000000000000000000000000000000000000000 DUP2 MSTORE PUSH1 0x4 ADD PUSH2 0x421 SWAP2 SWAP1 PUSH2 0x1F89 JUMP JUMPDEST POP PUSH2 0x10C4 PUSH2 0x10BF DUP9 DUP9 DUP9 DUP9 DUP1 DUP1 PUSH1 0x1F ADD PUSH1 0x20 DUP1 SWAP2 DIV MUL PUSH1 0x20 ADD PUSH1 0x40 MLOAD SWAP1 DUP2 ADD PUSH1 0x40 MSTORE DUP1 SWAP4 SWAP3 SWAP2 SWAP1 DUP2 DUP2 MSTORE PUSH1 0x20 ADD DUP4 DUP4 DUP1 DUP3 DUP5 CALLDATACOPY POP PUSH2 0x1665 SWAP5 POP POP POP POP POP JUMP JUMPDEST PUSH2 0x190D JUMP JUMPDEST PUSH1 0x0 DUP2 DUP2 MSTORE PUSH1 0x3 PUSH1 0x20 SWAP1 DUP2 MSTORE PUSH1 0x40 SWAP2 DUP3 SWAP1 KECCAK256 SLOAD DUP3 MLOAD DUP1 DUP5 ADD SWAP1 SWAP4 MSTORE PUSH1 0xF DUP4 MSTORE PUSH32 0x494E56414C49445F54585F484153480000000000000000000000000000000000 SWAP2 DUP4 ADD SWAP2 SWAP1 SWAP2 MSTORE SWAP2 SWAP3 POP SWAP1 PUSH1 0xFF AND ISZERO PUSH2 0x114A JUMPI PUSH1 0x40 MLOAD PUSH32 0x8C379A000000000000000000000000000000000000000000000000000000000 DUP2 MSTORE PUSH1 0x4 ADD PUSH2 0x421 SWAP2 SWAP1 PUSH2 0x1F89 JUMP JUMPDEST POP PUSH20 0xFFFFFFFFFFFFFFFFFFFFFFFFFFFFFFFFFFFFFFFF DUP7 AND CALLER EQ PUSH2 0x1253 JUMPI PUSH2 0x11A3 DUP2 DUP8 DUP6 DUP6 DUP1 DUP1 PUSH1 0x1F ADD PUSH1 0x20 DUP1 SWAP2 DIV MUL PUSH1 0x20 ADD PUSH1 0x40 MLOAD SWAP1 DUP2 ADD PUSH1 0x40 MSTORE DUP1 SWAP4 SWAP3 SWAP2 SWAP1 DUP2 DUP2 MSTORE PUSH1 0x20 ADD DUP4 DUP4 DUP1 DUP3 DUP5 CALLDATACOPY POP PUSH2 0x588 SWAP5 POP POP POP POP POP JUMP JUMPDEST PUSH1 0x40 DUP1 MLOAD DUP1 DUP3 ADD SWAP1 SWAP2 MSTORE PUSH1 0x14 DUP2 MSTORE PUSH32 0x494E56414C49445F54585F5349474E4154555245000000000000000000000000 PUSH1 0x20 DUP3 ADD MSTORE SWAP1 ISZERO ISZERO PUSH2 0x1211 JUMPI PUSH1 0x40 MLOAD PUSH32 0x8C379A000000000000000000000000000000000000000000000000000000000 DUP2 MSTORE PUSH1 0x4 ADD PUSH2 0x421 SWAP2 SWAP1 PUSH2 0x1F89 JUMP JUMPDEST POP PUSH1 0x4 DUP1 SLOAD PUSH32 0xFFFFFFFFFFFFFFFFFFFFFFFF0000000000000000000000000000000000000000 AND PUSH20 0xFFFFFFFFFFFFFFFFFFFFFFFFFFFFFFFFFFFFFFFF DUP9 AND OR SWAP1 SSTORE JUMPDEST PUSH1 0x0 DUP2 DUP2 MSTORE PUSH1 0x3 PUSH1 0x20 MSTORE PUSH1 0x40 SWAP1 DUP2 SWAP1 KECCAK256 DUP1 SLOAD PUSH32 0xFFFFFFFFFFFFFFFFFFFFFFFFFFFFFFFFFFFFFFFFFFFFFFFFFFFFFFFFFFFFFF00 AND PUSH1 0x1 OR SWAP1 SSTORE MLOAD ADDRESS SWAP1 DUP7 SWAP1 DUP7 SWAP1 DUP1 DUP4 DUP4 DUP1 DUP3 DUP5 CALLDATACOPY DUP3 ADD SWAP2 POP POP SWAP3 POP POP POP PUSH1 0x0 PUSH1 0x40 MLOAD DUP1 DUP4 SUB DUP2 DUP6 GAS DELEGATECALL PUSH1 0x40 DUP1 MLOAD DUP1 DUP3 ADD SWAP1 SWAP2 MSTORE PUSH1 0x10 DUP2 MSTORE PUSH32 0x4641494C45445F455845435554494F4E00000000000000000000000000000000 PUSH1 0x20 DUP3 ADD MSTORE SWAP3 POP ISZERO ISZERO SWAP1 POP PUSH2 0x1320 JUMPI PUSH1 0x40 MLOAD PUSH32 0x8C379A000000000000000000000000000000000000000000000000000000000 DUP2 MSTORE PUSH1 0x4 ADD PUSH2 0x421 SWAP2 SWAP1 PUSH2 0x1F89 JUMP JUMPDEST POP POP PUSH1 0x4 DUP1 SLOAD PUSH32 0xFFFFFFFFFFFFFFFFFFFFFFFF0000000000000000000000000000000000000000 AND SWAP1 SSTORE POP POP POP POP POP POP JUMP JUMPDEST PUSH1 0x0 SLOAD DUP2 JUMP JUMPDEST PUSH1 0x4 SLOAD PUSH20 0xFFFFFFFFFFFFFFFFFFFFFFFFFFFFFFFFFFFFFFFF AND DUP2 JUMP JUMPDEST PUSH1 0x4 SLOAD PUSH1 0x0 SWAP1 DUP2 SWAP1 PUSH20 0xFFFFFFFFFFFFFFFFFFFFFFFFFFFFFFFFFFFFFFFF AND ISZERO PUSH2 0x13B5 JUMPI PUSH1 0x4 SLOAD PUSH20 0xFFFFFFFFFFFFFFFFFFFFFFFFFFFFFFFFFFFFFFFF AND PUSH2 0x13B7 JUMP JUMPDEST CALLER JUMPDEST SWAP3 SWAP2 POP POP JUMP JUMPDEST PUSH1 0x0 DUP1 DUP3 MLOAD GT PUSH1 0x60 PUSH1 0x40 MLOAD SWAP1 DUP2 ADD PUSH1 0x40 MSTORE DUP1 PUSH1 0x21 DUP2 MSTORE PUSH1 0x20 ADD PUSH32 0x475245415445525F5448414E5F5A45524F5F4C454E4754485F52455155495245 DUP2 MSTORE PUSH1 0x20 ADD PUSH32 0x4400000000000000000000000000000000000000000000000000000000000000 DUP2 MSTORE POP SWAP1 ISZERO ISZERO PUSH2 0x145A JUMPI PUSH1 0x40 MLOAD PUSH32 0x8C379A000000000000000000000000000000000000000000000000000000000 DUP2 MSTORE PUSH1 0x4 ADD PUSH2 0x421 SWAP2 SWAP1 PUSH2 0x1F89 JUMP JUMPDEST POP DUP2 MLOAD DUP3 SWAP1 PUSH32 0xFFFFFFFFFFFFFFFFFFFFFFFFFFFFFFFFFFFFFFFFFFFFFFFFFFFFFFFFFFFFFFFF DUP2 ADD SWAP1 DUP2 LT PUSH2 0x148B JUMPI INVALID JUMPDEST ADD PUSH1 0x20 ADD MLOAD DUP3 MLOAD PUSH32 0xFFFFFFFFFFFFFFFFFFFFFFFFFFFFFFFFFFFFFFFFFFFFFFFFFFFFFFFFFFFFFFFF ADD SWAP1 SWAP3 MSTORE POP PUSH32 0x100000000000000000000000000000000000000000000000000000000000000 SWAP1 DUP2 SWAP1 DIV MUL SWAP1 JUMP JUMPDEST PUSH1 0x0 DUP2 PUSH1 0x20 ADD DUP4 MLOAD LT ISZERO PUSH1 0x60 PUSH1 0x40 MLOAD SWAP1 DUP2 ADD PUSH1 0x40 MSTORE DUP1 PUSH1 0x26 DUP2 MSTORE PUSH1 0x20 ADD PUSH32 0x475245415445525F4F525F455155414C5F544F5F33325F4C454E4754485F5245 DUP2 MSTORE PUSH1 0x20 ADD PUSH32 0x5155495245440000000000000000000000000000000000000000000000000000 DUP2 MSTORE POP SWAP1 ISZERO ISZERO PUSH2 0x1582 JUMPI PUSH1 0x40 MLOAD PUSH32 0x8C379A000000000000000000000000000000000000000000000000000000000 DUP2 MSTORE PUSH1 0x4 ADD PUSH2 0x421 SWAP2 SWAP1 PUSH2 0x1F89 JUMP JUMPDEST POP POP ADD PUSH1 0x20 ADD MLOAD SWAP1 JUMP JUMPDEST PUSH1 0x0 PUSH1 0x14 DUP3 MLOAD LT ISZERO PUSH1 0x60 PUSH1 0x40 MLOAD SWAP1 DUP2 ADD PUSH1 0x40 MSTORE DUP1 PUSH1 0x26 DUP2 MSTORE PUSH1 0x20 ADD PUSH32 0x475245415445525F4F525F455155414C5F544F5F32305F4C454E4754485F5245 DUP2 MSTORE PUSH1 0x20 ADD PUSH32 0x5155495245440000000000000000000000000000000000000000000000000000 DUP2 MSTORE POP SWAP1 ISZERO ISZERO PUSH2 0x162B JUMPI PUSH1 0x40 MLOAD PUSH32 0x8C379A000000000000000000000000000000000000000000000000000000000 DUP2 MSTORE PUSH1 0x4 ADD PUSH2 0x421 SWAP2 SWAP1 PUSH2 0x1F89 JUMP JUMPDEST POP PUSH2 0x163A DUP3 PUSH1 0x14 DUP5 MLOAD SUB PUSH2 0x1A8D JUMP JUMPDEST DUP3 MLOAD PUSH32 0xFFFFFFFFFFFFFFFFFFFFFFFFFFFFFFFFFFFFFFFFFFFFFFFFFFFFFFFFFFFFFFEC ADD SWAP1 SWAP3 MSTORE POP SWAP1 JUMP JUMPDEST PUSH1 0x40 DUP1 MLOAD PUSH32 0x5A65726F45785472616E73616374696F6E280000000000000000000000000000 PUSH1 0x20 DUP1 DUP4 ADD SWAP2 SWAP1 SWAP2 MSTORE PUSH32 0x75696E743235362073616C742C00000000000000000000000000000000000000 PUSH1 0x32 DUP4 ADD MSTORE PUSH32 0x61646472657373207369676E6572416464726573732C00000000000000000000 PUSH1 0x3F DUP4 ADD MSTORE PUSH32 0x6279746573206461746100000000000000000000000000000000000000000000 PUSH1 0x55 DUP4 ADD MSTORE PUSH32 0x2900000000000000000000000000000000000000000000000000000000000000 PUSH1 0x5F DUP4 ADD MSTORE DUP3 MLOAD DUP1 DUP4 SUB DUP5 ADD DUP2 MSTORE PUSH1 0x60 SWAP1 SWAP3 ADD SWAP3 DUP4 SWAP1 MSTORE DUP2 MLOAD PUSH1 0x0 SWAP4 SWAP2 DUP3 SWAP2 SWAP1 DUP5 ADD SWAP1 DUP1 DUP4 DUP4 JUMPDEST PUSH1 0x20 DUP4 LT PUSH2 0x178A JUMPI DUP1 MLOAD DUP3 MSTORE PUSH32 0xFFFFFFFFFFFFFFFFFFFFFFFFFFFFFFFFFFFFFFFFFFFFFFFFFFFFFFFFFFFFFFE0 SWAP1 SWAP3 ADD SWAP2 PUSH1 0x20 SWAP2 DUP3 ADD SWAP2 ADD PUSH2 0x174D JUMP JUMPDEST PUSH1 0x1 DUP4 PUSH1 0x20 SUB PUSH2 0x100 EXP SUB DUP1 NOT DUP3 MLOAD AND DUP2 DUP5 MLOAD AND DUP1 DUP3 OR DUP6 MSTORE POP POP POP POP POP POP SWAP1 POP ADD SWAP2 POP POP PUSH1 0x40 MLOAD DUP1 SWAP2 SUB SWAP1 KECCAK256 DUP5 DUP5 DUP5 PUSH1 0x40 MLOAD DUP1 DUP3 DUP1 MLOAD SWAP1 PUSH1 0x20 ADD SWAP1 DUP1 DUP4 DUP4 JUMPDEST PUSH1 0x20 DUP4 LT PUSH2 0x1807 JUMPI DUP1 MLOAD DUP3 MSTORE PUSH32 0xFFFFFFFFFFFFFFFFFFFFFFFFFFFFFFFFFFFFFFFFFFFFFFFFFFFFFFFFFFFFFFE0 SWAP1 SWAP3 ADD SWAP2 PUSH1 0x20 SWAP2 DUP3 ADD SWAP2 ADD PUSH2 0x17CA JUMP JUMPDEST MLOAD DUP2 MLOAD PUSH1 0x20 SWAP4 DUP5 SUB PUSH2 0x100 EXP PUSH32 0xFFFFFFFFFFFFFFFFFFFFFFFFFFFFFFFFFFFFFFFFFFFFFFFFFFFFFFFFFFFFFFFF ADD DUP1 NOT SWAP1 SWAP3 AND SWAP2 AND OR SWAP1 MSTORE PUSH1 0x40 MLOAD SWAP2 SWAP1 SWAP4 ADD DUP2 SWAP1 SUB DUP2 KECCAK256 PUSH2 0x185F SWAP9 SWAP8 SWAP7 SWAP6 POP SWAP4 POP SWAP1 SWAP2 ADD SWAP1 POP PUSH2 0x1F2C JUMP JUMPDEST PUSH1 0x40 MLOAD PUSH1 0x20 DUP2 DUP4 SUB SUB DUP2 MSTORE SWAP1 PUSH1 0x40 MSTORE PUSH1 0x40 MLOAD DUP1 DUP3 DUP1 MLOAD SWAP1 PUSH1 0x20 ADD SWAP1 DUP1 DUP4 DUP4 JUMPDEST PUSH1 0x20 DUP4 LT PUSH2 0x18BB JUMPI DUP1 MLOAD DUP3 MSTORE PUSH32 0xFFFFFFFFFFFFFFFFFFFFFFFFFFFFFFFFFFFFFFFFFFFFFFFFFFFFFFFFFFFFFFE0 SWAP1 SWAP3 ADD SWAP2 PUSH1 0x20 SWAP2 DUP3 ADD SWAP2 ADD PUSH2 0x187E JUMP JUMPDEST MLOAD DUP2 MLOAD PUSH1 0x20 SWAP4 SWAP1 SWAP4 SUB PUSH2 0x100 EXP PUSH32 0xFFFFFFFFFFFFFFFFFFFFFFFFFFFFFFFFFFFFFFFFFFFFFFFFFFFFFFFFFFFFFFFF ADD DUP1 NOT SWAP1 SWAP2 AND SWAP3 AND SWAP2 SWAP1 SWAP2 OR SWAP1 MSTORE PUSH1 0x40 MLOAD SWAP3 ADD DUP3 SWAP1 SUB SWAP1 SWAP2 KECCAK256 SWAP8 SWAP7 POP POP POP POP POP POP POP JUMP JUMPDEST PUSH1 0x0 PUSH1 0x40 DUP1 MLOAD SWAP1 DUP2 ADD PUSH1 0x40 MSTORE DUP1 PUSH1 0x2 DUP2 MSTORE PUSH1 0x20 ADD PUSH32 0x1901000000000000000000000000000000000000000000000000000000000000 DUP2 MSTORE POP PUSH1 0x0 SLOAD DUP4 PUSH1 0x40 MLOAD PUSH1 0x20 ADD DUP1 DUP5 DUP1 MLOAD SWAP1 PUSH1 0x20 ADD SWAP1 DUP1 DUP4 DUP4 JUMPDEST PUSH1 0x20 DUP4 LT PUSH2 0x1999 JUMPI DUP1 MLOAD DUP3 MSTORE PUSH32 0xFFFFFFFFFFFFFFFFFFFFFFFFFFFFFFFFFFFFFFFFFFFFFFFFFFFFFFFFFFFFFFE0 SWAP1 SWAP3 ADD SWAP2 PUSH1 0x20 SWAP2 DUP3 ADD SWAP2 ADD PUSH2 0x195C JUMP JUMPDEST MLOAD DUP2 MLOAD PUSH1 0x20 SWAP4 DUP5 SUB PUSH2 0x100 EXP PUSH32 0xFFFFFFFFFFFFFFFFFFFFFFFFFFFFFFFFFFFFFFFFFFFFFFFFFFFFFFFFFFFFFFFF ADD DUP1 NOT SWAP1 SWAP3 AND SWAP2 AND OR SWAP1 MSTORE SWAP3 ADD SWAP5 DUP6 MSTORE POP DUP4 DUP2 ADD SWAP3 SWAP1 SWAP3 MSTORE POP PUSH1 0x40 DUP1 MLOAD DUP1 DUP5 SUB DUP4 ADD DUP2 MSTORE SWAP3 DUP2 ADD SWAP1 DUP2 SWAP1 MSTORE DUP3 MLOAD SWAP3 SWAP4 POP SWAP2 DUP3 SWAP2 DUP5 ADD SWAP1 DUP1 DUP4 DUP4 JUMPDEST PUSH1 0x20 DUP4 LT PUSH2 0x1A3D JUMPI DUP1 MLOAD DUP3 MSTORE PUSH32 0xFFFFFFFFFFFFFFFFFFFFFFFFFFFFFFFFFFFFFFFFFFFFFFFFFFFFFFFFFFFFFFE0 SWAP1 SWAP3 ADD SWAP2 PUSH1 0x20 SWAP2 DUP3 ADD SWAP2 ADD PUSH2 0x1A00 JUMP JUMPDEST MLOAD DUP2 MLOAD PUSH1 0x20 SWAP4 SWAP1 SWAP4 SUB PUSH2 0x100 EXP PUSH32 0xFFFFFFFFFFFFFFFFFFFFFFFFFFFFFFFFFFFFFFFFFFFFFFFFFFFFFFFFFFFFFFFF ADD DUP1 NOT SWAP1 SWAP2 AND SWAP3 AND SWAP2 SWAP1 SWAP2 OR SWAP1 MSTORE PUSH1 0x40 MLOAD SWAP3 ADD DUP3 SWAP1 SUB SWAP1 SWAP2 KECCAK256 SWAP6 SWAP5 POP POP POP POP POP JUMP JUMPDEST PUSH1 0x0 DUP2 PUSH1 0x14 ADD DUP4 MLOAD LT ISZERO PUSH1 0x60 PUSH1 0x40 MLOAD SWAP1 DUP2 ADD PUSH1 0x40 MSTORE DUP1 PUSH1 0x26 DUP2 MSTORE PUSH1 0x20 ADD PUSH32 0x475245415445525F4F525F455155414C5F544F5F32305F4C454E4754485F5245 DUP2 MSTORE PUSH1 0x20 ADD PUSH32 0x5155495245440000000000000000000000000000000000000000000000000000 DUP2 MSTORE POP SWAP1 ISZERO ISZERO PUSH2 0x1B2E JUMPI PUSH1 0x40 MLOAD PUSH32 0x8C379A000000000000000000000000000000000000000000000000000000000 DUP2 MSTORE PUSH1 0x4 ADD PUSH2 0x421 SWAP2 SWAP1 PUSH2 0x1F89 JUMP JUMPDEST POP POP ADD PUSH1 0x14 ADD MLOAD PUSH20 0xFFFFFFFFFFFFFFFFFFFFFFFFFFFFFFFFFFFFFFFF AND SWAP1 JUMP JUMPDEST PUSH1 0x0 PUSH2 0x1B5A DUP3 CALLDATALOAD PUSH2 0x200B JUMP JUMPDEST SWAP4 SWAP3 POP POP POP JUMP JUMPDEST PUSH1 0x0 PUSH2 0x1B5A DUP3 CALLDATALOAD PUSH2 0x2024 JUMP JUMPDEST PUSH1 0x0 PUSH2 0x1B5A DUP3 MLOAD PUSH2 0x2024 JUMP JUMPDEST PUSH1 0x0 PUSH2 0x1B5A DUP3 CALLDATALOAD PUSH2 0x2029 JUMP JUMPDEST PUSH1 0x0 DUP1 PUSH1 0x1F DUP4 ADD DUP5 SGT PUSH2 0x1B97 JUMPI PUSH1 0x0 DUP1 REVERT JUMPDEST POP DUP2 CALLDATALOAD PUSH8 0xFFFFFFFFFFFFFFFF DUP2 GT ISZERO PUSH2 0x1BAF JUMPI PUSH1 0x0 DUP1 REVERT JUMPDEST PUSH1 0x20 DUP4 ADD SWAP2 POP DUP4 PUSH1 0x1 DUP3 MUL DUP4 ADD GT ISZERO PUSH2 0x1BC7 JUMPI PUSH1 0x0 DUP1 REVERT JUMPDEST SWAP3 POP SWAP3 SWAP1 POP JUMP JUMPDEST PUSH1 0x0 PUSH1 0x1F DUP3 ADD DUP4 SGT PUSH2 0x1BDF JUMPI PUSH1 0x0 DUP1 REVERT JUMPDEST DUP2 CALLDATALOAD PUSH2 0x1BF2 PUSH2 0x1BED DUP3 PUSH2 0x1FC1 JUMP JUMPDEST PUSH2 0x1F9A JUMP JUMPDEST SWAP2 POP DUP1 DUP3 MSTORE PUSH1 0x20 DUP4 ADD PUSH1 0x20 DUP4 ADD DUP6 DUP4 DUP4 ADD GT ISZERO PUSH2 0x1C0E JUMPI PUSH1 0x0 DUP1 REVERT JUMPDEST PUSH2 0x1C19 DUP4 DUP3 DUP5 PUSH2 0x2032 JUMP JUMPDEST POP POP POP SWAP3 SWAP2 POP POP JUMP JUMPDEST PUSH1 0x0 DUP1 PUSH1 0x40 DUP4 DUP6 SUB SLT ISZERO PUSH2 0x1C35 JUMPI PUSH1 0x0 DUP1 REVERT JUMPDEST PUSH1 0x0 PUSH2 0x1C41 DUP6 DUP6 PUSH2 0x1B4E JUMP JUMPDEST SWAP3 POP POP PUSH1 0x20 PUSH2 0x1C52 DUP6 DUP3 DUP7 ADD PUSH2 0x1B4E JUMP JUMPDEST SWAP2 POP POP SWAP3 POP SWAP3 SWAP1 POP JUMP JUMPDEST PUSH1 0x0 DUP1 PUSH1 0x40 DUP4 DUP6 SUB SLT ISZERO PUSH2 0x1C6F JUMPI PUSH1 0x0 DUP1 REVERT JUMPDEST PUSH1 0x0 PUSH2 0x1C7B DUP6 DUP6 PUSH2 0x1B4E JUMP JUMPDEST SWAP3 POP POP PUSH1 0x20 PUSH2 0x1C52 DUP6 DUP3 DUP7 ADD PUSH2 0x1B61 JUMP JUMPDEST PUSH1 0x0 PUSH1 0x20 DUP3 DUP5 SUB SLT ISZERO PUSH2 0x1C9E JUMPI PUSH1 0x0 DUP1 REVERT JUMPDEST PUSH1 0x0 PUSH2 0xFF0 DUP5 DUP5 PUSH2 0x1B6D JUMP JUMPDEST PUSH1 0x0 PUSH1 0x20 DUP3 DUP5 SUB SLT ISZERO PUSH2 0x1CBC JUMPI PUSH1 0x0 DUP1 REVERT JUMPDEST PUSH1 0x0 PUSH2 0xFF0 DUP5 DUP5 PUSH2 0x1B79 JUMP JUMPDEST PUSH1 0x0 DUP1 PUSH1 0x40 DUP4 DUP6 SUB SLT ISZERO PUSH2 0x1CDB JUMPI PUSH1 0x0 DUP1 REVERT JUMPDEST PUSH1 0x0 PUSH2 0x1C41 DUP6 DUP6 PUSH2 0x1B79 JUMP JUMPDEST PUSH1 0x0 DUP1 PUSH1 0x0 DUP1 PUSH1 0x60 DUP6 DUP8 SUB SLT ISZERO PUSH2 0x1CFD JUMPI PUSH1 0x0 DUP1 REVERT JUMPDEST PUSH1 0x0 PUSH2 0x1D09 DUP8 DUP8 PUSH2 0x1B79 JUMP JUMPDEST SWAP5 POP POP PUSH1 0x20 PUSH2 0x1D1A DUP8 DUP3 DUP9 ADD PUSH2 0x1B4E JUMP JUMPDEST SWAP4 POP POP PUSH1 0x40 DUP6 ADD CALLDATALOAD PUSH8 0xFFFFFFFFFFFFFFFF DUP2 GT ISZERO PUSH2 0x1D37 JUMPI PUSH1 0x0 DUP1 REVERT JUMPDEST PUSH2 0x1D43 DUP8 DUP3 DUP9 ADD PUSH2 0x1B85 JUMP JUMPDEST SWAP6 SWAP9 SWAP5 SWAP8 POP SWAP6 POP POP POP POP JUMP JUMPDEST PUSH1 0x0 DUP1 PUSH1 0x0 PUSH1 0x60 DUP5 DUP7 SUB SLT ISZERO PUSH2 0x1D64 JUMPI PUSH1 0x0 DUP1 REVERT JUMPDEST PUSH1 0x0 PUSH2 0x1D70 DUP7 DUP7 PUSH2 0x1B79 JUMP JUMPDEST SWAP4 POP POP PUSH1 0x20 PUSH2 0x1D81 DUP7 DUP3 DUP8 ADD PUSH2 0x1B4E JUMP JUMPDEST SWAP3 POP POP PUSH1 0x40 DUP5 ADD CALLDATALOAD PUSH8 0xFFFFFFFFFFFFFFFF DUP2 GT ISZERO PUSH2 0x1D9E JUMPI PUSH1 0x0 DUP1 REVERT JUMPDEST PUSH2 0x1DAA DUP7 DUP3 DUP8 ADD PUSH2 0x1BCE JUMP JUMPDEST SWAP2 POP POP SWAP3 POP SWAP3 POP SWAP3 JUMP JUMPDEST PUSH1 0x0 DUP1 PUSH1 0x0 DUP1 PUSH1 0x0 DUP1 PUSH1 0x80 DUP8 DUP10 SUB SLT ISZERO PUSH2 0x1DCD JUMPI PUSH1 0x0 DUP1 REVERT JUMPDEST PUSH1 0x0 PUSH2 0x1DD9 DUP10 DUP10 PUSH2 0x1B79 JUMP JUMPDEST SWAP7 POP POP PUSH1 0x20 PUSH2 0x1DEA DUP10 DUP3 DUP11 ADD PUSH2 0x1B4E JUMP JUMPDEST SWAP6 POP POP PUSH1 0x40 DUP8 ADD CALLDATALOAD PUSH8 0xFFFFFFFFFFFFFFFF DUP2 GT ISZERO PUSH2 0x1E07 JUMPI PUSH1 0x0 DUP1 REVERT JUMPDEST PUSH2 0x1E13 DUP10 DUP3 DUP11 ADD PUSH2 0x1B85 JUMP JUMPDEST SWAP5 POP SWAP5 POP POP PUSH1 0x60 DUP8 ADD CALLDATALOAD PUSH8 0xFFFFFFFFFFFFFFFF DUP2 GT ISZERO PUSH2 0x1E32 JUMPI PUSH1 0x0 DUP1 REVERT JUMPDEST PUSH2 0x1E3E DUP10 DUP3 DUP11 ADD PUSH2 0x1B85 JUMP JUMPDEST SWAP3 POP SWAP3 POP POP SWAP3 SWAP6 POP SWAP3 SWAP6 POP SWAP3 SWAP6 JUMP JUMPDEST PUSH2 0x1E56 DUP2 PUSH2 0x200B JUMP JUMPDEST DUP3 MSTORE POP POP JUMP JUMPDEST PUSH2 0x1E56 DUP2 PUSH2 0x2024 JUMP JUMPDEST PUSH2 0x1E56 DUP2 PUSH2 0x2029 JUMP JUMPDEST PUSH1 0x0 PUSH2 0x1E79 DUP3 PUSH2 0x2007 JUMP JUMPDEST DUP1 DUP5 MSTORE PUSH2 0x1E8D DUP2 PUSH1 0x20 DUP7 ADD PUSH1 0x20 DUP7 ADD PUSH2 0x203E JUMP JUMPDEST PUSH2 0x1E96 DUP2 PUSH2 0x206E JUMP JUMPDEST SWAP1 SWAP4 ADD PUSH1 0x20 ADD SWAP4 SWAP3 POP POP POP JUMP JUMPDEST PUSH2 0x1E56 DUP2 PUSH2 0x202C JUMP JUMPDEST PUSH1 0x20 DUP2 ADD PUSH2 0x13B7 DUP3 DUP5 PUSH2 0x1E4D JUMP JUMPDEST PUSH1 0x20 DUP2 ADD PUSH2 0x13B7 DUP3 DUP5 PUSH2 0x1E5C JUMP JUMPDEST PUSH1 0x20 DUP2 ADD PUSH2 0x13B7 DUP3 DUP5 PUSH2 0x1E65 JUMP JUMPDEST PUSH1 0x60 DUP2 ADD PUSH2 0x1EE4 DUP3 DUP7 PUSH2 0x1E65 JUMP JUMPDEST PUSH2 0x1EF1 PUSH1 0x20 DUP4 ADD DUP6 PUSH2 0x1E4D JUMP JUMPDEST DUP2 DUP2 SUB PUSH1 0x40 DUP4 ADD MSTORE PUSH2 0x1F03 DUP2 DUP5 PUSH2 0x1E6E JUMP JUMPDEST SWAP6 SWAP5 POP POP POP POP POP JUMP JUMPDEST PUSH1 0x40 DUP2 ADD PUSH2 0x1F1A DUP3 DUP6 PUSH2 0x1E65 JUMP JUMPDEST DUP2 DUP2 SUB PUSH1 0x20 DUP4 ADD MSTORE PUSH2 0xFF0 DUP2 DUP5 PUSH2 0x1E6E JUMP JUMPDEST PUSH1 0x80 DUP2 ADD PUSH2 0x1F3A DUP3 DUP8 PUSH2 0x1E65 JUMP JUMPDEST PUSH2 0x1F47 PUSH1 0x20 DUP4 ADD DUP7 PUSH2 0x1E65 JUMP JUMPDEST PUSH2 0x1F54 PUSH1 0x40 DUP4 ADD DUP6 PUSH2 0x1E4D JUMP JUMPDEST PUSH2 0x1F03 PUSH1 0x60 DUP4 ADD DUP5 PUSH2 0x1E65 JUMP JUMPDEST PUSH1 0x80 DUP2 ADD PUSH2 0x1F6F DUP3 DUP8 PUSH2 0x1E65 JUMP JUMPDEST PUSH2 0x1F7C PUSH1 0x20 DUP4 ADD DUP7 PUSH2 0x1EA3 JUMP JUMPDEST PUSH2 0x1F54 PUSH1 0x40 DUP4 ADD DUP6 PUSH2 0x1E65 JUMP JUMPDEST PUSH1 0x20 DUP1 DUP3 MSTORE DUP2 ADD PUSH2 0x1B5A DUP2 DUP5 PUSH2 0x1E6E JUMP JUMPDEST PUSH1 0x40 MLOAD DUP2 DUP2 ADD PUSH8 0xFFFFFFFFFFFFFFFF DUP2 GT DUP3 DUP3 LT OR ISZERO PUSH2 0x1FB9 JUMPI PUSH1 0x0 DUP1 REVERT JUMPDEST PUSH1 0x40 MSTORE SWAP2 SWAP1 POP JUMP JUMPDEST PUSH1 0x0 PUSH8 0xFFFFFFFFFFFFFFFF DUP3 GT ISZERO PUSH2 0x1FD8 JUMPI PUSH1 0x0 DUP1 REVERT JUMPDEST POP PUSH1 0x20 PUSH1 0x1F SWAP2 SWAP1 SWAP2 ADD PUSH32 0xFFFFFFFFFFFFFFFFFFFFFFFFFFFFFFFFFFFFFFFFFFFFFFFFFFFFFFFFFFFFFFE0 AND ADD SWAP1 JUMP JUMPDEST MLOAD SWAP1 JUMP JUMPDEST PUSH20 0xFFFFFFFFFFFFFFFFFFFFFFFFFFFFFFFFFFFFFFFF AND SWAP1 JUMP JUMPDEST ISZERO ISZERO SWAP1 JUMP JUMPDEST SWAP1 JUMP JUMPDEST PUSH1 0xFF AND SWAP1 JUMP JUMPDEST DUP3 DUP2 DUP4 CALLDATACOPY POP PUSH1 0x0 SWAP2 ADD MSTORE JUMP JUMPDEST PUSH1 0x0 JUMPDEST DUP4 DUP2 LT ISZERO PUSH2 0x2059 JUMPI DUP2 DUP2 ADD MLOAD DUP4 DUP3 ADD MSTORE PUSH1 0x20 ADD PUSH2 0x2041 JUMP JUMPDEST DUP4 DUP2 GT ISZERO PUSH2 0x2068 JUMPI PUSH1 0x0 DUP5 DUP5 ADD MSTORE JUMPDEST POP POP POP POP JUMP JUMPDEST PUSH1 0x1F ADD PUSH32 0xFFFFFFFFFFFFFFFFFFFFFFFFFFFFFFFFFFFFFFFFFFFFFFFFFFFFFFFFFFFFFFE0 AND SWAP1 JUMP STOP LOG2 PUSH6 0x627A7A723058 KECCAK256 LOG2 0xd7 ADDRESS AND 0xbd 0x3f SDIV DUP14 GT 0xe2 PUSH22 0x435D0070E510AEAB6B8CEE48C1078A9911D1EEB7106C PUSH6 0x78706572696D PUSH6 0x6E74616CF500 CALLDATACOPY "
			}
		}
	},
	"sourceTreeHashHex": "0x525705e9becbb437d8a21a1004c2da8f5da4d85c5d4825813b38d1a3f8292c87",
	"compiler": {
		"name": "solc",
		"version": "soljson-v0.4.24+commit.e67f0147.js",
		"settings": {
			"optimizer": {
				"enabled": true,
				"runs": 1000000
			},
			"outputSelection": {
				"*": {
					"*": [
						"abi",
						"evm.bytecode.object",
						"evm.bytecode.sourceMap",
						"evm.deployedBytecode.object",
						"evm.deployedBytecode.sourceMap"
					]
				}
			}
		}
	}
}