{
	"schemaVersion": "2.0.0",
	"contractName": "TestLibs",
	"compilerOutput": {
		"abi": [
			{
				"constant": true,
				"inputs": [
					{
						"name": "numerator",
						"type": "uint256"
					},
					{
						"name": "denominator",
						"type": "uint256"
					},
					{
						"name": "target",
						"type": "uint256"
					}
				],
				"name": "publicGetPartialAmount",
				"outputs": [
					{
						"name": "partialAmount",
						"type": "uint256"
					}
				],
				"payable": false,
				"stateMutability": "pure",
				"type": "function"
			},
			{
				"constant": true,
				"inputs": [],
				"name": "getDomainSeparatorSchemaHash",
				"outputs": [
					{
						"name": "",
						"type": "bytes32"
					}
				],
				"payable": false,
				"stateMutability": "view",
				"type": "function"
			},
			{
				"constant": true,
				"inputs": [
					{
						"components": [
							{
								"name": "makerAssetFilledAmount",
								"type": "uint256"
							},
							{
								"name": "takerAssetFilledAmount",
								"type": "uint256"
							},
							{
								"name": "makerFeePaid",
								"type": "uint256"
							},
							{
								"name": "takerFeePaid",
								"type": "uint256"
							}
						],
						"name": "totalFillResults",
						"type": "tuple"
					},
					{
						"components": [
							{
								"name": "makerAssetFilledAmount",
								"type": "uint256"
							},
							{
								"name": "takerAssetFilledAmount",
								"type": "uint256"
							},
							{
								"name": "makerFeePaid",
								"type": "uint256"
							},
							{
								"name": "takerFeePaid",
								"type": "uint256"
							}
						],
						"name": "singleFillResults",
						"type": "tuple"
					}
				],
				"name": "publicAddFillResults",
				"outputs": [
					{
						"components": [
							{
								"name": "makerAssetFilledAmount",
								"type": "uint256"
							},
							{
								"name": "takerAssetFilledAmount",
								"type": "uint256"
							},
							{
								"name": "makerFeePaid",
								"type": "uint256"
							},
							{
								"name": "takerFeePaid",
								"type": "uint256"
							}
						],
						"name": "",
						"type": "tuple"
					}
				],
				"payable": false,
				"stateMutability": "pure",
				"type": "function"
			},
			{
				"constant": true,
				"inputs": [],
				"name": "getOrderSchemaHash",
				"outputs": [
					{
						"name": "",
						"type": "bytes32"
					}
				],
				"payable": false,
				"stateMutability": "view",
				"type": "function"
			},
			{
				"constant": true,
				"inputs": [
					{
						"name": "numerator",
						"type": "uint256"
					},
					{
						"name": "denominator",
						"type": "uint256"
					},
					{
						"name": "target",
						"type": "uint256"
					}
				],
				"name": "publicIsRoundingError",
				"outputs": [
					{
						"name": "isError",
						"type": "bool"
					}
				],
				"payable": false,
				"stateMutability": "pure",
				"type": "function"
			},
			{
				"constant": true,
				"inputs": [
					{
						"components": [
							{
								"name": "makerAddress",
								"type": "address"
							},
							{
								"name": "takerAddress",
								"type": "address"
							},
							{
								"name": "feeRecipientAddress",
								"type": "address"
							},
							{
								"name": "senderAddress",
								"type": "address"
							},
							{
								"name": "makerAssetAmount",
								"type": "uint256"
							},
							{
								"name": "takerAssetAmount",
								"type": "uint256"
							},
							{
								"name": "makerFee",
								"type": "uint256"
							},
							{
								"name": "takerFee",
								"type": "uint256"
							},
							{
								"name": "expirationTimeSeconds",
								"type": "uint256"
							},
							{
								"name": "salt",
								"type": "uint256"
							},
							{
								"name": "makerAssetData",
								"type": "bytes"
							},
							{
								"name": "takerAssetData",
								"type": "bytes"
							}
						],
						"name": "order",
						"type": "tuple"
					}
				],
				"name": "publicGetOrderHash",
				"outputs": [
					{
						"name": "orderHash",
						"type": "bytes32"
					}
				],
				"payable": false,
				"stateMutability": "view",
				"type": "function"
			}
		],
		"evm": {
			"bytecode": {
				"linkReferences": {},
				"object": "0x608060405234801561001057600080fd5b50610d41806100206000396000f30060806040526004361061005e5763ffffffff60e060020a600035041663041e63fe8114610063578063494d92971461009957806366758d7b146100ae5780637d33c6ee146100db5780638ae63316146100f0578063d98020881461011d575b600080fd5b34801561006f57600080fd5b5061008361007e366004610b5b565b61013d565b6040516100909190610c1e565b60405180910390f35b3480156100a557600080fd5b50610083610152565b3480156100ba57600080fd5b506100ce6100c9366004610aec565b610182565b6040516100909190610c2c565b3480156100e757600080fd5b5061008361019d565b3480156100fc57600080fd5b5061011061010b366004610b5b565b610338565b6040516100909190610c10565b34801561012957600080fd5b50610083610138366004610b27565b610345565b600061014a848484610350565b949350505050565b60408051600080516020610cc8833981519152815260f860020a6029026020820152905190819003602101902090565b61018a6108a1565b6101948383610365565b50815b92915050565b6040805160d360020a6509ee4c8cae45028152605a60020a741859191c995cdcc81b585ad95c9059191c995cdccb026006820152605a60020a741859191c995cdcc81d185ad95c9059191c995cdccb02601b820152600080516020610ca88339815191526030820152605260020a751859191c995cdcc81cd95b99195c9059191c995cdccb02604c820152603a60020a781d5a5b9d0c8d4d881b585ad95c905cdcd95d105b5bdd5b9d0b026062820152603a60020a781d5a5b9d0c8d4d881d185ad95c905cdcd95d105b5bdd5b9d0b02607b820152607a60020a701d5a5b9d0c8d4d881b585ad95c9199594b026094820152607a60020a701d5a5b9d0c8d4d881d185ad95c9199594b0260a5820152600080516020610ce883398151915260b6820152609a60020a6c1d5a5b9d0c8d4d881cd85b1d0b0260d4820152605a60020a74189e5d195cc81b585ad95c905cdcd95d11185d184b0260e1820152605a60020a74189e5d195cc81d185ad95c905cdcd95d11185d184b0260f682015260f860020a60290261010b82015290519081900361010c01902090565b600061014a8484846103c7565b60006101978261041d565b600061014a61035f8584610850565b8461087b565b815181516103739190610892565b8252602080830151908201516103899190610892565b6020830152604080830151908201516103a29190610892565b6040830152606080830151908201516103bb9190610892565b60609092019190915250565b6000806000848015156103d657fe5b86850991508115156103eb5760009250610414565b61040a6103fb83620f4240610850565b6104058887610850565b61087b565b6103e88111935090505b50509392505050565b60006040518080600080516020610cc8833981519152815260200160f860020a60290281525060210190506040518091039020306040518082600160a060020a0316600160a060020a0316606060020a0281526014019150506040518091039020604051808060d360020a6509ee4c8cae450281525060060180605a60020a741859191c995cdcc81b585ad95c9059191c995cdccb0281525060150180605a60020a741859191c995cdcc81d185ad95c9059191c995cdccb0281525060150180600080516020610ca8833981519152815250601c0180605260020a751859191c995cdcc81cd95b99195c9059191c995cdccb0281525060160180603a60020a781d5a5b9d0c8d4d881b585ad95c905cdcd95d105b5bdd5b9d0b0281525060190180603a60020a781d5a5b9d0c8d4d881d185ad95c905cdcd95d105b5bdd5b9d0b0281525060190180607a60020a701d5a5b9d0c8d4d881b585ad95c9199594b0281525060110180607a60020a701d5a5b9d0c8d4d881d185ad95c9199594b0281525060110180600080516020610ce8833981519152815250601e0180609a60020a6c1d5a5b9d0c8d4d881cd85b1d0b02815250600d0180605a60020a74189e5d195cc81b585ad95c905cdcd95d11185d184b0281525060150180605a60020a74189e5d195cc81d185ad95c905cdcd95d11185d184b028152506015018060f860020a60290281525060010190506040518091039020846000015185602001518660400151876060015188608001518960a001518a60c001518b60e001518c61010001518d61012001518e61014001516040518082805190602001908083835b6020831061069b5780518252601f19909201916020918201910161067c565b6001836020036101000a03801982511681845116808217855250505050505090500191505060405180910390208f61016001516040518082805190602001908083835b602083106106fd5780518252601f1990920191602091820191016106de565b6001836020036101000a0380198251168184511680821785525050505050509050019150506040518091039020604051808d600160a060020a0316600160a060020a0316606060020a0281526014018c600160a060020a0316600160a060020a0316606060020a0281526014018b600160a060020a0316600160a060020a0316606060020a0281526014018a600160a060020a0316600160a060020a0316606060020a028152601401898152602001888152602001878152602001868152602001858152602001848152602001836000191660001916815260200182600019166000191681526020019c50505050505050505050505050604051809103902060405180856000191660001916815260200184600019166000191681526020018360001916600019168152602001826000191660001916815260200194505050505060405180910390209050809050919050565b600082820283158061086c575082848281151561086957fe5b04145b151561087457fe5b9392505050565b600080828481151561088957fe5b04949350505050565b60008282018381101561087457fe5b608060405190810160405280600081526020016000815260200160008152602001600081525090565b60006108748235610c8f565b6000601f820183136108e757600080fd5b81356108fa6108f582610c60565b610c3a565b9150808252602083016020830185838301111561091657600080fd5b610921838284610c9b565b50505092915050565b60006080828403121561093c57600080fd5b6109466080610c3a565b905060006109548484610ae0565b825250602061096584848301610ae0565b602083015250604061097984828501610ae0565b604083015250606061098d84828501610ae0565b60608301525092915050565b600061018082840312156109ac57600080fd5b6109b7610180610c3a565b905060006109c584846108ca565b82525060206109d6848483016108ca565b60208301525060406109ea848285016108ca565b60408301525060606109fe848285016108ca565b6060830152506080610a1284828501610ae0565b60808301525060a0610a2684828501610ae0565b60a08301525060c0610a3a84828501610ae0565b60c08301525060e0610a4e84828501610ae0565b60e083015250610100610a6384828501610ae0565b61010083015250610120610a7984828501610ae0565b610120830152506101408201356001604060020a03811115610a9a57600080fd5b610aa6848285016108d6565b610140830152506101608201356001604060020a03811115610ac757600080fd5b610ad3848285016108d6565b6101608301525092915050565b60006108748235610c8c565b6000806101008385031215610b0057600080fd5b6000610b0c858561092a565b9250506080610b1d8582860161092a565b9150509250929050565b600060208284031215610b3957600080fd5b81356001604060020a03811115610b4f57600080fd5b61014a84828501610999565b600080600060608486031215610b7057600080fd5b6000610b7c8686610ae0565b9350506020610b8d86828701610ae0565b9250506040610b9e86828701610ae0565b9150509250925092565b610bb181610c87565b82525050565b610bb181610c8c565b80516080830190610bd18482610bb7565b506020820151610be46020850182610bb7565b506040820151610bf76040850182610bb7565b506060820151610c0a6060850182610bb7565b50505050565b602081016101978284610ba8565b602081016101978284610bb7565b608081016101978284610bc0565b6040518181016001604060020a0381118282101715610c5857600080fd5b604052919050565b60006001604060020a03821115610c7657600080fd5b506020601f91909101601f19160190565b151590565b90565b600160a060020a031690565b8281833750600091015256006164647265737320666565526563697069656e74416464726573732c00000000446f6d61696e536570617261746f72286164647265737320636f6e747261637475696e743235362065787069726174696f6e54696d655365636f6e64732c0000a265627a7a72305820303cf86fdf3087d92d231765ad5553045640e1d1bdea3d4489f3d9bcbfc2a9b06c6578706572696d656e74616cf50037",
				"opcodes": "PUSH1 0x80 PUSH1 0x40 MSTORE CALLVALUE DUP1 ISZERO PUSH2 0x10 JUMPI PUSH1 0x0 DUP1 REVERT JUMPDEST POP PUSH2 0xD41 DUP1 PUSH2 0x20 PUSH1 0x0 CODECOPY PUSH1 0x0 RETURN STOP PUSH1 0x80 PUSH1 0x40 MSTORE PUSH1 0x4 CALLDATASIZE LT PUSH2 0x5E JUMPI PUSH4 0xFFFFFFFF PUSH1 0xE0 PUSH1 0x2 EXP PUSH1 0x0 CALLDATALOAD DIV AND PUSH4 0x41E63FE DUP2 EQ PUSH2 0x63 JUMPI DUP1 PUSH4 0x494D9297 EQ PUSH2 0x99 JUMPI DUP1 PUSH4 0x66758D7B EQ PUSH2 0xAE JUMPI DUP1 PUSH4 0x7D33C6EE EQ PUSH2 0xDB JUMPI DUP1 PUSH4 0x8AE63316 EQ PUSH2 0xF0 JUMPI DUP1 PUSH4 0xD9802088 EQ PUSH2 0x11D JUMPI JUMPDEST PUSH1 0x0 DUP1 REVERT JUMPDEST CALLVALUE DUP1 ISZERO PUSH2 0x6F JUMPI PUSH1 0x0 DUP1 REVERT JUMPDEST POP PUSH2 0x83 PUSH2 0x7E CALLDATASIZE PUSH1 0x4 PUSH2 0xB5B JUMP JUMPDEST PUSH2 0x13D JUMP JUMPDEST PUSH1 0x40 MLOAD PUSH2 0x90 SWAP2 SWAP1 PUSH2 0xC1E JUMP JUMPDEST PUSH1 0x40 MLOAD DUP1 SWAP2 SUB SWAP1 RETURN JUMPDEST CALLVALUE DUP1 ISZERO PUSH2 0xA5 JUMPI PUSH1 0x0 DUP1 REVERT JUMPDEST POP PUSH2 0x83 PUSH2 0x152 JUMP JUMPDEST CALLVALUE DUP1 ISZERO PUSH2 0xBA JUMPI PUSH1 0x0 DUP1 REVERT JUMPDEST POP PUSH2 0xCE PUSH2 0xC9 CALLDATASIZE PUSH1 0x4 PUSH2 0xAEC JUMP JUMPDEST PUSH2 0x182 JUMP JUMPDEST PUSH1 0x40 MLOAD PUSH2 0x90 SWAP2 SWAP1 PUSH2 0xC2C JUMP JUMPDEST CALLVALUE DUP1 ISZERO PUSH2 0xE7 JUMPI PUSH1 0x0 DUP1 REVERT JUMPDEST POP PUSH2 0x83 PUSH2 0x19D JUMP JUMPDEST CALLVALUE DUP1 ISZERO PUSH2 0xFC JUMPI PUSH1 0x0 DUP1 REVERT JUMPDEST POP PUSH2 0x110 PUSH2 0x10B CALLDATASIZE PUSH1 0x4 PUSH2 0xB5B JUMP JUMPDEST PUSH2 0x338 JUMP JUMPDEST PUSH1 0x40 MLOAD PUSH2 0x90 SWAP2 SWAP1 PUSH2 0xC10 JUMP JUMPDEST CALLVALUE DUP1 ISZERO PUSH2 0x129 JUMPI PUSH1 0x0 DUP1 REVERT JUMPDEST POP PUSH2 0x83 PUSH2 0x138 CALLDATASIZE PUSH1 0x4 PUSH2 0xB27 JUMP JUMPDEST PUSH2 0x345 JUMP JUMPDEST PUSH1 0x0 PUSH2 0x14A DUP5 DUP5 DUP5 PUSH2 0x350 JUMP JUMPDEST SWAP5 SWAP4 POP POP POP POP JUMP JUMPDEST PUSH1 0x40 DUP1 MLOAD PUSH1 0x0 DUP1 MLOAD PUSH1 0x20 PUSH2 0xCC8 DUP4 CODECOPY DUP2 MLOAD SWAP2 MSTORE DUP2 MSTORE PUSH1 0xF8 PUSH1 0x2 EXP PUSH1 0x29 MUL PUSH1 0x20 DUP3 ADD MSTORE SWAP1 MLOAD SWAP1 DUP2 SWAP1 SUB PUSH1 0x21 ADD SWAP1 KECCAK256 SWAP1 JUMP JUMPDEST PUSH2 0x18A PUSH2 0x8A1 JUMP JUMPDEST PUSH2 0x194 DUP4 DUP4 PUSH2 0x365 JUMP JUMPDEST POP DUP2 JUMPDEST SWAP3 SWAP2 POP POP JUMP JUMPDEST PUSH1 0x40 DUP1 MLOAD PUSH1 0xD3 PUSH1 0x2 EXP PUSH6 0x9EE4C8CAE45 MUL DUP2 MSTORE PUSH1 0x5A PUSH1 0x2 EXP PUSH21 0x1859191C995CDCC81B585AD95C9059191C995CDCCB MUL PUSH1 0x6 DUP3 ADD MSTORE PUSH1 0x5A PUSH1 0x2 EXP PUSH21 0x1859191C995CDCC81D185AD95C9059191C995CDCCB MUL PUSH1 0x1B DUP3 ADD MSTORE PUSH1 0x0 DUP1 MLOAD PUSH1 0x20 PUSH2 0xCA8 DUP4 CODECOPY DUP2 MLOAD SWAP2 MSTORE PUSH1 0x30 DUP3 ADD MSTORE PUSH1 0x52 PUSH1 0x2 EXP PUSH22 0x1859191C995CDCC81CD95B99195C9059191C995CDCCB MUL PUSH1 0x4C DUP3 ADD MSTORE PUSH1 0x3A PUSH1 0x2 EXP PUSH25 0x1D5A5B9D0C8D4D881B585AD95C905CDCD95D105B5BDD5B9D0B MUL PUSH1 0x62 DUP3 ADD MSTORE PUSH1 0x3A PUSH1 0x2 EXP PUSH25 0x1D5A5B9D0C8D4D881D185AD95C905CDCD95D105B5BDD5B9D0B MUL PUSH1 0x7B DUP3 ADD MSTORE PUSH1 0x7A PUSH1 0x2 EXP PUSH17 0x1D5A5B9D0C8D4D881B585AD95C9199594B MUL PUSH1 0x94 DUP3 ADD MSTORE PUSH1 0x7A PUSH1 0x2 EXP PUSH17 0x1D5A5B9D0C8D4D881D185AD95C9199594B MUL PUSH1 0xA5 DUP3 ADD MSTORE PUSH1 0x0 DUP1 MLOAD PUSH1 0x20 PUSH2 0xCE8 DUP4 CODECOPY DUP2 MLOAD SWAP2 MSTORE PUSH1 0xB6 DUP3 ADD MSTORE PUSH1 0x9A PUSH1 0x2 EXP PUSH13 0x1D5A5B9D0C8D4D881CD85B1D0B MUL PUSH1 0xD4 DUP3 ADD MSTORE PUSH1 0x5A PUSH1 0x2 EXP PUSH21 0x189E5D195CC81B585AD95C905CDCD95D11185D184B MUL PUSH1 0xE1 DUP3 ADD MSTORE PUSH1 0x5A PUSH1 0x2 EXP PUSH21 0x189E5D195CC81D185AD95C905CDCD95D11185D184B MUL PUSH1 0xF6 DUP3 ADD MSTORE PUSH1 0xF8 PUSH1 0x2 EXP PUSH1 0x29 MUL PUSH2 0x10B DUP3 ADD MSTORE SWAP1 MLOAD SWAP1 DUP2 SWAP1 SUB PUSH2 0x10C ADD SWAP1 KECCAK256 SWAP1 JUMP JUMPDEST PUSH1 0x0 PUSH2 0x14A DUP5 DUP5 DUP5 PUSH2 0x3C7 JUMP JUMPDEST PUSH1 0x0 PUSH2 0x197 DUP3 PUSH2 0x41D JUMP JUMPDEST PUSH1 0x0 PUSH2 0x14A PUSH2 0x35F DUP6 DUP5 PUSH2 0x850 JUMP JUMPDEST DUP5 PUSH2 0x87B JUMP JUMPDEST DUP2 MLOAD DUP2 MLOAD PUSH2 0x373 SWAP2 SWAP1 PUSH2 0x892 JUMP JUMPDEST DUP3 MSTORE PUSH1 0x20 DUP1 DUP4 ADD MLOAD SWAP1 DUP3 ADD MLOAD PUSH2 0x389 SWAP2 SWAP1 PUSH2 0x892 JUMP JUMPDEST PUSH1 0x20 DUP4 ADD MSTORE PUSH1 0x40 DUP1 DUP4 ADD MLOAD SWAP1 DUP3 ADD MLOAD PUSH2 0x3A2 SWAP2 SWAP1 PUSH2 0x892 JUMP JUMPDEST PUSH1 0x40 DUP4 ADD MSTORE PUSH1 0x60 DUP1 DUP4 ADD MLOAD SWAP1 DUP3 ADD MLOAD PUSH2 0x3BB SWAP2 SWAP1 PUSH2 0x892 JUMP JUMPDEST PUSH1 0x60 SWAP1 SWAP3 ADD SWAP2 SWAP1 SWAP2 MSTORE POP JUMP JUMPDEST PUSH1 0x0 DUP1 PUSH1 0x0 DUP5 DUP1 ISZERO ISZERO PUSH2 0x3D6 JUMPI INVALID JUMPDEST DUP7 DUP6 MULMOD SWAP2 POP DUP2 ISZERO ISZERO PUSH2 0x3EB JUMPI PUSH1 0x0 SWAP3 POP PUSH2 0x414 JUMP JUMPDEST PUSH2 0x40A PUSH2 0x3FB DUP4 PUSH3 0xF4240 PUSH2 0x850 JUMP JUMPDEST PUSH2 0x405 DUP9 DUP8 PUSH2 0x850 JUMP JUMPDEST PUSH2 0x87B JUMP JUMPDEST PUSH2 0x3E8 DUP2 GT SWAP4 POP SWAP1 POP JUMPDEST POP POP SWAP4 SWAP3 POP POP POP JUMP JUMPDEST PUSH1 0x0 PUSH1 0x40 MLOAD DUP1 DUP1 PUSH1 0x0 DUP1 MLOAD PUSH1 0x20 PUSH2 0xCC8 DUP4 CODECOPY DUP2 MLOAD SWAP2 MSTORE DUP2 MSTORE PUSH1 0x20 ADD PUSH1 0xF8 PUSH1 0x2 EXP PUSH1 0x29 MUL DUP2 MSTORE POP PUSH1 0x21 ADD SWAP1 POP PUSH1 0x40 MLOAD DUP1 SWAP2 SUB SWAP1 KECCAK256 ADDRESS PUSH1 0x40 MLOAD DUP1 DUP3 PUSH1 0x1 PUSH1 0xA0 PUSH1 0x2 EXP SUB AND PUSH1 0x1 PUSH1 0xA0 PUSH1 0x2 EXP SUB AND PUSH1 0x60 PUSH1 0x2 EXP MUL DUP2 MSTORE PUSH1 0x14 ADD SWAP2 POP POP PUSH1 0x40 MLOAD DUP1 SWAP2 SUB SWAP1 KECCAK256 PUSH1 0x40 MLOAD DUP1 DUP1 PUSH1 0xD3 PUSH1 0x2 EXP PUSH6 0x9EE4C8CAE45 MUL DUP2 MSTORE POP PUSH1 0x6 ADD DUP1 PUSH1 0x5A PUSH1 0x2 EXP PUSH21 0x1859191C995CDCC81B585AD95C9059191C995CDCCB MUL DUP2 MSTORE POP PUSH1 0x15 ADD DUP1 PUSH1 0x5A PUSH1 0x2 EXP PUSH21 0x1859191C995CDCC81D185AD95C9059191C995CDCCB MUL DUP2 MSTORE POP PUSH1 0x15 ADD DUP1 PUSH1 0x0 DUP1 MLOAD PUSH1 0x20 PUSH2 0xCA8 DUP4 CODECOPY DUP2 MLOAD SWAP2 MSTORE DUP2 MSTORE POP PUSH1 0x1C ADD DUP1 PUSH1 0x52 PUSH1 0x2 EXP PUSH22 0x1859191C995CDCC81CD95B99195C9059191C995CDCCB MUL DUP2 MSTORE POP PUSH1 0x16 ADD DUP1 PUSH1 0x3A PUSH1 0x2 EXP PUSH25 0x1D5A5B9D0C8D4D881B585AD95C905CDCD95D105B5BDD5B9D0B MUL DUP2 MSTORE POP PUSH1 0x19 ADD DUP1 PUSH1 0x3A PUSH1 0x2 EXP PUSH25 0x1D5A5B9D0C8D4D881D185AD95C905CDCD95D105B5BDD5B9D0B MUL DUP2 MSTORE POP PUSH1 0x19 ADD DUP1 PUSH1 0x7A PUSH1 0x2 EXP PUSH17 0x1D5A5B9D0C8D4D881B585AD95C9199594B MUL DUP2 MSTORE POP PUSH1 0x11 ADD DUP1 PUSH1 0x7A PUSH1 0x2 EXP PUSH17 0x1D5A5B9D0C8D4D881D185AD95C9199594B MUL DUP2 MSTORE POP PUSH1 0x11 ADD DUP1 PUSH1 0x0 DUP1 MLOAD PUSH1 0x20 PUSH2 0xCE8 DUP4 CODECOPY DUP2 MLOAD SWAP2 MSTORE DUP2 MSTORE POP PUSH1 0x1E ADD DUP1 PUSH1 0x9A PUSH1 0x2 EXP PUSH13 0x1D5A5B9D0C8D4D881CD85B1D0B MUL DUP2 MSTORE POP PUSH1 0xD ADD DUP1 PUSH1 0x5A PUSH1 0x2 EXP PUSH21 0x189E5D195CC81B585AD95C905CDCD95D11185D184B MUL DUP2 MSTORE POP PUSH1 0x15 ADD DUP1 PUSH1 0x5A PUSH1 0x2 EXP PUSH21 0x189E5D195CC81D185AD95C905CDCD95D11185D184B MUL DUP2 MSTORE POP PUSH1 0x15 ADD DUP1 PUSH1 0xF8 PUSH1 0x2 EXP PUSH1 0x29 MUL DUP2 MSTORE POP PUSH1 0x1 ADD SWAP1 POP PUSH1 0x40 MLOAD DUP1 SWAP2 SUB SWAP1 KECCAK256 DUP5 PUSH1 0x0 ADD MLOAD DUP6 PUSH1 0x20 ADD MLOAD DUP7 PUSH1 0x40 ADD MLOAD DUP8 PUSH1 0x60 ADD MLOAD DUP9 PUSH1 0x80 ADD MLOAD DUP10 PUSH1 0xA0 ADD MLOAD DUP11 PUSH1 0xC0 ADD MLOAD DUP12 PUSH1 0xE0 ADD MLOAD DUP13 PUSH2 0x100 ADD MLOAD DUP14 PUSH2 0x120 ADD MLOAD DUP15 PUSH2 0x140 ADD MLOAD PUSH1 0x40 MLOAD DUP1 DUP3 DUP1 MLOAD SWAP1 PUSH1 0x20 ADD SWAP1 DUP1 DUP4 DUP4 JUMPDEST PUSH1 0x20 DUP4 LT PUSH2 0x69B JUMPI DUP1 MLOAD DUP3 MSTORE PUSH1 0x1F NOT SWAP1 SWAP3 ADD SWAP2 PUSH1 0x20 SWAP2 DUP3 ADD SWAP2 ADD PUSH2 0x67C JUMP JUMPDEST PUSH1 0x1 DUP4 PUSH1 0x20 SUB PUSH2 0x100 EXP SUB DUP1 NOT DUP3 MLOAD AND DUP2 DUP5 MLOAD AND DUP1 DUP3 OR DUP6 MSTORE POP POP POP POP POP POP SWAP1 POP ADD SWAP2 POP POP PUSH1 0x40 MLOAD DUP1 SWAP2 SUB SWAP1 KECCAK256 DUP16 PUSH2 0x160 ADD MLOAD PUSH1 0x40 MLOAD DUP1 DUP3 DUP1 MLOAD SWAP1 PUSH1 0x20 ADD SWAP1 DUP1 DUP4 DUP4 JUMPDEST PUSH1 0x20 DUP4 LT PUSH2 0x6FD JUMPI DUP1 MLOAD DUP3 MSTORE PUSH1 0x1F NOT SWAP1 SWAP3 ADD SWAP2 PUSH1 0x20 SWAP2 DUP3 ADD SWAP2 ADD PUSH2 0x6DE JUMP JUMPDEST PUSH1 0x1 DUP4 PUSH1 0x20 SUB PUSH2 0x100 EXP SUB DUP1 NOT DUP3 MLOAD AND DUP2 DUP5 MLOAD AND DUP1 DUP3 OR DUP6 MSTORE POP POP POP POP POP POP SWAP1 POP ADD SWAP2 POP POP PUSH1 0x40 MLOAD DUP1 SWAP2 SUB SWAP1 KECCAK256 PUSH1 0x40 MLOAD DUP1 DUP14 PUSH1 0x1 PUSH1 0xA0 PUSH1 0x2 EXP SUB AND PUSH1 0x1 PUSH1 0xA0 PUSH1 0x2 EXP SUB AND PUSH1 0x60 PUSH1 0x2 EXP MUL DUP2 MSTORE PUSH1 0x14 ADD DUP13 PUSH1 0x1 PUSH1 0xA0 PUSH1 0x2 EXP SUB AND PUSH1 0x1 PUSH1 0xA0 PUSH1 0x2 EXP SUB AND PUSH1 0x60 PUSH1 0x2 EXP MUL DUP2 MSTORE PUSH1 0x14 ADD DUP12 PUSH1 0x1 PUSH1 0xA0 PUSH1 0x2 EXP SUB AND PUSH1 0x1 PUSH1 0xA0 PUSH1 0x2 EXP SUB AND PUSH1 0x60 PUSH1 0x2 EXP MUL DUP2 MSTORE PUSH1 0x14 ADD DUP11 PUSH1 0x1 PUSH1 0xA0 PUSH1 0x2 EXP SUB AND PUSH1 0x1 PUSH1 0xA0 PUSH1 0x2 EXP SUB AND PUSH1 0x60 PUSH1 0x2 EXP MUL DUP2 MSTORE PUSH1 0x14 ADD DUP10 DUP2 MSTORE PUSH1 0x20 ADD DUP9 DUP2 MSTORE PUSH1 0x20 ADD DUP8 DUP2 MSTORE PUSH1 0x20 ADD DUP7 DUP2 MSTORE PUSH1 0x20 ADD DUP6 DUP2 MSTORE PUSH1 0x20 ADD DUP5 DUP2 MSTORE PUSH1 0x20 ADD DUP4 PUSH1 0x0 NOT AND PUSH1 0x0 NOT AND DUP2 MSTORE PUSH1 0x20 ADD DUP3 PUSH1 0x0 NOT AND PUSH1 0x0 NOT AND DUP2 MSTORE PUSH1 0x20 ADD SWAP13 POP POP POP POP POP POP POP POP POP POP POP POP POP PUSH1 0x40 MLOAD DUP1 SWAP2 SUB SWAP1 KECCAK256 PUSH1 0x40 MLOAD DUP1 DUP6 PUSH1 0x0 NOT AND PUSH1 0x0 NOT AND DUP2 MSTORE PUSH1 0x20 ADD DUP5 PUSH1 0x0 NOT AND PUSH1 0x0 NOT AND DUP2 MSTORE PUSH1 0x20 ADD DUP4 PUSH1 0x0 NOT AND PUSH1 0x0 NOT AND DUP2 MSTORE PUSH1 0x20 ADD DUP3 PUSH1 0x0 NOT AND PUSH1 0x0 NOT AND DUP2 MSTORE PUSH1 0x20 ADD SWAP5 POP POP POP POP POP PUSH1 0x40 MLOAD DUP1 SWAP2 SUB SWAP1 KECCAK256 SWAP1 POP DUP1 SWAP1 POP SWAP2 SWAP1 POP JUMP JUMPDEST PUSH1 0x0 DUP3 DUP3 MUL DUP4 ISZERO DUP1 PUSH2 0x86C JUMPI POP DUP3 DUP5 DUP3 DUP2 ISZERO ISZERO PUSH2 0x869 JUMPI INVALID JUMPDEST DIV EQ JUMPDEST ISZERO ISZERO PUSH2 0x874 JUMPI INVALID JUMPDEST SWAP4 SWAP3 POP POP POP JUMP JUMPDEST PUSH1 0x0 DUP1 DUP3 DUP5 DUP2 ISZERO ISZERO PUSH2 0x889 JUMPI INVALID JUMPDEST DIV SWAP5 SWAP4 POP POP POP POP JUMP JUMPDEST PUSH1 0x0 DUP3 DUP3 ADD DUP4 DUP2 LT ISZERO PUSH2 0x874 JUMPI INVALID JUMPDEST PUSH1 0x80 PUSH1 0x40 MLOAD SWAP1 DUP2 ADD PUSH1 0x40 MSTORE DUP1 PUSH1 0x0 DUP2 MSTORE PUSH1 0x20 ADD PUSH1 0x0 DUP2 MSTORE PUSH1 0x20 ADD PUSH1 0x0 DUP2 MSTORE PUSH1 0x20 ADD PUSH1 0x0 DUP2 MSTORE POP SWAP1 JUMP JUMPDEST PUSH1 0x0 PUSH2 0x874 DUP3 CALLDATALOAD PUSH2 0xC8F JUMP JUMPDEST PUSH1 0x0 PUSH1 0x1F DUP3 ADD DUP4 SGT PUSH2 0x8E7 JUMPI PUSH1 0x0 DUP1 REVERT JUMPDEST DUP2 CALLDATALOAD PUSH2 0x8FA PUSH2 0x8F5 DUP3 PUSH2 0xC60 JUMP JUMPDEST PUSH2 0xC3A JUMP JUMPDEST SWAP2 POP DUP1 DUP3 MSTORE PUSH1 0x20 DUP4 ADD PUSH1 0x20 DUP4 ADD DUP6 DUP4 DUP4 ADD GT ISZERO PUSH2 0x916 JUMPI PUSH1 0x0 DUP1 REVERT JUMPDEST PUSH2 0x921 DUP4 DUP3 DUP5 PUSH2 0xC9B JUMP JUMPDEST POP POP POP SWAP3 SWAP2 POP POP JUMP JUMPDEST PUSH1 0x0 PUSH1 0x80 DUP3 DUP5 SUB SLT ISZERO PUSH2 0x93C JUMPI PUSH1 0x0 DUP1 REVERT JUMPDEST PUSH2 0x946 PUSH1 0x80 PUSH2 0xC3A JUMP JUMPDEST SWAP1 POP PUSH1 0x0 PUSH2 0x954 DUP5 DUP5 PUSH2 0xAE0 JUMP JUMPDEST DUP3 MSTORE POP PUSH1 0x20 PUSH2 0x965 DUP5 DUP5 DUP4 ADD PUSH2 0xAE0 JUMP JUMPDEST PUSH1 0x20 DUP4 ADD MSTORE POP PUSH1 0x40 PUSH2 0x979 DUP5 DUP3 DUP6 ADD PUSH2 0xAE0 JUMP JUMPDEST PUSH1 0x40 DUP4 ADD MSTORE POP PUSH1 0x60 PUSH2 0x98D DUP5 DUP3 DUP6 ADD PUSH2 0xAE0 JUMP JUMPDEST PUSH1 0x60 DUP4 ADD MSTORE POP SWAP3 SWAP2 POP POP JUMP JUMPDEST PUSH1 0x0 PUSH2 0x180 DUP3 DUP5 SUB SLT ISZERO PUSH2 0x9AC JUMPI PUSH1 0x0 DUP1 REVERT JUMPDEST PUSH2 0x9B7 PUSH2 0x180 PUSH2 0xC3A JUMP JUMPDEST SWAP1 POP PUSH1 0x0 PUSH2 0x9C5 DUP5 DUP5 PUSH2 0x8CA JUMP JUMPDEST DUP3 MSTORE POP PUSH1 0x20 PUSH2 0x9D6 DUP5 DUP5 DUP4 ADD PUSH2 0x8CA JUMP JUMPDEST PUSH1 0x20 DUP4 ADD MSTORE POP PUSH1 0x40 PUSH2 0x9EA DUP5 DUP3 DUP6 ADD PUSH2 0x8CA JUMP JUMPDEST PUSH1 0x40 DUP4 ADD MSTORE POP PUSH1 0x60 PUSH2 0x9FE DUP5 DUP3 DUP6 ADD PUSH2 0x8CA JUMP JUMPDEST PUSH1 0x60 DUP4 ADD MSTORE POP PUSH1 0x80 PUSH2 0xA12 DUP5 DUP3 DUP6 ADD PUSH2 0xAE0 JUMP JUMPDEST PUSH1 0x80 DUP4 ADD MSTORE POP PUSH1 0xA0 PUSH2 0xA26 DUP5 DUP3 DUP6 ADD PUSH2 0xAE0 JUMP JUMPDEST PUSH1 0xA0 DUP4 ADD MSTORE POP PUSH1 0xC0 PUSH2 0xA3A DUP5 DUP3 DUP6 ADD PUSH2 0xAE0 JUMP JUMPDEST PUSH1 0xC0 DUP4 ADD MSTORE POP PUSH1 0xE0 PUSH2 0xA4E DUP5 DUP3 DUP6 ADD PUSH2 0xAE0 JUMP JUMPDEST PUSH1 0xE0 DUP4 ADD MSTORE POP PUSH2 0x100 PUSH2 0xA63 DUP5 DUP3 DUP6 ADD PUSH2 0xAE0 JUMP JUMPDEST PUSH2 0x100 DUP4 ADD MSTORE POP PUSH2 0x120 PUSH2 0xA79 DUP5 DUP3 DUP6 ADD PUSH2 0xAE0 JUMP JUMPDEST PUSH2 0x120 DUP4 ADD MSTORE POP PUSH2 0x140 DUP3 ADD CALLDATALOAD PUSH1 0x1 PUSH1 0x40 PUSH1 0x2 EXP SUB DUP2 GT ISZERO PUSH2 0xA9A JUMPI PUSH1 0x0 DUP1 REVERT JUMPDEST PUSH2 0xAA6 DUP5 DUP3 DUP6 ADD PUSH2 0x8D6 JUMP JUMPDEST PUSH2 0x140 DUP4 ADD MSTORE POP PUSH2 0x160 DUP3 ADD CALLDATALOAD PUSH1 0x1 PUSH1 0x40 PUSH1 0x2 EXP SUB DUP2 GT ISZERO PUSH2 0xAC7 JUMPI PUSH1 0x0 DUP1 REVERT JUMPDEST PUSH2 0xAD3 DUP5 DUP3 DUP6 ADD PUSH2 0x8D6 JUMP JUMPDEST PUSH2 0x160 DUP4 ADD MSTORE POP SWAP3 SWAP2 POP POP JUMP JUMPDEST PUSH1 0x0 PUSH2 0x874 DUP3 CALLDATALOAD PUSH2 0xC8C JUMP JUMPDEST PUSH1 0x0 DUP1 PUSH2 0x100 DUP4 DUP6 SUB SLT ISZERO PUSH2 0xB00 JUMPI PUSH1 0x0 DUP1 REVERT JUMPDEST PUSH1 0x0 PUSH2 0xB0C DUP6 DUP6 PUSH2 0x92A JUMP JUMPDEST SWAP3 POP POP PUSH1 0x80 PUSH2 0xB1D DUP6 DUP3 DUP7 ADD PUSH2 0x92A JUMP JUMPDEST SWAP2 POP POP SWAP3 POP SWAP3 SWAP1 POP JUMP JUMPDEST PUSH1 0x0 PUSH1 0x20 DUP3 DUP5 SUB SLT ISZERO PUSH2 0xB39 JUMPI PUSH1 0x0 DUP1 REVERT JUMPDEST DUP2 CALLDATALOAD PUSH1 0x1 PUSH1 0x40 PUSH1 0x2 EXP SUB DUP2 GT ISZERO PUSH2 0xB4F JUMPI PUSH1 0x0 DUP1 REVERT JUMPDEST PUSH2 0x14A DUP5 DUP3 DUP6 ADD PUSH2 0x999 JUMP JUMPDEST PUSH1 0x0 DUP1 PUSH1 0x0 PUSH1 0x60 DUP5 DUP7 SUB SLT ISZERO PUSH2 0xB70 JUMPI PUSH1 0x0 DUP1 REVERT JUMPDEST PUSH1 0x0 PUSH2 0xB7C DUP7 DUP7 PUSH2 0xAE0 JUMP JUMPDEST SWAP4 POP POP PUSH1 0x20 PUSH2 0xB8D DUP7 DUP3 DUP8 ADD PUSH2 0xAE0 JUMP JUMPDEST SWAP3 POP POP PUSH1 0x40 PUSH2 0xB9E DUP7 DUP3 DUP8 ADD PUSH2 0xAE0 JUMP JUMPDEST SWAP2 POP POP SWAP3 POP SWAP3 POP SWAP3 JUMP JUMPDEST PUSH2 0xBB1 DUP2 PUSH2 0xC87 JUMP JUMPDEST DUP3 MSTORE POP POP JUMP JUMPDEST PUSH2 0xBB1 DUP2 PUSH2 0xC8C JUMP JUMPDEST DUP1 MLOAD PUSH1 0x80 DUP4 ADD SWAP1 PUSH2 0xBD1 DUP5 DUP3 PUSH2 0xBB7 JUMP JUMPDEST POP PUSH1 0x20 DUP3 ADD MLOAD PUSH2 0xBE4 PUSH1 0x20 DUP6 ADD DUP3 PUSH2 0xBB7 JUMP JUMPDEST POP PUSH1 0x40 DUP3 ADD MLOAD PUSH2 0xBF7 PUSH1 0x40 DUP6 ADD DUP3 PUSH2 0xBB7 JUMP JUMPDEST POP PUSH1 0x60 DUP3 ADD MLOAD PUSH2 0xC0A PUSH1 0x60 DUP6 ADD DUP3 PUSH2 0xBB7 JUMP JUMPDEST POP POP POP POP JUMP JUMPDEST PUSH1 0x20 DUP2 ADD PUSH2 0x197 DUP3 DUP5 PUSH2 0xBA8 JUMP JUMPDEST PUSH1 0x20 DUP2 ADD PUSH2 0x197 DUP3 DUP5 PUSH2 0xBB7 JUMP JUMPDEST PUSH1 0x80 DUP2 ADD PUSH2 0x197 DUP3 DUP5 PUSH2 0xBC0 JUMP JUMPDEST PUSH1 0x40 MLOAD DUP2 DUP2 ADD PUSH1 0x1 PUSH1 0x40 PUSH1 0x2 EXP SUB DUP2 GT DUP3 DUP3 LT OR ISZERO PUSH2 0xC58 JUMPI PUSH1 0x0 DUP1 REVERT JUMPDEST PUSH1 0x40 MSTORE SWAP2 SWAP1 POP JUMP JUMPDEST PUSH1 0x0 PUSH1 0x1 PUSH1 0x40 PUSH1 0x2 EXP SUB DUP3 GT ISZERO PUSH2 0xC76 JUMPI PUSH1 0x0 DUP1 REVERT JUMPDEST POP PUSH1 0x20 PUSH1 0x1F SWAP2 SWAP1 SWAP2 ADD PUSH1 0x1F NOT AND ADD SWAP1 JUMP JUMPDEST ISZERO ISZERO SWAP1 JUMP JUMPDEST SWAP1 JUMP JUMPDEST PUSH1 0x1 PUSH1 0xA0 PUSH1 0x2 EXP SUB AND SWAP1 JUMP JUMPDEST DUP3 DUP2 DUP4 CALLDATACOPY POP PUSH1 0x0 SWAP2 ADD MSTORE JUMP STOP PUSH2 0x6464 PUSH19 0x65737320666565526563697069656E74416464 PUSH19 0x6573732C00000000446F6D61696E5365706172 PUSH2 0x746F PUSH19 0x286164647265737320636F6E74726163747569 PUSH15 0x743235362065787069726174696F6E SLOAD PUSH10 0x6D655365636F6E64732C STOP STOP LOG2 PUSH6 0x627A7A723058 KECCAK256 ADDRESS EXTCODECOPY 0xf8 PUSH16 0xDF3087D92D231765AD5553045640E1D1 0xbd 0xea RETURNDATASIZE DIFFICULTY DUP10 RETURN 0xd9 0xbc 0xbf 0xc2 0xa9 0xb0 PUSH13 0x6578706572696D656E74616CF5 STOP CALLDATACOPY "
			}
		}
	},
	"sourceTreeHashHex": "0xacc08af302b744b681281d462f82e1c4b45468509550a9144481820b12657110",
	"compiler": {
		"name": "solc",
		"version": "soljson-v0.4.24+commit.e67f0147.js",
		"settings": {
			"optimizer": {
				"enabled": true,
				"runs": 0
			},
			"outputSelection": {
				"*": {
					"*": [
						"abi",
						"evm.bytecode.object",
						"evm.bytecode.sourceMap",
						"evm.deployedBytecode.object",
						"evm.deployedBytecode.sourceMap"
					]
				}
			}
		}
	}
}