{
	"schemaVersion": "2.0.0",
	"contractName": "TestLibMem",
	"compilerOutput": {
		"abi": [
			{
				"constant": false,
				"inputs": [],
				"name": "test3",
				"outputs": [],
				"payable": false,
				"stateMutability": "nonpayable",
				"type": "function"
			},
			{
				"constant": false,
				"inputs": [],
				"name": "test5",
				"outputs": [],
				"payable": false,
				"stateMutability": "nonpayable",
				"type": "function"
			},
			{
				"constant": false,
				"inputs": [],
				"name": "test2",
				"outputs": [],
				"payable": false,
				"stateMutability": "nonpayable",
				"type": "function"
			},
			{
				"constant": false,
				"inputs": [],
				"name": "test7",
				"outputs": [],
				"payable": false,
				"stateMutability": "nonpayable",
				"type": "function"
			},
			{
				"constant": false,
				"inputs": [],
				"name": "test1",
				"outputs": [],
				"payable": false,
				"stateMutability": "nonpayable",
				"type": "function"
			},
			{
				"constant": false,
				"inputs": [],
				"name": "test6",
				"outputs": [],
				"payable": false,
				"stateMutability": "nonpayable",
				"type": "function"
			},
			{
				"constant": false,
				"inputs": [],
				"name": "test4",
				"outputs": [],
				"payable": false,
				"stateMutability": "nonpayable",
				"type": "function"
			}
		],
		"evm": {
			"bytecode": {
				"linkReferences": {},
				"object": "0x608060405234801561001057600080fd5b50610b5b806100206000396000f3006080604052600436106100695763ffffffff60e060020a6000350416630a8e8e01811461006e5780631ad7be821461008557806366e41cb71461009a57806366e84d62146100af5780636b59084d146100c45780636f3babc4146100d95780638f0d282d146100ee575b600080fd5b34801561007a57600080fd5b50610083610103565b005b34801561009157600080fd5b50610083610243565b3480156100a657600080fd5b50610083610369565b3480156100bb57600080fd5b50610083610486565b3480156100d057600080fd5b506100836105e4565b3480156100e557600080fd5b5061008361067b565b3480156100fa57600080fd5b50610083610906565b60408051600b8082528183019092526060906000908290846020820161016080388339019050509250600091505b8382101561017757600f820660010160f860020a02838381518110151561015457fe5b906020010190600160f860020a031916908160001a905350816001019150610131565b836040519080825280601f01601f1916602001820160405280156101a5578160200160208202803883390190505b5090506101c96101b482610a2a565b6020016101c085610a2a565b60200186610a2d565b6101d38382610ac8565b151561023d576040805160e560020a62461bcd02815260206004820152603060248201527f54657374202333206661696c65642e20417272617920636f6e74656e747320616044820152600080516020610b10833981519152606482015290519081900360840190fd5b50505050565b604080516048808252608082019092526060906000908290846020820161090080388339019050509250600091505b838210156102b857600f820660010160f860020a02838381518110151561029557fe5b906020010190600160f860020a031916908160001a905350816001019150610272565b836040519080825280601f01601f1916602001820160405280156102e6578160200160208202803883390190505b5090506102f56101b482610a2a565b6102ff8382610ac8565b151561023d576040805160e560020a62461bcd02815260206004820152603060248201527f54657374202335206661696c65642e20417272617920636f6e74656e747320616044820152600080516020610b10833981519152606482015290519081900360840190fd5b604080516001808252818301909252606090819083602080830190803883395050815191935060f860020a9184915060009081106103a357fe5b906020010190600160f860020a031916908160001a905350826040519080825280601f01601f1916602001820160405280156103e9578160200160208202803883390190505b50905061040d6103f882610a2a565b60200161040484610a2a565b60200185610a2d565b6104178282610ac8565b1515610481576040805160e560020a62461bcd02815260206004820152603060248201527f54657374202332206661696c65642e20417272617920636f6e74656e747320616044820152600080516020610b10833981519152606482015290519081900360840190fd5b505050565b604080516048808252608082019092526060906000908290846020820161090080388339019050509250600091505b838210156104fb57600f820660010160f860020a0283838151811015156104d857fe5b906020010190600160f860020a031916908160001a9053508160010191506104b5565b836040519080825280601f01601f191660200182016040528015610529578160200160208202803883390190505b50905061055061053882610a2a565b60200161054485610a2a565b60200160088703610a2d565b61055a8382610ac8565b151561023d576040805160e560020a62461bcd02815260206004820152604260248201527f54657374202337206661696c65642e20417272617920636f6e74656e7473206160448201527f7265206e6f74207468652073616d652e20546869732069732065787065637465606482015260f160020a61321702608482015290519081900360a40190fd5b60408051600080825260208201818152828401909352916106076103f882610a2a565b6106118282610ac8565b1515610481576040805160e560020a62461bcd02815260206004820152603060248201527f54657374202331206661696c65642e20417272617920636f6e74656e747320616044820152600080516020610b10833981519152606482015290519081900360840190fd5b6040805160ac80825260e082019092526048916064916060918291600091839183918391906020820161158080388339019050509550876040519080825280601f01601f1916602001820160405280156106df578160200160208202803883390190505b509450600093505b8784101561076057600f840660010160f860020a02858581518110151561070a57fe5b906020010190600160f860020a031916908160001a905350600f840660010160f860020a02868581518110151561073d57fe5b906020010190600160f860020a031916908160001a9053508360010193506106e7565b866040519080825280601f01601f19166020018201604052801561078e578160200160208202803883390190505b509250600091505b8684101561081157600f820660010160f860020a0283838151811015156107b957fe5b906020010190600160f860020a031916908160001a905350600f820660010160f860020a0286838a018151811015156107ee57fe5b906020010190600160f860020a031916908160001a905350836001019350610796565b8688016040519080825280601f01601f191660200182016040528015610841578160200160208202803883390190505b50905061086561085082610a2a565b60200161085c87610a2a565b6020018a610a2d565b6108888861087283610a2a565b6020010161087f85610a2a565b60200189610a2d565b6108928682610ac8565b15156108fc576040805160e560020a62461bcd02815260206004820152603060248201527f54657374202336206661696c65642e20417272617920636f6e74656e747320616044820152600080516020610b10833981519152606482015290519081900360840190fd5b5050505050505050565b60408051602080825281830190925260609060009082908480820161040080388339019050509250600091505b8382101561097957600f820660010160f860020a02838381518110151561095657fe5b906020010190600160f860020a031916908160001a905350816001019150610933565b836040519080825280601f01601f1916602001820160405280156109a7578160200160208202803883390190505b5090506109b66101b482610a2a565b6109c08382610ac8565b151561023d576040805160e560020a62461bcd02815260206004820152603060248201527f54657374202334206661696c65642e20417272617920636f6e74656e747320616044820152600080516020610b10833981519152606482015290519081900360840190fd5b90565b801515610a3957610481565b82821415610a4657610481565b6020601f820104602082066000811115610a61576001820391505b6000602083025b80821015610a83578186015182880152602082019150610a68565b6000831115610abf578260200360080260020a8287015181828204028560080260020a858b0151818282020480841780898f0152505050505050505b50505050505050565b60006020601f8451010460018101905060005b81811015610b0757602081028581015190850151808214945084610afd578392505b5050600101610adb565b50509291505056007265206e6f74207468652073616d652e00000000000000000000000000000000a165627a7a72305820d8d00dbfeb276e775b2db876e19a015819d13a4993e10f5872bcb9a260e58f370029",
				"opcodes": "PUSH1 0x80 PUSH1 0x40 MSTORE CALLVALUE DUP1 ISZERO PUSH2 0x10 JUMPI PUSH1 0x0 DUP1 REVERT JUMPDEST POP PUSH2 0xB5B DUP1 PUSH2 0x20 PUSH1 0x0 CODECOPY PUSH1 0x0 RETURN STOP PUSH1 0x80 PUSH1 0x40 MSTORE PUSH1 0x4 CALLDATASIZE LT PUSH2 0x69 JUMPI PUSH4 0xFFFFFFFF PUSH1 0xE0 PUSH1 0x2 EXP PUSH1 0x0 CALLDATALOAD DIV AND PUSH4 0xA8E8E01 DUP2 EQ PUSH2 0x6E JUMPI DUP1 PUSH4 0x1AD7BE82 EQ PUSH2 0x85 JUMPI DUP1 PUSH4 0x66E41CB7 EQ PUSH2 0x9A JUMPI DUP1 PUSH4 0x66E84D62 EQ PUSH2 0xAF JUMPI DUP1 PUSH4 0x6B59084D EQ PUSH2 0xC4 JUMPI DUP1 PUSH4 0x6F3BABC4 EQ PUSH2 0xD9 JUMPI DUP1 PUSH4 0x8F0D282D EQ PUSH2 0xEE JUMPI JUMPDEST PUSH1 0x0 DUP1 REVERT JUMPDEST CALLVALUE DUP1 ISZERO PUSH2 0x7A JUMPI PUSH1 0x0 DUP1 REVERT JUMPDEST POP PUSH2 0x83 PUSH2 0x103 JUMP JUMPDEST STOP JUMPDEST CALLVALUE DUP1 ISZERO PUSH2 0x91 JUMPI PUSH1 0x0 DUP1 REVERT JUMPDEST POP PUSH2 0x83 PUSH2 0x243 JUMP JUMPDEST CALLVALUE DUP1 ISZERO PUSH2 0xA6 JUMPI PUSH1 0x0 DUP1 REVERT JUMPDEST POP PUSH2 0x83 PUSH2 0x369 JUMP JUMPDEST CALLVALUE DUP1 ISZERO PUSH2 0xBB JUMPI PUSH1 0x0 DUP1 REVERT JUMPDEST POP PUSH2 0x83 PUSH2 0x486 JUMP JUMPDEST CALLVALUE DUP1 ISZERO PUSH2 0xD0 JUMPI PUSH1 0x0 DUP1 REVERT JUMPDEST POP PUSH2 0x83 PUSH2 0x5E4 JUMP JUMPDEST CALLVALUE DUP1 ISZERO PUSH2 0xE5 JUMPI PUSH1 0x0 DUP1 REVERT JUMPDEST POP PUSH2 0x83 PUSH2 0x67B JUMP JUMPDEST CALLVALUE DUP1 ISZERO PUSH2 0xFA JUMPI PUSH1 0x0 DUP1 REVERT JUMPDEST POP PUSH2 0x83 PUSH2 0x906 JUMP JUMPDEST PUSH1 0x40 DUP1 MLOAD PUSH1 0xB DUP1 DUP3 MSTORE DUP2 DUP4 ADD SWAP1 SWAP3 MSTORE PUSH1 0x60 SWAP1 PUSH1 0x0 SWAP1 DUP3 SWAP1 DUP5 PUSH1 0x20 DUP3 ADD PUSH2 0x160 DUP1 CODESIZE DUP4 CODECOPY ADD SWAP1 POP POP SWAP3 POP PUSH1 0x0 SWAP2 POP JUMPDEST DUP4 DUP3 LT ISZERO PUSH2 0x177 JUMPI PUSH1 0xF DUP3 MOD PUSH1 0x1 ADD PUSH1 0xF8 PUSH1 0x2 EXP MUL DUP4 DUP4 DUP2 MLOAD DUP2 LT ISZERO ISZERO PUSH2 0x154 JUMPI INVALID JUMPDEST SWAP1 PUSH1 0x20 ADD ADD SWAP1 PUSH1 0x1 PUSH1 0xF8 PUSH1 0x2 EXP SUB NOT AND SWAP1 DUP2 PUSH1 0x0 BYTE SWAP1 MSTORE8 POP DUP2 PUSH1 0x1 ADD SWAP2 POP PUSH2 0x131 JUMP JUMPDEST DUP4 PUSH1 0x40 MLOAD SWAP1 DUP1 DUP3 MSTORE DUP1 PUSH1 0x1F ADD PUSH1 0x1F NOT AND PUSH1 0x20 ADD DUP3 ADD PUSH1 0x40 MSTORE DUP1 ISZERO PUSH2 0x1A5 JUMPI DUP2 PUSH1 0x20 ADD PUSH1 0x20 DUP3 MUL DUP1 CODESIZE DUP4 CODECOPY ADD SWAP1 POP JUMPDEST POP SWAP1 POP PUSH2 0x1C9 PUSH2 0x1B4 DUP3 PUSH2 0xA2A JUMP JUMPDEST PUSH1 0x20 ADD PUSH2 0x1C0 DUP6 PUSH2 0xA2A JUMP JUMPDEST PUSH1 0x20 ADD DUP7 PUSH2 0xA2D JUMP JUMPDEST PUSH2 0x1D3 DUP4 DUP3 PUSH2 0xAC8 JUMP JUMPDEST ISZERO ISZERO PUSH2 0x23D JUMPI PUSH1 0x40 DUP1 MLOAD PUSH1 0xE5 PUSH1 0x2 EXP PUSH3 0x461BCD MUL DUP2 MSTORE PUSH1 0x20 PUSH1 0x4 DUP3 ADD MSTORE PUSH1 0x30 PUSH1 0x24 DUP3 ADD MSTORE PUSH32 0x54657374202333206661696C65642E20417272617920636F6E74656E74732061 PUSH1 0x44 DUP3 ADD MSTORE PUSH1 0x0 DUP1 MLOAD PUSH1 0x20 PUSH2 0xB10 DUP4 CODECOPY DUP2 MLOAD SWAP2 MSTORE PUSH1 0x64 DUP3 ADD MSTORE SWAP1 MLOAD SWAP1 DUP2 SWAP1 SUB PUSH1 0x84 ADD SWAP1 REVERT JUMPDEST POP POP POP POP JUMP JUMPDEST PUSH1 0x40 DUP1 MLOAD PUSH1 0x48 DUP1 DUP3 MSTORE PUSH1 0x80 DUP3 ADD SWAP1 SWAP3 MSTORE PUSH1 0x60 SWAP1 PUSH1 0x0 SWAP1 DUP3 SWAP1 DUP5 PUSH1 0x20 DUP3 ADD PUSH2 0x900 DUP1 CODESIZE DUP4 CODECOPY ADD SWAP1 POP POP SWAP3 POP PUSH1 0x0 SWAP2 POP JUMPDEST DUP4 DUP3 LT ISZERO PUSH2 0x2B8 JUMPI PUSH1 0xF DUP3 MOD PUSH1 0x1 ADD PUSH1 0xF8 PUSH1 0x2 EXP MUL DUP4 DUP4 DUP2 MLOAD DUP2 LT ISZERO ISZERO PUSH2 0x295 JUMPI INVALID JUMPDEST SWAP1 PUSH1 0x20 ADD ADD SWAP1 PUSH1 0x1 PUSH1 0xF8 PUSH1 0x2 EXP SUB NOT AND SWAP1 DUP2 PUSH1 0x0 BYTE SWAP1 MSTORE8 POP DUP2 PUSH1 0x1 ADD SWAP2 POP PUSH2 0x272 JUMP JUMPDEST DUP4 PUSH1 0x40 MLOAD SWAP1 DUP1 DUP3 MSTORE DUP1 PUSH1 0x1F ADD PUSH1 0x1F NOT AND PUSH1 0x20 ADD DUP3 ADD PUSH1 0x40 MSTORE DUP1 ISZERO PUSH2 0x2E6 JUMPI DUP2 PUSH1 0x20 ADD PUSH1 0x20 DUP3 MUL DUP1 CODESIZE DUP4 CODECOPY ADD SWAP1 POP JUMPDEST POP SWAP1 POP PUSH2 0x2F5 PUSH2 0x1B4 DUP3 PUSH2 0xA2A JUMP JUMPDEST PUSH2 0x2FF DUP4 DUP3 PUSH2 0xAC8 JUMP JUMPDEST ISZERO ISZERO PUSH2 0x23D JUMPI PUSH1 0x40 DUP1 MLOAD PUSH1 0xE5 PUSH1 0x2 EXP PUSH3 0x461BCD MUL DUP2 MSTORE PUSH1 0x20 PUSH1 0x4 DUP3 ADD MSTORE PUSH1 0x30 PUSH1 0x24 DUP3 ADD MSTORE PUSH32 0x54657374202335206661696C65642E20417272617920636F6E74656E74732061 PUSH1 0x44 DUP3 ADD MSTORE PUSH1 0x0 DUP1 MLOAD PUSH1 0x20 PUSH2 0xB10 DUP4 CODECOPY DUP2 MLOAD SWAP2 MSTORE PUSH1 0x64 DUP3 ADD MSTORE SWAP1 MLOAD SWAP1 DUP2 SWAP1 SUB PUSH1 0x84 ADD SWAP1 REVERT JUMPDEST PUSH1 0x40 DUP1 MLOAD PUSH1 0x1 DUP1 DUP3 MSTORE DUP2 DUP4 ADD SWAP1 SWAP3 MSTORE PUSH1 0x60 SWAP1 DUP2 SWAP1 DUP4 PUSH1 0x20 DUP1 DUP4 ADD SWAP1 DUP1 CODESIZE DUP4 CODECOPY POP POP DUP2 MLOAD SWAP2 SWAP4 POP PUSH1 0xF8 PUSH1 0x2 EXP SWAP2 DUP5 SWAP2 POP PUSH1 0x0 SWAP1 DUP2 LT PUSH2 0x3A3 JUMPI INVALID JUMPDEST SWAP1 PUSH1 0x20 ADD ADD SWAP1 PUSH1 0x1 PUSH1 0xF8 PUSH1 0x2 EXP SUB NOT AND SWAP1 DUP2 PUSH1 0x0 BYTE SWAP1 MSTORE8 POP DUP3 PUSH1 0x40 MLOAD SWAP1 DUP1 DUP3 MSTORE DUP1 PUSH1 0x1F ADD PUSH1 0x1F NOT AND PUSH1 0x20 ADD DUP3 ADD PUSH1 0x40 MSTORE DUP1 ISZERO PUSH2 0x3E9 JUMPI DUP2 PUSH1 0x20 ADD PUSH1 0x20 DUP3 MUL DUP1 CODESIZE DUP4 CODECOPY ADD SWAP1 POP JUMPDEST POP SWAP1 POP PUSH2 0x40D PUSH2 0x3F8 DUP3 PUSH2 0xA2A JUMP JUMPDEST PUSH1 0x20 ADD PUSH2 0x404 DUP5 PUSH2 0xA2A JUMP JUMPDEST PUSH1 0x20 ADD DUP6 PUSH2 0xA2D JUMP JUMPDEST PUSH2 0x417 DUP3 DUP3 PUSH2 0xAC8 JUMP JUMPDEST ISZERO ISZERO PUSH2 0x481 JUMPI PUSH1 0x40 DUP1 MLOAD PUSH1 0xE5 PUSH1 0x2 EXP PUSH3 0x461BCD MUL DUP2 MSTORE PUSH1 0x20 PUSH1 0x4 DUP3 ADD MSTORE PUSH1 0x30 PUSH1 0x24 DUP3 ADD MSTORE PUSH32 0x54657374202332206661696C65642E20417272617920636F6E74656E74732061 PUSH1 0x44 DUP3 ADD MSTORE PUSH1 0x0 DUP1 MLOAD PUSH1 0x20 PUSH2 0xB10 DUP4 CODECOPY DUP2 MLOAD SWAP2 MSTORE PUSH1 0x64 DUP3 ADD MSTORE SWAP1 MLOAD SWAP1 DUP2 SWAP1 SUB PUSH1 0x84 ADD SWAP1 REVERT JUMPDEST POP POP POP JUMP JUMPDEST PUSH1 0x40 DUP1 MLOAD PUSH1 0x48 DUP1 DUP3 MSTORE PUSH1 0x80 DUP3 ADD SWAP1 SWAP3 MSTORE PUSH1 0x60 SWAP1 PUSH1 0x0 SWAP1 DUP3 SWAP1 DUP5 PUSH1 0x20 DUP3 ADD PUSH2 0x900 DUP1 CODESIZE DUP4 CODECOPY ADD SWAP1 POP POP SWAP3 POP PUSH1 0x0 SWAP2 POP JUMPDEST DUP4 DUP3 LT ISZERO PUSH2 0x4FB JUMPI PUSH1 0xF DUP3 MOD PUSH1 0x1 ADD PUSH1 0xF8 PUSH1 0x2 EXP MUL DUP4 DUP4 DUP2 MLOAD DUP2 LT ISZERO ISZERO PUSH2 0x4D8 JUMPI INVALID JUMPDEST SWAP1 PUSH1 0x20 ADD ADD SWAP1 PUSH1 0x1 PUSH1 0xF8 PUSH1 0x2 EXP SUB NOT AND SWAP1 DUP2 PUSH1 0x0 BYTE SWAP1 MSTORE8 POP DUP2 PUSH1 0x1 ADD SWAP2 POP PUSH2 0x4B5 JUMP JUMPDEST DUP4 PUSH1 0x40 MLOAD SWAP1 DUP1 DUP3 MSTORE DUP1 PUSH1 0x1F ADD PUSH1 0x1F NOT AND PUSH1 0x20 ADD DUP3 ADD PUSH1 0x40 MSTORE DUP1 ISZERO PUSH2 0x529 JUMPI DUP2 PUSH1 0x20 ADD PUSH1 0x20 DUP3 MUL DUP1 CODESIZE DUP4 CODECOPY ADD SWAP1 POP JUMPDEST POP SWAP1 POP PUSH2 0x550 PUSH2 0x538 DUP3 PUSH2 0xA2A JUMP JUMPDEST PUSH1 0x20 ADD PUSH2 0x544 DUP6 PUSH2 0xA2A JUMP JUMPDEST PUSH1 0x20 ADD PUSH1 0x8 DUP8 SUB PUSH2 0xA2D JUMP JUMPDEST PUSH2 0x55A DUP4 DUP3 PUSH2 0xAC8 JUMP JUMPDEST ISZERO ISZERO PUSH2 0x23D JUMPI PUSH1 0x40 DUP1 MLOAD PUSH1 0xE5 PUSH1 0x2 EXP PUSH3 0x461BCD MUL DUP2 MSTORE PUSH1 0x20 PUSH1 0x4 DUP3 ADD MSTORE PUSH1 0x42 PUSH1 0x24 DUP3 ADD MSTORE PUSH32 0x54657374202337206661696C65642E20417272617920636F6E74656E74732061 PUSH1 0x44 DUP3 ADD MSTORE PUSH32 0x7265206E6F74207468652073616D652E20546869732069732065787065637465 PUSH1 0x64 DUP3 ADD MSTORE PUSH1 0xF1 PUSH1 0x2 EXP PUSH2 0x3217 MUL PUSH1 0x84 DUP3 ADD MSTORE SWAP1 MLOAD SWAP1 DUP2 SWAP1 SUB PUSH1 0xA4 ADD SWAP1 REVERT JUMPDEST PUSH1 0x40 DUP1 MLOAD PUSH1 0x0 DUP1 DUP3 MSTORE PUSH1 0x20 DUP3 ADD DUP2 DUP2 MSTORE DUP3 DUP5 ADD SWAP1 SWAP4 MSTORE SWAP2 PUSH2 0x607 PUSH2 0x3F8 DUP3 PUSH2 0xA2A JUMP JUMPDEST PUSH2 0x611 DUP3 DUP3 PUSH2 0xAC8 JUMP JUMPDEST ISZERO ISZERO PUSH2 0x481 JUMPI PUSH1 0x40 DUP1 MLOAD PUSH1 0xE5 PUSH1 0x2 EXP PUSH3 0x461BCD MUL DUP2 MSTORE PUSH1 0x20 PUSH1 0x4 DUP3 ADD MSTORE PUSH1 0x30 PUSH1 0x24 DUP3 ADD MSTORE PUSH32 0x54657374202331206661696C65642E20417272617920636F6E74656E74732061 PUSH1 0x44 DUP3 ADD MSTORE PUSH1 0x0 DUP1 MLOAD PUSH1 0x20 PUSH2 0xB10 DUP4 CODECOPY DUP2 MLOAD SWAP2 MSTORE PUSH1 0x64 DUP3 ADD MSTORE SWAP1 MLOAD SWAP1 DUP2 SWAP1 SUB PUSH1 0x84 ADD SWAP1 REVERT JUMPDEST PUSH1 0x40 DUP1 MLOAD PUSH1 0xAC DUP1 DUP3 MSTORE PUSH1 0xE0 DUP3 ADD SWAP1 SWAP3 MSTORE PUSH1 0x48 SWAP2 PUSH1 0x64 SWAP2 PUSH1 0x60 SWAP2 DUP3 SWAP2 PUSH1 0x0 SWAP2 DUP4 SWAP2 DUP4 SWAP2 DUP4 SWAP2 SWAP1 PUSH1 0x20 DUP3 ADD PUSH2 0x1580 DUP1 CODESIZE DUP4 CODECOPY ADD SWAP1 POP POP SWAP6 POP DUP8 PUSH1 0x40 MLOAD SWAP1 DUP1 DUP3 MSTORE DUP1 PUSH1 0x1F ADD PUSH1 0x1F NOT AND PUSH1 0x20 ADD DUP3 ADD PUSH1 0x40 MSTORE DUP1 ISZERO PUSH2 0x6DF JUMPI DUP2 PUSH1 0x20 ADD PUSH1 0x20 DUP3 MUL DUP1 CODESIZE DUP4 CODECOPY ADD SWAP1 POP JUMPDEST POP SWAP5 POP PUSH1 0x0 SWAP4 POP JUMPDEST DUP8 DUP5 LT ISZERO PUSH2 0x760 JUMPI PUSH1 0xF DUP5 MOD PUSH1 0x1 ADD PUSH1 0xF8 PUSH1 0x2 EXP MUL DUP6 DUP6 DUP2 MLOAD DUP2 LT ISZERO ISZERO PUSH2 0x70A JUMPI INVALID JUMPDEST SWAP1 PUSH1 0x20 ADD ADD SWAP1 PUSH1 0x1 PUSH1 0xF8 PUSH1 0x2 EXP SUB NOT AND SWAP1 DUP2 PUSH1 0x0 BYTE SWAP1 MSTORE8 POP PUSH1 0xF DUP5 MOD PUSH1 0x1 ADD PUSH1 0xF8 PUSH1 0x2 EXP MUL DUP7 DUP6 DUP2 MLOAD DUP2 LT ISZERO ISZERO PUSH2 0x73D JUMPI INVALID JUMPDEST SWAP1 PUSH1 0x20 ADD ADD SWAP1 PUSH1 0x1 PUSH1 0xF8 PUSH1 0x2 EXP SUB NOT AND SWAP1 DUP2 PUSH1 0x0 BYTE SWAP1 MSTORE8 POP DUP4 PUSH1 0x1 ADD SWAP4 POP PUSH2 0x6E7 JUMP JUMPDEST DUP7 PUSH1 0x40 MLOAD SWAP1 DUP1 DUP3 MSTORE DUP1 PUSH1 0x1F ADD PUSH1 0x1F NOT AND PUSH1 0x20 ADD DUP3 ADD PUSH1 0x40 MSTORE DUP1 ISZERO PUSH2 0x78E JUMPI DUP2 PUSH1 0x20 ADD PUSH1 0x20 DUP3 MUL DUP1 CODESIZE DUP4 CODECOPY ADD SWAP1 POP JUMPDEST POP SWAP3 POP PUSH1 0x0 SWAP2 POP JUMPDEST DUP7 DUP5 LT ISZERO PUSH2 0x811 JUMPI PUSH1 0xF DUP3 MOD PUSH1 0x1 ADD PUSH1 0xF8 PUSH1 0x2 EXP MUL DUP4 DUP4 DUP2 MLOAD DUP2 LT ISZERO ISZERO PUSH2 0x7B9 JUMPI INVALID JUMPDEST SWAP1 PUSH1 0x20 ADD ADD SWAP1 PUSH1 0x1 PUSH1 0xF8 PUSH1 0x2 EXP SUB NOT AND SWAP1 DUP2 PUSH1 0x0 BYTE SWAP1 MSTORE8 POP PUSH1 0xF DUP3 MOD PUSH1 0x1 ADD PUSH1 0xF8 PUSH1 0x2 EXP MUL DUP7 DUP4 DUP11 ADD DUP2 MLOAD DUP2 LT ISZERO ISZERO PUSH2 0x7EE JUMPI INVALID JUMPDEST SWAP1 PUSH1 0x20 ADD ADD SWAP1 PUSH1 0x1 PUSH1 0xF8 PUSH1 0x2 EXP SUB NOT AND SWAP1 DUP2 PUSH1 0x0 BYTE SWAP1 MSTORE8 POP DUP4 PUSH1 0x1 ADD SWAP4 POP PUSH2 0x796 JUMP JUMPDEST DUP7 DUP9 ADD PUSH1 0x40 MLOAD SWAP1 DUP1 DUP3 MSTORE DUP1 PUSH1 0x1F ADD PUSH1 0x1F NOT AND PUSH1 0x20 ADD DUP3 ADD PUSH1 0x40 MSTORE DUP1 ISZERO PUSH2 0x841 JUMPI DUP2 PUSH1 0x20 ADD PUSH1 0x20 DUP3 MUL DUP1 CODESIZE DUP4 CODECOPY ADD SWAP1 POP JUMPDEST POP SWAP1 POP PUSH2 0x865 PUSH2 0x850 DUP3 PUSH2 0xA2A JUMP JUMPDEST PUSH1 0x20 ADD PUSH2 0x85C DUP8 PUSH2 0xA2A JUMP JUMPDEST PUSH1 0x20 ADD DUP11 PUSH2 0xA2D JUMP JUMPDEST PUSH2 0x888 DUP9 PUSH2 0x872 DUP4 PUSH2 0xA2A JUMP JUMPDEST PUSH1 0x20 ADD ADD PUSH2 0x87F DUP6 PUSH2 0xA2A JUMP JUMPDEST PUSH1 0x20 ADD DUP10 PUSH2 0xA2D JUMP JUMPDEST PUSH2 0x892 DUP7 DUP3 PUSH2 0xAC8 JUMP JUMPDEST ISZERO ISZERO PUSH2 0x8FC JUMPI PUSH1 0x40 DUP1 MLOAD PUSH1 0xE5 PUSH1 0x2 EXP PUSH3 0x461BCD MUL DUP2 MSTORE PUSH1 0x20 PUSH1 0x4 DUP3 ADD MSTORE PUSH1 0x30 PUSH1 0x24 DUP3 ADD MSTORE PUSH32 0x54657374202336206661696C65642E20417272617920636F6E74656E74732061 PUSH1 0x44 DUP3 ADD MSTORE PUSH1 0x0 DUP1 MLOAD PUSH1 0x20 PUSH2 0xB10 DUP4 CODECOPY DUP2 MLOAD SWAP2 MSTORE PUSH1 0x64 DUP3 ADD MSTORE SWAP1 MLOAD SWAP1 DUP2 SWAP1 SUB PUSH1 0x84 ADD SWAP1 REVERT JUMPDEST POP POP POP POP POP POP POP POP JUMP JUMPDEST PUSH1 0x40 DUP1 MLOAD PUSH1 0x20 DUP1 DUP3 MSTORE DUP2 DUP4 ADD SWAP1 SWAP3 MSTORE PUSH1 0x60 SWAP1 PUSH1 0x0 SWAP1 DUP3 SWAP1 DUP5 DUP1 DUP3 ADD PUSH2 0x400 DUP1 CODESIZE DUP4 CODECOPY ADD SWAP1 POP POP SWAP3 POP PUSH1 0x0 SWAP2 POP JUMPDEST DUP4 DUP3 LT ISZERO PUSH2 0x979 JUMPI PUSH1 0xF DUP3 MOD PUSH1 0x1 ADD PUSH1 0xF8 PUSH1 0x2 EXP MUL DUP4 DUP4 DUP2 MLOAD DUP2 LT ISZERO ISZERO PUSH2 0x956 JUMPI INVALID JUMPDEST SWAP1 PUSH1 0x20 ADD ADD SWAP1 PUSH1 0x1 PUSH1 0xF8 PUSH1 0x2 EXP SUB NOT AND SWAP1 DUP2 PUSH1 0x0 BYTE SWAP1 MSTORE8 POP DUP2 PUSH1 0x1 ADD SWAP2 POP PUSH2 0x933 JUMP JUMPDEST DUP4 PUSH1 0x40 MLOAD SWAP1 DUP1 DUP3 MSTORE DUP1 PUSH1 0x1F ADD PUSH1 0x1F NOT AND PUSH1 0x20 ADD DUP3 ADD PUSH1 0x40 MSTORE DUP1 ISZERO PUSH2 0x9A7 JUMPI DUP2 PUSH1 0x20 ADD PUSH1 0x20 DUP3 MUL DUP1 CODESIZE DUP4 CODECOPY ADD SWAP1 POP JUMPDEST POP SWAP1 POP PUSH2 0x9B6 PUSH2 0x1B4 DUP3 PUSH2 0xA2A JUMP JUMPDEST PUSH2 0x9C0 DUP4 DUP3 PUSH2 0xAC8 JUMP JUMPDEST ISZERO ISZERO PUSH2 0x23D JUMPI PUSH1 0x40 DUP1 MLOAD PUSH1 0xE5 PUSH1 0x2 EXP PUSH3 0x461BCD MUL DUP2 MSTORE PUSH1 0x20 PUSH1 0x4 DUP3 ADD MSTORE PUSH1 0x30 PUSH1 0x24 DUP3 ADD MSTORE PUSH32 0x54657374202334206661696C65642E20417272617920636F6E74656E74732061 PUSH1 0x44 DUP3 ADD MSTORE PUSH1 0x0 DUP1 MLOAD PUSH1 0x20 PUSH2 0xB10 DUP4 CODECOPY DUP2 MLOAD SWAP2 MSTORE PUSH1 0x64 DUP3 ADD MSTORE SWAP1 MLOAD SWAP1 DUP2 SWAP1 SUB PUSH1 0x84 ADD SWAP1 REVERT JUMPDEST SWAP1 JUMP JUMPDEST DUP1 ISZERO ISZERO PUSH2 0xA39 JUMPI PUSH2 0x481 JUMP JUMPDEST DUP3 DUP3 EQ ISZERO PUSH2 0xA46 JUMPI PUSH2 0x481 JUMP JUMPDEST PUSH1 0x20 PUSH1 0x1F DUP3 ADD DIV PUSH1 0x20 DUP3 MOD PUSH1 0x0 DUP2 GT ISZERO PUSH2 0xA61 JUMPI PUSH1 0x1 DUP3 SUB SWAP2 POP JUMPDEST PUSH1 0x0 PUSH1 0x20 DUP4 MUL JUMPDEST DUP1 DUP3 LT ISZERO PUSH2 0xA83 JUMPI DUP2 DUP7 ADD MLOAD DUP3 DUP9 ADD MSTORE PUSH1 0x20 DUP3 ADD SWAP2 POP PUSH2 0xA68 JUMP JUMPDEST PUSH1 0x0 DUP4 GT ISZERO PUSH2 0xABF JUMPI DUP3 PUSH1 0x20 SUB PUSH1 0x8 MUL PUSH1 0x2 EXP DUP3 DUP8 ADD MLOAD DUP2 DUP3 DUP3 DIV MUL DUP6 PUSH1 0x8 MUL PUSH1 0x2 EXP DUP6 DUP12 ADD MLOAD DUP2 DUP3 DUP3 MUL DIV DUP1 DUP5 OR DUP1 DUP10 DUP16 ADD MSTORE POP POP POP POP POP POP POP JUMPDEST POP POP POP POP POP POP POP JUMP JUMPDEST PUSH1 0x0 PUSH1 0x20 PUSH1 0x1F DUP5 MLOAD ADD DIV PUSH1 0x1 DUP2 ADD SWAP1 POP PUSH1 0x0 JUMPDEST DUP2 DUP2 LT ISZERO PUSH2 0xB07 JUMPI PUSH1 0x20 DUP2 MUL DUP6 DUP2 ADD MLOAD SWAP1 DUP6 ADD MLOAD DUP1 DUP3 EQ SWAP5 POP DUP5 PUSH2 0xAFD JUMPI DUP4 SWAP3 POP JUMPDEST POP POP PUSH1 0x1 ADD PUSH2 0xADB JUMP JUMPDEST POP POP SWAP3 SWAP2 POP POP JUMP STOP PUSH19 0x65206E6F74207468652073616D652E00000000 STOP STOP STOP STOP STOP STOP STOP STOP STOP STOP STOP STOP LOG1 PUSH6 0x627A7A723058 KECCAK256 0xd8 0xd0 0xd 0xbf 0xeb 0x27 PUSH15 0x775B2DB876E19A015819D13A4993E1 0xf PC PUSH19 0xBCB9A260E58F37002900000000000000000000 "
			}
		}
	},
	"sourceTreeHashHex": "0x117c104f62569a3164075c2d2922f31a577284e9b3583e1074a3fe56e45ee6a4",
	"compiler": {
		"name": "solc",
		"version": "0.4.24",
		"settings": {
			"optimizer": {
				"enabled": true,
				"runs": 0
			},
			"outputSelection": {
				"*": {
					"*": [
						"abi",
						"evm.bytecode.object",
						"evm.bytecode.sourceMap",
						"evm.deployedBytecode.object",
						"evm.deployedBytecode.sourceMap"
					]
				}
			}
		}
	}
}