{
	"schemaVersion": "2.0.0",
	"contractName": "TestLibMem",
	"compilerOutput": {
		"abi": [
			{
				"constant": true,
				"inputs": [
					{
						"name": "mem",
						"type": "bytes"
					},
					{
						"name": "dest",
						"type": "uint256"
					},
					{
						"name": "source",
						"type": "uint256"
					},
					{
						"name": "length",
						"type": "uint256"
					}
				],
				"name": "testMemcpy",
				"outputs": [
					{
						"name": "",
						"type": "bytes"
					}
				],
				"payable": false,
				"stateMutability": "pure",
				"type": "function"
			}
		],
		"evm": {
			"bytecode": {
				"linkReferences": {},
				"object": "0x608060405234801561001057600080fd5b50610242806100206000396000f3006080604052600436106100405763ffffffff7c010000000000000000000000000000000000000000000000000000000060003504166378bbae9b8114610045575b600080fd5b34801561005157600080fd5b506040805160206004803580820135601f81018490048402850184019095528484526100ab943694929360249392840191908190840183828082843750949750508435955050506020830135926040013591506101209050565b6040805160208082528351818301528351919283929083019185019080838360005b838110156100e55781810151838201526020016100cd565b50505050905090810190601f1680156101125780820380516001836020036101000a031916815260200191505b509250505060405180910390f35b6060600085518385011115151561013657600080fd5b8551858401111561014657600080fd5b61014f8661016d565b602001905061016385820185830185610170565b5093949350505050565b90565b602081101561019a576001816020036101000a038019835116818551168082178652505050610211565b828214156101a757610211565b828211156101e15760208103905080820181840181515b828510156101d95784518652602095860195909401936101be565b905250610211565b60208103905080820181840183515b8186121561020c5782518252601f1992830192909101906101f0565b855250505b5050505600a165627a7a72305820c123e9ee52b87d4a19acf13d9613624dfe81cfc7c8084fd880c20c27a05531490029",
				"opcodes": "PUSH1 0x80 PUSH1 0x40 MSTORE CALLVALUE DUP1 ISZERO PUSH2 0x10 JUMPI PUSH1 0x0 DUP1 REVERT JUMPDEST POP PUSH2 0x242 DUP1 PUSH2 0x20 PUSH1 0x0 CODECOPY PUSH1 0x0 RETURN STOP PUSH1 0x80 PUSH1 0x40 MSTORE PUSH1 0x4 CALLDATASIZE LT PUSH2 0x40 JUMPI PUSH4 0xFFFFFFFF PUSH29 0x100000000000000000000000000000000000000000000000000000000 PUSH1 0x0 CALLDATALOAD DIV AND PUSH4 0x78BBAE9B DUP2 EQ PUSH2 0x45 JUMPI JUMPDEST PUSH1 0x0 DUP1 REVERT JUMPDEST CALLVALUE DUP1 ISZERO PUSH2 0x51 JUMPI PUSH1 0x0 DUP1 REVERT JUMPDEST POP PUSH1 0x40 DUP1 MLOAD PUSH1 0x20 PUSH1 0x4 DUP1 CALLDATALOAD DUP1 DUP3 ADD CALLDATALOAD PUSH1 0x1F DUP2 ADD DUP5 SWAP1 DIV DUP5 MUL DUP6 ADD DUP5 ADD SWAP1 SWAP6 MSTORE DUP5 DUP5 MSTORE PUSH2 0xAB SWAP5 CALLDATASIZE SWAP5 SWAP3 SWAP4 PUSH1 0x24 SWAP4 SWAP3 DUP5 ADD SWAP2 SWAP1 DUP2 SWAP1 DUP5 ADD DUP4 DUP3 DUP1 DUP3 DUP5 CALLDATACOPY POP SWAP5 SWAP8 POP POP DUP5 CALLDATALOAD SWAP6 POP POP POP PUSH1 0x20 DUP4 ADD CALLDATALOAD SWAP3 PUSH1 0x40 ADD CALLDATALOAD SWAP2 POP PUSH2 0x120 SWAP1 POP JUMP JUMPDEST PUSH1 0x40 DUP1 MLOAD PUSH1 0x20 DUP1 DUP3 MSTORE DUP4 MLOAD DUP2 DUP4 ADD MSTORE DUP4 MLOAD SWAP2 SWAP3 DUP4 SWAP3 SWAP1 DUP4 ADD SWAP2 DUP6 ADD SWAP1 DUP1 DUP4 DUP4 PUSH1 0x0 JUMPDEST DUP4 DUP2 LT ISZERO PUSH2 0xE5 JUMPI DUP2 DUP2 ADD MLOAD DUP4 DUP3 ADD MSTORE PUSH1 0x20 ADD PUSH2 0xCD JUMP JUMPDEST POP POP POP POP SWAP1 POP SWAP1 DUP2 ADD SWAP1 PUSH1 0x1F AND DUP1 ISZERO PUSH2 0x112 JUMPI DUP1 DUP3 SUB DUP1 MLOAD PUSH1 0x1 DUP4 PUSH1 0x20 SUB PUSH2 0x100 EXP SUB NOT AND DUP2 MSTORE PUSH1 0x20 ADD SWAP2 POP JUMPDEST POP SWAP3 POP POP POP PUSH1 0x40 MLOAD DUP1 SWAP2 SUB SWAP1 RETURN JUMPDEST PUSH1 0x60 PUSH1 0x0 DUP6 MLOAD DUP4 DUP6 ADD GT ISZERO ISZERO ISZERO PUSH2 0x136 JUMPI PUSH1 0x0 DUP1 REVERT JUMPDEST DUP6 MLOAD DUP6 DUP5 ADD GT ISZERO PUSH2 0x146 JUMPI PUSH1 0x0 DUP1 REVERT JUMPDEST PUSH2 0x14F DUP7 PUSH2 0x16D JUMP JUMPDEST PUSH1 0x20 ADD SWAP1 POP PUSH2 0x163 DUP6 DUP3 ADD DUP6 DUP4 ADD DUP6 PUSH2 0x170 JUMP JUMPDEST POP SWAP4 SWAP5 SWAP4 POP POP POP POP JUMP JUMPDEST SWAP1 JUMP JUMPDEST PUSH1 0x20 DUP2 LT ISZERO PUSH2 0x19A JUMPI PUSH1 0x1 DUP2 PUSH1 0x20 SUB PUSH2 0x100 EXP SUB DUP1 NOT DUP4 MLOAD AND DUP2 DUP6 MLOAD AND DUP1 DUP3 OR DUP7 MSTORE POP POP POP PUSH2 0x211 JUMP JUMPDEST DUP3 DUP3 EQ ISZERO PUSH2 0x1A7 JUMPI PUSH2 0x211 JUMP JUMPDEST DUP3 DUP3 GT ISZERO PUSH2 0x1E1 JUMPI PUSH1 0x20 DUP2 SUB SWAP1 POP DUP1 DUP3 ADD DUP2 DUP5 ADD DUP2 MLOAD JUMPDEST DUP3 DUP6 LT ISZERO PUSH2 0x1D9 JUMPI DUP5 MLOAD DUP7 MSTORE PUSH1 0x20 SWAP6 DUP7 ADD SWAP6 SWAP1 SWAP5 ADD SWAP4 PUSH2 0x1BE JUMP JUMPDEST SWAP1 MSTORE POP PUSH2 0x211 JUMP JUMPDEST PUSH1 0x20 DUP2 SUB SWAP1 POP DUP1 DUP3 ADD DUP2 DUP5 ADD DUP4 MLOAD JUMPDEST DUP2 DUP7 SLT ISZERO PUSH2 0x20C JUMPI DUP3 MLOAD DUP3 MSTORE PUSH1 0x1F NOT SWAP3 DUP4 ADD SWAP3 SWAP1 SWAP2 ADD SWAP1 PUSH2 0x1F0 JUMP JUMPDEST DUP6 MSTORE POP POP JUMPDEST POP POP POP JUMP STOP LOG1 PUSH6 0x627A7A723058 KECCAK256 0xc1 0x23 0xe9 0xee MSTORE 0xb8 PUSH30 0x4A19ACF13D9613624DFE81CFC7C8084FD880C20C27A05531490029000000 "
			}
		}
	},
	"sourceTreeHashHex": "0x14fbc5358b631676094b7448a680cd6c5c3e577c3db52fd62e0d97bdc54a1d4c",
	"compiler": {
		"name": "solc",
		"version": "soljson-v0.4.24+commit.e67f0147.js",
		"settings": {
			"optimizer": {
				"enabled": true,
				"runs": 200
			},
			"outputSelection": {
				"*": {
					"*": [
						"abi",
						"evm.bytecode.object",
						"evm.bytecode.sourceMap",
						"evm.deployedBytecode.object",
						"evm.deployedBytecode.sourceMap"
					]
				}
			}
		}
	}
}