{
	"schemaVersion": "2.0.0",
	"contractName": "TestSignatureValidator",
	"compilerOutput": {
		"abi": [
			{
				"constant": false,
				"inputs": [
					{
						"name": "hash",
						"type": "bytes32"
					},
					{
						"name": "signer",
						"type": "address"
					},
					{
						"name": "signature",
						"type": "bytes"
					}
				],
				"name": "preSign",
				"outputs": [],
				"payable": false,
				"stateMutability": "nonpayable",
				"type": "function"
			},
			{
				"constant": true,
				"inputs": [
					{
						"name": "",
						"type": "bytes32"
					}
				],
				"name": "transactions",
				"outputs": [
					{
						"name": "",
						"type": "bool"
					}
				],
				"payable": false,
				"stateMutability": "view",
				"type": "function"
			},
			{
				"constant": false,
				"inputs": [
					{
						"name": "validator",
						"type": "address"
					},
					{
						"name": "approval",
						"type": "bool"
					}
				],
				"name": "setSignatureValidatorApproval",
				"outputs": [],
				"payable": false,
				"stateMutability": "nonpayable",
				"type": "function"
			},
			{
				"constant": true,
				"inputs": [
					{
						"name": "",
						"type": "address"
					},
					{
						"name": "",
						"type": "address"
					}
				],
				"name": "allowedValidators",
				"outputs": [
					{
						"name": "",
						"type": "bool"
					}
				],
				"payable": false,
				"stateMutability": "view",
				"type": "function"
			},
			{
				"constant": true,
				"inputs": [
					{
						"name": "",
						"type": "bytes32"
					},
					{
						"name": "",
						"type": "address"
					}
				],
				"name": "preSigned",
				"outputs": [
					{
						"name": "",
						"type": "bool"
					}
				],
				"payable": false,
				"stateMutability": "view",
				"type": "function"
			},
			{
				"constant": true,
				"inputs": [
					{
						"name": "hash",
						"type": "bytes32"
					},
					{
						"name": "signer",
						"type": "address"
					},
					{
						"name": "signature",
						"type": "bytes"
					}
				],
				"name": "isValidSignature",
				"outputs": [
					{
						"name": "isValid",
						"type": "bool"
					}
				],
				"payable": false,
				"stateMutability": "view",
				"type": "function"
			},
			{
				"constant": true,
				"inputs": [
					{
						"name": "hash",
						"type": "bytes32"
					},
					{
						"name": "signer",
						"type": "address"
					},
					{
						"name": "signature",
						"type": "bytes"
					}
				],
				"name": "publicIsValidSignature",
				"outputs": [
					{
						"name": "isValid",
						"type": "bool"
					}
				],
				"payable": false,
				"stateMutability": "view",
				"type": "function"
			},
			{
				"constant": false,
				"inputs": [
					{
						"name": "salt",
						"type": "uint256"
					},
					{
						"name": "signer",
						"type": "address"
					},
					{
						"name": "data",
						"type": "bytes"
					},
					{
						"name": "signature",
						"type": "bytes"
					}
				],
				"name": "executeTransaction",
				"outputs": [],
				"payable": false,
				"stateMutability": "nonpayable",
				"type": "function"
			},
			{
				"constant": true,
				"inputs": [],
				"name": "currentContextAddress",
				"outputs": [
					{
						"name": "",
						"type": "address"
					}
				],
				"payable": false,
				"stateMutability": "view",
				"type": "function"
			}
		],
		"evm": {
			"bytecode": {
				"linkReferences": {},
				"object": "0x608060405234801561001057600080fd5b50611624806100206000396000f3006080604052600436106100985763ffffffff7c01000000000000000000000000000000000000000000000000000000006000350416633683ef8e811461009d578063642f2eaf146100bf57806377fcce68146100f55780637b8e35141461011557806382c174d0146101355780639363470214610155578063abba41cc14610175578063bfc8bfce14610195578063eea086ba146101b5575b600080fd5b3480156100a957600080fd5b506100bd6100b83660046112ba565b6101d7565b005b3480156100cb57600080fd5b506100df6100da36600461127d565b6102a3565b6040516100ec919061148d565b60405180910390f35b34801561010157600080fd5b506100bd61011036600461122f565b6102b8565b34801561012157600080fd5b506100df6101303660046111f5565b6102fd565b34801561014157600080fd5b506100df61015036600461129b565b61031d565b34801561016157600080fd5b506100df610170366004611322565b61033a565b34801561018157600080fd5b506100df610190366004611322565b610b12565b3480156101a157600080fd5b506100bd6101b0366004611387565b610b27565b3480156101c157600080fd5b506101ca610e59565b6040516100ec919061147f565b610212848484848080601f0160208091040260200160405190810160405280939291908181526020018383808284375061033a945050505050565b60408051808201909152601181527f494e56414c49445f5349474e415455524500000000000000000000000000000060208201529015156102725760405160e560020a62461bcd0281526004016102699190611526565b60405180910390fd5b505050600091825260208281526040808420600160a060020a0390931684529190529020805460ff19166001179055565b60026020526000908152604090205460ff1681565b60006102c2610e68565b600160a060020a03908116600090815260016020908152604080832096909316825294909452909220805460ff191691151591909117905550565b600160209081526000928352604080842090915290825290205460ff1681565b600060208181529281526040808220909352908152205460ff1681565b6000806000806000806000808851116040805190810160405280601e81526020017f4c454e4754485f475245415445525f5448414e5f305f524551554952454400008152509015156103a25760405160e560020a62461bcd0281526004016102699190611526565b506103ac88610e97565b60f860020a900460ff1660088111156103c157fe5b955060008660088111156103d157fe5b141561042557604080518082018252601181527f5349474e41545552455f494c4c4547414c0000000000000000000000000000006020820152905160e560020a62461bcd0281526102699190600401611526565b600186600881111561043357fe5b141561049b57875160408051808201909152601181527f4c454e4754485f315f5245515549524544000000000000000000000000000000602082015290156104915760405160e560020a62461bcd0281526004016102699190611526565b5060009650610b05565b60028660088111156104a957fe5b14156105b157875160408051808201909152601281527f4c454e4754485f36365f524551554952454400000000000000000000000000006020820152906041146105095760405160e560020a62461bcd0281526004016102699190611526565b5087600081518110151561051957fe5b016020015160f860020a908190048102049450610537886001610f4c565b9350610544886021610f4c565b925060018a8686866040516000815260200160405260405161056994939291906114f1565b60206040516020810390808403906000865af115801561058d573d6000803e3d6000fd5b5050604051601f190151600160a060020a038b81169082161498509250610b059050565b60038660088111156105bf57fe5b141561076b57875160408051808201909152601281527f4c454e4754485f36365f5245515549524544000000000000000000000000000060208201529060411461061f5760405160e560020a62461bcd0281526004016102699190611526565b5087600081518110151561062f57fe5b016020015160f860020a90819004810204945061064d886001610f4c565b935061065a886021610f4c565b925060016040805190810160405280601c81526020017f19457468657265756d205369676e6564204d6573736167653a0a3332000000008152508b6040516020018083805190602001908083835b602083106106c75780518252601f1990920191602091820191016106a8565b51815160209384036101000a600019018019909216911617905292019384525060408051808503815293820190819052835193945092839250908401908083835b602083106107275780518252601f199092019160209182019101610708565b51815160209384036101000a6000190180199092169116179052604080519290940182900382206000835291019283905261056994509250899189915088906114f1565b600486600881111561077957fe5b14156107eb57875160408051808201909152601181527f4c454e4754485f315f5245515549524544000000000000000000000000000000602082015290156107d75760405160e560020a62461bcd0281526004016102699190611526565b50600160a060020a03891633149650610b05565b60058660088111156107f957fe5b141561089f576040517f1626ba7e000000000000000000000000000000000000000000000000000000008152600160a060020a038a1690631626ba7e90610846908d908c906004016114d1565b602060405180830381600087803b15801561086057600080fd5b505af1158015610874573d6000803e3d6000fd5b505050506040513d601f19601f82011682018060405250610898919081019061125f565b9650610b05565b60068660088111156108ad57fe5b1415610940576108bc88610fe0565b600160a060020a03808b1660009081526001602090815260408083209385168352929052205490915060ff1615156108f75760009650610b05565b6040517f93634702000000000000000000000000000000000000000000000000000000008152600160a060020a03821690639363470290610846908d908d908d9060040161149b565b600786600881111561094e57fe5b141561097f5760008a815260208181526040808320600160a060020a038d16845290915290205460ff169650610b05565b600886600881111561098d57fe5b1415610a7857875160408051808201909152601281527f4c454e4754485f36365f524551554952454400000000000000000000000000006020820152906041146109ed5760405160e560020a62461bcd0281526004016102699190611526565b508760008151811015156109fd57fe5b016020015160f860020a908190048102049450610a1b886001610f4c565b9350610a28886021610f4c565b604080518082018252601b8082527f19457468657265756d205369676e6564204d6573736167653a0a4100000000006020808401918252935194975060019492938f9301918291908083836106c7565b6007866008811115610a8657fe5b1415610ab75760008a815260208181526040808320600160a060020a038d16845290915290205460ff169650610b05565b604080518082018252601581527f5349474e41545552455f554e535550504f5254454400000000000000000000006020820152905160e560020a62461bcd0281526102699190600401611526565b5050505050509392505050565b6000610b1f84848461033a565b949350505050565b60035460408051808201909152601281527f5245454e5452414e43595f494c4c4547414c00000000000000000000000000006020820152600091600160a060020a031615610b8b5760405160e560020a62461bcd0281526004016102699190611526565b5030868887876040516020018086600160a060020a0316600160a060020a03166c0100000000000000000000000002815260140185600160a060020a0316600160a060020a03166c010000000000000000000000000281526014018481526020018383808284378201915050955050505050506040516020818303038152906040526040518082805190602001908083835b60208310610c3c5780518252601f199092019160209182019101610c1d565b51815160209384036101000a60001901801990921691161790526040805192909401829003822060008181526002835285902054838601909552600f83527f494e56414c49445f54585f48415348000000000000000000000000000000000091830191909152955093505060ff16159050610ccd5760405160e560020a62461bcd0281526004016102699190611526565b50600160a060020a0386163314610d9a57610d19818785858080601f0160208091040260200160405190810160405280939291908181526020018383808284375061033a945050505050565b60408051808201909152601481527f494e56414c49445f54585f5349474e41545552450000000000000000000000006020820152901515610d705760405160e560020a62461bcd0281526004016102699190611526565b506003805473ffffffffffffffffffffffffffffffffffffffff1916600160a060020a0388161790555b60008181526002602052604090819020805460ff191660011790555130908690869080838380828437820191505092505050600060405180830381855af460408051808201909152601081527f4641494c45445f455845435554494f4e000000000000000000000000000000006020820152925015159050610e325760405160e560020a62461bcd0281526004016102699190611526565b50506003805473ffffffffffffffffffffffffffffffffffffffff19169055505050505050565b600354600160a060020a031681565b6003546000908190600160a060020a031615610e8f57600354600160a060020a0316610e91565b335b92915050565b600080825111606060405190810160405280602181526020017f475245415445525f5448414e5f5a45524f5f4c454e4754485f5245515549524581526020017f4400000000000000000000000000000000000000000000000000000000000000815250901515610f1d5760405160e560020a62461bcd0281526004016102699190611526565b50815182906000198101908110610f3057fe5b01602001518251600019019092525060f860020a908190040290565b60008160200183511015606060405190810160405280602681526020017f475245415445525f4f525f455155414c5f544f5f33325f4c454e4754485f524581526020017f5155495245440000000000000000000000000000000000000000000000000000815250901515610fd65760405160e560020a62461bcd0281526004016102699190611526565b5050016020015190565b6000601482511015606060405190810160405280602681526020017f475245415445525f4f525f455155414c5f544f5f32305f4c454e4754485f524581526020017f51554952454400000000000000000000000000000000000000000000000000008152509015156110685760405160e560020a62461bcd0281526004016102699190611526565b50611077826014845103611084565b8251601319019092525090565b60008160140183511015606060405190810160405280602681526020017f475245415445525f4f525f455155414c5f544f5f32305f4c454e4754485f524581526020017f515549524544000000000000000000000000000000000000000000000000000081525090151561110e5760405160e560020a62461bcd0281526004016102699190611526565b50500160140151600160a060020a031690565b600061112d823561158a565b9392505050565b600061112d8235611596565b600061112d8251611596565b600061112d823561159b565b600080601f8301841361116a57600080fd5b50813567ffffffffffffffff81111561118257600080fd5b60208301915083600182028301111561119a57600080fd5b9250929050565b6000601f820183136111b257600080fd5b81356111c56111c08261155e565b611537565b915080825260208301602083018583830111156111e157600080fd5b6111ec8382846115a4565b50505092915050565b6000806040838503121561120857600080fd5b60006112148585611121565b925050602061122585828601611121565b9150509250929050565b6000806040838503121561124257600080fd5b600061124e8585611121565b925050602061122585828601611134565b60006020828403121561127157600080fd5b6000610b1f8484611140565b60006020828403121561128f57600080fd5b6000610b1f848461114c565b600080604083850312156112ae57600080fd5b6000611214858561114c565b600080600080606085870312156112d057600080fd5b60006112dc878761114c565b94505060206112ed87828801611121565b935050604085013567ffffffffffffffff81111561130a57600080fd5b61131687828801611158565b95989497509550505050565b60008060006060848603121561133757600080fd5b6000611343868661114c565b935050602061135486828701611121565b925050604084013567ffffffffffffffff81111561137157600080fd5b61137d868287016111a1565b9150509250925092565b600080600080600080608087890312156113a057600080fd5b60006113ac898961114c565b96505060206113bd89828a01611121565b955050604087013567ffffffffffffffff8111156113da57600080fd5b6113e689828a01611158565b9450945050606087013567ffffffffffffffff81111561140557600080fd5b61141189828a01611158565b92509250509295509295509295565b6114298161158a565b82525050565b61142981611596565b6114298161159b565b600061144c82611586565b8084526114608160208601602086016115b0565b611469816115e0565b9093016020019392505050565b6114298161159e565b60208101610e918284611420565b60208101610e91828461142f565b606081016114a98286611438565b6114b66020830185611420565b81810360408301526114c88184611441565b95945050505050565b604081016114df8285611438565b8181036020830152610b1f8184611441565b608081016114ff8287611438565b61150c6020830186611476565b6115196040830185611438565b6114c86060830184611438565b6020808252810161112d8184611441565b60405181810167ffffffffffffffff8111828210171561155657600080fd5b604052919050565b600067ffffffffffffffff82111561157557600080fd5b506020601f91909101601f19160190565b5190565b600160a060020a031690565b151590565b90565b60ff1690565b82818337506000910152565b60005b838110156115cb5781810151838201526020016115b3565b838111156115da576000848401525b50505050565b601f01601f1916905600a265627a7a723058204abd33daf80ad2d2d4eec305c76ac9a479ed80ebc3a5671baa990a732a53a98f6c6578706572696d656e74616cf50037",
				"opcodes": "PUSH1 0x80 PUSH1 0x40 MSTORE CALLVALUE DUP1 ISZERO PUSH2 0x10 JUMPI PUSH1 0x0 DUP1 REVERT JUMPDEST POP PUSH2 0x1624 DUP1 PUSH2 0x20 PUSH1 0x0 CODECOPY PUSH1 0x0 RETURN STOP PUSH1 0x80 PUSH1 0x40 MSTORE PUSH1 0x4 CALLDATASIZE LT PUSH2 0x98 JUMPI PUSH4 0xFFFFFFFF PUSH29 0x100000000000000000000000000000000000000000000000000000000 PUSH1 0x0 CALLDATALOAD DIV AND PUSH4 0x3683EF8E DUP2 EQ PUSH2 0x9D JUMPI DUP1 PUSH4 0x642F2EAF EQ PUSH2 0xBF JUMPI DUP1 PUSH4 0x77FCCE68 EQ PUSH2 0xF5 JUMPI DUP1 PUSH4 0x7B8E3514 EQ PUSH2 0x115 JUMPI DUP1 PUSH4 0x82C174D0 EQ PUSH2 0x135 JUMPI DUP1 PUSH4 0x93634702 EQ PUSH2 0x155 JUMPI DUP1 PUSH4 0xABBA41CC EQ PUSH2 0x175 JUMPI DUP1 PUSH4 0xBFC8BFCE EQ PUSH2 0x195 JUMPI DUP1 PUSH4 0xEEA086BA EQ PUSH2 0x1B5 JUMPI JUMPDEST PUSH1 0x0 DUP1 REVERT JUMPDEST CALLVALUE DUP1 ISZERO PUSH2 0xA9 JUMPI PUSH1 0x0 DUP1 REVERT JUMPDEST POP PUSH2 0xBD PUSH2 0xB8 CALLDATASIZE PUSH1 0x4 PUSH2 0x12BA JUMP JUMPDEST PUSH2 0x1D7 JUMP JUMPDEST STOP JUMPDEST CALLVALUE DUP1 ISZERO PUSH2 0xCB JUMPI PUSH1 0x0 DUP1 REVERT JUMPDEST POP PUSH2 0xDF PUSH2 0xDA CALLDATASIZE PUSH1 0x4 PUSH2 0x127D JUMP JUMPDEST PUSH2 0x2A3 JUMP JUMPDEST PUSH1 0x40 MLOAD PUSH2 0xEC SWAP2 SWAP1 PUSH2 0x148D JUMP JUMPDEST PUSH1 0x40 MLOAD DUP1 SWAP2 SUB SWAP1 RETURN JUMPDEST CALLVALUE DUP1 ISZERO PUSH2 0x101 JUMPI PUSH1 0x0 DUP1 REVERT JUMPDEST POP PUSH2 0xBD PUSH2 0x110 CALLDATASIZE PUSH1 0x4 PUSH2 0x122F JUMP JUMPDEST PUSH2 0x2B8 JUMP JUMPDEST CALLVALUE DUP1 ISZERO PUSH2 0x121 JUMPI PUSH1 0x0 DUP1 REVERT JUMPDEST POP PUSH2 0xDF PUSH2 0x130 CALLDATASIZE PUSH1 0x4 PUSH2 0x11F5 JUMP JUMPDEST PUSH2 0x2FD JUMP JUMPDEST CALLVALUE DUP1 ISZERO PUSH2 0x141 JUMPI PUSH1 0x0 DUP1 REVERT JUMPDEST POP PUSH2 0xDF PUSH2 0x150 CALLDATASIZE PUSH1 0x4 PUSH2 0x129B JUMP JUMPDEST PUSH2 0x31D JUMP JUMPDEST CALLVALUE DUP1 ISZERO PUSH2 0x161 JUMPI PUSH1 0x0 DUP1 REVERT JUMPDEST POP PUSH2 0xDF PUSH2 0x170 CALLDATASIZE PUSH1 0x4 PUSH2 0x1322 JUMP JUMPDEST PUSH2 0x33A JUMP JUMPDEST CALLVALUE DUP1 ISZERO PUSH2 0x181 JUMPI PUSH1 0x0 DUP1 REVERT JUMPDEST POP PUSH2 0xDF PUSH2 0x190 CALLDATASIZE PUSH1 0x4 PUSH2 0x1322 JUMP JUMPDEST PUSH2 0xB12 JUMP JUMPDEST CALLVALUE DUP1 ISZERO PUSH2 0x1A1 JUMPI PUSH1 0x0 DUP1 REVERT JUMPDEST POP PUSH2 0xBD PUSH2 0x1B0 CALLDATASIZE PUSH1 0x4 PUSH2 0x1387 JUMP JUMPDEST PUSH2 0xB27 JUMP JUMPDEST CALLVALUE DUP1 ISZERO PUSH2 0x1C1 JUMPI PUSH1 0x0 DUP1 REVERT JUMPDEST POP PUSH2 0x1CA PUSH2 0xE59 JUMP JUMPDEST PUSH1 0x40 MLOAD PUSH2 0xEC SWAP2 SWAP1 PUSH2 0x147F JUMP JUMPDEST PUSH2 0x212 DUP5 DUP5 DUP5 DUP5 DUP1 DUP1 PUSH1 0x1F ADD PUSH1 0x20 DUP1 SWAP2 DIV MUL PUSH1 0x20 ADD PUSH1 0x40 MLOAD SWAP1 DUP2 ADD PUSH1 0x40 MSTORE DUP1 SWAP4 SWAP3 SWAP2 SWAP1 DUP2 DUP2 MSTORE PUSH1 0x20 ADD DUP4 DUP4 DUP1 DUP3 DUP5 CALLDATACOPY POP PUSH2 0x33A SWAP5 POP POP POP POP POP JUMP JUMPDEST PUSH1 0x40 DUP1 MLOAD DUP1 DUP3 ADD SWAP1 SWAP2 MSTORE PUSH1 0x11 DUP2 MSTORE PUSH32 0x494E56414C49445F5349474E4154555245000000000000000000000000000000 PUSH1 0x20 DUP3 ADD MSTORE SWAP1 ISZERO ISZERO PUSH2 0x272 JUMPI PUSH1 0x40 MLOAD PUSH1 0xE5 PUSH1 0x2 EXP PUSH3 0x461BCD MUL DUP2 MSTORE PUSH1 0x4 ADD PUSH2 0x269 SWAP2 SWAP1 PUSH2 0x1526 JUMP JUMPDEST PUSH1 0x40 MLOAD DUP1 SWAP2 SUB SWAP1 REVERT JUMPDEST POP POP POP PUSH1 0x0 SWAP2 DUP3 MSTORE PUSH1 0x20 DUP3 DUP2 MSTORE PUSH1 0x40 DUP1 DUP5 KECCAK256 PUSH1 0x1 PUSH1 0xA0 PUSH1 0x2 EXP SUB SWAP1 SWAP4 AND DUP5 MSTORE SWAP2 SWAP1 MSTORE SWAP1 KECCAK256 DUP1 SLOAD PUSH1 0xFF NOT AND PUSH1 0x1 OR SWAP1 SSTORE JUMP JUMPDEST PUSH1 0x2 PUSH1 0x20 MSTORE PUSH1 0x0 SWAP1 DUP2 MSTORE PUSH1 0x40 SWAP1 KECCAK256 SLOAD PUSH1 0xFF AND DUP2 JUMP JUMPDEST PUSH1 0x0 PUSH2 0x2C2 PUSH2 0xE68 JUMP JUMPDEST PUSH1 0x1 PUSH1 0xA0 PUSH1 0x2 EXP SUB SWAP1 DUP2 AND PUSH1 0x0 SWAP1 DUP2 MSTORE PUSH1 0x1 PUSH1 0x20 SWAP1 DUP2 MSTORE PUSH1 0x40 DUP1 DUP4 KECCAK256 SWAP7 SWAP1 SWAP4 AND DUP3 MSTORE SWAP5 SWAP1 SWAP5 MSTORE SWAP1 SWAP3 KECCAK256 DUP1 SLOAD PUSH1 0xFF NOT AND SWAP2 ISZERO ISZERO SWAP2 SWAP1 SWAP2 OR SWAP1 SSTORE POP JUMP JUMPDEST PUSH1 0x1 PUSH1 0x20 SWAP1 DUP2 MSTORE PUSH1 0x0 SWAP3 DUP4 MSTORE PUSH1 0x40 DUP1 DUP5 KECCAK256 SWAP1 SWAP2 MSTORE SWAP1 DUP3 MSTORE SWAP1 KECCAK256 SLOAD PUSH1 0xFF AND DUP2 JUMP JUMPDEST PUSH1 0x0 PUSH1 0x20 DUP2 DUP2 MSTORE SWAP3 DUP2 MSTORE PUSH1 0x40 DUP1 DUP3 KECCAK256 SWAP1 SWAP4 MSTORE SWAP1 DUP2 MSTORE KECCAK256 SLOAD PUSH1 0xFF AND DUP2 JUMP JUMPDEST PUSH1 0x0 DUP1 PUSH1 0x0 DUP1 PUSH1 0x0 DUP1 PUSH1 0x0 DUP1 DUP9 MLOAD GT PUSH1 0x40 DUP1 MLOAD SWAP1 DUP2 ADD PUSH1 0x40 MSTORE DUP1 PUSH1 0x1E DUP2 MSTORE PUSH1 0x20 ADD PUSH32 0x4C454E4754485F475245415445525F5448414E5F305F52455155495245440000 DUP2 MSTORE POP SWAP1 ISZERO ISZERO PUSH2 0x3A2 JUMPI PUSH1 0x40 MLOAD PUSH1 0xE5 PUSH1 0x2 EXP PUSH3 0x461BCD MUL DUP2 MSTORE PUSH1 0x4 ADD PUSH2 0x269 SWAP2 SWAP1 PUSH2 0x1526 JUMP JUMPDEST POP PUSH2 0x3AC DUP9 PUSH2 0xE97 JUMP JUMPDEST PUSH1 0xF8 PUSH1 0x2 EXP SWAP1 DIV PUSH1 0xFF AND PUSH1 0x8 DUP2 GT ISZERO PUSH2 0x3C1 JUMPI INVALID JUMPDEST SWAP6 POP PUSH1 0x0 DUP7 PUSH1 0x8 DUP2 GT ISZERO PUSH2 0x3D1 JUMPI INVALID JUMPDEST EQ ISZERO PUSH2 0x425 JUMPI PUSH1 0x40 DUP1 MLOAD DUP1 DUP3 ADD DUP3 MSTORE PUSH1 0x11 DUP2 MSTORE PUSH32 0x5349474E41545552455F494C4C4547414C000000000000000000000000000000 PUSH1 0x20 DUP3 ADD MSTORE SWAP1 MLOAD PUSH1 0xE5 PUSH1 0x2 EXP PUSH3 0x461BCD MUL DUP2 MSTORE PUSH2 0x269 SWAP2 SWAP1 PUSH1 0x4 ADD PUSH2 0x1526 JUMP JUMPDEST PUSH1 0x1 DUP7 PUSH1 0x8 DUP2 GT ISZERO PUSH2 0x433 JUMPI INVALID JUMPDEST EQ ISZERO PUSH2 0x49B JUMPI DUP8 MLOAD PUSH1 0x40 DUP1 MLOAD DUP1 DUP3 ADD SWAP1 SWAP2 MSTORE PUSH1 0x11 DUP2 MSTORE PUSH32 0x4C454E4754485F315F5245515549524544000000000000000000000000000000 PUSH1 0x20 DUP3 ADD MSTORE SWAP1 ISZERO PUSH2 0x491 JUMPI PUSH1 0x40 MLOAD PUSH1 0xE5 PUSH1 0x2 EXP PUSH3 0x461BCD MUL DUP2 MSTORE PUSH1 0x4 ADD PUSH2 0x269 SWAP2 SWAP1 PUSH2 0x1526 JUMP JUMPDEST POP PUSH1 0x0 SWAP7 POP PUSH2 0xB05 JUMP JUMPDEST PUSH1 0x2 DUP7 PUSH1 0x8 DUP2 GT ISZERO PUSH2 0x4A9 JUMPI INVALID JUMPDEST EQ ISZERO PUSH2 0x5B1 JUMPI DUP8 MLOAD PUSH1 0x40 DUP1 MLOAD DUP1 DUP3 ADD SWAP1 SWAP2 MSTORE PUSH1 0x12 DUP2 MSTORE PUSH32 0x4C454E4754485F36365F52455155495245440000000000000000000000000000 PUSH1 0x20 DUP3 ADD MSTORE SWAP1 PUSH1 0x41 EQ PUSH2 0x509 JUMPI PUSH1 0x40 MLOAD PUSH1 0xE5 PUSH1 0x2 EXP PUSH3 0x461BCD MUL DUP2 MSTORE PUSH1 0x4 ADD PUSH2 0x269 SWAP2 SWAP1 PUSH2 0x1526 JUMP JUMPDEST POP DUP8 PUSH1 0x0 DUP2 MLOAD DUP2 LT ISZERO ISZERO PUSH2 0x519 JUMPI INVALID JUMPDEST ADD PUSH1 0x20 ADD MLOAD PUSH1 0xF8 PUSH1 0x2 EXP SWAP1 DUP2 SWAP1 DIV DUP2 MUL DIV SWAP5 POP PUSH2 0x537 DUP9 PUSH1 0x1 PUSH2 0xF4C JUMP JUMPDEST SWAP4 POP PUSH2 0x544 DUP9 PUSH1 0x21 PUSH2 0xF4C JUMP JUMPDEST SWAP3 POP PUSH1 0x1 DUP11 DUP7 DUP7 DUP7 PUSH1 0x40 MLOAD PUSH1 0x0 DUP2 MSTORE PUSH1 0x20 ADD PUSH1 0x40 MSTORE PUSH1 0x40 MLOAD PUSH2 0x569 SWAP5 SWAP4 SWAP3 SWAP2 SWAP1 PUSH2 0x14F1 JUMP JUMPDEST PUSH1 0x20 PUSH1 0x40 MLOAD PUSH1 0x20 DUP2 SUB SWAP1 DUP1 DUP5 SUB SWAP1 PUSH1 0x0 DUP7 GAS CALL ISZERO DUP1 ISZERO PUSH2 0x58D JUMPI RETURNDATASIZE PUSH1 0x0 DUP1 RETURNDATACOPY RETURNDATASIZE PUSH1 0x0 REVERT JUMPDEST POP POP PUSH1 0x40 MLOAD PUSH1 0x1F NOT ADD MLOAD PUSH1 0x1 PUSH1 0xA0 PUSH1 0x2 EXP SUB DUP12 DUP2 AND SWAP1 DUP3 AND EQ SWAP9 POP SWAP3 POP PUSH2 0xB05 SWAP1 POP JUMP JUMPDEST PUSH1 0x3 DUP7 PUSH1 0x8 DUP2 GT ISZERO PUSH2 0x5BF JUMPI INVALID JUMPDEST EQ ISZERO PUSH2 0x76B JUMPI DUP8 MLOAD PUSH1 0x40 DUP1 MLOAD DUP1 DUP3 ADD SWAP1 SWAP2 MSTORE PUSH1 0x12 DUP2 MSTORE PUSH32 0x4C454E4754485F36365F52455155495245440000000000000000000000000000 PUSH1 0x20 DUP3 ADD MSTORE SWAP1 PUSH1 0x41 EQ PUSH2 0x61F JUMPI PUSH1 0x40 MLOAD PUSH1 0xE5 PUSH1 0x2 EXP PUSH3 0x461BCD MUL DUP2 MSTORE PUSH1 0x4 ADD PUSH2 0x269 SWAP2 SWAP1 PUSH2 0x1526 JUMP JUMPDEST POP DUP8 PUSH1 0x0 DUP2 MLOAD DUP2 LT ISZERO ISZERO PUSH2 0x62F JUMPI INVALID JUMPDEST ADD PUSH1 0x20 ADD MLOAD PUSH1 0xF8 PUSH1 0x2 EXP SWAP1 DUP2 SWAP1 DIV DUP2 MUL DIV SWAP5 POP PUSH2 0x64D DUP9 PUSH1 0x1 PUSH2 0xF4C JUMP JUMPDEST SWAP4 POP PUSH2 0x65A DUP9 PUSH1 0x21 PUSH2 0xF4C JUMP JUMPDEST SWAP3 POP PUSH1 0x1 PUSH1 0x40 DUP1 MLOAD SWAP1 DUP2 ADD PUSH1 0x40 MSTORE DUP1 PUSH1 0x1C DUP2 MSTORE PUSH1 0x20 ADD PUSH32 0x19457468657265756D205369676E6564204D6573736167653A0A333200000000 DUP2 MSTORE POP DUP12 PUSH1 0x40 MLOAD PUSH1 0x20 ADD DUP1 DUP4 DUP1 MLOAD SWAP1 PUSH1 0x20 ADD SWAP1 DUP1 DUP4 DUP4 JUMPDEST PUSH1 0x20 DUP4 LT PUSH2 0x6C7 JUMPI DUP1 MLOAD DUP3 MSTORE PUSH1 0x1F NOT SWAP1 SWAP3 ADD SWAP2 PUSH1 0x20 SWAP2 DUP3 ADD SWAP2 ADD PUSH2 0x6A8 JUMP JUMPDEST MLOAD DUP2 MLOAD PUSH1 0x20 SWAP4 DUP5 SUB PUSH2 0x100 EXP PUSH1 0x0 NOT ADD DUP1 NOT SWAP1 SWAP3 AND SWAP2 AND OR SWAP1 MSTORE SWAP3 ADD SWAP4 DUP5 MSTORE POP PUSH1 0x40 DUP1 MLOAD DUP1 DUP6 SUB DUP2 MSTORE SWAP4 DUP3 ADD SWAP1 DUP2 SWAP1 MSTORE DUP4 MLOAD SWAP4 SWAP5 POP SWAP3 DUP4 SWAP3 POP SWAP1 DUP5 ADD SWAP1 DUP1 DUP4 DUP4 JUMPDEST PUSH1 0x20 DUP4 LT PUSH2 0x727 JUMPI DUP1 MLOAD DUP3 MSTORE PUSH1 0x1F NOT SWAP1 SWAP3 ADD SWAP2 PUSH1 0x20 SWAP2 DUP3 ADD SWAP2 ADD PUSH2 0x708 JUMP JUMPDEST MLOAD DUP2 MLOAD PUSH1 0x20 SWAP4 DUP5 SUB PUSH2 0x100 EXP PUSH1 0x0 NOT ADD DUP1 NOT SWAP1 SWAP3 AND SWAP2 AND OR SWAP1 MSTORE PUSH1 0x40 DUP1 MLOAD SWAP3 SWAP1 SWAP5 ADD DUP3 SWAP1 SUB DUP3 KECCAK256 PUSH1 0x0 DUP4 MSTORE SWAP2 ADD SWAP3 DUP4 SWAP1 MSTORE PUSH2 0x569 SWAP5 POP SWAP3 POP DUP10 SWAP2 DUP10 SWAP2 POP DUP9 SWAP1 PUSH2 0x14F1 JUMP JUMPDEST PUSH1 0x4 DUP7 PUSH1 0x8 DUP2 GT ISZERO PUSH2 0x779 JUMPI INVALID JUMPDEST EQ ISZERO PUSH2 0x7EB JUMPI DUP8 MLOAD PUSH1 0x40 DUP1 MLOAD DUP1 DUP3 ADD SWAP1 SWAP2 MSTORE PUSH1 0x11 DUP2 MSTORE PUSH32 0x4C454E4754485F315F5245515549524544000000000000000000000000000000 PUSH1 0x20 DUP3 ADD MSTORE SWAP1 ISZERO PUSH2 0x7D7 JUMPI PUSH1 0x40 MLOAD PUSH1 0xE5 PUSH1 0x2 EXP PUSH3 0x461BCD MUL DUP2 MSTORE PUSH1 0x4 ADD PUSH2 0x269 SWAP2 SWAP1 PUSH2 0x1526 JUMP JUMPDEST POP PUSH1 0x1 PUSH1 0xA0 PUSH1 0x2 EXP SUB DUP10 AND CALLER EQ SWAP7 POP PUSH2 0xB05 JUMP JUMPDEST PUSH1 0x5 DUP7 PUSH1 0x8 DUP2 GT ISZERO PUSH2 0x7F9 JUMPI INVALID JUMPDEST EQ ISZERO PUSH2 0x89F JUMPI PUSH1 0x40 MLOAD PUSH32 0x1626BA7E00000000000000000000000000000000000000000000000000000000 DUP2 MSTORE PUSH1 0x1 PUSH1 0xA0 PUSH1 0x2 EXP SUB DUP11 AND SWAP1 PUSH4 0x1626BA7E SWAP1 PUSH2 0x846 SWAP1 DUP14 SWAP1 DUP13 SWAP1 PUSH1 0x4 ADD PUSH2 0x14D1 JUMP JUMPDEST PUSH1 0x20 PUSH1 0x40 MLOAD DUP1 DUP4 SUB DUP2 PUSH1 0x0 DUP8 DUP1 EXTCODESIZE ISZERO DUP1 ISZERO PUSH2 0x860 JUMPI PUSH1 0x0 DUP1 REVERT JUMPDEST POP GAS CALL ISZERO DUP1 ISZERO PUSH2 0x874 JUMPI RETURNDATASIZE PUSH1 0x0 DUP1 RETURNDATACOPY RETURNDATASIZE PUSH1 0x0 REVERT JUMPDEST POP POP POP POP PUSH1 0x40 MLOAD RETURNDATASIZE PUSH1 0x1F NOT PUSH1 0x1F DUP3 ADD AND DUP3 ADD DUP1 PUSH1 0x40 MSTORE POP PUSH2 0x898 SWAP2 SWAP1 DUP2 ADD SWAP1 PUSH2 0x125F JUMP JUMPDEST SWAP7 POP PUSH2 0xB05 JUMP JUMPDEST PUSH1 0x6 DUP7 PUSH1 0x8 DUP2 GT ISZERO PUSH2 0x8AD JUMPI INVALID JUMPDEST EQ ISZERO PUSH2 0x940 JUMPI PUSH2 0x8BC DUP9 PUSH2 0xFE0 JUMP JUMPDEST PUSH1 0x1 PUSH1 0xA0 PUSH1 0x2 EXP SUB DUP1 DUP12 AND PUSH1 0x0 SWAP1 DUP2 MSTORE PUSH1 0x1 PUSH1 0x20 SWAP1 DUP2 MSTORE PUSH1 0x40 DUP1 DUP4 KECCAK256 SWAP4 DUP6 AND DUP4 MSTORE SWAP3 SWAP1 MSTORE KECCAK256 SLOAD SWAP1 SWAP2 POP PUSH1 0xFF AND ISZERO ISZERO PUSH2 0x8F7 JUMPI PUSH1 0x0 SWAP7 POP PUSH2 0xB05 JUMP JUMPDEST PUSH1 0x40 MLOAD PUSH32 0x9363470200000000000000000000000000000000000000000000000000000000 DUP2 MSTORE PUSH1 0x1 PUSH1 0xA0 PUSH1 0x2 EXP SUB DUP3 AND SWAP1 PUSH4 0x93634702 SWAP1 PUSH2 0x846 SWAP1 DUP14 SWAP1 DUP14 SWAP1 DUP14 SWAP1 PUSH1 0x4 ADD PUSH2 0x149B JUMP JUMPDEST PUSH1 0x7 DUP7 PUSH1 0x8 DUP2 GT ISZERO PUSH2 0x94E JUMPI INVALID JUMPDEST EQ ISZERO PUSH2 0x97F JUMPI PUSH1 0x0 DUP11 DUP2 MSTORE PUSH1 0x20 DUP2 DUP2 MSTORE PUSH1 0x40 DUP1 DUP4 KECCAK256 PUSH1 0x1 PUSH1 0xA0 PUSH1 0x2 EXP SUB DUP14 AND DUP5 MSTORE SWAP1 SWAP2 MSTORE SWAP1 KECCAK256 SLOAD PUSH1 0xFF AND SWAP7 POP PUSH2 0xB05 JUMP JUMPDEST PUSH1 0x8 DUP7 PUSH1 0x8 DUP2 GT ISZERO PUSH2 0x98D JUMPI INVALID JUMPDEST EQ ISZERO PUSH2 0xA78 JUMPI DUP8 MLOAD PUSH1 0x40 DUP1 MLOAD DUP1 DUP3 ADD SWAP1 SWAP2 MSTORE PUSH1 0x12 DUP2 MSTORE PUSH32 0x4C454E4754485F36365F52455155495245440000000000000000000000000000 PUSH1 0x20 DUP3 ADD MSTORE SWAP1 PUSH1 0x41 EQ PUSH2 0x9ED JUMPI PUSH1 0x40 MLOAD PUSH1 0xE5 PUSH1 0x2 EXP PUSH3 0x461BCD MUL DUP2 MSTORE PUSH1 0x4 ADD PUSH2 0x269 SWAP2 SWAP1 PUSH2 0x1526 JUMP JUMPDEST POP DUP8 PUSH1 0x0 DUP2 MLOAD DUP2 LT ISZERO ISZERO PUSH2 0x9FD JUMPI INVALID JUMPDEST ADD PUSH1 0x20 ADD MLOAD PUSH1 0xF8 PUSH1 0x2 EXP SWAP1 DUP2 SWAP1 DIV DUP2 MUL DIV SWAP5 POP PUSH2 0xA1B DUP9 PUSH1 0x1 PUSH2 0xF4C JUMP JUMPDEST SWAP4 POP PUSH2 0xA28 DUP9 PUSH1 0x21 PUSH2 0xF4C JUMP JUMPDEST PUSH1 0x40 DUP1 MLOAD DUP1 DUP3 ADD DUP3 MSTORE PUSH1 0x1B DUP1 DUP3 MSTORE PUSH32 0x19457468657265756D205369676E6564204D6573736167653A0A410000000000 PUSH1 0x20 DUP1 DUP5 ADD SWAP2 DUP3 MSTORE SWAP4 MLOAD SWAP5 SWAP8 POP PUSH1 0x1 SWAP5 SWAP3 SWAP4 DUP16 SWAP4 ADD SWAP2 DUP3 SWAP2 SWAP1 DUP1 DUP4 DUP4 PUSH2 0x6C7 JUMP JUMPDEST PUSH1 0x7 DUP7 PUSH1 0x8 DUP2 GT ISZERO PUSH2 0xA86 JUMPI INVALID JUMPDEST EQ ISZERO PUSH2 0xAB7 JUMPI PUSH1 0x0 DUP11 DUP2 MSTORE PUSH1 0x20 DUP2 DUP2 MSTORE PUSH1 0x40 DUP1 DUP4 KECCAK256 PUSH1 0x1 PUSH1 0xA0 PUSH1 0x2 EXP SUB DUP14 AND DUP5 MSTORE SWAP1 SWAP2 MSTORE SWAP1 KECCAK256 SLOAD PUSH1 0xFF AND SWAP7 POP PUSH2 0xB05 JUMP JUMPDEST PUSH1 0x40 DUP1 MLOAD DUP1 DUP3 ADD DUP3 MSTORE PUSH1 0x15 DUP2 MSTORE PUSH32 0x5349474E41545552455F554E535550504F525445440000000000000000000000 PUSH1 0x20 DUP3 ADD MSTORE SWAP1 MLOAD PUSH1 0xE5 PUSH1 0x2 EXP PUSH3 0x461BCD MUL DUP2 MSTORE PUSH2 0x269 SWAP2 SWAP1 PUSH1 0x4 ADD PUSH2 0x1526 JUMP JUMPDEST POP POP POP POP POP POP SWAP4 SWAP3 POP POP POP JUMP JUMPDEST PUSH1 0x0 PUSH2 0xB1F DUP5 DUP5 DUP5 PUSH2 0x33A JUMP JUMPDEST SWAP5 SWAP4 POP POP POP POP JUMP JUMPDEST PUSH1 0x3 SLOAD PUSH1 0x40 DUP1 MLOAD DUP1 DUP3 ADD SWAP1 SWAP2 MSTORE PUSH1 0x12 DUP2 MSTORE PUSH32 0x5245454E5452414E43595F494C4C4547414C0000000000000000000000000000 PUSH1 0x20 DUP3 ADD MSTORE PUSH1 0x0 SWAP2 PUSH1 0x1 PUSH1 0xA0 PUSH1 0x2 EXP SUB AND ISZERO PUSH2 0xB8B JUMPI PUSH1 0x40 MLOAD PUSH1 0xE5 PUSH1 0x2 EXP PUSH3 0x461BCD MUL DUP2 MSTORE PUSH1 0x4 ADD PUSH2 0x269 SWAP2 SWAP1 PUSH2 0x1526 JUMP JUMPDEST POP ADDRESS DUP7 DUP9 DUP8 DUP8 PUSH1 0x40 MLOAD PUSH1 0x20 ADD DUP1 DUP7 PUSH1 0x1 PUSH1 0xA0 PUSH1 0x2 EXP SUB AND PUSH1 0x1 PUSH1 0xA0 PUSH1 0x2 EXP SUB AND PUSH13 0x1000000000000000000000000 MUL DUP2 MSTORE PUSH1 0x14 ADD DUP6 PUSH1 0x1 PUSH1 0xA0 PUSH1 0x2 EXP SUB AND PUSH1 0x1 PUSH1 0xA0 PUSH1 0x2 EXP SUB AND PUSH13 0x1000000000000000000000000 MUL DUP2 MSTORE PUSH1 0x14 ADD DUP5 DUP2 MSTORE PUSH1 0x20 ADD DUP4 DUP4 DUP1 DUP3 DUP5 CALLDATACOPY DUP3 ADD SWAP2 POP POP SWAP6 POP POP POP POP POP POP PUSH1 0x40 MLOAD PUSH1 0x20 DUP2 DUP4 SUB SUB DUP2 MSTORE SWAP1 PUSH1 0x40 MSTORE PUSH1 0x40 MLOAD DUP1 DUP3 DUP1 MLOAD SWAP1 PUSH1 0x20 ADD SWAP1 DUP1 DUP4 DUP4 JUMPDEST PUSH1 0x20 DUP4 LT PUSH2 0xC3C JUMPI DUP1 MLOAD DUP3 MSTORE PUSH1 0x1F NOT SWAP1 SWAP3 ADD SWAP2 PUSH1 0x20 SWAP2 DUP3 ADD SWAP2 ADD PUSH2 0xC1D JUMP JUMPDEST MLOAD DUP2 MLOAD PUSH1 0x20 SWAP4 DUP5 SUB PUSH2 0x100 EXP PUSH1 0x0 NOT ADD DUP1 NOT SWAP1 SWAP3 AND SWAP2 AND OR SWAP1 MSTORE PUSH1 0x40 DUP1 MLOAD SWAP3 SWAP1 SWAP5 ADD DUP3 SWAP1 SUB DUP3 KECCAK256 PUSH1 0x0 DUP2 DUP2 MSTORE PUSH1 0x2 DUP4 MSTORE DUP6 SWAP1 KECCAK256 SLOAD DUP4 DUP7 ADD SWAP1 SWAP6 MSTORE PUSH1 0xF DUP4 MSTORE PUSH32 0x494E56414C49445F54585F484153480000000000000000000000000000000000 SWAP2 DUP4 ADD SWAP2 SWAP1 SWAP2 MSTORE SWAP6 POP SWAP4 POP POP PUSH1 0xFF AND ISZERO SWAP1 POP PUSH2 0xCCD JUMPI PUSH1 0x40 MLOAD PUSH1 0xE5 PUSH1 0x2 EXP PUSH3 0x461BCD MUL DUP2 MSTORE PUSH1 0x4 ADD PUSH2 0x269 SWAP2 SWAP1 PUSH2 0x1526 JUMP JUMPDEST POP PUSH1 0x1 PUSH1 0xA0 PUSH1 0x2 EXP SUB DUP7 AND CALLER EQ PUSH2 0xD9A JUMPI PUSH2 0xD19 DUP2 DUP8 DUP6 DUP6 DUP1 DUP1 PUSH1 0x1F ADD PUSH1 0x20 DUP1 SWAP2 DIV MUL PUSH1 0x20 ADD PUSH1 0x40 MLOAD SWAP1 DUP2 ADD PUSH1 0x40 MSTORE DUP1 SWAP4 SWAP3 SWAP2 SWAP1 DUP2 DUP2 MSTORE PUSH1 0x20 ADD DUP4 DUP4 DUP1 DUP3 DUP5 CALLDATACOPY POP PUSH2 0x33A SWAP5 POP POP POP POP POP JUMP JUMPDEST PUSH1 0x40 DUP1 MLOAD DUP1 DUP3 ADD SWAP1 SWAP2 MSTORE PUSH1 0x14 DUP2 MSTORE PUSH32 0x494E56414C49445F54585F5349474E4154555245000000000000000000000000 PUSH1 0x20 DUP3 ADD MSTORE SWAP1 ISZERO ISZERO PUSH2 0xD70 JUMPI PUSH1 0x40 MLOAD PUSH1 0xE5 PUSH1 0x2 EXP PUSH3 0x461BCD MUL DUP2 MSTORE PUSH1 0x4 ADD PUSH2 0x269 SWAP2 SWAP1 PUSH2 0x1526 JUMP JUMPDEST POP PUSH1 0x3 DUP1 SLOAD PUSH20 0xFFFFFFFFFFFFFFFFFFFFFFFFFFFFFFFFFFFFFFFF NOT AND PUSH1 0x1 PUSH1 0xA0 PUSH1 0x2 EXP SUB DUP9 AND OR SWAP1 SSTORE JUMPDEST PUSH1 0x0 DUP2 DUP2 MSTORE PUSH1 0x2 PUSH1 0x20 MSTORE PUSH1 0x40 SWAP1 DUP2 SWAP1 KECCAK256 DUP1 SLOAD PUSH1 0xFF NOT AND PUSH1 0x1 OR SWAP1 SSTORE MLOAD ADDRESS SWAP1 DUP7 SWAP1 DUP7 SWAP1 DUP1 DUP4 DUP4 DUP1 DUP3 DUP5 CALLDATACOPY DUP3 ADD SWAP2 POP POP SWAP3 POP POP POP PUSH1 0x0 PUSH1 0x40 MLOAD DUP1 DUP4 SUB DUP2 DUP6 GAS DELEGATECALL PUSH1 0x40 DUP1 MLOAD DUP1 DUP3 ADD SWAP1 SWAP2 MSTORE PUSH1 0x10 DUP2 MSTORE PUSH32 0x4641494C45445F455845435554494F4E00000000000000000000000000000000 PUSH1 0x20 DUP3 ADD MSTORE SWAP3 POP ISZERO ISZERO SWAP1 POP PUSH2 0xE32 JUMPI PUSH1 0x40 MLOAD PUSH1 0xE5 PUSH1 0x2 EXP PUSH3 0x461BCD MUL DUP2 MSTORE PUSH1 0x4 ADD PUSH2 0x269 SWAP2 SWAP1 PUSH2 0x1526 JUMP JUMPDEST POP POP PUSH1 0x3 DUP1 SLOAD PUSH20 0xFFFFFFFFFFFFFFFFFFFFFFFFFFFFFFFFFFFFFFFF NOT AND SWAP1 SSTORE POP POP POP POP POP POP JUMP JUMPDEST PUSH1 0x3 SLOAD PUSH1 0x1 PUSH1 0xA0 PUSH1 0x2 EXP SUB AND DUP2 JUMP JUMPDEST PUSH1 0x3 SLOAD PUSH1 0x0 SWAP1 DUP2 SWAP1 PUSH1 0x1 PUSH1 0xA0 PUSH1 0x2 EXP SUB AND ISZERO PUSH2 0xE8F JUMPI PUSH1 0x3 SLOAD PUSH1 0x1 PUSH1 0xA0 PUSH1 0x2 EXP SUB AND PUSH2 0xE91 JUMP JUMPDEST CALLER JUMPDEST SWAP3 SWAP2 POP POP JUMP JUMPDEST PUSH1 0x0 DUP1 DUP3 MLOAD GT PUSH1 0x60 PUSH1 0x40 MLOAD SWAP1 DUP2 ADD PUSH1 0x40 MSTORE DUP1 PUSH1 0x21 DUP2 MSTORE PUSH1 0x20 ADD PUSH32 0x475245415445525F5448414E5F5A45524F5F4C454E4754485F52455155495245 DUP2 MSTORE PUSH1 0x20 ADD PUSH32 0x4400000000000000000000000000000000000000000000000000000000000000 DUP2 MSTORE POP SWAP1 ISZERO ISZERO PUSH2 0xF1D JUMPI PUSH1 0x40 MLOAD PUSH1 0xE5 PUSH1 0x2 EXP PUSH3 0x461BCD MUL DUP2 MSTORE PUSH1 0x4 ADD PUSH2 0x269 SWAP2 SWAP1 PUSH2 0x1526 JUMP JUMPDEST POP DUP2 MLOAD DUP3 SWAP1 PUSH1 0x0 NOT DUP2 ADD SWAP1 DUP2 LT PUSH2 0xF30 JUMPI INVALID JUMPDEST ADD PUSH1 0x20 ADD MLOAD DUP3 MLOAD PUSH1 0x0 NOT ADD SWAP1 SWAP3 MSTORE POP PUSH1 0xF8 PUSH1 0x2 EXP SWAP1 DUP2 SWAP1 DIV MUL SWAP1 JUMP JUMPDEST PUSH1 0x0 DUP2 PUSH1 0x20 ADD DUP4 MLOAD LT ISZERO PUSH1 0x60 PUSH1 0x40 MLOAD SWAP1 DUP2 ADD PUSH1 0x40 MSTORE DUP1 PUSH1 0x26 DUP2 MSTORE PUSH1 0x20 ADD PUSH32 0x475245415445525F4F525F455155414C5F544F5F33325F4C454E4754485F5245 DUP2 MSTORE PUSH1 0x20 ADD PUSH32 0x5155495245440000000000000000000000000000000000000000000000000000 DUP2 MSTORE POP SWAP1 ISZERO ISZERO PUSH2 0xFD6 JUMPI PUSH1 0x40 MLOAD PUSH1 0xE5 PUSH1 0x2 EXP PUSH3 0x461BCD MUL DUP2 MSTORE PUSH1 0x4 ADD PUSH2 0x269 SWAP2 SWAP1 PUSH2 0x1526 JUMP JUMPDEST POP POP ADD PUSH1 0x20 ADD MLOAD SWAP1 JUMP JUMPDEST PUSH1 0x0 PUSH1 0x14 DUP3 MLOAD LT ISZERO PUSH1 0x60 PUSH1 0x40 MLOAD SWAP1 DUP2 ADD PUSH1 0x40 MSTORE DUP1 PUSH1 0x26 DUP2 MSTORE PUSH1 0x20 ADD PUSH32 0x475245415445525F4F525F455155414C5F544F5F32305F4C454E4754485F5245 DUP2 MSTORE PUSH1 0x20 ADD PUSH32 0x5155495245440000000000000000000000000000000000000000000000000000 DUP2 MSTORE POP SWAP1 ISZERO ISZERO PUSH2 0x1068 JUMPI PUSH1 0x40 MLOAD PUSH1 0xE5 PUSH1 0x2 EXP PUSH3 0x461BCD MUL DUP2 MSTORE PUSH1 0x4 ADD PUSH2 0x269 SWAP2 SWAP1 PUSH2 0x1526 JUMP JUMPDEST POP PUSH2 0x1077 DUP3 PUSH1 0x14 DUP5 MLOAD SUB PUSH2 0x1084 JUMP JUMPDEST DUP3 MLOAD PUSH1 0x13 NOT ADD SWAP1 SWAP3 MSTORE POP SWAP1 JUMP JUMPDEST PUSH1 0x0 DUP2 PUSH1 0x14 ADD DUP4 MLOAD LT ISZERO PUSH1 0x60 PUSH1 0x40 MLOAD SWAP1 DUP2 ADD PUSH1 0x40 MSTORE DUP1 PUSH1 0x26 DUP2 MSTORE PUSH1 0x20 ADD PUSH32 0x475245415445525F4F525F455155414C5F544F5F32305F4C454E4754485F5245 DUP2 MSTORE PUSH1 0x20 ADD PUSH32 0x5155495245440000000000000000000000000000000000000000000000000000 DUP2 MSTORE POP SWAP1 ISZERO ISZERO PUSH2 0x110E JUMPI PUSH1 0x40 MLOAD PUSH1 0xE5 PUSH1 0x2 EXP PUSH3 0x461BCD MUL DUP2 MSTORE PUSH1 0x4 ADD PUSH2 0x269 SWAP2 SWAP1 PUSH2 0x1526 JUMP JUMPDEST POP POP ADD PUSH1 0x14 ADD MLOAD PUSH1 0x1 PUSH1 0xA0 PUSH1 0x2 EXP SUB AND SWAP1 JUMP JUMPDEST PUSH1 0x0 PUSH2 0x112D DUP3 CALLDATALOAD PUSH2 0x158A JUMP JUMPDEST SWAP4 SWAP3 POP POP POP JUMP JUMPDEST PUSH1 0x0 PUSH2 0x112D DUP3 CALLDATALOAD PUSH2 0x1596 JUMP JUMPDEST PUSH1 0x0 PUSH2 0x112D DUP3 MLOAD PUSH2 0x1596 JUMP JUMPDEST PUSH1 0x0 PUSH2 0x112D DUP3 CALLDATALOAD PUSH2 0x159B JUMP JUMPDEST PUSH1 0x0 DUP1 PUSH1 0x1F DUP4 ADD DUP5 SGT PUSH2 0x116A JUMPI PUSH1 0x0 DUP1 REVERT JUMPDEST POP DUP2 CALLDATALOAD PUSH8 0xFFFFFFFFFFFFFFFF DUP2 GT ISZERO PUSH2 0x1182 JUMPI PUSH1 0x0 DUP1 REVERT JUMPDEST PUSH1 0x20 DUP4 ADD SWAP2 POP DUP4 PUSH1 0x1 DUP3 MUL DUP4 ADD GT ISZERO PUSH2 0x119A JUMPI PUSH1 0x0 DUP1 REVERT JUMPDEST SWAP3 POP SWAP3 SWAP1 POP JUMP JUMPDEST PUSH1 0x0 PUSH1 0x1F DUP3 ADD DUP4 SGT PUSH2 0x11B2 JUMPI PUSH1 0x0 DUP1 REVERT JUMPDEST DUP2 CALLDATALOAD PUSH2 0x11C5 PUSH2 0x11C0 DUP3 PUSH2 0x155E JUMP JUMPDEST PUSH2 0x1537 JUMP JUMPDEST SWAP2 POP DUP1 DUP3 MSTORE PUSH1 0x20 DUP4 ADD PUSH1 0x20 DUP4 ADD DUP6 DUP4 DUP4 ADD GT ISZERO PUSH2 0x11E1 JUMPI PUSH1 0x0 DUP1 REVERT JUMPDEST PUSH2 0x11EC DUP4 DUP3 DUP5 PUSH2 0x15A4 JUMP JUMPDEST POP POP POP SWAP3 SWAP2 POP POP JUMP JUMPDEST PUSH1 0x0 DUP1 PUSH1 0x40 DUP4 DUP6 SUB SLT ISZERO PUSH2 0x1208 JUMPI PUSH1 0x0 DUP1 REVERT JUMPDEST PUSH1 0x0 PUSH2 0x1214 DUP6 DUP6 PUSH2 0x1121 JUMP JUMPDEST SWAP3 POP POP PUSH1 0x20 PUSH2 0x1225 DUP6 DUP3 DUP7 ADD PUSH2 0x1121 JUMP JUMPDEST SWAP2 POP POP SWAP3 POP SWAP3 SWAP1 POP JUMP JUMPDEST PUSH1 0x0 DUP1 PUSH1 0x40 DUP4 DUP6 SUB SLT ISZERO PUSH2 0x1242 JUMPI PUSH1 0x0 DUP1 REVERT JUMPDEST PUSH1 0x0 PUSH2 0x124E DUP6 DUP6 PUSH2 0x1121 JUMP JUMPDEST SWAP3 POP POP PUSH1 0x20 PUSH2 0x1225 DUP6 DUP3 DUP7 ADD PUSH2 0x1134 JUMP JUMPDEST PUSH1 0x0 PUSH1 0x20 DUP3 DUP5 SUB SLT ISZERO PUSH2 0x1271 JUMPI PUSH1 0x0 DUP1 REVERT JUMPDEST PUSH1 0x0 PUSH2 0xB1F DUP5 DUP5 PUSH2 0x1140 JUMP JUMPDEST PUSH1 0x0 PUSH1 0x20 DUP3 DUP5 SUB SLT ISZERO PUSH2 0x128F JUMPI PUSH1 0x0 DUP1 REVERT JUMPDEST PUSH1 0x0 PUSH2 0xB1F DUP5 DUP5 PUSH2 0x114C JUMP JUMPDEST PUSH1 0x0 DUP1 PUSH1 0x40 DUP4 DUP6 SUB SLT ISZERO PUSH2 0x12AE JUMPI PUSH1 0x0 DUP1 REVERT JUMPDEST PUSH1 0x0 PUSH2 0x1214 DUP6 DUP6 PUSH2 0x114C JUMP JUMPDEST PUSH1 0x0 DUP1 PUSH1 0x0 DUP1 PUSH1 0x60 DUP6 DUP8 SUB SLT ISZERO PUSH2 0x12D0 JUMPI PUSH1 0x0 DUP1 REVERT JUMPDEST PUSH1 0x0 PUSH2 0x12DC DUP8 DUP8 PUSH2 0x114C JUMP JUMPDEST SWAP5 POP POP PUSH1 0x20 PUSH2 0x12ED DUP8 DUP3 DUP9 ADD PUSH2 0x1121 JUMP JUMPDEST SWAP4 POP POP PUSH1 0x40 DUP6 ADD CALLDATALOAD PUSH8 0xFFFFFFFFFFFFFFFF DUP2 GT ISZERO PUSH2 0x130A JUMPI PUSH1 0x0 DUP1 REVERT JUMPDEST PUSH2 0x1316 DUP8 DUP3 DUP9 ADD PUSH2 0x1158 JUMP JUMPDEST SWAP6 SWAP9 SWAP5 SWAP8 POP SWAP6 POP POP POP POP JUMP JUMPDEST PUSH1 0x0 DUP1 PUSH1 0x0 PUSH1 0x60 DUP5 DUP7 SUB SLT ISZERO PUSH2 0x1337 JUMPI PUSH1 0x0 DUP1 REVERT JUMPDEST PUSH1 0x0 PUSH2 0x1343 DUP7 DUP7 PUSH2 0x114C JUMP JUMPDEST SWAP4 POP POP PUSH1 0x20 PUSH2 0x1354 DUP7 DUP3 DUP8 ADD PUSH2 0x1121 JUMP JUMPDEST SWAP3 POP POP PUSH1 0x40 DUP5 ADD CALLDATALOAD PUSH8 0xFFFFFFFFFFFFFFFF DUP2 GT ISZERO PUSH2 0x1371 JUMPI PUSH1 0x0 DUP1 REVERT JUMPDEST PUSH2 0x137D DUP7 DUP3 DUP8 ADD PUSH2 0x11A1 JUMP JUMPDEST SWAP2 POP POP SWAP3 POP SWAP3 POP SWAP3 JUMP JUMPDEST PUSH1 0x0 DUP1 PUSH1 0x0 DUP1 PUSH1 0x0 DUP1 PUSH1 0x80 DUP8 DUP10 SUB SLT ISZERO PUSH2 0x13A0 JUMPI PUSH1 0x0 DUP1 REVERT JUMPDEST PUSH1 0x0 PUSH2 0x13AC DUP10 DUP10 PUSH2 0x114C JUMP JUMPDEST SWAP7 POP POP PUSH1 0x20 PUSH2 0x13BD DUP10 DUP3 DUP11 ADD PUSH2 0x1121 JUMP JUMPDEST SWAP6 POP POP PUSH1 0x40 DUP8 ADD CALLDATALOAD PUSH8 0xFFFFFFFFFFFFFFFF DUP2 GT ISZERO PUSH2 0x13DA JUMPI PUSH1 0x0 DUP1 REVERT JUMPDEST PUSH2 0x13E6 DUP10 DUP3 DUP11 ADD PUSH2 0x1158 JUMP JUMPDEST SWAP5 POP SWAP5 POP POP PUSH1 0x60 DUP8 ADD CALLDATALOAD PUSH8 0xFFFFFFFFFFFFFFFF DUP2 GT ISZERO PUSH2 0x1405 JUMPI PUSH1 0x0 DUP1 REVERT JUMPDEST PUSH2 0x1411 DUP10 DUP3 DUP11 ADD PUSH2 0x1158 JUMP JUMPDEST SWAP3 POP SWAP3 POP POP SWAP3 SWAP6 POP SWAP3 SWAP6 POP SWAP3 SWAP6 JUMP JUMPDEST PUSH2 0x1429 DUP2 PUSH2 0x158A JUMP JUMPDEST DUP3 MSTORE POP POP JUMP JUMPDEST PUSH2 0x1429 DUP2 PUSH2 0x1596 JUMP JUMPDEST PUSH2 0x1429 DUP2 PUSH2 0x159B JUMP JUMPDEST PUSH1 0x0 PUSH2 0x144C DUP3 PUSH2 0x1586 JUMP JUMPDEST DUP1 DUP5 MSTORE PUSH2 0x1460 DUP2 PUSH1 0x20 DUP7 ADD PUSH1 0x20 DUP7 ADD PUSH2 0x15B0 JUMP JUMPDEST PUSH2 0x1469 DUP2 PUSH2 0x15E0 JUMP JUMPDEST SWAP1 SWAP4 ADD PUSH1 0x20 ADD SWAP4 SWAP3 POP POP POP JUMP JUMPDEST PUSH2 0x1429 DUP2 PUSH2 0x159E JUMP JUMPDEST PUSH1 0x20 DUP2 ADD PUSH2 0xE91 DUP3 DUP5 PUSH2 0x1420 JUMP JUMPDEST PUSH1 0x20 DUP2 ADD PUSH2 0xE91 DUP3 DUP5 PUSH2 0x142F JUMP JUMPDEST PUSH1 0x60 DUP2 ADD PUSH2 0x14A9 DUP3 DUP7 PUSH2 0x1438 JUMP JUMPDEST PUSH2 0x14B6 PUSH1 0x20 DUP4 ADD DUP6 PUSH2 0x1420 JUMP JUMPDEST DUP2 DUP2 SUB PUSH1 0x40 DUP4 ADD MSTORE PUSH2 0x14C8 DUP2 DUP5 PUSH2 0x1441 JUMP JUMPDEST SWAP6 SWAP5 POP POP POP POP POP JUMP JUMPDEST PUSH1 0x40 DUP2 ADD PUSH2 0x14DF DUP3 DUP6 PUSH2 0x1438 JUMP JUMPDEST DUP2 DUP2 SUB PUSH1 0x20 DUP4 ADD MSTORE PUSH2 0xB1F DUP2 DUP5 PUSH2 0x1441 JUMP JUMPDEST PUSH1 0x80 DUP2 ADD PUSH2 0x14FF DUP3 DUP8 PUSH2 0x1438 JUMP JUMPDEST PUSH2 0x150C PUSH1 0x20 DUP4 ADD DUP7 PUSH2 0x1476 JUMP JUMPDEST PUSH2 0x1519 PUSH1 0x40 DUP4 ADD DUP6 PUSH2 0x1438 JUMP JUMPDEST PUSH2 0x14C8 PUSH1 0x60 DUP4 ADD DUP5 PUSH2 0x1438 JUMP JUMPDEST PUSH1 0x20 DUP1 DUP3 MSTORE DUP2 ADD PUSH2 0x112D DUP2 DUP5 PUSH2 0x1441 JUMP JUMPDEST PUSH1 0x40 MLOAD DUP2 DUP2 ADD PUSH8 0xFFFFFFFFFFFFFFFF DUP2 GT DUP3 DUP3 LT OR ISZERO PUSH2 0x1556 JUMPI PUSH1 0x0 DUP1 REVERT JUMPDEST PUSH1 0x40 MSTORE SWAP2 SWAP1 POP JUMP JUMPDEST PUSH1 0x0 PUSH8 0xFFFFFFFFFFFFFFFF DUP3 GT ISZERO PUSH2 0x1575 JUMPI PUSH1 0x0 DUP1 REVERT JUMPDEST POP PUSH1 0x20 PUSH1 0x1F SWAP2 SWAP1 SWAP2 ADD PUSH1 0x1F NOT AND ADD SWAP1 JUMP JUMPDEST MLOAD SWAP1 JUMP JUMPDEST PUSH1 0x1 PUSH1 0xA0 PUSH1 0x2 EXP SUB AND SWAP1 JUMP JUMPDEST ISZERO ISZERO SWAP1 JUMP JUMPDEST SWAP1 JUMP JUMPDEST PUSH1 0xFF AND SWAP1 JUMP JUMPDEST DUP3 DUP2 DUP4 CALLDATACOPY POP PUSH1 0x0 SWAP2 ADD MSTORE JUMP JUMPDEST PUSH1 0x0 JUMPDEST DUP4 DUP2 LT ISZERO PUSH2 0x15CB JUMPI DUP2 DUP2 ADD MLOAD DUP4 DUP3 ADD MSTORE PUSH1 0x20 ADD PUSH2 0x15B3 JUMP JUMPDEST DUP4 DUP2 GT ISZERO PUSH2 0x15DA JUMPI PUSH1 0x0 DUP5 DUP5 ADD MSTORE JUMPDEST POP POP POP POP JUMP JUMPDEST PUSH1 0x1F ADD PUSH1 0x1F NOT AND SWAP1 JUMP STOP LOG2 PUSH6 0x627A7A723058 KECCAK256 0x4a 0xbd CALLER 0xda 0xf8 EXP 0xd2 0xd2 0xd4 0xee 0xc3 SDIV 0xc7 PUSH11 0xC9A479ED80EBC3A5671BAA SWAP10 EXP PUSH20 0x2A53A98F6C6578706572696D656E74616CF50037 "
			}
		}
	},
	"sourceTreeHashHex": "0x2279ae28892d84c34b1c53418091a11d3b820dfb03695e0d1d55749b99c0abee",
	"compiler": {
		"name": "solc",
		"version": "soljson-v0.4.24+commit.e67f0147.js",
		"settings": {
			"optimizer": {
				"enabled": true,
				"runs": 200
			},
			"outputSelection": {
				"*": {
					"*": [
						"abi",
						"evm.bytecode.object",
						"evm.bytecode.sourceMap",
						"evm.deployedBytecode.object",
						"evm.deployedBytecode.sourceMap"
					]
				}
			}
		}
	}
}