{
	"schemaVersion": "2.0.0",
	"contractName": "TestLibBytes",
	"compilerOutput": {
		"abi": [
			{
				"constant": true,
				"inputs": [
					{
						"name": "lhs",
						"type": "bytes"
					},
					{
						"name": "rhs",
						"type": "bytes"
					}
				],
				"name": "publicAreBytesEqual",
				"outputs": [
					{
						"name": "equal",
						"type": "bool"
					}
				],
				"payable": false,
				"stateMutability": "pure",
				"type": "function"
			},
			{
				"constant": true,
				"inputs": [
					{
						"name": "b",
						"type": "bytes"
					}
				],
				"name": "publicPopAddress",
				"outputs": [
					{
						"name": "",
						"type": "bytes"
					},
					{
						"name": "result",
						"type": "address"
					}
				],
				"payable": false,
				"stateMutability": "pure",
				"type": "function"
			},
			{
				"constant": true,
				"inputs": [
					{
						"name": "b",
						"type": "bytes"
					},
					{
						"name": "index",
						"type": "uint256"
					},
					{
						"name": "input",
						"type": "address"
					}
				],
				"name": "publicWriteAddress",
				"outputs": [
					{
						"name": "",
						"type": "bytes"
					}
				],
				"payable": false,
				"stateMutability": "pure",
				"type": "function"
			},
			{
				"constant": true,
				"inputs": [
					{
						"name": "b",
						"type": "bytes"
					}
				],
				"name": "publicReadFirst4",
				"outputs": [
					{
						"name": "result",
						"type": "bytes4"
					}
				],
				"payable": false,
				"stateMutability": "pure",
				"type": "function"
			},
			{
				"constant": true,
				"inputs": [
					{
						"name": "b",
						"type": "bytes"
					}
				],
				"name": "publicPopByte",
				"outputs": [
					{
						"name": "",
						"type": "bytes"
					},
					{
						"name": "result",
						"type": "bytes1"
					}
				],
				"payable": false,
				"stateMutability": "pure",
				"type": "function"
			},
			{
				"constant": true,
				"inputs": [
					{
						"name": "b",
						"type": "bytes"
					},
					{
						"name": "index",
						"type": "uint256"
					}
				],
				"name": "publicReadAddress",
				"outputs": [
					{
						"name": "result",
						"type": "address"
					}
				],
				"payable": false,
				"stateMutability": "pure",
				"type": "function"
			},
			{
				"constant": true,
				"inputs": [
					{
						"name": "b",
						"type": "bytes"
					},
					{
						"name": "index",
						"type": "uint256"
					},
					{
						"name": "input",
						"type": "bytes32"
					}
				],
				"name": "publicWriteBytes32",
				"outputs": [
					{
						"name": "",
						"type": "bytes"
					}
				],
				"payable": false,
				"stateMutability": "pure",
				"type": "function"
			},
			{
				"constant": true,
				"inputs": [
					{
						"name": "b",
						"type": "bytes"
					},
					{
						"name": "index",
						"type": "uint256"
					},
					{
						"name": "input",
						"type": "uint256"
					}
				],
				"name": "publicWriteUint256",
				"outputs": [
					{
						"name": "",
						"type": "bytes"
					}
				],
				"payable": false,
				"stateMutability": "pure",
				"type": "function"
			},
			{
				"constant": true,
				"inputs": [
					{
						"name": "b",
						"type": "bytes"
					},
					{
						"name": "index",
						"type": "uint256"
					}
				],
				"name": "publicReadBytes32",
				"outputs": [
					{
						"name": "result",
						"type": "bytes32"
					}
				],
				"payable": false,
				"stateMutability": "pure",
				"type": "function"
			},
			{
				"constant": true,
				"inputs": [
					{
						"name": "b",
						"type": "bytes"
					},
					{
						"name": "index",
						"type": "uint256"
					}
				],
				"name": "publicReadUint256",
				"outputs": [
					{
						"name": "result",
						"type": "uint256"
					}
				],
				"payable": false,
				"stateMutability": "pure",
				"type": "function"
			}
		],
		"evm": {
			"bytecode": {
				"linkReferences": {},
				"object": "0x608060405234801561001057600080fd5b50610aa8806100206000396000f30060806040526004361061008a5763ffffffff60e060020a6000350416630945c63b811461008f57806329f00d5c146100c55780633f2a25ec146100f3578063595fe547146101205780637356f5f31461014d57806382e2fa241461017b57806384f87758146101a8578063b79650a4146101c8578063be766f1b146101e8578063e3a85ce414610215575b600080fd5b34801561009b57600080fd5b506100af6100aa36600461072f565b610235565b6040516100bc919061090e565b60405180910390f35b3480156100d157600080fd5b506100e56100e03660046106f3565b61024a565b6040516100bc929190610949565b3480156100ff57600080fd5b5061011361010e3660046107dc565b61025e565b6040516100bc9190610938565b34801561012c57600080fd5b5061014061013b3660046106f3565b610275565b6040516100bc919061092a565b34801561015957600080fd5b5061016d6101683660046106f3565b610280565b6040516100bc929190610969565b34801561018757600080fd5b5061019b610196366004610796565b61028d565b6040516100bc9190610900565b3480156101b457600080fd5b506101136101c336600461083f565b610299565b3480156101d457600080fd5b506101136101e336600461083f565b6102a6565b3480156101f457600080fd5b50610208610203366004610796565b6102b3565b6040516100bc919061091c565b34801561022157600080fd5b50610208610230366004610796565b6102bf565b600061024183836102cb565b90505b92915050565b6060600061025783610312565b9293915050565b606061026b84848461039e565b50825b9392505050565b60006102448261041f565b606060006102578361048e565b60006102418383610518565b606061026b848484610594565b606061026b848484610604565b60006102418383610614565b600061024183836102b3565b60006020601f8451010460018101905060005b8181101561030a57602081028581015190850151808214945084610300578392505b50506001016102de565b505092915050565b6000601482511015606060405190810160405280602b8152602001600080516020610a4f833981519152815260200160a960020a6a38bab0b6103a3790191817028152509015156103825760405160e560020a62461bcd0281526004016103799190610938565b60405180910390fd5b50610391826014845103610518565b8251601319019092525090565b8160140183511015606060405190810160405280602b8152602001600080516020610a4f833981519152815260200160a960020a6a38bab0b6103a3790191817028152509015156104055760405160e560020a62461bcd0281526004016103799190610938565b5091016014018051600160a060020a031916919091189052565b6000600482511015606060405190810160405280602a8152602001600080516020610a4f833981519152815260200160b160020a6938bab0b6103a37901a17028152509015156104855760405160e560020a62461bcd0281526004016103799190610938565b50506020015190565b805160408051808201909152601e81527f4c656e677468206d7573742062652067726561746572207468616e20302e0000602082015260009182106104e95760405160e560020a62461bcd0281526004016103799190610938565b508151829060001981019081106104fc57fe5b01602001518251600019019092525060f860020a908190040290565b60008160140183511015606060405190810160405280602b8152602001600080516020610a4f833981519152815260200160a960020a6a38bab0b6103a3790191817028152509015156105815760405160e560020a62461bcd0281526004016103799190610938565b50500160140151600160a060020a031690565b8160200183511015606060405190810160405280602b8152602001600080516020610a4f833981519152815260200160a960020a6a38bab0b6103a3790199917028152509015156105fb5760405160e560020a62461bcd0281526004016103799190610938565b50910160200152565b61060f838383610594565b505050565b60008160200183511015606060405190810160405280602b8152602001600080516020610a4f833981519152815260200160a960020a6a38bab0b6103a37901999170281525090151561067d5760405160e560020a62461bcd0281526004016103799190610938565b5050016020015190565b600061026e82356109da565b600061026e82356109f8565b6000601f820183136106b057600080fd5b81356106c36106be826109af565b610989565b915080825260208301602083018583830111156106df57600080fd5b6106ea838284610a08565b50505092915050565b60006020828403121561070557600080fd5b81356001604060020a0381111561071b57600080fd5b6107278482850161069f565b949350505050565b6000806040838503121561074257600080fd5b82356001604060020a0381111561075857600080fd5b6107648582860161069f565b92505060208301356001604060020a0381111561078057600080fd5b61078c8582860161069f565b9150509250929050565b600080604083850312156107a957600080fd5b82356001604060020a038111156107bf57600080fd5b6107cb8582860161069f565b925050602061078c85828601610693565b6000806000606084860312156107f157600080fd5b83356001604060020a0381111561080757600080fd5b6108138682870161069f565b935050602061082486828701610693565b925050604061083586828701610687565b9150509250925092565b60008060006060848603121561085457600080fd5b83356001604060020a0381111561086a57600080fd5b6108768682870161069f565b935050602061088786828701610693565b925050604061083586828701610693565b6108a1816109da565b82525050565b6108a1816109e6565b6108a1816109eb565b6108a1816109f8565b6108a1816109fb565b60006108d6826109d6565b8084526108ea816020860160208601610a14565b6108f381610a44565b9093016020019392505050565b602081016102448284610898565b6020810161024482846108a7565b6020810161024482846108b9565b6020810161024482846108c2565b6020808252810161026e81846108cb565b6040808252810161095a81856108cb565b905061026e6020830184610898565b6040808252810161097a81856108cb565b905061026e60208301846108b0565b6040518181016001604060020a03811182821017156109a757600080fd5b604052919050565b60006001604060020a038211156109c557600080fd5b506020601f91909101601f19160190565b5190565b600160a060020a031690565b151590565b600160f860020a03191690565b90565b600160e060020a03191690565b82818337506000910152565b60005b83811015610a2f578181015183820152602001610a17565b83811115610a3e576000848401525b50505050565b601f01601f19169056004c656e677468206d7573742062652067726561746572207468616e206f722065a265627a7a7230582025b5874dc91d4764c8f62ebdd898ed3062512725d11547097af9baaa4550b7f66c6578706572696d656e74616cf50037",
				"opcodes": "PUSH1 0x80 PUSH1 0x40 MSTORE CALLVALUE DUP1 ISZERO PUSH2 0x10 JUMPI PUSH1 0x0 DUP1 REVERT JUMPDEST POP PUSH2 0xAA8 DUP1 PUSH2 0x20 PUSH1 0x0 CODECOPY PUSH1 0x0 RETURN STOP PUSH1 0x80 PUSH1 0x40 MSTORE PUSH1 0x4 CALLDATASIZE LT PUSH2 0x8A JUMPI PUSH4 0xFFFFFFFF PUSH1 0xE0 PUSH1 0x2 EXP PUSH1 0x0 CALLDATALOAD DIV AND PUSH4 0x945C63B DUP2 EQ PUSH2 0x8F JUMPI DUP1 PUSH4 0x29F00D5C EQ PUSH2 0xC5 JUMPI DUP1 PUSH4 0x3F2A25EC EQ PUSH2 0xF3 JUMPI DUP1 PUSH4 0x595FE547 EQ PUSH2 0x120 JUMPI DUP1 PUSH4 0x7356F5F3 EQ PUSH2 0x14D JUMPI DUP1 PUSH4 0x82E2FA24 EQ PUSH2 0x17B JUMPI DUP1 PUSH4 0x84F87758 EQ PUSH2 0x1A8 JUMPI DUP1 PUSH4 0xB79650A4 EQ PUSH2 0x1C8 JUMPI DUP1 PUSH4 0xBE766F1B EQ PUSH2 0x1E8 JUMPI DUP1 PUSH4 0xE3A85CE4 EQ PUSH2 0x215 JUMPI JUMPDEST PUSH1 0x0 DUP1 REVERT JUMPDEST CALLVALUE DUP1 ISZERO PUSH2 0x9B JUMPI PUSH1 0x0 DUP1 REVERT JUMPDEST POP PUSH2 0xAF PUSH2 0xAA CALLDATASIZE PUSH1 0x4 PUSH2 0x72F JUMP JUMPDEST PUSH2 0x235 JUMP JUMPDEST PUSH1 0x40 MLOAD PUSH2 0xBC SWAP2 SWAP1 PUSH2 0x90E JUMP JUMPDEST PUSH1 0x40 MLOAD DUP1 SWAP2 SUB SWAP1 RETURN JUMPDEST CALLVALUE DUP1 ISZERO PUSH2 0xD1 JUMPI PUSH1 0x0 DUP1 REVERT JUMPDEST POP PUSH2 0xE5 PUSH2 0xE0 CALLDATASIZE PUSH1 0x4 PUSH2 0x6F3 JUMP JUMPDEST PUSH2 0x24A JUMP JUMPDEST PUSH1 0x40 MLOAD PUSH2 0xBC SWAP3 SWAP2 SWAP1 PUSH2 0x949 JUMP JUMPDEST CALLVALUE DUP1 ISZERO PUSH2 0xFF JUMPI PUSH1 0x0 DUP1 REVERT JUMPDEST POP PUSH2 0x113 PUSH2 0x10E CALLDATASIZE PUSH1 0x4 PUSH2 0x7DC JUMP JUMPDEST PUSH2 0x25E JUMP JUMPDEST PUSH1 0x40 MLOAD PUSH2 0xBC SWAP2 SWAP1 PUSH2 0x938 JUMP JUMPDEST CALLVALUE DUP1 ISZERO PUSH2 0x12C JUMPI PUSH1 0x0 DUP1 REVERT JUMPDEST POP PUSH2 0x140 PUSH2 0x13B CALLDATASIZE PUSH1 0x4 PUSH2 0x6F3 JUMP JUMPDEST PUSH2 0x275 JUMP JUMPDEST PUSH1 0x40 MLOAD PUSH2 0xBC SWAP2 SWAP1 PUSH2 0x92A JUMP JUMPDEST CALLVALUE DUP1 ISZERO PUSH2 0x159 JUMPI PUSH1 0x0 DUP1 REVERT JUMPDEST POP PUSH2 0x16D PUSH2 0x168 CALLDATASIZE PUSH1 0x4 PUSH2 0x6F3 JUMP JUMPDEST PUSH2 0x280 JUMP JUMPDEST PUSH1 0x40 MLOAD PUSH2 0xBC SWAP3 SWAP2 SWAP1 PUSH2 0x969 JUMP JUMPDEST CALLVALUE DUP1 ISZERO PUSH2 0x187 JUMPI PUSH1 0x0 DUP1 REVERT JUMPDEST POP PUSH2 0x19B PUSH2 0x196 CALLDATASIZE PUSH1 0x4 PUSH2 0x796 JUMP JUMPDEST PUSH2 0x28D JUMP JUMPDEST PUSH1 0x40 MLOAD PUSH2 0xBC SWAP2 SWAP1 PUSH2 0x900 JUMP JUMPDEST CALLVALUE DUP1 ISZERO PUSH2 0x1B4 JUMPI PUSH1 0x0 DUP1 REVERT JUMPDEST POP PUSH2 0x113 PUSH2 0x1C3 CALLDATASIZE PUSH1 0x4 PUSH2 0x83F JUMP JUMPDEST PUSH2 0x299 JUMP JUMPDEST CALLVALUE DUP1 ISZERO PUSH2 0x1D4 JUMPI PUSH1 0x0 DUP1 REVERT JUMPDEST POP PUSH2 0x113 PUSH2 0x1E3 CALLDATASIZE PUSH1 0x4 PUSH2 0x83F JUMP JUMPDEST PUSH2 0x2A6 JUMP JUMPDEST CALLVALUE DUP1 ISZERO PUSH2 0x1F4 JUMPI PUSH1 0x0 DUP1 REVERT JUMPDEST POP PUSH2 0x208 PUSH2 0x203 CALLDATASIZE PUSH1 0x4 PUSH2 0x796 JUMP JUMPDEST PUSH2 0x2B3 JUMP JUMPDEST PUSH1 0x40 MLOAD PUSH2 0xBC SWAP2 SWAP1 PUSH2 0x91C JUMP JUMPDEST CALLVALUE DUP1 ISZERO PUSH2 0x221 JUMPI PUSH1 0x0 DUP1 REVERT JUMPDEST POP PUSH2 0x208 PUSH2 0x230 CALLDATASIZE PUSH1 0x4 PUSH2 0x796 JUMP JUMPDEST PUSH2 0x2BF JUMP JUMPDEST PUSH1 0x0 PUSH2 0x241 DUP4 DUP4 PUSH2 0x2CB JUMP JUMPDEST SWAP1 POP JUMPDEST SWAP3 SWAP2 POP POP JUMP JUMPDEST PUSH1 0x60 PUSH1 0x0 PUSH2 0x257 DUP4 PUSH2 0x312 JUMP JUMPDEST SWAP3 SWAP4 SWAP2 POP POP JUMP JUMPDEST PUSH1 0x60 PUSH2 0x26B DUP5 DUP5 DUP5 PUSH2 0x39E JUMP JUMPDEST POP DUP3 JUMPDEST SWAP4 SWAP3 POP POP POP JUMP JUMPDEST PUSH1 0x0 PUSH2 0x244 DUP3 PUSH2 0x41F JUMP JUMPDEST PUSH1 0x60 PUSH1 0x0 PUSH2 0x257 DUP4 PUSH2 0x48E JUMP JUMPDEST PUSH1 0x0 PUSH2 0x241 DUP4 DUP4 PUSH2 0x518 JUMP JUMPDEST PUSH1 0x60 PUSH2 0x26B DUP5 DUP5 DUP5 PUSH2 0x594 JUMP JUMPDEST PUSH1 0x60 PUSH2 0x26B DUP5 DUP5 DUP5 PUSH2 0x604 JUMP JUMPDEST PUSH1 0x0 PUSH2 0x241 DUP4 DUP4 PUSH2 0x614 JUMP JUMPDEST PUSH1 0x0 PUSH2 0x241 DUP4 DUP4 PUSH2 0x2B3 JUMP JUMPDEST PUSH1 0x0 PUSH1 0x20 PUSH1 0x1F DUP5 MLOAD ADD DIV PUSH1 0x1 DUP2 ADD SWAP1 POP PUSH1 0x0 JUMPDEST DUP2 DUP2 LT ISZERO PUSH2 0x30A JUMPI PUSH1 0x20 DUP2 MUL DUP6 DUP2 ADD MLOAD SWAP1 DUP6 ADD MLOAD DUP1 DUP3 EQ SWAP5 POP DUP5 PUSH2 0x300 JUMPI DUP4 SWAP3 POP JUMPDEST POP POP PUSH1 0x1 ADD PUSH2 0x2DE JUMP JUMPDEST POP POP SWAP3 SWAP2 POP POP JUMP JUMPDEST PUSH1 0x0 PUSH1 0x14 DUP3 MLOAD LT ISZERO PUSH1 0x60 PUSH1 0x40 MLOAD SWAP1 DUP2 ADD PUSH1 0x40 MSTORE DUP1 PUSH1 0x2B DUP2 MSTORE PUSH1 0x20 ADD PUSH1 0x0 DUP1 MLOAD PUSH1 0x20 PUSH2 0xA4F DUP4 CODECOPY DUP2 MLOAD SWAP2 MSTORE DUP2 MSTORE PUSH1 0x20 ADD PUSH1 0xA9 PUSH1 0x2 EXP PUSH11 0x38BAB0B6103A3790191817 MUL DUP2 MSTORE POP SWAP1 ISZERO ISZERO PUSH2 0x382 JUMPI PUSH1 0x40 MLOAD PUSH1 0xE5 PUSH1 0x2 EXP PUSH3 0x461BCD MUL DUP2 MSTORE PUSH1 0x4 ADD PUSH2 0x379 SWAP2 SWAP1 PUSH2 0x938 JUMP JUMPDEST PUSH1 0x40 MLOAD DUP1 SWAP2 SUB SWAP1 REVERT JUMPDEST POP PUSH2 0x391 DUP3 PUSH1 0x14 DUP5 MLOAD SUB PUSH2 0x518 JUMP JUMPDEST DUP3 MLOAD PUSH1 0x13 NOT ADD SWAP1 SWAP3 MSTORE POP SWAP1 JUMP JUMPDEST DUP2 PUSH1 0x14 ADD DUP4 MLOAD LT ISZERO PUSH1 0x60 PUSH1 0x40 MLOAD SWAP1 DUP2 ADD PUSH1 0x40 MSTORE DUP1 PUSH1 0x2B DUP2 MSTORE PUSH1 0x20 ADD PUSH1 0x0 DUP1 MLOAD PUSH1 0x20 PUSH2 0xA4F DUP4 CODECOPY DUP2 MLOAD SWAP2 MSTORE DUP2 MSTORE PUSH1 0x20 ADD PUSH1 0xA9 PUSH1 0x2 EXP PUSH11 0x38BAB0B6103A3790191817 MUL DUP2 MSTORE POP SWAP1 ISZERO ISZERO PUSH2 0x405 JUMPI PUSH1 0x40 MLOAD PUSH1 0xE5 PUSH1 0x2 EXP PUSH3 0x461BCD MUL DUP2 MSTORE PUSH1 0x4 ADD PUSH2 0x379 SWAP2 SWAP1 PUSH2 0x938 JUMP JUMPDEST POP SWAP2 ADD PUSH1 0x14 ADD DUP1 MLOAD PUSH1 0x1 PUSH1 0xA0 PUSH1 0x2 EXP SUB NOT AND SWAP2 SWAP1 SWAP2 XOR SWAP1 MSTORE JUMP JUMPDEST PUSH1 0x0 PUSH1 0x4 DUP3 MLOAD LT ISZERO PUSH1 0x60 PUSH1 0x40 MLOAD SWAP1 DUP2 ADD PUSH1 0x40 MSTORE DUP1 PUSH1 0x2A DUP2 MSTORE PUSH1 0x20 ADD PUSH1 0x0 DUP1 MLOAD PUSH1 0x20 PUSH2 0xA4F DUP4 CODECOPY DUP2 MLOAD SWAP2 MSTORE DUP2 MSTORE PUSH1 0x20 ADD PUSH1 0xB1 PUSH1 0x2 EXP PUSH10 0x38BAB0B6103A37901A17 MUL DUP2 MSTORE POP SWAP1 ISZERO ISZERO PUSH2 0x485 JUMPI PUSH1 0x40 MLOAD PUSH1 0xE5 PUSH1 0x2 EXP PUSH3 0x461BCD MUL DUP2 MSTORE PUSH1 0x4 ADD PUSH2 0x379 SWAP2 SWAP1 PUSH2 0x938 JUMP JUMPDEST POP POP PUSH1 0x20 ADD MLOAD SWAP1 JUMP JUMPDEST DUP1 MLOAD PUSH1 0x40 DUP1 MLOAD DUP1 DUP3 ADD SWAP1 SWAP2 MSTORE PUSH1 0x1E DUP2 MSTORE PUSH32 0x4C656E677468206D7573742062652067726561746572207468616E20302E0000 PUSH1 0x20 DUP3 ADD MSTORE PUSH1 0x0 SWAP2 DUP3 LT PUSH2 0x4E9 JUMPI PUSH1 0x40 MLOAD PUSH1 0xE5 PUSH1 0x2 EXP PUSH3 0x461BCD MUL DUP2 MSTORE PUSH1 0x4 ADD PUSH2 0x379 SWAP2 SWAP1 PUSH2 0x938 JUMP JUMPDEST POP DUP2 MLOAD DUP3 SWAP1 PUSH1 0x0 NOT DUP2 ADD SWAP1 DUP2 LT PUSH2 0x4FC JUMPI INVALID JUMPDEST ADD PUSH1 0x20 ADD MLOAD DUP3 MLOAD PUSH1 0x0 NOT ADD SWAP1 SWAP3 MSTORE POP PUSH1 0xF8 PUSH1 0x2 EXP SWAP1 DUP2 SWAP1 DIV MUL SWAP1 JUMP JUMPDEST PUSH1 0x0 DUP2 PUSH1 0x14 ADD DUP4 MLOAD LT ISZERO PUSH1 0x60 PUSH1 0x40 MLOAD SWAP1 DUP2 ADD PUSH1 0x40 MSTORE DUP1 PUSH1 0x2B DUP2 MSTORE PUSH1 0x20 ADD PUSH1 0x0 DUP1 MLOAD PUSH1 0x20 PUSH2 0xA4F DUP4 CODECOPY DUP2 MLOAD SWAP2 MSTORE DUP2 MSTORE PUSH1 0x20 ADD PUSH1 0xA9 PUSH1 0x2 EXP PUSH11 0x38BAB0B6103A3790191817 MUL DUP2 MSTORE POP SWAP1 ISZERO ISZERO PUSH2 0x581 JUMPI PUSH1 0x40 MLOAD PUSH1 0xE5 PUSH1 0x2 EXP PUSH3 0x461BCD MUL DUP2 MSTORE PUSH1 0x4 ADD PUSH2 0x379 SWAP2 SWAP1 PUSH2 0x938 JUMP JUMPDEST POP POP ADD PUSH1 0x14 ADD MLOAD PUSH1 0x1 PUSH1 0xA0 PUSH1 0x2 EXP SUB AND SWAP1 JUMP JUMPDEST DUP2 PUSH1 0x20 ADD DUP4 MLOAD LT ISZERO PUSH1 0x60 PUSH1 0x40 MLOAD SWAP1 DUP2 ADD PUSH1 0x40 MSTORE DUP1 PUSH1 0x2B DUP2 MSTORE PUSH1 0x20 ADD PUSH1 0x0 DUP1 MLOAD PUSH1 0x20 PUSH2 0xA4F DUP4 CODECOPY DUP2 MLOAD SWAP2 MSTORE DUP2 MSTORE PUSH1 0x20 ADD PUSH1 0xA9 PUSH1 0x2 EXP PUSH11 0x38BAB0B6103A3790199917 MUL DUP2 MSTORE POP SWAP1 ISZERO ISZERO PUSH2 0x5FB JUMPI PUSH1 0x40 MLOAD PUSH1 0xE5 PUSH1 0x2 EXP PUSH3 0x461BCD MUL DUP2 MSTORE PUSH1 0x4 ADD PUSH2 0x379 SWAP2 SWAP1 PUSH2 0x938 JUMP JUMPDEST POP SWAP2 ADD PUSH1 0x20 ADD MSTORE JUMP JUMPDEST PUSH2 0x60F DUP4 DUP4 DUP4 PUSH2 0x594 JUMP JUMPDEST POP POP POP JUMP JUMPDEST PUSH1 0x0 DUP2 PUSH1 0x20 ADD DUP4 MLOAD LT ISZERO PUSH1 0x60 PUSH1 0x40 MLOAD SWAP1 DUP2 ADD PUSH1 0x40 MSTORE DUP1 PUSH1 0x2B DUP2 MSTORE PUSH1 0x20 ADD PUSH1 0x0 DUP1 MLOAD PUSH1 0x20 PUSH2 0xA4F DUP4 CODECOPY DUP2 MLOAD SWAP2 MSTORE DUP2 MSTORE PUSH1 0x20 ADD PUSH1 0xA9 PUSH1 0x2 EXP PUSH11 0x38BAB0B6103A3790199917 MUL DUP2 MSTORE POP SWAP1 ISZERO ISZERO PUSH2 0x67D JUMPI PUSH1 0x40 MLOAD PUSH1 0xE5 PUSH1 0x2 EXP PUSH3 0x461BCD MUL DUP2 MSTORE PUSH1 0x4 ADD PUSH2 0x379 SWAP2 SWAP1 PUSH2 0x938 JUMP JUMPDEST POP POP ADD PUSH1 0x20 ADD MLOAD SWAP1 JUMP JUMPDEST PUSH1 0x0 PUSH2 0x26E DUP3 CALLDATALOAD PUSH2 0x9DA JUMP JUMPDEST PUSH1 0x0 PUSH2 0x26E DUP3 CALLDATALOAD PUSH2 0x9F8 JUMP JUMPDEST PUSH1 0x0 PUSH1 0x1F DUP3 ADD DUP4 SGT PUSH2 0x6B0 JUMPI PUSH1 0x0 DUP1 REVERT JUMPDEST DUP2 CALLDATALOAD PUSH2 0x6C3 PUSH2 0x6BE DUP3 PUSH2 0x9AF JUMP JUMPDEST PUSH2 0x989 JUMP JUMPDEST SWAP2 POP DUP1 DUP3 MSTORE PUSH1 0x20 DUP4 ADD PUSH1 0x20 DUP4 ADD DUP6 DUP4 DUP4 ADD GT ISZERO PUSH2 0x6DF JUMPI PUSH1 0x0 DUP1 REVERT JUMPDEST PUSH2 0x6EA DUP4 DUP3 DUP5 PUSH2 0xA08 JUMP JUMPDEST POP POP POP SWAP3 SWAP2 POP POP JUMP JUMPDEST PUSH1 0x0 PUSH1 0x20 DUP3 DUP5 SUB SLT ISZERO PUSH2 0x705 JUMPI PUSH1 0x0 DUP1 REVERT JUMPDEST DUP2 CALLDATALOAD PUSH1 0x1 PUSH1 0x40 PUSH1 0x2 EXP SUB DUP2 GT ISZERO PUSH2 0x71B JUMPI PUSH1 0x0 DUP1 REVERT JUMPDEST PUSH2 0x727 DUP5 DUP3 DUP6 ADD PUSH2 0x69F JUMP JUMPDEST SWAP5 SWAP4 POP POP POP POP JUMP JUMPDEST PUSH1 0x0 DUP1 PUSH1 0x40 DUP4 DUP6 SUB SLT ISZERO PUSH2 0x742 JUMPI PUSH1 0x0 DUP1 REVERT JUMPDEST DUP3 CALLDATALOAD PUSH1 0x1 PUSH1 0x40 PUSH1 0x2 EXP SUB DUP2 GT ISZERO PUSH2 0x758 JUMPI PUSH1 0x0 DUP1 REVERT JUMPDEST PUSH2 0x764 DUP6 DUP3 DUP7 ADD PUSH2 0x69F JUMP JUMPDEST SWAP3 POP POP PUSH1 0x20 DUP4 ADD CALLDATALOAD PUSH1 0x1 PUSH1 0x40 PUSH1 0x2 EXP SUB DUP2 GT ISZERO PUSH2 0x780 JUMPI PUSH1 0x0 DUP1 REVERT JUMPDEST PUSH2 0x78C DUP6 DUP3 DUP7 ADD PUSH2 0x69F JUMP JUMPDEST SWAP2 POP POP SWAP3 POP SWAP3 SWAP1 POP JUMP JUMPDEST PUSH1 0x0 DUP1 PUSH1 0x40 DUP4 DUP6 SUB SLT ISZERO PUSH2 0x7A9 JUMPI PUSH1 0x0 DUP1 REVERT JUMPDEST DUP3 CALLDATALOAD PUSH1 0x1 PUSH1 0x40 PUSH1 0x2 EXP SUB DUP2 GT ISZERO PUSH2 0x7BF JUMPI PUSH1 0x0 DUP1 REVERT JUMPDEST PUSH2 0x7CB DUP6 DUP3 DUP7 ADD PUSH2 0x69F JUMP JUMPDEST SWAP3 POP POP PUSH1 0x20 PUSH2 0x78C DUP6 DUP3 DUP7 ADD PUSH2 0x693 JUMP JUMPDEST PUSH1 0x0 DUP1 PUSH1 0x0 PUSH1 0x60 DUP5 DUP7 SUB SLT ISZERO PUSH2 0x7F1 JUMPI PUSH1 0x0 DUP1 REVERT JUMPDEST DUP4 CALLDATALOAD PUSH1 0x1 PUSH1 0x40 PUSH1 0x2 EXP SUB DUP2 GT ISZERO PUSH2 0x807 JUMPI PUSH1 0x0 DUP1 REVERT JUMPDEST PUSH2 0x813 DUP7 DUP3 DUP8 ADD PUSH2 0x69F JUMP JUMPDEST SWAP4 POP POP PUSH1 0x20 PUSH2 0x824 DUP7 DUP3 DUP8 ADD PUSH2 0x693 JUMP JUMPDEST SWAP3 POP POP PUSH1 0x40 PUSH2 0x835 DUP7 DUP3 DUP8 ADD PUSH2 0x687 JUMP JUMPDEST SWAP2 POP POP SWAP3 POP SWAP3 POP SWAP3 JUMP JUMPDEST PUSH1 0x0 DUP1 PUSH1 0x0 PUSH1 0x60 DUP5 DUP7 SUB SLT ISZERO PUSH2 0x854 JUMPI PUSH1 0x0 DUP1 REVERT JUMPDEST DUP4 CALLDATALOAD PUSH1 0x1 PUSH1 0x40 PUSH1 0x2 EXP SUB DUP2 GT ISZERO PUSH2 0x86A JUMPI PUSH1 0x0 DUP1 REVERT JUMPDEST PUSH2 0x876 DUP7 DUP3 DUP8 ADD PUSH2 0x69F JUMP JUMPDEST SWAP4 POP POP PUSH1 0x20 PUSH2 0x887 DUP7 DUP3 DUP8 ADD PUSH2 0x693 JUMP JUMPDEST SWAP3 POP POP PUSH1 0x40 PUSH2 0x835 DUP7 DUP3 DUP8 ADD PUSH2 0x693 JUMP JUMPDEST PUSH2 0x8A1 DUP2 PUSH2 0x9DA JUMP JUMPDEST DUP3 MSTORE POP POP JUMP JUMPDEST PUSH2 0x8A1 DUP2 PUSH2 0x9E6 JUMP JUMPDEST PUSH2 0x8A1 DUP2 PUSH2 0x9EB JUMP JUMPDEST PUSH2 0x8A1 DUP2 PUSH2 0x9F8 JUMP JUMPDEST PUSH2 0x8A1 DUP2 PUSH2 0x9FB JUMP JUMPDEST PUSH1 0x0 PUSH2 0x8D6 DUP3 PUSH2 0x9D6 JUMP JUMPDEST DUP1 DUP5 MSTORE PUSH2 0x8EA DUP2 PUSH1 0x20 DUP7 ADD PUSH1 0x20 DUP7 ADD PUSH2 0xA14 JUMP JUMPDEST PUSH2 0x8F3 DUP2 PUSH2 0xA44 JUMP JUMPDEST SWAP1 SWAP4 ADD PUSH1 0x20 ADD SWAP4 SWAP3 POP POP POP JUMP JUMPDEST PUSH1 0x20 DUP2 ADD PUSH2 0x244 DUP3 DUP5 PUSH2 0x898 JUMP JUMPDEST PUSH1 0x20 DUP2 ADD PUSH2 0x244 DUP3 DUP5 PUSH2 0x8A7 JUMP JUMPDEST PUSH1 0x20 DUP2 ADD PUSH2 0x244 DUP3 DUP5 PUSH2 0x8B9 JUMP JUMPDEST PUSH1 0x20 DUP2 ADD PUSH2 0x244 DUP3 DUP5 PUSH2 0x8C2 JUMP JUMPDEST PUSH1 0x20 DUP1 DUP3 MSTORE DUP2 ADD PUSH2 0x26E DUP2 DUP5 PUSH2 0x8CB JUMP JUMPDEST PUSH1 0x40 DUP1 DUP3 MSTORE DUP2 ADD PUSH2 0x95A DUP2 DUP6 PUSH2 0x8CB JUMP JUMPDEST SWAP1 POP PUSH2 0x26E PUSH1 0x20 DUP4 ADD DUP5 PUSH2 0x898 JUMP JUMPDEST PUSH1 0x40 DUP1 DUP3 MSTORE DUP2 ADD PUSH2 0x97A DUP2 DUP6 PUSH2 0x8CB JUMP JUMPDEST SWAP1 POP PUSH2 0x26E PUSH1 0x20 DUP4 ADD DUP5 PUSH2 0x8B0 JUMP JUMPDEST PUSH1 0x40 MLOAD DUP2 DUP2 ADD PUSH1 0x1 PUSH1 0x40 PUSH1 0x2 EXP SUB DUP2 GT DUP3 DUP3 LT OR ISZERO PUSH2 0x9A7 JUMPI PUSH1 0x0 DUP1 REVERT JUMPDEST PUSH1 0x40 MSTORE SWAP2 SWAP1 POP JUMP JUMPDEST PUSH1 0x0 PUSH1 0x1 PUSH1 0x40 PUSH1 0x2 EXP SUB DUP3 GT ISZERO PUSH2 0x9C5 JUMPI PUSH1 0x0 DUP1 REVERT JUMPDEST POP PUSH1 0x20 PUSH1 0x1F SWAP2 SWAP1 SWAP2 ADD PUSH1 0x1F NOT AND ADD SWAP1 JUMP JUMPDEST MLOAD SWAP1 JUMP JUMPDEST PUSH1 0x1 PUSH1 0xA0 PUSH1 0x2 EXP SUB AND SWAP1 JUMP JUMPDEST ISZERO ISZERO SWAP1 JUMP JUMPDEST PUSH1 0x1 PUSH1 0xF8 PUSH1 0x2 EXP SUB NOT AND SWAP1 JUMP JUMPDEST SWAP1 JUMP JUMPDEST PUSH1 0x1 PUSH1 0xE0 PUSH1 0x2 EXP SUB NOT AND SWAP1 JUMP JUMPDEST DUP3 DUP2 DUP4 CALLDATACOPY POP PUSH1 0x0 SWAP2 ADD MSTORE JUMP JUMPDEST PUSH1 0x0 JUMPDEST DUP4 DUP2 LT ISZERO PUSH2 0xA2F JUMPI DUP2 DUP2 ADD MLOAD DUP4 DUP3 ADD MSTORE PUSH1 0x20 ADD PUSH2 0xA17 JUMP JUMPDEST DUP4 DUP2 GT ISZERO PUSH2 0xA3E JUMPI PUSH1 0x0 DUP5 DUP5 ADD MSTORE JUMPDEST POP POP POP POP JUMP JUMPDEST PUSH1 0x1F ADD PUSH1 0x1F NOT AND SWAP1 JUMP STOP 0x4c PUSH6 0x6E677468206D PUSH22 0x73742062652067726561746572207468616E206F7220 PUSH6 0xA265627A7A72 ADDRESS PC KECCAK256 0x25 0xb5 DUP8 0x4d 0xc9 SAR 0x47 PUSH5 0xC8F62EBDD8 SWAP9 0xed ADDRESS PUSH3 0x512725 0xd1 ISZERO 0x47 MULMOD PUSH27 0xF9BAAA4550B7F66C6578706572696D656E74616CF5003700000000 "
			}
		}
	},
	"sourceTreeHashHex": "0xa10dde3c1a915acdf67a75719c4e3205a476f50d7a6a23a2bdc6d2a4f4de7dfd",
	"compiler": {
		"name": "solc",
		"version": "soljson-v0.4.24+commit.e67f0147.js",
		"settings": {
			"optimizer": {
				"enabled": true,
				"runs": 0
			},
			"outputSelection": {
				"*": {
					"*": [
						"abi",
						"evm.bytecode.object",
						"evm.bytecode.sourceMap",
						"evm.deployedBytecode.object",
						"evm.deployedBytecode.sourceMap"
					]
				}
			}
		}
	}
}