{
	"schemaVersion": "2.0.0",
	"contractName": "TestAssetDataDecoders",
	"compilerOutput": {
		"abi": [
			{
				"constant": false,
				"inputs": [
					{
						"name": "target",
						"type": "address"
					}
				],
				"name": "addAuthorizedAddress",
				"outputs": [],
				"payable": false,
				"stateMutability": "nonpayable",
				"type": "function"
			},
			{
				"constant": true,
				"inputs": [
					{
						"name": "",
						"type": "uint256"
					}
				],
				"name": "authorities",
				"outputs": [
					{
						"name": "",
						"type": "address"
					}
				],
				"payable": false,
				"stateMutability": "view",
				"type": "function"
			},
			{
				"constant": false,
				"inputs": [
					{
						"name": "assetData",
						"type": "bytes[]"
					},
					{
						"name": "from",
						"type": "address[]"
					},
					{
						"name": "to",
						"type": "address[]"
					},
					{
						"name": "amounts",
						"type": "uint256[]"
					}
				],
				"name": "batchTransferFrom",
				"outputs": [],
				"payable": false,
				"stateMutability": "nonpayable",
				"type": "function"
			},
			{
				"constant": false,
				"inputs": [
					{
						"name": "target",
						"type": "address"
					}
				],
				"name": "removeAuthorizedAddress",
				"outputs": [],
				"payable": false,
				"stateMutability": "nonpayable",
				"type": "function"
			},
			{
				"constant": true,
				"inputs": [
					{
						"name": "assetData",
						"type": "bytes"
					}
				],
				"name": "publicDecodeERC721Data",
				"outputs": [
					{
						"name": "token",
						"type": "address"
					},
					{
						"name": "tokenId",
						"type": "uint256"
					},
					{
						"name": "receiverData",
						"type": "bytes"
					}
				],
				"payable": false,
				"stateMutability": "pure",
				"type": "function"
			},
			{
				"constant": true,
				"inputs": [],
				"name": "owner",
				"outputs": [
					{
						"name": "",
						"type": "address"
					}
				],
				"payable": false,
				"stateMutability": "view",
				"type": "function"
			},
			{
				"constant": false,
				"inputs": [
					{
						"name": "target",
						"type": "address"
					},
					{
						"name": "index",
						"type": "uint256"
					}
				],
				"name": "removeAuthorizedAddressAtIndex",
				"outputs": [],
				"payable": false,
				"stateMutability": "nonpayable",
				"type": "function"
			},
			{
				"constant": false,
				"inputs": [
					{
						"name": "assetData",
						"type": "bytes"
					},
					{
						"name": "from",
						"type": "address"
					},
					{
						"name": "to",
						"type": "address"
					},
					{
						"name": "amount",
						"type": "uint256"
					}
				],
				"name": "transferFrom",
				"outputs": [],
				"payable": false,
				"stateMutability": "nonpayable",
				"type": "function"
			},
			{
				"constant": true,
				"inputs": [],
				"name": "getProxyId",
				"outputs": [
					{
						"name": "",
						"type": "uint8"
					}
				],
				"payable": false,
				"stateMutability": "view",
				"type": "function"
			},
			{
				"constant": true,
				"inputs": [
					{
						"name": "",
						"type": "address"
					}
				],
				"name": "authorized",
				"outputs": [
					{
						"name": "",
						"type": "bool"
					}
				],
				"payable": false,
				"stateMutability": "view",
				"type": "function"
			},
			{
				"constant": true,
				"inputs": [],
				"name": "getAuthorizedAddresses",
				"outputs": [
					{
						"name": "",
						"type": "address[]"
					}
				],
				"payable": false,
				"stateMutability": "view",
				"type": "function"
			},
			{
				"constant": false,
				"inputs": [
					{
						"name": "newOwner",
						"type": "address"
					}
				],
				"name": "transferOwnership",
				"outputs": [],
				"payable": false,
				"stateMutability": "nonpayable",
				"type": "function"
			},
			{
				"anonymous": false,
				"inputs": [
					{
						"indexed": true,
						"name": "target",
						"type": "address"
					},
					{
						"indexed": true,
						"name": "caller",
						"type": "address"
					}
				],
				"name": "AuthorizedAddressAdded",
				"type": "event"
			},
			{
				"anonymous": false,
				"inputs": [
					{
						"indexed": true,
						"name": "target",
						"type": "address"
					},
					{
						"indexed": true,
						"name": "caller",
						"type": "address"
					}
				],
				"name": "AuthorizedAddressRemoved",
				"type": "event"
			}
		],
		"evm": {
			"bytecode": {
				"linkReferences": {},
				"object": "0x608060405260008054600160a060020a0319163317905561192d806100256000396000f3006080604052600436106100b95763ffffffff7c010000000000000000000000000000000000000000000000000000000060003504166342f1181e81146100be578063494503d4146100e0578063563c875d14610116578063707129391461013657806372c2f527146101565780638da5cb5b146101855780639ad267441461019a578063a85e59e4146101ba578063ae25532e146101da578063b9181611146101fc578063d39de6e914610229578063f2fde38b1461024b575b600080fd5b3480156100ca57600080fd5b506100de6100d9366004611401565b61026b565b005b3480156100ec57600080fd5b506101006100fb3660046115d3565b610430565b60405161010d91906116fd565b60405180910390f35b34801561012257600080fd5b506100de610131366004611461565b610465565b34801561014257600080fd5b506100de610151366004611401565b61056f565b34801561016257600080fd5b5061017661017136600461159e565b610838565b60405161010d9392919061174f565b34801561019157600080fd5b50610100610853565b3480156101a657600080fd5b506100de6101b5366004611427565b61086f565b3480156101c657600080fd5b506100de6101d5366004611521565b610b12565b3480156101e657600080fd5b506101ef610bd5565b60405161010d91906117c5565b34801561020857600080fd5b5061021c610217366004611401565b610bdb565b60405161010d9190611796565b34801561023557600080fd5b5061023e610bf0565b60405161010d9190611785565b34801561025757600080fd5b506100de610266366004611401565b610c5f565b60005473ffffffffffffffffffffffffffffffffffffffff1633146102c5576040517f08c379a00000000000000000000000000000000000000000000000000000000081526004016102bc906117b5565b60405180910390fd5b73ffffffffffffffffffffffffffffffffffffffff8116600090815260016020908152604091829020548251808401909352601983527f5441524745545f414c52454144595f415554484f52495a4544000000000000009183019190915260ff161561035e576040517f08c379a00000000000000000000000000000000000000000000000000000000081526004016102bc91906117a4565b5073ffffffffffffffffffffffffffffffffffffffff8116600081815260016020819052604080832080547fffffffffffffffffffffffffffffffffffffffffffffffffffffffffffffff00168317905560028054928301815583527f405787fa12a823e0f2b7631cc41b3ba8828b3321ca811111fa75cd3aa3bb5ace90910180547fffffffffffffffffffffffff00000000000000000000000000000000000000001684179055513392917f3147867c59d17e8fa9d522465651d44aae0a9e38f902f3475b97e58072f0ed4c91a350565b600280548290811061043e57fe5b60009182526020909120015473ffffffffffffffffffffffffffffffffffffffff16905081565b336000908152600160209081526040808320548151808301909252601582527f53454e4445525f4e4f545f415554484f52495a45440000000000000000000000928201929092529060ff1615156104e9576040517f08c379a00000000000000000000000000000000000000000000000000000000081526004016102bc91906117a4565b50600090505b845181101561056857610560858281518110151561050957fe5b90602001906020020151858381518110151561052157fe5b90602001906020020151858481518110151561053957fe5b90602001906020020151858581518110151561055157fe5b90602001906020020151610d10565b6001016104ef565b5050505050565b6000805473ffffffffffffffffffffffffffffffffffffffff1633146105c1576040517f08c379a00000000000000000000000000000000000000000000000000000000081526004016102bc906117b5565b73ffffffffffffffffffffffffffffffffffffffff8216600090815260016020908152604091829020548251808401909352601583527f5441524745545f4e4f545f415554484f52495a454400000000000000000000009183019190915260ff16151561065b576040517f08c379a00000000000000000000000000000000000000000000000000000000081526004016102bc91906117a4565b505073ffffffffffffffffffffffffffffffffffffffff8116600090815260016020526040812080547fffffffffffffffffffffffffffffffffffffffffffffffffffffffffffffff001690555b6002548110156107f1578173ffffffffffffffffffffffffffffffffffffffff166002828154811015156106d957fe5b60009182526020909120015473ffffffffffffffffffffffffffffffffffffffff1614156107e957600280547fffffffffffffffffffffffffffffffffffffffffffffffffffffffffffffffff810190811061073157fe5b6000918252602090912001546002805473ffffffffffffffffffffffffffffffffffffffff909216918390811061076457fe5b600091825260209091200180547fffffffffffffffffffffffff00000000000000000000000000000000000000001673ffffffffffffffffffffffffffffffffffffffff92909216919091179055600280547fffffffffffffffffffffffffffffffffffffffffffffffffffffffffffffffff01906107e390826111c8565b506107f1565b6001016106a9565b604051339073ffffffffffffffffffffffffffffffffffffffff8416907f1f32c1b084e2de0713b8fb16bd46bb9df710a3dbeae2f3ca93af46e016dcc6b090600090a35050565b600080606061084684610e2d565b9196909550909350915050565b60005473ffffffffffffffffffffffffffffffffffffffff1681565b60025460408051808201909152601381527f494e4445585f4f55545f4f465f424f554e44530000000000000000000000000060208201529082106108e0576040517f08c379a00000000000000000000000000000000000000000000000000000000081526004016102bc91906117a4565b508173ffffffffffffffffffffffffffffffffffffffff1660028281548110151561090757fe5b6000918252602091829020015460408051808201909152601b81527f415554484f52495a45445f414444524553535f4d49534d41544348000000000092810192909252909173ffffffffffffffffffffffffffffffffffffffff9091161461099c576040517f08c379a00000000000000000000000000000000000000000000000000000000081526004016102bc91906117a4565b5073ffffffffffffffffffffffffffffffffffffffff8216600090815260016020526040902080547fffffffffffffffffffffffffffffffffffffffffffffffffffffffffffffff00169055600280547fffffffffffffffffffffffffffffffffffffffffffffffffffffffffffffffff8101908110610a1857fe5b6000918252602090912001546002805473ffffffffffffffffffffffffffffffffffffffff9092169183908110610a4b57fe5b600091825260209091200180547fffffffffffffffffffffffff00000000000000000000000000000000000000001673ffffffffffffffffffffffffffffffffffffffff92909216919091179055600280547fffffffffffffffffffffffffffffffffffffffffffffffffffffffffffffffff0190610aca90826111c8565b50604051339073ffffffffffffffffffffffffffffffffffffffff8416907f1f32c1b084e2de0713b8fb16bd46bb9df710a3dbeae2f3ca93af46e016dcc6b090600090a35050565b33600090815260016020908152604091829020548251808401909352601583527f53454e4445525f4e4f545f415554484f52495a454400000000000000000000009183019190915260ff161515610b96576040517f08c379a00000000000000000000000000000000000000000000000000000000081526004016102bc91906117a4565b5061056885858080601f016020809104026020016040519081016040528093929190818152602001838380828437820191505050505050848484610d10565b60025b90565b60016020526000908152604090205460ff1681565b60606002805480602002602001604051908101604052809291908181526020018280548015610c5557602002820191906000526020600020905b815473ffffffffffffffffffffffffffffffffffffffff168152600190910190602001808311610c2a575b5050505050905090565b60005473ffffffffffffffffffffffffffffffffffffffff163314610cb0576040517f08c379a00000000000000000000000000000000000000000000000000000000081526004016102bc906117b5565b73ffffffffffffffffffffffffffffffffffffffff811615610d0d57600080547fffffffffffffffffffffffff00000000000000000000000000000000000000001673ffffffffffffffffffffffffffffffffffffffff83161790555b50565b60408051808201909152600e81527f494e56414c49445f414d4f554e540000000000000000000000000000000000006020820152600090819060609060018514610d87576040517f08c379a00000000000000000000000000000000000000000000000000000000081526004016102bc91906117a4565b50610d9187610e2d565b9250925092508273ffffffffffffffffffffffffffffffffffffffff1663b88d4fde878785856040518563ffffffff167c0100000000000000000000000000000000000000000000000000000000028152600401610df2949392919061170b565b600060405180830381600087803b158015610e0c57600080fd5b505af1158015610e20573d6000803e3d6000fd5b5050505050505050505050565b6000806060610e3d846000610e6b565b9250610e4a846014610f36565b9150603484511115610e6457610e61846034610f49565b90505b9193909250565b60008160140183511015606060405190810160405280602681526020017f475245415445525f4f525f455155414c5f544f5f32305f4c454e4754485f524581526020017f5155495245440000000000000000000000000000000000000000000000000000815250901515610f0c576040517f08c379a00000000000000000000000000000000000000000000000000000000081526004016102bc91906117a4565b5050601481830181015191019073ffffffffffffffffffffffffffffffffffffffff165b92915050565b6000610f428383611059565b9392505050565b60606000610f578484610f36565b905060208301925080830184511015606060405190810160405280603081526020017f475245415445525f4f525f455155414c5f544f5f4e45535445445f425954455381526020017f5f4c454e4754485f524551554952454400000000000000000000000000000000815250901515610ffd576040517f08c379a00000000000000000000000000000000000000000000000000000000081526004016102bc91906117a4565b50806040519080825280601f01601f19166020018201604052801561102c578160200160208202803883390190505b50915061105261103b83610bd8565b6020018461104887610bd8565b0160200183611104565b5092915050565b60008160200183511015606060405190810160405280602681526020017f475245415445525f4f525f455155414c5f544f5f33325f4c454e4754485f524581526020017f51554952454400000000000000000000000000000000000000000000000000008152509015156110fa576040517f08c379a00000000000000000000000000000000000000000000000000000000081526004016102bc91906117a4565b5050016020015190565b602081101561112e576001816020036101000a0380198351168185511680821786525050506111c3565b8282141561113b576111c3565b828211156111755760208103905080820181840181515b8285101561116d578451865260209586019590940193611152565b9052506111c3565b60208103905080820181840183515b818612156111be57825182527fffffffffffffffffffffffffffffffffffffffffffffffffffffffffffffffe09283019290910190611184565b855250505b505050565b8154818355818111156111c3576000838152602090206111c3918101908301610bd891905b8082111561120157600081556001016111ed565b5090565b6000610f42823561186b565b6000601f8201831361122257600080fd5b8135611235611230826117fa565b6117d3565b9150818183526020840193506020810190508385602084028201111561125a57600080fd5b60005b8381101561128657816112708882611205565b845250602092830192919091019060010161125d565b5050505092915050565b6000601f820183136112a157600080fd5b81356112af611230826117fa565b81815260209384019390925082018360005b8381101561128657813586016112d788826113a6565b84525060209283019291909101906001016112c1565b6000601f820183136112fe57600080fd5b813561130c611230826117fa565b9150818183526020840193506020810190508385602084028201111561133157600080fd5b60005b83811015611286578161134788826113f5565b8452506020928301929190910190600101611334565b600080601f8301841361136f57600080fd5b50813567ffffffffffffffff81111561138757600080fd5b60208301915083600182028301111561139f57600080fd5b9250929050565b6000601f820183136113b757600080fd5b81356113c56112308261181b565b915080825260208301602083018583830111156113e157600080fd5b6113ec83828461188f565b50505092915050565b6000610f428235610bd8565b60006020828403121561141357600080fd5b600061141f8484611205565b949350505050565b6000806040838503121561143a57600080fd5b60006114468585611205565b9250506020611457858286016113f5565b9150509250929050565b6000806000806080858703121561147757600080fd5b843567ffffffffffffffff81111561148e57600080fd5b61149a87828801611290565b945050602085013567ffffffffffffffff8111156114b757600080fd5b6114c387828801611211565b935050604085013567ffffffffffffffff8111156114e057600080fd5b6114ec87828801611211565b925050606085013567ffffffffffffffff81111561150957600080fd5b611515878288016112ed565b91505092959194509250565b60008060008060006080868803121561153957600080fd5b853567ffffffffffffffff81111561155057600080fd5b61155c8882890161135d565b9550955050602061156f88828901611205565b935050604061158088828901611205565b9250506060611591888289016113f5565b9150509295509295909350565b6000602082840312156115b057600080fd5b813567ffffffffffffffff8111156115c757600080fd5b61141f848285016113a6565b6000602082840312156115e557600080fd5b600061141f84846113f5565b6115fa8161186b565b82525050565b600061160b82611867565b80845260208401935061161d83611861565b60005b8281101561164d576116338683516115f1565b61163c82611861565b602096909601959150600101611620565b5093949350505050565b6115fa81611884565b600061166b82611867565b80845261167f81602086016020860161189b565b611688816118cb565b9093016020019392505050565b603381527f4f6e6c7920636f6e7472616374206f776e657220697320616c6c6f776564207460208201527f6f2063616c6c2074686973206d6574686f642e00000000000000000000000000604082015260600190565b6115fa81610bd8565b6115fa81611889565b60208101610f3082846115f1565b6080810161171982876115f1565b61172660208301866115f1565b61173360408301856116eb565b81810360608301526117458184611660565b9695505050505050565b6060810161175d82866115f1565b61176a60208301856116eb565b818103604083015261177c8184611660565b95945050505050565b60208082528101610f428184611600565b60208101610f308284611657565b60208082528101610f428184611660565b60208082528101610f3081611695565b60208101610f3082846116f4565b60405181810167ffffffffffffffff811182821017156117f257600080fd5b604052919050565b600067ffffffffffffffff82111561181157600080fd5b5060209081020190565b600067ffffffffffffffff82111561183257600080fd5b506020601f919091017fffffffffffffffffffffffffffffffffffffffffffffffffffffffffffffffe0160190565b60200190565b5190565b73ffffffffffffffffffffffffffffffffffffffff1690565b151590565b60ff1690565b82818337506000910152565b60005b838110156118b657818101518382015260200161189e565b838111156118c5576000848401525b50505050565b601f017fffffffffffffffffffffffffffffffffffffffffffffffffffffffffffffffe016905600a265627a7a7230582007b69fd4c6b90925eb7a8498088ffc50e8556f7bf8a6dfa613a40725b0387c746c6578706572696d656e74616cf50037",
				"opcodes": "PUSH1 0x80 PUSH1 0x40 MSTORE PUSH1 0x0 DUP1 SLOAD PUSH1 0x1 PUSH1 0xA0 PUSH1 0x2 EXP SUB NOT AND CALLER OR SWAP1 SSTORE PUSH2 0x192D DUP1 PUSH2 0x25 PUSH1 0x0 CODECOPY PUSH1 0x0 RETURN STOP PUSH1 0x80 PUSH1 0x40 MSTORE PUSH1 0x4 CALLDATASIZE LT PUSH2 0xB9 JUMPI PUSH4 0xFFFFFFFF PUSH29 0x100000000000000000000000000000000000000000000000000000000 PUSH1 0x0 CALLDATALOAD DIV AND PUSH4 0x42F1181E DUP2 EQ PUSH2 0xBE JUMPI DUP1 PUSH4 0x494503D4 EQ PUSH2 0xE0 JUMPI DUP1 PUSH4 0x563C875D EQ PUSH2 0x116 JUMPI DUP1 PUSH4 0x70712939 EQ PUSH2 0x136 JUMPI DUP1 PUSH4 0x72C2F527 EQ PUSH2 0x156 JUMPI DUP1 PUSH4 0x8DA5CB5B EQ PUSH2 0x185 JUMPI DUP1 PUSH4 0x9AD26744 EQ PUSH2 0x19A JUMPI DUP1 PUSH4 0xA85E59E4 EQ PUSH2 0x1BA JUMPI DUP1 PUSH4 0xAE25532E EQ PUSH2 0x1DA JUMPI DUP1 PUSH4 0xB9181611 EQ PUSH2 0x1FC JUMPI DUP1 PUSH4 0xD39DE6E9 EQ PUSH2 0x229 JUMPI DUP1 PUSH4 0xF2FDE38B EQ PUSH2 0x24B JUMPI JUMPDEST PUSH1 0x0 DUP1 REVERT JUMPDEST CALLVALUE DUP1 ISZERO PUSH2 0xCA JUMPI PUSH1 0x0 DUP1 REVERT JUMPDEST POP PUSH2 0xDE PUSH2 0xD9 CALLDATASIZE PUSH1 0x4 PUSH2 0x1401 JUMP JUMPDEST PUSH2 0x26B JUMP JUMPDEST STOP JUMPDEST CALLVALUE DUP1 ISZERO PUSH2 0xEC JUMPI PUSH1 0x0 DUP1 REVERT JUMPDEST POP PUSH2 0x100 PUSH2 0xFB CALLDATASIZE PUSH1 0x4 PUSH2 0x15D3 JUMP JUMPDEST PUSH2 0x430 JUMP JUMPDEST PUSH1 0x40 MLOAD PUSH2 0x10D SWAP2 SWAP1 PUSH2 0x16FD JUMP JUMPDEST PUSH1 0x40 MLOAD DUP1 SWAP2 SUB SWAP1 RETURN JUMPDEST CALLVALUE DUP1 ISZERO PUSH2 0x122 JUMPI PUSH1 0x0 DUP1 REVERT JUMPDEST POP PUSH2 0xDE PUSH2 0x131 CALLDATASIZE PUSH1 0x4 PUSH2 0x1461 JUMP JUMPDEST PUSH2 0x465 JUMP JUMPDEST CALLVALUE DUP1 ISZERO PUSH2 0x142 JUMPI PUSH1 0x0 DUP1 REVERT JUMPDEST POP PUSH2 0xDE PUSH2 0x151 CALLDATASIZE PUSH1 0x4 PUSH2 0x1401 JUMP JUMPDEST PUSH2 0x56F JUMP JUMPDEST CALLVALUE DUP1 ISZERO PUSH2 0x162 JUMPI PUSH1 0x0 DUP1 REVERT JUMPDEST POP PUSH2 0x176 PUSH2 0x171 CALLDATASIZE PUSH1 0x4 PUSH2 0x159E JUMP JUMPDEST PUSH2 0x838 JUMP JUMPDEST PUSH1 0x40 MLOAD PUSH2 0x10D SWAP4 SWAP3 SWAP2 SWAP1 PUSH2 0x174F JUMP JUMPDEST CALLVALUE DUP1 ISZERO PUSH2 0x191 JUMPI PUSH1 0x0 DUP1 REVERT JUMPDEST POP PUSH2 0x100 PUSH2 0x853 JUMP JUMPDEST CALLVALUE DUP1 ISZERO PUSH2 0x1A6 JUMPI PUSH1 0x0 DUP1 REVERT JUMPDEST POP PUSH2 0xDE PUSH2 0x1B5 CALLDATASIZE PUSH1 0x4 PUSH2 0x1427 JUMP JUMPDEST PUSH2 0x86F JUMP JUMPDEST CALLVALUE DUP1 ISZERO PUSH2 0x1C6 JUMPI PUSH1 0x0 DUP1 REVERT JUMPDEST POP PUSH2 0xDE PUSH2 0x1D5 CALLDATASIZE PUSH1 0x4 PUSH2 0x1521 JUMP JUMPDEST PUSH2 0xB12 JUMP JUMPDEST CALLVALUE DUP1 ISZERO PUSH2 0x1E6 JUMPI PUSH1 0x0 DUP1 REVERT JUMPDEST POP PUSH2 0x1EF PUSH2 0xBD5 JUMP JUMPDEST PUSH1 0x40 MLOAD PUSH2 0x10D SWAP2 SWAP1 PUSH2 0x17C5 JUMP JUMPDEST CALLVALUE DUP1 ISZERO PUSH2 0x208 JUMPI PUSH1 0x0 DUP1 REVERT JUMPDEST POP PUSH2 0x21C PUSH2 0x217 CALLDATASIZE PUSH1 0x4 PUSH2 0x1401 JUMP JUMPDEST PUSH2 0xBDB JUMP JUMPDEST PUSH1 0x40 MLOAD PUSH2 0x10D SWAP2 SWAP1 PUSH2 0x1796 JUMP JUMPDEST CALLVALUE DUP1 ISZERO PUSH2 0x235 JUMPI PUSH1 0x0 DUP1 REVERT JUMPDEST POP PUSH2 0x23E PUSH2 0xBF0 JUMP JUMPDEST PUSH1 0x40 MLOAD PUSH2 0x10D SWAP2 SWAP1 PUSH2 0x1785 JUMP JUMPDEST CALLVALUE DUP1 ISZERO PUSH2 0x257 JUMPI PUSH1 0x0 DUP1 REVERT JUMPDEST POP PUSH2 0xDE PUSH2 0x266 CALLDATASIZE PUSH1 0x4 PUSH2 0x1401 JUMP JUMPDEST PUSH2 0xC5F JUMP JUMPDEST PUSH1 0x0 SLOAD PUSH20 0xFFFFFFFFFFFFFFFFFFFFFFFFFFFFFFFFFFFFFFFF AND CALLER EQ PUSH2 0x2C5 JUMPI PUSH1 0x40 MLOAD PUSH32 0x8C379A000000000000000000000000000000000000000000000000000000000 DUP2 MSTORE PUSH1 0x4 ADD PUSH2 0x2BC SWAP1 PUSH2 0x17B5 JUMP JUMPDEST PUSH1 0x40 MLOAD DUP1 SWAP2 SUB SWAP1 REVERT JUMPDEST PUSH20 0xFFFFFFFFFFFFFFFFFFFFFFFFFFFFFFFFFFFFFFFF DUP2 AND PUSH1 0x0 SWAP1 DUP2 MSTORE PUSH1 0x1 PUSH1 0x20 SWAP1 DUP2 MSTORE PUSH1 0x40 SWAP2 DUP3 SWAP1 KECCAK256 SLOAD DUP3 MLOAD DUP1 DUP5 ADD SWAP1 SWAP4 MSTORE PUSH1 0x19 DUP4 MSTORE PUSH32 0x5441524745545F414C52454144595F415554484F52495A454400000000000000 SWAP2 DUP4 ADD SWAP2 SWAP1 SWAP2 MSTORE PUSH1 0xFF AND ISZERO PUSH2 0x35E JUMPI PUSH1 0x40 MLOAD PUSH32 0x8C379A000000000000000000000000000000000000000000000000000000000 DUP2 MSTORE PUSH1 0x4 ADD PUSH2 0x2BC SWAP2 SWAP1 PUSH2 0x17A4 JUMP JUMPDEST POP PUSH20 0xFFFFFFFFFFFFFFFFFFFFFFFFFFFFFFFFFFFFFFFF DUP2 AND PUSH1 0x0 DUP2 DUP2 MSTORE PUSH1 0x1 PUSH1 0x20 DUP2 SWAP1 MSTORE PUSH1 0x40 DUP1 DUP4 KECCAK256 DUP1 SLOAD PUSH32 0xFFFFFFFFFFFFFFFFFFFFFFFFFFFFFFFFFFFFFFFFFFFFFFFFFFFFFFFFFFFFFF00 AND DUP4 OR SWAP1 SSTORE PUSH1 0x2 DUP1 SLOAD SWAP3 DUP4 ADD DUP2 SSTORE DUP4 MSTORE PUSH32 0x405787FA12A823E0F2B7631CC41B3BA8828B3321CA811111FA75CD3AA3BB5ACE SWAP1 SWAP2 ADD DUP1 SLOAD PUSH32 0xFFFFFFFFFFFFFFFFFFFFFFFF0000000000000000000000000000000000000000 AND DUP5 OR SWAP1 SSTORE MLOAD CALLER SWAP3 SWAP2 PUSH32 0x3147867C59D17E8FA9D522465651D44AAE0A9E38F902F3475B97E58072F0ED4C SWAP2 LOG3 POP JUMP JUMPDEST PUSH1 0x2 DUP1 SLOAD DUP3 SWAP1 DUP2 LT PUSH2 0x43E JUMPI INVALID JUMPDEST PUSH1 0x0 SWAP2 DUP3 MSTORE PUSH1 0x20 SWAP1 SWAP2 KECCAK256 ADD SLOAD PUSH20 0xFFFFFFFFFFFFFFFFFFFFFFFFFFFFFFFFFFFFFFFF AND SWAP1 POP DUP2 JUMP JUMPDEST CALLER PUSH1 0x0 SWAP1 DUP2 MSTORE PUSH1 0x1 PUSH1 0x20 SWAP1 DUP2 MSTORE PUSH1 0x40 DUP1 DUP4 KECCAK256 SLOAD DUP2 MLOAD DUP1 DUP4 ADD SWAP1 SWAP3 MSTORE PUSH1 0x15 DUP3 MSTORE PUSH32 0x53454E4445525F4E4F545F415554484F52495A45440000000000000000000000 SWAP3 DUP3 ADD SWAP3 SWAP1 SWAP3 MSTORE SWAP1 PUSH1 0xFF AND ISZERO ISZERO PUSH2 0x4E9 JUMPI PUSH1 0x40 MLOAD PUSH32 0x8C379A000000000000000000000000000000000000000000000000000000000 DUP2 MSTORE PUSH1 0x4 ADD PUSH2 0x2BC SWAP2 SWAP1 PUSH2 0x17A4 JUMP JUMPDEST POP PUSH1 0x0 SWAP1 POP JUMPDEST DUP5 MLOAD DUP2 LT ISZERO PUSH2 0x568 JUMPI PUSH2 0x560 DUP6 DUP3 DUP2 MLOAD DUP2 LT ISZERO ISZERO PUSH2 0x509 JUMPI INVALID JUMPDEST SWAP1 PUSH1 0x20 ADD SWAP1 PUSH1 0x20 MUL ADD MLOAD DUP6 DUP4 DUP2 MLOAD DUP2 LT ISZERO ISZERO PUSH2 0x521 JUMPI INVALID JUMPDEST SWAP1 PUSH1 0x20 ADD SWAP1 PUSH1 0x20 MUL ADD MLOAD DUP6 DUP5 DUP2 MLOAD DUP2 LT ISZERO ISZERO PUSH2 0x539 JUMPI INVALID JUMPDEST SWAP1 PUSH1 0x20 ADD SWAP1 PUSH1 0x20 MUL ADD MLOAD DUP6 DUP6 DUP2 MLOAD DUP2 LT ISZERO ISZERO PUSH2 0x551 JUMPI INVALID JUMPDEST SWAP1 PUSH1 0x20 ADD SWAP1 PUSH1 0x20 MUL ADD MLOAD PUSH2 0xD10 JUMP JUMPDEST PUSH1 0x1 ADD PUSH2 0x4EF JUMP JUMPDEST POP POP POP POP POP JUMP JUMPDEST PUSH1 0x0 DUP1 SLOAD PUSH20 0xFFFFFFFFFFFFFFFFFFFFFFFFFFFFFFFFFFFFFFFF AND CALLER EQ PUSH2 0x5C1 JUMPI PUSH1 0x40 MLOAD PUSH32 0x8C379A000000000000000000000000000000000000000000000000000000000 DUP2 MSTORE PUSH1 0x4 ADD PUSH2 0x2BC SWAP1 PUSH2 0x17B5 JUMP JUMPDEST PUSH20 0xFFFFFFFFFFFFFFFFFFFFFFFFFFFFFFFFFFFFFFFF DUP3 AND PUSH1 0x0 SWAP1 DUP2 MSTORE PUSH1 0x1 PUSH1 0x20 SWAP1 DUP2 MSTORE PUSH1 0x40 SWAP2 DUP3 SWAP1 KECCAK256 SLOAD DUP3 MLOAD DUP1 DUP5 ADD SWAP1 SWAP4 MSTORE PUSH1 0x15 DUP4 MSTORE PUSH32 0x5441524745545F4E4F545F415554484F52495A45440000000000000000000000 SWAP2 DUP4 ADD SWAP2 SWAP1 SWAP2 MSTORE PUSH1 0xFF AND ISZERO ISZERO PUSH2 0x65B JUMPI PUSH1 0x40 MLOAD PUSH32 0x8C379A000000000000000000000000000000000000000000000000000000000 DUP2 MSTORE PUSH1 0x4 ADD PUSH2 0x2BC SWAP2 SWAP1 PUSH2 0x17A4 JUMP JUMPDEST POP POP PUSH20 0xFFFFFFFFFFFFFFFFFFFFFFFFFFFFFFFFFFFFFFFF DUP2 AND PUSH1 0x0 SWAP1 DUP2 MSTORE PUSH1 0x1 PUSH1 0x20 MSTORE PUSH1 0x40 DUP2 KECCAK256 DUP1 SLOAD PUSH32 0xFFFFFFFFFFFFFFFFFFFFFFFFFFFFFFFFFFFFFFFFFFFFFFFFFFFFFFFFFFFFFF00 AND SWAP1 SSTORE JUMPDEST PUSH1 0x2 SLOAD DUP2 LT ISZERO PUSH2 0x7F1 JUMPI DUP2 PUSH20 0xFFFFFFFFFFFFFFFFFFFFFFFFFFFFFFFFFFFFFFFF AND PUSH1 0x2 DUP3 DUP2 SLOAD DUP2 LT ISZERO ISZERO PUSH2 0x6D9 JUMPI INVALID JUMPDEST PUSH1 0x0 SWAP2 DUP3 MSTORE PUSH1 0x20 SWAP1 SWAP2 KECCAK256 ADD SLOAD PUSH20 0xFFFFFFFFFFFFFFFFFFFFFFFFFFFFFFFFFFFFFFFF AND EQ ISZERO PUSH2 0x7E9 JUMPI PUSH1 0x2 DUP1 SLOAD PUSH32 0xFFFFFFFFFFFFFFFFFFFFFFFFFFFFFFFFFFFFFFFFFFFFFFFFFFFFFFFFFFFFFFFF DUP2 ADD SWAP1 DUP2 LT PUSH2 0x731 JUMPI INVALID JUMPDEST PUSH1 0x0 SWAP2 DUP3 MSTORE PUSH1 0x20 SWAP1 SWAP2 KECCAK256 ADD SLOAD PUSH1 0x2 DUP1 SLOAD PUSH20 0xFFFFFFFFFFFFFFFFFFFFFFFFFFFFFFFFFFFFFFFF SWAP1 SWAP3 AND SWAP2 DUP4 SWAP1 DUP2 LT PUSH2 0x764 JUMPI INVALID JUMPDEST PUSH1 0x0 SWAP2 DUP3 MSTORE PUSH1 0x20 SWAP1 SWAP2 KECCAK256 ADD DUP1 SLOAD PUSH32 0xFFFFFFFFFFFFFFFFFFFFFFFF0000000000000000000000000000000000000000 AND PUSH20 0xFFFFFFFFFFFFFFFFFFFFFFFFFFFFFFFFFFFFFFFF SWAP3 SWAP1 SWAP3 AND SWAP2 SWAP1 SWAP2 OR SWAP1 SSTORE PUSH1 0x2 DUP1 SLOAD PUSH32 0xFFFFFFFFFFFFFFFFFFFFFFFFFFFFFFFFFFFFFFFFFFFFFFFFFFFFFFFFFFFFFFFF ADD SWAP1 PUSH2 0x7E3 SWAP1 DUP3 PUSH2 0x11C8 JUMP JUMPDEST POP PUSH2 0x7F1 JUMP JUMPDEST PUSH1 0x1 ADD PUSH2 0x6A9 JUMP JUMPDEST PUSH1 0x40 MLOAD CALLER SWAP1 PUSH20 0xFFFFFFFFFFFFFFFFFFFFFFFFFFFFFFFFFFFFFFFF DUP5 AND SWAP1 PUSH32 0x1F32C1B084E2DE0713B8FB16BD46BB9DF710A3DBEAE2F3CA93AF46E016DCC6B0 SWAP1 PUSH1 0x0 SWAP1 LOG3 POP POP JUMP JUMPDEST PUSH1 0x0 DUP1 PUSH1 0x60 PUSH2 0x846 DUP5 PUSH2 0xE2D JUMP JUMPDEST SWAP2 SWAP7 SWAP1 SWAP6 POP SWAP1 SWAP4 POP SWAP2 POP POP JUMP JUMPDEST PUSH1 0x0 SLOAD PUSH20 0xFFFFFFFFFFFFFFFFFFFFFFFFFFFFFFFFFFFFFFFF AND DUP2 JUMP JUMPDEST PUSH1 0x2 SLOAD PUSH1 0x40 DUP1 MLOAD DUP1 DUP3 ADD SWAP1 SWAP2 MSTORE PUSH1 0x13 DUP2 MSTORE PUSH32 0x494E4445585F4F55545F4F465F424F554E445300000000000000000000000000 PUSH1 0x20 DUP3 ADD MSTORE SWAP1 DUP3 LT PUSH2 0x8E0 JUMPI PUSH1 0x40 MLOAD PUSH32 0x8C379A000000000000000000000000000000000000000000000000000000000 DUP2 MSTORE PUSH1 0x4 ADD PUSH2 0x2BC SWAP2 SWAP1 PUSH2 0x17A4 JUMP JUMPDEST POP DUP2 PUSH20 0xFFFFFFFFFFFFFFFFFFFFFFFFFFFFFFFFFFFFFFFF AND PUSH1 0x2 DUP3 DUP2 SLOAD DUP2 LT ISZERO ISZERO PUSH2 0x907 JUMPI INVALID JUMPDEST PUSH1 0x0 SWAP2 DUP3 MSTORE PUSH1 0x20 SWAP2 DUP3 SWAP1 KECCAK256 ADD SLOAD PUSH1 0x40 DUP1 MLOAD DUP1 DUP3 ADD SWAP1 SWAP2 MSTORE PUSH1 0x1B DUP2 MSTORE PUSH32 0x415554484F52495A45445F414444524553535F4D49534D415443480000000000 SWAP3 DUP2 ADD SWAP3 SWAP1 SWAP3 MSTORE SWAP1 SWAP2 PUSH20 0xFFFFFFFFFFFFFFFFFFFFFFFFFFFFFFFFFFFFFFFF SWAP1 SWAP2 AND EQ PUSH2 0x99C JUMPI PUSH1 0x40 MLOAD PUSH32 0x8C379A000000000000000000000000000000000000000000000000000000000 DUP2 MSTORE PUSH1 0x4 ADD PUSH2 0x2BC SWAP2 SWAP1 PUSH2 0x17A4 JUMP JUMPDEST POP PUSH20 0xFFFFFFFFFFFFFFFFFFFFFFFFFFFFFFFFFFFFFFFF DUP3 AND PUSH1 0x0 SWAP1 DUP2 MSTORE PUSH1 0x1 PUSH1 0x20 MSTORE PUSH1 0x40 SWAP1 KECCAK256 DUP1 SLOAD PUSH32 0xFFFFFFFFFFFFFFFFFFFFFFFFFFFFFFFFFFFFFFFFFFFFFFFFFFFFFFFFFFFFFF00 AND SWAP1 SSTORE PUSH1 0x2 DUP1 SLOAD PUSH32 0xFFFFFFFFFFFFFFFFFFFFFFFFFFFFFFFFFFFFFFFFFFFFFFFFFFFFFFFFFFFFFFFF DUP2 ADD SWAP1 DUP2 LT PUSH2 0xA18 JUMPI INVALID JUMPDEST PUSH1 0x0 SWAP2 DUP3 MSTORE PUSH1 0x20 SWAP1 SWAP2 KECCAK256 ADD SLOAD PUSH1 0x2 DUP1 SLOAD PUSH20 0xFFFFFFFFFFFFFFFFFFFFFFFFFFFFFFFFFFFFFFFF SWAP1 SWAP3 AND SWAP2 DUP4 SWAP1 DUP2 LT PUSH2 0xA4B JUMPI INVALID JUMPDEST PUSH1 0x0 SWAP2 DUP3 MSTORE PUSH1 0x20 SWAP1 SWAP2 KECCAK256 ADD DUP1 SLOAD PUSH32 0xFFFFFFFFFFFFFFFFFFFFFFFF0000000000000000000000000000000000000000 AND PUSH20 0xFFFFFFFFFFFFFFFFFFFFFFFFFFFFFFFFFFFFFFFF SWAP3 SWAP1 SWAP3 AND SWAP2 SWAP1 SWAP2 OR SWAP1 SSTORE PUSH1 0x2 DUP1 SLOAD PUSH32 0xFFFFFFFFFFFFFFFFFFFFFFFFFFFFFFFFFFFFFFFFFFFFFFFFFFFFFFFFFFFFFFFF ADD SWAP1 PUSH2 0xACA SWAP1 DUP3 PUSH2 0x11C8 JUMP JUMPDEST POP PUSH1 0x40 MLOAD CALLER SWAP1 PUSH20 0xFFFFFFFFFFFFFFFFFFFFFFFFFFFFFFFFFFFFFFFF DUP5 AND SWAP1 PUSH32 0x1F32C1B084E2DE0713B8FB16BD46BB9DF710A3DBEAE2F3CA93AF46E016DCC6B0 SWAP1 PUSH1 0x0 SWAP1 LOG3 POP POP JUMP JUMPDEST CALLER PUSH1 0x0 SWAP1 DUP2 MSTORE PUSH1 0x1 PUSH1 0x20 SWAP1 DUP2 MSTORE PUSH1 0x40 SWAP2 DUP3 SWAP1 KECCAK256 SLOAD DUP3 MLOAD DUP1 DUP5 ADD SWAP1 SWAP4 MSTORE PUSH1 0x15 DUP4 MSTORE PUSH32 0x53454E4445525F4E4F545F415554484F52495A45440000000000000000000000 SWAP2 DUP4 ADD SWAP2 SWAP1 SWAP2 MSTORE PUSH1 0xFF AND ISZERO ISZERO PUSH2 0xB96 JUMPI PUSH1 0x40 MLOAD PUSH32 0x8C379A000000000000000000000000000000000000000000000000000000000 DUP2 MSTORE PUSH1 0x4 ADD PUSH2 0x2BC SWAP2 SWAP1 PUSH2 0x17A4 JUMP JUMPDEST POP PUSH2 0x568 DUP6 DUP6 DUP1 DUP1 PUSH1 0x1F ADD PUSH1 0x20 DUP1 SWAP2 DIV MUL PUSH1 0x20 ADD PUSH1 0x40 MLOAD SWAP1 DUP2 ADD PUSH1 0x40 MSTORE DUP1 SWAP4 SWAP3 SWAP2 SWAP1 DUP2 DUP2 MSTORE PUSH1 0x20 ADD DUP4 DUP4 DUP1 DUP3 DUP5 CALLDATACOPY DUP3 ADD SWAP2 POP POP POP POP POP POP DUP5 DUP5 DUP5 PUSH2 0xD10 JUMP JUMPDEST PUSH1 0x2 JUMPDEST SWAP1 JUMP JUMPDEST PUSH1 0x1 PUSH1 0x20 MSTORE PUSH1 0x0 SWAP1 DUP2 MSTORE PUSH1 0x40 SWAP1 KECCAK256 SLOAD PUSH1 0xFF AND DUP2 JUMP JUMPDEST PUSH1 0x60 PUSH1 0x2 DUP1 SLOAD DUP1 PUSH1 0x20 MUL PUSH1 0x20 ADD PUSH1 0x40 MLOAD SWAP1 DUP2 ADD PUSH1 0x40 MSTORE DUP1 SWAP3 SWAP2 SWAP1 DUP2 DUP2 MSTORE PUSH1 0x20 ADD DUP3 DUP1 SLOAD DUP1 ISZERO PUSH2 0xC55 JUMPI PUSH1 0x20 MUL DUP3 ADD SWAP2 SWAP1 PUSH1 0x0 MSTORE PUSH1 0x20 PUSH1 0x0 KECCAK256 SWAP1 JUMPDEST DUP2 SLOAD PUSH20 0xFFFFFFFFFFFFFFFFFFFFFFFFFFFFFFFFFFFFFFFF AND DUP2 MSTORE PUSH1 0x1 SWAP1 SWAP2 ADD SWAP1 PUSH1 0x20 ADD DUP1 DUP4 GT PUSH2 0xC2A JUMPI JUMPDEST POP POP POP POP POP SWAP1 POP SWAP1 JUMP JUMPDEST PUSH1 0x0 SLOAD PUSH20 0xFFFFFFFFFFFFFFFFFFFFFFFFFFFFFFFFFFFFFFFF AND CALLER EQ PUSH2 0xCB0 JUMPI PUSH1 0x40 MLOAD PUSH32 0x8C379A000000000000000000000000000000000000000000000000000000000 DUP2 MSTORE PUSH1 0x4 ADD PUSH2 0x2BC SWAP1 PUSH2 0x17B5 JUMP JUMPDEST PUSH20 0xFFFFFFFFFFFFFFFFFFFFFFFFFFFFFFFFFFFFFFFF DUP2 AND ISZERO PUSH2 0xD0D JUMPI PUSH1 0x0 DUP1 SLOAD PUSH32 0xFFFFFFFFFFFFFFFFFFFFFFFF0000000000000000000000000000000000000000 AND PUSH20 0xFFFFFFFFFFFFFFFFFFFFFFFFFFFFFFFFFFFFFFFF DUP4 AND OR SWAP1 SSTORE JUMPDEST POP JUMP JUMPDEST PUSH1 0x40 DUP1 MLOAD DUP1 DUP3 ADD SWAP1 SWAP2 MSTORE PUSH1 0xE DUP2 MSTORE PUSH32 0x494E56414C49445F414D4F554E54000000000000000000000000000000000000 PUSH1 0x20 DUP3 ADD MSTORE PUSH1 0x0 SWAP1 DUP2 SWAP1 PUSH1 0x60 SWAP1 PUSH1 0x1 DUP6 EQ PUSH2 0xD87 JUMPI PUSH1 0x40 MLOAD PUSH32 0x8C379A000000000000000000000000000000000000000000000000000000000 DUP2 MSTORE PUSH1 0x4 ADD PUSH2 0x2BC SWAP2 SWAP1 PUSH2 0x17A4 JUMP JUMPDEST POP PUSH2 0xD91 DUP8 PUSH2 0xE2D JUMP JUMPDEST SWAP3 POP SWAP3 POP SWAP3 POP DUP3 PUSH20 0xFFFFFFFFFFFFFFFFFFFFFFFFFFFFFFFFFFFFFFFF AND PUSH4 0xB88D4FDE DUP8 DUP8 DUP6 DUP6 PUSH1 0x40 MLOAD DUP6 PUSH4 0xFFFFFFFF AND PUSH29 0x100000000000000000000000000000000000000000000000000000000 MUL DUP2 MSTORE PUSH1 0x4 ADD PUSH2 0xDF2 SWAP5 SWAP4 SWAP3 SWAP2 SWAP1 PUSH2 0x170B JUMP JUMPDEST PUSH1 0x0 PUSH1 0x40 MLOAD DUP1 DUP4 SUB DUP2 PUSH1 0x0 DUP8 DUP1 EXTCODESIZE ISZERO DUP1 ISZERO PUSH2 0xE0C JUMPI PUSH1 0x0 DUP1 REVERT JUMPDEST POP GAS CALL ISZERO DUP1 ISZERO PUSH2 0xE20 JUMPI RETURNDATASIZE PUSH1 0x0 DUP1 RETURNDATACOPY RETURNDATASIZE PUSH1 0x0 REVERT JUMPDEST POP POP POP POP POP POP POP POP POP POP POP JUMP JUMPDEST PUSH1 0x0 DUP1 PUSH1 0x60 PUSH2 0xE3D DUP5 PUSH1 0x0 PUSH2 0xE6B JUMP JUMPDEST SWAP3 POP PUSH2 0xE4A DUP5 PUSH1 0x14 PUSH2 0xF36 JUMP JUMPDEST SWAP2 POP PUSH1 0x34 DUP5 MLOAD GT ISZERO PUSH2 0xE64 JUMPI PUSH2 0xE61 DUP5 PUSH1 0x34 PUSH2 0xF49 JUMP JUMPDEST SWAP1 POP JUMPDEST SWAP2 SWAP4 SWAP1 SWAP3 POP JUMP JUMPDEST PUSH1 0x0 DUP2 PUSH1 0x14 ADD DUP4 MLOAD LT ISZERO PUSH1 0x60 PUSH1 0x40 MLOAD SWAP1 DUP2 ADD PUSH1 0x40 MSTORE DUP1 PUSH1 0x26 DUP2 MSTORE PUSH1 0x20 ADD PUSH32 0x475245415445525F4F525F455155414C5F544F5F32305F4C454E4754485F5245 DUP2 MSTORE PUSH1 0x20 ADD PUSH32 0x5155495245440000000000000000000000000000000000000000000000000000 DUP2 MSTORE POP SWAP1 ISZERO ISZERO PUSH2 0xF0C JUMPI PUSH1 0x40 MLOAD PUSH32 0x8C379A000000000000000000000000000000000000000000000000000000000 DUP2 MSTORE PUSH1 0x4 ADD PUSH2 0x2BC SWAP2 SWAP1 PUSH2 0x17A4 JUMP JUMPDEST POP POP PUSH1 0x14 DUP2 DUP4 ADD DUP2 ADD MLOAD SWAP2 ADD SWAP1 PUSH20 0xFFFFFFFFFFFFFFFFFFFFFFFFFFFFFFFFFFFFFFFF AND JUMPDEST SWAP3 SWAP2 POP POP JUMP JUMPDEST PUSH1 0x0 PUSH2 0xF42 DUP4 DUP4 PUSH2 0x1059 JUMP JUMPDEST SWAP4 SWAP3 POP POP POP JUMP JUMPDEST PUSH1 0x60 PUSH1 0x0 PUSH2 0xF57 DUP5 DUP5 PUSH2 0xF36 JUMP JUMPDEST SWAP1 POP PUSH1 0x20 DUP4 ADD SWAP3 POP DUP1 DUP4 ADD DUP5 MLOAD LT ISZERO PUSH1 0x60 PUSH1 0x40 MLOAD SWAP1 DUP2 ADD PUSH1 0x40 MSTORE DUP1 PUSH1 0x30 DUP2 MSTORE PUSH1 0x20 ADD PUSH32 0x475245415445525F4F525F455155414C5F544F5F4E45535445445F4259544553 DUP2 MSTORE PUSH1 0x20 ADD PUSH32 0x5F4C454E4754485F524551554952454400000000000000000000000000000000 DUP2 MSTORE POP SWAP1 ISZERO ISZERO PUSH2 0xFFD JUMPI PUSH1 0x40 MLOAD PUSH32 0x8C379A000000000000000000000000000000000000000000000000000000000 DUP2 MSTORE PUSH1 0x4 ADD PUSH2 0x2BC SWAP2 SWAP1 PUSH2 0x17A4 JUMP JUMPDEST POP DUP1 PUSH1 0x40 MLOAD SWAP1 DUP1 DUP3 MSTORE DUP1 PUSH1 0x1F ADD PUSH1 0x1F NOT AND PUSH1 0x20 ADD DUP3 ADD PUSH1 0x40 MSTORE DUP1 ISZERO PUSH2 0x102C JUMPI DUP2 PUSH1 0x20 ADD PUSH1 0x20 DUP3 MUL DUP1 CODESIZE DUP4 CODECOPY ADD SWAP1 POP JUMPDEST POP SWAP2 POP PUSH2 0x1052 PUSH2 0x103B DUP4 PUSH2 0xBD8 JUMP JUMPDEST PUSH1 0x20 ADD DUP5 PUSH2 0x1048 DUP8 PUSH2 0xBD8 JUMP JUMPDEST ADD PUSH1 0x20 ADD DUP4 PUSH2 0x1104 JUMP JUMPDEST POP SWAP3 SWAP2 POP POP JUMP JUMPDEST PUSH1 0x0 DUP2 PUSH1 0x20 ADD DUP4 MLOAD LT ISZERO PUSH1 0x60 PUSH1 0x40 MLOAD SWAP1 DUP2 ADD PUSH1 0x40 MSTORE DUP1 PUSH1 0x26 DUP2 MSTORE PUSH1 0x20 ADD PUSH32 0x475245415445525F4F525F455155414C5F544F5F33325F4C454E4754485F5245 DUP2 MSTORE PUSH1 0x20 ADD PUSH32 0x5155495245440000000000000000000000000000000000000000000000000000 DUP2 MSTORE POP SWAP1 ISZERO ISZERO PUSH2 0x10FA JUMPI PUSH1 0x40 MLOAD PUSH32 0x8C379A000000000000000000000000000000000000000000000000000000000 DUP2 MSTORE PUSH1 0x4 ADD PUSH2 0x2BC SWAP2 SWAP1 PUSH2 0x17A4 JUMP JUMPDEST POP POP ADD PUSH1 0x20 ADD MLOAD SWAP1 JUMP JUMPDEST PUSH1 0x20 DUP2 LT ISZERO PUSH2 0x112E JUMPI PUSH1 0x1 DUP2 PUSH1 0x20 SUB PUSH2 0x100 EXP SUB DUP1 NOT DUP4 MLOAD AND DUP2 DUP6 MLOAD AND DUP1 DUP3 OR DUP7 MSTORE POP POP POP PUSH2 0x11C3 JUMP JUMPDEST DUP3 DUP3 EQ ISZERO PUSH2 0x113B JUMPI PUSH2 0x11C3 JUMP JUMPDEST DUP3 DUP3 GT ISZERO PUSH2 0x1175 JUMPI PUSH1 0x20 DUP2 SUB SWAP1 POP DUP1 DUP3 ADD DUP2 DUP5 ADD DUP2 MLOAD JUMPDEST DUP3 DUP6 LT ISZERO PUSH2 0x116D JUMPI DUP5 MLOAD DUP7 MSTORE PUSH1 0x20 SWAP6 DUP7 ADD SWAP6 SWAP1 SWAP5 ADD SWAP4 PUSH2 0x1152 JUMP JUMPDEST SWAP1 MSTORE POP PUSH2 0x11C3 JUMP JUMPDEST PUSH1 0x20 DUP2 SUB SWAP1 POP DUP1 DUP3 ADD DUP2 DUP5 ADD DUP4 MLOAD JUMPDEST DUP2 DUP7 SLT ISZERO PUSH2 0x11BE JUMPI DUP3 MLOAD DUP3 MSTORE PUSH32 0xFFFFFFFFFFFFFFFFFFFFFFFFFFFFFFFFFFFFFFFFFFFFFFFFFFFFFFFFFFFFFFE0 SWAP3 DUP4 ADD SWAP3 SWAP1 SWAP2 ADD SWAP1 PUSH2 0x1184 JUMP JUMPDEST DUP6 MSTORE POP POP JUMPDEST POP POP POP JUMP JUMPDEST DUP2 SLOAD DUP2 DUP4 SSTORE DUP2 DUP2 GT ISZERO PUSH2 0x11C3 JUMPI PUSH1 0x0 DUP4 DUP2 MSTORE PUSH1 0x20 SWAP1 KECCAK256 PUSH2 0x11C3 SWAP2 DUP2 ADD SWAP1 DUP4 ADD PUSH2 0xBD8 SWAP2 SWAP1 JUMPDEST DUP1 DUP3 GT ISZERO PUSH2 0x1201 JUMPI PUSH1 0x0 DUP2 SSTORE PUSH1 0x1 ADD PUSH2 0x11ED JUMP JUMPDEST POP SWAP1 JUMP JUMPDEST PUSH1 0x0 PUSH2 0xF42 DUP3 CALLDATALOAD PUSH2 0x186B JUMP JUMPDEST PUSH1 0x0 PUSH1 0x1F DUP3 ADD DUP4 SGT PUSH2 0x1222 JUMPI PUSH1 0x0 DUP1 REVERT JUMPDEST DUP2 CALLDATALOAD PUSH2 0x1235 PUSH2 0x1230 DUP3 PUSH2 0x17FA JUMP JUMPDEST PUSH2 0x17D3 JUMP JUMPDEST SWAP2 POP DUP2 DUP2 DUP4 MSTORE PUSH1 0x20 DUP5 ADD SWAP4 POP PUSH1 0x20 DUP2 ADD SWAP1 POP DUP4 DUP6 PUSH1 0x20 DUP5 MUL DUP3 ADD GT ISZERO PUSH2 0x125A JUMPI PUSH1 0x0 DUP1 REVERT JUMPDEST PUSH1 0x0 JUMPDEST DUP4 DUP2 LT ISZERO PUSH2 0x1286 JUMPI DUP2 PUSH2 0x1270 DUP9 DUP3 PUSH2 0x1205 JUMP JUMPDEST DUP5 MSTORE POP PUSH1 0x20 SWAP3 DUP4 ADD SWAP3 SWAP2 SWAP1 SWAP2 ADD SWAP1 PUSH1 0x1 ADD PUSH2 0x125D JUMP JUMPDEST POP POP POP POP SWAP3 SWAP2 POP POP JUMP JUMPDEST PUSH1 0x0 PUSH1 0x1F DUP3 ADD DUP4 SGT PUSH2 0x12A1 JUMPI PUSH1 0x0 DUP1 REVERT JUMPDEST DUP2 CALLDATALOAD PUSH2 0x12AF PUSH2 0x1230 DUP3 PUSH2 0x17FA JUMP JUMPDEST DUP2 DUP2 MSTORE PUSH1 0x20 SWAP4 DUP5 ADD SWAP4 SWAP1 SWAP3 POP DUP3 ADD DUP4 PUSH1 0x0 JUMPDEST DUP4 DUP2 LT ISZERO PUSH2 0x1286 JUMPI DUP2 CALLDATALOAD DUP7 ADD PUSH2 0x12D7 DUP9 DUP3 PUSH2 0x13A6 JUMP JUMPDEST DUP5 MSTORE POP PUSH1 0x20 SWAP3 DUP4 ADD SWAP3 SWAP2 SWAP1 SWAP2 ADD SWAP1 PUSH1 0x1 ADD PUSH2 0x12C1 JUMP JUMPDEST PUSH1 0x0 PUSH1 0x1F DUP3 ADD DUP4 SGT PUSH2 0x12FE JUMPI PUSH1 0x0 DUP1 REVERT JUMPDEST DUP2 CALLDATALOAD PUSH2 0x130C PUSH2 0x1230 DUP3 PUSH2 0x17FA JUMP JUMPDEST SWAP2 POP DUP2 DUP2 DUP4 MSTORE PUSH1 0x20 DUP5 ADD SWAP4 POP PUSH1 0x20 DUP2 ADD SWAP1 POP DUP4 DUP6 PUSH1 0x20 DUP5 MUL DUP3 ADD GT ISZERO PUSH2 0x1331 JUMPI PUSH1 0x0 DUP1 REVERT JUMPDEST PUSH1 0x0 JUMPDEST DUP4 DUP2 LT ISZERO PUSH2 0x1286 JUMPI DUP2 PUSH2 0x1347 DUP9 DUP3 PUSH2 0x13F5 JUMP JUMPDEST DUP5 MSTORE POP PUSH1 0x20 SWAP3 DUP4 ADD SWAP3 SWAP2 SWAP1 SWAP2 ADD SWAP1 PUSH1 0x1 ADD PUSH2 0x1334 JUMP JUMPDEST PUSH1 0x0 DUP1 PUSH1 0x1F DUP4 ADD DUP5 SGT PUSH2 0x136F JUMPI PUSH1 0x0 DUP1 REVERT JUMPDEST POP DUP2 CALLDATALOAD PUSH8 0xFFFFFFFFFFFFFFFF DUP2 GT ISZERO PUSH2 0x1387 JUMPI PUSH1 0x0 DUP1 REVERT JUMPDEST PUSH1 0x20 DUP4 ADD SWAP2 POP DUP4 PUSH1 0x1 DUP3 MUL DUP4 ADD GT ISZERO PUSH2 0x139F JUMPI PUSH1 0x0 DUP1 REVERT JUMPDEST SWAP3 POP SWAP3 SWAP1 POP JUMP JUMPDEST PUSH1 0x0 PUSH1 0x1F DUP3 ADD DUP4 SGT PUSH2 0x13B7 JUMPI PUSH1 0x0 DUP1 REVERT JUMPDEST DUP2 CALLDATALOAD PUSH2 0x13C5 PUSH2 0x1230 DUP3 PUSH2 0x181B JUMP JUMPDEST SWAP2 POP DUP1 DUP3 MSTORE PUSH1 0x20 DUP4 ADD PUSH1 0x20 DUP4 ADD DUP6 DUP4 DUP4 ADD GT ISZERO PUSH2 0x13E1 JUMPI PUSH1 0x0 DUP1 REVERT JUMPDEST PUSH2 0x13EC DUP4 DUP3 DUP5 PUSH2 0x188F JUMP JUMPDEST POP POP POP SWAP3 SWAP2 POP POP JUMP JUMPDEST PUSH1 0x0 PUSH2 0xF42 DUP3 CALLDATALOAD PUSH2 0xBD8 JUMP JUMPDEST PUSH1 0x0 PUSH1 0x20 DUP3 DUP5 SUB SLT ISZERO PUSH2 0x1413 JUMPI PUSH1 0x0 DUP1 REVERT JUMPDEST PUSH1 0x0 PUSH2 0x141F DUP5 DUP5 PUSH2 0x1205 JUMP JUMPDEST SWAP5 SWAP4 POP POP POP POP JUMP JUMPDEST PUSH1 0x0 DUP1 PUSH1 0x40 DUP4 DUP6 SUB SLT ISZERO PUSH2 0x143A JUMPI PUSH1 0x0 DUP1 REVERT JUMPDEST PUSH1 0x0 PUSH2 0x1446 DUP6 DUP6 PUSH2 0x1205 JUMP JUMPDEST SWAP3 POP POP PUSH1 0x20 PUSH2 0x1457 DUP6 DUP3 DUP7 ADD PUSH2 0x13F5 JUMP JUMPDEST SWAP2 POP POP SWAP3 POP SWAP3 SWAP1 POP JUMP JUMPDEST PUSH1 0x0 DUP1 PUSH1 0x0 DUP1 PUSH1 0x80 DUP6 DUP8 SUB SLT ISZERO PUSH2 0x1477 JUMPI PUSH1 0x0 DUP1 REVERT JUMPDEST DUP5 CALLDATALOAD PUSH8 0xFFFFFFFFFFFFFFFF DUP2 GT ISZERO PUSH2 0x148E JUMPI PUSH1 0x0 DUP1 REVERT JUMPDEST PUSH2 0x149A DUP8 DUP3 DUP9 ADD PUSH2 0x1290 JUMP JUMPDEST SWAP5 POP POP PUSH1 0x20 DUP6 ADD CALLDATALOAD PUSH8 0xFFFFFFFFFFFFFFFF DUP2 GT ISZERO PUSH2 0x14B7 JUMPI PUSH1 0x0 DUP1 REVERT JUMPDEST PUSH2 0x14C3 DUP8 DUP3 DUP9 ADD PUSH2 0x1211 JUMP JUMPDEST SWAP4 POP POP PUSH1 0x40 DUP6 ADD CALLDATALOAD PUSH8 0xFFFFFFFFFFFFFFFF DUP2 GT ISZERO PUSH2 0x14E0 JUMPI PUSH1 0x0 DUP1 REVERT JUMPDEST PUSH2 0x14EC DUP8 DUP3 DUP9 ADD PUSH2 0x1211 JUMP JUMPDEST SWAP3 POP POP PUSH1 0x60 DUP6 ADD CALLDATALOAD PUSH8 0xFFFFFFFFFFFFFFFF DUP2 GT ISZERO PUSH2 0x1509 JUMPI PUSH1 0x0 DUP1 REVERT JUMPDEST PUSH2 0x1515 DUP8 DUP3 DUP9 ADD PUSH2 0x12ED JUMP JUMPDEST SWAP2 POP POP SWAP3 SWAP6 SWAP2 SWAP5 POP SWAP3 POP JUMP JUMPDEST PUSH1 0x0 DUP1 PUSH1 0x0 DUP1 PUSH1 0x0 PUSH1 0x80 DUP7 DUP9 SUB SLT ISZERO PUSH2 0x1539 JUMPI PUSH1 0x0 DUP1 REVERT JUMPDEST DUP6 CALLDATALOAD PUSH8 0xFFFFFFFFFFFFFFFF DUP2 GT ISZERO PUSH2 0x1550 JUMPI PUSH1 0x0 DUP1 REVERT JUMPDEST PUSH2 0x155C DUP9 DUP3 DUP10 ADD PUSH2 0x135D JUMP JUMPDEST SWAP6 POP SWAP6 POP POP PUSH1 0x20 PUSH2 0x156F DUP9 DUP3 DUP10 ADD PUSH2 0x1205 JUMP JUMPDEST SWAP4 POP POP PUSH1 0x40 PUSH2 0x1580 DUP9 DUP3 DUP10 ADD PUSH2 0x1205 JUMP JUMPDEST SWAP3 POP POP PUSH1 0x60 PUSH2 0x1591 DUP9 DUP3 DUP10 ADD PUSH2 0x13F5 JUMP JUMPDEST SWAP2 POP POP SWAP3 SWAP6 POP SWAP3 SWAP6 SWAP1 SWAP4 POP JUMP JUMPDEST PUSH1 0x0 PUSH1 0x20 DUP3 DUP5 SUB SLT ISZERO PUSH2 0x15B0 JUMPI PUSH1 0x0 DUP1 REVERT JUMPDEST DUP2 CALLDATALOAD PUSH8 0xFFFFFFFFFFFFFFFF DUP2 GT ISZERO PUSH2 0x15C7 JUMPI PUSH1 0x0 DUP1 REVERT JUMPDEST PUSH2 0x141F DUP5 DUP3 DUP6 ADD PUSH2 0x13A6 JUMP JUMPDEST PUSH1 0x0 PUSH1 0x20 DUP3 DUP5 SUB SLT ISZERO PUSH2 0x15E5 JUMPI PUSH1 0x0 DUP1 REVERT JUMPDEST PUSH1 0x0 PUSH2 0x141F DUP5 DUP5 PUSH2 0x13F5 JUMP JUMPDEST PUSH2 0x15FA DUP2 PUSH2 0x186B JUMP JUMPDEST DUP3 MSTORE POP POP JUMP JUMPDEST PUSH1 0x0 PUSH2 0x160B DUP3 PUSH2 0x1867 JUMP JUMPDEST DUP1 DUP5 MSTORE PUSH1 0x20 DUP5 ADD SWAP4 POP PUSH2 0x161D DUP4 PUSH2 0x1861 JUMP JUMPDEST PUSH1 0x0 JUMPDEST DUP3 DUP2 LT ISZERO PUSH2 0x164D JUMPI PUSH2 0x1633 DUP7 DUP4 MLOAD PUSH2 0x15F1 JUMP JUMPDEST PUSH2 0x163C DUP3 PUSH2 0x1861 JUMP JUMPDEST PUSH1 0x20 SWAP7 SWAP1 SWAP7 ADD SWAP6 SWAP2 POP PUSH1 0x1 ADD PUSH2 0x1620 JUMP JUMPDEST POP SWAP4 SWAP5 SWAP4 POP POP POP POP JUMP JUMPDEST PUSH2 0x15FA DUP2 PUSH2 0x1884 JUMP JUMPDEST PUSH1 0x0 PUSH2 0x166B DUP3 PUSH2 0x1867 JUMP JUMPDEST DUP1 DUP5 MSTORE PUSH2 0x167F DUP2 PUSH1 0x20 DUP7 ADD PUSH1 0x20 DUP7 ADD PUSH2 0x189B JUMP JUMPDEST PUSH2 0x1688 DUP2 PUSH2 0x18CB JUMP JUMPDEST SWAP1 SWAP4 ADD PUSH1 0x20 ADD SWAP4 SWAP3 POP POP POP JUMP JUMPDEST PUSH1 0x33 DUP2 MSTORE PUSH32 0x4F6E6C7920636F6E7472616374206F776E657220697320616C6C6F7765642074 PUSH1 0x20 DUP3 ADD MSTORE PUSH32 0x6F2063616C6C2074686973206D6574686F642E00000000000000000000000000 PUSH1 0x40 DUP3 ADD MSTORE PUSH1 0x60 ADD SWAP1 JUMP JUMPDEST PUSH2 0x15FA DUP2 PUSH2 0xBD8 JUMP JUMPDEST PUSH2 0x15FA DUP2 PUSH2 0x1889 JUMP JUMPDEST PUSH1 0x20 DUP2 ADD PUSH2 0xF30 DUP3 DUP5 PUSH2 0x15F1 JUMP JUMPDEST PUSH1 0x80 DUP2 ADD PUSH2 0x1719 DUP3 DUP8 PUSH2 0x15F1 JUMP JUMPDEST PUSH2 0x1726 PUSH1 0x20 DUP4 ADD DUP7 PUSH2 0x15F1 JUMP JUMPDEST PUSH2 0x1733 PUSH1 0x40 DUP4 ADD DUP6 PUSH2 0x16EB JUMP JUMPDEST DUP2 DUP2 SUB PUSH1 0x60 DUP4 ADD MSTORE PUSH2 0x1745 DUP2 DUP5 PUSH2 0x1660 JUMP JUMPDEST SWAP7 SWAP6 POP POP POP POP POP POP JUMP JUMPDEST PUSH1 0x60 DUP2 ADD PUSH2 0x175D DUP3 DUP7 PUSH2 0x15F1 JUMP JUMPDEST PUSH2 0x176A PUSH1 0x20 DUP4 ADD DUP6 PUSH2 0x16EB JUMP JUMPDEST DUP2 DUP2 SUB PUSH1 0x40 DUP4 ADD MSTORE PUSH2 0x177C DUP2 DUP5 PUSH2 0x1660 JUMP JUMPDEST SWAP6 SWAP5 POP POP POP POP POP JUMP JUMPDEST PUSH1 0x20 DUP1 DUP3 MSTORE DUP2 ADD PUSH2 0xF42 DUP2 DUP5 PUSH2 0x1600 JUMP JUMPDEST PUSH1 0x20 DUP2 ADD PUSH2 0xF30 DUP3 DUP5 PUSH2 0x1657 JUMP JUMPDEST PUSH1 0x20 DUP1 DUP3 MSTORE DUP2 ADD PUSH2 0xF42 DUP2 DUP5 PUSH2 0x1660 JUMP JUMPDEST PUSH1 0x20 DUP1 DUP3 MSTORE DUP2 ADD PUSH2 0xF30 DUP2 PUSH2 0x1695 JUMP JUMPDEST PUSH1 0x20 DUP2 ADD PUSH2 0xF30 DUP3 DUP5 PUSH2 0x16F4 JUMP JUMPDEST PUSH1 0x40 MLOAD DUP2 DUP2 ADD PUSH8 0xFFFFFFFFFFFFFFFF DUP2 GT DUP3 DUP3 LT OR ISZERO PUSH2 0x17F2 JUMPI PUSH1 0x0 DUP1 REVERT JUMPDEST PUSH1 0x40 MSTORE SWAP2 SWAP1 POP JUMP JUMPDEST PUSH1 0x0 PUSH8 0xFFFFFFFFFFFFFFFF DUP3 GT ISZERO PUSH2 0x1811 JUMPI PUSH1 0x0 DUP1 REVERT JUMPDEST POP PUSH1 0x20 SWAP1 DUP2 MUL ADD SWAP1 JUMP JUMPDEST PUSH1 0x0 PUSH8 0xFFFFFFFFFFFFFFFF DUP3 GT ISZERO PUSH2 0x1832 JUMPI PUSH1 0x0 DUP1 REVERT JUMPDEST POP PUSH1 0x20 PUSH1 0x1F SWAP2 SWAP1 SWAP2 ADD PUSH32 0xFFFFFFFFFFFFFFFFFFFFFFFFFFFFFFFFFFFFFFFFFFFFFFFFFFFFFFFFFFFFFFE0 AND ADD SWAP1 JUMP JUMPDEST PUSH1 0x20 ADD SWAP1 JUMP JUMPDEST MLOAD SWAP1 JUMP JUMPDEST PUSH20 0xFFFFFFFFFFFFFFFFFFFFFFFFFFFFFFFFFFFFFFFF AND SWAP1 JUMP JUMPDEST ISZERO ISZERO SWAP1 JUMP JUMPDEST PUSH1 0xFF AND SWAP1 JUMP JUMPDEST DUP3 DUP2 DUP4 CALLDATACOPY POP PUSH1 0x0 SWAP2 ADD MSTORE JUMP JUMPDEST PUSH1 0x0 JUMPDEST DUP4 DUP2 LT ISZERO PUSH2 0x18B6 JUMPI DUP2 DUP2 ADD MLOAD DUP4 DUP3 ADD MSTORE PUSH1 0x20 ADD PUSH2 0x189E JUMP JUMPDEST DUP4 DUP2 GT ISZERO PUSH2 0x18C5 JUMPI PUSH1 0x0 DUP5 DUP5 ADD MSTORE JUMPDEST POP POP POP POP JUMP JUMPDEST PUSH1 0x1F ADD PUSH32 0xFFFFFFFFFFFFFFFFFFFFFFFFFFFFFFFFFFFFFFFFFFFFFFFFFFFFFFFFFFFFFFE0 AND SWAP1 JUMP STOP LOG2 PUSH6 0x627A7A723058 KECCAK256 SMOD 0xb6 SWAP16 0xd4 0xc6 0xb9 MULMOD 0x25 0xeb PUSH27 0x8498088FFC50E8556F7BF8A6DFA613A40725B0387C746C65787065 PUSH19 0x696D656E74616CF50037000000000000000000 "
			}
		}
	},
	"sourceTreeHashHex": "0x9c2238b8b5ab009540f26527b0d4a4c0a43d11278d1f562ca44035fde2cc75d7",
	"compiler": {
		"name": "solc",
		"version": "soljson-v0.4.24+commit.e67f0147.js",
		"settings": {
			"optimizer": {
				"enabled": true,
				"runs": 1000000
			},
			"outputSelection": {
				"*": {
					"*": [
						"abi",
						"evm.bytecode.object",
						"evm.bytecode.sourceMap",
						"evm.deployedBytecode.object",
						"evm.deployedBytecode.sourceMap"
					]
				}
			}
		}
	}
}