{
	"schemaVersion": "2.0.0",
	"contractName": "TestLibAssetProxyDecoder",
	"compilerOutput": {
		"abi": [
			{
				"constant": true,
				"inputs": [
					{
						"name": "proxyData",
						"type": "bytes"
					}
				],
				"name": "publicDecodeERC20Data",
				"outputs": [
					{
						"name": "",
						"type": "uint8"
					},
					{
						"name": "",
						"type": "address"
					}
				],
				"payable": false,
				"stateMutability": "pure",
				"type": "function"
			}
		],
		"evm": {
			"bytecode": {
				"linkReferences": {},
				"object": "0x608060405234801561001057600080fd5b506103a7806100206000396000f3006080604052600436106100275763ffffffff60e060020a600035041663bd27c22d811461002c575b600080fd5b34801561003857600080fd5b5061004c610047366004610208565b610063565b60405161005a9291906102a9565b60405180910390f35b60008061006f83610078565b91509150915091565b6000808251601514606060405190810160405280602281526020017f4d65746164617461206d75737420686176652061206c656e677468206f662032815260200160f160020a611897028152509015156100f15760405160e560020a62461bcd0281526004016100e89190610291565b60405180910390fd5b5082600081518110151561010157fe5b016020015160f860020a90819004810204915061011f836001610126565b9050915091565b60008160140183511015606060405190810160405280602b81526020017f4c656e677468206d7573742062652067726561746572207468616e206f722065815260200160a960020a6a38bab0b6103a3790191817028152509015156101a15760405160e560020a62461bcd0281526004016100e89190610291565b50500160140151600160a060020a031690565b6000601f820183136101c557600080fd5b81356101d86101d3826102ea565b6102c4565b915080825260208301602083018583830111156101f457600080fd5b6101ff838284610327565b50505092915050565b60006020828403121561021a57600080fd5b81356001604060020a0381111561023057600080fd5b61023c848285016101b4565b949350505050565b61024d81610315565b82525050565b600061025e82610311565b808452610272816020860160208601610333565b61027b81610363565b9093016020019392505050565b61024d81610321565b602080825281016102a28184610253565b9392505050565b604081016102b78285610288565b6102a26020830184610244565b6040518181016001604060020a03811182821017156102e257600080fd5b604052919050565b60006001604060020a0382111561030057600080fd5b506020601f91909101601f19160190565b5190565b600160a060020a031690565b60ff1690565b82818337506000910152565b60005b8381101561034e578181015183820152602001610336565b8381111561035d576000848401525b50505050565b601f01601f1916905600a265627a7a7230582008b76108b6bf36a2766e799f617e47a5feab326e99d46ea5c5bcb8d7dfc682db6c6578706572696d656e74616cf50037",
				"opcodes": "PUSH1 0x80 PUSH1 0x40 MSTORE CALLVALUE DUP1 ISZERO PUSH2 0x10 JUMPI PUSH1 0x0 DUP1 REVERT JUMPDEST POP PUSH2 0x3A7 DUP1 PUSH2 0x20 PUSH1 0x0 CODECOPY PUSH1 0x0 RETURN STOP PUSH1 0x80 PUSH1 0x40 MSTORE PUSH1 0x4 CALLDATASIZE LT PUSH2 0x27 JUMPI PUSH4 0xFFFFFFFF PUSH1 0xE0 PUSH1 0x2 EXP PUSH1 0x0 CALLDATALOAD DIV AND PUSH4 0xBD27C22D DUP2 EQ PUSH2 0x2C JUMPI JUMPDEST PUSH1 0x0 DUP1 REVERT JUMPDEST CALLVALUE DUP1 ISZERO PUSH2 0x38 JUMPI PUSH1 0x0 DUP1 REVERT JUMPDEST POP PUSH2 0x4C PUSH2 0x47 CALLDATASIZE PUSH1 0x4 PUSH2 0x208 JUMP JUMPDEST PUSH2 0x63 JUMP JUMPDEST PUSH1 0x40 MLOAD PUSH2 0x5A SWAP3 SWAP2 SWAP1 PUSH2 0x2A9 JUMP JUMPDEST PUSH1 0x40 MLOAD DUP1 SWAP2 SUB SWAP1 RETURN JUMPDEST PUSH1 0x0 DUP1 PUSH2 0x6F DUP4 PUSH2 0x78 JUMP JUMPDEST SWAP2 POP SWAP2 POP SWAP2 POP SWAP2 JUMP JUMPDEST PUSH1 0x0 DUP1 DUP3 MLOAD PUSH1 0x15 EQ PUSH1 0x60 PUSH1 0x40 MLOAD SWAP1 DUP2 ADD PUSH1 0x40 MSTORE DUP1 PUSH1 0x22 DUP2 MSTORE PUSH1 0x20 ADD PUSH32 0x4D65746164617461206D75737420686176652061206C656E677468206F662032 DUP2 MSTORE PUSH1 0x20 ADD PUSH1 0xF1 PUSH1 0x2 EXP PUSH2 0x1897 MUL DUP2 MSTORE POP SWAP1 ISZERO ISZERO PUSH2 0xF1 JUMPI PUSH1 0x40 MLOAD PUSH1 0xE5 PUSH1 0x2 EXP PUSH3 0x461BCD MUL DUP2 MSTORE PUSH1 0x4 ADD PUSH2 0xE8 SWAP2 SWAP1 PUSH2 0x291 JUMP JUMPDEST PUSH1 0x40 MLOAD DUP1 SWAP2 SUB SWAP1 REVERT JUMPDEST POP DUP3 PUSH1 0x0 DUP2 MLOAD DUP2 LT ISZERO ISZERO PUSH2 0x101 JUMPI INVALID JUMPDEST ADD PUSH1 0x20 ADD MLOAD PUSH1 0xF8 PUSH1 0x2 EXP SWAP1 DUP2 SWAP1 DIV DUP2 MUL DIV SWAP2 POP PUSH2 0x11F DUP4 PUSH1 0x1 PUSH2 0x126 JUMP JUMPDEST SWAP1 POP SWAP2 POP SWAP2 JUMP JUMPDEST PUSH1 0x0 DUP2 PUSH1 0x14 ADD DUP4 MLOAD LT ISZERO PUSH1 0x60 PUSH1 0x40 MLOAD SWAP1 DUP2 ADD PUSH1 0x40 MSTORE DUP1 PUSH1 0x2B DUP2 MSTORE PUSH1 0x20 ADD PUSH32 0x4C656E677468206D7573742062652067726561746572207468616E206F722065 DUP2 MSTORE PUSH1 0x20 ADD PUSH1 0xA9 PUSH1 0x2 EXP PUSH11 0x38BAB0B6103A3790191817 MUL DUP2 MSTORE POP SWAP1 ISZERO ISZERO PUSH2 0x1A1 JUMPI PUSH1 0x40 MLOAD PUSH1 0xE5 PUSH1 0x2 EXP PUSH3 0x461BCD MUL DUP2 MSTORE PUSH1 0x4 ADD PUSH2 0xE8 SWAP2 SWAP1 PUSH2 0x291 JUMP JUMPDEST POP POP ADD PUSH1 0x14 ADD MLOAD PUSH1 0x1 PUSH1 0xA0 PUSH1 0x2 EXP SUB AND SWAP1 JUMP JUMPDEST PUSH1 0x0 PUSH1 0x1F DUP3 ADD DUP4 SGT PUSH2 0x1C5 JUMPI PUSH1 0x0 DUP1 REVERT JUMPDEST DUP2 CALLDATALOAD PUSH2 0x1D8 PUSH2 0x1D3 DUP3 PUSH2 0x2EA JUMP JUMPDEST PUSH2 0x2C4 JUMP JUMPDEST SWAP2 POP DUP1 DUP3 MSTORE PUSH1 0x20 DUP4 ADD PUSH1 0x20 DUP4 ADD DUP6 DUP4 DUP4 ADD GT ISZERO PUSH2 0x1F4 JUMPI PUSH1 0x0 DUP1 REVERT JUMPDEST PUSH2 0x1FF DUP4 DUP3 DUP5 PUSH2 0x327 JUMP JUMPDEST POP POP POP SWAP3 SWAP2 POP POP JUMP JUMPDEST PUSH1 0x0 PUSH1 0x20 DUP3 DUP5 SUB SLT ISZERO PUSH2 0x21A JUMPI PUSH1 0x0 DUP1 REVERT JUMPDEST DUP2 CALLDATALOAD PUSH1 0x1 PUSH1 0x40 PUSH1 0x2 EXP SUB DUP2 GT ISZERO PUSH2 0x230 JUMPI PUSH1 0x0 DUP1 REVERT JUMPDEST PUSH2 0x23C DUP5 DUP3 DUP6 ADD PUSH2 0x1B4 JUMP JUMPDEST SWAP5 SWAP4 POP POP POP POP JUMP JUMPDEST PUSH2 0x24D DUP2 PUSH2 0x315 JUMP JUMPDEST DUP3 MSTORE POP POP JUMP JUMPDEST PUSH1 0x0 PUSH2 0x25E DUP3 PUSH2 0x311 JUMP JUMPDEST DUP1 DUP5 MSTORE PUSH2 0x272 DUP2 PUSH1 0x20 DUP7 ADD PUSH1 0x20 DUP7 ADD PUSH2 0x333 JUMP JUMPDEST PUSH2 0x27B DUP2 PUSH2 0x363 JUMP JUMPDEST SWAP1 SWAP4 ADD PUSH1 0x20 ADD SWAP4 SWAP3 POP POP POP JUMP JUMPDEST PUSH2 0x24D DUP2 PUSH2 0x321 JUMP JUMPDEST PUSH1 0x20 DUP1 DUP3 MSTORE DUP2 ADD PUSH2 0x2A2 DUP2 DUP5 PUSH2 0x253 JUMP JUMPDEST SWAP4 SWAP3 POP POP POP JUMP JUMPDEST PUSH1 0x40 DUP2 ADD PUSH2 0x2B7 DUP3 DUP6 PUSH2 0x288 JUMP JUMPDEST PUSH2 0x2A2 PUSH1 0x20 DUP4 ADD DUP5 PUSH2 0x244 JUMP JUMPDEST PUSH1 0x40 MLOAD DUP2 DUP2 ADD PUSH1 0x1 PUSH1 0x40 PUSH1 0x2 EXP SUB DUP2 GT DUP3 DUP3 LT OR ISZERO PUSH2 0x2E2 JUMPI PUSH1 0x0 DUP1 REVERT JUMPDEST PUSH1 0x40 MSTORE SWAP2 SWAP1 POP JUMP JUMPDEST PUSH1 0x0 PUSH1 0x1 PUSH1 0x40 PUSH1 0x2 EXP SUB DUP3 GT ISZERO PUSH2 0x300 JUMPI PUSH1 0x0 DUP1 REVERT JUMPDEST POP PUSH1 0x20 PUSH1 0x1F SWAP2 SWAP1 SWAP2 ADD PUSH1 0x1F NOT AND ADD SWAP1 JUMP JUMPDEST MLOAD SWAP1 JUMP JUMPDEST PUSH1 0x1 PUSH1 0xA0 PUSH1 0x2 EXP SUB AND SWAP1 JUMP JUMPDEST PUSH1 0xFF AND SWAP1 JUMP JUMPDEST DUP3 DUP2 DUP4 CALLDATACOPY POP PUSH1 0x0 SWAP2 ADD MSTORE JUMP JUMPDEST PUSH1 0x0 JUMPDEST DUP4 DUP2 LT ISZERO PUSH2 0x34E JUMPI DUP2 DUP2 ADD MLOAD DUP4 DUP3 ADD MSTORE PUSH1 0x20 ADD PUSH2 0x336 JUMP JUMPDEST DUP4 DUP2 GT ISZERO PUSH2 0x35D JUMPI PUSH1 0x0 DUP5 DUP5 ADD MSTORE JUMPDEST POP POP POP POP JUMP JUMPDEST PUSH1 0x1F ADD PUSH1 0x1F NOT AND SWAP1 JUMP STOP LOG2 PUSH6 0x627A7A723058 KECCAK256 ADDMOD 0xb7 PUSH2 0x8B6 0xbf CALLDATASIZE LOG2 PUSH23 0x6E799F617E47A5FEAB326E99D46EA5C5BCB8D7DFC682DB PUSH13 0x6578706572696D656E74616CF5 STOP CALLDATACOPY "
			}
		}
	},
	"sourceTreeHashHex": "0x8431fff2ae9424603c06a10d9c4649edf92a798a8969fe69339fc0063b7ad144",
	"compiler": {
		"name": "solc",
		"version": "0.4.24",
		"settings": {
			"optimizer": {
				"enabled": true,
				"runs": 0
			},
			"outputSelection": {
				"*": {
					"*": [
						"abi",
						"evm.bytecode.object",
						"evm.bytecode.sourceMap",
						"evm.deployedBytecode.object",
						"evm.deployedBytecode.sourceMap"
					]
				}
			}
		}
	}
}