{
	"schemaVersion": "2.0.0",
	"contractName": "TestLibMem",
	"compilerOutput": {
		"abi": [
			{
				"constant": true,
				"inputs": [],
				"name": "test3",
				"outputs": [],
				"payable": false,
				"stateMutability": "pure",
				"type": "function"
			},
			{
				"constant": true,
				"inputs": [],
				"name": "test5",
				"outputs": [],
				"payable": false,
				"stateMutability": "pure",
				"type": "function"
			},
			{
				"constant": true,
				"inputs": [],
				"name": "test2",
				"outputs": [],
				"payable": false,
				"stateMutability": "pure",
				"type": "function"
			},
			{
				"constant": true,
				"inputs": [],
				"name": "test7",
				"outputs": [],
				"payable": false,
				"stateMutability": "pure",
				"type": "function"
			},
			{
				"constant": true,
				"inputs": [],
				"name": "test1",
				"outputs": [],
				"payable": false,
				"stateMutability": "pure",
				"type": "function"
			},
			{
				"constant": true,
				"inputs": [],
				"name": "test6",
				"outputs": [],
				"payable": false,
				"stateMutability": "pure",
				"type": "function"
			},
			{
				"constant": true,
				"inputs": [],
				"name": "test4",
				"outputs": [],
				"payable": false,
				"stateMutability": "pure",
				"type": "function"
			}
		],
		"evm": {
			"bytecode": {
				"linkReferences": {},
				"object": "0x608060405234801561001057600080fd5b50610b3b806100206000396000f3006080604052600436106100695763ffffffff60e060020a6000350416630a8e8e01811461006e5780631ad7be821461008557806366e41cb71461009a57806366e84d62146100af5780636b59084d146100c45780636f3babc4146100d95780638f0d282d146100ee575b600080fd5b34801561007a57600080fd5b50610083610103565b005b34801561009157600080fd5b50610083610243565b3480156100a657600080fd5b50610083610369565b3480156100bb57600080fd5b50610083610486565b3480156100d057600080fd5b506100836105c4565b3480156100e557600080fd5b5061008361065b565b3480156100fa57600080fd5b506100836108e6565b60408051600b8082528183019092526060906000908290846020820161016080388339019050509250600091505b8382101561017757600f820660010160f860020a02838381518110151561015457fe5b906020010190600160f860020a031916908160001a905350816001019150610131565b836040519080825280601f01601f1916602001820160405280156101a5578160200160208202803883390190505b5090506101c96101b482610a0a565b6020016101c085610a0a565b60200186610a0d565b6101d38382610aa8565b151561023d576040805160e560020a62461bcd02815260206004820152603060248201527f54657374202333206661696c65642e20417272617920636f6e74656e747320616044820152600080516020610af0833981519152606482015290519081900360840190fd5b50505050565b604080516048808252608082019092526060906000908290846020820161090080388339019050509250600091505b838210156102b857600f820660010160f860020a02838381518110151561029557fe5b906020010190600160f860020a031916908160001a905350816001019150610272565b836040519080825280601f01601f1916602001820160405280156102e6578160200160208202803883390190505b5090506102f56101b482610a0a565b6102ff8382610aa8565b151561023d576040805160e560020a62461bcd02815260206004820152603060248201527f54657374202335206661696c65642e20417272617920636f6e74656e747320616044820152600080516020610af0833981519152606482015290519081900360840190fd5b604080516001808252818301909252606090819083602080830190803883395050815191935060f860020a9184915060009081106103a357fe5b906020010190600160f860020a031916908160001a905350826040519080825280601f01601f1916602001820160405280156103e9578160200160208202803883390190505b50905061040d6103f882610a0a565b60200161040484610a0a565b60200185610a0d565b6104178282610aa8565b1515610481576040805160e560020a62461bcd02815260206004820152603060248201527f54657374202332206661696c65642e20417272617920636f6e74656e747320616044820152600080516020610af0833981519152606482015290519081900360840190fd5b505050565b604080516048808252608082019092526060906000908290846020820161090080388339019050509250600091505b838210156104fb57600f820660010160f860020a0283838151811015156104d857fe5b906020010190600160f860020a031916908160001a9053508160010191506104b5565b836040519080825280601f01601f191660200182016040528015610529578160200160208202803883390190505b50905061055061053882610a0a565b60200161054485610a0a565b60200160088703610a0d565b61055a8382610aa8565b151561023d576040805160e560020a62461bcd02815260206004820152603060248201527f54657374202337206661696c65642e20417272617920636f6e74656e747320616044820152600080516020610af0833981519152606482015290519081900360840190fd5b60408051600080825260208201818152828401909352916105e76103f882610a0a565b6105f18282610aa8565b1515610481576040805160e560020a62461bcd02815260206004820152603060248201527f54657374202331206661696c65642e20417272617920636f6e74656e747320616044820152600080516020610af0833981519152606482015290519081900360840190fd5b6040805160ac80825260e082019092526048916064916060918291600091839183918391906020820161158080388339019050509550876040519080825280601f01601f1916602001820160405280156106bf578160200160208202803883390190505b509450600093505b8784101561074057600f840660010160f860020a0285858151811015156106ea57fe5b906020010190600160f860020a031916908160001a905350600f840660010160f860020a02868581518110151561071d57fe5b906020010190600160f860020a031916908160001a9053508360010193506106c7565b866040519080825280601f01601f19166020018201604052801561076e578160200160208202803883390190505b509250600091505b868410156107f157600f820660010160f860020a02838381518110151561079957fe5b906020010190600160f860020a031916908160001a905350600f820660010160f860020a0286838a018151811015156107ce57fe5b906020010190600160f860020a031916908160001a905350836001019350610776565b8688016040519080825280601f01601f191660200182016040528015610821578160200160208202803883390190505b50905061084561083082610a0a565b60200161083c87610a0a565b6020018a610a0d565b6108688861085283610a0a565b6020010161085f85610a0a565b60200189610a0d565b6108728682610aa8565b15156108dc576040805160e560020a62461bcd02815260206004820152603060248201527f54657374202336206661696c65642e20417272617920636f6e74656e747320616044820152600080516020610af0833981519152606482015290519081900360840190fd5b5050505050505050565b60408051602080825281830190925260609060009082908480820161040080388339019050509250600091505b8382101561095957600f820660010160f860020a02838381518110151561093657fe5b906020010190600160f860020a031916908160001a905350816001019150610913565b836040519080825280601f01601f191660200182016040528015610987578160200160208202803883390190505b5090506109966101b482610a0a565b6109a08382610aa8565b151561023d576040805160e560020a62461bcd02815260206004820152603060248201527f54657374202334206661696c65642e20417272617920636f6e74656e747320616044820152600080516020610af0833981519152606482015290519081900360840190fd5b90565b801515610a1957610481565b82821415610a2657610481565b6020601f820104602082066000811115610a41576001820391505b6000602083025b80821015610a63578186015182880152602082019150610a48565b6000831115610a9f578260200360080260020a8287015181828204028560080260020a858b0151818282020480841780898f0152505050505050505b50505050505050565b60006020601f8451010460018101905060005b81811015610ae757602081028581015190850151808214945084610add578392505b5050600101610abb565b50509291505056007265206e6f74207468652073616d652e00000000000000000000000000000000a165627a7a7230582067ac05deae38337111211dd675da7f43d78195c49b3a3d67c6e2f86677f5219a0029",
				"opcodes": "PUSH1 0x80 PUSH1 0x40 MSTORE CALLVALUE DUP1 ISZERO PUSH2 0x10 JUMPI PUSH1 0x0 DUP1 REVERT JUMPDEST POP PUSH2 0xB3B DUP1 PUSH2 0x20 PUSH1 0x0 CODECOPY PUSH1 0x0 RETURN STOP PUSH1 0x80 PUSH1 0x40 MSTORE PUSH1 0x4 CALLDATASIZE LT PUSH2 0x69 JUMPI PUSH4 0xFFFFFFFF PUSH1 0xE0 PUSH1 0x2 EXP PUSH1 0x0 CALLDATALOAD DIV AND PUSH4 0xA8E8E01 DUP2 EQ PUSH2 0x6E JUMPI DUP1 PUSH4 0x1AD7BE82 EQ PUSH2 0x85 JUMPI DUP1 PUSH4 0x66E41CB7 EQ PUSH2 0x9A JUMPI DUP1 PUSH4 0x66E84D62 EQ PUSH2 0xAF JUMPI DUP1 PUSH4 0x6B59084D EQ PUSH2 0xC4 JUMPI DUP1 PUSH4 0x6F3BABC4 EQ PUSH2 0xD9 JUMPI DUP1 PUSH4 0x8F0D282D EQ PUSH2 0xEE JUMPI JUMPDEST PUSH1 0x0 DUP1 REVERT JUMPDEST CALLVALUE DUP1 ISZERO PUSH2 0x7A JUMPI PUSH1 0x0 DUP1 REVERT JUMPDEST POP PUSH2 0x83 PUSH2 0x103 JUMP JUMPDEST STOP JUMPDEST CALLVALUE DUP1 ISZERO PUSH2 0x91 JUMPI PUSH1 0x0 DUP1 REVERT JUMPDEST POP PUSH2 0x83 PUSH2 0x243 JUMP JUMPDEST CALLVALUE DUP1 ISZERO PUSH2 0xA6 JUMPI PUSH1 0x0 DUP1 REVERT JUMPDEST POP PUSH2 0x83 PUSH2 0x369 JUMP JUMPDEST CALLVALUE DUP1 ISZERO PUSH2 0xBB JUMPI PUSH1 0x0 DUP1 REVERT JUMPDEST POP PUSH2 0x83 PUSH2 0x486 JUMP JUMPDEST CALLVALUE DUP1 ISZERO PUSH2 0xD0 JUMPI PUSH1 0x0 DUP1 REVERT JUMPDEST POP PUSH2 0x83 PUSH2 0x5C4 JUMP JUMPDEST CALLVALUE DUP1 ISZERO PUSH2 0xE5 JUMPI PUSH1 0x0 DUP1 REVERT JUMPDEST POP PUSH2 0x83 PUSH2 0x65B JUMP JUMPDEST CALLVALUE DUP1 ISZERO PUSH2 0xFA JUMPI PUSH1 0x0 DUP1 REVERT JUMPDEST POP PUSH2 0x83 PUSH2 0x8E6 JUMP JUMPDEST PUSH1 0x40 DUP1 MLOAD PUSH1 0xB DUP1 DUP3 MSTORE DUP2 DUP4 ADD SWAP1 SWAP3 MSTORE PUSH1 0x60 SWAP1 PUSH1 0x0 SWAP1 DUP3 SWAP1 DUP5 PUSH1 0x20 DUP3 ADD PUSH2 0x160 DUP1 CODESIZE DUP4 CODECOPY ADD SWAP1 POP POP SWAP3 POP PUSH1 0x0 SWAP2 POP JUMPDEST DUP4 DUP3 LT ISZERO PUSH2 0x177 JUMPI PUSH1 0xF DUP3 MOD PUSH1 0x1 ADD PUSH1 0xF8 PUSH1 0x2 EXP MUL DUP4 DUP4 DUP2 MLOAD DUP2 LT ISZERO ISZERO PUSH2 0x154 JUMPI INVALID JUMPDEST SWAP1 PUSH1 0x20 ADD ADD SWAP1 PUSH1 0x1 PUSH1 0xF8 PUSH1 0x2 EXP SUB NOT AND SWAP1 DUP2 PUSH1 0x0 BYTE SWAP1 MSTORE8 POP DUP2 PUSH1 0x1 ADD SWAP2 POP PUSH2 0x131 JUMP JUMPDEST DUP4 PUSH1 0x40 MLOAD SWAP1 DUP1 DUP3 MSTORE DUP1 PUSH1 0x1F ADD PUSH1 0x1F NOT AND PUSH1 0x20 ADD DUP3 ADD PUSH1 0x40 MSTORE DUP1 ISZERO PUSH2 0x1A5 JUMPI DUP2 PUSH1 0x20 ADD PUSH1 0x20 DUP3 MUL DUP1 CODESIZE DUP4 CODECOPY ADD SWAP1 POP JUMPDEST POP SWAP1 POP PUSH2 0x1C9 PUSH2 0x1B4 DUP3 PUSH2 0xA0A JUMP JUMPDEST PUSH1 0x20 ADD PUSH2 0x1C0 DUP6 PUSH2 0xA0A JUMP JUMPDEST PUSH1 0x20 ADD DUP7 PUSH2 0xA0D JUMP JUMPDEST PUSH2 0x1D3 DUP4 DUP3 PUSH2 0xAA8 JUMP JUMPDEST ISZERO ISZERO PUSH2 0x23D JUMPI PUSH1 0x40 DUP1 MLOAD PUSH1 0xE5 PUSH1 0x2 EXP PUSH3 0x461BCD MUL DUP2 MSTORE PUSH1 0x20 PUSH1 0x4 DUP3 ADD MSTORE PUSH1 0x30 PUSH1 0x24 DUP3 ADD MSTORE PUSH32 0x54657374202333206661696C65642E20417272617920636F6E74656E74732061 PUSH1 0x44 DUP3 ADD MSTORE PUSH1 0x0 DUP1 MLOAD PUSH1 0x20 PUSH2 0xAF0 DUP4 CODECOPY DUP2 MLOAD SWAP2 MSTORE PUSH1 0x64 DUP3 ADD MSTORE SWAP1 MLOAD SWAP1 DUP2 SWAP1 SUB PUSH1 0x84 ADD SWAP1 REVERT JUMPDEST POP POP POP POP JUMP JUMPDEST PUSH1 0x40 DUP1 MLOAD PUSH1 0x48 DUP1 DUP3 MSTORE PUSH1 0x80 DUP3 ADD SWAP1 SWAP3 MSTORE PUSH1 0x60 SWAP1 PUSH1 0x0 SWAP1 DUP3 SWAP1 DUP5 PUSH1 0x20 DUP3 ADD PUSH2 0x900 DUP1 CODESIZE DUP4 CODECOPY ADD SWAP1 POP POP SWAP3 POP PUSH1 0x0 SWAP2 POP JUMPDEST DUP4 DUP3 LT ISZERO PUSH2 0x2B8 JUMPI PUSH1 0xF DUP3 MOD PUSH1 0x1 ADD PUSH1 0xF8 PUSH1 0x2 EXP MUL DUP4 DUP4 DUP2 MLOAD DUP2 LT ISZERO ISZERO PUSH2 0x295 JUMPI INVALID JUMPDEST SWAP1 PUSH1 0x20 ADD ADD SWAP1 PUSH1 0x1 PUSH1 0xF8 PUSH1 0x2 EXP SUB NOT AND SWAP1 DUP2 PUSH1 0x0 BYTE SWAP1 MSTORE8 POP DUP2 PUSH1 0x1 ADD SWAP2 POP PUSH2 0x272 JUMP JUMPDEST DUP4 PUSH1 0x40 MLOAD SWAP1 DUP1 DUP3 MSTORE DUP1 PUSH1 0x1F ADD PUSH1 0x1F NOT AND PUSH1 0x20 ADD DUP3 ADD PUSH1 0x40 MSTORE DUP1 ISZERO PUSH2 0x2E6 JUMPI DUP2 PUSH1 0x20 ADD PUSH1 0x20 DUP3 MUL DUP1 CODESIZE DUP4 CODECOPY ADD SWAP1 POP JUMPDEST POP SWAP1 POP PUSH2 0x2F5 PUSH2 0x1B4 DUP3 PUSH2 0xA0A JUMP JUMPDEST PUSH2 0x2FF DUP4 DUP3 PUSH2 0xAA8 JUMP JUMPDEST ISZERO ISZERO PUSH2 0x23D JUMPI PUSH1 0x40 DUP1 MLOAD PUSH1 0xE5 PUSH1 0x2 EXP PUSH3 0x461BCD MUL DUP2 MSTORE PUSH1 0x20 PUSH1 0x4 DUP3 ADD MSTORE PUSH1 0x30 PUSH1 0x24 DUP3 ADD MSTORE PUSH32 0x54657374202335206661696C65642E20417272617920636F6E74656E74732061 PUSH1 0x44 DUP3 ADD MSTORE PUSH1 0x0 DUP1 MLOAD PUSH1 0x20 PUSH2 0xAF0 DUP4 CODECOPY DUP2 MLOAD SWAP2 MSTORE PUSH1 0x64 DUP3 ADD MSTORE SWAP1 MLOAD SWAP1 DUP2 SWAP1 SUB PUSH1 0x84 ADD SWAP1 REVERT JUMPDEST PUSH1 0x40 DUP1 MLOAD PUSH1 0x1 DUP1 DUP3 MSTORE DUP2 DUP4 ADD SWAP1 SWAP3 MSTORE PUSH1 0x60 SWAP1 DUP2 SWAP1 DUP4 PUSH1 0x20 DUP1 DUP4 ADD SWAP1 DUP1 CODESIZE DUP4 CODECOPY POP POP DUP2 MLOAD SWAP2 SWAP4 POP PUSH1 0xF8 PUSH1 0x2 EXP SWAP2 DUP5 SWAP2 POP PUSH1 0x0 SWAP1 DUP2 LT PUSH2 0x3A3 JUMPI INVALID JUMPDEST SWAP1 PUSH1 0x20 ADD ADD SWAP1 PUSH1 0x1 PUSH1 0xF8 PUSH1 0x2 EXP SUB NOT AND SWAP1 DUP2 PUSH1 0x0 BYTE SWAP1 MSTORE8 POP DUP3 PUSH1 0x40 MLOAD SWAP1 DUP1 DUP3 MSTORE DUP1 PUSH1 0x1F ADD PUSH1 0x1F NOT AND PUSH1 0x20 ADD DUP3 ADD PUSH1 0x40 MSTORE DUP1 ISZERO PUSH2 0x3E9 JUMPI DUP2 PUSH1 0x20 ADD PUSH1 0x20 DUP3 MUL DUP1 CODESIZE DUP4 CODECOPY ADD SWAP1 POP JUMPDEST POP SWAP1 POP PUSH2 0x40D PUSH2 0x3F8 DUP3 PUSH2 0xA0A JUMP JUMPDEST PUSH1 0x20 ADD PUSH2 0x404 DUP5 PUSH2 0xA0A JUMP JUMPDEST PUSH1 0x20 ADD DUP6 PUSH2 0xA0D JUMP JUMPDEST PUSH2 0x417 DUP3 DUP3 PUSH2 0xAA8 JUMP JUMPDEST ISZERO ISZERO PUSH2 0x481 JUMPI PUSH1 0x40 DUP1 MLOAD PUSH1 0xE5 PUSH1 0x2 EXP PUSH3 0x461BCD MUL DUP2 MSTORE PUSH1 0x20 PUSH1 0x4 DUP3 ADD MSTORE PUSH1 0x30 PUSH1 0x24 DUP3 ADD MSTORE PUSH32 0x54657374202332206661696C65642E20417272617920636F6E74656E74732061 PUSH1 0x44 DUP3 ADD MSTORE PUSH1 0x0 DUP1 MLOAD PUSH1 0x20 PUSH2 0xAF0 DUP4 CODECOPY DUP2 MLOAD SWAP2 MSTORE PUSH1 0x64 DUP3 ADD MSTORE SWAP1 MLOAD SWAP1 DUP2 SWAP1 SUB PUSH1 0x84 ADD SWAP1 REVERT JUMPDEST POP POP POP JUMP JUMPDEST PUSH1 0x40 DUP1 MLOAD PUSH1 0x48 DUP1 DUP3 MSTORE PUSH1 0x80 DUP3 ADD SWAP1 SWAP3 MSTORE PUSH1 0x60 SWAP1 PUSH1 0x0 SWAP1 DUP3 SWAP1 DUP5 PUSH1 0x20 DUP3 ADD PUSH2 0x900 DUP1 CODESIZE DUP4 CODECOPY ADD SWAP1 POP POP SWAP3 POP PUSH1 0x0 SWAP2 POP JUMPDEST DUP4 DUP3 LT ISZERO PUSH2 0x4FB JUMPI PUSH1 0xF DUP3 MOD PUSH1 0x1 ADD PUSH1 0xF8 PUSH1 0x2 EXP MUL DUP4 DUP4 DUP2 MLOAD DUP2 LT ISZERO ISZERO PUSH2 0x4D8 JUMPI INVALID JUMPDEST SWAP1 PUSH1 0x20 ADD ADD SWAP1 PUSH1 0x1 PUSH1 0xF8 PUSH1 0x2 EXP SUB NOT AND SWAP1 DUP2 PUSH1 0x0 BYTE SWAP1 MSTORE8 POP DUP2 PUSH1 0x1 ADD SWAP2 POP PUSH2 0x4B5 JUMP JUMPDEST DUP4 PUSH1 0x40 MLOAD SWAP1 DUP1 DUP3 MSTORE DUP1 PUSH1 0x1F ADD PUSH1 0x1F NOT AND PUSH1 0x20 ADD DUP3 ADD PUSH1 0x40 MSTORE DUP1 ISZERO PUSH2 0x529 JUMPI DUP2 PUSH1 0x20 ADD PUSH1 0x20 DUP3 MUL DUP1 CODESIZE DUP4 CODECOPY ADD SWAP1 POP JUMPDEST POP SWAP1 POP PUSH2 0x550 PUSH2 0x538 DUP3 PUSH2 0xA0A JUMP JUMPDEST PUSH1 0x20 ADD PUSH2 0x544 DUP6 PUSH2 0xA0A JUMP JUMPDEST PUSH1 0x20 ADD PUSH1 0x8 DUP8 SUB PUSH2 0xA0D JUMP JUMPDEST PUSH2 0x55A DUP4 DUP3 PUSH2 0xAA8 JUMP JUMPDEST ISZERO ISZERO PUSH2 0x23D JUMPI PUSH1 0x40 DUP1 MLOAD PUSH1 0xE5 PUSH1 0x2 EXP PUSH3 0x461BCD MUL DUP2 MSTORE PUSH1 0x20 PUSH1 0x4 DUP3 ADD MSTORE PUSH1 0x30 PUSH1 0x24 DUP3 ADD MSTORE PUSH32 0x54657374202337206661696C65642E20417272617920636F6E74656E74732061 PUSH1 0x44 DUP3 ADD MSTORE PUSH1 0x0 DUP1 MLOAD PUSH1 0x20 PUSH2 0xAF0 DUP4 CODECOPY DUP2 MLOAD SWAP2 MSTORE PUSH1 0x64 DUP3 ADD MSTORE SWAP1 MLOAD SWAP1 DUP2 SWAP1 SUB PUSH1 0x84 ADD SWAP1 REVERT JUMPDEST PUSH1 0x40 DUP1 MLOAD PUSH1 0x0 DUP1 DUP3 MSTORE PUSH1 0x20 DUP3 ADD DUP2 DUP2 MSTORE DUP3 DUP5 ADD SWAP1 SWAP4 MSTORE SWAP2 PUSH2 0x5E7 PUSH2 0x3F8 DUP3 PUSH2 0xA0A JUMP JUMPDEST PUSH2 0x5F1 DUP3 DUP3 PUSH2 0xAA8 JUMP JUMPDEST ISZERO ISZERO PUSH2 0x481 JUMPI PUSH1 0x40 DUP1 MLOAD PUSH1 0xE5 PUSH1 0x2 EXP PUSH3 0x461BCD MUL DUP2 MSTORE PUSH1 0x20 PUSH1 0x4 DUP3 ADD MSTORE PUSH1 0x30 PUSH1 0x24 DUP3 ADD MSTORE PUSH32 0x54657374202331206661696C65642E20417272617920636F6E74656E74732061 PUSH1 0x44 DUP3 ADD MSTORE PUSH1 0x0 DUP1 MLOAD PUSH1 0x20 PUSH2 0xAF0 DUP4 CODECOPY DUP2 MLOAD SWAP2 MSTORE PUSH1 0x64 DUP3 ADD MSTORE SWAP1 MLOAD SWAP1 DUP2 SWAP1 SUB PUSH1 0x84 ADD SWAP1 REVERT JUMPDEST PUSH1 0x40 DUP1 MLOAD PUSH1 0xAC DUP1 DUP3 MSTORE PUSH1 0xE0 DUP3 ADD SWAP1 SWAP3 MSTORE PUSH1 0x48 SWAP2 PUSH1 0x64 SWAP2 PUSH1 0x60 SWAP2 DUP3 SWAP2 PUSH1 0x0 SWAP2 DUP4 SWAP2 DUP4 SWAP2 DUP4 SWAP2 SWAP1 PUSH1 0x20 DUP3 ADD PUSH2 0x1580 DUP1 CODESIZE DUP4 CODECOPY ADD SWAP1 POP POP SWAP6 POP DUP8 PUSH1 0x40 MLOAD SWAP1 DUP1 DUP3 MSTORE DUP1 PUSH1 0x1F ADD PUSH1 0x1F NOT AND PUSH1 0x20 ADD DUP3 ADD PUSH1 0x40 MSTORE DUP1 ISZERO PUSH2 0x6BF JUMPI DUP2 PUSH1 0x20 ADD PUSH1 0x20 DUP3 MUL DUP1 CODESIZE DUP4 CODECOPY ADD SWAP1 POP JUMPDEST POP SWAP5 POP PUSH1 0x0 SWAP4 POP JUMPDEST DUP8 DUP5 LT ISZERO PUSH2 0x740 JUMPI PUSH1 0xF DUP5 MOD PUSH1 0x1 ADD PUSH1 0xF8 PUSH1 0x2 EXP MUL DUP6 DUP6 DUP2 MLOAD DUP2 LT ISZERO ISZERO PUSH2 0x6EA JUMPI INVALID JUMPDEST SWAP1 PUSH1 0x20 ADD ADD SWAP1 PUSH1 0x1 PUSH1 0xF8 PUSH1 0x2 EXP SUB NOT AND SWAP1 DUP2 PUSH1 0x0 BYTE SWAP1 MSTORE8 POP PUSH1 0xF DUP5 MOD PUSH1 0x1 ADD PUSH1 0xF8 PUSH1 0x2 EXP MUL DUP7 DUP6 DUP2 MLOAD DUP2 LT ISZERO ISZERO PUSH2 0x71D JUMPI INVALID JUMPDEST SWAP1 PUSH1 0x20 ADD ADD SWAP1 PUSH1 0x1 PUSH1 0xF8 PUSH1 0x2 EXP SUB NOT AND SWAP1 DUP2 PUSH1 0x0 BYTE SWAP1 MSTORE8 POP DUP4 PUSH1 0x1 ADD SWAP4 POP PUSH2 0x6C7 JUMP JUMPDEST DUP7 PUSH1 0x40 MLOAD SWAP1 DUP1 DUP3 MSTORE DUP1 PUSH1 0x1F ADD PUSH1 0x1F NOT AND PUSH1 0x20 ADD DUP3 ADD PUSH1 0x40 MSTORE DUP1 ISZERO PUSH2 0x76E JUMPI DUP2 PUSH1 0x20 ADD PUSH1 0x20 DUP3 MUL DUP1 CODESIZE DUP4 CODECOPY ADD SWAP1 POP JUMPDEST POP SWAP3 POP PUSH1 0x0 SWAP2 POP JUMPDEST DUP7 DUP5 LT ISZERO PUSH2 0x7F1 JUMPI PUSH1 0xF DUP3 MOD PUSH1 0x1 ADD PUSH1 0xF8 PUSH1 0x2 EXP MUL DUP4 DUP4 DUP2 MLOAD DUP2 LT ISZERO ISZERO PUSH2 0x799 JUMPI INVALID JUMPDEST SWAP1 PUSH1 0x20 ADD ADD SWAP1 PUSH1 0x1 PUSH1 0xF8 PUSH1 0x2 EXP SUB NOT AND SWAP1 DUP2 PUSH1 0x0 BYTE SWAP1 MSTORE8 POP PUSH1 0xF DUP3 MOD PUSH1 0x1 ADD PUSH1 0xF8 PUSH1 0x2 EXP MUL DUP7 DUP4 DUP11 ADD DUP2 MLOAD DUP2 LT ISZERO ISZERO PUSH2 0x7CE JUMPI INVALID JUMPDEST SWAP1 PUSH1 0x20 ADD ADD SWAP1 PUSH1 0x1 PUSH1 0xF8 PUSH1 0x2 EXP SUB NOT AND SWAP1 DUP2 PUSH1 0x0 BYTE SWAP1 MSTORE8 POP DUP4 PUSH1 0x1 ADD SWAP4 POP PUSH2 0x776 JUMP JUMPDEST DUP7 DUP9 ADD PUSH1 0x40 MLOAD SWAP1 DUP1 DUP3 MSTORE DUP1 PUSH1 0x1F ADD PUSH1 0x1F NOT AND PUSH1 0x20 ADD DUP3 ADD PUSH1 0x40 MSTORE DUP1 ISZERO PUSH2 0x821 JUMPI DUP2 PUSH1 0x20 ADD PUSH1 0x20 DUP3 MUL DUP1 CODESIZE DUP4 CODECOPY ADD SWAP1 POP JUMPDEST POP SWAP1 POP PUSH2 0x845 PUSH2 0x830 DUP3 PUSH2 0xA0A JUMP JUMPDEST PUSH1 0x20 ADD PUSH2 0x83C DUP8 PUSH2 0xA0A JUMP JUMPDEST PUSH1 0x20 ADD DUP11 PUSH2 0xA0D JUMP JUMPDEST PUSH2 0x868 DUP9 PUSH2 0x852 DUP4 PUSH2 0xA0A JUMP JUMPDEST PUSH1 0x20 ADD ADD PUSH2 0x85F DUP6 PUSH2 0xA0A JUMP JUMPDEST PUSH1 0x20 ADD DUP10 PUSH2 0xA0D JUMP JUMPDEST PUSH2 0x872 DUP7 DUP3 PUSH2 0xAA8 JUMP JUMPDEST ISZERO ISZERO PUSH2 0x8DC JUMPI PUSH1 0x40 DUP1 MLOAD PUSH1 0xE5 PUSH1 0x2 EXP PUSH3 0x461BCD MUL DUP2 MSTORE PUSH1 0x20 PUSH1 0x4 DUP3 ADD MSTORE PUSH1 0x30 PUSH1 0x24 DUP3 ADD MSTORE PUSH32 0x54657374202336206661696C65642E20417272617920636F6E74656E74732061 PUSH1 0x44 DUP3 ADD MSTORE PUSH1 0x0 DUP1 MLOAD PUSH1 0x20 PUSH2 0xAF0 DUP4 CODECOPY DUP2 MLOAD SWAP2 MSTORE PUSH1 0x64 DUP3 ADD MSTORE SWAP1 MLOAD SWAP1 DUP2 SWAP1 SUB PUSH1 0x84 ADD SWAP1 REVERT JUMPDEST POP POP POP POP POP POP POP POP JUMP JUMPDEST PUSH1 0x40 DUP1 MLOAD PUSH1 0x20 DUP1 DUP3 MSTORE DUP2 DUP4 ADD SWAP1 SWAP3 MSTORE PUSH1 0x60 SWAP1 PUSH1 0x0 SWAP1 DUP3 SWAP1 DUP5 DUP1 DUP3 ADD PUSH2 0x400 DUP1 CODESIZE DUP4 CODECOPY ADD SWAP1 POP POP SWAP3 POP PUSH1 0x0 SWAP2 POP JUMPDEST DUP4 DUP3 LT ISZERO PUSH2 0x959 JUMPI PUSH1 0xF DUP3 MOD PUSH1 0x1 ADD PUSH1 0xF8 PUSH1 0x2 EXP MUL DUP4 DUP4 DUP2 MLOAD DUP2 LT ISZERO ISZERO PUSH2 0x936 JUMPI INVALID JUMPDEST SWAP1 PUSH1 0x20 ADD ADD SWAP1 PUSH1 0x1 PUSH1 0xF8 PUSH1 0x2 EXP SUB NOT AND SWAP1 DUP2 PUSH1 0x0 BYTE SWAP1 MSTORE8 POP DUP2 PUSH1 0x1 ADD SWAP2 POP PUSH2 0x913 JUMP JUMPDEST DUP4 PUSH1 0x40 MLOAD SWAP1 DUP1 DUP3 MSTORE DUP1 PUSH1 0x1F ADD PUSH1 0x1F NOT AND PUSH1 0x20 ADD DUP3 ADD PUSH1 0x40 MSTORE DUP1 ISZERO PUSH2 0x987 JUMPI DUP2 PUSH1 0x20 ADD PUSH1 0x20 DUP3 MUL DUP1 CODESIZE DUP4 CODECOPY ADD SWAP1 POP JUMPDEST POP SWAP1 POP PUSH2 0x996 PUSH2 0x1B4 DUP3 PUSH2 0xA0A JUMP JUMPDEST PUSH2 0x9A0 DUP4 DUP3 PUSH2 0xAA8 JUMP JUMPDEST ISZERO ISZERO PUSH2 0x23D JUMPI PUSH1 0x40 DUP1 MLOAD PUSH1 0xE5 PUSH1 0x2 EXP PUSH3 0x461BCD MUL DUP2 MSTORE PUSH1 0x20 PUSH1 0x4 DUP3 ADD MSTORE PUSH1 0x30 PUSH1 0x24 DUP3 ADD MSTORE PUSH32 0x54657374202334206661696C65642E20417272617920636F6E74656E74732061 PUSH1 0x44 DUP3 ADD MSTORE PUSH1 0x0 DUP1 MLOAD PUSH1 0x20 PUSH2 0xAF0 DUP4 CODECOPY DUP2 MLOAD SWAP2 MSTORE PUSH1 0x64 DUP3 ADD MSTORE SWAP1 MLOAD SWAP1 DUP2 SWAP1 SUB PUSH1 0x84 ADD SWAP1 REVERT JUMPDEST SWAP1 JUMP JUMPDEST DUP1 ISZERO ISZERO PUSH2 0xA19 JUMPI PUSH2 0x481 JUMP JUMPDEST DUP3 DUP3 EQ ISZERO PUSH2 0xA26 JUMPI PUSH2 0x481 JUMP JUMPDEST PUSH1 0x20 PUSH1 0x1F DUP3 ADD DIV PUSH1 0x20 DUP3 MOD PUSH1 0x0 DUP2 GT ISZERO PUSH2 0xA41 JUMPI PUSH1 0x1 DUP3 SUB SWAP2 POP JUMPDEST PUSH1 0x0 PUSH1 0x20 DUP4 MUL JUMPDEST DUP1 DUP3 LT ISZERO PUSH2 0xA63 JUMPI DUP2 DUP7 ADD MLOAD DUP3 DUP9 ADD MSTORE PUSH1 0x20 DUP3 ADD SWAP2 POP PUSH2 0xA48 JUMP JUMPDEST PUSH1 0x0 DUP4 GT ISZERO PUSH2 0xA9F JUMPI DUP3 PUSH1 0x20 SUB PUSH1 0x8 MUL PUSH1 0x2 EXP DUP3 DUP8 ADD MLOAD DUP2 DUP3 DUP3 DIV MUL DUP6 PUSH1 0x8 MUL PUSH1 0x2 EXP DUP6 DUP12 ADD MLOAD DUP2 DUP3 DUP3 MUL DIV DUP1 DUP5 OR DUP1 DUP10 DUP16 ADD MSTORE POP POP POP POP POP POP POP JUMPDEST POP POP POP POP POP POP POP JUMP JUMPDEST PUSH1 0x0 PUSH1 0x20 PUSH1 0x1F DUP5 MLOAD ADD DIV PUSH1 0x1 DUP2 ADD SWAP1 POP PUSH1 0x0 JUMPDEST DUP2 DUP2 LT ISZERO PUSH2 0xAE7 JUMPI PUSH1 0x20 DUP2 MUL DUP6 DUP2 ADD MLOAD SWAP1 DUP6 ADD MLOAD DUP1 DUP3 EQ SWAP5 POP DUP5 PUSH2 0xADD JUMPI DUP4 SWAP3 POP JUMPDEST POP POP PUSH1 0x1 ADD PUSH2 0xABB JUMP JUMPDEST POP POP SWAP3 SWAP2 POP POP JUMP STOP PUSH19 0x65206E6F74207468652073616D652E00000000 STOP STOP STOP STOP STOP STOP STOP STOP STOP STOP STOP STOP LOG1 PUSH6 0x627A7A723058 KECCAK256 PUSH8 0xAC05DEAE38337111 0x21 SAR 0xd6 PUSH22 0xDA7F43D78195C49B3A3D67C6E2F86677F5219A002900 "
			}
		}
	},
	"sourceTreeHashHex": "0xf45d12e126b33208e2fbeaace11772a55a3af087866a1f088c5eb17d3e9cae4d",
	"compiler": {
		"name": "solc",
		"version": "0.4.24",
		"settings": {
			"optimizer": {
				"enabled": true,
				"runs": 0
			},
			"outputSelection": {
				"*": {
					"*": [
						"abi",
						"evm.bytecode.object",
						"evm.bytecode.sourceMap",
						"evm.deployedBytecode.object",
						"evm.deployedBytecode.sourceMap"
					]
				}
			}
		}
	}
}