{
	"schemaVersion": "2.0.0",
	"contractName": "OrderValidator",
	"compilerOutput": {
		"abi": [
			{
				"constant": true,
				"inputs": [
					{
						"components": [
							{
								"name": "makerAddress",
								"type": "address"
							},
							{
								"name": "takerAddress",
								"type": "address"
							},
							{
								"name": "feeRecipientAddress",
								"type": "address"
							},
							{
								"name": "senderAddress",
								"type": "address"
							},
							{
								"name": "makerAssetAmount",
								"type": "uint256"
							},
							{
								"name": "takerAssetAmount",
								"type": "uint256"
							},
							{
								"name": "makerFee",
								"type": "uint256"
							},
							{
								"name": "takerFee",
								"type": "uint256"
							},
							{
								"name": "expirationTimeSeconds",
								"type": "uint256"
							},
							{
								"name": "salt",
								"type": "uint256"
							},
							{
								"name": "makerAssetData",
								"type": "bytes"
							},
							{
								"name": "takerAssetData",
								"type": "bytes"
							}
						],
						"name": "order",
						"type": "tuple"
					},
					{
						"name": "takerAddress",
						"type": "address"
					}
				],
				"name": "getOrderAndTraderInfo",
				"outputs": [
					{
						"components": [
							{
								"name": "orderStatus",
								"type": "uint8"
							},
							{
								"name": "orderHash",
								"type": "bytes32"
							},
							{
								"name": "orderTakerAssetFilledAmount",
								"type": "uint256"
							}
						],
						"name": "orderInfo",
						"type": "tuple"
					},
					{
						"components": [
							{
								"name": "makerBalance",
								"type": "uint256"
							},
							{
								"name": "makerAllowance",
								"type": "uint256"
							},
							{
								"name": "takerBalance",
								"type": "uint256"
							},
							{
								"name": "takerAllowance",
								"type": "uint256"
							},
							{
								"name": "makerZrxBalance",
								"type": "uint256"
							},
							{
								"name": "makerZrxAllowance",
								"type": "uint256"
							},
							{
								"name": "takerZrxBalance",
								"type": "uint256"
							},
							{
								"name": "takerZrxAllowance",
								"type": "uint256"
							}
						],
						"name": "traderInfo",
						"type": "tuple"
					}
				],
				"payable": false,
				"stateMutability": "view",
				"type": "function"
			},
			{
				"constant": true,
				"inputs": [
					{
						"name": "target",
						"type": "address"
					},
					{
						"name": "assetData",
						"type": "bytes"
					}
				],
				"name": "getBalanceAndAllowance",
				"outputs": [
					{
						"name": "balance",
						"type": "uint256"
					},
					{
						"name": "allowance",
						"type": "uint256"
					}
				],
				"payable": false,
				"stateMutability": "view",
				"type": "function"
			},
			{
				"constant": true,
				"inputs": [
					{
						"components": [
							{
								"name": "makerAddress",
								"type": "address"
							},
							{
								"name": "takerAddress",
								"type": "address"
							},
							{
								"name": "feeRecipientAddress",
								"type": "address"
							},
							{
								"name": "senderAddress",
								"type": "address"
							},
							{
								"name": "makerAssetAmount",
								"type": "uint256"
							},
							{
								"name": "takerAssetAmount",
								"type": "uint256"
							},
							{
								"name": "makerFee",
								"type": "uint256"
							},
							{
								"name": "takerFee",
								"type": "uint256"
							},
							{
								"name": "expirationTimeSeconds",
								"type": "uint256"
							},
							{
								"name": "salt",
								"type": "uint256"
							},
							{
								"name": "makerAssetData",
								"type": "bytes"
							},
							{
								"name": "takerAssetData",
								"type": "bytes"
							}
						],
						"name": "orders",
						"type": "tuple[]"
					},
					{
						"name": "takerAddresses",
						"type": "address[]"
					}
				],
				"name": "getOrdersAndTradersInfo",
				"outputs": [
					{
						"components": [
							{
								"name": "orderStatus",
								"type": "uint8"
							},
							{
								"name": "orderHash",
								"type": "bytes32"
							},
							{
								"name": "orderTakerAssetFilledAmount",
								"type": "uint256"
							}
						],
						"name": "ordersInfo",
						"type": "tuple[]"
					},
					{
						"components": [
							{
								"name": "makerBalance",
								"type": "uint256"
							},
							{
								"name": "makerAllowance",
								"type": "uint256"
							},
							{
								"name": "takerBalance",
								"type": "uint256"
							},
							{
								"name": "takerAllowance",
								"type": "uint256"
							},
							{
								"name": "makerZrxBalance",
								"type": "uint256"
							},
							{
								"name": "makerZrxAllowance",
								"type": "uint256"
							},
							{
								"name": "takerZrxBalance",
								"type": "uint256"
							},
							{
								"name": "takerZrxAllowance",
								"type": "uint256"
							}
						],
						"name": "tradersInfo",
						"type": "tuple[]"
					}
				],
				"payable": false,
				"stateMutability": "view",
				"type": "function"
			},
			{
				"constant": true,
				"inputs": [
					{
						"components": [
							{
								"name": "makerAddress",
								"type": "address"
							},
							{
								"name": "takerAddress",
								"type": "address"
							},
							{
								"name": "feeRecipientAddress",
								"type": "address"
							},
							{
								"name": "senderAddress",
								"type": "address"
							},
							{
								"name": "makerAssetAmount",
								"type": "uint256"
							},
							{
								"name": "takerAssetAmount",
								"type": "uint256"
							},
							{
								"name": "makerFee",
								"type": "uint256"
							},
							{
								"name": "takerFee",
								"type": "uint256"
							},
							{
								"name": "expirationTimeSeconds",
								"type": "uint256"
							},
							{
								"name": "salt",
								"type": "uint256"
							},
							{
								"name": "makerAssetData",
								"type": "bytes"
							},
							{
								"name": "takerAssetData",
								"type": "bytes"
							}
						],
						"name": "orders",
						"type": "tuple[]"
					},
					{
						"name": "takerAddresses",
						"type": "address[]"
					}
				],
				"name": "getTradersInfo",
				"outputs": [
					{
						"components": [
							{
								"name": "makerBalance",
								"type": "uint256"
							},
							{
								"name": "makerAllowance",
								"type": "uint256"
							},
							{
								"name": "takerBalance",
								"type": "uint256"
							},
							{
								"name": "takerAllowance",
								"type": "uint256"
							},
							{
								"name": "makerZrxBalance",
								"type": "uint256"
							},
							{
								"name": "makerZrxAllowance",
								"type": "uint256"
							},
							{
								"name": "takerZrxBalance",
								"type": "uint256"
							},
							{
								"name": "takerZrxAllowance",
								"type": "uint256"
							}
						],
						"name": "",
						"type": "tuple[]"
					}
				],
				"payable": false,
				"stateMutability": "view",
				"type": "function"
			},
			{
				"constant": true,
				"inputs": [
					{
						"name": "token",
						"type": "address"
					},
					{
						"name": "tokenId",
						"type": "uint256"
					}
				],
				"name": "getERC721TokenOwner",
				"outputs": [
					{
						"name": "owner",
						"type": "address"
					}
				],
				"payable": false,
				"stateMutability": "view",
				"type": "function"
			},
			{
				"constant": true,
				"inputs": [
					{
						"name": "target",
						"type": "address"
					},
					{
						"name": "assetData",
						"type": "bytes[]"
					}
				],
				"name": "getBalancesAndAllowances",
				"outputs": [
					{
						"name": "",
						"type": "uint256[]"
					},
					{
						"name": "",
						"type": "uint256[]"
					}
				],
				"payable": false,
				"stateMutability": "view",
				"type": "function"
			},
			{
				"constant": true,
				"inputs": [
					{
						"components": [
							{
								"name": "makerAddress",
								"type": "address"
							},
							{
								"name": "takerAddress",
								"type": "address"
							},
							{
								"name": "feeRecipientAddress",
								"type": "address"
							},
							{
								"name": "senderAddress",
								"type": "address"
							},
							{
								"name": "makerAssetAmount",
								"type": "uint256"
							},
							{
								"name": "takerAssetAmount",
								"type": "uint256"
							},
							{
								"name": "makerFee",
								"type": "uint256"
							},
							{
								"name": "takerFee",
								"type": "uint256"
							},
							{
								"name": "expirationTimeSeconds",
								"type": "uint256"
							},
							{
								"name": "salt",
								"type": "uint256"
							},
							{
								"name": "makerAssetData",
								"type": "bytes"
							},
							{
								"name": "takerAssetData",
								"type": "bytes"
							}
						],
						"name": "order",
						"type": "tuple"
					},
					{
						"name": "takerAddress",
						"type": "address"
					}
				],
				"name": "getTraderInfo",
				"outputs": [
					{
						"components": [
							{
								"name": "makerBalance",
								"type": "uint256"
							},
							{
								"name": "makerAllowance",
								"type": "uint256"
							},
							{
								"name": "takerBalance",
								"type": "uint256"
							},
							{
								"name": "takerAllowance",
								"type": "uint256"
							},
							{
								"name": "makerZrxBalance",
								"type": "uint256"
							},
							{
								"name": "makerZrxAllowance",
								"type": "uint256"
							},
							{
								"name": "takerZrxBalance",
								"type": "uint256"
							},
							{
								"name": "takerZrxAllowance",
								"type": "uint256"
							}
						],
						"name": "traderInfo",
						"type": "tuple"
					}
				],
				"payable": false,
				"stateMutability": "view",
				"type": "function"
			},
			{
				"inputs": [
					{
						"name": "_exchange",
						"type": "address"
					},
					{
						"name": "_zrxAssetData",
						"type": "bytes"
					}
				],
				"payable": false,
				"stateMutability": "nonpayable",
				"type": "constructor"
			}
		],
		"evm": {
			"bytecode": {
				"linkReferences": {},
				"object": "0x60806040523480156200001157600080fd5b5060405162002684380380620026848339810180604052620000379190810190620001bb565b816000806101000a81548173ffffffffffffffffffffffffffffffffffffffff021916908373ffffffffffffffffffffffffffffffffffffffff16021790555080600190805190602001906200008f92919062000098565b505050620002c6565b828054600181600116156101000203166002900490600052602060002090601f016020900481019282601f10620000db57805160ff19168380011785556200010c565b828001600101855582156200010c579182015b828111156200010b578251825591602001919060010190620000ee565b5b5090506200011b91906200011f565b5090565b6200014491905b808211156200014057600081600090555060010162000126565b5090565b90565b600062000155825162000270565b905092915050565b600082601f83011215156200017157600080fd5b815162000188620001828262000243565b62000215565b91508082526020830160208301858383011115620001a557600080fd5b620001b283828462000290565b50505092915050565b60008060408385031215620001cf57600080fd5b6000620001df8582860162000147565b925050602083015167ffffffffffffffff811115620001fd57600080fd5b6200020b858286016200015d565b9150509250929050565b6000604051905081810181811067ffffffffffffffff821117156200023957600080fd5b8060405250919050565b600067ffffffffffffffff8211156200025b57600080fd5b601f19601f8301169050602081019050919050565b600073ffffffffffffffffffffffffffffffffffffffff82169050919050565b60005b83811015620002b057808201518184015260208101905062000293565b83811115620002c0576000848401525b50505050565b6123ae80620002d66000396000f300608060405260043610610083576000357c0100000000000000000000000000000000000000000000000000000000900463ffffffff16806304ad1e53146100885780632cd0fc73146100c65780634b95de1314610104578063690d311414610142578063b69884631461017f578063c6b7f4ee146101bc578063f241ffb0146101fa575b600080fd5b34801561009457600080fd5b506100af60048036036100aa91908101906116d7565b610237565b6040516100bd929190612012565b60405180910390f35b3480156100d257600080fd5b506100ed60048036036100e89190810190611548565b61032a565b6040516100fb92919061207a565b60405180910390f35b34801561011057600080fd5b5061012b60048036036101269190810190611619565b6107f2565b604051610139929190611ec5565b60405180910390f35b34801561014e57600080fd5b5061016960048036036101649190810190611619565b6108dd565b6040516101769190611f1e565b60405180910390f35b34801561018b57600080fd5b506101a660048036036101a1919081019061159c565b6109a0565b6040516101b39190611e81565b60405180910390f35b3480156101c857600080fd5b506101e360048036036101de91908101906114f4565b6109ed565b6040516101f1929190611f40565b60405180910390f35b34801561020657600080fd5b50610221600480360361021c91908101906116d7565b610ae4565b60405161022e919061205e565b60405180910390f35b61023f610d8d565b610247610db5565b6000809054906101000a900473ffffffffffffffffffffffffffffffffffffffff1673ffffffffffffffffffffffffffffffffffffffff1663c75e0a81856040518263ffffffff167c01000000000000000000000000000000000000000000000000000000000281526004016102bd919061203c565b606060405180830381600087803b1580156102d757600080fd5b505af11580156102eb573d6000803e3d6000fd5b505050506040513d601f19601f8201168201806040525061030f91908101906116ae565b915061031b8484610ae4565b90508181915091509250929050565b60008060008060008060008061034a60008a610c1790919063ffffffff16565b955061036060108a610c9c90919063ffffffff16565b94506000809054906101000a900473ffffffffffffffffffffffffffffffffffffffff1673ffffffffffffffffffffffffffffffffffffffff166360704108876040518263ffffffff167c01000000000000000000000000000000000000000000000000000000000281526004016103d89190611f77565b602060405180830381600087803b1580156103f257600080fd5b505af1158015610406573d6000803e3d6000fd5b505050506040513d601f19601f8201168201806040525061042a91908101906114cb565b935060405180807f4552433230546f6b656e28616464726573732900000000000000000000000000815250601301905060405180910390207bffffffffffffffffffffffffffffffffffffffffffffffffffffffff1916867bffffffffffffffffffffffffffffffffffffffffffffffffffffffff19161415610600578473ffffffffffffffffffffffffffffffffffffffff166370a082318b6040518263ffffffff167c01000000000000000000000000000000000000000000000000000000000281526004016104fc9190611e81565b602060405180830381600087803b15801561051657600080fd5b505af115801561052a573d6000803e3d6000fd5b505050506040513d601f19601f8201168201806040525061054e919081019061172b565b97508473ffffffffffffffffffffffffffffffffffffffff1663dd62ed3e8b866040518363ffffffff167c01000000000000000000000000000000000000000000000000000000000281526004016105a7929190611e9c565b602060405180830381600087803b1580156105c157600080fd5b505af11580156105d5573d6000803e3d6000fd5b505050506040513d601f19601f820116820180604052506105f9919081019061172b565b96506107df565b60405180807f455243373231546f6b656e28616464726573732c75696e743235362900000000815250601c01905060405180910390207bffffffffffffffffffffffffffffffffffffffffffffffffffffffff1916867bffffffffffffffffffffffffffffffffffffffffffffffffffffffff191614156107a35761068f60248a610d1290919063ffffffff16565b925061069b85846109a0565b91508173ffffffffffffffffffffffffffffffffffffffff168a73ffffffffffffffffffffffffffffffffffffffff16146106d75760006106da565b60015b60ff1697508473ffffffffffffffffffffffffffffffffffffffff1663e985e9c58b866040518363ffffffff167c0100000000000000000000000000000000000000000000000000000000028152600401610736929190611e9c565b602060405180830381600087803b15801561075057600080fd5b505af1158015610764573d6000803e3d6000fd5b505050506040513d601f19601f820116820180604052506107889190810190611685565b905080610796576000610799565b60015b60ff1696506107de565b6040517f08c379a00000000000000000000000000000000000000000000000000000000081526004016107d590611fb2565b60405180910390fd5b5b8787975097505050505050509250929050565b6060806000809054906101000a900473ffffffffffffffffffffffffffffffffffffffff1673ffffffffffffffffffffffffffffffffffffffff16637e9d74dc856040518263ffffffff167c010000000000000000000000000000000000000000000000000000000002815260040161086b9190611efc565b600060405180830381600087803b15801561088557600080fd5b505af1158015610899573d6000803e3d6000fd5b505050506040513d6000823e3d601f19601f820116820180604052506108c291908101906115d8565b91506108ce84846108dd565b90508181915091509250929050565b6060600060606000855192508260405190808252806020026020018201604052801561092357816020015b610910610dfb565b8152602001906001900390816109085790505b509150600090505b82811415156109945761096c868281518110151561094557fe5b90602001906020020151868381518110151561095d57fe5b90602001906020020151610ae4565b828281518110151561097a57fe5b90602001906020020181905250808060010191505061092b565b81935050505092915050565b60006040517f6352211e000000000000000000000000000000000000000000000000000000008152826004820152602081602483875afa80156109e257815192505b505080905092915050565b606080600060608060008651935083604051908082528060200260200182016040528015610a2a5781602001602082028038833980820191505090505b50925083604051908082528060200260200182016040528015610a5c5781602001602082028038833980820191505090505b509150600090505b8381141515610ad357610a8e888883815181101515610a7f57fe5b9060200190602002015161032a565b8483815181101515610a9c57fe5b9060200190602002018484815181101515610ab357fe5b906020019060200201828152508281525050508080600101915050610a64565b828295509550505050509250929050565b610aec610db5565b6060610b01846000015185610140015161032a565b836000018460200182815250828152505050610b228385610160015161032a565b83604001846060018281525082815250505060018054600181600116156101000203166002900480601f016020809104026020016040519081016040528092919081815260200182805460018160011615610100020316600290048015610bca5780601f10610b9f57610100808354040283529160200191610bca565b820191906000526020600020905b815481529060010190602001808311610bad57829003601f168201915b50505050509050610bdf84600001518261032a565b836080018460a00182815250828152505050610bfb838261032a565b8360c0018460e001828152508281525050508191505092915050565b600060048201835110151515610c62576040517f08c379a0000000000000000000000000000000000000000000000000000000008152600401610c5990611ff2565b60405180910390fd5b6020820191508183015190507fffffffff000000000000000000000000000000000000000000000000000000008116905080905092915050565b600060148201835110151515610ce7576040517f08c379a0000000000000000000000000000000000000000000000000000000008152600401610cde90611fd2565b60405180910390fd5b60148201915073ffffffffffffffffffffffffffffffffffffffff8284015116905080905092915050565b6000610d1e8383610d2d565b60019004905080905092915050565b600060208201835110151515610d78576040517f08c379a0000000000000000000000000000000000000000000000000000000008152600401610d6f90611f92565b60405180910390fd5b60208201915081830151905080905092915050565b606060405190810160405280600060ff16815260200160008019168152602001600081525090565b6101006040519081016040528060008152602001600081526020016000815260200160008152602001600081526020016000815260200160008152602001600081525090565b6101006040519081016040528060008152602001600081526020016000815260200160008152602001600081526020016000815260200160008152602001600081525090565b6000610e4d82356122d4565b905092915050565b6000610e6182516122d4565b905092915050565b600082601f8301121515610e7c57600080fd5b8135610e8f610e8a826120d0565b6120a3565b91508181835260208401935060208101905083856020840282011115610eb457600080fd5b60005b83811015610ee45781610eca8882610e41565b845260208401935060208301925050600181019050610eb7565b5050505092915050565b600082601f8301121515610f0157600080fd5b8135610f14610f0f826120f8565b6120a3565b9150818183526020840193506020810190508360005b83811015610f5a5781358601610f408882611087565b845260208401935060208301925050600181019050610f2a565b5050505092915050565b600082601f8301121515610f7757600080fd5b8151610f8a610f8582612120565b6120a3565b91508181835260208401935060208101905083856060840282011115610faf57600080fd5b60005b83811015610fdf5781610fc58882611133565b845260208401935060608301925050600181019050610fb2565b5050505092915050565b600082601f8301121515610ffc57600080fd5b813561100f61100a82612148565b6120a3565b9150818183526020840193506020810190508360005b83811015611055578135860161103b88826111f3565b845260208401935060208301925050600181019050611025565b5050505092915050565b600061106b82516122f4565b905092915050565b600061107f8251612300565b905092915050565b600082601f830112151561109a57600080fd5b81356110ad6110a882612170565b6120a3565b915080825260208301602083018583830111156110c957600080fd5b6110d4838284612321565b50505092915050565b600082601f83011215156110f057600080fd5b81356111036110fe8261219c565b6120a3565b9150808252602083016020830185838301111561111f57600080fd5b61112a838284612321565b50505092915050565b60006060828403121561114557600080fd5b61114f60606120a3565b9050600061115f848285016114b7565b600083015250602061117384828501611073565b6020830152506040611187848285016114a3565b60408301525092915050565b6000606082840312156111a557600080fd5b6111af60606120a3565b905060006111bf848285016114b7565b60008301525060206111d384828501611073565b60208301525060406111e7848285016114a3565b60408301525092915050565b6000610180828403121561120657600080fd5b6112116101806120a3565b9050600061122184828501610e41565b600083015250602061123584828501610e41565b602083015250604061124984828501610e41565b604083015250606061125d84828501610e41565b60608301525060806112718482850161148f565b60808301525060a06112858482850161148f565b60a08301525060c06112998482850161148f565b60c08301525060e06112ad8482850161148f565b60e0830152506101006112c28482850161148f565b610100830152506101206112d88482850161148f565b6101208301525061014082013567ffffffffffffffff8111156112fa57600080fd5b61130684828501611087565b6101408301525061016082013567ffffffffffffffff81111561132857600080fd5b61133484828501611087565b6101608301525092915050565b6000610180828403121561135457600080fd5b61135f6101806120a3565b9050600061136f84828501610e41565b600083015250602061138384828501610e41565b602083015250604061139784828501610e41565b60408301525060606113ab84828501610e41565b60608301525060806113bf8482850161148f565b60808301525060a06113d38482850161148f565b60a08301525060c06113e78482850161148f565b60c08301525060e06113fb8482850161148f565b60e0830152506101006114108482850161148f565b610100830152506101206114268482850161148f565b6101208301525061014082013567ffffffffffffffff81111561144857600080fd5b61145484828501611087565b6101408301525061016082013567ffffffffffffffff81111561147657600080fd5b61148284828501611087565b6101608301525092915050565b600061149b823561230a565b905092915050565b60006114af825161230a565b905092915050565b60006114c38251612314565b905092915050565b6000602082840312156114dd57600080fd5b60006114eb84828501610e55565b91505092915050565b6000806040838503121561150757600080fd5b600061151585828601610e41565b925050602083013567ffffffffffffffff81111561153257600080fd5b61153e85828601610eee565b9150509250929050565b6000806040838503121561155b57600080fd5b600061156985828601610e41565b925050602083013567ffffffffffffffff81111561158657600080fd5b611592858286016110dd565b9150509250929050565b600080604083850312156115af57600080fd5b60006115bd85828601610e41565b92505060206115ce8582860161148f565b9150509250929050565b6000602082840312156115ea57600080fd5b600082015167ffffffffffffffff81111561160457600080fd5b61161084828501610f64565b91505092915050565b6000806040838503121561162c57600080fd5b600083013567ffffffffffffffff81111561164657600080fd5b61165285828601610fe9565b925050602083013567ffffffffffffffff81111561166f57600080fd5b61167b85828601610e69565b9150509250929050565b60006020828403121561169757600080fd5b60006116a58482850161105f565b91505092915050565b6000606082840312156116c057600080fd5b60006116ce84828501611193565b91505092915050565b600080604083850312156116ea57600080fd5b600083013567ffffffffffffffff81111561170457600080fd5b61171085828601611341565b925050602061172185828601610e41565b9150509250929050565b60006020828403121561173d57600080fd5b600061174b848285016114a3565b91505092915050565b61175d81612267565b82525050565b600061176e826121fc565b808452602084019350611780836121c8565b60005b828110156117b257611796868351611ac7565b61179f82612233565b9150606086019550600181019050611783565b50849250505092915050565b60006117c982612207565b808452602084019350836020820285016117e2856121d5565b60005b8481101561181b5783830388526117fd838351611c14565b925061180882612240565b91506020880197506001810190506117e5565b508196508694505050505092915050565b600061183782612212565b808452602084019350611849836121e2565b60005b8281101561187c5761185f868351611dc1565b6118688261224d565b91506101008601955060018101905061184c565b50849250505092915050565b60006118938261221d565b8084526020840193506118a5836121ef565b60005b828110156118d7576118bb868351611e63565b6118c48261225a565b91506020860195506001810190506118a8565b50849250505092915050565b6118ec81612287565b82525050565b6118fb81612291565b82525050565b600061190c82612228565b808452611920816020860160208601612330565b61192981612363565b602085010191505092915050565b6000602682527f475245415445525f4f525f455155414c5f544f5f33325f4c454e4754485f524560208301527f51554952454400000000000000000000000000000000000000000000000000006040830152606082019050919050565b6000601782527f554e535550504f525445445f41535345545f50524f58590000000000000000006020830152604082019050919050565b6000602682527f475245415445525f4f525f455155414c5f544f5f32305f4c454e4754485f524560208301527f51554952454400000000000000000000000000000000000000000000000000006040830152606082019050919050565b6000602582527f475245415445525f4f525f455155414c5f544f5f345f4c454e4754485f52455160208301527f55495245440000000000000000000000000000000000000000000000000000006040830152606082019050919050565b606082016000820151611a9b6000850182611e72565b506020820151611aae60208501826118e3565b506040820151611ac16040850182611e63565b50505050565b606082016000820151611add6000850182611e72565b506020820151611af060208501826118e3565b506040820151611b036040850182611e63565b50505050565b600061018083016000830151611b226000860182611754565b506020830151611b356020860182611754565b506040830151611b486040860182611754565b506060830151611b5b6060860182611754565b506080830151611b6e6080860182611e63565b5060a0830151611b8160a0860182611e63565b5060c0830151611b9460c0860182611e63565b5060e0830151611ba760e0860182611e63565b50610100830151611bbc610100860182611e63565b50610120830151611bd1610120860182611e63565b50610140830151848203610140860152611beb8282611901565b915050610160830151848203610160860152611c078282611901565b9150508091505092915050565b600061018083016000830151611c2d6000860182611754565b506020830151611c406020860182611754565b506040830151611c536040860182611754565b506060830151611c666060860182611754565b506080830151611c796080860182611e63565b5060a0830151611c8c60a0860182611e63565b5060c0830151611c9f60c0860182611e63565b5060e0830151611cb260e0860182611e63565b50610100830151611cc7610100860182611e63565b50610120830151611cdc610120860182611e63565b50610140830151848203610140860152611cf68282611901565b915050610160830151848203610160860152611d128282611901565b9150508091505092915050565b61010082016000820151611d366000850182611e63565b506020820151611d496020850182611e63565b506040820151611d5c6040850182611e63565b506060820151611d6f6060850182611e63565b506080820151611d826080850182611e63565b5060a0820151611d9560a0850182611e63565b5060c0820151611da860c0850182611e63565b5060e0820151611dbb60e0850182611e63565b50505050565b61010082016000820151611dd86000850182611e63565b506020820151611deb6020850182611e63565b506040820151611dfe6040850182611e63565b506060820151611e116060850182611e63565b506080820151611e246080850182611e63565b5060a0820151611e3760a0850182611e63565b5060c0820151611e4a60c0850182611e63565b5060e0820151611e5d60e0850182611e63565b50505050565b611e6c816122bd565b82525050565b611e7b816122c7565b82525050565b6000602082019050611e966000830184611754565b92915050565b6000604082019050611eb16000830185611754565b611ebe6020830184611754565b9392505050565b60006040820190508181036000830152611edf8185611763565b90508181036020830152611ef3818461182c565b90509392505050565b60006020820190508181036000830152611f1681846117be565b905092915050565b60006020820190508181036000830152611f38818461182c565b905092915050565b60006040820190508181036000830152611f5a8185611888565b90508181036020830152611f6e8184611888565b90509392505050565b6000602082019050611f8c60008301846118f2565b92915050565b60006020820190508181036000830152611fab81611937565b9050919050565b60006020820190508181036000830152611fcb81611994565b9050919050565b60006020820190508181036000830152611feb816119cb565b9050919050565b6000602082019050818103600083015261200b81611a28565b9050919050565b6000610160820190506120286000830185611a85565b6120356060830184611d1f565b9392505050565b600060208201905081810360008301526120568184611b09565b905092915050565b6000610100820190506120746000830184611d1f565b92915050565b600060408201905061208f6000830185611e63565b61209c6020830184611e63565b9392505050565b6000604051905081810181811067ffffffffffffffff821117156120c657600080fd5b8060405250919050565b600067ffffffffffffffff8211156120e757600080fd5b602082029050602081019050919050565b600067ffffffffffffffff82111561210f57600080fd5b602082029050602081019050919050565b600067ffffffffffffffff82111561213757600080fd5b602082029050602081019050919050565b600067ffffffffffffffff82111561215f57600080fd5b602082029050602081019050919050565b600067ffffffffffffffff82111561218757600080fd5b601f19601f8301169050602081019050919050565b600067ffffffffffffffff8211156121b357600080fd5b601f19601f8301169050602081019050919050565b6000602082019050919050565b6000602082019050919050565b6000602082019050919050565b6000602082019050919050565b600081519050919050565b600081519050919050565b600081519050919050565b600081519050919050565b600081519050919050565b6000602082019050919050565b6000602082019050919050565b6000602082019050919050565b6000602082019050919050565b600073ffffffffffffffffffffffffffffffffffffffff82169050919050565b6000819050919050565b60007fffffffff0000000000000000000000000000000000000000000000000000000082169050919050565b6000819050919050565b600060ff82169050919050565b600073ffffffffffffffffffffffffffffffffffffffff82169050919050565b60008115159050919050565b6000819050919050565b6000819050919050565b600060ff82169050919050565b82818337600083830152505050565b60005b8381101561234e578082015181840152602081019050612333565b8381111561235d576000848401525b50505050565b6000601f19601f83011690509190505600a265627a7a723058207a99e9838b99af8883a6e7464bf52240132c8095988aa03a00d96f91fb55ea6b6c6578706572696d656e74616cf50037",
				"opcodes": "PUSH1 0x80 PUSH1 0x40 MSTORE CALLVALUE DUP1 ISZERO PUSH3 0x11 JUMPI PUSH1 0x0 DUP1 REVERT JUMPDEST POP PUSH1 0x40 MLOAD PUSH3 0x2684 CODESIZE SUB DUP1 PUSH3 0x2684 DUP4 CODECOPY DUP2 ADD DUP1 PUSH1 0x40 MSTORE PUSH3 0x37 SWAP2 SWAP1 DUP2 ADD SWAP1 PUSH3 0x1BB JUMP JUMPDEST DUP2 PUSH1 0x0 DUP1 PUSH2 0x100 EXP DUP2 SLOAD DUP2 PUSH20 0xFFFFFFFFFFFFFFFFFFFFFFFFFFFFFFFFFFFFFFFF MUL NOT AND SWAP1 DUP4 PUSH20 0xFFFFFFFFFFFFFFFFFFFFFFFFFFFFFFFFFFFFFFFF AND MUL OR SWAP1 SSTORE POP DUP1 PUSH1 0x1 SWAP1 DUP1 MLOAD SWAP1 PUSH1 0x20 ADD SWAP1 PUSH3 0x8F SWAP3 SWAP2 SWAP1 PUSH3 0x98 JUMP JUMPDEST POP POP POP PUSH3 0x2C6 JUMP JUMPDEST DUP3 DUP1 SLOAD PUSH1 0x1 DUP2 PUSH1 0x1 AND ISZERO PUSH2 0x100 MUL SUB AND PUSH1 0x2 SWAP1 DIV SWAP1 PUSH1 0x0 MSTORE PUSH1 0x20 PUSH1 0x0 KECCAK256 SWAP1 PUSH1 0x1F ADD PUSH1 0x20 SWAP1 DIV DUP2 ADD SWAP3 DUP3 PUSH1 0x1F LT PUSH3 0xDB JUMPI DUP1 MLOAD PUSH1 0xFF NOT AND DUP4 DUP1 ADD OR DUP6 SSTORE PUSH3 0x10C JUMP JUMPDEST DUP3 DUP1 ADD PUSH1 0x1 ADD DUP6 SSTORE DUP3 ISZERO PUSH3 0x10C JUMPI SWAP2 DUP3 ADD JUMPDEST DUP3 DUP2 GT ISZERO PUSH3 0x10B JUMPI DUP3 MLOAD DUP3 SSTORE SWAP2 PUSH1 0x20 ADD SWAP2 SWAP1 PUSH1 0x1 ADD SWAP1 PUSH3 0xEE JUMP JUMPDEST JUMPDEST POP SWAP1 POP PUSH3 0x11B SWAP2 SWAP1 PUSH3 0x11F JUMP JUMPDEST POP SWAP1 JUMP JUMPDEST PUSH3 0x144 SWAP2 SWAP1 JUMPDEST DUP1 DUP3 GT ISZERO PUSH3 0x140 JUMPI PUSH1 0x0 DUP2 PUSH1 0x0 SWAP1 SSTORE POP PUSH1 0x1 ADD PUSH3 0x126 JUMP JUMPDEST POP SWAP1 JUMP JUMPDEST SWAP1 JUMP JUMPDEST PUSH1 0x0 PUSH3 0x155 DUP3 MLOAD PUSH3 0x270 JUMP JUMPDEST SWAP1 POP SWAP3 SWAP2 POP POP JUMP JUMPDEST PUSH1 0x0 DUP3 PUSH1 0x1F DUP4 ADD SLT ISZERO ISZERO PUSH3 0x171 JUMPI PUSH1 0x0 DUP1 REVERT JUMPDEST DUP2 MLOAD PUSH3 0x188 PUSH3 0x182 DUP3 PUSH3 0x243 JUMP JUMPDEST PUSH3 0x215 JUMP JUMPDEST SWAP2 POP DUP1 DUP3 MSTORE PUSH1 0x20 DUP4 ADD PUSH1 0x20 DUP4 ADD DUP6 DUP4 DUP4 ADD GT ISZERO PUSH3 0x1A5 JUMPI PUSH1 0x0 DUP1 REVERT JUMPDEST PUSH3 0x1B2 DUP4 DUP3 DUP5 PUSH3 0x290 JUMP JUMPDEST POP POP POP SWAP3 SWAP2 POP POP JUMP JUMPDEST PUSH1 0x0 DUP1 PUSH1 0x40 DUP4 DUP6 SUB SLT ISZERO PUSH3 0x1CF JUMPI PUSH1 0x0 DUP1 REVERT JUMPDEST PUSH1 0x0 PUSH3 0x1DF DUP6 DUP3 DUP7 ADD PUSH3 0x147 JUMP JUMPDEST SWAP3 POP POP PUSH1 0x20 DUP4 ADD MLOAD PUSH8 0xFFFFFFFFFFFFFFFF DUP2 GT ISZERO PUSH3 0x1FD JUMPI PUSH1 0x0 DUP1 REVERT JUMPDEST PUSH3 0x20B DUP6 DUP3 DUP7 ADD PUSH3 0x15D JUMP JUMPDEST SWAP2 POP POP SWAP3 POP SWAP3 SWAP1 POP JUMP JUMPDEST PUSH1 0x0 PUSH1 0x40 MLOAD SWAP1 POP DUP2 DUP2 ADD DUP2 DUP2 LT PUSH8 0xFFFFFFFFFFFFFFFF DUP3 GT OR ISZERO PUSH3 0x239 JUMPI PUSH1 0x0 DUP1 REVERT JUMPDEST DUP1 PUSH1 0x40 MSTORE POP SWAP2 SWAP1 POP JUMP JUMPDEST PUSH1 0x0 PUSH8 0xFFFFFFFFFFFFFFFF DUP3 GT ISZERO PUSH3 0x25B JUMPI PUSH1 0x0 DUP1 REVERT JUMPDEST PUSH1 0x1F NOT PUSH1 0x1F DUP4 ADD AND SWAP1 POP PUSH1 0x20 DUP2 ADD SWAP1 POP SWAP2 SWAP1 POP JUMP JUMPDEST PUSH1 0x0 PUSH20 0xFFFFFFFFFFFFFFFFFFFFFFFFFFFFFFFFFFFFFFFF DUP3 AND SWAP1 POP SWAP2 SWAP1 POP JUMP JUMPDEST PUSH1 0x0 JUMPDEST DUP4 DUP2 LT ISZERO PUSH3 0x2B0 JUMPI DUP1 DUP3 ADD MLOAD DUP2 DUP5 ADD MSTORE PUSH1 0x20 DUP2 ADD SWAP1 POP PUSH3 0x293 JUMP JUMPDEST DUP4 DUP2 GT ISZERO PUSH3 0x2C0 JUMPI PUSH1 0x0 DUP5 DUP5 ADD MSTORE JUMPDEST POP POP POP POP JUMP JUMPDEST PUSH2 0x23AE DUP1 PUSH3 0x2D6 PUSH1 0x0 CODECOPY PUSH1 0x0 RETURN STOP PUSH1 0x80 PUSH1 0x40 MSTORE PUSH1 0x4 CALLDATASIZE LT PUSH2 0x83 JUMPI PUSH1 0x0 CALLDATALOAD PUSH29 0x100000000000000000000000000000000000000000000000000000000 SWAP1 DIV PUSH4 0xFFFFFFFF AND DUP1 PUSH4 0x4AD1E53 EQ PUSH2 0x88 JUMPI DUP1 PUSH4 0x2CD0FC73 EQ PUSH2 0xC6 JUMPI DUP1 PUSH4 0x4B95DE13 EQ PUSH2 0x104 JUMPI DUP1 PUSH4 0x690D3114 EQ PUSH2 0x142 JUMPI DUP1 PUSH4 0xB6988463 EQ PUSH2 0x17F JUMPI DUP1 PUSH4 0xC6B7F4EE EQ PUSH2 0x1BC JUMPI DUP1 PUSH4 0xF241FFB0 EQ PUSH2 0x1FA JUMPI JUMPDEST PUSH1 0x0 DUP1 REVERT JUMPDEST CALLVALUE DUP1 ISZERO PUSH2 0x94 JUMPI PUSH1 0x0 DUP1 REVERT JUMPDEST POP PUSH2 0xAF PUSH1 0x4 DUP1 CALLDATASIZE SUB PUSH2 0xAA SWAP2 SWAP1 DUP2 ADD SWAP1 PUSH2 0x16D7 JUMP JUMPDEST PUSH2 0x237 JUMP JUMPDEST PUSH1 0x40 MLOAD PUSH2 0xBD SWAP3 SWAP2 SWAP1 PUSH2 0x2012 JUMP JUMPDEST PUSH1 0x40 MLOAD DUP1 SWAP2 SUB SWAP1 RETURN JUMPDEST CALLVALUE DUP1 ISZERO PUSH2 0xD2 JUMPI PUSH1 0x0 DUP1 REVERT JUMPDEST POP PUSH2 0xED PUSH1 0x4 DUP1 CALLDATASIZE SUB PUSH2 0xE8 SWAP2 SWAP1 DUP2 ADD SWAP1 PUSH2 0x1548 JUMP JUMPDEST PUSH2 0x32A JUMP JUMPDEST PUSH1 0x40 MLOAD PUSH2 0xFB SWAP3 SWAP2 SWAP1 PUSH2 0x207A JUMP JUMPDEST PUSH1 0x40 MLOAD DUP1 SWAP2 SUB SWAP1 RETURN JUMPDEST CALLVALUE DUP1 ISZERO PUSH2 0x110 JUMPI PUSH1 0x0 DUP1 REVERT JUMPDEST POP PUSH2 0x12B PUSH1 0x4 DUP1 CALLDATASIZE SUB PUSH2 0x126 SWAP2 SWAP1 DUP2 ADD SWAP1 PUSH2 0x1619 JUMP JUMPDEST PUSH2 0x7F2 JUMP JUMPDEST PUSH1 0x40 MLOAD PUSH2 0x139 SWAP3 SWAP2 SWAP1 PUSH2 0x1EC5 JUMP JUMPDEST PUSH1 0x40 MLOAD DUP1 SWAP2 SUB SWAP1 RETURN JUMPDEST CALLVALUE DUP1 ISZERO PUSH2 0x14E JUMPI PUSH1 0x0 DUP1 REVERT JUMPDEST POP PUSH2 0x169 PUSH1 0x4 DUP1 CALLDATASIZE SUB PUSH2 0x164 SWAP2 SWAP1 DUP2 ADD SWAP1 PUSH2 0x1619 JUMP JUMPDEST PUSH2 0x8DD JUMP JUMPDEST PUSH1 0x40 MLOAD PUSH2 0x176 SWAP2 SWAP1 PUSH2 0x1F1E JUMP JUMPDEST PUSH1 0x40 MLOAD DUP1 SWAP2 SUB SWAP1 RETURN JUMPDEST CALLVALUE DUP1 ISZERO PUSH2 0x18B JUMPI PUSH1 0x0 DUP1 REVERT JUMPDEST POP PUSH2 0x1A6 PUSH1 0x4 DUP1 CALLDATASIZE SUB PUSH2 0x1A1 SWAP2 SWAP1 DUP2 ADD SWAP1 PUSH2 0x159C JUMP JUMPDEST PUSH2 0x9A0 JUMP JUMPDEST PUSH1 0x40 MLOAD PUSH2 0x1B3 SWAP2 SWAP1 PUSH2 0x1E81 JUMP JUMPDEST PUSH1 0x40 MLOAD DUP1 SWAP2 SUB SWAP1 RETURN JUMPDEST CALLVALUE DUP1 ISZERO PUSH2 0x1C8 JUMPI PUSH1 0x0 DUP1 REVERT JUMPDEST POP PUSH2 0x1E3 PUSH1 0x4 DUP1 CALLDATASIZE SUB PUSH2 0x1DE SWAP2 SWAP1 DUP2 ADD SWAP1 PUSH2 0x14F4 JUMP JUMPDEST PUSH2 0x9ED JUMP JUMPDEST PUSH1 0x40 MLOAD PUSH2 0x1F1 SWAP3 SWAP2 SWAP1 PUSH2 0x1F40 JUMP JUMPDEST PUSH1 0x40 MLOAD DUP1 SWAP2 SUB SWAP1 RETURN JUMPDEST CALLVALUE DUP1 ISZERO PUSH2 0x206 JUMPI PUSH1 0x0 DUP1 REVERT JUMPDEST POP PUSH2 0x221 PUSH1 0x4 DUP1 CALLDATASIZE SUB PUSH2 0x21C SWAP2 SWAP1 DUP2 ADD SWAP1 PUSH2 0x16D7 JUMP JUMPDEST PUSH2 0xAE4 JUMP JUMPDEST PUSH1 0x40 MLOAD PUSH2 0x22E SWAP2 SWAP1 PUSH2 0x205E JUMP JUMPDEST PUSH1 0x40 MLOAD DUP1 SWAP2 SUB SWAP1 RETURN JUMPDEST PUSH2 0x23F PUSH2 0xD8D JUMP JUMPDEST PUSH2 0x247 PUSH2 0xDB5 JUMP JUMPDEST PUSH1 0x0 DUP1 SWAP1 SLOAD SWAP1 PUSH2 0x100 EXP SWAP1 DIV PUSH20 0xFFFFFFFFFFFFFFFFFFFFFFFFFFFFFFFFFFFFFFFF AND PUSH20 0xFFFFFFFFFFFFFFFFFFFFFFFFFFFFFFFFFFFFFFFF AND PUSH4 0xC75E0A81 DUP6 PUSH1 0x40 MLOAD DUP3 PUSH4 0xFFFFFFFF AND PUSH29 0x100000000000000000000000000000000000000000000000000000000 MUL DUP2 MSTORE PUSH1 0x4 ADD PUSH2 0x2BD SWAP2 SWAP1 PUSH2 0x203C JUMP JUMPDEST PUSH1 0x60 PUSH1 0x40 MLOAD DUP1 DUP4 SUB DUP2 PUSH1 0x0 DUP8 DUP1 EXTCODESIZE ISZERO DUP1 ISZERO PUSH2 0x2D7 JUMPI PUSH1 0x0 DUP1 REVERT JUMPDEST POP GAS CALL ISZERO DUP1 ISZERO PUSH2 0x2EB JUMPI RETURNDATASIZE PUSH1 0x0 DUP1 RETURNDATACOPY RETURNDATASIZE PUSH1 0x0 REVERT JUMPDEST POP POP POP POP PUSH1 0x40 MLOAD RETURNDATASIZE PUSH1 0x1F NOT PUSH1 0x1F DUP3 ADD AND DUP3 ADD DUP1 PUSH1 0x40 MSTORE POP PUSH2 0x30F SWAP2 SWAP1 DUP2 ADD SWAP1 PUSH2 0x16AE JUMP JUMPDEST SWAP2 POP PUSH2 0x31B DUP5 DUP5 PUSH2 0xAE4 JUMP JUMPDEST SWAP1 POP DUP2 DUP2 SWAP2 POP SWAP2 POP SWAP3 POP SWAP3 SWAP1 POP JUMP JUMPDEST PUSH1 0x0 DUP1 PUSH1 0x0 DUP1 PUSH1 0x0 DUP1 PUSH1 0x0 DUP1 PUSH2 0x34A PUSH1 0x0 DUP11 PUSH2 0xC17 SWAP1 SWAP2 SWAP1 PUSH4 0xFFFFFFFF AND JUMP JUMPDEST SWAP6 POP PUSH2 0x360 PUSH1 0x10 DUP11 PUSH2 0xC9C SWAP1 SWAP2 SWAP1 PUSH4 0xFFFFFFFF AND JUMP JUMPDEST SWAP5 POP PUSH1 0x0 DUP1 SWAP1 SLOAD SWAP1 PUSH2 0x100 EXP SWAP1 DIV PUSH20 0xFFFFFFFFFFFFFFFFFFFFFFFFFFFFFFFFFFFFFFFF AND PUSH20 0xFFFFFFFFFFFFFFFFFFFFFFFFFFFFFFFFFFFFFFFF AND PUSH4 0x60704108 DUP8 PUSH1 0x40 MLOAD DUP3 PUSH4 0xFFFFFFFF AND PUSH29 0x100000000000000000000000000000000000000000000000000000000 MUL DUP2 MSTORE PUSH1 0x4 ADD PUSH2 0x3D8 SWAP2 SWAP1 PUSH2 0x1F77 JUMP JUMPDEST PUSH1 0x20 PUSH1 0x40 MLOAD DUP1 DUP4 SUB DUP2 PUSH1 0x0 DUP8 DUP1 EXTCODESIZE ISZERO DUP1 ISZERO PUSH2 0x3F2 JUMPI PUSH1 0x0 DUP1 REVERT JUMPDEST POP GAS CALL ISZERO DUP1 ISZERO PUSH2 0x406 JUMPI RETURNDATASIZE PUSH1 0x0 DUP1 RETURNDATACOPY RETURNDATASIZE PUSH1 0x0 REVERT JUMPDEST POP POP POP POP PUSH1 0x40 MLOAD RETURNDATASIZE PUSH1 0x1F NOT PUSH1 0x1F DUP3 ADD AND DUP3 ADD DUP1 PUSH1 0x40 MSTORE POP PUSH2 0x42A SWAP2 SWAP1 DUP2 ADD SWAP1 PUSH2 0x14CB JUMP JUMPDEST SWAP4 POP PUSH1 0x40 MLOAD DUP1 DUP1 PUSH32 0x4552433230546F6B656E28616464726573732900000000000000000000000000 DUP2 MSTORE POP PUSH1 0x13 ADD SWAP1 POP PUSH1 0x40 MLOAD DUP1 SWAP2 SUB SWAP1 KECCAK256 PUSH28 0xFFFFFFFFFFFFFFFFFFFFFFFFFFFFFFFFFFFFFFFFFFFFFFFFFFFFFFFF NOT AND DUP7 PUSH28 0xFFFFFFFFFFFFFFFFFFFFFFFFFFFFFFFFFFFFFFFFFFFFFFFFFFFFFFFF NOT AND EQ ISZERO PUSH2 0x600 JUMPI DUP5 PUSH20 0xFFFFFFFFFFFFFFFFFFFFFFFFFFFFFFFFFFFFFFFF AND PUSH4 0x70A08231 DUP12 PUSH1 0x40 MLOAD DUP3 PUSH4 0xFFFFFFFF AND PUSH29 0x100000000000000000000000000000000000000000000000000000000 MUL DUP2 MSTORE PUSH1 0x4 ADD PUSH2 0x4FC SWAP2 SWAP1 PUSH2 0x1E81 JUMP JUMPDEST PUSH1 0x20 PUSH1 0x40 MLOAD DUP1 DUP4 SUB DUP2 PUSH1 0x0 DUP8 DUP1 EXTCODESIZE ISZERO DUP1 ISZERO PUSH2 0x516 JUMPI PUSH1 0x0 DUP1 REVERT JUMPDEST POP GAS CALL ISZERO DUP1 ISZERO PUSH2 0x52A JUMPI RETURNDATASIZE PUSH1 0x0 DUP1 RETURNDATACOPY RETURNDATASIZE PUSH1 0x0 REVERT JUMPDEST POP POP POP POP PUSH1 0x40 MLOAD RETURNDATASIZE PUSH1 0x1F NOT PUSH1 0x1F DUP3 ADD AND DUP3 ADD DUP1 PUSH1 0x40 MSTORE POP PUSH2 0x54E SWAP2 SWAP1 DUP2 ADD SWAP1 PUSH2 0x172B JUMP JUMPDEST SWAP8 POP DUP5 PUSH20 0xFFFFFFFFFFFFFFFFFFFFFFFFFFFFFFFFFFFFFFFF AND PUSH4 0xDD62ED3E DUP12 DUP7 PUSH1 0x40 MLOAD DUP4 PUSH4 0xFFFFFFFF AND PUSH29 0x100000000000000000000000000000000000000000000000000000000 MUL DUP2 MSTORE PUSH1 0x4 ADD PUSH2 0x5A7 SWAP3 SWAP2 SWAP1 PUSH2 0x1E9C JUMP JUMPDEST PUSH1 0x20 PUSH1 0x40 MLOAD DUP1 DUP4 SUB DUP2 PUSH1 0x0 DUP8 DUP1 EXTCODESIZE ISZERO DUP1 ISZERO PUSH2 0x5C1 JUMPI PUSH1 0x0 DUP1 REVERT JUMPDEST POP GAS CALL ISZERO DUP1 ISZERO PUSH2 0x5D5 JUMPI RETURNDATASIZE PUSH1 0x0 DUP1 RETURNDATACOPY RETURNDATASIZE PUSH1 0x0 REVERT JUMPDEST POP POP POP POP PUSH1 0x40 MLOAD RETURNDATASIZE PUSH1 0x1F NOT PUSH1 0x1F DUP3 ADD AND DUP3 ADD DUP1 PUSH1 0x40 MSTORE POP PUSH2 0x5F9 SWAP2 SWAP1 DUP2 ADD SWAP1 PUSH2 0x172B JUMP JUMPDEST SWAP7 POP PUSH2 0x7DF JUMP JUMPDEST PUSH1 0x40 MLOAD DUP1 DUP1 PUSH32 0x455243373231546F6B656E28616464726573732C75696E743235362900000000 DUP2 MSTORE POP PUSH1 0x1C ADD SWAP1 POP PUSH1 0x40 MLOAD DUP1 SWAP2 SUB SWAP1 KECCAK256 PUSH28 0xFFFFFFFFFFFFFFFFFFFFFFFFFFFFFFFFFFFFFFFFFFFFFFFFFFFFFFFF NOT AND DUP7 PUSH28 0xFFFFFFFFFFFFFFFFFFFFFFFFFFFFFFFFFFFFFFFFFFFFFFFFFFFFFFFF NOT AND EQ ISZERO PUSH2 0x7A3 JUMPI PUSH2 0x68F PUSH1 0x24 DUP11 PUSH2 0xD12 SWAP1 SWAP2 SWAP1 PUSH4 0xFFFFFFFF AND JUMP JUMPDEST SWAP3 POP PUSH2 0x69B DUP6 DUP5 PUSH2 0x9A0 JUMP JUMPDEST SWAP2 POP DUP2 PUSH20 0xFFFFFFFFFFFFFFFFFFFFFFFFFFFFFFFFFFFFFFFF AND DUP11 PUSH20 0xFFFFFFFFFFFFFFFFFFFFFFFFFFFFFFFFFFFFFFFF AND EQ PUSH2 0x6D7 JUMPI PUSH1 0x0 PUSH2 0x6DA JUMP JUMPDEST PUSH1 0x1 JUMPDEST PUSH1 0xFF AND SWAP8 POP DUP5 PUSH20 0xFFFFFFFFFFFFFFFFFFFFFFFFFFFFFFFFFFFFFFFF AND PUSH4 0xE985E9C5 DUP12 DUP7 PUSH1 0x40 MLOAD DUP4 PUSH4 0xFFFFFFFF AND PUSH29 0x100000000000000000000000000000000000000000000000000000000 MUL DUP2 MSTORE PUSH1 0x4 ADD PUSH2 0x736 SWAP3 SWAP2 SWAP1 PUSH2 0x1E9C JUMP JUMPDEST PUSH1 0x20 PUSH1 0x40 MLOAD DUP1 DUP4 SUB DUP2 PUSH1 0x0 DUP8 DUP1 EXTCODESIZE ISZERO DUP1 ISZERO PUSH2 0x750 JUMPI PUSH1 0x0 DUP1 REVERT JUMPDEST POP GAS CALL ISZERO DUP1 ISZERO PUSH2 0x764 JUMPI RETURNDATASIZE PUSH1 0x0 DUP1 RETURNDATACOPY RETURNDATASIZE PUSH1 0x0 REVERT JUMPDEST POP POP POP POP PUSH1 0x40 MLOAD RETURNDATASIZE PUSH1 0x1F NOT PUSH1 0x1F DUP3 ADD AND DUP3 ADD DUP1 PUSH1 0x40 MSTORE POP PUSH2 0x788 SWAP2 SWAP1 DUP2 ADD SWAP1 PUSH2 0x1685 JUMP JUMPDEST SWAP1 POP DUP1 PUSH2 0x796 JUMPI PUSH1 0x0 PUSH2 0x799 JUMP JUMPDEST PUSH1 0x1 JUMPDEST PUSH1 0xFF AND SWAP7 POP PUSH2 0x7DE JUMP JUMPDEST PUSH1 0x40 MLOAD PUSH32 0x8C379A000000000000000000000000000000000000000000000000000000000 DUP2 MSTORE PUSH1 0x4 ADD PUSH2 0x7D5 SWAP1 PUSH2 0x1FB2 JUMP JUMPDEST PUSH1 0x40 MLOAD DUP1 SWAP2 SUB SWAP1 REVERT JUMPDEST JUMPDEST DUP8 DUP8 SWAP8 POP SWAP8 POP POP POP POP POP POP POP SWAP3 POP SWAP3 SWAP1 POP JUMP JUMPDEST PUSH1 0x60 DUP1 PUSH1 0x0 DUP1 SWAP1 SLOAD SWAP1 PUSH2 0x100 EXP SWAP1 DIV PUSH20 0xFFFFFFFFFFFFFFFFFFFFFFFFFFFFFFFFFFFFFFFF AND PUSH20 0xFFFFFFFFFFFFFFFFFFFFFFFFFFFFFFFFFFFFFFFF AND PUSH4 0x7E9D74DC DUP6 PUSH1 0x40 MLOAD DUP3 PUSH4 0xFFFFFFFF AND PUSH29 0x100000000000000000000000000000000000000000000000000000000 MUL DUP2 MSTORE PUSH1 0x4 ADD PUSH2 0x86B SWAP2 SWAP1 PUSH2 0x1EFC JUMP JUMPDEST PUSH1 0x0 PUSH1 0x40 MLOAD DUP1 DUP4 SUB DUP2 PUSH1 0x0 DUP8 DUP1 EXTCODESIZE ISZERO DUP1 ISZERO PUSH2 0x885 JUMPI PUSH1 0x0 DUP1 REVERT JUMPDEST POP GAS CALL ISZERO DUP1 ISZERO PUSH2 0x899 JUMPI RETURNDATASIZE PUSH1 0x0 DUP1 RETURNDATACOPY RETURNDATASIZE PUSH1 0x0 REVERT JUMPDEST POP POP POP POP PUSH1 0x40 MLOAD RETURNDATASIZE PUSH1 0x0 DUP3 RETURNDATACOPY RETURNDATASIZE PUSH1 0x1F NOT PUSH1 0x1F DUP3 ADD AND DUP3 ADD DUP1 PUSH1 0x40 MSTORE POP PUSH2 0x8C2 SWAP2 SWAP1 DUP2 ADD SWAP1 PUSH2 0x15D8 JUMP JUMPDEST SWAP2 POP PUSH2 0x8CE DUP5 DUP5 PUSH2 0x8DD JUMP JUMPDEST SWAP1 POP DUP2 DUP2 SWAP2 POP SWAP2 POP SWAP3 POP SWAP3 SWAP1 POP JUMP JUMPDEST PUSH1 0x60 PUSH1 0x0 PUSH1 0x60 PUSH1 0x0 DUP6 MLOAD SWAP3 POP DUP3 PUSH1 0x40 MLOAD SWAP1 DUP1 DUP3 MSTORE DUP1 PUSH1 0x20 MUL PUSH1 0x20 ADD DUP3 ADD PUSH1 0x40 MSTORE DUP1 ISZERO PUSH2 0x923 JUMPI DUP2 PUSH1 0x20 ADD JUMPDEST PUSH2 0x910 PUSH2 0xDFB JUMP JUMPDEST DUP2 MSTORE PUSH1 0x20 ADD SWAP1 PUSH1 0x1 SWAP1 SUB SWAP1 DUP2 PUSH2 0x908 JUMPI SWAP1 POP JUMPDEST POP SWAP2 POP PUSH1 0x0 SWAP1 POP JUMPDEST DUP3 DUP2 EQ ISZERO ISZERO PUSH2 0x994 JUMPI PUSH2 0x96C DUP7 DUP3 DUP2 MLOAD DUP2 LT ISZERO ISZERO PUSH2 0x945 JUMPI INVALID JUMPDEST SWAP1 PUSH1 0x20 ADD SWAP1 PUSH1 0x20 MUL ADD MLOAD DUP7 DUP4 DUP2 MLOAD DUP2 LT ISZERO ISZERO PUSH2 0x95D JUMPI INVALID JUMPDEST SWAP1 PUSH1 0x20 ADD SWAP1 PUSH1 0x20 MUL ADD MLOAD PUSH2 0xAE4 JUMP JUMPDEST DUP3 DUP3 DUP2 MLOAD DUP2 LT ISZERO ISZERO PUSH2 0x97A JUMPI INVALID JUMPDEST SWAP1 PUSH1 0x20 ADD SWAP1 PUSH1 0x20 MUL ADD DUP2 SWAP1 MSTORE POP DUP1 DUP1 PUSH1 0x1 ADD SWAP2 POP POP PUSH2 0x92B JUMP JUMPDEST DUP2 SWAP4 POP POP POP POP SWAP3 SWAP2 POP POP JUMP JUMPDEST PUSH1 0x0 PUSH1 0x40 MLOAD PUSH32 0x6352211E00000000000000000000000000000000000000000000000000000000 DUP2 MSTORE DUP3 PUSH1 0x4 DUP3 ADD MSTORE PUSH1 0x20 DUP2 PUSH1 0x24 DUP4 DUP8 GAS STATICCALL DUP1 ISZERO PUSH2 0x9E2 JUMPI DUP2 MLOAD SWAP3 POP JUMPDEST POP POP DUP1 SWAP1 POP SWAP3 SWAP2 POP POP JUMP JUMPDEST PUSH1 0x60 DUP1 PUSH1 0x0 PUSH1 0x60 DUP1 PUSH1 0x0 DUP7 MLOAD SWAP4 POP DUP4 PUSH1 0x40 MLOAD SWAP1 DUP1 DUP3 MSTORE DUP1 PUSH1 0x20 MUL PUSH1 0x20 ADD DUP3 ADD PUSH1 0x40 MSTORE DUP1 ISZERO PUSH2 0xA2A JUMPI DUP2 PUSH1 0x20 ADD PUSH1 0x20 DUP3 MUL DUP1 CODESIZE DUP4 CODECOPY DUP1 DUP3 ADD SWAP2 POP POP SWAP1 POP JUMPDEST POP SWAP3 POP DUP4 PUSH1 0x40 MLOAD SWAP1 DUP1 DUP3 MSTORE DUP1 PUSH1 0x20 MUL PUSH1 0x20 ADD DUP3 ADD PUSH1 0x40 MSTORE DUP1 ISZERO PUSH2 0xA5C JUMPI DUP2 PUSH1 0x20 ADD PUSH1 0x20 DUP3 MUL DUP1 CODESIZE DUP4 CODECOPY DUP1 DUP3 ADD SWAP2 POP POP SWAP1 POP JUMPDEST POP SWAP2 POP PUSH1 0x0 SWAP1 POP JUMPDEST DUP4 DUP2 EQ ISZERO ISZERO PUSH2 0xAD3 JUMPI PUSH2 0xA8E DUP9 DUP9 DUP4 DUP2 MLOAD DUP2 LT ISZERO ISZERO PUSH2 0xA7F JUMPI INVALID JUMPDEST SWAP1 PUSH1 0x20 ADD SWAP1 PUSH1 0x20 MUL ADD MLOAD PUSH2 0x32A JUMP JUMPDEST DUP5 DUP4 DUP2 MLOAD DUP2 LT ISZERO ISZERO PUSH2 0xA9C JUMPI INVALID JUMPDEST SWAP1 PUSH1 0x20 ADD SWAP1 PUSH1 0x20 MUL ADD DUP5 DUP5 DUP2 MLOAD DUP2 LT ISZERO ISZERO PUSH2 0xAB3 JUMPI INVALID JUMPDEST SWAP1 PUSH1 0x20 ADD SWAP1 PUSH1 0x20 MUL ADD DUP3 DUP2 MSTORE POP DUP3 DUP2 MSTORE POP POP POP DUP1 DUP1 PUSH1 0x1 ADD SWAP2 POP POP PUSH2 0xA64 JUMP JUMPDEST DUP3 DUP3 SWAP6 POP SWAP6 POP POP POP POP POP SWAP3 POP SWAP3 SWAP1 POP JUMP JUMPDEST PUSH2 0xAEC PUSH2 0xDB5 JUMP JUMPDEST PUSH1 0x60 PUSH2 0xB01 DUP5 PUSH1 0x0 ADD MLOAD DUP6 PUSH2 0x140 ADD MLOAD PUSH2 0x32A JUMP JUMPDEST DUP4 PUSH1 0x0 ADD DUP5 PUSH1 0x20 ADD DUP3 DUP2 MSTORE POP DUP3 DUP2 MSTORE POP POP POP PUSH2 0xB22 DUP4 DUP6 PUSH2 0x160 ADD MLOAD PUSH2 0x32A JUMP JUMPDEST DUP4 PUSH1 0x40 ADD DUP5 PUSH1 0x60 ADD DUP3 DUP2 MSTORE POP DUP3 DUP2 MSTORE POP POP POP PUSH1 0x1 DUP1 SLOAD PUSH1 0x1 DUP2 PUSH1 0x1 AND ISZERO PUSH2 0x100 MUL SUB AND PUSH1 0x2 SWAP1 DIV DUP1 PUSH1 0x1F ADD PUSH1 0x20 DUP1 SWAP2 DIV MUL PUSH1 0x20 ADD PUSH1 0x40 MLOAD SWAP1 DUP2 ADD PUSH1 0x40 MSTORE DUP1 SWAP3 SWAP2 SWAP1 DUP2 DUP2 MSTORE PUSH1 0x20 ADD DUP3 DUP1 SLOAD PUSH1 0x1 DUP2 PUSH1 0x1 AND ISZERO PUSH2 0x100 MUL SUB AND PUSH1 0x2 SWAP1 DIV DUP1 ISZERO PUSH2 0xBCA JUMPI DUP1 PUSH1 0x1F LT PUSH2 0xB9F JUMPI PUSH2 0x100 DUP1 DUP4 SLOAD DIV MUL DUP4 MSTORE SWAP2 PUSH1 0x20 ADD SWAP2 PUSH2 0xBCA JUMP JUMPDEST DUP3 ADD SWAP2 SWAP1 PUSH1 0x0 MSTORE PUSH1 0x20 PUSH1 0x0 KECCAK256 SWAP1 JUMPDEST DUP2 SLOAD DUP2 MSTORE SWAP1 PUSH1 0x1 ADD SWAP1 PUSH1 0x20 ADD DUP1 DUP4 GT PUSH2 0xBAD JUMPI DUP3 SWAP1 SUB PUSH1 0x1F AND DUP3 ADD SWAP2 JUMPDEST POP POP POP POP POP SWAP1 POP PUSH2 0xBDF DUP5 PUSH1 0x0 ADD MLOAD DUP3 PUSH2 0x32A JUMP JUMPDEST DUP4 PUSH1 0x80 ADD DUP5 PUSH1 0xA0 ADD DUP3 DUP2 MSTORE POP DUP3 DUP2 MSTORE POP POP POP PUSH2 0xBFB DUP4 DUP3 PUSH2 0x32A JUMP JUMPDEST DUP4 PUSH1 0xC0 ADD DUP5 PUSH1 0xE0 ADD DUP3 DUP2 MSTORE POP DUP3 DUP2 MSTORE POP POP POP DUP2 SWAP2 POP POP SWAP3 SWAP2 POP POP JUMP JUMPDEST PUSH1 0x0 PUSH1 0x4 DUP3 ADD DUP4 MLOAD LT ISZERO ISZERO ISZERO PUSH2 0xC62 JUMPI PUSH1 0x40 MLOAD PUSH32 0x8C379A000000000000000000000000000000000000000000000000000000000 DUP2 MSTORE PUSH1 0x4 ADD PUSH2 0xC59 SWAP1 PUSH2 0x1FF2 JUMP JUMPDEST PUSH1 0x40 MLOAD DUP1 SWAP2 SUB SWAP1 REVERT JUMPDEST PUSH1 0x20 DUP3 ADD SWAP2 POP DUP2 DUP4 ADD MLOAD SWAP1 POP PUSH32 0xFFFFFFFF00000000000000000000000000000000000000000000000000000000 DUP2 AND SWAP1 POP DUP1 SWAP1 POP SWAP3 SWAP2 POP POP JUMP JUMPDEST PUSH1 0x0 PUSH1 0x14 DUP3 ADD DUP4 MLOAD LT ISZERO ISZERO ISZERO PUSH2 0xCE7 JUMPI PUSH1 0x40 MLOAD PUSH32 0x8C379A000000000000000000000000000000000000000000000000000000000 DUP2 MSTORE PUSH1 0x4 ADD PUSH2 0xCDE SWAP1 PUSH2 0x1FD2 JUMP JUMPDEST PUSH1 0x40 MLOAD DUP1 SWAP2 SUB SWAP1 REVERT JUMPDEST PUSH1 0x14 DUP3 ADD SWAP2 POP PUSH20 0xFFFFFFFFFFFFFFFFFFFFFFFFFFFFFFFFFFFFFFFF DUP3 DUP5 ADD MLOAD AND SWAP1 POP DUP1 SWAP1 POP SWAP3 SWAP2 POP POP JUMP JUMPDEST PUSH1 0x0 PUSH2 0xD1E DUP4 DUP4 PUSH2 0xD2D JUMP JUMPDEST PUSH1 0x1 SWAP1 DIV SWAP1 POP DUP1 SWAP1 POP SWAP3 SWAP2 POP POP JUMP JUMPDEST PUSH1 0x0 PUSH1 0x20 DUP3 ADD DUP4 MLOAD LT ISZERO ISZERO ISZERO PUSH2 0xD78 JUMPI PUSH1 0x40 MLOAD PUSH32 0x8C379A000000000000000000000000000000000000000000000000000000000 DUP2 MSTORE PUSH1 0x4 ADD PUSH2 0xD6F SWAP1 PUSH2 0x1F92 JUMP JUMPDEST PUSH1 0x40 MLOAD DUP1 SWAP2 SUB SWAP1 REVERT JUMPDEST PUSH1 0x20 DUP3 ADD SWAP2 POP DUP2 DUP4 ADD MLOAD SWAP1 POP DUP1 SWAP1 POP SWAP3 SWAP2 POP POP JUMP JUMPDEST PUSH1 0x60 PUSH1 0x40 MLOAD SWAP1 DUP2 ADD PUSH1 0x40 MSTORE DUP1 PUSH1 0x0 PUSH1 0xFF AND DUP2 MSTORE PUSH1 0x20 ADD PUSH1 0x0 DUP1 NOT AND DUP2 MSTORE PUSH1 0x20 ADD PUSH1 0x0 DUP2 MSTORE POP SWAP1 JUMP JUMPDEST PUSH2 0x100 PUSH1 0x40 MLOAD SWAP1 DUP2 ADD PUSH1 0x40 MSTORE DUP1 PUSH1 0x0 DUP2 MSTORE PUSH1 0x20 ADD PUSH1 0x0 DUP2 MSTORE PUSH1 0x20 ADD PUSH1 0x0 DUP2 MSTORE PUSH1 0x20 ADD PUSH1 0x0 DUP2 MSTORE PUSH1 0x20 ADD PUSH1 0x0 DUP2 MSTORE PUSH1 0x20 ADD PUSH1 0x0 DUP2 MSTORE PUSH1 0x20 ADD PUSH1 0x0 DUP2 MSTORE PUSH1 0x20 ADD PUSH1 0x0 DUP2 MSTORE POP SWAP1 JUMP JUMPDEST PUSH2 0x100 PUSH1 0x40 MLOAD SWAP1 DUP2 ADD PUSH1 0x40 MSTORE DUP1 PUSH1 0x0 DUP2 MSTORE PUSH1 0x20 ADD PUSH1 0x0 DUP2 MSTORE PUSH1 0x20 ADD PUSH1 0x0 DUP2 MSTORE PUSH1 0x20 ADD PUSH1 0x0 DUP2 MSTORE PUSH1 0x20 ADD PUSH1 0x0 DUP2 MSTORE PUSH1 0x20 ADD PUSH1 0x0 DUP2 MSTORE PUSH1 0x20 ADD PUSH1 0x0 DUP2 MSTORE PUSH1 0x20 ADD PUSH1 0x0 DUP2 MSTORE POP SWAP1 JUMP JUMPDEST PUSH1 0x0 PUSH2 0xE4D DUP3 CALLDATALOAD PUSH2 0x22D4 JUMP JUMPDEST SWAP1 POP SWAP3 SWAP2 POP POP JUMP JUMPDEST PUSH1 0x0 PUSH2 0xE61 DUP3 MLOAD PUSH2 0x22D4 JUMP JUMPDEST SWAP1 POP SWAP3 SWAP2 POP POP JUMP JUMPDEST PUSH1 0x0 DUP3 PUSH1 0x1F DUP4 ADD SLT ISZERO ISZERO PUSH2 0xE7C JUMPI PUSH1 0x0 DUP1 REVERT JUMPDEST DUP2 CALLDATALOAD PUSH2 0xE8F PUSH2 0xE8A DUP3 PUSH2 0x20D0 JUMP JUMPDEST PUSH2 0x20A3 JUMP JUMPDEST SWAP2 POP DUP2 DUP2 DUP4 MSTORE PUSH1 0x20 DUP5 ADD SWAP4 POP PUSH1 0x20 DUP2 ADD SWAP1 POP DUP4 DUP6 PUSH1 0x20 DUP5 MUL DUP3 ADD GT ISZERO PUSH2 0xEB4 JUMPI PUSH1 0x0 DUP1 REVERT JUMPDEST PUSH1 0x0 JUMPDEST DUP4 DUP2 LT ISZERO PUSH2 0xEE4 JUMPI DUP2 PUSH2 0xECA DUP9 DUP3 PUSH2 0xE41 JUMP JUMPDEST DUP5 MSTORE PUSH1 0x20 DUP5 ADD SWAP4 POP PUSH1 0x20 DUP4 ADD SWAP3 POP POP PUSH1 0x1 DUP2 ADD SWAP1 POP PUSH2 0xEB7 JUMP JUMPDEST POP POP POP POP SWAP3 SWAP2 POP POP JUMP JUMPDEST PUSH1 0x0 DUP3 PUSH1 0x1F DUP4 ADD SLT ISZERO ISZERO PUSH2 0xF01 JUMPI PUSH1 0x0 DUP1 REVERT JUMPDEST DUP2 CALLDATALOAD PUSH2 0xF14 PUSH2 0xF0F DUP3 PUSH2 0x20F8 JUMP JUMPDEST PUSH2 0x20A3 JUMP JUMPDEST SWAP2 POP DUP2 DUP2 DUP4 MSTORE PUSH1 0x20 DUP5 ADD SWAP4 POP PUSH1 0x20 DUP2 ADD SWAP1 POP DUP4 PUSH1 0x0 JUMPDEST DUP4 DUP2 LT ISZERO PUSH2 0xF5A JUMPI DUP2 CALLDATALOAD DUP7 ADD PUSH2 0xF40 DUP9 DUP3 PUSH2 0x1087 JUMP JUMPDEST DUP5 MSTORE PUSH1 0x20 DUP5 ADD SWAP4 POP PUSH1 0x20 DUP4 ADD SWAP3 POP POP PUSH1 0x1 DUP2 ADD SWAP1 POP PUSH2 0xF2A JUMP JUMPDEST POP POP POP POP SWAP3 SWAP2 POP POP JUMP JUMPDEST PUSH1 0x0 DUP3 PUSH1 0x1F DUP4 ADD SLT ISZERO ISZERO PUSH2 0xF77 JUMPI PUSH1 0x0 DUP1 REVERT JUMPDEST DUP2 MLOAD PUSH2 0xF8A PUSH2 0xF85 DUP3 PUSH2 0x2120 JUMP JUMPDEST PUSH2 0x20A3 JUMP JUMPDEST SWAP2 POP DUP2 DUP2 DUP4 MSTORE PUSH1 0x20 DUP5 ADD SWAP4 POP PUSH1 0x20 DUP2 ADD SWAP1 POP DUP4 DUP6 PUSH1 0x60 DUP5 MUL DUP3 ADD GT ISZERO PUSH2 0xFAF JUMPI PUSH1 0x0 DUP1 REVERT JUMPDEST PUSH1 0x0 JUMPDEST DUP4 DUP2 LT ISZERO PUSH2 0xFDF JUMPI DUP2 PUSH2 0xFC5 DUP9 DUP3 PUSH2 0x1133 JUMP JUMPDEST DUP5 MSTORE PUSH1 0x20 DUP5 ADD SWAP4 POP PUSH1 0x60 DUP4 ADD SWAP3 POP POP PUSH1 0x1 DUP2 ADD SWAP1 POP PUSH2 0xFB2 JUMP JUMPDEST POP POP POP POP SWAP3 SWAP2 POP POP JUMP JUMPDEST PUSH1 0x0 DUP3 PUSH1 0x1F DUP4 ADD SLT ISZERO ISZERO PUSH2 0xFFC JUMPI PUSH1 0x0 DUP1 REVERT JUMPDEST DUP2 CALLDATALOAD PUSH2 0x100F PUSH2 0x100A DUP3 PUSH2 0x2148 JUMP JUMPDEST PUSH2 0x20A3 JUMP JUMPDEST SWAP2 POP DUP2 DUP2 DUP4 MSTORE PUSH1 0x20 DUP5 ADD SWAP4 POP PUSH1 0x20 DUP2 ADD SWAP1 POP DUP4 PUSH1 0x0 JUMPDEST DUP4 DUP2 LT ISZERO PUSH2 0x1055 JUMPI DUP2 CALLDATALOAD DUP7 ADD PUSH2 0x103B DUP9 DUP3 PUSH2 0x11F3 JUMP JUMPDEST DUP5 MSTORE PUSH1 0x20 DUP5 ADD SWAP4 POP PUSH1 0x20 DUP4 ADD SWAP3 POP POP PUSH1 0x1 DUP2 ADD SWAP1 POP PUSH2 0x1025 JUMP JUMPDEST POP POP POP POP SWAP3 SWAP2 POP POP JUMP JUMPDEST PUSH1 0x0 PUSH2 0x106B DUP3 MLOAD PUSH2 0x22F4 JUMP JUMPDEST SWAP1 POP SWAP3 SWAP2 POP POP JUMP JUMPDEST PUSH1 0x0 PUSH2 0x107F DUP3 MLOAD PUSH2 0x2300 JUMP JUMPDEST SWAP1 POP SWAP3 SWAP2 POP POP JUMP JUMPDEST PUSH1 0x0 DUP3 PUSH1 0x1F DUP4 ADD SLT ISZERO ISZERO PUSH2 0x109A JUMPI PUSH1 0x0 DUP1 REVERT JUMPDEST DUP2 CALLDATALOAD PUSH2 0x10AD PUSH2 0x10A8 DUP3 PUSH2 0x2170 JUMP JUMPDEST PUSH2 0x20A3 JUMP JUMPDEST SWAP2 POP DUP1 DUP3 MSTORE PUSH1 0x20 DUP4 ADD PUSH1 0x20 DUP4 ADD DUP6 DUP4 DUP4 ADD GT ISZERO PUSH2 0x10C9 JUMPI PUSH1 0x0 DUP1 REVERT JUMPDEST PUSH2 0x10D4 DUP4 DUP3 DUP5 PUSH2 0x2321 JUMP JUMPDEST POP POP POP SWAP3 SWAP2 POP POP JUMP JUMPDEST PUSH1 0x0 DUP3 PUSH1 0x1F DUP4 ADD SLT ISZERO ISZERO PUSH2 0x10F0 JUMPI PUSH1 0x0 DUP1 REVERT JUMPDEST DUP2 CALLDATALOAD PUSH2 0x1103 PUSH2 0x10FE DUP3 PUSH2 0x219C JUMP JUMPDEST PUSH2 0x20A3 JUMP JUMPDEST SWAP2 POP DUP1 DUP3 MSTORE PUSH1 0x20 DUP4 ADD PUSH1 0x20 DUP4 ADD DUP6 DUP4 DUP4 ADD GT ISZERO PUSH2 0x111F JUMPI PUSH1 0x0 DUP1 REVERT JUMPDEST PUSH2 0x112A DUP4 DUP3 DUP5 PUSH2 0x2321 JUMP JUMPDEST POP POP POP SWAP3 SWAP2 POP POP JUMP JUMPDEST PUSH1 0x0 PUSH1 0x60 DUP3 DUP5 SUB SLT ISZERO PUSH2 0x1145 JUMPI PUSH1 0x0 DUP1 REVERT JUMPDEST PUSH2 0x114F PUSH1 0x60 PUSH2 0x20A3 JUMP JUMPDEST SWAP1 POP PUSH1 0x0 PUSH2 0x115F DUP5 DUP3 DUP6 ADD PUSH2 0x14B7 JUMP JUMPDEST PUSH1 0x0 DUP4 ADD MSTORE POP PUSH1 0x20 PUSH2 0x1173 DUP5 DUP3 DUP6 ADD PUSH2 0x1073 JUMP JUMPDEST PUSH1 0x20 DUP4 ADD MSTORE POP PUSH1 0x40 PUSH2 0x1187 DUP5 DUP3 DUP6 ADD PUSH2 0x14A3 JUMP JUMPDEST PUSH1 0x40 DUP4 ADD MSTORE POP SWAP3 SWAP2 POP POP JUMP JUMPDEST PUSH1 0x0 PUSH1 0x60 DUP3 DUP5 SUB SLT ISZERO PUSH2 0x11A5 JUMPI PUSH1 0x0 DUP1 REVERT JUMPDEST PUSH2 0x11AF PUSH1 0x60 PUSH2 0x20A3 JUMP JUMPDEST SWAP1 POP PUSH1 0x0 PUSH2 0x11BF DUP5 DUP3 DUP6 ADD PUSH2 0x14B7 JUMP JUMPDEST PUSH1 0x0 DUP4 ADD MSTORE POP PUSH1 0x20 PUSH2 0x11D3 DUP5 DUP3 DUP6 ADD PUSH2 0x1073 JUMP JUMPDEST PUSH1 0x20 DUP4 ADD MSTORE POP PUSH1 0x40 PUSH2 0x11E7 DUP5 DUP3 DUP6 ADD PUSH2 0x14A3 JUMP JUMPDEST PUSH1 0x40 DUP4 ADD MSTORE POP SWAP3 SWAP2 POP POP JUMP JUMPDEST PUSH1 0x0 PUSH2 0x180 DUP3 DUP5 SUB SLT ISZERO PUSH2 0x1206 JUMPI PUSH1 0x0 DUP1 REVERT JUMPDEST PUSH2 0x1211 PUSH2 0x180 PUSH2 0x20A3 JUMP JUMPDEST SWAP1 POP PUSH1 0x0 PUSH2 0x1221 DUP5 DUP3 DUP6 ADD PUSH2 0xE41 JUMP JUMPDEST PUSH1 0x0 DUP4 ADD MSTORE POP PUSH1 0x20 PUSH2 0x1235 DUP5 DUP3 DUP6 ADD PUSH2 0xE41 JUMP JUMPDEST PUSH1 0x20 DUP4 ADD MSTORE POP PUSH1 0x40 PUSH2 0x1249 DUP5 DUP3 DUP6 ADD PUSH2 0xE41 JUMP JUMPDEST PUSH1 0x40 DUP4 ADD MSTORE POP PUSH1 0x60 PUSH2 0x125D DUP5 DUP3 DUP6 ADD PUSH2 0xE41 JUMP JUMPDEST PUSH1 0x60 DUP4 ADD MSTORE POP PUSH1 0x80 PUSH2 0x1271 DUP5 DUP3 DUP6 ADD PUSH2 0x148F JUMP JUMPDEST PUSH1 0x80 DUP4 ADD MSTORE POP PUSH1 0xA0 PUSH2 0x1285 DUP5 DUP3 DUP6 ADD PUSH2 0x148F JUMP JUMPDEST PUSH1 0xA0 DUP4 ADD MSTORE POP PUSH1 0xC0 PUSH2 0x1299 DUP5 DUP3 DUP6 ADD PUSH2 0x148F JUMP JUMPDEST PUSH1 0xC0 DUP4 ADD MSTORE POP PUSH1 0xE0 PUSH2 0x12AD DUP5 DUP3 DUP6 ADD PUSH2 0x148F JUMP JUMPDEST PUSH1 0xE0 DUP4 ADD MSTORE POP PUSH2 0x100 PUSH2 0x12C2 DUP5 DUP3 DUP6 ADD PUSH2 0x148F JUMP JUMPDEST PUSH2 0x100 DUP4 ADD MSTORE POP PUSH2 0x120 PUSH2 0x12D8 DUP5 DUP3 DUP6 ADD PUSH2 0x148F JUMP JUMPDEST PUSH2 0x120 DUP4 ADD MSTORE POP PUSH2 0x140 DUP3 ADD CALLDATALOAD PUSH8 0xFFFFFFFFFFFFFFFF DUP2 GT ISZERO PUSH2 0x12FA JUMPI PUSH1 0x0 DUP1 REVERT JUMPDEST PUSH2 0x1306 DUP5 DUP3 DUP6 ADD PUSH2 0x1087 JUMP JUMPDEST PUSH2 0x140 DUP4 ADD MSTORE POP PUSH2 0x160 DUP3 ADD CALLDATALOAD PUSH8 0xFFFFFFFFFFFFFFFF DUP2 GT ISZERO PUSH2 0x1328 JUMPI PUSH1 0x0 DUP1 REVERT JUMPDEST PUSH2 0x1334 DUP5 DUP3 DUP6 ADD PUSH2 0x1087 JUMP JUMPDEST PUSH2 0x160 DUP4 ADD MSTORE POP SWAP3 SWAP2 POP POP JUMP JUMPDEST PUSH1 0x0 PUSH2 0x180 DUP3 DUP5 SUB SLT ISZERO PUSH2 0x1354 JUMPI PUSH1 0x0 DUP1 REVERT JUMPDEST PUSH2 0x135F PUSH2 0x180 PUSH2 0x20A3 JUMP JUMPDEST SWAP1 POP PUSH1 0x0 PUSH2 0x136F DUP5 DUP3 DUP6 ADD PUSH2 0xE41 JUMP JUMPDEST PUSH1 0x0 DUP4 ADD MSTORE POP PUSH1 0x20 PUSH2 0x1383 DUP5 DUP3 DUP6 ADD PUSH2 0xE41 JUMP JUMPDEST PUSH1 0x20 DUP4 ADD MSTORE POP PUSH1 0x40 PUSH2 0x1397 DUP5 DUP3 DUP6 ADD PUSH2 0xE41 JUMP JUMPDEST PUSH1 0x40 DUP4 ADD MSTORE POP PUSH1 0x60 PUSH2 0x13AB DUP5 DUP3 DUP6 ADD PUSH2 0xE41 JUMP JUMPDEST PUSH1 0x60 DUP4 ADD MSTORE POP PUSH1 0x80 PUSH2 0x13BF DUP5 DUP3 DUP6 ADD PUSH2 0x148F JUMP JUMPDEST PUSH1 0x80 DUP4 ADD MSTORE POP PUSH1 0xA0 PUSH2 0x13D3 DUP5 DUP3 DUP6 ADD PUSH2 0x148F JUMP JUMPDEST PUSH1 0xA0 DUP4 ADD MSTORE POP PUSH1 0xC0 PUSH2 0x13E7 DUP5 DUP3 DUP6 ADD PUSH2 0x148F JUMP JUMPDEST PUSH1 0xC0 DUP4 ADD MSTORE POP PUSH1 0xE0 PUSH2 0x13FB DUP5 DUP3 DUP6 ADD PUSH2 0x148F JUMP JUMPDEST PUSH1 0xE0 DUP4 ADD MSTORE POP PUSH2 0x100 PUSH2 0x1410 DUP5 DUP3 DUP6 ADD PUSH2 0x148F JUMP JUMPDEST PUSH2 0x100 DUP4 ADD MSTORE POP PUSH2 0x120 PUSH2 0x1426 DUP5 DUP3 DUP6 ADD PUSH2 0x148F JUMP JUMPDEST PUSH2 0x120 DUP4 ADD MSTORE POP PUSH2 0x140 DUP3 ADD CALLDATALOAD PUSH8 0xFFFFFFFFFFFFFFFF DUP2 GT ISZERO PUSH2 0x1448 JUMPI PUSH1 0x0 DUP1 REVERT JUMPDEST PUSH2 0x1454 DUP5 DUP3 DUP6 ADD PUSH2 0x1087 JUMP JUMPDEST PUSH2 0x140 DUP4 ADD MSTORE POP PUSH2 0x160 DUP3 ADD CALLDATALOAD PUSH8 0xFFFFFFFFFFFFFFFF DUP2 GT ISZERO PUSH2 0x1476 JUMPI PUSH1 0x0 DUP1 REVERT JUMPDEST PUSH2 0x1482 DUP5 DUP3 DUP6 ADD PUSH2 0x1087 JUMP JUMPDEST PUSH2 0x160 DUP4 ADD MSTORE POP SWAP3 SWAP2 POP POP JUMP JUMPDEST PUSH1 0x0 PUSH2 0x149B DUP3 CALLDATALOAD PUSH2 0x230A JUMP JUMPDEST SWAP1 POP SWAP3 SWAP2 POP POP JUMP JUMPDEST PUSH1 0x0 PUSH2 0x14AF DUP3 MLOAD PUSH2 0x230A JUMP JUMPDEST SWAP1 POP SWAP3 SWAP2 POP POP JUMP JUMPDEST PUSH1 0x0 PUSH2 0x14C3 DUP3 MLOAD PUSH2 0x2314 JUMP JUMPDEST SWAP1 POP SWAP3 SWAP2 POP POP JUMP JUMPDEST PUSH1 0x0 PUSH1 0x20 DUP3 DUP5 SUB SLT ISZERO PUSH2 0x14DD JUMPI PUSH1 0x0 DUP1 REVERT JUMPDEST PUSH1 0x0 PUSH2 0x14EB DUP5 DUP3 DUP6 ADD PUSH2 0xE55 JUMP JUMPDEST SWAP2 POP POP SWAP3 SWAP2 POP POP JUMP JUMPDEST PUSH1 0x0 DUP1 PUSH1 0x40 DUP4 DUP6 SUB SLT ISZERO PUSH2 0x1507 JUMPI PUSH1 0x0 DUP1 REVERT JUMPDEST PUSH1 0x0 PUSH2 0x1515 DUP6 DUP3 DUP7 ADD PUSH2 0xE41 JUMP JUMPDEST SWAP3 POP POP PUSH1 0x20 DUP4 ADD CALLDATALOAD PUSH8 0xFFFFFFFFFFFFFFFF DUP2 GT ISZERO PUSH2 0x1532 JUMPI PUSH1 0x0 DUP1 REVERT JUMPDEST PUSH2 0x153E DUP6 DUP3 DUP7 ADD PUSH2 0xEEE JUMP JUMPDEST SWAP2 POP POP SWAP3 POP SWAP3 SWAP1 POP JUMP JUMPDEST PUSH1 0x0 DUP1 PUSH1 0x40 DUP4 DUP6 SUB SLT ISZERO PUSH2 0x155B JUMPI PUSH1 0x0 DUP1 REVERT JUMPDEST PUSH1 0x0 PUSH2 0x1569 DUP6 DUP3 DUP7 ADD PUSH2 0xE41 JUMP JUMPDEST SWAP3 POP POP PUSH1 0x20 DUP4 ADD CALLDATALOAD PUSH8 0xFFFFFFFFFFFFFFFF DUP2 GT ISZERO PUSH2 0x1586 JUMPI PUSH1 0x0 DUP1 REVERT JUMPDEST PUSH2 0x1592 DUP6 DUP3 DUP7 ADD PUSH2 0x10DD JUMP JUMPDEST SWAP2 POP POP SWAP3 POP SWAP3 SWAP1 POP JUMP JUMPDEST PUSH1 0x0 DUP1 PUSH1 0x40 DUP4 DUP6 SUB SLT ISZERO PUSH2 0x15AF JUMPI PUSH1 0x0 DUP1 REVERT JUMPDEST PUSH1 0x0 PUSH2 0x15BD DUP6 DUP3 DUP7 ADD PUSH2 0xE41 JUMP JUMPDEST SWAP3 POP POP PUSH1 0x20 PUSH2 0x15CE DUP6 DUP3 DUP7 ADD PUSH2 0x148F JUMP JUMPDEST SWAP2 POP POP SWAP3 POP SWAP3 SWAP1 POP JUMP JUMPDEST PUSH1 0x0 PUSH1 0x20 DUP3 DUP5 SUB SLT ISZERO PUSH2 0x15EA JUMPI PUSH1 0x0 DUP1 REVERT JUMPDEST PUSH1 0x0 DUP3 ADD MLOAD PUSH8 0xFFFFFFFFFFFFFFFF DUP2 GT ISZERO PUSH2 0x1604 JUMPI PUSH1 0x0 DUP1 REVERT JUMPDEST PUSH2 0x1610 DUP5 DUP3 DUP6 ADD PUSH2 0xF64 JUMP JUMPDEST SWAP2 POP POP SWAP3 SWAP2 POP POP JUMP JUMPDEST PUSH1 0x0 DUP1 PUSH1 0x40 DUP4 DUP6 SUB SLT ISZERO PUSH2 0x162C JUMPI PUSH1 0x0 DUP1 REVERT JUMPDEST PUSH1 0x0 DUP4 ADD CALLDATALOAD PUSH8 0xFFFFFFFFFFFFFFFF DUP2 GT ISZERO PUSH2 0x1646 JUMPI PUSH1 0x0 DUP1 REVERT JUMPDEST PUSH2 0x1652 DUP6 DUP3 DUP7 ADD PUSH2 0xFE9 JUMP JUMPDEST SWAP3 POP POP PUSH1 0x20 DUP4 ADD CALLDATALOAD PUSH8 0xFFFFFFFFFFFFFFFF DUP2 GT ISZERO PUSH2 0x166F JUMPI PUSH1 0x0 DUP1 REVERT JUMPDEST PUSH2 0x167B DUP6 DUP3 DUP7 ADD PUSH2 0xE69 JUMP JUMPDEST SWAP2 POP POP SWAP3 POP SWAP3 SWAP1 POP JUMP JUMPDEST PUSH1 0x0 PUSH1 0x20 DUP3 DUP5 SUB SLT ISZERO PUSH2 0x1697 JUMPI PUSH1 0x0 DUP1 REVERT JUMPDEST PUSH1 0x0 PUSH2 0x16A5 DUP5 DUP3 DUP6 ADD PUSH2 0x105F JUMP JUMPDEST SWAP2 POP POP SWAP3 SWAP2 POP POP JUMP JUMPDEST PUSH1 0x0 PUSH1 0x60 DUP3 DUP5 SUB SLT ISZERO PUSH2 0x16C0 JUMPI PUSH1 0x0 DUP1 REVERT JUMPDEST PUSH1 0x0 PUSH2 0x16CE DUP5 DUP3 DUP6 ADD PUSH2 0x1193 JUMP JUMPDEST SWAP2 POP POP SWAP3 SWAP2 POP POP JUMP JUMPDEST PUSH1 0x0 DUP1 PUSH1 0x40 DUP4 DUP6 SUB SLT ISZERO PUSH2 0x16EA JUMPI PUSH1 0x0 DUP1 REVERT JUMPDEST PUSH1 0x0 DUP4 ADD CALLDATALOAD PUSH8 0xFFFFFFFFFFFFFFFF DUP2 GT ISZERO PUSH2 0x1704 JUMPI PUSH1 0x0 DUP1 REVERT JUMPDEST PUSH2 0x1710 DUP6 DUP3 DUP7 ADD PUSH2 0x1341 JUMP JUMPDEST SWAP3 POP POP PUSH1 0x20 PUSH2 0x1721 DUP6 DUP3 DUP7 ADD PUSH2 0xE41 JUMP JUMPDEST SWAP2 POP POP SWAP3 POP SWAP3 SWAP1 POP JUMP JUMPDEST PUSH1 0x0 PUSH1 0x20 DUP3 DUP5 SUB SLT ISZERO PUSH2 0x173D JUMPI PUSH1 0x0 DUP1 REVERT JUMPDEST PUSH1 0x0 PUSH2 0x174B DUP5 DUP3 DUP6 ADD PUSH2 0x14A3 JUMP JUMPDEST SWAP2 POP POP SWAP3 SWAP2 POP POP JUMP JUMPDEST PUSH2 0x175D DUP2 PUSH2 0x2267 JUMP JUMPDEST DUP3 MSTORE POP POP JUMP JUMPDEST PUSH1 0x0 PUSH2 0x176E DUP3 PUSH2 0x21FC JUMP JUMPDEST DUP1 DUP5 MSTORE PUSH1 0x20 DUP5 ADD SWAP4 POP PUSH2 0x1780 DUP4 PUSH2 0x21C8 JUMP JUMPDEST PUSH1 0x0 JUMPDEST DUP3 DUP2 LT ISZERO PUSH2 0x17B2 JUMPI PUSH2 0x1796 DUP7 DUP4 MLOAD PUSH2 0x1AC7 JUMP JUMPDEST PUSH2 0x179F DUP3 PUSH2 0x2233 JUMP JUMPDEST SWAP2 POP PUSH1 0x60 DUP7 ADD SWAP6 POP PUSH1 0x1 DUP2 ADD SWAP1 POP PUSH2 0x1783 JUMP JUMPDEST POP DUP5 SWAP3 POP POP POP SWAP3 SWAP2 POP POP JUMP JUMPDEST PUSH1 0x0 PUSH2 0x17C9 DUP3 PUSH2 0x2207 JUMP JUMPDEST DUP1 DUP5 MSTORE PUSH1 0x20 DUP5 ADD SWAP4 POP DUP4 PUSH1 0x20 DUP3 MUL DUP6 ADD PUSH2 0x17E2 DUP6 PUSH2 0x21D5 JUMP JUMPDEST PUSH1 0x0 JUMPDEST DUP5 DUP2 LT ISZERO PUSH2 0x181B JUMPI DUP4 DUP4 SUB DUP9 MSTORE PUSH2 0x17FD DUP4 DUP4 MLOAD PUSH2 0x1C14 JUMP JUMPDEST SWAP3 POP PUSH2 0x1808 DUP3 PUSH2 0x2240 JUMP JUMPDEST SWAP2 POP PUSH1 0x20 DUP9 ADD SWAP8 POP PUSH1 0x1 DUP2 ADD SWAP1 POP PUSH2 0x17E5 JUMP JUMPDEST POP DUP2 SWAP7 POP DUP7 SWAP5 POP POP POP POP POP SWAP3 SWAP2 POP POP JUMP JUMPDEST PUSH1 0x0 PUSH2 0x1837 DUP3 PUSH2 0x2212 JUMP JUMPDEST DUP1 DUP5 MSTORE PUSH1 0x20 DUP5 ADD SWAP4 POP PUSH2 0x1849 DUP4 PUSH2 0x21E2 JUMP JUMPDEST PUSH1 0x0 JUMPDEST DUP3 DUP2 LT ISZERO PUSH2 0x187C JUMPI PUSH2 0x185F DUP7 DUP4 MLOAD PUSH2 0x1DC1 JUMP JUMPDEST PUSH2 0x1868 DUP3 PUSH2 0x224D JUMP JUMPDEST SWAP2 POP PUSH2 0x100 DUP7 ADD SWAP6 POP PUSH1 0x1 DUP2 ADD SWAP1 POP PUSH2 0x184C JUMP JUMPDEST POP DUP5 SWAP3 POP POP POP SWAP3 SWAP2 POP POP JUMP JUMPDEST PUSH1 0x0 PUSH2 0x1893 DUP3 PUSH2 0x221D JUMP JUMPDEST DUP1 DUP5 MSTORE PUSH1 0x20 DUP5 ADD SWAP4 POP PUSH2 0x18A5 DUP4 PUSH2 0x21EF JUMP JUMPDEST PUSH1 0x0 JUMPDEST DUP3 DUP2 LT ISZERO PUSH2 0x18D7 JUMPI PUSH2 0x18BB DUP7 DUP4 MLOAD PUSH2 0x1E63 JUMP JUMPDEST PUSH2 0x18C4 DUP3 PUSH2 0x225A JUMP JUMPDEST SWAP2 POP PUSH1 0x20 DUP7 ADD SWAP6 POP PUSH1 0x1 DUP2 ADD SWAP1 POP PUSH2 0x18A8 JUMP JUMPDEST POP DUP5 SWAP3 POP POP POP SWAP3 SWAP2 POP POP JUMP JUMPDEST PUSH2 0x18EC DUP2 PUSH2 0x2287 JUMP JUMPDEST DUP3 MSTORE POP POP JUMP JUMPDEST PUSH2 0x18FB DUP2 PUSH2 0x2291 JUMP JUMPDEST DUP3 MSTORE POP POP JUMP JUMPDEST PUSH1 0x0 PUSH2 0x190C DUP3 PUSH2 0x2228 JUMP JUMPDEST DUP1 DUP5 MSTORE PUSH2 0x1920 DUP2 PUSH1 0x20 DUP7 ADD PUSH1 0x20 DUP7 ADD PUSH2 0x2330 JUMP JUMPDEST PUSH2 0x1929 DUP2 PUSH2 0x2363 JUMP JUMPDEST PUSH1 0x20 DUP6 ADD ADD SWAP2 POP POP SWAP3 SWAP2 POP POP JUMP JUMPDEST PUSH1 0x0 PUSH1 0x26 DUP3 MSTORE PUSH32 0x475245415445525F4F525F455155414C5F544F5F33325F4C454E4754485F5245 PUSH1 0x20 DUP4 ADD MSTORE PUSH32 0x5155495245440000000000000000000000000000000000000000000000000000 PUSH1 0x40 DUP4 ADD MSTORE PUSH1 0x60 DUP3 ADD SWAP1 POP SWAP2 SWAP1 POP JUMP JUMPDEST PUSH1 0x0 PUSH1 0x17 DUP3 MSTORE PUSH32 0x554E535550504F525445445F41535345545F50524F5859000000000000000000 PUSH1 0x20 DUP4 ADD MSTORE PUSH1 0x40 DUP3 ADD SWAP1 POP SWAP2 SWAP1 POP JUMP JUMPDEST PUSH1 0x0 PUSH1 0x26 DUP3 MSTORE PUSH32 0x475245415445525F4F525F455155414C5F544F5F32305F4C454E4754485F5245 PUSH1 0x20 DUP4 ADD MSTORE PUSH32 0x5155495245440000000000000000000000000000000000000000000000000000 PUSH1 0x40 DUP4 ADD MSTORE PUSH1 0x60 DUP3 ADD SWAP1 POP SWAP2 SWAP1 POP JUMP JUMPDEST PUSH1 0x0 PUSH1 0x25 DUP3 MSTORE PUSH32 0x475245415445525F4F525F455155414C5F544F5F345F4C454E4754485F524551 PUSH1 0x20 DUP4 ADD MSTORE PUSH32 0x5549524544000000000000000000000000000000000000000000000000000000 PUSH1 0x40 DUP4 ADD MSTORE PUSH1 0x60 DUP3 ADD SWAP1 POP SWAP2 SWAP1 POP JUMP JUMPDEST PUSH1 0x60 DUP3 ADD PUSH1 0x0 DUP3 ADD MLOAD PUSH2 0x1A9B PUSH1 0x0 DUP6 ADD DUP3 PUSH2 0x1E72 JUMP JUMPDEST POP PUSH1 0x20 DUP3 ADD MLOAD PUSH2 0x1AAE PUSH1 0x20 DUP6 ADD DUP3 PUSH2 0x18E3 JUMP JUMPDEST POP PUSH1 0x40 DUP3 ADD MLOAD PUSH2 0x1AC1 PUSH1 0x40 DUP6 ADD DUP3 PUSH2 0x1E63 JUMP JUMPDEST POP POP POP POP JUMP JUMPDEST PUSH1 0x60 DUP3 ADD PUSH1 0x0 DUP3 ADD MLOAD PUSH2 0x1ADD PUSH1 0x0 DUP6 ADD DUP3 PUSH2 0x1E72 JUMP JUMPDEST POP PUSH1 0x20 DUP3 ADD MLOAD PUSH2 0x1AF0 PUSH1 0x20 DUP6 ADD DUP3 PUSH2 0x18E3 JUMP JUMPDEST POP PUSH1 0x40 DUP3 ADD MLOAD PUSH2 0x1B03 PUSH1 0x40 DUP6 ADD DUP3 PUSH2 0x1E63 JUMP JUMPDEST POP POP POP POP JUMP JUMPDEST PUSH1 0x0 PUSH2 0x180 DUP4 ADD PUSH1 0x0 DUP4 ADD MLOAD PUSH2 0x1B22 PUSH1 0x0 DUP7 ADD DUP3 PUSH2 0x1754 JUMP JUMPDEST POP PUSH1 0x20 DUP4 ADD MLOAD PUSH2 0x1B35 PUSH1 0x20 DUP7 ADD DUP3 PUSH2 0x1754 JUMP JUMPDEST POP PUSH1 0x40 DUP4 ADD MLOAD PUSH2 0x1B48 PUSH1 0x40 DUP7 ADD DUP3 PUSH2 0x1754 JUMP JUMPDEST POP PUSH1 0x60 DUP4 ADD MLOAD PUSH2 0x1B5B PUSH1 0x60 DUP7 ADD DUP3 PUSH2 0x1754 JUMP JUMPDEST POP PUSH1 0x80 DUP4 ADD MLOAD PUSH2 0x1B6E PUSH1 0x80 DUP7 ADD DUP3 PUSH2 0x1E63 JUMP JUMPDEST POP PUSH1 0xA0 DUP4 ADD MLOAD PUSH2 0x1B81 PUSH1 0xA0 DUP7 ADD DUP3 PUSH2 0x1E63 JUMP JUMPDEST POP PUSH1 0xC0 DUP4 ADD MLOAD PUSH2 0x1B94 PUSH1 0xC0 DUP7 ADD DUP3 PUSH2 0x1E63 JUMP JUMPDEST POP PUSH1 0xE0 DUP4 ADD MLOAD PUSH2 0x1BA7 PUSH1 0xE0 DUP7 ADD DUP3 PUSH2 0x1E63 JUMP JUMPDEST POP PUSH2 0x100 DUP4 ADD MLOAD PUSH2 0x1BBC PUSH2 0x100 DUP7 ADD DUP3 PUSH2 0x1E63 JUMP JUMPDEST POP PUSH2 0x120 DUP4 ADD MLOAD PUSH2 0x1BD1 PUSH2 0x120 DUP7 ADD DUP3 PUSH2 0x1E63 JUMP JUMPDEST POP PUSH2 0x140 DUP4 ADD MLOAD DUP5 DUP3 SUB PUSH2 0x140 DUP7 ADD MSTORE PUSH2 0x1BEB DUP3 DUP3 PUSH2 0x1901 JUMP JUMPDEST SWAP2 POP POP PUSH2 0x160 DUP4 ADD MLOAD DUP5 DUP3 SUB PUSH2 0x160 DUP7 ADD MSTORE PUSH2 0x1C07 DUP3 DUP3 PUSH2 0x1901 JUMP JUMPDEST SWAP2 POP POP DUP1 SWAP2 POP POP SWAP3 SWAP2 POP POP JUMP JUMPDEST PUSH1 0x0 PUSH2 0x180 DUP4 ADD PUSH1 0x0 DUP4 ADD MLOAD PUSH2 0x1C2D PUSH1 0x0 DUP7 ADD DUP3 PUSH2 0x1754 JUMP JUMPDEST POP PUSH1 0x20 DUP4 ADD MLOAD PUSH2 0x1C40 PUSH1 0x20 DUP7 ADD DUP3 PUSH2 0x1754 JUMP JUMPDEST POP PUSH1 0x40 DUP4 ADD MLOAD PUSH2 0x1C53 PUSH1 0x40 DUP7 ADD DUP3 PUSH2 0x1754 JUMP JUMPDEST POP PUSH1 0x60 DUP4 ADD MLOAD PUSH2 0x1C66 PUSH1 0x60 DUP7 ADD DUP3 PUSH2 0x1754 JUMP JUMPDEST POP PUSH1 0x80 DUP4 ADD MLOAD PUSH2 0x1C79 PUSH1 0x80 DUP7 ADD DUP3 PUSH2 0x1E63 JUMP JUMPDEST POP PUSH1 0xA0 DUP4 ADD MLOAD PUSH2 0x1C8C PUSH1 0xA0 DUP7 ADD DUP3 PUSH2 0x1E63 JUMP JUMPDEST POP PUSH1 0xC0 DUP4 ADD MLOAD PUSH2 0x1C9F PUSH1 0xC0 DUP7 ADD DUP3 PUSH2 0x1E63 JUMP JUMPDEST POP PUSH1 0xE0 DUP4 ADD MLOAD PUSH2 0x1CB2 PUSH1 0xE0 DUP7 ADD DUP3 PUSH2 0x1E63 JUMP JUMPDEST POP PUSH2 0x100 DUP4 ADD MLOAD PUSH2 0x1CC7 PUSH2 0x100 DUP7 ADD DUP3 PUSH2 0x1E63 JUMP JUMPDEST POP PUSH2 0x120 DUP4 ADD MLOAD PUSH2 0x1CDC PUSH2 0x120 DUP7 ADD DUP3 PUSH2 0x1E63 JUMP JUMPDEST POP PUSH2 0x140 DUP4 ADD MLOAD DUP5 DUP3 SUB PUSH2 0x140 DUP7 ADD MSTORE PUSH2 0x1CF6 DUP3 DUP3 PUSH2 0x1901 JUMP JUMPDEST SWAP2 POP POP PUSH2 0x160 DUP4 ADD MLOAD DUP5 DUP3 SUB PUSH2 0x160 DUP7 ADD MSTORE PUSH2 0x1D12 DUP3 DUP3 PUSH2 0x1901 JUMP JUMPDEST SWAP2 POP POP DUP1 SWAP2 POP POP SWAP3 SWAP2 POP POP JUMP JUMPDEST PUSH2 0x100 DUP3 ADD PUSH1 0x0 DUP3 ADD MLOAD PUSH2 0x1D36 PUSH1 0x0 DUP6 ADD DUP3 PUSH2 0x1E63 JUMP JUMPDEST POP PUSH1 0x20 DUP3 ADD MLOAD PUSH2 0x1D49 PUSH1 0x20 DUP6 ADD DUP3 PUSH2 0x1E63 JUMP JUMPDEST POP PUSH1 0x40 DUP3 ADD MLOAD PUSH2 0x1D5C PUSH1 0x40 DUP6 ADD DUP3 PUSH2 0x1E63 JUMP JUMPDEST POP PUSH1 0x60 DUP3 ADD MLOAD PUSH2 0x1D6F PUSH1 0x60 DUP6 ADD DUP3 PUSH2 0x1E63 JUMP JUMPDEST POP PUSH1 0x80 DUP3 ADD MLOAD PUSH2 0x1D82 PUSH1 0x80 DUP6 ADD DUP3 PUSH2 0x1E63 JUMP JUMPDEST POP PUSH1 0xA0 DUP3 ADD MLOAD PUSH2 0x1D95 PUSH1 0xA0 DUP6 ADD DUP3 PUSH2 0x1E63 JUMP JUMPDEST POP PUSH1 0xC0 DUP3 ADD MLOAD PUSH2 0x1DA8 PUSH1 0xC0 DUP6 ADD DUP3 PUSH2 0x1E63 JUMP JUMPDEST POP PUSH1 0xE0 DUP3 ADD MLOAD PUSH2 0x1DBB PUSH1 0xE0 DUP6 ADD DUP3 PUSH2 0x1E63 JUMP JUMPDEST POP POP POP POP JUMP JUMPDEST PUSH2 0x100 DUP3 ADD PUSH1 0x0 DUP3 ADD MLOAD PUSH2 0x1DD8 PUSH1 0x0 DUP6 ADD DUP3 PUSH2 0x1E63 JUMP JUMPDEST POP PUSH1 0x20 DUP3 ADD MLOAD PUSH2 0x1DEB PUSH1 0x20 DUP6 ADD DUP3 PUSH2 0x1E63 JUMP JUMPDEST POP PUSH1 0x40 DUP3 ADD MLOAD PUSH2 0x1DFE PUSH1 0x40 DUP6 ADD DUP3 PUSH2 0x1E63 JUMP JUMPDEST POP PUSH1 0x60 DUP3 ADD MLOAD PUSH2 0x1E11 PUSH1 0x60 DUP6 ADD DUP3 PUSH2 0x1E63 JUMP JUMPDEST POP PUSH1 0x80 DUP3 ADD MLOAD PUSH2 0x1E24 PUSH1 0x80 DUP6 ADD DUP3 PUSH2 0x1E63 JUMP JUMPDEST POP PUSH1 0xA0 DUP3 ADD MLOAD PUSH2 0x1E37 PUSH1 0xA0 DUP6 ADD DUP3 PUSH2 0x1E63 JUMP JUMPDEST POP PUSH1 0xC0 DUP3 ADD MLOAD PUSH2 0x1E4A PUSH1 0xC0 DUP6 ADD DUP3 PUSH2 0x1E63 JUMP JUMPDEST POP PUSH1 0xE0 DUP3 ADD MLOAD PUSH2 0x1E5D PUSH1 0xE0 DUP6 ADD DUP3 PUSH2 0x1E63 JUMP JUMPDEST POP POP POP POP JUMP JUMPDEST PUSH2 0x1E6C DUP2 PUSH2 0x22BD JUMP JUMPDEST DUP3 MSTORE POP POP JUMP JUMPDEST PUSH2 0x1E7B DUP2 PUSH2 0x22C7 JUMP JUMPDEST DUP3 MSTORE POP POP JUMP JUMPDEST PUSH1 0x0 PUSH1 0x20 DUP3 ADD SWAP1 POP PUSH2 0x1E96 PUSH1 0x0 DUP4 ADD DUP5 PUSH2 0x1754 JUMP JUMPDEST SWAP3 SWAP2 POP POP JUMP JUMPDEST PUSH1 0x0 PUSH1 0x40 DUP3 ADD SWAP1 POP PUSH2 0x1EB1 PUSH1 0x0 DUP4 ADD DUP6 PUSH2 0x1754 JUMP JUMPDEST PUSH2 0x1EBE PUSH1 0x20 DUP4 ADD DUP5 PUSH2 0x1754 JUMP JUMPDEST SWAP4 SWAP3 POP POP POP JUMP JUMPDEST PUSH1 0x0 PUSH1 0x40 DUP3 ADD SWAP1 POP DUP2 DUP2 SUB PUSH1 0x0 DUP4 ADD MSTORE PUSH2 0x1EDF DUP2 DUP6 PUSH2 0x1763 JUMP JUMPDEST SWAP1 POP DUP2 DUP2 SUB PUSH1 0x20 DUP4 ADD MSTORE PUSH2 0x1EF3 DUP2 DUP5 PUSH2 0x182C JUMP JUMPDEST SWAP1 POP SWAP4 SWAP3 POP POP POP JUMP JUMPDEST PUSH1 0x0 PUSH1 0x20 DUP3 ADD SWAP1 POP DUP2 DUP2 SUB PUSH1 0x0 DUP4 ADD MSTORE PUSH2 0x1F16 DUP2 DUP5 PUSH2 0x17BE JUMP JUMPDEST SWAP1 POP SWAP3 SWAP2 POP POP JUMP JUMPDEST PUSH1 0x0 PUSH1 0x20 DUP3 ADD SWAP1 POP DUP2 DUP2 SUB PUSH1 0x0 DUP4 ADD MSTORE PUSH2 0x1F38 DUP2 DUP5 PUSH2 0x182C JUMP JUMPDEST SWAP1 POP SWAP3 SWAP2 POP POP JUMP JUMPDEST PUSH1 0x0 PUSH1 0x40 DUP3 ADD SWAP1 POP DUP2 DUP2 SUB PUSH1 0x0 DUP4 ADD MSTORE PUSH2 0x1F5A DUP2 DUP6 PUSH2 0x1888 JUMP JUMPDEST SWAP1 POP DUP2 DUP2 SUB PUSH1 0x20 DUP4 ADD MSTORE PUSH2 0x1F6E DUP2 DUP5 PUSH2 0x1888 JUMP JUMPDEST SWAP1 POP SWAP4 SWAP3 POP POP POP JUMP JUMPDEST PUSH1 0x0 PUSH1 0x20 DUP3 ADD SWAP1 POP PUSH2 0x1F8C PUSH1 0x0 DUP4 ADD DUP5 PUSH2 0x18F2 JUMP JUMPDEST SWAP3 SWAP2 POP POP JUMP JUMPDEST PUSH1 0x0 PUSH1 0x20 DUP3 ADD SWAP1 POP DUP2 DUP2 SUB PUSH1 0x0 DUP4 ADD MSTORE PUSH2 0x1FAB DUP2 PUSH2 0x1937 JUMP JUMPDEST SWAP1 POP SWAP2 SWAP1 POP JUMP JUMPDEST PUSH1 0x0 PUSH1 0x20 DUP3 ADD SWAP1 POP DUP2 DUP2 SUB PUSH1 0x0 DUP4 ADD MSTORE PUSH2 0x1FCB DUP2 PUSH2 0x1994 JUMP JUMPDEST SWAP1 POP SWAP2 SWAP1 POP JUMP JUMPDEST PUSH1 0x0 PUSH1 0x20 DUP3 ADD SWAP1 POP DUP2 DUP2 SUB PUSH1 0x0 DUP4 ADD MSTORE PUSH2 0x1FEB DUP2 PUSH2 0x19CB JUMP JUMPDEST SWAP1 POP SWAP2 SWAP1 POP JUMP JUMPDEST PUSH1 0x0 PUSH1 0x20 DUP3 ADD SWAP1 POP DUP2 DUP2 SUB PUSH1 0x0 DUP4 ADD MSTORE PUSH2 0x200B DUP2 PUSH2 0x1A28 JUMP JUMPDEST SWAP1 POP SWAP2 SWAP1 POP JUMP JUMPDEST PUSH1 0x0 PUSH2 0x160 DUP3 ADD SWAP1 POP PUSH2 0x2028 PUSH1 0x0 DUP4 ADD DUP6 PUSH2 0x1A85 JUMP JUMPDEST PUSH2 0x2035 PUSH1 0x60 DUP4 ADD DUP5 PUSH2 0x1D1F JUMP JUMPDEST SWAP4 SWAP3 POP POP POP JUMP JUMPDEST PUSH1 0x0 PUSH1 0x20 DUP3 ADD SWAP1 POP DUP2 DUP2 SUB PUSH1 0x0 DUP4 ADD MSTORE PUSH2 0x2056 DUP2 DUP5 PUSH2 0x1B09 JUMP JUMPDEST SWAP1 POP SWAP3 SWAP2 POP POP JUMP JUMPDEST PUSH1 0x0 PUSH2 0x100 DUP3 ADD SWAP1 POP PUSH2 0x2074 PUSH1 0x0 DUP4 ADD DUP5 PUSH2 0x1D1F JUMP JUMPDEST SWAP3 SWAP2 POP POP JUMP JUMPDEST PUSH1 0x0 PUSH1 0x40 DUP3 ADD SWAP1 POP PUSH2 0x208F PUSH1 0x0 DUP4 ADD DUP6 PUSH2 0x1E63 JUMP JUMPDEST PUSH2 0x209C PUSH1 0x20 DUP4 ADD DUP5 PUSH2 0x1E63 JUMP JUMPDEST SWAP4 SWAP3 POP POP POP JUMP JUMPDEST PUSH1 0x0 PUSH1 0x40 MLOAD SWAP1 POP DUP2 DUP2 ADD DUP2 DUP2 LT PUSH8 0xFFFFFFFFFFFFFFFF DUP3 GT OR ISZERO PUSH2 0x20C6 JUMPI PUSH1 0x0 DUP1 REVERT JUMPDEST DUP1 PUSH1 0x40 MSTORE POP SWAP2 SWAP1 POP JUMP JUMPDEST PUSH1 0x0 PUSH8 0xFFFFFFFFFFFFFFFF DUP3 GT ISZERO PUSH2 0x20E7 JUMPI PUSH1 0x0 DUP1 REVERT JUMPDEST PUSH1 0x20 DUP3 MUL SWAP1 POP PUSH1 0x20 DUP2 ADD SWAP1 POP SWAP2 SWAP1 POP JUMP JUMPDEST PUSH1 0x0 PUSH8 0xFFFFFFFFFFFFFFFF DUP3 GT ISZERO PUSH2 0x210F JUMPI PUSH1 0x0 DUP1 REVERT JUMPDEST PUSH1 0x20 DUP3 MUL SWAP1 POP PUSH1 0x20 DUP2 ADD SWAP1 POP SWAP2 SWAP1 POP JUMP JUMPDEST PUSH1 0x0 PUSH8 0xFFFFFFFFFFFFFFFF DUP3 GT ISZERO PUSH2 0x2137 JUMPI PUSH1 0x0 DUP1 REVERT JUMPDEST PUSH1 0x20 DUP3 MUL SWAP1 POP PUSH1 0x20 DUP2 ADD SWAP1 POP SWAP2 SWAP1 POP JUMP JUMPDEST PUSH1 0x0 PUSH8 0xFFFFFFFFFFFFFFFF DUP3 GT ISZERO PUSH2 0x215F JUMPI PUSH1 0x0 DUP1 REVERT JUMPDEST PUSH1 0x20 DUP3 MUL SWAP1 POP PUSH1 0x20 DUP2 ADD SWAP1 POP SWAP2 SWAP1 POP JUMP JUMPDEST PUSH1 0x0 PUSH8 0xFFFFFFFFFFFFFFFF DUP3 GT ISZERO PUSH2 0x2187 JUMPI PUSH1 0x0 DUP1 REVERT JUMPDEST PUSH1 0x1F NOT PUSH1 0x1F DUP4 ADD AND SWAP1 POP PUSH1 0x20 DUP2 ADD SWAP1 POP SWAP2 SWAP1 POP JUMP JUMPDEST PUSH1 0x0 PUSH8 0xFFFFFFFFFFFFFFFF DUP3 GT ISZERO PUSH2 0x21B3 JUMPI PUSH1 0x0 DUP1 REVERT JUMPDEST PUSH1 0x1F NOT PUSH1 0x1F DUP4 ADD AND SWAP1 POP PUSH1 0x20 DUP2 ADD SWAP1 POP SWAP2 SWAP1 POP JUMP JUMPDEST PUSH1 0x0 PUSH1 0x20 DUP3 ADD SWAP1 POP SWAP2 SWAP1 POP JUMP JUMPDEST PUSH1 0x0 PUSH1 0x20 DUP3 ADD SWAP1 POP SWAP2 SWAP1 POP JUMP JUMPDEST PUSH1 0x0 PUSH1 0x20 DUP3 ADD SWAP1 POP SWAP2 SWAP1 POP JUMP JUMPDEST PUSH1 0x0 PUSH1 0x20 DUP3 ADD SWAP1 POP SWAP2 SWAP1 POP JUMP JUMPDEST PUSH1 0x0 DUP2 MLOAD SWAP1 POP SWAP2 SWAP1 POP JUMP JUMPDEST PUSH1 0x0 DUP2 MLOAD SWAP1 POP SWAP2 SWAP1 POP JUMP JUMPDEST PUSH1 0x0 DUP2 MLOAD SWAP1 POP SWAP2 SWAP1 POP JUMP JUMPDEST PUSH1 0x0 DUP2 MLOAD SWAP1 POP SWAP2 SWAP1 POP JUMP JUMPDEST PUSH1 0x0 DUP2 MLOAD SWAP1 POP SWAP2 SWAP1 POP JUMP JUMPDEST PUSH1 0x0 PUSH1 0x20 DUP3 ADD SWAP1 POP SWAP2 SWAP1 POP JUMP JUMPDEST PUSH1 0x0 PUSH1 0x20 DUP3 ADD SWAP1 POP SWAP2 SWAP1 POP JUMP JUMPDEST PUSH1 0x0 PUSH1 0x20 DUP3 ADD SWAP1 POP SWAP2 SWAP1 POP JUMP JUMPDEST PUSH1 0x0 PUSH1 0x20 DUP3 ADD SWAP1 POP SWAP2 SWAP1 POP JUMP JUMPDEST PUSH1 0x0 PUSH20 0xFFFFFFFFFFFFFFFFFFFFFFFFFFFFFFFFFFFFFFFF DUP3 AND SWAP1 POP SWAP2 SWAP1 POP JUMP JUMPDEST PUSH1 0x0 DUP2 SWAP1 POP SWAP2 SWAP1 POP JUMP JUMPDEST PUSH1 0x0 PUSH32 0xFFFFFFFF00000000000000000000000000000000000000000000000000000000 DUP3 AND SWAP1 POP SWAP2 SWAP1 POP JUMP JUMPDEST PUSH1 0x0 DUP2 SWAP1 POP SWAP2 SWAP1 POP JUMP JUMPDEST PUSH1 0x0 PUSH1 0xFF DUP3 AND SWAP1 POP SWAP2 SWAP1 POP JUMP JUMPDEST PUSH1 0x0 PUSH20 0xFFFFFFFFFFFFFFFFFFFFFFFFFFFFFFFFFFFFFFFF DUP3 AND SWAP1 POP SWAP2 SWAP1 POP JUMP JUMPDEST PUSH1 0x0 DUP2 ISZERO ISZERO SWAP1 POP SWAP2 SWAP1 POP JUMP JUMPDEST PUSH1 0x0 DUP2 SWAP1 POP SWAP2 SWAP1 POP JUMP JUMPDEST PUSH1 0x0 DUP2 SWAP1 POP SWAP2 SWAP1 POP JUMP JUMPDEST PUSH1 0x0 PUSH1 0xFF DUP3 AND SWAP1 POP SWAP2 SWAP1 POP JUMP JUMPDEST DUP3 DUP2 DUP4 CALLDATACOPY PUSH1 0x0 DUP4 DUP4 ADD MSTORE POP POP POP JUMP JUMPDEST PUSH1 0x0 JUMPDEST DUP4 DUP2 LT ISZERO PUSH2 0x234E JUMPI DUP1 DUP3 ADD MLOAD DUP2 DUP5 ADD MSTORE PUSH1 0x20 DUP2 ADD SWAP1 POP PUSH2 0x2333 JUMP JUMPDEST DUP4 DUP2 GT ISZERO PUSH2 0x235D JUMPI PUSH1 0x0 DUP5 DUP5 ADD MSTORE JUMPDEST POP POP POP POP JUMP JUMPDEST PUSH1 0x0 PUSH1 0x1F NOT PUSH1 0x1F DUP4 ADD AND SWAP1 POP SWAP2 SWAP1 POP JUMP STOP LOG2 PUSH6 0x627A7A723058 KECCAK256 PUSH27 0x99E9838B99AF8883A6E7464BF52240132C8095988AA03A00D96F91 CREATE2 SSTORE 0xea PUSH12 0x6C6578706572696D656E7461 PUSH13 0xF5003700000000000000000000 "
			}
		}
	},
	"sourceTreeHashHex": "0xea83f440fbf23263d11443ff74708fa5947835aa8ebf470e5de60407c6fae981",
	"compiler": {
		"name": "solc",
		"version": "soljson-v0.4.24+commit.e67f0147.js",
		"settings": {
			"optimizer": {
				"enabled": false
			},
			"outputSelection": {
				"*": {
					"*": [
						"abi",
						"evm.bytecode.object"
					]
				}
			}
		}
	}
}