{
	"schemaVersion": "2.0.0",
	"contractName": "Exchange",
	"compilerOutput": {
		"abi": [
			{
				"constant": true,
				"inputs": [],
				"name": "EIP712_DOMAIN_SEPARATOR_SCHEMA_HASH",
				"outputs": [
					{
						"name": "",
						"type": "bytes32"
					}
				],
				"payable": false,
				"stateMutability": "view",
				"type": "function"
			},
			{
				"constant": true,
				"inputs": [
					{
						"name": "",
						"type": "bytes32"
					}
				],
				"name": "filled",
				"outputs": [
					{
						"name": "",
						"type": "uint256"
					}
				],
				"payable": false,
				"stateMutability": "view",
				"type": "function"
			},
			{
				"constant": false,
				"inputs": [
					{
						"components": [
							{
								"name": "makerAddress",
								"type": "address"
							},
							{
								"name": "takerAddress",
								"type": "address"
							},
							{
								"name": "feeRecipientAddress",
								"type": "address"
							},
							{
								"name": "senderAddress",
								"type": "address"
							},
							{
								"name": "makerAssetAmount",
								"type": "uint256"
							},
							{
								"name": "takerAssetAmount",
								"type": "uint256"
							},
							{
								"name": "makerFee",
								"type": "uint256"
							},
							{
								"name": "takerFee",
								"type": "uint256"
							},
							{
								"name": "expirationTimeSeconds",
								"type": "uint256"
							},
							{
								"name": "salt",
								"type": "uint256"
							},
							{
								"name": "makerAssetData",
								"type": "bytes"
							},
							{
								"name": "takerAssetData",
								"type": "bytes"
							}
						],
						"name": "orders",
						"type": "tuple[]"
					},
					{
						"name": "takerAssetFillAmounts",
						"type": "uint256[]"
					},
					{
						"name": "signatures",
						"type": "bytes[]"
					}
				],
				"name": "batchFillOrders",
				"outputs": [
					{
						"components": [
							{
								"name": "makerAssetFilledAmount",
								"type": "uint256"
							},
							{
								"name": "takerAssetFilledAmount",
								"type": "uint256"
							},
							{
								"name": "makerFeePaid",
								"type": "uint256"
							},
							{
								"name": "takerFeePaid",
								"type": "uint256"
							}
						],
						"name": "totalFillResults",
						"type": "tuple"
					}
				],
				"payable": false,
				"stateMutability": "nonpayable",
				"type": "function"
			},
			{
				"constant": true,
				"inputs": [
					{
						"name": "",
						"type": "bytes32"
					}
				],
				"name": "cancelled",
				"outputs": [
					{
						"name": "",
						"type": "bool"
					}
				],
				"payable": false,
				"stateMutability": "view",
				"type": "function"
			},
			{
				"constant": false,
				"inputs": [
					{
						"name": "hash",
						"type": "bytes32"
					},
					{
						"name": "signerAddress",
						"type": "address"
					},
					{
						"name": "signature",
						"type": "bytes"
					}
				],
				"name": "preSign",
				"outputs": [],
				"payable": false,
				"stateMutability": "nonpayable",
				"type": "function"
			},
			{
				"constant": true,
				"inputs": [
					{
						"name": "",
						"type": "uint8"
					}
				],
				"name": "assetProxies",
				"outputs": [
					{
						"name": "",
						"type": "address"
					}
				],
				"payable": false,
				"stateMutability": "view",
				"type": "function"
			},
			{
				"constant": false,
				"inputs": [
					{
						"components": [
							{
								"name": "makerAddress",
								"type": "address"
							},
							{
								"name": "takerAddress",
								"type": "address"
							},
							{
								"name": "feeRecipientAddress",
								"type": "address"
							},
							{
								"name": "senderAddress",
								"type": "address"
							},
							{
								"name": "makerAssetAmount",
								"type": "uint256"
							},
							{
								"name": "takerAssetAmount",
								"type": "uint256"
							},
							{
								"name": "makerFee",
								"type": "uint256"
							},
							{
								"name": "takerFee",
								"type": "uint256"
							},
							{
								"name": "expirationTimeSeconds",
								"type": "uint256"
							},
							{
								"name": "salt",
								"type": "uint256"
							},
							{
								"name": "makerAssetData",
								"type": "bytes"
							},
							{
								"name": "takerAssetData",
								"type": "bytes"
							}
						],
						"name": "leftOrder",
						"type": "tuple"
					},
					{
						"components": [
							{
								"name": "makerAddress",
								"type": "address"
							},
							{
								"name": "takerAddress",
								"type": "address"
							},
							{
								"name": "feeRecipientAddress",
								"type": "address"
							},
							{
								"name": "senderAddress",
								"type": "address"
							},
							{
								"name": "makerAssetAmount",
								"type": "uint256"
							},
							{
								"name": "takerAssetAmount",
								"type": "uint256"
							},
							{
								"name": "makerFee",
								"type": "uint256"
							},
							{
								"name": "takerFee",
								"type": "uint256"
							},
							{
								"name": "expirationTimeSeconds",
								"type": "uint256"
							},
							{
								"name": "salt",
								"type": "uint256"
							},
							{
								"name": "makerAssetData",
								"type": "bytes"
							},
							{
								"name": "takerAssetData",
								"type": "bytes"
							}
						],
						"name": "rightOrder",
						"type": "tuple"
					},
					{
						"name": "leftSignature",
						"type": "bytes"
					},
					{
						"name": "rightSignature",
						"type": "bytes"
					}
				],
				"name": "matchOrders",
				"outputs": [
					{
						"components": [
							{
								"components": [
									{
										"name": "makerAssetFilledAmount",
										"type": "uint256"
									},
									{
										"name": "takerAssetFilledAmount",
										"type": "uint256"
									},
									{
										"name": "makerFeePaid",
										"type": "uint256"
									},
									{
										"name": "takerFeePaid",
										"type": "uint256"
									}
								],
								"name": "left",
								"type": "tuple"
							},
							{
								"components": [
									{
										"name": "makerAssetFilledAmount",
										"type": "uint256"
									},
									{
										"name": "takerAssetFilledAmount",
										"type": "uint256"
									},
									{
										"name": "makerFeePaid",
										"type": "uint256"
									},
									{
										"name": "takerFeePaid",
										"type": "uint256"
									}
								],
								"name": "right",
								"type": "tuple"
							},
							{
								"name": "leftMakerAssetSpreadAmount",
								"type": "uint256"
							}
						],
						"name": "matchedFillResults",
						"type": "tuple"
					}
				],
				"payable": false,
				"stateMutability": "nonpayable",
				"type": "function"
			},
			{
				"constant": false,
				"inputs": [
					{
						"components": [
							{
								"name": "makerAddress",
								"type": "address"
							},
							{
								"name": "takerAddress",
								"type": "address"
							},
							{
								"name": "feeRecipientAddress",
								"type": "address"
							},
							{
								"name": "senderAddress",
								"type": "address"
							},
							{
								"name": "makerAssetAmount",
								"type": "uint256"
							},
							{
								"name": "takerAssetAmount",
								"type": "uint256"
							},
							{
								"name": "makerFee",
								"type": "uint256"
							},
							{
								"name": "takerFee",
								"type": "uint256"
							},
							{
								"name": "expirationTimeSeconds",
								"type": "uint256"
							},
							{
								"name": "salt",
								"type": "uint256"
							},
							{
								"name": "makerAssetData",
								"type": "bytes"
							},
							{
								"name": "takerAssetData",
								"type": "bytes"
							}
						],
						"name": "order",
						"type": "tuple"
					},
					{
						"name": "takerAssetFillAmount",
						"type": "uint256"
					},
					{
						"name": "signature",
						"type": "bytes"
					}
				],
				"name": "fillOrderNoThrow",
				"outputs": [
					{
						"components": [
							{
								"name": "makerAssetFilledAmount",
								"type": "uint256"
							},
							{
								"name": "takerAssetFilledAmount",
								"type": "uint256"
							},
							{
								"name": "makerFeePaid",
								"type": "uint256"
							},
							{
								"name": "takerFeePaid",
								"type": "uint256"
							}
						],
						"name": "fillResults",
						"type": "tuple"
					}
				],
				"payable": false,
				"stateMutability": "nonpayable",
				"type": "function"
			},
			{
				"constant": false,
				"inputs": [
					{
						"components": [
							{
								"name": "makerAddress",
								"type": "address"
							},
							{
								"name": "takerAddress",
								"type": "address"
							},
							{
								"name": "feeRecipientAddress",
								"type": "address"
							},
							{
								"name": "senderAddress",
								"type": "address"
							},
							{
								"name": "makerAssetAmount",
								"type": "uint256"
							},
							{
								"name": "takerAssetAmount",
								"type": "uint256"
							},
							{
								"name": "makerFee",
								"type": "uint256"
							},
							{
								"name": "takerFee",
								"type": "uint256"
							},
							{
								"name": "expirationTimeSeconds",
								"type": "uint256"
							},
							{
								"name": "salt",
								"type": "uint256"
							},
							{
								"name": "makerAssetData",
								"type": "bytes"
							},
							{
								"name": "takerAssetData",
								"type": "bytes"
							}
						],
						"name": "orders",
						"type": "tuple[]"
					}
				],
				"name": "batchCancelOrders",
				"outputs": [],
				"payable": false,
				"stateMutability": "nonpayable",
				"type": "function"
			},
			{
				"constant": false,
				"inputs": [
					{
						"components": [
							{
								"name": "makerAddress",
								"type": "address"
							},
							{
								"name": "takerAddress",
								"type": "address"
							},
							{
								"name": "feeRecipientAddress",
								"type": "address"
							},
							{
								"name": "senderAddress",
								"type": "address"
							},
							{
								"name": "makerAssetAmount",
								"type": "uint256"
							},
							{
								"name": "takerAssetAmount",
								"type": "uint256"
							},
							{
								"name": "makerFee",
								"type": "uint256"
							},
							{
								"name": "takerFee",
								"type": "uint256"
							},
							{
								"name": "expirationTimeSeconds",
								"type": "uint256"
							},
							{
								"name": "salt",
								"type": "uint256"
							},
							{
								"name": "makerAssetData",
								"type": "bytes"
							},
							{
								"name": "takerAssetData",
								"type": "bytes"
							}
						],
						"name": "orders",
						"type": "tuple[]"
					},
					{
						"name": "takerAssetFillAmounts",
						"type": "uint256[]"
					},
					{
						"name": "signatures",
						"type": "bytes[]"
					}
				],
				"name": "batchFillOrKillOrders",
				"outputs": [
					{
						"components": [
							{
								"name": "makerAssetFilledAmount",
								"type": "uint256"
							},
							{
								"name": "takerAssetFilledAmount",
								"type": "uint256"
							},
							{
								"name": "makerFeePaid",
								"type": "uint256"
							},
							{
								"name": "takerFeePaid",
								"type": "uint256"
							}
						],
						"name": "totalFillResults",
						"type": "tuple"
					}
				],
				"payable": false,
				"stateMutability": "nonpayable",
				"type": "function"
			},
			{
				"constant": false,
				"inputs": [
					{
						"name": "targetOrderEpoch",
						"type": "uint256"
					}
				],
				"name": "cancelOrdersUpTo",
				"outputs": [],
				"payable": false,
				"stateMutability": "nonpayable",
				"type": "function"
			},
			{
				"constant": false,
				"inputs": [
					{
						"components": [
							{
								"name": "makerAddress",
								"type": "address"
							},
							{
								"name": "takerAddress",
								"type": "address"
							},
							{
								"name": "feeRecipientAddress",
								"type": "address"
							},
							{
								"name": "senderAddress",
								"type": "address"
							},
							{
								"name": "makerAssetAmount",
								"type": "uint256"
							},
							{
								"name": "takerAssetAmount",
								"type": "uint256"
							},
							{
								"name": "makerFee",
								"type": "uint256"
							},
							{
								"name": "takerFee",
								"type": "uint256"
							},
							{
								"name": "expirationTimeSeconds",
								"type": "uint256"
							},
							{
								"name": "salt",
								"type": "uint256"
							},
							{
								"name": "makerAssetData",
								"type": "bytes"
							},
							{
								"name": "takerAssetData",
								"type": "bytes"
							}
						],
						"name": "orders",
						"type": "tuple[]"
					},
					{
						"name": "takerAssetFillAmounts",
						"type": "uint256[]"
					},
					{
						"name": "signatures",
						"type": "bytes[]"
					}
				],
				"name": "batchFillOrdersNoThrow",
				"outputs": [
					{
						"components": [
							{
								"name": "makerAssetFilledAmount",
								"type": "uint256"
							},
							{
								"name": "takerAssetFilledAmount",
								"type": "uint256"
							},
							{
								"name": "makerFeePaid",
								"type": "uint256"
							},
							{
								"name": "takerFeePaid",
								"type": "uint256"
							}
						],
						"name": "totalFillResults",
						"type": "tuple"
					}
				],
				"payable": false,
				"stateMutability": "nonpayable",
				"type": "function"
			},
			{
				"constant": false,
				"inputs": [
					{
						"name": "assetProxyId",
						"type": "uint8"
					},
					{
						"name": "newAssetProxy",
						"type": "address"
					},
					{
						"name": "oldAssetProxy",
						"type": "address"
					}
				],
				"name": "registerAssetProxy",
				"outputs": [],
				"payable": false,
				"stateMutability": "nonpayable",
				"type": "function"
			},
			{
				"constant": true,
				"inputs": [
					{
						"name": "",
						"type": "bytes32"
					}
				],
				"name": "transactions",
				"outputs": [
					{
						"name": "",
						"type": "bool"
					}
				],
				"payable": false,
				"stateMutability": "view",
				"type": "function"
			},
			{
				"constant": false,
				"inputs": [
					{
						"components": [
							{
								"name": "makerAddress",
								"type": "address"
							},
							{
								"name": "takerAddress",
								"type": "address"
							},
							{
								"name": "feeRecipientAddress",
								"type": "address"
							},
							{
								"name": "senderAddress",
								"type": "address"
							},
							{
								"name": "makerAssetAmount",
								"type": "uint256"
							},
							{
								"name": "takerAssetAmount",
								"type": "uint256"
							},
							{
								"name": "makerFee",
								"type": "uint256"
							},
							{
								"name": "takerFee",
								"type": "uint256"
							},
							{
								"name": "expirationTimeSeconds",
								"type": "uint256"
							},
							{
								"name": "salt",
								"type": "uint256"
							},
							{
								"name": "makerAssetData",
								"type": "bytes"
							},
							{
								"name": "takerAssetData",
								"type": "bytes"
							}
						],
						"name": "order",
						"type": "tuple"
					},
					{
						"name": "takerAssetFillAmount",
						"type": "uint256"
					},
					{
						"name": "signature",
						"type": "bytes"
					}
				],
				"name": "fillOrKillOrder",
				"outputs": [
					{
						"components": [
							{
								"name": "makerAssetFilledAmount",
								"type": "uint256"
							},
							{
								"name": "takerAssetFilledAmount",
								"type": "uint256"
							},
							{
								"name": "makerFeePaid",
								"type": "uint256"
							},
							{
								"name": "takerFeePaid",
								"type": "uint256"
							}
						],
						"name": "fillResults",
						"type": "tuple"
					}
				],
				"payable": false,
				"stateMutability": "nonpayable",
				"type": "function"
			},
			{
				"constant": false,
				"inputs": [
					{
						"name": "validatorAddress",
						"type": "address"
					},
					{
						"name": "approval",
						"type": "bool"
					}
				],
				"name": "setSignatureValidatorApproval",
				"outputs": [],
				"payable": false,
				"stateMutability": "nonpayable",
				"type": "function"
			},
			{
				"constant": true,
				"inputs": [
					{
						"name": "",
						"type": "address"
					},
					{
						"name": "",
						"type": "address"
					}
				],
				"name": "allowedValidators",
				"outputs": [
					{
						"name": "",
						"type": "bool"
					}
				],
				"payable": false,
				"stateMutability": "view",
				"type": "function"
			},
			{
				"constant": false,
				"inputs": [
					{
						"components": [
							{
								"name": "makerAddress",
								"type": "address"
							},
							{
								"name": "takerAddress",
								"type": "address"
							},
							{
								"name": "feeRecipientAddress",
								"type": "address"
							},
							{
								"name": "senderAddress",
								"type": "address"
							},
							{
								"name": "makerAssetAmount",
								"type": "uint256"
							},
							{
								"name": "takerAssetAmount",
								"type": "uint256"
							},
							{
								"name": "makerFee",
								"type": "uint256"
							},
							{
								"name": "takerFee",
								"type": "uint256"
							},
							{
								"name": "expirationTimeSeconds",
								"type": "uint256"
							},
							{
								"name": "salt",
								"type": "uint256"
							},
							{
								"name": "makerAssetData",
								"type": "bytes"
							},
							{
								"name": "takerAssetData",
								"type": "bytes"
							}
						],
						"name": "orders",
						"type": "tuple[]"
					},
					{
						"name": "takerAssetFillAmount",
						"type": "uint256"
					},
					{
						"name": "signatures",
						"type": "bytes[]"
					}
				],
				"name": "marketSellOrders",
				"outputs": [
					{
						"components": [
							{
								"name": "makerAssetFilledAmount",
								"type": "uint256"
							},
							{
								"name": "takerAssetFilledAmount",
								"type": "uint256"
							},
							{
								"name": "makerFeePaid",
								"type": "uint256"
							},
							{
								"name": "takerFeePaid",
								"type": "uint256"
							}
						],
						"name": "totalFillResults",
						"type": "tuple"
					}
				],
				"payable": false,
				"stateMutability": "nonpayable",
				"type": "function"
			},
			{
				"constant": true,
				"inputs": [
					{
						"name": "",
						"type": "bytes32"
					},
					{
						"name": "",
						"type": "address"
					}
				],
				"name": "preSigned",
				"outputs": [
					{
						"name": "",
						"type": "bool"
					}
				],
				"payable": false,
				"stateMutability": "view",
				"type": "function"
			},
			{
				"constant": true,
				"inputs": [],
				"name": "owner",
				"outputs": [
					{
						"name": "",
						"type": "address"
					}
				],
				"payable": false,
				"stateMutability": "view",
				"type": "function"
			},
			{
				"constant": true,
				"inputs": [
					{
						"name": "assetProxyId",
						"type": "uint8"
					}
				],
				"name": "getAssetProxy",
				"outputs": [
					{
						"name": "",
						"type": "address"
					}
				],
				"payable": false,
				"stateMutability": "view",
				"type": "function"
			},
			{
				"constant": true,
				"inputs": [
					{
						"name": "hash",
						"type": "bytes32"
					},
					{
						"name": "signerAddress",
						"type": "address"
					},
					{
						"name": "signature",
						"type": "bytes"
					}
				],
				"name": "isValidSignature",
				"outputs": [
					{
						"name": "isValid",
						"type": "bool"
					}
				],
				"payable": false,
				"stateMutability": "view",
				"type": "function"
			},
			{
				"constant": false,
				"inputs": [
					{
						"components": [
							{
								"name": "makerAddress",
								"type": "address"
							},
							{
								"name": "takerAddress",
								"type": "address"
							},
							{
								"name": "feeRecipientAddress",
								"type": "address"
							},
							{
								"name": "senderAddress",
								"type": "address"
							},
							{
								"name": "makerAssetAmount",
								"type": "uint256"
							},
							{
								"name": "takerAssetAmount",
								"type": "uint256"
							},
							{
								"name": "makerFee",
								"type": "uint256"
							},
							{
								"name": "takerFee",
								"type": "uint256"
							},
							{
								"name": "expirationTimeSeconds",
								"type": "uint256"
							},
							{
								"name": "salt",
								"type": "uint256"
							},
							{
								"name": "makerAssetData",
								"type": "bytes"
							},
							{
								"name": "takerAssetData",
								"type": "bytes"
							}
						],
						"name": "orders",
						"type": "tuple[]"
					},
					{
						"name": "makerAssetFillAmount",
						"type": "uint256"
					},
					{
						"name": "signatures",
						"type": "bytes[]"
					}
				],
				"name": "marketBuyOrdersNoThrow",
				"outputs": [
					{
						"components": [
							{
								"name": "makerAssetFilledAmount",
								"type": "uint256"
							},
							{
								"name": "takerAssetFilledAmount",
								"type": "uint256"
							},
							{
								"name": "makerFeePaid",
								"type": "uint256"
							},
							{
								"name": "takerFeePaid",
								"type": "uint256"
							}
						],
						"name": "totalFillResults",
						"type": "tuple"
					}
				],
				"payable": false,
				"stateMutability": "nonpayable",
				"type": "function"
			},
			{
				"constant": false,
				"inputs": [
					{
						"components": [
							{
								"name": "makerAddress",
								"type": "address"
							},
							{
								"name": "takerAddress",
								"type": "address"
							},
							{
								"name": "feeRecipientAddress",
								"type": "address"
							},
							{
								"name": "senderAddress",
								"type": "address"
							},
							{
								"name": "makerAssetAmount",
								"type": "uint256"
							},
							{
								"name": "takerAssetAmount",
								"type": "uint256"
							},
							{
								"name": "makerFee",
								"type": "uint256"
							},
							{
								"name": "takerFee",
								"type": "uint256"
							},
							{
								"name": "expirationTimeSeconds",
								"type": "uint256"
							},
							{
								"name": "salt",
								"type": "uint256"
							},
							{
								"name": "makerAssetData",
								"type": "bytes"
							},
							{
								"name": "takerAssetData",
								"type": "bytes"
							}
						],
						"name": "order",
						"type": "tuple"
					},
					{
						"name": "takerAssetFillAmount",
						"type": "uint256"
					},
					{
						"name": "signature",
						"type": "bytes"
					}
				],
				"name": "fillOrder",
				"outputs": [
					{
						"components": [
							{
								"name": "makerAssetFilledAmount",
								"type": "uint256"
							},
							{
								"name": "takerAssetFilledAmount",
								"type": "uint256"
							},
							{
								"name": "makerFeePaid",
								"type": "uint256"
							},
							{
								"name": "takerFeePaid",
								"type": "uint256"
							}
						],
						"name": "fillResults",
						"type": "tuple"
					}
				],
				"payable": false,
				"stateMutability": "nonpayable",
				"type": "function"
			},
			{
				"constant": false,
				"inputs": [
					{
						"name": "salt",
						"type": "uint256"
					},
					{
						"name": "signerAddress",
						"type": "address"
					},
					{
						"name": "data",
						"type": "bytes"
					},
					{
						"name": "signature",
						"type": "bytes"
					}
				],
				"name": "executeTransaction",
				"outputs": [],
				"payable": false,
				"stateMutability": "nonpayable",
				"type": "function"
			},
			{
				"constant": true,
				"inputs": [
					{
						"components": [
							{
								"name": "makerAddress",
								"type": "address"
							},
							{
								"name": "takerAddress",
								"type": "address"
							},
							{
								"name": "feeRecipientAddress",
								"type": "address"
							},
							{
								"name": "senderAddress",
								"type": "address"
							},
							{
								"name": "makerAssetAmount",
								"type": "uint256"
							},
							{
								"name": "takerAssetAmount",
								"type": "uint256"
							},
							{
								"name": "makerFee",
								"type": "uint256"
							},
							{
								"name": "takerFee",
								"type": "uint256"
							},
							{
								"name": "expirationTimeSeconds",
								"type": "uint256"
							},
							{
								"name": "salt",
								"type": "uint256"
							},
							{
								"name": "makerAssetData",
								"type": "bytes"
							},
							{
								"name": "takerAssetData",
								"type": "bytes"
							}
						],
						"name": "order",
						"type": "tuple"
					}
				],
				"name": "getOrderInfo",
				"outputs": [
					{
						"components": [
							{
								"name": "orderStatus",
								"type": "uint8"
							},
							{
								"name": "orderHash",
								"type": "bytes32"
							},
							{
								"name": "orderTakerAssetFilledAmount",
								"type": "uint256"
							}
						],
						"name": "orderInfo",
						"type": "tuple"
					}
				],
				"payable": false,
				"stateMutability": "view",
				"type": "function"
			},
			{
				"constant": false,
				"inputs": [
					{
						"components": [
							{
								"name": "makerAddress",
								"type": "address"
							},
							{
								"name": "takerAddress",
								"type": "address"
							},
							{
								"name": "feeRecipientAddress",
								"type": "address"
							},
							{
								"name": "senderAddress",
								"type": "address"
							},
							{
								"name": "makerAssetAmount",
								"type": "uint256"
							},
							{
								"name": "takerAssetAmount",
								"type": "uint256"
							},
							{
								"name": "makerFee",
								"type": "uint256"
							},
							{
								"name": "takerFee",
								"type": "uint256"
							},
							{
								"name": "expirationTimeSeconds",
								"type": "uint256"
							},
							{
								"name": "salt",
								"type": "uint256"
							},
							{
								"name": "makerAssetData",
								"type": "bytes"
							},
							{
								"name": "takerAssetData",
								"type": "bytes"
							}
						],
						"name": "order",
						"type": "tuple"
					}
				],
				"name": "cancelOrder",
				"outputs": [],
				"payable": false,
				"stateMutability": "nonpayable",
				"type": "function"
			},
			{
				"constant": true,
				"inputs": [
					{
						"name": "",
						"type": "address"
					},
					{
						"name": "",
						"type": "address"
					}
				],
				"name": "orderEpoch",
				"outputs": [
					{
						"name": "",
						"type": "uint256"
					}
				],
				"payable": false,
				"stateMutability": "view",
				"type": "function"
			},
			{
				"constant": false,
				"inputs": [
					{
						"components": [
							{
								"name": "makerAddress",
								"type": "address"
							},
							{
								"name": "takerAddress",
								"type": "address"
							},
							{
								"name": "feeRecipientAddress",
								"type": "address"
							},
							{
								"name": "senderAddress",
								"type": "address"
							},
							{
								"name": "makerAssetAmount",
								"type": "uint256"
							},
							{
								"name": "takerAssetAmount",
								"type": "uint256"
							},
							{
								"name": "makerFee",
								"type": "uint256"
							},
							{
								"name": "takerFee",
								"type": "uint256"
							},
							{
								"name": "expirationTimeSeconds",
								"type": "uint256"
							},
							{
								"name": "salt",
								"type": "uint256"
							},
							{
								"name": "makerAssetData",
								"type": "bytes"
							},
							{
								"name": "takerAssetData",
								"type": "bytes"
							}
						],
						"name": "orders",
						"type": "tuple[]"
					},
					{
						"name": "takerAssetFillAmount",
						"type": "uint256"
					},
					{
						"name": "signatures",
						"type": "bytes[]"
					}
				],
				"name": "marketSellOrdersNoThrow",
				"outputs": [
					{
						"components": [
							{
								"name": "makerAssetFilledAmount",
								"type": "uint256"
							},
							{
								"name": "takerAssetFilledAmount",
								"type": "uint256"
							},
							{
								"name": "makerFeePaid",
								"type": "uint256"
							},
							{
								"name": "takerFeePaid",
								"type": "uint256"
							}
						],
						"name": "totalFillResults",
						"type": "tuple"
					}
				],
				"payable": false,
				"stateMutability": "nonpayable",
				"type": "function"
			},
			{
				"constant": true,
				"inputs": [],
				"name": "EIP712_DOMAIN_HASH",
				"outputs": [
					{
						"name": "",
						"type": "bytes32"
					}
				],
				"payable": false,
				"stateMutability": "view",
				"type": "function"
			},
			{
				"constant": false,
				"inputs": [
					{
						"components": [
							{
								"name": "makerAddress",
								"type": "address"
							},
							{
								"name": "takerAddress",
								"type": "address"
							},
							{
								"name": "feeRecipientAddress",
								"type": "address"
							},
							{
								"name": "senderAddress",
								"type": "address"
							},
							{
								"name": "makerAssetAmount",
								"type": "uint256"
							},
							{
								"name": "takerAssetAmount",
								"type": "uint256"
							},
							{
								"name": "makerFee",
								"type": "uint256"
							},
							{
								"name": "takerFee",
								"type": "uint256"
							},
							{
								"name": "expirationTimeSeconds",
								"type": "uint256"
							},
							{
								"name": "salt",
								"type": "uint256"
							},
							{
								"name": "makerAssetData",
								"type": "bytes"
							},
							{
								"name": "takerAssetData",
								"type": "bytes"
							}
						],
						"name": "orders",
						"type": "tuple[]"
					},
					{
						"name": "makerAssetFillAmount",
						"type": "uint256"
					},
					{
						"name": "signatures",
						"type": "bytes[]"
					}
				],
				"name": "marketBuyOrders",
				"outputs": [
					{
						"components": [
							{
								"name": "makerAssetFilledAmount",
								"type": "uint256"
							},
							{
								"name": "takerAssetFilledAmount",
								"type": "uint256"
							},
							{
								"name": "makerFeePaid",
								"type": "uint256"
							},
							{
								"name": "takerFeePaid",
								"type": "uint256"
							}
						],
						"name": "totalFillResults",
						"type": "tuple"
					}
				],
				"payable": false,
				"stateMutability": "nonpayable",
				"type": "function"
			},
			{
				"constant": true,
				"inputs": [],
				"name": "currentContextAddress",
				"outputs": [
					{
						"name": "",
						"type": "address"
					}
				],
				"payable": false,
				"stateMutability": "view",
				"type": "function"
			},
			{
				"constant": false,
				"inputs": [
					{
						"name": "newOwner",
						"type": "address"
					}
				],
				"name": "transferOwnership",
				"outputs": [],
				"payable": false,
				"stateMutability": "nonpayable",
				"type": "function"
			},
			{
				"constant": true,
				"inputs": [],
				"name": "VERSION",
				"outputs": [
					{
						"name": "",
						"type": "string"
					}
				],
				"payable": false,
				"stateMutability": "view",
				"type": "function"
			},
			{
				"inputs": [],
				"payable": false,
				"stateMutability": "nonpayable",
				"type": "constructor"
			},
			{
				"anonymous": false,
				"inputs": [
					{
						"indexed": true,
						"name": "signerAddress",
						"type": "address"
					},
					{
						"indexed": true,
						"name": "validatorAddress",
						"type": "address"
					},
					{
						"indexed": false,
						"name": "approved",
						"type": "bool"
					}
				],
				"name": "SignatureValidatorApproval",
				"type": "event"
			},
			{
				"anonymous": false,
				"inputs": [
					{
						"indexed": true,
						"name": "makerAddress",
						"type": "address"
					},
					{
						"indexed": true,
						"name": "feeRecipientAddress",
						"type": "address"
					},
					{
						"indexed": false,
						"name": "takerAddress",
						"type": "address"
					},
					{
						"indexed": false,
						"name": "senderAddress",
						"type": "address"
					},
					{
						"indexed": false,
						"name": "makerAssetFilledAmount",
						"type": "uint256"
					},
					{
						"indexed": false,
						"name": "takerAssetFilledAmount",
						"type": "uint256"
					},
					{
						"indexed": false,
						"name": "makerFeePaid",
						"type": "uint256"
					},
					{
						"indexed": false,
						"name": "takerFeePaid",
						"type": "uint256"
					},
					{
						"indexed": true,
						"name": "orderHash",
						"type": "bytes32"
					},
					{
						"indexed": false,
						"name": "makerAssetData",
						"type": "bytes"
					},
					{
						"indexed": false,
						"name": "takerAssetData",
						"type": "bytes"
					}
				],
				"name": "Fill",
				"type": "event"
			},
			{
				"anonymous": false,
				"inputs": [
					{
						"indexed": true,
						"name": "makerAddress",
						"type": "address"
					},
					{
						"indexed": true,
						"name": "feeRecipientAddress",
						"type": "address"
					},
					{
						"indexed": false,
						"name": "senderAddress",
						"type": "address"
					},
					{
						"indexed": true,
						"name": "orderHash",
						"type": "bytes32"
					},
					{
						"indexed": false,
						"name": "makerAssetData",
						"type": "bytes"
					},
					{
						"indexed": false,
						"name": "takerAssetData",
						"type": "bytes"
					}
				],
				"name": "Cancel",
				"type": "event"
			},
			{
				"anonymous": false,
				"inputs": [
					{
						"indexed": true,
						"name": "makerAddress",
						"type": "address"
					},
					{
						"indexed": true,
						"name": "senderAddress",
						"type": "address"
					},
					{
						"indexed": false,
						"name": "orderEpoch",
						"type": "uint256"
					}
				],
				"name": "CancelUpTo",
				"type": "event"
			},
			{
				"anonymous": false,
				"inputs": [
					{
						"indexed": false,
						"name": "id",
						"type": "uint8"
					},
					{
						"indexed": false,
						"name": "newAssetProxy",
						"type": "address"
					},
					{
						"indexed": false,
						"name": "oldAssetProxy",
						"type": "address"
					}
				],
				"name": "AssetProxySet",
				"type": "event"
			}
		],
		"evm": {
			"bytecode": {
				"linkReferences": {},
				"object": "0x60806040523480156200001157600080fd5b5060405160200180807f454950373132446f6d61696e2800000000000000000000000000000000000000815250600d01807f737472696e67206e616d652c0000000000000000000000000000000000000000815250600c01807f737472696e672076657273696f6e2c0000000000000000000000000000000000815250600f01807f6164647265737320766572696679696e67436f6e747261637400000000000000815250601901807f290000000000000000000000000000000000000000000000000000000000000081525060010190506040516020818303038152906040526040518082805190602001908083835b60208310151562000129578051825260208201915060208101905060208303925062000102565b6001836020036101000a03801982511681845116808217855250505050505090500191505060405180910390206040805190810160405280600b81526020017f30782050726f746f636f6c0000000000000000000000000000000000000000008152506040518082805190602001908083835b602083101515620001c357805182526020820191506020810190506020830392506200019c565b6001836020036101000a03801982511681845116808217855250505050505090500191505060405180910390206040805190810160405280600181526020017f32000000000000000000000000000000000000000000000000000000000000008152506040518082805190602001908083835b6020831015156200025d578051825260208201915060208101905060208303925062000236565b6001836020036101000a038019825116818451168082178552505050505050905001915050604051809103902030604051602001620002a0949392919062000386565b6040516020818303038152906040526040518082805190602001908083835b602083101515620002e65780518252602082019150602081019050602083039250620002bf565b6001836020036101000a03801982511681845116808217855250505050505090500191505060405180910390206000816000191690555033600160006101000a81548173ffffffffffffffffffffffffffffffffffffffff021916908373ffffffffffffffffffffffffffffffffffffffff160217905550620003fd565b6200036f81620003d3565b82525050565b6200038081620003f3565b82525050565b60006080820190506200039d600083018762000375565b620003ac602083018662000375565b620003bb604083018562000375565b620003ca606083018462000364565b95945050505050565b600073ffffffffffffffffffffffffffffffffffffffff82169050919050565b6000819050919050565b6164f6806200040d6000396000f3006080604052600436106101ac576000357c0100000000000000000000000000000000000000000000000000000000900463ffffffff1680632624b2d9146101b1578063288cdc91146101dc578063297bb70b146102195780632ac12622146102565780633683ef8e1461029357806338077164146102bc5780633c28d861146102f95780633e228bae146103365780634ac14782146103735780634d0ae5461461039c5780634f9559b1146103d957806350dde190146104025780635c78d0c71461043f578063642f2eaf1461046857806364a3bc15146104a557806377fcce68146104e25780637b8e35141461050b5780637e1d98081461054857806382c174d0146105855780638da5cb5b146105c257806392c1421e146105ed578063936347021461062a578063a3e2038014610667578063b4be83d5146106a4578063bfc8bfce146106e1578063c75e0a811461070a578063d46b02c314610747578063d9bfa73e14610770578063dd1c7d18146107ad578063e306f779146107ea578063e5fa431b14610815578063eea086ba14610852578063f2fde38b1461087d578063ffa1ad74146108a6575b600080fd5b3480156101bd57600080fd5b506101c66108d1565b6040516101d391906160a4565b60405180910390f35b3480156101e857600080fd5b5061020360048036036101fe9190810190615951565b610a16565b604051610210919061624d565b60405180910390f35b34801561022557600080fd5b50610240600480360361023b9190810190615812565b610a2e565b60405161024d91906161fb565b60405180910390f35b34801561026257600080fd5b5061027d60048036036102789190810190615951565b610ac3565b60405161028a9190616089565b60405180910390f35b34801561029f57600080fd5b506102ba60048036036102b591908101906159b6565b610ae3565b005b3480156102c857600080fd5b506102e360048036036102de9190810190615cd0565b610c11565b6040516102f091906161be565b60405180910390f35b34801561030557600080fd5b50610320600480360361031b9190810190615aca565b610c44565b60405161032d9190616216565b60405180910390f35b34801561034257600080fd5b5061035d60048036036103589190810190615b8d565b610d44565b60405161036a91906161fb565b60405180910390f35b34801561037f57600080fd5b5061039a600480360361039591908101906157d1565b610f95565b005b3480156103a857600080fd5b506103c360048036036103be9190810190615812565b610fd5565b6040516103d091906161fb565b60405180910390f35b3480156103e557600080fd5b5061040060048036036103fb9190810190615c0c565b61106a565b005b34801561040e57600080fd5b5061042960048036036104249190810190615812565b6112a7565b60405161043691906161fb565b60405180910390f35b34801561044b57600080fd5b5061046660048036036104619190810190615d22565b61133c565b005b34801561047457600080fd5b5061048f600480360361048a9190810190615951565b6116e7565b60405161049c9190616089565b60405180910390f35b3480156104b157600080fd5b506104cc60048036036104c79190810190615b8d565b611707565b6040516104d991906161fb565b60405180910390f35b3480156104ee57600080fd5b5061050960048036036105049190810190615795565b6117a7565b005b34801561051757600080fd5b50610532600480360361052d9190810190615759565b6118b1565b60405161053f9190616089565b60405180910390f35b34801561055457600080fd5b5061056f600480360361056a91908101906158a9565b6118e0565b60405161057c91906161fb565b60405180910390f35b34801561059157600080fd5b506105ac60048036036105a7919081019061597a565b6119ce565b6040516105b99190616089565b60405180910390f35b3480156105ce57600080fd5b506105d76119fd565b6040516105e49190615f9d565b60405180910390f35b3480156105f957600080fd5b50610614600480360361060f9190810190615cd0565b611a23565b6040516106219190615f9d565b60405180910390f35b34801561063657600080fd5b50610651600480360361064c9190810190615a22565b611a66565b60405161065e9190616089565b60405180910390f35b34801561067357600080fd5b5061068e600480360361068991908101906158a9565b6128ce565b60405161069b91906161fb565b60405180910390f35b3480156106b057600080fd5b506106cb60048036036106c69190810190615b8d565b6129f9565b6040516106d891906161fb565b60405180910390f35b3480156106ed57600080fd5b5061070860048036036107039190810190615c35565b612a8b565b005b34801561071657600080fd5b50610731600480360361072c9190810190615a89565b612ea5565b60405161073e9190616232565b60405180910390f35b34801561075357600080fd5b5061076e60048036036107699190810190615a89565b6130f7565b005b34801561077c57600080fd5b5061079760048036036107929190810190615759565b613126565b6040516107a4919061624d565b60405180910390f35b3480156107b957600080fd5b506107d460048036036107cf91908101906158a9565b61314b565b6040516107e191906161fb565b60405180910390f35b3480156107f657600080fd5b506107ff613230565b60405161080c91906160a4565b60405180910390f35b34801561082157600080fd5b5061083c600480360361083791908101906158a9565b613236565b60405161084991906161fb565b60405180910390f35b34801561085e57600080fd5b5061086761336a565b6040516108749190615f9d565b60405180910390f35b34801561088957600080fd5b506108a4600480360361089f9190810190615730565b613390565b005b3480156108b257600080fd5b506108bb6134d6565b6040516108c891906161d9565b60405180910390f35b60405160200180807f454950373132446f6d61696e2800000000000000000000000000000000000000815250600d01807f737472696e67206e616d652c0000000000000000000000000000000000000000815250600c01807f737472696e672076657273696f6e2c0000000000000000000000000000000000815250600f01807f6164647265737320766572696679696e67436f6e747261637400000000000000815250601901807f290000000000000000000000000000000000000000000000000000000000000081525060010190506040516020818303038152906040526040518082805190602001908083835b6020831015156109e657805182526020820191506020810190506020830392506109c1565b6001836020036101000a038019825116818451168082178552505050505050905001915050604051809103902081565b60026020528060005260406000206000915090505481565b610a366150f6565b6000610a406150f6565b600091505b8551821015610ab757610a9e8683815181101515610a5f57fe5b906020019060200201518684815181101515610a7757fe5b906020019060200201518685815181101515610a8f57fe5b906020019060200201516129f9565b9050610aaa838261350f565b8180600101925050610a45565b82925050509392505050565b60036020528060005260406000206000915054906101000a900460ff1681565b610b20848484848080601f016020809104026020016040519081016040528093929190818152602001838380828437820191505050505050611a66565b6040805190810160405280601181526020017f494e56414c49445f5349474e4154555245000000000000000000000000000000815250901515610b99576040517f08c379a0000000000000000000000000000000000000000000000000000000008152600401610b9091906161d9565b60405180910390fd5b50600160056000866000191660001916815260200190815260200160002060008573ffffffffffffffffffffffffffffffffffffffff1673ffffffffffffffffffffffffffffffffffffffff16815260200190815260200160002060006101000a81548160ff02191690831515021790555050505050565b60096020528060005260406000206000915054906101000a900473ffffffffffffffffffffffffffffffffffffffff1681565b610c4c61511f565b610c5461514e565b610c5c61514e565b6000876101600151876101400181905250876101400151876101600181905250610c8588612ea5565b9250610c9087612ea5565b9150610c9a61357f565b9050610ca6888861360b565b610cba8888856040015185604001516136af565b9350610cda8884838760000151602001518860000151602001518b61378c565b610cf88783838760200151602001518860200151602001518a61378c565b610d118882856020015186604001518860000151613b9f565b610d2a8782846020015185604001518860200151613b9f565b610d3688888387613c6d565b839350505050949350505050565b610d4c6150f6565b600063b4be83d57c01000000000000000000000000000000000000000000000000000000000290506040518181526004810180606081018181808b6000808784038652602086019550825184526020830151602085015260408301516040850152606083015160608501526080830151608085015260a083015160a085015260c083015160c085015260e083015160e085015261010083015161010085015261012083015161012085015261014083015161014085015261016083015161016085015261018084019350610180830192508484036020600a028601526101408f01519250825191506020830192506020601f830104905081845260208401935060005b81811015610e725783518552602085019450602084019350600181019050610e4f565b508484036020600b028601526101608f01519250825191506020830192506020601f830104905081845260208401935060005b81811015610ec85783518552602085019450602084019350600181019050610ea5565b508d865260208601955087840386528c9250825191506020830192506020601f830104905081845260208401935060005b81811015610f1c5783518552602085019450602084019350600181019050610ef9565b5060808a8b86038c305af48060008114610f3d5760018114610f5b57610f7e565b60008e52600060208f0152600060408f0152600060608f0152610f7e565b8b518e5260208c015160208f015260408c015160408f015260608c015160608f01525b505050505050505050505050819150509392505050565b60008090505b8151811015610fd157610fc48282815181101515610fb557fe5b906020019060200201516130f7565b8080600101915050610f9b565b5050565b610fdd6150f6565b6000610fe76150f6565b600091505b855182101561105e57611045868381518110151561100657fe5b90602001906020020151868481518110151561101e57fe5b90602001906020020151868581518110151561103657fe5b90602001906020020151611707565b9050611051838261350f565b8180600101925050610fec565b82925050509392505050565b60008060008061107861357f565b93503373ffffffffffffffffffffffffffffffffffffffff168473ffffffffffffffffffffffffffffffffffffffff16146110b357336110b6565b60005b9250600185019150600460008573ffffffffffffffffffffffffffffffffffffffff1673ffffffffffffffffffffffffffffffffffffffff16815260200190815260200160002060008473ffffffffffffffffffffffffffffffffffffffff1673ffffffffffffffffffffffffffffffffffffffff1681526020019081526020016000205490508082116040805190810160405280601781526020017f494e56414c49445f4e45575f4f524445525f45504f43480000000000000000008152509015156111b9576040517f08c379a00000000000000000000000000000000000000000000000000000000081526004016111b091906161d9565b60405180910390fd5b5081600460008673ffffffffffffffffffffffffffffffffffffffff1673ffffffffffffffffffffffffffffffffffffffff16815260200190815260200160002060008573ffffffffffffffffffffffffffffffffffffffff1673ffffffffffffffffffffffffffffffffffffffff168152602001908152602001600020819055508273ffffffffffffffffffffffffffffffffffffffff168473ffffffffffffffffffffffffffffffffffffffff167f82af639571738f4ebd4268fb0363d8957ebe1bbb9e78dba5ebd69eed39b154f084604051611298919061624d565b60405180910390a35050505050565b6112af6150f6565b60006112b96150f6565b600091505b85518210156113305761131786838151811015156112d857fe5b9060200190602002015186848151811015156112f057fe5b90602001906020020151868581518110151561130857fe5b90602001906020020151610d44565b9050611323838261350f565b81806001019250506112be565b82925050509392505050565b6000806000600160009054906101000a900473ffffffffffffffffffffffffffffffffffffffff1673ffffffffffffffffffffffffffffffffffffffff163373ffffffffffffffffffffffffffffffffffffffff16146040805190810160405280601381526020017f4f4e4c595f434f4e54524143545f4f574e45520000000000000000000000000081525090151561140b576040517f08c379a000000000000000000000000000000000000000000000000000000000815260040161140291906161d9565b60405180910390fd5b50600960008760ff1660ff16815260200190815260200160002060009054906101000a900473ffffffffffffffffffffffffffffffffffffffff1692508273ffffffffffffffffffffffffffffffffffffffff168473ffffffffffffffffffffffffffffffffffffffff16146040805190810160405280601481526020017f41535345545f50524f58595f4d49534d415443480000000000000000000000008152509015156114f0576040517f08c379a00000000000000000000000000000000000000000000000000000000081526004016114e791906161d9565b60405180910390fd5b50849150600073ffffffffffffffffffffffffffffffffffffffff168573ffffffffffffffffffffffffffffffffffffffff1614151561164c578173ffffffffffffffffffffffffffffffffffffffff1663ae25532e6040518163ffffffff167c0100000000000000000000000000000000000000000000000000000000028152600401602060405180830381600087803b15801561158e57600080fd5b505af11580156115a2573d6000803e3d6000fd5b505050506040513d601f19601f820116820180604052506115c69190810190615cf9565b90508560ff168160ff16146040805190810160405280601781526020017f41535345545f50524f58595f49445f4d49534d4154434800000000000000000081525090151561164a576040517f08c379a000000000000000000000000000000000000000000000000000000000815260040161164191906161d9565b60405180910390fd5b505b81600960008860ff1660ff16815260200190815260200160002060006101000a81548173ffffffffffffffffffffffffffffffffffffffff021916908373ffffffffffffffffffffffffffffffffffffffff1602179055507f27ef5f484e50f2daf7c2d82c60fe4ce409009541176eb64095beac369db1d2608686866040516116d793929190616268565b60405180910390a1505050505050565b60076020528060005260406000206000915054906101000a900460ff1681565b61170f6150f6565b61171a8484846129f9565b9050828160200151146040805190810160405280601481526020017f434f4d504c4554455f46494c4c5f4641494c454400000000000000000000000081525090151561179c576040517f08c379a000000000000000000000000000000000000000000000000000000000815260040161179391906161d9565b60405180910390fd5b508090509392505050565b60006117b161357f565b905081600660008373ffffffffffffffffffffffffffffffffffffffff1673ffffffffffffffffffffffffffffffffffffffff16815260200190815260200160002060008573ffffffffffffffffffffffffffffffffffffffff1673ffffffffffffffffffffffffffffffffffffffff16815260200190815260200160002060006101000a81548160ff0219169083151502179055508273ffffffffffffffffffffffffffffffffffffffff168173ffffffffffffffffffffffffffffffffffffffff167fa8656e308026eeabce8f0bc18048433252318ab80ac79da0b3d3d8697dfba891846040516118a49190616089565b60405180910390a3505050565b60066020528160005260406000206020528060005260406000206000915091509054906101000a900460ff1681565b6118e86150f6565b60606000806118f56150f6565b87600081518110151561190457fe5b9060200190602002015161016001519350600092505b87518310156119c05783888481518110151561193257fe5b906020019060200201516101600181905250611952878660200151613f22565b915061198d888481518110151561196557fe5b9060200190602002015183888681518110151561197e57fe5b906020019060200201516129f9565b90508351600181018552506119a2858261350f565b86856020015114156119b3576119c0565b828060010193505061191a565b849450505050509392505050565b60056020528160005260406000206020528060005260406000206000915091509054906101000a900460ff1681565b600160009054906101000a900473ffffffffffffffffffffffffffffffffffffffff1681565b6000600960008360ff1660ff16815260200190815260200160002060009054906101000a900473ffffffffffffffffffffffffffffffffffffffff169050919050565b60008060008060008060008060008951116040805190810160405280601e81526020017f4c454e4754485f475245415445525f5448414e5f305f52455155495245440000815250901515611af0576040517f08c379a0000000000000000000000000000000000000000000000000000000008152600401611ae791906161d9565b60405180910390fd5b50611afa89613f3b565b7f010000000000000000000000000000000000000000000000000000000000000090049650600980811115611b2b57fe5b60ff168760ff16106040805190810160405280601581526020017f5349474e41545552455f554e535550504f525445440000000000000000000000815250901515611bac576040517f08c379a0000000000000000000000000000000000000000000000000000000008152600401611ba391906161d9565b60405180910390fd5b508660ff166009811115611bbc57fe5b955060006009811115611bcb57fe5b866009811115611bd757fe5b1415611c4f576040805190810160405280601181526020017f5349474e41545552455f494c4c4547414c0000000000000000000000000000008152506040517f08c379a0000000000000000000000000000000000000000000000000000000008152600401611c4691906161d9565b60405180910390fd5b60016009811115611c5c57fe5b866009811115611c6857fe5b1415611cf95760008951146040805190810160405280601181526020017f4c454e4754485f305f5245515549524544000000000000000000000000000000815250901515611cec576040517f08c379a0000000000000000000000000000000000000000000000000000000008152600401611ce391906161d9565b60405180910390fd5b50600097508797506128c0565b60026009811115611d0657fe5b866009811115611d1257fe5b1415611ece5760418951146040805190810160405280601281526020017f4c454e4754485f36355f52455155495245440000000000000000000000000000815250901515611d96576040517f08c379a0000000000000000000000000000000000000000000000000000000008152600401611d8d91906161d9565b60405180910390fd5b50886000815181101515611da657fe5b9060200101517f010000000000000000000000000000000000000000000000000000000000000090047f0100000000000000000000000000000000000000000000000000000000000000027f010000000000000000000000000000000000000000000000000000000000000090049450611e2a60018a61405290919063ffffffff16565b9350611e4060218a61405290919063ffffffff16565b925060018b86868660405160008152602001604052604051611e65949392919061612d565b60206040516020810390808403906000865af1158015611e89573d6000803e3d6000fd5b5050506020604051035191508173ffffffffffffffffffffffffffffffffffffffff168a73ffffffffffffffffffffffffffffffffffffffff161497508797506128c0565b60036009811115611edb57fe5b866009811115611ee757fe5b14156121b65760418951146040805190810160405280601281526020017f4c454e4754485f36355f52455155495245440000000000000000000000000000815250901515611f6b576040517f08c379a0000000000000000000000000000000000000000000000000000000008152600401611f6291906161d9565b60405180910390fd5b50886000815181101515611f7b57fe5b9060200101517f010000000000000000000000000000000000000000000000000000000000000090047f0100000000000000000000000000000000000000000000000000000000000000027f010000000000000000000000000000000000000000000000000000000000000090049450611fff60018a61405290919063ffffffff16565b935061201560218a61405290919063ffffffff16565b925060016040805190810160405280601c81526020017f19457468657265756d205369676e6564204d6573736167653a0a3332000000008152508c6040516020018083805190602001908083835b6020831015156120885780518252602082019150602081019050602083039250612063565b6001836020036101000a0380198251168184511680821785525050505050509050018260001916600019168152602001925050506040516020818303038152906040526040518082805190602001908083835b60208310151561210057805182526020820191506020810190506020830392506120db565b6001836020036101000a03801982511681845116808217855250505050505090500191505060405180910390208686866040516000815260200160405260405161214d949392919061612d565b60206040516020810390808403906000865af1158015612171573d6000803e3d6000fd5b5050506020604051035191508173ffffffffffffffffffffffffffffffffffffffff168a73ffffffffffffffffffffffffffffffffffffffff161497508797506128c0565b600460098111156121c357fe5b8660098111156121cf57fe5b141561228d5760008951146040805190810160405280601181526020017f4c454e4754485f305f5245515549524544000000000000000000000000000000815250901515612253576040517f08c379a000000000000000000000000000000000000000000000000000000000815260040161224a91906161d9565b60405180910390fd5b503373ffffffffffffffffffffffffffffffffffffffff168a73ffffffffffffffffffffffffffffffffffffffff161497508797506128c0565b6005600981111561229a57fe5b8660098111156122a657fe5b141561235f578973ffffffffffffffffffffffffffffffffffffffff16631626ba7e8c8b6040518363ffffffff167c01000000000000000000000000000000000000000000000000000000000281526004016123039291906160fd565b602060405180830381600087803b15801561231d57600080fd5b505af1158015612331573d6000803e3d6000fd5b505050506040513d601f19601f820116820180604052506123559190810190615928565b97508797506128c0565b6006600981111561236c57fe5b86600981111561237857fe5b14156124d75761238789614112565b9050600660008b73ffffffffffffffffffffffffffffffffffffffff1673ffffffffffffffffffffffffffffffffffffffff16815260200190815260200160002060008273ffffffffffffffffffffffffffffffffffffffff1673ffffffffffffffffffffffffffffffffffffffff16815260200190815260200160002060009054906101000a900460ff16151561242257600097506128c0565b8073ffffffffffffffffffffffffffffffffffffffff1663936347028c8c8c6040518463ffffffff167c010000000000000000000000000000000000000000000000000000000002815260040161247b939291906160bf565b602060405180830381600087803b15801561249557600080fd5b505af11580156124a9573d6000803e3d6000fd5b505050506040513d601f19601f820116820180604052506124cd9190810190615928565b97508797506128c0565b600760098111156124e457fe5b8660098111156124f057fe5b141561256657600560008c6000191660001916815260200190815260200160002060008b73ffffffffffffffffffffffffffffffffffffffff1673ffffffffffffffffffffffffffffffffffffffff16815260200190815260200160002060009054906101000a900460ff1697508797506128c0565b6008600981111561257357fe5b86600981111561257f57fe5b141561284e5760418951146040805190810160405280601281526020017f4c454e4754485f36355f52455155495245440000000000000000000000000000815250901515612603576040517f08c379a00000000000000000000000000000000000000000000000000000000081526004016125fa91906161d9565b60405180910390fd5b5088600081518110151561261357fe5b9060200101517f010000000000000000000000000000000000000000000000000000000000000090047f0100000000000000000000000000000000000000000000000000000000000000027f01000000000000000000000000000000000000000000000000000000000000009004945061269760018a61405290919063ffffffff16565b93506126ad60218a61405290919063ffffffff16565b925060016040805190810160405280601b81526020017f19457468657265756d205369676e6564204d6573736167653a0a2000000000008152508c6040516020018083805190602001908083835b60208310151561272057805182526020820191506020810190506020830392506126fb565b6001836020036101000a0380198251168184511680821785525050505050509050018260001916600019168152602001925050506040516020818303038152906040526040518082805190602001908083835b6020831015156127985780518252602082019150602081019050602083039250612773565b6001836020036101000a0380198251168184511680821785525050505050509050019150506040518091039020868686604051600081526020016040526040516127e5949392919061612d565b60206040516020810390808403906000865af1158015612809573d6000803e3d6000fd5b5050506020604051035191508173ffffffffffffffffffffffffffffffffffffffff168a73ffffffffffffffffffffffffffffffffffffffff161497508797506128c0565b6040805190810160405280601581526020017f5349474e41545552455f554e535550504f5254454400000000000000000000008152506040517f08c379a00000000000000000000000000000000000000000000000000000000081526004016128b791906161d9565b60405180910390fd5b505050505050509392505050565b6128d66150f6565b606060008060006128e56150f6565b8860008151811015156128f457fe5b9060200190602002015161014001519450600093505b88518410156129ea5784898581518110151561292257fe5b906020019060200201516101400181905250612942888760000151613f22565b9250612985898581518110151561295557fe5b9060200190602002015160a001518a8681518110151561297157fe5b9060200190602002015160800151856141dc565b91506129c0898581518110151561299857fe5b906020019060200201518389878151811015156129b157fe5b90602001906020020151610d44565b90506129cc868261350f565b87866000015114156129dd576129ea565b838060010194505061290a565b85955050505050509392505050565b612a016150f6565b612a0961514e565b6000806000612a1788612ea5565b9350612a2161357f565b9250612a358860a001518560400151613f22565b9150612a4187836141fd565b9050612a518885858a858b61378c565b612a5b8882614216565b9450612a7288848660200151876040015189613b9f565b612a7d888487614291565b849450505050509392505050565b60008073ffffffffffffffffffffffffffffffffffffffff16600860009054906101000a900473ffffffffffffffffffffffffffffffffffffffff1673ffffffffffffffffffffffffffffffffffffffff16146040805190810160405280601281526020017f5245454e5452414e43595f494c4c4547414c0000000000000000000000000000815250901515612b57576040517f08c379a0000000000000000000000000000000000000000000000000000000008152600401612b4e91906161d9565b60405180910390fd5b50612b9d612b98888888888080601f0160208091040260200160405190810160405280939291908181526020018383808284378201915050505050506143cf565b6145be565b905060076000826000191660001916815260200190815260200160002060009054906101000a900460ff16156040805190810160405280600f81526020017f494e56414c49445f54585f484153480000000000000000000000000000000000815250901515612c42576040517f08c379a0000000000000000000000000000000000000000000000000000000008152600401612c3991906161d9565b60405180910390fd5b503373ffffffffffffffffffffffffffffffffffffffff168673ffffffffffffffffffffffffffffffffffffffff16141515612d7157612cb5818785858080601f016020809104026020016040519081016040528093929190818152602001838380828437820191505050505050611a66565b6040805190810160405280601481526020017f494e56414c49445f54585f5349474e4154555245000000000000000000000000815250901515612d2e576040517f08c379a0000000000000000000000000000000000000000000000000000000008152600401612d2591906161d9565b60405180910390fd5b5085600860006101000a81548173ffffffffffffffffffffffffffffffffffffffff021916908373ffffffffffffffffffffffffffffffffffffffff1602179055505b600160076000836000191660001916815260200190815260200160002060006101000a81548160ff0219169083151502179055503073ffffffffffffffffffffffffffffffffffffffff16858560405180838380828437820191505092505050600060405180830381855af49150506040805190810160405280601081526020017f4641494c45445f455845435554494f4e00000000000000000000000000000000815250901515612e59576040517f08c379a0000000000000000000000000000000000000000000000000000000008152600401612e5091906161d9565b60405180910390fd5b506000600860006101000a81548173ffffffffffffffffffffffffffffffffffffffff021916908373ffffffffffffffffffffffffffffffffffffffff16021790555050505050505050565b612ead61514e565b612eb6826146ed565b81602001906000191690816000191681525050600082608001511415612efc5760016006811115612ee357fe5b816000019060ff16908160ff16815250508090506130f2565b60008260a001511415612f2f5760026006811115612f1657fe5b816000019060ff16908160ff16815250508090506130f2565b81610100015142101515612f635760046006811115612f4a57fe5b816000019060ff16908160ff16815250508090506130f2565b6003600082602001516000191660001916815260200190815260200160002060009054906101000a900460ff1615612fba57600680811115612fa157fe5b816000019060ff16908160ff16815250508090506130f2565b81610120015160046000846000015173ffffffffffffffffffffffffffffffffffffffff1673ffffffffffffffffffffffffffffffffffffffff1681526020019081526020016000206000846060015173ffffffffffffffffffffffffffffffffffffffff1673ffffffffffffffffffffffffffffffffffffffff1681526020019081526020016000205411156130705760068081111561305757fe5b816000019060ff16908160ff16815250508090506130f2565b60026000826020015160001916600019168152602001908152602001600020548160400181815250508160a0015181604001511015156130d057600560068111156130b757fe5b816000019060ff16908160ff16815250508090506130f2565b600360068111156130dd57fe5b816000019060ff16908160ff16815250508090505b919050565b6130ff61514e565b61310882612ea5565b9050613114828261470a565b613122828260200151614943565b5050565b6004602052816000526040600020602052806000526040600020600091509150505481565b6131536150f6565b60606000806131606150f6565b87600081518110151561316f57fe5b9060200190602002015161016001519350600092505b87518310156132225783888481518110151561319d57fe5b9060200190602002015161016001819052506131bd878660200151613f22565b91506131f888848151811015156131d057fe5b906020019060200201518388868151811015156131e957fe5b90602001906020020151610d44565b9050613204858261350f565b868560200151141561321557613222565b8280600101935050613185565b849450505050509392505050565b60005481565b61323e6150f6565b6060600080600061324d6150f6565b88600081518110151561325c57fe5b9060200190602002015161014001519450600093505b885184101561335b5784898581518110151561328a57fe5b9060200190602002015161014001819052506132aa888760000151613f22565b92506132ed89858151811015156132bd57fe5b9060200190602002015160a001518a868151811015156132d957fe5b9060200190602002015160800151856141dc565b9150613328898581518110151561330057fe5b9060200190602002015183898781518110151561331957fe5b906020019060200201516129f9565b905084516001810186525061333d868261350f565b878660000151141561334e5761335b565b8380600101945050613272565b85955050505050509392505050565b600860009054906101000a900473ffffffffffffffffffffffffffffffffffffffff1681565b600160009054906101000a900473ffffffffffffffffffffffffffffffffffffffff1673ffffffffffffffffffffffffffffffffffffffff163373ffffffffffffffffffffffffffffffffffffffff16146040805190810160405280601381526020017f4f4e4c595f434f4e54524143545f4f574e45520000000000000000000000000081525090151561345a576040517f08c379a000000000000000000000000000000000000000000000000000000000815260040161345191906161d9565b60405180910390fd5b50600073ffffffffffffffffffffffffffffffffffffffff168173ffffffffffffffffffffffffffffffffffffffff161415156134d35780600160006101000a81548173ffffffffffffffffffffffffffffffffffffffff021916908373ffffffffffffffffffffffffffffffffffffffff1602179055505b50565b6040805190810160405280600b81526020017f322e302e312d616c70686100000000000000000000000000000000000000000081525081565b613521826000015182600001516149fb565b82600001818152505061353c826020015182602001516149fb565b826020018181525050613557826040015182604001516149fb565b826040018181525050613572826060015182606001516149fb565b8260600181815250505050565b600080600073ffffffffffffffffffffffffffffffffffffffff16600860009054906101000a900473ffffffffffffffffffffffffffffffffffffffff1673ffffffffffffffffffffffffffffffffffffffff161461360057600860009054906101000a900473ffffffffffffffffffffffffffffffffffffffff16613602565b335b90508091505090565b61361d8260a001518260a00151614a19565b61362f83608001518360800151614a19565b10156040805190810160405280601881526020017f4e454741544956455f5350524541445f524551554952454400000000000000008152509015156136aa576040517f08c379a00000000000000000000000000000000000000000000000000000000081526004016136a191906161d9565b60405180910390fd5b505050565b6136b761511f565b6000806000806136cb8960a0015188613f22565b93506136db8860a0015187613f22565b92506136eb838960800151614a19565b6136f9858a60a00151614a19565b11151561371d578391506137168860a001518960800151846141dc565b9050613736565b82905061373388608001518960a00151836141dc565b91505b6137408983614216565b85600001819052506137528882614216565b8560200181905250613774856000015160000151866020015160200151613f22565b85604001818152505084945050505050949350505050565b6003600681111561379957fe5b60ff16856000015160ff16146040805190810160405280601081526020017f4f524445525f554e46494c4c41424c450000000000000000000000000000000081525090151561381e576040517f08c379a000000000000000000000000000000000000000000000000000000000815260040161381591906161d9565b60405180910390fd5b5060008314156040805190810160405280601481526020017f494e56414c49445f54414b45525f414d4f554e5400000000000000000000000081525090151561389d576040517f08c379a000000000000000000000000000000000000000000000000000000000815260040161389491906161d9565b60405180910390fd5b50600073ffffffffffffffffffffffffffffffffffffffff16866060015173ffffffffffffffffffffffffffffffffffffffff16141515613986573373ffffffffffffffffffffffffffffffffffffffff16866060015173ffffffffffffffffffffffffffffffffffffffff16146040805190810160405280600e81526020017f494e56414c49445f53454e444552000000000000000000000000000000000000815250901515613984576040517f08c379a000000000000000000000000000000000000000000000000000000000815260040161397b91906161d9565b60405180910390fd5b505b600073ffffffffffffffffffffffffffffffffffffffff16866020015173ffffffffffffffffffffffffffffffffffffffff16141515613a6e578373ffffffffffffffffffffffffffffffffffffffff16866020015173ffffffffffffffffffffffffffffffffffffffff16146040805190810160405280600d81526020017f494e56414c49445f54414b455200000000000000000000000000000000000000815250901515613a6c576040517f08c379a0000000000000000000000000000000000000000000000000000000008152600401613a6391906161d9565b60405180910390fd5b505b600085604001511415613b0957613a8e8560200151876000015183611a66565b6040805190810160405280601781526020017f494e56414c49445f4f524445525f5349474e4154555245000000000000000000815250901515613b07576040517f08c379a0000000000000000000000000000000000000000000000000000000008152600401613afe91906161d9565b60405180910390fd5b505b613b1c828760a001518860800151614a4c565b156040805190810160405280600e81526020017f524f554e44494e475f4552524f52000000000000000000000000000000000000815250901515613b96576040517f08c379a0000000000000000000000000000000000000000000000000000000008152600401613b8d91906161d9565b60405180910390fd5b50505050505050565b613bad8282602001516149fb565b600260008560001916600019168152602001908152602001600020819055508260001916856040015173ffffffffffffffffffffffffffffffffffffffff16866000015173ffffffffffffffffffffffffffffffffffffffff167f0bcc4c97732e47d9946f229edb95f5b6323f601300e4690de719993f3c371129873386600001518760200151886040015189606001518e61014001518f6101600151604051613c5e989796959493929190615fb8565b60405180910390a45050505050565b600080613c7e866101400151613f3b565b7f010000000000000000000000000000000000000000000000000000000000000090049150613cb1856101400151613f3b565b7f010000000000000000000000000000000000000000000000000000000000000090049050613cf88661014001518388600001518860000151876020015160200151614aa7565b613d1a8561014001518287600001518960000151876000015160200151614aa7565b613d34866101400151838860000151878760400151614aa7565b613d876040805190810160405280601481526020017f6ff6c0ff1d68b964901f986d4c9fa3ac68346570000000000000000000000000815250600188600001518960400151876000015160400151614aa7565b613dda6040805190810160405280601481526020017f6ff6c0ff1d68b964901f986d4c9fa3ac68346570000000000000000000000000815250600187600001518860400151876020015160400151614aa7565b846040015173ffffffffffffffffffffffffffffffffffffffff16866040015173ffffffffffffffffffffffffffffffffffffffff161415613e7b57613e766040805190810160405280601481526020017f6ff6c0ff1d68b964901f986d4c9fa3ac683465700000000000000000000000008152506001868960400151613e718860000151606001518960200151606001516149fb565b614aa7565b613f1a565b613eca6040805190810160405280601481526020017f6ff6c0ff1d68b964901f986d4c9fa3ac683465700000000000000000000000008152506001868960400151876000015160600151614aa7565b613f196040805190810160405280601481526020017f6ff6c0ff1d68b964901f986d4c9fa3ac683465700000000000000000000000008152506001868860400151876020015160600151614aa7565b5b505050505050565b6000828211151515613f3057fe5b818303905092915050565b600080825111606060405190810160405280602181526020017f475245415445525f5448414e5f5a45524f5f4c454e4754485f5245515549524581526020017f4400000000000000000000000000000000000000000000000000000000000000815250901515613fe1576040517f08c379a0000000000000000000000000000000000000000000000000000000008152600401613fd891906161d9565b60405180910390fd5b50816001835103815181101515613ff457fe5b9060200101517f010000000000000000000000000000000000000000000000000000000000000090047f0100000000000000000000000000000000000000000000000000000000000000029050600182510380835250809050919050565b60006020820183511015606060405190810160405280602681526020017f475245415445525f4f525f455155414c5f544f5f33325f4c454e4754485f524581526020017f51554952454400000000000000000000000000000000000000000000000000008152509015156140fc576040517f08c379a00000000000000000000000000000000000000000000000000000000081526004016140f391906161d9565b60405180910390fd5b5060208201915081830151905080905092915050565b6000601482511015606060405190810160405280602681526020017f475245415445525f4f525f455155414c5f544f5f32305f4c454e4754485f524581526020017f51554952454400000000000000000000000000000000000000000000000000008152509015156141ba576040517f08c379a00000000000000000000000000000000000000000000000000000000081526004016141b191906161d9565b60405180910390fd5b506141c9826014845103614c2e565b9050601482510380835250809050919050565b60006141f16141eb8584614a19565b84614d04565b90508090509392505050565b600081831061420c578161420e565b825b905092915050565b61421e6150f6565b8181602001818152505061423f81602001518460a0015185608001516141dc565b81600001818152505061425f81602001518460a001518560c001516141dc565b81604001818152505061427f81602001518460a001518560e001516141dc565b81606001818152505080905092915050565b6000806142a2856101400151613f3b565b7f0100000000000000000000000000000000000000000000000000000000000000900491506142d5856101600151613f3b565b7f010000000000000000000000000000000000000000000000000000000000000090049050614314856101400151838760000151878760000151614aa7565b61432e856101600151828688600001518760200151614aa7565b61437d6040805190810160405280601481526020017f6ff6c0ff1d68b964901f986d4c9fa3ac683465700000000000000000000000008152506001876000015188604001518760400151614aa7565b6143c86040805190810160405280601481526020017f6ff6c0ff1d68b964901f986d4c9fa3ac6834657000000000000000000000000081525060018688604001518760600151614aa7565b5050505050565b600080600060405160200180807f5a65726f45785472616e73616374696f6e280000000000000000000000000000815250601201807f75696e743235362073616c742c00000000000000000000000000000000000000815250600d01807f61646472657373207369676e6572416464726573732c00000000000000000000815250601601807f6279746573206461746100000000000000000000000000000000000000000000815250600a01807f290000000000000000000000000000000000000000000000000000000000000081525060010190506040516020818303038152906040526040518082805190602001908083835b6020831015156144e957805182526020820191506020810190506020830392506144c4565b6001836020036101000a03801982511681845116808217855250505050505090500191505060405180910390209150836040518082805190602001908083835b60208310151561454e5780518252602082019150602081019050602083039250614529565b6001836020036101000a0380198251168184511680821785525050505050509050019150506040518091039020905060405182815286602082015273ffffffffffffffffffffffffffffffffffffffff861660408201528160608201526080812093505082925050509392505050565b60006040805190810160405280600281526020017f1901000000000000000000000000000000000000000000000000000000000000815250600054836040516020018084805190602001908083835b602083101515614632578051825260208201915060208101905060208303925061460d565b6001836020036101000a0380198251168184511680821785525050505050509050018360001916600019168152602001826000191660001916815260200193505050506040516020818303038152906040526040518082805190602001908083835b6020831015156146b95780518252602082019150602081019050602083039250614694565b6001836020036101000a03801982511681845116808217855250505050505090500191505060405180910390209050919050565b60006147006146fb83614d1f565b6145be565b9050809050919050565b60006003600681111561471957fe5b60ff16826000015160ff16146040805190810160405280601081526020017f4f524445525f554e46494c4c41424c450000000000000000000000000000000081525090151561479e576040517f08c379a000000000000000000000000000000000000000000000000000000000815260040161479591906161d9565b60405180910390fd5b50600073ffffffffffffffffffffffffffffffffffffffff16836060015173ffffffffffffffffffffffffffffffffffffffff16141515614887573373ffffffffffffffffffffffffffffffffffffffff16836060015173ffffffffffffffffffffffffffffffffffffffff16146040805190810160405280600e81526020017f494e56414c49445f53454e444552000000000000000000000000000000000000815250901515614885576040517f08c379a000000000000000000000000000000000000000000000000000000000815260040161487c91906161d9565b60405180910390fd5b505b61488f61357f565b90508073ffffffffffffffffffffffffffffffffffffffff16836000015173ffffffffffffffffffffffffffffffffffffffff16146040805190810160405280600d81526020017f494e56414c49445f4d414b45520000000000000000000000000000000000000081525090151561493d576040517f08c379a000000000000000000000000000000000000000000000000000000000815260040161493491906161d9565b60405180910390fd5b50505050565b600160036000836000191660001916815260200190815260200160002060006101000a81548160ff0219169083151502179055508060001916826040015173ffffffffffffffffffffffffffffffffffffffff16836000015173ffffffffffffffffffffffffffffffffffffffff167fdc47b3613d9fe400085f6dbdc99453462279057e6207385042827ed6b1a62cf7338661014001518761016001516040516149ef93929190616044565b60405180910390a45050565b6000808284019050838110151515614a0f57fe5b8091505092915050565b60008082840290506000841480614a3a5750828482811515614a3757fe5b04145b1515614a4257fe5b8091505092915050565b600080600084801515614a5b57fe5b86850991506000821415614a725760009250614a9e565b614a91614a8283620f4240614a19565b614a8c8887614a19565b614d04565b90506103e8811192508292505b50509392505050565b600080821115614c2657600960008660ff1660ff16815260200190815260200160002060009054906101000a900473ffffffffffffffffffffffffffffffffffffffff169050600073ffffffffffffffffffffffffffffffffffffffff168173ffffffffffffffffffffffffffffffffffffffff1614156040805190810160405280601a81526020017f41535345545f50524f58595f444f45535f4e4f545f4558495354000000000000815250901515614b97576040517f08c379a0000000000000000000000000000000000000000000000000000000008152600401614b8e91906161d9565b60405180910390fd5b508073ffffffffffffffffffffffffffffffffffffffff1663a85e59e4878686866040518563ffffffff167c0100000000000000000000000000000000000000000000000000000000028152600401614bf39493929190616172565b600060405180830381600087803b158015614c0d57600080fd5b505af1158015614c21573d6000803e3d6000fd5b505050505b505050505050565b60006014820183511015606060405190810160405280602681526020017f475245415445525f4f525f455155414c5f544f5f32305f4c454e4754485f524581526020017f5155495245440000000000000000000000000000000000000000000000000000815250901515614cd8576040517f08c379a0000000000000000000000000000000000000000000000000000000008152600401614ccf91906161d9565b60405180910390fd5b5060148201915073ffffffffffffffffffffffffffffffffffffffff8284015116905080905092915050565b6000808284811515614d1257fe5b0490508091505092915050565b60008060008060405160200180807f4f72646572280000000000000000000000000000000000000000000000000000815250600601807f61646472657373206d616b6572416464726573732c0000000000000000000000815250601501807f616464726573732074616b6572416464726573732c0000000000000000000000815250601501807f6164647265737320666565526563697069656e74416464726573732c00000000815250601c01807f616464726573732073656e646572416464726573732c00000000000000000000815250601601807f75696e74323536206d616b65724173736574416d6f756e742c00000000000000815250601901807f75696e743235362074616b65724173736574416d6f756e742c00000000000000815250601901807f75696e74323536206d616b65724665652c000000000000000000000000000000815250601101807f75696e743235362074616b65724665652c000000000000000000000000000000815250601101807f75696e743235362065787069726174696f6e54696d655365636f6e64732c0000815250601e01807f75696e743235362073616c742c00000000000000000000000000000000000000815250600d01807f6279746573206d616b65724173736574446174612c0000000000000000000000815250601501807f62797465732074616b6572417373657444617461000000000000000000000000815250601401807f290000000000000000000000000000000000000000000000000000000000000081525060010190506040516020818303038152906040526040518082805190602001908083835b602083101515614fa25780518252602082019150602081019050602083039250614f7d565b6001836020036101000a038019825116818451168082178552505050505050905001915050604051809103902092508461014001516040518082805190602001908083835b60208310151561500c5780518252602082019150602081019050602083039250614fe7565b6001836020036101000a038019825116818451168082178552505050505050905001915050604051809103902091508461016001516040518082805190602001908083835b6020831015156150765780518252602082019150602081019050602083039250615051565b6001836020036101000a03801982511681845116808217855250505050505090500191505060405180910390209050602085035161014086015161016087015185602089035284610140890152836101608901526101a0602089032096508260208903528161014089015280610160890152505050839350505050919050565b608060405190810160405280600081526020016000815260200160008152602001600081525090565b61012060405190810160405280615134615176565b8152602001615141615176565b8152602001600081525090565b606060405190810160405280600060ff16815260200160008019168152602001600081525090565b608060405190810160405280600081526020016000815260200160008152602001600081525090565b60006151ab823561640a565b905092915050565b600082601f83011215156151c657600080fd5b81356151d96151d4826162cc565b61629f565b9150818183526020840193506020810190508360005b8381101561521f578135860161520588826153ac565b8452602084019350602083019250506001810190506151ef565b5050505092915050565b600082601f830112151561523c57600080fd5b813561524f61524a826162f4565b61629f565b9150818183526020840193506020810190508360005b83811015615295578135860161527b8882615458565b845260208401935060208301925050600181019050615265565b5050505092915050565b600082601f83011215156152b257600080fd5b81356152c56152c08261631c565b61629f565b915081818352602084019350602081019050838560208402820111156152ea57600080fd5b60005b8381101561531a578161530088826156f4565b8452602084019350602083019250506001810190506152ed565b5050505092915050565b6000615330823561642a565b905092915050565b6000615344825161642a565b905092915050565b60006153588235616436565b905092915050565b60008083601f840112151561537457600080fd5b8235905067ffffffffffffffff81111561538d57600080fd5b6020830191508360018202830111156153a557600080fd5b9250929050565b600082601f83011215156153bf57600080fd5b81356153d26153cd82616344565b61629f565b915080825260208301602083018583830111156153ee57600080fd5b6153f9838284616469565b50505092915050565b600082601f830112151561541557600080fd5b813561542861542382616370565b61629f565b9150808252602083016020830185838301111561544457600080fd5b61544f838284616469565b50505092915050565b6000610180828403121561546b57600080fd5b61547661018061629f565b905060006154868482850161519f565b600083015250602061549a8482850161519f565b60208301525060406154ae8482850161519f565b60408301525060606154c28482850161519f565b60608301525060806154d6848285016156f4565b60808301525060a06154ea848285016156f4565b60a08301525060c06154fe848285016156f4565b60c08301525060e0615512848285016156f4565b60e083015250610100615527848285016156f4565b6101008301525061012061553d848285016156f4565b6101208301525061014082013567ffffffffffffffff81111561555f57600080fd5b61556b848285016153ac565b6101408301525061016082013567ffffffffffffffff81111561558d57600080fd5b615599848285016153ac565b6101608301525092915050565b600061018082840312156155b957600080fd5b6155c461018061629f565b905060006155d48482850161519f565b60008301525060206155e88482850161519f565b60208301525060406155fc8482850161519f565b60408301525060606156108482850161519f565b6060830152506080615624848285016156f4565b60808301525060a0615638848285016156f4565b60a08301525060c061564c848285016156f4565b60c08301525060e0615660848285016156f4565b60e083015250610100615675848285016156f4565b6101008301525061012061568b848285016156f4565b6101208301525061014082013567ffffffffffffffff8111156156ad57600080fd5b6156b9848285016153ac565b6101408301525061016082013567ffffffffffffffff8111156156db57600080fd5b6156e7848285016153ac565b6101608301525092915050565b60006157008235616440565b905092915050565b6000615714823561644a565b905092915050565b6000615728825161644a565b905092915050565b60006020828403121561574257600080fd5b60006157508482850161519f565b91505092915050565b6000806040838503121561576c57600080fd5b600061577a8582860161519f565b925050602061578b8582860161519f565b9150509250929050565b600080604083850312156157a857600080fd5b60006157b68582860161519f565b92505060206157c785828601615324565b9150509250929050565b6000602082840312156157e357600080fd5b600082013567ffffffffffffffff8111156157fd57600080fd5b61580984828501615229565b91505092915050565b60008060006060848603121561582757600080fd5b600084013567ffffffffffffffff81111561584157600080fd5b61584d86828701615229565b935050602084013567ffffffffffffffff81111561586a57600080fd5b6158768682870161529f565b925050604084013567ffffffffffffffff81111561589357600080fd5b61589f868287016151b3565b9150509250925092565b6000806000606084860312156158be57600080fd5b600084013567ffffffffffffffff8111156158d857600080fd5b6158e486828701615229565b93505060206158f5868287016156f4565b925050604084013567ffffffffffffffff81111561591257600080fd5b61591e868287016151b3565b9150509250925092565b60006020828403121561593a57600080fd5b600061594884828501615338565b91505092915050565b60006020828403121561596357600080fd5b60006159718482850161534c565b91505092915050565b6000806040838503121561598d57600080fd5b600061599b8582860161534c565b92505060206159ac8582860161519f565b9150509250929050565b600080600080606085870312156159cc57600080fd5b60006159da8782880161534c565b94505060206159eb8782880161519f565b935050604085013567ffffffffffffffff811115615a0857600080fd5b615a1487828801615360565b925092505092959194509250565b600080600060608486031215615a3757600080fd5b6000615a458682870161534c565b9350506020615a568682870161519f565b925050604084013567ffffffffffffffff811115615a7357600080fd5b615a7f86828701615402565b9150509250925092565b600060208284031215615a9b57600080fd5b600082013567ffffffffffffffff811115615ab557600080fd5b615ac1848285016155a6565b91505092915050565b60008060008060808587031215615ae057600080fd5b600085013567ffffffffffffffff811115615afa57600080fd5b615b06878288016155a6565b945050602085013567ffffffffffffffff811115615b2357600080fd5b615b2f878288016155a6565b935050604085013567ffffffffffffffff811115615b4c57600080fd5b615b5887828801615402565b925050606085013567ffffffffffffffff811115615b7557600080fd5b615b8187828801615402565b91505092959194509250565b600080600060608486031215615ba257600080fd5b600084013567ffffffffffffffff811115615bbc57600080fd5b615bc8868287016155a6565b9350506020615bd9868287016156f4565b925050604084013567ffffffffffffffff811115615bf657600080fd5b615c0286828701615402565b9150509250925092565b600060208284031215615c1e57600080fd5b6000615c2c848285016156f4565b91505092915050565b60008060008060008060808789031215615c4e57600080fd5b6000615c5c89828a016156f4565b9650506020615c6d89828a0161519f565b955050604087013567ffffffffffffffff811115615c8a57600080fd5b615c9689828a01615360565b9450945050606087013567ffffffffffffffff811115615cb557600080fd5b615cc189828a01615360565b92509250509295509295509295565b600060208284031215615ce257600080fd5b6000615cf084828501615708565b91505092915050565b600060208284031215615d0b57600080fd5b6000615d198482850161571c565b91505092915050565b600080600060608486031215615d3757600080fd5b6000615d4586828701615708565b9350506020615d568682870161519f565b9250506040615d678682870161519f565b9150509250925092565b615d7a816163bd565b82525050565b615d89816163dd565b82525050565b615d98816163e9565b82525050565b6000615da9826163a7565b808452615dbd816020860160208601616478565b615dc6816164ab565b602085010191505092915050565b6000615ddf8261639c565b808452615df3816020860160208601616478565b615dfc816164ab565b602085010191505092915050565b615e1381616457565b82525050565b6000615e24826163b2565b808452615e38816020860160208601616478565b615e41816164ab565b602085010191505092915050565b608082016000820151615e656000850182615f7f565b506020820151615e786020850182615f7f565b506040820151615e8b6040850182615f7f565b506060820151615e9e6060850182615f7f565b50505050565b608082016000820151615eba6000850182615f7f565b506020820151615ecd6020850182615f7f565b506040820151615ee06040850182615f7f565b506060820151615ef36060850182615f7f565b50505050565b61012082016000820151615f106000850182615ea4565b506020820151615f236080850182615ea4565b506040820151615f37610100850182615f7f565b50505050565b606082016000820151615f536000850182615f8e565b506020820151615f666020850182615d8f565b506040820151615f796040850182615f7f565b50505050565b615f88816163f3565b82525050565b615f97816163fd565b82525050565b6000602082019050615fb26000830184615d71565b92915050565b600061010082019050615fce600083018b615d71565b615fdb602083018a615d71565b615fe86040830189615f7f565b615ff56060830188615f7f565b6160026080830187615f7f565b61600f60a0830186615f7f565b81810360c08301526160218185615dd4565b905081810360e08301526160358184615dd4565b90509998505050505050505050565b60006060820190506160596000830186615d71565b818103602083015261606b8185615dd4565b9050818103604083015261607f8184615dd4565b9050949350505050565b600060208201905061609e6000830184615d80565b92915050565b60006020820190506160b96000830184615d8f565b92915050565b60006060820190506160d46000830186615d8f565b6160e16020830185615d71565b81810360408301526160f38184615d9e565b9050949350505050565b60006040820190506161126000830185615d8f565b81810360208301526161248184615d9e565b90509392505050565b60006080820190506161426000830187615d8f565b61614f6020830186615f8e565b61615c6040830185615d8f565b6161696060830184615d8f565b95945050505050565b6000608082019050818103600083015261618c8187615d9e565b905061619b6020830186615d71565b6161a86040830185615d71565b6161b56060830184615f7f565b95945050505050565b60006020820190506161d36000830184615e0a565b92915050565b600060208201905081810360008301526161f38184615e19565b905092915050565b60006080820190506162106000830184615e4f565b92915050565b60006101208201905061622c6000830184615ef9565b92915050565b60006060820190506162476000830184615f3d565b92915050565b60006020820190506162626000830184615f7f565b92915050565b600060608201905061627d6000830186615f8e565b61628a6020830185615d71565b6162976040830184615d71565b949350505050565b6000604051905081810181811067ffffffffffffffff821117156162c257600080fd5b8060405250919050565b600067ffffffffffffffff8211156162e357600080fd5b602082029050602081019050919050565b600067ffffffffffffffff82111561630b57600080fd5b602082029050602081019050919050565b600067ffffffffffffffff82111561633357600080fd5b602082029050602081019050919050565b600067ffffffffffffffff82111561635b57600080fd5b601f19601f8301169050602081019050919050565b600067ffffffffffffffff82111561638757600080fd5b601f19601f8301169050602081019050919050565b600081519050919050565b600081519050919050565b600081519050919050565b600073ffffffffffffffffffffffffffffffffffffffff82169050919050565b60008115159050919050565b6000819050919050565b6000819050919050565b600060ff82169050919050565b600073ffffffffffffffffffffffffffffffffffffffff82169050919050565b60008115159050919050565b6000819050919050565b6000819050919050565b600060ff82169050919050565b6000616462826163bd565b9050919050565b82818337600083830152505050565b60005b8381101561649657808201518184015260208101905061647b565b838111156164a5576000848401525b50505050565b6000601f19601f83011690509190505600a265627a7a7230582030a528be850bae9c741d6ac8409e321d128fab87cb72f823df6e3d822b2ade616c6578706572696d656e74616cf50037",
				"opcodes": "PUSH1 0x80 PUSH1 0x40 MSTORE CALLVALUE DUP1 ISZERO PUSH3 0x11 JUMPI PUSH1 0x0 DUP1 REVERT JUMPDEST POP PUSH1 0x40 MLOAD PUSH1 0x20 ADD DUP1 DUP1 PUSH32 0x454950373132446F6D61696E2800000000000000000000000000000000000000 DUP2 MSTORE POP PUSH1 0xD ADD DUP1 PUSH32 0x737472696E67206E616D652C0000000000000000000000000000000000000000 DUP2 MSTORE POP PUSH1 0xC ADD DUP1 PUSH32 0x737472696E672076657273696F6E2C0000000000000000000000000000000000 DUP2 MSTORE POP PUSH1 0xF ADD DUP1 PUSH32 0x6164647265737320766572696679696E67436F6E747261637400000000000000 DUP2 MSTORE POP PUSH1 0x19 ADD DUP1 PUSH32 0x2900000000000000000000000000000000000000000000000000000000000000 DUP2 MSTORE POP PUSH1 0x1 ADD SWAP1 POP PUSH1 0x40 MLOAD PUSH1 0x20 DUP2 DUP4 SUB SUB DUP2 MSTORE SWAP1 PUSH1 0x40 MSTORE PUSH1 0x40 MLOAD DUP1 DUP3 DUP1 MLOAD SWAP1 PUSH1 0x20 ADD SWAP1 DUP1 DUP4 DUP4 JUMPDEST PUSH1 0x20 DUP4 LT ISZERO ISZERO PUSH3 0x129 JUMPI DUP1 MLOAD DUP3 MSTORE PUSH1 0x20 DUP3 ADD SWAP2 POP PUSH1 0x20 DUP2 ADD SWAP1 POP PUSH1 0x20 DUP4 SUB SWAP3 POP PUSH3 0x102 JUMP JUMPDEST PUSH1 0x1 DUP4 PUSH1 0x20 SUB PUSH2 0x100 EXP SUB DUP1 NOT DUP3 MLOAD AND DUP2 DUP5 MLOAD AND DUP1 DUP3 OR DUP6 MSTORE POP POP POP POP POP POP SWAP1 POP ADD SWAP2 POP POP PUSH1 0x40 MLOAD DUP1 SWAP2 SUB SWAP1 KECCAK256 PUSH1 0x40 DUP1 MLOAD SWAP1 DUP2 ADD PUSH1 0x40 MSTORE DUP1 PUSH1 0xB DUP2 MSTORE PUSH1 0x20 ADD PUSH32 0x30782050726F746F636F6C000000000000000000000000000000000000000000 DUP2 MSTORE POP PUSH1 0x40 MLOAD DUP1 DUP3 DUP1 MLOAD SWAP1 PUSH1 0x20 ADD SWAP1 DUP1 DUP4 DUP4 JUMPDEST PUSH1 0x20 DUP4 LT ISZERO ISZERO PUSH3 0x1C3 JUMPI DUP1 MLOAD DUP3 MSTORE PUSH1 0x20 DUP3 ADD SWAP2 POP PUSH1 0x20 DUP2 ADD SWAP1 POP PUSH1 0x20 DUP4 SUB SWAP3 POP PUSH3 0x19C JUMP JUMPDEST PUSH1 0x1 DUP4 PUSH1 0x20 SUB PUSH2 0x100 EXP SUB DUP1 NOT DUP3 MLOAD AND DUP2 DUP5 MLOAD AND DUP1 DUP3 OR DUP6 MSTORE POP POP POP POP POP POP SWAP1 POP ADD SWAP2 POP POP PUSH1 0x40 MLOAD DUP1 SWAP2 SUB SWAP1 KECCAK256 PUSH1 0x40 DUP1 MLOAD SWAP1 DUP2 ADD PUSH1 0x40 MSTORE DUP1 PUSH1 0x1 DUP2 MSTORE PUSH1 0x20 ADD PUSH32 0x3200000000000000000000000000000000000000000000000000000000000000 DUP2 MSTORE POP PUSH1 0x40 MLOAD DUP1 DUP3 DUP1 MLOAD SWAP1 PUSH1 0x20 ADD SWAP1 DUP1 DUP4 DUP4 JUMPDEST PUSH1 0x20 DUP4 LT ISZERO ISZERO PUSH3 0x25D JUMPI DUP1 MLOAD DUP3 MSTORE PUSH1 0x20 DUP3 ADD SWAP2 POP PUSH1 0x20 DUP2 ADD SWAP1 POP PUSH1 0x20 DUP4 SUB SWAP3 POP PUSH3 0x236 JUMP JUMPDEST PUSH1 0x1 DUP4 PUSH1 0x20 SUB PUSH2 0x100 EXP SUB DUP1 NOT DUP3 MLOAD AND DUP2 DUP5 MLOAD AND DUP1 DUP3 OR DUP6 MSTORE POP POP POP POP POP POP SWAP1 POP ADD SWAP2 POP POP PUSH1 0x40 MLOAD DUP1 SWAP2 SUB SWAP1 KECCAK256 ADDRESS PUSH1 0x40 MLOAD PUSH1 0x20 ADD PUSH3 0x2A0 SWAP5 SWAP4 SWAP3 SWAP2 SWAP1 PUSH3 0x386 JUMP JUMPDEST PUSH1 0x40 MLOAD PUSH1 0x20 DUP2 DUP4 SUB SUB DUP2 MSTORE SWAP1 PUSH1 0x40 MSTORE PUSH1 0x40 MLOAD DUP1 DUP3 DUP1 MLOAD SWAP1 PUSH1 0x20 ADD SWAP1 DUP1 DUP4 DUP4 JUMPDEST PUSH1 0x20 DUP4 LT ISZERO ISZERO PUSH3 0x2E6 JUMPI DUP1 MLOAD DUP3 MSTORE PUSH1 0x20 DUP3 ADD SWAP2 POP PUSH1 0x20 DUP2 ADD SWAP1 POP PUSH1 0x20 DUP4 SUB SWAP3 POP PUSH3 0x2BF JUMP JUMPDEST PUSH1 0x1 DUP4 PUSH1 0x20 SUB PUSH2 0x100 EXP SUB DUP1 NOT DUP3 MLOAD AND DUP2 DUP5 MLOAD AND DUP1 DUP3 OR DUP6 MSTORE POP POP POP POP POP POP SWAP1 POP ADD SWAP2 POP POP PUSH1 0x40 MLOAD DUP1 SWAP2 SUB SWAP1 KECCAK256 PUSH1 0x0 DUP2 PUSH1 0x0 NOT AND SWAP1 SSTORE POP CALLER PUSH1 0x1 PUSH1 0x0 PUSH2 0x100 EXP DUP2 SLOAD DUP2 PUSH20 0xFFFFFFFFFFFFFFFFFFFFFFFFFFFFFFFFFFFFFFFF MUL NOT AND SWAP1 DUP4 PUSH20 0xFFFFFFFFFFFFFFFFFFFFFFFFFFFFFFFFFFFFFFFF AND MUL OR SWAP1 SSTORE POP PUSH3 0x3FD JUMP JUMPDEST PUSH3 0x36F DUP2 PUSH3 0x3D3 JUMP JUMPDEST DUP3 MSTORE POP POP JUMP JUMPDEST PUSH3 0x380 DUP2 PUSH3 0x3F3 JUMP JUMPDEST DUP3 MSTORE POP POP JUMP JUMPDEST PUSH1 0x0 PUSH1 0x80 DUP3 ADD SWAP1 POP PUSH3 0x39D PUSH1 0x0 DUP4 ADD DUP8 PUSH3 0x375 JUMP JUMPDEST PUSH3 0x3AC PUSH1 0x20 DUP4 ADD DUP7 PUSH3 0x375 JUMP JUMPDEST PUSH3 0x3BB PUSH1 0x40 DUP4 ADD DUP6 PUSH3 0x375 JUMP JUMPDEST PUSH3 0x3CA PUSH1 0x60 DUP4 ADD DUP5 PUSH3 0x364 JUMP JUMPDEST SWAP6 SWAP5 POP POP POP POP POP JUMP JUMPDEST PUSH1 0x0 PUSH20 0xFFFFFFFFFFFFFFFFFFFFFFFFFFFFFFFFFFFFFFFF DUP3 AND SWAP1 POP SWAP2 SWAP1 POP JUMP JUMPDEST PUSH1 0x0 DUP2 SWAP1 POP SWAP2 SWAP1 POP JUMP JUMPDEST PUSH2 0x64F6 DUP1 PUSH3 0x40D PUSH1 0x0 CODECOPY PUSH1 0x0 RETURN STOP PUSH1 0x80 PUSH1 0x40 MSTORE PUSH1 0x4 CALLDATASIZE LT PUSH2 0x1AC JUMPI PUSH1 0x0 CALLDATALOAD PUSH29 0x100000000000000000000000000000000000000000000000000000000 SWAP1 DIV PUSH4 0xFFFFFFFF AND DUP1 PUSH4 0x2624B2D9 EQ PUSH2 0x1B1 JUMPI DUP1 PUSH4 0x288CDC91 EQ PUSH2 0x1DC JUMPI DUP1 PUSH4 0x297BB70B EQ PUSH2 0x219 JUMPI DUP1 PUSH4 0x2AC12622 EQ PUSH2 0x256 JUMPI DUP1 PUSH4 0x3683EF8E EQ PUSH2 0x293 JUMPI DUP1 PUSH4 0x38077164 EQ PUSH2 0x2BC JUMPI DUP1 PUSH4 0x3C28D861 EQ PUSH2 0x2F9 JUMPI DUP1 PUSH4 0x3E228BAE EQ PUSH2 0x336 JUMPI DUP1 PUSH4 0x4AC14782 EQ PUSH2 0x373 JUMPI DUP1 PUSH4 0x4D0AE546 EQ PUSH2 0x39C JUMPI DUP1 PUSH4 0x4F9559B1 EQ PUSH2 0x3D9 JUMPI DUP1 PUSH4 0x50DDE190 EQ PUSH2 0x402 JUMPI DUP1 PUSH4 0x5C78D0C7 EQ PUSH2 0x43F JUMPI DUP1 PUSH4 0x642F2EAF EQ PUSH2 0x468 JUMPI DUP1 PUSH4 0x64A3BC15 EQ PUSH2 0x4A5 JUMPI DUP1 PUSH4 0x77FCCE68 EQ PUSH2 0x4E2 JUMPI DUP1 PUSH4 0x7B8E3514 EQ PUSH2 0x50B JUMPI DUP1 PUSH4 0x7E1D9808 EQ PUSH2 0x548 JUMPI DUP1 PUSH4 0x82C174D0 EQ PUSH2 0x585 JUMPI DUP1 PUSH4 0x8DA5CB5B EQ PUSH2 0x5C2 JUMPI DUP1 PUSH4 0x92C1421E EQ PUSH2 0x5ED JUMPI DUP1 PUSH4 0x93634702 EQ PUSH2 0x62A JUMPI DUP1 PUSH4 0xA3E20380 EQ PUSH2 0x667 JUMPI DUP1 PUSH4 0xB4BE83D5 EQ PUSH2 0x6A4 JUMPI DUP1 PUSH4 0xBFC8BFCE EQ PUSH2 0x6E1 JUMPI DUP1 PUSH4 0xC75E0A81 EQ PUSH2 0x70A JUMPI DUP1 PUSH4 0xD46B02C3 EQ PUSH2 0x747 JUMPI DUP1 PUSH4 0xD9BFA73E EQ PUSH2 0x770 JUMPI DUP1 PUSH4 0xDD1C7D18 EQ PUSH2 0x7AD JUMPI DUP1 PUSH4 0xE306F779 EQ PUSH2 0x7EA JUMPI DUP1 PUSH4 0xE5FA431B EQ PUSH2 0x815 JUMPI DUP1 PUSH4 0xEEA086BA EQ PUSH2 0x852 JUMPI DUP1 PUSH4 0xF2FDE38B EQ PUSH2 0x87D JUMPI DUP1 PUSH4 0xFFA1AD74 EQ PUSH2 0x8A6 JUMPI JUMPDEST PUSH1 0x0 DUP1 REVERT JUMPDEST CALLVALUE DUP1 ISZERO PUSH2 0x1BD JUMPI PUSH1 0x0 DUP1 REVERT JUMPDEST POP PUSH2 0x1C6 PUSH2 0x8D1 JUMP JUMPDEST PUSH1 0x40 MLOAD PUSH2 0x1D3 SWAP2 SWAP1 PUSH2 0x60A4 JUMP JUMPDEST PUSH1 0x40 MLOAD DUP1 SWAP2 SUB SWAP1 RETURN JUMPDEST CALLVALUE DUP1 ISZERO PUSH2 0x1E8 JUMPI PUSH1 0x0 DUP1 REVERT JUMPDEST POP PUSH2 0x203 PUSH1 0x4 DUP1 CALLDATASIZE SUB PUSH2 0x1FE SWAP2 SWAP1 DUP2 ADD SWAP1 PUSH2 0x5951 JUMP JUMPDEST PUSH2 0xA16 JUMP JUMPDEST PUSH1 0x40 MLOAD PUSH2 0x210 SWAP2 SWAP1 PUSH2 0x624D JUMP JUMPDEST PUSH1 0x40 MLOAD DUP1 SWAP2 SUB SWAP1 RETURN JUMPDEST CALLVALUE DUP1 ISZERO PUSH2 0x225 JUMPI PUSH1 0x0 DUP1 REVERT JUMPDEST POP PUSH2 0x240 PUSH1 0x4 DUP1 CALLDATASIZE SUB PUSH2 0x23B SWAP2 SWAP1 DUP2 ADD SWAP1 PUSH2 0x5812 JUMP JUMPDEST PUSH2 0xA2E JUMP JUMPDEST PUSH1 0x40 MLOAD PUSH2 0x24D SWAP2 SWAP1 PUSH2 0x61FB JUMP JUMPDEST PUSH1 0x40 MLOAD DUP1 SWAP2 SUB SWAP1 RETURN JUMPDEST CALLVALUE DUP1 ISZERO PUSH2 0x262 JUMPI PUSH1 0x0 DUP1 REVERT JUMPDEST POP PUSH2 0x27D PUSH1 0x4 DUP1 CALLDATASIZE SUB PUSH2 0x278 SWAP2 SWAP1 DUP2 ADD SWAP1 PUSH2 0x5951 JUMP JUMPDEST PUSH2 0xAC3 JUMP JUMPDEST PUSH1 0x40 MLOAD PUSH2 0x28A SWAP2 SWAP1 PUSH2 0x6089 JUMP JUMPDEST PUSH1 0x40 MLOAD DUP1 SWAP2 SUB SWAP1 RETURN JUMPDEST CALLVALUE DUP1 ISZERO PUSH2 0x29F JUMPI PUSH1 0x0 DUP1 REVERT JUMPDEST POP PUSH2 0x2BA PUSH1 0x4 DUP1 CALLDATASIZE SUB PUSH2 0x2B5 SWAP2 SWAP1 DUP2 ADD SWAP1 PUSH2 0x59B6 JUMP JUMPDEST PUSH2 0xAE3 JUMP JUMPDEST STOP JUMPDEST CALLVALUE DUP1 ISZERO PUSH2 0x2C8 JUMPI PUSH1 0x0 DUP1 REVERT JUMPDEST POP PUSH2 0x2E3 PUSH1 0x4 DUP1 CALLDATASIZE SUB PUSH2 0x2DE SWAP2 SWAP1 DUP2 ADD SWAP1 PUSH2 0x5CD0 JUMP JUMPDEST PUSH2 0xC11 JUMP JUMPDEST PUSH1 0x40 MLOAD PUSH2 0x2F0 SWAP2 SWAP1 PUSH2 0x61BE JUMP JUMPDEST PUSH1 0x40 MLOAD DUP1 SWAP2 SUB SWAP1 RETURN JUMPDEST CALLVALUE DUP1 ISZERO PUSH2 0x305 JUMPI PUSH1 0x0 DUP1 REVERT JUMPDEST POP PUSH2 0x320 PUSH1 0x4 DUP1 CALLDATASIZE SUB PUSH2 0x31B SWAP2 SWAP1 DUP2 ADD SWAP1 PUSH2 0x5ACA JUMP JUMPDEST PUSH2 0xC44 JUMP JUMPDEST PUSH1 0x40 MLOAD PUSH2 0x32D SWAP2 SWAP1 PUSH2 0x6216 JUMP JUMPDEST PUSH1 0x40 MLOAD DUP1 SWAP2 SUB SWAP1 RETURN JUMPDEST CALLVALUE DUP1 ISZERO PUSH2 0x342 JUMPI PUSH1 0x0 DUP1 REVERT JUMPDEST POP PUSH2 0x35D PUSH1 0x4 DUP1 CALLDATASIZE SUB PUSH2 0x358 SWAP2 SWAP1 DUP2 ADD SWAP1 PUSH2 0x5B8D JUMP JUMPDEST PUSH2 0xD44 JUMP JUMPDEST PUSH1 0x40 MLOAD PUSH2 0x36A SWAP2 SWAP1 PUSH2 0x61FB JUMP JUMPDEST PUSH1 0x40 MLOAD DUP1 SWAP2 SUB SWAP1 RETURN JUMPDEST CALLVALUE DUP1 ISZERO PUSH2 0x37F JUMPI PUSH1 0x0 DUP1 REVERT JUMPDEST POP PUSH2 0x39A PUSH1 0x4 DUP1 CALLDATASIZE SUB PUSH2 0x395 SWAP2 SWAP1 DUP2 ADD SWAP1 PUSH2 0x57D1 JUMP JUMPDEST PUSH2 0xF95 JUMP JUMPDEST STOP JUMPDEST CALLVALUE DUP1 ISZERO PUSH2 0x3A8 JUMPI PUSH1 0x0 DUP1 REVERT JUMPDEST POP PUSH2 0x3C3 PUSH1 0x4 DUP1 CALLDATASIZE SUB PUSH2 0x3BE SWAP2 SWAP1 DUP2 ADD SWAP1 PUSH2 0x5812 JUMP JUMPDEST PUSH2 0xFD5 JUMP JUMPDEST PUSH1 0x40 MLOAD PUSH2 0x3D0 SWAP2 SWAP1 PUSH2 0x61FB JUMP JUMPDEST PUSH1 0x40 MLOAD DUP1 SWAP2 SUB SWAP1 RETURN JUMPDEST CALLVALUE DUP1 ISZERO PUSH2 0x3E5 JUMPI PUSH1 0x0 DUP1 REVERT JUMPDEST POP PUSH2 0x400 PUSH1 0x4 DUP1 CALLDATASIZE SUB PUSH2 0x3FB SWAP2 SWAP1 DUP2 ADD SWAP1 PUSH2 0x5C0C JUMP JUMPDEST PUSH2 0x106A JUMP JUMPDEST STOP JUMPDEST CALLVALUE DUP1 ISZERO PUSH2 0x40E JUMPI PUSH1 0x0 DUP1 REVERT JUMPDEST POP PUSH2 0x429 PUSH1 0x4 DUP1 CALLDATASIZE SUB PUSH2 0x424 SWAP2 SWAP1 DUP2 ADD SWAP1 PUSH2 0x5812 JUMP JUMPDEST PUSH2 0x12A7 JUMP JUMPDEST PUSH1 0x40 MLOAD PUSH2 0x436 SWAP2 SWAP1 PUSH2 0x61FB JUMP JUMPDEST PUSH1 0x40 MLOAD DUP1 SWAP2 SUB SWAP1 RETURN JUMPDEST CALLVALUE DUP1 ISZERO PUSH2 0x44B JUMPI PUSH1 0x0 DUP1 REVERT JUMPDEST POP PUSH2 0x466 PUSH1 0x4 DUP1 CALLDATASIZE SUB PUSH2 0x461 SWAP2 SWAP1 DUP2 ADD SWAP1 PUSH2 0x5D22 JUMP JUMPDEST PUSH2 0x133C JUMP JUMPDEST STOP JUMPDEST CALLVALUE DUP1 ISZERO PUSH2 0x474 JUMPI PUSH1 0x0 DUP1 REVERT JUMPDEST POP PUSH2 0x48F PUSH1 0x4 DUP1 CALLDATASIZE SUB PUSH2 0x48A SWAP2 SWAP1 DUP2 ADD SWAP1 PUSH2 0x5951 JUMP JUMPDEST PUSH2 0x16E7 JUMP JUMPDEST PUSH1 0x40 MLOAD PUSH2 0x49C SWAP2 SWAP1 PUSH2 0x6089 JUMP JUMPDEST PUSH1 0x40 MLOAD DUP1 SWAP2 SUB SWAP1 RETURN JUMPDEST CALLVALUE DUP1 ISZERO PUSH2 0x4B1 JUMPI PUSH1 0x0 DUP1 REVERT JUMPDEST POP PUSH2 0x4CC PUSH1 0x4 DUP1 CALLDATASIZE SUB PUSH2 0x4C7 SWAP2 SWAP1 DUP2 ADD SWAP1 PUSH2 0x5B8D JUMP JUMPDEST PUSH2 0x1707 JUMP JUMPDEST PUSH1 0x40 MLOAD PUSH2 0x4D9 SWAP2 SWAP1 PUSH2 0x61FB JUMP JUMPDEST PUSH1 0x40 MLOAD DUP1 SWAP2 SUB SWAP1 RETURN JUMPDEST CALLVALUE DUP1 ISZERO PUSH2 0x4EE JUMPI PUSH1 0x0 DUP1 REVERT JUMPDEST POP PUSH2 0x509 PUSH1 0x4 DUP1 CALLDATASIZE SUB PUSH2 0x504 SWAP2 SWAP1 DUP2 ADD SWAP1 PUSH2 0x5795 JUMP JUMPDEST PUSH2 0x17A7 JUMP JUMPDEST STOP JUMPDEST CALLVALUE DUP1 ISZERO PUSH2 0x517 JUMPI PUSH1 0x0 DUP1 REVERT JUMPDEST POP PUSH2 0x532 PUSH1 0x4 DUP1 CALLDATASIZE SUB PUSH2 0x52D SWAP2 SWAP1 DUP2 ADD SWAP1 PUSH2 0x5759 JUMP JUMPDEST PUSH2 0x18B1 JUMP JUMPDEST PUSH1 0x40 MLOAD PUSH2 0x53F SWAP2 SWAP1 PUSH2 0x6089 JUMP JUMPDEST PUSH1 0x40 MLOAD DUP1 SWAP2 SUB SWAP1 RETURN JUMPDEST CALLVALUE DUP1 ISZERO PUSH2 0x554 JUMPI PUSH1 0x0 DUP1 REVERT JUMPDEST POP PUSH2 0x56F PUSH1 0x4 DUP1 CALLDATASIZE SUB PUSH2 0x56A SWAP2 SWAP1 DUP2 ADD SWAP1 PUSH2 0x58A9 JUMP JUMPDEST PUSH2 0x18E0 JUMP JUMPDEST PUSH1 0x40 MLOAD PUSH2 0x57C SWAP2 SWAP1 PUSH2 0x61FB JUMP JUMPDEST PUSH1 0x40 MLOAD DUP1 SWAP2 SUB SWAP1 RETURN JUMPDEST CALLVALUE DUP1 ISZERO PUSH2 0x591 JUMPI PUSH1 0x0 DUP1 REVERT JUMPDEST POP PUSH2 0x5AC PUSH1 0x4 DUP1 CALLDATASIZE SUB PUSH2 0x5A7 SWAP2 SWAP1 DUP2 ADD SWAP1 PUSH2 0x597A JUMP JUMPDEST PUSH2 0x19CE JUMP JUMPDEST PUSH1 0x40 MLOAD PUSH2 0x5B9 SWAP2 SWAP1 PUSH2 0x6089 JUMP JUMPDEST PUSH1 0x40 MLOAD DUP1 SWAP2 SUB SWAP1 RETURN JUMPDEST CALLVALUE DUP1 ISZERO PUSH2 0x5CE JUMPI PUSH1 0x0 DUP1 REVERT JUMPDEST POP PUSH2 0x5D7 PUSH2 0x19FD JUMP JUMPDEST PUSH1 0x40 MLOAD PUSH2 0x5E4 SWAP2 SWAP1 PUSH2 0x5F9D JUMP JUMPDEST PUSH1 0x40 MLOAD DUP1 SWAP2 SUB SWAP1 RETURN JUMPDEST CALLVALUE DUP1 ISZERO PUSH2 0x5F9 JUMPI PUSH1 0x0 DUP1 REVERT JUMPDEST POP PUSH2 0x614 PUSH1 0x4 DUP1 CALLDATASIZE SUB PUSH2 0x60F SWAP2 SWAP1 DUP2 ADD SWAP1 PUSH2 0x5CD0 JUMP JUMPDEST PUSH2 0x1A23 JUMP JUMPDEST PUSH1 0x40 MLOAD PUSH2 0x621 SWAP2 SWAP1 PUSH2 0x5F9D JUMP JUMPDEST PUSH1 0x40 MLOAD DUP1 SWAP2 SUB SWAP1 RETURN JUMPDEST CALLVALUE DUP1 ISZERO PUSH2 0x636 JUMPI PUSH1 0x0 DUP1 REVERT JUMPDEST POP PUSH2 0x651 PUSH1 0x4 DUP1 CALLDATASIZE SUB PUSH2 0x64C SWAP2 SWAP1 DUP2 ADD SWAP1 PUSH2 0x5A22 JUMP JUMPDEST PUSH2 0x1A66 JUMP JUMPDEST PUSH1 0x40 MLOAD PUSH2 0x65E SWAP2 SWAP1 PUSH2 0x6089 JUMP JUMPDEST PUSH1 0x40 MLOAD DUP1 SWAP2 SUB SWAP1 RETURN JUMPDEST CALLVALUE DUP1 ISZERO PUSH2 0x673 JUMPI PUSH1 0x0 DUP1 REVERT JUMPDEST POP PUSH2 0x68E PUSH1 0x4 DUP1 CALLDATASIZE SUB PUSH2 0x689 SWAP2 SWAP1 DUP2 ADD SWAP1 PUSH2 0x58A9 JUMP JUMPDEST PUSH2 0x28CE JUMP JUMPDEST PUSH1 0x40 MLOAD PUSH2 0x69B SWAP2 SWAP1 PUSH2 0x61FB JUMP JUMPDEST PUSH1 0x40 MLOAD DUP1 SWAP2 SUB SWAP1 RETURN JUMPDEST CALLVALUE DUP1 ISZERO PUSH2 0x6B0 JUMPI PUSH1 0x0 DUP1 REVERT JUMPDEST POP PUSH2 0x6CB PUSH1 0x4 DUP1 CALLDATASIZE SUB PUSH2 0x6C6 SWAP2 SWAP1 DUP2 ADD SWAP1 PUSH2 0x5B8D JUMP JUMPDEST PUSH2 0x29F9 JUMP JUMPDEST PUSH1 0x40 MLOAD PUSH2 0x6D8 SWAP2 SWAP1 PUSH2 0x61FB JUMP JUMPDEST PUSH1 0x40 MLOAD DUP1 SWAP2 SUB SWAP1 RETURN JUMPDEST CALLVALUE DUP1 ISZERO PUSH2 0x6ED JUMPI PUSH1 0x0 DUP1 REVERT JUMPDEST POP PUSH2 0x708 PUSH1 0x4 DUP1 CALLDATASIZE SUB PUSH2 0x703 SWAP2 SWAP1 DUP2 ADD SWAP1 PUSH2 0x5C35 JUMP JUMPDEST PUSH2 0x2A8B JUMP JUMPDEST STOP JUMPDEST CALLVALUE DUP1 ISZERO PUSH2 0x716 JUMPI PUSH1 0x0 DUP1 REVERT JUMPDEST POP PUSH2 0x731 PUSH1 0x4 DUP1 CALLDATASIZE SUB PUSH2 0x72C SWAP2 SWAP1 DUP2 ADD SWAP1 PUSH2 0x5A89 JUMP JUMPDEST PUSH2 0x2EA5 JUMP JUMPDEST PUSH1 0x40 MLOAD PUSH2 0x73E SWAP2 SWAP1 PUSH2 0x6232 JUMP JUMPDEST PUSH1 0x40 MLOAD DUP1 SWAP2 SUB SWAP1 RETURN JUMPDEST CALLVALUE DUP1 ISZERO PUSH2 0x753 JUMPI PUSH1 0x0 DUP1 REVERT JUMPDEST POP PUSH2 0x76E PUSH1 0x4 DUP1 CALLDATASIZE SUB PUSH2 0x769 SWAP2 SWAP1 DUP2 ADD SWAP1 PUSH2 0x5A89 JUMP JUMPDEST PUSH2 0x30F7 JUMP JUMPDEST STOP JUMPDEST CALLVALUE DUP1 ISZERO PUSH2 0x77C JUMPI PUSH1 0x0 DUP1 REVERT JUMPDEST POP PUSH2 0x797 PUSH1 0x4 DUP1 CALLDATASIZE SUB PUSH2 0x792 SWAP2 SWAP1 DUP2 ADD SWAP1 PUSH2 0x5759 JUMP JUMPDEST PUSH2 0x3126 JUMP JUMPDEST PUSH1 0x40 MLOAD PUSH2 0x7A4 SWAP2 SWAP1 PUSH2 0x624D JUMP JUMPDEST PUSH1 0x40 MLOAD DUP1 SWAP2 SUB SWAP1 RETURN JUMPDEST CALLVALUE DUP1 ISZERO PUSH2 0x7B9 JUMPI PUSH1 0x0 DUP1 REVERT JUMPDEST POP PUSH2 0x7D4 PUSH1 0x4 DUP1 CALLDATASIZE SUB PUSH2 0x7CF SWAP2 SWAP1 DUP2 ADD SWAP1 PUSH2 0x58A9 JUMP JUMPDEST PUSH2 0x314B JUMP JUMPDEST PUSH1 0x40 MLOAD PUSH2 0x7E1 SWAP2 SWAP1 PUSH2 0x61FB JUMP JUMPDEST PUSH1 0x40 MLOAD DUP1 SWAP2 SUB SWAP1 RETURN JUMPDEST CALLVALUE DUP1 ISZERO PUSH2 0x7F6 JUMPI PUSH1 0x0 DUP1 REVERT JUMPDEST POP PUSH2 0x7FF PUSH2 0x3230 JUMP JUMPDEST PUSH1 0x40 MLOAD PUSH2 0x80C SWAP2 SWAP1 PUSH2 0x60A4 JUMP JUMPDEST PUSH1 0x40 MLOAD DUP1 SWAP2 SUB SWAP1 RETURN JUMPDEST CALLVALUE DUP1 ISZERO PUSH2 0x821 JUMPI PUSH1 0x0 DUP1 REVERT JUMPDEST POP PUSH2 0x83C PUSH1 0x4 DUP1 CALLDATASIZE SUB PUSH2 0x837 SWAP2 SWAP1 DUP2 ADD SWAP1 PUSH2 0x58A9 JUMP JUMPDEST PUSH2 0x3236 JUMP JUMPDEST PUSH1 0x40 MLOAD PUSH2 0x849 SWAP2 SWAP1 PUSH2 0x61FB JUMP JUMPDEST PUSH1 0x40 MLOAD DUP1 SWAP2 SUB SWAP1 RETURN JUMPDEST CALLVALUE DUP1 ISZERO PUSH2 0x85E JUMPI PUSH1 0x0 DUP1 REVERT JUMPDEST POP PUSH2 0x867 PUSH2 0x336A JUMP JUMPDEST PUSH1 0x40 MLOAD PUSH2 0x874 SWAP2 SWAP1 PUSH2 0x5F9D JUMP JUMPDEST PUSH1 0x40 MLOAD DUP1 SWAP2 SUB SWAP1 RETURN JUMPDEST CALLVALUE DUP1 ISZERO PUSH2 0x889 JUMPI PUSH1 0x0 DUP1 REVERT JUMPDEST POP PUSH2 0x8A4 PUSH1 0x4 DUP1 CALLDATASIZE SUB PUSH2 0x89F SWAP2 SWAP1 DUP2 ADD SWAP1 PUSH2 0x5730 JUMP JUMPDEST PUSH2 0x3390 JUMP JUMPDEST STOP JUMPDEST CALLVALUE DUP1 ISZERO PUSH2 0x8B2 JUMPI PUSH1 0x0 DUP1 REVERT JUMPDEST POP PUSH2 0x8BB PUSH2 0x34D6 JUMP JUMPDEST PUSH1 0x40 MLOAD PUSH2 0x8C8 SWAP2 SWAP1 PUSH2 0x61D9 JUMP JUMPDEST PUSH1 0x40 MLOAD DUP1 SWAP2 SUB SWAP1 RETURN JUMPDEST PUSH1 0x40 MLOAD PUSH1 0x20 ADD DUP1 DUP1 PUSH32 0x454950373132446F6D61696E2800000000000000000000000000000000000000 DUP2 MSTORE POP PUSH1 0xD ADD DUP1 PUSH32 0x737472696E67206E616D652C0000000000000000000000000000000000000000 DUP2 MSTORE POP PUSH1 0xC ADD DUP1 PUSH32 0x737472696E672076657273696F6E2C0000000000000000000000000000000000 DUP2 MSTORE POP PUSH1 0xF ADD DUP1 PUSH32 0x6164647265737320766572696679696E67436F6E747261637400000000000000 DUP2 MSTORE POP PUSH1 0x19 ADD DUP1 PUSH32 0x2900000000000000000000000000000000000000000000000000000000000000 DUP2 MSTORE POP PUSH1 0x1 ADD SWAP1 POP PUSH1 0x40 MLOAD PUSH1 0x20 DUP2 DUP4 SUB SUB DUP2 MSTORE SWAP1 PUSH1 0x40 MSTORE PUSH1 0x40 MLOAD DUP1 DUP3 DUP1 MLOAD SWAP1 PUSH1 0x20 ADD SWAP1 DUP1 DUP4 DUP4 JUMPDEST PUSH1 0x20 DUP4 LT ISZERO ISZERO PUSH2 0x9E6 JUMPI DUP1 MLOAD DUP3 MSTORE PUSH1 0x20 DUP3 ADD SWAP2 POP PUSH1 0x20 DUP2 ADD SWAP1 POP PUSH1 0x20 DUP4 SUB SWAP3 POP PUSH2 0x9C1 JUMP JUMPDEST PUSH1 0x1 DUP4 PUSH1 0x20 SUB PUSH2 0x100 EXP SUB DUP1 NOT DUP3 MLOAD AND DUP2 DUP5 MLOAD AND DUP1 DUP3 OR DUP6 MSTORE POP POP POP POP POP POP SWAP1 POP ADD SWAP2 POP POP PUSH1 0x40 MLOAD DUP1 SWAP2 SUB SWAP1 KECCAK256 DUP2 JUMP JUMPDEST PUSH1 0x2 PUSH1 0x20 MSTORE DUP1 PUSH1 0x0 MSTORE PUSH1 0x40 PUSH1 0x0 KECCAK256 PUSH1 0x0 SWAP2 POP SWAP1 POP SLOAD DUP2 JUMP JUMPDEST PUSH2 0xA36 PUSH2 0x50F6 JUMP JUMPDEST PUSH1 0x0 PUSH2 0xA40 PUSH2 0x50F6 JUMP JUMPDEST PUSH1 0x0 SWAP2 POP JUMPDEST DUP6 MLOAD DUP3 LT ISZERO PUSH2 0xAB7 JUMPI PUSH2 0xA9E DUP7 DUP4 DUP2 MLOAD DUP2 LT ISZERO ISZERO PUSH2 0xA5F JUMPI INVALID JUMPDEST SWAP1 PUSH1 0x20 ADD SWAP1 PUSH1 0x20 MUL ADD MLOAD DUP7 DUP5 DUP2 MLOAD DUP2 LT ISZERO ISZERO PUSH2 0xA77 JUMPI INVALID JUMPDEST SWAP1 PUSH1 0x20 ADD SWAP1 PUSH1 0x20 MUL ADD MLOAD DUP7 DUP6 DUP2 MLOAD DUP2 LT ISZERO ISZERO PUSH2 0xA8F JUMPI INVALID JUMPDEST SWAP1 PUSH1 0x20 ADD SWAP1 PUSH1 0x20 MUL ADD MLOAD PUSH2 0x29F9 JUMP JUMPDEST SWAP1 POP PUSH2 0xAAA DUP4 DUP3 PUSH2 0x350F JUMP JUMPDEST DUP2 DUP1 PUSH1 0x1 ADD SWAP3 POP POP PUSH2 0xA45 JUMP JUMPDEST DUP3 SWAP3 POP POP POP SWAP4 SWAP3 POP POP POP JUMP JUMPDEST PUSH1 0x3 PUSH1 0x20 MSTORE DUP1 PUSH1 0x0 MSTORE PUSH1 0x40 PUSH1 0x0 KECCAK256 PUSH1 0x0 SWAP2 POP SLOAD SWAP1 PUSH2 0x100 EXP SWAP1 DIV PUSH1 0xFF AND DUP2 JUMP JUMPDEST PUSH2 0xB20 DUP5 DUP5 DUP5 DUP5 DUP1 DUP1 PUSH1 0x1F ADD PUSH1 0x20 DUP1 SWAP2 DIV MUL PUSH1 0x20 ADD PUSH1 0x40 MLOAD SWAP1 DUP2 ADD PUSH1 0x40 MSTORE DUP1 SWAP4 SWAP3 SWAP2 SWAP1 DUP2 DUP2 MSTORE PUSH1 0x20 ADD DUP4 DUP4 DUP1 DUP3 DUP5 CALLDATACOPY DUP3 ADD SWAP2 POP POP POP POP POP POP PUSH2 0x1A66 JUMP JUMPDEST PUSH1 0x40 DUP1 MLOAD SWAP1 DUP2 ADD PUSH1 0x40 MSTORE DUP1 PUSH1 0x11 DUP2 MSTORE PUSH1 0x20 ADD PUSH32 0x494E56414C49445F5349474E4154555245000000000000000000000000000000 DUP2 MSTORE POP SWAP1 ISZERO ISZERO PUSH2 0xB99 JUMPI PUSH1 0x40 MLOAD PUSH32 0x8C379A000000000000000000000000000000000000000000000000000000000 DUP2 MSTORE PUSH1 0x4 ADD PUSH2 0xB90 SWAP2 SWAP1 PUSH2 0x61D9 JUMP JUMPDEST PUSH1 0x40 MLOAD DUP1 SWAP2 SUB SWAP1 REVERT JUMPDEST POP PUSH1 0x1 PUSH1 0x5 PUSH1 0x0 DUP7 PUSH1 0x0 NOT AND PUSH1 0x0 NOT AND DUP2 MSTORE PUSH1 0x20 ADD SWAP1 DUP2 MSTORE PUSH1 0x20 ADD PUSH1 0x0 KECCAK256 PUSH1 0x0 DUP6 PUSH20 0xFFFFFFFFFFFFFFFFFFFFFFFFFFFFFFFFFFFFFFFF AND PUSH20 0xFFFFFFFFFFFFFFFFFFFFFFFFFFFFFFFFFFFFFFFF AND DUP2 MSTORE PUSH1 0x20 ADD SWAP1 DUP2 MSTORE PUSH1 0x20 ADD PUSH1 0x0 KECCAK256 PUSH1 0x0 PUSH2 0x100 EXP DUP2 SLOAD DUP2 PUSH1 0xFF MUL NOT AND SWAP1 DUP4 ISZERO ISZERO MUL OR SWAP1 SSTORE POP POP POP POP POP JUMP JUMPDEST PUSH1 0x9 PUSH1 0x20 MSTORE DUP1 PUSH1 0x0 MSTORE PUSH1 0x40 PUSH1 0x0 KECCAK256 PUSH1 0x0 SWAP2 POP SLOAD SWAP1 PUSH2 0x100 EXP SWAP1 DIV PUSH20 0xFFFFFFFFFFFFFFFFFFFFFFFFFFFFFFFFFFFFFFFF AND DUP2 JUMP JUMPDEST PUSH2 0xC4C PUSH2 0x511F JUMP JUMPDEST PUSH2 0xC54 PUSH2 0x514E JUMP JUMPDEST PUSH2 0xC5C PUSH2 0x514E JUMP JUMPDEST PUSH1 0x0 DUP8 PUSH2 0x160 ADD MLOAD DUP8 PUSH2 0x140 ADD DUP2 SWAP1 MSTORE POP DUP8 PUSH2 0x140 ADD MLOAD DUP8 PUSH2 0x160 ADD DUP2 SWAP1 MSTORE POP PUSH2 0xC85 DUP9 PUSH2 0x2EA5 JUMP JUMPDEST SWAP3 POP PUSH2 0xC90 DUP8 PUSH2 0x2EA5 JUMP JUMPDEST SWAP2 POP PUSH2 0xC9A PUSH2 0x357F JUMP JUMPDEST SWAP1 POP PUSH2 0xCA6 DUP9 DUP9 PUSH2 0x360B JUMP JUMPDEST PUSH2 0xCBA DUP9 DUP9 DUP6 PUSH1 0x40 ADD MLOAD DUP6 PUSH1 0x40 ADD MLOAD PUSH2 0x36AF JUMP JUMPDEST SWAP4 POP PUSH2 0xCDA DUP9 DUP5 DUP4 DUP8 PUSH1 0x0 ADD MLOAD PUSH1 0x20 ADD MLOAD DUP9 PUSH1 0x0 ADD MLOAD PUSH1 0x20 ADD MLOAD DUP12 PUSH2 0x378C JUMP JUMPDEST PUSH2 0xCF8 DUP8 DUP4 DUP4 DUP8 PUSH1 0x20 ADD MLOAD PUSH1 0x20 ADD MLOAD DUP9 PUSH1 0x20 ADD MLOAD PUSH1 0x20 ADD MLOAD DUP11 PUSH2 0x378C JUMP JUMPDEST PUSH2 0xD11 DUP9 DUP3 DUP6 PUSH1 0x20 ADD MLOAD DUP7 PUSH1 0x40 ADD MLOAD DUP9 PUSH1 0x0 ADD MLOAD PUSH2 0x3B9F JUMP JUMPDEST PUSH2 0xD2A DUP8 DUP3 DUP5 PUSH1 0x20 ADD MLOAD DUP6 PUSH1 0x40 ADD MLOAD DUP9 PUSH1 0x20 ADD MLOAD PUSH2 0x3B9F JUMP JUMPDEST PUSH2 0xD36 DUP9 DUP9 DUP4 DUP8 PUSH2 0x3C6D JUMP JUMPDEST DUP4 SWAP4 POP POP POP POP SWAP5 SWAP4 POP POP POP POP JUMP JUMPDEST PUSH2 0xD4C PUSH2 0x50F6 JUMP JUMPDEST PUSH1 0x0 PUSH4 0xB4BE83D5 PUSH29 0x100000000000000000000000000000000000000000000000000000000 MUL SWAP1 POP PUSH1 0x40 MLOAD DUP2 DUP2 MSTORE PUSH1 0x4 DUP2 ADD DUP1 PUSH1 0x60 DUP2 ADD DUP2 DUP2 DUP1 DUP12 PUSH1 0x0 DUP1 DUP8 DUP5 SUB DUP7 MSTORE PUSH1 0x20 DUP7 ADD SWAP6 POP DUP3 MLOAD DUP5 MSTORE PUSH1 0x20 DUP4 ADD MLOAD PUSH1 0x20 DUP6 ADD MSTORE PUSH1 0x40 DUP4 ADD MLOAD PUSH1 0x40 DUP6 ADD MSTORE PUSH1 0x60 DUP4 ADD MLOAD PUSH1 0x60 DUP6 ADD MSTORE PUSH1 0x80 DUP4 ADD MLOAD PUSH1 0x80 DUP6 ADD MSTORE PUSH1 0xA0 DUP4 ADD MLOAD PUSH1 0xA0 DUP6 ADD MSTORE PUSH1 0xC0 DUP4 ADD MLOAD PUSH1 0xC0 DUP6 ADD MSTORE PUSH1 0xE0 DUP4 ADD MLOAD PUSH1 0xE0 DUP6 ADD MSTORE PUSH2 0x100 DUP4 ADD MLOAD PUSH2 0x100 DUP6 ADD MSTORE PUSH2 0x120 DUP4 ADD MLOAD PUSH2 0x120 DUP6 ADD MSTORE PUSH2 0x140 DUP4 ADD MLOAD PUSH2 0x140 DUP6 ADD MSTORE PUSH2 0x160 DUP4 ADD MLOAD PUSH2 0x160 DUP6 ADD MSTORE PUSH2 0x180 DUP5 ADD SWAP4 POP PUSH2 0x180 DUP4 ADD SWAP3 POP DUP5 DUP5 SUB PUSH1 0x20 PUSH1 0xA MUL DUP7 ADD MSTORE PUSH2 0x140 DUP16 ADD MLOAD SWAP3 POP DUP3 MLOAD SWAP2 POP PUSH1 0x20 DUP4 ADD SWAP3 POP PUSH1 0x20 PUSH1 0x1F DUP4 ADD DIV SWAP1 POP DUP2 DUP5 MSTORE PUSH1 0x20 DUP5 ADD SWAP4 POP PUSH1 0x0 JUMPDEST DUP2 DUP2 LT ISZERO PUSH2 0xE72 JUMPI DUP4 MLOAD DUP6 MSTORE PUSH1 0x20 DUP6 ADD SWAP5 POP PUSH1 0x20 DUP5 ADD SWAP4 POP PUSH1 0x1 DUP2 ADD SWAP1 POP PUSH2 0xE4F JUMP JUMPDEST POP DUP5 DUP5 SUB PUSH1 0x20 PUSH1 0xB MUL DUP7 ADD MSTORE PUSH2 0x160 DUP16 ADD MLOAD SWAP3 POP DUP3 MLOAD SWAP2 POP PUSH1 0x20 DUP4 ADD SWAP3 POP PUSH1 0x20 PUSH1 0x1F DUP4 ADD DIV SWAP1 POP DUP2 DUP5 MSTORE PUSH1 0x20 DUP5 ADD SWAP4 POP PUSH1 0x0 JUMPDEST DUP2 DUP2 LT ISZERO PUSH2 0xEC8 JUMPI DUP4 MLOAD DUP6 MSTORE PUSH1 0x20 DUP6 ADD SWAP5 POP PUSH1 0x20 DUP5 ADD SWAP4 POP PUSH1 0x1 DUP2 ADD SWAP1 POP PUSH2 0xEA5 JUMP JUMPDEST POP DUP14 DUP7 MSTORE PUSH1 0x20 DUP7 ADD SWAP6 POP DUP8 DUP5 SUB DUP7 MSTORE DUP13 SWAP3 POP DUP3 MLOAD SWAP2 POP PUSH1 0x20 DUP4 ADD SWAP3 POP PUSH1 0x20 PUSH1 0x1F DUP4 ADD DIV SWAP1 POP DUP2 DUP5 MSTORE PUSH1 0x20 DUP5 ADD SWAP4 POP PUSH1 0x0 JUMPDEST DUP2 DUP2 LT ISZERO PUSH2 0xF1C JUMPI DUP4 MLOAD DUP6 MSTORE PUSH1 0x20 DUP6 ADD SWAP5 POP PUSH1 0x20 DUP5 ADD SWAP4 POP PUSH1 0x1 DUP2 ADD SWAP1 POP PUSH2 0xEF9 JUMP JUMPDEST POP PUSH1 0x80 DUP11 DUP12 DUP7 SUB DUP13 ADDRESS GAS DELEGATECALL DUP1 PUSH1 0x0 DUP2 EQ PUSH2 0xF3D JUMPI PUSH1 0x1 DUP2 EQ PUSH2 0xF5B JUMPI PUSH2 0xF7E JUMP JUMPDEST PUSH1 0x0 DUP15 MSTORE PUSH1 0x0 PUSH1 0x20 DUP16 ADD MSTORE PUSH1 0x0 PUSH1 0x40 DUP16 ADD MSTORE PUSH1 0x0 PUSH1 0x60 DUP16 ADD MSTORE PUSH2 0xF7E JUMP JUMPDEST DUP12 MLOAD DUP15 MSTORE PUSH1 0x20 DUP13 ADD MLOAD PUSH1 0x20 DUP16 ADD MSTORE PUSH1 0x40 DUP13 ADD MLOAD PUSH1 0x40 DUP16 ADD MSTORE PUSH1 0x60 DUP13 ADD MLOAD PUSH1 0x60 DUP16 ADD MSTORE JUMPDEST POP POP POP POP POP POP POP POP POP POP POP POP DUP2 SWAP2 POP POP SWAP4 SWAP3 POP POP POP JUMP JUMPDEST PUSH1 0x0 DUP1 SWAP1 POP JUMPDEST DUP2 MLOAD DUP2 LT ISZERO PUSH2 0xFD1 JUMPI PUSH2 0xFC4 DUP3 DUP3 DUP2 MLOAD DUP2 LT ISZERO ISZERO PUSH2 0xFB5 JUMPI INVALID JUMPDEST SWAP1 PUSH1 0x20 ADD SWAP1 PUSH1 0x20 MUL ADD MLOAD PUSH2 0x30F7 JUMP JUMPDEST DUP1 DUP1 PUSH1 0x1 ADD SWAP2 POP POP PUSH2 0xF9B JUMP JUMPDEST POP POP JUMP JUMPDEST PUSH2 0xFDD PUSH2 0x50F6 JUMP JUMPDEST PUSH1 0x0 PUSH2 0xFE7 PUSH2 0x50F6 JUMP JUMPDEST PUSH1 0x0 SWAP2 POP JUMPDEST DUP6 MLOAD DUP3 LT ISZERO PUSH2 0x105E JUMPI PUSH2 0x1045 DUP7 DUP4 DUP2 MLOAD DUP2 LT ISZERO ISZERO PUSH2 0x1006 JUMPI INVALID JUMPDEST SWAP1 PUSH1 0x20 ADD SWAP1 PUSH1 0x20 MUL ADD MLOAD DUP7 DUP5 DUP2 MLOAD DUP2 LT ISZERO ISZERO PUSH2 0x101E JUMPI INVALID JUMPDEST SWAP1 PUSH1 0x20 ADD SWAP1 PUSH1 0x20 MUL ADD MLOAD DUP7 DUP6 DUP2 MLOAD DUP2 LT ISZERO ISZERO PUSH2 0x1036 JUMPI INVALID JUMPDEST SWAP1 PUSH1 0x20 ADD SWAP1 PUSH1 0x20 MUL ADD MLOAD PUSH2 0x1707 JUMP JUMPDEST SWAP1 POP PUSH2 0x1051 DUP4 DUP3 PUSH2 0x350F JUMP JUMPDEST DUP2 DUP1 PUSH1 0x1 ADD SWAP3 POP POP PUSH2 0xFEC JUMP JUMPDEST DUP3 SWAP3 POP POP POP SWAP4 SWAP3 POP POP POP JUMP JUMPDEST PUSH1 0x0 DUP1 PUSH1 0x0 DUP1 PUSH2 0x1078 PUSH2 0x357F JUMP JUMPDEST SWAP4 POP CALLER PUSH20 0xFFFFFFFFFFFFFFFFFFFFFFFFFFFFFFFFFFFFFFFF AND DUP5 PUSH20 0xFFFFFFFFFFFFFFFFFFFFFFFFFFFFFFFFFFFFFFFF AND EQ PUSH2 0x10B3 JUMPI CALLER PUSH2 0x10B6 JUMP JUMPDEST PUSH1 0x0 JUMPDEST SWAP3 POP PUSH1 0x1 DUP6 ADD SWAP2 POP PUSH1 0x4 PUSH1 0x0 DUP6 PUSH20 0xFFFFFFFFFFFFFFFFFFFFFFFFFFFFFFFFFFFFFFFF AND PUSH20 0xFFFFFFFFFFFFFFFFFFFFFFFFFFFFFFFFFFFFFFFF AND DUP2 MSTORE PUSH1 0x20 ADD SWAP1 DUP2 MSTORE PUSH1 0x20 ADD PUSH1 0x0 KECCAK256 PUSH1 0x0 DUP5 PUSH20 0xFFFFFFFFFFFFFFFFFFFFFFFFFFFFFFFFFFFFFFFF AND PUSH20 0xFFFFFFFFFFFFFFFFFFFFFFFFFFFFFFFFFFFFFFFF AND DUP2 MSTORE PUSH1 0x20 ADD SWAP1 DUP2 MSTORE PUSH1 0x20 ADD PUSH1 0x0 KECCAK256 SLOAD SWAP1 POP DUP1 DUP3 GT PUSH1 0x40 DUP1 MLOAD SWAP1 DUP2 ADD PUSH1 0x40 MSTORE DUP1 PUSH1 0x17 DUP2 MSTORE PUSH1 0x20 ADD PUSH32 0x494E56414C49445F4E45575F4F524445525F45504F4348000000000000000000 DUP2 MSTORE POP SWAP1 ISZERO ISZERO PUSH2 0x11B9 JUMPI PUSH1 0x40 MLOAD PUSH32 0x8C379A000000000000000000000000000000000000000000000000000000000 DUP2 MSTORE PUSH1 0x4 ADD PUSH2 0x11B0 SWAP2 SWAP1 PUSH2 0x61D9 JUMP JUMPDEST PUSH1 0x40 MLOAD DUP1 SWAP2 SUB SWAP1 REVERT JUMPDEST POP DUP2 PUSH1 0x4 PUSH1 0x0 DUP7 PUSH20 0xFFFFFFFFFFFFFFFFFFFFFFFFFFFFFFFFFFFFFFFF AND PUSH20 0xFFFFFFFFFFFFFFFFFFFFFFFFFFFFFFFFFFFFFFFF AND DUP2 MSTORE PUSH1 0x20 ADD SWAP1 DUP2 MSTORE PUSH1 0x20 ADD PUSH1 0x0 KECCAK256 PUSH1 0x0 DUP6 PUSH20 0xFFFFFFFFFFFFFFFFFFFFFFFFFFFFFFFFFFFFFFFF AND PUSH20 0xFFFFFFFFFFFFFFFFFFFFFFFFFFFFFFFFFFFFFFFF AND DUP2 MSTORE PUSH1 0x20 ADD SWAP1 DUP2 MSTORE PUSH1 0x20 ADD PUSH1 0x0 KECCAK256 DUP2 SWAP1 SSTORE POP DUP3 PUSH20 0xFFFFFFFFFFFFFFFFFFFFFFFFFFFFFFFFFFFFFFFF AND DUP5 PUSH20 0xFFFFFFFFFFFFFFFFFFFFFFFFFFFFFFFFFFFFFFFF AND PUSH32 0x82AF639571738F4EBD4268FB0363D8957EBE1BBB9E78DBA5EBD69EED39B154F0 DUP5 PUSH1 0x40 MLOAD PUSH2 0x1298 SWAP2 SWAP1 PUSH2 0x624D JUMP JUMPDEST PUSH1 0x40 MLOAD DUP1 SWAP2 SUB SWAP1 LOG3 POP POP POP POP POP JUMP JUMPDEST PUSH2 0x12AF PUSH2 0x50F6 JUMP JUMPDEST PUSH1 0x0 PUSH2 0x12B9 PUSH2 0x50F6 JUMP JUMPDEST PUSH1 0x0 SWAP2 POP JUMPDEST DUP6 MLOAD DUP3 LT ISZERO PUSH2 0x1330 JUMPI PUSH2 0x1317 DUP7 DUP4 DUP2 MLOAD DUP2 LT ISZERO ISZERO PUSH2 0x12D8 JUMPI INVALID JUMPDEST SWAP1 PUSH1 0x20 ADD SWAP1 PUSH1 0x20 MUL ADD MLOAD DUP7 DUP5 DUP2 MLOAD DUP2 LT ISZERO ISZERO PUSH2 0x12F0 JUMPI INVALID JUMPDEST SWAP1 PUSH1 0x20 ADD SWAP1 PUSH1 0x20 MUL ADD MLOAD DUP7 DUP6 DUP2 MLOAD DUP2 LT ISZERO ISZERO PUSH2 0x1308 JUMPI INVALID JUMPDEST SWAP1 PUSH1 0x20 ADD SWAP1 PUSH1 0x20 MUL ADD MLOAD PUSH2 0xD44 JUMP JUMPDEST SWAP1 POP PUSH2 0x1323 DUP4 DUP3 PUSH2 0x350F JUMP JUMPDEST DUP2 DUP1 PUSH1 0x1 ADD SWAP3 POP POP PUSH2 0x12BE JUMP JUMPDEST DUP3 SWAP3 POP POP POP SWAP4 SWAP3 POP POP POP JUMP JUMPDEST PUSH1 0x0 DUP1 PUSH1 0x0 PUSH1 0x1 PUSH1 0x0 SWAP1 SLOAD SWAP1 PUSH2 0x100 EXP SWAP1 DIV PUSH20 0xFFFFFFFFFFFFFFFFFFFFFFFFFFFFFFFFFFFFFFFF AND PUSH20 0xFFFFFFFFFFFFFFFFFFFFFFFFFFFFFFFFFFFFFFFF AND CALLER PUSH20 0xFFFFFFFFFFFFFFFFFFFFFFFFFFFFFFFFFFFFFFFF AND EQ PUSH1 0x40 DUP1 MLOAD SWAP1 DUP2 ADD PUSH1 0x40 MSTORE DUP1 PUSH1 0x13 DUP2 MSTORE PUSH1 0x20 ADD PUSH32 0x4F4E4C595F434F4E54524143545F4F574E455200000000000000000000000000 DUP2 MSTORE POP SWAP1 ISZERO ISZERO PUSH2 0x140B JUMPI PUSH1 0x40 MLOAD PUSH32 0x8C379A000000000000000000000000000000000000000000000000000000000 DUP2 MSTORE PUSH1 0x4 ADD PUSH2 0x1402 SWAP2 SWAP1 PUSH2 0x61D9 JUMP JUMPDEST PUSH1 0x40 MLOAD DUP1 SWAP2 SUB SWAP1 REVERT JUMPDEST POP PUSH1 0x9 PUSH1 0x0 DUP8 PUSH1 0xFF AND PUSH1 0xFF AND DUP2 MSTORE PUSH1 0x20 ADD SWAP1 DUP2 MSTORE PUSH1 0x20 ADD PUSH1 0x0 KECCAK256 PUSH1 0x0 SWAP1 SLOAD SWAP1 PUSH2 0x100 EXP SWAP1 DIV PUSH20 0xFFFFFFFFFFFFFFFFFFFFFFFFFFFFFFFFFFFFFFFF AND SWAP3 POP DUP3 PUSH20 0xFFFFFFFFFFFFFFFFFFFFFFFFFFFFFFFFFFFFFFFF AND DUP5 PUSH20 0xFFFFFFFFFFFFFFFFFFFFFFFFFFFFFFFFFFFFFFFF AND EQ PUSH1 0x40 DUP1 MLOAD SWAP1 DUP2 ADD PUSH1 0x40 MSTORE DUP1 PUSH1 0x14 DUP2 MSTORE PUSH1 0x20 ADD PUSH32 0x41535345545F50524F58595F4D49534D41544348000000000000000000000000 DUP2 MSTORE POP SWAP1 ISZERO ISZERO PUSH2 0x14F0 JUMPI PUSH1 0x40 MLOAD PUSH32 0x8C379A000000000000000000000000000000000000000000000000000000000 DUP2 MSTORE PUSH1 0x4 ADD PUSH2 0x14E7 SWAP2 SWAP1 PUSH2 0x61D9 JUMP JUMPDEST PUSH1 0x40 MLOAD DUP1 SWAP2 SUB SWAP1 REVERT JUMPDEST POP DUP5 SWAP2 POP PUSH1 0x0 PUSH20 0xFFFFFFFFFFFFFFFFFFFFFFFFFFFFFFFFFFFFFFFF AND DUP6 PUSH20 0xFFFFFFFFFFFFFFFFFFFFFFFFFFFFFFFFFFFFFFFF AND EQ ISZERO ISZERO PUSH2 0x164C JUMPI DUP2 PUSH20 0xFFFFFFFFFFFFFFFFFFFFFFFFFFFFFFFFFFFFFFFF AND PUSH4 0xAE25532E PUSH1 0x40 MLOAD DUP2 PUSH4 0xFFFFFFFF AND PUSH29 0x100000000000000000000000000000000000000000000000000000000 MUL DUP2 MSTORE PUSH1 0x4 ADD PUSH1 0x20 PUSH1 0x40 MLOAD DUP1 DUP4 SUB DUP2 PUSH1 0x0 DUP8 DUP1 EXTCODESIZE ISZERO DUP1 ISZERO PUSH2 0x158E JUMPI PUSH1 0x0 DUP1 REVERT JUMPDEST POP GAS CALL ISZERO DUP1 ISZERO PUSH2 0x15A2 JUMPI RETURNDATASIZE PUSH1 0x0 DUP1 RETURNDATACOPY RETURNDATASIZE PUSH1 0x0 REVERT JUMPDEST POP POP POP POP PUSH1 0x40 MLOAD RETURNDATASIZE PUSH1 0x1F NOT PUSH1 0x1F DUP3 ADD AND DUP3 ADD DUP1 PUSH1 0x40 MSTORE POP PUSH2 0x15C6 SWAP2 SWAP1 DUP2 ADD SWAP1 PUSH2 0x5CF9 JUMP JUMPDEST SWAP1 POP DUP6 PUSH1 0xFF AND DUP2 PUSH1 0xFF AND EQ PUSH1 0x40 DUP1 MLOAD SWAP1 DUP2 ADD PUSH1 0x40 MSTORE DUP1 PUSH1 0x17 DUP2 MSTORE PUSH1 0x20 ADD PUSH32 0x41535345545F50524F58595F49445F4D49534D41544348000000000000000000 DUP2 MSTORE POP SWAP1 ISZERO ISZERO PUSH2 0x164A JUMPI PUSH1 0x40 MLOAD PUSH32 0x8C379A000000000000000000000000000000000000000000000000000000000 DUP2 MSTORE PUSH1 0x4 ADD PUSH2 0x1641 SWAP2 SWAP1 PUSH2 0x61D9 JUMP JUMPDEST PUSH1 0x40 MLOAD DUP1 SWAP2 SUB SWAP1 REVERT JUMPDEST POP JUMPDEST DUP2 PUSH1 0x9 PUSH1 0x0 DUP9 PUSH1 0xFF AND PUSH1 0xFF AND DUP2 MSTORE PUSH1 0x20 ADD SWAP1 DUP2 MSTORE PUSH1 0x20 ADD PUSH1 0x0 KECCAK256 PUSH1 0x0 PUSH2 0x100 EXP DUP2 SLOAD DUP2 PUSH20 0xFFFFFFFFFFFFFFFFFFFFFFFFFFFFFFFFFFFFFFFF MUL NOT AND SWAP1 DUP4 PUSH20 0xFFFFFFFFFFFFFFFFFFFFFFFFFFFFFFFFFFFFFFFF AND MUL OR SWAP1 SSTORE POP PUSH32 0x27EF5F484E50F2DAF7C2D82C60FE4CE409009541176EB64095BEAC369DB1D260 DUP7 DUP7 DUP7 PUSH1 0x40 MLOAD PUSH2 0x16D7 SWAP4 SWAP3 SWAP2 SWAP1 PUSH2 0x6268 JUMP JUMPDEST PUSH1 0x40 MLOAD DUP1 SWAP2 SUB SWAP1 LOG1 POP POP POP POP POP POP JUMP JUMPDEST PUSH1 0x7 PUSH1 0x20 MSTORE DUP1 PUSH1 0x0 MSTORE PUSH1 0x40 PUSH1 0x0 KECCAK256 PUSH1 0x0 SWAP2 POP SLOAD SWAP1 PUSH2 0x100 EXP SWAP1 DIV PUSH1 0xFF AND DUP2 JUMP JUMPDEST PUSH2 0x170F PUSH2 0x50F6 JUMP JUMPDEST PUSH2 0x171A DUP5 DUP5 DUP5 PUSH2 0x29F9 JUMP JUMPDEST SWAP1 POP DUP3 DUP2 PUSH1 0x20 ADD MLOAD EQ PUSH1 0x40 DUP1 MLOAD SWAP1 DUP2 ADD PUSH1 0x40 MSTORE DUP1 PUSH1 0x14 DUP2 MSTORE PUSH1 0x20 ADD PUSH32 0x434F4D504C4554455F46494C4C5F4641494C4544000000000000000000000000 DUP2 MSTORE POP SWAP1 ISZERO ISZERO PUSH2 0x179C JUMPI PUSH1 0x40 MLOAD PUSH32 0x8C379A000000000000000000000000000000000000000000000000000000000 DUP2 MSTORE PUSH1 0x4 ADD PUSH2 0x1793 SWAP2 SWAP1 PUSH2 0x61D9 JUMP JUMPDEST PUSH1 0x40 MLOAD DUP1 SWAP2 SUB SWAP1 REVERT JUMPDEST POP DUP1 SWAP1 POP SWAP4 SWAP3 POP POP POP JUMP JUMPDEST PUSH1 0x0 PUSH2 0x17B1 PUSH2 0x357F JUMP JUMPDEST SWAP1 POP DUP2 PUSH1 0x6 PUSH1 0x0 DUP4 PUSH20 0xFFFFFFFFFFFFFFFFFFFFFFFFFFFFFFFFFFFFFFFF AND PUSH20 0xFFFFFFFFFFFFFFFFFFFFFFFFFFFFFFFFFFFFFFFF AND DUP2 MSTORE PUSH1 0x20 ADD SWAP1 DUP2 MSTORE PUSH1 0x20 ADD PUSH1 0x0 KECCAK256 PUSH1 0x0 DUP6 PUSH20 0xFFFFFFFFFFFFFFFFFFFFFFFFFFFFFFFFFFFFFFFF AND PUSH20 0xFFFFFFFFFFFFFFFFFFFFFFFFFFFFFFFFFFFFFFFF AND DUP2 MSTORE PUSH1 0x20 ADD SWAP1 DUP2 MSTORE PUSH1 0x20 ADD PUSH1 0x0 KECCAK256 PUSH1 0x0 PUSH2 0x100 EXP DUP2 SLOAD DUP2 PUSH1 0xFF MUL NOT AND SWAP1 DUP4 ISZERO ISZERO MUL OR SWAP1 SSTORE POP DUP3 PUSH20 0xFFFFFFFFFFFFFFFFFFFFFFFFFFFFFFFFFFFFFFFF AND DUP2 PUSH20 0xFFFFFFFFFFFFFFFFFFFFFFFFFFFFFFFFFFFFFFFF AND PUSH32 0xA8656E308026EEABCE8F0BC18048433252318AB80AC79DA0B3D3D8697DFBA891 DUP5 PUSH1 0x40 MLOAD PUSH2 0x18A4 SWAP2 SWAP1 PUSH2 0x6089 JUMP JUMPDEST PUSH1 0x40 MLOAD DUP1 SWAP2 SUB SWAP1 LOG3 POP POP POP JUMP JUMPDEST PUSH1 0x6 PUSH1 0x20 MSTORE DUP2 PUSH1 0x0 MSTORE PUSH1 0x40 PUSH1 0x0 KECCAK256 PUSH1 0x20 MSTORE DUP1 PUSH1 0x0 MSTORE PUSH1 0x40 PUSH1 0x0 KECCAK256 PUSH1 0x0 SWAP2 POP SWAP2 POP SWAP1 SLOAD SWAP1 PUSH2 0x100 EXP SWAP1 DIV PUSH1 0xFF AND DUP2 JUMP JUMPDEST PUSH2 0x18E8 PUSH2 0x50F6 JUMP JUMPDEST PUSH1 0x60 PUSH1 0x0 DUP1 PUSH2 0x18F5 PUSH2 0x50F6 JUMP JUMPDEST DUP8 PUSH1 0x0 DUP2 MLOAD DUP2 LT ISZERO ISZERO PUSH2 0x1904 JUMPI INVALID JUMPDEST SWAP1 PUSH1 0x20 ADD SWAP1 PUSH1 0x20 MUL ADD MLOAD PUSH2 0x160 ADD MLOAD SWAP4 POP PUSH1 0x0 SWAP3 POP JUMPDEST DUP8 MLOAD DUP4 LT ISZERO PUSH2 0x19C0 JUMPI DUP4 DUP9 DUP5 DUP2 MLOAD DUP2 LT ISZERO ISZERO PUSH2 0x1932 JUMPI INVALID JUMPDEST SWAP1 PUSH1 0x20 ADD SWAP1 PUSH1 0x20 MUL ADD MLOAD PUSH2 0x160 ADD DUP2 SWAP1 MSTORE POP PUSH2 0x1952 DUP8 DUP7 PUSH1 0x20 ADD MLOAD PUSH2 0x3F22 JUMP JUMPDEST SWAP2 POP PUSH2 0x198D DUP9 DUP5 DUP2 MLOAD DUP2 LT ISZERO ISZERO PUSH2 0x1965 JUMPI INVALID JUMPDEST SWAP1 PUSH1 0x20 ADD SWAP1 PUSH1 0x20 MUL ADD MLOAD DUP4 DUP9 DUP7 DUP2 MLOAD DUP2 LT ISZERO ISZERO PUSH2 0x197E JUMPI INVALID JUMPDEST SWAP1 PUSH1 0x20 ADD SWAP1 PUSH1 0x20 MUL ADD MLOAD PUSH2 0x29F9 JUMP JUMPDEST SWAP1 POP DUP4 MLOAD PUSH1 0x1 DUP2 ADD DUP6 MSTORE POP PUSH2 0x19A2 DUP6 DUP3 PUSH2 0x350F JUMP JUMPDEST DUP7 DUP6 PUSH1 0x20 ADD MLOAD EQ ISZERO PUSH2 0x19B3 JUMPI PUSH2 0x19C0 JUMP JUMPDEST DUP3 DUP1 PUSH1 0x1 ADD SWAP4 POP POP PUSH2 0x191A JUMP JUMPDEST DUP5 SWAP5 POP POP POP POP POP SWAP4 SWAP3 POP POP POP JUMP JUMPDEST PUSH1 0x5 PUSH1 0x20 MSTORE DUP2 PUSH1 0x0 MSTORE PUSH1 0x40 PUSH1 0x0 KECCAK256 PUSH1 0x20 MSTORE DUP1 PUSH1 0x0 MSTORE PUSH1 0x40 PUSH1 0x0 KECCAK256 PUSH1 0x0 SWAP2 POP SWAP2 POP SWAP1 SLOAD SWAP1 PUSH2 0x100 EXP SWAP1 DIV PUSH1 0xFF AND DUP2 JUMP JUMPDEST PUSH1 0x1 PUSH1 0x0 SWAP1 SLOAD SWAP1 PUSH2 0x100 EXP SWAP1 DIV PUSH20 0xFFFFFFFFFFFFFFFFFFFFFFFFFFFFFFFFFFFFFFFF AND DUP2 JUMP JUMPDEST PUSH1 0x0 PUSH1 0x9 PUSH1 0x0 DUP4 PUSH1 0xFF AND PUSH1 0xFF AND DUP2 MSTORE PUSH1 0x20 ADD SWAP1 DUP2 MSTORE PUSH1 0x20 ADD PUSH1 0x0 KECCAK256 PUSH1 0x0 SWAP1 SLOAD SWAP1 PUSH2 0x100 EXP SWAP1 DIV PUSH20 0xFFFFFFFFFFFFFFFFFFFFFFFFFFFFFFFFFFFFFFFF AND SWAP1 POP SWAP2 SWAP1 POP JUMP JUMPDEST PUSH1 0x0 DUP1 PUSH1 0x0 DUP1 PUSH1 0x0 DUP1 PUSH1 0x0 DUP1 PUSH1 0x0 DUP10 MLOAD GT PUSH1 0x40 DUP1 MLOAD SWAP1 DUP2 ADD PUSH1 0x40 MSTORE DUP1 PUSH1 0x1E DUP2 MSTORE PUSH1 0x20 ADD PUSH32 0x4C454E4754485F475245415445525F5448414E5F305F52455155495245440000 DUP2 MSTORE POP SWAP1 ISZERO ISZERO PUSH2 0x1AF0 JUMPI PUSH1 0x40 MLOAD PUSH32 0x8C379A000000000000000000000000000000000000000000000000000000000 DUP2 MSTORE PUSH1 0x4 ADD PUSH2 0x1AE7 SWAP2 SWAP1 PUSH2 0x61D9 JUMP JUMPDEST PUSH1 0x40 MLOAD DUP1 SWAP2 SUB SWAP1 REVERT JUMPDEST POP PUSH2 0x1AFA DUP10 PUSH2 0x3F3B JUMP JUMPDEST PUSH32 0x100000000000000000000000000000000000000000000000000000000000000 SWAP1 DIV SWAP7 POP PUSH1 0x9 DUP1 DUP2 GT ISZERO PUSH2 0x1B2B JUMPI INVALID JUMPDEST PUSH1 0xFF AND DUP8 PUSH1 0xFF AND LT PUSH1 0x40 DUP1 MLOAD SWAP1 DUP2 ADD PUSH1 0x40 MSTORE DUP1 PUSH1 0x15 DUP2 MSTORE PUSH1 0x20 ADD PUSH32 0x5349474E41545552455F554E535550504F525445440000000000000000000000 DUP2 MSTORE POP SWAP1 ISZERO ISZERO PUSH2 0x1BAC JUMPI PUSH1 0x40 MLOAD PUSH32 0x8C379A000000000000000000000000000000000000000000000000000000000 DUP2 MSTORE PUSH1 0x4 ADD PUSH2 0x1BA3 SWAP2 SWAP1 PUSH2 0x61D9 JUMP JUMPDEST PUSH1 0x40 MLOAD DUP1 SWAP2 SUB SWAP1 REVERT JUMPDEST POP DUP7 PUSH1 0xFF AND PUSH1 0x9 DUP2 GT ISZERO PUSH2 0x1BBC JUMPI INVALID JUMPDEST SWAP6 POP PUSH1 0x0 PUSH1 0x9 DUP2 GT ISZERO PUSH2 0x1BCB JUMPI INVALID JUMPDEST DUP7 PUSH1 0x9 DUP2 GT ISZERO PUSH2 0x1BD7 JUMPI INVALID JUMPDEST EQ ISZERO PUSH2 0x1C4F JUMPI PUSH1 0x40 DUP1 MLOAD SWAP1 DUP2 ADD PUSH1 0x40 MSTORE DUP1 PUSH1 0x11 DUP2 MSTORE PUSH1 0x20 ADD PUSH32 0x5349474E41545552455F494C4C4547414C000000000000000000000000000000 DUP2 MSTORE POP PUSH1 0x40 MLOAD PUSH32 0x8C379A000000000000000000000000000000000000000000000000000000000 DUP2 MSTORE PUSH1 0x4 ADD PUSH2 0x1C46 SWAP2 SWAP1 PUSH2 0x61D9 JUMP JUMPDEST PUSH1 0x40 MLOAD DUP1 SWAP2 SUB SWAP1 REVERT JUMPDEST PUSH1 0x1 PUSH1 0x9 DUP2 GT ISZERO PUSH2 0x1C5C JUMPI INVALID JUMPDEST DUP7 PUSH1 0x9 DUP2 GT ISZERO PUSH2 0x1C68 JUMPI INVALID JUMPDEST EQ ISZERO PUSH2 0x1CF9 JUMPI PUSH1 0x0 DUP10 MLOAD EQ PUSH1 0x40 DUP1 MLOAD SWAP1 DUP2 ADD PUSH1 0x40 MSTORE DUP1 PUSH1 0x11 DUP2 MSTORE PUSH1 0x20 ADD PUSH32 0x4C454E4754485F305F5245515549524544000000000000000000000000000000 DUP2 MSTORE POP SWAP1 ISZERO ISZERO PUSH2 0x1CEC JUMPI PUSH1 0x40 MLOAD PUSH32 0x8C379A000000000000000000000000000000000000000000000000000000000 DUP2 MSTORE PUSH1 0x4 ADD PUSH2 0x1CE3 SWAP2 SWAP1 PUSH2 0x61D9 JUMP JUMPDEST PUSH1 0x40 MLOAD DUP1 SWAP2 SUB SWAP1 REVERT JUMPDEST POP PUSH1 0x0 SWAP8 POP DUP8 SWAP8 POP PUSH2 0x28C0 JUMP JUMPDEST PUSH1 0x2 PUSH1 0x9 DUP2 GT ISZERO PUSH2 0x1D06 JUMPI INVALID JUMPDEST DUP7 PUSH1 0x9 DUP2 GT ISZERO PUSH2 0x1D12 JUMPI INVALID JUMPDEST EQ ISZERO PUSH2 0x1ECE JUMPI PUSH1 0x41 DUP10 MLOAD EQ PUSH1 0x40 DUP1 MLOAD SWAP1 DUP2 ADD PUSH1 0x40 MSTORE DUP1 PUSH1 0x12 DUP2 MSTORE PUSH1 0x20 ADD PUSH32 0x4C454E4754485F36355F52455155495245440000000000000000000000000000 DUP2 MSTORE POP SWAP1 ISZERO ISZERO PUSH2 0x1D96 JUMPI PUSH1 0x40 MLOAD PUSH32 0x8C379A000000000000000000000000000000000000000000000000000000000 DUP2 MSTORE PUSH1 0x4 ADD PUSH2 0x1D8D SWAP2 SWAP1 PUSH2 0x61D9 JUMP JUMPDEST PUSH1 0x40 MLOAD DUP1 SWAP2 SUB SWAP1 REVERT JUMPDEST POP DUP9 PUSH1 0x0 DUP2 MLOAD DUP2 LT ISZERO ISZERO PUSH2 0x1DA6 JUMPI INVALID JUMPDEST SWAP1 PUSH1 0x20 ADD ADD MLOAD PUSH32 0x100000000000000000000000000000000000000000000000000000000000000 SWAP1 DIV PUSH32 0x100000000000000000000000000000000000000000000000000000000000000 MUL PUSH32 0x100000000000000000000000000000000000000000000000000000000000000 SWAP1 DIV SWAP5 POP PUSH2 0x1E2A PUSH1 0x1 DUP11 PUSH2 0x4052 SWAP1 SWAP2 SWAP1 PUSH4 0xFFFFFFFF AND JUMP JUMPDEST SWAP4 POP PUSH2 0x1E40 PUSH1 0x21 DUP11 PUSH2 0x4052 SWAP1 SWAP2 SWAP1 PUSH4 0xFFFFFFFF AND JUMP JUMPDEST SWAP3 POP PUSH1 0x1 DUP12 DUP7 DUP7 DUP7 PUSH1 0x40 MLOAD PUSH1 0x0 DUP2 MSTORE PUSH1 0x20 ADD PUSH1 0x40 MSTORE PUSH1 0x40 MLOAD PUSH2 0x1E65 SWAP5 SWAP4 SWAP3 SWAP2 SWAP1 PUSH2 0x612D JUMP JUMPDEST PUSH1 0x20 PUSH1 0x40 MLOAD PUSH1 0x20 DUP2 SUB SWAP1 DUP1 DUP5 SUB SWAP1 PUSH1 0x0 DUP7 GAS CALL ISZERO DUP1 ISZERO PUSH2 0x1E89 JUMPI RETURNDATASIZE PUSH1 0x0 DUP1 RETURNDATACOPY RETURNDATASIZE PUSH1 0x0 REVERT JUMPDEST POP POP POP PUSH1 0x20 PUSH1 0x40 MLOAD SUB MLOAD SWAP2 POP DUP2 PUSH20 0xFFFFFFFFFFFFFFFFFFFFFFFFFFFFFFFFFFFFFFFF AND DUP11 PUSH20 0xFFFFFFFFFFFFFFFFFFFFFFFFFFFFFFFFFFFFFFFF AND EQ SWAP8 POP DUP8 SWAP8 POP PUSH2 0x28C0 JUMP JUMPDEST PUSH1 0x3 PUSH1 0x9 DUP2 GT ISZERO PUSH2 0x1EDB JUMPI INVALID JUMPDEST DUP7 PUSH1 0x9 DUP2 GT ISZERO PUSH2 0x1EE7 JUMPI INVALID JUMPDEST EQ ISZERO PUSH2 0x21B6 JUMPI PUSH1 0x41 DUP10 MLOAD EQ PUSH1 0x40 DUP1 MLOAD SWAP1 DUP2 ADD PUSH1 0x40 MSTORE DUP1 PUSH1 0x12 DUP2 MSTORE PUSH1 0x20 ADD PUSH32 0x4C454E4754485F36355F52455155495245440000000000000000000000000000 DUP2 MSTORE POP SWAP1 ISZERO ISZERO PUSH2 0x1F6B JUMPI PUSH1 0x40 MLOAD PUSH32 0x8C379A000000000000000000000000000000000000000000000000000000000 DUP2 MSTORE PUSH1 0x4 ADD PUSH2 0x1F62 SWAP2 SWAP1 PUSH2 0x61D9 JUMP JUMPDEST PUSH1 0x40 MLOAD DUP1 SWAP2 SUB SWAP1 REVERT JUMPDEST POP DUP9 PUSH1 0x0 DUP2 MLOAD DUP2 LT ISZERO ISZERO PUSH2 0x1F7B JUMPI INVALID JUMPDEST SWAP1 PUSH1 0x20 ADD ADD MLOAD PUSH32 0x100000000000000000000000000000000000000000000000000000000000000 SWAP1 DIV PUSH32 0x100000000000000000000000000000000000000000000000000000000000000 MUL PUSH32 0x100000000000000000000000000000000000000000000000000000000000000 SWAP1 DIV SWAP5 POP PUSH2 0x1FFF PUSH1 0x1 DUP11 PUSH2 0x4052 SWAP1 SWAP2 SWAP1 PUSH4 0xFFFFFFFF AND JUMP JUMPDEST SWAP4 POP PUSH2 0x2015 PUSH1 0x21 DUP11 PUSH2 0x4052 SWAP1 SWAP2 SWAP1 PUSH4 0xFFFFFFFF AND JUMP JUMPDEST SWAP3 POP PUSH1 0x1 PUSH1 0x40 DUP1 MLOAD SWAP1 DUP2 ADD PUSH1 0x40 MSTORE DUP1 PUSH1 0x1C DUP2 MSTORE PUSH1 0x20 ADD PUSH32 0x19457468657265756D205369676E6564204D6573736167653A0A333200000000 DUP2 MSTORE POP DUP13 PUSH1 0x40 MLOAD PUSH1 0x20 ADD DUP1 DUP4 DUP1 MLOAD SWAP1 PUSH1 0x20 ADD SWAP1 DUP1 DUP4 DUP4 JUMPDEST PUSH1 0x20 DUP4 LT ISZERO ISZERO PUSH2 0x2088 JUMPI DUP1 MLOAD DUP3 MSTORE PUSH1 0x20 DUP3 ADD SWAP2 POP PUSH1 0x20 DUP2 ADD SWAP1 POP PUSH1 0x20 DUP4 SUB SWAP3 POP PUSH2 0x2063 JUMP JUMPDEST PUSH1 0x1 DUP4 PUSH1 0x20 SUB PUSH2 0x100 EXP SUB DUP1 NOT DUP3 MLOAD AND DUP2 DUP5 MLOAD AND DUP1 DUP3 OR DUP6 MSTORE POP POP POP POP POP POP SWAP1 POP ADD DUP3 PUSH1 0x0 NOT AND PUSH1 0x0 NOT AND DUP2 MSTORE PUSH1 0x20 ADD SWAP3 POP POP POP PUSH1 0x40 MLOAD PUSH1 0x20 DUP2 DUP4 SUB SUB DUP2 MSTORE SWAP1 PUSH1 0x40 MSTORE PUSH1 0x40 MLOAD DUP1 DUP3 DUP1 MLOAD SWAP1 PUSH1 0x20 ADD SWAP1 DUP1 DUP4 DUP4 JUMPDEST PUSH1 0x20 DUP4 LT ISZERO ISZERO PUSH2 0x2100 JUMPI DUP1 MLOAD DUP3 MSTORE PUSH1 0x20 DUP3 ADD SWAP2 POP PUSH1 0x20 DUP2 ADD SWAP1 POP PUSH1 0x20 DUP4 SUB SWAP3 POP PUSH2 0x20DB JUMP JUMPDEST PUSH1 0x1 DUP4 PUSH1 0x20 SUB PUSH2 0x100 EXP SUB DUP1 NOT DUP3 MLOAD AND DUP2 DUP5 MLOAD AND DUP1 DUP3 OR DUP6 MSTORE POP POP POP POP POP POP SWAP1 POP ADD SWAP2 POP POP PUSH1 0x40 MLOAD DUP1 SWAP2 SUB SWAP1 KECCAK256 DUP7 DUP7 DUP7 PUSH1 0x40 MLOAD PUSH1 0x0 DUP2 MSTORE PUSH1 0x20 ADD PUSH1 0x40 MSTORE PUSH1 0x40 MLOAD PUSH2 0x214D SWAP5 SWAP4 SWAP3 SWAP2 SWAP1 PUSH2 0x612D JUMP JUMPDEST PUSH1 0x20 PUSH1 0x40 MLOAD PUSH1 0x20 DUP2 SUB SWAP1 DUP1 DUP5 SUB SWAP1 PUSH1 0x0 DUP7 GAS CALL ISZERO DUP1 ISZERO PUSH2 0x2171 JUMPI RETURNDATASIZE PUSH1 0x0 DUP1 RETURNDATACOPY RETURNDATASIZE PUSH1 0x0 REVERT JUMPDEST POP POP POP PUSH1 0x20 PUSH1 0x40 MLOAD SUB MLOAD SWAP2 POP DUP2 PUSH20 0xFFFFFFFFFFFFFFFFFFFFFFFFFFFFFFFFFFFFFFFF AND DUP11 PUSH20 0xFFFFFFFFFFFFFFFFFFFFFFFFFFFFFFFFFFFFFFFF AND EQ SWAP8 POP DUP8 SWAP8 POP PUSH2 0x28C0 JUMP JUMPDEST PUSH1 0x4 PUSH1 0x9 DUP2 GT ISZERO PUSH2 0x21C3 JUMPI INVALID JUMPDEST DUP7 PUSH1 0x9 DUP2 GT ISZERO PUSH2 0x21CF JUMPI INVALID JUMPDEST EQ ISZERO PUSH2 0x228D JUMPI PUSH1 0x0 DUP10 MLOAD EQ PUSH1 0x40 DUP1 MLOAD SWAP1 DUP2 ADD PUSH1 0x40 MSTORE DUP1 PUSH1 0x11 DUP2 MSTORE PUSH1 0x20 ADD PUSH32 0x4C454E4754485F305F5245515549524544000000000000000000000000000000 DUP2 MSTORE POP SWAP1 ISZERO ISZERO PUSH2 0x2253 JUMPI PUSH1 0x40 MLOAD PUSH32 0x8C379A000000000000000000000000000000000000000000000000000000000 DUP2 MSTORE PUSH1 0x4 ADD PUSH2 0x224A SWAP2 SWAP1 PUSH2 0x61D9 JUMP JUMPDEST PUSH1 0x40 MLOAD DUP1 SWAP2 SUB SWAP1 REVERT JUMPDEST POP CALLER PUSH20 0xFFFFFFFFFFFFFFFFFFFFFFFFFFFFFFFFFFFFFFFF AND DUP11 PUSH20 0xFFFFFFFFFFFFFFFFFFFFFFFFFFFFFFFFFFFFFFFF AND EQ SWAP8 POP DUP8 SWAP8 POP PUSH2 0x28C0 JUMP JUMPDEST PUSH1 0x5 PUSH1 0x9 DUP2 GT ISZERO PUSH2 0x229A JUMPI INVALID JUMPDEST DUP7 PUSH1 0x9 DUP2 GT ISZERO PUSH2 0x22A6 JUMPI INVALID JUMPDEST EQ ISZERO PUSH2 0x235F JUMPI DUP10 PUSH20 0xFFFFFFFFFFFFFFFFFFFFFFFFFFFFFFFFFFFFFFFF AND PUSH4 0x1626BA7E DUP13 DUP12 PUSH1 0x40 MLOAD DUP4 PUSH4 0xFFFFFFFF AND PUSH29 0x100000000000000000000000000000000000000000000000000000000 MUL DUP2 MSTORE PUSH1 0x4 ADD PUSH2 0x2303 SWAP3 SWAP2 SWAP1 PUSH2 0x60FD JUMP JUMPDEST PUSH1 0x20 PUSH1 0x40 MLOAD DUP1 DUP4 SUB DUP2 PUSH1 0x0 DUP8 DUP1 EXTCODESIZE ISZERO DUP1 ISZERO PUSH2 0x231D JUMPI PUSH1 0x0 DUP1 REVERT JUMPDEST POP GAS CALL ISZERO DUP1 ISZERO PUSH2 0x2331 JUMPI RETURNDATASIZE PUSH1 0x0 DUP1 RETURNDATACOPY RETURNDATASIZE PUSH1 0x0 REVERT JUMPDEST POP POP POP POP PUSH1 0x40 MLOAD RETURNDATASIZE PUSH1 0x1F NOT PUSH1 0x1F DUP3 ADD AND DUP3 ADD DUP1 PUSH1 0x40 MSTORE POP PUSH2 0x2355 SWAP2 SWAP1 DUP2 ADD SWAP1 PUSH2 0x5928 JUMP JUMPDEST SWAP8 POP DUP8 SWAP8 POP PUSH2 0x28C0 JUMP JUMPDEST PUSH1 0x6 PUSH1 0x9 DUP2 GT ISZERO PUSH2 0x236C JUMPI INVALID JUMPDEST DUP7 PUSH1 0x9 DUP2 GT ISZERO PUSH2 0x2378 JUMPI INVALID JUMPDEST EQ ISZERO PUSH2 0x24D7 JUMPI PUSH2 0x2387 DUP10 PUSH2 0x4112 JUMP JUMPDEST SWAP1 POP PUSH1 0x6 PUSH1 0x0 DUP12 PUSH20 0xFFFFFFFFFFFFFFFFFFFFFFFFFFFFFFFFFFFFFFFF AND PUSH20 0xFFFFFFFFFFFFFFFFFFFFFFFFFFFFFFFFFFFFFFFF AND DUP2 MSTORE PUSH1 0x20 ADD SWAP1 DUP2 MSTORE PUSH1 0x20 ADD PUSH1 0x0 KECCAK256 PUSH1 0x0 DUP3 PUSH20 0xFFFFFFFFFFFFFFFFFFFFFFFFFFFFFFFFFFFFFFFF AND PUSH20 0xFFFFFFFFFFFFFFFFFFFFFFFFFFFFFFFFFFFFFFFF AND DUP2 MSTORE PUSH1 0x20 ADD SWAP1 DUP2 MSTORE PUSH1 0x20 ADD PUSH1 0x0 KECCAK256 PUSH1 0x0 SWAP1 SLOAD SWAP1 PUSH2 0x100 EXP SWAP1 DIV PUSH1 0xFF AND ISZERO ISZERO PUSH2 0x2422 JUMPI PUSH1 0x0 SWAP8 POP PUSH2 0x28C0 JUMP JUMPDEST DUP1 PUSH20 0xFFFFFFFFFFFFFFFFFFFFFFFFFFFFFFFFFFFFFFFF AND PUSH4 0x93634702 DUP13 DUP13 DUP13 PUSH1 0x40 MLOAD DUP5 PUSH4 0xFFFFFFFF AND PUSH29 0x100000000000000000000000000000000000000000000000000000000 MUL DUP2 MSTORE PUSH1 0x4 ADD PUSH2 0x247B SWAP4 SWAP3 SWAP2 SWAP1 PUSH2 0x60BF JUMP JUMPDEST PUSH1 0x20 PUSH1 0x40 MLOAD DUP1 DUP4 SUB DUP2 PUSH1 0x0 DUP8 DUP1 EXTCODESIZE ISZERO DUP1 ISZERO PUSH2 0x2495 JUMPI PUSH1 0x0 DUP1 REVERT JUMPDEST POP GAS CALL ISZERO DUP1 ISZERO PUSH2 0x24A9 JUMPI RETURNDATASIZE PUSH1 0x0 DUP1 RETURNDATACOPY RETURNDATASIZE PUSH1 0x0 REVERT JUMPDEST POP POP POP POP PUSH1 0x40 MLOAD RETURNDATASIZE PUSH1 0x1F NOT PUSH1 0x1F DUP3 ADD AND DUP3 ADD DUP1 PUSH1 0x40 MSTORE POP PUSH2 0x24CD SWAP2 SWAP1 DUP2 ADD SWAP1 PUSH2 0x5928 JUMP JUMPDEST SWAP8 POP DUP8 SWAP8 POP PUSH2 0x28C0 JUMP JUMPDEST PUSH1 0x7 PUSH1 0x9 DUP2 GT ISZERO PUSH2 0x24E4 JUMPI INVALID JUMPDEST DUP7 PUSH1 0x9 DUP2 GT ISZERO PUSH2 0x24F0 JUMPI INVALID JUMPDEST EQ ISZERO PUSH2 0x2566 JUMPI PUSH1 0x5 PUSH1 0x0 DUP13 PUSH1 0x0 NOT AND PUSH1 0x0 NOT AND DUP2 MSTORE PUSH1 0x20 ADD SWAP1 DUP2 MSTORE PUSH1 0x20 ADD PUSH1 0x0 KECCAK256 PUSH1 0x0 DUP12 PUSH20 0xFFFFFFFFFFFFFFFFFFFFFFFFFFFFFFFFFFFFFFFF AND PUSH20 0xFFFFFFFFFFFFFFFFFFFFFFFFFFFFFFFFFFFFFFFF AND DUP2 MSTORE PUSH1 0x20 ADD SWAP1 DUP2 MSTORE PUSH1 0x20 ADD PUSH1 0x0 KECCAK256 PUSH1 0x0 SWAP1 SLOAD SWAP1 PUSH2 0x100 EXP SWAP1 DIV PUSH1 0xFF AND SWAP8 POP DUP8 SWAP8 POP PUSH2 0x28C0 JUMP JUMPDEST PUSH1 0x8 PUSH1 0x9 DUP2 GT ISZERO PUSH2 0x2573 JUMPI INVALID JUMPDEST DUP7 PUSH1 0x9 DUP2 GT ISZERO PUSH2 0x257F JUMPI INVALID JUMPDEST EQ ISZERO PUSH2 0x284E JUMPI PUSH1 0x41 DUP10 MLOAD EQ PUSH1 0x40 DUP1 MLOAD SWAP1 DUP2 ADD PUSH1 0x40 MSTORE DUP1 PUSH1 0x12 DUP2 MSTORE PUSH1 0x20 ADD PUSH32 0x4C454E4754485F36355F52455155495245440000000000000000000000000000 DUP2 MSTORE POP SWAP1 ISZERO ISZERO PUSH2 0x2603 JUMPI PUSH1 0x40 MLOAD PUSH32 0x8C379A000000000000000000000000000000000000000000000000000000000 DUP2 MSTORE PUSH1 0x4 ADD PUSH2 0x25FA SWAP2 SWAP1 PUSH2 0x61D9 JUMP JUMPDEST PUSH1 0x40 MLOAD DUP1 SWAP2 SUB SWAP1 REVERT JUMPDEST POP DUP9 PUSH1 0x0 DUP2 MLOAD DUP2 LT ISZERO ISZERO PUSH2 0x2613 JUMPI INVALID JUMPDEST SWAP1 PUSH1 0x20 ADD ADD MLOAD PUSH32 0x100000000000000000000000000000000000000000000000000000000000000 SWAP1 DIV PUSH32 0x100000000000000000000000000000000000000000000000000000000000000 MUL PUSH32 0x100000000000000000000000000000000000000000000000000000000000000 SWAP1 DIV SWAP5 POP PUSH2 0x2697 PUSH1 0x1 DUP11 PUSH2 0x4052 SWAP1 SWAP2 SWAP1 PUSH4 0xFFFFFFFF AND JUMP JUMPDEST SWAP4 POP PUSH2 0x26AD PUSH1 0x21 DUP11 PUSH2 0x4052 SWAP1 SWAP2 SWAP1 PUSH4 0xFFFFFFFF AND JUMP JUMPDEST SWAP3 POP PUSH1 0x1 PUSH1 0x40 DUP1 MLOAD SWAP1 DUP2 ADD PUSH1 0x40 MSTORE DUP1 PUSH1 0x1B DUP2 MSTORE PUSH1 0x20 ADD PUSH32 0x19457468657265756D205369676E6564204D6573736167653A0A200000000000 DUP2 MSTORE POP DUP13 PUSH1 0x40 MLOAD PUSH1 0x20 ADD DUP1 DUP4 DUP1 MLOAD SWAP1 PUSH1 0x20 ADD SWAP1 DUP1 DUP4 DUP4 JUMPDEST PUSH1 0x20 DUP4 LT ISZERO ISZERO PUSH2 0x2720 JUMPI DUP1 MLOAD DUP3 MSTORE PUSH1 0x20 DUP3 ADD SWAP2 POP PUSH1 0x20 DUP2 ADD SWAP1 POP PUSH1 0x20 DUP4 SUB SWAP3 POP PUSH2 0x26FB JUMP JUMPDEST PUSH1 0x1 DUP4 PUSH1 0x20 SUB PUSH2 0x100 EXP SUB DUP1 NOT DUP3 MLOAD AND DUP2 DUP5 MLOAD AND DUP1 DUP3 OR DUP6 MSTORE POP POP POP POP POP POP SWAP1 POP ADD DUP3 PUSH1 0x0 NOT AND PUSH1 0x0 NOT AND DUP2 MSTORE PUSH1 0x20 ADD SWAP3 POP POP POP PUSH1 0x40 MLOAD PUSH1 0x20 DUP2 DUP4 SUB SUB DUP2 MSTORE SWAP1 PUSH1 0x40 MSTORE PUSH1 0x40 MLOAD DUP1 DUP3 DUP1 MLOAD SWAP1 PUSH1 0x20 ADD SWAP1 DUP1 DUP4 DUP4 JUMPDEST PUSH1 0x20 DUP4 LT ISZERO ISZERO PUSH2 0x2798 JUMPI DUP1 MLOAD DUP3 MSTORE PUSH1 0x20 DUP3 ADD SWAP2 POP PUSH1 0x20 DUP2 ADD SWAP1 POP PUSH1 0x20 DUP4 SUB SWAP3 POP PUSH2 0x2773 JUMP JUMPDEST PUSH1 0x1 DUP4 PUSH1 0x20 SUB PUSH2 0x100 EXP SUB DUP1 NOT DUP3 MLOAD AND DUP2 DUP5 MLOAD AND DUP1 DUP3 OR DUP6 MSTORE POP POP POP POP POP POP SWAP1 POP ADD SWAP2 POP POP PUSH1 0x40 MLOAD DUP1 SWAP2 SUB SWAP1 KECCAK256 DUP7 DUP7 DUP7 PUSH1 0x40 MLOAD PUSH1 0x0 DUP2 MSTORE PUSH1 0x20 ADD PUSH1 0x40 MSTORE PUSH1 0x40 MLOAD PUSH2 0x27E5 SWAP5 SWAP4 SWAP3 SWAP2 SWAP1 PUSH2 0x612D JUMP JUMPDEST PUSH1 0x20 PUSH1 0x40 MLOAD PUSH1 0x20 DUP2 SUB SWAP1 DUP1 DUP5 SUB SWAP1 PUSH1 0x0 DUP7 GAS CALL ISZERO DUP1 ISZERO PUSH2 0x2809 JUMPI RETURNDATASIZE PUSH1 0x0 DUP1 RETURNDATACOPY RETURNDATASIZE PUSH1 0x0 REVERT JUMPDEST POP POP POP PUSH1 0x20 PUSH1 0x40 MLOAD SUB MLOAD SWAP2 POP DUP2 PUSH20 0xFFFFFFFFFFFFFFFFFFFFFFFFFFFFFFFFFFFFFFFF AND DUP11 PUSH20 0xFFFFFFFFFFFFFFFFFFFFFFFFFFFFFFFFFFFFFFFF AND EQ SWAP8 POP DUP8 SWAP8 POP PUSH2 0x28C0 JUMP JUMPDEST PUSH1 0x40 DUP1 MLOAD SWAP1 DUP2 ADD PUSH1 0x40 MSTORE DUP1 PUSH1 0x15 DUP2 MSTORE PUSH1 0x20 ADD PUSH32 0x5349474E41545552455F554E535550504F525445440000000000000000000000 DUP2 MSTORE POP PUSH1 0x40 MLOAD PUSH32 0x8C379A000000000000000000000000000000000000000000000000000000000 DUP2 MSTORE PUSH1 0x4 ADD PUSH2 0x28B7 SWAP2 SWAP1 PUSH2 0x61D9 JUMP JUMPDEST PUSH1 0x40 MLOAD DUP1 SWAP2 SUB SWAP1 REVERT JUMPDEST POP POP POP POP POP POP POP SWAP4 SWAP3 POP POP POP JUMP JUMPDEST PUSH2 0x28D6 PUSH2 0x50F6 JUMP JUMPDEST PUSH1 0x60 PUSH1 0x0 DUP1 PUSH1 0x0 PUSH2 0x28E5 PUSH2 0x50F6 JUMP JUMPDEST DUP9 PUSH1 0x0 DUP2 MLOAD DUP2 LT ISZERO ISZERO PUSH2 0x28F4 JUMPI INVALID JUMPDEST SWAP1 PUSH1 0x20 ADD SWAP1 PUSH1 0x20 MUL ADD MLOAD PUSH2 0x140 ADD MLOAD SWAP5 POP PUSH1 0x0 SWAP4 POP JUMPDEST DUP9 MLOAD DUP5 LT ISZERO PUSH2 0x29EA JUMPI DUP5 DUP10 DUP6 DUP2 MLOAD DUP2 LT ISZERO ISZERO PUSH2 0x2922 JUMPI INVALID JUMPDEST SWAP1 PUSH1 0x20 ADD SWAP1 PUSH1 0x20 MUL ADD MLOAD PUSH2 0x140 ADD DUP2 SWAP1 MSTORE POP PUSH2 0x2942 DUP9 DUP8 PUSH1 0x0 ADD MLOAD PUSH2 0x3F22 JUMP JUMPDEST SWAP3 POP PUSH2 0x2985 DUP10 DUP6 DUP2 MLOAD DUP2 LT ISZERO ISZERO PUSH2 0x2955 JUMPI INVALID JUMPDEST SWAP1 PUSH1 0x20 ADD SWAP1 PUSH1 0x20 MUL ADD MLOAD PUSH1 0xA0 ADD MLOAD DUP11 DUP7 DUP2 MLOAD DUP2 LT ISZERO ISZERO PUSH2 0x2971 JUMPI INVALID JUMPDEST SWAP1 PUSH1 0x20 ADD SWAP1 PUSH1 0x20 MUL ADD MLOAD PUSH1 0x80 ADD MLOAD DUP6 PUSH2 0x41DC JUMP JUMPDEST SWAP2 POP PUSH2 0x29C0 DUP10 DUP6 DUP2 MLOAD DUP2 LT ISZERO ISZERO PUSH2 0x2998 JUMPI INVALID JUMPDEST SWAP1 PUSH1 0x20 ADD SWAP1 PUSH1 0x20 MUL ADD MLOAD DUP4 DUP10 DUP8 DUP2 MLOAD DUP2 LT ISZERO ISZERO PUSH2 0x29B1 JUMPI INVALID JUMPDEST SWAP1 PUSH1 0x20 ADD SWAP1 PUSH1 0x20 MUL ADD MLOAD PUSH2 0xD44 JUMP JUMPDEST SWAP1 POP PUSH2 0x29CC DUP7 DUP3 PUSH2 0x350F JUMP JUMPDEST DUP8 DUP7 PUSH1 0x0 ADD MLOAD EQ ISZERO PUSH2 0x29DD JUMPI PUSH2 0x29EA JUMP JUMPDEST DUP4 DUP1 PUSH1 0x1 ADD SWAP5 POP POP PUSH2 0x290A JUMP JUMPDEST DUP6 SWAP6 POP POP POP POP POP POP SWAP4 SWAP3 POP POP POP JUMP JUMPDEST PUSH2 0x2A01 PUSH2 0x50F6 JUMP JUMPDEST PUSH2 0x2A09 PUSH2 0x514E JUMP JUMPDEST PUSH1 0x0 DUP1 PUSH1 0x0 PUSH2 0x2A17 DUP9 PUSH2 0x2EA5 JUMP JUMPDEST SWAP4 POP PUSH2 0x2A21 PUSH2 0x357F JUMP JUMPDEST SWAP3 POP PUSH2 0x2A35 DUP9 PUSH1 0xA0 ADD MLOAD DUP6 PUSH1 0x40 ADD MLOAD PUSH2 0x3F22 JUMP JUMPDEST SWAP2 POP PUSH2 0x2A41 DUP8 DUP4 PUSH2 0x41FD JUMP JUMPDEST SWAP1 POP PUSH2 0x2A51 DUP9 DUP6 DUP6 DUP11 DUP6 DUP12 PUSH2 0x378C JUMP JUMPDEST PUSH2 0x2A5B DUP9 DUP3 PUSH2 0x4216 JUMP JUMPDEST SWAP5 POP PUSH2 0x2A72 DUP9 DUP5 DUP7 PUSH1 0x20 ADD MLOAD DUP8 PUSH1 0x40 ADD MLOAD DUP10 PUSH2 0x3B9F JUMP JUMPDEST PUSH2 0x2A7D DUP9 DUP5 DUP8 PUSH2 0x4291 JUMP JUMPDEST DUP5 SWAP5 POP POP POP POP POP SWAP4 SWAP3 POP POP POP JUMP JUMPDEST PUSH1 0x0 DUP1 PUSH20 0xFFFFFFFFFFFFFFFFFFFFFFFFFFFFFFFFFFFFFFFF AND PUSH1 0x8 PUSH1 0x0 SWAP1 SLOAD SWAP1 PUSH2 0x100 EXP SWAP1 DIV PUSH20 0xFFFFFFFFFFFFFFFFFFFFFFFFFFFFFFFFFFFFFFFF AND PUSH20 0xFFFFFFFFFFFFFFFFFFFFFFFFFFFFFFFFFFFFFFFF AND EQ PUSH1 0x40 DUP1 MLOAD SWAP1 DUP2 ADD PUSH1 0x40 MSTORE DUP1 PUSH1 0x12 DUP2 MSTORE PUSH1 0x20 ADD PUSH32 0x5245454E5452414E43595F494C4C4547414C0000000000000000000000000000 DUP2 MSTORE POP SWAP1 ISZERO ISZERO PUSH2 0x2B57 JUMPI PUSH1 0x40 MLOAD PUSH32 0x8C379A000000000000000000000000000000000000000000000000000000000 DUP2 MSTORE PUSH1 0x4 ADD PUSH2 0x2B4E SWAP2 SWAP1 PUSH2 0x61D9 JUMP JUMPDEST PUSH1 0x40 MLOAD DUP1 SWAP2 SUB SWAP1 REVERT JUMPDEST POP PUSH2 0x2B9D PUSH2 0x2B98 DUP9 DUP9 DUP9 DUP9 DUP1 DUP1 PUSH1 0x1F ADD PUSH1 0x20 DUP1 SWAP2 DIV MUL PUSH1 0x20 ADD PUSH1 0x40 MLOAD SWAP1 DUP2 ADD PUSH1 0x40 MSTORE DUP1 SWAP4 SWAP3 SWAP2 SWAP1 DUP2 DUP2 MSTORE PUSH1 0x20 ADD DUP4 DUP4 DUP1 DUP3 DUP5 CALLDATACOPY DUP3 ADD SWAP2 POP POP POP POP POP POP PUSH2 0x43CF JUMP JUMPDEST PUSH2 0x45BE JUMP JUMPDEST SWAP1 POP PUSH1 0x7 PUSH1 0x0 DUP3 PUSH1 0x0 NOT AND PUSH1 0x0 NOT AND DUP2 MSTORE PUSH1 0x20 ADD SWAP1 DUP2 MSTORE PUSH1 0x20 ADD PUSH1 0x0 KECCAK256 PUSH1 0x0 SWAP1 SLOAD SWAP1 PUSH2 0x100 EXP SWAP1 DIV PUSH1 0xFF AND ISZERO PUSH1 0x40 DUP1 MLOAD SWAP1 DUP2 ADD PUSH1 0x40 MSTORE DUP1 PUSH1 0xF DUP2 MSTORE PUSH1 0x20 ADD PUSH32 0x494E56414C49445F54585F484153480000000000000000000000000000000000 DUP2 MSTORE POP SWAP1 ISZERO ISZERO PUSH2 0x2C42 JUMPI PUSH1 0x40 MLOAD PUSH32 0x8C379A000000000000000000000000000000000000000000000000000000000 DUP2 MSTORE PUSH1 0x4 ADD PUSH2 0x2C39 SWAP2 SWAP1 PUSH2 0x61D9 JUMP JUMPDEST PUSH1 0x40 MLOAD DUP1 SWAP2 SUB SWAP1 REVERT JUMPDEST POP CALLER PUSH20 0xFFFFFFFFFFFFFFFFFFFFFFFFFFFFFFFFFFFFFFFF AND DUP7 PUSH20 0xFFFFFFFFFFFFFFFFFFFFFFFFFFFFFFFFFFFFFFFF AND EQ ISZERO ISZERO PUSH2 0x2D71 JUMPI PUSH2 0x2CB5 DUP2 DUP8 DUP6 DUP6 DUP1 DUP1 PUSH1 0x1F ADD PUSH1 0x20 DUP1 SWAP2 DIV MUL PUSH1 0x20 ADD PUSH1 0x40 MLOAD SWAP1 DUP2 ADD PUSH1 0x40 MSTORE DUP1 SWAP4 SWAP3 SWAP2 SWAP1 DUP2 DUP2 MSTORE PUSH1 0x20 ADD DUP4 DUP4 DUP1 DUP3 DUP5 CALLDATACOPY DUP3 ADD SWAP2 POP POP POP POP POP POP PUSH2 0x1A66 JUMP JUMPDEST PUSH1 0x40 DUP1 MLOAD SWAP1 DUP2 ADD PUSH1 0x40 MSTORE DUP1 PUSH1 0x14 DUP2 MSTORE PUSH1 0x20 ADD PUSH32 0x494E56414C49445F54585F5349474E4154555245000000000000000000000000 DUP2 MSTORE POP SWAP1 ISZERO ISZERO PUSH2 0x2D2E JUMPI PUSH1 0x40 MLOAD PUSH32 0x8C379A000000000000000000000000000000000000000000000000000000000 DUP2 MSTORE PUSH1 0x4 ADD PUSH2 0x2D25 SWAP2 SWAP1 PUSH2 0x61D9 JUMP JUMPDEST PUSH1 0x40 MLOAD DUP1 SWAP2 SUB SWAP1 REVERT JUMPDEST POP DUP6 PUSH1 0x8 PUSH1 0x0 PUSH2 0x100 EXP DUP2 SLOAD DUP2 PUSH20 0xFFFFFFFFFFFFFFFFFFFFFFFFFFFFFFFFFFFFFFFF MUL NOT AND SWAP1 DUP4 PUSH20 0xFFFFFFFFFFFFFFFFFFFFFFFFFFFFFFFFFFFFFFFF AND MUL OR SWAP1 SSTORE POP JUMPDEST PUSH1 0x1 PUSH1 0x7 PUSH1 0x0 DUP4 PUSH1 0x0 NOT AND PUSH1 0x0 NOT AND DUP2 MSTORE PUSH1 0x20 ADD SWAP1 DUP2 MSTORE PUSH1 0x20 ADD PUSH1 0x0 KECCAK256 PUSH1 0x0 PUSH2 0x100 EXP DUP2 SLOAD DUP2 PUSH1 0xFF MUL NOT AND SWAP1 DUP4 ISZERO ISZERO MUL OR SWAP1 SSTORE POP ADDRESS PUSH20 0xFFFFFFFFFFFFFFFFFFFFFFFFFFFFFFFFFFFFFFFF AND DUP6 DUP6 PUSH1 0x40 MLOAD DUP1 DUP4 DUP4 DUP1 DUP3 DUP5 CALLDATACOPY DUP3 ADD SWAP2 POP POP SWAP3 POP POP POP PUSH1 0x0 PUSH1 0x40 MLOAD DUP1 DUP4 SUB DUP2 DUP6 GAS DELEGATECALL SWAP2 POP POP PUSH1 0x40 DUP1 MLOAD SWAP1 DUP2 ADD PUSH1 0x40 MSTORE DUP1 PUSH1 0x10 DUP2 MSTORE PUSH1 0x20 ADD PUSH32 0x4641494C45445F455845435554494F4E00000000000000000000000000000000 DUP2 MSTORE POP SWAP1 ISZERO ISZERO PUSH2 0x2E59 JUMPI PUSH1 0x40 MLOAD PUSH32 0x8C379A000000000000000000000000000000000000000000000000000000000 DUP2 MSTORE PUSH1 0x4 ADD PUSH2 0x2E50 SWAP2 SWAP1 PUSH2 0x61D9 JUMP JUMPDEST PUSH1 0x40 MLOAD DUP1 SWAP2 SUB SWAP1 REVERT JUMPDEST POP PUSH1 0x0 PUSH1 0x8 PUSH1 0x0 PUSH2 0x100 EXP DUP2 SLOAD DUP2 PUSH20 0xFFFFFFFFFFFFFFFFFFFFFFFFFFFFFFFFFFFFFFFF MUL NOT AND SWAP1 DUP4 PUSH20 0xFFFFFFFFFFFFFFFFFFFFFFFFFFFFFFFFFFFFFFFF AND MUL OR SWAP1 SSTORE POP POP POP POP POP POP POP POP JUMP JUMPDEST PUSH2 0x2EAD PUSH2 0x514E JUMP JUMPDEST PUSH2 0x2EB6 DUP3 PUSH2 0x46ED JUMP JUMPDEST DUP2 PUSH1 0x20 ADD SWAP1 PUSH1 0x0 NOT AND SWAP1 DUP2 PUSH1 0x0 NOT AND DUP2 MSTORE POP POP PUSH1 0x0 DUP3 PUSH1 0x80 ADD MLOAD EQ ISZERO PUSH2 0x2EFC JUMPI PUSH1 0x1 PUSH1 0x6 DUP2 GT ISZERO PUSH2 0x2EE3 JUMPI INVALID JUMPDEST DUP2 PUSH1 0x0 ADD SWAP1 PUSH1 0xFF AND SWAP1 DUP2 PUSH1 0xFF AND DUP2 MSTORE POP POP DUP1 SWAP1 POP PUSH2 0x30F2 JUMP JUMPDEST PUSH1 0x0 DUP3 PUSH1 0xA0 ADD MLOAD EQ ISZERO PUSH2 0x2F2F JUMPI PUSH1 0x2 PUSH1 0x6 DUP2 GT ISZERO PUSH2 0x2F16 JUMPI INVALID JUMPDEST DUP2 PUSH1 0x0 ADD SWAP1 PUSH1 0xFF AND SWAP1 DUP2 PUSH1 0xFF AND DUP2 MSTORE POP POP DUP1 SWAP1 POP PUSH2 0x30F2 JUMP JUMPDEST DUP2 PUSH2 0x100 ADD MLOAD TIMESTAMP LT ISZERO ISZERO PUSH2 0x2F63 JUMPI PUSH1 0x4 PUSH1 0x6 DUP2 GT ISZERO PUSH2 0x2F4A JUMPI INVALID JUMPDEST DUP2 PUSH1 0x0 ADD SWAP1 PUSH1 0xFF AND SWAP1 DUP2 PUSH1 0xFF AND DUP2 MSTORE POP POP DUP1 SWAP1 POP PUSH2 0x30F2 JUMP JUMPDEST PUSH1 0x3 PUSH1 0x0 DUP3 PUSH1 0x20 ADD MLOAD PUSH1 0x0 NOT AND PUSH1 0x0 NOT AND DUP2 MSTORE PUSH1 0x20 ADD SWAP1 DUP2 MSTORE PUSH1 0x20 ADD PUSH1 0x0 KECCAK256 PUSH1 0x0 SWAP1 SLOAD SWAP1 PUSH2 0x100 EXP SWAP1 DIV PUSH1 0xFF AND ISZERO PUSH2 0x2FBA JUMPI PUSH1 0x6 DUP1 DUP2 GT ISZERO PUSH2 0x2FA1 JUMPI INVALID JUMPDEST DUP2 PUSH1 0x0 ADD SWAP1 PUSH1 0xFF AND SWAP1 DUP2 PUSH1 0xFF AND DUP2 MSTORE POP POP DUP1 SWAP1 POP PUSH2 0x30F2 JUMP JUMPDEST DUP2 PUSH2 0x120 ADD MLOAD PUSH1 0x4 PUSH1 0x0 DUP5 PUSH1 0x0 ADD MLOAD PUSH20 0xFFFFFFFFFFFFFFFFFFFFFFFFFFFFFFFFFFFFFFFF AND PUSH20 0xFFFFFFFFFFFFFFFFFFFFFFFFFFFFFFFFFFFFFFFF AND DUP2 MSTORE PUSH1 0x20 ADD SWAP1 DUP2 MSTORE PUSH1 0x20 ADD PUSH1 0x0 KECCAK256 PUSH1 0x0 DUP5 PUSH1 0x60 ADD MLOAD PUSH20 0xFFFFFFFFFFFFFFFFFFFFFFFFFFFFFFFFFFFFFFFF AND PUSH20 0xFFFFFFFFFFFFFFFFFFFFFFFFFFFFFFFFFFFFFFFF AND DUP2 MSTORE PUSH1 0x20 ADD SWAP1 DUP2 MSTORE PUSH1 0x20 ADD PUSH1 0x0 KECCAK256 SLOAD GT ISZERO PUSH2 0x3070 JUMPI PUSH1 0x6 DUP1 DUP2 GT ISZERO PUSH2 0x3057 JUMPI INVALID JUMPDEST DUP2 PUSH1 0x0 ADD SWAP1 PUSH1 0xFF AND SWAP1 DUP2 PUSH1 0xFF AND DUP2 MSTORE POP POP DUP1 SWAP1 POP PUSH2 0x30F2 JUMP JUMPDEST PUSH1 0x2 PUSH1 0x0 DUP3 PUSH1 0x20 ADD MLOAD PUSH1 0x0 NOT AND PUSH1 0x0 NOT AND DUP2 MSTORE PUSH1 0x20 ADD SWAP1 DUP2 MSTORE PUSH1 0x20 ADD PUSH1 0x0 KECCAK256 SLOAD DUP2 PUSH1 0x40 ADD DUP2 DUP2 MSTORE POP POP DUP2 PUSH1 0xA0 ADD MLOAD DUP2 PUSH1 0x40 ADD MLOAD LT ISZERO ISZERO PUSH2 0x30D0 JUMPI PUSH1 0x5 PUSH1 0x6 DUP2 GT ISZERO PUSH2 0x30B7 JUMPI INVALID JUMPDEST DUP2 PUSH1 0x0 ADD SWAP1 PUSH1 0xFF AND SWAP1 DUP2 PUSH1 0xFF AND DUP2 MSTORE POP POP DUP1 SWAP1 POP PUSH2 0x30F2 JUMP JUMPDEST PUSH1 0x3 PUSH1 0x6 DUP2 GT ISZERO PUSH2 0x30DD JUMPI INVALID JUMPDEST DUP2 PUSH1 0x0 ADD SWAP1 PUSH1 0xFF AND SWAP1 DUP2 PUSH1 0xFF AND DUP2 MSTORE POP POP DUP1 SWAP1 POP JUMPDEST SWAP2 SWAP1 POP JUMP JUMPDEST PUSH2 0x30FF PUSH2 0x514E JUMP JUMPDEST PUSH2 0x3108 DUP3 PUSH2 0x2EA5 JUMP JUMPDEST SWAP1 POP PUSH2 0x3114 DUP3 DUP3 PUSH2 0x470A JUMP JUMPDEST PUSH2 0x3122 DUP3 DUP3 PUSH1 0x20 ADD MLOAD PUSH2 0x4943 JUMP JUMPDEST POP POP JUMP JUMPDEST PUSH1 0x4 PUSH1 0x20 MSTORE DUP2 PUSH1 0x0 MSTORE PUSH1 0x40 PUSH1 0x0 KECCAK256 PUSH1 0x20 MSTORE DUP1 PUSH1 0x0 MSTORE PUSH1 0x40 PUSH1 0x0 KECCAK256 PUSH1 0x0 SWAP2 POP SWAP2 POP POP SLOAD DUP2 JUMP JUMPDEST PUSH2 0x3153 PUSH2 0x50F6 JUMP JUMPDEST PUSH1 0x60 PUSH1 0x0 DUP1 PUSH2 0x3160 PUSH2 0x50F6 JUMP JUMPDEST DUP8 PUSH1 0x0 DUP2 MLOAD DUP2 LT ISZERO ISZERO PUSH2 0x316F JUMPI INVALID JUMPDEST SWAP1 PUSH1 0x20 ADD SWAP1 PUSH1 0x20 MUL ADD MLOAD PUSH2 0x160 ADD MLOAD SWAP4 POP PUSH1 0x0 SWAP3 POP JUMPDEST DUP8 MLOAD DUP4 LT ISZERO PUSH2 0x3222 JUMPI DUP4 DUP9 DUP5 DUP2 MLOAD DUP2 LT ISZERO ISZERO PUSH2 0x319D JUMPI INVALID JUMPDEST SWAP1 PUSH1 0x20 ADD SWAP1 PUSH1 0x20 MUL ADD MLOAD PUSH2 0x160 ADD DUP2 SWAP1 MSTORE POP PUSH2 0x31BD DUP8 DUP7 PUSH1 0x20 ADD MLOAD PUSH2 0x3F22 JUMP JUMPDEST SWAP2 POP PUSH2 0x31F8 DUP9 DUP5 DUP2 MLOAD DUP2 LT ISZERO ISZERO PUSH2 0x31D0 JUMPI INVALID JUMPDEST SWAP1 PUSH1 0x20 ADD SWAP1 PUSH1 0x20 MUL ADD MLOAD DUP4 DUP9 DUP7 DUP2 MLOAD DUP2 LT ISZERO ISZERO PUSH2 0x31E9 JUMPI INVALID JUMPDEST SWAP1 PUSH1 0x20 ADD SWAP1 PUSH1 0x20 MUL ADD MLOAD PUSH2 0xD44 JUMP JUMPDEST SWAP1 POP PUSH2 0x3204 DUP6 DUP3 PUSH2 0x350F JUMP JUMPDEST DUP7 DUP6 PUSH1 0x20 ADD MLOAD EQ ISZERO PUSH2 0x3215 JUMPI PUSH2 0x3222 JUMP JUMPDEST DUP3 DUP1 PUSH1 0x1 ADD SWAP4 POP POP PUSH2 0x3185 JUMP JUMPDEST DUP5 SWAP5 POP POP POP POP POP SWAP4 SWAP3 POP POP POP JUMP JUMPDEST PUSH1 0x0 SLOAD DUP2 JUMP JUMPDEST PUSH2 0x323E PUSH2 0x50F6 JUMP JUMPDEST PUSH1 0x60 PUSH1 0x0 DUP1 PUSH1 0x0 PUSH2 0x324D PUSH2 0x50F6 JUMP JUMPDEST DUP9 PUSH1 0x0 DUP2 MLOAD DUP2 LT ISZERO ISZERO PUSH2 0x325C JUMPI INVALID JUMPDEST SWAP1 PUSH1 0x20 ADD SWAP1 PUSH1 0x20 MUL ADD MLOAD PUSH2 0x140 ADD MLOAD SWAP5 POP PUSH1 0x0 SWAP4 POP JUMPDEST DUP9 MLOAD DUP5 LT ISZERO PUSH2 0x335B JUMPI DUP5 DUP10 DUP6 DUP2 MLOAD DUP2 LT ISZERO ISZERO PUSH2 0x328A JUMPI INVALID JUMPDEST SWAP1 PUSH1 0x20 ADD SWAP1 PUSH1 0x20 MUL ADD MLOAD PUSH2 0x140 ADD DUP2 SWAP1 MSTORE POP PUSH2 0x32AA DUP9 DUP8 PUSH1 0x0 ADD MLOAD PUSH2 0x3F22 JUMP JUMPDEST SWAP3 POP PUSH2 0x32ED DUP10 DUP6 DUP2 MLOAD DUP2 LT ISZERO ISZERO PUSH2 0x32BD JUMPI INVALID JUMPDEST SWAP1 PUSH1 0x20 ADD SWAP1 PUSH1 0x20 MUL ADD MLOAD PUSH1 0xA0 ADD MLOAD DUP11 DUP7 DUP2 MLOAD DUP2 LT ISZERO ISZERO PUSH2 0x32D9 JUMPI INVALID JUMPDEST SWAP1 PUSH1 0x20 ADD SWAP1 PUSH1 0x20 MUL ADD MLOAD PUSH1 0x80 ADD MLOAD DUP6 PUSH2 0x41DC JUMP JUMPDEST SWAP2 POP PUSH2 0x3328 DUP10 DUP6 DUP2 MLOAD DUP2 LT ISZERO ISZERO PUSH2 0x3300 JUMPI INVALID JUMPDEST SWAP1 PUSH1 0x20 ADD SWAP1 PUSH1 0x20 MUL ADD MLOAD DUP4 DUP10 DUP8 DUP2 MLOAD DUP2 LT ISZERO ISZERO PUSH2 0x3319 JUMPI INVALID JUMPDEST SWAP1 PUSH1 0x20 ADD SWAP1 PUSH1 0x20 MUL ADD MLOAD PUSH2 0x29F9 JUMP JUMPDEST SWAP1 POP DUP5 MLOAD PUSH1 0x1 DUP2 ADD DUP7 MSTORE POP PUSH2 0x333D DUP7 DUP3 PUSH2 0x350F JUMP JUMPDEST DUP8 DUP7 PUSH1 0x0 ADD MLOAD EQ ISZERO PUSH2 0x334E JUMPI PUSH2 0x335B JUMP JUMPDEST DUP4 DUP1 PUSH1 0x1 ADD SWAP5 POP POP PUSH2 0x3272 JUMP JUMPDEST DUP6 SWAP6 POP POP POP POP POP POP SWAP4 SWAP3 POP POP POP JUMP JUMPDEST PUSH1 0x8 PUSH1 0x0 SWAP1 SLOAD SWAP1 PUSH2 0x100 EXP SWAP1 DIV PUSH20 0xFFFFFFFFFFFFFFFFFFFFFFFFFFFFFFFFFFFFFFFF AND DUP2 JUMP JUMPDEST PUSH1 0x1 PUSH1 0x0 SWAP1 SLOAD SWAP1 PUSH2 0x100 EXP SWAP1 DIV PUSH20 0xFFFFFFFFFFFFFFFFFFFFFFFFFFFFFFFFFFFFFFFF AND PUSH20 0xFFFFFFFFFFFFFFFFFFFFFFFFFFFFFFFFFFFFFFFF AND CALLER PUSH20 0xFFFFFFFFFFFFFFFFFFFFFFFFFFFFFFFFFFFFFFFF AND EQ PUSH1 0x40 DUP1 MLOAD SWAP1 DUP2 ADD PUSH1 0x40 MSTORE DUP1 PUSH1 0x13 DUP2 MSTORE PUSH1 0x20 ADD PUSH32 0x4F4E4C595F434F4E54524143545F4F574E455200000000000000000000000000 DUP2 MSTORE POP SWAP1 ISZERO ISZERO PUSH2 0x345A JUMPI PUSH1 0x40 MLOAD PUSH32 0x8C379A000000000000000000000000000000000000000000000000000000000 DUP2 MSTORE PUSH1 0x4 ADD PUSH2 0x3451 SWAP2 SWAP1 PUSH2 0x61D9 JUMP JUMPDEST PUSH1 0x40 MLOAD DUP1 SWAP2 SUB SWAP1 REVERT JUMPDEST POP PUSH1 0x0 PUSH20 0xFFFFFFFFFFFFFFFFFFFFFFFFFFFFFFFFFFFFFFFF AND DUP2 PUSH20 0xFFFFFFFFFFFFFFFFFFFFFFFFFFFFFFFFFFFFFFFF AND EQ ISZERO ISZERO PUSH2 0x34D3 JUMPI DUP1 PUSH1 0x1 PUSH1 0x0 PUSH2 0x100 EXP DUP2 SLOAD DUP2 PUSH20 0xFFFFFFFFFFFFFFFFFFFFFFFFFFFFFFFFFFFFFFFF MUL NOT AND SWAP1 DUP4 PUSH20 0xFFFFFFFFFFFFFFFFFFFFFFFFFFFFFFFFFFFFFFFF AND MUL OR SWAP1 SSTORE POP JUMPDEST POP JUMP JUMPDEST PUSH1 0x40 DUP1 MLOAD SWAP1 DUP2 ADD PUSH1 0x40 MSTORE DUP1 PUSH1 0xB DUP2 MSTORE PUSH1 0x20 ADD PUSH32 0x322E302E312D616C706861000000000000000000000000000000000000000000 DUP2 MSTORE POP DUP2 JUMP JUMPDEST PUSH2 0x3521 DUP3 PUSH1 0x0 ADD MLOAD DUP3 PUSH1 0x0 ADD MLOAD PUSH2 0x49FB JUMP JUMPDEST DUP3 PUSH1 0x0 ADD DUP2 DUP2 MSTORE POP POP PUSH2 0x353C DUP3 PUSH1 0x20 ADD MLOAD DUP3 PUSH1 0x20 ADD MLOAD PUSH2 0x49FB JUMP JUMPDEST DUP3 PUSH1 0x20 ADD DUP2 DUP2 MSTORE POP POP PUSH2 0x3557 DUP3 PUSH1 0x40 ADD MLOAD DUP3 PUSH1 0x40 ADD MLOAD PUSH2 0x49FB JUMP JUMPDEST DUP3 PUSH1 0x40 ADD DUP2 DUP2 MSTORE POP POP PUSH2 0x3572 DUP3 PUSH1 0x60 ADD MLOAD DUP3 PUSH1 0x60 ADD MLOAD PUSH2 0x49FB JUMP JUMPDEST DUP3 PUSH1 0x60 ADD DUP2 DUP2 MSTORE POP POP POP POP JUMP JUMPDEST PUSH1 0x0 DUP1 PUSH1 0x0 PUSH20 0xFFFFFFFFFFFFFFFFFFFFFFFFFFFFFFFFFFFFFFFF AND PUSH1 0x8 PUSH1 0x0 SWAP1 SLOAD SWAP1 PUSH2 0x100 EXP SWAP1 DIV PUSH20 0xFFFFFFFFFFFFFFFFFFFFFFFFFFFFFFFFFFFFFFFF AND PUSH20 0xFFFFFFFFFFFFFFFFFFFFFFFFFFFFFFFFFFFFFFFF AND EQ PUSH2 0x3600 JUMPI PUSH1 0x8 PUSH1 0x0 SWAP1 SLOAD SWAP1 PUSH2 0x100 EXP SWAP1 DIV PUSH20 0xFFFFFFFFFFFFFFFFFFFFFFFFFFFFFFFFFFFFFFFF AND PUSH2 0x3602 JUMP JUMPDEST CALLER JUMPDEST SWAP1 POP DUP1 SWAP2 POP POP SWAP1 JUMP JUMPDEST PUSH2 0x361D DUP3 PUSH1 0xA0 ADD MLOAD DUP3 PUSH1 0xA0 ADD MLOAD PUSH2 0x4A19 JUMP JUMPDEST PUSH2 0x362F DUP4 PUSH1 0x80 ADD MLOAD DUP4 PUSH1 0x80 ADD MLOAD PUSH2 0x4A19 JUMP JUMPDEST LT ISZERO PUSH1 0x40 DUP1 MLOAD SWAP1 DUP2 ADD PUSH1 0x40 MSTORE DUP1 PUSH1 0x18 DUP2 MSTORE PUSH1 0x20 ADD PUSH32 0x4E454741544956455F5350524541445F52455155495245440000000000000000 DUP2 MSTORE POP SWAP1 ISZERO ISZERO PUSH2 0x36AA JUMPI PUSH1 0x40 MLOAD PUSH32 0x8C379A000000000000000000000000000000000000000000000000000000000 DUP2 MSTORE PUSH1 0x4 ADD PUSH2 0x36A1 SWAP2 SWAP1 PUSH2 0x61D9 JUMP JUMPDEST PUSH1 0x40 MLOAD DUP1 SWAP2 SUB SWAP1 REVERT JUMPDEST POP POP POP JUMP JUMPDEST PUSH2 0x36B7 PUSH2 0x511F JUMP JUMPDEST PUSH1 0x0 DUP1 PUSH1 0x0 DUP1 PUSH2 0x36CB DUP10 PUSH1 0xA0 ADD MLOAD DUP9 PUSH2 0x3F22 JUMP JUMPDEST SWAP4 POP PUSH2 0x36DB DUP9 PUSH1 0xA0 ADD MLOAD DUP8 PUSH2 0x3F22 JUMP JUMPDEST SWAP3 POP PUSH2 0x36EB DUP4 DUP10 PUSH1 0x80 ADD MLOAD PUSH2 0x4A19 JUMP JUMPDEST PUSH2 0x36F9 DUP6 DUP11 PUSH1 0xA0 ADD MLOAD PUSH2 0x4A19 JUMP JUMPDEST GT ISZERO ISZERO PUSH2 0x371D JUMPI DUP4 SWAP2 POP PUSH2 0x3716 DUP9 PUSH1 0xA0 ADD MLOAD DUP10 PUSH1 0x80 ADD MLOAD DUP5 PUSH2 0x41DC JUMP JUMPDEST SWAP1 POP PUSH2 0x3736 JUMP JUMPDEST DUP3 SWAP1 POP PUSH2 0x3733 DUP9 PUSH1 0x80 ADD MLOAD DUP10 PUSH1 0xA0 ADD MLOAD DUP4 PUSH2 0x41DC JUMP JUMPDEST SWAP2 POP JUMPDEST PUSH2 0x3740 DUP10 DUP4 PUSH2 0x4216 JUMP JUMPDEST DUP6 PUSH1 0x0 ADD DUP2 SWAP1 MSTORE POP PUSH2 0x3752 DUP9 DUP3 PUSH2 0x4216 JUMP JUMPDEST DUP6 PUSH1 0x20 ADD DUP2 SWAP1 MSTORE POP PUSH2 0x3774 DUP6 PUSH1 0x0 ADD MLOAD PUSH1 0x0 ADD MLOAD DUP7 PUSH1 0x20 ADD MLOAD PUSH1 0x20 ADD MLOAD PUSH2 0x3F22 JUMP JUMPDEST DUP6 PUSH1 0x40 ADD DUP2 DUP2 MSTORE POP POP DUP5 SWAP5 POP POP POP POP POP SWAP5 SWAP4 POP POP POP POP JUMP JUMPDEST PUSH1 0x3 PUSH1 0x6 DUP2 GT ISZERO PUSH2 0x3799 JUMPI INVALID JUMPDEST PUSH1 0xFF AND DUP6 PUSH1 0x0 ADD MLOAD PUSH1 0xFF AND EQ PUSH1 0x40 DUP1 MLOAD SWAP1 DUP2 ADD PUSH1 0x40 MSTORE DUP1 PUSH1 0x10 DUP2 MSTORE PUSH1 0x20 ADD PUSH32 0x4F524445525F554E46494C4C41424C4500000000000000000000000000000000 DUP2 MSTORE POP SWAP1 ISZERO ISZERO PUSH2 0x381E JUMPI PUSH1 0x40 MLOAD PUSH32 0x8C379A000000000000000000000000000000000000000000000000000000000 DUP2 MSTORE PUSH1 0x4 ADD PUSH2 0x3815 SWAP2 SWAP1 PUSH2 0x61D9 JUMP JUMPDEST PUSH1 0x40 MLOAD DUP1 SWAP2 SUB SWAP1 REVERT JUMPDEST POP PUSH1 0x0 DUP4 EQ ISZERO PUSH1 0x40 DUP1 MLOAD SWAP1 DUP2 ADD PUSH1 0x40 MSTORE DUP1 PUSH1 0x14 DUP2 MSTORE PUSH1 0x20 ADD PUSH32 0x494E56414C49445F54414B45525F414D4F554E54000000000000000000000000 DUP2 MSTORE POP SWAP1 ISZERO ISZERO PUSH2 0x389D JUMPI PUSH1 0x40 MLOAD PUSH32 0x8C379A000000000000000000000000000000000000000000000000000000000 DUP2 MSTORE PUSH1 0x4 ADD PUSH2 0x3894 SWAP2 SWAP1 PUSH2 0x61D9 JUMP JUMPDEST PUSH1 0x40 MLOAD DUP1 SWAP2 SUB SWAP1 REVERT JUMPDEST POP PUSH1 0x0 PUSH20 0xFFFFFFFFFFFFFFFFFFFFFFFFFFFFFFFFFFFFFFFF AND DUP7 PUSH1 0x60 ADD MLOAD PUSH20 0xFFFFFFFFFFFFFFFFFFFFFFFFFFFFFFFFFFFFFFFF AND EQ ISZERO ISZERO PUSH2 0x3986 JUMPI CALLER PUSH20 0xFFFFFFFFFFFFFFFFFFFFFFFFFFFFFFFFFFFFFFFF AND DUP7 PUSH1 0x60 ADD MLOAD PUSH20 0xFFFFFFFFFFFFFFFFFFFFFFFFFFFFFFFFFFFFFFFF AND EQ PUSH1 0x40 DUP1 MLOAD SWAP1 DUP2 ADD PUSH1 0x40 MSTORE DUP1 PUSH1 0xE DUP2 MSTORE PUSH1 0x20 ADD PUSH32 0x494E56414C49445F53454E444552000000000000000000000000000000000000 DUP2 MSTORE POP SWAP1 ISZERO ISZERO PUSH2 0x3984 JUMPI PUSH1 0x40 MLOAD PUSH32 0x8C379A000000000000000000000000000000000000000000000000000000000 DUP2 MSTORE PUSH1 0x4 ADD PUSH2 0x397B SWAP2 SWAP1 PUSH2 0x61D9 JUMP JUMPDEST PUSH1 0x40 MLOAD DUP1 SWAP2 SUB SWAP1 REVERT JUMPDEST POP JUMPDEST PUSH1 0x0 PUSH20 0xFFFFFFFFFFFFFFFFFFFFFFFFFFFFFFFFFFFFFFFF AND DUP7 PUSH1 0x20 ADD MLOAD PUSH20 0xFFFFFFFFFFFFFFFFFFFFFFFFFFFFFFFFFFFFFFFF AND EQ ISZERO ISZERO PUSH2 0x3A6E JUMPI DUP4 PUSH20 0xFFFFFFFFFFFFFFFFFFFFFFFFFFFFFFFFFFFFFFFF AND DUP7 PUSH1 0x20 ADD MLOAD PUSH20 0xFFFFFFFFFFFFFFFFFFFFFFFFFFFFFFFFFFFFFFFF AND EQ PUSH1 0x40 DUP1 MLOAD SWAP1 DUP2 ADD PUSH1 0x40 MSTORE DUP1 PUSH1 0xD DUP2 MSTORE PUSH1 0x20 ADD PUSH32 0x494E56414C49445F54414B455200000000000000000000000000000000000000 DUP2 MSTORE POP SWAP1 ISZERO ISZERO PUSH2 0x3A6C JUMPI PUSH1 0x40 MLOAD PUSH32 0x8C379A000000000000000000000000000000000000000000000000000000000 DUP2 MSTORE PUSH1 0x4 ADD PUSH2 0x3A63 SWAP2 SWAP1 PUSH2 0x61D9 JUMP JUMPDEST PUSH1 0x40 MLOAD DUP1 SWAP2 SUB SWAP1 REVERT JUMPDEST POP JUMPDEST PUSH1 0x0 DUP6 PUSH1 0x40 ADD MLOAD EQ ISZERO PUSH2 0x3B09 JUMPI PUSH2 0x3A8E DUP6 PUSH1 0x20 ADD MLOAD DUP8 PUSH1 0x0 ADD MLOAD DUP4 PUSH2 0x1A66 JUMP JUMPDEST PUSH1 0x40 DUP1 MLOAD SWAP1 DUP2 ADD PUSH1 0x40 MSTORE DUP1 PUSH1 0x17 DUP2 MSTORE PUSH1 0x20 ADD PUSH32 0x494E56414C49445F4F524445525F5349474E4154555245000000000000000000 DUP2 MSTORE POP SWAP1 ISZERO ISZERO PUSH2 0x3B07 JUMPI PUSH1 0x40 MLOAD PUSH32 0x8C379A000000000000000000000000000000000000000000000000000000000 DUP2 MSTORE PUSH1 0x4 ADD PUSH2 0x3AFE SWAP2 SWAP1 PUSH2 0x61D9 JUMP JUMPDEST PUSH1 0x40 MLOAD DUP1 SWAP2 SUB SWAP1 REVERT JUMPDEST POP JUMPDEST PUSH2 0x3B1C DUP3 DUP8 PUSH1 0xA0 ADD MLOAD DUP9 PUSH1 0x80 ADD MLOAD PUSH2 0x4A4C JUMP JUMPDEST ISZERO PUSH1 0x40 DUP1 MLOAD SWAP1 DUP2 ADD PUSH1 0x40 MSTORE DUP1 PUSH1 0xE DUP2 MSTORE PUSH1 0x20 ADD PUSH32 0x524F554E44494E475F4552524F52000000000000000000000000000000000000 DUP2 MSTORE POP SWAP1 ISZERO ISZERO PUSH2 0x3B96 JUMPI PUSH1 0x40 MLOAD PUSH32 0x8C379A000000000000000000000000000000000000000000000000000000000 DUP2 MSTORE PUSH1 0x4 ADD PUSH2 0x3B8D SWAP2 SWAP1 PUSH2 0x61D9 JUMP JUMPDEST PUSH1 0x40 MLOAD DUP1 SWAP2 SUB SWAP1 REVERT JUMPDEST POP POP POP POP POP POP POP JUMP JUMPDEST PUSH2 0x3BAD DUP3 DUP3 PUSH1 0x20 ADD MLOAD PUSH2 0x49FB JUMP JUMPDEST PUSH1 0x2 PUSH1 0x0 DUP6 PUSH1 0x0 NOT AND PUSH1 0x0 NOT AND DUP2 MSTORE PUSH1 0x20 ADD SWAP1 DUP2 MSTORE PUSH1 0x20 ADD PUSH1 0x0 KECCAK256 DUP2 SWAP1 SSTORE POP DUP3 PUSH1 0x0 NOT AND DUP6 PUSH1 0x40 ADD MLOAD PUSH20 0xFFFFFFFFFFFFFFFFFFFFFFFFFFFFFFFFFFFFFFFF AND DUP7 PUSH1 0x0 ADD MLOAD PUSH20 0xFFFFFFFFFFFFFFFFFFFFFFFFFFFFFFFFFFFFFFFF AND PUSH32 0xBCC4C97732E47D9946F229EDB95F5B6323F601300E4690DE719993F3C371129 DUP8 CALLER DUP7 PUSH1 0x0 ADD MLOAD DUP8 PUSH1 0x20 ADD MLOAD DUP9 PUSH1 0x40 ADD MLOAD DUP10 PUSH1 0x60 ADD MLOAD DUP15 PUSH2 0x140 ADD MLOAD DUP16 PUSH2 0x160 ADD MLOAD PUSH1 0x40 MLOAD PUSH2 0x3C5E SWAP9 SWAP8 SWAP7 SWAP6 SWAP5 SWAP4 SWAP3 SWAP2 SWAP1 PUSH2 0x5FB8 JUMP JUMPDEST PUSH1 0x40 MLOAD DUP1 SWAP2 SUB SWAP1 LOG4 POP POP POP POP POP JUMP JUMPDEST PUSH1 0x0 DUP1 PUSH2 0x3C7E DUP7 PUSH2 0x140 ADD MLOAD PUSH2 0x3F3B JUMP JUMPDEST PUSH32 0x100000000000000000000000000000000000000000000000000000000000000 SWAP1 DIV SWAP2 POP PUSH2 0x3CB1 DUP6 PUSH2 0x140 ADD MLOAD PUSH2 0x3F3B JUMP JUMPDEST PUSH32 0x100000000000000000000000000000000000000000000000000000000000000 SWAP1 DIV SWAP1 POP PUSH2 0x3CF8 DUP7 PUSH2 0x140 ADD MLOAD DUP4 DUP9 PUSH1 0x0 ADD MLOAD DUP9 PUSH1 0x0 ADD MLOAD DUP8 PUSH1 0x20 ADD MLOAD PUSH1 0x20 ADD MLOAD PUSH2 0x4AA7 JUMP JUMPDEST PUSH2 0x3D1A DUP6 PUSH2 0x140 ADD MLOAD DUP3 DUP8 PUSH1 0x0 ADD MLOAD DUP10 PUSH1 0x0 ADD MLOAD DUP8 PUSH1 0x0 ADD MLOAD PUSH1 0x20 ADD MLOAD PUSH2 0x4AA7 JUMP JUMPDEST PUSH2 0x3D34 DUP7 PUSH2 0x140 ADD MLOAD DUP4 DUP9 PUSH1 0x0 ADD MLOAD DUP8 DUP8 PUSH1 0x40 ADD MLOAD PUSH2 0x4AA7 JUMP JUMPDEST PUSH2 0x3D87 PUSH1 0x40 DUP1 MLOAD SWAP1 DUP2 ADD PUSH1 0x40 MSTORE DUP1 PUSH1 0x14 DUP2 MSTORE PUSH1 0x20 ADD PUSH32 0x6FF6C0FF1D68B964901F986D4C9FA3AC68346570000000000000000000000000 DUP2 MSTORE POP PUSH1 0x1 DUP9 PUSH1 0x0 ADD MLOAD DUP10 PUSH1 0x40 ADD MLOAD DUP8 PUSH1 0x0 ADD MLOAD PUSH1 0x40 ADD MLOAD PUSH2 0x4AA7 JUMP JUMPDEST PUSH2 0x3DDA PUSH1 0x40 DUP1 MLOAD SWAP1 DUP2 ADD PUSH1 0x40 MSTORE DUP1 PUSH1 0x14 DUP2 MSTORE PUSH1 0x20 ADD PUSH32 0x6FF6C0FF1D68B964901F986D4C9FA3AC68346570000000000000000000000000 DUP2 MSTORE POP PUSH1 0x1 DUP8 PUSH1 0x0 ADD MLOAD DUP9 PUSH1 0x40 ADD MLOAD DUP8 PUSH1 0x20 ADD MLOAD PUSH1 0x40 ADD MLOAD PUSH2 0x4AA7 JUMP JUMPDEST DUP5 PUSH1 0x40 ADD MLOAD PUSH20 0xFFFFFFFFFFFFFFFFFFFFFFFFFFFFFFFFFFFFFFFF AND DUP7 PUSH1 0x40 ADD MLOAD PUSH20 0xFFFFFFFFFFFFFFFFFFFFFFFFFFFFFFFFFFFFFFFF AND EQ ISZERO PUSH2 0x3E7B JUMPI PUSH2 0x3E76 PUSH1 0x40 DUP1 MLOAD SWAP1 DUP2 ADD PUSH1 0x40 MSTORE DUP1 PUSH1 0x14 DUP2 MSTORE PUSH1 0x20 ADD PUSH32 0x6FF6C0FF1D68B964901F986D4C9FA3AC68346570000000000000000000000000 DUP2 MSTORE POP PUSH1 0x1 DUP7 DUP10 PUSH1 0x40 ADD MLOAD PUSH2 0x3E71 DUP9 PUSH1 0x0 ADD MLOAD PUSH1 0x60 ADD MLOAD DUP10 PUSH1 0x20 ADD MLOAD PUSH1 0x60 ADD MLOAD PUSH2 0x49FB JUMP JUMPDEST PUSH2 0x4AA7 JUMP JUMPDEST PUSH2 0x3F1A JUMP JUMPDEST PUSH2 0x3ECA PUSH1 0x40 DUP1 MLOAD SWAP1 DUP2 ADD PUSH1 0x40 MSTORE DUP1 PUSH1 0x14 DUP2 MSTORE PUSH1 0x20 ADD PUSH32 0x6FF6C0FF1D68B964901F986D4C9FA3AC68346570000000000000000000000000 DUP2 MSTORE POP PUSH1 0x1 DUP7 DUP10 PUSH1 0x40 ADD MLOAD DUP8 PUSH1 0x0 ADD MLOAD PUSH1 0x60 ADD MLOAD PUSH2 0x4AA7 JUMP JUMPDEST PUSH2 0x3F19 PUSH1 0x40 DUP1 MLOAD SWAP1 DUP2 ADD PUSH1 0x40 MSTORE DUP1 PUSH1 0x14 DUP2 MSTORE PUSH1 0x20 ADD PUSH32 0x6FF6C0FF1D68B964901F986D4C9FA3AC68346570000000000000000000000000 DUP2 MSTORE POP PUSH1 0x1 DUP7 DUP9 PUSH1 0x40 ADD MLOAD DUP8 PUSH1 0x20 ADD MLOAD PUSH1 0x60 ADD MLOAD PUSH2 0x4AA7 JUMP JUMPDEST JUMPDEST POP POP POP POP POP POP JUMP JUMPDEST PUSH1 0x0 DUP3 DUP3 GT ISZERO ISZERO ISZERO PUSH2 0x3F30 JUMPI INVALID JUMPDEST DUP2 DUP4 SUB SWAP1 POP SWAP3 SWAP2 POP POP JUMP JUMPDEST PUSH1 0x0 DUP1 DUP3 MLOAD GT PUSH1 0x60 PUSH1 0x40 MLOAD SWAP1 DUP2 ADD PUSH1 0x40 MSTORE DUP1 PUSH1 0x21 DUP2 MSTORE PUSH1 0x20 ADD PUSH32 0x475245415445525F5448414E5F5A45524F5F4C454E4754485F52455155495245 DUP2 MSTORE PUSH1 0x20 ADD PUSH32 0x4400000000000000000000000000000000000000000000000000000000000000 DUP2 MSTORE POP SWAP1 ISZERO ISZERO PUSH2 0x3FE1 JUMPI PUSH1 0x40 MLOAD PUSH32 0x8C379A000000000000000000000000000000000000000000000000000000000 DUP2 MSTORE PUSH1 0x4 ADD PUSH2 0x3FD8 SWAP2 SWAP1 PUSH2 0x61D9 JUMP JUMPDEST PUSH1 0x40 MLOAD DUP1 SWAP2 SUB SWAP1 REVERT JUMPDEST POP DUP2 PUSH1 0x1 DUP4 MLOAD SUB DUP2 MLOAD DUP2 LT ISZERO ISZERO PUSH2 0x3FF4 JUMPI INVALID JUMPDEST SWAP1 PUSH1 0x20 ADD ADD MLOAD PUSH32 0x100000000000000000000000000000000000000000000000000000000000000 SWAP1 DIV PUSH32 0x100000000000000000000000000000000000000000000000000000000000000 MUL SWAP1 POP PUSH1 0x1 DUP3 MLOAD SUB DUP1 DUP4 MSTORE POP DUP1 SWAP1 POP SWAP2 SWAP1 POP JUMP JUMPDEST PUSH1 0x0 PUSH1 0x20 DUP3 ADD DUP4 MLOAD LT ISZERO PUSH1 0x60 PUSH1 0x40 MLOAD SWAP1 DUP2 ADD PUSH1 0x40 MSTORE DUP1 PUSH1 0x26 DUP2 MSTORE PUSH1 0x20 ADD PUSH32 0x475245415445525F4F525F455155414C5F544F5F33325F4C454E4754485F5245 DUP2 MSTORE PUSH1 0x20 ADD PUSH32 0x5155495245440000000000000000000000000000000000000000000000000000 DUP2 MSTORE POP SWAP1 ISZERO ISZERO PUSH2 0x40FC JUMPI PUSH1 0x40 MLOAD PUSH32 0x8C379A000000000000000000000000000000000000000000000000000000000 DUP2 MSTORE PUSH1 0x4 ADD PUSH2 0x40F3 SWAP2 SWAP1 PUSH2 0x61D9 JUMP JUMPDEST PUSH1 0x40 MLOAD DUP1 SWAP2 SUB SWAP1 REVERT JUMPDEST POP PUSH1 0x20 DUP3 ADD SWAP2 POP DUP2 DUP4 ADD MLOAD SWAP1 POP DUP1 SWAP1 POP SWAP3 SWAP2 POP POP JUMP JUMPDEST PUSH1 0x0 PUSH1 0x14 DUP3 MLOAD LT ISZERO PUSH1 0x60 PUSH1 0x40 MLOAD SWAP1 DUP2 ADD PUSH1 0x40 MSTORE DUP1 PUSH1 0x26 DUP2 MSTORE PUSH1 0x20 ADD PUSH32 0x475245415445525F4F525F455155414C5F544F5F32305F4C454E4754485F5245 DUP2 MSTORE PUSH1 0x20 ADD PUSH32 0x5155495245440000000000000000000000000000000000000000000000000000 DUP2 MSTORE POP SWAP1 ISZERO ISZERO PUSH2 0x41BA JUMPI PUSH1 0x40 MLOAD PUSH32 0x8C379A000000000000000000000000000000000000000000000000000000000 DUP2 MSTORE PUSH1 0x4 ADD PUSH2 0x41B1 SWAP2 SWAP1 PUSH2 0x61D9 JUMP JUMPDEST PUSH1 0x40 MLOAD DUP1 SWAP2 SUB SWAP1 REVERT JUMPDEST POP PUSH2 0x41C9 DUP3 PUSH1 0x14 DUP5 MLOAD SUB PUSH2 0x4C2E JUMP JUMPDEST SWAP1 POP PUSH1 0x14 DUP3 MLOAD SUB DUP1 DUP4 MSTORE POP DUP1 SWAP1 POP SWAP2 SWAP1 POP JUMP JUMPDEST PUSH1 0x0 PUSH2 0x41F1 PUSH2 0x41EB DUP6 DUP5 PUSH2 0x4A19 JUMP JUMPDEST DUP5 PUSH2 0x4D04 JUMP JUMPDEST SWAP1 POP DUP1 SWAP1 POP SWAP4 SWAP3 POP POP POP JUMP JUMPDEST PUSH1 0x0 DUP2 DUP4 LT PUSH2 0x420C JUMPI DUP2 PUSH2 0x420E JUMP JUMPDEST DUP3 JUMPDEST SWAP1 POP SWAP3 SWAP2 POP POP JUMP JUMPDEST PUSH2 0x421E PUSH2 0x50F6 JUMP JUMPDEST DUP2 DUP2 PUSH1 0x20 ADD DUP2 DUP2 MSTORE POP POP PUSH2 0x423F DUP2 PUSH1 0x20 ADD MLOAD DUP5 PUSH1 0xA0 ADD MLOAD DUP6 PUSH1 0x80 ADD MLOAD PUSH2 0x41DC JUMP JUMPDEST DUP2 PUSH1 0x0 ADD DUP2 DUP2 MSTORE POP POP PUSH2 0x425F DUP2 PUSH1 0x20 ADD MLOAD DUP5 PUSH1 0xA0 ADD MLOAD DUP6 PUSH1 0xC0 ADD MLOAD PUSH2 0x41DC JUMP JUMPDEST DUP2 PUSH1 0x40 ADD DUP2 DUP2 MSTORE POP POP PUSH2 0x427F DUP2 PUSH1 0x20 ADD MLOAD DUP5 PUSH1 0xA0 ADD MLOAD DUP6 PUSH1 0xE0 ADD MLOAD PUSH2 0x41DC JUMP JUMPDEST DUP2 PUSH1 0x60 ADD DUP2 DUP2 MSTORE POP POP DUP1 SWAP1 POP SWAP3 SWAP2 POP POP JUMP JUMPDEST PUSH1 0x0 DUP1 PUSH2 0x42A2 DUP6 PUSH2 0x140 ADD MLOAD PUSH2 0x3F3B JUMP JUMPDEST PUSH32 0x100000000000000000000000000000000000000000000000000000000000000 SWAP1 DIV SWAP2 POP PUSH2 0x42D5 DUP6 PUSH2 0x160 ADD MLOAD PUSH2 0x3F3B JUMP JUMPDEST PUSH32 0x100000000000000000000000000000000000000000000000000000000000000 SWAP1 DIV SWAP1 POP PUSH2 0x4314 DUP6 PUSH2 0x140 ADD MLOAD DUP4 DUP8 PUSH1 0x0 ADD MLOAD DUP8 DUP8 PUSH1 0x0 ADD MLOAD PUSH2 0x4AA7 JUMP JUMPDEST PUSH2 0x432E DUP6 PUSH2 0x160 ADD MLOAD DUP3 DUP7 DUP9 PUSH1 0x0 ADD MLOAD DUP8 PUSH1 0x20 ADD MLOAD PUSH2 0x4AA7 JUMP JUMPDEST PUSH2 0x437D PUSH1 0x40 DUP1 MLOAD SWAP1 DUP2 ADD PUSH1 0x40 MSTORE DUP1 PUSH1 0x14 DUP2 MSTORE PUSH1 0x20 ADD PUSH32 0x6FF6C0FF1D68B964901F986D4C9FA3AC68346570000000000000000000000000 DUP2 MSTORE POP PUSH1 0x1 DUP8 PUSH1 0x0 ADD MLOAD DUP9 PUSH1 0x40 ADD MLOAD DUP8 PUSH1 0x40 ADD MLOAD PUSH2 0x4AA7 JUMP JUMPDEST PUSH2 0x43C8 PUSH1 0x40 DUP1 MLOAD SWAP1 DUP2 ADD PUSH1 0x40 MSTORE DUP1 PUSH1 0x14 DUP2 MSTORE PUSH1 0x20 ADD PUSH32 0x6FF6C0FF1D68B964901F986D4C9FA3AC68346570000000000000000000000000 DUP2 MSTORE POP PUSH1 0x1 DUP7 DUP9 PUSH1 0x40 ADD MLOAD DUP8 PUSH1 0x60 ADD MLOAD PUSH2 0x4AA7 JUMP JUMPDEST POP POP POP POP POP JUMP JUMPDEST PUSH1 0x0 DUP1 PUSH1 0x0 PUSH1 0x40 MLOAD PUSH1 0x20 ADD DUP1 DUP1 PUSH32 0x5A65726F45785472616E73616374696F6E280000000000000000000000000000 DUP2 MSTORE POP PUSH1 0x12 ADD DUP1 PUSH32 0x75696E743235362073616C742C00000000000000000000000000000000000000 DUP2 MSTORE POP PUSH1 0xD ADD DUP1 PUSH32 0x61646472657373207369676E6572416464726573732C00000000000000000000 DUP2 MSTORE POP PUSH1 0x16 ADD DUP1 PUSH32 0x6279746573206461746100000000000000000000000000000000000000000000 DUP2 MSTORE POP PUSH1 0xA ADD DUP1 PUSH32 0x2900000000000000000000000000000000000000000000000000000000000000 DUP2 MSTORE POP PUSH1 0x1 ADD SWAP1 POP PUSH1 0x40 MLOAD PUSH1 0x20 DUP2 DUP4 SUB SUB DUP2 MSTORE SWAP1 PUSH1 0x40 MSTORE PUSH1 0x40 MLOAD DUP1 DUP3 DUP1 MLOAD SWAP1 PUSH1 0x20 ADD SWAP1 DUP1 DUP4 DUP4 JUMPDEST PUSH1 0x20 DUP4 LT ISZERO ISZERO PUSH2 0x44E9 JUMPI DUP1 MLOAD DUP3 MSTORE PUSH1 0x20 DUP3 ADD SWAP2 POP PUSH1 0x20 DUP2 ADD SWAP1 POP PUSH1 0x20 DUP4 SUB SWAP3 POP PUSH2 0x44C4 JUMP JUMPDEST PUSH1 0x1 DUP4 PUSH1 0x20 SUB PUSH2 0x100 EXP SUB DUP1 NOT DUP3 MLOAD AND DUP2 DUP5 MLOAD AND DUP1 DUP3 OR DUP6 MSTORE POP POP POP POP POP POP SWAP1 POP ADD SWAP2 POP POP PUSH1 0x40 MLOAD DUP1 SWAP2 SUB SWAP1 KECCAK256 SWAP2 POP DUP4 PUSH1 0x40 MLOAD DUP1 DUP3 DUP1 MLOAD SWAP1 PUSH1 0x20 ADD SWAP1 DUP1 DUP4 DUP4 JUMPDEST PUSH1 0x20 DUP4 LT ISZERO ISZERO PUSH2 0x454E JUMPI DUP1 MLOAD DUP3 MSTORE PUSH1 0x20 DUP3 ADD SWAP2 POP PUSH1 0x20 DUP2 ADD SWAP1 POP PUSH1 0x20 DUP4 SUB SWAP3 POP PUSH2 0x4529 JUMP JUMPDEST PUSH1 0x1 DUP4 PUSH1 0x20 SUB PUSH2 0x100 EXP SUB DUP1 NOT DUP3 MLOAD AND DUP2 DUP5 MLOAD AND DUP1 DUP3 OR DUP6 MSTORE POP POP POP POP POP POP SWAP1 POP ADD SWAP2 POP POP PUSH1 0x40 MLOAD DUP1 SWAP2 SUB SWAP1 KECCAK256 SWAP1 POP PUSH1 0x40 MLOAD DUP3 DUP2 MSTORE DUP7 PUSH1 0x20 DUP3 ADD MSTORE PUSH20 0xFFFFFFFFFFFFFFFFFFFFFFFFFFFFFFFFFFFFFFFF DUP7 AND PUSH1 0x40 DUP3 ADD MSTORE DUP2 PUSH1 0x60 DUP3 ADD MSTORE PUSH1 0x80 DUP2 KECCAK256 SWAP4 POP POP DUP3 SWAP3 POP POP POP SWAP4 SWAP3 POP POP POP JUMP JUMPDEST PUSH1 0x0 PUSH1 0x40 DUP1 MLOAD SWAP1 DUP2 ADD PUSH1 0x40 MSTORE DUP1 PUSH1 0x2 DUP2 MSTORE PUSH1 0x20 ADD PUSH32 0x1901000000000000000000000000000000000000000000000000000000000000 DUP2 MSTORE POP PUSH1 0x0 SLOAD DUP4 PUSH1 0x40 MLOAD PUSH1 0x20 ADD DUP1 DUP5 DUP1 MLOAD SWAP1 PUSH1 0x20 ADD SWAP1 DUP1 DUP4 DUP4 JUMPDEST PUSH1 0x20 DUP4 LT ISZERO ISZERO PUSH2 0x4632 JUMPI DUP1 MLOAD DUP3 MSTORE PUSH1 0x20 DUP3 ADD SWAP2 POP PUSH1 0x20 DUP2 ADD SWAP1 POP PUSH1 0x20 DUP4 SUB SWAP3 POP PUSH2 0x460D JUMP JUMPDEST PUSH1 0x1 DUP4 PUSH1 0x20 SUB PUSH2 0x100 EXP SUB DUP1 NOT DUP3 MLOAD AND DUP2 DUP5 MLOAD AND DUP1 DUP3 OR DUP6 MSTORE POP POP POP POP POP POP SWAP1 POP ADD DUP4 PUSH1 0x0 NOT AND PUSH1 0x0 NOT AND DUP2 MSTORE PUSH1 0x20 ADD DUP3 PUSH1 0x0 NOT AND PUSH1 0x0 NOT AND DUP2 MSTORE PUSH1 0x20 ADD SWAP4 POP POP POP POP PUSH1 0x40 MLOAD PUSH1 0x20 DUP2 DUP4 SUB SUB DUP2 MSTORE SWAP1 PUSH1 0x40 MSTORE PUSH1 0x40 MLOAD DUP1 DUP3 DUP1 MLOAD SWAP1 PUSH1 0x20 ADD SWAP1 DUP1 DUP4 DUP4 JUMPDEST PUSH1 0x20 DUP4 LT ISZERO ISZERO PUSH2 0x46B9 JUMPI DUP1 MLOAD DUP3 MSTORE PUSH1 0x20 DUP3 ADD SWAP2 POP PUSH1 0x20 DUP2 ADD SWAP1 POP PUSH1 0x20 DUP4 SUB SWAP3 POP PUSH2 0x4694 JUMP JUMPDEST PUSH1 0x1 DUP4 PUSH1 0x20 SUB PUSH2 0x100 EXP SUB DUP1 NOT DUP3 MLOAD AND DUP2 DUP5 MLOAD AND DUP1 DUP3 OR DUP6 MSTORE POP POP POP POP POP POP SWAP1 POP ADD SWAP2 POP POP PUSH1 0x40 MLOAD DUP1 SWAP2 SUB SWAP1 KECCAK256 SWAP1 POP SWAP2 SWAP1 POP JUMP JUMPDEST PUSH1 0x0 PUSH2 0x4700 PUSH2 0x46FB DUP4 PUSH2 0x4D1F JUMP JUMPDEST PUSH2 0x45BE JUMP JUMPDEST SWAP1 POP DUP1 SWAP1 POP SWAP2 SWAP1 POP JUMP JUMPDEST PUSH1 0x0 PUSH1 0x3 PUSH1 0x6 DUP2 GT ISZERO PUSH2 0x4719 JUMPI INVALID JUMPDEST PUSH1 0xFF AND DUP3 PUSH1 0x0 ADD MLOAD PUSH1 0xFF AND EQ PUSH1 0x40 DUP1 MLOAD SWAP1 DUP2 ADD PUSH1 0x40 MSTORE DUP1 PUSH1 0x10 DUP2 MSTORE PUSH1 0x20 ADD PUSH32 0x4F524445525F554E46494C4C41424C4500000000000000000000000000000000 DUP2 MSTORE POP SWAP1 ISZERO ISZERO PUSH2 0x479E JUMPI PUSH1 0x40 MLOAD PUSH32 0x8C379A000000000000000000000000000000000000000000000000000000000 DUP2 MSTORE PUSH1 0x4 ADD PUSH2 0x4795 SWAP2 SWAP1 PUSH2 0x61D9 JUMP JUMPDEST PUSH1 0x40 MLOAD DUP1 SWAP2 SUB SWAP1 REVERT JUMPDEST POP PUSH1 0x0 PUSH20 0xFFFFFFFFFFFFFFFFFFFFFFFFFFFFFFFFFFFFFFFF AND DUP4 PUSH1 0x60 ADD MLOAD PUSH20 0xFFFFFFFFFFFFFFFFFFFFFFFFFFFFFFFFFFFFFFFF AND EQ ISZERO ISZERO PUSH2 0x4887 JUMPI CALLER PUSH20 0xFFFFFFFFFFFFFFFFFFFFFFFFFFFFFFFFFFFFFFFF AND DUP4 PUSH1 0x60 ADD MLOAD PUSH20 0xFFFFFFFFFFFFFFFFFFFFFFFFFFFFFFFFFFFFFFFF AND EQ PUSH1 0x40 DUP1 MLOAD SWAP1 DUP2 ADD PUSH1 0x40 MSTORE DUP1 PUSH1 0xE DUP2 MSTORE PUSH1 0x20 ADD PUSH32 0x494E56414C49445F53454E444552000000000000000000000000000000000000 DUP2 MSTORE POP SWAP1 ISZERO ISZERO PUSH2 0x4885 JUMPI PUSH1 0x40 MLOAD PUSH32 0x8C379A000000000000000000000000000000000000000000000000000000000 DUP2 MSTORE PUSH1 0x4 ADD PUSH2 0x487C SWAP2 SWAP1 PUSH2 0x61D9 JUMP JUMPDEST PUSH1 0x40 MLOAD DUP1 SWAP2 SUB SWAP1 REVERT JUMPDEST POP JUMPDEST PUSH2 0x488F PUSH2 0x357F JUMP JUMPDEST SWAP1 POP DUP1 PUSH20 0xFFFFFFFFFFFFFFFFFFFFFFFFFFFFFFFFFFFFFFFF AND DUP4 PUSH1 0x0 ADD MLOAD PUSH20 0xFFFFFFFFFFFFFFFFFFFFFFFFFFFFFFFFFFFFFFFF AND EQ PUSH1 0x40 DUP1 MLOAD SWAP1 DUP2 ADD PUSH1 0x40 MSTORE DUP1 PUSH1 0xD DUP2 MSTORE PUSH1 0x20 ADD PUSH32 0x494E56414C49445F4D414B455200000000000000000000000000000000000000 DUP2 MSTORE POP SWAP1 ISZERO ISZERO PUSH2 0x493D JUMPI PUSH1 0x40 MLOAD PUSH32 0x8C379A000000000000000000000000000000000000000000000000000000000 DUP2 MSTORE PUSH1 0x4 ADD PUSH2 0x4934 SWAP2 SWAP1 PUSH2 0x61D9 JUMP JUMPDEST PUSH1 0x40 MLOAD DUP1 SWAP2 SUB SWAP1 REVERT JUMPDEST POP POP POP POP JUMP JUMPDEST PUSH1 0x1 PUSH1 0x3 PUSH1 0x0 DUP4 PUSH1 0x0 NOT AND PUSH1 0x0 NOT AND DUP2 MSTORE PUSH1 0x20 ADD SWAP1 DUP2 MSTORE PUSH1 0x20 ADD PUSH1 0x0 KECCAK256 PUSH1 0x0 PUSH2 0x100 EXP DUP2 SLOAD DUP2 PUSH1 0xFF MUL NOT AND SWAP1 DUP4 ISZERO ISZERO MUL OR SWAP1 SSTORE POP DUP1 PUSH1 0x0 NOT AND DUP3 PUSH1 0x40 ADD MLOAD PUSH20 0xFFFFFFFFFFFFFFFFFFFFFFFFFFFFFFFFFFFFFFFF AND DUP4 PUSH1 0x0 ADD MLOAD PUSH20 0xFFFFFFFFFFFFFFFFFFFFFFFFFFFFFFFFFFFFFFFF AND PUSH32 0xDC47B3613D9FE400085F6DBDC99453462279057E6207385042827ED6B1A62CF7 CALLER DUP7 PUSH2 0x140 ADD MLOAD DUP8 PUSH2 0x160 ADD MLOAD PUSH1 0x40 MLOAD PUSH2 0x49EF SWAP4 SWAP3 SWAP2 SWAP1 PUSH2 0x6044 JUMP JUMPDEST PUSH1 0x40 MLOAD DUP1 SWAP2 SUB SWAP1 LOG4 POP POP JUMP JUMPDEST PUSH1 0x0 DUP1 DUP3 DUP5 ADD SWAP1 POP DUP4 DUP2 LT ISZERO ISZERO ISZERO PUSH2 0x4A0F JUMPI INVALID JUMPDEST DUP1 SWAP2 POP POP SWAP3 SWAP2 POP POP JUMP JUMPDEST PUSH1 0x0 DUP1 DUP3 DUP5 MUL SWAP1 POP PUSH1 0x0 DUP5 EQ DUP1 PUSH2 0x4A3A JUMPI POP DUP3 DUP5 DUP3 DUP2 ISZERO ISZERO PUSH2 0x4A37 JUMPI INVALID JUMPDEST DIV EQ JUMPDEST ISZERO ISZERO PUSH2 0x4A42 JUMPI INVALID JUMPDEST DUP1 SWAP2 POP POP SWAP3 SWAP2 POP POP JUMP JUMPDEST PUSH1 0x0 DUP1 PUSH1 0x0 DUP5 DUP1 ISZERO ISZERO PUSH2 0x4A5B JUMPI INVALID JUMPDEST DUP7 DUP6 MULMOD SWAP2 POP PUSH1 0x0 DUP3 EQ ISZERO PUSH2 0x4A72 JUMPI PUSH1 0x0 SWAP3 POP PUSH2 0x4A9E JUMP JUMPDEST PUSH2 0x4A91 PUSH2 0x4A82 DUP4 PUSH3 0xF4240 PUSH2 0x4A19 JUMP JUMPDEST PUSH2 0x4A8C DUP9 DUP8 PUSH2 0x4A19 JUMP JUMPDEST PUSH2 0x4D04 JUMP JUMPDEST SWAP1 POP PUSH2 0x3E8 DUP2 GT SWAP3 POP DUP3 SWAP3 POP JUMPDEST POP POP SWAP4 SWAP3 POP POP POP JUMP JUMPDEST PUSH1 0x0 DUP1 DUP3 GT ISZERO PUSH2 0x4C26 JUMPI PUSH1 0x9 PUSH1 0x0 DUP7 PUSH1 0xFF AND PUSH1 0xFF AND DUP2 MSTORE PUSH1 0x20 ADD SWAP1 DUP2 MSTORE PUSH1 0x20 ADD PUSH1 0x0 KECCAK256 PUSH1 0x0 SWAP1 SLOAD SWAP1 PUSH2 0x100 EXP SWAP1 DIV PUSH20 0xFFFFFFFFFFFFFFFFFFFFFFFFFFFFFFFFFFFFFFFF AND SWAP1 POP PUSH1 0x0 PUSH20 0xFFFFFFFFFFFFFFFFFFFFFFFFFFFFFFFFFFFFFFFF AND DUP2 PUSH20 0xFFFFFFFFFFFFFFFFFFFFFFFFFFFFFFFFFFFFFFFF AND EQ ISZERO PUSH1 0x40 DUP1 MLOAD SWAP1 DUP2 ADD PUSH1 0x40 MSTORE DUP1 PUSH1 0x1A DUP2 MSTORE PUSH1 0x20 ADD PUSH32 0x41535345545F50524F58595F444F45535F4E4F545F4558495354000000000000 DUP2 MSTORE POP SWAP1 ISZERO ISZERO PUSH2 0x4B97 JUMPI PUSH1 0x40 MLOAD PUSH32 0x8C379A000000000000000000000000000000000000000000000000000000000 DUP2 MSTORE PUSH1 0x4 ADD PUSH2 0x4B8E SWAP2 SWAP1 PUSH2 0x61D9 JUMP JUMPDEST PUSH1 0x40 MLOAD DUP1 SWAP2 SUB SWAP1 REVERT JUMPDEST POP DUP1 PUSH20 0xFFFFFFFFFFFFFFFFFFFFFFFFFFFFFFFFFFFFFFFF AND PUSH4 0xA85E59E4 DUP8 DUP7 DUP7 DUP7 PUSH1 0x40 MLOAD DUP6 PUSH4 0xFFFFFFFF AND PUSH29 0x100000000000000000000000000000000000000000000000000000000 MUL DUP2 MSTORE PUSH1 0x4 ADD PUSH2 0x4BF3 SWAP5 SWAP4 SWAP3 SWAP2 SWAP1 PUSH2 0x6172 JUMP JUMPDEST PUSH1 0x0 PUSH1 0x40 MLOAD DUP1 DUP4 SUB DUP2 PUSH1 0x0 DUP8 DUP1 EXTCODESIZE ISZERO DUP1 ISZERO PUSH2 0x4C0D JUMPI PUSH1 0x0 DUP1 REVERT JUMPDEST POP GAS CALL ISZERO DUP1 ISZERO PUSH2 0x4C21 JUMPI RETURNDATASIZE PUSH1 0x0 DUP1 RETURNDATACOPY RETURNDATASIZE PUSH1 0x0 REVERT JUMPDEST POP POP POP POP JUMPDEST POP POP POP POP POP POP JUMP JUMPDEST PUSH1 0x0 PUSH1 0x14 DUP3 ADD DUP4 MLOAD LT ISZERO PUSH1 0x60 PUSH1 0x40 MLOAD SWAP1 DUP2 ADD PUSH1 0x40 MSTORE DUP1 PUSH1 0x26 DUP2 MSTORE PUSH1 0x20 ADD PUSH32 0x475245415445525F4F525F455155414C5F544F5F32305F4C454E4754485F5245 DUP2 MSTORE PUSH1 0x20 ADD PUSH32 0x5155495245440000000000000000000000000000000000000000000000000000 DUP2 MSTORE POP SWAP1 ISZERO ISZERO PUSH2 0x4CD8 JUMPI PUSH1 0x40 MLOAD PUSH32 0x8C379A000000000000000000000000000000000000000000000000000000000 DUP2 MSTORE PUSH1 0x4 ADD PUSH2 0x4CCF SWAP2 SWAP1 PUSH2 0x61D9 JUMP JUMPDEST PUSH1 0x40 MLOAD DUP1 SWAP2 SUB SWAP1 REVERT JUMPDEST POP PUSH1 0x14 DUP3 ADD SWAP2 POP PUSH20 0xFFFFFFFFFFFFFFFFFFFFFFFFFFFFFFFFFFFFFFFF DUP3 DUP5 ADD MLOAD AND SWAP1 POP DUP1 SWAP1 POP SWAP3 SWAP2 POP POP JUMP JUMPDEST PUSH1 0x0 DUP1 DUP3 DUP5 DUP2 ISZERO ISZERO PUSH2 0x4D12 JUMPI INVALID JUMPDEST DIV SWAP1 POP DUP1 SWAP2 POP POP SWAP3 SWAP2 POP POP JUMP JUMPDEST PUSH1 0x0 DUP1 PUSH1 0x0 DUP1 PUSH1 0x40 MLOAD PUSH1 0x20 ADD DUP1 DUP1 PUSH32 0x4F72646572280000000000000000000000000000000000000000000000000000 DUP2 MSTORE POP PUSH1 0x6 ADD DUP1 PUSH32 0x61646472657373206D616B6572416464726573732C0000000000000000000000 DUP2 MSTORE POP PUSH1 0x15 ADD DUP1 PUSH32 0x616464726573732074616B6572416464726573732C0000000000000000000000 DUP2 MSTORE POP PUSH1 0x15 ADD DUP1 PUSH32 0x6164647265737320666565526563697069656E74416464726573732C00000000 DUP2 MSTORE POP PUSH1 0x1C ADD DUP1 PUSH32 0x616464726573732073656E646572416464726573732C00000000000000000000 DUP2 MSTORE POP PUSH1 0x16 ADD DUP1 PUSH32 0x75696E74323536206D616B65724173736574416D6F756E742C00000000000000 DUP2 MSTORE POP PUSH1 0x19 ADD DUP1 PUSH32 0x75696E743235362074616B65724173736574416D6F756E742C00000000000000 DUP2 MSTORE POP PUSH1 0x19 ADD DUP1 PUSH32 0x75696E74323536206D616B65724665652C000000000000000000000000000000 DUP2 MSTORE POP PUSH1 0x11 ADD DUP1 PUSH32 0x75696E743235362074616B65724665652C000000000000000000000000000000 DUP2 MSTORE POP PUSH1 0x11 ADD DUP1 PUSH32 0x75696E743235362065787069726174696F6E54696D655365636F6E64732C0000 DUP2 MSTORE POP PUSH1 0x1E ADD DUP1 PUSH32 0x75696E743235362073616C742C00000000000000000000000000000000000000 DUP2 MSTORE POP PUSH1 0xD ADD DUP1 PUSH32 0x6279746573206D616B65724173736574446174612C0000000000000000000000 DUP2 MSTORE POP PUSH1 0x15 ADD DUP1 PUSH32 0x62797465732074616B6572417373657444617461000000000000000000000000 DUP2 MSTORE POP PUSH1 0x14 ADD DUP1 PUSH32 0x2900000000000000000000000000000000000000000000000000000000000000 DUP2 MSTORE POP PUSH1 0x1 ADD SWAP1 POP PUSH1 0x40 MLOAD PUSH1 0x20 DUP2 DUP4 SUB SUB DUP2 MSTORE SWAP1 PUSH1 0x40 MSTORE PUSH1 0x40 MLOAD DUP1 DUP3 DUP1 MLOAD SWAP1 PUSH1 0x20 ADD SWAP1 DUP1 DUP4 DUP4 JUMPDEST PUSH1 0x20 DUP4 LT ISZERO ISZERO PUSH2 0x4FA2 JUMPI DUP1 MLOAD DUP3 MSTORE PUSH1 0x20 DUP3 ADD SWAP2 POP PUSH1 0x20 DUP2 ADD SWAP1 POP PUSH1 0x20 DUP4 SUB SWAP3 POP PUSH2 0x4F7D JUMP JUMPDEST PUSH1 0x1 DUP4 PUSH1 0x20 SUB PUSH2 0x100 EXP SUB DUP1 NOT DUP3 MLOAD AND DUP2 DUP5 MLOAD AND DUP1 DUP3 OR DUP6 MSTORE POP POP POP POP POP POP SWAP1 POP ADD SWAP2 POP POP PUSH1 0x40 MLOAD DUP1 SWAP2 SUB SWAP1 KECCAK256 SWAP3 POP DUP5 PUSH2 0x140 ADD MLOAD PUSH1 0x40 MLOAD DUP1 DUP3 DUP1 MLOAD SWAP1 PUSH1 0x20 ADD SWAP1 DUP1 DUP4 DUP4 JUMPDEST PUSH1 0x20 DUP4 LT ISZERO ISZERO PUSH2 0x500C JUMPI DUP1 MLOAD DUP3 MSTORE PUSH1 0x20 DUP3 ADD SWAP2 POP PUSH1 0x20 DUP2 ADD SWAP1 POP PUSH1 0x20 DUP4 SUB SWAP3 POP PUSH2 0x4FE7 JUMP JUMPDEST PUSH1 0x1 DUP4 PUSH1 0x20 SUB PUSH2 0x100 EXP SUB DUP1 NOT DUP3 MLOAD AND DUP2 DUP5 MLOAD AND DUP1 DUP3 OR DUP6 MSTORE POP POP POP POP POP POP SWAP1 POP ADD SWAP2 POP POP PUSH1 0x40 MLOAD DUP1 SWAP2 SUB SWAP1 KECCAK256 SWAP2 POP DUP5 PUSH2 0x160 ADD MLOAD PUSH1 0x40 MLOAD DUP1 DUP3 DUP1 MLOAD SWAP1 PUSH1 0x20 ADD SWAP1 DUP1 DUP4 DUP4 JUMPDEST PUSH1 0x20 DUP4 LT ISZERO ISZERO PUSH2 0x5076 JUMPI DUP1 MLOAD DUP3 MSTORE PUSH1 0x20 DUP3 ADD SWAP2 POP PUSH1 0x20 DUP2 ADD SWAP1 POP PUSH1 0x20 DUP4 SUB SWAP3 POP PUSH2 0x5051 JUMP JUMPDEST PUSH1 0x1 DUP4 PUSH1 0x20 SUB PUSH2 0x100 EXP SUB DUP1 NOT DUP3 MLOAD AND DUP2 DUP5 MLOAD AND DUP1 DUP3 OR DUP6 MSTORE POP POP POP POP POP POP SWAP1 POP ADD SWAP2 POP POP PUSH1 0x40 MLOAD DUP1 SWAP2 SUB SWAP1 KECCAK256 SWAP1 POP PUSH1 0x20 DUP6 SUB MLOAD PUSH2 0x140 DUP7 ADD MLOAD PUSH2 0x160 DUP8 ADD MLOAD DUP6 PUSH1 0x20 DUP10 SUB MSTORE DUP5 PUSH2 0x140 DUP10 ADD MSTORE DUP4 PUSH2 0x160 DUP10 ADD MSTORE PUSH2 0x1A0 PUSH1 0x20 DUP10 SUB KECCAK256 SWAP7 POP DUP3 PUSH1 0x20 DUP10 SUB MSTORE DUP2 PUSH2 0x140 DUP10 ADD MSTORE DUP1 PUSH2 0x160 DUP10 ADD MSTORE POP POP POP DUP4 SWAP4 POP POP POP POP SWAP2 SWAP1 POP JUMP JUMPDEST PUSH1 0x80 PUSH1 0x40 MLOAD SWAP1 DUP2 ADD PUSH1 0x40 MSTORE DUP1 PUSH1 0x0 DUP2 MSTORE PUSH1 0x20 ADD PUSH1 0x0 DUP2 MSTORE PUSH1 0x20 ADD PUSH1 0x0 DUP2 MSTORE PUSH1 0x20 ADD PUSH1 0x0 DUP2 MSTORE POP SWAP1 JUMP JUMPDEST PUSH2 0x120 PUSH1 0x40 MLOAD SWAP1 DUP2 ADD PUSH1 0x40 MSTORE DUP1 PUSH2 0x5134 PUSH2 0x5176 JUMP JUMPDEST DUP2 MSTORE PUSH1 0x20 ADD PUSH2 0x5141 PUSH2 0x5176 JUMP JUMPDEST DUP2 MSTORE PUSH1 0x20 ADD PUSH1 0x0 DUP2 MSTORE POP SWAP1 JUMP JUMPDEST PUSH1 0x60 PUSH1 0x40 MLOAD SWAP1 DUP2 ADD PUSH1 0x40 MSTORE DUP1 PUSH1 0x0 PUSH1 0xFF AND DUP2 MSTORE PUSH1 0x20 ADD PUSH1 0x0 DUP1 NOT AND DUP2 MSTORE PUSH1 0x20 ADD PUSH1 0x0 DUP2 MSTORE POP SWAP1 JUMP JUMPDEST PUSH1 0x80 PUSH1 0x40 MLOAD SWAP1 DUP2 ADD PUSH1 0x40 MSTORE DUP1 PUSH1 0x0 DUP2 MSTORE PUSH1 0x20 ADD PUSH1 0x0 DUP2 MSTORE PUSH1 0x20 ADD PUSH1 0x0 DUP2 MSTORE PUSH1 0x20 ADD PUSH1 0x0 DUP2 MSTORE POP SWAP1 JUMP JUMPDEST PUSH1 0x0 PUSH2 0x51AB DUP3 CALLDATALOAD PUSH2 0x640A JUMP JUMPDEST SWAP1 POP SWAP3 SWAP2 POP POP JUMP JUMPDEST PUSH1 0x0 DUP3 PUSH1 0x1F DUP4 ADD SLT ISZERO ISZERO PUSH2 0x51C6 JUMPI PUSH1 0x0 DUP1 REVERT JUMPDEST DUP2 CALLDATALOAD PUSH2 0x51D9 PUSH2 0x51D4 DUP3 PUSH2 0x62CC JUMP JUMPDEST PUSH2 0x629F JUMP JUMPDEST SWAP2 POP DUP2 DUP2 DUP4 MSTORE PUSH1 0x20 DUP5 ADD SWAP4 POP PUSH1 0x20 DUP2 ADD SWAP1 POP DUP4 PUSH1 0x0 JUMPDEST DUP4 DUP2 LT ISZERO PUSH2 0x521F JUMPI DUP2 CALLDATALOAD DUP7 ADD PUSH2 0x5205 DUP9 DUP3 PUSH2 0x53AC JUMP JUMPDEST DUP5 MSTORE PUSH1 0x20 DUP5 ADD SWAP4 POP PUSH1 0x20 DUP4 ADD SWAP3 POP POP PUSH1 0x1 DUP2 ADD SWAP1 POP PUSH2 0x51EF JUMP JUMPDEST POP POP POP POP SWAP3 SWAP2 POP POP JUMP JUMPDEST PUSH1 0x0 DUP3 PUSH1 0x1F DUP4 ADD SLT ISZERO ISZERO PUSH2 0x523C JUMPI PUSH1 0x0 DUP1 REVERT JUMPDEST DUP2 CALLDATALOAD PUSH2 0x524F PUSH2 0x524A DUP3 PUSH2 0x62F4 JUMP JUMPDEST PUSH2 0x629F JUMP JUMPDEST SWAP2 POP DUP2 DUP2 DUP4 MSTORE PUSH1 0x20 DUP5 ADD SWAP4 POP PUSH1 0x20 DUP2 ADD SWAP1 POP DUP4 PUSH1 0x0 JUMPDEST DUP4 DUP2 LT ISZERO PUSH2 0x5295 JUMPI DUP2 CALLDATALOAD DUP7 ADD PUSH2 0x527B DUP9 DUP3 PUSH2 0x5458 JUMP JUMPDEST DUP5 MSTORE PUSH1 0x20 DUP5 ADD SWAP4 POP PUSH1 0x20 DUP4 ADD SWAP3 POP POP PUSH1 0x1 DUP2 ADD SWAP1 POP PUSH2 0x5265 JUMP JUMPDEST POP POP POP POP SWAP3 SWAP2 POP POP JUMP JUMPDEST PUSH1 0x0 DUP3 PUSH1 0x1F DUP4 ADD SLT ISZERO ISZERO PUSH2 0x52B2 JUMPI PUSH1 0x0 DUP1 REVERT JUMPDEST DUP2 CALLDATALOAD PUSH2 0x52C5 PUSH2 0x52C0 DUP3 PUSH2 0x631C JUMP JUMPDEST PUSH2 0x629F JUMP JUMPDEST SWAP2 POP DUP2 DUP2 DUP4 MSTORE PUSH1 0x20 DUP5 ADD SWAP4 POP PUSH1 0x20 DUP2 ADD SWAP1 POP DUP4 DUP6 PUSH1 0x20 DUP5 MUL DUP3 ADD GT ISZERO PUSH2 0x52EA JUMPI PUSH1 0x0 DUP1 REVERT JUMPDEST PUSH1 0x0 JUMPDEST DUP4 DUP2 LT ISZERO PUSH2 0x531A JUMPI DUP2 PUSH2 0x5300 DUP9 DUP3 PUSH2 0x56F4 JUMP JUMPDEST DUP5 MSTORE PUSH1 0x20 DUP5 ADD SWAP4 POP PUSH1 0x20 DUP4 ADD SWAP3 POP POP PUSH1 0x1 DUP2 ADD SWAP1 POP PUSH2 0x52ED JUMP JUMPDEST POP POP POP POP SWAP3 SWAP2 POP POP JUMP JUMPDEST PUSH1 0x0 PUSH2 0x5330 DUP3 CALLDATALOAD PUSH2 0x642A JUMP JUMPDEST SWAP1 POP SWAP3 SWAP2 POP POP JUMP JUMPDEST PUSH1 0x0 PUSH2 0x5344 DUP3 MLOAD PUSH2 0x642A JUMP JUMPDEST SWAP1 POP SWAP3 SWAP2 POP POP JUMP JUMPDEST PUSH1 0x0 PUSH2 0x5358 DUP3 CALLDATALOAD PUSH2 0x6436 JUMP JUMPDEST SWAP1 POP SWAP3 SWAP2 POP POP JUMP JUMPDEST PUSH1 0x0 DUP1 DUP4 PUSH1 0x1F DUP5 ADD SLT ISZERO ISZERO PUSH2 0x5374 JUMPI PUSH1 0x0 DUP1 REVERT JUMPDEST DUP3 CALLDATALOAD SWAP1 POP PUSH8 0xFFFFFFFFFFFFFFFF DUP2 GT ISZERO PUSH2 0x538D JUMPI PUSH1 0x0 DUP1 REVERT JUMPDEST PUSH1 0x20 DUP4 ADD SWAP2 POP DUP4 PUSH1 0x1 DUP3 MUL DUP4 ADD GT ISZERO PUSH2 0x53A5 JUMPI PUSH1 0x0 DUP1 REVERT JUMPDEST SWAP3 POP SWAP3 SWAP1 POP JUMP JUMPDEST PUSH1 0x0 DUP3 PUSH1 0x1F DUP4 ADD SLT ISZERO ISZERO PUSH2 0x53BF JUMPI PUSH1 0x0 DUP1 REVERT JUMPDEST DUP2 CALLDATALOAD PUSH2 0x53D2 PUSH2 0x53CD DUP3 PUSH2 0x6344 JUMP JUMPDEST PUSH2 0x629F JUMP JUMPDEST SWAP2 POP DUP1 DUP3 MSTORE PUSH1 0x20 DUP4 ADD PUSH1 0x20 DUP4 ADD DUP6 DUP4 DUP4 ADD GT ISZERO PUSH2 0x53EE JUMPI PUSH1 0x0 DUP1 REVERT JUMPDEST PUSH2 0x53F9 DUP4 DUP3 DUP5 PUSH2 0x6469 JUMP JUMPDEST POP POP POP SWAP3 SWAP2 POP POP JUMP JUMPDEST PUSH1 0x0 DUP3 PUSH1 0x1F DUP4 ADD SLT ISZERO ISZERO PUSH2 0x5415 JUMPI PUSH1 0x0 DUP1 REVERT JUMPDEST DUP2 CALLDATALOAD PUSH2 0x5428 PUSH2 0x5423 DUP3 PUSH2 0x6370 JUMP JUMPDEST PUSH2 0x629F JUMP JUMPDEST SWAP2 POP DUP1 DUP3 MSTORE PUSH1 0x20 DUP4 ADD PUSH1 0x20 DUP4 ADD DUP6 DUP4 DUP4 ADD GT ISZERO PUSH2 0x5444 JUMPI PUSH1 0x0 DUP1 REVERT JUMPDEST PUSH2 0x544F DUP4 DUP3 DUP5 PUSH2 0x6469 JUMP JUMPDEST POP POP POP SWAP3 SWAP2 POP POP JUMP JUMPDEST PUSH1 0x0 PUSH2 0x180 DUP3 DUP5 SUB SLT ISZERO PUSH2 0x546B JUMPI PUSH1 0x0 DUP1 REVERT JUMPDEST PUSH2 0x5476 PUSH2 0x180 PUSH2 0x629F JUMP JUMPDEST SWAP1 POP PUSH1 0x0 PUSH2 0x5486 DUP5 DUP3 DUP6 ADD PUSH2 0x519F JUMP JUMPDEST PUSH1 0x0 DUP4 ADD MSTORE POP PUSH1 0x20 PUSH2 0x549A DUP5 DUP3 DUP6 ADD PUSH2 0x519F JUMP JUMPDEST PUSH1 0x20 DUP4 ADD MSTORE POP PUSH1 0x40 PUSH2 0x54AE DUP5 DUP3 DUP6 ADD PUSH2 0x519F JUMP JUMPDEST PUSH1 0x40 DUP4 ADD MSTORE POP PUSH1 0x60 PUSH2 0x54C2 DUP5 DUP3 DUP6 ADD PUSH2 0x519F JUMP JUMPDEST PUSH1 0x60 DUP4 ADD MSTORE POP PUSH1 0x80 PUSH2 0x54D6 DUP5 DUP3 DUP6 ADD PUSH2 0x56F4 JUMP JUMPDEST PUSH1 0x80 DUP4 ADD MSTORE POP PUSH1 0xA0 PUSH2 0x54EA DUP5 DUP3 DUP6 ADD PUSH2 0x56F4 JUMP JUMPDEST PUSH1 0xA0 DUP4 ADD MSTORE POP PUSH1 0xC0 PUSH2 0x54FE DUP5 DUP3 DUP6 ADD PUSH2 0x56F4 JUMP JUMPDEST PUSH1 0xC0 DUP4 ADD MSTORE POP PUSH1 0xE0 PUSH2 0x5512 DUP5 DUP3 DUP6 ADD PUSH2 0x56F4 JUMP JUMPDEST PUSH1 0xE0 DUP4 ADD MSTORE POP PUSH2 0x100 PUSH2 0x5527 DUP5 DUP3 DUP6 ADD PUSH2 0x56F4 JUMP JUMPDEST PUSH2 0x100 DUP4 ADD MSTORE POP PUSH2 0x120 PUSH2 0x553D DUP5 DUP3 DUP6 ADD PUSH2 0x56F4 JUMP JUMPDEST PUSH2 0x120 DUP4 ADD MSTORE POP PUSH2 0x140 DUP3 ADD CALLDATALOAD PUSH8 0xFFFFFFFFFFFFFFFF DUP2 GT ISZERO PUSH2 0x555F JUMPI PUSH1 0x0 DUP1 REVERT JUMPDEST PUSH2 0x556B DUP5 DUP3 DUP6 ADD PUSH2 0x53AC JUMP JUMPDEST PUSH2 0x140 DUP4 ADD MSTORE POP PUSH2 0x160 DUP3 ADD CALLDATALOAD PUSH8 0xFFFFFFFFFFFFFFFF DUP2 GT ISZERO PUSH2 0x558D JUMPI PUSH1 0x0 DUP1 REVERT JUMPDEST PUSH2 0x5599 DUP5 DUP3 DUP6 ADD PUSH2 0x53AC JUMP JUMPDEST PUSH2 0x160 DUP4 ADD MSTORE POP SWAP3 SWAP2 POP POP JUMP JUMPDEST PUSH1 0x0 PUSH2 0x180 DUP3 DUP5 SUB SLT ISZERO PUSH2 0x55B9 JUMPI PUSH1 0x0 DUP1 REVERT JUMPDEST PUSH2 0x55C4 PUSH2 0x180 PUSH2 0x629F JUMP JUMPDEST SWAP1 POP PUSH1 0x0 PUSH2 0x55D4 DUP5 DUP3 DUP6 ADD PUSH2 0x519F JUMP JUMPDEST PUSH1 0x0 DUP4 ADD MSTORE POP PUSH1 0x20 PUSH2 0x55E8 DUP5 DUP3 DUP6 ADD PUSH2 0x519F JUMP JUMPDEST PUSH1 0x20 DUP4 ADD MSTORE POP PUSH1 0x40 PUSH2 0x55FC DUP5 DUP3 DUP6 ADD PUSH2 0x519F JUMP JUMPDEST PUSH1 0x40 DUP4 ADD MSTORE POP PUSH1 0x60 PUSH2 0x5610 DUP5 DUP3 DUP6 ADD PUSH2 0x519F JUMP JUMPDEST PUSH1 0x60 DUP4 ADD MSTORE POP PUSH1 0x80 PUSH2 0x5624 DUP5 DUP3 DUP6 ADD PUSH2 0x56F4 JUMP JUMPDEST PUSH1 0x80 DUP4 ADD MSTORE POP PUSH1 0xA0 PUSH2 0x5638 DUP5 DUP3 DUP6 ADD PUSH2 0x56F4 JUMP JUMPDEST PUSH1 0xA0 DUP4 ADD MSTORE POP PUSH1 0xC0 PUSH2 0x564C DUP5 DUP3 DUP6 ADD PUSH2 0x56F4 JUMP JUMPDEST PUSH1 0xC0 DUP4 ADD MSTORE POP PUSH1 0xE0 PUSH2 0x5660 DUP5 DUP3 DUP6 ADD PUSH2 0x56F4 JUMP JUMPDEST PUSH1 0xE0 DUP4 ADD MSTORE POP PUSH2 0x100 PUSH2 0x5675 DUP5 DUP3 DUP6 ADD PUSH2 0x56F4 JUMP JUMPDEST PUSH2 0x100 DUP4 ADD MSTORE POP PUSH2 0x120 PUSH2 0x568B DUP5 DUP3 DUP6 ADD PUSH2 0x56F4 JUMP JUMPDEST PUSH2 0x120 DUP4 ADD MSTORE POP PUSH2 0x140 DUP3 ADD CALLDATALOAD PUSH8 0xFFFFFFFFFFFFFFFF DUP2 GT ISZERO PUSH2 0x56AD JUMPI PUSH1 0x0 DUP1 REVERT JUMPDEST PUSH2 0x56B9 DUP5 DUP3 DUP6 ADD PUSH2 0x53AC JUMP JUMPDEST PUSH2 0x140 DUP4 ADD MSTORE POP PUSH2 0x160 DUP3 ADD CALLDATALOAD PUSH8 0xFFFFFFFFFFFFFFFF DUP2 GT ISZERO PUSH2 0x56DB JUMPI PUSH1 0x0 DUP1 REVERT JUMPDEST PUSH2 0x56E7 DUP5 DUP3 DUP6 ADD PUSH2 0x53AC JUMP JUMPDEST PUSH2 0x160 DUP4 ADD MSTORE POP SWAP3 SWAP2 POP POP JUMP JUMPDEST PUSH1 0x0 PUSH2 0x5700 DUP3 CALLDATALOAD PUSH2 0x6440 JUMP JUMPDEST SWAP1 POP SWAP3 SWAP2 POP POP JUMP JUMPDEST PUSH1 0x0 PUSH2 0x5714 DUP3 CALLDATALOAD PUSH2 0x644A JUMP JUMPDEST SWAP1 POP SWAP3 SWAP2 POP POP JUMP JUMPDEST PUSH1 0x0 PUSH2 0x5728 DUP3 MLOAD PUSH2 0x644A JUMP JUMPDEST SWAP1 POP SWAP3 SWAP2 POP POP JUMP JUMPDEST PUSH1 0x0 PUSH1 0x20 DUP3 DUP5 SUB SLT ISZERO PUSH2 0x5742 JUMPI PUSH1 0x0 DUP1 REVERT JUMPDEST PUSH1 0x0 PUSH2 0x5750 DUP5 DUP3 DUP6 ADD PUSH2 0x519F JUMP JUMPDEST SWAP2 POP POP SWAP3 SWAP2 POP POP JUMP JUMPDEST PUSH1 0x0 DUP1 PUSH1 0x40 DUP4 DUP6 SUB SLT ISZERO PUSH2 0x576C JUMPI PUSH1 0x0 DUP1 REVERT JUMPDEST PUSH1 0x0 PUSH2 0x577A DUP6 DUP3 DUP7 ADD PUSH2 0x519F JUMP JUMPDEST SWAP3 POP POP PUSH1 0x20 PUSH2 0x578B DUP6 DUP3 DUP7 ADD PUSH2 0x519F JUMP JUMPDEST SWAP2 POP POP SWAP3 POP SWAP3 SWAP1 POP JUMP JUMPDEST PUSH1 0x0 DUP1 PUSH1 0x40 DUP4 DUP6 SUB SLT ISZERO PUSH2 0x57A8 JUMPI PUSH1 0x0 DUP1 REVERT JUMPDEST PUSH1 0x0 PUSH2 0x57B6 DUP6 DUP3 DUP7 ADD PUSH2 0x519F JUMP JUMPDEST SWAP3 POP POP PUSH1 0x20 PUSH2 0x57C7 DUP6 DUP3 DUP7 ADD PUSH2 0x5324 JUMP JUMPDEST SWAP2 POP POP SWAP3 POP SWAP3 SWAP1 POP JUMP JUMPDEST PUSH1 0x0 PUSH1 0x20 DUP3 DUP5 SUB SLT ISZERO PUSH2 0x57E3 JUMPI PUSH1 0x0 DUP1 REVERT JUMPDEST PUSH1 0x0 DUP3 ADD CALLDATALOAD PUSH8 0xFFFFFFFFFFFFFFFF DUP2 GT ISZERO PUSH2 0x57FD JUMPI PUSH1 0x0 DUP1 REVERT JUMPDEST PUSH2 0x5809 DUP5 DUP3 DUP6 ADD PUSH2 0x5229 JUMP JUMPDEST SWAP2 POP POP SWAP3 SWAP2 POP POP JUMP JUMPDEST PUSH1 0x0 DUP1 PUSH1 0x0 PUSH1 0x60 DUP5 DUP7 SUB SLT ISZERO PUSH2 0x5827 JUMPI PUSH1 0x0 DUP1 REVERT JUMPDEST PUSH1 0x0 DUP5 ADD CALLDATALOAD PUSH8 0xFFFFFFFFFFFFFFFF DUP2 GT ISZERO PUSH2 0x5841 JUMPI PUSH1 0x0 DUP1 REVERT JUMPDEST PUSH2 0x584D DUP7 DUP3 DUP8 ADD PUSH2 0x5229 JUMP JUMPDEST SWAP4 POP POP PUSH1 0x20 DUP5 ADD CALLDATALOAD PUSH8 0xFFFFFFFFFFFFFFFF DUP2 GT ISZERO PUSH2 0x586A JUMPI PUSH1 0x0 DUP1 REVERT JUMPDEST PUSH2 0x5876 DUP7 DUP3 DUP8 ADD PUSH2 0x529F JUMP JUMPDEST SWAP3 POP POP PUSH1 0x40 DUP5 ADD CALLDATALOAD PUSH8 0xFFFFFFFFFFFFFFFF DUP2 GT ISZERO PUSH2 0x5893 JUMPI PUSH1 0x0 DUP1 REVERT JUMPDEST PUSH2 0x589F DUP7 DUP3 DUP8 ADD PUSH2 0x51B3 JUMP JUMPDEST SWAP2 POP POP SWAP3 POP SWAP3 POP SWAP3 JUMP JUMPDEST PUSH1 0x0 DUP1 PUSH1 0x0 PUSH1 0x60 DUP5 DUP7 SUB SLT ISZERO PUSH2 0x58BE JUMPI PUSH1 0x0 DUP1 REVERT JUMPDEST PUSH1 0x0 DUP5 ADD CALLDATALOAD PUSH8 0xFFFFFFFFFFFFFFFF DUP2 GT ISZERO PUSH2 0x58D8 JUMPI PUSH1 0x0 DUP1 REVERT JUMPDEST PUSH2 0x58E4 DUP7 DUP3 DUP8 ADD PUSH2 0x5229 JUMP JUMPDEST SWAP4 POP POP PUSH1 0x20 PUSH2 0x58F5 DUP7 DUP3 DUP8 ADD PUSH2 0x56F4 JUMP JUMPDEST SWAP3 POP POP PUSH1 0x40 DUP5 ADD CALLDATALOAD PUSH8 0xFFFFFFFFFFFFFFFF DUP2 GT ISZERO PUSH2 0x5912 JUMPI PUSH1 0x0 DUP1 REVERT JUMPDEST PUSH2 0x591E DUP7 DUP3 DUP8 ADD PUSH2 0x51B3 JUMP JUMPDEST SWAP2 POP POP SWAP3 POP SWAP3 POP SWAP3 JUMP JUMPDEST PUSH1 0x0 PUSH1 0x20 DUP3 DUP5 SUB SLT ISZERO PUSH2 0x593A JUMPI PUSH1 0x0 DUP1 REVERT JUMPDEST PUSH1 0x0 PUSH2 0x5948 DUP5 DUP3 DUP6 ADD PUSH2 0x5338 JUMP JUMPDEST SWAP2 POP POP SWAP3 SWAP2 POP POP JUMP JUMPDEST PUSH1 0x0 PUSH1 0x20 DUP3 DUP5 SUB SLT ISZERO PUSH2 0x5963 JUMPI PUSH1 0x0 DUP1 REVERT JUMPDEST PUSH1 0x0 PUSH2 0x5971 DUP5 DUP3 DUP6 ADD PUSH2 0x534C JUMP JUMPDEST SWAP2 POP POP SWAP3 SWAP2 POP POP JUMP JUMPDEST PUSH1 0x0 DUP1 PUSH1 0x40 DUP4 DUP6 SUB SLT ISZERO PUSH2 0x598D JUMPI PUSH1 0x0 DUP1 REVERT JUMPDEST PUSH1 0x0 PUSH2 0x599B DUP6 DUP3 DUP7 ADD PUSH2 0x534C JUMP JUMPDEST SWAP3 POP POP PUSH1 0x20 PUSH2 0x59AC DUP6 DUP3 DUP7 ADD PUSH2 0x519F JUMP JUMPDEST SWAP2 POP POP SWAP3 POP SWAP3 SWAP1 POP JUMP JUMPDEST PUSH1 0x0 DUP1 PUSH1 0x0 DUP1 PUSH1 0x60 DUP6 DUP8 SUB SLT ISZERO PUSH2 0x59CC JUMPI PUSH1 0x0 DUP1 REVERT JUMPDEST PUSH1 0x0 PUSH2 0x59DA DUP8 DUP3 DUP9 ADD PUSH2 0x534C JUMP JUMPDEST SWAP5 POP POP PUSH1 0x20 PUSH2 0x59EB DUP8 DUP3 DUP9 ADD PUSH2 0x519F JUMP JUMPDEST SWAP4 POP POP PUSH1 0x40 DUP6 ADD CALLDATALOAD PUSH8 0xFFFFFFFFFFFFFFFF DUP2 GT ISZERO PUSH2 0x5A08 JUMPI PUSH1 0x0 DUP1 REVERT JUMPDEST PUSH2 0x5A14 DUP8 DUP3 DUP9 ADD PUSH2 0x5360 JUMP JUMPDEST SWAP3 POP SWAP3 POP POP SWAP3 SWAP6 SWAP2 SWAP5 POP SWAP3 POP JUMP JUMPDEST PUSH1 0x0 DUP1 PUSH1 0x0 PUSH1 0x60 DUP5 DUP7 SUB SLT ISZERO PUSH2 0x5A37 JUMPI PUSH1 0x0 DUP1 REVERT JUMPDEST PUSH1 0x0 PUSH2 0x5A45 DUP7 DUP3 DUP8 ADD PUSH2 0x534C JUMP JUMPDEST SWAP4 POP POP PUSH1 0x20 PUSH2 0x5A56 DUP7 DUP3 DUP8 ADD PUSH2 0x519F JUMP JUMPDEST SWAP3 POP POP PUSH1 0x40 DUP5 ADD CALLDATALOAD PUSH8 0xFFFFFFFFFFFFFFFF DUP2 GT ISZERO PUSH2 0x5A73 JUMPI PUSH1 0x0 DUP1 REVERT JUMPDEST PUSH2 0x5A7F DUP7 DUP3 DUP8 ADD PUSH2 0x5402 JUMP JUMPDEST SWAP2 POP POP SWAP3 POP SWAP3 POP SWAP3 JUMP JUMPDEST PUSH1 0x0 PUSH1 0x20 DUP3 DUP5 SUB SLT ISZERO PUSH2 0x5A9B JUMPI PUSH1 0x0 DUP1 REVERT JUMPDEST PUSH1 0x0 DUP3 ADD CALLDATALOAD PUSH8 0xFFFFFFFFFFFFFFFF DUP2 GT ISZERO PUSH2 0x5AB5 JUMPI PUSH1 0x0 DUP1 REVERT JUMPDEST PUSH2 0x5AC1 DUP5 DUP3 DUP6 ADD PUSH2 0x55A6 JUMP JUMPDEST SWAP2 POP POP SWAP3 SWAP2 POP POP JUMP JUMPDEST PUSH1 0x0 DUP1 PUSH1 0x0 DUP1 PUSH1 0x80 DUP6 DUP8 SUB SLT ISZERO PUSH2 0x5AE0 JUMPI PUSH1 0x0 DUP1 REVERT JUMPDEST PUSH1 0x0 DUP6 ADD CALLDATALOAD PUSH8 0xFFFFFFFFFFFFFFFF DUP2 GT ISZERO PUSH2 0x5AFA JUMPI PUSH1 0x0 DUP1 REVERT JUMPDEST PUSH2 0x5B06 DUP8 DUP3 DUP9 ADD PUSH2 0x55A6 JUMP JUMPDEST SWAP5 POP POP PUSH1 0x20 DUP6 ADD CALLDATALOAD PUSH8 0xFFFFFFFFFFFFFFFF DUP2 GT ISZERO PUSH2 0x5B23 JUMPI PUSH1 0x0 DUP1 REVERT JUMPDEST PUSH2 0x5B2F DUP8 DUP3 DUP9 ADD PUSH2 0x55A6 JUMP JUMPDEST SWAP4 POP POP PUSH1 0x40 DUP6 ADD CALLDATALOAD PUSH8 0xFFFFFFFFFFFFFFFF DUP2 GT ISZERO PUSH2 0x5B4C JUMPI PUSH1 0x0 DUP1 REVERT JUMPDEST PUSH2 0x5B58 DUP8 DUP3 DUP9 ADD PUSH2 0x5402 JUMP JUMPDEST SWAP3 POP POP PUSH1 0x60 DUP6 ADD CALLDATALOAD PUSH8 0xFFFFFFFFFFFFFFFF DUP2 GT ISZERO PUSH2 0x5B75 JUMPI PUSH1 0x0 DUP1 REVERT JUMPDEST PUSH2 0x5B81 DUP8 DUP3 DUP9 ADD PUSH2 0x5402 JUMP JUMPDEST SWAP2 POP POP SWAP3 SWAP6 SWAP2 SWAP5 POP SWAP3 POP JUMP JUMPDEST PUSH1 0x0 DUP1 PUSH1 0x0 PUSH1 0x60 DUP5 DUP7 SUB SLT ISZERO PUSH2 0x5BA2 JUMPI PUSH1 0x0 DUP1 REVERT JUMPDEST PUSH1 0x0 DUP5 ADD CALLDATALOAD PUSH8 0xFFFFFFFFFFFFFFFF DUP2 GT ISZERO PUSH2 0x5BBC JUMPI PUSH1 0x0 DUP1 REVERT JUMPDEST PUSH2 0x5BC8 DUP7 DUP3 DUP8 ADD PUSH2 0x55A6 JUMP JUMPDEST SWAP4 POP POP PUSH1 0x20 PUSH2 0x5BD9 DUP7 DUP3 DUP8 ADD PUSH2 0x56F4 JUMP JUMPDEST SWAP3 POP POP PUSH1 0x40 DUP5 ADD CALLDATALOAD PUSH8 0xFFFFFFFFFFFFFFFF DUP2 GT ISZERO PUSH2 0x5BF6 JUMPI PUSH1 0x0 DUP1 REVERT JUMPDEST PUSH2 0x5C02 DUP7 DUP3 DUP8 ADD PUSH2 0x5402 JUMP JUMPDEST SWAP2 POP POP SWAP3 POP SWAP3 POP SWAP3 JUMP JUMPDEST PUSH1 0x0 PUSH1 0x20 DUP3 DUP5 SUB SLT ISZERO PUSH2 0x5C1E JUMPI PUSH1 0x0 DUP1 REVERT JUMPDEST PUSH1 0x0 PUSH2 0x5C2C DUP5 DUP3 DUP6 ADD PUSH2 0x56F4 JUMP JUMPDEST SWAP2 POP POP SWAP3 SWAP2 POP POP JUMP JUMPDEST PUSH1 0x0 DUP1 PUSH1 0x0 DUP1 PUSH1 0x0 DUP1 PUSH1 0x80 DUP8 DUP10 SUB SLT ISZERO PUSH2 0x5C4E JUMPI PUSH1 0x0 DUP1 REVERT JUMPDEST PUSH1 0x0 PUSH2 0x5C5C DUP10 DUP3 DUP11 ADD PUSH2 0x56F4 JUMP JUMPDEST SWAP7 POP POP PUSH1 0x20 PUSH2 0x5C6D DUP10 DUP3 DUP11 ADD PUSH2 0x519F JUMP JUMPDEST SWAP6 POP POP PUSH1 0x40 DUP8 ADD CALLDATALOAD PUSH8 0xFFFFFFFFFFFFFFFF DUP2 GT ISZERO PUSH2 0x5C8A JUMPI PUSH1 0x0 DUP1 REVERT JUMPDEST PUSH2 0x5C96 DUP10 DUP3 DUP11 ADD PUSH2 0x5360 JUMP JUMPDEST SWAP5 POP SWAP5 POP POP PUSH1 0x60 DUP8 ADD CALLDATALOAD PUSH8 0xFFFFFFFFFFFFFFFF DUP2 GT ISZERO PUSH2 0x5CB5 JUMPI PUSH1 0x0 DUP1 REVERT JUMPDEST PUSH2 0x5CC1 DUP10 DUP3 DUP11 ADD PUSH2 0x5360 JUMP JUMPDEST SWAP3 POP SWAP3 POP POP SWAP3 SWAP6 POP SWAP3 SWAP6 POP SWAP3 SWAP6 JUMP JUMPDEST PUSH1 0x0 PUSH1 0x20 DUP3 DUP5 SUB SLT ISZERO PUSH2 0x5CE2 JUMPI PUSH1 0x0 DUP1 REVERT JUMPDEST PUSH1 0x0 PUSH2 0x5CF0 DUP5 DUP3 DUP6 ADD PUSH2 0x5708 JUMP JUMPDEST SWAP2 POP POP SWAP3 SWAP2 POP POP JUMP JUMPDEST PUSH1 0x0 PUSH1 0x20 DUP3 DUP5 SUB SLT ISZERO PUSH2 0x5D0B JUMPI PUSH1 0x0 DUP1 REVERT JUMPDEST PUSH1 0x0 PUSH2 0x5D19 DUP5 DUP3 DUP6 ADD PUSH2 0x571C JUMP JUMPDEST SWAP2 POP POP SWAP3 SWAP2 POP POP JUMP JUMPDEST PUSH1 0x0 DUP1 PUSH1 0x0 PUSH1 0x60 DUP5 DUP7 SUB SLT ISZERO PUSH2 0x5D37 JUMPI PUSH1 0x0 DUP1 REVERT JUMPDEST PUSH1 0x0 PUSH2 0x5D45 DUP7 DUP3 DUP8 ADD PUSH2 0x5708 JUMP JUMPDEST SWAP4 POP POP PUSH1 0x20 PUSH2 0x5D56 DUP7 DUP3 DUP8 ADD PUSH2 0x519F JUMP JUMPDEST SWAP3 POP POP PUSH1 0x40 PUSH2 0x5D67 DUP7 DUP3 DUP8 ADD PUSH2 0x519F JUMP JUMPDEST SWAP2 POP POP SWAP3 POP SWAP3 POP SWAP3 JUMP JUMPDEST PUSH2 0x5D7A DUP2 PUSH2 0x63BD JUMP JUMPDEST DUP3 MSTORE POP POP JUMP JUMPDEST PUSH2 0x5D89 DUP2 PUSH2 0x63DD JUMP JUMPDEST DUP3 MSTORE POP POP JUMP JUMPDEST PUSH2 0x5D98 DUP2 PUSH2 0x63E9 JUMP JUMPDEST DUP3 MSTORE POP POP JUMP JUMPDEST PUSH1 0x0 PUSH2 0x5DA9 DUP3 PUSH2 0x63A7 JUMP JUMPDEST DUP1 DUP5 MSTORE PUSH2 0x5DBD DUP2 PUSH1 0x20 DUP7 ADD PUSH1 0x20 DUP7 ADD PUSH2 0x6478 JUMP JUMPDEST PUSH2 0x5DC6 DUP2 PUSH2 0x64AB JUMP JUMPDEST PUSH1 0x20 DUP6 ADD ADD SWAP2 POP POP SWAP3 SWAP2 POP POP JUMP JUMPDEST PUSH1 0x0 PUSH2 0x5DDF DUP3 PUSH2 0x639C JUMP JUMPDEST DUP1 DUP5 MSTORE PUSH2 0x5DF3 DUP2 PUSH1 0x20 DUP7 ADD PUSH1 0x20 DUP7 ADD PUSH2 0x6478 JUMP JUMPDEST PUSH2 0x5DFC DUP2 PUSH2 0x64AB JUMP JUMPDEST PUSH1 0x20 DUP6 ADD ADD SWAP2 POP POP SWAP3 SWAP2 POP POP JUMP JUMPDEST PUSH2 0x5E13 DUP2 PUSH2 0x6457 JUMP JUMPDEST DUP3 MSTORE POP POP JUMP JUMPDEST PUSH1 0x0 PUSH2 0x5E24 DUP3 PUSH2 0x63B2 JUMP JUMPDEST DUP1 DUP5 MSTORE PUSH2 0x5E38 DUP2 PUSH1 0x20 DUP7 ADD PUSH1 0x20 DUP7 ADD PUSH2 0x6478 JUMP JUMPDEST PUSH2 0x5E41 DUP2 PUSH2 0x64AB JUMP JUMPDEST PUSH1 0x20 DUP6 ADD ADD SWAP2 POP POP SWAP3 SWAP2 POP POP JUMP JUMPDEST PUSH1 0x80 DUP3 ADD PUSH1 0x0 DUP3 ADD MLOAD PUSH2 0x5E65 PUSH1 0x0 DUP6 ADD DUP3 PUSH2 0x5F7F JUMP JUMPDEST POP PUSH1 0x20 DUP3 ADD MLOAD PUSH2 0x5E78 PUSH1 0x20 DUP6 ADD DUP3 PUSH2 0x5F7F JUMP JUMPDEST POP PUSH1 0x40 DUP3 ADD MLOAD PUSH2 0x5E8B PUSH1 0x40 DUP6 ADD DUP3 PUSH2 0x5F7F JUMP JUMPDEST POP PUSH1 0x60 DUP3 ADD MLOAD PUSH2 0x5E9E PUSH1 0x60 DUP6 ADD DUP3 PUSH2 0x5F7F JUMP JUMPDEST POP POP POP POP JUMP JUMPDEST PUSH1 0x80 DUP3 ADD PUSH1 0x0 DUP3 ADD MLOAD PUSH2 0x5EBA PUSH1 0x0 DUP6 ADD DUP3 PUSH2 0x5F7F JUMP JUMPDEST POP PUSH1 0x20 DUP3 ADD MLOAD PUSH2 0x5ECD PUSH1 0x20 DUP6 ADD DUP3 PUSH2 0x5F7F JUMP JUMPDEST POP PUSH1 0x40 DUP3 ADD MLOAD PUSH2 0x5EE0 PUSH1 0x40 DUP6 ADD DUP3 PUSH2 0x5F7F JUMP JUMPDEST POP PUSH1 0x60 DUP3 ADD MLOAD PUSH2 0x5EF3 PUSH1 0x60 DUP6 ADD DUP3 PUSH2 0x5F7F JUMP JUMPDEST POP POP POP POP JUMP JUMPDEST PUSH2 0x120 DUP3 ADD PUSH1 0x0 DUP3 ADD MLOAD PUSH2 0x5F10 PUSH1 0x0 DUP6 ADD DUP3 PUSH2 0x5EA4 JUMP JUMPDEST POP PUSH1 0x20 DUP3 ADD MLOAD PUSH2 0x5F23 PUSH1 0x80 DUP6 ADD DUP3 PUSH2 0x5EA4 JUMP JUMPDEST POP PUSH1 0x40 DUP3 ADD MLOAD PUSH2 0x5F37 PUSH2 0x100 DUP6 ADD DUP3 PUSH2 0x5F7F JUMP JUMPDEST POP POP POP POP JUMP JUMPDEST PUSH1 0x60 DUP3 ADD PUSH1 0x0 DUP3 ADD MLOAD PUSH2 0x5F53 PUSH1 0x0 DUP6 ADD DUP3 PUSH2 0x5F8E JUMP JUMPDEST POP PUSH1 0x20 DUP3 ADD MLOAD PUSH2 0x5F66 PUSH1 0x20 DUP6 ADD DUP3 PUSH2 0x5D8F JUMP JUMPDEST POP PUSH1 0x40 DUP3 ADD MLOAD PUSH2 0x5F79 PUSH1 0x40 DUP6 ADD DUP3 PUSH2 0x5F7F JUMP JUMPDEST POP POP POP POP JUMP JUMPDEST PUSH2 0x5F88 DUP2 PUSH2 0x63F3 JUMP JUMPDEST DUP3 MSTORE POP POP JUMP JUMPDEST PUSH2 0x5F97 DUP2 PUSH2 0x63FD JUMP JUMPDEST DUP3 MSTORE POP POP JUMP JUMPDEST PUSH1 0x0 PUSH1 0x20 DUP3 ADD SWAP1 POP PUSH2 0x5FB2 PUSH1 0x0 DUP4 ADD DUP5 PUSH2 0x5D71 JUMP JUMPDEST SWAP3 SWAP2 POP POP JUMP JUMPDEST PUSH1 0x0 PUSH2 0x100 DUP3 ADD SWAP1 POP PUSH2 0x5FCE PUSH1 0x0 DUP4 ADD DUP12 PUSH2 0x5D71 JUMP JUMPDEST PUSH2 0x5FDB PUSH1 0x20 DUP4 ADD DUP11 PUSH2 0x5D71 JUMP JUMPDEST PUSH2 0x5FE8 PUSH1 0x40 DUP4 ADD DUP10 PUSH2 0x5F7F JUMP JUMPDEST PUSH2 0x5FF5 PUSH1 0x60 DUP4 ADD DUP9 PUSH2 0x5F7F JUMP JUMPDEST PUSH2 0x6002 PUSH1 0x80 DUP4 ADD DUP8 PUSH2 0x5F7F JUMP JUMPDEST PUSH2 0x600F PUSH1 0xA0 DUP4 ADD DUP7 PUSH2 0x5F7F JUMP JUMPDEST DUP2 DUP2 SUB PUSH1 0xC0 DUP4 ADD MSTORE PUSH2 0x6021 DUP2 DUP6 PUSH2 0x5DD4 JUMP JUMPDEST SWAP1 POP DUP2 DUP2 SUB PUSH1 0xE0 DUP4 ADD MSTORE PUSH2 0x6035 DUP2 DUP5 PUSH2 0x5DD4 JUMP JUMPDEST SWAP1 POP SWAP10 SWAP9 POP POP POP POP POP POP POP POP POP JUMP JUMPDEST PUSH1 0x0 PUSH1 0x60 DUP3 ADD SWAP1 POP PUSH2 0x6059 PUSH1 0x0 DUP4 ADD DUP7 PUSH2 0x5D71 JUMP JUMPDEST DUP2 DUP2 SUB PUSH1 0x20 DUP4 ADD MSTORE PUSH2 0x606B DUP2 DUP6 PUSH2 0x5DD4 JUMP JUMPDEST SWAP1 POP DUP2 DUP2 SUB PUSH1 0x40 DUP4 ADD MSTORE PUSH2 0x607F DUP2 DUP5 PUSH2 0x5DD4 JUMP JUMPDEST SWAP1 POP SWAP5 SWAP4 POP POP POP POP JUMP JUMPDEST PUSH1 0x0 PUSH1 0x20 DUP3 ADD SWAP1 POP PUSH2 0x609E PUSH1 0x0 DUP4 ADD DUP5 PUSH2 0x5D80 JUMP JUMPDEST SWAP3 SWAP2 POP POP JUMP JUMPDEST PUSH1 0x0 PUSH1 0x20 DUP3 ADD SWAP1 POP PUSH2 0x60B9 PUSH1 0x0 DUP4 ADD DUP5 PUSH2 0x5D8F JUMP JUMPDEST SWAP3 SWAP2 POP POP JUMP JUMPDEST PUSH1 0x0 PUSH1 0x60 DUP3 ADD SWAP1 POP PUSH2 0x60D4 PUSH1 0x0 DUP4 ADD DUP7 PUSH2 0x5D8F JUMP JUMPDEST PUSH2 0x60E1 PUSH1 0x20 DUP4 ADD DUP6 PUSH2 0x5D71 JUMP JUMPDEST DUP2 DUP2 SUB PUSH1 0x40 DUP4 ADD MSTORE PUSH2 0x60F3 DUP2 DUP5 PUSH2 0x5D9E JUMP JUMPDEST SWAP1 POP SWAP5 SWAP4 POP POP POP POP JUMP JUMPDEST PUSH1 0x0 PUSH1 0x40 DUP3 ADD SWAP1 POP PUSH2 0x6112 PUSH1 0x0 DUP4 ADD DUP6 PUSH2 0x5D8F JUMP JUMPDEST DUP2 DUP2 SUB PUSH1 0x20 DUP4 ADD MSTORE PUSH2 0x6124 DUP2 DUP5 PUSH2 0x5D9E JUMP JUMPDEST SWAP1 POP SWAP4 SWAP3 POP POP POP JUMP JUMPDEST PUSH1 0x0 PUSH1 0x80 DUP3 ADD SWAP1 POP PUSH2 0x6142 PUSH1 0x0 DUP4 ADD DUP8 PUSH2 0x5D8F JUMP JUMPDEST PUSH2 0x614F PUSH1 0x20 DUP4 ADD DUP7 PUSH2 0x5F8E JUMP JUMPDEST PUSH2 0x615C PUSH1 0x40 DUP4 ADD DUP6 PUSH2 0x5D8F JUMP JUMPDEST PUSH2 0x6169 PUSH1 0x60 DUP4 ADD DUP5 PUSH2 0x5D8F JUMP JUMPDEST SWAP6 SWAP5 POP POP POP POP POP JUMP JUMPDEST PUSH1 0x0 PUSH1 0x80 DUP3 ADD SWAP1 POP DUP2 DUP2 SUB PUSH1 0x0 DUP4 ADD MSTORE PUSH2 0x618C DUP2 DUP8 PUSH2 0x5D9E JUMP JUMPDEST SWAP1 POP PUSH2 0x619B PUSH1 0x20 DUP4 ADD DUP7 PUSH2 0x5D71 JUMP JUMPDEST PUSH2 0x61A8 PUSH1 0x40 DUP4 ADD DUP6 PUSH2 0x5D71 JUMP JUMPDEST PUSH2 0x61B5 PUSH1 0x60 DUP4 ADD DUP5 PUSH2 0x5F7F JUMP JUMPDEST SWAP6 SWAP5 POP POP POP POP POP JUMP JUMPDEST PUSH1 0x0 PUSH1 0x20 DUP3 ADD SWAP1 POP PUSH2 0x61D3 PUSH1 0x0 DUP4 ADD DUP5 PUSH2 0x5E0A JUMP JUMPDEST SWAP3 SWAP2 POP POP JUMP JUMPDEST PUSH1 0x0 PUSH1 0x20 DUP3 ADD SWAP1 POP DUP2 DUP2 SUB PUSH1 0x0 DUP4 ADD MSTORE PUSH2 0x61F3 DUP2 DUP5 PUSH2 0x5E19 JUMP JUMPDEST SWAP1 POP SWAP3 SWAP2 POP POP JUMP JUMPDEST PUSH1 0x0 PUSH1 0x80 DUP3 ADD SWAP1 POP PUSH2 0x6210 PUSH1 0x0 DUP4 ADD DUP5 PUSH2 0x5E4F JUMP JUMPDEST SWAP3 SWAP2 POP POP JUMP JUMPDEST PUSH1 0x0 PUSH2 0x120 DUP3 ADD SWAP1 POP PUSH2 0x622C PUSH1 0x0 DUP4 ADD DUP5 PUSH2 0x5EF9 JUMP JUMPDEST SWAP3 SWAP2 POP POP JUMP JUMPDEST PUSH1 0x0 PUSH1 0x60 DUP3 ADD SWAP1 POP PUSH2 0x6247 PUSH1 0x0 DUP4 ADD DUP5 PUSH2 0x5F3D JUMP JUMPDEST SWAP3 SWAP2 POP POP JUMP JUMPDEST PUSH1 0x0 PUSH1 0x20 DUP3 ADD SWAP1 POP PUSH2 0x6262 PUSH1 0x0 DUP4 ADD DUP5 PUSH2 0x5F7F JUMP JUMPDEST SWAP3 SWAP2 POP POP JUMP JUMPDEST PUSH1 0x0 PUSH1 0x60 DUP3 ADD SWAP1 POP PUSH2 0x627D PUSH1 0x0 DUP4 ADD DUP7 PUSH2 0x5F8E JUMP JUMPDEST PUSH2 0x628A PUSH1 0x20 DUP4 ADD DUP6 PUSH2 0x5D71 JUMP JUMPDEST PUSH2 0x6297 PUSH1 0x40 DUP4 ADD DUP5 PUSH2 0x5D71 JUMP JUMPDEST SWAP5 SWAP4 POP POP POP POP JUMP JUMPDEST PUSH1 0x0 PUSH1 0x40 MLOAD SWAP1 POP DUP2 DUP2 ADD DUP2 DUP2 LT PUSH8 0xFFFFFFFFFFFFFFFF DUP3 GT OR ISZERO PUSH2 0x62C2 JUMPI PUSH1 0x0 DUP1 REVERT JUMPDEST DUP1 PUSH1 0x40 MSTORE POP SWAP2 SWAP1 POP JUMP JUMPDEST PUSH1 0x0 PUSH8 0xFFFFFFFFFFFFFFFF DUP3 GT ISZERO PUSH2 0x62E3 JUMPI PUSH1 0x0 DUP1 REVERT JUMPDEST PUSH1 0x20 DUP3 MUL SWAP1 POP PUSH1 0x20 DUP2 ADD SWAP1 POP SWAP2 SWAP1 POP JUMP JUMPDEST PUSH1 0x0 PUSH8 0xFFFFFFFFFFFFFFFF DUP3 GT ISZERO PUSH2 0x630B JUMPI PUSH1 0x0 DUP1 REVERT JUMPDEST PUSH1 0x20 DUP3 MUL SWAP1 POP PUSH1 0x20 DUP2 ADD SWAP1 POP SWAP2 SWAP1 POP JUMP JUMPDEST PUSH1 0x0 PUSH8 0xFFFFFFFFFFFFFFFF DUP3 GT ISZERO PUSH2 0x6333 JUMPI PUSH1 0x0 DUP1 REVERT JUMPDEST PUSH1 0x20 DUP3 MUL SWAP1 POP PUSH1 0x20 DUP2 ADD SWAP1 POP SWAP2 SWAP1 POP JUMP JUMPDEST PUSH1 0x0 PUSH8 0xFFFFFFFFFFFFFFFF DUP3 GT ISZERO PUSH2 0x635B JUMPI PUSH1 0x0 DUP1 REVERT JUMPDEST PUSH1 0x1F NOT PUSH1 0x1F DUP4 ADD AND SWAP1 POP PUSH1 0x20 DUP2 ADD SWAP1 POP SWAP2 SWAP1 POP JUMP JUMPDEST PUSH1 0x0 PUSH8 0xFFFFFFFFFFFFFFFF DUP3 GT ISZERO PUSH2 0x6387 JUMPI PUSH1 0x0 DUP1 REVERT JUMPDEST PUSH1 0x1F NOT PUSH1 0x1F DUP4 ADD AND SWAP1 POP PUSH1 0x20 DUP2 ADD SWAP1 POP SWAP2 SWAP1 POP JUMP JUMPDEST PUSH1 0x0 DUP2 MLOAD SWAP1 POP SWAP2 SWAP1 POP JUMP JUMPDEST PUSH1 0x0 DUP2 MLOAD SWAP1 POP SWAP2 SWAP1 POP JUMP JUMPDEST PUSH1 0x0 DUP2 MLOAD SWAP1 POP SWAP2 SWAP1 POP JUMP JUMPDEST PUSH1 0x0 PUSH20 0xFFFFFFFFFFFFFFFFFFFFFFFFFFFFFFFFFFFFFFFF DUP3 AND SWAP1 POP SWAP2 SWAP1 POP JUMP JUMPDEST PUSH1 0x0 DUP2 ISZERO ISZERO SWAP1 POP SWAP2 SWAP1 POP JUMP JUMPDEST PUSH1 0x0 DUP2 SWAP1 POP SWAP2 SWAP1 POP JUMP JUMPDEST PUSH1 0x0 DUP2 SWAP1 POP SWAP2 SWAP1 POP JUMP JUMPDEST PUSH1 0x0 PUSH1 0xFF DUP3 AND SWAP1 POP SWAP2 SWAP1 POP JUMP JUMPDEST PUSH1 0x0 PUSH20 0xFFFFFFFFFFFFFFFFFFFFFFFFFFFFFFFFFFFFFFFF DUP3 AND SWAP1 POP SWAP2 SWAP1 POP JUMP JUMPDEST PUSH1 0x0 DUP2 ISZERO ISZERO SWAP1 POP SWAP2 SWAP1 POP JUMP JUMPDEST PUSH1 0x0 DUP2 SWAP1 POP SWAP2 SWAP1 POP JUMP JUMPDEST PUSH1 0x0 DUP2 SWAP1 POP SWAP2 SWAP1 POP JUMP JUMPDEST PUSH1 0x0 PUSH1 0xFF DUP3 AND SWAP1 POP SWAP2 SWAP1 POP JUMP JUMPDEST PUSH1 0x0 PUSH2 0x6462 DUP3 PUSH2 0x63BD JUMP JUMPDEST SWAP1 POP SWAP2 SWAP1 POP JUMP JUMPDEST DUP3 DUP2 DUP4 CALLDATACOPY PUSH1 0x0 DUP4 DUP4 ADD MSTORE POP POP POP JUMP JUMPDEST PUSH1 0x0 JUMPDEST DUP4 DUP2 LT ISZERO PUSH2 0x6496 JUMPI DUP1 DUP3 ADD MLOAD DUP2 DUP5 ADD MSTORE PUSH1 0x20 DUP2 ADD SWAP1 POP PUSH2 0x647B JUMP JUMPDEST DUP4 DUP2 GT ISZERO PUSH2 0x64A5 JUMPI PUSH1 0x0 DUP5 DUP5 ADD MSTORE JUMPDEST POP POP POP POP JUMP JUMPDEST PUSH1 0x0 PUSH1 0x1F NOT PUSH1 0x1F DUP4 ADD AND SWAP1 POP SWAP2 SWAP1 POP JUMP STOP LOG2 PUSH6 0x627A7A723058 KECCAK256 ADDRESS 0xa5 0x28 0xbe DUP6 SIGNEXTEND 0xae SWAP13 PUSH21 0x1D6AC8409E321D128FAB87CB72F823DF6E3D822B2A 0xde PUSH2 0x6C65 PUSH25 0x706572696D656E74616CF50037000000000000000000000000 "
			}
		}
	},
	"sourceTreeHashHex": "0xd070c417505b3dbf6ceb41a77d136a6a9dcf28b66706af78c51f589accba4c43",
	"compiler": {
		"name": "solc",
		"version": "soljson-v0.4.24+commit.e67f0147.js",
		"settings": {
			"outputSelection": {
				"*": {
					"*": [
						"abi",
						"evm.bytecode.object",
						"evm.bytecode.sourceMap",
						"evm.deployedBytecode.object",
						"evm.deployedBytecode.sourceMap"
					]
				}
			}
		}
	}
}