{
    "schemaVersion": "2.0.0",
    "contractName": "Coordinator",
    "compilerOutput": {
        "abi": [
            {
                "constant": true,
                "inputs": [
                    {
                        "name": "hash",
                        "type": "bytes32"
                    },
                    {
                        "name": "signature",
                        "type": "bytes"
                    }
                ],
                "name": "getSignerAddress",
                "outputs": [
                    {
                        "name": "signerAddress",
                        "type": "address"
                    }
                ],
                "payable": false,
                "stateMutability": "pure",
                "type": "function"
            },
            {
                "constant": true,
                "inputs": [
                    {
                        "components": [
                            {
                                "name": "salt",
                                "type": "uint256"
                            },
                            {
                                "name": "signerAddress",
                                "type": "address"
                            },
                            {
                                "name": "data",
                                "type": "bytes"
                            }
                        ],
                        "name": "transaction",
                        "type": "tuple"
                    }
                ],
                "name": "getTransactionHash",
                "outputs": [
                    {
                        "name": "transactionHash",
                        "type": "bytes32"
                    }
                ],
                "payable": false,
                "stateMutability": "view",
                "type": "function"
            },
            {
                "constant": true,
                "inputs": [
                    {
                        "components": [
                            {
                                "name": "txOrigin",
                                "type": "address"
                            },
                            {
                                "name": "transactionHash",
                                "type": "bytes32"
                            },
                            {
                                "name": "transactionSignature",
                                "type": "bytes"
                            },
                            {
                                "name": "approvalExpirationTimeSeconds",
                                "type": "uint256"
                            }
                        ],
                        "name": "approval",
                        "type": "tuple"
                    }
                ],
                "name": "getCoordinatorApprovalHash",
                "outputs": [
                    {
                        "name": "approvalHash",
                        "type": "bytes32"
                    }
                ],
                "payable": false,
                "stateMutability": "view",
                "type": "function"
            },
            {
                "constant": false,
                "inputs": [
                    {
                        "components": [
                            {
                                "name": "salt",
                                "type": "uint256"
                            },
                            {
                                "name": "signerAddress",
                                "type": "address"
                            },
                            {
                                "name": "data",
                                "type": "bytes"
                            }
                        ],
                        "name": "transaction",
                        "type": "tuple"
                    },
                    {
                        "name": "txOrigin",
                        "type": "address"
                    },
                    {
                        "name": "transactionSignature",
                        "type": "bytes"
                    },
                    {
                        "name": "approvalExpirationTimeSeconds",
                        "type": "uint256[]"
                    },
                    {
                        "name": "approvalSignatures",
                        "type": "bytes[]"
                    }
                ],
                "name": "executeTransaction",
                "outputs": [],
                "payable": false,
                "stateMutability": "nonpayable",
                "type": "function"
            },
            {
                "constant": true,
                "inputs": [],
                "name": "EIP712_EXCHANGE_DOMAIN_HASH",
                "outputs": [
                    {
                        "name": "",
                        "type": "bytes32"
                    }
                ],
                "payable": false,
                "stateMutability": "view",
                "type": "function"
            },
            {
                "constant": true,
                "inputs": [
                    {
                        "components": [
                            {
                                "name": "salt",
                                "type": "uint256"
                            },
                            {
                                "name": "signerAddress",
                                "type": "address"
                            },
                            {
                                "name": "data",
                                "type": "bytes"
                            }
                        ],
                        "name": "transaction",
                        "type": "tuple"
                    },
                    {
                        "name": "txOrigin",
                        "type": "address"
                    },
                    {
                        "name": "transactionSignature",
                        "type": "bytes"
                    },
                    {
                        "name": "approvalExpirationTimeSeconds",
                        "type": "uint256[]"
                    },
                    {
                        "name": "approvalSignatures",
                        "type": "bytes[]"
                    }
                ],
                "name": "assertValidCoordinatorApprovals",
                "outputs": [],
                "payable": false,
                "stateMutability": "view",
                "type": "function"
            },
            {
                "constant": true,
                "inputs": [
                    {
                        "name": "data",
                        "type": "bytes"
                    }
                ],
                "name": "decodeOrdersFromFillData",
                "outputs": [
                    {
                        "components": [
                            {
                                "name": "makerAddress",
                                "type": "address"
                            },
                            {
                                "name": "takerAddress",
                                "type": "address"
                            },
                            {
                                "name": "feeRecipientAddress",
                                "type": "address"
                            },
                            {
                                "name": "senderAddress",
                                "type": "address"
                            },
                            {
                                "name": "makerAssetAmount",
                                "type": "uint256"
                            },
                            {
                                "name": "takerAssetAmount",
                                "type": "uint256"
                            },
                            {
                                "name": "makerFee",
                                "type": "uint256"
                            },
                            {
                                "name": "takerFee",
                                "type": "uint256"
                            },
                            {
                                "name": "expirationTimeSeconds",
                                "type": "uint256"
                            },
                            {
                                "name": "salt",
                                "type": "uint256"
                            },
                            {
                                "name": "makerAssetData",
                                "type": "bytes"
                            },
                            {
                                "name": "takerAssetData",
                                "type": "bytes"
                            }
                        ],
                        "name": "orders",
                        "type": "tuple[]"
                    }
                ],
                "payable": false,
                "stateMutability": "pure",
                "type": "function"
            },
            {
                "constant": true,
                "inputs": [],
                "name": "EIP712_COORDINATOR_DOMAIN_HASH",
                "outputs": [
                    {
                        "name": "",
                        "type": "bytes32"
                    }
                ],
                "payable": false,
                "stateMutability": "view",
                "type": "function"
            },
            {
                "inputs": [
                    {
                        "name": "_exchange",
                        "type": "address"
                    }
                ],
                "payable": false,
                "stateMutability": "nonpayable",
                "type": "constructor"
            }
        ],
        "evm": {
            "bytecode": {
                "linkReferences": {},
                "object": "0x60806040523480156200001157600080fd5b506040516020806200235b833981018060405262000033919081019062000252565b600080546001600160a01b0319166001600160a01b0383161790556040516200005f906020016200029f565b60408051601f1981840301815282825280516020918201208383018352601784527f30782050726f746f636f6c20436f6f7264696e61746f720000000000000000009382019390935281518083018352600581527f312e302e300000000000000000000000000000000000000000000000000000009082015290516200012d92917f626d101e477fd17dd52afb3f9ad9eb016bf60f6e377877f34e8f3ea84c930236917f06c015bd22b4c69690933c1058878ebdfef31f9aaae40bbe86d8a09fe1b2972c9130910162000284565b60408051601f198184030181529082905280516020918201206001556200015591016200029f565b60408051601f1981840301815282825280516020918201208383018352600b84527f30782050726f746f636f6c0000000000000000000000000000000000000000009382019390935281518083018352600181527f32000000000000000000000000000000000000000000000000000000000000009082015260005491516200023093927ff0f24618f4c4be1e62e026fb039a20ef96f4495294817d1027ffaa6d1f70e61e927fad7c5bef027816a800da1736444fb58a807ef4c9603b7848673f7e3a68eb14a5926001600160a01b03909216910162000284565b60408051601f1981840301815291905280516020909101206002555062000360565b6000602082840312156200026557600080fd5b81516001600160a01b03811681146200027d57600080fd5b9392505050565b93845260208401929092526040830152606082015260800190565b7f454950373132446f6d61696e280000000000000000000000000000000000000081527f737472696e67206e616d652c0000000000000000000000000000000000000000600d8201527f737472696e672076657273696f6e2c000000000000000000000000000000000060198201527f6164647265737320766572696679696e67436f6e74726163740000000000000060288201527f2900000000000000000000000000000000000000000000000000000000000000604182015260420190565b611feb80620003706000396000f3fe608060405234801561001057600080fd5b50600436106100885760003560e01c8063c26cfecd1161005b578063c26cfecd146100fe578063d2df073314610106578063ee55b96814610119578063fb6961cc1461013957610088565b80630f7d8e391461008d57806323872f55146100b657806348a321d6146100d657806390c3bc3f146100e9575b600080fd5b6100a061009b3660046115d7565b610141565b6040516100ad9190611958565b60405180910390f35b6100c96100c436600461177c565b6104d4565b6040516100ad9190611aad565b6100c96100e436600461165b565b6104e7565b6100fc6100f73660046117b1565b6104fa565b005b6100c96105a6565b6100fc6101143660046117b1565b6105ac565b61012c61012736600461161e565b6105db565b6040516100ad9190611979565b6100c9610a8f565b600080825111610186576040517f08c379a000000000000000000000000000000000000000000000000000000000815260040161017d90611d7d565b60405180910390fd5b600061019183610a95565b60f81c9050600481106101d0576040517f08c379a000000000000000000000000000000000000000000000000000000000815260040161017d90611c7b565b60008160ff1660048111156101e157fe5b905060008160048111156101f157fe5b1415610229576040517f08c379a000000000000000000000000000000000000000000000000000000000815260040161017d90611d46565b600181600481111561023757fe5b14156102a857835115610276576040517f08c379a000000000000000000000000000000000000000000000000000000000815260040161017d90611e48565b6040517f08c379a000000000000000000000000000000000000000000000000000000000815260040161017d90611db4565b60028160048111156102b657fe5b14156103bb5783516041146102f7576040517f08c379a000000000000000000000000000000000000000000000000000000000815260040161017d90611ad4565b60008460008151811061030657fe5b016020015160f890811c811b901c9050600061032986600163ffffffff610b1816565b9050600061033e87602163ffffffff610b1816565b9050600188848484604051600081526020016040526040516103639493929190611ab6565b6020604051602081039080840390855afa158015610385573d6000803e3d6000fd5b50506040517fffffffffffffffffffffffffffffffffffffffffffffffffffffffffffffffe0015196506104ce95505050505050565b60038160048111156103c957fe5b141561049c57835160411461040a576040517f08c379a000000000000000000000000000000000000000000000000000000000815260040161017d90611ad4565b60008460008151811061041957fe5b016020015160f890811c811b901c9050600061043c86600163ffffffff610b1816565b9050600061045187602163ffffffff610b1816565b90506001886040516020016104669190611927565b60405160208183030381529060405280519060200120848484604051600081526020016040526040516103639493929190611ab6565b6040517f08c379a000000000000000000000000000000000000000000000000000000000815260040161017d90611c7b565b92915050565b60006104ce6104e283610b61565b610bcf565b60006104ce6104f583610bdd565b610c3c565b61050785858585856105ac565b6000548551602087015160408089015190517fbfc8bfce00000000000000000000000000000000000000000000000000000000815273ffffffffffffffffffffffffffffffffffffffff9094169363bfc8bfce9361056d93909290918990600401611e7f565b600060405180830381600087803b15801561058757600080fd5b505af115801561059b573d6000803e3d6000fd5b505050505050505050565b60025481565b60606105bb86604001516105db565b8051909150156105d3576105d3868287878787610c4a565b505050505050565b606060006105ef838263ffffffff610e9816565b90507fffffffff0000000000000000000000000000000000000000000000000000000081167fb4be83d500000000000000000000000000000000000000000000000000000000148061068257507fffffffff0000000000000000000000000000000000000000000000000000000081167f3e228bae00000000000000000000000000000000000000000000000000000000145b806106ce57507fffffffff0000000000000000000000000000000000000000000000000000000081167f64a3bc1500000000000000000000000000000000000000000000000000000000145b15610757576106db6111db565b83516106f190859060049063ffffffff610f0316565b80602001905161070491908101906116ed565b604080516001808252818301909252919250816020015b6107236111db565b81526020019060019003908161071b579050509250808360008151811061074657fe5b602002602001018190525050610a89565b7fffffffff0000000000000000000000000000000000000000000000000000000081167f297bb70b0000000000000000000000000000000000000000000000000000000014806107e857507fffffffff0000000000000000000000000000000000000000000000000000000081167f50dde19000000000000000000000000000000000000000000000000000000000145b8061083457507fffffffff0000000000000000000000000000000000000000000000000000000081167f4d0ae54600000000000000000000000000000000000000000000000000000000145b8061088057507fffffffff0000000000000000000000000000000000000000000000000000000081167fe5fa431b00000000000000000000000000000000000000000000000000000000145b806108cc57507fffffffff0000000000000000000000000000000000000000000000000000000081167fa3e2038000000000000000000000000000000000000000000000000000000000145b8061091857507fffffffff0000000000000000000000000000000000000000000000000000000081167f7e1d980800000000000000000000000000000000000000000000000000000000145b8061096457507fffffffff0000000000000000000000000000000000000000000000000000000081167fdd1c7d1800000000000000000000000000000000000000000000000000000000145b1561099957825161097f90849060049063ffffffff610f0316565b806020019051610992919081019061154b565b9150610a89565b7fffffffff0000000000000000000000000000000000000000000000000000000081167f3c28d861000000000000000000000000000000000000000000000000000000001415610a89576109eb6111db565b6109f36111db565b8451610a0990869060049063ffffffff610f0316565b806020019051610a1c9190810190611722565b60408051600280825260608201909252929450909250816020015b610a3f6111db565b815260200190600190039081610a375790505093508184600081518110610a6257fe5b60200260200101819052508084600181518110610a7b57fe5b602002602001018190525050505b50919050565b60015481565b600080825111610ad1576040517f08c379a000000000000000000000000000000000000000000000000000000000815260040161017d90611ce9565b81600183510381518110610ae157fe5b016020015182517fffffffffffffffffffffffffffffffffffffffffffffffffffffffffffffffff019092525060f890811c901b90565b60008160200183511015610b58576040517f08c379a000000000000000000000000000000000000000000000000000000000815260040161017d90611c1e565b50016020015190565b604081810151825160209384015182519285019290922083517f213c6f636f3ea94e701c0adf9b2624aa45a6c694f9a292c094f9a81c24b5df4c81529485019190915273ffffffffffffffffffffffffffffffffffffffff9091169183019190915260608201526080902090565b60006104ce60025483610fcf565b604080820151825160208085015160608681015185519584019590952086517f2fbcdbaa76bc7589916958ae919dfbef04d23f6bbf26de6ff317b32c6cc01e058152938401949094529482015292830152608082015260a09020919050565b60006104ce60015483610fcf565b3273ffffffffffffffffffffffffffffffffffffffff851614610c99576040517f08c379a000000000000000000000000000000000000000000000000000000000815260040161017d90611cb2565b6000610ca4876104d4565b60408051600080825260208201909252845192935091905b818114610da5576000868281518110610cd157fe5b60200260200101519050610ce3611294565b60405180608001604052808b73ffffffffffffffffffffffffffffffffffffffff1681526020018781526020018a8152602001838152509050428211610d55576040517f08c379a000000000000000000000000000000000000000000000000000000000815260040161017d90611be7565b6000610d60826104e7565b90506000610d81828a8781518110610d7457fe5b6020026020010151610141565b9050610d93878263ffffffff61100916565b96505060019093019250610cbc915050565b50610db6823263ffffffff61100916565b885190925060005b818114610e8b57600073ffffffffffffffffffffffffffffffffffffffff168a8281518110610de957fe5b60200260200101516060015173ffffffffffffffffffffffffffffffffffffffff161415610e1657610e83565b60008a8281518110610e2457fe5b60200260200101516040015190506000610e4782876110d090919063ffffffff16565b905080610e80576040517f08c379a000000000000000000000000000000000000000000000000000000000815260040161017d90611b0b565b50505b600101610dbe565b5050505050505050505050565b60008160040183511015610ed8576040517f08c379a000000000000000000000000000000000000000000000000000000000815260040161017d90611deb565b5001602001517fffffffff000000000000000000000000000000000000000000000000000000001690565b606081831115610f3f576040517f08c379a000000000000000000000000000000000000000000000000000000000815260040161017d90611b42565b8351821115610f7a576040517f08c379a000000000000000000000000000000000000000000000000000000000815260040161017d90611b79565b8282036040519080825280601f01601f191660200182016040528015610fa7576020820181803883390190505b509050610fc8610fb682611111565b84610fc087611111565b018351611117565b9392505050565b6040517f19010000000000000000000000000000000000000000000000000000000000008152600281019290925260228201526042902090565b81516040516060918490602080820280840182019291018285101561105a576040517f08c379a000000000000000000000000000000000000000000000000000000000815260040161017d90611bb0565b828511156110745761106d858583611117565b8497508793505b6001820191506020810190508084019250829450818852846040528688600184038151811061109f57fe5b73ffffffffffffffffffffffffffffffffffffffff9092166020928302919091019091015250959695505050505050565b60006020835102602084018181018192505b80831015611108578251808614156110fc57600194508193505b506020830192506110e2565b50505092915050565b60200190565b6020811015611141576001816020036101000a0380198351168185511680821786525050506111d6565b8282141561114e576111d6565b828211156111885760208103905080820181840181515b82851015611180578451865260209586019590940193611165565b9052506111d6565b60208103905080820181840183515b818612156111d157825182527fffffffffffffffffffffffffffffffffffffffffffffffffffffffffffffffe09283019290910190611197565b855250505b505050565b604051806101800160405280600073ffffffffffffffffffffffffffffffffffffffff168152602001600073ffffffffffffffffffffffffffffffffffffffff168152602001600073ffffffffffffffffffffffffffffffffffffffff168152602001600073ffffffffffffffffffffffffffffffffffffffff16815260200160008152602001600081526020016000815260200160008152602001600081526020016000815260200160608152602001606081525090565b6040518060800160405280600073ffffffffffffffffffffffffffffffffffffffff1681526020016000801916815260200160608152602001600081525090565b80516104ce81611f8c565b600082601f8301126112f0578081fd5b81356113036112fe82611ef8565b611ed1565b8181529150602080830190840160005b838110156113405761132b876020843589010161134a565b83526020928301929190910190600101611313565b5050505092915050565b600082601f83011261135a578081fd5b81356113686112fe82611f19565b915080825283602082850101111561137f57600080fd5b8060208401602084013760009082016020015292915050565b600082601f8301126113a957600080fd5b81516113b76112fe82611f19565b91508082528360208285010111156113ce57600080fd5b6113df816020840160208601611f5c565b5092915050565b60006101808083850312156113f9578182fd5b61140281611ed1565b91505061140f83836112d5565b815261141e83602084016112d5565b602082015261143083604084016112d5565b604082015261144283606084016112d5565b60608201526080820151608082015260a082015160a082015260c082015160c082015260e082015160e08201526101008083015181830152506101208083015181830152506101408083015167ffffffffffffffff808211156114a457600080fd5b6114b086838701611398565b838501526101609250828501519150808211156114cc57600080fd5b506114d985828601611398565b82840152505092915050565b6000606082840312156114f6578081fd5b6115006060611ed1565b905081358152602082013561151481611f8c565b6020820152604082013567ffffffffffffffff81111561153357600080fd5b61153f8482850161134a565b60408301525092915050565b6000602080838503121561155d578182fd5b825167ffffffffffffffff811115611573578283fd5b80840185601f820112611584578384fd5b805191506115946112fe83611ef8565b82815283810190828501865b858110156115c9576115b78a8884518801016113e6565b845292860192908601906001016115a0565b509098975050505050505050565b600080604083850312156115ea57600080fd5b82359150602083013567ffffffffffffffff81111561160857600080fd5b6116148582860161134a565b9150509250929050565b60006020828403121561163057600080fd5b813567ffffffffffffffff81111561164757600080fd5b6116538482850161134a565b949350505050565b60006020828403121561166c578081fd5b813567ffffffffffffffff80821115611683578283fd5b81840160808187031215611695578384fd5b61169f6080611ed1565b925080356116ac81611f8c565b8352602081810135908401526040810135828111156116c9578485fd5b6116d58782840161134a565b60408501525060609081013590830152509392505050565b6000602082840312156116ff57600080fd5b815167ffffffffffffffff81111561171657600080fd5b611653848285016113e6565b6000806040838503121561173557600080fd5b825167ffffffffffffffff8082111561174d57600080fd5b611759868387016113e6565b9350602085015191508082111561176f57600080fd5b50611614858286016113e6565b60006020828403121561178e57600080fd5b813567ffffffffffffffff8111156117a557600080fd5b611653848285016114e5565b600080600080600060a086880312156117c8578081fd5b853567ffffffffffffffff808211156117df578283fd5b6117eb89838a016114e5565b965060209150818801356117fe81611f8c565b9550604088013581811115611811578384fd5b61181d8a828b0161134a565b955050606088013581811115611831578384fd5b8089018a601f820112611842578485fd5b803591506118526112fe83611ef8565b82815284810190828601868502840187018e101561186e578788fd5b8793505b84841015611890578035835260019390930192918601918601611872565b50965050505060808801359150808211156118a9578283fd5b506118b6888289016112e0565b9150509295509295909350565b73ffffffffffffffffffffffffffffffffffffffff169052565b600081518084526118f5816020860160208601611f5c565b601f017fffffffffffffffffffffffffffffffffffffffffffffffffffffffffffffffe0169290920160200192915050565b7f19457468657265756d205369676e6564204d6573736167653a0a3332000000008152601c810191909152603c0190565b73ffffffffffffffffffffffffffffffffffffffff91909116815260200190565b600060208083018184528085518083526040860191506040848202870101925083870160005b82811015611aa0577fffffffffffffffffffffffffffffffffffffffffffffffffffffffffffffffc088860301845281516101806119de8783516118c3565b878201516119ee898901826118c3565b506040820151611a0160408901826118c3565b506060820151611a1460608901826118c3565b506080820151608088015260a082015160a088015260c082015160c088015260e082015160e08801526101008083015181890152506101208083015181890152506101408083015182828a0152611a6d838a01826118dd565b915050610160915081830151888203838a0152611a8a82826118dd565b985050509487019450509085019060010161199f565b5092979650505050505050565b90815260200190565b93845260ff9290921660208401526040830152606082015260800190565b60208082526012908201527f4c454e4754485f36355f52455155495245440000000000000000000000000000604082015260600190565b6020808252601a908201527f494e56414c49445f415050524f56414c5f5349474e4154555245000000000000604082015260600190565b6020808252601a908201527f46524f4d5f4c4553535f5448414e5f544f5f5245515549524544000000000000604082015260600190565b6020808252601c908201527f544f5f4c4553535f5448414e5f4c454e4754485f524551554952454400000000604082015260600190565b60208082526017908201527f494e56414c49445f465245455f4d454d4f52595f505452000000000000000000604082015260600190565b60208082526010908201527f415050524f56414c5f4558504952454400000000000000000000000000000000604082015260600190565b60208082526026908201527f475245415445525f4f525f455155414c5f544f5f33325f4c454e4754485f524560408201527f5155495245440000000000000000000000000000000000000000000000000000606082015260800190565b60208082526015908201527f5349474e41545552455f554e535550504f525445440000000000000000000000604082015260600190565b6020808252600e908201527f494e56414c49445f4f524947494e000000000000000000000000000000000000604082015260600190565b60208082526021908201527f475245415445525f5448414e5f5a45524f5f4c454e4754485f5245515549524560408201527f4400000000000000000000000000000000000000000000000000000000000000606082015260800190565b60208082526011908201527f5349474e41545552455f494c4c4547414c000000000000000000000000000000604082015260600190565b6020808252601e908201527f4c454e4754485f475245415445525f5448414e5f305f52455155495245440000604082015260600190565b60208082526011908201527f5349474e41545552455f494e56414c4944000000000000000000000000000000604082015260600190565b60208082526025908201527f475245415445525f4f525f455155414c5f544f5f345f4c454e4754485f52455160408201527f5549524544000000000000000000000000000000000000000000000000000000606082015260800190565b60208082526011908201527f4c454e4754485f305f5245515549524544000000000000000000000000000000604082015260600190565b600085825273ffffffffffffffffffffffffffffffffffffffff8516602083015260806040830152611eb460808301856118dd565b8281036060840152611ec681856118dd565b979650505050505050565b60405181810167ffffffffffffffff81118282101715611ef057600080fd5b604052919050565b600067ffffffffffffffff821115611f0f57600080fd5b5060209081020190565b600067ffffffffffffffff821115611f3057600080fd5b50601f017fffffffffffffffffffffffffffffffffffffffffffffffffffffffffffffffe01660200190565b60005b83811015611f77578181015183820152602001611f5f565b83811115611f86576000848401525b50505050565b73ffffffffffffffffffffffffffffffffffffffff81168114611fae57600080fd5b5056fea265627a7a72305820bcdb4aab3e1a04ea5cd6c138911116ceac3fac88de1995c4d3f24fdd3f420fb66c6578706572696d656e74616cf50037"
            },
            "deployedBytecode": {
                "linkReferences": {},
                "object": "0x608060405234801561001057600080fd5b50600436106100885760003560e01c8063c26cfecd1161005b578063c26cfecd146100fe578063d2df073314610106578063ee55b96814610119578063fb6961cc1461013957610088565b80630f7d8e391461008d57806323872f55146100b657806348a321d6146100d657806390c3bc3f146100e9575b600080fd5b6100a061009b3660046115d7565b610141565b6040516100ad9190611958565b60405180910390f35b6100c96100c436600461177c565b6104d4565b6040516100ad9190611aad565b6100c96100e436600461165b565b6104e7565b6100fc6100f73660046117b1565b6104fa565b005b6100c96105a6565b6100fc6101143660046117b1565b6105ac565b61012c61012736600461161e565b6105db565b6040516100ad9190611979565b6100c9610a8f565b600080825111610186576040517f08c379a000000000000000000000000000000000000000000000000000000000815260040161017d90611d7d565b60405180910390fd5b600061019183610a95565b60f81c9050600481106101d0576040517f08c379a000000000000000000000000000000000000000000000000000000000815260040161017d90611c7b565b60008160ff1660048111156101e157fe5b905060008160048111156101f157fe5b1415610229576040517f08c379a000000000000000000000000000000000000000000000000000000000815260040161017d90611d46565b600181600481111561023757fe5b14156102a857835115610276576040517f08c379a000000000000000000000000000000000000000000000000000000000815260040161017d90611e48565b6040517f08c379a000000000000000000000000000000000000000000000000000000000815260040161017d90611db4565b60028160048111156102b657fe5b14156103bb5783516041146102f7576040517f08c379a000000000000000000000000000000000000000000000000000000000815260040161017d90611ad4565b60008460008151811061030657fe5b016020015160f890811c811b901c9050600061032986600163ffffffff610b1816565b9050600061033e87602163ffffffff610b1816565b9050600188848484604051600081526020016040526040516103639493929190611ab6565b6020604051602081039080840390855afa158015610385573d6000803e3d6000fd5b50506040517fffffffffffffffffffffffffffffffffffffffffffffffffffffffffffffffe0015196506104ce95505050505050565b60038160048111156103c957fe5b141561049c57835160411461040a576040517f08c379a000000000000000000000000000000000000000000000000000000000815260040161017d90611ad4565b60008460008151811061041957fe5b016020015160f890811c811b901c9050600061043c86600163ffffffff610b1816565b9050600061045187602163ffffffff610b1816565b90506001886040516020016104669190611927565b60405160208183030381529060405280519060200120848484604051600081526020016040526040516103639493929190611ab6565b6040517f08c379a000000000000000000000000000000000000000000000000000000000815260040161017d90611c7b565b92915050565b60006104ce6104e283610b61565b610bcf565b60006104ce6104f583610bdd565b610c3c565b61050785858585856105ac565b6000548551602087015160408089015190517fbfc8bfce00000000000000000000000000000000000000000000000000000000815273ffffffffffffffffffffffffffffffffffffffff9094169363bfc8bfce9361056d93909290918990600401611e7f565b600060405180830381600087803b15801561058757600080fd5b505af115801561059b573d6000803e3d6000fd5b505050505050505050565b60025481565b60606105bb86604001516105db565b8051909150156105d3576105d3868287878787610c4a565b505050505050565b606060006105ef838263ffffffff610e9816565b90507fffffffff0000000000000000000000000000000000000000000000000000000081167fb4be83d500000000000000000000000000000000000000000000000000000000148061068257507fffffffff0000000000000000000000000000000000000000000000000000000081167f3e228bae00000000000000000000000000000000000000000000000000000000145b806106ce57507fffffffff0000000000000000000000000000000000000000000000000000000081167f64a3bc1500000000000000000000000000000000000000000000000000000000145b15610757576106db6111db565b83516106f190859060049063ffffffff610f0316565b80602001905161070491908101906116ed565b604080516001808252818301909252919250816020015b6107236111db565b81526020019060019003908161071b579050509250808360008151811061074657fe5b602002602001018190525050610a89565b7fffffffff0000000000000000000000000000000000000000000000000000000081167f297bb70b0000000000000000000000000000000000000000000000000000000014806107e857507fffffffff0000000000000000000000000000000000000000000000000000000081167f50dde19000000000000000000000000000000000000000000000000000000000145b8061083457507fffffffff0000000000000000000000000000000000000000000000000000000081167f4d0ae54600000000000000000000000000000000000000000000000000000000145b8061088057507fffffffff0000000000000000000000000000000000000000000000000000000081167fe5fa431b00000000000000000000000000000000000000000000000000000000145b806108cc57507fffffffff0000000000000000000000000000000000000000000000000000000081167fa3e2038000000000000000000000000000000000000000000000000000000000145b8061091857507fffffffff0000000000000000000000000000000000000000000000000000000081167f7e1d980800000000000000000000000000000000000000000000000000000000145b8061096457507fffffffff0000000000000000000000000000000000000000000000000000000081167fdd1c7d1800000000000000000000000000000000000000000000000000000000145b1561099957825161097f90849060049063ffffffff610f0316565b806020019051610992919081019061154b565b9150610a89565b7fffffffff0000000000000000000000000000000000000000000000000000000081167f3c28d861000000000000000000000000000000000000000000000000000000001415610a89576109eb6111db565b6109f36111db565b8451610a0990869060049063ffffffff610f0316565b806020019051610a1c9190810190611722565b60408051600280825260608201909252929450909250816020015b610a3f6111db565b815260200190600190039081610a375790505093508184600081518110610a6257fe5b60200260200101819052508084600181518110610a7b57fe5b602002602001018190525050505b50919050565b60015481565b600080825111610ad1576040517f08c379a000000000000000000000000000000000000000000000000000000000815260040161017d90611ce9565b81600183510381518110610ae157fe5b016020015182517fffffffffffffffffffffffffffffffffffffffffffffffffffffffffffffffff019092525060f890811c901b90565b60008160200183511015610b58576040517f08c379a000000000000000000000000000000000000000000000000000000000815260040161017d90611c1e565b50016020015190565b604081810151825160209384015182519285019290922083517f213c6f636f3ea94e701c0adf9b2624aa45a6c694f9a292c094f9a81c24b5df4c81529485019190915273ffffffffffffffffffffffffffffffffffffffff9091169183019190915260608201526080902090565b60006104ce60025483610fcf565b604080820151825160208085015160608681015185519584019590952086517f2fbcdbaa76bc7589916958ae919dfbef04d23f6bbf26de6ff317b32c6cc01e058152938401949094529482015292830152608082015260a09020919050565b60006104ce60015483610fcf565b3273ffffffffffffffffffffffffffffffffffffffff851614610c99576040517f08c379a000000000000000000000000000000000000000000000000000000000815260040161017d90611cb2565b6000610ca4876104d4565b60408051600080825260208201909252845192935091905b818114610da5576000868281518110610cd157fe5b60200260200101519050610ce3611294565b60405180608001604052808b73ffffffffffffffffffffffffffffffffffffffff1681526020018781526020018a8152602001838152509050428211610d55576040517f08c379a000000000000000000000000000000000000000000000000000000000815260040161017d90611be7565b6000610d60826104e7565b90506000610d81828a8781518110610d7457fe5b6020026020010151610141565b9050610d93878263ffffffff61100916565b96505060019093019250610cbc915050565b50610db6823263ffffffff61100916565b885190925060005b818114610e8b57600073ffffffffffffffffffffffffffffffffffffffff168a8281518110610de957fe5b60200260200101516060015173ffffffffffffffffffffffffffffffffffffffff161415610e1657610e83565b60008a8281518110610e2457fe5b60200260200101516040015190506000610e4782876110d090919063ffffffff16565b905080610e80576040517f08c379a000000000000000000000000000000000000000000000000000000000815260040161017d90611b0b565b50505b600101610dbe565b5050505050505050505050565b60008160040183511015610ed8576040517f08c379a000000000000000000000000000000000000000000000000000000000815260040161017d90611deb565b5001602001517fffffffff000000000000000000000000000000000000000000000000000000001690565b606081831115610f3f576040517f08c379a000000000000000000000000000000000000000000000000000000000815260040161017d90611b42565b8351821115610f7a576040517f08c379a000000000000000000000000000000000000000000000000000000000815260040161017d90611b79565b8282036040519080825280601f01601f191660200182016040528015610fa7576020820181803883390190505b509050610fc8610fb682611111565b84610fc087611111565b018351611117565b9392505050565b6040517f19010000000000000000000000000000000000000000000000000000000000008152600281019290925260228201526042902090565b81516040516060918490602080820280840182019291018285101561105a576040517f08c379a000000000000000000000000000000000000000000000000000000000815260040161017d90611bb0565b828511156110745761106d858583611117565b8497508793505b6001820191506020810190508084019250829450818852846040528688600184038151811061109f57fe5b73ffffffffffffffffffffffffffffffffffffffff9092166020928302919091019091015250959695505050505050565b60006020835102602084018181018192505b80831015611108578251808614156110fc57600194508193505b506020830192506110e2565b50505092915050565b60200190565b6020811015611141576001816020036101000a0380198351168185511680821786525050506111d6565b8282141561114e576111d6565b828211156111885760208103905080820181840181515b82851015611180578451865260209586019590940193611165565b9052506111d6565b60208103905080820181840183515b818612156111d157825182527fffffffffffffffffffffffffffffffffffffffffffffffffffffffffffffffe09283019290910190611197565b855250505b505050565b604051806101800160405280600073ffffffffffffffffffffffffffffffffffffffff168152602001600073ffffffffffffffffffffffffffffffffffffffff168152602001600073ffffffffffffffffffffffffffffffffffffffff168152602001600073ffffffffffffffffffffffffffffffffffffffff16815260200160008152602001600081526020016000815260200160008152602001600081526020016000815260200160608152602001606081525090565b6040518060800160405280600073ffffffffffffffffffffffffffffffffffffffff1681526020016000801916815260200160608152602001600081525090565b80516104ce81611f8c565b600082601f8301126112f0578081fd5b81356113036112fe82611ef8565b611ed1565b8181529150602080830190840160005b838110156113405761132b876020843589010161134a565b83526020928301929190910190600101611313565b5050505092915050565b600082601f83011261135a578081fd5b81356113686112fe82611f19565b915080825283602082850101111561137f57600080fd5b8060208401602084013760009082016020015292915050565b600082601f8301126113a957600080fd5b81516113b76112fe82611f19565b91508082528360208285010111156113ce57600080fd5b6113df816020840160208601611f5c565b5092915050565b60006101808083850312156113f9578182fd5b61140281611ed1565b91505061140f83836112d5565b815261141e83602084016112d5565b602082015261143083604084016112d5565b604082015261144283606084016112d5565b60608201526080820151608082015260a082015160a082015260c082015160c082015260e082015160e08201526101008083015181830152506101208083015181830152506101408083015167ffffffffffffffff808211156114a457600080fd5b6114b086838701611398565b838501526101609250828501519150808211156114cc57600080fd5b506114d985828601611398565b82840152505092915050565b6000606082840312156114f6578081fd5b6115006060611ed1565b905081358152602082013561151481611f8c565b6020820152604082013567ffffffffffffffff81111561153357600080fd5b61153f8482850161134a565b60408301525092915050565b6000602080838503121561155d578182fd5b825167ffffffffffffffff811115611573578283fd5b80840185601f820112611584578384fd5b805191506115946112fe83611ef8565b82815283810190828501865b858110156115c9576115b78a8884518801016113e6565b845292860192908601906001016115a0565b509098975050505050505050565b600080604083850312156115ea57600080fd5b82359150602083013567ffffffffffffffff81111561160857600080fd5b6116148582860161134a565b9150509250929050565b60006020828403121561163057600080fd5b813567ffffffffffffffff81111561164757600080fd5b6116538482850161134a565b949350505050565b60006020828403121561166c578081fd5b813567ffffffffffffffff80821115611683578283fd5b81840160808187031215611695578384fd5b61169f6080611ed1565b925080356116ac81611f8c565b8352602081810135908401526040810135828111156116c9578485fd5b6116d58782840161134a565b60408501525060609081013590830152509392505050565b6000602082840312156116ff57600080fd5b815167ffffffffffffffff81111561171657600080fd5b611653848285016113e6565b6000806040838503121561173557600080fd5b825167ffffffffffffffff8082111561174d57600080fd5b611759868387016113e6565b9350602085015191508082111561176f57600080fd5b50611614858286016113e6565b60006020828403121561178e57600080fd5b813567ffffffffffffffff8111156117a557600080fd5b611653848285016114e5565b600080600080600060a086880312156117c8578081fd5b853567ffffffffffffffff808211156117df578283fd5b6117eb89838a016114e5565b965060209150818801356117fe81611f8c565b9550604088013581811115611811578384fd5b61181d8a828b0161134a565b955050606088013581811115611831578384fd5b8089018a601f820112611842578485fd5b803591506118526112fe83611ef8565b82815284810190828601868502840187018e101561186e578788fd5b8793505b84841015611890578035835260019390930192918601918601611872565b50965050505060808801359150808211156118a9578283fd5b506118b6888289016112e0565b9150509295509295909350565b73ffffffffffffffffffffffffffffffffffffffff169052565b600081518084526118f5816020860160208601611f5c565b601f017fffffffffffffffffffffffffffffffffffffffffffffffffffffffffffffffe0169290920160200192915050565b7f19457468657265756d205369676e6564204d6573736167653a0a3332000000008152601c810191909152603c0190565b73ffffffffffffffffffffffffffffffffffffffff91909116815260200190565b600060208083018184528085518083526040860191506040848202870101925083870160005b82811015611aa0577fffffffffffffffffffffffffffffffffffffffffffffffffffffffffffffffc088860301845281516101806119de8783516118c3565b878201516119ee898901826118c3565b506040820151611a0160408901826118c3565b506060820151611a1460608901826118c3565b506080820151608088015260a082015160a088015260c082015160c088015260e082015160e08801526101008083015181890152506101208083015181890152506101408083015182828a0152611a6d838a01826118dd565b915050610160915081830151888203838a0152611a8a82826118dd565b985050509487019450509085019060010161199f565b5092979650505050505050565b90815260200190565b93845260ff9290921660208401526040830152606082015260800190565b60208082526012908201527f4c454e4754485f36355f52455155495245440000000000000000000000000000604082015260600190565b6020808252601a908201527f494e56414c49445f415050524f56414c5f5349474e4154555245000000000000604082015260600190565b6020808252601a908201527f46524f4d5f4c4553535f5448414e5f544f5f5245515549524544000000000000604082015260600190565b6020808252601c908201527f544f5f4c4553535f5448414e5f4c454e4754485f524551554952454400000000604082015260600190565b60208082526017908201527f494e56414c49445f465245455f4d454d4f52595f505452000000000000000000604082015260600190565b60208082526010908201527f415050524f56414c5f4558504952454400000000000000000000000000000000604082015260600190565b60208082526026908201527f475245415445525f4f525f455155414c5f544f5f33325f4c454e4754485f524560408201527f5155495245440000000000000000000000000000000000000000000000000000606082015260800190565b60208082526015908201527f5349474e41545552455f554e535550504f525445440000000000000000000000604082015260600190565b6020808252600e908201527f494e56414c49445f4f524947494e000000000000000000000000000000000000604082015260600190565b60208082526021908201527f475245415445525f5448414e5f5a45524f5f4c454e4754485f5245515549524560408201527f4400000000000000000000000000000000000000000000000000000000000000606082015260800190565b60208082526011908201527f5349474e41545552455f494c4c4547414c000000000000000000000000000000604082015260600190565b6020808252601e908201527f4c454e4754485f475245415445525f5448414e5f305f52455155495245440000604082015260600190565b60208082526011908201527f5349474e41545552455f494e56414c4944000000000000000000000000000000604082015260600190565b60208082526025908201527f475245415445525f4f525f455155414c5f544f5f345f4c454e4754485f52455160408201527f5549524544000000000000000000000000000000000000000000000000000000606082015260800190565b60208082526011908201527f4c454e4754485f305f5245515549524544000000000000000000000000000000604082015260600190565b600085825273ffffffffffffffffffffffffffffffffffffffff8516602083015260806040830152611eb460808301856118dd565b8281036060840152611ec681856118dd565b979650505050505050565b60405181810167ffffffffffffffff81118282101715611ef057600080fd5b604052919050565b600067ffffffffffffffff821115611f0f57600080fd5b5060209081020190565b600067ffffffffffffffff821115611f3057600080fd5b50601f017fffffffffffffffffffffffffffffffffffffffffffffffffffffffffffffffe01660200190565b60005b83811015611f77578181015183820152602001611f5f565b83811115611f86576000848401525b50505050565b73ffffffffffffffffffffffffffffffffffffffff81168114611fae57600080fd5b5056fea265627a7a72305820bcdb4aab3e1a04ea5cd6c138911116ceac3fac88de1995c4d3f24fdd3f420fb66c6578706572696d656e74616cf50037",
                "opcodes": "PUSH1 0x80 PUSH1 0x40 MSTORE CALLVALUE DUP1 ISZERO PUSH2 0x10 JUMPI PUSH1 0x0 DUP1 REVERT JUMPDEST POP PUSH1 0x4 CALLDATASIZE LT PUSH2 0x88 JUMPI PUSH1 0x0 CALLDATALOAD PUSH1 0xE0 SHR DUP1 PUSH4 0xC26CFECD GT PUSH2 0x5B JUMPI DUP1 PUSH4 0xC26CFECD EQ PUSH2 0xFE JUMPI DUP1 PUSH4 0xD2DF0733 EQ PUSH2 0x106 JUMPI DUP1 PUSH4 0xEE55B968 EQ PUSH2 0x119 JUMPI DUP1 PUSH4 0xFB6961CC EQ PUSH2 0x139 JUMPI PUSH2 0x88 JUMP JUMPDEST DUP1 PUSH4 0xF7D8E39 EQ PUSH2 0x8D JUMPI DUP1 PUSH4 0x23872F55 EQ PUSH2 0xB6 JUMPI DUP1 PUSH4 0x48A321D6 EQ PUSH2 0xD6 JUMPI DUP1 PUSH4 0x90C3BC3F EQ PUSH2 0xE9 JUMPI JUMPDEST PUSH1 0x0 DUP1 REVERT JUMPDEST PUSH2 0xA0 PUSH2 0x9B CALLDATASIZE PUSH1 0x4 PUSH2 0x15D7 JUMP JUMPDEST PUSH2 0x141 JUMP JUMPDEST PUSH1 0x40 MLOAD PUSH2 0xAD SWAP2 SWAP1 PUSH2 0x1958 JUMP JUMPDEST PUSH1 0x40 MLOAD DUP1 SWAP2 SUB SWAP1 RETURN JUMPDEST PUSH2 0xC9 PUSH2 0xC4 CALLDATASIZE PUSH1 0x4 PUSH2 0x177C JUMP JUMPDEST PUSH2 0x4D4 JUMP JUMPDEST PUSH1 0x40 MLOAD PUSH2 0xAD SWAP2 SWAP1 PUSH2 0x1AAD JUMP JUMPDEST PUSH2 0xC9 PUSH2 0xE4 CALLDATASIZE PUSH1 0x4 PUSH2 0x165B JUMP JUMPDEST PUSH2 0x4E7 JUMP JUMPDEST PUSH2 0xFC PUSH2 0xF7 CALLDATASIZE PUSH1 0x4 PUSH2 0x17B1 JUMP JUMPDEST PUSH2 0x4FA JUMP JUMPDEST STOP JUMPDEST PUSH2 0xC9 PUSH2 0x5A6 JUMP JUMPDEST PUSH2 0xFC PUSH2 0x114 CALLDATASIZE PUSH1 0x4 PUSH2 0x17B1 JUMP JUMPDEST PUSH2 0x5AC JUMP JUMPDEST PUSH2 0x12C PUSH2 0x127 CALLDATASIZE PUSH1 0x4 PUSH2 0x161E JUMP JUMPDEST PUSH2 0x5DB JUMP JUMPDEST PUSH1 0x40 MLOAD PUSH2 0xAD SWAP2 SWAP1 PUSH2 0x1979 JUMP JUMPDEST PUSH2 0xC9 PUSH2 0xA8F JUMP JUMPDEST PUSH1 0x0 DUP1 DUP3 MLOAD GT PUSH2 0x186 JUMPI PUSH1 0x40 MLOAD PUSH32 0x8C379A000000000000000000000000000000000000000000000000000000000 DUP2 MSTORE PUSH1 0x4 ADD PUSH2 0x17D SWAP1 PUSH2 0x1D7D JUMP JUMPDEST PUSH1 0x40 MLOAD DUP1 SWAP2 SUB SWAP1 REVERT JUMPDEST PUSH1 0x0 PUSH2 0x191 DUP4 PUSH2 0xA95 JUMP JUMPDEST PUSH1 0xF8 SHR SWAP1 POP PUSH1 0x4 DUP2 LT PUSH2 0x1D0 JUMPI PUSH1 0x40 MLOAD PUSH32 0x8C379A000000000000000000000000000000000000000000000000000000000 DUP2 MSTORE PUSH1 0x4 ADD PUSH2 0x17D SWAP1 PUSH2 0x1C7B JUMP JUMPDEST PUSH1 0x0 DUP2 PUSH1 0xFF AND PUSH1 0x4 DUP2 GT ISZERO PUSH2 0x1E1 JUMPI INVALID JUMPDEST SWAP1 POP PUSH1 0x0 DUP2 PUSH1 0x4 DUP2 GT ISZERO PUSH2 0x1F1 JUMPI INVALID JUMPDEST EQ ISZERO PUSH2 0x229 JUMPI PUSH1 0x40 MLOAD PUSH32 0x8C379A000000000000000000000000000000000000000000000000000000000 DUP2 MSTORE PUSH1 0x4 ADD PUSH2 0x17D SWAP1 PUSH2 0x1D46 JUMP JUMPDEST PUSH1 0x1 DUP2 PUSH1 0x4 DUP2 GT ISZERO PUSH2 0x237 JUMPI INVALID JUMPDEST EQ ISZERO PUSH2 0x2A8 JUMPI DUP4 MLOAD ISZERO PUSH2 0x276 JUMPI PUSH1 0x40 MLOAD PUSH32 0x8C379A000000000000000000000000000000000000000000000000000000000 DUP2 MSTORE PUSH1 0x4 ADD PUSH2 0x17D SWAP1 PUSH2 0x1E48 JUMP JUMPDEST PUSH1 0x40 MLOAD PUSH32 0x8C379A000000000000000000000000000000000000000000000000000000000 DUP2 MSTORE PUSH1 0x4 ADD PUSH2 0x17D SWAP1 PUSH2 0x1DB4 JUMP JUMPDEST PUSH1 0x2 DUP2 PUSH1 0x4 DUP2 GT ISZERO PUSH2 0x2B6 JUMPI INVALID JUMPDEST EQ ISZERO PUSH2 0x3BB JUMPI DUP4 MLOAD PUSH1 0x41 EQ PUSH2 0x2F7 JUMPI PUSH1 0x40 MLOAD PUSH32 0x8C379A000000000000000000000000000000000000000000000000000000000 DUP2 MSTORE PUSH1 0x4 ADD PUSH2 0x17D SWAP1 PUSH2 0x1AD4 JUMP JUMPDEST PUSH1 0x0 DUP5 PUSH1 0x0 DUP2 MLOAD DUP2 LT PUSH2 0x306 JUMPI INVALID JUMPDEST ADD PUSH1 0x20 ADD MLOAD PUSH1 0xF8 SWAP1 DUP2 SHR DUP2 SHL SWAP1 SHR SWAP1 POP PUSH1 0x0 PUSH2 0x329 DUP7 PUSH1 0x1 PUSH4 0xFFFFFFFF PUSH2 0xB18 AND JUMP JUMPDEST SWAP1 POP PUSH1 0x0 PUSH2 0x33E DUP8 PUSH1 0x21 PUSH4 0xFFFFFFFF PUSH2 0xB18 AND JUMP JUMPDEST SWAP1 POP PUSH1 0x1 DUP9 DUP5 DUP5 DUP5 PUSH1 0x40 MLOAD PUSH1 0x0 DUP2 MSTORE PUSH1 0x20 ADD PUSH1 0x40 MSTORE PUSH1 0x40 MLOAD PUSH2 0x363 SWAP5 SWAP4 SWAP3 SWAP2 SWAP1 PUSH2 0x1AB6 JUMP JUMPDEST PUSH1 0x20 PUSH1 0x40 MLOAD PUSH1 0x20 DUP2 SUB SWAP1 DUP1 DUP5 SUB SWAP1 DUP6 GAS STATICCALL ISZERO DUP1 ISZERO PUSH2 0x385 JUMPI RETURNDATASIZE PUSH1 0x0 DUP1 RETURNDATACOPY RETURNDATASIZE PUSH1 0x0 REVERT JUMPDEST POP POP PUSH1 0x40 MLOAD PUSH32 0xFFFFFFFFFFFFFFFFFFFFFFFFFFFFFFFFFFFFFFFFFFFFFFFFFFFFFFFFFFFFFFE0 ADD MLOAD SWAP7 POP PUSH2 0x4CE SWAP6 POP POP POP POP POP POP JUMP JUMPDEST PUSH1 0x3 DUP2 PUSH1 0x4 DUP2 GT ISZERO PUSH2 0x3C9 JUMPI INVALID JUMPDEST EQ ISZERO PUSH2 0x49C JUMPI DUP4 MLOAD PUSH1 0x41 EQ PUSH2 0x40A JUMPI PUSH1 0x40 MLOAD PUSH32 0x8C379A000000000000000000000000000000000000000000000000000000000 DUP2 MSTORE PUSH1 0x4 ADD PUSH2 0x17D SWAP1 PUSH2 0x1AD4 JUMP JUMPDEST PUSH1 0x0 DUP5 PUSH1 0x0 DUP2 MLOAD DUP2 LT PUSH2 0x419 JUMPI INVALID JUMPDEST ADD PUSH1 0x20 ADD MLOAD PUSH1 0xF8 SWAP1 DUP2 SHR DUP2 SHL SWAP1 SHR SWAP1 POP PUSH1 0x0 PUSH2 0x43C DUP7 PUSH1 0x1 PUSH4 0xFFFFFFFF PUSH2 0xB18 AND JUMP JUMPDEST SWAP1 POP PUSH1 0x0 PUSH2 0x451 DUP8 PUSH1 0x21 PUSH4 0xFFFFFFFF PUSH2 0xB18 AND JUMP JUMPDEST SWAP1 POP PUSH1 0x1 DUP9 PUSH1 0x40 MLOAD PUSH1 0x20 ADD PUSH2 0x466 SWAP2 SWAP1 PUSH2 0x1927 JUMP JUMPDEST PUSH1 0x40 MLOAD PUSH1 0x20 DUP2 DUP4 SUB SUB DUP2 MSTORE SWAP1 PUSH1 0x40 MSTORE DUP1 MLOAD SWAP1 PUSH1 0x20 ADD KECCAK256 DUP5 DUP5 DUP5 PUSH1 0x40 MLOAD PUSH1 0x0 DUP2 MSTORE PUSH1 0x20 ADD PUSH1 0x40 MSTORE PUSH1 0x40 MLOAD PUSH2 0x363 SWAP5 SWAP4 SWAP3 SWAP2 SWAP1 PUSH2 0x1AB6 JUMP JUMPDEST PUSH1 0x40 MLOAD PUSH32 0x8C379A000000000000000000000000000000000000000000000000000000000 DUP2 MSTORE PUSH1 0x4 ADD PUSH2 0x17D SWAP1 PUSH2 0x1C7B JUMP JUMPDEST SWAP3 SWAP2 POP POP JUMP JUMPDEST PUSH1 0x0 PUSH2 0x4CE PUSH2 0x4E2 DUP4 PUSH2 0xB61 JUMP JUMPDEST PUSH2 0xBCF JUMP JUMPDEST PUSH1 0x0 PUSH2 0x4CE PUSH2 0x4F5 DUP4 PUSH2 0xBDD JUMP JUMPDEST PUSH2 0xC3C JUMP JUMPDEST PUSH2 0x507 DUP6 DUP6 DUP6 DUP6 DUP6 PUSH2 0x5AC JUMP JUMPDEST PUSH1 0x0 SLOAD DUP6 MLOAD PUSH1 0x20 DUP8 ADD MLOAD PUSH1 0x40 DUP1 DUP10 ADD MLOAD SWAP1 MLOAD PUSH32 0xBFC8BFCE00000000000000000000000000000000000000000000000000000000 DUP2 MSTORE PUSH20 0xFFFFFFFFFFFFFFFFFFFFFFFFFFFFFFFFFFFFFFFF SWAP1 SWAP5 AND SWAP4 PUSH4 0xBFC8BFCE SWAP4 PUSH2 0x56D SWAP4 SWAP1 SWAP3 SWAP1 SWAP2 DUP10 SWAP1 PUSH1 0x4 ADD PUSH2 0x1E7F JUMP JUMPDEST PUSH1 0x0 PUSH1 0x40 MLOAD DUP1 DUP4 SUB DUP2 PUSH1 0x0 DUP8 DUP1 EXTCODESIZE ISZERO DUP1 ISZERO PUSH2 0x587 JUMPI PUSH1 0x0 DUP1 REVERT JUMPDEST POP GAS CALL ISZERO DUP1 ISZERO PUSH2 0x59B JUMPI RETURNDATASIZE PUSH1 0x0 DUP1 RETURNDATACOPY RETURNDATASIZE PUSH1 0x0 REVERT JUMPDEST POP POP POP POP POP POP POP POP POP JUMP JUMPDEST PUSH1 0x2 SLOAD DUP2 JUMP JUMPDEST PUSH1 0x60 PUSH2 0x5BB DUP7 PUSH1 0x40 ADD MLOAD PUSH2 0x5DB JUMP JUMPDEST DUP1 MLOAD SWAP1 SWAP2 POP ISZERO PUSH2 0x5D3 JUMPI PUSH2 0x5D3 DUP7 DUP3 DUP8 DUP8 DUP8 DUP8 PUSH2 0xC4A JUMP JUMPDEST POP POP POP POP POP POP JUMP JUMPDEST PUSH1 0x60 PUSH1 0x0 PUSH2 0x5EF DUP4 DUP3 PUSH4 0xFFFFFFFF PUSH2 0xE98 AND JUMP JUMPDEST SWAP1 POP PUSH32 0xFFFFFFFF00000000000000000000000000000000000000000000000000000000 DUP2 AND PUSH32 0xB4BE83D500000000000000000000000000000000000000000000000000000000 EQ DUP1 PUSH2 0x682 JUMPI POP PUSH32 0xFFFFFFFF00000000000000000000000000000000000000000000000000000000 DUP2 AND PUSH32 0x3E228BAE00000000000000000000000000000000000000000000000000000000 EQ JUMPDEST DUP1 PUSH2 0x6CE JUMPI POP PUSH32 0xFFFFFFFF00000000000000000000000000000000000000000000000000000000 DUP2 AND PUSH32 0x64A3BC1500000000000000000000000000000000000000000000000000000000 EQ JUMPDEST ISZERO PUSH2 0x757 JUMPI PUSH2 0x6DB PUSH2 0x11DB JUMP JUMPDEST DUP4 MLOAD PUSH2 0x6F1 SWAP1 DUP6 SWAP1 PUSH1 0x4 SWAP1 PUSH4 0xFFFFFFFF PUSH2 0xF03 AND JUMP JUMPDEST DUP1 PUSH1 0x20 ADD SWAP1 MLOAD PUSH2 0x704 SWAP2 SWAP1 DUP2 ADD SWAP1 PUSH2 0x16ED JUMP JUMPDEST PUSH1 0x40 DUP1 MLOAD PUSH1 0x1 DUP1 DUP3 MSTORE DUP2 DUP4 ADD SWAP1 SWAP3 MSTORE SWAP2 SWAP3 POP DUP2 PUSH1 0x20 ADD JUMPDEST PUSH2 0x723 PUSH2 0x11DB JUMP JUMPDEST DUP2 MSTORE PUSH1 0x20 ADD SWAP1 PUSH1 0x1 SWAP1 SUB SWAP1 DUP2 PUSH2 0x71B JUMPI SWAP1 POP POP SWAP3 POP DUP1 DUP4 PUSH1 0x0 DUP2 MLOAD DUP2 LT PUSH2 0x746 JUMPI INVALID JUMPDEST PUSH1 0x20 MUL PUSH1 0x20 ADD ADD DUP2 SWAP1 MSTORE POP POP PUSH2 0xA89 JUMP JUMPDEST PUSH32 0xFFFFFFFF00000000000000000000000000000000000000000000000000000000 DUP2 AND PUSH32 0x297BB70B00000000000000000000000000000000000000000000000000000000 EQ DUP1 PUSH2 0x7E8 JUMPI POP PUSH32 0xFFFFFFFF00000000000000000000000000000000000000000000000000000000 DUP2 AND PUSH32 0x50DDE19000000000000000000000000000000000000000000000000000000000 EQ JUMPDEST DUP1 PUSH2 0x834 JUMPI POP PUSH32 0xFFFFFFFF00000000000000000000000000000000000000000000000000000000 DUP2 AND PUSH32 0x4D0AE54600000000000000000000000000000000000000000000000000000000 EQ JUMPDEST DUP1 PUSH2 0x880 JUMPI POP PUSH32 0xFFFFFFFF00000000000000000000000000000000000000000000000000000000 DUP2 AND PUSH32 0xE5FA431B00000000000000000000000000000000000000000000000000000000 EQ JUMPDEST DUP1 PUSH2 0x8CC JUMPI POP PUSH32 0xFFFFFFFF00000000000000000000000000000000000000000000000000000000 DUP2 AND PUSH32 0xA3E2038000000000000000000000000000000000000000000000000000000000 EQ JUMPDEST DUP1 PUSH2 0x918 JUMPI POP PUSH32 0xFFFFFFFF00000000000000000000000000000000000000000000000000000000 DUP2 AND PUSH32 0x7E1D980800000000000000000000000000000000000000000000000000000000 EQ JUMPDEST DUP1 PUSH2 0x964 JUMPI POP PUSH32 0xFFFFFFFF00000000000000000000000000000000000000000000000000000000 DUP2 AND PUSH32 0xDD1C7D1800000000000000000000000000000000000000000000000000000000 EQ JUMPDEST ISZERO PUSH2 0x999 JUMPI DUP3 MLOAD PUSH2 0x97F SWAP1 DUP5 SWAP1 PUSH1 0x4 SWAP1 PUSH4 0xFFFFFFFF PUSH2 0xF03 AND JUMP JUMPDEST DUP1 PUSH1 0x20 ADD SWAP1 MLOAD PUSH2 0x992 SWAP2 SWAP1 DUP2 ADD SWAP1 PUSH2 0x154B JUMP JUMPDEST SWAP2 POP PUSH2 0xA89 JUMP JUMPDEST PUSH32 0xFFFFFFFF00000000000000000000000000000000000000000000000000000000 DUP2 AND PUSH32 0x3C28D86100000000000000000000000000000000000000000000000000000000 EQ ISZERO PUSH2 0xA89 JUMPI PUSH2 0x9EB PUSH2 0x11DB JUMP JUMPDEST PUSH2 0x9F3 PUSH2 0x11DB JUMP JUMPDEST DUP5 MLOAD PUSH2 0xA09 SWAP1 DUP7 SWAP1 PUSH1 0x4 SWAP1 PUSH4 0xFFFFFFFF PUSH2 0xF03 AND JUMP JUMPDEST DUP1 PUSH1 0x20 ADD SWAP1 MLOAD PUSH2 0xA1C SWAP2 SWAP1 DUP2 ADD SWAP1 PUSH2 0x1722 JUMP JUMPDEST PUSH1 0x40 DUP1 MLOAD PUSH1 0x2 DUP1 DUP3 MSTORE PUSH1 0x60 DUP3 ADD SWAP1 SWAP3 MSTORE SWAP3 SWAP5 POP SWAP1 SWAP3 POP DUP2 PUSH1 0x20 ADD JUMPDEST PUSH2 0xA3F PUSH2 0x11DB JUMP JUMPDEST DUP2 MSTORE PUSH1 0x20 ADD SWAP1 PUSH1 0x1 SWAP1 SUB SWAP1 DUP2 PUSH2 0xA37 JUMPI SWAP1 POP POP SWAP4 POP DUP2 DUP5 PUSH1 0x0 DUP2 MLOAD DUP2 LT PUSH2 0xA62 JUMPI INVALID JUMPDEST PUSH1 0x20 MUL PUSH1 0x20 ADD ADD DUP2 SWAP1 MSTORE POP DUP1 DUP5 PUSH1 0x1 DUP2 MLOAD DUP2 LT PUSH2 0xA7B JUMPI INVALID JUMPDEST PUSH1 0x20 MUL PUSH1 0x20 ADD ADD DUP2 SWAP1 MSTORE POP POP POP JUMPDEST POP SWAP2 SWAP1 POP JUMP JUMPDEST PUSH1 0x1 SLOAD DUP2 JUMP JUMPDEST PUSH1 0x0 DUP1 DUP3 MLOAD GT PUSH2 0xAD1 JUMPI PUSH1 0x40 MLOAD PUSH32 0x8C379A000000000000000000000000000000000000000000000000000000000 DUP2 MSTORE PUSH1 0x4 ADD PUSH2 0x17D SWAP1 PUSH2 0x1CE9 JUMP JUMPDEST DUP2 PUSH1 0x1 DUP4 MLOAD SUB DUP2 MLOAD DUP2 LT PUSH2 0xAE1 JUMPI INVALID JUMPDEST ADD PUSH1 0x20 ADD MLOAD DUP3 MLOAD PUSH32 0xFFFFFFFFFFFFFFFFFFFFFFFFFFFFFFFFFFFFFFFFFFFFFFFFFFFFFFFFFFFFFFFF ADD SWAP1 SWAP3 MSTORE POP PUSH1 0xF8 SWAP1 DUP2 SHR SWAP1 SHL SWAP1 JUMP JUMPDEST PUSH1 0x0 DUP2 PUSH1 0x20 ADD DUP4 MLOAD LT ISZERO PUSH2 0xB58 JUMPI PUSH1 0x40 MLOAD PUSH32 0x8C379A000000000000000000000000000000000000000000000000000000000 DUP2 MSTORE PUSH1 0x4 ADD PUSH2 0x17D SWAP1 PUSH2 0x1C1E JUMP JUMPDEST POP ADD PUSH1 0x20 ADD MLOAD SWAP1 JUMP JUMPDEST PUSH1 0x40 DUP2 DUP2 ADD MLOAD DUP3 MLOAD PUSH1 0x20 SWAP4 DUP5 ADD MLOAD DUP3 MLOAD SWAP3 DUP6 ADD SWAP3 SWAP1 SWAP3 KECCAK256 DUP4 MLOAD PUSH32 0x213C6F636F3EA94E701C0ADF9B2624AA45A6C694F9A292C094F9A81C24B5DF4C DUP2 MSTORE SWAP5 DUP6 ADD SWAP2 SWAP1 SWAP2 MSTORE PUSH20 0xFFFFFFFFFFFFFFFFFFFFFFFFFFFFFFFFFFFFFFFF SWAP1 SWAP2 AND SWAP2 DUP4 ADD SWAP2 SWAP1 SWAP2 MSTORE PUSH1 0x60 DUP3 ADD MSTORE PUSH1 0x80 SWAP1 KECCAK256 SWAP1 JUMP JUMPDEST PUSH1 0x0 PUSH2 0x4CE PUSH1 0x2 SLOAD DUP4 PUSH2 0xFCF JUMP JUMPDEST PUSH1 0x40 DUP1 DUP3 ADD MLOAD DUP3 MLOAD PUSH1 0x20 DUP1 DUP6 ADD MLOAD PUSH1 0x60 DUP7 DUP2 ADD MLOAD DUP6 MLOAD SWAP6 DUP5 ADD SWAP6 SWAP1 SWAP6 KECCAK256 DUP7 MLOAD PUSH32 0x2FBCDBAA76BC7589916958AE919DFBEF04D23F6BBF26DE6FF317B32C6CC01E05 DUP2 MSTORE SWAP4 DUP5 ADD SWAP5 SWAP1 SWAP5 MSTORE SWAP5 DUP3 ADD MSTORE SWAP3 DUP4 ADD MSTORE PUSH1 0x80 DUP3 ADD MSTORE PUSH1 0xA0 SWAP1 KECCAK256 SWAP2 SWAP1 POP JUMP JUMPDEST PUSH1 0x0 PUSH2 0x4CE PUSH1 0x1 SLOAD DUP4 PUSH2 0xFCF JUMP JUMPDEST ORIGIN PUSH20 0xFFFFFFFFFFFFFFFFFFFFFFFFFFFFFFFFFFFFFFFF DUP6 AND EQ PUSH2 0xC99 JUMPI PUSH1 0x40 MLOAD PUSH32 0x8C379A000000000000000000000000000000000000000000000000000000000 DUP2 MSTORE PUSH1 0x4 ADD PUSH2 0x17D SWAP1 PUSH2 0x1CB2 JUMP JUMPDEST PUSH1 0x0 PUSH2 0xCA4 DUP8 PUSH2 0x4D4 JUMP JUMPDEST PUSH1 0x40 DUP1 MLOAD PUSH1 0x0 DUP1 DUP3 MSTORE PUSH1 0x20 DUP3 ADD SWAP1 SWAP3 MSTORE DUP5 MLOAD SWAP3 SWAP4 POP SWAP2 SWAP1 JUMPDEST DUP2 DUP2 EQ PUSH2 0xDA5 JUMPI PUSH1 0x0 DUP7 DUP3 DUP2 MLOAD DUP2 LT PUSH2 0xCD1 JUMPI INVALID JUMPDEST PUSH1 0x20 MUL PUSH1 0x20 ADD ADD MLOAD SWAP1 POP PUSH2 0xCE3 PUSH2 0x1294 JUMP JUMPDEST PUSH1 0x40 MLOAD DUP1 PUSH1 0x80 ADD PUSH1 0x40 MSTORE DUP1 DUP12 PUSH20 0xFFFFFFFFFFFFFFFFFFFFFFFFFFFFFFFFFFFFFFFF AND DUP2 MSTORE PUSH1 0x20 ADD DUP8 DUP2 MSTORE PUSH1 0x20 ADD DUP11 DUP2 MSTORE PUSH1 0x20 ADD DUP4 DUP2 MSTORE POP SWAP1 POP TIMESTAMP DUP3 GT PUSH2 0xD55 JUMPI PUSH1 0x40 MLOAD PUSH32 0x8C379A000000000000000000000000000000000000000000000000000000000 DUP2 MSTORE PUSH1 0x4 ADD PUSH2 0x17D SWAP1 PUSH2 0x1BE7 JUMP JUMPDEST PUSH1 0x0 PUSH2 0xD60 DUP3 PUSH2 0x4E7 JUMP JUMPDEST SWAP1 POP PUSH1 0x0 PUSH2 0xD81 DUP3 DUP11 DUP8 DUP2 MLOAD DUP2 LT PUSH2 0xD74 JUMPI INVALID JUMPDEST PUSH1 0x20 MUL PUSH1 0x20 ADD ADD MLOAD PUSH2 0x141 JUMP JUMPDEST SWAP1 POP PUSH2 0xD93 DUP8 DUP3 PUSH4 0xFFFFFFFF PUSH2 0x1009 AND JUMP JUMPDEST SWAP7 POP POP PUSH1 0x1 SWAP1 SWAP4 ADD SWAP3 POP PUSH2 0xCBC SWAP2 POP POP JUMP JUMPDEST POP PUSH2 0xDB6 DUP3 ORIGIN PUSH4 0xFFFFFFFF PUSH2 0x1009 AND JUMP JUMPDEST DUP9 MLOAD SWAP1 SWAP3 POP PUSH1 0x0 JUMPDEST DUP2 DUP2 EQ PUSH2 0xE8B JUMPI PUSH1 0x0 PUSH20 0xFFFFFFFFFFFFFFFFFFFFFFFFFFFFFFFFFFFFFFFF AND DUP11 DUP3 DUP2 MLOAD DUP2 LT PUSH2 0xDE9 JUMPI INVALID JUMPDEST PUSH1 0x20 MUL PUSH1 0x20 ADD ADD MLOAD PUSH1 0x60 ADD MLOAD PUSH20 0xFFFFFFFFFFFFFFFFFFFFFFFFFFFFFFFFFFFFFFFF AND EQ ISZERO PUSH2 0xE16 JUMPI PUSH2 0xE83 JUMP JUMPDEST PUSH1 0x0 DUP11 DUP3 DUP2 MLOAD DUP2 LT PUSH2 0xE24 JUMPI INVALID JUMPDEST PUSH1 0x20 MUL PUSH1 0x20 ADD ADD MLOAD PUSH1 0x40 ADD MLOAD SWAP1 POP PUSH1 0x0 PUSH2 0xE47 DUP3 DUP8 PUSH2 0x10D0 SWAP1 SWAP2 SWAP1 PUSH4 0xFFFFFFFF AND JUMP JUMPDEST SWAP1 POP DUP1 PUSH2 0xE80 JUMPI PUSH1 0x40 MLOAD PUSH32 0x8C379A000000000000000000000000000000000000000000000000000000000 DUP2 MSTORE PUSH1 0x4 ADD PUSH2 0x17D SWAP1 PUSH2 0x1B0B JUMP JUMPDEST POP POP JUMPDEST PUSH1 0x1 ADD PUSH2 0xDBE JUMP JUMPDEST POP POP POP POP POP POP POP POP POP POP POP JUMP JUMPDEST PUSH1 0x0 DUP2 PUSH1 0x4 ADD DUP4 MLOAD LT ISZERO PUSH2 0xED8 JUMPI PUSH1 0x40 MLOAD PUSH32 0x8C379A000000000000000000000000000000000000000000000000000000000 DUP2 MSTORE PUSH1 0x4 ADD PUSH2 0x17D SWAP1 PUSH2 0x1DEB JUMP JUMPDEST POP ADD PUSH1 0x20 ADD MLOAD PUSH32 0xFFFFFFFF00000000000000000000000000000000000000000000000000000000 AND SWAP1 JUMP JUMPDEST PUSH1 0x60 DUP2 DUP4 GT ISZERO PUSH2 0xF3F JUMPI PUSH1 0x40 MLOAD PUSH32 0x8C379A000000000000000000000000000000000000000000000000000000000 DUP2 MSTORE PUSH1 0x4 ADD PUSH2 0x17D SWAP1 PUSH2 0x1B42 JUMP JUMPDEST DUP4 MLOAD DUP3 GT ISZERO PUSH2 0xF7A JUMPI PUSH1 0x40 MLOAD PUSH32 0x8C379A000000000000000000000000000000000000000000000000000000000 DUP2 MSTORE PUSH1 0x4 ADD PUSH2 0x17D SWAP1 PUSH2 0x1B79 JUMP JUMPDEST DUP3 DUP3 SUB PUSH1 0x40 MLOAD SWAP1 DUP1 DUP3 MSTORE DUP1 PUSH1 0x1F ADD PUSH1 0x1F NOT AND PUSH1 0x20 ADD DUP3 ADD PUSH1 0x40 MSTORE DUP1 ISZERO PUSH2 0xFA7 JUMPI PUSH1 0x20 DUP3 ADD DUP2 DUP1 CODESIZE DUP4 CODECOPY ADD SWAP1 POP JUMPDEST POP SWAP1 POP PUSH2 0xFC8 PUSH2 0xFB6 DUP3 PUSH2 0x1111 JUMP JUMPDEST DUP5 PUSH2 0xFC0 DUP8 PUSH2 0x1111 JUMP JUMPDEST ADD DUP4 MLOAD PUSH2 0x1117 JUMP JUMPDEST SWAP4 SWAP3 POP POP POP JUMP JUMPDEST PUSH1 0x40 MLOAD PUSH32 0x1901000000000000000000000000000000000000000000000000000000000000 DUP2 MSTORE PUSH1 0x2 DUP2 ADD SWAP3 SWAP1 SWAP3 MSTORE PUSH1 0x22 DUP3 ADD MSTORE PUSH1 0x42 SWAP1 KECCAK256 SWAP1 JUMP JUMPDEST DUP2 MLOAD PUSH1 0x40 MLOAD PUSH1 0x60 SWAP2 DUP5 SWAP1 PUSH1 0x20 DUP1 DUP3 MUL DUP1 DUP5 ADD DUP3 ADD SWAP3 SWAP2 ADD DUP3 DUP6 LT ISZERO PUSH2 0x105A JUMPI PUSH1 0x40 MLOAD PUSH32 0x8C379A000000000000000000000000000000000000000000000000000000000 DUP2 MSTORE PUSH1 0x4 ADD PUSH2 0x17D SWAP1 PUSH2 0x1BB0 JUMP JUMPDEST DUP3 DUP6 GT ISZERO PUSH2 0x1074 JUMPI PUSH2 0x106D DUP6 DUP6 DUP4 PUSH2 0x1117 JUMP JUMPDEST DUP5 SWAP8 POP DUP8 SWAP4 POP JUMPDEST PUSH1 0x1 DUP3 ADD SWAP2 POP PUSH1 0x20 DUP2 ADD SWAP1 POP DUP1 DUP5 ADD SWAP3 POP DUP3 SWAP5 POP DUP2 DUP9 MSTORE DUP5 PUSH1 0x40 MSTORE DUP7 DUP9 PUSH1 0x1 DUP5 SUB DUP2 MLOAD DUP2 LT PUSH2 0x109F JUMPI INVALID JUMPDEST PUSH20 0xFFFFFFFFFFFFFFFFFFFFFFFFFFFFFFFFFFFFFFFF SWAP1 SWAP3 AND PUSH1 0x20 SWAP3 DUP4 MUL SWAP2 SWAP1 SWAP2 ADD SWAP1 SWAP2 ADD MSTORE POP SWAP6 SWAP7 SWAP6 POP POP POP POP POP POP JUMP JUMPDEST PUSH1 0x0 PUSH1 0x20 DUP4 MLOAD MUL PUSH1 0x20 DUP5 ADD DUP2 DUP2 ADD DUP2 SWAP3 POP JUMPDEST DUP1 DUP4 LT ISZERO PUSH2 0x1108 JUMPI DUP3 MLOAD DUP1 DUP7 EQ ISZERO PUSH2 0x10FC JUMPI PUSH1 0x1 SWAP5 POP DUP2 SWAP4 POP JUMPDEST POP PUSH1 0x20 DUP4 ADD SWAP3 POP PUSH2 0x10E2 JUMP JUMPDEST POP POP POP SWAP3 SWAP2 POP POP JUMP JUMPDEST PUSH1 0x20 ADD SWAP1 JUMP JUMPDEST PUSH1 0x20 DUP2 LT ISZERO PUSH2 0x1141 JUMPI PUSH1 0x1 DUP2 PUSH1 0x20 SUB PUSH2 0x100 EXP SUB DUP1 NOT DUP4 MLOAD AND DUP2 DUP6 MLOAD AND DUP1 DUP3 OR DUP7 MSTORE POP POP POP PUSH2 0x11D6 JUMP JUMPDEST DUP3 DUP3 EQ ISZERO PUSH2 0x114E JUMPI PUSH2 0x11D6 JUMP JUMPDEST DUP3 DUP3 GT ISZERO PUSH2 0x1188 JUMPI PUSH1 0x20 DUP2 SUB SWAP1 POP DUP1 DUP3 ADD DUP2 DUP5 ADD DUP2 MLOAD JUMPDEST DUP3 DUP6 LT ISZERO PUSH2 0x1180 JUMPI DUP5 MLOAD DUP7 MSTORE PUSH1 0x20 SWAP6 DUP7 ADD SWAP6 SWAP1 SWAP5 ADD SWAP4 PUSH2 0x1165 JUMP JUMPDEST SWAP1 MSTORE POP PUSH2 0x11D6 JUMP JUMPDEST PUSH1 0x20 DUP2 SUB SWAP1 POP DUP1 DUP3 ADD DUP2 DUP5 ADD DUP4 MLOAD JUMPDEST DUP2 DUP7 SLT ISZERO PUSH2 0x11D1 JUMPI DUP3 MLOAD DUP3 MSTORE PUSH32 0xFFFFFFFFFFFFFFFFFFFFFFFFFFFFFFFFFFFFFFFFFFFFFFFFFFFFFFFFFFFFFFE0 SWAP3 DUP4 ADD SWAP3 SWAP1 SWAP2 ADD SWAP1 PUSH2 0x1197 JUMP JUMPDEST DUP6 MSTORE POP POP JUMPDEST POP POP POP JUMP JUMPDEST PUSH1 0x40 MLOAD DUP1 PUSH2 0x180 ADD PUSH1 0x40 MSTORE DUP1 PUSH1 0x0 PUSH20 0xFFFFFFFFFFFFFFFFFFFFFFFFFFFFFFFFFFFFFFFF AND DUP2 MSTORE PUSH1 0x20 ADD PUSH1 0x0 PUSH20 0xFFFFFFFFFFFFFFFFFFFFFFFFFFFFFFFFFFFFFFFF AND DUP2 MSTORE PUSH1 0x20 ADD PUSH1 0x0 PUSH20 0xFFFFFFFFFFFFFFFFFFFFFFFFFFFFFFFFFFFFFFFF AND DUP2 MSTORE PUSH1 0x20 ADD PUSH1 0x0 PUSH20 0xFFFFFFFFFFFFFFFFFFFFFFFFFFFFFFFFFFFFFFFF AND DUP2 MSTORE PUSH1 0x20 ADD PUSH1 0x0 DUP2 MSTORE PUSH1 0x20 ADD PUSH1 0x0 DUP2 MSTORE PUSH1 0x20 ADD PUSH1 0x0 DUP2 MSTORE PUSH1 0x20 ADD PUSH1 0x0 DUP2 MSTORE PUSH1 0x20 ADD PUSH1 0x0 DUP2 MSTORE PUSH1 0x20 ADD PUSH1 0x0 DUP2 MSTORE PUSH1 0x20 ADD PUSH1 0x60 DUP2 MSTORE PUSH1 0x20 ADD PUSH1 0x60 DUP2 MSTORE POP SWAP1 JUMP JUMPDEST PUSH1 0x40 MLOAD DUP1 PUSH1 0x80 ADD PUSH1 0x40 MSTORE DUP1 PUSH1 0x0 PUSH20 0xFFFFFFFFFFFFFFFFFFFFFFFFFFFFFFFFFFFFFFFF AND DUP2 MSTORE PUSH1 0x20 ADD PUSH1 0x0 DUP1 NOT AND DUP2 MSTORE PUSH1 0x20 ADD PUSH1 0x60 DUP2 MSTORE PUSH1 0x20 ADD PUSH1 0x0 DUP2 MSTORE POP SWAP1 JUMP JUMPDEST DUP1 MLOAD PUSH2 0x4CE DUP2 PUSH2 0x1F8C JUMP JUMPDEST PUSH1 0x0 DUP3 PUSH1 0x1F DUP4 ADD SLT PUSH2 0x12F0 JUMPI DUP1 DUP2 REVERT JUMPDEST DUP2 CALLDATALOAD PUSH2 0x1303 PUSH2 0x12FE DUP3 PUSH2 0x1EF8 JUMP JUMPDEST PUSH2 0x1ED1 JUMP JUMPDEST DUP2 DUP2 MSTORE SWAP2 POP PUSH1 0x20 DUP1 DUP4 ADD SWAP1 DUP5 ADD PUSH1 0x0 JUMPDEST DUP4 DUP2 LT ISZERO PUSH2 0x1340 JUMPI PUSH2 0x132B DUP8 PUSH1 0x20 DUP5 CALLDATALOAD DUP10 ADD ADD PUSH2 0x134A JUMP JUMPDEST DUP4 MSTORE PUSH1 0x20 SWAP3 DUP4 ADD SWAP3 SWAP2 SWAP1 SWAP2 ADD SWAP1 PUSH1 0x1 ADD PUSH2 0x1313 JUMP JUMPDEST POP POP POP POP SWAP3 SWAP2 POP POP JUMP JUMPDEST PUSH1 0x0 DUP3 PUSH1 0x1F DUP4 ADD SLT PUSH2 0x135A JUMPI DUP1 DUP2 REVERT JUMPDEST DUP2 CALLDATALOAD PUSH2 0x1368 PUSH2 0x12FE DUP3 PUSH2 0x1F19 JUMP JUMPDEST SWAP2 POP DUP1 DUP3 MSTORE DUP4 PUSH1 0x20 DUP3 DUP6 ADD ADD GT ISZERO PUSH2 0x137F JUMPI PUSH1 0x0 DUP1 REVERT JUMPDEST DUP1 PUSH1 0x20 DUP5 ADD PUSH1 0x20 DUP5 ADD CALLDATACOPY PUSH1 0x0 SWAP1 DUP3 ADD PUSH1 0x20 ADD MSTORE SWAP3 SWAP2 POP POP JUMP JUMPDEST PUSH1 0x0 DUP3 PUSH1 0x1F DUP4 ADD SLT PUSH2 0x13A9 JUMPI PUSH1 0x0 DUP1 REVERT JUMPDEST DUP2 MLOAD PUSH2 0x13B7 PUSH2 0x12FE DUP3 PUSH2 0x1F19 JUMP JUMPDEST SWAP2 POP DUP1 DUP3 MSTORE DUP4 PUSH1 0x20 DUP3 DUP6 ADD ADD GT ISZERO PUSH2 0x13CE JUMPI PUSH1 0x0 DUP1 REVERT JUMPDEST PUSH2 0x13DF DUP2 PUSH1 0x20 DUP5 ADD PUSH1 0x20 DUP7 ADD PUSH2 0x1F5C JUMP JUMPDEST POP SWAP3 SWAP2 POP POP JUMP JUMPDEST PUSH1 0x0 PUSH2 0x180 DUP1 DUP4 DUP6 SUB SLT ISZERO PUSH2 0x13F9 JUMPI DUP2 DUP3 REVERT JUMPDEST PUSH2 0x1402 DUP2 PUSH2 0x1ED1 JUMP JUMPDEST SWAP2 POP POP PUSH2 0x140F DUP4 DUP4 PUSH2 0x12D5 JUMP JUMPDEST DUP2 MSTORE PUSH2 0x141E DUP4 PUSH1 0x20 DUP5 ADD PUSH2 0x12D5 JUMP JUMPDEST PUSH1 0x20 DUP3 ADD MSTORE PUSH2 0x1430 DUP4 PUSH1 0x40 DUP5 ADD PUSH2 0x12D5 JUMP JUMPDEST PUSH1 0x40 DUP3 ADD MSTORE PUSH2 0x1442 DUP4 PUSH1 0x60 DUP5 ADD PUSH2 0x12D5 JUMP JUMPDEST PUSH1 0x60 DUP3 ADD MSTORE PUSH1 0x80 DUP3 ADD MLOAD PUSH1 0x80 DUP3 ADD MSTORE PUSH1 0xA0 DUP3 ADD MLOAD PUSH1 0xA0 DUP3 ADD MSTORE PUSH1 0xC0 DUP3 ADD MLOAD PUSH1 0xC0 DUP3 ADD MSTORE PUSH1 0xE0 DUP3 ADD MLOAD PUSH1 0xE0 DUP3 ADD MSTORE PUSH2 0x100 DUP1 DUP4 ADD MLOAD DUP2 DUP4 ADD MSTORE POP PUSH2 0x120 DUP1 DUP4 ADD MLOAD DUP2 DUP4 ADD MSTORE POP PUSH2 0x140 DUP1 DUP4 ADD MLOAD PUSH8 0xFFFFFFFFFFFFFFFF DUP1 DUP3 GT ISZERO PUSH2 0x14A4 JUMPI PUSH1 0x0 DUP1 REVERT JUMPDEST PUSH2 0x14B0 DUP7 DUP4 DUP8 ADD PUSH2 0x1398 JUMP JUMPDEST DUP4 DUP6 ADD MSTORE PUSH2 0x160 SWAP3 POP DUP3 DUP6 ADD MLOAD SWAP2 POP DUP1 DUP3 GT ISZERO PUSH2 0x14CC JUMPI PUSH1 0x0 DUP1 REVERT JUMPDEST POP PUSH2 0x14D9 DUP6 DUP3 DUP7 ADD PUSH2 0x1398 JUMP JUMPDEST DUP3 DUP5 ADD MSTORE POP POP SWAP3 SWAP2 POP POP JUMP JUMPDEST PUSH1 0x0 PUSH1 0x60 DUP3 DUP5 SUB SLT ISZERO PUSH2 0x14F6 JUMPI DUP1 DUP2 REVERT JUMPDEST PUSH2 0x1500 PUSH1 0x60 PUSH2 0x1ED1 JUMP JUMPDEST SWAP1 POP DUP2 CALLDATALOAD DUP2 MSTORE PUSH1 0x20 DUP3 ADD CALLDATALOAD PUSH2 0x1514 DUP2 PUSH2 0x1F8C JUMP JUMPDEST PUSH1 0x20 DUP3 ADD MSTORE PUSH1 0x40 DUP3 ADD CALLDATALOAD PUSH8 0xFFFFFFFFFFFFFFFF DUP2 GT ISZERO PUSH2 0x1533 JUMPI PUSH1 0x0 DUP1 REVERT JUMPDEST PUSH2 0x153F DUP5 DUP3 DUP6 ADD PUSH2 0x134A JUMP JUMPDEST PUSH1 0x40 DUP4 ADD MSTORE POP SWAP3 SWAP2 POP POP JUMP JUMPDEST PUSH1 0x0 PUSH1 0x20 DUP1 DUP4 DUP6 SUB SLT ISZERO PUSH2 0x155D JUMPI DUP2 DUP3 REVERT JUMPDEST DUP3 MLOAD PUSH8 0xFFFFFFFFFFFFFFFF DUP2 GT ISZERO PUSH2 0x1573 JUMPI DUP3 DUP4 REVERT JUMPDEST DUP1 DUP5 ADD DUP6 PUSH1 0x1F DUP3 ADD SLT PUSH2 0x1584 JUMPI DUP4 DUP5 REVERT JUMPDEST DUP1 MLOAD SWAP2 POP PUSH2 0x1594 PUSH2 0x12FE DUP4 PUSH2 0x1EF8 JUMP JUMPDEST DUP3 DUP2 MSTORE DUP4 DUP2 ADD SWAP1 DUP3 DUP6 ADD DUP7 JUMPDEST DUP6 DUP2 LT ISZERO PUSH2 0x15C9 JUMPI PUSH2 0x15B7 DUP11 DUP9 DUP5 MLOAD DUP9 ADD ADD PUSH2 0x13E6 JUMP JUMPDEST DUP5 MSTORE SWAP3 DUP7 ADD SWAP3 SWAP1 DUP7 ADD SWAP1 PUSH1 0x1 ADD PUSH2 0x15A0 JUMP JUMPDEST POP SWAP1 SWAP9 SWAP8 POP POP POP POP POP POP POP POP JUMP JUMPDEST PUSH1 0x0 DUP1 PUSH1 0x40 DUP4 DUP6 SUB SLT ISZERO PUSH2 0x15EA JUMPI PUSH1 0x0 DUP1 REVERT JUMPDEST DUP3 CALLDATALOAD SWAP2 POP PUSH1 0x20 DUP4 ADD CALLDATALOAD PUSH8 0xFFFFFFFFFFFFFFFF DUP2 GT ISZERO PUSH2 0x1608 JUMPI PUSH1 0x0 DUP1 REVERT JUMPDEST PUSH2 0x1614 DUP6 DUP3 DUP7 ADD PUSH2 0x134A JUMP JUMPDEST SWAP2 POP POP SWAP3 POP SWAP3 SWAP1 POP JUMP JUMPDEST PUSH1 0x0 PUSH1 0x20 DUP3 DUP5 SUB SLT ISZERO PUSH2 0x1630 JUMPI PUSH1 0x0 DUP1 REVERT JUMPDEST DUP2 CALLDATALOAD PUSH8 0xFFFFFFFFFFFFFFFF DUP2 GT ISZERO PUSH2 0x1647 JUMPI PUSH1 0x0 DUP1 REVERT JUMPDEST PUSH2 0x1653 DUP5 DUP3 DUP6 ADD PUSH2 0x134A JUMP JUMPDEST SWAP5 SWAP4 POP POP POP POP JUMP JUMPDEST PUSH1 0x0 PUSH1 0x20 DUP3 DUP5 SUB SLT ISZERO PUSH2 0x166C JUMPI DUP1 DUP2 REVERT JUMPDEST DUP2 CALLDATALOAD PUSH8 0xFFFFFFFFFFFFFFFF DUP1 DUP3 GT ISZERO PUSH2 0x1683 JUMPI DUP3 DUP4 REVERT JUMPDEST DUP2 DUP5 ADD PUSH1 0x80 DUP2 DUP8 SUB SLT ISZERO PUSH2 0x1695 JUMPI DUP4 DUP5 REVERT JUMPDEST PUSH2 0x169F PUSH1 0x80 PUSH2 0x1ED1 JUMP JUMPDEST SWAP3 POP DUP1 CALLDATALOAD PUSH2 0x16AC DUP2 PUSH2 0x1F8C JUMP JUMPDEST DUP4 MSTORE PUSH1 0x20 DUP2 DUP2 ADD CALLDATALOAD SWAP1 DUP5 ADD MSTORE PUSH1 0x40 DUP2 ADD CALLDATALOAD DUP3 DUP2 GT ISZERO PUSH2 0x16C9 JUMPI DUP5 DUP6 REVERT JUMPDEST PUSH2 0x16D5 DUP8 DUP3 DUP5 ADD PUSH2 0x134A JUMP JUMPDEST PUSH1 0x40 DUP6 ADD MSTORE POP PUSH1 0x60 SWAP1 DUP2 ADD CALLDATALOAD SWAP1 DUP4 ADD MSTORE POP SWAP4 SWAP3 POP POP POP JUMP JUMPDEST PUSH1 0x0 PUSH1 0x20 DUP3 DUP5 SUB SLT ISZERO PUSH2 0x16FF JUMPI PUSH1 0x0 DUP1 REVERT JUMPDEST DUP2 MLOAD PUSH8 0xFFFFFFFFFFFFFFFF DUP2 GT ISZERO PUSH2 0x1716 JUMPI PUSH1 0x0 DUP1 REVERT JUMPDEST PUSH2 0x1653 DUP5 DUP3 DUP6 ADD PUSH2 0x13E6 JUMP JUMPDEST PUSH1 0x0 DUP1 PUSH1 0x40 DUP4 DUP6 SUB SLT ISZERO PUSH2 0x1735 JUMPI PUSH1 0x0 DUP1 REVERT JUMPDEST DUP3 MLOAD PUSH8 0xFFFFFFFFFFFFFFFF DUP1 DUP3 GT ISZERO PUSH2 0x174D JUMPI PUSH1 0x0 DUP1 REVERT JUMPDEST PUSH2 0x1759 DUP7 DUP4 DUP8 ADD PUSH2 0x13E6 JUMP JUMPDEST SWAP4 POP PUSH1 0x20 DUP6 ADD MLOAD SWAP2 POP DUP1 DUP3 GT ISZERO PUSH2 0x176F JUMPI PUSH1 0x0 DUP1 REVERT JUMPDEST POP PUSH2 0x1614 DUP6 DUP3 DUP7 ADD PUSH2 0x13E6 JUMP JUMPDEST PUSH1 0x0 PUSH1 0x20 DUP3 DUP5 SUB SLT ISZERO PUSH2 0x178E JUMPI PUSH1 0x0 DUP1 REVERT JUMPDEST DUP2 CALLDATALOAD PUSH8 0xFFFFFFFFFFFFFFFF DUP2 GT ISZERO PUSH2 0x17A5 JUMPI PUSH1 0x0 DUP1 REVERT JUMPDEST PUSH2 0x1653 DUP5 DUP3 DUP6 ADD PUSH2 0x14E5 JUMP JUMPDEST PUSH1 0x0 DUP1 PUSH1 0x0 DUP1 PUSH1 0x0 PUSH1 0xA0 DUP7 DUP9 SUB SLT ISZERO PUSH2 0x17C8 JUMPI DUP1 DUP2 REVERT JUMPDEST DUP6 CALLDATALOAD PUSH8 0xFFFFFFFFFFFFFFFF DUP1 DUP3 GT ISZERO PUSH2 0x17DF JUMPI DUP3 DUP4 REVERT JUMPDEST PUSH2 0x17EB DUP10 DUP4 DUP11 ADD PUSH2 0x14E5 JUMP JUMPDEST SWAP7 POP PUSH1 0x20 SWAP2 POP DUP2 DUP9 ADD CALLDATALOAD PUSH2 0x17FE DUP2 PUSH2 0x1F8C JUMP JUMPDEST SWAP6 POP PUSH1 0x40 DUP9 ADD CALLDATALOAD DUP2 DUP2 GT ISZERO PUSH2 0x1811 JUMPI DUP4 DUP5 REVERT JUMPDEST PUSH2 0x181D DUP11 DUP3 DUP12 ADD PUSH2 0x134A JUMP JUMPDEST SWAP6 POP POP PUSH1 0x60 DUP9 ADD CALLDATALOAD DUP2 DUP2 GT ISZERO PUSH2 0x1831 JUMPI DUP4 DUP5 REVERT JUMPDEST DUP1 DUP10 ADD DUP11 PUSH1 0x1F DUP3 ADD SLT PUSH2 0x1842 JUMPI DUP5 DUP6 REVERT JUMPDEST DUP1 CALLDATALOAD SWAP2 POP PUSH2 0x1852 PUSH2 0x12FE DUP4 PUSH2 0x1EF8 JUMP JUMPDEST DUP3 DUP2 MSTORE DUP5 DUP2 ADD SWAP1 DUP3 DUP7 ADD DUP7 DUP6 MUL DUP5 ADD DUP8 ADD DUP15 LT ISZERO PUSH2 0x186E JUMPI DUP8 DUP9 REVERT JUMPDEST DUP8 SWAP4 POP JUMPDEST DUP5 DUP5 LT ISZERO PUSH2 0x1890 JUMPI DUP1 CALLDATALOAD DUP4 MSTORE PUSH1 0x1 SWAP4 SWAP1 SWAP4 ADD SWAP3 SWAP2 DUP7 ADD SWAP2 DUP7 ADD PUSH2 0x1872 JUMP JUMPDEST POP SWAP7 POP POP POP POP PUSH1 0x80 DUP9 ADD CALLDATALOAD SWAP2 POP DUP1 DUP3 GT ISZERO PUSH2 0x18A9 JUMPI DUP3 DUP4 REVERT JUMPDEST POP PUSH2 0x18B6 DUP9 DUP3 DUP10 ADD PUSH2 0x12E0 JUMP JUMPDEST SWAP2 POP POP SWAP3 SWAP6 POP SWAP3 SWAP6 SWAP1 SWAP4 POP JUMP JUMPDEST PUSH20 0xFFFFFFFFFFFFFFFFFFFFFFFFFFFFFFFFFFFFFFFF AND SWAP1 MSTORE JUMP JUMPDEST PUSH1 0x0 DUP2 MLOAD DUP1 DUP5 MSTORE PUSH2 0x18F5 DUP2 PUSH1 0x20 DUP7 ADD PUSH1 0x20 DUP7 ADD PUSH2 0x1F5C JUMP JUMPDEST PUSH1 0x1F ADD PUSH32 0xFFFFFFFFFFFFFFFFFFFFFFFFFFFFFFFFFFFFFFFFFFFFFFFFFFFFFFFFFFFFFFE0 AND SWAP3 SWAP1 SWAP3 ADD PUSH1 0x20 ADD SWAP3 SWAP2 POP POP JUMP JUMPDEST PUSH32 0x19457468657265756D205369676E6564204D6573736167653A0A333200000000 DUP2 MSTORE PUSH1 0x1C DUP2 ADD SWAP2 SWAP1 SWAP2 MSTORE PUSH1 0x3C ADD SWAP1 JUMP JUMPDEST PUSH20 0xFFFFFFFFFFFFFFFFFFFFFFFFFFFFFFFFFFFFFFFF SWAP2 SWAP1 SWAP2 AND DUP2 MSTORE PUSH1 0x20 ADD SWAP1 JUMP JUMPDEST PUSH1 0x0 PUSH1 0x20 DUP1 DUP4 ADD DUP2 DUP5 MSTORE DUP1 DUP6 MLOAD DUP1 DUP4 MSTORE PUSH1 0x40 DUP7 ADD SWAP2 POP PUSH1 0x40 DUP5 DUP3 MUL DUP8 ADD ADD SWAP3 POP DUP4 DUP8 ADD PUSH1 0x0 JUMPDEST DUP3 DUP2 LT ISZERO PUSH2 0x1AA0 JUMPI PUSH32 0xFFFFFFFFFFFFFFFFFFFFFFFFFFFFFFFFFFFFFFFFFFFFFFFFFFFFFFFFFFFFFFC0 DUP9 DUP7 SUB ADD DUP5 MSTORE DUP2 MLOAD PUSH2 0x180 PUSH2 0x19DE DUP8 DUP4 MLOAD PUSH2 0x18C3 JUMP JUMPDEST DUP8 DUP3 ADD MLOAD PUSH2 0x19EE DUP10 DUP10 ADD DUP3 PUSH2 0x18C3 JUMP JUMPDEST POP PUSH1 0x40 DUP3 ADD MLOAD PUSH2 0x1A01 PUSH1 0x40 DUP10 ADD DUP3 PUSH2 0x18C3 JUMP JUMPDEST POP PUSH1 0x60 DUP3 ADD MLOAD PUSH2 0x1A14 PUSH1 0x60 DUP10 ADD DUP3 PUSH2 0x18C3 JUMP JUMPDEST POP PUSH1 0x80 DUP3 ADD MLOAD PUSH1 0x80 DUP9 ADD MSTORE PUSH1 0xA0 DUP3 ADD MLOAD PUSH1 0xA0 DUP9 ADD MSTORE PUSH1 0xC0 DUP3 ADD MLOAD PUSH1 0xC0 DUP9 ADD MSTORE PUSH1 0xE0 DUP3 ADD MLOAD PUSH1 0xE0 DUP9 ADD MSTORE PUSH2 0x100 DUP1 DUP4 ADD MLOAD DUP2 DUP10 ADD MSTORE POP PUSH2 0x120 DUP1 DUP4 ADD MLOAD DUP2 DUP10 ADD MSTORE POP PUSH2 0x140 DUP1 DUP4 ADD MLOAD DUP3 DUP3 DUP11 ADD MSTORE PUSH2 0x1A6D DUP4 DUP11 ADD DUP3 PUSH2 0x18DD JUMP JUMPDEST SWAP2 POP POP PUSH2 0x160 SWAP2 POP DUP2 DUP4 ADD MLOAD DUP9 DUP3 SUB DUP4 DUP11 ADD MSTORE PUSH2 0x1A8A DUP3 DUP3 PUSH2 0x18DD JUMP JUMPDEST SWAP9 POP POP POP SWAP5 DUP8 ADD SWAP5 POP POP SWAP1 DUP6 ADD SWAP1 PUSH1 0x1 ADD PUSH2 0x199F JUMP JUMPDEST POP SWAP3 SWAP8 SWAP7 POP POP POP POP POP POP POP JUMP JUMPDEST SWAP1 DUP2 MSTORE PUSH1 0x20 ADD SWAP1 JUMP JUMPDEST SWAP4 DUP5 MSTORE PUSH1 0xFF SWAP3 SWAP1 SWAP3 AND PUSH1 0x20 DUP5 ADD MSTORE PUSH1 0x40 DUP4 ADD MSTORE PUSH1 0x60 DUP3 ADD MSTORE PUSH1 0x80 ADD SWAP1 JUMP JUMPDEST PUSH1 0x20 DUP1 DUP3 MSTORE PUSH1 0x12 SWAP1 DUP3 ADD MSTORE PUSH32 0x4C454E4754485F36355F52455155495245440000000000000000000000000000 PUSH1 0x40 DUP3 ADD MSTORE PUSH1 0x60 ADD SWAP1 JUMP JUMPDEST PUSH1 0x20 DUP1 DUP3 MSTORE PUSH1 0x1A SWAP1 DUP3 ADD MSTORE PUSH32 0x494E56414C49445F415050524F56414C5F5349474E4154555245000000000000 PUSH1 0x40 DUP3 ADD MSTORE PUSH1 0x60 ADD SWAP1 JUMP JUMPDEST PUSH1 0x20 DUP1 DUP3 MSTORE PUSH1 0x1A SWAP1 DUP3 ADD MSTORE PUSH32 0x46524F4D5F4C4553535F5448414E5F544F5F5245515549524544000000000000 PUSH1 0x40 DUP3 ADD MSTORE PUSH1 0x60 ADD SWAP1 JUMP JUMPDEST PUSH1 0x20 DUP1 DUP3 MSTORE PUSH1 0x1C SWAP1 DUP3 ADD MSTORE PUSH32 0x544F5F4C4553535F5448414E5F4C454E4754485F524551554952454400000000 PUSH1 0x40 DUP3 ADD MSTORE PUSH1 0x60 ADD SWAP1 JUMP JUMPDEST PUSH1 0x20 DUP1 DUP3 MSTORE PUSH1 0x17 SWAP1 DUP3 ADD MSTORE PUSH32 0x494E56414C49445F465245455F4D454D4F52595F505452000000000000000000 PUSH1 0x40 DUP3 ADD MSTORE PUSH1 0x60 ADD SWAP1 JUMP JUMPDEST PUSH1 0x20 DUP1 DUP3 MSTORE PUSH1 0x10 SWAP1 DUP3 ADD MSTORE PUSH32 0x415050524F56414C5F4558504952454400000000000000000000000000000000 PUSH1 0x40 DUP3 ADD MSTORE PUSH1 0x60 ADD SWAP1 JUMP JUMPDEST PUSH1 0x20 DUP1 DUP3 MSTORE PUSH1 0x26 SWAP1 DUP3 ADD MSTORE PUSH32 0x475245415445525F4F525F455155414C5F544F5F33325F4C454E4754485F5245 PUSH1 0x40 DUP3 ADD MSTORE PUSH32 0x5155495245440000000000000000000000000000000000000000000000000000 PUSH1 0x60 DUP3 ADD MSTORE PUSH1 0x80 ADD SWAP1 JUMP JUMPDEST PUSH1 0x20 DUP1 DUP3 MSTORE PUSH1 0x15 SWAP1 DUP3 ADD MSTORE PUSH32 0x5349474E41545552455F554E535550504F525445440000000000000000000000 PUSH1 0x40 DUP3 ADD MSTORE PUSH1 0x60 ADD SWAP1 JUMP JUMPDEST PUSH1 0x20 DUP1 DUP3 MSTORE PUSH1 0xE SWAP1 DUP3 ADD MSTORE PUSH32 0x494E56414C49445F4F524947494E000000000000000000000000000000000000 PUSH1 0x40 DUP3 ADD MSTORE PUSH1 0x60 ADD SWAP1 JUMP JUMPDEST PUSH1 0x20 DUP1 DUP3 MSTORE PUSH1 0x21 SWAP1 DUP3 ADD MSTORE PUSH32 0x475245415445525F5448414E5F5A45524F5F4C454E4754485F52455155495245 PUSH1 0x40 DUP3 ADD MSTORE PUSH32 0x4400000000000000000000000000000000000000000000000000000000000000 PUSH1 0x60 DUP3 ADD MSTORE PUSH1 0x80 ADD SWAP1 JUMP JUMPDEST PUSH1 0x20 DUP1 DUP3 MSTORE PUSH1 0x11 SWAP1 DUP3 ADD MSTORE PUSH32 0x5349474E41545552455F494C4C4547414C000000000000000000000000000000 PUSH1 0x40 DUP3 ADD MSTORE PUSH1 0x60 ADD SWAP1 JUMP JUMPDEST PUSH1 0x20 DUP1 DUP3 MSTORE PUSH1 0x1E SWAP1 DUP3 ADD MSTORE PUSH32 0x4C454E4754485F475245415445525F5448414E5F305F52455155495245440000 PUSH1 0x40 DUP3 ADD MSTORE PUSH1 0x60 ADD SWAP1 JUMP JUMPDEST PUSH1 0x20 DUP1 DUP3 MSTORE PUSH1 0x11 SWAP1 DUP3 ADD MSTORE PUSH32 0x5349474E41545552455F494E56414C4944000000000000000000000000000000 PUSH1 0x40 DUP3 ADD MSTORE PUSH1 0x60 ADD SWAP1 JUMP JUMPDEST PUSH1 0x20 DUP1 DUP3 MSTORE PUSH1 0x25 SWAP1 DUP3 ADD MSTORE PUSH32 0x475245415445525F4F525F455155414C5F544F5F345F4C454E4754485F524551 PUSH1 0x40 DUP3 ADD MSTORE PUSH32 0x5549524544000000000000000000000000000000000000000000000000000000 PUSH1 0x60 DUP3 ADD MSTORE PUSH1 0x80 ADD SWAP1 JUMP JUMPDEST PUSH1 0x20 DUP1 DUP3 MSTORE PUSH1 0x11 SWAP1 DUP3 ADD MSTORE PUSH32 0x4C454E4754485F305F5245515549524544000000000000000000000000000000 PUSH1 0x40 DUP3 ADD MSTORE PUSH1 0x60 ADD SWAP1 JUMP JUMPDEST PUSH1 0x0 DUP6 DUP3 MSTORE PUSH20 0xFFFFFFFFFFFFFFFFFFFFFFFFFFFFFFFFFFFFFFFF DUP6 AND PUSH1 0x20 DUP4 ADD MSTORE PUSH1 0x80 PUSH1 0x40 DUP4 ADD MSTORE PUSH2 0x1EB4 PUSH1 0x80 DUP4 ADD DUP6 PUSH2 0x18DD JUMP JUMPDEST DUP3 DUP2 SUB PUSH1 0x60 DUP5 ADD MSTORE PUSH2 0x1EC6 DUP2 DUP6 PUSH2 0x18DD JUMP JUMPDEST SWAP8 SWAP7 POP POP POP POP POP POP POP JUMP JUMPDEST PUSH1 0x40 MLOAD DUP2 DUP2 ADD PUSH8 0xFFFFFFFFFFFFFFFF DUP2 GT DUP3 DUP3 LT OR ISZERO PUSH2 0x1EF0 JUMPI PUSH1 0x0 DUP1 REVERT JUMPDEST PUSH1 0x40 MSTORE SWAP2 SWAP1 POP JUMP JUMPDEST PUSH1 0x0 PUSH8 0xFFFFFFFFFFFFFFFF DUP3 GT ISZERO PUSH2 0x1F0F JUMPI PUSH1 0x0 DUP1 REVERT JUMPDEST POP PUSH1 0x20 SWAP1 DUP2 MUL ADD SWAP1 JUMP JUMPDEST PUSH1 0x0 PUSH8 0xFFFFFFFFFFFFFFFF DUP3 GT ISZERO PUSH2 0x1F30 JUMPI PUSH1 0x0 DUP1 REVERT JUMPDEST POP PUSH1 0x1F ADD PUSH32 0xFFFFFFFFFFFFFFFFFFFFFFFFFFFFFFFFFFFFFFFFFFFFFFFFFFFFFFFFFFFFFFE0 AND PUSH1 0x20 ADD SWAP1 JUMP JUMPDEST PUSH1 0x0 JUMPDEST DUP4 DUP2 LT ISZERO PUSH2 0x1F77 JUMPI DUP2 DUP2 ADD MLOAD DUP4 DUP3 ADD MSTORE PUSH1 0x20 ADD PUSH2 0x1F5F JUMP JUMPDEST DUP4 DUP2 GT ISZERO PUSH2 0x1F86 JUMPI PUSH1 0x0 DUP5 DUP5 ADD MSTORE JUMPDEST POP POP POP POP JUMP JUMPDEST PUSH20 0xFFFFFFFFFFFFFFFFFFFFFFFFFFFFFFFFFFFFFFFF DUP2 AND DUP2 EQ PUSH2 0x1FAE JUMPI PUSH1 0x0 DUP1 REVERT JUMPDEST POP JUMP INVALID LOG2 PUSH6 0x627A7A723058 KECCAK256 0xbc 0xdb 0x4a 0xab RETURNDATACOPY BYTE DIV 0xea 0x5c 0xd6 0xc1 CODESIZE SWAP2 GT AND 0xce 0xac EXTCODEHASH 0xac DUP9 0xde NOT SWAP6 0xc4 0xd3 CALLCODE 0x4f 0xdd EXTCODEHASH TIMESTAMP 0xf 0xb6 PUSH13 0x6578706572696D656E74616CF5 STOP CALLDATACOPY "
            }
        }
    },
    "sourceTreeHashHex": "0xcd3a1dbf858b46a5820dab320baad978613f07ec73d35b6cbbde13c2937bbc04"
}